{
  "address": "0xF9c3A2F1C7AdB58686B37cB728a8d2c77c00860d",
  "abi": [
    {
      "inputs": [
        {
          "internalType": "address",
          "name": "_gauge",
          "type": "address"
        },
        {
          "internalType": "address",
          "name": "_router",
          "type": "address"
        },
        {
          "components": [
            {
              "internalType": "address",
              "name": "gasToken",
              "type": "address"
            },
            {
              "internalType": "address[]",
              "name": "rewards",
              "type": "address[]"
            },
            {
              "internalType": "address",
              "name": "simpleRouter",
              "type": "address"
            }
          ],
          "internalType": "struct BaseStrategy.BaseStrategySettings",
          "name": "_variableRewardsStrategySettings",
          "type": "tuple"
        },
        {
          "components": [
            {
              "internalType": "string",
              "name": "name",
              "type": "string"
            },
            {
              "internalType": "address",
              "name": "owner",
              "type": "address"
            },
            {
              "internalType": "address",
              "name": "dev",
              "type": "address"
            },
            {
              "internalType": "address",
              "name": "feeCollector",
              "type": "address"
            },
            {
              "internalType": "address",
              "name": "depositToken",
              "type": "address"
            },
            {
              "internalType": "address",
              "name": "rewardToken",
              "type": "address"
            },
            {
              "internalType": "uint256",
              "name": "minTokensToReinvest",
              "type": "uint256"
            },
            {
              "internalType": "uint256",
              "name": "devFeeBips",
              "type": "uint256"
            },
            {
              "internalType": "uint256",
              "name": "reinvestRewardBips",
              "type": "uint256"
            }
          ],
          "internalType": "struct YakStrategyV3.StrategySettings",
          "name": "_strategySettings",
          "type": "tuple"
        }
      ],
      "stateMutability": "nonpayable",
      "type": "constructor"
    },
    {
      "anonymous": false,
      "inputs": [
        {
          "indexed": false,
          "internalType": "address",
          "name": "rewardToken",
          "type": "address"
        }
      ],
      "name": "AddReward",
      "type": "event"
    },
    {
      "anonymous": false,
      "inputs": [
        {
          "indexed": true,
          "internalType": "address",
          "name": "owner",
          "type": "address"
        },
        {
          "indexed": true,
          "internalType": "address",
          "name": "spender",
          "type": "address"
        },
        {
          "indexed": false,
          "internalType": "uint256",
          "name": "value",
          "type": "uint256"
        }
      ],
      "name": "Approval",
      "type": "event"
    },
    {
      "anonymous": false,
      "inputs": [
        {
          "indexed": true,
          "internalType": "address",
          "name": "account",
          "type": "address"
        },
        {
          "indexed": false,
          "internalType": "uint256",
          "name": "amount",
          "type": "uint256"
        }
      ],
      "name": "Deposit",
      "type": "event"
    },
    {
      "anonymous": false,
      "inputs": [
        {
          "indexed": false,
          "internalType": "bool",
          "name": "newValue",
          "type": "bool"
        }
      ],
      "name": "DepositsEnabled",
      "type": "event"
    },
    {
      "anonymous": false,
      "inputs": [
        {
          "indexed": true,
          "internalType": "address",
          "name": "previousOwner",
          "type": "address"
        },
        {
          "indexed": true,
          "internalType": "address",
          "name": "newOwner",
          "type": "address"
        }
      ],
      "name": "OwnershipTransferred",
      "type": "event"
    },
    {
      "anonymous": false,
      "inputs": [
        {
          "indexed": false,
          "internalType": "address",
          "name": "token",
          "type": "address"
        },
        {
          "indexed": false,
          "internalType": "uint256",
          "name": "amount",
          "type": "uint256"
        }
      ],
      "name": "Recovered",
      "type": "event"
    },
    {
      "anonymous": false,
      "inputs": [
        {
          "indexed": false,
          "internalType": "uint256",
          "name": "newTotalDeposits",
          "type": "uint256"
        },
        {
          "indexed": false,
          "internalType": "uint256",
          "name": "newTotalSupply",
          "type": "uint256"
        }
      ],
      "name": "Reinvest",
      "type": "event"
    },
    {
      "anonymous": false,
      "inputs": [
        {
          "indexed": false,
          "internalType": "address",
          "name": "rewardToken",
          "type": "address"
        }
      ],
      "name": "RemoveReward",
      "type": "event"
    },
    {
      "anonymous": false,
      "inputs": [
        {
          "indexed": true,
          "internalType": "address",
          "name": "from",
          "type": "address"
        },
        {
          "indexed": true,
          "internalType": "address",
          "name": "to",
          "type": "address"
        },
        {
          "indexed": false,
          "internalType": "uint256",
          "name": "value",
          "type": "uint256"
        }
      ],
      "name": "Transfer",
      "type": "event"
    },
    {
      "anonymous": false,
      "inputs": [
        {
          "indexed": false,
          "internalType": "address",
          "name": "oldValue",
          "type": "address"
        },
        {
          "indexed": false,
          "internalType": "address",
          "name": "newValue",
          "type": "address"
        }
      ],
      "name": "UpdateDevAddr",
      "type": "event"
    },
    {
      "anonymous": false,
      "inputs": [
        {
          "indexed": false,
          "internalType": "uint256",
          "name": "oldValue",
          "type": "uint256"
        },
        {
          "indexed": false,
          "internalType": "uint256",
          "name": "newValue",
          "type": "uint256"
        }
      ],
      "name": "UpdateDevFee",
      "type": "event"
    },
    {
      "anonymous": false,
      "inputs": [
        {
          "indexed": false,
          "internalType": "address",
          "name": "oldValue",
          "type": "address"
        },
        {
          "indexed": false,
          "internalType": "address",
          "name": "newValue",
          "type": "address"
        }
      ],
      "name": "UpdateFeeCollector",
      "type": "event"
    },
    {
      "anonymous": false,
      "inputs": [
        {
          "indexed": false,
          "internalType": "uint256",
          "name": "oldValue",
          "type": "uint256"
        },
        {
          "indexed": false,
          "internalType": "uint256",
          "name": "newValue",
          "type": "uint256"
        }
      ],
      "name": "UpdateMaxTokensToDepositWithoutReinvest",
      "type": "event"
    },
    {
      "anonymous": false,
      "inputs": [
        {
          "indexed": false,
          "internalType": "uint256",
          "name": "oldValue",
          "type": "uint256"
        },
        {
          "indexed": false,
          "internalType": "uint256",
          "name": "newValue",
          "type": "uint256"
        }
      ],
      "name": "UpdateMinTokensToReinvest",
      "type": "event"
    },
    {
      "anonymous": false,
      "inputs": [
        {
          "indexed": false,
          "internalType": "uint256",
          "name": "oldValue",
          "type": "uint256"
        },
        {
          "indexed": false,
          "internalType": "uint256",
          "name": "newValue",
          "type": "uint256"
        }
      ],
      "name": "UpdateReinvestReward",
      "type": "event"
    },
    {
      "anonymous": false,
      "inputs": [
        {
          "indexed": false,
          "internalType": "address",
          "name": "oldRouter",
          "type": "address"
        },
        {
          "indexed": false,
          "internalType": "address",
          "name": "newRouter",
          "type": "address"
        }
      ],
      "name": "UpdateRouter",
      "type": "event"
    },
    {
      "anonymous": false,
      "inputs": [
        {
          "indexed": true,
          "internalType": "address",
          "name": "account",
          "type": "address"
        },
        {
          "indexed": false,
          "internalType": "uint256",
          "name": "amount",
          "type": "uint256"
        }
      ],
      "name": "Withdraw",
      "type": "event"
    },
    {
      "inputs": [],
      "name": "DEPOSITS_ENABLED",
      "outputs": [
        {
          "internalType": "bool",
          "name": "",
          "type": "bool"
        }
      ],
      "stateMutability": "view",
      "type": "function"
    },
    {
      "inputs": [],
      "name": "DEV_FEE_BIPS",
      "outputs": [
        {
          "internalType": "uint256",
          "name": "",
          "type": "uint256"
        }
      ],
      "stateMutability": "view",
      "type": "function"
    },
    {
      "inputs": [],
      "name": "DOMAIN_TYPEHASH",
      "outputs": [
        {
          "internalType": "bytes32",
          "name": "",
          "type": "bytes32"
        }
      ],
      "stateMutability": "view",
      "type": "function"
    },
    {
      "inputs": [],
      "name": "MIN_TOKENS_TO_REINVEST",
      "outputs": [
        {
          "internalType": "uint256",
          "name": "",
          "type": "uint256"
        }
      ],
      "stateMutability": "view",
      "type": "function"
    },
    {
      "inputs": [],
      "name": "PERMIT_TYPEHASH",
      "outputs": [
        {
          "internalType": "bytes32",
          "name": "",
          "type": "bytes32"
        }
      ],
      "stateMutability": "view",
      "type": "function"
    },
    {
      "inputs": [],
      "name": "REINVEST_REWARD_BIPS",
      "outputs": [
        {
          "internalType": "uint256",
          "name": "",
          "type": "uint256"
        }
      ],
      "stateMutability": "view",
      "type": "function"
    },
    {
      "inputs": [],
      "name": "VERSION_HASH",
      "outputs": [
        {
          "internalType": "bytes32",
          "name": "",
          "type": "bytes32"
        }
      ],
      "stateMutability": "view",
      "type": "function"
    },
    {
      "inputs": [
        {
          "internalType": "address",
          "name": "_rewardToken",
          "type": "address"
        }
      ],
      "name": "addReward",
      "outputs": [],
      "stateMutability": "nonpayable",
      "type": "function"
    },
    {
      "inputs": [
        {
          "internalType": "address",
          "name": "account",
          "type": "address"
        },
        {
          "internalType": "address",
          "name": "spender",
          "type": "address"
        }
      ],
      "name": "allowance",
      "outputs": [
        {
          "internalType": "uint256",
          "name": "",
          "type": "uint256"
        }
      ],
      "stateMutability": "view",
      "type": "function"
    },
    {
      "inputs": [
        {
          "internalType": "address",
          "name": "spender",
          "type": "address"
        },
        {
          "internalType": "uint256",
          "name": "amount",
          "type": "uint256"
        }
      ],
      "name": "approve",
      "outputs": [
        {
          "internalType": "bool",
          "name": "",
          "type": "bool"
        }
      ],
      "stateMutability": "nonpayable",
      "type": "function"
    },
    {
      "inputs": [
        {
          "internalType": "address",
          "name": "account",
          "type": "address"
        }
      ],
      "name": "balanceOf",
      "outputs": [
        {
          "internalType": "uint256",
          "name": "",
          "type": "uint256"
        }
      ],
      "stateMutability": "view",
      "type": "function"
    },
    {
      "inputs": [
        {
          "internalType": "uint256",
          "name": "_amount",
          "type": "uint256"
        }
      ],
      "name": "calculateDepositFee",
      "outputs": [
        {
          "internalType": "uint256",
          "name": "",
          "type": "uint256"
        }
      ],
      "stateMutability": "view",
      "type": "function"
    },
    {
      "inputs": [
        {
          "internalType": "uint256",
          "name": "_amount",
          "type": "uint256"
        }
      ],
      "name": "calculateWithdrawFee",
      "outputs": [
        {
          "internalType": "uint256",
          "name": "",
          "type": "uint256"
        }
      ],
      "stateMutability": "view",
      "type": "function"
    },
    {
      "inputs": [],
      "name": "checkReward",
      "outputs": [
        {
          "internalType": "uint256",
          "name": "",
          "type": "uint256"
        }
      ],
      "stateMutability": "view",
      "type": "function"
    },
    {
      "inputs": [],
      "name": "decimals",
      "outputs": [
        {
          "internalType": "uint8",
          "name": "",
          "type": "uint8"
        }
      ],
      "stateMutability": "view",
      "type": "function"
    },
    {
      "inputs": [
        {
          "internalType": "uint256",
          "name": "_amount",
          "type": "uint256"
        }
      ],
      "name": "deposit",
      "outputs": [],
      "stateMutability": "nonpayable",
      "type": "function"
    },
    {
      "inputs": [
        {
          "internalType": "address",
          "name": "_account",
          "type": "address"
        },
        {
          "internalType": "uint256",
          "name": "_amount",
          "type": "uint256"
        }
      ],
      "name": "depositFor",
      "outputs": [],
      "stateMutability": "nonpayable",
      "type": "function"
    },
    {
      "inputs": [],
      "name": "depositToken",
      "outputs": [
        {
          "internalType": "contract IERC20",
          "name": "",
          "type": "address"
        }
      ],
      "stateMutability": "view",
      "type": "function"
    },
    {
      "inputs": [
        {
          "internalType": "uint256",
          "name": "_amount",
          "type": "uint256"
        },
        {
          "internalType": "uint256",
          "name": "_deadline",
          "type": "uint256"
        },
        {
          "internalType": "uint8",
          "name": "_v",
          "type": "uint8"
        },
        {
          "internalType": "bytes32",
          "name": "_r",
          "type": "bytes32"
        },
        {
          "internalType": "bytes32",
          "name": "_s",
          "type": "bytes32"
        }
      ],
      "name": "depositWithPermit",
      "outputs": [],
      "stateMutability": "nonpayable",
      "type": "function"
    },
    {
      "inputs": [],
      "name": "devAddr",
      "outputs": [
        {
          "internalType": "address",
          "name": "",
          "type": "address"
        }
      ],
      "stateMutability": "view",
      "type": "function"
    },
    {
      "inputs": [],
      "name": "disableDeposits",
      "outputs": [],
      "stateMutability": "nonpayable",
      "type": "function"
    },
    {
      "inputs": [],
      "name": "enableDeposits",
      "outputs": [],
      "stateMutability": "nonpayable",
      "type": "function"
    },
    {
      "inputs": [],
      "name": "estimateReinvestReward",
      "outputs": [
        {
          "internalType": "uint256",
          "name": "",
          "type": "uint256"
        }
      ],
      "stateMutability": "view",
      "type": "function"
    },
    {
      "inputs": [],
      "name": "feeCollector",
      "outputs": [
        {
          "internalType": "address",
          "name": "",
          "type": "address"
        }
      ],
      "stateMutability": "view",
      "type": "function"
    },
    {
      "inputs": [],
      "name": "gauge",
      "outputs": [
        {
          "internalType": "contract IGauge",
          "name": "",
          "type": "address"
        }
      ],
      "stateMutability": "view",
      "type": "function"
    },
    {
      "inputs": [
        {
          "internalType": "uint256",
          "name": "amount",
          "type": "uint256"
        }
      ],
      "name": "getDepositTokensForShares",
      "outputs": [
        {
          "internalType": "uint256",
          "name": "",
          "type": "uint256"
        }
      ],
      "stateMutability": "view",
      "type": "function"
    },
    {
      "inputs": [],
      "name": "getDomainSeparator",
      "outputs": [
        {
          "internalType": "bytes32",
          "name": "",
          "type": "bytes32"
        }
      ],
      "stateMutability": "view",
      "type": "function"
    },
    {
      "inputs": [
        {
          "internalType": "uint256",
          "name": "amount",
          "type": "uint256"
        }
      ],
      "name": "getSharesForDepositTokens",
      "outputs": [
        {
          "internalType": "uint256",
          "name": "",
          "type": "uint256"
        }
      ],
      "stateMutability": "view",
      "type": "function"
    },
    {
      "inputs": [],
      "name": "getSupportedRewardsLength",
      "outputs": [
        {
          "internalType": "uint256",
          "name": "",
          "type": "uint256"
        }
      ],
      "stateMutability": "view",
      "type": "function"
    },
    {
      "inputs": [],
      "name": "name",
      "outputs": [
        {
          "internalType": "string",
          "name": "",
          "type": "string"
        }
      ],
      "stateMutability": "view",
      "type": "function"
    },
    {
      "inputs": [
        {
          "internalType": "address",
          "name": "",
          "type": "address"
        }
      ],
      "name": "nonces",
      "outputs": [
        {
          "internalType": "uint256",
          "name": "",
          "type": "uint256"
        }
      ],
      "stateMutability": "view",
      "type": "function"
    },
    {
      "inputs": [],
      "name": "owner",
      "outputs": [
        {
          "internalType": "address",
          "name": "",
          "type": "address"
        }
      ],
      "stateMutability": "view",
      "type": "function"
    },
    {
      "inputs": [
        {
          "internalType": "address",
          "name": "owner",
          "type": "address"
        },
        {
          "internalType": "address",
          "name": "spender",
          "type": "address"
        },
        {
          "internalType": "uint256",
          "name": "value",
          "type": "uint256"
        },
        {
          "internalType": "uint256",
          "name": "deadline",
          "type": "uint256"
        },
        {
          "internalType": "uint8",
          "name": "v",
          "type": "uint8"
        },
        {
          "internalType": "bytes32",
          "name": "r",
          "type": "bytes32"
        },
        {
          "internalType": "bytes32",
          "name": "s",
          "type": "bytes32"
        }
      ],
      "name": "permit",
      "outputs": [],
      "stateMutability": "nonpayable",
      "type": "function"
    },
    {
      "inputs": [
        {
          "internalType": "address",
          "name": "tokenAddress",
          "type": "address"
        },
        {
          "internalType": "uint256",
          "name": "tokenAmount",
          "type": "uint256"
        }
      ],
      "name": "recoverERC20",
      "outputs": [],
      "stateMutability": "nonpayable",
      "type": "function"
    },
    {
      "inputs": [
        {
          "internalType": "uint256",
          "name": "amount",
          "type": "uint256"
        }
      ],
      "name": "recoverGas",
      "outputs": [],
      "stateMutability": "nonpayable",
      "type": "function"
    },
    {
      "inputs": [],
      "name": "reinvest",
      "outputs": [],
      "stateMutability": "nonpayable",
      "type": "function"
    },
    {
      "inputs": [
        {
          "internalType": "address",
          "name": "_rewardToken",
          "type": "address"
        }
      ],
      "name": "removeReward",
      "outputs": [],
      "stateMutability": "nonpayable",
      "type": "function"
    },
    {
      "inputs": [],
      "name": "renounceOwnership",
      "outputs": [],
      "stateMutability": "nonpayable",
      "type": "function"
    },
    {
      "inputs": [
        {
          "internalType": "uint256",
          "name": "_minReturnAmountAccepted",
          "type": "uint256"
        }
      ],
      "name": "rescueDeployedFunds",
      "outputs": [],
      "stateMutability": "nonpayable",
      "type": "function"
    },
    {
      "inputs": [
        {
          "internalType": "address",
          "name": "token",
          "type": "address"
        },
        {
          "internalType": "address",
          "name": "spender",
          "type": "address"
        }
      ],
      "name": "revokeAllowance",
      "outputs": [],
      "stateMutability": "nonpayable",
      "type": "function"
    },
    {
      "inputs": [],
      "name": "rewardToken",
      "outputs": [
        {
          "internalType": "contract IERC20",
          "name": "",
          "type": "address"
        }
      ],
      "stateMutability": "view",
      "type": "function"
    },
    {
      "inputs": [],
      "name": "router",
      "outputs": [
        {
          "internalType": "contract IRouter",
          "name": "",
          "type": "address"
        }
      ],
      "stateMutability": "view",
      "type": "function"
    },
    {
      "inputs": [],
      "name": "simpleRouter",
      "outputs": [
        {
          "internalType": "contract ISimpleRouter",
          "name": "",
          "type": "address"
        }
      ],
      "stateMutability": "view",
      "type": "function"
    },
    {
      "inputs": [
        {
          "internalType": "uint256",
          "name": "",
          "type": "uint256"
        }
      ],
      "name": "supportedRewards",
      "outputs": [
        {
          "internalType": "address",
          "name": "",
          "type": "address"
        }
      ],
      "stateMutability": "view",
      "type": "function"
    },
    {
      "inputs": [],
      "name": "symbol",
      "outputs": [
        {
          "internalType": "string",
          "name": "",
          "type": "string"
        }
      ],
      "stateMutability": "view",
      "type": "function"
    },
    {
      "inputs": [],
      "name": "totalDeposits",
      "outputs": [
        {
          "internalType": "uint256",
          "name": "",
          "type": "uint256"
        }
      ],
      "stateMutability": "view",
      "type": "function"
    },
    {
      "inputs": [],
      "name": "totalSupply",
      "outputs": [
        {
          "internalType": "uint256",
          "name": "",
          "type": "uint256"
        }
      ],
      "stateMutability": "view",
      "type": "function"
    },
    {
      "inputs": [
        {
          "internalType": "address",
          "name": "dst",
          "type": "address"
        },
        {
          "internalType": "uint256",
          "name": "amount",
          "type": "uint256"
        }
      ],
      "name": "transfer",
      "outputs": [
        {
          "internalType": "bool",
          "name": "",
          "type": "bool"
        }
      ],
      "stateMutability": "nonpayable",
      "type": "function"
    },
    {
      "inputs": [
        {
          "internalType": "address",
          "name": "src",
          "type": "address"
        },
        {
          "internalType": "address",
          "name": "dst",
          "type": "address"
        },
        {
          "internalType": "uint256",
          "name": "amount",
          "type": "uint256"
        }
      ],
      "name": "transferFrom",
      "outputs": [
        {
          "internalType": "bool",
          "name": "",
          "type": "bool"
        }
      ],
      "stateMutability": "nonpayable",
      "type": "function"
    },
    {
      "inputs": [
        {
          "internalType": "address",
          "name": "newOwner",
          "type": "address"
        }
      ],
      "name": "transferOwnership",
      "outputs": [],
      "stateMutability": "nonpayable",
      "type": "function"
    },
    {
      "inputs": [
        {
          "internalType": "address",
          "name": "newValue",
          "type": "address"
        }
      ],
      "name": "updateDevAddr",
      "outputs": [],
      "stateMutability": "nonpayable",
      "type": "function"
    },
    {
      "inputs": [
        {
          "internalType": "uint256",
          "name": "newValue",
          "type": "uint256"
        }
      ],
      "name": "updateDevFee",
      "outputs": [],
      "stateMutability": "nonpayable",
      "type": "function"
    },
    {
      "inputs": [
        {
          "internalType": "address",
          "name": "newValue",
          "type": "address"
        }
      ],
      "name": "updateFeeCollector",
      "outputs": [],
      "stateMutability": "nonpayable",
      "type": "function"
    },
    {
      "inputs": [
        {
          "internalType": "uint256",
          "name": "newValue",
          "type": "uint256"
        }
      ],
      "name": "updateMinTokensToReinvest",
      "outputs": [],
      "stateMutability": "nonpayable",
      "type": "function"
    },
    {
      "inputs": [
        {
          "internalType": "uint256",
          "name": "newValue",
          "type": "uint256"
        }
      ],
      "name": "updateReinvestReward",
      "outputs": [],
      "stateMutability": "nonpayable",
      "type": "function"
    },
    {
      "inputs": [
        {
          "internalType": "address",
          "name": "_router",
          "type": "address"
        }
      ],
      "name": "updateRouter",
      "outputs": [],
      "stateMutability": "nonpayable",
      "type": "function"
    },
    {
      "inputs": [
        {
          "internalType": "uint256",
          "name": "_amount",
          "type": "uint256"
        }
      ],
      "name": "withdraw",
      "outputs": [],
      "stateMutability": "nonpayable",
      "type": "function"
    }
  ],
  "transactionHash": "0x5e5d645709dfd1963d7d5922fe43e824b43ec12de48731497a50937538f15a6a",
  "args": [
    "0xcB76D9bC96368f3Dc137C94E23beEE489ee9Eb87",
    "0xCaD684775d7879E63f5d319dAcC8086EeCC01B01",
    {
      "gasToken": "0xB31f66AA3C1e785363F0875A1B74E27b85FD66c7",
      "rewards": [
        "0xcd94a87696FAC69Edae3a70fE5725307Ae1c43f6"
      ],
      "simpleRouter": "0x959a0af5A46F76AA37317BC417D48B445658B188"
    },
    {
      "name": "Yield Yak: Blackhole EURC-USDC",
      "owner": "0xDcEDF06Fd33E1D7b6eb4b309f779a0e9D3172e44",
      "dev": "0xDcEDF06Fd33E1D7b6eb4b309f779a0e9D3172e44",
      "feeCollector": "0x2D580F9CF2fB2D09BC411532988F2aFdA4E7BefF",
      "depositToken": "0x65f83CCacaBaAC4eD2f80289A02dF4D35d744aE8",
      "rewardToken": "0xB31f66AA3C1e785363F0875A1B74E27b85FD66c7",
      "minTokensToReinvest": "1000000000000000",
      "devFeeBips": 900,
      "reinvestRewardBips": 100
    }
  ],
  "solcInputHash": "4389bb4cec4118f067a76ba9e773cf60",
  "bytecode": "0x6101a06040526009610160819052685969656c642059616b60b81b6101809081526200002f916000919062000901565b506040805180820190915260038082526216549560ea1b60209092019182526200005c9160019162000901565b503480156200006a57600080fd5b50604051620056d6380380620056d68339810160408190526200008d9162000c19565b600680546001600160a01b03191633908117909155604051839183918291908190600090600080516020620056b6833981519152908290a35080518051620000de9160009160209091019062000901565b506080808201516001600160a01b0390811690915260a0808301519091169052600780546001600160a01b0319163317905560c08101516200012090620003e6565b60e0810151620001309062000483565b61010081015162000141906200053f565b60608101516200015190620005fb565b60408101516200016190620006af565b6200016b62000763565b60208101516200017b9062000804565b5081516001600160a01b031660c0526020808301518051620001a292600d92019062000990565b50604082810151600e80546001600160a01b0319166001600160a01b039092169190911790558051600080825260208201527fc7606d21ac05cd309191543e409f0845c016120563783d70e4f41419dc0ef234910160405180910390a150506080516001600160a01b03166322be3de16040518163ffffffff1660e01b8152600401602060405180830381865afa15801562000242573d6000803e3d6000fd5b505050506040513d601f19601f8201168201806040525081019062000268919062000d74565b620002cf5760405162461bcd60e51b815260206004820152602c60248201527f426c61636b686f6c65537461626c653a3a4f6e6c7920737461626c652070616960448201526b1c9cc81cdd5c1c1bdc9d195960a21b60648201526084015b60405180910390fd5b6001600160a01b0380851660e0528381166101005260805160408051630dfe168160e01b815290519190921691630dfe16819160048083019260209291908290030181865afa15801562000327573d6000803e3d6000fd5b505050506040513d601f19601f820116820180604052508101906200034d919062000d9f565b6001600160a01b0316610120816001600160a01b0316815250506080516001600160a01b031663d21220a76040518163ffffffff1660e01b8152600401602060405180830381865afa158015620003a8573d6000803e3d6000fd5b505050506040513d601f19601f82011682018060405250810190620003ce919062000d9f565b6001600160a01b0316610140525062000e2092505050565b6007546001600160a01b03163314620004425760405162461bcd60e51b815260206004820152601460248201527f59616b53747261746567793a3a6f6e6c794465760000000000000000000000006044820152606401620002c6565b60095460408051918252602082018390527f481f79ac3a523b6d6db3c5a720e190e986d1cc1b41adcdf50f9caef849901100910160405180910390a1600955565b6007546001600160a01b03163314620004df5760405162461bcd60e51b815260206004820152601460248201527f59616b53747261746567793a3a6f6e6c794465760000000000000000000000006044820152606401620002c6565b612710600b5482620004f2919062000dbd565b1115620004fe57600080fd5b600c5460408051918252602082018390527f2a42303d002f0ba6cfe8259c91d4684443fb0b3de286ba74991175d651726131910160405180910390a1600c55565b6007546001600160a01b031633146200059b5760405162461bcd60e51b815260206004820152601460248201527f59616b53747261746567793a3a6f6e6c794465760000000000000000000000006044820152606401620002c6565b612710600c5482620005ae919062000dbd565b1115620005ba57600080fd5b600b5460408051918252602082018390527fe7f97d51d307dc44045597c9978bec0f842e6bb40d19b9444084cfa30d9ed4f2910160405180910390a1600b55565b6006546001600160a01b03163314620006465760405162461bcd60e51b81526020600482018190526024820152600080516020620056968339815191526044820152606401620002c6565b600854604080516001600160a01b03928316815291831660208301527fcc882185e6edeeb762130016ea1faf3d7aa9c01b199bfd646f965b58ab741063910160405180910390a1600880546001600160a01b0319166001600160a01b0392909216919091179055565b6006546001600160a01b03163314620006fa5760405162461bcd60e51b81526020600482018190526024820152600080516020620056968339815191526044820152606401620002c6565b600754604080516001600160a01b03928316815291831660208301527fa8e91499ed37682f43cffb045fcc7d379a91e8c9a14e6321877ee34dee564c00910160405180910390a1600780546001600160a01b0319166001600160a01b0392909216919091179055565b6006546001600160a01b03163314620007ae5760405162461bcd60e51b81526020600482018190526024820152600080516020620056968339815191526044820152606401620002c6565b600a5460ff1615620007bf57600080fd5b600a805460ff191660019081179091556040519081527f7b014ed3854e7f5cb0218d58b3c6ae7d53a68bb0af2f67bfb029ea42c38a7e859060200160405180910390a1565b6006546001600160a01b031633146200084f5760405162461bcd60e51b81526020600482018190526024820152600080516020620056968339815191526044820152606401620002c6565b6001600160a01b038116620008b65760405162461bcd60e51b815260206004820152602660248201527f4f776e61626c653a206e6577206f776e657220697320746865207a65726f206160448201526564647265737360d01b6064820152608401620002c6565b6006546040516001600160a01b03808416921690600080516020620056b683398151915290600090a3600680546001600160a01b0319166001600160a01b0392909216919091179055565b8280546200090f9062000de4565b90600052602060002090601f0160209004810192826200093357600085556200097e565b82601f106200094e57805160ff19168380011785556200097e565b828001600101855582156200097e579182015b828111156200097e57825182559160200191906001019062000961565b506200098c929150620009e8565b5090565b8280548282559060005260206000209081019282156200097e579160200282015b828111156200097e57825182546001600160a01b0319166001600160a01b03909116178255602090920191600190910190620009b1565b5b808211156200098c5760008155600101620009e9565b80516001600160a01b038116811462000a1757600080fd5b919050565b634e487b7160e01b600052604160045260246000fd5b60405161012081016001600160401b038111828210171562000a585762000a5862000a1c565b60405290565b604051606081016001600160401b038111828210171562000a585762000a5862000a1c565b604051601f8201601f191681016001600160401b038111828210171562000aae5762000aae62000a1c565b604052919050565b600082601f83011262000ac857600080fd5b81516001600160401b0381111562000ae45762000ae462000a1c565b602062000afa601f8301601f1916820162000a83565b828152858284870101111562000b0f57600080fd5b60005b8381101562000b2f57858101830151828201840152820162000b12565b8381111562000b415760008385840101525b5095945050505050565b6000610120828403121562000b5f57600080fd5b62000b6962000a32565b82519091506001600160401b0381111562000b8357600080fd5b62000b918482850162000ab6565b82525062000ba260208301620009ff565b602082015262000bb560408301620009ff565b604082015262000bc860608301620009ff565b606082015262000bdb60808301620009ff565b608082015262000bee60a08301620009ff565b60a082015260c082015160c082015260e082015160e082015261010080830151818301525092915050565b6000806000806080858703121562000c3057600080fd5b62000c3b85620009ff565b9350602062000c4c818701620009ff565b60408701519094506001600160401b038082111562000c6a57600080fd5b908701906060828a03121562000c7f57600080fd5b62000c8962000a5e565b62000c9483620009ff565b8152838301518281111562000ca857600080fd5b8301601f81018b1362000cba57600080fd5b80518381111562000ccf5762000ccf62000a1c565b8060051b62000ce087820162000a83565b918252828101870191878101908e84111562000cfb57600080fd5b938801935b8385101562000d245762000d1485620009ff565b8252938801939088019062000d00565b858901525062000d3b9250505060408401620009ff565b6040820152606089015190955092508083111562000d5857600080fd5b505062000d688782880162000b4b565b91505092959194509250565b60006020828403121562000d8757600080fd5b8151801515811462000d9857600080fd5b9392505050565b60006020828403121562000db257600080fd5b62000d9882620009ff565b6000821982111562000ddf57634e487b7160e01b600052601160045260246000fd5b500190565b600181811c9082168062000df957607f821691505b60208210810362000e1a57634e487b7160e01b600052602260045260246000fd5b50919050565b60805160a05160c05160e0516101005161012051610140516146a162000ff56000396000818161329b015281816133150152818161340701528181613761015281816137db01528181613a0001528181613c130152613cfe015260008181613153015281816131cd015281816133e601528181613539015281816135b30152818161397301528181613bf20152613caa015260008181610773015281816133b70152613bc301526000818161059801528181610f9501528181612101015281816124120152818161253401528181612e4b01528181612ecf0152612f3901526000818161177801528181612b5401528181612b830152612bf801526000818161074c015281816116bb015281816117e00152818161192801528181612775015281816127dd01528181612a9d01528181612c2201528181612ce301528181612d4a01528181613129015281816131ab01528181613271015281816132f30152818161350f015281816135910152818161363d01528181613737015281816137b9015261386501526000818161064c015281816109bd01528181610a7701528181610bba01528181610c54015281816122c601528181612e1e01528181613ccc01528181613d200152613d5c01526146a16000f3fe608060405234801561001057600080fd5b50600436106103035760003560e01c806399729ec11161019e578063c851cc32116100ef578063e75ab0451161009d578063e75ab045146106f3578063eab89a5a14610706578063ed24911d14610719578063f2fde38b14610721578063f6314d0714610734578063f7c618c114610747578063f887ea401461076e578063fdb5a03e1461079557600080fd5b8063c851cc3214610634578063c89039c514610647578063d2c35ce81461066e578063d505accf14610681578063da09c72c14610694578063dd62ed3e146106a7578063dd8ce4d6146106e057600080fd5b8063ac67e1af1161014c578063ac67e1af146105e0578063b52a321f146105e8578063b6b55f25146105f5578063b9e57b8014610608578063bd079f5514610610578063c415b95c14610619578063c4b24a461461062c57600080fd5b806399729ec1146105335780639c9b2e21146105465780639e4e731814610559578063a4d5e67c14610580578063a6f19c8414610593578063a8ae2b7c146105ba578063a9059cbb146105cd57600080fd5b80635ea682ea116102585780637ecebe00116102065780637ecebe00146104b457806381837230146104d45780638980f11f146104e75780638aff733d146104fa5780638da5cb5b146105035780639291d5631461051857806395d89b411461052b57600080fd5b80635ea682ea14610439578063666d25b91461044257806370a0823114610455578063715018a61461047e5780637897e7f6146104865780637ae26773146104995780637d882097146104ac57600080fd5b8063258250da116102b5578063258250da146103ad5780632e1a7d4d146103b55780632f4f21e2146103ca57806330adf81f146103dd578063313ce567146104045780634a970be71461041e5780635e4c57a41461043157600080fd5b806306fdde0314610308578063095ea7b314610326578063110560351461034957806318160ddd1461036a57806320606b701461037357806323b872dd1461039a578063247d284b14610349575b600080fd5b61031061079d565b60405161031d9190613e42565b60405180910390f35b610339610334366004613e8a565b61082b565b604051901515815260200161031d565b61035c610357366004613eb6565b610841565b60405190815260200161031d565b61035c60025481565b61035c7f8b73c3c69bb8fe3d512ecc4cf759cc79239f7b179b0ffacaa9a75d522b39400f81565b6103396103a8366004613ecf565b610852565b600d5461035c565b6103c86103c3366004613eb6565b61091b565b005b6103c86103d8366004613e8a565b610a29565b61035c7f6e71edae12b1b97f4d1f60370fef10105fa2faae0126114a169c64845d6126c981565b61040c601281565b60405160ff909116815260200161031d565b6103c861042c366004613f26565b610a37565b6103c8610aec565b61035c600c5481565b6103c8610450366004613eb6565b610b71565b61035c610463366004613f6d565b6001600160a01b031660009081526004602052604090205490565b6103c8610db6565b6103c8610494366004613eb6565b610e2f565b6103c86104a7366004613f8a565b610ed6565b61035c610f7b565b61035c6104c2366004613f6d565b60056020526000908152604090205481565b6103c86104e2366004613eb6565b611010565b6103c86104f5366004613e8a565b61107b565b61035c600b5481565b61050b611108565b60405161031d9190613fc3565b6103c8610526366004613f6d565b611117565b6103106111af565b6103c8610541366004613eb6565b6111bc565b6103c8610554366004613f6d565b611243565b61035c7fc89efdaa54c0f20c7adf612882df0950f5a951637e0307cdcb4c672f298b8bc681565b6103c861058e366004613f6d565b61139f565b61050b7f000000000000000000000000000000000000000000000000000000000000000081565b6103c86105c8366004613eb6565b611556565b6103396105db366004613e8a565b6115dd565b6103c86115ea565b600a546103399060ff1681565b6103c8610603366004613eb6565b61165e565b61035c61166b565b61035c60095481565b60085461050b906001600160a01b031681565b61035c6116aa565b6103c8610642366004613f6d565b6119ff565b61050b7f000000000000000000000000000000000000000000000000000000000000000081565b6103c861067c366004613f6d565b611a92565b6103c861068f366004613fd7565b611b2a565b60075461050b906001600160a01b031681565b61035c6106b5366004613f8a565b6001600160a01b03918216600090815260036020908152604080832093909416825291909152205490565b61035c6106ee366004613eb6565b611c2f565b61050b610701366004613eb6565b611c75565b61035c610714366004613eb6565b611c9f565b61035c611cd5565b6103c861072f366004613f6d565b611d75565b600e5461050b906001600160a01b031681565b61050b7f000000000000000000000000000000000000000000000000000000000000000081565b61050b7f000000000000000000000000000000000000000000000000000000000000000081565b6103c8611e65565b600080546107aa90614045565b80601f01602080910402602001604051908101604052809291908181526020018280546107d690614045565b80156108235780601f106107f857610100808354040283529160200191610823565b820191906000526020600020905b81548152906001019060200180831161080657829003601f168201915b505050505081565b6000610838338484611eb7565b50600192915050565b600061084c82611fc5565b92915050565b6001600160a01b03831660008181526003602090815260408083203380855292528220549192909190821480159061088c57506000198114155b1561090257600061089d8583614095565b6001600160a01b038881166000818152600360209081526040808320948916808452948252918290208590559051848152939450919290917f8c5be1e5ebec7d5bd14f71427d1e84f3dd0314c0f7b2291e5b200ac8c7c3b925910160405180910390a3505b61090d868686611fdf565b6001925050505b9392505050565b600061092682611c9f565b90506000811161098b5760405162461bcd60e51b815260206004820152602560248201527f4261736553747261746567793a3a576974686472617720616d6f756e7420746f6044820152646f206c6f7760d81b60648201526084015b60405180910390fd5b6000610996826120e8565b905060006109a383611fc5565b90506109e4336109b38385614095565b6001600160a01b037f000000000000000000000000000000000000000000000000000000000000000016919061216b565b6109ee33856121c1565b60405183815233907f884edad9ce6fa2440d8a54cc123490eb96d2768479d49ff9c7366125a94243649060200160405180910390a250505050565b610a338282612243565b5050565b60405163d505accf60e01b8152336004820152306024820152604481018690526064810185905260ff8416608482015260a4810183905260c481018290527f00000000000000000000000000000000000000000000000000000000000000006001600160a01b03169063d505accf9060e401600060405180830381600087803b158015610ac357600080fd5b505af1158015610ad7573d6000803e3d6000fd5b50505050610ae53386612243565b5050505050565b33610af5611108565b6001600160a01b031614610b1b5760405162461bcd60e51b8152600401610982906140ac565b600a5460ff1615610b2b57600080fd5b600a805460ff191660019081179091556040519081527f7b014ed3854e7f5cb0218d58b3c6ae7d53a68bb0af2f67bfb029ea42c38a7e85906020015b60405180910390a1565b33610b7a611108565b6001600160a01b031614610ba05760405162461bcd60e51b8152600401610982906140ac565b6040516370a0823160e01b81526000906001600160a01b037f000000000000000000000000000000000000000000000000000000000000000016906370a0823190610bef903090600401613fc3565b602060405180830381865afa158015610c0c573d6000803e3d6000fd5b505050506040513d601f19601f82011682018060405250810190610c3091906140e1565b9050610c3a612410565b6040516370a0823160e01b81526000906001600160a01b037f000000000000000000000000000000000000000000000000000000000000000016906370a0823190610c89903090600401613fc3565b602060405180830381865afa158015610ca6573d6000803e3d6000fd5b505050506040513d601f19601f82011682018060405250810190610cca91906140e1565b905082610cd78383614095565b1015610d565760405162461bcd60e51b815260206004820152604260248201527f4261736553747261746567793a3a456d657267656e637920776974686472617760448201527f206d696e696d756d2072657475726e20616d6f756e74206e6f74207265616368606482015261195960f21b608482015260a401610982565b7fc7606d21ac05cd309191543e409f0845c016120563783d70e4f41419dc0ef234610d7f610f7b565b6002546040805192835260208301919091520160405180910390a1600a5460ff161515600103610db157610db16115ea565b505050565b33610dbf611108565b6001600160a01b031614610de55760405162461bcd60e51b8152600401610982906140ac565b6006546040516000916001600160a01b0316907f8be0079c531659141344cd1fd0a4f28419497f9722a3daafe3b4186f6b6457e0908390a3600680546001600160a01b0319169055565b33610e38611108565b6001600160a01b031614610e5e5760405162461bcd60e51b8152600401610982906140ac565b60008111610e6b57600080fd5b604051339082156108fc029083906000818181858888f19350505050158015610e98573d6000803e3d6000fd5b507f8c1256b8896378cd5044f80c202f9772b9d77dc85c8a6eb51967210b09bfaa28600082604051610ecb9291906140fa565b60405180910390a150565b6007546001600160a01b03163314610f005760405162461bcd60e51b815260040161098290614113565b60405163095ea7b360e01b81526001600160a01b0383169063095ea7b390610f2f9084906000906004016140fa565b6020604051808303816000875af1158015610f4e573d6000803e3d6000fd5b505050506040513d601f19601f82011682018060405250810190610f729190614141565b610a3357600080fd5b6040516370a0823160e01b81526000906001600160a01b037f000000000000000000000000000000000000000000000000000000000000000016906370a0823190610fca903090600401613fc3565b602060405180830381865afa158015610fe7573d6000803e3d6000fd5b505050506040513d601f19601f8201168201806040525081019061100b91906140e1565b905090565b6007546001600160a01b0316331461103a5760405162461bcd60e51b815260040161098290614113565b60095460408051918252602082018390527f481f79ac3a523b6d6db3c5a720e190e986d1cc1b41adcdf50f9caef849901100910160405180910390a1600955565b33611084611108565b6001600160a01b0316146110aa5760405162461bcd60e51b8152600401610982906140ac565b600081116110b757600080fd5b6110cb6001600160a01b038316338361216b565b7f8c1256b8896378cd5044f80c202f9772b9d77dc85c8a6eb51967210b09bfaa2882826040516110fc9291906140fa565b60405180910390a15050565b6006546001600160a01b031690565b33611120611108565b6001600160a01b0316146111465760405162461bcd60e51b8152600401610982906140ac565b6007546040517fa8e91499ed37682f43cffb045fcc7d379a91e8c9a14e6321877ee34dee564c0091611185916001600160a01b03909116908490614163565b60405180910390a1600780546001600160a01b0319166001600160a01b0392909216919091179055565b600180546107aa90614045565b6007546001600160a01b031633146111e65760405162461bcd60e51b815260040161098290614113565b612710600b54826111f7919061417d565b111561120257600080fd5b600c5460408051918252602082018390527f2a42303d002f0ba6cfe8259c91d4684443fb0b3de286ba74991175d651726131910160405180910390a1600c55565b6007546001600160a01b0316331461126d5760405162461bcd60e51b815260040161098290614113565b6000805b600d548110156112c457600d818154811061128e5761128e614195565b6000918252602090912001546001600160a01b03908116908416036112b257600191505b806112bc816141ab565b915050611271565b5080156113245760405162461bcd60e51b815260206004820152602860248201527f4261736553747261746567793a3a52657761726420616c726561647920636f6e604482015267666967757265642160c01b6064820152608401610982565b600d80546001810182556000919091527fd7b6990105719101dabeb77144f2a3385c8033acd3af97e9423a695e81ad1eb50180546001600160a01b0319166001600160a01b0384161790556040517f1714865bf5baa84e3439536a013c87cfe030b4cd69f344a5f2a4877de3d517ce906110fc908490613fc3565b6007546001600160a01b031633146113c95760405162461bcd60e51b815260040161098290614113565b6000805b600d5481101561149957600d81815481106113ea576113ea614195565b6000918252602090912001546001600160a01b039081169084160361148757600d80546001935061141c908490614095565b8154811061142c5761142c614195565b600091825260209091200154600d80546001600160a01b03909216918390811061145857611458614195565b9060005260206000200160006101000a8154816001600160a01b0302191690836001600160a01b031602179055505b80611491816141ab565b9150506113cd565b50806114f35760405162461bcd60e51b8152602060048201526024808201527f4261736553747261746567793a3a526577617264206e6f7420636f6e666967756044820152637265642160e01b6064820152608401610982565b600d805480611504576115046141c4565b600082815260209020810160001990810180546001600160a01b03191690550190556040517f963b7c735475147a62c589c2d7cb8ec4b0a6b7af4f97373d79ebfa42ab8aa7dc906110fc908490613fc3565b6007546001600160a01b031633146115805760405162461bcd60e51b815260040161098290614113565b612710600c5482611591919061417d565b111561159c57600080fd5b600b5460408051918252602082018390527fe7f97d51d307dc44045597c9978bec0f842e6bb40d19b9444084cfa30d9ed4f2910160405180910390a1600b55565b6000610838338484611fdf565b6007546001600160a01b031633146116145760405162461bcd60e51b815260040161098290614113565b600a5460ff1661162357600080fd5b600a805460ff19169055604051600081527f7b014ed3854e7f5cb0218d58b3c6ae7d53a68bb0af2f67bfb029ea42c38a7e8590602001610b67565b6116683382612243565b50565b6000806116766116aa565b905060095481106116a257612710600b548261169291906141da565b61169c91906141f9565b91505090565b600091505090565b6000806116b5612485565b905060007f00000000000000000000000000000000000000000000000000000000000000006001600160a01b03166370a08231306040518263ffffffff1660e01b81526004016117059190613fc3565b602060405180830381865afa158015611722573d6000803e3d6000fd5b505050506040513d601f19601f8201168201806040525081019061174691906140e1565b905060005b82518110156119f857600083828151811061176857611768614195565b60200260200101516000015190507f00000000000000000000000000000000000000000000000000000000000000006001600160a01b0316816001600160a01b0316036117de57478483815181106117c2576117c2614195565b60200260200101516020018181516117da919061417d565b9052505b7f00000000000000000000000000000000000000000000000000000000000000006001600160a01b0316816001600160a01b0316036118475783828151811061182957611829614195565b60200260200101516020015183611840919061417d565b92506119e5565b6001600160a01b038116156119e5576040516370a0823160e01b81526000906001600160a01b038316906370a0823190611885903090600401613fc3565b602060405180830381865afa1580156118a2573d6000803e3d6000fd5b505050506040513d601f19601f820116820180604052508101906118c691906140e1565b905060008584815181106118dc576118dc614195565b602002602001015160200151826118f3919061417d565b905080156119e257600e546040516377ccc49d60e11b81526000916001600160a01b03169063ef99893a9061195090859088907f00000000000000000000000000000000000000000000000000000000000000009060040161421b565b600060405180830381865afa15801561196d573d6000803e3d6000fd5b505050506040513d6000823e601f3d908101601f191682016040526119959190810190614342565b90506001816000015151116119ab5760006119d4565b805180516119bb90600190614095565b815181106119cb576119cb614195565b60200260200101515b6119de908761417d565b9550505b50505b50806119f0816141ab565b91505061174b565b5092915050565b6007546001600160a01b03163314611a295760405162461bcd60e51b815260040161098290614113565b600e546040517f2c6fb4d5ff9fad6ecf2e09cd64cbc9aad92a8b9d2cc0e5c3ddef9b529b0b5ffd91611a68916001600160a01b03909116908490614163565b60405180910390a1600e80546001600160a01b0319166001600160a01b0392909216919091179055565b33611a9b611108565b6001600160a01b031614611ac15760405162461bcd60e51b8152600401610982906140ac565b6008546040517fcc882185e6edeeb762130016ea1faf3d7aa9c01b199bfd646f965b58ab74106391611b00916001600160a01b03909116908490614163565b60405180910390a1600880546001600160a01b0319166001600160a01b0392909216919091179055565b42841015611b6c5760405162461bcd60e51b815260206004820152600f60248201526e1c195c9b5a5d0e8e995e1c1a5c9959608a1b6044820152606401610982565b6001600160a01b038716600090815260056020526040812080547f6e71edae12b1b97f4d1f60370fef10105fa2faae0126114a169c64845d6126c9918a918a918a919086611bb9836141ab565b909155506040805160208101969096526001600160a01b0394851690860152929091166060840152608083015260a082015260c0810186905260e001604051602081830303815290604052805190602001209050611c1a88828686866125fd565b611c25888888611eb7565b5050505050505050565b600080611c3a610f7b565b600254909150801580611c4b575081155b15611c5857509192915050565b81611c6382866141da565b611c6d91906141f9565b949350505050565b600d8181548110611c8557600080fd5b6000918252602090912001546001600160a01b0316905081565b600080611caa610f7b565b600254909150801580611cbb575081155b15611cca575060009392505050565b80611c6383866141da565b60007f8b73c3c69bb8fe3d512ecc4cf759cc79239f7b179b0ffacaa9a75d522b39400f60001b6000604051611d0a9190614457565b6040519081900390207fc89efdaa54c0f20c7adf612882df0950f5a951637e0307cdcb4c672f298b8bc646604080516020810195909552840192909252606083015260808201523060a082015260c00160405160208183030381529060405280519060200120905090565b33611d7e611108565b6001600160a01b031614611da45760405162461bcd60e51b8152600401610982906140ac565b6001600160a01b038116611e095760405162461bcd60e51b815260206004820152602660248201527f4f776e61626c653a206e6577206f776e657220697320746865207a65726f206160448201526564647265737360d01b6064820152608401610982565b6006546040516001600160a01b038084169216907f8be0079c531659141344cd1fd0a4f28419497f9722a3daafe3b4186f6b6457e090600090a3600680546001600160a01b0319166001600160a01b0392909216919091179055565b323314611eab5760405162461bcd60e51b815260206004820152601460248201527359616b53747261746567793a3a6f6e6c79454f4160601b6044820152606401610982565b611eb56000612729565b565b6001600160a01b038316611f0d5760405162461bcd60e51b815260206004820152601c60248201527f5f617070726f76653a3a6f776e6572207a65726f2061646472657373000000006044820152606401610982565b6001600160a01b038216611f635760405162461bcd60e51b815260206004820152601e60248201527f5f617070726f76653a3a7370656e646572207a65726f206164647265737300006044820152606401610982565b6001600160a01b0383811660008181526003602090815260408083209487168084529482529182902085905590518481527f8c5be1e5ebec7d5bd14f71427d1e84f3dd0314c0f7b2291e5b200ac8c7c3b92591015b60405180910390a3505050565b600080612710611fd582856141da565b61091491906141f9565b6001600160a01b0382166120525760405162461bcd60e51b815260206004820152603460248201527f5f7472616e73666572546f6b656e733a2063616e6e6f74207472616e7366657260448201527320746f20746865207a65726f206164647265737360601b6064820152608401610982565b6001600160a01b038316600090815260046020526040902054612076908290614095565b6001600160a01b0380851660009081526004602052604080822093909355908416815220546120a690829061417d565b6001600160a01b03808416600081815260046020526040908190209390935591519085169060008051602061464c83398151915290611fb89085815260200190565b604051632e1a7d4d60e01b8152600481018290526000907f00000000000000000000000000000000000000000000000000000000000000006001600160a01b031690632e1a7d4d90602401600060405180830381600087803b15801561214d57600080fd5b505af1158015612161573d6000803e3d6000fd5b5093949350505050565b610db18363a9059cbb60e01b848460405160240161218a9291906140fa565b60408051601f198184030181529190526020810180516001600160e01b03166001600160e01b031990931692909217909152612889565b6001600160a01b0382166000908152600460205260409020546121e5908290614095565b6001600160a01b03831660009081526004602052604090205560025461220c908290614095565b6002556040518181526000906001600160a01b0384169060008051602061464c833981519152906020015b60405180910390a35050565b600a5460ff16151560011461229a5760405162461bcd60e51b815260206004820152601f60248201527f4261736553747261746567793a3a4465706f736974732064697361626c6564006044820152606401610982565b6122a46001612729565b6040516323b872dd60e01b8152336004820152306024820152604481018290527f00000000000000000000000000000000000000000000000000000000000000006001600160a01b0316906323b872dd906064016020604051808303816000875af1158015612317573d6000803e3d6000fd5b505050506040513d601f19601f8201168201806040525081019061233b9190614141565b61239b5760405162461bcd60e51b815260206004820152602b60248201527f4261736553747261746567793a3a4465706f73697420746f6b656e207472616e60448201526a1cd9995c8819985a5b195960aa1b6064820152608401610982565b60006123a682611fc5565b90506123be836123b96106ee8486614095565b61295b565b6123c88282612a14565b826001600160a01b03167fe1fffcc4923d04b559f4d29a8bfc6cda04eb5b0d3c460751c2402c5c5cc9109c8360405161240391815260200190565b60405180910390a2505050565b7f00000000000000000000000000000000000000000000000000000000000000006001600160a01b031663853828b66040518163ffffffff1660e01b8152600401600060405180830381600087803b15801561246b57600080fd5b505af115801561247f573d6000803e3d6000fd5b50505050565b600d5460609060008167ffffffffffffffff8111156124a6576124a661423a565b6040519080825280602002602001820160405280156124eb57816020015b60408051808201909152600080825260208201528152602001906001900390816124c45790505b50905060005b828110156119f8576000600d828154811061250e5761250e614195565b60009182526020822001546040516246613160e11b81526001600160a01b0391821693507f000000000000000000000000000000000000000000000000000000000000000090911690628cc2629061256a903090600401613fc3565b602060405180830381865afa158015612587573d6000803e3d6000fd5b505050506040513d601f19601f820116820180604052508101906125ab91906140e1565b90506040518060400160405280836001600160a01b03168152602001828152508484815181106125dd576125dd614195565b6020026020010181905250505080806125f5906141ab565b9150506124f1565b6000612607611cd5565b60405161190160f01b602082015260228101919091526042810186905260620160408051601f198184030181528282528051602091820120600080855291840180845281905260ff88169284019290925260608301869052608083018590529092509060019060a0016020604051602081039080840390855afa158015612692573d6000803e3d6000fd5b5050604051601f1901519150506001600160a01b038116158015906126c85750866001600160a01b0316816001600160a01b0316145b6127205760405162461bcd60e51b8152602060048201526024808201527f417263683a3a76616c69646174655369673a20696e76616c6964207369676e616044820152637475726560e01b6064820152608401610982565b50505050505050565b6000612733612a79565b9050600954811115612848576000612710600c548361275291906141da565b61275c91906141f9565b9050801561279e5760085461279e906001600160a01b037f0000000000000000000000000000000000000000000000000000000000000000811691168361216b565b6000836127c557612710600b54846127b691906141da565b6127c091906141f9565b6127c8565b60005b90508015612804576128046001600160a01b037f000000000000000000000000000000000000000000000000000000000000000016338361216b565b6000612823826128148587614095565b61281e9190614095565b612ded565b9050801561284457600061283682611fc5565b90506128428282612a14565b505b5050505b7fc7606d21ac05cd309191543e409f0845c016120563783d70e4f41419dc0ef234612871610f7b565b600254604080519283526020830191909152016110fc565b60006128de826040518060400160405280602081526020017f5361666545524332303a206c6f772d6c6576656c2063616c6c206661696c6564815250856001600160a01b0316612df89092919063ffffffff16565b805190915015610db157808060200190518101906128fc9190614141565b610db15760405162461bcd60e51b815260206004820152602a60248201527f5361666545524332303a204552433230206f7065726174696f6e20646964206e6044820152691bdd081cdd58d8d9595960b21b6064820152608401610982565b600081116129a05760405162461bcd60e51b81526020600482015260126024820152715f6d696e743a3a7a65726f2073686172657360701b6044820152606401610982565b806002546129ae919061417d565b6002556001600160a01b0382166000908152600460205260409020546129d590829061417d565b6001600160a01b03831660008181526004602052604080822093909355915190919060008051602061464c833981519152906122379085815260200190565b60008211612a6f5760405162461bcd60e51b815260206004820152602260248201527f4261736553747261746567793a3a5374616b6520616d6f756e7420746f6f206c6044820152616f7760f01b6064820152608401610982565b610a338282612e07565b6000612a83612f37565b6040516370a0823160e01b81526000906001600160a01b037f000000000000000000000000000000000000000000000000000000000000000016906370a0823190612ad2903090600401613fc3565b602060405180830381865afa158015612aef573d6000803e3d6000fd5b505050506040513d601f19601f82011682018060405250810190612b1391906140e1565b600d5490915060005b81811015612de5576000600d8281548110612b3957612b39614195565b6000918252602090912001546001600160a01b0390811691507f0000000000000000000000000000000000000000000000000000000000000000168103612c6457478015612bf6577f00000000000000000000000000000000000000000000000000000000000000006001600160a01b031663d0e30db0826040518263ffffffff1660e01b81526004016000604051808303818588803b158015612bdc57600080fd5b505af1158015612bf0573d6000803e3d6000fd5b50505050505b7f00000000000000000000000000000000000000000000000000000000000000006001600160a01b03167f00000000000000000000000000000000000000000000000000000000000000006001600160a01b031603612c6257612c59818661417d565b94505050612dd3565b505b6040516370a0823160e01b81526000906001600160a01b038316906370a0823190612c93903090600401613fc3565b602060405180830381865afa158015612cb0573d6000803e3d6000fd5b505050506040513d601f19601f82011682018060405250810190612cd491906140e1565b9050600081118015612d1857507f00000000000000000000000000000000000000000000000000000000000000006001600160a01b0316826001600160a01b031614155b15612dd057600e546040516377ccc49d60e11b81526000916001600160a01b03169063ef99893a90612d7290859087907f00000000000000000000000000000000000000000000000000000000000000009060040161421b565b600060405180830381865afa158015612d8f573d6000803e3d6000fd5b505050506040513d6000823e601f3d908101601f19168201604052612db79190810190614342565b9050612dc281612f92565b612dcc908761417d565b9550505b50505b80612ddd816141ab565b915050612b1c565b509092915050565b600061084c82613112565b6060611c6d8484600085613a8b565b60405163095ea7b360e01b81526001600160a01b037f0000000000000000000000000000000000000000000000000000000000000000169063095ea7b390612e75907f00000000000000000000000000000000000000000000000000000000000000009086906004016140fa565b6020604051808303816000875af1158015612e94573d6000803e3d6000fd5b505050506040513d601f19601f82011682018060405250810190612eb89190614141565b5060405163b6b55f2560e01b8152600481018390527f00000000000000000000000000000000000000000000000000000000000000006001600160a01b03169063b6b55f2590602401600060405180830381600087803b158015612f1b57600080fd5b505af1158015612f2f573d6000803e3d6000fd5b505050505050565b7f00000000000000000000000000000000000000000000000000000000000000006001600160a01b0316633d18b9126040518163ffffffff1660e01b8152600401600060405180830381600087803b15801561246b57600080fd5b80515160009015801590612fcf57508151805160009190612fb590600190614095565b81518110612fc557612fc5614195565b6020026020010151115b1561310a578160400151600081518110612feb57612feb614195565b60200260200101516001600160a01b031663095ea7b3600e60009054906101000a90046001600160a01b0316846000015160008151811061302e5761302e614195565b60200260200101516040518363ffffffff1660e01b81526004016130539291906140fa565b6020604051808303816000875af1158015613072573d6000803e3d6000fd5b505050506040513d601f19601f820116820180604052508101906130969190614141565b50600e54604051632d92330b60e11b81526001600160a01b0390911690635b246616906130c7908590600401614536565b6020604051808303816000875af11580156130e6573d6000803e3d6000fd5b505050506040513d601f19601f8201168201806040525081019061084c91906140e1565b506000919050565b6000806131206002846141f9565b905060008190507f00000000000000000000000000000000000000000000000000000000000000006001600160a01b03167f00000000000000000000000000000000000000000000000000000000000000006001600160a01b03161461326a57600e546040516377ccc49d60e11b81526000916001600160a01b03169063ef99893a906131f59086907f0000000000000000000000000000000000000000000000000000000000000000907f00000000000000000000000000000000000000000000000000000000000000009060040161421b565b600060405180830381865afa158015613212573d6000803e3d6000fd5b505050506040513d6000823e601f3d908101601f1916820160405261323a9190810190614342565b805180519192509061324e90600190614095565b8151811061325e5761325e614195565b60200260200101519150505b60008290507f00000000000000000000000000000000000000000000000000000000000000006001600160a01b03167f00000000000000000000000000000000000000000000000000000000000000006001600160a01b0316146133b257600e546040516377ccc49d60e11b81526000916001600160a01b03169063ef99893a9061333d9087907f0000000000000000000000000000000000000000000000000000000000000000907f00000000000000000000000000000000000000000000000000000000000000009060040161421b565b600060405180830381865afa15801561335a573d6000803e3d6000fd5b505050506040513d6000823e601f3d908101601f191682016040526133829190810190614342565b805180519192509061339690600190614095565b815181106133a6576133a6614195565b60200260200101519150505b6000807f00000000000000000000000000000000000000000000000000000000000000006001600160a01b03166398a0fb3c7f00000000000000000000000000000000000000000000000000000000000000007f0000000000000000000000000000000000000000000000000000000000000000600188886040518663ffffffff1660e01b815260040161344a9594939291906145d0565b606060405180830381865afa158015613467573d6000803e3d6000fd5b505050506040513d601f19601f8201168201806040525081019061348b9190614601565b50909250905060008282856134a888670de0b6b3a76400006141da565b6134b291906141f9565b6134bc91906141da565b6134c691906141f9565b905060006134dc82670de0b6b3a764000061417d565b6134ee8a670de0b6b3a76400006141da565b6134f891906141f9565b90506000613506828b614095565b905060008290507f00000000000000000000000000000000000000000000000000000000000000006001600160a01b03167f00000000000000000000000000000000000000000000000000000000000000006001600160a01b03161461373057600e546040516377ccc49d60e11b81526000916001600160a01b03169063ef99893a906135db9087907f0000000000000000000000000000000000000000000000000000000000000000907f00000000000000000000000000000000000000000000000000000000000000009060040161421b565b600060405180830381865afa1580156135f8573d6000803e3d6000fd5b505050506040513d6000823e601f3d908101601f191682016040526136209190810190614342565b600e5460405163095ea7b360e01b81529192506001600160a01b037f000000000000000000000000000000000000000000000000000000000000000081169263095ea7b39261367592169088906004016140fa565b6020604051808303816000875af1158015613694573d6000803e3d6000fd5b505050506040513d601f19601f820116820180604052508101906136b89190614141565b50600e54604051632d92330b60e11b81526001600160a01b0390911690635b246616906136e9908490600401614536565b6020604051808303816000875af1158015613708573d6000803e3d6000fd5b505050506040513d601f19601f8201168201806040525081019061372c91906140e1565b9150505b60008290507f00000000000000000000000000000000000000000000000000000000000000006001600160a01b03167f00000000000000000000000000000000000000000000000000000000000000006001600160a01b03161461395857600e546040516377ccc49d60e11b81526000916001600160a01b03169063ef99893a906138039087907f0000000000000000000000000000000000000000000000000000000000000000907f00000000000000000000000000000000000000000000000000000000000000009060040161421b565b600060405180830381865afa158015613820573d6000803e3d6000fd5b505050506040513d6000823e601f3d908101601f191682016040526138489190810190614342565b600e5460405163095ea7b360e01b81529192506001600160a01b037f000000000000000000000000000000000000000000000000000000000000000081169263095ea7b39261389d92169088906004016140fa565b6020604051808303816000875af11580156138bc573d6000803e3d6000fd5b505050506040513d601f19601f820116820180604052508101906138e09190614141565b50600e54604051632d92330b60e11b81526001600160a01b0390911690635b24661690613911908490600401614536565b6020604051808303816000875af1158015613930573d6000803e3d6000fd5b505050506040513d601f19601f8201168201806040525081019061395491906140e1565b9150505b6040516370a0823160e01b8152613a7b906001600160a01b037f000000000000000000000000000000000000000000000000000000000000000016906370a08231906139a8903090600401613fc3565b602060405180830381865afa1580156139c5573d6000803e3d6000fd5b505050506040513d601f19601f820116820180604052508101906139e991906140e1565b6040516370a0823160e01b81526001600160a01b037f000000000000000000000000000000000000000000000000000000000000000016906370a0823190613a35903090600401613fc3565b602060405180830381865afa158015613a52573d6000803e3d6000fd5b505050506040513d601f19601f82011682018060405250810190613a7691906140e1565b613bbc565b9c9b505050505050505050505050565b606082471015613aec5760405162461bcd60e51b815260206004820152602660248201527f416464726573733a20696e73756666696369656e742062616c616e636520666f6044820152651c8818d85b1b60d21b6064820152608401610982565b6001600160a01b0385163b613b435760405162461bcd60e51b815260206004820152601d60248201527f416464726573733a2063616c6c20746f206e6f6e2d636f6e74726163740000006044820152606401610982565b600080866001600160a01b03168587604051613b5f919061462f565b60006040518083038185875af1925050503d8060008114613b9c576040519150601f19603f3d011682016040523d82523d6000602084013e613ba1565b606091505b5091509150613bb1828286613ddd565b979650505050505050565b60008060007f00000000000000000000000000000000000000000000000000000000000000006001600160a01b03166398a0fb3c7f00000000000000000000000000000000000000000000000000000000000000007f0000000000000000000000000000000000000000000000000000000000000000600189896040518663ffffffff1660e01b8152600401613c569594939291906145d0565b606060405180830381865afa158015613c73573d6000803e3d6000fd5b505050506040513d601f19601f82011682018060405250810190613c979190614601565b509092509050613cf16001600160a01b037f0000000000000000000000000000000000000000000000000000000000000000167f00000000000000000000000000000000000000000000000000000000000000008461216b565b613d456001600160a01b037f0000000000000000000000000000000000000000000000000000000000000000167f00000000000000000000000000000000000000000000000000000000000000008361216b565b6040516335313c2160e11b81526001600160a01b037f00000000000000000000000000000000000000000000000000000000000000001690636a62784290613d91903090600401613fc3565b6020604051808303816000875af1158015613db0573d6000803e3d6000fd5b505050506040513d601f19601f82011682018060405250810190613dd491906140e1565b95945050505050565b60608315613dec575081610914565b825115613dfc5782518084602001fd5b8160405162461bcd60e51b81526004016109829190613e42565b60005b83811015613e31578181015183820152602001613e19565b8381111561247f5750506000910152565b6020815260008251806020840152613e61816040850160208701613e16565b601f01601f19169190910160400192915050565b6001600160a01b038116811461166857600080fd5b60008060408385031215613e9d57600080fd5b8235613ea881613e75565b946020939093013593505050565b600060208284031215613ec857600080fd5b5035919050565b600080600060608486031215613ee457600080fd5b8335613eef81613e75565b92506020840135613eff81613e75565b929592945050506040919091013590565b803560ff81168114613f2157600080fd5b919050565b600080600080600060a08688031215613f3e57600080fd5b8535945060208601359350613f5560408701613f10565b94979396509394606081013594506080013592915050565b600060208284031215613f7f57600080fd5b813561091481613e75565b60008060408385031215613f9d57600080fd5b8235613fa881613e75565b91506020830135613fb881613e75565b809150509250929050565b6001600160a01b0391909116815260200190565b600080600080600080600060e0888a031215613ff257600080fd5b8735613ffd81613e75565b9650602088013561400d81613e75565b9550604088013594506060880135935061402960808901613f10565b925060a0880135915060c0880135905092959891949750929550565b600181811c9082168061405957607f821691505b60208210810361407957634e487b7160e01b600052602260045260246000fd5b50919050565b634e487b7160e01b600052601160045260246000fd5b6000828210156140a7576140a761407f565b500390565b6020808252818101527f4f776e61626c653a2063616c6c6572206973206e6f7420746865206f776e6572604082015260600190565b6000602082840312156140f357600080fd5b5051919050565b6001600160a01b03929092168252602082015260400190565b6020808252601490820152732cb0b5a9ba3930ba32b3bc9d1d37b7363ca232bb60611b604082015260600190565b60006020828403121561415357600080fd5b8151801515811461091457600080fd5b6001600160a01b0392831681529116602082015260400190565b600082198211156141905761419061407f565b500190565b634e487b7160e01b600052603260045260246000fd5b6000600182016141bd576141bd61407f565b5060010190565b634e487b7160e01b600052603160045260246000fd5b60008160001904831182151516156141f4576141f461407f565b500290565b60008261421657634e487b7160e01b600052601260045260246000fd5b500490565b9283526001600160a01b03918216602084015216604082015260600190565b634e487b7160e01b600052604160045260246000fd5b6040516080810167ffffffffffffffff811182821017156142735761427361423a565b60405290565b604051601f8201601f1916810167ffffffffffffffff811182821017156142a2576142a261423a565b604052919050565b600067ffffffffffffffff8211156142c4576142c461423a565b5060051b60200190565b600082601f8301126142df57600080fd5b815160206142f46142ef836142aa565b614279565b82815260059290921b8401810191818101908684111561431357600080fd5b8286015b8481101561433757805161432a81613e75565b8352918301918301614317565b509695505050505050565b6000602080838503121561435557600080fd5b825167ffffffffffffffff8082111561436d57600080fd5b908401906080828703121561438157600080fd5b614389614250565b82518281111561439857600080fd5b8301601f810188136143a957600080fd5b80516143b76142ef826142aa565b81815260059190911b8201860190868101908a8311156143d657600080fd5b928701925b828410156143f4578351825292870192908701906143db565b8452505050828401518281111561440a57600080fd5b614416888286016142ce565b8583015250604083015193508184111561442f57600080fd5b61443b878585016142ce565b6040820152606083015160608201528094505050505092915050565b600080835481600182811c91508083168061447357607f831692505b6020808410820361449257634e487b7160e01b86526022600452602486fd5b8180156144a657600181146144b7576144e4565b60ff198616895284890196506144e4565b60008a81526020902060005b868110156144dc5781548b8201529085019083016144c3565b505084890196505b509498975050505050505050565b600081518084526020808501945080840160005b8381101561452b5781516001600160a01b031687529582019590820190600101614506565b509495945050505050565b60208082528251608083830152805160a0840181905260009291820190839060c08601905b8083101561457b578351825292840192600192909201919084019061455b565b50838701519350601f1992508286820301604087015261459b81856144f2565b935050506040850151818584030160608601526145b883826144f2565b92505050606084015160808401528091505092915050565b6001600160a01b03958616815293909416602084015290151560408301526060820152608081019190915260a00190565b60008060006060848603121561461657600080fd5b8351925060208401519150604084015190509250925092565b60008251614641818460208701613e16565b919091019291505056feddf252ad1be2c89b69c2b068fc378daa952ba7f163c4a11628f55a4df523b3efa26469706673582212201222b0ac76cba6e9655190a028f850181a5ac1a190e77f46a9bd30e74695bd4b64736f6c634300080d00334f776e61626c653a2063616c6c6572206973206e6f7420746865206f776e65728be0079c531659141344cd1fd0a4f28419497f9722a3daafe3b4186f6b6457e0",
  "devdoc": {
    "kind": "dev",
    "methods": {
      "allowance(address,address)": {
        "params": {
          "account": "The address of the account holding the funds",
          "spender": "The address of the account spending the funds"
        },
        "returns": {
          "_0": "The number of tokens approved"
        }
      },
      "approve(address,uint256)": {
        "details": "This will overwrite the approval amount for `spender` and is subject to issues noted [here](https://eips.ethereum.org/EIPS/eip-20#approve) It is recommended to use increaseAllowance and decreaseAllowance instead",
        "params": {
          "amount": "The number of tokens that are approved (2^256-1 means infinite)",
          "spender": "The address of the account which may transfer tokens"
        },
        "returns": {
          "_0": "Whether or not the approval succeeded"
        }
      },
      "balanceOf(address)": {
        "params": {
          "account": "The address of the account to get the balance of"
        },
        "returns": {
          "_0": "The number of tokens held"
        }
      },
      "checkReward()": {
        "returns": {
          "_0": "reward tokens"
        }
      },
      "deposit(uint256)": {
        "params": {
          "_amount": "Amount of tokens to deposit"
        }
      },
      "depositWithPermit(uint256,uint256,uint8,bytes32,bytes32)": {
        "params": {
          "_amount": "Amount of tokens to deposit",
          "_deadline": "The time at which to expire the signature",
          "_r": "Half of the ECDSA signature pair",
          "_s": "Half of the ECDSA signature pair",
          "_v": "The recovery byte of the signature"
        }
      },
      "estimateReinvestReward()": {
        "returns": {
          "_0": "reward tokens"
        }
      },
      "getDepositTokensForShares(uint256)": {
        "params": {
          "amount": "receipt tokens"
        },
        "returns": {
          "_0": "deposit tokens"
        }
      },
      "getDomainSeparator()": {
        "returns": {
          "_0": "Separator"
        }
      },
      "getSharesForDepositTokens(uint256)": {
        "details": "If contract is empty, use 1:1 ratioCould return zero shares for very low amounts of deposit tokens",
        "params": {
          "amount": "deposit tokens"
        },
        "returns": {
          "_0": "receipt tokens"
        }
      },
      "owner()": {
        "details": "Returns the address of the current owner."
      },
      "permit(address,address,uint256,uint256,uint8,bytes32,bytes32)": {
        "params": {
          "deadline": "The time at which to expire the signature",
          "owner": "The address to approve from",
          "r": "Half of the ECDSA signature pair",
          "s": "Half of the ECDSA signature pair",
          "spender": "The address to be approved",
          "v": "The recovery byte of the signature",
          "value": "The number of tokens that are approved (2^256-1 means infinite)"
        }
      },
      "recoverERC20(address,uint256)": {
        "params": {
          "tokenAddress": "token address",
          "tokenAmount": "amount to recover"
        }
      },
      "recoverGas(uint256)": {
        "params": {
          "amount": "amount"
        }
      },
      "renounceOwnership()": {
        "details": "Leaves the contract without owner. It will not be possible to call `onlyOwner` functions anymore. Can only be called by the current owner. NOTE: Renouncing ownership will leave the contract without an owner, thereby removing any functionality that is only available to the owner."
      },
      "revokeAllowance(address,address)": {
        "params": {
          "spender": "address",
          "token": "address"
        }
      },
      "totalDeposits()": {
        "returns": {
          "_0": "total deposits available on the contract"
        }
      },
      "transfer(address,uint256)": {
        "params": {
          "amount": "The number of tokens to transfer",
          "dst": "The address of the destination account"
        },
        "returns": {
          "_0": "Whether or not the transfer succeeded"
        }
      },
      "transferFrom(address,address,uint256)": {
        "params": {
          "amount": "The number of tokens to transfer",
          "dst": "The address of the destination account",
          "src": "The address of the source account"
        },
        "returns": {
          "_0": "Whether or not the transfer succeeded"
        }
      },
      "transferOwnership(address)": {
        "details": "Transfers ownership of the contract to a new account (`newOwner`). Can only be called by the current owner."
      },
      "updateDevAddr(address)": {
        "params": {
          "newValue": "address"
        }
      },
      "updateDevFee(uint256)": {
        "params": {
          "newValue": "fee in BIPS"
        }
      },
      "updateFeeCollector(address)": {
        "params": {
          "newValue": "address"
        }
      },
      "updateMinTokensToReinvest(uint256)": {
        "params": {
          "newValue": "threshold"
        }
      },
      "updateReinvestReward(uint256)": {
        "params": {
          "newValue": "fee in BIPS"
        }
      }
    },
    "version": 1
  },
  "userdoc": {
    "kind": "user",
    "methods": {
      "allowance(address,address)": {
        "notice": "Get the number of tokens `spender` is approved to spend on behalf of `account`"
      },
      "approve(address,uint256)": {
        "notice": "Approve `spender` to transfer up to `amount` from `src`"
      },
      "balanceOf(address)": {
        "notice": "Get the number of tokens held by the `account`"
      },
      "checkReward()": {
        "notice": "Reward tokens available to strategy, including balance"
      },
      "deposit(uint256)": {
        "notice": "Deposit tokens to receive receipt tokens"
      },
      "depositWithPermit(uint256,uint256,uint8,bytes32,bytes32)": {
        "notice": "Deposit using Permit"
      },
      "disableDeposits()": {
        "notice": "Disable deposits"
      },
      "enableDeposits()": {
        "notice": "Enable deposits"
      },
      "estimateReinvestReward()": {
        "notice": "Estimate reinvest reward"
      },
      "getDepositTokensForShares(uint256)": {
        "notice": "Calculate deposit tokens for a given amount of receipt tokens"
      },
      "getDomainSeparator()": {
        "notice": "EIP-712 Domain separator"
      },
      "getSharesForDepositTokens(uint256)": {
        "notice": "Calculate receipt tokens for a given amount of deposit tokens"
      },
      "permit(address,address,uint256,uint256,uint8,bytes32,bytes32)": {
        "notice": "Triggers an approval from owner to spender"
      },
      "recoverERC20(address,uint256)": {
        "notice": "Recover ERC20 from contract"
      },
      "recoverGas(uint256)": {
        "notice": "Recover GAS from contract"
      },
      "reinvest()": {
        "notice": "Reinvest reward tokens into deposit tokens"
      },
      "revokeAllowance(address,address)": {
        "notice": "Revoke token allowance"
      },
      "totalDeposits()": {
        "notice": "This function returns a snapshot of last available quotes"
      },
      "transfer(address,uint256)": {
        "notice": "Transfer `amount` tokens from `msg.sender` to `dst`"
      },
      "transferFrom(address,address,uint256)": {
        "notice": "Transfer `amount` tokens from `src` to `dst`"
      },
      "updateDevAddr(address)": {
        "notice": "Update devAddr"
      },
      "updateDevFee(uint256)": {
        "notice": "Update developer fee"
      },
      "updateFeeCollector(address)": {
        "notice": "Update feeCollector"
      },
      "updateMinTokensToReinvest(uint256)": {
        "notice": "Update reinvest min threshold"
      },
      "updateReinvestReward(uint256)": {
        "notice": "Update reinvest reward"
      }
    },
    "version": 1
  },
  "storageLayout": {
    "storage": [
      {
        "astId": 5,
        "contract": "contracts/strategies/avalanche/blackhole/BlackholeStableStrategy.sol:BlackholeStableStrategy",
        "label": "name",
        "offset": 0,
        "slot": "0",
        "type": "t_string_storage"
      },
      {
        "astId": 8,
        "contract": "contracts/strategies/avalanche/blackhole/BlackholeStableStrategy.sol:BlackholeStableStrategy",
        "label": "symbol",
        "offset": 0,
        "slot": "1",
        "type": "t_string_storage"
      },
      {
        "astId": 13,
        "contract": "contracts/strategies/avalanche/blackhole/BlackholeStableStrategy.sol:BlackholeStableStrategy",
        "label": "totalSupply",
        "offset": 0,
        "slot": "2",
        "type": "t_uint256"
      },
      {
        "astId": 19,
        "contract": "contracts/strategies/avalanche/blackhole/BlackholeStableStrategy.sol:BlackholeStableStrategy",
        "label": "allowances",
        "offset": 0,
        "slot": "3",
        "type": "t_mapping(t_address,t_mapping(t_address,t_uint256))"
      },
      {
        "astId": 23,
        "contract": "contracts/strategies/avalanche/blackhole/BlackholeStableStrategy.sol:BlackholeStableStrategy",
        "label": "balances",
        "offset": 0,
        "slot": "4",
        "type": "t_mapping(t_address,t_uint256)"
      },
      {
        "astId": 39,
        "contract": "contracts/strategies/avalanche/blackhole/BlackholeStableStrategy.sol:BlackholeStableStrategy",
        "label": "nonces",
        "offset": 0,
        "slot": "5",
        "type": "t_mapping(t_address,t_uint256)"
      },
      {
        "astId": 1646,
        "contract": "contracts/strategies/avalanche/blackhole/BlackholeStableStrategy.sol:BlackholeStableStrategy",
        "label": "_owner",
        "offset": 0,
        "slot": "6",
        "type": "t_address"
      },
      {
        "astId": 552,
        "contract": "contracts/strategies/avalanche/blackhole/BlackholeStableStrategy.sol:BlackholeStableStrategy",
        "label": "devAddr",
        "offset": 0,
        "slot": "7",
        "type": "t_address"
      },
      {
        "astId": 554,
        "contract": "contracts/strategies/avalanche/blackhole/BlackholeStableStrategy.sol:BlackholeStableStrategy",
        "label": "feeCollector",
        "offset": 0,
        "slot": "8",
        "type": "t_address"
      },
      {
        "astId": 556,
        "contract": "contracts/strategies/avalanche/blackhole/BlackholeStableStrategy.sol:BlackholeStableStrategy",
        "label": "MIN_TOKENS_TO_REINVEST",
        "offset": 0,
        "slot": "9",
        "type": "t_uint256"
      },
      {
        "astId": 558,
        "contract": "contracts/strategies/avalanche/blackhole/BlackholeStableStrategy.sol:BlackholeStableStrategy",
        "label": "DEPOSITS_ENABLED",
        "offset": 0,
        "slot": "10",
        "type": "t_bool"
      },
      {
        "astId": 560,
        "contract": "contracts/strategies/avalanche/blackhole/BlackholeStableStrategy.sol:BlackholeStableStrategy",
        "label": "REINVEST_REWARD_BIPS",
        "offset": 0,
        "slot": "11",
        "type": "t_uint256"
      },
      {
        "astId": 562,
        "contract": "contracts/strategies/avalanche/blackhole/BlackholeStableStrategy.sol:BlackholeStableStrategy",
        "label": "DEV_FEE_BIPS",
        "offset": 0,
        "slot": "12",
        "type": "t_uint256"
      },
      {
        "astId": 2248,
        "contract": "contracts/strategies/avalanche/blackhole/BlackholeStableStrategy.sol:BlackholeStableStrategy",
        "label": "supportedRewards",
        "offset": 0,
        "slot": "13",
        "type": "t_array(t_address)dyn_storage"
      },
      {
        "astId": 2251,
        "contract": "contracts/strategies/avalanche/blackhole/BlackholeStableStrategy.sol:BlackholeStableStrategy",
        "label": "simpleRouter",
        "offset": 0,
        "slot": "14",
        "type": "t_contract(ISimpleRouter)1303"
      }
    ],
    "types": {
      "t_address": {
        "encoding": "inplace",
        "label": "address",
        "numberOfBytes": "20"
      },
      "t_array(t_address)dyn_storage": {
        "base": "t_address",
        "encoding": "dynamic_array",
        "label": "address[]",
        "numberOfBytes": "32"
      },
      "t_bool": {
        "encoding": "inplace",
        "label": "bool",
        "numberOfBytes": "1"
      },
      "t_contract(ISimpleRouter)1303": {
        "encoding": "inplace",
        "label": "contract ISimpleRouter",
        "numberOfBytes": "20"
      },
      "t_mapping(t_address,t_mapping(t_address,t_uint256))": {
        "encoding": "mapping",
        "key": "t_address",
        "label": "mapping(address => mapping(address => uint256))",
        "numberOfBytes": "32",
        "value": "t_mapping(t_address,t_uint256)"
      },
      "t_mapping(t_address,t_uint256)": {
        "encoding": "mapping",
        "key": "t_address",
        "label": "mapping(address => uint256)",
        "numberOfBytes": "32",
        "value": "t_uint256"
      },
      "t_string_storage": {
        "encoding": "bytes",
        "label": "string",
        "numberOfBytes": "32"
      },
      "t_uint256": {
        "encoding": "inplace",
        "label": "uint256",
        "numberOfBytes": "32"
      }
    }
  }
}