{
  "address": "0x56086C3C7510c1F832608Fb745E70Ec63d91179C",
  "abi": [
    {
      "inputs": [
        {
          "internalType": "address",
          "name": "_gauge",
          "type": "address"
        },
        {
          "components": [
            {
              "internalType": "address",
              "name": "gasToken",
              "type": "address"
            },
            {
              "internalType": "address[]",
              "name": "rewards",
              "type": "address[]"
            },
            {
              "internalType": "address",
              "name": "simpleRouter",
              "type": "address"
            }
          ],
          "internalType": "struct BaseStrategy.BaseStrategySettings",
          "name": "_variableRewardsStrategySettings",
          "type": "tuple"
        },
        {
          "components": [
            {
              "internalType": "string",
              "name": "name",
              "type": "string"
            },
            {
              "internalType": "address",
              "name": "owner",
              "type": "address"
            },
            {
              "internalType": "address",
              "name": "dev",
              "type": "address"
            },
            {
              "internalType": "address",
              "name": "feeCollector",
              "type": "address"
            },
            {
              "internalType": "address",
              "name": "depositToken",
              "type": "address"
            },
            {
              "internalType": "address",
              "name": "rewardToken",
              "type": "address"
            },
            {
              "internalType": "uint256",
              "name": "minTokensToReinvest",
              "type": "uint256"
            },
            {
              "internalType": "uint256",
              "name": "devFeeBips",
              "type": "uint256"
            },
            {
              "internalType": "uint256",
              "name": "reinvestRewardBips",
              "type": "uint256"
            }
          ],
          "internalType": "struct YakStrategyV3.StrategySettings",
          "name": "_strategySettings",
          "type": "tuple"
        }
      ],
      "stateMutability": "nonpayable",
      "type": "constructor"
    },
    {
      "anonymous": false,
      "inputs": [
        {
          "indexed": false,
          "internalType": "address",
          "name": "rewardToken",
          "type": "address"
        }
      ],
      "name": "AddReward",
      "type": "event"
    },
    {
      "anonymous": false,
      "inputs": [
        {
          "indexed": true,
          "internalType": "address",
          "name": "owner",
          "type": "address"
        },
        {
          "indexed": true,
          "internalType": "address",
          "name": "spender",
          "type": "address"
        },
        {
          "indexed": false,
          "internalType": "uint256",
          "name": "value",
          "type": "uint256"
        }
      ],
      "name": "Approval",
      "type": "event"
    },
    {
      "anonymous": false,
      "inputs": [
        {
          "indexed": true,
          "internalType": "address",
          "name": "account",
          "type": "address"
        },
        {
          "indexed": false,
          "internalType": "uint256",
          "name": "amount",
          "type": "uint256"
        }
      ],
      "name": "Deposit",
      "type": "event"
    },
    {
      "anonymous": false,
      "inputs": [
        {
          "indexed": false,
          "internalType": "bool",
          "name": "newValue",
          "type": "bool"
        }
      ],
      "name": "DepositsEnabled",
      "type": "event"
    },
    {
      "anonymous": false,
      "inputs": [
        {
          "indexed": true,
          "internalType": "address",
          "name": "previousOwner",
          "type": "address"
        },
        {
          "indexed": true,
          "internalType": "address",
          "name": "newOwner",
          "type": "address"
        }
      ],
      "name": "OwnershipTransferred",
      "type": "event"
    },
    {
      "anonymous": false,
      "inputs": [
        {
          "indexed": false,
          "internalType": "address",
          "name": "token",
          "type": "address"
        },
        {
          "indexed": false,
          "internalType": "uint256",
          "name": "amount",
          "type": "uint256"
        }
      ],
      "name": "Recovered",
      "type": "event"
    },
    {
      "anonymous": false,
      "inputs": [
        {
          "indexed": false,
          "internalType": "uint256",
          "name": "newTotalDeposits",
          "type": "uint256"
        },
        {
          "indexed": false,
          "internalType": "uint256",
          "name": "newTotalSupply",
          "type": "uint256"
        }
      ],
      "name": "Reinvest",
      "type": "event"
    },
    {
      "anonymous": false,
      "inputs": [
        {
          "indexed": false,
          "internalType": "address",
          "name": "rewardToken",
          "type": "address"
        }
      ],
      "name": "RemoveReward",
      "type": "event"
    },
    {
      "anonymous": false,
      "inputs": [
        {
          "indexed": true,
          "internalType": "address",
          "name": "from",
          "type": "address"
        },
        {
          "indexed": true,
          "internalType": "address",
          "name": "to",
          "type": "address"
        },
        {
          "indexed": false,
          "internalType": "uint256",
          "name": "value",
          "type": "uint256"
        }
      ],
      "name": "Transfer",
      "type": "event"
    },
    {
      "anonymous": false,
      "inputs": [
        {
          "indexed": false,
          "internalType": "address",
          "name": "oldValue",
          "type": "address"
        },
        {
          "indexed": false,
          "internalType": "address",
          "name": "newValue",
          "type": "address"
        }
      ],
      "name": "UpdateDevAddr",
      "type": "event"
    },
    {
      "anonymous": false,
      "inputs": [
        {
          "indexed": false,
          "internalType": "uint256",
          "name": "oldValue",
          "type": "uint256"
        },
        {
          "indexed": false,
          "internalType": "uint256",
          "name": "newValue",
          "type": "uint256"
        }
      ],
      "name": "UpdateDevFee",
      "type": "event"
    },
    {
      "anonymous": false,
      "inputs": [
        {
          "indexed": false,
          "internalType": "address",
          "name": "oldValue",
          "type": "address"
        },
        {
          "indexed": false,
          "internalType": "address",
          "name": "newValue",
          "type": "address"
        }
      ],
      "name": "UpdateFeeCollector",
      "type": "event"
    },
    {
      "anonymous": false,
      "inputs": [
        {
          "indexed": false,
          "internalType": "uint256",
          "name": "oldValue",
          "type": "uint256"
        },
        {
          "indexed": false,
          "internalType": "uint256",
          "name": "newValue",
          "type": "uint256"
        }
      ],
      "name": "UpdateMaxTokensToDepositWithoutReinvest",
      "type": "event"
    },
    {
      "anonymous": false,
      "inputs": [
        {
          "indexed": false,
          "internalType": "uint256",
          "name": "oldValue",
          "type": "uint256"
        },
        {
          "indexed": false,
          "internalType": "uint256",
          "name": "newValue",
          "type": "uint256"
        }
      ],
      "name": "UpdateMinTokensToReinvest",
      "type": "event"
    },
    {
      "anonymous": false,
      "inputs": [
        {
          "indexed": false,
          "internalType": "uint256",
          "name": "oldValue",
          "type": "uint256"
        },
        {
          "indexed": false,
          "internalType": "uint256",
          "name": "newValue",
          "type": "uint256"
        }
      ],
      "name": "UpdateReinvestReward",
      "type": "event"
    },
    {
      "anonymous": false,
      "inputs": [
        {
          "indexed": false,
          "internalType": "address",
          "name": "oldRouter",
          "type": "address"
        },
        {
          "indexed": false,
          "internalType": "address",
          "name": "newRouter",
          "type": "address"
        }
      ],
      "name": "UpdateRouter",
      "type": "event"
    },
    {
      "anonymous": false,
      "inputs": [
        {
          "indexed": true,
          "internalType": "address",
          "name": "account",
          "type": "address"
        },
        {
          "indexed": false,
          "internalType": "uint256",
          "name": "amount",
          "type": "uint256"
        }
      ],
      "name": "Withdraw",
      "type": "event"
    },
    {
      "inputs": [],
      "name": "DEPOSITS_ENABLED",
      "outputs": [
        {
          "internalType": "bool",
          "name": "",
          "type": "bool"
        }
      ],
      "stateMutability": "view",
      "type": "function"
    },
    {
      "inputs": [],
      "name": "DEV_FEE_BIPS",
      "outputs": [
        {
          "internalType": "uint256",
          "name": "",
          "type": "uint256"
        }
      ],
      "stateMutability": "view",
      "type": "function"
    },
    {
      "inputs": [],
      "name": "DOMAIN_TYPEHASH",
      "outputs": [
        {
          "internalType": "bytes32",
          "name": "",
          "type": "bytes32"
        }
      ],
      "stateMutability": "view",
      "type": "function"
    },
    {
      "inputs": [],
      "name": "MIN_TOKENS_TO_REINVEST",
      "outputs": [
        {
          "internalType": "uint256",
          "name": "",
          "type": "uint256"
        }
      ],
      "stateMutability": "view",
      "type": "function"
    },
    {
      "inputs": [],
      "name": "PERMIT_TYPEHASH",
      "outputs": [
        {
          "internalType": "bytes32",
          "name": "",
          "type": "bytes32"
        }
      ],
      "stateMutability": "view",
      "type": "function"
    },
    {
      "inputs": [],
      "name": "REINVEST_REWARD_BIPS",
      "outputs": [
        {
          "internalType": "uint256",
          "name": "",
          "type": "uint256"
        }
      ],
      "stateMutability": "view",
      "type": "function"
    },
    {
      "inputs": [],
      "name": "VERSION_HASH",
      "outputs": [
        {
          "internalType": "bytes32",
          "name": "",
          "type": "bytes32"
        }
      ],
      "stateMutability": "view",
      "type": "function"
    },
    {
      "inputs": [
        {
          "internalType": "address",
          "name": "_rewardToken",
          "type": "address"
        }
      ],
      "name": "addReward",
      "outputs": [],
      "stateMutability": "nonpayable",
      "type": "function"
    },
    {
      "inputs": [
        {
          "internalType": "address",
          "name": "account",
          "type": "address"
        },
        {
          "internalType": "address",
          "name": "spender",
          "type": "address"
        }
      ],
      "name": "allowance",
      "outputs": [
        {
          "internalType": "uint256",
          "name": "",
          "type": "uint256"
        }
      ],
      "stateMutability": "view",
      "type": "function"
    },
    {
      "inputs": [
        {
          "internalType": "address",
          "name": "spender",
          "type": "address"
        },
        {
          "internalType": "uint256",
          "name": "amount",
          "type": "uint256"
        }
      ],
      "name": "approve",
      "outputs": [
        {
          "internalType": "bool",
          "name": "",
          "type": "bool"
        }
      ],
      "stateMutability": "nonpayable",
      "type": "function"
    },
    {
      "inputs": [
        {
          "internalType": "address",
          "name": "account",
          "type": "address"
        }
      ],
      "name": "balanceOf",
      "outputs": [
        {
          "internalType": "uint256",
          "name": "",
          "type": "uint256"
        }
      ],
      "stateMutability": "view",
      "type": "function"
    },
    {
      "inputs": [
        {
          "internalType": "uint256",
          "name": "_amount",
          "type": "uint256"
        }
      ],
      "name": "calculateDepositFee",
      "outputs": [
        {
          "internalType": "uint256",
          "name": "",
          "type": "uint256"
        }
      ],
      "stateMutability": "view",
      "type": "function"
    },
    {
      "inputs": [
        {
          "internalType": "uint256",
          "name": "_amount",
          "type": "uint256"
        }
      ],
      "name": "calculateWithdrawFee",
      "outputs": [
        {
          "internalType": "uint256",
          "name": "",
          "type": "uint256"
        }
      ],
      "stateMutability": "view",
      "type": "function"
    },
    {
      "inputs": [],
      "name": "checkReward",
      "outputs": [
        {
          "internalType": "uint256",
          "name": "",
          "type": "uint256"
        }
      ],
      "stateMutability": "view",
      "type": "function"
    },
    {
      "inputs": [],
      "name": "decimals",
      "outputs": [
        {
          "internalType": "uint8",
          "name": "",
          "type": "uint8"
        }
      ],
      "stateMutability": "view",
      "type": "function"
    },
    {
      "inputs": [
        {
          "internalType": "uint256",
          "name": "_amount",
          "type": "uint256"
        }
      ],
      "name": "deposit",
      "outputs": [],
      "stateMutability": "nonpayable",
      "type": "function"
    },
    {
      "inputs": [
        {
          "internalType": "address",
          "name": "_account",
          "type": "address"
        },
        {
          "internalType": "uint256",
          "name": "_amount",
          "type": "uint256"
        }
      ],
      "name": "depositFor",
      "outputs": [],
      "stateMutability": "nonpayable",
      "type": "function"
    },
    {
      "inputs": [],
      "name": "depositToken",
      "outputs": [
        {
          "internalType": "contract IERC20",
          "name": "",
          "type": "address"
        }
      ],
      "stateMutability": "view",
      "type": "function"
    },
    {
      "inputs": [
        {
          "internalType": "uint256",
          "name": "_amount",
          "type": "uint256"
        },
        {
          "internalType": "uint256",
          "name": "_deadline",
          "type": "uint256"
        },
        {
          "internalType": "uint8",
          "name": "_v",
          "type": "uint8"
        },
        {
          "internalType": "bytes32",
          "name": "_r",
          "type": "bytes32"
        },
        {
          "internalType": "bytes32",
          "name": "_s",
          "type": "bytes32"
        }
      ],
      "name": "depositWithPermit",
      "outputs": [],
      "stateMutability": "nonpayable",
      "type": "function"
    },
    {
      "inputs": [],
      "name": "devAddr",
      "outputs": [
        {
          "internalType": "address",
          "name": "",
          "type": "address"
        }
      ],
      "stateMutability": "view",
      "type": "function"
    },
    {
      "inputs": [],
      "name": "disableDeposits",
      "outputs": [],
      "stateMutability": "nonpayable",
      "type": "function"
    },
    {
      "inputs": [],
      "name": "enableDeposits",
      "outputs": [],
      "stateMutability": "nonpayable",
      "type": "function"
    },
    {
      "inputs": [],
      "name": "estimateReinvestReward",
      "outputs": [
        {
          "internalType": "uint256",
          "name": "",
          "type": "uint256"
        }
      ],
      "stateMutability": "view",
      "type": "function"
    },
    {
      "inputs": [],
      "name": "feeCollector",
      "outputs": [
        {
          "internalType": "address",
          "name": "",
          "type": "address"
        }
      ],
      "stateMutability": "view",
      "type": "function"
    },
    {
      "inputs": [],
      "name": "gauge",
      "outputs": [
        {
          "internalType": "contract IGauge",
          "name": "",
          "type": "address"
        }
      ],
      "stateMutability": "view",
      "type": "function"
    },
    {
      "inputs": [
        {
          "internalType": "uint256",
          "name": "amount",
          "type": "uint256"
        }
      ],
      "name": "getDepositTokensForShares",
      "outputs": [
        {
          "internalType": "uint256",
          "name": "",
          "type": "uint256"
        }
      ],
      "stateMutability": "view",
      "type": "function"
    },
    {
      "inputs": [],
      "name": "getDomainSeparator",
      "outputs": [
        {
          "internalType": "bytes32",
          "name": "",
          "type": "bytes32"
        }
      ],
      "stateMutability": "view",
      "type": "function"
    },
    {
      "inputs": [
        {
          "internalType": "uint256",
          "name": "amount",
          "type": "uint256"
        }
      ],
      "name": "getSharesForDepositTokens",
      "outputs": [
        {
          "internalType": "uint256",
          "name": "",
          "type": "uint256"
        }
      ],
      "stateMutability": "view",
      "type": "function"
    },
    {
      "inputs": [],
      "name": "getSupportedRewardsLength",
      "outputs": [
        {
          "internalType": "uint256",
          "name": "",
          "type": "uint256"
        }
      ],
      "stateMutability": "view",
      "type": "function"
    },
    {
      "inputs": [],
      "name": "name",
      "outputs": [
        {
          "internalType": "string",
          "name": "",
          "type": "string"
        }
      ],
      "stateMutability": "view",
      "type": "function"
    },
    {
      "inputs": [
        {
          "internalType": "address",
          "name": "",
          "type": "address"
        }
      ],
      "name": "nonces",
      "outputs": [
        {
          "internalType": "uint256",
          "name": "",
          "type": "uint256"
        }
      ],
      "stateMutability": "view",
      "type": "function"
    },
    {
      "inputs": [],
      "name": "owner",
      "outputs": [
        {
          "internalType": "address",
          "name": "",
          "type": "address"
        }
      ],
      "stateMutability": "view",
      "type": "function"
    },
    {
      "inputs": [
        {
          "internalType": "address",
          "name": "owner",
          "type": "address"
        },
        {
          "internalType": "address",
          "name": "spender",
          "type": "address"
        },
        {
          "internalType": "uint256",
          "name": "value",
          "type": "uint256"
        },
        {
          "internalType": "uint256",
          "name": "deadline",
          "type": "uint256"
        },
        {
          "internalType": "uint8",
          "name": "v",
          "type": "uint8"
        },
        {
          "internalType": "bytes32",
          "name": "r",
          "type": "bytes32"
        },
        {
          "internalType": "bytes32",
          "name": "s",
          "type": "bytes32"
        }
      ],
      "name": "permit",
      "outputs": [],
      "stateMutability": "nonpayable",
      "type": "function"
    },
    {
      "inputs": [
        {
          "internalType": "address",
          "name": "tokenAddress",
          "type": "address"
        },
        {
          "internalType": "uint256",
          "name": "tokenAmount",
          "type": "uint256"
        }
      ],
      "name": "recoverERC20",
      "outputs": [],
      "stateMutability": "nonpayable",
      "type": "function"
    },
    {
      "inputs": [
        {
          "internalType": "uint256",
          "name": "amount",
          "type": "uint256"
        }
      ],
      "name": "recoverGas",
      "outputs": [],
      "stateMutability": "nonpayable",
      "type": "function"
    },
    {
      "inputs": [],
      "name": "reinvest",
      "outputs": [],
      "stateMutability": "nonpayable",
      "type": "function"
    },
    {
      "inputs": [
        {
          "internalType": "address",
          "name": "_rewardToken",
          "type": "address"
        }
      ],
      "name": "removeReward",
      "outputs": [],
      "stateMutability": "nonpayable",
      "type": "function"
    },
    {
      "inputs": [],
      "name": "renounceOwnership",
      "outputs": [],
      "stateMutability": "nonpayable",
      "type": "function"
    },
    {
      "inputs": [
        {
          "internalType": "uint256",
          "name": "_minReturnAmountAccepted",
          "type": "uint256"
        }
      ],
      "name": "rescueDeployedFunds",
      "outputs": [],
      "stateMutability": "nonpayable",
      "type": "function"
    },
    {
      "inputs": [
        {
          "internalType": "address",
          "name": "token",
          "type": "address"
        },
        {
          "internalType": "address",
          "name": "spender",
          "type": "address"
        }
      ],
      "name": "revokeAllowance",
      "outputs": [],
      "stateMutability": "nonpayable",
      "type": "function"
    },
    {
      "inputs": [],
      "name": "rewardToken",
      "outputs": [
        {
          "internalType": "contract IERC20",
          "name": "",
          "type": "address"
        }
      ],
      "stateMutability": "view",
      "type": "function"
    },
    {
      "inputs": [],
      "name": "simpleRouter",
      "outputs": [
        {
          "internalType": "contract ISimpleRouter",
          "name": "",
          "type": "address"
        }
      ],
      "stateMutability": "view",
      "type": "function"
    },
    {
      "inputs": [
        {
          "internalType": "uint256",
          "name": "",
          "type": "uint256"
        }
      ],
      "name": "supportedRewards",
      "outputs": [
        {
          "internalType": "address",
          "name": "",
          "type": "address"
        }
      ],
      "stateMutability": "view",
      "type": "function"
    },
    {
      "inputs": [],
      "name": "symbol",
      "outputs": [
        {
          "internalType": "string",
          "name": "",
          "type": "string"
        }
      ],
      "stateMutability": "view",
      "type": "function"
    },
    {
      "inputs": [],
      "name": "totalDeposits",
      "outputs": [
        {
          "internalType": "uint256",
          "name": "",
          "type": "uint256"
        }
      ],
      "stateMutability": "view",
      "type": "function"
    },
    {
      "inputs": [],
      "name": "totalSupply",
      "outputs": [
        {
          "internalType": "uint256",
          "name": "",
          "type": "uint256"
        }
      ],
      "stateMutability": "view",
      "type": "function"
    },
    {
      "inputs": [
        {
          "internalType": "address",
          "name": "dst",
          "type": "address"
        },
        {
          "internalType": "uint256",
          "name": "amount",
          "type": "uint256"
        }
      ],
      "name": "transfer",
      "outputs": [
        {
          "internalType": "bool",
          "name": "",
          "type": "bool"
        }
      ],
      "stateMutability": "nonpayable",
      "type": "function"
    },
    {
      "inputs": [
        {
          "internalType": "address",
          "name": "src",
          "type": "address"
        },
        {
          "internalType": "address",
          "name": "dst",
          "type": "address"
        },
        {
          "internalType": "uint256",
          "name": "amount",
          "type": "uint256"
        }
      ],
      "name": "transferFrom",
      "outputs": [
        {
          "internalType": "bool",
          "name": "",
          "type": "bool"
        }
      ],
      "stateMutability": "nonpayable",
      "type": "function"
    },
    {
      "inputs": [
        {
          "internalType": "address",
          "name": "newOwner",
          "type": "address"
        }
      ],
      "name": "transferOwnership",
      "outputs": [],
      "stateMutability": "nonpayable",
      "type": "function"
    },
    {
      "inputs": [
        {
          "internalType": "address",
          "name": "newValue",
          "type": "address"
        }
      ],
      "name": "updateDevAddr",
      "outputs": [],
      "stateMutability": "nonpayable",
      "type": "function"
    },
    {
      "inputs": [
        {
          "internalType": "uint256",
          "name": "newValue",
          "type": "uint256"
        }
      ],
      "name": "updateDevFee",
      "outputs": [],
      "stateMutability": "nonpayable",
      "type": "function"
    },
    {
      "inputs": [
        {
          "internalType": "address",
          "name": "newValue",
          "type": "address"
        }
      ],
      "name": "updateFeeCollector",
      "outputs": [],
      "stateMutability": "nonpayable",
      "type": "function"
    },
    {
      "inputs": [
        {
          "internalType": "uint256",
          "name": "newValue",
          "type": "uint256"
        }
      ],
      "name": "updateMinTokensToReinvest",
      "outputs": [],
      "stateMutability": "nonpayable",
      "type": "function"
    },
    {
      "inputs": [
        {
          "internalType": "uint256",
          "name": "newValue",
          "type": "uint256"
        }
      ],
      "name": "updateReinvestReward",
      "outputs": [],
      "stateMutability": "nonpayable",
      "type": "function"
    },
    {
      "inputs": [
        {
          "internalType": "address",
          "name": "_router",
          "type": "address"
        }
      ],
      "name": "updateRouter",
      "outputs": [],
      "stateMutability": "nonpayable",
      "type": "function"
    },
    {
      "inputs": [
        {
          "internalType": "uint256",
          "name": "_amount",
          "type": "uint256"
        }
      ],
      "name": "withdraw",
      "outputs": [],
      "stateMutability": "nonpayable",
      "type": "function"
    }
  ],
  "transactionHash": "0x7d48350a3399300a7d2ad72f27396f25f6df3aef759be2b9009586fe8a539cf4",
  "args": [
    "0x650b141adb8B842f4e88Dcb19320B80842da5D29",
    {
      "gasToken": "0xB31f66AA3C1e785363F0875A1B74E27b85FD66c7",
      "rewards": [
        "0xcd94a87696FAC69Edae3a70fE5725307Ae1c43f6"
      ],
      "simpleRouter": "0x959a0af5A46F76AA37317BC417D48B445658B188"
    },
    {
      "name": "Yield Yak: Blackhole SUPER-WETH.e",
      "owner": "0xDcEDF06Fd33E1D7b6eb4b309f779a0e9D3172e44",
      "dev": "0xDcEDF06Fd33E1D7b6eb4b309f779a0e9D3172e44",
      "feeCollector": "0x2D580F9CF2fB2D09BC411532988F2aFdA4E7BefF",
      "depositToken": "0xBbB931e832BF3c789BaB467E4A6F6C1551791D3e",
      "rewardToken": "0xB31f66AA3C1e785363F0875A1B74E27b85FD66c7",
      "minTokensToReinvest": "1000",
      "devFeeBips": 900,
      "reinvestRewardBips": 100
    }
  ],
  "solcInputHash": "4219d2cd22b2df686b04c0c13afefb69",
  "bytecode": "0x6101806040526009610140819052685969656c642059616b60b81b6101609081526200002f9160009190620008fd565b506040805180820190915260038082526216549560ea1b60209092019182526200005c91600191620008fd565b503480156200006a57600080fd5b50604051620051a9380380620051a98339810160408190526200008d9162000c15565b600680546001600160a01b0319163390811790915560405183918391829190819060009060008051602062005189833981519152908290a35080518051620000de91600091602090910190620008fd565b506080808201516001600160a01b0390811690915260a0808301519091169052600780546001600160a01b0319163317905560c08101516200012090620003e2565b60e081015162000130906200047f565b61010081015162000141906200053b565b60608101516200015190620005f7565b60408101516200016190620006ab565b6200016b6200075f565b60208101516200017b9062000800565b5081516001600160a01b031660c0526020808301518051620001a292600d9201906200098c565b50604082810151600e80546001600160a01b0319166001600160a01b039092169190911790558051600080825260208201527fc7606d21ac05cd309191543e409f0845c016120563783d70e4f41419dc0ef234910160405180910390a150506080516001600160a01b03166322be3de16040518163ffffffff1660e01b8152600401602060405180830381865afa15801562000242573d6000803e3d6000fd5b505050506040513d601f19601f8201168201806040525081019062000268919062000d5f565b15620002c95760405162461bcd60e51b815260206004820152602560248201527f426c61636b686f6c653a3a537461626c65207061697273206e6f7420737570706044820152641bdc9d195960da1b60648201526084015b60405180910390fd5b826001600160a01b031660e0816001600160a01b0316815250506080516001600160a01b0316630dfe16816040518163ffffffff1660e01b8152600401602060405180830381865afa15801562000324573d6000803e3d6000fd5b505050506040513d601f19601f820116820180604052508101906200034a919062000d8a565b6001600160a01b0316610100816001600160a01b0316815250506080516001600160a01b031663d21220a76040518163ffffffff1660e01b8152600401602060405180830381865afa158015620003a5573d6000803e3d6000fd5b505050506040513d601f19601f82011682018060405250810190620003cb919062000d8a565b6001600160a01b0316610120525062000e0b915050565b6007546001600160a01b031633146200043e5760405162461bcd60e51b815260206004820152601460248201527f59616b53747261746567793a3a6f6e6c794465760000000000000000000000006044820152606401620002c0565b60095460408051918252602082018390527f481f79ac3a523b6d6db3c5a720e190e986d1cc1b41adcdf50f9caef849901100910160405180910390a1600955565b6007546001600160a01b03163314620004db5760405162461bcd60e51b815260206004820152601460248201527f59616b53747261746567793a3a6f6e6c794465760000000000000000000000006044820152606401620002c0565b612710600b5482620004ee919062000da8565b1115620004fa57600080fd5b600c5460408051918252602082018390527f2a42303d002f0ba6cfe8259c91d4684443fb0b3de286ba74991175d651726131910160405180910390a1600c55565b6007546001600160a01b03163314620005975760405162461bcd60e51b815260206004820152601460248201527f59616b53747261746567793a3a6f6e6c794465760000000000000000000000006044820152606401620002c0565b612710600c5482620005aa919062000da8565b1115620005b657600080fd5b600b5460408051918252602082018390527fe7f97d51d307dc44045597c9978bec0f842e6bb40d19b9444084cfa30d9ed4f2910160405180910390a1600b55565b6006546001600160a01b03163314620006425760405162461bcd60e51b81526020600482018190526024820152600080516020620051698339815191526044820152606401620002c0565b600854604080516001600160a01b03928316815291831660208301527fcc882185e6edeeb762130016ea1faf3d7aa9c01b199bfd646f965b58ab741063910160405180910390a1600880546001600160a01b0319166001600160a01b0392909216919091179055565b6006546001600160a01b03163314620006f65760405162461bcd60e51b81526020600482018190526024820152600080516020620051698339815191526044820152606401620002c0565b600754604080516001600160a01b03928316815291831660208301527fa8e91499ed37682f43cffb045fcc7d379a91e8c9a14e6321877ee34dee564c00910160405180910390a1600780546001600160a01b0319166001600160a01b0392909216919091179055565b6006546001600160a01b03163314620007aa5760405162461bcd60e51b81526020600482018190526024820152600080516020620051698339815191526044820152606401620002c0565b600a5460ff1615620007bb57600080fd5b600a805460ff191660019081179091556040519081527f7b014ed3854e7f5cb0218d58b3c6ae7d53a68bb0af2f67bfb029ea42c38a7e859060200160405180910390a1565b6006546001600160a01b031633146200084b5760405162461bcd60e51b81526020600482018190526024820152600080516020620051698339815191526044820152606401620002c0565b6001600160a01b038116620008b25760405162461bcd60e51b815260206004820152602660248201527f4f776e61626c653a206e6577206f776e657220697320746865207a65726f206160448201526564647265737360d01b6064820152608401620002c0565b6006546040516001600160a01b038084169216906000805160206200518983398151915290600090a3600680546001600160a01b0319166001600160a01b0392909216919091179055565b8280546200090b9062000dcf565b90600052602060002090601f0160209004810192826200092f57600085556200097a565b82601f106200094a57805160ff19168380011785556200097a565b828001600101855582156200097a579182015b828111156200097a5782518255916020019190600101906200095d565b5062000988929150620009e4565b5090565b8280548282559060005260206000209081019282156200097a579160200282015b828111156200097a57825182546001600160a01b0319166001600160a01b03909116178255602090920191600190910190620009ad565b5b80821115620009885760008155600101620009e5565b80516001600160a01b038116811462000a1357600080fd5b919050565b634e487b7160e01b600052604160045260246000fd5b60405161012081016001600160401b038111828210171562000a545762000a5462000a18565b60405290565b604051606081016001600160401b038111828210171562000a545762000a5462000a18565b604051601f8201601f191681016001600160401b038111828210171562000aaa5762000aaa62000a18565b604052919050565b600082601f83011262000ac457600080fd5b81516001600160401b0381111562000ae05762000ae062000a18565b602062000af6601f8301601f1916820162000a7f565b828152858284870101111562000b0b57600080fd5b60005b8381101562000b2b57858101830151828201840152820162000b0e565b8381111562000b3d5760008385840101525b5095945050505050565b6000610120828403121562000b5b57600080fd5b62000b6562000a2e565b82519091506001600160401b0381111562000b7f57600080fd5b62000b8d8482850162000ab2565b82525062000b9e60208301620009fb565b602082015262000bb160408301620009fb565b604082015262000bc460608301620009fb565b606082015262000bd760808301620009fb565b608082015262000bea60a08301620009fb565b60a082015260c082015160c082015260e082015160e082015261010080830151818301525092915050565b60008060006060848603121562000c2b57600080fd5b62000c3684620009fb565b602085810151919450906001600160401b038082111562000c5657600080fd5b908601906060828903121562000c6b57600080fd5b62000c7562000a5a565b62000c8083620009fb565b8152838301518281111562000c9457600080fd5b8301601f81018a1362000ca657600080fd5b80518381111562000cbb5762000cbb62000a18565b8060051b62000ccc87820162000a7f565b918252828101870191878101908d84111562000ce757600080fd5b938801935b8385101562000d105762000d0085620009fb565b8252938801939088019062000cec565b858901525062000d279250505060408401620009fb565b604082015280955050604087015192508083111562000d4557600080fd5b505062000d558682870162000b47565b9150509250925092565b60006020828403121562000d7257600080fd5b8151801515811462000d8357600080fd5b9392505050565b60006020828403121562000d9d57600080fd5b62000d8382620009fb565b6000821982111562000dca57634e487b7160e01b600052601160045260246000fd5b500190565b600181811c9082168062000de457607f821691505b60208210810362000e0557634e487b7160e01b600052602260045260246000fd5b50919050565b60805160a05160c05160e051610100516101205161420462000f6560003960008181612fee01528181613092015281816132d60152613764015260008181612dcc01528181612e7001528181613234015261373001526000818161058d01528181610f63015281816120cf015281816123e001528181612502015281816133a401528181613428015261349201526000818161174601528181612b2201528181612b510152612bc601526000818161074101528181611689015281816117ae015281816118f601528181612743015281816127ab01528181612a6b01528181612bf001528181612cb101528181612d1801528181612df601528181612e4e01528181612efa0152818161301801528181613070015261311c0152600081816106410152818161098b01528181610a4501528181610b8801528181610c220152818161229401528181613213015261337701526142046000f3fe608060405234801561001057600080fd5b50600436106102f85760003560e01c806399729ec111610193578063c851cc32116100e4578063e75ab04511610092578063e75ab045146106e8578063eab89a5a146106fb578063ed24911d1461070e578063f2fde38b14610716578063f6314d0714610729578063f7c618c11461073c578063fdb5a03e1461076357600080fd5b8063c851cc3214610629578063c89039c51461063c578063d2c35ce814610663578063d505accf14610676578063da09c72c14610689578063dd62ed3e1461069c578063dd8ce4d6146106d557600080fd5b8063ac67e1af11610141578063ac67e1af146105d5578063b52a321f146105dd578063b6b55f25146105ea578063b9e57b80146105fd578063bd079f5514610605578063c415b95c1461060e578063c4b24a461461062157600080fd5b806399729ec1146105285780639c9b2e211461053b5780639e4e73181461054e578063a4d5e67c14610575578063a6f19c8414610588578063a8ae2b7c146105af578063a9059cbb146105c257600080fd5b80635ea682ea1161024d5780637ecebe00116101fb5780637ecebe00146104a957806381837230146104c95780638980f11f146104dc5780638aff733d146104ef5780638da5cb5b146104f85780639291d5631461050d57806395d89b411461052057600080fd5b80635ea682ea1461042e578063666d25b91461043757806370a082311461044a578063715018a6146104735780637897e7f61461047b5780637ae267731461048e5780637d882097146104a157600080fd5b8063258250da116102aa578063258250da146103a25780632e1a7d4d146103aa5780632f4f21e2146103bf57806330adf81f146103d2578063313ce567146103f95780634a970be7146104135780635e4c57a41461042657600080fd5b806306fdde03146102fd578063095ea7b31461031b578063110560351461033e57806318160ddd1461035f57806320606b701461036857806323b872dd1461038f578063247d284b1461033e575b600080fd5b61030561076b565b604051610312919061399d565b60405180910390f35b61032e6103293660046139e5565b6107f9565b6040519015158152602001610312565b61035161034c366004613a11565b61080f565b604051908152602001610312565b61035160025481565b6103517f8b73c3c69bb8fe3d512ecc4cf759cc79239f7b179b0ffacaa9a75d522b39400f81565b61032e61039d366004613a2a565b610820565b600d54610351565b6103bd6103b8366004613a11565b6108e9565b005b6103bd6103cd3660046139e5565b6109f7565b6103517f6e71edae12b1b97f4d1f60370fef10105fa2faae0126114a169c64845d6126c981565b610401601281565b60405160ff9091168152602001610312565b6103bd610421366004613a81565b610a05565b6103bd610aba565b610351600c5481565b6103bd610445366004613a11565b610b3f565b610351610458366004613ac8565b6001600160a01b031660009081526004602052604090205490565b6103bd610d84565b6103bd610489366004613a11565b610dfd565b6103bd61049c366004613ae5565b610ea4565b610351610f49565b6103516104b7366004613ac8565b60056020526000908152604090205481565b6103bd6104d7366004613a11565b610fde565b6103bd6104ea3660046139e5565b611049565b610351600b5481565b6105006110d6565b6040516103129190613b1e565b6103bd61051b366004613ac8565b6110e5565b61030561117d565b6103bd610536366004613a11565b61118a565b6103bd610549366004613ac8565b611211565b6103517fc89efdaa54c0f20c7adf612882df0950f5a951637e0307cdcb4c672f298b8bc681565b6103bd610583366004613ac8565b61136d565b6105007f000000000000000000000000000000000000000000000000000000000000000081565b6103bd6105bd366004613a11565b611524565b61032e6105d03660046139e5565b6115ab565b6103bd6115b8565b600a5461032e9060ff1681565b6103bd6105f8366004613a11565b61162c565b610351611639565b61035160095481565b600854610500906001600160a01b031681565b610351611678565b6103bd610637366004613ac8565b6119cd565b6105007f000000000000000000000000000000000000000000000000000000000000000081565b6103bd610671366004613ac8565b611a60565b6103bd610684366004613b32565b611af8565b600754610500906001600160a01b031681565b6103516106aa366004613ae5565b6001600160a01b03918216600090815260036020908152604080832093909416825291909152205490565b6103516106e3366004613a11565b611bfd565b6105006106f6366004613a11565b611c43565b610351610709366004613a11565b611c6d565b610351611ca3565b6103bd610724366004613ac8565b611d43565b600e54610500906001600160a01b031681565b6105007f000000000000000000000000000000000000000000000000000000000000000081565b6103bd611e33565b6000805461077890613ba0565b80601f01602080910402602001604051908101604052809291908181526020018280546107a490613ba0565b80156107f15780601f106107c6576101008083540402835291602001916107f1565b820191906000526020600020905b8154815290600101906020018083116107d457829003601f168201915b505050505081565b6000610806338484611e85565b50600192915050565b600061081a82611f93565b92915050565b6001600160a01b03831660008181526003602090815260408083203380855292528220549192909190821480159061085a57506000198114155b156108d057600061086b8583613bf0565b6001600160a01b038881166000818152600360209081526040808320948916808452948252918290208590559051848152939450919290917f8c5be1e5ebec7d5bd14f71427d1e84f3dd0314c0f7b2291e5b200ac8c7c3b925910160405180910390a3505b6108db868686611fad565b6001925050505b9392505050565b60006108f482611c6d565b9050600081116109595760405162461bcd60e51b815260206004820152602560248201527f4261736553747261746567793a3a576974686472617720616d6f756e7420746f6044820152646f206c6f7760d81b60648201526084015b60405180910390fd5b6000610964826120b6565b9050600061097183611f93565b90506109b2336109818385613bf0565b6001600160a01b037f0000000000000000000000000000000000000000000000000000000000000000169190612139565b6109bc338561218f565b60405183815233907f884edad9ce6fa2440d8a54cc123490eb96d2768479d49ff9c7366125a94243649060200160405180910390a250505050565b610a018282612211565b5050565b60405163d505accf60e01b8152336004820152306024820152604481018690526064810185905260ff8416608482015260a4810183905260c481018290527f00000000000000000000000000000000000000000000000000000000000000006001600160a01b03169063d505accf9060e401600060405180830381600087803b158015610a9157600080fd5b505af1158015610aa5573d6000803e3d6000fd5b50505050610ab33386612211565b5050505050565b33610ac36110d6565b6001600160a01b031614610ae95760405162461bcd60e51b815260040161095090613c07565b600a5460ff1615610af957600080fd5b600a805460ff191660019081179091556040519081527f7b014ed3854e7f5cb0218d58b3c6ae7d53a68bb0af2f67bfb029ea42c38a7e85906020015b60405180910390a1565b33610b486110d6565b6001600160a01b031614610b6e5760405162461bcd60e51b815260040161095090613c07565b6040516370a0823160e01b81526000906001600160a01b037f000000000000000000000000000000000000000000000000000000000000000016906370a0823190610bbd903090600401613b1e565b602060405180830381865afa158015610bda573d6000803e3d6000fd5b505050506040513d601f19601f82011682018060405250810190610bfe9190613c3c565b9050610c086123de565b6040516370a0823160e01b81526000906001600160a01b037f000000000000000000000000000000000000000000000000000000000000000016906370a0823190610c57903090600401613b1e565b602060405180830381865afa158015610c74573d6000803e3d6000fd5b505050506040513d601f19601f82011682018060405250810190610c989190613c3c565b905082610ca58383613bf0565b1015610d245760405162461bcd60e51b815260206004820152604260248201527f4261736553747261746567793a3a456d657267656e637920776974686472617760448201527f206d696e696d756d2072657475726e20616d6f756e74206e6f74207265616368606482015261195960f21b608482015260a401610950565b7fc7606d21ac05cd309191543e409f0845c016120563783d70e4f41419dc0ef234610d4d610f49565b6002546040805192835260208301919091520160405180910390a1600a5460ff161515600103610d7f57610d7f6115b8565b505050565b33610d8d6110d6565b6001600160a01b031614610db35760405162461bcd60e51b815260040161095090613c07565b6006546040516000916001600160a01b0316907f8be0079c531659141344cd1fd0a4f28419497f9722a3daafe3b4186f6b6457e0908390a3600680546001600160a01b0319169055565b33610e066110d6565b6001600160a01b031614610e2c5760405162461bcd60e51b815260040161095090613c07565b60008111610e3957600080fd5b604051339082156108fc029083906000818181858888f19350505050158015610e66573d6000803e3d6000fd5b507f8c1256b8896378cd5044f80c202f9772b9d77dc85c8a6eb51967210b09bfaa28600082604051610e99929190613c55565b60405180910390a150565b6007546001600160a01b03163314610ece5760405162461bcd60e51b815260040161095090613c6e565b60405163095ea7b360e01b81526001600160a01b0383169063095ea7b390610efd908490600090600401613c55565b6020604051808303816000875af1158015610f1c573d6000803e3d6000fd5b505050506040513d601f19601f82011682018060405250810190610f409190613c9c565b610a0157600080fd5b6040516370a0823160e01b81526000906001600160a01b037f000000000000000000000000000000000000000000000000000000000000000016906370a0823190610f98903090600401613b1e565b602060405180830381865afa158015610fb5573d6000803e3d6000fd5b505050506040513d601f19601f82011682018060405250810190610fd99190613c3c565b905090565b6007546001600160a01b031633146110085760405162461bcd60e51b815260040161095090613c6e565b60095460408051918252602082018390527f481f79ac3a523b6d6db3c5a720e190e986d1cc1b41adcdf50f9caef849901100910160405180910390a1600955565b336110526110d6565b6001600160a01b0316146110785760405162461bcd60e51b815260040161095090613c07565b6000811161108557600080fd5b6110996001600160a01b0383163383612139565b7f8c1256b8896378cd5044f80c202f9772b9d77dc85c8a6eb51967210b09bfaa2882826040516110ca929190613c55565b60405180910390a15050565b6006546001600160a01b031690565b336110ee6110d6565b6001600160a01b0316146111145760405162461bcd60e51b815260040161095090613c07565b6007546040517fa8e91499ed37682f43cffb045fcc7d379a91e8c9a14e6321877ee34dee564c0091611153916001600160a01b03909116908490613cbe565b60405180910390a1600780546001600160a01b0319166001600160a01b0392909216919091179055565b6001805461077890613ba0565b6007546001600160a01b031633146111b45760405162461bcd60e51b815260040161095090613c6e565b612710600b54826111c59190613cd8565b11156111d057600080fd5b600c5460408051918252602082018390527f2a42303d002f0ba6cfe8259c91d4684443fb0b3de286ba74991175d651726131910160405180910390a1600c55565b6007546001600160a01b0316331461123b5760405162461bcd60e51b815260040161095090613c6e565b6000805b600d5481101561129257600d818154811061125c5761125c613cf0565b6000918252602090912001546001600160a01b039081169084160361128057600191505b8061128a81613d06565b91505061123f565b5080156112f25760405162461bcd60e51b815260206004820152602860248201527f4261736553747261746567793a3a52657761726420616c726561647920636f6e604482015267666967757265642160c01b6064820152608401610950565b600d80546001810182556000919091527fd7b6990105719101dabeb77144f2a3385c8033acd3af97e9423a695e81ad1eb50180546001600160a01b0319166001600160a01b0384161790556040517f1714865bf5baa84e3439536a013c87cfe030b4cd69f344a5f2a4877de3d517ce906110ca908490613b1e565b6007546001600160a01b031633146113975760405162461bcd60e51b815260040161095090613c6e565b6000805b600d5481101561146757600d81815481106113b8576113b8613cf0565b6000918252602090912001546001600160a01b039081169084160361145557600d8054600193506113ea908490613bf0565b815481106113fa576113fa613cf0565b600091825260209091200154600d80546001600160a01b03909216918390811061142657611426613cf0565b9060005260206000200160006101000a8154816001600160a01b0302191690836001600160a01b031602179055505b8061145f81613d06565b91505061139b565b50806114c15760405162461bcd60e51b8152602060048201526024808201527f4261736553747261746567793a3a526577617264206e6f7420636f6e666967756044820152637265642160e01b6064820152608401610950565b600d8054806114d2576114d2613d1f565b600082815260209020810160001990810180546001600160a01b03191690550190556040517f963b7c735475147a62c589c2d7cb8ec4b0a6b7af4f97373d79ebfa42ab8aa7dc906110ca908490613b1e565b6007546001600160a01b0316331461154e5760405162461bcd60e51b815260040161095090613c6e565b612710600c548261155f9190613cd8565b111561156a57600080fd5b600b5460408051918252602082018390527fe7f97d51d307dc44045597c9978bec0f842e6bb40d19b9444084cfa30d9ed4f2910160405180910390a1600b55565b6000610806338484611fad565b6007546001600160a01b031633146115e25760405162461bcd60e51b815260040161095090613c6e565b600a5460ff166115f157600080fd5b600a805460ff19169055604051600081527f7b014ed3854e7f5cb0218d58b3c6ae7d53a68bb0af2f67bfb029ea42c38a7e8590602001610b35565b6116363382612211565b50565b600080611644611678565b9050600954811061167057612710600b54826116609190613d35565b61166a9190613d54565b91505090565b600091505090565b600080611683612453565b905060007f00000000000000000000000000000000000000000000000000000000000000006001600160a01b03166370a08231306040518263ffffffff1660e01b81526004016116d39190613b1e565b602060405180830381865afa1580156116f0573d6000803e3d6000fd5b505050506040513d601f19601f820116820180604052508101906117149190613c3c565b905060005b82518110156119c657600083828151811061173657611736613cf0565b60200260200101516000015190507f00000000000000000000000000000000000000000000000000000000000000006001600160a01b0316816001600160a01b0316036117ac574784838151811061179057611790613cf0565b60200260200101516020018181516117a89190613cd8565b9052505b7f00000000000000000000000000000000000000000000000000000000000000006001600160a01b0316816001600160a01b031603611815578382815181106117f7576117f7613cf0565b6020026020010151602001518361180e9190613cd8565b92506119b3565b6001600160a01b038116156119b3576040516370a0823160e01b81526000906001600160a01b038316906370a0823190611853903090600401613b1e565b602060405180830381865afa158015611870573d6000803e3d6000fd5b505050506040513d601f19601f820116820180604052508101906118949190613c3c565b905060008584815181106118aa576118aa613cf0565b602002602001015160200151826118c19190613cd8565b905080156119b057600e546040516377ccc49d60e11b81526000916001600160a01b03169063ef99893a9061191e90859088907f000000000000000000000000000000000000000000000000000000000000000090600401613d76565b600060405180830381865afa15801561193b573d6000803e3d6000fd5b505050506040513d6000823e601f3d908101601f191682016040526119639190810190613e9d565b90506001816000015151116119795760006119a2565b8051805161198990600190613bf0565b8151811061199957611999613cf0565b60200260200101515b6119ac9087613cd8565b9550505b50505b50806119be81613d06565b915050611719565b5092915050565b6007546001600160a01b031633146119f75760405162461bcd60e51b815260040161095090613c6e565b600e546040517f2c6fb4d5ff9fad6ecf2e09cd64cbc9aad92a8b9d2cc0e5c3ddef9b529b0b5ffd91611a36916001600160a01b03909116908490613cbe565b60405180910390a1600e80546001600160a01b0319166001600160a01b0392909216919091179055565b33611a696110d6565b6001600160a01b031614611a8f5760405162461bcd60e51b815260040161095090613c07565b6008546040517fcc882185e6edeeb762130016ea1faf3d7aa9c01b199bfd646f965b58ab74106391611ace916001600160a01b03909116908490613cbe565b60405180910390a1600880546001600160a01b0319166001600160a01b0392909216919091179055565b42841015611b3a5760405162461bcd60e51b815260206004820152600f60248201526e1c195c9b5a5d0e8e995e1c1a5c9959608a1b6044820152606401610950565b6001600160a01b038716600090815260056020526040812080547f6e71edae12b1b97f4d1f60370fef10105fa2faae0126114a169c64845d6126c9918a918a918a919086611b8783613d06565b909155506040805160208101969096526001600160a01b0394851690860152929091166060840152608083015260a082015260c0810186905260e001604051602081830303815290604052805190602001209050611be888828686866125cb565b611bf3888888611e85565b5050505050505050565b600080611c08610f49565b600254909150801580611c19575081155b15611c2657509192915050565b81611c318286613d35565b611c3b9190613d54565b949350505050565b600d8181548110611c5357600080fd5b6000918252602090912001546001600160a01b0316905081565b600080611c78610f49565b600254909150801580611c89575081155b15611c98575060009392505050565b80611c318386613d35565b60007f8b73c3c69bb8fe3d512ecc4cf759cc79239f7b179b0ffacaa9a75d522b39400f60001b6000604051611cd89190613fb2565b6040519081900390207fc89efdaa54c0f20c7adf612882df0950f5a951637e0307cdcb4c672f298b8bc646604080516020810195909552840192909252606083015260808201523060a082015260c00160405160208183030381529060405280519060200120905090565b33611d4c6110d6565b6001600160a01b031614611d725760405162461bcd60e51b815260040161095090613c07565b6001600160a01b038116611dd75760405162461bcd60e51b815260206004820152602660248201527f4f776e61626c653a206e6577206f776e657220697320746865207a65726f206160448201526564647265737360d01b6064820152608401610950565b6006546040516001600160a01b038084169216907f8be0079c531659141344cd1fd0a4f28419497f9722a3daafe3b4186f6b6457e090600090a3600680546001600160a01b0319166001600160a01b0392909216919091179055565b323314611e795760405162461bcd60e51b815260206004820152601460248201527359616b53747261746567793a3a6f6e6c79454f4160601b6044820152606401610950565b611e8360006126f7565b565b6001600160a01b038316611edb5760405162461bcd60e51b815260206004820152601c60248201527f5f617070726f76653a3a6f776e6572207a65726f2061646472657373000000006044820152606401610950565b6001600160a01b038216611f315760405162461bcd60e51b815260206004820152601e60248201527f5f617070726f76653a3a7370656e646572207a65726f206164647265737300006044820152606401610950565b6001600160a01b0383811660008181526003602090815260408083209487168084529482529182902085905590518481527f8c5be1e5ebec7d5bd14f71427d1e84f3dd0314c0f7b2291e5b200ac8c7c3b92591015b60405180910390a3505050565b600080612710611fa38285613d35565b6108e29190613d54565b6001600160a01b0382166120205760405162461bcd60e51b815260206004820152603460248201527f5f7472616e73666572546f6b656e733a2063616e6e6f74207472616e7366657260448201527320746f20746865207a65726f206164647265737360601b6064820152608401610950565b6001600160a01b038316600090815260046020526040902054612044908290613bf0565b6001600160a01b038085166000908152600460205260408082209390935590841681522054612074908290613cd8565b6001600160a01b0380841660008181526004602052604090819020939093559151908516906000805160206141af83398151915290611f869085815260200190565b604051632e1a7d4d60e01b8152600481018290526000907f00000000000000000000000000000000000000000000000000000000000000006001600160a01b031690632e1a7d4d90602401600060405180830381600087803b15801561211b57600080fd5b505af115801561212f573d6000803e3d6000fd5b5093949350505050565b610d7f8363a9059cbb60e01b8484604051602401612158929190613c55565b60408051601f198184030181529190526020810180516001600160e01b03166001600160e01b031990931692909217909152612857565b6001600160a01b0382166000908152600460205260409020546121b3908290613bf0565b6001600160a01b0383166000908152600460205260409020556002546121da908290613bf0565b6002556040518181526000906001600160a01b038416906000805160206141af833981519152906020015b60405180910390a35050565b600a5460ff1615156001146122685760405162461bcd60e51b815260206004820152601f60248201527f4261736553747261746567793a3a4465706f736974732064697361626c6564006044820152606401610950565b61227260016126f7565b6040516323b872dd60e01b8152336004820152306024820152604481018290527f00000000000000000000000000000000000000000000000000000000000000006001600160a01b0316906323b872dd906064016020604051808303816000875af11580156122e5573d6000803e3d6000fd5b505050506040513d601f19601f820116820180604052508101906123099190613c9c565b6123695760405162461bcd60e51b815260206004820152602b60248201527f4261736553747261746567793a3a4465706f73697420746f6b656e207472616e60448201526a1cd9995c8819985a5b195960aa1b6064820152608401610950565b600061237482611f93565b905061238c836123876106e38486613bf0565b612929565b61239682826129e2565b826001600160a01b03167fe1fffcc4923d04b559f4d29a8bfc6cda04eb5b0d3c460751c2402c5c5cc9109c836040516123d191815260200190565b60405180910390a2505050565b7f00000000000000000000000000000000000000000000000000000000000000006001600160a01b031663853828b66040518163ffffffff1660e01b8152600401600060405180830381600087803b15801561243957600080fd5b505af115801561244d573d6000803e3d6000fd5b50505050565b600d5460609060008167ffffffffffffffff81111561247457612474613d95565b6040519080825280602002602001820160405280156124b957816020015b60408051808201909152600080825260208201528152602001906001900390816124925790505b50905060005b828110156119c6576000600d82815481106124dc576124dc613cf0565b60009182526020822001546040516246613160e11b81526001600160a01b0391821693507f000000000000000000000000000000000000000000000000000000000000000090911690628cc26290612538903090600401613b1e565b602060405180830381865afa158015612555573d6000803e3d6000fd5b505050506040513d601f19601f820116820180604052508101906125799190613c3c565b90506040518060400160405280836001600160a01b03168152602001828152508484815181106125ab576125ab613cf0565b6020026020010181905250505080806125c390613d06565b9150506124bf565b60006125d5611ca3565b60405161190160f01b602082015260228101919091526042810186905260620160408051601f198184030181528282528051602091820120600080855291840180845281905260ff88169284019290925260608301869052608083018590529092509060019060a0016020604051602081039080840390855afa158015612660573d6000803e3d6000fd5b5050604051601f1901519150506001600160a01b038116158015906126965750866001600160a01b0316816001600160a01b0316145b6126ee5760405162461bcd60e51b8152602060048201526024808201527f417263683a3a76616c69646174655369673a20696e76616c6964207369676e616044820152637475726560e01b6064820152608401610950565b50505050505050565b6000612701612a47565b9050600954811115612816576000612710600c54836127209190613d35565b61272a9190613d54565b9050801561276c5760085461276c906001600160a01b037f00000000000000000000000000000000000000000000000000000000000000008116911683612139565b60008361279357612710600b54846127849190613d35565b61278e9190613d54565b612796565b60005b905080156127d2576127d26001600160a01b037f0000000000000000000000000000000000000000000000000000000000000000163383612139565b60006127f1826127e28587613bf0565b6127ec9190613bf0565b612dbb565b9050801561281257600061280482611f93565b905061281082826129e2565b505b5050505b7fc7606d21ac05cd309191543e409f0845c016120563783d70e4f41419dc0ef23461283f610f49565b600254604080519283526020830191909152016110ca565b60006128ac826040518060400160405280602081526020017f5361666545524332303a206c6f772d6c6576656c2063616c6c206661696c6564815250856001600160a01b03166133519092919063ffffffff16565b805190915015610d7f57808060200190518101906128ca9190613c9c565b610d7f5760405162461bcd60e51b815260206004820152602a60248201527f5361666545524332303a204552433230206f7065726174696f6e20646964206e6044820152691bdd081cdd58d8d9595960b21b6064820152608401610950565b6000811161296e5760405162461bcd60e51b81526020600482015260126024820152715f6d696e743a3a7a65726f2073686172657360701b6044820152606401610950565b8060025461297c9190613cd8565b6002556001600160a01b0382166000908152600460205260409020546129a3908290613cd8565b6001600160a01b0383166000818152600460205260408082209390935591519091906000805160206141af833981519152906122059085815260200190565b60008211612a3d5760405162461bcd60e51b815260206004820152602260248201527f4261736553747261746567793a3a5374616b6520616d6f756e7420746f6f206c6044820152616f7760f01b6064820152608401610950565b610a018282613360565b6000612a51613490565b6040516370a0823160e01b81526000906001600160a01b037f000000000000000000000000000000000000000000000000000000000000000016906370a0823190612aa0903090600401613b1e565b602060405180830381865afa158015612abd573d6000803e3d6000fd5b505050506040513d601f19601f82011682018060405250810190612ae19190613c3c565b600d5490915060005b81811015612db3576000600d8281548110612b0757612b07613cf0565b6000918252602090912001546001600160a01b0390811691507f0000000000000000000000000000000000000000000000000000000000000000168103612c3257478015612bc4577f00000000000000000000000000000000000000000000000000000000000000006001600160a01b031663d0e30db0826040518263ffffffff1660e01b81526004016000604051808303818588803b158015612baa57600080fd5b505af1158015612bbe573d6000803e3d6000fd5b50505050505b7f00000000000000000000000000000000000000000000000000000000000000006001600160a01b03167f00000000000000000000000000000000000000000000000000000000000000006001600160a01b031603612c3057612c278186613cd8565b94505050612da1565b505b6040516370a0823160e01b81526000906001600160a01b038316906370a0823190612c61903090600401613b1e565b602060405180830381865afa158015612c7e573d6000803e3d6000fd5b505050506040513d601f19601f82011682018060405250810190612ca29190613c3c565b9050600081118015612ce657507f00000000000000000000000000000000000000000000000000000000000000006001600160a01b0316826001600160a01b031614155b15612d9e57600e546040516377ccc49d60e11b81526000916001600160a01b03169063ef99893a90612d4090859087907f000000000000000000000000000000000000000000000000000000000000000090600401613d76565b600060405180830381865afa158015612d5d573d6000803e3d6000fd5b505050506040513d6000823e601f3d908101601f19168201604052612d859190810190613e9d565b9050612d90816134eb565b612d9a9087613cd8565b9550505b50505b80612dab81613d06565b915050612aea565b509092915050565b6000612dc8600283613d54565b91507f00000000000000000000000000000000000000000000000000000000000000006001600160a01b03167f00000000000000000000000000000000000000000000000000000000000000006001600160a01b031614612fec57600e546040516377ccc49d60e11b81526000916001600160a01b03169063ef99893a90612e989086907f0000000000000000000000000000000000000000000000000000000000000000907f000000000000000000000000000000000000000000000000000000000000000090600401613d76565b600060405180830381865afa158015612eb5573d6000803e3d6000fd5b505050506040513d6000823e601f3d908101601f19168201604052612edd9190810190613e9d565b600e5460405163095ea7b360e01b81529192506001600160a01b037f000000000000000000000000000000000000000000000000000000000000000081169263095ea7b392612f329216908790600401613c55565b6020604051808303816000875af1158015612f51573d6000803e3d6000fd5b505050506040513d601f19601f82011682018060405250810190612f759190613c9c565b50600e54604051632d92330b60e11b81526001600160a01b0390911690635b24661690612fa6908490600401614091565b6020604051808303816000875af1158015612fc5573d6000803e3d6000fd5b505050506040513d601f19601f82011682018060405250810190612fe99190613c3c565b50505b7f00000000000000000000000000000000000000000000000000000000000000006001600160a01b03167f00000000000000000000000000000000000000000000000000000000000000006001600160a01b03161461320e57600e546040516377ccc49d60e11b81526000916001600160a01b03169063ef99893a906130ba9086907f0000000000000000000000000000000000000000000000000000000000000000907f000000000000000000000000000000000000000000000000000000000000000090600401613d76565b600060405180830381865afa1580156130d7573d6000803e3d6000fd5b505050506040513d6000823e601f3d908101601f191682016040526130ff9190810190613e9d565b600e5460405163095ea7b360e01b81529192506001600160a01b037f000000000000000000000000000000000000000000000000000000000000000081169263095ea7b3926131549216908790600401613c55565b6020604051808303816000875af1158015613173573d6000803e3d6000fd5b505050506040513d601f19601f820116820180604052508101906131979190613c9c565b50600e54604051632d92330b60e11b81526001600160a01b0390911690635b246616906131c8908490600401614091565b6020604051808303816000875af11580156131e7573d6000803e3d6000fd5b505050506040513d601f19601f8201168201806040525081019061320b9190613c3c565b50505b61081a7f00000000000000000000000000000000000000000000000000000000000000007f00000000000000000000000000000000000000000000000000000000000000006001600160a01b03166370a08231306040518263ffffffff1660e01b815260040161327e9190613b1e565b602060405180830381865afa15801561329b573d6000803e3d6000fd5b505050506040513d601f19601f820116820180604052508101906132bf9190613c3c565b6040516370a0823160e01b81526001600160a01b037f000000000000000000000000000000000000000000000000000000000000000016906370a082319061330b903090600401613b1e565b602060405180830381865afa158015613328573d6000803e3d6000fd5b505050506040513d601f19601f8201168201806040525081019061334c9190613c3c565b61366b565b6060611c3b8484600085613805565b60405163095ea7b360e01b81526001600160a01b037f0000000000000000000000000000000000000000000000000000000000000000169063095ea7b3906133ce907f0000000000000000000000000000000000000000000000000000000000000000908690600401613c55565b6020604051808303816000875af11580156133ed573d6000803e3d6000fd5b505050506040513d601f19601f820116820180604052508101906134119190613c9c565b5060405163b6b55f2560e01b8152600481018390527f00000000000000000000000000000000000000000000000000000000000000006001600160a01b03169063b6b55f2590602401600060405180830381600087803b15801561347457600080fd5b505af1158015613488573d6000803e3d6000fd5b505050505050565b7f00000000000000000000000000000000000000000000000000000000000000006001600160a01b0316633d18b9126040518163ffffffff1660e01b8152600401600060405180830381600087803b15801561243957600080fd5b805151600090158015906135285750815180516000919061350e90600190613bf0565b8151811061351e5761351e613cf0565b6020026020010151115b1561366357816040015160008151811061354457613544613cf0565b60200260200101516001600160a01b031663095ea7b3600e60009054906101000a90046001600160a01b0316846000015160008151811061358757613587613cf0565b60200260200101516040518363ffffffff1660e01b81526004016135ac929190613c55565b6020604051808303816000875af11580156135cb573d6000803e3d6000fd5b505050506040513d601f19601f820116820180604052508101906135ef9190613c9c565b50600e54604051632d92330b60e11b81526001600160a01b0390911690635b24661690613620908590600401614091565b6020604051808303816000875af115801561363f573d6000803e3d6000fd5b505050506040513d601f19601f8201168201806040525081019061081a9190613c3c565b506000919050565b6000806000856001600160a01b0316630902f1ac6040518163ffffffff1660e01b8152600401606060405180830381865afa1580156136ae573d6000803e3d6000fd5b505050506040513d601f19601f820116820180604052508101906136d29190614142565b509150915060006136f686846001600160701b0316846001600160701b031661392b565b9050848111156137235784905061372085836001600160701b0316856001600160701b031661392b565b95505b6137576001600160a01b037f0000000000000000000000000000000000000000000000000000000000000000168888612139565b61378b6001600160a01b037f0000000000000000000000000000000000000000000000000000000000000000168883612139565b6040516335313c2160e11b81526001600160a01b03881690636a627842906137b7903090600401613b1e565b6020604051808303816000875af11580156137d6573d6000803e3d6000fd5b505050506040513d601f19601f820116820180604052508101906137fa9190613c3c565b979650505050505050565b6060824710156138665760405162461bcd60e51b815260206004820152602660248201527f416464726573733a20696e73756666696369656e742062616c616e636520666f6044820152651c8818d85b1b60d21b6064820152608401610950565b6001600160a01b0385163b6138bd5760405162461bcd60e51b815260206004820152601d60248201527f416464726573733a2063616c6c20746f206e6f6e2d636f6e74726163740000006044820152606401610950565b600080866001600160a01b031685876040516138d99190614192565b60006040518083038185875af1925050503d8060008114613916576040519150601f19603f3d011682016040523d82523d6000602084013e61391b565b606091505b50915091506137fa828286613938565b600082611c318386613d35565b606083156139475750816108e2565b8251156139575782518084602001fd5b8160405162461bcd60e51b8152600401610950919061399d565b60005b8381101561398c578181015183820152602001613974565b8381111561244d5750506000910152565b60208152600082518060208401526139bc816040850160208701613971565b601f01601f19169190910160400192915050565b6001600160a01b038116811461163657600080fd5b600080604083850312156139f857600080fd5b8235613a03816139d0565b946020939093013593505050565b600060208284031215613a2357600080fd5b5035919050565b600080600060608486031215613a3f57600080fd5b8335613a4a816139d0565b92506020840135613a5a816139d0565b929592945050506040919091013590565b803560ff81168114613a7c57600080fd5b919050565b600080600080600060a08688031215613a9957600080fd5b8535945060208601359350613ab060408701613a6b565b94979396509394606081013594506080013592915050565b600060208284031215613ada57600080fd5b81356108e2816139d0565b60008060408385031215613af857600080fd5b8235613b03816139d0565b91506020830135613b13816139d0565b809150509250929050565b6001600160a01b0391909116815260200190565b600080600080600080600060e0888a031215613b4d57600080fd5b8735613b58816139d0565b96506020880135613b68816139d0565b95506040880135945060608801359350613b8460808901613a6b565b925060a0880135915060c0880135905092959891949750929550565b600181811c90821680613bb457607f821691505b602082108103613bd457634e487b7160e01b600052602260045260246000fd5b50919050565b634e487b7160e01b600052601160045260246000fd5b600082821015613c0257613c02613bda565b500390565b6020808252818101527f4f776e61626c653a2063616c6c6572206973206e6f7420746865206f776e6572604082015260600190565b600060208284031215613c4e57600080fd5b5051919050565b6001600160a01b03929092168252602082015260400190565b6020808252601490820152732cb0b5a9ba3930ba32b3bc9d1d37b7363ca232bb60611b604082015260600190565b600060208284031215613cae57600080fd5b815180151581146108e257600080fd5b6001600160a01b0392831681529116602082015260400190565b60008219821115613ceb57613ceb613bda565b500190565b634e487b7160e01b600052603260045260246000fd5b600060018201613d1857613d18613bda565b5060010190565b634e487b7160e01b600052603160045260246000fd5b6000816000190483118215151615613d4f57613d4f613bda565b500290565b600082613d7157634e487b7160e01b600052601260045260246000fd5b500490565b9283526001600160a01b03918216602084015216604082015260600190565b634e487b7160e01b600052604160045260246000fd5b6040516080810167ffffffffffffffff81118282101715613dce57613dce613d95565b60405290565b604051601f8201601f1916810167ffffffffffffffff81118282101715613dfd57613dfd613d95565b604052919050565b600067ffffffffffffffff821115613e1f57613e1f613d95565b5060051b60200190565b600082601f830112613e3a57600080fd5b81516020613e4f613e4a83613e05565b613dd4565b82815260059290921b84018101918181019086841115613e6e57600080fd5b8286015b84811015613e92578051613e85816139d0565b8352918301918301613e72565b509695505050505050565b60006020808385031215613eb057600080fd5b825167ffffffffffffffff80821115613ec857600080fd5b9084019060808287031215613edc57600080fd5b613ee4613dab565b825182811115613ef357600080fd5b8301601f81018813613f0457600080fd5b8051613f12613e4a82613e05565b81815260059190911b8201860190868101908a831115613f3157600080fd5b928701925b82841015613f4f57835182529287019290870190613f36565b84525050508284015182811115613f6557600080fd5b613f7188828601613e29565b85830152506040830151935081841115613f8a57600080fd5b613f9687858501613e29565b6040820152606083015160608201528094505050505092915050565b600080835481600182811c915080831680613fce57607f831692505b60208084108203613fed57634e487b7160e01b86526022600452602486fd5b81801561400157600181146140125761403f565b60ff1986168952848901965061403f565b60008a81526020902060005b868110156140375781548b82015290850190830161401e565b505084890196505b509498975050505050505050565b600081518084526020808501945080840160005b838110156140865781516001600160a01b031687529582019590820190600101614061565b509495945050505050565b60208082528251608083830152805160a0840181905260009291820190839060c08601905b808310156140d657835182529284019260019290920191908401906140b6565b50838701519350601f199250828682030160408701526140f6818561404d565b93505050604085015181858403016060860152614113838261404d565b92505050606084015160808401528091505092915050565b80516001600160701b0381168114613a7c57600080fd5b60008060006060848603121561415757600080fd5b6141608461412b565b925061416e6020850161412b565b9150604084015163ffffffff8116811461418757600080fd5b809150509250925092565b600082516141a4818460208701613971565b919091019291505056feddf252ad1be2c89b69c2b068fc378daa952ba7f163c4a11628f55a4df523b3efa2646970667358221220eadc8251641c710e65d1ac07e2c57227319cb81f271608b022a1a499485f0cb964736f6c634300080d00334f776e61626c653a2063616c6c6572206973206e6f7420746865206f776e65728be0079c531659141344cd1fd0a4f28419497f9722a3daafe3b4186f6b6457e0",
  "devdoc": {
    "kind": "dev",
    "methods": {
      "allowance(address,address)": {
        "params": {
          "account": "The address of the account holding the funds",
          "spender": "The address of the account spending the funds"
        },
        "returns": {
          "_0": "The number of tokens approved"
        }
      },
      "approve(address,uint256)": {
        "details": "This will overwrite the approval amount for `spender` and is subject to issues noted [here](https://eips.ethereum.org/EIPS/eip-20#approve) It is recommended to use increaseAllowance and decreaseAllowance instead",
        "params": {
          "amount": "The number of tokens that are approved (2^256-1 means infinite)",
          "spender": "The address of the account which may transfer tokens"
        },
        "returns": {
          "_0": "Whether or not the approval succeeded"
        }
      },
      "balanceOf(address)": {
        "params": {
          "account": "The address of the account to get the balance of"
        },
        "returns": {
          "_0": "The number of tokens held"
        }
      },
      "checkReward()": {
        "returns": {
          "_0": "reward tokens"
        }
      },
      "deposit(uint256)": {
        "params": {
          "_amount": "Amount of tokens to deposit"
        }
      },
      "depositWithPermit(uint256,uint256,uint8,bytes32,bytes32)": {
        "params": {
          "_amount": "Amount of tokens to deposit",
          "_deadline": "The time at which to expire the signature",
          "_r": "Half of the ECDSA signature pair",
          "_s": "Half of the ECDSA signature pair",
          "_v": "The recovery byte of the signature"
        }
      },
      "estimateReinvestReward()": {
        "returns": {
          "_0": "reward tokens"
        }
      },
      "getDepositTokensForShares(uint256)": {
        "params": {
          "amount": "receipt tokens"
        },
        "returns": {
          "_0": "deposit tokens"
        }
      },
      "getDomainSeparator()": {
        "returns": {
          "_0": "Separator"
        }
      },
      "getSharesForDepositTokens(uint256)": {
        "details": "If contract is empty, use 1:1 ratioCould return zero shares for very low amounts of deposit tokens",
        "params": {
          "amount": "deposit tokens"
        },
        "returns": {
          "_0": "receipt tokens"
        }
      },
      "owner()": {
        "details": "Returns the address of the current owner."
      },
      "permit(address,address,uint256,uint256,uint8,bytes32,bytes32)": {
        "params": {
          "deadline": "The time at which to expire the signature",
          "owner": "The address to approve from",
          "r": "Half of the ECDSA signature pair",
          "s": "Half of the ECDSA signature pair",
          "spender": "The address to be approved",
          "v": "The recovery byte of the signature",
          "value": "The number of tokens that are approved (2^256-1 means infinite)"
        }
      },
      "recoverERC20(address,uint256)": {
        "params": {
          "tokenAddress": "token address",
          "tokenAmount": "amount to recover"
        }
      },
      "recoverGas(uint256)": {
        "params": {
          "amount": "amount"
        }
      },
      "renounceOwnership()": {
        "details": "Leaves the contract without owner. It will not be possible to call `onlyOwner` functions anymore. Can only be called by the current owner. NOTE: Renouncing ownership will leave the contract without an owner, thereby removing any functionality that is only available to the owner."
      },
      "revokeAllowance(address,address)": {
        "params": {
          "spender": "address",
          "token": "address"
        }
      },
      "totalDeposits()": {
        "returns": {
          "_0": "total deposits available on the contract"
        }
      },
      "transfer(address,uint256)": {
        "params": {
          "amount": "The number of tokens to transfer",
          "dst": "The address of the destination account"
        },
        "returns": {
          "_0": "Whether or not the transfer succeeded"
        }
      },
      "transferFrom(address,address,uint256)": {
        "params": {
          "amount": "The number of tokens to transfer",
          "dst": "The address of the destination account",
          "src": "The address of the source account"
        },
        "returns": {
          "_0": "Whether or not the transfer succeeded"
        }
      },
      "transferOwnership(address)": {
        "details": "Transfers ownership of the contract to a new account (`newOwner`). Can only be called by the current owner."
      },
      "updateDevAddr(address)": {
        "params": {
          "newValue": "address"
        }
      },
      "updateDevFee(uint256)": {
        "params": {
          "newValue": "fee in BIPS"
        }
      },
      "updateFeeCollector(address)": {
        "params": {
          "newValue": "address"
        }
      },
      "updateMinTokensToReinvest(uint256)": {
        "params": {
          "newValue": "threshold"
        }
      },
      "updateReinvestReward(uint256)": {
        "params": {
          "newValue": "fee in BIPS"
        }
      }
    },
    "version": 1
  },
  "userdoc": {
    "kind": "user",
    "methods": {
      "allowance(address,address)": {
        "notice": "Get the number of tokens `spender` is approved to spend on behalf of `account`"
      },
      "approve(address,uint256)": {
        "notice": "Approve `spender` to transfer up to `amount` from `src`"
      },
      "balanceOf(address)": {
        "notice": "Get the number of tokens held by the `account`"
      },
      "checkReward()": {
        "notice": "Reward tokens available to strategy, including balance"
      },
      "deposit(uint256)": {
        "notice": "Deposit tokens to receive receipt tokens"
      },
      "depositWithPermit(uint256,uint256,uint8,bytes32,bytes32)": {
        "notice": "Deposit using Permit"
      },
      "disableDeposits()": {
        "notice": "Disable deposits"
      },
      "enableDeposits()": {
        "notice": "Enable deposits"
      },
      "estimateReinvestReward()": {
        "notice": "Estimate reinvest reward"
      },
      "getDepositTokensForShares(uint256)": {
        "notice": "Calculate deposit tokens for a given amount of receipt tokens"
      },
      "getDomainSeparator()": {
        "notice": "EIP-712 Domain separator"
      },
      "getSharesForDepositTokens(uint256)": {
        "notice": "Calculate receipt tokens for a given amount of deposit tokens"
      },
      "permit(address,address,uint256,uint256,uint8,bytes32,bytes32)": {
        "notice": "Triggers an approval from owner to spender"
      },
      "recoverERC20(address,uint256)": {
        "notice": "Recover ERC20 from contract"
      },
      "recoverGas(uint256)": {
        "notice": "Recover GAS from contract"
      },
      "reinvest()": {
        "notice": "Reinvest reward tokens into deposit tokens"
      },
      "revokeAllowance(address,address)": {
        "notice": "Revoke token allowance"
      },
      "totalDeposits()": {
        "notice": "This function returns a snapshot of last available quotes"
      },
      "transfer(address,uint256)": {
        "notice": "Transfer `amount` tokens from `msg.sender` to `dst`"
      },
      "transferFrom(address,address,uint256)": {
        "notice": "Transfer `amount` tokens from `src` to `dst`"
      },
      "updateDevAddr(address)": {
        "notice": "Update devAddr"
      },
      "updateDevFee(uint256)": {
        "notice": "Update developer fee"
      },
      "updateFeeCollector(address)": {
        "notice": "Update feeCollector"
      },
      "updateMinTokensToReinvest(uint256)": {
        "notice": "Update reinvest min threshold"
      },
      "updateReinvestReward(uint256)": {
        "notice": "Update reinvest reward"
      }
    },
    "version": 1
  },
  "storageLayout": {
    "storage": [
      {
        "astId": 5,
        "contract": "contracts/strategies/avalanche/blackhole/BlackholeStrategy.sol:BlackholeStrategy",
        "label": "name",
        "offset": 0,
        "slot": "0",
        "type": "t_string_storage"
      },
      {
        "astId": 8,
        "contract": "contracts/strategies/avalanche/blackhole/BlackholeStrategy.sol:BlackholeStrategy",
        "label": "symbol",
        "offset": 0,
        "slot": "1",
        "type": "t_string_storage"
      },
      {
        "astId": 13,
        "contract": "contracts/strategies/avalanche/blackhole/BlackholeStrategy.sol:BlackholeStrategy",
        "label": "totalSupply",
        "offset": 0,
        "slot": "2",
        "type": "t_uint256"
      },
      {
        "astId": 19,
        "contract": "contracts/strategies/avalanche/blackhole/BlackholeStrategy.sol:BlackholeStrategy",
        "label": "allowances",
        "offset": 0,
        "slot": "3",
        "type": "t_mapping(t_address,t_mapping(t_address,t_uint256))"
      },
      {
        "astId": 23,
        "contract": "contracts/strategies/avalanche/blackhole/BlackholeStrategy.sol:BlackholeStrategy",
        "label": "balances",
        "offset": 0,
        "slot": "4",
        "type": "t_mapping(t_address,t_uint256)"
      },
      {
        "astId": 39,
        "contract": "contracts/strategies/avalanche/blackhole/BlackholeStrategy.sol:BlackholeStrategy",
        "label": "nonces",
        "offset": 0,
        "slot": "5",
        "type": "t_mapping(t_address,t_uint256)"
      },
      {
        "astId": 1646,
        "contract": "contracts/strategies/avalanche/blackhole/BlackholeStrategy.sol:BlackholeStrategy",
        "label": "_owner",
        "offset": 0,
        "slot": "6",
        "type": "t_address"
      },
      {
        "astId": 552,
        "contract": "contracts/strategies/avalanche/blackhole/BlackholeStrategy.sol:BlackholeStrategy",
        "label": "devAddr",
        "offset": 0,
        "slot": "7",
        "type": "t_address"
      },
      {
        "astId": 554,
        "contract": "contracts/strategies/avalanche/blackhole/BlackholeStrategy.sol:BlackholeStrategy",
        "label": "feeCollector",
        "offset": 0,
        "slot": "8",
        "type": "t_address"
      },
      {
        "astId": 556,
        "contract": "contracts/strategies/avalanche/blackhole/BlackholeStrategy.sol:BlackholeStrategy",
        "label": "MIN_TOKENS_TO_REINVEST",
        "offset": 0,
        "slot": "9",
        "type": "t_uint256"
      },
      {
        "astId": 558,
        "contract": "contracts/strategies/avalanche/blackhole/BlackholeStrategy.sol:BlackholeStrategy",
        "label": "DEPOSITS_ENABLED",
        "offset": 0,
        "slot": "10",
        "type": "t_bool"
      },
      {
        "astId": 560,
        "contract": "contracts/strategies/avalanche/blackhole/BlackholeStrategy.sol:BlackholeStrategy",
        "label": "REINVEST_REWARD_BIPS",
        "offset": 0,
        "slot": "11",
        "type": "t_uint256"
      },
      {
        "astId": 562,
        "contract": "contracts/strategies/avalanche/blackhole/BlackholeStrategy.sol:BlackholeStrategy",
        "label": "DEV_FEE_BIPS",
        "offset": 0,
        "slot": "12",
        "type": "t_uint256"
      },
      {
        "astId": 2248,
        "contract": "contracts/strategies/avalanche/blackhole/BlackholeStrategy.sol:BlackholeStrategy",
        "label": "supportedRewards",
        "offset": 0,
        "slot": "13",
        "type": "t_array(t_address)dyn_storage"
      },
      {
        "astId": 2251,
        "contract": "contracts/strategies/avalanche/blackhole/BlackholeStrategy.sol:BlackholeStrategy",
        "label": "simpleRouter",
        "offset": 0,
        "slot": "14",
        "type": "t_contract(ISimpleRouter)1303"
      }
    ],
    "types": {
      "t_address": {
        "encoding": "inplace",
        "label": "address",
        "numberOfBytes": "20"
      },
      "t_array(t_address)dyn_storage": {
        "base": "t_address",
        "encoding": "dynamic_array",
        "label": "address[]",
        "numberOfBytes": "32"
      },
      "t_bool": {
        "encoding": "inplace",
        "label": "bool",
        "numberOfBytes": "1"
      },
      "t_contract(ISimpleRouter)1303": {
        "encoding": "inplace",
        "label": "contract ISimpleRouter",
        "numberOfBytes": "20"
      },
      "t_mapping(t_address,t_mapping(t_address,t_uint256))": {
        "encoding": "mapping",
        "key": "t_address",
        "label": "mapping(address => mapping(address => uint256))",
        "numberOfBytes": "32",
        "value": "t_mapping(t_address,t_uint256)"
      },
      "t_mapping(t_address,t_uint256)": {
        "encoding": "mapping",
        "key": "t_address",
        "label": "mapping(address => uint256)",
        "numberOfBytes": "32",
        "value": "t_uint256"
      },
      "t_string_storage": {
        "encoding": "bytes",
        "label": "string",
        "numberOfBytes": "32"
      },
      "t_uint256": {
        "encoding": "inplace",
        "label": "uint256",
        "numberOfBytes": "32"
      }
    }
  }
}