{
  "address": "0xbBFACD4e0091e7071b47E1A663A84Dcd78124BA3",
  "abi": [
    {
      "inputs": [
        {
          "internalType": "address",
          "name": "_gmxDepositor",
          "type": "address"
        },
        {
          "internalType": "address",
          "name": "_gmxRewardRouter",
          "type": "address"
        },
        {
          "internalType": "address",
          "name": "_gmxRewardRouterV2",
          "type": "address"
        },
        {
          "internalType": "address",
          "name": "_simpleRouter",
          "type": "address"
        },
        {
          "internalType": "uint256",
          "name": "_maxWavaxSwapAmount",
          "type": "uint256"
        },
        {
          "internalType": "uint256",
          "name": "_minFeeDifference",
          "type": "uint256"
        },
        {
          "internalType": "address",
          "name": "_devAddr",
          "type": "address"
        }
      ],
      "stateMutability": "nonpayable",
      "type": "constructor"
    },
    {
      "inputs": [
        {
          "internalType": "address",
          "name": "_strategy",
          "type": "address"
        }
      ],
      "name": "approveStrategy",
      "outputs": [],
      "stateMutability": "nonpayable",
      "type": "function"
    },
    {
      "inputs": [
        {
          "internalType": "address",
          "name": "",
          "type": "address"
        }
      ],
      "name": "approvedStrategies",
      "outputs": [
        {
          "internalType": "address",
          "name": "",
          "type": "address"
        }
      ],
      "stateMutability": "view",
      "type": "function"
    },
    {
      "inputs": [
        {
          "internalType": "uint256",
          "name": "_amount",
          "type": "uint256"
        }
      ],
      "name": "buyAndStakeGlp",
      "outputs": [
        {
          "internalType": "uint256",
          "name": "",
          "type": "uint256"
        }
      ],
      "stateMutability": "nonpayable",
      "type": "function"
    },
    {
      "inputs": [
        {
          "internalType": "address",
          "name": "rewardTracker",
          "type": "address"
        }
      ],
      "name": "claimReward",
      "outputs": [],
      "stateMutability": "nonpayable",
      "type": "function"
    },
    {
      "inputs": [],
      "name": "devAddr",
      "outputs": [
        {
          "internalType": "address",
          "name": "",
          "type": "address"
        }
      ],
      "stateMutability": "view",
      "type": "function"
    },
    {
      "inputs": [
        {
          "internalType": "uint256",
          "name": "_balance",
          "type": "uint256"
        }
      ],
      "name": "emergencyWithdrawGLP",
      "outputs": [],
      "stateMutability": "nonpayable",
      "type": "function"
    },
    {
      "inputs": [
        {
          "internalType": "uint256",
          "name": "_balance",
          "type": "uint256"
        }
      ],
      "name": "emergencyWithdrawGMX",
      "outputs": [],
      "stateMutability": "nonpayable",
      "type": "function"
    },
    {
      "inputs": [],
      "name": "glpMinter",
      "outputs": [
        {
          "internalType": "address",
          "name": "",
          "type": "address"
        }
      ],
      "stateMutability": "view",
      "type": "function"
    },
    {
      "inputs": [],
      "name": "gmxDepositor",
      "outputs": [
        {
          "internalType": "contract IGmxDepositor",
          "name": "",
          "type": "address"
        }
      ],
      "stateMutability": "view",
      "type": "function"
    },
    {
      "inputs": [],
      "name": "gmxRewardRouter",
      "outputs": [
        {
          "internalType": "address",
          "name": "",
          "type": "address"
        }
      ],
      "stateMutability": "view",
      "type": "function"
    },
    {
      "inputs": [],
      "name": "maxWavaxSwapAmount",
      "outputs": [
        {
          "internalType": "uint256",
          "name": "",
          "type": "uint256"
        }
      ],
      "stateMutability": "view",
      "type": "function"
    },
    {
      "inputs": [],
      "name": "minFeeDifference",
      "outputs": [
        {
          "internalType": "uint256",
          "name": "",
          "type": "uint256"
        }
      ],
      "stateMutability": "view",
      "type": "function"
    },
    {
      "inputs": [
        {
          "internalType": "address",
          "name": "_rewardTracker",
          "type": "address"
        }
      ],
      "name": "pendingRewards",
      "outputs": [
        {
          "internalType": "uint256",
          "name": "",
          "type": "uint256"
        }
      ],
      "stateMutability": "view",
      "type": "function"
    },
    {
      "inputs": [],
      "name": "stakeESGMX",
      "outputs": [],
      "stateMutability": "nonpayable",
      "type": "function"
    },
    {
      "inputs": [
        {
          "internalType": "uint256",
          "name": "_amount",
          "type": "uint256"
        }
      ],
      "name": "stakeGmx",
      "outputs": [],
      "stateMutability": "nonpayable",
      "type": "function"
    },
    {
      "inputs": [],
      "name": "stakedESGMX",
      "outputs": [
        {
          "internalType": "uint256",
          "name": "",
          "type": "uint256"
        }
      ],
      "stateMutability": "view",
      "type": "function"
    },
    {
      "inputs": [
        {
          "internalType": "address",
          "name": "_rewardTracker",
          "type": "address"
        }
      ],
      "name": "totalDeposits",
      "outputs": [
        {
          "internalType": "uint256",
          "name": "",
          "type": "uint256"
        }
      ],
      "stateMutability": "view",
      "type": "function"
    },
    {
      "inputs": [
        {
          "internalType": "address",
          "name": "newValue",
          "type": "address"
        }
      ],
      "name": "updateDevAddr",
      "outputs": [],
      "stateMutability": "nonpayable",
      "type": "function"
    },
    {
      "inputs": [
        {
          "internalType": "uint256",
          "name": "_maxWavaxSwapAmount",
          "type": "uint256"
        }
      ],
      "name": "updateMaxWavaxSwapAmount",
      "outputs": [],
      "stateMutability": "nonpayable",
      "type": "function"
    },
    {
      "inputs": [
        {
          "internalType": "uint256",
          "name": "_minFeeDifference",
          "type": "uint256"
        }
      ],
      "name": "updateMinFeeDifference",
      "outputs": [],
      "stateMutability": "nonpayable",
      "type": "function"
    },
    {
      "inputs": [
        {
          "internalType": "uint256",
          "name": "_amount",
          "type": "uint256"
        }
      ],
      "name": "withdrawGlp",
      "outputs": [],
      "stateMutability": "nonpayable",
      "type": "function"
    },
    {
      "inputs": [
        {
          "internalType": "uint256",
          "name": "_amount",
          "type": "uint256"
        }
      ],
      "name": "withdrawGmx",
      "outputs": [],
      "stateMutability": "nonpayable",
      "type": "function"
    }
  ],
  "transactionHash": "0xd49143bc80858d1a965316f6714932d6d59a46a8bc94833dbd28f6dbac203549",
  "args": [
    "0x565d72A63d3dc4a2F3Dd7609Fd85c4FD394523B2",
    "0x091eD806490Cc58Fd514441499e58984cCce0630",
    "0xB70B91CE0771d3f4c81D87660f71Da31d48eB3B3",
    "0x959a0af5A46F76AA37317BC417D48B445658B188",
    "100000000000000000000",
    "15",
    "0xea3e895b0696e161c68486ee2f85e6cc6ef962d0"
  ],
  "solcInputHash": "eb47cb197f441b93708e3a78b7cbb872",
  "bytecode": "0x6101a06040523480156200001257600080fd5b506040516200344f3803806200344f83398101604081905262000035916200043a565b6001600160a01b038716620000a65760405162461bcd60e51b815260206004820152602c60248201527f476d7850726f78793a3a496e76616c6964206465706f7369746f72206164647260448201526b195cdcc81c1c9bdd9a59195960a21b60648201526084015b60405180910390fd5b6001600160a01b038616620001175760405162461bcd60e51b815260206004820152603060248201527f476d7850726f78793a3a496e76616c69642072657761726420726f757465722060448201526f1859191c995cdcc81c1c9bdd9a59195960821b60648201526084016200009d565b6001600160a01b0381166200017e5760405162461bcd60e51b815260206004820152602660248201527f476d7850726f78793a3a496e76616c69642064657620616464726573732070726044820152651bdd9a59195960d21b60648201526084016200009d565b600080546001600160a01b0319166001600160a01b038381169190911790915587811660805286811660a081905290861660c0526040805163067200c560e11b81529051630ce4018a916004808201926020929091908290030181865afa158015620001ee573d6000803e3d6000fd5b505050506040513d601f19601f82011682018060405250810190620002149190620004ce565b6001600160a01b031660e0816001600160a01b031681525050846001600160a01b031663fa6db1bc6040518163ffffffff1660e01b8152600401602060405180830381865afa1580156200026c573d6000803e3d6000fd5b505050506040513d601f19601f82011682018060405250810190620002929190620004ce565b6001600160a01b03166101008190526040805163fbfa77cf60e01b8152905163fbfa77cf916004808201926020929091908290030181865afa158015620002dd573d6000803e3d6000fd5b505050506040513d601f19601f82011682018060405250810190620003039190620004ce565b6001600160a01b03166101208190526040805163f5b91b7b60e01b8152905163f5b91b7b916004808201926020929091908290030181865afa1580156200034e573d6000803e3d6000fd5b505050506040513d601f19601f82011682018060405250810190620003749190620004ce565b6001600160a01b0316610160816001600160a01b031681525050610120516001600160a01b0316636abbe0c86040518163ffffffff1660e01b8152600401602060405180830381865afa158015620003d0573d6000803e3d6000fd5b505050506040513d601f19601f82011682018060405250810190620003f69190620004ce565b6001600160a01b0390811661014052939093166101805260029190915560035550620004f592505050565b6001600160a01b03811681146200043757600080fd5b50565b600080600080600080600060e0888a0312156200045657600080fd5b8751620004638162000421565b6020890151909750620004768162000421565b6040890151909650620004898162000421565b60608901519095506200049c8162000421565b809450506080880151925060a0880151915060c0880151620004be8162000421565b8091505092959891949750929550565b600060208284031215620004e157600080fd5b8151620004ee8162000421565b9392505050565b60805160a05160c05160e0516101005161012051610140516101605161018051612dc36200068c6000396000818161100e015281816110960152818161113f0152818161171e015281816117dc015261183301526000612298015260008181610d310152610f08015260008181610c3a01528181610daa01528181610e69015281816121c8015281816122c30152818161236e0152612417015260008181611201015261136e015260008181611a5601528181611e510152611f5f0152600081816101da01526112c7015260008181610277015281816103ed015281816104ff0152818161062f015281816114ae0152818161158c01528181611bb601528181611ea8015261209001526000818161018c015281816103c2015281816104cf015281816105ba015281816106c6015281816111cf0152818161126e01528181611339015281816115fe0152818161163e01528181611899015281816118da015281816119ca01528181611a1101528181611c4d01528181611cfc01528181611e1f01528181611f2901526121110152612dc36000f3fe608060405234801561001057600080fd5b50600436106101825760003560e01c8063affc0a95116100d8578063d28cd38a1161008c578063e404251211610066578063e40425121461031f578063e940325614610332578063f3daeacc1461034557600080fd5b8063d28cd38a146102fb578063d79c019614610303578063da09c72c1461030c57600080fd5b8063c10300f7116100bd578063c10300f714610230578063c613aec0146102bf578063d279c191146102e857600080fd5b8063affc0a9514610299578063bf4d14d5146102ac57600080fd5b8063566155291161013a57806367860cce1161011457806367860cce146102435780639291d5631461025f5780639d54b5241461027257600080fd5b806356615529146102305780635c72f4b514610243578063653bfa201461025657600080fd5b806328495daa1161016b57806328495daa146101d557806331d7a262146101fc5780633b8ae3971461021d57600080fd5b8063026879dc1461018757806311ff5fff146101cb575b600080fd5b6101ae7f000000000000000000000000000000000000000000000000000000000000000081565b6040516001600160a01b0390911681526020015b60405180910390f35b6101d3610358565b005b6101ae7f000000000000000000000000000000000000000000000000000000000000000081565b61020f61020a3660046127e3565b6104fa565b6040519081526020016101c2565b6101d361022b3660046127e3565b61074c565b6101d361023e366004612800565b6108cc565b6101d3610251366004612800565b61096b565b61020f60025481565b6101d361026d3660046127e3565b610a0a565b6101ae7f000000000000000000000000000000000000000000000000000000000000000081565b6101d36102a7366004612800565b610b03565b61020f6102ba366004612800565b610b56565b6101ae6102cd3660046127e3565b6001602052600090815260409020546001600160a01b031681565b6101d36102f63660046127e3565b6113c3565b61020f6119fa565b61020f60035481565b6000546101ae906001600160a01b031681565b6101d361032d366004612800565b611ac8565b61020f6103403660046127e3565b611b1b565b6101d3610353366004612800565b611d6f565b6000546001600160a01b031633146103ab5760405162461bcd60e51b815260206004820152601160248201527023b6bc283937bc3c9d1d37b7363ca232bb60791b60448201526064015b60405180910390fd5b6040516370a0823160e01b81526001600160a01b037f00000000000000000000000000000000000000000000000000000000000000001660048201526104f7907f00000000000000000000000000000000000000000000000000000000000000009060009073ff1489227bbaac61a9209a08929e4c2a526ddd17906370a0823190602401602060405180830381865afa15801561044c573d6000803e3d6000fd5b505050506040513d601f19601f820116820180604052508101906104709190612819565b60405160240161048291815260200190565b60408051601f198184030181529190526020810180516001600160e01b03167fef8c5994000000000000000000000000000000000000000000000000000000001790526001600160a01b037f000000000000000000000000000000000000000000000000000000000000000016929190611fb4565b50565b6000807f00000000000000000000000000000000000000000000000000000000000000006001600160a01b03166351c3e3b46040518163ffffffff1660e01b8152600401602060405180830381865afa15801561055b573d6000803e3d6000fd5b505050506040513d601f19601f8201168201806040525081019061057f9190612832565b9050806001600160a01b0316836001600160a01b0316036105a35750600092915050565b60405163402914f560e01b81526001600160a01b037f00000000000000000000000000000000000000000000000000000000000000008116600483015282169063402914f590602401602060405180830381865afa158015610609573d6000803e3d6000fd5b505050506040513d601f19601f8201168201806040525081019061062d9190612819565b7f00000000000000000000000000000000000000000000000000000000000000006001600160a01b031663e1c363b76040518163ffffffff1660e01b8152600401602060405180830381865afa15801561068b573d6000803e3d6000fd5b505050506040513d601f19601f820116820180604052508101906106af9190612832565b60405163402914f560e01b81526001600160a01b037f000000000000000000000000000000000000000000000000000000000000000081166004830152919091169063402914f590602401602060405180830381865afa158015610717573d6000803e3d6000fd5b505050506040513d601f19601f8201168201806040525081019061073b9190612819565b6107459190612865565b9392505050565b6000546001600160a01b0316331461079a5760405162461bcd60e51b815260206004820152601160248201527023b6bc283937bc3c9d1d37b7363ca232bb60791b60448201526064016103a2565b6000816001600160a01b031663c89039c56040518163ffffffff1660e01b8152600401602060405180830381865afa1580156107da573d6000803e3d6000fd5b505050506040513d601f19601f820116820180604052508101906107fe9190612832565b6001600160a01b03808216600090815260016020526040902054919250161561088f5760405162461bcd60e51b815260206004820152603260248201527f476d7850726f78793a3a537472617465677920666f72206465706f736974207460448201527f6f6b656e20616c7265616479206164646564000000000000000000000000000060648201526084016103a2565b6001600160a01b03908116600090815260016020526040902080549190921673ffffffffffffffffffffffffffffffffffffffff19909116179055565b7362edc0692bd897d2295872a9ffcac5425011c66160005260016020527fd9b87995a89b1c84b4bab64e3cd6e44e97280b5a5983d834af443d8e17a7f9b9546001600160a01b031633146109625760405162461bcd60e51b815260206004820152601960248201527f476d7850726f78793a3a6f6e6c79474d5853747261746567790000000000000060448201526064016103a2565b6104f78161208b565b735643f4b25e36478ee1e90418d5343cb6591bcb9d60005260016020527f4c252107cf1470690ef2505b089a8ebb4870160623fd1d6a4afa8513ed4add90546001600160a01b03163314610a015760405162461bcd60e51b815260206004820152601860248201527f476d7850726f78793a6f6e6c79474c505374726174656779000000000000000060448201526064016103a2565b6104f78161216f565b6000546001600160a01b03163314610a585760405162461bcd60e51b815260206004820152601160248201527023b6bc283937bc3c9d1d37b7363ca232bb60791b60448201526064016103a2565b6001600160a01b038116610ad45760405162461bcd60e51b815260206004820152602660248201527f476d7850726f78793a3a496e76616c696420646576206164647265737320707260448201527f6f7669646564000000000000000000000000000000000000000000000000000060648201526084016103a2565b6000805473ffffffffffffffffffffffffffffffffffffffff19166001600160a01b0392909216919091179055565b6000546001600160a01b03163314610b515760405162461bcd60e51b815260206004820152601160248201527023b6bc283937bc3c9d1d37b7363ca232bb60791b60448201526064016103a2565b600355565b735643f4b25e36478ee1e90418d5343cb6591bcb9d600090815260016020527f4c252107cf1470690ef2505b089a8ebb4870160623fd1d6a4afa8513ed4add90546001600160a01b03163314610bee5760405162461bcd60e51b815260206004820152601860248201527f476d7850726f78793a6f6e6c79474c505374726174656779000000000000000060448201526064016103a2565b60025473b31f66aa3c1e785363f0875a1b74e27b85fd66c7908310156111c0576040516340d3096b60e11b815273b31f66aa3c1e785363f0875a1b74e27b85fd66c760048201526000907f00000000000000000000000000000000000000000000000000000000000000006001600160a01b0316906381a612d690602401602060405180830381865afa158015610c89573d6000803e3d6000fd5b505050506040513d601f19601f82011682018060405250810190610cad9190612819565b905060006c0c9f2c9cd04674edea40000000610cc9838761287d565b610cd3919061289c565b90506000610cf573b31f66aa3c1e785363f0875a1b74e27b85fd66c7876121a4565b610d0157600019610da4565b60405163256f6ee360e11b815273b31f66aa3c1e785363f0875a1b74e27b85fd66c76004820152602481018390527f00000000000000000000000000000000000000000000000000000000000000006001600160a01b031690634adeddc690604401602060405180830381865afa158015610d80573d6000803e3d6000fd5b505050506040513d601f19601f82011682018060405250810190610da49190612819565b905060007f00000000000000000000000000000000000000000000000000000000000000006001600160a01b0316630842b0766040518163ffffffff1660e01b8152600401602060405180830381865afa158015610e06573d6000803e3d6000fd5b505050506040513d601f19601f82011682018060405250810190610e2a9190612819565b905060005b81811015610fa6576040517fe468baf0000000000000000000000000000000000000000000000000000000008152600481018290526000907f00000000000000000000000000000000000000000000000000000000000000006001600160a01b03169063e468baf090602401602060405180830381865afa158015610eb8573d6000803e3d6000fd5b505050506040513d601f19601f82011682018060405250810190610edc9190612832565b60405163256f6ee360e11b81526001600160a01b038083166004830152602482018890529192506000917f00000000000000000000000000000000000000000000000000000000000000001690634adeddc690604401602060405180830381865afa158015610f4f573d6000803e3d6000fd5b505050506040513d601f19601f82011682018060405250810190610f739190612819565b90508460035482610f849190612865565b1015610f91578094508197505b50508080610f9e906128be565b915050610e2f565b506001600160a01b03851673b31f66aa3c1e785363f0875a1b74e27b85fd66c7146111bb576040516377ccc49d60e11b81526004810188905273b31f66aa3c1e785363f0875a1b74e27b85fd66c760248201526001600160a01b0386811660448301526000917f00000000000000000000000000000000000000000000000000000000000000009091169063ef99893a90606401600060405180830381865afa158015611057573d6000803e3d6000fd5b505050506040513d6000823e601f3d908101601f1916820160405261107f91908101906129df565b60405163095ea7b360e01b81526001600160a01b037f0000000000000000000000000000000000000000000000000000000000000000166004820152602481018a905290915073b31f66aa3c1e785363f0875a1b74e27b85fd66c79063095ea7b3906044016020604051808303816000875af1158015611103573d6000803e3d6000fd5b505050506040513d601f19601f820116820180604052508101906111279190612b04565b50604051632d92330b60e11b81526001600160a01b037f00000000000000000000000000000000000000000000000000000000000000001690635b24661690611174908490600401612b63565b6020604051808303816000875af1158015611193573d6000803e3d6000fd5b505050506040513d601f19601f820116820180604052508101906111b79190612819565b9750505b505050505b6111f46001600160a01b0382167f0000000000000000000000000000000000000000000000000000000000000000856124a4565b6040516001600160a01b037f0000000000000000000000000000000000000000000000000000000000000000166024820152604481018490526112969082906000906064015b60408051601f198184030181529190526020810180516001600160e01b031663095ea7b360e01b1790526001600160a01b037f000000000000000000000000000000000000000000000000000000000000000016929190611fb4565b506040516001600160a01b0382166024820152604481018490526000606482018190526084820181905290611361907f000000000000000000000000000000000000000000000000000000000000000090839060a40160408051601f198184030181529190526020810180516001600160e01b03167f364e2311000000000000000000000000000000000000000000000000000000001790526001600160a01b037f000000000000000000000000000000000000000000000000000000000000000016929190611fb4565b6040516001600160a01b037f00000000000000000000000000000000000000000000000000000000000000001660248201526000604482018190529192506113ad91849160640161123a565b506113b98160006124fb565b925050505b919050565b735643f4b25e36478ee1e90418d5343cb6591bcb9d60005260016020527f4c252107cf1470690ef2505b089a8ebb4870160623fd1d6a4afa8513ed4add90546001600160a01b031633148061145e57507362edc0692bd897d2295872a9ffcac5425011c66160005260016020527fd9b87995a89b1c84b4bab64e3cd6e44e97280b5a5983d834af443d8e17a7f9b9546001600160a01b031633145b6114aa5760405162461bcd60e51b815260206004820152601860248201527f476d7850726f78793a6f6e6c79474c505374726174656779000000000000000060448201526064016103a2565b60007f00000000000000000000000000000000000000000000000000000000000000006001600160a01b03166351c3e3b46040518163ffffffff1660e01b8152600401602060405180830381865afa15801561150a573d6000803e3d6000fd5b505050506040513d601f19601f8201168201806040525081019061152e9190612832565b9050806001600160a01b0316826001600160a01b03160361154d575050565b604051600160248201819052600060448301819052606483018290526084830182905260a4830182905260c483019190915260e48201819052611626917f000000000000000000000000000000000000000000000000000000000000000091906101040160408051601f198184030181529190526020810180516001600160e01b03167f30b70002000000000000000000000000000000000000000000000000000000001790526001600160a01b037f000000000000000000000000000000000000000000000000000000000000000016929190611fb4565b506040516370a0823160e01b81526001600160a01b037f00000000000000000000000000000000000000000000000000000000000000001660048201526000907362edc0692bd897d2295872a9ffcac5425011c661906370a0823190602401602060405180830381865afa1580156116a2573d6000803e3d6000fd5b505050506040513d601f19601f820116820180604052508101906116c69190612819565b6040516377ccc49d60e11b8152600481018290527362edc0692bd897d2295872a9ffcac5425011c661602482015273b31f66aa3c1e785363f0875a1b74e27b85fd66c760448201529091506000906001600160a01b037f0000000000000000000000000000000000000000000000000000000000000000169063ef99893a90606401600060405180830381865afa158015611765573d6000803e3d6000fd5b505050506040513d6000823e601f3d908101601f1916820160405261178d91908101906129df565b805151909150158015906117ca575080518051600091906117b090600190612bfd565b815181106117c0576117c0612c14565b6020026020010151115b156118c3576040516001600160a01b037f00000000000000000000000000000000000000000000000000000000000000001660248201526044810183905261182d907362edc0692bd897d2295872a9ffcac5425011c6619060009060640161123a565b506118c17f00000000000000000000000000000000000000000000000000000000000000006000836040516024016118659190612b63565b60408051601f198184030181529190526020810180516001600160e01b0316632d92330b60e11b1790526001600160a01b037f000000000000000000000000000000000000000000000000000000000000000016929190611fb4565b505b6040516370a0823160e01b81526001600160a01b037f000000000000000000000000000000000000000000000000000000000000000016600482015260009073b31f66aa3c1e785363f0875a1b74e27b85fd66c7906370a0823190602401602060405180830381865afa15801561193e573d6000803e3d6000fd5b505050506040513d601f19601f820116820180604052508101906119629190612819565b604051336024820152604481018290529091506119f29073b31f66aa3c1e785363f0875a1b74e27b85fd66c7906000906064015b60408051601f198184030181529190526020810180516001600160e01b031663a9059cbb60e01b1790526001600160a01b037f000000000000000000000000000000000000000000000000000000000000000016929190611fb4565b505050505050565b604051637aeceb1f60e11b81526001600160a01b037f00000000000000000000000000000000000000000000000000000000000000008116600483015273ff1489227bbaac61a9209a08929e4c2a526ddd1760248301526000917f00000000000000000000000000000000000000000000000000000000000000009091169063f5d9d63e90604401602060405180830381865afa158015611a9f573d6000803e3d6000fd5b505050506040513d601f19601f82011682018060405250810190611ac39190612819565b905090565b6000546001600160a01b03163314611b165760405162461bcd60e51b815260206004820152601160248201527023b6bc283937bc3c9d1d37b7363ca232bb60791b60448201526064016103a2565b600255565b600080336001600160a01b031663c89039c56040518163ffffffff1660e01b8152600401602060405180830381865afa158015611b5c573d6000803e3d6000fd5b505050506040513d601f19601f82011682018060405250810190611b809190612832565b90507fffffffffffffffffffffffff9d123f96d427682dd6a78d5600353abdafee399f6001600160a01b03821601611ccc5760007f00000000000000000000000000000000000000000000000000000000000000006001600160a01b0316630ce4018a6040518163ffffffff1660e01b8152600401602060405180830381865afa158015611c12573d6000803e3d6000fd5b505050506040513d601f19601f82011682018060405250810190611c369190612832565b604051637aeceb1f60e11b81526001600160a01b037f00000000000000000000000000000000000000000000000000000000000000008116600483015284811660248301529192509082169063f5d9d63e90604401602060405180830381865afa158015611ca8573d6000803e3d6000fd5b505050506040513d601f19601f820116820180604052508101906113b99190612819565b6040517f10c1c1030000000000000000000000000000000000000000000000000000000081526001600160a01b037f0000000000000000000000000000000000000000000000000000000000000000811660048301528416906310c1c10390602401602060405180830381865afa158015611d4b573d6000803e3d6000fd5b505050506040513d601f19601f820116820180604052508101906107459190612819565b7362edc0692bd897d2295872a9ffcac5425011c66160005260016020527fd9b87995a89b1c84b4bab64e3cd6e44e97280b5a5983d834af443d8e17a7f9b9546001600160a01b03163314611e055760405162461bcd60e51b815260206004820152601960248201527f476d7850726f78793a3a6f6e6c79474d5853747261746567790000000000000060448201526064016103a2565b611e447362edc0692bd897d2295872a9ffcac5425011c6617f0000000000000000000000000000000000000000000000000000000000000000836124a4565b6040516001600160a01b037f000000000000000000000000000000000000000000000000000000000000000016602482015260448101829052611ea2907362edc0692bd897d2295872a9ffcac5425011c6619060009060640161123a565b50611f517f0000000000000000000000000000000000000000000000000000000000000000600083604051602401611edc91815260200190565b60408051601f198184030181529190526020810180516001600160e01b03167ff3daeacc000000000000000000000000000000000000000000000000000000001790526001600160a01b037f000000000000000000000000000000000000000000000000000000000000000016929190611fb4565b506040516001600160a01b037f0000000000000000000000000000000000000000000000000000000000000000166024820152600060448201819052611fb0917362edc0692bd897d2295872a9ffcac5425011c661919060640161123a565b5050565b6060600080866001600160a01b031663b61d27f68787876040518463ffffffff1660e01b8152600401611fe993929190612c86565b6000604051808303816000875af1158015612008573d6000803e3d6000fd5b505050506040513d6000823e601f3d908101601f191682016040526120309190810190612cb7565b91509150816120815760405162461bcd60e51b815260206004820152601c60248201527f476d7850726f78793a3a7361666545786563757465206661696c65640000000060448201526064016103a2565b9695505050505050565b6121397f00000000000000000000000000000000000000000000000000000000000000006000836040516024016120c491815260200190565b60408051601f198184030181529190526020810180516001600160e01b03167f078580d2000000000000000000000000000000000000000000000000000000001790526001600160a01b037f000000000000000000000000000000000000000000000000000000000000000016929190611fb4565b5060405133602482015260448101829052611fb0907362edc0692bd897d2295872a9ffcac5425011c66190600090606401611996565b60405133602482015260448101829052611fb090735643f4b25e36478ee1e90418d5343cb6591bcb9d90600090606401611996565b6040516340d3096b60e11b81526001600160a01b03838116600483015260009182917f000000000000000000000000000000000000000000000000000000000000000016906381a612d690602401602060405180830381865afa15801561220f573d6000803e3d6000fd5b505050506040513d601f19601f820116820180604052508101906122339190612819565b905060006c0c9f2c9cd04674edea4000000061224f838661287d565b612259919061289c565b6040517f42152873000000000000000000000000000000000000000000000000000000008152600481018290526001600160a01b0387811660248301527f0000000000000000000000000000000000000000000000000000000000000000811660448301529192507f000000000000000000000000000000000000000000000000000000000000000090911690634215287390606401602060405180830381865afa15801561230c573d6000803e3d6000fd5b505050506040513d601f19601f820116820180604052508101906123309190612819565b6040517f1aa4ace50000000000000000000000000000000000000000000000000000000081526001600160a01b0387811660048301529192506000917f00000000000000000000000000000000000000000000000000000000000000001690631aa4ace590602401602060405180830381865afa1580156123b5573d6000803e3d6000fd5b505050506040513d601f19601f820116820180604052508101906123d99190612819565b6040517fad1e4f8d0000000000000000000000000000000000000000000000000000000081526001600160a01b0388811660048301529192506000917f0000000000000000000000000000000000000000000000000000000000000000169063ad1e4f8d90602401602060405180830381865afa15801561245e573d6000803e3d6000fd5b505050506040513d601f19601f820116820180604052508101906124829190612819565b90508015806124995750806124978484612865565b105b979650505050505050565b604080516001600160a01b038416602482015260448082018490528251808303909101815260649091019091526020810180516001600160e01b031663a9059cbb60e01b1790526124f6908490612561565b505050565b6000612508826020612865565b835110156125585760405162461bcd60e51b815260206004820152601560248201527f746f55696e743235365f6f75744f66426f756e6473000000000000000000000060448201526064016103a2565b50016020015190565b60006125b6826040518060400160405280602081526020017f5361666545524332303a206c6f772d6c6576656c2063616c6c206661696c6564815250856001600160a01b03166126469092919063ffffffff16565b8051909150156124f657808060200190518101906125d49190612b04565b6124f65760405162461bcd60e51b815260206004820152602a60248201527f5361666545524332303a204552433230206f7065726174696f6e20646964206e60448201527f6f7420737563636565640000000000000000000000000000000000000000000060648201526084016103a2565b6060612655848460008561265d565b949350505050565b6060824710156126d55760405162461bcd60e51b815260206004820152602660248201527f416464726573733a20696e73756666696369656e742062616c616e636520666f60448201527f722063616c6c000000000000000000000000000000000000000000000000000060648201526084016103a2565b6001600160a01b0385163b61272c5760405162461bcd60e51b815260206004820152601d60248201527f416464726573733a2063616c6c20746f206e6f6e2d636f6e747261637400000060448201526064016103a2565b600080866001600160a01b031685876040516127489190612d5e565b60006040518083038185875af1925050503d8060008114612785576040519150601f19603f3d011682016040523d82523d6000602084013e61278a565b606091505b5091509150612499828286606083156127a4575081610745565b8251156127b45782518084602001fd5b8160405162461bcd60e51b81526004016103a29190612d7a565b6001600160a01b03811681146104f757600080fd5b6000602082840312156127f557600080fd5b8135610745816127ce565b60006020828403121561281257600080fd5b5035919050565b60006020828403121561282b57600080fd5b5051919050565b60006020828403121561284457600080fd5b8151610745816127ce565b634e487b7160e01b600052601160045260246000fd5b600082198211156128785761287861284f565b500190565b60008160001904831182151516156128975761289761284f565b500290565b6000826128b957634e487b7160e01b600052601260045260246000fd5b500490565b6000600182016128d0576128d061284f565b5060010190565b634e487b7160e01b600052604160045260246000fd5b6040516080810167ffffffffffffffff81118282101715612910576129106128d7565b60405290565b604051601f8201601f1916810167ffffffffffffffff8111828210171561293f5761293f6128d7565b604052919050565b600067ffffffffffffffff821115612961576129616128d7565b5060051b60200190565b600082601f83011261297c57600080fd5b8151602061299161298c83612947565b612916565b82815260059290921b840181019181810190868411156129b057600080fd5b8286015b848110156129d45780516129c7816127ce565b83529183019183016129b4565b509695505050505050565b600060208083850312156129f257600080fd5b825167ffffffffffffffff80821115612a0a57600080fd5b9084019060808287031215612a1e57600080fd5b612a266128ed565b825182811115612a3557600080fd5b8301601f81018813612a4657600080fd5b8051612a5461298c82612947565b81815260059190911b8201860190868101908a831115612a7357600080fd5b928701925b82841015612a9157835182529287019290870190612a78565b84525050508284015182811115612aa757600080fd5b612ab38882860161296b565b85830152506040830151935081841115612acc57600080fd5b612ad88785850161296b565b6040820152606083015160608201528094505050505092915050565b805180151581146113be57600080fd5b600060208284031215612b1657600080fd5b61074582612af4565b600081518084526020808501945080840160005b83811015612b585781516001600160a01b031687529582019590820190600101612b33565b509495945050505050565b60208082528251608083830152805160a0840181905260009291820190839060c08601905b80831015612ba85783518252928401926001929092019190840190612b88565b50838701519350601f19925082868203016040870152612bc88185612b1f565b93505050604085015181858403016060860152612be58382612b1f565b92505050606084015160808401528091505092915050565b600082821015612c0f57612c0f61284f565b500390565b634e487b7160e01b600052603260045260246000fd5b60005b83811015612c45578181015183820152602001612c2d565b83811115612c54576000848401525b50505050565b60008151808452612c72816020860160208601612c2a565b601f01601f19169290920160200192915050565b6001600160a01b0384168152826020820152606060408201526000612cae6060830184612c5a565b95945050505050565b60008060408385031215612cca57600080fd5b612cd383612af4565b9150602083015167ffffffffffffffff80821115612cf057600080fd5b818501915085601f830112612d0457600080fd5b815181811115612d1657612d166128d7565b612d29601f8201601f1916602001612916565b9150808252866020828501011115612d4057600080fd5b612d51816020840160208601612c2a565b5080925050509250929050565b60008251612d70818460208701612c2a565b9190910192915050565b6020815260006107456020830184612c5a56fea2646970667358221220ffe169f85e5762dbec7decf8f7c1b8ae239a14da152835e883acc4b8de7cabe864736f6c634300080d0033",
  "devdoc": {
    "kind": "dev",
    "methods": {},
    "version": 1
  },
  "userdoc": {
    "kind": "user",
    "methods": {},
    "version": 1
  },
  "storageLayout": {
    "storage": [
      {
        "astId": 1323,
        "contract": "contracts/strategies/avalanche/gmx/GmxProxy.sol:GmxProxy",
        "label": "devAddr",
        "offset": 0,
        "slot": "0",
        "type": "t_address"
      },
      {
        "astId": 1327,
        "contract": "contracts/strategies/avalanche/gmx/GmxProxy.sol:GmxProxy",
        "label": "approvedStrategies",
        "offset": 0,
        "slot": "1",
        "type": "t_mapping(t_address,t_address)"
      },
      {
        "astId": 1351,
        "contract": "contracts/strategies/avalanche/gmx/GmxProxy.sol:GmxProxy",
        "label": "maxWavaxSwapAmount",
        "offset": 0,
        "slot": "2",
        "type": "t_uint256"
      },
      {
        "astId": 1353,
        "contract": "contracts/strategies/avalanche/gmx/GmxProxy.sol:GmxProxy",
        "label": "minFeeDifference",
        "offset": 0,
        "slot": "3",
        "type": "t_uint256"
      }
    ],
    "types": {
      "t_address": {
        "encoding": "inplace",
        "label": "address",
        "numberOfBytes": "20"
      },
      "t_mapping(t_address,t_address)": {
        "encoding": "mapping",
        "key": "t_address",
        "label": "mapping(address => address)",
        "numberOfBytes": "32",
        "value": "t_address"
      },
      "t_uint256": {
        "encoding": "inplace",
        "label": "uint256",
        "numberOfBytes": "32"
      }
    }
  }
}