{
  "address": "0xd4115AcbA023F5513c1be4c3fd49f38E6028ee2A",
  "abi": [
    {
      "inputs": [
        {
          "internalType": "address",
          "name": "_gmxDepositor",
          "type": "address"
        },
        {
          "internalType": "address",
          "name": "_gmxRewardRouter",
          "type": "address"
        },
        {
          "internalType": "address",
          "name": "_gmxRewardRouterV2",
          "type": "address"
        },
        {
          "internalType": "address",
          "name": "_devAddr",
          "type": "address"
        }
      ],
      "stateMutability": "nonpayable",
      "type": "constructor"
    },
    {
      "inputs": [
        {
          "internalType": "address",
          "name": "_strategy",
          "type": "address"
        }
      ],
      "name": "approveStrategy",
      "outputs": [],
      "stateMutability": "nonpayable",
      "type": "function"
    },
    {
      "inputs": [
        {
          "internalType": "address",
          "name": "",
          "type": "address"
        }
      ],
      "name": "approvedStrategies",
      "outputs": [
        {
          "internalType": "address",
          "name": "",
          "type": "address"
        }
      ],
      "stateMutability": "view",
      "type": "function"
    },
    {
      "inputs": [
        {
          "internalType": "uint256",
          "name": "_amount",
          "type": "uint256"
        }
      ],
      "name": "buyAndStakeGlp",
      "outputs": [
        {
          "internalType": "uint256",
          "name": "",
          "type": "uint256"
        }
      ],
      "stateMutability": "nonpayable",
      "type": "function"
    },
    {
      "inputs": [
        {
          "internalType": "address",
          "name": "rewardTracker",
          "type": "address"
        }
      ],
      "name": "claimReward",
      "outputs": [],
      "stateMutability": "nonpayable",
      "type": "function"
    },
    {
      "inputs": [],
      "name": "devAddr",
      "outputs": [
        {
          "internalType": "address",
          "name": "",
          "type": "address"
        }
      ],
      "stateMutability": "view",
      "type": "function"
    },
    {
      "inputs": [
        {
          "internalType": "uint256",
          "name": "_balance",
          "type": "uint256"
        }
      ],
      "name": "emergencyWithdrawGLP",
      "outputs": [],
      "stateMutability": "nonpayable",
      "type": "function"
    },
    {
      "inputs": [
        {
          "internalType": "uint256",
          "name": "_balance",
          "type": "uint256"
        }
      ],
      "name": "emergencyWithdrawGMX",
      "outputs": [],
      "stateMutability": "nonpayable",
      "type": "function"
    },
    {
      "inputs": [],
      "name": "glpMinter",
      "outputs": [
        {
          "internalType": "address",
          "name": "",
          "type": "address"
        }
      ],
      "stateMutability": "view",
      "type": "function"
    },
    {
      "inputs": [],
      "name": "gmxDepositor",
      "outputs": [
        {
          "internalType": "contract IGmxDepositor",
          "name": "",
          "type": "address"
        }
      ],
      "stateMutability": "view",
      "type": "function"
    },
    {
      "inputs": [],
      "name": "gmxRewardRouter",
      "outputs": [
        {
          "internalType": "address",
          "name": "",
          "type": "address"
        }
      ],
      "stateMutability": "view",
      "type": "function"
    },
    {
      "inputs": [
        {
          "internalType": "address",
          "name": "_rewardTracker",
          "type": "address"
        }
      ],
      "name": "pendingRewards",
      "outputs": [
        {
          "internalType": "uint256",
          "name": "",
          "type": "uint256"
        }
      ],
      "stateMutability": "view",
      "type": "function"
    },
    {
      "inputs": [
        {
          "internalType": "uint256",
          "name": "_amount",
          "type": "uint256"
        }
      ],
      "name": "stakeGmx",
      "outputs": [],
      "stateMutability": "nonpayable",
      "type": "function"
    },
    {
      "inputs": [
        {
          "internalType": "address",
          "name": "_rewardTracker",
          "type": "address"
        }
      ],
      "name": "totalDeposits",
      "outputs": [
        {
          "internalType": "uint256",
          "name": "",
          "type": "uint256"
        }
      ],
      "stateMutability": "view",
      "type": "function"
    },
    {
      "inputs": [
        {
          "internalType": "address",
          "name": "newValue",
          "type": "address"
        }
      ],
      "name": "updateDevAddr",
      "outputs": [],
      "stateMutability": "nonpayable",
      "type": "function"
    },
    {
      "inputs": [
        {
          "internalType": "uint256",
          "name": "_amount",
          "type": "uint256"
        }
      ],
      "name": "withdrawGlp",
      "outputs": [],
      "stateMutability": "nonpayable",
      "type": "function"
    },
    {
      "inputs": [
        {
          "internalType": "uint256",
          "name": "_amount",
          "type": "uint256"
        }
      ],
      "name": "withdrawGmx",
      "outputs": [],
      "stateMutability": "nonpayable",
      "type": "function"
    }
  ],
  "transactionHash": "0x9cdd8dc7cc104ff33d6887f1f6eac2c8f9a23e43e29634839c7cde2b73795fba",
  "args": [
    "0x565d72A63d3dc4a2F3Dd7609Fd85c4FD394523B2",
    "0x82147C5A7E850eA4E28155DF107F2590fD4ba327",
    "0xB70B91CE0771d3f4c81D87660f71Da31d48eB3B3",
    "0xea3e895b0696e161c68486ee2f85e6cc6ef962d0"
  ],
  "solcInputHash": "51540115abce4625794686f0030361cb",
  "bytecode": "0x6101206040523480156200001257600080fd5b5060405162001f7838038062001f788339810160408190526200003591620002c7565b6001600160a01b038416620000a65760405162461bcd60e51b815260206004820152602c60248201527f476d7850726f78793a3a496e76616c6964206465706f7369746f72206164647260448201526b195cdcc81c1c9bdd9a59195960a21b60648201526084015b60405180910390fd5b6001600160a01b038316620001175760405162461bcd60e51b815260206004820152603060248201527f476d7850726f78793a3a496e76616c69642072657761726420726f757465722060448201526f1859191c995cdcc81c1c9bdd9a59195960821b60648201526084016200009d565b6001600160a01b0381166200017e5760405162461bcd60e51b815260206004820152602660248201527f476d7850726f78793a3a496e76616c69642064657620616464726573732070726044820152651bdd9a59195960d21b60648201526084016200009d565b600080546001600160a01b0319166001600160a01b038381169190911790915584811660805283811660a081905290831660c0526040805163067200c560e11b81529051630ce4018a916004808201926020929091908290030181865afa158015620001ee573d6000803e3d6000fd5b505050506040513d601f19601f8201168201806040525081019062000214919062000324565b6001600160a01b031660e0816001600160a01b031681525050816001600160a01b031663fa6db1bc6040518163ffffffff1660e01b8152600401602060405180830381865afa1580156200026c573d6000803e3d6000fd5b505050506040513d601f19601f8201168201806040525081019062000292919062000324565b6001600160a01b031661010052506200034992505050565b80516001600160a01b0381168114620002c257600080fd5b919050565b60008060008060808587031215620002de57600080fd5b620002e985620002aa565b9350620002f960208601620002aa565b92506200030960408601620002aa565b91506200031960608601620002aa565b905092959194509250565b6000602082840312156200033757600080fd5b6200034282620002aa565b9392505050565b60805160a05160c05160e05161010051611b496200042f6000396000818161099b0152610b400152600081816112aa01526113b801526000818161014e0152610a990152600081816101e401528181610293015281816103c301528181610c8f01528181610d6a01528181610fee01528181611301015261141201526000818161010a0152818161034e0152818161045a0152818161096901528181610a3501528181610b0b01528181610ddc01528181610e3501528181610f250152818161109e01528181611155015281816112780152818161138201526114930152611b496000f3fe608060405234801561001057600080fd5b50600436106101005760003560e01c80639d54b52411610097578063d279c19111610066578063d279c19114610242578063da09c72c14610255578063e940325614610268578063f3daeacc1461027b57600080fd5b80639d54b524146101df578063bf4d14d514610206578063c10300f7146101a6578063c613aec01461021957600080fd5b806356615529116100d357806356615529146101a65780635c72f4b5146101b957806367860cce146101b95780639291d563146101cc57600080fd5b8063026879dc1461010557806328495daa1461014957806331d7a262146101705780633b8ae39714610191575b600080fd5b61012c7f000000000000000000000000000000000000000000000000000000000000000081565b6040516001600160a01b0390911681526020015b60405180910390f35b61012c7f000000000000000000000000000000000000000000000000000000000000000081565b61018361017e3660046118c8565b61028e565b604051908152602001610140565b6101a461019f3660046118c8565b6104e0565b005b6101a46101b43660046118e5565b610671565b6101a46101c73660046118e5565b610713565b6101a46101da3660046118c8565b6107b2565b61012c7f000000000000000000000000000000000000000000000000000000000000000081565b6101836102143660046118e5565b6108b7565b61012c6102273660046118c8565b6001602052600090815260409020546001600160a01b031681565b6101a46102503660046118c8565b610ba4565b60005461012c906001600160a01b031681565b6101836102763660046118c8565b610f53565b6101a46102893660046118e5565b6111c8565b6000807f00000000000000000000000000000000000000000000000000000000000000006001600160a01b03166351c3e3b46040518163ffffffff1660e01b8152600401602060405180830381865afa1580156102ef573d6000803e3d6000fd5b505050506040513d601f19601f8201168201806040525081019061031391906118fe565b9050806001600160a01b0316836001600160a01b0316036103375750600092915050565b60405163402914f560e01b81526001600160a01b037f00000000000000000000000000000000000000000000000000000000000000008116600483015282169063402914f590602401602060405180830381865afa15801561039d573d6000803e3d6000fd5b505050506040513d601f19601f820116820180604052508101906103c1919061191b565b7f00000000000000000000000000000000000000000000000000000000000000006001600160a01b031663e1c363b76040518163ffffffff1660e01b8152600401602060405180830381865afa15801561041f573d6000803e3d6000fd5b505050506040513d601f19601f8201168201806040525081019061044391906118fe565b60405163402914f560e01b81526001600160a01b037f000000000000000000000000000000000000000000000000000000000000000081166004830152919091169063402914f590602401602060405180830381865afa1580156104ab573d6000803e3d6000fd5b505050506040513d601f19601f820116820180604052508101906104cf919061191b565b6104d99190611934565b9392505050565b6000546001600160a01b0316331461053f5760405162461bcd60e51b815260206004820152601160248201527f476d7850726f78793a3a6f6e6c7944657600000000000000000000000000000060448201526064015b60405180910390fd5b6000816001600160a01b031663c89039c56040518163ffffffff1660e01b8152600401602060405180830381865afa15801561057f573d6000803e3d6000fd5b505050506040513d601f19601f820116820180604052508101906105a391906118fe565b6001600160a01b0380821660009081526001602052604090205491925016156106345760405162461bcd60e51b815260206004820152603260248201527f476d7850726f78793a3a537472617465677920666f72206465706f736974207460448201527f6f6b656e20616c726561647920616464656400000000000000000000000000006064820152608401610536565b6001600160a01b03908116600090815260016020526040902080549190921673ffffffffffffffffffffffffffffffffffffffff19909116179055565b7362edc0692bd897d2295872a9ffcac5425011c66160005260016020527fd9b87995a89b1c84b4bab64e3cd6e44e97280b5a5983d834af443d8e17a7f9b9546001600160a01b031633146107075760405162461bcd60e51b815260206004820152601960248201527f476d7850726f78793a3a6f6e6c79474d585374726174656779000000000000006044820152606401610536565b6107108161140d565b50565b735643f4b25e36478ee1e90418d5343cb6591bcb9d60005260016020527f4c252107cf1470690ef2505b089a8ebb4870160623fd1d6a4afa8513ed4add90546001600160a01b031633146107a95760405162461bcd60e51b815260206004820152601860248201527f476d7850726f78793a6f6e6c79474c50537472617465677900000000000000006044820152606401610536565b610710816114f1565b6000546001600160a01b0316331461080c5760405162461bcd60e51b815260206004820152601160248201527f476d7850726f78793a3a6f6e6c794465760000000000000000000000000000006044820152606401610536565b6001600160a01b0381166108885760405162461bcd60e51b815260206004820152602660248201527f476d7850726f78793a3a496e76616c696420646576206164647265737320707260448201527f6f766964656400000000000000000000000000000000000000000000000000006064820152608401610536565b6000805473ffffffffffffffffffffffffffffffffffffffff19166001600160a01b0392909216919091179055565b735643f4b25e36478ee1e90418d5343cb6591bcb9d600090815260016020527f4c252107cf1470690ef2505b089a8ebb4870160623fd1d6a4afa8513ed4add90546001600160a01b0316331461094f5760405162461bcd60e51b815260206004820152601860248201527f476d7850726f78793a6f6e6c79474c50537472617465677900000000000000006044820152606401610536565b61098e73b31f66aa3c1e785363f0875a1b74e27b85fd66c77f000000000000000000000000000000000000000000000000000000000000000084611526565b6040516001600160a01b037f000000000000000000000000000000000000000000000000000000000000000016602482015260448101839052610a5d9073b31f66aa3c1e785363f0875a1b74e27b85fd66c7906000906064015b60408051601f198184030181529190526020810180516001600160e01b03167f095ea7b3000000000000000000000000000000000000000000000000000000001790526001600160a01b037f00000000000000000000000000000000000000000000000000000000000000001692919061157d565b5060405173b31f66aa3c1e785363f0875a1b74e27b85fd66c76024820152604481018390526000606482018190526084820181905290610b33907f000000000000000000000000000000000000000000000000000000000000000090839060a40160408051601f198184030181529190526020810180516001600160e01b03167f364e2311000000000000000000000000000000000000000000000000000000001790526001600160a01b037f00000000000000000000000000000000000000000000000000000000000000001692919061157d565b6040516001600160a01b037f0000000000000000000000000000000000000000000000000000000000000000166024820152600060448201819052919250610b939173b31f66aa3c1e785363f0875a1b74e27b85fd66c7916064016109e8565b506104d9816000611654565b919050565b735643f4b25e36478ee1e90418d5343cb6591bcb9d60005260016020527f4c252107cf1470690ef2505b089a8ebb4870160623fd1d6a4afa8513ed4add90546001600160a01b0316331480610c3f57507362edc0692bd897d2295872a9ffcac5425011c66160005260016020527fd9b87995a89b1c84b4bab64e3cd6e44e97280b5a5983d834af443d8e17a7f9b9546001600160a01b031633145b610c8b5760405162461bcd60e51b815260206004820152601860248201527f476d7850726f78793a6f6e6c79474c50537472617465677900000000000000006044820152606401610536565b60007f00000000000000000000000000000000000000000000000000000000000000006001600160a01b03166351c3e3b46040518163ffffffff1660e01b8152600401602060405180830381865afa158015610ceb573d6000803e3d6000fd5b505050506040513d601f19601f82011682018060405250810190610d0f91906118fe565b9050806001600160a01b0316826001600160a01b031603610d2e575050565b604051600060248201819052604482018190526001606483018190526084830181905260a4830181905260c483015260e48201819052610e04917f000000000000000000000000000000000000000000000000000000000000000091906101040160408051601f198184030181529190526020810180516001600160e01b03167f30b70002000000000000000000000000000000000000000000000000000000001790526001600160a01b037f00000000000000000000000000000000000000000000000000000000000000001692919061157d565b506040517f70a082310000000000000000000000000000000000000000000000000000000081526001600160a01b037f000000000000000000000000000000000000000000000000000000000000000016600482015260009073b31f66aa3c1e785363f0875a1b74e27b85fd66c7906370a0823190602401602060405180830381865afa158015610e99573d6000803e3d6000fd5b505050506040513d601f19601f82011682018060405250810190610ebd919061191b565b60405133602482015260448101829052909150610f4d9073b31f66aa3c1e785363f0875a1b74e27b85fd66c7906000906064015b60408051601f198184030181529190526020810180516001600160e01b031663a9059cbb60e01b1790526001600160a01b037f00000000000000000000000000000000000000000000000000000000000000001692919061157d565b50505050565b600080336001600160a01b031663c89039c56040518163ffffffff1660e01b8152600401602060405180830381865afa158015610f94573d6000803e3d6000fd5b505050506040513d601f19601f82011682018060405250810190610fb891906118fe565b90507fffffffffffffffffffffffff9d123f96d427682dd6a78d5600353abdafee399f6001600160a01b038216016111255760007f00000000000000000000000000000000000000000000000000000000000000006001600160a01b0316630ce4018a6040518163ffffffff1660e01b8152600401602060405180830381865afa15801561104a573d6000803e3d6000fd5b505050506040513d601f19601f8201168201806040525081019061106e91906118fe565b6040517ff5d9d63e0000000000000000000000000000000000000000000000000000000081526001600160a01b037f00000000000000000000000000000000000000000000000000000000000000008116600483015284811660248301529192509082169063f5d9d63e90604401602060405180830381865afa1580156110f9573d6000803e3d6000fd5b505050506040513d601f19601f8201168201806040525081019061111d919061191b565b949350505050565b6040517f10c1c1030000000000000000000000000000000000000000000000000000000081526001600160a01b037f0000000000000000000000000000000000000000000000000000000000000000811660048301528416906310c1c10390602401602060405180830381865afa1580156111a4573d6000803e3d6000fd5b505050506040513d601f19601f820116820180604052508101906104d9919061191b565b7362edc0692bd897d2295872a9ffcac5425011c66160005260016020527fd9b87995a89b1c84b4bab64e3cd6e44e97280b5a5983d834af443d8e17a7f9b9546001600160a01b0316331461125e5760405162461bcd60e51b815260206004820152601960248201527f476d7850726f78793a3a6f6e6c79474d585374726174656779000000000000006044820152606401610536565b61129d7362edc0692bd897d2295872a9ffcac5425011c6617f000000000000000000000000000000000000000000000000000000000000000083611526565b6040516001600160a01b037f0000000000000000000000000000000000000000000000000000000000000000166024820152604481018290526112fb907362edc0692bd897d2295872a9ffcac5425011c661906000906064016109e8565b506113aa7f000000000000000000000000000000000000000000000000000000000000000060008360405160240161133591815260200190565b60408051601f198184030181529190526020810180516001600160e01b03167ff3daeacc000000000000000000000000000000000000000000000000000000001790526001600160a01b037f00000000000000000000000000000000000000000000000000000000000000001692919061157d565b506040516001600160a01b037f0000000000000000000000000000000000000000000000000000000000000000166024820152600060448201819052611409917362edc0692bd897d2295872a9ffcac5425011c66191906064016109e8565b5050565b6114bb7f000000000000000000000000000000000000000000000000000000000000000060008360405160240161144691815260200190565b60408051601f198184030181529190526020810180516001600160e01b03167f078580d2000000000000000000000000000000000000000000000000000000001790526001600160a01b037f00000000000000000000000000000000000000000000000000000000000000001692919061157d565b5060405133602482015260448101829052611409907362edc0692bd897d2295872a9ffcac5425011c66190600090606401610ef1565b6040513360248201526044810182905261140990735643f4b25e36478ee1e90418d5343cb6591bcb9d90600090606401610ef1565b604080516001600160a01b038416602482015260448082018490528251808303909101815260649091019091526020810180516001600160e01b031663a9059cbb60e01b1790526115789084906116ba565b505050565b6060600080866001600160a01b031663b61d27f68787876040518463ffffffff1660e01b81526004016115b2939291906119b2565b6000604051808303816000875af11580156115d1573d6000803e3d6000fd5b505050506040513d6000823e601f3d908101601f191682016040526115f99190810190611a09565b915091508161164a5760405162461bcd60e51b815260206004820152601c60248201527f476d7850726f78793a3a7361666545786563757465206661696c6564000000006044820152606401610536565b9695505050505050565b6000611661826020611934565b835110156116b15760405162461bcd60e51b815260206004820152601560248201527f746f55696e743235365f6f75744f66426f756e647300000000000000000000006044820152606401610536565b50016020015190565b600061170f826040518060400160405280602081526020017f5361666545524332303a206c6f772d6c6576656c2063616c6c206661696c6564815250856001600160a01b031661179f9092919063ffffffff16565b805190915015611578578080602001905181019061172d9190611ac9565b6115785760405162461bcd60e51b815260206004820152602a60248201527f5361666545524332303a204552433230206f7065726174696f6e20646964206e60448201527f6f742073756363656564000000000000000000000000000000000000000000006064820152608401610536565b606061111d8484600085856001600160a01b0385163b6118015760405162461bcd60e51b815260206004820152601d60248201527f416464726573733a2063616c6c20746f206e6f6e2d636f6e74726163740000006044820152606401610536565b600080866001600160a01b0316858760405161181d9190611ae4565b60006040518083038185875af1925050503d806000811461185a576040519150601f19603f3d011682016040523d82523d6000602084013e61185f565b606091505b509150915061186f82828661187a565b979650505050505050565b606083156118895750816104d9565b8251156118995782518084602001fd5b8160405162461bcd60e51b81526004016105369190611b00565b6001600160a01b038116811461071057600080fd5b6000602082840312156118da57600080fd5b81356104d9816118b3565b6000602082840312156118f757600080fd5b5035919050565b60006020828403121561191057600080fd5b81516104d9816118b3565b60006020828403121561192d57600080fd5b5051919050565b6000821982111561195557634e487b7160e01b600052601160045260246000fd5b500190565b60005b8381101561197557818101518382015260200161195d565b83811115610f4d5750506000910152565b6000815180845261199e81602086016020860161195a565b601f01601f19169290920160200192915050565b6001600160a01b03841681528260208201526060604082015260006119da6060830184611986565b95945050505050565b80518015158114610b9f57600080fd5b634e487b7160e01b600052604160045260246000fd5b60008060408385031215611a1c57600080fd5b611a25836119e3565b9150602083015167ffffffffffffffff80821115611a4257600080fd5b818501915085601f830112611a5657600080fd5b815181811115611a6857611a686119f3565b604051601f8201601f19908116603f01168101908382118183101715611a9057611a906119f3565b81604052828152886020848701011115611aa957600080fd5b611aba83602083016020880161195a565b80955050505050509250929050565b600060208284031215611adb57600080fd5b6104d9826119e3565b60008251611af681846020870161195a565b9190910192915050565b6020815260006104d9602083018461198656fea264697066735822122090b493a637cd672b3ccc658335525460cbd420cc2f5df4321f689cd19d1d78ac64736f6c634300080d0033",
  "devdoc": {
    "kind": "dev",
    "methods": {},
    "version": 1
  },
  "userdoc": {
    "kind": "user",
    "methods": {},
    "version": 1
  },
  "storageLayout": {
    "storage": [
      {
        "astId": 33421,
        "contract": "contracts/strategies/avalanche/gmx/GmxProxy.sol:GmxProxy",
        "label": "devAddr",
        "offset": 0,
        "slot": "0",
        "type": "t_address"
      },
      {
        "astId": 33425,
        "contract": "contracts/strategies/avalanche/gmx/GmxProxy.sol:GmxProxy",
        "label": "approvedStrategies",
        "offset": 0,
        "slot": "1",
        "type": "t_mapping(t_address,t_address)"
      }
    ],
    "types": {
      "t_address": {
        "encoding": "inplace",
        "label": "address",
        "numberOfBytes": "20"
      },
      "t_mapping(t_address,t_address)": {
        "encoding": "mapping",
        "key": "t_address",
        "label": "mapping(address => address)",
        "numberOfBytes": "32",
        "value": "t_address"
      }
    }
  }
}