{
  "address": "0xb8Ca0076E9a416bd8D5D40DfdeE099BF46Dd9c30",
  "abi": [
    {
      "inputs": [
        {
          "internalType": "address",
          "name": "_gmxDepositor",
          "type": "address"
        },
        {
          "internalType": "address",
          "name": "_gmxRewardRouter",
          "type": "address"
        },
        {
          "internalType": "address",
          "name": "_devAddr",
          "type": "address"
        }
      ],
      "stateMutability": "nonpayable",
      "type": "constructor"
    },
    {
      "inputs": [
        {
          "internalType": "address",
          "name": "_strategy",
          "type": "address"
        }
      ],
      "name": "approveStrategy",
      "outputs": [],
      "stateMutability": "nonpayable",
      "type": "function"
    },
    {
      "inputs": [
        {
          "internalType": "address",
          "name": "",
          "type": "address"
        }
      ],
      "name": "approvedStrategies",
      "outputs": [
        {
          "internalType": "address",
          "name": "",
          "type": "address"
        }
      ],
      "stateMutability": "view",
      "type": "function"
    },
    {
      "inputs": [
        {
          "internalType": "uint256",
          "name": "_amount",
          "type": "uint256"
        }
      ],
      "name": "buyAndStakeGlp",
      "outputs": [
        {
          "internalType": "uint256",
          "name": "",
          "type": "uint256"
        }
      ],
      "stateMutability": "nonpayable",
      "type": "function"
    },
    {
      "inputs": [
        {
          "internalType": "address",
          "name": "rewardTracker",
          "type": "address"
        }
      ],
      "name": "claimReward",
      "outputs": [],
      "stateMutability": "nonpayable",
      "type": "function"
    },
    {
      "inputs": [],
      "name": "devAddr",
      "outputs": [
        {
          "internalType": "address",
          "name": "",
          "type": "address"
        }
      ],
      "stateMutability": "view",
      "type": "function"
    },
    {
      "inputs": [
        {
          "internalType": "uint256",
          "name": "_balance",
          "type": "uint256"
        }
      ],
      "name": "emergencyWithdrawGLP",
      "outputs": [],
      "stateMutability": "nonpayable",
      "type": "function"
    },
    {
      "inputs": [
        {
          "internalType": "uint256",
          "name": "_balance",
          "type": "uint256"
        }
      ],
      "name": "emergencyWithdrawGMX",
      "outputs": [],
      "stateMutability": "nonpayable",
      "type": "function"
    },
    {
      "inputs": [],
      "name": "gmxDepositor",
      "outputs": [
        {
          "internalType": "contract IGmxDepositor",
          "name": "",
          "type": "address"
        }
      ],
      "stateMutability": "view",
      "type": "function"
    },
    {
      "inputs": [],
      "name": "gmxRewardRouter",
      "outputs": [
        {
          "internalType": "address",
          "name": "",
          "type": "address"
        }
      ],
      "stateMutability": "view",
      "type": "function"
    },
    {
      "inputs": [
        {
          "internalType": "address",
          "name": "_rewardTracker",
          "type": "address"
        }
      ],
      "name": "pendingRewards",
      "outputs": [
        {
          "internalType": "uint256",
          "name": "",
          "type": "uint256"
        }
      ],
      "stateMutability": "view",
      "type": "function"
    },
    {
      "inputs": [
        {
          "internalType": "uint256",
          "name": "_amount",
          "type": "uint256"
        }
      ],
      "name": "stakeGmx",
      "outputs": [],
      "stateMutability": "nonpayable",
      "type": "function"
    },
    {
      "inputs": [
        {
          "internalType": "address",
          "name": "_rewardTracker",
          "type": "address"
        }
      ],
      "name": "totalDeposits",
      "outputs": [
        {
          "internalType": "uint256",
          "name": "",
          "type": "uint256"
        }
      ],
      "stateMutability": "view",
      "type": "function"
    },
    {
      "inputs": [
        {
          "internalType": "address",
          "name": "newValue",
          "type": "address"
        }
      ],
      "name": "updateDevAddr",
      "outputs": [],
      "stateMutability": "nonpayable",
      "type": "function"
    },
    {
      "inputs": [
        {
          "internalType": "uint256",
          "name": "_amount",
          "type": "uint256"
        }
      ],
      "name": "withdrawGlp",
      "outputs": [],
      "stateMutability": "nonpayable",
      "type": "function"
    },
    {
      "inputs": [
        {
          "internalType": "uint256",
          "name": "_amount",
          "type": "uint256"
        }
      ],
      "name": "withdrawGmx",
      "outputs": [],
      "stateMutability": "nonpayable",
      "type": "function"
    }
  ],
  "transactionHash": "0x00d56cb360c06e698553ad909bfd584133eb36d9d3b9025d40080001bb7aa711",
  "args": [
    "0x565d72A63d3dc4a2F3Dd7609Fd85c4FD394523B2",
    "0x82147C5A7E850eA4E28155DF107F2590fD4ba327",
    "0xDcEDF06Fd33E1D7b6eb4b309f779a0e9D3172e44"
  ],
  "solcInputHash": "59d3ebf47c1bb3477c9eced8d481a934",
  "bytecode": "0x6101006040523480156200001257600080fd5b50604051620018a6380380620018a68339810160408190526200003591620001d3565b600080546001600160a01b038084166001600160a01b0319909216919091179091556001600160601b0319606085811b821660805284901b1660a0526040805163067200c560e11b8152905191841691630ce4018a91600480820192602092909190829003018186803b158015620000ac57600080fd5b505afa158015620000c1573d6000803e3d6000fd5b505050506040513d601f19601f82011682018060405250810190620000e79190620001af565b6001600160a01b031660c0816001600160a01b031660601b81525050816001600160a01b031663fa6db1bc6040518163ffffffff1660e01b815260040160206040518083038186803b1580156200013d57600080fd5b505afa15801562000152573d6000803e3d6000fd5b505050506040513d601f19601f82011682018060405250810190620001789190620001af565b60601b6001600160601b03191660e052506200021c915050565b80516001600160a01b0381168114620001aa57600080fd5b919050565b600060208284031215620001c1578081fd5b620001cc8262000192565b9392505050565b600080600060608486031215620001e8578182fd5b620001f38462000192565b9250620002036020850162000192565b9150620002136040850162000192565b90509250925092565b60805160601c60a05160601c60c05160601c60e05160601c6115f3620002b36000398061061852806107a6525080610a8a5280610b8552508061053352806106c65280610ac15280610bc05280610f035250806101f7528061025952806105d752806106965280610760528061092152806109a15280610a495280610b405280610c3f5280610ce25280610ee052506115f36000f3fe608060405234801561001057600080fd5b50600436106100f55760003560e01c80639d54b52411610097578063d279c19111610066578063d279c191146101b4578063da09c72c146101c7578063e9403256146101cf578063f3daeacc146101e2576100f5565b80639d54b52414610186578063bf4d14d51461018e578063c10300f71461014d578063c613aec0146101a1576100f5565b806356615529116100d3578063566155291461014d5780635c72f4b51461016057806367860cce146101605780639291d56314610173576100f5565b8063026879dc146100fa57806331d7a262146101185780633b8ae39714610138575b600080fd5b6101026101f5565b60405161010f9190611255565b60405180910390f35b61012b6101263660046110e1565b610219565b60405161010f919061156f565b61014b6101463660046110e1565b6102d9565b005b61014b61015b3660046111dd565b6103f7565b61014b61016e3660046111dd565b610469565b61014b6101813660046110e1565b6104d8565b610102610531565b61012b61019c3660046111dd565b610555565b6101026101af3660046110e1565b6107eb565b61014b6101c23660046110e1565b610806565b610102610952565b61012b6101dd3660046110e1565b610961565b61014b6101f03660046111dd565b6109c9565b7f000000000000000000000000000000000000000000000000000000000000000081565b6040517f402914f50000000000000000000000000000000000000000000000000000000081526000906001600160a01b0383169063402914f590610281907f000000000000000000000000000000000000000000000000000000000000000090600401611255565b60206040518083038186803b15801561029957600080fd5b505afa1580156102ad573d6000803e3d6000fd5b505050506040513d601f19601f820116820180604052508101906102d191906111f5565b90505b919050565b6000546001600160a01b0316331461030c5760405162461bcd60e51b81526004016103039061130e565b60405180910390fd5b6000816001600160a01b031663c89039c56040518163ffffffff1660e01b815260040160206040518083038186803b15801561034757600080fd5b505afa15801561035b573d6000803e3d6000fd5b505050506040513d601f19601f8201168201806040525081019061037f91906110fd565b6001600160a01b0380821660009081526001602052604090205491925016156103ba5760405162461bcd60e51b8152600401610303906113d9565b6001600160a01b03908116600090815260016020526040902080549190921673ffffffffffffffffffffffffffffffffffffffff19909116179055565b7362edc0692bd897d2295872a9ffcac5425011c66160005260016020527fd9b87995a89b1c84b4bab64e3cd6e44e97280b5a5983d834af443d8e17a7f9b9546001600160a01b0316331461045d5760405162461bcd60e51b8152600401610303906113a2565b61046681610bbb565b50565b735643f4b25e36478ee1e90418d5343cb6591bcb9d60005260016020527f4c252107cf1470690ef2505b089a8ebb4870160623fd1d6a4afa8513ed4add90546001600160a01b031633146104cf5760405162461bcd60e51b81526004016103039061146d565b61046681610d0a565b6000546001600160a01b031633146105025760405162461bcd60e51b81526004016103039061130e565b6000805473ffffffffffffffffffffffffffffffffffffffff19166001600160a01b0392909216919091179055565b7f000000000000000000000000000000000000000000000000000000000000000081565b735643f4b25e36478ee1e90418d5343cb6591bcb9d600090815260016020527f4c252107cf1470690ef2505b089a8ebb4870160623fd1d6a4afa8513ed4add90546001600160a01b031633146105bd5760405162461bcd60e51b81526004016103039061146d565b6105fc73b31f66aa3c1e785363f0875a1b74e27b85fd66c77f000000000000000000000000000000000000000000000000000000000000000084610d37565b6106be73b31f66aa3c1e785363f0875a1b74e27b85fd66c760007f000000000000000000000000000000000000000000000000000000000000000085604051602401610649929190611269565b60408051601f198184030181529190526020810180516001600160e01b03167f095ea7b3000000000000000000000000000000000000000000000000000000001790526001600160a01b037f000000000000000000000000000000000000000000000000000000000000000016929190610daa565b5060606107887f0000000000000000000000000000000000000000000000000000000000000000600073b31f66aa3c1e785363f0875a1b74e27b85fd66c78660008060405160240161071394939291906112cf565b60408051601f198184030181529190526020810180516001600160e01b03167f364e2311000000000000000000000000000000000000000000000000000000001790526001600160a01b037f000000000000000000000000000000000000000000000000000000000000000016929190610daa565b90506107d873b31f66aa3c1e785363f0875a1b74e27b85fd66c760007f00000000000000000000000000000000000000000000000000000000000000006000604051602401610649929190611282565b506107e4816000610e61565b9392505050565b6001602052600090815260409020546001600160a01b031681565b735643f4b25e36478ee1e90418d5343cb6591bcb9d60005260016020527f4c252107cf1470690ef2505b089a8ebb4870160623fd1d6a4afa8513ed4add90546001600160a01b03163314806108a157507362edc0692bd897d2295872a9ffcac5425011c66160005260016020527fd9b87995a89b1c84b4bab64e3cd6e44e97280b5a5983d834af443d8e17a7f9b9546001600160a01b031633145b6108bd5760405162461bcd60e51b81526004016103039061146d565b610949816000336040516024016108d49190611255565b60408051601f198184030181529190526020810180516001600160e01b03167f1e83409a000000000000000000000000000000000000000000000000000000001790526001600160a01b037f000000000000000000000000000000000000000000000000000000000000000016929190610daa565b50610466610e90565b6000546001600160a01b031681565b6040517f10c1c1030000000000000000000000000000000000000000000000000000000081526000906001600160a01b038316906310c1c10390610281907f000000000000000000000000000000000000000000000000000000000000000090600401611255565b7362edc0692bd897d2295872a9ffcac5425011c66160005260016020527fd9b87995a89b1c84b4bab64e3cd6e44e97280b5a5983d834af443d8e17a7f9b9546001600160a01b03163314610a2f5760405162461bcd60e51b8152600401610303906113a2565b610a6e7362edc0692bd897d2295872a9ffcac5425011c6617f000000000000000000000000000000000000000000000000000000000000000083610d37565b610abb7362edc0692bd897d2295872a9ffcac5425011c66160007f000000000000000000000000000000000000000000000000000000000000000084604051602401610649929190611269565b50610b687f0000000000000000000000000000000000000000000000000000000000000000600083604051602401610af3919061156f565b60408051601f198184030181529190526020810180516001600160e01b03167ff3daeacc000000000000000000000000000000000000000000000000000000001790526001600160a01b037f000000000000000000000000000000000000000000000000000000000000000016929190610daa565b50610bb77362edc0692bd897d2295872a9ffcac5425011c66160007f00000000000000000000000000000000000000000000000000000000000000006000604051602401610649929190611282565b5050565b610c677f0000000000000000000000000000000000000000000000000000000000000000600083604051602401610bf2919061156f565b60408051601f198184030181529190526020810180516001600160e01b03167f078580d2000000000000000000000000000000000000000000000000000000001790526001600160a01b037f000000000000000000000000000000000000000000000000000000000000000016929190610daa565b50610bb77362edc0692bd897d2295872a9ffcac5425011c66160003384604051602401610c95929190611269565b60408051601f198184030181529190526020810180516001600160e01b03167fa9059cbb000000000000000000000000000000000000000000000000000000001790526001600160a01b037f000000000000000000000000000000000000000000000000000000000000000016929190610daa565b610bb7735643f4b25e36478ee1e90418d5343cb6591bcb9d60003384604051602401610c95929190611269565b610da58363a9059cbb60e01b8484604051602401610d56929190611269565b60408051601f198184030181529190526020810180516001600160e01b03167fffffffff0000000000000000000000000000000000000000000000000000000090931692909217909152610f2b565b505050565b606060006060866001600160a01b031663b61d27f68787876040518463ffffffff1660e01b8152600401610de09392919061129e565b600060405180830381600087803b158015610dfa57600080fd5b505af1158015610e0e573d6000803e3d6000fd5b505050506040513d6000823e601f3d908101601f19168201604052610e369190810190611133565b9150915081610e575760405162461bcd60e51b8152600401610303906114a4565b9695505050505050565b60008160200183511015610e875760405162461bcd60e51b815260040161030390611436565b50016020015190565b6040805160048152602481019091526020810180516001600160e01b03167ff69e204600000000000000000000000000000000000000000000000000000000179052610466906001600160a01b037f000000000000000000000000000000000000000000000000000000000000000016907f000000000000000000000000000000000000000000000000000000000000000090600090610daa565b6060610f80826040518060400160405280602081526020017f5361666545524332303a206c6f772d6c6576656c2063616c6c206661696c6564815250856001600160a01b0316610fba9092919063ffffffff16565b805190915015610da55780806020019051810190610f9e9190611119565b610da55760405162461bcd60e51b815260040161030390611512565b6060610fc98484600085610fd1565b949350505050565b606082471015610ff35760405162461bcd60e51b815260040161030390611345565b610ffc85611092565b6110185760405162461bcd60e51b8152600401610303906114db565b60006060866001600160a01b031685876040516110359190611239565b60006040518083038185875af1925050503d8060008114611072576040519150601f19603f3d011682016040523d82523d6000602084013e611077565b606091505b5091509150611087828286611098565b979650505050505050565b3b151590565b606083156110a75750816107e4565b8251156110b75782518084602001fd5b8160405162461bcd60e51b815260040161030391906112fb565b805180151581146102d457600080fd5b6000602082840312156110f2578081fd5b81356107e4816115a8565b60006020828403121561110e578081fd5b81516107e4816115a8565b60006020828403121561112a578081fd5b6107e4826110d1565b60008060408385031215611145578081fd5b61114e836110d1565b9150602083015167ffffffffffffffff8082111561116a578283fd5b818501915085601f83011261117d578283fd5b81518181111561118957fe5b604051601f8201601f1916810160200183811182821017156111a757fe5b6040528181528382016020018810156111be578485fd5b6111cf826020830160208701611578565b809450505050509250929050565b6000602082840312156111ee578081fd5b5035919050565b600060208284031215611206578081fd5b5051919050565b60008151808452611225816020860160208601611578565b601f01601f19169290920160200192915050565b6000825161124b818460208701611578565b9190910192915050565b6001600160a01b0391909116815260200190565b6001600160a01b03929092168252602082015260400190565b6001600160a01b0392909216825260ff16602082015260400190565b60006001600160a01b0385168252836020830152606060408301526112c6606083018461120d565b95945050505050565b6001600160a01b03949094168452602084019290925260ff908116604084015216606082015260800190565b6000602082526107e4602083018461120d565b60208082526011908201527f476d7850726f78793a3a6f6e6c79446576000000000000000000000000000000604082015260600190565b60208082526026908201527f416464726573733a20696e73756666696369656e742062616c616e636520666f60408201527f722063616c6c0000000000000000000000000000000000000000000000000000606082015260800190565b60208082526019908201527f476d7850726f78793a3a6f6e6c79474d58537472617465677900000000000000604082015260600190565b60208082526032908201527f476d7850726f78793a3a537472617465677920666f72206465706f736974207460408201527f6f6b656e20616c72656164792061646465640000000000000000000000000000606082015260800190565b60208082526015908201527f746f55696e743235365f6f75744f66426f756e64730000000000000000000000604082015260600190565b60208082526018908201527f476d7850726f78793a6f6e6c79474c5053747261746567790000000000000000604082015260600190565b6020808252601c908201527f476d7850726f78793a3a7361666545786563757465206661696c656400000000604082015260600190565b6020808252601d908201527f416464726573733a2063616c6c20746f206e6f6e2d636f6e7472616374000000604082015260600190565b6020808252602a908201527f5361666545524332303a204552433230206f7065726174696f6e20646964206e60408201527f6f74207375636365656400000000000000000000000000000000000000000000606082015260800190565b90815260200190565b60005b8381101561159357818101518382015260200161157b565b838111156115a2576000848401525b50505050565b6001600160a01b038116811461046657600080fdfea264697066735822122090ee4665888809c7c8cc8229a3793fb27d197b2fa6daee1ad0e833e69c10072b64736f6c63430007030033",
  "devdoc": {
    "kind": "dev",
    "methods": {},
    "version": 1
  },
  "userdoc": {
    "kind": "user",
    "methods": {},
    "version": 1
  },
  "storageLayout": {
    "storage": [
      {
        "astId": 52855,
        "contract": "contracts/strategies/GmxProxy.sol:GmxProxy",
        "label": "devAddr",
        "offset": 0,
        "slot": "0",
        "type": "t_address"
      },
      {
        "astId": 52859,
        "contract": "contracts/strategies/GmxProxy.sol:GmxProxy",
        "label": "approvedStrategies",
        "offset": 0,
        "slot": "1",
        "type": "t_mapping(t_address,t_address)"
      }
    ],
    "types": {
      "t_address": {
        "encoding": "inplace",
        "label": "address",
        "numberOfBytes": "20"
      },
      "t_mapping(t_address,t_address)": {
        "encoding": "mapping",
        "key": "t_address",
        "label": "mapping(address => address)",
        "numberOfBytes": "32",
        "value": "t_address"
      }
    }
  }
}