{
  "address": "0x8f1A22d7E0aA16e0154696eD6843541e97B18742",
  "abi": [
    {
      "inputs": [
        {
          "internalType": "address",
          "name": "_gmxDepositor",
          "type": "address"
        },
        {
          "internalType": "address",
          "name": "_gmxRewardRouter",
          "type": "address"
        },
        {
          "internalType": "address",
          "name": "_gmxRewardRouterV2",
          "type": "address"
        },
        {
          "internalType": "address",
          "name": "_simpleRouter",
          "type": "address"
        },
        {
          "internalType": "uint256",
          "name": "_maxWavaxSwapAmount",
          "type": "uint256"
        },
        {
          "internalType": "uint256",
          "name": "_minFeeDifference",
          "type": "uint256"
        },
        {
          "internalType": "address",
          "name": "_devAddr",
          "type": "address"
        }
      ],
      "stateMutability": "nonpayable",
      "type": "constructor"
    },
    {
      "inputs": [
        {
          "internalType": "address",
          "name": "_strategy",
          "type": "address"
        }
      ],
      "name": "approveStrategy",
      "outputs": [],
      "stateMutability": "nonpayable",
      "type": "function"
    },
    {
      "inputs": [
        {
          "internalType": "address",
          "name": "",
          "type": "address"
        }
      ],
      "name": "approvedStrategies",
      "outputs": [
        {
          "internalType": "address",
          "name": "",
          "type": "address"
        }
      ],
      "stateMutability": "view",
      "type": "function"
    },
    {
      "inputs": [
        {
          "internalType": "uint256",
          "name": "_amount",
          "type": "uint256"
        }
      ],
      "name": "buyAndStakeGlp",
      "outputs": [
        {
          "internalType": "uint256",
          "name": "",
          "type": "uint256"
        }
      ],
      "stateMutability": "nonpayable",
      "type": "function"
    },
    {
      "inputs": [
        {
          "internalType": "address",
          "name": "rewardTracker",
          "type": "address"
        }
      ],
      "name": "claimReward",
      "outputs": [],
      "stateMutability": "nonpayable",
      "type": "function"
    },
    {
      "inputs": [],
      "name": "devAddr",
      "outputs": [
        {
          "internalType": "address",
          "name": "",
          "type": "address"
        }
      ],
      "stateMutability": "view",
      "type": "function"
    },
    {
      "inputs": [
        {
          "internalType": "uint256",
          "name": "_balance",
          "type": "uint256"
        }
      ],
      "name": "emergencyWithdrawGLP",
      "outputs": [],
      "stateMutability": "nonpayable",
      "type": "function"
    },
    {
      "inputs": [
        {
          "internalType": "uint256",
          "name": "_balance",
          "type": "uint256"
        }
      ],
      "name": "emergencyWithdrawGMX",
      "outputs": [],
      "stateMutability": "nonpayable",
      "type": "function"
    },
    {
      "inputs": [],
      "name": "glpMinter",
      "outputs": [
        {
          "internalType": "address",
          "name": "",
          "type": "address"
        }
      ],
      "stateMutability": "view",
      "type": "function"
    },
    {
      "inputs": [],
      "name": "gmxDepositor",
      "outputs": [
        {
          "internalType": "contract IGmxDepositor",
          "name": "",
          "type": "address"
        }
      ],
      "stateMutability": "view",
      "type": "function"
    },
    {
      "inputs": [],
      "name": "gmxRewardRouter",
      "outputs": [
        {
          "internalType": "address",
          "name": "",
          "type": "address"
        }
      ],
      "stateMutability": "view",
      "type": "function"
    },
    {
      "inputs": [],
      "name": "maxWavaxSwapAmount",
      "outputs": [
        {
          "internalType": "uint256",
          "name": "",
          "type": "uint256"
        }
      ],
      "stateMutability": "view",
      "type": "function"
    },
    {
      "inputs": [],
      "name": "minFeeDifference",
      "outputs": [
        {
          "internalType": "uint256",
          "name": "",
          "type": "uint256"
        }
      ],
      "stateMutability": "view",
      "type": "function"
    },
    {
      "inputs": [
        {
          "internalType": "address",
          "name": "_rewardTracker",
          "type": "address"
        }
      ],
      "name": "pendingRewards",
      "outputs": [
        {
          "internalType": "uint256",
          "name": "",
          "type": "uint256"
        }
      ],
      "stateMutability": "view",
      "type": "function"
    },
    {
      "inputs": [],
      "name": "stakeESGMX",
      "outputs": [],
      "stateMutability": "nonpayable",
      "type": "function"
    },
    {
      "inputs": [
        {
          "internalType": "uint256",
          "name": "_amount",
          "type": "uint256"
        }
      ],
      "name": "stakeGmx",
      "outputs": [],
      "stateMutability": "nonpayable",
      "type": "function"
    },
    {
      "inputs": [],
      "name": "stakedESGMX",
      "outputs": [
        {
          "internalType": "uint256",
          "name": "",
          "type": "uint256"
        }
      ],
      "stateMutability": "view",
      "type": "function"
    },
    {
      "inputs": [
        {
          "internalType": "address",
          "name": "_rewardTracker",
          "type": "address"
        }
      ],
      "name": "totalDeposits",
      "outputs": [
        {
          "internalType": "uint256",
          "name": "",
          "type": "uint256"
        }
      ],
      "stateMutability": "view",
      "type": "function"
    },
    {
      "inputs": [
        {
          "internalType": "address",
          "name": "newValue",
          "type": "address"
        }
      ],
      "name": "updateDevAddr",
      "outputs": [],
      "stateMutability": "nonpayable",
      "type": "function"
    },
    {
      "inputs": [
        {
          "internalType": "uint256",
          "name": "_maxWavaxSwapAmount",
          "type": "uint256"
        }
      ],
      "name": "updateMaxWavaxSwapAmount",
      "outputs": [],
      "stateMutability": "nonpayable",
      "type": "function"
    },
    {
      "inputs": [
        {
          "internalType": "uint256",
          "name": "_minFeeDifference",
          "type": "uint256"
        }
      ],
      "name": "updateMinFeeDifference",
      "outputs": [],
      "stateMutability": "nonpayable",
      "type": "function"
    },
    {
      "inputs": [
        {
          "internalType": "uint256",
          "name": "_amount",
          "type": "uint256"
        }
      ],
      "name": "withdrawGlp",
      "outputs": [],
      "stateMutability": "nonpayable",
      "type": "function"
    },
    {
      "inputs": [
        {
          "internalType": "uint256",
          "name": "_amount",
          "type": "uint256"
        }
      ],
      "name": "withdrawGmx",
      "outputs": [],
      "stateMutability": "nonpayable",
      "type": "function"
    }
  ],
  "transactionHash": "0xc46fbf79695ef5b2d7d1c9753a4ec41c4c1c8a65d2b7efb68b834953ce3fedc1",
  "args": [
    "0x565d72A63d3dc4a2F3Dd7609Fd85c4FD394523B2",
    "0xa192D0681E2b9484d1fA48083D36B8A2D0Da1809",
    "0xB70B91CE0771d3f4c81D87660f71Da31d48eB3B3",
    "0x959a0af5A46F76AA37317BC417D48B445658B188",
    "100000000000000000000",
    "15",
    "0xea3e895b0696e161c68486ee2f85e6cc6ef962d0"
  ],
  "solcInputHash": "553f9358bec1cf1bd161f78bea0bc131",
  "bytecode": "0x6101a06040523480156200001257600080fd5b506040516200318c3803806200318c83398101604081905262000035916200043a565b6001600160a01b038716620000a65760405162461bcd60e51b815260206004820152602c60248201527f476d7850726f78793a3a496e76616c6964206465706f7369746f72206164647260448201526b195cdcc81c1c9bdd9a59195960a21b60648201526084015b60405180910390fd5b6001600160a01b038616620001175760405162461bcd60e51b815260206004820152603060248201527f476d7850726f78793a3a496e76616c69642072657761726420726f757465722060448201526f1859191c995cdcc81c1c9bdd9a59195960821b60648201526084016200009d565b6001600160a01b0381166200017e5760405162461bcd60e51b815260206004820152602660248201527f476d7850726f78793a3a496e76616c69642064657620616464726573732070726044820152651bdd9a59195960d21b60648201526084016200009d565b600080546001600160a01b0319166001600160a01b038381169190911790915587811660805286811660a081905290861660c0526040805163067200c560e11b81529051630ce4018a916004808201926020929091908290030181865afa158015620001ee573d6000803e3d6000fd5b505050506040513d601f19601f82011682018060405250810190620002149190620004ce565b6001600160a01b031660e0816001600160a01b031681525050846001600160a01b031663fa6db1bc6040518163ffffffff1660e01b8152600401602060405180830381865afa1580156200026c573d6000803e3d6000fd5b505050506040513d601f19601f82011682018060405250810190620002929190620004ce565b6001600160a01b03166101008190526040805163fbfa77cf60e01b8152905163fbfa77cf916004808201926020929091908290030181865afa158015620002dd573d6000803e3d6000fd5b505050506040513d601f19601f82011682018060405250810190620003039190620004ce565b6001600160a01b03166101208190526040805163f5b91b7b60e01b8152905163f5b91b7b916004808201926020929091908290030181865afa1580156200034e573d6000803e3d6000fd5b505050506040513d601f19601f82011682018060405250810190620003749190620004ce565b6001600160a01b0316610160816001600160a01b031681525050610120516001600160a01b0316636abbe0c86040518163ffffffff1660e01b8152600401602060405180830381865afa158015620003d0573d6000803e3d6000fd5b505050506040513d601f19601f82011682018060405250810190620003f69190620004ce565b6001600160a01b0390811661014052939093166101805260029190915560035550620004f592505050565b6001600160a01b03811681146200043757600080fd5b50565b600080600080600080600060e0888a0312156200045657600080fd5b8751620004638162000421565b6020890151909750620004768162000421565b6040890151909650620004898162000421565b60608901519095506200049c8162000421565b809450506080880151925060a0880151915060c0880151620004be8162000421565b8091505092959891949750929550565b600060208284031215620004e157600080fd5b8151620004ee8162000421565b9392505050565b60805160a05160c05160e0516101005161012051610140516101605161018051612b236200066960003960008181611027015281816110af015261117101526000612029015260008181610d310152610f08015260008181610c3a01528181610daa01528181610e6901528181611f5901528181612054015281816120ff01526121a801526000818161123301526113a00152600081816117e701528181611be20152611cf00152600081816101da01526112f9015260008181610277015281816103ed015281816104ff0152818161062f015281816114e0015281816115bb0152818161194701528181611c390152611e2101526000818161018c015281816103c2015281816104cf015281816105ba015281816106c601528181611201015281816112a00152818161136b0152818161162d0152818161166d0152818161175d015281816117a2015281816119de01528181611a8d01528181611bb001528181611cba0152611ea20152612b236000f3fe608060405234801561001057600080fd5b50600436106101825760003560e01c8063affc0a95116100d8578063d28cd38a1161008c578063e404251211610066578063e40425121461031f578063e940325614610332578063f3daeacc1461034557600080fd5b8063d28cd38a146102fb578063d79c019614610303578063da09c72c1461030c57600080fd5b8063c10300f7116100bd578063c10300f714610230578063c613aec0146102bf578063d279c191146102e857600080fd5b8063affc0a9514610299578063bf4d14d5146102ac57600080fd5b8063566155291161013a57806367860cce1161011457806367860cce146102435780639291d5631461025f5780639d54b5241461027257600080fd5b806356615529146102305780635c72f4b514610243578063653bfa201461025657600080fd5b806328495daa1161016b57806328495daa146101d557806331d7a262146101fc5780633b8ae3971461021d57600080fd5b8063026879dc1461018757806311ff5fff146101cb575b600080fd5b6101ae7f000000000000000000000000000000000000000000000000000000000000000081565b6040516001600160a01b0390911681526020015b60405180910390f35b6101d3610358565b005b6101ae7f000000000000000000000000000000000000000000000000000000000000000081565b61020f61020a366004612574565b6104fa565b6040519081526020016101c2565b6101d361022b366004612574565b61074c565b6101d361023e366004612591565b6108cc565b6101d3610251366004612591565b61096b565b61020f60025481565b6101d361026d366004612574565b610a0a565b6101ae7f000000000000000000000000000000000000000000000000000000000000000081565b6101d36102a7366004612591565b610b03565b61020f6102ba366004612591565b610b56565b6101ae6102cd366004612574565b6001602052600090815260409020546001600160a01b031681565b6101d36102f6366004612574565b6113f5565b61020f61178b565b61020f60035481565b6000546101ae906001600160a01b031681565b6101d361032d366004612591565b611859565b61020f610340366004612574565b6118ac565b6101d3610353366004612591565b611b00565b6000546001600160a01b031633146103ab5760405162461bcd60e51b815260206004820152601160248201527023b6bc283937bc3c9d1d37b7363ca232bb60791b60448201526064015b60405180910390fd5b6040516370a0823160e01b81526001600160a01b037f00000000000000000000000000000000000000000000000000000000000000001660048201526104f7907f00000000000000000000000000000000000000000000000000000000000000009060009073ff1489227bbaac61a9209a08929e4c2a526ddd17906370a0823190602401602060405180830381865afa15801561044c573d6000803e3d6000fd5b505050506040513d601f19601f8201168201806040525081019061047091906125aa565b60405160240161048291815260200190565b60408051601f198184030181529190526020810180516001600160e01b03167fef8c5994000000000000000000000000000000000000000000000000000000001790526001600160a01b037f000000000000000000000000000000000000000000000000000000000000000016929190611d45565b50565b6000807f00000000000000000000000000000000000000000000000000000000000000006001600160a01b03166351c3e3b46040518163ffffffff1660e01b8152600401602060405180830381865afa15801561055b573d6000803e3d6000fd5b505050506040513d601f19601f8201168201806040525081019061057f91906125c3565b9050806001600160a01b0316836001600160a01b0316036105a35750600092915050565b60405163402914f560e01b81526001600160a01b037f00000000000000000000000000000000000000000000000000000000000000008116600483015282169063402914f590602401602060405180830381865afa158015610609573d6000803e3d6000fd5b505050506040513d601f19601f8201168201806040525081019061062d91906125aa565b7f00000000000000000000000000000000000000000000000000000000000000006001600160a01b031663e1c363b76040518163ffffffff1660e01b8152600401602060405180830381865afa15801561068b573d6000803e3d6000fd5b505050506040513d601f19601f820116820180604052508101906106af91906125c3565b60405163402914f560e01b81526001600160a01b037f000000000000000000000000000000000000000000000000000000000000000081166004830152919091169063402914f590602401602060405180830381865afa158015610717573d6000803e3d6000fd5b505050506040513d601f19601f8201168201806040525081019061073b91906125aa565b61074591906125f6565b9392505050565b6000546001600160a01b0316331461079a5760405162461bcd60e51b815260206004820152601160248201527023b6bc283937bc3c9d1d37b7363ca232bb60791b60448201526064016103a2565b6000816001600160a01b031663c89039c56040518163ffffffff1660e01b8152600401602060405180830381865afa1580156107da573d6000803e3d6000fd5b505050506040513d601f19601f820116820180604052508101906107fe91906125c3565b6001600160a01b03808216600090815260016020526040902054919250161561088f5760405162461bcd60e51b815260206004820152603260248201527f476d7850726f78793a3a537472617465677920666f72206465706f736974207460448201527f6f6b656e20616c7265616479206164646564000000000000000000000000000060648201526084016103a2565b6001600160a01b03908116600090815260016020526040902080549190921673ffffffffffffffffffffffffffffffffffffffff19909116179055565b7362edc0692bd897d2295872a9ffcac5425011c66160005260016020527fd9b87995a89b1c84b4bab64e3cd6e44e97280b5a5983d834af443d8e17a7f9b9546001600160a01b031633146109625760405162461bcd60e51b815260206004820152601960248201527f476d7850726f78793a3a6f6e6c79474d5853747261746567790000000000000060448201526064016103a2565b6104f781611e1c565b735643f4b25e36478ee1e90418d5343cb6591bcb9d60005260016020527f4c252107cf1470690ef2505b089a8ebb4870160623fd1d6a4afa8513ed4add90546001600160a01b03163314610a015760405162461bcd60e51b815260206004820152601860248201527f476d7850726f78793a6f6e6c79474c505374726174656779000000000000000060448201526064016103a2565b6104f781611f00565b6000546001600160a01b03163314610a585760405162461bcd60e51b815260206004820152601160248201527023b6bc283937bc3c9d1d37b7363ca232bb60791b60448201526064016103a2565b6001600160a01b038116610ad45760405162461bcd60e51b815260206004820152602660248201527f476d7850726f78793a3a496e76616c696420646576206164647265737320707260448201527f6f7669646564000000000000000000000000000000000000000000000000000060648201526084016103a2565b6000805473ffffffffffffffffffffffffffffffffffffffff19166001600160a01b0392909216919091179055565b6000546001600160a01b03163314610b515760405162461bcd60e51b815260206004820152601160248201527023b6bc283937bc3c9d1d37b7363ca232bb60791b60448201526064016103a2565b600355565b735643f4b25e36478ee1e90418d5343cb6591bcb9d600090815260016020527f4c252107cf1470690ef2505b089a8ebb4870160623fd1d6a4afa8513ed4add90546001600160a01b03163314610bee5760405162461bcd60e51b815260206004820152601860248201527f476d7850726f78793a6f6e6c79474c505374726174656779000000000000000060448201526064016103a2565b60025473b31f66aa3c1e785363f0875a1b74e27b85fd66c7908310156111f2576040516340d3096b60e11b815273b31f66aa3c1e785363f0875a1b74e27b85fd66c760048201526000907f00000000000000000000000000000000000000000000000000000000000000006001600160a01b0316906381a612d690602401602060405180830381865afa158015610c89573d6000803e3d6000fd5b505050506040513d601f19601f82011682018060405250810190610cad91906125aa565b905060006c0c9f2c9cd04674edea40000000610cc9838761260e565b610cd3919061262d565b90506000610cf573b31f66aa3c1e785363f0875a1b74e27b85fd66c787611f35565b610d0157600019610da4565b60405163256f6ee360e11b815273b31f66aa3c1e785363f0875a1b74e27b85fd66c76004820152602481018390527f00000000000000000000000000000000000000000000000000000000000000006001600160a01b031690634adeddc690604401602060405180830381865afa158015610d80573d6000803e3d6000fd5b505050506040513d601f19601f82011682018060405250810190610da491906125aa565b905060007f00000000000000000000000000000000000000000000000000000000000000006001600160a01b0316630842b0766040518163ffffffff1660e01b8152600401602060405180830381865afa158015610e06573d6000803e3d6000fd5b505050506040513d601f19601f82011682018060405250810190610e2a91906125aa565b905060005b81811015610fa6576040517fe468baf0000000000000000000000000000000000000000000000000000000008152600481018290526000907f00000000000000000000000000000000000000000000000000000000000000006001600160a01b03169063e468baf090602401602060405180830381865afa158015610eb8573d6000803e3d6000fd5b505050506040513d601f19601f82011682018060405250810190610edc91906125c3565b60405163256f6ee360e11b81526001600160a01b038083166004830152602482018890529192506000917f00000000000000000000000000000000000000000000000000000000000000001690634adeddc690604401602060405180830381865afa158015610f4f573d6000803e3d6000fd5b505050506040513d601f19601f82011682018060405250810190610f7391906125aa565b90508460035482610f8491906125f6565b1015610f91578094508197505b50508080610f9e9061264f565b915050610e2f565b506001600160a01b03851673b31f66aa3c1e785363f0875a1b74e27b85fd66c7146111ed576040517fef99893a0000000000000000000000000000000000000000000000000000000081526004810188905273b31f66aa3c1e785363f0875a1b74e27b85fd66c760248201526001600160a01b0386811660448301526000917f00000000000000000000000000000000000000000000000000000000000000009091169063ef99893a90606401600060405180830381865afa158015611070573d6000803e3d6000fd5b505050506040513d6000823e601f3d908101601f191682016040526110989190810190612770565b60405163095ea7b360e01b81526001600160a01b037f0000000000000000000000000000000000000000000000000000000000000000166004820152602481018a905290915073b31f66aa3c1e785363f0875a1b74e27b85fd66c79063095ea7b3906044016020604051808303816000875af115801561111c573d6000803e3d6000fd5b505050506040513d601f19601f820116820180604052508101906111409190612895565b506040517f5b2466160000000000000000000000000000000000000000000000000000000081526001600160a01b037f00000000000000000000000000000000000000000000000000000000000000001690635b246616906111a69084906004016128f4565b6020604051808303816000875af11580156111c5573d6000803e3d6000fd5b505050506040513d601f19601f820116820180604052508101906111e991906125aa565b9750505b505050505b6112266001600160a01b0382167f000000000000000000000000000000000000000000000000000000000000000085612235565b6040516001600160a01b037f0000000000000000000000000000000000000000000000000000000000000000166024820152604481018490526112c89082906000906064015b60408051601f198184030181529190526020810180516001600160e01b031663095ea7b360e01b1790526001600160a01b037f000000000000000000000000000000000000000000000000000000000000000016929190611d45565b506040516001600160a01b0382166024820152604481018490526000606482018190526084820181905290611393907f000000000000000000000000000000000000000000000000000000000000000090839060a40160408051601f198184030181529190526020810180516001600160e01b03167f364e2311000000000000000000000000000000000000000000000000000000001790526001600160a01b037f000000000000000000000000000000000000000000000000000000000000000016929190611d45565b6040516001600160a01b037f00000000000000000000000000000000000000000000000000000000000000001660248201526000604482018190529192506113df91849160640161126c565b506113eb81600061228c565b925050505b919050565b735643f4b25e36478ee1e90418d5343cb6591bcb9d60005260016020527f4c252107cf1470690ef2505b089a8ebb4870160623fd1d6a4afa8513ed4add90546001600160a01b031633148061149057507362edc0692bd897d2295872a9ffcac5425011c66160005260016020527fd9b87995a89b1c84b4bab64e3cd6e44e97280b5a5983d834af443d8e17a7f9b9546001600160a01b031633145b6114dc5760405162461bcd60e51b815260206004820152601860248201527f476d7850726f78793a6f6e6c79474c505374726174656779000000000000000060448201526064016103a2565b60007f00000000000000000000000000000000000000000000000000000000000000006001600160a01b03166351c3e3b46040518163ffffffff1660e01b8152600401602060405180830381865afa15801561153c573d6000803e3d6000fd5b505050506040513d601f19601f8201168201806040525081019061156091906125c3565b9050806001600160a01b0316826001600160a01b03160361157f575050565b604051600060248201819052604482018190526001606483018190526084830181905260a4830181905260c483015260e48201819052611655917f000000000000000000000000000000000000000000000000000000000000000091906101040160408051601f198184030181529190526020810180516001600160e01b03167f30b70002000000000000000000000000000000000000000000000000000000001790526001600160a01b037f000000000000000000000000000000000000000000000000000000000000000016929190611d45565b506040516370a0823160e01b81526001600160a01b037f000000000000000000000000000000000000000000000000000000000000000016600482015260009073b31f66aa3c1e785363f0875a1b74e27b85fd66c7906370a0823190602401602060405180830381865afa1580156116d1573d6000803e3d6000fd5b505050506040513d601f19601f820116820180604052508101906116f591906125aa565b604051336024820152604481018290529091506117859073b31f66aa3c1e785363f0875a1b74e27b85fd66c7906000906064015b60408051601f198184030181529190526020810180516001600160e01b031663a9059cbb60e01b1790526001600160a01b037f000000000000000000000000000000000000000000000000000000000000000016929190611d45565b50505050565b604051637aeceb1f60e11b81526001600160a01b037f00000000000000000000000000000000000000000000000000000000000000008116600483015273ff1489227bbaac61a9209a08929e4c2a526ddd1760248301526000917f00000000000000000000000000000000000000000000000000000000000000009091169063f5d9d63e90604401602060405180830381865afa158015611830573d6000803e3d6000fd5b505050506040513d601f19601f8201168201806040525081019061185491906125aa565b905090565b6000546001600160a01b031633146118a75760405162461bcd60e51b815260206004820152601160248201527023b6bc283937bc3c9d1d37b7363ca232bb60791b60448201526064016103a2565b600255565b600080336001600160a01b031663c89039c56040518163ffffffff1660e01b8152600401602060405180830381865afa1580156118ed573d6000803e3d6000fd5b505050506040513d601f19601f8201168201806040525081019061191191906125c3565b90507fffffffffffffffffffffffff9d123f96d427682dd6a78d5600353abdafee399f6001600160a01b03821601611a5d5760007f00000000000000000000000000000000000000000000000000000000000000006001600160a01b0316630ce4018a6040518163ffffffff1660e01b8152600401602060405180830381865afa1580156119a3573d6000803e3d6000fd5b505050506040513d601f19601f820116820180604052508101906119c791906125c3565b604051637aeceb1f60e11b81526001600160a01b037f00000000000000000000000000000000000000000000000000000000000000008116600483015284811660248301529192509082169063f5d9d63e90604401602060405180830381865afa158015611a39573d6000803e3d6000fd5b505050506040513d601f19601f820116820180604052508101906113eb91906125aa565b6040517f10c1c1030000000000000000000000000000000000000000000000000000000081526001600160a01b037f0000000000000000000000000000000000000000000000000000000000000000811660048301528416906310c1c10390602401602060405180830381865afa158015611adc573d6000803e3d6000fd5b505050506040513d601f19601f8201168201806040525081019061074591906125aa565b7362edc0692bd897d2295872a9ffcac5425011c66160005260016020527fd9b87995a89b1c84b4bab64e3cd6e44e97280b5a5983d834af443d8e17a7f9b9546001600160a01b03163314611b965760405162461bcd60e51b815260206004820152601960248201527f476d7850726f78793a3a6f6e6c79474d5853747261746567790000000000000060448201526064016103a2565b611bd57362edc0692bd897d2295872a9ffcac5425011c6617f000000000000000000000000000000000000000000000000000000000000000083612235565b6040516001600160a01b037f000000000000000000000000000000000000000000000000000000000000000016602482015260448101829052611c33907362edc0692bd897d2295872a9ffcac5425011c6619060009060640161126c565b50611ce27f0000000000000000000000000000000000000000000000000000000000000000600083604051602401611c6d91815260200190565b60408051601f198184030181529190526020810180516001600160e01b03167ff3daeacc000000000000000000000000000000000000000000000000000000001790526001600160a01b037f000000000000000000000000000000000000000000000000000000000000000016929190611d45565b506040516001600160a01b037f0000000000000000000000000000000000000000000000000000000000000000166024820152600060448201819052611d41917362edc0692bd897d2295872a9ffcac5425011c661919060640161126c565b5050565b6060600080866001600160a01b031663b61d27f68787876040518463ffffffff1660e01b8152600401611d7a939291906129e6565b6000604051808303816000875af1158015611d99573d6000803e3d6000fd5b505050506040513d6000823e601f3d908101601f19168201604052611dc19190810190612a17565b9150915081611e125760405162461bcd60e51b815260206004820152601c60248201527f476d7850726f78793a3a7361666545786563757465206661696c65640000000060448201526064016103a2565b9695505050505050565b611eca7f0000000000000000000000000000000000000000000000000000000000000000600083604051602401611e5591815260200190565b60408051601f198184030181529190526020810180516001600160e01b03167f078580d2000000000000000000000000000000000000000000000000000000001790526001600160a01b037f000000000000000000000000000000000000000000000000000000000000000016929190611d45565b5060405133602482015260448101829052611d41907362edc0692bd897d2295872a9ffcac5425011c66190600090606401611729565b60405133602482015260448101829052611d4190735643f4b25e36478ee1e90418d5343cb6591bcb9d90600090606401611729565b6040516340d3096b60e11b81526001600160a01b03838116600483015260009182917f000000000000000000000000000000000000000000000000000000000000000016906381a612d690602401602060405180830381865afa158015611fa0573d6000803e3d6000fd5b505050506040513d601f19601f82011682018060405250810190611fc491906125aa565b905060006c0c9f2c9cd04674edea40000000611fe0838661260e565b611fea919061262d565b6040517f42152873000000000000000000000000000000000000000000000000000000008152600481018290526001600160a01b0387811660248301527f0000000000000000000000000000000000000000000000000000000000000000811660448301529192507f000000000000000000000000000000000000000000000000000000000000000090911690634215287390606401602060405180830381865afa15801561209d573d6000803e3d6000fd5b505050506040513d601f19601f820116820180604052508101906120c191906125aa565b6040517f1aa4ace50000000000000000000000000000000000000000000000000000000081526001600160a01b0387811660048301529192506000917f00000000000000000000000000000000000000000000000000000000000000001690631aa4ace590602401602060405180830381865afa158015612146573d6000803e3d6000fd5b505050506040513d601f19601f8201168201806040525081019061216a91906125aa565b6040517fad1e4f8d0000000000000000000000000000000000000000000000000000000081526001600160a01b0388811660048301529192506000917f0000000000000000000000000000000000000000000000000000000000000000169063ad1e4f8d90602401602060405180830381865afa1580156121ef573d6000803e3d6000fd5b505050506040513d601f19601f8201168201806040525081019061221391906125aa565b905080158061222a57508061222884846125f6565b105b979650505050505050565b604080516001600160a01b038416602482015260448082018490528251808303909101815260649091019091526020810180516001600160e01b031663a9059cbb60e01b1790526122879084906122f2565b505050565b60006122998260206125f6565b835110156122e95760405162461bcd60e51b815260206004820152601560248201527f746f55696e743235365f6f75744f66426f756e6473000000000000000000000060448201526064016103a2565b50016020015190565b6000612347826040518060400160405280602081526020017f5361666545524332303a206c6f772d6c6576656c2063616c6c206661696c6564815250856001600160a01b03166123d79092919063ffffffff16565b80519091501561228757808060200190518101906123659190612895565b6122875760405162461bcd60e51b815260206004820152602a60248201527f5361666545524332303a204552433230206f7065726174696f6e20646964206e60448201527f6f7420737563636565640000000000000000000000000000000000000000000060648201526084016103a2565b60606123e684846000856123ee565b949350505050565b6060824710156124665760405162461bcd60e51b815260206004820152602660248201527f416464726573733a20696e73756666696369656e742062616c616e636520666f60448201527f722063616c6c000000000000000000000000000000000000000000000000000060648201526084016103a2565b6001600160a01b0385163b6124bd5760405162461bcd60e51b815260206004820152601d60248201527f416464726573733a2063616c6c20746f206e6f6e2d636f6e747261637400000060448201526064016103a2565b600080866001600160a01b031685876040516124d99190612abe565b60006040518083038185875af1925050503d8060008114612516576040519150601f19603f3d011682016040523d82523d6000602084013e61251b565b606091505b509150915061222a82828660608315612535575081610745565b8251156125455782518084602001fd5b8160405162461bcd60e51b81526004016103a29190612ada565b6001600160a01b03811681146104f757600080fd5b60006020828403121561258657600080fd5b81356107458161255f565b6000602082840312156125a357600080fd5b5035919050565b6000602082840312156125bc57600080fd5b5051919050565b6000602082840312156125d557600080fd5b81516107458161255f565b634e487b7160e01b600052601160045260246000fd5b60008219821115612609576126096125e0565b500190565b6000816000190483118215151615612628576126286125e0565b500290565b60008261264a57634e487b7160e01b600052601260045260246000fd5b500490565b600060018201612661576126616125e0565b5060010190565b634e487b7160e01b600052604160045260246000fd5b6040516080810167ffffffffffffffff811182821017156126a1576126a1612668565b60405290565b604051601f8201601f1916810167ffffffffffffffff811182821017156126d0576126d0612668565b604052919050565b600067ffffffffffffffff8211156126f2576126f2612668565b5060051b60200190565b600082601f83011261270d57600080fd5b8151602061272261271d836126d8565b6126a7565b82815260059290921b8401810191818101908684111561274157600080fd5b8286015b848110156127655780516127588161255f565b8352918301918301612745565b509695505050505050565b6000602080838503121561278357600080fd5b825167ffffffffffffffff8082111561279b57600080fd5b90840190608082870312156127af57600080fd5b6127b761267e565b8251828111156127c657600080fd5b8301601f810188136127d757600080fd5b80516127e561271d826126d8565b81815260059190911b8201860190868101908a83111561280457600080fd5b928701925b8284101561282257835182529287019290870190612809565b8452505050828401518281111561283857600080fd5b612844888286016126fc565b8583015250604083015193508184111561285d57600080fd5b612869878585016126fc565b6040820152606083015160608201528094505050505092915050565b805180151581146113f057600080fd5b6000602082840312156128a757600080fd5b61074582612885565b600081518084526020808501945080840160005b838110156128e95781516001600160a01b0316875295820195908201906001016128c4565b509495945050505050565b60208082528251608083830152805160a0840181905260009291820190839060c08601905b808310156129395783518252928401926001929092019190840190612919565b50838701519350601f1992508286820301604087015261295981856128b0565b9350505060408501518185840301606086015261297683826128b0565b92505050606084015160808401528091505092915050565b60005b838110156129a9578181015183820152602001612991565b838111156117855750506000910152565b600081518084526129d281602086016020860161298e565b601f01601f19169290920160200192915050565b6001600160a01b0384168152826020820152606060408201526000612a0e60608301846129ba565b95945050505050565b60008060408385031215612a2a57600080fd5b612a3383612885565b9150602083015167ffffffffffffffff80821115612a5057600080fd5b818501915085601f830112612a6457600080fd5b815181811115612a7657612a76612668565b612a89601f8201601f19166020016126a7565b9150808252866020828501011115612aa057600080fd5b612ab181602084016020860161298e565b5080925050509250929050565b60008251612ad081846020870161298e565b9190910192915050565b60208152600061074560208301846129ba56fea2646970667358221220d949502b00527d4a4a7602c878c3801e7c2605323b523bd751b427a37326053164736f6c634300080d0033",
  "devdoc": {
    "kind": "dev",
    "methods": {},
    "version": 1
  },
  "userdoc": {
    "kind": "user",
    "methods": {},
    "version": 1
  },
  "storageLayout": {
    "storage": [
      {
        "astId": 4509,
        "contract": "contracts/strategies/avalanche/gmx/GmxProxy.sol:GmxProxy",
        "label": "devAddr",
        "offset": 0,
        "slot": "0",
        "type": "t_address"
      },
      {
        "astId": 4513,
        "contract": "contracts/strategies/avalanche/gmx/GmxProxy.sol:GmxProxy",
        "label": "approvedStrategies",
        "offset": 0,
        "slot": "1",
        "type": "t_mapping(t_address,t_address)"
      },
      {
        "astId": 4537,
        "contract": "contracts/strategies/avalanche/gmx/GmxProxy.sol:GmxProxy",
        "label": "maxWavaxSwapAmount",
        "offset": 0,
        "slot": "2",
        "type": "t_uint256"
      },
      {
        "astId": 4539,
        "contract": "contracts/strategies/avalanche/gmx/GmxProxy.sol:GmxProxy",
        "label": "minFeeDifference",
        "offset": 0,
        "slot": "3",
        "type": "t_uint256"
      }
    ],
    "types": {
      "t_address": {
        "encoding": "inplace",
        "label": "address",
        "numberOfBytes": "20"
      },
      "t_mapping(t_address,t_address)": {
        "encoding": "mapping",
        "key": "t_address",
        "label": "mapping(address => address)",
        "numberOfBytes": "32",
        "value": "t_address"
      },
      "t_uint256": {
        "encoding": "inplace",
        "label": "uint256",
        "numberOfBytes": "32"
      }
    }
  }
}