{
  "address": "0x13a80aBe608A054059CfB54Ef08809a05Fc07b82",
  "abi": [
    {
      "inputs": [],
      "name": "getRate",
      "outputs": [
        {
          "internalType": "uint256",
          "name": "",
          "type": "uint256"
        }
      ],
      "stateMutability": "view",
      "type": "function"
    }
  ],
  "transactionHash": "0x0d6e3b9988be61c2db64f0df3563f7e587efc8834aa062c9004fd89d5772b386",
  "args": [],
  "solcInputHash": "f4283021921373ee7430f5e556cd450a",
  "bytecode": "0x608060405234801561001057600080fd5b5061014d806100206000396000f3fe608060405234801561001057600080fd5b506004361061002b5760003560e01c8063679aefce14610030575b600080fd5b61003861004a565b60405190815260200160405180910390f35b6040517ff759cc3b0000000000000000000000000000000000000000000000000000000081527f65293248ac7dc05120c6bee23cd982992894bed99a7f0b75c2c5b011ef1e4f386004820152600090736026a85e11bd895c934af02647e8c7b4ea2d98089063f759cc3b90602401602060405180830381865afa1580156100d5573d6000803e3d6000fd5b505050506040513d601f19601f820116820180604052508101906100f991906100fe565b905090565b60006020828403121561011057600080fd5b505191905056fea26469706673582212209c3cbcd477fc85f90165bd5098518b315c684426028e9d8f8113a9ce72932ed464736f6c634300080d0033",
  "devdoc": {
    "details": "Stored rate is read from gAVAX (ERC-1155) using yyAVAX's id.",
    "kind": "dev",
    "methods": {},
    "title": "yyAVAX Rate Provider",
    "version": 1
  },
  "userdoc": {
    "kind": "user",
    "methods": {
      "getRate()": {
        "notice": "Returns the value of yyAVAX in terms of AVAX"
      }
    },
    "notice": "Returns the value of yyAVAX in terms of AVAX",
    "version": 1
  },
  "storageLayout": {
    "storage": [],
    "types": null
  }
}