{
  "address": "0x16Fb7860Bd5e34E0021396fD79d7561eb4409023",
  "abi": [
    {
      "inputs": [
        {
          "internalType": "address",
          "name": "_rebalancePool",
          "type": "address"
        },
        {
          "components": [
            {
              "internalType": "address",
              "name": "gasToken",
              "type": "address"
            },
            {
              "internalType": "address[]",
              "name": "rewards",
              "type": "address[]"
            },
            {
              "internalType": "address",
              "name": "simpleRouter",
              "type": "address"
            }
          ],
          "internalType": "struct BaseStrategy.BaseStrategySettings",
          "name": "_baseStrategySettings",
          "type": "tuple"
        },
        {
          "components": [
            {
              "internalType": "string",
              "name": "name",
              "type": "string"
            },
            {
              "internalType": "address",
              "name": "owner",
              "type": "address"
            },
            {
              "internalType": "address",
              "name": "dev",
              "type": "address"
            },
            {
              "internalType": "address",
              "name": "feeCollector",
              "type": "address"
            },
            {
              "internalType": "address",
              "name": "depositToken",
              "type": "address"
            },
            {
              "internalType": "address",
              "name": "rewardToken",
              "type": "address"
            },
            {
              "internalType": "uint256",
              "name": "minTokensToReinvest",
              "type": "uint256"
            },
            {
              "internalType": "uint256",
              "name": "devFeeBips",
              "type": "uint256"
            },
            {
              "internalType": "uint256",
              "name": "reinvestRewardBips",
              "type": "uint256"
            }
          ],
          "internalType": "struct YakStrategyV3.StrategySettings",
          "name": "_strategySettings",
          "type": "tuple"
        }
      ],
      "stateMutability": "nonpayable",
      "type": "constructor"
    },
    {
      "anonymous": false,
      "inputs": [
        {
          "indexed": false,
          "internalType": "address",
          "name": "rewardToken",
          "type": "address"
        }
      ],
      "name": "AddReward",
      "type": "event"
    },
    {
      "anonymous": false,
      "inputs": [
        {
          "indexed": true,
          "internalType": "address",
          "name": "owner",
          "type": "address"
        },
        {
          "indexed": true,
          "internalType": "address",
          "name": "spender",
          "type": "address"
        },
        {
          "indexed": false,
          "internalType": "uint256",
          "name": "value",
          "type": "uint256"
        }
      ],
      "name": "Approval",
      "type": "event"
    },
    {
      "anonymous": false,
      "inputs": [
        {
          "indexed": true,
          "internalType": "address",
          "name": "account",
          "type": "address"
        },
        {
          "indexed": false,
          "internalType": "uint256",
          "name": "amount",
          "type": "uint256"
        }
      ],
      "name": "Deposit",
      "type": "event"
    },
    {
      "anonymous": false,
      "inputs": [
        {
          "indexed": false,
          "internalType": "bool",
          "name": "newValue",
          "type": "bool"
        }
      ],
      "name": "DepositsEnabled",
      "type": "event"
    },
    {
      "anonymous": false,
      "inputs": [
        {
          "indexed": true,
          "internalType": "address",
          "name": "previousOwner",
          "type": "address"
        },
        {
          "indexed": true,
          "internalType": "address",
          "name": "newOwner",
          "type": "address"
        }
      ],
      "name": "OwnershipTransferred",
      "type": "event"
    },
    {
      "anonymous": false,
      "inputs": [
        {
          "indexed": false,
          "internalType": "address",
          "name": "token",
          "type": "address"
        },
        {
          "indexed": false,
          "internalType": "uint256",
          "name": "amount",
          "type": "uint256"
        }
      ],
      "name": "Recovered",
      "type": "event"
    },
    {
      "anonymous": false,
      "inputs": [
        {
          "indexed": false,
          "internalType": "uint256",
          "name": "newTotalDeposits",
          "type": "uint256"
        },
        {
          "indexed": false,
          "internalType": "uint256",
          "name": "newTotalSupply",
          "type": "uint256"
        }
      ],
      "name": "Reinvest",
      "type": "event"
    },
    {
      "anonymous": false,
      "inputs": [
        {
          "indexed": false,
          "internalType": "address",
          "name": "rewardToken",
          "type": "address"
        }
      ],
      "name": "RemoveReward",
      "type": "event"
    },
    {
      "anonymous": false,
      "inputs": [
        {
          "indexed": true,
          "internalType": "address",
          "name": "from",
          "type": "address"
        },
        {
          "indexed": true,
          "internalType": "address",
          "name": "to",
          "type": "address"
        },
        {
          "indexed": false,
          "internalType": "uint256",
          "name": "value",
          "type": "uint256"
        }
      ],
      "name": "Transfer",
      "type": "event"
    },
    {
      "anonymous": false,
      "inputs": [
        {
          "indexed": false,
          "internalType": "address",
          "name": "oldValue",
          "type": "address"
        },
        {
          "indexed": false,
          "internalType": "address",
          "name": "newValue",
          "type": "address"
        }
      ],
      "name": "UpdateDevAddr",
      "type": "event"
    },
    {
      "anonymous": false,
      "inputs": [
        {
          "indexed": false,
          "internalType": "uint256",
          "name": "oldValue",
          "type": "uint256"
        },
        {
          "indexed": false,
          "internalType": "uint256",
          "name": "newValue",
          "type": "uint256"
        }
      ],
      "name": "UpdateDevFee",
      "type": "event"
    },
    {
      "anonymous": false,
      "inputs": [
        {
          "indexed": false,
          "internalType": "address",
          "name": "oldValue",
          "type": "address"
        },
        {
          "indexed": false,
          "internalType": "address",
          "name": "newValue",
          "type": "address"
        }
      ],
      "name": "UpdateFeeCollector",
      "type": "event"
    },
    {
      "anonymous": false,
      "inputs": [
        {
          "indexed": false,
          "internalType": "uint256",
          "name": "oldValue",
          "type": "uint256"
        },
        {
          "indexed": false,
          "internalType": "uint256",
          "name": "newValue",
          "type": "uint256"
        }
      ],
      "name": "UpdateMaxTokensToDepositWithoutReinvest",
      "type": "event"
    },
    {
      "anonymous": false,
      "inputs": [
        {
          "indexed": false,
          "internalType": "uint256",
          "name": "oldValue",
          "type": "uint256"
        },
        {
          "indexed": false,
          "internalType": "uint256",
          "name": "newValue",
          "type": "uint256"
        }
      ],
      "name": "UpdateMinTokensToReinvest",
      "type": "event"
    },
    {
      "anonymous": false,
      "inputs": [
        {
          "indexed": false,
          "internalType": "uint256",
          "name": "oldValue",
          "type": "uint256"
        },
        {
          "indexed": false,
          "internalType": "uint256",
          "name": "newValue",
          "type": "uint256"
        }
      ],
      "name": "UpdateReinvestReward",
      "type": "event"
    },
    {
      "anonymous": false,
      "inputs": [
        {
          "indexed": false,
          "internalType": "address",
          "name": "oldRouter",
          "type": "address"
        },
        {
          "indexed": false,
          "internalType": "address",
          "name": "newRouter",
          "type": "address"
        }
      ],
      "name": "UpdateRouter",
      "type": "event"
    },
    {
      "anonymous": false,
      "inputs": [
        {
          "indexed": true,
          "internalType": "address",
          "name": "account",
          "type": "address"
        },
        {
          "indexed": false,
          "internalType": "uint256",
          "name": "amount",
          "type": "uint256"
        }
      ],
      "name": "Withdraw",
      "type": "event"
    },
    {
      "inputs": [],
      "name": "DEPOSITS_ENABLED",
      "outputs": [
        {
          "internalType": "bool",
          "name": "",
          "type": "bool"
        }
      ],
      "stateMutability": "view",
      "type": "function"
    },
    {
      "inputs": [],
      "name": "DEV_FEE_BIPS",
      "outputs": [
        {
          "internalType": "uint256",
          "name": "",
          "type": "uint256"
        }
      ],
      "stateMutability": "view",
      "type": "function"
    },
    {
      "inputs": [],
      "name": "DOMAIN_TYPEHASH",
      "outputs": [
        {
          "internalType": "bytes32",
          "name": "",
          "type": "bytes32"
        }
      ],
      "stateMutability": "view",
      "type": "function"
    },
    {
      "inputs": [],
      "name": "MIN_TOKENS_TO_REINVEST",
      "outputs": [
        {
          "internalType": "uint256",
          "name": "",
          "type": "uint256"
        }
      ],
      "stateMutability": "view",
      "type": "function"
    },
    {
      "inputs": [],
      "name": "PERMIT_TYPEHASH",
      "outputs": [
        {
          "internalType": "bytes32",
          "name": "",
          "type": "bytes32"
        }
      ],
      "stateMutability": "view",
      "type": "function"
    },
    {
      "inputs": [],
      "name": "REINVEST_REWARD_BIPS",
      "outputs": [
        {
          "internalType": "uint256",
          "name": "",
          "type": "uint256"
        }
      ],
      "stateMutability": "view",
      "type": "function"
    },
    {
      "inputs": [],
      "name": "VERSION_HASH",
      "outputs": [
        {
          "internalType": "bytes32",
          "name": "",
          "type": "bytes32"
        }
      ],
      "stateMutability": "view",
      "type": "function"
    },
    {
      "inputs": [
        {
          "internalType": "address",
          "name": "_rewardToken",
          "type": "address"
        }
      ],
      "name": "addReward",
      "outputs": [],
      "stateMutability": "nonpayable",
      "type": "function"
    },
    {
      "inputs": [
        {
          "internalType": "address",
          "name": "account",
          "type": "address"
        },
        {
          "internalType": "address",
          "name": "spender",
          "type": "address"
        }
      ],
      "name": "allowance",
      "outputs": [
        {
          "internalType": "uint256",
          "name": "",
          "type": "uint256"
        }
      ],
      "stateMutability": "view",
      "type": "function"
    },
    {
      "inputs": [
        {
          "internalType": "address",
          "name": "spender",
          "type": "address"
        },
        {
          "internalType": "uint256",
          "name": "amount",
          "type": "uint256"
        }
      ],
      "name": "approve",
      "outputs": [
        {
          "internalType": "bool",
          "name": "",
          "type": "bool"
        }
      ],
      "stateMutability": "nonpayable",
      "type": "function"
    },
    {
      "inputs": [
        {
          "internalType": "address",
          "name": "account",
          "type": "address"
        }
      ],
      "name": "balanceOf",
      "outputs": [
        {
          "internalType": "uint256",
          "name": "",
          "type": "uint256"
        }
      ],
      "stateMutability": "view",
      "type": "function"
    },
    {
      "inputs": [],
      "name": "baseRewardToken",
      "outputs": [
        {
          "internalType": "address",
          "name": "",
          "type": "address"
        }
      ],
      "stateMutability": "view",
      "type": "function"
    },
    {
      "inputs": [
        {
          "internalType": "uint256",
          "name": "_amount",
          "type": "uint256"
        }
      ],
      "name": "calculateDepositFee",
      "outputs": [
        {
          "internalType": "uint256",
          "name": "",
          "type": "uint256"
        }
      ],
      "stateMutability": "view",
      "type": "function"
    },
    {
      "inputs": [
        {
          "internalType": "uint256",
          "name": "_amount",
          "type": "uint256"
        }
      ],
      "name": "calculateWithdrawFee",
      "outputs": [
        {
          "internalType": "uint256",
          "name": "",
          "type": "uint256"
        }
      ],
      "stateMutability": "view",
      "type": "function"
    },
    {
      "inputs": [],
      "name": "checkReward",
      "outputs": [
        {
          "internalType": "uint256",
          "name": "",
          "type": "uint256"
        }
      ],
      "stateMutability": "view",
      "type": "function"
    },
    {
      "inputs": [],
      "name": "decimals",
      "outputs": [
        {
          "internalType": "uint8",
          "name": "",
          "type": "uint8"
        }
      ],
      "stateMutability": "view",
      "type": "function"
    },
    {
      "inputs": [
        {
          "internalType": "uint256",
          "name": "_amount",
          "type": "uint256"
        }
      ],
      "name": "deposit",
      "outputs": [],
      "stateMutability": "nonpayable",
      "type": "function"
    },
    {
      "inputs": [
        {
          "internalType": "address",
          "name": "_account",
          "type": "address"
        },
        {
          "internalType": "uint256",
          "name": "_amount",
          "type": "uint256"
        }
      ],
      "name": "depositFor",
      "outputs": [],
      "stateMutability": "nonpayable",
      "type": "function"
    },
    {
      "inputs": [],
      "name": "depositToken",
      "outputs": [
        {
          "internalType": "contract IERC20",
          "name": "",
          "type": "address"
        }
      ],
      "stateMutability": "view",
      "type": "function"
    },
    {
      "inputs": [
        {
          "internalType": "uint256",
          "name": "_amount",
          "type": "uint256"
        },
        {
          "internalType": "uint256",
          "name": "_deadline",
          "type": "uint256"
        },
        {
          "internalType": "uint8",
          "name": "_v",
          "type": "uint8"
        },
        {
          "internalType": "bytes32",
          "name": "_r",
          "type": "bytes32"
        },
        {
          "internalType": "bytes32",
          "name": "_s",
          "type": "bytes32"
        }
      ],
      "name": "depositWithPermit",
      "outputs": [],
      "stateMutability": "nonpayable",
      "type": "function"
    },
    {
      "inputs": [],
      "name": "devAddr",
      "outputs": [
        {
          "internalType": "address",
          "name": "",
          "type": "address"
        }
      ],
      "stateMutability": "view",
      "type": "function"
    },
    {
      "inputs": [],
      "name": "disableDeposits",
      "outputs": [],
      "stateMutability": "nonpayable",
      "type": "function"
    },
    {
      "inputs": [],
      "name": "enableDeposits",
      "outputs": [],
      "stateMutability": "nonpayable",
      "type": "function"
    },
    {
      "inputs": [],
      "name": "estimateReinvestReward",
      "outputs": [
        {
          "internalType": "uint256",
          "name": "",
          "type": "uint256"
        }
      ],
      "stateMutability": "view",
      "type": "function"
    },
    {
      "inputs": [],
      "name": "feeCollector",
      "outputs": [
        {
          "internalType": "address",
          "name": "",
          "type": "address"
        }
      ],
      "stateMutability": "view",
      "type": "function"
    },
    {
      "inputs": [
        {
          "internalType": "uint256",
          "name": "amount",
          "type": "uint256"
        }
      ],
      "name": "getDepositTokensForShares",
      "outputs": [
        {
          "internalType": "uint256",
          "name": "",
          "type": "uint256"
        }
      ],
      "stateMutability": "view",
      "type": "function"
    },
    {
      "inputs": [],
      "name": "getDomainSeparator",
      "outputs": [
        {
          "internalType": "bytes32",
          "name": "",
          "type": "bytes32"
        }
      ],
      "stateMutability": "view",
      "type": "function"
    },
    {
      "inputs": [
        {
          "internalType": "uint256",
          "name": "amount",
          "type": "uint256"
        }
      ],
      "name": "getSharesForDepositTokens",
      "outputs": [
        {
          "internalType": "uint256",
          "name": "",
          "type": "uint256"
        }
      ],
      "stateMutability": "view",
      "type": "function"
    },
    {
      "inputs": [],
      "name": "getSupportedRewardsLength",
      "outputs": [
        {
          "internalType": "uint256",
          "name": "",
          "type": "uint256"
        }
      ],
      "stateMutability": "view",
      "type": "function"
    },
    {
      "inputs": [],
      "name": "name",
      "outputs": [
        {
          "internalType": "string",
          "name": "",
          "type": "string"
        }
      ],
      "stateMutability": "view",
      "type": "function"
    },
    {
      "inputs": [
        {
          "internalType": "address",
          "name": "",
          "type": "address"
        }
      ],
      "name": "nonces",
      "outputs": [
        {
          "internalType": "uint256",
          "name": "",
          "type": "uint256"
        }
      ],
      "stateMutability": "view",
      "type": "function"
    },
    {
      "inputs": [],
      "name": "owner",
      "outputs": [
        {
          "internalType": "address",
          "name": "",
          "type": "address"
        }
      ],
      "stateMutability": "view",
      "type": "function"
    },
    {
      "inputs": [
        {
          "internalType": "address",
          "name": "owner",
          "type": "address"
        },
        {
          "internalType": "address",
          "name": "spender",
          "type": "address"
        },
        {
          "internalType": "uint256",
          "name": "value",
          "type": "uint256"
        },
        {
          "internalType": "uint256",
          "name": "deadline",
          "type": "uint256"
        },
        {
          "internalType": "uint8",
          "name": "v",
          "type": "uint8"
        },
        {
          "internalType": "bytes32",
          "name": "r",
          "type": "bytes32"
        },
        {
          "internalType": "bytes32",
          "name": "s",
          "type": "bytes32"
        }
      ],
      "name": "permit",
      "outputs": [],
      "stateMutability": "nonpayable",
      "type": "function"
    },
    {
      "inputs": [],
      "name": "rebalancePool",
      "outputs": [
        {
          "internalType": "contract IRebalancePool",
          "name": "",
          "type": "address"
        }
      ],
      "stateMutability": "view",
      "type": "function"
    },
    {
      "inputs": [
        {
          "internalType": "address",
          "name": "tokenAddress",
          "type": "address"
        },
        {
          "internalType": "uint256",
          "name": "tokenAmount",
          "type": "uint256"
        }
      ],
      "name": "recoverERC20",
      "outputs": [],
      "stateMutability": "nonpayable",
      "type": "function"
    },
    {
      "inputs": [
        {
          "internalType": "uint256",
          "name": "amount",
          "type": "uint256"
        }
      ],
      "name": "recoverGas",
      "outputs": [],
      "stateMutability": "nonpayable",
      "type": "function"
    },
    {
      "inputs": [],
      "name": "reinvest",
      "outputs": [],
      "stateMutability": "nonpayable",
      "type": "function"
    },
    {
      "inputs": [
        {
          "internalType": "address",
          "name": "_rewardToken",
          "type": "address"
        }
      ],
      "name": "removeReward",
      "outputs": [],
      "stateMutability": "nonpayable",
      "type": "function"
    },
    {
      "inputs": [],
      "name": "renounceOwnership",
      "outputs": [],
      "stateMutability": "nonpayable",
      "type": "function"
    },
    {
      "inputs": [
        {
          "internalType": "uint256",
          "name": "_minReturnAmountAccepted",
          "type": "uint256"
        }
      ],
      "name": "rescueDeployedFunds",
      "outputs": [],
      "stateMutability": "nonpayable",
      "type": "function"
    },
    {
      "inputs": [
        {
          "internalType": "address",
          "name": "token",
          "type": "address"
        },
        {
          "internalType": "address",
          "name": "spender",
          "type": "address"
        }
      ],
      "name": "revokeAllowance",
      "outputs": [],
      "stateMutability": "nonpayable",
      "type": "function"
    },
    {
      "inputs": [],
      "name": "rewardToken",
      "outputs": [
        {
          "internalType": "contract IERC20",
          "name": "",
          "type": "address"
        }
      ],
      "stateMutability": "view",
      "type": "function"
    },
    {
      "inputs": [],
      "name": "simpleRouter",
      "outputs": [
        {
          "internalType": "contract ISimpleRouter",
          "name": "",
          "type": "address"
        }
      ],
      "stateMutability": "view",
      "type": "function"
    },
    {
      "inputs": [
        {
          "internalType": "uint256",
          "name": "",
          "type": "uint256"
        }
      ],
      "name": "supportedRewards",
      "outputs": [
        {
          "internalType": "address",
          "name": "",
          "type": "address"
        }
      ],
      "stateMutability": "view",
      "type": "function"
    },
    {
      "inputs": [],
      "name": "symbol",
      "outputs": [
        {
          "internalType": "string",
          "name": "",
          "type": "string"
        }
      ],
      "stateMutability": "view",
      "type": "function"
    },
    {
      "inputs": [],
      "name": "totalDeposits",
      "outputs": [
        {
          "internalType": "uint256",
          "name": "",
          "type": "uint256"
        }
      ],
      "stateMutability": "view",
      "type": "function"
    },
    {
      "inputs": [],
      "name": "totalSupply",
      "outputs": [
        {
          "internalType": "uint256",
          "name": "",
          "type": "uint256"
        }
      ],
      "stateMutability": "view",
      "type": "function"
    },
    {
      "inputs": [
        {
          "internalType": "address",
          "name": "dst",
          "type": "address"
        },
        {
          "internalType": "uint256",
          "name": "amount",
          "type": "uint256"
        }
      ],
      "name": "transfer",
      "outputs": [
        {
          "internalType": "bool",
          "name": "",
          "type": "bool"
        }
      ],
      "stateMutability": "nonpayable",
      "type": "function"
    },
    {
      "inputs": [
        {
          "internalType": "address",
          "name": "src",
          "type": "address"
        },
        {
          "internalType": "address",
          "name": "dst",
          "type": "address"
        },
        {
          "internalType": "uint256",
          "name": "amount",
          "type": "uint256"
        }
      ],
      "name": "transferFrom",
      "outputs": [
        {
          "internalType": "bool",
          "name": "",
          "type": "bool"
        }
      ],
      "stateMutability": "nonpayable",
      "type": "function"
    },
    {
      "inputs": [
        {
          "internalType": "address",
          "name": "newOwner",
          "type": "address"
        }
      ],
      "name": "transferOwnership",
      "outputs": [],
      "stateMutability": "nonpayable",
      "type": "function"
    },
    {
      "inputs": [
        {
          "internalType": "address",
          "name": "newValue",
          "type": "address"
        }
      ],
      "name": "updateDevAddr",
      "outputs": [],
      "stateMutability": "nonpayable",
      "type": "function"
    },
    {
      "inputs": [
        {
          "internalType": "uint256",
          "name": "newValue",
          "type": "uint256"
        }
      ],
      "name": "updateDevFee",
      "outputs": [],
      "stateMutability": "nonpayable",
      "type": "function"
    },
    {
      "inputs": [
        {
          "internalType": "address",
          "name": "newValue",
          "type": "address"
        }
      ],
      "name": "updateFeeCollector",
      "outputs": [],
      "stateMutability": "nonpayable",
      "type": "function"
    },
    {
      "inputs": [
        {
          "internalType": "uint256",
          "name": "newValue",
          "type": "uint256"
        }
      ],
      "name": "updateMinTokensToReinvest",
      "outputs": [],
      "stateMutability": "nonpayable",
      "type": "function"
    },
    {
      "inputs": [
        {
          "internalType": "uint256",
          "name": "newValue",
          "type": "uint256"
        }
      ],
      "name": "updateReinvestReward",
      "outputs": [],
      "stateMutability": "nonpayable",
      "type": "function"
    },
    {
      "inputs": [
        {
          "internalType": "address",
          "name": "_router",
          "type": "address"
        }
      ],
      "name": "updateRouter",
      "outputs": [],
      "stateMutability": "nonpayable",
      "type": "function"
    },
    {
      "inputs": [
        {
          "internalType": "uint256",
          "name": "_amount",
          "type": "uint256"
        }
      ],
      "name": "withdraw",
      "outputs": [],
      "stateMutability": "nonpayable",
      "type": "function"
    }
  ],
  "transactionHash": "0x9c8237d5dc2b6655f632a15967f75a7472aef4ee23f1ff24e999fd1b9b486eaa",
  "args": [
    "0x0363a3deBe776de575C36F524b7877dB7dd461Db",
    {
      "gasToken": "0xB31f66AA3C1e785363F0875A1B74E27b85FD66c7",
      "rewards": [
        "0x2b2C81e08f1Af8835a78Bb2A90AE924ACE0eA4bE"
      ],
      "simpleRouter": "0x959a0af5A46F76AA37317BC417D48B445658B188"
    },
    {
      "name": "Yield Yak: SJ aUSD",
      "owner": "0xDcEDF06Fd33E1D7b6eb4b309f779a0e9D3172e44",
      "dev": "0xDcEDF06Fd33E1D7b6eb4b309f779a0e9D3172e44",
      "feeCollector": "0x2D580F9CF2fB2D09BC411532988F2aFdA4E7BefF",
      "depositToken": "0xaBe7a9dFDA35230ff60D1590a929aE0644c47DC1",
      "rewardToken": "0x2b2C81e08f1Af8835a78Bb2A90AE924ACE0eA4bE",
      "minTokensToReinvest": "1000",
      "devFeeBips": 700,
      "reinvestRewardBips": 300
    }
  ],
  "solcInputHash": "36c70579ccfec2c00f00217b9ae480e5",
  "bytecode": "0x6101606040526009610120819052685969656c642059616b60b81b6101409081526200002f9160009190620007a8565b506040805180820190915260038082526216549560ea1b60209092019182526200005c91600191620007a8565b503480156200006a57600080fd5b50604051620057e8380380620057e88339810160408190526200008d9162000ac0565b600680546001600160a01b03191633908117909155604051839183918291908190600090600080516020620057c8833981519152908290a35080518051620000de91600091602090910190620007a8565b506080808201516001600160a01b0390811690915260a0808301519091169052600780546001600160a01b0319163317905560c0810151620001209062000289565b60e081015162000130906200032a565b6101008101516200014190620003e6565b60608101516200015190620004a2565b6040810151620001619062000556565b6200016b6200060a565b60208101516200017b90620006ab565b5081516001600160a01b031660c0526020808301518051620001a292600d92019062000837565b50604082810151600e80546001600160a01b0319166001600160a01b039092169190911790558051600080825260208201527fc7606d21ac05cd309191543e409f0845c016120563783d70e4f41419dc0ef234910160405180910390a150506001600160a01b03831660e08190526040805163687dc86560e11b8152905163d0fb90ca916004808201926020929091908290030181865afa1580156200024c573d6000803e3d6000fd5b505050506040513d601f19601f8201168201806040525081019062000272919062000c0a565b6001600160a01b0316610100525062000c92915050565b6007546001600160a01b03163314620002e95760405162461bcd60e51b815260206004820152601460248201527f59616b53747261746567793a3a6f6e6c7944657600000000000000000000000060448201526064015b60405180910390fd5b60095460408051918252602082018390527f481f79ac3a523b6d6db3c5a720e190e986d1cc1b41adcdf50f9caef849901100910160405180910390a1600955565b6007546001600160a01b03163314620003865760405162461bcd60e51b815260206004820152601460248201527f59616b53747261746567793a3a6f6e6c794465760000000000000000000000006044820152606401620002e0565b612710600b548262000399919062000c2f565b1115620003a557600080fd5b600c5460408051918252602082018390527f2a42303d002f0ba6cfe8259c91d4684443fb0b3de286ba74991175d651726131910160405180910390a1600c55565b6007546001600160a01b03163314620004425760405162461bcd60e51b815260206004820152601460248201527f59616b53747261746567793a3a6f6e6c794465760000000000000000000000006044820152606401620002e0565b612710600c548262000455919062000c2f565b11156200046157600080fd5b600b5460408051918252602082018390527fe7f97d51d307dc44045597c9978bec0f842e6bb40d19b9444084cfa30d9ed4f2910160405180910390a1600b55565b6006546001600160a01b03163314620004ed5760405162461bcd60e51b81526020600482018190526024820152600080516020620057a88339815191526044820152606401620002e0565b600854604080516001600160a01b03928316815291831660208301527fcc882185e6edeeb762130016ea1faf3d7aa9c01b199bfd646f965b58ab741063910160405180910390a1600880546001600160a01b0319166001600160a01b0392909216919091179055565b6006546001600160a01b03163314620005a15760405162461bcd60e51b81526020600482018190526024820152600080516020620057a88339815191526044820152606401620002e0565b600754604080516001600160a01b03928316815291831660208301527fa8e91499ed37682f43cffb045fcc7d379a91e8c9a14e6321877ee34dee564c00910160405180910390a1600780546001600160a01b0319166001600160a01b0392909216919091179055565b6006546001600160a01b03163314620006555760405162461bcd60e51b81526020600482018190526024820152600080516020620057a88339815191526044820152606401620002e0565b600a5460ff16156200066657600080fd5b600a805460ff191660019081179091556040519081527f7b014ed3854e7f5cb0218d58b3c6ae7d53a68bb0af2f67bfb029ea42c38a7e859060200160405180910390a1565b6006546001600160a01b03163314620006f65760405162461bcd60e51b81526020600482018190526024820152600080516020620057a88339815191526044820152606401620002e0565b6001600160a01b0381166200075d5760405162461bcd60e51b815260206004820152602660248201527f4f776e61626c653a206e6577206f776e657220697320746865207a65726f206160448201526564647265737360d01b6064820152608401620002e0565b6006546040516001600160a01b03808416921690600080516020620057c883398151915290600090a3600680546001600160a01b0319166001600160a01b0392909216919091179055565b828054620007b69062000c56565b90600052602060002090601f016020900481019282620007da576000855562000825565b82601f10620007f557805160ff191683800117855562000825565b8280016001018555821562000825579182015b828111156200082557825182559160200191906001019062000808565b50620008339291506200088f565b5090565b82805482825590600052602060002090810192821562000825579160200282015b828111156200082557825182546001600160a01b0319166001600160a01b0390911617825560209092019160019091019062000858565b5b8082111562000833576000815560010162000890565b80516001600160a01b0381168114620008be57600080fd5b919050565b634e487b7160e01b600052604160045260246000fd5b60405161012081016001600160401b0381118282101715620008ff57620008ff620008c3565b60405290565b604051606081016001600160401b0381118282101715620008ff57620008ff620008c3565b604051601f8201601f191681016001600160401b0381118282101715620009555762000955620008c3565b604052919050565b600082601f8301126200096f57600080fd5b81516001600160401b038111156200098b576200098b620008c3565b6020620009a1601f8301601f191682016200092a565b8281528582848701011115620009b657600080fd5b60005b83811015620009d6578581018301518282018401528201620009b9565b83811115620009e85760008385840101525b5095945050505050565b6000610120828403121562000a0657600080fd5b62000a10620008d9565b82519091506001600160401b0381111562000a2a57600080fd5b62000a38848285016200095d565b82525062000a4960208301620008a6565b602082015262000a5c60408301620008a6565b604082015262000a6f60608301620008a6565b606082015262000a8260808301620008a6565b608082015262000a9560a08301620008a6565b60a082015260c082015160c082015260e082015160e082015261010080830151818301525092915050565b60008060006060848603121562000ad657600080fd5b62000ae184620008a6565b602085810151919450906001600160401b038082111562000b0157600080fd5b908601906060828903121562000b1657600080fd5b62000b2062000905565b62000b2b83620008a6565b8152838301518281111562000b3f57600080fd5b8301601f81018a1362000b5157600080fd5b80518381111562000b665762000b66620008c3565b8060051b62000b778782016200092a565b918252828101870191878101908d84111562000b9257600080fd5b938801935b8385101562000bbb5762000bab85620008a6565b8252938801939088019062000b97565b858901525062000bd29250505060408401620008a6565b604082015280955050604087015192508083111562000bf057600080fd5b505062000c0086828701620009f2565b9150509250925092565b60006020828403121562000c1d57600080fd5b62000c2882620008a6565b9392505050565b6000821982111562000c5157634e487b7160e01b600052601160045260246000fd5b500190565b600181811c9082168062000c6b57607f821691505b60208210810362000c8c57634e487b7160e01b600052602260045260246000fd5b50919050565b60805160a05160c05160e0516101005161499d62000e0b6000396000818161070701528181612bb501528181612d2301528181613ba90152613c750152600081816104a30152818161113d015281816124fd0152818161257c015281816128f60152818161299601528181612a1101528181612ab501528181612bfe01528181612c9201528181612d86015281816137cf015281816138d9015281816139ab01528181613a1701528181613b0201528181613d3b0152613e84015260008181611a92015281816133f601528181613425015261349a015260008181610807015281816119f501528181611afa01528181611c3901528181612fd10152818161303901528181613342015281816134c401528181613580015281816135e3015281816136c001526137120152600081816106e001528181610a6901528181610b3c01528181610cd301528181610d680152818161279801528181612a40015281816136960152818161373a0152613908015261499d6000f3fe608060405234801561001057600080fd5b50600436106103835760003560e01c806395d89b41116101de578063c851cc321161010f578063dd8ce4d6116100ad578063f2fde38b1161007c578063f2fde38b146107dc578063f6314d07146107ef578063f7c618c114610802578063fdb5a03e1461082957600080fd5b8063dd8ce4d61461079b578063e75ab045146107ae578063eab89a5a146107c1578063ed24911d146107d457600080fd5b8063d2c35ce8116100e9578063d2c35ce814610729578063d505accf1461073c578063da09c72c1461074f578063dd62ed3e1461076257600080fd5b8063c851cc32146106c8578063c89039c5146106db578063d0fb90ca1461070257600080fd5b8063ac67e1af1161017c578063b9e57b8011610156578063b9e57b801461069c578063bd079f55146106a4578063c415b95c146106ad578063c4b24a46146106c057600080fd5b8063ac67e1af14610674578063b52a321f1461067c578063b6b55f251461068957600080fd5b80639e4e7318116101b85780639e4e731814610614578063a4d5e67c1461063b578063a8ae2b7c1461064e578063a9059cbb1461066157600080fd5b806395d89b41146105e657806399729ec1146105ee5780639c9b2e211461060157600080fd5b80635e4c57a4116102b85780637d882097116102565780638980f11f116102305780638980f11f146105a65780638aff733d146105b95780638da5cb5b146105c25780639291d563146105d357600080fd5b80637d8820971461056b5780637ecebe0014610573578063818372301461059357600080fd5b806370a082311161029257806370a0823114610514578063715018a61461053d5780637897e7f6146105455780637ae267731461055857600080fd5b80635e4c57a4146104f05780635ea682ea146104f8578063666d25b91461050157600080fd5b8063258250da1161032557806330adf81f116102ff57806330adf81f1461045d578063313ce567146104845780633466d8ed1461049e5780634a970be7146104dd57600080fd5b8063258250da1461042d5780632e1a7d4d146104355780632f4f21e21461044a57600080fd5b806318160ddd1161036157806318160ddd146103ea57806320606b70146103f357806323b872dd1461041a578063247d284b146103c957600080fd5b806306fdde0314610388578063095ea7b3146103a657806311056035146103c9575b600080fd5b610390610831565b60405161039d9190614245565b60405180910390f35b6103b96103b436600461428d565b6108bf565b604051901515815260200161039d565b6103dc6103d73660046142b9565b6108d5565b60405190815260200161039d565b6103dc60025481565b6103dc7f8b73c3c69bb8fe3d512ecc4cf759cc79239f7b179b0ffacaa9a75d522b39400f81565b6103b96104283660046142d2565b6108e6565b600d546103dc565b6104486104433660046142b9565b6109af565b005b61044861045836600461428d565b610ad5565b6103dc7f6e71edae12b1b97f4d1f60370fef10105fa2faae0126114a169c64845d6126c981565b61048c601281565b60405160ff909116815260200161039d565b6104c57f000000000000000000000000000000000000000000000000000000000000000081565b6040516001600160a01b03909116815260200161039d565b6104486104eb366004614329565b610ae3565b610448610bb1565b6103dc600c5481565b61044861050f3660046142b9565b610c61565b6103dc610522366004614370565b6001600160a01b031660009081526004602052604090205490565b610448610ee2565b6104486105533660046142b9565b610f86565b61044861056636600461438d565b611058565b6103dc611125565b6103dc610581366004614370565b60056020526000908152604090205481565b6104486105a13660046142b9565b6111b5565b6104486105b436600461428d565b611247565b6103dc600b5481565b6006546001600160a01b03166104c5565b6104486105e1366004614370565b611309565b6103906113cc565b6104486105fc3660046142b9565b6113d9565b61044861060f366004614370565b611487565b6103dc7fc89efdaa54c0f20c7adf612882df0950f5a951637e0307cdcb4c672f298b8bc681565b610448610649366004614370565b611622565b61044861065c3660046142b9565b611825565b6103b961066f36600461428d565b6118d3565b6104486118e0565b600a546103b99060ff1681565b6104486106973660046142b9565b61197b565b6103dc611988565b6103dc60095481565b6008546104c5906001600160a01b031681565b6103dc6119c7565b6104486106d6366004614370565b611d1c565b6104c57f000000000000000000000000000000000000000000000000000000000000000081565b6104c57f000000000000000000000000000000000000000000000000000000000000000081565b610448610737366004614370565b611dd6565b61044861074a3660046143c6565b611e99565b6007546104c5906001600160a01b031681565b6103dc61077036600461438d565b6001600160a01b03918216600090815260036020908152604080832093909416825291909152205490565b6103dc6107a93660046142b9565b611fac565b6104c56107bc3660046142b9565b611ff2565b6103dc6107cf3660046142b9565b61201c565b6103dc612052565b6104486107ea366004614370565b6120f2565b600e546104c5906001600160a01b031681565b6104c57f000000000000000000000000000000000000000000000000000000000000000081565b610448612224565b6000805461083e90614434565b80601f016020809104026020016040519081016040528092919081815260200182805461086a90614434565b80156108b75780601f1061088c576101008083540402835291602001916108b7565b820191906000526020600020905b81548152906001019060200180831161089a57829003601f168201915b505050505081565b60006108cc33848461227f565b50600192915050565b60006108e08261238d565b92915050565b6001600160a01b03831660008181526003602090815260408083203380855292528220549192909190821480159061092057506000198114155b156109965760006109318583614484565b6001600160a01b038881166000818152600360209081526040808320948916808452948252918290208590559051848152939450919290917f8c5be1e5ebec7d5bd14f71427d1e84f3dd0314c0f7b2291e5b200ac8c7c3b925910160405180910390a3505b6109a18686866123a7565b6001925050505b9392505050565b60006109ba8261201c565b905060008111610a375760405162461bcd60e51b815260206004820152602560248201527f4261736553747261746567793a3a576974686472617720616d6f756e7420746f60448201527f6f206c6f7700000000000000000000000000000000000000000000000000000060648201526084015b60405180910390fd5b6000610a42826124cb565b90506000610a4f8361238d565b9050610a9033610a5f8385614484565b6001600160a01b037f00000000000000000000000000000000000000000000000000000000000000001691906125e8565b610a9a3385612668565b60405183815233907f884edad9ce6fa2440d8a54cc123490eb96d2768479d49ff9c7366125a94243649060200160405180910390a250505050565b610adf82826126fc565b5050565b6040517fd505accf000000000000000000000000000000000000000000000000000000008152336004820152306024820152604481018690526064810185905260ff8416608482015260a4810183905260c481018290527f00000000000000000000000000000000000000000000000000000000000000006001600160a01b03169063d505accf9060e401600060405180830381600087803b158015610b8857600080fd5b505af1158015610b9c573d6000803e3d6000fd5b50505050610baa33866126fc565b5050505050565b6006546001600160a01b03163314610c0b5760405162461bcd60e51b815260206004820181905260248201527f4f776e61626c653a2063616c6c6572206973206e6f7420746865206f776e65726044820152606401610a2e565b600a5460ff1615610c1b57600080fd5b600a805460ff191660019081179091556040519081527f7b014ed3854e7f5cb0218d58b3c6ae7d53a68bb0af2f67bfb029ea42c38a7e85906020015b60405180910390a1565b6006546001600160a01b03163314610cbb5760405162461bcd60e51b815260206004820181905260248201527f4f776e61626c653a2063616c6c6572206973206e6f7420746865206f776e65726044820152606401610a2e565b6040516370a0823160e01b81523060048201526000907f00000000000000000000000000000000000000000000000000000000000000006001600160a01b0316906370a0823190602401602060405180830381865afa158015610d22573d6000803e3d6000fd5b505050506040513d601f19601f82011682018060405250810190610d46919061449b565b9050610d506128f4565b6040516370a0823160e01b81523060048201526000907f00000000000000000000000000000000000000000000000000000000000000006001600160a01b0316906370a0823190602401602060405180830381865afa158015610db7573d6000803e3d6000fd5b505050506040513d601f19601f82011682018060405250810190610ddb919061449b565b905082610de88383614484565b1015610e825760405162461bcd60e51b815260206004820152604260248201527f4261736553747261746567793a3a456d657267656e637920776974686472617760448201527f206d696e696d756d2072657475726e20616d6f756e74206e6f7420726561636860648201527f6564000000000000000000000000000000000000000000000000000000000000608482015260a401610a2e565b7fc7606d21ac05cd309191543e409f0845c016120563783d70e4f41419dc0ef234610eab611125565b6002546040805192835260208301919091520160405180910390a1600a5460ff161515600103610edd57610edd6118e0565b505050565b6006546001600160a01b03163314610f3c5760405162461bcd60e51b815260206004820181905260248201527f4f776e61626c653a2063616c6c6572206973206e6f7420746865206f776e65726044820152606401610a2e565b6006546040516000916001600160a01b0316907f8be0079c531659141344cd1fd0a4f28419497f9722a3daafe3b4186f6b6457e0908390a3600680546001600160a01b0319169055565b6006546001600160a01b03163314610fe05760405162461bcd60e51b815260206004820181905260248201527f4f776e61626c653a2063616c6c6572206973206e6f7420746865206f776e65726044820152606401610a2e565b60008111610fed57600080fd5b604051339082156108fc029083906000818181858888f1935050505015801561101a573d6000803e3d6000fd5b506040805160008152602081018390527f8c1256b8896378cd5044f80c202f9772b9d77dc85c8a6eb51967210b09bfaa28910160405180910390a150565b6007546001600160a01b031633146110a95760405162461bcd60e51b81526020600482015260146024820152732cb0b5a9ba3930ba32b3bc9d1d37b7363ca232bb60611b6044820152606401610a2e565b60405163095ea7b360e01b81526001600160a01b0382811660048301526000602483015283169063095ea7b3906044016020604051808303816000875af11580156110f8573d6000803e3d6000fd5b505050506040513d601f19601f8201168201806040525081019061111c91906144b4565b610adf57600080fd5b6040516370a0823160e01b81523060048201526000907f00000000000000000000000000000000000000000000000000000000000000006001600160a01b0316906370a0823190602401602060405180830381865afa15801561118c573d6000803e3d6000fd5b505050506040513d601f19601f820116820180604052508101906111b0919061449b565b905090565b6007546001600160a01b031633146112065760405162461bcd60e51b81526020600482015260146024820152732cb0b5a9ba3930ba32b3bc9d1d37b7363ca232bb60611b6044820152606401610a2e565b60095460408051918252602082018390527f481f79ac3a523b6d6db3c5a720e190e986d1cc1b41adcdf50f9caef849901100910160405180910390a1600955565b6006546001600160a01b031633146112a15760405162461bcd60e51b815260206004820181905260248201527f4f776e61626c653a2063616c6c6572206973206e6f7420746865206f776e65726044820152606401610a2e565b600081116112ae57600080fd5b6112c26001600160a01b03831633836125e8565b604080516001600160a01b0384168152602081018390527f8c1256b8896378cd5044f80c202f9772b9d77dc85c8a6eb51967210b09bfaa2891015b60405180910390a15050565b6006546001600160a01b031633146113635760405162461bcd60e51b815260206004820181905260248201527f4f776e61626c653a2063616c6c6572206973206e6f7420746865206f776e65726044820152606401610a2e565b600754604080516001600160a01b03928316815291831660208301527fa8e91499ed37682f43cffb045fcc7d379a91e8c9a14e6321877ee34dee564c00910160405180910390a1600780546001600160a01b0319166001600160a01b0392909216919091179055565b6001805461083e90614434565b6007546001600160a01b0316331461142a5760405162461bcd60e51b81526020600482015260146024820152732cb0b5a9ba3930ba32b3bc9d1d37b7363ca232bb60611b6044820152606401610a2e565b612710600b548261143b91906144d6565b111561144657600080fd5b600c5460408051918252602082018390527f2a42303d002f0ba6cfe8259c91d4684443fb0b3de286ba74991175d651726131910160405180910390a1600c55565b6007546001600160a01b031633146114d85760405162461bcd60e51b81526020600482015260146024820152732cb0b5a9ba3930ba32b3bc9d1d37b7363ca232bb60611b6044820152606401610a2e565b6000805b600d5481101561152f57600d81815481106114f9576114f96144ee565b6000918252602090912001546001600160a01b039081169084160361151d57600191505b8061152781614504565b9150506114dc565b5080156115a45760405162461bcd60e51b815260206004820152602860248201527f4261736553747261746567793a3a52657761726420616c726561647920636f6e60448201527f66696775726564210000000000000000000000000000000000000000000000006064820152608401610a2e565b600d80546001810182556000919091527fd7b6990105719101dabeb77144f2a3385c8033acd3af97e9423a695e81ad1eb50180546001600160a01b0319166001600160a01b0384169081179091556040519081527f1714865bf5baa84e3439536a013c87cfe030b4cd69f344a5f2a4877de3d517ce906020016112fd565b6007546001600160a01b031633146116735760405162461bcd60e51b81526020600482015260146024820152732cb0b5a9ba3930ba32b3bc9d1d37b7363ca232bb60611b6044820152606401610a2e565b6000805b600d5481101561174357600d8181548110611694576116946144ee565b6000918252602090912001546001600160a01b039081169084160361173157600d8054600193506116c6908490614484565b815481106116d6576116d66144ee565b600091825260209091200154600d80546001600160a01b039092169183908110611702576117026144ee565b9060005260206000200160006101000a8154816001600160a01b0302191690836001600160a01b031602179055505b8061173b81614504565b915050611677565b50806117b65760405162461bcd60e51b8152602060048201526024808201527f4261736553747261746567793a3a526577617264206e6f7420636f6e6669677560448201527f72656421000000000000000000000000000000000000000000000000000000006064820152608401610a2e565b600d8054806117c7576117c761451d565b6000828152602090819020600019908301810180546001600160a01b03191690559091019091556040516001600160a01b03841681527f963b7c735475147a62c589c2d7cb8ec4b0a6b7af4f97373d79ebfa42ab8aa7dc91016112fd565b6007546001600160a01b031633146118765760405162461bcd60e51b81526020600482015260146024820152732cb0b5a9ba3930ba32b3bc9d1d37b7363ca232bb60611b6044820152606401610a2e565b612710600c548261188791906144d6565b111561189257600080fd5b600b5460408051918252602082018390527fe7f97d51d307dc44045597c9978bec0f842e6bb40d19b9444084cfa30d9ed4f2910160405180910390a1600b55565b60006108cc3384846123a7565b6007546001600160a01b031633146119315760405162461bcd60e51b81526020600482015260146024820152732cb0b5a9ba3930ba32b3bc9d1d37b7363ca232bb60611b6044820152606401610a2e565b600a5460ff1661194057600080fd5b600a805460ff19169055604051600081527f7b014ed3854e7f5cb0218d58b3c6ae7d53a68bb0af2f67bfb029ea42c38a7e8590602001610c57565b61198533826126fc565b50565b6000806119936119c7565b905060095481106119bf57612710600b54826119af9190614533565b6119b99190614552565b91505090565b600091505090565b6000806119d2612aaf565b6040516370a0823160e01b81523060048201529091506000906001600160a01b037f000000000000000000000000000000000000000000000000000000000000000016906370a0823190602401602060405180830381865afa158015611a3c573d6000803e3d6000fd5b505050506040513d601f19601f82011682018060405250810190611a60919061449b565b905060005b8251811015611d15576000838281518110611a8257611a826144ee565b60200260200101516000015190507f00000000000000000000000000000000000000000000000000000000000000006001600160a01b0316816001600160a01b031603611af85747848381518110611adc57611adc6144ee565b6020026020010151602001818151611af491906144d6565b9052505b7f00000000000000000000000000000000000000000000000000000000000000006001600160a01b0316816001600160a01b031603611b6157838281518110611b4357611b436144ee565b60200260200101516020015183611b5a91906144d6565b9250611d02565b6001600160a01b03811615611d02576040516370a0823160e01b81523060048201526000906001600160a01b038316906370a0823190602401602060405180830381865afa158015611bb7573d6000803e3d6000fd5b505050506040513d601f19601f82011682018060405250810190611bdb919061449b565b90506000858481518110611bf157611bf16144ee565b60200260200101516020015182611c0891906144d6565b90508015611cff57600e546040516377ccc49d60e11b8152600481018390526001600160a01b0385811660248301527f000000000000000000000000000000000000000000000000000000000000000081166044830152600092169063ef99893a90606401600060405180830381865afa158015611c8a573d6000803e3d6000fd5b505050506040513d6000823e601f3d908101601f19168201604052611cb2919081019061467c565b9050600181600001515111611cc8576000611cf1565b80518051611cd890600190614484565b81518110611ce857611ce86144ee565b60200260200101515b611cfb90876144d6565b9550505b50505b5080611d0d81614504565b915050611a65565b5092915050565b6007546001600160a01b03163314611d6d5760405162461bcd60e51b81526020600482015260146024820152732cb0b5a9ba3930ba32b3bc9d1d37b7363ca232bb60611b6044820152606401610a2e565b600e54604080516001600160a01b03928316815291831660208301527f2c6fb4d5ff9fad6ecf2e09cd64cbc9aad92a8b9d2cc0e5c3ddef9b529b0b5ffd910160405180910390a1600e80546001600160a01b0319166001600160a01b0392909216919091179055565b6006546001600160a01b03163314611e305760405162461bcd60e51b815260206004820181905260248201527f4f776e61626c653a2063616c6c6572206973206e6f7420746865206f776e65726044820152606401610a2e565b600854604080516001600160a01b03928316815291831660208301527fcc882185e6edeeb762130016ea1faf3d7aa9c01b199bfd646f965b58ab741063910160405180910390a1600880546001600160a01b0319166001600160a01b0392909216919091179055565b42841015611ee95760405162461bcd60e51b815260206004820152600f60248201527f7065726d69743a3a6578706972656400000000000000000000000000000000006044820152606401610a2e565b6001600160a01b038716600090815260056020526040812080547f6e71edae12b1b97f4d1f60370fef10105fa2faae0126114a169c64845d6126c9918a918a918a919086611f3683614504565b909155506040805160208101969096526001600160a01b0394851690860152929091166060840152608083015260a082015260c0810186905260e001604051602081830303815290604052805190602001209050611f978882868686612e25565b611fa288888861227f565b5050505050505050565b600080611fb7611125565b600254909150801580611fc8575081155b15611fd557509192915050565b81611fe08286614533565b611fea9190614552565b949350505050565b600d818154811061200257600080fd5b6000918252602090912001546001600160a01b0316905081565b600080612027611125565b600254909150801580612038575081155b15612047575060009392505050565b80611fe08386614533565b60007f8b73c3c69bb8fe3d512ecc4cf759cc79239f7b179b0ffacaa9a75d522b39400f60001b60006040516120879190614791565b6040519081900390207fc89efdaa54c0f20c7adf612882df0950f5a951637e0307cdcb4c672f298b8bc646604080516020810195909552840192909252606083015260808201523060a082015260c00160405160208183030381529060405280519060200120905090565b6006546001600160a01b0316331461214c5760405162461bcd60e51b815260206004820181905260248201527f4f776e61626c653a2063616c6c6572206973206e6f7420746865206f776e65726044820152606401610a2e565b6001600160a01b0381166121c85760405162461bcd60e51b815260206004820152602660248201527f4f776e61626c653a206e6577206f776e657220697320746865207a65726f206160448201527f64647265737300000000000000000000000000000000000000000000000000006064820152608401610a2e565b6006546040516001600160a01b038084169216907f8be0079c531659141344cd1fd0a4f28419497f9722a3daafe3b4186f6b6457e090600090a3600680546001600160a01b0319166001600160a01b0392909216919091179055565b3233146122735760405162461bcd60e51b815260206004820152601460248201527f59616b53747261746567793a3a6f6e6c79454f410000000000000000000000006044820152606401610a2e565b61227d6000612f85565b565b6001600160a01b0383166122d55760405162461bcd60e51b815260206004820152601c60248201527f5f617070726f76653a3a6f776e6572207a65726f2061646472657373000000006044820152606401610a2e565b6001600160a01b03821661232b5760405162461bcd60e51b815260206004820152601e60248201527f5f617070726f76653a3a7370656e646572207a65726f206164647265737300006044820152606401610a2e565b6001600160a01b0383811660008181526003602090815260408083209487168084529482529182902085905590518481527f8c5be1e5ebec7d5bd14f71427d1e84f3dd0314c0f7b2291e5b200ac8c7c3b92591015b60405180910390a3505050565b60008061271061239d8285614533565b6109a89190614552565b6001600160a01b0382166124235760405162461bcd60e51b815260206004820152603460248201527f5f7472616e73666572546f6b656e733a2063616e6e6f74207472616e7366657260448201527f20746f20746865207a65726f20616464726573730000000000000000000000006064820152608401610a2e565b6001600160a01b038316600090815260046020526040902054612447908290614484565b6001600160a01b0380851660009081526004602052604080822093909355908416815220546124779082906144d6565b6001600160a01b0380841660008181526004602052604090819020939093559151908516907fddf252ad1be2c89b69c2b068fc378daa952ba7f163c4a11628f55a4df523b3ef906123809085815260200190565b6040517f6198e339000000000000000000000000000000000000000000000000000000008152600481018290526000907f00000000000000000000000000000000000000000000000000000000000000006001600160a01b031690636198e33990602401600060405180830381600087803b15801561254957600080fd5b505af115801561255d573d6000803e3d6000fd5b50506040516337bed58160e01b815260006004820181905260248201527f00000000000000000000000000000000000000000000000000000000000000006001600160a01b031692506337bed5819150604401600060405180830381600087803b1580156125ca57600080fd5b505af11580156125de573d6000803e3d6000fd5b5093949350505050565b604080516001600160a01b038416602482015260448082018490528251808303909101815260649091019091526020810180517bffffffffffffffffffffffffffffffffffffffffffffffffffffffff167fa9059cbb00000000000000000000000000000000000000000000000000000000179052610edd9084906130e5565b6001600160a01b03821660009081526004602052604090205461268c908290614484565b6001600160a01b0383166000908152600460205260409020556002546126b3908290614484565b6002556040518181526000906001600160a01b038416907fddf252ad1be2c89b69c2b068fc378daa952ba7f163c4a11628f55a4df523b3ef906020015b60405180910390a35050565b600a5460ff1615156001146127535760405162461bcd60e51b815260206004820152601f60248201527f4261736553747261746567793a3a4465706f736974732064697361626c6564006044820152606401610a2e565b61275d6001612f85565b6040517f23b872dd000000000000000000000000000000000000000000000000000000008152336004820152306024820152604481018290527f00000000000000000000000000000000000000000000000000000000000000006001600160a01b0316906323b872dd906064016020604051808303816000875af11580156127e9573d6000803e3d6000fd5b505050506040513d601f19601f8201168201806040525081019061280d91906144b4565b61287f5760405162461bcd60e51b815260206004820152602b60248201527f4261736553747261746567793a3a4465706f73697420746f6b656e207472616e60448201527f73666572206661696c65640000000000000000000000000000000000000000006064820152608401610a2e565b600061288a8261238d565b90506128a28361289d6107a98486614484565b6131ca565b6128ac82826132a0565b826001600160a01b03167fe1fffcc4923d04b559f4d29a8bfc6cda04eb5b0d3c460751c2402c5c5cc9109c836040516128e791815260200190565b60405180910390a2505050565b7f00000000000000000000000000000000000000000000000000000000000000006001600160a01b0316636198e33961292b611125565b6040518263ffffffff1660e01b815260040161294991815260200190565b600060405180830381600087803b15801561296357600080fd5b505af1158015612977573d6000803e3d6000fd5b50506040516337bed58160e01b815260006004820181905260248201527f00000000000000000000000000000000000000000000000000000000000000006001600160a01b031692506337bed5819150604401600060405180830381600087803b1580156129e457600080fd5b505af11580156129f8573d6000803e3d6000fd5b505060405163095ea7b360e01b81526001600160a01b037f000000000000000000000000000000000000000000000000000000000000000081166004830152600060248301527f000000000000000000000000000000000000000000000000000000000000000016925063095ea7b391506044016020604051808303816000875af1158015612a8b573d6000803e3d6000fd5b505050506040513d601f19601f8201168201806040525081019061198591906144b4565b606060007f00000000000000000000000000000000000000000000000000000000000000006001600160a01b031663d55a23f46040518163ffffffff1660e01b8152600401602060405180830381865afa158015612b11573d6000803e3d6000fd5b505050506040513d601f19601f82011682018060405250810190612b35919061449b565b90506000612b448260016144d6565b67ffffffffffffffff811115612b5c57612b5c614574565b604051908082528060200260200182016040528015612ba157816020015b6040805180820190915260008082526020820152815260200190600190039081612b7a5790505b506040805180820182526001600160a01b037f000000000000000000000000000000000000000000000000000000000000000081168083529251633515c30760e21b815230600482015260248101939093529293509160208301917f00000000000000000000000000000000000000000000000000000000000000009091169063d4570c1c90604401602060405180830381865afa158015612c47573d6000803e3d6000fd5b505050506040513d601f19601f82011682018060405250810190612c6b919061449b565b90525060005b82811015611d1557604051632061aa2360e11b8152600481018290526000907f00000000000000000000000000000000000000000000000000000000000000006001600160a01b0316906340c3544690602401602060405180830381865afa158015612ce1573d6000803e3d6000fd5b505050506040513d601f19601f82011682018060405250810190612d05919061482c565b90506040518060400160405280826001600160a01b031681526020017f00000000000000000000000000000000000000000000000000000000000000006001600160a01b0316836001600160a01b031603612d61576000612df1565b604051633515c30760e21b81523060048201526001600160a01b0384811660248301527f0000000000000000000000000000000000000000000000000000000000000000169063d4570c1c90604401602060405180830381865afa158015612dcd573d6000803e3d6000fd5b505050506040513d601f19601f82011682018060405250810190612df1919061449b565b815250838381518110612e0657612e066144ee565b6020026020010181905250508080612e1d90614504565b915050612c71565b6000612e2f612052565b6040517f1901000000000000000000000000000000000000000000000000000000000000602082015260228101919091526042810186905260620160408051601f198184030181528282528051602091820120600080855291840180845281905260ff88169284019290925260608301869052608083018590529092509060019060a0016020604051602081039080840390855afa158015612ed5573d6000803e3d6000fd5b5050604051601f1901519150506001600160a01b03811615801590612f0b5750866001600160a01b0316816001600160a01b0316145b612f7c5760405162461bcd60e51b8152602060048201526024808201527f417263683a3a76616c69646174655369673a20696e76616c6964207369676e6160448201527f74757265000000000000000000000000000000000000000000000000000000006064820152608401610a2e565b50505050505050565b6000612f8f613320565b90506009548111156130a4576000612710600c5483612fae9190614533565b612fb89190614552565b90508015612ffa57600854612ffa906001600160a01b037f000000000000000000000000000000000000000000000000000000000000000081169116836125e8565b60008361302157612710600b54846130129190614533565b61301c9190614552565b613024565b60005b90508015613060576130606001600160a01b037f00000000000000000000000000000000000000000000000000000000000000001633836125e8565b600061307f826130708587614484565b61307a9190614484565b613692565b905080156130a05760006130928261238d565b905061309e82826132a0565b505b5050505b7fc7606d21ac05cd309191543e409f0845c016120563783d70e4f41419dc0ef2346130cd611125565b600254604080519283526020830191909152016112fd565b600061313a826040518060400160405280602081526020017f5361666545524332303a206c6f772d6c6576656c2063616c6c206661696c6564815250856001600160a01b03166137be9092919063ffffffff16565b805190915015610edd578080602001905181019061315891906144b4565b610edd5760405162461bcd60e51b815260206004820152602a60248201527f5361666545524332303a204552433230206f7065726174696f6e20646964206e60448201527f6f742073756363656564000000000000000000000000000000000000000000006064820152608401610a2e565b6000811161321a5760405162461bcd60e51b815260206004820152601260248201527f5f6d696e743a3a7a65726f2073686172657300000000000000000000000000006044820152606401610a2e565b8060025461322891906144d6565b6002556001600160a01b03821660009081526004602052604090205461324f9082906144d6565b6001600160a01b0383166000818152600460205260408082209390935591519091907fddf252ad1be2c89b69c2b068fc378daa952ba7f163c4a11628f55a4df523b3ef906126f09085815260200190565b600082116133165760405162461bcd60e51b815260206004820152602260248201527f4261736553747261746567793a3a5374616b6520616d6f756e7420746f6f206c60448201527f6f770000000000000000000000000000000000000000000000000000000000006064820152608401610a2e565b610adf82826137cd565b600061332a613a13565b6040516370a0823160e01b81523060048201526000907f00000000000000000000000000000000000000000000000000000000000000006001600160a01b0316906370a0823190602401602060405180830381865afa158015613391573d6000803e3d6000fd5b505050506040513d601f19601f820116820180604052508101906133b5919061449b565b600d5490915060005b8181101561368a576000600d82815481106133db576133db6144ee565b6000918252602090912001546001600160a01b0390811691507f000000000000000000000000000000000000000000000000000000000000000016810361350657478015613498577f00000000000000000000000000000000000000000000000000000000000000006001600160a01b031663d0e30db0826040518263ffffffff1660e01b81526004016000604051808303818588803b15801561347e57600080fd5b505af1158015613492573d6000803e3d6000fd5b50505050505b7f00000000000000000000000000000000000000000000000000000000000000006001600160a01b03167f00000000000000000000000000000000000000000000000000000000000000006001600160a01b031603613504576134fb81866144d6565b94505050613678565b505b6040516370a0823160e01b81523060048201526000906001600160a01b038316906370a0823190602401602060405180830381865afa15801561354d573d6000803e3d6000fd5b505050506040513d601f19601f82011682018060405250810190613571919061449b565b90506000811180156135b557507f00000000000000000000000000000000000000000000000000000000000000006001600160a01b0316826001600160a01b031614155b1561367557600e546040516377ccc49d60e11b8152600481018390526001600160a01b0384811660248301527f000000000000000000000000000000000000000000000000000000000000000081166044830152600092169063ef99893a90606401600060405180830381865afa158015613634573d6000803e3d6000fd5b505050506040513d6000823e601f3d908101601f1916820160405261365c919081019061467c565b905061366781613eeb565b61367190876144d6565b9550505b50505b8061368281614504565b9150506133be565b509092915050565b60007f00000000000000000000000000000000000000000000000000000000000000006001600160a01b03167f00000000000000000000000000000000000000000000000000000000000000006001600160a01b0316036136f1575090565b600e546040516377ccc49d60e11b8152600481018490526001600160a01b037f0000000000000000000000000000000000000000000000000000000000000000811660248301527f000000000000000000000000000000000000000000000000000000000000000081166044830152600092169063ef99893a90606401600060405180830381865afa15801561378b573d6000803e3d6000fd5b505050506040513d6000823e601f3d908101601f191682016040526137b3919081019061467c565b90506109a881613eeb565b6060611fea8484600085614098565b7f00000000000000000000000000000000000000000000000000000000000000006001600160a01b0316638a1fcd606040518163ffffffff1660e01b8152600401602060405180830381865afa15801561382b573d6000803e3d6000fd5b505050506040513d601f19601f8201168201806040525081019061384f919061449b565b156138c25760405162461bcd60e51b815260206004820152602560248201527f537461626c654a61636b53747261746567793a3a6465706f736974732064697360448201527f61626c65640000000000000000000000000000000000000000000000000000006064820152608401610a2e565b60405163095ea7b360e01b81526001600160a01b037f000000000000000000000000000000000000000000000000000000000000000081166004830152602482018490527f0000000000000000000000000000000000000000000000000000000000000000169063095ea7b3906044016020604051808303816000875af1158015613951573d6000803e3d6000fd5b505050506040513d601f19601f8201168201806040525081019061397591906144b4565b506040517f6e553f65000000000000000000000000000000000000000000000000000000008152600481018390523060248201527f00000000000000000000000000000000000000000000000000000000000000006001600160a01b031690636e553f6590604401600060405180830381600087803b1580156139f757600080fd5b505af1158015613a0b573d6000803e3d6000fd5b505050505050565b60007f00000000000000000000000000000000000000000000000000000000000000006001600160a01b031663d55a23f46040518163ffffffff1660e01b8152600401602060405180830381865afa158015613a73573d6000803e3d6000fd5b505050506040513d601f19601f82011682018060405250810190613a97919061449b565b905060008167ffffffffffffffff811115613ab457613ab4614574565b604051908082528060200260200182016040528015613add578160200160208202803683370190505b5090506000805b83811015613c1057604051632061aa2360e11b8152600481018290527f00000000000000000000000000000000000000000000000000000000000000006001600160a01b0316906340c3544690602401602060405180830381865afa158015613b51573d6000803e3d6000fd5b505050506040513d601f19601f82011682018060405250810190613b75919061482c565b838281518110613b8757613b876144ee565b60200260200101906001600160a01b031690816001600160a01b0316815250507f00000000000000000000000000000000000000000000000000000000000000006001600160a01b0316838281518110613be357613be36144ee565b60200260200101516001600160a01b031603613bfe57600191505b80613c0881614504565b915050613ae4565b50600081613c6a57613c238460016144d6565b67ffffffffffffffff811115613c3b57613c3b614574565b604051908082528060200260200182016040528015613c64578160200160208202803683370190505b50613c6c565b825b905081613d2d577f000000000000000000000000000000000000000000000000000000000000000081600081518110613ca757613ca76144ee565b6001600160a01b039092166020928302919091019091015260015b8151811015613d2b5783613cd7600183614484565b81518110613ce757613ce76144ee565b6020026020010151828281518110613d0157613d016144ee565b6001600160a01b039092166020928302919091019091015280613d2381614504565b915050613cc2565b505b60005b8151811015613e53577f00000000000000000000000000000000000000000000000000000000000000006001600160a01b0316632fe5dbdb838381518110613d7a57613d7a6144ee565b60200260200101516040518263ffffffff1660e01b8152600401613dad91906001600160a01b0391909116815260200190565b602060405180830381865afa158015613dca573d6000803e3d6000fd5b505050506040513d601f19601f82011682018060405250810190613dee919061482c565b6001600160a01b0316634641257d6040518163ffffffff1660e01b8152600401600060405180830381600087803b158015613e2857600080fd5b505af1158015613e3c573d6000803e3d6000fd5b505050508080613e4b90614504565b915050613d30565b506040517f5878a2a60000000000000000000000000000000000000000000000000000000081526001600160a01b037f00000000000000000000000000000000000000000000000000000000000000001690635878a2a690613ebc90849060019060040161488d565b600060405180830381600087803b158015613ed657600080fd5b505af1925050508015610baa57505b50505050565b80515160009015801590613f2857508151805160009190613f0e90600190614484565b81518110613f1e57613f1e6144ee565b6020026020010151115b15614090578160400151600081518110613f4457613f446144ee565b60200260200101516001600160a01b031663095ea7b3600e60009054906101000a90046001600160a01b03168460000151600081518110613f8757613f876144ee565b60200260200101516040518363ffffffff1660e01b8152600401613fc09291906001600160a01b03929092168252602082015260400190565b6020604051808303816000875af1158015613fdf573d6000803e3d6000fd5b505050506040513d601f19601f8201168201806040525081019061400391906144b4565b50600e546040517f5b2466160000000000000000000000000000000000000000000000000000000081526001600160a01b0390911690635b2466169061404d9085906004016148b1565b6020604051808303816000875af115801561406c573d6000803e3d6000fd5b505050506040513d601f19601f820116820180604052508101906108e0919061449b565b506000919050565b6060824710156141105760405162461bcd60e51b815260206004820152602660248201527f416464726573733a20696e73756666696369656e742062616c616e636520666f60448201527f722063616c6c00000000000000000000000000000000000000000000000000006064820152608401610a2e565b6001600160a01b0385163b6141675760405162461bcd60e51b815260206004820152601d60248201527f416464726573733a2063616c6c20746f206e6f6e2d636f6e74726163740000006044820152606401610a2e565b600080866001600160a01b03168587604051614183919061494b565b60006040518083038185875af1925050503d80600081146141c0576040519150601f19603f3d011682016040523d82523d6000602084013e6141c5565b606091505b50915091506141d58282866141e0565b979650505050505050565b606083156141ef5750816109a8565b8251156141ff5782518084602001fd5b8160405162461bcd60e51b8152600401610a2e9190614245565b60005b8381101561423457818101518382015260200161421c565b83811115613ee55750506000910152565b6020815260008251806020840152614264816040850160208701614219565b601f01601f19169190910160400192915050565b6001600160a01b038116811461198557600080fd5b600080604083850312156142a057600080fd5b82356142ab81614278565b946020939093013593505050565b6000602082840312156142cb57600080fd5b5035919050565b6000806000606084860312156142e757600080fd5b83356142f281614278565b9250602084013561430281614278565b929592945050506040919091013590565b803560ff8116811461432457600080fd5b919050565b600080600080600060a0868803121561434157600080fd5b853594506020860135935061435860408701614313565b94979396509394606081013594506080013592915050565b60006020828403121561438257600080fd5b81356109a881614278565b600080604083850312156143a057600080fd5b82356143ab81614278565b915060208301356143bb81614278565b809150509250929050565b600080600080600080600060e0888a0312156143e157600080fd5b87356143ec81614278565b965060208801356143fc81614278565b9550604088013594506060880135935061441860808901614313565b925060a0880135915060c0880135905092959891949750929550565b600181811c9082168061444857607f821691505b60208210810361446857634e487b7160e01b600052602260045260246000fd5b50919050565b634e487b7160e01b600052601160045260246000fd5b6000828210156144965761449661446e565b500390565b6000602082840312156144ad57600080fd5b5051919050565b6000602082840312156144c657600080fd5b815180151581146109a857600080fd5b600082198211156144e9576144e961446e565b500190565b634e487b7160e01b600052603260045260246000fd5b6000600182016145165761451661446e565b5060010190565b634e487b7160e01b600052603160045260246000fd5b600081600019048311821515161561454d5761454d61446e565b500290565b60008261456f57634e487b7160e01b600052601260045260246000fd5b500490565b634e487b7160e01b600052604160045260246000fd5b6040516080810167ffffffffffffffff811182821017156145ad576145ad614574565b60405290565b604051601f8201601f1916810167ffffffffffffffff811182821017156145dc576145dc614574565b604052919050565b600067ffffffffffffffff8211156145fe576145fe614574565b5060051b60200190565b600082601f83011261461957600080fd5b8151602061462e614629836145e4565b6145b3565b82815260059290921b8401810191818101908684111561464d57600080fd5b8286015b8481101561467157805161466481614278565b8352918301918301614651565b509695505050505050565b6000602080838503121561468f57600080fd5b825167ffffffffffffffff808211156146a757600080fd5b90840190608082870312156146bb57600080fd5b6146c361458a565b8251828111156146d257600080fd5b8301601f810188136146e357600080fd5b80516146f1614629826145e4565b81815260059190911b8201860190868101908a83111561471057600080fd5b928701925b8284101561472e57835182529287019290870190614715565b8452505050828401518281111561474457600080fd5b61475088828601614608565b8583015250604083015193508184111561476957600080fd5b61477587858501614608565b6040820152606083015160608201528094505050505092915050565b600080835481600182811c9150808316806147ad57607f831692505b602080841082036147cc57634e487b7160e01b86526022600452602486fd5b8180156147e057600181146147f15761481e565b60ff1986168952848901965061481e565b60008a81526020902060005b868110156148165781548b8201529085019083016147fd565b505084890196505b509498975050505050505050565b60006020828403121561483e57600080fd5b81516109a881614278565b600081518084526020808501945080840160005b838110156148825781516001600160a01b03168752958201959082019060010161485d565b509495945050505050565b6040815260006148a06040830185614849565b905082151560208301529392505050565b60208082528251608083830152805160a0840181905260009291820190839060c08601905b808310156148f657835182529284019260019290920191908401906148d6565b50838701519350601f199250828682030160408701526149168185614849565b935050506040850151818584030160608601526149338382614849565b92505050606084015160808401528091505092915050565b6000825161495d818460208701614219565b919091019291505056fea2646970667358221220dcca5ef527906c76a25cf6f5d8313eec1d13fdcb35c82573844a36d007a921d864736f6c634300080d00334f776e61626c653a2063616c6c6572206973206e6f7420746865206f776e65728be0079c531659141344cd1fd0a4f28419497f9722a3daafe3b4186f6b6457e0",
  "devdoc": {
    "kind": "dev",
    "methods": {
      "allowance(address,address)": {
        "params": {
          "account": "The address of the account holding the funds",
          "spender": "The address of the account spending the funds"
        },
        "returns": {
          "_0": "The number of tokens approved"
        }
      },
      "approve(address,uint256)": {
        "details": "This will overwrite the approval amount for `spender` and is subject to issues noted [here](https://eips.ethereum.org/EIPS/eip-20#approve) It is recommended to use increaseAllowance and decreaseAllowance instead",
        "params": {
          "amount": "The number of tokens that are approved (2^256-1 means infinite)",
          "spender": "The address of the account which may transfer tokens"
        },
        "returns": {
          "_0": "Whether or not the approval succeeded"
        }
      },
      "balanceOf(address)": {
        "params": {
          "account": "The address of the account to get the balance of"
        },
        "returns": {
          "_0": "The number of tokens held"
        }
      },
      "checkReward()": {
        "returns": {
          "_0": "reward tokens"
        }
      },
      "deposit(uint256)": {
        "params": {
          "_amount": "Amount of tokens to deposit"
        }
      },
      "depositWithPermit(uint256,uint256,uint8,bytes32,bytes32)": {
        "params": {
          "_amount": "Amount of tokens to deposit",
          "_deadline": "The time at which to expire the signature",
          "_r": "Half of the ECDSA signature pair",
          "_s": "Half of the ECDSA signature pair",
          "_v": "The recovery byte of the signature"
        }
      },
      "estimateReinvestReward()": {
        "returns": {
          "_0": "reward tokens"
        }
      },
      "getDepositTokensForShares(uint256)": {
        "params": {
          "amount": "receipt tokens"
        },
        "returns": {
          "_0": "deposit tokens"
        }
      },
      "getDomainSeparator()": {
        "returns": {
          "_0": "Separator"
        }
      },
      "getSharesForDepositTokens(uint256)": {
        "details": "If contract is empty, use 1:1 ratioCould return zero shares for very low amounts of deposit tokens",
        "params": {
          "amount": "deposit tokens"
        },
        "returns": {
          "_0": "receipt tokens"
        }
      },
      "owner()": {
        "details": "Returns the address of the current owner."
      },
      "permit(address,address,uint256,uint256,uint8,bytes32,bytes32)": {
        "params": {
          "deadline": "The time at which to expire the signature",
          "owner": "The address to approve from",
          "r": "Half of the ECDSA signature pair",
          "s": "Half of the ECDSA signature pair",
          "spender": "The address to be approved",
          "v": "The recovery byte of the signature",
          "value": "The number of tokens that are approved (2^256-1 means infinite)"
        }
      },
      "recoverERC20(address,uint256)": {
        "params": {
          "tokenAddress": "token address",
          "tokenAmount": "amount to recover"
        }
      },
      "recoverGas(uint256)": {
        "params": {
          "amount": "amount"
        }
      },
      "renounceOwnership()": {
        "details": "Leaves the contract without owner. It will not be possible to call `onlyOwner` functions anymore. Can only be called by the current owner. NOTE: Renouncing ownership will leave the contract without an owner, thereby removing any functionality that is only available to the owner."
      },
      "revokeAllowance(address,address)": {
        "params": {
          "spender": "address",
          "token": "address"
        }
      },
      "totalDeposits()": {
        "returns": {
          "_0": "total deposits available on the contract"
        }
      },
      "transfer(address,uint256)": {
        "params": {
          "amount": "The number of tokens to transfer",
          "dst": "The address of the destination account"
        },
        "returns": {
          "_0": "Whether or not the transfer succeeded"
        }
      },
      "transferFrom(address,address,uint256)": {
        "params": {
          "amount": "The number of tokens to transfer",
          "dst": "The address of the destination account",
          "src": "The address of the source account"
        },
        "returns": {
          "_0": "Whether or not the transfer succeeded"
        }
      },
      "transferOwnership(address)": {
        "details": "Transfers ownership of the contract to a new account (`newOwner`). Can only be called by the current owner."
      },
      "updateDevAddr(address)": {
        "params": {
          "newValue": "address"
        }
      },
      "updateDevFee(uint256)": {
        "params": {
          "newValue": "fee in BIPS"
        }
      },
      "updateFeeCollector(address)": {
        "params": {
          "newValue": "address"
        }
      },
      "updateMinTokensToReinvest(uint256)": {
        "params": {
          "newValue": "threshold"
        }
      },
      "updateReinvestReward(uint256)": {
        "params": {
          "newValue": "fee in BIPS"
        }
      }
    },
    "version": 1
  },
  "userdoc": {
    "kind": "user",
    "methods": {
      "allowance(address,address)": {
        "notice": "Get the number of tokens `spender` is approved to spend on behalf of `account`"
      },
      "approve(address,uint256)": {
        "notice": "Approve `spender` to transfer up to `amount` from `src`"
      },
      "balanceOf(address)": {
        "notice": "Get the number of tokens held by the `account`"
      },
      "checkReward()": {
        "notice": "Reward tokens available to strategy, including balance"
      },
      "deposit(uint256)": {
        "notice": "Deposit tokens to receive receipt tokens"
      },
      "depositWithPermit(uint256,uint256,uint8,bytes32,bytes32)": {
        "notice": "Deposit using Permit"
      },
      "disableDeposits()": {
        "notice": "Disable deposits"
      },
      "enableDeposits()": {
        "notice": "Enable deposits"
      },
      "estimateReinvestReward()": {
        "notice": "Estimate reinvest reward"
      },
      "getDepositTokensForShares(uint256)": {
        "notice": "Calculate deposit tokens for a given amount of receipt tokens"
      },
      "getDomainSeparator()": {
        "notice": "EIP-712 Domain separator"
      },
      "getSharesForDepositTokens(uint256)": {
        "notice": "Calculate receipt tokens for a given amount of deposit tokens"
      },
      "permit(address,address,uint256,uint256,uint8,bytes32,bytes32)": {
        "notice": "Triggers an approval from owner to spender"
      },
      "recoverERC20(address,uint256)": {
        "notice": "Recover ERC20 from contract"
      },
      "recoverGas(uint256)": {
        "notice": "Recover GAS from contract"
      },
      "reinvest()": {
        "notice": "Reinvest reward tokens into deposit tokens"
      },
      "revokeAllowance(address,address)": {
        "notice": "Revoke token allowance"
      },
      "totalDeposits()": {
        "notice": "This function returns a snapshot of last available quotes"
      },
      "transfer(address,uint256)": {
        "notice": "Transfer `amount` tokens from `msg.sender` to `dst`"
      },
      "transferFrom(address,address,uint256)": {
        "notice": "Transfer `amount` tokens from `src` to `dst`"
      },
      "updateDevAddr(address)": {
        "notice": "Update devAddr"
      },
      "updateDevFee(uint256)": {
        "notice": "Update developer fee"
      },
      "updateFeeCollector(address)": {
        "notice": "Update feeCollector"
      },
      "updateMinTokensToReinvest(uint256)": {
        "notice": "Update reinvest min threshold"
      },
      "updateReinvestReward(uint256)": {
        "notice": "Update reinvest reward"
      }
    },
    "version": 1
  },
  "storageLayout": {
    "storage": [
      {
        "astId": 5,
        "contract": "contracts/strategies/avalanche/stablejack/StableJackStrategy.sol:StableJackStrategy",
        "label": "name",
        "offset": 0,
        "slot": "0",
        "type": "t_string_storage"
      },
      {
        "astId": 8,
        "contract": "contracts/strategies/avalanche/stablejack/StableJackStrategy.sol:StableJackStrategy",
        "label": "symbol",
        "offset": 0,
        "slot": "1",
        "type": "t_string_storage"
      },
      {
        "astId": 13,
        "contract": "contracts/strategies/avalanche/stablejack/StableJackStrategy.sol:StableJackStrategy",
        "label": "totalSupply",
        "offset": 0,
        "slot": "2",
        "type": "t_uint256"
      },
      {
        "astId": 19,
        "contract": "contracts/strategies/avalanche/stablejack/StableJackStrategy.sol:StableJackStrategy",
        "label": "allowances",
        "offset": 0,
        "slot": "3",
        "type": "t_mapping(t_address,t_mapping(t_address,t_uint256))"
      },
      {
        "astId": 23,
        "contract": "contracts/strategies/avalanche/stablejack/StableJackStrategy.sol:StableJackStrategy",
        "label": "balances",
        "offset": 0,
        "slot": "4",
        "type": "t_mapping(t_address,t_uint256)"
      },
      {
        "astId": 39,
        "contract": "contracts/strategies/avalanche/stablejack/StableJackStrategy.sol:StableJackStrategy",
        "label": "nonces",
        "offset": 0,
        "slot": "5",
        "type": "t_mapping(t_address,t_uint256)"
      },
      {
        "astId": 1595,
        "contract": "contracts/strategies/avalanche/stablejack/StableJackStrategy.sol:StableJackStrategy",
        "label": "_owner",
        "offset": 0,
        "slot": "6",
        "type": "t_address"
      },
      {
        "astId": 552,
        "contract": "contracts/strategies/avalanche/stablejack/StableJackStrategy.sol:StableJackStrategy",
        "label": "devAddr",
        "offset": 0,
        "slot": "7",
        "type": "t_address"
      },
      {
        "astId": 554,
        "contract": "contracts/strategies/avalanche/stablejack/StableJackStrategy.sol:StableJackStrategy",
        "label": "feeCollector",
        "offset": 0,
        "slot": "8",
        "type": "t_address"
      },
      {
        "astId": 556,
        "contract": "contracts/strategies/avalanche/stablejack/StableJackStrategy.sol:StableJackStrategy",
        "label": "MIN_TOKENS_TO_REINVEST",
        "offset": 0,
        "slot": "9",
        "type": "t_uint256"
      },
      {
        "astId": 558,
        "contract": "contracts/strategies/avalanche/stablejack/StableJackStrategy.sol:StableJackStrategy",
        "label": "DEPOSITS_ENABLED",
        "offset": 0,
        "slot": "10",
        "type": "t_bool"
      },
      {
        "astId": 560,
        "contract": "contracts/strategies/avalanche/stablejack/StableJackStrategy.sol:StableJackStrategy",
        "label": "REINVEST_REWARD_BIPS",
        "offset": 0,
        "slot": "11",
        "type": "t_uint256"
      },
      {
        "astId": 562,
        "contract": "contracts/strategies/avalanche/stablejack/StableJackStrategy.sol:StableJackStrategy",
        "label": "DEV_FEE_BIPS",
        "offset": 0,
        "slot": "12",
        "type": "t_uint256"
      },
      {
        "astId": 2197,
        "contract": "contracts/strategies/avalanche/stablejack/StableJackStrategy.sol:StableJackStrategy",
        "label": "supportedRewards",
        "offset": 0,
        "slot": "13",
        "type": "t_array(t_address)dyn_storage"
      },
      {
        "astId": 2200,
        "contract": "contracts/strategies/avalanche/stablejack/StableJackStrategy.sol:StableJackStrategy",
        "label": "simpleRouter",
        "offset": 0,
        "slot": "14",
        "type": "t_contract(ISimpleRouter)1252"
      }
    ],
    "types": {
      "t_address": {
        "encoding": "inplace",
        "label": "address",
        "numberOfBytes": "20"
      },
      "t_array(t_address)dyn_storage": {
        "base": "t_address",
        "encoding": "dynamic_array",
        "label": "address[]",
        "numberOfBytes": "32"
      },
      "t_bool": {
        "encoding": "inplace",
        "label": "bool",
        "numberOfBytes": "1"
      },
      "t_contract(ISimpleRouter)1252": {
        "encoding": "inplace",
        "label": "contract ISimpleRouter",
        "numberOfBytes": "20"
      },
      "t_mapping(t_address,t_mapping(t_address,t_uint256))": {
        "encoding": "mapping",
        "key": "t_address",
        "label": "mapping(address => mapping(address => uint256))",
        "numberOfBytes": "32",
        "value": "t_mapping(t_address,t_uint256)"
      },
      "t_mapping(t_address,t_uint256)": {
        "encoding": "mapping",
        "key": "t_address",
        "label": "mapping(address => uint256)",
        "numberOfBytes": "32",
        "value": "t_uint256"
      },
      "t_string_storage": {
        "encoding": "bytes",
        "label": "string",
        "numberOfBytes": "32"
      },
      "t_uint256": {
        "encoding": "inplace",
        "label": "uint256",
        "numberOfBytes": "32"
      }
    }
  }
}