{
  "address": "0xaA237B7839b2260715b0b77F360A37280aB8916A",
  "abi": [
    {
      "inputs": [
        {
          "internalType": "address",
          "name": "_owner",
          "type": "address"
        }
      ],
      "stateMutability": "nonpayable",
      "type": "constructor"
    },
    {
      "anonymous": false,
      "inputs": [
        {
          "indexed": true,
          "internalType": "address",
          "name": "previousOwner",
          "type": "address"
        },
        {
          "indexed": true,
          "internalType": "address",
          "name": "newOwner",
          "type": "address"
        }
      ],
      "name": "OwnershipTransferred",
      "type": "event"
    },
    {
      "inputs": [
        {
          "internalType": "address",
          "name": "target",
          "type": "address"
        },
        {
          "internalType": "uint256",
          "name": "value",
          "type": "uint256"
        },
        {
          "internalType": "bytes",
          "name": "data",
          "type": "bytes"
        }
      ],
      "name": "execute",
      "outputs": [
        {
          "internalType": "bool",
          "name": "",
          "type": "bool"
        },
        {
          "internalType": "bytes",
          "name": "",
          "type": "bytes"
        }
      ],
      "stateMutability": "nonpayable",
      "type": "function"
    },
    {
      "inputs": [],
      "name": "owner",
      "outputs": [
        {
          "internalType": "address",
          "name": "",
          "type": "address"
        }
      ],
      "stateMutability": "view",
      "type": "function"
    },
    {
      "inputs": [],
      "name": "proxy",
      "outputs": [
        {
          "internalType": "address",
          "name": "",
          "type": "address"
        }
      ],
      "stateMutability": "view",
      "type": "function"
    },
    {
      "inputs": [],
      "name": "renounceOwnership",
      "outputs": [],
      "stateMutability": "nonpayable",
      "type": "function"
    },
    {
      "inputs": [],
      "name": "reservedWom",
      "outputs": [
        {
          "internalType": "uint256",
          "name": "",
          "type": "uint256"
        }
      ],
      "stateMutability": "view",
      "type": "function"
    },
    {
      "inputs": [
        {
          "internalType": "address",
          "name": "_proxy",
          "type": "address"
        }
      ],
      "name": "setProxy",
      "outputs": [],
      "stateMutability": "nonpayable",
      "type": "function"
    },
    {
      "inputs": [
        {
          "internalType": "uint256",
          "name": "_reservedWom",
          "type": "uint256"
        }
      ],
      "name": "setReservedWom",
      "outputs": [],
      "stateMutability": "nonpayable",
      "type": "function"
    },
    {
      "inputs": [
        {
          "internalType": "address",
          "name": "newOwner",
          "type": "address"
        }
      ],
      "name": "transferOwnership",
      "outputs": [],
      "stateMutability": "nonpayable",
      "type": "function"
    }
  ],
  "transactionHash": "0xfdeabf9107368516aee4250704dc63a9ae1b4f8ed44b253574471c5a893f85fa",
  "args": [
    "0xDcEDF06Fd33E1D7b6eb4b309f779a0e9D3172e44"
  ],
  "solcInputHash": "7696a0e9e5d3b6a79efdccd1a63ea80a",
  "bytecode": "0x608060405234801561001057600080fd5b5060405161084d38038061084d83398101604081905261002f9161017a565b600080546001600160a01b0319163390811782556040519091829160008051602061082d833981519152908290a3506100678161006d565b506101aa565b6000546001600160a01b031633146100cc5760405162461bcd60e51b815260206004820181905260248201527f4f776e61626c653a2063616c6c6572206973206e6f7420746865206f776e657260448201526064015b60405180910390fd5b6001600160a01b0381166101315760405162461bcd60e51b815260206004820152602660248201527f4f776e61626c653a206e6577206f776e657220697320746865207a65726f206160448201526564647265737360d01b60648201526084016100c3565b600080546040516001600160a01b038085169392169160008051602061082d83398151915291a3600080546001600160a01b0319166001600160a01b0392909216919091179055565b60006020828403121561018c57600080fd5b81516001600160a01b03811681146101a357600080fd5b9392505050565b610674806101b96000396000f3fe608060405234801561001057600080fd5b50600436106100885760003560e01c8063b61d27f61161005b578063b61d27f6146100e7578063bcd57b3114610108578063ec5568891461011f578063f2fde38b1461013257600080fd5b8063336c765b1461008d578063715018a6146100a25780638da5cb5b146100aa57806397107d6d146100d4575b600080fd5b6100a061009b3660046104f1565b610145565b005b6100a06101a9565b6000546001600160a01b03165b6040516001600160a01b0390911681526020015b60405180910390f35b6100a06100e2366004610526565b61025a565b6100fa6100f5366004610548565b6102e3565b6040516100cb9291906105cf565b61011160025481565b6040519081526020016100cb565b6001546100b7906001600160a01b031681565b6100a0610140366004610526565b6103b3565b6001546001600160a01b031633146101a45760405162461bcd60e51b815260206004820152601660248201527f576f6d626174566f7465723a3a6f6e6c7950726f78790000000000000000000060448201526064015b60405180910390fd5b600255565b6000546001600160a01b031633146102035760405162461bcd60e51b815260206004820181905260248201527f4f776e61626c653a2063616c6c6572206973206e6f7420746865206f776e6572604482015260640161019b565b600080546040516001600160a01b03909116907f8be0079c531659141344cd1fd0a4f28419497f9722a3daafe3b4186f6b6457e0908390a36000805473ffffffffffffffffffffffffffffffffffffffff19169055565b6000546001600160a01b031633146102b45760405162461bcd60e51b815260206004820181905260248201527f4f776e61626c653a2063616c6c6572206973206e6f7420746865206f776e6572604482015260640161019b565b6001805473ffffffffffffffffffffffffffffffffffffffff19166001600160a01b0392909216919091179055565b6001546000906060906001600160a01b031633146103435760405162461bcd60e51b815260206004820152601660248201527f576f6d626174566f7465723a3a6f6e6c7950726f787900000000000000000000604482015260640161019b565b600080876001600160a01b031687878760405161036192919061062e565b60006040518083038185875af1925050503d806000811461039e576040519150601f19603f3d011682016040523d82523d6000602084013e6103a3565b606091505b5090999098509650505050505050565b6000546001600160a01b0316331461040d5760405162461bcd60e51b815260206004820181905260248201527f4f776e61626c653a2063616c6c6572206973206e6f7420746865206f776e6572604482015260640161019b565b6001600160a01b0381166104895760405162461bcd60e51b815260206004820152602660248201527f4f776e61626c653a206e6577206f776e657220697320746865207a65726f206160448201527f6464726573730000000000000000000000000000000000000000000000000000606482015260840161019b565b600080546040516001600160a01b03808516939216917f8be0079c531659141344cd1fd0a4f28419497f9722a3daafe3b4186f6b6457e091a36000805473ffffffffffffffffffffffffffffffffffffffff19166001600160a01b0392909216919091179055565b60006020828403121561050357600080fd5b5035919050565b80356001600160a01b038116811461052157600080fd5b919050565b60006020828403121561053857600080fd5b6105418261050a565b9392505050565b6000806000806060858703121561055e57600080fd5b6105678561050a565b935060208501359250604085013567ffffffffffffffff8082111561058b57600080fd5b818701915087601f83011261059f57600080fd5b8135818111156105ae57600080fd5b8860208285010111156105c057600080fd5b95989497505060200194505050565b821515815260006020604081840152835180604085015260005b81811015610605578581018301518582016060015282016105e9565b81811115610617576000606083870101525b50601f01601f191692909201606001949350505050565b818382376000910190815291905056fea2646970667358221220d1ed03be5bdef75e675b4281fde1750481b08ad726b2bcceb41c338cd270105964736f6c634300080d00338be0079c531659141344cd1fd0a4f28419497f9722a3daafe3b4186f6b6457e0",
  "devdoc": {
    "kind": "dev",
    "methods": {
      "owner()": {
        "details": "Returns the address of the current owner."
      },
      "renounceOwnership()": {
        "details": "Leaves the contract without owner. It will not be possible to call `onlyOwner` functions anymore. Can only be called by the current owner. NOTE: Renouncing ownership will leave the contract without an owner, thereby removing any functionality that is only available to the owner."
      },
      "transferOwnership(address)": {
        "details": "Transfers ownership of the contract to a new account (`newOwner`). Can only be called by the current owner."
      }
    },
    "version": 1
  },
  "userdoc": {
    "kind": "user",
    "methods": {},
    "version": 1
  },
  "storageLayout": {
    "storage": [
      {
        "astId": 1595,
        "contract": "contracts/strategies/crosschain/wombat/WombatVoter.sol:WombatVoter",
        "label": "_owner",
        "offset": 0,
        "slot": "0",
        "type": "t_address"
      },
      {
        "astId": 4270,
        "contract": "contracts/strategies/crosschain/wombat/WombatVoter.sol:WombatVoter",
        "label": "proxy",
        "offset": 0,
        "slot": "1",
        "type": "t_address"
      },
      {
        "astId": 4272,
        "contract": "contracts/strategies/crosschain/wombat/WombatVoter.sol:WombatVoter",
        "label": "reservedWom",
        "offset": 0,
        "slot": "2",
        "type": "t_uint256"
      }
    ],
    "types": {
      "t_address": {
        "encoding": "inplace",
        "label": "address",
        "numberOfBytes": "20"
      },
      "t_uint256": {
        "encoding": "inplace",
        "label": "uint256",
        "numberOfBytes": "32"
      }
    }
  }
}