{
  "address": "0xa84D83787eA216F616C6Bd02C6edC6D6d63f042f",
  "abi": [
    {
      "inputs": [
        {
          "internalType": "address",
          "name": "_wombatPool",
          "type": "address"
        },
        {
          "internalType": "address",
          "name": "_proxy",
          "type": "address"
        },
        {
          "components": [
            {
              "internalType": "address",
              "name": "gasToken",
              "type": "address"
            },
            {
              "internalType": "address[]",
              "name": "rewards",
              "type": "address[]"
            },
            {
              "internalType": "address",
              "name": "simpleRouter",
              "type": "address"
            }
          ],
          "internalType": "struct BaseStrategy.BaseStrategySettings",
          "name": "baseStrategySettings",
          "type": "tuple"
        },
        {
          "components": [
            {
              "internalType": "string",
              "name": "name",
              "type": "string"
            },
            {
              "internalType": "address",
              "name": "owner",
              "type": "address"
            },
            {
              "internalType": "address",
              "name": "dev",
              "type": "address"
            },
            {
              "internalType": "address",
              "name": "feeCollector",
              "type": "address"
            },
            {
              "internalType": "address",
              "name": "depositToken",
              "type": "address"
            },
            {
              "internalType": "address",
              "name": "rewardToken",
              "type": "address"
            },
            {
              "internalType": "uint256",
              "name": "minTokensToReinvest",
              "type": "uint256"
            },
            {
              "internalType": "uint256",
              "name": "devFeeBips",
              "type": "uint256"
            },
            {
              "internalType": "uint256",
              "name": "reinvestRewardBips",
              "type": "uint256"
            }
          ],
          "internalType": "struct YakStrategyV3.StrategySettings",
          "name": "_strategySettings",
          "type": "tuple"
        }
      ],
      "stateMutability": "nonpayable",
      "type": "constructor"
    },
    {
      "anonymous": false,
      "inputs": [
        {
          "indexed": false,
          "internalType": "address",
          "name": "rewardToken",
          "type": "address"
        }
      ],
      "name": "AddReward",
      "type": "event"
    },
    {
      "anonymous": false,
      "inputs": [
        {
          "indexed": true,
          "internalType": "address",
          "name": "owner",
          "type": "address"
        },
        {
          "indexed": true,
          "internalType": "address",
          "name": "spender",
          "type": "address"
        },
        {
          "indexed": false,
          "internalType": "uint256",
          "name": "value",
          "type": "uint256"
        }
      ],
      "name": "Approval",
      "type": "event"
    },
    {
      "anonymous": false,
      "inputs": [
        {
          "indexed": true,
          "internalType": "address",
          "name": "account",
          "type": "address"
        },
        {
          "indexed": false,
          "internalType": "uint256",
          "name": "amount",
          "type": "uint256"
        }
      ],
      "name": "Deposit",
      "type": "event"
    },
    {
      "anonymous": false,
      "inputs": [
        {
          "indexed": false,
          "internalType": "bool",
          "name": "newValue",
          "type": "bool"
        }
      ],
      "name": "DepositsEnabled",
      "type": "event"
    },
    {
      "anonymous": false,
      "inputs": [
        {
          "indexed": true,
          "internalType": "address",
          "name": "previousOwner",
          "type": "address"
        },
        {
          "indexed": true,
          "internalType": "address",
          "name": "newOwner",
          "type": "address"
        }
      ],
      "name": "OwnershipTransferred",
      "type": "event"
    },
    {
      "anonymous": false,
      "inputs": [
        {
          "indexed": false,
          "internalType": "address",
          "name": "token",
          "type": "address"
        },
        {
          "indexed": false,
          "internalType": "uint256",
          "name": "amount",
          "type": "uint256"
        }
      ],
      "name": "Recovered",
      "type": "event"
    },
    {
      "anonymous": false,
      "inputs": [
        {
          "indexed": false,
          "internalType": "uint256",
          "name": "newTotalDeposits",
          "type": "uint256"
        },
        {
          "indexed": false,
          "internalType": "uint256",
          "name": "newTotalSupply",
          "type": "uint256"
        }
      ],
      "name": "Reinvest",
      "type": "event"
    },
    {
      "anonymous": false,
      "inputs": [
        {
          "indexed": false,
          "internalType": "address",
          "name": "rewardToken",
          "type": "address"
        }
      ],
      "name": "RemoveReward",
      "type": "event"
    },
    {
      "anonymous": false,
      "inputs": [
        {
          "indexed": true,
          "internalType": "address",
          "name": "from",
          "type": "address"
        },
        {
          "indexed": true,
          "internalType": "address",
          "name": "to",
          "type": "address"
        },
        {
          "indexed": false,
          "internalType": "uint256",
          "name": "value",
          "type": "uint256"
        }
      ],
      "name": "Transfer",
      "type": "event"
    },
    {
      "anonymous": false,
      "inputs": [
        {
          "indexed": false,
          "internalType": "address",
          "name": "oldValue",
          "type": "address"
        },
        {
          "indexed": false,
          "internalType": "address",
          "name": "newValue",
          "type": "address"
        }
      ],
      "name": "UpdateDevAddr",
      "type": "event"
    },
    {
      "anonymous": false,
      "inputs": [
        {
          "indexed": false,
          "internalType": "uint256",
          "name": "oldValue",
          "type": "uint256"
        },
        {
          "indexed": false,
          "internalType": "uint256",
          "name": "newValue",
          "type": "uint256"
        }
      ],
      "name": "UpdateDevFee",
      "type": "event"
    },
    {
      "anonymous": false,
      "inputs": [
        {
          "indexed": false,
          "internalType": "address",
          "name": "oldValue",
          "type": "address"
        },
        {
          "indexed": false,
          "internalType": "address",
          "name": "newValue",
          "type": "address"
        }
      ],
      "name": "UpdateFeeCollector",
      "type": "event"
    },
    {
      "anonymous": false,
      "inputs": [
        {
          "indexed": false,
          "internalType": "uint256",
          "name": "oldValue",
          "type": "uint256"
        },
        {
          "indexed": false,
          "internalType": "uint256",
          "name": "newValue",
          "type": "uint256"
        }
      ],
      "name": "UpdateMaxTokensToDepositWithoutReinvest",
      "type": "event"
    },
    {
      "anonymous": false,
      "inputs": [
        {
          "indexed": false,
          "internalType": "uint256",
          "name": "oldValue",
          "type": "uint256"
        },
        {
          "indexed": false,
          "internalType": "uint256",
          "name": "newValue",
          "type": "uint256"
        }
      ],
      "name": "UpdateMinTokensToReinvest",
      "type": "event"
    },
    {
      "anonymous": false,
      "inputs": [
        {
          "indexed": false,
          "internalType": "uint256",
          "name": "oldValue",
          "type": "uint256"
        },
        {
          "indexed": false,
          "internalType": "uint256",
          "name": "newValue",
          "type": "uint256"
        }
      ],
      "name": "UpdateReinvestReward",
      "type": "event"
    },
    {
      "anonymous": false,
      "inputs": [
        {
          "indexed": false,
          "internalType": "address",
          "name": "oldRouter",
          "type": "address"
        },
        {
          "indexed": false,
          "internalType": "address",
          "name": "newRouter",
          "type": "address"
        }
      ],
      "name": "UpdateRouter",
      "type": "event"
    },
    {
      "anonymous": false,
      "inputs": [
        {
          "indexed": true,
          "internalType": "address",
          "name": "account",
          "type": "address"
        },
        {
          "indexed": false,
          "internalType": "uint256",
          "name": "amount",
          "type": "uint256"
        }
      ],
      "name": "Withdraw",
      "type": "event"
    },
    {
      "inputs": [],
      "name": "DEPOSITS_ENABLED",
      "outputs": [
        {
          "internalType": "bool",
          "name": "",
          "type": "bool"
        }
      ],
      "stateMutability": "view",
      "type": "function"
    },
    {
      "inputs": [],
      "name": "DEV_FEE_BIPS",
      "outputs": [
        {
          "internalType": "uint256",
          "name": "",
          "type": "uint256"
        }
      ],
      "stateMutability": "view",
      "type": "function"
    },
    {
      "inputs": [],
      "name": "DOMAIN_TYPEHASH",
      "outputs": [
        {
          "internalType": "bytes32",
          "name": "",
          "type": "bytes32"
        }
      ],
      "stateMutability": "view",
      "type": "function"
    },
    {
      "inputs": [],
      "name": "MIN_TOKENS_TO_REINVEST",
      "outputs": [
        {
          "internalType": "uint256",
          "name": "",
          "type": "uint256"
        }
      ],
      "stateMutability": "view",
      "type": "function"
    },
    {
      "inputs": [],
      "name": "PERMIT_TYPEHASH",
      "outputs": [
        {
          "internalType": "bytes32",
          "name": "",
          "type": "bytes32"
        }
      ],
      "stateMutability": "view",
      "type": "function"
    },
    {
      "inputs": [],
      "name": "REINVEST_REWARD_BIPS",
      "outputs": [
        {
          "internalType": "uint256",
          "name": "",
          "type": "uint256"
        }
      ],
      "stateMutability": "view",
      "type": "function"
    },
    {
      "inputs": [],
      "name": "VERSION_HASH",
      "outputs": [
        {
          "internalType": "bytes32",
          "name": "",
          "type": "bytes32"
        }
      ],
      "stateMutability": "view",
      "type": "function"
    },
    {
      "inputs": [
        {
          "internalType": "address",
          "name": "_rewardToken",
          "type": "address"
        }
      ],
      "name": "addReward",
      "outputs": [],
      "stateMutability": "nonpayable",
      "type": "function"
    },
    {
      "inputs": [
        {
          "internalType": "address",
          "name": "account",
          "type": "address"
        },
        {
          "internalType": "address",
          "name": "spender",
          "type": "address"
        }
      ],
      "name": "allowance",
      "outputs": [
        {
          "internalType": "uint256",
          "name": "",
          "type": "uint256"
        }
      ],
      "stateMutability": "view",
      "type": "function"
    },
    {
      "inputs": [
        {
          "internalType": "address",
          "name": "spender",
          "type": "address"
        },
        {
          "internalType": "uint256",
          "name": "amount",
          "type": "uint256"
        }
      ],
      "name": "approve",
      "outputs": [
        {
          "internalType": "bool",
          "name": "",
          "type": "bool"
        }
      ],
      "stateMutability": "nonpayable",
      "type": "function"
    },
    {
      "inputs": [
        {
          "internalType": "address",
          "name": "account",
          "type": "address"
        }
      ],
      "name": "balanceOf",
      "outputs": [
        {
          "internalType": "uint256",
          "name": "",
          "type": "uint256"
        }
      ],
      "stateMutability": "view",
      "type": "function"
    },
    {
      "inputs": [
        {
          "internalType": "uint256",
          "name": "_amount",
          "type": "uint256"
        }
      ],
      "name": "calculateDepositFee",
      "outputs": [
        {
          "internalType": "uint256",
          "name": "",
          "type": "uint256"
        }
      ],
      "stateMutability": "view",
      "type": "function"
    },
    {
      "inputs": [
        {
          "internalType": "uint256",
          "name": "_amount",
          "type": "uint256"
        }
      ],
      "name": "calculateWithdrawFee",
      "outputs": [
        {
          "internalType": "uint256",
          "name": "",
          "type": "uint256"
        }
      ],
      "stateMutability": "view",
      "type": "function"
    },
    {
      "inputs": [],
      "name": "checkReward",
      "outputs": [
        {
          "internalType": "uint256",
          "name": "",
          "type": "uint256"
        }
      ],
      "stateMutability": "view",
      "type": "function"
    },
    {
      "inputs": [],
      "name": "decimals",
      "outputs": [
        {
          "internalType": "uint8",
          "name": "",
          "type": "uint8"
        }
      ],
      "stateMutability": "view",
      "type": "function"
    },
    {
      "inputs": [
        {
          "internalType": "uint256",
          "name": "_amount",
          "type": "uint256"
        }
      ],
      "name": "deposit",
      "outputs": [],
      "stateMutability": "nonpayable",
      "type": "function"
    },
    {
      "inputs": [
        {
          "internalType": "address",
          "name": "_account",
          "type": "address"
        },
        {
          "internalType": "uint256",
          "name": "_amount",
          "type": "uint256"
        }
      ],
      "name": "depositFor",
      "outputs": [],
      "stateMutability": "nonpayable",
      "type": "function"
    },
    {
      "inputs": [],
      "name": "depositToken",
      "outputs": [
        {
          "internalType": "contract IERC20",
          "name": "",
          "type": "address"
        }
      ],
      "stateMutability": "view",
      "type": "function"
    },
    {
      "inputs": [
        {
          "internalType": "uint256",
          "name": "_amount",
          "type": "uint256"
        },
        {
          "internalType": "uint256",
          "name": "_deadline",
          "type": "uint256"
        },
        {
          "internalType": "uint8",
          "name": "_v",
          "type": "uint8"
        },
        {
          "internalType": "bytes32",
          "name": "_r",
          "type": "bytes32"
        },
        {
          "internalType": "bytes32",
          "name": "_s",
          "type": "bytes32"
        }
      ],
      "name": "depositWithPermit",
      "outputs": [],
      "stateMutability": "nonpayable",
      "type": "function"
    },
    {
      "inputs": [],
      "name": "devAddr",
      "outputs": [
        {
          "internalType": "address",
          "name": "",
          "type": "address"
        }
      ],
      "stateMutability": "view",
      "type": "function"
    },
    {
      "inputs": [],
      "name": "disableDeposits",
      "outputs": [],
      "stateMutability": "nonpayable",
      "type": "function"
    },
    {
      "inputs": [],
      "name": "enableDeposits",
      "outputs": [],
      "stateMutability": "nonpayable",
      "type": "function"
    },
    {
      "inputs": [],
      "name": "estimateReinvestReward",
      "outputs": [
        {
          "internalType": "uint256",
          "name": "",
          "type": "uint256"
        }
      ],
      "stateMutability": "view",
      "type": "function"
    },
    {
      "inputs": [],
      "name": "feeCollector",
      "outputs": [
        {
          "internalType": "address",
          "name": "",
          "type": "address"
        }
      ],
      "stateMutability": "view",
      "type": "function"
    },
    {
      "inputs": [
        {
          "internalType": "uint256",
          "name": "amount",
          "type": "uint256"
        }
      ],
      "name": "getDepositTokensForShares",
      "outputs": [
        {
          "internalType": "uint256",
          "name": "",
          "type": "uint256"
        }
      ],
      "stateMutability": "view",
      "type": "function"
    },
    {
      "inputs": [],
      "name": "getDomainSeparator",
      "outputs": [
        {
          "internalType": "bytes32",
          "name": "",
          "type": "bytes32"
        }
      ],
      "stateMutability": "view",
      "type": "function"
    },
    {
      "inputs": [
        {
          "internalType": "uint256",
          "name": "amount",
          "type": "uint256"
        }
      ],
      "name": "getSharesForDepositTokens",
      "outputs": [
        {
          "internalType": "uint256",
          "name": "",
          "type": "uint256"
        }
      ],
      "stateMutability": "view",
      "type": "function"
    },
    {
      "inputs": [],
      "name": "getSupportedRewardsLength",
      "outputs": [
        {
          "internalType": "uint256",
          "name": "",
          "type": "uint256"
        }
      ],
      "stateMutability": "view",
      "type": "function"
    },
    {
      "inputs": [],
      "name": "masterWombat",
      "outputs": [
        {
          "internalType": "address",
          "name": "",
          "type": "address"
        }
      ],
      "stateMutability": "view",
      "type": "function"
    },
    {
      "inputs": [],
      "name": "name",
      "outputs": [
        {
          "internalType": "string",
          "name": "",
          "type": "string"
        }
      ],
      "stateMutability": "view",
      "type": "function"
    },
    {
      "inputs": [
        {
          "internalType": "address",
          "name": "",
          "type": "address"
        }
      ],
      "name": "nonces",
      "outputs": [
        {
          "internalType": "uint256",
          "name": "",
          "type": "uint256"
        }
      ],
      "stateMutability": "view",
      "type": "function"
    },
    {
      "inputs": [],
      "name": "owner",
      "outputs": [
        {
          "internalType": "address",
          "name": "",
          "type": "address"
        }
      ],
      "stateMutability": "view",
      "type": "function"
    },
    {
      "inputs": [
        {
          "internalType": "address",
          "name": "owner",
          "type": "address"
        },
        {
          "internalType": "address",
          "name": "spender",
          "type": "address"
        },
        {
          "internalType": "uint256",
          "name": "value",
          "type": "uint256"
        },
        {
          "internalType": "uint256",
          "name": "deadline",
          "type": "uint256"
        },
        {
          "internalType": "uint8",
          "name": "v",
          "type": "uint8"
        },
        {
          "internalType": "bytes32",
          "name": "r",
          "type": "bytes32"
        },
        {
          "internalType": "bytes32",
          "name": "s",
          "type": "bytes32"
        }
      ],
      "name": "permit",
      "outputs": [],
      "stateMutability": "nonpayable",
      "type": "function"
    },
    {
      "inputs": [],
      "name": "pid",
      "outputs": [
        {
          "internalType": "uint256",
          "name": "",
          "type": "uint256"
        }
      ],
      "stateMutability": "view",
      "type": "function"
    },
    {
      "inputs": [],
      "name": "proxy",
      "outputs": [
        {
          "internalType": "contract IWombatProxy",
          "name": "",
          "type": "address"
        }
      ],
      "stateMutability": "view",
      "type": "function"
    },
    {
      "inputs": [
        {
          "internalType": "address",
          "name": "tokenAddress",
          "type": "address"
        },
        {
          "internalType": "uint256",
          "name": "tokenAmount",
          "type": "uint256"
        }
      ],
      "name": "recoverERC20",
      "outputs": [],
      "stateMutability": "nonpayable",
      "type": "function"
    },
    {
      "inputs": [
        {
          "internalType": "uint256",
          "name": "amount",
          "type": "uint256"
        }
      ],
      "name": "recoverGas",
      "outputs": [],
      "stateMutability": "nonpayable",
      "type": "function"
    },
    {
      "inputs": [],
      "name": "reinvest",
      "outputs": [],
      "stateMutability": "nonpayable",
      "type": "function"
    },
    {
      "inputs": [
        {
          "internalType": "address",
          "name": "_rewardToken",
          "type": "address"
        }
      ],
      "name": "removeReward",
      "outputs": [],
      "stateMutability": "nonpayable",
      "type": "function"
    },
    {
      "inputs": [],
      "name": "renounceOwnership",
      "outputs": [],
      "stateMutability": "nonpayable",
      "type": "function"
    },
    {
      "inputs": [
        {
          "internalType": "uint256",
          "name": "_minReturnAmountAccepted",
          "type": "uint256"
        }
      ],
      "name": "rescueDeployedFunds",
      "outputs": [],
      "stateMutability": "nonpayable",
      "type": "function"
    },
    {
      "inputs": [
        {
          "internalType": "address",
          "name": "token",
          "type": "address"
        },
        {
          "internalType": "address",
          "name": "spender",
          "type": "address"
        }
      ],
      "name": "revokeAllowance",
      "outputs": [],
      "stateMutability": "nonpayable",
      "type": "function"
    },
    {
      "inputs": [],
      "name": "rewardToken",
      "outputs": [
        {
          "internalType": "contract IERC20",
          "name": "",
          "type": "address"
        }
      ],
      "stateMutability": "view",
      "type": "function"
    },
    {
      "inputs": [
        {
          "internalType": "address",
          "name": "_proxy",
          "type": "address"
        }
      ],
      "name": "setProxy",
      "outputs": [],
      "stateMutability": "nonpayable",
      "type": "function"
    },
    {
      "inputs": [],
      "name": "simpleRouter",
      "outputs": [
        {
          "internalType": "contract ISimpleRouter",
          "name": "",
          "type": "address"
        }
      ],
      "stateMutability": "view",
      "type": "function"
    },
    {
      "inputs": [
        {
          "internalType": "uint256",
          "name": "",
          "type": "uint256"
        }
      ],
      "name": "supportedRewards",
      "outputs": [
        {
          "internalType": "address",
          "name": "",
          "type": "address"
        }
      ],
      "stateMutability": "view",
      "type": "function"
    },
    {
      "inputs": [],
      "name": "symbol",
      "outputs": [
        {
          "internalType": "string",
          "name": "",
          "type": "string"
        }
      ],
      "stateMutability": "view",
      "type": "function"
    },
    {
      "inputs": [],
      "name": "totalDeposits",
      "outputs": [
        {
          "internalType": "uint256",
          "name": "",
          "type": "uint256"
        }
      ],
      "stateMutability": "view",
      "type": "function"
    },
    {
      "inputs": [],
      "name": "totalSupply",
      "outputs": [
        {
          "internalType": "uint256",
          "name": "",
          "type": "uint256"
        }
      ],
      "stateMutability": "view",
      "type": "function"
    },
    {
      "inputs": [
        {
          "internalType": "address",
          "name": "dst",
          "type": "address"
        },
        {
          "internalType": "uint256",
          "name": "amount",
          "type": "uint256"
        }
      ],
      "name": "transfer",
      "outputs": [
        {
          "internalType": "bool",
          "name": "",
          "type": "bool"
        }
      ],
      "stateMutability": "nonpayable",
      "type": "function"
    },
    {
      "inputs": [
        {
          "internalType": "address",
          "name": "src",
          "type": "address"
        },
        {
          "internalType": "address",
          "name": "dst",
          "type": "address"
        },
        {
          "internalType": "uint256",
          "name": "amount",
          "type": "uint256"
        }
      ],
      "name": "transferFrom",
      "outputs": [
        {
          "internalType": "bool",
          "name": "",
          "type": "bool"
        }
      ],
      "stateMutability": "nonpayable",
      "type": "function"
    },
    {
      "inputs": [
        {
          "internalType": "address",
          "name": "newOwner",
          "type": "address"
        }
      ],
      "name": "transferOwnership",
      "outputs": [],
      "stateMutability": "nonpayable",
      "type": "function"
    },
    {
      "inputs": [],
      "name": "underlyingToken",
      "outputs": [
        {
          "internalType": "address",
          "name": "",
          "type": "address"
        }
      ],
      "stateMutability": "view",
      "type": "function"
    },
    {
      "inputs": [
        {
          "internalType": "address",
          "name": "newValue",
          "type": "address"
        }
      ],
      "name": "updateDevAddr",
      "outputs": [],
      "stateMutability": "nonpayable",
      "type": "function"
    },
    {
      "inputs": [
        {
          "internalType": "uint256",
          "name": "newValue",
          "type": "uint256"
        }
      ],
      "name": "updateDevFee",
      "outputs": [],
      "stateMutability": "nonpayable",
      "type": "function"
    },
    {
      "inputs": [
        {
          "internalType": "address",
          "name": "newValue",
          "type": "address"
        }
      ],
      "name": "updateFeeCollector",
      "outputs": [],
      "stateMutability": "nonpayable",
      "type": "function"
    },
    {
      "inputs": [
        {
          "internalType": "uint256",
          "name": "newValue",
          "type": "uint256"
        }
      ],
      "name": "updateMinTokensToReinvest",
      "outputs": [],
      "stateMutability": "nonpayable",
      "type": "function"
    },
    {
      "inputs": [
        {
          "internalType": "uint256",
          "name": "newValue",
          "type": "uint256"
        }
      ],
      "name": "updateReinvestReward",
      "outputs": [],
      "stateMutability": "nonpayable",
      "type": "function"
    },
    {
      "inputs": [
        {
          "internalType": "address",
          "name": "_router",
          "type": "address"
        }
      ],
      "name": "updateRouter",
      "outputs": [],
      "stateMutability": "nonpayable",
      "type": "function"
    },
    {
      "inputs": [
        {
          "internalType": "uint256",
          "name": "_amount",
          "type": "uint256"
        }
      ],
      "name": "withdraw",
      "outputs": [],
      "stateMutability": "nonpayable",
      "type": "function"
    },
    {
      "inputs": [],
      "name": "wombatPool",
      "outputs": [
        {
          "internalType": "contract IWombatPool",
          "name": "",
          "type": "address"
        }
      ],
      "stateMutability": "view",
      "type": "function"
    }
  ],
  "transactionHash": "0x996060d2f7760d65519bf824b76d007af89520437e667ba0a99e31b8520a95ed",
  "args": [
    "0xE3Abc29B035874a9f6dCDB06f8F20d9975069D87",
    "0x36C69a432Dbf4e7d603E06C675B9f062165fcC52",
    {
      "gasToken": "0xB31f66AA3C1e785363F0875A1B74E27b85FD66c7",
      "rewards": [
        "0x6e84a6216ea6dacc71ee8e6b0a5b7322eebc0fdd",
        "0x8729438EB15e2C8B576fCc6AeCdA6A148776C0F5"
      ],
      "simpleRouter": "0x959a0af5A46F76AA37317BC417D48B445658B188"
    },
    {
      "name": "Yield Yak: Wombat LP-AVAX",
      "owner": "0xDcEDF06Fd33E1D7b6eb4b309f779a0e9D3172e44",
      "dev": "0xDcEDF06Fd33E1D7b6eb4b309f779a0e9D3172e44",
      "feeCollector": "0x2D580F9CF2fB2D09BC411532988F2aFdA4E7BefF",
      "depositToken": "0x29eeB257a2A6eCDE2984aCeDF80A1B687f18eC91",
      "rewardToken": "0xB31f66AA3C1e785363F0875A1B74E27b85FD66c7",
      "minTokensToReinvest": "1000",
      "devFeeBips": 700,
      "reinvestRewardBips": 300
    }
  ],
  "solcInputHash": "7696a0e9e5d3b6a79efdccd1a63ea80a",
  "bytecode": "0x6101a06040526009610160819052685969656c642059616b60b81b6101809081526200002f9160009190620008b5565b506040805180820190915260038082526216549560ea1b60209092019182526200005c91600191620008b5565b503480156200006a57600080fd5b5060405162005548380380620055488339810160408190526200008d9162000bcd565b600680546001600160a01b0319163390811790915560405183918391829190819060009060008051602062005528833981519152908290a35080518051620000de91600091602090910190620008b5565b506080808201516001600160a01b0390811690915260a0808301519091169052600780546001600160a01b0319163317905560c0810151620001209062000396565b60e0810151620001309062000437565b6101008101516200014190620004f3565b60608101516200015190620005af565b6040810151620001619062000663565b6200016b62000717565b60208101516200017b90620007b8565b5081516001600160a01b031660c0526020808301518051620001a292600d92019062000944565b50604082810151600e80546001600160a01b0319166001600160a01b039092169190911790558051600080825260208201527fc7606d21ac05cd309191543e409f0845c016120563783d70e4f41419dc0ef234910160405180910390a150506001600160a01b03841660e08190526040805163077ac37560e31b81529051633bd61ba8916004808201926020929091908290030181865afa1580156200024c573d6000803e3d6000fd5b505050506040513d601f19601f8201168201806040525081019062000272919062000d28565b6001600160a01b0390811661010081905260805160405163015f253560e71b8152921660048301529063af929a8090602401602060405180830381865afa158015620002c2573d6000803e3d6000fd5b505050506040513d601f19601f82011682018060405250810190620002e8919062000d4d565b610120818152505082600f60006101000a8154816001600160a01b0302191690836001600160a01b031602179055506080516001600160a01b0316632495a5996040518163ffffffff1660e01b8152600401602060405180830381865afa15801562000358573d6000803e3d6000fd5b505050506040513d601f19601f820116820180604052508101906200037e919062000d28565b6001600160a01b0316610140525062000dca92505050565b6007546001600160a01b03163314620003f65760405162461bcd60e51b815260206004820152601460248201527f59616b53747261746567793a3a6f6e6c7944657600000000000000000000000060448201526064015b60405180910390fd5b60095460408051918252602082018390527f481f79ac3a523b6d6db3c5a720e190e986d1cc1b41adcdf50f9caef849901100910160405180910390a1600955565b6007546001600160a01b03163314620004935760405162461bcd60e51b815260206004820152601460248201527f59616b53747261746567793a3a6f6e6c794465760000000000000000000000006044820152606401620003ed565b612710600b5482620004a6919062000d67565b1115620004b257600080fd5b600c5460408051918252602082018390527f2a42303d002f0ba6cfe8259c91d4684443fb0b3de286ba74991175d651726131910160405180910390a1600c55565b6007546001600160a01b031633146200054f5760405162461bcd60e51b815260206004820152601460248201527f59616b53747261746567793a3a6f6e6c794465760000000000000000000000006044820152606401620003ed565b612710600c548262000562919062000d67565b11156200056e57600080fd5b600b5460408051918252602082018390527fe7f97d51d307dc44045597c9978bec0f842e6bb40d19b9444084cfa30d9ed4f2910160405180910390a1600b55565b6006546001600160a01b03163314620005fa5760405162461bcd60e51b81526020600482018190526024820152600080516020620055088339815191526044820152606401620003ed565b600854604080516001600160a01b03928316815291831660208301527fcc882185e6edeeb762130016ea1faf3d7aa9c01b199bfd646f965b58ab741063910160405180910390a1600880546001600160a01b0319166001600160a01b0392909216919091179055565b6006546001600160a01b03163314620006ae5760405162461bcd60e51b81526020600482018190526024820152600080516020620055088339815191526044820152606401620003ed565b600754604080516001600160a01b03928316815291831660208301527fa8e91499ed37682f43cffb045fcc7d379a91e8c9a14e6321877ee34dee564c00910160405180910390a1600780546001600160a01b0319166001600160a01b0392909216919091179055565b6006546001600160a01b03163314620007625760405162461bcd60e51b81526020600482018190526024820152600080516020620055088339815191526044820152606401620003ed565b600a5460ff16156200077357600080fd5b600a805460ff191660019081179091556040519081527f7b014ed3854e7f5cb0218d58b3c6ae7d53a68bb0af2f67bfb029ea42c38a7e859060200160405180910390a1565b6006546001600160a01b03163314620008035760405162461bcd60e51b81526020600482018190526024820152600080516020620055088339815191526044820152606401620003ed565b6001600160a01b0381166200086a5760405162461bcd60e51b815260206004820152602660248201527f4f776e61626c653a206e6577206f776e657220697320746865207a65726f206160448201526564647265737360d01b6064820152608401620003ed565b6006546040516001600160a01b038084169216906000805160206200552883398151915290600090a3600680546001600160a01b0319166001600160a01b0392909216919091179055565b828054620008c39062000d8e565b90600052602060002090601f016020900481019282620008e7576000855562000932565b82601f106200090257805160ff191683800117855562000932565b8280016001018555821562000932579182015b828111156200093257825182559160200191906001019062000915565b50620009409291506200099c565b5090565b82805482825590600052602060002090810192821562000932579160200282015b828111156200093257825182546001600160a01b0319166001600160a01b0390911617825560209092019160019091019062000965565b5b808211156200094057600081556001016200099d565b80516001600160a01b0381168114620009cb57600080fd5b919050565b634e487b7160e01b600052604160045260246000fd5b60405161012081016001600160401b038111828210171562000a0c5762000a0c620009d0565b60405290565b604051606081016001600160401b038111828210171562000a0c5762000a0c620009d0565b604051601f8201601f191681016001600160401b038111828210171562000a625762000a62620009d0565b604052919050565b600082601f83011262000a7c57600080fd5b81516001600160401b0381111562000a985762000a98620009d0565b602062000aae601f8301601f1916820162000a37565b828152858284870101111562000ac357600080fd5b60005b8381101562000ae357858101830151828201840152820162000ac6565b8381111562000af55760008385840101525b5095945050505050565b6000610120828403121562000b1357600080fd5b62000b1d620009e6565b82519091506001600160401b0381111562000b3757600080fd5b62000b458482850162000a6a565b82525062000b5660208301620009b3565b602082015262000b6960408301620009b3565b604082015262000b7c60608301620009b3565b606082015262000b8f60808301620009b3565b608082015262000ba260a08301620009b3565b60a082015260c082015160c082015260e082015160e082015261010080830151818301525092915050565b6000806000806080858703121562000be457600080fd5b62000bef85620009b3565b9350602062000c00818701620009b3565b60408701519094506001600160401b038082111562000c1e57600080fd5b908701906060828a03121562000c3357600080fd5b62000c3d62000a12565b62000c4883620009b3565b8152838301518281111562000c5c57600080fd5b8301601f81018b1362000c6e57600080fd5b80518381111562000c835762000c83620009d0565b8060051b62000c9487820162000a37565b918252828101870191878101908e84111562000caf57600080fd5b938801935b8385101562000cd85762000cc885620009b3565b8252938801939088019062000cb4565b858901525062000cef9250505060408401620009b3565b6040820152606089015190955092508083111562000d0c57600080fd5b505062000d1c8782880162000aff565b91505092959194509250565b60006020828403121562000d3b57600080fd5b62000d4682620009b3565b9392505050565b60006020828403121562000d6057600080fd5b5051919050565b6000821982111562000d8957634e487b7160e01b600052601160045260246000fd5b500190565b600181811c9082168062000da357607f821691505b60208210810362000dc457634e487b7160e01b600052602260045260246000fd5b50919050565b60805160a05160c05160e0516101005161012051610140516145c462000f446000396000818161049901528181613449015281816134e9015281816135bd015261365c0152600081816108560152818161121c0152818161267801528181612a7801528181612b61015281816139400152613a31015260008181610531015281816111f40152818161265001528181612a5001528181612b39015281816139180152613a090152600081816103b90152818161358e015261362d015260008181611be4015281816131a9015281816131d8015261324d0152600081816108a301528181611b4701528181611c4c01528181611d8b01528181612d8401528181612dec015281816130f50152818161327701528181613333015281816133960152818161347301526134c101526000818161076901528181610b0501528181610bd801528181610d6f01528181610e040152818161269e015281816128c101528181612a9e015281816137b7015261396601526145c46000f3fe608060405234801561001057600080fd5b50600436106103af5760003560e01c806395d89b41116101f4578063c851cc321161011a578063eab89a5a116100ad578063f2fde38b1161007c578063f2fde38b14610878578063f6314d071461088b578063f7c618c11461089e578063fdb5a03e146108c557600080fd5b8063eab89a5a14610823578063ec55688914610836578063ed24911d14610849578063f10684541461085157600080fd5b8063da09c72c116100e9578063da09c72c146107b1578063dd62ed3e146107c4578063dd8ce4d6146107fd578063e75ab0451461081057600080fd5b8063c851cc3214610751578063c89039c514610764578063d2c35ce81461078b578063d505accf1461079e57600080fd5b8063a9059cbb11610192578063b9e57b8011610161578063b9e57b8014610725578063bd079f551461072d578063c415b95c14610736578063c4b24a461461074957600080fd5b8063a9059cbb146106ea578063ac67e1af146106fd578063b52a321f14610705578063b6b55f251461071257600080fd5b80639c9b2e21116101ce5780639c9b2e211461068a5780639e4e73181461069d578063a4d5e67c146106c4578063a8ae2b7c146106d757600080fd5b806395d89b411461065c57806397107d6d1461066457806399729ec11461067757600080fd5b80634a970be7116102d95780637ae26773116102775780638980f11f116102465780638980f11f1461061c5780638aff733d1461062f5780638da5cb5b146106385780639291d5631461064957600080fd5b80637ae26773146105ce5780637d882097146105e15780637ecebe00146105e9578063818372301461060957600080fd5b8063666d25b9116102b3578063666d25b91461057757806370a082311461058a578063715018a6146105b35780637897e7f6146105bb57600080fd5b80634a970be7146105535780635e4c57a4146105665780635ea682ea1461056e57600080fd5b8063247d284b116103515780632f4f21e2116103205780632f4f21e2146104d857806330adf81f146104eb578063313ce567146105125780633bd61ba81461052c57600080fd5b8063247d284b146104305780632495a59914610494578063258250da146104bb5780632e1a7d4d146104c357600080fd5b8063110560351161038d578063110560351461043057806318160ddd1461045157806320606b701461045a57806323b872dd1461048157600080fd5b8063012ee928146103b457806306fdde03146103f8578063095ea7b31461040d575b600080fd5b6103db7f000000000000000000000000000000000000000000000000000000000000000081565b6040516001600160a01b0390911681526020015b60405180910390f35b6104006108cd565b6040516103ef9190613db9565b61042061041b366004613e01565b61095b565b60405190151581526020016103ef565b61044361043e366004613e2d565b610971565b6040519081526020016103ef565b61044360025481565b6104437f8b73c3c69bb8fe3d512ecc4cf759cc79239f7b179b0ffacaa9a75d522b39400f81565b61042061048f366004613e46565b610982565b6103db7f000000000000000000000000000000000000000000000000000000000000000081565b600d54610443565b6104d66104d1366004613e2d565b610a4b565b005b6104d66104e6366004613e01565b610b71565b6104437f6e71edae12b1b97f4d1f60370fef10105fa2faae0126114a169c64845d6126c981565b61051a601281565b60405160ff90911681526020016103ef565b6103db7f000000000000000000000000000000000000000000000000000000000000000081565b6104d6610561366004613e9d565b610b7f565b6104d6610c4d565b610443600c5481565b6104d6610585366004613e2d565b610cfd565b610443610598366004613ee4565b6001600160a01b031660009081526004602052604090205490565b6104d6610f7e565b6104d66105c9366004613e2d565b611022565b6104d66105dc366004613f01565b6110f4565b6104436111c1565b6104436105f7366004613ee4565b60056020526000908152604090205481565b6104d6610617366004613e2d565b611294565b6104d661062a366004613e01565b611326565b610443600b5481565b6006546001600160a01b03166103db565b6104d6610657366004613ee4565b6113e8565b6104006114ab565b6104d6610672366004613ee4565b6114b8565b6104d6610685366004613e2d565b61152b565b6104d6610698366004613ee4565b6115d9565b6104437fc89efdaa54c0f20c7adf612882df0950f5a951637e0307cdcb4c672f298b8bc681565b6104d66106d2366004613ee4565b611774565b6104d66106e5366004613e2d565b611977565b6104206106f8366004613e01565b611a25565b6104d6611a32565b600a546104209060ff1681565b6104d6610720366004613e2d565b611acd565b610443611ada565b61044360095481565b6008546103db906001600160a01b031681565b610443611b19565b6104d661075f366004613ee4565b611e6e565b6103db7f000000000000000000000000000000000000000000000000000000000000000081565b6104d6610799366004613ee4565b611f28565b6104d66107ac366004613f3a565b611feb565b6007546103db906001600160a01b031681565b6104436107d2366004613f01565b6001600160a01b03918216600090815260036020908152604080832093909416825291909152205490565b61044361080b366004613e2d565b6120fe565b6103db61081e366004613e2d565b612144565b610443610831366004613e2d565b61216e565b600f546103db906001600160a01b031681565b6104436121a4565b6104437f000000000000000000000000000000000000000000000000000000000000000081565b6104d6610886366004613ee4565b612244565b600e546103db906001600160a01b031681565b6103db7f000000000000000000000000000000000000000000000000000000000000000081565b6104d6612376565b600080546108da90613fa8565b80601f016020809104026020016040519081016040528092919081815260200182805461090690613fa8565b80156109535780601f1061092857610100808354040283529160200191610953565b820191906000526020600020905b81548152906001019060200180831161093657829003601f168201915b505050505081565b60006109683384846123d1565b50600192915050565b600061097c826124df565b92915050565b6001600160a01b0383166000818152600360209081526040808320338085529252822054919290919082148015906109bc57506000198114155b15610a325760006109cd8583613ff8565b6001600160a01b038881166000818152600360209081526040808320948916808452948252918290208590559051848152939450919290917f8c5be1e5ebec7d5bd14f71427d1e84f3dd0314c0f7b2291e5b200ac8c7c3b925910160405180910390a3505b610a3d8686866124f9565b6001925050505b9392505050565b6000610a568261216e565b905060008111610ad35760405162461bcd60e51b815260206004820152602560248201527f4261736553747261746567793a3a576974686472617720616d6f756e7420746f60448201527f6f206c6f7700000000000000000000000000000000000000000000000000000060648201526084015b60405180910390fd5b6000610ade8261261d565b90506000610aeb836124df565b9050610b2c33610afb8385613ff8565b6001600160a01b037f0000000000000000000000000000000000000000000000000000000000000000169190612711565b610b363385612791565b60405183815233907f884edad9ce6fa2440d8a54cc123490eb96d2768479d49ff9c7366125a94243649060200160405180910390a250505050565b610b7b8282612825565b5050565b6040517fd505accf000000000000000000000000000000000000000000000000000000008152336004820152306024820152604481018690526064810185905260ff8416608482015260a4810183905260c481018290527f00000000000000000000000000000000000000000000000000000000000000006001600160a01b03169063d505accf9060e401600060405180830381600087803b158015610c2457600080fd5b505af1158015610c38573d6000803e3d6000fd5b50505050610c463386612825565b5050505050565b6006546001600160a01b03163314610ca75760405162461bcd60e51b815260206004820181905260248201527f4f776e61626c653a2063616c6c6572206973206e6f7420746865206f776e65726044820152606401610aca565b600a5460ff1615610cb757600080fd5b600a805460ff191660019081179091556040519081527f7b014ed3854e7f5cb0218d58b3c6ae7d53a68bb0af2f67bfb029ea42c38a7e85906020015b60405180910390a1565b6006546001600160a01b03163314610d575760405162461bcd60e51b815260206004820181905260248201527f4f776e61626c653a2063616c6c6572206973206e6f7420746865206f776e65726044820152606401610aca565b6040516370a0823160e01b81523060048201526000907f00000000000000000000000000000000000000000000000000000000000000006001600160a01b0316906370a0823190602401602060405180830381865afa158015610dbe573d6000803e3d6000fd5b505050506040513d601f19601f82011682018060405250810190610de2919061400f565b9050610dec612a1d565b6040516370a0823160e01b81523060048201526000907f00000000000000000000000000000000000000000000000000000000000000006001600160a01b0316906370a0823190602401602060405180830381865afa158015610e53573d6000803e3d6000fd5b505050506040513d601f19601f82011682018060405250810190610e77919061400f565b905082610e848383613ff8565b1015610f1e5760405162461bcd60e51b815260206004820152604260248201527f4261736553747261746567793a3a456d657267656e637920776974686472617760448201527f206d696e696d756d2072657475726e20616d6f756e74206e6f7420726561636860648201527f6564000000000000000000000000000000000000000000000000000000000000608482015260a401610aca565b7fc7606d21ac05cd309191543e409f0845c016120563783d70e4f41419dc0ef234610f476111c1565b6002546040805192835260208301919091520160405180910390a1600a5460ff161515600103610f7957610f79611a32565b505050565b6006546001600160a01b03163314610fd85760405162461bcd60e51b815260206004820181905260248201527f4f776e61626c653a2063616c6c6572206973206e6f7420746865206f776e65726044820152606401610aca565b6006546040516000916001600160a01b0316907f8be0079c531659141344cd1fd0a4f28419497f9722a3daafe3b4186f6b6457e0908390a3600680546001600160a01b0319169055565b6006546001600160a01b0316331461107c5760405162461bcd60e51b815260206004820181905260248201527f4f776e61626c653a2063616c6c6572206973206e6f7420746865206f776e65726044820152606401610aca565b6000811161108957600080fd5b604051339082156108fc029083906000818181858888f193505050501580156110b6573d6000803e3d6000fd5b506040805160008152602081018390527f8c1256b8896378cd5044f80c202f9772b9d77dc85c8a6eb51967210b09bfaa28910160405180910390a150565b6007546001600160a01b031633146111455760405162461bcd60e51b81526020600482015260146024820152732cb0b5a9ba3930ba32b3bc9d1d37b7363ca232bb60611b6044820152606401610aca565b60405163095ea7b360e01b81526001600160a01b0382811660048301526000602483015283169063095ea7b3906044016020604051808303816000875af1158015611194573d6000803e3d6000fd5b505050506040513d601f19601f820116820180604052508101906111b89190614028565b610b7b57600080fd5b600f546040517f6656f9aa0000000000000000000000000000000000000000000000000000000081526001600160a01b037f0000000000000000000000000000000000000000000000000000000000000000811660048301527f000000000000000000000000000000000000000000000000000000000000000060248301526000921690636656f9aa90604401602060405180830381865afa15801561126b573d6000803e3d6000fd5b505050506040513d601f19601f8201168201806040525081019061128f919061400f565b905090565b6007546001600160a01b031633146112e55760405162461bcd60e51b81526020600482015260146024820152732cb0b5a9ba3930ba32b3bc9d1d37b7363ca232bb60611b6044820152606401610aca565b60095460408051918252602082018390527f481f79ac3a523b6d6db3c5a720e190e986d1cc1b41adcdf50f9caef849901100910160405180910390a1600955565b6006546001600160a01b031633146113805760405162461bcd60e51b815260206004820181905260248201527f4f776e61626c653a2063616c6c6572206973206e6f7420746865206f776e65726044820152606401610aca565b6000811161138d57600080fd5b6113a16001600160a01b0383163383612711565b604080516001600160a01b0384168152602081018390527f8c1256b8896378cd5044f80c202f9772b9d77dc85c8a6eb51967210b09bfaa2891015b60405180910390a15050565b6006546001600160a01b031633146114425760405162461bcd60e51b815260206004820181905260248201527f4f776e61626c653a2063616c6c6572206973206e6f7420746865206f776e65726044820152606401610aca565b600754604080516001600160a01b03928316815291831660208301527fa8e91499ed37682f43cffb045fcc7d379a91e8c9a14e6321877ee34dee564c00910160405180910390a1600780546001600160a01b0319166001600160a01b0392909216919091179055565b600180546108da90613fa8565b6007546001600160a01b031633146115095760405162461bcd60e51b81526020600482015260146024820152732cb0b5a9ba3930ba32b3bc9d1d37b7363ca232bb60611b6044820152606401610aca565b600f80546001600160a01b0319166001600160a01b0392909216919091179055565b6007546001600160a01b0316331461157c5760405162461bcd60e51b81526020600482015260146024820152732cb0b5a9ba3930ba32b3bc9d1d37b7363ca232bb60611b6044820152606401610aca565b612710600b548261158d919061404a565b111561159857600080fd5b600c5460408051918252602082018390527f2a42303d002f0ba6cfe8259c91d4684443fb0b3de286ba74991175d651726131910160405180910390a1600c55565b6007546001600160a01b0316331461162a5760405162461bcd60e51b81526020600482015260146024820152732cb0b5a9ba3930ba32b3bc9d1d37b7363ca232bb60611b6044820152606401610aca565b6000805b600d5481101561168157600d818154811061164b5761164b614062565b6000918252602090912001546001600160a01b039081169084160361166f57600191505b8061167981614078565b91505061162e565b5080156116f65760405162461bcd60e51b815260206004820152602860248201527f4261736553747261746567793a3a52657761726420616c726561647920636f6e60448201527f66696775726564210000000000000000000000000000000000000000000000006064820152608401610aca565b600d80546001810182556000919091527fd7b6990105719101dabeb77144f2a3385c8033acd3af97e9423a695e81ad1eb50180546001600160a01b0319166001600160a01b0384169081179091556040519081527f1714865bf5baa84e3439536a013c87cfe030b4cd69f344a5f2a4877de3d517ce906020016113dc565b6007546001600160a01b031633146117c55760405162461bcd60e51b81526020600482015260146024820152732cb0b5a9ba3930ba32b3bc9d1d37b7363ca232bb60611b6044820152606401610aca565b6000805b600d5481101561189557600d81815481106117e6576117e6614062565b6000918252602090912001546001600160a01b039081169084160361188357600d805460019350611818908490613ff8565b8154811061182857611828614062565b600091825260209091200154600d80546001600160a01b03909216918390811061185457611854614062565b9060005260206000200160006101000a8154816001600160a01b0302191690836001600160a01b031602179055505b8061188d81614078565b9150506117c9565b50806119085760405162461bcd60e51b8152602060048201526024808201527f4261736553747261746567793a3a526577617264206e6f7420636f6e6669677560448201527f72656421000000000000000000000000000000000000000000000000000000006064820152608401610aca565b600d80548061191957611919614091565b6000828152602090819020600019908301810180546001600160a01b03191690559091019091556040516001600160a01b03841681527f963b7c735475147a62c589c2d7cb8ec4b0a6b7af4f97373d79ebfa42ab8aa7dc91016113dc565b6007546001600160a01b031633146119c85760405162461bcd60e51b81526020600482015260146024820152732cb0b5a9ba3930ba32b3bc9d1d37b7363ca232bb60611b6044820152606401610aca565b612710600c54826119d9919061404a565b11156119e457600080fd5b600b5460408051918252602082018390527fe7f97d51d307dc44045597c9978bec0f842e6bb40d19b9444084cfa30d9ed4f2910160405180910390a1600b55565b60006109683384846124f9565b6007546001600160a01b03163314611a835760405162461bcd60e51b81526020600482015260146024820152732cb0b5a9ba3930ba32b3bc9d1d37b7363ca232bb60611b6044820152606401610aca565b600a5460ff16611a9257600080fd5b600a805460ff19169055604051600081527f7b014ed3854e7f5cb0218d58b3c6ae7d53a68bb0af2f67bfb029ea42c38a7e8590602001610cf3565b611ad73382612825565b50565b600080611ae5611b19565b90506009548110611b1157612710600b5482611b0191906140a7565b611b0b91906140c6565b91505090565b600091505090565b600080611b24612b06565b6040516370a0823160e01b81523060048201529091506000906001600160a01b037f000000000000000000000000000000000000000000000000000000000000000016906370a0823190602401602060405180830381865afa158015611b8e573d6000803e3d6000fd5b505050506040513d601f19601f82011682018060405250810190611bb2919061400f565b905060005b8251811015611e67576000838281518110611bd457611bd4614062565b60200260200101516000015190507f00000000000000000000000000000000000000000000000000000000000000006001600160a01b0316816001600160a01b031603611c4a5747848381518110611c2e57611c2e614062565b6020026020010151602001818151611c46919061404a565b9052505b7f00000000000000000000000000000000000000000000000000000000000000006001600160a01b0316816001600160a01b031603611cb357838281518110611c9557611c95614062565b60200260200101516020015183611cac919061404a565b9250611e54565b6001600160a01b03811615611e54576040516370a0823160e01b81523060048201526000906001600160a01b038316906370a0823190602401602060405180830381865afa158015611d09573d6000803e3d6000fd5b505050506040513d601f19601f82011682018060405250810190611d2d919061400f565b90506000858481518110611d4357611d43614062565b60200260200101516020015182611d5a919061404a565b90508015611e5157600e546040516377ccc49d60e11b8152600481018390526001600160a01b0385811660248301527f000000000000000000000000000000000000000000000000000000000000000081166044830152600092169063ef99893a90606401600060405180830381865afa158015611ddc573d6000803e3d6000fd5b505050506040513d6000823e601f3d908101601f19168201604052611e049190810190614213565b9050600181600001515111611e1a576000611e43565b80518051611e2a90600190613ff8565b81518110611e3a57611e3a614062565b60200260200101515b611e4d908761404a565b9550505b50505b5080611e5f81614078565b915050611bb7565b5092915050565b6007546001600160a01b03163314611ebf5760405162461bcd60e51b81526020600482015260146024820152732cb0b5a9ba3930ba32b3bc9d1d37b7363ca232bb60611b6044820152606401610aca565b600e54604080516001600160a01b03928316815291831660208301527f2c6fb4d5ff9fad6ecf2e09cd64cbc9aad92a8b9d2cc0e5c3ddef9b529b0b5ffd910160405180910390a1600e80546001600160a01b0319166001600160a01b0392909216919091179055565b6006546001600160a01b03163314611f825760405162461bcd60e51b815260206004820181905260248201527f4f776e61626c653a2063616c6c6572206973206e6f7420746865206f776e65726044820152606401610aca565b600854604080516001600160a01b03928316815291831660208301527fcc882185e6edeeb762130016ea1faf3d7aa9c01b199bfd646f965b58ab741063910160405180910390a1600880546001600160a01b0319166001600160a01b0392909216919091179055565b4284101561203b5760405162461bcd60e51b815260206004820152600f60248201527f7065726d69743a3a6578706972656400000000000000000000000000000000006044820152606401610aca565b6001600160a01b038716600090815260056020526040812080547f6e71edae12b1b97f4d1f60370fef10105fa2faae0126114a169c64845d6126c9918a918a918a91908661208883614078565b909155506040805160208101969096526001600160a01b0394851690860152929091166060840152608083015260a082015260c0810186905260e0016040516020818303038152906040528051906020012090506120e98882868686612bd8565b6120f48888886123d1565b5050505050505050565b6000806121096111c1565b60025490915080158061211a575081155b1561212757509192915050565b8161213282866140a7565b61213c91906140c6565b949350505050565b600d818154811061215457600080fd5b6000918252602090912001546001600160a01b0316905081565b6000806121796111c1565b60025490915080158061218a575081155b15612199575060009392505050565b8061213283866140a7565b60007f8b73c3c69bb8fe3d512ecc4cf759cc79239f7b179b0ffacaa9a75d522b39400f60001b60006040516121d99190614328565b6040519081900390207fc89efdaa54c0f20c7adf612882df0950f5a951637e0307cdcb4c672f298b8bc646604080516020810195909552840192909252606083015260808201523060a082015260c00160405160208183030381529060405280519060200120905090565b6006546001600160a01b0316331461229e5760405162461bcd60e51b815260206004820181905260248201527f4f776e61626c653a2063616c6c6572206973206e6f7420746865206f776e65726044820152606401610aca565b6001600160a01b03811661231a5760405162461bcd60e51b815260206004820152602660248201527f4f776e61626c653a206e6577206f776e657220697320746865207a65726f206160448201527f64647265737300000000000000000000000000000000000000000000000000006064820152608401610aca565b6006546040516001600160a01b038084169216907f8be0079c531659141344cd1fd0a4f28419497f9722a3daafe3b4186f6b6457e090600090a3600680546001600160a01b0319166001600160a01b0392909216919091179055565b3233146123c55760405162461bcd60e51b815260206004820152601460248201527f59616b53747261746567793a3a6f6e6c79454f410000000000000000000000006044820152606401610aca565b6123cf6000612d38565b565b6001600160a01b0383166124275760405162461bcd60e51b815260206004820152601c60248201527f5f617070726f76653a3a6f776e6572207a65726f2061646472657373000000006044820152606401610aca565b6001600160a01b03821661247d5760405162461bcd60e51b815260206004820152601e60248201527f5f617070726f76653a3a7370656e646572207a65726f206164647265737300006044820152606401610aca565b6001600160a01b0383811660008181526003602090815260408083209487168084529482529182902085905590518481527f8c5be1e5ebec7d5bd14f71427d1e84f3dd0314c0f7b2291e5b200ac8c7c3b92591015b60405180910390a3505050565b6000806127106124ef82856140a7565b610a4491906140c6565b6001600160a01b0382166125755760405162461bcd60e51b815260206004820152603460248201527f5f7472616e73666572546f6b656e733a2063616e6e6f74207472616e7366657260448201527f20746f20746865207a65726f20616464726573730000000000000000000000006064820152608401610aca565b6001600160a01b038316600090815260046020526040902054612599908290613ff8565b6001600160a01b0380851660009081526004602052604080822093909355908416815220546125c990829061404a565b6001600160a01b0380841660008181526004602052604090819020939093559151908516907fddf252ad1be2c89b69c2b068fc378daa952ba7f163c4a11628f55a4df523b3ef906124d29085815260200190565b600f546040517f9054261f0000000000000000000000000000000000000000000000000000000081526001600160a01b037f0000000000000000000000000000000000000000000000000000000000000000811660048301527f000000000000000000000000000000000000000000000000000000000000000060248301527f000000000000000000000000000000000000000000000000000000000000000081166044830152606482018490526000921690639054261f90608401600060405180830381600087803b1580156126f357600080fd5b505af1158015612707573d6000803e3d6000fd5b5093949350505050565b604080516001600160a01b038416602482015260448082018490528251808303909101815260649091019091526020810180517bffffffffffffffffffffffffffffffffffffffffffffffffffffffff167fa9059cbb00000000000000000000000000000000000000000000000000000000179052610f79908490612e98565b6001600160a01b0382166000908152600460205260409020546127b5908290613ff8565b6001600160a01b0383166000908152600460205260409020556002546127dc908290613ff8565b6002556040518181526000906001600160a01b038416907fddf252ad1be2c89b69c2b068fc378daa952ba7f163c4a11628f55a4df523b3ef906020015b60405180910390a35050565b600a5460ff16151560011461287c5760405162461bcd60e51b815260206004820152601f60248201527f4261736553747261746567793a3a4465706f736974732064697361626c6564006044820152606401610aca565b6128866001612d38565b6040517f23b872dd000000000000000000000000000000000000000000000000000000008152336004820152306024820152604481018290527f00000000000000000000000000000000000000000000000000000000000000006001600160a01b0316906323b872dd906064016020604051808303816000875af1158015612912573d6000803e3d6000fd5b505050506040513d601f19601f820116820180604052508101906129369190614028565b6129a85760405162461bcd60e51b815260206004820152602b60248201527f4261736553747261746567793a3a4465706f73697420746f6b656e207472616e60448201527f73666572206661696c65640000000000000000000000000000000000000000006064820152608401610aca565b60006129b3826124df565b90506129cb836129c661080b8486613ff8565b612f7d565b6129d58282613053565b826001600160a01b03167fe1fffcc4923d04b559f4d29a8bfc6cda04eb5b0d3c460751c2402c5c5cc9109c83604051612a1091815260200190565b60405180910390a2505050565b600f546040517f551512de0000000000000000000000000000000000000000000000000000000081526001600160a01b037f0000000000000000000000000000000000000000000000000000000000000000811660048301527f000000000000000000000000000000000000000000000000000000000000000060248301527f0000000000000000000000000000000000000000000000000000000000000000811660448301529091169063551512de906064015b600060405180830381600087803b158015612aec57600080fd5b505af1158015612b00573d6000803e3d6000fd5b50505050565b600f546040517f6099ecb20000000000000000000000000000000000000000000000000000000081526001600160a01b037f0000000000000000000000000000000000000000000000000000000000000000811660048301527f000000000000000000000000000000000000000000000000000000000000000060248301526060921690636099ecb290604401600060405180830381865afa158015612bb0573d6000803e3d6000fd5b505050506040513d6000823e601f3d908101601f1916820160405261128f91908101906143c3565b6000612be26121a4565b6040517f1901000000000000000000000000000000000000000000000000000000000000602082015260228101919091526042810186905260620160408051601f198184030181528282528051602091820120600080855291840180845281905260ff88169284019290925260608301869052608083018590529092509060019060a0016020604051602081039080840390855afa158015612c88573d6000803e3d6000fd5b5050604051601f1901519150506001600160a01b03811615801590612cbe5750866001600160a01b0316816001600160a01b0316145b612d2f5760405162461bcd60e51b8152602060048201526024808201527f417263683a3a76616c69646174655369673a20696e76616c6964207369676e6160448201527f74757265000000000000000000000000000000000000000000000000000000006064820152608401610aca565b50505050505050565b6000612d426130d3565b9050600954811115612e57576000612710600c5483612d6191906140a7565b612d6b91906140c6565b90508015612dad57600854612dad906001600160a01b037f00000000000000000000000000000000000000000000000000000000000000008116911683612711565b600083612dd457612710600b5484612dc591906140a7565b612dcf91906140c6565b612dd7565b60005b90508015612e1357612e136001600160a01b037f0000000000000000000000000000000000000000000000000000000000000000163383612711565b6000612e3282612e238587613ff8565b612e2d9190613ff8565b613445565b90508015612e53576000612e45826124df565b9050612e518282613053565b505b5050505b7fc7606d21ac05cd309191543e409f0845c016120563783d70e4f41419dc0ef234612e806111c1565b600254604080519283526020830191909152016113dc565b6000612eed826040518060400160405280602081526020017f5361666545524332303a206c6f772d6c6576656c2063616c6c206661696c6564815250856001600160a01b03166137a69092919063ffffffff16565b805190915015610f795780806020019051810190612f0b9190614028565b610f795760405162461bcd60e51b815260206004820152602a60248201527f5361666545524332303a204552433230206f7065726174696f6e20646964206e60448201527f6f742073756363656564000000000000000000000000000000000000000000006064820152608401610aca565b60008111612fcd5760405162461bcd60e51b815260206004820152601260248201527f5f6d696e743a3a7a65726f2073686172657300000000000000000000000000006044820152606401610aca565b80600254612fdb919061404a565b6002556001600160a01b03821660009081526004602052604090205461300290829061404a565b6001600160a01b0383166000818152600460205260408082209390935591519091907fddf252ad1be2c89b69c2b068fc378daa952ba7f163c4a11628f55a4df523b3ef906128199085815260200190565b600082116130c95760405162461bcd60e51b815260206004820152602260248201527f4261736553747261746567793a3a5374616b6520616d6f756e7420746f6f206c60448201527f6f770000000000000000000000000000000000000000000000000000000000006064820152608401610aca565b610b7b82826137b5565b60006130dd6139d6565b6040516370a0823160e01b81523060048201526000907f00000000000000000000000000000000000000000000000000000000000000006001600160a01b0316906370a0823190602401602060405180830381865afa158015613144573d6000803e3d6000fd5b505050506040513d601f19601f82011682018060405250810190613168919061400f565b600d5490915060005b8181101561343d576000600d828154811061318e5761318e614062565b6000918252602090912001546001600160a01b0390811691507f00000000000000000000000000000000000000000000000000000000000000001681036132b95747801561324b577f00000000000000000000000000000000000000000000000000000000000000006001600160a01b031663d0e30db0826040518263ffffffff1660e01b81526004016000604051808303818588803b15801561323157600080fd5b505af1158015613245573d6000803e3d6000fd5b50505050505b7f00000000000000000000000000000000000000000000000000000000000000006001600160a01b03167f00000000000000000000000000000000000000000000000000000000000000006001600160a01b0316036132b7576132ae818661404a565b9450505061342b565b505b6040516370a0823160e01b81523060048201526000906001600160a01b038316906370a0823190602401602060405180830381865afa158015613300573d6000803e3d6000fd5b505050506040513d601f19601f82011682018060405250810190613324919061400f565b905060008111801561336857507f00000000000000000000000000000000000000000000000000000000000000006001600160a01b0316826001600160a01b031614155b1561342857600e546040516377ccc49d60e11b8152600481018390526001600160a01b0384811660248301527f000000000000000000000000000000000000000000000000000000000000000081166044830152600092169063ef99893a90606401600060405180830381865afa1580156133e7573d6000803e3d6000fd5b505050506040513d6000823e601f3d908101601f1916820160405261340f9190810190614213565b905061341a81613a67565b613424908761404a565b9550505b50505b8061343581614078565b915050613171565b509092915050565b60007f00000000000000000000000000000000000000000000000000000000000000006001600160a01b03167f00000000000000000000000000000000000000000000000000000000000000006001600160a01b03161461357157600e546040516377ccc49d60e11b8152600481018490526001600160a01b037f0000000000000000000000000000000000000000000000000000000000000000811660248301527f000000000000000000000000000000000000000000000000000000000000000081166044830152600092169063ef99893a90606401600060405180830381865afa15801561353a573d6000803e3d6000fd5b505050506040513d6000823e601f3d908101601f191682016040526135629190810190614213565b905061356d81613a67565b9250505b811561379e5760405163095ea7b360e01b81526001600160a01b037f000000000000000000000000000000000000000000000000000000000000000081166004830152602482018490527f0000000000000000000000000000000000000000000000000000000000000000169063095ea7b3906044016020604051808303816000875af1158015613606573d6000803e3d6000fd5b505050506040513d601f19601f8201168201806040525081019061362a9190614028565b507f00000000000000000000000000000000000000000000000000000000000000006001600160a01b0316636281baef7f0000000000000000000000000000000000000000000000000000000000000000846000600f60009054906101000a90046001600160a01b03166001600160a01b03166346c96aac6040518163ffffffff1660e01b8152600401602060405180830381865afa1580156136d1573d6000803e3d6000fd5b505050506040513d601f19601f820116820180604052508101906136f59190614477565b60405160e086901b7fffffffff000000000000000000000000000000000000000000000000000000001681526001600160a01b039485166004820152602481019390935260448301919091529091166064820152426084820152600160a482015260c4016020604051808303816000875af1158015613778573d6000803e3d6000fd5b505050506040513d601f19601f8201168201806040525081019061379c919061400f565b505b506000919050565b606061213c8484600085613c0c565b7f00000000000000000000000000000000000000000000000000000000000000006001600160a01b031663a9059cbb600f60009054906101000a90046001600160a01b03166001600160a01b03166346c96aac6040518163ffffffff1660e01b8152600401602060405180830381865afa158015613837573d6000803e3d6000fd5b505050506040513d601f19601f8201168201806040525081019061385b9190614477565b6040517fffffffff0000000000000000000000000000000000000000000000000000000060e084901b1681526001600160a01b039091166004820152602481018590526044016020604051808303816000875af11580156138c0573d6000803e3d6000fd5b505050506040513d601f19601f820116820180604052508101906138e49190614028565b50600f546040517f19d7d7df0000000000000000000000000000000000000000000000000000000081526001600160a01b037f0000000000000000000000000000000000000000000000000000000000000000811660048301527f000000000000000000000000000000000000000000000000000000000000000060248301527f00000000000000000000000000000000000000000000000000000000000000008116604483015260648201859052909116906319d7d7df90608401600060405180830381600087803b1580156139ba57600080fd5b505af11580156139ce573d6000803e3d6000fd5b505050505050565b600f546040517f7387f44d0000000000000000000000000000000000000000000000000000000081526001600160a01b037f0000000000000000000000000000000000000000000000000000000000000000811660048301527f0000000000000000000000000000000000000000000000000000000000000000602483015290911690637387f44d90604401612ad2565b80515160009015801590613aa457508151805160009190613a8a90600190613ff8565b81518110613a9a57613a9a614062565b6020026020010151115b1561379e578160400151600081518110613ac057613ac0614062565b60200260200101516001600160a01b031663095ea7b3600e60009054906101000a90046001600160a01b03168460000151600081518110613b0357613b03614062565b60200260200101516040518363ffffffff1660e01b8152600401613b3c9291906001600160a01b03929092168252602082015260400190565b6020604051808303816000875af1158015613b5b573d6000803e3d6000fd5b505050506040513d601f19601f82011682018060405250810190613b7f9190614028565b50600e546040517f5b2466160000000000000000000000000000000000000000000000000000000081526001600160a01b0390911690635b24661690613bc99085906004016144d8565b6020604051808303816000875af1158015613be8573d6000803e3d6000fd5b505050506040513d601f19601f8201168201806040525081019061097c919061400f565b606082471015613c845760405162461bcd60e51b815260206004820152602660248201527f416464726573733a20696e73756666696369656e742062616c616e636520666f60448201527f722063616c6c00000000000000000000000000000000000000000000000000006064820152608401610aca565b6001600160a01b0385163b613cdb5760405162461bcd60e51b815260206004820152601d60248201527f416464726573733a2063616c6c20746f206e6f6e2d636f6e74726163740000006044820152606401610aca565b600080866001600160a01b03168587604051613cf79190614572565b60006040518083038185875af1925050503d8060008114613d34576040519150601f19603f3d011682016040523d82523d6000602084013e613d39565b606091505b5091509150613d49828286613d54565b979650505050505050565b60608315613d63575081610a44565b825115613d735782518084602001fd5b8160405162461bcd60e51b8152600401610aca9190613db9565b60005b83811015613da8578181015183820152602001613d90565b83811115612b005750506000910152565b6020815260008251806020840152613dd8816040850160208701613d8d565b601f01601f19169190910160400192915050565b6001600160a01b0381168114611ad757600080fd5b60008060408385031215613e1457600080fd5b8235613e1f81613dec565b946020939093013593505050565b600060208284031215613e3f57600080fd5b5035919050565b600080600060608486031215613e5b57600080fd5b8335613e6681613dec565b92506020840135613e7681613dec565b929592945050506040919091013590565b803560ff81168114613e9857600080fd5b919050565b600080600080600060a08688031215613eb557600080fd5b8535945060208601359350613ecc60408701613e87565b94979396509394606081013594506080013592915050565b600060208284031215613ef657600080fd5b8135610a4481613dec565b60008060408385031215613f1457600080fd5b8235613f1f81613dec565b91506020830135613f2f81613dec565b809150509250929050565b600080600080600080600060e0888a031215613f5557600080fd5b8735613f6081613dec565b96506020880135613f7081613dec565b95506040880135945060608801359350613f8c60808901613e87565b925060a0880135915060c0880135905092959891949750929550565b600181811c90821680613fbc57607f821691505b602082108103613fdc57634e487b7160e01b600052602260045260246000fd5b50919050565b634e487b7160e01b600052601160045260246000fd5b60008282101561400a5761400a613fe2565b500390565b60006020828403121561402157600080fd5b5051919050565b60006020828403121561403a57600080fd5b81518015158114610a4457600080fd5b6000821982111561405d5761405d613fe2565b500190565b634e487b7160e01b600052603260045260246000fd5b60006001820161408a5761408a613fe2565b5060010190565b634e487b7160e01b600052603160045260246000fd5b60008160001904831182151516156140c1576140c1613fe2565b500290565b6000826140e357634e487b7160e01b600052601260045260246000fd5b500490565b634e487b7160e01b600052604160045260246000fd5b6040516080810167ffffffffffffffff81118282101715614121576141216140e8565b60405290565b6040805190810167ffffffffffffffff81118282101715614121576141216140e8565b604051601f8201601f1916810167ffffffffffffffff81118282101715614173576141736140e8565b604052919050565b600067ffffffffffffffff821115614195576141956140e8565b5060051b60200190565b600082601f8301126141b057600080fd5b815160206141c56141c08361417b565b61414a565b82815260059290921b840181019181810190868411156141e457600080fd5b8286015b848110156142085780516141fb81613dec565b83529183019183016141e8565b509695505050505050565b6000602080838503121561422657600080fd5b825167ffffffffffffffff8082111561423e57600080fd5b908401906080828703121561425257600080fd5b61425a6140fe565b82518281111561426957600080fd5b8301601f8101881361427a57600080fd5b80516142886141c08261417b565b81815260059190911b8201860190868101908a8311156142a757600080fd5b928701925b828410156142c5578351825292870192908701906142ac565b845250505082840151828111156142db57600080fd5b6142e78882860161419f565b8583015250604083015193508184111561430057600080fd5b61430c8785850161419f565b6040820152606083015160608201528094505050505092915050565b600080835481600182811c91508083168061434457607f831692505b6020808410820361436357634e487b7160e01b86526022600452602486fd5b8180156143775760018114614388576143b5565b60ff198616895284890196506143b5565b60008a81526020902060005b868110156143ad5781548b820152908501908301614394565b505084890196505b509498975050505050505050565b600060208083850312156143d657600080fd5b825167ffffffffffffffff8111156143ed57600080fd5b8301601f810185136143fe57600080fd5b805161440c6141c08261417b565b81815260069190911b8201830190838101908783111561442b57600080fd5b928401925b82841015613d4957604084890312156144495760008081fd5b614451614127565b845161445c81613dec565b81528486015186820152825260409093019290840190614430565b60006020828403121561448957600080fd5b8151610a4481613dec565b600081518084526020808501945080840160005b838110156144cd5781516001600160a01b0316875295820195908201906001016144a8565b509495945050505050565b60208082528251608083830152805160a0840181905260009291820190839060c08601905b8083101561451d57835182529284019260019290920191908401906144fd565b50838701519350601f1992508286820301604087015261453d8185614494565b9350505060408501518185840301606086015261455a8382614494565b92505050606084015160808401528091505092915050565b60008251614584818460208701613d8d565b919091019291505056fea264697066735822122062658c0e83d6dbb942cb098bd26dcb9776e32eff50438dc31ecaa9f89623bb9764736f6c634300080d00334f776e61626c653a2063616c6c6572206973206e6f7420746865206f776e65728be0079c531659141344cd1fd0a4f28419497f9722a3daafe3b4186f6b6457e0",
  "devdoc": {
    "kind": "dev",
    "methods": {
      "allowance(address,address)": {
        "params": {
          "account": "The address of the account holding the funds",
          "spender": "The address of the account spending the funds"
        },
        "returns": {
          "_0": "The number of tokens approved"
        }
      },
      "approve(address,uint256)": {
        "details": "This will overwrite the approval amount for `spender` and is subject to issues noted [here](https://eips.ethereum.org/EIPS/eip-20#approve) It is recommended to use increaseAllowance and decreaseAllowance instead",
        "params": {
          "amount": "The number of tokens that are approved (2^256-1 means infinite)",
          "spender": "The address of the account which may transfer tokens"
        },
        "returns": {
          "_0": "Whether or not the approval succeeded"
        }
      },
      "balanceOf(address)": {
        "params": {
          "account": "The address of the account to get the balance of"
        },
        "returns": {
          "_0": "The number of tokens held"
        }
      },
      "checkReward()": {
        "returns": {
          "_0": "reward tokens"
        }
      },
      "deposit(uint256)": {
        "params": {
          "_amount": "Amount of tokens to deposit"
        }
      },
      "depositWithPermit(uint256,uint256,uint8,bytes32,bytes32)": {
        "params": {
          "_amount": "Amount of tokens to deposit",
          "_deadline": "The time at which to expire the signature",
          "_r": "Half of the ECDSA signature pair",
          "_s": "Half of the ECDSA signature pair",
          "_v": "The recovery byte of the signature"
        }
      },
      "estimateReinvestReward()": {
        "returns": {
          "_0": "reward tokens"
        }
      },
      "getDepositTokensForShares(uint256)": {
        "params": {
          "amount": "receipt tokens"
        },
        "returns": {
          "_0": "deposit tokens"
        }
      },
      "getDomainSeparator()": {
        "returns": {
          "_0": "Separator"
        }
      },
      "getSharesForDepositTokens(uint256)": {
        "details": "If contract is empty, use 1:1 ratioCould return zero shares for very low amounts of deposit tokens",
        "params": {
          "amount": "deposit tokens"
        },
        "returns": {
          "_0": "receipt tokens"
        }
      },
      "owner()": {
        "details": "Returns the address of the current owner."
      },
      "permit(address,address,uint256,uint256,uint8,bytes32,bytes32)": {
        "params": {
          "deadline": "The time at which to expire the signature",
          "owner": "The address to approve from",
          "r": "Half of the ECDSA signature pair",
          "s": "Half of the ECDSA signature pair",
          "spender": "The address to be approved",
          "v": "The recovery byte of the signature",
          "value": "The number of tokens that are approved (2^256-1 means infinite)"
        }
      },
      "recoverERC20(address,uint256)": {
        "params": {
          "tokenAddress": "token address",
          "tokenAmount": "amount to recover"
        }
      },
      "recoverGas(uint256)": {
        "params": {
          "amount": "amount"
        }
      },
      "renounceOwnership()": {
        "details": "Leaves the contract without owner. It will not be possible to call `onlyOwner` functions anymore. Can only be called by the current owner. NOTE: Renouncing ownership will leave the contract without an owner, thereby removing any functionality that is only available to the owner."
      },
      "revokeAllowance(address,address)": {
        "params": {
          "spender": "address",
          "token": "address"
        }
      },
      "totalDeposits()": {
        "returns": {
          "_0": "total deposits available on the contract"
        }
      },
      "transfer(address,uint256)": {
        "params": {
          "amount": "The number of tokens to transfer",
          "dst": "The address of the destination account"
        },
        "returns": {
          "_0": "Whether or not the transfer succeeded"
        }
      },
      "transferFrom(address,address,uint256)": {
        "params": {
          "amount": "The number of tokens to transfer",
          "dst": "The address of the destination account",
          "src": "The address of the source account"
        },
        "returns": {
          "_0": "Whether or not the transfer succeeded"
        }
      },
      "transferOwnership(address)": {
        "details": "Transfers ownership of the contract to a new account (`newOwner`). Can only be called by the current owner."
      },
      "updateDevAddr(address)": {
        "params": {
          "newValue": "address"
        }
      },
      "updateDevFee(uint256)": {
        "params": {
          "newValue": "fee in BIPS"
        }
      },
      "updateFeeCollector(address)": {
        "params": {
          "newValue": "address"
        }
      },
      "updateMinTokensToReinvest(uint256)": {
        "params": {
          "newValue": "threshold"
        }
      },
      "updateReinvestReward(uint256)": {
        "params": {
          "newValue": "fee in BIPS"
        }
      }
    },
    "version": 1
  },
  "userdoc": {
    "kind": "user",
    "methods": {
      "allowance(address,address)": {
        "notice": "Get the number of tokens `spender` is approved to spend on behalf of `account`"
      },
      "approve(address,uint256)": {
        "notice": "Approve `spender` to transfer up to `amount` from `src`"
      },
      "balanceOf(address)": {
        "notice": "Get the number of tokens held by the `account`"
      },
      "checkReward()": {
        "notice": "Reward tokens available to strategy, including balance"
      },
      "deposit(uint256)": {
        "notice": "Deposit tokens to receive receipt tokens"
      },
      "depositWithPermit(uint256,uint256,uint8,bytes32,bytes32)": {
        "notice": "Deposit using Permit"
      },
      "disableDeposits()": {
        "notice": "Disable deposits"
      },
      "enableDeposits()": {
        "notice": "Enable deposits"
      },
      "estimateReinvestReward()": {
        "notice": "Estimate reinvest reward"
      },
      "getDepositTokensForShares(uint256)": {
        "notice": "Calculate deposit tokens for a given amount of receipt tokens"
      },
      "getDomainSeparator()": {
        "notice": "EIP-712 Domain separator"
      },
      "getSharesForDepositTokens(uint256)": {
        "notice": "Calculate receipt tokens for a given amount of deposit tokens"
      },
      "permit(address,address,uint256,uint256,uint8,bytes32,bytes32)": {
        "notice": "Triggers an approval from owner to spender"
      },
      "recoverERC20(address,uint256)": {
        "notice": "Recover ERC20 from contract"
      },
      "recoverGas(uint256)": {
        "notice": "Recover GAS from contract"
      },
      "reinvest()": {
        "notice": "Reinvest reward tokens into deposit tokens"
      },
      "revokeAllowance(address,address)": {
        "notice": "Revoke token allowance"
      },
      "totalDeposits()": {
        "notice": "This function returns a snapshot of last available quotes"
      },
      "transfer(address,uint256)": {
        "notice": "Transfer `amount` tokens from `msg.sender` to `dst`"
      },
      "transferFrom(address,address,uint256)": {
        "notice": "Transfer `amount` tokens from `src` to `dst`"
      },
      "updateDevAddr(address)": {
        "notice": "Update devAddr"
      },
      "updateDevFee(uint256)": {
        "notice": "Update developer fee"
      },
      "updateFeeCollector(address)": {
        "notice": "Update feeCollector"
      },
      "updateMinTokensToReinvest(uint256)": {
        "notice": "Update reinvest min threshold"
      },
      "updateReinvestReward(uint256)": {
        "notice": "Update reinvest reward"
      }
    },
    "version": 1
  },
  "storageLayout": {
    "storage": [
      {
        "astId": 5,
        "contract": "contracts/strategies/crosschain/wombat/WombatStrategy.sol:WombatStrategy",
        "label": "name",
        "offset": 0,
        "slot": "0",
        "type": "t_string_storage"
      },
      {
        "astId": 8,
        "contract": "contracts/strategies/crosschain/wombat/WombatStrategy.sol:WombatStrategy",
        "label": "symbol",
        "offset": 0,
        "slot": "1",
        "type": "t_string_storage"
      },
      {
        "astId": 13,
        "contract": "contracts/strategies/crosschain/wombat/WombatStrategy.sol:WombatStrategy",
        "label": "totalSupply",
        "offset": 0,
        "slot": "2",
        "type": "t_uint256"
      },
      {
        "astId": 19,
        "contract": "contracts/strategies/crosschain/wombat/WombatStrategy.sol:WombatStrategy",
        "label": "allowances",
        "offset": 0,
        "slot": "3",
        "type": "t_mapping(t_address,t_mapping(t_address,t_uint256))"
      },
      {
        "astId": 23,
        "contract": "contracts/strategies/crosschain/wombat/WombatStrategy.sol:WombatStrategy",
        "label": "balances",
        "offset": 0,
        "slot": "4",
        "type": "t_mapping(t_address,t_uint256)"
      },
      {
        "astId": 39,
        "contract": "contracts/strategies/crosschain/wombat/WombatStrategy.sol:WombatStrategy",
        "label": "nonces",
        "offset": 0,
        "slot": "5",
        "type": "t_mapping(t_address,t_uint256)"
      },
      {
        "astId": 1595,
        "contract": "contracts/strategies/crosschain/wombat/WombatStrategy.sol:WombatStrategy",
        "label": "_owner",
        "offset": 0,
        "slot": "6",
        "type": "t_address"
      },
      {
        "astId": 552,
        "contract": "contracts/strategies/crosschain/wombat/WombatStrategy.sol:WombatStrategy",
        "label": "devAddr",
        "offset": 0,
        "slot": "7",
        "type": "t_address"
      },
      {
        "astId": 554,
        "contract": "contracts/strategies/crosschain/wombat/WombatStrategy.sol:WombatStrategy",
        "label": "feeCollector",
        "offset": 0,
        "slot": "8",
        "type": "t_address"
      },
      {
        "astId": 556,
        "contract": "contracts/strategies/crosschain/wombat/WombatStrategy.sol:WombatStrategy",
        "label": "MIN_TOKENS_TO_REINVEST",
        "offset": 0,
        "slot": "9",
        "type": "t_uint256"
      },
      {
        "astId": 558,
        "contract": "contracts/strategies/crosschain/wombat/WombatStrategy.sol:WombatStrategy",
        "label": "DEPOSITS_ENABLED",
        "offset": 0,
        "slot": "10",
        "type": "t_bool"
      },
      {
        "astId": 560,
        "contract": "contracts/strategies/crosschain/wombat/WombatStrategy.sol:WombatStrategy",
        "label": "REINVEST_REWARD_BIPS",
        "offset": 0,
        "slot": "11",
        "type": "t_uint256"
      },
      {
        "astId": 562,
        "contract": "contracts/strategies/crosschain/wombat/WombatStrategy.sol:WombatStrategy",
        "label": "DEV_FEE_BIPS",
        "offset": 0,
        "slot": "12",
        "type": "t_uint256"
      },
      {
        "astId": 2197,
        "contract": "contracts/strategies/crosschain/wombat/WombatStrategy.sol:WombatStrategy",
        "label": "supportedRewards",
        "offset": 0,
        "slot": "13",
        "type": "t_array(t_address)dyn_storage"
      },
      {
        "astId": 2200,
        "contract": "contracts/strategies/crosschain/wombat/WombatStrategy.sol:WombatStrategy",
        "label": "simpleRouter",
        "offset": 0,
        "slot": "14",
        "type": "t_contract(ISimpleRouter)1252"
      },
      {
        "astId": 4006,
        "contract": "contracts/strategies/crosschain/wombat/WombatStrategy.sol:WombatStrategy",
        "label": "proxy",
        "offset": 0,
        "slot": "15",
        "type": "t_contract(IWombatProxy)4553"
      }
    ],
    "types": {
      "t_address": {
        "encoding": "inplace",
        "label": "address",
        "numberOfBytes": "20"
      },
      "t_array(t_address)dyn_storage": {
        "base": "t_address",
        "encoding": "dynamic_array",
        "label": "address[]",
        "numberOfBytes": "32"
      },
      "t_bool": {
        "encoding": "inplace",
        "label": "bool",
        "numberOfBytes": "1"
      },
      "t_contract(ISimpleRouter)1252": {
        "encoding": "inplace",
        "label": "contract ISimpleRouter",
        "numberOfBytes": "20"
      },
      "t_contract(IWombatProxy)4553": {
        "encoding": "inplace",
        "label": "contract IWombatProxy",
        "numberOfBytes": "20"
      },
      "t_mapping(t_address,t_mapping(t_address,t_uint256))": {
        "encoding": "mapping",
        "key": "t_address",
        "label": "mapping(address => mapping(address => uint256))",
        "numberOfBytes": "32",
        "value": "t_mapping(t_address,t_uint256)"
      },
      "t_mapping(t_address,t_uint256)": {
        "encoding": "mapping",
        "key": "t_address",
        "label": "mapping(address => uint256)",
        "numberOfBytes": "32",
        "value": "t_uint256"
      },
      "t_string_storage": {
        "encoding": "bytes",
        "label": "string",
        "numberOfBytes": "32"
      },
      "t_uint256": {
        "encoding": "inplace",
        "label": "uint256",
        "numberOfBytes": "32"
      }
    }
  }
}