{
  "address": "0x2d53bDF5507E9aE283C114A8404B460c05F700cb",
  "abi": [
    {
      "inputs": [
        {
          "internalType": "contract IERC20",
          "name": "_depositToken",
          "type": "address"
        },
        {
          "internalType": "contract IERC20",
          "name": "_rewardToken",
          "type": "address"
        },
        {
          "internalType": "address",
          "name": "_feeCollector",
          "type": "address"
        }
      ],
      "stateMutability": "nonpayable",
      "type": "constructor"
    },
    {
      "anonymous": false,
      "inputs": [
        {
          "indexed": true,
          "internalType": "address",
          "name": "user",
          "type": "address"
        },
        {
          "indexed": true,
          "internalType": "address",
          "name": "rewardToken",
          "type": "address"
        },
        {
          "indexed": false,
          "internalType": "uint256",
          "name": "amount",
          "type": "uint256"
        }
      ],
      "name": "ClaimReward",
      "type": "event"
    },
    {
      "anonymous": false,
      "inputs": [
        {
          "indexed": true,
          "internalType": "address",
          "name": "user",
          "type": "address"
        },
        {
          "indexed": false,
          "internalType": "uint256",
          "name": "amount",
          "type": "uint256"
        },
        {
          "indexed": false,
          "internalType": "uint256",
          "name": "fee",
          "type": "uint256"
        }
      ],
      "name": "Deposit",
      "type": "event"
    },
    {
      "anonymous": false,
      "inputs": [
        {
          "indexed": false,
          "internalType": "uint256",
          "name": "newFee",
          "type": "uint256"
        },
        {
          "indexed": false,
          "internalType": "uint256",
          "name": "oldFee",
          "type": "uint256"
        }
      ],
      "name": "DepositFeeChanged",
      "type": "event"
    },
    {
      "anonymous": false,
      "inputs": [
        {
          "indexed": true,
          "internalType": "address",
          "name": "user",
          "type": "address"
        },
        {
          "indexed": false,
          "internalType": "uint256",
          "name": "amount",
          "type": "uint256"
        }
      ],
      "name": "EmergencyWithdraw",
      "type": "event"
    },
    {
      "anonymous": false,
      "inputs": [
        {
          "indexed": false,
          "internalType": "address",
          "name": "newFeeCollector",
          "type": "address"
        },
        {
          "indexed": false,
          "internalType": "address",
          "name": "oldFeeCollector",
          "type": "address"
        }
      ],
      "name": "FeeCollectorChanged",
      "type": "event"
    },
    {
      "anonymous": false,
      "inputs": [
        {
          "indexed": true,
          "internalType": "address",
          "name": "previousOwner",
          "type": "address"
        },
        {
          "indexed": true,
          "internalType": "address",
          "name": "newOwner",
          "type": "address"
        }
      ],
      "name": "OwnershipTransferred",
      "type": "event"
    },
    {
      "anonymous": false,
      "inputs": [
        {
          "indexed": false,
          "internalType": "address",
          "name": "token",
          "type": "address"
        }
      ],
      "name": "RewardTokenAdded",
      "type": "event"
    },
    {
      "anonymous": false,
      "inputs": [
        {
          "indexed": false,
          "internalType": "address",
          "name": "token",
          "type": "address"
        }
      ],
      "name": "RewardTokenRemoved",
      "type": "event"
    },
    {
      "anonymous": false,
      "inputs": [
        {
          "indexed": true,
          "internalType": "address",
          "name": "user",
          "type": "address"
        },
        {
          "indexed": false,
          "internalType": "uint256",
          "name": "amount",
          "type": "uint256"
        }
      ],
      "name": "Withdraw",
      "type": "event"
    },
    {
      "inputs": [],
      "name": "ACC_REWARD_PER_SHARE_PRECISION",
      "outputs": [
        {
          "internalType": "uint256",
          "name": "",
          "type": "uint256"
        }
      ],
      "stateMutability": "view",
      "type": "function"
    },
    {
      "inputs": [
        {
          "internalType": "contract IERC20",
          "name": "",
          "type": "address"
        }
      ],
      "name": "accRewardPerShare",
      "outputs": [
        {
          "internalType": "uint256",
          "name": "",
          "type": "uint256"
        }
      ],
      "stateMutability": "view",
      "type": "function"
    },
    {
      "inputs": [
        {
          "internalType": "contract IERC20",
          "name": "_rewardToken",
          "type": "address"
        }
      ],
      "name": "addRewardToken",
      "outputs": [],
      "stateMutability": "nonpayable",
      "type": "function"
    },
    {
      "inputs": [
        {
          "internalType": "uint256",
          "name": "amount",
          "type": "uint256"
        }
      ],
      "name": "deposit",
      "outputs": [],
      "stateMutability": "nonpayable",
      "type": "function"
    },
    {
      "inputs": [],
      "name": "depositFeePercent",
      "outputs": [
        {
          "internalType": "uint256",
          "name": "",
          "type": "uint256"
        }
      ],
      "stateMutability": "view",
      "type": "function"
    },
    {
      "inputs": [
        {
          "internalType": "address",
          "name": "account",
          "type": "address"
        },
        {
          "internalType": "uint256",
          "name": "amount",
          "type": "uint256"
        }
      ],
      "name": "depositFor",
      "outputs": [],
      "stateMutability": "nonpayable",
      "type": "function"
    },
    {
      "inputs": [],
      "name": "depositToken",
      "outputs": [
        {
          "internalType": "contract IERC20",
          "name": "",
          "type": "address"
        }
      ],
      "stateMutability": "view",
      "type": "function"
    },
    {
      "inputs": [
        {
          "internalType": "uint256",
          "name": "amount",
          "type": "uint256"
        },
        {
          "internalType": "uint256",
          "name": "deadline",
          "type": "uint256"
        },
        {
          "internalType": "uint8",
          "name": "v",
          "type": "uint8"
        },
        {
          "internalType": "bytes32",
          "name": "r",
          "type": "bytes32"
        },
        {
          "internalType": "bytes32",
          "name": "s",
          "type": "bytes32"
        }
      ],
      "name": "depositWithPermit",
      "outputs": [],
      "stateMutability": "nonpayable",
      "type": "function"
    },
    {
      "inputs": [],
      "name": "emergencyWithdraw",
      "outputs": [],
      "stateMutability": "nonpayable",
      "type": "function"
    },
    {
      "inputs": [],
      "name": "feeCollector",
      "outputs": [
        {
          "internalType": "address",
          "name": "",
          "type": "address"
        }
      ],
      "stateMutability": "view",
      "type": "function"
    },
    {
      "inputs": [
        {
          "internalType": "address",
          "name": "_user",
          "type": "address"
        },
        {
          "internalType": "contract IERC20",
          "name": "_rewardToken",
          "type": "address"
        }
      ],
      "name": "getUserInfo",
      "outputs": [
        {
          "internalType": "uint256",
          "name": "",
          "type": "uint256"
        },
        {
          "internalType": "uint256",
          "name": "",
          "type": "uint256"
        }
      ],
      "stateMutability": "view",
      "type": "function"
    },
    {
      "inputs": [],
      "name": "internalBalance",
      "outputs": [
        {
          "internalType": "uint256",
          "name": "",
          "type": "uint256"
        }
      ],
      "stateMutability": "view",
      "type": "function"
    },
    {
      "inputs": [
        {
          "internalType": "contract IERC20",
          "name": "",
          "type": "address"
        }
      ],
      "name": "isRewardToken",
      "outputs": [
        {
          "internalType": "bool",
          "name": "",
          "type": "bool"
        }
      ],
      "stateMutability": "view",
      "type": "function"
    },
    {
      "inputs": [
        {
          "internalType": "contract IERC20",
          "name": "",
          "type": "address"
        }
      ],
      "name": "lastRewardBalance",
      "outputs": [
        {
          "internalType": "uint256",
          "name": "",
          "type": "uint256"
        }
      ],
      "stateMutability": "view",
      "type": "function"
    },
    {
      "inputs": [],
      "name": "owner",
      "outputs": [
        {
          "internalType": "address",
          "name": "",
          "type": "address"
        }
      ],
      "stateMutability": "view",
      "type": "function"
    },
    {
      "inputs": [
        {
          "internalType": "address",
          "name": "_user",
          "type": "address"
        },
        {
          "internalType": "contract IERC20",
          "name": "_token",
          "type": "address"
        }
      ],
      "name": "pendingReward",
      "outputs": [
        {
          "internalType": "uint256",
          "name": "",
          "type": "uint256"
        }
      ],
      "stateMutability": "view",
      "type": "function"
    },
    {
      "inputs": [
        {
          "internalType": "contract IERC20",
          "name": "_rewardToken",
          "type": "address"
        }
      ],
      "name": "removeRewardToken",
      "outputs": [],
      "stateMutability": "nonpayable",
      "type": "function"
    },
    {
      "inputs": [],
      "name": "renounceOwnership",
      "outputs": [],
      "stateMutability": "nonpayable",
      "type": "function"
    },
    {
      "inputs": [
        {
          "internalType": "uint256",
          "name": "",
          "type": "uint256"
        }
      ],
      "name": "rewardTokens",
      "outputs": [
        {
          "internalType": "contract IERC20",
          "name": "",
          "type": "address"
        }
      ],
      "stateMutability": "view",
      "type": "function"
    },
    {
      "inputs": [],
      "name": "rewardTokensLength",
      "outputs": [
        {
          "internalType": "uint256",
          "name": "",
          "type": "uint256"
        }
      ],
      "stateMutability": "view",
      "type": "function"
    },
    {
      "inputs": [
        {
          "internalType": "uint256",
          "name": "_depositFeePercent",
          "type": "uint256"
        }
      ],
      "name": "setDepositFeePercent",
      "outputs": [],
      "stateMutability": "nonpayable",
      "type": "function"
    },
    {
      "inputs": [
        {
          "internalType": "address",
          "name": "newOwner",
          "type": "address"
        }
      ],
      "name": "transferOwnership",
      "outputs": [],
      "stateMutability": "nonpayable",
      "type": "function"
    },
    {
      "inputs": [
        {
          "internalType": "address",
          "name": "_newFeeCollector",
          "type": "address"
        }
      ],
      "name": "updateFeeCollector",
      "outputs": [],
      "stateMutability": "nonpayable",
      "type": "function"
    },
    {
      "inputs": [
        {
          "internalType": "contract IERC20",
          "name": "_token",
          "type": "address"
        }
      ],
      "name": "updateReward",
      "outputs": [],
      "stateMutability": "nonpayable",
      "type": "function"
    },
    {
      "inputs": [
        {
          "internalType": "uint256",
          "name": "_amount",
          "type": "uint256"
        }
      ],
      "name": "withdraw",
      "outputs": [],
      "stateMutability": "nonpayable",
      "type": "function"
    }
  ],
  "transactionHash": "0x3d88e873429f134edf28cffd55bd6a65e9dd63fd1da43de6e5139322b8e80077",
  "args": [
    "0xe7462905B79370389e8180E300F58f63D35B725F",
    "0x6e84a6216ea6dacc71ee8e6b0a5b7322eebc0fdd",
    "0xdcedf06fd33e1d7b6eb4b309f779a0e9d3172e44"
  ],
  "solcInputHash": "63be703b1674e2c2cade06f723f51ca8",
  "bytecode": "0x60806040523480156200001157600080fd5b506040516200217538038062002175833981810160405260608110156200003757600080fd5b508051602082015160409092015190919060006200005462000208565b600080546001600160a01b0319166001600160a01b0383169081178255604051929350917f8be0079c531659141344cd1fd0a4f28419497f9722a3daafe3b4186f6b6457e0908290a3506001600160a01b038316620000e55760405162461bcd60e51b815260040180806020018281038252602b815260200180620020f5602b913960400191505060405180910390fd5b6001600160a01b0382166200012c5760405162461bcd60e51b815260040180806020018281038252602a81526020018062002120602a913960400191505060405180910390fd5b6001600160a01b038116620001735760405162461bcd60e51b815260040180806020018281038252602b8152602001806200214a602b913960400191505060405180910390fd5b600180546001600160a01b03199081166001600160a01b0395861617825560068054821693861693909317909255919092166000818152600460205260408120805460ff19168417905560038054938401815590527fc2575a0e9e593c00f959f8c92f12db2869c3395a3b0502d05e2516446f71f85b909101805490921617905569d3c21bcecceda10000006009556200020c565b3390565b611ed9806200021c6000396000f3fe608060405234801561001057600080fd5b50600436106101a35760003560e01c80637bb7bed1116100ee578063c415b95c11610097578063d2c35ce811610071578063d2c35ce814610416578063db2e21bc1461043c578063f2801fe714610444578063f2fde38b1461048b576101a3565b8063c415b95c146103fe578063c89039c514610406578063cc1252ae1461040e576101a3565b8063b5fd73f8116100c8578063b5fd73f81461039f578063b6b55f25146103d9578063bf199e62146103f6576101a3565b80637bb7bed1146103305780638da5cb5b146103695780639ced7e7614610371576101a3565b80633d509c97116101505780635fc0d9e01161012a5780635fc0d9e0146102dc578063632447c914610302578063715018a614610328576101a3565b80633d509c97146102585780634a970be71461027e5780635dcea4d4146102b6576101a3565b80632e6245c6116101815780632e6245c61461020a5780632f4f21e2146102245780633c97d5ae14610250576101a3565b80631c03e6cc146101a85780632052eb77146101d05780632e1a7d4d146101ed575b600080fd5b6101ce600480360360208110156101be57600080fd5b50356001600160a01b03166104b1565b005b6101ce600480360360208110156101e657600080fd5b503561067d565b6101ce6004803603602081101561020357600080fd5b503561078b565b610212610987565b60408051918252519081900360200190f35b6101ce6004803603604081101561023a57600080fd5b506001600160a01b03813516906020013561098d565b61021261099b565b6101ce6004803603602081101561026e57600080fd5b50356001600160a01b03166109a1565b6101ce600480360360a081101561029457600080fd5b5080359060208101359060ff6040820135169060608101359060800135610bb3565b610212600480360360208110156102cc57600080fd5b50356001600160a01b0316610c6c565b610212600480360360208110156102f257600080fd5b50356001600160a01b0316610c7e565b6101ce6004803603602081101561031857600080fd5b50356001600160a01b0316610c90565b6101ce610e65565b61034d6004803603602081101561034657600080fd5b5035610f23565b604080516001600160a01b039092168252519081900360200190f35b61034d610f4a565b6102126004803603604081101561038757600080fd5b506001600160a01b0381358116916020013516610f59565b6103c5600480360360208110156103b557600080fd5b50356001600160a01b0316611101565b604080519115158252519081900360200190f35b6101ce600480360360208110156103ef57600080fd5b5035611116565b610212611120565b61034d611126565b61034d611135565b610212611144565b6101ce6004803603602081101561042c57600080fd5b50356001600160a01b031661114a565b6101ce611213565b6104726004803603604081101561045a57600080fd5b506001600160a01b03813581169160200135166112de565b6040805192835260208301919091528051918290030190f35b6101ce600480360360208110156104a157600080fd5b50356001600160a01b0316611311565b6104b9611425565b6001600160a01b03166104ca610f4a565b6001600160a01b031614610525576040805162461bcd60e51b815260206004820181905260248201527f4f776e61626c653a2063616c6c6572206973206e6f7420746865206f776e6572604482015290519081900360640190fd5b6001600160a01b03811660009081526004602052604090205460ff1615801561055657506001600160a01b03811615155b6105915760405162461bcd60e51b8152600401808060200182810382526025815260200180611de76025913960400191505060405180910390fd5b6003546019116105d25760405162461bcd60e51b8152600401808060200182810382526027815260200180611d966027913960400191505060405180910390fd5b6003805460018082019092557fc2575a0e9e593c00f959f8c92f12db2869c3395a3b0502d05e2516446f71f85b0180546001600160a01b0319166001600160a01b0384169081179091556000908152600460205260409020805460ff1916909117905561063e81610c90565b604080516001600160a01b038316815290517ff3e4c2c64e71e6ba2eaab9a599bced62f9eb91d2cda610bf41aa8c80ff2cf8269181900360200190a150565b610685611425565b6001600160a01b0316610696610f4a565b6001600160a01b0316146106f1576040805162461bcd60e51b815260206004820181905260248201527f4f776e61626c653a2063616c6c6572206973206e6f7420746865206f776e6572604482015290519081900360640190fd5b612710811115610748576040805162461bcd60e51b815260206004820152601f60248201527f59795374616b696e673a3a6465706f7369742066656520746f6f206869676800604482015290519081900360640190fd5b60075460408051838152602081019290925280517f6be5411ea11f30380402ca68832d060d744cbc5f62d2344495c10256ba93904a9281900390910190a1600755565b336000908152600a602052604090208054808311156107db5760405162461bcd60e51b815260040180806020018281038252602a815260200180611dbd602a913960400191505060405180910390fd5b81546000906107ea9085611429565b80845560035490915082156109235760005b818110156109215760006003828154811061081357fe5b6000918252602090912001546001600160a01b0316905061083381610c90565b6001600160a01b038116600090815260018701602090815260408083205460095460089093529083205461087c9261087691610870908b90611472565b906114cb565b90611429565b6009546001600160a01b0384166000908152600860205260409020549192506108aa91610870908890611472565b6001600160a01b03831660009081526001890160205260409020558015610917576108d682338361150d565b6040805182815290516001600160a01b0384169133917f7e77f685b38c861064cb08f2776eb5dfd3c82f652ed9f21221b8c53b75628e519181900360200190a35b50506001016107fc565b505b6002546109309086611429565b60025560015461094a906001600160a01b03163387611656565b60408051868152905133917f884edad9ce6fa2440d8a54cc123490eb96d2768479d49ff9c7366125a9424364919081900360200190a25050505050565b60025481565b61099782826116db565b5050565b60095481565b6109a9611425565b6001600160a01b03166109ba610f4a565b6001600160a01b031614610a15576040805162461bcd60e51b815260206004820181905260248201527f4f776e61626c653a2063616c6c6572206973206e6f7420746865206f776e6572604482015290519081900360640190fd5b6001600160a01b03811660009081526004602052604090205460ff16610a6c5760405162461bcd60e51b8152600401808060200182810382526027815260200180611e536027913960400191505060405180910390fd5b610a7581610c90565b6001600160a01b0381166000908152600460205260408120805460ff19169055600354905b81811015610b7257826001600160a01b031660038281548110610ab957fe5b6000918252602090912001546001600160a01b03161415610b6a5760036001830381548110610ae457fe5b600091825260209091200154600380546001600160a01b039092169183908110610b0a57fe5b9060005260206000200160006101000a8154816001600160a01b0302191690836001600160a01b031602179055506003805480610b4357fe5b600082815260209020810160001990810180546001600160a01b0319169055019055610b72565b600101610a9a565b50604080516001600160a01b038416815290517f66257bcef574219c04f7c05f7a1c78d599da10491294c92a5805c48b4cdf50099181900360200190a15050565b600154604080517fd505accf000000000000000000000000000000000000000000000000000000008152336004820152306024820152604481018890526064810187905260ff8616608482015260a4810185905260c4810184905290516001600160a01b039092169163d505accf9160e48082019260009290919082900301818387803b158015610c4357600080fd5b505af1158015610c57573d6000803e3d6000fd5b50505050610c6533866116db565b5050505050565b60086020526000908152604090205481565b60056020526000908152604090205481565b6001600160a01b03811660009081526004602052604090205460ff16610cfd576040805162461bcd60e51b815260206004820152601d60248201527f59795374616b696e673a3a77726f6e672072657761726420746f6b656e000000604482015290519081900360640190fd5b600254604080516370a0823160e01b815230600482015290516000916001600160a01b038516916370a0823191602480820192602092909190829003018186803b158015610d4a57600080fd5b505afa158015610d5e573d6000803e3d6000fd5b505050506040513d6020811015610d7457600080fd5b50516001549091506000906001600160a01b03858116911614610d975781610da1565b610da18284611429565b6001600160a01b038516600090815260056020526040902054909150811480610dc8575082155b15610dd557505050610e62565b6001600160a01b038416600090815260056020526040812054610df9908390611429565b9050610e36610e17856108706009548561147290919063ffffffff16565b6001600160a01b038716600090815260086020526040902054906118fb565b6001600160a01b0386166000908152600860209081526040808320939093556005905220919091555050505b50565b610e6d611425565b6001600160a01b0316610e7e610f4a565b6001600160a01b031614610ed9576040805162461bcd60e51b815260206004820181905260248201527f4f776e61626c653a2063616c6c6572206973206e6f7420746865206f776e6572604482015290519081900360640190fd5b600080546040516001600160a01b03909116907f8be0079c531659141344cd1fd0a4f28419497f9722a3daafe3b4186f6b6457e0908390a3600080546001600160a01b0319169055565b60038181548110610f3057fe5b6000918252602090912001546001600160a01b0316905081565b6000546001600160a01b031690565b6001600160a01b03811660009081526004602052604081205460ff16610f81575060006110fb565b6001600160a01b038084166000908152600a60209081526040808320600254948716808552600884528285205483516370a0823160e01b815230600482015293519296959094909391926370a08231926024808201939291829003018186803b158015610fed57600080fd5b505afa158015611001573d6000803e3d6000fd5b505050506040513d602081101561101757600080fd5b50516001549091506000906001600160a01b0388811691161461103a5781611044565b6110448285611429565b6001600160a01b038816600090815260056020526040902054909150811480159061106e57508315155b156110c0576001600160a01b038716600090815260056020526040812054611097908390611429565b90506110bc6110b5866108706009548561147290919063ffffffff16565b85906118fb565b9350505b6001600160a01b038716600090815260018601602052604090205460095486546110f39291610876916108709088611472565b955050505050505b92915050565b60046020526000908152604090205460ff1681565b610e6233826116db565b60035490565b6006546001600160a01b031681565b6001546001600160a01b031681565b60075481565b6006546001600160a01b031633146111a9576040805162461bcd60e51b815260206004820152601c60248201527f59795374616b696e673a3a6f6e6c7920666565436f6c6c6563746f7200000000604482015290519081900360640190fd5b600654604080516001600160a01b038085168252909216602083015280517f649c5e3d0ed183894196148e193af316452b0037e77d2ff0fef23b7dc722bed09281900390910190a1600680546001600160a01b0319166001600160a01b0392909216919091179055565b336000908152600a60205260408120805482825560035491929091905b8181101561127b5760006003828154811061124757fe5b60009182526020808320909101546001600160a01b0316825260018781019091526040822091909155919091019050611230565b506002546112899083611429565b6002556001546112a3906001600160a01b03163384611656565b60408051838152905133917f5fafa99d0643513820be26656b45130b01e1c03062e1266bf36f88cbd3bd9695919081900360200190a2505050565b6001600160a01b038083166000908152600a60209081526040808320805494861684526001019091529020549250929050565b611319611425565b6001600160a01b031661132a610f4a565b6001600160a01b031614611385576040805162461bcd60e51b815260206004820181905260248201527f4f776e61626c653a2063616c6c6572206973206e6f7420746865206f776e6572604482015290519081900360640190fd5b6001600160a01b0381166113ca5760405162461bcd60e51b8152600401808060200182810382526026815260200180611d706026913960400191505060405180910390fd5b600080546040516001600160a01b03808516939216917f8be0079c531659141344cd1fd0a4f28419497f9722a3daafe3b4186f6b6457e091a3600080546001600160a01b0319166001600160a01b0392909216919091179055565b3390565b600061146b83836040518060400160405280601f81526020017f536166654d6174683a207375627472616374696f6e20756e646572666c6f7700815250611955565b9392505050565b600082611481575060006110fb565b8282028284828161148e57fe5b041461146b5760405162461bcd60e51b8152600401808060200182810382526021815260200180611e326021913960400191505060405180910390fd5b600061146b83836040518060400160405280601a81526020017f536166654d6174683a206469766973696f6e206279207a65726f0000000000008152506119ec565b6000836001600160a01b03166370a08231306040518263ffffffff1660e01b815260040180826001600160a01b0316815260200191505060206040518083038186803b15801561155c57600080fd5b505afa158015611570573d6000803e3d6000fd5b505050506040513d602081101561158657600080fd5b50516001549091506000906001600160a01b038681169116146115a957816115b7565b6002546115b7908390611429565b905080831115611610576001600160a01b0385166000908152600560205260409020546115e49082611429565b6001600160a01b03861660008181526005602052604090209190915561160b908583611656565b610c65565b6001600160a01b0385166000908152600560205260409020546116339084611429565b6001600160a01b038616600081815260056020526040902091909155610c659085855b604080516001600160a01b038416602482015260448082018490528251808303909101815260649091019091526020810180517bffffffffffffffffffffffffffffffffffffffffffffffffffffffff167fa9059cbb000000000000000000000000000000000000000000000000000000001790526116d6908490611a51565b505050565b6001600160a01b0382166000908152600a6020526040812060075490919061170c9061271090610870908690611472565b9050600061171a8483611429565b8354909150600061172b82846118fb565b80865560035490915060005b818110156118665760006003828154811061174e57fe5b6000918252602090912001546001600160a01b0316905061176e81610c90565b6001600160a01b038116600090815260018901602090815260408083205460095460089093529220546117a79190610870908890611472565b6001600160a01b038316600090815260018b016020526040902055851561185c576009546001600160a01b03831660009081526008602052604081205490916117fb91849161087691610870908c90611472565b9050801561185a5761180e838d8361150d565b826001600160a01b03168c6001600160a01b03167f7e77f685b38c861064cb08f2776eb5dfd3c82f652ed9f21221b8c53b75628e51836040518082815260200191505060405180910390a35b505b5050600101611737565b5060025461187490856118fb565b600255600654600154611896916001600160a01b039182169133911688611b02565b6001546118ae906001600160a01b0316333087611b02565b604080518581526020810187905281516001600160a01b038b16927f90890809c654f11d6e72a28fa60149770a0d11ec6c92319d6ceb2bb0a4ea1a15928290030190a25050505050505050565b60008282018381101561146b576040805162461bcd60e51b815260206004820152601b60248201527f536166654d6174683a206164646974696f6e206f766572666c6f770000000000604482015290519081900360640190fd5b600081848411156119e45760405162461bcd60e51b81526004018080602001828103825283818151815260200191508051906020019080838360005b838110156119a9578181015183820152602001611991565b50505050905090810190601f1680156119d65780820380516001836020036101000a031916815260200191505b509250505060405180910390fd5b505050900390565b60008183611a3b5760405162461bcd60e51b81526020600482018181528351602484015283519092839260449091019190850190808383600083156119a9578181015183820152602001611991565b506000838581611a4757fe5b0495945050505050565b6060611aa6826040518060400160405280602081526020017f5361666545524332303a206c6f772d6c6576656c2063616c6c206661696c6564815250856001600160a01b0316611b909092919063ffffffff16565b8051909150156116d657808060200190516020811015611ac557600080fd5b50516116d65760405162461bcd60e51b815260040180806020018281038252602a815260200180611e7a602a913960400191505060405180910390fd5b604080516001600160a01b0380861660248301528416604482015260648082018490528251808303909101815260849091019091526020810180517bffffffffffffffffffffffffffffffffffffffffffffffffffffffff167f23b872dd00000000000000000000000000000000000000000000000000000000179052611b8a908590611a51565b50505050565b6060611b9f8484600085611ba7565b949350505050565b606082471015611be85760405162461bcd60e51b8152600401808060200182810382526026815260200180611e0c6026913960400191505060405180910390fd5b611bf185611d03565b611c42576040805162461bcd60e51b815260206004820152601d60248201527f416464726573733a2063616c6c20746f206e6f6e2d636f6e7472616374000000604482015290519081900360640190fd5b60006060866001600160a01b031685876040518082805190602001908083835b60208310611c815780518252601f199092019160209182019101611c62565b6001836020036101000a03801982511681845116808217855250505050505090500191505060006040518083038185875af1925050503d8060008114611ce3576040519150601f19603f3d011682016040523d82523d6000602084013e611ce8565b606091505b5091509150611cf8828286611d09565b979650505050505050565b3b151590565b60608315611d1857508161146b565b825115611d285782518084602001fd5b60405162461bcd60e51b81526020600482018181528451602484015284518593919283926044019190850190808383600083156119a957818101518382015260200161199156fe4f776e61626c653a206e6577206f776e657220697320746865207a65726f206164647265737359795374616b696e673a3a6c697374206f6620726577617264546f6b656e7320746f6f2062696759795374616b696e673a3a776974686472617720616d6f756e7420657863656564732062616c616e636559795374616b696e673a3a726577617264546f6b656e2063616e2774206265206164646564416464726573733a20696e73756666696369656e742062616c616e636520666f722063616c6c536166654d6174683a206d756c7469706c69636174696f6e206f766572666c6f7759795374616b696e673a3a726577617264546f6b656e2063616e27742062652072656d6f7665645361666545524332303a204552433230206f7065726174696f6e20646964206e6f742073756363656564a2646970667358221220610519e004ed3d39cbbb0de4e8567ba549d1c6687984cb113f9971ddaf91f35064736f6c6343000703003359795374616b696e673a3a6465706f736974546f6b656e2063616e2774206265206164647265737328302959795374616b696e673a3a726577617264546f6b656e2063616e2774206265206164647265737328302959795374616b696e673a3a666565436f6c6c6563746f722063616e27742062652061646472657373283029",
  "devdoc": {
    "author": "Yield Yak",
    "kind": "dev",
    "methods": {
      "addRewardToken(address)": {
        "params": {
          "_rewardToken": "The address of the reward token"
        }
      },
      "deposit(uint256)": {
        "params": {
          "amount": "The amount of depositToken to deposit"
        }
      },
      "depositFor(address,uint256)": {
        "params": {
          "account": "Account to deposit for",
          "amount": "The amount of depositToken to deposit"
        }
      },
      "depositWithPermit(uint256,uint256,uint8,bytes32,bytes32)": {
        "params": {
          "amount": "The amount of depositToken to deposit",
          "deadline": "The time at which to expire the signature",
          "r": "Half of the ECDSA signature pair",
          "s": "Half of the ECDSA signature pair",
          "v": "The recovery byte of the signature"
        }
      },
      "getUserInfo(address,address)": {
        "params": {
          "_rewardToken": "The address of the reward token",
          "_user": "The address of the user"
        },
        "returns": {
          "_0": "The amount of depositToken user has deposited",
          "_1": "The reward debt for the chosen token"
        }
      },
      "owner()": {
        "details": "Returns the address of the current owner."
      },
      "pendingReward(address,address)": {
        "params": {
          "_token": "The address of the token",
          "_user": "The address of the user"
        },
        "returns": {
          "_0": "`_user`'s pending reward token"
        }
      },
      "removeRewardToken(address)": {
        "params": {
          "_rewardToken": "The address of the reward token"
        }
      },
      "renounceOwnership()": {
        "details": "Leaves the contract without owner. It will not be possible to call `onlyOwner` functions anymore. Can only be called by the current owner. NOTE: Renouncing ownership will leave the contract without an owner, thereby removing any functionality that is only available to the owner."
      },
      "rewardTokensLength()": {
        "returns": {
          "_0": "The length of the array"
        }
      },
      "setDepositFeePercent(uint256)": {
        "params": {
          "_depositFeePercent": "The new deposit fee percent"
        }
      },
      "transferOwnership(address)": {
        "details": "Transfers ownership of the contract to a new account (`newOwner`). Can only be called by the current owner."
      },
      "updateFeeCollector(address)": {
        "details": "Restricted to existing fee collector",
        "params": {
          "_newFeeCollector": "The address of the new fee collector"
        }
      },
      "updateReward(address)": {
        "details": "Needs to be called before any deposit or withdrawal",
        "params": {
          "_token": "The address of the reward token"
        }
      },
      "withdraw(uint256)": {
        "params": {
          "_amount": "The amount to withdraw"
        }
      }
    },
    "stateVariables": {
      "DEPOSIT_FEE_PERCENT_PRECISION": {
        "details": "The precision of `depositFeePercent`"
      },
      "internalBalance": {
        "details": "Internal balance of depositToken, this gets updated on user deposits / withdrawals this allows to reward users with depositToken"
      },
      "userInfo": {
        "details": "Info of each user that stakes"
      }
    },
    "title": "YY Staking",
    "version": 1
  },
  "userdoc": {
    "events": {
      "ClaimReward(address,address,uint256)": {
        "notice": "Emitted when a user claims reward"
      },
      "Deposit(address,uint256,uint256)": {
        "notice": "Emitted when a user deposits"
      },
      "DepositFeeChanged(uint256,uint256)": {
        "notice": "Emitted when owner changes the deposit fee percentage"
      },
      "EmergencyWithdraw(address,uint256)": {
        "notice": "Emitted when a user emergency withdraws"
      },
      "FeeCollectorChanged(address,address)": {
        "notice": "Emitted when feeCollector changes the fee collector"
      },
      "RewardTokenAdded(address)": {
        "notice": "Emitted when owner adds a token to the reward tokens list"
      },
      "RewardTokenRemoved(address)": {
        "notice": "Emitted when owner removes a token from the reward tokens list"
      },
      "Withdraw(address,uint256)": {
        "notice": "Emitted when a user withdraws"
      }
    },
    "kind": "user",
    "methods": {
      "ACC_REWARD_PER_SHARE_PRECISION()": {
        "notice": "The precision of `accRewardPerShare`"
      },
      "accRewardPerShare(address)": {
        "notice": "Accumulated `token` rewards per share, scaled to `ACC_REWARD_PER_SHARE_PRECISION`"
      },
      "addRewardToken(address)": {
        "notice": "Add a reward token"
      },
      "deposit(uint256)": {
        "notice": "Deposit for reward token allocation"
      },
      "depositFeePercent()": {
        "notice": "The deposit fee, scaled to `DEPOSIT_FEE_PERCENT_PRECISION`"
      },
      "depositFor(address,uint256)": {
        "notice": "Deposit on behalf of another account"
      },
      "depositToken()": {
        "notice": "Farm deposit token"
      },
      "depositWithPermit(uint256,uint256,uint8,bytes32,bytes32)": {
        "notice": "Deposit using Permit"
      },
      "emergencyWithdraw()": {
        "notice": "Withdraw without caring about rewards. EMERGENCY ONLY"
      },
      "getUserInfo(address,address)": {
        "notice": "Get user info"
      },
      "lastRewardBalance(address)": {
        "notice": "Last reward balance of `token`"
      },
      "pendingReward(address,address)": {
        "notice": "View function to see pending reward token on frontend"
      },
      "removeRewardToken(address)": {
        "notice": "Remove a reward token"
      },
      "rewardTokens(uint256)": {
        "notice": "Array of tokens that users can claim"
      },
      "rewardTokensLength()": {
        "notice": "Get the number of reward tokens"
      },
      "setDepositFeePercent(uint256)": {
        "notice": "Set the deposit fee percent"
      },
      "updateFeeCollector(address)": {
        "notice": "Update fee collector"
      },
      "updateReward(address)": {
        "notice": "Update reward variables"
      },
      "withdraw(uint256)": {
        "notice": "Withdraw and harvest the rewards"
      }
    },
    "notice": "YyStaking is a contract that allows ERC20 dpeosits and receives rewards from token balances which may be transferred in without an additional function call. The contract is based on StableJoeStaking from Trader Joe. Users deposit X and receive a share of what has been sent based on their participation of the total deposits. It is similar to a MasterChef, but we allow for claiming of different reward tokens. Every time `updateReward(token)` is called, We distribute the balance of that tokens as rewards to users that are currently staking inside this contract, and they can claim it using `withdraw(0)`",
    "version": 1
  },
  "storageLayout": {
    "storage": [
      {
        "astId": 19597,
        "contract": "contracts/farms/YyStaking.sol:YyStaking",
        "label": "_owner",
        "offset": 0,
        "slot": "0",
        "type": "t_address"
      },
      {
        "astId": 9085,
        "contract": "contracts/farms/YyStaking.sol:YyStaking",
        "label": "depositToken",
        "offset": 0,
        "slot": "1",
        "type": "t_contract(IERC20)11363"
      },
      {
        "astId": 9088,
        "contract": "contracts/farms/YyStaking.sol:YyStaking",
        "label": "internalBalance",
        "offset": 0,
        "slot": "2",
        "type": "t_uint256"
      },
      {
        "astId": 9092,
        "contract": "contracts/farms/YyStaking.sol:YyStaking",
        "label": "rewardTokens",
        "offset": 0,
        "slot": "3",
        "type": "t_array(t_contract(IERC20)11363)dyn_storage"
      },
      {
        "astId": 9096,
        "contract": "contracts/farms/YyStaking.sol:YyStaking",
        "label": "isRewardToken",
        "offset": 0,
        "slot": "4",
        "type": "t_mapping(t_contract(IERC20)11363,t_bool)"
      },
      {
        "astId": 9101,
        "contract": "contracts/farms/YyStaking.sol:YyStaking",
        "label": "lastRewardBalance",
        "offset": 0,
        "slot": "5",
        "type": "t_mapping(t_contract(IERC20)11363,t_uint256)"
      },
      {
        "astId": 9103,
        "contract": "contracts/farms/YyStaking.sol:YyStaking",
        "label": "feeCollector",
        "offset": 0,
        "slot": "6",
        "type": "t_address"
      },
      {
        "astId": 9106,
        "contract": "contracts/farms/YyStaking.sol:YyStaking",
        "label": "depositFeePercent",
        "offset": 0,
        "slot": "7",
        "type": "t_uint256"
      },
      {
        "astId": 9115,
        "contract": "contracts/farms/YyStaking.sol:YyStaking",
        "label": "accRewardPerShare",
        "offset": 0,
        "slot": "8",
        "type": "t_mapping(t_contract(IERC20)11363,t_uint256)"
      },
      {
        "astId": 9118,
        "contract": "contracts/farms/YyStaking.sol:YyStaking",
        "label": "ACC_REWARD_PER_SHARE_PRECISION",
        "offset": 0,
        "slot": "9",
        "type": "t_uint256"
      },
      {
        "astId": 9123,
        "contract": "contracts/farms/YyStaking.sol:YyStaking",
        "label": "userInfo",
        "offset": 0,
        "slot": "10",
        "type": "t_mapping(t_address,t_struct(UserInfo)9082_storage)"
      }
    ],
    "types": {
      "t_address": {
        "encoding": "inplace",
        "label": "address",
        "numberOfBytes": "20"
      },
      "t_array(t_contract(IERC20)11363)dyn_storage": {
        "base": "t_contract(IERC20)11363",
        "encoding": "dynamic_array",
        "label": "contract IERC20[]",
        "numberOfBytes": "32"
      },
      "t_bool": {
        "encoding": "inplace",
        "label": "bool",
        "numberOfBytes": "1"
      },
      "t_contract(IERC20)11363": {
        "encoding": "inplace",
        "label": "contract IERC20",
        "numberOfBytes": "20"
      },
      "t_mapping(t_address,t_struct(UserInfo)9082_storage)": {
        "encoding": "mapping",
        "key": "t_address",
        "label": "mapping(address => struct YyStaking.UserInfo)",
        "numberOfBytes": "32",
        "value": "t_struct(UserInfo)9082_storage"
      },
      "t_mapping(t_contract(IERC20)11363,t_bool)": {
        "encoding": "mapping",
        "key": "t_contract(IERC20)11363",
        "label": "mapping(contract IERC20 => bool)",
        "numberOfBytes": "32",
        "value": "t_bool"
      },
      "t_mapping(t_contract(IERC20)11363,t_uint256)": {
        "encoding": "mapping",
        "key": "t_contract(IERC20)11363",
        "label": "mapping(contract IERC20 => uint256)",
        "numberOfBytes": "32",
        "value": "t_uint256"
      },
      "t_struct(UserInfo)9082_storage": {
        "encoding": "inplace",
        "label": "struct YyStaking.UserInfo",
        "members": [
          {
            "astId": 9077,
            "contract": "contracts/farms/YyStaking.sol:YyStaking",
            "label": "amount",
            "offset": 0,
            "slot": "0",
            "type": "t_uint256"
          },
          {
            "astId": 9081,
            "contract": "contracts/farms/YyStaking.sol:YyStaking",
            "label": "rewardDebt",
            "offset": 0,
            "slot": "1",
            "type": "t_mapping(t_contract(IERC20)11363,t_uint256)"
          }
        ],
        "numberOfBytes": "64"
      },
      "t_uint256": {
        "encoding": "inplace",
        "label": "uint256",
        "numberOfBytes": "32"
      }
    }
  }
}