{
  "address": "0x485240Fd6e73EC6afd32A7C64707F7AAc11EE151",
  "abi": [
    {
      "inputs": [
        {
          "components": [
            {
              "internalType": "address",
              "name": "incentivesController",
              "type": "address"
            },
            {
              "internalType": "address",
              "name": "lendingPool",
              "type": "address"
            },
            {
              "internalType": "address",
              "name": "avToken",
              "type": "address"
            },
            {
              "internalType": "address",
              "name": "avDebtToken",
              "type": "address"
            },
            {
              "internalType": "uint256",
              "name": "safetyFactor",
              "type": "uint256"
            },
            {
              "internalType": "uint256",
              "name": "minMinting",
              "type": "uint256"
            }
          ],
          "internalType": "struct LendleStrategy.LendleStrategySettings",
          "name": "_lendleStrategySettings",
          "type": "tuple"
        },
        {
          "components": [
            {
              "internalType": "uint256",
              "name": "leverageLevel",
              "type": "uint256"
            },
            {
              "internalType": "uint256",
              "name": "leverageBips",
              "type": "uint256"
            }
          ],
          "internalType": "struct BaseLendingStrategy.BaseLendingStrategySettings",
          "name": "_baseLendingStrategySettings",
          "type": "tuple"
        },
        {
          "components": [
            {
              "internalType": "address",
              "name": "gasToken",
              "type": "address"
            },
            {
              "internalType": "address[]",
              "name": "rewards",
              "type": "address[]"
            },
            {
              "internalType": "address",
              "name": "simpleRouter",
              "type": "address"
            }
          ],
          "internalType": "struct BaseStrategy.BaseStrategySettings",
          "name": "_baseStrategySettings",
          "type": "tuple"
        },
        {
          "components": [
            {
              "internalType": "string",
              "name": "name",
              "type": "string"
            },
            {
              "internalType": "address",
              "name": "owner",
              "type": "address"
            },
            {
              "internalType": "address",
              "name": "dev",
              "type": "address"
            },
            {
              "internalType": "address",
              "name": "feeCollector",
              "type": "address"
            },
            {
              "internalType": "address",
              "name": "depositToken",
              "type": "address"
            },
            {
              "internalType": "address",
              "name": "rewardToken",
              "type": "address"
            },
            {
              "internalType": "uint256",
              "name": "minTokensToReinvest",
              "type": "uint256"
            },
            {
              "internalType": "uint256",
              "name": "devFeeBips",
              "type": "uint256"
            },
            {
              "internalType": "uint256",
              "name": "reinvestRewardBips",
              "type": "uint256"
            }
          ],
          "internalType": "struct YakStrategyV3.StrategySettings",
          "name": "_strategySettings",
          "type": "tuple"
        }
      ],
      "stateMutability": "nonpayable",
      "type": "constructor"
    },
    {
      "anonymous": false,
      "inputs": [
        {
          "indexed": false,
          "internalType": "address",
          "name": "rewardToken",
          "type": "address"
        }
      ],
      "name": "AddReward",
      "type": "event"
    },
    {
      "anonymous": false,
      "inputs": [
        {
          "indexed": true,
          "internalType": "address",
          "name": "owner",
          "type": "address"
        },
        {
          "indexed": true,
          "internalType": "address",
          "name": "spender",
          "type": "address"
        },
        {
          "indexed": false,
          "internalType": "uint256",
          "name": "value",
          "type": "uint256"
        }
      ],
      "name": "Approval",
      "type": "event"
    },
    {
      "anonymous": false,
      "inputs": [
        {
          "indexed": true,
          "internalType": "address",
          "name": "account",
          "type": "address"
        },
        {
          "indexed": false,
          "internalType": "uint256",
          "name": "amount",
          "type": "uint256"
        }
      ],
      "name": "Deposit",
      "type": "event"
    },
    {
      "anonymous": false,
      "inputs": [
        {
          "indexed": false,
          "internalType": "bool",
          "name": "newValue",
          "type": "bool"
        }
      ],
      "name": "DepositsEnabled",
      "type": "event"
    },
    {
      "anonymous": false,
      "inputs": [
        {
          "indexed": true,
          "internalType": "address",
          "name": "previousOwner",
          "type": "address"
        },
        {
          "indexed": true,
          "internalType": "address",
          "name": "newOwner",
          "type": "address"
        }
      ],
      "name": "OwnershipTransferred",
      "type": "event"
    },
    {
      "anonymous": false,
      "inputs": [
        {
          "indexed": false,
          "internalType": "address",
          "name": "token",
          "type": "address"
        },
        {
          "indexed": false,
          "internalType": "uint256",
          "name": "amount",
          "type": "uint256"
        }
      ],
      "name": "Recovered",
      "type": "event"
    },
    {
      "anonymous": false,
      "inputs": [
        {
          "indexed": false,
          "internalType": "uint256",
          "name": "newTotalDeposits",
          "type": "uint256"
        },
        {
          "indexed": false,
          "internalType": "uint256",
          "name": "newTotalSupply",
          "type": "uint256"
        }
      ],
      "name": "Reinvest",
      "type": "event"
    },
    {
      "anonymous": false,
      "inputs": [
        {
          "indexed": false,
          "internalType": "address",
          "name": "rewardToken",
          "type": "address"
        }
      ],
      "name": "RemoveReward",
      "type": "event"
    },
    {
      "anonymous": false,
      "inputs": [
        {
          "indexed": true,
          "internalType": "address",
          "name": "from",
          "type": "address"
        },
        {
          "indexed": true,
          "internalType": "address",
          "name": "to",
          "type": "address"
        },
        {
          "indexed": false,
          "internalType": "uint256",
          "name": "value",
          "type": "uint256"
        }
      ],
      "name": "Transfer",
      "type": "event"
    },
    {
      "anonymous": false,
      "inputs": [
        {
          "indexed": false,
          "internalType": "address",
          "name": "oldValue",
          "type": "address"
        },
        {
          "indexed": false,
          "internalType": "address",
          "name": "newValue",
          "type": "address"
        }
      ],
      "name": "UpdateDevAddr",
      "type": "event"
    },
    {
      "anonymous": false,
      "inputs": [
        {
          "indexed": false,
          "internalType": "uint256",
          "name": "oldValue",
          "type": "uint256"
        },
        {
          "indexed": false,
          "internalType": "uint256",
          "name": "newValue",
          "type": "uint256"
        }
      ],
      "name": "UpdateDevFee",
      "type": "event"
    },
    {
      "anonymous": false,
      "inputs": [
        {
          "indexed": false,
          "internalType": "address",
          "name": "oldValue",
          "type": "address"
        },
        {
          "indexed": false,
          "internalType": "address",
          "name": "newValue",
          "type": "address"
        }
      ],
      "name": "UpdateFeeCollector",
      "type": "event"
    },
    {
      "anonymous": false,
      "inputs": [
        {
          "indexed": false,
          "internalType": "uint256",
          "name": "oldValue",
          "type": "uint256"
        },
        {
          "indexed": false,
          "internalType": "uint256",
          "name": "newValue",
          "type": "uint256"
        }
      ],
      "name": "UpdateMaxTokensToDepositWithoutReinvest",
      "type": "event"
    },
    {
      "anonymous": false,
      "inputs": [
        {
          "indexed": false,
          "internalType": "uint256",
          "name": "oldValue",
          "type": "uint256"
        },
        {
          "indexed": false,
          "internalType": "uint256",
          "name": "newValue",
          "type": "uint256"
        }
      ],
      "name": "UpdateMinTokensToReinvest",
      "type": "event"
    },
    {
      "anonymous": false,
      "inputs": [
        {
          "indexed": false,
          "internalType": "uint256",
          "name": "oldValue",
          "type": "uint256"
        },
        {
          "indexed": false,
          "internalType": "uint256",
          "name": "newValue",
          "type": "uint256"
        }
      ],
      "name": "UpdateReinvestReward",
      "type": "event"
    },
    {
      "anonymous": false,
      "inputs": [
        {
          "indexed": false,
          "internalType": "address",
          "name": "oldRouter",
          "type": "address"
        },
        {
          "indexed": false,
          "internalType": "address",
          "name": "newRouter",
          "type": "address"
        }
      ],
      "name": "UpdateRouter",
      "type": "event"
    },
    {
      "anonymous": false,
      "inputs": [
        {
          "indexed": true,
          "internalType": "address",
          "name": "account",
          "type": "address"
        },
        {
          "indexed": false,
          "internalType": "uint256",
          "name": "amount",
          "type": "uint256"
        }
      ],
      "name": "Withdraw",
      "type": "event"
    },
    {
      "inputs": [],
      "name": "DEPOSITS_ENABLED",
      "outputs": [
        {
          "internalType": "bool",
          "name": "",
          "type": "bool"
        }
      ],
      "stateMutability": "view",
      "type": "function"
    },
    {
      "inputs": [],
      "name": "DEV_FEE_BIPS",
      "outputs": [
        {
          "internalType": "uint256",
          "name": "",
          "type": "uint256"
        }
      ],
      "stateMutability": "view",
      "type": "function"
    },
    {
      "inputs": [],
      "name": "DOMAIN_TYPEHASH",
      "outputs": [
        {
          "internalType": "bytes32",
          "name": "",
          "type": "bytes32"
        }
      ],
      "stateMutability": "view",
      "type": "function"
    },
    {
      "inputs": [],
      "name": "MIN_TOKENS_TO_REINVEST",
      "outputs": [
        {
          "internalType": "uint256",
          "name": "",
          "type": "uint256"
        }
      ],
      "stateMutability": "view",
      "type": "function"
    },
    {
      "inputs": [],
      "name": "PERMIT_TYPEHASH",
      "outputs": [
        {
          "internalType": "bytes32",
          "name": "",
          "type": "bytes32"
        }
      ],
      "stateMutability": "view",
      "type": "function"
    },
    {
      "inputs": [],
      "name": "REINVEST_REWARD_BIPS",
      "outputs": [
        {
          "internalType": "uint256",
          "name": "",
          "type": "uint256"
        }
      ],
      "stateMutability": "view",
      "type": "function"
    },
    {
      "inputs": [],
      "name": "VERSION_HASH",
      "outputs": [
        {
          "internalType": "bytes32",
          "name": "",
          "type": "bytes32"
        }
      ],
      "stateMutability": "view",
      "type": "function"
    },
    {
      "inputs": [
        {
          "internalType": "address",
          "name": "_rewardToken",
          "type": "address"
        }
      ],
      "name": "addReward",
      "outputs": [],
      "stateMutability": "nonpayable",
      "type": "function"
    },
    {
      "inputs": [
        {
          "internalType": "address",
          "name": "account",
          "type": "address"
        },
        {
          "internalType": "address",
          "name": "spender",
          "type": "address"
        }
      ],
      "name": "allowance",
      "outputs": [
        {
          "internalType": "uint256",
          "name": "",
          "type": "uint256"
        }
      ],
      "stateMutability": "view",
      "type": "function"
    },
    {
      "inputs": [
        {
          "internalType": "address",
          "name": "spender",
          "type": "address"
        },
        {
          "internalType": "uint256",
          "name": "amount",
          "type": "uint256"
        }
      ],
      "name": "approve",
      "outputs": [
        {
          "internalType": "bool",
          "name": "",
          "type": "bool"
        }
      ],
      "stateMutability": "nonpayable",
      "type": "function"
    },
    {
      "inputs": [],
      "name": "avDebtToken",
      "outputs": [
        {
          "internalType": "address",
          "name": "",
          "type": "address"
        }
      ],
      "stateMutability": "view",
      "type": "function"
    },
    {
      "inputs": [],
      "name": "avToken",
      "outputs": [
        {
          "internalType": "address",
          "name": "",
          "type": "address"
        }
      ],
      "stateMutability": "view",
      "type": "function"
    },
    {
      "inputs": [
        {
          "internalType": "address",
          "name": "account",
          "type": "address"
        }
      ],
      "name": "balanceOf",
      "outputs": [
        {
          "internalType": "uint256",
          "name": "",
          "type": "uint256"
        }
      ],
      "stateMutability": "view",
      "type": "function"
    },
    {
      "inputs": [
        {
          "internalType": "uint256",
          "name": "_amount",
          "type": "uint256"
        }
      ],
      "name": "calculateDepositFee",
      "outputs": [
        {
          "internalType": "uint256",
          "name": "",
          "type": "uint256"
        }
      ],
      "stateMutability": "view",
      "type": "function"
    },
    {
      "inputs": [
        {
          "internalType": "uint256",
          "name": "_amount",
          "type": "uint256"
        }
      ],
      "name": "calculateWithdrawFee",
      "outputs": [
        {
          "internalType": "uint256",
          "name": "",
          "type": "uint256"
        }
      ],
      "stateMutability": "view",
      "type": "function"
    },
    {
      "inputs": [],
      "name": "checkReward",
      "outputs": [
        {
          "internalType": "uint256",
          "name": "",
          "type": "uint256"
        }
      ],
      "stateMutability": "view",
      "type": "function"
    },
    {
      "inputs": [],
      "name": "decimals",
      "outputs": [
        {
          "internalType": "uint8",
          "name": "",
          "type": "uint8"
        }
      ],
      "stateMutability": "view",
      "type": "function"
    },
    {
      "inputs": [
        {
          "internalType": "uint256",
          "name": "_amount",
          "type": "uint256"
        }
      ],
      "name": "deposit",
      "outputs": [],
      "stateMutability": "nonpayable",
      "type": "function"
    },
    {
      "inputs": [
        {
          "internalType": "address",
          "name": "_account",
          "type": "address"
        },
        {
          "internalType": "uint256",
          "name": "_amount",
          "type": "uint256"
        }
      ],
      "name": "depositFor",
      "outputs": [],
      "stateMutability": "nonpayable",
      "type": "function"
    },
    {
      "inputs": [],
      "name": "depositToken",
      "outputs": [
        {
          "internalType": "contract IERC20",
          "name": "",
          "type": "address"
        }
      ],
      "stateMutability": "view",
      "type": "function"
    },
    {
      "inputs": [
        {
          "internalType": "uint256",
          "name": "_amount",
          "type": "uint256"
        },
        {
          "internalType": "uint256",
          "name": "_deadline",
          "type": "uint256"
        },
        {
          "internalType": "uint8",
          "name": "_v",
          "type": "uint8"
        },
        {
          "internalType": "bytes32",
          "name": "_r",
          "type": "bytes32"
        },
        {
          "internalType": "bytes32",
          "name": "_s",
          "type": "bytes32"
        }
      ],
      "name": "depositWithPermit",
      "outputs": [],
      "stateMutability": "nonpayable",
      "type": "function"
    },
    {
      "inputs": [],
      "name": "devAddr",
      "outputs": [
        {
          "internalType": "address",
          "name": "",
          "type": "address"
        }
      ],
      "stateMutability": "view",
      "type": "function"
    },
    {
      "inputs": [],
      "name": "disableDeposits",
      "outputs": [],
      "stateMutability": "nonpayable",
      "type": "function"
    },
    {
      "inputs": [],
      "name": "enableDeposits",
      "outputs": [],
      "stateMutability": "nonpayable",
      "type": "function"
    },
    {
      "inputs": [],
      "name": "estimateReinvestReward",
      "outputs": [
        {
          "internalType": "uint256",
          "name": "",
          "type": "uint256"
        }
      ],
      "stateMutability": "view",
      "type": "function"
    },
    {
      "inputs": [],
      "name": "feeCollector",
      "outputs": [
        {
          "internalType": "address",
          "name": "",
          "type": "address"
        }
      ],
      "stateMutability": "view",
      "type": "function"
    },
    {
      "inputs": [],
      "name": "getActualLeverage",
      "outputs": [
        {
          "internalType": "uint256",
          "name": "",
          "type": "uint256"
        }
      ],
      "stateMutability": "view",
      "type": "function"
    },
    {
      "inputs": [
        {
          "internalType": "uint256",
          "name": "amount",
          "type": "uint256"
        }
      ],
      "name": "getDepositTokensForShares",
      "outputs": [
        {
          "internalType": "uint256",
          "name": "",
          "type": "uint256"
        }
      ],
      "stateMutability": "view",
      "type": "function"
    },
    {
      "inputs": [],
      "name": "getDomainSeparator",
      "outputs": [
        {
          "internalType": "bytes32",
          "name": "",
          "type": "bytes32"
        }
      ],
      "stateMutability": "view",
      "type": "function"
    },
    {
      "inputs": [
        {
          "internalType": "uint256",
          "name": "amount",
          "type": "uint256"
        }
      ],
      "name": "getSharesForDepositTokens",
      "outputs": [
        {
          "internalType": "uint256",
          "name": "",
          "type": "uint256"
        }
      ],
      "stateMutability": "view",
      "type": "function"
    },
    {
      "inputs": [],
      "name": "getSupportedRewardsLength",
      "outputs": [
        {
          "internalType": "uint256",
          "name": "",
          "type": "uint256"
        }
      ],
      "stateMutability": "view",
      "type": "function"
    },
    {
      "inputs": [],
      "name": "incentivesController",
      "outputs": [
        {
          "internalType": "contract IIncentivesController",
          "name": "",
          "type": "address"
        }
      ],
      "stateMutability": "view",
      "type": "function"
    },
    {
      "inputs": [],
      "name": "lendingPool",
      "outputs": [
        {
          "internalType": "contract ILendingPoolAaveV3",
          "name": "",
          "type": "address"
        }
      ],
      "stateMutability": "view",
      "type": "function"
    },
    {
      "inputs": [],
      "name": "leverageBips",
      "outputs": [
        {
          "internalType": "uint256",
          "name": "",
          "type": "uint256"
        }
      ],
      "stateMutability": "view",
      "type": "function"
    },
    {
      "inputs": [],
      "name": "leverageLevel",
      "outputs": [
        {
          "internalType": "uint256",
          "name": "",
          "type": "uint256"
        }
      ],
      "stateMutability": "view",
      "type": "function"
    },
    {
      "inputs": [],
      "name": "minMinting",
      "outputs": [
        {
          "internalType": "uint256",
          "name": "",
          "type": "uint256"
        }
      ],
      "stateMutability": "view",
      "type": "function"
    },
    {
      "inputs": [],
      "name": "multiFeeDistribution",
      "outputs": [
        {
          "internalType": "contract IMultiFeeDistribution",
          "name": "",
          "type": "address"
        }
      ],
      "stateMutability": "view",
      "type": "function"
    },
    {
      "inputs": [],
      "name": "name",
      "outputs": [
        {
          "internalType": "string",
          "name": "",
          "type": "string"
        }
      ],
      "stateMutability": "view",
      "type": "function"
    },
    {
      "inputs": [
        {
          "internalType": "address",
          "name": "",
          "type": "address"
        }
      ],
      "name": "nonces",
      "outputs": [
        {
          "internalType": "uint256",
          "name": "",
          "type": "uint256"
        }
      ],
      "stateMutability": "view",
      "type": "function"
    },
    {
      "inputs": [],
      "name": "owner",
      "outputs": [
        {
          "internalType": "address",
          "name": "",
          "type": "address"
        }
      ],
      "stateMutability": "view",
      "type": "function"
    },
    {
      "inputs": [
        {
          "internalType": "address",
          "name": "owner",
          "type": "address"
        },
        {
          "internalType": "address",
          "name": "spender",
          "type": "address"
        },
        {
          "internalType": "uint256",
          "name": "value",
          "type": "uint256"
        },
        {
          "internalType": "uint256",
          "name": "deadline",
          "type": "uint256"
        },
        {
          "internalType": "uint8",
          "name": "v",
          "type": "uint8"
        },
        {
          "internalType": "bytes32",
          "name": "r",
          "type": "bytes32"
        },
        {
          "internalType": "bytes32",
          "name": "s",
          "type": "bytes32"
        }
      ],
      "name": "permit",
      "outputs": [],
      "stateMutability": "nonpayable",
      "type": "function"
    },
    {
      "inputs": [
        {
          "internalType": "address",
          "name": "tokenAddress",
          "type": "address"
        },
        {
          "internalType": "uint256",
          "name": "tokenAmount",
          "type": "uint256"
        }
      ],
      "name": "recoverERC20",
      "outputs": [],
      "stateMutability": "nonpayable",
      "type": "function"
    },
    {
      "inputs": [
        {
          "internalType": "uint256",
          "name": "amount",
          "type": "uint256"
        }
      ],
      "name": "recoverGas",
      "outputs": [],
      "stateMutability": "nonpayable",
      "type": "function"
    },
    {
      "inputs": [],
      "name": "reinvest",
      "outputs": [],
      "stateMutability": "nonpayable",
      "type": "function"
    },
    {
      "inputs": [
        {
          "internalType": "address",
          "name": "_rewardToken",
          "type": "address"
        }
      ],
      "name": "removeReward",
      "outputs": [],
      "stateMutability": "nonpayable",
      "type": "function"
    },
    {
      "inputs": [],
      "name": "renounceOwnership",
      "outputs": [],
      "stateMutability": "nonpayable",
      "type": "function"
    },
    {
      "inputs": [
        {
          "internalType": "uint256",
          "name": "_minReturnAmountAccepted",
          "type": "uint256"
        }
      ],
      "name": "rescueDeployedFunds",
      "outputs": [],
      "stateMutability": "nonpayable",
      "type": "function"
    },
    {
      "inputs": [
        {
          "internalType": "address",
          "name": "token",
          "type": "address"
        },
        {
          "internalType": "address",
          "name": "spender",
          "type": "address"
        }
      ],
      "name": "revokeAllowance",
      "outputs": [],
      "stateMutability": "nonpayable",
      "type": "function"
    },
    {
      "inputs": [],
      "name": "rewardToken",
      "outputs": [
        {
          "internalType": "contract IERC20",
          "name": "",
          "type": "address"
        }
      ],
      "stateMutability": "view",
      "type": "function"
    },
    {
      "inputs": [],
      "name": "safetyFactor",
      "outputs": [
        {
          "internalType": "uint256",
          "name": "",
          "type": "uint256"
        }
      ],
      "stateMutability": "view",
      "type": "function"
    },
    {
      "inputs": [],
      "name": "simpleRouter",
      "outputs": [
        {
          "internalType": "contract ISimpleRouter",
          "name": "",
          "type": "address"
        }
      ],
      "stateMutability": "view",
      "type": "function"
    },
    {
      "inputs": [
        {
          "internalType": "uint256",
          "name": "",
          "type": "uint256"
        }
      ],
      "name": "supportedRewards",
      "outputs": [
        {
          "internalType": "address",
          "name": "",
          "type": "address"
        }
      ],
      "stateMutability": "view",
      "type": "function"
    },
    {
      "inputs": [],
      "name": "symbol",
      "outputs": [
        {
          "internalType": "string",
          "name": "",
          "type": "string"
        }
      ],
      "stateMutability": "view",
      "type": "function"
    },
    {
      "inputs": [],
      "name": "totalDeposits",
      "outputs": [
        {
          "internalType": "uint256",
          "name": "",
          "type": "uint256"
        }
      ],
      "stateMutability": "view",
      "type": "function"
    },
    {
      "inputs": [],
      "name": "totalSupply",
      "outputs": [
        {
          "internalType": "uint256",
          "name": "",
          "type": "uint256"
        }
      ],
      "stateMutability": "view",
      "type": "function"
    },
    {
      "inputs": [
        {
          "internalType": "address",
          "name": "dst",
          "type": "address"
        },
        {
          "internalType": "uint256",
          "name": "amount",
          "type": "uint256"
        }
      ],
      "name": "transfer",
      "outputs": [
        {
          "internalType": "bool",
          "name": "",
          "type": "bool"
        }
      ],
      "stateMutability": "nonpayable",
      "type": "function"
    },
    {
      "inputs": [
        {
          "internalType": "address",
          "name": "src",
          "type": "address"
        },
        {
          "internalType": "address",
          "name": "dst",
          "type": "address"
        },
        {
          "internalType": "uint256",
          "name": "amount",
          "type": "uint256"
        }
      ],
      "name": "transferFrom",
      "outputs": [
        {
          "internalType": "bool",
          "name": "",
          "type": "bool"
        }
      ],
      "stateMutability": "nonpayable",
      "type": "function"
    },
    {
      "inputs": [
        {
          "internalType": "address",
          "name": "newOwner",
          "type": "address"
        }
      ],
      "name": "transferOwnership",
      "outputs": [],
      "stateMutability": "nonpayable",
      "type": "function"
    },
    {
      "inputs": [
        {
          "internalType": "address",
          "name": "newValue",
          "type": "address"
        }
      ],
      "name": "updateDevAddr",
      "outputs": [],
      "stateMutability": "nonpayable",
      "type": "function"
    },
    {
      "inputs": [
        {
          "internalType": "uint256",
          "name": "newValue",
          "type": "uint256"
        }
      ],
      "name": "updateDevFee",
      "outputs": [],
      "stateMutability": "nonpayable",
      "type": "function"
    },
    {
      "inputs": [
        {
          "internalType": "address",
          "name": "newValue",
          "type": "address"
        }
      ],
      "name": "updateFeeCollector",
      "outputs": [],
      "stateMutability": "nonpayable",
      "type": "function"
    },
    {
      "inputs": [
        {
          "internalType": "uint256",
          "name": "_leverageLevel",
          "type": "uint256"
        },
        {
          "internalType": "uint256",
          "name": "_leverageBips",
          "type": "uint256"
        },
        {
          "internalType": "uint256",
          "name": "_safetyFactor",
          "type": "uint256"
        },
        {
          "internalType": "uint256",
          "name": "_minMinting",
          "type": "uint256"
        }
      ],
      "name": "updateLeverage",
      "outputs": [],
      "stateMutability": "nonpayable",
      "type": "function"
    },
    {
      "inputs": [
        {
          "internalType": "uint256",
          "name": "newValue",
          "type": "uint256"
        }
      ],
      "name": "updateMinTokensToReinvest",
      "outputs": [],
      "stateMutability": "nonpayable",
      "type": "function"
    },
    {
      "inputs": [
        {
          "internalType": "uint256",
          "name": "newValue",
          "type": "uint256"
        }
      ],
      "name": "updateReinvestReward",
      "outputs": [],
      "stateMutability": "nonpayable",
      "type": "function"
    },
    {
      "inputs": [
        {
          "internalType": "address",
          "name": "_router",
          "type": "address"
        }
      ],
      "name": "updateRouter",
      "outputs": [],
      "stateMutability": "nonpayable",
      "type": "function"
    },
    {
      "inputs": [
        {
          "internalType": "uint256",
          "name": "_amount",
          "type": "uint256"
        }
      ],
      "name": "withdraw",
      "outputs": [],
      "stateMutability": "nonpayable",
      "type": "function"
    }
  ],
  "transactionHash": "0x71f1998dc63f4ad050115671e6e3b5ea572702167885730546a06f9dba4b94f8",
  "args": [
    {
      "incentivesController": "0x79e2fd1c484EB9EE45001A98Ce31F28918F27C41",
      "lendingPool": "0xCFa5aE7c2CE8Fadc6426C1ff872cA45378Fb7cF3",
      "avToken": "0x0e927Aa52A38783C1Fd5DfA5c8873cbdBd01D2Ca",
      "avDebtToken": "0xd739fB7a3b652306d00F92b20439aFC637650254",
      "safetyFactor": "0",
      "minMinting": "100000000000000"
    },
    {
      "leverageLevel": "10000",
      "leverageBips": "10000"
    },
    {
      "gasToken": "0x78c1b0C915c4FAA5FffA6CAbf0219DA63d7f4cb8",
      "rewards": [
        "0x25356aeca4210eF7553140edb9b8026089E49396"
      ],
      "simpleRouter": "0xF321fd6D29d826420ca2a242DFf2aA6dB88B1196"
    },
    {
      "name": "Yield Yak: Lendle mETH",
      "owner": "0xDcEDF06Fd33E1D7b6eb4b309f779a0e9D3172e44",
      "dev": "0xDcEDF06Fd33E1D7b6eb4b309f779a0e9D3172e44",
      "feeCollector": "0xDcEDF06Fd33E1D7b6eb4b309f779a0e9D3172e44",
      "depositToken": "0xcDA86A272531e8640cD7F1a92c01839911B90bb0",
      "rewardToken": "0x78c1b0C915c4FAA5FffA6CAbf0219DA63d7f4cb8",
      "minTokensToReinvest": "1000",
      "devFeeBips": 900,
      "reinvestRewardBips": 100
    }
  ],
  "solcInputHash": "e1e86f4051642f0769c6956b69dfdc45",
  "bytecode": "0x6101c06040526009610180819052685969656c642059616b60b81b6101a09081526200002f916000919062000808565b506040805180820190915260038082526216549560ea1b60209092019182526200005c9160019162000808565b503480156200006a57600080fd5b5060405162005d8e38038062005d8e8339810160408190526200008d9162000c84565b828282818180600033600680546001600160a01b0319166001600160a01b0383169081179091556040519192509060009060008051602062005d6e833981519152908290a35080518051620000eb9160009160209091019062000808565b506080808201516001600160a01b0390811690915260a0808301519091169052600780546001600160a01b0319163317905560c08101516200012d90620002e9565b60e08101516200013d906200038a565b6101008101516200014e9062000446565b60608101516200015e9062000502565b60408101516200016e90620005b6565b620001786200066a565b602081015162000188906200070b565b5081516001600160a01b031660c0526020808301518051620001af92600d92019062000897565b50604082810151600e80546001600160a01b0319166001600160a01b039092169190911790558051600080825260208201527fc7606d21ac05cd309191543e409f0845c016120563783d70e4f41419dc0ef234910160405180910390a150508251600f55505060209081015160105584516001600160a01b031660e081905260408051639b8e556360e01b815290519192639b8e5563926004808401938290030181865afa15801562000266573d6000803e3d6000fd5b505050506040513d601f19601f820116820180604052508101906200028c919062000d84565b6001600160a01b03908116610100526020858101518216610120528451940151608086015160a0870151600f9690965560109190915560115560129390935550506040820151811661014052606090910151166101605262000e0c565b6007546001600160a01b03163314620003495760405162461bcd60e51b815260206004820152601460248201527f59616b53747261746567793a3a6f6e6c7944657600000000000000000000000060448201526064015b60405180910390fd5b60095460408051918252602082018390527f481f79ac3a523b6d6db3c5a720e190e986d1cc1b41adcdf50f9caef849901100910160405180910390a1600955565b6007546001600160a01b03163314620003e65760405162461bcd60e51b815260206004820152601460248201527f59616b53747261746567793a3a6f6e6c79446576000000000000000000000000604482015260640162000340565b612710600b5482620003f9919062000da9565b11156200040557600080fd5b600c5460408051918252602082018390527f2a42303d002f0ba6cfe8259c91d4684443fb0b3de286ba74991175d651726131910160405180910390a1600c55565b6007546001600160a01b03163314620004a25760405162461bcd60e51b815260206004820152601460248201527f59616b53747261746567793a3a6f6e6c79446576000000000000000000000000604482015260640162000340565b612710600c5482620004b5919062000da9565b1115620004c157600080fd5b600b5460408051918252602082018390527fe7f97d51d307dc44045597c9978bec0f842e6bb40d19b9444084cfa30d9ed4f2910160405180910390a1600b55565b6006546001600160a01b031633146200054d5760405162461bcd60e51b8152602060048201819052602482015260008051602062005d4e833981519152604482015260640162000340565b600854604080516001600160a01b03928316815291831660208301527fcc882185e6edeeb762130016ea1faf3d7aa9c01b199bfd646f965b58ab741063910160405180910390a1600880546001600160a01b0319166001600160a01b0392909216919091179055565b6006546001600160a01b03163314620006015760405162461bcd60e51b8152602060048201819052602482015260008051602062005d4e833981519152604482015260640162000340565b600754604080516001600160a01b03928316815291831660208301527fa8e91499ed37682f43cffb045fcc7d379a91e8c9a14e6321877ee34dee564c00910160405180910390a1600780546001600160a01b0319166001600160a01b0392909216919091179055565b6006546001600160a01b03163314620006b55760405162461bcd60e51b8152602060048201819052602482015260008051602062005d4e833981519152604482015260640162000340565b600a5460ff1615620006c657600080fd5b600a805460ff191660019081179091556040519081527f7b014ed3854e7f5cb0218d58b3c6ae7d53a68bb0af2f67bfb029ea42c38a7e859060200160405180910390a1565b6006546001600160a01b03163314620007565760405162461bcd60e51b8152602060048201819052602482015260008051602062005d4e833981519152604482015260640162000340565b6001600160a01b038116620007bd5760405162461bcd60e51b815260206004820152602660248201527f4f776e61626c653a206e6577206f776e657220697320746865207a65726f206160448201526564647265737360d01b606482015260840162000340565b6006546040516001600160a01b0380841692169060008051602062005d6e83398151915290600090a3600680546001600160a01b0319166001600160a01b0392909216919091179055565b828054620008169062000dd0565b90600052602060002090601f0160209004810192826200083a576000855562000885565b82601f106200085557805160ff191683800117855562000885565b8280016001018555821562000885579182015b828111156200088557825182559160200191906001019062000868565b5062000893929150620008ef565b5090565b82805482825590600052602060002090810192821562000885579160200282015b828111156200088557825182546001600160a01b0319166001600160a01b03909116178255602090920191600190910190620008b8565b5b80821115620008935760008155600101620008f0565b634e487b7160e01b600052604160045260246000fd5b604051606081016001600160401b038111828210171562000941576200094162000906565b60405290565b60405161012081016001600160401b038111828210171562000941576200094162000906565b60405160c081016001600160401b038111828210171562000941576200094162000906565b604051601f8201601f191681016001600160401b0381118282101715620009bd57620009bd62000906565b604052919050565b80516001600160a01b0381168114620009dd57600080fd5b919050565b600060408284031215620009f557600080fd5b604080519081016001600160401b038111828210171562000a1a5762000a1a62000906565b604052825181526020928301519281019290925250919050565b60006060828403121562000a4757600080fd5b62000a516200091c565b905062000a5e82620009c5565b81526020828101516001600160401b038082111562000a7c57600080fd5b818501915085601f83011262000a9157600080fd5b81518181111562000aa65762000aa662000906565b8060051b915062000ab984830162000992565b818152918301840191848101908884111562000ad457600080fd5b938501935b8385101562000afd5762000aed85620009c5565b8252938501939085019062000ad9565b808688015250505050505062000b1660408301620009c5565b604082015292915050565b600082601f83011262000b3357600080fd5b81516001600160401b0381111562000b4f5762000b4f62000906565b602062000b65601f8301601f1916820162000992565b828152858284870101111562000b7a57600080fd5b60005b8381101562000b9a57858101830151828201840152820162000b7d565b8381111562000bac5760008385840101525b5095945050505050565b6000610120828403121562000bca57600080fd5b62000bd462000947565b82519091506001600160401b0381111562000bee57600080fd5b62000bfc8482850162000b21565b82525062000c0d60208301620009c5565b602082015262000c2060408301620009c5565b604082015262000c3360608301620009c5565b606082015262000c4660808301620009c5565b608082015262000c5960a08301620009c5565b60a082015260c082015160c082015260e082015160e082015261010080830151818301525092915050565b60008060008084860361014081121562000c9d57600080fd5b60c081121562000cac57600080fd5b5062000cb76200096d565b62000cc286620009c5565b815262000cd260208701620009c5565b602082015262000ce560408701620009c5565b604082015262000cf860608701620009c5565b60608201526080860151608082015260a086015160a08201528094505062000d248660c08701620009e2565b6101008601519093506001600160401b038082111562000d4357600080fd5b62000d518883890162000a34565b935061012087015191508082111562000d6957600080fd5b5062000d788782880162000bb6565b91505092959194509250565b60006020828403121562000d9757600080fd5b62000da282620009c5565b9392505050565b6000821982111562000dcb57634e487b7160e01b600052601160045260246000fd5b500190565b600181811c9082168062000de557607f821691505b60208210810362000e0657634e487b7160e01b600052602260045260246000fd5b50919050565b60805160a05160c05160e05161010051610120516101405161016051614d7062000fde600039600081816107ea015281816125ea015281816132eb0152613fce01526000818161054201528181612567015281816132970152613f7a015260008181610722015281816127a70152818161282c0152818161293501528181612a2e01528181612b7301528181612c2001528181612ca901528181613203015281816137ef01528181614445015261453501526000818161059401526140d60152600081816107770152818161335e015261403e015260008181611bf501528181613b6f01528181613b9e0152613c1301526000818161093e01528181611b5801528181611c5d01528181611d9c0152818161366c015281816136d401528181613abb01528181613c3d01528181613cf901528181613d5c01528181613e390152613e8b01526000818161082401528181610c3801528181610d0b01528181610ea201528181610f37015281816127720152818161285b015281816128f901528181612a6001528181612b3001528181612be401528181612cd80152818161303c015281816131cd015281816137b701528181613e0f01528181613eb30152818161447401526144f90152614d706000f3fe608060405234801561001057600080fd5b50600436106104065760003560e01c806399729ec11161021a578063c851cc3211610135578063e592c5fa116100c8578063f02ecb7111610097578063f6314d071161007c578063f6314d0714610926578063f7c618c114610939578063fdb5a03e1461096057600080fd5b8063f02ecb711461090a578063f2fde38b1461091357600080fd5b8063e592c5fa146108d3578063e75ab045146108dc578063eab89a5a146108ef578063ed24911d1461090257600080fd5b8063da09c72c11610104578063da09c72c1461086c578063db8dd95c1461087f578063dd62ed3e14610887578063dd8ce4d6146108c057600080fd5b8063c851cc321461080c578063c89039c51461081f578063d2c35ce814610846578063d505accf1461085957600080fd5b8063af1df255116101ad578063bd079f551161017c578063bd079f55146107c1578063c415b95c146107ca578063c4b24a46146107dd578063c6974e25146107e557600080fd5b8063af1df25514610772578063b52a321f14610799578063b6b55f25146107a6578063b9e57b80146107b957600080fd5b8063a59a9973116101e9578063a59a99731461071d578063a8ae2b7c14610744578063a9059cbb14610757578063ac67e1af1461076a57600080fd5b806399729ec1146106bd5780639c9b2e21146106d05780639e4e7318146106e3578063a4d5e67c1461070a57600080fd5b8063542b3cb8116103255780637ae26773116102b85780638980f11f116102875780638da5cb5b1161026c5780638da5cb5b146106915780639291d563146106a257806395d89b41146106b557600080fd5b80638980f11f146106755780638aff733d1461068857600080fd5b80637ae26773146106275780637d8820971461063a5780637ecebe0014610642578063818372301461066257600080fd5b8063666d25b9116102f4578063666d25b9146105d057806370a08231146105e3578063715018a61461060c5780637897e7f61461061457600080fd5b8063542b3cb81461058f5780635e4c57a4146105b65780635ea682ea146105be57806362ac20a5146105c757600080fd5b8063247d284b1161039d57806330adf81f1161036c57806330adf81f146104fc578063313ce567146105235780634180942e1461053d5780634a970be71461057c57600080fd5b8063247d284b1461044c578063258250da146104ce5780632e1a7d4d146104d65780632f4f21e2146104e957600080fd5b80631f15d71a116103d95780631f15d71a1461047657806320606b701461047f57806322a05141146104a657806323b872dd146104bb57600080fd5b806306fdde031461040b578063095ea7b314610429578063110560351461044c57806318160ddd1461046d575b600080fd5b610413610968565b60405161042091906145cd565b60405180910390f35b61043c610437366004614615565b6109f6565b6040519015158152602001610420565b61045f61045a366004614641565b610a0c565b604051908152602001610420565b61045f60025481565b61045f60105481565b61045f7f8b73c3c69bb8fe3d512ecc4cf759cc79239f7b179b0ffacaa9a75d522b39400f81565b6104b96104b436600461465a565b610a1d565b005b61043c6104c936600461468c565b610aba565b600d5461045f565b6104b96104e4366004614641565b610b83565b6104b96104f7366004614615565b610ca4565b61045f7f6e71edae12b1b97f4d1f60370fef10105fa2faae0126114a169c64845d6126c981565b61052b601281565b60405160ff9091168152602001610420565b6105647f000000000000000000000000000000000000000000000000000000000000000081565b6040516001600160a01b039091168152602001610420565b6104b961058a3660046146de565b610cb2565b6105647f000000000000000000000000000000000000000000000000000000000000000081565b6104b9610d80565b61045f600c5481565b61045f60125481565b6104b96105de366004614641565b610e30565b61045f6105f1366004614725565b6001600160a01b031660009081526004602052604090205490565b6104b96110b1565b6104b9610622366004614641565b611155565b6104b9610635366004614742565b611227565b61045f6112f4565b61045f610650366004614725565b60056020526000908152604090205481565b6104b9610670366004614641565b611318565b6104b9610683366004614615565b6113aa565b61045f600b5481565b6006546001600160a01b0316610564565b6104b96106b0366004614725565b61146c565b61041361152f565b6104b96106cb366004614641565b61153c565b6104b96106de366004614725565b6115ea565b61045f7fc89efdaa54c0f20c7adf612882df0950f5a951637e0307cdcb4c672f298b8bc681565b6104b9610718366004614725565b611785565b6105647f000000000000000000000000000000000000000000000000000000000000000081565b6104b9610752366004614641565b611988565b61043c610765366004614615565b611a36565b6104b9611a43565b6105647f000000000000000000000000000000000000000000000000000000000000000081565b600a5461043c9060ff1681565b6104b96107b4366004614641565b611ade565b61045f611aeb565b61045f60095481565b600854610564906001600160a01b031681565b61045f611b2a565b6105647f000000000000000000000000000000000000000000000000000000000000000081565b6104b961081a366004614725565b611e7f565b6105647f000000000000000000000000000000000000000000000000000000000000000081565b6104b9610854366004614725565b611f39565b6104b961086736600461477b565b611ffc565b600754610564906001600160a01b031681565b61045f61210f565b61045f610895366004614742565b6001600160a01b03918216600090815260036020908152604080832093909416825291909152205490565b61045f6108ce366004614641565b612148565b61045f600f5481565b6105646108ea366004614641565b61218e565b61045f6108fd366004614641565b6121b8565b61045f6121ee565b61045f60115481565b6104b9610921366004614725565b61228e565b600e54610564906001600160a01b031681565b6105647f000000000000000000000000000000000000000000000000000000000000000081565b6104b96123c0565b60008054610975906147e9565b80601f01602080910402602001604051908101604052809291908181526020018280546109a1906147e9565b80156109ee5780601f106109c3576101008083540402835291602001916109ee565b820191906000526020600020905b8154815290600101906020018083116109d157829003601f168201915b505050505081565b6000610a0333848461241b565b50600192915050565b6000610a1782612529565b92915050565b6007546001600160a01b03163314610a735760405162461bcd60e51b81526020600482015260146024820152732cb0b5a9ba3930ba32b3bc9d1d37b7363ca232bb60611b60448201526064015b60405180910390fd5b600f849055601082905560118190556012839055600080610a92612543565b509092509050610aaa610aa58284614839565b6126c7565b610ab26129d1565b505050505050565b6001600160a01b038316600081815260036020908152604080832033808552925282205491929091908214801590610af457506000198114155b15610b6a576000610b058583614839565b6001600160a01b038881166000818152600360209081526040808320948916808452948252918290208590559051848152939450919290917f8c5be1e5ebec7d5bd14f71427d1e84f3dd0314c0f7b2291e5b200ac8c7c3b925910160405180910390a3505b610b75868686612d45565b6001925050505b9392505050565b6000610b8e826121b8565b905060008111610c065760405162461bcd60e51b815260206004820152602560248201527f4261736553747261746567793a3a576974686472617720616d6f756e7420746f60448201527f6f206c6f770000000000000000000000000000000000000000000000000000006064820152608401610a6a565b6000610c1182612e69565b90506000610c1e83612529565b9050610c5f33610c2e8385614839565b6001600160a01b037f0000000000000000000000000000000000000000000000000000000000000000169190612e8c565b610c693385612f0c565b60405183815233907f884edad9ce6fa2440d8a54cc123490eb96d2768479d49ff9c7366125a94243649060200160405180910390a250505050565b610cae8282612fa0565b5050565b6040517fd505accf000000000000000000000000000000000000000000000000000000008152336004820152306024820152604481018690526064810185905260ff8416608482015260a4810183905260c481018290527f00000000000000000000000000000000000000000000000000000000000000006001600160a01b03169063d505accf9060e401600060405180830381600087803b158015610d5757600080fd5b505af1158015610d6b573d6000803e3d6000fd5b50505050610d793386612fa0565b5050505050565b6006546001600160a01b03163314610dda5760405162461bcd60e51b815260206004820181905260248201527f4f776e61626c653a2063616c6c6572206973206e6f7420746865206f776e65726044820152606401610a6a565b600a5460ff1615610dea57600080fd5b600a805460ff191660019081179091556040519081527f7b014ed3854e7f5cb0218d58b3c6ae7d53a68bb0af2f67bfb029ea42c38a7e85906020015b60405180910390a1565b6006546001600160a01b03163314610e8a5760405162461bcd60e51b815260206004820181905260248201527f4f776e61626c653a2063616c6c6572206973206e6f7420746865206f776e65726044820152606401610a6a565b6040516370a0823160e01b81523060048201526000907f00000000000000000000000000000000000000000000000000000000000000006001600160a01b0316906370a0823190602401602060405180830381865afa158015610ef1573d6000803e3d6000fd5b505050506040513d601f19601f82011682018060405250810190610f159190614850565b9050610f1f613198565b6040516370a0823160e01b81523060048201526000907f00000000000000000000000000000000000000000000000000000000000000006001600160a01b0316906370a0823190602401602060405180830381865afa158015610f86573d6000803e3d6000fd5b505050506040513d601f19601f82011682018060405250810190610faa9190614850565b905082610fb78383614839565b10156110515760405162461bcd60e51b815260206004820152604260248201527f4261736553747261746567793a3a456d657267656e637920776974686472617760448201527f206d696e696d756d2072657475726e20616d6f756e74206e6f7420726561636860648201527f6564000000000000000000000000000000000000000000000000000000000000608482015260a401610a6a565b7fc7606d21ac05cd309191543e409f0845c016120563783d70e4f41419dc0ef23461107a6112f4565b6002546040805192835260208301919091520160405180910390a1600a5460ff1615156001036110ac576110ac611a43565b505050565b6006546001600160a01b0316331461110b5760405162461bcd60e51b815260206004820181905260248201527f4f776e61626c653a2063616c6c6572206973206e6f7420746865206f776e65726044820152606401610a6a565b6006546040516000916001600160a01b0316907f8be0079c531659141344cd1fd0a4f28419497f9722a3daafe3b4186f6b6457e0908390a3600680546001600160a01b0319169055565b6006546001600160a01b031633146111af5760405162461bcd60e51b815260206004820181905260248201527f4f776e61626c653a2063616c6c6572206973206e6f7420746865206f776e65726044820152606401610a6a565b600081116111bc57600080fd5b604051339082156108fc029083906000818181858888f193505050501580156111e9573d6000803e3d6000fd5b506040805160008152602081018390527f8c1256b8896378cd5044f80c202f9772b9d77dc85c8a6eb51967210b09bfaa28910160405180910390a150565b6007546001600160a01b031633146112785760405162461bcd60e51b81526020600482015260146024820152732cb0b5a9ba3930ba32b3bc9d1d37b7363ca232bb60611b6044820152606401610a6a565b60405163095ea7b360e01b81526001600160a01b0382811660048301526000602483015283169063095ea7b3906044016020604051808303816000875af11580156112c7573d6000803e3d6000fd5b505050506040513d601f19601f820116820180604052508101906112eb9190614869565b610cae57600080fd5b6000806000611301612543565b5090925090506113118183614839565b9250505090565b6007546001600160a01b031633146113695760405162461bcd60e51b81526020600482015260146024820152732cb0b5a9ba3930ba32b3bc9d1d37b7363ca232bb60611b6044820152606401610a6a565b60095460408051918252602082018390527f481f79ac3a523b6d6db3c5a720e190e986d1cc1b41adcdf50f9caef849901100910160405180910390a1600955565b6006546001600160a01b031633146114045760405162461bcd60e51b815260206004820181905260248201527f4f776e61626c653a2063616c6c6572206973206e6f7420746865206f776e65726044820152606401610a6a565b6000811161141157600080fd5b6114256001600160a01b0383163383612e8c565b604080516001600160a01b0384168152602081018390527f8c1256b8896378cd5044f80c202f9772b9d77dc85c8a6eb51967210b09bfaa2891015b60405180910390a15050565b6006546001600160a01b031633146114c65760405162461bcd60e51b815260206004820181905260248201527f4f776e61626c653a2063616c6c6572206973206e6f7420746865206f776e65726044820152606401610a6a565b600754604080516001600160a01b03928316815291831660208301527fa8e91499ed37682f43cffb045fcc7d379a91e8c9a14e6321877ee34dee564c00910160405180910390a1600780546001600160a01b0319166001600160a01b0392909216919091179055565b60018054610975906147e9565b6007546001600160a01b0316331461158d5760405162461bcd60e51b81526020600482015260146024820152732cb0b5a9ba3930ba32b3bc9d1d37b7363ca232bb60611b6044820152606401610a6a565b612710600b548261159e919061488b565b11156115a957600080fd5b600c5460408051918252602082018390527f2a42303d002f0ba6cfe8259c91d4684443fb0b3de286ba74991175d651726131910160405180910390a1600c55565b6007546001600160a01b0316331461163b5760405162461bcd60e51b81526020600482015260146024820152732cb0b5a9ba3930ba32b3bc9d1d37b7363ca232bb60611b6044820152606401610a6a565b6000805b600d5481101561169257600d818154811061165c5761165c6148a3565b6000918252602090912001546001600160a01b039081169084160361168057600191505b8061168a816148b9565b91505061163f565b5080156117075760405162461bcd60e51b815260206004820152602860248201527f4261736553747261746567793a3a52657761726420616c726561647920636f6e60448201527f66696775726564210000000000000000000000000000000000000000000000006064820152608401610a6a565b600d80546001810182556000919091527fd7b6990105719101dabeb77144f2a3385c8033acd3af97e9423a695e81ad1eb50180546001600160a01b0319166001600160a01b0384169081179091556040519081527f1714865bf5baa84e3439536a013c87cfe030b4cd69f344a5f2a4877de3d517ce90602001611460565b6007546001600160a01b031633146117d65760405162461bcd60e51b81526020600482015260146024820152732cb0b5a9ba3930ba32b3bc9d1d37b7363ca232bb60611b6044820152606401610a6a565b6000805b600d548110156118a657600d81815481106117f7576117f76148a3565b6000918252602090912001546001600160a01b039081169084160361189457600d805460019350611829908490614839565b81548110611839576118396148a3565b600091825260209091200154600d80546001600160a01b039092169183908110611865576118656148a3565b9060005260206000200160006101000a8154816001600160a01b0302191690836001600160a01b031602179055505b8061189e816148b9565b9150506117da565b50806119195760405162461bcd60e51b8152602060048201526024808201527f4261736553747261746567793a3a526577617264206e6f7420636f6e6669677560448201527f72656421000000000000000000000000000000000000000000000000000000006064820152608401610a6a565b600d80548061192a5761192a6148d2565b6000828152602090819020600019908301810180546001600160a01b03191690559091019091556040516001600160a01b03841681527f963b7c735475147a62c589c2d7cb8ec4b0a6b7af4f97373d79ebfa42ab8aa7dc9101611460565b6007546001600160a01b031633146119d95760405162461bcd60e51b81526020600482015260146024820152732cb0b5a9ba3930ba32b3bc9d1d37b7363ca232bb60611b6044820152606401610a6a565b612710600c54826119ea919061488b565b11156119f557600080fd5b600b5460408051918252602082018390527fe7f97d51d307dc44045597c9978bec0f842e6bb40d19b9444084cfa30d9ed4f2910160405180910390a1600b55565b6000610a03338484612d45565b6007546001600160a01b03163314611a945760405162461bcd60e51b81526020600482015260146024820152732cb0b5a9ba3930ba32b3bc9d1d37b7363ca232bb60611b6044820152606401610a6a565b600a5460ff16611aa357600080fd5b600a805460ff19169055604051600081527f7b014ed3854e7f5cb0218d58b3c6ae7d53a68bb0af2f67bfb029ea42c38a7e8590602001610e26565b611ae83382612fa0565b50565b600080611af6611b2a565b90506009548110611b2257612710600b5482611b1291906148e8565b611b1c9190614907565b91505090565b600091505090565b600080611b35613270565b6040516370a0823160e01b81523060048201529091506000906001600160a01b037f000000000000000000000000000000000000000000000000000000000000000016906370a0823190602401602060405180830381865afa158015611b9f573d6000803e3d6000fd5b505050506040513d601f19601f82011682018060405250810190611bc39190614850565b905060005b8251811015611e78576000838281518110611be557611be56148a3565b60200260200101516000015190507f00000000000000000000000000000000000000000000000000000000000000006001600160a01b0316816001600160a01b031603611c5b5747848381518110611c3f57611c3f6148a3565b6020026020010151602001818151611c57919061488b565b9052505b7f00000000000000000000000000000000000000000000000000000000000000006001600160a01b0316816001600160a01b031603611cc457838281518110611ca657611ca66148a3565b60200260200101516020015183611cbd919061488b565b9250611e65565b6001600160a01b03811615611e65576040516370a0823160e01b81523060048201526000906001600160a01b038316906370a0823190602401602060405180830381865afa158015611d1a573d6000803e3d6000fd5b505050506040513d601f19601f82011682018060405250810190611d3e9190614850565b90506000858481518110611d5457611d546148a3565b60200260200101516020015182611d6b919061488b565b90508015611e6257600e546040516377ccc49d60e11b8152600481018390526001600160a01b0385811660248301527f000000000000000000000000000000000000000000000000000000000000000081166044830152600092169063ef99893a90606401600060405180830381865afa158015611ded573d6000803e3d6000fd5b505050506040513d6000823e601f3d908101601f19168201604052611e159190810190614a8c565b9050600181600001515111611e2b576000611e54565b80518051611e3b90600190614839565b81518110611e4b57611e4b6148a3565b60200260200101515b611e5e908761488b565b9550505b50505b5080611e70816148b9565b915050611bc8565b5092915050565b6007546001600160a01b03163314611ed05760405162461bcd60e51b81526020600482015260146024820152732cb0b5a9ba3930ba32b3bc9d1d37b7363ca232bb60611b6044820152606401610a6a565b600e54604080516001600160a01b03928316815291831660208301527f2c6fb4d5ff9fad6ecf2e09cd64cbc9aad92a8b9d2cc0e5c3ddef9b529b0b5ffd910160405180910390a1600e80546001600160a01b0319166001600160a01b0392909216919091179055565b6006546001600160a01b03163314611f935760405162461bcd60e51b815260206004820181905260248201527f4f776e61626c653a2063616c6c6572206973206e6f7420746865206f776e65726044820152606401610a6a565b600854604080516001600160a01b03928316815291831660208301527fcc882185e6edeeb762130016ea1faf3d7aa9c01b199bfd646f965b58ab741063910160405180910390a1600880546001600160a01b0319166001600160a01b0392909216919091179055565b4284101561204c5760405162461bcd60e51b815260206004820152600f60248201527f7065726d69743a3a6578706972656400000000000000000000000000000000006044820152606401610a6a565b6001600160a01b038716600090815260056020526040812080547f6e71edae12b1b97f4d1f60370fef10105fa2faae0126114a169c64845d6126c9918a918a918a919086612099836148b9565b909155506040805160208101969096526001600160a01b0394851690860152929091166060840152608083015260a082015260c0810186905260e0016040516020818303038152906040528051906020012090506120fa88828686866134c0565b61210588888861241b565b5050505050505050565b600080600061211c612543565b50909250905061212c8183614839565b61213e83670de0b6b3a76400006148e8565b6113119190614907565b6000806121536112f4565b600254909150801580612164575081155b1561217157509192915050565b8161217c82866148e8565b6121869190614907565b949350505050565b600d818154811061219e57600080fd5b6000918252602090912001546001600160a01b0316905081565b6000806121c36112f4565b6002549091508015806121d4575081155b156121e3575060009392505050565b8061217c83866148e8565b60007f8b73c3c69bb8fe3d512ecc4cf759cc79239f7b179b0ffacaa9a75d522b39400f60001b60006040516122239190614b4e565b6040519081900390207fc89efdaa54c0f20c7adf612882df0950f5a951637e0307cdcb4c672f298b8bc646604080516020810195909552840192909252606083015260808201523060a082015260c00160405160208183030381529060405280519060200120905090565b6006546001600160a01b031633146122e85760405162461bcd60e51b815260206004820181905260248201527f4f776e61626c653a2063616c6c6572206973206e6f7420746865206f776e65726044820152606401610a6a565b6001600160a01b0381166123645760405162461bcd60e51b815260206004820152602660248201527f4f776e61626c653a206e6577206f776e657220697320746865207a65726f206160448201527f64647265737300000000000000000000000000000000000000000000000000006064820152608401610a6a565b6006546040516001600160a01b038084169216907f8be0079c531659141344cd1fd0a4f28419497f9722a3daafe3b4186f6b6457e090600090a3600680546001600160a01b0319166001600160a01b0392909216919091179055565b32331461240f5760405162461bcd60e51b815260206004820152601460248201527f59616b53747261746567793a3a6f6e6c79454f410000000000000000000000006044820152606401610a6a565b6124196000613620565b565b6001600160a01b0383166124715760405162461bcd60e51b815260206004820152601c60248201527f5f617070726f76653a3a6f776e6572207a65726f2061646472657373000000006044820152606401610a6a565b6001600160a01b0382166124c75760405162461bcd60e51b815260206004820152601e60248201527f5f617070726f76653a3a7370656e646572207a65726f206164647265737300006044820152606401610a6a565b6001600160a01b0383811660008181526003602090815260408083209487168084529482529182902085905590518481527f8c5be1e5ebec7d5bd14f71427d1e84f3dd0314c0f7b2291e5b200ac8c7c3b92591015b60405180910390a3505050565b60008061271061253982856148e8565b610b7c9190614907565b6040516370a0823160e01b8152306004820152600090819081906001600160a01b037f000000000000000000000000000000000000000000000000000000000000000016906370a0823190602401602060405180830381865afa1580156125ae573d6000803e3d6000fd5b505050506040513d601f19601f820116820180604052508101906125d29190614850565b6040516370a0823160e01b81523060048201529093507f00000000000000000000000000000000000000000000000000000000000000006001600160a01b0316906370a0823190602401602060405180830381865afa158015612639573d6000803e3d6000fd5b505050506040513d601f19601f8201168201806040525081019061265d9190614850565b915081600f54601054600f546126739190614839565b61267d90866148e8565b6126879190614907565b11156126c25781600f54601054600f546126a19190614839565b6126ab90866148e8565b6126b59190614907565b6126bf9190614839565b90505b909192565b60008060006126d4612543565b919450925090506000846126e88486614839565b6126f29190614839565b601054601154600f546127059190614839565b876127108789614839565b61271a9190614839565b61272491906148e8565b61272e9190614907565b6127389190614839565b905060006127468285614839565b90505b8015610ab257828481111561275b5750835b604051631a4ca37b60e21b81526001600160a01b037f000000000000000000000000000000000000000000000000000000000000000081166004830152602482018390523060448301527f000000000000000000000000000000000000000000000000000000000000000016906369328dec906064016020604051808303816000875af11580156127f0573d6000803e3d6000fd5b505050506040513d601f19601f820116820180604052508101906128149190614850565b5060405163095ea7b360e01b81526001600160a01b037f000000000000000000000000000000000000000000000000000000000000000081166004830152602482018390527f0000000000000000000000000000000000000000000000000000000000000000169063095ea7b3906044016020604051808303816000875af11580156128a4573d6000803e3d6000fd5b505050506040513d601f19601f820116820180604052508101906128c89190614869565b506040517f573ade810000000000000000000000000000000000000000000000000000000081526001600160a01b037f00000000000000000000000000000000000000000000000000000000000000008116600483015260248201839052600260448301523060648301527f0000000000000000000000000000000000000000000000000000000000000000169063573ade81906084016020604051808303816000875af115801561297e573d6000803e3d6000fd5b505050506040513d601f19601f820116820180604052508101906129a29190614850565b506129ab612543565b919750955093508483106129bf5750610ab2565b6129c98386614839565b915050612749565b60008060006129de612543565b9250925092506000601054601154600f546129f99190614839565b612a038587614839565b612a0d91906148e8565b612a179190614907565b60405163095ea7b360e01b81526001600160a01b037f000000000000000000000000000000000000000000000000000000000000000081166004830152602482018390529192507f00000000000000000000000000000000000000000000000000000000000000009091169063095ea7b3906044016020604051808303816000875af1158015612aab573d6000803e3d6000fd5b505050506040513d601f19601f82011682018060405250810190612acf9190614869565b505b80841015612c925780612ae4838661488b565b1115612af757612af48482614839565b91505b6012548210612c92576040517fa415bcad0000000000000000000000000000000000000000000000000000000081526001600160a01b037f0000000000000000000000000000000000000000000000000000000000000000811660048301526024820184905260026044830152600060648301523060848301527f0000000000000000000000000000000000000000000000000000000000000000169063a415bcad9060a401600060405180830381600087803b158015612bb757600080fd5b505af1158015612bcb573d6000803e3d6000fd5b505060405163e8eda9df60e01b81526001600160a01b037f00000000000000000000000000000000000000000000000000000000000000008116600483015260248201869052306044830152600060648301527f000000000000000000000000000000000000000000000000000000000000000016925063e8eda9df9150608401600060405180830381600087803b158015612c6657600080fd5b505af1158015612c7a573d6000803e3d6000fd5b50505050612c86612543565b91955093509150612ad1565b60405163095ea7b360e01b81526001600160a01b037f000000000000000000000000000000000000000000000000000000000000000081166004830152600060248301527f0000000000000000000000000000000000000000000000000000000000000000169063095ea7b3906044016020604051808303816000875af1158015612d21573d6000803e3d6000fd5b505050506040513d601f19601f82011682018060405250810190610d799190614869565b6001600160a01b038216612dc15760405162461bcd60e51b815260206004820152603460248201527f5f7472616e73666572546f6b656e733a2063616e6e6f74207472616e7366657260448201527f20746f20746865207a65726f20616464726573730000000000000000000000006064820152608401610a6a565b6001600160a01b038316600090815260046020526040902054612de5908290614839565b6001600160a01b038085166000908152600460205260408082209390935590841681522054612e1590829061488b565b6001600160a01b0380841660008181526004602052604090819020939093559151908516907fddf252ad1be2c89b69c2b068fc378daa952ba7f163c4a11628f55a4df523b3ef9061251c9085815260200190565b6000612e74826126c7565b612e7d82613780565b9050612e876129d1565b919050565b604080516001600160a01b038416602482015260448082018490528251808303909101815260649091019091526020810180517bffffffffffffffffffffffffffffffffffffffffffffffffffffffff167fa9059cbb000000000000000000000000000000000000000000000000000000001790526110ac90849061385e565b6001600160a01b038216600090815260046020526040902054612f30908290614839565b6001600160a01b038316600090815260046020526040902055600254612f57908290614839565b6002556040518181526000906001600160a01b038416907fddf252ad1be2c89b69c2b068fc378daa952ba7f163c4a11628f55a4df523b3ef906020015b60405180910390a35050565b600a5460ff161515600114612ff75760405162461bcd60e51b815260206004820152601f60248201527f4261736553747261746567793a3a4465706f736974732064697361626c6564006044820152606401610a6a565b6130016001613620565b6040517f23b872dd000000000000000000000000000000000000000000000000000000008152336004820152306024820152604481018290527f00000000000000000000000000000000000000000000000000000000000000006001600160a01b0316906323b872dd906064016020604051808303816000875af115801561308d573d6000803e3d6000fd5b505050506040513d601f19601f820116820180604052508101906130b19190614869565b6131235760405162461bcd60e51b815260206004820152602b60248201527f4261736553747261746567793a3a4465706f73697420746f6b656e207472616e60448201527f73666572206661696c65640000000000000000000000000000000000000000006064820152608401610a6a565b600061312e82612529565b9050613146836131416108ce8486614839565b613943565b6131508282613a19565b826001600160a01b03167fe1fffcc4923d04b559f4d29a8bfc6cda04eb5b0d3c460751c2402c5c5cc9109c8360405161318b91815260200190565b60405180910390a2505050565b6000806131a3612543565b5090925090506131b6610aa58284614839565b604051631a4ca37b60e21b81526001600160a01b037f00000000000000000000000000000000000000000000000000000000000000008116600483015260001960248301523060448301527f000000000000000000000000000000000000000000000000000000000000000016906369328dec906064016020604051808303816000875af115801561324c573d6000803e3d6000fd5b505050506040513d601f19601f820116820180604052508101906110ac9190614850565b604080516002808252606080830184529260009291906020830190803683370190505090507f0000000000000000000000000000000000000000000000000000000000000000816000815181106132c9576132c96148a3565b60200260200101906001600160a01b031690816001600160a01b0316815250507f00000000000000000000000000000000000000000000000000000000000000008160018151811061331d5761331d6148a3565b6001600160a01b0392831660209182029290920101526040517fe5b534980000000000000000000000000000000000000000000000000000000081526000917f0000000000000000000000000000000000000000000000000000000000000000169063e5b53498906133959030908690600401614c2d565b600060405180830381865afa1580156133b2573d6000803e3d6000fd5b505050506040513d6000823e601f3d908101601f191682016040526133da9190810190614c4f565b60408051600180825281830190925291925060009190816020015b60408051808201909152600080825260208201528152602001906001900390816133f557905050905060405180604001604052807325356aeca4210ef7553140edb9b8026089e493966001600160a01b03168152602001600284600181518110613461576134616148a3565b60200260200101518560008151811061347c5761347c6148a3565b602002602001015161348e919061488b565b6134989190614907565b815250816000815181106134ae576134ae6148a3565b60209081029190910101529392505050565b60006134ca6121ee565b6040517f1901000000000000000000000000000000000000000000000000000000000000602082015260228101919091526042810186905260620160408051601f198184030181528282528051602091820120600080855291840180845281905260ff88169284019290925260608301869052608083018590529092509060019060a0016020604051602081039080840390855afa158015613570573d6000803e3d6000fd5b5050604051601f1901519150506001600160a01b038116158015906135a65750866001600160a01b0316816001600160a01b0316145b6136175760405162461bcd60e51b8152602060048201526024808201527f417263683a3a76616c69646174655369673a20696e76616c6964207369676e6160448201527f74757265000000000000000000000000000000000000000000000000000000006064820152608401610a6a565b50505050505050565b600061362a613a99565b905060095481111561373f576000612710600c548361364991906148e8565b6136539190614907565b9050801561369557600854613695906001600160a01b037f00000000000000000000000000000000000000000000000000000000000000008116911683612e8c565b6000836136bc57612710600b54846136ad91906148e8565b6136b79190614907565b6136bf565b60005b905080156136fb576136fb6001600160a01b037f0000000000000000000000000000000000000000000000000000000000000000163383612e8c565b600061371a8261370b8587614839565b6137159190614839565b613e0b565b9050801561373b57600061372d82612529565b90506137398282613a19565b505b5050505b7fc7606d21ac05cd309191543e409f0845c016120563783d70e4f41419dc0ef2346137686112f4565b60025460408051928352602083019190915201611460565b60008061378b612543565b5050905080831161379c57826137a0565b6000195b604051631a4ca37b60e21b81526001600160a01b037f000000000000000000000000000000000000000000000000000000000000000081166004830152602482018390523060448301529194507f0000000000000000000000000000000000000000000000000000000000000000909116906369328dec906064016020604051808303816000875af115801561383a573d6000803e3d6000fd5b505050506040513d601f19601f82011682018060405250810190610b7c9190614850565b60006138b3826040518060400160405280602081526020017f5361666545524332303a206c6f772d6c6576656c2063616c6c206661696c6564815250856001600160a01b0316613f379092919063ffffffff16565b8051909150156110ac57808060200190518101906138d19190614869565b6110ac5760405162461bcd60e51b815260206004820152602a60248201527f5361666545524332303a204552433230206f7065726174696f6e20646964206e60448201527f6f742073756363656564000000000000000000000000000000000000000000006064820152608401610a6a565b600081116139935760405162461bcd60e51b815260206004820152601260248201527f5f6d696e743a3a7a65726f2073686172657300000000000000000000000000006044820152606401610a6a565b806002546139a1919061488b565b6002556001600160a01b0382166000908152600460205260409020546139c890829061488b565b6001600160a01b0383166000818152600460205260408082209390935591519091907fddf252ad1be2c89b69c2b068fc378daa952ba7f163c4a11628f55a4df523b3ef90612f949085815260200190565b60008211613a8f5760405162461bcd60e51b815260206004820152602260248201527f4261736553747261746567793a3a5374616b6520616d6f756e7420746f6f206c60448201527f6f770000000000000000000000000000000000000000000000000000000000006064820152608401610a6a565b610cae8282613f46565b6000613aa3613f57565b6040516370a0823160e01b81523060048201526000907f00000000000000000000000000000000000000000000000000000000000000006001600160a01b0316906370a0823190602401602060405180830381865afa158015613b0a573d6000803e3d6000fd5b505050506040513d601f19601f82011682018060405250810190613b2e9190614850565b600d5490915060005b81811015613e03576000600d8281548110613b5457613b546148a3565b6000918252602090912001546001600160a01b0390811691507f0000000000000000000000000000000000000000000000000000000000000000168103613c7f57478015613c11577f00000000000000000000000000000000000000000000000000000000000000006001600160a01b031663d0e30db0826040518263ffffffff1660e01b81526004016000604051808303818588803b158015613bf757600080fd5b505af1158015613c0b573d6000803e3d6000fd5b50505050505b7f00000000000000000000000000000000000000000000000000000000000000006001600160a01b03167f00000000000000000000000000000000000000000000000000000000000000006001600160a01b031603613c7d57613c74818661488b565b94505050613df1565b505b6040516370a0823160e01b81523060048201526000906001600160a01b038316906370a0823190602401602060405180830381865afa158015613cc6573d6000803e3d6000fd5b505050506040513d601f19601f82011682018060405250810190613cea9190614850565b9050600081118015613d2e57507f00000000000000000000000000000000000000000000000000000000000000006001600160a01b0316826001600160a01b031614155b15613dee57600e546040516377ccc49d60e11b8152600481018390526001600160a01b0384811660248301527f000000000000000000000000000000000000000000000000000000000000000081166044830152600092169063ef99893a90606401600060405180830381865afa158015613dad573d6000803e3d6000fd5b505050506040513d6000823e601f3d908101601f19168201604052613dd59190810190614a8c565b9050613de081614139565b613dea908761488b565b9550505b50505b80613dfb816148b9565b915050613b37565b509092915050565b60007f00000000000000000000000000000000000000000000000000000000000000006001600160a01b03167f00000000000000000000000000000000000000000000000000000000000000006001600160a01b031603613e6a575090565b600e546040516377ccc49d60e11b8152600481018490526001600160a01b037f0000000000000000000000000000000000000000000000000000000000000000811660248301527f000000000000000000000000000000000000000000000000000000000000000081166044830152600092169063ef99893a90606401600060405180830381865afa158015613f04573d6000803e3d6000fd5b505050506040513d6000823e601f3d908101601f19168201604052613f2c9190810190614a8c565b9050610b7c81614139565b606061218684846000856142e6565b613f4f8261442e565b610cae6129d1565b6040805160028082526060820183526000926020830190803683370190505090507f000000000000000000000000000000000000000000000000000000000000000081600081518110613fac57613fac6148a3565b60200260200101906001600160a01b031690816001600160a01b0316815250507f000000000000000000000000000000000000000000000000000000000000000081600181518110614000576140006148a3565b6001600160a01b0392831660209182029290920101526040517f8e2eba090000000000000000000000000000000000000000000000000000000081527f000000000000000000000000000000000000000000000000000000000000000090911690638e2eba09906140779030908590600401614c2d565b600060405180830381600087803b15801561409157600080fd5b505af11580156140a5573d6000803e3d6000fd5b50506040517fe6c91a15000000000000000000000000000000000000000000000000000000008152600160048201527f00000000000000000000000000000000000000000000000000000000000000006001600160a01b0316925063e6c91a1591506024015b600060405180830381600087803b15801561412557600080fd5b505af1158015610d79573d6000803e3d6000fd5b805151600090158015906141765750815180516000919061415c90600190614839565b8151811061416c5761416c6148a3565b6020026020010151115b156142de578160400151600081518110614192576141926148a3565b60200260200101516001600160a01b031663095ea7b3600e60009054906101000a90046001600160a01b031684600001516000815181106141d5576141d56148a3565b60200260200101516040518363ffffffff1660e01b815260040161420e9291906001600160a01b03929092168252602082015260400190565b6020604051808303816000875af115801561422d573d6000803e3d6000fd5b505050506040513d601f19601f820116820180604052508101906142519190614869565b50600e546040517f5b2466160000000000000000000000000000000000000000000000000000000081526001600160a01b0390911690635b2466169061429b908590600401614c84565b6020604051808303816000875af11580156142ba573d6000803e3d6000fd5b505050506040513d601f19601f82011682018060405250810190610a179190614850565b506000919050565b60608247101561435e5760405162461bcd60e51b815260206004820152602660248201527f416464726573733a20696e73756666696369656e742062616c616e636520666f60448201527f722063616c6c00000000000000000000000000000000000000000000000000006064820152608401610a6a565b6001600160a01b0385163b6143b55760405162461bcd60e51b815260206004820152601d60248201527f416464726573733a2063616c6c20746f206e6f6e2d636f6e74726163740000006044820152606401610a6a565b600080866001600160a01b031685876040516143d19190614d1e565b60006040518083038185875af1925050503d806000811461440e576040519150601f19603f3d011682016040523d82523d6000602084013e614413565b606091505b5091509150614423828286614564565b979650505050505050565b60405163095ea7b360e01b81526001600160a01b037f000000000000000000000000000000000000000000000000000000000000000081166004830152602482018390527f0000000000000000000000000000000000000000000000000000000000000000169063095ea7b3906044016020604051808303816000875af11580156144bd573d6000803e3d6000fd5b505050506040513d601f19601f820116820180604052508101906144e19190614869565b5060405163e8eda9df60e01b81526001600160a01b037f00000000000000000000000000000000000000000000000000000000000000008116600483015260248201839052306044830152600060648301527f0000000000000000000000000000000000000000000000000000000000000000169063e8eda9df9060840161410b565b60608315614573575081610b7c565b8251156145835782518084602001fd5b8160405162461bcd60e51b8152600401610a6a91906145cd565b60005b838110156145b85781810151838201526020016145a0565b838111156145c7576000848401525b50505050565b60208152600082518060208401526145ec81604085016020870161459d565b601f01601f19169190910160400192915050565b6001600160a01b0381168114611ae857600080fd5b6000806040838503121561462857600080fd5b823561463381614600565b946020939093013593505050565b60006020828403121561465357600080fd5b5035919050565b6000806000806080858703121561467057600080fd5b5050823594602084013594506040840135936060013592509050565b6000806000606084860312156146a157600080fd5b83356146ac81614600565b925060208401356146bc81614600565b929592945050506040919091013590565b803560ff81168114612e8757600080fd5b600080600080600060a086880312156146f657600080fd5b853594506020860135935061470d604087016146cd565b94979396509394606081013594506080013592915050565b60006020828403121561473757600080fd5b8135610b7c81614600565b6000806040838503121561475557600080fd5b823561476081614600565b9150602083013561477081614600565b809150509250929050565b600080600080600080600060e0888a03121561479657600080fd5b87356147a181614600565b965060208801356147b181614600565b955060408801359450606088013593506147cd608089016146cd565b925060a0880135915060c0880135905092959891949750929550565b600181811c908216806147fd57607f821691505b60208210810361481d57634e487b7160e01b600052602260045260246000fd5b50919050565b634e487b7160e01b600052601160045260246000fd5b60008282101561484b5761484b614823565b500390565b60006020828403121561486257600080fd5b5051919050565b60006020828403121561487b57600080fd5b81518015158114610b7c57600080fd5b6000821982111561489e5761489e614823565b500190565b634e487b7160e01b600052603260045260246000fd5b6000600182016148cb576148cb614823565b5060010190565b634e487b7160e01b600052603160045260246000fd5b600081600019048311821515161561490257614902614823565b500290565b60008261492457634e487b7160e01b600052601260045260246000fd5b500490565b634e487b7160e01b600052604160045260246000fd5b6040516080810167ffffffffffffffff8111828210171561496257614962614929565b60405290565b604051601f8201601f1916810167ffffffffffffffff8111828210171561499157614991614929565b604052919050565b600067ffffffffffffffff8211156149b3576149b3614929565b5060051b60200190565b600082601f8301126149ce57600080fd5b815160206149e36149de83614999565b614968565b82815260059290921b84018101918181019086841115614a0257600080fd5b8286015b84811015614a1d5780518352918301918301614a06565b509695505050505050565b600082601f830112614a3957600080fd5b81516020614a496149de83614999565b82815260059290921b84018101918181019086841115614a6857600080fd5b8286015b84811015614a1d578051614a7f81614600565b8352918301918301614a6c565b600060208284031215614a9e57600080fd5b815167ffffffffffffffff80821115614ab657600080fd5b9083019060808286031215614aca57600080fd5b614ad261493f565b825182811115614ae157600080fd5b614aed878286016149bd565b825250602083015182811115614b0257600080fd5b614b0e87828601614a28565b602083015250604083015182811115614b2657600080fd5b614b3287828601614a28565b6040830152506060830151606082015280935050505092915050565b600080835481600182811c915080831680614b6a57607f831692505b60208084108203614b8957634e487b7160e01b86526022600452602486fd5b818015614b9d5760018114614bae57614bdb565b60ff19861689528489019650614bdb565b60008a81526020902060005b86811015614bd35781548b820152908501908301614bba565b505084890196505b509498975050505050505050565b600081518084526020808501945080840160005b83811015614c225781516001600160a01b031687529582019590820190600101614bfd565b509495945050505050565b6001600160a01b03831681526040602082015260006121866040830184614be9565b600060208284031215614c6157600080fd5b815167ffffffffffffffff811115614c7857600080fd5b612186848285016149bd565b60208082528251608083830152805160a0840181905260009291820190839060c08601905b80831015614cc95783518252928401926001929092019190840190614ca9565b50838701519350601f19925082868203016040870152614ce98185614be9565b93505050604085015181858403016060860152614d068382614be9565b92505050606084015160808401528091505092915050565b60008251614d3081846020870161459d565b919091019291505056fea2646970667358221220f608e61b68f0ede3927742403e4f9345c64d076a075078a545ad1f593c77173e64736f6c634300080d00334f776e61626c653a2063616c6c6572206973206e6f7420746865206f776e65728be0079c531659141344cd1fd0a4f28419497f9722a3daafe3b4186f6b6457e0",
  "devdoc": {
    "kind": "dev",
    "methods": {
      "allowance(address,address)": {
        "params": {
          "account": "The address of the account holding the funds",
          "spender": "The address of the account spending the funds"
        },
        "returns": {
          "_0": "The number of tokens approved"
        }
      },
      "approve(address,uint256)": {
        "details": "This will overwrite the approval amount for `spender` and is subject to issues noted [here](https://eips.ethereum.org/EIPS/eip-20#approve) It is recommended to use increaseAllowance and decreaseAllowance instead",
        "params": {
          "amount": "The number of tokens that are approved (2^256-1 means infinite)",
          "spender": "The address of the account which may transfer tokens"
        },
        "returns": {
          "_0": "Whether or not the approval succeeded"
        }
      },
      "balanceOf(address)": {
        "params": {
          "account": "The address of the account to get the balance of"
        },
        "returns": {
          "_0": "The number of tokens held"
        }
      },
      "checkReward()": {
        "returns": {
          "_0": "reward tokens"
        }
      },
      "deposit(uint256)": {
        "params": {
          "_amount": "Amount of tokens to deposit"
        }
      },
      "depositWithPermit(uint256,uint256,uint8,bytes32,bytes32)": {
        "params": {
          "_amount": "Amount of tokens to deposit",
          "_deadline": "The time at which to expire the signature",
          "_r": "Half of the ECDSA signature pair",
          "_s": "Half of the ECDSA signature pair",
          "_v": "The recovery byte of the signature"
        }
      },
      "estimateReinvestReward()": {
        "returns": {
          "_0": "reward tokens"
        }
      },
      "getDepositTokensForShares(uint256)": {
        "params": {
          "amount": "receipt tokens"
        },
        "returns": {
          "_0": "deposit tokens"
        }
      },
      "getDomainSeparator()": {
        "returns": {
          "_0": "Separator"
        }
      },
      "getSharesForDepositTokens(uint256)": {
        "details": "If contract is empty, use 1:1 ratioCould return zero shares for very low amounts of deposit tokens",
        "params": {
          "amount": "deposit tokens"
        },
        "returns": {
          "_0": "receipt tokens"
        }
      },
      "owner()": {
        "details": "Returns the address of the current owner."
      },
      "permit(address,address,uint256,uint256,uint8,bytes32,bytes32)": {
        "params": {
          "deadline": "The time at which to expire the signature",
          "owner": "The address to approve from",
          "r": "Half of the ECDSA signature pair",
          "s": "Half of the ECDSA signature pair",
          "spender": "The address to be approved",
          "v": "The recovery byte of the signature",
          "value": "The number of tokens that are approved (2^256-1 means infinite)"
        }
      },
      "recoverERC20(address,uint256)": {
        "params": {
          "tokenAddress": "token address",
          "tokenAmount": "amount to recover"
        }
      },
      "recoverGas(uint256)": {
        "params": {
          "amount": "amount"
        }
      },
      "renounceOwnership()": {
        "details": "Leaves the contract without owner. It will not be possible to call `onlyOwner` functions anymore. Can only be called by the current owner. NOTE: Renouncing ownership will leave the contract without an owner, thereby removing any functionality that is only available to the owner."
      },
      "revokeAllowance(address,address)": {
        "params": {
          "spender": "address",
          "token": "address"
        }
      },
      "totalDeposits()": {
        "returns": {
          "_0": "total deposits available on the contract"
        }
      },
      "transfer(address,uint256)": {
        "params": {
          "amount": "The number of tokens to transfer",
          "dst": "The address of the destination account"
        },
        "returns": {
          "_0": "Whether or not the transfer succeeded"
        }
      },
      "transferFrom(address,address,uint256)": {
        "params": {
          "amount": "The number of tokens to transfer",
          "dst": "The address of the destination account",
          "src": "The address of the source account"
        },
        "returns": {
          "_0": "Whether or not the transfer succeeded"
        }
      },
      "transferOwnership(address)": {
        "details": "Transfers ownership of the contract to a new account (`newOwner`). Can only be called by the current owner."
      },
      "updateDevAddr(address)": {
        "params": {
          "newValue": "address"
        }
      },
      "updateDevFee(uint256)": {
        "params": {
          "newValue": "fee in BIPS"
        }
      },
      "updateFeeCollector(address)": {
        "params": {
          "newValue": "address"
        }
      },
      "updateMinTokensToReinvest(uint256)": {
        "params": {
          "newValue": "threshold"
        }
      },
      "updateReinvestReward(uint256)": {
        "params": {
          "newValue": "fee in BIPS"
        }
      }
    },
    "version": 1
  },
  "userdoc": {
    "kind": "user",
    "methods": {
      "allowance(address,address)": {
        "notice": "Get the number of tokens `spender` is approved to spend on behalf of `account`"
      },
      "approve(address,uint256)": {
        "notice": "Approve `spender` to transfer up to `amount` from `src`"
      },
      "balanceOf(address)": {
        "notice": "Get the number of tokens held by the `account`"
      },
      "checkReward()": {
        "notice": "Reward tokens available to strategy, including balance"
      },
      "deposit(uint256)": {
        "notice": "Deposit tokens to receive receipt tokens"
      },
      "depositWithPermit(uint256,uint256,uint8,bytes32,bytes32)": {
        "notice": "Deposit using Permit"
      },
      "disableDeposits()": {
        "notice": "Disable deposits"
      },
      "enableDeposits()": {
        "notice": "Enable deposits"
      },
      "estimateReinvestReward()": {
        "notice": "Estimate reinvest reward"
      },
      "getDepositTokensForShares(uint256)": {
        "notice": "Calculate deposit tokens for a given amount of receipt tokens"
      },
      "getDomainSeparator()": {
        "notice": "EIP-712 Domain separator"
      },
      "getSharesForDepositTokens(uint256)": {
        "notice": "Calculate receipt tokens for a given amount of deposit tokens"
      },
      "permit(address,address,uint256,uint256,uint8,bytes32,bytes32)": {
        "notice": "Triggers an approval from owner to spender"
      },
      "recoverERC20(address,uint256)": {
        "notice": "Recover ERC20 from contract"
      },
      "recoverGas(uint256)": {
        "notice": "Recover GAS from contract"
      },
      "reinvest()": {
        "notice": "Reinvest reward tokens into deposit tokens"
      },
      "revokeAllowance(address,address)": {
        "notice": "Revoke token allowance"
      },
      "totalDeposits()": {
        "notice": "This function returns a snapshot of last available quotes"
      },
      "transfer(address,uint256)": {
        "notice": "Transfer `amount` tokens from `msg.sender` to `dst`"
      },
      "transferFrom(address,address,uint256)": {
        "notice": "Transfer `amount` tokens from `src` to `dst`"
      },
      "updateDevAddr(address)": {
        "notice": "Update devAddr"
      },
      "updateDevFee(uint256)": {
        "notice": "Update developer fee"
      },
      "updateFeeCollector(address)": {
        "notice": "Update feeCollector"
      },
      "updateMinTokensToReinvest(uint256)": {
        "notice": "Update reinvest min threshold"
      },
      "updateReinvestReward(uint256)": {
        "notice": "Update reinvest reward"
      }
    },
    "version": 1
  },
  "storageLayout": {
    "storage": [
      {
        "astId": 5,
        "contract": "contracts/strategies/mantle/lendle/LendleStrategy.sol:LendleStrategy",
        "label": "name",
        "offset": 0,
        "slot": "0",
        "type": "t_string_storage"
      },
      {
        "astId": 8,
        "contract": "contracts/strategies/mantle/lendle/LendleStrategy.sol:LendleStrategy",
        "label": "symbol",
        "offset": 0,
        "slot": "1",
        "type": "t_string_storage"
      },
      {
        "astId": 13,
        "contract": "contracts/strategies/mantle/lendle/LendleStrategy.sol:LendleStrategy",
        "label": "totalSupply",
        "offset": 0,
        "slot": "2",
        "type": "t_uint256"
      },
      {
        "astId": 19,
        "contract": "contracts/strategies/mantle/lendle/LendleStrategy.sol:LendleStrategy",
        "label": "allowances",
        "offset": 0,
        "slot": "3",
        "type": "t_mapping(t_address,t_mapping(t_address,t_uint256))"
      },
      {
        "astId": 23,
        "contract": "contracts/strategies/mantle/lendle/LendleStrategy.sol:LendleStrategy",
        "label": "balances",
        "offset": 0,
        "slot": "4",
        "type": "t_mapping(t_address,t_uint256)"
      },
      {
        "astId": 39,
        "contract": "contracts/strategies/mantle/lendle/LendleStrategy.sol:LendleStrategy",
        "label": "nonces",
        "offset": 0,
        "slot": "5",
        "type": "t_mapping(t_address,t_uint256)"
      },
      {
        "astId": 1595,
        "contract": "contracts/strategies/mantle/lendle/LendleStrategy.sol:LendleStrategy",
        "label": "_owner",
        "offset": 0,
        "slot": "6",
        "type": "t_address"
      },
      {
        "astId": 552,
        "contract": "contracts/strategies/mantle/lendle/LendleStrategy.sol:LendleStrategy",
        "label": "devAddr",
        "offset": 0,
        "slot": "7",
        "type": "t_address"
      },
      {
        "astId": 554,
        "contract": "contracts/strategies/mantle/lendle/LendleStrategy.sol:LendleStrategy",
        "label": "feeCollector",
        "offset": 0,
        "slot": "8",
        "type": "t_address"
      },
      {
        "astId": 556,
        "contract": "contracts/strategies/mantle/lendle/LendleStrategy.sol:LendleStrategy",
        "label": "MIN_TOKENS_TO_REINVEST",
        "offset": 0,
        "slot": "9",
        "type": "t_uint256"
      },
      {
        "astId": 558,
        "contract": "contracts/strategies/mantle/lendle/LendleStrategy.sol:LendleStrategy",
        "label": "DEPOSITS_ENABLED",
        "offset": 0,
        "slot": "10",
        "type": "t_bool"
      },
      {
        "astId": 560,
        "contract": "contracts/strategies/mantle/lendle/LendleStrategy.sol:LendleStrategy",
        "label": "REINVEST_REWARD_BIPS",
        "offset": 0,
        "slot": "11",
        "type": "t_uint256"
      },
      {
        "astId": 562,
        "contract": "contracts/strategies/mantle/lendle/LendleStrategy.sol:LendleStrategy",
        "label": "DEV_FEE_BIPS",
        "offset": 0,
        "slot": "12",
        "type": "t_uint256"
      },
      {
        "astId": 2297,
        "contract": "contracts/strategies/mantle/lendle/LendleStrategy.sol:LendleStrategy",
        "label": "supportedRewards",
        "offset": 0,
        "slot": "13",
        "type": "t_array(t_address)dyn_storage"
      },
      {
        "astId": 2300,
        "contract": "contracts/strategies/mantle/lendle/LendleStrategy.sol:LendleStrategy",
        "label": "simpleRouter",
        "offset": 0,
        "slot": "14",
        "type": "t_contract(ISimpleRouter)1252"
      },
      {
        "astId": 2177,
        "contract": "contracts/strategies/mantle/lendle/LendleStrategy.sol:LendleStrategy",
        "label": "leverageLevel",
        "offset": 0,
        "slot": "15",
        "type": "t_uint256"
      },
      {
        "astId": 2179,
        "contract": "contracts/strategies/mantle/lendle/LendleStrategy.sol:LendleStrategy",
        "label": "leverageBips",
        "offset": 0,
        "slot": "16",
        "type": "t_uint256"
      },
      {
        "astId": 3372,
        "contract": "contracts/strategies/mantle/lendle/LendleStrategy.sol:LendleStrategy",
        "label": "safetyFactor",
        "offset": 0,
        "slot": "17",
        "type": "t_uint256"
      },
      {
        "astId": 3374,
        "contract": "contracts/strategies/mantle/lendle/LendleStrategy.sol:LendleStrategy",
        "label": "minMinting",
        "offset": 0,
        "slot": "18",
        "type": "t_uint256"
      }
    ],
    "types": {
      "t_address": {
        "encoding": "inplace",
        "label": "address",
        "numberOfBytes": "20"
      },
      "t_array(t_address)dyn_storage": {
        "base": "t_address",
        "encoding": "dynamic_array",
        "label": "address[]",
        "numberOfBytes": "32"
      },
      "t_bool": {
        "encoding": "inplace",
        "label": "bool",
        "numberOfBytes": "1"
      },
      "t_contract(ISimpleRouter)1252": {
        "encoding": "inplace",
        "label": "contract ISimpleRouter",
        "numberOfBytes": "20"
      },
      "t_mapping(t_address,t_mapping(t_address,t_uint256))": {
        "encoding": "mapping",
        "key": "t_address",
        "label": "mapping(address => mapping(address => uint256))",
        "numberOfBytes": "32",
        "value": "t_mapping(t_address,t_uint256)"
      },
      "t_mapping(t_address,t_uint256)": {
        "encoding": "mapping",
        "key": "t_address",
        "label": "mapping(address => uint256)",
        "numberOfBytes": "32",
        "value": "t_uint256"
      },
      "t_string_storage": {
        "encoding": "bytes",
        "label": "string",
        "numberOfBytes": "32"
      },
      "t_uint256": {
        "encoding": "inplace",
        "label": "uint256",
        "numberOfBytes": "32"
      }
    }
  }
}