{
  "address": "0x07a0093aDf7531dE4a6fA0FB988b9362e3773663",
  "abi": [
    {
      "inputs": [
        {
          "internalType": "address",
          "name": "_masterchef",
          "type": "address"
        },
        {
          "internalType": "uint256",
          "name": "_pid",
          "type": "uint256"
        },
        {
          "components": [
            {
              "internalType": "address",
              "name": "gasToken",
              "type": "address"
            },
            {
              "internalType": "address[]",
              "name": "rewards",
              "type": "address[]"
            },
            {
              "internalType": "address",
              "name": "simpleRouter",
              "type": "address"
            }
          ],
          "internalType": "struct BaseStrategy.BaseStrategySettings",
          "name": "_baseStrategySettings",
          "type": "tuple"
        },
        {
          "components": [
            {
              "internalType": "string",
              "name": "name",
              "type": "string"
            },
            {
              "internalType": "address",
              "name": "owner",
              "type": "address"
            },
            {
              "internalType": "address",
              "name": "dev",
              "type": "address"
            },
            {
              "internalType": "address",
              "name": "feeCollector",
              "type": "address"
            },
            {
              "internalType": "address",
              "name": "depositToken",
              "type": "address"
            },
            {
              "internalType": "address",
              "name": "rewardToken",
              "type": "address"
            },
            {
              "internalType": "uint256",
              "name": "minTokensToReinvest",
              "type": "uint256"
            },
            {
              "internalType": "uint256",
              "name": "devFeeBips",
              "type": "uint256"
            },
            {
              "internalType": "uint256",
              "name": "reinvestRewardBips",
              "type": "uint256"
            }
          ],
          "internalType": "struct YakStrategyV3.StrategySettings",
          "name": "_strategySettings",
          "type": "tuple"
        }
      ],
      "stateMutability": "nonpayable",
      "type": "constructor"
    },
    {
      "anonymous": false,
      "inputs": [
        {
          "indexed": false,
          "internalType": "address",
          "name": "rewardToken",
          "type": "address"
        }
      ],
      "name": "AddReward",
      "type": "event"
    },
    {
      "anonymous": false,
      "inputs": [
        {
          "indexed": true,
          "internalType": "address",
          "name": "owner",
          "type": "address"
        },
        {
          "indexed": true,
          "internalType": "address",
          "name": "spender",
          "type": "address"
        },
        {
          "indexed": false,
          "internalType": "uint256",
          "name": "value",
          "type": "uint256"
        }
      ],
      "name": "Approval",
      "type": "event"
    },
    {
      "anonymous": false,
      "inputs": [
        {
          "indexed": true,
          "internalType": "address",
          "name": "account",
          "type": "address"
        },
        {
          "indexed": false,
          "internalType": "uint256",
          "name": "amount",
          "type": "uint256"
        }
      ],
      "name": "Deposit",
      "type": "event"
    },
    {
      "anonymous": false,
      "inputs": [
        {
          "indexed": false,
          "internalType": "bool",
          "name": "newValue",
          "type": "bool"
        }
      ],
      "name": "DepositsEnabled",
      "type": "event"
    },
    {
      "anonymous": false,
      "inputs": [
        {
          "indexed": true,
          "internalType": "address",
          "name": "previousOwner",
          "type": "address"
        },
        {
          "indexed": true,
          "internalType": "address",
          "name": "newOwner",
          "type": "address"
        }
      ],
      "name": "OwnershipTransferred",
      "type": "event"
    },
    {
      "anonymous": false,
      "inputs": [
        {
          "indexed": false,
          "internalType": "address",
          "name": "token",
          "type": "address"
        },
        {
          "indexed": false,
          "internalType": "uint256",
          "name": "amount",
          "type": "uint256"
        }
      ],
      "name": "Recovered",
      "type": "event"
    },
    {
      "anonymous": false,
      "inputs": [
        {
          "indexed": false,
          "internalType": "uint256",
          "name": "newTotalDeposits",
          "type": "uint256"
        },
        {
          "indexed": false,
          "internalType": "uint256",
          "name": "newTotalSupply",
          "type": "uint256"
        }
      ],
      "name": "Reinvest",
      "type": "event"
    },
    {
      "anonymous": false,
      "inputs": [
        {
          "indexed": false,
          "internalType": "address",
          "name": "rewardToken",
          "type": "address"
        }
      ],
      "name": "RemoveReward",
      "type": "event"
    },
    {
      "anonymous": false,
      "inputs": [
        {
          "indexed": true,
          "internalType": "address",
          "name": "from",
          "type": "address"
        },
        {
          "indexed": true,
          "internalType": "address",
          "name": "to",
          "type": "address"
        },
        {
          "indexed": false,
          "internalType": "uint256",
          "name": "value",
          "type": "uint256"
        }
      ],
      "name": "Transfer",
      "type": "event"
    },
    {
      "anonymous": false,
      "inputs": [
        {
          "indexed": false,
          "internalType": "address",
          "name": "oldValue",
          "type": "address"
        },
        {
          "indexed": false,
          "internalType": "address",
          "name": "newValue",
          "type": "address"
        }
      ],
      "name": "UpdateDevAddr",
      "type": "event"
    },
    {
      "anonymous": false,
      "inputs": [
        {
          "indexed": false,
          "internalType": "uint256",
          "name": "oldValue",
          "type": "uint256"
        },
        {
          "indexed": false,
          "internalType": "uint256",
          "name": "newValue",
          "type": "uint256"
        }
      ],
      "name": "UpdateDevFee",
      "type": "event"
    },
    {
      "anonymous": false,
      "inputs": [
        {
          "indexed": false,
          "internalType": "address",
          "name": "oldValue",
          "type": "address"
        },
        {
          "indexed": false,
          "internalType": "address",
          "name": "newValue",
          "type": "address"
        }
      ],
      "name": "UpdateFeeCollector",
      "type": "event"
    },
    {
      "anonymous": false,
      "inputs": [
        {
          "indexed": false,
          "internalType": "uint256",
          "name": "oldValue",
          "type": "uint256"
        },
        {
          "indexed": false,
          "internalType": "uint256",
          "name": "newValue",
          "type": "uint256"
        }
      ],
      "name": "UpdateMaxTokensToDepositWithoutReinvest",
      "type": "event"
    },
    {
      "anonymous": false,
      "inputs": [
        {
          "indexed": false,
          "internalType": "uint256",
          "name": "oldValue",
          "type": "uint256"
        },
        {
          "indexed": false,
          "internalType": "uint256",
          "name": "newValue",
          "type": "uint256"
        }
      ],
      "name": "UpdateMinTokensToReinvest",
      "type": "event"
    },
    {
      "anonymous": false,
      "inputs": [
        {
          "indexed": false,
          "internalType": "uint256",
          "name": "oldValue",
          "type": "uint256"
        },
        {
          "indexed": false,
          "internalType": "uint256",
          "name": "newValue",
          "type": "uint256"
        }
      ],
      "name": "UpdateReinvestReward",
      "type": "event"
    },
    {
      "anonymous": false,
      "inputs": [
        {
          "indexed": false,
          "internalType": "address",
          "name": "oldRouter",
          "type": "address"
        },
        {
          "indexed": false,
          "internalType": "address",
          "name": "newRouter",
          "type": "address"
        }
      ],
      "name": "UpdateRouter",
      "type": "event"
    },
    {
      "anonymous": false,
      "inputs": [
        {
          "indexed": true,
          "internalType": "address",
          "name": "account",
          "type": "address"
        },
        {
          "indexed": false,
          "internalType": "uint256",
          "name": "amount",
          "type": "uint256"
        }
      ],
      "name": "Withdraw",
      "type": "event"
    },
    {
      "inputs": [],
      "name": "DEPOSITS_ENABLED",
      "outputs": [
        {
          "internalType": "bool",
          "name": "",
          "type": "bool"
        }
      ],
      "stateMutability": "view",
      "type": "function"
    },
    {
      "inputs": [],
      "name": "DEV_FEE_BIPS",
      "outputs": [
        {
          "internalType": "uint256",
          "name": "",
          "type": "uint256"
        }
      ],
      "stateMutability": "view",
      "type": "function"
    },
    {
      "inputs": [],
      "name": "DOMAIN_TYPEHASH",
      "outputs": [
        {
          "internalType": "bytes32",
          "name": "",
          "type": "bytes32"
        }
      ],
      "stateMutability": "view",
      "type": "function"
    },
    {
      "inputs": [],
      "name": "MIN_TOKENS_TO_REINVEST",
      "outputs": [
        {
          "internalType": "uint256",
          "name": "",
          "type": "uint256"
        }
      ],
      "stateMutability": "view",
      "type": "function"
    },
    {
      "inputs": [],
      "name": "PERMIT_TYPEHASH",
      "outputs": [
        {
          "internalType": "bytes32",
          "name": "",
          "type": "bytes32"
        }
      ],
      "stateMutability": "view",
      "type": "function"
    },
    {
      "inputs": [],
      "name": "REINVEST_REWARD_BIPS",
      "outputs": [
        {
          "internalType": "uint256",
          "name": "",
          "type": "uint256"
        }
      ],
      "stateMutability": "view",
      "type": "function"
    },
    {
      "inputs": [],
      "name": "VERSION_HASH",
      "outputs": [
        {
          "internalType": "bytes32",
          "name": "",
          "type": "bytes32"
        }
      ],
      "stateMutability": "view",
      "type": "function"
    },
    {
      "inputs": [
        {
          "internalType": "address",
          "name": "_rewardToken",
          "type": "address"
        }
      ],
      "name": "addReward",
      "outputs": [],
      "stateMutability": "nonpayable",
      "type": "function"
    },
    {
      "inputs": [
        {
          "internalType": "address",
          "name": "account",
          "type": "address"
        },
        {
          "internalType": "address",
          "name": "spender",
          "type": "address"
        }
      ],
      "name": "allowance",
      "outputs": [
        {
          "internalType": "uint256",
          "name": "",
          "type": "uint256"
        }
      ],
      "stateMutability": "view",
      "type": "function"
    },
    {
      "inputs": [
        {
          "internalType": "address",
          "name": "spender",
          "type": "address"
        },
        {
          "internalType": "uint256",
          "name": "amount",
          "type": "uint256"
        }
      ],
      "name": "approve",
      "outputs": [
        {
          "internalType": "bool",
          "name": "",
          "type": "bool"
        }
      ],
      "stateMutability": "nonpayable",
      "type": "function"
    },
    {
      "inputs": [
        {
          "internalType": "address",
          "name": "account",
          "type": "address"
        }
      ],
      "name": "balanceOf",
      "outputs": [
        {
          "internalType": "uint256",
          "name": "",
          "type": "uint256"
        }
      ],
      "stateMutability": "view",
      "type": "function"
    },
    {
      "inputs": [
        {
          "internalType": "uint256",
          "name": "_amount",
          "type": "uint256"
        }
      ],
      "name": "calculateDepositFee",
      "outputs": [
        {
          "internalType": "uint256",
          "name": "",
          "type": "uint256"
        }
      ],
      "stateMutability": "view",
      "type": "function"
    },
    {
      "inputs": [
        {
          "internalType": "uint256",
          "name": "_amount",
          "type": "uint256"
        }
      ],
      "name": "calculateWithdrawFee",
      "outputs": [
        {
          "internalType": "uint256",
          "name": "",
          "type": "uint256"
        }
      ],
      "stateMutability": "view",
      "type": "function"
    },
    {
      "inputs": [],
      "name": "checkReward",
      "outputs": [
        {
          "internalType": "uint256",
          "name": "",
          "type": "uint256"
        }
      ],
      "stateMutability": "view",
      "type": "function"
    },
    {
      "inputs": [],
      "name": "decimals",
      "outputs": [
        {
          "internalType": "uint8",
          "name": "",
          "type": "uint8"
        }
      ],
      "stateMutability": "view",
      "type": "function"
    },
    {
      "inputs": [
        {
          "internalType": "uint256",
          "name": "_amount",
          "type": "uint256"
        }
      ],
      "name": "deposit",
      "outputs": [],
      "stateMutability": "nonpayable",
      "type": "function"
    },
    {
      "inputs": [
        {
          "internalType": "address",
          "name": "_account",
          "type": "address"
        },
        {
          "internalType": "uint256",
          "name": "_amount",
          "type": "uint256"
        }
      ],
      "name": "depositFor",
      "outputs": [],
      "stateMutability": "nonpayable",
      "type": "function"
    },
    {
      "inputs": [],
      "name": "depositToken",
      "outputs": [
        {
          "internalType": "contract IERC20",
          "name": "",
          "type": "address"
        }
      ],
      "stateMutability": "view",
      "type": "function"
    },
    {
      "inputs": [
        {
          "internalType": "uint256",
          "name": "_amount",
          "type": "uint256"
        },
        {
          "internalType": "uint256",
          "name": "_deadline",
          "type": "uint256"
        },
        {
          "internalType": "uint8",
          "name": "_v",
          "type": "uint8"
        },
        {
          "internalType": "bytes32",
          "name": "_r",
          "type": "bytes32"
        },
        {
          "internalType": "bytes32",
          "name": "_s",
          "type": "bytes32"
        }
      ],
      "name": "depositWithPermit",
      "outputs": [],
      "stateMutability": "nonpayable",
      "type": "function"
    },
    {
      "inputs": [],
      "name": "devAddr",
      "outputs": [
        {
          "internalType": "address",
          "name": "",
          "type": "address"
        }
      ],
      "stateMutability": "view",
      "type": "function"
    },
    {
      "inputs": [],
      "name": "disableDeposits",
      "outputs": [],
      "stateMutability": "nonpayable",
      "type": "function"
    },
    {
      "inputs": [],
      "name": "enableDeposits",
      "outputs": [],
      "stateMutability": "nonpayable",
      "type": "function"
    },
    {
      "inputs": [],
      "name": "estimateReinvestReward",
      "outputs": [
        {
          "internalType": "uint256",
          "name": "",
          "type": "uint256"
        }
      ],
      "stateMutability": "view",
      "type": "function"
    },
    {
      "inputs": [],
      "name": "feeCollector",
      "outputs": [
        {
          "internalType": "address",
          "name": "",
          "type": "address"
        }
      ],
      "stateMutability": "view",
      "type": "function"
    },
    {
      "inputs": [
        {
          "internalType": "uint256",
          "name": "amount",
          "type": "uint256"
        }
      ],
      "name": "getDepositTokensForShares",
      "outputs": [
        {
          "internalType": "uint256",
          "name": "",
          "type": "uint256"
        }
      ],
      "stateMutability": "view",
      "type": "function"
    },
    {
      "inputs": [],
      "name": "getDomainSeparator",
      "outputs": [
        {
          "internalType": "bytes32",
          "name": "",
          "type": "bytes32"
        }
      ],
      "stateMutability": "view",
      "type": "function"
    },
    {
      "inputs": [
        {
          "internalType": "uint256",
          "name": "amount",
          "type": "uint256"
        }
      ],
      "name": "getSharesForDepositTokens",
      "outputs": [
        {
          "internalType": "uint256",
          "name": "",
          "type": "uint256"
        }
      ],
      "stateMutability": "view",
      "type": "function"
    },
    {
      "inputs": [],
      "name": "getSupportedRewardsLength",
      "outputs": [
        {
          "internalType": "uint256",
          "name": "",
          "type": "uint256"
        }
      ],
      "stateMutability": "view",
      "type": "function"
    },
    {
      "inputs": [],
      "name": "masterchef",
      "outputs": [
        {
          "internalType": "contract IMasterChef",
          "name": "",
          "type": "address"
        }
      ],
      "stateMutability": "view",
      "type": "function"
    },
    {
      "inputs": [],
      "name": "name",
      "outputs": [
        {
          "internalType": "string",
          "name": "",
          "type": "string"
        }
      ],
      "stateMutability": "view",
      "type": "function"
    },
    {
      "inputs": [
        {
          "internalType": "address",
          "name": "",
          "type": "address"
        }
      ],
      "name": "nonces",
      "outputs": [
        {
          "internalType": "uint256",
          "name": "",
          "type": "uint256"
        }
      ],
      "stateMutability": "view",
      "type": "function"
    },
    {
      "inputs": [],
      "name": "owner",
      "outputs": [
        {
          "internalType": "address",
          "name": "",
          "type": "address"
        }
      ],
      "stateMutability": "view",
      "type": "function"
    },
    {
      "inputs": [
        {
          "internalType": "address",
          "name": "owner",
          "type": "address"
        },
        {
          "internalType": "address",
          "name": "spender",
          "type": "address"
        },
        {
          "internalType": "uint256",
          "name": "value",
          "type": "uint256"
        },
        {
          "internalType": "uint256",
          "name": "deadline",
          "type": "uint256"
        },
        {
          "internalType": "uint8",
          "name": "v",
          "type": "uint8"
        },
        {
          "internalType": "bytes32",
          "name": "r",
          "type": "bytes32"
        },
        {
          "internalType": "bytes32",
          "name": "s",
          "type": "bytes32"
        }
      ],
      "name": "permit",
      "outputs": [],
      "stateMutability": "nonpayable",
      "type": "function"
    },
    {
      "inputs": [],
      "name": "pid",
      "outputs": [
        {
          "internalType": "uint256",
          "name": "",
          "type": "uint256"
        }
      ],
      "stateMutability": "view",
      "type": "function"
    },
    {
      "inputs": [
        {
          "internalType": "address",
          "name": "tokenAddress",
          "type": "address"
        },
        {
          "internalType": "uint256",
          "name": "tokenAmount",
          "type": "uint256"
        }
      ],
      "name": "recoverERC20",
      "outputs": [],
      "stateMutability": "nonpayable",
      "type": "function"
    },
    {
      "inputs": [
        {
          "internalType": "uint256",
          "name": "amount",
          "type": "uint256"
        }
      ],
      "name": "recoverGas",
      "outputs": [],
      "stateMutability": "nonpayable",
      "type": "function"
    },
    {
      "inputs": [],
      "name": "reinvest",
      "outputs": [],
      "stateMutability": "nonpayable",
      "type": "function"
    },
    {
      "inputs": [
        {
          "internalType": "address",
          "name": "_rewardToken",
          "type": "address"
        }
      ],
      "name": "removeReward",
      "outputs": [],
      "stateMutability": "nonpayable",
      "type": "function"
    },
    {
      "inputs": [],
      "name": "renounceOwnership",
      "outputs": [],
      "stateMutability": "nonpayable",
      "type": "function"
    },
    {
      "inputs": [
        {
          "internalType": "uint256",
          "name": "_minReturnAmountAccepted",
          "type": "uint256"
        }
      ],
      "name": "rescueDeployedFunds",
      "outputs": [],
      "stateMutability": "nonpayable",
      "type": "function"
    },
    {
      "inputs": [
        {
          "internalType": "address",
          "name": "token",
          "type": "address"
        },
        {
          "internalType": "address",
          "name": "spender",
          "type": "address"
        }
      ],
      "name": "revokeAllowance",
      "outputs": [],
      "stateMutability": "nonpayable",
      "type": "function"
    },
    {
      "inputs": [],
      "name": "rewardToken",
      "outputs": [
        {
          "internalType": "contract IERC20",
          "name": "",
          "type": "address"
        }
      ],
      "stateMutability": "view",
      "type": "function"
    },
    {
      "inputs": [],
      "name": "simpleRouter",
      "outputs": [
        {
          "internalType": "contract ISimpleRouter",
          "name": "",
          "type": "address"
        }
      ],
      "stateMutability": "view",
      "type": "function"
    },
    {
      "inputs": [
        {
          "internalType": "uint256",
          "name": "",
          "type": "uint256"
        }
      ],
      "name": "supportedRewards",
      "outputs": [
        {
          "internalType": "address",
          "name": "",
          "type": "address"
        }
      ],
      "stateMutability": "view",
      "type": "function"
    },
    {
      "inputs": [],
      "name": "symbol",
      "outputs": [
        {
          "internalType": "string",
          "name": "",
          "type": "string"
        }
      ],
      "stateMutability": "view",
      "type": "function"
    },
    {
      "inputs": [],
      "name": "totalDeposits",
      "outputs": [
        {
          "internalType": "uint256",
          "name": "",
          "type": "uint256"
        }
      ],
      "stateMutability": "view",
      "type": "function"
    },
    {
      "inputs": [],
      "name": "totalSupply",
      "outputs": [
        {
          "internalType": "uint256",
          "name": "",
          "type": "uint256"
        }
      ],
      "stateMutability": "view",
      "type": "function"
    },
    {
      "inputs": [
        {
          "internalType": "address",
          "name": "dst",
          "type": "address"
        },
        {
          "internalType": "uint256",
          "name": "amount",
          "type": "uint256"
        }
      ],
      "name": "transfer",
      "outputs": [
        {
          "internalType": "bool",
          "name": "",
          "type": "bool"
        }
      ],
      "stateMutability": "nonpayable",
      "type": "function"
    },
    {
      "inputs": [
        {
          "internalType": "address",
          "name": "src",
          "type": "address"
        },
        {
          "internalType": "address",
          "name": "dst",
          "type": "address"
        },
        {
          "internalType": "uint256",
          "name": "amount",
          "type": "uint256"
        }
      ],
      "name": "transferFrom",
      "outputs": [
        {
          "internalType": "bool",
          "name": "",
          "type": "bool"
        }
      ],
      "stateMutability": "nonpayable",
      "type": "function"
    },
    {
      "inputs": [
        {
          "internalType": "address",
          "name": "newOwner",
          "type": "address"
        }
      ],
      "name": "transferOwnership",
      "outputs": [],
      "stateMutability": "nonpayable",
      "type": "function"
    },
    {
      "inputs": [
        {
          "internalType": "address",
          "name": "newValue",
          "type": "address"
        }
      ],
      "name": "updateDevAddr",
      "outputs": [],
      "stateMutability": "nonpayable",
      "type": "function"
    },
    {
      "inputs": [
        {
          "internalType": "uint256",
          "name": "newValue",
          "type": "uint256"
        }
      ],
      "name": "updateDevFee",
      "outputs": [],
      "stateMutability": "nonpayable",
      "type": "function"
    },
    {
      "inputs": [
        {
          "internalType": "address",
          "name": "newValue",
          "type": "address"
        }
      ],
      "name": "updateFeeCollector",
      "outputs": [],
      "stateMutability": "nonpayable",
      "type": "function"
    },
    {
      "inputs": [
        {
          "internalType": "uint256",
          "name": "newValue",
          "type": "uint256"
        }
      ],
      "name": "updateMinTokensToReinvest",
      "outputs": [],
      "stateMutability": "nonpayable",
      "type": "function"
    },
    {
      "inputs": [
        {
          "internalType": "uint256",
          "name": "newValue",
          "type": "uint256"
        }
      ],
      "name": "updateReinvestReward",
      "outputs": [],
      "stateMutability": "nonpayable",
      "type": "function"
    },
    {
      "inputs": [
        {
          "internalType": "address",
          "name": "_router",
          "type": "address"
        }
      ],
      "name": "updateRouter",
      "outputs": [],
      "stateMutability": "nonpayable",
      "type": "function"
    },
    {
      "inputs": [
        {
          "internalType": "uint256",
          "name": "_amount",
          "type": "uint256"
        }
      ],
      "name": "withdraw",
      "outputs": [],
      "stateMutability": "nonpayable",
      "type": "function"
    }
  ],
  "transactionHash": "0x4fec821d55f0056499224c74cab2e5aa319401696ef782e0df364a5827915f46",
  "args": [
    "0xA756f7D419e1A5cbd656A438443011a7dE1955b5",
    "5",
    {
      "gasToken": "0x78c1b0C915c4FAA5FffA6CAbf0219DA63d7f4cb8",
      "rewards": [
        "0x4515A45337F461A11Ff0FE8aBF3c606AE5dC00c9"
      ],
      "simpleRouter": "0xF321fd6D29d826420ca2a242DFf2aA6dB88B1196"
    },
    {
      "name": "Yield Yak: USDC-USDY MoeLP",
      "owner": "0xDcEDF06Fd33E1D7b6eb4b309f779a0e9D3172e44",
      "dev": "0xDcEDF06Fd33E1D7b6eb4b309f779a0e9D3172e44",
      "feeCollector": "0xDcEDF06Fd33E1D7b6eb4b309f779a0e9D3172e44",
      "depositToken": "0xc1f43E45F86E7bfb92C3c309b0eF366F9Ba33Bfa",
      "rewardToken": "0x78c1b0C915c4FAA5FffA6CAbf0219DA63d7f4cb8",
      "minTokensToReinvest": "1000",
      "devFeeBips": 900,
      "reinvestRewardBips": 100
    }
  ],
  "solcInputHash": "793ead65096abbece365b318532b69da",
  "bytecode": "0x6101c06040526009610180819052685969656c642059616b60b81b6101a09081526200002f9160009190620008b1565b506040805180820190915260038082526216549560ea1b60209092019182526200005c91600191620008b1565b503480156200006a57600080fd5b50604051620058c3380380620058c38339810160408190526200008d9162000bc9565b600680546001600160a01b03191633908117909155604051839183918291908190600090600080516020620058a3833981519152908290a35080518051620000de91600091602090910190620008b1565b506080808201516001600160a01b0390811690915260a0808301519091169052600780546001600160a01b0319163317905560c0810151620001209062000392565b60e0810151620001309062000433565b6101008101516200014190620004ef565b60608101516200015190620005ab565b604081015162000161906200065f565b6200016b62000713565b60208101516200017b90620007b4565b5081516001600160a01b031660c0526020808301518051620001a292600d92019062000940565b50604082810151600e80546001600160a01b0319166001600160a01b039092169190911790558051600080825260208201527fc7606d21ac05cd309191543e409f0845c016120563783d70e4f41419dc0ef234910160405180910390a150506001600160a01b03841660e0819052610100849052604080516393f9450360e01b815290516393f94503916004808201926020929091908290030181865afa15801562000252573d6000803e3d6000fd5b505050506040513d601f19601f8201168201806040525081019062000278919062000d1c565b6001600160a01b0316610120816001600160a01b0316815250506080516001600160a01b0316630dfe16816040518163ffffffff1660e01b8152600401602060405180830381865afa158015620002d3573d6000803e3d6000fd5b505050506040513d601f19601f82011682018060405250810190620002f9919062000d1c565b6001600160a01b0316610140816001600160a01b0316815250506080516001600160a01b031663d21220a76040518163ffffffff1660e01b8152600401602060405180830381865afa15801562000354573d6000803e3d6000fd5b505050506040513d601f19601f820116820180604052508101906200037a919062000d1c565b6001600160a01b0316610160525062000da492505050565b6007546001600160a01b03163314620003f25760405162461bcd60e51b815260206004820152601460248201527f59616b53747261746567793a3a6f6e6c7944657600000000000000000000000060448201526064015b60405180910390fd5b60095460408051918252602082018390527f481f79ac3a523b6d6db3c5a720e190e986d1cc1b41adcdf50f9caef849901100910160405180910390a1600955565b6007546001600160a01b031633146200048f5760405162461bcd60e51b815260206004820152601460248201527f59616b53747261746567793a3a6f6e6c794465760000000000000000000000006044820152606401620003e9565b612710600b5482620004a2919062000d41565b1115620004ae57600080fd5b600c5460408051918252602082018390527f2a42303d002f0ba6cfe8259c91d4684443fb0b3de286ba74991175d651726131910160405180910390a1600c55565b6007546001600160a01b031633146200054b5760405162461bcd60e51b815260206004820152601460248201527f59616b53747261746567793a3a6f6e6c794465760000000000000000000000006044820152606401620003e9565b612710600c54826200055e919062000d41565b11156200056a57600080fd5b600b5460408051918252602082018390527fe7f97d51d307dc44045597c9978bec0f842e6bb40d19b9444084cfa30d9ed4f2910160405180910390a1600b55565b6006546001600160a01b03163314620005f65760405162461bcd60e51b81526020600482018190526024820152600080516020620058838339815191526044820152606401620003e9565b600854604080516001600160a01b03928316815291831660208301527fcc882185e6edeeb762130016ea1faf3d7aa9c01b199bfd646f965b58ab741063910160405180910390a1600880546001600160a01b0319166001600160a01b0392909216919091179055565b6006546001600160a01b03163314620006aa5760405162461bcd60e51b81526020600482018190526024820152600080516020620058838339815191526044820152606401620003e9565b600754604080516001600160a01b03928316815291831660208301527fa8e91499ed37682f43cffb045fcc7d379a91e8c9a14e6321877ee34dee564c00910160405180910390a1600780546001600160a01b0319166001600160a01b0392909216919091179055565b6006546001600160a01b031633146200075e5760405162461bcd60e51b81526020600482018190526024820152600080516020620058838339815191526044820152606401620003e9565b600a5460ff16156200076f57600080fd5b600a805460ff191660019081179091556040519081527f7b014ed3854e7f5cb0218d58b3c6ae7d53a68bb0af2f67bfb029ea42c38a7e859060200160405180910390a1565b6006546001600160a01b03163314620007ff5760405162461bcd60e51b81526020600482018190526024820152600080516020620058838339815191526044820152606401620003e9565b6001600160a01b038116620008665760405162461bcd60e51b815260206004820152602660248201527f4f776e61626c653a206e6577206f776e657220697320746865207a65726f206160448201526564647265737360d01b6064820152608401620003e9565b6006546040516001600160a01b03808416921690600080516020620058a383398151915290600090a3600680546001600160a01b0319166001600160a01b0392909216919091179055565b828054620008bf9062000d68565b90600052602060002090601f016020900481019282620008e357600085556200092e565b82601f10620008fe57805160ff19168380011785556200092e565b828001600101855582156200092e579182015b828111156200092e57825182559160200191906001019062000911565b506200093c92915062000998565b5090565b8280548282559060005260206000209081019282156200092e579160200282015b828111156200092e57825182546001600160a01b0319166001600160a01b0390911617825560209092019160019091019062000961565b5b808211156200093c576000815560010162000999565b80516001600160a01b0381168114620009c757600080fd5b919050565b634e487b7160e01b600052604160045260246000fd5b60405161012081016001600160401b038111828210171562000a085762000a08620009cc565b60405290565b604051606081016001600160401b038111828210171562000a085762000a08620009cc565b604051601f8201601f191681016001600160401b038111828210171562000a5e5762000a5e620009cc565b604052919050565b600082601f83011262000a7857600080fd5b81516001600160401b0381111562000a945762000a94620009cc565b602062000aaa601f8301601f1916820162000a33565b828152858284870101111562000abf57600080fd5b60005b8381101562000adf57858101830151828201840152820162000ac2565b8381111562000af15760008385840101525b5095945050505050565b6000610120828403121562000b0f57600080fd5b62000b19620009e2565b82519091506001600160401b0381111562000b3357600080fd5b62000b418482850162000a66565b82525062000b5260208301620009af565b602082015262000b6560408301620009af565b604082015262000b7860608301620009af565b606082015262000b8b60808301620009af565b608082015262000b9e60a08301620009af565b60a082015260c082015160c082015260e082015160e082015261010080830151818301525092915050565b6000806000806080858703121562000be057600080fd5b62000beb85620009af565b60208681015160408801519296509450906001600160401b038082111562000c1257600080fd5b908701906060828a03121562000c2757600080fd5b62000c3162000a0e565b62000c3c83620009af565b8152838301518281111562000c5057600080fd5b8301601f81018b1362000c6257600080fd5b80518381111562000c775762000c77620009cc565b8060051b62000c8887820162000a33565b918252828101870191878101908e84111562000ca357600080fd5b938801935b8385101562000ccc5762000cbc85620009af565b8252938801939088019062000ca8565b858901525062000ce39250505060408401620009af565b6040820152606089015190955092508083111562000d0057600080fd5b505062000d108782880162000afb565b91505092959194509250565b60006020828403121562000d2f57600080fd5b62000d3a82620009af565b9392505050565b6000821982111562000d6357634e487b7160e01b600052601160045260246000fd5b500190565b600181811c9082168062000d7d57607f821691505b60208210810362000d9e57634e487b7160e01b600052602260045260246000fd5b50919050565b60805160a05160c05160e0516101005161012051610140516101605161494562000f3e600039600081816136be0152818161375e015281816139aa0152613ea5015260008181613493015281816135330152818161392a0152613e7101526000612b0a01526000818161078f015281816111490152818161252e015281816128fc015281816129b101528181613af40152613b98015260008181610803015281816111780152818161255e01528181612922015281816129f601528181613a4801528181613b210152613bc5015260008181611acd015281816131e601528181613215015261328a0152600081816107dc01528181611a3001528181611b3501528181611c7401528181612dc101528181612e2901528181613132015281816132b401528181613370015281816133d3015281816134bd0152818161350b015281816135d8015281816136e80152818161373601526138030152600081816106b501528181610a6501528181610b3801528181610ccf01528181610d6401528181612778015281816139000152613a7701526149456000f3fe608060405234801561001057600080fd5b50600436106103835760003560e01c806399729ec1116101de578063c89039c51161010f578063eab89a5a116100ad578063f6314d071161007c578063f6314d07146107c4578063f7c618c1146107d7578063fb1db278146107fe578063fdb5a03e1461082557600080fd5b8063eab89a5a1461076f578063ed24911d14610782578063f10684541461078a578063f2fde38b146107b157600080fd5b8063da09c72c116100e9578063da09c72c146106fd578063dd62ed3e14610710578063dd8ce4d614610749578063e75ab0451461075c57600080fd5b8063c89039c5146106b0578063d2c35ce8146106d7578063d505accf146106ea57600080fd5b8063b52a321f1161017c578063bd079f5511610156578063bd079f5514610679578063c415b95c14610682578063c4b24a4614610695578063c851cc321461069d57600080fd5b8063b52a321f14610651578063b6b55f251461065e578063b9e57b801461067157600080fd5b8063a4d5e67c116101b8578063a4d5e67c14610610578063a8ae2b7c14610623578063a9059cbb14610636578063ac67e1af1461064957600080fd5b806399729ec1146105c35780639c9b2e21146105d65780639e4e7318146105e957600080fd5b80635ea682ea116102b85780637ecebe00116102565780638aff733d116102305780638aff733d1461057a5780638da5cb5b146105835780639291d563146105a857806395d89b41146105bb57600080fd5b80637ecebe001461053457806381837230146105545780638980f11f1461056757600080fd5b8063715018a611610292578063715018a6146104fe5780637897e7f6146105065780637ae26773146105195780637d8820971461052c57600080fd5b80635ea682ea146104b9578063666d25b9146104c257806370a08231146104d557600080fd5b8063258250da1161032557806330adf81f116102ff57806330adf81f1461045d578063313ce567146104845780634a970be71461049e5780635e4c57a4146104b157600080fd5b8063258250da1461042d5780632e1a7d4d146104355780632f4f21e21461044a57600080fd5b806318160ddd1161036157806318160ddd146103ea57806320606b70146103f357806323b872dd1461041a578063247d284b146103c957600080fd5b806306fdde0314610388578063095ea7b3146103a657806311056035146103c9575b600080fd5b61039061082d565b60405161039d9190614109565b60405180910390f35b6103b96103b4366004614151565b6108bb565b604051901515815260200161039d565b6103dc6103d736600461417d565b6108d1565b60405190815260200161039d565b6103dc60025481565b6103dc7f8b73c3c69bb8fe3d512ecc4cf759cc79239f7b179b0ffacaa9a75d522b39400f81565b6103b9610428366004614196565b6108e2565b600d546103dc565b61044861044336600461417d565b6109ab565b005b610448610458366004614151565b610ad1565b6103dc7f6e71edae12b1b97f4d1f60370fef10105fa2faae0126114a169c64845d6126c981565b61048c601281565b60405160ff909116815260200161039d565b6104486104ac3660046141ed565b610adf565b610448610bad565b6103dc600c5481565b6104486104d036600461417d565b610c5d565b6103dc6104e3366004614234565b6001600160a01b031660009081526004602052604090205490565b610448610ede565b61044861051436600461417d565b610f82565b610448610527366004614251565b611054565b6103dc611121565b6103dc610542366004614234565b60056020526000908152604090205481565b61044861056236600461417d565b6111f0565b610448610575366004614151565b611282565b6103dc600b5481565b6006546001600160a01b03165b6040516001600160a01b03909116815260200161039d565b6104486105b6366004614234565b611344565b610390611407565b6104486105d136600461417d565b611414565b6104486105e4366004614234565b6114c2565b6103dc7fc89efdaa54c0f20c7adf612882df0950f5a951637e0307cdcb4c672f298b8bc681565b61044861061e366004614234565b61165d565b61044861063136600461417d565b611860565b6103b9610644366004614151565b61190e565b61044861191b565b600a546103b99060ff1681565b61044861066c36600461417d565b6119b6565b6103dc6119c3565b6103dc60095481565b600854610590906001600160a01b031681565b6103dc611a02565b6104486106ab366004614234565b611d57565b6105907f000000000000000000000000000000000000000000000000000000000000000081565b6104486106e5366004614234565b611e11565b6104486106f836600461428a565b611ed4565b600754610590906001600160a01b031681565b6103dc61071e366004614251565b6001600160a01b03918216600090815260036020908152604080832093909416825291909152205490565b6103dc61075736600461417d565b611fe7565b61059061076a36600461417d565b61202d565b6103dc61077d36600461417d565b612057565b6103dc61208d565b6103dc7f000000000000000000000000000000000000000000000000000000000000000081565b6104486107bf366004614234565b61212d565b600e54610590906001600160a01b031681565b6105907f000000000000000000000000000000000000000000000000000000000000000081565b6105907f000000000000000000000000000000000000000000000000000000000000000081565b61044861225f565b6000805461083a906142f8565b80601f0160208091040260200160405190810160405280929190818152602001828054610866906142f8565b80156108b35780601f10610888576101008083540402835291602001916108b3565b820191906000526020600020905b81548152906001019060200180831161089657829003601f168201915b505050505081565b60006108c83384846122ba565b50600192915050565b60006108dc826123c8565b92915050565b6001600160a01b03831660008181526003602090815260408083203380855292528220549192909190821480159061091c57506000198114155b1561099257600061092d8583614348565b6001600160a01b038881166000818152600360209081526040808320948916808452948252918290208590559051848152939450919290917f8c5be1e5ebec7d5bd14f71427d1e84f3dd0314c0f7b2291e5b200ac8c7c3b925910160405180910390a3505b61099d8686866123e2565b6001925050505b9392505050565b60006109b682612057565b905060008111610a335760405162461bcd60e51b815260206004820152602560248201527f4261736553747261746567793a3a576974686472617720616d6f756e7420746f60448201527f6f206c6f7700000000000000000000000000000000000000000000000000000060648201526084015b60405180910390fd5b6000610a3e82612506565b90506000610a4b836123c8565b9050610a8c33610a5b8385614348565b6001600160a01b037f00000000000000000000000000000000000000000000000000000000000000001691906125c8565b610a963385612648565b60405183815233907f884edad9ce6fa2440d8a54cc123490eb96d2768479d49ff9c7366125a94243649060200160405180910390a250505050565b610adb82826126dc565b5050565b6040517fd505accf000000000000000000000000000000000000000000000000000000008152336004820152306024820152604481018690526064810185905260ff8416608482015260a4810183905260c481018290527f00000000000000000000000000000000000000000000000000000000000000006001600160a01b03169063d505accf9060e401600060405180830381600087803b158015610b8457600080fd5b505af1158015610b98573d6000803e3d6000fd5b50505050610ba633866126dc565b5050505050565b6006546001600160a01b03163314610c075760405162461bcd60e51b815260206004820181905260248201527f4f776e61626c653a2063616c6c6572206973206e6f7420746865206f776e65726044820152606401610a2a565b600a5460ff1615610c1757600080fd5b600a805460ff191660019081179091556040519081527f7b014ed3854e7f5cb0218d58b3c6ae7d53a68bb0af2f67bfb029ea42c38a7e85906020015b60405180910390a1565b6006546001600160a01b03163314610cb75760405162461bcd60e51b815260206004820181905260248201527f4f776e61626c653a2063616c6c6572206973206e6f7420746865206f776e65726044820152606401610a2a565b6040516370a0823160e01b81523060048201526000907f00000000000000000000000000000000000000000000000000000000000000006001600160a01b0316906370a0823190602401602060405180830381865afa158015610d1e573d6000803e3d6000fd5b505050506040513d601f19601f82011682018060405250810190610d42919061435f565b9050610d4c6128d4565b6040516370a0823160e01b81523060048201526000907f00000000000000000000000000000000000000000000000000000000000000006001600160a01b0316906370a0823190602401602060405180830381865afa158015610db3573d6000803e3d6000fd5b505050506040513d601f19601f82011682018060405250810190610dd7919061435f565b905082610de48383614348565b1015610e7e5760405162461bcd60e51b815260206004820152604260248201527f4261736553747261746567793a3a456d657267656e637920776974686472617760448201527f206d696e696d756d2072657475726e20616d6f756e74206e6f7420726561636860648201527f6564000000000000000000000000000000000000000000000000000000000000608482015260a401610a2a565b7fc7606d21ac05cd309191543e409f0845c016120563783d70e4f41419dc0ef234610ea7611121565b6002546040805192835260208301919091520160405180910390a1600a5460ff161515600103610ed957610ed961191b565b505050565b6006546001600160a01b03163314610f385760405162461bcd60e51b815260206004820181905260248201527f4f776e61626c653a2063616c6c6572206973206e6f7420746865206f776e65726044820152606401610a2a565b6006546040516000916001600160a01b0316907f8be0079c531659141344cd1fd0a4f28419497f9722a3daafe3b4186f6b6457e0908390a3600680546001600160a01b0319169055565b6006546001600160a01b03163314610fdc5760405162461bcd60e51b815260206004820181905260248201527f4f776e61626c653a2063616c6c6572206973206e6f7420746865206f776e65726044820152606401610a2a565b60008111610fe957600080fd5b604051339082156108fc029083906000818181858888f19350505050158015611016573d6000803e3d6000fd5b506040805160008152602081018390527f8c1256b8896378cd5044f80c202f9772b9d77dc85c8a6eb51967210b09bfaa28910160405180910390a150565b6007546001600160a01b031633146110a55760405162461bcd60e51b81526020600482015260146024820152732cb0b5a9ba3930ba32b3bc9d1d37b7363ca232bb60611b6044820152606401610a2a565b60405163095ea7b360e01b81526001600160a01b0382811660048301526000602483015283169063095ea7b3906044016020604051808303816000875af11580156110f4573d6000803e3d6000fd5b505050506040513d601f19601f820116820180604052508101906111189190614378565b610adb57600080fd5b6040517f9f489e4e0000000000000000000000000000000000000000000000000000000081527f000000000000000000000000000000000000000000000000000000000000000060048201523060248201526000907f00000000000000000000000000000000000000000000000000000000000000006001600160a01b031690639f489e4e90604401602060405180830381865afa1580156111c7573d6000803e3d6000fd5b505050506040513d601f19601f820116820180604052508101906111eb919061435f565b905090565b6007546001600160a01b031633146112415760405162461bcd60e51b81526020600482015260146024820152732cb0b5a9ba3930ba32b3bc9d1d37b7363ca232bb60611b6044820152606401610a2a565b60095460408051918252602082018390527f481f79ac3a523b6d6db3c5a720e190e986d1cc1b41adcdf50f9caef849901100910160405180910390a1600955565b6006546001600160a01b031633146112dc5760405162461bcd60e51b815260206004820181905260248201527f4f776e61626c653a2063616c6c6572206973206e6f7420746865206f776e65726044820152606401610a2a565b600081116112e957600080fd5b6112fd6001600160a01b03831633836125c8565b604080516001600160a01b0384168152602081018390527f8c1256b8896378cd5044f80c202f9772b9d77dc85c8a6eb51967210b09bfaa2891015b60405180910390a15050565b6006546001600160a01b0316331461139e5760405162461bcd60e51b815260206004820181905260248201527f4f776e61626c653a2063616c6c6572206973206e6f7420746865206f776e65726044820152606401610a2a565b600754604080516001600160a01b03928316815291831660208301527fa8e91499ed37682f43cffb045fcc7d379a91e8c9a14e6321877ee34dee564c00910160405180910390a1600780546001600160a01b0319166001600160a01b0392909216919091179055565b6001805461083a906142f8565b6007546001600160a01b031633146114655760405162461bcd60e51b81526020600482015260146024820152732cb0b5a9ba3930ba32b3bc9d1d37b7363ca232bb60611b6044820152606401610a2a565b612710600b5482611476919061439a565b111561148157600080fd5b600c5460408051918252602082018390527f2a42303d002f0ba6cfe8259c91d4684443fb0b3de286ba74991175d651726131910160405180910390a1600c55565b6007546001600160a01b031633146115135760405162461bcd60e51b81526020600482015260146024820152732cb0b5a9ba3930ba32b3bc9d1d37b7363ca232bb60611b6044820152606401610a2a565b6000805b600d5481101561156a57600d8181548110611534576115346143b2565b6000918252602090912001546001600160a01b039081169084160361155857600191505b80611562816143c8565b915050611517565b5080156115df5760405162461bcd60e51b815260206004820152602860248201527f4261736553747261746567793a3a52657761726420616c726561647920636f6e60448201527f66696775726564210000000000000000000000000000000000000000000000006064820152608401610a2a565b600d80546001810182556000919091527fd7b6990105719101dabeb77144f2a3385c8033acd3af97e9423a695e81ad1eb50180546001600160a01b0319166001600160a01b0384169081179091556040519081527f1714865bf5baa84e3439536a013c87cfe030b4cd69f344a5f2a4877de3d517ce90602001611338565b6007546001600160a01b031633146116ae5760405162461bcd60e51b81526020600482015260146024820152732cb0b5a9ba3930ba32b3bc9d1d37b7363ca232bb60611b6044820152606401610a2a565b6000805b600d5481101561177e57600d81815481106116cf576116cf6143b2565b6000918252602090912001546001600160a01b039081169084160361176c57600d805460019350611701908490614348565b81548110611711576117116143b2565b600091825260209091200154600d80546001600160a01b03909216918390811061173d5761173d6143b2565b9060005260206000200160006101000a8154816001600160a01b0302191690836001600160a01b031602179055505b80611776816143c8565b9150506116b2565b50806117f15760405162461bcd60e51b8152602060048201526024808201527f4261736553747261746567793a3a526577617264206e6f7420636f6e6669677560448201527f72656421000000000000000000000000000000000000000000000000000000006064820152608401610a2a565b600d805480611802576118026143e1565b6000828152602090819020600019908301810180546001600160a01b03191690559091019091556040516001600160a01b03841681527f963b7c735475147a62c589c2d7cb8ec4b0a6b7af4f97373d79ebfa42ab8aa7dc9101611338565b6007546001600160a01b031633146118b15760405162461bcd60e51b81526020600482015260146024820152732cb0b5a9ba3930ba32b3bc9d1d37b7363ca232bb60611b6044820152606401610a2a565b612710600c54826118c2919061439a565b11156118cd57600080fd5b600b5460408051918252602082018390527fe7f97d51d307dc44045597c9978bec0f842e6bb40d19b9444084cfa30d9ed4f2910160405180910390a1600b55565b60006108c83384846123e2565b6007546001600160a01b0316331461196c5760405162461bcd60e51b81526020600482015260146024820152732cb0b5a9ba3930ba32b3bc9d1d37b7363ca232bb60611b6044820152606401610a2a565b600a5460ff1661197b57600080fd5b600a805460ff19169055604051600081527f7b014ed3854e7f5cb0218d58b3c6ae7d53a68bb0af2f67bfb029ea42c38a7e8590602001610c53565b6119c033826126dc565b50565b6000806119ce611a02565b905060095481106119fa57612710600b54826119ea91906143f7565b6119f49190614416565b91505090565b600091505090565b600080611a0d612989565b6040516370a0823160e01b81523060048201529091506000906001600160a01b037f000000000000000000000000000000000000000000000000000000000000000016906370a0823190602401602060405180830381865afa158015611a77573d6000803e3d6000fd5b505050506040513d601f19601f82011682018060405250810190611a9b919061435f565b905060005b8251811015611d50576000838281518110611abd57611abd6143b2565b60200260200101516000015190507f00000000000000000000000000000000000000000000000000000000000000006001600160a01b0316816001600160a01b031603611b335747848381518110611b1757611b176143b2565b6020026020010151602001818151611b2f919061439a565b9052505b7f00000000000000000000000000000000000000000000000000000000000000006001600160a01b0316816001600160a01b031603611b9c57838281518110611b7e57611b7e6143b2565b60200260200101516020015183611b95919061439a565b9250611d3d565b6001600160a01b03811615611d3d576040516370a0823160e01b81523060048201526000906001600160a01b038316906370a0823190602401602060405180830381865afa158015611bf2573d6000803e3d6000fd5b505050506040513d601f19601f82011682018060405250810190611c16919061435f565b90506000858481518110611c2c57611c2c6143b2565b60200260200101516020015182611c43919061439a565b90508015611d3a57600e546040516377ccc49d60e11b8152600481018390526001600160a01b0385811660248301527f000000000000000000000000000000000000000000000000000000000000000081166044830152600092169063ef99893a90606401600060405180830381865afa158015611cc5573d6000803e3d6000fd5b505050506040513d6000823e601f3d908101601f19168201604052611ced919081019061459b565b9050600181600001515111611d03576000611d2c565b80518051611d1390600190614348565b81518110611d2357611d236143b2565b60200260200101515b611d36908761439a565b9550505b50505b5080611d48816143c8565b915050611aa0565b5092915050565b6007546001600160a01b03163314611da85760405162461bcd60e51b81526020600482015260146024820152732cb0b5a9ba3930ba32b3bc9d1d37b7363ca232bb60611b6044820152606401610a2a565b600e54604080516001600160a01b03928316815291831660208301527f2c6fb4d5ff9fad6ecf2e09cd64cbc9aad92a8b9d2cc0e5c3ddef9b529b0b5ffd910160405180910390a1600e80546001600160a01b0319166001600160a01b0392909216919091179055565b6006546001600160a01b03163314611e6b5760405162461bcd60e51b815260206004820181905260248201527f4f776e61626c653a2063616c6c6572206973206e6f7420746865206f776e65726044820152606401610a2a565b600854604080516001600160a01b03928316815291831660208301527fcc882185e6edeeb762130016ea1faf3d7aa9c01b199bfd646f965b58ab741063910160405180910390a1600880546001600160a01b0319166001600160a01b0392909216919091179055565b42841015611f245760405162461bcd60e51b815260206004820152600f60248201527f7065726d69743a3a6578706972656400000000000000000000000000000000006044820152606401610a2a565b6001600160a01b038716600090815260056020526040812080547f6e71edae12b1b97f4d1f60370fef10105fa2faae0126114a169c64845d6126c9918a918a918a919086611f71836143c8565b909155506040805160208101969096526001600160a01b0394851690860152929091166060840152608083015260a082015260c0810186905260e001604051602081830303815290604052805190602001209050611fd28882868686612c15565b611fdd8888886122ba565b5050505050505050565b600080611ff2611121565b600254909150801580612003575081155b1561201057509192915050565b8161201b82866143f7565b6120259190614416565b949350505050565b600d818154811061203d57600080fd5b6000918252602090912001546001600160a01b0316905081565b600080612062611121565b600254909150801580612073575081155b15612082575060009392505050565b8061201b83866143f7565b60007f8b73c3c69bb8fe3d512ecc4cf759cc79239f7b179b0ffacaa9a75d522b39400f60001b60006040516120c2919061465d565b6040519081900390207fc89efdaa54c0f20c7adf612882df0950f5a951637e0307cdcb4c672f298b8bc646604080516020810195909552840192909252606083015260808201523060a082015260c00160405160208183030381529060405280519060200120905090565b6006546001600160a01b031633146121875760405162461bcd60e51b815260206004820181905260248201527f4f776e61626c653a2063616c6c6572206973206e6f7420746865206f776e65726044820152606401610a2a565b6001600160a01b0381166122035760405162461bcd60e51b815260206004820152602660248201527f4f776e61626c653a206e6577206f776e657220697320746865207a65726f206160448201527f64647265737300000000000000000000000000000000000000000000000000006064820152608401610a2a565b6006546040516001600160a01b038084169216907f8be0079c531659141344cd1fd0a4f28419497f9722a3daafe3b4186f6b6457e090600090a3600680546001600160a01b0319166001600160a01b0392909216919091179055565b3233146122ae5760405162461bcd60e51b815260206004820152601460248201527f59616b53747261746567793a3a6f6e6c79454f410000000000000000000000006044820152606401610a2a565b6122b86000612d75565b565b6001600160a01b0383166123105760405162461bcd60e51b815260206004820152601c60248201527f5f617070726f76653a3a6f776e6572207a65726f2061646472657373000000006044820152606401610a2a565b6001600160a01b0382166123665760405162461bcd60e51b815260206004820152601e60248201527f5f617070726f76653a3a7370656e646572207a65726f206164647265737300006044820152606401610a2a565b6001600160a01b0383811660008181526003602090815260408083209487168084529482529182902085905590518481527f8c5be1e5ebec7d5bd14f71427d1e84f3dd0314c0f7b2291e5b200ac8c7c3b92591015b60405180910390a3505050565b6000806127106123d882856143f7565b6109a49190614416565b6001600160a01b03821661245e5760405162461bcd60e51b815260206004820152603460248201527f5f7472616e73666572546f6b656e733a2063616e6e6f74207472616e7366657260448201527f20746f20746865207a65726f20616464726573730000000000000000000000006064820152608401610a2a565b6001600160a01b038316600090815260046020526040902054612482908290614348565b6001600160a01b0380851660009081526004602052604080822093909355908416815220546124b290829061439a565b6001600160a01b0380841660008181526004602052604090819020939093559151908516907fddf252ad1be2c89b69c2b068fc378daa952ba7f163c4a11628f55a4df523b3ef906123bb9085815260200190565b6040517f441a3e700000000000000000000000000000000000000000000000000000000081527f00000000000000000000000000000000000000000000000000000000000000006004820152602481018290526000907f00000000000000000000000000000000000000000000000000000000000000006001600160a01b03169063441a3e7090604401600060405180830381600087803b1580156125aa57600080fd5b505af11580156125be573d6000803e3d6000fd5b5093949350505050565b604080516001600160a01b038416602482015260448082018490528251808303909101815260649091019091526020810180517bffffffffffffffffffffffffffffffffffffffffffffffffffffffff167fa9059cbb00000000000000000000000000000000000000000000000000000000179052610ed9908490612ed5565b6001600160a01b03821660009081526004602052604090205461266c908290614348565b6001600160a01b038316600090815260046020526040902055600254612693908290614348565b6002556040518181526000906001600160a01b038416907fddf252ad1be2c89b69c2b068fc378daa952ba7f163c4a11628f55a4df523b3ef906020015b60405180910390a35050565b600a5460ff1615156001146127335760405162461bcd60e51b815260206004820152601f60248201527f4261736553747261746567793a3a4465706f736974732064697361626c6564006044820152606401610a2a565b61273d6001612d75565b6040517f23b872dd000000000000000000000000000000000000000000000000000000008152336004820152306024820152604481018290527f00000000000000000000000000000000000000000000000000000000000000006001600160a01b0316906323b872dd906064016020604051808303816000875af11580156127c9573d6000803e3d6000fd5b505050506040513d601f19601f820116820180604052508101906127ed9190614378565b61285f5760405162461bcd60e51b815260206004820152602b60248201527f4261736553747261746567793a3a4465706f73697420746f6b656e207472616e60448201527f73666572206661696c65640000000000000000000000000000000000000000006064820152608401610a2a565b600061286a826123c8565b90506128828361287d6107578486614348565b612fba565b61288c8282613090565b826001600160a01b03167fe1fffcc4923d04b559f4d29a8bfc6cda04eb5b0d3c460751c2402c5c5cc9109c836040516128c791815260200190565b60405180910390a2505050565b6040517f5312ea8e0000000000000000000000000000000000000000000000000000000081527f000000000000000000000000000000000000000000000000000000000000000060048201527f00000000000000000000000000000000000000000000000000000000000000006001600160a01b031690635312ea8e906024015b600060405180830381600087803b15801561296f57600080fd5b505af1158015612983573d6000803e3d6000fd5b50505050565b60408051600180825281830190925260609160009190602080830190803683370190505090507f0000000000000000000000000000000000000000000000000000000000000000816000815181106129e3576129e36143b2565b60200260200101818152505060008060007f00000000000000000000000000000000000000000000000000000000000000006001600160a01b031663566aff6a30866040518363ffffffff1660e01b8152600401612a42929190614733565b600060405180830381865afa158015612a5f573d6000803e3d6000fd5b505050506040513d6000823e601f3d908101601f19168201604052612a879190810190614755565b925092509250600082516001612a9d919061439a565b67ffffffffffffffff811115612ab557612ab5614438565b604051908082528060200260200182016040528015612afa57816020015b6040805180820190915260008082526020820152815260200190600190039081612ad35790505b50905060405180604001604052807f00000000000000000000000000000000000000000000000000000000000000006001600160a01b0316815260200185600081518110612b4a57612b4a6143b2565b602002602001015181525081600081518110612b6857612b686143b2565b602002602001018190525060005b8351811015612c0b576040518060400160405280858381518110612b9c57612b9c6143b2565b60200260200101516001600160a01b03168152602001848381518110612bc457612bc46143b2565b602002602001015181525082826001612bdd919061439a565b81518110612bed57612bed6143b2565b60200260200101819052508080612c03906143c8565b915050612b76565b5095945050505050565b6000612c1f61208d565b6040517f1901000000000000000000000000000000000000000000000000000000000000602082015260228101919091526042810186905260620160408051601f198184030181528282528051602091820120600080855291840180845281905260ff88169284019290925260608301869052608083018590529092509060019060a0016020604051602081039080840390855afa158015612cc5573d6000803e3d6000fd5b5050604051601f1901519150506001600160a01b03811615801590612cfb5750866001600160a01b0316816001600160a01b0316145b612d6c5760405162461bcd60e51b8152602060048201526024808201527f417263683a3a76616c69646174655369673a20696e76616c6964207369676e6160448201527f74757265000000000000000000000000000000000000000000000000000000006064820152608401610a2a565b50505050505050565b6000612d7f613110565b9050600954811115612e94576000612710600c5483612d9e91906143f7565b612da89190614416565b90508015612dea57600854612dea906001600160a01b037f000000000000000000000000000000000000000000000000000000000000000081169116836125c8565b600083612e1157612710600b5484612e0291906143f7565b612e0c9190614416565b612e14565b60005b90508015612e5057612e506001600160a01b037f00000000000000000000000000000000000000000000000000000000000000001633836125c8565b6000612e6f82612e608587614348565b612e6a9190614348565b613482565b90508015612e90576000612e82826123c8565b9050612e8e8282613090565b505b5050505b7fc7606d21ac05cd309191543e409f0845c016120563783d70e4f41419dc0ef234612ebd611121565b60025460408051928352602083019190915201611338565b6000612f2a826040518060400160405280602081526020017f5361666545524332303a206c6f772d6c6576656c2063616c6c206661696c6564815250856001600160a01b0316613a229092919063ffffffff16565b805190915015610ed95780806020019051810190612f489190614378565b610ed95760405162461bcd60e51b815260206004820152602a60248201527f5361666545524332303a204552433230206f7065726174696f6e20646964206e60448201527f6f742073756363656564000000000000000000000000000000000000000000006064820152608401610a2a565b6000811161300a5760405162461bcd60e51b815260206004820152601260248201527f5f6d696e743a3a7a65726f2073686172657300000000000000000000000000006044820152606401610a2a565b80600254613018919061439a565b6002556001600160a01b03821660009081526004602052604090205461303f90829061439a565b6001600160a01b0383166000818152600460205260408082209390935591519091907fddf252ad1be2c89b69c2b068fc378daa952ba7f163c4a11628f55a4df523b3ef906126d09085815260200190565b600082116131065760405162461bcd60e51b815260206004820152602260248201527f4261736553747261746567793a3a5374616b6520616d6f756e7420746f6f206c60448201527f6f770000000000000000000000000000000000000000000000000000000000006064820152608401610a2a565b610adb8282613a31565b600061311a613b89565b6040516370a0823160e01b81523060048201526000907f00000000000000000000000000000000000000000000000000000000000000006001600160a01b0316906370a0823190602401602060405180830381865afa158015613181573d6000803e3d6000fd5b505050506040513d601f19601f820116820180604052508101906131a5919061435f565b600d5490915060005b8181101561347a576000600d82815481106131cb576131cb6143b2565b6000918252602090912001546001600160a01b0390811691507f00000000000000000000000000000000000000000000000000000000000000001681036132f657478015613288577f00000000000000000000000000000000000000000000000000000000000000006001600160a01b031663d0e30db0826040518263ffffffff1660e01b81526004016000604051808303818588803b15801561326e57600080fd5b505af1158015613282573d6000803e3d6000fd5b50505050505b7f00000000000000000000000000000000000000000000000000000000000000006001600160a01b03167f00000000000000000000000000000000000000000000000000000000000000006001600160a01b0316036132f4576132eb818661439a565b94505050613468565b505b6040516370a0823160e01b81523060048201526000906001600160a01b038316906370a0823190602401602060405180830381865afa15801561333d573d6000803e3d6000fd5b505050506040513d601f19601f82011682018060405250810190613361919061435f565b90506000811180156133a557507f00000000000000000000000000000000000000000000000000000000000000006001600160a01b0316826001600160a01b031614155b1561346557600e546040516377ccc49d60e11b8152600481018390526001600160a01b0384811660248301527f000000000000000000000000000000000000000000000000000000000000000081166044830152600092169063ef99893a90606401600060405180830381865afa158015613424573d6000803e3d6000fd5b505050506040513d6000823e601f3d908101601f1916820160405261344c919081019061459b565b905061345781613bfc565b613461908761439a565b9550505b50505b80613472816143c8565b9150506131ae565b509092915050565b600061348f600283614416565b91507f00000000000000000000000000000000000000000000000000000000000000006001600160a01b03167f00000000000000000000000000000000000000000000000000000000000000006001600160a01b0316146136bc57600e546040516377ccc49d60e11b8152600481018490526001600160a01b037f0000000000000000000000000000000000000000000000000000000000000000811660248301527f000000000000000000000000000000000000000000000000000000000000000081166044830152600092169063ef99893a90606401600060405180830381865afa158015613584573d6000803e3d6000fd5b505050506040513d6000823e601f3d908101601f191682016040526135ac919081019061459b565b600e5460405163095ea7b360e01b81526001600160a01b039182166004820152602481018690529192507f0000000000000000000000000000000000000000000000000000000000000000169063095ea7b3906044016020604051808303816000875af1158015613621573d6000803e3d6000fd5b505050506040513d601f19601f820116820180604052508101906136459190614378565b50600e54604051632d92330b60e11b81526001600160a01b0390911690635b24661690613676908490600401614816565b6020604051808303816000875af1158015613695573d6000803e3d6000fd5b505050506040513d601f19601f820116820180604052508101906136b9919061435f565b50505b7f00000000000000000000000000000000000000000000000000000000000000006001600160a01b03167f00000000000000000000000000000000000000000000000000000000000000006001600160a01b0316146138e757600e546040516377ccc49d60e11b8152600481018490526001600160a01b037f0000000000000000000000000000000000000000000000000000000000000000811660248301527f000000000000000000000000000000000000000000000000000000000000000081166044830152600092169063ef99893a90606401600060405180830381865afa1580156137af573d6000803e3d6000fd5b505050506040513d6000823e601f3d908101601f191682016040526137d7919081019061459b565b600e5460405163095ea7b360e01b81526001600160a01b039182166004820152602481018690529192507f0000000000000000000000000000000000000000000000000000000000000000169063095ea7b3906044016020604051808303816000875af115801561384c573d6000803e3d6000fd5b505050506040513d601f19601f820116820180604052508101906138709190614378565b50600e54604051632d92330b60e11b81526001600160a01b0390911690635b246616906138a1908490600401614816565b6020604051808303816000875af11580156138c0573d6000803e3d6000fd5b505050506040513d601f19601f820116820180604052508101906138e4919061435f565b50505b6040516370a0823160e01b81523060048201526108dc907f0000000000000000000000000000000000000000000000000000000000000000906001600160a01b037f000000000000000000000000000000000000000000000000000000000000000016906370a0823190602401602060405180830381865afa158015613971573d6000803e3d6000fd5b505050506040513d601f19601f82011682018060405250810190613995919061435f565b6040516370a0823160e01b81523060048201527f00000000000000000000000000000000000000000000000000000000000000006001600160a01b0316906370a0823190602401602060405180830381865afa1580156139f9573d6000803e3d6000fd5b505050506040513d601f19601f82011682018060405250810190613a1d919061435f565b613d90565b60606120258484600085613f5a565b60405163095ea7b360e01b81526001600160a01b037f000000000000000000000000000000000000000000000000000000000000000081166004830152602482018490527f0000000000000000000000000000000000000000000000000000000000000000169063095ea7b3906044016020604051808303816000875af1158015613ac0573d6000803e3d6000fd5b505050506040513d601f19601f82011682018060405250810190613ae49190614378565b50604051631c57762b60e31b81527f00000000000000000000000000000000000000000000000000000000000000006004820152602481018390527f00000000000000000000000000000000000000000000000000000000000000006001600160a01b03169063e2bbb15890604401600060405180830381600087803b158015613b6d57600080fd5b505af1158015613b81573d6000803e3d6000fd5b505050505050565b604051631c57762b60e31b81527f00000000000000000000000000000000000000000000000000000000000000006004820152600060248201527f00000000000000000000000000000000000000000000000000000000000000006001600160a01b03169063e2bbb15890604401612955565b80515160009015801590613c3957508151805160009190613c1f90600190614348565b81518110613c2f57613c2f6143b2565b6020026020010151115b15613d88578160400151600081518110613c5557613c556143b2565b60200260200101516001600160a01b031663095ea7b3600e60009054906101000a90046001600160a01b03168460000151600081518110613c9857613c986143b2565b60200260200101516040518363ffffffff1660e01b8152600401613cd19291906001600160a01b03929092168252602082015260400190565b6020604051808303816000875af1158015613cf0573d6000803e3d6000fd5b505050506040513d601f19601f82011682018060405250810190613d149190614378565b50600e54604051632d92330b60e11b81526001600160a01b0390911690635b24661690613d45908590600401614816565b6020604051808303816000875af1158015613d64573d6000803e3d6000fd5b505050506040513d601f19601f820116820180604052508101906108dc919061435f565b506000919050565b6000806000856001600160a01b0316630902f1ac6040518163ffffffff1660e01b8152600401606060405180830381865afa158015613dd3573d6000803e3d6000fd5b505050506040513d601f19601f82011682018060405250810190613df791906148a3565b50915091506000613e2986846dffffffffffffffffffffffffffff16846dffffffffffffffffffffffffffff16614097565b905084811115613e6457849050613e6185836dffffffffffffffffffffffffffff16856dffffffffffffffffffffffffffff16614097565b95505b613e986001600160a01b037f00000000000000000000000000000000000000000000000000000000000000001688886125c8565b613ecc6001600160a01b037f00000000000000000000000000000000000000000000000000000000000000001688836125c8565b6040517f6a6278420000000000000000000000000000000000000000000000000000000081523060048201526001600160a01b03881690636a627842906024016020604051808303816000875af1158015613f2b573d6000803e3d6000fd5b505050506040513d601f19601f82011682018060405250810190613f4f919061435f565b979650505050505050565b606082471015613fd25760405162461bcd60e51b815260206004820152602660248201527f416464726573733a20696e73756666696369656e742062616c616e636520666f60448201527f722063616c6c00000000000000000000000000000000000000000000000000006064820152608401610a2a565b6001600160a01b0385163b6140295760405162461bcd60e51b815260206004820152601d60248201527f416464726573733a2063616c6c20746f206e6f6e2d636f6e74726163740000006044820152606401610a2a565b600080866001600160a01b0316858760405161404591906148f3565b60006040518083038185875af1925050503d8060008114614082576040519150601f19603f3d011682016040523d82523d6000602084013e614087565b606091505b5091509150613f4f8282866140a4565b60008261201b83866143f7565b606083156140b35750816109a4565b8251156140c35782518084602001fd5b8160405162461bcd60e51b8152600401610a2a9190614109565b60005b838110156140f85781810151838201526020016140e0565b838111156129835750506000910152565b60208152600082518060208401526141288160408501602087016140dd565b601f01601f19169190910160400192915050565b6001600160a01b03811681146119c057600080fd5b6000806040838503121561416457600080fd5b823561416f8161413c565b946020939093013593505050565b60006020828403121561418f57600080fd5b5035919050565b6000806000606084860312156141ab57600080fd5b83356141b68161413c565b925060208401356141c68161413c565b929592945050506040919091013590565b803560ff811681146141e857600080fd5b919050565b600080600080600060a0868803121561420557600080fd5b853594506020860135935061421c604087016141d7565b94979396509394606081013594506080013592915050565b60006020828403121561424657600080fd5b81356109a48161413c565b6000806040838503121561426457600080fd5b823561426f8161413c565b9150602083013561427f8161413c565b809150509250929050565b600080600080600080600060e0888a0312156142a557600080fd5b87356142b08161413c565b965060208801356142c08161413c565b955060408801359450606088013593506142dc608089016141d7565b925060a0880135915060c0880135905092959891949750929550565b600181811c9082168061430c57607f821691505b60208210810361432c57634e487b7160e01b600052602260045260246000fd5b50919050565b634e487b7160e01b600052601160045260246000fd5b60008282101561435a5761435a614332565b500390565b60006020828403121561437157600080fd5b5051919050565b60006020828403121561438a57600080fd5b815180151581146109a457600080fd5b600082198211156143ad576143ad614332565b500190565b634e487b7160e01b600052603260045260246000fd5b6000600182016143da576143da614332565b5060010190565b634e487b7160e01b600052603160045260246000fd5b600081600019048311821515161561441157614411614332565b500290565b60008261443357634e487b7160e01b600052601260045260246000fd5b500490565b634e487b7160e01b600052604160045260246000fd5b6040516080810167ffffffffffffffff8111828210171561447157614471614438565b60405290565b604051601f8201601f1916810167ffffffffffffffff811182821017156144a0576144a0614438565b604052919050565b600067ffffffffffffffff8211156144c2576144c2614438565b5060051b60200190565b600082601f8301126144dd57600080fd5b815160206144f26144ed836144a8565b614477565b82815260059290921b8401810191818101908684111561451157600080fd5b8286015b8481101561452c5780518352918301918301614515565b509695505050505050565b600082601f83011261454857600080fd5b815160206145586144ed836144a8565b82815260059290921b8401810191818101908684111561457757600080fd5b8286015b8481101561452c57805161458e8161413c565b835291830191830161457b565b6000602082840312156145ad57600080fd5b815167ffffffffffffffff808211156145c557600080fd5b90830190608082860312156145d957600080fd5b6145e161444e565b8251828111156145f057600080fd5b6145fc878286016144cc565b82525060208301518281111561461157600080fd5b61461d87828601614537565b60208301525060408301518281111561463557600080fd5b61464187828601614537565b6040830152506060830151606082015280935050505092915050565b600080835481600182811c91508083168061467957607f831692505b6020808410820361469857634e487b7160e01b86526022600452602486fd5b8180156146ac57600181146146bd576146ea565b60ff198616895284890196506146ea565b60008a81526020902060005b868110156146e25781548b8201529085019083016146c9565b505084890196505b509498975050505050505050565b600081518084526020808501945080840160005b838110156147285781518752958201959082019060010161470c565b509495945050505050565b6001600160a01b038316815260406020820152600061202560408301846146f8565b60008060006060848603121561476a57600080fd5b835167ffffffffffffffff8082111561478257600080fd5b61478e878388016144cc565b945060208601519150808211156147a457600080fd5b6147b087838801614537565b935060408601519150808211156147c657600080fd5b506147d3868287016144cc565b9150509250925092565b600081518084526020808501945080840160005b838110156147285781516001600160a01b0316875295820195908201906001016147f1565b60208152600082516080602084015261483260a08401826146f8565b90506020840151601f198085840301604086015261485083836147dd565b925060408601519150808584030160608601525061486e82826147dd565b915050606084015160808401528091505092915050565b80516dffffffffffffffffffffffffffff811681146141e857600080fd5b6000806000606084860312156148b857600080fd5b6148c184614885565b92506148cf60208501614885565b9150604084015163ffffffff811681146148e857600080fd5b809150509250925092565b600082516149058184602087016140dd565b919091019291505056fea264697066735822122034d06ff20550524eaa3d603608ee57781a50d4733c52b84b8f5fdff8b4282edd64736f6c634300080d00334f776e61626c653a2063616c6c6572206973206e6f7420746865206f776e65728be0079c531659141344cd1fd0a4f28419497f9722a3daafe3b4186f6b6457e0",
  "devdoc": {
    "kind": "dev",
    "methods": {
      "allowance(address,address)": {
        "params": {
          "account": "The address of the account holding the funds",
          "spender": "The address of the account spending the funds"
        },
        "returns": {
          "_0": "The number of tokens approved"
        }
      },
      "approve(address,uint256)": {
        "details": "This will overwrite the approval amount for `spender` and is subject to issues noted [here](https://eips.ethereum.org/EIPS/eip-20#approve) It is recommended to use increaseAllowance and decreaseAllowance instead",
        "params": {
          "amount": "The number of tokens that are approved (2^256-1 means infinite)",
          "spender": "The address of the account which may transfer tokens"
        },
        "returns": {
          "_0": "Whether or not the approval succeeded"
        }
      },
      "balanceOf(address)": {
        "params": {
          "account": "The address of the account to get the balance of"
        },
        "returns": {
          "_0": "The number of tokens held"
        }
      },
      "checkReward()": {
        "returns": {
          "_0": "reward tokens"
        }
      },
      "deposit(uint256)": {
        "params": {
          "_amount": "Amount of tokens to deposit"
        }
      },
      "depositWithPermit(uint256,uint256,uint8,bytes32,bytes32)": {
        "params": {
          "_amount": "Amount of tokens to deposit",
          "_deadline": "The time at which to expire the signature",
          "_r": "Half of the ECDSA signature pair",
          "_s": "Half of the ECDSA signature pair",
          "_v": "The recovery byte of the signature"
        }
      },
      "estimateReinvestReward()": {
        "returns": {
          "_0": "reward tokens"
        }
      },
      "getDepositTokensForShares(uint256)": {
        "params": {
          "amount": "receipt tokens"
        },
        "returns": {
          "_0": "deposit tokens"
        }
      },
      "getDomainSeparator()": {
        "returns": {
          "_0": "Separator"
        }
      },
      "getSharesForDepositTokens(uint256)": {
        "details": "If contract is empty, use 1:1 ratioCould return zero shares for very low amounts of deposit tokens",
        "params": {
          "amount": "deposit tokens"
        },
        "returns": {
          "_0": "receipt tokens"
        }
      },
      "owner()": {
        "details": "Returns the address of the current owner."
      },
      "permit(address,address,uint256,uint256,uint8,bytes32,bytes32)": {
        "params": {
          "deadline": "The time at which to expire the signature",
          "owner": "The address to approve from",
          "r": "Half of the ECDSA signature pair",
          "s": "Half of the ECDSA signature pair",
          "spender": "The address to be approved",
          "v": "The recovery byte of the signature",
          "value": "The number of tokens that are approved (2^256-1 means infinite)"
        }
      },
      "recoverERC20(address,uint256)": {
        "params": {
          "tokenAddress": "token address",
          "tokenAmount": "amount to recover"
        }
      },
      "recoverGas(uint256)": {
        "params": {
          "amount": "amount"
        }
      },
      "renounceOwnership()": {
        "details": "Leaves the contract without owner. It will not be possible to call `onlyOwner` functions anymore. Can only be called by the current owner. NOTE: Renouncing ownership will leave the contract without an owner, thereby removing any functionality that is only available to the owner."
      },
      "revokeAllowance(address,address)": {
        "params": {
          "spender": "address",
          "token": "address"
        }
      },
      "totalDeposits()": {
        "returns": {
          "_0": "total deposits available on the contract"
        }
      },
      "transfer(address,uint256)": {
        "params": {
          "amount": "The number of tokens to transfer",
          "dst": "The address of the destination account"
        },
        "returns": {
          "_0": "Whether or not the transfer succeeded"
        }
      },
      "transferFrom(address,address,uint256)": {
        "params": {
          "amount": "The number of tokens to transfer",
          "dst": "The address of the destination account",
          "src": "The address of the source account"
        },
        "returns": {
          "_0": "Whether or not the transfer succeeded"
        }
      },
      "transferOwnership(address)": {
        "details": "Transfers ownership of the contract to a new account (`newOwner`). Can only be called by the current owner."
      },
      "updateDevAddr(address)": {
        "params": {
          "newValue": "address"
        }
      },
      "updateDevFee(uint256)": {
        "params": {
          "newValue": "fee in BIPS"
        }
      },
      "updateFeeCollector(address)": {
        "params": {
          "newValue": "address"
        }
      },
      "updateMinTokensToReinvest(uint256)": {
        "params": {
          "newValue": "threshold"
        }
      },
      "updateReinvestReward(uint256)": {
        "params": {
          "newValue": "fee in BIPS"
        }
      }
    },
    "version": 1
  },
  "userdoc": {
    "kind": "user",
    "methods": {
      "allowance(address,address)": {
        "notice": "Get the number of tokens `spender` is approved to spend on behalf of `account`"
      },
      "approve(address,uint256)": {
        "notice": "Approve `spender` to transfer up to `amount` from `src`"
      },
      "balanceOf(address)": {
        "notice": "Get the number of tokens held by the `account`"
      },
      "checkReward()": {
        "notice": "Reward tokens available to strategy, including balance"
      },
      "deposit(uint256)": {
        "notice": "Deposit tokens to receive receipt tokens"
      },
      "depositWithPermit(uint256,uint256,uint8,bytes32,bytes32)": {
        "notice": "Deposit using Permit"
      },
      "disableDeposits()": {
        "notice": "Disable deposits"
      },
      "enableDeposits()": {
        "notice": "Enable deposits"
      },
      "estimateReinvestReward()": {
        "notice": "Estimate reinvest reward"
      },
      "getDepositTokensForShares(uint256)": {
        "notice": "Calculate deposit tokens for a given amount of receipt tokens"
      },
      "getDomainSeparator()": {
        "notice": "EIP-712 Domain separator"
      },
      "getSharesForDepositTokens(uint256)": {
        "notice": "Calculate receipt tokens for a given amount of deposit tokens"
      },
      "permit(address,address,uint256,uint256,uint8,bytes32,bytes32)": {
        "notice": "Triggers an approval from owner to spender"
      },
      "recoverERC20(address,uint256)": {
        "notice": "Recover ERC20 from contract"
      },
      "recoverGas(uint256)": {
        "notice": "Recover GAS from contract"
      },
      "reinvest()": {
        "notice": "Reinvest reward tokens into deposit tokens"
      },
      "revokeAllowance(address,address)": {
        "notice": "Revoke token allowance"
      },
      "totalDeposits()": {
        "notice": "This function returns a snapshot of last available quotes"
      },
      "transfer(address,uint256)": {
        "notice": "Transfer `amount` tokens from `msg.sender` to `dst`"
      },
      "transferFrom(address,address,uint256)": {
        "notice": "Transfer `amount` tokens from `src` to `dst`"
      },
      "updateDevAddr(address)": {
        "notice": "Update devAddr"
      },
      "updateDevFee(uint256)": {
        "notice": "Update developer fee"
      },
      "updateFeeCollector(address)": {
        "notice": "Update feeCollector"
      },
      "updateMinTokensToReinvest(uint256)": {
        "notice": "Update reinvest min threshold"
      },
      "updateReinvestReward(uint256)": {
        "notice": "Update reinvest reward"
      }
    },
    "version": 1
  },
  "storageLayout": {
    "storage": [
      {
        "astId": 5,
        "contract": "contracts/strategies/mantle/moe/MoeStrategy.sol:MoeStrategy",
        "label": "name",
        "offset": 0,
        "slot": "0",
        "type": "t_string_storage"
      },
      {
        "astId": 8,
        "contract": "contracts/strategies/mantle/moe/MoeStrategy.sol:MoeStrategy",
        "label": "symbol",
        "offset": 0,
        "slot": "1",
        "type": "t_string_storage"
      },
      {
        "astId": 13,
        "contract": "contracts/strategies/mantle/moe/MoeStrategy.sol:MoeStrategy",
        "label": "totalSupply",
        "offset": 0,
        "slot": "2",
        "type": "t_uint256"
      },
      {
        "astId": 19,
        "contract": "contracts/strategies/mantle/moe/MoeStrategy.sol:MoeStrategy",
        "label": "allowances",
        "offset": 0,
        "slot": "3",
        "type": "t_mapping(t_address,t_mapping(t_address,t_uint256))"
      },
      {
        "astId": 23,
        "contract": "contracts/strategies/mantle/moe/MoeStrategy.sol:MoeStrategy",
        "label": "balances",
        "offset": 0,
        "slot": "4",
        "type": "t_mapping(t_address,t_uint256)"
      },
      {
        "astId": 39,
        "contract": "contracts/strategies/mantle/moe/MoeStrategy.sol:MoeStrategy",
        "label": "nonces",
        "offset": 0,
        "slot": "5",
        "type": "t_mapping(t_address,t_uint256)"
      },
      {
        "astId": 1646,
        "contract": "contracts/strategies/mantle/moe/MoeStrategy.sol:MoeStrategy",
        "label": "_owner",
        "offset": 0,
        "slot": "6",
        "type": "t_address"
      },
      {
        "astId": 552,
        "contract": "contracts/strategies/mantle/moe/MoeStrategy.sol:MoeStrategy",
        "label": "devAddr",
        "offset": 0,
        "slot": "7",
        "type": "t_address"
      },
      {
        "astId": 554,
        "contract": "contracts/strategies/mantle/moe/MoeStrategy.sol:MoeStrategy",
        "label": "feeCollector",
        "offset": 0,
        "slot": "8",
        "type": "t_address"
      },
      {
        "astId": 556,
        "contract": "contracts/strategies/mantle/moe/MoeStrategy.sol:MoeStrategy",
        "label": "MIN_TOKENS_TO_REINVEST",
        "offset": 0,
        "slot": "9",
        "type": "t_uint256"
      },
      {
        "astId": 558,
        "contract": "contracts/strategies/mantle/moe/MoeStrategy.sol:MoeStrategy",
        "label": "DEPOSITS_ENABLED",
        "offset": 0,
        "slot": "10",
        "type": "t_bool"
      },
      {
        "astId": 560,
        "contract": "contracts/strategies/mantle/moe/MoeStrategy.sol:MoeStrategy",
        "label": "REINVEST_REWARD_BIPS",
        "offset": 0,
        "slot": "11",
        "type": "t_uint256"
      },
      {
        "astId": 562,
        "contract": "contracts/strategies/mantle/moe/MoeStrategy.sol:MoeStrategy",
        "label": "DEV_FEE_BIPS",
        "offset": 0,
        "slot": "12",
        "type": "t_uint256"
      },
      {
        "astId": 2348,
        "contract": "contracts/strategies/mantle/moe/MoeStrategy.sol:MoeStrategy",
        "label": "supportedRewards",
        "offset": 0,
        "slot": "13",
        "type": "t_array(t_address)dyn_storage"
      },
      {
        "astId": 2351,
        "contract": "contracts/strategies/mantle/moe/MoeStrategy.sol:MoeStrategy",
        "label": "simpleRouter",
        "offset": 0,
        "slot": "14",
        "type": "t_contract(ISimpleRouter)1303"
      }
    ],
    "types": {
      "t_address": {
        "encoding": "inplace",
        "label": "address",
        "numberOfBytes": "20"
      },
      "t_array(t_address)dyn_storage": {
        "base": "t_address",
        "encoding": "dynamic_array",
        "label": "address[]",
        "numberOfBytes": "32"
      },
      "t_bool": {
        "encoding": "inplace",
        "label": "bool",
        "numberOfBytes": "1"
      },
      "t_contract(ISimpleRouter)1303": {
        "encoding": "inplace",
        "label": "contract ISimpleRouter",
        "numberOfBytes": "20"
      },
      "t_mapping(t_address,t_mapping(t_address,t_uint256))": {
        "encoding": "mapping",
        "key": "t_address",
        "label": "mapping(address => mapping(address => uint256))",
        "numberOfBytes": "32",
        "value": "t_mapping(t_address,t_uint256)"
      },
      "t_mapping(t_address,t_uint256)": {
        "encoding": "mapping",
        "key": "t_address",
        "label": "mapping(address => uint256)",
        "numberOfBytes": "32",
        "value": "t_uint256"
      },
      "t_string_storage": {
        "encoding": "bytes",
        "label": "string",
        "numberOfBytes": "32"
      },
      "t_uint256": {
        "encoding": "inplace",
        "label": "uint256",
        "numberOfBytes": "32"
      }
    }
  }
}