{
  "address": "0xbe248d56F3bf8faC50739421A4e1D56db04d67AF",
  "abi": [
    {
      "inputs": [
        {
          "internalType": "address",
          "name": "_moeStaking",
          "type": "address"
        },
        {
          "components": [
            {
              "internalType": "address",
              "name": "gasToken",
              "type": "address"
            },
            {
              "internalType": "address[]",
              "name": "rewards",
              "type": "address[]"
            },
            {
              "internalType": "address",
              "name": "simpleRouter",
              "type": "address"
            }
          ],
          "internalType": "struct BaseStrategy.BaseStrategySettings",
          "name": "_settings",
          "type": "tuple"
        },
        {
          "components": [
            {
              "internalType": "string",
              "name": "name",
              "type": "string"
            },
            {
              "internalType": "address",
              "name": "owner",
              "type": "address"
            },
            {
              "internalType": "address",
              "name": "dev",
              "type": "address"
            },
            {
              "internalType": "address",
              "name": "feeCollector",
              "type": "address"
            },
            {
              "internalType": "address",
              "name": "depositToken",
              "type": "address"
            },
            {
              "internalType": "address",
              "name": "rewardToken",
              "type": "address"
            },
            {
              "internalType": "uint256",
              "name": "minTokensToReinvest",
              "type": "uint256"
            },
            {
              "internalType": "uint256",
              "name": "devFeeBips",
              "type": "uint256"
            },
            {
              "internalType": "uint256",
              "name": "reinvestRewardBips",
              "type": "uint256"
            }
          ],
          "internalType": "struct YakStrategyV3.StrategySettings",
          "name": "_strategySettings",
          "type": "tuple"
        }
      ],
      "stateMutability": "nonpayable",
      "type": "constructor"
    },
    {
      "anonymous": false,
      "inputs": [
        {
          "indexed": false,
          "internalType": "address",
          "name": "rewardToken",
          "type": "address"
        }
      ],
      "name": "AddReward",
      "type": "event"
    },
    {
      "anonymous": false,
      "inputs": [
        {
          "indexed": true,
          "internalType": "address",
          "name": "owner",
          "type": "address"
        },
        {
          "indexed": true,
          "internalType": "address",
          "name": "spender",
          "type": "address"
        },
        {
          "indexed": false,
          "internalType": "uint256",
          "name": "value",
          "type": "uint256"
        }
      ],
      "name": "Approval",
      "type": "event"
    },
    {
      "anonymous": false,
      "inputs": [
        {
          "indexed": true,
          "internalType": "address",
          "name": "account",
          "type": "address"
        },
        {
          "indexed": false,
          "internalType": "uint256",
          "name": "amount",
          "type": "uint256"
        }
      ],
      "name": "Deposit",
      "type": "event"
    },
    {
      "anonymous": false,
      "inputs": [
        {
          "indexed": false,
          "internalType": "bool",
          "name": "newValue",
          "type": "bool"
        }
      ],
      "name": "DepositsEnabled",
      "type": "event"
    },
    {
      "anonymous": false,
      "inputs": [
        {
          "indexed": true,
          "internalType": "address",
          "name": "previousOwner",
          "type": "address"
        },
        {
          "indexed": true,
          "internalType": "address",
          "name": "newOwner",
          "type": "address"
        }
      ],
      "name": "OwnershipTransferred",
      "type": "event"
    },
    {
      "anonymous": false,
      "inputs": [
        {
          "indexed": false,
          "internalType": "address",
          "name": "token",
          "type": "address"
        },
        {
          "indexed": false,
          "internalType": "uint256",
          "name": "amount",
          "type": "uint256"
        }
      ],
      "name": "Recovered",
      "type": "event"
    },
    {
      "anonymous": false,
      "inputs": [
        {
          "indexed": false,
          "internalType": "uint256",
          "name": "newTotalDeposits",
          "type": "uint256"
        },
        {
          "indexed": false,
          "internalType": "uint256",
          "name": "newTotalSupply",
          "type": "uint256"
        }
      ],
      "name": "Reinvest",
      "type": "event"
    },
    {
      "anonymous": false,
      "inputs": [
        {
          "indexed": false,
          "internalType": "address",
          "name": "rewardToken",
          "type": "address"
        }
      ],
      "name": "RemoveReward",
      "type": "event"
    },
    {
      "anonymous": false,
      "inputs": [
        {
          "indexed": true,
          "internalType": "address",
          "name": "from",
          "type": "address"
        },
        {
          "indexed": true,
          "internalType": "address",
          "name": "to",
          "type": "address"
        },
        {
          "indexed": false,
          "internalType": "uint256",
          "name": "value",
          "type": "uint256"
        }
      ],
      "name": "Transfer",
      "type": "event"
    },
    {
      "anonymous": false,
      "inputs": [
        {
          "indexed": false,
          "internalType": "address",
          "name": "oldValue",
          "type": "address"
        },
        {
          "indexed": false,
          "internalType": "address",
          "name": "newValue",
          "type": "address"
        }
      ],
      "name": "UpdateDevAddr",
      "type": "event"
    },
    {
      "anonymous": false,
      "inputs": [
        {
          "indexed": false,
          "internalType": "uint256",
          "name": "oldValue",
          "type": "uint256"
        },
        {
          "indexed": false,
          "internalType": "uint256",
          "name": "newValue",
          "type": "uint256"
        }
      ],
      "name": "UpdateDevFee",
      "type": "event"
    },
    {
      "anonymous": false,
      "inputs": [
        {
          "indexed": false,
          "internalType": "address",
          "name": "oldValue",
          "type": "address"
        },
        {
          "indexed": false,
          "internalType": "address",
          "name": "newValue",
          "type": "address"
        }
      ],
      "name": "UpdateFeeCollector",
      "type": "event"
    },
    {
      "anonymous": false,
      "inputs": [
        {
          "indexed": false,
          "internalType": "uint256",
          "name": "oldValue",
          "type": "uint256"
        },
        {
          "indexed": false,
          "internalType": "uint256",
          "name": "newValue",
          "type": "uint256"
        }
      ],
      "name": "UpdateMaxTokensToDepositWithoutReinvest",
      "type": "event"
    },
    {
      "anonymous": false,
      "inputs": [
        {
          "indexed": false,
          "internalType": "uint256",
          "name": "oldValue",
          "type": "uint256"
        },
        {
          "indexed": false,
          "internalType": "uint256",
          "name": "newValue",
          "type": "uint256"
        }
      ],
      "name": "UpdateMinTokensToReinvest",
      "type": "event"
    },
    {
      "anonymous": false,
      "inputs": [
        {
          "indexed": false,
          "internalType": "uint256",
          "name": "oldValue",
          "type": "uint256"
        },
        {
          "indexed": false,
          "internalType": "uint256",
          "name": "newValue",
          "type": "uint256"
        }
      ],
      "name": "UpdateReinvestReward",
      "type": "event"
    },
    {
      "anonymous": false,
      "inputs": [
        {
          "indexed": false,
          "internalType": "address",
          "name": "oldRouter",
          "type": "address"
        },
        {
          "indexed": false,
          "internalType": "address",
          "name": "newRouter",
          "type": "address"
        }
      ],
      "name": "UpdateRouter",
      "type": "event"
    },
    {
      "anonymous": false,
      "inputs": [
        {
          "indexed": true,
          "internalType": "address",
          "name": "account",
          "type": "address"
        },
        {
          "indexed": false,
          "internalType": "uint256",
          "name": "amount",
          "type": "uint256"
        }
      ],
      "name": "Withdraw",
      "type": "event"
    },
    {
      "inputs": [],
      "name": "DEPOSITS_ENABLED",
      "outputs": [
        {
          "internalType": "bool",
          "name": "",
          "type": "bool"
        }
      ],
      "stateMutability": "view",
      "type": "function"
    },
    {
      "inputs": [],
      "name": "DEV_FEE_BIPS",
      "outputs": [
        {
          "internalType": "uint256",
          "name": "",
          "type": "uint256"
        }
      ],
      "stateMutability": "view",
      "type": "function"
    },
    {
      "inputs": [],
      "name": "DOMAIN_TYPEHASH",
      "outputs": [
        {
          "internalType": "bytes32",
          "name": "",
          "type": "bytes32"
        }
      ],
      "stateMutability": "view",
      "type": "function"
    },
    {
      "inputs": [],
      "name": "MIN_TOKENS_TO_REINVEST",
      "outputs": [
        {
          "internalType": "uint256",
          "name": "",
          "type": "uint256"
        }
      ],
      "stateMutability": "view",
      "type": "function"
    },
    {
      "inputs": [],
      "name": "PERMIT_TYPEHASH",
      "outputs": [
        {
          "internalType": "bytes32",
          "name": "",
          "type": "bytes32"
        }
      ],
      "stateMutability": "view",
      "type": "function"
    },
    {
      "inputs": [],
      "name": "REINVEST_REWARD_BIPS",
      "outputs": [
        {
          "internalType": "uint256",
          "name": "",
          "type": "uint256"
        }
      ],
      "stateMutability": "view",
      "type": "function"
    },
    {
      "inputs": [],
      "name": "VERSION_HASH",
      "outputs": [
        {
          "internalType": "bytes32",
          "name": "",
          "type": "bytes32"
        }
      ],
      "stateMutability": "view",
      "type": "function"
    },
    {
      "inputs": [
        {
          "internalType": "address",
          "name": "_rewardToken",
          "type": "address"
        }
      ],
      "name": "addReward",
      "outputs": [],
      "stateMutability": "nonpayable",
      "type": "function"
    },
    {
      "inputs": [
        {
          "internalType": "address",
          "name": "account",
          "type": "address"
        },
        {
          "internalType": "address",
          "name": "spender",
          "type": "address"
        }
      ],
      "name": "allowance",
      "outputs": [
        {
          "internalType": "uint256",
          "name": "",
          "type": "uint256"
        }
      ],
      "stateMutability": "view",
      "type": "function"
    },
    {
      "inputs": [
        {
          "internalType": "address",
          "name": "spender",
          "type": "address"
        },
        {
          "internalType": "uint256",
          "name": "amount",
          "type": "uint256"
        }
      ],
      "name": "approve",
      "outputs": [
        {
          "internalType": "bool",
          "name": "",
          "type": "bool"
        }
      ],
      "stateMutability": "nonpayable",
      "type": "function"
    },
    {
      "inputs": [
        {
          "internalType": "address",
          "name": "account",
          "type": "address"
        }
      ],
      "name": "balanceOf",
      "outputs": [
        {
          "internalType": "uint256",
          "name": "",
          "type": "uint256"
        }
      ],
      "stateMutability": "view",
      "type": "function"
    },
    {
      "inputs": [
        {
          "internalType": "uint256",
          "name": "_amount",
          "type": "uint256"
        }
      ],
      "name": "calculateDepositFee",
      "outputs": [
        {
          "internalType": "uint256",
          "name": "",
          "type": "uint256"
        }
      ],
      "stateMutability": "view",
      "type": "function"
    },
    {
      "inputs": [
        {
          "internalType": "uint256",
          "name": "_amount",
          "type": "uint256"
        }
      ],
      "name": "calculateWithdrawFee",
      "outputs": [
        {
          "internalType": "uint256",
          "name": "",
          "type": "uint256"
        }
      ],
      "stateMutability": "view",
      "type": "function"
    },
    {
      "inputs": [],
      "name": "checkReward",
      "outputs": [
        {
          "internalType": "uint256",
          "name": "",
          "type": "uint256"
        }
      ],
      "stateMutability": "view",
      "type": "function"
    },
    {
      "inputs": [],
      "name": "decimals",
      "outputs": [
        {
          "internalType": "uint8",
          "name": "",
          "type": "uint8"
        }
      ],
      "stateMutability": "view",
      "type": "function"
    },
    {
      "inputs": [
        {
          "internalType": "uint256",
          "name": "_amount",
          "type": "uint256"
        }
      ],
      "name": "deposit",
      "outputs": [],
      "stateMutability": "nonpayable",
      "type": "function"
    },
    {
      "inputs": [
        {
          "internalType": "address",
          "name": "_account",
          "type": "address"
        },
        {
          "internalType": "uint256",
          "name": "_amount",
          "type": "uint256"
        }
      ],
      "name": "depositFor",
      "outputs": [],
      "stateMutability": "nonpayable",
      "type": "function"
    },
    {
      "inputs": [],
      "name": "depositToken",
      "outputs": [
        {
          "internalType": "contract IERC20",
          "name": "",
          "type": "address"
        }
      ],
      "stateMutability": "view",
      "type": "function"
    },
    {
      "inputs": [
        {
          "internalType": "uint256",
          "name": "_amount",
          "type": "uint256"
        },
        {
          "internalType": "uint256",
          "name": "_deadline",
          "type": "uint256"
        },
        {
          "internalType": "uint8",
          "name": "_v",
          "type": "uint8"
        },
        {
          "internalType": "bytes32",
          "name": "_r",
          "type": "bytes32"
        },
        {
          "internalType": "bytes32",
          "name": "_s",
          "type": "bytes32"
        }
      ],
      "name": "depositWithPermit",
      "outputs": [],
      "stateMutability": "nonpayable",
      "type": "function"
    },
    {
      "inputs": [],
      "name": "devAddr",
      "outputs": [
        {
          "internalType": "address",
          "name": "",
          "type": "address"
        }
      ],
      "stateMutability": "view",
      "type": "function"
    },
    {
      "inputs": [],
      "name": "disableDeposits",
      "outputs": [],
      "stateMutability": "nonpayable",
      "type": "function"
    },
    {
      "inputs": [],
      "name": "enableDeposits",
      "outputs": [],
      "stateMutability": "nonpayable",
      "type": "function"
    },
    {
      "inputs": [],
      "name": "estimateReinvestReward",
      "outputs": [
        {
          "internalType": "uint256",
          "name": "",
          "type": "uint256"
        }
      ],
      "stateMutability": "view",
      "type": "function"
    },
    {
      "inputs": [],
      "name": "feeCollector",
      "outputs": [
        {
          "internalType": "address",
          "name": "",
          "type": "address"
        }
      ],
      "stateMutability": "view",
      "type": "function"
    },
    {
      "inputs": [
        {
          "internalType": "uint256",
          "name": "amount",
          "type": "uint256"
        }
      ],
      "name": "getDepositTokensForShares",
      "outputs": [
        {
          "internalType": "uint256",
          "name": "",
          "type": "uint256"
        }
      ],
      "stateMutability": "view",
      "type": "function"
    },
    {
      "inputs": [],
      "name": "getDomainSeparator",
      "outputs": [
        {
          "internalType": "bytes32",
          "name": "",
          "type": "bytes32"
        }
      ],
      "stateMutability": "view",
      "type": "function"
    },
    {
      "inputs": [
        {
          "internalType": "uint256",
          "name": "amount",
          "type": "uint256"
        }
      ],
      "name": "getSharesForDepositTokens",
      "outputs": [
        {
          "internalType": "uint256",
          "name": "",
          "type": "uint256"
        }
      ],
      "stateMutability": "view",
      "type": "function"
    },
    {
      "inputs": [],
      "name": "getSupportedRewardsLength",
      "outputs": [
        {
          "internalType": "uint256",
          "name": "",
          "type": "uint256"
        }
      ],
      "stateMutability": "view",
      "type": "function"
    },
    {
      "inputs": [],
      "name": "moeStaking",
      "outputs": [
        {
          "internalType": "contract IMoeStaking",
          "name": "",
          "type": "address"
        }
      ],
      "stateMutability": "view",
      "type": "function"
    },
    {
      "inputs": [],
      "name": "name",
      "outputs": [
        {
          "internalType": "string",
          "name": "",
          "type": "string"
        }
      ],
      "stateMutability": "view",
      "type": "function"
    },
    {
      "inputs": [
        {
          "internalType": "address",
          "name": "",
          "type": "address"
        }
      ],
      "name": "nonces",
      "outputs": [
        {
          "internalType": "uint256",
          "name": "",
          "type": "uint256"
        }
      ],
      "stateMutability": "view",
      "type": "function"
    },
    {
      "inputs": [],
      "name": "owner",
      "outputs": [
        {
          "internalType": "address",
          "name": "",
          "type": "address"
        }
      ],
      "stateMutability": "view",
      "type": "function"
    },
    {
      "inputs": [
        {
          "internalType": "address",
          "name": "owner",
          "type": "address"
        },
        {
          "internalType": "address",
          "name": "spender",
          "type": "address"
        },
        {
          "internalType": "uint256",
          "name": "value",
          "type": "uint256"
        },
        {
          "internalType": "uint256",
          "name": "deadline",
          "type": "uint256"
        },
        {
          "internalType": "uint8",
          "name": "v",
          "type": "uint8"
        },
        {
          "internalType": "bytes32",
          "name": "r",
          "type": "bytes32"
        },
        {
          "internalType": "bytes32",
          "name": "s",
          "type": "bytes32"
        }
      ],
      "name": "permit",
      "outputs": [],
      "stateMutability": "nonpayable",
      "type": "function"
    },
    {
      "inputs": [
        {
          "internalType": "address",
          "name": "tokenAddress",
          "type": "address"
        },
        {
          "internalType": "uint256",
          "name": "tokenAmount",
          "type": "uint256"
        }
      ],
      "name": "recoverERC20",
      "outputs": [],
      "stateMutability": "nonpayable",
      "type": "function"
    },
    {
      "inputs": [
        {
          "internalType": "uint256",
          "name": "amount",
          "type": "uint256"
        }
      ],
      "name": "recoverGas",
      "outputs": [],
      "stateMutability": "nonpayable",
      "type": "function"
    },
    {
      "inputs": [],
      "name": "reinvest",
      "outputs": [],
      "stateMutability": "nonpayable",
      "type": "function"
    },
    {
      "inputs": [
        {
          "internalType": "address",
          "name": "_rewardToken",
          "type": "address"
        }
      ],
      "name": "removeReward",
      "outputs": [],
      "stateMutability": "nonpayable",
      "type": "function"
    },
    {
      "inputs": [],
      "name": "renounceOwnership",
      "outputs": [],
      "stateMutability": "nonpayable",
      "type": "function"
    },
    {
      "inputs": [
        {
          "internalType": "uint256",
          "name": "_minReturnAmountAccepted",
          "type": "uint256"
        }
      ],
      "name": "rescueDeployedFunds",
      "outputs": [],
      "stateMutability": "nonpayable",
      "type": "function"
    },
    {
      "inputs": [
        {
          "internalType": "address",
          "name": "token",
          "type": "address"
        },
        {
          "internalType": "address",
          "name": "spender",
          "type": "address"
        }
      ],
      "name": "revokeAllowance",
      "outputs": [],
      "stateMutability": "nonpayable",
      "type": "function"
    },
    {
      "inputs": [],
      "name": "rewardToken",
      "outputs": [
        {
          "internalType": "contract IERC20",
          "name": "",
          "type": "address"
        }
      ],
      "stateMutability": "view",
      "type": "function"
    },
    {
      "inputs": [],
      "name": "simpleRouter",
      "outputs": [
        {
          "internalType": "contract ISimpleRouter",
          "name": "",
          "type": "address"
        }
      ],
      "stateMutability": "view",
      "type": "function"
    },
    {
      "inputs": [
        {
          "internalType": "uint256",
          "name": "",
          "type": "uint256"
        }
      ],
      "name": "supportedRewards",
      "outputs": [
        {
          "internalType": "address",
          "name": "",
          "type": "address"
        }
      ],
      "stateMutability": "view",
      "type": "function"
    },
    {
      "inputs": [],
      "name": "symbol",
      "outputs": [
        {
          "internalType": "string",
          "name": "",
          "type": "string"
        }
      ],
      "stateMutability": "view",
      "type": "function"
    },
    {
      "inputs": [],
      "name": "totalDeposits",
      "outputs": [
        {
          "internalType": "uint256",
          "name": "",
          "type": "uint256"
        }
      ],
      "stateMutability": "view",
      "type": "function"
    },
    {
      "inputs": [],
      "name": "totalSupply",
      "outputs": [
        {
          "internalType": "uint256",
          "name": "",
          "type": "uint256"
        }
      ],
      "stateMutability": "view",
      "type": "function"
    },
    {
      "inputs": [
        {
          "internalType": "address",
          "name": "dst",
          "type": "address"
        },
        {
          "internalType": "uint256",
          "name": "amount",
          "type": "uint256"
        }
      ],
      "name": "transfer",
      "outputs": [
        {
          "internalType": "bool",
          "name": "",
          "type": "bool"
        }
      ],
      "stateMutability": "nonpayable",
      "type": "function"
    },
    {
      "inputs": [
        {
          "internalType": "address",
          "name": "src",
          "type": "address"
        },
        {
          "internalType": "address",
          "name": "dst",
          "type": "address"
        },
        {
          "internalType": "uint256",
          "name": "amount",
          "type": "uint256"
        }
      ],
      "name": "transferFrom",
      "outputs": [
        {
          "internalType": "bool",
          "name": "",
          "type": "bool"
        }
      ],
      "stateMutability": "nonpayable",
      "type": "function"
    },
    {
      "inputs": [
        {
          "internalType": "address",
          "name": "newOwner",
          "type": "address"
        }
      ],
      "name": "transferOwnership",
      "outputs": [],
      "stateMutability": "nonpayable",
      "type": "function"
    },
    {
      "inputs": [
        {
          "internalType": "address",
          "name": "newValue",
          "type": "address"
        }
      ],
      "name": "updateDevAddr",
      "outputs": [],
      "stateMutability": "nonpayable",
      "type": "function"
    },
    {
      "inputs": [
        {
          "internalType": "uint256",
          "name": "newValue",
          "type": "uint256"
        }
      ],
      "name": "updateDevFee",
      "outputs": [],
      "stateMutability": "nonpayable",
      "type": "function"
    },
    {
      "inputs": [
        {
          "internalType": "address",
          "name": "newValue",
          "type": "address"
        }
      ],
      "name": "updateFeeCollector",
      "outputs": [],
      "stateMutability": "nonpayable",
      "type": "function"
    },
    {
      "inputs": [
        {
          "internalType": "uint256",
          "name": "newValue",
          "type": "uint256"
        }
      ],
      "name": "updateMinTokensToReinvest",
      "outputs": [],
      "stateMutability": "nonpayable",
      "type": "function"
    },
    {
      "inputs": [
        {
          "internalType": "uint256",
          "name": "newValue",
          "type": "uint256"
        }
      ],
      "name": "updateReinvestReward",
      "outputs": [],
      "stateMutability": "nonpayable",
      "type": "function"
    },
    {
      "inputs": [
        {
          "internalType": "address",
          "name": "_router",
          "type": "address"
        }
      ],
      "name": "updateRouter",
      "outputs": [],
      "stateMutability": "nonpayable",
      "type": "function"
    },
    {
      "inputs": [
        {
          "internalType": "uint256",
          "name": "_amount",
          "type": "uint256"
        }
      ],
      "name": "withdraw",
      "outputs": [],
      "stateMutability": "nonpayable",
      "type": "function"
    }
  ],
  "transactionHash": "0x76f769b0aeef0f5fa2430d6c8327d34d73b0ff3d42a7c8cc653f89b6bb287d10",
  "args": [
    "0xb3938e6ee233e7847a5f17bb843e9bd0aa07e116",
    {
      "gasToken": "0x78c1b0C915c4FAA5FffA6CAbf0219DA63d7f4cb8",
      "rewards": [
        "0x09Bc4E0D864854c6aFB6eB9A9cdF58aC190D0dF9"
      ],
      "simpleRouter": "0xF321fd6D29d826420ca2a242DFf2aA6dB88B1196"
    },
    {
      "name": "Yield Yak: Compounding MOE",
      "owner": "0xDcEDF06Fd33E1D7b6eb4b309f779a0e9D3172e44",
      "dev": "0xDcEDF06Fd33E1D7b6eb4b309f779a0e9D3172e44",
      "feeCollector": "0xDcEDF06Fd33E1D7b6eb4b309f779a0e9D3172e44",
      "depositToken": "0x4515A45337F461A11Ff0FE8aBF3c606AE5dC00c9",
      "rewardToken": "0x78c1b0C915c4FAA5FffA6CAbf0219DA63d7f4cb8",
      "minTokensToReinvest": "1000",
      "devFeeBips": 900,
      "reinvestRewardBips": 100
    }
  ],
  "solcInputHash": "5dbd2a037d7990f06b5098f5dfea604e",
  "bytecode": "0x610120604052600960e0819052685969656c642059616b60b81b6101009081526200002e916000919062000749565b506040805180820190915260038082526216549560ea1b60209092019182526200005b9160019162000749565b503480156200006957600080fd5b5060405162004e4538038062004e458339810160408190526200008c9162000a61565b600680546001600160a01b0319163390811790915560405183918391829190819060009060008051602062004e25833981519152908290a35080518051620000dd9160009160209091019062000749565b506080808201516001600160a01b0390811690915260a0808301519091169052600780546001600160a01b0319163317905560c08101516200011f906200022a565b60e08101516200012f90620002cb565b610100810151620001409062000387565b6060810151620001509062000443565b60408101516200016090620004f7565b6200016a620005ab565b60208101516200017a906200064c565b5081516001600160a01b031660c0526020808301518051620001a192600d920190620007d8565b50604082810151600e80546001600160a01b0319166001600160a01b039092169190911790558051600080825260208201527fc7606d21ac05cd309191543e409f0845c016120563783d70e4f41419dc0ef234910160405180910390a15050600f80546001600160a01b0319166001600160a01b0394909416939093179092555062000c0e9050565b6007546001600160a01b031633146200028a5760405162461bcd60e51b815260206004820152601460248201527f59616b53747261746567793a3a6f6e6c7944657600000000000000000000000060448201526064015b60405180910390fd5b60095460408051918252602082018390527f481f79ac3a523b6d6db3c5a720e190e986d1cc1b41adcdf50f9caef849901100910160405180910390a1600955565b6007546001600160a01b03163314620003275760405162461bcd60e51b815260206004820152601460248201527f59616b53747261746567793a3a6f6e6c79446576000000000000000000000000604482015260640162000281565b612710600b54826200033a919062000bab565b11156200034657600080fd5b600c5460408051918252602082018390527f2a42303d002f0ba6cfe8259c91d4684443fb0b3de286ba74991175d651726131910160405180910390a1600c55565b6007546001600160a01b03163314620003e35760405162461bcd60e51b815260206004820152601460248201527f59616b53747261746567793a3a6f6e6c79446576000000000000000000000000604482015260640162000281565b612710600c5482620003f6919062000bab565b11156200040257600080fd5b600b5460408051918252602082018390527fe7f97d51d307dc44045597c9978bec0f842e6bb40d19b9444084cfa30d9ed4f2910160405180910390a1600b55565b6006546001600160a01b031633146200048e5760405162461bcd60e51b8152602060048201819052602482015260008051602062004e05833981519152604482015260640162000281565b600854604080516001600160a01b03928316815291831660208301527fcc882185e6edeeb762130016ea1faf3d7aa9c01b199bfd646f965b58ab741063910160405180910390a1600880546001600160a01b0319166001600160a01b0392909216919091179055565b6006546001600160a01b03163314620005425760405162461bcd60e51b8152602060048201819052602482015260008051602062004e05833981519152604482015260640162000281565b600754604080516001600160a01b03928316815291831660208301527fa8e91499ed37682f43cffb045fcc7d379a91e8c9a14e6321877ee34dee564c00910160405180910390a1600780546001600160a01b0319166001600160a01b0392909216919091179055565b6006546001600160a01b03163314620005f65760405162461bcd60e51b8152602060048201819052602482015260008051602062004e05833981519152604482015260640162000281565b600a5460ff16156200060757600080fd5b600a805460ff191660019081179091556040519081527f7b014ed3854e7f5cb0218d58b3c6ae7d53a68bb0af2f67bfb029ea42c38a7e859060200160405180910390a1565b6006546001600160a01b03163314620006975760405162461bcd60e51b8152602060048201819052602482015260008051602062004e05833981519152604482015260640162000281565b6001600160a01b038116620006fe5760405162461bcd60e51b815260206004820152602660248201527f4f776e61626c653a206e6577206f776e657220697320746865207a65726f206160448201526564647265737360d01b606482015260840162000281565b6006546040516001600160a01b0380841692169060008051602062004e2583398151915290600090a3600680546001600160a01b0319166001600160a01b0392909216919091179055565b828054620007579062000bd2565b90600052602060002090601f0160209004810192826200077b5760008555620007c6565b82601f106200079657805160ff1916838001178555620007c6565b82800160010185558215620007c6579182015b82811115620007c6578251825591602001919060010190620007a9565b50620007d492915062000830565b5090565b828054828255906000526020600020908101928215620007c6579160200282015b82811115620007c657825182546001600160a01b0319166001600160a01b03909116178255602090920191600190910190620007f9565b5b80821115620007d4576000815560010162000831565b80516001600160a01b03811681146200085f57600080fd5b919050565b634e487b7160e01b600052604160045260246000fd5b60405161012081016001600160401b0381118282101715620008a057620008a062000864565b60405290565b604051606081016001600160401b0381118282101715620008a057620008a062000864565b604051601f8201601f191681016001600160401b0381118282101715620008f657620008f662000864565b604052919050565b600082601f8301126200091057600080fd5b81516001600160401b038111156200092c576200092c62000864565b602062000942601f8301601f19168201620008cb565b82815285828487010111156200095757600080fd5b60005b83811015620009775785810183015182820184015282016200095a565b83811115620009895760008385840101525b5095945050505050565b60006101208284031215620009a757600080fd5b620009b16200087a565b82519091506001600160401b03811115620009cb57600080fd5b620009d984828501620008fe565b825250620009ea6020830162000847565b6020820152620009fd6040830162000847565b604082015262000a106060830162000847565b606082015262000a236080830162000847565b608082015262000a3660a0830162000847565b60a082015260c082015160c082015260e082015160e082015261010080830151818301525092915050565b60008060006060848603121562000a7757600080fd5b62000a828462000847565b602085810151919450906001600160401b038082111562000aa257600080fd5b908601906060828903121562000ab757600080fd5b62000ac1620008a6565b62000acc8362000847565b8152838301518281111562000ae057600080fd5b8301601f81018a1362000af257600080fd5b80518381111562000b075762000b0762000864565b8060051b62000b18878201620008cb565b918252828101870191878101908d84111562000b3357600080fd5b938801935b8385101562000b5c5762000b4c8562000847565b8252938801939088019062000b38565b858901525062000b73925050506040840162000847565b604082015280955050604087015192508083111562000b9157600080fd5b505062000ba18682870162000993565b9150509250925092565b6000821982111562000bcd57634e487b7160e01b600052601160045260246000fd5b500190565b600181811c9082168062000be757607f821691505b60208210810362000c0857634e487b7160e01b600052602260045260246000fd5b50919050565b60805160a05160c05161412662000cdf60003960008181611a43015281816130d701528181613106015261317b0152600081816107bd015281816119a601528181611aab01528181611bea01528181612cb201528181612d1a01528181613023015281816131a501528181613261015281816132c4015281816133a101526133f30152600081816106bd01528181610a1f01528181610af201528181610c8901528181610d1e015281816126aa01528181612896015281816133770152818161341b01526134d701526141266000f3fe608060405234801561001057600080fd5b50600436106103785760003560e01c806399729ec1116101d3578063c851cc3211610104578063e75ab045116100a2578063f2fde38b1161007c578063f2fde38b14610792578063f6314d07146107a5578063f7c618c1146107b8578063fdb5a03e146107df57600080fd5b8063e75ab04514610764578063eab89a5a14610777578063ed24911d1461078a57600080fd5b8063d505accf116100de578063d505accf146106f2578063da09c72c14610705578063dd62ed3e14610718578063dd8ce4d61461075157600080fd5b8063c851cc32146106a5578063c89039c5146106b8578063d2c35ce8146106df57600080fd5b8063ac67e1af11610171578063b9e57b801161014b578063b9e57b8014610679578063bd079f5514610681578063c415b95c1461068a578063c4b24a461461069d57600080fd5b8063ac67e1af14610651578063b52a321f14610659578063b6b55f251461066657600080fd5b80639e4e7318116101ad5780639e4e7318146105f1578063a4d5e67c14610618578063a8ae2b7c1461062b578063a9059cbb1461063e57600080fd5b806399729ec1146105b85780639b2ee5ac146105cb5780639c9b2e21146105de57600080fd5b80635ea682ea116102ad5780637ecebe001161024b5780638aff733d116102255780638aff733d1461056f5780638da5cb5b146105785780639291d5631461059d57806395d89b41146105b057600080fd5b80637ecebe001461052957806381837230146105495780638980f11f1461055c57600080fd5b8063715018a611610287578063715018a6146104f35780637897e7f6146104fb5780637ae267731461050e5780637d8820971461052157600080fd5b80635ea682ea146104ae578063666d25b9146104b757806370a08231146104ca57600080fd5b8063258250da1161031a57806330adf81f116102f457806330adf81f14610452578063313ce567146104795780634a970be7146104935780635e4c57a4146104a657600080fd5b8063258250da146104225780632e1a7d4d1461042a5780632f4f21e21461043f57600080fd5b806318160ddd1161035657806318160ddd146103df57806320606b70146103e857806323b872dd1461040f578063247d284b146103be57600080fd5b806306fdde031461037d578063095ea7b31461039b57806311056035146103be575b600080fd5b6103856107e7565b6040516103929190613986565b60405180910390f35b6103ae6103a93660046139ce565b610875565b6040519015158152602001610392565b6103d16103cc3660046139fa565b61088b565b604051908152602001610392565b6103d160025481565b6103d17f8b73c3c69bb8fe3d512ecc4cf759cc79239f7b179b0ffacaa9a75d522b39400f81565b6103ae61041d366004613a13565b61089c565b600d546103d1565b61043d6104383660046139fa565b610965565b005b61043d61044d3660046139ce565b610a8b565b6103d17f6e71edae12b1b97f4d1f60370fef10105fa2faae0126114a169c64845d6126c981565b610481601281565b60405160ff9091168152602001610392565b61043d6104a1366004613a6a565b610a99565b61043d610b67565b6103d1600c5481565b61043d6104c53660046139fa565b610c17565b6103d16104d8366004613ab1565b6001600160a01b031660009081526004602052604090205490565b61043d610e98565b61043d6105093660046139fa565b610f3c565b61043d61051c366004613ace565b61100e565b6103d16110db565b6103d1610537366004613ab1565b60056020526000908152604090205481565b61043d6105573660046139fa565b611166565b61043d61056a3660046139ce565b6111f8565b6103d1600b5481565b6006546001600160a01b03165b6040516001600160a01b039091168152602001610392565b61043d6105ab366004613ab1565b6112ba565b61038561137d565b61043d6105c63660046139fa565b61138a565b600f54610585906001600160a01b031681565b61043d6105ec366004613ab1565b611438565b6103d17fc89efdaa54c0f20c7adf612882df0950f5a951637e0307cdcb4c672f298b8bc681565b61043d610626366004613ab1565b6115d3565b61043d6106393660046139fa565b6117d6565b6103ae61064c3660046139ce565b611884565b61043d611891565b600a546103ae9060ff1681565b61043d6106743660046139fa565b61192c565b6103d1611939565b6103d160095481565b600854610585906001600160a01b031681565b6103d1611978565b61043d6106b3366004613ab1565b611ccd565b6105857f000000000000000000000000000000000000000000000000000000000000000081565b61043d6106ed366004613ab1565b611d87565b61043d610700366004613b07565b611e4a565b600754610585906001600160a01b031681565b6103d1610726366004613ace565b6001600160a01b03918216600090815260036020908152604080832093909416825291909152205490565b6103d161075f3660046139fa565b611f5d565b6105856107723660046139fa565b611fa3565b6103d16107853660046139fa565b611fcd565b6103d1612003565b61043d6107a0366004613ab1565b6120a3565b600e54610585906001600160a01b031681565b6105857f000000000000000000000000000000000000000000000000000000000000000081565b61043d6121d5565b600080546107f490613b75565b80601f016020809104026020016040519081016040528092919081815260200182805461082090613b75565b801561086d5780601f106108425761010080835404028352916020019161086d565b820191906000526020600020905b81548152906001019060200180831161085057829003601f168201915b505050505081565b6000610882338484612230565b50600192915050565b60006108968261233e565b92915050565b6001600160a01b0383166000818152600360209081526040808320338085529252822054919290919082148015906108d657506000198114155b1561094c5760006108e78583613bc5565b6001600160a01b038881166000818152600360209081526040808320948916808452948252918290208590559051848152939450919290917f8c5be1e5ebec7d5bd14f71427d1e84f3dd0314c0f7b2291e5b200ac8c7c3b925910160405180910390a3505b610957868686612358565b6001925050505b9392505050565b600061097082611fcd565b9050600081116109ed5760405162461bcd60e51b815260206004820152602560248201527f4261736553747261746567793a3a576974686472617720616d6f756e7420746f60448201527f6f206c6f7700000000000000000000000000000000000000000000000000000060648201526084015b60405180910390fd5b60006109f88261247c565b90506000610a058361233e565b9050610a4633610a158385613bc5565b6001600160a01b037f00000000000000000000000000000000000000000000000000000000000000001691906124fa565b610a50338561257a565b60405183815233907f884edad9ce6fa2440d8a54cc123490eb96d2768479d49ff9c7366125a94243649060200160405180910390a250505050565b610a95828261260e565b5050565b6040517fd505accf000000000000000000000000000000000000000000000000000000008152336004820152306024820152604481018690526064810185905260ff8416608482015260a4810183905260c481018290527f00000000000000000000000000000000000000000000000000000000000000006001600160a01b03169063d505accf9060e401600060405180830381600087803b158015610b3e57600080fd5b505af1158015610b52573d6000803e3d6000fd5b50505050610b60338661260e565b5050505050565b6006546001600160a01b03163314610bc15760405162461bcd60e51b815260206004820181905260248201527f4f776e61626c653a2063616c6c6572206973206e6f7420746865206f776e657260448201526064016109e4565b600a5460ff1615610bd157600080fd5b600a805460ff191660019081179091556040519081527f7b014ed3854e7f5cb0218d58b3c6ae7d53a68bb0af2f67bfb029ea42c38a7e85906020015b60405180910390a1565b6006546001600160a01b03163314610c715760405162461bcd60e51b815260206004820181905260248201527f4f776e61626c653a2063616c6c6572206973206e6f7420746865206f776e657260448201526064016109e4565b6040516370a0823160e01b81523060048201526000907f00000000000000000000000000000000000000000000000000000000000000006001600160a01b0316906370a0823190602401602060405180830381865afa158015610cd8573d6000803e3d6000fd5b505050506040513d601f19601f82011682018060405250810190610cfc9190613bdc565b9050610d06612806565b6040516370a0823160e01b81523060048201526000907f00000000000000000000000000000000000000000000000000000000000000006001600160a01b0316906370a0823190602401602060405180830381865afa158015610d6d573d6000803e3d6000fd5b505050506040513d601f19601f82011682018060405250810190610d919190613bdc565b905082610d9e8383613bc5565b1015610e385760405162461bcd60e51b815260206004820152604260248201527f4261736553747261746567793a3a456d657267656e637920776974686472617760448201527f206d696e696d756d2072657475726e20616d6f756e74206e6f7420726561636860648201527f6564000000000000000000000000000000000000000000000000000000000000608482015260a4016109e4565b7fc7606d21ac05cd309191543e409f0845c016120563783d70e4f41419dc0ef234610e616110db565b6002546040805192835260208301919091520160405180910390a1600a5460ff161515600103610e9357610e93611891565b505050565b6006546001600160a01b03163314610ef25760405162461bcd60e51b815260206004820181905260248201527f4f776e61626c653a2063616c6c6572206973206e6f7420746865206f776e657260448201526064016109e4565b6006546040516000916001600160a01b0316907f8be0079c531659141344cd1fd0a4f28419497f9722a3daafe3b4186f6b6457e0908390a3600680546001600160a01b0319169055565b6006546001600160a01b03163314610f965760405162461bcd60e51b815260206004820181905260248201527f4f776e61626c653a2063616c6c6572206973206e6f7420746865206f776e657260448201526064016109e4565b60008111610fa357600080fd5b604051339082156108fc029083906000818181858888f19350505050158015610fd0573d6000803e3d6000fd5b506040805160008152602081018390527f8c1256b8896378cd5044f80c202f9772b9d77dc85c8a6eb51967210b09bfaa28910160405180910390a150565b6007546001600160a01b0316331461105f5760405162461bcd60e51b81526020600482015260146024820152732cb0b5a9ba3930ba32b3bc9d1d37b7363ca232bb60611b60448201526064016109e4565b60405163095ea7b360e01b81526001600160a01b0382811660048301526000602483015283169063095ea7b3906044016020604051808303816000875af11580156110ae573d6000803e3d6000fd5b505050506040513d601f19601f820116820180604052508101906110d29190613bf5565b610a9557600080fd5b600f546040517fe1254fba0000000000000000000000000000000000000000000000000000000081523060048201526000916001600160a01b03169063e1254fba90602401602060405180830381865afa15801561113d573d6000803e3d6000fd5b505050506040513d601f19601f820116820180604052508101906111619190613bdc565b905090565b6007546001600160a01b031633146111b75760405162461bcd60e51b81526020600482015260146024820152732cb0b5a9ba3930ba32b3bc9d1d37b7363ca232bb60611b60448201526064016109e4565b60095460408051918252602082018390527f481f79ac3a523b6d6db3c5a720e190e986d1cc1b41adcdf50f9caef849901100910160405180910390a1600955565b6006546001600160a01b031633146112525760405162461bcd60e51b815260206004820181905260248201527f4f776e61626c653a2063616c6c6572206973206e6f7420746865206f776e657260448201526064016109e4565b6000811161125f57600080fd5b6112736001600160a01b03831633836124fa565b604080516001600160a01b0384168152602081018390527f8c1256b8896378cd5044f80c202f9772b9d77dc85c8a6eb51967210b09bfaa2891015b60405180910390a15050565b6006546001600160a01b031633146113145760405162461bcd60e51b815260206004820181905260248201527f4f776e61626c653a2063616c6c6572206973206e6f7420746865206f776e657260448201526064016109e4565b600754604080516001600160a01b03928316815291831660208301527fa8e91499ed37682f43cffb045fcc7d379a91e8c9a14e6321877ee34dee564c00910160405180910390a1600780546001600160a01b0319166001600160a01b0392909216919091179055565b600180546107f490613b75565b6007546001600160a01b031633146113db5760405162461bcd60e51b81526020600482015260146024820152732cb0b5a9ba3930ba32b3bc9d1d37b7363ca232bb60611b60448201526064016109e4565b612710600b54826113ec9190613c17565b11156113f757600080fd5b600c5460408051918252602082018390527f2a42303d002f0ba6cfe8259c91d4684443fb0b3de286ba74991175d651726131910160405180910390a1600c55565b6007546001600160a01b031633146114895760405162461bcd60e51b81526020600482015260146024820152732cb0b5a9ba3930ba32b3bc9d1d37b7363ca232bb60611b60448201526064016109e4565b6000805b600d548110156114e057600d81815481106114aa576114aa613c2f565b6000918252602090912001546001600160a01b03908116908416036114ce57600191505b806114d881613c45565b91505061148d565b5080156115555760405162461bcd60e51b815260206004820152602860248201527f4261736553747261746567793a3a52657761726420616c726561647920636f6e60448201527f666967757265642100000000000000000000000000000000000000000000000060648201526084016109e4565b600d80546001810182556000919091527fd7b6990105719101dabeb77144f2a3385c8033acd3af97e9423a695e81ad1eb50180546001600160a01b0319166001600160a01b0384169081179091556040519081527f1714865bf5baa84e3439536a013c87cfe030b4cd69f344a5f2a4877de3d517ce906020016112ae565b6007546001600160a01b031633146116245760405162461bcd60e51b81526020600482015260146024820152732cb0b5a9ba3930ba32b3bc9d1d37b7363ca232bb60611b60448201526064016109e4565b6000805b600d548110156116f457600d818154811061164557611645613c2f565b6000918252602090912001546001600160a01b03908116908416036116e257600d805460019350611677908490613bc5565b8154811061168757611687613c2f565b600091825260209091200154600d80546001600160a01b0390921691839081106116b3576116b3613c2f565b9060005260206000200160006101000a8154816001600160a01b0302191690836001600160a01b031602179055505b806116ec81613c45565b915050611628565b50806117675760405162461bcd60e51b8152602060048201526024808201527f4261736553747261746567793a3a526577617264206e6f7420636f6e6669677560448201527f726564210000000000000000000000000000000000000000000000000000000060648201526084016109e4565b600d80548061177857611778613c5e565b6000828152602090819020600019908301810180546001600160a01b03191690559091019091556040516001600160a01b03841681527f963b7c735475147a62c589c2d7cb8ec4b0a6b7af4f97373d79ebfa42ab8aa7dc91016112ae565b6007546001600160a01b031633146118275760405162461bcd60e51b81526020600482015260146024820152732cb0b5a9ba3930ba32b3bc9d1d37b7363ca232bb60611b60448201526064016109e4565b612710600c54826118389190613c17565b111561184357600080fd5b600b5460408051918252602082018390527fe7f97d51d307dc44045597c9978bec0f842e6bb40d19b9444084cfa30d9ed4f2910160405180910390a1600b55565b6000610882338484612358565b6007546001600160a01b031633146118e25760405162461bcd60e51b81526020600482015260146024820152732cb0b5a9ba3930ba32b3bc9d1d37b7363ca232bb60611b60448201526064016109e4565b600a5460ff166118f157600080fd5b600a805460ff19169055604051600081527f7b014ed3854e7f5cb0218d58b3c6ae7d53a68bb0af2f67bfb029ea42c38a7e8590602001610c0d565b611936338261260e565b50565b600080611944611978565b9050600954811061197057612710600b54826119609190613c74565b61196a9190613c93565b91505090565b600091505090565b600080611983612907565b6040516370a0823160e01b81523060048201529091506000906001600160a01b037f000000000000000000000000000000000000000000000000000000000000000016906370a0823190602401602060405180830381865afa1580156119ed573d6000803e3d6000fd5b505050506040513d601f19601f82011682018060405250810190611a119190613bdc565b905060005b8251811015611cc6576000838281518110611a3357611a33613c2f565b60200260200101516000015190507f00000000000000000000000000000000000000000000000000000000000000006001600160a01b0316816001600160a01b031603611aa95747848381518110611a8d57611a8d613c2f565b6020026020010151602001818151611aa59190613c17565b9052505b7f00000000000000000000000000000000000000000000000000000000000000006001600160a01b0316816001600160a01b031603611b1257838281518110611af457611af4613c2f565b60200260200101516020015183611b0b9190613c17565b9250611cb3565b6001600160a01b03811615611cb3576040516370a0823160e01b81523060048201526000906001600160a01b038316906370a0823190602401602060405180830381865afa158015611b68573d6000803e3d6000fd5b505050506040513d601f19601f82011682018060405250810190611b8c9190613bdc565b90506000858481518110611ba257611ba2613c2f565b60200260200101516020015182611bb99190613c17565b90508015611cb057600e546040516377ccc49d60e11b8152600481018390526001600160a01b0385811660248301527f000000000000000000000000000000000000000000000000000000000000000081166044830152600092169063ef99893a90606401600060405180830381865afa158015611c3b573d6000803e3d6000fd5b505050506040513d6000823e601f3d908101601f19168201604052611c639190810190613e18565b9050600181600001515111611c79576000611ca2565b80518051611c8990600190613bc5565b81518110611c9957611c99613c2f565b60200260200101515b611cac9087613c17565b9550505b50505b5080611cbe81613c45565b915050611a16565b5092915050565b6007546001600160a01b03163314611d1e5760405162461bcd60e51b81526020600482015260146024820152732cb0b5a9ba3930ba32b3bc9d1d37b7363ca232bb60611b60448201526064016109e4565b600e54604080516001600160a01b03928316815291831660208301527f2c6fb4d5ff9fad6ecf2e09cd64cbc9aad92a8b9d2cc0e5c3ddef9b529b0b5ffd910160405180910390a1600e80546001600160a01b0319166001600160a01b0392909216919091179055565b6006546001600160a01b03163314611de15760405162461bcd60e51b815260206004820181905260248201527f4f776e61626c653a2063616c6c6572206973206e6f7420746865206f776e657260448201526064016109e4565b600854604080516001600160a01b03928316815291831660208301527fcc882185e6edeeb762130016ea1faf3d7aa9c01b199bfd646f965b58ab741063910160405180910390a1600880546001600160a01b0319166001600160a01b0392909216919091179055565b42841015611e9a5760405162461bcd60e51b815260206004820152600f60248201527f7065726d69743a3a65787069726564000000000000000000000000000000000060448201526064016109e4565b6001600160a01b038716600090815260056020526040812080547f6e71edae12b1b97f4d1f60370fef10105fa2faae0126114a169c64845d6126c9918a918a918a919086611ee783613c45565b909155506040805160208101969096526001600160a01b0394851690860152929091166060840152608083015260a082015260c0810186905260e001604051602081830303815290604052805190602001209050611f488882868686612b06565b611f53888888612230565b5050505050505050565b600080611f686110db565b600254909150801580611f79575081155b15611f8657509192915050565b81611f918286613c74565b611f9b9190613c93565b949350505050565b600d8181548110611fb357600080fd5b6000918252602090912001546001600160a01b0316905081565b600080611fd86110db565b600254909150801580611fe9575081155b15611ff8575060009392505050565b80611f918386613c74565b60007f8b73c3c69bb8fe3d512ecc4cf759cc79239f7b179b0ffacaa9a75d522b39400f60001b60006040516120389190613eda565b6040519081900390207fc89efdaa54c0f20c7adf612882df0950f5a951637e0307cdcb4c672f298b8bc646604080516020810195909552840192909252606083015260808201523060a082015260c00160405160208183030381529060405280519060200120905090565b6006546001600160a01b031633146120fd5760405162461bcd60e51b815260206004820181905260248201527f4f776e61626c653a2063616c6c6572206973206e6f7420746865206f776e657260448201526064016109e4565b6001600160a01b0381166121795760405162461bcd60e51b815260206004820152602660248201527f4f776e61626c653a206e6577206f776e657220697320746865207a65726f206160448201527f646472657373000000000000000000000000000000000000000000000000000060648201526084016109e4565b6006546040516001600160a01b038084169216907f8be0079c531659141344cd1fd0a4f28419497f9722a3daafe3b4186f6b6457e090600090a3600680546001600160a01b0319166001600160a01b0392909216919091179055565b3233146122245760405162461bcd60e51b815260206004820152601460248201527f59616b53747261746567793a3a6f6e6c79454f4100000000000000000000000060448201526064016109e4565b61222e6000612c66565b565b6001600160a01b0383166122865760405162461bcd60e51b815260206004820152601c60248201527f5f617070726f76653a3a6f776e6572207a65726f20616464726573730000000060448201526064016109e4565b6001600160a01b0382166122dc5760405162461bcd60e51b815260206004820152601e60248201527f5f617070726f76653a3a7370656e646572207a65726f2061646472657373000060448201526064016109e4565b6001600160a01b0383811660008181526003602090815260408083209487168084529482529182902085905590518481527f8c5be1e5ebec7d5bd14f71427d1e84f3dd0314c0f7b2291e5b200ac8c7c3b92591015b60405180910390a3505050565b60008061271061234e8285613c74565b61095e9190613c93565b6001600160a01b0382166123d45760405162461bcd60e51b815260206004820152603460248201527f5f7472616e73666572546f6b656e733a2063616e6e6f74207472616e7366657260448201527f20746f20746865207a65726f206164647265737300000000000000000000000060648201526084016109e4565b6001600160a01b0383166000908152600460205260409020546123f8908290613bc5565b6001600160a01b038085166000908152600460205260408082209390935590841681522054612428908290613c17565b6001600160a01b0380841660008181526004602052604090819020939093559151908516907fddf252ad1be2c89b69c2b068fc378daa952ba7f163c4a11628f55a4df523b3ef906123319085815260200190565b600f546040517f2e17de78000000000000000000000000000000000000000000000000000000008152600481018390526000916001600160a01b031690632e17de7890602401600060405180830381600087803b1580156124dc57600080fd5b505af11580156124f0573d6000803e3d6000fd5b5093949350505050565b604080516001600160a01b038416602482015260448082018490528251808303909101815260649091019091526020810180517bffffffffffffffffffffffffffffffffffffffffffffffffffffffff167fa9059cbb00000000000000000000000000000000000000000000000000000000179052610e93908490612dc6565b6001600160a01b03821660009081526004602052604090205461259e908290613bc5565b6001600160a01b0383166000908152600460205260409020556002546125c5908290613bc5565b6002556040518181526000906001600160a01b038416907fddf252ad1be2c89b69c2b068fc378daa952ba7f163c4a11628f55a4df523b3ef906020015b60405180910390a35050565b600a5460ff1615156001146126655760405162461bcd60e51b815260206004820152601f60248201527f4261736553747261746567793a3a4465706f736974732064697361626c65640060448201526064016109e4565b61266f6001612c66565b6040517f23b872dd000000000000000000000000000000000000000000000000000000008152336004820152306024820152604481018290527f00000000000000000000000000000000000000000000000000000000000000006001600160a01b0316906323b872dd906064016020604051808303816000875af11580156126fb573d6000803e3d6000fd5b505050506040513d601f19601f8201168201806040525081019061271f9190613bf5565b6127915760405162461bcd60e51b815260206004820152602b60248201527f4261736553747261746567793a3a4465706f73697420746f6b656e207472616e60448201527f73666572206661696c656400000000000000000000000000000000000000000060648201526084016109e4565b600061279c8261233e565b90506127b4836127af61075f8486613bc5565b612eab565b6127be8282612f81565b826001600160a01b03167fe1fffcc4923d04b559f4d29a8bfc6cda04eb5b0d3c460751c2402c5c5cc9109c836040516127f991815260200190565b60405180910390a2505050565b600f546001600160a01b0316632e17de7861281f6110db565b6040518263ffffffff1660e01b815260040161283d91815260200190565b600060405180830381600087803b15801561285757600080fd5b505af115801561286b573d6000803e3d6000fd5b5050600f5460405163095ea7b360e01b81526001600160a01b039182166004820152600060248201527f0000000000000000000000000000000000000000000000000000000000000000909116925063095ea7b391506044016020604051808303816000875af11580156128e3573d6000803e3d6000fd5b505050506040513d601f19601f820116820180604052508101906119369190613bf5565b6060600080600f60009054906101000a90046001600160a01b03166001600160a01b0316637ac20b576040518163ffffffff1660e01b8152600401602060405180830381865afa15801561295f573d6000803e3d6000fd5b505050506040513d601f19601f820116820180604052508101906129839190613f75565b6040517ff6ed20170000000000000000000000000000000000000000000000000000000081523060048201526001600160a01b03919091169063f6ed201790602401600060405180830381865afa1580156129e2573d6000803e3d6000fd5b505050506040513d6000823e601f3d908101601f19168201604052612a0a9190810190613f92565b915091506000825167ffffffffffffffff811115612a2a57612a2a613cb5565b604051908082528060200260200182016040528015612a6f57816020015b6040805180820190915260008082526020820152815260200190600190039081612a485790505b50905060005b8351811015612afe576040518060400160405280858381518110612a9b57612a9b613c2f565b60200260200101516001600160a01b03168152602001848381518110612ac357612ac3613c2f565b6020026020010151815250828281518110612ae057612ae0613c2f565b60200260200101819052508080612af690613c45565b915050612a75565b509392505050565b6000612b10612003565b6040517f1901000000000000000000000000000000000000000000000000000000000000602082015260228101919091526042810186905260620160408051601f198184030181528282528051602091820120600080855291840180845281905260ff88169284019290925260608301869052608083018590529092509060019060a0016020604051602081039080840390855afa158015612bb6573d6000803e3d6000fd5b5050604051601f1901519150506001600160a01b03811615801590612bec5750866001600160a01b0316816001600160a01b0316145b612c5d5760405162461bcd60e51b8152602060048201526024808201527f417263683a3a76616c69646174655369673a20696e76616c6964207369676e6160448201527f747572650000000000000000000000000000000000000000000000000000000060648201526084016109e4565b50505050505050565b6000612c70613001565b9050600954811115612d85576000612710600c5483612c8f9190613c74565b612c999190613c93565b90508015612cdb57600854612cdb906001600160a01b037f000000000000000000000000000000000000000000000000000000000000000081169116836124fa565b600083612d0257612710600b5484612cf39190613c74565b612cfd9190613c93565b612d05565b60005b90508015612d4157612d416001600160a01b037f00000000000000000000000000000000000000000000000000000000000000001633836124fa565b6000612d6082612d518587613bc5565b612d5b9190613bc5565b613373565b90508015612d81576000612d738261233e565b9050612d7f8282612f81565b505b5050505b7fc7606d21ac05cd309191543e409f0845c016120563783d70e4f41419dc0ef234612dae6110db565b600254604080519283526020830191909152016112ae565b6000612e1b826040518060400160405280602081526020017f5361666545524332303a206c6f772d6c6576656c2063616c6c206661696c6564815250856001600160a01b031661349f9092919063ffffffff16565b805190915015610e935780806020019051810190612e399190613bf5565b610e935760405162461bcd60e51b815260206004820152602a60248201527f5361666545524332303a204552433230206f7065726174696f6e20646964206e60448201527f6f7420737563636565640000000000000000000000000000000000000000000060648201526084016109e4565b60008111612efb5760405162461bcd60e51b815260206004820152601260248201527f5f6d696e743a3a7a65726f20736861726573000000000000000000000000000060448201526064016109e4565b80600254612f099190613c17565b6002556001600160a01b038216600090815260046020526040902054612f30908290613c17565b6001600160a01b0383166000818152600460205260408082209390935591519091907fddf252ad1be2c89b69c2b068fc378daa952ba7f163c4a11628f55a4df523b3ef906126029085815260200190565b60008211612ff75760405162461bcd60e51b815260206004820152602260248201527f4261736553747261746567793a3a5374616b6520616d6f756e7420746f6f206c60448201527f6f7700000000000000000000000000000000000000000000000000000000000060648201526084016109e4565b610a9582826134ae565b600061300b6135c2565b6040516370a0823160e01b81523060048201526000907f00000000000000000000000000000000000000000000000000000000000000006001600160a01b0316906370a0823190602401602060405180830381865afa158015613072573d6000803e3d6000fd5b505050506040513d601f19601f820116820180604052508101906130969190613bdc565b600d5490915060005b8181101561336b576000600d82815481106130bc576130bc613c2f565b6000918252602090912001546001600160a01b0390811691507f00000000000000000000000000000000000000000000000000000000000000001681036131e757478015613179577f00000000000000000000000000000000000000000000000000000000000000006001600160a01b031663d0e30db0826040518263ffffffff1660e01b81526004016000604051808303818588803b15801561315f57600080fd5b505af1158015613173573d6000803e3d6000fd5b50505050505b7f00000000000000000000000000000000000000000000000000000000000000006001600160a01b03167f00000000000000000000000000000000000000000000000000000000000000006001600160a01b0316036131e5576131dc8186613c17565b94505050613359565b505b6040516370a0823160e01b81523060048201526000906001600160a01b038316906370a0823190602401602060405180830381865afa15801561322e573d6000803e3d6000fd5b505050506040513d601f19601f820116820180604052508101906132529190613bdc565b905060008111801561329657507f00000000000000000000000000000000000000000000000000000000000000006001600160a01b0316826001600160a01b031614155b1561335657600e546040516377ccc49d60e11b8152600481018390526001600160a01b0384811660248301527f000000000000000000000000000000000000000000000000000000000000000081166044830152600092169063ef99893a90606401600060405180830381865afa158015613315573d6000803e3d6000fd5b505050506040513d6000823e601f3d908101601f1916820160405261333d9190810190613e18565b90506133488161362c565b6133529087613c17565b9550505b50505b8061336381613c45565b91505061309f565b509092915050565b60007f00000000000000000000000000000000000000000000000000000000000000006001600160a01b03167f00000000000000000000000000000000000000000000000000000000000000006001600160a01b0316036133d2575090565b600e546040516377ccc49d60e11b8152600481018490526001600160a01b037f0000000000000000000000000000000000000000000000000000000000000000811660248301527f000000000000000000000000000000000000000000000000000000000000000081166044830152600092169063ef99893a90606401600060405180830381865afa15801561346c573d6000803e3d6000fd5b505050506040513d6000823e601f3d908101601f191682016040526134949190810190613e18565b905061095e8161362c565b6060611f9b84846000856137d9565b600f5460405163095ea7b360e01b81526001600160a01b039182166004820152602481018490527f00000000000000000000000000000000000000000000000000000000000000009091169063095ea7b3906044016020604051808303816000875af1158015613522573d6000803e3d6000fd5b505050506040513d601f19601f820116820180604052508101906135469190613bf5565b50600f546040517fa694fc3a000000000000000000000000000000000000000000000000000000008152600481018490526001600160a01b039091169063a694fc3a90602401600060405180830381600087803b1580156135a657600080fd5b505af11580156135ba573d6000803e3d6000fd5b505050505050565b600f60009054906101000a90046001600160a01b03166001600160a01b0316634e71d92d6040518163ffffffff1660e01b8152600401600060405180830381600087803b15801561361257600080fd5b505af1158015613626573d6000803e3d6000fd5b50505050565b805151600090158015906136695750815180516000919061364f90600190613bc5565b8151811061365f5761365f613c2f565b6020026020010151115b156137d157816040015160008151811061368557613685613c2f565b60200260200101516001600160a01b031663095ea7b3600e60009054906101000a90046001600160a01b031684600001516000815181106136c8576136c8613c2f565b60200260200101516040518363ffffffff1660e01b81526004016137019291906001600160a01b03929092168252602082015260400190565b6020604051808303816000875af1158015613720573d6000803e3d6000fd5b505050506040513d601f19601f820116820180604052508101906137449190613bf5565b50600e546040517f5b2466160000000000000000000000000000000000000000000000000000000081526001600160a01b0390911690635b2466169061378e90859060040161403a565b6020604051808303816000875af11580156137ad573d6000803e3d6000fd5b505050506040513d601f19601f820116820180604052508101906108969190613bdc565b506000919050565b6060824710156138515760405162461bcd60e51b815260206004820152602660248201527f416464726573733a20696e73756666696369656e742062616c616e636520666f60448201527f722063616c6c000000000000000000000000000000000000000000000000000060648201526084016109e4565b6001600160a01b0385163b6138a85760405162461bcd60e51b815260206004820152601d60248201527f416464726573733a2063616c6c20746f206e6f6e2d636f6e747261637400000060448201526064016109e4565b600080866001600160a01b031685876040516138c491906140d4565b60006040518083038185875af1925050503d8060008114613901576040519150601f19603f3d011682016040523d82523d6000602084013e613906565b606091505b5091509150613916828286613921565b979650505050505050565b6060831561393057508161095e565b8251156139405782518084602001fd5b8160405162461bcd60e51b81526004016109e49190613986565b60005b8381101561397557818101518382015260200161395d565b838111156136265750506000910152565b60208152600082518060208401526139a581604085016020870161395a565b601f01601f19169190910160400192915050565b6001600160a01b038116811461193657600080fd5b600080604083850312156139e157600080fd5b82356139ec816139b9565b946020939093013593505050565b600060208284031215613a0c57600080fd5b5035919050565b600080600060608486031215613a2857600080fd5b8335613a33816139b9565b92506020840135613a43816139b9565b929592945050506040919091013590565b803560ff81168114613a6557600080fd5b919050565b600080600080600060a08688031215613a8257600080fd5b8535945060208601359350613a9960408701613a54565b94979396509394606081013594506080013592915050565b600060208284031215613ac357600080fd5b813561095e816139b9565b60008060408385031215613ae157600080fd5b8235613aec816139b9565b91506020830135613afc816139b9565b809150509250929050565b600080600080600080600060e0888a031215613b2257600080fd5b8735613b2d816139b9565b96506020880135613b3d816139b9565b95506040880135945060608801359350613b5960808901613a54565b925060a0880135915060c0880135905092959891949750929550565b600181811c90821680613b8957607f821691505b602082108103613ba957634e487b7160e01b600052602260045260246000fd5b50919050565b634e487b7160e01b600052601160045260246000fd5b600082821015613bd757613bd7613baf565b500390565b600060208284031215613bee57600080fd5b5051919050565b600060208284031215613c0757600080fd5b8151801515811461095e57600080fd5b60008219821115613c2a57613c2a613baf565b500190565b634e487b7160e01b600052603260045260246000fd5b600060018201613c5757613c57613baf565b5060010190565b634e487b7160e01b600052603160045260246000fd5b6000816000190483118215151615613c8e57613c8e613baf565b500290565b600082613cb057634e487b7160e01b600052601260045260246000fd5b500490565b634e487b7160e01b600052604160045260246000fd5b6040516080810167ffffffffffffffff81118282101715613cee57613cee613cb5565b60405290565b604051601f8201601f1916810167ffffffffffffffff81118282101715613d1d57613d1d613cb5565b604052919050565b600067ffffffffffffffff821115613d3f57613d3f613cb5565b5060051b60200190565b600082601f830112613d5a57600080fd5b81516020613d6f613d6a83613d25565b613cf4565b82815260059290921b84018101918181019086841115613d8e57600080fd5b8286015b84811015613da95780518352918301918301613d92565b509695505050505050565b600082601f830112613dc557600080fd5b81516020613dd5613d6a83613d25565b82815260059290921b84018101918181019086841115613df457600080fd5b8286015b84811015613da9578051613e0b816139b9565b8352918301918301613df8565b600060208284031215613e2a57600080fd5b815167ffffffffffffffff80821115613e4257600080fd5b9083019060808286031215613e5657600080fd5b613e5e613ccb565b825182811115613e6d57600080fd5b613e7987828601613d49565b825250602083015182811115613e8e57600080fd5b613e9a87828601613db4565b602083015250604083015182811115613eb257600080fd5b613ebe87828601613db4565b6040830152506060830151606082015280935050505092915050565b600080835481600182811c915080831680613ef657607f831692505b60208084108203613f1557634e487b7160e01b86526022600452602486fd5b818015613f295760018114613f3a57613f67565b60ff19861689528489019650613f67565b60008a81526020902060005b86811015613f5f5781548b820152908501908301613f46565b505084890196505b509498975050505050505050565b600060208284031215613f8757600080fd5b815161095e816139b9565b60008060408385031215613fa557600080fd5b825167ffffffffffffffff80821115613fbd57600080fd5b613fc986838701613db4565b93506020850151915080821115613fdf57600080fd5b50613fec85828601613d49565b9150509250929050565b600081518084526020808501945080840160005b8381101561402f5781516001600160a01b03168752958201959082019060010161400a565b509495945050505050565b60208082528251608083830152805160a0840181905260009291820190839060c08601905b8083101561407f578351825292840192600192909201919084019061405f565b50838701519350601f1992508286820301604087015261409f8185613ff6565b935050506040850151818584030160608601526140bc8382613ff6565b92505050606084015160808401528091505092915050565b600082516140e681846020870161395a565b919091019291505056fea2646970667358221220c2a114767afe39db5faf415a3b7a477f18f475ffbdbe23e870c6279f5a5b0a3e64736f6c634300080d00334f776e61626c653a2063616c6c6572206973206e6f7420746865206f776e65728be0079c531659141344cd1fd0a4f28419497f9722a3daafe3b4186f6b6457e0",
  "devdoc": {
    "kind": "dev",
    "methods": {
      "allowance(address,address)": {
        "params": {
          "account": "The address of the account holding the funds",
          "spender": "The address of the account spending the funds"
        },
        "returns": {
          "_0": "The number of tokens approved"
        }
      },
      "approve(address,uint256)": {
        "details": "This will overwrite the approval amount for `spender` and is subject to issues noted [here](https://eips.ethereum.org/EIPS/eip-20#approve) It is recommended to use increaseAllowance and decreaseAllowance instead",
        "params": {
          "amount": "The number of tokens that are approved (2^256-1 means infinite)",
          "spender": "The address of the account which may transfer tokens"
        },
        "returns": {
          "_0": "Whether or not the approval succeeded"
        }
      },
      "balanceOf(address)": {
        "params": {
          "account": "The address of the account to get the balance of"
        },
        "returns": {
          "_0": "The number of tokens held"
        }
      },
      "checkReward()": {
        "returns": {
          "_0": "reward tokens"
        }
      },
      "deposit(uint256)": {
        "params": {
          "_amount": "Amount of tokens to deposit"
        }
      },
      "depositWithPermit(uint256,uint256,uint8,bytes32,bytes32)": {
        "params": {
          "_amount": "Amount of tokens to deposit",
          "_deadline": "The time at which to expire the signature",
          "_r": "Half of the ECDSA signature pair",
          "_s": "Half of the ECDSA signature pair",
          "_v": "The recovery byte of the signature"
        }
      },
      "estimateReinvestReward()": {
        "returns": {
          "_0": "reward tokens"
        }
      },
      "getDepositTokensForShares(uint256)": {
        "params": {
          "amount": "receipt tokens"
        },
        "returns": {
          "_0": "deposit tokens"
        }
      },
      "getDomainSeparator()": {
        "returns": {
          "_0": "Separator"
        }
      },
      "getSharesForDepositTokens(uint256)": {
        "details": "If contract is empty, use 1:1 ratioCould return zero shares for very low amounts of deposit tokens",
        "params": {
          "amount": "deposit tokens"
        },
        "returns": {
          "_0": "receipt tokens"
        }
      },
      "owner()": {
        "details": "Returns the address of the current owner."
      },
      "permit(address,address,uint256,uint256,uint8,bytes32,bytes32)": {
        "params": {
          "deadline": "The time at which to expire the signature",
          "owner": "The address to approve from",
          "r": "Half of the ECDSA signature pair",
          "s": "Half of the ECDSA signature pair",
          "spender": "The address to be approved",
          "v": "The recovery byte of the signature",
          "value": "The number of tokens that are approved (2^256-1 means infinite)"
        }
      },
      "recoverERC20(address,uint256)": {
        "params": {
          "tokenAddress": "token address",
          "tokenAmount": "amount to recover"
        }
      },
      "recoverGas(uint256)": {
        "params": {
          "amount": "amount"
        }
      },
      "renounceOwnership()": {
        "details": "Leaves the contract without owner. It will not be possible to call `onlyOwner` functions anymore. Can only be called by the current owner. NOTE: Renouncing ownership will leave the contract without an owner, thereby removing any functionality that is only available to the owner."
      },
      "revokeAllowance(address,address)": {
        "params": {
          "spender": "address",
          "token": "address"
        }
      },
      "totalDeposits()": {
        "returns": {
          "_0": "total deposits available on the contract"
        }
      },
      "transfer(address,uint256)": {
        "params": {
          "amount": "The number of tokens to transfer",
          "dst": "The address of the destination account"
        },
        "returns": {
          "_0": "Whether or not the transfer succeeded"
        }
      },
      "transferFrom(address,address,uint256)": {
        "params": {
          "amount": "The number of tokens to transfer",
          "dst": "The address of the destination account",
          "src": "The address of the source account"
        },
        "returns": {
          "_0": "Whether or not the transfer succeeded"
        }
      },
      "transferOwnership(address)": {
        "details": "Transfers ownership of the contract to a new account (`newOwner`). Can only be called by the current owner."
      },
      "updateDevAddr(address)": {
        "params": {
          "newValue": "address"
        }
      },
      "updateDevFee(uint256)": {
        "params": {
          "newValue": "fee in BIPS"
        }
      },
      "updateFeeCollector(address)": {
        "params": {
          "newValue": "address"
        }
      },
      "updateMinTokensToReinvest(uint256)": {
        "params": {
          "newValue": "threshold"
        }
      },
      "updateReinvestReward(uint256)": {
        "params": {
          "newValue": "fee in BIPS"
        }
      }
    },
    "version": 1
  },
  "userdoc": {
    "kind": "user",
    "methods": {
      "allowance(address,address)": {
        "notice": "Get the number of tokens `spender` is approved to spend on behalf of `account`"
      },
      "approve(address,uint256)": {
        "notice": "Approve `spender` to transfer up to `amount` from `src`"
      },
      "balanceOf(address)": {
        "notice": "Get the number of tokens held by the `account`"
      },
      "checkReward()": {
        "notice": "Reward tokens available to strategy, including balance"
      },
      "deposit(uint256)": {
        "notice": "Deposit tokens to receive receipt tokens"
      },
      "depositWithPermit(uint256,uint256,uint8,bytes32,bytes32)": {
        "notice": "Deposit using Permit"
      },
      "disableDeposits()": {
        "notice": "Disable deposits"
      },
      "enableDeposits()": {
        "notice": "Enable deposits"
      },
      "estimateReinvestReward()": {
        "notice": "Estimate reinvest reward"
      },
      "getDepositTokensForShares(uint256)": {
        "notice": "Calculate deposit tokens for a given amount of receipt tokens"
      },
      "getDomainSeparator()": {
        "notice": "EIP-712 Domain separator"
      },
      "getSharesForDepositTokens(uint256)": {
        "notice": "Calculate receipt tokens for a given amount of deposit tokens"
      },
      "permit(address,address,uint256,uint256,uint8,bytes32,bytes32)": {
        "notice": "Triggers an approval from owner to spender"
      },
      "recoverERC20(address,uint256)": {
        "notice": "Recover ERC20 from contract"
      },
      "recoverGas(uint256)": {
        "notice": "Recover GAS from contract"
      },
      "reinvest()": {
        "notice": "Reinvest reward tokens into deposit tokens"
      },
      "revokeAllowance(address,address)": {
        "notice": "Revoke token allowance"
      },
      "totalDeposits()": {
        "notice": "This function returns a snapshot of last available quotes"
      },
      "transfer(address,uint256)": {
        "notice": "Transfer `amount` tokens from `msg.sender` to `dst`"
      },
      "transferFrom(address,address,uint256)": {
        "notice": "Transfer `amount` tokens from `src` to `dst`"
      },
      "updateDevAddr(address)": {
        "notice": "Update devAddr"
      },
      "updateDevFee(uint256)": {
        "notice": "Update developer fee"
      },
      "updateFeeCollector(address)": {
        "notice": "Update feeCollector"
      },
      "updateMinTokensToReinvest(uint256)": {
        "notice": "Update reinvest min threshold"
      },
      "updateReinvestReward(uint256)": {
        "notice": "Update reinvest reward"
      }
    },
    "version": 1
  },
  "storageLayout": {
    "storage": [
      {
        "astId": 5,
        "contract": "contracts/strategies/mantle/moe/CompoundingMoe.sol:CompoundingMoe",
        "label": "name",
        "offset": 0,
        "slot": "0",
        "type": "t_string_storage"
      },
      {
        "astId": 8,
        "contract": "contracts/strategies/mantle/moe/CompoundingMoe.sol:CompoundingMoe",
        "label": "symbol",
        "offset": 0,
        "slot": "1",
        "type": "t_string_storage"
      },
      {
        "astId": 13,
        "contract": "contracts/strategies/mantle/moe/CompoundingMoe.sol:CompoundingMoe",
        "label": "totalSupply",
        "offset": 0,
        "slot": "2",
        "type": "t_uint256"
      },
      {
        "astId": 19,
        "contract": "contracts/strategies/mantle/moe/CompoundingMoe.sol:CompoundingMoe",
        "label": "allowances",
        "offset": 0,
        "slot": "3",
        "type": "t_mapping(t_address,t_mapping(t_address,t_uint256))"
      },
      {
        "astId": 23,
        "contract": "contracts/strategies/mantle/moe/CompoundingMoe.sol:CompoundingMoe",
        "label": "balances",
        "offset": 0,
        "slot": "4",
        "type": "t_mapping(t_address,t_uint256)"
      },
      {
        "astId": 39,
        "contract": "contracts/strategies/mantle/moe/CompoundingMoe.sol:CompoundingMoe",
        "label": "nonces",
        "offset": 0,
        "slot": "5",
        "type": "t_mapping(t_address,t_uint256)"
      },
      {
        "astId": 1595,
        "contract": "contracts/strategies/mantle/moe/CompoundingMoe.sol:CompoundingMoe",
        "label": "_owner",
        "offset": 0,
        "slot": "6",
        "type": "t_address"
      },
      {
        "astId": 552,
        "contract": "contracts/strategies/mantle/moe/CompoundingMoe.sol:CompoundingMoe",
        "label": "devAddr",
        "offset": 0,
        "slot": "7",
        "type": "t_address"
      },
      {
        "astId": 554,
        "contract": "contracts/strategies/mantle/moe/CompoundingMoe.sol:CompoundingMoe",
        "label": "feeCollector",
        "offset": 0,
        "slot": "8",
        "type": "t_address"
      },
      {
        "astId": 556,
        "contract": "contracts/strategies/mantle/moe/CompoundingMoe.sol:CompoundingMoe",
        "label": "MIN_TOKENS_TO_REINVEST",
        "offset": 0,
        "slot": "9",
        "type": "t_uint256"
      },
      {
        "astId": 558,
        "contract": "contracts/strategies/mantle/moe/CompoundingMoe.sol:CompoundingMoe",
        "label": "DEPOSITS_ENABLED",
        "offset": 0,
        "slot": "10",
        "type": "t_bool"
      },
      {
        "astId": 560,
        "contract": "contracts/strategies/mantle/moe/CompoundingMoe.sol:CompoundingMoe",
        "label": "REINVEST_REWARD_BIPS",
        "offset": 0,
        "slot": "11",
        "type": "t_uint256"
      },
      {
        "astId": 562,
        "contract": "contracts/strategies/mantle/moe/CompoundingMoe.sol:CompoundingMoe",
        "label": "DEV_FEE_BIPS",
        "offset": 0,
        "slot": "12",
        "type": "t_uint256"
      },
      {
        "astId": 2197,
        "contract": "contracts/strategies/mantle/moe/CompoundingMoe.sol:CompoundingMoe",
        "label": "supportedRewards",
        "offset": 0,
        "slot": "13",
        "type": "t_array(t_address)dyn_storage"
      },
      {
        "astId": 2200,
        "contract": "contracts/strategies/mantle/moe/CompoundingMoe.sol:CompoundingMoe",
        "label": "simpleRouter",
        "offset": 0,
        "slot": "14",
        "type": "t_contract(ISimpleRouter)1252"
      },
      {
        "astId": 3252,
        "contract": "contracts/strategies/mantle/moe/CompoundingMoe.sol:CompoundingMoe",
        "label": "moeStaking",
        "offset": 0,
        "slot": "15",
        "type": "t_contract(IMoeStaking)3462"
      }
    ],
    "types": {
      "t_address": {
        "encoding": "inplace",
        "label": "address",
        "numberOfBytes": "20"
      },
      "t_array(t_address)dyn_storage": {
        "base": "t_address",
        "encoding": "dynamic_array",
        "label": "address[]",
        "numberOfBytes": "32"
      },
      "t_bool": {
        "encoding": "inplace",
        "label": "bool",
        "numberOfBytes": "1"
      },
      "t_contract(IMoeStaking)3462": {
        "encoding": "inplace",
        "label": "contract IMoeStaking",
        "numberOfBytes": "20"
      },
      "t_contract(ISimpleRouter)1252": {
        "encoding": "inplace",
        "label": "contract ISimpleRouter",
        "numberOfBytes": "20"
      },
      "t_mapping(t_address,t_mapping(t_address,t_uint256))": {
        "encoding": "mapping",
        "key": "t_address",
        "label": "mapping(address => mapping(address => uint256))",
        "numberOfBytes": "32",
        "value": "t_mapping(t_address,t_uint256)"
      },
      "t_mapping(t_address,t_uint256)": {
        "encoding": "mapping",
        "key": "t_address",
        "label": "mapping(address => uint256)",
        "numberOfBytes": "32",
        "value": "t_uint256"
      },
      "t_string_storage": {
        "encoding": "bytes",
        "label": "string",
        "numberOfBytes": "32"
      },
      "t_uint256": {
        "encoding": "inplace",
        "label": "uint256",
        "numberOfBytes": "32"
      }
    }
  }
}