{
  "address": "0x87a4165Dbb0A637dC635Db762Bb5945c685c43bF",
  "abi": [
    {
      "inputs": [],
      "stateMutability": "nonpayable",
      "type": "constructor"
    },
    {
      "inputs": [
        {
          "internalType": "address",
          "name": "strategyAddress",
          "type": "address"
        }
      ],
      "name": "strategyInfo",
      "outputs": [
        {
          "components": [
            {
              "internalType": "uint256",
              "name": "totalSupply",
              "type": "uint256"
            },
            {
              "internalType": "uint256",
              "name": "totalDeposits",
              "type": "uint256"
            },
            {
              "internalType": "uint256",
              "name": "reward",
              "type": "uint256"
            },
            {
              "internalType": "uint256",
              "name": "reinvestRewardBips",
              "type": "uint256"
            }
          ],
          "internalType": "struct StrategyHelper.StrategyInfo",
          "name": "",
          "type": "tuple"
        }
      ],
      "stateMutability": "view",
      "type": "function"
    }
  ],
  "transactionHash": "0xd26db31125798b5e32af652032bdb6b61e8d032b6045d31b5fa72cd5dd577383",
  "args": [],
  "solcInputHash": "37f24502a458ff55a500091e2016b58b",
  "bytecode": "0x608060405234801561001057600080fd5b50610308806100206000396000f3fe608060405234801561001057600080fd5b506004361061002b5760003560e01c8063b7565cec14610030575b600080fd5b61004361003e366004610289565b61007f565b60405161007691908151815260208083015190820152604080830151908201526060918201519181019190915260800190565b60405180910390f35b6100aa6040518060800160405280600081526020016000815260200160008152602001600081525090565b60008290506100da6040518060800160405280600081526020016000815260200160008152602001600081525090565b816001600160a01b03166318160ddd6040518163ffffffff1660e01b8152600401602060405180830381865afa158015610118573d6000803e3d6000fd5b505050506040513d601f19601f8201168201806040525081019061013c91906102b9565b816000018181525050816001600160a01b0316637d8820976040518163ffffffff1660e01b8152600401602060405180830381865afa158015610183573d6000803e3d6000fd5b505050506040513d601f19601f820116820180604052508101906101a791906102b9565b816020018181525050816001600160a01b031663c4b24a466040518163ffffffff1660e01b8152600401602060405180830381865afa1580156101ee573d6000803e3d6000fd5b505050506040513d601f19601f8201168201806040525081019061021291906102b9565b816040018181525050816001600160a01b0316638aff733d6040518163ffffffff1660e01b8152600401602060405180830381865afa158015610259573d6000803e3d6000fd5b505050506040513d601f19601f8201168201806040525081019061027d91906102b9565b60608201529392505050565b60006020828403121561029b57600080fd5b81356001600160a01b03811681146102b257600080fd5b9392505050565b6000602082840312156102cb57600080fd5b505191905056fea264697066735822122038e1daf5d774407cf3e44c10e5fdb2c5c9cacf3e8047aa7af2dc3e4b05e82e7464736f6c634300080d0033",
  "devdoc": {
    "kind": "dev",
    "methods": {},
    "version": 1
  },
  "userdoc": {
    "kind": "user",
    "methods": {},
    "version": 1
  },
  "storageLayout": {
    "storage": [],
    "types": null
  }
}