{
  "address": "0x37a1d4c6523205f63511EaC71fdf30Cc832DFFe7",
  "abi": [
    {
      "inputs": [
        {
          "internalType": "address",
          "name": "_stakingContract",
          "type": "address"
        },
        {
          "components": [
            {
              "internalType": "address",
              "name": "gasToken",
              "type": "address"
            },
            {
              "internalType": "address[]",
              "name": "rewards",
              "type": "address[]"
            },
            {
              "internalType": "address",
              "name": "simpleRouter",
              "type": "address"
            }
          ],
          "internalType": "struct BaseStrategy.BaseStrategySettings",
          "name": "_settings",
          "type": "tuple"
        },
        {
          "components": [
            {
              "internalType": "string",
              "name": "name",
              "type": "string"
            },
            {
              "internalType": "address",
              "name": "owner",
              "type": "address"
            },
            {
              "internalType": "address",
              "name": "dev",
              "type": "address"
            },
            {
              "internalType": "address",
              "name": "feeCollector",
              "type": "address"
            },
            {
              "internalType": "address",
              "name": "depositToken",
              "type": "address"
            },
            {
              "internalType": "address",
              "name": "rewardToken",
              "type": "address"
            },
            {
              "internalType": "uint256",
              "name": "minTokensToReinvest",
              "type": "uint256"
            },
            {
              "internalType": "uint256",
              "name": "devFeeBips",
              "type": "uint256"
            },
            {
              "internalType": "uint256",
              "name": "reinvestRewardBips",
              "type": "uint256"
            }
          ],
          "internalType": "struct YakStrategyV3.StrategySettings",
          "name": "_strategySettings",
          "type": "tuple"
        }
      ],
      "stateMutability": "nonpayable",
      "type": "constructor"
    },
    {
      "anonymous": false,
      "inputs": [
        {
          "indexed": false,
          "internalType": "address",
          "name": "rewardToken",
          "type": "address"
        }
      ],
      "name": "AddReward",
      "type": "event"
    },
    {
      "anonymous": false,
      "inputs": [
        {
          "indexed": true,
          "internalType": "address",
          "name": "owner",
          "type": "address"
        },
        {
          "indexed": true,
          "internalType": "address",
          "name": "spender",
          "type": "address"
        },
        {
          "indexed": false,
          "internalType": "uint256",
          "name": "value",
          "type": "uint256"
        }
      ],
      "name": "Approval",
      "type": "event"
    },
    {
      "anonymous": false,
      "inputs": [
        {
          "indexed": true,
          "internalType": "address",
          "name": "account",
          "type": "address"
        },
        {
          "indexed": false,
          "internalType": "uint256",
          "name": "amount",
          "type": "uint256"
        }
      ],
      "name": "Deposit",
      "type": "event"
    },
    {
      "anonymous": false,
      "inputs": [
        {
          "indexed": false,
          "internalType": "bool",
          "name": "newValue",
          "type": "bool"
        }
      ],
      "name": "DepositsEnabled",
      "type": "event"
    },
    {
      "anonymous": false,
      "inputs": [
        {
          "indexed": true,
          "internalType": "address",
          "name": "previousOwner",
          "type": "address"
        },
        {
          "indexed": true,
          "internalType": "address",
          "name": "newOwner",
          "type": "address"
        }
      ],
      "name": "OwnershipTransferred",
      "type": "event"
    },
    {
      "anonymous": false,
      "inputs": [
        {
          "indexed": false,
          "internalType": "address",
          "name": "token",
          "type": "address"
        },
        {
          "indexed": false,
          "internalType": "uint256",
          "name": "amount",
          "type": "uint256"
        }
      ],
      "name": "Recovered",
      "type": "event"
    },
    {
      "anonymous": false,
      "inputs": [
        {
          "indexed": false,
          "internalType": "uint256",
          "name": "newTotalDeposits",
          "type": "uint256"
        },
        {
          "indexed": false,
          "internalType": "uint256",
          "name": "newTotalSupply",
          "type": "uint256"
        }
      ],
      "name": "Reinvest",
      "type": "event"
    },
    {
      "anonymous": false,
      "inputs": [
        {
          "indexed": false,
          "internalType": "address",
          "name": "rewardToken",
          "type": "address"
        }
      ],
      "name": "RemoveReward",
      "type": "event"
    },
    {
      "anonymous": false,
      "inputs": [
        {
          "indexed": true,
          "internalType": "address",
          "name": "from",
          "type": "address"
        },
        {
          "indexed": true,
          "internalType": "address",
          "name": "to",
          "type": "address"
        },
        {
          "indexed": false,
          "internalType": "uint256",
          "name": "value",
          "type": "uint256"
        }
      ],
      "name": "Transfer",
      "type": "event"
    },
    {
      "anonymous": false,
      "inputs": [
        {
          "indexed": false,
          "internalType": "address",
          "name": "oldValue",
          "type": "address"
        },
        {
          "indexed": false,
          "internalType": "address",
          "name": "newValue",
          "type": "address"
        }
      ],
      "name": "UpdateDevAddr",
      "type": "event"
    },
    {
      "anonymous": false,
      "inputs": [
        {
          "indexed": false,
          "internalType": "uint256",
          "name": "oldValue",
          "type": "uint256"
        },
        {
          "indexed": false,
          "internalType": "uint256",
          "name": "newValue",
          "type": "uint256"
        }
      ],
      "name": "UpdateDevFee",
      "type": "event"
    },
    {
      "anonymous": false,
      "inputs": [
        {
          "indexed": false,
          "internalType": "address",
          "name": "oldValue",
          "type": "address"
        },
        {
          "indexed": false,
          "internalType": "address",
          "name": "newValue",
          "type": "address"
        }
      ],
      "name": "UpdateFeeCollector",
      "type": "event"
    },
    {
      "anonymous": false,
      "inputs": [
        {
          "indexed": false,
          "internalType": "uint256",
          "name": "oldValue",
          "type": "uint256"
        },
        {
          "indexed": false,
          "internalType": "uint256",
          "name": "newValue",
          "type": "uint256"
        }
      ],
      "name": "UpdateMaxTokensToDepositWithoutReinvest",
      "type": "event"
    },
    {
      "anonymous": false,
      "inputs": [
        {
          "indexed": false,
          "internalType": "uint256",
          "name": "oldValue",
          "type": "uint256"
        },
        {
          "indexed": false,
          "internalType": "uint256",
          "name": "newValue",
          "type": "uint256"
        }
      ],
      "name": "UpdateMinTokensToReinvest",
      "type": "event"
    },
    {
      "anonymous": false,
      "inputs": [
        {
          "indexed": false,
          "internalType": "uint256",
          "name": "oldValue",
          "type": "uint256"
        },
        {
          "indexed": false,
          "internalType": "uint256",
          "name": "newValue",
          "type": "uint256"
        }
      ],
      "name": "UpdateReinvestReward",
      "type": "event"
    },
    {
      "anonymous": false,
      "inputs": [
        {
          "indexed": false,
          "internalType": "address",
          "name": "oldRouter",
          "type": "address"
        },
        {
          "indexed": false,
          "internalType": "address",
          "name": "newRouter",
          "type": "address"
        }
      ],
      "name": "UpdateRouter",
      "type": "event"
    },
    {
      "anonymous": false,
      "inputs": [
        {
          "indexed": true,
          "internalType": "address",
          "name": "account",
          "type": "address"
        },
        {
          "indexed": false,
          "internalType": "uint256",
          "name": "amount",
          "type": "uint256"
        }
      ],
      "name": "Withdraw",
      "type": "event"
    },
    {
      "inputs": [],
      "name": "DEPOSITS_ENABLED",
      "outputs": [
        {
          "internalType": "bool",
          "name": "",
          "type": "bool"
        }
      ],
      "stateMutability": "view",
      "type": "function"
    },
    {
      "inputs": [],
      "name": "DEV_FEE_BIPS",
      "outputs": [
        {
          "internalType": "uint256",
          "name": "",
          "type": "uint256"
        }
      ],
      "stateMutability": "view",
      "type": "function"
    },
    {
      "inputs": [],
      "name": "DOMAIN_TYPEHASH",
      "outputs": [
        {
          "internalType": "bytes32",
          "name": "",
          "type": "bytes32"
        }
      ],
      "stateMutability": "view",
      "type": "function"
    },
    {
      "inputs": [],
      "name": "MIN_TOKENS_TO_REINVEST",
      "outputs": [
        {
          "internalType": "uint256",
          "name": "",
          "type": "uint256"
        }
      ],
      "stateMutability": "view",
      "type": "function"
    },
    {
      "inputs": [],
      "name": "PERMIT_TYPEHASH",
      "outputs": [
        {
          "internalType": "bytes32",
          "name": "",
          "type": "bytes32"
        }
      ],
      "stateMutability": "view",
      "type": "function"
    },
    {
      "inputs": [],
      "name": "REINVEST_REWARD_BIPS",
      "outputs": [
        {
          "internalType": "uint256",
          "name": "",
          "type": "uint256"
        }
      ],
      "stateMutability": "view",
      "type": "function"
    },
    {
      "inputs": [],
      "name": "VERSION_HASH",
      "outputs": [
        {
          "internalType": "bytes32",
          "name": "",
          "type": "bytes32"
        }
      ],
      "stateMutability": "view",
      "type": "function"
    },
    {
      "inputs": [
        {
          "internalType": "address",
          "name": "_rewardToken",
          "type": "address"
        }
      ],
      "name": "addReward",
      "outputs": [],
      "stateMutability": "nonpayable",
      "type": "function"
    },
    {
      "inputs": [
        {
          "internalType": "address",
          "name": "account",
          "type": "address"
        },
        {
          "internalType": "address",
          "name": "spender",
          "type": "address"
        }
      ],
      "name": "allowance",
      "outputs": [
        {
          "internalType": "uint256",
          "name": "",
          "type": "uint256"
        }
      ],
      "stateMutability": "view",
      "type": "function"
    },
    {
      "inputs": [
        {
          "internalType": "address",
          "name": "spender",
          "type": "address"
        },
        {
          "internalType": "uint256",
          "name": "amount",
          "type": "uint256"
        }
      ],
      "name": "approve",
      "outputs": [
        {
          "internalType": "bool",
          "name": "",
          "type": "bool"
        }
      ],
      "stateMutability": "nonpayable",
      "type": "function"
    },
    {
      "inputs": [
        {
          "internalType": "address",
          "name": "account",
          "type": "address"
        }
      ],
      "name": "balanceOf",
      "outputs": [
        {
          "internalType": "uint256",
          "name": "",
          "type": "uint256"
        }
      ],
      "stateMutability": "view",
      "type": "function"
    },
    {
      "inputs": [
        {
          "internalType": "uint256",
          "name": "_amount",
          "type": "uint256"
        }
      ],
      "name": "calculateDepositFee",
      "outputs": [
        {
          "internalType": "uint256",
          "name": "",
          "type": "uint256"
        }
      ],
      "stateMutability": "view",
      "type": "function"
    },
    {
      "inputs": [
        {
          "internalType": "uint256",
          "name": "_amount",
          "type": "uint256"
        }
      ],
      "name": "calculateWithdrawFee",
      "outputs": [
        {
          "internalType": "uint256",
          "name": "",
          "type": "uint256"
        }
      ],
      "stateMutability": "view",
      "type": "function"
    },
    {
      "inputs": [],
      "name": "checkReward",
      "outputs": [
        {
          "internalType": "uint256",
          "name": "",
          "type": "uint256"
        }
      ],
      "stateMutability": "view",
      "type": "function"
    },
    {
      "inputs": [],
      "name": "decimals",
      "outputs": [
        {
          "internalType": "uint8",
          "name": "",
          "type": "uint8"
        }
      ],
      "stateMutability": "view",
      "type": "function"
    },
    {
      "inputs": [
        {
          "internalType": "uint256",
          "name": "_amount",
          "type": "uint256"
        }
      ],
      "name": "deposit",
      "outputs": [],
      "stateMutability": "nonpayable",
      "type": "function"
    },
    {
      "inputs": [
        {
          "internalType": "address",
          "name": "_account",
          "type": "address"
        },
        {
          "internalType": "uint256",
          "name": "_amount",
          "type": "uint256"
        }
      ],
      "name": "depositFor",
      "outputs": [],
      "stateMutability": "nonpayable",
      "type": "function"
    },
    {
      "inputs": [],
      "name": "depositToken",
      "outputs": [
        {
          "internalType": "contract IERC20",
          "name": "",
          "type": "address"
        }
      ],
      "stateMutability": "view",
      "type": "function"
    },
    {
      "inputs": [
        {
          "internalType": "uint256",
          "name": "_amount",
          "type": "uint256"
        },
        {
          "internalType": "uint256",
          "name": "_deadline",
          "type": "uint256"
        },
        {
          "internalType": "uint8",
          "name": "_v",
          "type": "uint8"
        },
        {
          "internalType": "bytes32",
          "name": "_r",
          "type": "bytes32"
        },
        {
          "internalType": "bytes32",
          "name": "_s",
          "type": "bytes32"
        }
      ],
      "name": "depositWithPermit",
      "outputs": [],
      "stateMutability": "nonpayable",
      "type": "function"
    },
    {
      "inputs": [],
      "name": "devAddr",
      "outputs": [
        {
          "internalType": "address",
          "name": "",
          "type": "address"
        }
      ],
      "stateMutability": "view",
      "type": "function"
    },
    {
      "inputs": [],
      "name": "disableDeposits",
      "outputs": [],
      "stateMutability": "nonpayable",
      "type": "function"
    },
    {
      "inputs": [],
      "name": "enableDeposits",
      "outputs": [],
      "stateMutability": "nonpayable",
      "type": "function"
    },
    {
      "inputs": [],
      "name": "estimateReinvestReward",
      "outputs": [
        {
          "internalType": "uint256",
          "name": "",
          "type": "uint256"
        }
      ],
      "stateMutability": "view",
      "type": "function"
    },
    {
      "inputs": [],
      "name": "feeCollector",
      "outputs": [
        {
          "internalType": "address",
          "name": "",
          "type": "address"
        }
      ],
      "stateMutability": "view",
      "type": "function"
    },
    {
      "inputs": [
        {
          "internalType": "uint256",
          "name": "amount",
          "type": "uint256"
        }
      ],
      "name": "getDepositTokensForShares",
      "outputs": [
        {
          "internalType": "uint256",
          "name": "",
          "type": "uint256"
        }
      ],
      "stateMutability": "view",
      "type": "function"
    },
    {
      "inputs": [],
      "name": "getDomainSeparator",
      "outputs": [
        {
          "internalType": "bytes32",
          "name": "",
          "type": "bytes32"
        }
      ],
      "stateMutability": "view",
      "type": "function"
    },
    {
      "inputs": [
        {
          "internalType": "uint256",
          "name": "amount",
          "type": "uint256"
        }
      ],
      "name": "getSharesForDepositTokens",
      "outputs": [
        {
          "internalType": "uint256",
          "name": "",
          "type": "uint256"
        }
      ],
      "stateMutability": "view",
      "type": "function"
    },
    {
      "inputs": [],
      "name": "getSupportedRewardsLength",
      "outputs": [
        {
          "internalType": "uint256",
          "name": "",
          "type": "uint256"
        }
      ],
      "stateMutability": "view",
      "type": "function"
    },
    {
      "inputs": [],
      "name": "name",
      "outputs": [
        {
          "internalType": "string",
          "name": "",
          "type": "string"
        }
      ],
      "stateMutability": "view",
      "type": "function"
    },
    {
      "inputs": [
        {
          "internalType": "address",
          "name": "",
          "type": "address"
        }
      ],
      "name": "nonces",
      "outputs": [
        {
          "internalType": "uint256",
          "name": "",
          "type": "uint256"
        }
      ],
      "stateMutability": "view",
      "type": "function"
    },
    {
      "inputs": [],
      "name": "owner",
      "outputs": [
        {
          "internalType": "address",
          "name": "",
          "type": "address"
        }
      ],
      "stateMutability": "view",
      "type": "function"
    },
    {
      "inputs": [
        {
          "internalType": "address",
          "name": "owner",
          "type": "address"
        },
        {
          "internalType": "address",
          "name": "spender",
          "type": "address"
        },
        {
          "internalType": "uint256",
          "name": "value",
          "type": "uint256"
        },
        {
          "internalType": "uint256",
          "name": "deadline",
          "type": "uint256"
        },
        {
          "internalType": "uint8",
          "name": "v",
          "type": "uint8"
        },
        {
          "internalType": "bytes32",
          "name": "r",
          "type": "bytes32"
        },
        {
          "internalType": "bytes32",
          "name": "s",
          "type": "bytes32"
        }
      ],
      "name": "permit",
      "outputs": [],
      "stateMutability": "nonpayable",
      "type": "function"
    },
    {
      "inputs": [
        {
          "internalType": "address",
          "name": "tokenAddress",
          "type": "address"
        },
        {
          "internalType": "uint256",
          "name": "tokenAmount",
          "type": "uint256"
        }
      ],
      "name": "recoverERC20",
      "outputs": [],
      "stateMutability": "nonpayable",
      "type": "function"
    },
    {
      "inputs": [
        {
          "internalType": "uint256",
          "name": "amount",
          "type": "uint256"
        }
      ],
      "name": "recoverGas",
      "outputs": [],
      "stateMutability": "nonpayable",
      "type": "function"
    },
    {
      "inputs": [],
      "name": "reinvest",
      "outputs": [],
      "stateMutability": "nonpayable",
      "type": "function"
    },
    {
      "inputs": [
        {
          "internalType": "address",
          "name": "_rewardToken",
          "type": "address"
        }
      ],
      "name": "removeReward",
      "outputs": [],
      "stateMutability": "nonpayable",
      "type": "function"
    },
    {
      "inputs": [],
      "name": "renounceOwnership",
      "outputs": [],
      "stateMutability": "nonpayable",
      "type": "function"
    },
    {
      "inputs": [
        {
          "internalType": "uint256",
          "name": "_minReturnAmountAccepted",
          "type": "uint256"
        }
      ],
      "name": "rescueDeployedFunds",
      "outputs": [],
      "stateMutability": "nonpayable",
      "type": "function"
    },
    {
      "inputs": [
        {
          "internalType": "address",
          "name": "token",
          "type": "address"
        },
        {
          "internalType": "address",
          "name": "spender",
          "type": "address"
        }
      ],
      "name": "revokeAllowance",
      "outputs": [],
      "stateMutability": "nonpayable",
      "type": "function"
    },
    {
      "inputs": [],
      "name": "rewardToken",
      "outputs": [
        {
          "internalType": "contract IERC20",
          "name": "",
          "type": "address"
        }
      ],
      "stateMutability": "view",
      "type": "function"
    },
    {
      "inputs": [],
      "name": "simpleRouter",
      "outputs": [
        {
          "internalType": "contract ISimpleRouter",
          "name": "",
          "type": "address"
        }
      ],
      "stateMutability": "view",
      "type": "function"
    },
    {
      "inputs": [],
      "name": "stakingContract",
      "outputs": [
        {
          "internalType": "contract IYYStaking",
          "name": "",
          "type": "address"
        }
      ],
      "stateMutability": "view",
      "type": "function"
    },
    {
      "inputs": [
        {
          "internalType": "uint256",
          "name": "",
          "type": "uint256"
        }
      ],
      "name": "supportedRewards",
      "outputs": [
        {
          "internalType": "address",
          "name": "",
          "type": "address"
        }
      ],
      "stateMutability": "view",
      "type": "function"
    },
    {
      "inputs": [],
      "name": "symbol",
      "outputs": [
        {
          "internalType": "string",
          "name": "",
          "type": "string"
        }
      ],
      "stateMutability": "view",
      "type": "function"
    },
    {
      "inputs": [],
      "name": "totalDeposits",
      "outputs": [
        {
          "internalType": "uint256",
          "name": "",
          "type": "uint256"
        }
      ],
      "stateMutability": "view",
      "type": "function"
    },
    {
      "inputs": [],
      "name": "totalSupply",
      "outputs": [
        {
          "internalType": "uint256",
          "name": "",
          "type": "uint256"
        }
      ],
      "stateMutability": "view",
      "type": "function"
    },
    {
      "inputs": [
        {
          "internalType": "address",
          "name": "dst",
          "type": "address"
        },
        {
          "internalType": "uint256",
          "name": "amount",
          "type": "uint256"
        }
      ],
      "name": "transfer",
      "outputs": [
        {
          "internalType": "bool",
          "name": "",
          "type": "bool"
        }
      ],
      "stateMutability": "nonpayable",
      "type": "function"
    },
    {
      "inputs": [
        {
          "internalType": "address",
          "name": "src",
          "type": "address"
        },
        {
          "internalType": "address",
          "name": "dst",
          "type": "address"
        },
        {
          "internalType": "uint256",
          "name": "amount",
          "type": "uint256"
        }
      ],
      "name": "transferFrom",
      "outputs": [
        {
          "internalType": "bool",
          "name": "",
          "type": "bool"
        }
      ],
      "stateMutability": "nonpayable",
      "type": "function"
    },
    {
      "inputs": [
        {
          "internalType": "address",
          "name": "newOwner",
          "type": "address"
        }
      ],
      "name": "transferOwnership",
      "outputs": [],
      "stateMutability": "nonpayable",
      "type": "function"
    },
    {
      "inputs": [
        {
          "internalType": "address",
          "name": "newValue",
          "type": "address"
        }
      ],
      "name": "updateDevAddr",
      "outputs": [],
      "stateMutability": "nonpayable",
      "type": "function"
    },
    {
      "inputs": [
        {
          "internalType": "uint256",
          "name": "newValue",
          "type": "uint256"
        }
      ],
      "name": "updateDevFee",
      "outputs": [],
      "stateMutability": "nonpayable",
      "type": "function"
    },
    {
      "inputs": [
        {
          "internalType": "address",
          "name": "newValue",
          "type": "address"
        }
      ],
      "name": "updateFeeCollector",
      "outputs": [],
      "stateMutability": "nonpayable",
      "type": "function"
    },
    {
      "inputs": [
        {
          "internalType": "uint256",
          "name": "newValue",
          "type": "uint256"
        }
      ],
      "name": "updateMinTokensToReinvest",
      "outputs": [],
      "stateMutability": "nonpayable",
      "type": "function"
    },
    {
      "inputs": [
        {
          "internalType": "uint256",
          "name": "newValue",
          "type": "uint256"
        }
      ],
      "name": "updateReinvestReward",
      "outputs": [],
      "stateMutability": "nonpayable",
      "type": "function"
    },
    {
      "inputs": [
        {
          "internalType": "address",
          "name": "_router",
          "type": "address"
        }
      ],
      "name": "updateRouter",
      "outputs": [],
      "stateMutability": "nonpayable",
      "type": "function"
    },
    {
      "inputs": [
        {
          "internalType": "uint256",
          "name": "_amount",
          "type": "uint256"
        }
      ],
      "name": "withdraw",
      "outputs": [],
      "stateMutability": "nonpayable",
      "type": "function"
    }
  ],
  "transactionHash": "0x159436ef6f43041fe2e6bad10e8e0ea53f67b37d3150523cd595312a49eb8716",
  "args": [
    "0xF54D65AeB65b093A6BF717b541894ee6471A6CE1",
    {
      "gasToken": "0x78c1b0C915c4FAA5FffA6CAbf0219DA63d7f4cb8",
      "rewards": [
        "0x78c1b0C915c4FAA5FffA6CAbf0219DA63d7f4cb8"
      ],
      "simpleRouter": "0xF321fd6D29d826420ca2a242DFf2aA6dB88B1196"
    },
    {
      "name": "Yield Yak: YAK",
      "owner": "0xDcEDF06Fd33E1D7b6eb4b309f779a0e9D3172e44",
      "dev": "0xDcEDF06Fd33E1D7b6eb4b309f779a0e9D3172e44",
      "feeCollector": "0xF54D65AeB65b093A6BF717b541894ee6471A6CE1",
      "depositToken": "0x7f4dB37D7bEb31F445307782Bc3Da0F18dF13696",
      "rewardToken": "0x78c1b0C915c4FAA5FffA6CAbf0219DA63d7f4cb8",
      "minTokensToReinvest": "1000",
      "devFeeBips": 700,
      "reinvestRewardBips": 300
    }
  ],
  "solcInputHash": "793ead65096abbece365b318532b69da",
  "bytecode": "0x610120604052600960e0819052685969656c642059616b60b81b6101009081526200002e916000919062000749565b506040805180820190915260038082526216549560ea1b60209092019182526200005b9160019162000749565b503480156200006957600080fd5b5060405162004eef38038062004eef8339810160408190526200008c9162000a61565b600680546001600160a01b0319163390811790915560405183918391829190819060009060008051602062004ecf833981519152908290a35080518051620000dd9160009160209091019062000749565b506080808201516001600160a01b0390811690915260a0808301519091169052600780546001600160a01b0319163317905560c08101516200011f906200022a565b60e08101516200012f90620002cb565b610100810151620001409062000387565b6060810151620001509062000443565b60408101516200016090620004f7565b6200016a620005ab565b60208101516200017a906200064c565b5081516001600160a01b031660c0526020808301518051620001a192600d920190620007d8565b50604082810151600e80546001600160a01b0319166001600160a01b039092169190911790558051600080825260208201527fc7606d21ac05cd309191543e409f0845c016120563783d70e4f41419dc0ef234910160405180910390a15050600f80546001600160a01b0319166001600160a01b0394909416939093179092555062000c0e9050565b6007546001600160a01b031633146200028a5760405162461bcd60e51b815260206004820152601460248201527f59616b53747261746567793a3a6f6e6c7944657600000000000000000000000060448201526064015b60405180910390fd5b60095460408051918252602082018390527f481f79ac3a523b6d6db3c5a720e190e986d1cc1b41adcdf50f9caef849901100910160405180910390a1600955565b6007546001600160a01b03163314620003275760405162461bcd60e51b815260206004820152601460248201527f59616b53747261746567793a3a6f6e6c79446576000000000000000000000000604482015260640162000281565b612710600b54826200033a919062000bab565b11156200034657600080fd5b600c5460408051918252602082018390527f2a42303d002f0ba6cfe8259c91d4684443fb0b3de286ba74991175d651726131910160405180910390a1600c55565b6007546001600160a01b03163314620003e35760405162461bcd60e51b815260206004820152601460248201527f59616b53747261746567793a3a6f6e6c79446576000000000000000000000000604482015260640162000281565b612710600c5482620003f6919062000bab565b11156200040257600080fd5b600b5460408051918252602082018390527fe7f97d51d307dc44045597c9978bec0f842e6bb40d19b9444084cfa30d9ed4f2910160405180910390a1600b55565b6006546001600160a01b031633146200048e5760405162461bcd60e51b8152602060048201819052602482015260008051602062004eaf833981519152604482015260640162000281565b600854604080516001600160a01b03928316815291831660208301527fcc882185e6edeeb762130016ea1faf3d7aa9c01b199bfd646f965b58ab741063910160405180910390a1600880546001600160a01b0319166001600160a01b0392909216919091179055565b6006546001600160a01b03163314620005425760405162461bcd60e51b8152602060048201819052602482015260008051602062004eaf833981519152604482015260640162000281565b600754604080516001600160a01b03928316815291831660208301527fa8e91499ed37682f43cffb045fcc7d379a91e8c9a14e6321877ee34dee564c00910160405180910390a1600780546001600160a01b0319166001600160a01b0392909216919091179055565b6006546001600160a01b03163314620005f65760405162461bcd60e51b8152602060048201819052602482015260008051602062004eaf833981519152604482015260640162000281565b600a5460ff16156200060757600080fd5b600a805460ff191660019081179091556040519081527f7b014ed3854e7f5cb0218d58b3c6ae7d53a68bb0af2f67bfb029ea42c38a7e859060200160405180910390a1565b6006546001600160a01b03163314620006975760405162461bcd60e51b8152602060048201819052602482015260008051602062004eaf833981519152604482015260640162000281565b6001600160a01b038116620006fe5760405162461bcd60e51b815260206004820152602660248201527f4f776e61626c653a206e6577206f776e657220697320746865207a65726f206160448201526564647265737360d01b606482015260840162000281565b6006546040516001600160a01b0380841692169060008051602062004ecf83398151915290600090a3600680546001600160a01b0319166001600160a01b0392909216919091179055565b828054620007579062000bd2565b90600052602060002090601f0160209004810192826200077b5760008555620007c6565b82601f106200079657805160ff1916838001178555620007c6565b82800160010185558215620007c6579182015b82811115620007c6578251825591602001919060010190620007a9565b50620007d492915062000830565b5090565b828054828255906000526020600020908101928215620007c6579160200282015b82811115620007c657825182546001600160a01b0319166001600160a01b03909116178255602090920191600190910190620007f9565b5b80821115620007d4576000815560010162000831565b80516001600160a01b03811681146200085f57600080fd5b919050565b634e487b7160e01b600052604160045260246000fd5b60405161012081016001600160401b0381118282101715620008a057620008a062000864565b60405290565b604051606081016001600160401b0381118282101715620008a057620008a062000864565b604051601f8201601f191681016001600160401b0381118282101715620008f657620008f662000864565b604052919050565b600082601f8301126200091057600080fd5b81516001600160401b038111156200092c576200092c62000864565b602062000942601f8301601f19168201620008cb565b82815285828487010111156200095757600080fd5b60005b83811015620009775785810183015182820184015282016200095a565b83811115620009895760008385840101525b5095945050505050565b60006101208284031215620009a757600080fd5b620009b16200087a565b82519091506001600160401b03811115620009cb57600080fd5b620009d984828501620008fe565b825250620009ea6020830162000847565b6020820152620009fd6040830162000847565b604082015262000a106060830162000847565b606082015262000a236080830162000847565b608082015262000a3660a0830162000847565b60a082015260c082015160c082015260e082015160e082015261010080830151818301525092915050565b60008060006060848603121562000a7757600080fd5b62000a828462000847565b602085810151919450906001600160401b038082111562000aa257600080fd5b908601906060828903121562000ab757600080fd5b62000ac1620008a6565b62000acc8362000847565b8152838301518281111562000ae057600080fd5b8301601f81018a1362000af257600080fd5b80518381111562000b075762000b0762000864565b8060051b62000b18878201620008cb565b918252828101870191878101908d84111562000b3357600080fd5b938801935b8385101562000b5c5762000b4c8562000847565b8252938801939088019062000b38565b858901525062000b73925050506040840162000847565b604082015280955050604087015192508083111562000b9157600080fd5b505062000ba18682870162000993565b9150509250925092565b6000821982111562000bcd57634e487b7160e01b600052601160045260246000fd5b500190565b600181811c9082168062000be757607f821691505b60208210810362000c0857634e487b7160e01b600052602260045260246000fd5b50919050565b60805160a05160c0516141d062000cdf60003960008181611a6d015281816131ec0152818161321b01526132900152600081816107d0015281816119d001528181611ad501528181611c1401528181612d3b01528181612da301528181613138015281816132ba01528181613376015281816133d9015281816134b601526135080152600081816106bd01528181610a3d01528181610b1001528181610ca701528181610d3c015281816126dc015281816128c70152818161348c0152818161353001526135ec01526141d06000f3fe608060405234801561001057600080fd5b50600436106103785760003560e01c806399729ec1116101d3578063c89039c511610104578063eab89a5a116100a2578063f2fde38b1161007c578063f2fde38b146107a5578063f6314d07146107b8578063f7c618c1146107cb578063fdb5a03e146107f257600080fd5b8063eab89a5a14610777578063ed24911d1461078a578063ee99205c1461079257600080fd5b8063da09c72c116100de578063da09c72c14610705578063dd62ed3e14610718578063dd8ce4d614610751578063e75ab0451461076457600080fd5b8063c89039c5146106b8578063d2c35ce8146106df578063d505accf146106f257600080fd5b8063b52a321f11610171578063bd079f551161014b578063bd079f5514610681578063c415b95c1461068a578063c4b24a461461069d578063c851cc32146106a557600080fd5b8063b52a321f14610659578063b6b55f2514610666578063b9e57b801461067957600080fd5b8063a4d5e67c116101ad578063a4d5e67c14610618578063a8ae2b7c1461062b578063a9059cbb1461063e578063ac67e1af1461065157600080fd5b806399729ec1146105cb5780639c9b2e21146105de5780639e4e7318146105f157600080fd5b80635ea682ea116102ad5780637ecebe001161024b5780638aff733d116102255780638aff733d146105825780638da5cb5b1461058b5780639291d563146105b057806395d89b41146105c357600080fd5b80637ecebe001461053c578063818372301461055c5780638980f11f1461056f57600080fd5b8063715018a611610287578063715018a6146105065780637897e7f61461050e5780637ae26773146105215780637d8820971461053457600080fd5b80635ea682ea146104c1578063666d25b9146104ca57806370a08231146104dd57600080fd5b8063258250da1161031a57806330adf81f116102f457806330adf81f14610465578063313ce5671461048c5780634a970be7146104a65780635e4c57a4146104b957600080fd5b8063258250da146104355780632e1a7d4d1461043d5780632f4f21e21461045257600080fd5b806318160ddd1161035657806318160ddd146103df57806320606b70146103e857806323b872dd1461040f578063247d284b1461042257600080fd5b806306fdde031461037d578063095ea7b31461039b57806311056035146103be575b600080fd5b6103856107fa565b6040516103929190613a78565b60405180910390f35b6103ae6103a9366004613ac0565b610888565b6040519015158152602001610392565b6103d16103cc366004613aec565b61089e565b604051908152602001610392565b6103d160025481565b6103d17f8b73c3c69bb8fe3d512ecc4cf759cc79239f7b179b0ffacaa9a75d522b39400f81565b6103ae61041d366004613b05565b6108af565b6103d1610430366004613aec565b610978565b600d546103d1565b61045061044b366004613aec565b610983565b005b610450610460366004613ac0565b610aa9565b6103d17f6e71edae12b1b97f4d1f60370fef10105fa2faae0126114a169c64845d6126c981565b610494601281565b60405160ff9091168152602001610392565b6104506104b4366004613b5c565b610ab7565b610450610b85565b6103d1600c5481565b6104506104d8366004613aec565b610c35565b6103d16104eb366004613ba3565b6001600160a01b031660009081526004602052604090205490565b610450610eb6565b61045061051c366004613aec565b610f5a565b61045061052f366004613bc0565b61102c565b6103d16110f9565b6103d161054a366004613ba3565b60056020526000908152604090205481565b61045061056a366004613aec565b611190565b61045061057d366004613ac0565b611222565b6103d1600b5481565b6006546001600160a01b03165b6040516001600160a01b039091168152602001610392565b6104506105be366004613ba3565b6112e4565b6103856113a7565b6104506105d9366004613aec565b6113b4565b6104506105ec366004613ba3565b611462565b6103d17fc89efdaa54c0f20c7adf612882df0950f5a951637e0307cdcb4c672f298b8bc681565b610450610626366004613ba3565b6115fd565b610450610639366004613aec565b611800565b6103ae61064c366004613ac0565b6118ae565b6104506118bb565b600a546103ae9060ff1681565b610450610674366004613aec565b611956565b6103d1611963565b6103d160095481565b600854610598906001600160a01b031681565b6103d16119a2565b6104506106b3366004613ba3565b611cf0565b6105987f000000000000000000000000000000000000000000000000000000000000000081565b6104506106ed366004613ba3565b611daa565b610450610700366004613bf9565b611e6d565b600754610598906001600160a01b031681565b6103d1610726366004613bc0565b6001600160a01b03918216600090815260036020908152604080832093909416825291909152205490565b6103d161075f366004613aec565b611f80565b610598610772366004613aec565b611fc6565b6103d1610785366004613aec565b611ff0565b6103d1612026565b600f54610598906001600160a01b031681565b6104506107b3366004613ba3565b6120c6565b600e54610598906001600160a01b031681565b6105987f000000000000000000000000000000000000000000000000000000000000000081565b6104506121f8565b6000805461080790613c67565b80601f016020809104026020016040519081016040528092919081815260200182805461083390613c67565b80156108805780601f1061085557610100808354040283529160200191610880565b820191906000526020600020905b81548152906001019060200180831161086357829003601f168201915b505050505081565b6000610895338484612253565b50600192915050565b60006108a982612361565b92915050565b6001600160a01b0383166000818152600360209081526040808320338085529252822054919290919082148015906108e957506000198114155b1561095f5760006108fa8583613cb7565b6001600160a01b038881166000818152600360209081526040808320948916808452948252918290208590559051848152939450919290917f8c5be1e5ebec7d5bd14f71427d1e84f3dd0314c0f7b2291e5b200ac8c7c3b925910160405180910390a3505b61096a86868661237f565b6001925050505b9392505050565b60006108a9826124a3565b600061098e82611ff0565b905060008111610a0b5760405162461bcd60e51b815260206004820152602560248201527f4261736553747261746567793a3a576974686472617720616d6f756e7420746f60448201527f6f206c6f7700000000000000000000000000000000000000000000000000000060648201526084015b60405180910390fd5b6000610a16826124ae565b90506000610a2383612361565b9050610a6433610a338385613cb7565b6001600160a01b037f000000000000000000000000000000000000000000000000000000000000000016919061252c565b610a6e33856125ac565b60405183815233907f884edad9ce6fa2440d8a54cc123490eb96d2768479d49ff9c7366125a94243649060200160405180910390a250505050565b610ab38282612640565b5050565b6040517fd505accf000000000000000000000000000000000000000000000000000000008152336004820152306024820152604481018690526064810185905260ff8416608482015260a4810183905260c481018290527f00000000000000000000000000000000000000000000000000000000000000006001600160a01b03169063d505accf9060e401600060405180830381600087803b158015610b5c57600080fd5b505af1158015610b70573d6000803e3d6000fd5b50505050610b7e3386612640565b5050505050565b6006546001600160a01b03163314610bdf5760405162461bcd60e51b815260206004820181905260248201527f4f776e61626c653a2063616c6c6572206973206e6f7420746865206f776e65726044820152606401610a02565b600a5460ff1615610bef57600080fd5b600a805460ff191660019081179091556040519081527f7b014ed3854e7f5cb0218d58b3c6ae7d53a68bb0af2f67bfb029ea42c38a7e85906020015b60405180910390a1565b6006546001600160a01b03163314610c8f5760405162461bcd60e51b815260206004820181905260248201527f4f776e61626c653a2063616c6c6572206973206e6f7420746865206f776e65726044820152606401610a02565b6040516370a0823160e01b81523060048201526000907f00000000000000000000000000000000000000000000000000000000000000006001600160a01b0316906370a0823190602401602060405180830381865afa158015610cf6573d6000803e3d6000fd5b505050506040513d601f19601f82011682018060405250810190610d1a9190613cce565b9050610d24612838565b6040516370a0823160e01b81523060048201526000907f00000000000000000000000000000000000000000000000000000000000000006001600160a01b0316906370a0823190602401602060405180830381865afa158015610d8b573d6000803e3d6000fd5b505050506040513d601f19601f82011682018060405250810190610daf9190613cce565b905082610dbc8383613cb7565b1015610e565760405162461bcd60e51b815260206004820152604260248201527f4261736553747261746567793a3a456d657267656e637920776974686472617760448201527f206d696e696d756d2072657475726e20616d6f756e74206e6f7420726561636860648201527f6564000000000000000000000000000000000000000000000000000000000000608482015260a401610a02565b7fc7606d21ac05cd309191543e409f0845c016120563783d70e4f41419dc0ef234610e7f6110f9565b6002546040805192835260208301919091520160405180910390a1600a5460ff161515600103610eb157610eb16118bb565b505050565b6006546001600160a01b03163314610f105760405162461bcd60e51b815260206004820181905260248201527f4f776e61626c653a2063616c6c6572206973206e6f7420746865206f776e65726044820152606401610a02565b6006546040516000916001600160a01b0316907f8be0079c531659141344cd1fd0a4f28419497f9722a3daafe3b4186f6b6457e0908390a3600680546001600160a01b0319169055565b6006546001600160a01b03163314610fb45760405162461bcd60e51b815260206004820181905260248201527f4f776e61626c653a2063616c6c6572206973206e6f7420746865206f776e65726044820152606401610a02565b60008111610fc157600080fd5b604051339082156108fc029083906000818181858888f19350505050158015610fee573d6000803e3d6000fd5b506040805160008152602081018390527f8c1256b8896378cd5044f80c202f9772b9d77dc85c8a6eb51967210b09bfaa28910160405180910390a150565b6007546001600160a01b0316331461107d5760405162461bcd60e51b81526020600482015260146024820152732cb0b5a9ba3930ba32b3bc9d1d37b7363ca232bb60611b6044820152606401610a02565b60405163095ea7b360e01b81526001600160a01b0382811660048301526000602483015283169063095ea7b3906044016020604051808303816000875af11580156110cc573d6000803e3d6000fd5b505050506040513d601f19601f820116820180604052508101906110f09190613ce7565b610ab357600080fd5b600f546040517ff2801fe70000000000000000000000000000000000000000000000000000000081523060048201526000602482018190529182916001600160a01b039091169063f2801fe7906044016040805180830381865afa158015611165573d6000803e3d6000fd5b505050506040513d601f19601f820116820180604052508101906111899190613d09565b5092915050565b6007546001600160a01b031633146111e15760405162461bcd60e51b81526020600482015260146024820152732cb0b5a9ba3930ba32b3bc9d1d37b7363ca232bb60611b6044820152606401610a02565b60095460408051918252602082018390527f481f79ac3a523b6d6db3c5a720e190e986d1cc1b41adcdf50f9caef849901100910160405180910390a1600955565b6006546001600160a01b0316331461127c5760405162461bcd60e51b815260206004820181905260248201527f4f776e61626c653a2063616c6c6572206973206e6f7420746865206f776e65726044820152606401610a02565b6000811161128957600080fd5b61129d6001600160a01b038316338361252c565b604080516001600160a01b0384168152602081018390527f8c1256b8896378cd5044f80c202f9772b9d77dc85c8a6eb51967210b09bfaa2891015b60405180910390a15050565b6006546001600160a01b0316331461133e5760405162461bcd60e51b815260206004820181905260248201527f4f776e61626c653a2063616c6c6572206973206e6f7420746865206f776e65726044820152606401610a02565b600754604080516001600160a01b03928316815291831660208301527fa8e91499ed37682f43cffb045fcc7d379a91e8c9a14e6321877ee34dee564c00910160405180910390a1600780546001600160a01b0319166001600160a01b0392909216919091179055565b6001805461080790613c67565b6007546001600160a01b031633146114055760405162461bcd60e51b81526020600482015260146024820152732cb0b5a9ba3930ba32b3bc9d1d37b7363ca232bb60611b6044820152606401610a02565b612710600b54826114169190613d2d565b111561142157600080fd5b600c5460408051918252602082018390527f2a42303d002f0ba6cfe8259c91d4684443fb0b3de286ba74991175d651726131910160405180910390a1600c55565b6007546001600160a01b031633146114b35760405162461bcd60e51b81526020600482015260146024820152732cb0b5a9ba3930ba32b3bc9d1d37b7363ca232bb60611b6044820152606401610a02565b6000805b600d5481101561150a57600d81815481106114d4576114d4613d45565b6000918252602090912001546001600160a01b03908116908416036114f857600191505b8061150281613d5b565b9150506114b7565b50801561157f5760405162461bcd60e51b815260206004820152602860248201527f4261736553747261746567793a3a52657761726420616c726561647920636f6e60448201527f66696775726564210000000000000000000000000000000000000000000000006064820152608401610a02565b600d80546001810182556000919091527fd7b6990105719101dabeb77144f2a3385c8033acd3af97e9423a695e81ad1eb50180546001600160a01b0319166001600160a01b0384169081179091556040519081527f1714865bf5baa84e3439536a013c87cfe030b4cd69f344a5f2a4877de3d517ce906020016112d8565b6007546001600160a01b0316331461164e5760405162461bcd60e51b81526020600482015260146024820152732cb0b5a9ba3930ba32b3bc9d1d37b7363ca232bb60611b6044820152606401610a02565b6000805b600d5481101561171e57600d818154811061166f5761166f613d45565b6000918252602090912001546001600160a01b039081169084160361170c57600d8054600193506116a1908490613cb7565b815481106116b1576116b1613d45565b600091825260209091200154600d80546001600160a01b0390921691839081106116dd576116dd613d45565b9060005260206000200160006101000a8154816001600160a01b0302191690836001600160a01b031602179055505b8061171681613d5b565b915050611652565b50806117915760405162461bcd60e51b8152602060048201526024808201527f4261736553747261746567793a3a526577617264206e6f7420636f6e6669677560448201527f72656421000000000000000000000000000000000000000000000000000000006064820152608401610a02565b600d8054806117a2576117a2613d74565b6000828152602090819020600019908301810180546001600160a01b03191690559091019091556040516001600160a01b03841681527f963b7c735475147a62c589c2d7cb8ec4b0a6b7af4f97373d79ebfa42ab8aa7dc91016112d8565b6007546001600160a01b031633146118515760405162461bcd60e51b81526020600482015260146024820152732cb0b5a9ba3930ba32b3bc9d1d37b7363ca232bb60611b6044820152606401610a02565b612710600c54826118629190613d2d565b111561186d57600080fd5b600b5460408051918252602082018390527fe7f97d51d307dc44045597c9978bec0f842e6bb40d19b9444084cfa30d9ed4f2910160405180910390a1600b55565b600061089533848461237f565b6007546001600160a01b0316331461190c5760405162461bcd60e51b81526020600482015260146024820152732cb0b5a9ba3930ba32b3bc9d1d37b7363ca232bb60611b6044820152606401610a02565b600a5460ff1661191b57600080fd5b600a805460ff19169055604051600081527f7b014ed3854e7f5cb0218d58b3c6ae7d53a68bb0af2f67bfb029ea42c38a7e8590602001610c2b565b6119603382612640565b50565b60008061196e6119a2565b9050600954811061199a57612710600b548261198a9190613d8a565b6119949190613da9565b91505090565b600091505090565b6000806119ad612938565b6040516370a0823160e01b81523060048201529091506000906001600160a01b037f000000000000000000000000000000000000000000000000000000000000000016906370a0823190602401602060405180830381865afa158015611a17573d6000803e3d6000fd5b505050506040513d601f19601f82011682018060405250810190611a3b9190613cce565b905060005b8251811015611189576000838281518110611a5d57611a5d613d45565b60200260200101516000015190507f00000000000000000000000000000000000000000000000000000000000000006001600160a01b0316816001600160a01b031603611ad35747848381518110611ab757611ab7613d45565b6020026020010151602001818151611acf9190613d2d565b9052505b7f00000000000000000000000000000000000000000000000000000000000000006001600160a01b0316816001600160a01b031603611b3c57838281518110611b1e57611b1e613d45565b60200260200101516020015183611b359190613d2d565b9250611cdd565b6001600160a01b03811615611cdd576040516370a0823160e01b81523060048201526000906001600160a01b038316906370a0823190602401602060405180830381865afa158015611b92573d6000803e3d6000fd5b505050506040513d601f19601f82011682018060405250810190611bb69190613cce565b90506000858481518110611bcc57611bcc613d45565b60200260200101516020015182611be39190613d2d565b90508015611cda57600e546040516377ccc49d60e11b8152600481018390526001600160a01b0385811660248301527f000000000000000000000000000000000000000000000000000000000000000081166044830152600092169063ef99893a90606401600060405180830381865afa158015611c65573d6000803e3d6000fd5b505050506040513d6000823e601f3d908101601f19168201604052611c8d9190810190613ed3565b9050600181600001515111611ca3576000611ccc565b80518051611cb390600190613cb7565b81518110611cc357611cc3613d45565b60200260200101515b611cd69087613d2d565b9550505b50505b5080611ce881613d5b565b915050611a40565b6007546001600160a01b03163314611d415760405162461bcd60e51b81526020600482015260146024820152732cb0b5a9ba3930ba32b3bc9d1d37b7363ca232bb60611b6044820152606401610a02565b600e54604080516001600160a01b03928316815291831660208301527f2c6fb4d5ff9fad6ecf2e09cd64cbc9aad92a8b9d2cc0e5c3ddef9b529b0b5ffd910160405180910390a1600e80546001600160a01b0319166001600160a01b0392909216919091179055565b6006546001600160a01b03163314611e045760405162461bcd60e51b815260206004820181905260248201527f4f776e61626c653a2063616c6c6572206973206e6f7420746865206f776e65726044820152606401610a02565b600854604080516001600160a01b03928316815291831660208301527fcc882185e6edeeb762130016ea1faf3d7aa9c01b199bfd646f965b58ab741063910160405180910390a1600880546001600160a01b0319166001600160a01b0392909216919091179055565b42841015611ebd5760405162461bcd60e51b815260206004820152600f60248201527f7065726d69743a3a6578706972656400000000000000000000000000000000006044820152606401610a02565b6001600160a01b038716600090815260056020526040812080547f6e71edae12b1b97f4d1f60370fef10105fa2faae0126114a169c64845d6126c9918a918a918a919086611f0a83613d5b565b909155506040805160208101969096526001600160a01b0394851690860152929091166060840152608083015260a082015260c0810186905260e001604051602081830303815290604052805190602001209050611f6b8882868686612b8f565b611f76888888612253565b5050505050505050565b600080611f8b6110f9565b600254909150801580611f9c575081155b15611fa957509192915050565b81611fb48286613d8a565b611fbe9190613da9565b949350505050565b600d8181548110611fd657600080fd5b6000918252602090912001546001600160a01b0316905081565b600080611ffb6110f9565b60025490915080158061200c575081155b1561201b575060009392505050565b80611fb48386613d8a565b60007f8b73c3c69bb8fe3d512ecc4cf759cc79239f7b179b0ffacaa9a75d522b39400f60001b600060405161205b9190613fe8565b6040519081900390207fc89efdaa54c0f20c7adf612882df0950f5a951637e0307cdcb4c672f298b8bc646604080516020810195909552840192909252606083015260808201523060a082015260c00160405160208183030381529060405280519060200120905090565b6006546001600160a01b031633146121205760405162461bcd60e51b815260206004820181905260248201527f4f776e61626c653a2063616c6c6572206973206e6f7420746865206f776e65726044820152606401610a02565b6001600160a01b03811661219c5760405162461bcd60e51b815260206004820152602660248201527f4f776e61626c653a206e6577206f776e657220697320746865207a65726f206160448201527f64647265737300000000000000000000000000000000000000000000000000006064820152608401610a02565b6006546040516001600160a01b038084169216907f8be0079c531659141344cd1fd0a4f28419497f9722a3daafe3b4186f6b6457e090600090a3600680546001600160a01b0319166001600160a01b0392909216919091179055565b3233146122475760405162461bcd60e51b815260206004820152601460248201527f59616b53747261746567793a3a6f6e6c79454f410000000000000000000000006044820152606401610a02565b6122516000612cef565b565b6001600160a01b0383166122a95760405162461bcd60e51b815260206004820152601c60248201527f5f617070726f76653a3a6f776e6572207a65726f2061646472657373000000006044820152606401610a02565b6001600160a01b0382166122ff5760405162461bcd60e51b815260206004820152601e60248201527f5f617070726f76653a3a7370656e646572207a65726f206164647265737300006044820152606401610a02565b6001600160a01b0383811660008181526003602090815260408083209487168084529482529182902085905590518481527f8c5be1e5ebec7d5bd14f71427d1e84f3dd0314c0f7b2291e5b200ac8c7c3b92591015b60405180910390a3505050565b600080805b90506127106123758285613d8a565b6109719190613da9565b6001600160a01b0382166123fb5760405162461bcd60e51b815260206004820152603460248201527f5f7472616e73666572546f6b656e733a2063616e6e6f74207472616e7366657260448201527f20746f20746865207a65726f20616464726573730000000000000000000000006064820152608401610a02565b6001600160a01b03831660009081526004602052604090205461241f908290613cb7565b6001600160a01b03808516600090815260046020526040808220939093559084168152205461244f908290613d2d565b6001600160a01b0380841660008181526004602052604090819020939093559151908516907fddf252ad1be2c89b69c2b068fc378daa952ba7f163c4a11628f55a4df523b3ef906123549085815260200190565b600080612366612e4f565b600f546040517f2e1a7d4d000000000000000000000000000000000000000000000000000000008152600481018390526000916001600160a01b031690632e1a7d4d90602401600060405180830381600087803b15801561250e57600080fd5b505af1158015612522573d6000803e3d6000fd5b5093949350505050565b604080516001600160a01b038416602482015260448082018490528251808303909101815260649091019091526020810180517bffffffffffffffffffffffffffffffffffffffffffffffffffffffff167fa9059cbb00000000000000000000000000000000000000000000000000000000179052610eb1908490612edb565b6001600160a01b0382166000908152600460205260409020546125d0908290613cb7565b6001600160a01b0383166000908152600460205260409020556002546125f7908290613cb7565b6002556040518181526000906001600160a01b038416907fddf252ad1be2c89b69c2b068fc378daa952ba7f163c4a11628f55a4df523b3ef906020015b60405180910390a35050565b600a5460ff1615156001146126975760405162461bcd60e51b815260206004820152601f60248201527f4261736553747261746567793a3a4465706f736974732064697361626c6564006044820152606401610a02565b6126a16001612cef565b6040517f23b872dd000000000000000000000000000000000000000000000000000000008152336004820152306024820152604481018290527f00000000000000000000000000000000000000000000000000000000000000006001600160a01b0316906323b872dd906064016020604051808303816000875af115801561272d573d6000803e3d6000fd5b505050506040513d601f19601f820116820180604052508101906127519190613ce7565b6127c35760405162461bcd60e51b815260206004820152602b60248201527f4261736553747261746567793a3a4465706f73697420746f6b656e207472616e60448201527f73666572206661696c65640000000000000000000000000000000000000000006064820152608401610a02565b60006127ce826124a3565b90506127e6836127e161075f8486613cb7565b612fc0565b6127f08282613096565b826001600160a01b03167fe1fffcc4923d04b559f4d29a8bfc6cda04eb5b0d3c460751c2402c5c5cc9109c8360405161282b91815260200190565b60405180910390a2505050565b600f60009054906101000a90046001600160a01b03166001600160a01b031663db2e21bc6040518163ffffffff1660e01b8152600401600060405180830381600087803b15801561288857600080fd5b505af115801561289c573d6000803e3d6000fd5b5050600f5460405163095ea7b360e01b81526001600160a01b039182166004820152600060248201527f0000000000000000000000000000000000000000000000000000000000000000909116925063095ea7b391506044016020604051808303816000875af1158015612914573d6000803e3d6000fd5b505050506040513d601f19601f820116820180604052508101906119609190613ce7565b60606000600f60009054906101000a90046001600160a01b03166001600160a01b031663bf199e626040518163ffffffff1660e01b8152600401602060405180830381865afa15801561298f573d6000803e3d6000fd5b505050506040513d601f19601f820116820180604052508101906129b39190613cce565b905060008167ffffffffffffffff8111156129d0576129d0613dcb565b604051908082528060200260200182016040528015612a1557816020015b60408051808201909152600080825260208201528152602001906001900390816129ee5790505b50905060005b8281101561118957600f546040517f7bb7bed1000000000000000000000000000000000000000000000000000000008152600481018390526000916001600160a01b031690637bb7bed190602401602060405180830381865afa158015612a86573d6000803e3d6000fd5b505050506040513d601f19601f82011682018060405250810190612aaa9190614083565b600f546040517f9ced7e760000000000000000000000000000000000000000000000000000000081523060048201526001600160a01b03808416602483015292935060009290911690639ced7e7690604401602060405180830381865afa158015612b19573d6000803e3d6000fd5b505050506040513d601f19601f82011682018060405250810190612b3d9190613cce565b90506040518060400160405280836001600160a01b0316815260200182815250848481518110612b6f57612b6f613d45565b602002602001018190525050508080612b8790613d5b565b915050612a1b565b6000612b99612026565b6040517f1901000000000000000000000000000000000000000000000000000000000000602082015260228101919091526042810186905260620160408051601f198184030181528282528051602091820120600080855291840180845281905260ff88169284019290925260608301869052608083018590529092509060019060a0016020604051602081039080840390855afa158015612c3f573d6000803e3d6000fd5b5050604051601f1901519150506001600160a01b03811615801590612c755750866001600160a01b0316816001600160a01b0316145b612ce65760405162461bcd60e51b8152602060048201526024808201527f417263683a3a76616c69646174655369673a20696e76616c6964207369676e6160448201527f74757265000000000000000000000000000000000000000000000000000000006064820152608401610a02565b50505050505050565b6000612cf9613116565b9050600954811115612e0e576000612710600c5483612d189190613d8a565b612d229190613da9565b90508015612d6457600854612d64906001600160a01b037f0000000000000000000000000000000000000000000000000000000000000000811691168361252c565b600083612d8b57612710600b5484612d7c9190613d8a565b612d869190613da9565b612d8e565b60005b90508015612dca57612dca6001600160a01b037f000000000000000000000000000000000000000000000000000000000000000016338361252c565b6000612de982612dda8587613cb7565b612de49190613cb7565b613488565b90508015612e0a576000612dfc826124a3565b9050612e088282613096565b505b5050505b7fc7606d21ac05cd309191543e409f0845c016120563783d70e4f41419dc0ef234612e376110f9565b600254604080519283526020830191909152016112d8565b600f54604080517fcc1252ae00000000000000000000000000000000000000000000000000000000815290516000926001600160a01b03169163cc1252ae9160048083019260209291908290030181865afa158015612eb2573d6000803e3d6000fd5b505050506040513d601f19601f82011682018060405250810190612ed69190613cce565b905090565b6000612f30826040518060400160405280602081526020017f5361666545524332303a206c6f772d6c6576656c2063616c6c206661696c6564815250856001600160a01b03166135b49092919063ffffffff16565b805190915015610eb15780806020019051810190612f4e9190613ce7565b610eb15760405162461bcd60e51b815260206004820152602a60248201527f5361666545524332303a204552433230206f7065726174696f6e20646964206e60448201527f6f742073756363656564000000000000000000000000000000000000000000006064820152608401610a02565b600081116130105760405162461bcd60e51b815260206004820152601260248201527f5f6d696e743a3a7a65726f2073686172657300000000000000000000000000006044820152606401610a02565b8060025461301e9190613d2d565b6002556001600160a01b038216600090815260046020526040902054613045908290613d2d565b6001600160a01b0383166000818152600460205260408082209390935591519091907fddf252ad1be2c89b69c2b068fc378daa952ba7f163c4a11628f55a4df523b3ef906126349085815260200190565b6000821161310c5760405162461bcd60e51b815260206004820152602260248201527f4261736553747261746567793a3a5374616b6520616d6f756e7420746f6f206c60448201527f6f770000000000000000000000000000000000000000000000000000000000006064820152608401610a02565b610ab382826135c3565b60006131206136be565b6040516370a0823160e01b81523060048201526000907f00000000000000000000000000000000000000000000000000000000000000006001600160a01b0316906370a0823190602401602060405180830381865afa158015613187573d6000803e3d6000fd5b505050506040513d601f19601f820116820180604052508101906131ab9190613cce565b600d5490915060005b81811015613480576000600d82815481106131d1576131d1613d45565b6000918252602090912001546001600160a01b0390811691507f00000000000000000000000000000000000000000000000000000000000000001681036132fc5747801561328e577f00000000000000000000000000000000000000000000000000000000000000006001600160a01b031663d0e30db0826040518263ffffffff1660e01b81526004016000604051808303818588803b15801561327457600080fd5b505af1158015613288573d6000803e3d6000fd5b50505050505b7f00000000000000000000000000000000000000000000000000000000000000006001600160a01b03167f00000000000000000000000000000000000000000000000000000000000000006001600160a01b0316036132fa576132f18186613d2d565b9450505061346e565b505b6040516370a0823160e01b81523060048201526000906001600160a01b038316906370a0823190602401602060405180830381865afa158015613343573d6000803e3d6000fd5b505050506040513d601f19601f820116820180604052508101906133679190613cce565b90506000811180156133ab57507f00000000000000000000000000000000000000000000000000000000000000006001600160a01b0316826001600160a01b031614155b1561346b57600e546040516377ccc49d60e11b8152600481018390526001600160a01b0384811660248301527f000000000000000000000000000000000000000000000000000000000000000081166044830152600092169063ef99893a90606401600060405180830381865afa15801561342a573d6000803e3d6000fd5b505050506040513d6000823e601f3d908101601f191682016040526134529190810190613ed3565b905061345d8161371e565b6134679087613d2d565b9550505b50505b8061347881613d5b565b9150506131b4565b509092915050565b60007f00000000000000000000000000000000000000000000000000000000000000006001600160a01b03167f00000000000000000000000000000000000000000000000000000000000000006001600160a01b0316036134e7575090565b600e546040516377ccc49d60e11b8152600481018490526001600160a01b037f0000000000000000000000000000000000000000000000000000000000000000811660248301527f000000000000000000000000000000000000000000000000000000000000000081166044830152600092169063ef99893a90606401600060405180830381865afa158015613581573d6000803e3d6000fd5b505050506040513d6000823e601f3d908101601f191682016040526135a99190810190613ed3565b90506109718161371e565b6060611fbe84846000856138cb565b600f5460405163095ea7b360e01b81526001600160a01b039182166004820152602481018490527f00000000000000000000000000000000000000000000000000000000000000009091169063095ea7b3906044016020604051808303816000875af1158015613637573d6000803e3d6000fd5b505050506040513d601f19601f8201168201806040525081019061365b9190613ce7565b50600f5460405163b6b55f2560e01b8152600481018490526001600160a01b039091169063b6b55f2590602401600060405180830381600087803b1580156136a257600080fd5b505af11580156136b6573d6000803e3d6000fd5b505050505050565b600f5460405163b6b55f2560e01b8152600060048201526001600160a01b039091169063b6b55f2590602401600060405180830381600087803b15801561370457600080fd5b505af1158015613718573d6000803e3d6000fd5b50505050565b8051516000901580159061375b5750815180516000919061374190600190613cb7565b8151811061375157613751613d45565b6020026020010151115b156138c357816040015160008151811061377757613777613d45565b60200260200101516001600160a01b031663095ea7b3600e60009054906101000a90046001600160a01b031684600001516000815181106137ba576137ba613d45565b60200260200101516040518363ffffffff1660e01b81526004016137f39291906001600160a01b03929092168252602082015260400190565b6020604051808303816000875af1158015613812573d6000803e3d6000fd5b505050506040513d601f19601f820116820180604052508101906138369190613ce7565b50600e546040517f5b2466160000000000000000000000000000000000000000000000000000000081526001600160a01b0390911690635b246616906138809085906004016140e4565b6020604051808303816000875af115801561389f573d6000803e3d6000fd5b505050506040513d601f19601f820116820180604052508101906108a99190613cce565b506000919050565b6060824710156139435760405162461bcd60e51b815260206004820152602660248201527f416464726573733a20696e73756666696369656e742062616c616e636520666f60448201527f722063616c6c00000000000000000000000000000000000000000000000000006064820152608401610a02565b6001600160a01b0385163b61399a5760405162461bcd60e51b815260206004820152601d60248201527f416464726573733a2063616c6c20746f206e6f6e2d636f6e74726163740000006044820152606401610a02565b600080866001600160a01b031685876040516139b6919061417e565b60006040518083038185875af1925050503d80600081146139f3576040519150601f19603f3d011682016040523d82523d6000602084013e6139f8565b606091505b5091509150613a08828286613a13565b979650505050505050565b60608315613a22575081610971565b825115613a325782518084602001fd5b8160405162461bcd60e51b8152600401610a029190613a78565b60005b83811015613a67578181015183820152602001613a4f565b838111156137185750506000910152565b6020815260008251806020840152613a97816040850160208701613a4c565b601f01601f19169190910160400192915050565b6001600160a01b038116811461196057600080fd5b60008060408385031215613ad357600080fd5b8235613ade81613aab565b946020939093013593505050565b600060208284031215613afe57600080fd5b5035919050565b600080600060608486031215613b1a57600080fd5b8335613b2581613aab565b92506020840135613b3581613aab565b929592945050506040919091013590565b803560ff81168114613b5757600080fd5b919050565b600080600080600060a08688031215613b7457600080fd5b8535945060208601359350613b8b60408701613b46565b94979396509394606081013594506080013592915050565b600060208284031215613bb557600080fd5b813561097181613aab565b60008060408385031215613bd357600080fd5b8235613bde81613aab565b91506020830135613bee81613aab565b809150509250929050565b600080600080600080600060e0888a031215613c1457600080fd5b8735613c1f81613aab565b96506020880135613c2f81613aab565b95506040880135945060608801359350613c4b60808901613b46565b925060a0880135915060c0880135905092959891949750929550565b600181811c90821680613c7b57607f821691505b602082108103613c9b57634e487b7160e01b600052602260045260246000fd5b50919050565b634e487b7160e01b600052601160045260246000fd5b600082821015613cc957613cc9613ca1565b500390565b600060208284031215613ce057600080fd5b5051919050565b600060208284031215613cf957600080fd5b8151801515811461097157600080fd5b60008060408385031215613d1c57600080fd5b505080516020909101519092909150565b60008219821115613d4057613d40613ca1565b500190565b634e487b7160e01b600052603260045260246000fd5b600060018201613d6d57613d6d613ca1565b5060010190565b634e487b7160e01b600052603160045260246000fd5b6000816000190483118215151615613da457613da4613ca1565b500290565b600082613dc657634e487b7160e01b600052601260045260246000fd5b500490565b634e487b7160e01b600052604160045260246000fd5b6040516080810167ffffffffffffffff81118282101715613e0457613e04613dcb565b60405290565b604051601f8201601f1916810167ffffffffffffffff81118282101715613e3357613e33613dcb565b604052919050565b600067ffffffffffffffff821115613e5557613e55613dcb565b5060051b60200190565b600082601f830112613e7057600080fd5b81516020613e85613e8083613e3b565b613e0a565b82815260059290921b84018101918181019086841115613ea457600080fd5b8286015b84811015613ec8578051613ebb81613aab565b8352918301918301613ea8565b509695505050505050565b60006020808385031215613ee657600080fd5b825167ffffffffffffffff80821115613efe57600080fd5b9084019060808287031215613f1257600080fd5b613f1a613de1565b825182811115613f2957600080fd5b8301601f81018813613f3a57600080fd5b8051613f48613e8082613e3b565b81815260059190911b8201860190868101908a831115613f6757600080fd5b928701925b82841015613f8557835182529287019290870190613f6c565b84525050508284015182811115613f9b57600080fd5b613fa788828601613e5f565b85830152506040830151935081841115613fc057600080fd5b613fcc87858501613e5f565b6040820152606083015160608201528094505050505092915050565b600080835481600182811c91508083168061400457607f831692505b6020808410820361402357634e487b7160e01b86526022600452602486fd5b818015614037576001811461404857614075565b60ff19861689528489019650614075565b60008a81526020902060005b8681101561406d5781548b820152908501908301614054565b505084890196505b509498975050505050505050565b60006020828403121561409557600080fd5b815161097181613aab565b600081518084526020808501945080840160005b838110156140d95781516001600160a01b0316875295820195908201906001016140b4565b509495945050505050565b60208082528251608083830152805160a0840181905260009291820190839060c08601905b808310156141295783518252928401926001929092019190840190614109565b50838701519350601f1992508286820301604087015261414981856140a0565b9350505060408501518185840301606086015261416683826140a0565b92505050606084015160808401528091505092915050565b60008251614190818460208701613a4c565b919091019291505056fea264697066735822122027c14ac43c6f9708ac4f8a8b16591f18eeb18c6089f4474300d0a5c9ef02279564736f6c634300080d00334f776e61626c653a2063616c6c6572206973206e6f7420746865206f776e65728be0079c531659141344cd1fd0a4f28419497f9722a3daafe3b4186f6b6457e0",
  "devdoc": {
    "kind": "dev",
    "methods": {
      "allowance(address,address)": {
        "params": {
          "account": "The address of the account holding the funds",
          "spender": "The address of the account spending the funds"
        },
        "returns": {
          "_0": "The number of tokens approved"
        }
      },
      "approve(address,uint256)": {
        "details": "This will overwrite the approval amount for `spender` and is subject to issues noted [here](https://eips.ethereum.org/EIPS/eip-20#approve) It is recommended to use increaseAllowance and decreaseAllowance instead",
        "params": {
          "amount": "The number of tokens that are approved (2^256-1 means infinite)",
          "spender": "The address of the account which may transfer tokens"
        },
        "returns": {
          "_0": "Whether or not the approval succeeded"
        }
      },
      "balanceOf(address)": {
        "params": {
          "account": "The address of the account to get the balance of"
        },
        "returns": {
          "_0": "The number of tokens held"
        }
      },
      "checkReward()": {
        "returns": {
          "_0": "reward tokens"
        }
      },
      "deposit(uint256)": {
        "params": {
          "_amount": "Amount of tokens to deposit"
        }
      },
      "depositWithPermit(uint256,uint256,uint8,bytes32,bytes32)": {
        "params": {
          "_amount": "Amount of tokens to deposit",
          "_deadline": "The time at which to expire the signature",
          "_r": "Half of the ECDSA signature pair",
          "_s": "Half of the ECDSA signature pair",
          "_v": "The recovery byte of the signature"
        }
      },
      "estimateReinvestReward()": {
        "returns": {
          "_0": "reward tokens"
        }
      },
      "getDepositTokensForShares(uint256)": {
        "params": {
          "amount": "receipt tokens"
        },
        "returns": {
          "_0": "deposit tokens"
        }
      },
      "getDomainSeparator()": {
        "returns": {
          "_0": "Separator"
        }
      },
      "getSharesForDepositTokens(uint256)": {
        "details": "If contract is empty, use 1:1 ratioCould return zero shares for very low amounts of deposit tokens",
        "params": {
          "amount": "deposit tokens"
        },
        "returns": {
          "_0": "receipt tokens"
        }
      },
      "owner()": {
        "details": "Returns the address of the current owner."
      },
      "permit(address,address,uint256,uint256,uint8,bytes32,bytes32)": {
        "params": {
          "deadline": "The time at which to expire the signature",
          "owner": "The address to approve from",
          "r": "Half of the ECDSA signature pair",
          "s": "Half of the ECDSA signature pair",
          "spender": "The address to be approved",
          "v": "The recovery byte of the signature",
          "value": "The number of tokens that are approved (2^256-1 means infinite)"
        }
      },
      "recoverERC20(address,uint256)": {
        "params": {
          "tokenAddress": "token address",
          "tokenAmount": "amount to recover"
        }
      },
      "recoverGas(uint256)": {
        "params": {
          "amount": "amount"
        }
      },
      "renounceOwnership()": {
        "details": "Leaves the contract without owner. It will not be possible to call `onlyOwner` functions anymore. Can only be called by the current owner. NOTE: Renouncing ownership will leave the contract without an owner, thereby removing any functionality that is only available to the owner."
      },
      "revokeAllowance(address,address)": {
        "params": {
          "spender": "address",
          "token": "address"
        }
      },
      "totalDeposits()": {
        "returns": {
          "_0": "total deposits available on the contract"
        }
      },
      "transfer(address,uint256)": {
        "params": {
          "amount": "The number of tokens to transfer",
          "dst": "The address of the destination account"
        },
        "returns": {
          "_0": "Whether or not the transfer succeeded"
        }
      },
      "transferFrom(address,address,uint256)": {
        "params": {
          "amount": "The number of tokens to transfer",
          "dst": "The address of the destination account",
          "src": "The address of the source account"
        },
        "returns": {
          "_0": "Whether or not the transfer succeeded"
        }
      },
      "transferOwnership(address)": {
        "details": "Transfers ownership of the contract to a new account (`newOwner`). Can only be called by the current owner."
      },
      "updateDevAddr(address)": {
        "params": {
          "newValue": "address"
        }
      },
      "updateDevFee(uint256)": {
        "params": {
          "newValue": "fee in BIPS"
        }
      },
      "updateFeeCollector(address)": {
        "params": {
          "newValue": "address"
        }
      },
      "updateMinTokensToReinvest(uint256)": {
        "params": {
          "newValue": "threshold"
        }
      },
      "updateReinvestReward(uint256)": {
        "params": {
          "newValue": "fee in BIPS"
        }
      }
    },
    "version": 1
  },
  "userdoc": {
    "kind": "user",
    "methods": {
      "allowance(address,address)": {
        "notice": "Get the number of tokens `spender` is approved to spend on behalf of `account`"
      },
      "approve(address,uint256)": {
        "notice": "Approve `spender` to transfer up to `amount` from `src`"
      },
      "balanceOf(address)": {
        "notice": "Get the number of tokens held by the `account`"
      },
      "checkReward()": {
        "notice": "Reward tokens available to strategy, including balance"
      },
      "deposit(uint256)": {
        "notice": "Deposit tokens to receive receipt tokens"
      },
      "depositWithPermit(uint256,uint256,uint8,bytes32,bytes32)": {
        "notice": "Deposit using Permit"
      },
      "disableDeposits()": {
        "notice": "Disable deposits"
      },
      "enableDeposits()": {
        "notice": "Enable deposits"
      },
      "estimateReinvestReward()": {
        "notice": "Estimate reinvest reward"
      },
      "getDepositTokensForShares(uint256)": {
        "notice": "Calculate deposit tokens for a given amount of receipt tokens"
      },
      "getDomainSeparator()": {
        "notice": "EIP-712 Domain separator"
      },
      "getSharesForDepositTokens(uint256)": {
        "notice": "Calculate receipt tokens for a given amount of deposit tokens"
      },
      "permit(address,address,uint256,uint256,uint8,bytes32,bytes32)": {
        "notice": "Triggers an approval from owner to spender"
      },
      "recoverERC20(address,uint256)": {
        "notice": "Recover ERC20 from contract"
      },
      "recoverGas(uint256)": {
        "notice": "Recover GAS from contract"
      },
      "reinvest()": {
        "notice": "Reinvest reward tokens into deposit tokens"
      },
      "revokeAllowance(address,address)": {
        "notice": "Revoke token allowance"
      },
      "totalDeposits()": {
        "notice": "This function returns a snapshot of last available quotes"
      },
      "transfer(address,uint256)": {
        "notice": "Transfer `amount` tokens from `msg.sender` to `dst`"
      },
      "transferFrom(address,address,uint256)": {
        "notice": "Transfer `amount` tokens from `src` to `dst`"
      },
      "updateDevAddr(address)": {
        "notice": "Update devAddr"
      },
      "updateDevFee(uint256)": {
        "notice": "Update developer fee"
      },
      "updateFeeCollector(address)": {
        "notice": "Update feeCollector"
      },
      "updateMinTokensToReinvest(uint256)": {
        "notice": "Update reinvest min threshold"
      },
      "updateReinvestReward(uint256)": {
        "notice": "Update reinvest reward"
      }
    },
    "version": 1
  },
  "storageLayout": {
    "storage": [
      {
        "astId": 5,
        "contract": "contracts/strategies/crosschain/yak/CompoundingYYStaking.sol:CompoundingYYStaking",
        "label": "name",
        "offset": 0,
        "slot": "0",
        "type": "t_string_storage"
      },
      {
        "astId": 8,
        "contract": "contracts/strategies/crosschain/yak/CompoundingYYStaking.sol:CompoundingYYStaking",
        "label": "symbol",
        "offset": 0,
        "slot": "1",
        "type": "t_string_storage"
      },
      {
        "astId": 13,
        "contract": "contracts/strategies/crosschain/yak/CompoundingYYStaking.sol:CompoundingYYStaking",
        "label": "totalSupply",
        "offset": 0,
        "slot": "2",
        "type": "t_uint256"
      },
      {
        "astId": 19,
        "contract": "contracts/strategies/crosschain/yak/CompoundingYYStaking.sol:CompoundingYYStaking",
        "label": "allowances",
        "offset": 0,
        "slot": "3",
        "type": "t_mapping(t_address,t_mapping(t_address,t_uint256))"
      },
      {
        "astId": 23,
        "contract": "contracts/strategies/crosschain/yak/CompoundingYYStaking.sol:CompoundingYYStaking",
        "label": "balances",
        "offset": 0,
        "slot": "4",
        "type": "t_mapping(t_address,t_uint256)"
      },
      {
        "astId": 39,
        "contract": "contracts/strategies/crosschain/yak/CompoundingYYStaking.sol:CompoundingYYStaking",
        "label": "nonces",
        "offset": 0,
        "slot": "5",
        "type": "t_mapping(t_address,t_uint256)"
      },
      {
        "astId": 1646,
        "contract": "contracts/strategies/crosschain/yak/CompoundingYYStaking.sol:CompoundingYYStaking",
        "label": "_owner",
        "offset": 0,
        "slot": "6",
        "type": "t_address"
      },
      {
        "astId": 552,
        "contract": "contracts/strategies/crosschain/yak/CompoundingYYStaking.sol:CompoundingYYStaking",
        "label": "devAddr",
        "offset": 0,
        "slot": "7",
        "type": "t_address"
      },
      {
        "astId": 554,
        "contract": "contracts/strategies/crosschain/yak/CompoundingYYStaking.sol:CompoundingYYStaking",
        "label": "feeCollector",
        "offset": 0,
        "slot": "8",
        "type": "t_address"
      },
      {
        "astId": 556,
        "contract": "contracts/strategies/crosschain/yak/CompoundingYYStaking.sol:CompoundingYYStaking",
        "label": "MIN_TOKENS_TO_REINVEST",
        "offset": 0,
        "slot": "9",
        "type": "t_uint256"
      },
      {
        "astId": 558,
        "contract": "contracts/strategies/crosschain/yak/CompoundingYYStaking.sol:CompoundingYYStaking",
        "label": "DEPOSITS_ENABLED",
        "offset": 0,
        "slot": "10",
        "type": "t_bool"
      },
      {
        "astId": 560,
        "contract": "contracts/strategies/crosschain/yak/CompoundingYYStaking.sol:CompoundingYYStaking",
        "label": "REINVEST_REWARD_BIPS",
        "offset": 0,
        "slot": "11",
        "type": "t_uint256"
      },
      {
        "astId": 562,
        "contract": "contracts/strategies/crosschain/yak/CompoundingYYStaking.sol:CompoundingYYStaking",
        "label": "DEV_FEE_BIPS",
        "offset": 0,
        "slot": "12",
        "type": "t_uint256"
      },
      {
        "astId": 2348,
        "contract": "contracts/strategies/crosschain/yak/CompoundingYYStaking.sol:CompoundingYYStaking",
        "label": "supportedRewards",
        "offset": 0,
        "slot": "13",
        "type": "t_array(t_address)dyn_storage"
      },
      {
        "astId": 2351,
        "contract": "contracts/strategies/crosschain/yak/CompoundingYYStaking.sol:CompoundingYYStaking",
        "label": "simpleRouter",
        "offset": 0,
        "slot": "14",
        "type": "t_contract(ISimpleRouter)1303"
      },
      {
        "astId": 12245,
        "contract": "contracts/strategies/crosschain/yak/CompoundingYYStaking.sol:CompoundingYYStaking",
        "label": "stakingContract",
        "offset": 0,
        "slot": "15",
        "type": "t_contract(IYYStaking)12501"
      }
    ],
    "types": {
      "t_address": {
        "encoding": "inplace",
        "label": "address",
        "numberOfBytes": "20"
      },
      "t_array(t_address)dyn_storage": {
        "base": "t_address",
        "encoding": "dynamic_array",
        "label": "address[]",
        "numberOfBytes": "32"
      },
      "t_bool": {
        "encoding": "inplace",
        "label": "bool",
        "numberOfBytes": "1"
      },
      "t_contract(ISimpleRouter)1303": {
        "encoding": "inplace",
        "label": "contract ISimpleRouter",
        "numberOfBytes": "20"
      },
      "t_contract(IYYStaking)12501": {
        "encoding": "inplace",
        "label": "contract IYYStaking",
        "numberOfBytes": "20"
      },
      "t_mapping(t_address,t_mapping(t_address,t_uint256))": {
        "encoding": "mapping",
        "key": "t_address",
        "label": "mapping(address => mapping(address => uint256))",
        "numberOfBytes": "32",
        "value": "t_mapping(t_address,t_uint256)"
      },
      "t_mapping(t_address,t_uint256)": {
        "encoding": "mapping",
        "key": "t_address",
        "label": "mapping(address => uint256)",
        "numberOfBytes": "32",
        "value": "t_uint256"
      },
      "t_string_storage": {
        "encoding": "bytes",
        "label": "string",
        "numberOfBytes": "32"
      },
      "t_uint256": {
        "encoding": "inplace",
        "label": "uint256",
        "numberOfBytes": "32"
      }
    }
  }
}