{
  "address": "0x957Ca4a4aA7CDc866cf430bb140753F04e273bC0",
  "abi": [
    {
      "inputs": [
        {
          "internalType": "string",
          "name": "_name",
          "type": "string"
        },
        {
          "internalType": "address",
          "name": "_rewardController",
          "type": "address"
        },
        {
          "internalType": "address",
          "name": "_tokenDelegator",
          "type": "address"
        },
        {
          "internalType": "address",
          "name": "_avToken",
          "type": "address"
        },
        {
          "internalType": "address",
          "name": "_avDebtToken",
          "type": "address"
        },
        {
          "internalType": "address",
          "name": "_timelock",
          "type": "address"
        },
        {
          "internalType": "uint256",
          "name": "_leverageLevel",
          "type": "uint256"
        },
        {
          "internalType": "uint256",
          "name": "_safetyFactor",
          "type": "uint256"
        },
        {
          "internalType": "uint256",
          "name": "_leverageBips",
          "type": "uint256"
        },
        {
          "internalType": "uint256",
          "name": "_minMinting",
          "type": "uint256"
        },
        {
          "internalType": "uint256",
          "name": "_minTokensToReinvest",
          "type": "uint256"
        },
        {
          "internalType": "uint256",
          "name": "_adminFeeBips",
          "type": "uint256"
        },
        {
          "internalType": "uint256",
          "name": "_devFeeBips",
          "type": "uint256"
        },
        {
          "internalType": "uint256",
          "name": "_reinvestRewardBips",
          "type": "uint256"
        }
      ],
      "stateMutability": "nonpayable",
      "type": "constructor"
    },
    {
      "anonymous": false,
      "inputs": [
        {
          "indexed": true,
          "internalType": "address",
          "name": "account",
          "type": "address"
        }
      ],
      "name": "AllowDepositor",
      "type": "event"
    },
    {
      "anonymous": false,
      "inputs": [
        {
          "indexed": true,
          "internalType": "address",
          "name": "owner",
          "type": "address"
        },
        {
          "indexed": true,
          "internalType": "address",
          "name": "spender",
          "type": "address"
        },
        {
          "indexed": false,
          "internalType": "uint256",
          "name": "value",
          "type": "uint256"
        }
      ],
      "name": "Approval",
      "type": "event"
    },
    {
      "anonymous": false,
      "inputs": [
        {
          "indexed": true,
          "internalType": "address",
          "name": "account",
          "type": "address"
        },
        {
          "indexed": false,
          "internalType": "uint256",
          "name": "amount",
          "type": "uint256"
        }
      ],
      "name": "Deposit",
      "type": "event"
    },
    {
      "anonymous": false,
      "inputs": [
        {
          "indexed": false,
          "internalType": "bool",
          "name": "newValue",
          "type": "bool"
        }
      ],
      "name": "DepositsEnabled",
      "type": "event"
    },
    {
      "anonymous": false,
      "inputs": [
        {
          "indexed": true,
          "internalType": "address",
          "name": "previousOwner",
          "type": "address"
        },
        {
          "indexed": true,
          "internalType": "address",
          "name": "newOwner",
          "type": "address"
        }
      ],
      "name": "OwnershipTransferred",
      "type": "event"
    },
    {
      "anonymous": false,
      "inputs": [
        {
          "indexed": false,
          "internalType": "address",
          "name": "token",
          "type": "address"
        },
        {
          "indexed": false,
          "internalType": "uint256",
          "name": "amount",
          "type": "uint256"
        }
      ],
      "name": "Recovered",
      "type": "event"
    },
    {
      "anonymous": false,
      "inputs": [
        {
          "indexed": false,
          "internalType": "uint256",
          "name": "newTotalDeposits",
          "type": "uint256"
        },
        {
          "indexed": false,
          "internalType": "uint256",
          "name": "newTotalSupply",
          "type": "uint256"
        }
      ],
      "name": "Reinvest",
      "type": "event"
    },
    {
      "anonymous": false,
      "inputs": [
        {
          "indexed": true,
          "internalType": "address",
          "name": "account",
          "type": "address"
        }
      ],
      "name": "RemoveDepositor",
      "type": "event"
    },
    {
      "anonymous": false,
      "inputs": [
        {
          "indexed": true,
          "internalType": "address",
          "name": "from",
          "type": "address"
        },
        {
          "indexed": true,
          "internalType": "address",
          "name": "to",
          "type": "address"
        },
        {
          "indexed": false,
          "internalType": "uint256",
          "name": "value",
          "type": "uint256"
        }
      ],
      "name": "Transfer",
      "type": "event"
    },
    {
      "anonymous": false,
      "inputs": [
        {
          "indexed": false,
          "internalType": "uint256",
          "name": "oldValue",
          "type": "uint256"
        },
        {
          "indexed": false,
          "internalType": "uint256",
          "name": "newValue",
          "type": "uint256"
        }
      ],
      "name": "UpdateAdminFee",
      "type": "event"
    },
    {
      "anonymous": false,
      "inputs": [
        {
          "indexed": false,
          "internalType": "address",
          "name": "oldValue",
          "type": "address"
        },
        {
          "indexed": false,
          "internalType": "address",
          "name": "newValue",
          "type": "address"
        }
      ],
      "name": "UpdateDevAddr",
      "type": "event"
    },
    {
      "anonymous": false,
      "inputs": [
        {
          "indexed": false,
          "internalType": "uint256",
          "name": "oldValue",
          "type": "uint256"
        },
        {
          "indexed": false,
          "internalType": "uint256",
          "name": "newValue",
          "type": "uint256"
        }
      ],
      "name": "UpdateDevFee",
      "type": "event"
    },
    {
      "anonymous": false,
      "inputs": [
        {
          "indexed": false,
          "internalType": "uint256",
          "name": "oldValue",
          "type": "uint256"
        },
        {
          "indexed": false,
          "internalType": "uint256",
          "name": "newValue",
          "type": "uint256"
        }
      ],
      "name": "UpdateMaxTokensToDepositWithoutReinvest",
      "type": "event"
    },
    {
      "anonymous": false,
      "inputs": [
        {
          "indexed": false,
          "internalType": "uint256",
          "name": "oldValue",
          "type": "uint256"
        },
        {
          "indexed": false,
          "internalType": "uint256",
          "name": "newValue",
          "type": "uint256"
        }
      ],
      "name": "UpdateMinTokensToReinvest",
      "type": "event"
    },
    {
      "anonymous": false,
      "inputs": [
        {
          "indexed": false,
          "internalType": "uint256",
          "name": "oldValue",
          "type": "uint256"
        },
        {
          "indexed": false,
          "internalType": "uint256",
          "name": "newValue",
          "type": "uint256"
        }
      ],
      "name": "UpdateReinvestReward",
      "type": "event"
    },
    {
      "anonymous": false,
      "inputs": [
        {
          "indexed": true,
          "internalType": "address",
          "name": "account",
          "type": "address"
        },
        {
          "indexed": false,
          "internalType": "uint256",
          "name": "amount",
          "type": "uint256"
        }
      ],
      "name": "Withdraw",
      "type": "event"
    },
    {
      "inputs": [],
      "name": "ADMIN_FEE_BIPS",
      "outputs": [
        {
          "internalType": "uint256",
          "name": "",
          "type": "uint256"
        }
      ],
      "stateMutability": "view",
      "type": "function"
    },
    {
      "inputs": [],
      "name": "DEPOSITS_ENABLED",
      "outputs": [
        {
          "internalType": "bool",
          "name": "",
          "type": "bool"
        }
      ],
      "stateMutability": "view",
      "type": "function"
    },
    {
      "inputs": [],
      "name": "DEV_FEE_BIPS",
      "outputs": [
        {
          "internalType": "uint256",
          "name": "",
          "type": "uint256"
        }
      ],
      "stateMutability": "view",
      "type": "function"
    },
    {
      "inputs": [],
      "name": "DOMAIN_TYPEHASH",
      "outputs": [
        {
          "internalType": "bytes32",
          "name": "",
          "type": "bytes32"
        }
      ],
      "stateMutability": "view",
      "type": "function"
    },
    {
      "inputs": [],
      "name": "MAX_TOKENS_TO_DEPOSIT_WITHOUT_REINVEST",
      "outputs": [
        {
          "internalType": "uint256",
          "name": "",
          "type": "uint256"
        }
      ],
      "stateMutability": "view",
      "type": "function"
    },
    {
      "inputs": [],
      "name": "MIN_TOKENS_TO_REINVEST",
      "outputs": [
        {
          "internalType": "uint256",
          "name": "",
          "type": "uint256"
        }
      ],
      "stateMutability": "view",
      "type": "function"
    },
    {
      "inputs": [],
      "name": "PERMIT_TYPEHASH",
      "outputs": [
        {
          "internalType": "bytes32",
          "name": "",
          "type": "bytes32"
        }
      ],
      "stateMutability": "view",
      "type": "function"
    },
    {
      "inputs": [],
      "name": "REINVEST_REWARD_BIPS",
      "outputs": [
        {
          "internalType": "uint256",
          "name": "",
          "type": "uint256"
        }
      ],
      "stateMutability": "view",
      "type": "function"
    },
    {
      "inputs": [],
      "name": "VERSION_HASH",
      "outputs": [
        {
          "internalType": "bytes32",
          "name": "",
          "type": "bytes32"
        }
      ],
      "stateMutability": "view",
      "type": "function"
    },
    {
      "inputs": [
        {
          "internalType": "address",
          "name": "depositor",
          "type": "address"
        }
      ],
      "name": "allowDepositor",
      "outputs": [],
      "stateMutability": "nonpayable",
      "type": "function"
    },
    {
      "inputs": [
        {
          "internalType": "address",
          "name": "account",
          "type": "address"
        },
        {
          "internalType": "address",
          "name": "spender",
          "type": "address"
        }
      ],
      "name": "allowance",
      "outputs": [
        {
          "internalType": "uint256",
          "name": "",
          "type": "uint256"
        }
      ],
      "stateMutability": "view",
      "type": "function"
    },
    {
      "inputs": [
        {
          "internalType": "address",
          "name": "",
          "type": "address"
        }
      ],
      "name": "allowedDepositors",
      "outputs": [
        {
          "internalType": "bool",
          "name": "",
          "type": "bool"
        }
      ],
      "stateMutability": "view",
      "type": "function"
    },
    {
      "inputs": [
        {
          "internalType": "address",
          "name": "spender",
          "type": "address"
        },
        {
          "internalType": "uint256",
          "name": "amount",
          "type": "uint256"
        }
      ],
      "name": "approve",
      "outputs": [
        {
          "internalType": "bool",
          "name": "",
          "type": "bool"
        }
      ],
      "stateMutability": "nonpayable",
      "type": "function"
    },
    {
      "inputs": [
        {
          "internalType": "address",
          "name": "account",
          "type": "address"
        }
      ],
      "name": "balanceOf",
      "outputs": [
        {
          "internalType": "uint256",
          "name": "",
          "type": "uint256"
        }
      ],
      "stateMutability": "view",
      "type": "function"
    },
    {
      "inputs": [],
      "name": "checkReward",
      "outputs": [
        {
          "internalType": "uint256",
          "name": "",
          "type": "uint256"
        }
      ],
      "stateMutability": "view",
      "type": "function"
    },
    {
      "inputs": [],
      "name": "decimals",
      "outputs": [
        {
          "internalType": "uint8",
          "name": "",
          "type": "uint8"
        }
      ],
      "stateMutability": "view",
      "type": "function"
    },
    {
      "inputs": [
        {
          "internalType": "uint256",
          "name": "amount",
          "type": "uint256"
        }
      ],
      "name": "deposit",
      "outputs": [],
      "stateMutability": "nonpayable",
      "type": "function"
    },
    {
      "inputs": [],
      "name": "deposit",
      "outputs": [],
      "stateMutability": "payable",
      "type": "function"
    },
    {
      "inputs": [
        {
          "internalType": "address",
          "name": "account",
          "type": "address"
        },
        {
          "internalType": "uint256",
          "name": "amount",
          "type": "uint256"
        }
      ],
      "name": "depositFor",
      "outputs": [],
      "stateMutability": "nonpayable",
      "type": "function"
    },
    {
      "inputs": [
        {
          "internalType": "address",
          "name": "account",
          "type": "address"
        }
      ],
      "name": "depositFor",
      "outputs": [],
      "stateMutability": "payable",
      "type": "function"
    },
    {
      "inputs": [],
      "name": "depositToken",
      "outputs": [
        {
          "internalType": "contract IERC20",
          "name": "",
          "type": "address"
        }
      ],
      "stateMutability": "view",
      "type": "function"
    },
    {
      "inputs": [
        {
          "internalType": "uint256",
          "name": "amount",
          "type": "uint256"
        },
        {
          "internalType": "uint256",
          "name": "deadline",
          "type": "uint256"
        },
        {
          "internalType": "uint8",
          "name": "v",
          "type": "uint8"
        },
        {
          "internalType": "bytes32",
          "name": "r",
          "type": "bytes32"
        },
        {
          "internalType": "bytes32",
          "name": "s",
          "type": "bytes32"
        }
      ],
      "name": "depositWithPermit",
      "outputs": [],
      "stateMutability": "nonpayable",
      "type": "function"
    },
    {
      "inputs": [],
      "name": "devAddr",
      "outputs": [
        {
          "internalType": "address",
          "name": "",
          "type": "address"
        }
      ],
      "stateMutability": "view",
      "type": "function"
    },
    {
      "inputs": [],
      "name": "estimateDeployedBalance",
      "outputs": [
        {
          "internalType": "uint256",
          "name": "",
          "type": "uint256"
        }
      ],
      "stateMutability": "view",
      "type": "function"
    },
    {
      "inputs": [],
      "name": "estimateReinvestReward",
      "outputs": [
        {
          "internalType": "uint256",
          "name": "",
          "type": "uint256"
        }
      ],
      "stateMutability": "view",
      "type": "function"
    },
    {
      "inputs": [],
      "name": "getActualLeverage",
      "outputs": [
        {
          "internalType": "uint256",
          "name": "",
          "type": "uint256"
        }
      ],
      "stateMutability": "view",
      "type": "function"
    },
    {
      "inputs": [
        {
          "internalType": "uint256",
          "name": "amount",
          "type": "uint256"
        }
      ],
      "name": "getDepositTokensForShares",
      "outputs": [
        {
          "internalType": "uint256",
          "name": "",
          "type": "uint256"
        }
      ],
      "stateMutability": "view",
      "type": "function"
    },
    {
      "inputs": [],
      "name": "getDomainSeparator",
      "outputs": [
        {
          "internalType": "bytes32",
          "name": "",
          "type": "bytes32"
        }
      ],
      "stateMutability": "view",
      "type": "function"
    },
    {
      "inputs": [
        {
          "internalType": "uint256",
          "name": "amount",
          "type": "uint256"
        }
      ],
      "name": "getSharesForDepositTokens",
      "outputs": [
        {
          "internalType": "uint256",
          "name": "",
          "type": "uint256"
        }
      ],
      "stateMutability": "view",
      "type": "function"
    },
    {
      "inputs": [],
      "name": "name",
      "outputs": [
        {
          "internalType": "string",
          "name": "",
          "type": "string"
        }
      ],
      "stateMutability": "view",
      "type": "function"
    },
    {
      "inputs": [
        {
          "internalType": "address",
          "name": "",
          "type": "address"
        }
      ],
      "name": "nonces",
      "outputs": [
        {
          "internalType": "uint256",
          "name": "",
          "type": "uint256"
        }
      ],
      "stateMutability": "view",
      "type": "function"
    },
    {
      "inputs": [],
      "name": "numberOfAllowedDepositors",
      "outputs": [
        {
          "internalType": "uint256",
          "name": "",
          "type": "uint256"
        }
      ],
      "stateMutability": "view",
      "type": "function"
    },
    {
      "inputs": [],
      "name": "owner",
      "outputs": [
        {
          "internalType": "address",
          "name": "",
          "type": "address"
        }
      ],
      "stateMutability": "view",
      "type": "function"
    },
    {
      "inputs": [
        {
          "internalType": "address",
          "name": "owner",
          "type": "address"
        },
        {
          "internalType": "address",
          "name": "spender",
          "type": "address"
        },
        {
          "internalType": "uint256",
          "name": "value",
          "type": "uint256"
        },
        {
          "internalType": "uint256",
          "name": "deadline",
          "type": "uint256"
        },
        {
          "internalType": "uint8",
          "name": "v",
          "type": "uint8"
        },
        {
          "internalType": "bytes32",
          "name": "r",
          "type": "bytes32"
        },
        {
          "internalType": "bytes32",
          "name": "s",
          "type": "bytes32"
        }
      ],
      "name": "permit",
      "outputs": [],
      "stateMutability": "nonpayable",
      "type": "function"
    },
    {
      "inputs": [
        {
          "internalType": "uint256",
          "name": "amount",
          "type": "uint256"
        }
      ],
      "name": "recoverAVAX",
      "outputs": [],
      "stateMutability": "nonpayable",
      "type": "function"
    },
    {
      "inputs": [
        {
          "internalType": "address",
          "name": "tokenAddress",
          "type": "address"
        },
        {
          "internalType": "uint256",
          "name": "tokenAmount",
          "type": "uint256"
        }
      ],
      "name": "recoverERC20",
      "outputs": [],
      "stateMutability": "nonpayable",
      "type": "function"
    },
    {
      "inputs": [],
      "name": "reinvest",
      "outputs": [],
      "stateMutability": "nonpayable",
      "type": "function"
    },
    {
      "inputs": [
        {
          "internalType": "address",
          "name": "depositor",
          "type": "address"
        }
      ],
      "name": "removeDepositor",
      "outputs": [],
      "stateMutability": "nonpayable",
      "type": "function"
    },
    {
      "inputs": [],
      "name": "renounceOwnership",
      "outputs": [],
      "stateMutability": "nonpayable",
      "type": "function"
    },
    {
      "inputs": [
        {
          "internalType": "uint256",
          "name": "minReturnAmountAccepted",
          "type": "uint256"
        },
        {
          "internalType": "bool",
          "name": "disableDeposits",
          "type": "bool"
        }
      ],
      "name": "rescueDeployedFunds",
      "outputs": [],
      "stateMutability": "nonpayable",
      "type": "function"
    },
    {
      "inputs": [
        {
          "internalType": "address",
          "name": "token",
          "type": "address"
        },
        {
          "internalType": "address",
          "name": "spender",
          "type": "address"
        }
      ],
      "name": "revokeAllowance",
      "outputs": [],
      "stateMutability": "nonpayable",
      "type": "function"
    },
    {
      "inputs": [],
      "name": "rewardToken",
      "outputs": [
        {
          "internalType": "contract IERC20",
          "name": "",
          "type": "address"
        }
      ],
      "stateMutability": "view",
      "type": "function"
    },
    {
      "inputs": [],
      "name": "setAllowances",
      "outputs": [],
      "stateMutability": "nonpayable",
      "type": "function"
    },
    {
      "inputs": [],
      "name": "symbol",
      "outputs": [
        {
          "internalType": "string",
          "name": "",
          "type": "string"
        }
      ],
      "stateMutability": "view",
      "type": "function"
    },
    {
      "inputs": [],
      "name": "totalDeposits",
      "outputs": [
        {
          "internalType": "uint256",
          "name": "",
          "type": "uint256"
        }
      ],
      "stateMutability": "view",
      "type": "function"
    },
    {
      "inputs": [],
      "name": "totalSupply",
      "outputs": [
        {
          "internalType": "uint256",
          "name": "",
          "type": "uint256"
        }
      ],
      "stateMutability": "view",
      "type": "function"
    },
    {
      "inputs": [
        {
          "internalType": "address",
          "name": "dst",
          "type": "address"
        },
        {
          "internalType": "uint256",
          "name": "amount",
          "type": "uint256"
        }
      ],
      "name": "transfer",
      "outputs": [
        {
          "internalType": "bool",
          "name": "",
          "type": "bool"
        }
      ],
      "stateMutability": "nonpayable",
      "type": "function"
    },
    {
      "inputs": [
        {
          "internalType": "address",
          "name": "src",
          "type": "address"
        },
        {
          "internalType": "address",
          "name": "dst",
          "type": "address"
        },
        {
          "internalType": "uint256",
          "name": "amount",
          "type": "uint256"
        }
      ],
      "name": "transferFrom",
      "outputs": [
        {
          "internalType": "bool",
          "name": "",
          "type": "bool"
        }
      ],
      "stateMutability": "nonpayable",
      "type": "function"
    },
    {
      "inputs": [
        {
          "internalType": "address",
          "name": "newOwner",
          "type": "address"
        }
      ],
      "name": "transferOwnership",
      "outputs": [],
      "stateMutability": "nonpayable",
      "type": "function"
    },
    {
      "inputs": [
        {
          "internalType": "uint256",
          "name": "newValue",
          "type": "uint256"
        }
      ],
      "name": "updateAdminFee",
      "outputs": [],
      "stateMutability": "nonpayable",
      "type": "function"
    },
    {
      "inputs": [
        {
          "internalType": "bool",
          "name": "newValue",
          "type": "bool"
        }
      ],
      "name": "updateDepositsEnabled",
      "outputs": [],
      "stateMutability": "nonpayable",
      "type": "function"
    },
    {
      "inputs": [
        {
          "internalType": "address",
          "name": "newValue",
          "type": "address"
        }
      ],
      "name": "updateDevAddr",
      "outputs": [],
      "stateMutability": "nonpayable",
      "type": "function"
    },
    {
      "inputs": [
        {
          "internalType": "uint256",
          "name": "newValue",
          "type": "uint256"
        }
      ],
      "name": "updateDevFee",
      "outputs": [],
      "stateMutability": "nonpayable",
      "type": "function"
    },
    {
      "inputs": [
        {
          "internalType": "uint256",
          "name": "_leverageLevel",
          "type": "uint256"
        },
        {
          "internalType": "uint256",
          "name": "_safetyFactor",
          "type": "uint256"
        },
        {
          "internalType": "uint256",
          "name": "_minMinting",
          "type": "uint256"
        },
        {
          "internalType": "uint256",
          "name": "_leverageBips",
          "type": "uint256"
        }
      ],
      "name": "updateLeverage",
      "outputs": [],
      "stateMutability": "nonpayable",
      "type": "function"
    },
    {
      "inputs": [
        {
          "internalType": "uint256",
          "name": "newValue",
          "type": "uint256"
        }
      ],
      "name": "updateMaxTokensToDepositWithoutReinvest",
      "outputs": [],
      "stateMutability": "nonpayable",
      "type": "function"
    },
    {
      "inputs": [
        {
          "internalType": "uint256",
          "name": "newValue",
          "type": "uint256"
        }
      ],
      "name": "updateMinTokensToReinvest",
      "outputs": [],
      "stateMutability": "nonpayable",
      "type": "function"
    },
    {
      "inputs": [
        {
          "internalType": "uint256",
          "name": "newValue",
          "type": "uint256"
        }
      ],
      "name": "updateReinvestReward",
      "outputs": [],
      "stateMutability": "nonpayable",
      "type": "function"
    },
    {
      "inputs": [
        {
          "internalType": "uint256",
          "name": "amount",
          "type": "uint256"
        }
      ],
      "name": "withdraw",
      "outputs": [],
      "stateMutability": "nonpayable",
      "type": "function"
    },
    {
      "stateMutability": "payable",
      "type": "receive"
    }
  ],
  "transactionHash": "0xe132e2ffe663e51eca67ce3574d4f168ce0d731ddf6a6aaab63bc48a785a807d",
  "args": [
    "Yield Yak: Aave AVAX",
    "0x01D83Fe6A10D2f2B7AF17034343746188272cAc9",
    "0x4f01aed16d97e3ab5ab2b501154dc9bb0f1a5a2c",
    "0xDFE521292EcE2A4f44242efBcD66Bc594CA9714B",
    "0x66A0FE52Fb629a6cB4D10B8580AFDffE888F5Fd4",
    "0x8d36C5c6947ADCcd25Ef49Ea1aAC2ceACFff0bD7",
    "20000",
    "625",
    "10000",
    "1000000000000",
    "10000000000000",
    700,
    0,
    100
  ],
  "solcInputHash": "3488dae135aebc75534d92d6061e554d",
  "bytecode": "0x60c060405260096080819052685969656c642059616b60b81b60a09081526200002c916000919062000aa1565b506040805180820190915260038082526216549560ea1b6020909201918252620000599160019162000aa1565b503480156200006757600080fd5b5060405162004c7e38038062004c7e83398181016040526101c08110156200008e57600080fd5b8101908080516040519392919084640100000000821115620000af57600080fd5b908301906020820185811115620000c557600080fd5b8251640100000000811182820188101715620000e057600080fd5b82525081516020918201929091019080838360005b838110156200010f578181015183820152602001620000f5565b50505050905090810190601f1680156200013d5780820380516001836020036101000a031916815260200191505b5060409081526020820151908201516060830151608084015160a085015160c086015160e08701516101008801516101208901516101408a01516101608b01516101808c01516101a0909c01519a9d50989b50969995989497939692959194909391906000620001ac6200037d565b600680546001600160a01b0319166001600160a01b0383169081179091556040519192509060009060008051602062004c5e833981519152908290a35060016012819055508d600090805190602001906200020992919062000aa1565b508c601360006101000a8154816001600160a01b0302191690836001600160a01b031602179055508b601460006101000a8154816001600160a01b0302191690836001600160a01b0316021790555073b31f66aa3c1e785363f0875a1b74e27b85fd66c7600a60006101000a8154816001600160a01b0302191690836001600160a01b03160217905550620002a7888887896200038160201b60201c565b600b8054336001600160a01b0319918216179091556019805482166001600160a01b038e811691909117909155601a8054909216908c16179055620002eb62000395565b620002f6846200051e565b6200030183620005c8565b6200030c82620006b8565b620003178162000794565b62000323600162000870565b6200032e8962000936565b604080516000808252602082015281517fc7606d21ac05cd309191543e409f0845c016120563783d70e4f41419dc0ef234929181900390910190a1505050505050505050505050505062000b3d565b3390565b601593909355601792909255601655601855565b6200039f6200037d565b6001600160a01b0316620003b262000a30565b6001600160a01b031614620003fd576040805162461bcd60e51b8152602060048201819052602482015260008051602062004c3e833981519152604482015290519081900360640190fd5b6014546040805163095ea7b360e01b81526001600160a01b03909216600483015260001960248301525173b31f66aa3c1e785363f0875a1b74e27b85fd66c79163095ea7b39160448083019260209291908290030181600087803b1580156200046557600080fd5b505af11580156200047a573d6000803e3d6000fd5b505050506040513d60208110156200049157600080fd5b50506019546014546040805163095ea7b360e01b81526001600160a01b03928316600482015260001960248201529051919092169163095ea7b39160448083019260209291908290030181600087803b158015620004ee57600080fd5b505af115801562000503573d6000803e3d6000fd5b505050506040513d60208110156200051a57600080fd5b5050565b620005286200037d565b6001600160a01b03166200053b62000a30565b6001600160a01b03161462000586576040805162461bcd60e51b8152602060048201819052602482015260008051602062004c3e833981519152604482015290519081900360640190fd5b600c54604080519182526020820183905280517f481f79ac3a523b6d6db3c5a720e190e986d1cc1b41adcdf50f9caef8499011009281900390910190a1600c55565b620005d26200037d565b6001600160a01b0316620005e562000a30565b6001600160a01b03161462000630576040805162461bcd60e51b8152602060048201819052602482015260008051602062004c3e833981519152604482015290519081900360640190fd5b6127106200066a600f54620006566011548562000a3f60201b620029b41790919060201c565b62000a3f60201b620029b41790919060201c565b11156200067657600080fd5b601054604080519182526020820183905280517f3cc372f330f95ac9540626dc8a25f5bf21ba607215a5d58304cb804d446f104a9281900390910190a1601055565b620006c26200037d565b6001600160a01b0316620006d562000a30565b6001600160a01b03161462000720576040805162461bcd60e51b8152602060048201819052602482015260008051602062004c3e833981519152604482015290519081900360640190fd5b61271062000746600f54620006566010548562000a3f60201b620029b41790919060201c565b11156200075257600080fd5b601154604080519182526020820183905280517f2a42303d002f0ba6cfe8259c91d4684443fb0b3de286ba74991175d6517261319281900390910190a1601155565b6200079e6200037d565b6001600160a01b0316620007b162000a30565b6001600160a01b031614620007fc576040805162461bcd60e51b8152602060048201819052602482015260008051602062004c3e833981519152604482015290519081900360640190fd5b61271062000822601154620006566010548562000a3f60201b620029b41790919060201c565b11156200082e57600080fd5b600f54604080519182526020820183905280517fe7f97d51d307dc44045597c9978bec0f842e6bb40d19b9444084cfa30d9ed4f29281900390910190a1600f55565b6200087a6200037d565b6001600160a01b03166200088d62000a30565b6001600160a01b031614620008d8576040805162461bcd60e51b8152602060048201819052602482015260008051602062004c3e833981519152604482015290519081900360640190fd5b600e5460ff1615158115151415620008ef57600080fd5b600e805482151560ff19909116811790915560408051918252517f7b014ed3854e7f5cb0218d58b3c6ae7d53a68bb0af2f67bfb029ea42c38a7e859181900360200190a150565b620009406200037d565b6001600160a01b03166200095362000a30565b6001600160a01b0316146200099e576040805162461bcd60e51b8152602060048201819052602482015260008051602062004c3e833981519152604482015290519081900360640190fd5b6001600160a01b038116620009e55760405162461bcd60e51b815260040180806020018281038252602681526020018062004c186026913960400191505060405180910390fd5b6006546040516001600160a01b0380841692169060008051602062004c5e83398151915290600090a3600680546001600160a01b0319166001600160a01b0392909216919091179055565b6006546001600160a01b031690565b60008282018381101562000a9a576040805162461bcd60e51b815260206004820152601b60248201527f536166654d6174683a206164646974696f6e206f766572666c6f770000000000604482015290519081900360640190fd5b9392505050565b828054600181600116156101000203166002900490600052602060002090601f016020900481019282601f1062000ae457805160ff191683800117855562000b14565b8280016001018555821562000b14579182015b8281111562000b1457825182559160200191906001019062000af7565b5062000b2292915062000b26565b5090565b5b8082111562000b22576000815560010162000b27565b6140cb8062000b4d6000396000f3fe6080604052600436106103855760003560e01c80638da5cb5b116101d1578063c89039c511610102578063dd62ed3e116100a0578063ed24911d1161006f578063ed24911d14610c9c578063f2fde38b14610cb1578063f7c618c114610ce4578063fdb5a03e14610cf9576103f4565b8063dd62ed3e14610be3578063dd8ce4d614610c1e578063e21ac82514610c48578063eab89a5a14610c72576103f4565b8063d505accf116100dc578063d505accf14610b46578063da09c72c14610ba4578063db8dd95c14610bb9578063dbd9a4d414610bce576103f4565b8063c89039c514610aff578063cff1b6ef14610b14578063d0e30db014610b3e576103f4565b8063aa67c9191161016f578063b6b55f2511610149578063b6b55f2514610a96578063b9e57b8014610ac0578063bd079f5514610ad5578063c4b24a4614610aea576103f4565b8063aa67c91914610a29578063ac0d31ff14610a4f578063b52a321f14610a81576103f4565b806399729ec1116101ab57806399729ec1146109875780639e4e7318146109b1578063a8ae2b7c146109c6578063a9059cbb146109f0576103f4565b80638da5cb5b1461090e5780639291d5631461093f57806395d89b4114610972576103f4565b80634a970be7116102b6578063789139bc11610254578063818372301161022357806381837230146108635780638980f11f1461088d5780638aff733d146108c65780638b73e606146108db576103f4565b8063789139bc146107cb5780637ae26773146107e05780637d8820971461081b5780637ecebe0014610830576103f4565b80634ebb7916116102905780634ebb7916146107445780635ea682ea1461076e57806370a0823114610783578063715018a6146107b6576103f4565b80634a970be7146106a05780634bebd1e7146106e55780634e77ace514610718576103f4565b806323b872dd1161032357806330adf81f116102fd57806330adf81f14610618578063313ce5671461062d5780633bdc6e7214610658578063483c2ef01461066d576103f4565b806323b872dd146105725780632e1a7d4d146105b55780632f4f21e2146105df576103f4565b80630f23475d1161035f5780630f23475d146104f757806318160ddd1461050c57806320606b701461052157806322a0514114610536576103f4565b806306fdde03146103f95780630767711114610483578063095ea7b3146104aa576103f4565b366103f4573373b31f66aa3c1e785363f0875a1b74e27b85fd66c7146103f2576040805162461bcd60e51b815260206004820152600b60248201527f6e6f7420616c6c6f776564000000000000000000000000000000000000000000604482015290519081900360640190fd5b005b600080fd5b34801561040557600080fd5b5061040e610d0e565b6040805160208082528351818301528351919283929083019185019080838360005b83811015610448578181015183820152602001610430565b50505050905090810190601f1680156104755780820380516001836020036101000a031916815260200191505b509250505060405180910390f35b34801561048f57600080fd5b50610498610d9c565b60408051918252519081900360200190f35b3480156104b657600080fd5b506104e3600480360360408110156104cd57600080fd5b506001600160a01b038135169060200135610da2565b604080519115158252519081900360200190f35b34801561050357600080fd5b50610498610db9565b34801561051857600080fd5b50610498610dc9565b34801561052d57600080fd5b50610498610dcf565b34801561054257600080fd5b506103f26004803603608081101561055957600080fd5b5080359060208101359060408101359060600135610df3565b34801561057e57600080fd5b506104e36004803603606081101561059557600080fd5b506001600160a01b03813581169160208101359091169060400135610e91565b3480156105c157600080fd5b506103f2600480360360208110156105d857600080fd5b5035610f73565b3480156105eb57600080fd5b506103f26004803603604081101561060257600080fd5b506001600160a01b0381351690602001356103f4565b34801561062457600080fd5b5061049861111c565b34801561063957600080fd5b50610642611140565b6040805160ff9092168252519081900360200190f35b34801561066457600080fd5b50610498611145565b34801561067957600080fd5b506104e36004803603602081101561069057600080fd5b50356001600160a01b031661114b565b3480156106ac57600080fd5b506103f2600480360360a08110156106c357600080fd5b5080359060208101359060ff60408201351690606081013590608001356103f4565b3480156106f157600080fd5b506103f26004803603602081101561070857600080fd5b50356001600160a01b0316611160565b34801561072457600080fd5b506103f26004803603602081101561073b57600080fd5b5035151561129c565b34801561075057600080fd5b506103f26004803603602081101561076757600080fd5b503561135b565b34801561077a57600080fd5b50610498611437565b34801561078f57600080fd5b50610498600480360360208110156107a657600080fd5b50356001600160a01b031661143d565b3480156107c257600080fd5b506103f261145c565b3480156107d757600080fd5b50610498611515565b3480156107ec57600080fd5b506103f26004803603604081101561080357600080fd5b506001600160a01b038135811691602001351661151b565b34801561082757600080fd5b5061049861160e565b34801561083c57600080fd5b506104986004803603602081101561085357600080fd5b50356001600160a01b0316611632565b34801561086f57600080fd5b506103f26004803603602081101561088657600080fd5b5035611644565b34801561089957600080fd5b506103f2600480360360408110156108b057600080fd5b506001600160a01b0381351690602001356116e8565b3480156108d257600080fd5b5061049861183c565b3480156108e757600080fd5b506103f2600480360360208110156108fe57600080fd5b50356001600160a01b0316611842565b34801561091a57600080fd5b506109236119a9565b604080516001600160a01b039092168252519081900360200190f35b34801561094b57600080fd5b506103f26004803603602081101561096257600080fd5b50356001600160a01b03166119b8565b34801561097e57600080fd5b5061040e611a8e565b34801561099357600080fd5b506103f2600480360360208110156109aa57600080fd5b5035611ae8565b3480156109bd57600080fd5b50610498611bbb565b3480156109d257600080fd5b506103f2600480360360208110156109e957600080fd5b5035611bdf565b3480156109fc57600080fd5b506104e360048036036040811015610a1357600080fd5b506001600160a01b038135169060200135611cac565b6103f260048036036020811015610a3f57600080fd5b50356001600160a01b0316611cb9565b348015610a5b57600080fd5b506103f260048036036040811015610a7257600080fd5b50803590602001351515611d93565b348015610a8d57600080fd5b506104e3612068565b348015610aa257600080fd5b506103f260048036036020811015610ab957600080fd5b50356103f4565b348015610acc57600080fd5b50610498612071565b348015610ae157600080fd5b506104986120b2565b348015610af657600080fd5b506104986120b8565b348015610b0b57600080fd5b506109236120c2565b348015610b2057600080fd5b506103f260048036036020811015610b3757600080fd5b50356120d1565b6103f261219e565b348015610b5257600080fd5b506103f2600480360360e0811015610b6957600080fd5b506001600160a01b03813581169160208101359091169060408101359060608101359060ff6080820135169060a08101359060c00135612277565b348015610bb057600080fd5b50610923612377565b348015610bc557600080fd5b50610498612386565b348015610bda57600080fd5b506103f26123b8565b348015610bef57600080fd5b5061049860048036036040811015610c0657600080fd5b506001600160a01b0381358116916020013516612531565b348015610c2a57600080fd5b5061049860048036036020811015610c4157600080fd5b503561255c565b348015610c5457600080fd5b506103f260048036036020811015610c6b57600080fd5b5035612596565b348015610c7e57600080fd5b5061049860048036036020811015610c9557600080fd5b503561263a565b348015610ca857600080fd5b5061049861266b565b348015610cbd57600080fd5b506103f260048036036020811015610cd457600080fd5b50356001600160a01b0316612778565b348015610cf057600080fd5b50610923612888565b348015610d0557600080fd5b506103f2612897565b6000805460408051602060026001851615610100026000190190941693909304601f81018490048402820184019092528181529291830182828015610d945780601f10610d6957610100808354040283529160200191610d94565b820191906000526020600020905b815481529060010190602001808311610d7757829003601f168201915b505050505081565b60105481565b6000610daf338484612a15565b5060015b92915050565b6000610dc361160e565b90505b90565b60025481565b7f8b73c3c69bb8fe3d512ecc4cf759cc79239f7b179b0ffacaa9a75d522b39400f81565b600b546001600160a01b03163314610e52576040805162461bcd60e51b815260206004820152601460248201527f59616b53747261746567793a3a6f6e6c79446576000000000000000000000000604482015290519081900360640190fd5b610e5e84848484612b2d565b600080610e69612b41565b509092509050610e81610e7c8383612ca2565b612ce4565b610e89612edf565b505050505050565b6001600160a01b038316600081815260036020908152604080832033808552925282205491929091908214801590610ecb57506000198114155b15610f5c576000610ef7856040518060600160405280602f8152602001613fc7602f91398491906130a4565b6001600160a01b0380891660008181526003602090815260408083209489168084529482529182902085905581518581529151949550929391927f8c5be1e5ebec7d5bd14f71427d1e84f3dd0314c0f7b2291e5b200ac8c7c3b92592918290030190a3505b610f6786868661313b565b50600195945050505050565b60026012541415610fcb576040805162461bcd60e51b815260206004820152601f60248201527f5265656e7472616e637947756172643a207265656e7472616e742063616c6c00604482015290519081900360640190fd5b60026012819055506000610ff3600254610fed84610fe761160e565b90613248565b906132a1565b905060185481116110355760405162461bcd60e51b815260040180806020018281038252602a815260200180613e89602a913960400191505060405180910390fd5b80156111135761104533836132e3565b6000611050826133b8565b604051909150600090339083908381818185875af1925050503d8060008114611095576040519150601f19603f3d011682016040523d82523d6000602084013e61109a565b606091505b50509050806110da5760405162461bcd60e51b8152600401808060200182810382526023815260200180613ff66023913960400191505060405180910390fd5b60408051838152905133917f884edad9ce6fa2440d8a54cc123490eb96d2768479d49ff9c7366125a9424364919081900360200190a250505b50506001601255565b7f6e71edae12b1b97f4d1f60370fef10105fa2faae0126114a169c64845d6126c981565b601281565b60075481565b60086020526000908152604090205460ff1681565b611168613508565b6001600160a01b03166111796119a9565b6001600160a01b0316146111c2576040805162461bcd60e51b81526020600482018190526024820152600080516020613f25833981519152604482015290519081900360640190fd5b6001600160a01b03811660009081526008602052604090205460ff1615611230576040805162461bcd60e51b815260206004820152601c60248201527f5065726d697373696f6e65643a3a616c6c6f774465706f7369746f7200000000604482015290519081900360640190fd5b6001600160a01b0381166000908152600860205260409020805460ff19166001908117909155600754611262916129b4565b6007556040516001600160a01b038216907fc0a1035c16faf8d1304056d92c00edf028f87e62b8235a938f00af9e3c0312c590600090a250565b6112a4613508565b6001600160a01b03166112b56119a9565b6001600160a01b0316146112fe576040805162461bcd60e51b81526020600482018190526024820152600080516020613f25833981519152604482015290519081900360640190fd5b600e5460ff161515811515141561131457600080fd5b600e805482151560ff19909116811790915560408051918252517f7b014ed3854e7f5cb0218d58b3c6ae7d53a68bb0af2f67bfb029ea42c38a7e859181900360200190a150565b611363613508565b6001600160a01b03166113746119a9565b6001600160a01b0316146113bd576040805162461bcd60e51b81526020600482018190526024820152600080516020613f25833981519152604482015290519081900360640190fd5b600081116113ca57600080fd5b604051339082156108fc029083906000818181858888f193505050501580156113f7573d6000803e3d6000fd5b5060408051600081526020810183905281517f8c1256b8896378cd5044f80c202f9772b9d77dc85c8a6eb51967210b09bfaa28929181900390910190a150565b60115481565b6001600160a01b0381166000908152600460205260409020545b919050565b611464613508565b6001600160a01b03166114756119a9565b6001600160a01b0316146114be576040805162461bcd60e51b81526020600482018190526024820152600080516020613f25833981519152604482015290519081900360640190fd5b6006546040516000916001600160a01b0316907f8be0079c531659141344cd1fd0a4f28419497f9722a3daafe3b4186f6b6457e0908390a36006805473ffffffffffffffffffffffffffffffffffffffff19169055565b600d5481565b611523613508565b6001600160a01b03166115346119a9565b6001600160a01b03161461157d576040805162461bcd60e51b81526020600482018190526024820152600080516020613f25833981519152604482015290519081900360640190fd5b816001600160a01b031663095ea7b38260006040518363ffffffff1660e01b815260040180836001600160a01b0316815260200182815260200192505050602060405180830381600087803b1580156115d557600080fd5b505af11580156115e9573d6000803e3d6000fd5b505050506040513d60208110156115ff57600080fd5b505161160a57600080fd5b5050565b600080600061161b612b41565b50909250905061162b8282612ca2565b9250505090565b60056020526000908152604090205481565b61164c613508565b6001600160a01b031661165d6119a9565b6001600160a01b0316146116a6576040805162461bcd60e51b81526020600482018190526024820152600080516020613f25833981519152604482015290519081900360640190fd5b600c54604080519182526020820183905280517f481f79ac3a523b6d6db3c5a720e190e986d1cc1b41adcdf50f9caef8499011009281900390910190a1600c55565b6116f0613508565b6001600160a01b03166117016119a9565b6001600160a01b03161461174a576040805162461bcd60e51b81526020600482018190526024820152600080516020613f25833981519152604482015290519081900360640190fd5b6000811161175757600080fd5b604080517fa9059cbb0000000000000000000000000000000000000000000000000000000081523360048201526024810183905290516001600160a01b0384169163a9059cbb9160448083019260209291908290030181600087803b1580156117bf57600080fd5b505af11580156117d3573d6000803e3d6000fd5b505050506040513d60208110156117e957600080fd5b50516117f457600080fd5b604080516001600160a01b03841681526020810183905281517f8c1256b8896378cd5044f80c202f9772b9d77dc85c8a6eb51967210b09bfaa28929181900390910190a15050565b600f5481565b61184a613508565b6001600160a01b031661185b6119a9565b6001600160a01b0316146118a4576040805162461bcd60e51b81526020600482018190526024820152600080516020613f25833981519152604482015290519081900360640190fd5b6000600754116118e55760405162461bcd60e51b8152600401808060200182810382526034815260200180613e316034913960400191505060405180910390fd5b6001600160a01b03811660009081526008602052604090205460ff1615156001146119415760405162461bcd60e51b815260040180806020018281038252602a815260200180613eb3602a913960400191505060405180910390fd5b6001600160a01b0381166000908152600860205260409020805460ff1916905560075461196f906001612ca2565b6007556040516001600160a01b038216907f0e86f6608b536e5339a25b65ff531f5ea91e1313d056ecd4752b35cbd16137d490600090a250565b6006546001600160a01b031690565b600b546001600160a01b03163314611a17576040805162461bcd60e51b815260206004820152601460248201527f59616b53747261746567793a3a6f6e6c79446576000000000000000000000000604482015290519081900360640190fd5b600b54604080516001600160a01b039283168152918316602083015280517fa8e91499ed37682f43cffb045fcc7d379a91e8c9a14e6321877ee34dee564c009281900390910190a1600b805473ffffffffffffffffffffffffffffffffffffffff19166001600160a01b0392909216919091179055565b60018054604080516020600284861615610100026000190190941693909304601f81018490048402820184019092528181529291830182828015610d945780601f10610d6957610100808354040283529160200191610d94565b611af0613508565b6001600160a01b0316611b016119a9565b6001600160a01b031614611b4a576040805162461bcd60e51b81526020600482018190526024820152600080516020613f25833981519152604482015290519081900360640190fd5b612710611b6e600f54611b68601054856129b490919063ffffffff16565b906129b4565b1115611b7957600080fd5b601154604080519182526020820183905280517f2a42303d002f0ba6cfe8259c91d4684443fb0b3de286ba74991175d6517261319281900390910190a1601155565b7fc89efdaa54c0f20c7adf612882df0950f5a951637e0307cdcb4c672f298b8bc681565b611be7613508565b6001600160a01b0316611bf86119a9565b6001600160a01b031614611c41576040805162461bcd60e51b81526020600482018190526024820152600080516020613f25833981519152604482015290519081900360640190fd5b612710611c5f601154611b68601054856129b490919063ffffffff16565b1115611c6a57600080fd5b600f54604080519182526020820183905280517fe7f97d51d307dc44045597c9978bec0f842e6bb40d19b9444084cfa30d9ed4f29281900390910190a1600f55565b6000610daf33848461313b565b60026012541415611d11576040805162461bcd60e51b815260206004820152601f60248201527f5265656e7472616e637947756172643a207265656e7472616e742063616c6c00604482015290519081900360640190fd5b600260128190555073b31f66aa3c1e785363f0875a1b74e27b85fd66c76001600160a01b031663d0e30db0346040518263ffffffff1660e01b81526004016000604051808303818588803b158015611d6857600080fd5b505af1158015611d7c573d6000803e3d6000fd5b5050505050611d8b813461350c565b506001601255565b611d9b613508565b6001600160a01b0316611dac6119a9565b6001600160a01b031614611df5576040805162461bcd60e51b81526020600482018190526024820152600080516020613f25833981519152604482015290519081900360640190fd5b604080516370a0823160e01b8152306004820152905160009173b31f66aa3c1e785363f0875a1b74e27b85fd66c7916370a0823191602480820192602092909190829003018186803b158015611e4a57600080fd5b505afa158015611e5e573d6000803e3d6000fd5b505050506040513d6020811015611e7457600080fd5b50519050600080611e83612b41565b509092509050611e96610e7c8383612ca2565b60145460408051631a4ca37b60e21b815273b31f66aa3c1e785363f0875a1b74e27b85fd66c76004820152600019602482015230604482015290516001600160a01b03909216916369328dec916064808201926020929091908290030181600087803b158015611f0557600080fd5b505af1158015611f19573d6000803e3d6000fd5b505050506040513d6020811015611f2f57600080fd5b5050604080516370a0823160e01b8152306004820152905160009173b31f66aa3c1e785363f0875a1b74e27b85fd66c7916370a0823191602480820192602092909190829003018186803b158015611f8657600080fd5b505afa158015611f9a573d6000803e3d6000fd5b505050506040513d6020811015611fb057600080fd5b5051905085611fbf8286612ca2565b1015611ffc5760405162461bcd60e51b8152600401808060200182810382526027815260200180613f456027913960400191505060405180910390fd5b7fc7606d21ac05cd309191543e409f0845c016120563783d70e4f41419dc0ef23461202561160e565b6002546040805192835260208301919091528051918290030190a1600e5460ff161515600114801561205957506001851515145b15610e8957610e89600061129c565b600e5460ff1681565b60008061207c6120b8565b9050600c5481106120aa576120a2612710610fed600f548461324890919063ffffffff16565b915050610dc6565b600091505090565b600c5481565b6000610dc361364a565b6009546001600160a01b031681565b6120d9613508565b6001600160a01b03166120ea6119a9565b6001600160a01b031614612133576040805162461bcd60e51b81526020600482018190526024820152600080516020613f25833981519152604482015290519081900360640190fd5b612710612151600f54611b68601154856129b490919063ffffffff16565b111561215c57600080fd5b601054604080519182526020820183905280517f3cc372f330f95ac9540626dc8a25f5bf21ba607215a5d58304cb804d446f104a9281900390910190a1601055565b600260125414156121f6576040805162461bcd60e51b815260206004820152601f60248201527f5265656e7472616e637947756172643a207265656e7472616e742063616c6c00604482015290519081900360640190fd5b600260128190555073b31f66aa3c1e785363f0875a1b74e27b85fd66c76001600160a01b031663d0e30db0346040518263ffffffff1660e01b81526004016000604051808303818588803b15801561224d57600080fd5b505af1158015612261573d6000803e3d6000fd5b5050505050612270333461350c565b6001601255565b428410156122cc576040805162461bcd60e51b815260206004820152600f60248201527f7065726d69743a3a657870697265640000000000000000000000000000000000604482015290519081900360640190fd5b6001600160a01b0380881660008181526005602090815260409182902080546001810190915582517f6e71edae12b1b97f4d1f60370fef10105fa2faae0126114a169c64845d6126c98184015280840194909452938a1660608401526080830189905260a083019390935260c08083018890528151808403909101815260e09092019052805191012061236288828686866137a2565b61236d888888612a15565b5050505050505050565b600b546001600160a01b031681565b6000806000612393612b41565b50909250905061162b6123a68383612ca2565b610fed84670de0b6b3a7640000613248565b6123c0613508565b6001600160a01b03166123d16119a9565b6001600160a01b03161461241a576040805162461bcd60e51b81526020600482018190526024820152600080516020613f25833981519152604482015290519081900360640190fd5b6014546040805163095ea7b360e01b81526001600160a01b03909216600483015260001960248301525173b31f66aa3c1e785363f0875a1b74e27b85fd66c79163095ea7b39160448083019260209291908290030181600087803b15801561248157600080fd5b505af1158015612495573d6000803e3d6000fd5b505050506040513d60208110156124ab57600080fd5b50506019546014546040805163095ea7b360e01b81526001600160a01b03928316600482015260001960248201529051919092169163095ea7b39160448083019260209291908290030181600087803b15801561250757600080fd5b505af115801561251b573d6000803e3d6000fd5b505050506040513d602081101561160a57600080fd5b6001600160a01b03918216600090815260036020908152604080832093909416825291909152205490565b600061257261256961160e565b60025490613248565b61257d575080611457565b610db361258861160e565b600254610fed908590613248565b61259e613508565b6001600160a01b03166125af6119a9565b6001600160a01b0316146125f8576040805162461bcd60e51b81526020600482018190526024820152600080516020613f25833981519152604482015290519081900360640190fd5b600d54604080519182526020820183905280517fa5dae50539d56dfe1fb5273d883b0c39bc76750a25d036fc5fbd09ad8fd5f57f9281900390910190a1600d55565b600061264761256961160e565b61265357506000611457565b610db3600254610fed61266461160e565b8590613248565b60007f8b73c3c69bb8fe3d512ecc4cf759cc79239f7b179b0ffacaa9a75d522b39400f60001b600060405180828054600181600116156101000203166002900480156126ee5780601f106126cc5761010080835404028352918201916126ee565b820191906000526020600020905b8154815290600101906020018083116126da575b505091505060405180910390207fc89efdaa54c0f20c7adf612882df0950f5a951637e0307cdcb4c672f298b8bc660001b6127276138da565b3060405160200180868152602001858152602001848152602001838152602001826001600160a01b031681526020019550505050505060405160208183030381529060405280519060200120905090565b612780613508565b6001600160a01b03166127916119a9565b6001600160a01b0316146127da576040805162461bcd60e51b81526020600482018190526024820152600080516020613f25833981519152604482015290519081900360640190fd5b6001600160a01b03811661281f5760405162461bcd60e51b8152600401808060200182810382526026815260200180613ddd6026913960400191505060405180910390fd5b6006546040516001600160a01b038084169216907f8be0079c531659141344cd1fd0a4f28419497f9722a3daafe3b4186f6b6457e090600090a36006805473ffffffffffffffffffffffffffffffffffffffff19166001600160a01b0392909216919091179055565b600a546001600160a01b031681565b3233146128eb576040805162461bcd60e51b815260206004820152601460248201527f59616b53747261746567793a3a6f6e6c79454f41000000000000000000000000604482015290519081900360640190fd5b60026012541415612943576040805162461bcd60e51b815260206004820152601f60248201527f5265656e7472616e637947756172643a207265656e7472616e742063616c6c00604482015290519081900360640190fd5b6002601255600061295261364a565b9050600c548110156129ab576040805162461bcd60e51b815260206004820152601c60248201527f4161766553747261746567794176617856313a3a7265696e7665737400000000604482015290519081900360640190fd5b611d8b816138de565b600082820183811015612a0e576040805162461bcd60e51b815260206004820152601b60248201527f536166654d6174683a206164646974696f6e206f766572666c6f770000000000604482015290519081900360640190fd5b9392505050565b6001600160a01b038316612a70576040805162461bcd60e51b815260206004820152601c60248201527f5f617070726f76653a3a6f776e6572207a65726f206164647265737300000000604482015290519081900360640190fd5b6001600160a01b038216612acb576040805162461bcd60e51b815260206004820152601e60248201527f5f617070726f76653a3a7370656e646572207a65726f20616464726573730000604482015290519081900360640190fd5b6001600160a01b03808416600081815260036020908152604080832094871680845294825291829020859055815185815291517f8c5be1e5ebec7d5bd14f71427d1e84f3dd0314c0f7b2291e5b200ac8c7c3b9259281900390910190a3505050565b601593909355601792909255601655601855565b601954604080516370a0823160e01b81523060048201529051600092839283926001600160a01b03909216916370a0823191602480820192602092909190829003018186803b158015612b9357600080fd5b505afa158015612ba7573d6000803e3d6000fd5b505050506040513d6020811015612bbd57600080fd5b5051601a54604080516370a0823160e01b815230600482015290519295506001600160a01b03909116916370a0823191602480820192602092909190829003018186803b158015612c0d57600080fd5b505afa158015612c21573d6000803e3d6000fd5b505050506040513d6020811015612c3757600080fd5b5051601554601754919350600092508391612c639190610fed90612c5c908390612ca2565b8790613248565b1115612c9d57612c9a82612c94601554610fed612c8d601754601554612ca290919063ffffffff16565b8890613248565b90612ca2565b90505b909192565b6000612a0e83836040518060400160405280601f81526020017f536166654d6174683a207375627472616374696f6e20756e646572666c6f77008152506130a4565b6000806000612cf1612b41565b919450925090506000612d39612d0b86612c948787612ca2565b612c94601754610fed612d2b601654601554612ca290919063ffffffff16565b610fe78b612c948c8c612ca2565b90506000612d478483612ca2565b90505b8015610e89578284811115612d5c5750835b60145460408051631a4ca37b60e21b815273b31f66aa3c1e785363f0875a1b74e27b85fd66c760048201526024810184905230604482015290516001600160a01b03909216916369328dec916064808201926020929091908290030181600087803b158015612dca57600080fd5b505af1158015612dde573d6000803e3d6000fd5b505050506040513d6020811015612df457600080fd5b5050601454604080517f573ade8100000000000000000000000000000000000000000000000000000000815273b31f66aa3c1e785363f0875a1b74e27b85fd66c76004820152602481018490526002604482015230606482015290516001600160a01b039092169163573ade81916084808201926020929091908290030181600087803b158015612e8457600080fd5b505af1158015612e98573d6000803e3d6000fd5b505050506040513d6020811015612eae57600080fd5b50612eb99050612b41565b91975095509350848310612ecd5750610e89565b612ed78584612ca2565b915050612d4a565b6000806000612eec612b41565b9250925092506000612f1e601754610fed612f14601654601554612ca290919063ffffffff16565b610fe78888612ca2565b90505b8084101561309e5780612f3485846129b4565b1115612f4757612f448185612ca2565b91505b601854821015612f565761309e565b601454604080517fa415bcad00000000000000000000000000000000000000000000000000000000815273b31f66aa3c1e785363f0875a1b74e27b85fd66c76004820152602481018590526002604482015260006064820181905230608483015291516001600160a01b039093169263a415bcad9260a48084019391929182900301818387803b158015612fe957600080fd5b505af1158015612ffd573d6000803e3d6000fd5b50506014546040805163e8eda9df60e01b815273b31f66aa3c1e785363f0875a1b74e27b85fd66c760048201526024810187905230604482015260006064820181905291516001600160a01b03909316945063e8eda9df93506084808201939182900301818387803b15801561307257600080fd5b505af1158015613086573d6000803e3d6000fd5b50505050613092612b41565b91955093509150612f21565b50505050565b600081848411156131335760405162461bcd60e51b81526004018080602001828103825283818151815260200191508051906020019080838360005b838110156130f85781810151838201526020016130e0565b50505050905090810190601f1680156131255780820380516001836020036101000a031916815260200191505b509250505060405180910390fd5b505050900390565b6001600160a01b0382166131805760405162461bcd60e51b8152600401808060200182810382526034815260200180613f6c6034913960400191505060405180910390fd5b6131bd816040518060600160405280602e8152602001614068602e91396001600160a01b03861660009081526004602052604090205491906130a4565b6001600160a01b0380851660009081526004602052604080822093909355908416815220546131ec90826129b4565b6001600160a01b0380841660008181526004602090815260409182902094909455805185815290519193928716927fddf252ad1be2c89b69c2b068fc378daa952ba7f163c4a11628f55a4df523b3ef92918290030190a3505050565b60008261325757506000610db3565b8282028284828161326457fe5b0414612a0e5760405162461bcd60e51b8152600401808060200182810382526021815260200180613f046021913960400191505060405180910390fd5b6000612a0e83836040518060400160405280601a81526020017f536166654d6174683a206469766973696f6e206279207a65726f000000000000815250613b54565b61332081604051806060016040528060278152602001614041602791396001600160a01b03851660009081526004602052604090205491906130a4565b60046000846001600160a01b03166001600160a01b031681526020019081526020016000208190555061337081604051806060016040528060278152602001613edd6027913960025491906130a4565b6002556040805182815290516000916001600160a01b038516917fddf252ad1be2c89b69c2b068fc378daa952ba7f163c4a11628f55a4df523b3ef9181900360200190a35050565b60006133c382612ce4565b60006133cd612b41565b50509050808311156133df5760001992505b60145460408051631a4ca37b60e21b815273b31f66aa3c1e785363f0875a1b74e27b85fd66c760048201526024810186905230604482015290516000926001600160a01b0316916369328dec91606480830192602092919082900301818787803b15801561344c57600080fd5b505af1158015613460573d6000803e3d6000fd5b505050506040513d602081101561347657600080fd5b5051604080517f2e1a7d4d00000000000000000000000000000000000000000000000000000000815260048101839052905191925073b31f66aa3c1e785363f0875a1b74e27b85fd66c791632e1a7d4d9160248082019260009290919082900301818387803b1580156134e857600080fd5b505af11580156134fc573d6000803e3d6000fd5b50505050612a0e612edf565b3390565b60075415613567573360009081526008602052604090205460ff1615156001146135675760405162461bcd60e51b815260040180806020018281038252602e815260200180613e03602e913960400191505060405180910390fd5b600e5460ff1615156001146135c3576040805162461bcd60e51b815260206004820152601c60248201527f4161766553747261746567794176617856313a3a5f6465706f73697400000000604482015290519081900360640190fd5b600d54156135ec5760006135d561364a565b9050600d548111156135ea576135ea816138de565b505b6135fe826135f98361255c565b613bb9565b61360781613c44565b6040805182815290516001600160a01b038416917fe1fffcc4923d04b559f4d29a8bfc6cda04eb5b0d3c460751c2402c5c5cc9109c919081900360200190a25050565b6040805160028082526060808301845260009390929190602083019080368337505060195482519293506001600160a01b03169183915060009061368a57fe5b6001600160a01b039283166020918202929092010152601a548251911690829060019081106136b557fe5b6001600160a01b03928316602091820292909201810191909152601354604080517f8b599f260000000000000000000000000000000000000000000000000000000081523060248201819052600482019283528651604483015286519390951694638b599f269487949193928392606490910191868101910280838360005b8381101561374c578181015183820152602001613734565b50505050905001935050505060206040518083038186803b15801561377057600080fd5b505afa158015613784573d6000803e3d6000fd5b505050506040513d602081101561379a57600080fd5b505191505090565b60006137ac61266b565b8560405160200180807f190100000000000000000000000000000000000000000000000000000000000081525060020183815260200182815260200192505050604051602081830303815290604052805190602001209050600060018286868660405160008152602001604052604051808581526020018460ff1681526020018381526020018281526020019450505050506020604051602081039080840390855afa158015613860573d6000803e3d6000fd5b5050604051601f1901519150506001600160a01b038116158015906138965750866001600160a01b0316816001600160a01b0316145b6138d15760405162461bcd60e51b8152600401808060200182810382526024815260200180613e656024913960400191505060405180910390fd5b50505050505050565b4690565b6040805160028082526060808301845292602083019080368337505060195482519293506001600160a01b03169183915060009061391857fe5b6001600160a01b039283166020918202929092010152601a5482519116908290600190811061394357fe5b6001600160a01b039283166020918202929092018101919091526013546040517f3111e7b30000000000000000000000000000000000000000000000000000000081526024810186905230604482018190526060600483019081528651606484015286519390951694633111e7b394879489948392608490910191878201910280838360005b838110156139e15781810151838201526020016139c9565b50505050905001945050505050602060405180830381600087803b158015613a0857600080fd5b505af1158015613a1c573d6000803e3d6000fd5b505050506040513d6020811015613a3257600080fd5b5050601154600090613a4d9061271090610fed908690613248565b90508015613a7257600a54600b54613a72916001600160a01b03908116911683613d19565b6000613a8f612710610fed6010548761324890919063ffffffff16565b90508015613ab557600a54613ab5906001600160a01b0316613aaf6119a9565b83613d19565b6000613ad2612710610fed600f548861324890919063ffffffff16565b90508015613af157600a54613af1906001600160a01b03163383613d19565b613b09613b0482612c9485818a89612ca2565b613c44565b7fc7606d21ac05cd309191543e409f0845c016120563783d70e4f41419dc0ef234613b3261160e565b6002546040805192835260208301919091528051918290030190a15050505050565b60008183613ba35760405162461bcd60e51b81526020600482018181528351602484015283519092839260449091019190850190808383600083156130f85781810151838201526020016130e0565b506000838581613baf57fe5b0495945050505050565b600254613bc690826129b4565b6002556001600160a01b038216600090815260046020526040902054613bec90826129b4565b6001600160a01b03831660008181526004602090815260408083209490945583518581529351929391927fddf252ad1be2c89b69c2b068fc378daa952ba7f163c4a11628f55a4df523b3ef9281900390910190a35050565b60008111613c835760405162461bcd60e51b8152600401808060200182810382526027815260200180613fa06027913960400191505060405180910390fd5b6014546040805163e8eda9df60e01b815273b31f66aa3c1e785363f0875a1b74e27b85fd66c760048201526024810184905230604482015260006064820181905291516001600160a01b039093169263e8eda9df9260848084019391929182900301818387803b158015613cf657600080fd5b505af1158015613d0a573d6000803e3d6000fd5b50505050613d16612edf565b50565b826001600160a01b031663a9059cbb83836040518363ffffffff1660e01b815260040180836001600160a01b0316815260200182815260200192505050602060405180830381600087803b158015613d7057600080fd5b505af1158015613d84573d6000803e3d6000fd5b505050506040513d6020811015613d9a57600080fd5b5051613dd75760405162461bcd60e51b81526004018080602001828103825260288152602001806140196028913960400191505060405180910390fd5b50505056fe4f776e61626c653a206e6577206f776e657220697320746865207a65726f20616464726573735065726d697373696f6e65643a3a6f6e6c79416c6c6f7765644465706f736974732c206e6f7420616c6c6f7765645065726d697373696f6e65643a3a72656d6f76654465706f7369746f722c206e6f20616c6c6f776564206465706f7369746f7273417263683a3a76616c69646174655369673a20696e76616c6964207369676e61747572654161766553747261746567794176617856313a3a62656c6f77206d696e696d756d2077697468647261775065726d697373696f6e65643a3a72656d6f76654465706f7369746f722c206e6f7420616c6c6f7765645f6275726e3a206275726e20616d6f756e74206578636565647320746f74616c20737570706c79536166654d6174683a206d756c7469706c69636174696f6e206f766572666c6f774f776e61626c653a2063616c6c6572206973206e6f7420746865206f776e65724161766553747261746567794176617856313a3a7265736375654465706c6f79656446756e64735f7472616e73666572546f6b656e733a2063616e6e6f74207472616e7366657220746f20746865207a65726f20616464726573734161766553747261746567794176617856313a3a5f7374616b654465706f736974546f6b656e737472616e7366657246726f6d3a207472616e7366657220616d6f756e74206578636565647320616c6c6f77616e63654161766553747261746567794176617856313a3a7472616e73666572206661696c65644161766553747261746567794176617856313a3a5452414e534645525f46524f4d5f4641494c45445f6275726e3a206275726e20616d6f756e7420657863656564732066726f6d2062616c616e63655f7472616e73666572546f6b656e733a207472616e7366657220657863656564732066726f6d2062616c616e6365a26469706673582212201d2c8768a71ba78b477d1127cad01fbb966afff316c38b2fe2bcf6c3c27f1a4864736f6c634300070300334f776e61626c653a206e6577206f776e657220697320746865207a65726f20616464726573734f776e61626c653a2063616c6c6572206973206e6f7420746865206f776e65728be0079c531659141344cd1fd0a4f28419497f9722a3daafe3b4186f6b6457e0",
  "devdoc": {
    "details": "No need to _enterMarket() as LendingPool already defaults collateral to true. See https://github.com/aave/protocol-v2/blob/master/contracts/protocol/lendingpool/LendingPool.sol#L123-L126",
    "kind": "dev",
    "methods": {
      "allowDepositor(address)": {
        "params": {
          "depositor": "address"
        }
      },
      "allowance(address,address)": {
        "params": {
          "account": "The address of the account holding the funds",
          "spender": "The address of the account spending the funds"
        },
        "returns": {
          "_0": "The number of tokens approved"
        }
      },
      "approve(address,uint256)": {
        "details": "This will overwrite the approval amount for `spender` and is subject to issues noted [here](https://eips.ethereum.org/EIPS/eip-20#approve) It is recommended to use increaseAllowance and decreaseAllowance instead",
        "params": {
          "amount": "The number of tokens that are approved (2^256-1 means infinite)",
          "spender": "The address of the account which may transfer tokens"
        },
        "returns": {
          "_0": "Whether or not the approval succeeded"
        }
      },
      "balanceOf(address)": {
        "params": {
          "account": "The address of the account to get the balance of"
        },
        "returns": {
          "_0": "The number of tokens held"
        }
      },
      "checkReward()": {
        "returns": {
          "_0": "reward tokens"
        }
      },
      "deposit()": {
        "details": "Must mint receipt tokens to `msg.sender`"
      },
      "deposit(uint256)": {
        "details": "Must mint receipt tokens to `msg.sender`",
        "params": {
          "amount": "deposit tokens"
        }
      },
      "depositFor(address)": {
        "details": "Must mint receipt tokens to `account`",
        "params": {
          "account": "address to receive receipt tokens"
        }
      },
      "depositFor(address,uint256)": {
        "details": "Must mint receipt tokens to `account`",
        "params": {
          "account": "address to receive receipt tokens",
          "amount": "deposit tokens"
        }
      },
      "depositWithPermit(uint256,uint256,uint8,bytes32,bytes32)": {
        "details": "Should revert for tokens without Permit",
        "params": {
          "amount": "Amount of tokens to deposit",
          "deadline": "The time at which to expire the signature",
          "r": "Half of the ECDSA signature pair",
          "s": "Half of the ECDSA signature pair",
          "v": "The recovery byte of the signature"
        }
      },
      "estimateDeployedBalance()": {
        "returns": {
          "_0": "deposit tokens"
        }
      },
      "estimateReinvestReward()": {
        "returns": {
          "_0": "reward tokens"
        }
      },
      "getDepositTokensForShares(uint256)": {
        "params": {
          "amount": "receipt tokens"
        },
        "returns": {
          "_0": "deposit tokens"
        }
      },
      "getDomainSeparator()": {
        "returns": {
          "_0": "Separator"
        }
      },
      "getSharesForDepositTokens(uint256)": {
        "details": "If contract is empty, use 1:1 ratioCould return zero shares for very low amounts of deposit tokens",
        "params": {
          "amount": "deposit tokens"
        },
        "returns": {
          "_0": "receipt tokens"
        }
      },
      "owner()": {
        "details": "Returns the address of the current owner."
      },
      "permit(address,address,uint256,uint256,uint8,bytes32,bytes32)": {
        "params": {
          "deadline": "The time at which to expire the signature",
          "owner": "The address to approve from",
          "r": "Half of the ECDSA signature pair",
          "s": "Half of the ECDSA signature pair",
          "spender": "The address to be approved",
          "v": "The recovery byte of the signature",
          "value": "The number of tokens that are approved (2^256-1 means infinite)"
        }
      },
      "recoverAVAX(uint256)": {
        "params": {
          "amount": "amount"
        }
      },
      "recoverERC20(address,uint256)": {
        "params": {
          "tokenAddress": "token address",
          "tokenAmount": "amount to recover"
        }
      },
      "removeDepositor(address)": {
        "params": {
          "depositor": "address"
        }
      },
      "renounceOwnership()": {
        "details": "Leaves the contract without owner. It will not be possible to call `onlyOwner` functions anymore. Can only be called by the current owner. NOTE: Renouncing ownership will leave the contract without an owner, thereby removing any functionality that is only available to the owner."
      },
      "rescueDeployedFunds(uint256,bool)": {
        "params": {
          "disableDeposits": "bool",
          "minReturnAmountAccepted": "min deposit tokens to receive"
        }
      },
      "revokeAllowance(address,address)": {
        "params": {
          "spender": "address",
          "token": "address"
        }
      },
      "setAllowances()": {
        "details": "Should use modifier `onlyOwner` to avoid griefing"
      },
      "totalDeposits()": {
        "returns": {
          "_0": "total deposits available on the contract"
        }
      },
      "transfer(address,uint256)": {
        "params": {
          "amount": "The number of tokens to transfer",
          "dst": "The address of the destination account"
        },
        "returns": {
          "_0": "Whether or not the transfer succeeded"
        }
      },
      "transferFrom(address,address,uint256)": {
        "params": {
          "amount": "The number of tokens to transfer",
          "dst": "The address of the destination account",
          "src": "The address of the source account"
        },
        "returns": {
          "_0": "Whether or not the transfer succeeded"
        }
      },
      "transferOwnership(address)": {
        "details": "Transfers ownership of the contract to a new account (`newOwner`). Can only be called by the current owner."
      },
      "updateAdminFee(uint256)": {
        "params": {
          "newValue": "fee in BIPS"
        }
      },
      "updateDepositsEnabled(bool)": {
        "params": {
          "newValue": "bool"
        }
      },
      "updateDevAddr(address)": {
        "params": {
          "newValue": "address"
        }
      },
      "updateDevFee(uint256)": {
        "params": {
          "newValue": "fee in BIPS"
        }
      },
      "updateMaxTokensToDepositWithoutReinvest(uint256)": {
        "params": {
          "newValue": "threshold"
        }
      },
      "updateMinTokensToReinvest(uint256)": {
        "params": {
          "newValue": "threshold"
        }
      },
      "updateReinvestReward(uint256)": {
        "params": {
          "newValue": "fee in BIPS"
        }
      },
      "withdraw(uint256)": {
        "params": {
          "amount": "receipt tokens"
        }
      }
    },
    "title": "Aave strategy for AVAX",
    "version": 1
  },
  "userdoc": {
    "kind": "user",
    "methods": {
      "allowDepositor(address)": {
        "notice": "Add an allowed depositor"
      },
      "allowance(address,address)": {
        "notice": "Get the number of tokens `spender` is approved to spend on behalf of `account`"
      },
      "approve(address,uint256)": {
        "notice": "Approve `spender` to transfer up to `amount` from `src`"
      },
      "balanceOf(address)": {
        "notice": "Get the number of tokens held by the `account`"
      },
      "checkReward()": {
        "notice": "Reward tokens avialable to strategy, including balance"
      },
      "deposit()": {
        "notice": "Deposit and deploy deposits tokens to the strategy using AVAX"
      },
      "deposit(uint256)": {
        "notice": "Deposit and deploy deposits tokens to the strategy"
      },
      "depositFor(address)": {
        "notice": "Deposit on behalf of another account using AVAX"
      },
      "depositFor(address,uint256)": {
        "notice": "Deposit on behalf of another account"
      },
      "depositWithPermit(uint256,uint256,uint8,bytes32,bytes32)": {
        "notice": "Deposit using Permit"
      },
      "estimateDeployedBalance()": {
        "notice": "Estimated deposit token balance deployed by strategy, excluding balance"
      },
      "estimateReinvestReward()": {
        "notice": "Estimate reinvest reward"
      },
      "getDepositTokensForShares(uint256)": {
        "notice": "Calculate deposit tokens for a given amount of receipt tokens"
      },
      "getDomainSeparator()": {
        "notice": "EIP-712 Domain separator"
      },
      "getSharesForDepositTokens(uint256)": {
        "notice": "Calculate receipt tokens for a given amount of deposit tokens"
      },
      "permit(address,address,uint256,uint256,uint8,bytes32,bytes32)": {
        "notice": "Triggers an approval from owner to spender"
      },
      "recoverAVAX(uint256)": {
        "notice": "Recover AVAX from contract"
      },
      "recoverERC20(address,uint256)": {
        "notice": "Recover ERC20 from contract"
      },
      "reinvest()": {
        "notice": "Reinvest reward tokens into deposit tokens"
      },
      "removeDepositor(address)": {
        "notice": "Remove an allowed depositor"
      },
      "rescueDeployedFunds(uint256,bool)": {
        "notice": "Rescue all available deployed deposit tokens back to Strategy"
      },
      "revokeAllowance(address,address)": {
        "notice": "Revoke token allowance"
      },
      "setAllowances()": {
        "notice": "Approve tokens for use in Strategy"
      },
      "totalDeposits()": {
        "notice": "This function returns a snapshot of last available quotes"
      },
      "transfer(address,uint256)": {
        "notice": "Transfer `amount` tokens from `msg.sender` to `dst`"
      },
      "transferFrom(address,address,uint256)": {
        "notice": "Transfer `amount` tokens from `src` to `dst`"
      },
      "updateAdminFee(uint256)": {
        "notice": "Update admin fee"
      },
      "updateDepositsEnabled(bool)": {
        "notice": "Enable/disable deposits"
      },
      "updateDevAddr(address)": {
        "notice": "Update devAddr"
      },
      "updateDevFee(uint256)": {
        "notice": "Update developer fee"
      },
      "updateMaxTokensToDepositWithoutReinvest(uint256)": {
        "notice": "Update reinvest max threshold before a deposit"
      },
      "updateMinTokensToReinvest(uint256)": {
        "notice": "Update reinvest min threshold"
      },
      "updateReinvestReward(uint256)": {
        "notice": "Update reinvest reward"
      },
      "withdraw(uint256)": {
        "notice": "Redeem receipt tokens for deposit tokens"
      }
    },
    "version": 1
  },
  "storageLayout": {
    "storage": [
      {
        "astId": 11375,
        "contract": "contracts/strategies/AaveStrategyAvaxV1.sol:AaveStrategyAvaxV1",
        "label": "name",
        "offset": 0,
        "slot": "0",
        "type": "t_string_storage"
      },
      {
        "astId": 11378,
        "contract": "contracts/strategies/AaveStrategyAvaxV1.sol:AaveStrategyAvaxV1",
        "label": "symbol",
        "offset": 0,
        "slot": "1",
        "type": "t_string_storage"
      },
      {
        "astId": 11383,
        "contract": "contracts/strategies/AaveStrategyAvaxV1.sol:AaveStrategyAvaxV1",
        "label": "totalSupply",
        "offset": 0,
        "slot": "2",
        "type": "t_uint256"
      },
      {
        "astId": 11389,
        "contract": "contracts/strategies/AaveStrategyAvaxV1.sol:AaveStrategyAvaxV1",
        "label": "allowances",
        "offset": 0,
        "slot": "3",
        "type": "t_mapping(t_address,t_mapping(t_address,t_uint256))"
      },
      {
        "astId": 11393,
        "contract": "contracts/strategies/AaveStrategyAvaxV1.sol:AaveStrategyAvaxV1",
        "label": "balances",
        "offset": 0,
        "slot": "4",
        "type": "t_mapping(t_address,t_uint256)"
      },
      {
        "astId": 11409,
        "contract": "contracts/strategies/AaveStrategyAvaxV1.sol:AaveStrategyAvaxV1",
        "label": "nonces",
        "offset": 0,
        "slot": "5",
        "type": "t_mapping(t_address,t_uint256)"
      },
      {
        "astId": 19644,
        "contract": "contracts/strategies/AaveStrategyAvaxV1.sol:AaveStrategyAvaxV1",
        "label": "_owner",
        "offset": 0,
        "slot": "6",
        "type": "t_address"
      },
      {
        "astId": 19757,
        "contract": "contracts/strategies/AaveStrategyAvaxV1.sol:AaveStrategyAvaxV1",
        "label": "numberOfAllowedDepositors",
        "offset": 0,
        "slot": "7",
        "type": "t_uint256"
      },
      {
        "astId": 19761,
        "contract": "contracts/strategies/AaveStrategyAvaxV1.sol:AaveStrategyAvaxV1",
        "label": "allowedDepositors",
        "offset": 0,
        "slot": "8",
        "type": "t_mapping(t_address,t_bool)"
      },
      {
        "astId": 12548,
        "contract": "contracts/strategies/AaveStrategyAvaxV1.sol:AaveStrategyAvaxV1",
        "label": "depositToken",
        "offset": 0,
        "slot": "9",
        "type": "t_contract(IERC20)14807"
      },
      {
        "astId": 12550,
        "contract": "contracts/strategies/AaveStrategyAvaxV1.sol:AaveStrategyAvaxV1",
        "label": "rewardToken",
        "offset": 0,
        "slot": "10",
        "type": "t_contract(IERC20)14807"
      },
      {
        "astId": 12552,
        "contract": "contracts/strategies/AaveStrategyAvaxV1.sol:AaveStrategyAvaxV1",
        "label": "devAddr",
        "offset": 0,
        "slot": "11",
        "type": "t_address"
      },
      {
        "astId": 12554,
        "contract": "contracts/strategies/AaveStrategyAvaxV1.sol:AaveStrategyAvaxV1",
        "label": "MIN_TOKENS_TO_REINVEST",
        "offset": 0,
        "slot": "12",
        "type": "t_uint256"
      },
      {
        "astId": 12556,
        "contract": "contracts/strategies/AaveStrategyAvaxV1.sol:AaveStrategyAvaxV1",
        "label": "MAX_TOKENS_TO_DEPOSIT_WITHOUT_REINVEST",
        "offset": 0,
        "slot": "13",
        "type": "t_uint256"
      },
      {
        "astId": 12558,
        "contract": "contracts/strategies/AaveStrategyAvaxV1.sol:AaveStrategyAvaxV1",
        "label": "DEPOSITS_ENABLED",
        "offset": 0,
        "slot": "14",
        "type": "t_bool"
      },
      {
        "astId": 12560,
        "contract": "contracts/strategies/AaveStrategyAvaxV1.sol:AaveStrategyAvaxV1",
        "label": "REINVEST_REWARD_BIPS",
        "offset": 0,
        "slot": "15",
        "type": "t_uint256"
      },
      {
        "astId": 12562,
        "contract": "contracts/strategies/AaveStrategyAvaxV1.sol:AaveStrategyAvaxV1",
        "label": "ADMIN_FEE_BIPS",
        "offset": 0,
        "slot": "16",
        "type": "t_uint256"
      },
      {
        "astId": 12564,
        "contract": "contracts/strategies/AaveStrategyAvaxV1.sol:AaveStrategyAvaxV1",
        "label": "DEV_FEE_BIPS",
        "offset": 0,
        "slot": "17",
        "type": "t_uint256"
      },
      {
        "astId": 19877,
        "contract": "contracts/strategies/AaveStrategyAvaxV1.sol:AaveStrategyAvaxV1",
        "label": "_status",
        "offset": 0,
        "slot": "18",
        "type": "t_uint256"
      },
      {
        "astId": 20400,
        "contract": "contracts/strategies/AaveStrategyAvaxV1.sol:AaveStrategyAvaxV1",
        "label": "rewardController",
        "offset": 0,
        "slot": "19",
        "type": "t_contract(IAaveIncentivesController)14064"
      },
      {
        "astId": 20402,
        "contract": "contracts/strategies/AaveStrategyAvaxV1.sol:AaveStrategyAvaxV1",
        "label": "tokenDelegator",
        "offset": 0,
        "slot": "20",
        "type": "t_contract(ILendingPool)15855"
      },
      {
        "astId": 20409,
        "contract": "contracts/strategies/AaveStrategyAvaxV1.sol:AaveStrategyAvaxV1",
        "label": "leverageLevel",
        "offset": 0,
        "slot": "21",
        "type": "t_uint256"
      },
      {
        "astId": 20411,
        "contract": "contracts/strategies/AaveStrategyAvaxV1.sol:AaveStrategyAvaxV1",
        "label": "safetyFactor",
        "offset": 0,
        "slot": "22",
        "type": "t_uint256"
      },
      {
        "astId": 20413,
        "contract": "contracts/strategies/AaveStrategyAvaxV1.sol:AaveStrategyAvaxV1",
        "label": "leverageBips",
        "offset": 0,
        "slot": "23",
        "type": "t_uint256"
      },
      {
        "astId": 20415,
        "contract": "contracts/strategies/AaveStrategyAvaxV1.sol:AaveStrategyAvaxV1",
        "label": "minMinting",
        "offset": 0,
        "slot": "24",
        "type": "t_uint256"
      },
      {
        "astId": 20417,
        "contract": "contracts/strategies/AaveStrategyAvaxV1.sol:AaveStrategyAvaxV1",
        "label": "avToken",
        "offset": 0,
        "slot": "25",
        "type": "t_address"
      },
      {
        "astId": 20419,
        "contract": "contracts/strategies/AaveStrategyAvaxV1.sol:AaveStrategyAvaxV1",
        "label": "avDebtToken",
        "offset": 0,
        "slot": "26",
        "type": "t_address"
      }
    ],
    "types": {
      "t_address": {
        "encoding": "inplace",
        "label": "address",
        "numberOfBytes": "20"
      },
      "t_bool": {
        "encoding": "inplace",
        "label": "bool",
        "numberOfBytes": "1"
      },
      "t_contract(IAaveIncentivesController)14064": {
        "encoding": "inplace",
        "label": "contract IAaveIncentivesController",
        "numberOfBytes": "20"
      },
      "t_contract(IERC20)14807": {
        "encoding": "inplace",
        "label": "contract IERC20",
        "numberOfBytes": "20"
      },
      "t_contract(ILendingPool)15855": {
        "encoding": "inplace",
        "label": "contract ILendingPool",
        "numberOfBytes": "20"
      },
      "t_mapping(t_address,t_bool)": {
        "encoding": "mapping",
        "key": "t_address",
        "label": "mapping(address => bool)",
        "numberOfBytes": "32",
        "value": "t_bool"
      },
      "t_mapping(t_address,t_mapping(t_address,t_uint256))": {
        "encoding": "mapping",
        "key": "t_address",
        "label": "mapping(address => mapping(address => uint256))",
        "numberOfBytes": "32",
        "value": "t_mapping(t_address,t_uint256)"
      },
      "t_mapping(t_address,t_uint256)": {
        "encoding": "mapping",
        "key": "t_address",
        "label": "mapping(address => uint256)",
        "numberOfBytes": "32",
        "value": "t_uint256"
      },
      "t_string_storage": {
        "encoding": "bytes",
        "label": "string",
        "numberOfBytes": "32"
      },
      "t_uint256": {
        "encoding": "inplace",
        "label": "uint256",
        "numberOfBytes": "32"
      }
    }
  }
}