{
  "address": "0xbEe226c7676E7B2b034aD365faC81683FF34C012",
  "abi": [
    {
      "inputs": [
        {
          "internalType": "string",
          "name": "_name",
          "type": "string"
        },
        {
          "internalType": "address",
          "name": "_rewardController",
          "type": "address"
        },
        {
          "internalType": "address",
          "name": "_tokenDelegator",
          "type": "address"
        },
        {
          "internalType": "address",
          "name": "_depositToken",
          "type": "address"
        },
        {
          "internalType": "address",
          "name": "_swapPairToken",
          "type": "address"
        },
        {
          "components": [
            {
              "internalType": "address",
              "name": "reward",
              "type": "address"
            },
            {
              "internalType": "address",
              "name": "swapPair",
              "type": "address"
            }
          ],
          "internalType": "struct AaveV3StrategyV1.RewardSwapPairs[]",
          "name": "_rewardSwapPairs",
          "type": "tuple[]"
        },
        {
          "internalType": "address",
          "name": "_avToken",
          "type": "address"
        },
        {
          "internalType": "address",
          "name": "_avDebtToken",
          "type": "address"
        },
        {
          "internalType": "address",
          "name": "_timelock",
          "type": "address"
        },
        {
          "components": [
            {
              "internalType": "uint256",
              "name": "leverageLevel",
              "type": "uint256"
            },
            {
              "internalType": "uint256",
              "name": "safetyFactor",
              "type": "uint256"
            },
            {
              "internalType": "uint256",
              "name": "leverageBips",
              "type": "uint256"
            },
            {
              "internalType": "uint256",
              "name": "minMinting",
              "type": "uint256"
            }
          ],
          "internalType": "struct AaveV3StrategyV1.LeverageSettings",
          "name": "_leverageSettings",
          "type": "tuple"
        },
        {
          "components": [
            {
              "internalType": "uint256",
              "name": "minTokensToReinvest",
              "type": "uint256"
            },
            {
              "internalType": "uint256",
              "name": "devFeeBips",
              "type": "uint256"
            },
            {
              "internalType": "uint256",
              "name": "reinvestRewardBips",
              "type": "uint256"
            }
          ],
          "internalType": "struct YakStrategyV2.StrategySettings",
          "name": "_strategySettings",
          "type": "tuple"
        }
      ],
      "stateMutability": "nonpayable",
      "type": "constructor"
    },
    {
      "anonymous": false,
      "inputs": [
        {
          "indexed": false,
          "internalType": "address",
          "name": "rewardToken",
          "type": "address"
        },
        {
          "indexed": false,
          "internalType": "address",
          "name": "swapPair",
          "type": "address"
        }
      ],
      "name": "AddReward",
      "type": "event"
    },
    {
      "anonymous": false,
      "inputs": [
        {
          "indexed": true,
          "internalType": "address",
          "name": "account",
          "type": "address"
        }
      ],
      "name": "AllowDepositor",
      "type": "event"
    },
    {
      "anonymous": false,
      "inputs": [
        {
          "indexed": true,
          "internalType": "address",
          "name": "owner",
          "type": "address"
        },
        {
          "indexed": true,
          "internalType": "address",
          "name": "spender",
          "type": "address"
        },
        {
          "indexed": false,
          "internalType": "uint256",
          "name": "value",
          "type": "uint256"
        }
      ],
      "name": "Approval",
      "type": "event"
    },
    {
      "anonymous": false,
      "inputs": [
        {
          "indexed": true,
          "internalType": "address",
          "name": "account",
          "type": "address"
        },
        {
          "indexed": false,
          "internalType": "uint256",
          "name": "amount",
          "type": "uint256"
        }
      ],
      "name": "Deposit",
      "type": "event"
    },
    {
      "anonymous": false,
      "inputs": [
        {
          "indexed": false,
          "internalType": "bool",
          "name": "newValue",
          "type": "bool"
        }
      ],
      "name": "DepositsEnabled",
      "type": "event"
    },
    {
      "anonymous": false,
      "inputs": [
        {
          "indexed": true,
          "internalType": "address",
          "name": "previousOwner",
          "type": "address"
        },
        {
          "indexed": true,
          "internalType": "address",
          "name": "newOwner",
          "type": "address"
        }
      ],
      "name": "OwnershipTransferred",
      "type": "event"
    },
    {
      "anonymous": false,
      "inputs": [
        {
          "indexed": false,
          "internalType": "address",
          "name": "token",
          "type": "address"
        },
        {
          "indexed": false,
          "internalType": "uint256",
          "name": "amount",
          "type": "uint256"
        }
      ],
      "name": "Recovered",
      "type": "event"
    },
    {
      "anonymous": false,
      "inputs": [
        {
          "indexed": false,
          "internalType": "uint256",
          "name": "newTotalDeposits",
          "type": "uint256"
        },
        {
          "indexed": false,
          "internalType": "uint256",
          "name": "newTotalSupply",
          "type": "uint256"
        }
      ],
      "name": "Reinvest",
      "type": "event"
    },
    {
      "anonymous": false,
      "inputs": [
        {
          "indexed": true,
          "internalType": "address",
          "name": "account",
          "type": "address"
        }
      ],
      "name": "RemoveDepositor",
      "type": "event"
    },
    {
      "anonymous": false,
      "inputs": [
        {
          "indexed": false,
          "internalType": "address",
          "name": "rewardToken",
          "type": "address"
        }
      ],
      "name": "RemoveReward",
      "type": "event"
    },
    {
      "anonymous": false,
      "inputs": [
        {
          "indexed": true,
          "internalType": "address",
          "name": "from",
          "type": "address"
        },
        {
          "indexed": true,
          "internalType": "address",
          "name": "to",
          "type": "address"
        },
        {
          "indexed": false,
          "internalType": "uint256",
          "name": "value",
          "type": "uint256"
        }
      ],
      "name": "Transfer",
      "type": "event"
    },
    {
      "anonymous": false,
      "inputs": [
        {
          "indexed": false,
          "internalType": "uint256",
          "name": "oldValue",
          "type": "uint256"
        },
        {
          "indexed": false,
          "internalType": "uint256",
          "name": "newValue",
          "type": "uint256"
        }
      ],
      "name": "UpdateAdminFee",
      "type": "event"
    },
    {
      "anonymous": false,
      "inputs": [
        {
          "indexed": false,
          "internalType": "address",
          "name": "oldValue",
          "type": "address"
        },
        {
          "indexed": false,
          "internalType": "address",
          "name": "newValue",
          "type": "address"
        }
      ],
      "name": "UpdateDevAddr",
      "type": "event"
    },
    {
      "anonymous": false,
      "inputs": [
        {
          "indexed": false,
          "internalType": "uint256",
          "name": "oldValue",
          "type": "uint256"
        },
        {
          "indexed": false,
          "internalType": "uint256",
          "name": "newValue",
          "type": "uint256"
        }
      ],
      "name": "UpdateDevFee",
      "type": "event"
    },
    {
      "anonymous": false,
      "inputs": [
        {
          "indexed": false,
          "internalType": "uint256",
          "name": "oldValue",
          "type": "uint256"
        },
        {
          "indexed": false,
          "internalType": "uint256",
          "name": "newValue",
          "type": "uint256"
        }
      ],
      "name": "UpdateMaxTokensToDepositWithoutReinvest",
      "type": "event"
    },
    {
      "anonymous": false,
      "inputs": [
        {
          "indexed": false,
          "internalType": "uint256",
          "name": "oldValue",
          "type": "uint256"
        },
        {
          "indexed": false,
          "internalType": "uint256",
          "name": "newValue",
          "type": "uint256"
        }
      ],
      "name": "UpdateMinTokensToReinvest",
      "type": "event"
    },
    {
      "anonymous": false,
      "inputs": [
        {
          "indexed": false,
          "internalType": "uint256",
          "name": "oldValue",
          "type": "uint256"
        },
        {
          "indexed": false,
          "internalType": "uint256",
          "name": "newValue",
          "type": "uint256"
        }
      ],
      "name": "UpdateReinvestReward",
      "type": "event"
    },
    {
      "anonymous": false,
      "inputs": [
        {
          "indexed": true,
          "internalType": "address",
          "name": "account",
          "type": "address"
        },
        {
          "indexed": false,
          "internalType": "uint256",
          "name": "amount",
          "type": "uint256"
        }
      ],
      "name": "Withdraw",
      "type": "event"
    },
    {
      "inputs": [],
      "name": "ADMIN_FEE_BIPS",
      "outputs": [
        {
          "internalType": "uint256",
          "name": "",
          "type": "uint256"
        }
      ],
      "stateMutability": "view",
      "type": "function"
    },
    {
      "inputs": [],
      "name": "DEPOSITS_ENABLED",
      "outputs": [
        {
          "internalType": "bool",
          "name": "",
          "type": "bool"
        }
      ],
      "stateMutability": "view",
      "type": "function"
    },
    {
      "inputs": [],
      "name": "DEV_FEE_BIPS",
      "outputs": [
        {
          "internalType": "uint256",
          "name": "",
          "type": "uint256"
        }
      ],
      "stateMutability": "view",
      "type": "function"
    },
    {
      "inputs": [],
      "name": "DOMAIN_TYPEHASH",
      "outputs": [
        {
          "internalType": "bytes32",
          "name": "",
          "type": "bytes32"
        }
      ],
      "stateMutability": "view",
      "type": "function"
    },
    {
      "inputs": [],
      "name": "MAX_TOKENS_TO_DEPOSIT_WITHOUT_REINVEST",
      "outputs": [
        {
          "internalType": "uint256",
          "name": "",
          "type": "uint256"
        }
      ],
      "stateMutability": "view",
      "type": "function"
    },
    {
      "inputs": [],
      "name": "MIN_TOKENS_TO_REINVEST",
      "outputs": [
        {
          "internalType": "uint256",
          "name": "",
          "type": "uint256"
        }
      ],
      "stateMutability": "view",
      "type": "function"
    },
    {
      "inputs": [],
      "name": "PERMIT_TYPEHASH",
      "outputs": [
        {
          "internalType": "bytes32",
          "name": "",
          "type": "bytes32"
        }
      ],
      "stateMutability": "view",
      "type": "function"
    },
    {
      "inputs": [],
      "name": "REINVEST_REWARD_BIPS",
      "outputs": [
        {
          "internalType": "uint256",
          "name": "",
          "type": "uint256"
        }
      ],
      "stateMutability": "view",
      "type": "function"
    },
    {
      "inputs": [],
      "name": "VERSION_HASH",
      "outputs": [
        {
          "internalType": "bytes32",
          "name": "",
          "type": "bytes32"
        }
      ],
      "stateMutability": "view",
      "type": "function"
    },
    {
      "inputs": [
        {
          "internalType": "address",
          "name": "_rewardToken",
          "type": "address"
        },
        {
          "internalType": "address",
          "name": "_swapPair",
          "type": "address"
        }
      ],
      "name": "addReward",
      "outputs": [],
      "stateMutability": "nonpayable",
      "type": "function"
    },
    {
      "inputs": [
        {
          "internalType": "address",
          "name": "depositor",
          "type": "address"
        }
      ],
      "name": "allowDepositor",
      "outputs": [],
      "stateMutability": "nonpayable",
      "type": "function"
    },
    {
      "inputs": [
        {
          "internalType": "address",
          "name": "account",
          "type": "address"
        },
        {
          "internalType": "address",
          "name": "spender",
          "type": "address"
        }
      ],
      "name": "allowance",
      "outputs": [
        {
          "internalType": "uint256",
          "name": "",
          "type": "uint256"
        }
      ],
      "stateMutability": "view",
      "type": "function"
    },
    {
      "inputs": [
        {
          "internalType": "address",
          "name": "",
          "type": "address"
        }
      ],
      "name": "allowedDepositors",
      "outputs": [
        {
          "internalType": "bool",
          "name": "",
          "type": "bool"
        }
      ],
      "stateMutability": "view",
      "type": "function"
    },
    {
      "inputs": [
        {
          "internalType": "address",
          "name": "spender",
          "type": "address"
        },
        {
          "internalType": "uint256",
          "name": "amount",
          "type": "uint256"
        }
      ],
      "name": "approve",
      "outputs": [
        {
          "internalType": "bool",
          "name": "",
          "type": "bool"
        }
      ],
      "stateMutability": "nonpayable",
      "type": "function"
    },
    {
      "inputs": [
        {
          "internalType": "address",
          "name": "account",
          "type": "address"
        }
      ],
      "name": "balanceOf",
      "outputs": [
        {
          "internalType": "uint256",
          "name": "",
          "type": "uint256"
        }
      ],
      "stateMutability": "view",
      "type": "function"
    },
    {
      "inputs": [],
      "name": "checkReward",
      "outputs": [
        {
          "internalType": "uint256",
          "name": "",
          "type": "uint256"
        }
      ],
      "stateMutability": "view",
      "type": "function"
    },
    {
      "inputs": [],
      "name": "decimals",
      "outputs": [
        {
          "internalType": "uint8",
          "name": "",
          "type": "uint8"
        }
      ],
      "stateMutability": "view",
      "type": "function"
    },
    {
      "inputs": [
        {
          "internalType": "uint256",
          "name": "amount",
          "type": "uint256"
        }
      ],
      "name": "deposit",
      "outputs": [],
      "stateMutability": "nonpayable",
      "type": "function"
    },
    {
      "inputs": [
        {
          "internalType": "address",
          "name": "account",
          "type": "address"
        },
        {
          "internalType": "uint256",
          "name": "amount",
          "type": "uint256"
        }
      ],
      "name": "depositFor",
      "outputs": [],
      "stateMutability": "nonpayable",
      "type": "function"
    },
    {
      "inputs": [],
      "name": "depositToken",
      "outputs": [
        {
          "internalType": "contract IERC20",
          "name": "",
          "type": "address"
        }
      ],
      "stateMutability": "view",
      "type": "function"
    },
    {
      "inputs": [
        {
          "internalType": "uint256",
          "name": "amount",
          "type": "uint256"
        },
        {
          "internalType": "uint256",
          "name": "deadline",
          "type": "uint256"
        },
        {
          "internalType": "uint8",
          "name": "v",
          "type": "uint8"
        },
        {
          "internalType": "bytes32",
          "name": "r",
          "type": "bytes32"
        },
        {
          "internalType": "bytes32",
          "name": "s",
          "type": "bytes32"
        }
      ],
      "name": "depositWithPermit",
      "outputs": [],
      "stateMutability": "nonpayable",
      "type": "function"
    },
    {
      "inputs": [],
      "name": "devAddr",
      "outputs": [
        {
          "internalType": "address",
          "name": "",
          "type": "address"
        }
      ],
      "stateMutability": "view",
      "type": "function"
    },
    {
      "inputs": [],
      "name": "estimateDeployedBalance",
      "outputs": [
        {
          "internalType": "uint256",
          "name": "",
          "type": "uint256"
        }
      ],
      "stateMutability": "view",
      "type": "function"
    },
    {
      "inputs": [],
      "name": "estimateReinvestReward",
      "outputs": [
        {
          "internalType": "uint256",
          "name": "",
          "type": "uint256"
        }
      ],
      "stateMutability": "view",
      "type": "function"
    },
    {
      "inputs": [],
      "name": "getActualLeverage",
      "outputs": [
        {
          "internalType": "uint256",
          "name": "",
          "type": "uint256"
        }
      ],
      "stateMutability": "view",
      "type": "function"
    },
    {
      "inputs": [
        {
          "internalType": "uint256",
          "name": "amount",
          "type": "uint256"
        }
      ],
      "name": "getDepositTokensForShares",
      "outputs": [
        {
          "internalType": "uint256",
          "name": "",
          "type": "uint256"
        }
      ],
      "stateMutability": "view",
      "type": "function"
    },
    {
      "inputs": [],
      "name": "getDomainSeparator",
      "outputs": [
        {
          "internalType": "bytes32",
          "name": "",
          "type": "bytes32"
        }
      ],
      "stateMutability": "view",
      "type": "function"
    },
    {
      "inputs": [
        {
          "internalType": "uint256",
          "name": "amount",
          "type": "uint256"
        }
      ],
      "name": "getSharesForDepositTokens",
      "outputs": [
        {
          "internalType": "uint256",
          "name": "",
          "type": "uint256"
        }
      ],
      "stateMutability": "view",
      "type": "function"
    },
    {
      "inputs": [],
      "name": "leverageBips",
      "outputs": [
        {
          "internalType": "uint256",
          "name": "",
          "type": "uint256"
        }
      ],
      "stateMutability": "view",
      "type": "function"
    },
    {
      "inputs": [],
      "name": "leverageLevel",
      "outputs": [
        {
          "internalType": "uint256",
          "name": "",
          "type": "uint256"
        }
      ],
      "stateMutability": "view",
      "type": "function"
    },
    {
      "inputs": [],
      "name": "minMinting",
      "outputs": [
        {
          "internalType": "uint256",
          "name": "",
          "type": "uint256"
        }
      ],
      "stateMutability": "view",
      "type": "function"
    },
    {
      "inputs": [],
      "name": "name",
      "outputs": [
        {
          "internalType": "string",
          "name": "",
          "type": "string"
        }
      ],
      "stateMutability": "view",
      "type": "function"
    },
    {
      "inputs": [
        {
          "internalType": "address",
          "name": "",
          "type": "address"
        }
      ],
      "name": "nonces",
      "outputs": [
        {
          "internalType": "uint256",
          "name": "",
          "type": "uint256"
        }
      ],
      "stateMutability": "view",
      "type": "function"
    },
    {
      "inputs": [],
      "name": "numberOfAllowedDepositors",
      "outputs": [
        {
          "internalType": "uint256",
          "name": "",
          "type": "uint256"
        }
      ],
      "stateMutability": "view",
      "type": "function"
    },
    {
      "inputs": [],
      "name": "owner",
      "outputs": [
        {
          "internalType": "address",
          "name": "",
          "type": "address"
        }
      ],
      "stateMutability": "view",
      "type": "function"
    },
    {
      "inputs": [
        {
          "internalType": "address",
          "name": "owner",
          "type": "address"
        },
        {
          "internalType": "address",
          "name": "spender",
          "type": "address"
        },
        {
          "internalType": "uint256",
          "name": "value",
          "type": "uint256"
        },
        {
          "internalType": "uint256",
          "name": "deadline",
          "type": "uint256"
        },
        {
          "internalType": "uint8",
          "name": "v",
          "type": "uint8"
        },
        {
          "internalType": "bytes32",
          "name": "r",
          "type": "bytes32"
        },
        {
          "internalType": "bytes32",
          "name": "s",
          "type": "bytes32"
        }
      ],
      "name": "permit",
      "outputs": [],
      "stateMutability": "nonpayable",
      "type": "function"
    },
    {
      "inputs": [
        {
          "internalType": "uint256",
          "name": "amount",
          "type": "uint256"
        }
      ],
      "name": "recoverAVAX",
      "outputs": [],
      "stateMutability": "nonpayable",
      "type": "function"
    },
    {
      "inputs": [
        {
          "internalType": "address",
          "name": "tokenAddress",
          "type": "address"
        },
        {
          "internalType": "uint256",
          "name": "tokenAmount",
          "type": "uint256"
        }
      ],
      "name": "recoverERC20",
      "outputs": [],
      "stateMutability": "nonpayable",
      "type": "function"
    },
    {
      "inputs": [],
      "name": "reinvest",
      "outputs": [],
      "stateMutability": "nonpayable",
      "type": "function"
    },
    {
      "inputs": [
        {
          "internalType": "address",
          "name": "depositor",
          "type": "address"
        }
      ],
      "name": "removeDepositor",
      "outputs": [],
      "stateMutability": "nonpayable",
      "type": "function"
    },
    {
      "inputs": [
        {
          "internalType": "address",
          "name": "_rewardToken",
          "type": "address"
        }
      ],
      "name": "removeReward",
      "outputs": [],
      "stateMutability": "nonpayable",
      "type": "function"
    },
    {
      "inputs": [],
      "name": "renounceOwnership",
      "outputs": [],
      "stateMutability": "nonpayable",
      "type": "function"
    },
    {
      "inputs": [
        {
          "internalType": "uint256",
          "name": "minReturnAmountAccepted",
          "type": "uint256"
        },
        {
          "internalType": "bool",
          "name": "",
          "type": "bool"
        }
      ],
      "name": "rescueDeployedFunds",
      "outputs": [],
      "stateMutability": "nonpayable",
      "type": "function"
    },
    {
      "inputs": [
        {
          "internalType": "address",
          "name": "token",
          "type": "address"
        },
        {
          "internalType": "address",
          "name": "spender",
          "type": "address"
        }
      ],
      "name": "revokeAllowance",
      "outputs": [],
      "stateMutability": "nonpayable",
      "type": "function"
    },
    {
      "inputs": [],
      "name": "rewardCount",
      "outputs": [
        {
          "internalType": "uint256",
          "name": "",
          "type": "uint256"
        }
      ],
      "stateMutability": "view",
      "type": "function"
    },
    {
      "inputs": [
        {
          "internalType": "address",
          "name": "",
          "type": "address"
        }
      ],
      "name": "rewardSwapPairs",
      "outputs": [
        {
          "internalType": "address",
          "name": "",
          "type": "address"
        }
      ],
      "stateMutability": "view",
      "type": "function"
    },
    {
      "inputs": [],
      "name": "rewardToken",
      "outputs": [
        {
          "internalType": "contract IERC20",
          "name": "",
          "type": "address"
        }
      ],
      "stateMutability": "view",
      "type": "function"
    },
    {
      "inputs": [],
      "name": "safetyFactor",
      "outputs": [
        {
          "internalType": "uint256",
          "name": "",
          "type": "uint256"
        }
      ],
      "stateMutability": "view",
      "type": "function"
    },
    {
      "inputs": [
        {
          "internalType": "uint256",
          "name": "",
          "type": "uint256"
        }
      ],
      "name": "supportedRewards",
      "outputs": [
        {
          "internalType": "address",
          "name": "",
          "type": "address"
        }
      ],
      "stateMutability": "view",
      "type": "function"
    },
    {
      "inputs": [],
      "name": "symbol",
      "outputs": [
        {
          "internalType": "string",
          "name": "",
          "type": "string"
        }
      ],
      "stateMutability": "view",
      "type": "function"
    },
    {
      "inputs": [],
      "name": "totalDeposits",
      "outputs": [
        {
          "internalType": "uint256",
          "name": "",
          "type": "uint256"
        }
      ],
      "stateMutability": "view",
      "type": "function"
    },
    {
      "inputs": [],
      "name": "totalSupply",
      "outputs": [
        {
          "internalType": "uint256",
          "name": "",
          "type": "uint256"
        }
      ],
      "stateMutability": "view",
      "type": "function"
    },
    {
      "inputs": [
        {
          "internalType": "address",
          "name": "dst",
          "type": "address"
        },
        {
          "internalType": "uint256",
          "name": "amount",
          "type": "uint256"
        }
      ],
      "name": "transfer",
      "outputs": [
        {
          "internalType": "bool",
          "name": "",
          "type": "bool"
        }
      ],
      "stateMutability": "nonpayable",
      "type": "function"
    },
    {
      "inputs": [
        {
          "internalType": "address",
          "name": "src",
          "type": "address"
        },
        {
          "internalType": "address",
          "name": "dst",
          "type": "address"
        },
        {
          "internalType": "uint256",
          "name": "amount",
          "type": "uint256"
        }
      ],
      "name": "transferFrom",
      "outputs": [
        {
          "internalType": "bool",
          "name": "",
          "type": "bool"
        }
      ],
      "stateMutability": "nonpayable",
      "type": "function"
    },
    {
      "inputs": [
        {
          "internalType": "address",
          "name": "newOwner",
          "type": "address"
        }
      ],
      "name": "transferOwnership",
      "outputs": [],
      "stateMutability": "nonpayable",
      "type": "function"
    },
    {
      "inputs": [
        {
          "internalType": "uint256",
          "name": "newValue",
          "type": "uint256"
        }
      ],
      "name": "updateAdminFee",
      "outputs": [],
      "stateMutability": "nonpayable",
      "type": "function"
    },
    {
      "inputs": [
        {
          "internalType": "bool",
          "name": "newValue",
          "type": "bool"
        }
      ],
      "name": "updateDepositsEnabled",
      "outputs": [],
      "stateMutability": "nonpayable",
      "type": "function"
    },
    {
      "inputs": [
        {
          "internalType": "address",
          "name": "newValue",
          "type": "address"
        }
      ],
      "name": "updateDevAddr",
      "outputs": [],
      "stateMutability": "nonpayable",
      "type": "function"
    },
    {
      "inputs": [
        {
          "internalType": "uint256",
          "name": "newValue",
          "type": "uint256"
        }
      ],
      "name": "updateDevFee",
      "outputs": [],
      "stateMutability": "nonpayable",
      "type": "function"
    },
    {
      "inputs": [
        {
          "internalType": "uint256",
          "name": "_leverageLevel",
          "type": "uint256"
        },
        {
          "internalType": "uint256",
          "name": "_safetyFactor",
          "type": "uint256"
        },
        {
          "internalType": "uint256",
          "name": "_minMinting",
          "type": "uint256"
        },
        {
          "internalType": "uint256",
          "name": "_leverageBips",
          "type": "uint256"
        }
      ],
      "name": "updateLeverage",
      "outputs": [],
      "stateMutability": "nonpayable",
      "type": "function"
    },
    {
      "inputs": [
        {
          "internalType": "uint256",
          "name": "newValue",
          "type": "uint256"
        }
      ],
      "name": "updateMaxTokensToDepositWithoutReinvest",
      "outputs": [],
      "stateMutability": "nonpayable",
      "type": "function"
    },
    {
      "inputs": [
        {
          "internalType": "uint256",
          "name": "newValue",
          "type": "uint256"
        }
      ],
      "name": "updateMinTokensToReinvest",
      "outputs": [],
      "stateMutability": "nonpayable",
      "type": "function"
    },
    {
      "inputs": [
        {
          "internalType": "uint256",
          "name": "newValue",
          "type": "uint256"
        }
      ],
      "name": "updateReinvestReward",
      "outputs": [],
      "stateMutability": "nonpayable",
      "type": "function"
    },
    {
      "inputs": [
        {
          "internalType": "uint256",
          "name": "amount",
          "type": "uint256"
        }
      ],
      "name": "withdraw",
      "outputs": [],
      "stateMutability": "nonpayable",
      "type": "function"
    }
  ],
  "transactionHash": "0x326bb4b3b645b434cdd6d0965c9cf4d9e01dc0caecbe3d8b70bb0ba2839712b8",
  "args": [
    "Yield Yak: Aave sAVAX",
    "0x929EC64c34a17401F460460D4B9390518E5B473e",
    "0x794a61358D6845594F94dc1DB02A252b5b4814aD",
    "0x2b2c81e08f1af8835a78bb2a90ae924ace0ea4be",
    "0x4b946c91c2b1a7d7c40fb3c130cdfbaf8389094d",
    [
      {
        "reward": "0xb31f66aa3c1e785363f0875a1b74e27b85fd66c7",
        "swapPair": "0x0000000000000000000000000000000000000000"
      }
    ],
    "0x513c7e3a9c69ca3e22550ef58ac1c0088e918fff",
    "0x77CA01483f379E58174739308945f044e1a764dc",
    "0xDcEDF06Fd33E1D7b6eb4b309f779a0e9D3172e44",
    {
      "leverageLevel": "10000",
      "safetyFactor": "0",
      "leverageBips": "10000",
      "minMinting": "100000000000000"
    },
    {
      "minTokensToReinvest": "100000000000000",
      "adminFeeBips": "0",
      "devFeeBips": "600",
      "reinvestRewardBips": "200"
    }
  ],
  "solcInputHash": "e2e83960b088117fd24c6ffcef4dccfe",
  "bytecode": "0x60c060405260096080819052685969656c642059616b60b81b60a09081526200002c916000919062000c48565b506040805180820190915260038082526216549560ea1b6020909201918252620000599160019162000c48565b503480156200006757600080fd5b5060405162005b3e38038062005b3e8339810160408190526200008a9162000f9d565b600680546001600160a01b03191633908117909155604051829190819060009060008051602062005b1e833981519152908290a3508051620000cc90620002a6565b6020810151620000dc9062000336565b6040810151620000ec90620003ed565b508a51620001029060009060208e019062000c48565b50601980546001600160a01b03808d166001600160a01b031992831617909255601a8054928c1692821692909217909155600a805490911673b31f66aa3c1e785363f0875a1b74e27b85fd66c717905581516020830151606084015160408501516200017f93929190601593909355601792909255601655601855565b600b8054336001600160a01b0319918216179091556009805482166001600160a01b038b811691909117909155601c80548316888316179055601d8054909216908616179055620001d087620004a4565b60005b865181101562000244576200022f878281518110620001f657620001f6620010b9565b602002602001015160000151888381518110620002175762000217620010b9565b602002602001015160200151620005e360201b60201c565b806200023b81620010e5565b915050620001d3565b506200025160016200076c565b6200025c8362000816565b60408051600080825260208201527fc7606d21ac05cd309191543e409f0845c016120563783d70e4f41419dc0ef234910160405180910390a1505050505050505050505062001176565b6006546001600160a01b03163314620002f55760405162461bcd60e51b8152602060048201819052602482015260008051602062005afe83398151915260448201526064015b60405180910390fd5b600c5460408051918252602082018390527f481f79ac3a523b6d6db3c5a720e190e986d1cc1b41adcdf50f9caef849901100910160405180910390a1600c55565b6006546001600160a01b03163314620003815760405162461bcd60e51b8152602060048201819052602482015260008051602062005afe8339815191526044820152606401620002ec565b612710620003a0601054836200091360201b620023ef1790919060201c565b1115620003ac57600080fd5b60115460408051918252602082018390527f2a42303d002f0ba6cfe8259c91d4684443fb0b3de286ba74991175d651726131910160405180910390a1601155565b6006546001600160a01b03163314620004385760405162461bcd60e51b8152602060048201819052602482015260008051602062005afe8339815191526044820152606401620002ec565b61271062000457601154836200091360201b620023ef1790919060201c565b11156200046357600080fd5b60105460408051918252602082018390527fe7f97d51d307dc44045597c9978bec0f842e6bb40d19b9444084cfa30d9ed4f2910160405180910390a1601055565b6001600160a01b0381166200050c5760405162461bcd60e51b815260206004820152602760248201527f537761702070616972206973206e656365737361727920627574206e6f7420736044820152661d5c1c1b1a595960ca1b6064820152608401620002ec565b601b80546001600160a01b0319166001600160a01b03838116918217909255600954600a546200054193918216911662000928565b806200056c5750601b54600a546009546200056c926001600160a01b03908116928116911662000928565b620005e05760405162461bcd60e51b815260206004820152603660248201527f53776170207061697220646f6573206e6f74206d61746368206465706f73697460448201527f546f6b656e20616e6420726577617264546f6b656e2e000000000000000000006064820152608401620002ec565b50565b600a546001600160a01b038381169116146200069c57620006268183600a60009054906101000a90046001600160a01b031662000a2d60201b620023fb1760201c565b6200069c576040805162461bcd60e51b81526020600482015260248101919091527f5661726961626c655265776172647353747261746567793a3a5377617020706160448201527f697220646f6573206e6f7420636f6e7461696e2072657761726420746f6b656e6064820152608401620002ec565b6001600160a01b038083166000818152601260209081526040822080549486166001600160a01b03199586161790556013805460018181018355919093527f66de8ffda797e3de9c05e8fc57b3bf0ec28a930d40b0d285d93c06501cf6a090909201805490941690921790925560145462000722929091620023ef62000913821b17901c565b601455604080516001600160a01b038085168252831660208201527f916e172c080569186aa7ea048268267257cf7cc49505908863f747bca8620f80910160405180910390a15050565b6006546001600160a01b03163314620007b75760405162461bcd60e51b8152602060048201819052602482015260008051602062005afe8339815191526044820152606401620002ec565b600e5481151560ff909116151503620007cf57600080fd5b600e805460ff19168215159081179091556040519081527f7b014ed3854e7f5cb0218d58b3c6ae7d53a68bb0af2f67bfb029ea42c38a7e859060200160405180910390a150565b6006546001600160a01b03163314620008615760405162461bcd60e51b8152602060048201819052602482015260008051602062005afe8339815191526044820152606401620002ec565b6001600160a01b038116620008c85760405162461bcd60e51b815260206004820152602660248201527f4f776e61626c653a206e6577206f776e657220697320746865207a65726f206160448201526564647265737360d01b6064820152608401620002ec565b6006546040516001600160a01b0380841692169060008051602062005b1e83398151915290600090a3600680546001600160a01b0319166001600160a01b0392909216919091179055565b600062000921828462001101565b9392505050565b6000826001600160a01b0316846001600160a01b0316630dfe16816040518163ffffffff1660e01b8152600401602060405180830381865afa15801562000973573d6000803e3d6000fd5b505050506040513d601f19601f820116820180604052508101906200099991906200111c565b6001600160a01b031614801562000a255750816001600160a01b0316846001600160a01b031663d21220a76040518163ffffffff1660e01b8152600401602060405180830381865afa158015620009f4573d6000803e3d6000fd5b505050506040513d601f19601f8201168201806040525081019062000a1a91906200111c565b6001600160a01b0316145b949350505050565b6000836001600160a01b0316630dfe16816040518163ffffffff1660e01b8152600401602060405180830381865afa15801562000a6e573d6000803e3d6000fd5b505050506040513d601f19601f8201168201806040525081019062000a9491906200111c565b6001600160a01b0316836001600160a01b0316148062000b295750836001600160a01b031663d21220a76040518163ffffffff1660e01b8152600401602060405180830381865afa15801562000aee573d6000803e3d6000fd5b505050506040513d601f19601f8201168201806040525081019062000b1491906200111c565b6001600160a01b0316836001600160a01b0316145b801562000c2b5750836001600160a01b0316630dfe16816040518163ffffffff1660e01b8152600401602060405180830381865afa15801562000b70573d6000803e3d6000fd5b505050506040513d601f19601f8201168201806040525081019062000b9691906200111c565b6001600160a01b0316826001600160a01b0316148062000c2b5750836001600160a01b031663d21220a76040518163ffffffff1660e01b8152600401602060405180830381865afa15801562000bf0573d6000803e3d6000fd5b505050506040513d601f19601f8201168201806040525081019062000c1691906200111c565b6001600160a01b0316826001600160a01b0316145b801562000a255750506001600160a01b0391821691161415919050565b82805462000c56906200113a565b90600052602060002090601f01602090048101928262000c7a576000855562000cc5565b82601f1062000c9557805160ff191683800117855562000cc5565b8280016001018555821562000cc5579182015b8281111562000cc557825182559160200191906001019062000ca8565b5062000cd392915062000cd7565b5090565b5b8082111562000cd3576000815560010162000cd8565b634e487b7160e01b600052604160045260246000fd5b604080519081016001600160401b038111828210171562000d295762000d2962000cee565b60405290565b604051601f8201601f191681016001600160401b038111828210171562000d5a5762000d5a62000cee565b604052919050565b600082601f83011262000d7457600080fd5b81516001600160401b0381111562000d905762000d9062000cee565b602062000da6601f8301601f1916820162000d2f565b828152858284870101111562000dbb57600080fd5b60005b8381101562000ddb57858101830151828201840152820162000dbe565b8381111562000ded5760008385840101525b5095945050505050565b80516001600160a01b038116811462000e0f57600080fd5b919050565b600082601f83011262000e2657600080fd5b815160206001600160401b0382111562000e445762000e4462000cee565b62000e54818360051b0162000d2f565b82815260069290921b8401810191818101908684111562000e7457600080fd5b8286015b8481101562000eca576040818903121562000e935760008081fd5b62000e9d62000d04565b62000ea88262000df7565b815262000eb785830162000df7565b8186015283529183019160400162000e78565b509695505050505050565b60006080828403121562000ee857600080fd5b604051608081016001600160401b038111828210171562000f0d5762000f0d62000cee565b8060405250809150825181526020830151602082015260408301516040820152606083015160608201525092915050565b60006060828403121562000f5157600080fd5b604051606081016001600160401b038111828210171562000f765762000f7662000cee565b80604052508091508251815260208301516020820152604083015160408201525092915050565b60008060008060008060008060008060006102008c8e03121562000fc057600080fd5b8b516001600160401b0381111562000fd757600080fd5b62000fe58e828f0162000d62565b9b505062000ff660208d0162000df7565b99506200100660408d0162000df7565b98506200101660608d0162000df7565b97506200102660808d0162000df7565b60a08d01519097506001600160401b038111156200104357600080fd5b620010518e828f0162000e14565b9650506200106260c08d0162000df7565b94506200107260e08d0162000df7565b9350620010836101008d0162000df7565b9250620010958d6101208e0162000ed5565b9150620010a78d6101a08e0162000f3e565b90509295989b509295989b9093969950565b634e487b7160e01b600052603260045260246000fd5b634e487b7160e01b600052601160045260246000fd5b600060018201620010fa57620010fa620010cf565b5060010190565b60008219821115620011175762001117620010cf565b500190565b6000602082840312156200112f57600080fd5b620009218262000df7565b600181811c908216806200114f57607f821691505b6020821081036200117057634e487b7160e01b600052602260045260246000fd5b50919050565b61497880620011866000396000f3fe608060405234801561001057600080fd5b50600436106103d05760003560e01c80638b73e606116101ff578063c89039c51161011a578063e592c5fa116100ad578063f02ecb711161007c578063f02ecb711461086c578063f2fde38b14610875578063f7c618c114610888578063fdb5a03e1461089b57600080fd5b8063e592c5fa14610835578063e75ab0451461083e578063eab89a5a14610851578063ed24911d1461086457600080fd5b8063db8dd95c116100e9578063db8dd95c146107ce578063dd62ed3e146107d6578063dd8ce4d61461080f578063e21ac8251461082257600080fd5b8063c89039c514610782578063cff1b6ef14610795578063d505accf146107a8578063da09c72c146107bb57600080fd5b8063a8ae2b7c11610192578063b6b55f2511610161578063b6b55f2514610756578063b9e57b8014610769578063bd079f5514610771578063c4b24a461461077a57600080fd5b8063a8ae2b7c14610710578063a9059cbb14610723578063ac0d31ff14610736578063b52a321f1461074957600080fd5b806399729ec1116101ce57806399729ec11461069a5780639e4e7318146106ad578063a4d5e67c146106d4578063a5534e71146106e757600080fd5b80638b73e606146106475780638da5cb5b1461065a5780639291d5631461067f57806395d89b411461069257600080fd5b80634a970be7116102ef578063789139bc116102825780637ecebe00116102515780637ecebe00146105f857806381837230146106185780638980f11f1461062b5780638aff733d1461063e57600080fd5b8063789139bc146105cb57806379085425146105d45780637ae26773146105dd5780637d882097146105f057600080fd5b80635ea682ea116102be5780635ea682ea1461058857806362ac20a51461059157806370a082311461059a578063715018a6146105c357600080fd5b80634a970be71461053c5780634bebd1e71461054f5780634e77ace5146105625780634ebb79161461057557600080fd5b806323b872dd11610367578063313ce56711610336578063313ce567146104e35780633bdc6e72146104fd57806340b47e1a14610506578063483c2ef01461051957600080fd5b806323b872dd146104835780632e1a7d4d146104965780632f4f21e2146104a957806330adf81f146104bc57600080fd5b806318160ddd116103a357806318160ddd146104355780631f15d71a1461043e57806320606b701461044757806322a051411461046e57600080fd5b806306fdde03146103d557806307677111146103f3578063095ea7b31461040a5780630f23475d1461042d575b600080fd5b6103dd6108a3565b6040516103ea9190614179565b60405180910390f35b6103fc600f5481565b6040519081526020016103ea565b61041d6104183660046141a1565b610931565b60405190151581526020016103ea565b6103fc610947565b6103fc60025481565b6103fc60175481565b6103fc7f8b73c3c69bb8fe3d512ecc4cf759cc79239f7b179b0ffacaa9a75d522b39400f81565b61048161047c3660046141cd565b610956565b005b61041d6104913660046141ff565b6109f3565b6104816104a4366004614240565b610ad7565b6104816104b73660046141a1565b610bcb565b6103fc7f6e71edae12b1b97f4d1f60370fef10105fa2faae0126114a169c64845d6126c981565b6104eb601281565b60405160ff90911681526020016103ea565b6103fc60075481565b610481610514366004614259565b610bd5565b61041d610527366004614292565b60086020526000908152604090205460ff1681565b61048161054a3660046142c5565b610c30565b61048161055d366004614292565b610ce2565b61048161057036600461431a565b610dff565b610481610583366004614240565b610ea6565b6103fc60115481565b6103fc60185481565b6103fc6105a8366004614292565b6001600160a01b031660009081526004602052604090205490565b610481610f60565b6103fc600d5481565b6103fc60145481565b6104816105eb366004614259565b610ff2565b6103fc6110b6565b6103fc610606366004614292565b60056020526000908152604090205481565b610481610626366004614240565b6110da565b6104816106393660046141a1565b611163565b6103fc60105481565b610481610655366004614292565b611279565b6006546001600160a01b03165b6040516001600160a01b0390911681526020016103ea565b61048161068d366004614292565b611434565b6103dd6114ee565b6104816106a8366004614240565b6114fb565b6103fc7fc89efdaa54c0f20c7adf612882df0950f5a951637e0307cdcb4c672f298b8bc681565b6104816106e2366004614292565b6115a7565b6106676106f5366004614292565b6012602052600090815260409020546001600160a01b031681565b61048161071e366004614240565b6117dd565b61041d6107313660046141a1565b611889565b610481610744366004614337565b611896565b600e5461041d9060ff1681565b610481610764366004614240565b611b37565b6103fc611b44565b6103fc600c5481565b6103fc611b89565b600954610667906001600160a01b031681565b6104816107a3366004614240565b611ed4565b6104816107b636600461435c565b611f68565b600b54610667906001600160a01b031681565b6103fc61207b565b6103fc6107e4366004614259565b6001600160a01b03918216600090815260036020908152604080832093909416825291909152205490565b6103fc61081d366004614240565b6120ad565b610481610830366004614240565b6120ed565b6103fc60155481565b61066761084c366004614240565b612176565b6103fc61085f366004614240565b6121a0565b6103fc6121d4565b6103fc60165481565b610481610883366004614292565b612274565b600a54610667906001600160a01b031681565b610481612394565b600080546108b0906143ca565b80601f01602080910402602001604051908101604052809291908181526020018280546108dc906143ca565b80156109295780601f106108fe57610100808354040283529160200191610929565b820191906000526020600020905b81548152906001019060200180831161090c57829003601f168201915b505050505081565b600061093e338484612610565b50600192915050565b60006109516110b6565b905090565b600b546001600160a01b031633146109ac5760405162461bcd60e51b81526020600482015260146024820152732cb0b5a9ba3930ba32b3bc9d1d37b7363ca232bb60611b60448201526064015b60405180910390fd5b60158490556017819055601683905560188290556000806109cb61271e565b5090925090506109e36109de8383612869565b612875565b6109eb61297c565b505050505050565b6001600160a01b038316600081815260036020908152604080832033808552925282205491929091908214801590610a2d57506000198114155b15610abe576000610a59856040518060600160405280602f81526020016148bf602f9139849190612bfe565b6001600160a01b038881166000818152600360209081526040808320948916808452948252918290208590559051848152939450919290917f8c5be1e5ebec7d5bd14f71427d1e84f3dd0314c0f7b2291e5b200ac8c7c3b925910160405180910390a3505b610ac9868686612c2a565b6001925050505b9392505050565b6000610ae2826121a0565b90506018548111610b5b5760405162461bcd60e51b815260206004820152602860248201527f416176655633537472617465677956313a3a62656c6f77206d696e696d756d2060448201527f776974686472617700000000000000000000000000000000000000000000000060648201526084016109a3565b8015610bc757610b6b3383612d66565b6000610b7682612e3c565b600954909150610b90906001600160a01b03163383612ef5565b60405181815233907f884edad9ce6fa2440d8a54cc123490eb96d2768479d49ff9c7366125a94243649060200160405180910390a2505b5050565b610bc78282612fdf565b600b546001600160a01b03163314610c265760405162461bcd60e51b81526020600482015260146024820152732cb0b5a9ba3930ba32b3bc9d1d37b7363ca232bb60611b60448201526064016109a3565b610bc7828261325a565b6009546040517fd505accf000000000000000000000000000000000000000000000000000000008152336004820152306024820152604481018790526064810186905260ff8516608482015260a4810184905260c481018390526001600160a01b039091169063d505accf9060e401600060405180830381600087803b158015610cb957600080fd5b505af1158015610ccd573d6000803e3d6000fd5b50505050610cdb3386612fdf565b5050505050565b6006546001600160a01b03163314610d2a5760405162461bcd60e51b8152602060048201819052602482015260008051602061489f83398151915260448201526064016109a3565b6001600160a01b03811660009081526008602052604090205460ff1615610d935760405162461bcd60e51b815260206004820152601c60248201527f5065726d697373696f6e65643a3a616c6c6f774465706f7369746f720000000060448201526064016109a3565b6001600160a01b0381166000908152600860205260409020805460ff19166001908117909155600754610dc5916123ef565b6007556040516001600160a01b038216907fc0a1035c16faf8d1304056d92c00edf028f87e62b8235a938f00af9e3c0312c590600090a250565b6006546001600160a01b03163314610e475760405162461bcd60e51b8152602060048201819052602482015260008051602061489f83398151915260448201526064016109a3565b600e5481151560ff909116151503610e5e57600080fd5b600e805460ff19168215159081179091556040519081527f7b014ed3854e7f5cb0218d58b3c6ae7d53a68bb0af2f67bfb029ea42c38a7e85906020015b60405180910390a150565b6006546001600160a01b03163314610eee5760405162461bcd60e51b8152602060048201819052602482015260008051602061489f83398151915260448201526064016109a3565b60008111610efb57600080fd5b604051339082156108fc029083906000818181858888f19350505050158015610f28573d6000803e3d6000fd5b506040805160008152602081018390527f8c1256b8896378cd5044f80c202f9772b9d77dc85c8a6eb51967210b09bfaa289101610e9b565b6006546001600160a01b03163314610fa85760405162461bcd60e51b8152602060048201819052602482015260008051602061489f83398151915260448201526064016109a3565b6006546040516000916001600160a01b0316907f8be0079c531659141344cd1fd0a4f28419497f9722a3daafe3b4186f6b6457e0908390a3600680546001600160a01b0319169055565b6006546001600160a01b0316331461103a5760405162461bcd60e51b8152602060048201819052602482015260008051602061489f83398151915260448201526064016109a3565b60405163095ea7b360e01b81526001600160a01b0382811660048301526000602483015283169063095ea7b3906044016020604051808303816000875af1158015611089573d6000803e3d6000fd5b505050506040513d601f19601f820116820180604052508101906110ad9190614404565b610bc757600080fd5b60008060006110c361271e565b5090925090506110d38282612869565b9250505090565b6006546001600160a01b031633146111225760405162461bcd60e51b8152602060048201819052602482015260008051602061489f83398151915260448201526064016109a3565b600c5460408051918252602082018390527f481f79ac3a523b6d6db3c5a720e190e986d1cc1b41adcdf50f9caef849901100910160405180910390a1600c55565b6006546001600160a01b031633146111ab5760405162461bcd60e51b8152602060048201819052602482015260008051602061489f83398151915260448201526064016109a3565b600081116111b857600080fd5b60405163a9059cbb60e01b8152336004820152602481018290526001600160a01b0383169063a9059cbb906044016020604051808303816000875af1158015611205573d6000803e3d6000fd5b505050506040513d601f19601f820116820180604052508101906112299190614404565b61123257600080fd5b604080516001600160a01b0384168152602081018390527f8c1256b8896378cd5044f80c202f9772b9d77dc85c8a6eb51967210b09bfaa2891015b60405180910390a15050565b6006546001600160a01b031633146112c15760405162461bcd60e51b8152602060048201819052602482015260008051602061489f83398151915260448201526064016109a3565b6000600754116113395760405162461bcd60e51b815260206004820152603460248201527f5065726d697373696f6e65643a3a72656d6f76654465706f7369746f722c206e60448201527f6f20616c6c6f776564206465706f7369746f727300000000000000000000000060648201526084016109a3565b6001600160a01b03811660009081526008602052604090205460ff1615156001146113cc5760405162461bcd60e51b815260206004820152602a60248201527f5065726d697373696f6e65643a3a72656d6f76654465706f7369746f722c206e60448201527f6f7420616c6c6f7765640000000000000000000000000000000000000000000060648201526084016109a3565b6001600160a01b0381166000908152600860205260409020805460ff191690556007546113fa906001612869565b6007556040516001600160a01b038216907f0e86f6608b536e5339a25b65ff531f5ea91e1313d056ecd4752b35cbd16137d490600090a250565b600b546001600160a01b031633146114855760405162461bcd60e51b81526020600482015260146024820152732cb0b5a9ba3930ba32b3bc9d1d37b7363ca232bb60611b60448201526064016109a3565b600b54604080516001600160a01b03928316815291831660208301527fa8e91499ed37682f43cffb045fcc7d379a91e8c9a14e6321877ee34dee564c00910160405180910390a1600b80546001600160a01b0319166001600160a01b0392909216919091179055565b600180546108b0906143ca565b6006546001600160a01b031633146115435760405162461bcd60e51b8152602060048201819052602482015260008051602061489f83398151915260448201526064016109a3565b61271061155b601054836123ef90919063ffffffff16565b111561156657600080fd5b60115460408051918252602082018390527f2a42303d002f0ba6cfe8259c91d4684443fb0b3de286ba74991175d651726131910160405180910390a1601155565b600b546001600160a01b031633146115f85760405162461bcd60e51b81526020600482015260146024820152732cb0b5a9ba3930ba32b3bc9d1d37b7363ca232bb60611b60448201526064016109a3565b6001600160a01b038116600090815260126020526040812080546001600160a01b0319169055805b6013548110156116ec576013818154811061163d5761163d614421565b6000918252602090912001546001600160a01b03908116908416036116da57601380546001935061166f90849061444d565b8154811061167f5761167f614421565b600091825260209091200154601380546001600160a01b0390921691839081106116ab576116ab614421565b9060005260206000200160006101000a8154816001600160a01b0302191690836001600160a01b031602179055505b806116e481614464565b915050611620565b50806117605760405162461bcd60e51b815260206004820152603460248201527f5661726961626c655265776172647353747261746567793a3a5265776172642060448201527f746f2064656c657465206e6f7420666f756e642100000000000000000000000060648201526084016109a3565b60138054806117715761177161447d565b600082815260209020810160001990810180546001600160a01b03191690550190556014546117a1906001612869565b6014556040516001600160a01b03831681527f963b7c735475147a62c589c2d7cb8ec4b0a6b7af4f97373d79ebfa42ab8aa7dc9060200161126d565b6006546001600160a01b031633146118255760405162461bcd60e51b8152602060048201819052602482015260008051602061489f83398151915260448201526064016109a3565b61271061183d601154836123ef90919063ffffffff16565b111561184857600080fd5b60105460408051918252602082018390527fe7f97d51d307dc44045597c9978bec0f842e6bb40d19b9444084cfa30d9ed4f2910160405180910390a1601055565b600061093e338484612c2a565b6006546001600160a01b031633146118de5760405162461bcd60e51b8152602060048201819052602482015260008051602061489f83398151915260448201526064016109a3565b6009546040516370a0823160e01b81523060048201526000916001600160a01b0316906370a0823190602401602060405180830381865afa158015611927573d6000803e3d6000fd5b505050506040513d601f19601f8201168201806040525081019061194b9190614493565b905060008061195861271e565b50909250905061196b6109de8383612869565b601a54600954604051631a4ca37b60e21b81526001600160a01b03918216600482015260001960248201523060448201529116906369328dec906064016020604051808303816000875af11580156119c7573d6000803e3d6000fd5b505050506040513d601f19601f820116820180604052508101906119eb9190614493565b506009546040516370a0823160e01b81523060048201526000916001600160a01b0316906370a0823190602401602060405180830381865afa158015611a35573d6000803e3d6000fd5b505050506040513d601f19601f82011682018060405250810190611a599190614493565b905085611a668286612869565b1015611ada5760405162461bcd60e51b815260206004820152602560248201527f416176655633537472617465677956313a3a7265736375654465706c6f79656460448201527f46756e647300000000000000000000000000000000000000000000000000000060648201526084016109a3565b7fc7606d21ac05cd309191543e409f0845c016120563783d70e4f41419dc0ef234611b036110b6565b6002546040805192835260208301919091520160405180910390a1600e5460ff1615156001036109eb576109eb6000610dff565b611b413382612fdf565b50565b600080611b4f611b89565b9050600c548110611b8157611b7b612710611b75601054846133b690919063ffffffff16565b906133c2565b91505090565b600091505090565b604080516002808252606082018352600092839291906020830190803683375050601c5482519293506001600160a01b031691839150600090611bce57611bce614421565b6001600160a01b039283166020918202929092010152601d54825191169082906001908110611bff57611bff614421565b6001600160a01b0392831660209182029290920101526019546040517f4c0369c300000000000000000000000000000000000000000000000000000000815260009283921690634c0369c390611c5b90869030906004016144c2565b600060405180830381865afa158015611c78573d6000803e3d6000fd5b505050506040513d6000823e601f3d908101601f19168201604052611ca091908101906145df565b6040516370a0823160e01b8152306004820152919350915060009073b31f66aa3c1e785363f0875a1b74e27b85fd66c7906370a0823190602401602060405180830381865afa158015611cf7573d6000803e3d6000fd5b505050506040513d601f19601f82011682018060405250810190611d1b9190614493565b9050611d2781476123ef565b5060005b8351811015611ecb576000848281518110611d4857611d48614421565b6020026020010151905073b31f66aa3c1e785363f0875a1b74e27b85fd66c76001600160a01b0316816001600160a01b031603611db257611dab848381518110611d9457611d94614421565b6020026020010151846123ef90919063ffffffff16565b9250611eb8565b6040516370a0823160e01b81523060048201526000906001600160a01b038316906370a0823190602401602060405180830381865afa158015611df9573d6000803e3d6000fd5b505050506040513d601f19601f82011682018060405250810190611e1d9190614493565b90506000611e4d868581518110611e3657611e36614421565b6020026020010151836123ef90919063ffffffff16565b6001600160a01b03808516600090815260126020526040902054919250168115801590611e8257506001600160a01b03811615155b15611eb457611eb1611eaa838673b31f66aa3c1e785363f0875a1b74e27b85fd66c7856133ce565b87906123ef565b95505b5050505b5080611ec381614464565b915050611d2b565b50949350505050565b6006546001600160a01b03163314611f1c5760405162461bcd60e51b8152602060048201819052602482015260008051602061489f83398151915260448201526064016109a3565b8015611f2757600080fd5b600f5460408051918252602082018390527f3cc372f330f95ac9540626dc8a25f5bf21ba607215a5d58304cb804d446f104a910160405180910390a1600f55565b42841015611fb85760405162461bcd60e51b815260206004820152600f60248201527f7065726d69743a3a65787069726564000000000000000000000000000000000060448201526064016109a3565b6001600160a01b038716600090815260056020526040812080547f6e71edae12b1b97f4d1f60370fef10105fa2faae0126114a169c64845d6126c9918a918a918a91908661200583614464565b909155506040805160208101969096526001600160a01b0394851690860152929091166060840152608083015260a082015260c0810186905260e001604051602081830303815290604052805190602001209050612066888286868661349a565b612071888888612610565b5050505050505050565b600080600061208861271e565b5090925090506110d361209b8383612869565b611b7584670de0b6b3a76400006133b6565b60006120c36120ba6110b6565b600254906133b6565b6000036120ce575090565b6120e76120d96110b6565b600254611b759085906133b6565b92915050565b6006546001600160a01b031633146121355760405162461bcd60e51b8152602060048201819052602482015260008051602061489f83398151915260448201526064016109a3565b600d5460408051918252602082018390527fa5dae50539d56dfe1fb5273d883b0c39bc76750a25d036fc5fbd09ad8fd5f57f910160405180910390a1600d55565b6013818154811061218657600080fd5b6000918252602090912001546001600160a01b0316905081565b60006121ad6120ba6110b6565b6000036121bc57506000919050565b6120e7600254611b756121cd6110b6565b85906133b6565b60007f8b73c3c69bb8fe3d512ecc4cf759cc79239f7b179b0ffacaa9a75d522b39400f60001b600060405161220991906146a4565b6040519081900390207fc89efdaa54c0f20c7adf612882df0950f5a951637e0307cdcb4c672f298b8bc646604080516020810195909552840192909252606083015260808201523060a082015260c00160405160208183030381529060405280519060200120905090565b6006546001600160a01b031633146122bc5760405162461bcd60e51b8152602060048201819052602482015260008051602061489f83398151915260448201526064016109a3565b6001600160a01b0381166123385760405162461bcd60e51b815260206004820152602660248201527f4f776e61626c653a206e6577206f776e657220697320746865207a65726f206160448201527f646472657373000000000000000000000000000000000000000000000000000060648201526084016109a3565b6006546040516001600160a01b038084169216907f8be0079c531659141344cd1fd0a4f28419497f9722a3daafe3b4186f6b6457e090600090a3600680546001600160a01b0319166001600160a01b0392909216919091179055565b3233146123e35760405162461bcd60e51b815260206004820152601460248201527f59616b53747261746567793a3a6f6e6c79454f4100000000000000000000000060448201526064016109a3565b6123ed60006135fa565b565b6000610ad0828461473f565b6000836001600160a01b0316630dfe16816040518163ffffffff1660e01b8152600401602060405180830381865afa15801561243b573d6000803e3d6000fd5b505050506040513d601f19601f8201168201806040525081019061245f9190614757565b6001600160a01b0316836001600160a01b031614806124f05750836001600160a01b031663d21220a76040518163ffffffff1660e01b8152600401602060405180830381865afa1580156124b7573d6000803e3d6000fd5b505050506040513d601f19601f820116820180604052508101906124db9190614757565b6001600160a01b0316836001600160a01b0316145b80156125ea5750836001600160a01b0316630dfe16816040518163ffffffff1660e01b8152600401602060405180830381865afa158015612535573d6000803e3d6000fd5b505050506040513d601f19601f820116820180604052508101906125599190614757565b6001600160a01b0316826001600160a01b031614806125ea5750836001600160a01b031663d21220a76040518163ffffffff1660e01b8152600401602060405180830381865afa1580156125b1573d6000803e3d6000fd5b505050506040513d601f19601f820116820180604052508101906125d59190614757565b6001600160a01b0316826001600160a01b0316145b80156126085750816001600160a01b0316836001600160a01b031614155b949350505050565b6001600160a01b0383166126665760405162461bcd60e51b815260206004820152601c60248201527f5f617070726f76653a3a6f776e6572207a65726f20616464726573730000000060448201526064016109a3565b6001600160a01b0382166126bc5760405162461bcd60e51b815260206004820152601e60248201527f5f617070726f76653a3a7370656e646572207a65726f2061646472657373000060448201526064016109a3565b6001600160a01b0383811660008181526003602090815260408083209487168084529482529182902085905590518481527f8c5be1e5ebec7d5bd14f71427d1e84f3dd0314c0f7b2291e5b200ac8c7c3b92591015b60405180910390a3505050565b601c546040516370a0823160e01b8152306004820152600091829182916001600160a01b0316906370a0823190602401602060405180830381865afa15801561276b573d6000803e3d6000fd5b505050506040513d601f19601f8201168201806040525081019061278f9190614493565b601d546040516370a0823160e01b81523060048201529194506001600160a01b0316906370a0823190602401602060405180830381865afa1580156127d8573d6000803e3d6000fd5b505050506040513d601f19601f820116820180604052508101906127fc9190614493565b9150600090508161282a601554611b7561282360175460155461286990919063ffffffff16565b87906133b6565b1115612864576128618261285b601554611b7561285460175460155461286990919063ffffffff16565b88906133b6565b90612869565b90505b909192565b6000610ad0828461444d565b60008061288061271e565b50909250905060006128cd6128998561285b8686612869565b61285b601754611b756128b960165460155461286990919063ffffffff16565b6128c78a61285b8b8b612869565b906133b6565b905060006128db8383612869565b90508015610cdb57601a546009546040517f2dad97d40000000000000000000000000000000000000000000000000000000081526001600160a01b0391821660048201526024810184905260026044820152911690632dad97d4906064016020604051808303816000875af1158015612958573d6000803e3d6000fd5b505050506040513d601f19601f820116820180604052508101906109eb9190614493565b600080600061298961271e565b92509250925060006129bb601754611b756129b160165460155461286990919063ffffffff16565b6128c78888612869565b600954601a5460405163095ea7b360e01b81526001600160a01b03918216600482015260248101849052929350169063095ea7b3906044016020604051808303816000875af1158015612a12573d6000803e3d6000fd5b505050506040513d601f19601f82011682018060405250810190612a369190614404565b505b80841015612b855780612a4b85846123ef565b1115612a5e57612a5b8185612869565b91505b6018548210612b8557601a546009546040517fa415bcad0000000000000000000000000000000000000000000000000000000081526001600160a01b03918216600482015260248101859052600260448201526000606482015230608482015291169063a415bcad9060a401600060405180830381600087803b158015612ae457600080fd5b505af1158015612af8573d6000803e3d6000fd5b5050601a5460095460405163617ba03760e01b81526001600160a01b03918216600482015260248101879052306044820152600060648201529116925063617ba0379150608401600060405180830381600087803b158015612b5957600080fd5b505af1158015612b6d573d6000803e3d6000fd5b50505050612b7961271e565b91955093509150612a38565b600954601a5460405163095ea7b360e01b81526001600160a01b0391821660048201526000602482015291169063095ea7b3906044016020604051808303816000875af1158015612bda573d6000803e3d6000fd5b505050506040513d601f19601f82011682018060405250810190610cdb9190614404565b60008184841115612c225760405162461bcd60e51b81526004016109a39190614179565b505050900390565b6001600160a01b038216612ca65760405162461bcd60e51b815260206004820152603460248201527f5f7472616e73666572546f6b656e733a2063616e6e6f74207472616e7366657260448201527f20746f20746865207a65726f206164647265737300000000000000000000000060648201526084016109a3565b612ce3816040518060600160405280602e8152602001614915602e91396001600160a01b0386166000908152600460205260409020549190612bfe565b6001600160a01b038085166000908152600460205260408082209390935590841681522054612d1290826123ef565b6001600160a01b0380841660008181526004602052604090819020939093559151908516907fddf252ad1be2c89b69c2b068fc378daa952ba7f163c4a11628f55a4df523b3ef906127119085815260200190565b612da3816040518060600160405280602781526020016148ee602791396001600160a01b0385166000908152600460205260409020549190612bfe565b60046000846001600160a01b03166001600160a01b0316815260200190815260200160002081905550612df381604051806060016040528060278152602001614878602791396002549190612bfe565b6002556040518181526000906001600160a01b038416907fddf252ad1be2c89b69c2b068fc378daa952ba7f163c4a11628f55a4df523b3ef906020015b60405180910390a35050565b6000612e4782612875565b6000612e5161271e565b50509050808311612e625782612e66565b6000195b601a54600954604051631a4ca37b60e21b81526001600160a01b039182166004820152602481018490523060448201529295506000929116906369328dec906064016020604051808303816000875af1158015612ec7573d6000803e3d6000fd5b505050506040513d601f19601f82011682018060405250810190612eeb9190614493565b9050610ad061297c565b60405163a9059cbb60e01b81526001600160a01b0383811660048301526024820183905284169063a9059cbb906044016020604051808303816000875af1158015612f44573d6000803e3d6000fd5b505050506040513d601f19601f82011682018060405250810190612f689190614404565b612fda5760405162461bcd60e51b815260206004820152602660248201527f416176655633537472617465677956313a3a5452414e534645525f46524f4d5f60448201527f4641494c4544000000000000000000000000000000000000000000000000000060648201526084016109a3565b505050565b60075415613071573360009081526008602052604090205460ff1615156001146130715760405162461bcd60e51b815260206004820152602e60248201527f5065726d697373696f6e65643a3a6f6e6c79416c6c6f7765644465706f73697460448201527f732c206e6f7420616c6c6f77656400000000000000000000000000000000000060648201526084016109a3565b600e5460ff1615156001146130c85760405162461bcd60e51b815260206004820152601a60248201527f416176655633537472617465677956313a3a5f6465706f73697400000000000060448201526064016109a3565b600d54156130f25760006130da611b89565b9050600d548111156130f0576130f060016135fa565b505b6009546040517f23b872dd000000000000000000000000000000000000000000000000000000008152336004820152306024820152604481018390526001600160a01b03909116906323b872dd906064016020604051808303816000875af1158015613162573d6000803e3d6000fd5b505050506040513d601f19601f820116820180604052508101906131869190614404565b6131f85760405162461bcd60e51b815260206004820152602160248201527f416176655633537472617465677956313a3a7472616e73666572206661696c6560448201527f640000000000000000000000000000000000000000000000000000000000000060648201526084016109a3565b61320a82613205836120ad565b61389d565b61321381613921565b816001600160a01b03167fe1fffcc4923d04b559f4d29a8bfc6cda04eb5b0d3c460751c2402c5c5cc9109c8260405161324e91815260200190565b60405180910390a25050565b600a546001600160a01b038381169116146132fc57600a5461328890829084906001600160a01b03166123fb565b6132fc576040805162461bcd60e51b81526020600482015260248101919091527f5661726961626c655265776172647353747261746567793a3a5377617020706160448201527f697220646f6573206e6f7420636f6e7461696e2072657761726420746f6b656e60648201526084016109a3565b6001600160a01b03808316600081815260126020526040812080549385166001600160a01b03199485161790556013805460018181018355919092527f66de8ffda797e3de9c05e8fc57b3bf0ec28a930d40b0d285d93c06501cf6a0909091018054909316909117909155601454613373916123ef565b601455604080516001600160a01b038085168252831660208201527f916e172c080569186aa7ea048268267257cf7cc49505908863f747bca8620f80910161126d565b6000610ad08284614774565b6000610ad08284614793565b6000806133db8585613a8e565b509050600080846001600160a01b0316630902f1ac6040518163ffffffff1660e01b8152600401606060405180830381865afa15801561341f573d6000803e3d6000fd5b505050506040513d601f19601f8201168201806040525081019061344391906147d3565b5091509150866001600160a01b0316836001600160a01b03161461346357905b61348e88836dffffffffffffffffffffffffffff16836dffffffffffffffffffffffffffff16613abf565b98975050505050505050565b60006134a46121d4565b6040517f1901000000000000000000000000000000000000000000000000000000000000602082015260228101919091526042810186905260620160408051601f198184030181528282528051602091820120600080855291840180845281905260ff88169284019290925260608301869052608083018590529092509060019060a0016020604051602081039080840390855afa15801561354a573d6000803e3d6000fd5b5050604051601f1901519150506001600160a01b038116158015906135805750866001600160a01b0316816001600160a01b0316145b6135f15760405162461bcd60e51b8152602060048201526024808201527f417263683a3a76616c69646174655369673a20696e76616c6964207369676e6160448201527f747572650000000000000000000000000000000000000000000000000000000060648201526084016109a3565b50505050505050565b6040805160028082526060820183526000926020830190803683375050601c5482519293506001600160a01b03169183915060009061363b5761363b614421565b6001600160a01b039283166020918202929092010152601d5482519116908290600190811061366c5761366c614421565b6001600160a01b0392831660209182029290920101526019546040517fbb492bf500000000000000000000000000000000000000000000000000000000815291169063bb492bf5906136c490849030906004016144c2565b6000604051808303816000875af11580156136e3573d6000803e3d6000fd5b505050506040513d6000823e601f3d908101601f1916820160405261370b91908101906145df565b50506000613717613b0d565b90508261379657600c548110156137965760405162461bcd60e51b815260206004820152603060248201527f5661726961626c655265776172647353747261746567793a3a5265696e76657360448201527f7420616d6f756e7420746f6f206c6f770000000000000000000000000000000060648201526084016109a3565b60006137b3612710611b75601154856133b690919063ffffffff16565b905080156137d857600a54600b546137d8916001600160a01b03908116911683612ef5565b60006137f5612710611b75601054866133b690919063ffffffff16565b9050801561381457600a54613814906001600160a01b03163383612ef5565b60006138466138278361285b8787612869565b600a54600954601b546001600160a01b03928316929182169116613d49565b905061385181613921565b7fc7606d21ac05cd309191543e409f0845c016120563783d70e4f41419dc0ef23461387a6110b6565b6002546040805192835260208301919091520160405180910390a1505050505050565b6002546138aa90826123ef565b6002556001600160a01b0382166000908152600460205260409020546138d090826123ef565b6001600160a01b0383166000818152600460205260408082209390935591519091907fddf252ad1be2c89b69c2b068fc378daa952ba7f163c4a11628f55a4df523b3ef90612e309085815260200190565b600081116139975760405162461bcd60e51b815260206004820152602560248201527f416176655633537472617465677956313a3a5f7374616b654465706f7369745460448201527f6f6b656e7300000000000000000000000000000000000000000000000000000060648201526084016109a3565b600954601a5460405163095ea7b360e01b81526001600160a01b0391821660048201526024810184905291169063095ea7b3906044016020604051808303816000875af11580156139ec573d6000803e3d6000fd5b505050506040513d601f19601f82011682018060405250810190613a109190614404565b50601a5460095460405163617ba03760e01b81526001600160a01b039182166004820152602481018490523060448201526000606482015291169063617ba03790608401600060405180830381600087803b158015613a6e57600080fd5b505af1158015613a82573d6000803e3d6000fd5b50505050611b4161297c565b600080826001600160a01b0316846001600160a01b031610613ab1578284613ab4565b83835b915091509250929050565b600080613ace856103e56133b6565b90506000613adc82856133b6565b90506000613af683613af0886103e86133b6565b906123ef565b9050613b0282826133c2565b979650505050505050565b6040516370a0823160e01b8152306004820152600090819073b31f66aa3c1e785363f0875a1b74e27b85fd66c7906370a0823190602401602060405180830381865afa158015613b61573d6000803e3d6000fd5b505050506040513d601f19601f82011682018060405250810190613b859190614493565b60135490915060005b81811015613d4157600060138281548110613bab57613bab614421565b6000918252602090912001546001600160a01b031690507fffffffffffffffffffffffff4ce09955c3e187ac9c0f78a5e48b1d847a0299398101613c7557478015613c6e5773b31f66aa3c1e785363f0875a1b74e27b85fd66c76001600160a01b031663d0e30db0826040518263ffffffff1660e01b81526004016000604051808303818588803b158015613c3f57600080fd5b505af1158015613c53573d6000803e3d6000fd5b5050505050613c6b81866123ef90919063ffffffff16565b94505b5050613d2f565b6040516370a0823160e01b81523060048201526000906001600160a01b038316906370a0823190602401602060405180830381865afa158015613cbc573d6000803e3d6000fd5b505050506040513d601f19601f82011682018060405250810190613ce09190614493565b90508015613d2c576001600160a01b03808316600090815260126020526040902054168015613d2a57600a54613d2790611eaa90849086906001600160a01b031685613d49565b95505b505b50505b80613d3981614464565b915050613b8e565b509092915050565b600080613d568585613a8e565b509050600080846001600160a01b0316630902f1ac6040518163ffffffff1660e01b8152600401606060405180830381865afa158015613d9a573d6000803e3d6000fd5b505050506040513d601f19601f82011682018060405250810190613dbe91906147d3565b5091509150866001600160a01b0316836001600160a01b031614613dde57905b600080613e0c8a856dffffffffffffffffffffffffffff16856dffffffffffffffffffffffffffff16613abf565b9050886001600160a01b0316856001600160a01b031614613e2957905b613e3d6001600160a01b038a16888c613ee4565b604080516000815260208101918290527f022c0d9f000000000000000000000000000000000000000000000000000000009091526001600160a01b0388169063022c0d9f90613e959085908590309060248101614823565b600060405180830381600087803b158015613eaf57600080fd5b505af1158015613ec3573d6000803e3d6000fd5b50505050818111613ed45781613ed6565b805b9a9950505050505050505050565b604080516001600160a01b03848116602483015260448083018590528351808403909101815260649092018352602080830180517bffffffffffffffffffffffffffffffffffffffffffffffffffffffff1663a9059cbb60e01b17905283518085019094528084527f5361666545524332303a206c6f772d6c6576656c2063616c6c206661696c656490840152612fda92869291600091613f89918516908490614019565b805190915015612fda5780806020019051810190613fa79190614404565b612fda5760405162461bcd60e51b815260206004820152602a60248201527f5361666545524332303a204552433230206f7065726174696f6e20646964206e60448201527f6f7420737563636565640000000000000000000000000000000000000000000060648201526084016109a3565b60606126088484600085856001600160a01b0385163b61407b5760405162461bcd60e51b815260206004820152601d60248201527f416464726573733a2063616c6c20746f206e6f6e2d636f6e747261637400000060448201526064016109a3565b600080866001600160a01b03168587604051614097919061485b565b60006040518083038185875af1925050503d80600081146140d4576040519150601f19603f3d011682016040523d82523d6000602084013e6140d9565b606091505b5091509150613b02828286606083156140f3575081610ad0565b8251156141035782518084602001fd5b8160405162461bcd60e51b81526004016109a39190614179565b60005b83811015614138578181015183820152602001614120565b83811115614147576000848401525b50505050565b6000815180845261416581602086016020860161411d565b601f01601f19169290920160200192915050565b602081526000610ad0602083018461414d565b6001600160a01b0381168114611b4157600080fd5b600080604083850312156141b457600080fd5b82356141bf8161418c565b946020939093013593505050565b600080600080608085870312156141e357600080fd5b5050823594602084013594506040840135936060013592509050565b60008060006060848603121561421457600080fd5b833561421f8161418c565b9250602084013561422f8161418c565b929592945050506040919091013590565b60006020828403121561425257600080fd5b5035919050565b6000806040838503121561426c57600080fd5b82356142778161418c565b915060208301356142878161418c565b809150509250929050565b6000602082840312156142a457600080fd5b8135610ad08161418c565b803560ff811681146142c057600080fd5b919050565b600080600080600060a086880312156142dd57600080fd5b85359450602086013593506142f4604087016142af565b94979396509394606081013594506080013592915050565b8015158114611b4157600080fd5b60006020828403121561432c57600080fd5b8135610ad08161430c565b6000806040838503121561434a57600080fd5b8235915060208301356142878161430c565b600080600080600080600060e0888a03121561437757600080fd5b87356143828161418c565b965060208801356143928161418c565b955060408801359450606088013593506143ae608089016142af565b925060a0880135915060c0880135905092959891949750929550565b600181811c908216806143de57607f821691505b6020821081036143fe57634e487b7160e01b600052602260045260246000fd5b50919050565b60006020828403121561441657600080fd5b8151610ad08161430c565b634e487b7160e01b600052603260045260246000fd5b634e487b7160e01b600052601160045260246000fd5b60008282101561445f5761445f614437565b500390565b60006001820161447657614476614437565b5060010190565b634e487b7160e01b600052603160045260246000fd5b6000602082840312156144a557600080fd5b5051919050565b634e487b7160e01b600052604160045260246000fd5b604080825283519082018190526000906020906060840190828701845b828110156145045781516001600160a01b0316845292840192908401906001016144df565b5050506001600160a01b039490941692019190915250919050565b604051601f8201601f1916810167ffffffffffffffff81118282101715614548576145486144ac565b604052919050565b600067ffffffffffffffff82111561456a5761456a6144ac565b5060051b60200190565b600082601f83011261458557600080fd5b8151602061459a61459583614550565b61451f565b82815260059290921b840181019181810190868411156145b957600080fd5b8286015b848110156145d457805183529183019183016145bd565b509695505050505050565b600080604083850312156145f257600080fd5b825167ffffffffffffffff8082111561460a57600080fd5b818501915085601f83011261461e57600080fd5b8151602061462e61459583614550565b82815260059290921b8401810191818101908984111561464d57600080fd5b948201945b838610156146745785516146658161418c565b82529482019490820190614652565b9188015191965090935050508082111561468d57600080fd5b5061469a85828601614574565b9150509250929050565b600080835481600182811c9150808316806146c057607f831692505b602080841082036146df57634e487b7160e01b86526022600452602486fd5b8180156146f3576001811461470457614731565b60ff19861689528489019650614731565b60008a81526020902060005b868110156147295781548b820152908501908301614710565b505084890196505b509498975050505050505050565b6000821982111561475257614752614437565b500190565b60006020828403121561476957600080fd5b8151610ad08161418c565b600081600019048311821515161561478e5761478e614437565b500290565b6000826147b057634e487b7160e01b600052601260045260246000fd5b500490565b80516dffffffffffffffffffffffffffff811681146142c057600080fd5b6000806000606084860312156147e857600080fd5b6147f1846147b5565b92506147ff602085016147b5565b9150604084015163ffffffff8116811461481857600080fd5b809150509250925092565b8481528360208201526001600160a01b0383166040820152608060608201526000614851608083018461414d565b9695505050505050565b6000825161486d81846020870161411d565b919091019291505056fe5f6275726e3a206275726e20616d6f756e74206578636565647320746f74616c20737570706c794f776e61626c653a2063616c6c6572206973206e6f7420746865206f776e65727472616e7366657246726f6d3a207472616e7366657220616d6f756e74206578636565647320616c6c6f77616e63655f6275726e3a206275726e20616d6f756e7420657863656564732066726f6d2062616c616e63655f7472616e73666572546f6b656e733a207472616e7366657220657863656564732066726f6d2062616c616e6365a264697066735822122081ffeebb4b4de1a532f19a1e7e8c76c1e1e3c05abfa67ce8f2172e87fdc3aab464736f6c634300080d00334f776e61626c653a2063616c6c6572206973206e6f7420746865206f776e65728be0079c531659141344cd1fd0a4f28419497f9722a3daafe3b4186f6b6457e0",
  "devdoc": {
    "kind": "dev",
    "methods": {
      "allowDepositor(address)": {
        "params": {
          "depositor": "address"
        }
      },
      "allowance(address,address)": {
        "params": {
          "account": "The address of the account holding the funds",
          "spender": "The address of the account spending the funds"
        },
        "returns": {
          "_0": "The number of tokens approved"
        }
      },
      "approve(address,uint256)": {
        "details": "This will overwrite the approval amount for `spender` and is subject to issues noted [here](https://eips.ethereum.org/EIPS/eip-20#approve) It is recommended to use increaseAllowance and decreaseAllowance instead",
        "params": {
          "amount": "The number of tokens that are approved (2^256-1 means infinite)",
          "spender": "The address of the account which may transfer tokens"
        },
        "returns": {
          "_0": "Whether or not the approval succeeded"
        }
      },
      "balanceOf(address)": {
        "params": {
          "account": "The address of the account to get the balance of"
        },
        "returns": {
          "_0": "The number of tokens held"
        }
      },
      "checkReward()": {
        "returns": {
          "_0": "reward tokens"
        }
      },
      "deposit(uint256)": {
        "details": "Must mint receipt tokens to `msg.sender`",
        "params": {
          "amount": "deposit tokens"
        }
      },
      "depositFor(address,uint256)": {
        "details": "Must mint receipt tokens to `account`",
        "params": {
          "account": "address to receive receipt tokens",
          "amount": "deposit tokens"
        }
      },
      "depositWithPermit(uint256,uint256,uint8,bytes32,bytes32)": {
        "details": "Should revert for tokens without Permit",
        "params": {
          "amount": "Amount of tokens to deposit",
          "deadline": "The time at which to expire the signature",
          "r": "Half of the ECDSA signature pair",
          "s": "Half of the ECDSA signature pair",
          "v": "The recovery byte of the signature"
        }
      },
      "estimateDeployedBalance()": {
        "returns": {
          "_0": "deposit tokens"
        }
      },
      "estimateReinvestReward()": {
        "returns": {
          "_0": "reward tokens"
        }
      },
      "getDepositTokensForShares(uint256)": {
        "params": {
          "amount": "receipt tokens"
        },
        "returns": {
          "_0": "deposit tokens"
        }
      },
      "getDomainSeparator()": {
        "returns": {
          "_0": "Separator"
        }
      },
      "getSharesForDepositTokens(uint256)": {
        "details": "If contract is empty, use 1:1 ratioCould return zero shares for very low amounts of deposit tokens",
        "params": {
          "amount": "deposit tokens"
        },
        "returns": {
          "_0": "receipt tokens"
        }
      },
      "owner()": {
        "details": "Returns the address of the current owner."
      },
      "permit(address,address,uint256,uint256,uint8,bytes32,bytes32)": {
        "params": {
          "deadline": "The time at which to expire the signature",
          "owner": "The address to approve from",
          "r": "Half of the ECDSA signature pair",
          "s": "Half of the ECDSA signature pair",
          "spender": "The address to be approved",
          "v": "The recovery byte of the signature",
          "value": "The number of tokens that are approved (2^256-1 means infinite)"
        }
      },
      "recoverAVAX(uint256)": {
        "params": {
          "amount": "amount"
        }
      },
      "recoverERC20(address,uint256)": {
        "params": {
          "tokenAddress": "token address",
          "tokenAmount": "amount to recover"
        }
      },
      "removeDepositor(address)": {
        "params": {
          "depositor": "address"
        }
      },
      "renounceOwnership()": {
        "details": "Leaves the contract without owner. It will not be possible to call `onlyOwner` functions anymore. Can only be called by the current owner. NOTE: Renouncing ownership will leave the contract without an owner, thereby removing any functionality that is only available to the owner."
      },
      "revokeAllowance(address,address)": {
        "params": {
          "spender": "address",
          "token": "address"
        }
      },
      "totalDeposits()": {
        "returns": {
          "_0": "total deposits available on the contract"
        }
      },
      "transfer(address,uint256)": {
        "params": {
          "amount": "The number of tokens to transfer",
          "dst": "The address of the destination account"
        },
        "returns": {
          "_0": "Whether or not the transfer succeeded"
        }
      },
      "transferFrom(address,address,uint256)": {
        "params": {
          "amount": "The number of tokens to transfer",
          "dst": "The address of the destination account",
          "src": "The address of the source account"
        },
        "returns": {
          "_0": "Whether or not the transfer succeeded"
        }
      },
      "transferOwnership(address)": {
        "details": "Transfers ownership of the contract to a new account (`newOwner`). Can only be called by the current owner."
      },
      "updateAdminFee(uint256)": {
        "details": "Deprecated; Kept for compatibility",
        "params": {
          "newValue": "fee in BIPS; required to be 0"
        }
      },
      "updateDepositsEnabled(bool)": {
        "params": {
          "newValue": "bool"
        }
      },
      "updateDevAddr(address)": {
        "params": {
          "newValue": "address"
        }
      },
      "updateDevFee(uint256)": {
        "params": {
          "newValue": "fee in BIPS"
        }
      },
      "updateMaxTokensToDepositWithoutReinvest(uint256)": {
        "params": {
          "newValue": "threshold"
        }
      },
      "updateMinTokensToReinvest(uint256)": {
        "params": {
          "newValue": "threshold"
        }
      },
      "updateReinvestReward(uint256)": {
        "params": {
          "newValue": "fee in BIPS"
        }
      },
      "withdraw(uint256)": {
        "params": {
          "amount": "receipt tokens"
        }
      }
    },
    "title": "Aave strategy for ERC20",
    "version": 1
  },
  "userdoc": {
    "kind": "user",
    "methods": {
      "allowDepositor(address)": {
        "notice": "Add an allowed depositor"
      },
      "allowance(address,address)": {
        "notice": "Get the number of tokens `spender` is approved to spend on behalf of `account`"
      },
      "approve(address,uint256)": {
        "notice": "Approve `spender` to transfer up to `amount` from `src`"
      },
      "balanceOf(address)": {
        "notice": "Get the number of tokens held by the `account`"
      },
      "checkReward()": {
        "notice": "Reward tokens avialable to strategy, including balance"
      },
      "deposit(uint256)": {
        "notice": "Deposit and deploy deposits tokens to the strategy"
      },
      "depositFor(address,uint256)": {
        "notice": "Deposit on behalf of another account"
      },
      "depositWithPermit(uint256,uint256,uint8,bytes32,bytes32)": {
        "notice": "Deposit using Permit"
      },
      "estimateDeployedBalance()": {
        "notice": "Estimated deposit token balance deployed by strategy, excluding balance"
      },
      "estimateReinvestReward()": {
        "notice": "Estimate reinvest reward"
      },
      "getDepositTokensForShares(uint256)": {
        "notice": "Calculate deposit tokens for a given amount of receipt tokens"
      },
      "getDomainSeparator()": {
        "notice": "EIP-712 Domain separator"
      },
      "getSharesForDepositTokens(uint256)": {
        "notice": "Calculate receipt tokens for a given amount of deposit tokens"
      },
      "permit(address,address,uint256,uint256,uint8,bytes32,bytes32)": {
        "notice": "Triggers an approval from owner to spender"
      },
      "recoverAVAX(uint256)": {
        "notice": "Recover AVAX from contract"
      },
      "recoverERC20(address,uint256)": {
        "notice": "Recover ERC20 from contract"
      },
      "reinvest()": {
        "notice": "Reinvest reward tokens into deposit tokens"
      },
      "removeDepositor(address)": {
        "notice": "Remove an allowed depositor"
      },
      "revokeAllowance(address,address)": {
        "notice": "Revoke token allowance"
      },
      "totalDeposits()": {
        "notice": "This function returns a snapshot of last available quotes"
      },
      "transfer(address,uint256)": {
        "notice": "Transfer `amount` tokens from `msg.sender` to `dst`"
      },
      "transferFrom(address,address,uint256)": {
        "notice": "Transfer `amount` tokens from `src` to `dst`"
      },
      "updateAdminFee(uint256)": {
        "notice": "Update admin fee"
      },
      "updateDepositsEnabled(bool)": {
        "notice": "Enable/disable deposits"
      },
      "updateDevAddr(address)": {
        "notice": "Update devAddr"
      },
      "updateDevFee(uint256)": {
        "notice": "Update developer fee"
      },
      "updateMaxTokensToDepositWithoutReinvest(uint256)": {
        "notice": "Update reinvest max threshold before a deposit"
      },
      "updateMinTokensToReinvest(uint256)": {
        "notice": "Update reinvest min threshold"
      },
      "updateReinvestReward(uint256)": {
        "notice": "Update reinvest reward"
      },
      "withdraw(uint256)": {
        "notice": "Redeem receipt tokens for deposit tokens"
      }
    },
    "version": 1
  },
  "storageLayout": {
    "storage": [
      {
        "astId": 556,
        "contract": "contracts/strategies/aave/AaveV3StrategyV1.sol:AaveV3StrategyV1",
        "label": "name",
        "offset": 0,
        "slot": "0",
        "type": "t_string_storage"
      },
      {
        "astId": 559,
        "contract": "contracts/strategies/aave/AaveV3StrategyV1.sol:AaveV3StrategyV1",
        "label": "symbol",
        "offset": 0,
        "slot": "1",
        "type": "t_string_storage"
      },
      {
        "astId": 564,
        "contract": "contracts/strategies/aave/AaveV3StrategyV1.sol:AaveV3StrategyV1",
        "label": "totalSupply",
        "offset": 0,
        "slot": "2",
        "type": "t_uint256"
      },
      {
        "astId": 570,
        "contract": "contracts/strategies/aave/AaveV3StrategyV1.sol:AaveV3StrategyV1",
        "label": "allowances",
        "offset": 0,
        "slot": "3",
        "type": "t_mapping(t_address,t_mapping(t_address,t_uint256))"
      },
      {
        "astId": 574,
        "contract": "contracts/strategies/aave/AaveV3StrategyV1.sol:AaveV3StrategyV1",
        "label": "balances",
        "offset": 0,
        "slot": "4",
        "type": "t_mapping(t_address,t_uint256)"
      },
      {
        "astId": 590,
        "contract": "contracts/strategies/aave/AaveV3StrategyV1.sol:AaveV3StrategyV1",
        "label": "nonces",
        "offset": 0,
        "slot": "5",
        "type": "t_mapping(t_address,t_uint256)"
      },
      {
        "astId": 7967,
        "contract": "contracts/strategies/aave/AaveV3StrategyV1.sol:AaveV3StrategyV1",
        "label": "_owner",
        "offset": 0,
        "slot": "6",
        "type": "t_address"
      },
      {
        "astId": 8080,
        "contract": "contracts/strategies/aave/AaveV3StrategyV1.sol:AaveV3StrategyV1",
        "label": "numberOfAllowedDepositors",
        "offset": 0,
        "slot": "7",
        "type": "t_uint256"
      },
      {
        "astId": 8084,
        "contract": "contracts/strategies/aave/AaveV3StrategyV1.sol:AaveV3StrategyV1",
        "label": "allowedDepositors",
        "offset": 0,
        "slot": "8",
        "type": "t_mapping(t_address,t_bool)"
      },
      {
        "astId": 1965,
        "contract": "contracts/strategies/aave/AaveV3StrategyV1.sol:AaveV3StrategyV1",
        "label": "depositToken",
        "offset": 0,
        "slot": "9",
        "type": "t_contract(IERC20)5314"
      },
      {
        "astId": 1968,
        "contract": "contracts/strategies/aave/AaveV3StrategyV1.sol:AaveV3StrategyV1",
        "label": "rewardToken",
        "offset": 0,
        "slot": "10",
        "type": "t_contract(IERC20)5314"
      },
      {
        "astId": 1970,
        "contract": "contracts/strategies/aave/AaveV3StrategyV1.sol:AaveV3StrategyV1",
        "label": "devAddr",
        "offset": 0,
        "slot": "11",
        "type": "t_address"
      },
      {
        "astId": 1972,
        "contract": "contracts/strategies/aave/AaveV3StrategyV1.sol:AaveV3StrategyV1",
        "label": "MIN_TOKENS_TO_REINVEST",
        "offset": 0,
        "slot": "12",
        "type": "t_uint256"
      },
      {
        "astId": 1974,
        "contract": "contracts/strategies/aave/AaveV3StrategyV1.sol:AaveV3StrategyV1",
        "label": "MAX_TOKENS_TO_DEPOSIT_WITHOUT_REINVEST",
        "offset": 0,
        "slot": "13",
        "type": "t_uint256"
      },
      {
        "astId": 1976,
        "contract": "contracts/strategies/aave/AaveV3StrategyV1.sol:AaveV3StrategyV1",
        "label": "DEPOSITS_ENABLED",
        "offset": 0,
        "slot": "14",
        "type": "t_bool"
      },
      {
        "astId": 1978,
        "contract": "contracts/strategies/aave/AaveV3StrategyV1.sol:AaveV3StrategyV1",
        "label": "ADMIN_FEE_BIPS",
        "offset": 0,
        "slot": "15",
        "type": "t_uint256"
      },
      {
        "astId": 1980,
        "contract": "contracts/strategies/aave/AaveV3StrategyV1.sol:AaveV3StrategyV1",
        "label": "REINVEST_REWARD_BIPS",
        "offset": 0,
        "slot": "16",
        "type": "t_uint256"
      },
      {
        "astId": 1982,
        "contract": "contracts/strategies/aave/AaveV3StrategyV1.sol:AaveV3StrategyV1",
        "label": "DEV_FEE_BIPS",
        "offset": 0,
        "slot": "17",
        "type": "t_uint256"
      },
      {
        "astId": 14882,
        "contract": "contracts/strategies/aave/AaveV3StrategyV1.sol:AaveV3StrategyV1",
        "label": "rewardSwapPairs",
        "offset": 0,
        "slot": "18",
        "type": "t_mapping(t_address,t_address)"
      },
      {
        "astId": 14885,
        "contract": "contracts/strategies/aave/AaveV3StrategyV1.sol:AaveV3StrategyV1",
        "label": "supportedRewards",
        "offset": 0,
        "slot": "19",
        "type": "t_array(t_address)dyn_storage"
      },
      {
        "astId": 14887,
        "contract": "contracts/strategies/aave/AaveV3StrategyV1.sol:AaveV3StrategyV1",
        "label": "rewardCount",
        "offset": 0,
        "slot": "20",
        "type": "t_uint256"
      },
      {
        "astId": 14889,
        "contract": "contracts/strategies/aave/AaveV3StrategyV1.sol:AaveV3StrategyV1",
        "label": "leverageLevel",
        "offset": 0,
        "slot": "21",
        "type": "t_uint256"
      },
      {
        "astId": 14891,
        "contract": "contracts/strategies/aave/AaveV3StrategyV1.sol:AaveV3StrategyV1",
        "label": "safetyFactor",
        "offset": 0,
        "slot": "22",
        "type": "t_uint256"
      },
      {
        "astId": 14893,
        "contract": "contracts/strategies/aave/AaveV3StrategyV1.sol:AaveV3StrategyV1",
        "label": "leverageBips",
        "offset": 0,
        "slot": "23",
        "type": "t_uint256"
      },
      {
        "astId": 14895,
        "contract": "contracts/strategies/aave/AaveV3StrategyV1.sol:AaveV3StrategyV1",
        "label": "minMinting",
        "offset": 0,
        "slot": "24",
        "type": "t_uint256"
      },
      {
        "astId": 14898,
        "contract": "contracts/strategies/aave/AaveV3StrategyV1.sol:AaveV3StrategyV1",
        "label": "rewardController",
        "offset": 0,
        "slot": "25",
        "type": "t_contract(IAaveV3IncentivesController)16556"
      },
      {
        "astId": 14901,
        "contract": "contracts/strategies/aave/AaveV3StrategyV1.sol:AaveV3StrategyV1",
        "label": "tokenDelegator",
        "offset": 0,
        "slot": "26",
        "type": "t_contract(ILendingPoolAaveV3)16947"
      },
      {
        "astId": 14904,
        "contract": "contracts/strategies/aave/AaveV3StrategyV1.sol:AaveV3StrategyV1",
        "label": "swapPairToken",
        "offset": 0,
        "slot": "27",
        "type": "t_contract(IPair)5473"
      },
      {
        "astId": 14912,
        "contract": "contracts/strategies/aave/AaveV3StrategyV1.sol:AaveV3StrategyV1",
        "label": "avToken",
        "offset": 0,
        "slot": "28",
        "type": "t_address"
      },
      {
        "astId": 14914,
        "contract": "contracts/strategies/aave/AaveV3StrategyV1.sol:AaveV3StrategyV1",
        "label": "avDebtToken",
        "offset": 0,
        "slot": "29",
        "type": "t_address"
      }
    ],
    "types": {
      "t_address": {
        "encoding": "inplace",
        "label": "address",
        "numberOfBytes": "20"
      },
      "t_array(t_address)dyn_storage": {
        "base": "t_address",
        "encoding": "dynamic_array",
        "label": "address[]",
        "numberOfBytes": "32"
      },
      "t_bool": {
        "encoding": "inplace",
        "label": "bool",
        "numberOfBytes": "1"
      },
      "t_contract(IAaveV3IncentivesController)16556": {
        "encoding": "inplace",
        "label": "contract IAaveV3IncentivesController",
        "numberOfBytes": "20"
      },
      "t_contract(IERC20)5314": {
        "encoding": "inplace",
        "label": "contract IERC20",
        "numberOfBytes": "20"
      },
      "t_contract(ILendingPoolAaveV3)16947": {
        "encoding": "inplace",
        "label": "contract ILendingPoolAaveV3",
        "numberOfBytes": "20"
      },
      "t_contract(IPair)5473": {
        "encoding": "inplace",
        "label": "contract IPair",
        "numberOfBytes": "20"
      },
      "t_mapping(t_address,t_address)": {
        "encoding": "mapping",
        "key": "t_address",
        "label": "mapping(address => address)",
        "numberOfBytes": "32",
        "value": "t_address"
      },
      "t_mapping(t_address,t_bool)": {
        "encoding": "mapping",
        "key": "t_address",
        "label": "mapping(address => bool)",
        "numberOfBytes": "32",
        "value": "t_bool"
      },
      "t_mapping(t_address,t_mapping(t_address,t_uint256))": {
        "encoding": "mapping",
        "key": "t_address",
        "label": "mapping(address => mapping(address => uint256))",
        "numberOfBytes": "32",
        "value": "t_mapping(t_address,t_uint256)"
      },
      "t_mapping(t_address,t_uint256)": {
        "encoding": "mapping",
        "key": "t_address",
        "label": "mapping(address => uint256)",
        "numberOfBytes": "32",
        "value": "t_uint256"
      },
      "t_string_storage": {
        "encoding": "bytes",
        "label": "string",
        "numberOfBytes": "32"
      },
      "t_uint256": {
        "encoding": "inplace",
        "label": "uint256",
        "numberOfBytes": "32"
      }
    }
  }
}