{
  "address": "0x67165052d842662EFD917874c1878512d6B0b4Fe",
  "abi": [
    {
      "inputs": [
        {
          "internalType": "string",
          "name": "_name",
          "type": "string"
        },
        {
          "internalType": "address",
          "name": "_rewardController",
          "type": "address"
        },
        {
          "internalType": "address",
          "name": "_tokenDelegator",
          "type": "address"
        },
        {
          "internalType": "address",
          "name": "_swapPairToken",
          "type": "address"
        },
        {
          "components": [
            {
              "internalType": "address",
              "name": "reward",
              "type": "address"
            },
            {
              "internalType": "address",
              "name": "swapPair",
              "type": "address"
            }
          ],
          "internalType": "struct AaveV3StrategyV1.RewardSwapPairs[]",
          "name": "_rewardSwapPairs",
          "type": "tuple[]"
        },
        {
          "internalType": "address",
          "name": "_avToken",
          "type": "address"
        },
        {
          "internalType": "address",
          "name": "_avDebtToken",
          "type": "address"
        },
        {
          "internalType": "address",
          "name": "_timelock",
          "type": "address"
        },
        {
          "components": [
            {
              "internalType": "uint256",
              "name": "leverageLevel",
              "type": "uint256"
            },
            {
              "internalType": "uint256",
              "name": "safetyFactor",
              "type": "uint256"
            },
            {
              "internalType": "uint256",
              "name": "leverageBips",
              "type": "uint256"
            },
            {
              "internalType": "uint256",
              "name": "minMinting",
              "type": "uint256"
            }
          ],
          "internalType": "struct AaveV3StrategyV1.LeverageSettings",
          "name": "_leverageSettings",
          "type": "tuple"
        },
        {
          "components": [
            {
              "internalType": "address",
              "name": "depositToken",
              "type": "address"
            },
            {
              "internalType": "address",
              "name": "rewardToken",
              "type": "address"
            },
            {
              "internalType": "uint256",
              "name": "minTokensToReinvest",
              "type": "uint256"
            },
            {
              "internalType": "uint256",
              "name": "devFeeBips",
              "type": "uint256"
            },
            {
              "internalType": "uint256",
              "name": "reinvestRewardBips",
              "type": "uint256"
            }
          ],
          "internalType": "struct YakStrategyV2.StrategySettings",
          "name": "_strategySettings",
          "type": "tuple"
        }
      ],
      "stateMutability": "nonpayable",
      "type": "constructor"
    },
    {
      "anonymous": false,
      "inputs": [
        {
          "indexed": false,
          "internalType": "address",
          "name": "rewardToken",
          "type": "address"
        },
        {
          "indexed": false,
          "internalType": "address",
          "name": "swapPair",
          "type": "address"
        }
      ],
      "name": "AddReward",
      "type": "event"
    },
    {
      "anonymous": false,
      "inputs": [
        {
          "indexed": true,
          "internalType": "address",
          "name": "account",
          "type": "address"
        }
      ],
      "name": "AllowDepositor",
      "type": "event"
    },
    {
      "anonymous": false,
      "inputs": [
        {
          "indexed": true,
          "internalType": "address",
          "name": "owner",
          "type": "address"
        },
        {
          "indexed": true,
          "internalType": "address",
          "name": "spender",
          "type": "address"
        },
        {
          "indexed": false,
          "internalType": "uint256",
          "name": "value",
          "type": "uint256"
        }
      ],
      "name": "Approval",
      "type": "event"
    },
    {
      "anonymous": false,
      "inputs": [
        {
          "indexed": true,
          "internalType": "address",
          "name": "account",
          "type": "address"
        },
        {
          "indexed": false,
          "internalType": "uint256",
          "name": "amount",
          "type": "uint256"
        }
      ],
      "name": "Deposit",
      "type": "event"
    },
    {
      "anonymous": false,
      "inputs": [
        {
          "indexed": false,
          "internalType": "bool",
          "name": "newValue",
          "type": "bool"
        }
      ],
      "name": "DepositsEnabled",
      "type": "event"
    },
    {
      "anonymous": false,
      "inputs": [
        {
          "indexed": true,
          "internalType": "address",
          "name": "previousOwner",
          "type": "address"
        },
        {
          "indexed": true,
          "internalType": "address",
          "name": "newOwner",
          "type": "address"
        }
      ],
      "name": "OwnershipTransferred",
      "type": "event"
    },
    {
      "anonymous": false,
      "inputs": [
        {
          "indexed": false,
          "internalType": "address",
          "name": "token",
          "type": "address"
        },
        {
          "indexed": false,
          "internalType": "uint256",
          "name": "amount",
          "type": "uint256"
        }
      ],
      "name": "Recovered",
      "type": "event"
    },
    {
      "anonymous": false,
      "inputs": [
        {
          "indexed": false,
          "internalType": "uint256",
          "name": "newTotalDeposits",
          "type": "uint256"
        },
        {
          "indexed": false,
          "internalType": "uint256",
          "name": "newTotalSupply",
          "type": "uint256"
        }
      ],
      "name": "Reinvest",
      "type": "event"
    },
    {
      "anonymous": false,
      "inputs": [
        {
          "indexed": true,
          "internalType": "address",
          "name": "account",
          "type": "address"
        }
      ],
      "name": "RemoveDepositor",
      "type": "event"
    },
    {
      "anonymous": false,
      "inputs": [
        {
          "indexed": false,
          "internalType": "address",
          "name": "rewardToken",
          "type": "address"
        }
      ],
      "name": "RemoveReward",
      "type": "event"
    },
    {
      "anonymous": false,
      "inputs": [
        {
          "indexed": true,
          "internalType": "address",
          "name": "from",
          "type": "address"
        },
        {
          "indexed": true,
          "internalType": "address",
          "name": "to",
          "type": "address"
        },
        {
          "indexed": false,
          "internalType": "uint256",
          "name": "value",
          "type": "uint256"
        }
      ],
      "name": "Transfer",
      "type": "event"
    },
    {
      "anonymous": false,
      "inputs": [
        {
          "indexed": false,
          "internalType": "uint256",
          "name": "oldValue",
          "type": "uint256"
        },
        {
          "indexed": false,
          "internalType": "uint256",
          "name": "newValue",
          "type": "uint256"
        }
      ],
      "name": "UpdateAdminFee",
      "type": "event"
    },
    {
      "anonymous": false,
      "inputs": [
        {
          "indexed": false,
          "internalType": "address",
          "name": "oldValue",
          "type": "address"
        },
        {
          "indexed": false,
          "internalType": "address",
          "name": "newValue",
          "type": "address"
        }
      ],
      "name": "UpdateDevAddr",
      "type": "event"
    },
    {
      "anonymous": false,
      "inputs": [
        {
          "indexed": false,
          "internalType": "uint256",
          "name": "oldValue",
          "type": "uint256"
        },
        {
          "indexed": false,
          "internalType": "uint256",
          "name": "newValue",
          "type": "uint256"
        }
      ],
      "name": "UpdateDevFee",
      "type": "event"
    },
    {
      "anonymous": false,
      "inputs": [
        {
          "indexed": false,
          "internalType": "uint256",
          "name": "oldValue",
          "type": "uint256"
        },
        {
          "indexed": false,
          "internalType": "uint256",
          "name": "newValue",
          "type": "uint256"
        }
      ],
      "name": "UpdateMaxTokensToDepositWithoutReinvest",
      "type": "event"
    },
    {
      "anonymous": false,
      "inputs": [
        {
          "indexed": false,
          "internalType": "uint256",
          "name": "oldValue",
          "type": "uint256"
        },
        {
          "indexed": false,
          "internalType": "uint256",
          "name": "newValue",
          "type": "uint256"
        }
      ],
      "name": "UpdateMinTokensToReinvest",
      "type": "event"
    },
    {
      "anonymous": false,
      "inputs": [
        {
          "indexed": false,
          "internalType": "uint256",
          "name": "oldValue",
          "type": "uint256"
        },
        {
          "indexed": false,
          "internalType": "uint256",
          "name": "newValue",
          "type": "uint256"
        }
      ],
      "name": "UpdateReinvestReward",
      "type": "event"
    },
    {
      "anonymous": false,
      "inputs": [
        {
          "indexed": true,
          "internalType": "address",
          "name": "account",
          "type": "address"
        },
        {
          "indexed": false,
          "internalType": "uint256",
          "name": "amount",
          "type": "uint256"
        }
      ],
      "name": "Withdraw",
      "type": "event"
    },
    {
      "inputs": [],
      "name": "ADMIN_FEE_BIPS",
      "outputs": [
        {
          "internalType": "uint256",
          "name": "",
          "type": "uint256"
        }
      ],
      "stateMutability": "view",
      "type": "function"
    },
    {
      "inputs": [],
      "name": "DEPOSITS_ENABLED",
      "outputs": [
        {
          "internalType": "bool",
          "name": "",
          "type": "bool"
        }
      ],
      "stateMutability": "view",
      "type": "function"
    },
    {
      "inputs": [],
      "name": "DEV_FEE_BIPS",
      "outputs": [
        {
          "internalType": "uint256",
          "name": "",
          "type": "uint256"
        }
      ],
      "stateMutability": "view",
      "type": "function"
    },
    {
      "inputs": [],
      "name": "DOMAIN_TYPEHASH",
      "outputs": [
        {
          "internalType": "bytes32",
          "name": "",
          "type": "bytes32"
        }
      ],
      "stateMutability": "view",
      "type": "function"
    },
    {
      "inputs": [],
      "name": "MAX_TOKENS_TO_DEPOSIT_WITHOUT_REINVEST",
      "outputs": [
        {
          "internalType": "uint256",
          "name": "",
          "type": "uint256"
        }
      ],
      "stateMutability": "view",
      "type": "function"
    },
    {
      "inputs": [],
      "name": "MIN_TOKENS_TO_REINVEST",
      "outputs": [
        {
          "internalType": "uint256",
          "name": "",
          "type": "uint256"
        }
      ],
      "stateMutability": "view",
      "type": "function"
    },
    {
      "inputs": [],
      "name": "PERMIT_TYPEHASH",
      "outputs": [
        {
          "internalType": "bytes32",
          "name": "",
          "type": "bytes32"
        }
      ],
      "stateMutability": "view",
      "type": "function"
    },
    {
      "inputs": [],
      "name": "REINVEST_REWARD_BIPS",
      "outputs": [
        {
          "internalType": "uint256",
          "name": "",
          "type": "uint256"
        }
      ],
      "stateMutability": "view",
      "type": "function"
    },
    {
      "inputs": [],
      "name": "VERSION_HASH",
      "outputs": [
        {
          "internalType": "bytes32",
          "name": "",
          "type": "bytes32"
        }
      ],
      "stateMutability": "view",
      "type": "function"
    },
    {
      "inputs": [
        {
          "internalType": "address",
          "name": "_rewardToken",
          "type": "address"
        },
        {
          "internalType": "address",
          "name": "_swapPair",
          "type": "address"
        }
      ],
      "name": "addReward",
      "outputs": [],
      "stateMutability": "nonpayable",
      "type": "function"
    },
    {
      "inputs": [
        {
          "internalType": "address",
          "name": "depositor",
          "type": "address"
        }
      ],
      "name": "allowDepositor",
      "outputs": [],
      "stateMutability": "nonpayable",
      "type": "function"
    },
    {
      "inputs": [
        {
          "internalType": "address",
          "name": "account",
          "type": "address"
        },
        {
          "internalType": "address",
          "name": "spender",
          "type": "address"
        }
      ],
      "name": "allowance",
      "outputs": [
        {
          "internalType": "uint256",
          "name": "",
          "type": "uint256"
        }
      ],
      "stateMutability": "view",
      "type": "function"
    },
    {
      "inputs": [
        {
          "internalType": "address",
          "name": "",
          "type": "address"
        }
      ],
      "name": "allowedDepositors",
      "outputs": [
        {
          "internalType": "bool",
          "name": "",
          "type": "bool"
        }
      ],
      "stateMutability": "view",
      "type": "function"
    },
    {
      "inputs": [
        {
          "internalType": "address",
          "name": "spender",
          "type": "address"
        },
        {
          "internalType": "uint256",
          "name": "amount",
          "type": "uint256"
        }
      ],
      "name": "approve",
      "outputs": [
        {
          "internalType": "bool",
          "name": "",
          "type": "bool"
        }
      ],
      "stateMutability": "nonpayable",
      "type": "function"
    },
    {
      "inputs": [
        {
          "internalType": "address",
          "name": "account",
          "type": "address"
        }
      ],
      "name": "balanceOf",
      "outputs": [
        {
          "internalType": "uint256",
          "name": "",
          "type": "uint256"
        }
      ],
      "stateMutability": "view",
      "type": "function"
    },
    {
      "inputs": [],
      "name": "checkReward",
      "outputs": [
        {
          "internalType": "uint256",
          "name": "",
          "type": "uint256"
        }
      ],
      "stateMutability": "view",
      "type": "function"
    },
    {
      "inputs": [],
      "name": "decimals",
      "outputs": [
        {
          "internalType": "uint8",
          "name": "",
          "type": "uint8"
        }
      ],
      "stateMutability": "view",
      "type": "function"
    },
    {
      "inputs": [
        {
          "internalType": "uint256",
          "name": "amount",
          "type": "uint256"
        }
      ],
      "name": "deposit",
      "outputs": [],
      "stateMutability": "nonpayable",
      "type": "function"
    },
    {
      "inputs": [
        {
          "internalType": "address",
          "name": "account",
          "type": "address"
        },
        {
          "internalType": "uint256",
          "name": "amount",
          "type": "uint256"
        }
      ],
      "name": "depositFor",
      "outputs": [],
      "stateMutability": "nonpayable",
      "type": "function"
    },
    {
      "inputs": [],
      "name": "depositToken",
      "outputs": [
        {
          "internalType": "contract IERC20",
          "name": "",
          "type": "address"
        }
      ],
      "stateMutability": "view",
      "type": "function"
    },
    {
      "inputs": [
        {
          "internalType": "uint256",
          "name": "amount",
          "type": "uint256"
        },
        {
          "internalType": "uint256",
          "name": "deadline",
          "type": "uint256"
        },
        {
          "internalType": "uint8",
          "name": "v",
          "type": "uint8"
        },
        {
          "internalType": "bytes32",
          "name": "r",
          "type": "bytes32"
        },
        {
          "internalType": "bytes32",
          "name": "s",
          "type": "bytes32"
        }
      ],
      "name": "depositWithPermit",
      "outputs": [],
      "stateMutability": "nonpayable",
      "type": "function"
    },
    {
      "inputs": [],
      "name": "devAddr",
      "outputs": [
        {
          "internalType": "address",
          "name": "",
          "type": "address"
        }
      ],
      "stateMutability": "view",
      "type": "function"
    },
    {
      "inputs": [],
      "name": "estimateDeployedBalance",
      "outputs": [
        {
          "internalType": "uint256",
          "name": "",
          "type": "uint256"
        }
      ],
      "stateMutability": "view",
      "type": "function"
    },
    {
      "inputs": [],
      "name": "estimateReinvestReward",
      "outputs": [
        {
          "internalType": "uint256",
          "name": "",
          "type": "uint256"
        }
      ],
      "stateMutability": "view",
      "type": "function"
    },
    {
      "inputs": [],
      "name": "getActualLeverage",
      "outputs": [
        {
          "internalType": "uint256",
          "name": "",
          "type": "uint256"
        }
      ],
      "stateMutability": "view",
      "type": "function"
    },
    {
      "inputs": [
        {
          "internalType": "uint256",
          "name": "amount",
          "type": "uint256"
        }
      ],
      "name": "getDepositTokensForShares",
      "outputs": [
        {
          "internalType": "uint256",
          "name": "",
          "type": "uint256"
        }
      ],
      "stateMutability": "view",
      "type": "function"
    },
    {
      "inputs": [],
      "name": "getDomainSeparator",
      "outputs": [
        {
          "internalType": "bytes32",
          "name": "",
          "type": "bytes32"
        }
      ],
      "stateMutability": "view",
      "type": "function"
    },
    {
      "inputs": [
        {
          "internalType": "uint256",
          "name": "amount",
          "type": "uint256"
        }
      ],
      "name": "getSharesForDepositTokens",
      "outputs": [
        {
          "internalType": "uint256",
          "name": "",
          "type": "uint256"
        }
      ],
      "stateMutability": "view",
      "type": "function"
    },
    {
      "inputs": [],
      "name": "leverageBips",
      "outputs": [
        {
          "internalType": "uint256",
          "name": "",
          "type": "uint256"
        }
      ],
      "stateMutability": "view",
      "type": "function"
    },
    {
      "inputs": [],
      "name": "leverageLevel",
      "outputs": [
        {
          "internalType": "uint256",
          "name": "",
          "type": "uint256"
        }
      ],
      "stateMutability": "view",
      "type": "function"
    },
    {
      "inputs": [],
      "name": "minMinting",
      "outputs": [
        {
          "internalType": "uint256",
          "name": "",
          "type": "uint256"
        }
      ],
      "stateMutability": "view",
      "type": "function"
    },
    {
      "inputs": [],
      "name": "name",
      "outputs": [
        {
          "internalType": "string",
          "name": "",
          "type": "string"
        }
      ],
      "stateMutability": "view",
      "type": "function"
    },
    {
      "inputs": [
        {
          "internalType": "address",
          "name": "",
          "type": "address"
        }
      ],
      "name": "nonces",
      "outputs": [
        {
          "internalType": "uint256",
          "name": "",
          "type": "uint256"
        }
      ],
      "stateMutability": "view",
      "type": "function"
    },
    {
      "inputs": [],
      "name": "numberOfAllowedDepositors",
      "outputs": [
        {
          "internalType": "uint256",
          "name": "",
          "type": "uint256"
        }
      ],
      "stateMutability": "view",
      "type": "function"
    },
    {
      "inputs": [],
      "name": "owner",
      "outputs": [
        {
          "internalType": "address",
          "name": "",
          "type": "address"
        }
      ],
      "stateMutability": "view",
      "type": "function"
    },
    {
      "inputs": [
        {
          "internalType": "address",
          "name": "owner",
          "type": "address"
        },
        {
          "internalType": "address",
          "name": "spender",
          "type": "address"
        },
        {
          "internalType": "uint256",
          "name": "value",
          "type": "uint256"
        },
        {
          "internalType": "uint256",
          "name": "deadline",
          "type": "uint256"
        },
        {
          "internalType": "uint8",
          "name": "v",
          "type": "uint8"
        },
        {
          "internalType": "bytes32",
          "name": "r",
          "type": "bytes32"
        },
        {
          "internalType": "bytes32",
          "name": "s",
          "type": "bytes32"
        }
      ],
      "name": "permit",
      "outputs": [],
      "stateMutability": "nonpayable",
      "type": "function"
    },
    {
      "inputs": [
        {
          "internalType": "uint256",
          "name": "amount",
          "type": "uint256"
        }
      ],
      "name": "recoverAVAX",
      "outputs": [],
      "stateMutability": "nonpayable",
      "type": "function"
    },
    {
      "inputs": [
        {
          "internalType": "address",
          "name": "tokenAddress",
          "type": "address"
        },
        {
          "internalType": "uint256",
          "name": "tokenAmount",
          "type": "uint256"
        }
      ],
      "name": "recoverERC20",
      "outputs": [],
      "stateMutability": "nonpayable",
      "type": "function"
    },
    {
      "inputs": [],
      "name": "reinvest",
      "outputs": [],
      "stateMutability": "nonpayable",
      "type": "function"
    },
    {
      "inputs": [
        {
          "internalType": "address",
          "name": "depositor",
          "type": "address"
        }
      ],
      "name": "removeDepositor",
      "outputs": [],
      "stateMutability": "nonpayable",
      "type": "function"
    },
    {
      "inputs": [
        {
          "internalType": "address",
          "name": "_rewardToken",
          "type": "address"
        }
      ],
      "name": "removeReward",
      "outputs": [],
      "stateMutability": "nonpayable",
      "type": "function"
    },
    {
      "inputs": [],
      "name": "renounceOwnership",
      "outputs": [],
      "stateMutability": "nonpayable",
      "type": "function"
    },
    {
      "inputs": [
        {
          "internalType": "uint256",
          "name": "minReturnAmountAccepted",
          "type": "uint256"
        },
        {
          "internalType": "bool",
          "name": "",
          "type": "bool"
        }
      ],
      "name": "rescueDeployedFunds",
      "outputs": [],
      "stateMutability": "nonpayable",
      "type": "function"
    },
    {
      "inputs": [
        {
          "internalType": "address",
          "name": "token",
          "type": "address"
        },
        {
          "internalType": "address",
          "name": "spender",
          "type": "address"
        }
      ],
      "name": "revokeAllowance",
      "outputs": [],
      "stateMutability": "nonpayable",
      "type": "function"
    },
    {
      "inputs": [],
      "name": "rewardCount",
      "outputs": [
        {
          "internalType": "uint256",
          "name": "",
          "type": "uint256"
        }
      ],
      "stateMutability": "view",
      "type": "function"
    },
    {
      "inputs": [
        {
          "internalType": "address",
          "name": "",
          "type": "address"
        }
      ],
      "name": "rewardSwapPairs",
      "outputs": [
        {
          "internalType": "address",
          "name": "",
          "type": "address"
        }
      ],
      "stateMutability": "view",
      "type": "function"
    },
    {
      "inputs": [],
      "name": "rewardToken",
      "outputs": [
        {
          "internalType": "contract IERC20",
          "name": "",
          "type": "address"
        }
      ],
      "stateMutability": "view",
      "type": "function"
    },
    {
      "inputs": [],
      "name": "safetyFactor",
      "outputs": [
        {
          "internalType": "uint256",
          "name": "",
          "type": "uint256"
        }
      ],
      "stateMutability": "view",
      "type": "function"
    },
    {
      "inputs": [
        {
          "internalType": "uint256",
          "name": "",
          "type": "uint256"
        }
      ],
      "name": "supportedRewards",
      "outputs": [
        {
          "internalType": "address",
          "name": "",
          "type": "address"
        }
      ],
      "stateMutability": "view",
      "type": "function"
    },
    {
      "inputs": [],
      "name": "symbol",
      "outputs": [
        {
          "internalType": "string",
          "name": "",
          "type": "string"
        }
      ],
      "stateMutability": "view",
      "type": "function"
    },
    {
      "inputs": [],
      "name": "totalDeposits",
      "outputs": [
        {
          "internalType": "uint256",
          "name": "",
          "type": "uint256"
        }
      ],
      "stateMutability": "view",
      "type": "function"
    },
    {
      "inputs": [],
      "name": "totalSupply",
      "outputs": [
        {
          "internalType": "uint256",
          "name": "",
          "type": "uint256"
        }
      ],
      "stateMutability": "view",
      "type": "function"
    },
    {
      "inputs": [
        {
          "internalType": "address",
          "name": "dst",
          "type": "address"
        },
        {
          "internalType": "uint256",
          "name": "amount",
          "type": "uint256"
        }
      ],
      "name": "transfer",
      "outputs": [
        {
          "internalType": "bool",
          "name": "",
          "type": "bool"
        }
      ],
      "stateMutability": "nonpayable",
      "type": "function"
    },
    {
      "inputs": [
        {
          "internalType": "address",
          "name": "src",
          "type": "address"
        },
        {
          "internalType": "address",
          "name": "dst",
          "type": "address"
        },
        {
          "internalType": "uint256",
          "name": "amount",
          "type": "uint256"
        }
      ],
      "name": "transferFrom",
      "outputs": [
        {
          "internalType": "bool",
          "name": "",
          "type": "bool"
        }
      ],
      "stateMutability": "nonpayable",
      "type": "function"
    },
    {
      "inputs": [
        {
          "internalType": "address",
          "name": "newOwner",
          "type": "address"
        }
      ],
      "name": "transferOwnership",
      "outputs": [],
      "stateMutability": "nonpayable",
      "type": "function"
    },
    {
      "inputs": [
        {
          "internalType": "uint256",
          "name": "newValue",
          "type": "uint256"
        }
      ],
      "name": "updateAdminFee",
      "outputs": [],
      "stateMutability": "nonpayable",
      "type": "function"
    },
    {
      "inputs": [
        {
          "internalType": "bool",
          "name": "newValue",
          "type": "bool"
        }
      ],
      "name": "updateDepositsEnabled",
      "outputs": [],
      "stateMutability": "nonpayable",
      "type": "function"
    },
    {
      "inputs": [
        {
          "internalType": "address",
          "name": "newValue",
          "type": "address"
        }
      ],
      "name": "updateDevAddr",
      "outputs": [],
      "stateMutability": "nonpayable",
      "type": "function"
    },
    {
      "inputs": [
        {
          "internalType": "uint256",
          "name": "newValue",
          "type": "uint256"
        }
      ],
      "name": "updateDevFee",
      "outputs": [],
      "stateMutability": "nonpayable",
      "type": "function"
    },
    {
      "inputs": [
        {
          "internalType": "uint256",
          "name": "_leverageLevel",
          "type": "uint256"
        },
        {
          "internalType": "uint256",
          "name": "_safetyFactor",
          "type": "uint256"
        },
        {
          "internalType": "uint256",
          "name": "_minMinting",
          "type": "uint256"
        },
        {
          "internalType": "uint256",
          "name": "_leverageBips",
          "type": "uint256"
        }
      ],
      "name": "updateLeverage",
      "outputs": [],
      "stateMutability": "nonpayable",
      "type": "function"
    },
    {
      "inputs": [
        {
          "internalType": "uint256",
          "name": "newValue",
          "type": "uint256"
        }
      ],
      "name": "updateMaxTokensToDepositWithoutReinvest",
      "outputs": [],
      "stateMutability": "nonpayable",
      "type": "function"
    },
    {
      "inputs": [
        {
          "internalType": "uint256",
          "name": "newValue",
          "type": "uint256"
        }
      ],
      "name": "updateMinTokensToReinvest",
      "outputs": [],
      "stateMutability": "nonpayable",
      "type": "function"
    },
    {
      "inputs": [
        {
          "internalType": "uint256",
          "name": "newValue",
          "type": "uint256"
        }
      ],
      "name": "updateReinvestReward",
      "outputs": [],
      "stateMutability": "nonpayable",
      "type": "function"
    },
    {
      "inputs": [
        {
          "internalType": "uint256",
          "name": "amount",
          "type": "uint256"
        }
      ],
      "name": "withdraw",
      "outputs": [],
      "stateMutability": "nonpayable",
      "type": "function"
    }
  ],
  "transactionHash": "0x39f128aea32b44bd4de389662f3ef37fde1f50940bb88fee9518a7a7efe4776d",
  "args": [
    "Yield Yak: Aave BTC.b",
    "0x929EC64c34a17401F460460D4B9390518E5B473e",
    "0x794a61358D6845594F94dc1DB02A252b5b4814aD",
    "0x2fd81391e30805cc7f2ec827013ce86dc591b806",
    [
      {
        "reward": "0xb31f66aa3c1e785363f0875a1b74e27b85fd66c7",
        "swapPair": "0x0000000000000000000000000000000000000000"
      }
    ],
    "0x8ffDf2DE812095b1D19CB146E4c004587C0A0692",
    "0xA8669021776Bc142DfcA87c21b4A52595bCbB40a",
    "0xDcEDF06Fd33E1D7b6eb4b309f779a0e9D3172e44",
    {
      "leverageLevel": "10000",
      "safetyFactor": "0",
      "leverageBips": "10000",
      "minMinting": "10000"
    },
    {
      "depositToken": "0x152b9d0FdC40C096757F570A51E494bd4b943E50",
      "rewardToken": "0xB31f66AA3C1e785363F0875A1B74E27b85FD66c7",
      "minTokensToReinvest": "100000000000000",
      "devFeeBips": "600",
      "reinvestRewardBips": "300"
    }
  ],
  "solcInputHash": "b19b0c29fa4a9c27443fa0699bac9f08",
  "bytecode": "0x610100604052600960c0819052685969656c642059616b60b81b60e09081526200002d916000919062000bea565b506040805180820190915260038082526216549560ea1b60209092019182526200005a9160019162000bea565b503480156200006857600080fd5b5060405162005cff38038062005cff8339810160408190526200008b9162000f63565b600680546001600160a01b03191633908117909155604051829190819060009060008051602062005cdf833981519152908290a35080516001600160a01b0390811660805260208201511660a0526040810151620000e99062000276565b6060810151620000f99062000306565b60808101516200010990620003b1565b5089516200011f9060009060208d019062000bea565b50601780546001600160a01b038b81166001600160a01b031992831617909255601880548b841690831617905583516020850151606086015160408701516013939093556015929092556014556016556009805433908316179055601a80548216888416179055601b8054909116918616919091179055620001a1876200045c565b60005b8651811015620002155762000200878281518110620001c757620001c762001066565b602002602001015160000151888381518110620001e857620001e862001066565b6020026020010151602001516200059260201b60201c565b806200020c8162001092565b915050620001a4565b506200022260016200070e565b6200022d83620007b8565b60408051600080825260208201527fc7606d21ac05cd309191543e409f0845c016120563783d70e4f41419dc0ef234910160405180910390a15050505050505050505062001123565b6006546001600160a01b03163314620002c55760405162461bcd60e51b8152602060048201819052602482015260008051602062005cbf83398151915260448201526064015b60405180910390fd5b600a5460408051918252602082018390527f481f79ac3a523b6d6db3c5a720e190e986d1cc1b41adcdf50f9caef849901100910160405180910390a1600a55565b6006546001600160a01b03163314620003515760405162461bcd60e51b8152602060048201819052602482015260008051602062005cbf8339815191526044820152606401620002bc565b612710600e5482620003649190620010ae565b11156200037057600080fd5b600f5460408051918252602082018390527f2a42303d002f0ba6cfe8259c91d4684443fb0b3de286ba74991175d651726131910160405180910390a1600f55565b6006546001600160a01b03163314620003fc5760405162461bcd60e51b8152602060048201819052602482015260008051602062005cbf8339815191526044820152606401620002bc565b612710600f54826200040f9190620010ae565b11156200041b57600080fd5b600e5460408051918252602082018390527fe7f97d51d307dc44045597c9978bec0f842e6bb40d19b9444084cfa30d9ed4f2910160405180910390a1600e55565b6001600160a01b038116620004c45760405162461bcd60e51b815260206004820152602760248201527f537761702070616972206973206e656365737361727920627574206e6f7420736044820152661d5c1c1b1a595960ca1b6064820152608401620002bc565b601980546001600160a01b0319166001600160a01b03831690811790915560805160a051620004f5929190620008b5565b806200051b575060195460a0516080516200051b926001600160a01b03169190620008b5565b6200058f5760405162461bcd60e51b815260206004820152603660248201527f53776170207061697220646f6573206e6f74206d61746368206465706f73697460448201527f546f6b656e20616e6420726577617264546f6b656e2e000000000000000000006064820152608401620002bc565b50565b60a0516001600160a01b0316826001600160a01b0316146200063e57620005c8818360a051620009ba60201b620024861760201c565b6200063e576040805162461bcd60e51b81526020600482015260248101919091527f5661726961626c655265776172647353747261746567793a3a5377617020706160448201527f697220646f6573206e6f7420636f6e7461696e2072657761726420746f6b656e6064820152608401620002bc565b6001600160a01b038083166000818152601060209081526040822080549486166001600160a01b03199586161790556011805460018181018355919093527f31ecc21a745e3968a04e9570e4425bc18fa8019c68028196b546d1669c200c689092018054909416909217909255601254620006c49290916200269b62000bd5821b17901c565b601255604080516001600160a01b038085168252831660208201527f916e172c080569186aa7ea048268267257cf7cc49505908863f747bca8620f80910160405180910390a15050565b6006546001600160a01b03163314620007595760405162461bcd60e51b8152602060048201819052602482015260008051602062005cbf8339815191526044820152606401620002bc565b600c5481151560ff9091161515036200077157600080fd5b600c805460ff19168215159081179091556040519081527f7b014ed3854e7f5cb0218d58b3c6ae7d53a68bb0af2f67bfb029ea42c38a7e859060200160405180910390a150565b6006546001600160a01b03163314620008035760405162461bcd60e51b8152602060048201819052602482015260008051602062005cbf8339815191526044820152606401620002bc565b6001600160a01b0381166200086a5760405162461bcd60e51b815260206004820152602660248201527f4f776e61626c653a206e6577206f776e657220697320746865207a65726f206160448201526564647265737360d01b6064820152608401620002bc565b6006546040516001600160a01b0380841692169060008051602062005cdf83398151915290600090a3600680546001600160a01b0319166001600160a01b0392909216919091179055565b6000826001600160a01b0316846001600160a01b0316630dfe16816040518163ffffffff1660e01b8152600401602060405180830381865afa15801562000900573d6000803e3d6000fd5b505050506040513d601f19601f82011682018060405250810190620009269190620010c9565b6001600160a01b0316148015620009b25750816001600160a01b0316846001600160a01b031663d21220a76040518163ffffffff1660e01b8152600401602060405180830381865afa15801562000981573d6000803e3d6000fd5b505050506040513d601f19601f82011682018060405250810190620009a79190620010c9565b6001600160a01b0316145b949350505050565b6000836001600160a01b0316630dfe16816040518163ffffffff1660e01b8152600401602060405180830381865afa158015620009fb573d6000803e3d6000fd5b505050506040513d601f19601f8201168201806040525081019062000a219190620010c9565b6001600160a01b0316836001600160a01b0316148062000ab65750836001600160a01b031663d21220a76040518163ffffffff1660e01b8152600401602060405180830381865afa15801562000a7b573d6000803e3d6000fd5b505050506040513d601f19601f8201168201806040525081019062000aa19190620010c9565b6001600160a01b0316836001600160a01b0316145b801562000bb85750836001600160a01b0316630dfe16816040518163ffffffff1660e01b8152600401602060405180830381865afa15801562000afd573d6000803e3d6000fd5b505050506040513d601f19601f8201168201806040525081019062000b239190620010c9565b6001600160a01b0316826001600160a01b0316148062000bb85750836001600160a01b031663d21220a76040518163ffffffff1660e01b8152600401602060405180830381865afa15801562000b7d573d6000803e3d6000fd5b505050506040513d601f19601f8201168201806040525081019062000ba39190620010c9565b6001600160a01b0316826001600160a01b0316145b8015620009b25750506001600160a01b0391821691161415919050565b600062000be38284620010ae565b9392505050565b82805462000bf890620010e7565b90600052602060002090601f01602090048101928262000c1c576000855562000c67565b82601f1062000c3757805160ff191683800117855562000c67565b8280016001018555821562000c67579182015b8281111562000c6757825182559160200191906001019062000c4a565b5062000c7592915062000c79565b5090565b5b8082111562000c75576000815560010162000c7a565b634e487b7160e01b600052604160045260246000fd5b604080519081016001600160401b038111828210171562000ccb5762000ccb62000c90565b60405290565b604051601f8201601f191681016001600160401b038111828210171562000cfc5762000cfc62000c90565b604052919050565b600082601f83011262000d1657600080fd5b81516001600160401b0381111562000d325762000d3262000c90565b602062000d48601f8301601f1916820162000cd1565b828152858284870101111562000d5d57600080fd5b60005b8381101562000d7d57858101830151828201840152820162000d60565b8381111562000d8f5760008385840101525b5095945050505050565b80516001600160a01b038116811462000db157600080fd5b919050565b600082601f83011262000dc857600080fd5b815160206001600160401b0382111562000de65762000de662000c90565b62000df6818360051b0162000cd1565b82815260069290921b8401810191818101908684111562000e1657600080fd5b8286015b8481101562000e6c576040818903121562000e355760008081fd5b62000e3f62000ca6565b62000e4a8262000d99565b815262000e5985830162000d99565b8186015283529183019160400162000e1a565b509695505050505050565b60006080828403121562000e8a57600080fd5b604051608081016001600160401b038111828210171562000eaf5762000eaf62000c90565b8060405250809150825181526020830151602082015260408301516040820152606083015160608201525092915050565b600060a0828403121562000ef357600080fd5b60405160a081016001600160401b038111828210171562000f185762000f1862000c90565b60405290508062000f298362000d99565b815262000f396020840162000d99565b60208201526040830151604082015260608301516060820152608083015160808201525092915050565b6000806000806000806000806000806102208b8d03121562000f8457600080fd5b8a516001600160401b038082111562000f9c57600080fd5b62000faa8e838f0162000d04565b9b5062000fba60208e0162000d99565b9a5062000fca60408e0162000d99565b995062000fda60608e0162000d99565b985060808d015191508082111562000ff157600080fd5b50620010008d828e0162000db6565b9650506200101160a08c0162000d99565b94506200102160c08c0162000d99565b93506200103160e08c0162000d99565b9250620010438c6101008d0162000e77565b9150620010558c6101808d0162000ee0565b90509295989b9194979a5092959850565b634e487b7160e01b600052603260045260246000fd5b634e487b7160e01b600052601160045260246000fd5b600060018201620010a757620010a76200107c565b5060010190565b60008219821115620010c457620010c46200107c565b500190565b600060208284031215620010dc57600080fd5b62000be38262000d99565b600181811c90821680620010fc57607f821691505b6020821081036200111d57634e487b7160e01b600052602260045260246000fd5b50919050565b60805160a051614ae3620011dc600039600081816108a10152818161333e0152818161337c0152818161382901528181613882015281816138c00152613e6b01526000818161078701528181610b8a01528181610ca901528181611925015281816119d201528181611a6f015281816129ad01528181612a9c01528181612b6d01528181612c0501528181612cbd01528181612f28015281816131f3015281816138e201528181613a8c0152613b160152614ae36000f3fe608060405234801561001057600080fd5b50600436106103d05760003560e01c80638b73e606116101ff578063c89039c51161011a578063e592c5fa116100ad578063f02ecb711161007c578063f02ecb7114610880578063f2fde38b14610889578063f7c618c11461089c578063fdb5a03e146108c357600080fd5b8063e592c5fa14610849578063e75ab04514610852578063eab89a5a14610865578063ed24911d1461087857600080fd5b8063db8dd95c116100e9578063db8dd95c146107e2578063dd62ed3e146107ea578063dd8ce4d614610823578063e21ac8251461083657600080fd5b8063c89039c514610782578063cff1b6ef146107a9578063d505accf146107bc578063da09c72c146107cf57600080fd5b8063a8ae2b7c11610192578063b6b55f2511610161578063b6b55f2514610756578063b9e57b8014610769578063bd079f5514610771578063c4b24a461461077a57600080fd5b8063a8ae2b7c14610710578063a9059cbb14610723578063ac0d31ff14610736578063b52a321f1461074957600080fd5b806399729ec1116101ce57806399729ec11461069a5780639e4e7318146106ad578063a4d5e67c146106d4578063a5534e71146106e757600080fd5b80638b73e606146106475780638da5cb5b1461065a5780639291d5631461067f57806395d89b411461069257600080fd5b80634a970be7116102ef578063789139bc116102825780637ecebe00116102515780637ecebe00146105f857806381837230146106185780638980f11f1461062b5780638aff733d1461063e57600080fd5b8063789139bc146105cb57806379085425146105d45780637ae26773146105dd5780637d882097146105f057600080fd5b80635ea682ea116102be5780635ea682ea1461058857806362ac20a51461059157806370a082311461059a578063715018a6146105c357600080fd5b80634a970be71461053c5780634bebd1e71461054f5780634e77ace5146105625780634ebb79161461057557600080fd5b806323b872dd11610367578063313ce56711610336578063313ce567146104e35780633bdc6e72146104fd57806340b47e1a14610506578063483c2ef01461051957600080fd5b806323b872dd146104835780632e1a7d4d146104965780632f4f21e2146104a957806330adf81f146104bc57600080fd5b806318160ddd116103a357806318160ddd146104355780631f15d71a1461043e57806320606b701461044757806322a051411461046e57600080fd5b806306fdde03146103d557806307677111146103f3578063095ea7b31461040a5780630f23475d1461042d575b600080fd5b6103dd6108cb565b6040516103ea919061438f565b60405180910390f35b6103fc600d5481565b6040519081526020016103ea565b61041d6104183660046143b7565b610959565b60405190151581526020016103ea565b6103fc61096f565b6103fc60025481565b6103fc60155481565b6103fc7f8b73c3c69bb8fe3d512ecc4cf759cc79239f7b179b0ffacaa9a75d522b39400f81565b61048161047c3660046143e3565b61097e565b005b61041d610491366004614415565b610a1b565b6104816104a4366004614456565b610ae4565b6104816104b73660046143b7565b610beb565b6103fc7f6e71edae12b1b97f4d1f60370fef10105fa2faae0126114a169c64845d6126c981565b6104eb601281565b60405160ff90911681526020016103ea565b6103fc60075481565b61048161051436600461446f565b610bf5565b61041d6105273660046144a8565b60086020526000908152604090205460ff1681565b61048161054a3660046144db565b610c50565b61048161055d3660046144a8565b610d1e565b610481610570366004614530565b610e3b565b610481610583366004614456565b610ee2565b6103fc600f5481565b6103fc60165481565b6103fc6105a83660046144a8565b6001600160a01b031660009081526004602052604090205490565b610481610f9c565b6103fc600b5481565b6103fc60125481565b6104816105eb36600461446f565b61102e565b6103fc6110f2565b6103fc6106063660046144a8565b60056020526000908152604090205481565b610481610626366004614456565b611116565b6104816106393660046143b7565b61119f565b6103fc600e5481565b6104816106553660046144a8565b6112b5565b6006546001600160a01b03165b6040516001600160a01b0390911681526020016103ea565b61048161068d3660046144a8565b611471565b6103dd61152b565b6104816106a8366004614456565b611538565b6103fc7fc89efdaa54c0f20c7adf612882df0950f5a951637e0307cdcb4c672f298b8bc681565b6104816106e23660046144a8565b6115dd565b6106676106f53660046144a8565b6010602052600090815260409020546001600160a01b031681565b61048161071e366004614456565b611813565b61041d6107313660046143b7565b6118b8565b61048161074436600461454d565b6118c5565b600c5461041d9060ff1681565b610481610764366004614456565b611bc0565b6103fc611bcd565b6103fc600a5481565b6103fc611c0c565b6106677f000000000000000000000000000000000000000000000000000000000000000081565b6104816107b7366004614456565b611f57565b6104816107ca366004614572565b611feb565b600954610667906001600160a01b031681565b6103fc6120fe565b6103fc6107f836600461446f565b6001600160a01b03918216600090815260036020908152604080832093909416825291909152205490565b6103fc610831366004614456565b612136565b610481610844366004614456565b61217d565b6103fc60135481565b610667610860366004614456565b612206565b6103fc610873366004614456565b612230565b6103fc61226b565b6103fc60145481565b6104816108973660046144a8565b61230b565b6106677f000000000000000000000000000000000000000000000000000000000000000081565b61048161242b565b600080546108d8906145e0565b80601f0160208091040260200160405190810160405280929190818152602001828054610904906145e0565b80156109515780601f1061092657610100808354040283529160200191610951565b820191906000526020600020905b81548152906001019060200180831161093457829003601f168201915b505050505081565b60006109663384846126a7565b50600192915050565b60006109796110f2565b905090565b6009546001600160a01b031633146109d45760405162461bcd60e51b81526020600482015260146024820152732cb0b5a9ba3930ba32b3bc9d1d37b7363ca232bb60611b60448201526064015b60405180910390fd5b60138490556015819055601483905560168290556000806109f36127b5565b509092509050610a0b610a068383612900565b61290c565b610a13612a31565b505050505050565b6001600160a01b038316600081815260036020908152604080832033808552925282205491929091908214801590610a5557506000198114155b15610acb576000610a668583614630565b6001600160a01b038881166000818152600360209081526040808320948916808452948252918290208590559051848152939450919290917f8c5be1e5ebec7d5bd14f71427d1e84f3dd0314c0f7b2291e5b200ac8c7c3b925910160405180910390a3505b610ad6868686612d2c565b6001925050505b9392505050565b6000610aef82612230565b90506016548111610b685760405162461bcd60e51b815260206004820152602860248201527f416176655633537472617465677956313a3a62656c6f77206d696e696d756d2060448201527f776974686472617700000000000000000000000000000000000000000000000060648201526084016109cb565b8015610be757610b783383612e50565b6000610b8382612ee4565b9050610bb07f00000000000000000000000000000000000000000000000000000000000000003383612fbb565b60405181815233907f884edad9ce6fa2440d8a54cc123490eb96d2768479d49ff9c7366125a94243649060200160405180910390a2505b5050565b610be782826130a5565b6009546001600160a01b03163314610c465760405162461bcd60e51b81526020600482015260146024820152732cb0b5a9ba3930ba32b3bc9d1d37b7363ca232bb60611b60448201526064016109cb565b610be7828261333c565b6040517fd505accf000000000000000000000000000000000000000000000000000000008152336004820152306024820152604481018690526064810185905260ff8416608482015260a4810183905260c481018290527f00000000000000000000000000000000000000000000000000000000000000006001600160a01b03169063d505accf9060e401600060405180830381600087803b158015610cf557600080fd5b505af1158015610d09573d6000803e3d6000fd5b50505050610d1733866130a5565b5050505050565b6006546001600160a01b03163314610d665760405162461bcd60e51b81526020600482018190526024820152600080516020614a8e83398151915260448201526064016109cb565b6001600160a01b03811660009081526008602052604090205460ff1615610dcf5760405162461bcd60e51b815260206004820152601c60248201527f5065726d697373696f6e65643a3a616c6c6f774465706f7369746f720000000060448201526064016109cb565b6001600160a01b0381166000908152600860205260409020805460ff19166001908117909155600754610e0191614647565b6007556040516001600160a01b038216907fc0a1035c16faf8d1304056d92c00edf028f87e62b8235a938f00af9e3c0312c590600090a250565b6006546001600160a01b03163314610e835760405162461bcd60e51b81526020600482018190526024820152600080516020614a8e83398151915260448201526064016109cb565b600c5481151560ff909116151503610e9a57600080fd5b600c805460ff19168215159081179091556040519081527f7b014ed3854e7f5cb0218d58b3c6ae7d53a68bb0af2f67bfb029ea42c38a7e85906020015b60405180910390a150565b6006546001600160a01b03163314610f2a5760405162461bcd60e51b81526020600482018190526024820152600080516020614a8e83398151915260448201526064016109cb565b60008111610f3757600080fd5b604051339082156108fc029083906000818181858888f19350505050158015610f64573d6000803e3d6000fd5b506040805160008152602081018390527f8c1256b8896378cd5044f80c202f9772b9d77dc85c8a6eb51967210b09bfaa289101610ed7565b6006546001600160a01b03163314610fe45760405162461bcd60e51b81526020600482018190526024820152600080516020614a8e83398151915260448201526064016109cb565b6006546040516000916001600160a01b0316907f8be0079c531659141344cd1fd0a4f28419497f9722a3daafe3b4186f6b6457e0908390a3600680546001600160a01b0319169055565b6006546001600160a01b031633146110765760405162461bcd60e51b81526020600482018190526024820152600080516020614a8e83398151915260448201526064016109cb565b60405163095ea7b360e01b81526001600160a01b0382811660048301526000602483015283169063095ea7b3906044016020604051808303816000875af11580156110c5573d6000803e3d6000fd5b505050506040513d601f19601f820116820180604052508101906110e9919061465f565b610be757600080fd5b60008060006110ff6127b5565b50909250905061110f8282612900565b9250505090565b6006546001600160a01b0316331461115e5760405162461bcd60e51b81526020600482018190526024820152600080516020614a8e83398151915260448201526064016109cb565b600a5460408051918252602082018390527f481f79ac3a523b6d6db3c5a720e190e986d1cc1b41adcdf50f9caef849901100910160405180910390a1600a55565b6006546001600160a01b031633146111e75760405162461bcd60e51b81526020600482018190526024820152600080516020614a8e83398151915260448201526064016109cb565b600081116111f457600080fd5b60405163a9059cbb60e01b8152336004820152602481018290526001600160a01b0383169063a9059cbb906044016020604051808303816000875af1158015611241573d6000803e3d6000fd5b505050506040513d601f19601f82011682018060405250810190611265919061465f565b61126e57600080fd5b604080516001600160a01b0384168152602081018390527f8c1256b8896378cd5044f80c202f9772b9d77dc85c8a6eb51967210b09bfaa2891015b60405180910390a15050565b6006546001600160a01b031633146112fd5760405162461bcd60e51b81526020600482018190526024820152600080516020614a8e83398151915260448201526064016109cb565b6000600754116113755760405162461bcd60e51b815260206004820152603460248201527f5065726d697373696f6e65643a3a72656d6f76654465706f7369746f722c206e60448201527f6f20616c6c6f776564206465706f7369746f727300000000000000000000000060648201526084016109cb565b6001600160a01b03811660009081526008602052604090205460ff1615156001146114085760405162461bcd60e51b815260206004820152602a60248201527f5065726d697373696f6e65643a3a72656d6f76654465706f7369746f722c206e60448201527f6f7420616c6c6f7765640000000000000000000000000000000000000000000060648201526084016109cb565b6001600160a01b0381166000908152600860205260409020805460ff1916905560075461143790600190614630565b6007556040516001600160a01b038216907f0e86f6608b536e5339a25b65ff531f5ea91e1313d056ecd4752b35cbd16137d490600090a250565b6009546001600160a01b031633146114c25760405162461bcd60e51b81526020600482015260146024820152732cb0b5a9ba3930ba32b3bc9d1d37b7363ca232bb60611b60448201526064016109cb565b600954604080516001600160a01b03928316815291831660208301527fa8e91499ed37682f43cffb045fcc7d379a91e8c9a14e6321877ee34dee564c00910160405180910390a1600980546001600160a01b0319166001600160a01b0392909216919091179055565b600180546108d8906145e0565b6006546001600160a01b031633146115805760405162461bcd60e51b81526020600482018190526024820152600080516020614a8e83398151915260448201526064016109cb565b612710600e54826115919190614647565b111561159c57600080fd5b600f5460408051918252602082018390527f2a42303d002f0ba6cfe8259c91d4684443fb0b3de286ba74991175d651726131910160405180910390a1600f55565b6009546001600160a01b0316331461162e5760405162461bcd60e51b81526020600482015260146024820152732cb0b5a9ba3930ba32b3bc9d1d37b7363ca232bb60611b60448201526064016109cb565b6001600160a01b038116600090815260106020526040812080546001600160a01b0319169055805b60115481101561172257601181815481106116735761167361467c565b6000918252602090912001546001600160a01b03908116908416036117105760118054600193506116a5908490614630565b815481106116b5576116b561467c565b600091825260209091200154601180546001600160a01b0390921691839081106116e1576116e161467c565b9060005260206000200160006101000a8154816001600160a01b0302191690836001600160a01b031602179055505b8061171a81614692565b915050611656565b50806117965760405162461bcd60e51b815260206004820152603460248201527f5661726961626c655265776172647353747261746567793a3a5265776172642060448201527f746f2064656c657465206e6f7420666f756e642100000000000000000000000060648201526084016109cb565b60118054806117a7576117a76146ab565b600082815260209020810160001990810180546001600160a01b03191690550190556012546117d7906001612900565b6012556040516001600160a01b03831681527f963b7c735475147a62c589c2d7cb8ec4b0a6b7af4f97373d79ebfa42ab8aa7dc906020016112a9565b6006546001600160a01b0316331461185b5760405162461bcd60e51b81526020600482018190526024820152600080516020614a8e83398151915260448201526064016109cb565b612710600f548261186c9190614647565b111561187757600080fd5b600e5460408051918252602082018390527fe7f97d51d307dc44045597c9978bec0f842e6bb40d19b9444084cfa30d9ed4f2910160405180910390a1600e55565b6000610966338484612d2c565b6006546001600160a01b0316331461190d5760405162461bcd60e51b81526020600482018190526024820152600080516020614a8e83398151915260448201526064016109cb565b6040516370a0823160e01b81523060048201526000907f00000000000000000000000000000000000000000000000000000000000000006001600160a01b0316906370a0823190602401602060405180830381865afa158015611974573d6000803e3d6000fd5b505050506040513d601f19601f8201168201806040525081019061199891906146c1565b90506000806119a56127b5565b5090925090506119b8610a068383612900565b601854604051631a4ca37b60e21b81526001600160a01b037f0000000000000000000000000000000000000000000000000000000000000000811660048301526000196024830152306044830152909116906369328dec906064016020604051808303816000875af1158015611a32573d6000803e3d6000fd5b505050506040513d601f19601f82011682018060405250810190611a5691906146c1565b506040516370a0823160e01b81523060048201526000907f00000000000000000000000000000000000000000000000000000000000000006001600160a01b0316906370a0823190602401602060405180830381865afa158015611abe573d6000803e3d6000fd5b505050506040513d601f19601f82011682018060405250810190611ae291906146c1565b905085611aef8286612900565b1015611b635760405162461bcd60e51b815260206004820152602560248201527f416176655633537472617465677956313a3a7265736375654465706c6f79656460448201527f46756e647300000000000000000000000000000000000000000000000000000060648201526084016109cb565b7fc7606d21ac05cd309191543e409f0845c016120563783d70e4f41419dc0ef234611b8c6110f2565b6002546040805192835260208301919091520160405180910390a1600c5460ff161515600103610a1357610a136000610e3b565b611bca33826130a5565b50565b600080611bd8611c0c565b9050600a548110611c0457612710600e5482611bf491906146da565b611bfe91906146f9565b91505090565b600091505090565b604080516002808252606082018352600092839291906020830190803683375050601a5482519293506001600160a01b031691839150600090611c5157611c5161467c565b6001600160a01b039283166020918202929092010152601b54825191169082906001908110611c8257611c8261467c565b6001600160a01b0392831660209182029290920101526017546040517f4c0369c300000000000000000000000000000000000000000000000000000000815260009283921690634c0369c390611cde9086903090600401614731565b600060405180830381865afa158015611cfb573d6000803e3d6000fd5b505050506040513d6000823e601f3d908101601f19168201604052611d23919081019061484e565b6040516370a0823160e01b8152306004820152919350915060009073b31f66aa3c1e785363f0875a1b74e27b85fd66c7906370a0823190602401602060405180830381865afa158015611d7a573d6000803e3d6000fd5b505050506040513d601f19601f82011682018060405250810190611d9e91906146c1565b9050611daa814761269b565b5060005b8351811015611f4e576000848281518110611dcb57611dcb61467c565b6020026020010151905073b31f66aa3c1e785363f0875a1b74e27b85fd66c76001600160a01b0316816001600160a01b031603611e3557611e2e848381518110611e1757611e1761467c565b60200260200101518461269b90919063ffffffff16565b9250611f3b565b6040516370a0823160e01b81523060048201526000906001600160a01b038316906370a0823190602401602060405180830381865afa158015611e7c573d6000803e3d6000fd5b505050506040513d601f19601f82011682018060405250810190611ea091906146c1565b90506000611ed0868581518110611eb957611eb961467c565b60200260200101518361269b90919063ffffffff16565b6001600160a01b03808516600090815260106020526040902054919250168115801590611f0557506001600160a01b03811615155b15611f3757611f34611f2d838673b31f66aa3c1e785363f0875a1b74e27b85fd66c7856134ce565b879061269b565b95505b5050505b5080611f4681614692565b915050611dae565b50949350505050565b6006546001600160a01b03163314611f9f5760405162461bcd60e51b81526020600482018190526024820152600080516020614a8e83398151915260448201526064016109cb565b8015611faa57600080fd5b600d5460408051918252602082018390527f3cc372f330f95ac9540626dc8a25f5bf21ba607215a5d58304cb804d446f104a910160405180910390a1600d55565b4284101561203b5760405162461bcd60e51b815260206004820152600f60248201527f7065726d69743a3a65787069726564000000000000000000000000000000000060448201526064016109cb565b6001600160a01b038716600090815260056020526040812080547f6e71edae12b1b97f4d1f60370fef10105fa2faae0126114a169c64845d6126c9918a918a918a91908661208883614692565b909155506040805160208101969096526001600160a01b0394851690860152929091166060840152608083015260a082015260c0810186905260e0016040516020818303038152906040528051906020012090506120e988828686866134e7565b6120f48888886126a7565b5050505050505050565b600080600061210b6127b5565b50909250905061110f61211e8383612900565b61213084670de0b6b3a7640000613647565b90613653565b60006121406110f2565b60025461214d91906146da565b600003612158575090565b6121606110f2565b60025461216d90846146da565b61217791906146f9565b92915050565b6006546001600160a01b031633146121c55760405162461bcd60e51b81526020600482018190526024820152600080516020614a8e83398151915260448201526064016109cb565b600b5460408051918252602082018390527fa5dae50539d56dfe1fb5273d883b0c39bc76750a25d036fc5fbd09ad8fd5f57f910160405180910390a1600b55565b6011818154811061221657600080fd5b6000918252602090912001546001600160a01b0316905081565b600061223a6110f2565b60025461224791906146da565b60000361225657506000919050565b6002546122616110f2565b61216d90846146da565b60007f8b73c3c69bb8fe3d512ecc4cf759cc79239f7b179b0ffacaa9a75d522b39400f60001b60006040516122a09190614913565b6040519081900390207fc89efdaa54c0f20c7adf612882df0950f5a951637e0307cdcb4c672f298b8bc646604080516020810195909552840192909252606083015260808201523060a082015260c00160405160208183030381529060405280519060200120905090565b6006546001600160a01b031633146123535760405162461bcd60e51b81526020600482018190526024820152600080516020614a8e83398151915260448201526064016109cb565b6001600160a01b0381166123cf5760405162461bcd60e51b815260206004820152602660248201527f4f776e61626c653a206e6577206f776e657220697320746865207a65726f206160448201527f646472657373000000000000000000000000000000000000000000000000000060648201526084016109cb565b6006546040516001600160a01b038084169216907f8be0079c531659141344cd1fd0a4f28419497f9722a3daafe3b4186f6b6457e090600090a3600680546001600160a01b0319166001600160a01b0392909216919091179055565b32331461247a5760405162461bcd60e51b815260206004820152601460248201527f59616b53747261746567793a3a6f6e6c79454f4100000000000000000000000060448201526064016109cb565b612484600061365f565b565b6000836001600160a01b0316630dfe16816040518163ffffffff1660e01b8152600401602060405180830381865afa1580156124c6573d6000803e3d6000fd5b505050506040513d601f19601f820116820180604052508101906124ea91906149ae565b6001600160a01b0316836001600160a01b0316148061257b5750836001600160a01b031663d21220a76040518163ffffffff1660e01b8152600401602060405180830381865afa158015612542573d6000803e3d6000fd5b505050506040513d601f19601f8201168201806040525081019061256691906149ae565b6001600160a01b0316836001600160a01b0316145b80156126755750836001600160a01b0316630dfe16816040518163ffffffff1660e01b8152600401602060405180830381865afa1580156125c0573d6000803e3d6000fd5b505050506040513d601f19601f820116820180604052508101906125e491906149ae565b6001600160a01b0316826001600160a01b031614806126755750836001600160a01b031663d21220a76040518163ffffffff1660e01b8152600401602060405180830381865afa15801561263c573d6000803e3d6000fd5b505050506040513d601f19601f8201168201806040525081019061266091906149ae565b6001600160a01b0316826001600160a01b0316145b80156126935750816001600160a01b0316836001600160a01b031614155b949350505050565b6000610add8284614647565b6001600160a01b0383166126fd5760405162461bcd60e51b815260206004820152601c60248201527f5f617070726f76653a3a6f776e6572207a65726f20616464726573730000000060448201526064016109cb565b6001600160a01b0382166127535760405162461bcd60e51b815260206004820152601e60248201527f5f617070726f76653a3a7370656e646572207a65726f2061646472657373000060448201526064016109cb565b6001600160a01b0383811660008181526003602090815260408083209487168084529482529182902085905590518481527f8c5be1e5ebec7d5bd14f71427d1e84f3dd0314c0f7b2291e5b200ac8c7c3b92591015b60405180910390a3505050565b601a546040516370a0823160e01b8152306004820152600091829182916001600160a01b0316906370a0823190602401602060405180830381865afa158015612802573d6000803e3d6000fd5b505050506040513d601f19601f8201168201806040525081019061282691906146c1565b601b546040516370a0823160e01b81523060048201529194506001600160a01b0316906370a0823190602401602060405180830381865afa15801561286f573d6000803e3d6000fd5b505050506040513d601f19601f8201168201806040525081019061289391906146c1565b915060009050816128c16013546121306128ba60155460135461290090919063ffffffff16565b8790613647565b11156128fb576128f8826128f26013546121306128eb60155460135461290090919063ffffffff16565b8890613647565b90612900565b90505b909192565b6000610add8284614630565b6000806129176127b5565b5090925090506000612964612930856128f28686612900565b6128f260155461213061295060145460135461290090919063ffffffff16565b61295e8a6128f28b8b612900565b90613647565b905060006129728383612900565b90508015610d17576018546040517f2dad97d40000000000000000000000000000000000000000000000000000000081526001600160a01b037f000000000000000000000000000000000000000000000000000000000000000081166004830152602482018490526002604483015290911690632dad97d4906064016020604051808303816000875af1158015612a0d573d6000803e3d6000fd5b505050506040513d601f19601f82011682018060405250810190610a1391906146c1565b6000806000612a3e6127b5565b9250925092506000612a70601554612130612a6660145460135461290090919063ffffffff16565b61295e8888612900565b60185460405163095ea7b360e01b81526001600160a01b039182166004820152602481018390529192507f0000000000000000000000000000000000000000000000000000000000000000169063095ea7b3906044016020604051808303816000875af1158015612ae5573d6000803e3d6000fd5b505050506040513d601f19601f82011682018060405250810190612b09919061465f565b505b80841015612c945780612b1e858461269b565b1115612b3157612b2e8185612900565b91505b6016548210612c94576018546040517fa415bcad0000000000000000000000000000000000000000000000000000000081526001600160a01b037f0000000000000000000000000000000000000000000000000000000000000000811660048301526024820185905260026044830152600060648301523060848301529091169063a415bcad9060a401600060405180830381600087803b158015612bd557600080fd5b505af1158015612be9573d6000803e3d6000fd5b505060185460405163617ba03760e01b81526001600160a01b037f0000000000000000000000000000000000000000000000000000000000000000811660048301526024820187905230604483015260006064830152909116925063617ba0379150608401600060405180830381600087803b158015612c6857600080fd5b505af1158015612c7c573d6000803e3d6000fd5b50505050612c886127b5565b91955093509150612b0b565b60185460405163095ea7b360e01b81526001600160a01b039182166004820152600060248201527f00000000000000000000000000000000000000000000000000000000000000009091169063095ea7b3906044016020604051808303816000875af1158015612d08573d6000803e3d6000fd5b505050506040513d601f19601f82011682018060405250810190610d17919061465f565b6001600160a01b038216612da85760405162461bcd60e51b815260206004820152603460248201527f5f7472616e73666572546f6b656e733a2063616e6e6f74207472616e7366657260448201527f20746f20746865207a65726f206164647265737300000000000000000000000060648201526084016109cb565b6001600160a01b038316600090815260046020526040902054612dcc908290614630565b6001600160a01b038085166000908152600460205260408082209390935590841681522054612dfc908290614647565b6001600160a01b0380841660008181526004602052604090819020939093559151908516907fddf252ad1be2c89b69c2b068fc378daa952ba7f163c4a11628f55a4df523b3ef906127a89085815260200190565b6001600160a01b038216600090815260046020526040902054612e74908290614630565b6001600160a01b038316600090815260046020526040902055600254612e9b908290614630565b6002556040518181526000906001600160a01b038416907fddf252ad1be2c89b69c2b068fc378daa952ba7f163c4a11628f55a4df523b3ef906020015b60405180910390a35050565b6000612eef8261290c565b6000612ef96127b5565b50509050808311612f0a5782612f0e565b6000195b601854604051631a4ca37b60e21b81526001600160a01b037f00000000000000000000000000000000000000000000000000000000000000008116600483015260248201849052306044830152929550600092909116906369328dec906064016020604051808303816000875af1158015612f8d573d6000803e3d6000fd5b505050506040513d601f19601f82011682018060405250810190612fb191906146c1565b9050610add612a31565b60405163a9059cbb60e01b81526001600160a01b0383811660048301526024820183905284169063a9059cbb906044016020604051808303816000875af115801561300a573d6000803e3d6000fd5b505050506040513d601f19601f8201168201806040525081019061302e919061465f565b6130a05760405162461bcd60e51b815260206004820152602660248201527f416176655633537472617465677956313a3a5452414e534645525f46524f4d5f60448201527f4641494c4544000000000000000000000000000000000000000000000000000060648201526084016109cb565b505050565b60075415613137573360009081526008602052604090205460ff1615156001146131375760405162461bcd60e51b815260206004820152602e60248201527f5065726d697373696f6e65643a3a6f6e6c79416c6c6f7765644465706f73697460448201527f732c206e6f7420616c6c6f77656400000000000000000000000000000000000060648201526084016109cb565b600c5460ff16151560011461318e5760405162461bcd60e51b815260206004820152601a60248201527f416176655633537472617465677956313a3a5f6465706f73697400000000000060448201526064016109cb565b600b54156131b85760006131a0611c0c565b9050600b548111156131b6576131b6600161365f565b505b6040517f23b872dd000000000000000000000000000000000000000000000000000000008152336004820152306024820152604481018290527f00000000000000000000000000000000000000000000000000000000000000006001600160a01b0316906323b872dd906064016020604051808303816000875af1158015613244573d6000803e3d6000fd5b505050506040513d601f19601f82011682018060405250810190613268919061465f565b6132da5760405162461bcd60e51b815260206004820152602160248201527f416176655633537472617465677956313a3a7472616e73666572206661696c6560448201527f640000000000000000000000000000000000000000000000000000000000000060648201526084016109cb565b6132ec826132e783612136565b613967565b6132f5816139ed565b816001600160a01b03167fe1fffcc4923d04b559f4d29a8bfc6cda04eb5b0d3c460751c2402c5c5cc9109c8260405161333091815260200190565b60405180910390a25050565b7f00000000000000000000000000000000000000000000000000000000000000006001600160a01b0316826001600160a01b031614613414576133a081837f0000000000000000000000000000000000000000000000000000000000000000612486565b613414576040805162461bcd60e51b81526020600482015260248101919091527f5661726961626c655265776172647353747261746567793a3a5377617020706160448201527f697220646f6573206e6f7420636f6e7461696e2072657761726420746f6b656e60648201526084016109cb565b6001600160a01b03808316600081815260106020526040812080549385166001600160a01b03199485161790556011805460018181018355919092527f31ecc21a745e3968a04e9570e4425bc18fa8019c68028196b546d1669c200c68909101805490931690911790915560125461348b9161269b565b601255604080516001600160a01b038085168252831660208201527f916e172c080569186aa7ea048268267257cf7cc49505908863f747bca8620f8091016112a9565b60006134de858585856003613b97565b95945050505050565b60006134f161226b565b6040517f1901000000000000000000000000000000000000000000000000000000000000602082015260228101919091526042810186905260620160408051601f198184030181528282528051602091820120600080855291840180845281905260ff88169284019290925260608301869052608083018590529092509060019060a0016020604051602081039080840390855afa158015613597573d6000803e3d6000fd5b5050604051601f1901519150506001600160a01b038116158015906135cd5750866001600160a01b0316816001600160a01b0316145b61363e5760405162461bcd60e51b8152602060048201526024808201527f417263683a3a76616c69646174655369673a20696e76616c6964207369676e6160448201527f747572650000000000000000000000000000000000000000000000000000000060648201526084016109cb565b50505050505050565b6000610add82846146da565b6000610add82846146f9565b6040805160028082526060820183526000926020830190803683375050601a5482519293506001600160a01b0316918391506000906136a0576136a061467c565b6001600160a01b039283166020918202929092010152601b548251911690829060019081106136d1576136d161467c565b6001600160a01b0392831660209182029290920101526017546040517fbb492bf500000000000000000000000000000000000000000000000000000000815291169063bb492bf5906137299084903090600401614731565b6000604051808303816000875af1158015613748573d6000803e3d6000fd5b505050506040513d6000823e601f3d908101601f19168201604052613770919081019061484e565b5050600061377c613c65565b9050826137fb57600a548110156137fb5760405162461bcd60e51b815260206004820152603060248201527f5661726961626c655265776172647353747261746567793a3a5265696e76657360448201527f7420616d6f756e7420746f6f206c6f770000000000000000000000000000000060648201526084016109cb565b6000613818612710612130600f548561364790919063ffffffff16565b9050801561385857600954613858907f0000000000000000000000000000000000000000000000000000000000000000906001600160a01b031683612fbb565b6000613875612710612130600e548661364790919063ffffffff16565b905080156138a8576138a87f00000000000000000000000000000000000000000000000000000000000000003383612fbb565b60006139106138bb836128f28787612900565b6019547f0000000000000000000000000000000000000000000000000000000000000000907f0000000000000000000000000000000000000000000000000000000000000000906001600160a01b0316613eb2565b905061391b816139ed565b7fc7606d21ac05cd309191543e409f0845c016120563783d70e4f41419dc0ef2346139446110f2565b6002546040805192835260208301919091520160405180910390a1505050505050565b806002546139759190614647565b6002556001600160a01b03821660009081526004602052604090205461399c908290614647565b6001600160a01b0383166000818152600460205260408082209390935591519091907fddf252ad1be2c89b69c2b068fc378daa952ba7f163c4a11628f55a4df523b3ef90612ed89085815260200190565b60008111613a635760405162461bcd60e51b815260206004820152602560248201527f416176655633537472617465677956313a3a5f7374616b654465706f7369745460448201527f6f6b656e7300000000000000000000000000000000000000000000000000000060648201526084016109cb565b60185460405163095ea7b360e01b81526001600160a01b039182166004820152602481018390527f00000000000000000000000000000000000000000000000000000000000000009091169063095ea7b3906044016020604051808303816000875af1158015613ad7573d6000803e3d6000fd5b505050506040513d601f19601f82011682018060405250810190613afb919061465f565b5060185460405163617ba03760e01b81526001600160a01b037f00000000000000000000000000000000000000000000000000000000000000008116600483015260248201849052306044830152600060648301529091169063617ba03790608401600060405180830381600087803b158015613b7757600080fd5b505af1158015613b8b573d6000803e3d6000fd5b50505050611bca612a31565b600080613ba48686613ec2565b509050600080856001600160a01b0316630902f1ac6040518163ffffffff1660e01b8152600401606060405180830381865afa158015613be8573d6000803e3d6000fd5b505050506040513d601f19601f82011682018060405250810190613c0c91906149e9565b5091509150876001600160a01b0316836001600160a01b031614613c2c57905b613c5889836dffffffffffffffffffffffffffff16836dffffffffffffffffffffffffffff1688613ef3565b9998505050505050505050565b6040516370a0823160e01b8152306004820152600090819073b31f66aa3c1e785363f0875a1b74e27b85fd66c7906370a0823190602401602060405180830381865afa158015613cb9573d6000803e3d6000fd5b505050506040513d601f19601f82011682018060405250810190613cdd91906146c1565b60115490915060005b81811015613eaa57600060118281548110613d0357613d0361467c565b6000918252602090912001546001600160a01b031690507fffffffffffffffffffffffff4ce09955c3e187ac9c0f78a5e48b1d847a0299398101613dcd57478015613dc65773b31f66aa3c1e785363f0875a1b74e27b85fd66c76001600160a01b031663d0e30db0826040518263ffffffff1660e01b81526004016000604051808303818588803b158015613d9757600080fd5b505af1158015613dab573d6000803e3d6000fd5b5050505050613dc3818661269b90919063ffffffff16565b94505b5050613e98565b6040516370a0823160e01b81523060048201526000906001600160a01b038316906370a0823190602401602060405180830381865afa158015613e14573d6000803e3d6000fd5b505050506040513d601f19601f82011682018060405250810190613e3891906146c1565b90508015613e95576001600160a01b03808316600090815260106020526040902054168015613e9357613e90611f2d83857f000000000000000000000000000000000000000000000000000000000000000085613eb2565b95505b505b50505b80613ea281614692565b915050613ce6565b509092915050565b60006134de858585856003613f4d565b600080826001600160a01b0316846001600160a01b031610613ee5578284613ee8565b83835b915091509250929050565b600080613f02836103e8614630565b613f0c90876146da565b90506000613f1a85836146da565b9050600082613f2b886103e86146da565b613f359190614647565b9050613f4181836146f9565b98975050505050505050565b600080613f5a8686613ec2565b509050600080856001600160a01b0316630902f1ac6040518163ffffffff1660e01b8152600401606060405180830381865afa158015613f9e573d6000803e3d6000fd5b505050506040513d601f19601f82011682018060405250810190613fc291906149e9565b5091509150876001600160a01b0316836001600160a01b031614613fe257905b6000806140118b856dffffffffffffffffffffffffffff16856dffffffffffffffffffffffffffff168a613ef3565b9050896001600160a01b0316856001600160a01b03161461402e57905b6140426001600160a01b038b16898d6140ea565b604080516000815260208101918290527f022c0d9f000000000000000000000000000000000000000000000000000000009091526001600160a01b0389169063022c0d9f9061409a9085908590309060248101614a39565b600060405180830381600087803b1580156140b457600080fd5b505af11580156140c8573d6000803e3d6000fd5b505050508181116140d957816140db565b805b9b9a5050505050505050505050565b604080516001600160a01b03848116602483015260448083018590528351808403909101815260649092018352602080830180517bffffffffffffffffffffffffffffffffffffffffffffffffffffffff1663a9059cbb60e01b17905283518085019094528084527f5361666545524332303a206c6f772d6c6576656c2063616c6c206661696c6564908401526130a09286929160009161418f91851690849061421f565b8051909150156130a057808060200190518101906141ad919061465f565b6130a05760405162461bcd60e51b815260206004820152602a60248201527f5361666545524332303a204552433230206f7065726174696f6e20646964206e60448201527f6f7420737563636565640000000000000000000000000000000000000000000060648201526084016109cb565b60606126938484600085856001600160a01b0385163b6142815760405162461bcd60e51b815260206004820152601d60248201527f416464726573733a2063616c6c20746f206e6f6e2d636f6e747261637400000060448201526064016109cb565b600080866001600160a01b0316858760405161429d9190614a71565b60006040518083038185875af1925050503d80600081146142da576040519150601f19603f3d011682016040523d82523d6000602084013e6142df565b606091505b50915091506142ef8282866142fa565b979650505050505050565b60608315614309575081610add565b8251156143195782518084602001fd5b8160405162461bcd60e51b81526004016109cb919061438f565b60005b8381101561434e578181015183820152602001614336565b8381111561435d576000848401525b50505050565b6000815180845261437b816020860160208601614333565b601f01601f19169290920160200192915050565b602081526000610add6020830184614363565b6001600160a01b0381168114611bca57600080fd5b600080604083850312156143ca57600080fd5b82356143d5816143a2565b946020939093013593505050565b600080600080608085870312156143f957600080fd5b5050823594602084013594506040840135936060013592509050565b60008060006060848603121561442a57600080fd5b8335614435816143a2565b92506020840135614445816143a2565b929592945050506040919091013590565b60006020828403121561446857600080fd5b5035919050565b6000806040838503121561448257600080fd5b823561448d816143a2565b9150602083013561449d816143a2565b809150509250929050565b6000602082840312156144ba57600080fd5b8135610add816143a2565b803560ff811681146144d657600080fd5b919050565b600080600080600060a086880312156144f357600080fd5b853594506020860135935061450a604087016144c5565b94979396509394606081013594506080013592915050565b8015158114611bca57600080fd5b60006020828403121561454257600080fd5b8135610add81614522565b6000806040838503121561456057600080fd5b82359150602083013561449d81614522565b600080600080600080600060e0888a03121561458d57600080fd5b8735614598816143a2565b965060208801356145a8816143a2565b955060408801359450606088013593506145c4608089016144c5565b925060a0880135915060c0880135905092959891949750929550565b600181811c908216806145f457607f821691505b60208210810361461457634e487b7160e01b600052602260045260246000fd5b50919050565b634e487b7160e01b600052601160045260246000fd5b6000828210156146425761464261461a565b500390565b6000821982111561465a5761465a61461a565b500190565b60006020828403121561467157600080fd5b8151610add81614522565b634e487b7160e01b600052603260045260246000fd5b6000600182016146a4576146a461461a565b5060010190565b634e487b7160e01b600052603160045260246000fd5b6000602082840312156146d357600080fd5b5051919050565b60008160001904831182151516156146f4576146f461461a565b500290565b60008261471657634e487b7160e01b600052601260045260246000fd5b500490565b634e487b7160e01b600052604160045260246000fd5b604080825283519082018190526000906020906060840190828701845b828110156147735781516001600160a01b03168452928401929084019060010161474e565b5050506001600160a01b039490941692019190915250919050565b604051601f8201601f1916810167ffffffffffffffff811182821017156147b7576147b761471b565b604052919050565b600067ffffffffffffffff8211156147d9576147d961471b565b5060051b60200190565b600082601f8301126147f457600080fd5b81516020614809614804836147bf565b61478e565b82815260059290921b8401810191818101908684111561482857600080fd5b8286015b84811015614843578051835291830191830161482c565b509695505050505050565b6000806040838503121561486157600080fd5b825167ffffffffffffffff8082111561487957600080fd5b818501915085601f83011261488d57600080fd5b8151602061489d614804836147bf565b82815260059290921b840181019181810190898411156148bc57600080fd5b948201945b838610156148e35785516148d4816143a2565b825294820194908201906148c1565b918801519196509093505050808211156148fc57600080fd5b50614909858286016147e3565b9150509250929050565b600080835481600182811c91508083168061492f57607f831692505b6020808410820361494e57634e487b7160e01b86526022600452602486fd5b8180156149625760018114614973576149a0565b60ff198616895284890196506149a0565b60008a81526020902060005b868110156149985781548b82015290850190830161497f565b505084890196505b509498975050505050505050565b6000602082840312156149c057600080fd5b8151610add816143a2565b80516dffffffffffffffffffffffffffff811681146144d657600080fd5b6000806000606084860312156149fe57600080fd5b614a07846149cb565b9250614a15602085016149cb565b9150604084015163ffffffff81168114614a2e57600080fd5b809150509250925092565b8481528360208201526001600160a01b0383166040820152608060608201526000614a676080830184614363565b9695505050505050565b60008251614a83818460208701614333565b919091019291505056fe4f776e61626c653a2063616c6c6572206973206e6f7420746865206f776e6572a2646970667358221220ffc05c7cc34a9b9bb4f6e3f511e228aa2ff96441ae535c7879ef0edff2f3782364736f6c634300080d00334f776e61626c653a2063616c6c6572206973206e6f7420746865206f776e65728be0079c531659141344cd1fd0a4f28419497f9722a3daafe3b4186f6b6457e0",
  "devdoc": {
    "kind": "dev",
    "methods": {
      "allowDepositor(address)": {
        "params": {
          "depositor": "address"
        }
      },
      "allowance(address,address)": {
        "params": {
          "account": "The address of the account holding the funds",
          "spender": "The address of the account spending the funds"
        },
        "returns": {
          "_0": "The number of tokens approved"
        }
      },
      "approve(address,uint256)": {
        "details": "This will overwrite the approval amount for `spender` and is subject to issues noted [here](https://eips.ethereum.org/EIPS/eip-20#approve) It is recommended to use increaseAllowance and decreaseAllowance instead",
        "params": {
          "amount": "The number of tokens that are approved (2^256-1 means infinite)",
          "spender": "The address of the account which may transfer tokens"
        },
        "returns": {
          "_0": "Whether or not the approval succeeded"
        }
      },
      "balanceOf(address)": {
        "params": {
          "account": "The address of the account to get the balance of"
        },
        "returns": {
          "_0": "The number of tokens held"
        }
      },
      "checkReward()": {
        "returns": {
          "_0": "reward tokens"
        }
      },
      "deposit(uint256)": {
        "details": "Must mint receipt tokens to `msg.sender`",
        "params": {
          "amount": "deposit tokens"
        }
      },
      "depositFor(address,uint256)": {
        "details": "Must mint receipt tokens to `account`",
        "params": {
          "account": "address to receive receipt tokens",
          "amount": "deposit tokens"
        }
      },
      "depositWithPermit(uint256,uint256,uint8,bytes32,bytes32)": {
        "details": "Should revert for tokens without Permit",
        "params": {
          "amount": "Amount of tokens to deposit",
          "deadline": "The time at which to expire the signature",
          "r": "Half of the ECDSA signature pair",
          "s": "Half of the ECDSA signature pair",
          "v": "The recovery byte of the signature"
        }
      },
      "estimateDeployedBalance()": {
        "returns": {
          "_0": "deposit tokens"
        }
      },
      "estimateReinvestReward()": {
        "returns": {
          "_0": "reward tokens"
        }
      },
      "getDepositTokensForShares(uint256)": {
        "params": {
          "amount": "receipt tokens"
        },
        "returns": {
          "_0": "deposit tokens"
        }
      },
      "getDomainSeparator()": {
        "returns": {
          "_0": "Separator"
        }
      },
      "getSharesForDepositTokens(uint256)": {
        "details": "If contract is empty, use 1:1 ratioCould return zero shares for very low amounts of deposit tokens",
        "params": {
          "amount": "deposit tokens"
        },
        "returns": {
          "_0": "receipt tokens"
        }
      },
      "owner()": {
        "details": "Returns the address of the current owner."
      },
      "permit(address,address,uint256,uint256,uint8,bytes32,bytes32)": {
        "params": {
          "deadline": "The time at which to expire the signature",
          "owner": "The address to approve from",
          "r": "Half of the ECDSA signature pair",
          "s": "Half of the ECDSA signature pair",
          "spender": "The address to be approved",
          "v": "The recovery byte of the signature",
          "value": "The number of tokens that are approved (2^256-1 means infinite)"
        }
      },
      "recoverAVAX(uint256)": {
        "params": {
          "amount": "amount"
        }
      },
      "recoverERC20(address,uint256)": {
        "params": {
          "tokenAddress": "token address",
          "tokenAmount": "amount to recover"
        }
      },
      "removeDepositor(address)": {
        "params": {
          "depositor": "address"
        }
      },
      "renounceOwnership()": {
        "details": "Leaves the contract without owner. It will not be possible to call `onlyOwner` functions anymore. Can only be called by the current owner. NOTE: Renouncing ownership will leave the contract without an owner, thereby removing any functionality that is only available to the owner."
      },
      "revokeAllowance(address,address)": {
        "params": {
          "spender": "address",
          "token": "address"
        }
      },
      "totalDeposits()": {
        "returns": {
          "_0": "total deposits available on the contract"
        }
      },
      "transfer(address,uint256)": {
        "params": {
          "amount": "The number of tokens to transfer",
          "dst": "The address of the destination account"
        },
        "returns": {
          "_0": "Whether or not the transfer succeeded"
        }
      },
      "transferFrom(address,address,uint256)": {
        "params": {
          "amount": "The number of tokens to transfer",
          "dst": "The address of the destination account",
          "src": "The address of the source account"
        },
        "returns": {
          "_0": "Whether or not the transfer succeeded"
        }
      },
      "transferOwnership(address)": {
        "details": "Transfers ownership of the contract to a new account (`newOwner`). Can only be called by the current owner."
      },
      "updateAdminFee(uint256)": {
        "details": "Deprecated; Kept for compatibility",
        "params": {
          "newValue": "fee in BIPS; required to be 0"
        }
      },
      "updateDepositsEnabled(bool)": {
        "params": {
          "newValue": "bool"
        }
      },
      "updateDevAddr(address)": {
        "params": {
          "newValue": "address"
        }
      },
      "updateDevFee(uint256)": {
        "params": {
          "newValue": "fee in BIPS"
        }
      },
      "updateMaxTokensToDepositWithoutReinvest(uint256)": {
        "params": {
          "newValue": "threshold"
        }
      },
      "updateMinTokensToReinvest(uint256)": {
        "params": {
          "newValue": "threshold"
        }
      },
      "updateReinvestReward(uint256)": {
        "params": {
          "newValue": "fee in BIPS"
        }
      },
      "withdraw(uint256)": {
        "params": {
          "amount": "receipt tokens"
        }
      }
    },
    "title": "Aave strategy for ERC20",
    "version": 1
  },
  "userdoc": {
    "kind": "user",
    "methods": {
      "allowDepositor(address)": {
        "notice": "Add an allowed depositor"
      },
      "allowance(address,address)": {
        "notice": "Get the number of tokens `spender` is approved to spend on behalf of `account`"
      },
      "approve(address,uint256)": {
        "notice": "Approve `spender` to transfer up to `amount` from `src`"
      },
      "balanceOf(address)": {
        "notice": "Get the number of tokens held by the `account`"
      },
      "checkReward()": {
        "notice": "Reward tokens available to strategy, including balance"
      },
      "deposit(uint256)": {
        "notice": "Deposit and deploy deposits tokens to the strategy"
      },
      "depositFor(address,uint256)": {
        "notice": "Deposit on behalf of another account"
      },
      "depositWithPermit(uint256,uint256,uint8,bytes32,bytes32)": {
        "notice": "Deposit using Permit"
      },
      "estimateDeployedBalance()": {
        "notice": "Estimated deposit token balance deployed by strategy, excluding balance"
      },
      "estimateReinvestReward()": {
        "notice": "Estimate reinvest reward"
      },
      "getDepositTokensForShares(uint256)": {
        "notice": "Calculate deposit tokens for a given amount of receipt tokens"
      },
      "getDomainSeparator()": {
        "notice": "EIP-712 Domain separator"
      },
      "getSharesForDepositTokens(uint256)": {
        "notice": "Calculate receipt tokens for a given amount of deposit tokens"
      },
      "permit(address,address,uint256,uint256,uint8,bytes32,bytes32)": {
        "notice": "Triggers an approval from owner to spender"
      },
      "recoverAVAX(uint256)": {
        "notice": "Recover AVAX from contract"
      },
      "recoverERC20(address,uint256)": {
        "notice": "Recover ERC20 from contract"
      },
      "reinvest()": {
        "notice": "Reinvest reward tokens into deposit tokens"
      },
      "removeDepositor(address)": {
        "notice": "Remove an allowed depositor"
      },
      "revokeAllowance(address,address)": {
        "notice": "Revoke token allowance"
      },
      "totalDeposits()": {
        "notice": "This function returns a snapshot of last available quotes"
      },
      "transfer(address,uint256)": {
        "notice": "Transfer `amount` tokens from `msg.sender` to `dst`"
      },
      "transferFrom(address,address,uint256)": {
        "notice": "Transfer `amount` tokens from `src` to `dst`"
      },
      "updateAdminFee(uint256)": {
        "notice": "Update admin fee"
      },
      "updateDepositsEnabled(bool)": {
        "notice": "Enable/disable deposits"
      },
      "updateDevAddr(address)": {
        "notice": "Update devAddr"
      },
      "updateDevFee(uint256)": {
        "notice": "Update developer fee"
      },
      "updateMaxTokensToDepositWithoutReinvest(uint256)": {
        "notice": "Update reinvest max threshold before a deposit"
      },
      "updateMinTokensToReinvest(uint256)": {
        "notice": "Update reinvest min threshold"
      },
      "updateReinvestReward(uint256)": {
        "notice": "Update reinvest reward"
      },
      "withdraw(uint256)": {
        "notice": "Redeem receipt tokens for deposit tokens"
      }
    },
    "version": 1
  },
  "storageLayout": {
    "storage": [
      {
        "astId": 552,
        "contract": "contracts/strategies/avalanche/aave/AaveV3StrategyV1.sol:AaveV3StrategyV1",
        "label": "name",
        "offset": 0,
        "slot": "0",
        "type": "t_string_storage"
      },
      {
        "astId": 555,
        "contract": "contracts/strategies/avalanche/aave/AaveV3StrategyV1.sol:AaveV3StrategyV1",
        "label": "symbol",
        "offset": 0,
        "slot": "1",
        "type": "t_string_storage"
      },
      {
        "astId": 560,
        "contract": "contracts/strategies/avalanche/aave/AaveV3StrategyV1.sol:AaveV3StrategyV1",
        "label": "totalSupply",
        "offset": 0,
        "slot": "2",
        "type": "t_uint256"
      },
      {
        "astId": 566,
        "contract": "contracts/strategies/avalanche/aave/AaveV3StrategyV1.sol:AaveV3StrategyV1",
        "label": "allowances",
        "offset": 0,
        "slot": "3",
        "type": "t_mapping(t_address,t_mapping(t_address,t_uint256))"
      },
      {
        "astId": 570,
        "contract": "contracts/strategies/avalanche/aave/AaveV3StrategyV1.sol:AaveV3StrategyV1",
        "label": "balances",
        "offset": 0,
        "slot": "4",
        "type": "t_mapping(t_address,t_uint256)"
      },
      {
        "astId": 586,
        "contract": "contracts/strategies/avalanche/aave/AaveV3StrategyV1.sol:AaveV3StrategyV1",
        "label": "nonces",
        "offset": 0,
        "slot": "5",
        "type": "t_mapping(t_address,t_uint256)"
      },
      {
        "astId": 8040,
        "contract": "contracts/strategies/avalanche/aave/AaveV3StrategyV1.sol:AaveV3StrategyV1",
        "label": "_owner",
        "offset": 0,
        "slot": "6",
        "type": "t_address"
      },
      {
        "astId": 8149,
        "contract": "contracts/strategies/avalanche/aave/AaveV3StrategyV1.sol:AaveV3StrategyV1",
        "label": "numberOfAllowedDepositors",
        "offset": 0,
        "slot": "7",
        "type": "t_uint256"
      },
      {
        "astId": 8153,
        "contract": "contracts/strategies/avalanche/aave/AaveV3StrategyV1.sol:AaveV3StrategyV1",
        "label": "allowedDepositors",
        "offset": 0,
        "slot": "8",
        "type": "t_mapping(t_address,t_bool)"
      },
      {
        "astId": 1955,
        "contract": "contracts/strategies/avalanche/aave/AaveV3StrategyV1.sol:AaveV3StrategyV1",
        "label": "devAddr",
        "offset": 0,
        "slot": "9",
        "type": "t_address"
      },
      {
        "astId": 1957,
        "contract": "contracts/strategies/avalanche/aave/AaveV3StrategyV1.sol:AaveV3StrategyV1",
        "label": "MIN_TOKENS_TO_REINVEST",
        "offset": 0,
        "slot": "10",
        "type": "t_uint256"
      },
      {
        "astId": 1959,
        "contract": "contracts/strategies/avalanche/aave/AaveV3StrategyV1.sol:AaveV3StrategyV1",
        "label": "MAX_TOKENS_TO_DEPOSIT_WITHOUT_REINVEST",
        "offset": 0,
        "slot": "11",
        "type": "t_uint256"
      },
      {
        "astId": 1961,
        "contract": "contracts/strategies/avalanche/aave/AaveV3StrategyV1.sol:AaveV3StrategyV1",
        "label": "DEPOSITS_ENABLED",
        "offset": 0,
        "slot": "12",
        "type": "t_bool"
      },
      {
        "astId": 1963,
        "contract": "contracts/strategies/avalanche/aave/AaveV3StrategyV1.sol:AaveV3StrategyV1",
        "label": "ADMIN_FEE_BIPS",
        "offset": 0,
        "slot": "13",
        "type": "t_uint256"
      },
      {
        "astId": 1965,
        "contract": "contracts/strategies/avalanche/aave/AaveV3StrategyV1.sol:AaveV3StrategyV1",
        "label": "REINVEST_REWARD_BIPS",
        "offset": 0,
        "slot": "14",
        "type": "t_uint256"
      },
      {
        "astId": 1967,
        "contract": "contracts/strategies/avalanche/aave/AaveV3StrategyV1.sol:AaveV3StrategyV1",
        "label": "DEV_FEE_BIPS",
        "offset": 0,
        "slot": "15",
        "type": "t_uint256"
      },
      {
        "astId": 14950,
        "contract": "contracts/strategies/avalanche/aave/AaveV3StrategyV1.sol:AaveV3StrategyV1",
        "label": "rewardSwapPairs",
        "offset": 0,
        "slot": "16",
        "type": "t_mapping(t_address,t_address)"
      },
      {
        "astId": 14953,
        "contract": "contracts/strategies/avalanche/aave/AaveV3StrategyV1.sol:AaveV3StrategyV1",
        "label": "supportedRewards",
        "offset": 0,
        "slot": "17",
        "type": "t_array(t_address)dyn_storage"
      },
      {
        "astId": 14955,
        "contract": "contracts/strategies/avalanche/aave/AaveV3StrategyV1.sol:AaveV3StrategyV1",
        "label": "rewardCount",
        "offset": 0,
        "slot": "18",
        "type": "t_uint256"
      },
      {
        "astId": 14957,
        "contract": "contracts/strategies/avalanche/aave/AaveV3StrategyV1.sol:AaveV3StrategyV1",
        "label": "leverageLevel",
        "offset": 0,
        "slot": "19",
        "type": "t_uint256"
      },
      {
        "astId": 14959,
        "contract": "contracts/strategies/avalanche/aave/AaveV3StrategyV1.sol:AaveV3StrategyV1",
        "label": "safetyFactor",
        "offset": 0,
        "slot": "20",
        "type": "t_uint256"
      },
      {
        "astId": 14961,
        "contract": "contracts/strategies/avalanche/aave/AaveV3StrategyV1.sol:AaveV3StrategyV1",
        "label": "leverageBips",
        "offset": 0,
        "slot": "21",
        "type": "t_uint256"
      },
      {
        "astId": 14963,
        "contract": "contracts/strategies/avalanche/aave/AaveV3StrategyV1.sol:AaveV3StrategyV1",
        "label": "minMinting",
        "offset": 0,
        "slot": "22",
        "type": "t_uint256"
      },
      {
        "astId": 14966,
        "contract": "contracts/strategies/avalanche/aave/AaveV3StrategyV1.sol:AaveV3StrategyV1",
        "label": "rewardController",
        "offset": 0,
        "slot": "23",
        "type": "t_contract(IAaveV3IncentivesController)16607"
      },
      {
        "astId": 14969,
        "contract": "contracts/strategies/avalanche/aave/AaveV3StrategyV1.sol:AaveV3StrategyV1",
        "label": "tokenDelegator",
        "offset": 0,
        "slot": "24",
        "type": "t_contract(ILendingPoolAaveV3)16998"
      },
      {
        "astId": 14972,
        "contract": "contracts/strategies/avalanche/aave/AaveV3StrategyV1.sol:AaveV3StrategyV1",
        "label": "swapPairToken",
        "offset": 0,
        "slot": "25",
        "type": "t_contract(IPair)5465"
      },
      {
        "astId": 14980,
        "contract": "contracts/strategies/avalanche/aave/AaveV3StrategyV1.sol:AaveV3StrategyV1",
        "label": "avToken",
        "offset": 0,
        "slot": "26",
        "type": "t_address"
      },
      {
        "astId": 14982,
        "contract": "contracts/strategies/avalanche/aave/AaveV3StrategyV1.sol:AaveV3StrategyV1",
        "label": "avDebtToken",
        "offset": 0,
        "slot": "27",
        "type": "t_address"
      }
    ],
    "types": {
      "t_address": {
        "encoding": "inplace",
        "label": "address",
        "numberOfBytes": "20"
      },
      "t_array(t_address)dyn_storage": {
        "base": "t_address",
        "encoding": "dynamic_array",
        "label": "address[]",
        "numberOfBytes": "32"
      },
      "t_bool": {
        "encoding": "inplace",
        "label": "bool",
        "numberOfBytes": "1"
      },
      "t_contract(IAaveV3IncentivesController)16607": {
        "encoding": "inplace",
        "label": "contract IAaveV3IncentivesController",
        "numberOfBytes": "20"
      },
      "t_contract(ILendingPoolAaveV3)16998": {
        "encoding": "inplace",
        "label": "contract ILendingPoolAaveV3",
        "numberOfBytes": "20"
      },
      "t_contract(IPair)5465": {
        "encoding": "inplace",
        "label": "contract IPair",
        "numberOfBytes": "20"
      },
      "t_mapping(t_address,t_address)": {
        "encoding": "mapping",
        "key": "t_address",
        "label": "mapping(address => address)",
        "numberOfBytes": "32",
        "value": "t_address"
      },
      "t_mapping(t_address,t_bool)": {
        "encoding": "mapping",
        "key": "t_address",
        "label": "mapping(address => bool)",
        "numberOfBytes": "32",
        "value": "t_bool"
      },
      "t_mapping(t_address,t_mapping(t_address,t_uint256))": {
        "encoding": "mapping",
        "key": "t_address",
        "label": "mapping(address => mapping(address => uint256))",
        "numberOfBytes": "32",
        "value": "t_mapping(t_address,t_uint256)"
      },
      "t_mapping(t_address,t_uint256)": {
        "encoding": "mapping",
        "key": "t_address",
        "label": "mapping(address => uint256)",
        "numberOfBytes": "32",
        "value": "t_uint256"
      },
      "t_string_storage": {
        "encoding": "bytes",
        "label": "string",
        "numberOfBytes": "32"
      },
      "t_uint256": {
        "encoding": "inplace",
        "label": "uint256",
        "numberOfBytes": "32"
      }
    }
  }
}