{
  "address": "0xaAc0F2d0630d1D09ab2B5A400412a4840B866d95",
  "abi": [
    {
      "inputs": [
        {
          "internalType": "string",
          "name": "_name",
          "type": "string"
        },
        {
          "internalType": "address",
          "name": "_rewardController",
          "type": "address"
        },
        {
          "internalType": "address",
          "name": "_tokenDelegator",
          "type": "address"
        },
        {
          "components": [
            {
              "internalType": "address",
              "name": "reward",
              "type": "address"
            },
            {
              "internalType": "address",
              "name": "swapPair",
              "type": "address"
            }
          ],
          "internalType": "struct AaveV3StrategyAvaxV1.RewardSwapPairs[]",
          "name": "_rewardSwapPairs",
          "type": "tuple[]"
        },
        {
          "internalType": "address",
          "name": "_avToken",
          "type": "address"
        },
        {
          "internalType": "address",
          "name": "_avDebtToken",
          "type": "address"
        },
        {
          "internalType": "address",
          "name": "_timelock",
          "type": "address"
        },
        {
          "components": [
            {
              "internalType": "uint256",
              "name": "leverageLevel",
              "type": "uint256"
            },
            {
              "internalType": "uint256",
              "name": "safetyFactor",
              "type": "uint256"
            },
            {
              "internalType": "uint256",
              "name": "leverageBips",
              "type": "uint256"
            },
            {
              "internalType": "uint256",
              "name": "minMinting",
              "type": "uint256"
            }
          ],
          "internalType": "struct AaveV3StrategyAvaxV1.LeverageSettings",
          "name": "_leverageSettings",
          "type": "tuple"
        },
        {
          "components": [
            {
              "internalType": "uint256",
              "name": "minTokensToReinvest",
              "type": "uint256"
            },
            {
              "internalType": "uint256",
              "name": "adminFeeBips",
              "type": "uint256"
            },
            {
              "internalType": "uint256",
              "name": "devFeeBips",
              "type": "uint256"
            },
            {
              "internalType": "uint256",
              "name": "reinvestRewardBips",
              "type": "uint256"
            }
          ],
          "internalType": "struct AaveV3StrategyAvaxV1.StrategySettings",
          "name": "_strategySettings",
          "type": "tuple"
        }
      ],
      "stateMutability": "nonpayable",
      "type": "constructor"
    },
    {
      "anonymous": false,
      "inputs": [
        {
          "indexed": false,
          "internalType": "address",
          "name": "rewardToken",
          "type": "address"
        },
        {
          "indexed": false,
          "internalType": "address",
          "name": "swapPair",
          "type": "address"
        }
      ],
      "name": "AddReward",
      "type": "event"
    },
    {
      "anonymous": false,
      "inputs": [
        {
          "indexed": true,
          "internalType": "address",
          "name": "account",
          "type": "address"
        }
      ],
      "name": "AllowDepositor",
      "type": "event"
    },
    {
      "anonymous": false,
      "inputs": [
        {
          "indexed": true,
          "internalType": "address",
          "name": "owner",
          "type": "address"
        },
        {
          "indexed": true,
          "internalType": "address",
          "name": "spender",
          "type": "address"
        },
        {
          "indexed": false,
          "internalType": "uint256",
          "name": "value",
          "type": "uint256"
        }
      ],
      "name": "Approval",
      "type": "event"
    },
    {
      "anonymous": false,
      "inputs": [
        {
          "indexed": true,
          "internalType": "address",
          "name": "account",
          "type": "address"
        },
        {
          "indexed": false,
          "internalType": "uint256",
          "name": "amount",
          "type": "uint256"
        }
      ],
      "name": "Deposit",
      "type": "event"
    },
    {
      "anonymous": false,
      "inputs": [
        {
          "indexed": false,
          "internalType": "bool",
          "name": "newValue",
          "type": "bool"
        }
      ],
      "name": "DepositsEnabled",
      "type": "event"
    },
    {
      "anonymous": false,
      "inputs": [
        {
          "indexed": true,
          "internalType": "address",
          "name": "previousOwner",
          "type": "address"
        },
        {
          "indexed": true,
          "internalType": "address",
          "name": "newOwner",
          "type": "address"
        }
      ],
      "name": "OwnershipTransferred",
      "type": "event"
    },
    {
      "anonymous": false,
      "inputs": [
        {
          "indexed": false,
          "internalType": "address",
          "name": "token",
          "type": "address"
        },
        {
          "indexed": false,
          "internalType": "uint256",
          "name": "amount",
          "type": "uint256"
        }
      ],
      "name": "Recovered",
      "type": "event"
    },
    {
      "anonymous": false,
      "inputs": [
        {
          "indexed": false,
          "internalType": "uint256",
          "name": "newTotalDeposits",
          "type": "uint256"
        },
        {
          "indexed": false,
          "internalType": "uint256",
          "name": "newTotalSupply",
          "type": "uint256"
        }
      ],
      "name": "Reinvest",
      "type": "event"
    },
    {
      "anonymous": false,
      "inputs": [
        {
          "indexed": true,
          "internalType": "address",
          "name": "account",
          "type": "address"
        }
      ],
      "name": "RemoveDepositor",
      "type": "event"
    },
    {
      "anonymous": false,
      "inputs": [
        {
          "indexed": false,
          "internalType": "address",
          "name": "rewardToken",
          "type": "address"
        }
      ],
      "name": "RemoveReward",
      "type": "event"
    },
    {
      "anonymous": false,
      "inputs": [
        {
          "indexed": true,
          "internalType": "address",
          "name": "from",
          "type": "address"
        },
        {
          "indexed": true,
          "internalType": "address",
          "name": "to",
          "type": "address"
        },
        {
          "indexed": false,
          "internalType": "uint256",
          "name": "value",
          "type": "uint256"
        }
      ],
      "name": "Transfer",
      "type": "event"
    },
    {
      "anonymous": false,
      "inputs": [
        {
          "indexed": false,
          "internalType": "uint256",
          "name": "oldValue",
          "type": "uint256"
        },
        {
          "indexed": false,
          "internalType": "uint256",
          "name": "newValue",
          "type": "uint256"
        }
      ],
      "name": "UpdateAdminFee",
      "type": "event"
    },
    {
      "anonymous": false,
      "inputs": [
        {
          "indexed": false,
          "internalType": "address",
          "name": "oldValue",
          "type": "address"
        },
        {
          "indexed": false,
          "internalType": "address",
          "name": "newValue",
          "type": "address"
        }
      ],
      "name": "UpdateDevAddr",
      "type": "event"
    },
    {
      "anonymous": false,
      "inputs": [
        {
          "indexed": false,
          "internalType": "uint256",
          "name": "oldValue",
          "type": "uint256"
        },
        {
          "indexed": false,
          "internalType": "uint256",
          "name": "newValue",
          "type": "uint256"
        }
      ],
      "name": "UpdateDevFee",
      "type": "event"
    },
    {
      "anonymous": false,
      "inputs": [
        {
          "indexed": false,
          "internalType": "uint256",
          "name": "oldValue",
          "type": "uint256"
        },
        {
          "indexed": false,
          "internalType": "uint256",
          "name": "newValue",
          "type": "uint256"
        }
      ],
      "name": "UpdateMaxTokensToDepositWithoutReinvest",
      "type": "event"
    },
    {
      "anonymous": false,
      "inputs": [
        {
          "indexed": false,
          "internalType": "uint256",
          "name": "oldValue",
          "type": "uint256"
        },
        {
          "indexed": false,
          "internalType": "uint256",
          "name": "newValue",
          "type": "uint256"
        }
      ],
      "name": "UpdateMinTokensToReinvest",
      "type": "event"
    },
    {
      "anonymous": false,
      "inputs": [
        {
          "indexed": false,
          "internalType": "uint256",
          "name": "oldValue",
          "type": "uint256"
        },
        {
          "indexed": false,
          "internalType": "uint256",
          "name": "newValue",
          "type": "uint256"
        }
      ],
      "name": "UpdateReinvestReward",
      "type": "event"
    },
    {
      "anonymous": false,
      "inputs": [
        {
          "indexed": true,
          "internalType": "address",
          "name": "account",
          "type": "address"
        },
        {
          "indexed": false,
          "internalType": "uint256",
          "name": "amount",
          "type": "uint256"
        }
      ],
      "name": "Withdraw",
      "type": "event"
    },
    {
      "inputs": [],
      "name": "ADMIN_FEE_BIPS",
      "outputs": [
        {
          "internalType": "uint256",
          "name": "",
          "type": "uint256"
        }
      ],
      "stateMutability": "view",
      "type": "function"
    },
    {
      "inputs": [],
      "name": "DEPOSITS_ENABLED",
      "outputs": [
        {
          "internalType": "bool",
          "name": "",
          "type": "bool"
        }
      ],
      "stateMutability": "view",
      "type": "function"
    },
    {
      "inputs": [],
      "name": "DEV_FEE_BIPS",
      "outputs": [
        {
          "internalType": "uint256",
          "name": "",
          "type": "uint256"
        }
      ],
      "stateMutability": "view",
      "type": "function"
    },
    {
      "inputs": [],
      "name": "DOMAIN_TYPEHASH",
      "outputs": [
        {
          "internalType": "bytes32",
          "name": "",
          "type": "bytes32"
        }
      ],
      "stateMutability": "view",
      "type": "function"
    },
    {
      "inputs": [],
      "name": "MAX_TOKENS_TO_DEPOSIT_WITHOUT_REINVEST",
      "outputs": [
        {
          "internalType": "uint256",
          "name": "",
          "type": "uint256"
        }
      ],
      "stateMutability": "view",
      "type": "function"
    },
    {
      "inputs": [],
      "name": "MIN_TOKENS_TO_REINVEST",
      "outputs": [
        {
          "internalType": "uint256",
          "name": "",
          "type": "uint256"
        }
      ],
      "stateMutability": "view",
      "type": "function"
    },
    {
      "inputs": [],
      "name": "PERMIT_TYPEHASH",
      "outputs": [
        {
          "internalType": "bytes32",
          "name": "",
          "type": "bytes32"
        }
      ],
      "stateMutability": "view",
      "type": "function"
    },
    {
      "inputs": [],
      "name": "REINVEST_REWARD_BIPS",
      "outputs": [
        {
          "internalType": "uint256",
          "name": "",
          "type": "uint256"
        }
      ],
      "stateMutability": "view",
      "type": "function"
    },
    {
      "inputs": [],
      "name": "VERSION_HASH",
      "outputs": [
        {
          "internalType": "bytes32",
          "name": "",
          "type": "bytes32"
        }
      ],
      "stateMutability": "view",
      "type": "function"
    },
    {
      "inputs": [
        {
          "internalType": "address",
          "name": "_rewardToken",
          "type": "address"
        },
        {
          "internalType": "address",
          "name": "_swapPair",
          "type": "address"
        }
      ],
      "name": "addReward",
      "outputs": [],
      "stateMutability": "nonpayable",
      "type": "function"
    },
    {
      "inputs": [
        {
          "internalType": "address",
          "name": "depositor",
          "type": "address"
        }
      ],
      "name": "allowDepositor",
      "outputs": [],
      "stateMutability": "nonpayable",
      "type": "function"
    },
    {
      "inputs": [
        {
          "internalType": "address",
          "name": "account",
          "type": "address"
        },
        {
          "internalType": "address",
          "name": "spender",
          "type": "address"
        }
      ],
      "name": "allowance",
      "outputs": [
        {
          "internalType": "uint256",
          "name": "",
          "type": "uint256"
        }
      ],
      "stateMutability": "view",
      "type": "function"
    },
    {
      "inputs": [
        {
          "internalType": "address",
          "name": "",
          "type": "address"
        }
      ],
      "name": "allowedDepositors",
      "outputs": [
        {
          "internalType": "bool",
          "name": "",
          "type": "bool"
        }
      ],
      "stateMutability": "view",
      "type": "function"
    },
    {
      "inputs": [
        {
          "internalType": "address",
          "name": "spender",
          "type": "address"
        },
        {
          "internalType": "uint256",
          "name": "amount",
          "type": "uint256"
        }
      ],
      "name": "approve",
      "outputs": [
        {
          "internalType": "bool",
          "name": "",
          "type": "bool"
        }
      ],
      "stateMutability": "nonpayable",
      "type": "function"
    },
    {
      "inputs": [
        {
          "internalType": "address",
          "name": "account",
          "type": "address"
        }
      ],
      "name": "balanceOf",
      "outputs": [
        {
          "internalType": "uint256",
          "name": "",
          "type": "uint256"
        }
      ],
      "stateMutability": "view",
      "type": "function"
    },
    {
      "inputs": [],
      "name": "checkReward",
      "outputs": [
        {
          "internalType": "uint256",
          "name": "",
          "type": "uint256"
        }
      ],
      "stateMutability": "view",
      "type": "function"
    },
    {
      "inputs": [],
      "name": "decimals",
      "outputs": [
        {
          "internalType": "uint8",
          "name": "",
          "type": "uint8"
        }
      ],
      "stateMutability": "view",
      "type": "function"
    },
    {
      "inputs": [
        {
          "internalType": "uint256",
          "name": "",
          "type": "uint256"
        }
      ],
      "name": "deposit",
      "outputs": [],
      "stateMutability": "pure",
      "type": "function"
    },
    {
      "inputs": [],
      "name": "deposit",
      "outputs": [],
      "stateMutability": "payable",
      "type": "function"
    },
    {
      "inputs": [
        {
          "internalType": "address",
          "name": "",
          "type": "address"
        },
        {
          "internalType": "uint256",
          "name": "",
          "type": "uint256"
        }
      ],
      "name": "depositFor",
      "outputs": [],
      "stateMutability": "pure",
      "type": "function"
    },
    {
      "inputs": [
        {
          "internalType": "address",
          "name": "account",
          "type": "address"
        }
      ],
      "name": "depositFor",
      "outputs": [],
      "stateMutability": "payable",
      "type": "function"
    },
    {
      "inputs": [],
      "name": "depositToken",
      "outputs": [
        {
          "internalType": "contract IERC20",
          "name": "",
          "type": "address"
        }
      ],
      "stateMutability": "view",
      "type": "function"
    },
    {
      "inputs": [
        {
          "internalType": "uint256",
          "name": "",
          "type": "uint256"
        },
        {
          "internalType": "uint256",
          "name": "",
          "type": "uint256"
        },
        {
          "internalType": "uint8",
          "name": "",
          "type": "uint8"
        },
        {
          "internalType": "bytes32",
          "name": "",
          "type": "bytes32"
        },
        {
          "internalType": "bytes32",
          "name": "",
          "type": "bytes32"
        }
      ],
      "name": "depositWithPermit",
      "outputs": [],
      "stateMutability": "pure",
      "type": "function"
    },
    {
      "inputs": [],
      "name": "devAddr",
      "outputs": [
        {
          "internalType": "address",
          "name": "",
          "type": "address"
        }
      ],
      "stateMutability": "view",
      "type": "function"
    },
    {
      "inputs": [],
      "name": "estimateDeployedBalance",
      "outputs": [
        {
          "internalType": "uint256",
          "name": "",
          "type": "uint256"
        }
      ],
      "stateMutability": "view",
      "type": "function"
    },
    {
      "inputs": [],
      "name": "estimateReinvestReward",
      "outputs": [
        {
          "internalType": "uint256",
          "name": "",
          "type": "uint256"
        }
      ],
      "stateMutability": "view",
      "type": "function"
    },
    {
      "inputs": [],
      "name": "getActualLeverage",
      "outputs": [
        {
          "internalType": "uint256",
          "name": "",
          "type": "uint256"
        }
      ],
      "stateMutability": "view",
      "type": "function"
    },
    {
      "inputs": [
        {
          "internalType": "uint256",
          "name": "amount",
          "type": "uint256"
        }
      ],
      "name": "getDepositTokensForShares",
      "outputs": [
        {
          "internalType": "uint256",
          "name": "",
          "type": "uint256"
        }
      ],
      "stateMutability": "view",
      "type": "function"
    },
    {
      "inputs": [],
      "name": "getDomainSeparator",
      "outputs": [
        {
          "internalType": "bytes32",
          "name": "",
          "type": "bytes32"
        }
      ],
      "stateMutability": "view",
      "type": "function"
    },
    {
      "inputs": [
        {
          "internalType": "uint256",
          "name": "amount",
          "type": "uint256"
        }
      ],
      "name": "getSharesForDepositTokens",
      "outputs": [
        {
          "internalType": "uint256",
          "name": "",
          "type": "uint256"
        }
      ],
      "stateMutability": "view",
      "type": "function"
    },
    {
      "inputs": [],
      "name": "leverageBips",
      "outputs": [
        {
          "internalType": "uint256",
          "name": "",
          "type": "uint256"
        }
      ],
      "stateMutability": "view",
      "type": "function"
    },
    {
      "inputs": [],
      "name": "leverageLevel",
      "outputs": [
        {
          "internalType": "uint256",
          "name": "",
          "type": "uint256"
        }
      ],
      "stateMutability": "view",
      "type": "function"
    },
    {
      "inputs": [],
      "name": "minMinting",
      "outputs": [
        {
          "internalType": "uint256",
          "name": "",
          "type": "uint256"
        }
      ],
      "stateMutability": "view",
      "type": "function"
    },
    {
      "inputs": [],
      "name": "name",
      "outputs": [
        {
          "internalType": "string",
          "name": "",
          "type": "string"
        }
      ],
      "stateMutability": "view",
      "type": "function"
    },
    {
      "inputs": [
        {
          "internalType": "address",
          "name": "",
          "type": "address"
        }
      ],
      "name": "nonces",
      "outputs": [
        {
          "internalType": "uint256",
          "name": "",
          "type": "uint256"
        }
      ],
      "stateMutability": "view",
      "type": "function"
    },
    {
      "inputs": [],
      "name": "numberOfAllowedDepositors",
      "outputs": [
        {
          "internalType": "uint256",
          "name": "",
          "type": "uint256"
        }
      ],
      "stateMutability": "view",
      "type": "function"
    },
    {
      "inputs": [],
      "name": "owner",
      "outputs": [
        {
          "internalType": "address",
          "name": "",
          "type": "address"
        }
      ],
      "stateMutability": "view",
      "type": "function"
    },
    {
      "inputs": [
        {
          "internalType": "address",
          "name": "owner",
          "type": "address"
        },
        {
          "internalType": "address",
          "name": "spender",
          "type": "address"
        },
        {
          "internalType": "uint256",
          "name": "value",
          "type": "uint256"
        },
        {
          "internalType": "uint256",
          "name": "deadline",
          "type": "uint256"
        },
        {
          "internalType": "uint8",
          "name": "v",
          "type": "uint8"
        },
        {
          "internalType": "bytes32",
          "name": "r",
          "type": "bytes32"
        },
        {
          "internalType": "bytes32",
          "name": "s",
          "type": "bytes32"
        }
      ],
      "name": "permit",
      "outputs": [],
      "stateMutability": "nonpayable",
      "type": "function"
    },
    {
      "inputs": [
        {
          "internalType": "uint256",
          "name": "amount",
          "type": "uint256"
        }
      ],
      "name": "recoverAVAX",
      "outputs": [],
      "stateMutability": "nonpayable",
      "type": "function"
    },
    {
      "inputs": [
        {
          "internalType": "address",
          "name": "tokenAddress",
          "type": "address"
        },
        {
          "internalType": "uint256",
          "name": "tokenAmount",
          "type": "uint256"
        }
      ],
      "name": "recoverERC20",
      "outputs": [],
      "stateMutability": "nonpayable",
      "type": "function"
    },
    {
      "inputs": [],
      "name": "reinvest",
      "outputs": [],
      "stateMutability": "nonpayable",
      "type": "function"
    },
    {
      "inputs": [
        {
          "internalType": "address",
          "name": "depositor",
          "type": "address"
        }
      ],
      "name": "removeDepositor",
      "outputs": [],
      "stateMutability": "nonpayable",
      "type": "function"
    },
    {
      "inputs": [
        {
          "internalType": "address",
          "name": "_rewardToken",
          "type": "address"
        }
      ],
      "name": "removeReward",
      "outputs": [],
      "stateMutability": "nonpayable",
      "type": "function"
    },
    {
      "inputs": [],
      "name": "renounceOwnership",
      "outputs": [],
      "stateMutability": "nonpayable",
      "type": "function"
    },
    {
      "inputs": [
        {
          "internalType": "uint256",
          "name": "minReturnAmountAccepted",
          "type": "uint256"
        },
        {
          "internalType": "bool",
          "name": "",
          "type": "bool"
        }
      ],
      "name": "rescueDeployedFunds",
      "outputs": [],
      "stateMutability": "nonpayable",
      "type": "function"
    },
    {
      "inputs": [
        {
          "internalType": "address",
          "name": "token",
          "type": "address"
        },
        {
          "internalType": "address",
          "name": "spender",
          "type": "address"
        }
      ],
      "name": "revokeAllowance",
      "outputs": [],
      "stateMutability": "nonpayable",
      "type": "function"
    },
    {
      "inputs": [],
      "name": "rewardCount",
      "outputs": [
        {
          "internalType": "uint256",
          "name": "",
          "type": "uint256"
        }
      ],
      "stateMutability": "view",
      "type": "function"
    },
    {
      "inputs": [
        {
          "internalType": "address",
          "name": "",
          "type": "address"
        }
      ],
      "name": "rewardSwapPairs",
      "outputs": [
        {
          "internalType": "address",
          "name": "",
          "type": "address"
        }
      ],
      "stateMutability": "view",
      "type": "function"
    },
    {
      "inputs": [],
      "name": "rewardToken",
      "outputs": [
        {
          "internalType": "contract IERC20",
          "name": "",
          "type": "address"
        }
      ],
      "stateMutability": "view",
      "type": "function"
    },
    {
      "inputs": [],
      "name": "safetyFactor",
      "outputs": [
        {
          "internalType": "uint256",
          "name": "",
          "type": "uint256"
        }
      ],
      "stateMutability": "view",
      "type": "function"
    },
    {
      "inputs": [],
      "name": "setAllowances",
      "outputs": [],
      "stateMutability": "view",
      "type": "function"
    },
    {
      "inputs": [
        {
          "internalType": "uint256",
          "name": "",
          "type": "uint256"
        }
      ],
      "name": "supportedRewards",
      "outputs": [
        {
          "internalType": "address",
          "name": "",
          "type": "address"
        }
      ],
      "stateMutability": "view",
      "type": "function"
    },
    {
      "inputs": [],
      "name": "symbol",
      "outputs": [
        {
          "internalType": "string",
          "name": "",
          "type": "string"
        }
      ],
      "stateMutability": "view",
      "type": "function"
    },
    {
      "inputs": [],
      "name": "totalDeposits",
      "outputs": [
        {
          "internalType": "uint256",
          "name": "",
          "type": "uint256"
        }
      ],
      "stateMutability": "view",
      "type": "function"
    },
    {
      "inputs": [],
      "name": "totalSupply",
      "outputs": [
        {
          "internalType": "uint256",
          "name": "",
          "type": "uint256"
        }
      ],
      "stateMutability": "view",
      "type": "function"
    },
    {
      "inputs": [
        {
          "internalType": "address",
          "name": "dst",
          "type": "address"
        },
        {
          "internalType": "uint256",
          "name": "amount",
          "type": "uint256"
        }
      ],
      "name": "transfer",
      "outputs": [
        {
          "internalType": "bool",
          "name": "",
          "type": "bool"
        }
      ],
      "stateMutability": "nonpayable",
      "type": "function"
    },
    {
      "inputs": [
        {
          "internalType": "address",
          "name": "src",
          "type": "address"
        },
        {
          "internalType": "address",
          "name": "dst",
          "type": "address"
        },
        {
          "internalType": "uint256",
          "name": "amount",
          "type": "uint256"
        }
      ],
      "name": "transferFrom",
      "outputs": [
        {
          "internalType": "bool",
          "name": "",
          "type": "bool"
        }
      ],
      "stateMutability": "nonpayable",
      "type": "function"
    },
    {
      "inputs": [
        {
          "internalType": "address",
          "name": "newOwner",
          "type": "address"
        }
      ],
      "name": "transferOwnership",
      "outputs": [],
      "stateMutability": "nonpayable",
      "type": "function"
    },
    {
      "inputs": [
        {
          "internalType": "uint256",
          "name": "newValue",
          "type": "uint256"
        }
      ],
      "name": "updateAdminFee",
      "outputs": [],
      "stateMutability": "nonpayable",
      "type": "function"
    },
    {
      "inputs": [
        {
          "internalType": "bool",
          "name": "newValue",
          "type": "bool"
        }
      ],
      "name": "updateDepositsEnabled",
      "outputs": [],
      "stateMutability": "nonpayable",
      "type": "function"
    },
    {
      "inputs": [
        {
          "internalType": "address",
          "name": "newValue",
          "type": "address"
        }
      ],
      "name": "updateDevAddr",
      "outputs": [],
      "stateMutability": "nonpayable",
      "type": "function"
    },
    {
      "inputs": [
        {
          "internalType": "uint256",
          "name": "newValue",
          "type": "uint256"
        }
      ],
      "name": "updateDevFee",
      "outputs": [],
      "stateMutability": "nonpayable",
      "type": "function"
    },
    {
      "inputs": [
        {
          "internalType": "uint256",
          "name": "_leverageLevel",
          "type": "uint256"
        },
        {
          "internalType": "uint256",
          "name": "_safetyFactor",
          "type": "uint256"
        },
        {
          "internalType": "uint256",
          "name": "_minMinting",
          "type": "uint256"
        },
        {
          "internalType": "uint256",
          "name": "_leverageBips",
          "type": "uint256"
        }
      ],
      "name": "updateLeverage",
      "outputs": [],
      "stateMutability": "nonpayable",
      "type": "function"
    },
    {
      "inputs": [
        {
          "internalType": "uint256",
          "name": "newValue",
          "type": "uint256"
        }
      ],
      "name": "updateMaxTokensToDepositWithoutReinvest",
      "outputs": [],
      "stateMutability": "nonpayable",
      "type": "function"
    },
    {
      "inputs": [
        {
          "internalType": "uint256",
          "name": "newValue",
          "type": "uint256"
        }
      ],
      "name": "updateMinTokensToReinvest",
      "outputs": [],
      "stateMutability": "nonpayable",
      "type": "function"
    },
    {
      "inputs": [
        {
          "internalType": "uint256",
          "name": "newValue",
          "type": "uint256"
        }
      ],
      "name": "updateReinvestReward",
      "outputs": [],
      "stateMutability": "nonpayable",
      "type": "function"
    },
    {
      "inputs": [
        {
          "internalType": "uint256",
          "name": "amount",
          "type": "uint256"
        }
      ],
      "name": "withdraw",
      "outputs": [],
      "stateMutability": "nonpayable",
      "type": "function"
    },
    {
      "stateMutability": "payable",
      "type": "receive"
    }
  ],
  "transactionHash": "0xb9247456bb5b21f3924792501ee72dbaec7d909e5f464e2d51564b9e12940763",
  "args": [
    "Yield Yak: Aave AVAX",
    "0x929EC64c34a17401F460460D4B9390518E5B473e",
    "0x794a61358D6845594F94dc1DB02A252b5b4814aD",
    [
      {
        "reward": "0xb31f66aa3c1e785363f0875a1b74e27b85fd66c7",
        "swapPair": "0x0000000000000000000000000000000000000000"
      }
    ],
    "0x6d80113e533a2C0fe82EaBD35f1875DcEA89Ea97",
    "0x4a1c3aD6Ed28a636ee1751C69071f6be75DEb8B8",
    "0xDcEDF06Fd33E1D7b6eb4b309f779a0e9D3172e44",
    {
      "leverageLevel": "10000",
      "safetyFactor": "0",
      "leverageBips": "10000",
      "minMinting": "100000000000000"
    },
    {
      "minTokensToReinvest": "100000000000000",
      "adminFeeBips": "0",
      "devFeeBips": "600",
      "reinvestRewardBips": "200"
    }
  ],
  "solcInputHash": "8b4559ae38ca117a76c511cc562b95fe",
  "bytecode": "0x60c060405260096080819052685969656c642059616b60b81b60a09081526200002c916000919062000aa9565b506040805180820190915260038082526216549560ea1b6020909201918252620000599160019162000aa9565b503480156200006757600080fd5b5060405162006138380380620061388339810160408190526200008a9162000cc9565b6000620000966200028e565b600680546001600160a01b0319166001600160a01b0383169081179091556040519192509060009060008051602062006118833981519152908290a35060016012558851620000ed9060009060208c019062000aa9565b50601a80546001600160a01b03808b166001600160a01b031992831617909255601b8054928a1692821692909217909155600a805490911673b31f66aa3c1e785363f0875a1b74e27b85fd66c717905581516020830151606084015160408501516200015c9392919062000292565b600b8054336001600160a01b031991821617909155601c805482166001600160a01b0388811691909117909155601d805490921690861617905560005b8651811015620001ee57620001e5878281518110620001b457fe5b602002602001015160000151888381518110620001cd57fe5b602002602001015160200151620002a660201b60201c565b60010162000199565b508051620001fc90620003da565b60208101516200020c9062000462565b60408101516200021c9062000530565b60608101516200022c90620005ea565b620002386001620006a4565b62000243836200074c565b7fc7606d21ac05cd309191543e409f0845c016120563783d70e4f41419dc0ef2346000806040516200027792919062000e49565b60405180910390a150505050505050505062000f8b565b3390565b601693909355601892909255601755601955565b600a546001600160a01b038381169116146200031157620002e98183600a60009054906101000a90046001600160a01b03166200080660201b620026c51760201c565b620003115760405162461bcd60e51b8152600401620003089062000e57565b60405180910390fd5b6001600160a01b038083166000818152601360209081526040822080549486166001600160a01b03199586161790556014805460018181018355919093527fce6d7b5282bd9a3661ae061feed1dbda4e52ab073b1f9285be6e155d9c38d4ec9092018054909416909217909255601554620003979290916200291662000a6b821b17901c565b6015556040517f916e172c080569186aa7ea048268267257cf7cc49505908863f747bca8620f8090620003ce908490849062000e24565b60405180910390a15050565b620003e46200028e565b6001600160a01b0316620003f762000a9a565b6001600160a01b031614620004205760405162461bcd60e51b8152600401620003089062000f32565b7f481f79ac3a523b6d6db3c5a720e190e986d1cc1b41adcdf50f9caef849901100600c54826040516200045592919062000e49565b60405180910390a1600c55565b6200046c6200028e565b6001600160a01b03166200047f62000a9a565b6001600160a01b031614620004a85760405162461bcd60e51b8152600401620003089062000f32565b612710620004e2600f54620004ce6011548562000a6b60201b620029161790919060201c565b62000a6b60201b620029161790919060201c565b1115620004ee57600080fd5b7f3cc372f330f95ac9540626dc8a25f5bf21ba607215a5d58304cb804d446f104a601054826040516200052392919062000e49565b60405180910390a1601055565b6200053a6200028e565b6001600160a01b03166200054d62000a9a565b6001600160a01b031614620005765760405162461bcd60e51b8152600401620003089062000f32565b6127106200059c600f54620004ce6010548562000a6b60201b620029161790919060201c565b1115620005a857600080fd5b7f2a42303d002f0ba6cfe8259c91d4684443fb0b3de286ba74991175d65172613160115482604051620005dd92919062000e49565b60405180910390a1601155565b620005f46200028e565b6001600160a01b03166200060762000a9a565b6001600160a01b031614620006305760405162461bcd60e51b8152600401620003089062000f32565b61271062000656601154620004ce6010548562000a6b60201b620029161790919060201c565b11156200066257600080fd5b7fe7f97d51d307dc44045597c9978bec0f842e6bb40d19b9444084cfa30d9ed4f2600f54826040516200069792919062000e49565b60405180910390a1600f55565b620006ae6200028e565b6001600160a01b0316620006c162000a9a565b6001600160a01b031614620006ea5760405162461bcd60e51b8152600401620003089062000f32565b600e5460ff16151581151514156200070157600080fd5b600e805460ff19168215151790556040517f7b014ed3854e7f5cb0218d58b3c6ae7d53a68bb0af2f67bfb029ea42c38a7e85906200074190839062000e3e565b60405180910390a150565b620007566200028e565b6001600160a01b03166200076962000a9a565b6001600160a01b031614620007925760405162461bcd60e51b8152600401620003089062000f32565b6001600160a01b038116620007bb5760405162461bcd60e51b8152600401620003089062000eb5565b6006546040516001600160a01b038084169216906000805160206200611883398151915290600090a3600680546001600160a01b0319166001600160a01b0392909216919091179055565b6000836001600160a01b0316630dfe16816040518163ffffffff1660e01b815260040160206040518083038186803b1580156200084257600080fd5b505afa15801562000857573d6000803e3d6000fd5b505050506040513d601f19601f820116820180604052508101906200087d919062000cac565b6001600160a01b0316836001600160a01b03161480620009225750836001600160a01b031663d21220a76040518163ffffffff1660e01b815260040160206040518083038186803b158015620008d257600080fd5b505afa158015620008e7573d6000803e3d6000fd5b505050506040513d601f19601f820116820180604052508101906200090d919062000cac565b6001600160a01b0316836001600160a01b0316145b801562000a445750836001600160a01b0316630dfe16816040518163ffffffff1660e01b815260040160206040518083038186803b1580156200096457600080fd5b505afa15801562000979573d6000803e3d6000fd5b505050506040513d601f19601f820116820180604052508101906200099f919062000cac565b6001600160a01b0316826001600160a01b0316148062000a445750836001600160a01b031663d21220a76040518163ffffffff1660e01b815260040160206040518083038186803b158015620009f457600080fd5b505afa15801562000a09573d6000803e3d6000fd5b505050506040513d601f19601f8201168201806040525081019062000a2f919062000cac565b6001600160a01b0316826001600160a01b0316145b801562000a635750816001600160a01b0316836001600160a01b031614155b949350505050565b60008282018381101562000a935760405162461bcd60e51b8152600401620003089062000efb565b9392505050565b6006546001600160a01b031690565b828054600181600116156101000203166002900490600052602060002090601f016020900481019282601f1062000aec57805160ff191683800117855562000b1c565b8280016001018555821562000b1c579182015b8281111562000b1c57825182559160200191906001019062000aff565b5062000b2a92915062000b2e565b5090565b5b8082111562000b2a576000815560010162000b2f565b80516001600160a01b038116811462000b5d57600080fd5b919050565b600082601f83011262000b73578081fd5b81516001600160401b0381111562000b8757fe5b602062000b98818284020162000f67565b828152925080830184820160408085028701840188101562000bb957600080fd5b60005b8581101562000be45762000bd1898462000c50565b8452928401929181019160010162000bbc565b50505050505092915050565b60006080828403121562000c02578081fd5b604051608081016001600160401b038111828210171562000c1f57fe5b8060405250809150825181526020830151602082015260408301516040820152606083015160608201525092915050565b60006040828403121562000c62578081fd5b604080519081016001600160401b038111828210171562000c7f57fe5b60405290508062000c908362000b45565b815262000ca06020840162000b45565b60208201525092915050565b60006020828403121562000cbe578081fd5b62000a938262000b45565b60008060008060008060008060006101e08a8c03121562000ce8578485fd5b89516001600160401b038082111562000cff578687fd5b818c0191508c601f83011262000d13578687fd5b81518181111562000d2057fe5b602062000d36601f8301601f1916820162000f67565b8281528f8284870101111562000d4a57898afd5b895b8381101562000d6957858101830151828201840152820162000d4c565b8381111562000d7a578a8385840101525b509c5062000d8a8e820162000b45565b9b50505062000d9c60408d0162000b45565b985060608c015191508082111562000db2578687fd5b5062000dc18c828d0162000b62565b96505062000dd260808b0162000b45565b945062000de260a08b0162000b45565b935062000df260c08b0162000b45565b925062000e038b60e08c0162000bf0565b915062000e158b6101608c0162000bf0565b90509295985092959850929598565b6001600160a01b0392831681529116602082015260400190565b901515815260200190565b918252602082015260400190565b602080825260409082018190527f5661726961626c655265776172647353747261746567793a3a53776170207061908201527f697220646f6573206e6f7420636f6e7461696e2072657761726420746f6b656e606082015260800190565b60208082526026908201527f4f776e61626c653a206e6577206f776e657220697320746865207a65726f206160408201526564647265737360d01b606082015260800190565b6020808252601b908201527f536166654d6174683a206164646974696f6e206f766572666c6f770000000000604082015260600190565b6020808252818101527f4f776e61626c653a2063616c6c6572206973206e6f7420746865206f776e6572604082015260600190565b6040518181016001600160401b038111828210171562000f8357fe5b604052919050565b61517d8062000f9b6000396000f3fe6080604052600436106104185760003560e01c80638da5cb5b11610228578063cff1b6ef11610128578063e21ac825116100bb578063ed24911d1161008a578063f2fde38b1161006f578063f2fde38b14610b31578063f7c618c114610b51578063fdb5a03e14610b665761045b565b8063ed24911d14610b07578063f02ecb7114610b1c5761045b565b8063e21ac82514610a92578063e592c5fa14610ab2578063e75ab04514610ac7578063eab89a5a14610ae75761045b565b8063db8dd95c116100f7578063db8dd95c14610a28578063dbd9a4d414610a3d578063dd62ed3e14610a52578063dd8ce4d614610a725761045b565b8063cff1b6ef146109cb578063d0e30db0146109eb578063d505accf146109f3578063da09c72c14610a135761045b565b8063a9059cbb116101bb578063b6b55f251161018a578063bd079f551161016f578063bd079f551461098c578063c4b24a46146109a1578063c89039c5146109b65761045b565b8063b6b55f251461095c578063b9e57b80146109775761045b565b8063a9059cbb146108f4578063aa67c91914610914578063ac0d31ff14610927578063b52a321f146109475761045b565b80639e4e7318116101f75780639e4e73181461087f578063a4d5e67c14610894578063a5534e71146108b4578063a8ae2b7c146108d45761045b565b80638da5cb5b146108085780639291d5631461082a57806395d89b411461084a57806399729ec11461085f5761045b565b80634a970be711610333578063789139bc116102c65780637ecebe00116102955780638980f11f1161027a5780638980f11f146107b35780638aff733d146107d35780638b73e606146107e85761045b565b80637ecebe001461077357806381837230146107935761045b565b8063789139bc1461071457806379085425146107295780637ae267731461073e5780637d8820971461075e5761045b565b80635ea682ea116103025780635ea682ea146106b557806362ac20a5146106ca57806370a08231146106df578063715018a6146106ff5761045b565b80634a970be71461063a5780634bebd1e7146106555780634e77ace5146106755780634ebb7916146106955761045b565b806323b872dd116103ab578063313ce5671161037a578063313ce567146105c35780633bdc6e72146105e557806340b47e1a146105fa578063483c2ef01461061a5761045b565b806323b872dd1461054e5780632e1a7d4d1461056e5780632f4f21e21461058e57806330adf81f146105ae5761045b565b806318160ddd116103e757806318160ddd146104ef5780631f15d71a1461050457806320606b701461051957806322a051411461052e5761045b565b806306fdde0314610460578063076771111461048b578063095ea7b3146104ad5780630f23475d146104da5761045b565b3661045b573373b31f66aa3c1e785363f0875a1b74e27b85fd66c7146104595760405162461bcd60e51b815260040161045090614a1f565b60405180910390fd5b005b600080fd5b34801561046c57600080fd5b50610475610b7b565b6040516104829190614795565b60405180910390f35b34801561049757600080fd5b506104a0610c09565b604051610482919061470e565b3480156104b957600080fd5b506104cd6104c836600461428a565b610c0f565b6040516104829190614703565b3480156104e657600080fd5b506104a0610c26565b3480156104fb57600080fd5b506104a0610c36565b34801561051057600080fd5b506104a0610c3c565b34801561052557600080fd5b506104a0610c42565b34801561053a57600080fd5b50610459610549366004614452565b610c66565b34801561055a57600080fd5b506104cd6105693660046141dd565b610ccf565b34801561057a57600080fd5b506104596105893660046143fe565b610db6565b34801561059a57600080fd5b506104596105a936600461428a565b61045b565b3480156105ba57600080fd5b506104a0610f0a565b3480156105cf57600080fd5b506105d8610f2e565b6040516104829190615029565b3480156105f157600080fd5b506104a0610f33565b34801561060657600080fd5b506104596106153660046141a5565b610f39565b34801561062657600080fd5b506104cd61063536600461416d565b610f71565b34801561064657600080fd5b506104596105a9366004614483565b34801561066157600080fd5b5061045961067036600461416d565b610f86565b34801561068157600080fd5b50610459610690366004614378565b61106a565b3480156106a157600080fd5b506104596106b03660046143fe565b611108565b3480156106c157600080fd5b506104a06111b4565b3480156106d657600080fd5b506104a06111ba565b3480156106eb57600080fd5b506104a06106fa36600461416d565b6111c0565b34801561070b57600080fd5b506104596111df565b34801561072057600080fd5b506104a0611268565b34801561073557600080fd5b506104a061126e565b34801561074a57600080fd5b506104596107593660046141a5565b611274565b34801561076a57600080fd5b506104a061133d565b34801561077f57600080fd5b506104a061078e36600461416d565b611361565b34801561079f57600080fd5b506104596107ae3660046143fe565b611373565b3480156107bf57600080fd5b506104596107ce36600461428a565b6113f2565b3480156107df57600080fd5b506104a0611504565b3480156107f457600080fd5b5061045961080336600461416d565b61150a565b34801561081457600080fd5b5061081d611610565b60405161048291906145ba565b34801561083657600080fd5b5061045961084536600461416d565b61161f565b34801561085657600080fd5b506104756116b2565b34801561086b57600080fd5b5061045961087a3660046143fe565b61170c565b34801561088b57600080fd5b506104a06117ba565b3480156108a057600080fd5b506104596108af36600461416d565b6117de565b3480156108c057600080fd5b5061081d6108cf36600461416d565b611965565b3480156108e057600080fd5b506104596108ef3660046143fe565b611980565b34801561090057600080fd5b506104cd61090f36600461428a565b611a28565b61045961092236600461416d565b611a35565b34801561093357600080fd5b5061045961094236600461442e565b611ada565b34801561095357600080fd5b506104cd611d71565b34801561096857600080fd5b506104596105a93660046143fe565b34801561098357600080fd5b506104a0611d7a565b34801561099857600080fd5b506104a0611dbb565b3480156109ad57600080fd5b506104a0611dc1565b3480156109c257600080fd5b5061081d61211d565b3480156109d757600080fd5b506104596109e63660046143fe565b61212c565b6104596121d4565b3480156109ff57600080fd5b50610459610a0e36600461421d565b612278565b348015610a1f57600080fd5b5061081d61232d565b348015610a3457600080fd5b506104a061233c565b348015610a4957600080fd5b5061045961236e565b348015610a5e57600080fd5b506104a0610a6d3660046141a5565b6123c5565b348015610a7e57600080fd5b506104a0610a8d3660046143fe565b6123f0565b348015610a9e57600080fd5b50610459610aad3660046143fe565b61242a565b348015610abe57600080fd5b506104a06124a9565b348015610ad357600080fd5b5061081d610ae23660046143fe565b6124af565b348015610af357600080fd5b506104a0610b023660046143fe565b6124d6565b348015610b1357600080fd5b506104a0612507565b348015610b2857600080fd5b506104a061259e565b348015610b3d57600080fd5b50610459610b4c36600461416d565b6125a4565b348015610b5d57600080fd5b5061081d612665565b348015610b7257600080fd5b50610459612674565b6000805460408051602060026001851615610100026000190190941693909304601f81018490048402820184019092528181529291830182828015610c015780601f10610bd657610100808354040283529160200191610c01565b820191906000526020600020905b815481529060010190602001808311610be457829003601f168201915b505050505081565b60105481565b6000610c1c338484612942565b5060015b92915050565b6000610c3061133d565b90505b90565b60025481565b60185481565b7f8b73c3c69bb8fe3d512ecc4cf759cc79239f7b179b0ffacaa9a75d522b39400f81565b600b546001600160a01b03163314610c905760405162461bcd60e51b815260040161045090614d95565b610c9c848484846129f6565b600080610ca7612a0a565b509092509050610cbf610cba8383612b7d565b612bbf565b610cc7612ce7565b505050505050565b6001600160a01b038316600081815260036020908152604080832033808552925282205491929091908214801590610d0957506000198114155b15610d9f576000610d35856040518060600160405280602f81526020016150c4602f9139849190612fc0565b6001600160a01b03808916600081815260036020908152604080832094891680845294909152908190208490555192935090917f8c5be1e5ebec7d5bd14f71427d1e84f3dd0314c0f7b2291e5b200ac8c7c3b92590610d9590859061470e565b60405180910390a3505b610daa868686612fec565b50600195945050505050565b60026012541415610dd95760405162461bcd60e51b815260040161045090614f77565b60026012819055506000610e01600254610dfb84610df561133d565b906130d0565b9061310a565b90506019548111610e245760405162461bcd60e51b815260040161045090614ac4565b8015610f0157610e34338361314c565b6000610e3f82613226565b90506000336001600160a01b031682604051610e5a90610c33565b60006040518083038185875af1925050503d8060008114610e97576040519150601f19603f3d011682016040523d82523d6000602084013e610e9c565b606091505b5050905080610ebd5760405162461bcd60e51b815260040161045090614e86565b336001600160a01b03167f884edad9ce6fa2440d8a54cc123490eb96d2768479d49ff9c7366125a942436483604051610ef6919061470e565b60405180910390a250505b50506001601255565b7f6e71edae12b1b97f4d1f60370fef10105fa2faae0126114a169c64845d6126c981565b601281565b60075481565b600b546001600160a01b03163314610f635760405162461bcd60e51b815260040161045090614d95565b610f6d8282613375565b5050565b60086020526000908152604090205460ff1681565b610f8e61346b565b6001600160a01b0316610f9f611610565b6001600160a01b031614610fc55760405162461bcd60e51b815260040161045090614c38565b6001600160a01b03811660009081526008602052604090205460ff1615610ffe5760405162461bcd60e51b8152600401610450906149e8565b6001600160a01b0381166000908152600860205260409020805460ff1916600190811790915560075461103091612916565b6007556040516001600160a01b038216907fc0a1035c16faf8d1304056d92c00edf028f87e62b8235a938f00af9e3c0312c590600090a250565b61107261346b565b6001600160a01b0316611083611610565b6001600160a01b0316146110a95760405162461bcd60e51b815260040161045090614c38565b600e5460ff16151581151514156110bf57600080fd5b600e805460ff19168215151790556040517f7b014ed3854e7f5cb0218d58b3c6ae7d53a68bb0af2f67bfb029ea42c38a7e85906110fd908390614703565b60405180910390a150565b61111061346b565b6001600160a01b0316611121611610565b6001600160a01b0316146111475760405162461bcd60e51b815260040161045090614c38565b6000811161115457600080fd5b604051339082156108fc029083906000818181858888f19350505050158015611181573d6000803e3d6000fd5b507f8c1256b8896378cd5044f80c202f9772b9d77dc85c8a6eb51967210b09bfaa286000826040516110fd9291906145ce565b60115481565b60195481565b6001600160a01b0381166000908152600460205260409020545b919050565b6111e761346b565b6001600160a01b03166111f8611610565b6001600160a01b03161461121e5760405162461bcd60e51b815260040161045090614c38565b6006546040516000916001600160a01b0316907f8be0079c531659141344cd1fd0a4f28419497f9722a3daafe3b4186f6b6457e0908390a3600680546001600160a01b0319169055565b600d5481565b60155481565b61127c61346b565b6001600160a01b031661128d611610565b6001600160a01b0316146112b35760405162461bcd60e51b815260040161045090614c38565b60405163095ea7b360e01b81526001600160a01b0383169063095ea7b3906112e29084906000906004016145ce565b602060405180830381600087803b1580156112fc57600080fd5b505af1158015611310573d6000803e3d6000fd5b505050506040513d601f19601f820116820180604052508101906113349190614394565b610f6d57600080fd5b600080600061134a612a0a565b50909250905061135a8282612b7d565b9250505090565b60056020526000908152604090205481565b61137b61346b565b6001600160a01b031661138c611610565b6001600160a01b0316146113b25760405162461bcd60e51b815260040161045090614c38565b7f481f79ac3a523b6d6db3c5a720e190e986d1cc1b41adcdf50f9caef849901100600c54826040516113e5929190614fe3565b60405180910390a1600c55565b6113fa61346b565b6001600160a01b031661140b611610565b6001600160a01b0316146114315760405162461bcd60e51b815260040161045090614c38565b6000811161143e57600080fd5b60405163a9059cbb60e01b81526001600160a01b0383169063a9059cbb9061146c90339085906004016145ce565b602060405180830381600087803b15801561148657600080fd5b505af115801561149a573d6000803e3d6000fd5b505050506040513d601f19601f820116820180604052508101906114be9190614394565b6114c757600080fd5b7f8c1256b8896378cd5044f80c202f9772b9d77dc85c8a6eb51967210b09bfaa2882826040516114f89291906145ce565b60405180910390a15050565b600f5481565b61151261346b565b6001600160a01b0316611523611610565b6001600160a01b0316146115495760405162461bcd60e51b815260040161045090614c38565b60006007541161156b5760405162461bcd60e51b81526004016104509061492e565b6001600160a01b03811660009081526008602052604090205460ff1615156001146115a85760405162461bcd60e51b815260040161045090614b21565b6001600160a01b0381166000908152600860205260409020805460ff191690556007546115d6906001612b7d565b6007556040516001600160a01b038216907f0e86f6608b536e5339a25b65ff531f5ea91e1313d056ecd4752b35cbd16137d490600090a250565b6006546001600160a01b031690565b600b546001600160a01b031633146116495760405162461bcd60e51b815260040161045090614d95565b600b546040517fa8e91499ed37682f43cffb045fcc7d379a91e8c9a14e6321877ee34dee564c0091611688916001600160a01b039091169084906145e7565b60405180910390a1600b80546001600160a01b0319166001600160a01b0392909216919091179055565b60018054604080516020600284861615610100026000190190941693909304601f81018490048402820184019092528181529291830182828015610c015780601f10610bd657610100808354040283529160200191610c01565b61171461346b565b6001600160a01b0316611725611610565b6001600160a01b03161461174b5760405162461bcd60e51b815260040161045090614c38565b61271061176f600f546117696010548561291690919063ffffffff16565b90612916565b111561177a57600080fd5b7f2a42303d002f0ba6cfe8259c91d4684443fb0b3de286ba74991175d651726131601154826040516117ad929190614fe3565b60405180910390a1601155565b7fc89efdaa54c0f20c7adf612882df0950f5a951637e0307cdcb4c672f298b8bc681565b600b546001600160a01b031633146118085760405162461bcd60e51b815260040161045090614d95565b6001600160a01b038116600090815260136020526040812080546001600160a01b0319169055805b6014548110156118d9576014818154811061184757fe5b6000918252602090912001546001600160a01b03848116911614156118d1576014805460019350600019810190811061187c57fe5b600091825260209091200154601480546001600160a01b0390921691839081106118a257fe5b9060005260206000200160006101000a8154816001600160a01b0302191690836001600160a01b031602179055505b600101611830565b50806118f75760405162461bcd60e51b815260040161045090614b7e565b601480548061190257fe5b600082815260209020810160001990810180546001600160a01b0319169055019055601554611932906001612b7d565b6015556040517f963b7c735475147a62c589c2d7cb8ec4b0a6b7af4f97373d79ebfa42ab8aa7dc906114f89084906145ba565b6013602052600090815260409020546001600160a01b031681565b61198861346b565b6001600160a01b0316611999611610565b6001600160a01b0316146119bf5760405162461bcd60e51b815260040161045090614c38565b6127106119dd6011546117696010548561291690919063ffffffff16565b11156119e857600080fd5b7fe7f97d51d307dc44045597c9978bec0f842e6bb40d19b9444084cfa30d9ed4f2600f5482604051611a1b929190614fe3565b60405180910390a1600f55565b6000610c1c338484612fec565b60026012541415611a585760405162461bcd60e51b815260040161045090614f77565b600260128190555073b31f66aa3c1e785363f0875a1b74e27b85fd66c76001600160a01b031663d0e30db0346040518263ffffffff1660e01b81526004016000604051808303818588803b158015611aaf57600080fd5b505af1158015611ac3573d6000803e3d6000fd5b5050505050611ad2813461346f565b506001601255565b611ae261346b565b6001600160a01b0316611af3611610565b6001600160a01b031614611b195760405162461bcd60e51b815260040161045090614c38565b6040516370a0823160e01b815260009073b31f66aa3c1e785363f0875a1b74e27b85fd66c7906370a0823190611b539030906004016145ba565b60206040518083038186803b158015611b6b57600080fd5b505afa158015611b7f573d6000803e3d6000fd5b505050506040513d601f19601f82011682018060405250810190611ba39190614416565b9050600080611bb0612a0a565b509092509050611bc3610cba8383612b7d565b601b54604051631a4ca37b60e21b81526001600160a01b03909116906369328dec90611c0d9073b31f66aa3c1e785363f0875a1b74e27b85fd66c790600019903090600401614601565b602060405180830381600087803b158015611c2757600080fd5b505af1158015611c3b573d6000803e3d6000fd5b505050506040513d601f19601f82011682018060405250810190611c5f9190614416565b506040516370a0823160e01b815260009073b31f66aa3c1e785363f0875a1b74e27b85fd66c7906370a0823190611c9a9030906004016145ba565b60206040518083038186803b158015611cb257600080fd5b505afa158015611cc6573d6000803e3d6000fd5b505050506040513d601f19601f82011682018060405250810190611cea9190614416565b905085611cf78286612b7d565b1015611d155760405162461bcd60e51b815260040161045090614c6d565b7fc7606d21ac05cd309191543e409f0845c016120563783d70e4f41419dc0ef234611d3e61133d565b600254604051611d4f929190614fe3565b60405180910390a1600e5460ff16151560011415610cc757610cc7600061106a565b600e5460ff1681565b600080611d85611dc1565b9050600c548110611db357611dab612710610dfb600f54846130d090919063ffffffff16565b915050610c33565b600091505090565b600c5481565b60408051600280825260608083018452600093909291906020830190803683375050601c5482519293506001600160a01b031691839150600090611e0157fe5b6001600160a01b039283166020918202929092010152601d54825191169082906001908110611e2c57fe5b6001600160a01b039283166020918202929092010152601a546040517f4c0369c300000000000000000000000000000000000000000000000000000000815260609283921690634c0369c390611e8890869030906004016146a6565b60006040518083038186803b158015611ea057600080fd5b505afa158015611eb4573d6000803e3d6000fd5b505050506040513d6000823e601f3d908101601f19168201604052611edc91908101906142b5565b6040516370a0823160e01b8152919350915060009073b31f66aa3c1e785363f0875a1b74e27b85fd66c7906370a0823190611f1b9030906004016145ba565b60206040518083038186803b158015611f3357600080fd5b505afa158015611f47573d6000803e3d6000fd5b505050506040513d601f19601f82011682018060405250810190611f6b9190614416565b9050611f778147612916565b5060005b8351811015612114576000848281518110611f9257fe5b6020026020010151905073b31f66aa3c1e785363f0875a1b74e27b85fd66c76001600160a01b0316816001600160a01b03161415611ff757611ff0848381518110611fd957fe5b60200260200101518461291690919063ffffffff16565b925061210b565b6040516370a0823160e01b81526000906001600160a01b038316906370a08231906120269030906004016145ba565b60206040518083038186803b15801561203e57600080fd5b505afa158015612052573d6000803e3d6000fd5b505050506040513d601f19601f820116820180604052508101906120769190614416565b905060006120a086858151811061208957fe5b60200260200101518361291690919063ffffffff16565b6001600160a01b038085166000908152601360205260409020549192501681158015906120d557506001600160a01b03811615155b15612107576121046120fd838673b31f66aa3c1e785363f0875a1b74e27b85fd66c78561355b565b8790612916565b95505b5050505b50600101611f7b565b50935050505090565b6009546001600160a01b031681565b61213461346b565b6001600160a01b0316612145611610565b6001600160a01b03161461216b5760405162461bcd60e51b815260040161045090614c38565b612710612189600f546117696011548561291690919063ffffffff16565b111561219457600080fd5b7f3cc372f330f95ac9540626dc8a25f5bf21ba607215a5d58304cb804d446f104a601054826040516121c7929190614fe3565b60405180910390a1601055565b600260125414156121f75760405162461bcd60e51b815260040161045090614f77565b600260128190555073b31f66aa3c1e785363f0875a1b74e27b85fd66c76001600160a01b031663d0e30db0346040518263ffffffff1660e01b81526004016000604051808303818588803b15801561224e57600080fd5b505af1158015612262573d6000803e3d6000fd5b5050505050612271333461346f565b6001601255565b428410156122985760405162461bcd60e51b815260040161045090614a8d565b6001600160a01b038716600090815260056020908152604080832080546001810190915590516122f3927f6e71edae12b1b97f4d1f60370fef10105fa2faae0126114a169c64845d6126c9928c928c928c92918c9101614717565b6040516020818303038152906040528051906020012090506123188882868686613636565b612323888888612942565b5050505050505050565b600b546001600160a01b031681565b6000806000612349612a0a565b50909250905061135a61235c8383612b7d565b610dfb84670de0b6b3a76400006130d0565b61237661346b565b6001600160a01b0316612387611610565b6001600160a01b0316146123ad5760405162461bcd60e51b815260040161045090614c38565b60405162461bcd60e51b815260040161045090614d5e565b6001600160a01b03918216600090815260036020908152604080832093909416825291909152205490565b60006124066123fd61133d565b600254906130d0565b6124115750806111da565b610c2061241c61133d565b600254610dfb9085906130d0565b61243261346b565b6001600160a01b0316612443611610565b6001600160a01b0316146124695760405162461bcd60e51b815260040161045090614c38565b7fa5dae50539d56dfe1fb5273d883b0c39bc76750a25d036fc5fbd09ad8fd5f57f600d548260405161249c929190614fe3565b60405180910390a1600d55565b60165481565b601481815481106124bc57fe5b6000918252602090912001546001600160a01b0316905081565b60006124e36123fd61133d565b6124ef575060006111da565b610c20600254610dfb61250061133d565b85906130d0565b60007f8b73c3c69bb8fe3d512ecc4cf759cc79239f7b179b0ffacaa9a75d522b39400f60001b600060405161253c9190614514565b6040519081900390207fc89efdaa54c0f20c7adf612882df0950f5a951637e0307cdcb4c672f298b8bc661256e613703565b3060405160200161258395949392919061474b565b60405160208183030381529060405280519060200120905090565b60175481565b6125ac61346b565b6001600160a01b03166125bd611610565b6001600160a01b0316146125e35760405162461bcd60e51b815260040161045090614c38565b6001600160a01b0381166126095760405162461bcd60e51b815260040161045090614806565b6006546040516001600160a01b038084169216907f8be0079c531659141344cd1fd0a4f28419497f9722a3daafe3b4186f6b6457e090600090a3600680546001600160a01b0319166001600160a01b0392909216919091179055565b600a546001600160a01b031681565b3233146126935760405162461bcd60e51b815260040161045090614863565b600260125414156126b65760405162461bcd60e51b815260040161045090614f77565b60026012556122716000613707565b6000836001600160a01b0316630dfe16816040518163ffffffff1660e01b815260040160206040518083038186803b15801561270057600080fd5b505afa158015612714573d6000803e3d6000fd5b505050506040513d601f19601f820116820180604052508101906127389190614189565b6001600160a01b0316836001600160a01b031614806127d85750836001600160a01b031663d21220a76040518163ffffffff1660e01b815260040160206040518083038186803b15801561278b57600080fd5b505afa15801561279f573d6000803e3d6000fd5b505050506040513d601f19601f820116820180604052508101906127c39190614189565b6001600160a01b0316836001600160a01b0316145b80156128f05750836001600160a01b0316630dfe16816040518163ffffffff1660e01b815260040160206040518083038186803b15801561281857600080fd5b505afa15801561282c573d6000803e3d6000fd5b505050506040513d601f19601f820116820180604052508101906128509190614189565b6001600160a01b0316826001600160a01b031614806128f05750836001600160a01b031663d21220a76040518163ffffffff1660e01b815260040160206040518083038186803b1580156128a357600080fd5b505afa1580156128b7573d6000803e3d6000fd5b505050506040513d601f19601f820116820180604052508101906128db9190614189565b6001600160a01b0316826001600160a01b0316145b801561290e5750816001600160a01b0316836001600160a01b031614155b949350505050565b60008282018381101561293b5760405162461bcd60e51b81526004016104509061489a565b9392505050565b6001600160a01b0383166129685760405162461bcd60e51b815260040161045090614cca565b6001600160a01b03821661298e5760405162461bcd60e51b815260040161045090614f40565b6001600160a01b0380841660008181526003602090815260408083209487168084529490915290819020849055517f8c5be1e5ebec7d5bd14f71427d1e84f3dd0314c0f7b2291e5b200ac8c7c3b925906129e990859061470e565b60405180910390a3505050565b601693909355601892909255601755601955565b601c546040516370a0823160e01b8152600091829182916001600160a01b0316906370a0823190612a3f9030906004016145ba565b60206040518083038186803b158015612a5757600080fd5b505afa158015612a6b573d6000803e3d6000fd5b505050506040513d601f19601f82011682018060405250810190612a8f9190614416565b601d546040516370a0823160e01b81529194506001600160a01b0316906370a0823190612ac09030906004016145ba565b60206040518083038186803b158015612ad857600080fd5b505afa158015612aec573d6000803e3d6000fd5b505050506040513d601f19601f82011682018060405250810190612b109190614416565b91506000905081612b3e601654610dfb612b37601854601654612b7d90919063ffffffff16565b87906130d0565b1115612b7857612b7582612b6f601654610dfb612b68601854601654612b7d90919063ffffffff16565b88906130d0565b90612b7d565b90505b909192565b600061293b83836040518060400160405280601f81526020017f536166654d6174683a207375627472616374696f6e20756e646572666c6f7700815250612fc0565b6000806000612bcc612a0a565b919450925090506000612c14612be686612b6f8787612b7d565b612b6f601854610dfb612c06601754601654612b7d90919063ffffffff16565b610df58b612b6f8c8c612b7d565b90506000612c228483612b7d565b90508015610cc757601b546040517f2dad97d40000000000000000000000000000000000000000000000000000000081526001600160a01b0390911690632dad97d490612c8c9073b31f66aa3c1e785363f0875a1b74e27b85fd66c7908590600290600401614651565b602060405180830381600087803b158015612ca657600080fd5b505af1158015612cba573d6000803e3d6000fd5b505050506040513d601f19601f82011682018060405250810190612cde9190614416565b50505050505050565b6000806000612cf4612a0a565b9250925092506000612d26601854610dfb612d1c601754601654612b7d90919063ffffffff16565b610df58888612b7d565b601b5460405163095ea7b360e01b815291925073b31f66aa3c1e785363f0875a1b74e27b85fd66c79163095ea7b391612d6f916001600160a01b039091169085906004016145ce565b602060405180830381600087803b158015612d8957600080fd5b505af1158015612d9d573d6000803e3d6000fd5b505050506040513d601f19601f82011682018060405250810190612dc19190614394565b505b80841015612f225780612dd68584612916565b1115612de957612de68185612b7d565b91505b601954821015612df857612f22565b601b546040517fa415bcad0000000000000000000000000000000000000000000000000000000081526001600160a01b039091169063a415bcad90612e5f9073b31f66aa3c1e785363f0875a1b74e27b85fd66c79086906002906000903090600401614672565b600060405180830381600087803b158015612e7957600080fd5b505af1158015612e8d573d6000803e3d6000fd5b5050601b5460405163617ba03760e01b81526001600160a01b03909116925063617ba0379150612edc9073b31f66aa3c1e785363f0875a1b74e27b85fd66c79086903090600090600401614624565b600060405180830381600087803b158015612ef657600080fd5b505af1158015612f0a573d6000803e3d6000fd5b50505050612f16612a0a565b91955093509150612dc3565b601b5460405163095ea7b360e01b815273b31f66aa3c1e785363f0875a1b74e27b85fd66c79163095ea7b391612f67916001600160a01b0316906000906004016145ce565b602060405180830381600087803b158015612f8157600080fd5b505af1158015612f95573d6000803e3d6000fd5b505050506040513d601f19601f82011682018060405250810190612fb99190614394565b5050505050565b60008184841115612fe45760405162461bcd60e51b81526004016104509190614795565b505050900390565b6001600160a01b0382166130125760405162461bcd60e51b815260040161045090614d01565b61304f816040518060600160405280602e815260200161511a602e91396001600160a01b0386166000908152600460205260409020549190612fc0565b6001600160a01b03808516600090815260046020526040808220939093559084168152205461307e9082612916565b6001600160a01b0380841660008181526004602052604090819020939093559151908516907fddf252ad1be2c89b69c2b068fc378daa952ba7f163c4a11628f55a4df523b3ef906129e990859061470e565b6000826130df57506000610c20565b828202828482816130ec57fe5b041461293b5760405162461bcd60e51b815260040161045090614bdb565b600061293b83836040518060400160405280601a81526020017f536166654d6174683a206469766973696f6e206279207a65726f000000000000815250613938565b613189816040518060600160405280602781526020016150f3602791396001600160a01b0385166000908152600460205260409020549190612fc0565b60046000846001600160a01b03166001600160a01b03168152602001908152602001600020819055506131d98160405180606001604052806027815260200161509d602791396002549190612fc0565b6002556040516000906001600160a01b038416907fddf252ad1be2c89b69c2b068fc378daa952ba7f163c4a11628f55a4df523b3ef9061321a90859061470e565b60405180910390a35050565b600061323182612bbf565b600061323b612a0a565b505090508083111561324d5760001992505b601b54604051631a4ca37b60e21b81526000916001600160a01b0316906369328dec906132969073b31f66aa3c1e785363f0875a1b74e27b85fd66c79088903090600401614601565b602060405180830381600087803b1580156132b057600080fd5b505af11580156132c4573d6000803e3d6000fd5b505050506040513d601f19601f820116820180604052508101906132e89190614416565b6040517f2e1a7d4d00000000000000000000000000000000000000000000000000000000815290915073b31f66aa3c1e785363f0875a1b74e27b85fd66c790632e1a7d4d9061333b90849060040161470e565b600060405180830381600087803b15801561335557600080fd5b505af1158015613369573d6000803e3d6000fd5b5050505061293b612ce7565b600a546001600160a01b038381169116146133bf57600a546133a390829084906001600160a01b03166126c5565b6133bf5760405162461bcd60e51b8152600401610450906147a8565b6001600160a01b03808316600081815260136020526040812080549385166001600160a01b03199485161790556014805460018181018355919092527fce6d7b5282bd9a3661ae061feed1dbda4e52ab073b1f9285be6e155d9c38d4ec909101805490931690911790915560155461343691612916565b6015556040517f916e172c080569186aa7ea048268267257cf7cc49505908863f747bca8620f80906114f890849084906145e7565b3390565b600754156134ab573360009081526008602052604090205460ff1615156001146134ab5760405162461bcd60e51b8152600401610450906148d1565b600e5460ff1615156001146134d25760405162461bcd60e51b815260040161045090614a56565b600d54156134fb5760006134e4611dc1565b9050600d548111156134f9576134f982613707565b505b61350d82613508836123f0565b61396f565b613516816139f1565b816001600160a01b03167fe1fffcc4923d04b559f4d29a8bfc6cda04eb5b0d3c460751c2402c5c5cc9109c8260405161354f919061470e565b60405180910390a25050565b6000806135688585613b30565b509050600080846001600160a01b0316630902f1ac6040518163ffffffff1660e01b815260040160606040518083038186803b1580156135a757600080fd5b505afa1580156135bb573d6000803e3d6000fd5b505050506040513d601f19601f820116820180604052508101906135df91906143b0565b5091509150866001600160a01b0316836001600160a01b0316146135ff57905b61362a88836dffffffffffffffffffffffffffff16836dffffffffffffffffffffffffffff16613b61565b98975050505050505050565b6000613640612507565b85604051602001613652929190614584565b60405160208183030381529060405280519060200120905060006001828686866040516000815260200160405260405161368f9493929190614777565b6020604051602081039080840390855afa1580156136b1573d6000803e3d6000fd5b5050604051601f1901519150506001600160a01b038116158015906136e75750866001600160a01b0316816001600160a01b0316145b612cde5760405162461bcd60e51b81526004016104509061498b565b4690565b60408051600280825260608083018452926020830190803683375050601c5482519293506001600160a01b03169183915060009061374157fe5b6001600160a01b039283166020918202929092010152601d5482519116908290600190811061376c57fe5b6001600160a01b039283166020918202929092010152601a546040517fbb492bf500000000000000000000000000000000000000000000000000000000815291169063bb492bf5906137c490849030906004016146a6565b600060405180830381600087803b1580156137de57600080fd5b505af11580156137f2573d6000803e3d6000fd5b505050506040513d6000823e601f3d908101601f1916820160405261381a91908101906142b5565b50506000613826613ba9565b90506138328184612b7d565b90508261385b57600c5481101561385b5760405162461bcd60e51b815260040161045090614dcc565b6000613878612710610dfb601154856130d090919063ffffffff16565b9050801561389d57600a54600b5461389d916001600160a01b03908116911683613df2565b60006138ba612710610dfb600f54866130d090919063ffffffff16565b905080156138d957600a546138d9906001600160a01b03163383613df2565b6138ef6138ea82612b6f8686612b7d565b6139f1565b7fc7606d21ac05cd309191543e409f0845c016120563783d70e4f41419dc0ef23461391861133d565b600254604051613929929190614fe3565b60405180910390a15050505050565b600081836139595760405162461bcd60e51b81526004016104509190614795565b50600083858161396557fe5b0495945050505050565b60025461397c9082612916565b6002556001600160a01b0382166000908152600460205260409020546139a29082612916565b6001600160a01b0383166000818152600460205260408082209390935591519091907fddf252ad1be2c89b69c2b068fc378daa952ba7f163c4a11628f55a4df523b3ef9061321a90859061470e565b60008111613a115760405162461bcd60e51b815260040161045090614e29565b601b5460405163095ea7b360e01b815273b31f66aa3c1e785363f0875a1b74e27b85fd66c79163095ea7b391613a55916001600160a01b03169085906004016145ce565b602060405180830381600087803b158015613a6f57600080fd5b505af1158015613a83573d6000803e3d6000fd5b505050506040513d601f19601f82011682018060405250810190613aa79190614394565b50601b5460405163617ba03760e01b81526001600160a01b039091169063617ba03790613af39073b31f66aa3c1e785363f0875a1b74e27b85fd66c79085903090600090600401614624565b600060405180830381600087803b158015613b0d57600080fd5b505af1158015613b21573d6000803e3d6000fd5b50505050613b2d612ce7565b50565b600080826001600160a01b0316846001600160a01b031610613b53578284613b56565b83835b915091509250929050565b600080613b70856103e56130d0565b90506000613b7e82856130d0565b90506000613b9283611769886103e86130d0565b9050613b9e828261310a565b979650505050505050565b6040516370a0823160e01b8152600090819073b31f66aa3c1e785363f0875a1b74e27b85fd66c7906370a0823190613be59030906004016145ba565b60206040518083038186803b158015613bfd57600080fd5b505afa158015613c11573d6000803e3d6000fd5b505050506040513d601f19601f82011682018060405250810190613c359190614416565b60145490915060005b81811015613dea57600060148281548110613c5557fe5b6000918252602090912001546001600160a01b0316905073b31f66aa3c1e785363f0875a1b74e27b85fd66c7811415613d1457478015613d0d5773b31f66aa3c1e785363f0875a1b74e27b85fd66c76001600160a01b031663d0e30db0826040518263ffffffff1660e01b81526004016000604051808303818588803b158015613cde57600080fd5b505af1158015613cf2573d6000803e3d6000fd5b5050505050613d0a818661291690919063ffffffff16565b94505b5050613de2565b6040516370a0823160e01b81526000906001600160a01b038316906370a0823190613d439030906004016145ba565b60206040518083038186803b158015613d5b57600080fd5b505afa158015613d6f573d6000803e3d6000fd5b505050506040513d601f19601f82011682018060405250810190613d939190614416565b90508015613ddf576001600160a01b03808316600090815260136020526040902054168015613ddd57600a54613dda906120fd90849086906001600160a01b031685613e93565b95505b505b50505b600101613c3e565b509091505090565b60405163a9059cbb60e01b81526001600160a01b0384169063a9059cbb90613e2090859085906004016145ce565b602060405180830381600087803b158015613e3a57600080fd5b505af1158015613e4e573d6000803e3d6000fd5b505050506040513d601f19601f82011682018060405250810190613e729190614394565b613e8e5760405162461bcd60e51b815260040161045090614ee3565b505050565b600080613ea08585613b30565b509050600080846001600160a01b0316630902f1ac6040518163ffffffff1660e01b815260040160606040518083038186803b158015613edf57600080fd5b505afa158015613ef3573d6000803e3d6000fd5b505050506040513d601f19601f82011682018060405250810190613f1791906143b0565b5091509150866001600160a01b0316836001600160a01b031614613f3757905b600080613f658a856dffffffffffffffffffffffffffff16856dffffffffffffffffffffffffffff16613b61565b9050886001600160a01b0316856001600160a01b031614613f8257905b613f8d89888c614034565b604080516000815260208101918290527f022c0d9f000000000000000000000000000000000000000000000000000000009091526001600160a01b0388169063022c0d9f90613fe59085908590309060248101614ff1565b600060405180830381600087803b158015613fff57600080fd5b505af1158015614013573d6000803e3d6000fd5b505050508181116140245781614026565b805b9a9950505050505050505050565b60405163a9059cbb60e01b81526001600160a01b0384169063a9059cbb9061406290859085906004016145ce565b602060405180830381600087803b15801561407c57600080fd5b505af1158015614090573d6000803e3d6000fd5b505050506040513d601f19601f820116820180604052508101906140b49190614394565b613e8e5760405162461bcd60e51b815260040161045090614fae565b600082601f8301126140e0578081fd5b81516140f36140ee8261505b565b615037565b81815291506020808301908481018184028601820187101561411457600080fd5b60005b8481101561413357815184529282019290820190600101614117565b505050505092915050565b80516dffffffffffffffffffffffffffff811681146111da57600080fd5b803560ff811681146111da57600080fd5b60006020828403121561417e578081fd5b813561293b81615079565b60006020828403121561419a578081fd5b815161293b81615079565b600080604083850312156141b7578081fd5b82356141c281615079565b915060208301356141d281615079565b809150509250929050565b6000806000606084860312156141f1578081fd5b83356141fc81615079565b9250602084013561420c81615079565b929592945050506040919091013590565b600080600080600080600060e0888a031215614237578283fd5b873561424281615079565b9650602088013561425281615079565b9550604088013594506060880135935061426e6080890161415c565b925060a0880135915060c0880135905092959891949750929550565b6000806040838503121561429c578182fd5b82356142a781615079565b946020939093013593505050565b600080604083850312156142c7578182fd5b825167ffffffffffffffff808211156142de578384fd5b818501915085601f8301126142f1578384fd5b81516142ff6140ee8261505b565b80828252602080830192508086018a82838702890101111561431f578889fd5b8896505b8487101561434a57805161433681615079565b845260019690960195928101928101614323565b508801519096509350505080821115614361578283fd5b5061436e858286016140d0565b9150509250929050565b600060208284031215614389578081fd5b813561293b8161508e565b6000602082840312156143a5578081fd5b815161293b8161508e565b6000806000606084860312156143c4578283fd5b6143cd8461413e565b92506143db6020850161413e565b9150604084015163ffffffff811681146143f3578182fd5b809150509250925092565b60006020828403121561440f578081fd5b5035919050565b600060208284031215614427578081fd5b5051919050565b60008060408385031215614440578182fd5b8235915060208301356141d28161508e565b60008060008060808587031215614467578182fd5b5050823594602084013594506040840135936060013592509050565b600080600080600060a0868803121561449a578283fd5b85359450602086013593506144b16040870161415c565b94979396509394606081013594506080013592915050565b60008151808452815b818110156144ee576020818501810151868301820152016144d2565b818111156144ff5782602083870101525b50601f01601f19169290920160200192915050565b6000808354600180821660008114614533576001811461454a57614579565b60ff198316865260028304607f1686019350614579565b600283048786526020808720875b838110156145715781548a820152908501908201614558565b505050860193505b509195945050505050565b7f190100000000000000000000000000000000000000000000000000000000000081526002810192909252602282015260420190565b6001600160a01b0391909116815260200190565b6001600160a01b03929092168252602082015260400190565b6001600160a01b0392831681529116602082015260400190565b6001600160a01b0393841681526020810192909252909116604082015260600190565b6001600160a01b03948516815260208101939093529216604082015261ffff909116606082015260800190565b6001600160a01b039390931683526020830191909152604082015260600190565b6001600160a01b0395861681526020810194909452604084019290925261ffff166060830152909116608082015260a00190565b604080825283519082018190526000906020906060840190828701845b828110156146e85781516001600160a01b0316845292840192908401906001016146c3565b5050506001600160a01b039490941692019190915250919050565b901515815260200190565b90815260200190565b9586526001600160a01b0394851660208701529290931660408501526060840152608083019190915260a082015260c00190565b9485526020850193909352604084019190915260608301526001600160a01b0316608082015260a00190565b93845260ff9290921660208401526040830152606082015260800190565b60006020825261293b60208301846144c9565b602080825260409082018190527f5661726961626c655265776172647353747261746567793a3a53776170207061908201527f697220646f6573206e6f7420636f6e7461696e2072657761726420746f6b656e606082015260800190565b60208082526026908201527f4f776e61626c653a206e6577206f776e657220697320746865207a65726f206160408201527f6464726573730000000000000000000000000000000000000000000000000000606082015260800190565b60208082526014908201527f59616b53747261746567793a3a6f6e6c79454f41000000000000000000000000604082015260600190565b6020808252601b908201527f536166654d6174683a206164646974696f6e206f766572666c6f770000000000604082015260600190565b6020808252602e908201527f5065726d697373696f6e65643a3a6f6e6c79416c6c6f7765644465706f73697460408201527f732c206e6f7420616c6c6f776564000000000000000000000000000000000000606082015260800190565b60208082526034908201527f5065726d697373696f6e65643a3a72656d6f76654465706f7369746f722c206e60408201527f6f20616c6c6f776564206465706f7369746f7273000000000000000000000000606082015260800190565b60208082526024908201527f417263683a3a76616c69646174655369673a20696e76616c6964207369676e6160408201527f7475726500000000000000000000000000000000000000000000000000000000606082015260800190565b6020808252601c908201527f5065726d697373696f6e65643a3a616c6c6f774465706f7369746f7200000000604082015260600190565b6020808252600b908201527f6e6f7420616c6c6f776564000000000000000000000000000000000000000000604082015260600190565b6020808252601c908201527f4161766553747261746567794176617856313a3a5f6465706f73697400000000604082015260600190565b6020808252600f908201527f7065726d69743a3a657870697265640000000000000000000000000000000000604082015260600190565b6020808252602a908201527f4161766553747261746567794176617856313a3a62656c6f77206d696e696d7560408201527f6d20776974686472617700000000000000000000000000000000000000000000606082015260800190565b6020808252602a908201527f5065726d697373696f6e65643a3a72656d6f76654465706f7369746f722c206e60408201527f6f7420616c6c6f77656400000000000000000000000000000000000000000000606082015260800190565b60208082526034908201527f5661726961626c655265776172647353747261746567793a3a5265776172642060408201527f746f2064656c657465206e6f7420666f756e6421000000000000000000000000606082015260800190565b60208082526021908201527f536166654d6174683a206d756c7469706c69636174696f6e206f766572666c6f60408201527f7700000000000000000000000000000000000000000000000000000000000000606082015260800190565b6020808252818101527f4f776e61626c653a2063616c6c6572206973206e6f7420746865206f776e6572604082015260600190565b60208082526027908201527f4161766553747261746567794176617856313a3a7265736375654465706c6f7960408201527f656446756e647300000000000000000000000000000000000000000000000000606082015260800190565b6020808252601c908201527f5f617070726f76653a3a6f776e6572207a65726f206164647265737300000000604082015260600190565b60208082526034908201527f5f7472616e73666572546f6b656e733a2063616e6e6f74207472616e7366657260408201527f20746f20746865207a65726f2061646472657373000000000000000000000000606082015260800190565b60208082526019908201527f736574416c6c6f77616e6365733a3a6465707265636174656400000000000000604082015260600190565b60208082526014908201527f59616b53747261746567793a3a6f6e6c79446576000000000000000000000000604082015260600190565b60208082526030908201527f5661726961626c655265776172647353747261746567793a3a5265696e76657360408201527f7420616d6f756e7420746f6f206c6f7700000000000000000000000000000000606082015260800190565b60208082526027908201527f4161766553747261746567794176617856313a3a5f7374616b654465706f736960408201527f74546f6b656e7300000000000000000000000000000000000000000000000000606082015260800190565b60208082526023908201527f4161766553747261746567794176617856313a3a7472616e736665722066616960408201527f6c65640000000000000000000000000000000000000000000000000000000000606082015260800190565b60208082526028908201527f4161766553747261746567794176617856313a3a5452414e534645525f46524f60408201527f4d5f4641494c4544000000000000000000000000000000000000000000000000606082015260800190565b6020808252601e908201527f5f617070726f76653a3a7370656e646572207a65726f20616464726573730000604082015260600190565b6020808252601f908201527f5265656e7472616e637947756172643a207265656e7472616e742063616c6c00604082015260600190565b6020808252818101527f4465784c6962726172793a3a5452414e534645525f46524f4d5f4641494c4544604082015260600190565b918252602082015260400190565b60008582528460208301526001600160a01b03841660408301526080606083015261501f60808301846144c9565b9695505050505050565b60ff91909116815260200190565b60405181810167ffffffffffffffff8111828210171561505357fe5b604052919050565b600067ffffffffffffffff82111561506f57fe5b5060209081020190565b6001600160a01b0381168114613b2d57600080fd5b8015158114613b2d57600080fdfe5f6275726e3a206275726e20616d6f756e74206578636565647320746f74616c20737570706c797472616e7366657246726f6d3a207472616e7366657220616d6f756e74206578636565647320616c6c6f77616e63655f6275726e3a206275726e20616d6f756e7420657863656564732066726f6d2062616c616e63655f7472616e73666572546f6b656e733a207472616e7366657220657863656564732066726f6d2062616c616e6365a2646970667358221220fe95e220af1afdc34f644153f86498b8922a9ec265af3a6ae13729947be9b67764736f6c634300070300338be0079c531659141344cd1fd0a4f28419497f9722a3daafe3b4186f6b6457e0",
  "devdoc": {
    "details": "No need to _enterMarket() as LendingPool already defaults collateral to true. See https://github.com/aave/protocol-v2/blob/master/contracts/protocol/lendingpool/LendingPool.sol#L123-L126",
    "kind": "dev",
    "methods": {
      "allowDepositor(address)": {
        "params": {
          "depositor": "address"
        }
      },
      "allowance(address,address)": {
        "params": {
          "account": "The address of the account holding the funds",
          "spender": "The address of the account spending the funds"
        },
        "returns": {
          "_0": "The number of tokens approved"
        }
      },
      "approve(address,uint256)": {
        "details": "This will overwrite the approval amount for `spender` and is subject to issues noted [here](https://eips.ethereum.org/EIPS/eip-20#approve) It is recommended to use increaseAllowance and decreaseAllowance instead",
        "params": {
          "amount": "The number of tokens that are approved (2^256-1 means infinite)",
          "spender": "The address of the account which may transfer tokens"
        },
        "returns": {
          "_0": "Whether or not the approval succeeded"
        }
      },
      "balanceOf(address)": {
        "params": {
          "account": "The address of the account to get the balance of"
        },
        "returns": {
          "_0": "The number of tokens held"
        }
      },
      "checkReward()": {
        "returns": {
          "_0": "reward tokens"
        }
      },
      "deposit()": {
        "details": "Must mint receipt tokens to `msg.sender`"
      },
      "depositFor(address)": {
        "details": "Must mint receipt tokens to `account`",
        "params": {
          "account": "address to receive receipt tokens"
        }
      },
      "estimateDeployedBalance()": {
        "returns": {
          "_0": "deposit tokens"
        }
      },
      "estimateReinvestReward()": {
        "returns": {
          "_0": "reward tokens"
        }
      },
      "getDepositTokensForShares(uint256)": {
        "params": {
          "amount": "receipt tokens"
        },
        "returns": {
          "_0": "deposit tokens"
        }
      },
      "getDomainSeparator()": {
        "returns": {
          "_0": "Separator"
        }
      },
      "getSharesForDepositTokens(uint256)": {
        "details": "If contract is empty, use 1:1 ratioCould return zero shares for very low amounts of deposit tokens",
        "params": {
          "amount": "deposit tokens"
        },
        "returns": {
          "_0": "receipt tokens"
        }
      },
      "owner()": {
        "details": "Returns the address of the current owner."
      },
      "permit(address,address,uint256,uint256,uint8,bytes32,bytes32)": {
        "params": {
          "deadline": "The time at which to expire the signature",
          "owner": "The address to approve from",
          "r": "Half of the ECDSA signature pair",
          "s": "Half of the ECDSA signature pair",
          "spender": "The address to be approved",
          "v": "The recovery byte of the signature",
          "value": "The number of tokens that are approved (2^256-1 means infinite)"
        }
      },
      "recoverAVAX(uint256)": {
        "params": {
          "amount": "amount"
        }
      },
      "recoverERC20(address,uint256)": {
        "params": {
          "tokenAddress": "token address",
          "tokenAmount": "amount to recover"
        }
      },
      "removeDepositor(address)": {
        "params": {
          "depositor": "address"
        }
      },
      "renounceOwnership()": {
        "details": "Leaves the contract without owner. It will not be possible to call `onlyOwner` functions anymore. Can only be called by the current owner. NOTE: Renouncing ownership will leave the contract without an owner, thereby removing any functionality that is only available to the owner."
      },
      "revokeAllowance(address,address)": {
        "params": {
          "spender": "address",
          "token": "address"
        }
      },
      "setAllowances()": {
        "details": "Should use modifier `onlyOwner` to avoid griefing"
      },
      "totalDeposits()": {
        "returns": {
          "_0": "total deposits available on the contract"
        }
      },
      "transfer(address,uint256)": {
        "params": {
          "amount": "The number of tokens to transfer",
          "dst": "The address of the destination account"
        },
        "returns": {
          "_0": "Whether or not the transfer succeeded"
        }
      },
      "transferFrom(address,address,uint256)": {
        "params": {
          "amount": "The number of tokens to transfer",
          "dst": "The address of the destination account",
          "src": "The address of the source account"
        },
        "returns": {
          "_0": "Whether or not the transfer succeeded"
        }
      },
      "transferOwnership(address)": {
        "details": "Transfers ownership of the contract to a new account (`newOwner`). Can only be called by the current owner."
      },
      "updateAdminFee(uint256)": {
        "params": {
          "newValue": "fee in BIPS"
        }
      },
      "updateDepositsEnabled(bool)": {
        "params": {
          "newValue": "bool"
        }
      },
      "updateDevAddr(address)": {
        "params": {
          "newValue": "address"
        }
      },
      "updateDevFee(uint256)": {
        "params": {
          "newValue": "fee in BIPS"
        }
      },
      "updateMaxTokensToDepositWithoutReinvest(uint256)": {
        "params": {
          "newValue": "threshold"
        }
      },
      "updateMinTokensToReinvest(uint256)": {
        "params": {
          "newValue": "threshold"
        }
      },
      "updateReinvestReward(uint256)": {
        "params": {
          "newValue": "fee in BIPS"
        }
      },
      "withdraw(uint256)": {
        "params": {
          "amount": "receipt tokens"
        }
      }
    },
    "title": "Aave strategy for AVAX",
    "version": 1
  },
  "userdoc": {
    "kind": "user",
    "methods": {
      "allowDepositor(address)": {
        "notice": "Add an allowed depositor"
      },
      "allowance(address,address)": {
        "notice": "Get the number of tokens `spender` is approved to spend on behalf of `account`"
      },
      "approve(address,uint256)": {
        "notice": "Approve `spender` to transfer up to `amount` from `src`"
      },
      "balanceOf(address)": {
        "notice": "Get the number of tokens held by the `account`"
      },
      "checkReward()": {
        "notice": "Reward tokens avialable to strategy, including balance"
      },
      "deposit()": {
        "notice": "Deposit and deploy deposits tokens to the strategy using AVAX"
      },
      "depositFor(address)": {
        "notice": "Deposit on behalf of another account using AVAX"
      },
      "estimateDeployedBalance()": {
        "notice": "Estimated deposit token balance deployed by strategy, excluding balance"
      },
      "estimateReinvestReward()": {
        "notice": "Estimate reinvest reward"
      },
      "getDepositTokensForShares(uint256)": {
        "notice": "Calculate deposit tokens for a given amount of receipt tokens"
      },
      "getDomainSeparator()": {
        "notice": "EIP-712 Domain separator"
      },
      "getSharesForDepositTokens(uint256)": {
        "notice": "Calculate receipt tokens for a given amount of deposit tokens"
      },
      "permit(address,address,uint256,uint256,uint8,bytes32,bytes32)": {
        "notice": "Triggers an approval from owner to spender"
      },
      "recoverAVAX(uint256)": {
        "notice": "Recover AVAX from contract"
      },
      "recoverERC20(address,uint256)": {
        "notice": "Recover ERC20 from contract"
      },
      "reinvest()": {
        "notice": "Reinvest reward tokens into deposit tokens"
      },
      "removeDepositor(address)": {
        "notice": "Remove an allowed depositor"
      },
      "revokeAllowance(address,address)": {
        "notice": "Revoke token allowance"
      },
      "setAllowances()": {
        "notice": "Approve tokens for use in Strategy"
      },
      "totalDeposits()": {
        "notice": "This function returns a snapshot of last available quotes"
      },
      "transfer(address,uint256)": {
        "notice": "Transfer `amount` tokens from `msg.sender` to `dst`"
      },
      "transferFrom(address,address,uint256)": {
        "notice": "Transfer `amount` tokens from `src` to `dst`"
      },
      "updateAdminFee(uint256)": {
        "notice": "Update admin fee"
      },
      "updateDepositsEnabled(bool)": {
        "notice": "Enable/disable deposits"
      },
      "updateDevAddr(address)": {
        "notice": "Update devAddr"
      },
      "updateDevFee(uint256)": {
        "notice": "Update developer fee"
      },
      "updateMaxTokensToDepositWithoutReinvest(uint256)": {
        "notice": "Update reinvest max threshold before a deposit"
      },
      "updateMinTokensToReinvest(uint256)": {
        "notice": "Update reinvest min threshold"
      },
      "updateReinvestReward(uint256)": {
        "notice": "Update reinvest reward"
      },
      "withdraw(uint256)": {
        "notice": "Redeem receipt tokens for deposit tokens"
      }
    },
    "version": 1
  },
  "storageLayout": {
    "storage": [
      {
        "astId": 6348,
        "contract": "contracts/strategies/AaveV3StrategyAvaxV1.sol:AaveV3StrategyAvaxV1",
        "label": "name",
        "offset": 0,
        "slot": "0",
        "type": "t_string_storage"
      },
      {
        "astId": 6351,
        "contract": "contracts/strategies/AaveV3StrategyAvaxV1.sol:AaveV3StrategyAvaxV1",
        "label": "symbol",
        "offset": 0,
        "slot": "1",
        "type": "t_string_storage"
      },
      {
        "astId": 6356,
        "contract": "contracts/strategies/AaveV3StrategyAvaxV1.sol:AaveV3StrategyAvaxV1",
        "label": "totalSupply",
        "offset": 0,
        "slot": "2",
        "type": "t_uint256"
      },
      {
        "astId": 6362,
        "contract": "contracts/strategies/AaveV3StrategyAvaxV1.sol:AaveV3StrategyAvaxV1",
        "label": "allowances",
        "offset": 0,
        "slot": "3",
        "type": "t_mapping(t_address,t_mapping(t_address,t_uint256))"
      },
      {
        "astId": 6366,
        "contract": "contracts/strategies/AaveV3StrategyAvaxV1.sol:AaveV3StrategyAvaxV1",
        "label": "balances",
        "offset": 0,
        "slot": "4",
        "type": "t_mapping(t_address,t_uint256)"
      },
      {
        "astId": 6382,
        "contract": "contracts/strategies/AaveV3StrategyAvaxV1.sol:AaveV3StrategyAvaxV1",
        "label": "nonces",
        "offset": 0,
        "slot": "5",
        "type": "t_mapping(t_address,t_uint256)"
      },
      {
        "astId": 22000,
        "contract": "contracts/strategies/AaveV3StrategyAvaxV1.sol:AaveV3StrategyAvaxV1",
        "label": "_owner",
        "offset": 0,
        "slot": "6",
        "type": "t_address"
      },
      {
        "astId": 22113,
        "contract": "contracts/strategies/AaveV3StrategyAvaxV1.sol:AaveV3StrategyAvaxV1",
        "label": "numberOfAllowedDepositors",
        "offset": 0,
        "slot": "7",
        "type": "t_uint256"
      },
      {
        "astId": 22117,
        "contract": "contracts/strategies/AaveV3StrategyAvaxV1.sol:AaveV3StrategyAvaxV1",
        "label": "allowedDepositors",
        "offset": 0,
        "slot": "8",
        "type": "t_mapping(t_address,t_bool)"
      },
      {
        "astId": 7732,
        "contract": "contracts/strategies/AaveV3StrategyAvaxV1.sol:AaveV3StrategyAvaxV1",
        "label": "depositToken",
        "offset": 0,
        "slot": "9",
        "type": "t_contract(IERC20)11763"
      },
      {
        "astId": 7734,
        "contract": "contracts/strategies/AaveV3StrategyAvaxV1.sol:AaveV3StrategyAvaxV1",
        "label": "rewardToken",
        "offset": 0,
        "slot": "10",
        "type": "t_contract(IERC20)11763"
      },
      {
        "astId": 7736,
        "contract": "contracts/strategies/AaveV3StrategyAvaxV1.sol:AaveV3StrategyAvaxV1",
        "label": "devAddr",
        "offset": 0,
        "slot": "11",
        "type": "t_address"
      },
      {
        "astId": 7738,
        "contract": "contracts/strategies/AaveV3StrategyAvaxV1.sol:AaveV3StrategyAvaxV1",
        "label": "MIN_TOKENS_TO_REINVEST",
        "offset": 0,
        "slot": "12",
        "type": "t_uint256"
      },
      {
        "astId": 7740,
        "contract": "contracts/strategies/AaveV3StrategyAvaxV1.sol:AaveV3StrategyAvaxV1",
        "label": "MAX_TOKENS_TO_DEPOSIT_WITHOUT_REINVEST",
        "offset": 0,
        "slot": "13",
        "type": "t_uint256"
      },
      {
        "astId": 7742,
        "contract": "contracts/strategies/AaveV3StrategyAvaxV1.sol:AaveV3StrategyAvaxV1",
        "label": "DEPOSITS_ENABLED",
        "offset": 0,
        "slot": "14",
        "type": "t_bool"
      },
      {
        "astId": 7744,
        "contract": "contracts/strategies/AaveV3StrategyAvaxV1.sol:AaveV3StrategyAvaxV1",
        "label": "REINVEST_REWARD_BIPS",
        "offset": 0,
        "slot": "15",
        "type": "t_uint256"
      },
      {
        "astId": 7746,
        "contract": "contracts/strategies/AaveV3StrategyAvaxV1.sol:AaveV3StrategyAvaxV1",
        "label": "ADMIN_FEE_BIPS",
        "offset": 0,
        "slot": "16",
        "type": "t_uint256"
      },
      {
        "astId": 7748,
        "contract": "contracts/strategies/AaveV3StrategyAvaxV1.sol:AaveV3StrategyAvaxV1",
        "label": "DEV_FEE_BIPS",
        "offset": 0,
        "slot": "17",
        "type": "t_uint256"
      },
      {
        "astId": 22497,
        "contract": "contracts/strategies/AaveV3StrategyAvaxV1.sol:AaveV3StrategyAvaxV1",
        "label": "_status",
        "offset": 0,
        "slot": "18",
        "type": "t_uint256"
      },
      {
        "astId": 25567,
        "contract": "contracts/strategies/AaveV3StrategyAvaxV1.sol:AaveV3StrategyAvaxV1",
        "label": "rewardSwapPairs",
        "offset": 0,
        "slot": "19",
        "type": "t_mapping(t_address,t_address)"
      },
      {
        "astId": 25570,
        "contract": "contracts/strategies/AaveV3StrategyAvaxV1.sol:AaveV3StrategyAvaxV1",
        "label": "supportedRewards",
        "offset": 0,
        "slot": "20",
        "type": "t_array(t_address)dyn_storage"
      },
      {
        "astId": 25572,
        "contract": "contracts/strategies/AaveV3StrategyAvaxV1.sol:AaveV3StrategyAvaxV1",
        "label": "rewardCount",
        "offset": 0,
        "slot": "21",
        "type": "t_uint256"
      },
      {
        "astId": 25574,
        "contract": "contracts/strategies/AaveV3StrategyAvaxV1.sol:AaveV3StrategyAvaxV1",
        "label": "leverageLevel",
        "offset": 0,
        "slot": "22",
        "type": "t_uint256"
      },
      {
        "astId": 25576,
        "contract": "contracts/strategies/AaveV3StrategyAvaxV1.sol:AaveV3StrategyAvaxV1",
        "label": "safetyFactor",
        "offset": 0,
        "slot": "23",
        "type": "t_uint256"
      },
      {
        "astId": 25578,
        "contract": "contracts/strategies/AaveV3StrategyAvaxV1.sol:AaveV3StrategyAvaxV1",
        "label": "leverageBips",
        "offset": 0,
        "slot": "24",
        "type": "t_uint256"
      },
      {
        "astId": 25580,
        "contract": "contracts/strategies/AaveV3StrategyAvaxV1.sol:AaveV3StrategyAvaxV1",
        "label": "minMinting",
        "offset": 0,
        "slot": "25",
        "type": "t_uint256"
      },
      {
        "astId": 25582,
        "contract": "contracts/strategies/AaveV3StrategyAvaxV1.sol:AaveV3StrategyAvaxV1",
        "label": "rewardController",
        "offset": 0,
        "slot": "26",
        "type": "t_contract(IAaveV3IncentivesController)10640"
      },
      {
        "astId": 25584,
        "contract": "contracts/strategies/AaveV3StrategyAvaxV1.sol:AaveV3StrategyAvaxV1",
        "label": "tokenDelegator",
        "offset": 0,
        "slot": "27",
        "type": "t_contract(ILendingPoolAaveV3)14784"
      },
      {
        "astId": 25591,
        "contract": "contracts/strategies/AaveV3StrategyAvaxV1.sol:AaveV3StrategyAvaxV1",
        "label": "avToken",
        "offset": 0,
        "slot": "28",
        "type": "t_address"
      },
      {
        "astId": 25593,
        "contract": "contracts/strategies/AaveV3StrategyAvaxV1.sol:AaveV3StrategyAvaxV1",
        "label": "avDebtToken",
        "offset": 0,
        "slot": "29",
        "type": "t_address"
      }
    ],
    "types": {
      "t_address": {
        "encoding": "inplace",
        "label": "address",
        "numberOfBytes": "20"
      },
      "t_array(t_address)dyn_storage": {
        "base": "t_address",
        "encoding": "dynamic_array",
        "label": "address[]",
        "numberOfBytes": "32"
      },
      "t_bool": {
        "encoding": "inplace",
        "label": "bool",
        "numberOfBytes": "1"
      },
      "t_contract(IAaveV3IncentivesController)10640": {
        "encoding": "inplace",
        "label": "contract IAaveV3IncentivesController",
        "numberOfBytes": "20"
      },
      "t_contract(IERC20)11763": {
        "encoding": "inplace",
        "label": "contract IERC20",
        "numberOfBytes": "20"
      },
      "t_contract(ILendingPoolAaveV3)14784": {
        "encoding": "inplace",
        "label": "contract ILendingPoolAaveV3",
        "numberOfBytes": "20"
      },
      "t_mapping(t_address,t_address)": {
        "encoding": "mapping",
        "key": "t_address",
        "label": "mapping(address => address)",
        "numberOfBytes": "32",
        "value": "t_address"
      },
      "t_mapping(t_address,t_bool)": {
        "encoding": "mapping",
        "key": "t_address",
        "label": "mapping(address => bool)",
        "numberOfBytes": "32",
        "value": "t_bool"
      },
      "t_mapping(t_address,t_mapping(t_address,t_uint256))": {
        "encoding": "mapping",
        "key": "t_address",
        "label": "mapping(address => mapping(address => uint256))",
        "numberOfBytes": "32",
        "value": "t_mapping(t_address,t_uint256)"
      },
      "t_mapping(t_address,t_uint256)": {
        "encoding": "mapping",
        "key": "t_address",
        "label": "mapping(address => uint256)",
        "numberOfBytes": "32",
        "value": "t_uint256"
      },
      "t_string_storage": {
        "encoding": "bytes",
        "label": "string",
        "numberOfBytes": "32"
      },
      "t_uint256": {
        "encoding": "inplace",
        "label": "uint256",
        "numberOfBytes": "32"
      }
    }
  }
}