{
  "address": "0xE946d5abCD7aef872c0662d61f6c92D87Bb68504",
  "abi": [
    {
      "inputs": [
        {
          "internalType": "string",
          "name": "_name",
          "type": "string"
        },
        {
          "internalType": "address",
          "name": "_depositToken",
          "type": "address"
        },
        {
          "internalType": "address",
          "name": "_poolRewardToken",
          "type": "address"
        },
        {
          "internalType": "address",
          "name": "_swapPairPoolReward",
          "type": "address"
        },
        {
          "internalType": "address",
          "name": "_swapPairExtraReward",
          "type": "address"
        },
        {
          "internalType": "address",
          "name": "_stakingContract",
          "type": "address"
        },
        {
          "components": [
            {
              "internalType": "uint256",
              "name": "tokenCount",
              "type": "uint256"
            },
            {
              "internalType": "address",
              "name": "swapPairRewardZap",
              "type": "address"
            },
            {
              "internalType": "address",
              "name": "zapToken",
              "type": "address"
            },
            {
              "internalType": "address",
              "name": "zapContract",
              "type": "address"
            },
            {
              "internalType": "uint256",
              "name": "maxSlippage",
              "type": "uint256"
            }
          ],
          "internalType": "struct AxialStrategyForLP.ZapSettings",
          "name": "_zapSettings",
          "type": "tuple"
        },
        {
          "internalType": "uint256",
          "name": "_pid",
          "type": "uint256"
        },
        {
          "internalType": "address",
          "name": "_timelock",
          "type": "address"
        },
        {
          "components": [
            {
              "internalType": "uint256",
              "name": "minTokensToReinvest",
              "type": "uint256"
            },
            {
              "internalType": "uint256",
              "name": "adminFeeBips",
              "type": "uint256"
            },
            {
              "internalType": "uint256",
              "name": "devFeeBips",
              "type": "uint256"
            },
            {
              "internalType": "uint256",
              "name": "reinvestRewardBips",
              "type": "uint256"
            }
          ],
          "internalType": "struct MasterChefStrategy.StrategySettings",
          "name": "_strategySettings",
          "type": "tuple"
        }
      ],
      "stateMutability": "nonpayable",
      "type": "constructor"
    },
    {
      "anonymous": false,
      "inputs": [
        {
          "indexed": true,
          "internalType": "address",
          "name": "account",
          "type": "address"
        }
      ],
      "name": "AllowDepositor",
      "type": "event"
    },
    {
      "anonymous": false,
      "inputs": [
        {
          "indexed": true,
          "internalType": "address",
          "name": "owner",
          "type": "address"
        },
        {
          "indexed": true,
          "internalType": "address",
          "name": "spender",
          "type": "address"
        },
        {
          "indexed": false,
          "internalType": "uint256",
          "name": "value",
          "type": "uint256"
        }
      ],
      "name": "Approval",
      "type": "event"
    },
    {
      "anonymous": false,
      "inputs": [
        {
          "indexed": true,
          "internalType": "address",
          "name": "account",
          "type": "address"
        },
        {
          "indexed": false,
          "internalType": "uint256",
          "name": "amount",
          "type": "uint256"
        }
      ],
      "name": "Deposit",
      "type": "event"
    },
    {
      "anonymous": false,
      "inputs": [
        {
          "indexed": false,
          "internalType": "bool",
          "name": "newValue",
          "type": "bool"
        }
      ],
      "name": "DepositsEnabled",
      "type": "event"
    },
    {
      "anonymous": false,
      "inputs": [
        {
          "indexed": true,
          "internalType": "address",
          "name": "previousOwner",
          "type": "address"
        },
        {
          "indexed": true,
          "internalType": "address",
          "name": "newOwner",
          "type": "address"
        }
      ],
      "name": "OwnershipTransferred",
      "type": "event"
    },
    {
      "anonymous": false,
      "inputs": [
        {
          "indexed": false,
          "internalType": "address",
          "name": "token",
          "type": "address"
        },
        {
          "indexed": false,
          "internalType": "uint256",
          "name": "amount",
          "type": "uint256"
        }
      ],
      "name": "Recovered",
      "type": "event"
    },
    {
      "anonymous": false,
      "inputs": [
        {
          "indexed": false,
          "internalType": "uint256",
          "name": "newTotalDeposits",
          "type": "uint256"
        },
        {
          "indexed": false,
          "internalType": "uint256",
          "name": "newTotalSupply",
          "type": "uint256"
        }
      ],
      "name": "Reinvest",
      "type": "event"
    },
    {
      "anonymous": false,
      "inputs": [
        {
          "indexed": true,
          "internalType": "address",
          "name": "account",
          "type": "address"
        }
      ],
      "name": "RemoveDepositor",
      "type": "event"
    },
    {
      "anonymous": false,
      "inputs": [
        {
          "indexed": true,
          "internalType": "address",
          "name": "from",
          "type": "address"
        },
        {
          "indexed": true,
          "internalType": "address",
          "name": "to",
          "type": "address"
        },
        {
          "indexed": false,
          "internalType": "uint256",
          "name": "value",
          "type": "uint256"
        }
      ],
      "name": "Transfer",
      "type": "event"
    },
    {
      "anonymous": false,
      "inputs": [
        {
          "indexed": false,
          "internalType": "uint256",
          "name": "oldValue",
          "type": "uint256"
        },
        {
          "indexed": false,
          "internalType": "uint256",
          "name": "newValue",
          "type": "uint256"
        }
      ],
      "name": "UpdateAdminFee",
      "type": "event"
    },
    {
      "anonymous": false,
      "inputs": [
        {
          "indexed": false,
          "internalType": "address",
          "name": "oldValue",
          "type": "address"
        },
        {
          "indexed": false,
          "internalType": "address",
          "name": "newValue",
          "type": "address"
        }
      ],
      "name": "UpdateDevAddr",
      "type": "event"
    },
    {
      "anonymous": false,
      "inputs": [
        {
          "indexed": false,
          "internalType": "uint256",
          "name": "oldValue",
          "type": "uint256"
        },
        {
          "indexed": false,
          "internalType": "uint256",
          "name": "newValue",
          "type": "uint256"
        }
      ],
      "name": "UpdateDevFee",
      "type": "event"
    },
    {
      "anonymous": false,
      "inputs": [
        {
          "indexed": false,
          "internalType": "uint256",
          "name": "oldValue",
          "type": "uint256"
        },
        {
          "indexed": false,
          "internalType": "uint256",
          "name": "newValue",
          "type": "uint256"
        }
      ],
      "name": "UpdateMaxTokensToDepositWithoutReinvest",
      "type": "event"
    },
    {
      "anonymous": false,
      "inputs": [
        {
          "indexed": false,
          "internalType": "uint256",
          "name": "oldValue",
          "type": "uint256"
        },
        {
          "indexed": false,
          "internalType": "uint256",
          "name": "newValue",
          "type": "uint256"
        }
      ],
      "name": "UpdateMinTokensToReinvest",
      "type": "event"
    },
    {
      "anonymous": false,
      "inputs": [
        {
          "indexed": false,
          "internalType": "uint256",
          "name": "oldValue",
          "type": "uint256"
        },
        {
          "indexed": false,
          "internalType": "uint256",
          "name": "newValue",
          "type": "uint256"
        }
      ],
      "name": "UpdateReinvestReward",
      "type": "event"
    },
    {
      "anonymous": false,
      "inputs": [
        {
          "indexed": true,
          "internalType": "address",
          "name": "account",
          "type": "address"
        },
        {
          "indexed": false,
          "internalType": "uint256",
          "name": "amount",
          "type": "uint256"
        }
      ],
      "name": "Withdraw",
      "type": "event"
    },
    {
      "inputs": [],
      "name": "ADMIN_FEE_BIPS",
      "outputs": [
        {
          "internalType": "uint256",
          "name": "",
          "type": "uint256"
        }
      ],
      "stateMutability": "view",
      "type": "function"
    },
    {
      "inputs": [],
      "name": "DEPOSITS_ENABLED",
      "outputs": [
        {
          "internalType": "bool",
          "name": "",
          "type": "bool"
        }
      ],
      "stateMutability": "view",
      "type": "function"
    },
    {
      "inputs": [],
      "name": "DEV_FEE_BIPS",
      "outputs": [
        {
          "internalType": "uint256",
          "name": "",
          "type": "uint256"
        }
      ],
      "stateMutability": "view",
      "type": "function"
    },
    {
      "inputs": [],
      "name": "DOMAIN_TYPEHASH",
      "outputs": [
        {
          "internalType": "bytes32",
          "name": "",
          "type": "bytes32"
        }
      ],
      "stateMutability": "view",
      "type": "function"
    },
    {
      "inputs": [],
      "name": "MAX_TOKENS_TO_DEPOSIT_WITHOUT_REINVEST",
      "outputs": [
        {
          "internalType": "uint256",
          "name": "",
          "type": "uint256"
        }
      ],
      "stateMutability": "view",
      "type": "function"
    },
    {
      "inputs": [],
      "name": "MIN_TOKENS_TO_REINVEST",
      "outputs": [
        {
          "internalType": "uint256",
          "name": "",
          "type": "uint256"
        }
      ],
      "stateMutability": "view",
      "type": "function"
    },
    {
      "inputs": [],
      "name": "PERMIT_TYPEHASH",
      "outputs": [
        {
          "internalType": "bytes32",
          "name": "",
          "type": "bytes32"
        }
      ],
      "stateMutability": "view",
      "type": "function"
    },
    {
      "inputs": [],
      "name": "PID",
      "outputs": [
        {
          "internalType": "uint256",
          "name": "",
          "type": "uint256"
        }
      ],
      "stateMutability": "view",
      "type": "function"
    },
    {
      "inputs": [],
      "name": "REINVEST_REWARD_BIPS",
      "outputs": [
        {
          "internalType": "uint256",
          "name": "",
          "type": "uint256"
        }
      ],
      "stateMutability": "view",
      "type": "function"
    },
    {
      "inputs": [],
      "name": "VERSION_HASH",
      "outputs": [
        {
          "internalType": "bytes32",
          "name": "",
          "type": "bytes32"
        }
      ],
      "stateMutability": "view",
      "type": "function"
    },
    {
      "inputs": [
        {
          "internalType": "address",
          "name": "depositor",
          "type": "address"
        }
      ],
      "name": "allowDepositor",
      "outputs": [],
      "stateMutability": "nonpayable",
      "type": "function"
    },
    {
      "inputs": [
        {
          "internalType": "address",
          "name": "account",
          "type": "address"
        },
        {
          "internalType": "address",
          "name": "spender",
          "type": "address"
        }
      ],
      "name": "allowance",
      "outputs": [
        {
          "internalType": "uint256",
          "name": "",
          "type": "uint256"
        }
      ],
      "stateMutability": "view",
      "type": "function"
    },
    {
      "inputs": [
        {
          "internalType": "address",
          "name": "",
          "type": "address"
        }
      ],
      "name": "allowedDepositors",
      "outputs": [
        {
          "internalType": "bool",
          "name": "",
          "type": "bool"
        }
      ],
      "stateMutability": "view",
      "type": "function"
    },
    {
      "inputs": [
        {
          "internalType": "address",
          "name": "spender",
          "type": "address"
        },
        {
          "internalType": "uint256",
          "name": "amount",
          "type": "uint256"
        }
      ],
      "name": "approve",
      "outputs": [
        {
          "internalType": "bool",
          "name": "",
          "type": "bool"
        }
      ],
      "stateMutability": "nonpayable",
      "type": "function"
    },
    {
      "inputs": [],
      "name": "axialChef",
      "outputs": [
        {
          "internalType": "contract IAxialChef",
          "name": "",
          "type": "address"
        }
      ],
      "stateMutability": "view",
      "type": "function"
    },
    {
      "inputs": [
        {
          "internalType": "address",
          "name": "account",
          "type": "address"
        }
      ],
      "name": "balanceOf",
      "outputs": [
        {
          "internalType": "uint256",
          "name": "",
          "type": "uint256"
        }
      ],
      "stateMutability": "view",
      "type": "function"
    },
    {
      "inputs": [],
      "name": "checkReward",
      "outputs": [
        {
          "internalType": "uint256",
          "name": "",
          "type": "uint256"
        }
      ],
      "stateMutability": "view",
      "type": "function"
    },
    {
      "inputs": [],
      "name": "decimals",
      "outputs": [
        {
          "internalType": "uint8",
          "name": "",
          "type": "uint8"
        }
      ],
      "stateMutability": "view",
      "type": "function"
    },
    {
      "inputs": [
        {
          "internalType": "uint256",
          "name": "amount",
          "type": "uint256"
        }
      ],
      "name": "deposit",
      "outputs": [],
      "stateMutability": "nonpayable",
      "type": "function"
    },
    {
      "inputs": [
        {
          "internalType": "address",
          "name": "account",
          "type": "address"
        },
        {
          "internalType": "uint256",
          "name": "amount",
          "type": "uint256"
        }
      ],
      "name": "depositFor",
      "outputs": [],
      "stateMutability": "nonpayable",
      "type": "function"
    },
    {
      "inputs": [],
      "name": "depositToken",
      "outputs": [
        {
          "internalType": "contract IERC20",
          "name": "",
          "type": "address"
        }
      ],
      "stateMutability": "view",
      "type": "function"
    },
    {
      "inputs": [
        {
          "internalType": "uint256",
          "name": "amount",
          "type": "uint256"
        },
        {
          "internalType": "uint256",
          "name": "deadline",
          "type": "uint256"
        },
        {
          "internalType": "uint8",
          "name": "v",
          "type": "uint8"
        },
        {
          "internalType": "bytes32",
          "name": "r",
          "type": "bytes32"
        },
        {
          "internalType": "bytes32",
          "name": "s",
          "type": "bytes32"
        }
      ],
      "name": "depositWithPermit",
      "outputs": [],
      "stateMutability": "nonpayable",
      "type": "function"
    },
    {
      "inputs": [],
      "name": "devAddr",
      "outputs": [
        {
          "internalType": "address",
          "name": "",
          "type": "address"
        }
      ],
      "stateMutability": "view",
      "type": "function"
    },
    {
      "inputs": [],
      "name": "estimateDeployedBalance",
      "outputs": [
        {
          "internalType": "uint256",
          "name": "",
          "type": "uint256"
        }
      ],
      "stateMutability": "view",
      "type": "function"
    },
    {
      "inputs": [],
      "name": "estimateReinvestReward",
      "outputs": [
        {
          "internalType": "uint256",
          "name": "",
          "type": "uint256"
        }
      ],
      "stateMutability": "view",
      "type": "function"
    },
    {
      "inputs": [],
      "name": "extraToken",
      "outputs": [
        {
          "internalType": "address",
          "name": "",
          "type": "address"
        }
      ],
      "stateMutability": "view",
      "type": "function"
    },
    {
      "inputs": [
        {
          "internalType": "uint256",
          "name": "amount",
          "type": "uint256"
        }
      ],
      "name": "getDepositTokensForShares",
      "outputs": [
        {
          "internalType": "uint256",
          "name": "",
          "type": "uint256"
        }
      ],
      "stateMutability": "view",
      "type": "function"
    },
    {
      "inputs": [],
      "name": "getDomainSeparator",
      "outputs": [
        {
          "internalType": "bytes32",
          "name": "",
          "type": "bytes32"
        }
      ],
      "stateMutability": "view",
      "type": "function"
    },
    {
      "inputs": [
        {
          "internalType": "uint256",
          "name": "amount",
          "type": "uint256"
        }
      ],
      "name": "getSharesForDepositTokens",
      "outputs": [
        {
          "internalType": "uint256",
          "name": "",
          "type": "uint256"
        }
      ],
      "stateMutability": "view",
      "type": "function"
    },
    {
      "inputs": [],
      "name": "name",
      "outputs": [
        {
          "internalType": "string",
          "name": "",
          "type": "string"
        }
      ],
      "stateMutability": "view",
      "type": "function"
    },
    {
      "inputs": [
        {
          "internalType": "address",
          "name": "",
          "type": "address"
        }
      ],
      "name": "nonces",
      "outputs": [
        {
          "internalType": "uint256",
          "name": "",
          "type": "uint256"
        }
      ],
      "stateMutability": "view",
      "type": "function"
    },
    {
      "inputs": [],
      "name": "numberOfAllowedDepositors",
      "outputs": [
        {
          "internalType": "uint256",
          "name": "",
          "type": "uint256"
        }
      ],
      "stateMutability": "view",
      "type": "function"
    },
    {
      "inputs": [],
      "name": "owner",
      "outputs": [
        {
          "internalType": "address",
          "name": "",
          "type": "address"
        }
      ],
      "stateMutability": "view",
      "type": "function"
    },
    {
      "inputs": [
        {
          "internalType": "address",
          "name": "owner",
          "type": "address"
        },
        {
          "internalType": "address",
          "name": "spender",
          "type": "address"
        },
        {
          "internalType": "uint256",
          "name": "value",
          "type": "uint256"
        },
        {
          "internalType": "uint256",
          "name": "deadline",
          "type": "uint256"
        },
        {
          "internalType": "uint8",
          "name": "v",
          "type": "uint8"
        },
        {
          "internalType": "bytes32",
          "name": "r",
          "type": "bytes32"
        },
        {
          "internalType": "bytes32",
          "name": "s",
          "type": "bytes32"
        }
      ],
      "name": "permit",
      "outputs": [],
      "stateMutability": "nonpayable",
      "type": "function"
    },
    {
      "inputs": [
        {
          "internalType": "uint256",
          "name": "amount",
          "type": "uint256"
        }
      ],
      "name": "recoverAVAX",
      "outputs": [],
      "stateMutability": "nonpayable",
      "type": "function"
    },
    {
      "inputs": [
        {
          "internalType": "address",
          "name": "tokenAddress",
          "type": "address"
        },
        {
          "internalType": "uint256",
          "name": "tokenAmount",
          "type": "uint256"
        }
      ],
      "name": "recoverERC20",
      "outputs": [],
      "stateMutability": "nonpayable",
      "type": "function"
    },
    {
      "inputs": [],
      "name": "reinvest",
      "outputs": [],
      "stateMutability": "nonpayable",
      "type": "function"
    },
    {
      "inputs": [
        {
          "internalType": "address",
          "name": "depositor",
          "type": "address"
        }
      ],
      "name": "removeDepositor",
      "outputs": [],
      "stateMutability": "nonpayable",
      "type": "function"
    },
    {
      "inputs": [],
      "name": "renounceOwnership",
      "outputs": [],
      "stateMutability": "nonpayable",
      "type": "function"
    },
    {
      "inputs": [
        {
          "internalType": "uint256",
          "name": "minReturnAmountAccepted",
          "type": "uint256"
        },
        {
          "internalType": "bool",
          "name": "disableDeposits",
          "type": "bool"
        }
      ],
      "name": "rescueDeployedFunds",
      "outputs": [],
      "stateMutability": "nonpayable",
      "type": "function"
    },
    {
      "inputs": [
        {
          "internalType": "address",
          "name": "token",
          "type": "address"
        },
        {
          "internalType": "address",
          "name": "spender",
          "type": "address"
        }
      ],
      "name": "revokeAllowance",
      "outputs": [],
      "stateMutability": "nonpayable",
      "type": "function"
    },
    {
      "inputs": [],
      "name": "rewardToken",
      "outputs": [
        {
          "internalType": "contract IERC20",
          "name": "",
          "type": "address"
        }
      ],
      "stateMutability": "view",
      "type": "function"
    },
    {
      "inputs": [],
      "name": "setAllowances",
      "outputs": [],
      "stateMutability": "nonpayable",
      "type": "function"
    },
    {
      "inputs": [
        {
          "internalType": "address",
          "name": "_extraTokenSwapPair",
          "type": "address"
        }
      ],
      "name": "setExtraRewardSwapPair",
      "outputs": [],
      "stateMutability": "nonpayable",
      "type": "function"
    },
    {
      "inputs": [
        {
          "internalType": "uint256",
          "name": "_maxSlippageBips",
          "type": "uint256"
        }
      ],
      "name": "setMaxSlippageBips",
      "outputs": [],
      "stateMutability": "nonpayable",
      "type": "function"
    },
    {
      "inputs": [],
      "name": "swapPairExtraReward",
      "outputs": [
        {
          "internalType": "address",
          "name": "",
          "type": "address"
        }
      ],
      "stateMutability": "view",
      "type": "function"
    },
    {
      "inputs": [],
      "name": "symbol",
      "outputs": [
        {
          "internalType": "string",
          "name": "",
          "type": "string"
        }
      ],
      "stateMutability": "view",
      "type": "function"
    },
    {
      "inputs": [],
      "name": "totalDeposits",
      "outputs": [
        {
          "internalType": "uint256",
          "name": "",
          "type": "uint256"
        }
      ],
      "stateMutability": "view",
      "type": "function"
    },
    {
      "inputs": [],
      "name": "totalSupply",
      "outputs": [
        {
          "internalType": "uint256",
          "name": "",
          "type": "uint256"
        }
      ],
      "stateMutability": "view",
      "type": "function"
    },
    {
      "inputs": [
        {
          "internalType": "address",
          "name": "dst",
          "type": "address"
        },
        {
          "internalType": "uint256",
          "name": "amount",
          "type": "uint256"
        }
      ],
      "name": "transfer",
      "outputs": [
        {
          "internalType": "bool",
          "name": "",
          "type": "bool"
        }
      ],
      "stateMutability": "nonpayable",
      "type": "function"
    },
    {
      "inputs": [
        {
          "internalType": "address",
          "name": "src",
          "type": "address"
        },
        {
          "internalType": "address",
          "name": "dst",
          "type": "address"
        },
        {
          "internalType": "uint256",
          "name": "amount",
          "type": "uint256"
        }
      ],
      "name": "transferFrom",
      "outputs": [
        {
          "internalType": "bool",
          "name": "",
          "type": "bool"
        }
      ],
      "stateMutability": "nonpayable",
      "type": "function"
    },
    {
      "inputs": [
        {
          "internalType": "address",
          "name": "newOwner",
          "type": "address"
        }
      ],
      "name": "transferOwnership",
      "outputs": [],
      "stateMutability": "nonpayable",
      "type": "function"
    },
    {
      "inputs": [
        {
          "internalType": "uint256",
          "name": "newValue",
          "type": "uint256"
        }
      ],
      "name": "updateAdminFee",
      "outputs": [],
      "stateMutability": "nonpayable",
      "type": "function"
    },
    {
      "inputs": [
        {
          "internalType": "bool",
          "name": "newValue",
          "type": "bool"
        }
      ],
      "name": "updateDepositsEnabled",
      "outputs": [],
      "stateMutability": "nonpayable",
      "type": "function"
    },
    {
      "inputs": [
        {
          "internalType": "address",
          "name": "newValue",
          "type": "address"
        }
      ],
      "name": "updateDevAddr",
      "outputs": [],
      "stateMutability": "nonpayable",
      "type": "function"
    },
    {
      "inputs": [
        {
          "internalType": "uint256",
          "name": "newValue",
          "type": "uint256"
        }
      ],
      "name": "updateDevFee",
      "outputs": [],
      "stateMutability": "nonpayable",
      "type": "function"
    },
    {
      "inputs": [
        {
          "internalType": "uint256",
          "name": "newValue",
          "type": "uint256"
        }
      ],
      "name": "updateMaxTokensToDepositWithoutReinvest",
      "outputs": [],
      "stateMutability": "nonpayable",
      "type": "function"
    },
    {
      "inputs": [
        {
          "internalType": "uint256",
          "name": "newValue",
          "type": "uint256"
        }
      ],
      "name": "updateMinTokensToReinvest",
      "outputs": [],
      "stateMutability": "nonpayable",
      "type": "function"
    },
    {
      "inputs": [
        {
          "internalType": "uint256",
          "name": "newValue",
          "type": "uint256"
        }
      ],
      "name": "updateReinvestReward",
      "outputs": [],
      "stateMutability": "nonpayable",
      "type": "function"
    },
    {
      "inputs": [
        {
          "internalType": "uint256",
          "name": "amount",
          "type": "uint256"
        }
      ],
      "name": "withdraw",
      "outputs": [],
      "stateMutability": "nonpayable",
      "type": "function"
    }
  ],
  "transactionHash": "0x556f40f35697e2c86fd5fafbc50298ba51244bef38aec11bdfdf8c8a30174f53",
  "args": [
    "Yield Yak: Axial AA3D",
    "0xaD556e7dc377d9089C6564f9E8d275f5EE4da22d",
    "0xcf8419a615c57511807236751c0af38db4ba3351",
    "0x5305A6c4DA88391F4A9045bF2ED57F4BF0cF4f62",
    "0x73e6CB72a79dEa7ed75EF5eD6f8cFf86C9128eF5",
    "0x958C0d0baA8F220846d3966742D4Fb5edc5493D3",
    {
      "tokenCount": 3,
      "swapPairRewardZap": "0x781655d802670bbA3c89aeBaaEa59D3182fD755D",
      "zapToken": "0x130966628846bfd36ff31a822705796e8cb8c18d",
      "zapContract": "0x6efbc734d91b229be29137cf9fe531c1d3bf4da6",
      "maxSlippage": 100
    },
    "4",
    "0x8d36C5c6947ADCcd25Ef49Ea1aAC2ceACFff0bD7",
    {
      "minTokensToReinvest": "10000000000000000",
      "adminFeeBips": 0,
      "devFeeBips": 700,
      "reinvestRewardBips": 100
    }
  ],
  "solcInputHash": "7c76c4dfd4643c93670144341fcd4124",
  "bytecode": "0x60e0604052600960a0819052685969656c642059616b60b81b60c09081526200002c916000919062000c8f565b506040805180820190915260038082526216549560ea1b6020909201918252620000599160019162000c8f565b503480156200006757600080fd5b506040516200547e3803806200547e8339810160408190526200008a9162000e6a565b898973b31f66aa3c1e785363f0875a1b74e27b85fd66c78a8a8a8a888a896000620000b4620003aa565b600680546001600160a01b0319166001600160a01b038316908117909155604051919250906000906000805160206200545e833981519152908290a3508951620001069060009060208d019062000c8f565b50600980546001600160a01b03808c166001600160a01b031992831617909255600a80548b84169083161790556080849052600b80548216732d580f9cf2fb2d09bc411532988f2afda4e7beff179055601280549287169290911691909117905562000174888888620003ae565b6200017f8562000610565b80516200018c9062000825565b60208101516200019c90620008ad565b6040810151620001ac906200097b565b6060810151620001bc9062000a35565b620001c8600162000aef565b620001d38362000b97565b7fc7606d21ac05cd309191543e409f0845c016120563783d70e4f41419dc0ef2346000806040516200020792919062000fe3565b60405180910390a15050505050505050505084601760006101000a8154816001600160a01b0302191690836001600160a01b031602179055508360186000820151816000015560208201518160010160006101000a8154816001600160a01b0302191690836001600160a01b0316021790555060408201518160020160006101000a8154816001600160a01b0302191690836001600160a01b0316021790555060608201518160030160006101000a8154816001600160a01b0302191690836001600160a01b0316021790555060808201518160040155905050601860020160009054906101000a90046001600160a01b03166001600160a01b031663095ea7b3601860030160009054906101000a90046001600160a01b03166000196040518363ffffffff1660e01b81526004016200034392919062000fbf565b602060405180830381600087803b1580156200035e57600080fd5b505af115801562000373573d6000803e3d6000fd5b505050506040513d601f19601f8201168201806040525081019062000399919062000e48565b505050505050505050505062001169565b3390565b806001600160a01b0316630dfe16816040518163ffffffff1660e01b815260040160206040518083038186803b158015620003e857600080fd5b505afa158015620003fd573d6000803e3d6000fd5b505050506040513d601f19601f8201168201806040525081019062000423919062000e2b565b6001600160a01b0316826001600160a01b03161415620004f457826001600160a01b0316816001600160a01b031663d21220a76040518163ffffffff1660e01b815260040160206040518083038186803b1580156200048157600080fd5b505afa15801562000496573d6000803e3d6000fd5b505050506040513d601f19601f82011682018060405250810190620004bc919062000e2b565b6001600160a01b031614620004ee5760405162461bcd60e51b8152600401620004e590620010c4565b60405180910390fd5b620005e1565b806001600160a01b031663d21220a76040518163ffffffff1660e01b815260040160206040518083038186803b1580156200052e57600080fd5b505afa15801562000543573d6000803e3d6000fd5b505050506040513d601f19601f8201168201806040525081019062000569919062000e2b565b6001600160a01b0316826001600160a01b03161415620005c757826001600160a01b0316816001600160a01b0316630dfe16816040518163ffffffff1660e01b815260040160206040518083038186803b1580156200048157600080fd5b60405162461bcd60e51b8152600401620004e5906200106e565b601380546001600160a01b039384166001600160a01b0319918216179091556014805492909316911617905550565b6001600160a01b038116156200080557600a5460408051630dfe168160e01b815290516001600160a01b0392831692841691630dfe1681916004808301926020929190829003018186803b1580156200066857600080fd5b505afa1580156200067d573d6000803e3d6000fd5b505050506040513d601f19601f82011682018060405250810190620006a3919062000e2b565b6001600160a01b031614156200074e57806001600160a01b031663d21220a76040518163ffffffff1660e01b815260040160206040518083038186803b158015620006ed57600080fd5b505afa15801562000702573d6000803e3d6000fd5b505050506040513d601f19601f8201168201806040525081019062000728919062000e2b565b601680546001600160a01b0319166001600160a01b0392909216919091179055620007e4565b806001600160a01b0316630dfe16816040518163ffffffff1660e01b815260040160206040518083038186803b1580156200078857600080fd5b505afa1580156200079d573d6000803e3d6000fd5b505050506040513d601f19601f82011682018060405250810190620007c3919062000e2b565b601680546001600160a01b0319166001600160a01b03929092169190911790555b601580546001600160a01b0319166001600160a01b03831617905562000822565b601580546001600160a01b03199081169091556016805490911690555b50565b6200082f620003aa565b6001600160a01b03166200084262000c51565b6001600160a01b0316146200086b5760405162461bcd60e51b8152600401620004e59062001110565b7f481f79ac3a523b6d6db3c5a720e190e986d1cc1b41adcdf50f9caef849901100600c5482604051620008a092919062000fe3565b60405180910390a1600c55565b620008b7620003aa565b6001600160a01b0316620008ca62000c51565b6001600160a01b031614620008f35760405162461bcd60e51b8152600401620004e59062001110565b6127106200092d600f54620009196011548562000c6060201b62001c091790919060201c565b62000c6060201b62001c091790919060201c565b11156200093957600080fd5b7f3cc372f330f95ac9540626dc8a25f5bf21ba607215a5d58304cb804d446f104a601054826040516200096e92919062000fe3565b60405180910390a1601055565b62000985620003aa565b6001600160a01b03166200099862000c51565b6001600160a01b031614620009c15760405162461bcd60e51b8152600401620004e59062001110565b612710620009e7600f54620009196010548562000c6060201b62001c091790919060201c565b1115620009f357600080fd5b7f2a42303d002f0ba6cfe8259c91d4684443fb0b3de286ba74991175d6517261316011548260405162000a2892919062000fe3565b60405180910390a1601155565b62000a3f620003aa565b6001600160a01b031662000a5262000c51565b6001600160a01b03161462000a7b5760405162461bcd60e51b8152600401620004e59062001110565b61271062000aa1601154620009196010548562000c6060201b62001c091790919060201c565b111562000aad57600080fd5b7fe7f97d51d307dc44045597c9978bec0f842e6bb40d19b9444084cfa30d9ed4f2600f548260405162000ae292919062000fe3565b60405180910390a1600f55565b62000af9620003aa565b6001600160a01b031662000b0c62000c51565b6001600160a01b03161462000b355760405162461bcd60e51b8152600401620004e59062001110565b600e5460ff161515811515141562000b4c57600080fd5b600e805460ff19168215151790556040517f7b014ed3854e7f5cb0218d58b3c6ae7d53a68bb0af2f67bfb029ea42c38a7e859062000b8c90839062000fd8565b60405180910390a150565b62000ba1620003aa565b6001600160a01b031662000bb462000c51565b6001600160a01b03161462000bdd5760405162461bcd60e51b8152600401620004e59062001110565b6001600160a01b03811662000c065760405162461bcd60e51b8152600401620004e59062000ff1565b6006546040516001600160a01b038084169216906000805160206200545e83398151915290600090a3600680546001600160a01b0319166001600160a01b0392909216919091179055565b6006546001600160a01b031690565b60008282018381101562000c885760405162461bcd60e51b8152600401620004e59062001037565b9392505050565b828054600181600116156101000203166002900490600052602060002090601f016020900481019282601f1062000cd257805160ff191683800117855562000d02565b8280016001018555821562000d02579182015b8281111562000d0257825182559160200191906001019062000ce5565b5062000d1092915062000d14565b5090565b5b8082111562000d10576000815560010162000d15565b80516001600160a01b038116811462000d4357600080fd5b919050565b60006080828403121562000d5a578081fd5b604051608081016001600160401b038111828210171562000d7757fe5b8060405250809150825181526020830151602082015260408301516040820152606083015160608201525092915050565b600060a0828403121562000dba578081fd5b60405160a081016001600160401b038111828210171562000dd757fe5b6040528251815290508062000def6020840162000d2b565b602082015262000e026040840162000d2b565b604082015262000e156060840162000d2b565b6060820152608083015160808201525092915050565b60006020828403121562000e3d578081fd5b62000c888262000d2b565b60006020828403121562000e5a578081fd5b8151801515811462000c88578182fd5b6000806000806000806000806000806102208b8d03121562000e8a578586fd5b8a516001600160401b038082111562000ea1578788fd5b818d0191508d601f83011262000eb5578788fd5b81518181111562000ec257fe5b6020915062000eda601f8201601f1916830162001145565b8181528f8383860101111562000eee57898afd5b895b8281101562000f0d57848101840151828201850152830162000ef0565b8281111562000f1e578a8484840101525b509c5062000f3090508d820162000d2b565b9a50505062000f4260408c0162000d2b565b975062000f5260608c0162000d2b565b965062000f6260808c0162000d2b565b955062000f7260a08c0162000d2b565b945062000f838c60c08d0162000da8565b93506101608b0151925062000f9c6101808c0162000d2b565b915062000fae8c6101a08d0162000d48565b90509295989b9194979a5092959850565b6001600160a01b03929092168252602082015260400190565b901515815260200190565b918252602082015260400190565b60208082526026908201527f4f776e61626c653a206e6577206f776e657220697320746865207a65726f206160408201526564647265737360d01b606082015260800190565b6020808252601b908201527f536166654d6174683a206164646974696f6e206f766572666c6f770000000000604082015260600190565b60208082526041908201526000805160206200543e83398151915260408201527f6f6573206e6f7420636f6e7461696e20706f6f6c2072657761726420746f6b656060820152603760f91b608082015260a00190565b6020808252603f908201526000805160206200543e83398151915260408201527f6f6573206e6f7420636f6e7461696e2065636f73797374656d20746f6b656e00606082015260800190565b6020808252818101527f4f776e61626c653a2063616c6c6572206973206e6f7420746865206f776e6572604082015260600190565b6040518181016001600160401b03811182821017156200116157fe5b604052919050565b60805161428d620011b1600039806107de528061098d5280610d545280610f2452806115ab5280611ec45280612185528061267052806128d05280612b58525061428d6000f3fe608060405234801561001057600080fd5b50600436106103a45760003560e01c80638b73e606116101e9578063bd079f551161010f578063dd62ed3e116100ad578063ed24911d1161007c578063ed24911d146106f4578063f2fde38b146106fc578063f7c618c11461070f578063fdb5a03e14610717576103a4565b8063dd62ed3e146106a8578063dd8ce4d6146106bb578063e21ac825146106ce578063eab89a5a146106e1576103a4565b8063cff1b6ef116100e9578063cff1b6ef14610672578063d505accf14610685578063da09c72c14610698578063dbd9a4d4146106a0576103a4565b8063bd079f551461065a578063c4b24a4614610662578063c89039c51461066a576103a4565b8063a1a4ddeb11610187578063ac0d31ff11610156578063ac0d31ff14610624578063b52a321f14610637578063b6b55f251461063f578063b9e57b8014610652576103a4565b8063a1a4ddeb146105ee578063a573c856146105f6578063a8ae2b7c146105fe578063a9059cbb14610611576103a4565b80639291d563116101c35780639291d563146105b857806395d89b41146105cb57806399729ec1146105d35780639e4e7318146105e6576103a4565b80638b73e606146105885780638da5cb5b1461059b578063909ac8f4146105b0576103a4565b80634e77ace5116102ce578063789139bc1161026c578063818372301161023b57806381837230146105475780638432e8941461055a5780638980f11f1461056d5780638aff733d14610580576103a4565b8063789139bc146105115780637ae26773146105195780637d8820971461052c5780637ecebe0014610534576103a4565b80635eaec0e4116102a85780635eaec0e4146104db57806370a08231146104e3578063715018a6146104f6578063733ba2e4146104fe576103a4565b80634e77ace5146104ad5780634ebb7916146104c05780635ea682ea146104d3576103a4565b80632e1a7d4d116103465780633bdc6e72116103155780633bdc6e721461046c578063483c2ef0146104745780634a970be7146104875780634bebd1e71461049a576103a4565b80632e1a7d4d146104275780632f4f21e21461043c57806330adf81f1461044f578063313ce56714610457576103a4565b80630f23475d116103825780630f23475d146103fc57806318160ddd1461040457806320606b701461040c57806323b872dd14610414576103a4565b806306fdde03146103a957806307677111146103c7578063095ea7b3146103dc575b600080fd5b6103b161071f565b6040516103be9190613a71565b60405180910390f35b6103cf6107ad565b6040516103be91906139ea565b6103ef6103ea3660046135cc565b6107b3565b6040516103be91906139df565b6103cf6107ca565b6103cf610836565b6103cf61083c565b6103ef61042236600461351c565b610860565b61043a61043536600461367d565b610947565b005b61043a61044a3660046135cc565b610a34565b6103cf610a42565b61045f610a66565b6040516103be9190614140565b6103cf610a6b565b6103ef6104823660046134ac565b610a71565b61043a6104953660046137b0565b610a86565b61043a6104a83660046134ac565b610b1e565b61043a6104bb3660046135f7565b610c02565b61043a6104ce36600461367d565b610ca0565b6103cf610d4c565b6103cf610d52565b6103cf6104f13660046134ac565b610d76565b61043a610d95565b61043a61050c36600461367d565b610e1e565b6103cf610e4d565b61043a6105273660046134e4565b610e53565b6103cf610f1c565b6103cf6105423660046134ac565b610f4f565b61043a61055536600461367d565b610f61565b61043a6105683660046134ac565b610fe0565b61043a61057b3660046135cc565b611016565b6103cf611128565b61043a6105963660046134ac565b61112e565b6105a3611234565b6040516103be91906138e6565b6105a3611243565b61043a6105c63660046134ac565b611252565b6103b16112e5565b61043a6105e136600461367d565b61133f565b6103cf6113ed565b6105a3611411565b6105a3611420565b61043a61060c36600461367d565b61142f565b6103ef61061f3660046135cc565b6114d7565b61043a610632366004613769565b6114e4565b6103ef6116eb565b61043a61064d36600461367d565b6116f4565b6103cf6116fe565b6103cf61173f565b6103cf611745565b6105a3611759565b61043a61068036600461367d565b611768565b61043a61069336600461355c565b611810565b6105a36118c5565b61043a6118d4565b6103cf6106b63660046134e4565b61192b565b6103cf6106c936600461367d565b611956565b61043a6106dc36600461367d565b611990565b6103cf6106ef36600461367d565b611a0f565b6103cf611a40565b61043a61070a3660046134ac565b611ad7565b6105a3611b98565b61043a611ba7565b6000805460408051602060026001851615610100026000190190941693909304601f810184900484028201840190925281815292918301828280156107a55780601f1061077a576101008083540402835291602001916107a5565b820191906000526020600020905b81548152906001019060200180831161078857829003601f168201915b505050505081565b60105481565b60006107c0338484611c35565b5060015b92915050565b6000806107d5610f1c565b905060006108027f0000000000000000000000000000000000000000000000000000000000000000611ce9565b90506000610821610811611cef565b61081b8585611cf5565b90611d2f565b905061082d8382611d71565b93505050505b90565b60025481565b7f8b73c3c69bb8fe3d512ecc4cf759cc79239f7b179b0ffacaa9a75d522b39400f81565b6001600160a01b03831660008181526003602090815260408083203380855292528220549192909190821480159061089a57506000198114155b156109305760006108c6856040518060600160405280602f81526020016141d4602f9139849190611daf565b6001600160a01b03808916600081815260036020908152604080832094891680845294909152908190208490555192935090917f8c5be1e5ebec7d5bd14f71427d1e84f3dd0314c0f7b2291e5b200ac8c7c3b925906109269085906139ea565b60405180910390a3505b61093b868686611ddb565b50600195945050505050565b600061095282611a0f565b90506000811161097d5760405162461bcd60e51b815260040161097490613d31565b60405180910390fd5b61098681611ebf565b60006109b17f0000000000000000000000000000000000000000000000000000000000000000611ce9565b905060006109c0610811611cef565b6009549091506109e3906001600160a01b0316336109de8685611d71565b611ee9565b6109ed3385611f8a565b336001600160a01b03167f884edad9ce6fa2440d8a54cc123490eb96d2768479d49ff9c7366125a942436484604051610a2691906139ea565b60405180910390a250505050565b610a3e8282612064565b5050565b7f6e71edae12b1b97f4d1f60370fef10105fa2faae0126114a169c64845d6126c981565b601281565b60075481565b60086020526000908152604090205460ff1681565b6009546040517fd505accf0000000000000000000000000000000000000000000000000000000081526001600160a01b039091169063d505accf90610adb90339030908a908a908a908a908a9060040161391e565b600060405180830381600087803b158015610af557600080fd5b505af1158015610b09573d6000803e3d6000fd5b50505050610b173386612064565b5050505050565b610b26612212565b6001600160a01b0316610b37611234565b6001600160a01b031614610b5d5760405162461bcd60e51b815260040161097490613e7f565b6001600160a01b03811660009081526008602052604090205460ff1615610b965760405162461bcd60e51b815260040161097490613c09565b6001600160a01b0381166000908152600860205260409020805460ff19166001908117909155600754610bc891611c09565b6007556040516001600160a01b038216907fc0a1035c16faf8d1304056d92c00edf028f87e62b8235a938f00af9e3c0312c590600090a250565b610c0a612212565b6001600160a01b0316610c1b611234565b6001600160a01b031614610c415760405162461bcd60e51b815260040161097490613e7f565b600e5460ff1615158115151415610c5757600080fd5b600e805460ff19168215151790556040517f7b014ed3854e7f5cb0218d58b3c6ae7d53a68bb0af2f67bfb029ea42c38a7e8590610c959083906139df565b60405180910390a150565b610ca8612212565b6001600160a01b0316610cb9611234565b6001600160a01b031614610cdf5760405162461bcd60e51b815260040161097490613e7f565b60008111610cec57600080fd5b604051339082156108fc029083906000818181858888f19350505050158015610d19573d6000803e3d6000fd5b507f8c1256b8896378cd5044f80c202f9772b9d77dc85c8a6eb51967210b09bfaa28600082604051610c9592919061395f565b60115481565b7f000000000000000000000000000000000000000000000000000000000000000081565b6001600160a01b0381166000908152600460205260409020545b919050565b610d9d612212565b6001600160a01b0316610dae611234565b6001600160a01b031614610dd45760405162461bcd60e51b815260040161097490613e7f565b6006546040516000916001600160a01b0316907f8be0079c531659141344cd1fd0a4f28419497f9722a3daafe3b4186f6b6457e0908390a3600680546001600160a01b0319169055565b600b546001600160a01b03163314610e485760405162461bcd60e51b815260040161097490613fdc565b601c55565b600d5481565b610e5b612212565b6001600160a01b0316610e6c611234565b6001600160a01b031614610e925760405162461bcd60e51b815260040161097490613e7f565b60405163095ea7b360e01b81526001600160a01b0383169063095ea7b390610ec190849060009060040161395f565b602060405180830381600087803b158015610edb57600080fd5b505af1158015610eef573d6000803e3d6000fd5b505050506040513d601f19601f82011682018060405250810190610f139190613613565b610a3e57600080fd5b600080610f497f000000000000000000000000000000000000000000000000000000000000000030612216565b91505090565b60056020526000908152604090205481565b610f69612212565b6001600160a01b0316610f7a611234565b6001600160a01b031614610fa05760405162461bcd60e51b815260040161097490613e7f565b7f481f79ac3a523b6d6db3c5a720e190e986d1cc1b41adcdf50f9caef849901100600c5482604051610fd3929190614104565b60405180910390a1600c55565b600b546001600160a01b0316331461100a5760405162461bcd60e51b815260040161097490613fdc565b611013816122b9565b50565b61101e612212565b6001600160a01b031661102f611234565b6001600160a01b0316146110555760405162461bcd60e51b815260040161097490613e7f565b6000811161106257600080fd5b60405163a9059cbb60e01b81526001600160a01b0383169063a9059cbb90611090903390859060040161395f565b602060405180830381600087803b1580156110aa57600080fd5b505af11580156110be573d6000803e3d6000fd5b505050506040513d601f19601f820116820180604052508101906110e29190613613565b6110eb57600080fd5b7f8c1256b8896378cd5044f80c202f9772b9d77dc85c8a6eb51967210b09bfaa28828260405161111c92919061395f565b60405180910390a15050565b600f5481565b611136612212565b6001600160a01b0316611147611234565b6001600160a01b03161461116d5760405162461bcd60e51b815260040161097490613e7f565b60006007541161118f5760405162461bcd60e51b815260040161097490613b4f565b6001600160a01b03811660009081526008602052604090205460ff1615156001146111cc5760405162461bcd60e51b815260040161097490613d68565b6001600160a01b0381166000908152600860205260409020805460ff191690556007546111fa906001611d71565b6007556040516001600160a01b038216907f0e86f6608b536e5339a25b65ff531f5ea91e1313d056ecd4752b35cbd16137d490600090a250565b6006546001600160a01b031690565b6015546001600160a01b031681565b600b546001600160a01b0316331461127c5760405162461bcd60e51b815260040161097490613fdc565b600b546040517fa8e91499ed37682f43cffb045fcc7d379a91e8c9a14e6321877ee34dee564c00916112bb916001600160a01b03909116908490613978565b60405180910390a1600b80546001600160a01b0319166001600160a01b0392909216919091179055565b60018054604080516020600284861615610100026000190190941693909304601f810184900484028201840190925281815292918301828280156107a55780601f1061077a576101008083540402835291602001916107a5565b611347612212565b6001600160a01b0316611358611234565b6001600160a01b03161461137e5760405162461bcd60e51b815260040161097490613e7f565b6127106113a2600f5461139c60105485611c0990919063ffffffff16565b90611c09565b11156113ad57600080fd5b7f2a42303d002f0ba6cfe8259c91d4684443fb0b3de286ba74991175d651726131601154826040516113e0929190614104565b60405180910390a1601155565b7fc89efdaa54c0f20c7adf612882df0950f5a951637e0307cdcb4c672f298b8bc681565b6016546001600160a01b031681565b6017546001600160a01b031681565b611437612212565b6001600160a01b0316611448611234565b6001600160a01b03161461146e5760405162461bcd60e51b815260040161097490613e7f565b61271061148c60115461139c60105485611c0990919063ffffffff16565b111561149757600080fd5b7fe7f97d51d307dc44045597c9978bec0f842e6bb40d19b9444084cfa30d9ed4f2600f54826040516114ca929190614104565b60405180910390a1600f55565b60006107c0338484611ddb565b6114ec612212565b6001600160a01b03166114fd611234565b6001600160a01b0316146115235760405162461bcd60e51b815260040161097490613e7f565b6009546040516370a0823160e01b81526000916001600160a01b0316906370a08231906115549030906004016138e6565b60206040518083038186803b15801561156c57600080fd5b505afa158015611580573d6000803e3d6000fd5b505050506040513d601f19601f820116820180604052508101906115a49190613695565b90506115cf7f00000000000000000000000000000000000000000000000000000000000000006124d6565b6009546040516370a0823160e01b81526000916001600160a01b0316906370a08231906116009030906004016138e6565b60206040518083038186803b15801561161857600080fd5b505afa15801561162c573d6000803e3d6000fd5b505050506040513d601f19601f820116820180604052508101906116509190613695565b90508361165d8284611d71565b101561167b5760405162461bcd60e51b815260040161097490613c40565b7fc7606d21ac05cd309191543e409f0845c016120563783d70e4f41419dc0ef2346116a4610f1c565b6002546040516116b5929190614104565b60405180910390a1600e5460ff16151560011480156116d657506001831515145b156116e5576116e56000610c02565b50505050565b600e5460ff1681565b6110133382612064565b600080611709611745565b9050600c5481106117375761172f61271061081b600f5484611cf590919063ffffffff16565b915050610833565b600091505090565b600c5481565b6000806117506125db565b94505050505090565b6009546001600160a01b031681565b611770612212565b6001600160a01b0316611781611234565b6001600160a01b0316146117a75760405162461bcd60e51b815260040161097490613e7f565b6127106117c5600f5461139c60115485611c0990919063ffffffff16565b11156117d057600080fd5b7f3cc372f330f95ac9540626dc8a25f5bf21ba607215a5d58304cb804d446f104a60105482604051611803929190614104565b60405180910390a1601055565b428410156118305760405162461bcd60e51b815260040161097490613cfa565b6001600160a01b0387166000908152600560209081526040808320805460018101909155905161188b927f6e71edae12b1b97f4d1f60370fef10105fa2faae0126114a169c64845d6126c9928c928c928c92918c91016139f3565b6040516020818303038152906040528051906020012090506118b088828686866127f1565b6118bb888888611c35565b5050505050505050565b600b546001600160a01b031681565b6118dc612212565b6001600160a01b03166118ed611234565b6001600160a01b0316146119135760405162461bcd60e51b815260040161097490613e7f565b60405162461bcd60e51b815260040161097490613fa5565b6001600160a01b03918216600090815260036020908152604080832093909416825291909152205490565b600061196c611963610f1c565b60025490611cf5565b611977575080610d90565b6107c4611982610f1c565b60025461081b908590611cf5565b611998612212565b6001600160a01b03166119a9611234565b6001600160a01b0316146119cf5760405162461bcd60e51b815260040161097490613e7f565b7fa5dae50539d56dfe1fb5273d883b0c39bc76750a25d036fc5fbd09ad8fd5f57f600d5482604051611a02929190614104565b60405180910390a1600d55565b6000611a1c611963610f1c565b611a2857506000610d90565b6107c460025461081b611a39610f1c565b8590611cf5565b60007f8b73c3c69bb8fe3d512ecc4cf759cc79239f7b179b0ffacaa9a75d522b39400f60001b6000604051611a759190613840565b6040519081900390207fc89efdaa54c0f20c7adf612882df0950f5a951637e0307cdcb4c672f298b8bc6611aa76128c7565b30604051602001611abc959493929190613a27565b60405160208183030381529060405280519060200120905090565b611adf612212565b6001600160a01b0316611af0611234565b6001600160a01b031614611b165760405162461bcd60e51b815260040161097490613e7f565b6001600160a01b038116611b3c5760405162461bcd60e51b815260040161097490613a84565b6006546040516001600160a01b038084169216907f8be0079c531659141344cd1fd0a4f28419497f9722a3daafe3b4186f6b6457e090600090a3600680546001600160a01b0319166001600160a01b0392909216919091179055565b600a546001600160a01b031681565b323314611bc65760405162461bcd60e51b815260040161097490613ae1565b600080600080611bd46125db565b9350935093509350600c54811015611bfe5760405162461bcd60e51b815260040161097490614013565b6116e58285856128cb565b600082820183811015611c2e5760405162461bcd60e51b815260040161097490613b18565b9392505050565b6001600160a01b038316611c5b5760405162461bcd60e51b815260040161097490613eb4565b6001600160a01b038216611c815760405162461bcd60e51b815260040161097490614081565b6001600160a01b0380841660008181526003602090815260408083209487168084529490915290819020849055517f8c5be1e5ebec7d5bd14f71427d1e84f3dd0314c0f7b2291e5b200ac8c7c3b92590611cdc9085906139ea565b60405180910390a3505050565b50600090565b61271090565b600082611d04575060006107c4565b82820282848281611d1157fe5b0414611c2e5760405162461bcd60e51b815260040161097490613e22565b6000611c2e83836040518060400160405280601a81526020017f536166654d6174683a206469766973696f6e206279207a65726f000000000000815250612a12565b6000611c2e83836040518060400160405280601f81526020017f536166654d6174683a207375627472616374696f6e20756e646572666c6f77008152505b60008184841115611dd35760405162461bcd60e51b81526004016109749190613a71565b505050900390565b6001600160a01b038216611e015760405162461bcd60e51b815260040161097490613eeb565b611e3e816040518060600160405280602e815260200161422a602e91396001600160a01b0386166000908152600460205260409020549190611daf565b6001600160a01b038085166000908152600460205260408082209390935590841681522054611e6d9082611c09565b6001600160a01b0380841660008181526004602052604090819020939093559151908516907fddf252ad1be2c89b69c2b068fc378daa952ba7f163c4a11628f55a4df523b3ef90611cdc9085906139ea565b6110137f000000000000000000000000000000000000000000000000000000000000000082612a49565b60405163a9059cbb60e01b81526001600160a01b0384169063a9059cbb90611f17908590859060040161395f565b602060405180830381600087803b158015611f3157600080fd5b505af1158015611f45573d6000803e3d6000fd5b505050506040513d601f19601f82011682018060405250810190611f699190613613565b611f855760405162461bcd60e51b815260040161097490613c9d565b505050565b611fc781604051806060016040528060278152602001614203602791396001600160a01b0385166000908152600460205260409020549190611daf565b60046000846001600160a01b03166001600160a01b0316815260200190815260200160002081905550612017816040518060600160405280602781526020016141ad602791396002549190611daf565b6002556040516000906001600160a01b038416907fddf252ad1be2c89b69c2b068fc378daa952ba7f163c4a11628f55a4df523b3ef906120589085906139ea565b60405180910390a35050565b600e5460ff16151560011461208b5760405162461bcd60e51b81526004016109749061404a565b600d54156120c3576000806000806120a16125db565b9350935093509350600d548111156120be576120be8285856128cb565b505050505b6009546040517f23b872dd0000000000000000000000000000000000000000000000000000000081526001600160a01b03909116906323b872dd90612110903390309086906004016138fa565b602060405180830381600087803b15801561212a57600080fd5b505af115801561213e573d6000803e3d6000fd5b505050506040513d601f19601f820116820180604052508101906121629190613613565b61217e5760405162461bcd60e51b815260040161097490613f48565b60006121a97f0000000000000000000000000000000000000000000000000000000000000000611ce9565b905060006121b8610811611cef565b90506121d0846121cb6106c98685611d71565b612ab1565b6121d983612b33565b836001600160a01b03167fe1fffcc4923d04b559f4d29a8bfc6cda04eb5b0d3c460751c2402c5c5cc9109c84604051610a2691906139ea565b3390565b6017546040517f93f1a40b0000000000000000000000000000000000000000000000000000000081526000916001600160a01b0316906393f1a40b9061226290869086906004016140ed565b604080518083038186803b15801561227957600080fd5b505afa15801561228d573d6000803e3d6000fd5b505050506040513d601f19601f820116820180604052508101906122b1919061378d565b509392505050565b6001600160a01b038116156124b757600a54604080517f0dfe168100000000000000000000000000000000000000000000000000000000815290516001600160a01b0392831692841691630dfe1681916004808301926020929190829003018186803b15801561232857600080fd5b505afa15801561233c573d6000803e3d6000fd5b505050506040513d601f19601f8201168201806040525081019061236091906134c8565b6001600160a01b0316141561240557806001600160a01b031663d21220a76040518163ffffffff1660e01b815260040160206040518083038186803b1580156123a857600080fd5b505afa1580156123bc573d6000803e3d6000fd5b505050506040513d601f19601f820116820180604052508101906123e091906134c8565b601680546001600160a01b0319166001600160a01b0392909216919091179055612497565b806001600160a01b0316630dfe16816040518163ffffffff1660e01b815260040160206040518083038186803b15801561243e57600080fd5b505afa158015612452573d6000803e3d6000fd5b505050506040513d601f19601f8201168201806040525081019061247691906134c8565b601680546001600160a01b0319166001600160a01b03929092169190911790555b601580546001600160a01b0319166001600160a01b038316179055611013565b601580546001600160a01b031990811690915560168054909116905550565b6017546040517f5312ea8e0000000000000000000000000000000000000000000000000000000081526001600160a01b0390911690635312ea8e9061251f9084906004016139ea565b600060405180830381600087803b15801561253957600080fd5b505af115801561254d573d6000803e3d6000fd5b505060095460175460405163095ea7b360e01b81526001600160a01b03928316945063095ea7b39350612589929091169060009060040161395f565b602060405180830381600087803b1580156125a357600080fd5b505af11580156125b7573d6000803e3d6000fd5b505050506040513d601f19601f82011682018060405250810190610a3e9190613613565b6013546040516370a0823160e01b815260009182918291829182916001600160a01b0316906370a08231906126149030906004016138e6565b60206040518083038186803b15801561262c57600080fd5b505afa158015612640573d6000803e3d6000fd5b505050506040513d601f19601f820116820180604052508101906126649190613695565b905060008060006126957f000000000000000000000000000000000000000000000000000000000000000030612b7d565b9194509250905060006126a88585611c09565b601354600a546014549293506000926126d39285926001600160a01b03918216929082169116612c3c565b905060006001600160a01b03841615612746576001600160a01b03841673b31f66aa3c1e785363f0875a1b74e27b85fd66c71415612712575083612746565b6015546001600160a01b03161561274657600a5460155461274391879187916001600160a01b039081169116612c3c565b90505b600a546040516370a0823160e01b81526000916127cd9184916001600160a01b0316906370a082319061277d9030906004016138e6565b60206040518083038186803b15801561279557600080fd5b505afa1580156127a9573d6000803e3d6000fd5b505050506040513d601f19601f8201168201806040525081019061139c9190613695565b905060006127db8285611c09565b949d969c50909a50929850939650505050505050565b60006127fb611a40565b8560405160200161280d9291906138b0565b60405160208183030381529060405280519060200120905060006001828686866040516000815260200160405260405161284a9493929190613a53565b6020604051602081039080840390855afa15801561286c573d6000803e3d6000fd5b5050604051601f1901519150506001600160a01b038116158015906128a25750866001600160a01b0316816001600160a01b0316145b6128be5760405162461bcd60e51b815260040161097490613bac565b50505050505050565b4690565b6128f47f0000000000000000000000000000000000000000000000000000000000000000612d17565b600061290961290284612d78565b8590611c09565b905061291f6129188584612dc0565b8290611c09565b50600061293d61271061081b60115485611cf590919063ffffffff16565b9050801561296257600a54600b54612962916001600160a01b03908116911683611ee9565b600061297f61271061081b600f5486611cf590919063ffffffff16565b9050801561299e57600a5461299e906001600160a01b03163383611ee9565b60006129bc6129b7836129b18787611d71565b90611d71565b612f13565b90506129c781612b33565b7fc7606d21ac05cd309191543e409f0845c016120563783d70e4f41419dc0ef2346129f0610f1c565b600254604051612a01929190614104565b60405180910390a150505050505050565b60008183612a335760405162461bcd60e51b81526004016109749190613a71565b506000838581612a3f57fe5b0495945050505050565b601754604051630441a3e760e41b81526001600160a01b039091169063441a3e7090612a7b9085908590600401614104565b600060405180830381600087803b158015612a9557600080fd5b505af1158015612aa9573d6000803e3d6000fd5b505050505050565b600254612abe9082611c09565b6002556001600160a01b038216600090815260046020526040902054612ae49082611c09565b6001600160a01b0383166000818152600460205260408082209390935591519091907fddf252ad1be2c89b69c2b068fc378daa952ba7f163c4a11628f55a4df523b3ef906120589085906139ea565b60008111612b535760405162461bcd60e51b815260040161097490613dc5565b6110137f000000000000000000000000000000000000000000000000000000000000000082613104565b6017546040517fffcd4263000000000000000000000000000000000000000000000000000000008152600091829182918291829182916001600160a01b039091169063ffcd426390612bd5908b908b906004016140ed565b60006040518083038186803b158015612bed57600080fd5b505afa158015612c01573d6000803e3d6000fd5b505050506040513d6000823e601f3d908101601f19168201604052612c2991908101906136ad565b9298509196509450505050509250925092565b600080612c4985856131d8565b509050600080846001600160a01b0316630902f1ac6040518163ffffffff1660e01b815260040160606040518083038186803b158015612c8857600080fd5b505afa158015612c9c573d6000803e3d6000fd5b505050506040513d601f19601f82011682018060405250810190612cc0919061362f565b5091509150866001600160a01b0316836001600160a01b031614612ce057905b612d0b88836dffffffffffffffffffffffffffff16836dffffffffffffffffffffffffffff16613209565b98975050505050505050565b601754604051630441a3e760e41b81526001600160a01b039091169063441a3e7090612d4a908490600090600401614104565b600060405180830381600087803b158015612d6457600080fd5b505af1158015610b17573d6000803e3d6000fd5b601354600a546000916001600160a01b0391821691161415612d9b575080610d90565b601354600a546014546107c49285926001600160a01b03918216929082169116613251565b60008115612f0a576015546001600160a01b031615612e0557601654600a54601554612dfe9285926001600160a01b03918216929082169116613251565b90506107c4565b478015612e755773b31f66aa3c1e785363f0875a1b74e27b85fd66c76001600160a01b031663d0e30db0826040518263ffffffff1660e01b81526004016000604051808303818588803b158015612e5b57600080fd5b505af1158015612e6f573d6000803e3d6000fd5b50505050505b6040516370a0823160e01b8152612f0290859073b31f66aa3c1e785363f0875a1b74e27b85fd66c7906370a0823190612eb29030906004016138e6565b60206040518083038186803b158015612eca57600080fd5b505afa158015612ede573d6000803e3d6000fd5b505050506040513d601f19601f820116820180604052508101906129b19190613695565b9150506107c4565b50600092915050565b600a54601a546019546000928392612f3c9286926001600160a01b039081169281169116613251565b9050606060186000015467ffffffffffffffff81118015612f5c57600080fd5b50604051908082528060200260200182016040528015612f86578160200160208202803683370190505b50601b54601a546040517f66c0bd240000000000000000000000000000000000000000000000000000000081529293506000926001600160a01b03928316926366c0bd2492612fda929116906004016138e6565b60206040518083038186803b158015612ff257600080fd5b505afa158015613006573d6000803e3d6000fd5b505050506040513d601f19601f8201168201806040525081019061302a91906137f8565b60ff1690508282828151811061303c57fe5b602002602001018181525050600061306861271061081b60186004015487611cf590919063ffffffff16565b601b549091506001600160a01b0316634d49e87d846130878785611d71565b6000196040518463ffffffff1660e01b81526004016130a893929190613992565b602060405180830381600087803b1580156130c257600080fd5b505af11580156130d6573d6000803e3d6000fd5b505050506040513d601f19601f820116820180604052508101906130fa9190613695565b9695505050505050565b60095460175460405163095ea7b360e01b81526001600160a01b039283169263095ea7b39261313a92911690859060040161395f565b602060405180830381600087803b15801561315457600080fd5b505af1158015613168573d6000803e3d6000fd5b505050506040513d601f19601f8201168201806040525081019061318c9190613613565b506017546040517fe2bbb1580000000000000000000000000000000000000000000000000000000081526001600160a01b039091169063e2bbb15890612a7b9085908590600401614104565b600080826001600160a01b0316846001600160a01b0316106131fb5782846131fe565b83835b915091509250929050565b600080613218856103e5611cf5565b905060006132268285611cf5565b9050600061323a8361139c886103e8611cf5565b90506132468282611d2f565b979650505050505050565b60008061325e85856131d8565b509050600080846001600160a01b0316630902f1ac6040518163ffffffff1660e01b815260040160606040518083038186803b15801561329d57600080fd5b505afa1580156132b1573d6000803e3d6000fd5b505050506040513d601f19601f820116820180604052508101906132d5919061362f565b5091509150866001600160a01b0316836001600160a01b0316146132f557905b6000806133238a856dffffffffffffffffffffffffffff16856dffffffffffffffffffffffffffff16613209565b9050886001600160a01b0316856001600160a01b03161461334057905b61334b89888c6133f2565b604080516000815260208101918290527f022c0d9f000000000000000000000000000000000000000000000000000000009091526001600160a01b0388169063022c0d9f906133a39085908590309060248101614112565b600060405180830381600087803b1580156133bd57600080fd5b505af11580156133d1573d6000803e3d6000fd5b505050508181116133e257816133e4565b805b9a9950505050505050505050565b60405163a9059cbb60e01b81526001600160a01b0384169063a9059cbb90613420908590859060040161395f565b602060405180830381600087803b15801561343a57600080fd5b505af115801561344e573d6000803e3d6000fd5b505050506040513d601f19601f820116820180604052508101906134729190613613565b611f855760405162461bcd60e51b8152600401610974906140b8565b80516dffffffffffffffffffffffffffff81168114610d9057600080fd5b6000602082840312156134bd578081fd5b8135611c2e8161417a565b6000602082840312156134d9578081fd5b8151611c2e8161417a565b600080604083850312156134f6578081fd5b82356135018161417a565b915060208301356135118161417a565b809150509250929050565b600080600060608486031215613530578081fd5b833561353b8161417a565b9250602084013561354b8161417a565b929592945050506040919091013590565b600080600080600080600060e0888a031215613576578283fd5b87356135818161417a565b965060208801356135918161417a565b9550604088013594506060880135935060808801356135af8161419d565b9699959850939692959460a0840135945060c09093013592915050565b600080604083850312156135de578182fd5b82356135e98161417a565b946020939093013593505050565b600060208284031215613608578081fd5b8135611c2e8161418f565b600060208284031215613624578081fd5b8151611c2e8161418f565b600080600060608486031215613643578283fd5b61364c8461348e565b925061365a6020850161348e565b9150604084015163ffffffff81168114613672578182fd5b809150509250925092565b60006020828403121561368e578081fd5b5035919050565b6000602082840312156136a6578081fd5b5051919050565b600080600080608085870312156136c2578384fd5b8451935060208501516136d48161417a565b604086015190935067ffffffffffffffff808211156136f1578384fd5b818701915087601f830112613704578384fd5b81518181111561371057fe5b604051601f8201601f19168101602001838111828210171561372e57fe5b6040528181528382016020018a1015613745578586fd5b61375682602083016020870161414e565b6060989098015196999598505050505050565b6000806040838503121561377b578182fd5b8235915060208301356135118161418f565b6000806040838503121561379f578182fd5b505080516020909101519092909150565b600080600080600060a086880312156137c7578283fd5b853594506020860135935060408601356137e08161419d565b94979396509394606081013594506080013592915050565b600060208284031215613809578081fd5b8151611c2e8161419d565b6000815180845261382c81602086016020860161414e565b601f01601f19169290920160200192915050565b600080835460018082166000811461385f5760018114613876576138a5565b60ff198316865260028304607f16860193506138a5565b600283048786526020808720875b8381101561389d5781548a820152908501908201613884565b505050860193505b509195945050505050565b7f190100000000000000000000000000000000000000000000000000000000000081526002810192909252602282015260420190565b6001600160a01b0391909116815260200190565b6001600160a01b039384168152919092166020820152604081019190915260600190565b6001600160a01b0397881681529590961660208601526040850193909352606084019190915260ff16608083015260a082015260c081019190915260e00190565b6001600160a01b03929092168252602082015260400190565b6001600160a01b0392831681529116602082015260400190565b606080825284519082018190526000906020906080840190828801845b828110156139cb578151845292840192908401906001016139af565b505050908301949094525060400152919050565b901515815260200190565b90815260200190565b9586526001600160a01b0394851660208701529290931660408501526060840152608083019190915260a082015260c00190565b9485526020850193909352604084019190915260608301526001600160a01b0316608082015260a00190565b93845260ff9290921660208401526040830152606082015260800190565b600060208252611c2e6020830184613814565b60208082526026908201527f4f776e61626c653a206e6577206f776e657220697320746865207a65726f206160408201527f6464726573730000000000000000000000000000000000000000000000000000606082015260800190565b60208082526014908201527f59616b53747261746567793a3a6f6e6c79454f41000000000000000000000000604082015260600190565b6020808252601b908201527f536166654d6174683a206164646974696f6e206f766572666c6f770000000000604082015260600190565b60208082526034908201527f5065726d697373696f6e65643a3a72656d6f76654465706f7369746f722c206e60408201527f6f20616c6c6f776564206465706f7369746f7273000000000000000000000000606082015260800190565b60208082526024908201527f417263683a3a76616c69646174655369673a20696e76616c6964207369676e6160408201527f7475726500000000000000000000000000000000000000000000000000000000606082015260800190565b6020808252601c908201527f5065726d697373696f6e65643a3a616c6c6f774465706f7369746f7200000000604082015260600190565b60208082526029908201527f4d617374657243686566537472617465677956313a3a7265736375654465706c60408201527f6f79656446756e64730000000000000000000000000000000000000000000000606082015260800190565b6020808252602a908201527f4d617374657243686566537472617465677956313a3a5452414e534645525f4660408201527f524f4d5f4641494c454400000000000000000000000000000000000000000000606082015260800190565b6020808252600f908201527f7065726d69743a3a657870697265640000000000000000000000000000000000604082015260600190565b6020808252601e908201527f4d617374657243686566537472617465677956313a3a77697468647261770000604082015260600190565b6020808252602a908201527f5065726d697373696f6e65643a3a72656d6f76654465706f7369746f722c206e60408201527f6f7420616c6c6f77656400000000000000000000000000000000000000000000606082015260800190565b60208082526029908201527f4d617374657243686566537472617465677956313a3a5f7374616b654465706f60408201527f736974546f6b656e730000000000000000000000000000000000000000000000606082015260800190565b60208082526021908201527f536166654d6174683a206d756c7469706c69636174696f6e206f766572666c6f60408201527f7700000000000000000000000000000000000000000000000000000000000000606082015260800190565b6020808252818101527f4f776e61626c653a2063616c6c6572206973206e6f7420746865206f776e6572604082015260600190565b6020808252601c908201527f5f617070726f76653a3a6f776e6572207a65726f206164647265737300000000604082015260600190565b60208082526034908201527f5f7472616e73666572546f6b656e733a2063616e6e6f74207472616e7366657260408201527f20746f20746865207a65726f2061646472657373000000000000000000000000606082015260800190565b60208082526025908201527f4d617374657243686566537472617465677956313a3a7472616e73666572206660408201527f61696c6564000000000000000000000000000000000000000000000000000000606082015260800190565b60208082526019908201527f736574416c6c6f77616e6365733a3a6465707265636174656400000000000000604082015260600190565b60208082526014908201527f59616b53747261746567793a3a6f6e6c79446576000000000000000000000000604082015260600190565b6020808252601e908201527f4d617374657243686566537472617465677956313a3a7265696e766573740000604082015260600190565b6020808252601e908201527f4d617374657243686566537472617465677956313a3a5f6465706f7369740000604082015260600190565b6020808252601e908201527f5f617070726f76653a3a7370656e646572207a65726f20616464726573730000604082015260600190565b6020808252818101527f4465784c6962726172793a3a5452414e534645525f46524f4d5f4641494c4544604082015260600190565b9182526001600160a01b0316602082015260400190565b918252602082015260400190565b60008582528460208301526001600160a01b0384166040830152608060608301526130fa6080830184613814565b60ff91909116815260200190565b60005b83811015614169578181015183820152602001614151565b838111156116e55750506000910152565b6001600160a01b038116811461101357600080fd5b801515811461101357600080fd5b60ff8116811461101357600080fdfe5f6275726e3a206275726e20616d6f756e74206578636565647320746f74616c20737570706c797472616e7366657246726f6d3a207472616e7366657220616d6f756e74206578636565647320616c6c6f77616e63655f6275726e3a206275726e20616d6f756e7420657863656564732066726f6d2062616c616e63655f7472616e73666572546f6b656e733a207472616e7366657220657863656564732066726f6d2062616c616e6365a2646970667358221220d1b60c0948c29b9f8aba22aa2fc7f09c1bedc5bfbad94fda49ce7ff2a24f788564736f6c6343000703003353776170207061697220277377617050616972506f6f6c5265776172642720648be0079c531659141344cd1fd0a4f28419497f9722a3daafe3b4186f6b6457e0",
  "devdoc": {
    "kind": "dev",
    "methods": {
      "allowDepositor(address)": {
        "params": {
          "depositor": "address"
        }
      },
      "allowance(address,address)": {
        "params": {
          "account": "The address of the account holding the funds",
          "spender": "The address of the account spending the funds"
        },
        "returns": {
          "_0": "The number of tokens approved"
        }
      },
      "approve(address,uint256)": {
        "details": "This will overwrite the approval amount for `spender` and is subject to issues noted [here](https://eips.ethereum.org/EIPS/eip-20#approve) It is recommended to use increaseAllowance and decreaseAllowance instead",
        "params": {
          "amount": "The number of tokens that are approved (2^256-1 means infinite)",
          "spender": "The address of the account which may transfer tokens"
        },
        "returns": {
          "_0": "Whether or not the approval succeeded"
        }
      },
      "balanceOf(address)": {
        "params": {
          "account": "The address of the account to get the balance of"
        },
        "returns": {
          "_0": "The number of tokens held"
        }
      },
      "checkReward()": {
        "returns": {
          "_0": "reward tokens"
        }
      },
      "deposit(uint256)": {
        "params": {
          "amount": "Amount of tokens to deposit"
        }
      },
      "depositFor(address,uint256)": {
        "details": "Must mint receipt tokens to `account`",
        "params": {
          "account": "address to receive receipt tokens",
          "amount": "deposit tokens"
        }
      },
      "depositWithPermit(uint256,uint256,uint8,bytes32,bytes32)": {
        "params": {
          "amount": "Amount of tokens to deposit",
          "deadline": "The time at which to expire the signature",
          "r": "Half of the ECDSA signature pair",
          "s": "Half of the ECDSA signature pair",
          "v": "The recovery byte of the signature"
        }
      },
      "estimateDeployedBalance()": {
        "returns": {
          "_0": "deposit tokens after withdraw fee"
        }
      },
      "estimateReinvestReward()": {
        "returns": {
          "_0": "reward tokens"
        }
      },
      "getDepositTokensForShares(uint256)": {
        "params": {
          "amount": "receipt tokens"
        },
        "returns": {
          "_0": "deposit tokens"
        }
      },
      "getDomainSeparator()": {
        "returns": {
          "_0": "Separator"
        }
      },
      "getSharesForDepositTokens(uint256)": {
        "details": "If contract is empty, use 1:1 ratioCould return zero shares for very low amounts of deposit tokens",
        "params": {
          "amount": "deposit tokens"
        },
        "returns": {
          "_0": "receipt tokens"
        }
      },
      "owner()": {
        "details": "Returns the address of the current owner."
      },
      "permit(address,address,uint256,uint256,uint8,bytes32,bytes32)": {
        "params": {
          "deadline": "The time at which to expire the signature",
          "owner": "The address to approve from",
          "r": "Half of the ECDSA signature pair",
          "s": "Half of the ECDSA signature pair",
          "spender": "The address to be approved",
          "v": "The recovery byte of the signature",
          "value": "The number of tokens that are approved (2^256-1 means infinite)"
        }
      },
      "recoverAVAX(uint256)": {
        "params": {
          "amount": "amount"
        }
      },
      "recoverERC20(address,uint256)": {
        "params": {
          "tokenAddress": "token address",
          "tokenAmount": "amount to recover"
        }
      },
      "removeDepositor(address)": {
        "params": {
          "depositor": "address"
        }
      },
      "renounceOwnership()": {
        "details": "Leaves the contract without owner. It will not be possible to call `onlyOwner` functions anymore. Can only be called by the current owner. NOTE: Renouncing ownership will leave the contract without an owner, thereby removing any functionality that is only available to the owner."
      },
      "rescueDeployedFunds(uint256,bool)": {
        "params": {
          "disableDeposits": "bool",
          "minReturnAmountAccepted": "min deposit tokens to receive"
        }
      },
      "revokeAllowance(address,address)": {
        "params": {
          "spender": "address",
          "token": "address"
        }
      },
      "setAllowances()": {
        "details": "Deprecated; approvals should be handled in context of staking"
      },
      "totalDeposits()": {
        "returns": {
          "_0": "total deposits available on the contract"
        }
      },
      "transfer(address,uint256)": {
        "params": {
          "amount": "The number of tokens to transfer",
          "dst": "The address of the destination account"
        },
        "returns": {
          "_0": "Whether or not the transfer succeeded"
        }
      },
      "transferFrom(address,address,uint256)": {
        "params": {
          "amount": "The number of tokens to transfer",
          "dst": "The address of the destination account",
          "src": "The address of the source account"
        },
        "returns": {
          "_0": "Whether or not the transfer succeeded"
        }
      },
      "transferOwnership(address)": {
        "details": "Transfers ownership of the contract to a new account (`newOwner`). Can only be called by the current owner."
      },
      "updateAdminFee(uint256)": {
        "params": {
          "newValue": "fee in BIPS"
        }
      },
      "updateDepositsEnabled(bool)": {
        "params": {
          "newValue": "bool"
        }
      },
      "updateDevAddr(address)": {
        "params": {
          "newValue": "address"
        }
      },
      "updateDevFee(uint256)": {
        "params": {
          "newValue": "fee in BIPS"
        }
      },
      "updateMaxTokensToDepositWithoutReinvest(uint256)": {
        "params": {
          "newValue": "threshold"
        }
      },
      "updateMinTokensToReinvest(uint256)": {
        "params": {
          "newValue": "threshold"
        }
      },
      "updateReinvestReward(uint256)": {
        "params": {
          "newValue": "fee in BIPS"
        }
      },
      "withdraw(uint256)": {
        "params": {
          "amount": "receipt tokens"
        }
      }
    },
    "version": 1
  },
  "userdoc": {
    "kind": "user",
    "methods": {
      "allowDepositor(address)": {
        "notice": "Add an allowed depositor"
      },
      "allowance(address,address)": {
        "notice": "Get the number of tokens `spender` is approved to spend on behalf of `account`"
      },
      "approve(address,uint256)": {
        "notice": "Approve `spender` to transfer up to `amount` from `src`"
      },
      "balanceOf(address)": {
        "notice": "Get the number of tokens held by the `account`"
      },
      "checkReward()": {
        "notice": "Reward tokens avialable to strategy, including balance"
      },
      "deposit(uint256)": {
        "notice": "Deposit tokens to receive receipt tokens"
      },
      "depositFor(address,uint256)": {
        "notice": "Deposit on behalf of another account"
      },
      "depositWithPermit(uint256,uint256,uint8,bytes32,bytes32)": {
        "notice": "Deposit using Permit"
      },
      "estimateDeployedBalance()": {
        "notice": "Estimate recoverable balance after withdraw fee"
      },
      "estimateReinvestReward()": {
        "notice": "Estimate reinvest reward"
      },
      "getDepositTokensForShares(uint256)": {
        "notice": "Calculate deposit tokens for a given amount of receipt tokens"
      },
      "getDomainSeparator()": {
        "notice": "EIP-712 Domain separator"
      },
      "getSharesForDepositTokens(uint256)": {
        "notice": "Calculate receipt tokens for a given amount of deposit tokens"
      },
      "permit(address,address,uint256,uint256,uint8,bytes32,bytes32)": {
        "notice": "Triggers an approval from owner to spender"
      },
      "recoverAVAX(uint256)": {
        "notice": "Recover AVAX from contract"
      },
      "recoverERC20(address,uint256)": {
        "notice": "Recover ERC20 from contract"
      },
      "reinvest()": {
        "notice": "Reinvest reward tokens into deposit tokens"
      },
      "removeDepositor(address)": {
        "notice": "Remove an allowed depositor"
      },
      "rescueDeployedFunds(uint256,bool)": {
        "notice": "Rescue all available deployed deposit tokens back to Strategy"
      },
      "revokeAllowance(address,address)": {
        "notice": "Revoke token allowance"
      },
      "setAllowances()": {
        "notice": "Approve tokens for use in Strategy"
      },
      "totalDeposits()": {
        "notice": "This function returns a snapshot of last available quotes"
      },
      "transfer(address,uint256)": {
        "notice": "Transfer `amount` tokens from `msg.sender` to `dst`"
      },
      "transferFrom(address,address,uint256)": {
        "notice": "Transfer `amount` tokens from `src` to `dst`"
      },
      "updateAdminFee(uint256)": {
        "notice": "Update admin fee"
      },
      "updateDepositsEnabled(bool)": {
        "notice": "Enable/disable deposits"
      },
      "updateDevAddr(address)": {
        "notice": "Update devAddr"
      },
      "updateDevFee(uint256)": {
        "notice": "Update developer fee"
      },
      "updateMaxTokensToDepositWithoutReinvest(uint256)": {
        "notice": "Update reinvest max threshold before a deposit"
      },
      "updateMinTokensToReinvest(uint256)": {
        "notice": "Update reinvest min threshold"
      },
      "updateReinvestReward(uint256)": {
        "notice": "Update reinvest reward"
      },
      "withdraw(uint256)": {
        "notice": "Redeem receipt tokens for deposit tokens"
      }
    },
    "version": 1
  },
  "storageLayout": {
    "storage": [
      {
        "astId": 5527,
        "contract": "contracts/strategies/AxialStrategyForLP.sol:AxialStrategyForLP",
        "label": "name",
        "offset": 0,
        "slot": "0",
        "type": "t_string_storage"
      },
      {
        "astId": 5530,
        "contract": "contracts/strategies/AxialStrategyForLP.sol:AxialStrategyForLP",
        "label": "symbol",
        "offset": 0,
        "slot": "1",
        "type": "t_string_storage"
      },
      {
        "astId": 5535,
        "contract": "contracts/strategies/AxialStrategyForLP.sol:AxialStrategyForLP",
        "label": "totalSupply",
        "offset": 0,
        "slot": "2",
        "type": "t_uint256"
      },
      {
        "astId": 5541,
        "contract": "contracts/strategies/AxialStrategyForLP.sol:AxialStrategyForLP",
        "label": "allowances",
        "offset": 0,
        "slot": "3",
        "type": "t_mapping(t_address,t_mapping(t_address,t_uint256))"
      },
      {
        "astId": 5545,
        "contract": "contracts/strategies/AxialStrategyForLP.sol:AxialStrategyForLP",
        "label": "balances",
        "offset": 0,
        "slot": "4",
        "type": "t_mapping(t_address,t_uint256)"
      },
      {
        "astId": 5561,
        "contract": "contracts/strategies/AxialStrategyForLP.sol:AxialStrategyForLP",
        "label": "nonces",
        "offset": 0,
        "slot": "5",
        "type": "t_mapping(t_address,t_uint256)"
      },
      {
        "astId": 14401,
        "contract": "contracts/strategies/AxialStrategyForLP.sol:AxialStrategyForLP",
        "label": "_owner",
        "offset": 0,
        "slot": "6",
        "type": "t_address"
      },
      {
        "astId": 14514,
        "contract": "contracts/strategies/AxialStrategyForLP.sol:AxialStrategyForLP",
        "label": "numberOfAllowedDepositors",
        "offset": 0,
        "slot": "7",
        "type": "t_uint256"
      },
      {
        "astId": 14518,
        "contract": "contracts/strategies/AxialStrategyForLP.sol:AxialStrategyForLP",
        "label": "allowedDepositors",
        "offset": 0,
        "slot": "8",
        "type": "t_mapping(t_address,t_bool)"
      },
      {
        "astId": 6700,
        "contract": "contracts/strategies/AxialStrategyForLP.sol:AxialStrategyForLP",
        "label": "depositToken",
        "offset": 0,
        "slot": "9",
        "type": "t_contract(IERC20)9241"
      },
      {
        "astId": 6702,
        "contract": "contracts/strategies/AxialStrategyForLP.sol:AxialStrategyForLP",
        "label": "rewardToken",
        "offset": 0,
        "slot": "10",
        "type": "t_contract(IERC20)9241"
      },
      {
        "astId": 6704,
        "contract": "contracts/strategies/AxialStrategyForLP.sol:AxialStrategyForLP",
        "label": "devAddr",
        "offset": 0,
        "slot": "11",
        "type": "t_address"
      },
      {
        "astId": 6706,
        "contract": "contracts/strategies/AxialStrategyForLP.sol:AxialStrategyForLP",
        "label": "MIN_TOKENS_TO_REINVEST",
        "offset": 0,
        "slot": "12",
        "type": "t_uint256"
      },
      {
        "astId": 6708,
        "contract": "contracts/strategies/AxialStrategyForLP.sol:AxialStrategyForLP",
        "label": "MAX_TOKENS_TO_DEPOSIT_WITHOUT_REINVEST",
        "offset": 0,
        "slot": "13",
        "type": "t_uint256"
      },
      {
        "astId": 6710,
        "contract": "contracts/strategies/AxialStrategyForLP.sol:AxialStrategyForLP",
        "label": "DEPOSITS_ENABLED",
        "offset": 0,
        "slot": "14",
        "type": "t_bool"
      },
      {
        "astId": 6712,
        "contract": "contracts/strategies/AxialStrategyForLP.sol:AxialStrategyForLP",
        "label": "REINVEST_REWARD_BIPS",
        "offset": 0,
        "slot": "15",
        "type": "t_uint256"
      },
      {
        "astId": 6714,
        "contract": "contracts/strategies/AxialStrategyForLP.sol:AxialStrategyForLP",
        "label": "ADMIN_FEE_BIPS",
        "offset": 0,
        "slot": "16",
        "type": "t_uint256"
      },
      {
        "astId": 6716,
        "contract": "contracts/strategies/AxialStrategyForLP.sol:AxialStrategyForLP",
        "label": "DEV_FEE_BIPS",
        "offset": 0,
        "slot": "17",
        "type": "t_uint256"
      },
      {
        "astId": 73398,
        "contract": "contracts/strategies/AxialStrategyForLP.sol:AxialStrategyForLP",
        "label": "stakingContract",
        "offset": 0,
        "slot": "18",
        "type": "t_address"
      },
      {
        "astId": 73400,
        "contract": "contracts/strategies/AxialStrategyForLP.sol:AxialStrategyForLP",
        "label": "poolRewardToken",
        "offset": 0,
        "slot": "19",
        "type": "t_address"
      },
      {
        "astId": 73402,
        "contract": "contracts/strategies/AxialStrategyForLP.sol:AxialStrategyForLP",
        "label": "swapPairPoolReward",
        "offset": 0,
        "slot": "20",
        "type": "t_contract(IPair)11533"
      },
      {
        "astId": 73404,
        "contract": "contracts/strategies/AxialStrategyForLP.sol:AxialStrategyForLP",
        "label": "swapPairExtraReward",
        "offset": 0,
        "slot": "21",
        "type": "t_address"
      },
      {
        "astId": 73406,
        "contract": "contracts/strategies/AxialStrategyForLP.sol:AxialStrategyForLP",
        "label": "extraToken",
        "offset": 0,
        "slot": "22",
        "type": "t_address"
      },
      {
        "astId": 18403,
        "contract": "contracts/strategies/AxialStrategyForLP.sol:AxialStrategyForLP",
        "label": "axialChef",
        "offset": 0,
        "slot": "23",
        "type": "t_contract(IAxialChef)8372"
      },
      {
        "astId": 18405,
        "contract": "contracts/strategies/AxialStrategyForLP.sol:AxialStrategyForLP",
        "label": "zapSettings",
        "offset": 0,
        "slot": "24",
        "type": "t_struct(ZapSettings)18416_storage"
      }
    ],
    "types": {
      "t_address": {
        "encoding": "inplace",
        "label": "address",
        "numberOfBytes": "20"
      },
      "t_bool": {
        "encoding": "inplace",
        "label": "bool",
        "numberOfBytes": "1"
      },
      "t_contract(IAxialChef)8372": {
        "encoding": "inplace",
        "label": "contract IAxialChef",
        "numberOfBytes": "20"
      },
      "t_contract(IERC20)9241": {
        "encoding": "inplace",
        "label": "contract IERC20",
        "numberOfBytes": "20"
      },
      "t_contract(IPair)11533": {
        "encoding": "inplace",
        "label": "contract IPair",
        "numberOfBytes": "20"
      },
      "t_mapping(t_address,t_bool)": {
        "encoding": "mapping",
        "key": "t_address",
        "label": "mapping(address => bool)",
        "numberOfBytes": "32",
        "value": "t_bool"
      },
      "t_mapping(t_address,t_mapping(t_address,t_uint256))": {
        "encoding": "mapping",
        "key": "t_address",
        "label": "mapping(address => mapping(address => uint256))",
        "numberOfBytes": "32",
        "value": "t_mapping(t_address,t_uint256)"
      },
      "t_mapping(t_address,t_uint256)": {
        "encoding": "mapping",
        "key": "t_address",
        "label": "mapping(address => uint256)",
        "numberOfBytes": "32",
        "value": "t_uint256"
      },
      "t_string_storage": {
        "encoding": "bytes",
        "label": "string",
        "numberOfBytes": "32"
      },
      "t_struct(ZapSettings)18416_storage": {
        "encoding": "inplace",
        "label": "struct AxialStrategyForLP.ZapSettings",
        "members": [
          {
            "astId": 18407,
            "contract": "contracts/strategies/AxialStrategyForLP.sol:AxialStrategyForLP",
            "label": "tokenCount",
            "offset": 0,
            "slot": "0",
            "type": "t_uint256"
          },
          {
            "astId": 18409,
            "contract": "contracts/strategies/AxialStrategyForLP.sol:AxialStrategyForLP",
            "label": "swapPairRewardZap",
            "offset": 0,
            "slot": "1",
            "type": "t_address"
          },
          {
            "astId": 18411,
            "contract": "contracts/strategies/AxialStrategyForLP.sol:AxialStrategyForLP",
            "label": "zapToken",
            "offset": 0,
            "slot": "2",
            "type": "t_address"
          },
          {
            "astId": 18413,
            "contract": "contracts/strategies/AxialStrategyForLP.sol:AxialStrategyForLP",
            "label": "zapContract",
            "offset": 0,
            "slot": "3",
            "type": "t_address"
          },
          {
            "astId": 18415,
            "contract": "contracts/strategies/AxialStrategyForLP.sol:AxialStrategyForLP",
            "label": "maxSlippage",
            "offset": 0,
            "slot": "4",
            "type": "t_uint256"
          }
        ],
        "numberOfBytes": "160"
      },
      "t_uint256": {
        "encoding": "inplace",
        "label": "uint256",
        "numberOfBytes": "32"
      }
    }
  }
}