{
  "address": "0xfA081CBecd37321cCf76F78Cb5aadD228BC27F67",
  "abi": [
    {
      "inputs": [
        {
          "internalType": "string",
          "name": "_name",
          "type": "string"
        },
        {
          "internalType": "address",
          "name": "_gmxProxy",
          "type": "address"
        },
        {
          "internalType": "address",
          "name": "_timelock",
          "type": "address"
        },
        {
          "components": [
            {
              "internalType": "address",
              "name": "depositToken",
              "type": "address"
            },
            {
              "internalType": "address",
              "name": "rewardToken",
              "type": "address"
            },
            {
              "internalType": "uint256",
              "name": "minTokensToReinvest",
              "type": "uint256"
            },
            {
              "internalType": "uint256",
              "name": "devFeeBips",
              "type": "uint256"
            },
            {
              "internalType": "uint256",
              "name": "reinvestRewardBips",
              "type": "uint256"
            }
          ],
          "internalType": "struct YakStrategyV2.StrategySettings",
          "name": "_strategySettings",
          "type": "tuple"
        }
      ],
      "stateMutability": "nonpayable",
      "type": "constructor"
    },
    {
      "anonymous": false,
      "inputs": [
        {
          "indexed": true,
          "internalType": "address",
          "name": "account",
          "type": "address"
        }
      ],
      "name": "AllowDepositor",
      "type": "event"
    },
    {
      "anonymous": false,
      "inputs": [
        {
          "indexed": true,
          "internalType": "address",
          "name": "owner",
          "type": "address"
        },
        {
          "indexed": true,
          "internalType": "address",
          "name": "spender",
          "type": "address"
        },
        {
          "indexed": false,
          "internalType": "uint256",
          "name": "value",
          "type": "uint256"
        }
      ],
      "name": "Approval",
      "type": "event"
    },
    {
      "anonymous": false,
      "inputs": [
        {
          "indexed": true,
          "internalType": "address",
          "name": "account",
          "type": "address"
        },
        {
          "indexed": false,
          "internalType": "uint256",
          "name": "amount",
          "type": "uint256"
        }
      ],
      "name": "Deposit",
      "type": "event"
    },
    {
      "anonymous": false,
      "inputs": [
        {
          "indexed": false,
          "internalType": "bool",
          "name": "newValue",
          "type": "bool"
        }
      ],
      "name": "DepositsEnabled",
      "type": "event"
    },
    {
      "anonymous": false,
      "inputs": [
        {
          "indexed": true,
          "internalType": "address",
          "name": "previousOwner",
          "type": "address"
        },
        {
          "indexed": true,
          "internalType": "address",
          "name": "newOwner",
          "type": "address"
        }
      ],
      "name": "OwnershipTransferred",
      "type": "event"
    },
    {
      "anonymous": false,
      "inputs": [
        {
          "indexed": false,
          "internalType": "address",
          "name": "token",
          "type": "address"
        },
        {
          "indexed": false,
          "internalType": "uint256",
          "name": "amount",
          "type": "uint256"
        }
      ],
      "name": "Recovered",
      "type": "event"
    },
    {
      "anonymous": false,
      "inputs": [
        {
          "indexed": false,
          "internalType": "uint256",
          "name": "newTotalDeposits",
          "type": "uint256"
        },
        {
          "indexed": false,
          "internalType": "uint256",
          "name": "newTotalSupply",
          "type": "uint256"
        }
      ],
      "name": "Reinvest",
      "type": "event"
    },
    {
      "anonymous": false,
      "inputs": [
        {
          "indexed": true,
          "internalType": "address",
          "name": "account",
          "type": "address"
        }
      ],
      "name": "RemoveDepositor",
      "type": "event"
    },
    {
      "anonymous": false,
      "inputs": [
        {
          "indexed": true,
          "internalType": "address",
          "name": "from",
          "type": "address"
        },
        {
          "indexed": true,
          "internalType": "address",
          "name": "to",
          "type": "address"
        },
        {
          "indexed": false,
          "internalType": "uint256",
          "name": "value",
          "type": "uint256"
        }
      ],
      "name": "Transfer",
      "type": "event"
    },
    {
      "anonymous": false,
      "inputs": [
        {
          "indexed": false,
          "internalType": "uint256",
          "name": "oldValue",
          "type": "uint256"
        },
        {
          "indexed": false,
          "internalType": "uint256",
          "name": "newValue",
          "type": "uint256"
        }
      ],
      "name": "UpdateAdminFee",
      "type": "event"
    },
    {
      "anonymous": false,
      "inputs": [
        {
          "indexed": false,
          "internalType": "address",
          "name": "oldValue",
          "type": "address"
        },
        {
          "indexed": false,
          "internalType": "address",
          "name": "newValue",
          "type": "address"
        }
      ],
      "name": "UpdateDevAddr",
      "type": "event"
    },
    {
      "anonymous": false,
      "inputs": [
        {
          "indexed": false,
          "internalType": "uint256",
          "name": "oldValue",
          "type": "uint256"
        },
        {
          "indexed": false,
          "internalType": "uint256",
          "name": "newValue",
          "type": "uint256"
        }
      ],
      "name": "UpdateDevFee",
      "type": "event"
    },
    {
      "anonymous": false,
      "inputs": [
        {
          "indexed": false,
          "internalType": "uint256",
          "name": "oldValue",
          "type": "uint256"
        },
        {
          "indexed": false,
          "internalType": "uint256",
          "name": "newValue",
          "type": "uint256"
        }
      ],
      "name": "UpdateMaxTokensToDepositWithoutReinvest",
      "type": "event"
    },
    {
      "anonymous": false,
      "inputs": [
        {
          "indexed": false,
          "internalType": "uint256",
          "name": "oldValue",
          "type": "uint256"
        },
        {
          "indexed": false,
          "internalType": "uint256",
          "name": "newValue",
          "type": "uint256"
        }
      ],
      "name": "UpdateMinTokensToReinvest",
      "type": "event"
    },
    {
      "anonymous": false,
      "inputs": [
        {
          "indexed": false,
          "internalType": "uint256",
          "name": "oldValue",
          "type": "uint256"
        },
        {
          "indexed": false,
          "internalType": "uint256",
          "name": "newValue",
          "type": "uint256"
        }
      ],
      "name": "UpdateReinvestReward",
      "type": "event"
    },
    {
      "anonymous": false,
      "inputs": [
        {
          "indexed": true,
          "internalType": "address",
          "name": "account",
          "type": "address"
        },
        {
          "indexed": false,
          "internalType": "uint256",
          "name": "amount",
          "type": "uint256"
        }
      ],
      "name": "Withdraw",
      "type": "event"
    },
    {
      "inputs": [],
      "name": "ADMIN_FEE_BIPS",
      "outputs": [
        {
          "internalType": "uint256",
          "name": "",
          "type": "uint256"
        }
      ],
      "stateMutability": "view",
      "type": "function"
    },
    {
      "inputs": [],
      "name": "DEPOSITS_ENABLED",
      "outputs": [
        {
          "internalType": "bool",
          "name": "",
          "type": "bool"
        }
      ],
      "stateMutability": "view",
      "type": "function"
    },
    {
      "inputs": [],
      "name": "DEV_FEE_BIPS",
      "outputs": [
        {
          "internalType": "uint256",
          "name": "",
          "type": "uint256"
        }
      ],
      "stateMutability": "view",
      "type": "function"
    },
    {
      "inputs": [],
      "name": "DOMAIN_TYPEHASH",
      "outputs": [
        {
          "internalType": "bytes32",
          "name": "",
          "type": "bytes32"
        }
      ],
      "stateMutability": "view",
      "type": "function"
    },
    {
      "inputs": [],
      "name": "MAX_TOKENS_TO_DEPOSIT_WITHOUT_REINVEST",
      "outputs": [
        {
          "internalType": "uint256",
          "name": "",
          "type": "uint256"
        }
      ],
      "stateMutability": "view",
      "type": "function"
    },
    {
      "inputs": [],
      "name": "MIN_TOKENS_TO_REINVEST",
      "outputs": [
        {
          "internalType": "uint256",
          "name": "",
          "type": "uint256"
        }
      ],
      "stateMutability": "view",
      "type": "function"
    },
    {
      "inputs": [],
      "name": "PERMIT_TYPEHASH",
      "outputs": [
        {
          "internalType": "bytes32",
          "name": "",
          "type": "bytes32"
        }
      ],
      "stateMutability": "view",
      "type": "function"
    },
    {
      "inputs": [],
      "name": "REINVEST_REWARD_BIPS",
      "outputs": [
        {
          "internalType": "uint256",
          "name": "",
          "type": "uint256"
        }
      ],
      "stateMutability": "view",
      "type": "function"
    },
    {
      "inputs": [],
      "name": "VERSION_HASH",
      "outputs": [
        {
          "internalType": "bytes32",
          "name": "",
          "type": "bytes32"
        }
      ],
      "stateMutability": "view",
      "type": "function"
    },
    {
      "inputs": [
        {
          "internalType": "address",
          "name": "depositor",
          "type": "address"
        }
      ],
      "name": "allowDepositor",
      "outputs": [],
      "stateMutability": "nonpayable",
      "type": "function"
    },
    {
      "inputs": [
        {
          "internalType": "address",
          "name": "account",
          "type": "address"
        },
        {
          "internalType": "address",
          "name": "spender",
          "type": "address"
        }
      ],
      "name": "allowance",
      "outputs": [
        {
          "internalType": "uint256",
          "name": "",
          "type": "uint256"
        }
      ],
      "stateMutability": "view",
      "type": "function"
    },
    {
      "inputs": [
        {
          "internalType": "address",
          "name": "",
          "type": "address"
        }
      ],
      "name": "allowedDepositors",
      "outputs": [
        {
          "internalType": "bool",
          "name": "",
          "type": "bool"
        }
      ],
      "stateMutability": "view",
      "type": "function"
    },
    {
      "inputs": [
        {
          "internalType": "address",
          "name": "spender",
          "type": "address"
        },
        {
          "internalType": "uint256",
          "name": "amount",
          "type": "uint256"
        }
      ],
      "name": "approve",
      "outputs": [
        {
          "internalType": "bool",
          "name": "",
          "type": "bool"
        }
      ],
      "stateMutability": "nonpayable",
      "type": "function"
    },
    {
      "inputs": [
        {
          "internalType": "address",
          "name": "account",
          "type": "address"
        }
      ],
      "name": "balanceOf",
      "outputs": [
        {
          "internalType": "uint256",
          "name": "",
          "type": "uint256"
        }
      ],
      "stateMutability": "view",
      "type": "function"
    },
    {
      "inputs": [],
      "name": "checkReward",
      "outputs": [
        {
          "internalType": "uint256",
          "name": "",
          "type": "uint256"
        }
      ],
      "stateMutability": "view",
      "type": "function"
    },
    {
      "inputs": [],
      "name": "decimals",
      "outputs": [
        {
          "internalType": "uint8",
          "name": "",
          "type": "uint8"
        }
      ],
      "stateMutability": "view",
      "type": "function"
    },
    {
      "inputs": [
        {
          "internalType": "uint256",
          "name": "amount",
          "type": "uint256"
        }
      ],
      "name": "deposit",
      "outputs": [],
      "stateMutability": "nonpayable",
      "type": "function"
    },
    {
      "inputs": [
        {
          "internalType": "address",
          "name": "account",
          "type": "address"
        },
        {
          "internalType": "uint256",
          "name": "amount",
          "type": "uint256"
        }
      ],
      "name": "depositFor",
      "outputs": [],
      "stateMutability": "nonpayable",
      "type": "function"
    },
    {
      "inputs": [],
      "name": "depositToken",
      "outputs": [
        {
          "internalType": "contract IERC20",
          "name": "",
          "type": "address"
        }
      ],
      "stateMutability": "view",
      "type": "function"
    },
    {
      "inputs": [
        {
          "internalType": "uint256",
          "name": "",
          "type": "uint256"
        },
        {
          "internalType": "uint256",
          "name": "",
          "type": "uint256"
        },
        {
          "internalType": "uint8",
          "name": "",
          "type": "uint8"
        },
        {
          "internalType": "bytes32",
          "name": "",
          "type": "bytes32"
        },
        {
          "internalType": "bytes32",
          "name": "",
          "type": "bytes32"
        }
      ],
      "name": "depositWithPermit",
      "outputs": [],
      "stateMutability": "pure",
      "type": "function"
    },
    {
      "inputs": [],
      "name": "devAddr",
      "outputs": [
        {
          "internalType": "address",
          "name": "",
          "type": "address"
        }
      ],
      "stateMutability": "view",
      "type": "function"
    },
    {
      "inputs": [],
      "name": "estimateDeployedBalance",
      "outputs": [
        {
          "internalType": "uint256",
          "name": "",
          "type": "uint256"
        }
      ],
      "stateMutability": "view",
      "type": "function"
    },
    {
      "inputs": [],
      "name": "estimateReinvestReward",
      "outputs": [
        {
          "internalType": "uint256",
          "name": "",
          "type": "uint256"
        }
      ],
      "stateMutability": "view",
      "type": "function"
    },
    {
      "inputs": [
        {
          "internalType": "uint256",
          "name": "amount",
          "type": "uint256"
        }
      ],
      "name": "getDepositTokensForShares",
      "outputs": [
        {
          "internalType": "uint256",
          "name": "",
          "type": "uint256"
        }
      ],
      "stateMutability": "view",
      "type": "function"
    },
    {
      "inputs": [],
      "name": "getDomainSeparator",
      "outputs": [
        {
          "internalType": "bytes32",
          "name": "",
          "type": "bytes32"
        }
      ],
      "stateMutability": "view",
      "type": "function"
    },
    {
      "inputs": [
        {
          "internalType": "uint256",
          "name": "amount",
          "type": "uint256"
        }
      ],
      "name": "getSharesForDepositTokens",
      "outputs": [
        {
          "internalType": "uint256",
          "name": "",
          "type": "uint256"
        }
      ],
      "stateMutability": "view",
      "type": "function"
    },
    {
      "inputs": [],
      "name": "name",
      "outputs": [
        {
          "internalType": "string",
          "name": "",
          "type": "string"
        }
      ],
      "stateMutability": "view",
      "type": "function"
    },
    {
      "inputs": [
        {
          "internalType": "address",
          "name": "",
          "type": "address"
        }
      ],
      "name": "nonces",
      "outputs": [
        {
          "internalType": "uint256",
          "name": "",
          "type": "uint256"
        }
      ],
      "stateMutability": "view",
      "type": "function"
    },
    {
      "inputs": [],
      "name": "numberOfAllowedDepositors",
      "outputs": [
        {
          "internalType": "uint256",
          "name": "",
          "type": "uint256"
        }
      ],
      "stateMutability": "view",
      "type": "function"
    },
    {
      "inputs": [],
      "name": "owner",
      "outputs": [
        {
          "internalType": "address",
          "name": "",
          "type": "address"
        }
      ],
      "stateMutability": "view",
      "type": "function"
    },
    {
      "inputs": [
        {
          "internalType": "address",
          "name": "owner",
          "type": "address"
        },
        {
          "internalType": "address",
          "name": "spender",
          "type": "address"
        },
        {
          "internalType": "uint256",
          "name": "value",
          "type": "uint256"
        },
        {
          "internalType": "uint256",
          "name": "deadline",
          "type": "uint256"
        },
        {
          "internalType": "uint8",
          "name": "v",
          "type": "uint8"
        },
        {
          "internalType": "bytes32",
          "name": "r",
          "type": "bytes32"
        },
        {
          "internalType": "bytes32",
          "name": "s",
          "type": "bytes32"
        }
      ],
      "name": "permit",
      "outputs": [],
      "stateMutability": "nonpayable",
      "type": "function"
    },
    {
      "inputs": [],
      "name": "proxy",
      "outputs": [
        {
          "internalType": "contract IBlpProxy",
          "name": "",
          "type": "address"
        }
      ],
      "stateMutability": "view",
      "type": "function"
    },
    {
      "inputs": [
        {
          "internalType": "uint256",
          "name": "amount",
          "type": "uint256"
        }
      ],
      "name": "recoverAVAX",
      "outputs": [],
      "stateMutability": "nonpayable",
      "type": "function"
    },
    {
      "inputs": [
        {
          "internalType": "address",
          "name": "tokenAddress",
          "type": "address"
        },
        {
          "internalType": "uint256",
          "name": "tokenAmount",
          "type": "uint256"
        }
      ],
      "name": "recoverERC20",
      "outputs": [],
      "stateMutability": "nonpayable",
      "type": "function"
    },
    {
      "inputs": [],
      "name": "reinvest",
      "outputs": [],
      "stateMutability": "nonpayable",
      "type": "function"
    },
    {
      "inputs": [
        {
          "internalType": "address",
          "name": "depositor",
          "type": "address"
        }
      ],
      "name": "removeDepositor",
      "outputs": [],
      "stateMutability": "nonpayable",
      "type": "function"
    },
    {
      "inputs": [],
      "name": "renounceOwnership",
      "outputs": [],
      "stateMutability": "nonpayable",
      "type": "function"
    },
    {
      "inputs": [
        {
          "internalType": "uint256",
          "name": "",
          "type": "uint256"
        },
        {
          "internalType": "bool",
          "name": "disableDeposits",
          "type": "bool"
        }
      ],
      "name": "rescueDeployedFunds",
      "outputs": [],
      "stateMutability": "nonpayable",
      "type": "function"
    },
    {
      "inputs": [
        {
          "internalType": "address",
          "name": "token",
          "type": "address"
        },
        {
          "internalType": "address",
          "name": "spender",
          "type": "address"
        }
      ],
      "name": "revokeAllowance",
      "outputs": [],
      "stateMutability": "nonpayable",
      "type": "function"
    },
    {
      "inputs": [],
      "name": "rewardToken",
      "outputs": [
        {
          "internalType": "contract IERC20",
          "name": "",
          "type": "address"
        }
      ],
      "stateMutability": "view",
      "type": "function"
    },
    {
      "inputs": [
        {
          "internalType": "address",
          "name": "_proxy",
          "type": "address"
        }
      ],
      "name": "setProxy",
      "outputs": [],
      "stateMutability": "nonpayable",
      "type": "function"
    },
    {
      "inputs": [],
      "name": "symbol",
      "outputs": [
        {
          "internalType": "string",
          "name": "",
          "type": "string"
        }
      ],
      "stateMutability": "view",
      "type": "function"
    },
    {
      "inputs": [],
      "name": "totalDeposits",
      "outputs": [
        {
          "internalType": "uint256",
          "name": "",
          "type": "uint256"
        }
      ],
      "stateMutability": "view",
      "type": "function"
    },
    {
      "inputs": [],
      "name": "totalSupply",
      "outputs": [
        {
          "internalType": "uint256",
          "name": "",
          "type": "uint256"
        }
      ],
      "stateMutability": "view",
      "type": "function"
    },
    {
      "inputs": [
        {
          "internalType": "address",
          "name": "dst",
          "type": "address"
        },
        {
          "internalType": "uint256",
          "name": "amount",
          "type": "uint256"
        }
      ],
      "name": "transfer",
      "outputs": [
        {
          "internalType": "bool",
          "name": "",
          "type": "bool"
        }
      ],
      "stateMutability": "nonpayable",
      "type": "function"
    },
    {
      "inputs": [
        {
          "internalType": "address",
          "name": "src",
          "type": "address"
        },
        {
          "internalType": "address",
          "name": "dst",
          "type": "address"
        },
        {
          "internalType": "uint256",
          "name": "amount",
          "type": "uint256"
        }
      ],
      "name": "transferFrom",
      "outputs": [
        {
          "internalType": "bool",
          "name": "",
          "type": "bool"
        }
      ],
      "stateMutability": "nonpayable",
      "type": "function"
    },
    {
      "inputs": [
        {
          "internalType": "address",
          "name": "newOwner",
          "type": "address"
        }
      ],
      "name": "transferOwnership",
      "outputs": [],
      "stateMutability": "nonpayable",
      "type": "function"
    },
    {
      "inputs": [
        {
          "internalType": "uint256",
          "name": "newValue",
          "type": "uint256"
        }
      ],
      "name": "updateAdminFee",
      "outputs": [],
      "stateMutability": "nonpayable",
      "type": "function"
    },
    {
      "inputs": [
        {
          "internalType": "bool",
          "name": "newValue",
          "type": "bool"
        }
      ],
      "name": "updateDepositsEnabled",
      "outputs": [],
      "stateMutability": "nonpayable",
      "type": "function"
    },
    {
      "inputs": [
        {
          "internalType": "address",
          "name": "newValue",
          "type": "address"
        }
      ],
      "name": "updateDevAddr",
      "outputs": [],
      "stateMutability": "nonpayable",
      "type": "function"
    },
    {
      "inputs": [
        {
          "internalType": "uint256",
          "name": "newValue",
          "type": "uint256"
        }
      ],
      "name": "updateDevFee",
      "outputs": [],
      "stateMutability": "nonpayable",
      "type": "function"
    },
    {
      "inputs": [
        {
          "internalType": "uint256",
          "name": "newValue",
          "type": "uint256"
        }
      ],
      "name": "updateMaxTokensToDepositWithoutReinvest",
      "outputs": [],
      "stateMutability": "nonpayable",
      "type": "function"
    },
    {
      "inputs": [
        {
          "internalType": "uint256",
          "name": "newValue",
          "type": "uint256"
        }
      ],
      "name": "updateMinTokensToReinvest",
      "outputs": [],
      "stateMutability": "nonpayable",
      "type": "function"
    },
    {
      "inputs": [
        {
          "internalType": "uint256",
          "name": "newValue",
          "type": "uint256"
        }
      ],
      "name": "updateReinvestReward",
      "outputs": [],
      "stateMutability": "nonpayable",
      "type": "function"
    },
    {
      "inputs": [
        {
          "internalType": "uint256",
          "name": "amount",
          "type": "uint256"
        }
      ],
      "name": "withdraw",
      "outputs": [],
      "stateMutability": "nonpayable",
      "type": "function"
    }
  ],
  "transactionHash": "0x9e808ea4f34b20a8f9bdbcb6e1c0567acecf60e21907479ec825ed861b7fcfa6",
  "args": [
    "Yield Yak: BAY sBLP",
    "0x7e55Cb8302E0023bF84772f5c7e74beB96BB9e01",
    "0xDcEDF06Fd33E1D7b6eb4b309f779a0e9D3172e44",
    {
      "depositToken": "0x9a4E5E7fbb3Bbf0F04b78354aaFEA877E346ae33",
      "rewardToken": "0xB31f66AA3C1e785363F0875A1B74E27b85FD66c7",
      "minTokensToReinvest": "100000000000000",
      "devFeeBips": 700,
      "reinvestRewardBips": 300
    }
  ],
  "solcInputHash": "30e4131a8e856a7860fe994d38fb21e3",
  "bytecode": "0x610100604052600960c0819052685969656c642059616b60b81b60e09081526200002d916000919062000544565b506040805180820190915260038082526216549560ea1b60209092019182526200005a9160019162000544565b503480156200006857600080fd5b5060405162003758380380620037588339810160408190526200008b91620006d3565b600680546001600160a01b03191633908117909155604051829190819060009060008051602062003738833981519152908290a35080516001600160a01b0390811660805260208201511660a0526040810151620000e990620001b7565b6060810151620000f99062000247565b60808101516200010990620002f2565b5083516200011f90600090602087019062000544565b50601080546001600160a01b0385166001600160a01b03199182161790915560098054909116732d580f9cf2fb2d09bc411532988f2afda4e7beff1790556200016960016200039d565b620001748262000447565b60408051600080825260208201527fc7606d21ac05cd309191543e409f0845c016120563783d70e4f41419dc0ef234910160405180910390a1505050506200082f565b6006546001600160a01b03163314620002065760405162461bcd60e51b815260206004820181905260248201526000805160206200371883398151915260448201526064015b60405180910390fd5b600a5460408051918252602082018390527f481f79ac3a523b6d6db3c5a720e190e986d1cc1b41adcdf50f9caef849901100910160405180910390a1600a55565b6006546001600160a01b03163314620002925760405162461bcd60e51b81526020600482018190526024820152600080516020620037188339815191526044820152606401620001fd565b612710600e5482620002a59190620007cc565b1115620002b157600080fd5b600f5460408051918252602082018390527f2a42303d002f0ba6cfe8259c91d4684443fb0b3de286ba74991175d651726131910160405180910390a1600f55565b6006546001600160a01b031633146200033d5760405162461bcd60e51b81526020600482018190526024820152600080516020620037188339815191526044820152606401620001fd565b612710600f5482620003509190620007cc565b11156200035c57600080fd5b600e5460408051918252602082018390527fe7f97d51d307dc44045597c9978bec0f842e6bb40d19b9444084cfa30d9ed4f2910160405180910390a1600e55565b6006546001600160a01b03163314620003e85760405162461bcd60e51b81526020600482018190526024820152600080516020620037188339815191526044820152606401620001fd565b600c5481151560ff9091161515036200040057600080fd5b600c805460ff19168215159081179091556040519081527f7b014ed3854e7f5cb0218d58b3c6ae7d53a68bb0af2f67bfb029ea42c38a7e859060200160405180910390a150565b6006546001600160a01b03163314620004925760405162461bcd60e51b81526020600482018190526024820152600080516020620037188339815191526044820152606401620001fd565b6001600160a01b038116620004f95760405162461bcd60e51b815260206004820152602660248201527f4f776e61626c653a206e6577206f776e657220697320746865207a65726f206160448201526564647265737360d01b6064820152608401620001fd565b6006546040516001600160a01b038084169216906000805160206200373883398151915290600090a3600680546001600160a01b0319166001600160a01b0392909216919091179055565b8280546200055290620007f3565b90600052602060002090601f016020900481019282620005765760008555620005c1565b82601f106200059157805160ff1916838001178555620005c1565b82800160010185558215620005c1579182015b82811115620005c1578251825591602001919060010190620005a4565b50620005cf929150620005d3565b5090565b5b80821115620005cf5760008155600101620005d4565b634e487b7160e01b600052604160045260246000fd5b604051601f8201601f191681016001600160401b03811182821017156200062b576200062b620005ea565b604052919050565b80516001600160a01b03811681146200064b57600080fd5b919050565b600060a082840312156200066357600080fd5b60405160a081016001600160401b0381118282101715620006885762000688620005ea565b604052905080620006998362000633565b8152620006a96020840162000633565b60208201526040830151604082015260608301516060820152608083015160808201525092915050565b6000806000806101008587031215620006eb57600080fd5b84516001600160401b03808211156200070357600080fd5b818701915087601f8301126200071857600080fd5b8151818111156200072d576200072d620005ea565b6020915062000745601f8201601f1916830162000600565b81815289838386010111156200075a57600080fd5b60005b828110156200077a5784810184015182820185015283016200075d565b828111156200078c5760008484840101525b5096506200079e905087820162000633565b94505050620007b06040860162000633565b9150620007c1866060870162000650565b905092959194509250565b60008219821115620007ee57634e487b7160e01b600052601160045260246000fd5b500190565b600181811c908216806200080857607f821691505b6020821081036200082957634e487b7160e01b600052602260045260246000fd5b50919050565b60805160a051612e996200087f600039600081816107b5015281816116b001528181612470015281816124cb015261251e0152600081816106b5015281816109d501526121250152612e996000f3fe608060405234801561001057600080fd5b506004361061036d5760003560e01c80638b73e606116101d3578063c4b24a4611610104578063e21ac825116100a2578063ed24911d1161007c578063ed24911d14610795578063f2fde38b1461079d578063f7c618c1146107b0578063fdb5a03e146107d757600080fd5b8063e21ac8251461075c578063eab89a5a1461076f578063ec5568891461078257600080fd5b8063d505accf116100de578063d505accf146106ea578063da09c72c146106fd578063dd62ed3e14610710578063dd8ce4d61461074957600080fd5b8063c4b24a46146106a8578063c89039c5146106b0578063cff1b6ef146106d757600080fd5b8063a8ae2b7c11610171578063b52a321f1161014b578063b52a321f14610677578063b6b55f2514610684578063b9e57b8014610697578063bd079f551461069f57600080fd5b8063a8ae2b7c1461063e578063a9059cbb14610651578063ac0d31ff1461066457600080fd5b806395d89b41116101ad57806395d89b41146105e957806397107d6d146105f157806399729ec1146106045780639e4e73181461061757600080fd5b80638b73e6061461059e5780638da5cb5b146105b15780639291d563146105d657600080fd5b80634a970be7116102ad578063789139bc1161024b5780637ecebe00116102255780637ecebe001461054f578063818372301461056f5780638980f11f146105825780638aff733d1461059557600080fd5b8063789139bc1461052b5780637ae26773146105345780637d8820971461054757600080fd5b80634ebb7916116102875780634ebb7916146104de5780635ea682ea146104f157806370a08231146104fa578063715018a61461052357600080fd5b80634a970be7146104aa5780634bebd1e7146104b85780634e77ace5146104cb57600080fd5b806323b872dd1161031a57806330adf81f116102f457806330adf81f1461043d578063313ce567146104645780633bdc6e721461047e578063483c2ef01461048757600080fd5b806323b872dd146104025780632e1a7d4d146104155780632f4f21e21461042a57600080fd5b80630f23475d1161034b5780630f23475d146103ca57806318160ddd146103d257806320606b70146103db57600080fd5b806306fdde03146103725780630767711114610390578063095ea7b3146103a7575b600080fd5b61037a6107df565b6040516103879190612a21565b60405180910390f35b610399600d5481565b604051908152602001610387565b6103ba6103b5366004612a69565b61086d565b6040519015158152602001610387565b610399610883565b61039960025481565b6103997f8b73c3c69bb8fe3d512ecc4cf759cc79239f7b179b0ffacaa9a75d522b39400f81565b6103ba610410366004612a95565b610894565b610428610423366004612ad6565b61095d565b005b610428610438366004612a69565b610a40565b6103997f6e71edae12b1b97f4d1f60370fef10105fa2faae0126114a169c64845d6126c981565b61046c601281565b60405160ff9091168152602001610387565b61039960075481565b6103ba610495366004612aef565b60086020526000908152604090205460ff1681565b61042861036d366004612b22565b6104286104c6366004612aef565b610a4e565b6104286104d9366004612b77565b610b6b565b6104286104ec366004612ad6565b610c12565b610399600f5481565b610399610508366004612aef565b6001600160a01b031660009081526004602052604090205490565b610428610ccc565b610399600b5481565b610428610542366004612b94565b610d6b565b610399610e48565b61039961055d366004612aef565b60056020526000908152604090205481565b61042861057d366004612ad6565b610ed4565b610428610590366004612a69565b610f5d565b610399600e5481565b6104286105ac366004612aef565b61100c565b6006546001600160a01b03165b6040516001600160a01b039091168152602001610387565b6104286105e4366004612aef565b6111c8565b61037a611298565b6104286105ff366004612aef565b6112a5565b610428610612366004612ad6565b61131c565b6103997fc89efdaa54c0f20c7adf612882df0950f5a951637e0307cdcb4c672f298b8bc681565b61042861064c366004612ad6565b6113c1565b6103ba61065f366004612a69565b611466565b610428610672366004612bcd565b611473565b600c546103ba9060ff1681565b610428610692366004612ad6565b6115ae565b6103996115bb565b610399600a5481565b6103996115fa565b6105be7f000000000000000000000000000000000000000000000000000000000000000081565b6104286106e5366004612ad6565b61172e565b6104286106f8366004612bf2565b6117c2565b6009546105be906001600160a01b031681565b61039961071e366004612b94565b6001600160a01b03918216600090815260036020908152604080832093909416825291909152205490565b610399610757366004612ad6565b6118d5565b61042861076a366004612ad6565b611915565b61039961077d366004612ad6565b61199e565b6010546105be906001600160a01b031681565b6103996119d8565b6104286107ab366004612aef565b611a78565b6105be7f000000000000000000000000000000000000000000000000000000000000000081565b610428611ba5565b600080546107ec90612c60565b80601f016020809104026020016040519081016040528092919081815260200182805461081890612c60565b80156108655780601f1061083a57610100808354040283529160200191610865565b820191906000526020600020905b81548152906001019060200180831161084857829003601f168201915b505050505081565b600061087a338484611c5b565b50600192915050565b60008061088e610e48565b92915050565b6001600160a01b0383166000818152600360209081526040808320338085529252822054919290919082148015906108ce57506000198114155b156109445760006108df8583612cb0565b6001600160a01b038881166000818152600360209081526040808320948916808452948252918290208590559051848152939450919290917f8c5be1e5ebec7d5bd14f71427d1e84f3dd0314c0f7b2291e5b200ac8c7c3b925910160405180910390a3505b61094f868686611d69565b6001925050505b9392505050565b60006109688261199e565b9050600081116109bf5760405162461bcd60e51b815260206004820152601860248201527f436f6d706f756e64696e67424c503a3a7769746864726177000000000000000060448201526064015b60405180910390fd5b6109c881611e8d565b6109fc6001600160a01b037f0000000000000000000000000000000000000000000000000000000000000000163383611f07565b610a063383611f87565b60405181815233907f884edad9ce6fa2440d8a54cc123490eb96d2768479d49ff9c7366125a9424364906020015b60405180910390a25050565b610a4a828261201b565b5050565b6006546001600160a01b03163314610a965760405162461bcd60e51b81526020600482018190526024820152600080516020612e4483398151915260448201526064016109b6565b6001600160a01b03811660009081526008602052604090205460ff1615610aff5760405162461bcd60e51b815260206004820152601c60248201527f5065726d697373696f6e65643a3a616c6c6f774465706f7369746f720000000060448201526064016109b6565b6001600160a01b0381166000908152600860205260409020805460ff19166001908117909155600754610b3191612cc7565b6007556040516001600160a01b038216907fc0a1035c16faf8d1304056d92c00edf028f87e62b8235a938f00af9e3c0312c590600090a250565b6006546001600160a01b03163314610bb35760405162461bcd60e51b81526020600482018190526024820152600080516020612e4483398151915260448201526064016109b6565b600c5481151560ff909116151503610bca57600080fd5b600c805460ff19168215159081179091556040519081527f7b014ed3854e7f5cb0218d58b3c6ae7d53a68bb0af2f67bfb029ea42c38a7e85906020015b60405180910390a150565b6006546001600160a01b03163314610c5a5760405162461bcd60e51b81526020600482018190526024820152600080516020612e4483398151915260448201526064016109b6565b60008111610c6757600080fd5b604051339082156108fc029083906000818181858888f19350505050158015610c94573d6000803e3d6000fd5b506040805160008152602081018390527f8c1256b8896378cd5044f80c202f9772b9d77dc85c8a6eb51967210b09bfaa289101610c07565b6006546001600160a01b03163314610d145760405162461bcd60e51b81526020600482018190526024820152600080516020612e4483398151915260448201526064016109b6565b6006546040516000916001600160a01b0316907f8be0079c531659141344cd1fd0a4f28419497f9722a3daafe3b4186f6b6457e0908390a36006805473ffffffffffffffffffffffffffffffffffffffff19169055565b6006546001600160a01b03163314610db35760405162461bcd60e51b81526020600482018190526024820152600080516020612e4483398151915260448201526064016109b6565b6040517f095ea7b30000000000000000000000000000000000000000000000000000000081526001600160a01b0382811660048301526000602483015283169063095ea7b3906044016020604051808303816000875af1158015610e1b573d6000803e3d6000fd5b505050506040513d601f19601f82011682018060405250810190610e3f9190612cdf565b610a4a57600080fd5b601054604080517f7d88209700000000000000000000000000000000000000000000000000000000815290516000926001600160a01b031691637d8820979160048083019260209291908290030181865afa158015610eab573d6000803e3d6000fd5b505050506040513d601f19601f82011682018060405250810190610ecf9190612cfc565b905090565b6006546001600160a01b03163314610f1c5760405162461bcd60e51b81526020600482018190526024820152600080516020612e4483398151915260448201526064016109b6565b600a5460408051918252602082018390527f481f79ac3a523b6d6db3c5a720e190e986d1cc1b41adcdf50f9caef849901100910160405180910390a1600a55565b6006546001600160a01b03163314610fa55760405162461bcd60e51b81526020600482018190526024820152600080516020612e4483398151915260448201526064016109b6565b60008111610fb257600080fd5b610fc66001600160a01b0383163383611f07565b604080516001600160a01b0384168152602081018390527f8c1256b8896378cd5044f80c202f9772b9d77dc85c8a6eb51967210b09bfaa28910160405180910390a15050565b6006546001600160a01b031633146110545760405162461bcd60e51b81526020600482018190526024820152600080516020612e4483398151915260448201526064016109b6565b6000600754116110cc5760405162461bcd60e51b815260206004820152603460248201527f5065726d697373696f6e65643a3a72656d6f76654465706f7369746f722c206e60448201527f6f20616c6c6f776564206465706f7369746f727300000000000000000000000060648201526084016109b6565b6001600160a01b03811660009081526008602052604090205460ff16151560011461115f5760405162461bcd60e51b815260206004820152602a60248201527f5065726d697373696f6e65643a3a72656d6f76654465706f7369746f722c206e60448201527f6f7420616c6c6f7765640000000000000000000000000000000000000000000060648201526084016109b6565b6001600160a01b0381166000908152600860205260409020805460ff1916905560075461118e90600190612cb0565b6007556040516001600160a01b038216907f0e86f6608b536e5339a25b65ff531f5ea91e1313d056ecd4752b35cbd16137d490600090a250565b6009546001600160a01b031633146112225760405162461bcd60e51b815260206004820152601460248201527f59616b53747261746567793a3a6f6e6c7944657600000000000000000000000060448201526064016109b6565b600954604080516001600160a01b03928316815291831660208301527fa8e91499ed37682f43cffb045fcc7d379a91e8c9a14e6321877ee34dee564c00910160405180910390a16009805473ffffffffffffffffffffffffffffffffffffffff19166001600160a01b0392909216919091179055565b600180546107ec90612c60565b6006546001600160a01b031633146112ed5760405162461bcd60e51b81526020600482018190526024820152600080516020612e4483398151915260448201526064016109b6565b6010805473ffffffffffffffffffffffffffffffffffffffff19166001600160a01b0392909216919091179055565b6006546001600160a01b031633146113645760405162461bcd60e51b81526020600482018190526024820152600080516020612e4483398151915260448201526064016109b6565b612710600e54826113759190612cc7565b111561138057600080fd5b600f5460408051918252602082018390527f2a42303d002f0ba6cfe8259c91d4684443fb0b3de286ba74991175d651726131910160405180910390a1600f55565b6006546001600160a01b031633146114095760405162461bcd60e51b81526020600482018190526024820152600080516020612e4483398151915260448201526064016109b6565b612710600f548261141a9190612cc7565b111561142557600080fd5b600e5460408051918252602082018390527fe7f97d51d307dc44045597c9978bec0f842e6bb40d19b9444084cfa30d9ed4f2910160405180910390a1600e55565b600061087a338484611d69565b6006546001600160a01b031633146114bb5760405162461bcd60e51b81526020600482018190526024820152600080516020612e4483398151915260448201526064016109b6565b60006114c5610e48565b6010546040517f5312ea8e000000000000000000000000000000000000000000000000000000008152600481018390529192506001600160a01b031690635312ea8e90602401600060405180830381600087803b15801561152557600080fd5b505af1158015611539573d6000803e3d6000fd5b505050507fc7606d21ac05cd309191543e409f0845c016120563783d70e4f41419dc0ef234611566610e48565b6002546040805192835260208301919091520160405180910390a1600c5460ff161515600114801561159a57506001821515145b156115a9576115a96000610b6b565b505050565b6115b8338261201b565b50565b6000806115c66115fa565b9050600a5481106115f257612710600e54826115e29190612d15565b6115ec9190612d34565b91505090565b600091505090565b600080601060009054906101000a90046001600160a01b03166001600160a01b031663eded3fda6040518163ffffffff1660e01b8152600401602060405180830381865afa158015611650573d6000803e3d6000fd5b505050506040513d601f19601f820116820180604052508101906116749190612cfc565b6040517f70a082310000000000000000000000000000000000000000000000000000000081523060048201529091506000906001600160a01b037f000000000000000000000000000000000000000000000000000000000000000016906370a0823190602401602060405180830381865afa1580156116f7573d6000803e3d6000fd5b505050506040513d601f19601f8201168201806040525081019061171b9190612cfc565b90506117278282612cc7565b9250505090565b6006546001600160a01b031633146117765760405162461bcd60e51b81526020600482018190526024820152600080516020612e4483398151915260448201526064016109b6565b801561178157600080fd5b600d5460408051918252602082018390527f3cc372f330f95ac9540626dc8a25f5bf21ba607215a5d58304cb804d446f104a910160405180910390a1600d55565b428410156118125760405162461bcd60e51b815260206004820152600f60248201527f7065726d69743a3a65787069726564000000000000000000000000000000000060448201526064016109b6565b6001600160a01b038716600090815260056020526040812080547f6e71edae12b1b97f4d1f60370fef10105fa2faae0126114a169c64845d6126c9918a918a918a91908661185f83612d56565b909155506040805160208101969096526001600160a01b0394851690860152929091166060840152608083015260a082015260c0810186905260e0016040516020818303038152906040528051906020012090506118c08882868686612272565b6118cb888888611c5b565b5050505050505050565b6000600254600014806118ed57506118eb610e48565b155b156118f6575090565b6118fe610e48565b60025461190b9084612d15565b61088e9190612d34565b6006546001600160a01b0316331461195d5760405162461bcd60e51b81526020600482018190526024820152600080516020612e4483398151915260448201526064016109b6565b600b5460408051918252602082018390527fa5dae50539d56dfe1fb5273d883b0c39bc76750a25d036fc5fbd09ad8fd5f57f910160405180910390a1600b55565b6000600254600014806119b657506119b4610e48565b155b156119c357506000919050565b6002546119ce610e48565b61190b9084612d15565b60007f8b73c3c69bb8fe3d512ecc4cf759cc79239f7b179b0ffacaa9a75d522b39400f60001b6000604051611a0d9190612d6f565b6040519081900390207fc89efdaa54c0f20c7adf612882df0950f5a951637e0307cdcb4c672f298b8bc646604080516020810195909552840192909252606083015260808201523060a082015260c00160405160208183030381529060405280519060200120905090565b6006546001600160a01b03163314611ac05760405162461bcd60e51b81526020600482018190526024820152600080516020612e4483398151915260448201526064016109b6565b6001600160a01b038116611b3c5760405162461bcd60e51b815260206004820152602660248201527f4f776e61626c653a206e6577206f776e657220697320746865207a65726f206160448201527f646472657373000000000000000000000000000000000000000000000000000060648201526084016109b6565b6006546040516001600160a01b038084169216907f8be0079c531659141344cd1fd0a4f28419497f9722a3daafe3b4186f6b6457e090600090a36006805473ffffffffffffffffffffffffffffffffffffffff19166001600160a01b0392909216919091179055565b323314611bf45760405162461bcd60e51b815260206004820152601460248201527f59616b53747261746567793a3a6f6e6c79454f4100000000000000000000000060448201526064016109b6565b6000611bfe6115fa565b9050600a54811015611c525760405162461bcd60e51b815260206004820152601860248201527f436f6d706f756e64696e67424c503a3a7265696e76657374000000000000000060448201526064016109b6565b6115b8816123d2565b6001600160a01b038316611cb15760405162461bcd60e51b815260206004820152601c60248201527f5f617070726f76653a3a6f776e6572207a65726f20616464726573730000000060448201526064016109b6565b6001600160a01b038216611d075760405162461bcd60e51b815260206004820152601e60248201527f5f617070726f76653a3a7370656e646572207a65726f2061646472657373000060448201526064016109b6565b6001600160a01b0383811660008181526003602090815260408083209487168084529482529182902085905590518481527f8c5be1e5ebec7d5bd14f71427d1e84f3dd0314c0f7b2291e5b200ac8c7c3b92591015b60405180910390a3505050565b6001600160a01b038216611de55760405162461bcd60e51b815260206004820152603460248201527f5f7472616e73666572546f6b656e733a2063616e6e6f74207472616e7366657260448201527f20746f20746865207a65726f206164647265737300000000000000000000000060648201526084016109b6565b6001600160a01b038316600090815260046020526040902054611e09908290612cb0565b6001600160a01b038085166000908152600460205260408082209390935590841681522054611e39908290612cc7565b6001600160a01b0380841660008181526004602052604090819020939093559151908516907fddf252ad1be2c89b69c2b068fc378daa952ba7f163c4a11628f55a4df523b3ef90611d5c9085815260200190565b6010546040517f5c72f4b5000000000000000000000000000000000000000000000000000000008152600481018390526001600160a01b0390911690635c72f4b590602401600060405180830381600087803b158015611eec57600080fd5b505af1158015611f00573d6000803e3d6000fd5b5050505050565b604080516001600160a01b038416602482015260448082018490528251808303909101815260649091019091526020810180517bffffffffffffffffffffffffffffffffffffffffffffffffffffffff167fa9059cbb000000000000000000000000000000000000000000000000000000001790526115a9908490612617565b6001600160a01b038216600090815260046020526040902054611fab908290612cb0565b6001600160a01b038316600090815260046020526040902055600254611fd2908290612cb0565b6002556040518181526000906001600160a01b038416907fddf252ad1be2c89b69c2b068fc378daa952ba7f163c4a11628f55a4df523b3ef906020015b60405180910390a35050565b6000811161206b5760405162461bcd60e51b815260206004820152601f60248201527f436f6d706f756e64696e67424c503a3a5f6465706f73697420616d6f756e740060448201526064016109b6565b600c5460ff1615156001146120e85760405162461bcd60e51b815260206004820152602160248201527f436f6d706f756e64696e67424c503a3a5f6465706f7369742064697361626c6560448201527f640000000000000000000000000000000000000000000000000000000000000060648201526084016109b6565b600b54156121115760006120fa6115fa565b9050600b5481111561210f5761210f816123d2565b505b6121238261211e836118d5565b6126fc565b7f00000000000000000000000000000000000000000000000000000000000000006001600160a01b03166323b872dd3361215b6127d2565b6040517fffffffff0000000000000000000000000000000000000000000000000000000060e085901b1681526001600160a01b03928316600482015291166024820152604481018490526064016020604051808303816000875af11580156121c7573d6000803e3d6000fd5b505050506040513d601f19601f820116820180604052508101906121eb9190612cdf565b6122375760405162461bcd60e51b815260206004820152601f60248201527f436f6d706f756e64696e67424c503a3a7472616e73666572206661696c65640060448201526064016109b6565b816001600160a01b03167fe1fffcc4923d04b559f4d29a8bfc6cda04eb5b0d3c460751c2402c5c5cc9109c82604051610a3491815260200190565b600061227c6119d8565b6040517f1901000000000000000000000000000000000000000000000000000000000000602082015260228101919091526042810186905260620160408051601f198184030181528282528051602091820120600080855291840180845281905260ff88169284019290925260608301869052608083018590529092509060019060a0016020604051602081039080840390855afa158015612322573d6000803e3d6000fd5b5050604051601f1901519150506001600160a01b038116158015906123585750866001600160a01b0316816001600160a01b0316145b6123c95760405162461bcd60e51b8152602060048201526024808201527f417263683a3a76616c69646174655369673a20696e76616c6964207369676e6160448201527f747572650000000000000000000000000000000000000000000000000000000060648201526084016109b6565b50505050505050565b601060009054906101000a90046001600160a01b03166001600160a01b031663b88a802f6040518163ffffffff1660e01b8152600401600060405180830381600087803b15801561242257600080fd5b505af1158015612436573d6000803e3d6000fd5b505050506000612710600f548361244d9190612d15565b6124579190612d34565b9050801561249957600954612499906001600160a01b037f00000000000000000000000000000000000000000000000000000000000000008116911683611f07565b6000612710600e54846124ac9190612d15565b6124b69190612d34565b905080156124f2576124f26001600160a01b037f0000000000000000000000000000000000000000000000000000000000000000163383611f07565b806124fd8385612cb0565b6125079190612cb0565b92506125456125146127d2565b6001600160a01b037f0000000000000000000000000000000000000000000000000000000000000000169085611f07565b6010546040517fbf4d14d5000000000000000000000000000000000000000000000000000000008152600481018590526001600160a01b039091169063bf4d14d5906024016020604051808303816000875af11580156125a9573d6000803e3d6000fd5b505050506040513d601f19601f820116820180604052508101906125cd9190612cfc565b507fc7606d21ac05cd309191543e409f0845c016120563783d70e4f41419dc0ef2346125f7610e48565b6002546040805192835260208301919091520160405180910390a1505050565b600061266c826040518060400160405280602081526020017f5361666545524332303a206c6f772d6c6576656c2063616c6c206661696c6564815250856001600160a01b03166128599092919063ffffffff16565b8051909150156115a9578080602001905181019061268a9190612cdf565b6115a95760405162461bcd60e51b815260206004820152602a60248201527f5361666545524332303a204552433230206f7065726174696f6e20646964206e60448201527f6f7420737563636565640000000000000000000000000000000000000000000060648201526084016109b6565b6000811161274c5760405162461bcd60e51b815260206004820152601260248201527f5f6d696e743a3a7a65726f20736861726573000000000000000000000000000060448201526064016109b6565b8060025461275a9190612cc7565b6002556001600160a01b038216600090815260046020526040902054612781908290612cc7565b6001600160a01b0383166000818152600460205260408082209390935591519091907fddf252ad1be2c89b69c2b068fc378daa952ba7f163c4a11628f55a4df523b3ef9061200f9085815260200190565b601054604080517f026879dc00000000000000000000000000000000000000000000000000000000815290516000926001600160a01b03169163026879dc9160048083019260209291908290030181865afa158015612835573d6000803e3d6000fd5b505050506040513d601f19601f82011682018060405250810190610ecf9190612e0a565b60606128688484600085612870565b949350505050565b6060824710156128e85760405162461bcd60e51b815260206004820152602660248201527f416464726573733a20696e73756666696369656e742062616c616e636520666f60448201527f722063616c6c000000000000000000000000000000000000000000000000000060648201526084016109b6565b6001600160a01b0385163b61293f5760405162461bcd60e51b815260206004820152601d60248201527f416464726573733a2063616c6c20746f206e6f6e2d636f6e747261637400000060448201526064016109b6565b600080866001600160a01b0316858760405161295b9190612e27565b60006040518083038185875af1925050503d8060008114612998576040519150601f19603f3d011682016040523d82523d6000602084013e61299d565b606091505b50915091506129ad8282866129b8565b979650505050505050565b606083156129c7575081610956565b8251156129d75782518084602001fd5b8160405162461bcd60e51b81526004016109b69190612a21565b60005b83811015612a0c5781810151838201526020016129f4565b83811115612a1b576000848401525b50505050565b6020815260008251806020840152612a408160408501602087016129f1565b601f01601f19169190910160400192915050565b6001600160a01b03811681146115b857600080fd5b60008060408385031215612a7c57600080fd5b8235612a8781612a54565b946020939093013593505050565b600080600060608486031215612aaa57600080fd5b8335612ab581612a54565b92506020840135612ac581612a54565b929592945050506040919091013590565b600060208284031215612ae857600080fd5b5035919050565b600060208284031215612b0157600080fd5b813561095681612a54565b803560ff81168114612b1d57600080fd5b919050565b600080600080600060a08688031215612b3a57600080fd5b8535945060208601359350612b5160408701612b0c565b94979396509394606081013594506080013592915050565b80151581146115b857600080fd5b600060208284031215612b8957600080fd5b813561095681612b69565b60008060408385031215612ba757600080fd5b8235612bb281612a54565b91506020830135612bc281612a54565b809150509250929050565b60008060408385031215612be057600080fd5b823591506020830135612bc281612b69565b600080600080600080600060e0888a031215612c0d57600080fd5b8735612c1881612a54565b96506020880135612c2881612a54565b95506040880135945060608801359350612c4460808901612b0c565b925060a0880135915060c0880135905092959891949750929550565b600181811c90821680612c7457607f821691505b602082108103612c9457634e487b7160e01b600052602260045260246000fd5b50919050565b634e487b7160e01b600052601160045260246000fd5b600082821015612cc257612cc2612c9a565b500390565b60008219821115612cda57612cda612c9a565b500190565b600060208284031215612cf157600080fd5b815161095681612b69565b600060208284031215612d0e57600080fd5b5051919050565b6000816000190483118215151615612d2f57612d2f612c9a565b500290565b600082612d5157634e487b7160e01b600052601260045260246000fd5b500490565b600060018201612d6857612d68612c9a565b5060010190565b600080835481600182811c915080831680612d8b57607f831692505b60208084108203612daa57634e487b7160e01b86526022600452602486fd5b818015612dbe5760018114612dcf57612dfc565b60ff19861689528489019650612dfc565b60008a81526020902060005b86811015612df45781548b820152908501908301612ddb565b505084890196505b509498975050505050505050565b600060208284031215612e1c57600080fd5b815161095681612a54565b60008251612e398184602087016129f1565b919091019291505056fe4f776e61626c653a2063616c6c6572206973206e6f7420746865206f776e6572a2646970667358221220552437c6f352d9063719f3bd156d6bc08fc3ab9c51a813e8c0cc510229e9c40e64736f6c634300080d00334f776e61626c653a2063616c6c6572206973206e6f7420746865206f776e65728be0079c531659141344cd1fd0a4f28419497f9722a3daafe3b4186f6b6457e0",
  "devdoc": {
    "kind": "dev",
    "methods": {
      "allowDepositor(address)": {
        "params": {
          "depositor": "address"
        }
      },
      "allowance(address,address)": {
        "params": {
          "account": "The address of the account holding the funds",
          "spender": "The address of the account spending the funds"
        },
        "returns": {
          "_0": "The number of tokens approved"
        }
      },
      "approve(address,uint256)": {
        "details": "This will overwrite the approval amount for `spender` and is subject to issues noted [here](https://eips.ethereum.org/EIPS/eip-20#approve) It is recommended to use increaseAllowance and decreaseAllowance instead",
        "params": {
          "amount": "The number of tokens that are approved (2^256-1 means infinite)",
          "spender": "The address of the account which may transfer tokens"
        },
        "returns": {
          "_0": "Whether or not the approval succeeded"
        }
      },
      "balanceOf(address)": {
        "params": {
          "account": "The address of the account to get the balance of"
        },
        "returns": {
          "_0": "The number of tokens held"
        }
      },
      "checkReward()": {
        "returns": {
          "_0": "reward tokens"
        }
      },
      "deposit(uint256)": {
        "params": {
          "amount": "Amount of tokens to deposit"
        }
      },
      "depositFor(address,uint256)": {
        "details": "Must mint receipt tokens to `account`",
        "params": {
          "account": "address to receive receipt tokens",
          "amount": "deposit tokens"
        }
      },
      "depositWithPermit(uint256,uint256,uint8,bytes32,bytes32)": {
        "details": "Permit not supported by fsGLP"
      },
      "estimateDeployedBalance()": {
        "returns": {
          "_0": "deposit tokens after withdraw fee"
        }
      },
      "estimateReinvestReward()": {
        "returns": {
          "_0": "reward tokens"
        }
      },
      "getDepositTokensForShares(uint256)": {
        "params": {
          "amount": "receipt tokens"
        },
        "returns": {
          "_0": "deposit tokens"
        }
      },
      "getDomainSeparator()": {
        "returns": {
          "_0": "Separator"
        }
      },
      "getSharesForDepositTokens(uint256)": {
        "details": "If contract is empty, use 1:1 ratioCould return zero shares for very low amounts of deposit tokens",
        "params": {
          "amount": "deposit tokens"
        },
        "returns": {
          "_0": "receipt tokens"
        }
      },
      "owner()": {
        "details": "Returns the address of the current owner."
      },
      "permit(address,address,uint256,uint256,uint8,bytes32,bytes32)": {
        "params": {
          "deadline": "The time at which to expire the signature",
          "owner": "The address to approve from",
          "r": "Half of the ECDSA signature pair",
          "s": "Half of the ECDSA signature pair",
          "spender": "The address to be approved",
          "v": "The recovery byte of the signature",
          "value": "The number of tokens that are approved (2^256-1 means infinite)"
        }
      },
      "recoverAVAX(uint256)": {
        "params": {
          "amount": "amount"
        }
      },
      "recoverERC20(address,uint256)": {
        "params": {
          "tokenAddress": "token address",
          "tokenAmount": "amount to recover"
        }
      },
      "removeDepositor(address)": {
        "params": {
          "depositor": "address"
        }
      },
      "renounceOwnership()": {
        "details": "Leaves the contract without owner. It will not be possible to call `onlyOwner` functions anymore. Can only be called by the current owner. NOTE: Renouncing ownership will leave the contract without an owner, thereby removing any functionality that is only available to the owner."
      },
      "revokeAllowance(address,address)": {
        "params": {
          "spender": "address",
          "token": "address"
        }
      },
      "totalDeposits()": {
        "returns": {
          "_0": "total deposits available on the contract"
        }
      },
      "transfer(address,uint256)": {
        "params": {
          "amount": "The number of tokens to transfer",
          "dst": "The address of the destination account"
        },
        "returns": {
          "_0": "Whether or not the transfer succeeded"
        }
      },
      "transferFrom(address,address,uint256)": {
        "params": {
          "amount": "The number of tokens to transfer",
          "dst": "The address of the destination account",
          "src": "The address of the source account"
        },
        "returns": {
          "_0": "Whether or not the transfer succeeded"
        }
      },
      "transferOwnership(address)": {
        "details": "Transfers ownership of the contract to a new account (`newOwner`). Can only be called by the current owner."
      },
      "updateAdminFee(uint256)": {
        "details": "Deprecated; Kept for compatibility",
        "params": {
          "newValue": "fee in BIPS; required to be 0"
        }
      },
      "updateDepositsEnabled(bool)": {
        "params": {
          "newValue": "bool"
        }
      },
      "updateDevAddr(address)": {
        "params": {
          "newValue": "address"
        }
      },
      "updateDevFee(uint256)": {
        "params": {
          "newValue": "fee in BIPS"
        }
      },
      "updateMaxTokensToDepositWithoutReinvest(uint256)": {
        "params": {
          "newValue": "threshold"
        }
      },
      "updateMinTokensToReinvest(uint256)": {
        "params": {
          "newValue": "threshold"
        }
      },
      "updateReinvestReward(uint256)": {
        "params": {
          "newValue": "fee in BIPS"
        }
      },
      "withdraw(uint256)": {
        "params": {
          "amount": "receipt tokens"
        }
      }
    },
    "version": 1
  },
  "userdoc": {
    "kind": "user",
    "methods": {
      "allowDepositor(address)": {
        "notice": "Add an allowed depositor"
      },
      "allowance(address,address)": {
        "notice": "Get the number of tokens `spender` is approved to spend on behalf of `account`"
      },
      "approve(address,uint256)": {
        "notice": "Approve `spender` to transfer up to `amount` from `src`"
      },
      "balanceOf(address)": {
        "notice": "Get the number of tokens held by the `account`"
      },
      "checkReward()": {
        "notice": "Reward tokens available to strategy, including balance"
      },
      "deposit(uint256)": {
        "notice": "Deposit tokens to receive receipt tokens"
      },
      "depositFor(address,uint256)": {
        "notice": "Deposit on behalf of another account"
      },
      "estimateDeployedBalance()": {
        "notice": "Estimate recoverable balance after withdraw fee"
      },
      "estimateReinvestReward()": {
        "notice": "Estimate reinvest reward"
      },
      "getDepositTokensForShares(uint256)": {
        "notice": "Calculate deposit tokens for a given amount of receipt tokens"
      },
      "getDomainSeparator()": {
        "notice": "EIP-712 Domain separator"
      },
      "getSharesForDepositTokens(uint256)": {
        "notice": "Calculate receipt tokens for a given amount of deposit tokens"
      },
      "permit(address,address,uint256,uint256,uint8,bytes32,bytes32)": {
        "notice": "Triggers an approval from owner to spender"
      },
      "recoverAVAX(uint256)": {
        "notice": "Recover AVAX from contract"
      },
      "recoverERC20(address,uint256)": {
        "notice": "Recover ERC20 from contract"
      },
      "reinvest()": {
        "notice": "Reinvest reward tokens into deposit tokens"
      },
      "removeDepositor(address)": {
        "notice": "Remove an allowed depositor"
      },
      "revokeAllowance(address,address)": {
        "notice": "Revoke token allowance"
      },
      "totalDeposits()": {
        "notice": "This function returns a snapshot of last available quotes"
      },
      "transfer(address,uint256)": {
        "notice": "Transfer `amount` tokens from `msg.sender` to `dst`"
      },
      "transferFrom(address,address,uint256)": {
        "notice": "Transfer `amount` tokens from `src` to `dst`"
      },
      "updateAdminFee(uint256)": {
        "notice": "Update admin fee"
      },
      "updateDepositsEnabled(bool)": {
        "notice": "Enable/disable deposits"
      },
      "updateDevAddr(address)": {
        "notice": "Update devAddr"
      },
      "updateDevFee(uint256)": {
        "notice": "Update developer fee"
      },
      "updateMaxTokensToDepositWithoutReinvest(uint256)": {
        "notice": "Update reinvest max threshold before a deposit"
      },
      "updateMinTokensToReinvest(uint256)": {
        "notice": "Update reinvest min threshold"
      },
      "updateReinvestReward(uint256)": {
        "notice": "Update reinvest reward"
      },
      "withdraw(uint256)": {
        "notice": "Redeem receipt tokens for deposit tokens"
      }
    },
    "version": 1
  },
  "storageLayout": {
    "storage": [
      {
        "astId": 552,
        "contract": "contracts/strategies/avalanche/baymax/CompoundingBlp.sol:CompoundingBlp",
        "label": "name",
        "offset": 0,
        "slot": "0",
        "type": "t_string_storage"
      },
      {
        "astId": 555,
        "contract": "contracts/strategies/avalanche/baymax/CompoundingBlp.sol:CompoundingBlp",
        "label": "symbol",
        "offset": 0,
        "slot": "1",
        "type": "t_string_storage"
      },
      {
        "astId": 560,
        "contract": "contracts/strategies/avalanche/baymax/CompoundingBlp.sol:CompoundingBlp",
        "label": "totalSupply",
        "offset": 0,
        "slot": "2",
        "type": "t_uint256"
      },
      {
        "astId": 566,
        "contract": "contracts/strategies/avalanche/baymax/CompoundingBlp.sol:CompoundingBlp",
        "label": "allowances",
        "offset": 0,
        "slot": "3",
        "type": "t_mapping(t_address,t_mapping(t_address,t_uint256))"
      },
      {
        "astId": 570,
        "contract": "contracts/strategies/avalanche/baymax/CompoundingBlp.sol:CompoundingBlp",
        "label": "balances",
        "offset": 0,
        "slot": "4",
        "type": "t_mapping(t_address,t_uint256)"
      },
      {
        "astId": 586,
        "contract": "contracts/strategies/avalanche/baymax/CompoundingBlp.sol:CompoundingBlp",
        "label": "nonces",
        "offset": 0,
        "slot": "5",
        "type": "t_mapping(t_address,t_uint256)"
      },
      {
        "astId": 8054,
        "contract": "contracts/strategies/avalanche/baymax/CompoundingBlp.sol:CompoundingBlp",
        "label": "_owner",
        "offset": 0,
        "slot": "6",
        "type": "t_address"
      },
      {
        "astId": 8163,
        "contract": "contracts/strategies/avalanche/baymax/CompoundingBlp.sol:CompoundingBlp",
        "label": "numberOfAllowedDepositors",
        "offset": 0,
        "slot": "7",
        "type": "t_uint256"
      },
      {
        "astId": 8167,
        "contract": "contracts/strategies/avalanche/baymax/CompoundingBlp.sol:CompoundingBlp",
        "label": "allowedDepositors",
        "offset": 0,
        "slot": "8",
        "type": "t_mapping(t_address,t_bool)"
      },
      {
        "astId": 1967,
        "contract": "contracts/strategies/avalanche/baymax/CompoundingBlp.sol:CompoundingBlp",
        "label": "devAddr",
        "offset": 0,
        "slot": "9",
        "type": "t_address"
      },
      {
        "astId": 1969,
        "contract": "contracts/strategies/avalanche/baymax/CompoundingBlp.sol:CompoundingBlp",
        "label": "MIN_TOKENS_TO_REINVEST",
        "offset": 0,
        "slot": "10",
        "type": "t_uint256"
      },
      {
        "astId": 1971,
        "contract": "contracts/strategies/avalanche/baymax/CompoundingBlp.sol:CompoundingBlp",
        "label": "MAX_TOKENS_TO_DEPOSIT_WITHOUT_REINVEST",
        "offset": 0,
        "slot": "11",
        "type": "t_uint256"
      },
      {
        "astId": 1973,
        "contract": "contracts/strategies/avalanche/baymax/CompoundingBlp.sol:CompoundingBlp",
        "label": "DEPOSITS_ENABLED",
        "offset": 0,
        "slot": "12",
        "type": "t_bool"
      },
      {
        "astId": 1975,
        "contract": "contracts/strategies/avalanche/baymax/CompoundingBlp.sol:CompoundingBlp",
        "label": "ADMIN_FEE_BIPS",
        "offset": 0,
        "slot": "13",
        "type": "t_uint256"
      },
      {
        "astId": 1977,
        "contract": "contracts/strategies/avalanche/baymax/CompoundingBlp.sol:CompoundingBlp",
        "label": "REINVEST_REWARD_BIPS",
        "offset": 0,
        "slot": "14",
        "type": "t_uint256"
      },
      {
        "astId": 1979,
        "contract": "contracts/strategies/avalanche/baymax/CompoundingBlp.sol:CompoundingBlp",
        "label": "DEV_FEE_BIPS",
        "offset": 0,
        "slot": "15",
        "type": "t_uint256"
      },
      {
        "astId": 22605,
        "contract": "contracts/strategies/avalanche/baymax/CompoundingBlp.sol:CompoundingBlp",
        "label": "proxy",
        "offset": 0,
        "slot": "16",
        "type": "t_contract(IBlpProxy)23110"
      }
    ],
    "types": {
      "t_address": {
        "encoding": "inplace",
        "label": "address",
        "numberOfBytes": "20"
      },
      "t_bool": {
        "encoding": "inplace",
        "label": "bool",
        "numberOfBytes": "1"
      },
      "t_contract(IBlpProxy)23110": {
        "encoding": "inplace",
        "label": "contract IBlpProxy",
        "numberOfBytes": "20"
      },
      "t_mapping(t_address,t_bool)": {
        "encoding": "mapping",
        "key": "t_address",
        "label": "mapping(address => bool)",
        "numberOfBytes": "32",
        "value": "t_bool"
      },
      "t_mapping(t_address,t_mapping(t_address,t_uint256))": {
        "encoding": "mapping",
        "key": "t_address",
        "label": "mapping(address => mapping(address => uint256))",
        "numberOfBytes": "32",
        "value": "t_mapping(t_address,t_uint256)"
      },
      "t_mapping(t_address,t_uint256)": {
        "encoding": "mapping",
        "key": "t_address",
        "label": "mapping(address => uint256)",
        "numberOfBytes": "32",
        "value": "t_uint256"
      },
      "t_string_storage": {
        "encoding": "bytes",
        "label": "string",
        "numberOfBytes": "32"
      },
      "t_uint256": {
        "encoding": "inplace",
        "label": "uint256",
        "numberOfBytes": "32"
      }
    }
  }
}