{
  "address": "0xC746990C316818073c1A304C0C3c1F79d7b75E67",
  "abi": [
    {
      "inputs": [
        {
          "internalType": "address",
          "name": "_gmxDepositor",
          "type": "address"
        },
        {
          "internalType": "address",
          "name": "_gmxRewardRouter",
          "type": "address"
        },
        {
          "internalType": "address",
          "name": "_devAddr",
          "type": "address"
        }
      ],
      "stateMutability": "nonpayable",
      "type": "constructor"
    },
    {
      "inputs": [
        {
          "internalType": "address",
          "name": "_strategy",
          "type": "address"
        }
      ],
      "name": "approveStrategy",
      "outputs": [],
      "stateMutability": "nonpayable",
      "type": "function"
    },
    {
      "inputs": [],
      "name": "approvedStrategy",
      "outputs": [
        {
          "internalType": "address",
          "name": "",
          "type": "address"
        }
      ],
      "stateMutability": "view",
      "type": "function"
    },
    {
      "inputs": [
        {
          "internalType": "uint256",
          "name": "_amount",
          "type": "uint256"
        }
      ],
      "name": "buyAndStakeGlp",
      "outputs": [
        {
          "internalType": "uint256",
          "name": "",
          "type": "uint256"
        }
      ],
      "stateMutability": "nonpayable",
      "type": "function"
    },
    {
      "inputs": [],
      "name": "claimReward",
      "outputs": [],
      "stateMutability": "nonpayable",
      "type": "function"
    },
    {
      "inputs": [],
      "name": "devAddr",
      "outputs": [
        {
          "internalType": "address",
          "name": "",
          "type": "address"
        }
      ],
      "stateMutability": "view",
      "type": "function"
    },
    {
      "inputs": [
        {
          "internalType": "uint256",
          "name": "_balance",
          "type": "uint256"
        }
      ],
      "name": "emergencyWithdraw",
      "outputs": [],
      "stateMutability": "nonpayable",
      "type": "function"
    },
    {
      "inputs": [],
      "name": "gmxDepositor",
      "outputs": [
        {
          "internalType": "contract IBayDepositor",
          "name": "",
          "type": "address"
        }
      ],
      "stateMutability": "view",
      "type": "function"
    },
    {
      "inputs": [],
      "name": "gmxRewardRouter",
      "outputs": [
        {
          "internalType": "address",
          "name": "",
          "type": "address"
        }
      ],
      "stateMutability": "view",
      "type": "function"
    },
    {
      "inputs": [],
      "name": "pendingRewards",
      "outputs": [
        {
          "internalType": "uint256",
          "name": "",
          "type": "uint256"
        }
      ],
      "stateMutability": "view",
      "type": "function"
    },
    {
      "inputs": [],
      "name": "stakeESGMX",
      "outputs": [],
      "stateMutability": "nonpayable",
      "type": "function"
    },
    {
      "inputs": [],
      "name": "totalDeposits",
      "outputs": [
        {
          "internalType": "uint256",
          "name": "",
          "type": "uint256"
        }
      ],
      "stateMutability": "view",
      "type": "function"
    },
    {
      "inputs": [
        {
          "internalType": "address",
          "name": "newValue",
          "type": "address"
        }
      ],
      "name": "updateDevAddr",
      "outputs": [],
      "stateMutability": "nonpayable",
      "type": "function"
    },
    {
      "inputs": [
        {
          "internalType": "uint256",
          "name": "_amount",
          "type": "uint256"
        }
      ],
      "name": "withdrawGlp",
      "outputs": [],
      "stateMutability": "nonpayable",
      "type": "function"
    }
  ],
  "transactionHash": "0xb0a8482893ede3517aa19206b8e76f24331a678c4320f99c7a093174e0af4114",
  "args": [
    "0xd9950e64e6238081b5E5cf69A8A4f650f3d569F6",
    "0x8fa98e7A80D90725E23FEC8ceF36B2551b2e364d",
    "0xDcEDF06Fd33E1D7b6eb4b309f779a0e9D3172e44"
  ],
  "solcInputHash": "30e4131a8e856a7860fe994d38fb21e3",
  "bytecode": "0x6101006040523480156200001257600080fd5b5060405162001406380380620014068339810160408190526200003591620002bd565b6001600160a01b038316620000a65760405162461bcd60e51b815260206004820152602c60248201527f426c7050726f78793a3a496e76616c6964206465706f7369746f72206164647260448201526b195cdcc81c1c9bdd9a59195960a21b60648201526084015b60405180910390fd5b6001600160a01b038216620001175760405162461bcd60e51b815260206004820152603060248201527f426c7050726f78793a3a496e76616c69642072657761726420726f757465722060448201526f1859191c995cdcc81c1c9bdd9a59195960821b60648201526084016200009d565b6001600160a01b0381166200017e5760405162461bcd60e51b815260206004820152602660248201527f426c7050726f78793a3a496e76616c69642064657620616464726573732070726044820152651bdd9a59195960d21b60648201526084016200009d565b600080546001600160a01b0319166001600160a01b0383811691909117909155838116608052821660a08190526040805162af394d60e81b8152905163af394d00916004808201926020929091908290030181865afa158015620001e6573d6000803e3d6000fd5b505050506040513d601f19601f820116820180604052508101906200020c919062000307565b6001600160a01b031660c0816001600160a01b031681525050816001600160a01b031663fa6db1bc6040518163ffffffff1660e01b8152600401602060405180830381865afa15801562000264573d6000803e3d6000fd5b505050506040513d601f19601f820116820180604052508101906200028a919062000307565b6001600160a01b031660e052506200032c915050565b80516001600160a01b0381168114620002b857600080fd5b919050565b600080600060608486031215620002d357600080fd5b620002de84620002a0565b9250620002ee60208501620002a0565b9150620002fe60408501620002a0565b90509250925092565b6000602082840312156200031a57600080fd5b6200032582620002a0565b9392505050565b60805160a05160c05160e05161103f620003c7600039600081816109a00152610b450152600061054d015260008181610186015281816102860152818161074f01528181610a9e0152610baf01526000818160e90152818161025b0152818161036801528181610522015281816107c1015281816108010152818161090a01528181610a3a01528181610b100152610c5f015261103f6000f3fe608060405234801561001057600080fd5b50600436106100df5760003560e01c80639291d5631161008c578063bf4d14d511610066578063bf4d14d5146101b0578063da09c72c146101c3578063eded3fda146101d6578063fa610c17146101de57600080fd5b80639291d5631461016e5780639d54b52414610181578063b88a802f146101a857600080fd5b80635312ea8e116100bd5780635312ea8e146101455780635c72f4b5146101455780637d8820971461015857600080fd5b8063026879dc146100e457806311ff5fff146101285780633b8ae39714610132575b600080fd5b61010b7f000000000000000000000000000000000000000000000000000000000000000081565b6040516001600160a01b0390911681526020015b60405180910390f35b6101306101f1565b005b610130610140366004610e1f565b610393565b610130610153366004610e3c565b61048f565b6101606104f2565b60405190815260200161011f565b61013061017c366004610e1f565b6105c0565b61010b7f000000000000000000000000000000000000000000000000000000000000000081565b6101306106b9565b6101606101be366004610e3c565b610936565b60005461010b906001600160a01b031681565b610160610bab565b60015461010b906001600160a01b031681565b6000546001600160a01b031633146102445760405162461bcd60e51b8152602060048201526011602482015270213638283937bc3c9d1d37b7363ca232bb60791b60448201526064015b60405180910390fd5b6040516370a0823160e01b81526001600160a01b037f0000000000000000000000000000000000000000000000000000000000000000166004820152610390907f000000000000000000000000000000000000000000000000000000000000000090600090738d5618aa319d99a8a8396e8a855115dfea5e84a4906370a0823190602401602060405180830381865afa1580156102e5573d6000803e3d6000fd5b505050506040513d601f19601f820116820180604052508101906103099190610e55565b60405160240161031b91815260200190565b60408051601f198184030181529190526020810180516001600160e01b03167fef8c5994000000000000000000000000000000000000000000000000000000001790526001600160a01b037f000000000000000000000000000000000000000000000000000000000000000016929190610c98565b50565b6000546001600160a01b031633146103e15760405162461bcd60e51b8152602060048201526011602482015270213638283937bc3c9d1d37b7363ca232bb60791b604482015260640161023b565b6001546001600160a01b0316156104605760405162461bcd60e51b815260206004820152603260248201527f426c7050726f78793a3a537472617465677920666f72206465706f736974207460448201527f6f6b656e20616c72656164792061646465640000000000000000000000000000606482015260840161023b565b6001805473ffffffffffffffffffffffffffffffffffffffff19166001600160a01b0392909216919091179055565b6001546001600160a01b031633146104e95760405162461bcd60e51b815260206004820152601660248201527f426c7050726f78793a3a6f6e6c79537472617465677900000000000000000000604482015260640161023b565b61039081610d6f565b6040517f10c1c1030000000000000000000000000000000000000000000000000000000081526001600160a01b037f0000000000000000000000000000000000000000000000000000000000000000811660048301526000917f0000000000000000000000000000000000000000000000000000000000000000909116906310c1c103906024015b602060405180830381865afa158015610597573d6000803e3d6000fd5b505050506040513d601f19601f820116820180604052508101906105bb9190610e55565b905090565b6000546001600160a01b0316331461060e5760405162461bcd60e51b8152602060048201526011602482015270213638283937bc3c9d1d37b7363ca232bb60791b604482015260640161023b565b6001600160a01b03811661068a5760405162461bcd60e51b815260206004820152602660248201527f426c7050726f78793a3a496e76616c696420646576206164647265737320707260448201527f6f76696465640000000000000000000000000000000000000000000000000000606482015260840161023b565b6000805473ffffffffffffffffffffffffffffffffffffffff19166001600160a01b0392909216919091179055565b6001546001600160a01b031633146107135760405162461bcd60e51b815260206004820152601660248201527f426c7050726f78793a3a6f6e6c79537472617465677900000000000000000000604482015260640161023b565b604051600060248201819052604482018190526001606483018190526084830181905260a4830181905260c483015260e482018190526107e9917f000000000000000000000000000000000000000000000000000000000000000091906101040160408051601f198184030181529190526020810180516001600160e01b03167f30b70002000000000000000000000000000000000000000000000000000000001790526001600160a01b037f000000000000000000000000000000000000000000000000000000000000000016929190610c98565b506040516370a0823160e01b81526001600160a01b037f000000000000000000000000000000000000000000000000000000000000000016600482015260009073b31f66aa3c1e785363f0875a1b74e27b85fd66c7906370a0823190602401602060405180830381865afa158015610865573d6000803e3d6000fd5b505050506040513d601f19601f820116820180604052508101906108899190610e55565b604051336024820152604481018290529091506109329073b31f66aa3c1e785363f0875a1b74e27b85fd66c7906000906064015b60408051601f198184030181529190526020810180516001600160e01b03167fa9059cbb000000000000000000000000000000000000000000000000000000001790526001600160a01b037f000000000000000000000000000000000000000000000000000000000000000016929190610c98565b5050565b6001546000906001600160a01b031633146109935760405162461bcd60e51b815260206004820152601660248201527f426c7050726f78793a3a6f6e6c79537472617465677900000000000000000000604482015260640161023b565b6040516001600160a01b037f000000000000000000000000000000000000000000000000000000000000000016602482015260448101839052610a629073b31f66aa3c1e785363f0875a1b74e27b85fd66c7906000906064015b60408051601f198184030181529190526020810180516001600160e01b03167f095ea7b3000000000000000000000000000000000000000000000000000000001790526001600160a01b037f000000000000000000000000000000000000000000000000000000000000000016929190610c98565b5060405173b31f66aa3c1e785363f0875a1b74e27b85fd66c76024820152604481018390526000606482018190526084820181905290610b38907f000000000000000000000000000000000000000000000000000000000000000090839060a40160408051601f198184030181529190526020810180516001600160e01b03167f364e2311000000000000000000000000000000000000000000000000000000001790526001600160a01b037f000000000000000000000000000000000000000000000000000000000000000016929190610c98565b6040516001600160a01b037f0000000000000000000000000000000000000000000000000000000000000000166024820152600060448201819052919250610b989173b31f66aa3c1e785363f0875a1b74e27b85fd66c7916064016109ed565b50610ba4816000610da4565b9392505050565b60007f00000000000000000000000000000000000000000000000000000000000000006001600160a01b031663e1c363b76040518163ffffffff1660e01b8152600401602060405180830381865afa158015610c0b573d6000803e3d6000fd5b505050506040513d601f19601f82011682018060405250810190610c2f9190610e6e565b6040517f402914f50000000000000000000000000000000000000000000000000000000081526001600160a01b037f000000000000000000000000000000000000000000000000000000000000000081166004830152919091169063402914f59060240161057a565b6060600080866001600160a01b031663b61d27f68787876040518463ffffffff1660e01b8152600401610ccd93929190610ebb565b6000604051808303816000875af1158015610cec573d6000803e3d6000fd5b505050506040513d6000823e601f3d908101601f19168201604052610d149190810190610f1b565b9150915081610d655760405162461bcd60e51b815260206004820152601c60248201527f426c7050726f78793a3a7361666545786563757465206661696c656400000000604482015260640161023b565b9695505050505050565b6040513360248201526044810182905261093290739a4e5e7fbb3bbf0f04b78354aafea877e346ae33906000906064016108bd565b6000610db1826020610fe3565b83511015610e015760405162461bcd60e51b815260206004820152601560248201527f746f55696e743235365f6f75744f66426f756e64730000000000000000000000604482015260640161023b565b50016020015190565b6001600160a01b038116811461039057600080fd5b600060208284031215610e3157600080fd5b8135610ba481610e0a565b600060208284031215610e4e57600080fd5b5035919050565b600060208284031215610e6757600080fd5b5051919050565b600060208284031215610e8057600080fd5b8151610ba481610e0a565b60005b83811015610ea6578181015183820152602001610e8e565b83811115610eb5576000848401525b50505050565b6001600160a01b03841681528260208201526060604082015260008251806060840152610eef816080850160208701610e8b565b601f01601f191691909101608001949350505050565b634e487b7160e01b600052604160045260246000fd5b60008060408385031215610f2e57600080fd5b82518015158114610f3e57600080fd5b602084015190925067ffffffffffffffff80821115610f5c57600080fd5b818501915085601f830112610f7057600080fd5b815181811115610f8257610f82610f05565b604051601f8201601f19908116603f01168101908382118183101715610faa57610faa610f05565b81604052828152886020848701011115610fc357600080fd5b610fd4836020830160208801610e8b565b80955050505050509250929050565b6000821982111561100457634e487b7160e01b600052601160045260246000fd5b50019056fea2646970667358221220e3558b5d160e284984f9879c34259cdf2fcf9c3b98d7beaf54f76dca48caf01764736f6c634300080d0033",
  "devdoc": {
    "kind": "dev",
    "methods": {},
    "version": 1
  },
  "userdoc": {
    "kind": "user",
    "methods": {},
    "version": 1
  },
  "storageLayout": {
    "storage": [
      {
        "astId": 22186,
        "contract": "contracts/strategies/avalanche/baymax/BlpProxy.sol:BlpProxy",
        "label": "devAddr",
        "offset": 0,
        "slot": "0",
        "type": "t_address"
      },
      {
        "astId": 22188,
        "contract": "contracts/strategies/avalanche/baymax/BlpProxy.sol:BlpProxy",
        "label": "approvedStrategy",
        "offset": 0,
        "slot": "1",
        "type": "t_address"
      }
    ],
    "types": {
      "t_address": {
        "encoding": "inplace",
        "label": "address",
        "numberOfBytes": "20"
      }
    }
  }
}