{
  "address": "0xc8cEeA18c2E168C6e767422c8d144c55545D23e9",
  "abi": [
    {
      "inputs": [
        {
          "internalType": "string",
          "name": "_name",
          "type": "string"
        },
        {
          "internalType": "address",
          "name": "_depositToken",
          "type": "address"
        },
        {
          "internalType": "address",
          "name": "_rewardController",
          "type": "address"
        },
        {
          "internalType": "address",
          "name": "_tokenDelegator",
          "type": "address"
        },
        {
          "internalType": "address",
          "name": "_rewardToken0",
          "type": "address"
        },
        {
          "internalType": "address",
          "name": "_rewardToken1",
          "type": "address"
        },
        {
          "internalType": "address",
          "name": "_swapPairToken0",
          "type": "address"
        },
        {
          "internalType": "address",
          "name": "_swapPairToken1",
          "type": "address"
        },
        {
          "internalType": "address",
          "name": "_timelock",
          "type": "address"
        },
        {
          "internalType": "uint256",
          "name": "_minMinting",
          "type": "uint256"
        },
        {
          "internalType": "uint256",
          "name": "_leverageLevel",
          "type": "uint256"
        },
        {
          "internalType": "uint256",
          "name": "_leverageBips",
          "type": "uint256"
        },
        {
          "internalType": "uint256",
          "name": "_minTokensToReinvest",
          "type": "uint256"
        },
        {
          "internalType": "uint256",
          "name": "_devFeeBips",
          "type": "uint256"
        },
        {
          "internalType": "uint256",
          "name": "_reinvestRewardBips",
          "type": "uint256"
        }
      ],
      "stateMutability": "nonpayable",
      "type": "constructor"
    },
    {
      "anonymous": false,
      "inputs": [
        {
          "indexed": true,
          "internalType": "address",
          "name": "account",
          "type": "address"
        }
      ],
      "name": "AllowDepositor",
      "type": "event"
    },
    {
      "anonymous": false,
      "inputs": [
        {
          "indexed": true,
          "internalType": "address",
          "name": "owner",
          "type": "address"
        },
        {
          "indexed": true,
          "internalType": "address",
          "name": "spender",
          "type": "address"
        },
        {
          "indexed": false,
          "internalType": "uint256",
          "name": "value",
          "type": "uint256"
        }
      ],
      "name": "Approval",
      "type": "event"
    },
    {
      "anonymous": false,
      "inputs": [
        {
          "indexed": true,
          "internalType": "address",
          "name": "account",
          "type": "address"
        },
        {
          "indexed": false,
          "internalType": "uint256",
          "name": "amount",
          "type": "uint256"
        }
      ],
      "name": "Deposit",
      "type": "event"
    },
    {
      "anonymous": false,
      "inputs": [
        {
          "indexed": false,
          "internalType": "bool",
          "name": "newValue",
          "type": "bool"
        }
      ],
      "name": "DepositsEnabled",
      "type": "event"
    },
    {
      "anonymous": false,
      "inputs": [
        {
          "indexed": true,
          "internalType": "address",
          "name": "previousOwner",
          "type": "address"
        },
        {
          "indexed": true,
          "internalType": "address",
          "name": "newOwner",
          "type": "address"
        }
      ],
      "name": "OwnershipTransferred",
      "type": "event"
    },
    {
      "anonymous": false,
      "inputs": [
        {
          "indexed": false,
          "internalType": "address",
          "name": "token",
          "type": "address"
        },
        {
          "indexed": false,
          "internalType": "uint256",
          "name": "amount",
          "type": "uint256"
        }
      ],
      "name": "Recovered",
      "type": "event"
    },
    {
      "anonymous": false,
      "inputs": [
        {
          "indexed": false,
          "internalType": "uint256",
          "name": "newTotalDeposits",
          "type": "uint256"
        },
        {
          "indexed": false,
          "internalType": "uint256",
          "name": "newTotalSupply",
          "type": "uint256"
        }
      ],
      "name": "Reinvest",
      "type": "event"
    },
    {
      "anonymous": false,
      "inputs": [
        {
          "indexed": true,
          "internalType": "address",
          "name": "account",
          "type": "address"
        }
      ],
      "name": "RemoveDepositor",
      "type": "event"
    },
    {
      "anonymous": false,
      "inputs": [
        {
          "indexed": true,
          "internalType": "address",
          "name": "from",
          "type": "address"
        },
        {
          "indexed": true,
          "internalType": "address",
          "name": "to",
          "type": "address"
        },
        {
          "indexed": false,
          "internalType": "uint256",
          "name": "value",
          "type": "uint256"
        }
      ],
      "name": "Transfer",
      "type": "event"
    },
    {
      "anonymous": false,
      "inputs": [
        {
          "indexed": false,
          "internalType": "uint256",
          "name": "oldValue",
          "type": "uint256"
        },
        {
          "indexed": false,
          "internalType": "uint256",
          "name": "newValue",
          "type": "uint256"
        }
      ],
      "name": "UpdateAdminFee",
      "type": "event"
    },
    {
      "anonymous": false,
      "inputs": [
        {
          "indexed": false,
          "internalType": "address",
          "name": "oldValue",
          "type": "address"
        },
        {
          "indexed": false,
          "internalType": "address",
          "name": "newValue",
          "type": "address"
        }
      ],
      "name": "UpdateDevAddr",
      "type": "event"
    },
    {
      "anonymous": false,
      "inputs": [
        {
          "indexed": false,
          "internalType": "uint256",
          "name": "oldValue",
          "type": "uint256"
        },
        {
          "indexed": false,
          "internalType": "uint256",
          "name": "newValue",
          "type": "uint256"
        }
      ],
      "name": "UpdateDevFee",
      "type": "event"
    },
    {
      "anonymous": false,
      "inputs": [
        {
          "indexed": false,
          "internalType": "uint256",
          "name": "oldValue",
          "type": "uint256"
        },
        {
          "indexed": false,
          "internalType": "uint256",
          "name": "newValue",
          "type": "uint256"
        }
      ],
      "name": "UpdateMaxTokensToDepositWithoutReinvest",
      "type": "event"
    },
    {
      "anonymous": false,
      "inputs": [
        {
          "indexed": false,
          "internalType": "uint256",
          "name": "oldValue",
          "type": "uint256"
        },
        {
          "indexed": false,
          "internalType": "uint256",
          "name": "newValue",
          "type": "uint256"
        }
      ],
      "name": "UpdateMinTokensToReinvest",
      "type": "event"
    },
    {
      "anonymous": false,
      "inputs": [
        {
          "indexed": false,
          "internalType": "uint256",
          "name": "oldValue",
          "type": "uint256"
        },
        {
          "indexed": false,
          "internalType": "uint256",
          "name": "newValue",
          "type": "uint256"
        }
      ],
      "name": "UpdateReinvestReward",
      "type": "event"
    },
    {
      "anonymous": false,
      "inputs": [
        {
          "indexed": true,
          "internalType": "address",
          "name": "account",
          "type": "address"
        },
        {
          "indexed": false,
          "internalType": "uint256",
          "name": "amount",
          "type": "uint256"
        }
      ],
      "name": "Withdraw",
      "type": "event"
    },
    {
      "inputs": [],
      "name": "ADMIN_FEE_BIPS",
      "outputs": [
        {
          "internalType": "uint256",
          "name": "",
          "type": "uint256"
        }
      ],
      "stateMutability": "view",
      "type": "function"
    },
    {
      "inputs": [],
      "name": "DEPOSITS_ENABLED",
      "outputs": [
        {
          "internalType": "bool",
          "name": "",
          "type": "bool"
        }
      ],
      "stateMutability": "view",
      "type": "function"
    },
    {
      "inputs": [],
      "name": "DEV_FEE_BIPS",
      "outputs": [
        {
          "internalType": "uint256",
          "name": "",
          "type": "uint256"
        }
      ],
      "stateMutability": "view",
      "type": "function"
    },
    {
      "inputs": [],
      "name": "DOMAIN_TYPEHASH",
      "outputs": [
        {
          "internalType": "bytes32",
          "name": "",
          "type": "bytes32"
        }
      ],
      "stateMutability": "view",
      "type": "function"
    },
    {
      "inputs": [],
      "name": "MAX_TOKENS_TO_DEPOSIT_WITHOUT_REINVEST",
      "outputs": [
        {
          "internalType": "uint256",
          "name": "",
          "type": "uint256"
        }
      ],
      "stateMutability": "view",
      "type": "function"
    },
    {
      "inputs": [],
      "name": "MIN_TOKENS_TO_REINVEST",
      "outputs": [
        {
          "internalType": "uint256",
          "name": "",
          "type": "uint256"
        }
      ],
      "stateMutability": "view",
      "type": "function"
    },
    {
      "inputs": [],
      "name": "PERMIT_TYPEHASH",
      "outputs": [
        {
          "internalType": "bytes32",
          "name": "",
          "type": "bytes32"
        }
      ],
      "stateMutability": "view",
      "type": "function"
    },
    {
      "inputs": [],
      "name": "REINVEST_REWARD_BIPS",
      "outputs": [
        {
          "internalType": "uint256",
          "name": "",
          "type": "uint256"
        }
      ],
      "stateMutability": "view",
      "type": "function"
    },
    {
      "inputs": [],
      "name": "VERSION_HASH",
      "outputs": [
        {
          "internalType": "bytes32",
          "name": "",
          "type": "bytes32"
        }
      ],
      "stateMutability": "view",
      "type": "function"
    },
    {
      "inputs": [
        {
          "internalType": "address",
          "name": "depositor",
          "type": "address"
        }
      ],
      "name": "allowDepositor",
      "outputs": [],
      "stateMutability": "nonpayable",
      "type": "function"
    },
    {
      "inputs": [
        {
          "internalType": "address",
          "name": "account",
          "type": "address"
        },
        {
          "internalType": "address",
          "name": "spender",
          "type": "address"
        }
      ],
      "name": "allowance",
      "outputs": [
        {
          "internalType": "uint256",
          "name": "",
          "type": "uint256"
        }
      ],
      "stateMutability": "view",
      "type": "function"
    },
    {
      "inputs": [
        {
          "internalType": "address",
          "name": "",
          "type": "address"
        }
      ],
      "name": "allowedDepositors",
      "outputs": [
        {
          "internalType": "bool",
          "name": "",
          "type": "bool"
        }
      ],
      "stateMutability": "view",
      "type": "function"
    },
    {
      "inputs": [
        {
          "internalType": "address",
          "name": "spender",
          "type": "address"
        },
        {
          "internalType": "uint256",
          "name": "amount",
          "type": "uint256"
        }
      ],
      "name": "approve",
      "outputs": [
        {
          "internalType": "bool",
          "name": "",
          "type": "bool"
        }
      ],
      "stateMutability": "nonpayable",
      "type": "function"
    },
    {
      "inputs": [
        {
          "internalType": "address",
          "name": "account",
          "type": "address"
        }
      ],
      "name": "balanceOf",
      "outputs": [
        {
          "internalType": "uint256",
          "name": "",
          "type": "uint256"
        }
      ],
      "stateMutability": "view",
      "type": "function"
    },
    {
      "inputs": [],
      "name": "checkReward",
      "outputs": [
        {
          "internalType": "uint256",
          "name": "",
          "type": "uint256"
        }
      ],
      "stateMutability": "view",
      "type": "function"
    },
    {
      "inputs": [],
      "name": "decimals",
      "outputs": [
        {
          "internalType": "uint8",
          "name": "",
          "type": "uint8"
        }
      ],
      "stateMutability": "view",
      "type": "function"
    },
    {
      "inputs": [
        {
          "internalType": "uint256",
          "name": "amount",
          "type": "uint256"
        }
      ],
      "name": "deposit",
      "outputs": [],
      "stateMutability": "nonpayable",
      "type": "function"
    },
    {
      "inputs": [
        {
          "internalType": "address",
          "name": "account",
          "type": "address"
        },
        {
          "internalType": "uint256",
          "name": "amount",
          "type": "uint256"
        }
      ],
      "name": "depositFor",
      "outputs": [],
      "stateMutability": "nonpayable",
      "type": "function"
    },
    {
      "inputs": [],
      "name": "depositToken",
      "outputs": [
        {
          "internalType": "contract IERC20",
          "name": "",
          "type": "address"
        }
      ],
      "stateMutability": "view",
      "type": "function"
    },
    {
      "inputs": [
        {
          "internalType": "uint256",
          "name": "amount",
          "type": "uint256"
        },
        {
          "internalType": "uint256",
          "name": "deadline",
          "type": "uint256"
        },
        {
          "internalType": "uint8",
          "name": "v",
          "type": "uint8"
        },
        {
          "internalType": "bytes32",
          "name": "r",
          "type": "bytes32"
        },
        {
          "internalType": "bytes32",
          "name": "s",
          "type": "bytes32"
        }
      ],
      "name": "depositWithPermit",
      "outputs": [],
      "stateMutability": "nonpayable",
      "type": "function"
    },
    {
      "inputs": [],
      "name": "devAddr",
      "outputs": [
        {
          "internalType": "address",
          "name": "",
          "type": "address"
        }
      ],
      "stateMutability": "view",
      "type": "function"
    },
    {
      "inputs": [],
      "name": "estimateDeployedBalance",
      "outputs": [
        {
          "internalType": "uint256",
          "name": "",
          "type": "uint256"
        }
      ],
      "stateMutability": "view",
      "type": "function"
    },
    {
      "inputs": [],
      "name": "estimateReinvestReward",
      "outputs": [
        {
          "internalType": "uint256",
          "name": "",
          "type": "uint256"
        }
      ],
      "stateMutability": "view",
      "type": "function"
    },
    {
      "inputs": [],
      "name": "getActualLeverage",
      "outputs": [
        {
          "internalType": "uint256",
          "name": "",
          "type": "uint256"
        }
      ],
      "stateMutability": "view",
      "type": "function"
    },
    {
      "inputs": [
        {
          "internalType": "uint256",
          "name": "amount",
          "type": "uint256"
        }
      ],
      "name": "getDepositTokensForShares",
      "outputs": [
        {
          "internalType": "uint256",
          "name": "",
          "type": "uint256"
        }
      ],
      "stateMutability": "view",
      "type": "function"
    },
    {
      "inputs": [],
      "name": "getDomainSeparator",
      "outputs": [
        {
          "internalType": "bytes32",
          "name": "",
          "type": "bytes32"
        }
      ],
      "stateMutability": "view",
      "type": "function"
    },
    {
      "inputs": [
        {
          "internalType": "uint256",
          "name": "amount",
          "type": "uint256"
        }
      ],
      "name": "getSharesForDepositTokens",
      "outputs": [
        {
          "internalType": "uint256",
          "name": "",
          "type": "uint256"
        }
      ],
      "stateMutability": "view",
      "type": "function"
    },
    {
      "inputs": [],
      "name": "name",
      "outputs": [
        {
          "internalType": "string",
          "name": "",
          "type": "string"
        }
      ],
      "stateMutability": "view",
      "type": "function"
    },
    {
      "inputs": [
        {
          "internalType": "address",
          "name": "",
          "type": "address"
        }
      ],
      "name": "nonces",
      "outputs": [
        {
          "internalType": "uint256",
          "name": "",
          "type": "uint256"
        }
      ],
      "stateMutability": "view",
      "type": "function"
    },
    {
      "inputs": [],
      "name": "numberOfAllowedDepositors",
      "outputs": [
        {
          "internalType": "uint256",
          "name": "",
          "type": "uint256"
        }
      ],
      "stateMutability": "view",
      "type": "function"
    },
    {
      "inputs": [],
      "name": "owner",
      "outputs": [
        {
          "internalType": "address",
          "name": "",
          "type": "address"
        }
      ],
      "stateMutability": "view",
      "type": "function"
    },
    {
      "inputs": [
        {
          "internalType": "address",
          "name": "owner",
          "type": "address"
        },
        {
          "internalType": "address",
          "name": "spender",
          "type": "address"
        },
        {
          "internalType": "uint256",
          "name": "value",
          "type": "uint256"
        },
        {
          "internalType": "uint256",
          "name": "deadline",
          "type": "uint256"
        },
        {
          "internalType": "uint8",
          "name": "v",
          "type": "uint8"
        },
        {
          "internalType": "bytes32",
          "name": "r",
          "type": "bytes32"
        },
        {
          "internalType": "bytes32",
          "name": "s",
          "type": "bytes32"
        }
      ],
      "name": "permit",
      "outputs": [],
      "stateMutability": "nonpayable",
      "type": "function"
    },
    {
      "inputs": [
        {
          "internalType": "uint256",
          "name": "amount",
          "type": "uint256"
        }
      ],
      "name": "recoverAVAX",
      "outputs": [],
      "stateMutability": "nonpayable",
      "type": "function"
    },
    {
      "inputs": [
        {
          "internalType": "address",
          "name": "tokenAddress",
          "type": "address"
        },
        {
          "internalType": "uint256",
          "name": "tokenAmount",
          "type": "uint256"
        }
      ],
      "name": "recoverERC20",
      "outputs": [],
      "stateMutability": "nonpayable",
      "type": "function"
    },
    {
      "inputs": [],
      "name": "reinvest",
      "outputs": [],
      "stateMutability": "nonpayable",
      "type": "function"
    },
    {
      "inputs": [
        {
          "internalType": "address",
          "name": "depositor",
          "type": "address"
        }
      ],
      "name": "removeDepositor",
      "outputs": [],
      "stateMutability": "nonpayable",
      "type": "function"
    },
    {
      "inputs": [],
      "name": "renounceOwnership",
      "outputs": [],
      "stateMutability": "nonpayable",
      "type": "function"
    },
    {
      "inputs": [
        {
          "internalType": "uint256",
          "name": "minReturnAmountAccepted",
          "type": "uint256"
        },
        {
          "internalType": "bool",
          "name": "",
          "type": "bool"
        }
      ],
      "name": "rescueDeployedFunds",
      "outputs": [],
      "stateMutability": "nonpayable",
      "type": "function"
    },
    {
      "inputs": [
        {
          "internalType": "address",
          "name": "token",
          "type": "address"
        },
        {
          "internalType": "address",
          "name": "spender",
          "type": "address"
        }
      ],
      "name": "revokeAllowance",
      "outputs": [],
      "stateMutability": "nonpayable",
      "type": "function"
    },
    {
      "inputs": [],
      "name": "rewardToken",
      "outputs": [
        {
          "internalType": "contract IERC20",
          "name": "",
          "type": "address"
        }
      ],
      "stateMutability": "view",
      "type": "function"
    },
    {
      "inputs": [],
      "name": "setAllowances",
      "outputs": [],
      "stateMutability": "nonpayable",
      "type": "function"
    },
    {
      "inputs": [],
      "name": "symbol",
      "outputs": [
        {
          "internalType": "string",
          "name": "",
          "type": "string"
        }
      ],
      "stateMutability": "view",
      "type": "function"
    },
    {
      "inputs": [],
      "name": "totalDeposits",
      "outputs": [
        {
          "internalType": "uint256",
          "name": "",
          "type": "uint256"
        }
      ],
      "stateMutability": "view",
      "type": "function"
    },
    {
      "inputs": [],
      "name": "totalSupply",
      "outputs": [
        {
          "internalType": "uint256",
          "name": "",
          "type": "uint256"
        }
      ],
      "stateMutability": "view",
      "type": "function"
    },
    {
      "inputs": [
        {
          "internalType": "address",
          "name": "dst",
          "type": "address"
        },
        {
          "internalType": "uint256",
          "name": "amount",
          "type": "uint256"
        }
      ],
      "name": "transfer",
      "outputs": [
        {
          "internalType": "bool",
          "name": "",
          "type": "bool"
        }
      ],
      "stateMutability": "nonpayable",
      "type": "function"
    },
    {
      "inputs": [
        {
          "internalType": "address",
          "name": "src",
          "type": "address"
        },
        {
          "internalType": "address",
          "name": "dst",
          "type": "address"
        },
        {
          "internalType": "uint256",
          "name": "amount",
          "type": "uint256"
        }
      ],
      "name": "transferFrom",
      "outputs": [
        {
          "internalType": "bool",
          "name": "",
          "type": "bool"
        }
      ],
      "stateMutability": "nonpayable",
      "type": "function"
    },
    {
      "inputs": [
        {
          "internalType": "address",
          "name": "newOwner",
          "type": "address"
        }
      ],
      "name": "transferOwnership",
      "outputs": [],
      "stateMutability": "nonpayable",
      "type": "function"
    },
    {
      "inputs": [
        {
          "internalType": "uint256",
          "name": "newValue",
          "type": "uint256"
        }
      ],
      "name": "updateAdminFee",
      "outputs": [],
      "stateMutability": "nonpayable",
      "type": "function"
    },
    {
      "inputs": [
        {
          "internalType": "bool",
          "name": "newValue",
          "type": "bool"
        }
      ],
      "name": "updateDepositsEnabled",
      "outputs": [],
      "stateMutability": "nonpayable",
      "type": "function"
    },
    {
      "inputs": [
        {
          "internalType": "address",
          "name": "newValue",
          "type": "address"
        }
      ],
      "name": "updateDevAddr",
      "outputs": [],
      "stateMutability": "nonpayable",
      "type": "function"
    },
    {
      "inputs": [
        {
          "internalType": "uint256",
          "name": "newValue",
          "type": "uint256"
        }
      ],
      "name": "updateDevFee",
      "outputs": [],
      "stateMutability": "nonpayable",
      "type": "function"
    },
    {
      "inputs": [
        {
          "internalType": "uint256",
          "name": "_leverageLevel",
          "type": "uint256"
        },
        {
          "internalType": "uint256",
          "name": "_leverageBips",
          "type": "uint256"
        },
        {
          "internalType": "uint256",
          "name": "_redeemLimitSafetyMargin",
          "type": "uint256"
        }
      ],
      "name": "updateLeverage",
      "outputs": [],
      "stateMutability": "nonpayable",
      "type": "function"
    },
    {
      "inputs": [
        {
          "internalType": "uint256",
          "name": "newValue",
          "type": "uint256"
        }
      ],
      "name": "updateMaxTokensToDepositWithoutReinvest",
      "outputs": [],
      "stateMutability": "nonpayable",
      "type": "function"
    },
    {
      "inputs": [
        {
          "internalType": "uint256",
          "name": "newValue",
          "type": "uint256"
        }
      ],
      "name": "updateMinTokensToReinvest",
      "outputs": [],
      "stateMutability": "nonpayable",
      "type": "function"
    },
    {
      "inputs": [
        {
          "internalType": "uint256",
          "name": "newValue",
          "type": "uint256"
        }
      ],
      "name": "updateReinvestReward",
      "outputs": [],
      "stateMutability": "nonpayable",
      "type": "function"
    },
    {
      "inputs": [
        {
          "internalType": "uint256",
          "name": "amount",
          "type": "uint256"
        }
      ],
      "name": "withdraw",
      "outputs": [],
      "stateMutability": "nonpayable",
      "type": "function"
    },
    {
      "stateMutability": "payable",
      "type": "receive"
    }
  ],
  "transactionHash": "0xfd5715586e9c370d237d95b9c0e1cc403a7499409a33979b3d309a49b7cb643c",
  "args": [
    "Yield Yak: Benqi sAVAX",
    "0x2b2c81e08f1af8835a78bb2a90ae924ace0ea4be",
    "0x486Af39519B4Dc9a7fCcd318217352830E8AD9b4",
    "0xf362fea9659cf036792c9cb02f8ff8198e21b4cb",
    "0x8729438EB15e2C8B576fCc6AeCdA6A148776C0F5",
    "0xB31f66AA3C1e785363F0875A1B74E27b85FD66c7",
    "0xe530dc2095ef5653205cf5ea79f8979a7028065c",
    "0x4b946c91c2b1a7d7c40fb3c130cdfbaf8389094d",
    "0x302404cb8f34713a8b8dbf9b4989a41252332068",
    "100000000000000",
    "10000",
    "10000",
    "10000000000000",
    700,
    300
  ],
  "solcInputHash": "106ae02ffb0c67a858c4468a6859d303",
  "bytecode": "0x60c060405260096080819052685969656c642059616b60b81b60a09081526200002c916000919062001167565b506040805180820190915260038082526216549560ea1b6020909201918252620000599160019162001167565b503480156200006757600080fd5b5060405162006f0138038062006f0183398181016040526101e08110156200008e57600080fd5b8101908080516040519392919084640100000000821115620000af57600080fd5b908301906020820185811115620000c557600080fd5b8251640100000000811182820188101715620000e057600080fd5b82525081516020918201929091019080838360005b838110156200010f578181015183820152602001620000f5565b50505050905090810190601f1680156200013d5780820380516001836020036101000a031916815260200191505b5060409081526020820151908201516060830151608084015160a085015160c086015160e08701516101008801516101208901516101408a01516101608b01516101808c01516101a08d01516101c0909d01519b9e50999c50979a96999598949793969295919490939290916000620001b562000418565b600680546001600160a01b0319166001600160a01b0383169081179091556040519192509060009060008051602062006e43833981519152908290a3508e600090805190602001906200020a92919062001167565b508d600960006101000a8154816001600160a01b0302191690836001600160a01b031602179055508c601260006101000a8154816001600160a01b0302191690836001600160a01b031602179055508b601360006101000a8154816001600160a01b0302191690836001600160a01b031602179055508a601460006101000a8154816001600160a01b0302191690836001600160a01b0316021790555089601560006101000a8154816001600160a01b0302191690836001600160a01b03160217905550601560009054906101000a90046001600160a01b0316600a60006101000a8154816001600160a01b0302191690836001600160a01b0316021790555085601a819055506200035485856200034e6103e86200033a6103de8a6200041c60201b620029fc1790919060201c565b6200048360201b62002a551790919060201c565b620004cd565b600b80546001600160a01b031916732d580f9cf2fb2d09bc411532988f2afda4e7beff17905562000384620004db565b62000390898962000688565b6200039b8362000c20565b620003a68262000cca565b620003b18162000dba565b620003bd600162000e96565b620003c88762000f5c565b604080516000808252602082015281517fc7606d21ac05cd309191543e409f0845c016120563783d70e4f41419dc0ef234929181900390910190a150505050505050505050505050505062001203565b3390565b6000826200042d575060006200047d565b828202828482816200043b57fe5b04146200047a5760405162461bcd60e51b815260040180806020018281038252602181526020018062006e026021913960400191505060405180910390fd5b90505b92915050565b60006200047a83836040518060400160405280601a81526020017f536166654d6174683a206469766973696f6e206279207a65726f0000000000008152506200105660201b60201c565b601892909255601955601b55565b60408051600180825281830190925260609160208083019080368337505060135482519293506001600160a01b0316918391506000906200051857fe5b6001600160a01b03928316602091820292909201810191909152601254604051631853304760e31b815260048101838152855160248301528551929094169363c299823893869391928392604490910191858101910280838360005b838110156200058e57818101518382015260200162000574565b5050505090500192505050600060405180830381600087803b158015620005b457600080fd5b505af1158015620005c9573d6000803e3d6000fd5b505050506040513d6000823e601f3d908101601f191682016040526020811015620005f357600080fd5b81019080805160405193929190846401000000008211156200061457600080fd5b9083019060208201858111156200062a57600080fd5b82518660208202830111640100000000821117156200064857600080fd5b82525081516020918201928201910280838360005b83811015620006775781810151838201526020016200065d565b505050509050016040525050505050565b6001600160a01b038216620006cf5760405162461bcd60e51b815260040180806020018281038252602981526020018062006dd96029913960400191505060405180910390fd5b6001600160a01b038116620007165760405162461bcd60e51b815260040180806020018281038252602981526020018062006e8a6029913960400191505060405180910390fd5b816001600160a01b0316630dfe16816040518163ffffffff1660e01b815260040160206040518083038186803b1580156200075057600080fd5b505afa15801562000765573d6000803e3d6000fd5b505050506040513d60208110156200077c57600080fd5b50516014546001600160a01b0390811691161480620008105750816001600160a01b031663d21220a76040518163ffffffff1660e01b815260040160206040518083038186803b158015620007d057600080fd5b505afa158015620007e5573d6000803e3d6000fd5b505050506040513d6020811015620007fc57600080fd5b50516014546001600160a01b039081169116145b6200084d5760405162461bcd60e51b815260040180806020018281038252602781526020018062006eda6027913960400191505060405180910390fd5b816001600160a01b0316630dfe16816040518163ffffffff1660e01b815260040160206040518083038186803b1580156200088757600080fd5b505afa1580156200089c573d6000803e3d6000fd5b505050506040513d6020811015620008b357600080fd5b50516015546001600160a01b0390811691161480620009475750816001600160a01b031663d21220a76040518163ffffffff1660e01b815260040160206040518083038186803b1580156200090757600080fd5b505afa1580156200091c573d6000803e3d6000fd5b505050506040513d60208110156200093357600080fd5b50516015546001600160a01b039081169116145b620009845760405162461bcd60e51b815260040180806020018281038252602781526020018062006e636027913960400191505060405180910390fd5b806001600160a01b0316630dfe16816040518163ffffffff1660e01b815260040160206040518083038186803b158015620009be57600080fd5b505afa158015620009d3573d6000803e3d6000fd5b505050506040513d6020811015620009ea57600080fd5b50516009546001600160a01b039081169116148062000a7e5750806001600160a01b031663d21220a76040518163ffffffff1660e01b815260040160206040518083038186803b15801562000a3e57600080fd5b505afa15801562000a53573d6000803e3d6000fd5b505050506040513d602081101562000a6a57600080fd5b50516009546001600160a01b039081169116145b62000abb5760405162461bcd60e51b815260040180806020018281038252602781526020018062006eb36027913960400191505060405180910390fd5b806001600160a01b0316630dfe16816040518163ffffffff1660e01b815260040160206040518083038186803b15801562000af557600080fd5b505afa15801562000b0a573d6000803e3d6000fd5b505050506040513d602081101562000b2157600080fd5b50516015546001600160a01b039081169116148062000bb55750806001600160a01b031663d21220a76040518163ffffffff1660e01b815260040160206040518083038186803b15801562000b7557600080fd5b505afa15801562000b8a573d6000803e3d6000fd5b505050506040513d602081101562000ba157600080fd5b50516015546001600160a01b039081169116145b62000bf25760405162461bcd60e51b815260040180806020018281038252602781526020018062006d8c6027913960400191505060405180910390fd5b601680546001600160a01b039384166001600160a01b03199182161790915560178054929093169116179055565b62000c2a62000418565b6001600160a01b031662000c3d620010fd565b6001600160a01b03161462000c88576040805162461bcd60e51b8152602060048201819052602482015260008051602062006e23833981519152604482015290519081900360640190fd5b600c54604080519182526020820183905280517f481f79ac3a523b6d6db3c5a720e190e986d1cc1b41adcdf50f9caef8499011009281900390910190a1600c55565b62000cd462000418565b6001600160a01b031662000ce7620010fd565b6001600160a01b03161462000d32576040805162461bcd60e51b8152602060048201819052602482015260008051602062006e23833981519152604482015290519081900360640190fd5b61271062000d6c600f5462000d58601054856200110c60201b62002a971790919060201c565b6200110c60201b62002a971790919060201c565b111562000d7857600080fd5b601154604080519182526020820183905280517f2a42303d002f0ba6cfe8259c91d4684443fb0b3de286ba74991175d6517261319281900390910190a1601155565b62000dc462000418565b6001600160a01b031662000dd7620010fd565b6001600160a01b03161462000e22576040805162461bcd60e51b8152602060048201819052602482015260008051602062006e23833981519152604482015290519081900360640190fd5b61271062000e4860115462000d58601054856200110c60201b62002a971790919060201c565b111562000e5457600080fd5b600f54604080519182526020820183905280517fe7f97d51d307dc44045597c9978bec0f842e6bb40d19b9444084cfa30d9ed4f29281900390910190a1600f55565b62000ea062000418565b6001600160a01b031662000eb3620010fd565b6001600160a01b03161462000efe576040805162461bcd60e51b8152602060048201819052602482015260008051602062006e23833981519152604482015290519081900360640190fd5b600e5460ff161515811515141562000f1557600080fd5b600e805482151560ff19909116811790915560408051918252517f7b014ed3854e7f5cb0218d58b3c6ae7d53a68bb0af2f67bfb029ea42c38a7e859181900360200190a150565b62000f6662000418565b6001600160a01b031662000f79620010fd565b6001600160a01b03161462000fc4576040805162461bcd60e51b8152602060048201819052602482015260008051602062006e23833981519152604482015290519081900360640190fd5b6001600160a01b0381166200100b5760405162461bcd60e51b815260040180806020018281038252602681526020018062006db36026913960400191505060405180910390fd5b6006546040516001600160a01b0380841692169060008051602062006e4383398151915290600090a3600680546001600160a01b0319166001600160a01b0392909216919091179055565b60008183620010e65760405162461bcd60e51b81526004018080602001828103825283818151815260200191508051906020019080838360005b83811015620010aa57818101518382015260200162001090565b50505050905090810190601f168015620010d85780820380516001836020036101000a031916815260200191505b509250505060405180910390fd5b506000838581620010f357fe5b0495945050505050565b6006546001600160a01b031690565b6000828201838110156200047a576040805162461bcd60e51b815260206004820152601b60248201527f536166654d6174683a206164646974696f6e206f766572666c6f770000000000604482015290519081900360640190fd5b828054600181600116156101000203166002900490600052602060002090601f016020900481019282601f10620011aa57805160ff1916838001178555620011da565b82800160010185558215620011da579182015b82811115620011da578251825591602001919060010190620011bd565b50620011e8929150620011ec565b5090565b5b80821115620011e85760008155600101620011ed565b615b7980620012136000396000f3fe60806040526004361061036f5760003560e01c80638da5cb5b116101c6578063cff1b6ef116100f7578063dd8ce4d611610095578063ed24911d1161006f578063ed24911d14610c33578063f2fde38b14610c48578063f7c618c114610c7b578063fdb5a03e14610c90576103bf565b8063dd8ce4d614610bb5578063e21ac82514610bdf578063eab89a5a14610c09576103bf565b8063da09c72c116100d1578063da09c72c14610b3b578063db8dd95c14610b50578063dbd9a4d414610b65578063dd62ed3e14610b7a576103bf565b8063cff1b6ef14610a7d578063d505accf14610aa7578063d6ec2a4914610b05576103bf565b8063ac0d31ff11610164578063b9e57b801161013e578063b9e57b8014610a29578063bd079f5514610a3e578063c4b24a4614610a53578063c89039c514610a68576103bf565b8063ac0d31ff146109b8578063b52a321f146109ea578063b6b55f25146109ff576103bf565b806399729ec1116101a057806399729ec1146109165780639e4e731814610940578063a8ae2b7c14610955578063a9059cbb1461097f576103bf565b80638da5cb5b1461089d5780639291d563146108ce57806395d89b4114610901576103bf565b80634bebd1e7116102a05780637ae267731161023e578063818372301161021857806381837230146107f25780638980f11f1461081c5780638aff733d146108555780638b73e6061461086a576103bf565b80637ae267731461076f5780637d882097146107aa5780637ecebe00146107bf576103bf565b80635ea682ea1161027a5780635ea682ea146106fd57806370a0823114610712578063715018a614610745578063789139bc1461075a576103bf565b80634bebd1e7146106745780634e77ace5146106a75780634ebb7916146106d3576103bf565b80632e1a7d4d1161030d578063313ce567116102e7578063313ce567146105bc5780633bdc6e72146105e7578063483c2ef0146105fc5780634a970be71461062f576103bf565b80632e1a7d4d146105445780632f4f21e21461056e57806330adf81f146105a7576103bf565b80630f23475d116103495780630f23475d146104c257806318160ddd146104d757806320606b70146104ec57806323b872dd14610501576103bf565b806306fdde03146103c4578063076771111461044e578063095ea7b314610475576103bf565b366103bf576012546001600160a01b031633146103bd5760405162461bcd60e51b8152600401808060200182810382526025815260200180615a2b6025913960400191505060405180910390fd5b005b600080fd5b3480156103d057600080fd5b506103d9610ca5565b6040805160208082528351818301528351919283929083019185019080838360005b838110156104135781810151838201526020016103fb565b50505050905090810190601f1680156104405780820380516001836020036101000a031916815260200191505b509250505060405180910390f35b34801561045a57600080fd5b50610463610d33565b60408051918252519081900360200190f35b34801561048157600080fd5b506104ae6004803603604081101561049857600080fd5b506001600160a01b038135169060200135610d39565b604080519115158252519081900360200190f35b3480156104ce57600080fd5b50610463610d50565b3480156104e357600080fd5b50610463610d60565b3480156104f857600080fd5b50610463610d66565b34801561050d57600080fd5b506104ae6004803603606081101561052457600080fd5b506001600160a01b03813581169160208101359091169060400135610d8a565b34801561055057600080fd5b506103bd6004803603602081101561056757600080fd5b5035610e6e565b34801561057a57600080fd5b506103bd6004803603604081101561059157600080fd5b506001600160a01b038135169060200135610f49565b3480156105b357600080fd5b50610463610f57565b3480156105c857600080fd5b506105d1610f7b565b6040805160ff9092168252519081900360200190f35b3480156105f357600080fd5b50610463610f80565b34801561060857600080fd5b506104ae6004803603602081101561061f57600080fd5b50356001600160a01b0316610f86565b34801561063b57600080fd5b506103bd600480360360a081101561065257600080fd5b5080359060208101359060ff6040820135169060608101359060800135610f9b565b34801561068057600080fd5b506103bd6004803603602081101561069757600080fd5b50356001600160a01b0316611054565b3480156106b357600080fd5b506103bd600480360360208110156106ca57600080fd5b50351515611190565b3480156106df57600080fd5b506103bd600480360360208110156106f657600080fd5b503561124f565b34801561070957600080fd5b5061046361132b565b34801561071e57600080fd5b506104636004803603602081101561073557600080fd5b50356001600160a01b0316611331565b34801561075157600080fd5b506103bd611350565b34801561076657600080fd5b50610463611409565b34801561077b57600080fd5b506103bd6004803603604081101561079257600080fd5b506001600160a01b038135811691602001351661140f565b3480156107b657600080fd5b506104636114fe565b3480156107cb57600080fd5b50610463600480360360208110156107e257600080fd5b50356001600160a01b03166115ba565b3480156107fe57600080fd5b506103bd6004803603602081101561081557600080fd5b50356115cc565b34801561082857600080fd5b506103bd6004803603604081101561083f57600080fd5b506001600160a01b038135169060200135611670565b34801561086157600080fd5b506104636117c4565b34801561087657600080fd5b506103bd6004803603602081101561088d57600080fd5b50356001600160a01b03166117ca565b3480156108a957600080fd5b506108b2611931565b604080516001600160a01b039092168252519081900360200190f35b3480156108da57600080fd5b506103bd600480360360208110156108f157600080fd5b50356001600160a01b0316611940565b34801561090d57600080fd5b506103d9611a16565b34801561092257600080fd5b506103bd6004803603602081101561093957600080fd5b5035611a70565b34801561094c57600080fd5b50610463611b43565b34801561096157600080fd5b506103bd6004803603602081101561097857600080fd5b5035611b67565b34801561098b57600080fd5b506104ae600480360360408110156109a257600080fd5b506001600160a01b038135169060200135611c34565b3480156109c457600080fd5b506103bd600480360360408110156109db57600080fd5b50803590602001351515611c41565b3480156109f657600080fd5b506104ae612055565b348015610a0b57600080fd5b506103bd60048036036020811015610a2257600080fd5b503561205e565b348015610a3557600080fd5b5061046361206b565b348015610a4a57600080fd5b506104636120ac565b348015610a5f57600080fd5b506104636120b2565b348015610a7457600080fd5b506108b2612131565b348015610a8957600080fd5b506103bd60048036036020811015610aa057600080fd5b5035612140565b348015610ab357600080fd5b506103bd600480360360e0811015610aca57600080fd5b506001600160a01b03813581169160208101359091169060408101359060608101359060ff6080820135169060a08101359060c0013561220d565b348015610b1157600080fd5b506103bd60048036036060811015610b2857600080fd5b508035906020810135906040013561230d565b348015610b4757600080fd5b506108b26124a2565b348015610b5c57600080fd5b506104636124b1565b348015610b7157600080fd5b506103bd612587565b348015610b8657600080fd5b5061046360048036036040811015610b9d57600080fd5b506001600160a01b0381358116916020013516612636565b348015610bc157600080fd5b5061046360048036036020811015610bd857600080fd5b5035612661565b348015610beb57600080fd5b506103bd60048036036020811015610c0257600080fd5b503561269b565b348015610c1557600080fd5b5061046360048036036020811015610c2c57600080fd5b503561273f565b348015610c3f57600080fd5b50610463612770565b348015610c5457600080fd5b506103bd60048036036020811015610c6b57600080fd5b50356001600160a01b031661287d565b348015610c8757600080fd5b506108b261298d565b348015610c9c57600080fd5b506103bd61299c565b6000805460408051602060026001851615610100026000190190941693909304601f81018490048402820184019092528181529291830182828015610d2b5780601f10610d0057610100808354040283529160200191610d2b565b820191906000526020600020905b815481529060010190602001808311610d0e57829003601f168201915b505050505081565b60105481565b6000610d46338484612af1565b5060015b92915050565b6000610d5a6114fe565b90505b90565b60025481565b7f8b73c3c69bb8fe3d512ecc4cf759cc79239f7b179b0ffacaa9a75d522b39400f81565b6001600160a01b038316600081815260036020908152604080832033808552925282205491929091908214801590610dc457506000198114155b15610e55576000610df0856040518060600160405280602f8152602001615a50602f9139849190612c09565b6001600160a01b0380891660008181526003602090815260408083209489168084529482529182902085905581518581529151949550929391927f8c5be1e5ebec7d5bd14f71427d1e84f3dd0314c0f7b2291e5b200ac8c7c3b92592918290030190a3505b610e60868686612ca0565b6001925050505b9392505050565b6000610e8e600254610e8884610e82612dad565b906129fc565b90612a55565b905060008111610ee5576040805162461bcd60e51b815260206004820152601960248201527f42656e7169537472617465677956333a3a776974686472617700000000000000604482015290519081900360640190fd5b610eef3383612ebb565b610ef881612f90565b600954610f0f906001600160a01b0316338361304f565b60408051828152905133917f884edad9ce6fa2440d8a54cc123490eb96d2768479d49ff9c7366125a9424364919081900360200190a25050565b610f538282613112565b5050565b7f6e71edae12b1b97f4d1f60370fef10105fa2faae0126114a169c64845d6126c981565b601281565b60075481565b60086020526000908152604090205460ff1681565b600954604080517fd505accf000000000000000000000000000000000000000000000000000000008152336004820152306024820152604481018890526064810187905260ff8616608482015260a4810185905260c4810184905290516001600160a01b039092169163d505accf9160e48082019260009290919082900301818387803b15801561102b57600080fd5b505af115801561103f573d6000803e3d6000fd5b5050505061104d3386613112565b5050505050565b61105c613381565b6001600160a01b031661106d611931565b6001600160a01b0316146110b6576040805162461bcd60e51b815260206004820181905260248201526000805160206159b6833981519152604482015290519081900360640190fd5b6001600160a01b03811660009081526008602052604090205460ff1615611124576040805162461bcd60e51b815260206004820152601c60248201527f5065726d697373696f6e65643a3a616c6c6f774465706f7369746f7200000000604482015290519081900360640190fd5b6001600160a01b0381166000908152600860205260409020805460ff1916600190811790915560075461115691612a97565b6007556040516001600160a01b038216907fc0a1035c16faf8d1304056d92c00edf028f87e62b8235a938f00af9e3c0312c590600090a250565b611198613381565b6001600160a01b03166111a9611931565b6001600160a01b0316146111f2576040805162461bcd60e51b815260206004820181905260248201526000805160206159b6833981519152604482015290519081900360640190fd5b600e5460ff161515811515141561120857600080fd5b600e805482151560ff19909116811790915560408051918252517f7b014ed3854e7f5cb0218d58b3c6ae7d53a68bb0af2f67bfb029ea42c38a7e859181900360200190a150565b611257613381565b6001600160a01b0316611268611931565b6001600160a01b0316146112b1576040805162461bcd60e51b815260206004820181905260248201526000805160206159b6833981519152604482015290519081900360640190fd5b600081116112be57600080fd5b604051339082156108fc029083906000818181858888f193505050501580156112eb573d6000803e3d6000fd5b5060408051600081526020810183905281517f8c1256b8896378cd5044f80c202f9772b9d77dc85c8a6eb51967210b09bfaa28929181900390910190a150565b60115481565b6001600160a01b0381166000908152600460205260409020545b919050565b611358613381565b6001600160a01b0316611369611931565b6001600160a01b0316146113b2576040805162461bcd60e51b815260206004820181905260248201526000805160206159b6833981519152604482015290519081900360640190fd5b6006546040516000916001600160a01b0316907f8be0079c531659141344cd1fd0a4f28419497f9722a3daafe3b4186f6b6457e0908390a36006805473ffffffffffffffffffffffffffffffffffffffff19169055565b600d5481565b611417613381565b6001600160a01b0316611428611931565b6001600160a01b031614611471576040805162461bcd60e51b815260206004820181905260248201526000805160206159b6833981519152604482015290519081900360640190fd5b816001600160a01b031663095ea7b38260006040518363ffffffff1660e01b815260040180836001600160a01b0316815260200182815260200192505050602060405180830381600087803b1580156114c957600080fd5b505af11580156114dd573d6000803e3d6000fd5b505050506040513d60208110156114f357600080fd5b5051610f5357600080fd5b601354604080516361bfb47160e11b815230600482015290516000928392839283926001600160a01b03169163c37f68e2916024808301926080929190829003018186803b15801561154f57600080fd5b505afa158015611563573d6000803e3d6000fd5b505050506040513d608081101561157957600080fd5b506020810151604082015160609092015190945090925090506115b2826115ac670de0b6b3a7640000610e8887866129fc565b90613385565b935050505090565b60056020526000908152604090205481565b6115d4613381565b6001600160a01b03166115e5611931565b6001600160a01b03161461162e576040805162461bcd60e51b815260206004820181905260248201526000805160206159b6833981519152604482015290519081900360640190fd5b600c54604080519182526020820183905280517f481f79ac3a523b6d6db3c5a720e190e986d1cc1b41adcdf50f9caef8499011009281900390910190a1600c55565b611678613381565b6001600160a01b0316611689611931565b6001600160a01b0316146116d2576040805162461bcd60e51b815260206004820181905260248201526000805160206159b6833981519152604482015290519081900360640190fd5b600081116116df57600080fd5b604080517fa9059cbb0000000000000000000000000000000000000000000000000000000081523360048201526024810183905290516001600160a01b0384169163a9059cbb9160448083019260209291908290030181600087803b15801561174757600080fd5b505af115801561175b573d6000803e3d6000fd5b505050506040513d602081101561177157600080fd5b505161177c57600080fd5b604080516001600160a01b03841681526020810183905281517f8c1256b8896378cd5044f80c202f9772b9d77dc85c8a6eb51967210b09bfaa28929181900390910190a15050565b600f5481565b6117d2613381565b6001600160a01b03166117e3611931565b6001600160a01b03161461182c576040805162461bcd60e51b815260206004820181905260248201526000805160206159b6833981519152604482015290519081900360640190fd5b60006007541161186d5760405162461bcd60e51b81526004018080602001828103825260348152602001806158cb6034913960400191505060405180910390fd5b6001600160a01b03811660009081526008602052604090205460ff1615156001146118c95760405162461bcd60e51b815260040180806020018281038252602a815260200180615944602a913960400191505060405180910390fd5b6001600160a01b0381166000908152600860205260409020805460ff191690556007546118f7906001613385565b6007556040516001600160a01b038216907f0e86f6608b536e5339a25b65ff531f5ea91e1313d056ecd4752b35cbd16137d490600090a250565b6006546001600160a01b031690565b600b546001600160a01b0316331461199f576040805162461bcd60e51b815260206004820152601460248201527f59616b53747261746567793a3a6f6e6c79446576000000000000000000000000604482015290519081900360640190fd5b600b54604080516001600160a01b039283168152918316602083015280517fa8e91499ed37682f43cffb045fcc7d379a91e8c9a14e6321877ee34dee564c009281900390910190a1600b805473ffffffffffffffffffffffffffffffffffffffff19166001600160a01b0392909216919091179055565b60018054604080516020600284861615610100026000190190941693909304601f81018490048402820184019092528181529291830182828015610d2b5780601f10610d0057610100808354040283529160200191610d2b565b611a78613381565b6001600160a01b0316611a89611931565b6001600160a01b031614611ad2576040805162461bcd60e51b815260206004820181905260248201526000805160206159b6833981519152604482015290519081900360640190fd5b612710611af6600f54611af060105485612a9790919063ffffffff16565b90612a97565b1115611b0157600080fd5b601154604080519182526020820183905280517f2a42303d002f0ba6cfe8259c91d4684443fb0b3de286ba74991175d6517261319281900390910190a1601155565b7fc89efdaa54c0f20c7adf612882df0950f5a951637e0307cdcb4c672f298b8bc681565b611b6f613381565b6001600160a01b0316611b80611931565b6001600160a01b031614611bc9576040805162461bcd60e51b815260206004820181905260248201526000805160206159b6833981519152604482015290519081900360640190fd5b612710611be7601154611af060105485612a9790919063ffffffff16565b1115611bf257600080fd5b600f54604080519182526020820183905280517fe7f97d51d307dc44045597c9978bec0f842e6bb40d19b9444084cfa30d9ed4f29281900390910190a1600f55565b6000610d46338484612ca0565b611c49613381565b6001600160a01b0316611c5a611931565b6001600160a01b031614611ca3576040805162461bcd60e51b815260206004820181905260248201526000805160206159b6833981519152604482015290519081900360640190fd5b600954604080516370a0823160e01b815230600482015290516000926001600160a01b0316916370a08231916024808301926020929190829003018186803b158015611cee57600080fd5b505afa158015611d02573d6000803e3d6000fd5b505050506040513d6020811015611d1857600080fd5b5051601354604080516305eff7ef60e21b815230600482015290519293506000926001600160a01b03909216916317bfdfbc9160248082019260209290919082900301818787803b158015611d6c57600080fd5b505af1158015611d80573d6000803e3d6000fd5b505050506040513d6020811015611d9657600080fd5b505160135460408051633af9e66960e01b815230600482015290519293506000926001600160a01b0390921691633af9e6699160248082019260209290919082900301818787803b158015611dea57600080fd5b505af1158015611dfe573d6000803e3d6000fd5b505050506040513d6020811015611e1457600080fd5b50519050611e2a611e258284613385565b6133c7565b60135460408051633af9e66960e01b815230600482015290516001600160a01b039092169163852a12e3918391633af9e669916024808201926020929091908290030181600087803b158015611e7f57600080fd5b505af1158015611e93573d6000803e3d6000fd5b505050506040513d6020811015611ea957600080fd5b5051604080517fffffffff0000000000000000000000000000000000000000000000000000000060e085901b16815260048101929092525160248083019260209291908290030181600087803b158015611f0257600080fd5b505af1158015611f16573d6000803e3d6000fd5b505050506040513d6020811015611f2c57600080fd5b5050600954604080516370a0823160e01b815230600482015290516000926001600160a01b0316916370a08231916024808301926020929190829003018186803b158015611f7957600080fd5b505afa158015611f8d573d6000803e3d6000fd5b505050506040513d6020811015611fa357600080fd5b5051905085611fb28286613385565b1015611fef5760405162461bcd60e51b81526004018080602001828103825260248152602001806158536024913960400191505060405180910390fd5b7fc7606d21ac05cd309191543e409f0845c016120563783d70e4f41419dc0ef2346120186114fe565b6002546040805192835260208301919091528051918290030190a1600e5460ff1615156001141561204d5761204d6000611190565b505050505050565b600e5460ff1681565b6120683382613112565b50565b6000806120766120b2565b9050600c5481106120a45761209c612710610e88600f54846129fc90919063ffffffff16565b915050610d5d565b600091505090565b600c5481565b60125460135460009182916120d5916001600160a01b03908116911683306138e6565b6012546013549192506000916120fa916001600160a01b0390811691166001306138e6565b6014546015546016549293506000926121259286926001600160a01b039182169290821691166139a0565b90506115b28282612a97565b6009546001600160a01b031681565b612148613381565b6001600160a01b0316612159611931565b6001600160a01b0316146121a2576040805162461bcd60e51b815260206004820181905260248201526000805160206159b6833981519152604482015290519081900360640190fd5b6127106121c0600f54611af060115485612a9790919063ffffffff16565b11156121cb57600080fd5b601054604080519182526020820183905280517f3cc372f330f95ac9540626dc8a25f5bf21ba607215a5d58304cb804d446f104a9281900390910190a1601055565b42841015612262576040805162461bcd60e51b815260206004820152600f60248201527f7065726d69743a3a657870697265640000000000000000000000000000000000604482015290519081900360640190fd5b6001600160a01b0380881660008181526005602090815260409182902080546001810190915582517f6e71edae12b1b97f4d1f60370fef10105fa2faae0126114a169c64845d6126c98184015280840194909452938a1660608401526080830189905260a083019390935260c08083018890528151808403909101815260e0909201905280519101206122f88882868686613a70565b612303888888612af1565b5050505050505050565b600b546001600160a01b0316331461236c576040805162461bcd60e51b815260206004820152601460248201527f59616b53747261746567793a3a6f6e6c79446576000000000000000000000000604482015290519081900360640190fd5b612377838383613ba8565b601354604080516305eff7ef60e21b815230600482015290516000926001600160a01b0316916317bfdfbc91602480830192602092919082900301818787803b1580156123c357600080fd5b505af11580156123d7573d6000803e3d6000fd5b505050506040513d60208110156123ed57600080fd5b505160135460408051633af9e66960e01b815230600482015290519293506000926001600160a01b0390921691633af9e6699160248082019260209290919082900301818787803b15801561244157600080fd5b505af1158015612455573d6000803e3d6000fd5b505050506040513d602081101561246b57600080fd5b5051905061247c611e258284613385565b60006124888284613385565b111561104d5761104d61249b8284613385565b6000613bb6565b600b546001600160a01b031681565b601354604080516361bfb47160e11b815230600482015290516000928392839283926001600160a01b03169163c37f68e2916024808301926080929190829003018186803b15801561250257600080fd5b505afa158015612516573d6000803e3d6000fd5b505050506040513d608081101561252c57600080fd5b50602081015160408201516060909201519094509092509050600061255d670de0b6b3a7640000610e8886856129fc565b905061257e61256c8285613385565b610e8883670de0b6b3a76400006129fc565b94505050505090565b61258f613381565b6001600160a01b03166125a0611931565b6001600160a01b0316146125e9576040805162461bcd60e51b815260206004820181905260248201526000805160206159b6833981519152604482015290519081900360640190fd5b6040805162461bcd60e51b815260206004820152601960248201527f736574416c6c6f77616e6365733a3a6465707265636174656400000000000000604482015290519081900360640190fd5b6001600160a01b03918216600090815260036020908152604080832093909416825291909152205490565b600061267761266e6114fe565b600254906129fc565b61268257508061134b565b610d4a61268d6114fe565b600254610e889085906129fc565b6126a3613381565b6001600160a01b03166126b4611931565b6001600160a01b0316146126fd576040805162461bcd60e51b815260206004820181905260248201526000805160206159b6833981519152604482015290519081900360640190fd5b600d54604080519182526020820183905280517fa5dae50539d56dfe1fb5273d883b0c39bc76750a25d036fc5fbd09ad8fd5f57f9281900390910190a1600d55565b600061274c61266e6114fe565b6127585750600061134b565b610d4a600254610e886127696114fe565b85906129fc565b60007f8b73c3c69bb8fe3d512ecc4cf759cc79239f7b179b0ffacaa9a75d522b39400f60001b600060405180828054600181600116156101000203166002900480156127f35780601f106127d15761010080835404028352918201916127f3565b820191906000526020600020905b8154815290600101906020018083116127df575b505091505060405180910390207fc89efdaa54c0f20c7adf612882df0950f5a951637e0307cdcb4c672f298b8bc660001b61282c613ee4565b3060405160200180868152602001858152602001848152602001838152602001826001600160a01b031681526020019550505050505060405160208183030381529060405280519060200120905090565b612885613381565b6001600160a01b0316612896611931565b6001600160a01b0316146128df576040805162461bcd60e51b815260206004820181905260248201526000805160206159b6833981519152604482015290519081900360640190fd5b6001600160a01b0381166129245760405162461bcd60e51b81526004018080602001828103825260268152602001806158776026913960400191505060405180910390fd5b6006546040516001600160a01b038084169216907f8be0079c531659141344cd1fd0a4f28419497f9722a3daafe3b4186f6b6457e090600090a36006805473ffffffffffffffffffffffffffffffffffffffff19166001600160a01b0392909216919091179055565b600a546001600160a01b031681565b3233146129f0576040805162461bcd60e51b815260206004820152601460248201527f59616b53747261746567793a3a6f6e6c79454f41000000000000000000000000604482015290519081900360640190fd5b6129fa6000613ee8565b565b600082612a0b57506000610d4a565b82820282848281612a1857fe5b0414610e675760405162461bcd60e51b81526004018080602001828103825260218152602001806159956021913960400191505060405180910390fd5b6000610e6783836040518060400160405280601a81526020017f536166654d6174683a206469766973696f6e206279207a65726f000000000000815250614397565b600082820183811015610e67576040805162461bcd60e51b815260206004820152601b60248201527f536166654d6174683a206164646974696f6e206f766572666c6f770000000000604482015290519081900360640190fd5b6001600160a01b038316612b4c576040805162461bcd60e51b815260206004820152601c60248201527f5f617070726f76653a3a6f776e6572207a65726f206164647265737300000000604482015290519081900360640190fd5b6001600160a01b038216612ba7576040805162461bcd60e51b815260206004820152601e60248201527f5f617070726f76653a3a7370656e646572207a65726f20616464726573730000604482015290519081900360640190fd5b6001600160a01b03808416600081815260036020908152604080832094871680845294825291829020859055815185815291517f8c5be1e5ebec7d5bd14f71427d1e84f3dd0314c0f7b2291e5b200ac8c7c3b9259281900390910190a3505050565b60008184841115612c985760405162461bcd60e51b81526004018080602001828103825283818151815260200191508051906020019080838360005b83811015612c5d578181015183820152602001612c45565b50505050905090810190601f168015612c8a5780820380516001836020036101000a031916815260200191505b509250505060405180910390fd5b505050900390565b6001600160a01b038216612ce55760405162461bcd60e51b81526004018080602001828103825260348152602001806159d66034913960400191505060405180910390fd5b612d22816040518060600160405280602e8152602001615b16602e91396001600160a01b0386166000908152600460205260409020549190612c09565b6001600160a01b038085166000908152600460205260408082209390935590841681522054612d519082612a97565b6001600160a01b0380841660008181526004602090815260409182902094909455805185815290519193928716927fddf252ad1be2c89b69c2b068fc378daa952ba7f163c4a11628f55a4df523b3ef92918290030190a3505050565b601354604080516305eff7ef60e21b8152306004820152905160009283926001600160a01b03909116916317bfdfbc9160248082019260209290919082900301818787803b158015612dfe57600080fd5b505af1158015612e12573d6000803e3d6000fd5b505050506040513d6020811015612e2857600080fd5b505160135460408051633af9e66960e01b815230600482015290519293506000926001600160a01b0390921691633af9e6699160248082019260209290919082900301818787803b158015612e7c57600080fd5b505af1158015612e90573d6000803e3d6000fd5b505050506040513d6020811015612ea657600080fd5b50519050612eb48183613385565b9250505090565b612ef881604051806060016040528060278152602001615a7f602791396001600160a01b0385166000908152600460205260409020549190612c09565b60046000846001600160a01b03166001600160a01b0316815260200190815260200160002081905550612f488160405180606001604052806027815260200161596e602791396002549190612c09565b6002556040805182815290516000916001600160a01b038516917fddf252ad1be2c89b69c2b068fc378daa952ba7f163c4a11628f55a4df523b3ef9181900360200190a35050565b612f99816133c7565b6013546040805163852a12e360e01b81526004810184905290516001600160a01b039092169163852a12e3916024808201926020929091908290030181600087803b158015612fe757600080fd5b505af1158015612ffb573d6000803e3d6000fd5b505050506040513d602081101561301157600080fd5b5051156120685760405162461bcd60e51b8152600401808060200182810382526021815260200180615a0a6021913960400191505060405180910390fd5b826001600160a01b031663a9059cbb83836040518363ffffffff1660e01b815260040180836001600160a01b0316815260200182815260200192505050602060405180830381600087803b1580156130a657600080fd5b505af11580156130ba573d6000803e3d6000fd5b505050506040513d60208110156130d057600080fd5b505161310d5760405162461bcd60e51b8152600401808060200182810382526025815260200180615aa66025913960400191505060405180910390fd5b505050565b6007541561316d573360009081526008602052604090205460ff16151560011461316d5760405162461bcd60e51b815260040180806020018281038252602e81526020018061589d602e913960400191505060405180910390fd5b600e5460ff1615156001146131c9576040805162461bcd60e51b815260206004820152601960248201527f42656e7169537472617465677956333a3a5f6465706f73697400000000000000604482015290519081900360640190fd5b600d54156131f35760006131db6120b2565b9050600d548111156131f1576131f16001613ee8565b505b600954604080517f23b872dd0000000000000000000000000000000000000000000000000000000081523360048201523060248201526044810184905290516001600160a01b03909216916323b872dd916064808201926020929091908290030181600087803b15801561326657600080fd5b505af115801561327a573d6000803e3d6000fd5b505050506040513d602081101561329057600080fd5b50516132e3576040805162461bcd60e51b815260206004820181905260248201527f42656e7169537472617465677956333a3a7472616e73666572206661696c6564604482015290519081900360640190fd5b8060006132ee612dad565b90506000613307826002546129fc90919063ffffffff16565b11156133295761332681610e88600254866129fc90919063ffffffff16565b91505b61333384836143fc565b61333c83614487565b6040805184815290516001600160a01b038616917fe1fffcc4923d04b559f4d29a8bfc6cda04eb5b0d3c460751c2402c5c5cc9109c919081900360200190a250505050565b3390565b6000610e6783836040518060400160405280601f81526020017f536166654d6174683a207375627472616374696f6e20756e646572666c6f7700815250612c09565b601354604080516305eff7ef60e21b815230600482015290516000926001600160a01b0316916317bfdfbc91602480830192602092919082900301818787803b15801561341357600080fd5b505af1158015613427573d6000803e3d6000fd5b505050506040513d602081101561343d57600080fd5b505160135460408051633af9e66960e01b815230600482015290519293506000926001600160a01b0390921691633af9e6699160248082019260209290919082900301818787803b15801561349157600080fd5b505af11580156134a5573d6000803e3d6000fd5b505050506040513d60208110156134bb57600080fd5b5051905060006134f56134d2856115ac8587613385565b6115ac601954610e88601854610e828a6115ac8b8b61338590919063ffffffff16565b905060006135038483613385565b90506000806135106147a0565b6009546013546040805163095ea7b360e01b81526001600160a01b039283166004820152602481018c90529051949650929450169163095ea7b3916044808201926020929091908290030181600087803b15801561356d57600080fd5b505af1158015613581573d6000803e3d6000fd5b505050506040513d602081101561359757600080fd5b50505b82156138565760006135ae8688858561484a565b9050838111156135bb5750825b6013546040805163852a12e360e01b81526004810184905290516001600160a01b039092169163852a12e3916024808201926020929091908290030181600087803b15801561360957600080fd5b505af115801561361d573d6000803e3d6000fd5b505050506040513d602081101561363357600080fd5b5051156136715760405162461bcd60e51b8152600401808060200182810382526021815260200180615a0a6021913960400191505060405180910390fd5b601354604080517f0e7527020000000000000000000000000000000000000000000000000000000081526004810184905290516001600160a01b0390921691630e752702916024808201926020929091908290030181600087803b1580156136d857600080fd5b505af11580156136ec573d6000803e3d6000fd5b505050506040513d602081101561370257600080fd5b5051156137405760405162461bcd60e51b8152600401808060200182810382526027815260200180615aef6027913960400191505060405180910390fd5b60135460408051633af9e66960e01b815230600482015290516001600160a01b0390921691633af9e669916024808201926020929091908290030181600087803b15801561378d57600080fd5b505af11580156137a1573d6000803e3d6000fd5b505050506040513d60208110156137b757600080fd5b5051601354604080516305eff7ef60e21b815230600482015290519298506001600160a01b03909116916317bfdfbc916024808201926020929091908290030181600087803b15801561380957600080fd5b505af115801561381d573d6000803e3d6000fd5b505050506040513d602081101561383357600080fd5b505196508685106138445750613856565b61384e8786613385565b93505061359a565b6009546013546040805163095ea7b360e01b81526001600160a01b0392831660048201526000602482018190529151929093169263095ea7b39260448083019360209383900390910190829087803b1580156138b157600080fd5b505af11580156138c5573d6000803e3d6000fd5b505050506040513d60208110156138db57600080fd5b505050505050505050565b600080856001600160a01b03166305b9783d85856040518363ffffffff1660e01b8152600401808360ff168152602001826001600160a01b031681526020019250505060206040518083038186803b15801561394157600080fd5b505afa158015613955573d6000803e3d6000fd5b505050506040513d602081101561396b57600080fd5b5051905061399461397e87878787614882565b611af061398d89898989614aa9565b8490612a97565b9150505b949350505050565b6000806139ad8585614c63565b509050600080846001600160a01b0316630902f1ac6040518163ffffffff1660e01b815260040160606040518083038186803b1580156139ec57600080fd5b505afa158015613a00573d6000803e3d6000fd5b505050506040513d6060811015613a1657600080fd5b50805160209091015190925090506001600160a01b0383811690881614613a3957905b613a6488836dffffffffffffffffffffffffffff16836dffffffffffffffffffffffffffff16614c94565b98975050505050505050565b6000613a7a612770565b8560405160200180807f190100000000000000000000000000000000000000000000000000000000000081525060020183815260200182815260200192505050604051602081830303815290604052805190602001209050600060018286868660405160008152602001604052604051808581526020018460ff1681526020018381526020018281526020019450505050506020604051602081039080840390855afa158015613b2e573d6000803e3d6000fd5b5050604051601f1901519150506001600160a01b03811615801590613b645750866001600160a01b0316816001600160a01b0316145b613b9f5760405162461bcd60e51b81526004018080602001828103825260248152602001806158ff6024913960400191505060405180910390fd5b50505050505050565b601892909255601955601b55565b600080613bc16147a0565b9150915060008490506000613beb601954610e88601854610e82898b61338590919063ffffffff16565b6009546013546040805163095ea7b360e01b81526001600160a01b0392831660048201526024810185905290519394508893919092169163095ea7b39160448083019260209291908290030181600087803b158015613c4957600080fd5b505af1158015613c5d573d6000803e3d6000fd5b505050506040513d6020811015613c7357600080fd5b50505b81831015613856576000613c8c84838888614cdc565b905082613c998583612a97565b1115613cac57613ca98385613385565b90505b601a54811015613cbc5750613856565b601354604080517fc5ebeaec0000000000000000000000000000000000000000000000000000000081526004810184905290516001600160a01b039092169163c5ebeaec916024808201926020929091908290030181600087803b158015613d2357600080fd5b505af1158015613d37573d6000803e3d6000fd5b505050506040513d6020811015613d4d57600080fd5b505115613d8b5760405162461bcd60e51b81526004018080602001828103825260218152602001806159236021913960400191505060405180910390fd5b6013546040805163140e25ad60e31b81526004810184905290516001600160a01b039092169163a0712d68916024808201926020929091908290030181600087803b158015613dd957600080fd5b505af1158015613ded573d6000803e3d6000fd5b505050506040513d6020811015613e0357600080fd5b505115613e57576040805162461bcd60e51b815260206004820152601f60248201527f42656e7169537472617465677956333a3a6c656e64696e67206661696c656400604482015290519081900360640190fd5b60135460408051633af9e66960e01b815230600482015290516001600160a01b0390921691633af9e669916024808201926020929091908290030181600087803b158015613ea457600080fd5b505af1158015613eb8573d6000803e3d6000fd5b505050506040513d6020811015613ece57600080fd5b50519350613edc8282612a97565b915050613c76565b4690565b60408051600180825281830190925260609160208083019080368337505060135482519293506001600160a01b031691839150600090613f2457fe5b6001600160a01b03928316602091820292909201810191909152601254604051633a22995760e11b81526000600482018181523060248401819052606060448501908152885160648601528851959097169663744532ae96939591948994919260849091019185810191028083838a5b83811015613fac578181015183820152602001613f94565b50505050905001945050505050600060405180830381600087803b158015613fd357600080fd5b505af1158015613fe7573d6000803e3d6000fd5b5050601254604051633a22995760e11b815260016004820181815230602484018190526060604485019081528851606486015288516001600160a01b03909616975063744532ae9650929490938893916084909101906020808601910280838360005b8381101561406257818101518382015260200161404a565b50505050905001945050505050600060405180830381600087803b15801561408957600080fd5b505af115801561409d573d6000803e3d6000fd5b5047925050811590506141135773b31f66aa3c1e785363f0875a1b74e27b85fd66c76001600160a01b031663d0e30db0826040518263ffffffff1660e01b81526004016000604051808303818588803b1580156140f957600080fd5b505af115801561410d573d6000803e3d6000fd5b50505050505b601454604080516370a0823160e01b815230600482015290516000926001600160a01b0316916370a08231916024808301926020929190829003018186803b15801561415e57600080fd5b505afa158015614172573d6000803e3d6000fd5b505050506040513d602081101561418857600080fd5b5051905080156141b9576014546015546016546141b79284926001600160a01b03918216929082169116614cf0565b505b600a54604080516370a0823160e01b815230600482015290516000926001600160a01b0316916370a08231916024808301926020929190829003018186803b15801561420457600080fd5b505afa158015614218573d6000803e3d6000fd5b505050506040513d602081101561422e57600080fd5b505190508461428e57600c5481101561428e576040805162461bcd60e51b815260206004820152601960248201527f42656e7169537472617465677956333a3a7265696e7665737400000000000000604482015290519081900360640190fd5b60006142ab612710610e88601154856129fc90919063ffffffff16565b905080156142d057600a54600b546142d0916001600160a01b0390811691168361304f565b60006142ed612710610e88600f54866129fc90919063ffffffff16565b9050801561430c57600a5461430c906001600160a01b0316338361304f565b600061433e61431f836115ac8787613385565b600a546009546017546001600160a01b03928316929182169116614cf0565b905061434981614487565b7fc7606d21ac05cd309191543e409f0845c016120563783d70e4f41419dc0ef2346143726114fe565b6002546040805192835260208301919091528051918290030190a15050505050505050565b600081836143e65760405162461bcd60e51b8152602060048201818152835160248401528351909283926044909101919085019080838360008315612c5d578181015183820152602001612c45565b5060008385816143f257fe5b0495945050505050565b6002546144099082612a97565b6002556001600160a01b03821660009081526004602052604090205461442f9082612a97565b6001600160a01b03831660008181526004602090815260408083209490945583518581529351929391927fddf252ad1be2c89b69c2b068fc378daa952ba7f163c4a11628f55a4df523b3ef9281900390910190a35050565b600081116144c65760405162461bcd60e51b8152600401808060200182810382526024815260200180615acb6024913960400191505060405180910390fd5b6009546013546040805163095ea7b360e01b81526001600160a01b039283166004820152602481018590529051919092169163095ea7b39160448083019260209291908290030181600087803b15801561451f57600080fd5b505af1158015614533573d6000803e3d6000fd5b505050506040513d602081101561454957600080fd5b50506013546040805163140e25ad60e31b81526004810184905290516001600160a01b039092169163a0712d68916024808201926020929091908290030181600087803b15801561459957600080fd5b505af11580156145ad573d6000803e3d6000fd5b505050506040513d60208110156145c357600080fd5b505115614617576040805162461bcd60e51b815260206004820152601f60248201527f42656e7169537472617465677956333a3a4465706f736974206661696c656400604482015290519081900360640190fd5b6009546013546040805163095ea7b360e01b81526001600160a01b0392831660048201526000602482018190529151929093169263095ea7b39260448083019360209383900390910190829087803b15801561467257600080fd5b505af1158015614686573d6000803e3d6000fd5b505050506040513d602081101561469c57600080fd5b5050601354604080516305eff7ef60e21b815230600482015290516000926001600160a01b0316916317bfdfbc91602480830192602092919082900301818787803b1580156146ea57600080fd5b505af11580156146fe573d6000803e3d6000fd5b505050506040513d602081101561471457600080fd5b505160135460408051633af9e66960e01b815230600482015290519293506000926001600160a01b0390921691633af9e6699160248082019260209290919082900301818787803b15801561476857600080fd5b505af115801561477c573d6000803e3d6000fd5b505050506040513d602081101561479257600080fd5b5051905061310d8183613bb6565b601254601354604080517f8e8f294b0000000000000000000000000000000000000000000000000000000081526001600160a01b039283166004820152815160009485948594911692638e8f294b9260248083019392829003018186803b15801561480a57600080fd5b505afa15801561481e573d6000803e3d6000fd5b505050506040513d604081101561483457600080fd5b506020015193670de0b6b3a76400009350915050565b6000614879601954610e88601b54610e8261487288610e88898c6129fc90919063ffffffff16565b8a90613385565b95945050505050565b600061488c61583f565b6040805160208082018084527f7937969d00000000000000000000000000000000000000000000000000000000905260ff871660248301526001600160a01b0388811660448401528681166064840152925191928392908a1691637937969d916084808601929190818703018186803b15801561490857600080fd5b505afa15801561491c573d6000803e3d6000fd5b505050506040513d602081101561493257600080fd5b5051905280516000935090915015614aa05761494c61583f565b6040518060200160405280876001600160a01b031663aa5af0fd6040518163ffffffff1660e01b815260040160206040518083038186803b15801561499057600080fd5b505afa1580156149a4573d6000803e3d6000fd5b505050506040513d60208110156149ba57600080fd5b5051905290506149c861583f565b60405180602001604052806149df8a8a8a87614efd565b6001600160e01b03169052805190915015614a9d576149fc61583f565b614a068285615179565b90506000614a8c896001600160a01b03166395dd9193306040518263ffffffff1660e01b815260040180826001600160a01b0316815260200191505060206040518083038186803b158015614a5a57600080fd5b505afa158015614a6e573d6000803e3d6000fd5b505050506040513d6020811015614a8457600080fd5b5051856151a7565b9050614a9881836151c5565b955050505b50505b50949350505050565b6000614ab361583f565b6040518060200160405280614ac98888886151f4565b6001600160e01b031690529050614ade61583f565b6040805160208082018084527f88e972b800000000000000000000000000000000000000000000000000000000905260ff881660248301526001600160a01b0389811660448401528781166064840152925191928392908b16916388e972b8916084808601929190818703018186803b158015614b5a57600080fd5b505afa158015614b6e573d6000803e3d6000fd5b505050506040513d6020811015614b8457600080fd5b505190528051909150158015614b9a5750815115155b15614bb2576ec097ce7bc90715b34b9f100000000081525b614bba61583f565b8251614bd55760405180602001604052806000815250614bdf565b614bdf8383615179565b9050613a64876001600160a01b03166370a08231876040518263ffffffff1660e01b815260040180826001600160a01b0316815260200191505060206040518083038186803b158015614c3157600080fd5b505afa158015614c45573d6000803e3d6000fd5b505050506040513d6020811015614c5b57600080fd5b5051826151c5565b600080826001600160a01b0316846001600160a01b031610614c86578284614c89565b83835b915091509250929050565b600080614ca3856103e56129fc565b90506000614cb182856129fc565b90506000614cc583611af0886103e86129fc565b9050614cd18282612a55565b979650505050505050565b6000614879846115ac84610e8889886129fc565b600080614cfd8585614c63565b509050600080846001600160a01b0316630902f1ac6040518163ffffffff1660e01b815260040160606040518083038186803b158015614d3c57600080fd5b505afa158015614d50573d6000803e3d6000fd5b505050506040513d6060811015614d6657600080fd5b50805160209091015190925090506001600160a01b0383811690881614614d8957905b600080614db78a856dffffffffffffffffffffffffffff16856dffffffffffffffffffffffffffff16614c94565b9050886001600160a01b0316856001600160a01b031614614dd457905b614ddf89888c615466565b60408051600080825260208201928390527f022c0d9f00000000000000000000000000000000000000000000000000000000835260248201858152604483018590523060648401819052608060848501908152845160a486018190526001600160a01b038e169663022c0d9f968a968a9691949193919260c486019290918190849084905b83811015614e7c578181015183820152602001614e64565b50505050905090810190601f168015614ea95780820380516001836020036101000a031916815260200191505b5095505050505050600060405180830381600087803b158015614ecb57600080fd5b505af1158015614edf573d6000803e3d6000fd5b50505050818111614ef05781614a98565b9998505050505050505050565b6000806000866001600160a01b0316634b3a0a7486886040518363ffffffff1660e01b8152600401808360ff168152602001826001600160a01b0316815260200192505050604080518083038186803b158015614f5957600080fd5b505afa158015614f6d573d6000803e3d6000fd5b505050506040513d6040811015614f8357600080fd5b50805160209182015160408051630adf8d0d60e21b815260ff8a1660048201526001600160a01b038b81166024830152915193965063ffffffff9092169450600093908b1692632b7e3434926044808201939291829003018186803b158015614feb57600080fd5b505afa158015614fff573d6000803e3d6000fd5b505050506040513d602081101561501557600080fd5b505190506000615025428461553a565b90506000811180156150375750600082115b1561516a5760006150ac896001600160a01b03166347bd37186040518163ffffffff1660e01b815260040160206040518083038186803b15801561507a57600080fd5b505afa15801561508e573d6000803e3d6000fd5b505050506040513d60208110156150a457600080fd5b5051886151a7565b905060006150ba838561557c565b90506150c461583f565b600083116150e157604051806020016040528060008152506150eb565b6150eb82846155be565b90506150f561583f565b61511660405180602001604052808a6001600160e01b0316815250836155f3565b905061515b81600001516040518060400160405280601a81526020017f6e657720696e6465782065786365656473203232342062697473000000000000815250615618565b98505050505050505050613998565b50600098975050505050505050565b61518161583f565b604051806020016040528061519e8560000151856000015161553a565b90529392505050565b6000610e676151be84670de0b6b3a764000061557c565b835161568e565b60006ec097ce7bc90715b34b9f10000000006151e584846000015161557c565b816151ec57fe5b049392505050565b6000806000856001600160a01b031663d81c5e4585876040518363ffffffff1660e01b8152600401808360ff168152602001826001600160a01b0316815260200192505050604080518083038186803b15801561525057600080fd5b505afa158015615264573d6000803e3d6000fd5b505050506040513d604081101561527a57600080fd5b50805160209182015160408051630adf8d0d60e21b815260ff891660048201526001600160a01b038a81166024830152915193965063ffffffff9092169450600093908a1692632b7e3434926044808201939291829003018186803b1580156152e257600080fd5b505afa1580156152f6573d6000803e3d6000fd5b505050506040513d602081101561530c57600080fd5b50519050600061531c428461553a565b905060008111801561532e5750600082115b15615458576000876001600160a01b03166318160ddd6040518163ffffffff1660e01b815260040160206040518083038186803b15801561536e57600080fd5b505afa158015615382573d6000803e3d6000fd5b505050506040513d602081101561539857600080fd5b5051905060006153a8838561557c565b90506153b261583f565b600083116153cf57604051806020016040528060008152506153d9565b6153d982846155be565b90506153e361583f565b61540460405180602001604052808a6001600160e01b0316815250836155f3565b905061544981600001516040518060400160405280601a81526020017f6e657720696e6465782065786365656473203232342062697473000000000000815250615618565b98505050505050505050610e67565b506000979650505050505050565b826001600160a01b031663a9059cbb83836040518363ffffffff1660e01b815260040180836001600160a01b0316815260200182815260200192505050602060405180830381600087803b1580156154bd57600080fd5b505af11580156154d1573d6000803e3d6000fd5b505050506040513d60208110156154e757600080fd5b505161310d576040805162461bcd60e51b815260206004820181905260248201527f4465784c6962726172793a3a5452414e534645525f46524f4d5f4641494c4544604482015290519081900360640190fd5b6000610e6783836040518060400160405280601581526020017f7375627472616374696f6e20756e646572666c6f770000000000000000000000815250612c09565b6000610e6783836040518060400160405280601781526020017f6d756c7469706c69636174696f6e206f766572666c6f770000000000000000008152506156d0565b6155c661583f565b604051806020016040528061519e6155ed866ec097ce7bc90715b34b9f100000000061557c565b8561568e565b6155fb61583f565b604051806020016040528061519e85600001518560000151615746565b6000817c010000000000000000000000000000000000000000000000000000000084106156865760405162461bcd60e51b8152602060048201818152835160248401528351909283926044909101919085019080838360008315612c5d578181015183820152602001612c45565b509192915050565b6000610e6783836040518060400160405280600e81526020017f646976696465206279207a65726f000000000000000000000000000000000000815250615788565b60008315806156dd575082155b156156ea57506000610e67565b838302838582816156f757fe5b04148390614aa05760405162461bcd60e51b8152602060048201818152835160248401528351909283926044909101919085019080838360008315612c5d578181015183820152602001612c45565b6000610e6783836040518060400160405280601181526020017f6164646974696f6e206f766572666c6f770000000000000000000000000000008152506157ea565b600081836157d75760405162461bcd60e51b8152602060048201818152835160248401528351909283926044909101919085019080838360008315612c5d578181015183820152602001612c45565b508284816157e157fe5b04949350505050565b60008383018285821015614aa05760405162461bcd60e51b8152602060048201818152835160248401528351909283926044909101919085019080838360008315612c5d578181015183820152602001612c45565b604051806020016040528060008152509056fe42656e7169537472617465677956333a3a7265736375654465706c6f79656446756e64734f776e61626c653a206e6577206f776e657220697320746865207a65726f20616464726573735065726d697373696f6e65643a3a6f6e6c79416c6c6f7765644465706f736974732c206e6f7420616c6c6f7765645065726d697373696f6e65643a3a72656d6f76654465706f7369746f722c206e6f20616c6c6f776564206465706f7369746f7273417263683a3a76616c69646174655369673a20696e76616c6964207369676e617475726542656e7169537472617465677956333a3a626f72726f77696e67206661696c65645065726d697373696f6e65643a3a72656d6f76654465706f7369746f722c206e6f7420616c6c6f7765645f6275726e3a206275726e20616d6f756e74206578636565647320746f74616c20737570706c79536166654d6174683a206d756c7469706c69636174696f6e206f766572666c6f774f776e61626c653a2063616c6c6572206973206e6f7420746865206f776e65725f7472616e73666572546f6b656e733a2063616e6e6f74207472616e7366657220746f20746865207a65726f206164647265737342656e7169537472617465677956333a3a6661696c656420746f2072656465656d42656e7169537472617465677956333a3a7061796d656e7473206e6f7420616c6c6f7765647472616e7366657246726f6d3a207472616e7366657220616d6f756e74206578636565647320616c6c6f77616e63655f6275726e3a206275726e20616d6f756e7420657863656564732066726f6d2062616c616e636542656e7169537472617465677956333a3a5452414e534645525f46524f4d5f4641494c454442656e7169537472617465677956333a3a5f7374616b654465706f736974546f6b656e7342656e7169537472617465677956333a3a6661696c656420746f20726570617920626f72726f775f7472616e73666572546f6b656e733a207472616e7366657220657863656564732066726f6d2062616c616e6365a264697066735822122001a8796384597d0a9d985657cedbc29d9c471cad1a48fb517517734cb4c72ced64736f6c63430007030033537761702070616972203120646f6573206e6f74206d6174636820726577617264546f6b656e314f776e61626c653a206e6577206f776e657220697320746865207a65726f20616464726573735377617020706169722030206973206e656365737361727920627574206e6f7420737570706c696564536166654d6174683a206d756c7469706c69636174696f6e206f766572666c6f774f776e61626c653a2063616c6c6572206973206e6f7420746865206f776e65728be0079c531659141344cd1fd0a4f28419497f9722a3daafe3b4186f6b6457e0537761702070616972203020646f6573206e6f74206d6174636820726577617264546f6b656e315377617020706169722031206973206e656365737361727920627574206e6f7420737570706c696564537761702070616972203120646f6573206e6f74206d61746368206465706f736974546f6b656e537761702070616972203020646f6573206e6f74206d6174636820726577617264546f6b656e30",
  "devdoc": {
    "kind": "dev",
    "methods": {
      "allowDepositor(address)": {
        "params": {
          "depositor": "address"
        }
      },
      "allowance(address,address)": {
        "params": {
          "account": "The address of the account holding the funds",
          "spender": "The address of the account spending the funds"
        },
        "returns": {
          "_0": "The number of tokens approved"
        }
      },
      "approve(address,uint256)": {
        "details": "This will overwrite the approval amount for `spender` and is subject to issues noted [here](https://eips.ethereum.org/EIPS/eip-20#approve) It is recommended to use increaseAllowance and decreaseAllowance instead",
        "params": {
          "amount": "The number of tokens that are approved (2^256-1 means infinite)",
          "spender": "The address of the account which may transfer tokens"
        },
        "returns": {
          "_0": "Whether or not the approval succeeded"
        }
      },
      "balanceOf(address)": {
        "params": {
          "account": "The address of the account to get the balance of"
        },
        "returns": {
          "_0": "The number of tokens held"
        }
      },
      "checkReward()": {
        "returns": {
          "_0": "reward tokens"
        }
      },
      "deposit(uint256)": {
        "details": "Must mint receipt tokens to `msg.sender`",
        "params": {
          "amount": "deposit tokens"
        }
      },
      "depositFor(address,uint256)": {
        "details": "Must mint receipt tokens to `account`",
        "params": {
          "account": "address to receive receipt tokens",
          "amount": "deposit tokens"
        }
      },
      "depositWithPermit(uint256,uint256,uint8,bytes32,bytes32)": {
        "details": "Should revert for tokens without Permit",
        "params": {
          "amount": "Amount of tokens to deposit",
          "deadline": "The time at which to expire the signature",
          "r": "Half of the ECDSA signature pair",
          "s": "Half of the ECDSA signature pair",
          "v": "The recovery byte of the signature"
        }
      },
      "estimateDeployedBalance()": {
        "returns": {
          "_0": "deposit tokens"
        }
      },
      "estimateReinvestReward()": {
        "returns": {
          "_0": "reward tokens"
        }
      },
      "getDepositTokensForShares(uint256)": {
        "params": {
          "amount": "receipt tokens"
        },
        "returns": {
          "_0": "deposit tokens"
        }
      },
      "getDomainSeparator()": {
        "returns": {
          "_0": "Separator"
        }
      },
      "getSharesForDepositTokens(uint256)": {
        "details": "If contract is empty, use 1:1 ratioCould return zero shares for very low amounts of deposit tokens",
        "params": {
          "amount": "deposit tokens"
        },
        "returns": {
          "_0": "receipt tokens"
        }
      },
      "owner()": {
        "details": "Returns the address of the current owner."
      },
      "permit(address,address,uint256,uint256,uint8,bytes32,bytes32)": {
        "params": {
          "deadline": "The time at which to expire the signature",
          "owner": "The address to approve from",
          "r": "Half of the ECDSA signature pair",
          "s": "Half of the ECDSA signature pair",
          "spender": "The address to be approved",
          "v": "The recovery byte of the signature",
          "value": "The number of tokens that are approved (2^256-1 means infinite)"
        }
      },
      "recoverAVAX(uint256)": {
        "params": {
          "amount": "amount"
        }
      },
      "recoverERC20(address,uint256)": {
        "params": {
          "tokenAddress": "token address",
          "tokenAmount": "amount to recover"
        }
      },
      "removeDepositor(address)": {
        "params": {
          "depositor": "address"
        }
      },
      "renounceOwnership()": {
        "details": "Leaves the contract without owner. It will not be possible to call `onlyOwner` functions anymore. Can only be called by the current owner. NOTE: Renouncing ownership will leave the contract without an owner, thereby removing any functionality that is only available to the owner."
      },
      "revokeAllowance(address,address)": {
        "params": {
          "spender": "address",
          "token": "address"
        }
      },
      "setAllowances()": {
        "details": "Deprecated; approvals should be handled in context of staking"
      },
      "totalDeposits()": {
        "returns": {
          "_0": "total deposits available on the contract"
        }
      },
      "transfer(address,uint256)": {
        "params": {
          "amount": "The number of tokens to transfer",
          "dst": "The address of the destination account"
        },
        "returns": {
          "_0": "Whether or not the transfer succeeded"
        }
      },
      "transferFrom(address,address,uint256)": {
        "params": {
          "amount": "The number of tokens to transfer",
          "dst": "The address of the destination account",
          "src": "The address of the source account"
        },
        "returns": {
          "_0": "Whether or not the transfer succeeded"
        }
      },
      "transferOwnership(address)": {
        "details": "Transfers ownership of the contract to a new account (`newOwner`). Can only be called by the current owner."
      },
      "updateAdminFee(uint256)": {
        "params": {
          "newValue": "fee in BIPS"
        }
      },
      "updateDepositsEnabled(bool)": {
        "params": {
          "newValue": "bool"
        }
      },
      "updateDevAddr(address)": {
        "params": {
          "newValue": "address"
        }
      },
      "updateDevFee(uint256)": {
        "params": {
          "newValue": "fee in BIPS"
        }
      },
      "updateMaxTokensToDepositWithoutReinvest(uint256)": {
        "params": {
          "newValue": "threshold"
        }
      },
      "updateMinTokensToReinvest(uint256)": {
        "params": {
          "newValue": "threshold"
        }
      },
      "updateReinvestReward(uint256)": {
        "params": {
          "newValue": "fee in BIPS"
        }
      },
      "withdraw(uint256)": {
        "params": {
          "amount": "receipt tokens"
        }
      }
    },
    "version": 1
  },
  "userdoc": {
    "kind": "user",
    "methods": {
      "allowDepositor(address)": {
        "notice": "Add an allowed depositor"
      },
      "allowance(address,address)": {
        "notice": "Get the number of tokens `spender` is approved to spend on behalf of `account`"
      },
      "approve(address,uint256)": {
        "notice": "Approve `spender` to transfer up to `amount` from `src`"
      },
      "balanceOf(address)": {
        "notice": "Get the number of tokens held by the `account`"
      },
      "checkReward()": {
        "notice": "Reward tokens avialable to strategy, including balance"
      },
      "deposit(uint256)": {
        "notice": "Deposit and deploy deposits tokens to the strategy"
      },
      "depositFor(address,uint256)": {
        "notice": "Deposit on behalf of another account"
      },
      "depositWithPermit(uint256,uint256,uint8,bytes32,bytes32)": {
        "notice": "Deposit using Permit"
      },
      "estimateDeployedBalance()": {
        "notice": "Estimated deposit token balance deployed by strategy, excluding balance"
      },
      "estimateReinvestReward()": {
        "notice": "Estimate reinvest reward"
      },
      "getDepositTokensForShares(uint256)": {
        "notice": "Calculate deposit tokens for a given amount of receipt tokens"
      },
      "getDomainSeparator()": {
        "notice": "EIP-712 Domain separator"
      },
      "getSharesForDepositTokens(uint256)": {
        "notice": "Calculate receipt tokens for a given amount of deposit tokens"
      },
      "permit(address,address,uint256,uint256,uint8,bytes32,bytes32)": {
        "notice": "Triggers an approval from owner to spender"
      },
      "recoverAVAX(uint256)": {
        "notice": "Recover AVAX from contract"
      },
      "recoverERC20(address,uint256)": {
        "notice": "Recover ERC20 from contract"
      },
      "reinvest()": {
        "notice": "Reinvest reward tokens into deposit tokens"
      },
      "removeDepositor(address)": {
        "notice": "Remove an allowed depositor"
      },
      "revokeAllowance(address,address)": {
        "notice": "Revoke token allowance"
      },
      "setAllowances()": {
        "notice": "Approve tokens for use in Strategy"
      },
      "totalDeposits()": {
        "notice": "This function returns a snapshot of last available quotes"
      },
      "transfer(address,uint256)": {
        "notice": "Transfer `amount` tokens from `msg.sender` to `dst`"
      },
      "transferFrom(address,address,uint256)": {
        "notice": "Transfer `amount` tokens from `src` to `dst`"
      },
      "updateAdminFee(uint256)": {
        "notice": "Update admin fee"
      },
      "updateDepositsEnabled(bool)": {
        "notice": "Enable/disable deposits"
      },
      "updateDevAddr(address)": {
        "notice": "Update devAddr"
      },
      "updateDevFee(uint256)": {
        "notice": "Update developer fee"
      },
      "updateMaxTokensToDepositWithoutReinvest(uint256)": {
        "notice": "Update reinvest max threshold before a deposit"
      },
      "updateMinTokensToReinvest(uint256)": {
        "notice": "Update reinvest min threshold"
      },
      "updateReinvestReward(uint256)": {
        "notice": "Update reinvest reward"
      },
      "withdraw(uint256)": {
        "notice": "Redeem receipt tokens for deposit tokens"
      }
    },
    "version": 1
  },
  "storageLayout": {
    "storage": [
      {
        "astId": 6348,
        "contract": "contracts/strategies/BenqiStrategyV3.sol:BenqiStrategyV3",
        "label": "name",
        "offset": 0,
        "slot": "0",
        "type": "t_string_storage"
      },
      {
        "astId": 6351,
        "contract": "contracts/strategies/BenqiStrategyV3.sol:BenqiStrategyV3",
        "label": "symbol",
        "offset": 0,
        "slot": "1",
        "type": "t_string_storage"
      },
      {
        "astId": 6356,
        "contract": "contracts/strategies/BenqiStrategyV3.sol:BenqiStrategyV3",
        "label": "totalSupply",
        "offset": 0,
        "slot": "2",
        "type": "t_uint256"
      },
      {
        "astId": 6362,
        "contract": "contracts/strategies/BenqiStrategyV3.sol:BenqiStrategyV3",
        "label": "allowances",
        "offset": 0,
        "slot": "3",
        "type": "t_mapping(t_address,t_mapping(t_address,t_uint256))"
      },
      {
        "astId": 6366,
        "contract": "contracts/strategies/BenqiStrategyV3.sol:BenqiStrategyV3",
        "label": "balances",
        "offset": 0,
        "slot": "4",
        "type": "t_mapping(t_address,t_uint256)"
      },
      {
        "astId": 6382,
        "contract": "contracts/strategies/BenqiStrategyV3.sol:BenqiStrategyV3",
        "label": "nonces",
        "offset": 0,
        "slot": "5",
        "type": "t_mapping(t_address,t_uint256)"
      },
      {
        "astId": 22390,
        "contract": "contracts/strategies/BenqiStrategyV3.sol:BenqiStrategyV3",
        "label": "_owner",
        "offset": 0,
        "slot": "6",
        "type": "t_address"
      },
      {
        "astId": 22503,
        "contract": "contracts/strategies/BenqiStrategyV3.sol:BenqiStrategyV3",
        "label": "numberOfAllowedDepositors",
        "offset": 0,
        "slot": "7",
        "type": "t_uint256"
      },
      {
        "astId": 22507,
        "contract": "contracts/strategies/BenqiStrategyV3.sol:BenqiStrategyV3",
        "label": "allowedDepositors",
        "offset": 0,
        "slot": "8",
        "type": "t_mapping(t_address,t_bool)"
      },
      {
        "astId": 7732,
        "contract": "contracts/strategies/BenqiStrategyV3.sol:BenqiStrategyV3",
        "label": "depositToken",
        "offset": 0,
        "slot": "9",
        "type": "t_contract(IERC20)11786"
      },
      {
        "astId": 7734,
        "contract": "contracts/strategies/BenqiStrategyV3.sol:BenqiStrategyV3",
        "label": "rewardToken",
        "offset": 0,
        "slot": "10",
        "type": "t_contract(IERC20)11786"
      },
      {
        "astId": 7736,
        "contract": "contracts/strategies/BenqiStrategyV3.sol:BenqiStrategyV3",
        "label": "devAddr",
        "offset": 0,
        "slot": "11",
        "type": "t_address"
      },
      {
        "astId": 7738,
        "contract": "contracts/strategies/BenqiStrategyV3.sol:BenqiStrategyV3",
        "label": "MIN_TOKENS_TO_REINVEST",
        "offset": 0,
        "slot": "12",
        "type": "t_uint256"
      },
      {
        "astId": 7740,
        "contract": "contracts/strategies/BenqiStrategyV3.sol:BenqiStrategyV3",
        "label": "MAX_TOKENS_TO_DEPOSIT_WITHOUT_REINVEST",
        "offset": 0,
        "slot": "13",
        "type": "t_uint256"
      },
      {
        "astId": 7742,
        "contract": "contracts/strategies/BenqiStrategyV3.sol:BenqiStrategyV3",
        "label": "DEPOSITS_ENABLED",
        "offset": 0,
        "slot": "14",
        "type": "t_bool"
      },
      {
        "astId": 7744,
        "contract": "contracts/strategies/BenqiStrategyV3.sol:BenqiStrategyV3",
        "label": "REINVEST_REWARD_BIPS",
        "offset": 0,
        "slot": "15",
        "type": "t_uint256"
      },
      {
        "astId": 7746,
        "contract": "contracts/strategies/BenqiStrategyV3.sol:BenqiStrategyV3",
        "label": "ADMIN_FEE_BIPS",
        "offset": 0,
        "slot": "16",
        "type": "t_uint256"
      },
      {
        "astId": 7748,
        "contract": "contracts/strategies/BenqiStrategyV3.sol:BenqiStrategyV3",
        "label": "DEV_FEE_BIPS",
        "offset": 0,
        "slot": "17",
        "type": "t_uint256"
      },
      {
        "astId": 41423,
        "contract": "contracts/strategies/BenqiStrategyV3.sol:BenqiStrategyV3",
        "label": "rewardController",
        "offset": 0,
        "slot": "18",
        "type": "t_contract(IBenqiUnitroller)11187"
      },
      {
        "astId": 41425,
        "contract": "contracts/strategies/BenqiStrategyV3.sol:BenqiStrategyV3",
        "label": "tokenDelegator",
        "offset": 0,
        "slot": "19",
        "type": "t_contract(IBenqiERC20Delegator)11001"
      },
      {
        "astId": 41427,
        "contract": "contracts/strategies/BenqiStrategyV3.sol:BenqiStrategyV3",
        "label": "rewardToken0",
        "offset": 0,
        "slot": "20",
        "type": "t_contract(IERC20)11786"
      },
      {
        "astId": 41429,
        "contract": "contracts/strategies/BenqiStrategyV3.sol:BenqiStrategyV3",
        "label": "rewardToken1",
        "offset": 0,
        "slot": "21",
        "type": "t_contract(IERC20)11786"
      },
      {
        "astId": 41431,
        "contract": "contracts/strategies/BenqiStrategyV3.sol:BenqiStrategyV3",
        "label": "swapPairToken0",
        "offset": 0,
        "slot": "22",
        "type": "t_contract(IPair)15572"
      },
      {
        "astId": 41433,
        "contract": "contracts/strategies/BenqiStrategyV3.sol:BenqiStrategyV3",
        "label": "swapPairToken1",
        "offset": 0,
        "slot": "23",
        "type": "t_contract(IPair)15572"
      },
      {
        "astId": 41440,
        "contract": "contracts/strategies/BenqiStrategyV3.sol:BenqiStrategyV3",
        "label": "leverageLevel",
        "offset": 0,
        "slot": "24",
        "type": "t_uint256"
      },
      {
        "astId": 41442,
        "contract": "contracts/strategies/BenqiStrategyV3.sol:BenqiStrategyV3",
        "label": "leverageBips",
        "offset": 0,
        "slot": "25",
        "type": "t_uint256"
      },
      {
        "astId": 41444,
        "contract": "contracts/strategies/BenqiStrategyV3.sol:BenqiStrategyV3",
        "label": "minMinting",
        "offset": 0,
        "slot": "26",
        "type": "t_uint256"
      },
      {
        "astId": 41446,
        "contract": "contracts/strategies/BenqiStrategyV3.sol:BenqiStrategyV3",
        "label": "redeemLimitSafetyMargin",
        "offset": 0,
        "slot": "27",
        "type": "t_uint256"
      }
    ],
    "types": {
      "t_address": {
        "encoding": "inplace",
        "label": "address",
        "numberOfBytes": "20"
      },
      "t_bool": {
        "encoding": "inplace",
        "label": "bool",
        "numberOfBytes": "1"
      },
      "t_contract(IBenqiERC20Delegator)11001": {
        "encoding": "inplace",
        "label": "contract IBenqiERC20Delegator",
        "numberOfBytes": "20"
      },
      "t_contract(IBenqiUnitroller)11187": {
        "encoding": "inplace",
        "label": "contract IBenqiUnitroller",
        "numberOfBytes": "20"
      },
      "t_contract(IERC20)11786": {
        "encoding": "inplace",
        "label": "contract IERC20",
        "numberOfBytes": "20"
      },
      "t_contract(IPair)15572": {
        "encoding": "inplace",
        "label": "contract IPair",
        "numberOfBytes": "20"
      },
      "t_mapping(t_address,t_bool)": {
        "encoding": "mapping",
        "key": "t_address",
        "label": "mapping(address => bool)",
        "numberOfBytes": "32",
        "value": "t_bool"
      },
      "t_mapping(t_address,t_mapping(t_address,t_uint256))": {
        "encoding": "mapping",
        "key": "t_address",
        "label": "mapping(address => mapping(address => uint256))",
        "numberOfBytes": "32",
        "value": "t_mapping(t_address,t_uint256)"
      },
      "t_mapping(t_address,t_uint256)": {
        "encoding": "mapping",
        "key": "t_address",
        "label": "mapping(address => uint256)",
        "numberOfBytes": "32",
        "value": "t_uint256"
      },
      "t_string_storage": {
        "encoding": "bytes",
        "label": "string",
        "numberOfBytes": "32"
      },
      "t_uint256": {
        "encoding": "inplace",
        "label": "uint256",
        "numberOfBytes": "32"
      }
    }
  }
}