{
  "address": "0xD4031359eE22aa53f341BbFA89c1dD6A9451ed3a",
  "abi": [
    {
      "inputs": [
        {
          "internalType": "string",
          "name": "_name",
          "type": "string"
        },
        {
          "internalType": "address",
          "name": "_rewardController",
          "type": "address"
        },
        {
          "internalType": "address",
          "name": "_tokenDelegator",
          "type": "address"
        },
        {
          "internalType": "address",
          "name": "_rewardToken0",
          "type": "address"
        },
        {
          "internalType": "address",
          "name": "_rewardToken1",
          "type": "address"
        },
        {
          "internalType": "address",
          "name": "_swapPairToken0",
          "type": "address"
        },
        {
          "internalType": "address",
          "name": "_swapPairToken1",
          "type": "address"
        },
        {
          "internalType": "address",
          "name": "_timelock",
          "type": "address"
        },
        {
          "components": [
            {
              "internalType": "uint256",
              "name": "leverageLevel",
              "type": "uint256"
            },
            {
              "internalType": "uint256",
              "name": "leverageBips",
              "type": "uint256"
            },
            {
              "internalType": "uint256",
              "name": "minMinting",
              "type": "uint256"
            }
          ],
          "internalType": "struct BenqiStrategyV3.LeverageSettings",
          "name": "_leverageSettings",
          "type": "tuple"
        },
        {
          "components": [
            {
              "internalType": "address",
              "name": "depositToken",
              "type": "address"
            },
            {
              "internalType": "address",
              "name": "rewardToken",
              "type": "address"
            },
            {
              "internalType": "uint256",
              "name": "minTokensToReinvest",
              "type": "uint256"
            },
            {
              "internalType": "uint256",
              "name": "devFeeBips",
              "type": "uint256"
            },
            {
              "internalType": "uint256",
              "name": "reinvestRewardBips",
              "type": "uint256"
            }
          ],
          "internalType": "struct YakStrategyV2.StrategySettings",
          "name": "_strategySettings",
          "type": "tuple"
        }
      ],
      "stateMutability": "nonpayable",
      "type": "constructor"
    },
    {
      "anonymous": false,
      "inputs": [
        {
          "indexed": true,
          "internalType": "address",
          "name": "account",
          "type": "address"
        }
      ],
      "name": "AllowDepositor",
      "type": "event"
    },
    {
      "anonymous": false,
      "inputs": [
        {
          "indexed": true,
          "internalType": "address",
          "name": "owner",
          "type": "address"
        },
        {
          "indexed": true,
          "internalType": "address",
          "name": "spender",
          "type": "address"
        },
        {
          "indexed": false,
          "internalType": "uint256",
          "name": "value",
          "type": "uint256"
        }
      ],
      "name": "Approval",
      "type": "event"
    },
    {
      "anonymous": false,
      "inputs": [
        {
          "indexed": true,
          "internalType": "address",
          "name": "account",
          "type": "address"
        },
        {
          "indexed": false,
          "internalType": "uint256",
          "name": "amount",
          "type": "uint256"
        }
      ],
      "name": "Deposit",
      "type": "event"
    },
    {
      "anonymous": false,
      "inputs": [
        {
          "indexed": false,
          "internalType": "bool",
          "name": "newValue",
          "type": "bool"
        }
      ],
      "name": "DepositsEnabled",
      "type": "event"
    },
    {
      "anonymous": false,
      "inputs": [
        {
          "indexed": true,
          "internalType": "address",
          "name": "previousOwner",
          "type": "address"
        },
        {
          "indexed": true,
          "internalType": "address",
          "name": "newOwner",
          "type": "address"
        }
      ],
      "name": "OwnershipTransferred",
      "type": "event"
    },
    {
      "anonymous": false,
      "inputs": [
        {
          "indexed": false,
          "internalType": "address",
          "name": "token",
          "type": "address"
        },
        {
          "indexed": false,
          "internalType": "uint256",
          "name": "amount",
          "type": "uint256"
        }
      ],
      "name": "Recovered",
      "type": "event"
    },
    {
      "anonymous": false,
      "inputs": [
        {
          "indexed": false,
          "internalType": "uint256",
          "name": "newTotalDeposits",
          "type": "uint256"
        },
        {
          "indexed": false,
          "internalType": "uint256",
          "name": "newTotalSupply",
          "type": "uint256"
        }
      ],
      "name": "Reinvest",
      "type": "event"
    },
    {
      "anonymous": false,
      "inputs": [
        {
          "indexed": true,
          "internalType": "address",
          "name": "account",
          "type": "address"
        }
      ],
      "name": "RemoveDepositor",
      "type": "event"
    },
    {
      "anonymous": false,
      "inputs": [
        {
          "indexed": true,
          "internalType": "address",
          "name": "from",
          "type": "address"
        },
        {
          "indexed": true,
          "internalType": "address",
          "name": "to",
          "type": "address"
        },
        {
          "indexed": false,
          "internalType": "uint256",
          "name": "value",
          "type": "uint256"
        }
      ],
      "name": "Transfer",
      "type": "event"
    },
    {
      "anonymous": false,
      "inputs": [
        {
          "indexed": false,
          "internalType": "uint256",
          "name": "oldValue",
          "type": "uint256"
        },
        {
          "indexed": false,
          "internalType": "uint256",
          "name": "newValue",
          "type": "uint256"
        }
      ],
      "name": "UpdateAdminFee",
      "type": "event"
    },
    {
      "anonymous": false,
      "inputs": [
        {
          "indexed": false,
          "internalType": "address",
          "name": "oldValue",
          "type": "address"
        },
        {
          "indexed": false,
          "internalType": "address",
          "name": "newValue",
          "type": "address"
        }
      ],
      "name": "UpdateDevAddr",
      "type": "event"
    },
    {
      "anonymous": false,
      "inputs": [
        {
          "indexed": false,
          "internalType": "uint256",
          "name": "oldValue",
          "type": "uint256"
        },
        {
          "indexed": false,
          "internalType": "uint256",
          "name": "newValue",
          "type": "uint256"
        }
      ],
      "name": "UpdateDevFee",
      "type": "event"
    },
    {
      "anonymous": false,
      "inputs": [
        {
          "indexed": false,
          "internalType": "uint256",
          "name": "oldValue",
          "type": "uint256"
        },
        {
          "indexed": false,
          "internalType": "uint256",
          "name": "newValue",
          "type": "uint256"
        }
      ],
      "name": "UpdateMaxTokensToDepositWithoutReinvest",
      "type": "event"
    },
    {
      "anonymous": false,
      "inputs": [
        {
          "indexed": false,
          "internalType": "uint256",
          "name": "oldValue",
          "type": "uint256"
        },
        {
          "indexed": false,
          "internalType": "uint256",
          "name": "newValue",
          "type": "uint256"
        }
      ],
      "name": "UpdateMinTokensToReinvest",
      "type": "event"
    },
    {
      "anonymous": false,
      "inputs": [
        {
          "indexed": false,
          "internalType": "uint256",
          "name": "oldValue",
          "type": "uint256"
        },
        {
          "indexed": false,
          "internalType": "uint256",
          "name": "newValue",
          "type": "uint256"
        }
      ],
      "name": "UpdateReinvestReward",
      "type": "event"
    },
    {
      "anonymous": false,
      "inputs": [
        {
          "indexed": true,
          "internalType": "address",
          "name": "account",
          "type": "address"
        },
        {
          "indexed": false,
          "internalType": "uint256",
          "name": "amount",
          "type": "uint256"
        }
      ],
      "name": "Withdraw",
      "type": "event"
    },
    {
      "inputs": [],
      "name": "ADMIN_FEE_BIPS",
      "outputs": [
        {
          "internalType": "uint256",
          "name": "",
          "type": "uint256"
        }
      ],
      "stateMutability": "view",
      "type": "function"
    },
    {
      "inputs": [],
      "name": "DEPOSITS_ENABLED",
      "outputs": [
        {
          "internalType": "bool",
          "name": "",
          "type": "bool"
        }
      ],
      "stateMutability": "view",
      "type": "function"
    },
    {
      "inputs": [],
      "name": "DEV_FEE_BIPS",
      "outputs": [
        {
          "internalType": "uint256",
          "name": "",
          "type": "uint256"
        }
      ],
      "stateMutability": "view",
      "type": "function"
    },
    {
      "inputs": [],
      "name": "DOMAIN_TYPEHASH",
      "outputs": [
        {
          "internalType": "bytes32",
          "name": "",
          "type": "bytes32"
        }
      ],
      "stateMutability": "view",
      "type": "function"
    },
    {
      "inputs": [],
      "name": "MAX_TOKENS_TO_DEPOSIT_WITHOUT_REINVEST",
      "outputs": [
        {
          "internalType": "uint256",
          "name": "",
          "type": "uint256"
        }
      ],
      "stateMutability": "view",
      "type": "function"
    },
    {
      "inputs": [],
      "name": "MIN_TOKENS_TO_REINVEST",
      "outputs": [
        {
          "internalType": "uint256",
          "name": "",
          "type": "uint256"
        }
      ],
      "stateMutability": "view",
      "type": "function"
    },
    {
      "inputs": [],
      "name": "PERMIT_TYPEHASH",
      "outputs": [
        {
          "internalType": "bytes32",
          "name": "",
          "type": "bytes32"
        }
      ],
      "stateMutability": "view",
      "type": "function"
    },
    {
      "inputs": [],
      "name": "REINVEST_REWARD_BIPS",
      "outputs": [
        {
          "internalType": "uint256",
          "name": "",
          "type": "uint256"
        }
      ],
      "stateMutability": "view",
      "type": "function"
    },
    {
      "inputs": [],
      "name": "VERSION_HASH",
      "outputs": [
        {
          "internalType": "bytes32",
          "name": "",
          "type": "bytes32"
        }
      ],
      "stateMutability": "view",
      "type": "function"
    },
    {
      "inputs": [
        {
          "internalType": "address",
          "name": "depositor",
          "type": "address"
        }
      ],
      "name": "allowDepositor",
      "outputs": [],
      "stateMutability": "nonpayable",
      "type": "function"
    },
    {
      "inputs": [
        {
          "internalType": "address",
          "name": "account",
          "type": "address"
        },
        {
          "internalType": "address",
          "name": "spender",
          "type": "address"
        }
      ],
      "name": "allowance",
      "outputs": [
        {
          "internalType": "uint256",
          "name": "",
          "type": "uint256"
        }
      ],
      "stateMutability": "view",
      "type": "function"
    },
    {
      "inputs": [
        {
          "internalType": "address",
          "name": "",
          "type": "address"
        }
      ],
      "name": "allowedDepositors",
      "outputs": [
        {
          "internalType": "bool",
          "name": "",
          "type": "bool"
        }
      ],
      "stateMutability": "view",
      "type": "function"
    },
    {
      "inputs": [
        {
          "internalType": "address",
          "name": "spender",
          "type": "address"
        },
        {
          "internalType": "uint256",
          "name": "amount",
          "type": "uint256"
        }
      ],
      "name": "approve",
      "outputs": [
        {
          "internalType": "bool",
          "name": "",
          "type": "bool"
        }
      ],
      "stateMutability": "nonpayable",
      "type": "function"
    },
    {
      "inputs": [
        {
          "internalType": "address",
          "name": "account",
          "type": "address"
        }
      ],
      "name": "balanceOf",
      "outputs": [
        {
          "internalType": "uint256",
          "name": "",
          "type": "uint256"
        }
      ],
      "stateMutability": "view",
      "type": "function"
    },
    {
      "inputs": [],
      "name": "checkReward",
      "outputs": [
        {
          "internalType": "uint256",
          "name": "",
          "type": "uint256"
        }
      ],
      "stateMutability": "view",
      "type": "function"
    },
    {
      "inputs": [],
      "name": "decimals",
      "outputs": [
        {
          "internalType": "uint8",
          "name": "",
          "type": "uint8"
        }
      ],
      "stateMutability": "view",
      "type": "function"
    },
    {
      "inputs": [
        {
          "internalType": "uint256",
          "name": "amount",
          "type": "uint256"
        }
      ],
      "name": "deposit",
      "outputs": [],
      "stateMutability": "nonpayable",
      "type": "function"
    },
    {
      "inputs": [
        {
          "internalType": "address",
          "name": "account",
          "type": "address"
        },
        {
          "internalType": "uint256",
          "name": "amount",
          "type": "uint256"
        }
      ],
      "name": "depositFor",
      "outputs": [],
      "stateMutability": "nonpayable",
      "type": "function"
    },
    {
      "inputs": [],
      "name": "depositToken",
      "outputs": [
        {
          "internalType": "contract IERC20",
          "name": "",
          "type": "address"
        }
      ],
      "stateMutability": "view",
      "type": "function"
    },
    {
      "inputs": [
        {
          "internalType": "uint256",
          "name": "amount",
          "type": "uint256"
        },
        {
          "internalType": "uint256",
          "name": "deadline",
          "type": "uint256"
        },
        {
          "internalType": "uint8",
          "name": "v",
          "type": "uint8"
        },
        {
          "internalType": "bytes32",
          "name": "r",
          "type": "bytes32"
        },
        {
          "internalType": "bytes32",
          "name": "s",
          "type": "bytes32"
        }
      ],
      "name": "depositWithPermit",
      "outputs": [],
      "stateMutability": "nonpayable",
      "type": "function"
    },
    {
      "inputs": [],
      "name": "devAddr",
      "outputs": [
        {
          "internalType": "address",
          "name": "",
          "type": "address"
        }
      ],
      "stateMutability": "view",
      "type": "function"
    },
    {
      "inputs": [],
      "name": "estimateDeployedBalance",
      "outputs": [
        {
          "internalType": "uint256",
          "name": "",
          "type": "uint256"
        }
      ],
      "stateMutability": "view",
      "type": "function"
    },
    {
      "inputs": [],
      "name": "estimateReinvestReward",
      "outputs": [
        {
          "internalType": "uint256",
          "name": "",
          "type": "uint256"
        }
      ],
      "stateMutability": "view",
      "type": "function"
    },
    {
      "inputs": [],
      "name": "getActualLeverage",
      "outputs": [
        {
          "internalType": "uint256",
          "name": "",
          "type": "uint256"
        }
      ],
      "stateMutability": "view",
      "type": "function"
    },
    {
      "inputs": [
        {
          "internalType": "uint256",
          "name": "amount",
          "type": "uint256"
        }
      ],
      "name": "getDepositTokensForShares",
      "outputs": [
        {
          "internalType": "uint256",
          "name": "",
          "type": "uint256"
        }
      ],
      "stateMutability": "view",
      "type": "function"
    },
    {
      "inputs": [],
      "name": "getDomainSeparator",
      "outputs": [
        {
          "internalType": "bytes32",
          "name": "",
          "type": "bytes32"
        }
      ],
      "stateMutability": "view",
      "type": "function"
    },
    {
      "inputs": [
        {
          "internalType": "uint256",
          "name": "amount",
          "type": "uint256"
        }
      ],
      "name": "getSharesForDepositTokens",
      "outputs": [
        {
          "internalType": "uint256",
          "name": "",
          "type": "uint256"
        }
      ],
      "stateMutability": "view",
      "type": "function"
    },
    {
      "inputs": [],
      "name": "name",
      "outputs": [
        {
          "internalType": "string",
          "name": "",
          "type": "string"
        }
      ],
      "stateMutability": "view",
      "type": "function"
    },
    {
      "inputs": [
        {
          "internalType": "address",
          "name": "",
          "type": "address"
        }
      ],
      "name": "nonces",
      "outputs": [
        {
          "internalType": "uint256",
          "name": "",
          "type": "uint256"
        }
      ],
      "stateMutability": "view",
      "type": "function"
    },
    {
      "inputs": [],
      "name": "numberOfAllowedDepositors",
      "outputs": [
        {
          "internalType": "uint256",
          "name": "",
          "type": "uint256"
        }
      ],
      "stateMutability": "view",
      "type": "function"
    },
    {
      "inputs": [],
      "name": "owner",
      "outputs": [
        {
          "internalType": "address",
          "name": "",
          "type": "address"
        }
      ],
      "stateMutability": "view",
      "type": "function"
    },
    {
      "inputs": [
        {
          "internalType": "address",
          "name": "owner",
          "type": "address"
        },
        {
          "internalType": "address",
          "name": "spender",
          "type": "address"
        },
        {
          "internalType": "uint256",
          "name": "value",
          "type": "uint256"
        },
        {
          "internalType": "uint256",
          "name": "deadline",
          "type": "uint256"
        },
        {
          "internalType": "uint8",
          "name": "v",
          "type": "uint8"
        },
        {
          "internalType": "bytes32",
          "name": "r",
          "type": "bytes32"
        },
        {
          "internalType": "bytes32",
          "name": "s",
          "type": "bytes32"
        }
      ],
      "name": "permit",
      "outputs": [],
      "stateMutability": "nonpayable",
      "type": "function"
    },
    {
      "inputs": [
        {
          "internalType": "uint256",
          "name": "amount",
          "type": "uint256"
        }
      ],
      "name": "recoverAVAX",
      "outputs": [],
      "stateMutability": "nonpayable",
      "type": "function"
    },
    {
      "inputs": [
        {
          "internalType": "address",
          "name": "tokenAddress",
          "type": "address"
        },
        {
          "internalType": "uint256",
          "name": "tokenAmount",
          "type": "uint256"
        }
      ],
      "name": "recoverERC20",
      "outputs": [],
      "stateMutability": "nonpayable",
      "type": "function"
    },
    {
      "inputs": [],
      "name": "reinvest",
      "outputs": [],
      "stateMutability": "nonpayable",
      "type": "function"
    },
    {
      "inputs": [
        {
          "internalType": "address",
          "name": "depositor",
          "type": "address"
        }
      ],
      "name": "removeDepositor",
      "outputs": [],
      "stateMutability": "nonpayable",
      "type": "function"
    },
    {
      "inputs": [],
      "name": "renounceOwnership",
      "outputs": [],
      "stateMutability": "nonpayable",
      "type": "function"
    },
    {
      "inputs": [
        {
          "internalType": "uint256",
          "name": "minReturnAmountAccepted",
          "type": "uint256"
        },
        {
          "internalType": "bool",
          "name": "",
          "type": "bool"
        }
      ],
      "name": "rescueDeployedFunds",
      "outputs": [],
      "stateMutability": "nonpayable",
      "type": "function"
    },
    {
      "inputs": [
        {
          "internalType": "address",
          "name": "token",
          "type": "address"
        },
        {
          "internalType": "address",
          "name": "spender",
          "type": "address"
        }
      ],
      "name": "revokeAllowance",
      "outputs": [],
      "stateMutability": "nonpayable",
      "type": "function"
    },
    {
      "inputs": [],
      "name": "rewardToken",
      "outputs": [
        {
          "internalType": "contract IERC20",
          "name": "",
          "type": "address"
        }
      ],
      "stateMutability": "view",
      "type": "function"
    },
    {
      "inputs": [],
      "name": "symbol",
      "outputs": [
        {
          "internalType": "string",
          "name": "",
          "type": "string"
        }
      ],
      "stateMutability": "view",
      "type": "function"
    },
    {
      "inputs": [],
      "name": "totalDeposits",
      "outputs": [
        {
          "internalType": "uint256",
          "name": "",
          "type": "uint256"
        }
      ],
      "stateMutability": "view",
      "type": "function"
    },
    {
      "inputs": [],
      "name": "totalSupply",
      "outputs": [
        {
          "internalType": "uint256",
          "name": "",
          "type": "uint256"
        }
      ],
      "stateMutability": "view",
      "type": "function"
    },
    {
      "inputs": [
        {
          "internalType": "address",
          "name": "dst",
          "type": "address"
        },
        {
          "internalType": "uint256",
          "name": "amount",
          "type": "uint256"
        }
      ],
      "name": "transfer",
      "outputs": [
        {
          "internalType": "bool",
          "name": "",
          "type": "bool"
        }
      ],
      "stateMutability": "nonpayable",
      "type": "function"
    },
    {
      "inputs": [
        {
          "internalType": "address",
          "name": "src",
          "type": "address"
        },
        {
          "internalType": "address",
          "name": "dst",
          "type": "address"
        },
        {
          "internalType": "uint256",
          "name": "amount",
          "type": "uint256"
        }
      ],
      "name": "transferFrom",
      "outputs": [
        {
          "internalType": "bool",
          "name": "",
          "type": "bool"
        }
      ],
      "stateMutability": "nonpayable",
      "type": "function"
    },
    {
      "inputs": [
        {
          "internalType": "address",
          "name": "newOwner",
          "type": "address"
        }
      ],
      "name": "transferOwnership",
      "outputs": [],
      "stateMutability": "nonpayable",
      "type": "function"
    },
    {
      "inputs": [
        {
          "internalType": "uint256",
          "name": "newValue",
          "type": "uint256"
        }
      ],
      "name": "updateAdminFee",
      "outputs": [],
      "stateMutability": "nonpayable",
      "type": "function"
    },
    {
      "inputs": [
        {
          "internalType": "bool",
          "name": "newValue",
          "type": "bool"
        }
      ],
      "name": "updateDepositsEnabled",
      "outputs": [],
      "stateMutability": "nonpayable",
      "type": "function"
    },
    {
      "inputs": [
        {
          "internalType": "address",
          "name": "newValue",
          "type": "address"
        }
      ],
      "name": "updateDevAddr",
      "outputs": [],
      "stateMutability": "nonpayable",
      "type": "function"
    },
    {
      "inputs": [
        {
          "internalType": "uint256",
          "name": "newValue",
          "type": "uint256"
        }
      ],
      "name": "updateDevFee",
      "outputs": [],
      "stateMutability": "nonpayable",
      "type": "function"
    },
    {
      "inputs": [
        {
          "internalType": "uint256",
          "name": "_leverageLevel",
          "type": "uint256"
        },
        {
          "internalType": "uint256",
          "name": "_leverageBips",
          "type": "uint256"
        },
        {
          "internalType": "uint256",
          "name": "_redeemLimitSafetyMargin",
          "type": "uint256"
        }
      ],
      "name": "updateLeverage",
      "outputs": [],
      "stateMutability": "nonpayable",
      "type": "function"
    },
    {
      "inputs": [
        {
          "internalType": "uint256",
          "name": "newValue",
          "type": "uint256"
        }
      ],
      "name": "updateMaxTokensToDepositWithoutReinvest",
      "outputs": [],
      "stateMutability": "nonpayable",
      "type": "function"
    },
    {
      "inputs": [
        {
          "internalType": "uint256",
          "name": "newValue",
          "type": "uint256"
        }
      ],
      "name": "updateMinTokensToReinvest",
      "outputs": [],
      "stateMutability": "nonpayable",
      "type": "function"
    },
    {
      "inputs": [
        {
          "internalType": "uint256",
          "name": "newValue",
          "type": "uint256"
        }
      ],
      "name": "updateReinvestReward",
      "outputs": [],
      "stateMutability": "nonpayable",
      "type": "function"
    },
    {
      "inputs": [
        {
          "internalType": "uint256",
          "name": "amount",
          "type": "uint256"
        }
      ],
      "name": "withdraw",
      "outputs": [],
      "stateMutability": "nonpayable",
      "type": "function"
    },
    {
      "stateMutability": "payable",
      "type": "receive"
    }
  ],
  "transactionHash": "0x2cbaef7b827d5c744ebc4c15d1a18712e80615fcc6580fdc4971d72fb4ef091e",
  "args": [
    "Yield Yak: Benqi BUSD",
    "0x486Af39519B4Dc9a7fCcd318217352830E8AD9b4",
    "0x872670CcAe8C19557cC9443Eff587D7086b8043A",
    "0x8729438EB15e2C8B576fCc6AeCdA6A148776C0F5",
    "0xB31f66AA3C1e785363F0875A1B74E27b85FD66c7",
    "0xe530dc2095ef5653205cf5ea79f8979a7028065c",
    "0xf57971383560715cccf94e0c639125ae0e955e60",
    "0x302404cb8f34713a8b8dbf9b4989a41252332068",
    {
      "leverageLevel": "10000",
      "leverageBips": "10000",
      "minMinting": "100000000000000"
    },
    {
      "depositToken": "0x9C9e5fD8bbc25984B178FdCE6117Defa39d2db39",
      "rewardToken": "0xB31f66AA3C1e785363F0875A1B74E27b85FD66c7",
      "minTokensToReinvest": "10000000000000",
      "devFeeBips": "700",
      "reinvestRewardBips": "300"
    }
  ],
  "solcInputHash": "1c24251dfa716e6751d1e49418dc4abb",
  "bytecode": "0x610100604052600960c0819052685969656c642059616b60b81b60e09081526200002d916000919062000d15565b506040805180820190915260038082526216549560ea1b60209092019182526200005a9160019162000d15565b503480156200006857600080fd5b5060405162006c1238038062006c128339810160408190526200008b9162000f03565b600680546001600160a01b03191633908117909155604051829190819060009060008051602062006bd2833981519152908290a35080516001600160a01b0390811660805260208201511660a0526040810151620000e99062000261565b6060810151620000f990620002f1565b608081015162000109906200039c565b5089516200011f9060009060208d019062000d15565b50601080546001600160a01b03808c166001600160a01b031992831617909255601180548b8416908316179055601280548a8416908316179055601380549289169290911691909117905560408201516018558151602080840151620001c59291620001b7906103e890620001a39084906103de906200247d62000447821b17901c565b6200045c60201b620024891790919060201c565b601692909255601755601955565b600980546001600160a01b031916732d580f9cf2fb2d09bc411532988f2afda4e7beff179055620001f56200046a565b6200020185856200053c565b6200020d600162000b6e565b620002188362000c18565b60408051600080825260208201527fc7606d21ac05cd309191543e409f0845c016120563783d70e4f41419dc0ef234910160405180910390a15050505050505050505062001253565b6006546001600160a01b03163314620002b05760405162461bcd60e51b8152602060048201819052602482015260008051602062006bb283398151915260448201526064015b60405180910390fd5b600a5460408051918252602082018390527f481f79ac3a523b6d6db3c5a720e190e986d1cc1b41adcdf50f9caef849901100910160405180910390a1600a55565b6006546001600160a01b031633146200033c5760405162461bcd60e51b8152602060048201819052602482015260008051602062006bb28339815191526044820152606401620002a7565b612710600e54826200034f919062001084565b11156200035b57600080fd5b600f5460408051918252602082018390527f2a42303d002f0ba6cfe8259c91d4684443fb0b3de286ba74991175d651726131910160405180910390a1600f55565b6006546001600160a01b03163314620003e75760405162461bcd60e51b8152602060048201819052602482015260008051602062006bb28339815191526044820152606401620002a7565b612710600f5482620003fa919062001084565b11156200040657600080fd5b600e5460408051918252602082018390527fe7f97d51d307dc44045597c9978bec0f842e6bb40d19b9444084cfa30d9ed4f2910160405180910390a1600e55565b60006200045582846200109f565b9392505050565b6000620004558284620010c1565b60408051600180825281830190925260009160208083019080368337505060115482519293506001600160a01b031691839150600090620004af57620004af620010e4565b6001600160a01b039283166020918202929092010152601054604051631853304760e31b815291169063c299823890620004ee908490600401620010fa565b6000604051808303816000875af11580156200050e573d6000803e3d6000fd5b505050506040513d6000823e601f3d908101601f1916820160405262000538919081019062001149565b5050565b6001600160a01b038216620005a65760405162461bcd60e51b815260206004820152602960248201527f5377617020706169722030206973206e656365737361727920627574206e6f74604482015268081cdd5c1c1b1a595960ba1b6064820152608401620002a7565b6001600160a01b038116620006105760405162461bcd60e51b815260206004820152602960248201527f5377617020706169722031206973206e656365737361727920627574206e6f74604482015268081cdd5c1c1b1a595960ba1b6064820152608401620002a7565b816001600160a01b0316630dfe16816040518163ffffffff1660e01b8152600401602060405180830381865afa1580156200064f573d6000803e3d6000fd5b505050506040513d601f19601f82011682018060405250810190620006759190620011f9565b6012546001600160a01b0390811691161480620007045750816001600160a01b031663d21220a76040518163ffffffff1660e01b8152600401602060405180830381865afa158015620006cc573d6000803e3d6000fd5b505050506040513d601f19601f82011682018060405250810190620006f29190620011f9565b6012546001600160a01b039081169116145b620007515760405162461bcd60e51b8152602060048201526027602482015260008051602062006bf2833981519152604482015266064546f6b656e360cc1b6064820152608401620002a7565b816001600160a01b0316630dfe16816040518163ffffffff1660e01b8152600401602060405180830381865afa15801562000790573d6000803e3d6000fd5b505050506040513d601f19601f82011682018060405250810190620007b69190620011f9565b6013546001600160a01b0390811691161480620008455750816001600160a01b031663d21220a76040518163ffffffff1660e01b8152600401602060405180830381865afa1580156200080d573d6000803e3d6000fd5b505050506040513d601f19601f82011682018060405250810190620008339190620011f9565b6013546001600160a01b039081169116145b620008925760405162461bcd60e51b8152602060048201526027602482015260008051602062006bf283398151915260448201526664546f6b656e3160c81b6064820152608401620002a7565b806001600160a01b0316630dfe16816040518163ffffffff1660e01b8152600401602060405180830381865afa158015620008d1573d6000803e3d6000fd5b505050506040513d601f19601f82011682018060405250810190620008f79190620011f9565b6001600160a01b03166080516001600160a01b03161480620009905750806001600160a01b031663d21220a76040518163ffffffff1660e01b8152600401602060405180830381865afa15801562000953573d6000803e3d6000fd5b505050506040513d601f19601f82011682018060405250810190620009799190620011f9565b6001600160a01b03166080516001600160a01b0316145b620009ee5760405162461bcd60e51b815260206004820152602760248201527f537761702070616972203120646f6573206e6f74206d61746368206465706f7360448201526634ba2a37b5b2b760c91b6064820152608401620002a7565b806001600160a01b0316630dfe16816040518163ffffffff1660e01b8152600401602060405180830381865afa15801562000a2d573d6000803e3d6000fd5b505050506040513d601f19601f8201168201806040525081019062000a539190620011f9565b6013546001600160a01b039081169116148062000ae25750806001600160a01b031663d21220a76040518163ffffffff1660e01b8152600401602060405180830381865afa15801562000aaa573d6000803e3d6000fd5b505050506040513d601f19601f8201168201806040525081019062000ad09190620011f9565b6013546001600160a01b039081169116145b62000b405760405162461bcd60e51b815260206004820152602760248201527f537761702070616972203120646f6573206e6f74206d6174636820726577617260448201526664546f6b656e3160c81b6064820152608401620002a7565b601480546001600160a01b039384166001600160a01b03199182161790915560158054929093169116179055565b6006546001600160a01b0316331462000bb95760405162461bcd60e51b8152602060048201819052602482015260008051602062006bb28339815191526044820152606401620002a7565b600c5481151560ff90911615150362000bd157600080fd5b600c805460ff19168215159081179091556040519081527f7b014ed3854e7f5cb0218d58b3c6ae7d53a68bb0af2f67bfb029ea42c38a7e859060200160405180910390a150565b6006546001600160a01b0316331462000c635760405162461bcd60e51b8152602060048201819052602482015260008051602062006bb28339815191526044820152606401620002a7565b6001600160a01b03811662000cca5760405162461bcd60e51b815260206004820152602660248201527f4f776e61626c653a206e6577206f776e657220697320746865207a65726f206160448201526564647265737360d01b6064820152608401620002a7565b6006546040516001600160a01b0380841692169060008051602062006bd283398151915290600090a3600680546001600160a01b0319166001600160a01b0392909216919091179055565b82805462000d239062001217565b90600052602060002090601f01602090048101928262000d47576000855562000d92565b82601f1062000d6257805160ff191683800117855562000d92565b8280016001018555821562000d92579182015b8281111562000d9257825182559160200191906001019062000d75565b5062000da092915062000da4565b5090565b5b8082111562000da0576000815560010162000da5565b634e487b7160e01b600052604160045260246000fd5b604051601f8201601f191681016001600160401b038111828210171562000dfc5762000dfc62000dbb565b604052919050565b80516001600160a01b038116811462000e1c57600080fd5b919050565b60006060828403121562000e3457600080fd5b604051606081016001600160401b038111828210171562000e595762000e5962000dbb565b80604052508091508251815260208301516020820152604083015160408201525092915050565b600060a0828403121562000e9357600080fd5b60405160a081016001600160401b038111828210171562000eb85762000eb862000dbb565b60405290508062000ec98362000e04565b815262000ed96020840162000e04565b60208201526040830151604082015260608301516060820152608083015160808201525092915050565b6000806000806000806000806000806102008b8d03121562000f2457600080fd5b8a516001600160401b038082111562000f3c57600080fd5b818d0191508d601f83011262000f5157600080fd5b81518181111562000f665762000f6662000dbb565b6020915062000f7e601f8201601f1916830162000dd1565b8181528f8383860101111562000f9357600080fd5b60005b8281101562000fb357848101840151828201850152830162000f96565b8281111562000fc55760008484840101525b509c5062000fd790508d820162000e04565b9a50505062000fe960408c0162000e04565b975062000ff960608c0162000e04565b96506200100960808c0162000e04565b95506200101960a08c0162000e04565b94506200102960c08c0162000e04565b93506200103960e08c0162000e04565b92506200104b8c6101008d0162000e21565b91506200105d8c6101608d0162000e80565b90509295989b9194979a5092959850565b634e487b7160e01b600052601160045260246000fd5b600082198211156200109a576200109a6200106e565b500190565b6000816000190483118215151615620010bc57620010bc6200106e565b500290565b600082620010df57634e487b7160e01b600052601260045260246000fd5b500490565b634e487b7160e01b600052603260045260246000fd5b6020808252825182820181905260009190848201906040850190845b818110156200113d5783516001600160a01b03168352928401929184019160010162001116565b50909695505050505050565b600060208083850312156200115d57600080fd5b82516001600160401b03808211156200117557600080fd5b818501915085601f8301126200118a57600080fd5b8151818111156200119f576200119f62000dbb565b8060051b9150620011b284830162000dd1565b8181529183018401918481019088841115620011cd57600080fd5b938501935b83851015620011ed57845182529385019390850190620011d2565b98975050505050505050565b6000602082840312156200120c57600080fd5b620004558262000e04565b600181811c908216806200122c57607f821691505b6020821081036200124d57634e487b7160e01b600052602260045260246000fd5b50919050565b60805160a0516158d0620012e260003960008181610aee015281816139fc01528181613af601528181613b4f0152613b8d01526000818161094a01528181610d2b01528181610df1015281816118db01528181611b3a01528181612b5c01528181612e30015281816131a8015281816134c901528181613baf01528181613daa0152613eff01526158d06000f3fe6080604052600436106103645760003560e01c80638b73e606116101c6578063c89039c5116100f7578063dd8ce4d611610095578063ed24911d1161006f578063ed24911d14610aa7578063f2fde38b14610abc578063f7c618c114610adc578063fdb5a03e14610b1057600080fd5b8063dd8ce4d614610a47578063e21ac82514610a67578063eab89a5a14610a8757600080fd5b8063d6ec2a49116100d1578063d6ec2a49146109ac578063da09c72c146109cc578063db8dd95c146109ec578063dd62ed3e14610a0157600080fd5b8063c89039c514610938578063cff1b6ef1461096c578063d505accf1461098c57600080fd5b8063a9059cbb11610164578063b6b55f251161013e578063b6b55f25146108d8578063b9e57b80146108f8578063bd079f551461090d578063c4b24a461461092357600080fd5b8063a9059cbb1461087e578063ac0d31ff1461089e578063b52a321f146108be57600080fd5b806395d89b41116101a057806395d89b41146107f557806399729ec11461080a5780639e4e73181461082a578063a8ae2b7c1461085e57600080fd5b80638b73e606146107835780638da5cb5b146107a35780639291d563146107d557600080fd5b80634a970be7116102a0578063789139bc1161023e5780637ecebe00116102185780637ecebe0014610700578063818372301461072d5780638980f11f1461074d5780638aff733d1461076d57600080fd5b8063789139bc146106b55780637ae26773146106cb5780637d882097146106eb57600080fd5b80634ebb79161161027a5780634ebb7916146106345780635ea682ea1461065457806370a082311461066a578063715018a6146106a057600080fd5b80634a970be7146105d45780634bebd1e7146105f45780634e77ace51461061457600080fd5b806323b872dd1161030d57806330adf81f116102e757806330adf81f14610533578063313ce567146105675780633bdc6e721461058e578063483c2ef0146105a457600080fd5b806323b872dd146104d35780632e1a7d4d146104f35780632f4f21e21461051357600080fd5b80630f23475d1161033e5780630f23475d1461047457806318160ddd1461048957806320606b701461049f57600080fd5b806306fdde03146103f55780630767711114610420578063095ea7b31461044457600080fd5b366103f0576010546001600160a01b031633146103ee5760405162461bcd60e51b815260206004820152602560248201527f42656e7169537472617465677956333a3a7061796d656e7473206e6f7420616c60448201527f6c6f77656400000000000000000000000000000000000000000000000000000060648201526084015b60405180910390fd5b005b600080fd5b34801561040157600080fd5b5061040a610b25565b60405161041791906152a1565b60405180910390f35b34801561042c57600080fd5b50610436600d5481565b604051908152602001610417565b34801561045057600080fd5b5061046461045f3660046152d0565b610bb3565b6040519015158152602001610417565b34801561048057600080fd5b50610436610bc9565b34801561049557600080fd5b5061043660025481565b3480156104ab57600080fd5b506104367f8b73c3c69bb8fe3d512ecc4cf759cc79239f7b179b0ffacaa9a75d522b39400f81565b3480156104df57600080fd5b506104646104ee3660046152fa565b610bd8565b3480156104ff57600080fd5b506103ee61050e366004615336565b610ca1565b34801561051f57600080fd5b506103ee61052e3660046152d0565b610d8a565b34801561053f57600080fd5b506104367f6e71edae12b1b97f4d1f60370fef10105fa2faae0126114a169c64845d6126c981565b34801561057357600080fd5b5061057c601281565b60405160ff9091168152602001610417565b34801561059a57600080fd5b5061043660075481565b3480156105b057600080fd5b506104646105bf36600461534f565b60086020526000908152604090205460ff1681565b3480156105e057600080fd5b506103ee6105ef36600461537b565b610d98565b34801561060057600080fd5b506103ee61060f36600461534f565b610e66565b34801561062057600080fd5b506103ee61062f3660046153d0565b610f83565b34801561064057600080fd5b506103ee61064f366004615336565b61102a565b34801561066057600080fd5b50610436600f5481565b34801561067657600080fd5b5061043661068536600461534f565b6001600160a01b031660009081526004602052604090205490565b3480156106ac57600080fd5b506103ee6110e4565b3480156106c157600080fd5b50610436600b5481565b3480156106d757600080fd5b506103ee6106e63660046153ed565b611183565b3480156106f757600080fd5b50610436611247565b34801561070c57600080fd5b5061043661071b36600461534f565b60056020526000908152604090205481565b34801561073957600080fd5b506103ee610748366004615336565b6112ed565b34801561075957600080fd5b506103ee6107683660046152d0565b611376565b34801561077957600080fd5b50610436600e5481565b34801561078f57600080fd5b506103ee61079e36600461534f565b61148b565b3480156107af57600080fd5b506006546001600160a01b03165b6040516001600160a01b039091168152602001610417565b3480156107e157600080fd5b506103ee6107f036600461534f565b611647565b34801561080157600080fd5b5061040a611717565b34801561081657600080fd5b506103ee610825366004615336565b611724565b34801561083657600080fd5b506104367fc89efdaa54c0f20c7adf612882df0950f5a951637e0307cdcb4c672f298b8bc681565b34801561086a57600080fd5b506103ee610879366004615336565b6117c9565b34801561088a57600080fd5b506104646108993660046152d0565b61186e565b3480156108aa57600080fd5b506103ee6108b9366004615420565b61187b565b3480156108ca57600080fd5b50600c546104649060ff1681565b3480156108e457600080fd5b506103ee6108f3366004615336565b611c92565b34801561090457600080fd5b50610436611c9f565b34801561091957600080fd5b50610436600a5481565b34801561092f57600080fd5b50610436611cde565b34801561094457600080fd5b506107bd7f000000000000000000000000000000000000000000000000000000000000000081565b34801561097857600080fd5b506103ee610987366004615336565b611d5d565b34801561099857600080fd5b506103ee6109a7366004615450565b611df1565b3480156109b857600080fd5b506103ee6109c73660046154ba565b611f04565b3480156109d857600080fd5b506009546107bd906001600160a01b031681565b3480156109f857600080fd5b5061043661208a565b348015610a0d57600080fd5b50610436610a1c3660046153ed565b6001600160a01b03918216600090815260036020908152604080832093909416825291909152205490565b348015610a5357600080fd5b50610436610a62366004615336565b61214a565b348015610a7357600080fd5b506103ee610a82366004615336565b612191565b348015610a9357600080fd5b50610436610aa2366004615336565b61221a565b348015610ab357600080fd5b50610436612255565b348015610ac857600080fd5b506103ee610ad736600461534f565b6122f5565b348015610ae857600080fd5b506107bd7f000000000000000000000000000000000000000000000000000000000000000081565b348015610b1c57600080fd5b506103ee612422565b60008054610b32906154e6565b80601f0160208091040260200160405190810160405280929190818152602001828054610b5e906154e6565b8015610bab5780601f10610b8057610100808354040283529160200191610bab565b820191906000526020600020905b815481529060010190602001808311610b8e57829003601f168201915b505050505081565b6000610bc0338484612495565b50600192915050565b6000610bd3611247565b905090565b6001600160a01b038316600081815260036020908152604080832033808552925282205491929091908214801590610c1257506000198114155b15610c88576000610c238583615536565b6001600160a01b038881166000818152600360209081526040808320948916808452948252918290208590559051848152939450919290917f8c5be1e5ebec7d5bd14f71427d1e84f3dd0314c0f7b2291e5b200ac8c7c3b925910160405180910390a3505b610c938686866125a3565b6001925050505b9392505050565b6000610cc1600254610cbb84610cb56126c7565b9061247d565b90612489565b905060008111610d135760405162461bcd60e51b815260206004820152601960248201527f42656e7169537472617465677956333a3a77697468647261770000000000000060448201526064016103e5565b610d1d33836127c1565b610d2681612855565b610d517f00000000000000000000000000000000000000000000000000000000000000003383612924565b60405181815233907f884edad9ce6fa2440d8a54cc123490eb96d2768479d49ff9c7366125a94243649060200160405180910390a25050565b610d948282612a0e565b5050565b6040517fd505accf000000000000000000000000000000000000000000000000000000008152336004820152306024820152604481018690526064810185905260ff8416608482015260a4810183905260c481018290527f00000000000000000000000000000000000000000000000000000000000000006001600160a01b03169063d505accf9060e401600060405180830381600087803b158015610e3d57600080fd5b505af1158015610e51573d6000803e3d6000fd5b50505050610e5f3386612a0e565b5050505050565b6006546001600160a01b03163314610eae5760405162461bcd60e51b8152602060048201819052602482015260008051602061587b83398151915260448201526064016103e5565b6001600160a01b03811660009081526008602052604090205460ff1615610f175760405162461bcd60e51b815260206004820152601c60248201527f5065726d697373696f6e65643a3a616c6c6f774465706f7369746f720000000060448201526064016103e5565b6001600160a01b0381166000908152600860205260409020805460ff19166001908117909155600754610f499161554d565b6007556040516001600160a01b038216907fc0a1035c16faf8d1304056d92c00edf028f87e62b8235a938f00af9e3c0312c590600090a250565b6006546001600160a01b03163314610fcb5760405162461bcd60e51b8152602060048201819052602482015260008051602061587b83398151915260448201526064016103e5565b600c5481151560ff909116151503610fe257600080fd5b600c805460ff19168215159081179091556040519081527f7b014ed3854e7f5cb0218d58b3c6ae7d53a68bb0af2f67bfb029ea42c38a7e85906020015b60405180910390a150565b6006546001600160a01b031633146110725760405162461bcd60e51b8152602060048201819052602482015260008051602061587b83398151915260448201526064016103e5565b6000811161107f57600080fd5b604051339082156108fc029083906000818181858888f193505050501580156110ac573d6000803e3d6000fd5b506040805160008152602081018390527f8c1256b8896378cd5044f80c202f9772b9d77dc85c8a6eb51967210b09bfaa28910161101f565b6006546001600160a01b0316331461112c5760405162461bcd60e51b8152602060048201819052602482015260008051602061587b83398151915260448201526064016103e5565b6006546040516000916001600160a01b0316907f8be0079c531659141344cd1fd0a4f28419497f9722a3daafe3b4186f6b6457e0908390a36006805473ffffffffffffffffffffffffffffffffffffffff19169055565b6006546001600160a01b031633146111cb5760405162461bcd60e51b8152602060048201819052602482015260008051602061587b83398151915260448201526064016103e5565b60405163095ea7b360e01b81526001600160a01b0382811660048301526000602483015283169063095ea7b3906044016020604051808303816000875af115801561121a573d6000803e3d6000fd5b505050506040513d601f19601f8201168201806040525081019061123e9190615565565b610d9457600080fd5b6011546040516361bfb47160e11b81523060048201526000918291829182916001600160a01b039091169063c37f68e290602401608060405180830381865afa158015611298573d6000803e3d6000fd5b505050506040513d601f19601f820116820180604052508101906112bc9190615582565b919550935091506112e59050826112df670de0b6b3a7640000610cbb878661247d565b90612cbf565b935050505090565b6006546001600160a01b031633146113355760405162461bcd60e51b8152602060048201819052602482015260008051602061587b83398151915260448201526064016103e5565b600a5460408051918252602082018390527f481f79ac3a523b6d6db3c5a720e190e986d1cc1b41adcdf50f9caef849901100910160405180910390a1600a55565b6006546001600160a01b031633146113be5760405162461bcd60e51b8152602060048201819052602482015260008051602061587b83398151915260448201526064016103e5565b600081116113cb57600080fd5b60405163a9059cbb60e01b8152336004820152602481018290526001600160a01b0383169063a9059cbb906044016020604051808303816000875af1158015611418573d6000803e3d6000fd5b505050506040513d601f19601f8201168201806040525081019061143c9190615565565b61144557600080fd5b604080516001600160a01b0384168152602081018390527f8c1256b8896378cd5044f80c202f9772b9d77dc85c8a6eb51967210b09bfaa28910160405180910390a15050565b6006546001600160a01b031633146114d35760405162461bcd60e51b8152602060048201819052602482015260008051602061587b83398151915260448201526064016103e5565b60006007541161154b5760405162461bcd60e51b815260206004820152603460248201527f5065726d697373696f6e65643a3a72656d6f76654465706f7369746f722c206e60448201527f6f20616c6c6f776564206465706f7369746f727300000000000000000000000060648201526084016103e5565b6001600160a01b03811660009081526008602052604090205460ff1615156001146115de5760405162461bcd60e51b815260206004820152602a60248201527f5065726d697373696f6e65643a3a72656d6f76654465706f7369746f722c206e60448201527f6f7420616c6c6f7765640000000000000000000000000000000000000000000060648201526084016103e5565b6001600160a01b0381166000908152600860205260409020805460ff1916905560075461160d90600190615536565b6007556040516001600160a01b038216907f0e86f6608b536e5339a25b65ff531f5ea91e1313d056ecd4752b35cbd16137d490600090a250565b6009546001600160a01b031633146116a15760405162461bcd60e51b815260206004820152601460248201527f59616b53747261746567793a3a6f6e6c7944657600000000000000000000000060448201526064016103e5565b600954604080516001600160a01b03928316815291831660208301527fa8e91499ed37682f43cffb045fcc7d379a91e8c9a14e6321877ee34dee564c00910160405180910390a16009805473ffffffffffffffffffffffffffffffffffffffff19166001600160a01b0392909216919091179055565b60018054610b32906154e6565b6006546001600160a01b0316331461176c5760405162461bcd60e51b8152602060048201819052602482015260008051602061587b83398151915260448201526064016103e5565b612710600e548261177d919061554d565b111561178857600080fd5b600f5460408051918252602082018390527f2a42303d002f0ba6cfe8259c91d4684443fb0b3de286ba74991175d651726131910160405180910390a1600f55565b6006546001600160a01b031633146118115760405162461bcd60e51b8152602060048201819052602482015260008051602061587b83398151915260448201526064016103e5565b612710600f5482611822919061554d565b111561182d57600080fd5b600e5460408051918252602082018390527fe7f97d51d307dc44045597c9978bec0f842e6bb40d19b9444084cfa30d9ed4f2910160405180910390a1600e55565b6000610bc03384846125a3565b6006546001600160a01b031633146118c35760405162461bcd60e51b8152602060048201819052602482015260008051602061587b83398151915260448201526064016103e5565b6040516370a0823160e01b81523060048201526000907f00000000000000000000000000000000000000000000000000000000000000006001600160a01b0316906370a0823190602401602060405180830381865afa15801561192a573d6000803e3d6000fd5b505050506040513d601f19601f8201168201806040525081019061194e91906155b8565b6011546040516305eff7ef60e21b81523060048201529192506000916001600160a01b03909116906317bfdfbc906024016020604051808303816000875af115801561199e573d6000803e3d6000fd5b505050506040513d601f19601f820116820180604052508101906119c291906155b8565b601154604051633af9e66960e01b81523060048201529192506000916001600160a01b0390911690633af9e669906024016020604051808303816000875af1158015611a12573d6000803e3d6000fd5b505050506040513d601f19601f82011682018060405250810190611a3691906155b8565b9050611a4a611a458284612cbf565b612ccb565b601154604051633af9e66960e01b81523060048201526001600160a01b039091169063852a12e3908290633af9e669906024016020604051808303816000875af1158015611a9c573d6000803e3d6000fd5b505050506040513d601f19601f82011682018060405250810190611ac091906155b8565b6040518263ffffffff1660e01b8152600401611ade91815260200190565b6020604051808303816000875af1158015611afd573d6000803e3d6000fd5b505050506040513d601f19601f82011682018060405250810190611b2191906155b8565b506040516370a0823160e01b81523060048201526000907f00000000000000000000000000000000000000000000000000000000000000006001600160a01b0316906370a0823190602401602060405180830381865afa158015611b89573d6000803e3d6000fd5b505050506040513d601f19601f82011682018060405250810190611bad91906155b8565b905085611bba8286612cbf565b1015611c2d5760405162461bcd60e51b8152602060048201526024808201527f42656e7169537472617465677956333a3a7265736375654465706c6f7965644660448201527f756e64730000000000000000000000000000000000000000000000000000000060648201526084016103e5565b7fc7606d21ac05cd309191543e409f0845c016120563783d70e4f41419dc0ef234611c56611247565b6002546040805192835260208301919091520160405180910390a1600c5460ff161515600103611c8a57611c8a6000610f83565b505050505050565b611c9c3382612a0e565b50565b600080611caa611cde565b9050600a548110611cd657612710600e5482611cc691906155d1565b611cd091906155f0565b91505090565b600091505090565b6010546011546000918291611d01916001600160a01b0390811691168330613217565b601054601154919250600091611d26916001600160a01b039081169116600130613217565b601254601354601454929350600092611d519286926001600160a01b039182169290821691166132e1565b90506112e582826132fa565b6006546001600160a01b03163314611da55760405162461bcd60e51b8152602060048201819052602482015260008051602061587b83398151915260448201526064016103e5565b8015611db057600080fd5b600d5460408051918252602082018390527f3cc372f330f95ac9540626dc8a25f5bf21ba607215a5d58304cb804d446f104a910160405180910390a1600d55565b42841015611e415760405162461bcd60e51b815260206004820152600f60248201527f7065726d69743a3a65787069726564000000000000000000000000000000000060448201526064016103e5565b6001600160a01b038716600090815260056020526040812080547f6e71edae12b1b97f4d1f60370fef10105fa2faae0126114a169c64845d6126c9918a918a918a919086611e8e83615612565b909155506040805160208101969096526001600160a01b0394851690860152929091166060840152608083015260a082015260c0810186905260e001604051602081830303815290604052805190602001209050611eef8882868686613306565b611efa888888612495565b5050505050505050565b6009546001600160a01b03163314611f5e5760405162461bcd60e51b815260206004820152601460248201527f59616b53747261746567793a3a6f6e6c7944657600000000000000000000000060448201526064016103e5565b611f72838383601692909255601755601955565b6011546040516305eff7ef60e21b81523060048201526000916001600160a01b0316906317bfdfbc906024016020604051808303816000875af1158015611fbd573d6000803e3d6000fd5b505050506040513d601f19601f82011682018060405250810190611fe191906155b8565b601154604051633af9e66960e01b81523060048201529192506000916001600160a01b0390911690633af9e669906024016020604051808303816000875af1158015612031573d6000803e3d6000fd5b505050506040513d601f19601f8201168201806040525081019061205591906155b8565b9050612064611a458284612cbf565b60006120708284612cbf565b1115610e5f57610e5f6120838284612cbf565b6000613466565b6011546040516361bfb47160e11b81523060048201526000918291829182916001600160a01b039091169063c37f68e290602401608060405180830381865afa1580156120db573d6000803e3d6000fd5b505050506040513d601f19601f820116820180604052508101906120ff9190615582565b9195509350915060009050612120670de0b6b3a7640000610cbb868561247d565b905061214161212f8285612cbf565b610cbb83670de0b6b3a764000061247d565b94505050505090565b6000612154611247565b60025461216191906155d1565b60000361216c575090565b612174611247565b60025461218190846155d1565b61218b91906155f0565b92915050565b6006546001600160a01b031633146121d95760405162461bcd60e51b8152602060048201819052602482015260008051602061587b83398151915260448201526064016103e5565b600b5460408051918252602082018390527fa5dae50539d56dfe1fb5273d883b0c39bc76750a25d036fc5fbd09ad8fd5f57f910160405180910390a1600b55565b6000612224611247565b60025461223191906155d1565b60000361224057506000919050565b60025461224b611247565b61218190846155d1565b60007f8b73c3c69bb8fe3d512ecc4cf759cc79239f7b179b0ffacaa9a75d522b39400f60001b600060405161228a919061562b565b6040519081900390207fc89efdaa54c0f20c7adf612882df0950f5a951637e0307cdcb4c672f298b8bc646604080516020810195909552840192909252606083015260808201523060a082015260c00160405160208183030381529060405280519060200120905090565b6006546001600160a01b0316331461233d5760405162461bcd60e51b8152602060048201819052602482015260008051602061587b83398151915260448201526064016103e5565b6001600160a01b0381166123b95760405162461bcd60e51b815260206004820152602660248201527f4f776e61626c653a206e6577206f776e657220697320746865207a65726f206160448201527f646472657373000000000000000000000000000000000000000000000000000060648201526084016103e5565b6006546040516001600160a01b038084169216907f8be0079c531659141344cd1fd0a4f28419497f9722a3daafe3b4186f6b6457e090600090a36006805473ffffffffffffffffffffffffffffffffffffffff19166001600160a01b0392909216919091179055565b3233146124715760405162461bcd60e51b815260206004820152601460248201527f59616b53747261746567793a3a6f6e6c79454f4100000000000000000000000060448201526064016103e5565b61247b60006137b9565b565b6000610c9a82846155d1565b6000610c9a82846155f0565b6001600160a01b0383166124eb5760405162461bcd60e51b815260206004820152601c60248201527f5f617070726f76653a3a6f776e6572207a65726f20616464726573730000000060448201526064016103e5565b6001600160a01b0382166125415760405162461bcd60e51b815260206004820152601e60248201527f5f617070726f76653a3a7370656e646572207a65726f2061646472657373000060448201526064016103e5565b6001600160a01b0383811660008181526003602090815260408083209487168084529482529182902085905590518481527f8c5be1e5ebec7d5bd14f71427d1e84f3dd0314c0f7b2291e5b200ac8c7c3b92591015b60405180910390a3505050565b6001600160a01b03821661261f5760405162461bcd60e51b815260206004820152603460248201527f5f7472616e73666572546f6b656e733a2063616e6e6f74207472616e7366657260448201527f20746f20746865207a65726f206164647265737300000000000000000000000060648201526084016103e5565b6001600160a01b038316600090815260046020526040902054612643908290615536565b6001600160a01b03808516600090815260046020526040808220939093559084168152205461267390829061554d565b6001600160a01b0380841660008181526004602052604090819020939093559151908516907fddf252ad1be2c89b69c2b068fc378daa952ba7f163c4a11628f55a4df523b3ef906125969085815260200190565b6011546040516305eff7ef60e21b815230600482015260009182916001600160a01b03909116906317bfdfbc906024016020604051808303816000875af1158015612716573d6000803e3d6000fd5b505050506040513d601f19601f8201168201806040525081019061273a91906155b8565b601154604051633af9e66960e01b81523060048201529192506000916001600160a01b0390911690633af9e669906024016020604051808303816000875af115801561278a573d6000803e3d6000fd5b505050506040513d601f19601f820116820180604052508101906127ae91906155b8565b90506127ba8183612cbf565b9250505090565b6001600160a01b0382166000908152600460205260409020546127e5908290615536565b6001600160a01b03831660009081526004602052604090205560025461280c908290615536565b6002556040518181526000906001600160a01b038416907fddf252ad1be2c89b69c2b068fc378daa952ba7f163c4a11628f55a4df523b3ef906020015b60405180910390a35050565b61285e81612ccb565b60115460405163852a12e360e01b8152600481018390526001600160a01b039091169063852a12e3906024016020604051808303816000875af11580156128a9573d6000803e3d6000fd5b505050506040513d601f19601f820116820180604052508101906128cd91906155b8565b15611c9c5760405162461bcd60e51b815260206004820152602160248201527f42656e7169537472617465677956333a3a6661696c656420746f2072656465656044820152606d60f81b60648201526084016103e5565b60405163a9059cbb60e01b81526001600160a01b0383811660048301526024820183905284169063a9059cbb906044016020604051808303816000875af1158015612973573d6000803e3d6000fd5b505050506040513d601f19601f820116820180604052508101906129979190615565565b612a095760405162461bcd60e51b815260206004820152602560248201527f42656e7169537472617465677956333a3a5452414e534645525f46524f4d5f4660448201527f41494c454400000000000000000000000000000000000000000000000000000060648201526084016103e5565b505050565b60075415612aa0573360009081526008602052604090205460ff161515600114612aa05760405162461bcd60e51b815260206004820152602e60248201527f5065726d697373696f6e65643a3a6f6e6c79416c6c6f7765644465706f73697460448201527f732c206e6f7420616c6c6f77656400000000000000000000000000000000000060648201526084016103e5565b600c5460ff161515600114612af75760405162461bcd60e51b815260206004820152601960248201527f42656e7169537472617465677956333a3a5f6465706f7369740000000000000060448201526064016103e5565b600b5415612b21576000612b09611cde565b9050600b54811115612b1f57612b1f60016137b9565b505b6040517f23b872dd000000000000000000000000000000000000000000000000000000008152336004820152306024820152604481018290527f00000000000000000000000000000000000000000000000000000000000000006001600160a01b0316906323b872dd906064016020604051808303816000875af1158015612bad573d6000803e3d6000fd5b505050506040513d601f19601f82011682018060405250810190612bd19190615565565b612c1d5760405162461bcd60e51b815260206004820181905260248201527f42656e7169537472617465677956333a3a7472616e73666572206661696c656460448201526064016103e5565b806000612c286126c7565b90506000612c418260025461247d90919063ffffffff16565b1115612c6357612c6081610cbb6002548661247d90919063ffffffff16565b91505b612c6d8483613c36565b612c7683613d0c565b836001600160a01b03167fe1fffcc4923d04b559f4d29a8bfc6cda04eb5b0d3c460751c2402c5c5cc9109c84604051612cb191815260200190565b60405180910390a250505050565b6000610c9a8284615536565b6011546040516305eff7ef60e21b81523060048201526000916001600160a01b0316906317bfdfbc906024016020604051808303816000875af1158015612d16573d6000803e3d6000fd5b505050506040513d601f19601f82011682018060405250810190612d3a91906155b8565b601154604051633af9e66960e01b81523060048201529192506000916001600160a01b0390911690633af9e669906024016020604051808303816000875af1158015612d8a573d6000803e3d6000fd5b505050506040513d601f19601f82011682018060405250810190612dae91906155b8565b90506000612de6612dc3856112df8587612cbf565b6112df601754610cbb601654610cb58a6112df8b8b612cbf90919063ffffffff16565b90506000612df48483612cbf565b9050600080612e0161405e565b60115460405163095ea7b360e01b81526001600160a01b039182166004820152602481018a90529294509092507f0000000000000000000000000000000000000000000000000000000000000000169063095ea7b3906044016020604051808303816000875af1158015612e79573d6000803e3d6000fd5b505050506040513d601f19601f82011682018060405250810190612e9d9190615565565b505b821561317f576000612eb3868885856140ff565b905083811115612ec05750825b60115460405163852a12e360e01b8152600481018390526001600160a01b039091169063852a12e3906024016020604051808303816000875af1158015612f0b573d6000803e3d6000fd5b505050506040513d601f19601f82011682018060405250810190612f2f91906155b8565b15612f865760405162461bcd60e51b815260206004820152602160248201527f42656e7169537472617465677956333a3a6661696c656420746f2072656465656044820152606d60f81b60648201526084016103e5565b6011546040517f0e752702000000000000000000000000000000000000000000000000000000008152600481018390526001600160a01b0390911690630e752702906024016020604051808303816000875af1158015612fea573d6000803e3d6000fd5b505050506040513d601f19601f8201168201806040525081019061300e91906155b8565b156130815760405162461bcd60e51b815260206004820152602760248201527f42656e7169537472617465677956333a3a6661696c656420746f20726570617960448201527f20626f72726f770000000000000000000000000000000000000000000000000060648201526084016103e5565b601154604051633af9e66960e01b81523060048201526001600160a01b0390911690633af9e669906024016020604051808303816000875af11580156130cb573d6000803e3d6000fd5b505050506040513d601f19601f820116820180604052508101906130ef91906155b8565b6011546040516305eff7ef60e21b81523060048201529197506001600160a01b0316906317bfdfbc906024016020604051808303816000875af115801561313a573d6000803e3d6000fd5b505050506040513d601f19601f8201168201806040525081019061315e91906155b8565b965086851061316d575061317f565b6131778786612cbf565b935050612e9f565b60115460405163095ea7b360e01b81526001600160a01b039182166004820152600060248201527f00000000000000000000000000000000000000000000000000000000000000009091169063095ea7b3906044016020604051808303816000875af11580156131f3573d6000803e3d6000fd5b505050506040513d601f19601f82011682018060405250810190611efa9190615565565b6040517f05b9783d00000000000000000000000000000000000000000000000000000000815260ff831660048201526001600160a01b03828116602483015260009182918716906305b9783d90604401602060405180830381865afa158015613284573d6000803e3d6000fd5b505050506040513d601f19601f820116820180604052508101906132a891906155b8565b90506132d56132b98787878761412e565b6132cf6132c88989898961433e565b84906132fa565b906132fa565b9150505b949350505050565b60006132f18585858560036144de565b95945050505050565b6000610c9a828461554d565b6000613310612255565b6040517f1901000000000000000000000000000000000000000000000000000000000000602082015260228101919091526042810186905260620160408051601f198184030181528282528051602091820120600080855291840180845281905260ff88169284019290925260608301869052608083018590529092509060019060a0016020604051602081039080840390855afa1580156133b6573d6000803e3d6000fd5b5050604051601f1901519150506001600160a01b038116158015906133ec5750866001600160a01b0316816001600160a01b0316145b61345d5760405162461bcd60e51b8152602060048201526024808201527f417263683a3a76616c69646174655369673a20696e76616c6964207369676e6160448201527f747572650000000000000000000000000000000000000000000000000000000060648201526084016103e5565b50505050505050565b60008061347161405e565b915091506000849050600061349b601754610cbb601654610cb5898b612cbf90919063ffffffff16565b60115460405163095ea7b360e01b81526001600160a01b0391821660048201526024810183905291925086917f00000000000000000000000000000000000000000000000000000000000000009091169063095ea7b3906044016020604051808303816000875af1158015613514573d6000803e3d6000fd5b505050506040513d601f19601f820116820180604052508101906135389190615565565b505b8183101561317f576000613550848388886145ac565b90508261355d85836132fa565b11156135705761356d8385612cbf565b90505b601854811015613580575061317f565b6011546040517fc5ebeaec000000000000000000000000000000000000000000000000000000008152600481018390526001600160a01b039091169063c5ebeaec906024016020604051808303816000875af11580156135e4573d6000803e3d6000fd5b505050506040513d601f19601f8201168201806040525081019061360891906155b8565b1561367b5760405162461bcd60e51b815260206004820152602160248201527f42656e7169537472617465677956333a3a626f72726f77696e67206661696c6560448201527f640000000000000000000000000000000000000000000000000000000000000060648201526084016103e5565b60115460405163140e25ad60e31b8152600481018390526001600160a01b039091169063a0712d68906024016020604051808303816000875af11580156136c6573d6000803e3d6000fd5b505050506040513d601f19601f820116820180604052508101906136ea91906155b8565b156137375760405162461bcd60e51b815260206004820152601f60248201527f42656e7169537472617465677956333a3a6c656e64696e67206661696c65640060448201526064016103e5565b601154604051633af9e66960e01b81523060048201526001600160a01b0390911690633af9e669906024016020604051808303816000875af1158015613781573d6000803e3d6000fd5b505050506040513d601f19601f820116820180604052508101906137a591906155b8565b93506137b182826132fa565b91505061353a565b60408051600180825281830190925260009160208083019080368337505060115482519293506001600160a01b0316918391506000906137fb576137fb6156c6565b6001600160a01b039283166020918202929092010152601054604051633a22995760e11b815291169063744532ae9061383d9060009030908690600401615720565b600060405180830381600087803b15801561385757600080fd5b505af115801561386b573d6000803e3d6000fd5b5050601054604051633a22995760e11b81526001600160a01b03909116925063744532ae91506138a49060019030908690600401615720565b600060405180830381600087803b1580156138be57600080fd5b505af11580156138d2573d6000803e3d6000fd5b5047925050811590506139485773b31f66aa3c1e785363f0875a1b74e27b85fd66c76001600160a01b031663d0e30db0826040518263ffffffff1660e01b81526004016000604051808303818588803b15801561392e57600080fd5b505af1158015613942573d6000803e3d6000fd5b50505050505b6012546040516370a0823160e01b81523060048201526000916001600160a01b0316906370a0823190602401602060405180830381865afa158015613991573d6000803e3d6000fd5b505050506040513d601f19601f820116820180604052508101906139b591906155b8565b905080156139e4576012546013546014546139e29284926001600160a01b039182169290821691166145c0565b505b6040516370a0823160e01b81523060048201526000907f00000000000000000000000000000000000000000000000000000000000000006001600160a01b0316906370a0823190602401602060405180830381865afa158015613a4b573d6000803e3d6000fd5b505050506040513d601f19601f82011682018060405250810190613a6f91906155b8565b905084613ac857600a54811015613ac85760405162461bcd60e51b815260206004820152601960248201527f42656e7169537472617465677956333a3a7265696e766573740000000000000060448201526064016103e5565b6000613ae5612710610cbb600f548561247d90919063ffffffff16565b90508015613b2557600954613b25907f0000000000000000000000000000000000000000000000000000000000000000906001600160a01b031683612924565b6000613b42612710610cbb600e548661247d90919063ffffffff16565b90508015613b7557613b757f00000000000000000000000000000000000000000000000000000000000000003383612924565b6000613bdd613b88836112df8787612cbf565b6015547f0000000000000000000000000000000000000000000000000000000000000000907f0000000000000000000000000000000000000000000000000000000000000000906001600160a01b03166145c0565b9050613be881613d0c565b7fc7606d21ac05cd309191543e409f0845c016120563783d70e4f41419dc0ef234613c11611247565b6002546040805192835260208301919091520160405180910390a15050505050505050565b60008111613c865760405162461bcd60e51b815260206004820152601260248201527f5f6d696e743a3a7a65726f20736861726573000000000000000000000000000060448201526064016103e5565b80600254613c94919061554d565b6002556001600160a01b038216600090815260046020526040902054613cbb90829061554d565b6001600160a01b0383166000818152600460205260408082209390935591519091907fddf252ad1be2c89b69c2b068fc378daa952ba7f163c4a11628f55a4df523b3ef906128499085815260200190565b60008111613d815760405162461bcd60e51b8152602060048201526024808201527f42656e7169537472617465677956333a3a5f7374616b654465706f736974546f60448201527f6b656e730000000000000000000000000000000000000000000000000000000060648201526084016103e5565b60115460405163095ea7b360e01b81526001600160a01b039182166004820152602481018390527f00000000000000000000000000000000000000000000000000000000000000009091169063095ea7b3906044016020604051808303816000875af1158015613df5573d6000803e3d6000fd5b505050506040513d601f19601f82011682018060405250810190613e199190615565565b5060115460405163140e25ad60e31b8152600481018390526001600160a01b039091169063a0712d68906024016020604051808303816000875af1158015613e65573d6000803e3d6000fd5b505050506040513d601f19601f82011682018060405250810190613e8991906155b8565b15613ed65760405162461bcd60e51b815260206004820152601f60248201527f42656e7169537472617465677956333a3a4465706f736974206661696c65640060448201526064016103e5565b60115460405163095ea7b360e01b81526001600160a01b039182166004820152600060248201527f00000000000000000000000000000000000000000000000000000000000000009091169063095ea7b3906044016020604051808303816000875af1158015613f4a573d6000803e3d6000fd5b505050506040513d601f19601f82011682018060405250810190613f6e9190615565565b506011546040516305eff7ef60e21b81523060048201526000916001600160a01b0316906317bfdfbc906024016020604051808303816000875af1158015613fba573d6000803e3d6000fd5b505050506040513d601f19601f82011682018060405250810190613fde91906155b8565b601154604051633af9e66960e01b81523060048201529192506000916001600160a01b0390911690633af9e669906024016020604051808303816000875af115801561402e573d6000803e3d6000fd5b505050506040513d601f19601f8201168201806040525081019061405291906155b8565b9050612a098183613466565b6010546011546040517f8e8f294b0000000000000000000000000000000000000000000000000000000081526001600160a01b03918216600482015260009283928392911690638e8f294b906024016040805180830381865afa1580156140c9573d6000803e3d6000fd5b505050506040513d601f19601f820116820180604052508101906140ed919061574b565b94670de0b6b3a7640000945092505050565b60006132f1601754610cbb601954610cb561412788610cbb898c61247d90919063ffffffff16565b8a90612cbf565b6040805160208101918290527f7937969d0000000000000000000000000000000000000000000000000000000090915260ff831660248201526001600160a01b0384811660448301528281166064830152600091829181908816637937969d60848301602060405180830381865afa1580156141ae573d6000803e3d6000fd5b505050506040513d601f19601f820116820180604052508101906141d291906155b8565b9052805160009350909150156143355760006040518060200160405280876001600160a01b031663aa5af0fd6040518163ffffffff1660e01b8152600401602060405180830381865afa15801561422d573d6000803e3d6000fd5b505050506040513d601f19601f8201168201806040525081019061425191906155b8565b81525090506000604051806020016040528061426f8a8a8a876145d0565b6001600160e01b031690528051909150156143325760006142908285614852565b6040517f95dd9193000000000000000000000000000000000000000000000000000000008152306004820152909150600090614321906001600160a01b038b16906395dd919390602401602060405180830381865afa1580156142f7573d6000803e3d6000fd5b505050506040513d601f19601f8201168201806040525081019061431b91906155b8565b85614887565b905061432d81836148a5565b955050505b50505b50949350505050565b60008060405180602001604052806143578888886148cf565b6001600160e01b031690526040805160208101918290527f88e972b80000000000000000000000000000000000000000000000000000000090915260ff861660248201526001600160a01b0387811660448301528581166064830152919250600091819089166388e972b860848301602060405180830381865afa1580156143e3573d6000803e3d6000fd5b505050506040513d601f19601f8201168201806040525081019061440791906155b8565b9052805190915015801561441b5750815115155b15614433576ec097ce7bc90715b34b9f100000000081525b8151600090614451576040518060200160405280600081525061445b565b61445b8383614852565b6040516370a0823160e01b81526001600160a01b0387811660048301529192506144d2918916906370a0823190602401602060405180830381865afa1580156144a8573d6000803e3d6000fd5b505050506040513d601f19601f820116820180604052508101906144cc91906155b8565b826148a5565b98975050505050505050565b6000806144eb8686614b47565b509050600080856001600160a01b0316630902f1ac6040518163ffffffff1660e01b8152600401606060405180830381865afa15801561452f573d6000803e3d6000fd5b505050506040513d601f19601f8201168201806040525081019061455391906157ab565b5091509150876001600160a01b0316836001600160a01b03161461457357905b61459f89836dffffffffffffffffffffffffffff16836dffffffffffffffffffffffffffff1688614b78565b9998505050505050505050565b60006132f1846112df84610cbb898861247d565b60006132f1858585856003614bc6565b6040517f4b3a0a7400000000000000000000000000000000000000000000000000000000815260ff831660048201526001600160a01b0384811660248301526000918291829190881690634b3a0a74906044016040805180830381865afa15801561463f573d6000803e3d6000fd5b505050506040513d601f19601f8201168201806040525081019061466391906157ee565b6040517fc376fada00000000000000000000000000000000000000000000000000000000815260ff881660048201526001600160a01b03898116602483015292945063ffffffff91909116925060009189169063c376fada90604401602060405180830381865afa1580156146dc573d6000803e3d6000fd5b505050506040513d601f19601f8201168201806040525081019061470091906155b8565b9050600061470e4284614d63565b90506000811180156147205750600082115b15614843576000614792896001600160a01b03166347bd37186040518163ffffffff1660e01b8152600401602060405180830381865afa158015614768573d6000803e3d6000fd5b505050506040513d601f19601f8201168201806040525081019061478c91906155b8565b88614887565b905060006147a08385614da5565b905060008083116147c057604051806020016040528060008152506147ca565b6147ca8284614de7565b905060006147ef60405180602001604052808a6001600160e01b031681525083614e23565b905061483481600001516040518060400160405280601a81526020017f6e657720696e6465782065786365656473203232342062697473000000000000815250614e4f565b985050505050505050506132d9565b50600098975050505050505050565b604080516020810190915260008152604051806020016040528061487e85600001518560000151614d63565b90529392505050565b6000610c9a61489e84670de0b6b3a7640000614da5565b8351614e97565b60006ec097ce7bc90715b34b9f10000000006148c5848460000151614da5565b610c9a91906155f0565b6040517fd81c5e4500000000000000000000000000000000000000000000000000000000815260ff821660048201526001600160a01b038381166024830152600091829182919087169063d81c5e45906044016040805180830381865afa15801561493e573d6000803e3d6000fd5b505050506040513d601f19601f8201168201806040525081019061496291906157ee565b6040517fcf9cfb6100000000000000000000000000000000000000000000000000000000815260ff871660048201526001600160a01b03888116602483015292945063ffffffff91909116925060009188169063cf9cfb6190604401602060405180830381865afa1580156149db573d6000803e3d6000fd5b505050506040513d601f19601f820116820180604052508101906149ff91906155b8565b90506000614a0d4284614d63565b9050600081118015614a1f5750600082115b15614b39576000876001600160a01b03166318160ddd6040518163ffffffff1660e01b8152600401602060405180830381865afa158015614a64573d6000803e3d6000fd5b505050506040513d601f19601f82011682018060405250810190614a8891906155b8565b90506000614a968385614da5565b90506000808311614ab65760405180602001604052806000815250614ac0565b614ac08284614de7565b90506000614ae560405180602001604052808a6001600160e01b031681525083614e23565b9050614b2a81600001516040518060400160405280601a81526020017f6e657720696e6465782065786365656473203232342062697473000000000000815250614e4f565b98505050505050505050610c9a565b506000979650505050505050565b600080826001600160a01b0316846001600160a01b031610614b6a578284614b6d565b83835b915091509250929050565b600080614b87836103e8615536565b614b9190876155d1565b90506000614b9f85836155d1565b9050600082614bb0886103e86155d1565b614bba919061554d565b90506144d281836155f0565b600080614bd38686614b47565b509050600080856001600160a01b0316630902f1ac6040518163ffffffff1660e01b8152600401606060405180830381865afa158015614c17573d6000803e3d6000fd5b505050506040513d601f19601f82011682018060405250810190614c3b91906157ab565b5091509150876001600160a01b0316836001600160a01b031614614c5b57905b600080614c8a8b856dffffffffffffffffffffffffffff16856dffffffffffffffffffffffffffff168a614b78565b9050896001600160a01b0316856001600160a01b031614614ca757905b614cbb6001600160a01b038b16898d614ed9565b604080516000815260208101918290527f022c0d9f000000000000000000000000000000000000000000000000000000009091526001600160a01b0389169063022c0d9f90614d139085908590309060248101615826565b600060405180830381600087803b158015614d2d57600080fd5b505af1158015614d41573d6000803e3d6000fd5b50505050818111614d525781614d54565b805b9b9a5050505050505050505050565b6000610c9a83836040518060400160405280601581526020017f7375627472616374696f6e20756e646572666c6f770000000000000000000000815250614f2b565b6000610c9a83836040518060400160405280601781526020017f6d756c7469706c69636174696f6e206f766572666c6f77000000000000000000815250614f5a565b604080516020810190915260008152604051806020016040528061487e614e1d866ec097ce7bc90715b34b9f1000000000614da5565b85614e97565b604080516020810190915260008152604051806020016040528061487e85600001518560000151614fad565b6000817c01000000000000000000000000000000000000000000000000000000008410614e8f5760405162461bcd60e51b81526004016103e591906152a1565b509192915050565b6000610c9a83836040518060400160405280600e81526020017f646976696465206279207a65726f000000000000000000000000000000000000815250614fef565b604080516001600160a01b038416602482015260448082018490528251808303909101815260649091019091526020810180516001600160e01b031663a9059cbb60e01b179052612a0990849061501b565b60008184841115614f4f5760405162461bcd60e51b81526004016103e591906152a1565b506132d98385615536565b6000831580614f67575082155b15614f7457506000610c9a565b6000614f8084866155d1565b905083614f8d86836155f0565b1483906143355760405162461bcd60e51b81526004016103e591906152a1565b6000610c9a83836040518060400160405280601181526020017f6164646974696f6e206f766572666c6f77000000000000000000000000000000815250615100565b600081836150105760405162461bcd60e51b81526004016103e591906152a1565b506132d983856155f0565b6000615070826040518060400160405280602081526020017f5361666545524332303a206c6f772d6c6576656c2063616c6c206661696c6564815250856001600160a01b03166151319092919063ffffffff16565b805190915015612a09578080602001905181019061508e9190615565565b612a095760405162461bcd60e51b815260206004820152602a60248201527f5361666545524332303a204552433230206f7065726174696f6e20646964206e60448201527f6f7420737563636565640000000000000000000000000000000000000000000060648201526084016103e5565b60008061510d848661554d565b905082858210156143355760405162461bcd60e51b81526004016103e591906152a1565b60606132d98484600085856001600160a01b0385163b6151935760405162461bcd60e51b815260206004820152601d60248201527f416464726573733a2063616c6c20746f206e6f6e2d636f6e747261637400000060448201526064016103e5565b600080866001600160a01b031685876040516151af919061585e565b60006040518083038185875af1925050503d80600081146151ec576040519150601f19603f3d011682016040523d82523d6000602084013e6151f1565b606091505b509150915061520182828661520c565b979650505050505050565b6060831561521b575081610c9a565b82511561522b5782518084602001fd5b8160405162461bcd60e51b81526004016103e591906152a1565b60005b83811015615260578181015183820152602001615248565b8381111561526f576000848401525b50505050565b6000815180845261528d816020860160208601615245565b601f01601f19169290920160200192915050565b602081526000610c9a6020830184615275565b80356001600160a01b03811681146152cb57600080fd5b919050565b600080604083850312156152e357600080fd5b6152ec836152b4565b946020939093013593505050565b60008060006060848603121561530f57600080fd5b615318846152b4565b9250615326602085016152b4565b9150604084013590509250925092565b60006020828403121561534857600080fd5b5035919050565b60006020828403121561536157600080fd5b610c9a826152b4565b803560ff811681146152cb57600080fd5b600080600080600060a0868803121561539357600080fd5b85359450602086013593506153aa6040870161536a565b94979396509394606081013594506080013592915050565b8015158114611c9c57600080fd5b6000602082840312156153e257600080fd5b8135610c9a816153c2565b6000806040838503121561540057600080fd5b615409836152b4565b9150615417602084016152b4565b90509250929050565b6000806040838503121561543357600080fd5b823591506020830135615445816153c2565b809150509250929050565b600080600080600080600060e0888a03121561546b57600080fd5b615474886152b4565b9650615482602089016152b4565b9550604088013594506060880135935061549e6080890161536a565b925060a0880135915060c0880135905092959891949750929550565b6000806000606084860312156154cf57600080fd5b505081359360208301359350604090920135919050565b600181811c908216806154fa57607f821691505b60208210810361551a57634e487b7160e01b600052602260045260246000fd5b50919050565b634e487b7160e01b600052601160045260246000fd5b60008282101561554857615548615520565b500390565b6000821982111561556057615560615520565b500190565b60006020828403121561557757600080fd5b8151610c9a816153c2565b6000806000806080858703121561559857600080fd5b505082516020840151604085015160609095015191969095509092509050565b6000602082840312156155ca57600080fd5b5051919050565b60008160001904831182151516156155eb576155eb615520565b500290565b60008261560d57634e487b7160e01b600052601260045260246000fd5b500490565b60006001820161562457615624615520565b5060010190565b600080835481600182811c91508083168061564757607f831692505b6020808410820361566657634e487b7160e01b86526022600452602486fd5b81801561567a576001811461568b576156b8565b60ff198616895284890196506156b8565b60008a81526020902060005b868110156156b05781548b820152908501908301615697565b505084890196505b509498975050505050505050565b634e487b7160e01b600052603260045260246000fd5b600081518084526020808501945080840160005b838110156157155781516001600160a01b0316875295820195908201906001016156f0565b509495945050505050565b60ff841681526001600160a01b03831660208201526060604082015260006132f160608301846156dc565b6000806040838503121561575e57600080fd5b8251615769816153c2565b6020939093015192949293505050565b80516dffffffffffffffffffffffffffff811681146152cb57600080fd5b805163ffffffff811681146152cb57600080fd5b6000806000606084860312156157c057600080fd5b6157c984615779565b92506157d760208501615779565b91506157e560408501615797565b90509250925092565b6000806040838503121561580157600080fd5b82516001600160e01b038116811461581857600080fd5b915061541760208401615797565b8481528360208201526001600160a01b03831660408201526080606082015260006158546080830184615275565b9695505050505050565b60008251615870818460208701615245565b919091019291505056fe4f776e61626c653a2063616c6c6572206973206e6f7420746865206f776e6572a26469706673582212202dc63a115b1b9abdcc089654a2691b9bdd633e573e8f11eadb61a21175cde54964736f6c634300080d00334f776e61626c653a2063616c6c6572206973206e6f7420746865206f776e65728be0079c531659141344cd1fd0a4f28419497f9722a3daafe3b4186f6b6457e0537761702070616972203020646f6573206e6f74206d61746368207265776172",
  "devdoc": {
    "kind": "dev",
    "methods": {
      "allowDepositor(address)": {
        "params": {
          "depositor": "address"
        }
      },
      "allowance(address,address)": {
        "params": {
          "account": "The address of the account holding the funds",
          "spender": "The address of the account spending the funds"
        },
        "returns": {
          "_0": "The number of tokens approved"
        }
      },
      "approve(address,uint256)": {
        "details": "This will overwrite the approval amount for `spender` and is subject to issues noted [here](https://eips.ethereum.org/EIPS/eip-20#approve) It is recommended to use increaseAllowance and decreaseAllowance instead",
        "params": {
          "amount": "The number of tokens that are approved (2^256-1 means infinite)",
          "spender": "The address of the account which may transfer tokens"
        },
        "returns": {
          "_0": "Whether or not the approval succeeded"
        }
      },
      "balanceOf(address)": {
        "params": {
          "account": "The address of the account to get the balance of"
        },
        "returns": {
          "_0": "The number of tokens held"
        }
      },
      "checkReward()": {
        "returns": {
          "_0": "reward tokens"
        }
      },
      "deposit(uint256)": {
        "details": "Must mint receipt tokens to `msg.sender`",
        "params": {
          "amount": "deposit tokens"
        }
      },
      "depositFor(address,uint256)": {
        "details": "Must mint receipt tokens to `account`",
        "params": {
          "account": "address to receive receipt tokens",
          "amount": "deposit tokens"
        }
      },
      "depositWithPermit(uint256,uint256,uint8,bytes32,bytes32)": {
        "details": "Should revert for tokens without Permit",
        "params": {
          "amount": "Amount of tokens to deposit",
          "deadline": "The time at which to expire the signature",
          "r": "Half of the ECDSA signature pair",
          "s": "Half of the ECDSA signature pair",
          "v": "The recovery byte of the signature"
        }
      },
      "estimateDeployedBalance()": {
        "returns": {
          "_0": "deposit tokens"
        }
      },
      "estimateReinvestReward()": {
        "returns": {
          "_0": "reward tokens"
        }
      },
      "getDepositTokensForShares(uint256)": {
        "params": {
          "amount": "receipt tokens"
        },
        "returns": {
          "_0": "deposit tokens"
        }
      },
      "getDomainSeparator()": {
        "returns": {
          "_0": "Separator"
        }
      },
      "getSharesForDepositTokens(uint256)": {
        "details": "If contract is empty, use 1:1 ratioCould return zero shares for very low amounts of deposit tokens",
        "params": {
          "amount": "deposit tokens"
        },
        "returns": {
          "_0": "receipt tokens"
        }
      },
      "owner()": {
        "details": "Returns the address of the current owner."
      },
      "permit(address,address,uint256,uint256,uint8,bytes32,bytes32)": {
        "params": {
          "deadline": "The time at which to expire the signature",
          "owner": "The address to approve from",
          "r": "Half of the ECDSA signature pair",
          "s": "Half of the ECDSA signature pair",
          "spender": "The address to be approved",
          "v": "The recovery byte of the signature",
          "value": "The number of tokens that are approved (2^256-1 means infinite)"
        }
      },
      "recoverAVAX(uint256)": {
        "params": {
          "amount": "amount"
        }
      },
      "recoverERC20(address,uint256)": {
        "params": {
          "tokenAddress": "token address",
          "tokenAmount": "amount to recover"
        }
      },
      "removeDepositor(address)": {
        "params": {
          "depositor": "address"
        }
      },
      "renounceOwnership()": {
        "details": "Leaves the contract without owner. It will not be possible to call `onlyOwner` functions anymore. Can only be called by the current owner. NOTE: Renouncing ownership will leave the contract without an owner, thereby removing any functionality that is only available to the owner."
      },
      "revokeAllowance(address,address)": {
        "params": {
          "spender": "address",
          "token": "address"
        }
      },
      "totalDeposits()": {
        "returns": {
          "_0": "total deposits available on the contract"
        }
      },
      "transfer(address,uint256)": {
        "params": {
          "amount": "The number of tokens to transfer",
          "dst": "The address of the destination account"
        },
        "returns": {
          "_0": "Whether or not the transfer succeeded"
        }
      },
      "transferFrom(address,address,uint256)": {
        "params": {
          "amount": "The number of tokens to transfer",
          "dst": "The address of the destination account",
          "src": "The address of the source account"
        },
        "returns": {
          "_0": "Whether or not the transfer succeeded"
        }
      },
      "transferOwnership(address)": {
        "details": "Transfers ownership of the contract to a new account (`newOwner`). Can only be called by the current owner."
      },
      "updateAdminFee(uint256)": {
        "details": "Deprecated; Kept for compatibility",
        "params": {
          "newValue": "fee in BIPS; required to be 0"
        }
      },
      "updateDepositsEnabled(bool)": {
        "params": {
          "newValue": "bool"
        }
      },
      "updateDevAddr(address)": {
        "params": {
          "newValue": "address"
        }
      },
      "updateDevFee(uint256)": {
        "params": {
          "newValue": "fee in BIPS"
        }
      },
      "updateMaxTokensToDepositWithoutReinvest(uint256)": {
        "params": {
          "newValue": "threshold"
        }
      },
      "updateMinTokensToReinvest(uint256)": {
        "params": {
          "newValue": "threshold"
        }
      },
      "updateReinvestReward(uint256)": {
        "params": {
          "newValue": "fee in BIPS"
        }
      },
      "withdraw(uint256)": {
        "params": {
          "amount": "receipt tokens"
        }
      }
    },
    "version": 1
  },
  "userdoc": {
    "kind": "user",
    "methods": {
      "allowDepositor(address)": {
        "notice": "Add an allowed depositor"
      },
      "allowance(address,address)": {
        "notice": "Get the number of tokens `spender` is approved to spend on behalf of `account`"
      },
      "approve(address,uint256)": {
        "notice": "Approve `spender` to transfer up to `amount` from `src`"
      },
      "balanceOf(address)": {
        "notice": "Get the number of tokens held by the `account`"
      },
      "checkReward()": {
        "notice": "Reward tokens available to strategy, including balance"
      },
      "deposit(uint256)": {
        "notice": "Deposit and deploy deposits tokens to the strategy"
      },
      "depositFor(address,uint256)": {
        "notice": "Deposit on behalf of another account"
      },
      "depositWithPermit(uint256,uint256,uint8,bytes32,bytes32)": {
        "notice": "Deposit using Permit"
      },
      "estimateDeployedBalance()": {
        "notice": "Estimated deposit token balance deployed by strategy, excluding balance"
      },
      "estimateReinvestReward()": {
        "notice": "Estimate reinvest reward"
      },
      "getDepositTokensForShares(uint256)": {
        "notice": "Calculate deposit tokens for a given amount of receipt tokens"
      },
      "getDomainSeparator()": {
        "notice": "EIP-712 Domain separator"
      },
      "getSharesForDepositTokens(uint256)": {
        "notice": "Calculate receipt tokens for a given amount of deposit tokens"
      },
      "permit(address,address,uint256,uint256,uint8,bytes32,bytes32)": {
        "notice": "Triggers an approval from owner to spender"
      },
      "recoverAVAX(uint256)": {
        "notice": "Recover AVAX from contract"
      },
      "recoverERC20(address,uint256)": {
        "notice": "Recover ERC20 from contract"
      },
      "reinvest()": {
        "notice": "Reinvest reward tokens into deposit tokens"
      },
      "removeDepositor(address)": {
        "notice": "Remove an allowed depositor"
      },
      "revokeAllowance(address,address)": {
        "notice": "Revoke token allowance"
      },
      "totalDeposits()": {
        "notice": "This function returns a snapshot of last available quotes"
      },
      "transfer(address,uint256)": {
        "notice": "Transfer `amount` tokens from `msg.sender` to `dst`"
      },
      "transferFrom(address,address,uint256)": {
        "notice": "Transfer `amount` tokens from `src` to `dst`"
      },
      "updateAdminFee(uint256)": {
        "notice": "Update admin fee"
      },
      "updateDepositsEnabled(bool)": {
        "notice": "Enable/disable deposits"
      },
      "updateDevAddr(address)": {
        "notice": "Update devAddr"
      },
      "updateDevFee(uint256)": {
        "notice": "Update developer fee"
      },
      "updateMaxTokensToDepositWithoutReinvest(uint256)": {
        "notice": "Update reinvest max threshold before a deposit"
      },
      "updateMinTokensToReinvest(uint256)": {
        "notice": "Update reinvest min threshold"
      },
      "updateReinvestReward(uint256)": {
        "notice": "Update reinvest reward"
      },
      "withdraw(uint256)": {
        "notice": "Redeem receipt tokens for deposit tokens"
      }
    },
    "version": 1
  },
  "storageLayout": {
    "storage": [
      {
        "astId": 552,
        "contract": "contracts/strategies/avalanche/benqi/BenqiStrategyV3.sol:BenqiStrategyV3",
        "label": "name",
        "offset": 0,
        "slot": "0",
        "type": "t_string_storage"
      },
      {
        "astId": 555,
        "contract": "contracts/strategies/avalanche/benqi/BenqiStrategyV3.sol:BenqiStrategyV3",
        "label": "symbol",
        "offset": 0,
        "slot": "1",
        "type": "t_string_storage"
      },
      {
        "astId": 560,
        "contract": "contracts/strategies/avalanche/benqi/BenqiStrategyV3.sol:BenqiStrategyV3",
        "label": "totalSupply",
        "offset": 0,
        "slot": "2",
        "type": "t_uint256"
      },
      {
        "astId": 566,
        "contract": "contracts/strategies/avalanche/benqi/BenqiStrategyV3.sol:BenqiStrategyV3",
        "label": "allowances",
        "offset": 0,
        "slot": "3",
        "type": "t_mapping(t_address,t_mapping(t_address,t_uint256))"
      },
      {
        "astId": 570,
        "contract": "contracts/strategies/avalanche/benqi/BenqiStrategyV3.sol:BenqiStrategyV3",
        "label": "balances",
        "offset": 0,
        "slot": "4",
        "type": "t_mapping(t_address,t_uint256)"
      },
      {
        "astId": 586,
        "contract": "contracts/strategies/avalanche/benqi/BenqiStrategyV3.sol:BenqiStrategyV3",
        "label": "nonces",
        "offset": 0,
        "slot": "5",
        "type": "t_mapping(t_address,t_uint256)"
      },
      {
        "astId": 8047,
        "contract": "contracts/strategies/avalanche/benqi/BenqiStrategyV3.sol:BenqiStrategyV3",
        "label": "_owner",
        "offset": 0,
        "slot": "6",
        "type": "t_address"
      },
      {
        "astId": 8156,
        "contract": "contracts/strategies/avalanche/benqi/BenqiStrategyV3.sol:BenqiStrategyV3",
        "label": "numberOfAllowedDepositors",
        "offset": 0,
        "slot": "7",
        "type": "t_uint256"
      },
      {
        "astId": 8160,
        "contract": "contracts/strategies/avalanche/benqi/BenqiStrategyV3.sol:BenqiStrategyV3",
        "label": "allowedDepositors",
        "offset": 0,
        "slot": "8",
        "type": "t_mapping(t_address,t_bool)"
      },
      {
        "astId": 1962,
        "contract": "contracts/strategies/avalanche/benqi/BenqiStrategyV3.sol:BenqiStrategyV3",
        "label": "devAddr",
        "offset": 0,
        "slot": "9",
        "type": "t_address"
      },
      {
        "astId": 1964,
        "contract": "contracts/strategies/avalanche/benqi/BenqiStrategyV3.sol:BenqiStrategyV3",
        "label": "MIN_TOKENS_TO_REINVEST",
        "offset": 0,
        "slot": "10",
        "type": "t_uint256"
      },
      {
        "astId": 1966,
        "contract": "contracts/strategies/avalanche/benqi/BenqiStrategyV3.sol:BenqiStrategyV3",
        "label": "MAX_TOKENS_TO_DEPOSIT_WITHOUT_REINVEST",
        "offset": 0,
        "slot": "11",
        "type": "t_uint256"
      },
      {
        "astId": 1968,
        "contract": "contracts/strategies/avalanche/benqi/BenqiStrategyV3.sol:BenqiStrategyV3",
        "label": "DEPOSITS_ENABLED",
        "offset": 0,
        "slot": "12",
        "type": "t_bool"
      },
      {
        "astId": 1970,
        "contract": "contracts/strategies/avalanche/benqi/BenqiStrategyV3.sol:BenqiStrategyV3",
        "label": "ADMIN_FEE_BIPS",
        "offset": 0,
        "slot": "13",
        "type": "t_uint256"
      },
      {
        "astId": 1972,
        "contract": "contracts/strategies/avalanche/benqi/BenqiStrategyV3.sol:BenqiStrategyV3",
        "label": "REINVEST_REWARD_BIPS",
        "offset": 0,
        "slot": "14",
        "type": "t_uint256"
      },
      {
        "astId": 1974,
        "contract": "contracts/strategies/avalanche/benqi/BenqiStrategyV3.sol:BenqiStrategyV3",
        "label": "DEV_FEE_BIPS",
        "offset": 0,
        "slot": "15",
        "type": "t_uint256"
      },
      {
        "astId": 24671,
        "contract": "contracts/strategies/avalanche/benqi/BenqiStrategyV3.sol:BenqiStrategyV3",
        "label": "rewardController",
        "offset": 0,
        "slot": "16",
        "type": "t_contract(IBenqiUnitroller)26631"
      },
      {
        "astId": 24674,
        "contract": "contracts/strategies/avalanche/benqi/BenqiStrategyV3.sol:BenqiStrategyV3",
        "label": "tokenDelegator",
        "offset": 0,
        "slot": "17",
        "type": "t_contract(IBenqiERC20Delegator)26436"
      },
      {
        "astId": 24677,
        "contract": "contracts/strategies/avalanche/benqi/BenqiStrategyV3.sol:BenqiStrategyV3",
        "label": "rewardToken0",
        "offset": 0,
        "slot": "18",
        "type": "t_contract(IERC20)5313"
      },
      {
        "astId": 24680,
        "contract": "contracts/strategies/avalanche/benqi/BenqiStrategyV3.sol:BenqiStrategyV3",
        "label": "rewardToken1",
        "offset": 0,
        "slot": "19",
        "type": "t_contract(IERC20)5313"
      },
      {
        "astId": 24683,
        "contract": "contracts/strategies/avalanche/benqi/BenqiStrategyV3.sol:BenqiStrategyV3",
        "label": "swapPairToken0",
        "offset": 0,
        "slot": "20",
        "type": "t_contract(IPair)5472"
      },
      {
        "astId": 24686,
        "contract": "contracts/strategies/avalanche/benqi/BenqiStrategyV3.sol:BenqiStrategyV3",
        "label": "swapPairToken1",
        "offset": 0,
        "slot": "21",
        "type": "t_contract(IPair)5472"
      },
      {
        "astId": 24694,
        "contract": "contracts/strategies/avalanche/benqi/BenqiStrategyV3.sol:BenqiStrategyV3",
        "label": "leverageLevel",
        "offset": 0,
        "slot": "22",
        "type": "t_uint256"
      },
      {
        "astId": 24696,
        "contract": "contracts/strategies/avalanche/benqi/BenqiStrategyV3.sol:BenqiStrategyV3",
        "label": "leverageBips",
        "offset": 0,
        "slot": "23",
        "type": "t_uint256"
      },
      {
        "astId": 24698,
        "contract": "contracts/strategies/avalanche/benqi/BenqiStrategyV3.sol:BenqiStrategyV3",
        "label": "minMinting",
        "offset": 0,
        "slot": "24",
        "type": "t_uint256"
      },
      {
        "astId": 24700,
        "contract": "contracts/strategies/avalanche/benqi/BenqiStrategyV3.sol:BenqiStrategyV3",
        "label": "redeemLimitSafetyMargin",
        "offset": 0,
        "slot": "25",
        "type": "t_uint256"
      }
    ],
    "types": {
      "t_address": {
        "encoding": "inplace",
        "label": "address",
        "numberOfBytes": "20"
      },
      "t_bool": {
        "encoding": "inplace",
        "label": "bool",
        "numberOfBytes": "1"
      },
      "t_contract(IBenqiERC20Delegator)26436": {
        "encoding": "inplace",
        "label": "contract IBenqiERC20Delegator",
        "numberOfBytes": "20"
      },
      "t_contract(IBenqiUnitroller)26631": {
        "encoding": "inplace",
        "label": "contract IBenqiUnitroller",
        "numberOfBytes": "20"
      },
      "t_contract(IERC20)5313": {
        "encoding": "inplace",
        "label": "contract IERC20",
        "numberOfBytes": "20"
      },
      "t_contract(IPair)5472": {
        "encoding": "inplace",
        "label": "contract IPair",
        "numberOfBytes": "20"
      },
      "t_mapping(t_address,t_bool)": {
        "encoding": "mapping",
        "key": "t_address",
        "label": "mapping(address => bool)",
        "numberOfBytes": "32",
        "value": "t_bool"
      },
      "t_mapping(t_address,t_mapping(t_address,t_uint256))": {
        "encoding": "mapping",
        "key": "t_address",
        "label": "mapping(address => mapping(address => uint256))",
        "numberOfBytes": "32",
        "value": "t_mapping(t_address,t_uint256)"
      },
      "t_mapping(t_address,t_uint256)": {
        "encoding": "mapping",
        "key": "t_address",
        "label": "mapping(address => uint256)",
        "numberOfBytes": "32",
        "value": "t_uint256"
      },
      "t_string_storage": {
        "encoding": "bytes",
        "label": "string",
        "numberOfBytes": "32"
      },
      "t_uint256": {
        "encoding": "inplace",
        "label": "uint256",
        "numberOfBytes": "32"
      }
    }
  }
}