{
  "address": "0x4d9134777801b4b582Af82791439F2f0108BDAf6",
  "abi": [
    {
      "inputs": [
        {
          "internalType": "address",
          "name": "_swapPairDepositToken",
          "type": "address"
        },
        {
          "internalType": "address",
          "name": "_rewardController",
          "type": "address"
        },
        {
          "internalType": "address",
          "name": "_tokenDelegator",
          "type": "address"
        },
        {
          "components": [
            {
              "internalType": "string",
              "name": "name",
              "type": "string"
            },
            {
              "internalType": "address",
              "name": "platformToken",
              "type": "address"
            },
            {
              "components": [
                {
                  "internalType": "address",
                  "name": "reward",
                  "type": "address"
                },
                {
                  "internalType": "address",
                  "name": "swapPair",
                  "type": "address"
                },
                {
                  "internalType": "uint256",
                  "name": "swapFee",
                  "type": "uint256"
                }
              ],
              "internalType": "struct VariableRewardsStrategy.RewardSwapPair[]",
              "name": "rewardSwapPairs",
              "type": "tuple[]"
            },
            {
              "internalType": "address",
              "name": "timelock",
              "type": "address"
            }
          ],
          "internalType": "struct VariableRewardsStrategy.VariableRewardsStrategySettings",
          "name": "_settings",
          "type": "tuple"
        },
        {
          "components": [
            {
              "internalType": "address",
              "name": "depositToken",
              "type": "address"
            },
            {
              "internalType": "address",
              "name": "rewardToken",
              "type": "address"
            },
            {
              "internalType": "uint256",
              "name": "minTokensToReinvest",
              "type": "uint256"
            },
            {
              "internalType": "uint256",
              "name": "devFeeBips",
              "type": "uint256"
            },
            {
              "internalType": "uint256",
              "name": "reinvestRewardBips",
              "type": "uint256"
            }
          ],
          "internalType": "struct YakStrategyV2.StrategySettings",
          "name": "_strategySettings",
          "type": "tuple"
        }
      ],
      "stateMutability": "nonpayable",
      "type": "constructor"
    },
    {
      "anonymous": false,
      "inputs": [
        {
          "indexed": false,
          "internalType": "address",
          "name": "rewardToken",
          "type": "address"
        },
        {
          "indexed": false,
          "internalType": "address",
          "name": "swapPair",
          "type": "address"
        }
      ],
      "name": "AddReward",
      "type": "event"
    },
    {
      "anonymous": false,
      "inputs": [
        {
          "indexed": true,
          "internalType": "address",
          "name": "account",
          "type": "address"
        }
      ],
      "name": "AllowDepositor",
      "type": "event"
    },
    {
      "anonymous": false,
      "inputs": [
        {
          "indexed": true,
          "internalType": "address",
          "name": "owner",
          "type": "address"
        },
        {
          "indexed": true,
          "internalType": "address",
          "name": "spender",
          "type": "address"
        },
        {
          "indexed": false,
          "internalType": "uint256",
          "name": "value",
          "type": "uint256"
        }
      ],
      "name": "Approval",
      "type": "event"
    },
    {
      "anonymous": false,
      "inputs": [
        {
          "indexed": true,
          "internalType": "address",
          "name": "account",
          "type": "address"
        },
        {
          "indexed": false,
          "internalType": "uint256",
          "name": "amount",
          "type": "uint256"
        }
      ],
      "name": "Deposit",
      "type": "event"
    },
    {
      "anonymous": false,
      "inputs": [
        {
          "indexed": false,
          "internalType": "bool",
          "name": "newValue",
          "type": "bool"
        }
      ],
      "name": "DepositsEnabled",
      "type": "event"
    },
    {
      "anonymous": false,
      "inputs": [
        {
          "indexed": true,
          "internalType": "address",
          "name": "previousOwner",
          "type": "address"
        },
        {
          "indexed": true,
          "internalType": "address",
          "name": "newOwner",
          "type": "address"
        }
      ],
      "name": "OwnershipTransferred",
      "type": "event"
    },
    {
      "anonymous": false,
      "inputs": [
        {
          "indexed": false,
          "internalType": "address",
          "name": "token",
          "type": "address"
        },
        {
          "indexed": false,
          "internalType": "uint256",
          "name": "amount",
          "type": "uint256"
        }
      ],
      "name": "Recovered",
      "type": "event"
    },
    {
      "anonymous": false,
      "inputs": [
        {
          "indexed": false,
          "internalType": "uint256",
          "name": "newTotalDeposits",
          "type": "uint256"
        },
        {
          "indexed": false,
          "internalType": "uint256",
          "name": "newTotalSupply",
          "type": "uint256"
        }
      ],
      "name": "Reinvest",
      "type": "event"
    },
    {
      "anonymous": false,
      "inputs": [
        {
          "indexed": true,
          "internalType": "address",
          "name": "account",
          "type": "address"
        }
      ],
      "name": "RemoveDepositor",
      "type": "event"
    },
    {
      "anonymous": false,
      "inputs": [
        {
          "indexed": false,
          "internalType": "address",
          "name": "rewardToken",
          "type": "address"
        }
      ],
      "name": "RemoveReward",
      "type": "event"
    },
    {
      "anonymous": false,
      "inputs": [
        {
          "indexed": true,
          "internalType": "address",
          "name": "from",
          "type": "address"
        },
        {
          "indexed": true,
          "internalType": "address",
          "name": "to",
          "type": "address"
        },
        {
          "indexed": false,
          "internalType": "uint256",
          "name": "value",
          "type": "uint256"
        }
      ],
      "name": "Transfer",
      "type": "event"
    },
    {
      "anonymous": false,
      "inputs": [
        {
          "indexed": false,
          "internalType": "uint256",
          "name": "oldValue",
          "type": "uint256"
        },
        {
          "indexed": false,
          "internalType": "uint256",
          "name": "newValue",
          "type": "uint256"
        }
      ],
      "name": "UpdateAdminFee",
      "type": "event"
    },
    {
      "anonymous": false,
      "inputs": [
        {
          "indexed": false,
          "internalType": "address",
          "name": "oldValue",
          "type": "address"
        },
        {
          "indexed": false,
          "internalType": "address",
          "name": "newValue",
          "type": "address"
        }
      ],
      "name": "UpdateDevAddr",
      "type": "event"
    },
    {
      "anonymous": false,
      "inputs": [
        {
          "indexed": false,
          "internalType": "uint256",
          "name": "oldValue",
          "type": "uint256"
        },
        {
          "indexed": false,
          "internalType": "uint256",
          "name": "newValue",
          "type": "uint256"
        }
      ],
      "name": "UpdateDevFee",
      "type": "event"
    },
    {
      "anonymous": false,
      "inputs": [
        {
          "indexed": false,
          "internalType": "uint256",
          "name": "oldValue",
          "type": "uint256"
        },
        {
          "indexed": false,
          "internalType": "uint256",
          "name": "newValue",
          "type": "uint256"
        }
      ],
      "name": "UpdateMaxTokensToDepositWithoutReinvest",
      "type": "event"
    },
    {
      "anonymous": false,
      "inputs": [
        {
          "indexed": false,
          "internalType": "uint256",
          "name": "oldValue",
          "type": "uint256"
        },
        {
          "indexed": false,
          "internalType": "uint256",
          "name": "newValue",
          "type": "uint256"
        }
      ],
      "name": "UpdateMinTokensToReinvest",
      "type": "event"
    },
    {
      "anonymous": false,
      "inputs": [
        {
          "indexed": false,
          "internalType": "uint256",
          "name": "oldValue",
          "type": "uint256"
        },
        {
          "indexed": false,
          "internalType": "uint256",
          "name": "newValue",
          "type": "uint256"
        }
      ],
      "name": "UpdateReinvestReward",
      "type": "event"
    },
    {
      "anonymous": false,
      "inputs": [
        {
          "indexed": true,
          "internalType": "address",
          "name": "account",
          "type": "address"
        },
        {
          "indexed": false,
          "internalType": "uint256",
          "name": "amount",
          "type": "uint256"
        }
      ],
      "name": "Withdraw",
      "type": "event"
    },
    {
      "inputs": [],
      "name": "ADMIN_FEE_BIPS",
      "outputs": [
        {
          "internalType": "uint256",
          "name": "",
          "type": "uint256"
        }
      ],
      "stateMutability": "view",
      "type": "function"
    },
    {
      "inputs": [],
      "name": "DEPOSITS_ENABLED",
      "outputs": [
        {
          "internalType": "bool",
          "name": "",
          "type": "bool"
        }
      ],
      "stateMutability": "view",
      "type": "function"
    },
    {
      "inputs": [],
      "name": "DEV_FEE_BIPS",
      "outputs": [
        {
          "internalType": "uint256",
          "name": "",
          "type": "uint256"
        }
      ],
      "stateMutability": "view",
      "type": "function"
    },
    {
      "inputs": [],
      "name": "DOMAIN_TYPEHASH",
      "outputs": [
        {
          "internalType": "bytes32",
          "name": "",
          "type": "bytes32"
        }
      ],
      "stateMutability": "view",
      "type": "function"
    },
    {
      "inputs": [],
      "name": "MAX_TOKENS_TO_DEPOSIT_WITHOUT_REINVEST",
      "outputs": [
        {
          "internalType": "uint256",
          "name": "",
          "type": "uint256"
        }
      ],
      "stateMutability": "view",
      "type": "function"
    },
    {
      "inputs": [],
      "name": "MIN_TOKENS_TO_REINVEST",
      "outputs": [
        {
          "internalType": "uint256",
          "name": "",
          "type": "uint256"
        }
      ],
      "stateMutability": "view",
      "type": "function"
    },
    {
      "inputs": [],
      "name": "PERMIT_TYPEHASH",
      "outputs": [
        {
          "internalType": "bytes32",
          "name": "",
          "type": "bytes32"
        }
      ],
      "stateMutability": "view",
      "type": "function"
    },
    {
      "inputs": [],
      "name": "REINVEST_REWARD_BIPS",
      "outputs": [
        {
          "internalType": "uint256",
          "name": "",
          "type": "uint256"
        }
      ],
      "stateMutability": "view",
      "type": "function"
    },
    {
      "inputs": [],
      "name": "VERSION_HASH",
      "outputs": [
        {
          "internalType": "bytes32",
          "name": "",
          "type": "bytes32"
        }
      ],
      "stateMutability": "view",
      "type": "function"
    },
    {
      "inputs": [
        {
          "internalType": "address",
          "name": "_rewardToken",
          "type": "address"
        },
        {
          "internalType": "address",
          "name": "_swapPair",
          "type": "address"
        }
      ],
      "name": "addReward",
      "outputs": [],
      "stateMutability": "nonpayable",
      "type": "function"
    },
    {
      "inputs": [
        {
          "internalType": "address",
          "name": "_rewardToken",
          "type": "address"
        },
        {
          "internalType": "address",
          "name": "_swapPair",
          "type": "address"
        },
        {
          "internalType": "uint256",
          "name": "_swapFee",
          "type": "uint256"
        }
      ],
      "name": "addReward",
      "outputs": [],
      "stateMutability": "nonpayable",
      "type": "function"
    },
    {
      "inputs": [
        {
          "internalType": "address",
          "name": "depositor",
          "type": "address"
        }
      ],
      "name": "allowDepositor",
      "outputs": [],
      "stateMutability": "nonpayable",
      "type": "function"
    },
    {
      "inputs": [
        {
          "internalType": "address",
          "name": "account",
          "type": "address"
        },
        {
          "internalType": "address",
          "name": "spender",
          "type": "address"
        }
      ],
      "name": "allowance",
      "outputs": [
        {
          "internalType": "uint256",
          "name": "",
          "type": "uint256"
        }
      ],
      "stateMutability": "view",
      "type": "function"
    },
    {
      "inputs": [
        {
          "internalType": "address",
          "name": "",
          "type": "address"
        }
      ],
      "name": "allowedDepositors",
      "outputs": [
        {
          "internalType": "bool",
          "name": "",
          "type": "bool"
        }
      ],
      "stateMutability": "view",
      "type": "function"
    },
    {
      "inputs": [
        {
          "internalType": "address",
          "name": "spender",
          "type": "address"
        },
        {
          "internalType": "uint256",
          "name": "amount",
          "type": "uint256"
        }
      ],
      "name": "approve",
      "outputs": [
        {
          "internalType": "bool",
          "name": "",
          "type": "bool"
        }
      ],
      "stateMutability": "nonpayable",
      "type": "function"
    },
    {
      "inputs": [
        {
          "internalType": "address",
          "name": "account",
          "type": "address"
        }
      ],
      "name": "balanceOf",
      "outputs": [
        {
          "internalType": "uint256",
          "name": "",
          "type": "uint256"
        }
      ],
      "stateMutability": "view",
      "type": "function"
    },
    {
      "inputs": [
        {
          "internalType": "uint256",
          "name": "_amount",
          "type": "uint256"
        }
      ],
      "name": "calculateDepositFee",
      "outputs": [
        {
          "internalType": "uint256",
          "name": "",
          "type": "uint256"
        }
      ],
      "stateMutability": "view",
      "type": "function"
    },
    {
      "inputs": [
        {
          "internalType": "uint256",
          "name": "_amount",
          "type": "uint256"
        }
      ],
      "name": "calculateWithdrawFee",
      "outputs": [
        {
          "internalType": "uint256",
          "name": "",
          "type": "uint256"
        }
      ],
      "stateMutability": "view",
      "type": "function"
    },
    {
      "inputs": [],
      "name": "checkReward",
      "outputs": [
        {
          "internalType": "uint256",
          "name": "",
          "type": "uint256"
        }
      ],
      "stateMutability": "view",
      "type": "function"
    },
    {
      "inputs": [],
      "name": "decimals",
      "outputs": [
        {
          "internalType": "uint8",
          "name": "",
          "type": "uint8"
        }
      ],
      "stateMutability": "view",
      "type": "function"
    },
    {
      "inputs": [
        {
          "internalType": "uint256",
          "name": "_amount",
          "type": "uint256"
        }
      ],
      "name": "deposit",
      "outputs": [],
      "stateMutability": "nonpayable",
      "type": "function"
    },
    {
      "inputs": [
        {
          "internalType": "address",
          "name": "_account",
          "type": "address"
        },
        {
          "internalType": "uint256",
          "name": "_amount",
          "type": "uint256"
        }
      ],
      "name": "depositFor",
      "outputs": [],
      "stateMutability": "nonpayable",
      "type": "function"
    },
    {
      "inputs": [],
      "name": "depositToken",
      "outputs": [
        {
          "internalType": "contract IERC20",
          "name": "",
          "type": "address"
        }
      ],
      "stateMutability": "view",
      "type": "function"
    },
    {
      "inputs": [
        {
          "internalType": "uint256",
          "name": "_amount",
          "type": "uint256"
        },
        {
          "internalType": "uint256",
          "name": "_deadline",
          "type": "uint256"
        },
        {
          "internalType": "uint8",
          "name": "_v",
          "type": "uint8"
        },
        {
          "internalType": "bytes32",
          "name": "_r",
          "type": "bytes32"
        },
        {
          "internalType": "bytes32",
          "name": "_s",
          "type": "bytes32"
        }
      ],
      "name": "depositWithPermit",
      "outputs": [],
      "stateMutability": "nonpayable",
      "type": "function"
    },
    {
      "inputs": [],
      "name": "devAddr",
      "outputs": [
        {
          "internalType": "address",
          "name": "",
          "type": "address"
        }
      ],
      "stateMutability": "view",
      "type": "function"
    },
    {
      "inputs": [],
      "name": "estimateDeployedBalance",
      "outputs": [
        {
          "internalType": "uint256",
          "name": "",
          "type": "uint256"
        }
      ],
      "stateMutability": "view",
      "type": "function"
    },
    {
      "inputs": [],
      "name": "estimateReinvestReward",
      "outputs": [
        {
          "internalType": "uint256",
          "name": "",
          "type": "uint256"
        }
      ],
      "stateMutability": "view",
      "type": "function"
    },
    {
      "inputs": [
        {
          "internalType": "uint256",
          "name": "amount",
          "type": "uint256"
        }
      ],
      "name": "getDepositTokensForShares",
      "outputs": [
        {
          "internalType": "uint256",
          "name": "",
          "type": "uint256"
        }
      ],
      "stateMutability": "view",
      "type": "function"
    },
    {
      "inputs": [],
      "name": "getDomainSeparator",
      "outputs": [
        {
          "internalType": "bytes32",
          "name": "",
          "type": "bytes32"
        }
      ],
      "stateMutability": "view",
      "type": "function"
    },
    {
      "inputs": [
        {
          "internalType": "uint256",
          "name": "amount",
          "type": "uint256"
        }
      ],
      "name": "getSharesForDepositTokens",
      "outputs": [
        {
          "internalType": "uint256",
          "name": "",
          "type": "uint256"
        }
      ],
      "stateMutability": "view",
      "type": "function"
    },
    {
      "inputs": [],
      "name": "name",
      "outputs": [
        {
          "internalType": "string",
          "name": "",
          "type": "string"
        }
      ],
      "stateMutability": "view",
      "type": "function"
    },
    {
      "inputs": [
        {
          "internalType": "address",
          "name": "",
          "type": "address"
        }
      ],
      "name": "nonces",
      "outputs": [
        {
          "internalType": "uint256",
          "name": "",
          "type": "uint256"
        }
      ],
      "stateMutability": "view",
      "type": "function"
    },
    {
      "inputs": [],
      "name": "numberOfAllowedDepositors",
      "outputs": [
        {
          "internalType": "uint256",
          "name": "",
          "type": "uint256"
        }
      ],
      "stateMutability": "view",
      "type": "function"
    },
    {
      "inputs": [],
      "name": "owner",
      "outputs": [
        {
          "internalType": "address",
          "name": "",
          "type": "address"
        }
      ],
      "stateMutability": "view",
      "type": "function"
    },
    {
      "inputs": [
        {
          "internalType": "address",
          "name": "owner",
          "type": "address"
        },
        {
          "internalType": "address",
          "name": "spender",
          "type": "address"
        },
        {
          "internalType": "uint256",
          "name": "value",
          "type": "uint256"
        },
        {
          "internalType": "uint256",
          "name": "deadline",
          "type": "uint256"
        },
        {
          "internalType": "uint8",
          "name": "v",
          "type": "uint8"
        },
        {
          "internalType": "bytes32",
          "name": "r",
          "type": "bytes32"
        },
        {
          "internalType": "bytes32",
          "name": "s",
          "type": "bytes32"
        }
      ],
      "name": "permit",
      "outputs": [],
      "stateMutability": "nonpayable",
      "type": "function"
    },
    {
      "inputs": [
        {
          "internalType": "uint256",
          "name": "amount",
          "type": "uint256"
        }
      ],
      "name": "recoverAVAX",
      "outputs": [],
      "stateMutability": "nonpayable",
      "type": "function"
    },
    {
      "inputs": [
        {
          "internalType": "address",
          "name": "tokenAddress",
          "type": "address"
        },
        {
          "internalType": "uint256",
          "name": "tokenAmount",
          "type": "uint256"
        }
      ],
      "name": "recoverERC20",
      "outputs": [],
      "stateMutability": "nonpayable",
      "type": "function"
    },
    {
      "inputs": [],
      "name": "reinvest",
      "outputs": [],
      "stateMutability": "nonpayable",
      "type": "function"
    },
    {
      "inputs": [
        {
          "internalType": "address",
          "name": "depositor",
          "type": "address"
        }
      ],
      "name": "removeDepositor",
      "outputs": [],
      "stateMutability": "nonpayable",
      "type": "function"
    },
    {
      "inputs": [
        {
          "internalType": "address",
          "name": "_rewardToken",
          "type": "address"
        }
      ],
      "name": "removeReward",
      "outputs": [],
      "stateMutability": "nonpayable",
      "type": "function"
    },
    {
      "inputs": [],
      "name": "renounceOwnership",
      "outputs": [],
      "stateMutability": "nonpayable",
      "type": "function"
    },
    {
      "inputs": [
        {
          "internalType": "uint256",
          "name": "_minReturnAmountAccepted",
          "type": "uint256"
        },
        {
          "internalType": "bool",
          "name": "",
          "type": "bool"
        }
      ],
      "name": "rescueDeployedFunds",
      "outputs": [],
      "stateMutability": "nonpayable",
      "type": "function"
    },
    {
      "inputs": [
        {
          "internalType": "address",
          "name": "token",
          "type": "address"
        },
        {
          "internalType": "address",
          "name": "spender",
          "type": "address"
        }
      ],
      "name": "revokeAllowance",
      "outputs": [],
      "stateMutability": "nonpayable",
      "type": "function"
    },
    {
      "inputs": [],
      "name": "rewardCount",
      "outputs": [
        {
          "internalType": "uint256",
          "name": "",
          "type": "uint256"
        }
      ],
      "stateMutability": "view",
      "type": "function"
    },
    {
      "inputs": [
        {
          "internalType": "address",
          "name": "",
          "type": "address"
        }
      ],
      "name": "rewardSwapPairs",
      "outputs": [
        {
          "internalType": "address",
          "name": "reward",
          "type": "address"
        },
        {
          "internalType": "address",
          "name": "swapPair",
          "type": "address"
        },
        {
          "internalType": "uint256",
          "name": "swapFee",
          "type": "uint256"
        }
      ],
      "stateMutability": "view",
      "type": "function"
    },
    {
      "inputs": [],
      "name": "rewardToken",
      "outputs": [
        {
          "internalType": "contract IERC20",
          "name": "",
          "type": "address"
        }
      ],
      "stateMutability": "view",
      "type": "function"
    },
    {
      "inputs": [
        {
          "internalType": "uint256",
          "name": "",
          "type": "uint256"
        }
      ],
      "name": "supportedRewards",
      "outputs": [
        {
          "internalType": "address",
          "name": "",
          "type": "address"
        }
      ],
      "stateMutability": "view",
      "type": "function"
    },
    {
      "inputs": [],
      "name": "symbol",
      "outputs": [
        {
          "internalType": "string",
          "name": "",
          "type": "string"
        }
      ],
      "stateMutability": "view",
      "type": "function"
    },
    {
      "inputs": [],
      "name": "totalDeposits",
      "outputs": [
        {
          "internalType": "uint256",
          "name": "",
          "type": "uint256"
        }
      ],
      "stateMutability": "view",
      "type": "function"
    },
    {
      "inputs": [],
      "name": "totalSupply",
      "outputs": [
        {
          "internalType": "uint256",
          "name": "",
          "type": "uint256"
        }
      ],
      "stateMutability": "view",
      "type": "function"
    },
    {
      "inputs": [
        {
          "internalType": "address",
          "name": "dst",
          "type": "address"
        },
        {
          "internalType": "uint256",
          "name": "amount",
          "type": "uint256"
        }
      ],
      "name": "transfer",
      "outputs": [
        {
          "internalType": "bool",
          "name": "",
          "type": "bool"
        }
      ],
      "stateMutability": "nonpayable",
      "type": "function"
    },
    {
      "inputs": [
        {
          "internalType": "address",
          "name": "src",
          "type": "address"
        },
        {
          "internalType": "address",
          "name": "dst",
          "type": "address"
        },
        {
          "internalType": "uint256",
          "name": "amount",
          "type": "uint256"
        }
      ],
      "name": "transferFrom",
      "outputs": [
        {
          "internalType": "bool",
          "name": "",
          "type": "bool"
        }
      ],
      "stateMutability": "nonpayable",
      "type": "function"
    },
    {
      "inputs": [
        {
          "internalType": "address",
          "name": "newOwner",
          "type": "address"
        }
      ],
      "name": "transferOwnership",
      "outputs": [],
      "stateMutability": "nonpayable",
      "type": "function"
    },
    {
      "inputs": [
        {
          "internalType": "uint256",
          "name": "newValue",
          "type": "uint256"
        }
      ],
      "name": "updateAdminFee",
      "outputs": [],
      "stateMutability": "nonpayable",
      "type": "function"
    },
    {
      "inputs": [
        {
          "internalType": "bool",
          "name": "newValue",
          "type": "bool"
        }
      ],
      "name": "updateDepositsEnabled",
      "outputs": [],
      "stateMutability": "nonpayable",
      "type": "function"
    },
    {
      "inputs": [
        {
          "internalType": "address",
          "name": "newValue",
          "type": "address"
        }
      ],
      "name": "updateDevAddr",
      "outputs": [],
      "stateMutability": "nonpayable",
      "type": "function"
    },
    {
      "inputs": [
        {
          "internalType": "uint256",
          "name": "newValue",
          "type": "uint256"
        }
      ],
      "name": "updateDevFee",
      "outputs": [],
      "stateMutability": "nonpayable",
      "type": "function"
    },
    {
      "inputs": [
        {
          "internalType": "uint256",
          "name": "newValue",
          "type": "uint256"
        }
      ],
      "name": "updateMaxTokensToDepositWithoutReinvest",
      "outputs": [],
      "stateMutability": "nonpayable",
      "type": "function"
    },
    {
      "inputs": [
        {
          "internalType": "uint256",
          "name": "newValue",
          "type": "uint256"
        }
      ],
      "name": "updateMinTokensToReinvest",
      "outputs": [],
      "stateMutability": "nonpayable",
      "type": "function"
    },
    {
      "inputs": [
        {
          "internalType": "uint256",
          "name": "newValue",
          "type": "uint256"
        }
      ],
      "name": "updateReinvestReward",
      "outputs": [],
      "stateMutability": "nonpayable",
      "type": "function"
    },
    {
      "inputs": [
        {
          "internalType": "uint256",
          "name": "_amount",
          "type": "uint256"
        }
      ],
      "name": "withdraw",
      "outputs": [],
      "stateMutability": "nonpayable",
      "type": "function"
    }
  ],
  "transactionHash": "0xf3e7fc906ae68caf99d75f3f15fe78489fd7ce2215b226f639e57b307cfb3405",
  "args": [
    "0x0000000000000000000000000000000000000000",
    "0x486Af39519B4Dc9a7fCcd318217352830E8AD9b4",
    "0x35Bd6aedA81a7E5FC7A7832490e71F757b0cD9Ce",
    {
      "name": "Yield Yak: Benqi QI",
      "platformToken": "0xB31f66AA3C1e785363F0875A1B74E27b85FD66c7",
      "rewardSwapPairs": [
        {
          "reward": "0x8729438EB15e2C8B576fCc6AeCdA6A148776C0F5",
          "swapPair": "0xe530dc2095ef5653205cf5ea79f8979a7028065c",
          "swapFee": "3"
        }
      ],
      "timelock": "0x302404cb8f34713a8b8dbf9b4989a41252332068"
    },
    {
      "depositToken": "0x8729438EB15e2C8B576fCc6AeCdA6A148776C0F5",
      "rewardToken": "0x8729438EB15e2C8B576fCc6AeCdA6A148776C0F5",
      "minTokensToReinvest": "100000000000000000",
      "devFeeBips": "700",
      "reinvestRewardBips": "300"
    }
  ],
  "solcInputHash": "b19b0c29fa4a9c27443fa0699bac9f08",
  "bytecode": "0x610120604052600960e0819052685969656c642059616b60b81b6101009081526200002e916000919062000be0565b506040805180820190915260038082526216549560ea1b60209092019182526200005b9160019162000be0565b503480156200006957600080fd5b506040516200623f3803806200623f8339810160408190526200008c9162000e9b565b848282818180600033600680546001600160a01b0319166001600160a01b038316908117909155604051919250906000906000805160206200621f833981519152908290a35080516001600160a01b0390811660805260208201511660a0526040810151620000fb90620002bd565b60608101516200010b906200034d565b60808101516200011b90620003f8565b5081518051620001349160009160209091019062000be0565b5060208201516001600160a01b031660c052600980546001600160a01b031916732d580f9cf2fb2d09bc411532988f2afda4e7beff17905560005b8260400151518110156200021157620001fc836040015182815181106200019a576200019a62001024565b60200260200101516000015184604001518381518110620001bf57620001bf62001024565b60200260200101516020015185604001518481518110620001e457620001e462001024565b602002602001015160400151620004a360201b60201c565b80620002088162001050565b9150506200016f565b506200021e60016200064f565b60608201516200022e90620006f9565b60408051600080825260208201527fc7606d21ac05cd309191543e409f0845c016120563783d70e4f41419dc0ef234910160405180910390a15062000275905083620007f6565b5050601480546001600160a01b038088166001600160a01b031992831617909255601580549287169290911691909117905550620002b2620008e9565b5050505050620011d0565b6006546001600160a01b031633146200030c5760405162461bcd60e51b81526020600482018190526024820152600080516020620061ff83398151915260448201526064015b60405180910390fd5b600a5460408051918252602082018390527f481f79ac3a523b6d6db3c5a720e190e986d1cc1b41adcdf50f9caef849901100910160405180910390a1600a55565b6006546001600160a01b03163314620003985760405162461bcd60e51b81526020600482018190526024820152600080516020620061ff833981519152604482015260640162000303565b612710600e5482620003ab91906200106c565b1115620003b757600080fd5b600f5460408051918252602082018390527f2a42303d002f0ba6cfe8259c91d4684443fb0b3de286ba74991175d651726131910160405180910390a1600f55565b6006546001600160a01b03163314620004435760405162461bcd60e51b81526020600482018190526024820152600080516020620061ff833981519152604482015260640162000303565b612710600f54826200045691906200106c565b11156200046257600080fd5b600e5460408051918252602082018390527fe7f97d51d307dc44045597c9978bec0f842e6bb40d19b9444084cfa30d9ed4f2910160405180910390a1600e55565b60a0516001600160a01b0316836001600160a01b0316146200054f57620004d9828460a051620009bb60201b6200246e1760201c565b6200054f576040805162461bcd60e51b81526020600482015260248101919091527f5661726961626c655265776172647353747261746567793a3a5377617020706160448201527f697220646f6573206e6f7420636f6e7461696e2072657761726420746f6b656e606482015260840162000303565b604080516060810182526001600160a01b03808616808352858216602080850191825284860187815260008481526010909252958120945185549085166001600160a01b03199182161786559151600180870180549290961691841691909117909455945160029094019390935560118054808401825594527f31ecc21a745e3968a04e9570e4425bc18fa8019c68028196b546d1669c200c689093018054909216909217905560125462000604916200106c565b601255604080516001600160a01b038086168252841660208201527f916e172c080569186aa7ea048268267257cf7cc49505908863f747bca8620f80910160405180910390a1505050565b6006546001600160a01b031633146200069a5760405162461bcd60e51b81526020600482018190526024820152600080516020620061ff833981519152604482015260640162000303565b600c5481151560ff909116151503620006b257600080fd5b600c805460ff19168215159081179091556040519081527f7b014ed3854e7f5cb0218d58b3c6ae7d53a68bb0af2f67bfb029ea42c38a7e859060200160405180910390a150565b6006546001600160a01b03163314620007445760405162461bcd60e51b81526020600482018190526024820152600080516020620061ff833981519152604482015260640162000303565b6001600160a01b038116620007ab5760405162461bcd60e51b815260206004820152602660248201527f4f776e61626c653a206e6577206f776e657220697320746865207a65726f206160448201526564647265737360d01b606482015260840162000303565b6006546040516001600160a01b038084169216906000805160206200621f83398151915290600090a3600680546001600160a01b0319166001600160a01b0392909216919091179055565b6080516001600160a01b031660a0516001600160a01b031614620008e657620008308160805160a051620009bb60201b6200246e1760201c565b620008ca5760405162461bcd60e51b815260206004820152605a60248201527f5661726961626c65526577617264735374726174656779466f7253413a3a737760448201527f6170506169724465706f736974546f6b656e20646f6573206e6f74206d61746360648201527f68206465706f73697420616e642072657761726420746f6b656e000000000000608482015260a40162000303565b601380546001600160a01b0319166001600160a01b0383161790555b50565b60408051600180825281830190925260009160208083019080368337505060155482519293506001600160a01b0316918391506000906200092e576200092e62001024565b6001600160a01b039283166020918202929092010152601454604051631853304760e31b815291169063c2998238906200096d90849060040162001087565b6000604051808303816000875af11580156200098d573d6000803e3d6000fd5b505050506040513d6000823e601f3d908101601f19168201604052620009b79190810190620010d6565b5050565b6000836001600160a01b0316630dfe16816040518163ffffffff1660e01b8152600401602060405180830381865afa158015620009fc573d6000803e3d6000fd5b505050506040513d601f19601f8201168201806040525081019062000a2291906200116f565b6001600160a01b0316836001600160a01b0316148062000ab75750836001600160a01b031663d21220a76040518163ffffffff1660e01b8152600401602060405180830381865afa15801562000a7c573d6000803e3d6000fd5b505050506040513d601f19601f8201168201806040525081019062000aa291906200116f565b6001600160a01b0316836001600160a01b0316145b801562000bb95750836001600160a01b0316630dfe16816040518163ffffffff1660e01b8152600401602060405180830381865afa15801562000afe573d6000803e3d6000fd5b505050506040513d601f19601f8201168201806040525081019062000b2491906200116f565b6001600160a01b0316826001600160a01b0316148062000bb95750836001600160a01b031663d21220a76040518163ffffffff1660e01b8152600401602060405180830381865afa15801562000b7e573d6000803e3d6000fd5b505050506040513d601f19601f8201168201806040525081019062000ba491906200116f565b6001600160a01b0316826001600160a01b0316145b801562000bd85750816001600160a01b0316836001600160a01b031614155b949350505050565b82805462000bee9062001194565b90600052602060002090601f01602090048101928262000c12576000855562000c5d565b82601f1062000c2d57805160ff191683800117855562000c5d565b8280016001018555821562000c5d579182015b8281111562000c5d57825182559160200191906001019062000c40565b5062000c6b92915062000c6f565b5090565b5b8082111562000c6b576000815560010162000c70565b80516001600160a01b038116811462000c9e57600080fd5b919050565b634e487b7160e01b600052604160045260246000fd5b604051606081016001600160401b038111828210171562000cde5762000cde62000ca3565b60405290565b604051608081016001600160401b038111828210171562000cde5762000cde62000ca3565b604051601f8201601f191681016001600160401b038111828210171562000d345762000d3462000ca3565b604052919050565b60006001600160401b0382111562000d585762000d5862000ca3565b5060051b60200190565b600082601f83011262000d7457600080fd5b8151602062000d8d62000d878362000d3c565b62000d09565b8281526060928302850182019282820191908785111562000dad57600080fd5b8387015b8581101562000e0b5781818a03121562000dcb5760008081fd5b62000dd562000cb9565b62000de08262000c86565b815262000def86830162000c86565b8187015260408281015190820152845292840192810162000db1565b5090979650505050505050565b600060a0828403121562000e2b57600080fd5b60405160a081016001600160401b038111828210171562000e505762000e5062000ca3565b60405290508062000e618362000c86565b815262000e716020840162000c86565b60208201526040830151604082015260608301516060820152608083015160808201525092915050565b6000806000806000610120868803121562000eb557600080fd5b62000ec08662000c86565b9450602062000ed181880162000c86565b945062000ee16040880162000c86565b60608801519094506001600160401b038082111562000eff57600080fd5b908801906080828b03121562000f1457600080fd5b62000f1e62000ce4565b82518281111562000f2e57600080fd5b8301601f81018c1362000f4057600080fd5b80518381111562000f555762000f5562000ca3565b62000f69601f8201601f1916870162000d09565b8181528d8783850101111562000f7e57600080fd5b60005b8281101562000f9e57838101880151828201890152870162000f81565b8281111562000fb05760008884840101525b5083525062000fc3905083850162000c86565b84820152604083015193508184111562000fdc57600080fd5b62000fea8b85850162000d62565b604082015262000ffd6060840162000c86565b60608201528095505050505062001018876080880162000e18565b90509295509295909350565b634e487b7160e01b600052603260045260246000fd5b634e487b7160e01b600052601160045260246000fd5b6000600182016200106557620010656200103a565b5060010190565b600082198211156200108257620010826200103a565b500190565b6020808252825182820181905260009190848201906040850190845b81811015620010ca5783516001600160a01b031683529284019291840191600101620010a3565b50909695505050505050565b60006020808385031215620010ea57600080fd5b82516001600160401b038111156200110157600080fd5b8301601f810185136200111357600080fd5b80516200112462000d878262000d3c565b81815260059190911b820183019083810190878311156200114457600080fd5b928401925b82841015620011645783518252928401929084019062001149565b979650505050505050565b6000602082840312156200118257600080fd5b6200118d8262000c86565b9392505050565b600181811c90821680620011a957607f821691505b602082108103620011ca57634e487b7160e01b600052602260045260246000fd5b50919050565b60805160a05160c051614f50620012af60003960008181611c79015281816139a7015281816139d60152613a590152600081816108a001528181611c0a01528181611ca301528181611d0d01528181611e8601528181612ccf01528181612d0d0152818161338e015281816133e9015281816138fb01528181613a8301528181613b5701528181613bff0152613c3b01526000818161078d01528181610b2d01528181610c5d0152818161197e01528181611a1301528181612b7101528181613bd501528181613c5d01528181613cc30152613e310152614f506000f3fe608060405234801561001057600080fd5b50600436106103af5760003560e01c80638aff733d116101f4578063bd079f551161011a578063dd8ce4d6116100ad578063ed24911d1161007c578063ed24911d14610880578063f2fde38b14610888578063f7c618c11461089b578063fdb5a03e146108c257600080fd5b8063dd8ce4d614610834578063e21ac82514610847578063e75ab0451461085a578063eab89a5a1461086d57600080fd5b8063d0ed26ae116100e9578063d0ed26ae146107c2578063d505accf146107d5578063da09c72c146107e8578063dd62ed3e146107fb57600080fd5b8063bd079f5514610777578063c4b24a4614610780578063c89039c514610788578063cff1b6ef146107af57600080fd5b8063a4d5e67c11610192578063ac0d31ff11610161578063ac0d31ff1461073c578063b52a321f1461074f578063b6b55f251461075c578063b9e57b801461076f57600080fd5b8063a4d5e67c146106a1578063a5534e71146106b4578063a8ae2b7c14610716578063a9059cbb1461072957600080fd5b80639291d563116101ce5780639291d5631461064c57806395d89b411461065f57806399729ec1146106675780639e4e73181461067a57600080fd5b80638aff733d1461060b5780638b73e606146106145780638da5cb5b1461062757600080fd5b8063483c2ef0116102d9578063715018a6116102775780637d882097116102465780637d882097146105bd5780637ecebe00146105c557806381837230146105e55780638980f11f146105f857600080fd5b8063715018a614610590578063789139bc1461059857806379085425146105a15780637ae26773146105aa57600080fd5b80634e77ace5116102b35780634e77ace5146105385780634ebb79161461054b5780635ea682ea1461055e57806370a082311461056757600080fd5b8063483c2ef0146104ef5780634a970be7146105125780634bebd1e71461052557600080fd5b806323b872dd1161035157806330adf81f1161032057806330adf81f14610492578063313ce567146104b95780633bdc6e72146104d357806340b47e1a146104dc57600080fd5b806323b872dd14610457578063247d284b146104145780632e1a7d4d1461046a5780632f4f21e21461047f57600080fd5b80630f23475d1161038d5780630f23475d1461040c578063110560351461041457806318160ddd1461042757806320606b701461043057600080fd5b806306fdde03146103b457806307677111146103d2578063095ea7b3146103e9575b600080fd5b6103bc6108ca565b6040516103c99190614933565b60405180910390f35b6103db600d5481565b6040519081526020016103c9565b6103fc6103f736600461495b565b610958565b60405190151581526020016103c9565b6103db61096e565b6103db610422366004614987565b610999565b6103db60025481565b6103db7f8b73c3c69bb8fe3d512ecc4cf759cc79239f7b179b0ffacaa9a75d522b39400f81565b6103fc6104653660046149a0565b6109aa565b61047d610478366004614987565b610a73565b005b61047d61048d36600461495b565b610b99565b6103db7f6e71edae12b1b97f4d1f60370fef10105fa2faae0126114a169c64845d6126c981565b6104c1601281565b60405160ff90911681526020016103c9565b6103db60075481565b61047d6104ea3660046149e1565b610ba7565b6103fc6104fd366004614a1a565b60086020526000908152604090205460ff1681565b61047d610520366004614a4d565b610c04565b61047d610533366004614a1a565b610cd2565b61047d610546366004614aa2565b610def565b61047d610559366004614987565b610e96565b6103db600f5481565b6103db610575366004614a1a565b6001600160a01b031660009081526004602052604090205490565b61047d610f50565b6103db600b5481565b6103db60125481565b61047d6105b83660046149e1565b610fe2565b6103db6110a6565b6103db6105d3366004614a1a565b60056020526000908152604090205481565b61047d6105f3366004614987565b61115b565b61047d61060636600461495b565b6111e4565b6103db600e5481565b61047d610622366004614a1a565b6112fa565b6006546001600160a01b03165b6040516001600160a01b0390911681526020016103c9565b61047d61065a366004614a1a565b6114b6565b6103bc611570565b61047d610675366004614987565b61157d565b6103db7fc89efdaa54c0f20c7adf612882df0950f5a951637e0307cdcb4c672f298b8bc681565b61047d6106af366004614a1a565b611622565b6106f06106c2366004614a1a565b6010602052600090815260409020805460018201546002909201546001600160a01b03918216929091169083565b604080516001600160a01b039485168152939092166020840152908201526060016103c9565b61047d610724366004614987565b61186c565b6103fc61073736600461495b565b611911565b61047d61074a366004614abf565b61191e565b600c546103fc9060ff1681565b61047d61076a366004614987565b611b90565b6103db611b9d565b6103db600a5481565b6103db611bdc565b6106347f000000000000000000000000000000000000000000000000000000000000000081565b61047d6107bd366004614987565b611f1c565b61047d6107d03660046149a0565b611fb0565b61047d6107e3366004614ae4565b612011565b600954610634906001600160a01b031681565b6103db6108093660046149e1565b6001600160a01b03918216600090815260036020908152604080832093909416825291909152205490565b6103db610842366004614987565b612124565b61047d610855366004614987565b612165565b610634610868366004614987565b6121ee565b6103db61087b366004614987565b612218565b6103db612253565b61047d610896366004614a1a565b6122f3565b6106347f000000000000000000000000000000000000000000000000000000000000000081565b61047d612413565b600080546108d790614b52565b80601f016020809104026020016040519081016040528092919081815260200182805461090390614b52565b80156109505780601f1061092557610100808354040283529160200191610950565b820191906000526020600020905b81548152906001019060200180831161093357829003601f168201915b505050505081565b6000610965338484612683565b50600192915050565b6000806109796110a6565b9050600061098682612791565b90506109928183614b9c565b9250505090565b60006109a482612791565b92915050565b6001600160a01b0383166000818152600360209081526040808320338085529252822054919290919082148015906109e457506000198114155b15610a5a5760006109f58583614b9c565b6001600160a01b038881166000818152600360209081526040808320948916808452948252918290208590559051848152939450919290917f8c5be1e5ebec7d5bd14f71427d1e84f3dd0314c0f7b2291e5b200ac8c7c3b925910160405180910390a3505b610a658686866127ab565b6001925050505b9392505050565b6000610a7e82612218565b905060008111610afb5760405162461bcd60e51b815260206004820152603060248201527f5661726961626c655265776172647353747261746567793a3a5769746864726160448201527f7720616d6f756e7420746f6f206c6f770000000000000000000000000000000060648201526084015b60405180910390fd5b6000610b06826128cf565b90506000610b1383612791565b9050610b5433610b238385614b9c565b6001600160a01b037f00000000000000000000000000000000000000000000000000000000000000001691906129a9565b610b5e33856129fb565b60405183815233907f884edad9ce6fa2440d8a54cc123490eb96d2768479d49ff9c7366125a94243649060200160405180910390a250505050565b610ba38282612a8f565b5050565b6009546001600160a01b03163314610bf85760405162461bcd60e51b81526020600482015260146024820152732cb0b5a9ba3930ba32b3bc9d1d37b7363ca232bb60611b6044820152606401610af2565b610ba382826003612ccd565b6040517fd505accf000000000000000000000000000000000000000000000000000000008152336004820152306024820152604481018690526064810185905260ff8416608482015260a4810183905260c481018290527f00000000000000000000000000000000000000000000000000000000000000006001600160a01b03169063d505accf9060e401600060405180830381600087803b158015610ca957600080fd5b505af1158015610cbd573d6000803e3d6000fd5b50505050610ccb3386612a8f565b5050505050565b6006546001600160a01b03163314610d1a5760405162461bcd60e51b81526020600482018190526024820152600080516020614efb8339815191526044820152606401610af2565b6001600160a01b03811660009081526008602052604090205460ff1615610d835760405162461bcd60e51b815260206004820152601c60248201527f5065726d697373696f6e65643a3a616c6c6f774465706f7369746f72000000006044820152606401610af2565b6001600160a01b0381166000908152600860205260409020805460ff19166001908117909155600754610db591614bb3565b6007556040516001600160a01b038216907fc0a1035c16faf8d1304056d92c00edf028f87e62b8235a938f00af9e3c0312c590600090a250565b6006546001600160a01b03163314610e375760405162461bcd60e51b81526020600482018190526024820152600080516020614efb8339815191526044820152606401610af2565b600c5481151560ff909116151503610e4e57600080fd5b600c805460ff19168215159081179091556040519081527f7b014ed3854e7f5cb0218d58b3c6ae7d53a68bb0af2f67bfb029ea42c38a7e85906020015b60405180910390a150565b6006546001600160a01b03163314610ede5760405162461bcd60e51b81526020600482018190526024820152600080516020614efb8339815191526044820152606401610af2565b60008111610eeb57600080fd5b604051339082156108fc029083906000818181858888f19350505050158015610f18573d6000803e3d6000fd5b506040805160008152602081018390527f8c1256b8896378cd5044f80c202f9772b9d77dc85c8a6eb51967210b09bfaa289101610e8b565b6006546001600160a01b03163314610f985760405162461bcd60e51b81526020600482018190526024820152600080516020614efb8339815191526044820152606401610af2565b6006546040516000916001600160a01b0316907f8be0079c531659141344cd1fd0a4f28419497f9722a3daafe3b4186f6b6457e0908390a3600680546001600160a01b0319169055565b6006546001600160a01b0316331461102a5760405162461bcd60e51b81526020600482018190526024820152600080516020614efb8339815191526044820152606401610af2565b60405163095ea7b360e01b81526001600160a01b0382811660048301526000602483015283169063095ea7b3906044016020604051808303816000875af1158015611079573d6000803e3d6000fd5b505050506040513d601f19601f8201168201806040525081019061109d9190614bcb565b610ba357600080fd5b6015546040517fc37f68e2000000000000000000000000000000000000000000000000000000008152306004820152600091829182916001600160a01b03169063c37f68e290602401608060405180830381865afa15801561110c573d6000803e3d6000fd5b505050506040513d601f19601f820116820180604052508101906111309190614be8565b935050925050610992670de0b6b3a76400006111558385612ea390919063ffffffff16565b90612eaf565b6006546001600160a01b031633146111a35760405162461bcd60e51b81526020600482018190526024820152600080516020614efb8339815191526044820152606401610af2565b600a5460408051918252602082018390527f481f79ac3a523b6d6db3c5a720e190e986d1cc1b41adcdf50f9caef849901100910160405180910390a1600a55565b6006546001600160a01b0316331461122c5760405162461bcd60e51b81526020600482018190526024820152600080516020614efb8339815191526044820152606401610af2565b6000811161123957600080fd5b60405163a9059cbb60e01b8152336004820152602481018290526001600160a01b0383169063a9059cbb906044016020604051808303816000875af1158015611286573d6000803e3d6000fd5b505050506040513d601f19601f820116820180604052508101906112aa9190614bcb565b6112b357600080fd5b604080516001600160a01b0384168152602081018390527f8c1256b8896378cd5044f80c202f9772b9d77dc85c8a6eb51967210b09bfaa2891015b60405180910390a15050565b6006546001600160a01b031633146113425760405162461bcd60e51b81526020600482018190526024820152600080516020614efb8339815191526044820152606401610af2565b6000600754116113ba5760405162461bcd60e51b815260206004820152603460248201527f5065726d697373696f6e65643a3a72656d6f76654465706f7369746f722c206e60448201527f6f20616c6c6f776564206465706f7369746f72730000000000000000000000006064820152608401610af2565b6001600160a01b03811660009081526008602052604090205460ff16151560011461144d5760405162461bcd60e51b815260206004820152602a60248201527f5065726d697373696f6e65643a3a72656d6f76654465706f7369746f722c206e60448201527f6f7420616c6c6f776564000000000000000000000000000000000000000000006064820152608401610af2565b6001600160a01b0381166000908152600860205260409020805460ff1916905560075461147c90600190614b9c565b6007556040516001600160a01b038216907f0e86f6608b536e5339a25b65ff531f5ea91e1313d056ecd4752b35cbd16137d490600090a250565b6009546001600160a01b031633146115075760405162461bcd60e51b81526020600482015260146024820152732cb0b5a9ba3930ba32b3bc9d1d37b7363ca232bb60611b6044820152606401610af2565b600954604080516001600160a01b03928316815291831660208301527fa8e91499ed37682f43cffb045fcc7d379a91e8c9a14e6321877ee34dee564c00910160405180910390a1600980546001600160a01b0319166001600160a01b0392909216919091179055565b600180546108d790614b52565b6006546001600160a01b031633146115c55760405162461bcd60e51b81526020600482018190526024820152600080516020614efb8339815191526044820152606401610af2565b612710600e54826115d69190614bb3565b11156115e157600080fd5b600f5460408051918252602082018390527f2a42303d002f0ba6cfe8259c91d4684443fb0b3de286ba74991175d651726131910160405180910390a1600f55565b6009546001600160a01b031633146116735760405162461bcd60e51b81526020600482015260146024820152732cb0b5a9ba3930ba32b3bc9d1d37b7363ca232bb60611b6044820152606401610af2565b6001600160a01b038116600090815260106020526040812080546001600160a01b031990811682556001820180549091169055600201819055805b60115481101561177a57601181815481106116cb576116cb614c1e565b6000918252602090912001546001600160a01b03908116908416036117685760118054600193506116fd908490614b9c565b8154811061170d5761170d614c1e565b600091825260209091200154601180546001600160a01b03909216918390811061173957611739614c1e565b9060005260206000200160006101000a8154816001600160a01b0302191690836001600160a01b031602179055505b8061177281614c34565b9150506116ae565b50806117ee5760405162461bcd60e51b815260206004820152603460248201527f5661726961626c655265776172647353747261746567793a3a5265776172642060448201527f746f2064656c657465206e6f7420666f756e64210000000000000000000000006064820152608401610af2565b60118054806117ff576117ff614c4d565b600082815260209020810160001990810180546001600160a01b031916905501905560125461183090600190614b9c565b6012556040516001600160a01b03831681527f963b7c735475147a62c589c2d7cb8ec4b0a6b7af4f97373d79ebfa42ab8aa7dc906020016112ee565b6006546001600160a01b031633146118b45760405162461bcd60e51b81526020600482018190526024820152600080516020614efb8339815191526044820152606401610af2565b612710600f54826118c59190614bb3565b11156118d057600080fd5b600e5460408051918252602082018390527fe7f97d51d307dc44045597c9978bec0f842e6bb40d19b9444084cfa30d9ed4f2910160405180910390a1600e55565b60006109653384846127ab565b6006546001600160a01b031633146119665760405162461bcd60e51b81526020600482018190526024820152600080516020614efb8339815191526044820152606401610af2565b6040516370a0823160e01b81523060048201526000907f00000000000000000000000000000000000000000000000000000000000000006001600160a01b0316906370a0823190602401602060405180830381865afa1580156119cd573d6000803e3d6000fd5b505050506040513d601f19601f820116820180604052508101906119f19190614c63565b90506119fb612ebb565b6040516370a0823160e01b81523060048201526000907f00000000000000000000000000000000000000000000000000000000000000006001600160a01b0316906370a0823190602401602060405180830381865afa158015611a62573d6000803e3d6000fd5b505050506040513d601f19601f82011682018060405250810190611a869190614c63565b905083611a938383614b9c565b1015611b2d5760405162461bcd60e51b815260206004820152604d60248201527f5661726961626c655265776172647353747261746567793a3a456d657267656e60448201527f6379207769746864726177206d696e696d756d2072657475726e20616d6f756e60648201527f74206e6f74207265616368656400000000000000000000000000000000000000608482015260a401610af2565b7fc7606d21ac05cd309191543e409f0845c016120563783d70e4f41419dc0ef234611b566110a6565b6002546040805192835260208301919091520160405180910390a1600c5460ff161515600103611b8a57611b8a6000610def565b50505050565b611b9a3382612a8f565b50565b600080611ba8611bdc565b9050600a548110611bd457612710600e5482611bc49190614c7c565b611bce9190614c9b565b91505090565b600091505090565b600080611be7612fab565b6040516370a0823160e01b81523060048201529091506000906001600160a01b037f000000000000000000000000000000000000000000000000000000000000000016906370a0823190602401602060405180830381865afa158015611c51573d6000803e3d6000fd5b505050506040513d601f19601f82011682018060405250810190611c759190614c63565b90507f00000000000000000000000000000000000000000000000000000000000000006001600160a01b03167f00000000000000000000000000000000000000000000000000000000000000006001600160a01b031603611cdd57611cda4782614bb3565b90505b60005b8251811015611f15576000838281518110611cfd57611cfd614c1e565b60200260200101516000015190507f00000000000000000000000000000000000000000000000000000000000000006001600160a01b0316816001600160a01b031603611d7457838281518110611d5657611d56614c1e565b60200260200101516020015183611d6d9190614bb3565b9250611f02565b6001600160a01b03811615611f02576040516370a0823160e01b81523060048201526000906001600160a01b038316906370a0823190602401602060405180830381865afa158015611dca573d6000803e3d6000fd5b505050506040513d601f19601f82011682018060405250810190611dee9190614c63565b90506000858481518110611e0457611e04614c1e565b60200260200101516020015182611e1b9190614bb3565b9050600060106000888781518110611e3557611e35614c1e565b602090810291909101810151516001600160a01b03908116835290820192909252604001600020600101541690508115801590611e7a57506001600160a01b03811615155b15611efe57611ef182857f000000000000000000000000000000000000000000000000000000000000000084601060008d8c81518110611ebc57611ebc614c1e565b6020026020010151600001516001600160a01b03166001600160a01b0316815260200190815260200160002060020154613099565b611efb9087614bb3565b95505b5050505b5080611f0d81614c34565b915050611ce0565b5092915050565b6006546001600160a01b03163314611f645760405162461bcd60e51b81526020600482018190526024820152600080516020614efb8339815191526044820152606401610af2565b8015611f6f57600080fd5b600d5460408051918252602082018390527f3cc372f330f95ac9540626dc8a25f5bf21ba607215a5d58304cb804d446f104a910160405180910390a1600d55565b6009546001600160a01b031633146120015760405162461bcd60e51b81526020600482015260146024820152732cb0b5a9ba3930ba32b3bc9d1d37b7363ca232bb60611b6044820152606401610af2565b61200c838383612ccd565b505050565b428410156120615760405162461bcd60e51b815260206004820152600f60248201527f7065726d69743a3a6578706972656400000000000000000000000000000000006044820152606401610af2565b6001600160a01b038716600090815260056020526040812080547f6e71edae12b1b97f4d1f60370fef10105fa2faae0126114a169c64845d6126c9918a918a918a9190866120ae83614c34565b909155506040805160208101969096526001600160a01b0394851690860152929091166060840152608083015260a082015260c0810186905260e00160405160208183030381529060405280519060200120905061210f8882868686613167565b61211a888888612683565b5050505050505050565b600061212e6110a6565b60025461213b9190614c7c565b600003612146575090565b61214e6110a6565b60025461215b9084614c7c565b6109a49190614c9b565b6006546001600160a01b031633146121ad5760405162461bcd60e51b81526020600482018190526024820152600080516020614efb8339815191526044820152606401610af2565b600b5460408051918252602082018390527fa5dae50539d56dfe1fb5273d883b0c39bc76750a25d036fc5fbd09ad8fd5f57f910160405180910390a1600b55565b601181815481106121fe57600080fd5b6000918252602090912001546001600160a01b0316905081565b60006122226110a6565b60025461222f9190614c7c565b60000361223e57506000919050565b6002546122496110a6565b61215b9084614c7c565b60007f8b73c3c69bb8fe3d512ecc4cf759cc79239f7b179b0ffacaa9a75d522b39400f60001b60006040516122889190614cbd565b6040519081900390207fc89efdaa54c0f20c7adf612882df0950f5a951637e0307cdcb4c672f298b8bc646604080516020810195909552840192909252606083015260808201523060a082015260c00160405160208183030381529060405280519060200120905090565b6006546001600160a01b0316331461233b5760405162461bcd60e51b81526020600482018190526024820152600080516020614efb8339815191526044820152606401610af2565b6001600160a01b0381166123b75760405162461bcd60e51b815260206004820152602660248201527f4f776e61626c653a206e6577206f776e657220697320746865207a65726f206160448201527f64647265737300000000000000000000000000000000000000000000000000006064820152608401610af2565b6006546040516001600160a01b038084169216907f8be0079c531659141344cd1fd0a4f28419497f9722a3daafe3b4186f6b6457e090600090a3600680546001600160a01b0319166001600160a01b0392909216919091179055565b3233146124625760405162461bcd60e51b815260206004820152601460248201527f59616b53747261746567793a3a6f6e6c79454f410000000000000000000000006044820152606401610af2565b61246c60006132c7565b565b6000836001600160a01b0316630dfe16816040518163ffffffff1660e01b8152600401602060405180830381865afa1580156124ae573d6000803e3d6000fd5b505050506040513d601f19601f820116820180604052508101906124d29190614d58565b6001600160a01b0316836001600160a01b031614806125635750836001600160a01b031663d21220a76040518163ffffffff1660e01b8152600401602060405180830381865afa15801561252a573d6000803e3d6000fd5b505050506040513d601f19601f8201168201806040525081019061254e9190614d58565b6001600160a01b0316836001600160a01b0316145b801561265d5750836001600160a01b0316630dfe16816040518163ffffffff1660e01b8152600401602060405180830381865afa1580156125a8573d6000803e3d6000fd5b505050506040513d601f19601f820116820180604052508101906125cc9190614d58565b6001600160a01b0316826001600160a01b0316148061265d5750836001600160a01b031663d21220a76040518163ffffffff1660e01b8152600401602060405180830381865afa158015612624573d6000803e3d6000fd5b505050506040513d601f19601f820116820180604052508101906126489190614d58565b6001600160a01b0316826001600160a01b0316145b801561267b5750816001600160a01b0316836001600160a01b031614155b949350505050565b6001600160a01b0383166126d95760405162461bcd60e51b815260206004820152601c60248201527f5f617070726f76653a3a6f776e6572207a65726f2061646472657373000000006044820152606401610af2565b6001600160a01b03821661272f5760405162461bcd60e51b815260206004820152601e60248201527f5f617070726f76653a3a7370656e646572207a65726f206164647265737300006044820152606401610af2565b6001600160a01b0383811660008181526003602090815260408083209487168084529482529182902085905590518481527f8c5be1e5ebec7d5bd14f71427d1e84f3dd0314c0f7b2291e5b200ac8c7c3b92591015b60405180910390a3505050565b6000806127106127a18285614c7c565b610a6c9190614c9b565b6001600160a01b0382166128275760405162461bcd60e51b815260206004820152603460248201527f5f7472616e73666572546f6b656e733a2063616e6e6f74207472616e7366657260448201527f20746f20746865207a65726f20616464726573730000000000000000000000006064820152608401610af2565b6001600160a01b03831660009081526004602052604090205461284b908290614b9c565b6001600160a01b03808516600090815260046020526040808220939093559084168152205461287b908290614bb3565b6001600160a01b0380841660008181526004602052604090819020939093559151908516907fddf252ad1be2c89b69c2b068fc378daa952ba7f163c4a11628f55a4df523b3ef906127849085815260200190565b6015546040517f852a12e3000000000000000000000000000000000000000000000000000000008152600481018390526000916001600160a01b03169063852a12e3906024016020604051808303816000875af1158015612934573d6000803e3d6000fd5b505050506040513d601f19601f820116820180604052508101906129589190614c63565b156129a55760405162461bcd60e51b815260206004820152601060248201527f6661696c656420746f2072656465656d000000000000000000000000000000006044820152606401610af2565b5090565b604080516001600160a01b038416602482015260448082018490528251808303909101815260649091019091526020810180516001600160e01b031663a9059cbb60e01b17905261200c908490613494565b6001600160a01b038216600090815260046020526040902054612a1f908290614b9c565b6001600160a01b038316600090815260046020526040902055600254612a46908290614b9c565b6002556040518181526000906001600160a01b038416907fddf252ad1be2c89b69c2b068fc378daa952ba7f163c4a11628f55a4df523b3ef906020015b60405180910390a35050565b600c5460ff161515600114612b0c5760405162461bcd60e51b815260206004820152602a60248201527f5661726961626c655265776172647353747261746567793a3a4465706f73697460448201527f732064697361626c6564000000000000000000000000000000000000000000006064820152608401610af2565b600b5415612b36576000612b1e611bdc565b9050600b54811115612b3457612b3460016132c7565b505b6040517f23b872dd000000000000000000000000000000000000000000000000000000008152336004820152306024820152604481018290527f00000000000000000000000000000000000000000000000000000000000000006001600160a01b0316906323b872dd906064016020604051808303816000875af1158015612bc2573d6000803e3d6000fd5b505050506040513d601f19601f82011682018060405250810190612be69190614bcb565b612c585760405162461bcd60e51b815260206004820152603660248201527f5661726961626c655265776172647353747261746567793a3a4465706f73697460448201527f20746f6b656e207472616e73666572206661696c6564000000000000000000006064820152608401610af2565b6000612c6382612791565b9050612c7b83612c766108428486614b9c565b613579565b612c8582826135ff565b826001600160a01b03167fe1fffcc4923d04b559f4d29a8bfc6cda04eb5b0d3c460751c2402c5c5cc9109c83604051612cc091815260200190565b60405180910390a2505050565b7f00000000000000000000000000000000000000000000000000000000000000006001600160a01b0316836001600160a01b031614612da557612d3182847f000000000000000000000000000000000000000000000000000000000000000061246e565b612da5576040805162461bcd60e51b81526020600482015260248101919091527f5661726961626c655265776172647353747261746567793a3a5377617020706160448201527f697220646f6573206e6f7420636f6e7461696e2072657761726420746f6b656e6064820152608401610af2565b604080516060810182526001600160a01b03808616808352858216602080850191825284860187815260008481526010909252958120945185549085166001600160a01b03199182161786559151600180870180549290961691841691909117909455945160029094019390935560118054808401825594527f31ecc21a745e3968a04e9570e4425bc18fa8019c68028196b546d1669c200c6890930180549092169092179055601254612e5891614bb3565b601255604080516001600160a01b038086168252841660208201527f916e172c080569186aa7ea048268267257cf7cc49505908863f747bca8620f80910160405180910390a1505050565b6000610a6c8284614c7c565b6000610a6c8284614c9b565b6015546040517f3af9e6690000000000000000000000000000000000000000000000000000000081523060048201526001600160a01b039091169063852a12e3908290633af9e669906024016020604051808303816000875af1158015612f26573d6000803e3d6000fd5b505050506040513d601f19601f82011682018060405250810190612f4a9190614c63565b6040518263ffffffff1660e01b8152600401612f6891815260200190565b6020604051808303816000875af1158015612f87573d6000803e3d6000fd5b505050506040513d601f19601f82011682018060405250810190611b9a9190614c63565b6060600060125467ffffffffffffffff811115612fca57612fca614d75565b60405190808252806020026020018201604052801561300f57816020015b6040805180820190915260008082526020820152815260200190600190039081612fe85790505b50905060005b6012548110156130935760405180604001604052806011838154811061303d5761303d614c1e565b600091825260209182902001546001600160a01b0316825201613060833061367f565b81525082828151811061307557613075614c1e565b6020026020010181905250808061308b90614c34565b915050613015565b50919050565b6000806130a6868661374c565b509050600080856001600160a01b0316630902f1ac6040518163ffffffff1660e01b8152600401606060405180830381865afa1580156130ea573d6000803e3d6000fd5b505050506040513d601f19601f8201168201806040525081019061310e9190614dbd565b5091509150876001600160a01b0316836001600160a01b03161461312e57905b61315a89836dffffffffffffffffffffffffffff16836dffffffffffffffffffffffffffff168861377d565b9998505050505050505050565b6000613171612253565b6040517f1901000000000000000000000000000000000000000000000000000000000000602082015260228101919091526042810186905260620160408051601f198184030181528282528051602091820120600080855291840180845281905260ff88169284019290925260608301869052608083018590529092509060019060a0016020604051602081039080840390855afa158015613217573d6000803e3d6000fd5b5050604051601f1901519150506001600160a01b0381161580159061324d5750866001600160a01b0316816001600160a01b0316145b6132be5760405162461bcd60e51b8152602060048201526024808201527f417263683a3a76616c69646174655369673a20696e76616c6964207369676e6160448201527f74757265000000000000000000000000000000000000000000000000000000006064820152608401610af2565b50505050505050565b6132cf6137d7565b60006132d96138d9565b90508161335857600a548110156133585760405162461bcd60e51b815260206004820152603060248201527f5661726961626c655265776172647353747261746567793a3a5265696e76657360448201527f7420616d6f756e7420746f6f206c6f77000000000000000000000000000000006064820152608401610af2565b6000612710600f548361336b9190614c7c565b6133759190614c9b565b905080156133b7576009546133b7906001600160a01b037f000000000000000000000000000000000000000000000000000000000000000081169116836129a9565b6000612710600e54846133ca9190614c7c565b6133d49190614c9b565b90508015613410576134106001600160a01b037f00000000000000000000000000000000000000000000000000000000000000001633836129a9565b600061342f826134208587614b9c565b61342a9190614b9c565b613bd1565b9050600061343c82612791565b905061344882826135ff565b7fc7606d21ac05cd309191543e409f0845c016120563783d70e4f41419dc0ef2346134716110a6565b6002546040805192835260208301919091520160405180910390a1505050505050565b60006134e9826040518060400160405280602081526020017f5361666545524332303a206c6f772d6c6576656c2063616c6c206661696c6564815250856001600160a01b0316613c8b9092919063ffffffff16565b80519091501561200c57808060200190518101906135079190614bcb565b61200c5760405162461bcd60e51b815260206004820152602a60248201527f5361666545524332303a204552433230206f7065726174696f6e20646964206e60448201527f6f742073756363656564000000000000000000000000000000000000000000006064820152608401610af2565b806002546135879190614bb3565b6002556001600160a01b0382166000908152600460205260409020546135ae908290614bb3565b6001600160a01b0383166000818152600460205260408082209390935591519091907fddf252ad1be2c89b69c2b068fc378daa952ba7f163c4a11628f55a4df523b3ef90612a839085815260200190565b600082116136755760405162461bcd60e51b815260206004820152602d60248201527f5661726961626c655265776172647353747261746567793a3a5374616b65206160448201527f6d6f756e7420746f6f206c6f77000000000000000000000000000000000000006064820152608401610af2565b610ba38282613c9a565b6014546040517f05b9783d00000000000000000000000000000000000000000000000000000000815260ff841660048201526001600160a01b03838116602483015260009283929116906305b9783d90604401602060405180830381865afa1580156136ef573d6000803e3d6000fd5b505050506040513d601f19601f820116820180604052508101906137139190614c63565b601454601554919250600091613737916001600160a01b0390811691168787613ea0565b90506137438282614034565b95945050505050565b600080826001600160a01b0316846001600160a01b03161061376f578284613772565b83835b915091509250929050565b60008061378c836103e8614b9c565b6137969087614c7c565b905060006137a48583614c7c565b90506000826137b5886103e8614c7c565b6137bf9190614bb3565b90506137cb8183614c9b565b98975050505050505050565b60408051600180825281830190925260009160208083019080368337505060155482519293506001600160a01b03169183915060009061381957613819614c1e565b60200260200101906001600160a01b031690816001600160a01b03168152505060005b601254811015610ba3576014546040517f744532ae0000000000000000000000000000000000000000000000000000000081526001600160a01b039091169063744532ae906138949060009030908790600401614e00565b600060405180830381600087803b1580156138ae57600080fd5b505af11580156138c2573d6000803e3d6000fd5b5050505080806138d190614c34565b91505061383c565b6040516370a0823160e01b815230600482015260009081906001600160a01b037f000000000000000000000000000000000000000000000000000000000000000016906370a0823190602401602060405180830381865afa158015613942573d6000803e3d6000fd5b505050506040513d601f19601f820116820180604052508101906139669190614c63565b60115490915060005b81811015613bc95760006011828154811061398c5761398c614c1e565b6000918252602090912001546001600160a01b0390811691507f0000000000000000000000000000000000000000000000000000000000000000168103613ab957478015613a57577f00000000000000000000000000000000000000000000000000000000000000006001600160a01b031663d0e30db0826040518263ffffffff1660e01b81526004016000604051808303818588803b158015613a2f57600080fd5b505af1158015613a43573d6000803e3d6000fd5b50505050508085613a549190614bb3565b94505b7f00000000000000000000000000000000000000000000000000000000000000006001600160a01b03167f00000000000000000000000000000000000000000000000000000000000000006001600160a01b031603613ab7575050613bb7565b505b6040516370a0823160e01b81523060048201526000906001600160a01b038316906370a0823190602401602060405180830381865afa158015613b00573d6000803e3d6000fd5b505050506040513d601f19601f82011682018060405250810190613b249190614c63565b90508015613bb4576001600160a01b03808316600090815260106020526040902060010154168015613bb257613ba582847f00000000000000000000000000000000000000000000000000000000000000008460106000896001600160a01b03166001600160a01b0316815260200190815260200160002060020154614040565b613baf9087614bb3565b95505b505b50505b80613bc181614c34565b91505061396f565b509092915050565b60007f00000000000000000000000000000000000000000000000000000000000000006001600160a01b03167f00000000000000000000000000000000000000000000000000000000000000006001600160a01b031603613c30575090565b6013546109a49083907f0000000000000000000000000000000000000000000000000000000000000000907f0000000000000000000000000000000000000000000000000000000000000000906001600160a01b03166141dd565b606061267b84846000856141ed565b60155460405163095ea7b360e01b81526001600160a01b039182166004820152602481018490527f00000000000000000000000000000000000000000000000000000000000000009091169063095ea7b3906044016020604051808303816000875af1158015613d0e573d6000803e3d6000fd5b505050506040513d601f19601f82011682018060405250810190613d329190614bcb565b506015546040517fa0712d68000000000000000000000000000000000000000000000000000000008152600481018490526001600160a01b039091169063a0712d68906024016020604051808303816000875af1158015613d97573d6000803e3d6000fd5b505050506040513d601f19601f82011682018060405250810190613dbb9190614c63565b15613e085760405162461bcd60e51b815260206004820152600e60248201527f4465706f736974206661696c65640000000000000000000000000000000000006044820152606401610af2565b60155460405163095ea7b360e01b81526001600160a01b039182166004820152600060248201527f00000000000000000000000000000000000000000000000000000000000000009091169063095ea7b3906044016020604051808303816000875af1158015613e7c573d6000803e3d6000fd5b505050506040513d601f19601f8201168201806040525081019061200c9190614bcb565b6000806040518060200160405280613eb9888888614335565b6001600160e01b031690526040805160208101918290527f88e972b80000000000000000000000000000000000000000000000000000000090915260ff861660248201526001600160a01b0387811660448301528581166064830152919250600091819089166388e972b860848301602060405180830381865afa158015613f45573d6000803e3d6000fd5b505050506040513d601f19601f82011682018060405250810190613f699190614c63565b90528051909150158015613f7d5750815115155b15613f95576ec097ce7bc90715b34b9f100000000081525b8151600090613fb35760405180602001604052806000815250613fbd565b613fbd83836145ad565b6040516370a0823160e01b81526001600160a01b0387811660048301529192506137cb918916906370a0823190602401602060405180830381865afa15801561400a573d6000803e3d6000fd5b505050506040513d601f19601f8201168201806040525081019061402e9190614c63565b826145e2565b6000610a6c8284614bb3565b60008061404d868661374c565b509050600080856001600160a01b0316630902f1ac6040518163ffffffff1660e01b8152600401606060405180830381865afa158015614091573d6000803e3d6000fd5b505050506040513d601f19601f820116820180604052508101906140b59190614dbd565b5091509150876001600160a01b0316836001600160a01b0316146140d557905b6000806141048b856dffffffffffffffffffffffffffff16856dffffffffffffffffffffffffffff168a61377d565b9050896001600160a01b0316856001600160a01b03161461412157905b6141356001600160a01b038b16898d6129a9565b604080516000815260208101918290527f022c0d9f000000000000000000000000000000000000000000000000000000009091526001600160a01b0389169063022c0d9f9061418d9085908590309060248101614e65565b600060405180830381600087803b1580156141a757600080fd5b505af11580156141bb573d6000803e3d6000fd5b505050508181116141cc57816141ce565b805b9b9a5050505050505050505050565b6000613743858585856003614040565b6060824710156142655760405162461bcd60e51b815260206004820152602660248201527f416464726573733a20696e73756666696369656e742062616c616e636520666f60448201527f722063616c6c00000000000000000000000000000000000000000000000000006064820152608401610af2565b6001600160a01b0385163b6142bc5760405162461bcd60e51b815260206004820152601d60248201527f416464726573733a2063616c6c20746f206e6f6e2d636f6e74726163740000006044820152606401610af2565b600080866001600160a01b031685876040516142d89190614e9d565b60006040518083038185875af1925050503d8060008114614315576040519150601f19603f3d011682016040523d82523d6000602084013e61431a565b606091505b509150915061432a828286614602565b979650505050505050565b6040517fd81c5e4500000000000000000000000000000000000000000000000000000000815260ff821660048201526001600160a01b038381166024830152600091829182919087169063d81c5e45906044016040805180830381865afa1580156143a4573d6000803e3d6000fd5b505050506040513d601f19601f820116820180604052508101906143c89190614eb9565b6040517fcf9cfb6100000000000000000000000000000000000000000000000000000000815260ff871660048201526001600160a01b03888116602483015292945063ffffffff91909116925060009188169063cf9cfb6190604401602060405180830381865afa158015614441573d6000803e3d6000fd5b505050506040513d601f19601f820116820180604052508101906144659190614c63565b90506000614473428461463b565b90506000811180156144855750600082115b1561459f576000876001600160a01b03166318160ddd6040518163ffffffff1660e01b8152600401602060405180830381865afa1580156144ca573d6000803e3d6000fd5b505050506040513d601f19601f820116820180604052508101906144ee9190614c63565b905060006144fc838561467d565b9050600080831161451c5760405180602001604052806000815250614526565b61452682846146bf565b9050600061454b60405180602001604052808a6001600160e01b0316815250836146fb565b905061459081600001516040518060400160405280601a81526020017f6e657720696e6465782065786365656473203232342062697473000000000000815250614727565b98505050505050505050610a6c565b506000979650505050505050565b60408051602081019091526000815260405180602001604052806145d98560000151856000015161463b565b90529392505050565b60006ec097ce7bc90715b34b9f10000000006127a184846000015161467d565b60608315614611575081610a6c565b8251156146215782518084602001fd5b8160405162461bcd60e51b8152600401610af29190614933565b6000610a6c83836040518060400160405280601581526020017f7375627472616374696f6e20756e646572666c6f77000000000000000000000081525061476f565b6000610a6c83836040518060400160405280601781526020017f6d756c7469706c69636174696f6e206f766572666c6f7700000000000000000081525061479e565b60408051602081019091526000815260405180602001604052806145d96146f5866ec097ce7bc90715b34b9f100000000061467d565b856147fa565b60408051602081019091526000815260405180602001604052806145d98560000151856000015161483c565b6000817c010000000000000000000000000000000000000000000000000000000084106147675760405162461bcd60e51b8152600401610af29190614933565b509192915050565b600081848411156147935760405162461bcd60e51b8152600401610af29190614933565b5061267b8385614b9c565b60008315806147ab575082155b156147b857506000610a6c565b60006147c48486614c7c565b9050836147d18683614c9b565b1483906147f15760405162461bcd60e51b8152600401610af29190614933565b50949350505050565b6000610a6c83836040518060400160405280600e81526020017f646976696465206279207a65726f00000000000000000000000000000000000081525061487e565b6000610a6c83836040518060400160405280601181526020017f6164646974696f6e206f766572666c6f770000000000000000000000000000008152506148aa565b6000818361489f5760405162461bcd60e51b8152600401610af29190614933565b5061267b8385614c9b565b6000806148b78486614bb3565b905082858210156147f15760405162461bcd60e51b8152600401610af29190614933565b60005b838110156148f65781810151838201526020016148de565b83811115611b8a5750506000910152565b6000815180845261491f8160208601602086016148db565b601f01601f19169290920160200192915050565b602081526000610a6c6020830184614907565b6001600160a01b0381168114611b9a57600080fd5b6000806040838503121561496e57600080fd5b823561497981614946565b946020939093013593505050565b60006020828403121561499957600080fd5b5035919050565b6000806000606084860312156149b557600080fd5b83356149c081614946565b925060208401356149d081614946565b929592945050506040919091013590565b600080604083850312156149f457600080fd5b82356149ff81614946565b91506020830135614a0f81614946565b809150509250929050565b600060208284031215614a2c57600080fd5b8135610a6c81614946565b803560ff81168114614a4857600080fd5b919050565b600080600080600060a08688031215614a6557600080fd5b8535945060208601359350614a7c60408701614a37565b94979396509394606081013594506080013592915050565b8015158114611b9a57600080fd5b600060208284031215614ab457600080fd5b8135610a6c81614a94565b60008060408385031215614ad257600080fd5b823591506020830135614a0f81614a94565b600080600080600080600060e0888a031215614aff57600080fd5b8735614b0a81614946565b96506020880135614b1a81614946565b95506040880135945060608801359350614b3660808901614a37565b925060a0880135915060c0880135905092959891949750929550565b600181811c90821680614b6657607f821691505b60208210810361309357634e487b7160e01b600052602260045260246000fd5b634e487b7160e01b600052601160045260246000fd5b600082821015614bae57614bae614b86565b500390565b60008219821115614bc657614bc6614b86565b500190565b600060208284031215614bdd57600080fd5b8151610a6c81614a94565b60008060008060808587031215614bfe57600080fd5b505082516020840151604085015160609095015191969095509092509050565b634e487b7160e01b600052603260045260246000fd5b600060018201614c4657614c46614b86565b5060010190565b634e487b7160e01b600052603160045260246000fd5b600060208284031215614c7557600080fd5b5051919050565b6000816000190483118215151615614c9657614c96614b86565b500290565b600082614cb857634e487b7160e01b600052601260045260246000fd5b500490565b600080835481600182811c915080831680614cd957607f831692505b60208084108203614cf857634e487b7160e01b86526022600452602486fd5b818015614d0c5760018114614d1d57614d4a565b60ff19861689528489019650614d4a565b60008a81526020902060005b86811015614d425781548b820152908501908301614d29565b505084890196505b509498975050505050505050565b600060208284031215614d6a57600080fd5b8151610a6c81614946565b634e487b7160e01b600052604160045260246000fd5b80516dffffffffffffffffffffffffffff81168114614a4857600080fd5b805163ffffffff81168114614a4857600080fd5b600080600060608486031215614dd257600080fd5b614ddb84614d8b565b9250614de960208501614d8b565b9150614df760408501614da9565b90509250925092565b60006060820160ff8616835260206001600160a01b038087168286015260606040860152828651808552608087019150838801945060005b81811015614e56578551841683529484019491840191600101614e38565b50909998505050505050505050565b8481528360208201526001600160a01b0383166040820152608060608201526000614e936080830184614907565b9695505050505050565b60008251614eaf8184602087016148db565b9190910192915050565b60008060408385031215614ecc57600080fd5b82516001600160e01b0381168114614ee357600080fd5b9150614ef160208401614da9565b9050925092905056fe4f776e61626c653a2063616c6c6572206973206e6f7420746865206f776e6572a2646970667358221220c3dbe9e4073545f3954cb938bffb5a3276ebdf8f8a1c34984c2246b47e801bfa64736f6c634300080d00334f776e61626c653a2063616c6c6572206973206e6f7420746865206f776e65728be0079c531659141344cd1fd0a4f28419497f9722a3daafe3b4186f6b6457e0",
  "devdoc": {
    "kind": "dev",
    "methods": {
      "allowDepositor(address)": {
        "params": {
          "depositor": "address"
        }
      },
      "allowance(address,address)": {
        "params": {
          "account": "The address of the account holding the funds",
          "spender": "The address of the account spending the funds"
        },
        "returns": {
          "_0": "The number of tokens approved"
        }
      },
      "approve(address,uint256)": {
        "details": "This will overwrite the approval amount for `spender` and is subject to issues noted [here](https://eips.ethereum.org/EIPS/eip-20#approve) It is recommended to use increaseAllowance and decreaseAllowance instead",
        "params": {
          "amount": "The number of tokens that are approved (2^256-1 means infinite)",
          "spender": "The address of the account which may transfer tokens"
        },
        "returns": {
          "_0": "Whether or not the approval succeeded"
        }
      },
      "balanceOf(address)": {
        "params": {
          "account": "The address of the account to get the balance of"
        },
        "returns": {
          "_0": "The number of tokens held"
        }
      },
      "checkReward()": {
        "returns": {
          "_0": "reward tokens"
        }
      },
      "deposit(uint256)": {
        "params": {
          "_amount": "Amount of tokens to deposit"
        }
      },
      "depositWithPermit(uint256,uint256,uint8,bytes32,bytes32)": {
        "params": {
          "_amount": "Amount of tokens to deposit",
          "_deadline": "The time at which to expire the signature",
          "_r": "Half of the ECDSA signature pair",
          "_s": "Half of the ECDSA signature pair",
          "_v": "The recovery byte of the signature"
        }
      },
      "estimateDeployedBalance()": {
        "returns": {
          "_0": "deposit tokens after withdraw fee"
        }
      },
      "estimateReinvestReward()": {
        "returns": {
          "_0": "reward tokens"
        }
      },
      "getDepositTokensForShares(uint256)": {
        "params": {
          "amount": "receipt tokens"
        },
        "returns": {
          "_0": "deposit tokens"
        }
      },
      "getDomainSeparator()": {
        "returns": {
          "_0": "Separator"
        }
      },
      "getSharesForDepositTokens(uint256)": {
        "details": "If contract is empty, use 1:1 ratioCould return zero shares for very low amounts of deposit tokens",
        "params": {
          "amount": "deposit tokens"
        },
        "returns": {
          "_0": "receipt tokens"
        }
      },
      "owner()": {
        "details": "Returns the address of the current owner."
      },
      "permit(address,address,uint256,uint256,uint8,bytes32,bytes32)": {
        "params": {
          "deadline": "The time at which to expire the signature",
          "owner": "The address to approve from",
          "r": "Half of the ECDSA signature pair",
          "s": "Half of the ECDSA signature pair",
          "spender": "The address to be approved",
          "v": "The recovery byte of the signature",
          "value": "The number of tokens that are approved (2^256-1 means infinite)"
        }
      },
      "recoverAVAX(uint256)": {
        "params": {
          "amount": "amount"
        }
      },
      "recoverERC20(address,uint256)": {
        "params": {
          "tokenAddress": "token address",
          "tokenAmount": "amount to recover"
        }
      },
      "removeDepositor(address)": {
        "params": {
          "depositor": "address"
        }
      },
      "renounceOwnership()": {
        "details": "Leaves the contract without owner. It will not be possible to call `onlyOwner` functions anymore. Can only be called by the current owner. NOTE: Renouncing ownership will leave the contract without an owner, thereby removing any functionality that is only available to the owner."
      },
      "revokeAllowance(address,address)": {
        "params": {
          "spender": "address",
          "token": "address"
        }
      },
      "totalDeposits()": {
        "returns": {
          "_0": "total deposits available on the contract"
        }
      },
      "transfer(address,uint256)": {
        "params": {
          "amount": "The number of tokens to transfer",
          "dst": "The address of the destination account"
        },
        "returns": {
          "_0": "Whether or not the transfer succeeded"
        }
      },
      "transferFrom(address,address,uint256)": {
        "params": {
          "amount": "The number of tokens to transfer",
          "dst": "The address of the destination account",
          "src": "The address of the source account"
        },
        "returns": {
          "_0": "Whether or not the transfer succeeded"
        }
      },
      "transferOwnership(address)": {
        "details": "Transfers ownership of the contract to a new account (`newOwner`). Can only be called by the current owner."
      },
      "updateAdminFee(uint256)": {
        "details": "Deprecated; Kept for compatibility",
        "params": {
          "newValue": "fee in BIPS; required to be 0"
        }
      },
      "updateDepositsEnabled(bool)": {
        "params": {
          "newValue": "bool"
        }
      },
      "updateDevAddr(address)": {
        "params": {
          "newValue": "address"
        }
      },
      "updateDevFee(uint256)": {
        "params": {
          "newValue": "fee in BIPS"
        }
      },
      "updateMaxTokensToDepositWithoutReinvest(uint256)": {
        "params": {
          "newValue": "threshold"
        }
      },
      "updateMinTokensToReinvest(uint256)": {
        "params": {
          "newValue": "threshold"
        }
      },
      "updateReinvestReward(uint256)": {
        "params": {
          "newValue": "fee in BIPS"
        }
      }
    },
    "version": 1
  },
  "userdoc": {
    "kind": "user",
    "methods": {
      "allowDepositor(address)": {
        "notice": "Add an allowed depositor"
      },
      "allowance(address,address)": {
        "notice": "Get the number of tokens `spender` is approved to spend on behalf of `account`"
      },
      "approve(address,uint256)": {
        "notice": "Approve `spender` to transfer up to `amount` from `src`"
      },
      "balanceOf(address)": {
        "notice": "Get the number of tokens held by the `account`"
      },
      "checkReward()": {
        "notice": "Reward tokens available to strategy, including balance"
      },
      "deposit(uint256)": {
        "notice": "Deposit tokens to receive receipt tokens"
      },
      "depositWithPermit(uint256,uint256,uint8,bytes32,bytes32)": {
        "notice": "Deposit using Permit"
      },
      "estimateDeployedBalance()": {
        "notice": "Estimate recoverable balance after withdraw fee"
      },
      "estimateReinvestReward()": {
        "notice": "Estimate reinvest reward"
      },
      "getDepositTokensForShares(uint256)": {
        "notice": "Calculate deposit tokens for a given amount of receipt tokens"
      },
      "getDomainSeparator()": {
        "notice": "EIP-712 Domain separator"
      },
      "getSharesForDepositTokens(uint256)": {
        "notice": "Calculate receipt tokens for a given amount of deposit tokens"
      },
      "permit(address,address,uint256,uint256,uint8,bytes32,bytes32)": {
        "notice": "Triggers an approval from owner to spender"
      },
      "recoverAVAX(uint256)": {
        "notice": "Recover AVAX from contract"
      },
      "recoverERC20(address,uint256)": {
        "notice": "Recover ERC20 from contract"
      },
      "reinvest()": {
        "notice": "Reinvest reward tokens into deposit tokens"
      },
      "removeDepositor(address)": {
        "notice": "Remove an allowed depositor"
      },
      "revokeAllowance(address,address)": {
        "notice": "Revoke token allowance"
      },
      "totalDeposits()": {
        "notice": "This function returns a snapshot of last available quotes"
      },
      "transfer(address,uint256)": {
        "notice": "Transfer `amount` tokens from `msg.sender` to `dst`"
      },
      "transferFrom(address,address,uint256)": {
        "notice": "Transfer `amount` tokens from `src` to `dst`"
      },
      "updateAdminFee(uint256)": {
        "notice": "Update admin fee"
      },
      "updateDepositsEnabled(bool)": {
        "notice": "Enable/disable deposits"
      },
      "updateDevAddr(address)": {
        "notice": "Update devAddr"
      },
      "updateDevFee(uint256)": {
        "notice": "Update developer fee"
      },
      "updateMaxTokensToDepositWithoutReinvest(uint256)": {
        "notice": "Update reinvest max threshold before a deposit"
      },
      "updateMinTokensToReinvest(uint256)": {
        "notice": "Update reinvest min threshold"
      },
      "updateReinvestReward(uint256)": {
        "notice": "Update reinvest reward"
      }
    },
    "version": 1
  },
  "storageLayout": {
    "storage": [
      {
        "astId": 552,
        "contract": "contracts/strategies/avalanche/benqi/BenqiStrategyQiV2.sol:BenqiStrategyQiV2",
        "label": "name",
        "offset": 0,
        "slot": "0",
        "type": "t_string_storage"
      },
      {
        "astId": 555,
        "contract": "contracts/strategies/avalanche/benqi/BenqiStrategyQiV2.sol:BenqiStrategyQiV2",
        "label": "symbol",
        "offset": 0,
        "slot": "1",
        "type": "t_string_storage"
      },
      {
        "astId": 560,
        "contract": "contracts/strategies/avalanche/benqi/BenqiStrategyQiV2.sol:BenqiStrategyQiV2",
        "label": "totalSupply",
        "offset": 0,
        "slot": "2",
        "type": "t_uint256"
      },
      {
        "astId": 566,
        "contract": "contracts/strategies/avalanche/benqi/BenqiStrategyQiV2.sol:BenqiStrategyQiV2",
        "label": "allowances",
        "offset": 0,
        "slot": "3",
        "type": "t_mapping(t_address,t_mapping(t_address,t_uint256))"
      },
      {
        "astId": 570,
        "contract": "contracts/strategies/avalanche/benqi/BenqiStrategyQiV2.sol:BenqiStrategyQiV2",
        "label": "balances",
        "offset": 0,
        "slot": "4",
        "type": "t_mapping(t_address,t_uint256)"
      },
      {
        "astId": 586,
        "contract": "contracts/strategies/avalanche/benqi/BenqiStrategyQiV2.sol:BenqiStrategyQiV2",
        "label": "nonces",
        "offset": 0,
        "slot": "5",
        "type": "t_mapping(t_address,t_uint256)"
      },
      {
        "astId": 8040,
        "contract": "contracts/strategies/avalanche/benqi/BenqiStrategyQiV2.sol:BenqiStrategyQiV2",
        "label": "_owner",
        "offset": 0,
        "slot": "6",
        "type": "t_address"
      },
      {
        "astId": 8149,
        "contract": "contracts/strategies/avalanche/benqi/BenqiStrategyQiV2.sol:BenqiStrategyQiV2",
        "label": "numberOfAllowedDepositors",
        "offset": 0,
        "slot": "7",
        "type": "t_uint256"
      },
      {
        "astId": 8153,
        "contract": "contracts/strategies/avalanche/benqi/BenqiStrategyQiV2.sol:BenqiStrategyQiV2",
        "label": "allowedDepositors",
        "offset": 0,
        "slot": "8",
        "type": "t_mapping(t_address,t_bool)"
      },
      {
        "astId": 1955,
        "contract": "contracts/strategies/avalanche/benqi/BenqiStrategyQiV2.sol:BenqiStrategyQiV2",
        "label": "devAddr",
        "offset": 0,
        "slot": "9",
        "type": "t_address"
      },
      {
        "astId": 1957,
        "contract": "contracts/strategies/avalanche/benqi/BenqiStrategyQiV2.sol:BenqiStrategyQiV2",
        "label": "MIN_TOKENS_TO_REINVEST",
        "offset": 0,
        "slot": "10",
        "type": "t_uint256"
      },
      {
        "astId": 1959,
        "contract": "contracts/strategies/avalanche/benqi/BenqiStrategyQiV2.sol:BenqiStrategyQiV2",
        "label": "MAX_TOKENS_TO_DEPOSIT_WITHOUT_REINVEST",
        "offset": 0,
        "slot": "11",
        "type": "t_uint256"
      },
      {
        "astId": 1961,
        "contract": "contracts/strategies/avalanche/benqi/BenqiStrategyQiV2.sol:BenqiStrategyQiV2",
        "label": "DEPOSITS_ENABLED",
        "offset": 0,
        "slot": "12",
        "type": "t_bool"
      },
      {
        "astId": 1963,
        "contract": "contracts/strategies/avalanche/benqi/BenqiStrategyQiV2.sol:BenqiStrategyQiV2",
        "label": "ADMIN_FEE_BIPS",
        "offset": 0,
        "slot": "13",
        "type": "t_uint256"
      },
      {
        "astId": 1965,
        "contract": "contracts/strategies/avalanche/benqi/BenqiStrategyQiV2.sol:BenqiStrategyQiV2",
        "label": "REINVEST_REWARD_BIPS",
        "offset": 0,
        "slot": "14",
        "type": "t_uint256"
      },
      {
        "astId": 1967,
        "contract": "contracts/strategies/avalanche/benqi/BenqiStrategyQiV2.sol:BenqiStrategyQiV2",
        "label": "DEV_FEE_BIPS",
        "offset": 0,
        "slot": "15",
        "type": "t_uint256"
      },
      {
        "astId": 11904,
        "contract": "contracts/strategies/avalanche/benqi/BenqiStrategyQiV2.sol:BenqiStrategyQiV2",
        "label": "rewardSwapPairs",
        "offset": 0,
        "slot": "16",
        "type": "t_mapping(t_address,t_struct(RewardSwapPair)11899_storage)"
      },
      {
        "astId": 11907,
        "contract": "contracts/strategies/avalanche/benqi/BenqiStrategyQiV2.sol:BenqiStrategyQiV2",
        "label": "supportedRewards",
        "offset": 0,
        "slot": "17",
        "type": "t_array(t_address)dyn_storage"
      },
      {
        "astId": 11909,
        "contract": "contracts/strategies/avalanche/benqi/BenqiStrategyQiV2.sol:BenqiStrategyQiV2",
        "label": "rewardCount",
        "offset": 0,
        "slot": "18",
        "type": "t_uint256"
      },
      {
        "astId": 13263,
        "contract": "contracts/strategies/avalanche/benqi/BenqiStrategyQiV2.sol:BenqiStrategyQiV2",
        "label": "swapPairDepositToken",
        "offset": 0,
        "slot": "19",
        "type": "t_address"
      },
      {
        "astId": 24302,
        "contract": "contracts/strategies/avalanche/benqi/BenqiStrategyQiV2.sol:BenqiStrategyQiV2",
        "label": "rewardController",
        "offset": 0,
        "slot": "20",
        "type": "t_contract(IBenqiUnitroller)26604"
      },
      {
        "astId": 24305,
        "contract": "contracts/strategies/avalanche/benqi/BenqiStrategyQiV2.sol:BenqiStrategyQiV2",
        "label": "tokenDelegator",
        "offset": 0,
        "slot": "21",
        "type": "t_contract(IBenqiERC20Delegator)26409"
      },
      {
        "astId": 24307,
        "contract": "contracts/strategies/avalanche/benqi/BenqiStrategyQiV2.sol:BenqiStrategyQiV2",
        "label": "leverageLevel",
        "offset": 0,
        "slot": "22",
        "type": "t_uint256"
      },
      {
        "astId": 24309,
        "contract": "contracts/strategies/avalanche/benqi/BenqiStrategyQiV2.sol:BenqiStrategyQiV2",
        "label": "leverageBips",
        "offset": 0,
        "slot": "23",
        "type": "t_uint256"
      },
      {
        "astId": 24311,
        "contract": "contracts/strategies/avalanche/benqi/BenqiStrategyQiV2.sol:BenqiStrategyQiV2",
        "label": "minMinting",
        "offset": 0,
        "slot": "24",
        "type": "t_uint256"
      },
      {
        "astId": 24313,
        "contract": "contracts/strategies/avalanche/benqi/BenqiStrategyQiV2.sol:BenqiStrategyQiV2",
        "label": "redeemLimitSafetyMargin",
        "offset": 0,
        "slot": "25",
        "type": "t_uint256"
      }
    ],
    "types": {
      "t_address": {
        "encoding": "inplace",
        "label": "address",
        "numberOfBytes": "20"
      },
      "t_array(t_address)dyn_storage": {
        "base": "t_address",
        "encoding": "dynamic_array",
        "label": "address[]",
        "numberOfBytes": "32"
      },
      "t_bool": {
        "encoding": "inplace",
        "label": "bool",
        "numberOfBytes": "1"
      },
      "t_contract(IBenqiERC20Delegator)26409": {
        "encoding": "inplace",
        "label": "contract IBenqiERC20Delegator",
        "numberOfBytes": "20"
      },
      "t_contract(IBenqiUnitroller)26604": {
        "encoding": "inplace",
        "label": "contract IBenqiUnitroller",
        "numberOfBytes": "20"
      },
      "t_mapping(t_address,t_bool)": {
        "encoding": "mapping",
        "key": "t_address",
        "label": "mapping(address => bool)",
        "numberOfBytes": "32",
        "value": "t_bool"
      },
      "t_mapping(t_address,t_mapping(t_address,t_uint256))": {
        "encoding": "mapping",
        "key": "t_address",
        "label": "mapping(address => mapping(address => uint256))",
        "numberOfBytes": "32",
        "value": "t_mapping(t_address,t_uint256)"
      },
      "t_mapping(t_address,t_struct(RewardSwapPair)11899_storage)": {
        "encoding": "mapping",
        "key": "t_address",
        "label": "mapping(address => struct VariableRewardsStrategy.RewardSwapPair)",
        "numberOfBytes": "32",
        "value": "t_struct(RewardSwapPair)11899_storage"
      },
      "t_mapping(t_address,t_uint256)": {
        "encoding": "mapping",
        "key": "t_address",
        "label": "mapping(address => uint256)",
        "numberOfBytes": "32",
        "value": "t_uint256"
      },
      "t_string_storage": {
        "encoding": "bytes",
        "label": "string",
        "numberOfBytes": "32"
      },
      "t_struct(RewardSwapPair)11899_storage": {
        "encoding": "inplace",
        "label": "struct VariableRewardsStrategy.RewardSwapPair",
        "members": [
          {
            "astId": 11894,
            "contract": "contracts/strategies/avalanche/benqi/BenqiStrategyQiV2.sol:BenqiStrategyQiV2",
            "label": "reward",
            "offset": 0,
            "slot": "0",
            "type": "t_address"
          },
          {
            "astId": 11896,
            "contract": "contracts/strategies/avalanche/benqi/BenqiStrategyQiV2.sol:BenqiStrategyQiV2",
            "label": "swapPair",
            "offset": 0,
            "slot": "1",
            "type": "t_address"
          },
          {
            "astId": 11898,
            "contract": "contracts/strategies/avalanche/benqi/BenqiStrategyQiV2.sol:BenqiStrategyQiV2",
            "label": "swapFee",
            "offset": 0,
            "slot": "2",
            "type": "t_uint256"
          }
        ],
        "numberOfBytes": "96"
      },
      "t_uint256": {
        "encoding": "inplace",
        "label": "uint256",
        "numberOfBytes": "32"
      }
    }
  }
}