{
  "address": "0x8B414448de8B609e96bd63Dcf2A8aDbd5ddf7fdd",
  "abi": [
    {
      "inputs": [
        {
          "internalType": "string",
          "name": "_name",
          "type": "string"
        },
        {
          "internalType": "address",
          "name": "_rewardController",
          "type": "address"
        },
        {
          "internalType": "address",
          "name": "_tokenDelegator",
          "type": "address"
        },
        {
          "internalType": "address",
          "name": "_rewardToken0",
          "type": "address"
        },
        {
          "internalType": "address",
          "name": "_swapPairToken0",
          "type": "address"
        },
        {
          "internalType": "address",
          "name": "_timelock",
          "type": "address"
        },
        {
          "internalType": "uint256",
          "name": "_minMinting",
          "type": "uint256"
        },
        {
          "internalType": "uint256",
          "name": "_leverageLevel",
          "type": "uint256"
        },
        {
          "internalType": "uint256",
          "name": "_leverageBips",
          "type": "uint256"
        },
        {
          "internalType": "uint256",
          "name": "_minTokensToReinvest",
          "type": "uint256"
        },
        {
          "internalType": "uint256",
          "name": "_adminFeeBips",
          "type": "uint256"
        },
        {
          "internalType": "uint256",
          "name": "_devFeeBips",
          "type": "uint256"
        },
        {
          "internalType": "uint256",
          "name": "_reinvestRewardBips",
          "type": "uint256"
        }
      ],
      "stateMutability": "nonpayable",
      "type": "constructor"
    },
    {
      "anonymous": false,
      "inputs": [
        {
          "indexed": true,
          "internalType": "address",
          "name": "account",
          "type": "address"
        }
      ],
      "name": "AllowDepositor",
      "type": "event"
    },
    {
      "anonymous": false,
      "inputs": [
        {
          "indexed": true,
          "internalType": "address",
          "name": "owner",
          "type": "address"
        },
        {
          "indexed": true,
          "internalType": "address",
          "name": "spender",
          "type": "address"
        },
        {
          "indexed": false,
          "internalType": "uint256",
          "name": "value",
          "type": "uint256"
        }
      ],
      "name": "Approval",
      "type": "event"
    },
    {
      "anonymous": false,
      "inputs": [
        {
          "indexed": true,
          "internalType": "address",
          "name": "account",
          "type": "address"
        },
        {
          "indexed": false,
          "internalType": "uint256",
          "name": "amount",
          "type": "uint256"
        }
      ],
      "name": "Deposit",
      "type": "event"
    },
    {
      "anonymous": false,
      "inputs": [
        {
          "indexed": false,
          "internalType": "bool",
          "name": "newValue",
          "type": "bool"
        }
      ],
      "name": "DepositsEnabled",
      "type": "event"
    },
    {
      "anonymous": false,
      "inputs": [
        {
          "indexed": true,
          "internalType": "address",
          "name": "previousOwner",
          "type": "address"
        },
        {
          "indexed": true,
          "internalType": "address",
          "name": "newOwner",
          "type": "address"
        }
      ],
      "name": "OwnershipTransferred",
      "type": "event"
    },
    {
      "anonymous": false,
      "inputs": [
        {
          "indexed": false,
          "internalType": "address",
          "name": "token",
          "type": "address"
        },
        {
          "indexed": false,
          "internalType": "uint256",
          "name": "amount",
          "type": "uint256"
        }
      ],
      "name": "Recovered",
      "type": "event"
    },
    {
      "anonymous": false,
      "inputs": [
        {
          "indexed": false,
          "internalType": "uint256",
          "name": "newTotalDeposits",
          "type": "uint256"
        },
        {
          "indexed": false,
          "internalType": "uint256",
          "name": "newTotalSupply",
          "type": "uint256"
        }
      ],
      "name": "Reinvest",
      "type": "event"
    },
    {
      "anonymous": false,
      "inputs": [
        {
          "indexed": true,
          "internalType": "address",
          "name": "account",
          "type": "address"
        }
      ],
      "name": "RemoveDepositor",
      "type": "event"
    },
    {
      "anonymous": false,
      "inputs": [
        {
          "indexed": true,
          "internalType": "address",
          "name": "from",
          "type": "address"
        },
        {
          "indexed": true,
          "internalType": "address",
          "name": "to",
          "type": "address"
        },
        {
          "indexed": false,
          "internalType": "uint256",
          "name": "value",
          "type": "uint256"
        }
      ],
      "name": "Transfer",
      "type": "event"
    },
    {
      "anonymous": false,
      "inputs": [
        {
          "indexed": false,
          "internalType": "uint256",
          "name": "oldValue",
          "type": "uint256"
        },
        {
          "indexed": false,
          "internalType": "uint256",
          "name": "newValue",
          "type": "uint256"
        }
      ],
      "name": "UpdateAdminFee",
      "type": "event"
    },
    {
      "anonymous": false,
      "inputs": [
        {
          "indexed": false,
          "internalType": "address",
          "name": "oldValue",
          "type": "address"
        },
        {
          "indexed": false,
          "internalType": "address",
          "name": "newValue",
          "type": "address"
        }
      ],
      "name": "UpdateDevAddr",
      "type": "event"
    },
    {
      "anonymous": false,
      "inputs": [
        {
          "indexed": false,
          "internalType": "uint256",
          "name": "oldValue",
          "type": "uint256"
        },
        {
          "indexed": false,
          "internalType": "uint256",
          "name": "newValue",
          "type": "uint256"
        }
      ],
      "name": "UpdateDevFee",
      "type": "event"
    },
    {
      "anonymous": false,
      "inputs": [
        {
          "indexed": false,
          "internalType": "uint256",
          "name": "oldValue",
          "type": "uint256"
        },
        {
          "indexed": false,
          "internalType": "uint256",
          "name": "newValue",
          "type": "uint256"
        }
      ],
      "name": "UpdateMaxTokensToDepositWithoutReinvest",
      "type": "event"
    },
    {
      "anonymous": false,
      "inputs": [
        {
          "indexed": false,
          "internalType": "uint256",
          "name": "oldValue",
          "type": "uint256"
        },
        {
          "indexed": false,
          "internalType": "uint256",
          "name": "newValue",
          "type": "uint256"
        }
      ],
      "name": "UpdateMinTokensToReinvest",
      "type": "event"
    },
    {
      "anonymous": false,
      "inputs": [
        {
          "indexed": false,
          "internalType": "uint256",
          "name": "oldValue",
          "type": "uint256"
        },
        {
          "indexed": false,
          "internalType": "uint256",
          "name": "newValue",
          "type": "uint256"
        }
      ],
      "name": "UpdateReinvestReward",
      "type": "event"
    },
    {
      "anonymous": false,
      "inputs": [
        {
          "indexed": true,
          "internalType": "address",
          "name": "account",
          "type": "address"
        },
        {
          "indexed": false,
          "internalType": "uint256",
          "name": "amount",
          "type": "uint256"
        }
      ],
      "name": "Withdraw",
      "type": "event"
    },
    {
      "inputs": [],
      "name": "ADMIN_FEE_BIPS",
      "outputs": [
        {
          "internalType": "uint256",
          "name": "",
          "type": "uint256"
        }
      ],
      "stateMutability": "view",
      "type": "function"
    },
    {
      "inputs": [],
      "name": "DEPOSITS_ENABLED",
      "outputs": [
        {
          "internalType": "bool",
          "name": "",
          "type": "bool"
        }
      ],
      "stateMutability": "view",
      "type": "function"
    },
    {
      "inputs": [],
      "name": "DEV_FEE_BIPS",
      "outputs": [
        {
          "internalType": "uint256",
          "name": "",
          "type": "uint256"
        }
      ],
      "stateMutability": "view",
      "type": "function"
    },
    {
      "inputs": [],
      "name": "DOMAIN_TYPEHASH",
      "outputs": [
        {
          "internalType": "bytes32",
          "name": "",
          "type": "bytes32"
        }
      ],
      "stateMutability": "view",
      "type": "function"
    },
    {
      "inputs": [],
      "name": "MAX_TOKENS_TO_DEPOSIT_WITHOUT_REINVEST",
      "outputs": [
        {
          "internalType": "uint256",
          "name": "",
          "type": "uint256"
        }
      ],
      "stateMutability": "view",
      "type": "function"
    },
    {
      "inputs": [],
      "name": "MIN_TOKENS_TO_REINVEST",
      "outputs": [
        {
          "internalType": "uint256",
          "name": "",
          "type": "uint256"
        }
      ],
      "stateMutability": "view",
      "type": "function"
    },
    {
      "inputs": [],
      "name": "PERMIT_TYPEHASH",
      "outputs": [
        {
          "internalType": "bytes32",
          "name": "",
          "type": "bytes32"
        }
      ],
      "stateMutability": "view",
      "type": "function"
    },
    {
      "inputs": [],
      "name": "REINVEST_REWARD_BIPS",
      "outputs": [
        {
          "internalType": "uint256",
          "name": "",
          "type": "uint256"
        }
      ],
      "stateMutability": "view",
      "type": "function"
    },
    {
      "inputs": [],
      "name": "VERSION_HASH",
      "outputs": [
        {
          "internalType": "bytes32",
          "name": "",
          "type": "bytes32"
        }
      ],
      "stateMutability": "view",
      "type": "function"
    },
    {
      "inputs": [
        {
          "internalType": "address",
          "name": "depositor",
          "type": "address"
        }
      ],
      "name": "allowDepositor",
      "outputs": [],
      "stateMutability": "nonpayable",
      "type": "function"
    },
    {
      "inputs": [
        {
          "internalType": "address",
          "name": "account",
          "type": "address"
        },
        {
          "internalType": "address",
          "name": "spender",
          "type": "address"
        }
      ],
      "name": "allowance",
      "outputs": [
        {
          "internalType": "uint256",
          "name": "",
          "type": "uint256"
        }
      ],
      "stateMutability": "view",
      "type": "function"
    },
    {
      "inputs": [
        {
          "internalType": "address",
          "name": "",
          "type": "address"
        }
      ],
      "name": "allowedDepositors",
      "outputs": [
        {
          "internalType": "bool",
          "name": "",
          "type": "bool"
        }
      ],
      "stateMutability": "view",
      "type": "function"
    },
    {
      "inputs": [
        {
          "internalType": "address",
          "name": "spender",
          "type": "address"
        },
        {
          "internalType": "uint256",
          "name": "amount",
          "type": "uint256"
        }
      ],
      "name": "approve",
      "outputs": [
        {
          "internalType": "bool",
          "name": "",
          "type": "bool"
        }
      ],
      "stateMutability": "nonpayable",
      "type": "function"
    },
    {
      "inputs": [
        {
          "internalType": "address",
          "name": "account",
          "type": "address"
        }
      ],
      "name": "balanceOf",
      "outputs": [
        {
          "internalType": "uint256",
          "name": "",
          "type": "uint256"
        }
      ],
      "stateMutability": "view",
      "type": "function"
    },
    {
      "inputs": [],
      "name": "checkReward",
      "outputs": [
        {
          "internalType": "uint256",
          "name": "",
          "type": "uint256"
        }
      ],
      "stateMutability": "view",
      "type": "function"
    },
    {
      "inputs": [],
      "name": "decimals",
      "outputs": [
        {
          "internalType": "uint8",
          "name": "",
          "type": "uint8"
        }
      ],
      "stateMutability": "view",
      "type": "function"
    },
    {
      "inputs": [
        {
          "internalType": "uint256",
          "name": "amount",
          "type": "uint256"
        }
      ],
      "name": "deposit",
      "outputs": [],
      "stateMutability": "nonpayable",
      "type": "function"
    },
    {
      "inputs": [],
      "name": "deposit",
      "outputs": [],
      "stateMutability": "payable",
      "type": "function"
    },
    {
      "inputs": [
        {
          "internalType": "address",
          "name": "account",
          "type": "address"
        },
        {
          "internalType": "uint256",
          "name": "amount",
          "type": "uint256"
        }
      ],
      "name": "depositFor",
      "outputs": [],
      "stateMutability": "nonpayable",
      "type": "function"
    },
    {
      "inputs": [
        {
          "internalType": "address",
          "name": "account",
          "type": "address"
        }
      ],
      "name": "depositFor",
      "outputs": [],
      "stateMutability": "payable",
      "type": "function"
    },
    {
      "inputs": [],
      "name": "depositToken",
      "outputs": [
        {
          "internalType": "contract IERC20",
          "name": "",
          "type": "address"
        }
      ],
      "stateMutability": "view",
      "type": "function"
    },
    {
      "inputs": [
        {
          "internalType": "uint256",
          "name": "amount",
          "type": "uint256"
        },
        {
          "internalType": "uint256",
          "name": "deadline",
          "type": "uint256"
        },
        {
          "internalType": "uint8",
          "name": "v",
          "type": "uint8"
        },
        {
          "internalType": "bytes32",
          "name": "r",
          "type": "bytes32"
        },
        {
          "internalType": "bytes32",
          "name": "s",
          "type": "bytes32"
        }
      ],
      "name": "depositWithPermit",
      "outputs": [],
      "stateMutability": "nonpayable",
      "type": "function"
    },
    {
      "inputs": [],
      "name": "devAddr",
      "outputs": [
        {
          "internalType": "address",
          "name": "",
          "type": "address"
        }
      ],
      "stateMutability": "view",
      "type": "function"
    },
    {
      "inputs": [],
      "name": "estimateDeployedBalance",
      "outputs": [
        {
          "internalType": "uint256",
          "name": "",
          "type": "uint256"
        }
      ],
      "stateMutability": "view",
      "type": "function"
    },
    {
      "inputs": [],
      "name": "estimateReinvestReward",
      "outputs": [
        {
          "internalType": "uint256",
          "name": "",
          "type": "uint256"
        }
      ],
      "stateMutability": "view",
      "type": "function"
    },
    {
      "inputs": [],
      "name": "getActualLeverage",
      "outputs": [
        {
          "internalType": "uint256",
          "name": "",
          "type": "uint256"
        }
      ],
      "stateMutability": "view",
      "type": "function"
    },
    {
      "inputs": [
        {
          "internalType": "uint256",
          "name": "amount",
          "type": "uint256"
        }
      ],
      "name": "getDepositTokensForShares",
      "outputs": [
        {
          "internalType": "uint256",
          "name": "",
          "type": "uint256"
        }
      ],
      "stateMutability": "view",
      "type": "function"
    },
    {
      "inputs": [],
      "name": "getDomainSeparator",
      "outputs": [
        {
          "internalType": "bytes32",
          "name": "",
          "type": "bytes32"
        }
      ],
      "stateMutability": "view",
      "type": "function"
    },
    {
      "inputs": [
        {
          "internalType": "uint256",
          "name": "amount",
          "type": "uint256"
        }
      ],
      "name": "getSharesForDepositTokens",
      "outputs": [
        {
          "internalType": "uint256",
          "name": "",
          "type": "uint256"
        }
      ],
      "stateMutability": "view",
      "type": "function"
    },
    {
      "inputs": [],
      "name": "name",
      "outputs": [
        {
          "internalType": "string",
          "name": "",
          "type": "string"
        }
      ],
      "stateMutability": "view",
      "type": "function"
    },
    {
      "inputs": [
        {
          "internalType": "address",
          "name": "",
          "type": "address"
        }
      ],
      "name": "nonces",
      "outputs": [
        {
          "internalType": "uint256",
          "name": "",
          "type": "uint256"
        }
      ],
      "stateMutability": "view",
      "type": "function"
    },
    {
      "inputs": [],
      "name": "numberOfAllowedDepositors",
      "outputs": [
        {
          "internalType": "uint256",
          "name": "",
          "type": "uint256"
        }
      ],
      "stateMutability": "view",
      "type": "function"
    },
    {
      "inputs": [],
      "name": "owner",
      "outputs": [
        {
          "internalType": "address",
          "name": "",
          "type": "address"
        }
      ],
      "stateMutability": "view",
      "type": "function"
    },
    {
      "inputs": [
        {
          "internalType": "address",
          "name": "owner",
          "type": "address"
        },
        {
          "internalType": "address",
          "name": "spender",
          "type": "address"
        },
        {
          "internalType": "uint256",
          "name": "value",
          "type": "uint256"
        },
        {
          "internalType": "uint256",
          "name": "deadline",
          "type": "uint256"
        },
        {
          "internalType": "uint8",
          "name": "v",
          "type": "uint8"
        },
        {
          "internalType": "bytes32",
          "name": "r",
          "type": "bytes32"
        },
        {
          "internalType": "bytes32",
          "name": "s",
          "type": "bytes32"
        }
      ],
      "name": "permit",
      "outputs": [],
      "stateMutability": "nonpayable",
      "type": "function"
    },
    {
      "inputs": [
        {
          "internalType": "uint256",
          "name": "amount",
          "type": "uint256"
        }
      ],
      "name": "recoverAVAX",
      "outputs": [],
      "stateMutability": "nonpayable",
      "type": "function"
    },
    {
      "inputs": [
        {
          "internalType": "address",
          "name": "tokenAddress",
          "type": "address"
        },
        {
          "internalType": "uint256",
          "name": "tokenAmount",
          "type": "uint256"
        }
      ],
      "name": "recoverERC20",
      "outputs": [],
      "stateMutability": "nonpayable",
      "type": "function"
    },
    {
      "inputs": [],
      "name": "reinvest",
      "outputs": [],
      "stateMutability": "nonpayable",
      "type": "function"
    },
    {
      "inputs": [
        {
          "internalType": "address",
          "name": "depositor",
          "type": "address"
        }
      ],
      "name": "removeDepositor",
      "outputs": [],
      "stateMutability": "nonpayable",
      "type": "function"
    },
    {
      "inputs": [],
      "name": "renounceOwnership",
      "outputs": [],
      "stateMutability": "nonpayable",
      "type": "function"
    },
    {
      "inputs": [
        {
          "internalType": "uint256",
          "name": "minReturnAmountAccepted",
          "type": "uint256"
        },
        {
          "internalType": "bool",
          "name": "disableDeposits",
          "type": "bool"
        }
      ],
      "name": "rescueDeployedFunds",
      "outputs": [],
      "stateMutability": "nonpayable",
      "type": "function"
    },
    {
      "inputs": [
        {
          "internalType": "address",
          "name": "token",
          "type": "address"
        },
        {
          "internalType": "address",
          "name": "spender",
          "type": "address"
        }
      ],
      "name": "revokeAllowance",
      "outputs": [],
      "stateMutability": "nonpayable",
      "type": "function"
    },
    {
      "inputs": [],
      "name": "rewardToken",
      "outputs": [
        {
          "internalType": "contract IERC20",
          "name": "",
          "type": "address"
        }
      ],
      "stateMutability": "view",
      "type": "function"
    },
    {
      "inputs": [],
      "name": "setAllowances",
      "outputs": [],
      "stateMutability": "nonpayable",
      "type": "function"
    },
    {
      "inputs": [],
      "name": "symbol",
      "outputs": [
        {
          "internalType": "string",
          "name": "",
          "type": "string"
        }
      ],
      "stateMutability": "view",
      "type": "function"
    },
    {
      "inputs": [],
      "name": "totalDeposits",
      "outputs": [
        {
          "internalType": "uint256",
          "name": "",
          "type": "uint256"
        }
      ],
      "stateMutability": "view",
      "type": "function"
    },
    {
      "inputs": [],
      "name": "totalSupply",
      "outputs": [
        {
          "internalType": "uint256",
          "name": "",
          "type": "uint256"
        }
      ],
      "stateMutability": "view",
      "type": "function"
    },
    {
      "inputs": [
        {
          "internalType": "address",
          "name": "dst",
          "type": "address"
        },
        {
          "internalType": "uint256",
          "name": "amount",
          "type": "uint256"
        }
      ],
      "name": "transfer",
      "outputs": [
        {
          "internalType": "bool",
          "name": "",
          "type": "bool"
        }
      ],
      "stateMutability": "nonpayable",
      "type": "function"
    },
    {
      "inputs": [
        {
          "internalType": "address",
          "name": "src",
          "type": "address"
        },
        {
          "internalType": "address",
          "name": "dst",
          "type": "address"
        },
        {
          "internalType": "uint256",
          "name": "amount",
          "type": "uint256"
        }
      ],
      "name": "transferFrom",
      "outputs": [
        {
          "internalType": "bool",
          "name": "",
          "type": "bool"
        }
      ],
      "stateMutability": "nonpayable",
      "type": "function"
    },
    {
      "inputs": [
        {
          "internalType": "address",
          "name": "newOwner",
          "type": "address"
        }
      ],
      "name": "transferOwnership",
      "outputs": [],
      "stateMutability": "nonpayable",
      "type": "function"
    },
    {
      "inputs": [
        {
          "internalType": "uint256",
          "name": "newValue",
          "type": "uint256"
        }
      ],
      "name": "updateAdminFee",
      "outputs": [],
      "stateMutability": "nonpayable",
      "type": "function"
    },
    {
      "inputs": [
        {
          "internalType": "bool",
          "name": "newValue",
          "type": "bool"
        }
      ],
      "name": "updateDepositsEnabled",
      "outputs": [],
      "stateMutability": "nonpayable",
      "type": "function"
    },
    {
      "inputs": [
        {
          "internalType": "address",
          "name": "newValue",
          "type": "address"
        }
      ],
      "name": "updateDevAddr",
      "outputs": [],
      "stateMutability": "nonpayable",
      "type": "function"
    },
    {
      "inputs": [
        {
          "internalType": "uint256",
          "name": "newValue",
          "type": "uint256"
        }
      ],
      "name": "updateDevFee",
      "outputs": [],
      "stateMutability": "nonpayable",
      "type": "function"
    },
    {
      "inputs": [
        {
          "internalType": "uint256",
          "name": "_leverageLevel",
          "type": "uint256"
        },
        {
          "internalType": "uint256",
          "name": "_leverageBips",
          "type": "uint256"
        }
      ],
      "name": "updateLeverage",
      "outputs": [],
      "stateMutability": "nonpayable",
      "type": "function"
    },
    {
      "inputs": [
        {
          "internalType": "uint256",
          "name": "newValue",
          "type": "uint256"
        }
      ],
      "name": "updateMaxTokensToDepositWithoutReinvest",
      "outputs": [],
      "stateMutability": "nonpayable",
      "type": "function"
    },
    {
      "inputs": [
        {
          "internalType": "uint256",
          "name": "newValue",
          "type": "uint256"
        }
      ],
      "name": "updateMinTokensToReinvest",
      "outputs": [],
      "stateMutability": "nonpayable",
      "type": "function"
    },
    {
      "inputs": [
        {
          "internalType": "uint256",
          "name": "newValue",
          "type": "uint256"
        }
      ],
      "name": "updateReinvestReward",
      "outputs": [],
      "stateMutability": "nonpayable",
      "type": "function"
    },
    {
      "inputs": [
        {
          "internalType": "uint256",
          "name": "amount",
          "type": "uint256"
        }
      ],
      "name": "withdraw",
      "outputs": [],
      "stateMutability": "nonpayable",
      "type": "function"
    },
    {
      "stateMutability": "payable",
      "type": "receive"
    }
  ],
  "transactionHash": "0x30a039ce551466d40d6baeb4cb72fc5c829f8f11704ff1933fe7e92574414b87",
  "args": [
    "Yield Yak: Benqi AVAX",
    "0x486Af39519B4Dc9a7fCcd318217352830E8AD9b4",
    "0x5C0401e81Bc07Ca70fAD469b451682c0d747Ef1c",
    "0x8729438EB15e2C8B576fCc6AeCdA6A148776C0F5",
    "0xe530dc2095ef5653205cf5ea79f8979a7028065c",
    "0x8d36C5c6947ADCcd25Ef49Ea1aAC2ceACFff0bD7",
    "1000000000000",
    "16240",
    "10000",
    "1000000000000",
    600,
    0,
    200
  ],
  "solcInputHash": "63c020fb264bb8c3018dd0356dab8a4d",
  "bytecode": "0x60c060405260096080819052685969656c642059616b60b81b60a09081526200002c916000919062000e73565b506040805180820190915260038082526216549560ea1b6020909201918252620000599160019162000e73565b503480156200006757600080fd5b5060405162005ccf38038062005ccf83398181016040526101a08110156200008e57600080fd5b8101908080516040519392919084640100000000821115620000af57600080fd5b908301906020820185811115620000c557600080fd5b8251640100000000811182820188101715620000e057600080fd5b82525081516020918201929091019080838360005b838110156200010f578181015183820152602001620000f5565b50505050905090810190601f1680156200013d5780820380516001836020036101000a031916815260200191505b5060409081526020820151908201516060830151608084015160a085015160c086015160e08701516101008801516101208901516101408a01516101608b0151610180909b0151999c50979a509598949793969295919490939192916000620001a56200033d565b600680546001600160a01b0319166001600160a01b0383169081179091556040519192509060009060008051602062005c88833981519152908290a35060016012819055508c600090805190602001906200020292919062000e73565b50600980546001600160a01b03199081169091556013805482166001600160a01b038f8116919091179091556014805483168e8316179055601580548316918d16919091179055600a805473b31f66aa3c1e785363f0875a1b74e27b85fd66c7921691909117905560198790556200027b868662000341565b600b80546001600160a01b03191633179055620002976200034c565b620002a289620004f9565b620002ac62000801565b620002b784620008f0565b620002c2836200099a565b620002cd8262000a8a565b620002d88162000b66565b620002e4600162000c42565b620002ef8862000d08565b604080516000808252602082015281517fc7606d21ac05cd309191543e409f0845c016120563783d70e4f41419dc0ef234929181900390910190a15050505050505050505050505062000f0f565b3390565b601791909155601855565b60408051600180825281830190925260609160208083019080368337505060145482519293506001600160a01b0316918391506000906200038957fe5b6001600160a01b03928316602091820292909201810191909152601354604051631853304760e31b815260048101838152855160248301528551929094169363c299823893869391928392604490910191858101910280838360005b83811015620003ff578181015183820152602001620003e5565b5050505090500192505050600060405180830381600087803b1580156200042557600080fd5b505af11580156200043a573d6000803e3d6000fd5b505050506040513d6000823e601f3d908101601f1916820160405260208110156200046457600080fd5b81019080805160405193929190846401000000008211156200048557600080fd5b9083019060208201858111156200049b57600080fd5b8251866020820283011164010000000082111715620004b957600080fd5b82525081516020918201928201910280838360005b83811015620004e8578181015183820152602001620004ce565b505050509050016040525050505050565b6001600160a01b038116620005405760405162461bcd60e51b815260040180806020018281038252602981526020018062005c3f6029913960400191505060405180910390fd5b806001600160a01b0316630dfe16816040518163ffffffff1660e01b815260040160206040518083038186803b1580156200057a57600080fd5b505afa1580156200058f573d6000803e3d6000fd5b505050506040513d6020811015620005a657600080fd5b50516015546001600160a01b03908116911614806200063a5750806001600160a01b031663d21220a76040518163ffffffff1660e01b815260040160206040518083038186803b158015620005fa57600080fd5b505afa1580156200060f573d6000803e3d6000fd5b505050506040513d60208110156200062657600080fd5b50516015546001600160a01b039081169116145b620006775760405162461bcd60e51b815260040180806020018281038252602781526020018062005ca86027913960400191505060405180910390fd5b806001600160a01b0316630dfe16816040518163ffffffff1660e01b815260040160206040518083038186803b158015620006b157600080fd5b505afa158015620006c6573d6000803e3d6000fd5b505050506040513d6020811015620006dd57600080fd5b50516001600160a01b031673b31f66aa3c1e785363f0875a1b74e27b85fd66c714806200078d5750806001600160a01b031663d21220a76040518163ffffffff1660e01b815260040160206040518083038186803b1580156200073f57600080fd5b505afa15801562000754573d6000803e3d6000fd5b505050506040513d60208110156200076b57600080fd5b50516001600160a01b031673b31f66aa3c1e785363f0875a1b74e27b85fd66c7145b620007df576040805162461bcd60e51b815260206004820181905260248201527f537761702070616972203020646f6573206e6f74206d61746368205741564158604482015290519081900360640190fd5b601680546001600160a01b0319166001600160a01b0392909216919091179055565b6200080b6200033d565b6001600160a01b03166200081e62000e02565b6001600160a01b03161462000869576040805162461bcd60e51b8152602060048201819052602482015260008051602062005c68833981519152604482015290519081900360640190fd5b6014546040805163095ea7b360e01b81526001600160a01b039092166004830181905260001960248401529051909163095ea7b39160448083019260209291908290030181600087803b158015620008c057600080fd5b505af1158015620008d5573d6000803e3d6000fd5b505050506040513d6020811015620008ec57600080fd5b5050565b620008fa6200033d565b6001600160a01b03166200090d62000e02565b6001600160a01b03161462000958576040805162461bcd60e51b8152602060048201819052602482015260008051602062005c68833981519152604482015290519081900360640190fd5b600c54604080519182526020820183905280517f481f79ac3a523b6d6db3c5a720e190e986d1cc1b41adcdf50f9caef8499011009281900390910190a1600c55565b620009a46200033d565b6001600160a01b0316620009b762000e02565b6001600160a01b03161462000a02576040805162461bcd60e51b8152602060048201819052602482015260008051602062005c68833981519152604482015290519081900360640190fd5b61271062000a3c600f5462000a286011548562000e1160201b62002a561790919060201c565b62000e1160201b62002a561790919060201c565b111562000a4857600080fd5b601054604080519182526020820183905280517f3cc372f330f95ac9540626dc8a25f5bf21ba607215a5d58304cb804d446f104a9281900390910190a1601055565b62000a946200033d565b6001600160a01b031662000aa762000e02565b6001600160a01b03161462000af2576040805162461bcd60e51b8152602060048201819052602482015260008051602062005c68833981519152604482015290519081900360640190fd5b61271062000b18600f5462000a286010548562000e1160201b62002a561790919060201c565b111562000b2457600080fd5b601154604080519182526020820183905280517f2a42303d002f0ba6cfe8259c91d4684443fb0b3de286ba74991175d6517261319281900390910190a1601155565b62000b706200033d565b6001600160a01b031662000b8362000e02565b6001600160a01b03161462000bce576040805162461bcd60e51b8152602060048201819052602482015260008051602062005c68833981519152604482015290519081900360640190fd5b61271062000bf460115462000a286010548562000e1160201b62002a561790919060201c565b111562000c0057600080fd5b600f54604080519182526020820183905280517fe7f97d51d307dc44045597c9978bec0f842e6bb40d19b9444084cfa30d9ed4f29281900390910190a1600f55565b62000c4c6200033d565b6001600160a01b031662000c5f62000e02565b6001600160a01b03161462000caa576040805162461bcd60e51b8152602060048201819052602482015260008051602062005c68833981519152604482015290519081900360640190fd5b600e5460ff161515811515141562000cc157600080fd5b600e805482151560ff19909116811790915560408051918252517f7b014ed3854e7f5cb0218d58b3c6ae7d53a68bb0af2f67bfb029ea42c38a7e859181900360200190a150565b62000d126200033d565b6001600160a01b031662000d2562000e02565b6001600160a01b03161462000d70576040805162461bcd60e51b8152602060048201819052602482015260008051602062005c68833981519152604482015290519081900360640190fd5b6001600160a01b03811662000db75760405162461bcd60e51b815260040180806020018281038252602681526020018062005c196026913960400191505060405180910390fd5b6006546040516001600160a01b0380841692169060008051602062005c8883398151915290600090a3600680546001600160a01b0319166001600160a01b0392909216919091179055565b6006546001600160a01b031690565b60008282018381101562000e6c576040805162461bcd60e51b815260206004820152601b60248201527f536166654d6174683a206164646974696f6e206f766572666c6f770000000000604482015290519081900360640190fd5b9392505050565b828054600181600116156101000203166002900490600052602060002090601f016020900481019282601f1062000eb657805160ff191683800117855562000ee6565b8280016001018555821562000ee6579182015b8281111562000ee657825182559160200191906001019062000ec9565b5062000ef492915062000ef8565b5090565b5b8082111562000ef4576000815560010162000ef9565b614cfa8062000f1f6000396000f3fe6080604052600436106103855760003560e01c80639291d563116101d1578063c89039c511610102578063dd62ed3e116100a0578063ed24911d1161006f578063ed24911d14610ca4578063f2fde38b14610cb9578063f7c618c114610cec578063fdb5a03e14610d0157610408565b8063dd62ed3e14610beb578063dd8ce4d614610c26578063e21ac82514610c50578063eab89a5a14610c7a57610408565b8063d505accf116100dc578063d505accf14610b4e578063da09c72c14610bac578063db8dd95c14610bc1578063dbd9a4d414610bd657610408565b8063c89039c514610b07578063cff1b6ef14610b1c578063d0e30db014610b4657610408565b8063aa67c9191161016f578063b6b55f2511610149578063b6b55f2514610a9e578063b9e57b8014610ac8578063bd079f5514610add578063c4b24a4614610af257610408565b8063aa67c91914610a31578063ac0d31ff14610a57578063b52a321f14610a8957610408565b80639e4e7318116101ab5780639e4e731814610989578063a24159d31461099e578063a8ae2b7c146109ce578063a9059cbb146109f857610408565b80639291d5631461091757806395d89b411461094a57806399729ec11461095f57610408565b80634bebd1e7116102b65780637ae26773116102545780638980f11f116102235780638980f11f146108655780638aff733d1461089e5780638b73e606146108b35780638da5cb5b146108e657610408565b80637ae26773146107b85780637d882097146107f35780637ecebe0014610808578063818372301461083b57610408565b80635ea682ea116102905780635ea682ea1461074657806370a082311461075b578063715018a61461078e578063789139bc146107a357610408565b80634bebd1e7146106bd5780634e77ace5146106f05780634ebb79161461071c57610408565b80632e1a7d4d11610323578063313ce567116102fd578063313ce567146106055780633bdc6e7214610630578063483c2ef0146106455780634a970be71461067857610408565b80632e1a7d4d1461058d5780632f4f21e2146105b757806330adf81f146105f057610408565b80630f23475d1161035f5780630f23475d1461050b57806318160ddd1461052057806320606b701461053557806323b872dd1461054a57610408565b806306fdde031461040d5780630767711114610497578063095ea7b3146104be57610408565b36610408576013546001600160a01b03163314806103b657503373b31f66aa3c1e785363f0875a1b74e27b85fd66c7145b806103cb57506014546001600160a01b031633145b6104065760405162461bcd60e51b81526004018080602001828103825260258152602001806149ab6025913960400191505060405180910390fd5b005b600080fd5b34801561041957600080fd5b50610422610d16565b6040805160208082528351818301528351919283929083019185019080838360005b8381101561045c578181015183820152602001610444565b50505050905090810190601f1680156104895780820380516001836020036101000a031916815260200191505b509250505060405180910390f35b3480156104a357600080fd5b506104ac610da4565b60408051918252519081900360200190f35b3480156104ca57600080fd5b506104f7600480360360408110156104e157600080fd5b506001600160a01b038135169060200135610daa565b604080519115158252519081900360200190f35b34801561051757600080fd5b506104ac610dc1565b34801561052c57600080fd5b506104ac610dd1565b34801561054157600080fd5b506104ac610dd7565b34801561055657600080fd5b506104f76004803603606081101561056d57600080fd5b506001600160a01b03813581169160208101359091169060400135610dfb565b34801561059957600080fd5b50610406600480360360208110156105b057600080fd5b5035610edd565b3480156105c357600080fd5b50610406600480360360408110156105da57600080fd5b506001600160a01b038135169060200135610408565b3480156105fc57600080fd5b506104ac61107d565b34801561061157600080fd5b5061061a6110a1565b6040805160ff9092168252519081900360200190f35b34801561063c57600080fd5b506104ac6110a6565b34801561065157600080fd5b506104f76004803603602081101561066857600080fd5b50356001600160a01b03166110ac565b34801561068457600080fd5b50610406600480360360a081101561069b57600080fd5b5080359060208101359060ff6040820135169060608101359060800135610408565b3480156106c957600080fd5b50610406600480360360208110156106e057600080fd5b50356001600160a01b03166110c1565b3480156106fc57600080fd5b506104066004803603602081101561071357600080fd5b503515156111fd565b34801561072857600080fd5b506104066004803603602081101561073f57600080fd5b50356112bc565b34801561075257600080fd5b506104ac611398565b34801561076757600080fd5b506104ac6004803603602081101561077e57600080fd5b50356001600160a01b031661139e565b34801561079a57600080fd5b506104066113bd565b3480156107af57600080fd5b506104ac611476565b3480156107c457600080fd5b50610406600480360360408110156107db57600080fd5b506001600160a01b038135811691602001351661147c565b3480156107ff57600080fd5b506104ac61156f565b34801561081457600080fd5b506104ac6004803603602081101561082b57600080fd5b50356001600160a01b031661162b565b34801561084757600080fd5b506104066004803603602081101561085e57600080fd5b503561163d565b34801561087157600080fd5b506104066004803603604081101561088857600080fd5b506001600160a01b0381351690602001356116e1565b3480156108aa57600080fd5b506104ac611835565b3480156108bf57600080fd5b50610406600480360360208110156108d657600080fd5b50356001600160a01b031661183b565b3480156108f257600080fd5b506108fb6119a2565b604080516001600160a01b039092168252519081900360200190f35b34801561092357600080fd5b506104066004803603602081101561093a57600080fd5b50356001600160a01b03166119b1565b34801561095657600080fd5b50610422611a87565b34801561096b57600080fd5b506104066004803603602081101561098257600080fd5b5035611ae1565b34801561099557600080fd5b506104ac611bb4565b3480156109aa57600080fd5b50610406600480360360408110156109c157600080fd5b5080359060200135611bd8565b3480156109da57600080fd5b50610406600480360360208110156109f157600080fd5b5035611cd9565b348015610a0457600080fd5b506104f760048036036040811015610a1b57600080fd5b506001600160a01b038135169060200135611da6565b61040660048036036020811015610a4757600080fd5b50356001600160a01b0316611db3565b348015610a6357600080fd5b5061040660048036036040811015610a7a57600080fd5b50803590602001351515611e22565b348015610a9557600080fd5b506104f761213c565b348015610aaa57600080fd5b5061040660048036036020811015610ac157600080fd5b5035610408565b348015610ad457600080fd5b506104ac612145565b348015610ae957600080fd5b506104ac612186565b348015610afe57600080fd5b506104ac61218c565b348015610b1357600080fd5b506108fb612197565b348015610b2857600080fd5b5061040660048036036020811015610b3f57600080fd5b50356121a6565b610406612273565b348015610b5a57600080fd5b50610406600480360360e0811015610b7157600080fd5b506001600160a01b03813581169160208101359091169060408101359060608101359060ff6080820135169060a08101359060c001356122e1565b348015610bb857600080fd5b506108fb6123e1565b348015610bcd57600080fd5b506104ac6123f0565b348015610be257600080fd5b506104066124c6565b348015610bf757600080fd5b506104ac60048036036040811015610c0e57600080fd5b506001600160a01b03813581169160200135166125c1565b348015610c3257600080fd5b506104ac60048036036020811015610c4957600080fd5b50356125ec565b348015610c5c57600080fd5b5061040660048036036020811015610c7357600080fd5b5035612626565b348015610c8657600080fd5b506104ac60048036036020811015610c9d57600080fd5b50356126ca565b348015610cb057600080fd5b506104ac6126fb565b348015610cc557600080fd5b5061040660048036036020811015610cdc57600080fd5b50356001600160a01b0316612808565b348015610cf857600080fd5b506108fb612918565b348015610d0d57600080fd5b50610406612927565b6000805460408051602060026001851615610100026000190190941693909304601f81018490048402820184019092528181529291830182828015610d9c5780601f10610d7157610100808354040283529160200191610d9c565b820191906000526020600020905b815481529060010190602001808311610d7f57829003601f168201915b505050505081565b60105481565b6000610db7338484612ab7565b5060015b92915050565b6000610dcb61156f565b90505b90565b60025481565b7f8b73c3c69bb8fe3d512ecc4cf759cc79239f7b179b0ffacaa9a75d522b39400f81565b6001600160a01b038316600081815260036020908152604080832033808552925282205491929091908214801590610e3557506000198114155b15610ec6576000610e61856040518060600160405280602f8152602001614bfb602f9139849190612bcf565b6001600160a01b0380891660008181526003602090815260408083209489168084529482529182902085905581518581529151949550929391927f8c5be1e5ebec7d5bd14f71427d1e84f3dd0314c0f7b2291e5b200ac8c7c3b92592918290030190a3505b610ed1868686612c66565b50600195945050505050565b60026012541415610f35576040805162461bcd60e51b815260206004820152601f60248201527f5265656e7472616e637947756172643a207265656e7472616e742063616c6c00604482015290519081900360640190fd5b60026012556019548111610f7a5760405162461bcd60e51b81526004018080602001828103825260278152602001806149f66027913960400191505060405180910390fd5b6000610f9a600254610f9484610f8e612d73565b90612e81565b90612eda565b9050801561107457610fac3383612f1c565b610fb581612ff1565b604051600090339083908381818185875af1925050503d8060008114610ff7576040519150601f19603f3d011682016040523d82523d6000602084013e610ffc565b606091505b505090508061103c5760405162461bcd60e51b8152600401808060200182810382526029815260200180614b156029913960400191505060405180910390fd5b60408051838152905133917f884edad9ce6fa2440d8a54cc123490eb96d2768479d49ff9c7366125a9424364919081900360200190a2505b50506001601255565b7f6e71edae12b1b97f4d1f60370fef10105fa2faae0126114a169c64845d6126c981565b601281565b60075481565b60086020526000908152604090205460ff1681565b6110c9613150565b6001600160a01b03166110da6119a2565b6001600160a01b031614611123576040805162461bcd60e51b81526020600482018190526024820152600080516020614b5f833981519152604482015290519081900360640190fd5b6001600160a01b03811660009081526008602052604090205460ff1615611191576040805162461bcd60e51b815260206004820152601c60248201527f5065726d697373696f6e65643a3a616c6c6f774465706f7369746f7200000000604482015290519081900360640190fd5b6001600160a01b0381166000908152600860205260409020805460ff191660019081179091556007546111c391612a56565b6007556040516001600160a01b038216907fc0a1035c16faf8d1304056d92c00edf028f87e62b8235a938f00af9e3c0312c590600090a250565b611205613150565b6001600160a01b03166112166119a2565b6001600160a01b03161461125f576040805162461bcd60e51b81526020600482018190526024820152600080516020614b5f833981519152604482015290519081900360640190fd5b600e5460ff161515811515141561127557600080fd5b600e805482151560ff19909116811790915560408051918252517f7b014ed3854e7f5cb0218d58b3c6ae7d53a68bb0af2f67bfb029ea42c38a7e859181900360200190a150565b6112c4613150565b6001600160a01b03166112d56119a2565b6001600160a01b03161461131e576040805162461bcd60e51b81526020600482018190526024820152600080516020614b5f833981519152604482015290519081900360640190fd5b6000811161132b57600080fd5b604051339082156108fc029083906000818181858888f19350505050158015611358573d6000803e3d6000fd5b5060408051600081526020810183905281517f8c1256b8896378cd5044f80c202f9772b9d77dc85c8a6eb51967210b09bfaa28929181900390910190a150565b60115481565b6001600160a01b0381166000908152600460205260409020545b919050565b6113c5613150565b6001600160a01b03166113d66119a2565b6001600160a01b03161461141f576040805162461bcd60e51b81526020600482018190526024820152600080516020614b5f833981519152604482015290519081900360640190fd5b6006546040516000916001600160a01b0316907f8be0079c531659141344cd1fd0a4f28419497f9722a3daafe3b4186f6b6457e0908390a36006805473ffffffffffffffffffffffffffffffffffffffff19169055565b600d5481565b611484613150565b6001600160a01b03166114956119a2565b6001600160a01b0316146114de576040805162461bcd60e51b81526020600482018190526024820152600080516020614b5f833981519152604482015290519081900360640190fd5b816001600160a01b031663095ea7b38260006040518363ffffffff1660e01b815260040180836001600160a01b0316815260200182815260200192505050602060405180830381600087803b15801561153657600080fd5b505af115801561154a573d6000803e3d6000fd5b505050506040513d602081101561156057600080fd5b505161156b57600080fd5b5050565b601454604080516361bfb47160e11b815230600482015290516000928392839283926001600160a01b03169163c37f68e2916024808301926080929190829003018186803b1580156115c057600080fd5b505afa1580156115d4573d6000803e3d6000fd5b505050506040513d60808110156115ea57600080fd5b506020810151604082015160609092015190945090925090506116238261161d670de0b6b3a7640000610f948786612e81565b90613154565b935050505090565b60056020526000908152604090205481565b611645613150565b6001600160a01b03166116566119a2565b6001600160a01b03161461169f576040805162461bcd60e51b81526020600482018190526024820152600080516020614b5f833981519152604482015290519081900360640190fd5b600c54604080519182526020820183905280517f481f79ac3a523b6d6db3c5a720e190e986d1cc1b41adcdf50f9caef8499011009281900390910190a1600c55565b6116e9613150565b6001600160a01b03166116fa6119a2565b6001600160a01b031614611743576040805162461bcd60e51b81526020600482018190526024820152600080516020614b5f833981519152604482015290519081900360640190fd5b6000811161175057600080fd5b604080517fa9059cbb0000000000000000000000000000000000000000000000000000000081523360048201526024810183905290516001600160a01b0384169163a9059cbb9160448083019260209291908290030181600087803b1580156117b857600080fd5b505af11580156117cc573d6000803e3d6000fd5b505050506040513d60208110156117e257600080fd5b50516117ed57600080fd5b604080516001600160a01b03841681526020810183905281517f8c1256b8896378cd5044f80c202f9772b9d77dc85c8a6eb51967210b09bfaa28929181900390910190a15050565b600f5481565b611843613150565b6001600160a01b03166118546119a2565b6001600160a01b03161461189d576040805162461bcd60e51b81526020600482018190526024820152600080516020614b5f833981519152604482015290519081900360640190fd5b6000600754116118de5760405162461bcd60e51b8152600401808060200182810382526034815260200180614a4b6034913960400191505060405180910390fd5b6001600160a01b03811660009081526008602052604090205460ff16151560011461193a5760405162461bcd60e51b815260040180806020018281038252602a815260200180614aa3602a913960400191505060405180910390fd5b6001600160a01b0381166000908152600860205260409020805460ff19169055600754611968906001613154565b6007556040516001600160a01b038216907f0e86f6608b536e5339a25b65ff531f5ea91e1313d056ecd4752b35cbd16137d490600090a250565b6006546001600160a01b031690565b600b546001600160a01b03163314611a10576040805162461bcd60e51b815260206004820152601460248201527f59616b53747261746567793a3a6f6e6c79446576000000000000000000000000604482015290519081900360640190fd5b600b54604080516001600160a01b039283168152918316602083015280517fa8e91499ed37682f43cffb045fcc7d379a91e8c9a14e6321877ee34dee564c009281900390910190a1600b805473ffffffffffffffffffffffffffffffffffffffff19166001600160a01b0392909216919091179055565b60018054604080516020600284861615610100026000190190941693909304601f81018490048402820184019092528181529291830182828015610d9c5780601f10610d7157610100808354040283529160200191610d9c565b611ae9613150565b6001600160a01b0316611afa6119a2565b6001600160a01b031614611b43576040805162461bcd60e51b81526020600482018190526024820152600080516020614b5f833981519152604482015290519081900360640190fd5b612710611b67600f54611b6160105485612a5690919063ffffffff16565b90612a56565b1115611b7257600080fd5b601154604080519182526020820183905280517f2a42303d002f0ba6cfe8259c91d4684443fb0b3de286ba74991175d6517261319281900390910190a1601155565b7fc89efdaa54c0f20c7adf612882df0950f5a951637e0307cdcb4c672f298b8bc681565b600b546001600160a01b03163314611c37576040805162461bcd60e51b815260206004820152601460248201527f59616b53747261746567793a3a6f6e6c79446576000000000000000000000000604482015290519081900360640190fd5b611c418282613196565b611c496131a1565b60145460408051633af9e66960e01b815230600482015290516000926001600160a01b031691633af9e66991602480830192602092919082900301818787803b158015611c9557600080fd5b505af1158015611ca9573d6000803e3d6000fd5b505050506040513d6020811015611cbf57600080fd5b505190508015611cd457611cd4816000613410565b505050565b611ce1613150565b6001600160a01b0316611cf26119a2565b6001600160a01b031614611d3b576040805162461bcd60e51b81526020600482018190526024820152600080516020614b5f833981519152604482015290519081900360640190fd5b612710611d59601154611b6160105485612a5690919063ffffffff16565b1115611d6457600080fd5b600f54604080519182526020820183905280517fe7f97d51d307dc44045597c9978bec0f842e6bb40d19b9444084cfa30d9ed4f29281900390910190a1600f55565b6000610db7338484612c66565b60026012541415611e0b576040805162461bcd60e51b815260206004820152601f60248201527f5265656e7472616e637947756172643a207265656e7472616e742063616c6c00604482015290519081900360640190fd5b6002601255611e1a813461365b565b506001601255565b611e2a613150565b6001600160a01b0316611e3b6119a2565b6001600160a01b031614611e84576040805162461bcd60e51b81526020600482018190526024820152600080516020614b5f833981519152604482015290519081900360640190fd5b600954604080516370a0823160e01b815230600482015290516000926001600160a01b0316916370a08231916024808301926020929190829003018186803b158015611ecf57600080fd5b505afa158015611ee3573d6000803e3d6000fd5b505050506040513d6020811015611ef957600080fd5b50519050611f056131a1565b60145460408051633af9e66960e01b815230600482015290516001600160a01b039092169163852a12e3918391633af9e669916024808201926020929091908290030181600087803b158015611f5a57600080fd5b505af1158015611f6e573d6000803e3d6000fd5b505050506040513d6020811015611f8457600080fd5b5051604080517fffffffff0000000000000000000000000000000000000000000000000000000060e085901b16815260048101929092525160248083019260209291908290030181600087803b158015611fdd57600080fd5b505af1158015611ff1573d6000803e3d6000fd5b505050506040513d602081101561200757600080fd5b5050600954604080516370a0823160e01b815230600482015290516000926001600160a01b0316916370a08231916024808301926020929190829003018186803b15801561205457600080fd5b505afa158015612068573d6000803e3d6000fd5b505050506040513d602081101561207e57600080fd5b505190508361208d8284613154565b10156120ca5760405162461bcd60e51b8152600401808060200182810382526024815260200180614bd76024913960400191505060405180910390fd5b7fc7606d21ac05cd309191543e409f0845c016120563783d70e4f41419dc0ef2346120f361156f565b6002546040805192835260208301919091528051918290030190a1600e5460ff161515600114801561212757506001831515145b156121365761213660006111fd565b50505050565b600e5460ff1681565b60008061215061218c565b9050600c54811061217e57612176612710610f94600f5484612e8190919063ffffffff16565b915050610dce565b600091505090565b600c5481565b6000806116236137e4565b6009546001600160a01b031681565b6121ae613150565b6001600160a01b03166121bf6119a2565b6001600160a01b031614612208576040805162461bcd60e51b81526020600482018190526024820152600080516020614b5f833981519152604482015290519081900360640190fd5b612710612226600f54611b6160115485612a5690919063ffffffff16565b111561223157600080fd5b601054604080519182526020820183905280517f3cc372f330f95ac9540626dc8a25f5bf21ba607215a5d58304cb804d446f104a9281900390910190a1601055565b600260125414156122cb576040805162461bcd60e51b815260206004820152601f60248201527f5265656e7472616e637947756172643a207265656e7472616e742063616c6c00604482015290519081900360640190fd5b60026012556122da333461365b565b6001601255565b42841015612336576040805162461bcd60e51b815260206004820152600f60248201527f7065726d69743a3a657870697265640000000000000000000000000000000000604482015290519081900360640190fd5b6001600160a01b0380881660008181526005602090815260409182902080546001810190915582517f6e71edae12b1b97f4d1f60370fef10105fa2faae0126114a169c64845d6126c98184015280840194909452938a1660608401526080830189905260a083019390935260c08083018890528151808403909101815260e0909201905280519101206123cc888286868661385a565b6123d7888888612ab7565b5050505050505050565b600b546001600160a01b031681565b601454604080516361bfb47160e11b815230600482015290516000928392839283926001600160a01b03169163c37f68e2916024808301926080929190829003018186803b15801561244157600080fd5b505afa158015612455573d6000803e3d6000fd5b505050506040513d608081101561246b57600080fd5b50602081015160408201516060909201519094509092509050600061249c670de0b6b3a7640000610f948685612e81565b90506124bd6124ab8285613154565b610f9483670de0b6b3a7640000612e81565b94505050505090565b6124ce613150565b6001600160a01b03166124df6119a2565b6001600160a01b031614612528576040805162461bcd60e51b81526020600482018190526024820152600080516020614b5f833981519152604482015290519081900360640190fd5b601454604080517f095ea7b30000000000000000000000000000000000000000000000000000000081526001600160a01b039092166004830181905260001960248401529051909163095ea7b39160448083019260209291908290030181600087803b15801561259757600080fd5b505af11580156125ab573d6000803e3d6000fd5b505050506040513d602081101561156b57600080fd5b6001600160a01b03918216600090815260036020908152604080832093909416825291909152205490565b60006126026125f961156f565b60025490612e81565b61260d5750806113b8565b610dbb61261861156f565b600254610f94908590612e81565b61262e613150565b6001600160a01b031661263f6119a2565b6001600160a01b031614612688576040805162461bcd60e51b81526020600482018190526024820152600080516020614b5f833981519152604482015290519081900360640190fd5b600d54604080519182526020820183905280517fa5dae50539d56dfe1fb5273d883b0c39bc76750a25d036fc5fbd09ad8fd5f57f9281900390910190a1600d55565b60006126d76125f961156f565b6126e3575060006113b8565b610dbb600254610f946126f461156f565b8590612e81565b60007f8b73c3c69bb8fe3d512ecc4cf759cc79239f7b179b0ffacaa9a75d522b39400f60001b6000604051808280546001816001161561010002031660029004801561277e5780601f1061275c57610100808354040283529182019161277e565b820191906000526020600020905b81548152906001019060200180831161276a575b505091505060405180910390207fc89efdaa54c0f20c7adf612882df0950f5a951637e0307cdcb4c672f298b8bc660001b6127b7613989565b3060405160200180868152602001858152602001848152602001838152602001826001600160a01b031681526020019550505050505060405160208183030381529060405280519060200120905090565b612810613150565b6001600160a01b03166128216119a2565b6001600160a01b03161461286a576040805162461bcd60e51b81526020600482018190526024820152600080516020614b5f833981519152604482015290519081900360640190fd5b6001600160a01b0381166128af5760405162461bcd60e51b81526004018080602001828103825260268152602001806149d06026913960400191505060405180910390fd5b6006546040516001600160a01b038084169216907f8be0079c531659141344cd1fd0a4f28419497f9722a3daafe3b4186f6b6457e090600090a36006805473ffffffffffffffffffffffffffffffffffffffff19166001600160a01b0392909216919091179055565b600a546001600160a01b031681565b32331461297b576040805162461bcd60e51b815260206004820152601460248201527f59616b53747261746567793a3a6f6e6c79454f41000000000000000000000000604482015290519081900360640190fd5b600260125414156129d3576040805162461bcd60e51b815260206004820152601f60248201527f5265656e7472616e637947756172643a207265656e7472616e742063616c6c00604482015290519081900360640190fd5b6002601255600080806129e46137e4565b925092509250600c54811015612a41576040805162461bcd60e51b815260206004820152601960248201527f42656e7169537472617465677956313a3a7265696e7665737400000000000000604482015290519081900360640190fd5b612a4c83838361398d565b5050600160125550565b600082820183811015612ab0576040805162461bcd60e51b815260206004820152601b60248201527f536166654d6174683a206164646974696f6e206f766572666c6f770000000000604482015290519081900360640190fd5b9392505050565b6001600160a01b038316612b12576040805162461bcd60e51b815260206004820152601c60248201527f5f617070726f76653a3a6f776e6572207a65726f206164647265737300000000604482015290519081900360640190fd5b6001600160a01b038216612b6d576040805162461bcd60e51b815260206004820152601e60248201527f5f617070726f76653a3a7370656e646572207a65726f20616464726573730000604482015290519081900360640190fd5b6001600160a01b03808416600081815260036020908152604080832094871680845294825291829020859055815185815291517f8c5be1e5ebec7d5bd14f71427d1e84f3dd0314c0f7b2291e5b200ac8c7c3b9259281900390910190a3505050565b60008184841115612c5e5760405162461bcd60e51b81526004018080602001828103825283818151815260200191508051906020019080838360005b83811015612c23578181015183820152602001612c0b565b50505050905090810190601f168015612c505780820380516001836020036101000a031916815260200191505b509250505060405180910390fd5b505050900390565b6001600160a01b038216612cab5760405162461bcd60e51b8152600401808060200182810382526034815260200180614ba36034913960400191505060405180910390fd5b612ce8816040518060600160405280602e8152602001614c97602e91396001600160a01b0386166000908152600460205260409020549190612bcf565b6001600160a01b038085166000908152600460205260408082209390935590841681522054612d179082612a56565b6001600160a01b0380841660008181526004602090815260409182902094909455805185815290519193928716927fddf252ad1be2c89b69c2b068fc378daa952ba7f163c4a11628f55a4df523b3ef92918290030190a3505050565b601454604080516305eff7ef60e21b8152306004820152905160009283926001600160a01b03909116916317bfdfbc9160248082019260209290919082900301818787803b158015612dc457600080fd5b505af1158015612dd8573d6000803e3d6000fd5b505050506040513d6020811015612dee57600080fd5b505160145460408051633af9e66960e01b815230600482015290519293506000926001600160a01b0390921691633af9e6699160248082019260209290919082900301818787803b158015612e4257600080fd5b505af1158015612e56573d6000803e3d6000fd5b505050506040513d6020811015612e6c57600080fd5b50519050612e7a8183613154565b9250505090565b600082612e9057506000610dbb565b82820282848281612e9d57fe5b0414612ab05760405162461bcd60e51b8152600401808060200182810382526021815260200180614b3e6021913960400191505060405180910390fd5b6000612ab083836040518060400160405280601a81526020017f536166654d6174683a206469766973696f6e206279207a65726f000000000000815250613caf565b612f5981604051806060016040528060278152602001614c4b602791396001600160a01b0385166000908152600460205260409020549190612bcf565b60046000846001600160a01b03166001600160a01b0316815260200190815260200160002081905550612fa981604051806060016040528060278152602001614acd602791396002549190612bcf565b6002556040805182815290516000916001600160a01b038516917fddf252ad1be2c89b69c2b068fc378daa952ba7f163c4a11628f55a4df523b3ef9181900360200190a35050565b612ff96131a1565b6014546040805163852a12e360e01b81526004810184905290516001600160a01b039092169163852a12e3916024808201926020929091908290030181600087803b15801561304757600080fd5b505af115801561305b573d6000803e3d6000fd5b505050506040513d602081101561307157600080fd5b5051156130c5576040805162461bcd60e51b815260206004820152601e60248201527f42656e7169537472617465677956313a3a72656465656d206661696c65640000604482015290519081900360640190fd5b60145460408051633af9e66960e01b815230600482015290516000926001600160a01b031691633af9e66991602480830192602092919082900301818787803b15801561311157600080fd5b505af1158015613125573d6000803e3d6000fd5b505050506040513d602081101561313b57600080fd5b50519050801561156b5761156b816000613410565b3390565b6000612ab083836040518060400160405280601f81526020017f536166654d6174683a207375627472616374696f6e20756e646572666c6f7700815250612bcf565b601791909155601855565b601454604080516305eff7ef60e21b815230600482015290516000926001600160a01b0316916317bfdfbc91602480830192602092919082900301818787803b1580156131ed57600080fd5b505af1158015613201573d6000803e3d6000fd5b505050506040513d602081101561321757600080fd5b505160145460408051633af9e66960e01b815230600482015290519293506000926001600160a01b0390921691633af9e6699160248082019260209290919082900301818787803b15801561326b57600080fd5b505af115801561327f573d6000803e3d6000fd5b505050506040513d602081101561329557600080fd5b505190506000806132a4613d14565b915091505b83156121365760006132bd84868585613dbe565b9050848111156132ca5750835b6014546040805163852a12e360e01b81526004810184905290516001600160a01b039092169163852a12e3916024808201926020929091908290030181600087803b15801561331857600080fd5b505af115801561332c573d6000803e3d6000fd5b505050506040513d602081101561334257600080fd5b5051156133805760405162461bcd60e51b8152600401808060200182810382526021815260200180614c2a6021913960400191505060405180910390fd5b601460009054906101000a90046001600160a01b03166001600160a01b0316634e4d9fea826040518263ffffffff1660e01b81526004016000604051808303818588803b1580156133d057600080fd5b505af11580156133e4573d6000803e3d6000fd5b50505050506133fc818561315490919063ffffffff16565b93506134088582613154565b9450506132a9565b60008061341b613d14565b9150915060008490506000613445601854610f94601754610f8e898b61315490919063ffffffff16565b9050845b8183101561365257600061345f84838888613de1565b90508261346c8583612a56565b111561347f5761347c8385613154565b90505b60195481101561348f5750613652565b601454604080517fc5ebeaec0000000000000000000000000000000000000000000000000000000081526004810184905290516001600160a01b039092169163c5ebeaec916024808201926020929091908290030181600087803b1580156134f657600080fd5b505af115801561350a573d6000803e3d6000fd5b505050506040513d602081101561352057600080fd5b50511561355e5760405162461bcd60e51b8152600401808060200182810382526021815260200180614af46021913960400191505060405180910390fd5b601460009054906101000a90046001600160a01b03166001600160a01b0316631249c58b826040518263ffffffff1660e01b81526004016000604051808303818588803b1580156135ae57600080fd5b505af11580156135c2573d6000803e3d6000fd5b505060145460408051633af9e66960e01b815230600482015290516001600160a01b039092169450633af9e669935060248082019350602092918290030181600087803b15801561361257600080fd5b505af1158015613626573d6000803e3d6000fd5b505050506040513d602081101561363c57600080fd5b5051935061364a8282612a56565b915050613449565b50505050505050565b600754156136b6573360009081526008602052604090205460ff1615156001146136b65760405162461bcd60e51b815260040180806020018281038252602e815260200180614a1d602e913960400191505060405180910390fd5b600e5460ff161515600114613712576040805162461bcd60e51b815260206004820152601960248201527f42656e7169537472617465677956313a3a5f6465706f73697400000000000000604482015290519081900360640190fd5b600d54156137465760008060006137276137e4565b925092509250600d548111156137425761374283838361398d565b5050505b806000613751612d73565b9050600061376a82600254612e8190919063ffffffff16565b111561378c5761378981610f9460025486612e8190919063ffffffff16565b91505b6137968483613df5565b61379f83613e80565b6040805184815290516001600160a01b038616917fe1fffcc4923d04b559f4d29a8bfc6cda04eb5b0d3c460751c2402c5c5cc9109c919081900360200190a250505050565b6000806000806137f560003061402d565b9050600061380460013061402d565b60155460165491925060009161383e9185916001600160a01b039182169173b31f66aa3c1e785363f0875a1b74e27b85fd66c791166144bf565b9050828261384c8184612a56565b955095509550505050909192565b60006138646126fb565b8560405160200180807f190100000000000000000000000000000000000000000000000000000000000081525060020183815260200182815260200192505050604051602081830303815290604052805190602001209050600060018286868660405160008152602001604052604051808581526020018460ff1681526020018381526020018281526020019450505050506020604051602081039080840390855afa158015613918573d6000803e3d6000fd5b5050604051601f1901519150506001600160a01b0381161580159061394e5750866001600160a01b0316816001600160a01b0316145b6136525760405162461bcd60e51b8152600401808060200182810382526024815260200180614a7f6024913960400191505060405180910390fd5b4690565b60135460408051630952c56360e01b815260006004820181905230602483015291516001600160a01b0390931692630952c5639260448084019391929182900301818387803b1580156139df57600080fd5b505af11580156139f3573d6000803e3d6000fd5b505060135460408051630952c56360e01b81526001600482015230602482015290516001600160a01b039092169350630952c563925060448082019260009290919082900301818387803b158015613a4a57600080fd5b505af1158015613a5e573d6000803e3d6000fd5b505050506000831115613b1857601554601654600091613aa29186916001600160a01b039081169173b31f66aa3c1e785363f0875a1b74e27b85fd66c7911661458f565b905073b31f66aa3c1e785363f0875a1b74e27b85fd66c76001600160a01b0316632e1a7d4d826040518263ffffffff1660e01b815260040180828152602001915050600060405180830381600087803b158015613afe57600080fd5b505af1158015613b12573d6000803e3d6000fd5b50505050505b4790506000613b38612710610f9460115485612e8190919063ffffffff16565b90506000613b57612710610f9460105486612e8190919063ffffffff16565b90506000613b76612710610f94600f5487612e8190919063ffffffff16565b905073b31f66aa3c1e785363f0875a1b74e27b85fd66c763d0e30db0613ba083611b618787612a56565b6040518263ffffffff1660e01b81526004016000604051808303818588803b158015613bcb57600080fd5b505af1158015613bdf573d6000803e3d6000fd5b50505050506000831115613c0a57600a54600b54613c0a916001600160a01b0390811691168561479f565b8115613c2e57600a54613c2e906001600160a01b0316613c286119a2565b8461479f565b8015613c4b57600a54613c4b906001600160a01b0316338361479f565b613c63613c5e8261161d85818989613154565b613e80565b7fc7606d21ac05cd309191543e409f0845c016120563783d70e4f41419dc0ef234613c8c61156f565b6002546040805192835260208301919091528051918290030190a1505050505050565b60008183613cfe5760405162461bcd60e51b8152602060048201818152835160248401528351909283926044909101919085019080838360008315612c23578181015183820152602001612c0b565b506000838581613d0a57fe5b0495945050505050565b601354601454604080517f8e8f294b0000000000000000000000000000000000000000000000000000000081526001600160a01b039283166004820152815160009485948594911692638e8f294b9260248083019392829003018186803b158015613d7e57600080fd5b505afa158015613d92573d6000803e3d6000fd5b505050506040513d6040811015613da857600080fd5b506020015193670de0b6b3a76400009350915050565b6000613dd8613dd184610f948786612e81565b8690613154565b95945050505050565b6000613dd88461161d84610f948988612e81565b600254613e029082612a56565b6002556001600160a01b038216600090815260046020526040902054613e289082612a56565b6001600160a01b03831660008181526004602090815260408083209490945583518581529351929391927fddf252ad1be2c89b69c2b068fc378daa952ba7f163c4a11628f55a4df523b3ef9281900390910190a35050565b60008111613ebf5760405162461bcd60e51b8152600401808060200182810382526024815260200180614b7f6024913960400191505060405180910390fd5b601460009054906101000a90046001600160a01b03166001600160a01b0316631249c58b826040518263ffffffff1660e01b81526004016000604051808303818588803b158015613f0f57600080fd5b505af1158015613f23573d6000803e3d6000fd5b5050601454604080516305eff7ef60e21b81523060048201529051600095506001600160a01b0390921693506317bfdfbc925060248082019260209290919082900301818787803b158015613f7757600080fd5b505af1158015613f8b573d6000803e3d6000fd5b505050506040513d6020811015613fa157600080fd5b505160145460408051633af9e66960e01b815230600482015290519293506000926001600160a01b0390921691633af9e6699160248082019260209290919082900301818787803b158015613ff557600080fd5b505af1158015614009573d6000803e3d6000fd5b505050506040513d602081101561401f57600080fd5b50519050611cd48183613410565b601354604080517f05b9783d00000000000000000000000000000000000000000000000000000000815260ff851660048201526001600160a01b0384811660248301529151600093849316916305b9783d916044808301926020929190829003018186803b15801561409e57600080fd5b505afa1580156140b2573d6000803e3d6000fd5b505050506040513d60208110156140c857600080fd5b5051601354604080517fd81c5e4500000000000000000000000000000000000000000000000000000000815260ff881660048201526001600160a01b038781166024830152825194955060009493169263d81c5e4592604480840193919291829003018186803b15801561413b57600080fd5b505afa15801561414f573d6000803e3d6000fd5b505050506040513d604081101561416557600080fd5b5051601354601454604080517f88e972b800000000000000000000000000000000000000000000000000000000815260ff8a1660048201526001600160a01b0392831660248201528883166044820152905193945060009391909216916388e972b8916064808301926020929190829003018186803b1580156141e757600080fd5b505afa1580156141fb573d6000803e3d6000fd5b505050506040513d602081101561421157600080fd5b5051905060006001600160e01b0383168210156142375781836001600160e01b03160390505b601454604080516370a0823160e01b81526001600160a01b03898116600483015291516000936142be9386939116916370a0823191602480820192602092909190829003018186803b15801561428c57600080fd5b505afa1580156142a0573d6000803e3d6000fd5b505050506040513d60208110156142b657600080fd5b505190612e81565b601354604080517f4b3a0a7400000000000000000000000000000000000000000000000000000000815260ff8c1660048201526001600160a01b038b811660248301528251949550600094931692634b3a0a7492604480840193919291829003018186803b15801561432f57600080fd5b505afa158015614343573d6000803e3d6000fd5b505050506040513d604081101561435957600080fd5b5051601354601454604080517f7937969d00000000000000000000000000000000000000000000000000000000815260ff8e1660048201526001600160a01b0392831660248201528c8316604482015290519394506000939190921691637937969d916064808301926020929190829003018186803b1580156143db57600080fd5b505afa1580156143ef573d6000803e3d6000fd5b505050506040513d602081101561440557600080fd5b5051905060006001600160e01b03831682101561442b5781836001600160e01b03160390505b601454604080517f95dd91930000000000000000000000000000000000000000000000000000000081526001600160a01b038d8116600483015291516000936144999386939116916395dd919391602480820192602092909190829003018186803b15801561428c57600080fd5b90506144af6144a88683613154565b8a90612a56565b9c9b505050505050505050505050565b6000806144cc858561485d565b509050600080846001600160a01b0316630902f1ac6040518163ffffffff1660e01b815260040160606040518083038186803b15801561450b57600080fd5b505afa15801561451f573d6000803e3d6000fd5b505050506040513d606081101561453557600080fd5b50805160209091015190925090506001600160a01b038381169088161461455857905b61458388836dffffffffffffffffffffffffffff16836dffffffffffffffffffffffffffff1661488e565b98975050505050505050565b60008061459c858561485d565b509050600080846001600160a01b0316630902f1ac6040518163ffffffff1660e01b815260040160606040518083038186803b1580156145db57600080fd5b505afa1580156145ef573d6000803e3d6000fd5b505050506040513d606081101561460557600080fd5b50805160209091015190925090506001600160a01b038381169088161461462857905b6000806146568a856dffffffffffffffffffffffffffff16856dffffffffffffffffffffffffffff1661488e565b9050886001600160a01b0316856001600160a01b03161461467357905b61467e89888c6148d6565b60408051600080825260208201928390527f022c0d9f00000000000000000000000000000000000000000000000000000000835260248201858152604483018590523060648401819052608060848501908152845160a486018190526001600160a01b038e169663022c0d9f968a968a9691949193919260c486019290918190849084905b8381101561471b578181015183820152602001614703565b50505050905090810190601f1680156147485780820380516001836020036101000a031916815260200191505b5095505050505050600060405180830381600087803b15801561476a57600080fd5b505af115801561477e573d6000803e3d6000fd5b5050505081811161478f5781614791565b805b9a9950505050505050505050565b826001600160a01b031663a9059cbb83836040518363ffffffff1660e01b815260040180836001600160a01b0316815260200182815260200192505050602060405180830381600087803b1580156147f657600080fd5b505af115801561480a573d6000803e3d6000fd5b505050506040513d602081101561482057600080fd5b5051611cd45760405162461bcd60e51b8152600401808060200182810382526025815260200180614c726025913960400191505060405180910390fd5b600080826001600160a01b0316846001600160a01b031610614880578284614883565b83835b915091509250929050565b60008061489d856103e5612e81565b905060006148ab8285612e81565b905060006148bf83611b61886103e8612e81565b90506148cb8282612eda565b979650505050505050565b826001600160a01b031663a9059cbb83836040518363ffffffff1660e01b815260040180836001600160a01b0316815260200182815260200192505050602060405180830381600087803b15801561492d57600080fd5b505af1158015614941573d6000803e3d6000fd5b505050506040513d602081101561495757600080fd5b5051611cd4576040805162461bcd60e51b815260206004820181905260248201527f4465784c6962726172793a3a5452414e534645525f46524f4d5f4641494c4544604482015290519081900360640190fdfe42656e7169537472617465677956313a3a7061796d656e7473206e6f7420616c6c6f7765644f776e61626c653a206e6577206f776e657220697320746865207a65726f206164647265737342656e7169537472617465677956313a3a62656c6f77206d696e696d756d2077697468647261775065726d697373696f6e65643a3a6f6e6c79416c6c6f7765644465706f736974732c206e6f7420616c6c6f7765645065726d697373696f6e65643a3a72656d6f76654465706f7369746f722c206e6f20616c6c6f776564206465706f7369746f7273417263683a3a76616c69646174655369673a20696e76616c6964207369676e61747572655065726d697373696f6e65643a3a72656d6f76654465706f7369746f722c206e6f7420616c6c6f7765645f6275726e3a206275726e20616d6f756e74206578636565647320746f74616c20737570706c7942656e7169537472617465677956313a3a626f72726f77696e67206661696c656442656e7169537472617465677956313a3a7769746864726177207472616e73666572206661696c6564536166654d6174683a206d756c7469706c69636174696f6e206f766572666c6f774f776e61626c653a2063616c6c6572206973206e6f7420746865206f776e657242656e7169537472617465677956313a3a5f7374616b654465706f736974546f6b656e735f7472616e73666572546f6b656e733a2063616e6e6f74207472616e7366657220746f20746865207a65726f206164647265737342656e7169537472617465677956313a3a7265736375654465706c6f79656446756e64737472616e7366657246726f6d3a207472616e7366657220616d6f756e74206578636565647320616c6c6f77616e636542656e7169537472617465677956313a3a6661696c656420746f2072656465656d5f6275726e3a206275726e20616d6f756e7420657863656564732066726f6d2062616c616e636542656e7169537472617465677956313a3a5452414e534645525f46524f4d5f4641494c45445f7472616e73666572546f6b656e733a207472616e7366657220657863656564732066726f6d2062616c616e6365a26469706673582212201952876c8b3ea7622fb6a9b296dffe22b10ad28b548b4033c79c8a4965598a8964736f6c634300070300334f776e61626c653a206e6577206f776e657220697320746865207a65726f20616464726573735377617020706169722030206973206e656365737361727920627574206e6f7420737570706c6965644f776e61626c653a2063616c6c6572206973206e6f7420746865206f776e65728be0079c531659141344cd1fd0a4f28419497f9722a3daafe3b4186f6b6457e0537761702070616972203020646f6573206e6f74206d6174636820726577617264546f6b656e30",
  "devdoc": {
    "kind": "dev",
    "methods": {
      "allowDepositor(address)": {
        "params": {
          "depositor": "address"
        }
      },
      "allowance(address,address)": {
        "params": {
          "account": "The address of the account holding the funds",
          "spender": "The address of the account spending the funds"
        },
        "returns": {
          "_0": "The number of tokens approved"
        }
      },
      "approve(address,uint256)": {
        "details": "This will overwrite the approval amount for `spender` and is subject to issues noted [here](https://eips.ethereum.org/EIPS/eip-20#approve) It is recommended to use increaseAllowance and decreaseAllowance instead",
        "params": {
          "amount": "The number of tokens that are approved (2^256-1 means infinite)",
          "spender": "The address of the account which may transfer tokens"
        },
        "returns": {
          "_0": "Whether or not the approval succeeded"
        }
      },
      "balanceOf(address)": {
        "params": {
          "account": "The address of the account to get the balance of"
        },
        "returns": {
          "_0": "The number of tokens held"
        }
      },
      "checkReward()": {
        "returns": {
          "_0": "reward tokens"
        }
      },
      "deposit()": {
        "details": "Must mint receipt tokens to `msg.sender`"
      },
      "deposit(uint256)": {
        "details": "Must mint receipt tokens to `msg.sender`",
        "params": {
          "amount": "deposit tokens"
        }
      },
      "depositFor(address)": {
        "details": "Must mint receipt tokens to `account`",
        "params": {
          "account": "address to receive receipt tokens"
        }
      },
      "depositFor(address,uint256)": {
        "details": "Must mint receipt tokens to `account`",
        "params": {
          "account": "address to receive receipt tokens",
          "amount": "deposit tokens"
        }
      },
      "depositWithPermit(uint256,uint256,uint8,bytes32,bytes32)": {
        "details": "Should revert for tokens without Permit",
        "params": {
          "amount": "Amount of tokens to deposit",
          "deadline": "The time at which to expire the signature",
          "r": "Half of the ECDSA signature pair",
          "s": "Half of the ECDSA signature pair",
          "v": "The recovery byte of the signature"
        }
      },
      "estimateDeployedBalance()": {
        "returns": {
          "_0": "deposit tokens"
        }
      },
      "estimateReinvestReward()": {
        "returns": {
          "_0": "reward tokens"
        }
      },
      "getDepositTokensForShares(uint256)": {
        "params": {
          "amount": "receipt tokens"
        },
        "returns": {
          "_0": "deposit tokens"
        }
      },
      "getDomainSeparator()": {
        "returns": {
          "_0": "Separator"
        }
      },
      "getSharesForDepositTokens(uint256)": {
        "details": "If contract is empty, use 1:1 ratioCould return zero shares for very low amounts of deposit tokens",
        "params": {
          "amount": "deposit tokens"
        },
        "returns": {
          "_0": "receipt tokens"
        }
      },
      "owner()": {
        "details": "Returns the address of the current owner."
      },
      "permit(address,address,uint256,uint256,uint8,bytes32,bytes32)": {
        "params": {
          "deadline": "The time at which to expire the signature",
          "owner": "The address to approve from",
          "r": "Half of the ECDSA signature pair",
          "s": "Half of the ECDSA signature pair",
          "spender": "The address to be approved",
          "v": "The recovery byte of the signature",
          "value": "The number of tokens that are approved (2^256-1 means infinite)"
        }
      },
      "recoverAVAX(uint256)": {
        "params": {
          "amount": "amount"
        }
      },
      "recoverERC20(address,uint256)": {
        "params": {
          "tokenAddress": "token address",
          "tokenAmount": "amount to recover"
        }
      },
      "removeDepositor(address)": {
        "params": {
          "depositor": "address"
        }
      },
      "renounceOwnership()": {
        "details": "Leaves the contract without owner. It will not be possible to call `onlyOwner` functions anymore. Can only be called by the current owner. NOTE: Renouncing ownership will leave the contract without an owner, thereby removing any functionality that is only available to the owner."
      },
      "rescueDeployedFunds(uint256,bool)": {
        "params": {
          "disableDeposits": "bool",
          "minReturnAmountAccepted": "min deposit tokens to receive"
        }
      },
      "revokeAllowance(address,address)": {
        "params": {
          "spender": "address",
          "token": "address"
        }
      },
      "setAllowances()": {
        "details": "Should use modifier `onlyOwner` to avoid griefing"
      },
      "totalDeposits()": {
        "returns": {
          "_0": "total deposits available on the contract"
        }
      },
      "transfer(address,uint256)": {
        "params": {
          "amount": "The number of tokens to transfer",
          "dst": "The address of the destination account"
        },
        "returns": {
          "_0": "Whether or not the transfer succeeded"
        }
      },
      "transferFrom(address,address,uint256)": {
        "params": {
          "amount": "The number of tokens to transfer",
          "dst": "The address of the destination account",
          "src": "The address of the source account"
        },
        "returns": {
          "_0": "Whether or not the transfer succeeded"
        }
      },
      "transferOwnership(address)": {
        "details": "Transfers ownership of the contract to a new account (`newOwner`). Can only be called by the current owner."
      },
      "updateAdminFee(uint256)": {
        "params": {
          "newValue": "fee in BIPS"
        }
      },
      "updateDepositsEnabled(bool)": {
        "params": {
          "newValue": "bool"
        }
      },
      "updateDevAddr(address)": {
        "params": {
          "newValue": "address"
        }
      },
      "updateDevFee(uint256)": {
        "params": {
          "newValue": "fee in BIPS"
        }
      },
      "updateMaxTokensToDepositWithoutReinvest(uint256)": {
        "params": {
          "newValue": "threshold"
        }
      },
      "updateMinTokensToReinvest(uint256)": {
        "params": {
          "newValue": "threshold"
        }
      },
      "updateReinvestReward(uint256)": {
        "params": {
          "newValue": "fee in BIPS"
        }
      },
      "withdraw(uint256)": {
        "params": {
          "amount": "receipt tokens"
        }
      }
    },
    "version": 1
  },
  "userdoc": {
    "kind": "user",
    "methods": {
      "allowDepositor(address)": {
        "notice": "Add an allowed depositor"
      },
      "allowance(address,address)": {
        "notice": "Get the number of tokens `spender` is approved to spend on behalf of `account`"
      },
      "approve(address,uint256)": {
        "notice": "Approve `spender` to transfer up to `amount` from `src`"
      },
      "balanceOf(address)": {
        "notice": "Get the number of tokens held by the `account`"
      },
      "checkReward()": {
        "notice": "Reward tokens avialable to strategy, including balance"
      },
      "deposit()": {
        "notice": "Deposit and deploy deposits tokens to the strategy using AVAX"
      },
      "deposit(uint256)": {
        "notice": "Deposit and deploy deposits tokens to the strategy"
      },
      "depositFor(address)": {
        "notice": "Deposit on behalf of another account using AVAX"
      },
      "depositFor(address,uint256)": {
        "notice": "Deposit on behalf of another account"
      },
      "depositWithPermit(uint256,uint256,uint8,bytes32,bytes32)": {
        "notice": "Deposit using Permit"
      },
      "estimateDeployedBalance()": {
        "notice": "Estimated deposit token balance deployed by strategy, excluding balance"
      },
      "estimateReinvestReward()": {
        "notice": "Estimate reinvest reward"
      },
      "getDepositTokensForShares(uint256)": {
        "notice": "Calculate deposit tokens for a given amount of receipt tokens"
      },
      "getDomainSeparator()": {
        "notice": "EIP-712 Domain separator"
      },
      "getSharesForDepositTokens(uint256)": {
        "notice": "Calculate receipt tokens for a given amount of deposit tokens"
      },
      "permit(address,address,uint256,uint256,uint8,bytes32,bytes32)": {
        "notice": "Triggers an approval from owner to spender"
      },
      "recoverAVAX(uint256)": {
        "notice": "Recover AVAX from contract"
      },
      "recoverERC20(address,uint256)": {
        "notice": "Recover ERC20 from contract"
      },
      "reinvest()": {
        "notice": "Reinvest reward tokens into deposit tokens"
      },
      "removeDepositor(address)": {
        "notice": "Remove an allowed depositor"
      },
      "rescueDeployedFunds(uint256,bool)": {
        "notice": "Rescue all available deployed deposit tokens back to Strategy"
      },
      "revokeAllowance(address,address)": {
        "notice": "Revoke token allowance"
      },
      "setAllowances()": {
        "notice": "Approve tokens for use in Strategy"
      },
      "totalDeposits()": {
        "notice": "This function returns a snapshot of last available quotes"
      },
      "transfer(address,uint256)": {
        "notice": "Transfer `amount` tokens from `msg.sender` to `dst`"
      },
      "transferFrom(address,address,uint256)": {
        "notice": "Transfer `amount` tokens from `src` to `dst`"
      },
      "updateAdminFee(uint256)": {
        "notice": "Update admin fee"
      },
      "updateDepositsEnabled(bool)": {
        "notice": "Enable/disable deposits"
      },
      "updateDevAddr(address)": {
        "notice": "Update devAddr"
      },
      "updateDevFee(uint256)": {
        "notice": "Update developer fee"
      },
      "updateMaxTokensToDepositWithoutReinvest(uint256)": {
        "notice": "Update reinvest max threshold before a deposit"
      },
      "updateMinTokensToReinvest(uint256)": {
        "notice": "Update reinvest min threshold"
      },
      "updateReinvestReward(uint256)": {
        "notice": "Update reinvest reward"
      },
      "withdraw(uint256)": {
        "notice": "Redeem receipt tokens for deposit tokens"
      }
    },
    "version": 1
  },
  "storageLayout": {
    "storage": [
      {
        "astId": 14792,
        "contract": "contracts/strategies/BenqiStrategyAvaxV1.sol:BenqiStrategyAvaxV1",
        "label": "name",
        "offset": 0,
        "slot": "0",
        "type": "t_string_storage"
      },
      {
        "astId": 14795,
        "contract": "contracts/strategies/BenqiStrategyAvaxV1.sol:BenqiStrategyAvaxV1",
        "label": "symbol",
        "offset": 0,
        "slot": "1",
        "type": "t_string_storage"
      },
      {
        "astId": 14800,
        "contract": "contracts/strategies/BenqiStrategyAvaxV1.sol:BenqiStrategyAvaxV1",
        "label": "totalSupply",
        "offset": 0,
        "slot": "2",
        "type": "t_uint256"
      },
      {
        "astId": 14806,
        "contract": "contracts/strategies/BenqiStrategyAvaxV1.sol:BenqiStrategyAvaxV1",
        "label": "allowances",
        "offset": 0,
        "slot": "3",
        "type": "t_mapping(t_address,t_mapping(t_address,t_uint256))"
      },
      {
        "astId": 14810,
        "contract": "contracts/strategies/BenqiStrategyAvaxV1.sol:BenqiStrategyAvaxV1",
        "label": "balances",
        "offset": 0,
        "slot": "4",
        "type": "t_mapping(t_address,t_uint256)"
      },
      {
        "astId": 14826,
        "contract": "contracts/strategies/BenqiStrategyAvaxV1.sol:BenqiStrategyAvaxV1",
        "label": "nonces",
        "offset": 0,
        "slot": "5",
        "type": "t_mapping(t_address,t_uint256)"
      },
      {
        "astId": 20776,
        "contract": "contracts/strategies/BenqiStrategyAvaxV1.sol:BenqiStrategyAvaxV1",
        "label": "_owner",
        "offset": 0,
        "slot": "6",
        "type": "t_address"
      },
      {
        "astId": 20889,
        "contract": "contracts/strategies/BenqiStrategyAvaxV1.sol:BenqiStrategyAvaxV1",
        "label": "numberOfAllowedDepositors",
        "offset": 0,
        "slot": "7",
        "type": "t_uint256"
      },
      {
        "astId": 20893,
        "contract": "contracts/strategies/BenqiStrategyAvaxV1.sol:BenqiStrategyAvaxV1",
        "label": "allowedDepositors",
        "offset": 0,
        "slot": "8",
        "type": "t_mapping(t_address,t_bool)"
      },
      {
        "astId": 15965,
        "contract": "contracts/strategies/BenqiStrategyAvaxV1.sol:BenqiStrategyAvaxV1",
        "label": "depositToken",
        "offset": 0,
        "slot": "9",
        "type": "t_contract(IERC20)18073"
      },
      {
        "astId": 15967,
        "contract": "contracts/strategies/BenqiStrategyAvaxV1.sol:BenqiStrategyAvaxV1",
        "label": "rewardToken",
        "offset": 0,
        "slot": "10",
        "type": "t_contract(IERC20)18073"
      },
      {
        "astId": 15969,
        "contract": "contracts/strategies/BenqiStrategyAvaxV1.sol:BenqiStrategyAvaxV1",
        "label": "devAddr",
        "offset": 0,
        "slot": "11",
        "type": "t_address"
      },
      {
        "astId": 15971,
        "contract": "contracts/strategies/BenqiStrategyAvaxV1.sol:BenqiStrategyAvaxV1",
        "label": "MIN_TOKENS_TO_REINVEST",
        "offset": 0,
        "slot": "12",
        "type": "t_uint256"
      },
      {
        "astId": 15973,
        "contract": "contracts/strategies/BenqiStrategyAvaxV1.sol:BenqiStrategyAvaxV1",
        "label": "MAX_TOKENS_TO_DEPOSIT_WITHOUT_REINVEST",
        "offset": 0,
        "slot": "13",
        "type": "t_uint256"
      },
      {
        "astId": 15975,
        "contract": "contracts/strategies/BenqiStrategyAvaxV1.sol:BenqiStrategyAvaxV1",
        "label": "DEPOSITS_ENABLED",
        "offset": 0,
        "slot": "14",
        "type": "t_bool"
      },
      {
        "astId": 15977,
        "contract": "contracts/strategies/BenqiStrategyAvaxV1.sol:BenqiStrategyAvaxV1",
        "label": "REINVEST_REWARD_BIPS",
        "offset": 0,
        "slot": "15",
        "type": "t_uint256"
      },
      {
        "astId": 15979,
        "contract": "contracts/strategies/BenqiStrategyAvaxV1.sol:BenqiStrategyAvaxV1",
        "label": "ADMIN_FEE_BIPS",
        "offset": 0,
        "slot": "16",
        "type": "t_uint256"
      },
      {
        "astId": 15981,
        "contract": "contracts/strategies/BenqiStrategyAvaxV1.sol:BenqiStrategyAvaxV1",
        "label": "DEV_FEE_BIPS",
        "offset": 0,
        "slot": "17",
        "type": "t_uint256"
      },
      {
        "astId": 21009,
        "contract": "contracts/strategies/BenqiStrategyAvaxV1.sol:BenqiStrategyAvaxV1",
        "label": "_status",
        "offset": 0,
        "slot": "18",
        "type": "t_uint256"
      },
      {
        "astId": 21317,
        "contract": "contracts/strategies/BenqiStrategyAvaxV1.sol:BenqiStrategyAvaxV1",
        "label": "rewardController",
        "offset": 0,
        "slot": "19",
        "type": "t_contract(IBenqiUnitroller)17831"
      },
      {
        "astId": 21319,
        "contract": "contracts/strategies/BenqiStrategyAvaxV1.sol:BenqiStrategyAvaxV1",
        "label": "tokenDelegator",
        "offset": 0,
        "slot": "20",
        "type": "t_contract(IBenqiAVAXDelegator)17611"
      },
      {
        "astId": 21321,
        "contract": "contracts/strategies/BenqiStrategyAvaxV1.sol:BenqiStrategyAvaxV1",
        "label": "rewardToken0",
        "offset": 0,
        "slot": "21",
        "type": "t_contract(IERC20)18073"
      },
      {
        "astId": 21323,
        "contract": "contracts/strategies/BenqiStrategyAvaxV1.sol:BenqiStrategyAvaxV1",
        "label": "swapPairToken0",
        "offset": 0,
        "slot": "22",
        "type": "t_contract(IPair)19079"
      },
      {
        "astId": 21330,
        "contract": "contracts/strategies/BenqiStrategyAvaxV1.sol:BenqiStrategyAvaxV1",
        "label": "leverageLevel",
        "offset": 0,
        "slot": "23",
        "type": "t_uint256"
      },
      {
        "astId": 21332,
        "contract": "contracts/strategies/BenqiStrategyAvaxV1.sol:BenqiStrategyAvaxV1",
        "label": "leverageBips",
        "offset": 0,
        "slot": "24",
        "type": "t_uint256"
      },
      {
        "astId": 21334,
        "contract": "contracts/strategies/BenqiStrategyAvaxV1.sol:BenqiStrategyAvaxV1",
        "label": "minMinting",
        "offset": 0,
        "slot": "25",
        "type": "t_uint256"
      }
    ],
    "types": {
      "t_address": {
        "encoding": "inplace",
        "label": "address",
        "numberOfBytes": "20"
      },
      "t_bool": {
        "encoding": "inplace",
        "label": "bool",
        "numberOfBytes": "1"
      },
      "t_contract(IBenqiAVAXDelegator)17611": {
        "encoding": "inplace",
        "label": "contract IBenqiAVAXDelegator",
        "numberOfBytes": "20"
      },
      "t_contract(IBenqiUnitroller)17831": {
        "encoding": "inplace",
        "label": "contract IBenqiUnitroller",
        "numberOfBytes": "20"
      },
      "t_contract(IERC20)18073": {
        "encoding": "inplace",
        "label": "contract IERC20",
        "numberOfBytes": "20"
      },
      "t_contract(IPair)19079": {
        "encoding": "inplace",
        "label": "contract IPair",
        "numberOfBytes": "20"
      },
      "t_mapping(t_address,t_bool)": {
        "encoding": "mapping",
        "key": "t_address",
        "label": "mapping(address => bool)",
        "numberOfBytes": "32",
        "value": "t_bool"
      },
      "t_mapping(t_address,t_mapping(t_address,t_uint256))": {
        "encoding": "mapping",
        "key": "t_address",
        "label": "mapping(address => mapping(address => uint256))",
        "numberOfBytes": "32",
        "value": "t_mapping(t_address,t_uint256)"
      },
      "t_mapping(t_address,t_uint256)": {
        "encoding": "mapping",
        "key": "t_address",
        "label": "mapping(address => uint256)",
        "numberOfBytes": "32",
        "value": "t_uint256"
      },
      "t_string_storage": {
        "encoding": "bytes",
        "label": "string",
        "numberOfBytes": "32"
      },
      "t_uint256": {
        "encoding": "inplace",
        "label": "uint256",
        "numberOfBytes": "32"
      }
    }
  }
}