{
  "address": "0x8889Da43CeE581068C695A2c256Ba2D514608F4A",
  "abi": [
    {
      "inputs": [
        {
          "internalType": "string",
          "name": "_name",
          "type": "string"
        },
        {
          "internalType": "address",
          "name": "_depositToken",
          "type": "address"
        },
        {
          "internalType": "address",
          "name": "_rewardController",
          "type": "address"
        },
        {
          "internalType": "address",
          "name": "_tokenDelegator",
          "type": "address"
        },
        {
          "internalType": "address",
          "name": "_rewardToken0",
          "type": "address"
        },
        {
          "internalType": "address",
          "name": "_rewardToken1",
          "type": "address"
        },
        {
          "internalType": "address",
          "name": "_swapPairToken0",
          "type": "address"
        },
        {
          "internalType": "address",
          "name": "_swapPairToken1",
          "type": "address"
        },
        {
          "internalType": "address",
          "name": "_timelock",
          "type": "address"
        },
        {
          "components": [
            {
              "internalType": "uint256",
              "name": "leverageLevel",
              "type": "uint256"
            },
            {
              "internalType": "uint256",
              "name": "leverageBips",
              "type": "uint256"
            },
            {
              "internalType": "uint256",
              "name": "minMinting",
              "type": "uint256"
            }
          ],
          "internalType": "struct BenqiStrategyV3.LeverageSettings",
          "name": "_leverageSettings",
          "type": "tuple"
        },
        {
          "components": [
            {
              "internalType": "uint256",
              "name": "minTokensToReinvest",
              "type": "uint256"
            },
            {
              "internalType": "uint256",
              "name": "devFeeBips",
              "type": "uint256"
            },
            {
              "internalType": "uint256",
              "name": "reinvestRewardBips",
              "type": "uint256"
            }
          ],
          "internalType": "struct YakStrategyV2.StrategySettings",
          "name": "_strategySettings",
          "type": "tuple"
        }
      ],
      "stateMutability": "nonpayable",
      "type": "constructor"
    },
    {
      "anonymous": false,
      "inputs": [
        {
          "indexed": true,
          "internalType": "address",
          "name": "account",
          "type": "address"
        }
      ],
      "name": "AllowDepositor",
      "type": "event"
    },
    {
      "anonymous": false,
      "inputs": [
        {
          "indexed": true,
          "internalType": "address",
          "name": "owner",
          "type": "address"
        },
        {
          "indexed": true,
          "internalType": "address",
          "name": "spender",
          "type": "address"
        },
        {
          "indexed": false,
          "internalType": "uint256",
          "name": "value",
          "type": "uint256"
        }
      ],
      "name": "Approval",
      "type": "event"
    },
    {
      "anonymous": false,
      "inputs": [
        {
          "indexed": true,
          "internalType": "address",
          "name": "account",
          "type": "address"
        },
        {
          "indexed": false,
          "internalType": "uint256",
          "name": "amount",
          "type": "uint256"
        }
      ],
      "name": "Deposit",
      "type": "event"
    },
    {
      "anonymous": false,
      "inputs": [
        {
          "indexed": false,
          "internalType": "bool",
          "name": "newValue",
          "type": "bool"
        }
      ],
      "name": "DepositsEnabled",
      "type": "event"
    },
    {
      "anonymous": false,
      "inputs": [
        {
          "indexed": true,
          "internalType": "address",
          "name": "previousOwner",
          "type": "address"
        },
        {
          "indexed": true,
          "internalType": "address",
          "name": "newOwner",
          "type": "address"
        }
      ],
      "name": "OwnershipTransferred",
      "type": "event"
    },
    {
      "anonymous": false,
      "inputs": [
        {
          "indexed": false,
          "internalType": "address",
          "name": "token",
          "type": "address"
        },
        {
          "indexed": false,
          "internalType": "uint256",
          "name": "amount",
          "type": "uint256"
        }
      ],
      "name": "Recovered",
      "type": "event"
    },
    {
      "anonymous": false,
      "inputs": [
        {
          "indexed": false,
          "internalType": "uint256",
          "name": "newTotalDeposits",
          "type": "uint256"
        },
        {
          "indexed": false,
          "internalType": "uint256",
          "name": "newTotalSupply",
          "type": "uint256"
        }
      ],
      "name": "Reinvest",
      "type": "event"
    },
    {
      "anonymous": false,
      "inputs": [
        {
          "indexed": true,
          "internalType": "address",
          "name": "account",
          "type": "address"
        }
      ],
      "name": "RemoveDepositor",
      "type": "event"
    },
    {
      "anonymous": false,
      "inputs": [
        {
          "indexed": true,
          "internalType": "address",
          "name": "from",
          "type": "address"
        },
        {
          "indexed": true,
          "internalType": "address",
          "name": "to",
          "type": "address"
        },
        {
          "indexed": false,
          "internalType": "uint256",
          "name": "value",
          "type": "uint256"
        }
      ],
      "name": "Transfer",
      "type": "event"
    },
    {
      "anonymous": false,
      "inputs": [
        {
          "indexed": false,
          "internalType": "uint256",
          "name": "oldValue",
          "type": "uint256"
        },
        {
          "indexed": false,
          "internalType": "uint256",
          "name": "newValue",
          "type": "uint256"
        }
      ],
      "name": "UpdateAdminFee",
      "type": "event"
    },
    {
      "anonymous": false,
      "inputs": [
        {
          "indexed": false,
          "internalType": "address",
          "name": "oldValue",
          "type": "address"
        },
        {
          "indexed": false,
          "internalType": "address",
          "name": "newValue",
          "type": "address"
        }
      ],
      "name": "UpdateDevAddr",
      "type": "event"
    },
    {
      "anonymous": false,
      "inputs": [
        {
          "indexed": false,
          "internalType": "uint256",
          "name": "oldValue",
          "type": "uint256"
        },
        {
          "indexed": false,
          "internalType": "uint256",
          "name": "newValue",
          "type": "uint256"
        }
      ],
      "name": "UpdateDevFee",
      "type": "event"
    },
    {
      "anonymous": false,
      "inputs": [
        {
          "indexed": false,
          "internalType": "uint256",
          "name": "oldValue",
          "type": "uint256"
        },
        {
          "indexed": false,
          "internalType": "uint256",
          "name": "newValue",
          "type": "uint256"
        }
      ],
      "name": "UpdateMaxTokensToDepositWithoutReinvest",
      "type": "event"
    },
    {
      "anonymous": false,
      "inputs": [
        {
          "indexed": false,
          "internalType": "uint256",
          "name": "oldValue",
          "type": "uint256"
        },
        {
          "indexed": false,
          "internalType": "uint256",
          "name": "newValue",
          "type": "uint256"
        }
      ],
      "name": "UpdateMinTokensToReinvest",
      "type": "event"
    },
    {
      "anonymous": false,
      "inputs": [
        {
          "indexed": false,
          "internalType": "uint256",
          "name": "oldValue",
          "type": "uint256"
        },
        {
          "indexed": false,
          "internalType": "uint256",
          "name": "newValue",
          "type": "uint256"
        }
      ],
      "name": "UpdateReinvestReward",
      "type": "event"
    },
    {
      "anonymous": false,
      "inputs": [
        {
          "indexed": true,
          "internalType": "address",
          "name": "account",
          "type": "address"
        },
        {
          "indexed": false,
          "internalType": "uint256",
          "name": "amount",
          "type": "uint256"
        }
      ],
      "name": "Withdraw",
      "type": "event"
    },
    {
      "inputs": [],
      "name": "ADMIN_FEE_BIPS",
      "outputs": [
        {
          "internalType": "uint256",
          "name": "",
          "type": "uint256"
        }
      ],
      "stateMutability": "view",
      "type": "function"
    },
    {
      "inputs": [],
      "name": "DEPOSITS_ENABLED",
      "outputs": [
        {
          "internalType": "bool",
          "name": "",
          "type": "bool"
        }
      ],
      "stateMutability": "view",
      "type": "function"
    },
    {
      "inputs": [],
      "name": "DEV_FEE_BIPS",
      "outputs": [
        {
          "internalType": "uint256",
          "name": "",
          "type": "uint256"
        }
      ],
      "stateMutability": "view",
      "type": "function"
    },
    {
      "inputs": [],
      "name": "DOMAIN_TYPEHASH",
      "outputs": [
        {
          "internalType": "bytes32",
          "name": "",
          "type": "bytes32"
        }
      ],
      "stateMutability": "view",
      "type": "function"
    },
    {
      "inputs": [],
      "name": "MAX_TOKENS_TO_DEPOSIT_WITHOUT_REINVEST",
      "outputs": [
        {
          "internalType": "uint256",
          "name": "",
          "type": "uint256"
        }
      ],
      "stateMutability": "view",
      "type": "function"
    },
    {
      "inputs": [],
      "name": "MIN_TOKENS_TO_REINVEST",
      "outputs": [
        {
          "internalType": "uint256",
          "name": "",
          "type": "uint256"
        }
      ],
      "stateMutability": "view",
      "type": "function"
    },
    {
      "inputs": [],
      "name": "PERMIT_TYPEHASH",
      "outputs": [
        {
          "internalType": "bytes32",
          "name": "",
          "type": "bytes32"
        }
      ],
      "stateMutability": "view",
      "type": "function"
    },
    {
      "inputs": [],
      "name": "REINVEST_REWARD_BIPS",
      "outputs": [
        {
          "internalType": "uint256",
          "name": "",
          "type": "uint256"
        }
      ],
      "stateMutability": "view",
      "type": "function"
    },
    {
      "inputs": [],
      "name": "VERSION_HASH",
      "outputs": [
        {
          "internalType": "bytes32",
          "name": "",
          "type": "bytes32"
        }
      ],
      "stateMutability": "view",
      "type": "function"
    },
    {
      "inputs": [
        {
          "internalType": "address",
          "name": "depositor",
          "type": "address"
        }
      ],
      "name": "allowDepositor",
      "outputs": [],
      "stateMutability": "nonpayable",
      "type": "function"
    },
    {
      "inputs": [
        {
          "internalType": "address",
          "name": "account",
          "type": "address"
        },
        {
          "internalType": "address",
          "name": "spender",
          "type": "address"
        }
      ],
      "name": "allowance",
      "outputs": [
        {
          "internalType": "uint256",
          "name": "",
          "type": "uint256"
        }
      ],
      "stateMutability": "view",
      "type": "function"
    },
    {
      "inputs": [
        {
          "internalType": "address",
          "name": "",
          "type": "address"
        }
      ],
      "name": "allowedDepositors",
      "outputs": [
        {
          "internalType": "bool",
          "name": "",
          "type": "bool"
        }
      ],
      "stateMutability": "view",
      "type": "function"
    },
    {
      "inputs": [
        {
          "internalType": "address",
          "name": "spender",
          "type": "address"
        },
        {
          "internalType": "uint256",
          "name": "amount",
          "type": "uint256"
        }
      ],
      "name": "approve",
      "outputs": [
        {
          "internalType": "bool",
          "name": "",
          "type": "bool"
        }
      ],
      "stateMutability": "nonpayable",
      "type": "function"
    },
    {
      "inputs": [
        {
          "internalType": "address",
          "name": "account",
          "type": "address"
        }
      ],
      "name": "balanceOf",
      "outputs": [
        {
          "internalType": "uint256",
          "name": "",
          "type": "uint256"
        }
      ],
      "stateMutability": "view",
      "type": "function"
    },
    {
      "inputs": [],
      "name": "checkReward",
      "outputs": [
        {
          "internalType": "uint256",
          "name": "",
          "type": "uint256"
        }
      ],
      "stateMutability": "view",
      "type": "function"
    },
    {
      "inputs": [],
      "name": "decimals",
      "outputs": [
        {
          "internalType": "uint8",
          "name": "",
          "type": "uint8"
        }
      ],
      "stateMutability": "view",
      "type": "function"
    },
    {
      "inputs": [
        {
          "internalType": "uint256",
          "name": "amount",
          "type": "uint256"
        }
      ],
      "name": "deposit",
      "outputs": [],
      "stateMutability": "nonpayable",
      "type": "function"
    },
    {
      "inputs": [
        {
          "internalType": "address",
          "name": "account",
          "type": "address"
        },
        {
          "internalType": "uint256",
          "name": "amount",
          "type": "uint256"
        }
      ],
      "name": "depositFor",
      "outputs": [],
      "stateMutability": "nonpayable",
      "type": "function"
    },
    {
      "inputs": [],
      "name": "depositToken",
      "outputs": [
        {
          "internalType": "contract IERC20",
          "name": "",
          "type": "address"
        }
      ],
      "stateMutability": "view",
      "type": "function"
    },
    {
      "inputs": [
        {
          "internalType": "uint256",
          "name": "amount",
          "type": "uint256"
        },
        {
          "internalType": "uint256",
          "name": "deadline",
          "type": "uint256"
        },
        {
          "internalType": "uint8",
          "name": "v",
          "type": "uint8"
        },
        {
          "internalType": "bytes32",
          "name": "r",
          "type": "bytes32"
        },
        {
          "internalType": "bytes32",
          "name": "s",
          "type": "bytes32"
        }
      ],
      "name": "depositWithPermit",
      "outputs": [],
      "stateMutability": "nonpayable",
      "type": "function"
    },
    {
      "inputs": [],
      "name": "devAddr",
      "outputs": [
        {
          "internalType": "address",
          "name": "",
          "type": "address"
        }
      ],
      "stateMutability": "view",
      "type": "function"
    },
    {
      "inputs": [],
      "name": "estimateDeployedBalance",
      "outputs": [
        {
          "internalType": "uint256",
          "name": "",
          "type": "uint256"
        }
      ],
      "stateMutability": "view",
      "type": "function"
    },
    {
      "inputs": [],
      "name": "estimateReinvestReward",
      "outputs": [
        {
          "internalType": "uint256",
          "name": "",
          "type": "uint256"
        }
      ],
      "stateMutability": "view",
      "type": "function"
    },
    {
      "inputs": [],
      "name": "getActualLeverage",
      "outputs": [
        {
          "internalType": "uint256",
          "name": "",
          "type": "uint256"
        }
      ],
      "stateMutability": "view",
      "type": "function"
    },
    {
      "inputs": [
        {
          "internalType": "uint256",
          "name": "amount",
          "type": "uint256"
        }
      ],
      "name": "getDepositTokensForShares",
      "outputs": [
        {
          "internalType": "uint256",
          "name": "",
          "type": "uint256"
        }
      ],
      "stateMutability": "view",
      "type": "function"
    },
    {
      "inputs": [],
      "name": "getDomainSeparator",
      "outputs": [
        {
          "internalType": "bytes32",
          "name": "",
          "type": "bytes32"
        }
      ],
      "stateMutability": "view",
      "type": "function"
    },
    {
      "inputs": [
        {
          "internalType": "uint256",
          "name": "amount",
          "type": "uint256"
        }
      ],
      "name": "getSharesForDepositTokens",
      "outputs": [
        {
          "internalType": "uint256",
          "name": "",
          "type": "uint256"
        }
      ],
      "stateMutability": "view",
      "type": "function"
    },
    {
      "inputs": [],
      "name": "name",
      "outputs": [
        {
          "internalType": "string",
          "name": "",
          "type": "string"
        }
      ],
      "stateMutability": "view",
      "type": "function"
    },
    {
      "inputs": [
        {
          "internalType": "address",
          "name": "",
          "type": "address"
        }
      ],
      "name": "nonces",
      "outputs": [
        {
          "internalType": "uint256",
          "name": "",
          "type": "uint256"
        }
      ],
      "stateMutability": "view",
      "type": "function"
    },
    {
      "inputs": [],
      "name": "numberOfAllowedDepositors",
      "outputs": [
        {
          "internalType": "uint256",
          "name": "",
          "type": "uint256"
        }
      ],
      "stateMutability": "view",
      "type": "function"
    },
    {
      "inputs": [],
      "name": "owner",
      "outputs": [
        {
          "internalType": "address",
          "name": "",
          "type": "address"
        }
      ],
      "stateMutability": "view",
      "type": "function"
    },
    {
      "inputs": [
        {
          "internalType": "address",
          "name": "owner",
          "type": "address"
        },
        {
          "internalType": "address",
          "name": "spender",
          "type": "address"
        },
        {
          "internalType": "uint256",
          "name": "value",
          "type": "uint256"
        },
        {
          "internalType": "uint256",
          "name": "deadline",
          "type": "uint256"
        },
        {
          "internalType": "uint8",
          "name": "v",
          "type": "uint8"
        },
        {
          "internalType": "bytes32",
          "name": "r",
          "type": "bytes32"
        },
        {
          "internalType": "bytes32",
          "name": "s",
          "type": "bytes32"
        }
      ],
      "name": "permit",
      "outputs": [],
      "stateMutability": "nonpayable",
      "type": "function"
    },
    {
      "inputs": [
        {
          "internalType": "uint256",
          "name": "amount",
          "type": "uint256"
        }
      ],
      "name": "recoverAVAX",
      "outputs": [],
      "stateMutability": "nonpayable",
      "type": "function"
    },
    {
      "inputs": [
        {
          "internalType": "address",
          "name": "tokenAddress",
          "type": "address"
        },
        {
          "internalType": "uint256",
          "name": "tokenAmount",
          "type": "uint256"
        }
      ],
      "name": "recoverERC20",
      "outputs": [],
      "stateMutability": "nonpayable",
      "type": "function"
    },
    {
      "inputs": [],
      "name": "reinvest",
      "outputs": [],
      "stateMutability": "nonpayable",
      "type": "function"
    },
    {
      "inputs": [
        {
          "internalType": "address",
          "name": "depositor",
          "type": "address"
        }
      ],
      "name": "removeDepositor",
      "outputs": [],
      "stateMutability": "nonpayable",
      "type": "function"
    },
    {
      "inputs": [],
      "name": "renounceOwnership",
      "outputs": [],
      "stateMutability": "nonpayable",
      "type": "function"
    },
    {
      "inputs": [
        {
          "internalType": "uint256",
          "name": "minReturnAmountAccepted",
          "type": "uint256"
        },
        {
          "internalType": "bool",
          "name": "",
          "type": "bool"
        }
      ],
      "name": "rescueDeployedFunds",
      "outputs": [],
      "stateMutability": "nonpayable",
      "type": "function"
    },
    {
      "inputs": [
        {
          "internalType": "address",
          "name": "token",
          "type": "address"
        },
        {
          "internalType": "address",
          "name": "spender",
          "type": "address"
        }
      ],
      "name": "revokeAllowance",
      "outputs": [],
      "stateMutability": "nonpayable",
      "type": "function"
    },
    {
      "inputs": [],
      "name": "rewardToken",
      "outputs": [
        {
          "internalType": "contract IERC20",
          "name": "",
          "type": "address"
        }
      ],
      "stateMutability": "view",
      "type": "function"
    },
    {
      "inputs": [],
      "name": "symbol",
      "outputs": [
        {
          "internalType": "string",
          "name": "",
          "type": "string"
        }
      ],
      "stateMutability": "view",
      "type": "function"
    },
    {
      "inputs": [],
      "name": "totalDeposits",
      "outputs": [
        {
          "internalType": "uint256",
          "name": "",
          "type": "uint256"
        }
      ],
      "stateMutability": "view",
      "type": "function"
    },
    {
      "inputs": [],
      "name": "totalSupply",
      "outputs": [
        {
          "internalType": "uint256",
          "name": "",
          "type": "uint256"
        }
      ],
      "stateMutability": "view",
      "type": "function"
    },
    {
      "inputs": [
        {
          "internalType": "address",
          "name": "dst",
          "type": "address"
        },
        {
          "internalType": "uint256",
          "name": "amount",
          "type": "uint256"
        }
      ],
      "name": "transfer",
      "outputs": [
        {
          "internalType": "bool",
          "name": "",
          "type": "bool"
        }
      ],
      "stateMutability": "nonpayable",
      "type": "function"
    },
    {
      "inputs": [
        {
          "internalType": "address",
          "name": "src",
          "type": "address"
        },
        {
          "internalType": "address",
          "name": "dst",
          "type": "address"
        },
        {
          "internalType": "uint256",
          "name": "amount",
          "type": "uint256"
        }
      ],
      "name": "transferFrom",
      "outputs": [
        {
          "internalType": "bool",
          "name": "",
          "type": "bool"
        }
      ],
      "stateMutability": "nonpayable",
      "type": "function"
    },
    {
      "inputs": [
        {
          "internalType": "address",
          "name": "newOwner",
          "type": "address"
        }
      ],
      "name": "transferOwnership",
      "outputs": [],
      "stateMutability": "nonpayable",
      "type": "function"
    },
    {
      "inputs": [
        {
          "internalType": "uint256",
          "name": "newValue",
          "type": "uint256"
        }
      ],
      "name": "updateAdminFee",
      "outputs": [],
      "stateMutability": "nonpayable",
      "type": "function"
    },
    {
      "inputs": [
        {
          "internalType": "bool",
          "name": "newValue",
          "type": "bool"
        }
      ],
      "name": "updateDepositsEnabled",
      "outputs": [],
      "stateMutability": "nonpayable",
      "type": "function"
    },
    {
      "inputs": [
        {
          "internalType": "address",
          "name": "newValue",
          "type": "address"
        }
      ],
      "name": "updateDevAddr",
      "outputs": [],
      "stateMutability": "nonpayable",
      "type": "function"
    },
    {
      "inputs": [
        {
          "internalType": "uint256",
          "name": "newValue",
          "type": "uint256"
        }
      ],
      "name": "updateDevFee",
      "outputs": [],
      "stateMutability": "nonpayable",
      "type": "function"
    },
    {
      "inputs": [
        {
          "internalType": "uint256",
          "name": "_leverageLevel",
          "type": "uint256"
        },
        {
          "internalType": "uint256",
          "name": "_leverageBips",
          "type": "uint256"
        },
        {
          "internalType": "uint256",
          "name": "_redeemLimitSafetyMargin",
          "type": "uint256"
        }
      ],
      "name": "updateLeverage",
      "outputs": [],
      "stateMutability": "nonpayable",
      "type": "function"
    },
    {
      "inputs": [
        {
          "internalType": "uint256",
          "name": "newValue",
          "type": "uint256"
        }
      ],
      "name": "updateMaxTokensToDepositWithoutReinvest",
      "outputs": [],
      "stateMutability": "nonpayable",
      "type": "function"
    },
    {
      "inputs": [
        {
          "internalType": "uint256",
          "name": "newValue",
          "type": "uint256"
        }
      ],
      "name": "updateMinTokensToReinvest",
      "outputs": [],
      "stateMutability": "nonpayable",
      "type": "function"
    },
    {
      "inputs": [
        {
          "internalType": "uint256",
          "name": "newValue",
          "type": "uint256"
        }
      ],
      "name": "updateReinvestReward",
      "outputs": [],
      "stateMutability": "nonpayable",
      "type": "function"
    },
    {
      "inputs": [
        {
          "internalType": "uint256",
          "name": "amount",
          "type": "uint256"
        }
      ],
      "name": "withdraw",
      "outputs": [],
      "stateMutability": "nonpayable",
      "type": "function"
    },
    {
      "stateMutability": "payable",
      "type": "receive"
    }
  ],
  "transactionHash": "0xaadbae8ca238fe3f7382f011def8f59ec8da036b08089971999cf2e2c3644fa7",
  "args": [
    "Yield Yak: Benqi BTC.b",
    "0x152b9d0FdC40C096757F570A51E494bd4b943E50",
    "0x486Af39519B4Dc9a7fCcd318217352830E8AD9b4",
    "0x89a415b3D20098E6A6C8f7a59001C67BD3129821",
    "0x8729438EB15e2C8B576fCc6AeCdA6A148776C0F5",
    "0xB31f66AA3C1e785363F0875A1B74E27b85FD66c7",
    "0xe530dc2095ef5653205cf5ea79f8979a7028065c",
    "0x2fD81391E30805Cc7F2Ec827013ce86dc591B806",
    "0x302404cb8f34713a8b8dbf9b4989a41252332068",
    {
      "leverageLevel": "10000",
      "leverageBips": "10000",
      "minMinting": "10000"
    },
    {
      "minTokensToReinvest": "10000000000000",
      "devFeeBips": "700",
      "reinvestRewardBips": "300"
    }
  ],
  "solcInputHash": "1c3ea6211a266758a6311e2c8fb72f13",
  "bytecode": "0x60c060405260096080819052685969656c642059616b60b81b60a09081526200002c916000919062000d2b565b506040805180820190915260038082526216549560ea1b6020909201918252620000599160019162000d2b565b503480156200006757600080fd5b5060405162006a9c38038062006a9c8339810160408190526200008a9162000e96565b600680546001600160a01b03191633908117909155604051829190819060009060008051602062006a5c833981519152908290a3508051620000cc906200025b565b6020810151620000dc90620002eb565b6040810151620000ec90620003a2565b508a51620001029060009060208e019062000d2b565b50600980546001600160a01b03808d166001600160a01b031992831617909255601280548c8416908316179055601380548b8416908316179055601480548a84169083161790556015805492891692821683179055600a805490911690911790556040820151601a558151602080840151620001be9291620001b0906103e8906200019c9084906103de906200240362000459821b17901c565b6200046e60201b6200240f1790919060201c565b601892909255601955601b55565b600b80546001600160a01b031916732d580f9cf2fb2d09bc411532988f2afda4e7beff179055620001ee6200047c565b620001fa85856200054e565b62000206600162000b76565b620002118362000c20565b60408051600080825260208201527fc7606d21ac05cd309191543e409f0845c016120563783d70e4f41419dc0ef234910160405180910390a15050505050505050505050620011fd565b6006546001600160a01b03163314620002aa5760405162461bcd60e51b8152602060048201819052602482015260008051602062006a3c83398151915260448201526064015b60405180910390fd5b600c5460408051918252602082018390527f481f79ac3a523b6d6db3c5a720e190e986d1cc1b41adcdf50f9caef849901100910160405180910390a1600c55565b6006546001600160a01b03163314620003365760405162461bcd60e51b8152602060048201819052602482015260008051602062006a3c8339815191526044820152606401620002a1565b612710620003556010548362000d1d60201b6200241b1790919060201c565b11156200036157600080fd5b60115460408051918252602082018390527f2a42303d002f0ba6cfe8259c91d4684443fb0b3de286ba74991175d651726131910160405180910390a1601155565b6006546001600160a01b03163314620003ed5760405162461bcd60e51b8152602060048201819052602482015260008051602062006a3c8339815191526044820152606401620002a1565b6127106200040c6011548362000d1d60201b6200241b1790919060201c565b11156200041857600080fd5b60105460408051918252602082018390527fe7f97d51d307dc44045597c9978bec0f842e6bb40d19b9444084cfa30d9ed4f2910160405180910390a1601055565b60006200046782846200102e565b9392505050565b600062000467828462001050565b60408051600180825281830190925260009160208083019080368337505060135482519293506001600160a01b031691839150600090620004c157620004c162001073565b6001600160a01b039283166020918202929092010152601254604051631853304760e31b815291169063c2998238906200050090849060040162001089565b6000604051808303816000875af115801562000520573d6000803e3d6000fd5b505050506040513d6000823e601f3d908101601f191682016040526200054a9190810190620010d8565b5050565b6001600160a01b038216620005b85760405162461bcd60e51b815260206004820152602960248201527f5377617020706169722030206973206e656365737361727920627574206e6f74604482015268081cdd5c1c1b1a595960ba1b6064820152608401620002a1565b6001600160a01b038116620006225760405162461bcd60e51b815260206004820152602960248201527f5377617020706169722031206973206e656365737361727920627574206e6f74604482015268081cdd5c1c1b1a595960ba1b6064820152608401620002a1565b816001600160a01b0316630dfe16816040518163ffffffff1660e01b8152600401602060405180830381865afa15801562000661573d6000803e3d6000fd5b505050506040513d601f19601f8201168201806040525081019062000687919062001188565b6014546001600160a01b0390811691161480620007165750816001600160a01b031663d21220a76040518163ffffffff1660e01b8152600401602060405180830381865afa158015620006de573d6000803e3d6000fd5b505050506040513d601f19601f8201168201806040525081019062000704919062001188565b6014546001600160a01b039081169116145b620007635760405162461bcd60e51b8152602060048201526027602482015260008051602062006a7c833981519152604482015266064546f6b656e360cc1b6064820152608401620002a1565b816001600160a01b0316630dfe16816040518163ffffffff1660e01b8152600401602060405180830381865afa158015620007a2573d6000803e3d6000fd5b505050506040513d601f19601f82011682018060405250810190620007c8919062001188565b6015546001600160a01b0390811691161480620008575750816001600160a01b031663d21220a76040518163ffffffff1660e01b8152600401602060405180830381865afa1580156200081f573d6000803e3d6000fd5b505050506040513d601f19601f8201168201806040525081019062000845919062001188565b6015546001600160a01b039081169116145b620008a45760405162461bcd60e51b8152602060048201526027602482015260008051602062006a7c83398151915260448201526664546f6b656e3160c81b6064820152608401620002a1565b806001600160a01b0316630dfe16816040518163ffffffff1660e01b8152600401602060405180830381865afa158015620008e3573d6000803e3d6000fd5b505050506040513d601f19601f8201168201806040525081019062000909919062001188565b6009546001600160a01b0390811691161480620009985750806001600160a01b031663d21220a76040518163ffffffff1660e01b8152600401602060405180830381865afa15801562000960573d6000803e3d6000fd5b505050506040513d601f19601f8201168201806040525081019062000986919062001188565b6009546001600160a01b039081169116145b620009f65760405162461bcd60e51b815260206004820152602760248201527f537761702070616972203120646f6573206e6f74206d61746368206465706f7360448201526634ba2a37b5b2b760c91b6064820152608401620002a1565b806001600160a01b0316630dfe16816040518163ffffffff1660e01b8152600401602060405180830381865afa15801562000a35573d6000803e3d6000fd5b505050506040513d601f19601f8201168201806040525081019062000a5b919062001188565b6015546001600160a01b039081169116148062000aea5750806001600160a01b031663d21220a76040518163ffffffff1660e01b8152600401602060405180830381865afa15801562000ab2573d6000803e3d6000fd5b505050506040513d601f19601f8201168201806040525081019062000ad8919062001188565b6015546001600160a01b039081169116145b62000b485760405162461bcd60e51b815260206004820152602760248201527f537761702070616972203120646f6573206e6f74206d6174636820726577617260448201526664546f6b656e3160c81b6064820152608401620002a1565b601680546001600160a01b039384166001600160a01b03199182161790915560178054929093169116179055565b6006546001600160a01b0316331462000bc15760405162461bcd60e51b8152602060048201819052602482015260008051602062006a3c8339815191526044820152606401620002a1565b600e5481151560ff90911615150362000bd957600080fd5b600e805460ff19168215159081179091556040519081527f7b014ed3854e7f5cb0218d58b3c6ae7d53a68bb0af2f67bfb029ea42c38a7e859060200160405180910390a150565b6006546001600160a01b0316331462000c6b5760405162461bcd60e51b8152602060048201819052602482015260008051602062006a3c8339815191526044820152606401620002a1565b6001600160a01b03811662000cd25760405162461bcd60e51b815260206004820152602660248201527f4f776e61626c653a206e6577206f776e657220697320746865207a65726f206160448201526564647265737360d01b6064820152608401620002a1565b6006546040516001600160a01b0380841692169060008051602062006a5c83398151915290600090a3600680546001600160a01b0319166001600160a01b0392909216919091179055565b6000620004678284620011a6565b82805462000d3990620011c1565b90600052602060002090601f01602090048101928262000d5d576000855562000da8565b82601f1062000d7857805160ff191683800117855562000da8565b8280016001018555821562000da8579182015b8281111562000da857825182559160200191906001019062000d8b565b5062000db692915062000dba565b5090565b5b8082111562000db6576000815560010162000dbb565b634e487b7160e01b600052604160045260246000fd5b604051601f8201601f191681016001600160401b038111828210171562000e125762000e1262000dd1565b604052919050565b80516001600160a01b038116811462000e3257600080fd5b919050565b60006060828403121562000e4a57600080fd5b604051606081016001600160401b038111828210171562000e6f5762000e6f62000dd1565b80604052508091508251815260208301516020820152604083015160408201525092915050565b60008060008060008060008060008060006101e08c8e03121562000eb957600080fd5b8b516001600160401b038082111562000ed157600080fd5b818e0191508e601f83011262000ee657600080fd5b81518181111562000efb5762000efb62000dd1565b62000f10601f8201601f191660200162000de7565b91508082528f602082850101111562000f2857600080fd5b60005b8181101562000f495760208185018101518483018201520162000f2b565b8181111562000f5c576000602083850101525b5050809c50505062000f7160208d0162000e1a565b995062000f8160408d0162000e1a565b985062000f9160608d0162000e1a565b975062000fa160808d0162000e1a565b965062000fb160a08d0162000e1a565b955062000fc160c08d0162000e1a565b945062000fd160e08d0162000e1a565b935062000fe26101008d0162000e1a565b925062000ff48d6101208e0162000e37565b9150620010068d6101808e0162000e37565b90509295989b509295989b9093969950565b634e487b7160e01b600052601160045260246000fd5b60008160001904831182151516156200104b576200104b62001018565b500290565b6000826200106e57634e487b7160e01b600052601260045260246000fd5b500490565b634e487b7160e01b600052603260045260246000fd5b6020808252825182820181905260009190848201906040850190845b81811015620010cc5783516001600160a01b031683529284019291840191600101620010a5565b50909695505050505050565b60006020808385031215620010ec57600080fd5b82516001600160401b03808211156200110457600080fd5b818501915085601f8301126200111957600080fd5b8151818111156200112e576200112e62000dd1565b8060051b91506200114184830162000de7565b81815291830184019184810190888411156200115c57600080fd5b938501935b838510156200117c5784518252938501939085019062001161565b98975050505050505050565b6000602082840312156200119b57600080fd5b620004678262000e1a565b60008219821115620011bc57620011bc62001018565b500190565b600181811c90821680620011d657607f821691505b602082108103620011f757634e487b7160e01b600052602260045260246000fd5b50919050565b61582f806200120d6000396000f3fe6080604052600436106103645760003560e01c80638b73e606116101c6578063c89039c5116100f7578063dd8ce4d611610095578063ed24911d1161006f578063ed24911d14610a93578063f2fde38b14610aa8578063f7c618c114610ac8578063fdb5a03e14610ae857600080fd5b8063dd8ce4d614610a33578063e21ac82514610a53578063eab89a5a14610a7357600080fd5b8063d6ec2a49116100d1578063d6ec2a4914610998578063da09c72c146109b8578063db8dd95c146109d8578063dd62ed3e146109ed57600080fd5b8063c89039c514610938578063cff1b6ef14610958578063d505accf1461097857600080fd5b8063a9059cbb11610164578063b6b55f251161013e578063b6b55f25146108d8578063b9e57b80146108f8578063bd079f551461090d578063c4b24a461461092357600080fd5b8063a9059cbb1461087e578063ac0d31ff1461089e578063b52a321f146108be57600080fd5b806395d89b41116101a057806395d89b41146107f557806399729ec11461080a5780639e4e73181461082a578063a8ae2b7c1461085e57600080fd5b80638b73e606146107835780638da5cb5b146107a35780639291d563146107d557600080fd5b80634a970be7116102a0578063789139bc1161023e5780637ecebe00116102185780637ecebe0014610700578063818372301461072d5780638980f11f1461074d5780638aff733d1461076d57600080fd5b8063789139bc146106b55780637ae26773146106cb5780637d882097146106eb57600080fd5b80634ebb79161161027a5780634ebb7916146106345780635ea682ea1461065457806370a082311461066a578063715018a6146106a057600080fd5b80634a970be7146105d45780634bebd1e7146105f45780634e77ace51461061457600080fd5b806323b872dd1161030d57806330adf81f116102e757806330adf81f14610533578063313ce567146105675780633bdc6e721461058e578063483c2ef0146105a457600080fd5b806323b872dd146104d35780632e1a7d4d146104f35780632f4f21e21461051357600080fd5b80630f23475d1161033e5780630f23475d1461047457806318160ddd1461048957806320606b701461049f57600080fd5b806306fdde03146103f55780630767711114610420578063095ea7b31461044457600080fd5b366103f0576012546001600160a01b031633146103ee5760405162461bcd60e51b815260206004820152602560248201527f42656e7169537472617465677956333a3a7061796d656e7473206e6f7420616c60448201527f6c6f77656400000000000000000000000000000000000000000000000000000060648201526084015b60405180910390fd5b005b600080fd5b34801561040157600080fd5b5061040a610afd565b6040516104179190615155565b60405180910390f35b34801561042c57600080fd5b50610436600f5481565b604051908152602001610417565b34801561045057600080fd5b5061046461045f366004615184565b610b8b565b6040519015158152602001610417565b34801561048057600080fd5b50610436610ba1565b34801561049557600080fd5b5061043660025481565b3480156104ab57600080fd5b506104367f8b73c3c69bb8fe3d512ecc4cf759cc79239f7b179b0ffacaa9a75d522b39400f81565b3480156104df57600080fd5b506104646104ee3660046151ae565b610bb0565b3480156104ff57600080fd5b506103ee61050e3660046151ea565b610c94565b34801561051f57600080fd5b506103ee61052e366004615184565b610d69565b34801561053f57600080fd5b506104367f6e71edae12b1b97f4d1f60370fef10105fa2faae0126114a169c64845d6126c981565b34801561057357600080fd5b5061057c601281565b60405160ff9091168152602001610417565b34801561059a57600080fd5b5061043660075481565b3480156105b057600080fd5b506104646105bf366004615203565b60086020526000908152604090205460ff1681565b3480156105e057600080fd5b506103ee6105ef36600461522f565b610d77565b34801561060057600080fd5b506103ee61060f366004615203565b610e29565b34801561062057600080fd5b506103ee61062f366004615284565b610f46565b34801561064057600080fd5b506103ee61064f3660046151ea565b610fed565b34801561066057600080fd5b5061043660115481565b34801561067657600080fd5b50610436610685366004615203565b6001600160a01b031660009081526004602052604090205490565b3480156106ac57600080fd5b506103ee6110a7565b3480156106c157600080fd5b50610436600d5481565b3480156106d757600080fd5b506103ee6106e63660046152a1565b611146565b3480156106f757600080fd5b5061043661120a565b34801561070c57600080fd5b5061043661071b366004615203565b60056020526000908152604090205481565b34801561073957600080fd5b506103ee6107483660046151ea565b6112b0565b34801561075957600080fd5b506103ee610768366004615184565b611339565b34801561077957600080fd5b5061043660105481565b34801561078f57600080fd5b506103ee61079e366004615203565b61144e565b3480156107af57600080fd5b506006546001600160a01b03165b6040516001600160a01b039091168152602001610417565b3480156107e157600080fd5b506103ee6107f0366004615203565b611609565b34801561080157600080fd5b5061040a6116d9565b34801561081657600080fd5b506103ee6108253660046151ea565b6116e6565b34801561083657600080fd5b506104367fc89efdaa54c0f20c7adf612882df0950f5a951637e0307cdcb4c672f298b8bc681565b34801561086a57600080fd5b506103ee6108793660046151ea565b611792565b34801561088a57600080fd5b50610464610899366004615184565b61183e565b3480156108aa57600080fd5b506103ee6108b93660046152d4565b61184b565b3480156108ca57600080fd5b50600e546104649060ff1681565b3480156108e457600080fd5b506103ee6108f33660046151ea565b611c26565b34801561090457600080fd5b50610436611c33565b34801561091957600080fd5b50610436600c5481565b34801561092f57600080fd5b50610436611c72565b34801561094457600080fd5b506009546107bd906001600160a01b031681565b34801561096457600080fd5b506103ee6109733660046151ea565b611cf1565b34801561098457600080fd5b506103ee610993366004615304565b611d85565b3480156109a457600080fd5b506103ee6109b336600461536e565b611e98565b3480156109c457600080fd5b50600b546107bd906001600160a01b031681565b3480156109e457600080fd5b5061043661201e565b3480156109f957600080fd5b50610436610a083660046152a1565b6001600160a01b03918216600090815260036020908152604080832093909416825291909152205490565b348015610a3f57600080fd5b50610436610a4e3660046151ea565b6120de565b348015610a5f57600080fd5b506103ee610a6e3660046151ea565b61211e565b348015610a7f57600080fd5b50610436610a8e3660046151ea565b6121a7565b348015610a9f57600080fd5b506104366121db565b348015610ab457600080fd5b506103ee610ac3366004615203565b61227b565b348015610ad457600080fd5b50600a546107bd906001600160a01b031681565b348015610af457600080fd5b506103ee6123a8565b60008054610b0a9061539a565b80601f0160208091040260200160405190810160405280929190818152602001828054610b369061539a565b8015610b835780601f10610b5857610100808354040283529160200191610b83565b820191906000526020600020905b815481529060010190602001808311610b6657829003601f168201915b505050505081565b6000610b98338484612427565b50600192915050565b6000610bab61120a565b905090565b6001600160a01b038316600081815260036020908152604080832033808552925282205491929091908214801590610bea57506000198114155b15610c7b576000610c16856040518060600160405280602f8152602001615776602f9139849190612535565b6001600160a01b038881166000818152600360209081526040808320948916808452948252918290208590559051848152939450919290917f8c5be1e5ebec7d5bd14f71427d1e84f3dd0314c0f7b2291e5b200ac8c7c3b925910160405180910390a3505b610c86868686612561565b6001925050505b9392505050565b6000610cb4600254610cae84610ca861269d565b90612403565b9061240f565b905060008111610d065760405162461bcd60e51b815260206004820152601960248201527f42656e7169537472617465677956333a3a77697468647261770000000000000060448201526064016103e5565b610d103383612797565b610d198161286d565b600954610d30906001600160a01b0316338361293c565b60405181815233907f884edad9ce6fa2440d8a54cc123490eb96d2768479d49ff9c7366125a94243649060200160405180910390a25050565b610d738282612a26565b5050565b6009546040517fd505accf000000000000000000000000000000000000000000000000000000008152336004820152306024820152604481018790526064810186905260ff8516608482015260a4810184905260c481018390526001600160a01b039091169063d505accf9060e401600060405180830381600087803b158015610e0057600080fd5b505af1158015610e14573d6000803e3d6000fd5b50505050610e223386612a26565b5050505050565b6006546001600160a01b03163314610e715760405162461bcd60e51b8152602060048201819052602482015260008051602061575683398151915260448201526064016103e5565b6001600160a01b03811660009081526008602052604090205460ff1615610eda5760405162461bcd60e51b815260206004820152601c60248201527f5065726d697373696f6e65643a3a616c6c6f774465706f7369746f720000000060448201526064016103e5565b6001600160a01b0381166000908152600860205260409020805460ff19166001908117909155600754610f0c9161241b565b6007556040516001600160a01b038216907fc0a1035c16faf8d1304056d92c00edf028f87e62b8235a938f00af9e3c0312c590600090a250565b6006546001600160a01b03163314610f8e5760405162461bcd60e51b8152602060048201819052602482015260008051602061575683398151915260448201526064016103e5565b600e5481151560ff909116151503610fa557600080fd5b600e805460ff19168215159081179091556040519081527f7b014ed3854e7f5cb0218d58b3c6ae7d53a68bb0af2f67bfb029ea42c38a7e85906020015b60405180910390a150565b6006546001600160a01b031633146110355760405162461bcd60e51b8152602060048201819052602482015260008051602061575683398151915260448201526064016103e5565b6000811161104257600080fd5b604051339082156108fc029083906000818181858888f1935050505015801561106f573d6000803e3d6000fd5b506040805160008152602081018390527f8c1256b8896378cd5044f80c202f9772b9d77dc85c8a6eb51967210b09bfaa289101610fe2565b6006546001600160a01b031633146110ef5760405162461bcd60e51b8152602060048201819052602482015260008051602061575683398151915260448201526064016103e5565b6006546040516000916001600160a01b0316907f8be0079c531659141344cd1fd0a4f28419497f9722a3daafe3b4186f6b6457e0908390a36006805473ffffffffffffffffffffffffffffffffffffffff19169055565b6006546001600160a01b0316331461118e5760405162461bcd60e51b8152602060048201819052602482015260008051602061575683398151915260448201526064016103e5565b60405163095ea7b360e01b81526001600160a01b0382811660048301526000602483015283169063095ea7b3906044016020604051808303816000875af11580156111dd573d6000803e3d6000fd5b505050506040513d601f19601f8201168201806040525081019061120191906153d4565b610d7357600080fd5b6013546040516361bfb47160e11b81523060048201526000918291829182916001600160a01b039091169063c37f68e290602401608060405180830381865afa15801561125b573d6000803e3d6000fd5b505050506040513d601f19601f8201168201806040525081019061127f91906153f1565b919550935091506112a89050826112a2670de0b6b3a7640000610cae8786612403565b90612cbb565b935050505090565b6006546001600160a01b031633146112f85760405162461bcd60e51b8152602060048201819052602482015260008051602061575683398151915260448201526064016103e5565b600c5460408051918252602082018390527f481f79ac3a523b6d6db3c5a720e190e986d1cc1b41adcdf50f9caef849901100910160405180910390a1600c55565b6006546001600160a01b031633146113815760405162461bcd60e51b8152602060048201819052602482015260008051602061575683398151915260448201526064016103e5565b6000811161138e57600080fd5b60405163a9059cbb60e01b8152336004820152602481018290526001600160a01b0383169063a9059cbb906044016020604051808303816000875af11580156113db573d6000803e3d6000fd5b505050506040513d601f19601f820116820180604052508101906113ff91906153d4565b61140857600080fd5b604080516001600160a01b0384168152602081018390527f8c1256b8896378cd5044f80c202f9772b9d77dc85c8a6eb51967210b09bfaa28910160405180910390a15050565b6006546001600160a01b031633146114965760405162461bcd60e51b8152602060048201819052602482015260008051602061575683398151915260448201526064016103e5565b60006007541161150e5760405162461bcd60e51b815260206004820152603460248201527f5065726d697373696f6e65643a3a72656d6f76654465706f7369746f722c206e60448201527f6f20616c6c6f776564206465706f7369746f727300000000000000000000000060648201526084016103e5565b6001600160a01b03811660009081526008602052604090205460ff1615156001146115a15760405162461bcd60e51b815260206004820152602a60248201527f5065726d697373696f6e65643a3a72656d6f76654465706f7369746f722c206e60448201527f6f7420616c6c6f7765640000000000000000000000000000000000000000000060648201526084016103e5565b6001600160a01b0381166000908152600860205260409020805460ff191690556007546115cf906001612cbb565b6007556040516001600160a01b038216907f0e86f6608b536e5339a25b65ff531f5ea91e1313d056ecd4752b35cbd16137d490600090a250565b600b546001600160a01b031633146116635760405162461bcd60e51b815260206004820152601460248201527f59616b53747261746567793a3a6f6e6c7944657600000000000000000000000060448201526064016103e5565b600b54604080516001600160a01b03928316815291831660208301527fa8e91499ed37682f43cffb045fcc7d379a91e8c9a14e6321877ee34dee564c00910160405180910390a1600b805473ffffffffffffffffffffffffffffffffffffffff19166001600160a01b0392909216919091179055565b60018054610b0a9061539a565b6006546001600160a01b0316331461172e5760405162461bcd60e51b8152602060048201819052602482015260008051602061575683398151915260448201526064016103e5565b6127106117466010548361241b90919063ffffffff16565b111561175157600080fd5b60115460408051918252602082018390527f2a42303d002f0ba6cfe8259c91d4684443fb0b3de286ba74991175d651726131910160405180910390a1601155565b6006546001600160a01b031633146117da5760405162461bcd60e51b8152602060048201819052602482015260008051602061575683398151915260448201526064016103e5565b6127106117f26011548361241b90919063ffffffff16565b11156117fd57600080fd5b60105460408051918252602082018390527fe7f97d51d307dc44045597c9978bec0f842e6bb40d19b9444084cfa30d9ed4f2910160405180910390a1601055565b6000610b98338484612561565b6006546001600160a01b031633146118935760405162461bcd60e51b8152602060048201819052602482015260008051602061575683398151915260448201526064016103e5565b6009546040516370a0823160e01b81523060048201526000916001600160a01b0316906370a0823190602401602060405180830381865afa1580156118dc573d6000803e3d6000fd5b505050506040513d601f19601f820116820180604052508101906119009190615427565b6013546040516305eff7ef60e21b81523060048201529192506000916001600160a01b03909116906317bfdfbc906024016020604051808303816000875af1158015611950573d6000803e3d6000fd5b505050506040513d601f19601f820116820180604052508101906119749190615427565b601354604051633af9e66960e01b81523060048201529192506000916001600160a01b0390911690633af9e669906024016020604051808303816000875af11580156119c4573d6000803e3d6000fd5b505050506040513d601f19601f820116820180604052508101906119e89190615427565b90506119fc6119f78284612cbb565b612cc7565b601354604051633af9e66960e01b81523060048201526001600160a01b039091169063852a12e3908290633af9e669906024016020604051808303816000875af1158015611a4e573d6000803e3d6000fd5b505050506040513d601f19601f82011682018060405250810190611a729190615427565b6040518263ffffffff1660e01b8152600401611a9091815260200190565b6020604051808303816000875af1158015611aaf573d6000803e3d6000fd5b505050506040513d601f19601f82011682018060405250810190611ad39190615427565b506009546040516370a0823160e01b81523060048201526000916001600160a01b0316906370a0823190602401602060405180830381865afa158015611b1d573d6000803e3d6000fd5b505050506040513d601f19601f82011682018060405250810190611b419190615427565b905085611b4e8286612cbb565b1015611bc15760405162461bcd60e51b8152602060048201526024808201527f42656e7169537472617465677956333a3a7265736375654465706c6f7965644660448201527f756e64730000000000000000000000000000000000000000000000000000000060648201526084016103e5565b7fc7606d21ac05cd309191543e409f0845c016120563783d70e4f41419dc0ef234611bea61120a565b6002546040805192835260208301919091520160405180910390a1600e5460ff161515600103611c1e57611c1e6000610f46565b505050505050565b611c303382612a26565b50565b600080611c3e611c72565b9050600c548110611c6a57611c64612710610cae6010548461240390919063ffffffff16565b91505090565b600091505090565b6012546013546000918291611c95916001600160a01b03908116911683306131d6565b601254601354919250600091611cba916001600160a01b0390811691166001306131d6565b601454601554601654929350600092611ce59286926001600160a01b039182169290821691166132a0565b90506112a8828261241b565b6006546001600160a01b03163314611d395760405162461bcd60e51b8152602060048201819052602482015260008051602061575683398151915260448201526064016103e5565b8015611d4457600080fd5b600f5460408051918252602082018390527f3cc372f330f95ac9540626dc8a25f5bf21ba607215a5d58304cb804d446f104a910160405180910390a1600f55565b42841015611dd55760405162461bcd60e51b815260206004820152600f60248201527f7065726d69743a3a65787069726564000000000000000000000000000000000060448201526064016103e5565b6001600160a01b038716600090815260056020526040812080547f6e71edae12b1b97f4d1f60370fef10105fa2faae0126114a169c64845d6126c9918a918a918a919086611e2283615456565b909155506040805160208101969096526001600160a01b0394851690860152929091166060840152608083015260a082015260c0810186905260e001604051602081830303815290604052805190602001209050611e83888286868661336c565b611e8e888888612427565b5050505050505050565b600b546001600160a01b03163314611ef25760405162461bcd60e51b815260206004820152601460248201527f59616b53747261746567793a3a6f6e6c7944657600000000000000000000000060448201526064016103e5565b611f06838383601892909255601955601b55565b6013546040516305eff7ef60e21b81523060048201526000916001600160a01b0316906317bfdfbc906024016020604051808303816000875af1158015611f51573d6000803e3d6000fd5b505050506040513d601f19601f82011682018060405250810190611f759190615427565b601354604051633af9e66960e01b81523060048201529192506000916001600160a01b0390911690633af9e669906024016020604051808303816000875af1158015611fc5573d6000803e3d6000fd5b505050506040513d601f19601f82011682018060405250810190611fe99190615427565b9050611ff86119f78284612cbb565b60006120048284612cbb565b1115610e2257610e226120178284612cbb565b60006134cc565b6013546040516361bfb47160e11b81523060048201526000918291829182916001600160a01b039091169063c37f68e290602401608060405180830381865afa15801561206f573d6000803e3d6000fd5b505050506040513d601f19601f8201168201806040525081019061209391906153f1565b91955093509150600090506120b4670de0b6b3a7640000610cae8685612403565b90506120d56120c38285612cbb565b610cae83670de0b6b3a7640000612403565b94505050505090565b60006120f46120eb61120a565b60025490612403565b6000036120ff575090565b61211861210a61120a565b600254610cae908590612403565b92915050565b6006546001600160a01b031633146121665760405162461bcd60e51b8152602060048201819052602482015260008051602061575683398151915260448201526064016103e5565b600d5460408051918252602082018390527fa5dae50539d56dfe1fb5273d883b0c39bc76750a25d036fc5fbd09ad8fd5f57f910160405180910390a1600d55565b60006121b46120eb61120a565b6000036121c357506000919050565b612118600254610cae6121d461120a565b8590612403565b60007f8b73c3c69bb8fe3d512ecc4cf759cc79239f7b179b0ffacaa9a75d522b39400f60001b6000604051612210919061546f565b6040519081900390207fc89efdaa54c0f20c7adf612882df0950f5a951637e0307cdcb4c672f298b8bc646604080516020810195909552840192909252606083015260808201523060a082015260c00160405160208183030381529060405280519060200120905090565b6006546001600160a01b031633146122c35760405162461bcd60e51b8152602060048201819052602482015260008051602061575683398151915260448201526064016103e5565b6001600160a01b03811661233f5760405162461bcd60e51b815260206004820152602660248201527f4f776e61626c653a206e6577206f776e657220697320746865207a65726f206160448201527f646472657373000000000000000000000000000000000000000000000000000060648201526084016103e5565b6006546040516001600160a01b038084169216907f8be0079c531659141344cd1fd0a4f28419497f9722a3daafe3b4186f6b6457e090600090a36006805473ffffffffffffffffffffffffffffffffffffffff19166001600160a01b0392909216919091179055565b3233146123f75760405162461bcd60e51b815260206004820152601460248201527f59616b53747261746567793a3a6f6e6c79454f4100000000000000000000000060448201526064016103e5565b6124016000613800565b565b6000610c8d828461550a565b6000610c8d8284615529565b6000610c8d828461554b565b6001600160a01b03831661247d5760405162461bcd60e51b815260206004820152601c60248201527f5f617070726f76653a3a6f776e6572207a65726f20616464726573730000000060448201526064016103e5565b6001600160a01b0382166124d35760405162461bcd60e51b815260206004820152601e60248201527f5f617070726f76653a3a7370656e646572207a65726f2061646472657373000060448201526064016103e5565b6001600160a01b0383811660008181526003602090815260408083209487168084529482529182902085905590518481527f8c5be1e5ebec7d5bd14f71427d1e84f3dd0314c0f7b2291e5b200ac8c7c3b92591015b60405180910390a3505050565b600081848411156125595760405162461bcd60e51b81526004016103e59190615155565b505050900390565b6001600160a01b0382166125dd5760405162461bcd60e51b815260206004820152603460248201527f5f7472616e73666572546f6b656e733a2063616e6e6f74207472616e7366657260448201527f20746f20746865207a65726f206164647265737300000000000000000000000060648201526084016103e5565b61261a816040518060600160405280602e81526020016157cc602e91396001600160a01b0386166000908152600460205260409020549190612535565b6001600160a01b038085166000908152600460205260408082209390935590841681522054612649908261241b565b6001600160a01b0380841660008181526004602052604090819020939093559151908516907fddf252ad1be2c89b69c2b068fc378daa952ba7f163c4a11628f55a4df523b3ef906125289085815260200190565b6013546040516305eff7ef60e21b815230600482015260009182916001600160a01b03909116906317bfdfbc906024016020604051808303816000875af11580156126ec573d6000803e3d6000fd5b505050506040513d601f19601f820116820180604052508101906127109190615427565b601354604051633af9e66960e01b81523060048201529192506000916001600160a01b0390911690633af9e669906024016020604051808303816000875af1158015612760573d6000803e3d6000fd5b505050506040513d601f19601f820116820180604052508101906127849190615427565b90506127908183612cbb565b9250505090565b6127d4816040518060600160405280602781526020016157a5602791396001600160a01b0385166000908152600460205260409020549190612535565b60046000846001600160a01b03166001600160a01b03168152602001908152602001600020819055506128248160405180606001604052806027815260200161572f602791396002549190612535565b6002556040518181526000906001600160a01b038416907fddf252ad1be2c89b69c2b068fc378daa952ba7f163c4a11628f55a4df523b3ef906020015b60405180910390a35050565b61287681612cc7565b60135460405163852a12e360e01b8152600481018390526001600160a01b039091169063852a12e3906024016020604051808303816000875af11580156128c1573d6000803e3d6000fd5b505050506040513d601f19601f820116820180604052508101906128e59190615427565b15611c305760405162461bcd60e51b815260206004820152602160248201527f42656e7169537472617465677956333a3a6661696c656420746f2072656465656044820152606d60f81b60648201526084016103e5565b60405163a9059cbb60e01b81526001600160a01b0383811660048301526024820183905284169063a9059cbb906044016020604051808303816000875af115801561298b573d6000803e3d6000fd5b505050506040513d601f19601f820116820180604052508101906129af91906153d4565b612a215760405162461bcd60e51b815260206004820152602560248201527f42656e7169537472617465677956333a3a5452414e534645525f46524f4d5f4660448201527f41494c454400000000000000000000000000000000000000000000000000000060648201526084016103e5565b505050565b60075415612ab8573360009081526008602052604090205460ff161515600114612ab85760405162461bcd60e51b815260206004820152602e60248201527f5065726d697373696f6e65643a3a6f6e6c79416c6c6f7765644465706f73697460448201527f732c206e6f7420616c6c6f77656400000000000000000000000000000000000060648201526084016103e5565b600e5460ff161515600114612b0f5760405162461bcd60e51b815260206004820152601960248201527f42656e7169537472617465677956333a3a5f6465706f7369740000000000000060448201526064016103e5565b600d5415612b39576000612b21611c72565b9050600d54811115612b3757612b376001613800565b505b6009546040517f23b872dd000000000000000000000000000000000000000000000000000000008152336004820152306024820152604481018390526001600160a01b03909116906323b872dd906064016020604051808303816000875af1158015612ba9573d6000803e3d6000fd5b505050506040513d601f19601f82011682018060405250810190612bcd91906153d4565b612c195760405162461bcd60e51b815260206004820181905260248201527f42656e7169537472617465677956333a3a7472616e73666572206661696c656460448201526064016103e5565b806000612c2461269d565b90506000612c3d8260025461240390919063ffffffff16565b1115612c5f57612c5c81610cae6002548661240390919063ffffffff16565b91505b612c698483613bfa565b612c7283613c7e565b836001600160a01b03167fe1fffcc4923d04b559f4d29a8bfc6cda04eb5b0d3c460751c2402c5c5cc9109c84604051612cad91815260200190565b60405180910390a250505050565b6000610c8d8284615563565b6013546040516305eff7ef60e21b81523060048201526000916001600160a01b0316906317bfdfbc906024016020604051808303816000875af1158015612d12573d6000803e3d6000fd5b505050506040513d601f19601f82011682018060405250810190612d369190615427565b601354604051633af9e66960e01b81523060048201529192506000916001600160a01b0390911690633af9e669906024016020604051808303816000875af1158015612d86573d6000803e3d6000fd5b505050506040513d601f19601f82011682018060405250810190612daa9190615427565b90506000612de2612dbf856112a28587612cbb565b6112a2601954610cae601854610ca88a6112a28b8b612cbb90919063ffffffff16565b90506000612df08483612cbb565b9050600080612dfd613f92565b60095460135460405163095ea7b360e01b81526001600160a01b039182166004820152602481018b9052939550919350169063095ea7b3906044016020604051808303816000875af1158015612e57573d6000803e3d6000fd5b505050506040513d601f19601f82011682018060405250810190612e7b91906153d4565b505b821561315d576000612e9186888585614033565b905083811115612e9e5750825b60135460405163852a12e360e01b8152600481018390526001600160a01b039091169063852a12e3906024016020604051808303816000875af1158015612ee9573d6000803e3d6000fd5b505050506040513d601f19601f82011682018060405250810190612f0d9190615427565b15612f645760405162461bcd60e51b815260206004820152602160248201527f42656e7169537472617465677956333a3a6661696c656420746f2072656465656044820152606d60f81b60648201526084016103e5565b6013546040517f0e752702000000000000000000000000000000000000000000000000000000008152600481018390526001600160a01b0390911690630e752702906024016020604051808303816000875af1158015612fc8573d6000803e3d6000fd5b505050506040513d601f19601f82011682018060405250810190612fec9190615427565b1561305f5760405162461bcd60e51b815260206004820152602760248201527f42656e7169537472617465677956333a3a6661696c656420746f20726570617960448201527f20626f72726f770000000000000000000000000000000000000000000000000060648201526084016103e5565b601354604051633af9e66960e01b81523060048201526001600160a01b0390911690633af9e669906024016020604051808303816000875af11580156130a9573d6000803e3d6000fd5b505050506040513d601f19601f820116820180604052508101906130cd9190615427565b6013546040516305eff7ef60e21b81523060048201529197506001600160a01b0316906317bfdfbc906024016020604051808303816000875af1158015613118573d6000803e3d6000fd5b505050506040513d601f19601f8201168201806040525081019061313c9190615427565b965086851061314b575061315d565b6131558786612cbb565b935050612e7d565b60095460135460405163095ea7b360e01b81526001600160a01b0391821660048201526000602482015291169063095ea7b3906044016020604051808303816000875af11580156131b2573d6000803e3d6000fd5b505050506040513d601f19601f82011682018060405250810190611e8e91906153d4565b6040517f05b9783d00000000000000000000000000000000000000000000000000000000815260ff831660048201526001600160a01b03828116602483015260009182918716906305b9783d90604401602060405180830381865afa158015613243573d6000803e3d6000fd5b505050506040513d601f19601f820116820180604052508101906132679190615427565b90506132946132788787878761406b565b61328e6132878989898961427b565b849061241b565b9061241b565b9150505b949350505050565b6000806132ad858561440f565b509050600080846001600160a01b0316630902f1ac6040518163ffffffff1660e01b8152600401606060405180830381865afa1580156132f1573d6000803e3d6000fd5b505050506040513d601f19601f8201168201806040525081019061331591906155ac565b5091509150866001600160a01b0316836001600160a01b03161461333557905b61336088836dffffffffffffffffffffffffffff16836dffffffffffffffffffffffffffff16614440565b98975050505050505050565b60006133766121db565b6040517f1901000000000000000000000000000000000000000000000000000000000000602082015260228101919091526042810186905260620160408051601f198184030181528282528051602091820120600080855291840180845281905260ff88169284019290925260608301869052608083018590529092509060019060a0016020604051602081039080840390855afa15801561341c573d6000803e3d6000fd5b5050604051601f1901519150506001600160a01b038116158015906134525750866001600160a01b0316816001600160a01b0316145b6134c35760405162461bcd60e51b8152602060048201526024808201527f417263683a3a76616c69646174655369673a20696e76616c6964207369676e6160448201527f747572650000000000000000000000000000000000000000000000000000000060648201526084016103e5565b50505050505050565b6000806134d7613f92565b9150915060008490506000613501601954610cae601854610ca8898b612cbb90919063ffffffff16565b60095460135460405163095ea7b360e01b81526001600160a01b03918216600482015260248101849052929350879291169063095ea7b3906044016020604051808303816000875af115801561355b573d6000803e3d6000fd5b505050506040513d601f19601f8201168201806040525081019061357f91906153d4565b505b8183101561315d57600061359784838888614488565b9050826135a4858361241b565b11156135b7576135b48385612cbb565b90505b601a548110156135c7575061315d565b6013546040517fc5ebeaec000000000000000000000000000000000000000000000000000000008152600481018390526001600160a01b039091169063c5ebeaec906024016020604051808303816000875af115801561362b573d6000803e3d6000fd5b505050506040513d601f19601f8201168201806040525081019061364f9190615427565b156136c25760405162461bcd60e51b815260206004820152602160248201527f42656e7169537472617465677956333a3a626f72726f77696e67206661696c6560448201527f640000000000000000000000000000000000000000000000000000000000000060648201526084016103e5565b60135460405163140e25ad60e31b8152600481018390526001600160a01b039091169063a0712d68906024016020604051808303816000875af115801561370d573d6000803e3d6000fd5b505050506040513d601f19601f820116820180604052508101906137319190615427565b1561377e5760405162461bcd60e51b815260206004820152601f60248201527f42656e7169537472617465677956333a3a6c656e64696e67206661696c65640060448201526064016103e5565b601354604051633af9e66960e01b81523060048201526001600160a01b0390911690633af9e669906024016020604051808303816000875af11580156137c8573d6000803e3d6000fd5b505050506040513d601f19601f820116820180604052508101906137ec9190615427565b93506137f8828261241b565b915050613581565b60408051600180825281830190925260009160208083019080368337505060135482519293506001600160a01b031691839150600090613842576138426155ef565b6001600160a01b039283166020918202929092010152601254604051633a22995760e11b815291169063744532ae906138849060009030908690600401615649565b600060405180830381600087803b15801561389e57600080fd5b505af11580156138b2573d6000803e3d6000fd5b5050601254604051633a22995760e11b81526001600160a01b03909116925063744532ae91506138eb9060019030908690600401615649565b600060405180830381600087803b15801561390557600080fd5b505af1158015613919573d6000803e3d6000fd5b50479250508115905061398f5773b31f66aa3c1e785363f0875a1b74e27b85fd66c76001600160a01b031663d0e30db0826040518263ffffffff1660e01b81526004016000604051808303818588803b15801561397557600080fd5b505af1158015613989573d6000803e3d6000fd5b50505050505b6014546040516370a0823160e01b81523060048201526000916001600160a01b0316906370a0823190602401602060405180830381865afa1580156139d8573d6000803e3d6000fd5b505050506040513d601f19601f820116820180604052508101906139fc9190615427565b90508015613a2b57601454601554601654613a299284926001600160a01b0391821692908216911661449c565b505b600a546040516370a0823160e01b81523060048201526000916001600160a01b0316906370a0823190602401602060405180830381865afa158015613a74573d6000803e3d6000fd5b505050506040513d601f19601f82011682018060405250810190613a989190615427565b905084613af157600c54811015613af15760405162461bcd60e51b815260206004820152601960248201527f42656e7169537472617465677956333a3a7265696e766573740000000000000060448201526064016103e5565b6000613b0e612710610cae6011548561240390919063ffffffff16565b90508015613b3357600a54600b54613b33916001600160a01b0390811691168361293c565b6000613b50612710610cae6010548661240390919063ffffffff16565b90508015613b6f57600a54613b6f906001600160a01b0316338361293c565b6000613ba1613b82836112a28787612cbb565b600a546009546017546001600160a01b0392831692918216911661449c565b9050613bac81613c7e565b7fc7606d21ac05cd309191543e409f0845c016120563783d70e4f41419dc0ef234613bd561120a565b6002546040805192835260208301919091520160405180910390a15050505050505050565b600254613c07908261241b565b6002556001600160a01b038216600090815260046020526040902054613c2d908261241b565b6001600160a01b0383166000818152600460205260408082209390935591519091907fddf252ad1be2c89b69c2b068fc378daa952ba7f163c4a11628f55a4df523b3ef906128619085815260200190565b60008111613cf35760405162461bcd60e51b8152602060048201526024808201527f42656e7169537472617465677956333a3a5f7374616b654465706f736974546f60448201527f6b656e730000000000000000000000000000000000000000000000000000000060648201526084016103e5565b60095460135460405163095ea7b360e01b81526001600160a01b0391821660048201526024810184905291169063095ea7b3906044016020604051808303816000875af1158015613d48573d6000803e3d6000fd5b505050506040513d601f19601f82011682018060405250810190613d6c91906153d4565b5060135460405163140e25ad60e31b8152600481018390526001600160a01b039091169063a0712d68906024016020604051808303816000875af1158015613db8573d6000803e3d6000fd5b505050506040513d601f19601f82011682018060405250810190613ddc9190615427565b15613e295760405162461bcd60e51b815260206004820152601f60248201527f42656e7169537472617465677956333a3a4465706f736974206661696c65640060448201526064016103e5565b60095460135460405163095ea7b360e01b81526001600160a01b0391821660048201526000602482015291169063095ea7b3906044016020604051808303816000875af1158015613e7e573d6000803e3d6000fd5b505050506040513d601f19601f82011682018060405250810190613ea291906153d4565b506013546040516305eff7ef60e21b81523060048201526000916001600160a01b0316906317bfdfbc906024016020604051808303816000875af1158015613eee573d6000803e3d6000fd5b505050506040513d601f19601f82011682018060405250810190613f129190615427565b601354604051633af9e66960e01b81523060048201529192506000916001600160a01b0390911690633af9e669906024016020604051808303816000875af1158015613f62573d6000803e3d6000fd5b505050506040513d601f19601f82011682018060405250810190613f869190615427565b9050612a2181836134cc565b6012546013546040517f8e8f294b0000000000000000000000000000000000000000000000000000000081526001600160a01b03918216600482015260009283928392911690638e8f294b906024016040805180830381865afa158015613ffd573d6000803e3d6000fd5b505050506040513d601f19601f820116820180604052508101906140219190615674565b94670de0b6b3a7640000945092505050565b6000614062601954610cae601b54610ca861405b88610cae898c61240390919063ffffffff16565b8a90612cbb565b95945050505050565b6040805160208101918290527f7937969d0000000000000000000000000000000000000000000000000000000090915260ff831660248201526001600160a01b0384811660448301528281166064830152600091829181908816637937969d60848301602060405180830381865afa1580156140eb573d6000803e3d6000fd5b505050506040513d601f19601f8201168201806040525081019061410f9190615427565b9052805160009350909150156142725760006040518060200160405280876001600160a01b031663aa5af0fd6040518163ffffffff1660e01b8152600401602060405180830381865afa15801561416a573d6000803e3d6000fd5b505050506040513d601f19601f8201168201806040525081019061418e9190615427565b8152509050600060405180602001604052806141ac8a8a8a87614634565b6001600160e01b0316905280519091501561426f5760006141cd82856148b6565b6040517f95dd919300000000000000000000000000000000000000000000000000000000815230600482015290915060009061425e906001600160a01b038b16906395dd919390602401602060405180830381865afa158015614234573d6000803e3d6000fd5b505050506040513d601f19601f820116820180604052508101906142589190615427565b856148eb565b905061426a8183614909565b955050505b50505b50949350505050565b6000806040518060200160405280614294888888614933565b6001600160e01b031690526040805160208101918290527f88e972b80000000000000000000000000000000000000000000000000000000090915260ff861660248201526001600160a01b0387811660448301528581166064830152919250600091819089166388e972b860848301602060405180830381865afa158015614320573d6000803e3d6000fd5b505050506040513d601f19601f820116820180604052508101906143449190615427565b905280519091501580156143585750815115155b15614370576ec097ce7bc90715b34b9f100000000081525b815160009061438e5760405180602001604052806000815250614398565b61439883836148b6565b6040516370a0823160e01b81526001600160a01b038781166004830152919250613360918916906370a0823190602401602060405180830381865afa1580156143e5573d6000803e3d6000fd5b505050506040513d601f19601f820116820180604052508101906144099190615427565b82614909565b600080826001600160a01b0316846001600160a01b031610614432578284614435565b83835b915091509250929050565b60008061444f856103e5612403565b9050600061445d8285612403565b905060006144718361328e886103e8612403565b905061447d828261240f565b979650505050505050565b6000614062846112a284610cae8988612403565b6000806144a9858561440f565b509050600080846001600160a01b0316630902f1ac6040518163ffffffff1660e01b8152600401606060405180830381865afa1580156144ed573d6000803e3d6000fd5b505050506040513d601f19601f8201168201806040525081019061451191906155ac565b5091509150866001600160a01b0316836001600160a01b03161461453157905b60008061455f8a856dffffffffffffffffffffffffffff16856dffffffffffffffffffffffffffff16614440565b9050886001600160a01b0316856001600160a01b03161461457c57905b6145906001600160a01b038a16888c614bab565b604080516000815260208101918290527f022c0d9f000000000000000000000000000000000000000000000000000000009091526001600160a01b0388169063022c0d9f906145e890859085903090602481016156a2565b600060405180830381600087803b15801561460257600080fd5b505af1158015614616573d6000803e3d6000fd5b50505050818111614627578161426a565b9998505050505050505050565b6040517f4b3a0a7400000000000000000000000000000000000000000000000000000000815260ff831660048201526001600160a01b0384811660248301526000918291829190881690634b3a0a74906044016040805180830381865afa1580156146a3573d6000803e3d6000fd5b505050506040513d601f19601f820116820180604052508101906146c791906156da565b6040517fc376fada00000000000000000000000000000000000000000000000000000000815260ff881660048201526001600160a01b03898116602483015292945063ffffffff91909116925060009189169063c376fada90604401602060405180830381865afa158015614740573d6000803e3d6000fd5b505050506040513d601f19601f820116820180604052508101906147649190615427565b905060006147724284614bfd565b90506000811180156147845750600082115b156148a75760006147f6896001600160a01b03166347bd37186040518163ffffffff1660e01b8152600401602060405180830381865afa1580156147cc573d6000803e3d6000fd5b505050506040513d601f19601f820116820180604052508101906147f09190615427565b886148eb565b905060006148048385614c3f565b90506000808311614824576040518060200160405280600081525061482e565b61482e8284614c81565b9050600061485360405180602001604052808a6001600160e01b031681525083614cbd565b905061489881600001516040518060400160405280601a81526020017f6e657720696e6465782065786365656473203232342062697473000000000000815250614ce9565b98505050505050505050613298565b50600098975050505050505050565b60408051602081019091526000815260405180602001604052806148e285600001518560000151614bfd565b90529392505050565b6000610c8d61490284670de0b6b3a7640000614c3f565b8351614d31565b60006ec097ce7bc90715b34b9f1000000000614929848460000151614c3f565b610c8d9190615529565b6040517fd81c5e4500000000000000000000000000000000000000000000000000000000815260ff821660048201526001600160a01b038381166024830152600091829182919087169063d81c5e45906044016040805180830381865afa1580156149a2573d6000803e3d6000fd5b505050506040513d601f19601f820116820180604052508101906149c691906156da565b6040517fcf9cfb6100000000000000000000000000000000000000000000000000000000815260ff871660048201526001600160a01b03888116602483015292945063ffffffff91909116925060009188169063cf9cfb6190604401602060405180830381865afa158015614a3f573d6000803e3d6000fd5b505050506040513d601f19601f82011682018060405250810190614a639190615427565b90506000614a714284614bfd565b9050600081118015614a835750600082115b15614b9d576000876001600160a01b03166318160ddd6040518163ffffffff1660e01b8152600401602060405180830381865afa158015614ac8573d6000803e3d6000fd5b505050506040513d601f19601f82011682018060405250810190614aec9190615427565b90506000614afa8385614c3f565b90506000808311614b1a5760405180602001604052806000815250614b24565b614b248284614c81565b90506000614b4960405180602001604052808a6001600160e01b031681525083614cbd565b9050614b8e81600001516040518060400160405280601a81526020017f6e657720696e6465782065786365656473203232342062697473000000000000815250614ce9565b98505050505050505050610c8d565b506000979650505050505050565b604080516001600160a01b038416602482015260448082018490528251808303909101815260649091019091526020810180516001600160e01b031663a9059cbb60e01b179052612a21908490614d73565b6000610c8d83836040518060400160405280601581526020017f7375627472616374696f6e20756e646572666c6f770000000000000000000000815250614e58565b6000610c8d83836040518060400160405280601781526020017f6d756c7469706c69636174696f6e206f766572666c6f77000000000000000000815250614e87565b60408051602081019091526000815260405180602001604052806148e2614cb7866ec097ce7bc90715b34b9f1000000000614c3f565b85614d31565b60408051602081019091526000815260405180602001604052806148e285600001518560000151614eda565b6000817c01000000000000000000000000000000000000000000000000000000008410614d295760405162461bcd60e51b81526004016103e59190615155565b509192915050565b6000610c8d83836040518060400160405280600e81526020017f646976696465206279207a65726f000000000000000000000000000000000000815250614f1c565b6000614dc8826040518060400160405280602081526020017f5361666545524332303a206c6f772d6c6576656c2063616c6c206661696c6564815250856001600160a01b0316614f489092919063ffffffff16565b805190915015612a215780806020019051810190614de691906153d4565b612a215760405162461bcd60e51b815260206004820152602a60248201527f5361666545524332303a204552433230206f7065726174696f6e20646964206e60448201527f6f7420737563636565640000000000000000000000000000000000000000000060648201526084016103e5565b60008184841115614e7c5760405162461bcd60e51b81526004016103e59190615155565b506132988385615563565b6000831580614e94575082155b15614ea157506000610c8d565b6000614ead848661550a565b905083614eba8683615529565b1483906142725760405162461bcd60e51b81526004016103e59190615155565b6000610c8d83836040518060400160405280601181526020017f6164646974696f6e206f766572666c6f77000000000000000000000000000000815250614f57565b60008183614f3d5760405162461bcd60e51b81526004016103e59190615155565b506132988385615529565b60606132988484600085614f88565b600080614f64848661554b565b905082858210156142725760405162461bcd60e51b81526004016103e59190615155565b6060824710156150005760405162461bcd60e51b815260206004820152602660248201527f416464726573733a20696e73756666696369656e742062616c616e636520666f60448201527f722063616c6c000000000000000000000000000000000000000000000000000060648201526084016103e5565b6001600160a01b0385163b6150575760405162461bcd60e51b815260206004820152601d60248201527f416464726573733a2063616c6c20746f206e6f6e2d636f6e747261637400000060448201526064016103e5565b600080866001600160a01b031685876040516150739190615712565b60006040518083038185875af1925050503d80600081146150b0576040519150601f19603f3d011682016040523d82523d6000602084013e6150b5565b606091505b509150915061447d828286606083156150cf575081610c8d565b8251156150df5782518084602001fd5b8160405162461bcd60e51b81526004016103e59190615155565b60005b838110156151145781810151838201526020016150fc565b83811115615123576000848401525b50505050565b600081518084526151418160208601602086016150f9565b601f01601f19169290920160200192915050565b602081526000610c8d6020830184615129565b80356001600160a01b038116811461517f57600080fd5b919050565b6000806040838503121561519757600080fd5b6151a083615168565b946020939093013593505050565b6000806000606084860312156151c357600080fd5b6151cc84615168565b92506151da60208501615168565b9150604084013590509250925092565b6000602082840312156151fc57600080fd5b5035919050565b60006020828403121561521557600080fd5b610c8d82615168565b803560ff8116811461517f57600080fd5b600080600080600060a0868803121561524757600080fd5b853594506020860135935061525e6040870161521e565b94979396509394606081013594506080013592915050565b8015158114611c3057600080fd5b60006020828403121561529657600080fd5b8135610c8d81615276565b600080604083850312156152b457600080fd5b6152bd83615168565b91506152cb60208401615168565b90509250929050565b600080604083850312156152e757600080fd5b8235915060208301356152f981615276565b809150509250929050565b600080600080600080600060e0888a03121561531f57600080fd5b61532888615168565b965061533660208901615168565b955060408801359450606088013593506153526080890161521e565b925060a0880135915060c0880135905092959891949750929550565b60008060006060848603121561538357600080fd5b505081359360208301359350604090920135919050565b600181811c908216806153ae57607f821691505b6020821081036153ce57634e487b7160e01b600052602260045260246000fd5b50919050565b6000602082840312156153e657600080fd5b8151610c8d81615276565b6000806000806080858703121561540757600080fd5b505082516020840151604085015160609095015191969095509092509050565b60006020828403121561543957600080fd5b5051919050565b634e487b7160e01b600052601160045260246000fd5b60006001820161546857615468615440565b5060010190565b600080835481600182811c91508083168061548b57607f831692505b602080841082036154aa57634e487b7160e01b86526022600452602486fd5b8180156154be57600181146154cf576154fc565b60ff198616895284890196506154fc565b60008a81526020902060005b868110156154f45781548b8201529085019083016154db565b505084890196505b509498975050505050505050565b600081600019048311821515161561552457615524615440565b500290565b60008261554657634e487b7160e01b600052601260045260246000fd5b500490565b6000821982111561555e5761555e615440565b500190565b60008282101561557557615575615440565b500390565b80516dffffffffffffffffffffffffffff8116811461517f57600080fd5b805163ffffffff8116811461517f57600080fd5b6000806000606084860312156155c157600080fd5b6155ca8461557a565b92506155d86020850161557a565b91506155e660408501615598565b90509250925092565b634e487b7160e01b600052603260045260246000fd5b600081518084526020808501945080840160005b8381101561563e5781516001600160a01b031687529582019590820190600101615619565b509495945050505050565b60ff841681526001600160a01b03831660208201526060604082015260006140626060830184615605565b6000806040838503121561568757600080fd5b825161569281615276565b6020939093015192949293505050565b8481528360208201526001600160a01b03831660408201526080606082015260006156d06080830184615129565b9695505050505050565b600080604083850312156156ed57600080fd5b82516001600160e01b038116811461570457600080fd5b91506152cb60208401615598565b600082516157248184602087016150f9565b919091019291505056fe5f6275726e3a206275726e20616d6f756e74206578636565647320746f74616c20737570706c794f776e61626c653a2063616c6c6572206973206e6f7420746865206f776e65727472616e7366657246726f6d3a207472616e7366657220616d6f756e74206578636565647320616c6c6f77616e63655f6275726e3a206275726e20616d6f756e7420657863656564732066726f6d2062616c616e63655f7472616e73666572546f6b656e733a207472616e7366657220657863656564732066726f6d2062616c616e6365a26469706673582212209e4fb76b06098e021b96ec43c5bed87d576a44d903d068212b054b43b31a321c64736f6c634300080d00334f776e61626c653a2063616c6c6572206973206e6f7420746865206f776e65728be0079c531659141344cd1fd0a4f28419497f9722a3daafe3b4186f6b6457e0537761702070616972203020646f6573206e6f74206d61746368207265776172",
  "devdoc": {
    "kind": "dev",
    "methods": {
      "allowDepositor(address)": {
        "params": {
          "depositor": "address"
        }
      },
      "allowance(address,address)": {
        "params": {
          "account": "The address of the account holding the funds",
          "spender": "The address of the account spending the funds"
        },
        "returns": {
          "_0": "The number of tokens approved"
        }
      },
      "approve(address,uint256)": {
        "details": "This will overwrite the approval amount for `spender` and is subject to issues noted [here](https://eips.ethereum.org/EIPS/eip-20#approve) It is recommended to use increaseAllowance and decreaseAllowance instead",
        "params": {
          "amount": "The number of tokens that are approved (2^256-1 means infinite)",
          "spender": "The address of the account which may transfer tokens"
        },
        "returns": {
          "_0": "Whether or not the approval succeeded"
        }
      },
      "balanceOf(address)": {
        "params": {
          "account": "The address of the account to get the balance of"
        },
        "returns": {
          "_0": "The number of tokens held"
        }
      },
      "checkReward()": {
        "returns": {
          "_0": "reward tokens"
        }
      },
      "deposit(uint256)": {
        "details": "Must mint receipt tokens to `msg.sender`",
        "params": {
          "amount": "deposit tokens"
        }
      },
      "depositFor(address,uint256)": {
        "details": "Must mint receipt tokens to `account`",
        "params": {
          "account": "address to receive receipt tokens",
          "amount": "deposit tokens"
        }
      },
      "depositWithPermit(uint256,uint256,uint8,bytes32,bytes32)": {
        "details": "Should revert for tokens without Permit",
        "params": {
          "amount": "Amount of tokens to deposit",
          "deadline": "The time at which to expire the signature",
          "r": "Half of the ECDSA signature pair",
          "s": "Half of the ECDSA signature pair",
          "v": "The recovery byte of the signature"
        }
      },
      "estimateDeployedBalance()": {
        "returns": {
          "_0": "deposit tokens"
        }
      },
      "estimateReinvestReward()": {
        "returns": {
          "_0": "reward tokens"
        }
      },
      "getDepositTokensForShares(uint256)": {
        "params": {
          "amount": "receipt tokens"
        },
        "returns": {
          "_0": "deposit tokens"
        }
      },
      "getDomainSeparator()": {
        "returns": {
          "_0": "Separator"
        }
      },
      "getSharesForDepositTokens(uint256)": {
        "details": "If contract is empty, use 1:1 ratioCould return zero shares for very low amounts of deposit tokens",
        "params": {
          "amount": "deposit tokens"
        },
        "returns": {
          "_0": "receipt tokens"
        }
      },
      "owner()": {
        "details": "Returns the address of the current owner."
      },
      "permit(address,address,uint256,uint256,uint8,bytes32,bytes32)": {
        "params": {
          "deadline": "The time at which to expire the signature",
          "owner": "The address to approve from",
          "r": "Half of the ECDSA signature pair",
          "s": "Half of the ECDSA signature pair",
          "spender": "The address to be approved",
          "v": "The recovery byte of the signature",
          "value": "The number of tokens that are approved (2^256-1 means infinite)"
        }
      },
      "recoverAVAX(uint256)": {
        "params": {
          "amount": "amount"
        }
      },
      "recoverERC20(address,uint256)": {
        "params": {
          "tokenAddress": "token address",
          "tokenAmount": "amount to recover"
        }
      },
      "removeDepositor(address)": {
        "params": {
          "depositor": "address"
        }
      },
      "renounceOwnership()": {
        "details": "Leaves the contract without owner. It will not be possible to call `onlyOwner` functions anymore. Can only be called by the current owner. NOTE: Renouncing ownership will leave the contract without an owner, thereby removing any functionality that is only available to the owner."
      },
      "revokeAllowance(address,address)": {
        "params": {
          "spender": "address",
          "token": "address"
        }
      },
      "totalDeposits()": {
        "returns": {
          "_0": "total deposits available on the contract"
        }
      },
      "transfer(address,uint256)": {
        "params": {
          "amount": "The number of tokens to transfer",
          "dst": "The address of the destination account"
        },
        "returns": {
          "_0": "Whether or not the transfer succeeded"
        }
      },
      "transferFrom(address,address,uint256)": {
        "params": {
          "amount": "The number of tokens to transfer",
          "dst": "The address of the destination account",
          "src": "The address of the source account"
        },
        "returns": {
          "_0": "Whether or not the transfer succeeded"
        }
      },
      "transferOwnership(address)": {
        "details": "Transfers ownership of the contract to a new account (`newOwner`). Can only be called by the current owner."
      },
      "updateAdminFee(uint256)": {
        "details": "Deprecated; Kept for compatibility",
        "params": {
          "newValue": "fee in BIPS; required to be 0"
        }
      },
      "updateDepositsEnabled(bool)": {
        "params": {
          "newValue": "bool"
        }
      },
      "updateDevAddr(address)": {
        "params": {
          "newValue": "address"
        }
      },
      "updateDevFee(uint256)": {
        "params": {
          "newValue": "fee in BIPS"
        }
      },
      "updateMaxTokensToDepositWithoutReinvest(uint256)": {
        "params": {
          "newValue": "threshold"
        }
      },
      "updateMinTokensToReinvest(uint256)": {
        "params": {
          "newValue": "threshold"
        }
      },
      "updateReinvestReward(uint256)": {
        "params": {
          "newValue": "fee in BIPS"
        }
      },
      "withdraw(uint256)": {
        "params": {
          "amount": "receipt tokens"
        }
      }
    },
    "version": 1
  },
  "userdoc": {
    "kind": "user",
    "methods": {
      "allowDepositor(address)": {
        "notice": "Add an allowed depositor"
      },
      "allowance(address,address)": {
        "notice": "Get the number of tokens `spender` is approved to spend on behalf of `account`"
      },
      "approve(address,uint256)": {
        "notice": "Approve `spender` to transfer up to `amount` from `src`"
      },
      "balanceOf(address)": {
        "notice": "Get the number of tokens held by the `account`"
      },
      "checkReward()": {
        "notice": "Reward tokens avialable to strategy, including balance"
      },
      "deposit(uint256)": {
        "notice": "Deposit and deploy deposits tokens to the strategy"
      },
      "depositFor(address,uint256)": {
        "notice": "Deposit on behalf of another account"
      },
      "depositWithPermit(uint256,uint256,uint8,bytes32,bytes32)": {
        "notice": "Deposit using Permit"
      },
      "estimateDeployedBalance()": {
        "notice": "Estimated deposit token balance deployed by strategy, excluding balance"
      },
      "estimateReinvestReward()": {
        "notice": "Estimate reinvest reward"
      },
      "getDepositTokensForShares(uint256)": {
        "notice": "Calculate deposit tokens for a given amount of receipt tokens"
      },
      "getDomainSeparator()": {
        "notice": "EIP-712 Domain separator"
      },
      "getSharesForDepositTokens(uint256)": {
        "notice": "Calculate receipt tokens for a given amount of deposit tokens"
      },
      "permit(address,address,uint256,uint256,uint8,bytes32,bytes32)": {
        "notice": "Triggers an approval from owner to spender"
      },
      "recoverAVAX(uint256)": {
        "notice": "Recover AVAX from contract"
      },
      "recoverERC20(address,uint256)": {
        "notice": "Recover ERC20 from contract"
      },
      "reinvest()": {
        "notice": "Reinvest reward tokens into deposit tokens"
      },
      "removeDepositor(address)": {
        "notice": "Remove an allowed depositor"
      },
      "revokeAllowance(address,address)": {
        "notice": "Revoke token allowance"
      },
      "totalDeposits()": {
        "notice": "This function returns a snapshot of last available quotes"
      },
      "transfer(address,uint256)": {
        "notice": "Transfer `amount` tokens from `msg.sender` to `dst`"
      },
      "transferFrom(address,address,uint256)": {
        "notice": "Transfer `amount` tokens from `src` to `dst`"
      },
      "updateAdminFee(uint256)": {
        "notice": "Update admin fee"
      },
      "updateDepositsEnabled(bool)": {
        "notice": "Enable/disable deposits"
      },
      "updateDevAddr(address)": {
        "notice": "Update devAddr"
      },
      "updateDevFee(uint256)": {
        "notice": "Update developer fee"
      },
      "updateMaxTokensToDepositWithoutReinvest(uint256)": {
        "notice": "Update reinvest max threshold before a deposit"
      },
      "updateMinTokensToReinvest(uint256)": {
        "notice": "Update reinvest min threshold"
      },
      "updateReinvestReward(uint256)": {
        "notice": "Update reinvest reward"
      },
      "withdraw(uint256)": {
        "notice": "Redeem receipt tokens for deposit tokens"
      }
    },
    "version": 1
  },
  "storageLayout": {
    "storage": [
      {
        "astId": 556,
        "contract": "contracts/strategies/benqi/BenqiStrategyV3.sol:BenqiStrategyV3",
        "label": "name",
        "offset": 0,
        "slot": "0",
        "type": "t_string_storage"
      },
      {
        "astId": 559,
        "contract": "contracts/strategies/benqi/BenqiStrategyV3.sol:BenqiStrategyV3",
        "label": "symbol",
        "offset": 0,
        "slot": "1",
        "type": "t_string_storage"
      },
      {
        "astId": 564,
        "contract": "contracts/strategies/benqi/BenqiStrategyV3.sol:BenqiStrategyV3",
        "label": "totalSupply",
        "offset": 0,
        "slot": "2",
        "type": "t_uint256"
      },
      {
        "astId": 570,
        "contract": "contracts/strategies/benqi/BenqiStrategyV3.sol:BenqiStrategyV3",
        "label": "allowances",
        "offset": 0,
        "slot": "3",
        "type": "t_mapping(t_address,t_mapping(t_address,t_uint256))"
      },
      {
        "astId": 574,
        "contract": "contracts/strategies/benqi/BenqiStrategyV3.sol:BenqiStrategyV3",
        "label": "balances",
        "offset": 0,
        "slot": "4",
        "type": "t_mapping(t_address,t_uint256)"
      },
      {
        "astId": 590,
        "contract": "contracts/strategies/benqi/BenqiStrategyV3.sol:BenqiStrategyV3",
        "label": "nonces",
        "offset": 0,
        "slot": "5",
        "type": "t_mapping(t_address,t_uint256)"
      },
      {
        "astId": 7854,
        "contract": "contracts/strategies/benqi/BenqiStrategyV3.sol:BenqiStrategyV3",
        "label": "_owner",
        "offset": 0,
        "slot": "6",
        "type": "t_address"
      },
      {
        "astId": 7967,
        "contract": "contracts/strategies/benqi/BenqiStrategyV3.sol:BenqiStrategyV3",
        "label": "numberOfAllowedDepositors",
        "offset": 0,
        "slot": "7",
        "type": "t_uint256"
      },
      {
        "astId": 7971,
        "contract": "contracts/strategies/benqi/BenqiStrategyV3.sol:BenqiStrategyV3",
        "label": "allowedDepositors",
        "offset": 0,
        "slot": "8",
        "type": "t_mapping(t_address,t_bool)"
      },
      {
        "astId": 1965,
        "contract": "contracts/strategies/benqi/BenqiStrategyV3.sol:BenqiStrategyV3",
        "label": "depositToken",
        "offset": 0,
        "slot": "9",
        "type": "t_contract(IERC20)5314"
      },
      {
        "astId": 1968,
        "contract": "contracts/strategies/benqi/BenqiStrategyV3.sol:BenqiStrategyV3",
        "label": "rewardToken",
        "offset": 0,
        "slot": "10",
        "type": "t_contract(IERC20)5314"
      },
      {
        "astId": 1970,
        "contract": "contracts/strategies/benqi/BenqiStrategyV3.sol:BenqiStrategyV3",
        "label": "devAddr",
        "offset": 0,
        "slot": "11",
        "type": "t_address"
      },
      {
        "astId": 1972,
        "contract": "contracts/strategies/benqi/BenqiStrategyV3.sol:BenqiStrategyV3",
        "label": "MIN_TOKENS_TO_REINVEST",
        "offset": 0,
        "slot": "12",
        "type": "t_uint256"
      },
      {
        "astId": 1974,
        "contract": "contracts/strategies/benqi/BenqiStrategyV3.sol:BenqiStrategyV3",
        "label": "MAX_TOKENS_TO_DEPOSIT_WITHOUT_REINVEST",
        "offset": 0,
        "slot": "13",
        "type": "t_uint256"
      },
      {
        "astId": 1976,
        "contract": "contracts/strategies/benqi/BenqiStrategyV3.sol:BenqiStrategyV3",
        "label": "DEPOSITS_ENABLED",
        "offset": 0,
        "slot": "14",
        "type": "t_bool"
      },
      {
        "astId": 1978,
        "contract": "contracts/strategies/benqi/BenqiStrategyV3.sol:BenqiStrategyV3",
        "label": "ADMIN_FEE_BIPS",
        "offset": 0,
        "slot": "15",
        "type": "t_uint256"
      },
      {
        "astId": 1980,
        "contract": "contracts/strategies/benqi/BenqiStrategyV3.sol:BenqiStrategyV3",
        "label": "REINVEST_REWARD_BIPS",
        "offset": 0,
        "slot": "16",
        "type": "t_uint256"
      },
      {
        "astId": 1982,
        "contract": "contracts/strategies/benqi/BenqiStrategyV3.sol:BenqiStrategyV3",
        "label": "DEV_FEE_BIPS",
        "offset": 0,
        "slot": "17",
        "type": "t_uint256"
      },
      {
        "astId": 24548,
        "contract": "contracts/strategies/benqi/BenqiStrategyV3.sol:BenqiStrategyV3",
        "label": "rewardController",
        "offset": 0,
        "slot": "18",
        "type": "t_contract(IBenqiUnitroller)26520"
      },
      {
        "astId": 24551,
        "contract": "contracts/strategies/benqi/BenqiStrategyV3.sol:BenqiStrategyV3",
        "label": "tokenDelegator",
        "offset": 0,
        "slot": "19",
        "type": "t_contract(IBenqiERC20Delegator)26325"
      },
      {
        "astId": 24554,
        "contract": "contracts/strategies/benqi/BenqiStrategyV3.sol:BenqiStrategyV3",
        "label": "rewardToken0",
        "offset": 0,
        "slot": "20",
        "type": "t_contract(IERC20)5314"
      },
      {
        "astId": 24557,
        "contract": "contracts/strategies/benqi/BenqiStrategyV3.sol:BenqiStrategyV3",
        "label": "rewardToken1",
        "offset": 0,
        "slot": "21",
        "type": "t_contract(IERC20)5314"
      },
      {
        "astId": 24560,
        "contract": "contracts/strategies/benqi/BenqiStrategyV3.sol:BenqiStrategyV3",
        "label": "swapPairToken0",
        "offset": 0,
        "slot": "22",
        "type": "t_contract(IPair)5360"
      },
      {
        "astId": 24563,
        "contract": "contracts/strategies/benqi/BenqiStrategyV3.sol:BenqiStrategyV3",
        "label": "swapPairToken1",
        "offset": 0,
        "slot": "23",
        "type": "t_contract(IPair)5360"
      },
      {
        "astId": 24571,
        "contract": "contracts/strategies/benqi/BenqiStrategyV3.sol:BenqiStrategyV3",
        "label": "leverageLevel",
        "offset": 0,
        "slot": "24",
        "type": "t_uint256"
      },
      {
        "astId": 24573,
        "contract": "contracts/strategies/benqi/BenqiStrategyV3.sol:BenqiStrategyV3",
        "label": "leverageBips",
        "offset": 0,
        "slot": "25",
        "type": "t_uint256"
      },
      {
        "astId": 24575,
        "contract": "contracts/strategies/benqi/BenqiStrategyV3.sol:BenqiStrategyV3",
        "label": "minMinting",
        "offset": 0,
        "slot": "26",
        "type": "t_uint256"
      },
      {
        "astId": 24577,
        "contract": "contracts/strategies/benqi/BenqiStrategyV3.sol:BenqiStrategyV3",
        "label": "redeemLimitSafetyMargin",
        "offset": 0,
        "slot": "27",
        "type": "t_uint256"
      }
    ],
    "types": {
      "t_address": {
        "encoding": "inplace",
        "label": "address",
        "numberOfBytes": "20"
      },
      "t_bool": {
        "encoding": "inplace",
        "label": "bool",
        "numberOfBytes": "1"
      },
      "t_contract(IBenqiERC20Delegator)26325": {
        "encoding": "inplace",
        "label": "contract IBenqiERC20Delegator",
        "numberOfBytes": "20"
      },
      "t_contract(IBenqiUnitroller)26520": {
        "encoding": "inplace",
        "label": "contract IBenqiUnitroller",
        "numberOfBytes": "20"
      },
      "t_contract(IERC20)5314": {
        "encoding": "inplace",
        "label": "contract IERC20",
        "numberOfBytes": "20"
      },
      "t_contract(IPair)5360": {
        "encoding": "inplace",
        "label": "contract IPair",
        "numberOfBytes": "20"
      },
      "t_mapping(t_address,t_bool)": {
        "encoding": "mapping",
        "key": "t_address",
        "label": "mapping(address => bool)",
        "numberOfBytes": "32",
        "value": "t_bool"
      },
      "t_mapping(t_address,t_mapping(t_address,t_uint256))": {
        "encoding": "mapping",
        "key": "t_address",
        "label": "mapping(address => mapping(address => uint256))",
        "numberOfBytes": "32",
        "value": "t_mapping(t_address,t_uint256)"
      },
      "t_mapping(t_address,t_uint256)": {
        "encoding": "mapping",
        "key": "t_address",
        "label": "mapping(address => uint256)",
        "numberOfBytes": "32",
        "value": "t_uint256"
      },
      "t_string_storage": {
        "encoding": "bytes",
        "label": "string",
        "numberOfBytes": "32"
      },
      "t_uint256": {
        "encoding": "inplace",
        "label": "uint256",
        "numberOfBytes": "32"
      }
    }
  }
}