{
  "address": "0xa17946282a8fD1e1C0F2E484393F318D14C6A72F",
  "abi": [
    {
      "inputs": [
        {
          "internalType": "string",
          "name": "_name",
          "type": "string"
        },
        {
          "internalType": "address",
          "name": "_rewardController",
          "type": "address"
        },
        {
          "internalType": "address",
          "name": "_tokenDelegator",
          "type": "address"
        },
        {
          "internalType": "address",
          "name": "_rewardToken0",
          "type": "address"
        },
        {
          "internalType": "address",
          "name": "_swapPairToken0",
          "type": "address"
        },
        {
          "internalType": "address",
          "name": "_timelock",
          "type": "address"
        },
        {
          "internalType": "uint256",
          "name": "_minMinting",
          "type": "uint256"
        },
        {
          "internalType": "uint256",
          "name": "_leverageLevel",
          "type": "uint256"
        },
        {
          "internalType": "uint256",
          "name": "_leverageBips",
          "type": "uint256"
        },
        {
          "internalType": "uint256",
          "name": "_minTokensToReinvest",
          "type": "uint256"
        },
        {
          "internalType": "uint256",
          "name": "_adminFeeBips",
          "type": "uint256"
        },
        {
          "internalType": "uint256",
          "name": "_devFeeBips",
          "type": "uint256"
        },
        {
          "internalType": "uint256",
          "name": "_reinvestRewardBips",
          "type": "uint256"
        }
      ],
      "stateMutability": "nonpayable",
      "type": "constructor"
    },
    {
      "anonymous": false,
      "inputs": [
        {
          "indexed": true,
          "internalType": "address",
          "name": "account",
          "type": "address"
        }
      ],
      "name": "AllowDepositor",
      "type": "event"
    },
    {
      "anonymous": false,
      "inputs": [
        {
          "indexed": true,
          "internalType": "address",
          "name": "owner",
          "type": "address"
        },
        {
          "indexed": true,
          "internalType": "address",
          "name": "spender",
          "type": "address"
        },
        {
          "indexed": false,
          "internalType": "uint256",
          "name": "value",
          "type": "uint256"
        }
      ],
      "name": "Approval",
      "type": "event"
    },
    {
      "anonymous": false,
      "inputs": [
        {
          "indexed": true,
          "internalType": "address",
          "name": "account",
          "type": "address"
        },
        {
          "indexed": false,
          "internalType": "uint256",
          "name": "amount",
          "type": "uint256"
        }
      ],
      "name": "Deposit",
      "type": "event"
    },
    {
      "anonymous": false,
      "inputs": [
        {
          "indexed": false,
          "internalType": "bool",
          "name": "newValue",
          "type": "bool"
        }
      ],
      "name": "DepositsEnabled",
      "type": "event"
    },
    {
      "anonymous": false,
      "inputs": [
        {
          "indexed": true,
          "internalType": "address",
          "name": "previousOwner",
          "type": "address"
        },
        {
          "indexed": true,
          "internalType": "address",
          "name": "newOwner",
          "type": "address"
        }
      ],
      "name": "OwnershipTransferred",
      "type": "event"
    },
    {
      "anonymous": false,
      "inputs": [
        {
          "indexed": false,
          "internalType": "address",
          "name": "token",
          "type": "address"
        },
        {
          "indexed": false,
          "internalType": "uint256",
          "name": "amount",
          "type": "uint256"
        }
      ],
      "name": "Recovered",
      "type": "event"
    },
    {
      "anonymous": false,
      "inputs": [
        {
          "indexed": false,
          "internalType": "uint256",
          "name": "newTotalDeposits",
          "type": "uint256"
        },
        {
          "indexed": false,
          "internalType": "uint256",
          "name": "newTotalSupply",
          "type": "uint256"
        }
      ],
      "name": "Reinvest",
      "type": "event"
    },
    {
      "anonymous": false,
      "inputs": [
        {
          "indexed": true,
          "internalType": "address",
          "name": "account",
          "type": "address"
        }
      ],
      "name": "RemoveDepositor",
      "type": "event"
    },
    {
      "anonymous": false,
      "inputs": [
        {
          "indexed": true,
          "internalType": "address",
          "name": "from",
          "type": "address"
        },
        {
          "indexed": true,
          "internalType": "address",
          "name": "to",
          "type": "address"
        },
        {
          "indexed": false,
          "internalType": "uint256",
          "name": "value",
          "type": "uint256"
        }
      ],
      "name": "Transfer",
      "type": "event"
    },
    {
      "anonymous": false,
      "inputs": [
        {
          "indexed": false,
          "internalType": "uint256",
          "name": "oldValue",
          "type": "uint256"
        },
        {
          "indexed": false,
          "internalType": "uint256",
          "name": "newValue",
          "type": "uint256"
        }
      ],
      "name": "UpdateAdminFee",
      "type": "event"
    },
    {
      "anonymous": false,
      "inputs": [
        {
          "indexed": false,
          "internalType": "address",
          "name": "oldValue",
          "type": "address"
        },
        {
          "indexed": false,
          "internalType": "address",
          "name": "newValue",
          "type": "address"
        }
      ],
      "name": "UpdateDevAddr",
      "type": "event"
    },
    {
      "anonymous": false,
      "inputs": [
        {
          "indexed": false,
          "internalType": "uint256",
          "name": "oldValue",
          "type": "uint256"
        },
        {
          "indexed": false,
          "internalType": "uint256",
          "name": "newValue",
          "type": "uint256"
        }
      ],
      "name": "UpdateDevFee",
      "type": "event"
    },
    {
      "anonymous": false,
      "inputs": [
        {
          "indexed": false,
          "internalType": "uint256",
          "name": "oldValue",
          "type": "uint256"
        },
        {
          "indexed": false,
          "internalType": "uint256",
          "name": "newValue",
          "type": "uint256"
        }
      ],
      "name": "UpdateMaxTokensToDepositWithoutReinvest",
      "type": "event"
    },
    {
      "anonymous": false,
      "inputs": [
        {
          "indexed": false,
          "internalType": "uint256",
          "name": "oldValue",
          "type": "uint256"
        },
        {
          "indexed": false,
          "internalType": "uint256",
          "name": "newValue",
          "type": "uint256"
        }
      ],
      "name": "UpdateMinTokensToReinvest",
      "type": "event"
    },
    {
      "anonymous": false,
      "inputs": [
        {
          "indexed": false,
          "internalType": "uint256",
          "name": "oldValue",
          "type": "uint256"
        },
        {
          "indexed": false,
          "internalType": "uint256",
          "name": "newValue",
          "type": "uint256"
        }
      ],
      "name": "UpdateReinvestReward",
      "type": "event"
    },
    {
      "anonymous": false,
      "inputs": [
        {
          "indexed": true,
          "internalType": "address",
          "name": "account",
          "type": "address"
        },
        {
          "indexed": false,
          "internalType": "uint256",
          "name": "amount",
          "type": "uint256"
        }
      ],
      "name": "Withdraw",
      "type": "event"
    },
    {
      "inputs": [],
      "name": "ADMIN_FEE_BIPS",
      "outputs": [
        {
          "internalType": "uint256",
          "name": "",
          "type": "uint256"
        }
      ],
      "stateMutability": "view",
      "type": "function"
    },
    {
      "inputs": [],
      "name": "DEPOSITS_ENABLED",
      "outputs": [
        {
          "internalType": "bool",
          "name": "",
          "type": "bool"
        }
      ],
      "stateMutability": "view",
      "type": "function"
    },
    {
      "inputs": [],
      "name": "DEV_FEE_BIPS",
      "outputs": [
        {
          "internalType": "uint256",
          "name": "",
          "type": "uint256"
        }
      ],
      "stateMutability": "view",
      "type": "function"
    },
    {
      "inputs": [],
      "name": "DOMAIN_TYPEHASH",
      "outputs": [
        {
          "internalType": "bytes32",
          "name": "",
          "type": "bytes32"
        }
      ],
      "stateMutability": "view",
      "type": "function"
    },
    {
      "inputs": [],
      "name": "MAX_TOKENS_TO_DEPOSIT_WITHOUT_REINVEST",
      "outputs": [
        {
          "internalType": "uint256",
          "name": "",
          "type": "uint256"
        }
      ],
      "stateMutability": "view",
      "type": "function"
    },
    {
      "inputs": [],
      "name": "MIN_TOKENS_TO_REINVEST",
      "outputs": [
        {
          "internalType": "uint256",
          "name": "",
          "type": "uint256"
        }
      ],
      "stateMutability": "view",
      "type": "function"
    },
    {
      "inputs": [],
      "name": "PERMIT_TYPEHASH",
      "outputs": [
        {
          "internalType": "bytes32",
          "name": "",
          "type": "bytes32"
        }
      ],
      "stateMutability": "view",
      "type": "function"
    },
    {
      "inputs": [],
      "name": "REINVEST_REWARD_BIPS",
      "outputs": [
        {
          "internalType": "uint256",
          "name": "",
          "type": "uint256"
        }
      ],
      "stateMutability": "view",
      "type": "function"
    },
    {
      "inputs": [],
      "name": "VERSION_HASH",
      "outputs": [
        {
          "internalType": "bytes32",
          "name": "",
          "type": "bytes32"
        }
      ],
      "stateMutability": "view",
      "type": "function"
    },
    {
      "inputs": [
        {
          "internalType": "address",
          "name": "depositor",
          "type": "address"
        }
      ],
      "name": "allowDepositor",
      "outputs": [],
      "stateMutability": "nonpayable",
      "type": "function"
    },
    {
      "inputs": [
        {
          "internalType": "address",
          "name": "account",
          "type": "address"
        },
        {
          "internalType": "address",
          "name": "spender",
          "type": "address"
        }
      ],
      "name": "allowance",
      "outputs": [
        {
          "internalType": "uint256",
          "name": "",
          "type": "uint256"
        }
      ],
      "stateMutability": "view",
      "type": "function"
    },
    {
      "inputs": [
        {
          "internalType": "address",
          "name": "",
          "type": "address"
        }
      ],
      "name": "allowedDepositors",
      "outputs": [
        {
          "internalType": "bool",
          "name": "",
          "type": "bool"
        }
      ],
      "stateMutability": "view",
      "type": "function"
    },
    {
      "inputs": [
        {
          "internalType": "address",
          "name": "spender",
          "type": "address"
        },
        {
          "internalType": "uint256",
          "name": "amount",
          "type": "uint256"
        }
      ],
      "name": "approve",
      "outputs": [
        {
          "internalType": "bool",
          "name": "",
          "type": "bool"
        }
      ],
      "stateMutability": "nonpayable",
      "type": "function"
    },
    {
      "inputs": [
        {
          "internalType": "address",
          "name": "account",
          "type": "address"
        }
      ],
      "name": "balanceOf",
      "outputs": [
        {
          "internalType": "uint256",
          "name": "",
          "type": "uint256"
        }
      ],
      "stateMutability": "view",
      "type": "function"
    },
    {
      "inputs": [],
      "name": "checkReward",
      "outputs": [
        {
          "internalType": "uint256",
          "name": "",
          "type": "uint256"
        }
      ],
      "stateMutability": "view",
      "type": "function"
    },
    {
      "inputs": [],
      "name": "claimAVAXRewards",
      "outputs": [],
      "stateMutability": "nonpayable",
      "type": "function"
    },
    {
      "inputs": [],
      "name": "decimals",
      "outputs": [
        {
          "internalType": "uint8",
          "name": "",
          "type": "uint8"
        }
      ],
      "stateMutability": "view",
      "type": "function"
    },
    {
      "inputs": [
        {
          "internalType": "uint256",
          "name": "amount",
          "type": "uint256"
        }
      ],
      "name": "deposit",
      "outputs": [],
      "stateMutability": "nonpayable",
      "type": "function"
    },
    {
      "inputs": [],
      "name": "deposit",
      "outputs": [],
      "stateMutability": "payable",
      "type": "function"
    },
    {
      "inputs": [
        {
          "internalType": "address",
          "name": "account",
          "type": "address"
        },
        {
          "internalType": "uint256",
          "name": "amount",
          "type": "uint256"
        }
      ],
      "name": "depositFor",
      "outputs": [],
      "stateMutability": "nonpayable",
      "type": "function"
    },
    {
      "inputs": [
        {
          "internalType": "address",
          "name": "account",
          "type": "address"
        }
      ],
      "name": "depositFor",
      "outputs": [],
      "stateMutability": "payable",
      "type": "function"
    },
    {
      "inputs": [],
      "name": "depositToken",
      "outputs": [
        {
          "internalType": "contract IERC20",
          "name": "",
          "type": "address"
        }
      ],
      "stateMutability": "view",
      "type": "function"
    },
    {
      "inputs": [
        {
          "internalType": "uint256",
          "name": "amount",
          "type": "uint256"
        },
        {
          "internalType": "uint256",
          "name": "deadline",
          "type": "uint256"
        },
        {
          "internalType": "uint8",
          "name": "v",
          "type": "uint8"
        },
        {
          "internalType": "bytes32",
          "name": "r",
          "type": "bytes32"
        },
        {
          "internalType": "bytes32",
          "name": "s",
          "type": "bytes32"
        }
      ],
      "name": "depositWithPermit",
      "outputs": [],
      "stateMutability": "nonpayable",
      "type": "function"
    },
    {
      "inputs": [],
      "name": "devAddr",
      "outputs": [
        {
          "internalType": "address",
          "name": "",
          "type": "address"
        }
      ],
      "stateMutability": "view",
      "type": "function"
    },
    {
      "inputs": [],
      "name": "estimateDeployedBalance",
      "outputs": [
        {
          "internalType": "uint256",
          "name": "",
          "type": "uint256"
        }
      ],
      "stateMutability": "view",
      "type": "function"
    },
    {
      "inputs": [],
      "name": "estimateReinvestReward",
      "outputs": [
        {
          "internalType": "uint256",
          "name": "",
          "type": "uint256"
        }
      ],
      "stateMutability": "view",
      "type": "function"
    },
    {
      "inputs": [],
      "name": "getActualLeverage",
      "outputs": [
        {
          "internalType": "uint256",
          "name": "",
          "type": "uint256"
        }
      ],
      "stateMutability": "view",
      "type": "function"
    },
    {
      "inputs": [
        {
          "internalType": "uint256",
          "name": "amount",
          "type": "uint256"
        }
      ],
      "name": "getDepositTokensForShares",
      "outputs": [
        {
          "internalType": "uint256",
          "name": "",
          "type": "uint256"
        }
      ],
      "stateMutability": "view",
      "type": "function"
    },
    {
      "inputs": [],
      "name": "getDomainSeparator",
      "outputs": [
        {
          "internalType": "bytes32",
          "name": "",
          "type": "bytes32"
        }
      ],
      "stateMutability": "view",
      "type": "function"
    },
    {
      "inputs": [
        {
          "internalType": "uint256",
          "name": "amount",
          "type": "uint256"
        }
      ],
      "name": "getSharesForDepositTokens",
      "outputs": [
        {
          "internalType": "uint256",
          "name": "",
          "type": "uint256"
        }
      ],
      "stateMutability": "view",
      "type": "function"
    },
    {
      "inputs": [],
      "name": "name",
      "outputs": [
        {
          "internalType": "string",
          "name": "",
          "type": "string"
        }
      ],
      "stateMutability": "view",
      "type": "function"
    },
    {
      "inputs": [
        {
          "internalType": "address",
          "name": "",
          "type": "address"
        }
      ],
      "name": "nonces",
      "outputs": [
        {
          "internalType": "uint256",
          "name": "",
          "type": "uint256"
        }
      ],
      "stateMutability": "view",
      "type": "function"
    },
    {
      "inputs": [],
      "name": "numberOfAllowedDepositors",
      "outputs": [
        {
          "internalType": "uint256",
          "name": "",
          "type": "uint256"
        }
      ],
      "stateMutability": "view",
      "type": "function"
    },
    {
      "inputs": [],
      "name": "owner",
      "outputs": [
        {
          "internalType": "address",
          "name": "",
          "type": "address"
        }
      ],
      "stateMutability": "view",
      "type": "function"
    },
    {
      "inputs": [
        {
          "internalType": "address",
          "name": "owner",
          "type": "address"
        },
        {
          "internalType": "address",
          "name": "spender",
          "type": "address"
        },
        {
          "internalType": "uint256",
          "name": "value",
          "type": "uint256"
        },
        {
          "internalType": "uint256",
          "name": "deadline",
          "type": "uint256"
        },
        {
          "internalType": "uint8",
          "name": "v",
          "type": "uint8"
        },
        {
          "internalType": "bytes32",
          "name": "r",
          "type": "bytes32"
        },
        {
          "internalType": "bytes32",
          "name": "s",
          "type": "bytes32"
        }
      ],
      "name": "permit",
      "outputs": [],
      "stateMutability": "nonpayable",
      "type": "function"
    },
    {
      "inputs": [
        {
          "internalType": "uint256",
          "name": "amount",
          "type": "uint256"
        }
      ],
      "name": "recoverAVAX",
      "outputs": [],
      "stateMutability": "nonpayable",
      "type": "function"
    },
    {
      "inputs": [
        {
          "internalType": "address",
          "name": "tokenAddress",
          "type": "address"
        },
        {
          "internalType": "uint256",
          "name": "tokenAmount",
          "type": "uint256"
        }
      ],
      "name": "recoverERC20",
      "outputs": [],
      "stateMutability": "nonpayable",
      "type": "function"
    },
    {
      "inputs": [],
      "name": "reinvest",
      "outputs": [],
      "stateMutability": "nonpayable",
      "type": "function"
    },
    {
      "inputs": [
        {
          "internalType": "address",
          "name": "depositor",
          "type": "address"
        }
      ],
      "name": "removeDepositor",
      "outputs": [],
      "stateMutability": "nonpayable",
      "type": "function"
    },
    {
      "inputs": [],
      "name": "renounceOwnership",
      "outputs": [],
      "stateMutability": "nonpayable",
      "type": "function"
    },
    {
      "inputs": [
        {
          "internalType": "uint256",
          "name": "minReturnAmountAccepted",
          "type": "uint256"
        },
        {
          "internalType": "bool",
          "name": "disableDeposits",
          "type": "bool"
        }
      ],
      "name": "rescueDeployedFunds",
      "outputs": [],
      "stateMutability": "nonpayable",
      "type": "function"
    },
    {
      "inputs": [
        {
          "internalType": "address",
          "name": "token",
          "type": "address"
        },
        {
          "internalType": "address",
          "name": "spender",
          "type": "address"
        }
      ],
      "name": "revokeAllowance",
      "outputs": [],
      "stateMutability": "nonpayable",
      "type": "function"
    },
    {
      "inputs": [],
      "name": "rewardToken",
      "outputs": [
        {
          "internalType": "contract IERC20",
          "name": "",
          "type": "address"
        }
      ],
      "stateMutability": "view",
      "type": "function"
    },
    {
      "inputs": [],
      "name": "setAllowances",
      "outputs": [],
      "stateMutability": "nonpayable",
      "type": "function"
    },
    {
      "inputs": [],
      "name": "symbol",
      "outputs": [
        {
          "internalType": "string",
          "name": "",
          "type": "string"
        }
      ],
      "stateMutability": "view",
      "type": "function"
    },
    {
      "inputs": [],
      "name": "totalDeposits",
      "outputs": [
        {
          "internalType": "uint256",
          "name": "",
          "type": "uint256"
        }
      ],
      "stateMutability": "view",
      "type": "function"
    },
    {
      "inputs": [],
      "name": "totalSupply",
      "outputs": [
        {
          "internalType": "uint256",
          "name": "",
          "type": "uint256"
        }
      ],
      "stateMutability": "view",
      "type": "function"
    },
    {
      "inputs": [
        {
          "internalType": "address",
          "name": "dst",
          "type": "address"
        },
        {
          "internalType": "uint256",
          "name": "amount",
          "type": "uint256"
        }
      ],
      "name": "transfer",
      "outputs": [
        {
          "internalType": "bool",
          "name": "",
          "type": "bool"
        }
      ],
      "stateMutability": "nonpayable",
      "type": "function"
    },
    {
      "inputs": [
        {
          "internalType": "address",
          "name": "src",
          "type": "address"
        },
        {
          "internalType": "address",
          "name": "dst",
          "type": "address"
        },
        {
          "internalType": "uint256",
          "name": "amount",
          "type": "uint256"
        }
      ],
      "name": "transferFrom",
      "outputs": [
        {
          "internalType": "bool",
          "name": "",
          "type": "bool"
        }
      ],
      "stateMutability": "nonpayable",
      "type": "function"
    },
    {
      "inputs": [
        {
          "internalType": "address",
          "name": "newOwner",
          "type": "address"
        }
      ],
      "name": "transferOwnership",
      "outputs": [],
      "stateMutability": "nonpayable",
      "type": "function"
    },
    {
      "inputs": [
        {
          "internalType": "uint256",
          "name": "newValue",
          "type": "uint256"
        }
      ],
      "name": "updateAdminFee",
      "outputs": [],
      "stateMutability": "nonpayable",
      "type": "function"
    },
    {
      "inputs": [
        {
          "internalType": "bool",
          "name": "newValue",
          "type": "bool"
        }
      ],
      "name": "updateDepositsEnabled",
      "outputs": [],
      "stateMutability": "nonpayable",
      "type": "function"
    },
    {
      "inputs": [
        {
          "internalType": "address",
          "name": "newValue",
          "type": "address"
        }
      ],
      "name": "updateDevAddr",
      "outputs": [],
      "stateMutability": "nonpayable",
      "type": "function"
    },
    {
      "inputs": [
        {
          "internalType": "uint256",
          "name": "newValue",
          "type": "uint256"
        }
      ],
      "name": "updateDevFee",
      "outputs": [],
      "stateMutability": "nonpayable",
      "type": "function"
    },
    {
      "inputs": [
        {
          "internalType": "uint256",
          "name": "_leverageLevel",
          "type": "uint256"
        },
        {
          "internalType": "uint256",
          "name": "_leverageBips",
          "type": "uint256"
        }
      ],
      "name": "updateLeverage",
      "outputs": [],
      "stateMutability": "nonpayable",
      "type": "function"
    },
    {
      "inputs": [
        {
          "internalType": "uint256",
          "name": "newValue",
          "type": "uint256"
        }
      ],
      "name": "updateMaxTokensToDepositWithoutReinvest",
      "outputs": [],
      "stateMutability": "nonpayable",
      "type": "function"
    },
    {
      "inputs": [
        {
          "internalType": "uint256",
          "name": "newValue",
          "type": "uint256"
        }
      ],
      "name": "updateMinTokensToReinvest",
      "outputs": [],
      "stateMutability": "nonpayable",
      "type": "function"
    },
    {
      "inputs": [
        {
          "internalType": "uint256",
          "name": "newValue",
          "type": "uint256"
        }
      ],
      "name": "updateReinvestReward",
      "outputs": [],
      "stateMutability": "nonpayable",
      "type": "function"
    },
    {
      "inputs": [
        {
          "internalType": "uint256",
          "name": "amount",
          "type": "uint256"
        }
      ],
      "name": "withdraw",
      "outputs": [],
      "stateMutability": "nonpayable",
      "type": "function"
    },
    {
      "stateMutability": "payable",
      "type": "receive"
    }
  ],
  "transactionHash": "0xaf363588ce9959b32a5f2971a6a9fa76f30939879ef0a4dca88af9a7758e7313",
  "args": [
    "Yield Yak: Banker Joe AVAX",
    "0xdc13687554205E5b89Ac783db14bb5bba4A1eDaC",
    "0xC22F01ddc8010Ee05574028528614634684EC29e",
    "0x6e84a6216eA6dACC71eE8E6b0a5B7322EEbC0fDd",
    "0x454e67025631c065d3cfad6d71e6892f74487a15",
    "0x8d36C5c6947ADCcd25Ef49Ea1aAC2ceACFff0bD7",
    "1000000000000",
    "36996",
    "10000",
    "100000000000000",
    700,
    0,
    100
  ],
  "solcInputHash": "b40aa648e2e1dd3bf98127dbe546c174",
  "bytecode": "0x60c060405260096080819052685969656c642059616b60b81b60a09081526200002c916000919062000e43565b506040805180820190915260038082526216549560ea1b6020909201918252620000599160019162000e43565b503480156200006757600080fd5b5060405162005eba38038062005eba83398181016040526101a08110156200008e57600080fd5b8101908080516040519392919084640100000000821115620000af57600080fd5b908301906020820185811115620000c557600080fd5b8251640100000000811182820188101715620000e057600080fd5b82525081516020918201929091019080838360005b838110156200010f578181015183820152602001620000f5565b50505050905090810190601f1680156200013d5780820380516001836020036101000a031916815260200191505b5060409081526020820151908201516060830151608084015160a085015160c086015160e08701516101008801516101208901516101408a01516101608b0151610180909b0151999c50979a509598949793969295919490939192916000620001a56200033e565b600680546001600160a01b0319166001600160a01b0383169081179091556040519192509060009060008051602062005e4c833981519152908290a35060016012819055508c600090805190602001906200020292919062000e43565b50601380546001600160a01b03808f166001600160a01b031992831617909255601480548e8416908316179055601580548d841690831617905560168054821673b31f66aa3c1e785363f0875a1b74e27b85fd66c71790819055600a80549092169216919091179055601a8790556200027c868662000342565b600b80546001600160a01b03191633179055620002986200034d565b620002a389620004fa565b620002ad620007d1565b620002b884620008c0565b620002c3836200096a565b620002ce8262000a5a565b620002d98162000b36565b620002e5600162000c12565b620002f08862000cd8565b604080516000808252602082015281517fc7606d21ac05cd309191543e409f0845c016120563783d70e4f41419dc0ef234929181900390910190a15050505050505050505050505062000edf565b3390565b601891909155601955565b60408051600180825281830190925260609160208083019080368337505060145482519293506001600160a01b0316918391506000906200038a57fe5b6001600160a01b03928316602091820292909201810191909152601354604051631853304760e31b815260048101838152855160248301528551929094169363c299823893869391928392604490910191858101910280838360005b8381101562000400578181015183820152602001620003e6565b5050505090500192505050600060405180830381600087803b1580156200042657600080fd5b505af11580156200043b573d6000803e3d6000fd5b505050506040513d6000823e601f3d908101601f1916820160405260208110156200046557600080fd5b81019080805160405193929190846401000000008211156200048657600080fd5b9083019060208201858111156200049c57600080fd5b8251866020820283011164010000000082111715620004ba57600080fd5b82525081516020918201928201910280838360005b83811015620004e9578181015183820152602001620004cf565b505050509050016040525050505050565b6001600160a01b038116620005415760405162461bcd60e51b815260040180806020018281038252602981526020018062005e036029913960400191505060405180910390fd5b806001600160a01b0316630dfe16816040518163ffffffff1660e01b815260040160206040518083038186803b1580156200057b57600080fd5b505afa15801562000590573d6000803e3d6000fd5b505050506040513d6020811015620005a757600080fd5b50516015546001600160a01b03908116911614806200063b5750806001600160a01b031663d21220a76040518163ffffffff1660e01b815260040160206040518083038186803b158015620005fb57600080fd5b505afa15801562000610573d6000803e3d6000fd5b505050506040513d60208110156200062757600080fd5b50516015546001600160a01b039081169116145b620006785760405162461bcd60e51b815260040180806020018281038252602781526020018062005e936027913960400191505060405180910390fd5b806001600160a01b0316630dfe16816040518163ffffffff1660e01b815260040160206040518083038186803b158015620006b257600080fd5b505afa158015620006c7573d6000803e3d6000fd5b505050506040513d6020811015620006de57600080fd5b50516016546001600160a01b0390811691161480620007725750806001600160a01b031663d21220a76040518163ffffffff1660e01b815260040160206040518083038186803b1580156200073257600080fd5b505afa15801562000747573d6000803e3d6000fd5b505050506040513d60208110156200075e57600080fd5b50516016546001600160a01b039081169116145b620007af5760405162461bcd60e51b815260040180806020018281038252602781526020018062005e6c6027913960400191505060405180910390fd5b601780546001600160a01b0319166001600160a01b0392909216919091179055565b620007db6200033e565b6001600160a01b0316620007ee62000dd2565b6001600160a01b03161462000839576040805162461bcd60e51b8152602060048201819052602482015260008051602062005e2c833981519152604482015290519081900360640190fd5b6014546040805163095ea7b360e01b81526001600160a01b039092166004830181905260001960248401529051909163095ea7b39160448083019260209291908290030181600087803b1580156200089057600080fd5b505af1158015620008a5573d6000803e3d6000fd5b505050506040513d6020811015620008bc57600080fd5b5050565b620008ca6200033e565b6001600160a01b0316620008dd62000dd2565b6001600160a01b03161462000928576040805162461bcd60e51b8152602060048201819052602482015260008051602062005e2c833981519152604482015290519081900360640190fd5b600c54604080519182526020820183905280517f481f79ac3a523b6d6db3c5a720e190e986d1cc1b41adcdf50f9caef8499011009281900390910190a1600c55565b620009746200033e565b6001600160a01b03166200098762000dd2565b6001600160a01b031614620009d2576040805162461bcd60e51b8152602060048201819052602482015260008051602062005e2c833981519152604482015290519081900360640190fd5b61271062000a0c600f54620009f86011548562000de160201b620028d41790919060201c565b62000de160201b620028d41790919060201c565b111562000a1857600080fd5b601054604080519182526020820183905280517f3cc372f330f95ac9540626dc8a25f5bf21ba607215a5d58304cb804d446f104a9281900390910190a1601055565b62000a646200033e565b6001600160a01b031662000a7762000dd2565b6001600160a01b03161462000ac2576040805162461bcd60e51b8152602060048201819052602482015260008051602062005e2c833981519152604482015290519081900360640190fd5b61271062000ae8600f54620009f86010548562000de160201b620028d41790919060201c565b111562000af457600080fd5b601154604080519182526020820183905280517f2a42303d002f0ba6cfe8259c91d4684443fb0b3de286ba74991175d6517261319281900390910190a1601155565b62000b406200033e565b6001600160a01b031662000b5362000dd2565b6001600160a01b03161462000b9e576040805162461bcd60e51b8152602060048201819052602482015260008051602062005e2c833981519152604482015290519081900360640190fd5b61271062000bc4601154620009f86010548562000de160201b620028d41790919060201c565b111562000bd057600080fd5b600f54604080519182526020820183905280517fe7f97d51d307dc44045597c9978bec0f842e6bb40d19b9444084cfa30d9ed4f29281900390910190a1600f55565b62000c1c6200033e565b6001600160a01b031662000c2f62000dd2565b6001600160a01b03161462000c7a576040805162461bcd60e51b8152602060048201819052602482015260008051602062005e2c833981519152604482015290519081900360640190fd5b600e5460ff161515811515141562000c9157600080fd5b600e805482151560ff19909116811790915560408051918252517f7b014ed3854e7f5cb0218d58b3c6ae7d53a68bb0af2f67bfb029ea42c38a7e859181900360200190a150565b62000ce26200033e565b6001600160a01b031662000cf562000dd2565b6001600160a01b03161462000d40576040805162461bcd60e51b8152602060048201819052602482015260008051602062005e2c833981519152604482015290519081900360640190fd5b6001600160a01b03811662000d875760405162461bcd60e51b815260040180806020018281038252602681526020018062005ddd6026913960400191505060405180910390fd5b6006546040516001600160a01b0380841692169060008051602062005e4c83398151915290600090a3600680546001600160a01b0319166001600160a01b0392909216919091179055565b6006546001600160a01b031690565b60008282018381101562000e3c576040805162461bcd60e51b815260206004820152601b60248201527f536166654d6174683a206164646974696f6e206f766572666c6f770000000000604482015290519081900360640190fd5b9392505050565b828054600181600116156101000203166002900490600052602060002090601f016020900481019282601f1062000e8657805160ff191683800117855562000eb6565b8280016001018555821562000eb6579182015b8281111562000eb657825182559160200191906001019062000e99565b5062000ec492915062000ec8565b5090565b5b8082111562000ec4576000815560010162000ec9565b614eee8062000eef6000396000f3fe6080604052600436106103905760003560e01c80638da5cb5b116101dc578063c89039c511610102578063dd62ed3e116100a0578063ed24911d1161006f578063ed24911d14610cc4578063f2fde38b14610cd9578063f7c618c114610d0c578063fdb5a03e14610d2157610413565b8063dd62ed3e14610c0b578063dd8ce4d614610c46578063e21ac82514610c70578063eab89a5a14610c9a57610413565b8063d505accf116100dc578063d505accf14610b6e578063da09c72c14610bcc578063db8dd95c14610be1578063dbd9a4d414610bf657610413565b8063c89039c514610b27578063cff1b6ef14610b3c578063d0e30db014610b6657610413565b8063a9059cbb1161017a578063b6b55f2511610149578063b6b55f2514610abe578063b9e57b8014610ae8578063bd079f5514610afd578063c4b24a4614610b1257610413565b8063a9059cbb14610a18578063aa67c91914610a51578063ac0d31ff14610a77578063b52a321f14610aa957610413565b806399729ec1116101b657806399729ec11461097f5780639e4e7318146109a9578063a24159d3146109be578063a8ae2b7c146109ee57610413565b80638da5cb5b146109065780639291d5631461093757806395d89b411461096a57610413565b80634bebd1e7116102c1578063789139bc1161025f578063818372301161022e578063818372301461085b5780638980f11f146108855780638aff733d146108be5780638b73e606146108d357610413565b8063789139bc146107c35780637ae26773146107d85780637d882097146108135780637ecebe001461082857610413565b80635b53ce101161029b5780635b53ce10146107515780635ea682ea1461076657806370a082311461077b578063715018a6146107ae57610413565b80634bebd1e7146106c85780634e77ace5146106fb5780634ebb79161461072757610413565b80632e1a7d4d1161032e578063313ce56711610308578063313ce567146106105780633bdc6e721461063b578063483c2ef0146106505780634a970be71461068357610413565b80632e1a7d4d146105985780632f4f21e2146105c257806330adf81f146105fb57610413565b80630f23475d1161036a5780630f23475d1461051657806318160ddd1461052b57806320606b701461054057806323b872dd1461055557610413565b806306fdde031461041857806307677111146104a2578063095ea7b3146104c957610413565b36610413576013546001600160a01b03163314806103c157503373b31f66aa3c1e785363f0875a1b74e27b85fd66c7145b806103d657506014546001600160a01b031633145b6104115760405162461bcd60e51b815260040180806020018281038252602e815260200180614a6b602e913960400191505060405180910390fd5b005b600080fd5b34801561042457600080fd5b5061042d610d36565b6040805160208082528351818301528351919283929083019185019080838360005b8381101561046757818101518382015260200161044f565b50505050905090810190601f1680156104945780820380516001836020036101000a031916815260200191505b509250505060405180910390f35b3480156104ae57600080fd5b506104b7610dc4565b60408051918252519081900360200190f35b3480156104d557600080fd5b50610502600480360360408110156104ec57600080fd5b506001600160a01b038135169060200135610dca565b604080519115158252519081900360200190f35b34801561052257600080fd5b506104b7610de1565b34801561053757600080fd5b506104b7610df1565b34801561054c57600080fd5b506104b7610df7565b34801561056157600080fd5b506105026004803603606081101561057857600080fd5b506001600160a01b03813581169160208101359091169060400135610e1b565b3480156105a457600080fd5b50610411600480360360208110156105bb57600080fd5b5035610efd565b3480156105ce57600080fd5b50610411600480360360408110156105e557600080fd5b506001600160a01b038135169060200135610413565b34801561060757600080fd5b506104b761103c565b34801561061c57600080fd5b50610625611060565b6040805160ff9092168252519081900360200190f35b34801561064757600080fd5b506104b7611065565b34801561065c57600080fd5b506105026004803603602081101561067357600080fd5b50356001600160a01b031661106b565b34801561068f57600080fd5b50610411600480360360a08110156106a657600080fd5b5080359060208101359060ff6040820135169060608101359060800135610413565b3480156106d457600080fd5b50610411600480360360208110156106eb57600080fd5b50356001600160a01b0316611080565b34801561070757600080fd5b506104116004803603602081101561071e57600080fd5b503515156111bc565b34801561073357600080fd5b506104116004803603602081101561074a57600080fd5b503561127b565b34801561075d57600080fd5b50610411611357565b34801561077257600080fd5b506104b76113e8565b34801561078757600080fd5b506104b76004803603602081101561079e57600080fd5b50356001600160a01b03166113ee565b3480156107ba57600080fd5b5061041161140d565b3480156107cf57600080fd5b506104b76114c6565b3480156107e457600080fd5b50610411600480360360408110156107fb57600080fd5b506001600160a01b03813581169160200135166114cc565b34801561081f57600080fd5b506104b76115bf565b34801561083457600080fd5b506104b76004803603602081101561084b57600080fd5b50356001600160a01b031661167b565b34801561086757600080fd5b506104116004803603602081101561087e57600080fd5b503561168d565b34801561089157600080fd5b50610411600480360360408110156108a857600080fd5b506001600160a01b038135169060200135611731565b3480156108ca57600080fd5b506104b7611885565b3480156108df57600080fd5b50610411600480360360208110156108f657600080fd5b50356001600160a01b031661188b565b34801561091257600080fd5b5061091b6119f2565b604080516001600160a01b039092168252519081900360200190f35b34801561094357600080fd5b506104116004803603602081101561095a57600080fd5b50356001600160a01b0316611a01565b34801561097657600080fd5b5061042d611ad7565b34801561098b57600080fd5b50610411600480360360208110156109a257600080fd5b5035611b31565b3480156109b557600080fd5b506104b7611c04565b3480156109ca57600080fd5b50610411600480360360408110156109e157600080fd5b5080359060200135611c28565b3480156109fa57600080fd5b5061041160048036036020811015610a1157600080fd5b5035611cb7565b348015610a2457600080fd5b5061050260048036036040811015610a3b57600080fd5b506001600160a01b038135169060200135611d84565b61041160048036036020811015610a6757600080fd5b50356001600160a01b0316611d91565b348015610a8357600080fd5b5061041160048036036040811015610a9a57600080fd5b50803590602001351515611e00565b348015610ab557600080fd5b50610502611fc8565b348015610aca57600080fd5b5061041160048036036020811015610ae157600080fd5b5035610413565b348015610af457600080fd5b506104b7611fd1565b348015610b0957600080fd5b506104b7612012565b348015610b1e57600080fd5b506104b7612018565b348015610b3357600080fd5b5061091b612023565b348015610b4857600080fd5b5061041160048036036020811015610b5f57600080fd5b5035612032565b6104116120ff565b348015610b7a57600080fd5b50610411600480360360e0811015610b9157600080fd5b506001600160a01b03813581169160208101359091169060408101359060608101359060ff6080820135169060a08101359060c0013561216d565b348015610bd857600080fd5b5061091b61226d565b348015610bed57600080fd5b506104b761227c565b348015610c0257600080fd5b50610411612352565b348015610c1757600080fd5b506104b760048036036040811015610c2e57600080fd5b506001600160a01b038135811691602001351661244d565b348015610c5257600080fd5b506104b760048036036020811015610c6957600080fd5b5035612478565b348015610c7c57600080fd5b5061041160048036036020811015610c9357600080fd5b50356124b2565b348015610ca657600080fd5b506104b760048036036020811015610cbd57600080fd5b5035612556565b348015610cd057600080fd5b506104b7612587565b348015610ce557600080fd5b5061041160048036036020811015610cfc57600080fd5b50356001600160a01b0316612694565b348015610d1857600080fd5b5061091b6127a4565b348015610d2d57600080fd5b506104116127b3565b6000805460408051602060026001851615610100026000190190941693909304601f81018490048402820184019092528181529291830182828015610dbc5780601f10610d9157610100808354040283529160200191610dbc565b820191906000526020600020905b815481529060010190602001808311610d9f57829003601f168201915b505050505081565b60105481565b6000610dd7338484612935565b5060015b92915050565b6000610deb6115bf565b90505b90565b60025481565b7f8b73c3c69bb8fe3d512ecc4cf759cc79239f7b179b0ffacaa9a75d522b39400f81565b6001600160a01b038316600081815260036020908152604080832033808552925282205491929091908214801590610e5557506000198114155b15610ee6576000610e81856040518060600160405280602f8152602001614db5602f9139849190612a4d565b6001600160a01b0380891660008181526003602090815260408083209489168084529482529182902085905581518581529151949550929391927f8c5be1e5ebec7d5bd14f71427d1e84f3dd0314c0f7b2291e5b200ac8c7c3b92592918290030190a3505b610ef1868686612ae4565b50600195945050505050565b6000610f1d600254610f1784610f11612bf1565b90612cff565b90612d58565b9050601a548111610f5f5760405162461bcd60e51b8152600401808060200182810382526031815260200180614d236031913960400191505060405180910390fd5b610f693383612d9a565b610f7281612e6f565b604051600090339083908381818185875af1925050503d8060008114610fb4576040519150601f19603f3d011682016040523d82523d6000602084013e610fb9565b606091505b5050905080610ff95760405162461bcd60e51b8152600401808060200182810382526032815260200180614bdd6032913960400191505060405180910390fd5b60408051838152905133917f884edad9ce6fa2440d8a54cc123490eb96d2768479d49ff9c7366125a9424364919081900360200190a2611037611357565b505050565b7f6e71edae12b1b97f4d1f60370fef10105fa2faae0126114a169c64845d6126c981565b601281565b60075481565b60086020526000908152604090205460ff1681565b611088613036565b6001600160a01b03166110996119f2565b6001600160a01b0316146110e2576040805162461bcd60e51b81526020600482018190526024820152600080516020614d03833981519152604482015290519081900360640190fd5b6001600160a01b03811660009081526008602052604090205460ff1615611150576040805162461bcd60e51b815260206004820152601c60248201527f5065726d697373696f6e65643a3a616c6c6f774465706f7369746f7200000000604482015290519081900360640190fd5b6001600160a01b0381166000908152600860205260409020805460ff19166001908117909155600754611182916128d4565b6007556040516001600160a01b038216907fc0a1035c16faf8d1304056d92c00edf028f87e62b8235a938f00af9e3c0312c590600090a250565b6111c4613036565b6001600160a01b03166111d56119f2565b6001600160a01b03161461121e576040805162461bcd60e51b81526020600482018190526024820152600080516020614d03833981519152604482015290519081900360640190fd5b600e5460ff161515811515141561123457600080fd5b600e805482151560ff19909116811790915560408051918252517f7b014ed3854e7f5cb0218d58b3c6ae7d53a68bb0af2f67bfb029ea42c38a7e859181900360200190a150565b611283613036565b6001600160a01b03166112946119f2565b6001600160a01b0316146112dd576040805162461bcd60e51b81526020600482018190526024820152600080516020614d03833981519152604482015290519081900360640190fd5b600081116112ea57600080fd5b604051339082156108fc029083906000818181858888f19350505050158015611317573d6000803e3d6000fd5b5060408051600081526020810183905281517f8c1256b8896378cd5044f80c202f9772b9d77dc85c8a6eb51967210b09bfaa28929181900390910190a150565b600e5460ff161515600114156113e657600c5461137560013061303a565b106113e65760135460408051630952c56360e01b81526001600482015230602482015290516001600160a01b0390921691630952c5639160448082019260009290919082900301818387803b1580156113cd57600080fd5b505af11580156113e1573d6000803e3d6000fd5b505050505b565b60115481565b6001600160a01b0381166000908152600460205260409020545b919050565b611415613036565b6001600160a01b03166114266119f2565b6001600160a01b03161461146f576040805162461bcd60e51b81526020600482018190526024820152600080516020614d03833981519152604482015290519081900360640190fd5b6006546040516000916001600160a01b0316907f8be0079c531659141344cd1fd0a4f28419497f9722a3daafe3b4186f6b6457e0908390a36006805473ffffffffffffffffffffffffffffffffffffffff19169055565b600d5481565b6114d4613036565b6001600160a01b03166114e56119f2565b6001600160a01b03161461152e576040805162461bcd60e51b81526020600482018190526024820152600080516020614d03833981519152604482015290519081900360640190fd5b816001600160a01b031663095ea7b38260006040518363ffffffff1660e01b815260040180836001600160a01b0316815260200182815260200192505050602060405180830381600087803b15801561158657600080fd5b505af115801561159a573d6000803e3d6000fd5b505050506040513d60208110156115b057600080fd5b50516115bb57600080fd5b5050565b601454604080516361bfb47160e11b815230600482015290516000928392839283926001600160a01b03169163c37f68e2916024808301926080929190829003018186803b15801561161057600080fd5b505afa158015611624573d6000803e3d6000fd5b505050506040513d608081101561163a57600080fd5b506020810151604082015160609092015190945090925090506116738261166d670de0b6b3a7640000610f178786612cff565b9061350f565b935050505090565b60056020526000908152604090205481565b611695613036565b6001600160a01b03166116a66119f2565b6001600160a01b0316146116ef576040805162461bcd60e51b81526020600482018190526024820152600080516020614d03833981519152604482015290519081900360640190fd5b600c54604080519182526020820183905280517f481f79ac3a523b6d6db3c5a720e190e986d1cc1b41adcdf50f9caef8499011009281900390910190a1600c55565b611739613036565b6001600160a01b031661174a6119f2565b6001600160a01b031614611793576040805162461bcd60e51b81526020600482018190526024820152600080516020614d03833981519152604482015290519081900360640190fd5b600081116117a057600080fd5b604080517fa9059cbb0000000000000000000000000000000000000000000000000000000081523360048201526024810183905290516001600160a01b0384169163a9059cbb9160448083019260209291908290030181600087803b15801561180857600080fd5b505af115801561181c573d6000803e3d6000fd5b505050506040513d602081101561183257600080fd5b505161183d57600080fd5b604080516001600160a01b03841681526020810183905281517f8c1256b8896378cd5044f80c202f9772b9d77dc85c8a6eb51967210b09bfaa28929181900390910190a15050565b600f5481565b611893613036565b6001600160a01b03166118a46119f2565b6001600160a01b0316146118ed576040805162461bcd60e51b81526020600482018190526024820152600080516020614d03833981519152604482015290519081900360640190fd5b60006007541161192e5760405162461bcd60e51b8152600401808060200182810382526034815260200180614b146034913960400191505060405180910390fd5b6001600160a01b03811660009081526008602052604090205460ff16151560011461198a5760405162461bcd60e51b815260040180806020018281038252602a815260200180614c3f602a913960400191505060405180910390fd5b6001600160a01b0381166000908152600860205260409020805460ff191690556007546119b890600161350f565b6007556040516001600160a01b038216907f0e86f6608b536e5339a25b65ff531f5ea91e1313d056ecd4752b35cbd16137d490600090a250565b6006546001600160a01b031690565b600b546001600160a01b03163314611a60576040805162461bcd60e51b815260206004820152601460248201527f59616b53747261746567793a3a6f6e6c79446576000000000000000000000000604482015290519081900360640190fd5b600b54604080516001600160a01b039283168152918316602083015280517fa8e91499ed37682f43cffb045fcc7d379a91e8c9a14e6321877ee34dee564c009281900390910190a1600b805473ffffffffffffffffffffffffffffffffffffffff19166001600160a01b0392909216919091179055565b60018054604080516020600284861615610100026000190190941693909304601f81018490048402820184019092528181529291830182828015610dbc5780601f10610d9157610100808354040283529160200191610dbc565b611b39613036565b6001600160a01b0316611b4a6119f2565b6001600160a01b031614611b93576040805162461bcd60e51b81526020600482018190526024820152600080516020614d03833981519152604482015290519081900360640190fd5b612710611bb7600f54611bb1601054856128d490919063ffffffff16565b906128d4565b1115611bc257600080fd5b601154604080519182526020820183905280517f2a42303d002f0ba6cfe8259c91d4684443fb0b3de286ba74991175d6517261319281900390910190a1601155565b7fc89efdaa54c0f20c7adf612882df0950f5a951637e0307cdcb4c672f298b8bc681565b600b546001600160a01b03163314611c87576040805162461bcd60e51b815260206004820152601460248201527f59616b53747261746567793a3a6f6e6c79446576000000000000000000000000604482015290519081900360640190fd5b611c918282613551565b6000611c9b612bf1565b9050611ca68161355c565b8015611037576110378160006138ea565b611cbf613036565b6001600160a01b0316611cd06119f2565b6001600160a01b031614611d19576040805162461bcd60e51b81526020600482018190526024820152600080516020614d03833981519152604482015290519081900360640190fd5b612710611d37601154611bb1601054856128d490919063ffffffff16565b1115611d4257600080fd5b600f54604080519182526020820183905280517fe7f97d51d307dc44045597c9978bec0f842e6bb40d19b9444084cfa30d9ed4f29281900390910190a1600f55565b6000610dd7338484612ae4565b60026012541415611de9576040805162461bcd60e51b815260206004820152601f60248201527f5265656e7472616e637947756172643a207265656e7472616e742063616c6c00604482015290519081900360640190fd5b6002601255611df88134613b7e565b506001601255565b611e08613036565b6001600160a01b0316611e196119f2565b6001600160a01b031614611e62576040805162461bcd60e51b81526020600482018190526024820152600080516020614d03833981519152604482015290519081900360640190fd5b476000611e6d612bf1565b9050611e788161355c565b601454604080517f852a12e30000000000000000000000000000000000000000000000000000000081526004810184905290516001600160a01b039092169163852a12e3916024808201926020929091908290030181600087803b158015611edf57600080fd5b505af1158015611ef3573d6000803e3d6000fd5b505050506040513d6020811015611f0957600080fd5b5047905084611f18828561350f565b1015611f555760405162461bcd60e51b815260040180806020018281038252602d815260200180614b8e602d913960400191505060405180910390fd5b7fc7606d21ac05cd309191543e409f0845c016120563783d70e4f41419dc0ef234611f7e6115bf565b6002546040805192835260208301919091528051918290030190a1600e5460ff1615156001148015611fb257506001841515145b15611fc157611fc160006111bc565b5050505050565b600e5460ff1681565b600080611fdc612018565b9050600c54811061200a57612002612710610f17600f5484612cff90919063ffffffff16565b915050610dee565b600091505090565b600c5481565b600080611673613cf3565b6009546001600160a01b031681565b61203a613036565b6001600160a01b031661204b6119f2565b6001600160a01b031614612094576040805162461bcd60e51b81526020600482018190526024820152600080516020614d03833981519152604482015290519081900360640190fd5b6127106120b2600f54611bb1601154856128d490919063ffffffff16565b11156120bd57600080fd5b601054604080519182526020820183905280517f3cc372f330f95ac9540626dc8a25f5bf21ba607215a5d58304cb804d446f104a9281900390910190a1601055565b60026012541415612157576040805162461bcd60e51b815260206004820152601f60248201527f5265656e7472616e637947756172643a207265656e7472616e742063616c6c00604482015290519081900360640190fd5b60026012556121663334613b7e565b6001601255565b428410156121c2576040805162461bcd60e51b815260206004820152600f60248201527f7065726d69743a3a657870697265640000000000000000000000000000000000604482015290519081900360640190fd5b6001600160a01b0380881660008181526005602090815260409182902080546001810190915582517f6e71edae12b1b97f4d1f60370fef10105fa2faae0126114a169c64845d6126c98184015280840194909452938a1660608401526080830189905260a083019390935260c08083018890528151808403909101815260e0909201905280519101206122588882868686613dd5565b612263888888612935565b5050505050505050565b600b546001600160a01b031681565b601454604080516361bfb47160e11b815230600482015290516000928392839283926001600160a01b03169163c37f68e2916024808301926080929190829003018186803b1580156122cd57600080fd5b505afa1580156122e1573d6000803e3d6000fd5b505050506040513d60808110156122f757600080fd5b506020810151604082015160609092015190945090925090506000612328670de0b6b3a7640000610f178685612cff565b9050612349612337828561350f565b610f1783670de0b6b3a7640000612cff565b94505050505090565b61235a613036565b6001600160a01b031661236b6119f2565b6001600160a01b0316146123b4576040805162461bcd60e51b81526020600482018190526024820152600080516020614d03833981519152604482015290519081900360640190fd5b601454604080517f095ea7b30000000000000000000000000000000000000000000000000000000081526001600160a01b039092166004830181905260001960248401529051909163095ea7b39160448083019260209291908290030181600087803b15801561242357600080fd5b505af1158015612437573d6000803e3d6000fd5b505050506040513d60208110156115bb57600080fd5b6001600160a01b03918216600090815260036020908152604080832093909416825291909152205490565b600061248e6124856115bf565b60025490612cff565b612499575080611408565b610ddb6124a46115bf565b600254610f17908590612cff565b6124ba613036565b6001600160a01b03166124cb6119f2565b6001600160a01b031614612514576040805162461bcd60e51b81526020600482018190526024820152600080516020614d03833981519152604482015290519081900360640190fd5b600d54604080519182526020820183905280517fa5dae50539d56dfe1fb5273d883b0c39bc76750a25d036fc5fbd09ad8fd5f57f9281900390910190a1600d55565b60006125636124856115bf565b61256f57506000611408565b610ddb600254610f176125806115bf565b8590612cff565b60007f8b73c3c69bb8fe3d512ecc4cf759cc79239f7b179b0ffacaa9a75d522b39400f60001b6000604051808280546001816001161561010002031660029004801561260a5780601f106125e857610100808354040283529182019161260a565b820191906000526020600020905b8154815290600101906020018083116125f6575b505091505060405180910390207fc89efdaa54c0f20c7adf612882df0950f5a951637e0307cdcb4c672f298b8bc660001b612643613f04565b3060405160200180868152602001858152602001848152602001838152602001826001600160a01b031681526020019550505050505060405160208183030381529060405280519060200120905090565b61269c613036565b6001600160a01b03166126ad6119f2565b6001600160a01b0316146126f6576040805162461bcd60e51b81526020600482018190526024820152600080516020614d03833981519152604482015290519081900360640190fd5b6001600160a01b03811661273b5760405162461bcd60e51b8152600401808060200182810382526026815260200180614ac06026913960400191505060405180910390fd5b6006546040516001600160a01b038084169216907f8be0079c531659141344cd1fd0a4f28419497f9722a3daafe3b4186f6b6457e090600090a36006805473ffffffffffffffffffffffffffffffffffffffff19166001600160a01b0392909216919091179055565b600a546001600160a01b031681565b323314612807576040805162461bcd60e51b815260206004820152601460248201527f59616b53747261746567793a3a6f6e6c79454f41000000000000000000000000604482015290519081900360640190fd5b6002601254141561285f576040805162461bcd60e51b815260206004820152601f60248201527f5265656e7472616e637947756172643a207265656e7472616e742063616c6c00604482015290519081900360640190fd5b600260125560008080612870613cf3565b925092509250600c548110156128b75760405162461bcd60e51b8152600401808060200182810382526022815260200180614bbb6022913960400191505060405180910390fd5b6128c2838383613f08565b6128ca611357565b5050600160125550565b60008282018381101561292e576040805162461bcd60e51b815260206004820152601b60248201527f536166654d6174683a206164646974696f6e206f766572666c6f770000000000604482015290519081900360640190fd5b9392505050565b6001600160a01b038316612990576040805162461bcd60e51b815260206004820152601c60248201527f5f617070726f76653a3a6f776e6572207a65726f206164647265737300000000604482015290519081900360640190fd5b6001600160a01b0382166129eb576040805162461bcd60e51b815260206004820152601e60248201527f5f617070726f76653a3a7370656e646572207a65726f20616464726573730000604482015290519081900360640190fd5b6001600160a01b03808416600081815260036020908152604080832094871680845294825291829020859055815185815291517f8c5be1e5ebec7d5bd14f71427d1e84f3dd0314c0f7b2291e5b200ac8c7c3b9259281900390910190a3505050565b60008184841115612adc5760405162461bcd60e51b81526004018080602001828103825283818151815260200191508051906020019080838360005b83811015612aa1578181015183820152602001612a89565b50505050905090810190601f168015612ace5780820380516001836020036101000a031916815260200191505b509250505060405180910390fd5b505050900390565b6001600160a01b038216612b295760405162461bcd60e51b8152600401808060200182810382526034815260200180614d546034913960400191505060405180910390fd5b612b66816040518060600160405280602e8152602001614e8b602e91396001600160a01b0386166000908152600460205260409020549190612a4d565b6001600160a01b038085166000908152600460205260408082209390935590841681522054612b9590826128d4565b6001600160a01b0380841660008181526004602090815260409182902094909455805185815290519193928716927fddf252ad1be2c89b69c2b068fc378daa952ba7f163c4a11628f55a4df523b3ef92918290030190a3505050565b601454604080516305eff7ef60e21b8152306004820152905160009283926001600160a01b03909116916317bfdfbc9160248082019260209290919082900301818787803b158015612c4257600080fd5b505af1158015612c56573d6000803e3d6000fd5b505050506040513d6020811015612c6c57600080fd5b505160145460408051633af9e66960e01b815230600482015290519293506000926001600160a01b0390921691633af9e6699160248082019260209290919082900301818787803b158015612cc057600080fd5b505af1158015612cd4573d6000803e3d6000fd5b505050506040513d6020811015612cea57600080fd5b50519050612cf8818361350f565b9250505090565b600082612d0e57506000610ddb565b82820282848281612d1b57fe5b041461292e5760405162461bcd60e51b8152600401808060200182810382526021815260200180614ce26021913960400191505060405180910390fd5b600061292e83836040518060400160405280601a81526020017f536166654d6174683a206469766973696f6e206279207a65726f0000000000008152506141c7565b612dd781604051806060016040528060278152602001614e0c602791396001600160a01b0385166000908152600460205260409020549190612a4d565b60046000846001600160a01b03166001600160a01b0316815260200190815260200160002081905550612e2781604051806060016040528060278152602001614c93602791396002549190612a4d565b6002556040805182815290516000916001600160a01b038516917fddf252ad1be2c89b69c2b068fc378daa952ba7f163c4a11628f55a4df523b3ef9181900360200190a35050565b612e788161355c565b601454604080516337fdd92160e21b81526004810184905290516001600160a01b039092169163dff76484916024808201926020929091908290030181600087803b158015612ec657600080fd5b505af1158015612eda573d6000803e3d6000fd5b505050506040513d6020811015612ef057600080fd5b505115612f2e5760405162461bcd60e51b8152600401808060200182810382526027815260200180614a996027913960400191505060405180910390fd5b60145460408051633af9e66960e01b815230600482015290516000926001600160a01b031691633af9e66991602480830192602092919082900301818787803b158015612f7a57600080fd5b505af1158015612f8e573d6000803e3d6000fd5b505050506040513d6020811015612fa457600080fd5b5051601454604080516305eff7ef60e21b815230600482015290519293506000926001600160a01b03909216916317bfdfbc9160248082019260209290919082900301818787803b158015612ff857600080fd5b505af115801561300c573d6000803e3d6000fd5b505050506040513d602081101561302257600080fd5b5051905081156110375761103782826138ea565b3390565b600080601360009054906101000a90046001600160a01b03166001600160a01b031663acc2166a6040518163ffffffff1660e01b815260040160206040518083038186803b15801561308b57600080fd5b505afa15801561309f573d6000803e3d6000fd5b505050506040513d60208110156130b557600080fd5b5051604080517fd81c5e4500000000000000000000000000000000000000000000000000000000815260ff871660048201526001600160a01b03868116602483015282519394506000939085169263d81c5e459260448082019391829003018186803b15801561312457600080fd5b505afa158015613138573d6000803e3d6000fd5b505050506040513d604081101561314e57600080fd5b5051601454604080517f88e972b800000000000000000000000000000000000000000000000000000000815260ff891660048201526001600160a01b03928316602482015287831660448201529051929350600092918516916388e972b891606480820192602092909190829003018186803b1580156131cd57600080fd5b505afa1580156131e1573d6000803e3d6000fd5b505050506040513d60208110156131f757600080fd5b5051905060006001600160e01b03831682101561321d5781836001600160e01b03160390505b604080517f4b3a0a7400000000000000000000000000000000000000000000000000000000815260ff891660048201526001600160a01b038881166024830152825160009391881692634b3a0a74926044808301939192829003018186803b15801561328857600080fd5b505afa15801561329c573d6000803e3d6000fd5b505050506040513d60408110156132b257600080fd5b5051601454604080517f7937969d00000000000000000000000000000000000000000000000000000000815260ff8c1660048201526001600160a01b0392831660248201528a83166044820152905192935060009291881691637937969d91606480820192602092909190829003018186803b15801561333157600080fd5b505afa158015613345573d6000803e3d6000fd5b505050506040513d602081101561335b57600080fd5b5051905060006001600160e01b0383168210156133815781836001600160e01b03160390505b601454604080517f95dd91930000000000000000000000000000000000000000000000000000000081526001600160a01b038c811660048301529151613501936134779361342793879391909216916395dd9193916024808301926020929190829003018186803b1580156133f557600080fd5b505afa158015613409573d6000803e3d6000fd5b505050506040513d602081101561341f57600080fd5b505190612cff565b601454604080516370a0823160e01b81526001600160a01b038f81166004830152915161166d938b9316916370a08231916024808301926020929190829003018186803b1580156133f557600080fd5b886001600160a01b03166305b9783d8d8d6040518363ffffffff1660e01b8152600401808360ff168152602001826001600160a01b031681526020019250505060206040518083038186803b1580156134cf57600080fd5b505afa1580156134e3573d6000803e3d6000fd5b505050506040513d60208110156134f957600080fd5b5051906128d4565b9a9950505050505050505050565b600061292e83836040518060400160405280601f81526020017f536166654d6174683a207375627472616374696f6e20756e646572666c6f7700815250612a4d565b601891909155601955565b601454604080516305eff7ef60e21b815230600482015290516000926001600160a01b0316916317bfdfbc91602480830192602092919082900301818787803b1580156135a857600080fd5b505af11580156135bc573d6000803e3d6000fd5b505050506040513d60208110156135d257600080fd5b505160145460408051633af9e66960e01b815230600482015290519293506000926001600160a01b0390921691633af9e6699160248082019260209290919082900301818787803b15801561362657600080fd5b505af115801561363a573d6000803e3d6000fd5b505050506040513d602081101561365057600080fd5b5051905060008061365f61422c565b9092509050600061369a6136778761166d878961350f565b61166d601954610f17601854610f118c61166d8d8d61350f90919063ffffffff16565b905060006136a8868361350f565b90505b80156138e15760006136bf868887876142d6565b9050868111156136cc5750855b601454604080516337fdd92160e21b81526004810184905290516001600160a01b039092169163dff76484916024808201926020929091908290030181600087803b15801561371a57600080fd5b505af115801561372e573d6000803e3d6000fd5b505050506040513d602081101561374457600080fd5b5051156137825760405162461bcd60e51b815260040180806020018281038252602a815260200180614e61602a913960400191505060405180910390fd5b601460009054906101000a90046001600160a01b03166001600160a01b0316638d3f9c62826040518263ffffffff1660e01b81526004016020604051808303818588803b1580156137d257600080fd5b505af11580156137e6573d6000803e3d6000fd5b50505050506040513d60208110156137fd57600080fd5b50511561383b5760405162461bcd60e51b8152600401808060200182810382526030815260200180614c0f6030913960400191505060405180910390fd5b60145460408051633af9e66960e01b815230600482015290516001600160a01b0390921691633af9e669916024808201926020929091908290030181600087803b15801561388857600080fd5b505af115801561389c573d6000803e3d6000fd5b505050506040513d60208110156138b257600080fd5b505195506138c0878261350f565b96508683106138cf57506138e1565b6138d9878461350f565b9150506136ab565b50505050505050565b6000806138f561422c565b915091506000849050600061391f601954610f17601854610f11898b61350f90919063ffffffff16565b9050845b818310156138e1576000613939848388886142d6565b90508261394685836128d4565b111561395957613956838561350f565b90505b601a5481101561396957506138e1565b601454604080517f884b93430000000000000000000000000000000000000000000000000000000081526004810184905290516001600160a01b039092169163884b9343916024808201926020929091908290030181600087803b1580156139d057600080fd5b505af11580156139e4573d6000803e3d6000fd5b505050506040513d60208110156139fa57600080fd5b505115613a385760405162461bcd60e51b815260040180806020018281038252602a815260200180614c69602a913960400191505060405180910390fd5b601460009054906101000a90046001600160a01b03166001600160a01b031663219f2fe7826040518263ffffffff1660e01b81526004016020604051808303818588803b158015613a8857600080fd5b505af1158015613a9c573d6000803e3d6000fd5b50505050506040513d6020811015613ab357600080fd5b505115613af15760405162461bcd60e51b8152600401808060200182810382526028815260200180614de46028913960400191505060405180910390fd5b60145460408051633af9e66960e01b815230600482015290516001600160a01b0390921691633af9e669916024808201926020929091908290030181600087803b158015613b3e57600080fd5b505af1158015613b52573d6000803e3d6000fd5b505050506040513d6020811015613b6857600080fd5b50519350613b7682826128d4565b915050613923565b60075415613bd9573360009081526008602052604090205460ff161515600114613bd95760405162461bcd60e51b815260040180806020018281038252602e815260200180614ae6602e913960400191505060405180910390fd5b600e5460ff161515600114613c1f5760405162461bcd60e51b8152600401808060200182810382526022815260200180614b6c6022913960400191505060405180910390fd5b600d5415613c53576000806000613c34613cf3565b925092509250600d54811115613c4f57613c4f838383613f08565b5050505b806000613c5e612bf1565b90506000613c7782600254612cff90919063ffffffff16565b1115613c9957613c9681610f1760025486612cff90919063ffffffff16565b91505b613ca384836142fd565b613cac83614388565b6040805184815290516001600160a01b038616917fe1fffcc4923d04b559f4d29a8bfc6cda04eb5b0d3c460751c2402c5c5cc9109c919081900360200190a26113e1611357565b600080600080613d0460003061303a565b604080516370a0823160e01b8152306004820152905191925060009173b31f66aa3c1e785363f0875a1b74e27b85fd66c7916370a08231916024808301926020929190829003018186803b158015613d5b57600080fd5b505afa158015613d6f573d6000803e3d6000fd5b505050506040513d6020811015613d8557600080fd5b50516015546016546017549293504792600092613db49287926001600160a01b03928316929182169116614582565b90508382613dc683611bb183886128d4565b96509650965050505050909192565b6000613ddf612587565b8560405160200180807f190100000000000000000000000000000000000000000000000000000000000081525060020183815260200182815260200192505050604051602081830303815290604052805190602001209050600060018286868660405160008152602001604052604051808581526020018460ff1681526020018381526020018281526020019450505050506020604051602081039080840390855afa158015613e93573d6000803e3d6000fd5b5050604051601f1901519150506001600160a01b03811615801590613ec95750866001600160a01b0316816001600160a01b0316145b6138e15760405162461bcd60e51b8152600401808060200182810382526024815260200180614b486024913960400191505060405180910390fd5b4690565b82156140155760135460408051630952c56360e01b815260006004820181905230602483015291516001600160a01b0390931692630952c5639260448084019391929182900301818387803b158015613f6057600080fd5b505af1158015613f74573d6000803e3d6000fd5b505060155460165460175460009450613f9f935087926001600160a01b039081169281169116614652565b905073b31f66aa3c1e785363f0875a1b74e27b85fd66c76001600160a01b0316632e1a7d4d826040518263ffffffff1660e01b815260040180828152602001915050600060405180830381600087803b158015613ffb57600080fd5b505af115801561400f573d6000803e3d6000fd5b50505050505b600061403d612710610f17612580600f54611bb16010546011546128d490919063ffffffff16565b905073b31f66aa3c1e785363f0875a1b74e27b85fd66c76001600160a01b031663d0e30db0826040518263ffffffff1660e01b81526004016000604051808303818588803b15801561408e57600080fd5b505af11580156140a2573d6000803e3d6000fd5b505050505060006140c4612710610f1760115486612cff90919063ffffffff16565b905080156140e957600a54600b546140e9916001600160a01b0390811691168361485f565b6000614106612710610f1760105487612cff90919063ffffffff16565b9050801561412c57600a5461412c906001600160a01b03166141266119f2565b8361485f565b6000614149612710610f17600f5488612cff90919063ffffffff16565b9050801561416857600a54614168906001600160a01b0316338361485f565b61417a614175868661350f565b614388565b7fc7606d21ac05cd309191543e409f0845c016120563783d70e4f41419dc0ef2346141a36115bf565b6002546040805192835260208301919091528051918290030190a150505050505050565b600081836142165760405162461bcd60e51b8152602060048201818152835160248401528351909283926044909101919085019080838360008315612aa1578181015183820152602001612a89565b50600083858161422257fe5b0495945050505050565b601354601454604080517f8e8f294b0000000000000000000000000000000000000000000000000000000081526001600160a01b039283166004820152815160009485948594911692638e8f294b9260248083019392829003018186803b15801561429657600080fd5b505afa1580156142aa573d6000803e3d6000fd5b505050506040513d60408110156142c057600080fd5b506020015193670de0b6b3a76400009350915050565b60006142f46103e8610f176103b6610f118861166d88858d8c612cff565b95945050505050565b60025461430a90826128d4565b6002556001600160a01b03821660009081526004602052604090205461433090826128d4565b6001600160a01b03831660008181526004602090815260408083209490945583518581529351929391927fddf252ad1be2c89b69c2b068fc378daa952ba7f163c4a11628f55a4df523b3ef9281900390910190a35050565b600081116143c75760405162461bcd60e51b815260040180806020018281038252602d815260200180614d88602d913960400191505060405180910390fd5b601460009054906101000a90046001600160a01b03166001600160a01b031663219f2fe7826040518263ffffffff1660e01b81526004016020604051808303818588803b15801561441757600080fd5b505af115801561442b573d6000803e3d6000fd5b50505050506040513d602081101561444257600080fd5b5051156144805760405162461bcd60e51b8152600401808060200182810382526028815260200180614cba6028913960400191505060405180910390fd5b601454604080516305eff7ef60e21b815230600482015290516000926001600160a01b0316916317bfdfbc91602480830192602092919082900301818787803b1580156144cc57600080fd5b505af11580156144e0573d6000803e3d6000fd5b505050506040513d60208110156144f657600080fd5b505160145460408051633af9e66960e01b815230600482015290519293506000926001600160a01b0390921691633af9e6699160248082019260209290919082900301818787803b15801561454a57600080fd5b505af115801561455e573d6000803e3d6000fd5b505050506040513d602081101561457457600080fd5b5051905061103781836138ea565b60008061458f858561491d565b509050600080846001600160a01b0316630902f1ac6040518163ffffffff1660e01b815260040160606040518083038186803b1580156145ce57600080fd5b505afa1580156145e2573d6000803e3d6000fd5b505050506040513d60608110156145f857600080fd5b50805160209091015190925090506001600160a01b038381169088161461461b57905b61464688836dffffffffffffffffffffffffffff16836dffffffffffffffffffffffffffff1661494e565b98975050505050505050565b60008061465f858561491d565b509050600080846001600160a01b0316630902f1ac6040518163ffffffff1660e01b815260040160606040518083038186803b15801561469e57600080fd5b505afa1580156146b2573d6000803e3d6000fd5b505050506040513d60608110156146c857600080fd5b50805160209091015190925090506001600160a01b03838116908816146146eb57905b6000806147198a856dffffffffffffffffffffffffffff16856dffffffffffffffffffffffffffff1661494e565b9050886001600160a01b0316856001600160a01b03161461473657905b61474189888c614996565b60408051600080825260208201928390527f022c0d9f00000000000000000000000000000000000000000000000000000000835260248201858152604483018590523060648401819052608060848501908152845160a486018190526001600160a01b038e169663022c0d9f968a968a9691949193919260c486019290918190849084905b838110156147de5781810151838201526020016147c6565b50505050905090810190601f16801561480b5780820380516001836020036101000a031916815260200191505b5095505050505050600060405180830381600087803b15801561482d57600080fd5b505af1158015614841573d6000803e3d6000fd5b505050508181116148525781613501565b9998505050505050505050565b826001600160a01b031663a9059cbb83836040518363ffffffff1660e01b815260040180836001600160a01b0316815260200182815260200192505050602060405180830381600087803b1580156148b657600080fd5b505af11580156148ca573d6000803e3d6000fd5b505050506040513d60208110156148e057600080fd5b50516110375760405162461bcd60e51b815260040180806020018281038252602e815260200180614e33602e913960400191505060405180910390fd5b600080826001600160a01b0316846001600160a01b031610614940578284614943565b83835b915091509250929050565b60008061495d856103e5612cff565b9050600061496b8285612cff565b9050600061497f83611bb1886103e8612cff565b905061498b8282612d58565b979650505050505050565b826001600160a01b031663a9059cbb83836040518363ffffffff1660e01b815260040180836001600160a01b0316815260200182815260200192505050602060405180830381600087803b1580156149ed57600080fd5b505af1158015614a01573d6000803e3d6000fd5b505050506040513d6020811015614a1757600080fd5b5051611037576040805162461bcd60e51b815260206004820181905260248201527f4465784c6962726172793a3a5452414e534645525f46524f4d5f4641494c4544604482015290519081900360640190fdfe4a6f654c656e64696e6753747261746567794176617856313a3a7061796d656e7473206e6f7420616c6c6f7765644a6f654c656e64696e6753747261746567794176617856313a3a72656465656d206661696c65644f776e61626c653a206e6577206f776e657220697320746865207a65726f20616464726573735065726d697373696f6e65643a3a6f6e6c79416c6c6f7765644465706f736974732c206e6f7420616c6c6f7765645065726d697373696f6e65643a3a72656d6f76654465706f7369746f722c206e6f20616c6c6f776564206465706f7369746f7273417263683a3a76616c69646174655369673a20696e76616c6964207369676e61747572654a6f654c656e64696e6753747261746567794176617856313a3a5f6465706f7369744a6f654c656e64696e6753747261746567794176617856313a3a7265736375654465706c6f79656446756e64734a6f654c656e64696e6753747261746567794176617856313a3a7265696e766573744a6f654c656e64696e6753747261746567794176617856313a3a7769746864726177207472616e73666572206661696c65644a6f654c656e64696e6753747261746567794176617856313a3a6661696c656420746f20726570617920626f72726f775065726d697373696f6e65643a3a72656d6f76654465706f7369746f722c206e6f7420616c6c6f7765644a6f654c656e64696e6753747261746567794176617856313a3a626f72726f77696e67206661696c65645f6275726e3a206275726e20616d6f756e74206578636565647320746f74616c20737570706c794a6f654c656e64696e6753747261746567794176617856313a3a4465706f736974206661696c6564536166654d6174683a206d756c7469706c69636174696f6e206f766572666c6f774f776e61626c653a2063616c6c6572206973206e6f7420746865206f776e65724a6f654c656e64696e6753747261746567794176617856313a3a2062656c6f77206d696e696d756d2077697468647261775f7472616e73666572546f6b656e733a2063616e6e6f74207472616e7366657220746f20746865207a65726f20616464726573734a6f654c656e64696e6753747261746567794176617856313a3a5f7374616b654465706f736974546f6b656e737472616e7366657246726f6d3a207472616e7366657220616d6f756e74206578636565647320616c6c6f77616e63654a6f654c656e64696e6753747261746567794176617856313a3a6c656e64696e67206661696c65645f6275726e3a206275726e20616d6f756e7420657863656564732066726f6d2062616c616e63654a6f654c656e64696e6753747261746567794176617856313a3a5452414e534645525f46524f4d5f4641494c45444a6f654c656e64696e6753747261746567794176617856313a3a6661696c656420746f2072656465656d5f7472616e73666572546f6b656e733a207472616e7366657220657863656564732066726f6d2062616c616e6365a264697066735822122020e7f63be137c4a868ec3848d9cc07c3d3f0481c44d5e9bd008c6ca8bebbd03464736f6c634300070300334f776e61626c653a206e6577206f776e657220697320746865207a65726f20616464726573735377617020706169722030206973206e656365737361727920627574206e6f7420737570706c6965644f776e61626c653a2063616c6c6572206973206e6f7420746865206f776e65728be0079c531659141344cd1fd0a4f28419497f9722a3daafe3b4186f6b6457e0537761702070616972203020646f6573206e6f74206d6174636820726577617264546f6b656e31537761702070616972203020646f6573206e6f74206d6174636820726577617264546f6b656e30",
  "devdoc": {
    "details": "Banker Joe emits rewards in AVAX and ERC20. During AVAX claim, contract becomes gas bound",
    "kind": "dev",
    "methods": {
      "allowDepositor(address)": {
        "params": {
          "depositor": "address"
        }
      },
      "allowance(address,address)": {
        "params": {
          "account": "The address of the account holding the funds",
          "spender": "The address of the account spending the funds"
        },
        "returns": {
          "_0": "The number of tokens approved"
        }
      },
      "approve(address,uint256)": {
        "details": "This will overwrite the approval amount for `spender` and is subject to issues noted [here](https://eips.ethereum.org/EIPS/eip-20#approve) It is recommended to use increaseAllowance and decreaseAllowance instead",
        "params": {
          "amount": "The number of tokens that are approved (2^256-1 means infinite)",
          "spender": "The address of the account which may transfer tokens"
        },
        "returns": {
          "_0": "Whether or not the approval succeeded"
        }
      },
      "balanceOf(address)": {
        "params": {
          "account": "The address of the account to get the balance of"
        },
        "returns": {
          "_0": "The number of tokens held"
        }
      },
      "checkReward()": {
        "returns": {
          "_0": "amount that can be reinvested"
        }
      },
      "claimAVAXRewards()": {
        "details": "Contract becomes gas bound hereConditional for gas savings on repeat actionsPublic permission in case of stuck state"
      },
      "deposit()": {
        "details": "Must mint receipt tokens to `msg.sender`"
      },
      "deposit(uint256)": {
        "details": "Must mint receipt tokens to `msg.sender`",
        "params": {
          "amount": "deposit tokens"
        }
      },
      "depositFor(address)": {
        "details": "Must mint receipt tokens to `account`",
        "params": {
          "account": "address to receive receipt tokens"
        }
      },
      "depositFor(address,uint256)": {
        "details": "Must mint receipt tokens to `account`",
        "params": {
          "account": "address to receive receipt tokens",
          "amount": "deposit tokens"
        }
      },
      "depositWithPermit(uint256,uint256,uint8,bytes32,bytes32)": {
        "details": "Should revert for tokens without Permit",
        "params": {
          "amount": "Amount of tokens to deposit",
          "deadline": "The time at which to expire the signature",
          "r": "Half of the ECDSA signature pair",
          "s": "Half of the ECDSA signature pair",
          "v": "The recovery byte of the signature"
        }
      },
      "estimateDeployedBalance()": {
        "returns": {
          "_0": "deposit tokens"
        }
      },
      "estimateReinvestReward()": {
        "returns": {
          "_0": "reward tokens"
        }
      },
      "getDepositTokensForShares(uint256)": {
        "params": {
          "amount": "receipt tokens"
        },
        "returns": {
          "_0": "deposit tokens"
        }
      },
      "getDomainSeparator()": {
        "returns": {
          "_0": "Separator"
        }
      },
      "getSharesForDepositTokens(uint256)": {
        "details": "If contract is empty, use 1:1 ratioCould return zero shares for very low amounts of deposit tokens",
        "params": {
          "amount": "deposit tokens"
        },
        "returns": {
          "_0": "receipt tokens"
        }
      },
      "owner()": {
        "details": "Returns the address of the current owner."
      },
      "permit(address,address,uint256,uint256,uint8,bytes32,bytes32)": {
        "params": {
          "deadline": "The time at which to expire the signature",
          "owner": "The address to approve from",
          "r": "Half of the ECDSA signature pair",
          "s": "Half of the ECDSA signature pair",
          "spender": "The address to be approved",
          "v": "The recovery byte of the signature",
          "value": "The number of tokens that are approved (2^256-1 means infinite)"
        }
      },
      "recoverAVAX(uint256)": {
        "params": {
          "amount": "amount"
        }
      },
      "recoverERC20(address,uint256)": {
        "params": {
          "tokenAddress": "token address",
          "tokenAmount": "amount to recover"
        }
      },
      "removeDepositor(address)": {
        "params": {
          "depositor": "address"
        }
      },
      "renounceOwnership()": {
        "details": "Leaves the contract without owner. It will not be possible to call `onlyOwner` functions anymore. Can only be called by the current owner. NOTE: Renouncing ownership will leave the contract without an owner, thereby removing any functionality that is only available to the owner."
      },
      "rescueDeployedFunds(uint256,bool)": {
        "params": {
          "disableDeposits": "bool",
          "minReturnAmountAccepted": "min deposit tokens to receive"
        }
      },
      "revokeAllowance(address,address)": {
        "params": {
          "spender": "address",
          "token": "address"
        }
      },
      "setAllowances()": {
        "details": "Should use modifier `onlyOwner` to avoid griefing"
      },
      "totalDeposits()": {
        "returns": {
          "_0": "total deposits available on the contract"
        }
      },
      "transfer(address,uint256)": {
        "params": {
          "amount": "The number of tokens to transfer",
          "dst": "The address of the destination account"
        },
        "returns": {
          "_0": "Whether or not the transfer succeeded"
        }
      },
      "transferFrom(address,address,uint256)": {
        "params": {
          "amount": "The number of tokens to transfer",
          "dst": "The address of the destination account",
          "src": "The address of the source account"
        },
        "returns": {
          "_0": "Whether or not the transfer succeeded"
        }
      },
      "transferOwnership(address)": {
        "details": "Transfers ownership of the contract to a new account (`newOwner`). Can only be called by the current owner."
      },
      "updateAdminFee(uint256)": {
        "params": {
          "newValue": "fee in BIPS"
        }
      },
      "updateDepositsEnabled(bool)": {
        "params": {
          "newValue": "bool"
        }
      },
      "updateDevAddr(address)": {
        "params": {
          "newValue": "address"
        }
      },
      "updateDevFee(uint256)": {
        "params": {
          "newValue": "fee in BIPS"
        }
      },
      "updateMaxTokensToDepositWithoutReinvest(uint256)": {
        "params": {
          "newValue": "threshold"
        }
      },
      "updateMinTokensToReinvest(uint256)": {
        "params": {
          "newValue": "threshold"
        }
      },
      "updateReinvestReward(uint256)": {
        "params": {
          "newValue": "fee in BIPS"
        }
      },
      "withdraw(uint256)": {
        "params": {
          "amount": "receipt tokens"
        }
      }
    },
    "title": "Strategy for Banker Joe AVAX",
    "version": 1
  },
  "userdoc": {
    "kind": "user",
    "methods": {
      "allowDepositor(address)": {
        "notice": "Add an allowed depositor"
      },
      "allowance(address,address)": {
        "notice": "Get the number of tokens `spender` is approved to spend on behalf of `account`"
      },
      "approve(address,uint256)": {
        "notice": "Approve `spender` to transfer up to `amount` from `src`"
      },
      "balanceOf(address)": {
        "notice": "Get the number of tokens held by the `account`"
      },
      "checkReward()": {
        "notice": "Returns balance available to reinvest"
      },
      "claimAVAXRewards()": {
        "notice": "Claims AVAX rewards on behalf of strategy"
      },
      "deposit()": {
        "notice": "Deposit and deploy deposits tokens to the strategy using AVAX"
      },
      "deposit(uint256)": {
        "notice": "Deposit and deploy deposits tokens to the strategy"
      },
      "depositFor(address)": {
        "notice": "Deposit on behalf of another account using AVAX"
      },
      "depositFor(address,uint256)": {
        "notice": "Deposit on behalf of another account"
      },
      "depositWithPermit(uint256,uint256,uint8,bytes32,bytes32)": {
        "notice": "Deposit using Permit"
      },
      "estimateDeployedBalance()": {
        "notice": "Estimated deposit token balance deployed by strategy, excluding balance"
      },
      "estimateReinvestReward()": {
        "notice": "Estimate reinvest reward"
      },
      "getDepositTokensForShares(uint256)": {
        "notice": "Calculate deposit tokens for a given amount of receipt tokens"
      },
      "getDomainSeparator()": {
        "notice": "EIP-712 Domain separator"
      },
      "getSharesForDepositTokens(uint256)": {
        "notice": "Calculate receipt tokens for a given amount of deposit tokens"
      },
      "permit(address,address,uint256,uint256,uint8,bytes32,bytes32)": {
        "notice": "Triggers an approval from owner to spender"
      },
      "recoverAVAX(uint256)": {
        "notice": "Recover AVAX from contract"
      },
      "recoverERC20(address,uint256)": {
        "notice": "Recover ERC20 from contract"
      },
      "reinvest()": {
        "notice": "Reinvest reward tokens into deposit tokens"
      },
      "removeDepositor(address)": {
        "notice": "Remove an allowed depositor"
      },
      "rescueDeployedFunds(uint256,bool)": {
        "notice": "Rescue all available deployed deposit tokens back to Strategy"
      },
      "revokeAllowance(address,address)": {
        "notice": "Revoke token allowance"
      },
      "setAllowances()": {
        "notice": "Approve tokens for use in Strategy"
      },
      "totalDeposits()": {
        "notice": "This function returns a snapshot of last available quotes"
      },
      "transfer(address,uint256)": {
        "notice": "Transfer `amount` tokens from `msg.sender` to `dst`"
      },
      "transferFrom(address,address,uint256)": {
        "notice": "Transfer `amount` tokens from `src` to `dst`"
      },
      "updateAdminFee(uint256)": {
        "notice": "Update admin fee"
      },
      "updateDepositsEnabled(bool)": {
        "notice": "Enable/disable deposits"
      },
      "updateDevAddr(address)": {
        "notice": "Update devAddr"
      },
      "updateDevFee(uint256)": {
        "notice": "Update developer fee"
      },
      "updateMaxTokensToDepositWithoutReinvest(uint256)": {
        "notice": "Update reinvest max threshold before a deposit"
      },
      "updateMinTokensToReinvest(uint256)": {
        "notice": "Update reinvest min threshold"
      },
      "updateReinvestReward(uint256)": {
        "notice": "Update reinvest reward"
      },
      "withdraw(uint256)": {
        "notice": "Redeem receipt tokens for deposit tokens"
      }
    },
    "version": 1
  },
  "storageLayout": {
    "storage": [
      {
        "astId": 11375,
        "contract": "contracts/strategies/JoeLendingStrategyAvaxV1.sol:JoeLendingStrategyAvaxV1",
        "label": "name",
        "offset": 0,
        "slot": "0",
        "type": "t_string_storage"
      },
      {
        "astId": 11378,
        "contract": "contracts/strategies/JoeLendingStrategyAvaxV1.sol:JoeLendingStrategyAvaxV1",
        "label": "symbol",
        "offset": 0,
        "slot": "1",
        "type": "t_string_storage"
      },
      {
        "astId": 11383,
        "contract": "contracts/strategies/JoeLendingStrategyAvaxV1.sol:JoeLendingStrategyAvaxV1",
        "label": "totalSupply",
        "offset": 0,
        "slot": "2",
        "type": "t_uint256"
      },
      {
        "astId": 11389,
        "contract": "contracts/strategies/JoeLendingStrategyAvaxV1.sol:JoeLendingStrategyAvaxV1",
        "label": "allowances",
        "offset": 0,
        "slot": "3",
        "type": "t_mapping(t_address,t_mapping(t_address,t_uint256))"
      },
      {
        "astId": 11393,
        "contract": "contracts/strategies/JoeLendingStrategyAvaxV1.sol:JoeLendingStrategyAvaxV1",
        "label": "balances",
        "offset": 0,
        "slot": "4",
        "type": "t_mapping(t_address,t_uint256)"
      },
      {
        "astId": 11409,
        "contract": "contracts/strategies/JoeLendingStrategyAvaxV1.sol:JoeLendingStrategyAvaxV1",
        "label": "nonces",
        "offset": 0,
        "slot": "5",
        "type": "t_mapping(t_address,t_uint256)"
      },
      {
        "astId": 20242,
        "contract": "contracts/strategies/JoeLendingStrategyAvaxV1.sol:JoeLendingStrategyAvaxV1",
        "label": "_owner",
        "offset": 0,
        "slot": "6",
        "type": "t_address"
      },
      {
        "astId": 20355,
        "contract": "contracts/strategies/JoeLendingStrategyAvaxV1.sol:JoeLendingStrategyAvaxV1",
        "label": "numberOfAllowedDepositors",
        "offset": 0,
        "slot": "7",
        "type": "t_uint256"
      },
      {
        "astId": 20359,
        "contract": "contracts/strategies/JoeLendingStrategyAvaxV1.sol:JoeLendingStrategyAvaxV1",
        "label": "allowedDepositors",
        "offset": 0,
        "slot": "8",
        "type": "t_mapping(t_address,t_bool)"
      },
      {
        "astId": 12548,
        "contract": "contracts/strategies/JoeLendingStrategyAvaxV1.sol:JoeLendingStrategyAvaxV1",
        "label": "depositToken",
        "offset": 0,
        "slot": "9",
        "type": "t_contract(IERC20)14807"
      },
      {
        "astId": 12550,
        "contract": "contracts/strategies/JoeLendingStrategyAvaxV1.sol:JoeLendingStrategyAvaxV1",
        "label": "rewardToken",
        "offset": 0,
        "slot": "10",
        "type": "t_contract(IERC20)14807"
      },
      {
        "astId": 12552,
        "contract": "contracts/strategies/JoeLendingStrategyAvaxV1.sol:JoeLendingStrategyAvaxV1",
        "label": "devAddr",
        "offset": 0,
        "slot": "11",
        "type": "t_address"
      },
      {
        "astId": 12554,
        "contract": "contracts/strategies/JoeLendingStrategyAvaxV1.sol:JoeLendingStrategyAvaxV1",
        "label": "MIN_TOKENS_TO_REINVEST",
        "offset": 0,
        "slot": "12",
        "type": "t_uint256"
      },
      {
        "astId": 12556,
        "contract": "contracts/strategies/JoeLendingStrategyAvaxV1.sol:JoeLendingStrategyAvaxV1",
        "label": "MAX_TOKENS_TO_DEPOSIT_WITHOUT_REINVEST",
        "offset": 0,
        "slot": "13",
        "type": "t_uint256"
      },
      {
        "astId": 12558,
        "contract": "contracts/strategies/JoeLendingStrategyAvaxV1.sol:JoeLendingStrategyAvaxV1",
        "label": "DEPOSITS_ENABLED",
        "offset": 0,
        "slot": "14",
        "type": "t_bool"
      },
      {
        "astId": 12560,
        "contract": "contracts/strategies/JoeLendingStrategyAvaxV1.sol:JoeLendingStrategyAvaxV1",
        "label": "REINVEST_REWARD_BIPS",
        "offset": 0,
        "slot": "15",
        "type": "t_uint256"
      },
      {
        "astId": 12562,
        "contract": "contracts/strategies/JoeLendingStrategyAvaxV1.sol:JoeLendingStrategyAvaxV1",
        "label": "ADMIN_FEE_BIPS",
        "offset": 0,
        "slot": "16",
        "type": "t_uint256"
      },
      {
        "astId": 12564,
        "contract": "contracts/strategies/JoeLendingStrategyAvaxV1.sol:JoeLendingStrategyAvaxV1",
        "label": "DEV_FEE_BIPS",
        "offset": 0,
        "slot": "17",
        "type": "t_uint256"
      },
      {
        "astId": 20475,
        "contract": "contracts/strategies/JoeLendingStrategyAvaxV1.sol:JoeLendingStrategyAvaxV1",
        "label": "_status",
        "offset": 0,
        "slot": "18",
        "type": "t_uint256"
      },
      {
        "astId": 56274,
        "contract": "contracts/strategies/JoeLendingStrategyAvaxV1.sol:JoeLendingStrategyAvaxV1",
        "label": "rewardController",
        "offset": 0,
        "slot": "19",
        "type": "t_contract(IJoetroller)16010"
      },
      {
        "astId": 56276,
        "contract": "contracts/strategies/JoeLendingStrategyAvaxV1.sol:JoeLendingStrategyAvaxV1",
        "label": "tokenDelegator",
        "offset": 0,
        "slot": "20",
        "type": "t_contract(IJoeAVAXDelegator)15404"
      },
      {
        "astId": 56278,
        "contract": "contracts/strategies/JoeLendingStrategyAvaxV1.sol:JoeLendingStrategyAvaxV1",
        "label": "rewardToken0",
        "offset": 0,
        "slot": "21",
        "type": "t_contract(IERC20)14807"
      },
      {
        "astId": 56280,
        "contract": "contracts/strategies/JoeLendingStrategyAvaxV1.sol:JoeLendingStrategyAvaxV1",
        "label": "rewardToken1",
        "offset": 0,
        "slot": "22",
        "type": "t_contract(IERC20)14807"
      },
      {
        "astId": 56282,
        "contract": "contracts/strategies/JoeLendingStrategyAvaxV1.sol:JoeLendingStrategyAvaxV1",
        "label": "swapPairToken0",
        "offset": 0,
        "slot": "23",
        "type": "t_contract(IPair)16809"
      },
      {
        "astId": 56289,
        "contract": "contracts/strategies/JoeLendingStrategyAvaxV1.sol:JoeLendingStrategyAvaxV1",
        "label": "leverageLevel",
        "offset": 0,
        "slot": "24",
        "type": "t_uint256"
      },
      {
        "astId": 56291,
        "contract": "contracts/strategies/JoeLendingStrategyAvaxV1.sol:JoeLendingStrategyAvaxV1",
        "label": "leverageBips",
        "offset": 0,
        "slot": "25",
        "type": "t_uint256"
      },
      {
        "astId": 56293,
        "contract": "contracts/strategies/JoeLendingStrategyAvaxV1.sol:JoeLendingStrategyAvaxV1",
        "label": "minMinting",
        "offset": 0,
        "slot": "26",
        "type": "t_uint256"
      }
    ],
    "types": {
      "t_address": {
        "encoding": "inplace",
        "label": "address",
        "numberOfBytes": "20"
      },
      "t_bool": {
        "encoding": "inplace",
        "label": "bool",
        "numberOfBytes": "1"
      },
      "t_contract(IERC20)14807": {
        "encoding": "inplace",
        "label": "contract IERC20",
        "numberOfBytes": "20"
      },
      "t_contract(IJoeAVAXDelegator)15404": {
        "encoding": "inplace",
        "label": "contract IJoeAVAXDelegator",
        "numberOfBytes": "20"
      },
      "t_contract(IJoetroller)16010": {
        "encoding": "inplace",
        "label": "contract IJoetroller",
        "numberOfBytes": "20"
      },
      "t_contract(IPair)16809": {
        "encoding": "inplace",
        "label": "contract IPair",
        "numberOfBytes": "20"
      },
      "t_mapping(t_address,t_bool)": {
        "encoding": "mapping",
        "key": "t_address",
        "label": "mapping(address => bool)",
        "numberOfBytes": "32",
        "value": "t_bool"
      },
      "t_mapping(t_address,t_mapping(t_address,t_uint256))": {
        "encoding": "mapping",
        "key": "t_address",
        "label": "mapping(address => mapping(address => uint256))",
        "numberOfBytes": "32",
        "value": "t_mapping(t_address,t_uint256)"
      },
      "t_mapping(t_address,t_uint256)": {
        "encoding": "mapping",
        "key": "t_address",
        "label": "mapping(address => uint256)",
        "numberOfBytes": "32",
        "value": "t_uint256"
      },
      "t_string_storage": {
        "encoding": "bytes",
        "label": "string",
        "numberOfBytes": "32"
      },
      "t_uint256": {
        "encoding": "inplace",
        "label": "uint256",
        "numberOfBytes": "32"
      }
    }
  }
}