{
  "address": "0x123F4921E3b112911A7A203D6613da7093c5fF8d",
  "abi": [
    {
      "inputs": [
        {
          "internalType": "string",
          "name": "_name",
          "type": "string"
        },
        {
          "internalType": "address",
          "name": "_rewardDistribution",
          "type": "address"
        },
        {
          "internalType": "address",
          "name": "_blizzChef",
          "type": "address"
        },
        {
          "internalType": "address",
          "name": "_tokenDelegator",
          "type": "address"
        },
        {
          "internalType": "address",
          "name": "_timelock",
          "type": "address"
        },
        {
          "components": [
            {
              "internalType": "address",
              "name": "depositToken",
              "type": "address"
            },
            {
              "internalType": "address",
              "name": "poolRewardToken",
              "type": "address"
            },
            {
              "internalType": "address",
              "name": "avToken",
              "type": "address"
            },
            {
              "internalType": "address",
              "name": "avDebtToken",
              "type": "address"
            }
          ],
          "internalType": "struct BlizzStrategyV1.Tokens",
          "name": "_tokens",
          "type": "tuple"
        },
        {
          "components": [
            {
              "internalType": "address",
              "name": "swapPairRewardDeposit",
              "type": "address"
            },
            {
              "internalType": "address",
              "name": "swapPairPoolReward",
              "type": "address"
            }
          ],
          "internalType": "struct BlizzStrategyV1.SwapPairs",
          "name": "_swapPairs",
          "type": "tuple"
        },
        {
          "components": [
            {
              "internalType": "uint256",
              "name": "leverageLevel",
              "type": "uint256"
            },
            {
              "internalType": "uint256",
              "name": "safetyFactor",
              "type": "uint256"
            },
            {
              "internalType": "uint256",
              "name": "leverageBips",
              "type": "uint256"
            },
            {
              "internalType": "uint256",
              "name": "minMinting",
              "type": "uint256"
            }
          ],
          "internalType": "struct BlizzStrategyV1.LeverageSettings",
          "name": "_leverageSettings",
          "type": "tuple"
        },
        {
          "components": [
            {
              "internalType": "uint256",
              "name": "minTokensToReinvest",
              "type": "uint256"
            },
            {
              "internalType": "uint256",
              "name": "adminFeeBips",
              "type": "uint256"
            },
            {
              "internalType": "uint256",
              "name": "devFeeBips",
              "type": "uint256"
            },
            {
              "internalType": "uint256",
              "name": "reinvestRewardBips",
              "type": "uint256"
            }
          ],
          "internalType": "struct BlizzStrategyV1.StrategySettings",
          "name": "_strategySettings",
          "type": "tuple"
        }
      ],
      "stateMutability": "nonpayable",
      "type": "constructor"
    },
    {
      "anonymous": false,
      "inputs": [
        {
          "indexed": true,
          "internalType": "address",
          "name": "account",
          "type": "address"
        }
      ],
      "name": "AllowDepositor",
      "type": "event"
    },
    {
      "anonymous": false,
      "inputs": [
        {
          "indexed": true,
          "internalType": "address",
          "name": "owner",
          "type": "address"
        },
        {
          "indexed": true,
          "internalType": "address",
          "name": "spender",
          "type": "address"
        },
        {
          "indexed": false,
          "internalType": "uint256",
          "name": "value",
          "type": "uint256"
        }
      ],
      "name": "Approval",
      "type": "event"
    },
    {
      "anonymous": false,
      "inputs": [
        {
          "indexed": true,
          "internalType": "address",
          "name": "account",
          "type": "address"
        },
        {
          "indexed": false,
          "internalType": "uint256",
          "name": "amount",
          "type": "uint256"
        }
      ],
      "name": "Deposit",
      "type": "event"
    },
    {
      "anonymous": false,
      "inputs": [
        {
          "indexed": false,
          "internalType": "bool",
          "name": "newValue",
          "type": "bool"
        }
      ],
      "name": "DepositsEnabled",
      "type": "event"
    },
    {
      "anonymous": false,
      "inputs": [
        {
          "indexed": true,
          "internalType": "address",
          "name": "previousOwner",
          "type": "address"
        },
        {
          "indexed": true,
          "internalType": "address",
          "name": "newOwner",
          "type": "address"
        }
      ],
      "name": "OwnershipTransferred",
      "type": "event"
    },
    {
      "anonymous": false,
      "inputs": [
        {
          "indexed": false,
          "internalType": "address",
          "name": "token",
          "type": "address"
        },
        {
          "indexed": false,
          "internalType": "uint256",
          "name": "amount",
          "type": "uint256"
        }
      ],
      "name": "Recovered",
      "type": "event"
    },
    {
      "anonymous": false,
      "inputs": [
        {
          "indexed": false,
          "internalType": "uint256",
          "name": "newTotalDeposits",
          "type": "uint256"
        },
        {
          "indexed": false,
          "internalType": "uint256",
          "name": "newTotalSupply",
          "type": "uint256"
        }
      ],
      "name": "Reinvest",
      "type": "event"
    },
    {
      "anonymous": false,
      "inputs": [
        {
          "indexed": true,
          "internalType": "address",
          "name": "account",
          "type": "address"
        }
      ],
      "name": "RemoveDepositor",
      "type": "event"
    },
    {
      "anonymous": false,
      "inputs": [
        {
          "indexed": true,
          "internalType": "address",
          "name": "from",
          "type": "address"
        },
        {
          "indexed": true,
          "internalType": "address",
          "name": "to",
          "type": "address"
        },
        {
          "indexed": false,
          "internalType": "uint256",
          "name": "value",
          "type": "uint256"
        }
      ],
      "name": "Transfer",
      "type": "event"
    },
    {
      "anonymous": false,
      "inputs": [
        {
          "indexed": false,
          "internalType": "uint256",
          "name": "oldValue",
          "type": "uint256"
        },
        {
          "indexed": false,
          "internalType": "uint256",
          "name": "newValue",
          "type": "uint256"
        }
      ],
      "name": "UpdateAdminFee",
      "type": "event"
    },
    {
      "anonymous": false,
      "inputs": [
        {
          "indexed": false,
          "internalType": "address",
          "name": "oldValue",
          "type": "address"
        },
        {
          "indexed": false,
          "internalType": "address",
          "name": "newValue",
          "type": "address"
        }
      ],
      "name": "UpdateDevAddr",
      "type": "event"
    },
    {
      "anonymous": false,
      "inputs": [
        {
          "indexed": false,
          "internalType": "uint256",
          "name": "oldValue",
          "type": "uint256"
        },
        {
          "indexed": false,
          "internalType": "uint256",
          "name": "newValue",
          "type": "uint256"
        }
      ],
      "name": "UpdateDevFee",
      "type": "event"
    },
    {
      "anonymous": false,
      "inputs": [
        {
          "indexed": false,
          "internalType": "uint256",
          "name": "oldValue",
          "type": "uint256"
        },
        {
          "indexed": false,
          "internalType": "uint256",
          "name": "newValue",
          "type": "uint256"
        }
      ],
      "name": "UpdateMaxTokensToDepositWithoutReinvest",
      "type": "event"
    },
    {
      "anonymous": false,
      "inputs": [
        {
          "indexed": false,
          "internalType": "uint256",
          "name": "oldValue",
          "type": "uint256"
        },
        {
          "indexed": false,
          "internalType": "uint256",
          "name": "newValue",
          "type": "uint256"
        }
      ],
      "name": "UpdateMinTokensToReinvest",
      "type": "event"
    },
    {
      "anonymous": false,
      "inputs": [
        {
          "indexed": false,
          "internalType": "uint256",
          "name": "oldValue",
          "type": "uint256"
        },
        {
          "indexed": false,
          "internalType": "uint256",
          "name": "newValue",
          "type": "uint256"
        }
      ],
      "name": "UpdateReinvestReward",
      "type": "event"
    },
    {
      "anonymous": false,
      "inputs": [
        {
          "indexed": true,
          "internalType": "address",
          "name": "account",
          "type": "address"
        },
        {
          "indexed": false,
          "internalType": "uint256",
          "name": "amount",
          "type": "uint256"
        }
      ],
      "name": "Withdraw",
      "type": "event"
    },
    {
      "inputs": [],
      "name": "ADMIN_FEE_BIPS",
      "outputs": [
        {
          "internalType": "uint256",
          "name": "",
          "type": "uint256"
        }
      ],
      "stateMutability": "view",
      "type": "function"
    },
    {
      "inputs": [],
      "name": "DEPOSITS_ENABLED",
      "outputs": [
        {
          "internalType": "bool",
          "name": "",
          "type": "bool"
        }
      ],
      "stateMutability": "view",
      "type": "function"
    },
    {
      "inputs": [],
      "name": "DEV_FEE_BIPS",
      "outputs": [
        {
          "internalType": "uint256",
          "name": "",
          "type": "uint256"
        }
      ],
      "stateMutability": "view",
      "type": "function"
    },
    {
      "inputs": [],
      "name": "DOMAIN_TYPEHASH",
      "outputs": [
        {
          "internalType": "bytes32",
          "name": "",
          "type": "bytes32"
        }
      ],
      "stateMutability": "view",
      "type": "function"
    },
    {
      "inputs": [],
      "name": "MAX_TOKENS_TO_DEPOSIT_WITHOUT_REINVEST",
      "outputs": [
        {
          "internalType": "uint256",
          "name": "",
          "type": "uint256"
        }
      ],
      "stateMutability": "view",
      "type": "function"
    },
    {
      "inputs": [],
      "name": "MIN_TOKENS_TO_REINVEST",
      "outputs": [
        {
          "internalType": "uint256",
          "name": "",
          "type": "uint256"
        }
      ],
      "stateMutability": "view",
      "type": "function"
    },
    {
      "inputs": [],
      "name": "PERMIT_TYPEHASH",
      "outputs": [
        {
          "internalType": "bytes32",
          "name": "",
          "type": "bytes32"
        }
      ],
      "stateMutability": "view",
      "type": "function"
    },
    {
      "inputs": [],
      "name": "REINVEST_REWARD_BIPS",
      "outputs": [
        {
          "internalType": "uint256",
          "name": "",
          "type": "uint256"
        }
      ],
      "stateMutability": "view",
      "type": "function"
    },
    {
      "inputs": [],
      "name": "VERSION_HASH",
      "outputs": [
        {
          "internalType": "bytes32",
          "name": "",
          "type": "bytes32"
        }
      ],
      "stateMutability": "view",
      "type": "function"
    },
    {
      "inputs": [
        {
          "internalType": "address",
          "name": "depositor",
          "type": "address"
        }
      ],
      "name": "allowDepositor",
      "outputs": [],
      "stateMutability": "nonpayable",
      "type": "function"
    },
    {
      "inputs": [
        {
          "internalType": "address",
          "name": "account",
          "type": "address"
        },
        {
          "internalType": "address",
          "name": "spender",
          "type": "address"
        }
      ],
      "name": "allowance",
      "outputs": [
        {
          "internalType": "uint256",
          "name": "",
          "type": "uint256"
        }
      ],
      "stateMutability": "view",
      "type": "function"
    },
    {
      "inputs": [
        {
          "internalType": "address",
          "name": "",
          "type": "address"
        }
      ],
      "name": "allowedDepositors",
      "outputs": [
        {
          "internalType": "bool",
          "name": "",
          "type": "bool"
        }
      ],
      "stateMutability": "view",
      "type": "function"
    },
    {
      "inputs": [
        {
          "internalType": "address",
          "name": "spender",
          "type": "address"
        },
        {
          "internalType": "uint256",
          "name": "amount",
          "type": "uint256"
        }
      ],
      "name": "approve",
      "outputs": [
        {
          "internalType": "bool",
          "name": "",
          "type": "bool"
        }
      ],
      "stateMutability": "nonpayable",
      "type": "function"
    },
    {
      "inputs": [
        {
          "internalType": "address",
          "name": "account",
          "type": "address"
        }
      ],
      "name": "balanceOf",
      "outputs": [
        {
          "internalType": "uint256",
          "name": "",
          "type": "uint256"
        }
      ],
      "stateMutability": "view",
      "type": "function"
    },
    {
      "inputs": [],
      "name": "checkReward",
      "outputs": [
        {
          "internalType": "uint256",
          "name": "",
          "type": "uint256"
        }
      ],
      "stateMutability": "view",
      "type": "function"
    },
    {
      "inputs": [],
      "name": "decimals",
      "outputs": [
        {
          "internalType": "uint8",
          "name": "",
          "type": "uint8"
        }
      ],
      "stateMutability": "view",
      "type": "function"
    },
    {
      "inputs": [
        {
          "internalType": "uint256",
          "name": "amount",
          "type": "uint256"
        }
      ],
      "name": "deposit",
      "outputs": [],
      "stateMutability": "nonpayable",
      "type": "function"
    },
    {
      "inputs": [
        {
          "internalType": "address",
          "name": "account",
          "type": "address"
        },
        {
          "internalType": "uint256",
          "name": "amount",
          "type": "uint256"
        }
      ],
      "name": "depositFor",
      "outputs": [],
      "stateMutability": "nonpayable",
      "type": "function"
    },
    {
      "inputs": [],
      "name": "depositToken",
      "outputs": [
        {
          "internalType": "contract IERC20",
          "name": "",
          "type": "address"
        }
      ],
      "stateMutability": "view",
      "type": "function"
    },
    {
      "inputs": [
        {
          "internalType": "uint256",
          "name": "amount",
          "type": "uint256"
        },
        {
          "internalType": "uint256",
          "name": "deadline",
          "type": "uint256"
        },
        {
          "internalType": "uint8",
          "name": "v",
          "type": "uint8"
        },
        {
          "internalType": "bytes32",
          "name": "r",
          "type": "bytes32"
        },
        {
          "internalType": "bytes32",
          "name": "s",
          "type": "bytes32"
        }
      ],
      "name": "depositWithPermit",
      "outputs": [],
      "stateMutability": "nonpayable",
      "type": "function"
    },
    {
      "inputs": [],
      "name": "devAddr",
      "outputs": [
        {
          "internalType": "address",
          "name": "",
          "type": "address"
        }
      ],
      "stateMutability": "view",
      "type": "function"
    },
    {
      "inputs": [],
      "name": "estimateDeployedBalance",
      "outputs": [
        {
          "internalType": "uint256",
          "name": "",
          "type": "uint256"
        }
      ],
      "stateMutability": "view",
      "type": "function"
    },
    {
      "inputs": [],
      "name": "estimateReinvestReward",
      "outputs": [
        {
          "internalType": "uint256",
          "name": "",
          "type": "uint256"
        }
      ],
      "stateMutability": "view",
      "type": "function"
    },
    {
      "inputs": [],
      "name": "getActualLeverage",
      "outputs": [
        {
          "internalType": "uint256",
          "name": "",
          "type": "uint256"
        }
      ],
      "stateMutability": "view",
      "type": "function"
    },
    {
      "inputs": [
        {
          "internalType": "uint256",
          "name": "amount",
          "type": "uint256"
        }
      ],
      "name": "getDepositTokensForShares",
      "outputs": [
        {
          "internalType": "uint256",
          "name": "",
          "type": "uint256"
        }
      ],
      "stateMutability": "view",
      "type": "function"
    },
    {
      "inputs": [],
      "name": "getDomainSeparator",
      "outputs": [
        {
          "internalType": "bytes32",
          "name": "",
          "type": "bytes32"
        }
      ],
      "stateMutability": "view",
      "type": "function"
    },
    {
      "inputs": [
        {
          "internalType": "uint256",
          "name": "amount",
          "type": "uint256"
        }
      ],
      "name": "getSharesForDepositTokens",
      "outputs": [
        {
          "internalType": "uint256",
          "name": "",
          "type": "uint256"
        }
      ],
      "stateMutability": "view",
      "type": "function"
    },
    {
      "inputs": [],
      "name": "name",
      "outputs": [
        {
          "internalType": "string",
          "name": "",
          "type": "string"
        }
      ],
      "stateMutability": "view",
      "type": "function"
    },
    {
      "inputs": [
        {
          "internalType": "address",
          "name": "",
          "type": "address"
        }
      ],
      "name": "nonces",
      "outputs": [
        {
          "internalType": "uint256",
          "name": "",
          "type": "uint256"
        }
      ],
      "stateMutability": "view",
      "type": "function"
    },
    {
      "inputs": [],
      "name": "numberOfAllowedDepositors",
      "outputs": [
        {
          "internalType": "uint256",
          "name": "",
          "type": "uint256"
        }
      ],
      "stateMutability": "view",
      "type": "function"
    },
    {
      "inputs": [],
      "name": "owner",
      "outputs": [
        {
          "internalType": "address",
          "name": "",
          "type": "address"
        }
      ],
      "stateMutability": "view",
      "type": "function"
    },
    {
      "inputs": [
        {
          "internalType": "address",
          "name": "owner",
          "type": "address"
        },
        {
          "internalType": "address",
          "name": "spender",
          "type": "address"
        },
        {
          "internalType": "uint256",
          "name": "value",
          "type": "uint256"
        },
        {
          "internalType": "uint256",
          "name": "deadline",
          "type": "uint256"
        },
        {
          "internalType": "uint8",
          "name": "v",
          "type": "uint8"
        },
        {
          "internalType": "bytes32",
          "name": "r",
          "type": "bytes32"
        },
        {
          "internalType": "bytes32",
          "name": "s",
          "type": "bytes32"
        }
      ],
      "name": "permit",
      "outputs": [],
      "stateMutability": "nonpayable",
      "type": "function"
    },
    {
      "inputs": [
        {
          "internalType": "uint256",
          "name": "amount",
          "type": "uint256"
        }
      ],
      "name": "recoverAVAX",
      "outputs": [],
      "stateMutability": "nonpayable",
      "type": "function"
    },
    {
      "inputs": [
        {
          "internalType": "address",
          "name": "tokenAddress",
          "type": "address"
        },
        {
          "internalType": "uint256",
          "name": "tokenAmount",
          "type": "uint256"
        }
      ],
      "name": "recoverERC20",
      "outputs": [],
      "stateMutability": "nonpayable",
      "type": "function"
    },
    {
      "inputs": [],
      "name": "reinvest",
      "outputs": [],
      "stateMutability": "nonpayable",
      "type": "function"
    },
    {
      "inputs": [
        {
          "internalType": "address",
          "name": "depositor",
          "type": "address"
        }
      ],
      "name": "removeDepositor",
      "outputs": [],
      "stateMutability": "nonpayable",
      "type": "function"
    },
    {
      "inputs": [],
      "name": "renounceOwnership",
      "outputs": [],
      "stateMutability": "nonpayable",
      "type": "function"
    },
    {
      "inputs": [
        {
          "internalType": "uint256",
          "name": "minReturnAmountAccepted",
          "type": "uint256"
        },
        {
          "internalType": "bool",
          "name": "disableDeposits",
          "type": "bool"
        }
      ],
      "name": "rescueDeployedFunds",
      "outputs": [],
      "stateMutability": "nonpayable",
      "type": "function"
    },
    {
      "inputs": [
        {
          "internalType": "address",
          "name": "token",
          "type": "address"
        },
        {
          "internalType": "address",
          "name": "spender",
          "type": "address"
        }
      ],
      "name": "revokeAllowance",
      "outputs": [],
      "stateMutability": "nonpayable",
      "type": "function"
    },
    {
      "inputs": [],
      "name": "rewardToken",
      "outputs": [
        {
          "internalType": "contract IERC20",
          "name": "",
          "type": "address"
        }
      ],
      "stateMutability": "view",
      "type": "function"
    },
    {
      "inputs": [],
      "name": "setAllowances",
      "outputs": [],
      "stateMutability": "nonpayable",
      "type": "function"
    },
    {
      "inputs": [],
      "name": "symbol",
      "outputs": [
        {
          "internalType": "string",
          "name": "",
          "type": "string"
        }
      ],
      "stateMutability": "view",
      "type": "function"
    },
    {
      "inputs": [],
      "name": "totalDeposits",
      "outputs": [
        {
          "internalType": "uint256",
          "name": "",
          "type": "uint256"
        }
      ],
      "stateMutability": "view",
      "type": "function"
    },
    {
      "inputs": [],
      "name": "totalSupply",
      "outputs": [
        {
          "internalType": "uint256",
          "name": "",
          "type": "uint256"
        }
      ],
      "stateMutability": "view",
      "type": "function"
    },
    {
      "inputs": [
        {
          "internalType": "address",
          "name": "dst",
          "type": "address"
        },
        {
          "internalType": "uint256",
          "name": "amount",
          "type": "uint256"
        }
      ],
      "name": "transfer",
      "outputs": [
        {
          "internalType": "bool",
          "name": "",
          "type": "bool"
        }
      ],
      "stateMutability": "nonpayable",
      "type": "function"
    },
    {
      "inputs": [
        {
          "internalType": "address",
          "name": "src",
          "type": "address"
        },
        {
          "internalType": "address",
          "name": "dst",
          "type": "address"
        },
        {
          "internalType": "uint256",
          "name": "amount",
          "type": "uint256"
        }
      ],
      "name": "transferFrom",
      "outputs": [
        {
          "internalType": "bool",
          "name": "",
          "type": "bool"
        }
      ],
      "stateMutability": "nonpayable",
      "type": "function"
    },
    {
      "inputs": [
        {
          "internalType": "address",
          "name": "newOwner",
          "type": "address"
        }
      ],
      "name": "transferOwnership",
      "outputs": [],
      "stateMutability": "nonpayable",
      "type": "function"
    },
    {
      "inputs": [
        {
          "internalType": "uint256",
          "name": "newValue",
          "type": "uint256"
        }
      ],
      "name": "updateAdminFee",
      "outputs": [],
      "stateMutability": "nonpayable",
      "type": "function"
    },
    {
      "inputs": [
        {
          "internalType": "bool",
          "name": "newValue",
          "type": "bool"
        }
      ],
      "name": "updateDepositsEnabled",
      "outputs": [],
      "stateMutability": "nonpayable",
      "type": "function"
    },
    {
      "inputs": [
        {
          "internalType": "address",
          "name": "newValue",
          "type": "address"
        }
      ],
      "name": "updateDevAddr",
      "outputs": [],
      "stateMutability": "nonpayable",
      "type": "function"
    },
    {
      "inputs": [
        {
          "internalType": "uint256",
          "name": "newValue",
          "type": "uint256"
        }
      ],
      "name": "updateDevFee",
      "outputs": [],
      "stateMutability": "nonpayable",
      "type": "function"
    },
    {
      "inputs": [
        {
          "internalType": "uint256",
          "name": "_leverageLevel",
          "type": "uint256"
        },
        {
          "internalType": "uint256",
          "name": "_safetyFactor",
          "type": "uint256"
        },
        {
          "internalType": "uint256",
          "name": "_minMinting",
          "type": "uint256"
        },
        {
          "internalType": "uint256",
          "name": "_leverageBips",
          "type": "uint256"
        }
      ],
      "name": "updateLeverage",
      "outputs": [],
      "stateMutability": "nonpayable",
      "type": "function"
    },
    {
      "inputs": [
        {
          "internalType": "uint256",
          "name": "newValue",
          "type": "uint256"
        }
      ],
      "name": "updateMaxTokensToDepositWithoutReinvest",
      "outputs": [],
      "stateMutability": "nonpayable",
      "type": "function"
    },
    {
      "inputs": [
        {
          "internalType": "uint256",
          "name": "newValue",
          "type": "uint256"
        }
      ],
      "name": "updateMinTokensToReinvest",
      "outputs": [],
      "stateMutability": "nonpayable",
      "type": "function"
    },
    {
      "inputs": [
        {
          "internalType": "uint256",
          "name": "newValue",
          "type": "uint256"
        }
      ],
      "name": "updateReinvestReward",
      "outputs": [],
      "stateMutability": "nonpayable",
      "type": "function"
    },
    {
      "inputs": [
        {
          "internalType": "uint256",
          "name": "amount",
          "type": "uint256"
        }
      ],
      "name": "withdraw",
      "outputs": [],
      "stateMutability": "nonpayable",
      "type": "function"
    }
  ],
  "transactionHash": "0x6afb4875251f8b1360eec70238c97984733b5da2f909b740769b37fb609671d0",
  "args": [
    "Yield Yak: Blizz WBTC.e",
    "0xA867c1acA4B5F1E0a66cf7b1FE33525D57608854",
    "0x2d867AE30400ffFaD9BeD8472c514c2d6b827F5f",
    "0x70BbE4A294878a14CB3CDD9315f5EB490e346163",
    "0x8d36C5c6947ADCcd25Ef49Ea1aAC2ceACFff0bD7",
    {
      "depositToken": "0x50b7545627a5162f82a992c33b87adc75187b218",
      "poolRewardToken": "0x0f34919404a290e71fc6A510cB4a6aCb8D764b24",
      "avToken": "0x81ccdd9e44c518caee2f720c43cd0853032a1779",
      "avDebtToken": "0x52b9879984dc9565359bb52117c43665e699397b"
    },
    {
      "swapPairRewardDeposit": "0xd5a37dc5c9a396a03dd1136fc76a1a02b1c88ffa",
      "swapPairPoolReward": "0xac3f978714c613e768272c502a8912bc03dcf624"
    },
    {
      "leverageLevel": "31988",
      "safetyFactor": "1345",
      "leverageBips": "10000",
      "minMinting": "1000"
    },
    {
      "minTokensToReinvest": "100000000000000",
      "adminFeeBips": 0,
      "devFeeBips": 700,
      "reinvestRewardBips": 100
    }
  ],
  "solcInputHash": "1661a3fe54f9bf664e4e7989103f52c7",
  "bytecode": "0x60c060405260096080819052685969656c642059616b60b81b60a09081526200002c916000919062000a49565b506040805180820190915260038082526216549560ea1b6020909201918252620000599160019162000a49565b503480156200006757600080fd5b50604051620056bd380380620056bd8339810160408190526200008a9162000c7f565b60006200009662000278565b600680546001600160a01b0319166001600160a01b038316908117909155604051919250906000906000805160206200569d833981519152908290a3508851620000e89060009060208c019062000a49565b50601280546001600160a01b03808b166001600160a01b031992831617909255601380548a841690831617905560148054898416908316179055855160098054918416918316919091179055600a8054821673b31f66aa3c1e785363f0875a1b74e27b85fd66c7179055602080870151601b8054918516918416919091179055850151601c805491909316911617905562000183826200027c565b600b8054336001600160a01b03199182161790915560408501516019805483166001600160a01b039283161790556060860151601a805490931691161790558251620001cf906200029a565b620001d962000353565b8051620001e690620004ba565b6020810151620001f69062000542565b6040810151620002069062000610565b60608101516200021690620006ca565b62000222600162000784565b6200022d856200082c565b7fc7606d21ac05cd309191543e409f0845c016120563783d70e4f41419dc0ef2346000806040516200026192919062000df0565b60405180910390a150505050505050505062000f78565b3390565b80516015556040810151601755602081015160165560600151601855565b6001600160a01b038116620002cc5760405162461bcd60e51b8152600401620002c39062000f0d565b60405180910390fd5b601d80546001600160a01b0319166001600160a01b038381169190911791829055600954600a5462000306938316929182169116620008e6565b80620003315750601d54600a5460095462000331926001600160a01b039081169281169116620008e6565b620003505760405162461bcd60e51b8152600401620002c39062000eb0565b50565b6200035d62000278565b6001600160a01b03166200037062000a0b565b6001600160a01b031614620003995760405162461bcd60e51b8152600401620002c39062000e7b565b60095460145460405163095ea7b360e01b81526001600160a01b039283169263095ea7b392620003d3929116906000199060040162000dcc565b602060405180830381600087803b158015620003ee57600080fd5b505af115801562000403573d6000803e3d6000fd5b505050506040513d601f19601f8201168201806040525081019062000429919062000c5d565b5060195460145460405163095ea7b360e01b81526001600160a01b039283169263095ea7b39262000464929116906000199060040162000dcc565b602060405180830381600087803b1580156200047f57600080fd5b505af115801562000494573d6000803e3d6000fd5b505050506040513d601f19601f8201168201806040525081019062000350919062000c5d565b620004c462000278565b6001600160a01b0316620004d762000a0b565b6001600160a01b031614620005005760405162461bcd60e51b8152600401620002c39062000e7b565b7f481f79ac3a523b6d6db3c5a720e190e986d1cc1b41adcdf50f9caef849901100600c54826040516200053592919062000df0565b60405180910390a1600c55565b6200054c62000278565b6001600160a01b03166200055f62000a0b565b6001600160a01b031614620005885760405162461bcd60e51b8152600401620002c39062000e7b565b612710620005c2600f54620005ae6011548562000a1a60201b62001cb51790919060201c565b62000a1a60201b62001cb51790919060201c565b1115620005ce57600080fd5b7f3cc372f330f95ac9540626dc8a25f5bf21ba607215a5d58304cb804d446f104a601054826040516200060392919062000df0565b60405180910390a1601055565b6200061a62000278565b6001600160a01b03166200062d62000a0b565b6001600160a01b031614620006565760405162461bcd60e51b8152600401620002c39062000e7b565b6127106200067c600f54620005ae6010548562000a1a60201b62001cb51790919060201c565b11156200068857600080fd5b7f2a42303d002f0ba6cfe8259c91d4684443fb0b3de286ba74991175d65172613160115482604051620006bd92919062000df0565b60405180910390a1601155565b620006d462000278565b6001600160a01b0316620006e762000a0b565b6001600160a01b031614620007105760405162461bcd60e51b8152600401620002c39062000e7b565b61271062000736601154620005ae6010548562000a1a60201b62001cb51790919060201c565b11156200074257600080fd5b7fe7f97d51d307dc44045597c9978bec0f842e6bb40d19b9444084cfa30d9ed4f2600f54826040516200077792919062000df0565b60405180910390a1600f55565b6200078e62000278565b6001600160a01b0316620007a162000a0b565b6001600160a01b031614620007ca5760405162461bcd60e51b8152600401620002c39062000e7b565b600e5460ff1615158115151415620007e157600080fd5b600e805460ff19168215151790556040517f7b014ed3854e7f5cb0218d58b3c6ae7d53a68bb0af2f67bfb029ea42c38a7e85906200082190839062000de5565b60405180910390a150565b6200083662000278565b6001600160a01b03166200084962000a0b565b6001600160a01b031614620008725760405162461bcd60e51b8152600401620002c39062000e7b565b6001600160a01b0381166200089b5760405162461bcd60e51b8152600401620002c39062000dfe565b6006546040516001600160a01b038084169216906000805160206200569d83398151915290600090a3600680546001600160a01b0319166001600160a01b0392909216919091179055565b6000826001600160a01b0316846001600160a01b0316630dfe16816040518163ffffffff1660e01b815260040160206040518083038186803b1580156200092c57600080fd5b505afa15801562000941573d6000803e3d6000fd5b505050506040513d601f19601f8201168201806040525081019062000967919062000c40565b6001600160a01b031614801562000a035750816001600160a01b0316846001600160a01b031663d21220a76040518163ffffffff1660e01b815260040160206040518083038186803b158015620009bd57600080fd5b505afa158015620009d2573d6000803e3d6000fd5b505050506040513d601f19601f82011682018060405250810190620009f8919062000c40565b6001600160a01b0316145b949350505050565b6006546001600160a01b031690565b60008282018381101562000a425760405162461bcd60e51b8152600401620002c39062000e44565b9392505050565b828054600181600116156101000203166002900490600052602060002090601f016020900481019282601f1062000a8c57805160ff191683800117855562000abc565b8280016001018555821562000abc579182015b8281111562000abc57825182559160200191906001019062000a9f565b5062000aca92915062000ace565b5090565b5b8082111562000aca576000815560010162000acf565b80516001600160a01b038116811462000afd57600080fd5b919050565b60006080828403121562000b14578081fd5b604051608081016001600160401b038111828210171562000b3157fe5b8060405250809150825181526020830151602082015260408301516040820152606083015160608201525092915050565b60006040828403121562000b74578081fd5b604080519081016001600160401b038111828210171562000b9157fe5b60405290508062000ba28362000ae5565b815262000bb26020840162000ae5565b60208201525092915050565b60006080828403121562000bd0578081fd5b604051608081016001600160401b038111828210171562000bed57fe5b60405290508062000bfe8362000ae5565b815262000c0e6020840162000ae5565b602082015262000c216040840162000ae5565b604082015262000c346060840162000ae5565b60608201525092915050565b60006020828403121562000c52578081fd5b62000a428262000ae5565b60006020828403121562000c6f578081fd5b8151801515811462000a42578182fd5b60008060008060008060008060006102608a8c03121562000c9e578485fd5b89516001600160401b038082111562000cb5578687fd5b818c0191508c601f83011262000cc9578687fd5b81518181111562000cd657fe5b6020915062000cee601f8201601f1916830162000f54565b8181528e8383860101111562000d02578889fd5b885b8281101562000d2157848101840151828201850152830162000d04565b8281111562000d3257898484840101525b509b5062000d4490508c820162000ae5565b9950505062000d5660408b0162000ae5565b965062000d6660608b0162000ae5565b955062000d7660808b0162000ae5565b945062000d878b60a08c0162000bbe565b935062000d998b6101208c0162000b62565b925062000dab8b6101608c0162000b02565b915062000dbd8b6101e08c0162000b02565b90509295985092959850929598565b6001600160a01b03929092168252602082015260400190565b901515815260200190565b918252602082015260400190565b60208082526026908201527f4f776e61626c653a206e6577206f776e657220697320746865207a65726f206160408201526564647265737360d01b606082015260800190565b6020808252601b908201527f536166654d6174683a206164646974696f6e206f766572666c6f770000000000604082015260600190565b6020808252818101527f4f776e61626c653a2063616c6c6572206973206e6f7420746865206f776e6572604082015260600190565b60208082526036908201527f53776170207061697220646f6573206e6f74206d61746368206465706f73697460408201527f546f6b656e20616e6420726577617264546f6b656e2e00000000000000000000606082015260800190565b60208082526027908201527f537761702070616972206973206e656365737361727920627574206e6f7420736040820152661d5c1c1b1a595960ca1b606082015260800190565b6040518181016001600160401b038111828210171562000f7057fe5b604052919050565b6147158062000f886000396000f3fe608060405234801561001057600080fd5b50600436106103785760003560e01c80638b73e606116101d3578063c89039c511610104578063dd8ce4d6116100a2578063ed24911d1161007c578063ed24911d1461069d578063f2fde38b146106a5578063f7c618c1146106b8578063fdb5a03e146106c057610378565b8063dd8ce4d614610664578063e21ac82514610677578063eab89a5a1461068a57610378565b8063da09c72c116100de578063da09c72c14610639578063db8dd95c14610641578063dbd9a4d414610649578063dd62ed3e1461065157610378565b8063c89039c51461060b578063cff1b6ef14610613578063d505accf1461062657610378565b8063a9059cbb11610171578063b6b55f251161014b578063b6b55f25146105e0578063b9e57b80146105f3578063bd079f55146105fb578063c4b24a461461060357610378565b8063a9059cbb146105b2578063ac0d31ff146105c5578063b52a321f146105d857610378565b806395d89b41116101ad57806395d89b411461057c57806399729ec1146105845780639e4e731814610597578063a8ae2b7c1461059f57610378565b80638b73e606146105415780638da5cb5b146105545780639291d5631461056957610378565b80634a970be7116102ad578063789139bc1161024b5780637ecebe00116102255780637ecebe001461050057806381837230146105135780638980f11f146105265780638aff733d1461053957610378565b8063789139bc146104dd5780637ae26773146104e55780637d882097146104f857610378565b80634ebb7916116102875780634ebb7916146104a75780635ea682ea146104ba57806370a08231146104c2578063715018a6146104d557610378565b80634a970be71461046e5780634bebd1e7146104815780634e77ace51461049457610378565b806323b872dd1161031a57806330adf81f116102f457806330adf81f14610436578063313ce5671461043e5780633bdc6e7214610453578063483c2ef01461045b57610378565b806323b872dd146103fd5780632e1a7d4d146104105780632f4f21e21461042357610378565b80630f23475d116103565780630f23475d146103d057806318160ddd146103d857806320606b70146103e057806322a05141146103e857610378565b806306fdde031461037d578063076771111461039b578063095ea7b3146103b0575b600080fd5b6103856106c8565b6040516103929190613f1d565b60405180910390f35b6103a3610756565b6040516103929190613e96565b6103c36103be3660046139b2565b61075c565b6040516103929190613e8b565b6103a3610773565b6103a3610783565b6103a3610789565b6103fb6103f6366004613b6e565b6107ad565b005b6103c361040b366004613905565b61083c565b6103fb61041e366004613b1a565b610923565b6103fb6104313660046139b2565b6109cd565b6103a36109d7565b6104466109fb565b6040516103929190614603565b6103a3610a00565b6103c36104693660046138b1565b610a06565b6103fb61047c366004613b9f565b610a1b565b6103fb61048f3660046138b1565b610ab3565b6103fb6104a23660046139dd565b610b97565b6103fb6104b5366004613b1a565b610c35565b6103a3610ce1565b6103a36104d03660046138b1565b610ce7565b6103fb610d06565b6103a3610d9c565b6103fb6104f33660046138cd565b610da2565b6103a3610e6b565b6103a361050e3660046138b1565b610e8f565b6103fb610521366004613b1a565b610ea1565b6103fb6105343660046139b2565b610f20565b6103a3611032565b6103fb61054f3660046138b1565b611038565b61055c61113e565b6040516103929190613cd6565b6103fb6105773660046138b1565b61114d565b6103856111ed565b6103fb610592366004613b1a565b611247565b6103a36112f5565b6103fb6105ad366004613b1a565b611319565b6103c36105c03660046139b2565b6113c1565b6103fb6105d3366004613b4a565b6113ce565b6103c3611651565b6103fb6105ee366004613b1a565b61165a565b6103a3611667565b6103a36116ae565b6103a36116b4565b61055c6116c7565b6103fb610621366004613b1a565b6116d6565b6103fb610634366004613945565b61177e565b61055c611833565b6103a3611842565b6103fb611874565b6103a361065f3660046138cd565b6119c8565b6103a3610672366004613b1a565b6119f3565b6103fb610685366004613b1a565b611a2d565b6103a3610698366004613b1a565b611aac565b6103a3611add565b6103fb6106b33660046138b1565b611b74565b61055c611c42565b6103fb611c51565b6000805460408051602060026001851615610100026000190190941693909304601f8101849004840282018401909252818152929183018282801561074e5780601f106107235761010080835404028352916020019161074e565b820191906000526020600020905b81548152906001019060200180831161073157829003601f168201915b505050505081565b60105481565b6000610769338484611ce1565b5060015b92915050565b600061077d610e6b565b90505b90565b60025481565b7f8b73c3c69bb8fe3d512ecc4cf759cc79239f7b179b0ffacaa9a75d522b39400f81565b600b546001600160a01b031633146107e05760405162461bcd60e51b81526004016107d790614429565b60405180910390fd5b610809604051806080016040528086815260200185815260200183815260200184815250611d95565b600080610814611db3565b50909250905061082c6108278383611f26565b611f68565b610834612146565b505050505050565b6001600160a01b03831660008181526003602090815260408083203380855292528220549192909190821480159061087657506000198114155b1561090c5760006108a2856040518060600160405280602f815260200161465c602f91398491906122ce565b6001600160a01b03808916600081815260036020908152604080832094891680845294909152908190208490555192935090917f8c5be1e5ebec7d5bd14f71427d1e84f3dd0314c0f7b2291e5b200ac8c7c3b92590610902908590613e96565b60405180910390a3505b6109178686866122fa565b50600195945050505050565b600061092e82611aac565b905060185481116109515760405162461bcd60e51b81526004016107d790613fc4565b80156109c95761096133836123de565b600061096c826124b8565b600954909150610986906001600160a01b0316338361257c565b336001600160a01b03167f884edad9ce6fa2440d8a54cc123490eb96d2768479d49ff9c7366125a9424364826040516109bf9190613e96565b60405180910390a2505b5050565b6109c98282612618565b7f6e71edae12b1b97f4d1f60370fef10105fa2faae0126114a169c64845d6126c981565b601281565b60075481565b60086020526000908152604090205460ff1681565b6009546040517fd505accf0000000000000000000000000000000000000000000000000000000081526001600160a01b039091169063d505accf90610a7090339030908a908a908a908a908a90600401613d0e565b600060405180830381600087803b158015610a8a57600080fd5b505af1158015610a9e573d6000803e3d6000fd5b50505050610aac3386612618565b5050505050565b610abb6127ca565b6001600160a01b0316610acc61113e565b6001600160a01b031614610af25760405162461bcd60e51b81526004016107d790614360565b6001600160a01b03811660009081526008602052604090205460ff1615610b2b5760405162461bcd60e51b81526004016107d790614238565b6001600160a01b0381166000908152600860205260409020805460ff19166001908117909155600754610b5d91611cb5565b6007556040516001600160a01b038216907fc0a1035c16faf8d1304056d92c00edf028f87e62b8235a938f00af9e3c0312c590600090a250565b610b9f6127ca565b6001600160a01b0316610bb061113e565b6001600160a01b031614610bd65760405162461bcd60e51b81526004016107d790614360565b600e5460ff1615158115151415610bec57600080fd5b600e805460ff19168215151790556040517f7b014ed3854e7f5cb0218d58b3c6ae7d53a68bb0af2f67bfb029ea42c38a7e8590610c2a908390613e8b565b60405180910390a150565b610c3d6127ca565b6001600160a01b0316610c4e61113e565b6001600160a01b031614610c745760405162461bcd60e51b81526004016107d790614360565b60008111610c8157600080fd5b604051339082156108fc029083906000818181858888f19350505050158015610cae573d6000803e3d6000fd5b507f8c1256b8896378cd5044f80c202f9772b9d77dc85c8a6eb51967210b09bfaa28600082604051610c2a929190613d4f565b60115481565b6001600160a01b0381166000908152600460205260409020545b919050565b610d0e6127ca565b6001600160a01b0316610d1f61113e565b6001600160a01b031614610d455760405162461bcd60e51b81526004016107d790614360565b6006546040516000916001600160a01b0316907f8be0079c531659141344cd1fd0a4f28419497f9722a3daafe3b4186f6b6457e0908390a36006805473ffffffffffffffffffffffffffffffffffffffff19169055565b600d5481565b610daa6127ca565b6001600160a01b0316610dbb61113e565b6001600160a01b031614610de15760405162461bcd60e51b81526004016107d790614360565b60405163095ea7b360e01b81526001600160a01b0383169063095ea7b390610e10908490600090600401613d4f565b602060405180830381600087803b158015610e2a57600080fd5b505af1158015610e3e573d6000803e3d6000fd5b505050506040513d601f19601f82011682018060405250810190610e6291906139f9565b6109c957600080fd5b6000806000610e78611db3565b509092509050610e888282611f26565b9250505090565b60056020526000908152604090205481565b610ea96127ca565b6001600160a01b0316610eba61113e565b6001600160a01b031614610ee05760405162461bcd60e51b81526004016107d790614360565b7f481f79ac3a523b6d6db3c5a720e190e986d1cc1b41adcdf50f9caef849901100600c5482604051610f139291906145bd565b60405180910390a1600c55565b610f286127ca565b6001600160a01b0316610f3961113e565b6001600160a01b031614610f5f5760405162461bcd60e51b81526004016107d790614360565b60008111610f6c57600080fd5b60405163a9059cbb60e01b81526001600160a01b0383169063a9059cbb90610f9a9033908590600401613d4f565b602060405180830381600087803b158015610fb457600080fd5b505af1158015610fc8573d6000803e3d6000fd5b505050506040513d601f19601f82011682018060405250810190610fec91906139f9565b610ff557600080fd5b7f8c1256b8896378cd5044f80c202f9772b9d77dc85c8a6eb51967210b09bfaa288282604051611026929190613d4f565b60405180910390a15050565b600f5481565b6110406127ca565b6001600160a01b031661105161113e565b6001600160a01b0316146110775760405162461bcd60e51b81526004016107d790614360565b6000600754116110995760405162461bcd60e51b81526004016107d790614149565b6001600160a01b03811660009081526008602052604090205460ff1615156001146110d65760405162461bcd60e51b81526004016107d7906142a6565b6001600160a01b0381166000908152600860205260409020805460ff19169055600754611104906001611f26565b6007556040516001600160a01b038216907f0e86f6608b536e5339a25b65ff531f5ea91e1313d056ecd4752b35cbd16137d490600090a250565b6006546001600160a01b031690565b600b546001600160a01b031633146111775760405162461bcd60e51b81526004016107d790614429565b600b546040517fa8e91499ed37682f43cffb045fcc7d379a91e8c9a14e6321877ee34dee564c00916111b6916001600160a01b03909116908490613d68565b60405180910390a1600b805473ffffffffffffffffffffffffffffffffffffffff19166001600160a01b0392909216919091179055565b60018054604080516020600284861615610100026000190190941693909304601f8101849004840282018401909252818152929183018282801561074e5780601f106107235761010080835404028352916020019161074e565b61124f6127ca565b6001600160a01b031661126061113e565b6001600160a01b0316146112865760405162461bcd60e51b81526004016107d790614360565b6127106112aa600f546112a460105485611cb590919063ffffffff16565b90611cb5565b11156112b557600080fd5b7f2a42303d002f0ba6cfe8259c91d4684443fb0b3de286ba74991175d651726131601154826040516112e89291906145bd565b60405180910390a1601155565b7fc89efdaa54c0f20c7adf612882df0950f5a951637e0307cdcb4c672f298b8bc681565b6113216127ca565b6001600160a01b031661133261113e565b6001600160a01b0316146113585760405162461bcd60e51b81526004016107d790614360565b6127106113766011546112a460105485611cb590919063ffffffff16565b111561138157600080fd5b7fe7f97d51d307dc44045597c9978bec0f842e6bb40d19b9444084cfa30d9ed4f2600f54826040516113b49291906145bd565b60405180910390a1600f55565b60006107693384846122fa565b6113d66127ca565b6001600160a01b03166113e761113e565b6001600160a01b03161461140d5760405162461bcd60e51b81526004016107d790614360565b6009546040516370a0823160e01b81526000916001600160a01b0316906370a082319061143e903090600401613cd6565b60206040518083038186803b15801561145657600080fd5b505afa15801561146a573d6000803e3d6000fd5b505050506040513d601f19601f8201168201806040525081019061148e9190613b32565b905060008061149b611db3565b5090925090506114ae6108278383611f26565b601454600954604051631a4ca37b60e21b81526001600160a01b03928316926369328dec926114e892911690600019903090600401613ddc565b602060405180830381600087803b15801561150257600080fd5b505af1158015611516573d6000803e3d6000fd5b505050506040513d601f19601f8201168201806040525081019061153a9190613b32565b506009546040516370a0823160e01b81526000916001600160a01b0316906370a082319061156c903090600401613cd6565b60206040518083038186803b15801561158457600080fd5b505afa158015611598573d6000803e3d6000fd5b505050506040513d601f19601f820116820180604052508101906115bc9190613b32565b9050856115c98286611f26565b10156115e75760405162461bcd60e51b81526004016107d790613f30565b7fc7606d21ac05cd309191543e409f0845c016120563783d70e4f41419dc0ef234611610610e6b565b6002546040516116219291906145bd565b60405180910390a1600e5460ff161515600114801561164257506001851515145b15610834576108346000610b97565b600e5460ff1681565b6116643382612618565b50565b6000806116726116b4565b9050600c5481106116a65761169e612710611698600f54846127ce90919063ffffffff16565b90612808565b915050610780565b600091505090565b600c5481565b6000806116bf61284a565b935050505090565b6009546001600160a01b031681565b6116de6127ca565b6001600160a01b03166116ef61113e565b6001600160a01b0316146117155760405162461bcd60e51b81526004016107d790614360565b612710611733600f546112a460115485611cb590919063ffffffff16565b111561173e57600080fd5b7f3cc372f330f95ac9540626dc8a25f5bf21ba607215a5d58304cb804d446f104a601054826040516117719291906145bd565b60405180910390a1601055565b4284101561179e5760405162461bcd60e51b81526004016107d79061426f565b6001600160a01b038716600090815260056020908152604080832080546001810190915590516117f9927f6e71edae12b1b97f4d1f60370fef10105fa2faae0126114a169c64845d6126c9928c928c928c92918c9101613e9f565b60405160208183030381529060405280519060200120905061181e8882868686612def565b611829888888611ce1565b5050505050505050565b600b546001600160a01b031681565b600080600061184f611db3565b509092509050610e886118628383611f26565b61169884670de0b6b3a76400006127ce565b61187c6127ca565b6001600160a01b031661188d61113e565b6001600160a01b0316146118b35760405162461bcd60e51b81526004016107d790614360565b60095460145460405163095ea7b360e01b81526001600160a01b039283169263095ea7b3926118eb9291169060001990600401613d4f565b602060405180830381600087803b15801561190557600080fd5b505af1158015611919573d6000803e3d6000fd5b505050506040513d601f19601f8201168201806040525081019061193d91906139f9565b5060195460145460405163095ea7b360e01b81526001600160a01b039283169263095ea7b3926119769291169060001990600401613d4f565b602060405180830381600087803b15801561199057600080fd5b505af11580156119a4573d6000803e3d6000fd5b505050506040513d601f19601f8201168201806040525081019061166491906139f9565b6001600160a01b03918216600090815260036020908152604080832093909416825291909152205490565b6000611a09611a00610e6b565b600254906127ce565b611a14575080610d01565b61076d611a1f610e6b565b6002546116989085906127ce565b611a356127ca565b6001600160a01b0316611a4661113e565b6001600160a01b031614611a6c5760405162461bcd60e51b81526004016107d790614360565b7fa5dae50539d56dfe1fb5273d883b0c39bc76750a25d036fc5fbd09ad8fd5f57f600d5482604051611a9f9291906145bd565b60405180910390a1600d55565b6000611ab9611a00610e6b565b611ac557506000610d01565b61076d600254611698611ad6610e6b565b85906127ce565b60007f8b73c3c69bb8fe3d512ecc4cf759cc79239f7b179b0ffacaa9a75d522b39400f60001b6000604051611b129190613c30565b6040519081900390207fc89efdaa54c0f20c7adf612882df0950f5a951637e0307cdcb4c672f298b8bc6611b44612ec5565b30604051602001611b59959493929190613ed3565b60405160208183030381529060405280519060200120905090565b611b7c6127ca565b6001600160a01b0316611b8d61113e565b6001600160a01b031614611bb35760405162461bcd60e51b81526004016107d790614360565b6001600160a01b038116611bd95760405162461bcd60e51b81526004016107d790614021565b6006546040516001600160a01b038084169216907f8be0079c531659141344cd1fd0a4f28419497f9722a3daafe3b4186f6b6457e090600090a36006805473ffffffffffffffffffffffffffffffffffffffff19166001600160a01b0392909216919091179055565b600a546001600160a01b031681565b323314611c705760405162461bcd60e51b81526004016107d79061407e565b6000806000611c7d61284a565b925092509250600c54811015611ca55760405162461bcd60e51b81526004016107d790613f8d565b611cb0838383612ec9565b505050565b600082820183811015611cda5760405162461bcd60e51b81526004016107d7906140b5565b9392505050565b6001600160a01b038316611d075760405162461bcd60e51b81526004016107d790614395565b6001600160a01b038216611d2d5760405162461bcd60e51b81526004016107d790614551565b6001600160a01b0380841660008181526003602090815260408083209487168084529490915290819020849055517f8c5be1e5ebec7d5bd14f71427d1e84f3dd0314c0f7b2291e5b200ac8c7c3b92590611d88908590613e96565b60405180910390a3505050565b80516015556040810151601755602081015160165560600151601855565b6019546040516370a0823160e01b8152600091829182916001600160a01b0316906370a0823190611de8903090600401613cd6565b60206040518083038186803b158015611e0057600080fd5b505afa158015611e14573d6000803e3d6000fd5b505050506040513d601f19601f82011682018060405250810190611e389190613b32565b601a546040516370a0823160e01b81529194506001600160a01b0316906370a0823190611e69903090600401613cd6565b60206040518083038186803b158015611e8157600080fd5b505afa158015611e95573d6000803e3d6000fd5b505050506040513d601f19601f82011682018060405250810190611eb99190613b32565b91506000905081611ee7601554611698611ee0601754601554611f2690919063ffffffff16565b87906127ce565b1115611f2157611f1e82611f18601554611698611f11601754601554611f2690919063ffffffff16565b88906127ce565b90611f26565b90505b909192565b6000611cda83836040518060400160405280601f81526020017f536166654d6174683a207375627472616374696f6e20756e646572666c6f77008152506122ce565b6000806000611f75611db3565b919450925090506000611fc3611f8f86611f188787611f26565b611f18601754611698611faf601654601554611f2690919063ffffffff16565b611fbd8b611f188c8c611f26565b906127ce565b90506000611fd18483611f26565b90505b8015610834578284811115611fe65750835b601454600954604051631a4ca37b60e21b81526001600160a01b03928316926369328dec9261201e9291169085903090600401613ddc565b602060405180830381600087803b15801561203857600080fd5b505af115801561204c573d6000803e3d6000fd5b505050506040513d601f19601f820116820180604052508101906120709190613b32565b506014546009546040517f573ade810000000000000000000000000000000000000000000000000000000081526001600160a01b039283169263573ade81926120c59291169085906002903090600401613e2c565b602060405180830381600087803b1580156120df57600080fd5b505af11580156120f3573d6000803e3d6000fd5b505050506040513d601f19601f820116820180604052508101906121179190613b32565b50612120611db3565b919750955093508483106121345750610834565b61213e8584611f26565b915050611fd4565b6000806000612153611db3565b925092509250600061218560175461169861217b601654601554611f2690919063ffffffff16565b611fbd8888611f26565b90505b808410156122c8578061219b8584611cb5565b11156121ae576121ab8185611f26565b91505b6018548210156121bd576122c8565b6014546009546040517fa415bcad0000000000000000000000000000000000000000000000000000000081526001600160a01b039283169263a415bcad926122149291169086906002906000903090600401613e57565b600060405180830381600087803b15801561222e57600080fd5b505af1158015612242573d6000803e3d6000fd5b505060145460095460405163e8eda9df60e01b81526001600160a01b03928316945063e8eda9df9350612282929091169086903090600090600401613dff565b600060405180830381600087803b15801561229c57600080fd5b505af11580156122b0573d6000803e3d6000fd5b505050506122bc611db3565b91955093509150612188565b50505050565b600081848411156122f25760405162461bcd60e51b81526004016107d79190613f1d565b505050900390565b6001600160a01b0382166123205760405162461bcd60e51b81526004016107d7906143cc565b61235d816040518060600160405280602e81526020016146b2602e91396001600160a01b03861660009081526004602052604090205491906122ce565b6001600160a01b03808516600090815260046020526040808220939093559084168152205461238c9082611cb5565b6001600160a01b0380841660008181526004602052604090819020939093559151908516907fddf252ad1be2c89b69c2b068fc378daa952ba7f163c4a11628f55a4df523b3ef90611d88908590613e96565b61241b8160405180606001604052806027815260200161468b602791396001600160a01b03851660009081526004602052604090205491906122ce565b60046000846001600160a01b03166001600160a01b031681526020019081526020016000208190555061246b816040518060600160405280602781526020016146356027913960025491906122ce565b6002556040516000906001600160a01b038416907fddf252ad1be2c89b69c2b068fc378daa952ba7f163c4a11628f55a4df523b3ef906124ac908590613e96565b60405180910390a35050565b60006124c382611f68565b60006124cd611db3565b505090508083116124de57826124e2565b6000195b601454600954604051631a4ca37b60e21b81529295506000926001600160a01b03928316926369328dec926125209291169088903090600401613ddc565b602060405180830381600087803b15801561253a57600080fd5b505af115801561254e573d6000803e3d6000fd5b505050506040513d601f19601f820116820180604052508101906125729190613b32565b9050611cda612146565b60405163a9059cbb60e01b81526001600160a01b0384169063a9059cbb906125aa9085908590600401613d4f565b602060405180830381600087803b1580156125c457600080fd5b505af11580156125d8573d6000803e3d6000fd5b505050506040513d601f19601f820116820180604052508101906125fc91906139f9565b611cb05760405162461bcd60e51b81526004016107d7906144f4565b60075415612654573360009081526008602052604090205460ff1615156001146126545760405162461bcd60e51b81526004016107d7906140ec565b600e5460ff16151560011461267b5760405162461bcd60e51b81526004016107d790614460565b600d54156126af57600080600061269061284a565b925092509250600d548111156126ab576126ab838383612ec9565b5050505b6009546040517f23b872dd0000000000000000000000000000000000000000000000000000000081526001600160a01b03909116906323b872dd906126fc90339030908690600401613cea565b602060405180830381600087803b15801561271657600080fd5b505af115801561272a573d6000803e3d6000fd5b505050506040513d601f19601f8201168201806040525081019061274e91906139f9565b61276a5760405162461bcd60e51b81526004016107d790614203565b61277c82612777836119f3565b61318a565b6127858161320c565b816001600160a01b03167fe1fffcc4923d04b559f4d29a8bfc6cda04eb5b0d3c460751c2402c5c5cc9109c826040516127be9190613e96565b60405180910390a25050565b3390565b6000826127dd5750600061076d565b828202828482816127ea57fe5b0414611cda5760405162461bcd60e51b81526004016107d790614303565b6000611cda83836040518060400160405280601a81526020017f536166654d6174683a206469766973696f6e206279207a65726f0000000000008152506132a1565b6013546040517fbfccff450000000000000000000000000000000000000000000000000000000081526000918291829182916001600160a01b039091169063bfccff459061289c903090600401613cd6565b60206040518083038186803b1580156128b457600080fd5b505afa1580156128c8573d6000803e3d6000fd5b505050506040513d601f19601f820116820180604052508101906128ec9190613b32565b604080516002808252606080830184529394509091602083019080368337505060195482519293506001600160a01b03169183915060009061292a57fe5b6001600160a01b039283166020918202929092010152601a5482519116908290600190811061295557fe5b60200260200101906001600160a01b031690816001600160a01b03168152505061297d613830565b60135482516001600160a01b0390911690639a7b5f1190849060009061299f57fe5b60200260200101516040518263ffffffff1660e01b81526004016129c39190613cd6565b60a06040518083038186803b1580156129db57600080fd5b505afa1580156129ef573d6000803e3d6000fd5b505050506040513d601f19601f82011682018060405250810190612a139190613a15565b9050612a1e816132d8565b9050612a28613868565b60135483516001600160a01b0390911690630f208beb908590600090612a4a57fe5b6020026020010151306040518363ffffffff1660e01b8152600401612a70929190613d68565b604080518083038186803b158015612a8757600080fd5b505afa158015612a9b573d6000803e3d6000fd5b505050506040513d601f19601f82011682018060405250810190612abf9190613a84565b90506000612ae764e8d4a51000611698856060015185600001516127ce90919063ffffffff16565b9050612b0a612b03836020015183611f2690919063ffffffff16565b8690611cb5565b60135485519196506001600160a01b031690639a7b5f119086906001908110612b2f57fe5b60200260200101516040518263ffffffff1660e01b8152600401612b539190613cd6565b60a06040518083038186803b158015612b6b57600080fd5b505afa158015612b7f573d6000803e3d6000fd5b505050506040513d601f19601f82011682018060405250810190612ba39190613a15565b9250612bae836132d8565b60135485519194506001600160a01b031690630f208beb9086906001908110612bd357fe5b6020026020010151306040518363ffffffff1660e01b8152600401612bf9929190613d68565b604080518083038186803b158015612c1057600080fd5b505afa158015612c24573d6000803e3d6000fd5b505050506040513d601f19601f82011682018060405250810190612c489190613a84565b9150612c6e64e8d4a51000611698856060015185600001516127ce90919063ffffffff16565b9050612c8a612b03836020015183611f2690919063ffffffff16565b9450612c97856002612808565b601b546040516370a0823160e01b8152919650612d1e916001600160a01b03909116906370a0823190612cce903090600401613cd6565b60206040518083038186803b158015612ce657600080fd5b505afa158015612cfa573d6000803e3d6000fd5b505050506040513d601f19601f82011682018060405250810190612b039190613b32565b601b54600a54601c54929750600092612d499289926001600160a01b0391821692908216911661347b565b600a546040516370a0823160e01b81529192506000916001600160a01b03909116906370a0823190612d7f903090600401613cd6565b60206040518083038186803b158015612d9757600080fd5b505afa158015612dab573d6000803e3d6000fd5b505050506040513d601f19601f82011682018060405250810190612dcf9190613b32565b90506000612ddd8383611cb5565b979b919a509698509650505050505050565b6000612df9611add565b85604051602001612e0b929190613ca0565b604051602081830303815290604052805190602001209050600060018286868660405160008152602001604052604051612e489493929190613eff565b6020604051602081039080840390855afa158015612e6a573d6000803e3d6000fd5b5050604051601f1901519150506001600160a01b03811615801590612ea05750866001600160a01b0316816001600160a01b0316145b612ebc5760405162461bcd60e51b81526004016107d7906141a6565b50505050505050565b4690565b6040805160028082526060808301845292602083019080368337505060195482519293506001600160a01b031691839150600090612f0357fe5b6001600160a01b039283166020918202929092010152601a54825191169082906001908110612f2e57fe5b6001600160a01b0392831660209182029290920101526013546040517f8e2eba09000000000000000000000000000000000000000000000000000000008152911690638e2eba0990612f869030908590600401613d82565b600060405180830381600087803b158015612fa057600080fd5b505af1158015612fb4573d6000803e3d6000fd5b50506012546040517fe6c91a150000000000000000000000000000000000000000000000000000000081526001600160a01b03909116925063e6c91a15915061300290600190600401613e8b565b600060405180830381600087803b15801561301c57600080fd5b505af1158015613030573d6000803e3d6000fd5b5050505061303d84613556565b50600061305b612710611698601154866127ce90919063ffffffff16565b9050801561308057600a54600b54613080916001600160a01b0390811691168361257c565b600061309d612710611698601054876127ce90919063ffffffff16565b905080156130c357600a546130c3906001600160a01b03166130bd61113e565b8361257c565b60006130e0612710611698600f54886127ce90919063ffffffff16565b905080156130ff57600a546130ff906001600160a01b0316338361257c565b600061313361311483611f1886818b8a611f26565b600a54600954601d546001600160a01b0392831692918216911661357a565b905061313e8161320c565b7fc7606d21ac05cd309191543e409f0845c016120563783d70e4f41419dc0ef234613167610e6b565b6002546040516131789291906145bd565b60405180910390a15050505050505050565b6002546131979082611cb5565b6002556001600160a01b0382166000908152600460205260409020546131bd9082611cb5565b6001600160a01b0383166000818152600460205260408082209390935591519091907fddf252ad1be2c89b69c2b068fc378daa952ba7f163c4a11628f55a4df523b3ef906124ac908590613e96565b6000811161322c5760405162461bcd60e51b81526004016107d790614497565b60145460095460405163e8eda9df60e01b81526001600160a01b039283169263e8eda9df926132679291169085903090600090600401613dff565b600060405180830381600087803b15801561328157600080fd5b505af1158015613295573d6000803e3d6000fd5b50505050611664612146565b600081836132c25760405162461bcd60e51b81526004016107d79190613f1d565b5060008385816132ce57fe5b0495945050505050565b6132e0613830565b816040015142116132f2575080610d01565b81518061330757505042604082015280610d01565b6000613320846040015142611f2690919063ffffffff16565b9050600061344a601360009054906101000a90046001600160a01b03166001600160a01b03166317caf6f16040518163ffffffff1660e01b815260040160206040518083038186803b15801561337557600080fd5b505afa158015613389573d6000803e3d6000fd5b505050506040513d601f19601f820116820180604052508101906133ad9190613b32565b602080880151601354604080517feacdaabc000000000000000000000000000000000000000000000000000000008152905161169894611fbd936001600160a01b03169263eacdaabc9260048083019392829003018186803b15801561341257600080fd5b505afa158015613426573d6000803e3d6000fd5b505050506040513d601f19601f82011682018060405250810190611ee09190613b32565b905061346d613462846116988464e8d4a510006127ce565b606087015190611cb5565b606086015250929392505050565b600080613488858561371b565b509050600080846001600160a01b0316630902f1ac6040518163ffffffff1660e01b815260040160606040518083038186803b1580156134c757600080fd5b505afa1580156134db573d6000803e3d6000fd5b505050506040513d601f19601f820116820180604052508101906134ff9190613acc565b5091509150866001600160a01b0316836001600160a01b03161461351f57905b61354a88836dffffffffffffffffffffffffffff16836dffffffffffffffffffffffffffff1661374c565b98975050505050505050565b601b54600a54601c5460009261076d9285926001600160a01b039283169291821691165b600080613587858561371b565b509050600080846001600160a01b0316630902f1ac6040518163ffffffff1660e01b815260040160606040518083038186803b1580156135c657600080fd5b505afa1580156135da573d6000803e3d6000fd5b505050506040513d601f19601f820116820180604052508101906135fe9190613acc565b5091509150866001600160a01b0316836001600160a01b03161461361e57905b60008061364c8a856dffffffffffffffffffffffffffff16856dffffffffffffffffffffffffffff1661374c565b9050886001600160a01b0316856001600160a01b03161461366957905b61367489888c613794565b604080516000815260208101918290527f022c0d9f000000000000000000000000000000000000000000000000000000009091526001600160a01b0388169063022c0d9f906136cc90859085903090602481016145cb565b600060405180830381600087803b1580156136e657600080fd5b505af11580156136fa573d6000803e3d6000fd5b5050505081811161370b578161370d565b805b9a9950505050505050505050565b600080826001600160a01b0316846001600160a01b03161061373e578284613741565b83835b915091509250929050565b60008061375b856103e56127ce565b9050600061376982856127ce565b9050600061377d836112a4886103e86127ce565b90506137898282612808565b979650505050505050565b60405163a9059cbb60e01b81526001600160a01b0384169063a9059cbb906137c29085908590600401613d4f565b602060405180830381600087803b1580156137dc57600080fd5b505af11580156137f0573d6000803e3d6000fd5b505050506040513d601f19601f8201168201806040525081019061381491906139f9565b611cb05760405162461bcd60e51b81526004016107d790614588565b6040518060a001604052806000815260200160008152602001600081526020016000815260200160006001600160a01b031681525090565b604051806040016040528060008152602001600081525090565b80516dffffffffffffffffffffffffffff81168114610d0157600080fd5b803560ff81168114610d0157600080fd5b6000602082840312156138c2578081fd5b8135611cda81614611565b600080604083850312156138df578081fd5b82356138ea81614611565b915060208301356138fa81614611565b809150509250929050565b600080600060608486031215613919578081fd5b833561392481614611565b9250602084013561393481614611565b929592945050506040919091013590565b600080600080600080600060e0888a03121561395f578283fd5b873561396a81614611565b9650602088013561397a81614611565b95506040880135945060608801359350613996608089016138a0565b925060a0880135915060c0880135905092959891949750929550565b600080604083850312156139c4578182fd5b82356139cf81614611565b946020939093013593505050565b6000602082840312156139ee578081fd5b8135611cda81614626565b600060208284031215613a0a578081fd5b8151611cda81614626565b600060a08284031215613a26578081fd5b60405160a0810181811067ffffffffffffffff82111715613a4357fe5b8060405250825181526020830151602082015260408301516040820152606083015160608201526080830151613a7881614611565b60808201529392505050565b600060408284031215613a95578081fd5b6040516040810181811067ffffffffffffffff82111715613ab257fe5b604052825181526020928301519281019290925250919050565b600080600060608486031215613ae0578283fd5b613ae984613882565b9250613af760208501613882565b9150604084015163ffffffff81168114613b0f578182fd5b809150509250925092565b600060208284031215613b2b578081fd5b5035919050565b600060208284031215613b43578081fd5b5051919050565b60008060408385031215613b5c578182fd5b8235915060208301356138fa81614626565b60008060008060808587031215613b83578182fd5b5050823594602084013594506040840135936060013592509050565b600080600080600060a08688031215613bb6578283fd5b8535945060208601359350613bcd604087016138a0565b94979396509394606081013594506080013592915050565b60008151808452815b81811015613c0a57602081850181015186830182015201613bee565b81811115613c1b5782602083870101525b50601f01601f19169290920160200192915050565b6000808354600180821660008114613c4f5760018114613c6657613c95565b60ff198316865260028304607f1686019350613c95565b600283048786526020808720875b83811015613c8d5781548a820152908501908201613c74565b505050860193505b509195945050505050565b7f190100000000000000000000000000000000000000000000000000000000000081526002810192909252602282015260420190565b6001600160a01b0391909116815260200190565b6001600160a01b039384168152919092166020820152604081019190915260600190565b6001600160a01b0397881681529590961660208601526040850193909352606084019190915260ff16608083015260a082015260c081019190915260e00190565b6001600160a01b03929092168252602082015260400190565b6001600160a01b0392831681529116602082015260400190565b6000604082016001600160a01b03808616845260206040818601528286518085526060870191508288019450855b81811015613dce578551851683529483019491830191600101613db0565b509098975050505050505050565b6001600160a01b0393841681526020810192909252909116604082015260600190565b6001600160a01b03948516815260208101939093529216604082015261ffff909116606082015260800190565b6001600160a01b03948516815260208101939093526040830191909152909116606082015260800190565b6001600160a01b0395861681526020810194909452604084019290925261ffff166060830152909116608082015260a00190565b901515815260200190565b90815260200190565b9586526001600160a01b0394851660208701529290931660408501526060840152608083019190915260a082015260c00190565b9485526020850193909352604084019190915260608301526001600160a01b0316608082015260a00190565b93845260ff9290921660208401526040830152606082015260800190565b600060208252611cda6020830184613be5565b60208082526024908201527f426c697a7a537472617465677956313a3a7265736375654465706c6f7965644660408201527f756e647300000000000000000000000000000000000000000000000000000000606082015260800190565b60208082526019908201527f426c697a7a537472617465677956313a3a7265696e7665737400000000000000604082015260600190565b60208082526027908201527f426c697a7a537472617465677956313a3a62656c6f77206d696e696d756d207760408201527f6974686472617700000000000000000000000000000000000000000000000000606082015260800190565b60208082526026908201527f4f776e61626c653a206e6577206f776e657220697320746865207a65726f206160408201527f6464726573730000000000000000000000000000000000000000000000000000606082015260800190565b60208082526014908201527f59616b53747261746567793a3a6f6e6c79454f41000000000000000000000000604082015260600190565b6020808252601b908201527f536166654d6174683a206164646974696f6e206f766572666c6f770000000000604082015260600190565b6020808252602e908201527f5065726d697373696f6e65643a3a6f6e6c79416c6c6f7765644465706f73697460408201527f732c206e6f7420616c6c6f776564000000000000000000000000000000000000606082015260800190565b60208082526034908201527f5065726d697373696f6e65643a3a72656d6f76654465706f7369746f722c206e60408201527f6f20616c6c6f776564206465706f7369746f7273000000000000000000000000606082015260800190565b60208082526024908201527f417263683a3a76616c69646174655369673a20696e76616c6964207369676e6160408201527f7475726500000000000000000000000000000000000000000000000000000000606082015260800190565b6020808252818101527f426c697a7a537472617465677956313a3a7472616e73666572206661696c6564604082015260600190565b6020808252601c908201527f5065726d697373696f6e65643a3a616c6c6f774465706f7369746f7200000000604082015260600190565b6020808252600f908201527f7065726d69743a3a657870697265640000000000000000000000000000000000604082015260600190565b6020808252602a908201527f5065726d697373696f6e65643a3a72656d6f76654465706f7369746f722c206e60408201527f6f7420616c6c6f77656400000000000000000000000000000000000000000000606082015260800190565b60208082526021908201527f536166654d6174683a206d756c7469706c69636174696f6e206f766572666c6f60408201527f7700000000000000000000000000000000000000000000000000000000000000606082015260800190565b6020808252818101527f4f776e61626c653a2063616c6c6572206973206e6f7420746865206f776e6572604082015260600190565b6020808252601c908201527f5f617070726f76653a3a6f776e6572207a65726f206164647265737300000000604082015260600190565b60208082526034908201527f5f7472616e73666572546f6b656e733a2063616e6e6f74207472616e7366657260408201527f20746f20746865207a65726f2061646472657373000000000000000000000000606082015260800190565b60208082526014908201527f59616b53747261746567793a3a6f6e6c79446576000000000000000000000000604082015260600190565b60208082526019908201527f426c697a7a537472617465677956313a3a5f6465706f73697400000000000000604082015260600190565b60208082526024908201527f426c697a7a537472617465677956313a3a5f7374616b654465706f736974546f60408201527f6b656e7300000000000000000000000000000000000000000000000000000000606082015260800190565b60208082526025908201527f426c697a7a537472617465677956313a3a5452414e534645525f46524f4d5f4660408201527f41494c4544000000000000000000000000000000000000000000000000000000606082015260800190565b6020808252601e908201527f5f617070726f76653a3a7370656e646572207a65726f20616464726573730000604082015260600190565b6020808252818101527f4465784c6962726172793a3a5452414e534645525f46524f4d5f4641494c4544604082015260600190565b918252602082015260400190565b60008582528460208301526001600160a01b0384166040830152608060608301526145f96080830184613be5565b9695505050505050565b60ff91909116815260200190565b6001600160a01b038116811461166457600080fd5b801515811461166457600080fdfe5f6275726e3a206275726e20616d6f756e74206578636565647320746f74616c20737570706c797472616e7366657246726f6d3a207472616e7366657220616d6f756e74206578636565647320616c6c6f77616e63655f6275726e3a206275726e20616d6f756e7420657863656564732066726f6d2062616c616e63655f7472616e73666572546f6b656e733a207472616e7366657220657863656564732066726f6d2062616c616e6365a26469706673582212203226d542ba74a299cc3c034bc5624706520b001848f61ab1141b846b914bd2c264736f6c634300070300338be0079c531659141344cd1fd0a4f28419497f9722a3daafe3b4186f6b6457e0",
  "devdoc": {
    "kind": "dev",
    "methods": {
      "allowDepositor(address)": {
        "params": {
          "depositor": "address"
        }
      },
      "allowance(address,address)": {
        "params": {
          "account": "The address of the account holding the funds",
          "spender": "The address of the account spending the funds"
        },
        "returns": {
          "_0": "The number of tokens approved"
        }
      },
      "approve(address,uint256)": {
        "details": "This will overwrite the approval amount for `spender` and is subject to issues noted [here](https://eips.ethereum.org/EIPS/eip-20#approve) It is recommended to use increaseAllowance and decreaseAllowance instead",
        "params": {
          "amount": "The number of tokens that are approved (2^256-1 means infinite)",
          "spender": "The address of the account which may transfer tokens"
        },
        "returns": {
          "_0": "Whether or not the approval succeeded"
        }
      },
      "balanceOf(address)": {
        "params": {
          "account": "The address of the account to get the balance of"
        },
        "returns": {
          "_0": "The number of tokens held"
        }
      },
      "checkReward()": {
        "returns": {
          "_0": "reward tokens"
        }
      },
      "deposit(uint256)": {
        "details": "Must mint receipt tokens to `msg.sender`",
        "params": {
          "amount": "deposit tokens"
        }
      },
      "depositFor(address,uint256)": {
        "details": "Must mint receipt tokens to `account`",
        "params": {
          "account": "address to receive receipt tokens",
          "amount": "deposit tokens"
        }
      },
      "depositWithPermit(uint256,uint256,uint8,bytes32,bytes32)": {
        "details": "Should revert for tokens without Permit",
        "params": {
          "amount": "Amount of tokens to deposit",
          "deadline": "The time at which to expire the signature",
          "r": "Half of the ECDSA signature pair",
          "s": "Half of the ECDSA signature pair",
          "v": "The recovery byte of the signature"
        }
      },
      "estimateDeployedBalance()": {
        "returns": {
          "_0": "deposit tokens"
        }
      },
      "estimateReinvestReward()": {
        "returns": {
          "_0": "reward tokens"
        }
      },
      "getDepositTokensForShares(uint256)": {
        "params": {
          "amount": "receipt tokens"
        },
        "returns": {
          "_0": "deposit tokens"
        }
      },
      "getDomainSeparator()": {
        "returns": {
          "_0": "Separator"
        }
      },
      "getSharesForDepositTokens(uint256)": {
        "details": "If contract is empty, use 1:1 ratioCould return zero shares for very low amounts of deposit tokens",
        "params": {
          "amount": "deposit tokens"
        },
        "returns": {
          "_0": "receipt tokens"
        }
      },
      "owner()": {
        "details": "Returns the address of the current owner."
      },
      "permit(address,address,uint256,uint256,uint8,bytes32,bytes32)": {
        "params": {
          "deadline": "The time at which to expire the signature",
          "owner": "The address to approve from",
          "r": "Half of the ECDSA signature pair",
          "s": "Half of the ECDSA signature pair",
          "spender": "The address to be approved",
          "v": "The recovery byte of the signature",
          "value": "The number of tokens that are approved (2^256-1 means infinite)"
        }
      },
      "recoverAVAX(uint256)": {
        "params": {
          "amount": "amount"
        }
      },
      "recoverERC20(address,uint256)": {
        "params": {
          "tokenAddress": "token address",
          "tokenAmount": "amount to recover"
        }
      },
      "removeDepositor(address)": {
        "params": {
          "depositor": "address"
        }
      },
      "renounceOwnership()": {
        "details": "Leaves the contract without owner. It will not be possible to call `onlyOwner` functions anymore. Can only be called by the current owner. NOTE: Renouncing ownership will leave the contract without an owner, thereby removing any functionality that is only available to the owner."
      },
      "rescueDeployedFunds(uint256,bool)": {
        "params": {
          "disableDeposits": "bool",
          "minReturnAmountAccepted": "min deposit tokens to receive"
        }
      },
      "revokeAllowance(address,address)": {
        "params": {
          "spender": "address",
          "token": "address"
        }
      },
      "setAllowances()": {
        "details": "Should use modifier `onlyOwner` to avoid griefing"
      },
      "totalDeposits()": {
        "returns": {
          "_0": "total deposits available on the contract"
        }
      },
      "transfer(address,uint256)": {
        "params": {
          "amount": "The number of tokens to transfer",
          "dst": "The address of the destination account"
        },
        "returns": {
          "_0": "Whether or not the transfer succeeded"
        }
      },
      "transferFrom(address,address,uint256)": {
        "params": {
          "amount": "The number of tokens to transfer",
          "dst": "The address of the destination account",
          "src": "The address of the source account"
        },
        "returns": {
          "_0": "Whether or not the transfer succeeded"
        }
      },
      "transferOwnership(address)": {
        "details": "Transfers ownership of the contract to a new account (`newOwner`). Can only be called by the current owner."
      },
      "updateAdminFee(uint256)": {
        "params": {
          "newValue": "fee in BIPS"
        }
      },
      "updateDepositsEnabled(bool)": {
        "params": {
          "newValue": "bool"
        }
      },
      "updateDevAddr(address)": {
        "params": {
          "newValue": "address"
        }
      },
      "updateDevFee(uint256)": {
        "params": {
          "newValue": "fee in BIPS"
        }
      },
      "updateMaxTokensToDepositWithoutReinvest(uint256)": {
        "params": {
          "newValue": "threshold"
        }
      },
      "updateMinTokensToReinvest(uint256)": {
        "params": {
          "newValue": "threshold"
        }
      },
      "updateReinvestReward(uint256)": {
        "params": {
          "newValue": "fee in BIPS"
        }
      },
      "withdraw(uint256)": {
        "params": {
          "amount": "receipt tokens"
        }
      }
    },
    "title": "Blizz strategy for ERC20",
    "version": 1
  },
  "userdoc": {
    "kind": "user",
    "methods": {
      "allowDepositor(address)": {
        "notice": "Add an allowed depositor"
      },
      "allowance(address,address)": {
        "notice": "Get the number of tokens `spender` is approved to spend on behalf of `account`"
      },
      "approve(address,uint256)": {
        "notice": "Approve `spender` to transfer up to `amount` from `src`"
      },
      "balanceOf(address)": {
        "notice": "Get the number of tokens held by the `account`"
      },
      "checkReward()": {
        "notice": "Reward tokens avialable to strategy, including balance"
      },
      "deposit(uint256)": {
        "notice": "Deposit and deploy deposits tokens to the strategy"
      },
      "depositFor(address,uint256)": {
        "notice": "Deposit on behalf of another account"
      },
      "depositWithPermit(uint256,uint256,uint8,bytes32,bytes32)": {
        "notice": "Deposit using Permit"
      },
      "estimateDeployedBalance()": {
        "notice": "Estimated deposit token balance deployed by strategy, excluding balance"
      },
      "estimateReinvestReward()": {
        "notice": "Estimate reinvest reward"
      },
      "getDepositTokensForShares(uint256)": {
        "notice": "Calculate deposit tokens for a given amount of receipt tokens"
      },
      "getDomainSeparator()": {
        "notice": "EIP-712 Domain separator"
      },
      "getSharesForDepositTokens(uint256)": {
        "notice": "Calculate receipt tokens for a given amount of deposit tokens"
      },
      "permit(address,address,uint256,uint256,uint8,bytes32,bytes32)": {
        "notice": "Triggers an approval from owner to spender"
      },
      "recoverAVAX(uint256)": {
        "notice": "Recover AVAX from contract"
      },
      "recoverERC20(address,uint256)": {
        "notice": "Recover ERC20 from contract"
      },
      "reinvest()": {
        "notice": "Reinvest reward tokens into deposit tokens"
      },
      "removeDepositor(address)": {
        "notice": "Remove an allowed depositor"
      },
      "rescueDeployedFunds(uint256,bool)": {
        "notice": "Rescue all available deployed deposit tokens back to Strategy"
      },
      "revokeAllowance(address,address)": {
        "notice": "Revoke token allowance"
      },
      "setAllowances()": {
        "notice": "Approve tokens for use in Strategy"
      },
      "totalDeposits()": {
        "notice": "This function returns a snapshot of last available quotes"
      },
      "transfer(address,uint256)": {
        "notice": "Transfer `amount` tokens from `msg.sender` to `dst`"
      },
      "transferFrom(address,address,uint256)": {
        "notice": "Transfer `amount` tokens from `src` to `dst`"
      },
      "updateAdminFee(uint256)": {
        "notice": "Update admin fee"
      },
      "updateDepositsEnabled(bool)": {
        "notice": "Enable/disable deposits"
      },
      "updateDevAddr(address)": {
        "notice": "Update devAddr"
      },
      "updateDevFee(uint256)": {
        "notice": "Update developer fee"
      },
      "updateMaxTokensToDepositWithoutReinvest(uint256)": {
        "notice": "Update reinvest max threshold before a deposit"
      },
      "updateMinTokensToReinvest(uint256)": {
        "notice": "Update reinvest min threshold"
      },
      "updateReinvestReward(uint256)": {
        "notice": "Update reinvest reward"
      },
      "withdraw(uint256)": {
        "notice": "Redeem receipt tokens for deposit tokens"
      }
    },
    "version": 1
  },
  "storageLayout": {
    "storage": [
      {
        "astId": 15251,
        "contract": "contracts/strategies/BlizzStrategyV1.sol:BlizzStrategyV1",
        "label": "name",
        "offset": 0,
        "slot": "0",
        "type": "t_string_storage"
      },
      {
        "astId": 15254,
        "contract": "contracts/strategies/BlizzStrategyV1.sol:BlizzStrategyV1",
        "label": "symbol",
        "offset": 0,
        "slot": "1",
        "type": "t_string_storage"
      },
      {
        "astId": 15259,
        "contract": "contracts/strategies/BlizzStrategyV1.sol:BlizzStrategyV1",
        "label": "totalSupply",
        "offset": 0,
        "slot": "2",
        "type": "t_uint256"
      },
      {
        "astId": 15265,
        "contract": "contracts/strategies/BlizzStrategyV1.sol:BlizzStrategyV1",
        "label": "allowances",
        "offset": 0,
        "slot": "3",
        "type": "t_mapping(t_address,t_mapping(t_address,t_uint256))"
      },
      {
        "astId": 15269,
        "contract": "contracts/strategies/BlizzStrategyV1.sol:BlizzStrategyV1",
        "label": "balances",
        "offset": 0,
        "slot": "4",
        "type": "t_mapping(t_address,t_uint256)"
      },
      {
        "astId": 15285,
        "contract": "contracts/strategies/BlizzStrategyV1.sol:BlizzStrategyV1",
        "label": "nonces",
        "offset": 0,
        "slot": "5",
        "type": "t_mapping(t_address,t_uint256)"
      },
      {
        "astId": 25197,
        "contract": "contracts/strategies/BlizzStrategyV1.sol:BlizzStrategyV1",
        "label": "_owner",
        "offset": 0,
        "slot": "6",
        "type": "t_address"
      },
      {
        "astId": 25310,
        "contract": "contracts/strategies/BlizzStrategyV1.sol:BlizzStrategyV1",
        "label": "numberOfAllowedDepositors",
        "offset": 0,
        "slot": "7",
        "type": "t_uint256"
      },
      {
        "astId": 25314,
        "contract": "contracts/strategies/BlizzStrategyV1.sol:BlizzStrategyV1",
        "label": "allowedDepositors",
        "offset": 0,
        "slot": "8",
        "type": "t_mapping(t_address,t_bool)"
      },
      {
        "astId": 16424,
        "contract": "contracts/strategies/BlizzStrategyV1.sol:BlizzStrategyV1",
        "label": "depositToken",
        "offset": 0,
        "slot": "9",
        "type": "t_contract(IERC20)19086"
      },
      {
        "astId": 16426,
        "contract": "contracts/strategies/BlizzStrategyV1.sol:BlizzStrategyV1",
        "label": "rewardToken",
        "offset": 0,
        "slot": "10",
        "type": "t_contract(IERC20)19086"
      },
      {
        "astId": 16428,
        "contract": "contracts/strategies/BlizzStrategyV1.sol:BlizzStrategyV1",
        "label": "devAddr",
        "offset": 0,
        "slot": "11",
        "type": "t_address"
      },
      {
        "astId": 16430,
        "contract": "contracts/strategies/BlizzStrategyV1.sol:BlizzStrategyV1",
        "label": "MIN_TOKENS_TO_REINVEST",
        "offset": 0,
        "slot": "12",
        "type": "t_uint256"
      },
      {
        "astId": 16432,
        "contract": "contracts/strategies/BlizzStrategyV1.sol:BlizzStrategyV1",
        "label": "MAX_TOKENS_TO_DEPOSIT_WITHOUT_REINVEST",
        "offset": 0,
        "slot": "13",
        "type": "t_uint256"
      },
      {
        "astId": 16434,
        "contract": "contracts/strategies/BlizzStrategyV1.sol:BlizzStrategyV1",
        "label": "DEPOSITS_ENABLED",
        "offset": 0,
        "slot": "14",
        "type": "t_bool"
      },
      {
        "astId": 16436,
        "contract": "contracts/strategies/BlizzStrategyV1.sol:BlizzStrategyV1",
        "label": "REINVEST_REWARD_BIPS",
        "offset": 0,
        "slot": "15",
        "type": "t_uint256"
      },
      {
        "astId": 16438,
        "contract": "contracts/strategies/BlizzStrategyV1.sol:BlizzStrategyV1",
        "label": "ADMIN_FEE_BIPS",
        "offset": 0,
        "slot": "16",
        "type": "t_uint256"
      },
      {
        "astId": 16440,
        "contract": "contracts/strategies/BlizzStrategyV1.sol:BlizzStrategyV1",
        "label": "DEV_FEE_BIPS",
        "offset": 0,
        "slot": "17",
        "type": "t_uint256"
      },
      {
        "astId": 43099,
        "contract": "contracts/strategies/BlizzStrategyV1.sol:BlizzStrategyV1",
        "label": "rewardDistribution",
        "offset": 0,
        "slot": "18",
        "type": "t_contract(IBlizzMultiFeeDistribution)18667"
      },
      {
        "astId": 43101,
        "contract": "contracts/strategies/BlizzStrategyV1.sol:BlizzStrategyV1",
        "label": "blizzChef",
        "offset": 0,
        "slot": "19",
        "type": "t_contract(IBlizzChef)18659"
      },
      {
        "astId": 43103,
        "contract": "contracts/strategies/BlizzStrategyV1.sol:BlizzStrategyV1",
        "label": "tokenDelegator",
        "offset": 0,
        "slot": "20",
        "type": "t_contract(ILendingPool)20948"
      },
      {
        "astId": 43110,
        "contract": "contracts/strategies/BlizzStrategyV1.sol:BlizzStrategyV1",
        "label": "leverageLevel",
        "offset": 0,
        "slot": "21",
        "type": "t_uint256"
      },
      {
        "astId": 43112,
        "contract": "contracts/strategies/BlizzStrategyV1.sol:BlizzStrategyV1",
        "label": "safetyFactor",
        "offset": 0,
        "slot": "22",
        "type": "t_uint256"
      },
      {
        "astId": 43114,
        "contract": "contracts/strategies/BlizzStrategyV1.sol:BlizzStrategyV1",
        "label": "leverageBips",
        "offset": 0,
        "slot": "23",
        "type": "t_uint256"
      },
      {
        "astId": 43116,
        "contract": "contracts/strategies/BlizzStrategyV1.sol:BlizzStrategyV1",
        "label": "minMinting",
        "offset": 0,
        "slot": "24",
        "type": "t_uint256"
      },
      {
        "astId": 43118,
        "contract": "contracts/strategies/BlizzStrategyV1.sol:BlizzStrategyV1",
        "label": "avToken",
        "offset": 0,
        "slot": "25",
        "type": "t_address"
      },
      {
        "astId": 43120,
        "contract": "contracts/strategies/BlizzStrategyV1.sol:BlizzStrategyV1",
        "label": "avDebtToken",
        "offset": 0,
        "slot": "26",
        "type": "t_address"
      },
      {
        "astId": 43122,
        "contract": "contracts/strategies/BlizzStrategyV1.sol:BlizzStrategyV1",
        "label": "poolRewardToken",
        "offset": 0,
        "slot": "27",
        "type": "t_address"
      },
      {
        "astId": 43124,
        "contract": "contracts/strategies/BlizzStrategyV1.sol:BlizzStrategyV1",
        "label": "swapPairPoolReward",
        "offset": 0,
        "slot": "28",
        "type": "t_contract(IPair)21316"
      },
      {
        "astId": 43126,
        "contract": "contracts/strategies/BlizzStrategyV1.sol:BlizzStrategyV1",
        "label": "swapPairRewardDeposit",
        "offset": 0,
        "slot": "29",
        "type": "t_contract(IPair)21316"
      }
    ],
    "types": {
      "t_address": {
        "encoding": "inplace",
        "label": "address",
        "numberOfBytes": "20"
      },
      "t_bool": {
        "encoding": "inplace",
        "label": "bool",
        "numberOfBytes": "1"
      },
      "t_contract(IBlizzChef)18659": {
        "encoding": "inplace",
        "label": "contract IBlizzChef",
        "numberOfBytes": "20"
      },
      "t_contract(IBlizzMultiFeeDistribution)18667": {
        "encoding": "inplace",
        "label": "contract IBlizzMultiFeeDistribution",
        "numberOfBytes": "20"
      },
      "t_contract(IERC20)19086": {
        "encoding": "inplace",
        "label": "contract IERC20",
        "numberOfBytes": "20"
      },
      "t_contract(ILendingPool)20948": {
        "encoding": "inplace",
        "label": "contract ILendingPool",
        "numberOfBytes": "20"
      },
      "t_contract(IPair)21316": {
        "encoding": "inplace",
        "label": "contract IPair",
        "numberOfBytes": "20"
      },
      "t_mapping(t_address,t_bool)": {
        "encoding": "mapping",
        "key": "t_address",
        "label": "mapping(address => bool)",
        "numberOfBytes": "32",
        "value": "t_bool"
      },
      "t_mapping(t_address,t_mapping(t_address,t_uint256))": {
        "encoding": "mapping",
        "key": "t_address",
        "label": "mapping(address => mapping(address => uint256))",
        "numberOfBytes": "32",
        "value": "t_mapping(t_address,t_uint256)"
      },
      "t_mapping(t_address,t_uint256)": {
        "encoding": "mapping",
        "key": "t_address",
        "label": "mapping(address => uint256)",
        "numberOfBytes": "32",
        "value": "t_uint256"
      },
      "t_string_storage": {
        "encoding": "bytes",
        "label": "string",
        "numberOfBytes": "32"
      },
      "t_uint256": {
        "encoding": "inplace",
        "label": "uint256",
        "numberOfBytes": "32"
      }
    }
  }
}