{
  "address": "0x3Ea4ef084474736893F4F23F9899930f7cD0488f",
  "abi": [
    {
      "inputs": [
        {
          "internalType": "string",
          "name": "_name",
          "type": "string"
        },
        {
          "internalType": "address",
          "name": "_rewardDistribution",
          "type": "address"
        },
        {
          "internalType": "address",
          "name": "_blizzChef",
          "type": "address"
        },
        {
          "internalType": "address",
          "name": "_tokenDelegator",
          "type": "address"
        },
        {
          "internalType": "address",
          "name": "_timelock",
          "type": "address"
        },
        {
          "components": [
            {
              "internalType": "address",
              "name": "depositToken",
              "type": "address"
            },
            {
              "internalType": "address",
              "name": "poolRewardToken",
              "type": "address"
            },
            {
              "internalType": "address",
              "name": "avToken",
              "type": "address"
            },
            {
              "internalType": "address",
              "name": "avDebtToken",
              "type": "address"
            }
          ],
          "internalType": "struct BlizzStrategyV1.Tokens",
          "name": "_tokens",
          "type": "tuple"
        },
        {
          "components": [
            {
              "internalType": "address",
              "name": "swapPairRewardDeposit",
              "type": "address"
            },
            {
              "internalType": "address",
              "name": "swapPairPoolReward",
              "type": "address"
            }
          ],
          "internalType": "struct BlizzStrategyV1.SwapPairs",
          "name": "_swapPairs",
          "type": "tuple"
        },
        {
          "components": [
            {
              "internalType": "uint256",
              "name": "leverageLevel",
              "type": "uint256"
            },
            {
              "internalType": "uint256",
              "name": "safetyFactor",
              "type": "uint256"
            },
            {
              "internalType": "uint256",
              "name": "leverageBips",
              "type": "uint256"
            },
            {
              "internalType": "uint256",
              "name": "minMinting",
              "type": "uint256"
            }
          ],
          "internalType": "struct BlizzStrategyV1.LeverageSettings",
          "name": "_leverageSettings",
          "type": "tuple"
        },
        {
          "components": [
            {
              "internalType": "uint256",
              "name": "minTokensToReinvest",
              "type": "uint256"
            },
            {
              "internalType": "uint256",
              "name": "adminFeeBips",
              "type": "uint256"
            },
            {
              "internalType": "uint256",
              "name": "devFeeBips",
              "type": "uint256"
            },
            {
              "internalType": "uint256",
              "name": "reinvestRewardBips",
              "type": "uint256"
            }
          ],
          "internalType": "struct BlizzStrategyV1.StrategySettings",
          "name": "_strategySettings",
          "type": "tuple"
        }
      ],
      "stateMutability": "nonpayable",
      "type": "constructor"
    },
    {
      "anonymous": false,
      "inputs": [
        {
          "indexed": true,
          "internalType": "address",
          "name": "account",
          "type": "address"
        }
      ],
      "name": "AllowDepositor",
      "type": "event"
    },
    {
      "anonymous": false,
      "inputs": [
        {
          "indexed": true,
          "internalType": "address",
          "name": "owner",
          "type": "address"
        },
        {
          "indexed": true,
          "internalType": "address",
          "name": "spender",
          "type": "address"
        },
        {
          "indexed": false,
          "internalType": "uint256",
          "name": "value",
          "type": "uint256"
        }
      ],
      "name": "Approval",
      "type": "event"
    },
    {
      "anonymous": false,
      "inputs": [
        {
          "indexed": true,
          "internalType": "address",
          "name": "account",
          "type": "address"
        },
        {
          "indexed": false,
          "internalType": "uint256",
          "name": "amount",
          "type": "uint256"
        }
      ],
      "name": "Deposit",
      "type": "event"
    },
    {
      "anonymous": false,
      "inputs": [
        {
          "indexed": false,
          "internalType": "bool",
          "name": "newValue",
          "type": "bool"
        }
      ],
      "name": "DepositsEnabled",
      "type": "event"
    },
    {
      "anonymous": false,
      "inputs": [
        {
          "indexed": true,
          "internalType": "address",
          "name": "previousOwner",
          "type": "address"
        },
        {
          "indexed": true,
          "internalType": "address",
          "name": "newOwner",
          "type": "address"
        }
      ],
      "name": "OwnershipTransferred",
      "type": "event"
    },
    {
      "anonymous": false,
      "inputs": [
        {
          "indexed": false,
          "internalType": "address",
          "name": "token",
          "type": "address"
        },
        {
          "indexed": false,
          "internalType": "uint256",
          "name": "amount",
          "type": "uint256"
        }
      ],
      "name": "Recovered",
      "type": "event"
    },
    {
      "anonymous": false,
      "inputs": [
        {
          "indexed": false,
          "internalType": "uint256",
          "name": "newTotalDeposits",
          "type": "uint256"
        },
        {
          "indexed": false,
          "internalType": "uint256",
          "name": "newTotalSupply",
          "type": "uint256"
        }
      ],
      "name": "Reinvest",
      "type": "event"
    },
    {
      "anonymous": false,
      "inputs": [
        {
          "indexed": true,
          "internalType": "address",
          "name": "account",
          "type": "address"
        }
      ],
      "name": "RemoveDepositor",
      "type": "event"
    },
    {
      "anonymous": false,
      "inputs": [
        {
          "indexed": true,
          "internalType": "address",
          "name": "from",
          "type": "address"
        },
        {
          "indexed": true,
          "internalType": "address",
          "name": "to",
          "type": "address"
        },
        {
          "indexed": false,
          "internalType": "uint256",
          "name": "value",
          "type": "uint256"
        }
      ],
      "name": "Transfer",
      "type": "event"
    },
    {
      "anonymous": false,
      "inputs": [
        {
          "indexed": false,
          "internalType": "uint256",
          "name": "oldValue",
          "type": "uint256"
        },
        {
          "indexed": false,
          "internalType": "uint256",
          "name": "newValue",
          "type": "uint256"
        }
      ],
      "name": "UpdateAdminFee",
      "type": "event"
    },
    {
      "anonymous": false,
      "inputs": [
        {
          "indexed": false,
          "internalType": "address",
          "name": "oldValue",
          "type": "address"
        },
        {
          "indexed": false,
          "internalType": "address",
          "name": "newValue",
          "type": "address"
        }
      ],
      "name": "UpdateDevAddr",
      "type": "event"
    },
    {
      "anonymous": false,
      "inputs": [
        {
          "indexed": false,
          "internalType": "uint256",
          "name": "oldValue",
          "type": "uint256"
        },
        {
          "indexed": false,
          "internalType": "uint256",
          "name": "newValue",
          "type": "uint256"
        }
      ],
      "name": "UpdateDevFee",
      "type": "event"
    },
    {
      "anonymous": false,
      "inputs": [
        {
          "indexed": false,
          "internalType": "uint256",
          "name": "oldValue",
          "type": "uint256"
        },
        {
          "indexed": false,
          "internalType": "uint256",
          "name": "newValue",
          "type": "uint256"
        }
      ],
      "name": "UpdateMaxTokensToDepositWithoutReinvest",
      "type": "event"
    },
    {
      "anonymous": false,
      "inputs": [
        {
          "indexed": false,
          "internalType": "uint256",
          "name": "oldValue",
          "type": "uint256"
        },
        {
          "indexed": false,
          "internalType": "uint256",
          "name": "newValue",
          "type": "uint256"
        }
      ],
      "name": "UpdateMinTokensToReinvest",
      "type": "event"
    },
    {
      "anonymous": false,
      "inputs": [
        {
          "indexed": false,
          "internalType": "uint256",
          "name": "oldValue",
          "type": "uint256"
        },
        {
          "indexed": false,
          "internalType": "uint256",
          "name": "newValue",
          "type": "uint256"
        }
      ],
      "name": "UpdateReinvestReward",
      "type": "event"
    },
    {
      "anonymous": false,
      "inputs": [
        {
          "indexed": true,
          "internalType": "address",
          "name": "account",
          "type": "address"
        },
        {
          "indexed": false,
          "internalType": "uint256",
          "name": "amount",
          "type": "uint256"
        }
      ],
      "name": "Withdraw",
      "type": "event"
    },
    {
      "inputs": [],
      "name": "ADMIN_FEE_BIPS",
      "outputs": [
        {
          "internalType": "uint256",
          "name": "",
          "type": "uint256"
        }
      ],
      "stateMutability": "view",
      "type": "function"
    },
    {
      "inputs": [],
      "name": "DEPOSITS_ENABLED",
      "outputs": [
        {
          "internalType": "bool",
          "name": "",
          "type": "bool"
        }
      ],
      "stateMutability": "view",
      "type": "function"
    },
    {
      "inputs": [],
      "name": "DEV_FEE_BIPS",
      "outputs": [
        {
          "internalType": "uint256",
          "name": "",
          "type": "uint256"
        }
      ],
      "stateMutability": "view",
      "type": "function"
    },
    {
      "inputs": [],
      "name": "DOMAIN_TYPEHASH",
      "outputs": [
        {
          "internalType": "bytes32",
          "name": "",
          "type": "bytes32"
        }
      ],
      "stateMutability": "view",
      "type": "function"
    },
    {
      "inputs": [],
      "name": "MAX_TOKENS_TO_DEPOSIT_WITHOUT_REINVEST",
      "outputs": [
        {
          "internalType": "uint256",
          "name": "",
          "type": "uint256"
        }
      ],
      "stateMutability": "view",
      "type": "function"
    },
    {
      "inputs": [],
      "name": "MIN_TOKENS_TO_REINVEST",
      "outputs": [
        {
          "internalType": "uint256",
          "name": "",
          "type": "uint256"
        }
      ],
      "stateMutability": "view",
      "type": "function"
    },
    {
      "inputs": [],
      "name": "PERMIT_TYPEHASH",
      "outputs": [
        {
          "internalType": "bytes32",
          "name": "",
          "type": "bytes32"
        }
      ],
      "stateMutability": "view",
      "type": "function"
    },
    {
      "inputs": [],
      "name": "REINVEST_REWARD_BIPS",
      "outputs": [
        {
          "internalType": "uint256",
          "name": "",
          "type": "uint256"
        }
      ],
      "stateMutability": "view",
      "type": "function"
    },
    {
      "inputs": [],
      "name": "VERSION_HASH",
      "outputs": [
        {
          "internalType": "bytes32",
          "name": "",
          "type": "bytes32"
        }
      ],
      "stateMutability": "view",
      "type": "function"
    },
    {
      "inputs": [
        {
          "internalType": "address",
          "name": "depositor",
          "type": "address"
        }
      ],
      "name": "allowDepositor",
      "outputs": [],
      "stateMutability": "nonpayable",
      "type": "function"
    },
    {
      "inputs": [
        {
          "internalType": "address",
          "name": "account",
          "type": "address"
        },
        {
          "internalType": "address",
          "name": "spender",
          "type": "address"
        }
      ],
      "name": "allowance",
      "outputs": [
        {
          "internalType": "uint256",
          "name": "",
          "type": "uint256"
        }
      ],
      "stateMutability": "view",
      "type": "function"
    },
    {
      "inputs": [
        {
          "internalType": "address",
          "name": "",
          "type": "address"
        }
      ],
      "name": "allowedDepositors",
      "outputs": [
        {
          "internalType": "bool",
          "name": "",
          "type": "bool"
        }
      ],
      "stateMutability": "view",
      "type": "function"
    },
    {
      "inputs": [
        {
          "internalType": "address",
          "name": "spender",
          "type": "address"
        },
        {
          "internalType": "uint256",
          "name": "amount",
          "type": "uint256"
        }
      ],
      "name": "approve",
      "outputs": [
        {
          "internalType": "bool",
          "name": "",
          "type": "bool"
        }
      ],
      "stateMutability": "nonpayable",
      "type": "function"
    },
    {
      "inputs": [
        {
          "internalType": "address",
          "name": "account",
          "type": "address"
        }
      ],
      "name": "balanceOf",
      "outputs": [
        {
          "internalType": "uint256",
          "name": "",
          "type": "uint256"
        }
      ],
      "stateMutability": "view",
      "type": "function"
    },
    {
      "inputs": [],
      "name": "checkReward",
      "outputs": [
        {
          "internalType": "uint256",
          "name": "",
          "type": "uint256"
        }
      ],
      "stateMutability": "view",
      "type": "function"
    },
    {
      "inputs": [],
      "name": "decimals",
      "outputs": [
        {
          "internalType": "uint8",
          "name": "",
          "type": "uint8"
        }
      ],
      "stateMutability": "view",
      "type": "function"
    },
    {
      "inputs": [
        {
          "internalType": "uint256",
          "name": "amount",
          "type": "uint256"
        }
      ],
      "name": "deposit",
      "outputs": [],
      "stateMutability": "nonpayable",
      "type": "function"
    },
    {
      "inputs": [
        {
          "internalType": "address",
          "name": "account",
          "type": "address"
        },
        {
          "internalType": "uint256",
          "name": "amount",
          "type": "uint256"
        }
      ],
      "name": "depositFor",
      "outputs": [],
      "stateMutability": "nonpayable",
      "type": "function"
    },
    {
      "inputs": [],
      "name": "depositToken",
      "outputs": [
        {
          "internalType": "contract IERC20",
          "name": "",
          "type": "address"
        }
      ],
      "stateMutability": "view",
      "type": "function"
    },
    {
      "inputs": [
        {
          "internalType": "uint256",
          "name": "amount",
          "type": "uint256"
        },
        {
          "internalType": "uint256",
          "name": "deadline",
          "type": "uint256"
        },
        {
          "internalType": "uint8",
          "name": "v",
          "type": "uint8"
        },
        {
          "internalType": "bytes32",
          "name": "r",
          "type": "bytes32"
        },
        {
          "internalType": "bytes32",
          "name": "s",
          "type": "bytes32"
        }
      ],
      "name": "depositWithPermit",
      "outputs": [],
      "stateMutability": "nonpayable",
      "type": "function"
    },
    {
      "inputs": [],
      "name": "devAddr",
      "outputs": [
        {
          "internalType": "address",
          "name": "",
          "type": "address"
        }
      ],
      "stateMutability": "view",
      "type": "function"
    },
    {
      "inputs": [],
      "name": "estimateDeployedBalance",
      "outputs": [
        {
          "internalType": "uint256",
          "name": "",
          "type": "uint256"
        }
      ],
      "stateMutability": "view",
      "type": "function"
    },
    {
      "inputs": [],
      "name": "estimateReinvestReward",
      "outputs": [
        {
          "internalType": "uint256",
          "name": "",
          "type": "uint256"
        }
      ],
      "stateMutability": "view",
      "type": "function"
    },
    {
      "inputs": [],
      "name": "getActualLeverage",
      "outputs": [
        {
          "internalType": "uint256",
          "name": "",
          "type": "uint256"
        }
      ],
      "stateMutability": "view",
      "type": "function"
    },
    {
      "inputs": [
        {
          "internalType": "uint256",
          "name": "amount",
          "type": "uint256"
        }
      ],
      "name": "getDepositTokensForShares",
      "outputs": [
        {
          "internalType": "uint256",
          "name": "",
          "type": "uint256"
        }
      ],
      "stateMutability": "view",
      "type": "function"
    },
    {
      "inputs": [],
      "name": "getDomainSeparator",
      "outputs": [
        {
          "internalType": "bytes32",
          "name": "",
          "type": "bytes32"
        }
      ],
      "stateMutability": "view",
      "type": "function"
    },
    {
      "inputs": [
        {
          "internalType": "uint256",
          "name": "amount",
          "type": "uint256"
        }
      ],
      "name": "getSharesForDepositTokens",
      "outputs": [
        {
          "internalType": "uint256",
          "name": "",
          "type": "uint256"
        }
      ],
      "stateMutability": "view",
      "type": "function"
    },
    {
      "inputs": [],
      "name": "name",
      "outputs": [
        {
          "internalType": "string",
          "name": "",
          "type": "string"
        }
      ],
      "stateMutability": "view",
      "type": "function"
    },
    {
      "inputs": [
        {
          "internalType": "address",
          "name": "",
          "type": "address"
        }
      ],
      "name": "nonces",
      "outputs": [
        {
          "internalType": "uint256",
          "name": "",
          "type": "uint256"
        }
      ],
      "stateMutability": "view",
      "type": "function"
    },
    {
      "inputs": [],
      "name": "numberOfAllowedDepositors",
      "outputs": [
        {
          "internalType": "uint256",
          "name": "",
          "type": "uint256"
        }
      ],
      "stateMutability": "view",
      "type": "function"
    },
    {
      "inputs": [],
      "name": "owner",
      "outputs": [
        {
          "internalType": "address",
          "name": "",
          "type": "address"
        }
      ],
      "stateMutability": "view",
      "type": "function"
    },
    {
      "inputs": [
        {
          "internalType": "address",
          "name": "owner",
          "type": "address"
        },
        {
          "internalType": "address",
          "name": "spender",
          "type": "address"
        },
        {
          "internalType": "uint256",
          "name": "value",
          "type": "uint256"
        },
        {
          "internalType": "uint256",
          "name": "deadline",
          "type": "uint256"
        },
        {
          "internalType": "uint8",
          "name": "v",
          "type": "uint8"
        },
        {
          "internalType": "bytes32",
          "name": "r",
          "type": "bytes32"
        },
        {
          "internalType": "bytes32",
          "name": "s",
          "type": "bytes32"
        }
      ],
      "name": "permit",
      "outputs": [],
      "stateMutability": "nonpayable",
      "type": "function"
    },
    {
      "inputs": [
        {
          "internalType": "uint256",
          "name": "amount",
          "type": "uint256"
        }
      ],
      "name": "recoverAVAX",
      "outputs": [],
      "stateMutability": "nonpayable",
      "type": "function"
    },
    {
      "inputs": [
        {
          "internalType": "address",
          "name": "tokenAddress",
          "type": "address"
        },
        {
          "internalType": "uint256",
          "name": "tokenAmount",
          "type": "uint256"
        }
      ],
      "name": "recoverERC20",
      "outputs": [],
      "stateMutability": "nonpayable",
      "type": "function"
    },
    {
      "inputs": [],
      "name": "reinvest",
      "outputs": [],
      "stateMutability": "nonpayable",
      "type": "function"
    },
    {
      "inputs": [
        {
          "internalType": "address",
          "name": "depositor",
          "type": "address"
        }
      ],
      "name": "removeDepositor",
      "outputs": [],
      "stateMutability": "nonpayable",
      "type": "function"
    },
    {
      "inputs": [],
      "name": "renounceOwnership",
      "outputs": [],
      "stateMutability": "nonpayable",
      "type": "function"
    },
    {
      "inputs": [
        {
          "internalType": "uint256",
          "name": "minReturnAmountAccepted",
          "type": "uint256"
        },
        {
          "internalType": "bool",
          "name": "disableDeposits",
          "type": "bool"
        }
      ],
      "name": "rescueDeployedFunds",
      "outputs": [],
      "stateMutability": "nonpayable",
      "type": "function"
    },
    {
      "inputs": [
        {
          "internalType": "address",
          "name": "token",
          "type": "address"
        },
        {
          "internalType": "address",
          "name": "spender",
          "type": "address"
        }
      ],
      "name": "revokeAllowance",
      "outputs": [],
      "stateMutability": "nonpayable",
      "type": "function"
    },
    {
      "inputs": [],
      "name": "rewardToken",
      "outputs": [
        {
          "internalType": "contract IERC20",
          "name": "",
          "type": "address"
        }
      ],
      "stateMutability": "view",
      "type": "function"
    },
    {
      "inputs": [],
      "name": "setAllowances",
      "outputs": [],
      "stateMutability": "nonpayable",
      "type": "function"
    },
    {
      "inputs": [],
      "name": "symbol",
      "outputs": [
        {
          "internalType": "string",
          "name": "",
          "type": "string"
        }
      ],
      "stateMutability": "view",
      "type": "function"
    },
    {
      "inputs": [],
      "name": "totalDeposits",
      "outputs": [
        {
          "internalType": "uint256",
          "name": "",
          "type": "uint256"
        }
      ],
      "stateMutability": "view",
      "type": "function"
    },
    {
      "inputs": [],
      "name": "totalSupply",
      "outputs": [
        {
          "internalType": "uint256",
          "name": "",
          "type": "uint256"
        }
      ],
      "stateMutability": "view",
      "type": "function"
    },
    {
      "inputs": [
        {
          "internalType": "address",
          "name": "dst",
          "type": "address"
        },
        {
          "internalType": "uint256",
          "name": "amount",
          "type": "uint256"
        }
      ],
      "name": "transfer",
      "outputs": [
        {
          "internalType": "bool",
          "name": "",
          "type": "bool"
        }
      ],
      "stateMutability": "nonpayable",
      "type": "function"
    },
    {
      "inputs": [
        {
          "internalType": "address",
          "name": "src",
          "type": "address"
        },
        {
          "internalType": "address",
          "name": "dst",
          "type": "address"
        },
        {
          "internalType": "uint256",
          "name": "amount",
          "type": "uint256"
        }
      ],
      "name": "transferFrom",
      "outputs": [
        {
          "internalType": "bool",
          "name": "",
          "type": "bool"
        }
      ],
      "stateMutability": "nonpayable",
      "type": "function"
    },
    {
      "inputs": [
        {
          "internalType": "address",
          "name": "newOwner",
          "type": "address"
        }
      ],
      "name": "transferOwnership",
      "outputs": [],
      "stateMutability": "nonpayable",
      "type": "function"
    },
    {
      "inputs": [
        {
          "internalType": "uint256",
          "name": "newValue",
          "type": "uint256"
        }
      ],
      "name": "updateAdminFee",
      "outputs": [],
      "stateMutability": "nonpayable",
      "type": "function"
    },
    {
      "inputs": [
        {
          "internalType": "bool",
          "name": "newValue",
          "type": "bool"
        }
      ],
      "name": "updateDepositsEnabled",
      "outputs": [],
      "stateMutability": "nonpayable",
      "type": "function"
    },
    {
      "inputs": [
        {
          "internalType": "address",
          "name": "newValue",
          "type": "address"
        }
      ],
      "name": "updateDevAddr",
      "outputs": [],
      "stateMutability": "nonpayable",
      "type": "function"
    },
    {
      "inputs": [
        {
          "internalType": "uint256",
          "name": "newValue",
          "type": "uint256"
        }
      ],
      "name": "updateDevFee",
      "outputs": [],
      "stateMutability": "nonpayable",
      "type": "function"
    },
    {
      "inputs": [
        {
          "internalType": "uint256",
          "name": "_leverageLevel",
          "type": "uint256"
        },
        {
          "internalType": "uint256",
          "name": "_safetyFactor",
          "type": "uint256"
        },
        {
          "internalType": "uint256",
          "name": "_minMinting",
          "type": "uint256"
        },
        {
          "internalType": "uint256",
          "name": "_leverageBips",
          "type": "uint256"
        }
      ],
      "name": "updateLeverage",
      "outputs": [],
      "stateMutability": "nonpayable",
      "type": "function"
    },
    {
      "inputs": [
        {
          "internalType": "uint256",
          "name": "newValue",
          "type": "uint256"
        }
      ],
      "name": "updateMaxTokensToDepositWithoutReinvest",
      "outputs": [],
      "stateMutability": "nonpayable",
      "type": "function"
    },
    {
      "inputs": [
        {
          "internalType": "uint256",
          "name": "newValue",
          "type": "uint256"
        }
      ],
      "name": "updateMinTokensToReinvest",
      "outputs": [],
      "stateMutability": "nonpayable",
      "type": "function"
    },
    {
      "inputs": [
        {
          "internalType": "uint256",
          "name": "newValue",
          "type": "uint256"
        }
      ],
      "name": "updateReinvestReward",
      "outputs": [],
      "stateMutability": "nonpayable",
      "type": "function"
    },
    {
      "inputs": [
        {
          "internalType": "uint256",
          "name": "amount",
          "type": "uint256"
        }
      ],
      "name": "withdraw",
      "outputs": [],
      "stateMutability": "nonpayable",
      "type": "function"
    }
  ],
  "transactionHash": "0x852789ed693374705bea3c67312a03fda784d6c1d3fdf90c421b590ff26d50b9",
  "args": [
    "Yield Yak: Blizz JOE",
    "0xA867c1acA4B5F1E0a66cf7b1FE33525D57608854",
    "0x2d867AE30400ffFaD9BeD8472c514c2d6b827F5f",
    "0x70BbE4A294878a14CB3CDD9315f5EB490e346163",
    "0x302404cb8f34713a8b8dbf9b4989a41252332068",
    {
      "depositToken": "0x6e84a6216ea6dacc71ee8e6b0a5b7322eebc0fdd",
      "poolRewardToken": "0x0f34919404a290e71fc6A510cB4a6aCb8D764b24",
      "avToken": "0x41acec47d9261db87e9dee023c1ae4b0345ee0d5",
      "avDebtToken": "0x8179d9446a37866590032edcf1ef2a537a42ec10"
    },
    {
      "swapPairRewardDeposit": "0x454e67025631c065d3cfad6d71e6892f74487a15",
      "swapPairPoolReward": "0xac3f978714c613e768272c502a8912bc03dcf624"
    },
    {
      "leverageLevel": "17436",
      "safetyFactor": "746",
      "leverageBips": "10000",
      "minMinting": "100000000000000"
    },
    {
      "minTokensToReinvest": "100000000000000",
      "adminFeeBips": 0,
      "devFeeBips": 700,
      "reinvestRewardBips": 100
    }
  ],
  "solcInputHash": "fad7427cf04f831f6a9149e4c98d14ce",
  "bytecode": "0x60c060405260096080819052685969656c642059616b60b81b60a09081526200002c9160009190620008d8565b506040805180820190915260038082526216549560ea1b60209092019182526200005991600191620008d8565b503480156200006757600080fd5b506040516200562d3803806200562d8339810160408190526200008a9162000aec565b6000620000966200026e565b600680546001600160a01b0319166001600160a01b038316908117909155604051919250906000906000805160206200560d833981519152908290a3508851620000e89060009060208c0190620008d8565b50601280546001600160a01b03808b166001600160a01b031992831617909255601380548a841690831617905560148054898416908316179055855160098054918416918316919091179055600a8054821673b31f66aa3c1e785363f0875a1b74e27b85fd66c7179055602080870151601b8054918516918416919091179055850151601c8054919093169116179055620001838262000272565b600b8054336001600160a01b03199182161790915560408501516019805483166001600160a01b039283161790556060860151601a805490931691161790558251620001cf9062000290565b8051620001dc9062000349565b6020810151620001ec90620003d1565b6040810151620001fc906200049f565b60608101516200020c9062000559565b62000218600162000613565b6200022385620006bb565b7fc7606d21ac05cd309191543e409f0845c016120563783d70e4f41419dc0ef2346000806040516200025792919062000c44565b60405180910390a150505050505050505062000dcc565b3390565b80516015556040810151601755602081015160165560600151601855565b6001600160a01b038116620002c25760405162461bcd60e51b8152600401620002b99062000d61565b60405180910390fd5b601d80546001600160a01b0319166001600160a01b038381169190911791829055600954600a54620002fc93831692918216911662000775565b80620003275750601d54600a5460095462000327926001600160a01b03908116928116911662000775565b620003465760405162461bcd60e51b8152600401620002b99062000d04565b50565b620003536200026e565b6001600160a01b0316620003666200089a565b6001600160a01b0316146200038f5760405162461bcd60e51b8152600401620002b99062000ccf565b7f481f79ac3a523b6d6db3c5a720e190e986d1cc1b41adcdf50f9caef849901100600c5482604051620003c492919062000c44565b60405180910390a1600c55565b620003db6200026e565b6001600160a01b0316620003ee6200089a565b6001600160a01b031614620004175760405162461bcd60e51b8152600401620002b99062000ccf565b61271062000451600f546200043d60115485620008a960201b62001c4b1790919060201c565b620008a960201b62001c4b1790919060201c565b11156200045d57600080fd5b7f3cc372f330f95ac9540626dc8a25f5bf21ba607215a5d58304cb804d446f104a601054826040516200049292919062000c44565b60405180910390a1601055565b620004a96200026e565b6001600160a01b0316620004bc6200089a565b6001600160a01b031614620004e55760405162461bcd60e51b8152600401620002b99062000ccf565b6127106200050b600f546200043d60105485620008a960201b62001c4b1790919060201c565b11156200051757600080fd5b7f2a42303d002f0ba6cfe8259c91d4684443fb0b3de286ba74991175d651726131601154826040516200054c92919062000c44565b60405180910390a1601155565b620005636200026e565b6001600160a01b0316620005766200089a565b6001600160a01b0316146200059f5760405162461bcd60e51b8152600401620002b99062000ccf565b612710620005c56011546200043d60105485620008a960201b62001c4b1790919060201c565b1115620005d157600080fd5b7fe7f97d51d307dc44045597c9978bec0f842e6bb40d19b9444084cfa30d9ed4f2600f54826040516200060692919062000c44565b60405180910390a1600f55565b6200061d6200026e565b6001600160a01b0316620006306200089a565b6001600160a01b031614620006595760405162461bcd60e51b8152600401620002b99062000ccf565b600e5460ff16151581151514156200067057600080fd5b600e805460ff19168215151790556040517f7b014ed3854e7f5cb0218d58b3c6ae7d53a68bb0af2f67bfb029ea42c38a7e8590620006b090839062000c39565b60405180910390a150565b620006c56200026e565b6001600160a01b0316620006d86200089a565b6001600160a01b031614620007015760405162461bcd60e51b8152600401620002b99062000ccf565b6001600160a01b0381166200072a5760405162461bcd60e51b8152600401620002b99062000c52565b6006546040516001600160a01b038084169216906000805160206200560d83398151915290600090a3600680546001600160a01b0319166001600160a01b0392909216919091179055565b6000826001600160a01b0316846001600160a01b0316630dfe16816040518163ffffffff1660e01b815260040160206040518083038186803b158015620007bb57600080fd5b505afa158015620007d0573d6000803e3d6000fd5b505050506040513d601f19601f82011682018060405250810190620007f6919062000acf565b6001600160a01b0316148015620008925750816001600160a01b0316846001600160a01b031663d21220a76040518163ffffffff1660e01b815260040160206040518083038186803b1580156200084c57600080fd5b505afa15801562000861573d6000803e3d6000fd5b505050506040513d601f19601f8201168201806040525081019062000887919062000acf565b6001600160a01b0316145b949350505050565b6006546001600160a01b031690565b600082820183811015620008d15760405162461bcd60e51b8152600401620002b99062000c98565b9392505050565b828054600181600116156101000203166002900490600052602060002090601f016020900481019282601f106200091b57805160ff19168380011785556200094b565b828001600101855582156200094b579182015b828111156200094b5782518255916020019190600101906200092e565b50620009599291506200095d565b5090565b5b808211156200095957600081556001016200095e565b80516001600160a01b03811681146200098c57600080fd5b919050565b600060808284031215620009a3578081fd5b604051608081016001600160401b0381118282101715620009c057fe5b8060405250809150825181526020830151602082015260408301516040820152606083015160608201525092915050565b60006040828403121562000a03578081fd5b604080519081016001600160401b038111828210171562000a2057fe5b60405290508062000a318362000974565b815262000a416020840162000974565b60208201525092915050565b60006080828403121562000a5f578081fd5b604051608081016001600160401b038111828210171562000a7c57fe5b60405290508062000a8d8362000974565b815262000a9d6020840162000974565b602082015262000ab06040840162000974565b604082015262000ac36060840162000974565b60608201525092915050565b60006020828403121562000ae1578081fd5b620008d18262000974565b60008060008060008060008060006102608a8c03121562000b0b578485fd5b89516001600160401b038082111562000b22578687fd5b818c0191508c601f83011262000b36578687fd5b81518181111562000b4357fe5b6020915062000b5b601f8201601f1916830162000da8565b8181528e8383860101111562000b6f578889fd5b885b8281101562000b8e57848101840151828201850152830162000b71565b8281111562000b9f57898484840101525b509b5062000bb190508c820162000974565b9950505062000bc360408b0162000974565b965062000bd360608b0162000974565b955062000be360808b0162000974565b945062000bf48b60a08c0162000a4d565b935062000c068b6101208c01620009f1565b925062000c188b6101608c0162000991565b915062000c2a8b6101e08c0162000991565b90509295985092959850929598565b901515815260200190565b918252602082015260400190565b60208082526026908201527f4f776e61626c653a206e6577206f776e657220697320746865207a65726f206160408201526564647265737360d01b606082015260800190565b6020808252601b908201527f536166654d6174683a206164646974696f6e206f766572666c6f770000000000604082015260600190565b6020808252818101527f4f776e61626c653a2063616c6c6572206973206e6f7420746865206f776e6572604082015260600190565b60208082526036908201527f53776170207061697220646f6573206e6f74206d61746368206465706f73697460408201527f546f6b656e20616e6420726577617264546f6b656e2e00000000000000000000606082015260800190565b60208082526027908201527f537761702070616972206973206e656365737361727920627574206e6f7420736040820152661d5c1c1b1a595960ca1b606082015260800190565b6040518181016001600160401b038111828210171562000dc457fe5b604052919050565b6148318062000ddc6000396000f3fe608060405234801561001057600080fd5b50600436106103785760003560e01c80638b73e606116101d3578063c89039c511610104578063dd8ce4d6116100a2578063ed24911d1161007c578063ed24911d1461069d578063f2fde38b146106a5578063f7c618c1146106b8578063fdb5a03e146106c057610378565b8063dd8ce4d614610664578063e21ac82514610677578063eab89a5a1461068a57610378565b8063da09c72c116100de578063da09c72c14610639578063db8dd95c14610641578063dbd9a4d414610649578063dd62ed3e1461065157610378565b8063c89039c51461060b578063cff1b6ef14610613578063d505accf1461062657610378565b8063a9059cbb11610171578063b6b55f251161014b578063b6b55f25146105e0578063b9e57b80146105f3578063bd079f55146105fb578063c4b24a461461060357610378565b8063a9059cbb146105b2578063ac0d31ff146105c5578063b52a321f146105d857610378565b806395d89b41116101ad57806395d89b411461057c57806399729ec1146105845780639e4e731814610597578063a8ae2b7c1461059f57610378565b80638b73e606146105415780638da5cb5b146105545780639291d5631461056957610378565b80634a970be7116102ad578063789139bc1161024b5780637ecebe00116102255780637ecebe001461050057806381837230146105135780638980f11f146105265780638aff733d1461053957610378565b8063789139bc146104dd5780637ae26773146104e55780637d882097146104f857610378565b80634ebb7916116102875780634ebb7916146104a75780635ea682ea146104ba57806370a08231146104c2578063715018a6146104d557610378565b80634a970be71461046e5780634bebd1e7146104815780634e77ace51461049457610378565b806323b872dd1161031a57806330adf81f116102f457806330adf81f14610436578063313ce5671461043e5780633bdc6e7214610453578063483c2ef01461045b57610378565b806323b872dd146103fd5780632e1a7d4d146104105780632f4f21e21461042357610378565b80630f23475d116103565780630f23475d146103d057806318160ddd146103d857806320606b70146103e057806322a05141146103e857610378565b806306fdde031461037d578063076771111461039b578063095ea7b3146103b0575b600080fd5b6103856106c8565b6040516103929190614002565b60405180910390f35b6103a3610756565b6040516103929190613f7b565b6103c36103be366004613a97565b61075c565b6040516103929190613f70565b6103a3610773565b6103a3610783565b6103a3610789565b6103fb6103f6366004613c53565b6107ad565b005b6103c361040b3660046139ea565b61083c565b6103fb61041e366004613bff565b610923565b6103fb610431366004613a97565b6109cd565b6103a36109d7565b6104466109fb565b604051610392919061471f565b6103a3610a00565b6103c3610469366004613996565b610a06565b6103fb61047c366004613c84565b610a1b565b6103fb61048f366004613996565b610ab3565b6103fb6104a2366004613ac2565b610b97565b6103fb6104b5366004613bff565b610c35565b6103a3610ce1565b6103a36104d0366004613996565b610ce7565b6103fb610d06565b6103a3610d9c565b6103fb6104f33660046139b2565b610da2565b6103a3610e6b565b6103a361050e366004613996565b610e8f565b6103fb610521366004613bff565b610ea1565b6103fb610534366004613a97565b610f20565b6103a3611032565b6103fb61054f366004613996565b611038565b61055c61113e565b6040516103929190613dbb565b6103fb610577366004613996565b61114d565b6103856111ed565b6103fb610592366004613bff565b611247565b6103a36112f5565b6103fb6105ad366004613bff565b611319565b6103c36105c0366004613a97565b6113c1565b6103fb6105d3366004613c2f565b6113ce565b6103c36116e4565b6103fb6105ee366004613bff565b6116ed565b6103a36116fa565b6103a3611741565b6103a3611747565b61055c61175a565b6103fb610621366004613bff565b611769565b6103fb610634366004613a2a565b611811565b61055c6118c6565b6103a36118d5565b6103fb611907565b6103a361065f3660046139b2565b61195e565b6103a3610672366004613bff565b611989565b6103fb610685366004613bff565b6119c3565b6103a3610698366004613bff565b611a42565b6103a3611a73565b6103fb6106b3366004613996565b611b0a565b61055c611bd8565b6103fb611be7565b6000805460408051602060026001851615610100026000190190941693909304601f8101849004840282018401909252818152929183018282801561074e5780601f106107235761010080835404028352916020019161074e565b820191906000526020600020905b81548152906001019060200180831161073157829003601f168201915b505050505081565b60105481565b6000610769338484611c77565b5060015b92915050565b600061077d610e6b565b90505b90565b60025481565b7f8b73c3c69bb8fe3d512ecc4cf759cc79239f7b179b0ffacaa9a75d522b39400f81565b600b546001600160a01b031633146107e05760405162461bcd60e51b81526004016107d79061450e565b60405180910390fd5b610809604051806080016040528086815260200185815260200183815260200184815250611d2b565b600080610814611d49565b50909250905061082c6108278383611ebc565b611efe565b610834611fbd565b505050505050565b6001600160a01b03831660008181526003602090815260408083203380855292528220549192909190821480159061087657506000198114155b1561090c5760006108a2856040518060600160405280602f8152602001614778602f91398491906120e0565b6001600160a01b03808916600081815260036020908152604080832094891680845294909152908190208490555192935090917f8c5be1e5ebec7d5bd14f71427d1e84f3dd0314c0f7b2291e5b200ac8c7c3b92590610902908590613f7b565b60405180910390a3505b61091786868661210c565b50600195945050505050565b600061092e82611a42565b905060185481116109515760405162461bcd60e51b81526004016107d7906140a9565b80156109c95761096133836121f0565b600061096c826122ca565b600954909150610986906001600160a01b0316338361230b565b336001600160a01b03167f884edad9ce6fa2440d8a54cc123490eb96d2768479d49ff9c7366125a9424364826040516109bf9190613f7b565b60405180910390a2505b5050565b6109c982826123a7565b7f6e71edae12b1b97f4d1f60370fef10105fa2faae0126114a169c64845d6126c981565b601281565b60075481565b60086020526000908152604090205460ff1681565b6009546040517fd505accf0000000000000000000000000000000000000000000000000000000081526001600160a01b039091169063d505accf90610a7090339030908a908a908a908a908a90600401613df3565b600060405180830381600087803b158015610a8a57600080fd5b505af1158015610a9e573d6000803e3d6000fd5b50505050610aac33866123a7565b5050505050565b610abb612559565b6001600160a01b0316610acc61113e565b6001600160a01b031614610af25760405162461bcd60e51b81526004016107d790614445565b6001600160a01b03811660009081526008602052604090205460ff1615610b2b5760405162461bcd60e51b81526004016107d79061431d565b6001600160a01b0381166000908152600860205260409020805460ff19166001908117909155600754610b5d91611c4b565b6007556040516001600160a01b038216907fc0a1035c16faf8d1304056d92c00edf028f87e62b8235a938f00af9e3c0312c590600090a250565b610b9f612559565b6001600160a01b0316610bb061113e565b6001600160a01b031614610bd65760405162461bcd60e51b81526004016107d790614445565b600e5460ff1615158115151415610bec57600080fd5b600e805460ff19168215151790556040517f7b014ed3854e7f5cb0218d58b3c6ae7d53a68bb0af2f67bfb029ea42c38a7e8590610c2a908390613f70565b60405180910390a150565b610c3d612559565b6001600160a01b0316610c4e61113e565b6001600160a01b031614610c745760405162461bcd60e51b81526004016107d790614445565b60008111610c8157600080fd5b604051339082156108fc029083906000818181858888f19350505050158015610cae573d6000803e3d6000fd5b507f8c1256b8896378cd5044f80c202f9772b9d77dc85c8a6eb51967210b09bfaa28600082604051610c2a929190613e34565b60115481565b6001600160a01b0381166000908152600460205260409020545b919050565b610d0e612559565b6001600160a01b0316610d1f61113e565b6001600160a01b031614610d455760405162461bcd60e51b81526004016107d790614445565b6006546040516000916001600160a01b0316907f8be0079c531659141344cd1fd0a4f28419497f9722a3daafe3b4186f6b6457e0908390a36006805473ffffffffffffffffffffffffffffffffffffffff19169055565b600d5481565b610daa612559565b6001600160a01b0316610dbb61113e565b6001600160a01b031614610de15760405162461bcd60e51b81526004016107d790614445565b60405163095ea7b360e01b81526001600160a01b0383169063095ea7b390610e10908490600090600401613e34565b602060405180830381600087803b158015610e2a57600080fd5b505af1158015610e3e573d6000803e3d6000fd5b505050506040513d601f19601f82011682018060405250810190610e629190613ade565b6109c957600080fd5b6000806000610e78611d49565b509092509050610e888282611ebc565b9250505090565b60056020526000908152604090205481565b610ea9612559565b6001600160a01b0316610eba61113e565b6001600160a01b031614610ee05760405162461bcd60e51b81526004016107d790614445565b7f481f79ac3a523b6d6db3c5a720e190e986d1cc1b41adcdf50f9caef849901100600c5482604051610f139291906146d9565b60405180910390a1600c55565b610f28612559565b6001600160a01b0316610f3961113e565b6001600160a01b031614610f5f5760405162461bcd60e51b81526004016107d790614445565b60008111610f6c57600080fd5b60405163a9059cbb60e01b81526001600160a01b0383169063a9059cbb90610f9a9033908590600401613e34565b602060405180830381600087803b158015610fb457600080fd5b505af1158015610fc8573d6000803e3d6000fd5b505050506040513d601f19601f82011682018060405250810190610fec9190613ade565b610ff557600080fd5b7f8c1256b8896378cd5044f80c202f9772b9d77dc85c8a6eb51967210b09bfaa288282604051611026929190613e34565b60405180910390a15050565b600f5481565b611040612559565b6001600160a01b031661105161113e565b6001600160a01b0316146110775760405162461bcd60e51b81526004016107d790614445565b6000600754116110995760405162461bcd60e51b81526004016107d79061422e565b6001600160a01b03811660009081526008602052604090205460ff1615156001146110d65760405162461bcd60e51b81526004016107d79061438b565b6001600160a01b0381166000908152600860205260409020805460ff19169055600754611104906001611ebc565b6007556040516001600160a01b038216907f0e86f6608b536e5339a25b65ff531f5ea91e1313d056ecd4752b35cbd16137d490600090a250565b6006546001600160a01b031690565b600b546001600160a01b031633146111775760405162461bcd60e51b81526004016107d79061450e565b600b546040517fa8e91499ed37682f43cffb045fcc7d379a91e8c9a14e6321877ee34dee564c00916111b6916001600160a01b03909116908490613e4d565b60405180910390a1600b805473ffffffffffffffffffffffffffffffffffffffff19166001600160a01b0392909216919091179055565b60018054604080516020600284861615610100026000190190941693909304601f8101849004840282018401909252818152929183018282801561074e5780601f106107235761010080835404028352916020019161074e565b61124f612559565b6001600160a01b031661126061113e565b6001600160a01b0316146112865760405162461bcd60e51b81526004016107d790614445565b6127106112aa600f546112a460105485611c4b90919063ffffffff16565b90611c4b565b11156112b557600080fd5b7f2a42303d002f0ba6cfe8259c91d4684443fb0b3de286ba74991175d651726131601154826040516112e89291906146d9565b60405180910390a1601155565b7fc89efdaa54c0f20c7adf612882df0950f5a951637e0307cdcb4c672f298b8bc681565b611321612559565b6001600160a01b031661133261113e565b6001600160a01b0316146113585760405162461bcd60e51b81526004016107d790614445565b6127106113766011546112a460105485611c4b90919063ffffffff16565b111561138157600080fd5b7fe7f97d51d307dc44045597c9978bec0f842e6bb40d19b9444084cfa30d9ed4f2600f54826040516113b49291906146d9565b60405180910390a1600f55565b600061076933848461210c565b6113d6612559565b6001600160a01b03166113e761113e565b6001600160a01b03161461140d5760405162461bcd60e51b81526004016107d790614445565b6009546040516370a0823160e01b81526000916001600160a01b0316906370a082319061143e903090600401613dbb565b60206040518083038186803b15801561145657600080fd5b505afa15801561146a573d6000803e3d6000fd5b505050506040513d601f19601f8201168201806040525081019061148e9190613c17565b905060008061149b611d49565b5090925090506114ae6108278383611ebc565b6114b960001961255d565b506009546040516370a0823160e01b81526000916001600160a01b0316906370a08231906114eb903090600401613dbb565b60206040518083038186803b15801561150357600080fd5b505afa158015611517573d6000803e3d6000fd5b505050506040513d601f19601f8201168201806040525081019061153b9190613c17565b9050856115488286611ebc565b10156115665760405162461bcd60e51b81526004016107d790614015565b60195460145460405163095ea7b360e01b81526001600160a01b039283169263095ea7b39261159d92911690600090600401613e34565b602060405180830381600087803b1580156115b757600080fd5b505af11580156115cb573d6000803e3d6000fd5b505050506040513d601f19601f820116820180604052508101906115ef9190613ade565b5060095460145460405163095ea7b360e01b81526001600160a01b039283169263095ea7b39261162792911690600090600401613e34565b602060405180830381600087803b15801561164157600080fd5b505af1158015611655573d6000803e3d6000fd5b505050506040513d601f19601f820116820180604052508101906116799190613ade565b507fc7606d21ac05cd309191543e409f0845c016120563783d70e4f41419dc0ef2346116a3610e6b565b6002546040516116b49291906146d9565b60405180910390a1600e5460ff16151560011480156116d557506001851515145b15610834576108346000610b97565b600e5460ff1681565b6116f733826123a7565b50565b600080611705611747565b9050600c5481106117395761173161271061172b600f548461260b90919063ffffffff16565b90612645565b915050610780565b600091505090565b600c5481565b600080611752612687565b935050505090565b6009546001600160a01b031681565b611771612559565b6001600160a01b031661178261113e565b6001600160a01b0316146117a85760405162461bcd60e51b81526004016107d790614445565b6127106117c6600f546112a460115485611c4b90919063ffffffff16565b11156117d157600080fd5b7f3cc372f330f95ac9540626dc8a25f5bf21ba607215a5d58304cb804d446f104a601054826040516118049291906146d9565b60405180910390a1601055565b428410156118315760405162461bcd60e51b81526004016107d790614354565b6001600160a01b0387166000908152600560209081526040808320805460018101909155905161188c927f6e71edae12b1b97f4d1f60370fef10105fa2faae0126114a169c64845d6126c9928c928c928c92918c9101613f84565b6040516020818303038152906040528051906020012090506118b18882868686612c2c565b6118bc888888611c77565b5050505050505050565b600b546001600160a01b031681565b60008060006118e2611d49565b509092509050610e886118f58383611ebc565b61172b84670de0b6b3a764000061260b565b61190f612559565b6001600160a01b031661192061113e565b6001600160a01b0316146119465760405162461bcd60e51b81526004016107d790614445565b60405162461bcd60e51b81526004016107d790614545565b6001600160a01b03918216600090815260036020908152604080832093909416825291909152205490565b600061199f611996610e6b565b6002549061260b565b6119aa575080610d01565b61076d6119b5610e6b565b60025461172b90859061260b565b6119cb612559565b6001600160a01b03166119dc61113e565b6001600160a01b031614611a025760405162461bcd60e51b81526004016107d790614445565b7fa5dae50539d56dfe1fb5273d883b0c39bc76750a25d036fc5fbd09ad8fd5f57f600d5482604051611a359291906146d9565b60405180910390a1600d55565b6000611a4f611996610e6b565b611a5b57506000610d01565b61076d60025461172b611a6c610e6b565b859061260b565b60007f8b73c3c69bb8fe3d512ecc4cf759cc79239f7b179b0ffacaa9a75d522b39400f60001b6000604051611aa89190613d15565b6040519081900390207fc89efdaa54c0f20c7adf612882df0950f5a951637e0307cdcb4c672f298b8bc6611ada612d02565b30604051602001611aef959493929190613fb8565b60405160208183030381529060405280519060200120905090565b611b12612559565b6001600160a01b0316611b2361113e565b6001600160a01b031614611b495760405162461bcd60e51b81526004016107d790614445565b6001600160a01b038116611b6f5760405162461bcd60e51b81526004016107d790614106565b6006546040516001600160a01b038084169216907f8be0079c531659141344cd1fd0a4f28419497f9722a3daafe3b4186f6b6457e090600090a36006805473ffffffffffffffffffffffffffffffffffffffff19166001600160a01b0392909216919091179055565b600a546001600160a01b031681565b323314611c065760405162461bcd60e51b81526004016107d790614163565b6000806000611c13612687565b925092509250600c54811015611c3b5760405162461bcd60e51b81526004016107d790614072565b611c46838383612d06565b505050565b600082820183811015611c705760405162461bcd60e51b81526004016107d79061419a565b9392505050565b6001600160a01b038316611c9d5760405162461bcd60e51b81526004016107d79061447a565b6001600160a01b038216611cc35760405162461bcd60e51b81526004016107d79061466d565b6001600160a01b0380841660008181526003602090815260408083209487168084529490915290819020849055517f8c5be1e5ebec7d5bd14f71427d1e84f3dd0314c0f7b2291e5b200ac8c7c3b92590611d1e908590613f7b565b60405180910390a3505050565b80516015556040810151601755602081015160165560600151601855565b6019546040516370a0823160e01b8152600091829182916001600160a01b0316906370a0823190611d7e903090600401613dbb565b60206040518083038186803b158015611d9657600080fd5b505afa158015611daa573d6000803e3d6000fd5b505050506040513d601f19601f82011682018060405250810190611dce9190613c17565b601a546040516370a0823160e01b81529194506001600160a01b0316906370a0823190611dff903090600401613dbb565b60206040518083038186803b158015611e1757600080fd5b505afa158015611e2b573d6000803e3d6000fd5b505050506040513d601f19601f82011682018060405250810190611e4f9190613c17565b91506000905081611e7d60155461172b611e76601754601554611ebc90919063ffffffff16565b879061260b565b1115611eb757611eb482611eae60155461172b611ea7601754601554611ebc90919063ffffffff16565b889061260b565b90611ebc565b90505b909192565b6000611c7083836040518060400160405280601f81526020017f536166654d6174683a207375627472616374696f6e20756e646572666c6f77008152506120e0565b6000806000611f0b611d49565b919450925090506000611f59611f2586611eae8787611ebc565b611eae60175461172b611f45601654601554611ebc90919063ffffffff16565b611f538b611eae8c8c611ebc565b9061260b565b90506000611f678483611ebc565b90505b8015610834578284811115611f7c5750835b611f858161255d565b50611f8f81612fc7565b611f97611d49565b91975095509350848310611fab5750610834565b611fb58584611ebc565b915050611f6a565b6000806000611fca611d49565b9250925092506000611ffc60175461172b611ff2601654601554611ebc90919063ffffffff16565b611f538888611ebc565b90505b808410156120da57806120128584611c4b565b1115612025576120228185611ebc565b91505b601854821015612034576120da565b6014546009546040517fa415bcad0000000000000000000000000000000000000000000000000000000081526001600160a01b039283169263a415bcad9261208b9291169086906002906000903090600401613f3c565b600060405180830381600087803b1580156120a557600080fd5b505af11580156120b9573d6000803e3d6000fd5b505050506120c682613076565b6120ce611d49565b91955093509150611fff565b50505050565b600081848411156121045760405162461bcd60e51b81526004016107d79190614002565b505050900390565b6001600160a01b0382166121325760405162461bcd60e51b81526004016107d7906144b1565b61216f816040518060600160405280602e81526020016147ce602e91396001600160a01b03861660009081526004602052604090205491906120e0565b6001600160a01b03808516600090815260046020526040808220939093559084168152205461219e9082611c4b565b6001600160a01b0380841660008181526004602052604090819020939093559151908516907fddf252ad1be2c89b69c2b068fc378daa952ba7f163c4a11628f55a4df523b3ef90611d1e908590613f7b565b61222d816040518060600160405280602781526020016147a7602791396001600160a01b03851660009081526004602052604090205491906120e0565b60046000846001600160a01b03166001600160a01b031681526020019081526020016000208190555061227d816040518060600160405280602781526020016147516027913960025491906120e0565b6002556040516000906001600160a01b038416907fddf252ad1be2c89b69c2b068fc378daa952ba7f163c4a11628f55a4df523b3ef906122be908590613f7b565b60405180910390a35050565b60006122d582611efe565b60006122df611d49565b505090508083116122f057826122f4565b6000195b925060006123018461255d565b9050611c70611fbd565b60405163a9059cbb60e01b81526001600160a01b0384169063a9059cbb906123399085908590600401613e34565b602060405180830381600087803b15801561235357600080fd5b505af1158015612367573d6000803e3d6000fd5b505050506040513d601f19601f8201168201806040525081019061238b9190613ade565b611c465760405162461bcd60e51b81526004016107d790614610565b600754156123e3573360009081526008602052604090205460ff1615156001146123e35760405162461bcd60e51b81526004016107d7906141d1565b600e5460ff16151560011461240a5760405162461bcd60e51b81526004016107d79061457c565b600d541561243e57600080600061241f612687565b925092509250600d5481111561243a5761243a838383612d06565b5050505b6009546040517f23b872dd0000000000000000000000000000000000000000000000000000000081526001600160a01b03909116906323b872dd9061248b90339030908690600401613dcf565b602060405180830381600087803b1580156124a557600080fd5b505af11580156124b9573d6000803e3d6000fd5b505050506040513d601f19601f820116820180604052508101906124dd9190613ade565b6124f95760405162461bcd60e51b81526004016107d7906142e8565b61250b8261250683611989565b613101565b61251481613183565b816001600160a01b03167fe1fffcc4923d04b559f4d29a8bfc6cda04eb5b0d3c460751c2402c5c5cc9109c8260405161254d9190613f7b565b60405180910390a25050565b3390565b6000612568826131b4565b6014546009546040517f69328dec0000000000000000000000000000000000000000000000000000000081526001600160a01b03928316926369328dec926125b99291169086903090600401613ec1565b602060405180830381600087803b1580156125d357600080fd5b505af11580156125e7573d6000803e3d6000fd5b505050506040513d601f19601f8201168201806040525081019061076d9190613c17565b60008261261a5750600061076d565b8282028284828161262757fe5b0414611c705760405162461bcd60e51b81526004016107d7906143e8565b6000611c7083836040518060400160405280601a81526020017f536166654d6174683a206469766973696f6e206279207a65726f0000000000008152506132c6565b6013546040517fbfccff450000000000000000000000000000000000000000000000000000000081526000918291829182916001600160a01b039091169063bfccff45906126d9903090600401613dbb565b60206040518083038186803b1580156126f157600080fd5b505afa158015612705573d6000803e3d6000fd5b505050506040513d601f19601f820116820180604052508101906127299190613c17565b604080516002808252606080830184529394509091602083019080368337505060195482519293506001600160a01b03169183915060009061276757fe5b6001600160a01b039283166020918202929092010152601a5482519116908290600190811061279257fe5b60200260200101906001600160a01b031690816001600160a01b0316815250506127ba613915565b60135482516001600160a01b0390911690639a7b5f119084906000906127dc57fe5b60200260200101516040518263ffffffff1660e01b81526004016128009190613dbb565b60a06040518083038186803b15801561281857600080fd5b505afa15801561282c573d6000803e3d6000fd5b505050506040513d601f19601f820116820180604052508101906128509190613afa565b905061285b816132fd565b905061286561394d565b60135483516001600160a01b0390911690630f208beb90859060009061288757fe5b6020026020010151306040518363ffffffff1660e01b81526004016128ad929190613e4d565b604080518083038186803b1580156128c457600080fd5b505afa1580156128d8573d6000803e3d6000fd5b505050506040513d601f19601f820116820180604052508101906128fc9190613b69565b9050600061292464e8d4a5100061172b8560600151856000015161260b90919063ffffffff16565b9050612947612940836020015183611ebc90919063ffffffff16565b8690611c4b565b60135485519196506001600160a01b031690639a7b5f11908690600190811061296c57fe5b60200260200101516040518263ffffffff1660e01b81526004016129909190613dbb565b60a06040518083038186803b1580156129a857600080fd5b505afa1580156129bc573d6000803e3d6000fd5b505050506040513d601f19601f820116820180604052508101906129e09190613afa565b92506129eb836132fd565b60135485519194506001600160a01b031690630f208beb9086906001908110612a1057fe5b6020026020010151306040518363ffffffff1660e01b8152600401612a36929190613e4d565b604080518083038186803b158015612a4d57600080fd5b505afa158015612a61573d6000803e3d6000fd5b505050506040513d601f19601f82011682018060405250810190612a859190613b69565b9150612aab64e8d4a5100061172b8560600151856000015161260b90919063ffffffff16565b9050612ac7612940836020015183611ebc90919063ffffffff16565b9450612ad4856002612645565b601b546040516370a0823160e01b8152919650612b5b916001600160a01b03909116906370a0823190612b0b903090600401613dbb565b60206040518083038186803b158015612b2357600080fd5b505afa158015612b37573d6000803e3d6000fd5b505050506040513d601f19601f820116820180604052508101906129409190613c17565b601b54600a54601c54929750600092612b869289926001600160a01b039182169290821691166134a0565b600a546040516370a0823160e01b81529192506000916001600160a01b03909116906370a0823190612bbc903090600401613dbb565b60206040518083038186803b158015612bd457600080fd5b505afa158015612be8573d6000803e3d6000fd5b505050506040513d601f19601f82011682018060405250810190612c0c9190613c17565b90506000612c1a8383611c4b565b979b919a509698509650505050505050565b6000612c36611a73565b85604051602001612c48929190613d85565b604051602081830303815290604052805190602001209050600060018286868660405160008152602001604052604051612c859493929190613fe4565b6020604051602081039080840390855afa158015612ca7573d6000803e3d6000fd5b5050604051601f1901519150506001600160a01b03811615801590612cdd5750866001600160a01b0316816001600160a01b0316145b612cf95760405162461bcd60e51b81526004016107d79061428b565b50505050505050565b4690565b6040805160028082526060808301845292602083019080368337505060195482519293506001600160a01b031691839150600090612d4057fe5b6001600160a01b039283166020918202929092010152601a54825191169082906001908110612d6b57fe5b6001600160a01b0392831660209182029290920101526013546040517f8e2eba09000000000000000000000000000000000000000000000000000000008152911690638e2eba0990612dc39030908590600401613e67565b600060405180830381600087803b158015612ddd57600080fd5b505af1158015612df1573d6000803e3d6000fd5b50506012546040517fe6c91a150000000000000000000000000000000000000000000000000000000081526001600160a01b03909116925063e6c91a159150612e3f90600190600401613f70565b600060405180830381600087803b158015612e5957600080fd5b505af1158015612e6d573d6000803e3d6000fd5b50505050612e7a8461357b565b506000612e9861271061172b6011548661260b90919063ffffffff16565b90508015612ebd57600a54600b54612ebd916001600160a01b0390811691168361230b565b6000612eda61271061172b6010548761260b90919063ffffffff16565b90508015612f0057600a54612f00906001600160a01b0316612efa61113e565b8361230b565b6000612f1d61271061172b600f548861260b90919063ffffffff16565b90508015612f3c57600a54612f3c906001600160a01b0316338361230b565b6000612f70612f5183611eae86818b8a611ebc565b600a54600954601d546001600160a01b0392831692918216911661359f565b9050612f7b81613183565b7fc7606d21ac05cd309191543e409f0845c016120563783d70e4f41419dc0ef234612fa4610e6b565b600254604051612fb59291906146d9565b60405180910390a15050505050505050565b612fd081613740565b6014546009546040517f573ade810000000000000000000000000000000000000000000000000000000081526001600160a01b039283169263573ade81926130249291169085906002903090600401613f11565b602060405180830381600087803b15801561303e57600080fd5b505af1158015613052573d6000803e3d6000fd5b505050506040513d601f19601f820116820180604052508101906109c99190613c17565b61307f81613740565b6014546009546040517fe8eda9df0000000000000000000000000000000000000000000000000000000081526001600160a01b039283169263e8eda9df926130d39291169085903090600090600401613ee4565b600060405180830381600087803b1580156130ed57600080fd5b505af1158015610aac573d6000803e3d6000fd5b60025461310e9082611c4b565b6002556001600160a01b0382166000908152600460205260409020546131349082611c4b565b6001600160a01b0383166000818152600460205260408082209390935591519091907fddf252ad1be2c89b69c2b068fc378daa952ba7f163c4a11628f55a4df523b3ef906122be908590613f7b565b600081116131a35760405162461bcd60e51b81526004016107d7906145b3565b6131ac81613076565b6116f7611fbd565b60195460145460405163095ea7b360e01b81526001600160a01b039283169263095ea7b3926131eb92911690600090600401613e34565b602060405180830381600087803b15801561320557600080fd5b505af1158015613219573d6000803e3d6000fd5b505050506040513d601f19601f8201168201806040525081019061323d9190613ade565b5060195460145460405163095ea7b360e01b81526001600160a01b039283169263095ea7b392613274929116908590600401613e34565b602060405180830381600087803b15801561328e57600080fd5b505af11580156132a2573d6000803e3d6000fd5b505050506040513d601f19601f820116820180604052508101906109c99190613ade565b600081836132e75760405162461bcd60e51b81526004016107d79190614002565b5060008385816132f357fe5b0495945050505050565b613305613915565b81604001514211613317575080610d01565b81518061332c57505042604082015280610d01565b6000613345846040015142611ebc90919063ffffffff16565b9050600061346f601360009054906101000a90046001600160a01b03166001600160a01b03166317caf6f16040518163ffffffff1660e01b815260040160206040518083038186803b15801561339a57600080fd5b505afa1580156133ae573d6000803e3d6000fd5b505050506040513d601f19601f820116820180604052508101906133d29190613c17565b602080880151601354604080517feacdaabc000000000000000000000000000000000000000000000000000000008152905161172b94611f53936001600160a01b03169263eacdaabc9260048083019392829003018186803b15801561343757600080fd5b505afa15801561344b573d6000803e3d6000fd5b505050506040513d601f19601f82011682018060405250810190611e769190613c17565b90506134926134878461172b8464e8d4a5100061260b565b606087015190611c4b565b606086015250929392505050565b6000806134ad8585613800565b509050600080846001600160a01b0316630902f1ac6040518163ffffffff1660e01b815260040160606040518083038186803b1580156134ec57600080fd5b505afa158015613500573d6000803e3d6000fd5b505050506040513d601f19601f820116820180604052508101906135249190613bb1565b5091509150866001600160a01b0316836001600160a01b03161461354457905b61356f88836dffffffffffffffffffffffffffff16836dffffffffffffffffffffffffffff16613831565b98975050505050505050565b601b54600a54601c5460009261076d9285926001600160a01b039283169291821691165b6000806135ac8585613800565b509050600080846001600160a01b0316630902f1ac6040518163ffffffff1660e01b815260040160606040518083038186803b1580156135eb57600080fd5b505afa1580156135ff573d6000803e3d6000fd5b505050506040513d601f19601f820116820180604052508101906136239190613bb1565b5091509150866001600160a01b0316836001600160a01b03161461364357905b6000806136718a856dffffffffffffffffffffffffffff16856dffffffffffffffffffffffffffff16613831565b9050886001600160a01b0316856001600160a01b03161461368e57905b61369989888c613879565b604080516000815260208101918290527f022c0d9f000000000000000000000000000000000000000000000000000000009091526001600160a01b0388169063022c0d9f906136f190859085903090602481016146e7565b600060405180830381600087803b15801561370b57600080fd5b505af115801561371f573d6000803e3d6000fd5b505050508181116137305781613732565b805b9a9950505050505050505050565b60095460145460405163095ea7b360e01b81526001600160a01b039283169263095ea7b39261377792911690600090600401613e34565b602060405180830381600087803b15801561379157600080fd5b505af11580156137a5573d6000803e3d6000fd5b505050506040513d601f19601f820116820180604052508101906137c99190613ade565b5060095460145460405163095ea7b360e01b81526001600160a01b039283169263095ea7b392613274929116908590600401613e34565b600080826001600160a01b0316846001600160a01b031610613823578284613826565b83835b915091509250929050565b600080613840856103e561260b565b9050600061384e828561260b565b90506000613862836112a4886103e861260b565b905061386e8282612645565b979650505050505050565b60405163a9059cbb60e01b81526001600160a01b0384169063a9059cbb906138a79085908590600401613e34565b602060405180830381600087803b1580156138c157600080fd5b505af11580156138d5573d6000803e3d6000fd5b505050506040513d601f19601f820116820180604052508101906138f99190613ade565b611c465760405162461bcd60e51b81526004016107d7906146a4565b6040518060a001604052806000815260200160008152602001600081526020016000815260200160006001600160a01b031681525090565b604051806040016040528060008152602001600081525090565b80516dffffffffffffffffffffffffffff81168114610d0157600080fd5b803560ff81168114610d0157600080fd5b6000602082840312156139a7578081fd5b8135611c708161472d565b600080604083850312156139c4578081fd5b82356139cf8161472d565b915060208301356139df8161472d565b809150509250929050565b6000806000606084860312156139fe578081fd5b8335613a098161472d565b92506020840135613a198161472d565b929592945050506040919091013590565b600080600080600080600060e0888a031215613a44578283fd5b8735613a4f8161472d565b96506020880135613a5f8161472d565b95506040880135945060608801359350613a7b60808901613985565b925060a0880135915060c0880135905092959891949750929550565b60008060408385031215613aa9578182fd5b8235613ab48161472d565b946020939093013593505050565b600060208284031215613ad3578081fd5b8135611c7081614742565b600060208284031215613aef578081fd5b8151611c7081614742565b600060a08284031215613b0b578081fd5b60405160a0810181811067ffffffffffffffff82111715613b2857fe5b8060405250825181526020830151602082015260408301516040820152606083015160608201526080830151613b5d8161472d565b60808201529392505050565b600060408284031215613b7a578081fd5b6040516040810181811067ffffffffffffffff82111715613b9757fe5b604052825181526020928301519281019290925250919050565b600080600060608486031215613bc5578283fd5b613bce84613967565b9250613bdc60208501613967565b9150604084015163ffffffff81168114613bf4578182fd5b809150509250925092565b600060208284031215613c10578081fd5b5035919050565b600060208284031215613c28578081fd5b5051919050565b60008060408385031215613c41578182fd5b8235915060208301356139df81614742565b60008060008060808587031215613c68578182fd5b5050823594602084013594506040840135936060013592509050565b600080600080600060a08688031215613c9b578283fd5b8535945060208601359350613cb260408701613985565b94979396509394606081013594506080013592915050565b60008151808452815b81811015613cef57602081850181015186830182015201613cd3565b81811115613d005782602083870101525b50601f01601f19169290920160200192915050565b6000808354600180821660008114613d345760018114613d4b57613d7a565b60ff198316865260028304607f1686019350613d7a565b600283048786526020808720875b83811015613d725781548a820152908501908201613d59565b505050860193505b509195945050505050565b7f190100000000000000000000000000000000000000000000000000000000000081526002810192909252602282015260420190565b6001600160a01b0391909116815260200190565b6001600160a01b039384168152919092166020820152604081019190915260600190565b6001600160a01b0397881681529590961660208601526040850193909352606084019190915260ff16608083015260a082015260c081019190915260e00190565b6001600160a01b03929092168252602082015260400190565b6001600160a01b0392831681529116602082015260400190565b6000604082016001600160a01b03808616845260206040818601528286518085526060870191508288019450855b81811015613eb3578551851683529483019491830191600101613e95565b509098975050505050505050565b6001600160a01b0393841681526020810192909252909116604082015260600190565b6001600160a01b03948516815260208101939093529216604082015261ffff909116606082015260800190565b6001600160a01b03948516815260208101939093526040830191909152909116606082015260800190565b6001600160a01b0395861681526020810194909452604084019290925261ffff166060830152909116608082015260a00190565b901515815260200190565b90815260200190565b9586526001600160a01b0394851660208701529290931660408501526060840152608083019190915260a082015260c00190565b9485526020850193909352604084019190915260608301526001600160a01b0316608082015260a00190565b93845260ff9290921660208401526040830152606082015260800190565b600060208252611c706020830184613cca565b60208082526024908201527f426c697a7a537472617465677956313a3a7265736375654465706c6f7965644660408201527f756e647300000000000000000000000000000000000000000000000000000000606082015260800190565b60208082526019908201527f426c697a7a537472617465677956313a3a7265696e7665737400000000000000604082015260600190565b60208082526027908201527f426c697a7a537472617465677956313a3a62656c6f77206d696e696d756d207760408201527f6974686472617700000000000000000000000000000000000000000000000000606082015260800190565b60208082526026908201527f4f776e61626c653a206e6577206f776e657220697320746865207a65726f206160408201527f6464726573730000000000000000000000000000000000000000000000000000606082015260800190565b60208082526014908201527f59616b53747261746567793a3a6f6e6c79454f41000000000000000000000000604082015260600190565b6020808252601b908201527f536166654d6174683a206164646974696f6e206f766572666c6f770000000000604082015260600190565b6020808252602e908201527f5065726d697373696f6e65643a3a6f6e6c79416c6c6f7765644465706f73697460408201527f732c206e6f7420616c6c6f776564000000000000000000000000000000000000606082015260800190565b60208082526034908201527f5065726d697373696f6e65643a3a72656d6f76654465706f7369746f722c206e60408201527f6f20616c6c6f776564206465706f7369746f7273000000000000000000000000606082015260800190565b60208082526024908201527f417263683a3a76616c69646174655369673a20696e76616c6964207369676e6160408201527f7475726500000000000000000000000000000000000000000000000000000000606082015260800190565b6020808252818101527f426c697a7a537472617465677956313a3a7472616e73666572206661696c6564604082015260600190565b6020808252601c908201527f5065726d697373696f6e65643a3a616c6c6f774465706f7369746f7200000000604082015260600190565b6020808252600f908201527f7065726d69743a3a657870697265640000000000000000000000000000000000604082015260600190565b6020808252602a908201527f5065726d697373696f6e65643a3a72656d6f76654465706f7369746f722c206e60408201527f6f7420616c6c6f77656400000000000000000000000000000000000000000000606082015260800190565b60208082526021908201527f536166654d6174683a206d756c7469706c69636174696f6e206f766572666c6f60408201527f7700000000000000000000000000000000000000000000000000000000000000606082015260800190565b6020808252818101527f4f776e61626c653a2063616c6c6572206973206e6f7420746865206f776e6572604082015260600190565b6020808252601c908201527f5f617070726f76653a3a6f776e6572207a65726f206164647265737300000000604082015260600190565b60208082526034908201527f5f7472616e73666572546f6b656e733a2063616e6e6f74207472616e7366657260408201527f20746f20746865207a65726f2061646472657373000000000000000000000000606082015260800190565b60208082526014908201527f59616b53747261746567793a3a6f6e6c79446576000000000000000000000000604082015260600190565b6020808252600a908201527f4465707265636174656400000000000000000000000000000000000000000000604082015260600190565b60208082526019908201527f426c697a7a537472617465677956313a3a5f6465706f73697400000000000000604082015260600190565b60208082526024908201527f426c697a7a537472617465677956313a3a5f7374616b654465706f736974546f60408201527f6b656e7300000000000000000000000000000000000000000000000000000000606082015260800190565b60208082526025908201527f426c697a7a537472617465677956313a3a5452414e534645525f46524f4d5f4660408201527f41494c4544000000000000000000000000000000000000000000000000000000606082015260800190565b6020808252601e908201527f5f617070726f76653a3a7370656e646572207a65726f20616464726573730000604082015260600190565b6020808252818101527f4465784c6962726172793a3a5452414e534645525f46524f4d5f4641494c4544604082015260600190565b918252602082015260400190565b60008582528460208301526001600160a01b0384166040830152608060608301526147156080830184613cca565b9695505050505050565b60ff91909116815260200190565b6001600160a01b03811681146116f757600080fd5b80151581146116f757600080fdfe5f6275726e3a206275726e20616d6f756e74206578636565647320746f74616c20737570706c797472616e7366657246726f6d3a207472616e7366657220616d6f756e74206578636565647320616c6c6f77616e63655f6275726e3a206275726e20616d6f756e7420657863656564732066726f6d2062616c616e63655f7472616e73666572546f6b656e733a207472616e7366657220657863656564732066726f6d2062616c616e6365a2646970667358221220b84f369aad3bd86ca60fb2f4d28bd76df33356be39e0c0db30117a23bef4c8f664736f6c634300070300338be0079c531659141344cd1fd0a4f28419497f9722a3daafe3b4186f6b6457e0",
  "devdoc": {
    "kind": "dev",
    "methods": {
      "allowDepositor(address)": {
        "params": {
          "depositor": "address"
        }
      },
      "allowance(address,address)": {
        "params": {
          "account": "The address of the account holding the funds",
          "spender": "The address of the account spending the funds"
        },
        "returns": {
          "_0": "The number of tokens approved"
        }
      },
      "approve(address,uint256)": {
        "details": "This will overwrite the approval amount for `spender` and is subject to issues noted [here](https://eips.ethereum.org/EIPS/eip-20#approve) It is recommended to use increaseAllowance and decreaseAllowance instead",
        "params": {
          "amount": "The number of tokens that are approved (2^256-1 means infinite)",
          "spender": "The address of the account which may transfer tokens"
        },
        "returns": {
          "_0": "Whether or not the approval succeeded"
        }
      },
      "balanceOf(address)": {
        "params": {
          "account": "The address of the account to get the balance of"
        },
        "returns": {
          "_0": "The number of tokens held"
        }
      },
      "checkReward()": {
        "returns": {
          "_0": "reward tokens"
        }
      },
      "deposit(uint256)": {
        "details": "Must mint receipt tokens to `msg.sender`",
        "params": {
          "amount": "deposit tokens"
        }
      },
      "depositFor(address,uint256)": {
        "details": "Must mint receipt tokens to `account`",
        "params": {
          "account": "address to receive receipt tokens",
          "amount": "deposit tokens"
        }
      },
      "depositWithPermit(uint256,uint256,uint8,bytes32,bytes32)": {
        "details": "Should revert for tokens without Permit",
        "params": {
          "amount": "Amount of tokens to deposit",
          "deadline": "The time at which to expire the signature",
          "r": "Half of the ECDSA signature pair",
          "s": "Half of the ECDSA signature pair",
          "v": "The recovery byte of the signature"
        }
      },
      "estimateDeployedBalance()": {
        "returns": {
          "_0": "deposit tokens"
        }
      },
      "estimateReinvestReward()": {
        "returns": {
          "_0": "reward tokens"
        }
      },
      "getDepositTokensForShares(uint256)": {
        "params": {
          "amount": "receipt tokens"
        },
        "returns": {
          "_0": "deposit tokens"
        }
      },
      "getDomainSeparator()": {
        "returns": {
          "_0": "Separator"
        }
      },
      "getSharesForDepositTokens(uint256)": {
        "details": "If contract is empty, use 1:1 ratioCould return zero shares for very low amounts of deposit tokens",
        "params": {
          "amount": "deposit tokens"
        },
        "returns": {
          "_0": "receipt tokens"
        }
      },
      "owner()": {
        "details": "Returns the address of the current owner."
      },
      "permit(address,address,uint256,uint256,uint8,bytes32,bytes32)": {
        "params": {
          "deadline": "The time at which to expire the signature",
          "owner": "The address to approve from",
          "r": "Half of the ECDSA signature pair",
          "s": "Half of the ECDSA signature pair",
          "spender": "The address to be approved",
          "v": "The recovery byte of the signature",
          "value": "The number of tokens that are approved (2^256-1 means infinite)"
        }
      },
      "recoverAVAX(uint256)": {
        "params": {
          "amount": "amount"
        }
      },
      "recoverERC20(address,uint256)": {
        "params": {
          "tokenAddress": "token address",
          "tokenAmount": "amount to recover"
        }
      },
      "removeDepositor(address)": {
        "params": {
          "depositor": "address"
        }
      },
      "renounceOwnership()": {
        "details": "Leaves the contract without owner. It will not be possible to call `onlyOwner` functions anymore. Can only be called by the current owner. NOTE: Renouncing ownership will leave the contract without an owner, thereby removing any functionality that is only available to the owner."
      },
      "rescueDeployedFunds(uint256,bool)": {
        "params": {
          "disableDeposits": "bool",
          "minReturnAmountAccepted": "min deposit tokens to receive"
        }
      },
      "revokeAllowance(address,address)": {
        "params": {
          "spender": "address",
          "token": "address"
        }
      },
      "setAllowances()": {
        "details": "Should use modifier `onlyOwner` to avoid griefing"
      },
      "totalDeposits()": {
        "returns": {
          "_0": "total deposits available on the contract"
        }
      },
      "transfer(address,uint256)": {
        "params": {
          "amount": "The number of tokens to transfer",
          "dst": "The address of the destination account"
        },
        "returns": {
          "_0": "Whether or not the transfer succeeded"
        }
      },
      "transferFrom(address,address,uint256)": {
        "params": {
          "amount": "The number of tokens to transfer",
          "dst": "The address of the destination account",
          "src": "The address of the source account"
        },
        "returns": {
          "_0": "Whether or not the transfer succeeded"
        }
      },
      "transferOwnership(address)": {
        "details": "Transfers ownership of the contract to a new account (`newOwner`). Can only be called by the current owner."
      },
      "updateAdminFee(uint256)": {
        "params": {
          "newValue": "fee in BIPS"
        }
      },
      "updateDepositsEnabled(bool)": {
        "params": {
          "newValue": "bool"
        }
      },
      "updateDevAddr(address)": {
        "params": {
          "newValue": "address"
        }
      },
      "updateDevFee(uint256)": {
        "params": {
          "newValue": "fee in BIPS"
        }
      },
      "updateMaxTokensToDepositWithoutReinvest(uint256)": {
        "params": {
          "newValue": "threshold"
        }
      },
      "updateMinTokensToReinvest(uint256)": {
        "params": {
          "newValue": "threshold"
        }
      },
      "updateReinvestReward(uint256)": {
        "params": {
          "newValue": "fee in BIPS"
        }
      },
      "withdraw(uint256)": {
        "params": {
          "amount": "receipt tokens"
        }
      }
    },
    "title": "Blizz strategy for ERC20",
    "version": 1
  },
  "userdoc": {
    "kind": "user",
    "methods": {
      "allowDepositor(address)": {
        "notice": "Add an allowed depositor"
      },
      "allowance(address,address)": {
        "notice": "Get the number of tokens `spender` is approved to spend on behalf of `account`"
      },
      "approve(address,uint256)": {
        "notice": "Approve `spender` to transfer up to `amount` from `src`"
      },
      "balanceOf(address)": {
        "notice": "Get the number of tokens held by the `account`"
      },
      "checkReward()": {
        "notice": "Reward tokens avialable to strategy, including balance"
      },
      "deposit(uint256)": {
        "notice": "Deposit and deploy deposits tokens to the strategy"
      },
      "depositFor(address,uint256)": {
        "notice": "Deposit on behalf of another account"
      },
      "depositWithPermit(uint256,uint256,uint8,bytes32,bytes32)": {
        "notice": "Deposit using Permit"
      },
      "estimateDeployedBalance()": {
        "notice": "Estimated deposit token balance deployed by strategy, excluding balance"
      },
      "estimateReinvestReward()": {
        "notice": "Estimate reinvest reward"
      },
      "getDepositTokensForShares(uint256)": {
        "notice": "Calculate deposit tokens for a given amount of receipt tokens"
      },
      "getDomainSeparator()": {
        "notice": "EIP-712 Domain separator"
      },
      "getSharesForDepositTokens(uint256)": {
        "notice": "Calculate receipt tokens for a given amount of deposit tokens"
      },
      "permit(address,address,uint256,uint256,uint8,bytes32,bytes32)": {
        "notice": "Triggers an approval from owner to spender"
      },
      "recoverAVAX(uint256)": {
        "notice": "Recover AVAX from contract"
      },
      "recoverERC20(address,uint256)": {
        "notice": "Recover ERC20 from contract"
      },
      "reinvest()": {
        "notice": "Reinvest reward tokens into deposit tokens"
      },
      "removeDepositor(address)": {
        "notice": "Remove an allowed depositor"
      },
      "rescueDeployedFunds(uint256,bool)": {
        "notice": "Rescue all available deployed deposit tokens back to Strategy"
      },
      "revokeAllowance(address,address)": {
        "notice": "Revoke token allowance"
      },
      "setAllowances()": {
        "notice": "Approve tokens for use in Strategy"
      },
      "totalDeposits()": {
        "notice": "This function returns a snapshot of last available quotes"
      },
      "transfer(address,uint256)": {
        "notice": "Transfer `amount` tokens from `msg.sender` to `dst`"
      },
      "transferFrom(address,address,uint256)": {
        "notice": "Transfer `amount` tokens from `src` to `dst`"
      },
      "updateAdminFee(uint256)": {
        "notice": "Update admin fee"
      },
      "updateDepositsEnabled(bool)": {
        "notice": "Enable/disable deposits"
      },
      "updateDevAddr(address)": {
        "notice": "Update devAddr"
      },
      "updateDevFee(uint256)": {
        "notice": "Update developer fee"
      },
      "updateMaxTokensToDepositWithoutReinvest(uint256)": {
        "notice": "Update reinvest max threshold before a deposit"
      },
      "updateMinTokensToReinvest(uint256)": {
        "notice": "Update reinvest min threshold"
      },
      "updateReinvestReward(uint256)": {
        "notice": "Update reinvest reward"
      },
      "withdraw(uint256)": {
        "notice": "Redeem receipt tokens for deposit tokens"
      }
    },
    "version": 1
  },
  "storageLayout": {
    "storage": [
      {
        "astId": 6072,
        "contract": "contracts/strategies/BlizzStrategyV1.sol:BlizzStrategyV1",
        "label": "name",
        "offset": 0,
        "slot": "0",
        "type": "t_string_storage"
      },
      {
        "astId": 6075,
        "contract": "contracts/strategies/BlizzStrategyV1.sol:BlizzStrategyV1",
        "label": "symbol",
        "offset": 0,
        "slot": "1",
        "type": "t_string_storage"
      },
      {
        "astId": 6080,
        "contract": "contracts/strategies/BlizzStrategyV1.sol:BlizzStrategyV1",
        "label": "totalSupply",
        "offset": 0,
        "slot": "2",
        "type": "t_uint256"
      },
      {
        "astId": 6086,
        "contract": "contracts/strategies/BlizzStrategyV1.sol:BlizzStrategyV1",
        "label": "allowances",
        "offset": 0,
        "slot": "3",
        "type": "t_mapping(t_address,t_mapping(t_address,t_uint256))"
      },
      {
        "astId": 6090,
        "contract": "contracts/strategies/BlizzStrategyV1.sol:BlizzStrategyV1",
        "label": "balances",
        "offset": 0,
        "slot": "4",
        "type": "t_mapping(t_address,t_uint256)"
      },
      {
        "astId": 6106,
        "contract": "contracts/strategies/BlizzStrategyV1.sol:BlizzStrategyV1",
        "label": "nonces",
        "offset": 0,
        "slot": "5",
        "type": "t_mapping(t_address,t_uint256)"
      },
      {
        "astId": 19822,
        "contract": "contracts/strategies/BlizzStrategyV1.sol:BlizzStrategyV1",
        "label": "_owner",
        "offset": 0,
        "slot": "6",
        "type": "t_address"
      },
      {
        "astId": 19935,
        "contract": "contracts/strategies/BlizzStrategyV1.sol:BlizzStrategyV1",
        "label": "numberOfAllowedDepositors",
        "offset": 0,
        "slot": "7",
        "type": "t_uint256"
      },
      {
        "astId": 19939,
        "contract": "contracts/strategies/BlizzStrategyV1.sol:BlizzStrategyV1",
        "label": "allowedDepositors",
        "offset": 0,
        "slot": "8",
        "type": "t_mapping(t_address,t_bool)"
      },
      {
        "astId": 7456,
        "contract": "contracts/strategies/BlizzStrategyV1.sol:BlizzStrategyV1",
        "label": "depositToken",
        "offset": 0,
        "slot": "9",
        "type": "t_contract(IERC20)11402"
      },
      {
        "astId": 7458,
        "contract": "contracts/strategies/BlizzStrategyV1.sol:BlizzStrategyV1",
        "label": "rewardToken",
        "offset": 0,
        "slot": "10",
        "type": "t_contract(IERC20)11402"
      },
      {
        "astId": 7460,
        "contract": "contracts/strategies/BlizzStrategyV1.sol:BlizzStrategyV1",
        "label": "devAddr",
        "offset": 0,
        "slot": "11",
        "type": "t_address"
      },
      {
        "astId": 7462,
        "contract": "contracts/strategies/BlizzStrategyV1.sol:BlizzStrategyV1",
        "label": "MIN_TOKENS_TO_REINVEST",
        "offset": 0,
        "slot": "12",
        "type": "t_uint256"
      },
      {
        "astId": 7464,
        "contract": "contracts/strategies/BlizzStrategyV1.sol:BlizzStrategyV1",
        "label": "MAX_TOKENS_TO_DEPOSIT_WITHOUT_REINVEST",
        "offset": 0,
        "slot": "13",
        "type": "t_uint256"
      },
      {
        "astId": 7466,
        "contract": "contracts/strategies/BlizzStrategyV1.sol:BlizzStrategyV1",
        "label": "DEPOSITS_ENABLED",
        "offset": 0,
        "slot": "14",
        "type": "t_bool"
      },
      {
        "astId": 7468,
        "contract": "contracts/strategies/BlizzStrategyV1.sol:BlizzStrategyV1",
        "label": "REINVEST_REWARD_BIPS",
        "offset": 0,
        "slot": "15",
        "type": "t_uint256"
      },
      {
        "astId": 7470,
        "contract": "contracts/strategies/BlizzStrategyV1.sol:BlizzStrategyV1",
        "label": "ADMIN_FEE_BIPS",
        "offset": 0,
        "slot": "16",
        "type": "t_uint256"
      },
      {
        "astId": 7472,
        "contract": "contracts/strategies/BlizzStrategyV1.sol:BlizzStrategyV1",
        "label": "DEV_FEE_BIPS",
        "offset": 0,
        "slot": "17",
        "type": "t_uint256"
      },
      {
        "astId": 35381,
        "contract": "contracts/strategies/BlizzStrategyV1.sol:BlizzStrategyV1",
        "label": "rewardDistribution",
        "offset": 0,
        "slot": "18",
        "type": "t_contract(IBlizzMultiFeeDistribution)10911"
      },
      {
        "astId": 35383,
        "contract": "contracts/strategies/BlizzStrategyV1.sol:BlizzStrategyV1",
        "label": "blizzChef",
        "offset": 0,
        "slot": "19",
        "type": "t_contract(IBlizzChef)10903"
      },
      {
        "astId": 35385,
        "contract": "contracts/strategies/BlizzStrategyV1.sol:BlizzStrategyV1",
        "label": "tokenDelegator",
        "offset": 0,
        "slot": "20",
        "type": "t_contract(ILendingPool)13876"
      },
      {
        "astId": 35392,
        "contract": "contracts/strategies/BlizzStrategyV1.sol:BlizzStrategyV1",
        "label": "leverageLevel",
        "offset": 0,
        "slot": "21",
        "type": "t_uint256"
      },
      {
        "astId": 35394,
        "contract": "contracts/strategies/BlizzStrategyV1.sol:BlizzStrategyV1",
        "label": "safetyFactor",
        "offset": 0,
        "slot": "22",
        "type": "t_uint256"
      },
      {
        "astId": 35396,
        "contract": "contracts/strategies/BlizzStrategyV1.sol:BlizzStrategyV1",
        "label": "leverageBips",
        "offset": 0,
        "slot": "23",
        "type": "t_uint256"
      },
      {
        "astId": 35398,
        "contract": "contracts/strategies/BlizzStrategyV1.sol:BlizzStrategyV1",
        "label": "minMinting",
        "offset": 0,
        "slot": "24",
        "type": "t_uint256"
      },
      {
        "astId": 35400,
        "contract": "contracts/strategies/BlizzStrategyV1.sol:BlizzStrategyV1",
        "label": "avToken",
        "offset": 0,
        "slot": "25",
        "type": "t_address"
      },
      {
        "astId": 35402,
        "contract": "contracts/strategies/BlizzStrategyV1.sol:BlizzStrategyV1",
        "label": "avDebtToken",
        "offset": 0,
        "slot": "26",
        "type": "t_address"
      },
      {
        "astId": 35404,
        "contract": "contracts/strategies/BlizzStrategyV1.sol:BlizzStrategyV1",
        "label": "poolRewardToken",
        "offset": 0,
        "slot": "27",
        "type": "t_address"
      },
      {
        "astId": 35406,
        "contract": "contracts/strategies/BlizzStrategyV1.sol:BlizzStrategyV1",
        "label": "swapPairPoolReward",
        "offset": 0,
        "slot": "28",
        "type": "t_contract(IPair)14641"
      },
      {
        "astId": 35408,
        "contract": "contracts/strategies/BlizzStrategyV1.sol:BlizzStrategyV1",
        "label": "swapPairRewardDeposit",
        "offset": 0,
        "slot": "29",
        "type": "t_contract(IPair)14641"
      }
    ],
    "types": {
      "t_address": {
        "encoding": "inplace",
        "label": "address",
        "numberOfBytes": "20"
      },
      "t_bool": {
        "encoding": "inplace",
        "label": "bool",
        "numberOfBytes": "1"
      },
      "t_contract(IBlizzChef)10903": {
        "encoding": "inplace",
        "label": "contract IBlizzChef",
        "numberOfBytes": "20"
      },
      "t_contract(IBlizzMultiFeeDistribution)10911": {
        "encoding": "inplace",
        "label": "contract IBlizzMultiFeeDistribution",
        "numberOfBytes": "20"
      },
      "t_contract(IERC20)11402": {
        "encoding": "inplace",
        "label": "contract IERC20",
        "numberOfBytes": "20"
      },
      "t_contract(ILendingPool)13876": {
        "encoding": "inplace",
        "label": "contract ILendingPool",
        "numberOfBytes": "20"
      },
      "t_contract(IPair)14641": {
        "encoding": "inplace",
        "label": "contract IPair",
        "numberOfBytes": "20"
      },
      "t_mapping(t_address,t_bool)": {
        "encoding": "mapping",
        "key": "t_address",
        "label": "mapping(address => bool)",
        "numberOfBytes": "32",
        "value": "t_bool"
      },
      "t_mapping(t_address,t_mapping(t_address,t_uint256))": {
        "encoding": "mapping",
        "key": "t_address",
        "label": "mapping(address => mapping(address => uint256))",
        "numberOfBytes": "32",
        "value": "t_mapping(t_address,t_uint256)"
      },
      "t_mapping(t_address,t_uint256)": {
        "encoding": "mapping",
        "key": "t_address",
        "label": "mapping(address => uint256)",
        "numberOfBytes": "32",
        "value": "t_uint256"
      },
      "t_string_storage": {
        "encoding": "bytes",
        "label": "string",
        "numberOfBytes": "32"
      },
      "t_uint256": {
        "encoding": "inplace",
        "label": "uint256",
        "numberOfBytes": "32"
      }
    }
  }
}