{
  "address": "0x56454e27580caEAFFAA3EC25102218CD8d87fEB2",
  "abi": [
    {
      "inputs": [
        {
          "internalType": "string",
          "name": "_name",
          "type": "string"
        },
        {
          "internalType": "address",
          "name": "_depositToken",
          "type": "address"
        },
        {
          "internalType": "address",
          "name": "_stakingContract",
          "type": "address"
        },
        {
          "internalType": "address",
          "name": "_swapPairWavaxZap",
          "type": "address"
        },
        {
          "internalType": "address",
          "name": "_swapPairCrvAvax",
          "type": "address"
        },
        {
          "internalType": "address",
          "name": "_timelock",
          "type": "address"
        },
        {
          "components": [
            {
              "internalType": "uint256",
              "name": "minTokensToReinvest",
              "type": "uint256"
            },
            {
              "internalType": "uint256",
              "name": "adminFeeBips",
              "type": "uint256"
            },
            {
              "internalType": "uint256",
              "name": "devFeeBips",
              "type": "uint256"
            },
            {
              "internalType": "uint256",
              "name": "reinvestRewardBips",
              "type": "uint256"
            }
          ],
          "internalType": "struct CurveStrategyForLPV1.StrategySettings",
          "name": "_strategySettings",
          "type": "tuple"
        },
        {
          "components": [
            {
              "internalType": "enum CurveStrategyForLPV1.PoolType",
              "name": "poolType",
              "type": "uint8"
            },
            {
              "internalType": "address",
              "name": "zapToken",
              "type": "address"
            },
            {
              "internalType": "address",
              "name": "zapContract",
              "type": "address"
            },
            {
              "internalType": "uint256",
              "name": "zapTokenIndex",
              "type": "uint256"
            },
            {
              "internalType": "uint256",
              "name": "maxSlippage",
              "type": "uint256"
            }
          ],
          "internalType": "struct CurveStrategyForLPV1.ZapSettings",
          "name": "_zapSettings",
          "type": "tuple"
        }
      ],
      "stateMutability": "nonpayable",
      "type": "constructor"
    },
    {
      "anonymous": false,
      "inputs": [
        {
          "indexed": true,
          "internalType": "address",
          "name": "account",
          "type": "address"
        }
      ],
      "name": "AllowDepositor",
      "type": "event"
    },
    {
      "anonymous": false,
      "inputs": [
        {
          "indexed": true,
          "internalType": "address",
          "name": "owner",
          "type": "address"
        },
        {
          "indexed": true,
          "internalType": "address",
          "name": "spender",
          "type": "address"
        },
        {
          "indexed": false,
          "internalType": "uint256",
          "name": "value",
          "type": "uint256"
        }
      ],
      "name": "Approval",
      "type": "event"
    },
    {
      "anonymous": false,
      "inputs": [
        {
          "indexed": true,
          "internalType": "address",
          "name": "account",
          "type": "address"
        },
        {
          "indexed": false,
          "internalType": "uint256",
          "name": "amount",
          "type": "uint256"
        }
      ],
      "name": "Deposit",
      "type": "event"
    },
    {
      "anonymous": false,
      "inputs": [
        {
          "indexed": false,
          "internalType": "bool",
          "name": "newValue",
          "type": "bool"
        }
      ],
      "name": "DepositsEnabled",
      "type": "event"
    },
    {
      "anonymous": false,
      "inputs": [
        {
          "indexed": true,
          "internalType": "address",
          "name": "previousOwner",
          "type": "address"
        },
        {
          "indexed": true,
          "internalType": "address",
          "name": "newOwner",
          "type": "address"
        }
      ],
      "name": "OwnershipTransferred",
      "type": "event"
    },
    {
      "anonymous": false,
      "inputs": [
        {
          "indexed": false,
          "internalType": "address",
          "name": "token",
          "type": "address"
        },
        {
          "indexed": false,
          "internalType": "uint256",
          "name": "amount",
          "type": "uint256"
        }
      ],
      "name": "Recovered",
      "type": "event"
    },
    {
      "anonymous": false,
      "inputs": [
        {
          "indexed": false,
          "internalType": "uint256",
          "name": "newTotalDeposits",
          "type": "uint256"
        },
        {
          "indexed": false,
          "internalType": "uint256",
          "name": "newTotalSupply",
          "type": "uint256"
        }
      ],
      "name": "Reinvest",
      "type": "event"
    },
    {
      "anonymous": false,
      "inputs": [
        {
          "indexed": true,
          "internalType": "address",
          "name": "account",
          "type": "address"
        }
      ],
      "name": "RemoveDepositor",
      "type": "event"
    },
    {
      "anonymous": false,
      "inputs": [
        {
          "indexed": true,
          "internalType": "address",
          "name": "from",
          "type": "address"
        },
        {
          "indexed": true,
          "internalType": "address",
          "name": "to",
          "type": "address"
        },
        {
          "indexed": false,
          "internalType": "uint256",
          "name": "value",
          "type": "uint256"
        }
      ],
      "name": "Transfer",
      "type": "event"
    },
    {
      "anonymous": false,
      "inputs": [
        {
          "indexed": false,
          "internalType": "uint256",
          "name": "oldValue",
          "type": "uint256"
        },
        {
          "indexed": false,
          "internalType": "uint256",
          "name": "newValue",
          "type": "uint256"
        }
      ],
      "name": "UpdateAdminFee",
      "type": "event"
    },
    {
      "anonymous": false,
      "inputs": [
        {
          "indexed": false,
          "internalType": "address",
          "name": "oldValue",
          "type": "address"
        },
        {
          "indexed": false,
          "internalType": "address",
          "name": "newValue",
          "type": "address"
        }
      ],
      "name": "UpdateDevAddr",
      "type": "event"
    },
    {
      "anonymous": false,
      "inputs": [
        {
          "indexed": false,
          "internalType": "uint256",
          "name": "oldValue",
          "type": "uint256"
        },
        {
          "indexed": false,
          "internalType": "uint256",
          "name": "newValue",
          "type": "uint256"
        }
      ],
      "name": "UpdateDevFee",
      "type": "event"
    },
    {
      "anonymous": false,
      "inputs": [
        {
          "indexed": false,
          "internalType": "uint256",
          "name": "oldValue",
          "type": "uint256"
        },
        {
          "indexed": false,
          "internalType": "uint256",
          "name": "newValue",
          "type": "uint256"
        }
      ],
      "name": "UpdateMaxTokensToDepositWithoutReinvest",
      "type": "event"
    },
    {
      "anonymous": false,
      "inputs": [
        {
          "indexed": false,
          "internalType": "uint256",
          "name": "oldValue",
          "type": "uint256"
        },
        {
          "indexed": false,
          "internalType": "uint256",
          "name": "newValue",
          "type": "uint256"
        }
      ],
      "name": "UpdateMinTokensToReinvest",
      "type": "event"
    },
    {
      "anonymous": false,
      "inputs": [
        {
          "indexed": false,
          "internalType": "uint256",
          "name": "oldValue",
          "type": "uint256"
        },
        {
          "indexed": false,
          "internalType": "uint256",
          "name": "newValue",
          "type": "uint256"
        }
      ],
      "name": "UpdateReinvestReward",
      "type": "event"
    },
    {
      "anonymous": false,
      "inputs": [
        {
          "indexed": true,
          "internalType": "address",
          "name": "account",
          "type": "address"
        },
        {
          "indexed": false,
          "internalType": "uint256",
          "name": "amount",
          "type": "uint256"
        }
      ],
      "name": "Withdraw",
      "type": "event"
    },
    {
      "inputs": [],
      "name": "ADMIN_FEE_BIPS",
      "outputs": [
        {
          "internalType": "uint256",
          "name": "",
          "type": "uint256"
        }
      ],
      "stateMutability": "view",
      "type": "function"
    },
    {
      "inputs": [],
      "name": "DEPOSITS_ENABLED",
      "outputs": [
        {
          "internalType": "bool",
          "name": "",
          "type": "bool"
        }
      ],
      "stateMutability": "view",
      "type": "function"
    },
    {
      "inputs": [],
      "name": "DEV_FEE_BIPS",
      "outputs": [
        {
          "internalType": "uint256",
          "name": "",
          "type": "uint256"
        }
      ],
      "stateMutability": "view",
      "type": "function"
    },
    {
      "inputs": [],
      "name": "DOMAIN_TYPEHASH",
      "outputs": [
        {
          "internalType": "bytes32",
          "name": "",
          "type": "bytes32"
        }
      ],
      "stateMutability": "view",
      "type": "function"
    },
    {
      "inputs": [],
      "name": "MAX_TOKENS_TO_DEPOSIT_WITHOUT_REINVEST",
      "outputs": [
        {
          "internalType": "uint256",
          "name": "",
          "type": "uint256"
        }
      ],
      "stateMutability": "view",
      "type": "function"
    },
    {
      "inputs": [],
      "name": "MIN_TOKENS_TO_REINVEST",
      "outputs": [
        {
          "internalType": "uint256",
          "name": "",
          "type": "uint256"
        }
      ],
      "stateMutability": "view",
      "type": "function"
    },
    {
      "inputs": [],
      "name": "PERMIT_TYPEHASH",
      "outputs": [
        {
          "internalType": "bytes32",
          "name": "",
          "type": "bytes32"
        }
      ],
      "stateMutability": "view",
      "type": "function"
    },
    {
      "inputs": [],
      "name": "REINVEST_REWARD_BIPS",
      "outputs": [
        {
          "internalType": "uint256",
          "name": "",
          "type": "uint256"
        }
      ],
      "stateMutability": "view",
      "type": "function"
    },
    {
      "inputs": [],
      "name": "VERSION_HASH",
      "outputs": [
        {
          "internalType": "bytes32",
          "name": "",
          "type": "bytes32"
        }
      ],
      "stateMutability": "view",
      "type": "function"
    },
    {
      "inputs": [
        {
          "internalType": "address",
          "name": "_rewardToken",
          "type": "address"
        }
      ],
      "name": "_calculateRewards",
      "outputs": [
        {
          "internalType": "uint256",
          "name": "",
          "type": "uint256"
        }
      ],
      "stateMutability": "view",
      "type": "function"
    },
    {
      "inputs": [
        {
          "internalType": "address",
          "name": "depositor",
          "type": "address"
        }
      ],
      "name": "allowDepositor",
      "outputs": [],
      "stateMutability": "nonpayable",
      "type": "function"
    },
    {
      "inputs": [
        {
          "internalType": "address",
          "name": "account",
          "type": "address"
        },
        {
          "internalType": "address",
          "name": "spender",
          "type": "address"
        }
      ],
      "name": "allowance",
      "outputs": [
        {
          "internalType": "uint256",
          "name": "",
          "type": "uint256"
        }
      ],
      "stateMutability": "view",
      "type": "function"
    },
    {
      "inputs": [
        {
          "internalType": "address",
          "name": "",
          "type": "address"
        }
      ],
      "name": "allowedDepositors",
      "outputs": [
        {
          "internalType": "bool",
          "name": "",
          "type": "bool"
        }
      ],
      "stateMutability": "view",
      "type": "function"
    },
    {
      "inputs": [
        {
          "internalType": "address",
          "name": "spender",
          "type": "address"
        },
        {
          "internalType": "uint256",
          "name": "amount",
          "type": "uint256"
        }
      ],
      "name": "approve",
      "outputs": [
        {
          "internalType": "bool",
          "name": "",
          "type": "bool"
        }
      ],
      "stateMutability": "nonpayable",
      "type": "function"
    },
    {
      "inputs": [
        {
          "internalType": "address",
          "name": "account",
          "type": "address"
        }
      ],
      "name": "balanceOf",
      "outputs": [
        {
          "internalType": "uint256",
          "name": "",
          "type": "uint256"
        }
      ],
      "stateMutability": "view",
      "type": "function"
    },
    {
      "inputs": [],
      "name": "checkReward",
      "outputs": [
        {
          "internalType": "uint256",
          "name": "",
          "type": "uint256"
        }
      ],
      "stateMutability": "view",
      "type": "function"
    },
    {
      "inputs": [],
      "name": "decimals",
      "outputs": [
        {
          "internalType": "uint8",
          "name": "",
          "type": "uint8"
        }
      ],
      "stateMutability": "view",
      "type": "function"
    },
    {
      "inputs": [
        {
          "internalType": "uint256",
          "name": "amount",
          "type": "uint256"
        }
      ],
      "name": "deposit",
      "outputs": [],
      "stateMutability": "nonpayable",
      "type": "function"
    },
    {
      "inputs": [
        {
          "internalType": "address",
          "name": "account",
          "type": "address"
        },
        {
          "internalType": "uint256",
          "name": "amount",
          "type": "uint256"
        }
      ],
      "name": "depositFor",
      "outputs": [],
      "stateMutability": "nonpayable",
      "type": "function"
    },
    {
      "inputs": [],
      "name": "depositToken",
      "outputs": [
        {
          "internalType": "contract IERC20",
          "name": "",
          "type": "address"
        }
      ],
      "stateMutability": "view",
      "type": "function"
    },
    {
      "inputs": [
        {
          "internalType": "uint256",
          "name": "amount",
          "type": "uint256"
        },
        {
          "internalType": "uint256",
          "name": "deadline",
          "type": "uint256"
        },
        {
          "internalType": "uint8",
          "name": "v",
          "type": "uint8"
        },
        {
          "internalType": "bytes32",
          "name": "r",
          "type": "bytes32"
        },
        {
          "internalType": "bytes32",
          "name": "s",
          "type": "bytes32"
        }
      ],
      "name": "depositWithPermit",
      "outputs": [],
      "stateMutability": "nonpayable",
      "type": "function"
    },
    {
      "inputs": [],
      "name": "devAddr",
      "outputs": [
        {
          "internalType": "address",
          "name": "",
          "type": "address"
        }
      ],
      "stateMutability": "view",
      "type": "function"
    },
    {
      "inputs": [],
      "name": "estimateDeployedBalance",
      "outputs": [
        {
          "internalType": "uint256",
          "name": "",
          "type": "uint256"
        }
      ],
      "stateMutability": "view",
      "type": "function"
    },
    {
      "inputs": [],
      "name": "estimateReinvestReward",
      "outputs": [
        {
          "internalType": "uint256",
          "name": "",
          "type": "uint256"
        }
      ],
      "stateMutability": "view",
      "type": "function"
    },
    {
      "inputs": [
        {
          "internalType": "uint256",
          "name": "amount",
          "type": "uint256"
        }
      ],
      "name": "getDepositTokensForShares",
      "outputs": [
        {
          "internalType": "uint256",
          "name": "",
          "type": "uint256"
        }
      ],
      "stateMutability": "view",
      "type": "function"
    },
    {
      "inputs": [],
      "name": "getDomainSeparator",
      "outputs": [
        {
          "internalType": "bytes32",
          "name": "",
          "type": "bytes32"
        }
      ],
      "stateMutability": "view",
      "type": "function"
    },
    {
      "inputs": [
        {
          "internalType": "uint256",
          "name": "amount",
          "type": "uint256"
        }
      ],
      "name": "getSharesForDepositTokens",
      "outputs": [
        {
          "internalType": "uint256",
          "name": "",
          "type": "uint256"
        }
      ],
      "stateMutability": "view",
      "type": "function"
    },
    {
      "inputs": [],
      "name": "name",
      "outputs": [
        {
          "internalType": "string",
          "name": "",
          "type": "string"
        }
      ],
      "stateMutability": "view",
      "type": "function"
    },
    {
      "inputs": [
        {
          "internalType": "address",
          "name": "",
          "type": "address"
        }
      ],
      "name": "nonces",
      "outputs": [
        {
          "internalType": "uint256",
          "name": "",
          "type": "uint256"
        }
      ],
      "stateMutability": "view",
      "type": "function"
    },
    {
      "inputs": [],
      "name": "numberOfAllowedDepositors",
      "outputs": [
        {
          "internalType": "uint256",
          "name": "",
          "type": "uint256"
        }
      ],
      "stateMutability": "view",
      "type": "function"
    },
    {
      "inputs": [],
      "name": "owner",
      "outputs": [
        {
          "internalType": "address",
          "name": "",
          "type": "address"
        }
      ],
      "stateMutability": "view",
      "type": "function"
    },
    {
      "inputs": [
        {
          "internalType": "address",
          "name": "owner",
          "type": "address"
        },
        {
          "internalType": "address",
          "name": "spender",
          "type": "address"
        },
        {
          "internalType": "uint256",
          "name": "value",
          "type": "uint256"
        },
        {
          "internalType": "uint256",
          "name": "deadline",
          "type": "uint256"
        },
        {
          "internalType": "uint8",
          "name": "v",
          "type": "uint8"
        },
        {
          "internalType": "bytes32",
          "name": "r",
          "type": "bytes32"
        },
        {
          "internalType": "bytes32",
          "name": "s",
          "type": "bytes32"
        }
      ],
      "name": "permit",
      "outputs": [],
      "stateMutability": "nonpayable",
      "type": "function"
    },
    {
      "inputs": [
        {
          "internalType": "uint256",
          "name": "amount",
          "type": "uint256"
        }
      ],
      "name": "recoverAVAX",
      "outputs": [],
      "stateMutability": "nonpayable",
      "type": "function"
    },
    {
      "inputs": [
        {
          "internalType": "address",
          "name": "tokenAddress",
          "type": "address"
        },
        {
          "internalType": "uint256",
          "name": "tokenAmount",
          "type": "uint256"
        }
      ],
      "name": "recoverERC20",
      "outputs": [],
      "stateMutability": "nonpayable",
      "type": "function"
    },
    {
      "inputs": [],
      "name": "reinvest",
      "outputs": [],
      "stateMutability": "nonpayable",
      "type": "function"
    },
    {
      "inputs": [
        {
          "internalType": "address",
          "name": "depositor",
          "type": "address"
        }
      ],
      "name": "removeDepositor",
      "outputs": [],
      "stateMutability": "nonpayable",
      "type": "function"
    },
    {
      "inputs": [],
      "name": "renounceOwnership",
      "outputs": [],
      "stateMutability": "nonpayable",
      "type": "function"
    },
    {
      "inputs": [
        {
          "internalType": "uint256",
          "name": "minReturnAmountAccepted",
          "type": "uint256"
        },
        {
          "internalType": "bool",
          "name": "disableDeposits",
          "type": "bool"
        }
      ],
      "name": "rescueDeployedFunds",
      "outputs": [],
      "stateMutability": "nonpayable",
      "type": "function"
    },
    {
      "inputs": [
        {
          "internalType": "address",
          "name": "token",
          "type": "address"
        },
        {
          "internalType": "address",
          "name": "spender",
          "type": "address"
        }
      ],
      "name": "revokeAllowance",
      "outputs": [],
      "stateMutability": "nonpayable",
      "type": "function"
    },
    {
      "inputs": [],
      "name": "rewardToken",
      "outputs": [
        {
          "internalType": "contract IERC20",
          "name": "",
          "type": "address"
        }
      ],
      "stateMutability": "view",
      "type": "function"
    },
    {
      "inputs": [],
      "name": "setAllowances",
      "outputs": [],
      "stateMutability": "nonpayable",
      "type": "function"
    },
    {
      "inputs": [],
      "name": "stakingContract",
      "outputs": [
        {
          "internalType": "contract ICurveRewardsGauge",
          "name": "",
          "type": "address"
        }
      ],
      "stateMutability": "view",
      "type": "function"
    },
    {
      "inputs": [],
      "name": "symbol",
      "outputs": [
        {
          "internalType": "string",
          "name": "",
          "type": "string"
        }
      ],
      "stateMutability": "view",
      "type": "function"
    },
    {
      "inputs": [],
      "name": "totalDeposits",
      "outputs": [
        {
          "internalType": "uint256",
          "name": "",
          "type": "uint256"
        }
      ],
      "stateMutability": "view",
      "type": "function"
    },
    {
      "inputs": [],
      "name": "totalSupply",
      "outputs": [
        {
          "internalType": "uint256",
          "name": "",
          "type": "uint256"
        }
      ],
      "stateMutability": "view",
      "type": "function"
    },
    {
      "inputs": [
        {
          "internalType": "address",
          "name": "dst",
          "type": "address"
        },
        {
          "internalType": "uint256",
          "name": "amount",
          "type": "uint256"
        }
      ],
      "name": "transfer",
      "outputs": [
        {
          "internalType": "bool",
          "name": "",
          "type": "bool"
        }
      ],
      "stateMutability": "nonpayable",
      "type": "function"
    },
    {
      "inputs": [
        {
          "internalType": "address",
          "name": "src",
          "type": "address"
        },
        {
          "internalType": "address",
          "name": "dst",
          "type": "address"
        },
        {
          "internalType": "uint256",
          "name": "amount",
          "type": "uint256"
        }
      ],
      "name": "transferFrom",
      "outputs": [
        {
          "internalType": "bool",
          "name": "",
          "type": "bool"
        }
      ],
      "stateMutability": "nonpayable",
      "type": "function"
    },
    {
      "inputs": [
        {
          "internalType": "address",
          "name": "newOwner",
          "type": "address"
        }
      ],
      "name": "transferOwnership",
      "outputs": [],
      "stateMutability": "nonpayable",
      "type": "function"
    },
    {
      "inputs": [
        {
          "internalType": "uint256",
          "name": "newValue",
          "type": "uint256"
        }
      ],
      "name": "updateAdminFee",
      "outputs": [],
      "stateMutability": "nonpayable",
      "type": "function"
    },
    {
      "inputs": [
        {
          "internalType": "address",
          "name": "swapPair",
          "type": "address"
        }
      ],
      "name": "updateCrvAvaxSwapPair",
      "outputs": [],
      "stateMutability": "nonpayable",
      "type": "function"
    },
    {
      "inputs": [
        {
          "internalType": "bool",
          "name": "newValue",
          "type": "bool"
        }
      ],
      "name": "updateDepositsEnabled",
      "outputs": [],
      "stateMutability": "nonpayable",
      "type": "function"
    },
    {
      "inputs": [
        {
          "internalType": "address",
          "name": "newValue",
          "type": "address"
        }
      ],
      "name": "updateDevAddr",
      "outputs": [],
      "stateMutability": "nonpayable",
      "type": "function"
    },
    {
      "inputs": [
        {
          "internalType": "uint256",
          "name": "newValue",
          "type": "uint256"
        }
      ],
      "name": "updateDevFee",
      "outputs": [],
      "stateMutability": "nonpayable",
      "type": "function"
    },
    {
      "inputs": [
        {
          "internalType": "uint256",
          "name": "slippageBips",
          "type": "uint256"
        }
      ],
      "name": "updateMaxSwapSlippage",
      "outputs": [],
      "stateMutability": "nonpayable",
      "type": "function"
    },
    {
      "inputs": [
        {
          "internalType": "uint256",
          "name": "newValue",
          "type": "uint256"
        }
      ],
      "name": "updateMaxTokensToDepositWithoutReinvest",
      "outputs": [],
      "stateMutability": "nonpayable",
      "type": "function"
    },
    {
      "inputs": [
        {
          "internalType": "uint256",
          "name": "newValue",
          "type": "uint256"
        }
      ],
      "name": "updateMinTokensToReinvest",
      "outputs": [],
      "stateMutability": "nonpayable",
      "type": "function"
    },
    {
      "inputs": [
        {
          "internalType": "uint256",
          "name": "newValue",
          "type": "uint256"
        }
      ],
      "name": "updateReinvestReward",
      "outputs": [],
      "stateMutability": "nonpayable",
      "type": "function"
    },
    {
      "inputs": [
        {
          "internalType": "uint256",
          "name": "amount",
          "type": "uint256"
        }
      ],
      "name": "withdraw",
      "outputs": [],
      "stateMutability": "nonpayable",
      "type": "function"
    }
  ],
  "transactionHash": "0x3a6ded0ae6712c30e4a50db093a6aaea7cc165a161464f758505c4139ef5d218",
  "args": [
    "Yield Yak: Curve av3CRV",
    "0x1337BedC9D22ecbe766dF105c9623922A27963EC",
    "0x5B5CFE992AdAC0C9D48E05854B2d91C73a003858",
    "0xed8cbd9f0ce3c6986b22002f03c6475ceb7a6256",
    "0x4cf3e498e9f191332badef0b09314ef3d1075e4e",
    "0x8d36C5c6947ADCcd25Ef49Ea1aAC2ceACFff0bD7",
    {
      "minTokensToReinvest": "100000000000000",
      "adminFeeBips": 700,
      "devFeeBips": 0,
      "reinvestRewardBips": 100
    },
    {
      "poolType": 0,
      "zapToken": "0xc7198437980c041c805a1edcba50c1ce5db95118",
      "zapContract": "0x7f90122BF0700F9E7e1F688fe926940E8839F353",
      "zapTokenIndex": 2,
      "maxSlippage": 50
    }
  ],
  "solcInputHash": "38aa2b827f102604feae445a90576ade",
  "bytecode": "0x60c060405260096080819052685969656c642059616b60b81b60a09081526200002c9160009190620014a0565b506040805180820190915260038082526216549560ea1b60209092019182526200005991600191620014a0565b50601580546001600160a01b03191690553480156200007757600080fd5b5060405162006403380380620064038339810160408190526200009a91620016d1565b6000620000a66200062a565b600680546001600160a01b0319166001600160a01b03831690811790915560405191925090600090600080516020620063e3833981519152908290a3508751620000f89060009060208b0190620014a0565b50600c8054336001600160a01b031991821617909155600a805482166001600160a01b038a811691909117909155600b805473b31f66aa3c1e785363f0875a1b74e27b85fd66c790841617905560138054831689831617905560158054909216868216179091558516620001895760405162461bcd60e51b8152600401620001809062001a99565b60405180910390fd5b80602001516001600160a01b0316856001600160a01b0316630dfe16816040518163ffffffff1660e01b815260040160206040518083038186803b158015620001d157600080fd5b505afa158015620001e6573d6000803e3d6000fd5b505050506040513d601f19601f820116820180604052508101906200020c919062001692565b6001600160a01b03161480620002ab575080602001516001600160a01b0316856001600160a01b031663d21220a76040518163ffffffff1660e01b815260040160206040518083038186803b1580156200026557600080fd5b505afa1580156200027a573d6000803e3d6000fd5b505050506040513d601f19601f82011682018060405250810190620002a0919062001692565b6001600160a01b0316145b620002ca5760405162461bcd60e51b8152600401620001809062001a2e565b601480546001600160a01b0319166001600160a01b038716179055600081516001811115620002f557fe5b1415620003f25780604001516001600160a01b031663b9947eb082606001516040518263ffffffff1660e01b815260040162000332919062001bfb565b60206040518083038186803b1580156200034b57600080fd5b505afa15801562000360573d6000803e3d6000fd5b505050506040513d601f19601f8201168201806040525081019062000386919062001692565b6001600160a01b031681602001516001600160a01b031614620003bd5760405162461bcd60e51b8152600401620001809062001b58565b60158054600160a01b600160e01b031916600160a01b6200062e60201b62002424176001600160401b031602179055620004fa565b6001815160018111156200040257fe5b1415620004fa5780604001516001600160a01b031663b9947eb082606001516040518263ffffffff1660e01b81526004016200043f919062001bfb565b60206040518083038186803b1580156200045857600080fd5b505afa1580156200046d573d6000803e3d6000fd5b505050506040513d601f19601f8201168201806040525081019062000493919062001692565b6001600160a01b031681602001516001600160a01b031614620004ca5760405162461bcd60e51b8152600401620001809062001b58565b60158054600160a01b600160e01b031916600160a01b6200083760201b620025fd176001600160401b0316021790555b805160168054839290829060ff1916600183818111156200051757fe5b021790555060208201518154610100600160a81b0319166101006001600160a01b039283160217825560408301516001830180546001600160a01b03191691909216179055606082015160028201556080909101516003909101556200057c62000a69565b60808101516200058c9062000bd8565b8151620005999062000c0a565b6020820151620005a99062000c92565b6040820151620005b99062000d60565b6060820151620005c99062000e1a565b620005d5600162000ed4565b620005e08362000f7c565b7fc7606d21ac05cd309191543e409f0845c016120563783d70e4f41419dc0ef234600080604051620006149291906200198e565b60405180910390a1505050505050505062001c90565b3390565b60165460145460009182916200067a91859173b31f66aa3c1e785363f0875a1b74e27b85fd66c79161010090046001600160a01b03908116911662001036602090811b6200281317901c565b90506200068662001525565b6040518060600160405280600081526020016000815260200160008152509050818160166002015460038110620006b957fe5b6020020152601754604051633883e11960e01b81526000916001600160a01b031690633883e11990620006f490859060019060040162001902565b60206040518083038186803b1580156200070d57600080fd5b505afa15801562000722573d6000803e3d6000fd5b505050506040513d601f19601f820116820180604052508101906200074891906200183e565b90506000620007866127106200077260166003015485620011bc60201b620029b41790919060201c565b6200120560201b620029f51790919060201c565b6017549091506001600160a01b0316632b6e993a84620007b385856200124f602090811b62002a3717901c565b60016040518463ffffffff1660e01b8152600401620007d59392919062001921565b602060405180830381600087803b158015620007f057600080fd5b505af115801562000805573d6000803e3d6000fd5b505050506040513d601f19601f820116820180604052508101906200082b91906200183e565b9450505050505b919050565b60165460145460009182916200088391859173b31f66aa3c1e785363f0875a1b74e27b85fd66c79161010090046001600160a01b03908116911662001036602090811b6200281317901c565b90506200088f62001543565b6040518060a001604052806000815260200160008152602001600081526020016000815260200160008152509050818160166002015460058110620008d057fe5b6020020152601754604051637ede89c560e01b81526000916001600160a01b031690637ede89c5906200090b90859060019060040162001947565b60206040518083038186803b1580156200092457600080fd5b505afa15801562000939573d6000803e3d6000fd5b505050506040513d601f19601f820116820180604052508101906200095f91906200183e565b90506000620009896127106200077260166003015485620011bc60201b620029b41790919060201c565b6017549091506001600160a01b0316638473849984620009b685856200124f602090811b62002a3717901c565b6040518363ffffffff1660e01b8152600401620009d592919062001966565b600060405180830381600087803b158015620009f057600080fd5b505af115801562000a05573d6000803e3d6000fd5b5050600a546040516370a0823160e01b81526001600160a01b0390911692506370a08231915062000a3b903090600401620018d5565b60206040518083038186803b15801562000a5457600080fd5b505afa15801562000805573d6000803e3d6000fd5b62000a736200062a565b6001600160a01b031662000a8662001299565b6001600160a01b03161462000aaf5760405162461bcd60e51b8152600401620001809062001b23565b600a5460135460405163095ea7b360e01b81526001600160a01b039283169263095ea7b39262000ae99291169060001990600401620018e9565b602060405180830381600087803b15801562000b0457600080fd5b505af115801562000b19573d6000803e3d6000fd5b505050506040513d601f19601f8201168201806040525081019062000b3f9190620016af565b5060165460175460405163095ea7b360e01b81526001600160a01b0361010090930483169263095ea7b39262000b7f9291169060001990600401620018e9565b602060405180830381600087803b15801562000b9a57600080fd5b505af115801562000baf573d6000803e3d6000fd5b505050506040513d601f19601f8201168201806040525081019062000bd59190620016af565b50565b600c546001600160a01b0316331462000c055760405162461bcd60e51b8152600401620001809062001b8f565b601955565b62000c146200062a565b6001600160a01b031662000c2762001299565b6001600160a01b03161462000c505760405162461bcd60e51b8152600401620001809062001b23565b7f481f79ac3a523b6d6db3c5a720e190e986d1cc1b41adcdf50f9caef849901100600d548260405162000c859291906200198e565b60405180910390a1600d55565b62000c9c6200062a565b6001600160a01b031662000caf62001299565b6001600160a01b03161462000cd85760405162461bcd60e51b8152600401620001809062001b23565b61271062000d1260105462000cfe60125485620012a860201b62002a791790919060201c565b620012a860201b62002a791790919060201c565b111562000d1e57600080fd5b7f3cc372f330f95ac9540626dc8a25f5bf21ba607215a5d58304cb804d446f104a6011548260405162000d539291906200198e565b60405180910390a1601155565b62000d6a6200062a565b6001600160a01b031662000d7d62001299565b6001600160a01b03161462000da65760405162461bcd60e51b8152600401620001809062001b23565b61271062000dcc60105462000cfe60115485620012a860201b62002a791790919060201c565b111562000dd857600080fd5b7f2a42303d002f0ba6cfe8259c91d4684443fb0b3de286ba74991175d6517261316012548260405162000e0d9291906200198e565b60405180910390a1601255565b62000e246200062a565b6001600160a01b031662000e3762001299565b6001600160a01b03161462000e605760405162461bcd60e51b8152600401620001809062001b23565b61271062000e8660125462000cfe60115485620012a860201b62002a791790919060201c565b111562000e9257600080fd5b7fe7f97d51d307dc44045597c9978bec0f842e6bb40d19b9444084cfa30d9ed4f26010548260405162000ec79291906200198e565b60405180910390a1601055565b62000ede6200062a565b6001600160a01b031662000ef162001299565b6001600160a01b03161462000f1a5760405162461bcd60e51b8152600401620001809062001b23565b600f5460ff161515811515141562000f3157600080fd5b600f805460ff19168215151790556040517f7b014ed3854e7f5cb0218d58b3c6ae7d53a68bb0af2f67bfb029ea42c38a7e859062000f7190839062001983565b60405180910390a150565b62000f866200062a565b6001600160a01b031662000f9962001299565b6001600160a01b03161462000fc25760405162461bcd60e51b8152600401620001809062001b23565b6001600160a01b03811662000feb5760405162461bcd60e51b81526004016200018090620019b1565b6006546040516001600160a01b03808416921690600080516020620063e383398151915290600090a3600680546001600160a01b0319166001600160a01b0392909216919091179055565b600080620010458585620012d0565b509050600080846001600160a01b0316630902f1ac6040518163ffffffff1660e01b815260040160606040518083038186803b1580156200108557600080fd5b505afa1580156200109a573d6000803e3d6000fd5b505050506040513d601f19601f82011682018060405250810190620010c09190620017ea565b5091509150866001600160a01b0316836001600160a01b031614620010e157905b600080620010fd8a6001600160701b0380871690861662001303565b9050886001600160a01b0316856001600160a01b0316146200111b57905b6200112889888c6200138c565b6040805160008152602081019182905263022c0d9f60e01b9091526001600160a01b0388169063022c0d9f9062001169908590859030906024810162001c04565b600060405180830381600087803b1580156200118457600080fd5b505af115801562001199573d6000803e3d6000fd5b50505050818111620011ac5781620011ae565b805b9a9950505050505050505050565b600082620011cd57506000620011ff565b82820282848281620011db57fe5b0414620011fc5760405162461bcd60e51b8152600401620001809062001ae2565b90505b92915050565b6000620011fc83836040518060400160405280601a81526020017f536166654d6174683a206469766973696f6e206279207a65726f0000000000008152506200143660201b60201c565b6000620011fc83836040518060400160405280601f81526020017f536166654d6174683a207375627472616374696f6e20756e646572666c6f77008152506200147160201b60201c565b6006546001600160a01b031690565b600082820183811015620011fc5760405162461bcd60e51b81526004016200018090620019f7565b600080826001600160a01b0316846001600160a01b031610620012f5578284620012f8565b83835b915091509250929050565b600080620013226103e586620011bc60201b620029b41790919060201c565b90506000620013408483620011bc60201b620029b41790919060201c565b90506000620013658362000cfe6103e889620011bc60201b620029b41790919060201c565b90506200138181836200120560201b620029f51790919060201c565b979650505050505050565b60405163a9059cbb60e01b81526001600160a01b0384169063a9059cbb90620013bc9085908590600401620018e9565b602060405180830381600087803b158015620013d757600080fd5b505af1158015620013ec573d6000803e3d6000fd5b505050506040513d601f19601f82011682018060405250810190620014129190620016af565b620014315760405162461bcd60e51b8152600401620001809062001bc6565b505050565b600081836200145a5760405162461bcd60e51b81526004016200018091906200199c565b5060008385816200146757fe5b0495945050505050565b60008184841115620014985760405162461bcd60e51b81526004016200018091906200199c565b505050900390565b828054600181600116156101000203166002900490600052602060002090601f016020900481019282601f10620014e357805160ff191683800117855562001513565b8280016001018555821562001513579182015b8281111562001513578251825591602001919060010190620014f6565b506200152192915062001561565b5090565b60405180606001604052806003906020820280368337509192915050565b6040518060a001604052806005906020820280368337509192915050565b5b8082111562001521576000815560010162001562565b80516001600160a01b03811681146200083257600080fd5b600060808284031215620015a2578081fd5b604051608081016001600160401b0381118282101715620015bf57fe5b8060405250809150825181526020830151602082015260408301516040820152606083015160608201525092915050565b600060a0828403121562001602578081fd5b60405160a081016001600160401b03811182821017156200161f57fe5b80604052508091508251600281106200163757600080fd5b8152620016476020840162001578565b60208201526200165a6040840162001578565b604082015260608301516060820152608083015160808201525092915050565b80516001600160701b03811681146200083257600080fd5b600060208284031215620016a4578081fd5b620011fc8262001578565b600060208284031215620016c1578081fd5b81518015158114620011fc578182fd5b6000806000806000806000806101e0898b031215620016ee578384fd5b88516001600160401b038082111562001705578586fd5b818b0191508b601f83011262001719578586fd5b8151818111156200172657fe5b6200173b601f8201601f191660200162001c3d565b91508082528c602082850101111562001752578687fd5b6200176581602084016020860162001c61565b50985062001778905060208a0162001578565b96506200178860408a0162001578565b95506200179860608a0162001578565b9450620017a860808a0162001578565b9350620017b860a08a0162001578565b9250620017c98a60c08b0162001590565b9150620017db8a6101408b01620015f0565b90509295985092959890939650565b600080600060608486031215620017ff578283fd5b6200180a846200167a565b92506200181a602085016200167a565b9150604084015163ffffffff8116811462001833578182fd5b809150509250925092565b60006020828403121562001850578081fd5b5051919050565b8060005b60038110156200187c5781518452602093840193909101906001016200185b565b50505050565b8060005b60058110156200187c57815184526020938401939091019060010162001886565b60008151808452620018c181602086016020860162001c61565b601f01601f19169290920160200192915050565b6001600160a01b0391909116815260200190565b6001600160a01b03929092168252602082015260400190565b6080810162001912828562001857565b82151560608301529392505050565b60a0810162001931828662001857565b8360608301528215156080830152949350505050565b60c0810162001957828562001882565b82151560a08301529392505050565b60c0810162001976828562001882565b8260a08301529392505050565b901515815260200190565b918252602082015260400190565b600060208252620011fc6020830184620018a7565b60208082526026908201527f4f776e61626c653a206e6577206f776e657220697320746865207a65726f206160408201526564647265737360d01b606082015260800190565b6020808252601b908201527f536166654d6174683a206164646974696f6e206f766572666c6f770000000000604082015260600190565b60208082526045908201527f53776170207061697220737570706c69656420646f6573206e6f74206861766560408201527f207468652072657761726420746f6b656e206173206f6e65206f662069742773606082015264103830b4b960d91b608082015260a00190565b60208082526029908201527f5377617020706169722030206973206e656365737361727920627574206e6f74604082015268081cdd5c1c1b1a595960ba1b606082015260800190565b60208082526021908201527f536166654d6174683a206d756c7469706c69636174696f6e206f766572666c6f6040820152607760f81b606082015260800190565b6020808252818101527f4f776e61626c653a2063616c6c6572206973206e6f7420746865206f776e6572604082015260600190565b60208082526015908201527f57726f6e67207a617020746f6b656e20696e6465780000000000000000000000604082015260600190565b60208082526014908201527f59616b53747261746567793a3a6f6e6c79446576000000000000000000000000604082015260600190565b6020808252818101527f4465784c6962726172793a3a5452414e534645525f46524f4d5f4641494c4544604082015260600190565b90815260200190565b600085825284602083015260018060a01b03841660408301526080606083015262001c336080830184620018a7565b9695505050505050565b6040518181016001600160401b038111828210171562001c5957fe5b604052919050565b60005b8381101562001c7e57818101518382015260200162001c64565b838111156200187c5750506000910152565b6147438062001ca06000396000f3fe608060405234801561001057600080fd5b506004361061038e5760003560e01c80638b73e606116101de578063c4b24a461161010f578063dd8ce4d6116100ad578063ee99205c1161007c578063ee99205c146106d9578063f2fde38b146106e1578063f7c618c1146106f4578063fdb5a03e146106fc5761038e565b8063dd8ce4d614610698578063e21ac825146106ab578063eab89a5a146106be578063ed24911d146106d15761038e565b8063d505accf116100e9578063d505accf14610662578063da09c72c14610675578063dbd9a4d41461067d578063dd62ed3e146106855761038e565b8063c4b24a461461063f578063c89039c514610647578063cff1b6ef1461064f5761038e565b8063a9059cbb1161017c578063b52a321f11610156578063b52a321f14610614578063b6b55f251461061c578063b9e57b801461062f578063bd079f55146106375761038e565b8063a9059cbb146105db578063abff1963146105ee578063ac0d31ff146106015761038e565b806395d89b41116101b857806395d89b41146105a557806399729ec1146105ad5780639e4e7318146105c0578063a8ae2b7c146105c85761038e565b80638b73e6061461056a5780638da5cb5b1461057d5780639291d563146105925761038e565b80634a970be7116102c3578063715018a6116102615780637ecebe00116102305780637ecebe0014610529578063818372301461053c5780638980f11f1461054f5780638aff733d146105625761038e565b8063715018a6146104fe578063789139bc146105065780637ae267731461050e5780637d882097146105215761038e565b80634ebb79161161029d5780634ebb7916146104bd5780635ea682ea146104d05780636687039c146104d857806370a08231146104eb5761038e565b80634a970be7146104845780634bebd1e7146104975780634e77ace5146104aa5761038e565b806323b872dd1161033057806330adf81f1161030a57806330adf81f1461044c578063313ce567146104545780633bdc6e7214610469578063483c2ef0146104715761038e565b806323b872dd146104135780632e1a7d4d146104265780632f4f21e2146104395761038e565b80630f23475d1161036c5780630f23475d146103e657806318160ddd146103ee57806320606b70146103f6578063231f9a04146103fe5761038e565b806306fdde031461039357806307677111146103b1578063095ea7b3146103c6575b600080fd5b61039b610704565b6040516103a89190613f3e565b60405180910390f35b6103b9610792565b6040516103a89190613eb7565b6103d96103d4366004613a89565b610798565b6040516103a89190613eac565b6103b96107af565b6103b9610836565b6103b961083c565b61041161040c36600461396c565b610860565b005b6103d96104213660046139dc565b6108c2565b610411610434366004613bb6565b6109a9565b610411610447366004613a89565b610a35565b6103b9610a3f565b61045c610a63565b6040516103a89190614631565b6103b9610a68565b6103d961047f36600461396c565b610a6e565b610411610492366004613c0a565b610a83565b6104116104a536600461396c565b610b1b565b6104116104b8366004613ab4565b610bff565b6104116104cb366004613bb6565b610c9d565b6103b9610d49565b6103b96104e636600461396c565b610d4f565b6103b96104f936600461396c565b6113de565b6104116113f9565b6103b961148f565b61041161051c3660046139a4565b611495565b6103b961155e565b6103b961053736600461396c565b611564565b61041161054a366004613bb6565b611576565b61041161055d366004613a89565b6115f5565b6103b9611707565b61041161057836600461396c565b61170d565b610585611813565b6040516103a89190613d87565b6104116105a036600461396c565b611822565b61039b6118c2565b6104116105bb366004613bb6565b61191c565b6103b96119ca565b6104116105d6366004613bb6565b6119ee565b6103d96105e9366004613a89565b611a96565b6104116105fc366004613bb6565b611aa3565b61041161060f366004613be6565b611ad2565b6103d9611d86565b61041161062a366004613bb6565b611d8f565b6103b9611d9c565b6103b9611ddd565b6103b9611de3565b610585611e37565b61041161065d366004613bb6565b611e46565b610411610670366004613a1c565b611eee565b610585611fa3565b610411611fb2565b6103b96106933660046139a4565b61210b565b6103b96106a6366004613bb6565b612136565b6104116106b9366004613bb6565b612175565b6103b96106cc366004613bb6565b6121f4565b6103b9612234565b6105856122cb565b6104116106ef36600461396c565b6122da565b6105856123a8565b6104116123b7565b6000805460408051602060026001851615610100026000190190941693909304601f8101849004840282018401909252818152929183018282801561078a5780601f1061075f5761010080835404028352916020019161078a565b820191906000526020600020905b81548152906001019060200180831161076d57829003601f168201915b505050505081565b60115481565b60006107a5338484612a9e565b5060015b92915050565b6013546040516370a0823160e01b81526000916001600160a01b0316906370a08231906107e0903090600401613d87565b60206040518083038186803b1580156107f857600080fd5b505afa15801561080c573d6000803e3d6000fd5b505050506040513d601f19601f820116820180604052508101906108309190613bce565b90505b90565b60025481565b7f8b73c3c69bb8fe3d512ecc4cf759cc79239f7b179b0ffacaa9a75d522b39400f81565b600c546001600160a01b031633146108935760405162461bcd60e51b815260040161088a9061443b565b60405180910390fd5b6015805473ffffffffffffffffffffffffffffffffffffffff19166001600160a01b0392909216919091179055565b6001600160a01b0383166000818152600360209081526040808320338085529252822054919290919082148015906108fc57506000198114155b15610992576000610928856040518060600160405280602f815260200161468a602f9139849190612b52565b6001600160a01b03808916600081815260036020908152604080832094891680845294909152908190208490555192935090917f8c5be1e5ebec7d5bd14f71427d1e84f3dd0314c0f7b2291e5b200ac8c7c3b92590610988908590613eb7565b60405180910390a3505b61099d868686612b7e565b50600195945050505050565b60006109b4826121f4565b90508015610a31576109c581612c62565b600a546109dc906001600160a01b03163383612cf9565b6109e63383612d95565b6009546109f39082612a37565b60095560405133907f884edad9ce6fa2440d8a54cc123490eb96d2768479d49ff9c7366125a942436490610a28908490613eb7565b60405180910390a25b5050565b610a318282612e6f565b7f6e71edae12b1b97f4d1f60370fef10105fa2faae0126114a169c64845d6126c981565b601281565b60075481565b60086020526000908152604090205460ff1681565b600a546040517fd505accf0000000000000000000000000000000000000000000000000000000081526001600160a01b039091169063d505accf90610ad890339030908a908a908a908a908a90600401613dbf565b600060405180830381600087803b158015610af257600080fd5b505af1158015610b06573d6000803e3d6000fd5b50505050610b143386612e6f565b5050505050565b610b2361301d565b6001600160a01b0316610b34611813565b6001600160a01b031614610b5a5760405162461bcd60e51b815260040161088a90614315565b6001600160a01b03811660009081526008602052604090205460ff1615610b935760405162461bcd60e51b815260040161088a90614190565b6001600160a01b0381166000908152600860205260409020805460ff19166001908117909155600754610bc591612a79565b6007556040516001600160a01b038216907fc0a1035c16faf8d1304056d92c00edf028f87e62b8235a938f00af9e3c0312c590600090a250565b610c0761301d565b6001600160a01b0316610c18611813565b6001600160a01b031614610c3e5760405162461bcd60e51b815260040161088a90614315565b600f5460ff1615158115151415610c5457600080fd5b600f805460ff19168215151790556040517f7b014ed3854e7f5cb0218d58b3c6ae7d53a68bb0af2f67bfb029ea42c38a7e8590610c92908390613eac565b60405180910390a150565b610ca561301d565b6001600160a01b0316610cb6611813565b6001600160a01b031614610cdc5760405162461bcd60e51b815260040161088a90614315565b60008111610ce957600080fd5b604051339082156108fc029083906000818181858888f19350505050158015610d16573d6000803e3d6000fd5b507f8c1256b8896378cd5044f80c202f9772b9d77dc85c8a6eb51967210b09bfaa28600082604051610c92929190613e00565b60125481565b6013546040516370a0823160e01b815260009182916001600160a01b03909116906370a0823190610d84903090600401613d87565b60206040518083038186803b158015610d9c57600080fd5b505afa158015610db0573d6000803e3d6000fd5b505050506040513d601f19601f82011682018060405250810190610dd49190613bce565b90506000601360009054906101000a90046001600160a01b03166001600160a01b031663bf88a6ff6040518163ffffffff1660e01b815260040160206040518083038186803b158015610e2657600080fd5b505afa158015610e3a573d6000803e3d6000fd5b505050506040513d601f19601f82011682018060405250810190610e5e9190613988565b6001600160a01b031663629d46c26040518163ffffffff1660e01b815260040160206040518083038186803b158015610e9657600080fd5b505afa158015610eaa573d6000803e3d6000fd5b505050506040513d601f19601f82011682018060405250810190610ece9190613bce565b9050610ed86138c0565b601360009054906101000a90046001600160a01b03166001600160a01b031663bf88a6ff6040518163ffffffff1660e01b815260040160206040518083038186803b158015610f2657600080fd5b505afa158015610f3a573d6000803e3d6000fd5b505050506040513d601f19601f82011682018060405250810190610f5e9190613988565b6001600160a01b03166348e9c65e866040518263ffffffff1660e01b8152600401610f899190613d87565b60c06040518083038186803b158015610fa157600080fd5b505afa158015610fb5573d6000803e3d6000fd5b505050506040513d601f19601f82011682018060405250810190610fd99190613aec565b6013546040516370a0823160e01b81529192506000916001600160a01b03888116926370a08231926110119290911690600401613d87565b60206040518083038186803b15801561102957600080fd5b505afa15801561103d573d6000803e3d6000fd5b505050506040513d601f19601f820116820180604052508101906110619190613bce565b60408301519091504284900302600061107a8383612a79565b905060006111ba601360009054906101000a90046001600160a01b03166001600160a01b03166318160ddd6040518163ffffffff1660e01b815260040160206040518083038186803b1580156110cf57600080fd5b505afa1580156110e3573d6000803e3d6000fd5b505050506040513d601f19601f820116820180604052508101906111079190613bce565b6111b46111a5601360009054906101000a90046001600160a01b03166001600160a01b031663fe9e21788e6040518263ffffffff1660e01b815260040161114e9190613d87565b60206040518083038186803b15801561116657600080fd5b505afa15801561117a573d6000803e3d6000fd5b505050506040513d601f19601f8201168201806040525081019061119e9190613bce565b8690612a37565b678ac7230489e80000906129b4565b906129f5565b6013546040517f73861fb300000000000000000000000000000000000000000000000000000000815291925060009183916001600160a01b0316906373861fb390611209908e90600401613d87565b60206040518083038186803b15801561122157600080fd5b505afa158015611235573d6000803e3d6000fd5b505050506040513d601f19601f820116820180604052508101906112599190613bce565b6013546040517ff05cc0580000000000000000000000000000000000000000000000000000000081529190920192506000916001600160a01b03169063f05cc058906112ab908e903090600401613e19565b60206040518083038186803b1580156112c357600080fd5b505afa1580156112d7573d6000803e3d6000fd5b505050506040513d601f19601f820116820180604052508101906112fb9190613bce565b905060008282101561132a57611327678ac7230489e800006111b46113208686612a37565b8d906129b4565b90505b6000601360009054906101000a90046001600160a01b03166001600160a01b03166333fd6f74308f6040518363ffffffff1660e01b815260040161136f929190613e19565b60206040518083038186803b15801561138757600080fd5b505afa15801561139b573d6000803e3d6000fd5b505050506040513d601f19601f820116820180604052508101906113bf9190613bce565b90506113cb8183612a79565b9b5050505050505050505050505b919050565b6001600160a01b031660009081526004602052604090205490565b61140161301d565b6001600160a01b0316611412611813565b6001600160a01b0316146114385760405162461bcd60e51b815260040161088a90614315565b6006546040516000916001600160a01b0316907f8be0079c531659141344cd1fd0a4f28419497f9722a3daafe3b4186f6b6457e0908390a36006805473ffffffffffffffffffffffffffffffffffffffff19169055565b600e5481565b61149d61301d565b6001600160a01b03166114ae611813565b6001600160a01b0316146114d45760405162461bcd60e51b815260040161088a90614315565b60405163095ea7b360e01b81526001600160a01b0383169063095ea7b390611503908490600090600401613e00565b602060405180830381600087803b15801561151d57600080fd5b505af1158015611531573d6000803e3d6000fd5b505050506040513d601f19601f820116820180604052508101906115559190613ad0565b610a3157600080fd5b60095481565b60056020526000908152604090205481565b61157e61301d565b6001600160a01b031661158f611813565b6001600160a01b0316146115b55760405162461bcd60e51b815260040161088a90614315565b7f481f79ac3a523b6d6db3c5a720e190e986d1cc1b41adcdf50f9caef849901100600d54826040516115e89291906145f5565b60405180910390a1600d55565b6115fd61301d565b6001600160a01b031661160e611813565b6001600160a01b0316146116345760405162461bcd60e51b815260040161088a90614315565b6000811161164157600080fd5b60405163a9059cbb60e01b81526001600160a01b0383169063a9059cbb9061166f9033908590600401613e00565b602060405180830381600087803b15801561168957600080fd5b505af115801561169d573d6000803e3d6000fd5b505050506040513d601f19601f820116820180604052508101906116c19190613ad0565b6116ca57600080fd5b7f8c1256b8896378cd5044f80c202f9772b9d77dc85c8a6eb51967210b09bfaa2882826040516116fb929190613e00565b60405180910390a15050565b60105481565b61171561301d565b6001600160a01b0316611726611813565b6001600160a01b03161461174c5760405162461bcd60e51b815260040161088a90614315565b60006007541161176e5760405162461bcd60e51b815260040161088a906140d6565b6001600160a01b03811660009081526008602052604090205460ff1615156001146117ab5760405162461bcd60e51b815260040161088a906141fe565b6001600160a01b0381166000908152600860205260409020805460ff191690556007546117d9906001612a37565b6007556040516001600160a01b038216907f0e86f6608b536e5339a25b65ff531f5ea91e1313d056ecd4752b35cbd16137d490600090a250565b6006546001600160a01b031690565b600c546001600160a01b0316331461184c5760405162461bcd60e51b815260040161088a9061443b565b600c546040517fa8e91499ed37682f43cffb045fcc7d379a91e8c9a14e6321877ee34dee564c009161188b916001600160a01b03909116908490613e19565b60405180910390a1600c805473ffffffffffffffffffffffffffffffffffffffff19166001600160a01b0392909216919091179055565b60018054604080516020600284861615610100026000190190941693909304601f8101849004840282018401909252818152929183018282801561078a5780601f1061075f5761010080835404028352916020019161078a565b61192461301d565b6001600160a01b0316611935611813565b6001600160a01b03161461195b5760405162461bcd60e51b815260040161088a90614315565b61271061197f60105461197960115485612a7990919063ffffffff16565b90612a79565b111561198a57600080fd5b7f2a42303d002f0ba6cfe8259c91d4684443fb0b3de286ba74991175d651726131601254826040516119bd9291906145f5565b60405180910390a1601255565b7fc89efdaa54c0f20c7adf612882df0950f5a951637e0307cdcb4c672f298b8bc681565b6119f661301d565b6001600160a01b0316611a07611813565b6001600160a01b031614611a2d5760405162461bcd60e51b815260040161088a90614315565b612710611a4b60125461197960115485612a7990919063ffffffff16565b1115611a5657600080fd5b7fe7f97d51d307dc44045597c9978bec0f842e6bb40d19b9444084cfa30d9ed4f260105482604051611a899291906145f5565b60405180910390a1601055565b60006107a5338484612b7e565b600c546001600160a01b03163314611acd5760405162461bcd60e51b815260040161088a9061443b565b601955565b611ada61301d565b6001600160a01b0316611aeb611813565b6001600160a01b031614611b115760405162461bcd60e51b815260040161088a90614315565b600a546040516370a0823160e01b81526000916001600160a01b0316906370a0823190611b42903090600401613d87565b60206040518083038186803b158015611b5a57600080fd5b505afa158015611b6e573d6000803e3d6000fd5b505050506040513d601f19601f82011682018060405250810190611b929190613bce565b6013546040516370a0823160e01b81529192506001600160a01b031690632e1a7d4d9082906370a0823190611bcb903090600401613d87565b60206040518083038186803b158015611be357600080fd5b505afa158015611bf7573d6000803e3d6000fd5b505050506040513d601f19601f82011682018060405250810190611c1b9190613bce565b6040518263ffffffff1660e01b8152600401611c379190613eb7565b600060405180830381600087803b158015611c5157600080fd5b505af1158015611c65573d6000803e3d6000fd5b5050600a546040516370a0823160e01b8152600093506001600160a01b0390911691506370a0823190611c9c903090600401613d87565b60206040518083038186803b158015611cb457600080fd5b505afa158015611cc8573d6000803e3d6000fd5b505050506040513d601f19601f82011682018060405250810190611cec9190613bce565b905083611cf98284612a37565b1015611d175760405162461bcd60e51b815260040161088a90614472565b60098190556002546040517fc7606d21ac05cd309191543e409f0845c016120563783d70e4f41419dc0ef23491611d50918491906145f5565b60405180910390a1600f5460ff1615156001148015611d7157506001831515145b15611d8057611d806000610bff565b50505050565b600f5460ff1681565b611d993382612e6f565b50565b600080611da7611de3565b9050600d548110611dd557611dcd6127106111b4601054846129b490919063ffffffff16565b915050610833565b600091505090565b600d5481565b600080611e0373b31f66aa3c1e785363f0875a1b74e27b85fd66c7610d4f565b90506000611e2473249848beca43ac405b8102ec90dd5f22ca513c06610d4f565b9050611e308282613021565b9250505090565b600a546001600160a01b031681565b611e4e61301d565b6001600160a01b0316611e5f611813565b6001600160a01b031614611e855760405162461bcd60e51b815260040161088a90614315565b612710611ea360105461197960125485612a7990919063ffffffff16565b1115611eae57600080fd5b7f3cc372f330f95ac9540626dc8a25f5bf21ba607215a5d58304cb804d446f104a60115482604051611ee19291906145f5565b60405180910390a1601155565b42841015611f0e5760405162461bcd60e51b815260040161088a906141c7565b6001600160a01b03871660009081526005602090815260408083208054600181019091559051611f69927f6e71edae12b1b97f4d1f60370fef10105fa2faae0126114a169c64845d6126c9928c928c928c92918c9101613ec0565b604051602081830303815290604052805190602001209050611f8e888286868661308f565b611f99888888612a9e565b5050505050505050565b600c546001600160a01b031681565b611fba61301d565b6001600160a01b0316611fcb611813565b6001600160a01b031614611ff15760405162461bcd60e51b815260040161088a90614315565b600a5460135460405163095ea7b360e01b81526001600160a01b039283169263095ea7b3926120299291169060001990600401613e00565b602060405180830381600087803b15801561204357600080fd5b505af1158015612057573d6000803e3d6000fd5b505050506040513d601f19601f8201168201806040525081019061207b9190613ad0565b5060165460175460405163095ea7b360e01b81526001600160a01b0361010090930483169263095ea7b3926120b99291169060001990600401613e00565b602060405180830381600087803b1580156120d357600080fd5b505af11580156120e7573d6000803e3d6000fd5b505050506040513d601f19601f82011682018060405250810190611d999190613ad0565b6001600160a01b03918216600090815260036020908152604080832093909416825291909152205490565b600061214f6009546002546129b490919063ffffffff16565b61215a5750806113d9565b6107a96009546111b4600254856129b490919063ffffffff16565b61217d61301d565b6001600160a01b031661218e611813565b6001600160a01b0316146121b45760405162461bcd60e51b815260040161088a90614315565b7fa5dae50539d56dfe1fb5273d883b0c39bc76750a25d036fc5fbd09ad8fd5f57f600e54826040516121e79291906145f5565b60405180910390a1600e55565b600061220d6009546002546129b490919063ffffffff16565b612219575060006113d9565b6107a96002546111b4600954856129b490919063ffffffff16565b60007f8b73c3c69bb8fe3d512ecc4cf759cc79239f7b179b0ffacaa9a75d522b39400f60001b60006040516122699190613ce1565b6040519081900390207fc89efdaa54c0f20c7adf612882df0950f5a951637e0307cdcb4c672f298b8bc661229b613165565b306040516020016122b0959493929190613ef4565b60405160208183030381529060405280519060200120905090565b6013546001600160a01b031681565b6122e261301d565b6001600160a01b03166122f3611813565b6001600160a01b0316146123195760405162461bcd60e51b815260040161088a90614315565b6001600160a01b03811661233f5760405162461bcd60e51b815260040161088a90613f51565b6006546040516001600160a01b038084169216907f8be0079c531659141344cd1fd0a4f28419497f9722a3daafe3b4186f6b6457e090600090a36006805473ffffffffffffffffffffffffffffffffffffffff19166001600160a01b0392909216919091179055565b600b546001600160a01b031681565b3233146123d65760405162461bcd60e51b815260040161088a90613fae565b6000806123e1613169565b9150915060006123f18383613021565b9050600d548110156124155760405162461bcd60e51b815260040161088a90613fe5565b61241f83836133ce565b505050565b601654601454600091829161246291859173b31f66aa3c1e785363f0875a1b74e27b85fd66c7916001600160a01b0361010090910481169116612813565b905061246c6138ff565b604051806060016040528060008152602001600081526020016000815250905081816016600201546003811061249e57fe5b60200201526017546040517f3883e1190000000000000000000000000000000000000000000000000000000081526000916001600160a01b031690633883e119906124f0908590600190600401613e33565b60206040518083038186803b15801561250857600080fd5b505afa15801561251c573d6000803e3d6000fd5b505050506040513d601f19601f820116820180604052508101906125409190613bce565b905060006125626127106111b4601660030154856129b490919063ffffffff16565b6017549091506001600160a01b0316632b6e993a846125818585612a37565b60016040518463ffffffff1660e01b81526004016125a193929190613e50565b602060405180830381600087803b1580156125bb57600080fd5b505af11580156125cf573d6000803e3d6000fd5b505050506040513d601f19601f820116820180604052508101906125f39190613bce565b9695505050505050565b601654601454600091829161263b91859173b31f66aa3c1e785363f0875a1b74e27b85fd66c7916001600160a01b0361010090910481169116612813565b905061264561391d565b6040518060a00160405280600081526020016000815260200160008152602001600081526020016000815250905081816016600201546005811061268557fe5b60200201526017546040517f7ede89c50000000000000000000000000000000000000000000000000000000081526000916001600160a01b031690637ede89c5906126d7908590600190600401613e74565b60206040518083038186803b1580156126ef57600080fd5b505afa158015612703573d6000803e3d6000fd5b505050506040513d601f19601f820116820180604052508101906127279190613bce565b905060006127496127106111b4601660030154856129b490919063ffffffff16565b6017549091506001600160a01b03166384738499846127688585612a37565b6040518363ffffffff1660e01b8152600401612785929190613e91565b600060405180830381600087803b15801561279f57600080fd5b505af11580156127b3573d6000803e3d6000fd5b5050600a546040516370a0823160e01b81526001600160a01b0390911692506370a0823191506127e7903090600401613d87565b60206040518083038186803b1580156127ff57600080fd5b505afa1580156125cf573d6000803e3d6000fd5b6000806128208585613548565b509050600080846001600160a01b0316630902f1ac6040518163ffffffff1660e01b815260040160606040518083038186803b15801561285f57600080fd5b505afa158015612873573d6000803e3d6000fd5b505050506040513d601f19601f820116820180604052508101906128979190613b68565b5091509150866001600160a01b0316836001600160a01b0316146128b757905b6000806128e58a856dffffffffffffffffffffffffffff16856dffffffffffffffffffffffffffff16613579565b9050886001600160a01b0316856001600160a01b03161461290257905b61290d89888c6135c1565b604080516000815260208101918290527f022c0d9f000000000000000000000000000000000000000000000000000000009091526001600160a01b0388169063022c0d9f906129659085908590309060248101614603565b600060405180830381600087803b15801561297f57600080fd5b505af1158015612993573d6000803e3d6000fd5b505050508181116129a457816129a6565b805b9a9950505050505050505050565b6000826129c3575060006107a9565b828202828482816129d057fe5b04146129ee5760405162461bcd60e51b815260040161088a906142b8565b9392505050565b60006129ee83836040518060400160405280601a81526020017f536166654d6174683a206469766973696f6e206279207a65726f00000000000081525061365d565b60006129ee83836040518060400160405280601f81526020017f536166654d6174683a207375627472616374696f6e20756e646572666c6f7700815250612b52565b6000828201838110156129ee5760405162461bcd60e51b815260040161088a90614042565b6001600160a01b038316612ac45760405162461bcd60e51b815260040161088a906143a7565b6001600160a01b038216612aea5760405162461bcd60e51b815260040161088a9061452c565b6001600160a01b0380841660008181526003602090815260408083209487168084529490915290819020849055517f8c5be1e5ebec7d5bd14f71427d1e84f3dd0314c0f7b2291e5b200ac8c7c3b92590612b45908590613eb7565b60405180910390a3505050565b60008184841115612b765760405162461bcd60e51b815260040161088a9190613f3e565b505050900390565b6001600160a01b038216612ba45760405162461bcd60e51b815260040161088a906143de565b612be1816040518060600160405280602e81526020016146e0602e91396001600160a01b0386166000908152600460205260409020549190612b52565b6001600160a01b038085166000908152600460205260408082209390935590841681522054612c109082612a79565b6001600160a01b0380841660008181526004602052604090819020939093559151908516907fddf252ad1be2c89b69c2b068fc378daa952ba7f163c4a11628f55a4df523b3ef90612b45908590613eb7565b60008111612c825760405162461bcd60e51b815260040161088a906144cf565b6013546040517f2e1a7d4d0000000000000000000000000000000000000000000000000000000081526001600160a01b0390911690632e1a7d4d90612ccb908490600401613eb7565b600060405180830381600087803b158015612ce557600080fd5b505af1158015610b14573d6000803e3d6000fd5b60405163a9059cbb60e01b81526001600160a01b0384169063a9059cbb90612d279085908590600401613e00565b602060405180830381600087803b158015612d4157600080fd5b505af1158015612d55573d6000803e3d6000fd5b505050506040513d601f19601f82011682018060405250810190612d799190613ad0565b61241f5760405162461bcd60e51b815260040161088a9061434a565b612dd2816040518060600160405280602781526020016146b9602791396001600160a01b0385166000908152600460205260409020549190612b52565b60046000846001600160a01b03166001600160a01b0316815260200190815260200160002081905550612e2281604051806060016040528060278152602001614663602791396002549190612b52565b6002556040516000906001600160a01b038416907fddf252ad1be2c89b69c2b068fc378daa952ba7f163c4a11628f55a4df523b3ef90612e63908590613eb7565b60405180910390a35050565b60075415612eab573360009081526008602052604090205460ff161515600114612eab5760405162461bcd60e51b815260040161088a90614079565b600f5460ff161515600114612ed25760405162461bcd60e51b815260040161088a90614563565b600e5415612f0f57600080612ee5613169565b915091506000612ef58383613021565b9050600e54811115612f0b57612f0b83836133ce565b5050505b600a546040517f23b872dd0000000000000000000000000000000000000000000000000000000081526001600160a01b03909116906323b872dd90612f5c90339030908690600401613d9b565b602060405180830381600087803b158015612f7657600080fd5b505af1158015612f8a573d6000803e3d6000fd5b505050506040513d601f19601f82011682018060405250810190612fae9190613ad0565b612fb757600080fd5b612fc081613694565b612fd282612fcd83612136565b6136fd565b600954612fdf9082612a79565b6009556040516001600160a01b038316907fe1fffcc4923d04b559f4d29a8bfc6cda04eb5b0d3c460751c2402c5c5cc9109c90610a28908490613eb7565b3390565b60155460009081906001600160a01b03161561307d5760155461307a90849073249848beca43ac405b8102ec90dd5f22ca513c069073b31f66aa3c1e785363f0875a1b74e27b85fd66c7906001600160a01b031661377f565b90505b6130878482612a79565b949350505050565b6000613099612234565b856040516020016130ab929190613d51565b6040516020818303038152906040528051906020012090506000600182868686604051600081526020016040526040516130e89493929190613f20565b6020604051602081039080840390855afa15801561310a573d6000803e3d6000fd5b5050604051601f1901519150506001600160a01b038116158015906131405750866001600160a01b0316816001600160a01b0316145b61315c5760405162461bcd60e51b815260040161088a90614133565b50505050505050565b4690565b600080601360009054906101000a90046001600160a01b03166001600160a01b031663bf88a6ff6040518163ffffffff1660e01b815260040160206040518083038186803b1580156131ba57600080fd5b505afa1580156131ce573d6000803e3d6000fd5b505050506040513d601f19601f820116820180604052508101906131f29190613988565b6001600160a01b0316631afe22a66040518163ffffffff1660e01b8152600401600060405180830381600087803b15801561322c57600080fd5b505af1158015613240573d6000803e3d6000fd5b50505050601360009054906101000a90046001600160a01b03166001600160a01b031663e6f1daf26040518163ffffffff1660e01b8152600401600060405180830381600087803b15801561329457600080fd5b505af11580156132a8573d6000803e3d6000fd5b50506040516370a0823160e01b81526000925073b31f66aa3c1e785363f0875a1b74e27b85fd66c791506370a08231906132e6903090600401613d87565b60206040518083038186803b1580156132fe57600080fd5b505afa158015613312573d6000803e3d6000fd5b505050506040513d601f19601f820116820180604052508101906133369190613bce565b6040516370a0823160e01b815290915060009073249848beca43ac405b8102ec90dd5f22ca513c06906370a0823190613373903090600401613d87565b60206040518083038186803b15801561338b57600080fd5b505afa15801561339f573d6000803e3d6000fd5b505050506040513d601f19601f820116820180604052508101906133c39190613bce565b919350909150509091565b60006133e36133dc8361385a565b8490612a79565b905060006134026127106111b4601254856129b490919063ffffffff16565b9050801561342757600b54600c54613427916001600160a01b03908116911683612cf9565b60006134446127106111b4601154866129b490919063ffffffff16565b9050801561346a57600b5461346a906001600160a01b0316613464611813565b83612cf9565b60006134876127106111b4601054876129b490919063ffffffff16565b905080156134a657600b546134a6906001600160a01b03163383612cf9565b60006134e76134c1836134bb86818a8a612a37565b90612a37565b601560149054906101000a9004801561393b021767ffffffffffffffff1663ffffffff16565b90506134f281613694565b6009546134ff9082612a79565b60098190556002546040517fc7606d21ac05cd309191543e409f0845c016120563783d70e4f41419dc0ef234926135379290916145f5565b60405180910390a150505050505050565b600080826001600160a01b0316846001600160a01b03161061356b57828461356e565b83835b915091509250929050565b600080613588856103e56129b4565b9050600061359682856129b4565b905060006135aa83611979886103e86129b4565b90506135b682826129f5565b979650505050505050565b60405163a9059cbb60e01b81526001600160a01b0384169063a9059cbb906135ef9085908590600401613e00565b602060405180830381600087803b15801561360957600080fd5b505af115801561361d573d6000803e3d6000fd5b505050506040513d601f19601f820116820180604052508101906136419190613ad0565b61241f5760405162461bcd60e51b815260040161088a906145c0565b6000818361367e5760405162461bcd60e51b815260040161088a9190613f3e565b50600083858161368a57fe5b0495945050505050565b600081116136b45760405162461bcd60e51b815260040161088a9061425b565b6013546040517fb6b55f250000000000000000000000000000000000000000000000000000000081526001600160a01b039091169063b6b55f2590612ccb908490600401613eb7565b60025461370a9082612a79565b6002556001600160a01b0382166000908152600460205260409020546137309082612a79565b6001600160a01b0383166000818152600460205260408082209390935591519091907fddf252ad1be2c89b69c2b068fc378daa952ba7f163c4a11628f55a4df523b3ef90612e63908590613eb7565b60008061378c8585613548565b509050600080846001600160a01b0316630902f1ac6040518163ffffffff1660e01b815260040160606040518083038186803b1580156137cb57600080fd5b505afa1580156137df573d6000803e3d6000fd5b505050506040513d601f19601f820116820180604052508101906138039190613b68565b5091509150866001600160a01b0316836001600160a01b03161461382357905b61384e88836dffffffffffffffffffffffffffff16836dffffffffffffffffffffffffffff16613579565b98975050505050505050565b6015546000906001600160a01b0316156138b8576015546138b190839073249848beca43ac405b8102ec90dd5f22ca513c069073b31f66aa3c1e785363f0875a1b74e27b85fd66c7906001600160a01b0316612813565b90506113d9565b506000919050565b6040518060c0016040528060006001600160a01b0316815260200160008152602001600081526020016000815260200160008152602001600081525090565b60405180606001604052806003906020820280368337509192915050565b6040518060a001604052806005906020820280368337509192915050565bfe5b80516dffffffffffffffffffffffffffff811681146113d957600080fd5b803560ff811681146113d957600080fd5b60006020828403121561397d578081fd5b81356129ee8161463f565b600060208284031215613999578081fd5b81516129ee8161463f565b600080604083850312156139b6578081fd5b82356139c18161463f565b915060208301356139d18161463f565b809150509250929050565b6000806000606084860312156139f0578081fd5b83356139fb8161463f565b92506020840135613a0b8161463f565b929592945050506040919091013590565b600080600080600080600060e0888a031215613a36578283fd5b8735613a418161463f565b96506020880135613a518161463f565b95506040880135945060608801359350613a6d6080890161395b565b925060a0880135915060c0880135905092959891949750929550565b60008060408385031215613a9b578182fd5b8235613aa68161463f565b946020939093013593505050565b600060208284031215613ac5578081fd5b81356129ee81614654565b600060208284031215613ae1578081fd5b81516129ee81614654565b600060c08284031215613afd578081fd5b60405160c0810181811067ffffffffffffffff82111715613b1a57fe5b6040528251613b288161463f565b808252506020830151602082015260408301516040820152606083015160608201526080830151608082015260a083015160a08201528091505092915050565b600080600060608486031215613b7c578283fd5b613b858461393d565b9250613b936020850161393d565b9150604084015163ffffffff81168114613bab578182fd5b809150509250925092565b600060208284031215613bc7578081fd5b5035919050565b600060208284031215613bdf578081fd5b5051919050565b60008060408385031215613bf8578182fd5b8235915060208301356139d181614654565b600080600080600060a08688031215613c21578283fd5b8535945060208601359350613c386040870161395b565b94979396509394606081013594506080013592915050565b8060005b6003811015611d80578151845260209384019390910190600101613c54565b8060005b6005811015611d80578151845260209384019390910190600101613c77565b60008151808452815b81811015613cbb57602081850181015186830182015201613c9f565b81811115613ccc5782602083870101525b50601f01601f19169290920160200192915050565b6000808354600180821660008114613d005760018114613d1757613d46565b60ff198316865260028304607f1686019350613d46565b600283048786526020808720875b83811015613d3e5781548a820152908501908201613d25565b505050860193505b509195945050505050565b7f190100000000000000000000000000000000000000000000000000000000000081526002810192909252602282015260420190565b6001600160a01b0391909116815260200190565b6001600160a01b039384168152919092166020820152604081019190915260600190565b6001600160a01b0397881681529590961660208601526040850193909352606084019190915260ff16608083015260a082015260c081019190915260e00190565b6001600160a01b03929092168252602082015260400190565b6001600160a01b0392831681529116602082015260400190565b60808101613e418285613c50565b82151560608301529392505050565b60a08101613e5e8286613c50565b8360608301528215156080830152949350505050565b60c08101613e828285613c73565b82151560a08301529392505050565b60c08101613e9f8285613c73565b8260a08301529392505050565b901515815260200190565b90815260200190565b9586526001600160a01b0394851660208701529290931660408501526060840152608083019190915260a082015260c00190565b9485526020850193909352604084019190915260608301526001600160a01b0316608082015260a00190565b93845260ff9290921660208401526040830152606082015260800190565b6000602082526129ee6020830184613c96565b60208082526026908201527f4f776e61626c653a206e6577206f776e657220697320746865207a65726f206160408201527f6464726573730000000000000000000000000000000000000000000000000000606082015260800190565b60208082526014908201527f59616b53747261746567793a3a6f6e6c79454f41000000000000000000000000604082015260600190565b60208082526022908201527f43757276655374726174656779466f7241763343525656313a3a7265696e766560408201527f7374000000000000000000000000000000000000000000000000000000000000606082015260800190565b6020808252601b908201527f536166654d6174683a206164646974696f6e206f766572666c6f770000000000604082015260600190565b6020808252602e908201527f5065726d697373696f6e65643a3a6f6e6c79416c6c6f7765644465706f73697460408201527f732c206e6f7420616c6c6f776564000000000000000000000000000000000000606082015260800190565b60208082526034908201527f5065726d697373696f6e65643a3a72656d6f76654465706f7369746f722c206e60408201527f6f20616c6c6f776564206465706f7369746f7273000000000000000000000000606082015260800190565b60208082526024908201527f417263683a3a76616c69646174655369673a20696e76616c6964207369676e6160408201527f7475726500000000000000000000000000000000000000000000000000000000606082015260800190565b6020808252601c908201527f5065726d697373696f6e65643a3a616c6c6f774465706f7369746f7200000000604082015260600190565b6020808252600f908201527f7065726d69743a3a657870697265640000000000000000000000000000000000604082015260600190565b6020808252602a908201527f5065726d697373696f6e65643a3a72656d6f76654465706f7369746f722c206e60408201527f6f7420616c6c6f77656400000000000000000000000000000000000000000000606082015260800190565b6020808252602d908201527f43757276655374726174656779466f7241763343525656313a3a5f7374616b6560408201527f4465706f736974546f6b656e7300000000000000000000000000000000000000606082015260800190565b60208082526021908201527f536166654d6174683a206d756c7469706c69636174696f6e206f766572666c6f60408201527f7700000000000000000000000000000000000000000000000000000000000000606082015260800190565b6020808252818101527f4f776e61626c653a2063616c6c6572206973206e6f7420746865206f776e6572604082015260600190565b6020808252602e908201527f43757276655374726174656779466f7241763343525656313a3a5452414e534660408201527f45525f46524f4d5f4641494c4544000000000000000000000000000000000000606082015260800190565b6020808252601c908201527f5f617070726f76653a3a6f776e6572207a65726f206164647265737300000000604082015260600190565b60208082526034908201527f5f7472616e73666572546f6b656e733a2063616e6e6f74207472616e7366657260408201527f20746f20746865207a65726f2061646472657373000000000000000000000000606082015260800190565b60208082526014908201527f59616b53747261746567793a3a6f6e6c79446576000000000000000000000000604082015260600190565b6020808252602d908201527f43757276655374726174656779466f7241763343525656313a3a72657363756560408201527f4465706c6f79656446756e647300000000000000000000000000000000000000606082015260800190565b60208082526030908201527f43757276655374726174656779466f7241763343525656313a3a5f776974686460408201527f7261774465706f736974546f6b656e7300000000000000000000000000000000606082015260800190565b6020808252601e908201527f5f617070726f76653a3a7370656e646572207a65726f20616464726573730000604082015260600190565b60208082526022908201527f43757276655374726174656779466f7241763343525656313a3a5f6465706f7360408201527f6974000000000000000000000000000000000000000000000000000000000000606082015260800190565b6020808252818101527f4465784c6962726172793a3a5452414e534645525f46524f4d5f4641494c4544604082015260600190565b918252602082015260400190565b60008582528460208301526001600160a01b0384166040830152608060608301526125f36080830184613c96565b60ff91909116815260200190565b6001600160a01b0381168114611d9957600080fd5b8015158114611d9957600080fdfe5f6275726e3a206275726e20616d6f756e74206578636565647320746f74616c20737570706c797472616e7366657246726f6d3a207472616e7366657220616d6f756e74206578636565647320616c6c6f77616e63655f6275726e3a206275726e20616d6f756e7420657863656564732066726f6d2062616c616e63655f7472616e73666572546f6b656e733a207472616e7366657220657863656564732066726f6d2062616c616e6365a2646970667358221220dade27a5b789ef0e3bd0f2ab71feadd692ef83e57ad912c6c2b0a5a1142e444164736f6c634300070300338be0079c531659141344cd1fd0a4f28419497f9722a3daafe3b4186f6b6457e0",
  "devdoc": {
    "kind": "dev",
    "methods": {
      "allowDepositor(address)": {
        "params": {
          "depositor": "address"
        }
      },
      "allowance(address,address)": {
        "params": {
          "account": "The address of the account holding the funds",
          "spender": "The address of the account spending the funds"
        },
        "returns": {
          "_0": "The number of tokens approved"
        }
      },
      "approve(address,uint256)": {
        "details": "This will overwrite the approval amount for `spender` and is subject to issues noted [here](https://eips.ethereum.org/EIPS/eip-20#approve) It is recommended to use increaseAllowance and decreaseAllowance instead",
        "params": {
          "amount": "The number of tokens that are approved (2^256-1 means infinite)",
          "spender": "The address of the account which may transfer tokens"
        },
        "returns": {
          "_0": "Whether or not the approval succeeded"
        }
      },
      "balanceOf(address)": {
        "params": {
          "account": "The address of the account to get the balance of"
        },
        "returns": {
          "_0": "The number of tokens held"
        }
      },
      "checkReward()": {
        "returns": {
          "_0": "reward tokens"
        }
      },
      "deposit(uint256)": {
        "details": "Must mint receipt tokens to `msg.sender`",
        "params": {
          "amount": "deposit tokens"
        }
      },
      "depositFor(address,uint256)": {
        "details": "Must mint receipt tokens to `account`",
        "params": {
          "account": "address to receive receipt tokens",
          "amount": "deposit tokens"
        }
      },
      "depositWithPermit(uint256,uint256,uint8,bytes32,bytes32)": {
        "details": "Should revert for tokens without Permit",
        "params": {
          "amount": "Amount of tokens to deposit",
          "deadline": "The time at which to expire the signature",
          "r": "Half of the ECDSA signature pair",
          "s": "Half of the ECDSA signature pair",
          "v": "The recovery byte of the signature"
        }
      },
      "estimateDeployedBalance()": {
        "returns": {
          "_0": "deposit tokens"
        }
      },
      "estimateReinvestReward()": {
        "returns": {
          "_0": "reward tokens"
        }
      },
      "getDepositTokensForShares(uint256)": {
        "params": {
          "amount": "receipt tokens"
        },
        "returns": {
          "_0": "deposit tokens"
        }
      },
      "getDomainSeparator()": {
        "returns": {
          "_0": "Separator"
        }
      },
      "getSharesForDepositTokens(uint256)": {
        "details": "If contract is empty, use 1:1 ratioCould return zero shares for very low amounts of deposit tokens",
        "params": {
          "amount": "deposit tokens"
        },
        "returns": {
          "_0": "receipt tokens"
        }
      },
      "owner()": {
        "details": "Returns the address of the current owner."
      },
      "permit(address,address,uint256,uint256,uint8,bytes32,bytes32)": {
        "params": {
          "deadline": "The time at which to expire the signature",
          "owner": "The address to approve from",
          "r": "Half of the ECDSA signature pair",
          "s": "Half of the ECDSA signature pair",
          "spender": "The address to be approved",
          "v": "The recovery byte of the signature",
          "value": "The number of tokens that are approved (2^256-1 means infinite)"
        }
      },
      "recoverAVAX(uint256)": {
        "params": {
          "amount": "amount"
        }
      },
      "recoverERC20(address,uint256)": {
        "params": {
          "tokenAddress": "token address",
          "tokenAmount": "amount to recover"
        }
      },
      "removeDepositor(address)": {
        "params": {
          "depositor": "address"
        }
      },
      "renounceOwnership()": {
        "details": "Leaves the contract without owner. It will not be possible to call `onlyOwner` functions anymore. Can only be called by the current owner. NOTE: Renouncing ownership will leave the contract without an owner, thereby removing any functionality that is only available to the owner."
      },
      "rescueDeployedFunds(uint256,bool)": {
        "params": {
          "disableDeposits": "bool",
          "minReturnAmountAccepted": "min deposit tokens to receive"
        }
      },
      "revokeAllowance(address,address)": {
        "params": {
          "spender": "address",
          "token": "address"
        }
      },
      "setAllowances()": {
        "details": "Should use modifier `onlyOwner` to avoid griefing"
      },
      "transfer(address,uint256)": {
        "params": {
          "amount": "The number of tokens to transfer",
          "dst": "The address of the destination account"
        },
        "returns": {
          "_0": "Whether or not the transfer succeeded"
        }
      },
      "transferFrom(address,address,uint256)": {
        "params": {
          "amount": "The number of tokens to transfer",
          "dst": "The address of the destination account",
          "src": "The address of the source account"
        },
        "returns": {
          "_0": "Whether or not the transfer succeeded"
        }
      },
      "transferOwnership(address)": {
        "details": "Transfers ownership of the contract to a new account (`newOwner`). Can only be called by the current owner."
      },
      "updateAdminFee(uint256)": {
        "params": {
          "newValue": "fee in BIPS"
        }
      },
      "updateDepositsEnabled(bool)": {
        "params": {
          "newValue": "bool"
        }
      },
      "updateDevAddr(address)": {
        "params": {
          "newValue": "address"
        }
      },
      "updateDevFee(uint256)": {
        "params": {
          "newValue": "fee in BIPS"
        }
      },
      "updateMaxTokensToDepositWithoutReinvest(uint256)": {
        "params": {
          "newValue": "threshold"
        }
      },
      "updateMinTokensToReinvest(uint256)": {
        "params": {
          "newValue": "threshold"
        }
      },
      "updateReinvestReward(uint256)": {
        "params": {
          "newValue": "fee in BIPS"
        }
      },
      "withdraw(uint256)": {
        "params": {
          "amount": "receipt tokens"
        }
      }
    },
    "version": 1
  },
  "userdoc": {
    "kind": "user",
    "methods": {
      "allowDepositor(address)": {
        "notice": "Add an allowed depositor"
      },
      "allowance(address,address)": {
        "notice": "Get the number of tokens `spender` is approved to spend on behalf of `account`"
      },
      "approve(address,uint256)": {
        "notice": "Approve `spender` to transfer up to `amount` from `src`"
      },
      "balanceOf(address)": {
        "notice": "Get the number of tokens held by the `account`"
      },
      "checkReward()": {
        "notice": "Reward tokens avialable to strategy, including balance"
      },
      "deposit(uint256)": {
        "notice": "Deposit and deploy deposits tokens to the strategy"
      },
      "depositFor(address,uint256)": {
        "notice": "Deposit on behalf of another account"
      },
      "depositWithPermit(uint256,uint256,uint8,bytes32,bytes32)": {
        "notice": "Deposit using Permit"
      },
      "estimateDeployedBalance()": {
        "notice": "Estimated deposit token balance deployed by strategy, excluding balance"
      },
      "estimateReinvestReward()": {
        "notice": "Estimate reinvest reward"
      },
      "getDepositTokensForShares(uint256)": {
        "notice": "Calculate deposit tokens for a given amount of receipt tokens"
      },
      "getDomainSeparator()": {
        "notice": "EIP-712 Domain separator"
      },
      "getSharesForDepositTokens(uint256)": {
        "notice": "Calculate receipt tokens for a given amount of deposit tokens"
      },
      "permit(address,address,uint256,uint256,uint8,bytes32,bytes32)": {
        "notice": "Triggers an approval from owner to spender"
      },
      "recoverAVAX(uint256)": {
        "notice": "Recover AVAX from contract"
      },
      "recoverERC20(address,uint256)": {
        "notice": "Recover ERC20 from contract"
      },
      "reinvest()": {
        "notice": "Reinvest reward tokens into deposit tokens"
      },
      "removeDepositor(address)": {
        "notice": "Remove an allowed depositor"
      },
      "rescueDeployedFunds(uint256,bool)": {
        "notice": "Rescue all available deployed deposit tokens back to Strategy"
      },
      "revokeAllowance(address,address)": {
        "notice": "Revoke token allowance"
      },
      "setAllowances()": {
        "notice": "Approve tokens for use in Strategy"
      },
      "transfer(address,uint256)": {
        "notice": "Transfer `amount` tokens from `msg.sender` to `dst`"
      },
      "transferFrom(address,address,uint256)": {
        "notice": "Transfer `amount` tokens from `src` to `dst`"
      },
      "updateAdminFee(uint256)": {
        "notice": "Update admin fee"
      },
      "updateDepositsEnabled(bool)": {
        "notice": "Enable/disable deposits"
      },
      "updateDevAddr(address)": {
        "notice": "Update devAddr"
      },
      "updateDevFee(uint256)": {
        "notice": "Update developer fee"
      },
      "updateMaxTokensToDepositWithoutReinvest(uint256)": {
        "notice": "Update reinvest max threshold before a deposit"
      },
      "updateMinTokensToReinvest(uint256)": {
        "notice": "Update reinvest min threshold"
      },
      "updateReinvestReward(uint256)": {
        "notice": "Update reinvest reward"
      },
      "withdraw(uint256)": {
        "notice": "Redeem receipt tokens for deposit tokens"
      }
    },
    "notice": "Strategy for Curve LP",
    "version": 1
  },
  "storageLayout": {
    "storage": [
      {
        "astId": 11375,
        "contract": "contracts/strategies/CurveStrategyForLPV1.sol:CurveStrategyForLPV1",
        "label": "name",
        "offset": 0,
        "slot": "0",
        "type": "t_string_storage"
      },
      {
        "astId": 11378,
        "contract": "contracts/strategies/CurveStrategyForLPV1.sol:CurveStrategyForLPV1",
        "label": "symbol",
        "offset": 0,
        "slot": "1",
        "type": "t_string_storage"
      },
      {
        "astId": 11383,
        "contract": "contracts/strategies/CurveStrategyForLPV1.sol:CurveStrategyForLPV1",
        "label": "totalSupply",
        "offset": 0,
        "slot": "2",
        "type": "t_uint256"
      },
      {
        "astId": 11389,
        "contract": "contracts/strategies/CurveStrategyForLPV1.sol:CurveStrategyForLPV1",
        "label": "allowances",
        "offset": 0,
        "slot": "3",
        "type": "t_mapping(t_address,t_mapping(t_address,t_uint256))"
      },
      {
        "astId": 11393,
        "contract": "contracts/strategies/CurveStrategyForLPV1.sol:CurveStrategyForLPV1",
        "label": "balances",
        "offset": 0,
        "slot": "4",
        "type": "t_mapping(t_address,t_uint256)"
      },
      {
        "astId": 11409,
        "contract": "contracts/strategies/CurveStrategyForLPV1.sol:CurveStrategyForLPV1",
        "label": "nonces",
        "offset": 0,
        "slot": "5",
        "type": "t_mapping(t_address,t_uint256)"
      },
      {
        "astId": 20425,
        "contract": "contracts/strategies/CurveStrategyForLPV1.sol:CurveStrategyForLPV1",
        "label": "_owner",
        "offset": 0,
        "slot": "6",
        "type": "t_address"
      },
      {
        "astId": 20538,
        "contract": "contracts/strategies/CurveStrategyForLPV1.sol:CurveStrategyForLPV1",
        "label": "numberOfAllowedDepositors",
        "offset": 0,
        "slot": "7",
        "type": "t_uint256"
      },
      {
        "astId": 20542,
        "contract": "contracts/strategies/CurveStrategyForLPV1.sol:CurveStrategyForLPV1",
        "label": "allowedDepositors",
        "offset": 0,
        "slot": "8",
        "type": "t_mapping(t_address,t_bool)"
      },
      {
        "astId": 12014,
        "contract": "contracts/strategies/CurveStrategyForLPV1.sol:CurveStrategyForLPV1",
        "label": "totalDeposits",
        "offset": 0,
        "slot": "9",
        "type": "t_uint256"
      },
      {
        "astId": 12016,
        "contract": "contracts/strategies/CurveStrategyForLPV1.sol:CurveStrategyForLPV1",
        "label": "depositToken",
        "offset": 0,
        "slot": "10",
        "type": "t_contract(IERC20)14990"
      },
      {
        "astId": 12018,
        "contract": "contracts/strategies/CurveStrategyForLPV1.sol:CurveStrategyForLPV1",
        "label": "rewardToken",
        "offset": 0,
        "slot": "11",
        "type": "t_contract(IERC20)14990"
      },
      {
        "astId": 12020,
        "contract": "contracts/strategies/CurveStrategyForLPV1.sol:CurveStrategyForLPV1",
        "label": "devAddr",
        "offset": 0,
        "slot": "12",
        "type": "t_address"
      },
      {
        "astId": 12022,
        "contract": "contracts/strategies/CurveStrategyForLPV1.sol:CurveStrategyForLPV1",
        "label": "MIN_TOKENS_TO_REINVEST",
        "offset": 0,
        "slot": "13",
        "type": "t_uint256"
      },
      {
        "astId": 12024,
        "contract": "contracts/strategies/CurveStrategyForLPV1.sol:CurveStrategyForLPV1",
        "label": "MAX_TOKENS_TO_DEPOSIT_WITHOUT_REINVEST",
        "offset": 0,
        "slot": "14",
        "type": "t_uint256"
      },
      {
        "astId": 12026,
        "contract": "contracts/strategies/CurveStrategyForLPV1.sol:CurveStrategyForLPV1",
        "label": "DEPOSITS_ENABLED",
        "offset": 0,
        "slot": "15",
        "type": "t_bool"
      },
      {
        "astId": 12028,
        "contract": "contracts/strategies/CurveStrategyForLPV1.sol:CurveStrategyForLPV1",
        "label": "REINVEST_REWARD_BIPS",
        "offset": 0,
        "slot": "16",
        "type": "t_uint256"
      },
      {
        "astId": 12030,
        "contract": "contracts/strategies/CurveStrategyForLPV1.sol:CurveStrategyForLPV1",
        "label": "ADMIN_FEE_BIPS",
        "offset": 0,
        "slot": "17",
        "type": "t_uint256"
      },
      {
        "astId": 12032,
        "contract": "contracts/strategies/CurveStrategyForLPV1.sol:CurveStrategyForLPV1",
        "label": "DEV_FEE_BIPS",
        "offset": 0,
        "slot": "18",
        "type": "t_uint256"
      },
      {
        "astId": 36778,
        "contract": "contracts/strategies/CurveStrategyForLPV1.sol:CurveStrategyForLPV1",
        "label": "stakingContract",
        "offset": 0,
        "slot": "19",
        "type": "t_contract(ICurveRewardsGauge)14786"
      },
      {
        "astId": 36780,
        "contract": "contracts/strategies/CurveStrategyForLPV1.sol:CurveStrategyForLPV1",
        "label": "swapPairWavaxZap",
        "offset": 0,
        "slot": "20",
        "type": "t_contract(IPair)16992"
      },
      {
        "astId": 36786,
        "contract": "contracts/strategies/CurveStrategyForLPV1.sol:CurveStrategyForLPV1",
        "label": "swapPairCrvAvax",
        "offset": 0,
        "slot": "21",
        "type": "t_address"
      },
      {
        "astId": 36794,
        "contract": "contracts/strategies/CurveStrategyForLPV1.sol:CurveStrategyForLPV1",
        "label": "_zapToDepositToken",
        "offset": 20,
        "slot": "21",
        "type": "t_function_internal_nonpayable(t_uint256)returns(t_uint256)"
      },
      {
        "astId": 36802,
        "contract": "contracts/strategies/CurveStrategyForLPV1.sol:CurveStrategyForLPV1",
        "label": "zapSettings",
        "offset": 0,
        "slot": "22",
        "type": "t_struct(ZapSettings)36776_storage"
      }
    ],
    "types": {
      "t_address": {
        "encoding": "inplace",
        "label": "address",
        "numberOfBytes": "20"
      },
      "t_bool": {
        "encoding": "inplace",
        "label": "bool",
        "numberOfBytes": "1"
      },
      "t_contract(ICurveRewardsGauge)14786": {
        "encoding": "inplace",
        "label": "contract ICurveRewardsGauge",
        "numberOfBytes": "20"
      },
      "t_contract(IERC20)14990": {
        "encoding": "inplace",
        "label": "contract IERC20",
        "numberOfBytes": "20"
      },
      "t_contract(IPair)16992": {
        "encoding": "inplace",
        "label": "contract IPair",
        "numberOfBytes": "20"
      },
      "t_enum(PoolType)36756": {
        "encoding": "inplace",
        "label": "enum CurveStrategyForLPV1.PoolType",
        "numberOfBytes": "1"
      },
      "t_function_internal_nonpayable(t_uint256)returns(t_uint256)": {
        "encoding": "inplace",
        "label": "function (uint256) returns (uint256)",
        "numberOfBytes": "8"
      },
      "t_mapping(t_address,t_bool)": {
        "encoding": "mapping",
        "key": "t_address",
        "label": "mapping(address => bool)",
        "numberOfBytes": "32",
        "value": "t_bool"
      },
      "t_mapping(t_address,t_mapping(t_address,t_uint256))": {
        "encoding": "mapping",
        "key": "t_address",
        "label": "mapping(address => mapping(address => uint256))",
        "numberOfBytes": "32",
        "value": "t_mapping(t_address,t_uint256)"
      },
      "t_mapping(t_address,t_uint256)": {
        "encoding": "mapping",
        "key": "t_address",
        "label": "mapping(address => uint256)",
        "numberOfBytes": "32",
        "value": "t_uint256"
      },
      "t_string_storage": {
        "encoding": "bytes",
        "label": "string",
        "numberOfBytes": "32"
      },
      "t_struct(ZapSettings)36776_storage": {
        "encoding": "inplace",
        "label": "struct CurveStrategyForLPV1.ZapSettings",
        "members": [
          {
            "astId": 36767,
            "contract": "contracts/strategies/CurveStrategyForLPV1.sol:CurveStrategyForLPV1",
            "label": "poolType",
            "offset": 0,
            "slot": "0",
            "type": "t_enum(PoolType)36756"
          },
          {
            "astId": 36769,
            "contract": "contracts/strategies/CurveStrategyForLPV1.sol:CurveStrategyForLPV1",
            "label": "zapToken",
            "offset": 1,
            "slot": "0",
            "type": "t_address"
          },
          {
            "astId": 36771,
            "contract": "contracts/strategies/CurveStrategyForLPV1.sol:CurveStrategyForLPV1",
            "label": "zapContract",
            "offset": 0,
            "slot": "1",
            "type": "t_address"
          },
          {
            "astId": 36773,
            "contract": "contracts/strategies/CurveStrategyForLPV1.sol:CurveStrategyForLPV1",
            "label": "zapTokenIndex",
            "offset": 0,
            "slot": "2",
            "type": "t_uint256"
          },
          {
            "astId": 36775,
            "contract": "contracts/strategies/CurveStrategyForLPV1.sol:CurveStrategyForLPV1",
            "label": "maxSlippage",
            "offset": 0,
            "slot": "3",
            "type": "t_uint256"
          }
        ],
        "numberOfBytes": "128"
      },
      "t_uint256": {
        "encoding": "inplace",
        "label": "uint256",
        "numberOfBytes": "32"
      }
    }
  }
}