{
  "address": "0xF7A0D4E27F1A7663A10851710f0285afEf3467F7",
  "abi": [
    {
      "inputs": [
        {
          "internalType": "string",
          "name": "_name",
          "type": "string"
        },
        {
          "internalType": "address",
          "name": "_depositToken",
          "type": "address"
        },
        {
          "internalType": "address",
          "name": "_rewardToken",
          "type": "address"
        },
        {
          "internalType": "address",
          "name": "_stakingContract",
          "type": "address"
        },
        {
          "internalType": "address",
          "name": "_rewardsContract",
          "type": "address"
        },
        {
          "internalType": "address",
          "name": "_swapPairWAVAXCYCLE",
          "type": "address"
        },
        {
          "internalType": "address",
          "name": "_swapPairToken0",
          "type": "address"
        },
        {
          "internalType": "address",
          "name": "_swapPairToken1",
          "type": "address"
        },
        {
          "internalType": "uint256",
          "name": "_minTokensToReinvest",
          "type": "uint256"
        },
        {
          "internalType": "uint256",
          "name": "_adminFeeBips",
          "type": "uint256"
        },
        {
          "internalType": "uint256",
          "name": "_devFeeBips",
          "type": "uint256"
        },
        {
          "internalType": "uint256",
          "name": "_reinvestRewardBips",
          "type": "uint256"
        }
      ],
      "stateMutability": "nonpayable",
      "type": "constructor"
    },
    {
      "anonymous": false,
      "inputs": [
        {
          "indexed": true,
          "internalType": "address",
          "name": "account",
          "type": "address"
        }
      ],
      "name": "AllowDepositor",
      "type": "event"
    },
    {
      "anonymous": false,
      "inputs": [
        {
          "indexed": true,
          "internalType": "address",
          "name": "owner",
          "type": "address"
        },
        {
          "indexed": true,
          "internalType": "address",
          "name": "spender",
          "type": "address"
        },
        {
          "indexed": false,
          "internalType": "uint256",
          "name": "value",
          "type": "uint256"
        }
      ],
      "name": "Approval",
      "type": "event"
    },
    {
      "anonymous": false,
      "inputs": [
        {
          "indexed": true,
          "internalType": "address",
          "name": "account",
          "type": "address"
        },
        {
          "indexed": false,
          "internalType": "uint256",
          "name": "amount",
          "type": "uint256"
        }
      ],
      "name": "Deposit",
      "type": "event"
    },
    {
      "anonymous": false,
      "inputs": [
        {
          "indexed": false,
          "internalType": "bool",
          "name": "newValue",
          "type": "bool"
        }
      ],
      "name": "DepositsEnabled",
      "type": "event"
    },
    {
      "anonymous": false,
      "inputs": [
        {
          "indexed": true,
          "internalType": "address",
          "name": "previousOwner",
          "type": "address"
        },
        {
          "indexed": true,
          "internalType": "address",
          "name": "newOwner",
          "type": "address"
        }
      ],
      "name": "OwnershipTransferred",
      "type": "event"
    },
    {
      "anonymous": false,
      "inputs": [
        {
          "indexed": false,
          "internalType": "address",
          "name": "token",
          "type": "address"
        },
        {
          "indexed": false,
          "internalType": "uint256",
          "name": "amount",
          "type": "uint256"
        }
      ],
      "name": "Recovered",
      "type": "event"
    },
    {
      "anonymous": false,
      "inputs": [
        {
          "indexed": false,
          "internalType": "uint256",
          "name": "newTotalDeposits",
          "type": "uint256"
        },
        {
          "indexed": false,
          "internalType": "uint256",
          "name": "newTotalSupply",
          "type": "uint256"
        }
      ],
      "name": "Reinvest",
      "type": "event"
    },
    {
      "anonymous": false,
      "inputs": [
        {
          "indexed": true,
          "internalType": "address",
          "name": "account",
          "type": "address"
        }
      ],
      "name": "RemoveDepositor",
      "type": "event"
    },
    {
      "anonymous": false,
      "inputs": [
        {
          "indexed": true,
          "internalType": "address",
          "name": "from",
          "type": "address"
        },
        {
          "indexed": true,
          "internalType": "address",
          "name": "to",
          "type": "address"
        },
        {
          "indexed": false,
          "internalType": "uint256",
          "name": "value",
          "type": "uint256"
        }
      ],
      "name": "Transfer",
      "type": "event"
    },
    {
      "anonymous": false,
      "inputs": [
        {
          "indexed": false,
          "internalType": "uint256",
          "name": "oldValue",
          "type": "uint256"
        },
        {
          "indexed": false,
          "internalType": "uint256",
          "name": "newValue",
          "type": "uint256"
        }
      ],
      "name": "UpdateAdminFee",
      "type": "event"
    },
    {
      "anonymous": false,
      "inputs": [
        {
          "indexed": false,
          "internalType": "address",
          "name": "oldValue",
          "type": "address"
        },
        {
          "indexed": false,
          "internalType": "address",
          "name": "newValue",
          "type": "address"
        }
      ],
      "name": "UpdateDevAddr",
      "type": "event"
    },
    {
      "anonymous": false,
      "inputs": [
        {
          "indexed": false,
          "internalType": "uint256",
          "name": "oldValue",
          "type": "uint256"
        },
        {
          "indexed": false,
          "internalType": "uint256",
          "name": "newValue",
          "type": "uint256"
        }
      ],
      "name": "UpdateDevFee",
      "type": "event"
    },
    {
      "anonymous": false,
      "inputs": [
        {
          "indexed": false,
          "internalType": "uint256",
          "name": "oldValue",
          "type": "uint256"
        },
        {
          "indexed": false,
          "internalType": "uint256",
          "name": "newValue",
          "type": "uint256"
        }
      ],
      "name": "UpdateMaxTokensToDepositWithoutReinvest",
      "type": "event"
    },
    {
      "anonymous": false,
      "inputs": [
        {
          "indexed": false,
          "internalType": "uint256",
          "name": "oldValue",
          "type": "uint256"
        },
        {
          "indexed": false,
          "internalType": "uint256",
          "name": "newValue",
          "type": "uint256"
        }
      ],
      "name": "UpdateMinTokensToReinvest",
      "type": "event"
    },
    {
      "anonymous": false,
      "inputs": [
        {
          "indexed": false,
          "internalType": "uint256",
          "name": "oldValue",
          "type": "uint256"
        },
        {
          "indexed": false,
          "internalType": "uint256",
          "name": "newValue",
          "type": "uint256"
        }
      ],
      "name": "UpdateReinvestReward",
      "type": "event"
    },
    {
      "anonymous": false,
      "inputs": [
        {
          "indexed": true,
          "internalType": "address",
          "name": "account",
          "type": "address"
        },
        {
          "indexed": false,
          "internalType": "uint256",
          "name": "amount",
          "type": "uint256"
        }
      ],
      "name": "Withdraw",
      "type": "event"
    },
    {
      "inputs": [],
      "name": "ADMIN_FEE_BIPS",
      "outputs": [
        {
          "internalType": "uint256",
          "name": "",
          "type": "uint256"
        }
      ],
      "stateMutability": "view",
      "type": "function"
    },
    {
      "inputs": [],
      "name": "DEPOSITS_ENABLED",
      "outputs": [
        {
          "internalType": "bool",
          "name": "",
          "type": "bool"
        }
      ],
      "stateMutability": "view",
      "type": "function"
    },
    {
      "inputs": [],
      "name": "DEV_FEE_BIPS",
      "outputs": [
        {
          "internalType": "uint256",
          "name": "",
          "type": "uint256"
        }
      ],
      "stateMutability": "view",
      "type": "function"
    },
    {
      "inputs": [],
      "name": "DOMAIN_TYPEHASH",
      "outputs": [
        {
          "internalType": "bytes32",
          "name": "",
          "type": "bytes32"
        }
      ],
      "stateMutability": "view",
      "type": "function"
    },
    {
      "inputs": [],
      "name": "MAX_TOKENS_TO_DEPOSIT_WITHOUT_REINVEST",
      "outputs": [
        {
          "internalType": "uint256",
          "name": "",
          "type": "uint256"
        }
      ],
      "stateMutability": "view",
      "type": "function"
    },
    {
      "inputs": [],
      "name": "MIN_TOKENS_TO_REINVEST",
      "outputs": [
        {
          "internalType": "uint256",
          "name": "",
          "type": "uint256"
        }
      ],
      "stateMutability": "view",
      "type": "function"
    },
    {
      "inputs": [],
      "name": "PERMIT_TYPEHASH",
      "outputs": [
        {
          "internalType": "bytes32",
          "name": "",
          "type": "bytes32"
        }
      ],
      "stateMutability": "view",
      "type": "function"
    },
    {
      "inputs": [],
      "name": "REINVEST_REWARD_BIPS",
      "outputs": [
        {
          "internalType": "uint256",
          "name": "",
          "type": "uint256"
        }
      ],
      "stateMutability": "view",
      "type": "function"
    },
    {
      "inputs": [],
      "name": "VERSION_HASH",
      "outputs": [
        {
          "internalType": "bytes32",
          "name": "",
          "type": "bytes32"
        }
      ],
      "stateMutability": "view",
      "type": "function"
    },
    {
      "inputs": [
        {
          "internalType": "address",
          "name": "depositor",
          "type": "address"
        }
      ],
      "name": "allowDepositor",
      "outputs": [],
      "stateMutability": "nonpayable",
      "type": "function"
    },
    {
      "inputs": [
        {
          "internalType": "address",
          "name": "account",
          "type": "address"
        },
        {
          "internalType": "address",
          "name": "spender",
          "type": "address"
        }
      ],
      "name": "allowance",
      "outputs": [
        {
          "internalType": "uint256",
          "name": "",
          "type": "uint256"
        }
      ],
      "stateMutability": "view",
      "type": "function"
    },
    {
      "inputs": [
        {
          "internalType": "address",
          "name": "",
          "type": "address"
        }
      ],
      "name": "allowedDepositors",
      "outputs": [
        {
          "internalType": "bool",
          "name": "",
          "type": "bool"
        }
      ],
      "stateMutability": "view",
      "type": "function"
    },
    {
      "inputs": [
        {
          "internalType": "address",
          "name": "spender",
          "type": "address"
        },
        {
          "internalType": "uint256",
          "name": "amount",
          "type": "uint256"
        }
      ],
      "name": "approve",
      "outputs": [
        {
          "internalType": "bool",
          "name": "",
          "type": "bool"
        }
      ],
      "stateMutability": "nonpayable",
      "type": "function"
    },
    {
      "inputs": [
        {
          "internalType": "address",
          "name": "account",
          "type": "address"
        }
      ],
      "name": "balanceOf",
      "outputs": [
        {
          "internalType": "uint256",
          "name": "",
          "type": "uint256"
        }
      ],
      "stateMutability": "view",
      "type": "function"
    },
    {
      "inputs": [],
      "name": "checkReward",
      "outputs": [
        {
          "internalType": "uint256",
          "name": "",
          "type": "uint256"
        }
      ],
      "stateMutability": "view",
      "type": "function"
    },
    {
      "inputs": [],
      "name": "decimals",
      "outputs": [
        {
          "internalType": "uint8",
          "name": "",
          "type": "uint8"
        }
      ],
      "stateMutability": "view",
      "type": "function"
    },
    {
      "inputs": [
        {
          "internalType": "uint256",
          "name": "amount",
          "type": "uint256"
        }
      ],
      "name": "deposit",
      "outputs": [],
      "stateMutability": "nonpayable",
      "type": "function"
    },
    {
      "inputs": [
        {
          "internalType": "address",
          "name": "account",
          "type": "address"
        },
        {
          "internalType": "uint256",
          "name": "amount",
          "type": "uint256"
        }
      ],
      "name": "depositFor",
      "outputs": [],
      "stateMutability": "nonpayable",
      "type": "function"
    },
    {
      "inputs": [],
      "name": "depositToken",
      "outputs": [
        {
          "internalType": "contract IERC20",
          "name": "",
          "type": "address"
        }
      ],
      "stateMutability": "view",
      "type": "function"
    },
    {
      "inputs": [
        {
          "internalType": "uint256",
          "name": "amount",
          "type": "uint256"
        },
        {
          "internalType": "uint256",
          "name": "deadline",
          "type": "uint256"
        },
        {
          "internalType": "uint8",
          "name": "v",
          "type": "uint8"
        },
        {
          "internalType": "bytes32",
          "name": "r",
          "type": "bytes32"
        },
        {
          "internalType": "bytes32",
          "name": "s",
          "type": "bytes32"
        }
      ],
      "name": "depositWithPermit",
      "outputs": [],
      "stateMutability": "nonpayable",
      "type": "function"
    },
    {
      "inputs": [],
      "name": "devAddr",
      "outputs": [
        {
          "internalType": "address",
          "name": "",
          "type": "address"
        }
      ],
      "stateMutability": "view",
      "type": "function"
    },
    {
      "inputs": [],
      "name": "estimateDeployedBalance",
      "outputs": [
        {
          "internalType": "uint256",
          "name": "",
          "type": "uint256"
        }
      ],
      "stateMutability": "view",
      "type": "function"
    },
    {
      "inputs": [],
      "name": "estimateReinvestReward",
      "outputs": [
        {
          "internalType": "uint256",
          "name": "",
          "type": "uint256"
        }
      ],
      "stateMutability": "view",
      "type": "function"
    },
    {
      "inputs": [
        {
          "internalType": "uint256",
          "name": "amount",
          "type": "uint256"
        }
      ],
      "name": "getDepositTokensForShares",
      "outputs": [
        {
          "internalType": "uint256",
          "name": "",
          "type": "uint256"
        }
      ],
      "stateMutability": "view",
      "type": "function"
    },
    {
      "inputs": [],
      "name": "getDomainSeparator",
      "outputs": [
        {
          "internalType": "bytes32",
          "name": "",
          "type": "bytes32"
        }
      ],
      "stateMutability": "view",
      "type": "function"
    },
    {
      "inputs": [
        {
          "internalType": "uint256",
          "name": "amount",
          "type": "uint256"
        }
      ],
      "name": "getSharesForDepositTokens",
      "outputs": [
        {
          "internalType": "uint256",
          "name": "",
          "type": "uint256"
        }
      ],
      "stateMutability": "view",
      "type": "function"
    },
    {
      "inputs": [],
      "name": "name",
      "outputs": [
        {
          "internalType": "string",
          "name": "",
          "type": "string"
        }
      ],
      "stateMutability": "view",
      "type": "function"
    },
    {
      "inputs": [
        {
          "internalType": "address",
          "name": "",
          "type": "address"
        }
      ],
      "name": "nonces",
      "outputs": [
        {
          "internalType": "uint256",
          "name": "",
          "type": "uint256"
        }
      ],
      "stateMutability": "view",
      "type": "function"
    },
    {
      "inputs": [],
      "name": "numberOfAllowedDepositors",
      "outputs": [
        {
          "internalType": "uint256",
          "name": "",
          "type": "uint256"
        }
      ],
      "stateMutability": "view",
      "type": "function"
    },
    {
      "inputs": [],
      "name": "owner",
      "outputs": [
        {
          "internalType": "address",
          "name": "",
          "type": "address"
        }
      ],
      "stateMutability": "view",
      "type": "function"
    },
    {
      "inputs": [
        {
          "internalType": "address",
          "name": "owner",
          "type": "address"
        },
        {
          "internalType": "address",
          "name": "spender",
          "type": "address"
        },
        {
          "internalType": "uint256",
          "name": "value",
          "type": "uint256"
        },
        {
          "internalType": "uint256",
          "name": "deadline",
          "type": "uint256"
        },
        {
          "internalType": "uint8",
          "name": "v",
          "type": "uint8"
        },
        {
          "internalType": "bytes32",
          "name": "r",
          "type": "bytes32"
        },
        {
          "internalType": "bytes32",
          "name": "s",
          "type": "bytes32"
        }
      ],
      "name": "permit",
      "outputs": [],
      "stateMutability": "nonpayable",
      "type": "function"
    },
    {
      "inputs": [
        {
          "internalType": "uint256",
          "name": "amount",
          "type": "uint256"
        }
      ],
      "name": "recoverAVAX",
      "outputs": [],
      "stateMutability": "nonpayable",
      "type": "function"
    },
    {
      "inputs": [
        {
          "internalType": "address",
          "name": "tokenAddress",
          "type": "address"
        },
        {
          "internalType": "uint256",
          "name": "tokenAmount",
          "type": "uint256"
        }
      ],
      "name": "recoverERC20",
      "outputs": [],
      "stateMutability": "nonpayable",
      "type": "function"
    },
    {
      "inputs": [],
      "name": "reinvest",
      "outputs": [],
      "stateMutability": "nonpayable",
      "type": "function"
    },
    {
      "inputs": [
        {
          "internalType": "address",
          "name": "depositor",
          "type": "address"
        }
      ],
      "name": "removeDepositor",
      "outputs": [],
      "stateMutability": "nonpayable",
      "type": "function"
    },
    {
      "inputs": [],
      "name": "renounceOwnership",
      "outputs": [],
      "stateMutability": "nonpayable",
      "type": "function"
    },
    {
      "inputs": [
        {
          "internalType": "uint256",
          "name": "minReturnAmountAccepted",
          "type": "uint256"
        },
        {
          "internalType": "bool",
          "name": "disableDeposits",
          "type": "bool"
        }
      ],
      "name": "rescueDeployedFunds",
      "outputs": [],
      "stateMutability": "nonpayable",
      "type": "function"
    },
    {
      "inputs": [
        {
          "internalType": "address",
          "name": "token",
          "type": "address"
        },
        {
          "internalType": "address",
          "name": "spender",
          "type": "address"
        }
      ],
      "name": "revokeAllowance",
      "outputs": [],
      "stateMutability": "nonpayable",
      "type": "function"
    },
    {
      "inputs": [],
      "name": "rewardToken",
      "outputs": [
        {
          "internalType": "contract IERC20",
          "name": "",
          "type": "address"
        }
      ],
      "stateMutability": "view",
      "type": "function"
    },
    {
      "inputs": [],
      "name": "rewardsContract",
      "outputs": [
        {
          "internalType": "contract ICycleRewards",
          "name": "",
          "type": "address"
        }
      ],
      "stateMutability": "view",
      "type": "function"
    },
    {
      "inputs": [],
      "name": "setAllowances",
      "outputs": [],
      "stateMutability": "nonpayable",
      "type": "function"
    },
    {
      "inputs": [],
      "name": "stakingContract",
      "outputs": [
        {
          "internalType": "contract ICycleVaultV3",
          "name": "",
          "type": "address"
        }
      ],
      "stateMutability": "view",
      "type": "function"
    },
    {
      "inputs": [],
      "name": "symbol",
      "outputs": [
        {
          "internalType": "string",
          "name": "",
          "type": "string"
        }
      ],
      "stateMutability": "view",
      "type": "function"
    },
    {
      "inputs": [],
      "name": "totalDeposits",
      "outputs": [
        {
          "internalType": "uint256",
          "name": "",
          "type": "uint256"
        }
      ],
      "stateMutability": "view",
      "type": "function"
    },
    {
      "inputs": [],
      "name": "totalSupply",
      "outputs": [
        {
          "internalType": "uint256",
          "name": "",
          "type": "uint256"
        }
      ],
      "stateMutability": "view",
      "type": "function"
    },
    {
      "inputs": [
        {
          "internalType": "address",
          "name": "dst",
          "type": "address"
        },
        {
          "internalType": "uint256",
          "name": "amount",
          "type": "uint256"
        }
      ],
      "name": "transfer",
      "outputs": [
        {
          "internalType": "bool",
          "name": "",
          "type": "bool"
        }
      ],
      "stateMutability": "nonpayable",
      "type": "function"
    },
    {
      "inputs": [
        {
          "internalType": "address",
          "name": "src",
          "type": "address"
        },
        {
          "internalType": "address",
          "name": "dst",
          "type": "address"
        },
        {
          "internalType": "uint256",
          "name": "amount",
          "type": "uint256"
        }
      ],
      "name": "transferFrom",
      "outputs": [
        {
          "internalType": "bool",
          "name": "",
          "type": "bool"
        }
      ],
      "stateMutability": "nonpayable",
      "type": "function"
    },
    {
      "inputs": [
        {
          "internalType": "address",
          "name": "newOwner",
          "type": "address"
        }
      ],
      "name": "transferOwnership",
      "outputs": [],
      "stateMutability": "nonpayable",
      "type": "function"
    },
    {
      "inputs": [
        {
          "internalType": "uint256",
          "name": "newValue",
          "type": "uint256"
        }
      ],
      "name": "updateAdminFee",
      "outputs": [],
      "stateMutability": "nonpayable",
      "type": "function"
    },
    {
      "inputs": [
        {
          "internalType": "bool",
          "name": "newValue",
          "type": "bool"
        }
      ],
      "name": "updateDepositsEnabled",
      "outputs": [],
      "stateMutability": "nonpayable",
      "type": "function"
    },
    {
      "inputs": [
        {
          "internalType": "address",
          "name": "newValue",
          "type": "address"
        }
      ],
      "name": "updateDevAddr",
      "outputs": [],
      "stateMutability": "nonpayable",
      "type": "function"
    },
    {
      "inputs": [
        {
          "internalType": "uint256",
          "name": "newValue",
          "type": "uint256"
        }
      ],
      "name": "updateDevFee",
      "outputs": [],
      "stateMutability": "nonpayable",
      "type": "function"
    },
    {
      "inputs": [
        {
          "internalType": "uint256",
          "name": "newValue",
          "type": "uint256"
        }
      ],
      "name": "updateMaxTokensToDepositWithoutReinvest",
      "outputs": [],
      "stateMutability": "nonpayable",
      "type": "function"
    },
    {
      "inputs": [
        {
          "internalType": "uint256",
          "name": "newValue",
          "type": "uint256"
        }
      ],
      "name": "updateMinTokensToReinvest",
      "outputs": [],
      "stateMutability": "nonpayable",
      "type": "function"
    },
    {
      "inputs": [
        {
          "internalType": "uint256",
          "name": "newValue",
          "type": "uint256"
        }
      ],
      "name": "updateReinvestReward",
      "outputs": [],
      "stateMutability": "nonpayable",
      "type": "function"
    },
    {
      "inputs": [
        {
          "internalType": "uint256",
          "name": "amount",
          "type": "uint256"
        }
      ],
      "name": "withdraw",
      "outputs": [],
      "stateMutability": "nonpayable",
      "type": "function"
    }
  ],
  "transactionHash": "0xf5ef2ce3ea929c6eb3afcea1e70d93e8f73735b4090e5e9158834b20df55aeab",
  "args": [
    "Yield Yak: Cycle x PGL QI-AVAX",
    "0xE530dC2095Ef5653205CF5ea79F8979a7028065c",
    "0x81440c939f2c1e34fc7048e518a637205a632a74",
    "0x7754Be84f3305A12558e631e5df2A4DF474Cc046",
    "0x763f77232AbB1850E9a14635b83C60C8FaB56d92",
    "0x51486d916a273bea3ae1303fca20a76b17be1ecd",
    "0xE530dC2095Ef5653205CF5ea79F8979a7028065c",
    "0x0000000000000000000000000000000000000000",
    "100000000000000000",
    0,
    600,
    200
  ],
  "solcInputHash": "7651dff9ab611445f1856b22c5527c2a",
  "bytecode": "0x60c060405260096080819052685969656c642059616b60b81b60a09081526200002c916000919062000888565b506040805180820190915260038082526216549560ea1b6020909201918252620000599160019162000888565b503480156200006757600080fd5b506040516200454f3803806200454f83398181016040526101808110156200008e57600080fd5b8101908080516040519392919084640100000000821115620000af57600080fd5b908301906020820185811115620000c557600080fd5b8251640100000000811182820188101715620000e057600080fd5b82525081516020918201929091019080838360005b838110156200010f578181015183820152602001620000f5565b50505050905090810190601f1680156200013d5780820380516001836020036101000a031916815260200191505b5060409081526020820151908201516060830151608084015160a085015160c086015160e08701516101008801516101208901516101408a0151610160909a0151989b5096995094979396929591949093909260006200019c62000308565b600680546001600160a01b0319166001600160a01b038316908117909155604051919250906000907f8be0079c531659141344cd1fd0a4f28419497f9722a3daafe3b4186f6b6457e0908290a3508b51620001ff9060009060208f019062000888565b50600980546001600160a01b03199081166001600160a01b038e811691909117909255600a805482168d84161790556013805482168b84161790556012805482168c8416179055600b80543390831617905560148054821689841617905560158054821688841617905560168054909116918916919091179055620002836200030c565b6200028e84620003ff565b6200029983620004a9565b620002a48262000599565b620002af8162000675565b620002bb600162000751565b604080516000808252602082015281517fc7606d21ac05cd309191543e409f0845c016120563783d70e4f41419dc0ef234929181900390910190a150505050505050505050505062000924565b3390565b6200031662000308565b6001600160a01b03166200032962000817565b6001600160a01b03161462000374576040805162461bcd60e51b815260206004820181905260248201526000805160206200452f833981519152604482015290519081900360640190fd5b6009546012546040805163095ea7b360e01b81526001600160a01b03928316600482015260001960248201529051919092169163095ea7b39160448083019260209291908290030181600087803b158015620003cf57600080fd5b505af1158015620003e4573d6000803e3d6000fd5b505050506040513d6020811015620003fb57600080fd5b5050565b6200040962000308565b6001600160a01b03166200041c62000817565b6001600160a01b03161462000467576040805162461bcd60e51b815260206004820181905260248201526000805160206200452f833981519152604482015290519081900360640190fd5b600c54604080519182526020820183905280517f481f79ac3a523b6d6db3c5a720e190e986d1cc1b41adcdf50f9caef8499011009281900390910190a1600c55565b620004b362000308565b6001600160a01b0316620004c662000817565b6001600160a01b03161462000511576040805162461bcd60e51b815260206004820181905260248201526000805160206200452f833981519152604482015290519081900360640190fd5b6127106200054b600f5462000537601154856200082660201b620024b31790919060201c565b6200082660201b620024b31790919060201c565b11156200055757600080fd5b601054604080519182526020820183905280517f3cc372f330f95ac9540626dc8a25f5bf21ba607215a5d58304cb804d446f104a9281900390910190a1601055565b620005a362000308565b6001600160a01b0316620005b662000817565b6001600160a01b03161462000601576040805162461bcd60e51b815260206004820181905260248201526000805160206200452f833981519152604482015290519081900360640190fd5b61271062000627600f5462000537601054856200082660201b620024b31790919060201c565b11156200063357600080fd5b601154604080519182526020820183905280517f2a42303d002f0ba6cfe8259c91d4684443fb0b3de286ba74991175d6517261319281900390910190a1601155565b6200067f62000308565b6001600160a01b03166200069262000817565b6001600160a01b031614620006dd576040805162461bcd60e51b815260206004820181905260248201526000805160206200452f833981519152604482015290519081900360640190fd5b6127106200070360115462000537601054856200082660201b620024b31790919060201c565b11156200070f57600080fd5b600f54604080519182526020820183905280517fe7f97d51d307dc44045597c9978bec0f842e6bb40d19b9444084cfa30d9ed4f29281900390910190a1600f55565b6200075b62000308565b6001600160a01b03166200076e62000817565b6001600160a01b031614620007b9576040805162461bcd60e51b815260206004820181905260248201526000805160206200452f833981519152604482015290519081900360640190fd5b600e5460ff1615158115151415620007d057600080fd5b600e805482151560ff19909116811790915560408051918252517f7b014ed3854e7f5cb0218d58b3c6ae7d53a68bb0af2f67bfb029ea42c38a7e859181900360200190a150565b6006546001600160a01b031690565b60008282018381101562000881576040805162461bcd60e51b815260206004820152601b60248201527f536166654d6174683a206164646974696f6e206f766572666c6f770000000000604482015290519081900360640190fd5b9392505050565b828054600181600116156101000203166002900490600052602060002090601f016020900481019282601f10620008cb57805160ff1916838001178555620008fb565b82800160010185558215620008fb579182015b82811115620008fb578251825591602001919060010190620008de565b50620009099291506200090d565b5090565b5b808211156200090957600081556001016200090e565b613bfb80620009346000396000f3fe608060405234801561001057600080fd5b50600436106103785760003560e01c80638b73e606116101d3578063c89039c511610104578063e21ac825116100a2578063ee99205c1161007c578063ee99205c14610921578063f2fde38b14610929578063f7c618c11461094f578063fdb5a03e1461095757610378565b8063e21ac825146108df578063eab89a5a146108fc578063ed24911d1461091957610378565b8063da09c72c116100de578063da09c72c14610884578063dbd9a4d41461088c578063dd62ed3e14610894578063dd8ce4d6146108c257610378565b8063c89039c51461080e578063cff1b6ef14610816578063d505accf1461083357610378565b8063a9059cbb11610171578063b6b55f251161014b578063b6b55f25146107d9578063b9e57b80146107f6578063bd079f55146107fe578063c4b24a461461080657610378565b8063a9059cbb14610780578063ac0d31ff146107ac578063b52a321f146107d157610378565b806395d89b41116101ad57806395d89b411461073657806399729ec11461073e5780639e4e73181461075b578063a8ae2b7c1461076357610378565b80638b73e606146106e25780638da5cb5b146107085780639291d5631461071057610378565b80634a970be7116102ad578063789139bc1161024b5780637ecebe00116102255780637ecebe001461066b57806381837230146106915780638980f11f146106ae5780638aff733d146106da57610378565b8063789139bc146106355780637ae267731461063d5780637d8820971461045457610378565b80634ebb7916116102875780634ebb7916146105e25780635ea682ea146105ff57806370a0823114610607578063715018a61461062d57610378565b80634a970be7146105655780634bebd1e71461059d5780634e77ace5146105c357610378565b806323b872dd1161031a57806330adf81f116102f457806330adf81f14610511578063313ce567146105195780633bdc6e7214610537578063483c2ef01461053f57610378565b806323b872dd146104905780632e1a7d4d146104c65780632f4f21e2146104e557610378565b80630f23475d116103565780630f23475d1461045457806318160ddd1461045c57806320606b7014610464578063220cce971461046c57610378565b806306fdde031461037d57806307677111146103fa578063095ea7b314610414575b600080fd5b61038561095f565b6040805160208082528351818301528351919283929083019185019080838360005b838110156103bf5781810151838201526020016103a7565b50505050905090810190601f1680156103ec5780820380516001836020036101000a031916815260200191505b509250505060405180910390f35b6104026109ed565b60408051918252519081900360200190f35b6104406004803603604081101561042a57600080fd5b506001600160a01b0381351690602001356109f3565b604080519115158252519081900360200190f35b610402610a0a565b610402610aa0565b610402610aa6565b610474610aca565b604080516001600160a01b039092168252519081900360200190f35b610440600480360360608110156104a657600080fd5b506001600160a01b03813581169160208101359091169060400135610ad9565b6104e3600480360360208110156104dc57600080fd5b5035610bbb565b005b6104e3600480360360408110156104fb57600080fd5b506001600160a01b038135169060200135610d90565b610402610d9e565b610521610dc2565b6040805160ff9092168252519081900360200190f35b610402610dc7565b6104406004803603602081101561055557600080fd5b50356001600160a01b0316610dcd565b6104e3600480360360a081101561057b57600080fd5b5080359060208101359060ff6040820135169060608101359060800135610de2565b6104e3600480360360208110156105b357600080fd5b50356001600160a01b0316610e9b565b6104e3600480360360208110156105d957600080fd5b50351515610fd7565b6104e3600480360360208110156105f857600080fd5b5035611096565b610402611172565b6104026004803603602081101561061d57600080fd5b50356001600160a01b0316611178565b6104e3611197565b610402611250565b6104e36004803603604081101561065357600080fd5b506001600160a01b0381358116916020013516611256565b6104026004803603602081101561068157600080fd5b50356001600160a01b0316611345565b6104e3600480360360208110156106a757600080fd5b5035611357565b6104e3600480360360408110156106c457600080fd5b506001600160a01b0381351690602001356113fb565b61040261154f565b6104e3600480360360208110156106f857600080fd5b50356001600160a01b0316611555565b6104746116bc565b6104e36004803603602081101561072657600080fd5b50356001600160a01b03166116cb565b6103856117a1565b6104e36004803603602081101561075457600080fd5b50356117fb565b6104026118ce565b6104e36004803603602081101561077957600080fd5b50356118f2565b6104406004803603604081101561079657600080fd5b506001600160a01b0381351690602001356119bf565b6104e3600480360360408110156107c257600080fd5b508035906020013515156119cc565b610440611ccf565b6104e3600480360360208110156107ef57600080fd5b5035611cd8565b610402611ce5565b610402611d2c565b610402611d32565b610474611d94565b6104e36004803603602081101561082c57600080fd5b5035611da3565b6104e3600480360360e081101561084957600080fd5b506001600160a01b03813581169160208101359091169060408101359060608101359060ff6080820135169060a08101359060c00135611e70565b610474611f70565b6104e3611f7f565b610402600480360360408110156108aa57600080fd5b506001600160a01b038135811691602001351661207e565b610402600480360360208110156108d857600080fd5b50356120a9565b6104e3600480360360208110156108f557600080fd5b50356120e3565b6104026004803603602081101561091257600080fd5b5035612187565b6104026121b8565b6104746122c5565b6104e36004803603602081101561093f57600080fd5b50356001600160a01b03166122d4565b6104746123e4565b6104e36123f3565b6000805460408051602060026001851615610100026000190190941693909304601f810184900484028201840190925281815292918301828280156109e55780601f106109ba576101008083540402835291602001916109e5565b820191906000526020600020905b8154815290600101906020018083116109c857829003601f168201915b505050505081565b60105481565b6000610a00338484612514565b5060015b92915050565b601254604080517f636e0f7b00000000000000000000000000000000000000000000000000000000815230600482015290516000926001600160a01b03169163636e0f7b916024808301926020929190829003018186803b158015610a6e57600080fd5b505afa158015610a82573d6000803e3d6000fd5b505050506040513d6020811015610a9857600080fd5b505190505b90565b60025481565b7f8b73c3c69bb8fe3d512ecc4cf759cc79239f7b179b0ffacaa9a75d522b39400f81565b6013546001600160a01b031681565b6001600160a01b038316600081815260036020908152604080832033808552925282205491929091908214801590610b1357506000198114155b15610ba4576000610b3f856040518060600160405280602f8152602001613b42602f913984919061262c565b6001600160a01b0380891660008181526003602090815260408083209489168084529482529182902085905581518581529151949550929391927f8c5be1e5ebec7d5bd14f71427d1e84f3dd0314c0f7b2291e5b200ac8c7c3b92592918290030190a3505b610baf8686866126c3565b50600195945050505050565b60008111610c10576040805162461bcd60e51b815260206004820152601960248201527f4379636c65537472617465677956313a3a776974686472617700000000000000604482015290519081900360640190fd5b6000610c1b826127d0565b601254604080517fde5d36e20000000000000000000000000000000000000000000000000000000081526004810184905290519293506000926001600160a01b039092169163de5d36e291602480820192602092909190829003018186803b158015610c8657600080fd5b505afa158015610c9a573d6000803e3d6000fd5b505050506040513d6020811015610cb057600080fd5b5051601254604080517fe4456ecb0000000000000000000000000000000000000000000000000000000081526004810186905290519293506001600160a01b039091169163e4456ecb9160248082019260009290919082900301818387803b158015610d1b57600080fd5b505af1158015610d2f573d6000803e3d6000fd5b5050600954610d4b92506001600160a01b031690503383612860565b610d553384612923565b60408051828152905133917f884edad9ce6fa2440d8a54cc123490eb96d2768479d49ff9c7366125a9424364919081900360200190a2505050565b610d9a82826129f8565b5050565b7f6e71edae12b1b97f4d1f60370fef10105fa2faae0126114a169c64845d6126c981565b601281565b60075481565b60086020526000908152604090205460ff1681565b600954604080517fd505accf000000000000000000000000000000000000000000000000000000008152336004820152306024820152604481018890526064810187905260ff8616608482015260a4810185905260c4810184905290516001600160a01b039092169163d505accf9160e48082019260009290919082900301818387803b158015610e7257600080fd5b505af1158015610e86573d6000803e3d6000fd5b50505050610e9433866129f8565b5050505050565b610ea3612c26565b6001600160a01b0316610eb46116bc565b6001600160a01b031614610efd576040805162461bcd60e51b81526020600482018190526024820152600080516020613aca833981519152604482015290519081900360640190fd5b6001600160a01b03811660009081526008602052604090205460ff1615610f6b576040805162461bcd60e51b815260206004820152601c60248201527f5065726d697373696f6e65643a3a616c6c6f774465706f7369746f7200000000604482015290519081900360640190fd5b6001600160a01b0381166000908152600860205260409020805460ff19166001908117909155600754610f9d916124b3565b6007556040516001600160a01b038216907fc0a1035c16faf8d1304056d92c00edf028f87e62b8235a938f00af9e3c0312c590600090a250565b610fdf612c26565b6001600160a01b0316610ff06116bc565b6001600160a01b031614611039576040805162461bcd60e51b81526020600482018190526024820152600080516020613aca833981519152604482015290519081900360640190fd5b600e5460ff161515811515141561104f57600080fd5b600e805482151560ff19909116811790915560408051918252517f7b014ed3854e7f5cb0218d58b3c6ae7d53a68bb0af2f67bfb029ea42c38a7e859181900360200190a150565b61109e612c26565b6001600160a01b03166110af6116bc565b6001600160a01b0316146110f8576040805162461bcd60e51b81526020600482018190526024820152600080516020613aca833981519152604482015290519081900360640190fd5b6000811161110557600080fd5b604051339082156108fc029083906000818181858888f19350505050158015611132573d6000803e3d6000fd5b5060408051600081526020810183905281517f8c1256b8896378cd5044f80c202f9772b9d77dc85c8a6eb51967210b09bfaa28929181900390910190a150565b60115481565b6001600160a01b0381166000908152600460205260409020545b919050565b61119f612c26565b6001600160a01b03166111b06116bc565b6001600160a01b0316146111f9576040805162461bcd60e51b81526020600482018190526024820152600080516020613aca833981519152604482015290519081900360640190fd5b6006546040516000916001600160a01b0316907f8be0079c531659141344cd1fd0a4f28419497f9722a3daafe3b4186f6b6457e0908390a36006805473ffffffffffffffffffffffffffffffffffffffff19169055565b600d5481565b61125e612c26565b6001600160a01b031661126f6116bc565b6001600160a01b0316146112b8576040805162461bcd60e51b81526020600482018190526024820152600080516020613aca833981519152604482015290519081900360640190fd5b816001600160a01b031663095ea7b38260006040518363ffffffff1660e01b815260040180836001600160a01b0316815260200182815260200192505050602060405180830381600087803b15801561131057600080fd5b505af1158015611324573d6000803e3d6000fd5b505050506040513d602081101561133a57600080fd5b5051610d9a57600080fd5b60056020526000908152604090205481565b61135f612c26565b6001600160a01b03166113706116bc565b6001600160a01b0316146113b9576040805162461bcd60e51b81526020600482018190526024820152600080516020613aca833981519152604482015290519081900360640190fd5b600c54604080519182526020820183905280517f481f79ac3a523b6d6db3c5a720e190e986d1cc1b41adcdf50f9caef8499011009281900390910190a1600c55565b611403612c26565b6001600160a01b03166114146116bc565b6001600160a01b03161461145d576040805162461bcd60e51b81526020600482018190526024820152600080516020613aca833981519152604482015290519081900360640190fd5b6000811161146a57600080fd5b604080517fa9059cbb0000000000000000000000000000000000000000000000000000000081523360048201526024810183905290516001600160a01b0384169163a9059cbb9160448083019260209291908290030181600087803b1580156114d257600080fd5b505af11580156114e6573d6000803e3d6000fd5b505050506040513d60208110156114fc57600080fd5b505161150757600080fd5b604080516001600160a01b03841681526020810183905281517f8c1256b8896378cd5044f80c202f9772b9d77dc85c8a6eb51967210b09bfaa28929181900390910190a15050565b600f5481565b61155d612c26565b6001600160a01b031661156e6116bc565b6001600160a01b0316146115b7576040805162461bcd60e51b81526020600482018190526024820152600080516020613aca833981519152604482015290519081900360640190fd5b6000600754116115f85760405162461bcd60e51b81526004018080602001828103825260348152602001806139886034913960400191505060405180910390fd5b6001600160a01b03811660009081526008602052604090205460ff1615156001146116545760405162461bcd60e51b815260040180806020018281038252602a815260200180613a29602a913960400191505060405180910390fd5b6001600160a01b0381166000908152600860205260409020805460ff19169055600754611682906001612c2a565b6007556040516001600160a01b038216907f0e86f6608b536e5339a25b65ff531f5ea91e1313d056ecd4752b35cbd16137d490600090a250565b6006546001600160a01b031690565b600b546001600160a01b0316331461172a576040805162461bcd60e51b815260206004820152601460248201527f59616b53747261746567793a3a6f6e6c79446576000000000000000000000000604482015290519081900360640190fd5b600b54604080516001600160a01b039283168152918316602083015280517fa8e91499ed37682f43cffb045fcc7d379a91e8c9a14e6321877ee34dee564c009281900390910190a1600b805473ffffffffffffffffffffffffffffffffffffffff19166001600160a01b0392909216919091179055565b60018054604080516020600284861615610100026000190190941693909304601f810184900484028201840190925281815292918301828280156109e55780601f106109ba576101008083540402835291602001916109e5565b611803612c26565b6001600160a01b03166118146116bc565b6001600160a01b03161461185d576040805162461bcd60e51b81526020600482018190526024820152600080516020613aca833981519152604482015290519081900360640190fd5b612710611881600f5461187b601054856124b390919063ffffffff16565b906124b3565b111561188c57600080fd5b601154604080519182526020820183905280517f2a42303d002f0ba6cfe8259c91d4684443fb0b3de286ba74991175d6517261319281900390910190a1601155565b7fc89efdaa54c0f20c7adf612882df0950f5a951637e0307cdcb4c672f298b8bc681565b6118fa612c26565b6001600160a01b031661190b6116bc565b6001600160a01b031614611954576040805162461bcd60e51b81526020600482018190526024820152600080516020613aca833981519152604482015290519081900360640190fd5b61271061197260115461187b601054856124b390919063ffffffff16565b111561197d57600080fd5b600f54604080519182526020820183905280517fe7f97d51d307dc44045597c9978bec0f842e6bb40d19b9444084cfa30d9ed4f29281900390910190a1600f55565b6000610a003384846126c3565b6119d4612c26565b6001600160a01b03166119e56116bc565b6001600160a01b031614611a2e576040805162461bcd60e51b81526020600482018190526024820152600080516020613aca833981519152604482015290519081900360640190fd5b600954604080516370a0823160e01b815230600482015290516000926001600160a01b0316916370a08231916024808301926020929190829003018186803b158015611a7957600080fd5b505afa158015611a8d573d6000803e3d6000fd5b505050506040513d6020811015611aa357600080fd5b5051601254601354604080516370a0823160e01b815230600482015290519394506001600160a01b039283169363e4456ecb93909216916370a0823191602480820192602092909190829003018186803b158015611b0057600080fd5b505afa158015611b14573d6000803e3d6000fd5b505050506040513d6020811015611b2a57600080fd5b5051604080517fffffffff0000000000000000000000000000000000000000000000000000000060e085901b168152600481019290925251602480830192600092919082900301818387803b158015611b8257600080fd5b505af1158015611b96573d6000803e3d6000fd5b5050600954604080516370a0823160e01b81523060048201529051600094506001600160a01b0390921692506370a08231916024808301926020929190829003018186803b158015611be757600080fd5b505afa158015611bfb573d6000803e3d6000fd5b505050506040513d6020811015611c1157600080fd5b5051905083611c208284612c2a565b1015611c5d5760405162461bcd60e51b8152600401808060200182810382526024815260200180613aea6024913960400191505060405180910390fd5b7fc7606d21ac05cd309191543e409f0845c016120563783d70e4f41419dc0ef234611c86610a0a565b6002546040805192835260208301919091528051918290030190a1600e5460ff1615156001148015611cba57506001831515145b15611cc957611cc96000610fd7565b50505050565b600e5460ff1681565b611ce233826129f8565b50565b600080611cf0611d32565b9050600c548110611d2457611d1c612710611d16600f5484612c6c90919063ffffffff16565b90612cc5565b915050610a9d565b600091505090565b600c5481565b601354604080517e8cc26200000000000000000000000000000000000000000000000000000000815230600482015290516000926001600160a01b031691628cc262916024808301926020929190829003018186803b158015610a6e57600080fd5b6009546001600160a01b031681565b611dab612c26565b6001600160a01b0316611dbc6116bc565b6001600160a01b031614611e05576040805162461bcd60e51b81526020600482018190526024820152600080516020613aca833981519152604482015290519081900360640190fd5b612710611e23600f5461187b601154856124b390919063ffffffff16565b1115611e2e57600080fd5b601054604080519182526020820183905280517f3cc372f330f95ac9540626dc8a25f5bf21ba607215a5d58304cb804d446f104a9281900390910190a1601055565b42841015611ec5576040805162461bcd60e51b815260206004820152600f60248201527f7065726d69743a3a657870697265640000000000000000000000000000000000604482015290519081900360640190fd5b6001600160a01b0380881660008181526005602090815260409182902080546001810190915582517f6e71edae12b1b97f4d1f60370fef10105fa2faae0126114a169c64845d6126c98184015280840194909452938a1660608401526080830189905260a083019390935260c08083018890528151808403909101815260e090920190528051910120611f5b8882868686612d07565b611f66888888612514565b5050505050505050565b600b546001600160a01b031681565b611f87612c26565b6001600160a01b0316611f986116bc565b6001600160a01b031614611fe1576040805162461bcd60e51b81526020600482018190526024820152600080516020613aca833981519152604482015290519081900360640190fd5b600954601254604080517f095ea7b30000000000000000000000000000000000000000000000000000000081526001600160a01b03928316600482015260001960248201529051919092169163095ea7b39160448083019260209291908290030181600087803b15801561205457600080fd5b505af1158015612068573d6000803e3d6000fd5b505050506040513d6020811015610d9a57600080fd5b6001600160a01b03918216600090815260036020908152604080832093909416825291909152205490565b60006120bf6120b6610a0a565b60025490612c6c565b6120ca575080611192565b610a046120d5610a0a565b600254611d16908590612c6c565b6120eb612c26565b6001600160a01b03166120fc6116bc565b6001600160a01b031614612145576040805162461bcd60e51b81526020600482018190526024820152600080516020613aca833981519152604482015290519081900360640190fd5b600d54604080519182526020820183905280517fa5dae50539d56dfe1fb5273d883b0c39bc76750a25d036fc5fbd09ad8fd5f57f9281900390910190a1600d55565b60006121946120b6610a0a565b6121a057506000611192565b610a04600254611d166121b1610a0a565b8590612c6c565b60007f8b73c3c69bb8fe3d512ecc4cf759cc79239f7b179b0ffacaa9a75d522b39400f60001b6000604051808280546001816001161561010002031660029004801561223b5780601f1061221957610100808354040283529182019161223b565b820191906000526020600020905b815481529060010190602001808311612227575b505091505060405180910390207fc89efdaa54c0f20c7adf612882df0950f5a951637e0307cdcb4c672f298b8bc660001b612274612e3f565b3060405160200180868152602001858152602001848152602001838152602001826001600160a01b031681526020019550505050505060405160208183030381529060405280519060200120905090565b6012546001600160a01b031681565b6122dc612c26565b6001600160a01b03166122ed6116bc565b6001600160a01b031614612336576040805162461bcd60e51b81526020600482018190526024820152600080516020613aca833981519152604482015290519081900360640190fd5b6001600160a01b03811661237b5760405162461bcd60e51b81526004018080602001828103825260268152602001806139346026913960400191505060405180910390fd5b6006546040516001600160a01b038084169216907f8be0079c531659141344cd1fd0a4f28419497f9722a3daafe3b4186f6b6457e090600090a36006805473ffffffffffffffffffffffffffffffffffffffff19166001600160a01b0392909216919091179055565b600a546001600160a01b031681565b323314612447576040805162461bcd60e51b815260206004820152601460248201527f59616b53747261746567793a3a6f6e6c79454f41000000000000000000000000604482015290519081900360640190fd5b6000612451611d32565b9050600c548110156124aa576040805162461bcd60e51b815260206004820152601960248201527f4379636c65537472617465677956313a3a7265696e7665737400000000000000604482015290519081900360640190fd5b611ce281612e43565b60008282018381101561250d576040805162461bcd60e51b815260206004820152601b60248201527f536166654d6174683a206164646974696f6e206f766572666c6f770000000000604482015290519081900360640190fd5b9392505050565b6001600160a01b03831661256f576040805162461bcd60e51b815260206004820152601c60248201527f5f617070726f76653a3a6f776e6572207a65726f206164647265737300000000604482015290519081900360640190fd5b6001600160a01b0382166125ca576040805162461bcd60e51b815260206004820152601e60248201527f5f617070726f76653a3a7370656e646572207a65726f20616464726573730000604482015290519081900360640190fd5b6001600160a01b03808416600081815260036020908152604080832094871680845294825291829020859055815185815291517f8c5be1e5ebec7d5bd14f71427d1e84f3dd0314c0f7b2291e5b200ac8c7c3b9259281900390910190a3505050565b600081848411156126bb5760405162461bcd60e51b81526004018080602001828103825283818151815260200191508051906020019080838360005b83811015612680578181015183820152602001612668565b50505050905090810190601f1680156126ad5780820380516001836020036101000a031916815260200191505b509250505060405180910390fd5b505050900390565b6001600160a01b0382166127085760405162461bcd60e51b8152600401808060200182810382526034815260200180613b0e6034913960400191505060405180910390fd5b612745816040518060600160405280602e8152602001613b98602e91396001600160a01b038616600090815260046020526040902054919061262c565b6001600160a01b03808516600090815260046020526040808220939093559084168152205461277490826124b3565b6001600160a01b0380841660008181526004602090815260409182902094909455805185815290519193928716927fddf252ad1be2c89b69c2b068fc378daa952ba7f163c4a11628f55a4df523b3ef92918290030190a3505050565b601354604080516370a0823160e01b8152306004820152905160009283926001600160a01b03909116916370a0823191602480820192602092909190829003018186803b15801561282057600080fd5b505afa158015612834573d6000803e3d6000fd5b505050506040513d602081101561284a57600080fd5b505160025490915061250d90611d168584612c6c565b826001600160a01b031663a9059cbb83836040518363ffffffff1660e01b815260040180836001600160a01b0316815260200182815260200192505050602060405180830381600087803b1580156128b757600080fd5b505af11580156128cb573d6000803e3d6000fd5b505050506040513d60208110156128e157600080fd5b505161291e5760405162461bcd60e51b81526004018080602001828103825260258152602001806139e06025913960400191505060405180910390fd5b505050565b61296081604051806060016040528060278152602001613b71602791396001600160a01b038516600090815260046020526040902054919061262c565b60046000846001600160a01b03166001600160a01b03168152602001908152602001600020819055506129b081604051806060016040528060278152602001613a5360279139600254919061262c565b6002556040805182815290516000916001600160a01b038516917fddf252ad1be2c89b69c2b068fc378daa952ba7f163c4a11628f55a4df523b3ef9181900360200190a35050565b60075415612a53573360009081526008602052604090205460ff161515600114612a535760405162461bcd60e51b815260040180806020018281038252602e81526020018061395a602e913960400191505060405180910390fd5b600e5460ff161515600114612aaf576040805162461bcd60e51b815260206004820152601960248201527f4379636c65537472617465677956313a3a5f6465706f73697400000000000000604482015290519081900360640190fd5b600d5415612ad8576000612ac1611d32565b9050600d54811115612ad657612ad681612e43565b505b600954604080517f23b872dd0000000000000000000000000000000000000000000000000000000081523360048201523060248201526044810184905290516001600160a01b03909216916323b872dd916064808201926020929091908290030181600087803b158015612b4b57600080fd5b505af1158015612b5f573d6000803e3d6000fd5b505050506040513d6020811015612b7557600080fd5b5051612bc8576040805162461bcd60e51b815260206004820181905260248201527f4379636c65537472617465677956313a3a7472616e73666572206661696c6564604482015290519081900360640190fd5b612bda82612bd5836120a9565b61304d565b612be3816130d8565b6040805182815290516001600160a01b038416917fe1fffcc4923d04b559f4d29a8bfc6cda04eb5b0d3c460751c2402c5c5cc9109c919081900360200190a25050565b3390565b600061250d83836040518060400160405280601f81526020017f536166654d6174683a207375627472616374696f6e20756e646572666c6f770081525061262c565b600082612c7b57506000610a04565b82820282848281612c8857fe5b041461250d5760405162461bcd60e51b8152600401808060200182810382526021815260200180613aa96021913960400191505060405180910390fd5b600061250d83836040518060400160405280601a81526020017f536166654d6174683a206469766973696f6e206279207a65726f000000000000815250613191565b6000612d116121b8565b8560405160200180807f190100000000000000000000000000000000000000000000000000000000000081525060020183815260200182815260200192505050604051602081830303815290604052805190602001209050600060018286868660405160008152602001604052604051808581526020018460ff1681526020018381526020018281526020019450505050506020604051602081039080840390855afa158015612dc5573d6000803e3d6000fd5b5050604051601f1901519150506001600160a01b03811615801590612dfb5750866001600160a01b0316816001600160a01b0316145b612e365760405162461bcd60e51b81526004018080602001828103825260248152602001806139bc6024913960400191505060405180910390fd5b50505050505050565b4690565b601360009054906101000a90046001600160a01b03166001600160a01b0316633d18b9126040518163ffffffff1660e01b8152600401600060405180830381600087803b158015612e9357600080fd5b505af1158015612ea7573d6000803e3d6000fd5b505050506000612ec8612710611d1660115485612c6c90919063ffffffff16565b90508015612eed57600a54600b54612eed916001600160a01b03908116911683612860565b6000612f0a612710611d1660105486612c6c90919063ffffffff16565b90508015612f3057600a54612f30906001600160a01b0316612f2a6116bc565b83612860565b6000612f4d612710611d16600f5487612c6c90919063ffffffff16565b90508015612f6c57600a54612f6c906001600160a01b03163383612860565b6000612fb5612f8783612f8186818a8a612c2a565b90612c2a565b600a546016546001600160a01b039182169173b31f66aa3c1e785363f0875a1b74e27b85fd66c791166131f6565b600954601454601554929350600092612ff692859273b31f66aa3c1e785363f0875a1b74e27b85fd66c7926001600160a01b03928316929182169116613406565b9050613001816130d8565b7fc7606d21ac05cd309191543e409f0845c016120563783d70e4f41419dc0ef23461302a610a0a565b6002546040805192835260208301919091528051918290030190a1505050505050565b60025461305a90826124b3565b6002556001600160a01b03821660009081526004602052604090205461308090826124b3565b6001600160a01b03831660008181526004602090815260408083209490945583518581529351929391927fddf252ad1be2c89b69c2b068fc378daa952ba7f163c4a11628f55a4df523b3ef9281900390910190a35050565b600081116131175760405162461bcd60e51b8152600401808060200182810382526024815260200180613a056024913960400191505060405180910390fd5b601254604080517feb37acfc0000000000000000000000000000000000000000000000000000000081526004810184905290516001600160a01b039092169163eb37acfc9160248082019260009290919082900301818387803b15801561317d57600080fd5b505af1158015610e94573d6000803e3d6000fd5b600081836131e05760405162461bcd60e51b8152602060048201818152835160248401528351909283926044909101919085019080838360008315612680578181015183820152602001612668565b5060008385816131ec57fe5b0495945050505050565b6000806132038585613587565b509050600080846001600160a01b0316630902f1ac6040518163ffffffff1660e01b815260040160606040518083038186803b15801561324257600080fd5b505afa158015613256573d6000803e3d6000fd5b505050506040513d606081101561326c57600080fd5b50805160209091015190925090506001600160a01b038381169088161461328f57905b6000806132bd8a856dffffffffffffffffffffffffffff16856dffffffffffffffffffffffffffff166135b8565b9050886001600160a01b0316856001600160a01b0316146132da57905b6132e589888c613600565b60408051600080825260208201928390527f022c0d9f00000000000000000000000000000000000000000000000000000000835260248201858152604483018590523060648401819052608060848501908152845160a486018190526001600160a01b038e169663022c0d9f968a968a9691949193919260c486019290918190849084905b8381101561338257818101518382015260200161336a565b50505050905090810190601f1680156133af5780820380516001836020036101000a031916815260200191505b5095505050505050600060405180830381600087803b1580156133d157600080fd5b505af11580156133e5573d6000803e3d6000fd5b505050508181116133f657816133f8565b805b9a9950505050505050505050565b600080613414876002612cc5565b9050600081116134555760405162461bcd60e51b815260040180806020018281038252602f815260200180613a7a602f913960400191505060405180910390fd5b6000856001600160a01b0316630dfe16816040518163ffffffff1660e01b815260040160206040518083038186803b15801561349057600080fd5b505afa1580156134a4573d6000803e3d6000fd5b505050506040513d60208110156134ba57600080fd5b50519050816001600160a01b03888116908316146134e1576134de838984896131f6565b90505b6000876001600160a01b031663d21220a76040518163ffffffff1660e01b815260040160206040518083038186803b15801561351c57600080fd5b505afa158015613530573d6000803e3d6000fd5b505050506040513d602081101561354657600080fd5b50519050836001600160a01b038a81169083161461356d5761356a858b848a6131f6565b90505b6135788984836136d4565b9b9a5050505050505050505050565b600080826001600160a01b0316846001600160a01b0316106135aa5782846135ad565b83835b915091509250929050565b6000806135c7856103e5612c6c565b905060006135d58285612c6c565b905060006135e98361187b886103e8612c6c565b90506135f58282612cc5565b979650505050505050565b826001600160a01b031663a9059cbb83836040518363ffffffff1660e01b815260040180836001600160a01b0316815260200182815260200192505050602060405180830381600087803b15801561365757600080fd5b505af115801561366b573d6000803e3d6000fd5b505050506040513d602081101561368157600080fd5b505161291e576040805162461bcd60e51b815260206004820181905260248201527f4465784c6962726172793a3a5452414e534645525f46524f4d5f4641494c4544604482015290519081900360640190fd5b6000806000856001600160a01b0316630902f1ac6040518163ffffffff1660e01b815260040160606040518083038186803b15801561371257600080fd5b505afa158015613726573d6000803e3d6000fd5b505050506040513d606081101561373c57600080fd5b5080516020909101519092509050600061376a866dffffffffffffffffffffffffffff80861690851661391b565b9050848111156137a5578490506137a285836dffffffffffffffffffffffffffff16856dffffffffffffffffffffffffffff1661391b565b95505b613814876001600160a01b0316630dfe16816040518163ffffffff1660e01b815260040160206040518083038186803b1580156137e157600080fd5b505afa1580156137f5573d6000803e3d6000fd5b505050506040513d602081101561380b57600080fd5b50518888613600565b613883876001600160a01b031663d21220a76040518163ffffffff1660e01b815260040160206040518083038186803b15801561385057600080fd5b505afa158015613864573d6000803e3d6000fd5b505050506040513d602081101561387a57600080fd5b50518883613600565b604080517f6a62784200000000000000000000000000000000000000000000000000000000815230600482015290516001600160a01b03891691636a6278429160248083019260209291908290030181600087803b1580156138e457600080fd5b505af11580156138f8573d6000803e3d6000fd5b505050506040513d602081101561390e57600080fd5b5051979650505050505050565b600061392b83611d168685612c6c565b94935050505056fe4f776e61626c653a206e6577206f776e657220697320746865207a65726f20616464726573735065726d697373696f6e65643a3a6f6e6c79416c6c6f7765644465706f736974732c206e6f7420616c6c6f7765645065726d697373696f6e65643a3a72656d6f76654465706f7369746f722c206e6f20616c6c6f776564206465706f7369746f7273417263683a3a76616c69646174655369673a20696e76616c6964207369676e61747572654379636c65537472617465677956313a3a5452414e534645525f46524f4d5f4641494c45444379636c65537472617465677956313a3a5f7374616b654465706f736974546f6b656e735065726d697373696f6e65643a3a72656d6f76654465706f7369746f722c206e6f7420616c6c6f7765645f6275726e3a206275726e20616d6f756e74206578636565647320746f74616c20737570706c794465784c6962726172793a3a5f636f6e76657274526577617264546f6b656e73546f4465706f736974546f6b656e73536166654d6174683a206d756c7469706c69636174696f6e206f766572666c6f774f776e61626c653a2063616c6c6572206973206e6f7420746865206f776e65724379636c65537472617465677956313a3a7265736375654465706c6f79656446756e64735f7472616e73666572546f6b656e733a2063616e6e6f74207472616e7366657220746f20746865207a65726f20616464726573737472616e7366657246726f6d3a207472616e7366657220616d6f756e74206578636565647320616c6c6f77616e63655f6275726e3a206275726e20616d6f756e7420657863656564732066726f6d2062616c616e63655f7472616e73666572546f6b656e733a207472616e7366657220657863656564732066726f6d2062616c616e6365a2646970667358221220e0b6436b8f90acdc1efaf1da964b68eff52f88976ddea5e6bdfc55c8e24810a564736f6c634300070300334f776e61626c653a2063616c6c6572206973206e6f7420746865206f776e6572",
  "devdoc": {
    "kind": "dev",
    "methods": {
      "allowDepositor(address)": {
        "params": {
          "depositor": "address"
        }
      },
      "allowance(address,address)": {
        "params": {
          "account": "The address of the account holding the funds",
          "spender": "The address of the account spending the funds"
        },
        "returns": {
          "_0": "The number of tokens approved"
        }
      },
      "approve(address,uint256)": {
        "details": "This will overwrite the approval amount for `spender` and is subject to issues noted [here](https://eips.ethereum.org/EIPS/eip-20#approve) It is recommended to use increaseAllowance and decreaseAllowance instead",
        "params": {
          "amount": "The number of tokens that are approved (2^256-1 means infinite)",
          "spender": "The address of the account which may transfer tokens"
        },
        "returns": {
          "_0": "Whether or not the approval succeeded"
        }
      },
      "balanceOf(address)": {
        "params": {
          "account": "The address of the account to get the balance of"
        },
        "returns": {
          "_0": "The number of tokens held"
        }
      },
      "checkReward()": {
        "returns": {
          "_0": "reward tokens"
        }
      },
      "deposit(uint256)": {
        "details": "Must mint receipt tokens to `msg.sender`",
        "params": {
          "amount": "deposit tokens"
        }
      },
      "depositFor(address,uint256)": {
        "details": "Must mint receipt tokens to `account`",
        "params": {
          "account": "address to receive receipt tokens",
          "amount": "deposit tokens"
        }
      },
      "depositWithPermit(uint256,uint256,uint8,bytes32,bytes32)": {
        "details": "Should revert for tokens without Permit",
        "params": {
          "amount": "Amount of tokens to deposit",
          "deadline": "The time at which to expire the signature",
          "r": "Half of the ECDSA signature pair",
          "s": "Half of the ECDSA signature pair",
          "v": "The recovery byte of the signature"
        }
      },
      "estimateDeployedBalance()": {
        "returns": {
          "_0": "deposit tokens"
        }
      },
      "estimateReinvestReward()": {
        "returns": {
          "_0": "reward tokens"
        }
      },
      "getDepositTokensForShares(uint256)": {
        "params": {
          "amount": "receipt tokens"
        },
        "returns": {
          "_0": "deposit tokens"
        }
      },
      "getDomainSeparator()": {
        "returns": {
          "_0": "Separator"
        }
      },
      "getSharesForDepositTokens(uint256)": {
        "details": "If contract is empty, use 1:1 ratioCould return zero shares for very low amounts of deposit tokens",
        "params": {
          "amount": "deposit tokens"
        },
        "returns": {
          "_0": "receipt tokens"
        }
      },
      "owner()": {
        "details": "Returns the address of the current owner."
      },
      "permit(address,address,uint256,uint256,uint8,bytes32,bytes32)": {
        "params": {
          "deadline": "The time at which to expire the signature",
          "owner": "The address to approve from",
          "r": "Half of the ECDSA signature pair",
          "s": "Half of the ECDSA signature pair",
          "spender": "The address to be approved",
          "v": "The recovery byte of the signature",
          "value": "The number of tokens that are approved (2^256-1 means infinite)"
        }
      },
      "recoverAVAX(uint256)": {
        "params": {
          "amount": "amount"
        }
      },
      "recoverERC20(address,uint256)": {
        "params": {
          "tokenAddress": "token address",
          "tokenAmount": "amount to recover"
        }
      },
      "removeDepositor(address)": {
        "params": {
          "depositor": "address"
        }
      },
      "renounceOwnership()": {
        "details": "Leaves the contract without owner. It will not be possible to call `onlyOwner` functions anymore. Can only be called by the current owner. NOTE: Renouncing ownership will leave the contract without an owner, thereby removing any functionality that is only available to the owner."
      },
      "rescueDeployedFunds(uint256,bool)": {
        "params": {
          "disableDeposits": "bool",
          "minReturnAmountAccepted": "min deposit tokens to receive"
        }
      },
      "revokeAllowance(address,address)": {
        "params": {
          "spender": "address",
          "token": "address"
        }
      },
      "setAllowances()": {
        "details": "Should use modifier `onlyOwner` to avoid griefing"
      },
      "totalDeposits()": {
        "returns": {
          "_0": "total deposits available on the contract"
        }
      },
      "transfer(address,uint256)": {
        "params": {
          "amount": "The number of tokens to transfer",
          "dst": "The address of the destination account"
        },
        "returns": {
          "_0": "Whether or not the transfer succeeded"
        }
      },
      "transferFrom(address,address,uint256)": {
        "params": {
          "amount": "The number of tokens to transfer",
          "dst": "The address of the destination account",
          "src": "The address of the source account"
        },
        "returns": {
          "_0": "Whether or not the transfer succeeded"
        }
      },
      "transferOwnership(address)": {
        "details": "Transfers ownership of the contract to a new account (`newOwner`). Can only be called by the current owner."
      },
      "updateAdminFee(uint256)": {
        "params": {
          "newValue": "fee in BIPS"
        }
      },
      "updateDepositsEnabled(bool)": {
        "params": {
          "newValue": "bool"
        }
      },
      "updateDevAddr(address)": {
        "params": {
          "newValue": "address"
        }
      },
      "updateDevFee(uint256)": {
        "params": {
          "newValue": "fee in BIPS"
        }
      },
      "updateMaxTokensToDepositWithoutReinvest(uint256)": {
        "params": {
          "newValue": "threshold"
        }
      },
      "updateMinTokensToReinvest(uint256)": {
        "params": {
          "newValue": "threshold"
        }
      },
      "updateReinvestReward(uint256)": {
        "params": {
          "newValue": "fee in BIPS"
        }
      },
      "withdraw(uint256)": {
        "params": {
          "amount": "receipt tokens"
        }
      }
    },
    "version": 1
  },
  "userdoc": {
    "kind": "user",
    "methods": {
      "allowDepositor(address)": {
        "notice": "Add an allowed depositor"
      },
      "allowance(address,address)": {
        "notice": "Get the number of tokens `spender` is approved to spend on behalf of `account`"
      },
      "approve(address,uint256)": {
        "notice": "Approve `spender` to transfer up to `amount` from `src`"
      },
      "balanceOf(address)": {
        "notice": "Get the number of tokens held by the `account`"
      },
      "checkReward()": {
        "notice": "Reward tokens avialable to strategy, including balance"
      },
      "deposit(uint256)": {
        "notice": "Deposit and deploy deposits tokens to the strategy"
      },
      "depositFor(address,uint256)": {
        "notice": "Deposit on behalf of another account"
      },
      "depositWithPermit(uint256,uint256,uint8,bytes32,bytes32)": {
        "notice": "Deposit using Permit"
      },
      "estimateDeployedBalance()": {
        "notice": "Estimated deposit token balance deployed by strategy, excluding balance"
      },
      "estimateReinvestReward()": {
        "notice": "Estimate reinvest reward"
      },
      "getDepositTokensForShares(uint256)": {
        "notice": "Calculate deposit tokens for a given amount of receipt tokens"
      },
      "getDomainSeparator()": {
        "notice": "EIP-712 Domain separator"
      },
      "getSharesForDepositTokens(uint256)": {
        "notice": "Calculate receipt tokens for a given amount of deposit tokens"
      },
      "permit(address,address,uint256,uint256,uint8,bytes32,bytes32)": {
        "notice": "Triggers an approval from owner to spender"
      },
      "recoverAVAX(uint256)": {
        "notice": "Recover AVAX from contract"
      },
      "recoverERC20(address,uint256)": {
        "notice": "Recover ERC20 from contract"
      },
      "reinvest()": {
        "notice": "Reinvest reward tokens into deposit tokens"
      },
      "removeDepositor(address)": {
        "notice": "Remove an allowed depositor"
      },
      "rescueDeployedFunds(uint256,bool)": {
        "notice": "Rescue all available deployed deposit tokens back to Strategy"
      },
      "revokeAllowance(address,address)": {
        "notice": "Revoke token allowance"
      },
      "setAllowances()": {
        "notice": "Approve tokens for use in Strategy"
      },
      "totalDeposits()": {
        "notice": "This function returns a snapshot of last available quotes"
      },
      "transfer(address,uint256)": {
        "notice": "Transfer `amount` tokens from `msg.sender` to `dst`"
      },
      "transferFrom(address,address,uint256)": {
        "notice": "Transfer `amount` tokens from `src` to `dst`"
      },
      "updateAdminFee(uint256)": {
        "notice": "Update admin fee"
      },
      "updateDepositsEnabled(bool)": {
        "notice": "Enable/disable deposits"
      },
      "updateDevAddr(address)": {
        "notice": "Update devAddr"
      },
      "updateDevFee(uint256)": {
        "notice": "Update developer fee"
      },
      "updateMaxTokensToDepositWithoutReinvest(uint256)": {
        "notice": "Update reinvest max threshold before a deposit"
      },
      "updateMinTokensToReinvest(uint256)": {
        "notice": "Update reinvest min threshold"
      },
      "updateReinvestReward(uint256)": {
        "notice": "Update reinvest reward"
      },
      "withdraw(uint256)": {
        "notice": "Redeem receipt tokens for deposit tokens"
      }
    },
    "notice": "Strategy for CycleVaults",
    "version": 1
  },
  "storageLayout": {
    "storage": [
      {
        "astId": 14792,
        "contract": "contracts/strategies/CycleStrategyV1.sol:CycleStrategyV1",
        "label": "name",
        "offset": 0,
        "slot": "0",
        "type": "t_string_storage"
      },
      {
        "astId": 14795,
        "contract": "contracts/strategies/CycleStrategyV1.sol:CycleStrategyV1",
        "label": "symbol",
        "offset": 0,
        "slot": "1",
        "type": "t_string_storage"
      },
      {
        "astId": 14800,
        "contract": "contracts/strategies/CycleStrategyV1.sol:CycleStrategyV1",
        "label": "totalSupply",
        "offset": 0,
        "slot": "2",
        "type": "t_uint256"
      },
      {
        "astId": 14806,
        "contract": "contracts/strategies/CycleStrategyV1.sol:CycleStrategyV1",
        "label": "allowances",
        "offset": 0,
        "slot": "3",
        "type": "t_mapping(t_address,t_mapping(t_address,t_uint256))"
      },
      {
        "astId": 14810,
        "contract": "contracts/strategies/CycleStrategyV1.sol:CycleStrategyV1",
        "label": "balances",
        "offset": 0,
        "slot": "4",
        "type": "t_mapping(t_address,t_uint256)"
      },
      {
        "astId": 14826,
        "contract": "contracts/strategies/CycleStrategyV1.sol:CycleStrategyV1",
        "label": "nonces",
        "offset": 0,
        "slot": "5",
        "type": "t_mapping(t_address,t_uint256)"
      },
      {
        "astId": 21663,
        "contract": "contracts/strategies/CycleStrategyV1.sol:CycleStrategyV1",
        "label": "_owner",
        "offset": 0,
        "slot": "6",
        "type": "t_address"
      },
      {
        "astId": 21776,
        "contract": "contracts/strategies/CycleStrategyV1.sol:CycleStrategyV1",
        "label": "numberOfAllowedDepositors",
        "offset": 0,
        "slot": "7",
        "type": "t_uint256"
      },
      {
        "astId": 21780,
        "contract": "contracts/strategies/CycleStrategyV1.sol:CycleStrategyV1",
        "label": "allowedDepositors",
        "offset": 0,
        "slot": "8",
        "type": "t_mapping(t_address,t_bool)"
      },
      {
        "astId": 15965,
        "contract": "contracts/strategies/CycleStrategyV1.sol:CycleStrategyV1",
        "label": "depositToken",
        "offset": 0,
        "slot": "9",
        "type": "t_contract(IERC20)18073"
      },
      {
        "astId": 15967,
        "contract": "contracts/strategies/CycleStrategyV1.sol:CycleStrategyV1",
        "label": "rewardToken",
        "offset": 0,
        "slot": "10",
        "type": "t_contract(IERC20)18073"
      },
      {
        "astId": 15969,
        "contract": "contracts/strategies/CycleStrategyV1.sol:CycleStrategyV1",
        "label": "devAddr",
        "offset": 0,
        "slot": "11",
        "type": "t_address"
      },
      {
        "astId": 15971,
        "contract": "contracts/strategies/CycleStrategyV1.sol:CycleStrategyV1",
        "label": "MIN_TOKENS_TO_REINVEST",
        "offset": 0,
        "slot": "12",
        "type": "t_uint256"
      },
      {
        "astId": 15973,
        "contract": "contracts/strategies/CycleStrategyV1.sol:CycleStrategyV1",
        "label": "MAX_TOKENS_TO_DEPOSIT_WITHOUT_REINVEST",
        "offset": 0,
        "slot": "13",
        "type": "t_uint256"
      },
      {
        "astId": 15975,
        "contract": "contracts/strategies/CycleStrategyV1.sol:CycleStrategyV1",
        "label": "DEPOSITS_ENABLED",
        "offset": 0,
        "slot": "14",
        "type": "t_bool"
      },
      {
        "astId": 15977,
        "contract": "contracts/strategies/CycleStrategyV1.sol:CycleStrategyV1",
        "label": "REINVEST_REWARD_BIPS",
        "offset": 0,
        "slot": "15",
        "type": "t_uint256"
      },
      {
        "astId": 15979,
        "contract": "contracts/strategies/CycleStrategyV1.sol:CycleStrategyV1",
        "label": "ADMIN_FEE_BIPS",
        "offset": 0,
        "slot": "16",
        "type": "t_uint256"
      },
      {
        "astId": 15981,
        "contract": "contracts/strategies/CycleStrategyV1.sol:CycleStrategyV1",
        "label": "DEV_FEE_BIPS",
        "offset": 0,
        "slot": "17",
        "type": "t_uint256"
      },
      {
        "astId": 34646,
        "contract": "contracts/strategies/CycleStrategyV1.sol:CycleStrategyV1",
        "label": "stakingContract",
        "offset": 0,
        "slot": "18",
        "type": "t_contract(ICycleVaultV3)17972"
      },
      {
        "astId": 34648,
        "contract": "contracts/strategies/CycleStrategyV1.sol:CycleStrategyV1",
        "label": "rewardsContract",
        "offset": 0,
        "slot": "19",
        "type": "t_contract(ICycleRewards)17928"
      },
      {
        "astId": 34650,
        "contract": "contracts/strategies/CycleStrategyV1.sol:CycleStrategyV1",
        "label": "swapPairToken0",
        "offset": 0,
        "slot": "20",
        "type": "t_contract(IPair)19276"
      },
      {
        "astId": 34652,
        "contract": "contracts/strategies/CycleStrategyV1.sol:CycleStrategyV1",
        "label": "swapPairToken1",
        "offset": 0,
        "slot": "21",
        "type": "t_contract(IPair)19276"
      },
      {
        "astId": 34654,
        "contract": "contracts/strategies/CycleStrategyV1.sol:CycleStrategyV1",
        "label": "swapPairWAVAXCYCLE",
        "offset": 0,
        "slot": "22",
        "type": "t_contract(IPair)19276"
      }
    ],
    "types": {
      "t_address": {
        "encoding": "inplace",
        "label": "address",
        "numberOfBytes": "20"
      },
      "t_bool": {
        "encoding": "inplace",
        "label": "bool",
        "numberOfBytes": "1"
      },
      "t_contract(ICycleRewards)17928": {
        "encoding": "inplace",
        "label": "contract ICycleRewards",
        "numberOfBytes": "20"
      },
      "t_contract(ICycleVaultV3)17972": {
        "encoding": "inplace",
        "label": "contract ICycleVaultV3",
        "numberOfBytes": "20"
      },
      "t_contract(IERC20)18073": {
        "encoding": "inplace",
        "label": "contract IERC20",
        "numberOfBytes": "20"
      },
      "t_contract(IPair)19276": {
        "encoding": "inplace",
        "label": "contract IPair",
        "numberOfBytes": "20"
      },
      "t_mapping(t_address,t_bool)": {
        "encoding": "mapping",
        "key": "t_address",
        "label": "mapping(address => bool)",
        "numberOfBytes": "32",
        "value": "t_bool"
      },
      "t_mapping(t_address,t_mapping(t_address,t_uint256))": {
        "encoding": "mapping",
        "key": "t_address",
        "label": "mapping(address => mapping(address => uint256))",
        "numberOfBytes": "32",
        "value": "t_mapping(t_address,t_uint256)"
      },
      "t_mapping(t_address,t_uint256)": {
        "encoding": "mapping",
        "key": "t_address",
        "label": "mapping(address => uint256)",
        "numberOfBytes": "32",
        "value": "t_uint256"
      },
      "t_string_storage": {
        "encoding": "bytes",
        "label": "string",
        "numberOfBytes": "32"
      },
      "t_uint256": {
        "encoding": "inplace",
        "label": "uint256",
        "numberOfBytes": "32"
      }
    }
  }
}