{
  "address": "0xD57dDbCFD0EdeC396009C4e891bc84210Aa23F8D",
  "abi": [
    {
      "inputs": [
        {
          "components": [
            {
              "internalType": "address",
              "name": "swapPairDepositToken",
              "type": "address"
            },
            {
              "internalType": "address",
              "name": "stakingContract",
              "type": "address"
            },
            {
              "internalType": "address",
              "name": "platypusPool",
              "type": "address"
            },
            {
              "internalType": "uint256",
              "name": "pid",
              "type": "uint256"
            },
            {
              "internalType": "address",
              "name": "boosterFeeCollector",
              "type": "address"
            }
          ],
          "internalType": "struct EchidnaStrategy.EchidnaStrategySettings",
          "name": "_echidnaStrategySettings",
          "type": "tuple"
        },
        {
          "components": [
            {
              "internalType": "string",
              "name": "name",
              "type": "string"
            },
            {
              "internalType": "address",
              "name": "platformToken",
              "type": "address"
            },
            {
              "components": [
                {
                  "internalType": "address",
                  "name": "reward",
                  "type": "address"
                },
                {
                  "internalType": "address",
                  "name": "swapPair",
                  "type": "address"
                },
                {
                  "internalType": "uint256",
                  "name": "swapFee",
                  "type": "uint256"
                }
              ],
              "internalType": "struct VariableRewardsStrategy.RewardSwapPair[]",
              "name": "rewardSwapPairs",
              "type": "tuple[]"
            },
            {
              "internalType": "address",
              "name": "timelock",
              "type": "address"
            }
          ],
          "internalType": "struct VariableRewardsStrategy.VariableRewardsStrategySettings",
          "name": "_variableRewardsStrategySettings",
          "type": "tuple"
        },
        {
          "components": [
            {
              "internalType": "address",
              "name": "depositToken",
              "type": "address"
            },
            {
              "internalType": "address",
              "name": "rewardToken",
              "type": "address"
            },
            {
              "internalType": "uint256",
              "name": "minTokensToReinvest",
              "type": "uint256"
            },
            {
              "internalType": "uint256",
              "name": "devFeeBips",
              "type": "uint256"
            },
            {
              "internalType": "uint256",
              "name": "reinvestRewardBips",
              "type": "uint256"
            }
          ],
          "internalType": "struct YakStrategyV2.StrategySettings",
          "name": "_strategySettings",
          "type": "tuple"
        }
      ],
      "stateMutability": "nonpayable",
      "type": "constructor"
    },
    {
      "anonymous": false,
      "inputs": [
        {
          "indexed": false,
          "internalType": "address",
          "name": "rewardToken",
          "type": "address"
        },
        {
          "indexed": false,
          "internalType": "address",
          "name": "swapPair",
          "type": "address"
        }
      ],
      "name": "AddReward",
      "type": "event"
    },
    {
      "anonymous": false,
      "inputs": [
        {
          "indexed": true,
          "internalType": "address",
          "name": "account",
          "type": "address"
        }
      ],
      "name": "AllowDepositor",
      "type": "event"
    },
    {
      "anonymous": false,
      "inputs": [
        {
          "indexed": true,
          "internalType": "address",
          "name": "owner",
          "type": "address"
        },
        {
          "indexed": true,
          "internalType": "address",
          "name": "spender",
          "type": "address"
        },
        {
          "indexed": false,
          "internalType": "uint256",
          "name": "value",
          "type": "uint256"
        }
      ],
      "name": "Approval",
      "type": "event"
    },
    {
      "anonymous": false,
      "inputs": [
        {
          "indexed": true,
          "internalType": "address",
          "name": "account",
          "type": "address"
        },
        {
          "indexed": false,
          "internalType": "uint256",
          "name": "amount",
          "type": "uint256"
        }
      ],
      "name": "Deposit",
      "type": "event"
    },
    {
      "anonymous": false,
      "inputs": [
        {
          "indexed": false,
          "internalType": "bool",
          "name": "newValue",
          "type": "bool"
        }
      ],
      "name": "DepositsEnabled",
      "type": "event"
    },
    {
      "anonymous": false,
      "inputs": [
        {
          "indexed": true,
          "internalType": "address",
          "name": "previousOwner",
          "type": "address"
        },
        {
          "indexed": true,
          "internalType": "address",
          "name": "newOwner",
          "type": "address"
        }
      ],
      "name": "OwnershipTransferred",
      "type": "event"
    },
    {
      "anonymous": false,
      "inputs": [
        {
          "indexed": false,
          "internalType": "address",
          "name": "token",
          "type": "address"
        },
        {
          "indexed": false,
          "internalType": "uint256",
          "name": "amount",
          "type": "uint256"
        }
      ],
      "name": "Recovered",
      "type": "event"
    },
    {
      "anonymous": false,
      "inputs": [
        {
          "indexed": false,
          "internalType": "uint256",
          "name": "newTotalDeposits",
          "type": "uint256"
        },
        {
          "indexed": false,
          "internalType": "uint256",
          "name": "newTotalSupply",
          "type": "uint256"
        }
      ],
      "name": "Reinvest",
      "type": "event"
    },
    {
      "anonymous": false,
      "inputs": [
        {
          "indexed": true,
          "internalType": "address",
          "name": "account",
          "type": "address"
        }
      ],
      "name": "RemoveDepositor",
      "type": "event"
    },
    {
      "anonymous": false,
      "inputs": [
        {
          "indexed": false,
          "internalType": "address",
          "name": "rewardToken",
          "type": "address"
        }
      ],
      "name": "RemoveReward",
      "type": "event"
    },
    {
      "anonymous": false,
      "inputs": [
        {
          "indexed": true,
          "internalType": "address",
          "name": "from",
          "type": "address"
        },
        {
          "indexed": true,
          "internalType": "address",
          "name": "to",
          "type": "address"
        },
        {
          "indexed": false,
          "internalType": "uint256",
          "name": "value",
          "type": "uint256"
        }
      ],
      "name": "Transfer",
      "type": "event"
    },
    {
      "anonymous": false,
      "inputs": [
        {
          "indexed": false,
          "internalType": "uint256",
          "name": "oldValue",
          "type": "uint256"
        },
        {
          "indexed": false,
          "internalType": "uint256",
          "name": "newValue",
          "type": "uint256"
        }
      ],
      "name": "UpdateAdminFee",
      "type": "event"
    },
    {
      "anonymous": false,
      "inputs": [
        {
          "indexed": false,
          "internalType": "address",
          "name": "oldValue",
          "type": "address"
        },
        {
          "indexed": false,
          "internalType": "address",
          "name": "newValue",
          "type": "address"
        }
      ],
      "name": "UpdateDevAddr",
      "type": "event"
    },
    {
      "anonymous": false,
      "inputs": [
        {
          "indexed": false,
          "internalType": "uint256",
          "name": "oldValue",
          "type": "uint256"
        },
        {
          "indexed": false,
          "internalType": "uint256",
          "name": "newValue",
          "type": "uint256"
        }
      ],
      "name": "UpdateDevFee",
      "type": "event"
    },
    {
      "anonymous": false,
      "inputs": [
        {
          "indexed": false,
          "internalType": "uint256",
          "name": "oldValue",
          "type": "uint256"
        },
        {
          "indexed": false,
          "internalType": "uint256",
          "name": "newValue",
          "type": "uint256"
        }
      ],
      "name": "UpdateMaxTokensToDepositWithoutReinvest",
      "type": "event"
    },
    {
      "anonymous": false,
      "inputs": [
        {
          "indexed": false,
          "internalType": "uint256",
          "name": "oldValue",
          "type": "uint256"
        },
        {
          "indexed": false,
          "internalType": "uint256",
          "name": "newValue",
          "type": "uint256"
        }
      ],
      "name": "UpdateMinTokensToReinvest",
      "type": "event"
    },
    {
      "anonymous": false,
      "inputs": [
        {
          "indexed": false,
          "internalType": "uint256",
          "name": "oldValue",
          "type": "uint256"
        },
        {
          "indexed": false,
          "internalType": "uint256",
          "name": "newValue",
          "type": "uint256"
        }
      ],
      "name": "UpdateReinvestReward",
      "type": "event"
    },
    {
      "anonymous": false,
      "inputs": [
        {
          "indexed": true,
          "internalType": "address",
          "name": "account",
          "type": "address"
        },
        {
          "indexed": false,
          "internalType": "uint256",
          "name": "amount",
          "type": "uint256"
        }
      ],
      "name": "Withdraw",
      "type": "event"
    },
    {
      "inputs": [],
      "name": "ADMIN_FEE_BIPS",
      "outputs": [
        {
          "internalType": "uint256",
          "name": "",
          "type": "uint256"
        }
      ],
      "stateMutability": "view",
      "type": "function"
    },
    {
      "inputs": [],
      "name": "DEPOSITS_ENABLED",
      "outputs": [
        {
          "internalType": "bool",
          "name": "",
          "type": "bool"
        }
      ],
      "stateMutability": "view",
      "type": "function"
    },
    {
      "inputs": [],
      "name": "DEV_FEE_BIPS",
      "outputs": [
        {
          "internalType": "uint256",
          "name": "",
          "type": "uint256"
        }
      ],
      "stateMutability": "view",
      "type": "function"
    },
    {
      "inputs": [],
      "name": "DOMAIN_TYPEHASH",
      "outputs": [
        {
          "internalType": "bytes32",
          "name": "",
          "type": "bytes32"
        }
      ],
      "stateMutability": "view",
      "type": "function"
    },
    {
      "inputs": [],
      "name": "MAX_TOKENS_TO_DEPOSIT_WITHOUT_REINVEST",
      "outputs": [
        {
          "internalType": "uint256",
          "name": "",
          "type": "uint256"
        }
      ],
      "stateMutability": "view",
      "type": "function"
    },
    {
      "inputs": [],
      "name": "MIN_TOKENS_TO_REINVEST",
      "outputs": [
        {
          "internalType": "uint256",
          "name": "",
          "type": "uint256"
        }
      ],
      "stateMutability": "view",
      "type": "function"
    },
    {
      "inputs": [],
      "name": "PERMIT_TYPEHASH",
      "outputs": [
        {
          "internalType": "bytes32",
          "name": "",
          "type": "bytes32"
        }
      ],
      "stateMutability": "view",
      "type": "function"
    },
    {
      "inputs": [],
      "name": "PID",
      "outputs": [
        {
          "internalType": "uint256",
          "name": "",
          "type": "uint256"
        }
      ],
      "stateMutability": "view",
      "type": "function"
    },
    {
      "inputs": [],
      "name": "REINVEST_REWARD_BIPS",
      "outputs": [
        {
          "internalType": "uint256",
          "name": "",
          "type": "uint256"
        }
      ],
      "stateMutability": "view",
      "type": "function"
    },
    {
      "inputs": [],
      "name": "VERSION_HASH",
      "outputs": [
        {
          "internalType": "bytes32",
          "name": "",
          "type": "bytes32"
        }
      ],
      "stateMutability": "view",
      "type": "function"
    },
    {
      "inputs": [
        {
          "internalType": "address",
          "name": "_rewardToken",
          "type": "address"
        },
        {
          "internalType": "address",
          "name": "_swapPair",
          "type": "address"
        }
      ],
      "name": "addReward",
      "outputs": [],
      "stateMutability": "nonpayable",
      "type": "function"
    },
    {
      "inputs": [
        {
          "internalType": "address",
          "name": "_rewardToken",
          "type": "address"
        },
        {
          "internalType": "address",
          "name": "_swapPair",
          "type": "address"
        },
        {
          "internalType": "uint256",
          "name": "_swapFee",
          "type": "uint256"
        }
      ],
      "name": "addReward",
      "outputs": [],
      "stateMutability": "nonpayable",
      "type": "function"
    },
    {
      "inputs": [
        {
          "internalType": "address",
          "name": "depositor",
          "type": "address"
        }
      ],
      "name": "allowDepositor",
      "outputs": [],
      "stateMutability": "nonpayable",
      "type": "function"
    },
    {
      "inputs": [
        {
          "internalType": "address",
          "name": "account",
          "type": "address"
        },
        {
          "internalType": "address",
          "name": "spender",
          "type": "address"
        }
      ],
      "name": "allowance",
      "outputs": [
        {
          "internalType": "uint256",
          "name": "",
          "type": "uint256"
        }
      ],
      "stateMutability": "view",
      "type": "function"
    },
    {
      "inputs": [
        {
          "internalType": "address",
          "name": "",
          "type": "address"
        }
      ],
      "name": "allowedDepositors",
      "outputs": [
        {
          "internalType": "bool",
          "name": "",
          "type": "bool"
        }
      ],
      "stateMutability": "view",
      "type": "function"
    },
    {
      "inputs": [
        {
          "internalType": "address",
          "name": "spender",
          "type": "address"
        },
        {
          "internalType": "uint256",
          "name": "amount",
          "type": "uint256"
        }
      ],
      "name": "approve",
      "outputs": [
        {
          "internalType": "bool",
          "name": "",
          "type": "bool"
        }
      ],
      "stateMutability": "nonpayable",
      "type": "function"
    },
    {
      "inputs": [
        {
          "internalType": "address",
          "name": "account",
          "type": "address"
        }
      ],
      "name": "balanceOf",
      "outputs": [
        {
          "internalType": "uint256",
          "name": "",
          "type": "uint256"
        }
      ],
      "stateMutability": "view",
      "type": "function"
    },
    {
      "inputs": [],
      "name": "boosterFeeCollector",
      "outputs": [
        {
          "internalType": "contract IBoosterFeeCollector",
          "name": "",
          "type": "address"
        }
      ],
      "stateMutability": "view",
      "type": "function"
    },
    {
      "inputs": [
        {
          "internalType": "uint256",
          "name": "_amount",
          "type": "uint256"
        }
      ],
      "name": "calculateDepositFee",
      "outputs": [
        {
          "internalType": "uint256",
          "name": "",
          "type": "uint256"
        }
      ],
      "stateMutability": "view",
      "type": "function"
    },
    {
      "inputs": [
        {
          "internalType": "uint256",
          "name": "_amount",
          "type": "uint256"
        }
      ],
      "name": "calculateWithdrawFee",
      "outputs": [
        {
          "internalType": "uint256",
          "name": "",
          "type": "uint256"
        }
      ],
      "stateMutability": "view",
      "type": "function"
    },
    {
      "inputs": [],
      "name": "checkReward",
      "outputs": [
        {
          "internalType": "uint256",
          "name": "",
          "type": "uint256"
        }
      ],
      "stateMutability": "view",
      "type": "function"
    },
    {
      "inputs": [],
      "name": "decimals",
      "outputs": [
        {
          "internalType": "uint8",
          "name": "",
          "type": "uint8"
        }
      ],
      "stateMutability": "view",
      "type": "function"
    },
    {
      "inputs": [
        {
          "internalType": "uint256",
          "name": "_amount",
          "type": "uint256"
        }
      ],
      "name": "deposit",
      "outputs": [],
      "stateMutability": "nonpayable",
      "type": "function"
    },
    {
      "inputs": [
        {
          "internalType": "address",
          "name": "_account",
          "type": "address"
        },
        {
          "internalType": "uint256",
          "name": "_amount",
          "type": "uint256"
        }
      ],
      "name": "depositFor",
      "outputs": [],
      "stateMutability": "nonpayable",
      "type": "function"
    },
    {
      "inputs": [],
      "name": "depositToken",
      "outputs": [
        {
          "internalType": "contract IERC20",
          "name": "",
          "type": "address"
        }
      ],
      "stateMutability": "view",
      "type": "function"
    },
    {
      "inputs": [
        {
          "internalType": "uint256",
          "name": "_amount",
          "type": "uint256"
        },
        {
          "internalType": "uint256",
          "name": "_deadline",
          "type": "uint256"
        },
        {
          "internalType": "uint8",
          "name": "_v",
          "type": "uint8"
        },
        {
          "internalType": "bytes32",
          "name": "_r",
          "type": "bytes32"
        },
        {
          "internalType": "bytes32",
          "name": "_s",
          "type": "bytes32"
        }
      ],
      "name": "depositWithPermit",
      "outputs": [],
      "stateMutability": "nonpayable",
      "type": "function"
    },
    {
      "inputs": [],
      "name": "devAddr",
      "outputs": [
        {
          "internalType": "address",
          "name": "",
          "type": "address"
        }
      ],
      "stateMutability": "view",
      "type": "function"
    },
    {
      "inputs": [],
      "name": "echidnaBooster",
      "outputs": [
        {
          "internalType": "contract IEchidnaBooster",
          "name": "",
          "type": "address"
        }
      ],
      "stateMutability": "view",
      "type": "function"
    },
    {
      "inputs": [],
      "name": "estimateDeployedBalance",
      "outputs": [
        {
          "internalType": "uint256",
          "name": "",
          "type": "uint256"
        }
      ],
      "stateMutability": "view",
      "type": "function"
    },
    {
      "inputs": [],
      "name": "estimateReinvestReward",
      "outputs": [
        {
          "internalType": "uint256",
          "name": "",
          "type": "uint256"
        }
      ],
      "stateMutability": "view",
      "type": "function"
    },
    {
      "inputs": [
        {
          "internalType": "uint256",
          "name": "amount",
          "type": "uint256"
        }
      ],
      "name": "getDepositTokensForShares",
      "outputs": [
        {
          "internalType": "uint256",
          "name": "",
          "type": "uint256"
        }
      ],
      "stateMutability": "view",
      "type": "function"
    },
    {
      "inputs": [],
      "name": "getDomainSeparator",
      "outputs": [
        {
          "internalType": "bytes32",
          "name": "",
          "type": "bytes32"
        }
      ],
      "stateMutability": "view",
      "type": "function"
    },
    {
      "inputs": [
        {
          "internalType": "uint256",
          "name": "amount",
          "type": "uint256"
        }
      ],
      "name": "getSharesForDepositTokens",
      "outputs": [
        {
          "internalType": "uint256",
          "name": "",
          "type": "uint256"
        }
      ],
      "stateMutability": "view",
      "type": "function"
    },
    {
      "inputs": [],
      "name": "name",
      "outputs": [
        {
          "internalType": "string",
          "name": "",
          "type": "string"
        }
      ],
      "stateMutability": "view",
      "type": "function"
    },
    {
      "inputs": [
        {
          "internalType": "address",
          "name": "",
          "type": "address"
        }
      ],
      "name": "nonces",
      "outputs": [
        {
          "internalType": "uint256",
          "name": "",
          "type": "uint256"
        }
      ],
      "stateMutability": "view",
      "type": "function"
    },
    {
      "inputs": [],
      "name": "numberOfAllowedDepositors",
      "outputs": [
        {
          "internalType": "uint256",
          "name": "",
          "type": "uint256"
        }
      ],
      "stateMutability": "view",
      "type": "function"
    },
    {
      "inputs": [],
      "name": "owner",
      "outputs": [
        {
          "internalType": "address",
          "name": "",
          "type": "address"
        }
      ],
      "stateMutability": "view",
      "type": "function"
    },
    {
      "inputs": [
        {
          "internalType": "address",
          "name": "owner",
          "type": "address"
        },
        {
          "internalType": "address",
          "name": "spender",
          "type": "address"
        },
        {
          "internalType": "uint256",
          "name": "value",
          "type": "uint256"
        },
        {
          "internalType": "uint256",
          "name": "deadline",
          "type": "uint256"
        },
        {
          "internalType": "uint8",
          "name": "v",
          "type": "uint8"
        },
        {
          "internalType": "bytes32",
          "name": "r",
          "type": "bytes32"
        },
        {
          "internalType": "bytes32",
          "name": "s",
          "type": "bytes32"
        }
      ],
      "name": "permit",
      "outputs": [],
      "stateMutability": "nonpayable",
      "type": "function"
    },
    {
      "inputs": [],
      "name": "platypusAsset",
      "outputs": [
        {
          "internalType": "contract IPlatypusAsset",
          "name": "",
          "type": "address"
        }
      ],
      "stateMutability": "view",
      "type": "function"
    },
    {
      "inputs": [],
      "name": "platypusPool",
      "outputs": [
        {
          "internalType": "contract IPlatypusPool",
          "name": "",
          "type": "address"
        }
      ],
      "stateMutability": "view",
      "type": "function"
    },
    {
      "inputs": [
        {
          "internalType": "uint256",
          "name": "amount",
          "type": "uint256"
        }
      ],
      "name": "recoverAVAX",
      "outputs": [],
      "stateMutability": "nonpayable",
      "type": "function"
    },
    {
      "inputs": [
        {
          "internalType": "address",
          "name": "tokenAddress",
          "type": "address"
        },
        {
          "internalType": "uint256",
          "name": "tokenAmount",
          "type": "uint256"
        }
      ],
      "name": "recoverERC20",
      "outputs": [],
      "stateMutability": "nonpayable",
      "type": "function"
    },
    {
      "inputs": [],
      "name": "reinvest",
      "outputs": [],
      "stateMutability": "nonpayable",
      "type": "function"
    },
    {
      "inputs": [
        {
          "internalType": "address",
          "name": "depositor",
          "type": "address"
        }
      ],
      "name": "removeDepositor",
      "outputs": [],
      "stateMutability": "nonpayable",
      "type": "function"
    },
    {
      "inputs": [
        {
          "internalType": "address",
          "name": "_rewardToken",
          "type": "address"
        }
      ],
      "name": "removeReward",
      "outputs": [],
      "stateMutability": "nonpayable",
      "type": "function"
    },
    {
      "inputs": [],
      "name": "renounceOwnership",
      "outputs": [],
      "stateMutability": "nonpayable",
      "type": "function"
    },
    {
      "inputs": [
        {
          "internalType": "uint256",
          "name": "_minReturnAmountAccepted",
          "type": "uint256"
        },
        {
          "internalType": "bool",
          "name": "",
          "type": "bool"
        }
      ],
      "name": "rescueDeployedFunds",
      "outputs": [],
      "stateMutability": "nonpayable",
      "type": "function"
    },
    {
      "inputs": [
        {
          "internalType": "address",
          "name": "token",
          "type": "address"
        },
        {
          "internalType": "address",
          "name": "spender",
          "type": "address"
        }
      ],
      "name": "revokeAllowance",
      "outputs": [],
      "stateMutability": "nonpayable",
      "type": "function"
    },
    {
      "inputs": [],
      "name": "rewardCount",
      "outputs": [
        {
          "internalType": "uint256",
          "name": "",
          "type": "uint256"
        }
      ],
      "stateMutability": "view",
      "type": "function"
    },
    {
      "inputs": [
        {
          "internalType": "address",
          "name": "",
          "type": "address"
        }
      ],
      "name": "rewardSwapPairs",
      "outputs": [
        {
          "internalType": "address",
          "name": "reward",
          "type": "address"
        },
        {
          "internalType": "address",
          "name": "swapPair",
          "type": "address"
        },
        {
          "internalType": "uint256",
          "name": "swapFee",
          "type": "uint256"
        }
      ],
      "stateMutability": "view",
      "type": "function"
    },
    {
      "inputs": [],
      "name": "rewardToken",
      "outputs": [
        {
          "internalType": "contract IERC20",
          "name": "",
          "type": "address"
        }
      ],
      "stateMutability": "view",
      "type": "function"
    },
    {
      "inputs": [
        {
          "internalType": "uint256",
          "name": "",
          "type": "uint256"
        }
      ],
      "name": "supportedRewards",
      "outputs": [
        {
          "internalType": "address",
          "name": "",
          "type": "address"
        }
      ],
      "stateMutability": "view",
      "type": "function"
    },
    {
      "inputs": [],
      "name": "symbol",
      "outputs": [
        {
          "internalType": "string",
          "name": "",
          "type": "string"
        }
      ],
      "stateMutability": "view",
      "type": "function"
    },
    {
      "inputs": [],
      "name": "totalDeposits",
      "outputs": [
        {
          "internalType": "uint256",
          "name": "",
          "type": "uint256"
        }
      ],
      "stateMutability": "view",
      "type": "function"
    },
    {
      "inputs": [],
      "name": "totalSupply",
      "outputs": [
        {
          "internalType": "uint256",
          "name": "",
          "type": "uint256"
        }
      ],
      "stateMutability": "view",
      "type": "function"
    },
    {
      "inputs": [
        {
          "internalType": "address",
          "name": "dst",
          "type": "address"
        },
        {
          "internalType": "uint256",
          "name": "amount",
          "type": "uint256"
        }
      ],
      "name": "transfer",
      "outputs": [
        {
          "internalType": "bool",
          "name": "",
          "type": "bool"
        }
      ],
      "stateMutability": "nonpayable",
      "type": "function"
    },
    {
      "inputs": [
        {
          "internalType": "address",
          "name": "src",
          "type": "address"
        },
        {
          "internalType": "address",
          "name": "dst",
          "type": "address"
        },
        {
          "internalType": "uint256",
          "name": "amount",
          "type": "uint256"
        }
      ],
      "name": "transferFrom",
      "outputs": [
        {
          "internalType": "bool",
          "name": "",
          "type": "bool"
        }
      ],
      "stateMutability": "nonpayable",
      "type": "function"
    },
    {
      "inputs": [
        {
          "internalType": "address",
          "name": "newOwner",
          "type": "address"
        }
      ],
      "name": "transferOwnership",
      "outputs": [],
      "stateMutability": "nonpayable",
      "type": "function"
    },
    {
      "inputs": [
        {
          "internalType": "uint256",
          "name": "newValue",
          "type": "uint256"
        }
      ],
      "name": "updateAdminFee",
      "outputs": [],
      "stateMutability": "nonpayable",
      "type": "function"
    },
    {
      "inputs": [
        {
          "internalType": "address",
          "name": "_collector",
          "type": "address"
        }
      ],
      "name": "updateBoosterFeeCollector",
      "outputs": [],
      "stateMutability": "nonpayable",
      "type": "function"
    },
    {
      "inputs": [
        {
          "internalType": "bool",
          "name": "newValue",
          "type": "bool"
        }
      ],
      "name": "updateDepositsEnabled",
      "outputs": [],
      "stateMutability": "nonpayable",
      "type": "function"
    },
    {
      "inputs": [
        {
          "internalType": "address",
          "name": "newValue",
          "type": "address"
        }
      ],
      "name": "updateDevAddr",
      "outputs": [],
      "stateMutability": "nonpayable",
      "type": "function"
    },
    {
      "inputs": [
        {
          "internalType": "uint256",
          "name": "newValue",
          "type": "uint256"
        }
      ],
      "name": "updateDevFee",
      "outputs": [],
      "stateMutability": "nonpayable",
      "type": "function"
    },
    {
      "inputs": [
        {
          "internalType": "uint256",
          "name": "newValue",
          "type": "uint256"
        }
      ],
      "name": "updateMaxTokensToDepositWithoutReinvest",
      "outputs": [],
      "stateMutability": "nonpayable",
      "type": "function"
    },
    {
      "inputs": [
        {
          "internalType": "uint256",
          "name": "newValue",
          "type": "uint256"
        }
      ],
      "name": "updateMinTokensToReinvest",
      "outputs": [],
      "stateMutability": "nonpayable",
      "type": "function"
    },
    {
      "inputs": [
        {
          "internalType": "uint256",
          "name": "newValue",
          "type": "uint256"
        }
      ],
      "name": "updateReinvestReward",
      "outputs": [],
      "stateMutability": "nonpayable",
      "type": "function"
    },
    {
      "inputs": [
        {
          "internalType": "uint256",
          "name": "_amount",
          "type": "uint256"
        }
      ],
      "name": "withdraw",
      "outputs": [],
      "stateMutability": "nonpayable",
      "type": "function"
    }
  ],
  "transactionHash": "0x3862f3722b7f46a395f0293e3a4fe754531820ee691f28466c857fa67e439b37",
  "args": [
    {
      "swapPairDepositToken": "0xed8cbd9f0ce3c6986b22002f03c6475ceb7a6256",
      "stakingContract": "0x1c898b4e77843aa3057d69350cd147c4ffdef93f",
      "platypusPool": "0x66357dcace80431aee0a7507e2e361b7e2402370",
      "pid": "0",
      "boosterFeeCollector": "0x0000000000000000000000000000000000000000"
    },
    {
      "name": "Yield Yak: Echidna USDT.e",
      "platformToken": "0xB31f66AA3C1e785363F0875A1B74E27b85FD66c7",
      "rewardSwapPairs": [
        {
          "reward": "0x22d4002028f537599be9f666d1c4fa138522f9c8",
          "swapPair": "0xcdfd91eea657cc2701117fe9711c9a4f61feed23",
          "swapFee": 3
        }
      ],
      "timelock": "0xDcEDF06Fd33E1D7b6eb4b309f779a0e9D3172e44"
    },
    {
      "depositToken": "0xc7198437980c041c805A1EDcbA50c1Ce5db95118",
      "rewardToken": "0xB31f66AA3C1e785363F0875A1B74E27b85FD66c7",
      "minTokensToReinvest": "10000000000000000",
      "devFeeBips": 500,
      "reinvestRewardBips": 500
    }
  ],
  "solcInputHash": "1c24251dfa716e6751d1e49418dc4abb",
  "bytecode": "0x6101c06040526009610180819052685969656c642059616b60b81b6101a09081526200002f916000919062000b81565b506040805180820190915260038082526216549560ea1b60209092019182526200005c9160019162000b81565b503480156200006a57600080fd5b5060405162006e6138038062006e618339810160408190526200008d9162000f47565b82518282818180600033600680546001600160a01b0319166001600160a01b0383169081179091556040519192509060009060008051602062006e41833981519152908290a35080516001600160a01b0390811660805260208201511660a0526040810151620000fd906200034c565b60608101516200010d90620003dc565b60808101516200011d9062000487565b5081518051620001369160009160209091019062000b81565b5060208201516001600160a01b031660c052600980546001600160a01b031916732d580f9cf2fb2d09bc411532988f2afda4e7beff17905560005b8260400151518110156200021357620001fe836040015182815181106200019c576200019c6200100f565b60200260200101516000015184604001518381518110620001c157620001c16200100f565b60200260200101516020015185604001518481518110620001e657620001e66200100f565b6020026020010151604001516200053260201b60201c565b806200020a816200103b565b91505062000171565b50620002206001620006de565b6060820151620002309062000788565b60408051600080825260208201527fc7606d21ac05cd309191543e409f0845c016120563783d70e4f41419dc0ef234910160405180910390a150506001600160a01b03831660e052620002838362000885565b505050606083015161010052604080840180516001600160a01b039081166101405260208601518116610120529051835192516371f9621160e01b8152928216600484015216906371f9621190602401602060405180830381865afa158015620002f1573d6000803e3d6000fd5b505050506040513d601f19601f8201168201806040525081019062000317919062001057565b6001600160a01b039081166101605260809390930151601380546001600160a01b031916919094161790925550620010d39050565b6006546001600160a01b031633146200039b5760405162461bcd60e51b8152602060048201819052602482015260008051602062006e2183398151915260448201526064015b60405180910390fd5b600a5460408051918252602082018390527f481f79ac3a523b6d6db3c5a720e190e986d1cc1b41adcdf50f9caef849901100910160405180910390a1600a55565b6006546001600160a01b03163314620004275760405162461bcd60e51b8152602060048201819052602482015260008051602062006e21833981519152604482015260640162000392565b612710600e54826200043a91906200107c565b11156200044657600080fd5b600f5460408051918252602082018390527f2a42303d002f0ba6cfe8259c91d4684443fb0b3de286ba74991175d651726131910160405180910390a1600f55565b6006546001600160a01b03163314620004d25760405162461bcd60e51b8152602060048201819052602482015260008051602062006e21833981519152604482015260640162000392565b612710600f5482620004e591906200107c565b1115620004f157600080fd5b600e5460408051918252602082018390527fe7f97d51d307dc44045597c9978bec0f842e6bb40d19b9444084cfa30d9ed4f2910160405180910390a1600e55565b60a0516001600160a01b0316836001600160a01b031614620005de5762000568828460a0516200095c60201b620027421760201c565b620005de576040805162461bcd60e51b81526020600482015260248101919091527f5661726961626c655265776172647353747261746567793a3a5377617020706160448201527f697220646f6573206e6f7420636f6e7461696e2072657761726420746f6b656e606482015260840162000392565b604080516060810182526001600160a01b03808616808352858216602080850191825284860187815260008481526010909252958120945185549085166001600160a01b03199182161786559151600180870180549290961691841691909117909455945160029094019390935560118054808401825594527f31ecc21a745e3968a04e9570e4425bc18fa8019c68028196b546d1669c200c689093018054909216909217905560125462000693916200107c565b601255604080516001600160a01b038086168252841660208201527f916e172c080569186aa7ea048268267257cf7cc49505908863f747bca8620f80910160405180910390a1505050565b6006546001600160a01b03163314620007295760405162461bcd60e51b8152602060048201819052602482015260008051602062006e21833981519152604482015260640162000392565b600c5481151560ff9091161515036200074157600080fd5b600c805460ff19168215159081179091556040519081527f7b014ed3854e7f5cb0218d58b3c6ae7d53a68bb0af2f67bfb029ea42c38a7e859060200160405180910390a150565b6006546001600160a01b03163314620007d35760405162461bcd60e51b8152602060048201819052602482015260008051602062006e21833981519152604482015260640162000392565b6001600160a01b0381166200083a5760405162461bcd60e51b815260206004820152602660248201527f4f776e61626c653a206e6577206f776e657220697320746865207a65726f206160448201526564647265737360d01b606482015260840162000392565b6006546040516001600160a01b0380841692169060008051602062006e4183398151915290600090a3600680546001600160a01b0319166001600160a01b0392909216919091179055565b6080516001600160a01b031660a0516001600160a01b0316146200095957620008bf8160805160a0516200095c60201b620027421760201c565b620009595760405162461bcd60e51b815260206004820152605a60248201527f5661726961626c65526577617264735374726174656779466f7253413a3a737760448201527f6170506169724465706f736974546f6b656e20646f6573206e6f74206d61746360648201527f68206465706f73697420616e642072657761726420746f6b656e000000000000608482015260a40162000392565b50565b6000836001600160a01b0316630dfe16816040518163ffffffff1660e01b8152600401602060405180830381865afa1580156200099d573d6000803e3d6000fd5b505050506040513d601f19601f82011682018060405250810190620009c3919062001057565b6001600160a01b0316836001600160a01b0316148062000a585750836001600160a01b031663d21220a76040518163ffffffff1660e01b8152600401602060405180830381865afa15801562000a1d573d6000803e3d6000fd5b505050506040513d601f19601f8201168201806040525081019062000a43919062001057565b6001600160a01b0316836001600160a01b0316145b801562000b5a5750836001600160a01b0316630dfe16816040518163ffffffff1660e01b8152600401602060405180830381865afa15801562000a9f573d6000803e3d6000fd5b505050506040513d601f19601f8201168201806040525081019062000ac5919062001057565b6001600160a01b0316826001600160a01b0316148062000b5a5750836001600160a01b031663d21220a76040518163ffffffff1660e01b8152600401602060405180830381865afa15801562000b1f573d6000803e3d6000fd5b505050506040513d601f19601f8201168201806040525081019062000b45919062001057565b6001600160a01b0316826001600160a01b0316145b801562000b795750816001600160a01b0316836001600160a01b031614155b949350505050565b82805462000b8f9062001097565b90600052602060002090601f01602090048101928262000bb3576000855562000bfe565b82601f1062000bce57805160ff191683800117855562000bfe565b8280016001018555821562000bfe579182015b8281111562000bfe57825182559160200191906001019062000be1565b5062000c0c92915062000c10565b5090565b5b8082111562000c0c576000815560010162000c11565b634e487b7160e01b600052604160045260246000fd5b604051606081016001600160401b038111828210171562000c625762000c6262000c27565b60405290565b604051608081016001600160401b038111828210171562000c625762000c6262000c27565b60405160a081016001600160401b038111828210171562000c625762000c6262000c27565b604051601f8201601f191681016001600160401b038111828210171562000cdd5762000cdd62000c27565b604052919050565b80516001600160a01b038116811462000cfd57600080fd5b919050565b600082601f83011262000d1457600080fd5b815160206001600160401b0382111562000d325762000d3262000c27565b62000d42818360051b0162000cb2565b8281526060928302850182019282820191908785111562000d6257600080fd5b8387015b8581101562000dc05781818a03121562000d805760008081fd5b62000d8a62000c3d565b62000d958262000ce5565b815262000da486830162000ce5565b8187015260408281015190820152845292840192810162000d66565b5090979650505050505050565b60006080828403121562000de057600080fd5b62000dea62000c68565b82519091506001600160401b038082111562000e0557600080fd5b818401915084601f83011262000e1a57600080fd5b81518181111562000e2f5762000e2f62000c27565b602062000e45601f8301601f1916820162000cb2565b828152878284870101111562000e5a57600080fd5b60005b8381101562000e7a57858101830151828201840152820162000e5d565b8381111562000e8c5760008385840101525b50855262000e9c86820162000ce5565b9085015250604084015191508082111562000eb657600080fd5b5062000ec58482850162000d02565b60408301525062000ed96060830162000ce5565b606082015292915050565b600060a0828403121562000ef757600080fd5b62000f0162000c8d565b905062000f0e8262000ce5565b815262000f1e6020830162000ce5565b602082015260408201516040820152606082015160608201526080820151608082015292915050565b600080600083850361016081121562000f5f57600080fd5b60a081121562000f6e57600080fd5b5062000f7962000c8d565b62000f848562000ce5565b815262000f946020860162000ce5565b602082015262000fa76040860162000ce5565b60408201526060850151606082015262000fc46080860162000ce5565b608082015260a08501519093506001600160401b0381111562000fe657600080fd5b62000ff48682870162000dcd565b925050620010068560c0860162000ee4565b90509250925092565b634e487b7160e01b600052603260045260246000fd5b634e487b7160e01b600052601160045260246000fd5b60006001820162001050576200105062001025565b5060010190565b6000602082840312156200106a57600080fd5b620010758262000ce5565b9392505050565b6000821982111562001092576200109262001025565b500190565b600181811c90821680620010ac57607f821691505b602082108103620010cd57634e487b7160e01b600052602260045260246000fd5b50919050565b60805160a05160c05160e05161010051610120516101405161016051615b60620012c16000396000818161061301528181612bcb01528181612e5501528181612fef01528181614a8e01528181614d420152614ebc01526000818161077c0152818161133601528181612baa01528181612d9e01528181612e2301528181612f3901528181612fbd01528181614acb01528181614bda0152614c5f0152600081816108a901528181612cf2015281816135c301528181613651015281816137be01528181614d1301528181614e140152614e8d01526000818161064301528181612ca501528181613590015281816137710152614dd801526000614991015260008181611f4d015281816146c2015281816146f101526147660152600081816109eb01528181611ede01528181611f7701528181611fe10152818161215a01528181613394015281816133d201528181613dfd01528181613e5801528181614616015281816147900152818161487001528181614918015261494f0152600081816108d801528181610c7e01528181610daf0152818161130001528181611c5201528181611ce701528181612d6b01528181612ef50152818161324301528181613680015281816148ee0152818161497001528181614afd01528181614b9d0152614c8e0152615b606000f3fe608060405234801561001057600080fd5b50600436106104215760003560e01c80638980f11f11610235578063bd079f5511610135578063dd62ed3e116100c8578063eab89a5a11610097578063f2fde38b1161007c578063f2fde38b146109d3578063f7c618c1146109e6578063fdb5a03e14610a0d57600080fd5b8063eab89a5a146109b8578063ed24911d146109cb57600080fd5b8063dd62ed3e14610946578063dd8ce4d61461097f578063e21ac82514610992578063e75ab045146109a557600080fd5b8063cff1b6ef11610104578063cff1b6ef146108fa578063d0ed26ae1461090d578063d505accf14610920578063da09c72c1461093357600080fd5b8063bd079f551461089b578063c1d8a4c5146108a4578063c4b24a46146108cb578063c89039c5146108d357600080fd5b80639e4e7318116101c8578063a9059cbb11610197578063b52a321f1161017c578063b52a321f14610873578063b6b55f2514610880578063b9e57b801461089357600080fd5b8063a9059cbb1461084d578063ac0d31ff1461086057600080fd5b80639e4e73181461079e578063a4d5e67c146107c5578063a5534e71146107d8578063a8ae2b7c1461083a57600080fd5b80639291d563116102045780639291d5631461074957806395d89b411461075c57806399729ec1146107645780639a222a891461077757600080fd5b80638980f11f146107095780638aff733d1461071c5780638b73e606146107255780638da5cb5b1461073857600080fd5b8063483c2ef0116103405780636c8b4b52116102d357806379085425116102a25780637d882097116102875780637d882097146106ce5780637ecebe00146106d657806381837230146106f657600080fd5b806379085425146106b25780637ae26773146106bb57600080fd5b80636c8b4b521461066557806370a0823114610678578063715018a6146106a1578063789139bc146106a957600080fd5b80634ebb79161161030f5780634ebb7916146105fb578063588220001461060e5780635ea682ea146106355780635eaec0e41461063e57600080fd5b8063483c2ef01461059f5780634a970be7146105c25780634bebd1e7146105d55780634e77ace5146105e857600080fd5b806323b872dd116103b857806330adf81f1161038757806330adf81f14610542578063313ce567146105695780633bdc6e721461058357806340b47e1a1461058c57600080fd5b806323b872dd146104f4578063247d284b146105075780632e1a7d4d1461051a5780632f4f21e21461052f57600080fd5b80630fccc400116103f45780630fccc4001461048657806311056035146104b157806318160ddd146104c457806320606b70146104cd57600080fd5b806306fdde03146104265780630767711114610444578063095ea7b31461045b5780630f23475d1461047e575b600080fd5b61042e610a15565b60405161043b919061554f565b60405180910390f35b61044d600d5481565b60405190815260200161043b565b61046e610469366004615577565b610aa3565b604051901515815260200161043b565b61044d610aba565b601354610499906001600160a01b031681565b6040516001600160a01b03909116815260200161043b565b61044d6104bf3660046155a3565b610ae5565b61044d60025481565b61044d7f8b73c3c69bb8fe3d512ecc4cf759cc79239f7b179b0ffacaa9a75d522b39400f81565b61046e6105023660046155bc565b610af0565b61044d6105153660046155a3565b610bb9565b61052d6105283660046155a3565b610bc4565b005b61052d61053d366004615577565b610ceb565b61044d7f6e71edae12b1b97f4d1f60370fef10105fa2faae0126114a169c64845d6126c981565b610571601281565b60405160ff909116815260200161043b565b61044d60075481565b61052d61059a3660046155fd565b610cf9565b61046e6105ad366004615636565b60086020526000908152604090205460ff1681565b61052d6105d0366004615669565b610d56565b61052d6105e3366004615636565b610e24565b61052d6105f63660046156be565b610f41565b61052d6106093660046155a3565b610fe8565b6104997f000000000000000000000000000000000000000000000000000000000000000081565b61044d600f5481565b61044d7f000000000000000000000000000000000000000000000000000000000000000081565b61052d610673366004615636565b6110a2565b61044d610686366004615636565b6001600160a01b031660009081526004602052604090205490565b61052d61110c565b61044d600b5481565b61044d60125481565b61052d6106c93660046155fd565b61119e565b61044d611262565b61044d6106e4366004615636565b60056020526000908152604090205481565b61052d6107043660046155a3565b61142f565b61052d610717366004615577565b6114b8565b61044d600e5481565b61052d610733366004615636565b6115ce565b6006546001600160a01b0316610499565b61052d610757366004615636565b61178a565b61042e611844565b61052d6107723660046155a3565b611851565b6104997f000000000000000000000000000000000000000000000000000000000000000081565b61044d7fc89efdaa54c0f20c7adf612882df0950f5a951637e0307cdcb4c672f298b8bc681565b61052d6107d3366004615636565b6118f6565b6108146107e6366004615636565b6010602052600090815260409020805460018201546002909201546001600160a01b03918216929091169083565b604080516001600160a01b0394851681529390921660208401529082015260600161043b565b61052d6108483660046155a3565b611b40565b61046e61085b366004615577565b611be5565b61052d61086e3660046156db565b611bf2565b600c5461046e9060ff1681565b61052d61088e3660046155a3565b611e64565b61044d611e71565b61044d600a5481565b6104997f000000000000000000000000000000000000000000000000000000000000000081565b61044d611eb0565b6104997f000000000000000000000000000000000000000000000000000000000000000081565b61052d6109083660046155a3565b6121f0565b61052d61091b3660046155bc565b612284565b61052d61092e366004615700565b6122e5565b600954610499906001600160a01b031681565b61044d6109543660046155fd565b6001600160a01b03918216600090815260036020908152604080832093909416825291909152205490565b61044d61098d3660046155a3565b6123f8565b61052d6109a03660046155a3565b612439565b6104996109b33660046155a3565b6124c2565b61044d6109c63660046155a3565b6124ec565b61044d612527565b61052d6109e1366004615636565b6125c7565b6104997f000000000000000000000000000000000000000000000000000000000000000081565b61052d6126e7565b60008054610a229061576e565b80601f0160208091040260200160405190810160405280929190818152602001828054610a4e9061576e565b8015610a9b5780601f10610a7057610100808354040283529160200191610a9b565b820191906000526020600020905b815481529060010190602001808311610a7e57829003601f168201915b505050505081565b6000610ab0338484612957565b5060015b92915050565b600080610ac5611262565b90506000610ad282612a65565b9050610ade81836157be565b9250505090565b6000610ab482612a65565b6001600160a01b038316600081815260036020908152604080832033808552925282205491929091908214801590610b2a57506000198114155b15610ba0576000610b3b85836157be565b6001600160a01b038881166000818152600360209081526040808320948916808452948252918290208590559051848152939450919290917f8c5be1e5ebec7d5bd14f71427d1e84f3dd0314c0f7b2291e5b200ac8c7c3b925910160405180910390a3505b610bab868686612a7f565b6001925050505b9392505050565b6000610ab482612ba3565b6000610bcf826124ec565b905060008111610c4c5760405162461bcd60e51b815260206004820152603060248201527f5661726961626c655265776172647353747261746567793a3a5769746864726160448201527f7720616d6f756e7420746f6f206c6f770000000000000000000000000000000060648201526084015b60405180910390fd5b6000610c5782612bf0565b90506000610c6483612a65565b9050610ca533610c7483856157be565b6001600160a01b037f0000000000000000000000000000000000000000000000000000000000000000169190613067565b610caf33856130ce565b60405183815233907f884edad9ce6fa2440d8a54cc123490eb96d2768479d49ff9c7366125a9424364906020015b60405180910390a250505050565b610cf58282613162565b5050565b6009546001600160a01b03163314610d4a5760405162461bcd60e51b81526020600482015260146024820152732cb0b5a9ba3930ba32b3bc9d1d37b7363ca232bb60611b6044820152606401610c43565b610cf582826003613392565b6040517fd505accf000000000000000000000000000000000000000000000000000000008152336004820152306024820152604481018690526064810185905260ff8416608482015260a4810183905260c481018290527f00000000000000000000000000000000000000000000000000000000000000006001600160a01b03169063d505accf9060e401600060405180830381600087803b158015610dfb57600080fd5b505af1158015610e0f573d6000803e3d6000fd5b50505050610e1d3386613162565b5050505050565b6006546001600160a01b03163314610e6c5760405162461bcd60e51b81526020600482018190526024820152600080516020615b0b8339815191526044820152606401610c43565b6001600160a01b03811660009081526008602052604090205460ff1615610ed55760405162461bcd60e51b815260206004820152601c60248201527f5065726d697373696f6e65643a3a616c6c6f774465706f7369746f72000000006044820152606401610c43565b6001600160a01b0381166000908152600860205260409020805460ff19166001908117909155600754610f07916157d5565b6007556040516001600160a01b038216907fc0a1035c16faf8d1304056d92c00edf028f87e62b8235a938f00af9e3c0312c590600090a250565b6006546001600160a01b03163314610f895760405162461bcd60e51b81526020600482018190526024820152600080516020615b0b8339815191526044820152606401610c43565b600c5481151560ff909116151503610fa057600080fd5b600c805460ff19168215159081179091556040519081527f7b014ed3854e7f5cb0218d58b3c6ae7d53a68bb0af2f67bfb029ea42c38a7e85906020015b60405180910390a150565b6006546001600160a01b031633146110305760405162461bcd60e51b81526020600482018190526024820152600080516020615b0b8339815191526044820152606401610c43565b6000811161103d57600080fd5b604051339082156108fc029083906000818181858888f1935050505015801561106a573d6000803e3d6000fd5b506040805160008152602081018390527f8c1256b8896378cd5044f80c202f9772b9d77dc85c8a6eb51967210b09bfaa289101610fdd565b6006546001600160a01b031633146110ea5760405162461bcd60e51b81526020600482018190526024820152600080516020615b0b8339815191526044820152606401610c43565b601380546001600160a01b0319166001600160a01b0392909216919091179055565b6006546001600160a01b031633146111545760405162461bcd60e51b81526020600482018190526024820152600080516020615b0b8339815191526044820152606401610c43565b6006546040516000916001600160a01b0316907f8be0079c531659141344cd1fd0a4f28419497f9722a3daafe3b4186f6b6457e0908390a3600680546001600160a01b0319169055565b6006546001600160a01b031633146111e65760405162461bcd60e51b81526020600482018190526024820152600080516020615b0b8339815191526044820152606401610c43565b60405163095ea7b360e01b81526001600160a01b0382811660048301526000602483015283169063095ea7b3906044016020604051808303816000875af1158015611235573d6000803e3d6000fd5b505050506040513d601f19601f8201168201806040525081019061125991906157ed565b610cf557600080fd5b60008061126d613568565b6040516370a0823160e01b81523060048201526001600160a01b0391909116906370a0823190602401602060405180830381865afa1580156112b3573d6000803e3d6000fd5b505050506040513d601f19601f820116820180604052508101906112d7919061580a565b9050806000036112e957600091505090565b60405163907448ed60e01b81526001600160a01b037f00000000000000000000000000000000000000000000000000000000000000008116600483015260248201839052600091829182917f00000000000000000000000000000000000000000000000000000000000000009091169063907448ed90604401606060405180830381865afa15801561137f573d6000803e3d6000fd5b505050506040513d601f19601f820116820180604052508101906113a39190615823565b9250925092508061141c5760405162461bcd60e51b815260206004820152602660248201527f45636869646e6153747261746567793a3a546869732073686f756c646e27742060448201527f68617070656e00000000000000000000000000000000000000000000000000006064820152608401610c43565b61142682846157d5565b94505050505090565b6006546001600160a01b031633146114775760405162461bcd60e51b81526020600482018190526024820152600080516020615b0b8339815191526044820152606401610c43565b600a5460408051918252602082018390527f481f79ac3a523b6d6db3c5a720e190e986d1cc1b41adcdf50f9caef849901100910160405180910390a1600a55565b6006546001600160a01b031633146115005760405162461bcd60e51b81526020600482018190526024820152600080516020615b0b8339815191526044820152606401610c43565b6000811161150d57600080fd5b60405163a9059cbb60e01b8152336004820152602481018290526001600160a01b0383169063a9059cbb906044016020604051808303816000875af115801561155a573d6000803e3d6000fd5b505050506040513d601f19601f8201168201806040525081019061157e91906157ed565b61158757600080fd5b604080516001600160a01b0384168152602081018390527f8c1256b8896378cd5044f80c202f9772b9d77dc85c8a6eb51967210b09bfaa2891015b60405180910390a15050565b6006546001600160a01b031633146116165760405162461bcd60e51b81526020600482018190526024820152600080516020615b0b8339815191526044820152606401610c43565b60006007541161168e5760405162461bcd60e51b815260206004820152603460248201527f5065726d697373696f6e65643a3a72656d6f76654465706f7369746f722c206e60448201527f6f20616c6c6f776564206465706f7369746f72730000000000000000000000006064820152608401610c43565b6001600160a01b03811660009081526008602052604090205460ff1615156001146117215760405162461bcd60e51b815260206004820152602a60248201527f5065726d697373696f6e65643a3a72656d6f76654465706f7369746f722c206e60448201527f6f7420616c6c6f776564000000000000000000000000000000000000000000006064820152608401610c43565b6001600160a01b0381166000908152600860205260409020805460ff19169055600754611750906001906157be565b6007556040516001600160a01b038216907f0e86f6608b536e5339a25b65ff531f5ea91e1313d056ecd4752b35cbd16137d490600090a250565b6009546001600160a01b031633146117db5760405162461bcd60e51b81526020600482015260146024820152732cb0b5a9ba3930ba32b3bc9d1d37b7363ca232bb60611b6044820152606401610c43565b600954604080516001600160a01b03928316815291831660208301527fa8e91499ed37682f43cffb045fcc7d379a91e8c9a14e6321877ee34dee564c00910160405180910390a1600980546001600160a01b0319166001600160a01b0392909216919091179055565b60018054610a229061576e565b6006546001600160a01b031633146118995760405162461bcd60e51b81526020600482018190526024820152600080516020615b0b8339815191526044820152606401610c43565b612710600e54826118aa91906157d5565b11156118b557600080fd5b600f5460408051918252602082018390527f2a42303d002f0ba6cfe8259c91d4684443fb0b3de286ba74991175d651726131910160405180910390a1600f55565b6009546001600160a01b031633146119475760405162461bcd60e51b81526020600482015260146024820152732cb0b5a9ba3930ba32b3bc9d1d37b7363ca232bb60611b6044820152606401610c43565b6001600160a01b038116600090815260106020526040812080546001600160a01b031990811682556001820180549091169055600201819055805b601154811015611a4e576011818154811061199f5761199f61585c565b6000918252602090912001546001600160a01b0390811690841603611a3c5760118054600193506119d19084906157be565b815481106119e1576119e161585c565b600091825260209091200154601180546001600160a01b039092169183908110611a0d57611a0d61585c565b9060005260206000200160006101000a8154816001600160a01b0302191690836001600160a01b031602179055505b80611a4681615872565b915050611982565b5080611ac25760405162461bcd60e51b815260206004820152603460248201527f5661726961626c655265776172647353747261746567793a3a5265776172642060448201527f746f2064656c657465206e6f7420666f756e64210000000000000000000000006064820152608401610c43565b6011805480611ad357611ad361588b565b600082815260209020810160001990810180546001600160a01b0319169055019055601254611b04906001906157be565b6012556040516001600160a01b03831681527f963b7c735475147a62c589c2d7cb8ec4b0a6b7af4f97373d79ebfa42ab8aa7dc906020016115c2565b6006546001600160a01b03163314611b885760405162461bcd60e51b81526020600482018190526024820152600080516020615b0b8339815191526044820152606401610c43565b612710600f5482611b9991906157d5565b1115611ba457600080fd5b600e5460408051918252602082018390527fe7f97d51d307dc44045597c9978bec0f842e6bb40d19b9444084cfa30d9ed4f2910160405180910390a1600e55565b6000610ab0338484612a7f565b6006546001600160a01b03163314611c3a5760405162461bcd60e51b81526020600482018190526024820152600080516020615b0b8339815191526044820152606401610c43565b6040516370a0823160e01b81523060048201526000907f00000000000000000000000000000000000000000000000000000000000000006001600160a01b0316906370a0823190602401602060405180830381865afa158015611ca1573d6000803e3d6000fd5b505050506040513d601f19601f82011682018060405250810190611cc5919061580a565b9050611ccf61363a565b6040516370a0823160e01b81523060048201526000907f00000000000000000000000000000000000000000000000000000000000000006001600160a01b0316906370a0823190602401602060405180830381865afa158015611d36573d6000803e3d6000fd5b505050506040513d601f19601f82011682018060405250810190611d5a919061580a565b905083611d6783836157be565b1015611e015760405162461bcd60e51b815260206004820152604d60248201527f5661726961626c655265776172647353747261746567793a3a456d657267656e60448201527f6379207769746864726177206d696e696d756d2072657475726e20616d6f756e60648201527f74206e6f74207265616368656400000000000000000000000000000000000000608482015260a401610c43565b7fc7606d21ac05cd309191543e409f0845c016120563783d70e4f41419dc0ef234611e2a611262565b6002546040805192835260208301919091520160405180910390a1600c5460ff161515600103611e5e57611e5e6000610f41565b50505050565b611e6e3382613162565b50565b600080611e7c611eb0565b9050600a548110611ea857612710600e5482611e9891906158a1565b611ea291906158d6565b91505090565b600091505090565b600080611ebb61381e565b6040516370a0823160e01b81523060048201529091506000906001600160a01b037f000000000000000000000000000000000000000000000000000000000000000016906370a0823190602401602060405180830381865afa158015611f25573d6000803e3d6000fd5b505050506040513d601f19601f82011682018060405250810190611f49919061580a565b90507f00000000000000000000000000000000000000000000000000000000000000006001600160a01b03167f00000000000000000000000000000000000000000000000000000000000000006001600160a01b031603611fb157611fae47826157d5565b90505b60005b82518110156121e9576000838281518110611fd157611fd161585c565b60200260200101516000015190507f00000000000000000000000000000000000000000000000000000000000000006001600160a01b0316816001600160a01b0316036120485783828151811061202a5761202a61585c565b6020026020010151602001518361204191906157d5565b92506121d6565b6001600160a01b038116156121d6576040516370a0823160e01b81523060048201526000906001600160a01b038316906370a0823190602401602060405180830381865afa15801561209e573d6000803e3d6000fd5b505050506040513d601f19601f820116820180604052508101906120c2919061580a565b905060008584815181106120d8576120d861585c565b602002602001015160200151826120ef91906157d5565b90506000601060008887815181106121095761210961585c565b602090810291909101810151516001600160a01b0390811683529082019290925260400160002060010154169050811580159061214e57506001600160a01b03811615155b156121d2576121c582857f000000000000000000000000000000000000000000000000000000000000000084601060008d8c815181106121905761219061585c565b6020026020010151600001516001600160a01b03166001600160a01b0316815260200190815260200160002060020154613b06565b6121cf90876157d5565b95505b5050505b50806121e181615872565b915050611fb4565b5092915050565b6006546001600160a01b031633146122385760405162461bcd60e51b81526020600482018190526024820152600080516020615b0b8339815191526044820152606401610c43565b801561224357600080fd5b600d5460408051918252602082018390527f3cc372f330f95ac9540626dc8a25f5bf21ba607215a5d58304cb804d446f104a910160405180910390a1600d55565b6009546001600160a01b031633146122d55760405162461bcd60e51b81526020600482015260146024820152732cb0b5a9ba3930ba32b3bc9d1d37b7363ca232bb60611b6044820152606401610c43565b6122e0838383613392565b505050565b428410156123355760405162461bcd60e51b815260206004820152600f60248201527f7065726d69743a3a6578706972656400000000000000000000000000000000006044820152606401610c43565b6001600160a01b038716600090815260056020526040812080547f6e71edae12b1b97f4d1f60370fef10105fa2faae0126114a169c64845d6126c9918a918a918a91908661238283615872565b909155506040805160208101969096526001600160a01b0394851690860152929091166060840152608083015260a082015260c0810186905260e0016040516020818303038152906040528051906020012090506123e38882868686613bd6565b6123ee888888612957565b5050505050505050565b6000612402611262565b60025461240f91906158a1565b60000361241a575090565b612422611262565b60025461242f90846158a1565b610ab491906158d6565b6006546001600160a01b031633146124815760405162461bcd60e51b81526020600482018190526024820152600080516020615b0b8339815191526044820152606401610c43565b600b5460408051918252602082018390527fa5dae50539d56dfe1fb5273d883b0c39bc76750a25d036fc5fbd09ad8fd5f57f910160405180910390a1600b55565b601181815481106124d257600080fd5b6000918252602090912001546001600160a01b0316905081565b60006124f6611262565b60025461250391906158a1565b60000361251257506000919050565b60025461251d611262565b61242f90846158a1565b60007f8b73c3c69bb8fe3d512ecc4cf759cc79239f7b179b0ffacaa9a75d522b39400f60001b600060405161255c91906158ea565b6040519081900390207fc89efdaa54c0f20c7adf612882df0950f5a951637e0307cdcb4c672f298b8bc646604080516020810195909552840192909252606083015260808201523060a082015260c00160405160208183030381529060405280519060200120905090565b6006546001600160a01b0316331461260f5760405162461bcd60e51b81526020600482018190526024820152600080516020615b0b8339815191526044820152606401610c43565b6001600160a01b03811661268b5760405162461bcd60e51b815260206004820152602660248201527f4f776e61626c653a206e6577206f776e657220697320746865207a65726f206160448201527f64647265737300000000000000000000000000000000000000000000000000006064820152608401610c43565b6006546040516001600160a01b038084169216907f8be0079c531659141344cd1fd0a4f28419497f9722a3daafe3b4186f6b6457e090600090a3600680546001600160a01b0319166001600160a01b0392909216919091179055565b3233146127365760405162461bcd60e51b815260206004820152601460248201527f59616b53747261746567793a3a6f6e6c79454f410000000000000000000000006044820152606401610c43565b6127406000613d36565b565b6000836001600160a01b0316630dfe16816040518163ffffffff1660e01b8152600401602060405180830381865afa158015612782573d6000803e3d6000fd5b505050506040513d601f19601f820116820180604052508101906127a69190615985565b6001600160a01b0316836001600160a01b031614806128375750836001600160a01b031663d21220a76040518163ffffffff1660e01b8152600401602060405180830381865afa1580156127fe573d6000803e3d6000fd5b505050506040513d601f19601f820116820180604052508101906128229190615985565b6001600160a01b0316836001600160a01b0316145b80156129315750836001600160a01b0316630dfe16816040518163ffffffff1660e01b8152600401602060405180830381865afa15801561287c573d6000803e3d6000fd5b505050506040513d601f19601f820116820180604052508101906128a09190615985565b6001600160a01b0316826001600160a01b031614806129315750836001600160a01b031663d21220a76040518163ffffffff1660e01b8152600401602060405180830381865afa1580156128f8573d6000803e3d6000fd5b505050506040513d601f19601f8201168201806040525081019061291c9190615985565b6001600160a01b0316826001600160a01b0316145b801561294f5750816001600160a01b0316836001600160a01b031614155b949350505050565b6001600160a01b0383166129ad5760405162461bcd60e51b815260206004820152601c60248201527f5f617070726f76653a3a6f776e6572207a65726f2061646472657373000000006044820152606401610c43565b6001600160a01b038216612a035760405162461bcd60e51b815260206004820152601e60248201527f5f617070726f76653a3a7370656e646572207a65726f206164647265737300006044820152606401610c43565b6001600160a01b0383811660008181526003602090815260408083209487168084529482529182902085905590518481527f8c5be1e5ebec7d5bd14f71427d1e84f3dd0314c0f7b2291e5b200ac8c7c3b92591015b60405180910390a3505050565b600080612710612a7582856158a1565b610bb291906158d6565b6001600160a01b038216612afb5760405162461bcd60e51b815260206004820152603460248201527f5f7472616e73666572546f6b656e733a2063616e6e6f74207472616e7366657260448201527f20746f20746865207a65726f20616464726573730000000000000000000000006064820152608401610c43565b6001600160a01b038316600090815260046020526040902054612b1f9082906157be565b6001600160a01b038085166000908152600460205260408082209390935590841681522054612b4f9082906157d5565b6001600160a01b0380841660008181526004602052604090819020939093559151908516907fddf252ad1be2c89b69c2b068fc378daa952ba7f163c4a11628f55a4df523b3ef90612a589085815260200190565b6000610ab47f00000000000000000000000000000000000000000000000000000000000000007f000000000000000000000000000000000000000000000000000000000000000084613f03565b600080612bfb613568565b6040516370a0823160e01b81523060048201526001600160a01b0391909116906370a0823190602401602060405180830381865afa158015612c41573d6000803e3d6000fd5b505050506040513d601f19601f82011682018060405250810190612c65919061580a565b90506000612c71611262565b612c7b83866158a1565b612c8591906158d6565b9050818111612c945780612c96565b815b604051630ab626ab60e41b81527f000000000000000000000000000000000000000000000000000000000000000060048201526024810182905260006044820181905260648201819052608482015260001960a48201529091507f00000000000000000000000000000000000000000000000000000000000000006001600160a01b03169063ab626ab09060c401600060405180830381600087803b158015612d3e57600080fd5b505af1158015612d52573d6000803e3d6000fd5b505060405163907448ed60e01b81526001600160a01b037f00000000000000000000000000000000000000000000000000000000000000008116600483015260248201859052600093507f000000000000000000000000000000000000000000000000000000000000000016915063907448ed90604401606060405180830381865afa158015612de6573d6000803e3d6000fd5b505050506040513d601f19601f82011682018060405250810190612e0a9190615823565b505060405163095ea7b360e01b81526001600160a01b037f000000000000000000000000000000000000000000000000000000000000000081166004830152602482018590529192507f00000000000000000000000000000000000000000000000000000000000000009091169063095ea7b3906044016020604051808303816000875af1158015612ea0573d6000803e3d6000fd5b505050506040513d601f19601f82011682018060405250810190612ec491906157ed565b506040517f09a5fca30000000000000000000000000000000000000000000000000000000081526001600160a01b037f000000000000000000000000000000000000000000000000000000000000000081166004830152602482018490526044820183905230606483015260001960848301527f000000000000000000000000000000000000000000000000000000000000000016906309a5fca39060a4016020604051808303816000875af1158015612f82573d6000803e3d6000fd5b505050506040513d601f19601f82011682018060405250810190612fa6919061580a565b60405163095ea7b360e01b81526001600160a01b037f000000000000000000000000000000000000000000000000000000000000000081166004830152600060248301529195507f00000000000000000000000000000000000000000000000000000000000000009091169063095ea7b3906044016020604051808303816000875af115801561303a573d6000803e3d6000fd5b505050506040513d601f19601f8201168201806040525081019061305e91906157ed565b50505050919050565b604080516001600160a01b038416602482015260448082018490528251808303909101815260649091019091526020810180517bffffffffffffffffffffffffffffffffffffffffffffffffffffffff1663a9059cbb60e01b1790526122e090849061415a565b6001600160a01b0382166000908152600460205260409020546130f29082906157be565b6001600160a01b0383166000908152600460205260409020556002546131199082906157be565b6002556040518181526000906001600160a01b038416907fddf252ad1be2c89b69c2b068fc378daa952ba7f163c4a11628f55a4df523b3ef906020015b60405180910390a35050565b600c5460ff1615156001146131df5760405162461bcd60e51b815260206004820152602a60248201527f5661726961626c655265776172647353747261746567793a3a4465706f73697460448201527f732064697361626c6564000000000000000000000000000000000000000000006064820152608401610c43565b600b5480156132085760006131f2611eb0565b905081811115613206576132066001613d36565b505b6040517f23b872dd000000000000000000000000000000000000000000000000000000008152336004820152306024820152604481018390527f00000000000000000000000000000000000000000000000000000000000000006001600160a01b0316906323b872dd906064016020604051808303816000875af1158015613294573d6000803e3d6000fd5b505050506040513d601f19601f820116820180604052508101906132b891906157ed565b61332a5760405162461bcd60e51b815260206004820152603660248201527f5661726961626c655265776172647353747261746567793a3a4465706f73697460448201527f20746f6b656e207472616e73666572206661696c6564000000000000000000006064820152608401610c43565b600061333583612ba3565b905061334d8461334861098d84876157be565b61423f565b6133578382614315565b836001600160a01b03167fe1fffcc4923d04b559f4d29a8bfc6cda04eb5b0d3c460751c2402c5c5cc9109c84604051610cdd91815260200190565b7f00000000000000000000000000000000000000000000000000000000000000006001600160a01b0316836001600160a01b03161461346a576133f682847f0000000000000000000000000000000000000000000000000000000000000000612742565b61346a576040805162461bcd60e51b81526020600482015260248101919091527f5661726961626c655265776172647353747261746567793a3a5377617020706160448201527f697220646f6573206e6f7420636f6e7461696e2072657761726420746f6b656e6064820152608401610c43565b604080516060810182526001600160a01b03808616808352858216602080850191825284860187815260008481526010909252958120945185549085166001600160a01b03199182161786559151600180870180549290961691841691909117909455945160029094019390935560118054808401825594527f31ecc21a745e3968a04e9570e4425bc18fa8019c68028196b546d1669c200c689093018054909216909217905560125461351d916157d5565b601255604080516001600160a01b038086168252841660208201527f916e172c080569186aa7ea048268267257cf7cc49505908863f747bca8620f80910160405180910390a1505050565b6040517fac4afa380000000000000000000000000000000000000000000000000000000081527f0000000000000000000000000000000000000000000000000000000000000000600482015260009081906001600160a01b037f0000000000000000000000000000000000000000000000000000000000000000169063ac4afa389060240160c060405180830381865afa15801561360a573d6000803e3d6000fd5b505050506040513d601f19601f8201168201806040525081019061362e91906159a2565b50909695505050505050565b60405163095ea7b360e01b81526001600160a01b037f000000000000000000000000000000000000000000000000000000000000000081166004830152600060248301527f0000000000000000000000000000000000000000000000000000000000000000169063095ea7b3906044016020604051808303816000875af11580156136c9573d6000803e3d6000fd5b505050506040513d601f19601f820116820180604052508101906136ed91906157ed565b5060006136f8613568565b6040516370a0823160e01b81523060048201526001600160a01b0391909116906370a0823190602401602060405180830381865afa15801561373e573d6000803e3d6000fd5b505050506040513d601f19601f82011682018060405250810190613762919061580a565b604051630ab626ab60e41b81527f000000000000000000000000000000000000000000000000000000000000000060048201526024810182905260006044820181905260648201819052608482015260001960a48201529091507f00000000000000000000000000000000000000000000000000000000000000006001600160a01b03169063ab626ab09060c401600060405180830381600087803b15801561380a57600080fd5b505af1158015610e1d573d6000803e3d6000fd5b6060600061382a613568565b90506000816001600160a01b031663d55a23f46040518163ffffffff1660e01b8152600401602060405180830381865afa15801561386c573d6000803e3d6000fd5b505050506040513d601f19601f82011682018060405250810190613890919061580a565b61389b9060016157d5565b905060008167ffffffffffffffff8111156138b8576138b8615a29565b6040519080825280602002602001820160405280156138fd57816020015b60408051808201909152600080825260208201528152602001906001900390816138d65790505b50905060008061390b614395565b604080518082019091527322d4002028f537599be9f666d1c4fa138522f9c8815291935091506020810161393f83856157be565b815250836000815181106139555761395561585c565b602090810291909101015260015b84811015613afb5760006001600160a01b0387166340c354466139876001856157be565b6040518263ffffffff1660e01b81526004016139a591815260200190565b602060405180830381865afa1580156139c2573d6000803e3d6000fd5b505050506040513d601f19601f820116820180604052508101906139e69190615985565b90506040518060400160405280826001600160a01b031663f7c618c16040518163ffffffff1660e01b8152600401602060405180830381865afa158015613a31573d6000803e3d6000fd5b505050506040513d601f19601f82011682018060405250810190613a559190615985565b6001600160a01b0390811682526040516246613160e11b815230600482015260209092019190841690628cc26290602401602060405180830381865afa158015613aa3573d6000803e3d6000fd5b505050506040513d601f19601f82011682018060405250810190613ac7919061580a565b815250858381518110613adc57613adc61585c565b6020026020010181905250508080613af390615872565b915050613963565b509195945050505050565b600080613b13868661449b565b509050600080856001600160a01b0316630902f1ac6040518163ffffffff1660e01b8152600401606060405180830381865afa158015613b57573d6000803e3d6000fd5b505050506040513d601f19601f82011682018060405250810190613b7b9190615a5d565b5091509150876001600160a01b0316836001600160a01b031614613b9b57905b613bc789836dffffffffffffffffffffffffffff16836dffffffffffffffffffffffffffff16886144cc565b93505050505b95945050505050565b6000613be0612527565b6040517f1901000000000000000000000000000000000000000000000000000000000000602082015260228101919091526042810186905260620160408051601f198184030181528282528051602091820120600080855291840180845281905260ff88169284019290925260608301869052608083018590529092509060019060a0016020604051602081039080840390855afa158015613c86573d6000803e3d6000fd5b5050604051601f1901519150506001600160a01b03811615801590613cbc5750866001600160a01b0316816001600160a01b0316145b613d2d5760405162461bcd60e51b8152602060048201526024808201527f417263683a3a76616c69646174655369673a20696e76616c6964207369676e6160448201527f74757265000000000000000000000000000000000000000000000000000000006064820152608401610c43565b50505050505050565b613d3e614526565b6000613d486145f4565b905081613dc757600a54811015613dc75760405162461bcd60e51b815260206004820152603060248201527f5661726961626c655265776172647353747261746567793a3a5265696e76657360448201527f7420616d6f756e7420746f6f206c6f77000000000000000000000000000000006064820152608401610c43565b6000612710600f5483613dda91906158a1565b613de491906158d6565b90508015613e2657600954613e26906001600160a01b037f00000000000000000000000000000000000000000000000000000000000000008116911683613067565b6000612710600e5484613e3991906158a1565b613e4391906158d6565b90508015613e7f57613e7f6001600160a01b037f0000000000000000000000000000000000000000000000000000000000000000163383613067565b6000613e9e82613e8f85876157be565b613e9991906157be565b6148ea565b90506000613eab82612ba3565b9050613eb78282614315565b7fc7606d21ac05cd309191543e409f0845c016120563783d70e4f41419dc0ef234613ee0611262565b6002546040805192835260208301919091520160405180910390a1505050505050565b600061294f846001600160a01b03166355af008a6040518163ffffffff1660e01b8152600401602060405180830381865afa158015613f46573d6000803e3d6000fd5b505050506040513d601f19601f82011682018060405250810190613f6a919061580a565b856001600160a01b0316637727c6556040518163ffffffff1660e01b8152600401602060405180830381865afa158015613fa8573d6000803e3d6000fd5b505050506040513d601f19601f82011682018060405250810190613fcc919061580a565b866001600160a01b031663a76f54d26040518163ffffffff1660e01b8152600401602060405180830381865afa15801561400a573d6000803e3d6000fd5b505050506040513d601f19601f8201168201806040525081019061402e919061580a565b876001600160a01b0316637a1c36d16040518163ffffffff1660e01b8152600401602060405180830381865afa15801561406c573d6000803e3d6000fd5b505050506040513d601f19601f82011682018060405250810190614090919061580a565b876001600160a01b031663961be3916040518163ffffffff1660e01b8152600401602060405180830381865afa1580156140ce573d6000803e3d6000fd5b505050506040513d601f19601f820116820180604052508101906140f2919061580a565b886001600160a01b031663705727b56040518163ffffffff1660e01b8152600401602060405180830381865afa158015614130573d6000803e3d6000fd5b505050506040513d601f19601f82011682018060405250810190614154919061580a565b886149b5565b60006141af826040518060400160405280602081526020017f5361666545524332303a206c6f772d6c6576656c2063616c6c206661696c6564815250856001600160a01b0316614a6b9092919063ffffffff16565b8051909150156122e057808060200190518101906141cd91906157ed565b6122e05760405162461bcd60e51b815260206004820152602a60248201527f5361666545524332303a204552433230206f7065726174696f6e20646964206e60448201527f6f742073756363656564000000000000000000000000000000000000000000006064820152608401610c43565b6000811161428f5760405162461bcd60e51b815260206004820152601260248201527f5f6d696e743a3a7a65726f2073686172657300000000000000000000000000006044820152606401610c43565b8060025461429d91906157d5565b6002556001600160a01b0382166000908152600460205260409020546142c49082906157d5565b6001600160a01b0383166000818152600460205260408082209390935591519091907fddf252ad1be2c89b69c2b068fc378daa952ba7f163c4a11628f55a4df523b3ef906131569085815260200190565b6000821161438b5760405162461bcd60e51b815260206004820152602d60248201527f5661726961626c655265776172647353747261746567793a3a5374616b65206160448201527f6d6f756e7420746f6f206c6f77000000000000000000000000000000000000006064820152608401610c43565b610cf58282614a7a565b6000806143a0613568565b6040516246613160e11b81523060048201526001600160a01b039190911690628cc26290602401602060405180830381865afa1580156143e4573d6000803e3d6000fd5b505050506040513d601f19601f82011682018060405250810190614408919061580a565b6013546040517ff2daef2c000000000000000000000000000000000000000000000000000000008152306004820152602481018390529193506001600160a01b03169063f2daef2c90604401602060405180830381865afa158015614471573d6000803e3d6000fd5b505050506040513d601f19601f82011682018060405250810190614495919061580a565b90509091565b600080826001600160a01b0316846001600160a01b0316106144be5782846144c1565b83835b915091509250929050565b6000806144db836103e86157be565b6144e590876158a1565b905060006144f385836158a1565b9050600082614504886103e86158a1565b61450e91906157d5565b905061451a81836158d6565b98975050505050505050565b6000614530614395565b91505061453b613568565b6040517f7050ccd9000000000000000000000000000000000000000000000000000000008152306004820152600160248201526001600160a01b039190911690637050ccd9906044016020604051808303816000875af11580156145a3573d6000803e3d6000fd5b505050506040513d601f19601f820116820180604052508101906145c791906157ed565b50601354611e6e907322d4002028f537599be9f666d1c4fa138522f9c8906001600160a01b031683613067565b6040516370a0823160e01b815230600482015260009081906001600160a01b037f000000000000000000000000000000000000000000000000000000000000000016906370a0823190602401602060405180830381865afa15801561465d573d6000803e3d6000fd5b505050506040513d601f19601f82011682018060405250810190614681919061580a565b60115490915060005b818110156148e2576000601182815481106146a7576146a761585c565b6000918252602090912001546001600160a01b0390811691507f00000000000000000000000000000000000000000000000000000000000000001681036147d257478015614764577f00000000000000000000000000000000000000000000000000000000000000006001600160a01b031663d0e30db0826040518263ffffffff1660e01b81526004016000604051808303818588803b15801561474a57600080fd5b505af115801561475e573d6000803e3d6000fd5b50505050505b7f00000000000000000000000000000000000000000000000000000000000000006001600160a01b03167f00000000000000000000000000000000000000000000000000000000000000006001600160a01b0316036147d0576147c781866157d5565b945050506148d0565b505b6040516370a0823160e01b81523060048201526000906001600160a01b038316906370a0823190602401602060405180830381865afa158015614819573d6000803e3d6000fd5b505050506040513d601f19601f8201168201806040525081019061483d919061580a565b905080156148cd576001600160a01b038083166000908152601060205260409020600101541680156148cb576148be82847f00000000000000000000000000000000000000000000000000000000000000008460106000896001600160a01b03166001600160a01b0316815260200190815260200160002060020154614f2b565b6148c890876157d5565b95505b505b50505b806148da81615872565b91505061468a565b509092915050565b60007f00000000000000000000000000000000000000000000000000000000000000006001600160a01b03167f00000000000000000000000000000000000000000000000000000000000000006001600160a01b031603614949575090565b610ab4827f00000000000000000000000000000000000000000000000000000000000000007f00000000000000000000000000000000000000000000000000000000000000007f00000000000000000000000000000000000000000000000000000000000000006150c8565b6000826000036149c757506000614a60565b60006149d385856150d8565b9050670de0b6b3a764000081116149ee576000915050614a60565b6000614a0d6149fd85876157d5565b614a0786896157d5565b906150d8565b90506000614a1e8b8b8b8b87615102565b90506000614a2f8c8c8c8c87615102565b9050614a3b8783615170565b614a4f82614a49898b6157d5565b90615170565b614a5991906157be565b9450505050505b979650505050505050565b606061294f8484600085615190565b6000614a8583612ba3565b90506000614ab47f000000000000000000000000000000000000000000000000000000000000000085846152cd565b60405163095ea7b360e01b81526001600160a01b037f000000000000000000000000000000000000000000000000000000000000000081166004830152602482018790529192507f00000000000000000000000000000000000000000000000000000000000000009091169063095ea7b3906044016020604051808303816000875af1158015614b48573d6000803e3d6000fd5b505050506040513d601f19601f82011682018060405250810190614b6c91906157ed565b506040517f90d250740000000000000000000000000000000000000000000000000000000081526001600160a01b037f0000000000000000000000000000000000000000000000000000000000000000811660048301526024820186905230604483015260001960648301527f000000000000000000000000000000000000000000000000000000000000000016906390d25074906084016020604051808303816000875af1158015614c23573d6000803e3d6000fd5b505050506040513d601f19601f82011682018060405250810190614c47919061580a565b5060405163095ea7b360e01b81526001600160a01b037f000000000000000000000000000000000000000000000000000000000000000081166004830152600060248301527f0000000000000000000000000000000000000000000000000000000000000000169063095ea7b3906044016020604051808303816000875af1158015614cd7573d6000803e3d6000fd5b505050506040513d601f19601f82011682018060405250810190614cfb91906157ed565b5060405163095ea7b360e01b81526001600160a01b037f000000000000000000000000000000000000000000000000000000000000000081166004830152602482018390527f0000000000000000000000000000000000000000000000000000000000000000169063095ea7b3906044016020604051808303816000875af1158015614d8b573d6000803e3d6000fd5b505050506040513d601f19601f82011682018060405250810190614daf91906157ed565b506040517ff1c583330000000000000000000000000000000000000000000000000000000081527f00000000000000000000000000000000000000000000000000000000000000006004820152602481018290526000604482015260001960648201527f00000000000000000000000000000000000000000000000000000000000000006001600160a01b03169063f1c5833390608401600060405180830381600087803b158015614e6057600080fd5b505af1158015614e74573d6000803e3d6000fd5b505060405163095ea7b360e01b81526001600160a01b037f000000000000000000000000000000000000000000000000000000000000000081166004830152600060248301527f000000000000000000000000000000000000000000000000000000000000000016925063095ea7b391506044016020604051808303816000875af1158015614f07573d6000803e3d6000fd5b505050506040513d601f19601f82011682018060405250810190610e1d91906157ed565b600080614f38868661449b565b509050600080856001600160a01b0316630902f1ac6040518163ffffffff1660e01b8152600401606060405180830381865afa158015614f7c573d6000803e3d6000fd5b505050506040513d601f19601f82011682018060405250810190614fa09190615a5d565b5091509150876001600160a01b0316836001600160a01b031614614fc057905b600080614fef8b856dffffffffffffffffffffffffffff16856dffffffffffffffffffffffffffff168a6144cc565b9050896001600160a01b0316856001600160a01b03161461500c57905b6150206001600160a01b038b16898d613067565b604080516000815260208101918290527f022c0d9f000000000000000000000000000000000000000000000000000000009091526001600160a01b0389169063022c0d9f906150789085908590309060248101615aa2565b600060405180830381600087803b15801561509257600080fd5b505af11580156150a6573d6000803e3d6000fd5b505050508181116150b757816150b9565b805b9b9a5050505050505050505050565b6000613bcd858585856003614f2b565b6000816150e66002826158d6565b6150f8670de0b6b3a7640000866158a1565b612a7591906157d5565b60008282101561511d5761511682856157be565b9050613bcd565b6151166b033b2e3c9fd0803ce8000000670de0b6b3a7640000615155888261514585896158a1565b61514f91906158d6565b9061542b565b61515f91906158a1565b61516991906158d6565b87906150d8565b6000670de0b6b3a76400006151866002826158d6565b6150f884866158a1565b6060824710156152085760405162461bcd60e51b815260206004820152602660248201527f416464726573733a20696e73756666696369656e742062616c616e636520666f60448201527f722063616c6c00000000000000000000000000000000000000000000000000006064820152608401610c43565b6001600160a01b0385163b61525f5760405162461bcd60e51b815260206004820152601d60248201527f416464726573733a2063616c6c20746f206e6f6e2d636f6e74726163740000006044820152606401610c43565b600080866001600160a01b0316858760405161527b9190615ada565b60006040518083038185875af1925050503d80600081146152b8576040519150601f19603f3d011682016040523d82523d6000602084013e6152bd565b606091505b5091509150614a608282866154a4565b6000836001600160a01b031663705727b56040518163ffffffff1660e01b8152600401602060405180830381865afa15801561530d573d6000803e3d6000fd5b505050506040513d601f19601f82011682018060405250810190615331919061580a565b6000036153495761534282846157be565b9050610bb2565b836001600160a01b031663705727b56040518163ffffffff1660e01b8152600401602060405180830381865afa158015615387573d6000803e3d6000fd5b505050506040513d601f19601f820116820180604052508101906153ab919061580a565b846001600160a01b03166318160ddd6040518163ffffffff1660e01b8152600401602060405180830381865afa1580156153e9573d6000803e3d6000fd5b505050506040513d601f19601f8201168201806040525081019061540d919061580a565b61541784866157be565b61542191906158a1565b61294f91906158d6565b6000615438600283615af6565b600003615451576b033b2e3c9fd0803ce8000000615453565b825b90506154606002836158d6565b91505b8115610ab45761547383846154dd565b9250615480600283615af6565b156154925761548f81846154dd565b90505b61549d6002836158d6565b9150615463565b606083156154b3575081610bb2565b8251156154c35782518084602001fd5b8160405162461bcd60e51b8152600401610c43919061554f565b60006b033b2e3c9fd0803ce80000006151866002826158d6565b60005b838110156155125781810151838201526020016154fa565b83811115611e5e5750506000910152565b6000815180845261553b8160208601602086016154f7565b601f01601f19169290920160200192915050565b602081526000610bb26020830184615523565b6001600160a01b0381168114611e6e57600080fd5b6000806040838503121561558a57600080fd5b823561559581615562565b946020939093013593505050565b6000602082840312156155b557600080fd5b5035919050565b6000806000606084860312156155d157600080fd5b83356155dc81615562565b925060208401356155ec81615562565b929592945050506040919091013590565b6000806040838503121561561057600080fd5b823561561b81615562565b9150602083013561562b81615562565b809150509250929050565b60006020828403121561564857600080fd5b8135610bb281615562565b803560ff8116811461566457600080fd5b919050565b600080600080600060a0868803121561568157600080fd5b853594506020860135935061569860408701615653565b94979396509394606081013594506080013592915050565b8015158114611e6e57600080fd5b6000602082840312156156d057600080fd5b8135610bb2816156b0565b600080604083850312156156ee57600080fd5b82359150602083013561562b816156b0565b600080600080600080600060e0888a03121561571b57600080fd5b873561572681615562565b9650602088013561573681615562565b9550604088013594506060880135935061575260808901615653565b925060a0880135915060c0880135905092959891949750929550565b600181811c9082168061578257607f821691505b6020821081036157a257634e487b7160e01b600052602260045260246000fd5b50919050565b634e487b7160e01b600052601160045260246000fd5b6000828210156157d0576157d06157a8565b500390565b600082198211156157e8576157e86157a8565b500190565b6000602082840312156157ff57600080fd5b8151610bb2816156b0565b60006020828403121561581c57600080fd5b5051919050565b60008060006060848603121561583857600080fd5b83519250602084015191506040840151615851816156b0565b809150509250925092565b634e487b7160e01b600052603260045260246000fd5b600060018201615884576158846157a8565b5060010190565b634e487b7160e01b600052603160045260246000fd5b60008160001904831182151516156158bb576158bb6157a8565b500290565b634e487b7160e01b600052601260045260246000fd5b6000826158e5576158e56158c0565b500490565b600080835481600182811c91508083168061590657607f831692505b6020808410820361592557634e487b7160e01b86526022600452602486fd5b818015615939576001811461594a57615977565b60ff19861689528489019650615977565b60008a81526020902060005b8681101561596f5781548b820152908501908301615956565b505084890196505b509498975050505050505050565b60006020828403121561599757600080fd5b8151610bb281615562565b60008060008060008060c087890312156159bb57600080fd5b86516159c681615562565b60208801519096506159d781615562565b60408801519095506159e881615562565b60608801519094506159f981615562565b6080880151909350615a0a816156b0565b60a0880151909250615a1b81615562565b809150509295509295509295565b634e487b7160e01b600052604160045260246000fd5b80516dffffffffffffffffffffffffffff8116811461566457600080fd5b600080600060608486031215615a7257600080fd5b615a7b84615a3f565b9250615a8960208501615a3f565b9150604084015163ffffffff8116811461585157600080fd5b8481528360208201526001600160a01b0383166040820152608060608201526000615ad06080830184615523565b9695505050505050565b60008251615aec8184602087016154f7565b9190910192915050565b600082615b0557615b056158c0565b50069056fe4f776e61626c653a2063616c6c6572206973206e6f7420746865206f776e6572a2646970667358221220debcd89de168b6a2a27a9b17305451933277a614d0a7e5bc6cd852b66806b19064736f6c634300080d00334f776e61626c653a2063616c6c6572206973206e6f7420746865206f776e65728be0079c531659141344cd1fd0a4f28419497f9722a3daafe3b4186f6b6457e0",
  "devdoc": {
    "kind": "dev",
    "methods": {
      "allowDepositor(address)": {
        "params": {
          "depositor": "address"
        }
      },
      "allowance(address,address)": {
        "params": {
          "account": "The address of the account holding the funds",
          "spender": "The address of the account spending the funds"
        },
        "returns": {
          "_0": "The number of tokens approved"
        }
      },
      "approve(address,uint256)": {
        "details": "This will overwrite the approval amount for `spender` and is subject to issues noted [here](https://eips.ethereum.org/EIPS/eip-20#approve) It is recommended to use increaseAllowance and decreaseAllowance instead",
        "params": {
          "amount": "The number of tokens that are approved (2^256-1 means infinite)",
          "spender": "The address of the account which may transfer tokens"
        },
        "returns": {
          "_0": "Whether or not the approval succeeded"
        }
      },
      "balanceOf(address)": {
        "params": {
          "account": "The address of the account to get the balance of"
        },
        "returns": {
          "_0": "The number of tokens held"
        }
      },
      "checkReward()": {
        "returns": {
          "_0": "reward tokens"
        }
      },
      "deposit(uint256)": {
        "params": {
          "_amount": "Amount of tokens to deposit"
        }
      },
      "depositWithPermit(uint256,uint256,uint8,bytes32,bytes32)": {
        "params": {
          "_amount": "Amount of tokens to deposit",
          "_deadline": "The time at which to expire the signature",
          "_r": "Half of the ECDSA signature pair",
          "_s": "Half of the ECDSA signature pair",
          "_v": "The recovery byte of the signature"
        }
      },
      "estimateDeployedBalance()": {
        "returns": {
          "_0": "deposit tokens after withdraw fee"
        }
      },
      "estimateReinvestReward()": {
        "returns": {
          "_0": "reward tokens"
        }
      },
      "getDepositTokensForShares(uint256)": {
        "params": {
          "amount": "receipt tokens"
        },
        "returns": {
          "_0": "deposit tokens"
        }
      },
      "getDomainSeparator()": {
        "returns": {
          "_0": "Separator"
        }
      },
      "getSharesForDepositTokens(uint256)": {
        "details": "If contract is empty, use 1:1 ratioCould return zero shares for very low amounts of deposit tokens",
        "params": {
          "amount": "deposit tokens"
        },
        "returns": {
          "_0": "receipt tokens"
        }
      },
      "owner()": {
        "details": "Returns the address of the current owner."
      },
      "permit(address,address,uint256,uint256,uint8,bytes32,bytes32)": {
        "params": {
          "deadline": "The time at which to expire the signature",
          "owner": "The address to approve from",
          "r": "Half of the ECDSA signature pair",
          "s": "Half of the ECDSA signature pair",
          "spender": "The address to be approved",
          "v": "The recovery byte of the signature",
          "value": "The number of tokens that are approved (2^256-1 means infinite)"
        }
      },
      "recoverAVAX(uint256)": {
        "params": {
          "amount": "amount"
        }
      },
      "recoverERC20(address,uint256)": {
        "params": {
          "tokenAddress": "token address",
          "tokenAmount": "amount to recover"
        }
      },
      "removeDepositor(address)": {
        "params": {
          "depositor": "address"
        }
      },
      "renounceOwnership()": {
        "details": "Leaves the contract without owner. It will not be possible to call `onlyOwner` functions anymore. Can only be called by the current owner. NOTE: Renouncing ownership will leave the contract without an owner, thereby removing any functionality that is only available to the owner."
      },
      "revokeAllowance(address,address)": {
        "params": {
          "spender": "address",
          "token": "address"
        }
      },
      "totalDeposits()": {
        "returns": {
          "_0": "total deposits available on the contract"
        }
      },
      "transfer(address,uint256)": {
        "params": {
          "amount": "The number of tokens to transfer",
          "dst": "The address of the destination account"
        },
        "returns": {
          "_0": "Whether or not the transfer succeeded"
        }
      },
      "transferFrom(address,address,uint256)": {
        "params": {
          "amount": "The number of tokens to transfer",
          "dst": "The address of the destination account",
          "src": "The address of the source account"
        },
        "returns": {
          "_0": "Whether or not the transfer succeeded"
        }
      },
      "transferOwnership(address)": {
        "details": "Transfers ownership of the contract to a new account (`newOwner`). Can only be called by the current owner."
      },
      "updateAdminFee(uint256)": {
        "details": "Deprecated; Kept for compatibility",
        "params": {
          "newValue": "fee in BIPS; required to be 0"
        }
      },
      "updateDepositsEnabled(bool)": {
        "params": {
          "newValue": "bool"
        }
      },
      "updateDevAddr(address)": {
        "params": {
          "newValue": "address"
        }
      },
      "updateDevFee(uint256)": {
        "params": {
          "newValue": "fee in BIPS"
        }
      },
      "updateMaxTokensToDepositWithoutReinvest(uint256)": {
        "params": {
          "newValue": "threshold"
        }
      },
      "updateMinTokensToReinvest(uint256)": {
        "params": {
          "newValue": "threshold"
        }
      },
      "updateReinvestReward(uint256)": {
        "params": {
          "newValue": "fee in BIPS"
        }
      }
    },
    "version": 1
  },
  "userdoc": {
    "kind": "user",
    "methods": {
      "allowDepositor(address)": {
        "notice": "Add an allowed depositor"
      },
      "allowance(address,address)": {
        "notice": "Get the number of tokens `spender` is approved to spend on behalf of `account`"
      },
      "approve(address,uint256)": {
        "notice": "Approve `spender` to transfer up to `amount` from `src`"
      },
      "balanceOf(address)": {
        "notice": "Get the number of tokens held by the `account`"
      },
      "checkReward()": {
        "notice": "Reward tokens available to strategy, including balance"
      },
      "deposit(uint256)": {
        "notice": "Deposit tokens to receive receipt tokens"
      },
      "depositWithPermit(uint256,uint256,uint8,bytes32,bytes32)": {
        "notice": "Deposit using Permit"
      },
      "estimateDeployedBalance()": {
        "notice": "Estimate recoverable balance after withdraw fee"
      },
      "estimateReinvestReward()": {
        "notice": "Estimate reinvest reward"
      },
      "getDepositTokensForShares(uint256)": {
        "notice": "Calculate deposit tokens for a given amount of receipt tokens"
      },
      "getDomainSeparator()": {
        "notice": "EIP-712 Domain separator"
      },
      "getSharesForDepositTokens(uint256)": {
        "notice": "Calculate receipt tokens for a given amount of deposit tokens"
      },
      "permit(address,address,uint256,uint256,uint8,bytes32,bytes32)": {
        "notice": "Triggers an approval from owner to spender"
      },
      "recoverAVAX(uint256)": {
        "notice": "Recover AVAX from contract"
      },
      "recoverERC20(address,uint256)": {
        "notice": "Recover ERC20 from contract"
      },
      "reinvest()": {
        "notice": "Reinvest reward tokens into deposit tokens"
      },
      "removeDepositor(address)": {
        "notice": "Remove an allowed depositor"
      },
      "revokeAllowance(address,address)": {
        "notice": "Revoke token allowance"
      },
      "totalDeposits()": {
        "notice": "This function returns a snapshot of last available quotes"
      },
      "transfer(address,uint256)": {
        "notice": "Transfer `amount` tokens from `msg.sender` to `dst`"
      },
      "transferFrom(address,address,uint256)": {
        "notice": "Transfer `amount` tokens from `src` to `dst`"
      },
      "updateAdminFee(uint256)": {
        "notice": "Update admin fee"
      },
      "updateDepositsEnabled(bool)": {
        "notice": "Enable/disable deposits"
      },
      "updateDevAddr(address)": {
        "notice": "Update devAddr"
      },
      "updateDevFee(uint256)": {
        "notice": "Update developer fee"
      },
      "updateMaxTokensToDepositWithoutReinvest(uint256)": {
        "notice": "Update reinvest max threshold before a deposit"
      },
      "updateMinTokensToReinvest(uint256)": {
        "notice": "Update reinvest min threshold"
      },
      "updateReinvestReward(uint256)": {
        "notice": "Update reinvest reward"
      }
    },
    "version": 1
  },
  "storageLayout": {
    "storage": [
      {
        "astId": 552,
        "contract": "contracts/strategies/avalanche/echidna/EchidnaStrategy.sol:EchidnaStrategy",
        "label": "name",
        "offset": 0,
        "slot": "0",
        "type": "t_string_storage"
      },
      {
        "astId": 555,
        "contract": "contracts/strategies/avalanche/echidna/EchidnaStrategy.sol:EchidnaStrategy",
        "label": "symbol",
        "offset": 0,
        "slot": "1",
        "type": "t_string_storage"
      },
      {
        "astId": 560,
        "contract": "contracts/strategies/avalanche/echidna/EchidnaStrategy.sol:EchidnaStrategy",
        "label": "totalSupply",
        "offset": 0,
        "slot": "2",
        "type": "t_uint256"
      },
      {
        "astId": 566,
        "contract": "contracts/strategies/avalanche/echidna/EchidnaStrategy.sol:EchidnaStrategy",
        "label": "allowances",
        "offset": 0,
        "slot": "3",
        "type": "t_mapping(t_address,t_mapping(t_address,t_uint256))"
      },
      {
        "astId": 570,
        "contract": "contracts/strategies/avalanche/echidna/EchidnaStrategy.sol:EchidnaStrategy",
        "label": "balances",
        "offset": 0,
        "slot": "4",
        "type": "t_mapping(t_address,t_uint256)"
      },
      {
        "astId": 586,
        "contract": "contracts/strategies/avalanche/echidna/EchidnaStrategy.sol:EchidnaStrategy",
        "label": "nonces",
        "offset": 0,
        "slot": "5",
        "type": "t_mapping(t_address,t_uint256)"
      },
      {
        "astId": 8047,
        "contract": "contracts/strategies/avalanche/echidna/EchidnaStrategy.sol:EchidnaStrategy",
        "label": "_owner",
        "offset": 0,
        "slot": "6",
        "type": "t_address"
      },
      {
        "astId": 8156,
        "contract": "contracts/strategies/avalanche/echidna/EchidnaStrategy.sol:EchidnaStrategy",
        "label": "numberOfAllowedDepositors",
        "offset": 0,
        "slot": "7",
        "type": "t_uint256"
      },
      {
        "astId": 8160,
        "contract": "contracts/strategies/avalanche/echidna/EchidnaStrategy.sol:EchidnaStrategy",
        "label": "allowedDepositors",
        "offset": 0,
        "slot": "8",
        "type": "t_mapping(t_address,t_bool)"
      },
      {
        "astId": 1962,
        "contract": "contracts/strategies/avalanche/echidna/EchidnaStrategy.sol:EchidnaStrategy",
        "label": "devAddr",
        "offset": 0,
        "slot": "9",
        "type": "t_address"
      },
      {
        "astId": 1964,
        "contract": "contracts/strategies/avalanche/echidna/EchidnaStrategy.sol:EchidnaStrategy",
        "label": "MIN_TOKENS_TO_REINVEST",
        "offset": 0,
        "slot": "10",
        "type": "t_uint256"
      },
      {
        "astId": 1966,
        "contract": "contracts/strategies/avalanche/echidna/EchidnaStrategy.sol:EchidnaStrategy",
        "label": "MAX_TOKENS_TO_DEPOSIT_WITHOUT_REINVEST",
        "offset": 0,
        "slot": "11",
        "type": "t_uint256"
      },
      {
        "astId": 1968,
        "contract": "contracts/strategies/avalanche/echidna/EchidnaStrategy.sol:EchidnaStrategy",
        "label": "DEPOSITS_ENABLED",
        "offset": 0,
        "slot": "12",
        "type": "t_bool"
      },
      {
        "astId": 1970,
        "contract": "contracts/strategies/avalanche/echidna/EchidnaStrategy.sol:EchidnaStrategy",
        "label": "ADMIN_FEE_BIPS",
        "offset": 0,
        "slot": "13",
        "type": "t_uint256"
      },
      {
        "astId": 1972,
        "contract": "contracts/strategies/avalanche/echidna/EchidnaStrategy.sol:EchidnaStrategy",
        "label": "REINVEST_REWARD_BIPS",
        "offset": 0,
        "slot": "14",
        "type": "t_uint256"
      },
      {
        "astId": 1974,
        "contract": "contracts/strategies/avalanche/echidna/EchidnaStrategy.sol:EchidnaStrategy",
        "label": "DEV_FEE_BIPS",
        "offset": 0,
        "slot": "15",
        "type": "t_uint256"
      },
      {
        "astId": 11911,
        "contract": "contracts/strategies/avalanche/echidna/EchidnaStrategy.sol:EchidnaStrategy",
        "label": "rewardSwapPairs",
        "offset": 0,
        "slot": "16",
        "type": "t_mapping(t_address,t_struct(RewardSwapPair)11906_storage)"
      },
      {
        "astId": 11914,
        "contract": "contracts/strategies/avalanche/echidna/EchidnaStrategy.sol:EchidnaStrategy",
        "label": "supportedRewards",
        "offset": 0,
        "slot": "17",
        "type": "t_array(t_address)dyn_storage"
      },
      {
        "astId": 11916,
        "contract": "contracts/strategies/avalanche/echidna/EchidnaStrategy.sol:EchidnaStrategy",
        "label": "rewardCount",
        "offset": 0,
        "slot": "18",
        "type": "t_uint256"
      },
      {
        "astId": 30265,
        "contract": "contracts/strategies/avalanche/echidna/EchidnaStrategy.sol:EchidnaStrategy",
        "label": "boosterFeeCollector",
        "offset": 0,
        "slot": "19",
        "type": "t_contract(IBoosterFeeCollector)5212"
      }
    ],
    "types": {
      "t_address": {
        "encoding": "inplace",
        "label": "address",
        "numberOfBytes": "20"
      },
      "t_array(t_address)dyn_storage": {
        "base": "t_address",
        "encoding": "dynamic_array",
        "label": "address[]",
        "numberOfBytes": "32"
      },
      "t_bool": {
        "encoding": "inplace",
        "label": "bool",
        "numberOfBytes": "1"
      },
      "t_contract(IBoosterFeeCollector)5212": {
        "encoding": "inplace",
        "label": "contract IBoosterFeeCollector",
        "numberOfBytes": "20"
      },
      "t_mapping(t_address,t_bool)": {
        "encoding": "mapping",
        "key": "t_address",
        "label": "mapping(address => bool)",
        "numberOfBytes": "32",
        "value": "t_bool"
      },
      "t_mapping(t_address,t_mapping(t_address,t_uint256))": {
        "encoding": "mapping",
        "key": "t_address",
        "label": "mapping(address => mapping(address => uint256))",
        "numberOfBytes": "32",
        "value": "t_mapping(t_address,t_uint256)"
      },
      "t_mapping(t_address,t_struct(RewardSwapPair)11906_storage)": {
        "encoding": "mapping",
        "key": "t_address",
        "label": "mapping(address => struct VariableRewardsStrategy.RewardSwapPair)",
        "numberOfBytes": "32",
        "value": "t_struct(RewardSwapPair)11906_storage"
      },
      "t_mapping(t_address,t_uint256)": {
        "encoding": "mapping",
        "key": "t_address",
        "label": "mapping(address => uint256)",
        "numberOfBytes": "32",
        "value": "t_uint256"
      },
      "t_string_storage": {
        "encoding": "bytes",
        "label": "string",
        "numberOfBytes": "32"
      },
      "t_struct(RewardSwapPair)11906_storage": {
        "encoding": "inplace",
        "label": "struct VariableRewardsStrategy.RewardSwapPair",
        "members": [
          {
            "astId": 11901,
            "contract": "contracts/strategies/avalanche/echidna/EchidnaStrategy.sol:EchidnaStrategy",
            "label": "reward",
            "offset": 0,
            "slot": "0",
            "type": "t_address"
          },
          {
            "astId": 11903,
            "contract": "contracts/strategies/avalanche/echidna/EchidnaStrategy.sol:EchidnaStrategy",
            "label": "swapPair",
            "offset": 0,
            "slot": "1",
            "type": "t_address"
          },
          {
            "astId": 11905,
            "contract": "contracts/strategies/avalanche/echidna/EchidnaStrategy.sol:EchidnaStrategy",
            "label": "swapFee",
            "offset": 0,
            "slot": "2",
            "type": "t_uint256"
          }
        ],
        "numberOfBytes": "96"
      },
      "t_uint256": {
        "encoding": "inplace",
        "label": "uint256",
        "numberOfBytes": "32"
      }
    }
  }
}