{
  "address": "0xCFb41b7f2C09DF5a736de64B007F946807E1c7B2",
  "abi": [
    {
      "inputs": [
        {
          "internalType": "string",
          "name": "_name",
          "type": "string"
        },
        {
          "internalType": "address",
          "name": "_depositToken",
          "type": "address"
        },
        {
          "internalType": "address",
          "name": "_swapPairDepositToken",
          "type": "address"
        },
        {
          "components": [
            {
              "internalType": "address",
              "name": "reward",
              "type": "address"
            },
            {
              "internalType": "address",
              "name": "swapPair",
              "type": "address"
            }
          ],
          "internalType": "struct VariableRewardsStrategy.RewardSwapPairs[]",
          "name": "_rewardSwapPairs",
          "type": "tuple[]"
        },
        {
          "internalType": "address",
          "name": "_stakingContract",
          "type": "address"
        },
        {
          "internalType": "address",
          "name": "_platypusPool",
          "type": "address"
        },
        {
          "internalType": "uint256",
          "name": "_pid",
          "type": "uint256"
        },
        {
          "internalType": "address",
          "name": "_boosterFeeCollector",
          "type": "address"
        },
        {
          "internalType": "address",
          "name": "_timelock",
          "type": "address"
        },
        {
          "components": [
            {
              "internalType": "uint256",
              "name": "minTokensToReinvest",
              "type": "uint256"
            },
            {
              "internalType": "uint256",
              "name": "adminFeeBips",
              "type": "uint256"
            },
            {
              "internalType": "uint256",
              "name": "devFeeBips",
              "type": "uint256"
            },
            {
              "internalType": "uint256",
              "name": "reinvestRewardBips",
              "type": "uint256"
            }
          ],
          "internalType": "struct VariableRewardsStrategy.StrategySettings",
          "name": "_strategySettings",
          "type": "tuple"
        }
      ],
      "stateMutability": "nonpayable",
      "type": "constructor"
    },
    {
      "anonymous": false,
      "inputs": [
        {
          "indexed": false,
          "internalType": "address",
          "name": "rewardToken",
          "type": "address"
        },
        {
          "indexed": false,
          "internalType": "address",
          "name": "swapPair",
          "type": "address"
        }
      ],
      "name": "AddReward",
      "type": "event"
    },
    {
      "anonymous": false,
      "inputs": [
        {
          "indexed": true,
          "internalType": "address",
          "name": "account",
          "type": "address"
        }
      ],
      "name": "AllowDepositor",
      "type": "event"
    },
    {
      "anonymous": false,
      "inputs": [
        {
          "indexed": true,
          "internalType": "address",
          "name": "owner",
          "type": "address"
        },
        {
          "indexed": true,
          "internalType": "address",
          "name": "spender",
          "type": "address"
        },
        {
          "indexed": false,
          "internalType": "uint256",
          "name": "value",
          "type": "uint256"
        }
      ],
      "name": "Approval",
      "type": "event"
    },
    {
      "anonymous": false,
      "inputs": [
        {
          "indexed": true,
          "internalType": "address",
          "name": "account",
          "type": "address"
        },
        {
          "indexed": false,
          "internalType": "uint256",
          "name": "amount",
          "type": "uint256"
        }
      ],
      "name": "Deposit",
      "type": "event"
    },
    {
      "anonymous": false,
      "inputs": [
        {
          "indexed": false,
          "internalType": "bool",
          "name": "newValue",
          "type": "bool"
        }
      ],
      "name": "DepositsEnabled",
      "type": "event"
    },
    {
      "anonymous": false,
      "inputs": [
        {
          "indexed": true,
          "internalType": "address",
          "name": "previousOwner",
          "type": "address"
        },
        {
          "indexed": true,
          "internalType": "address",
          "name": "newOwner",
          "type": "address"
        }
      ],
      "name": "OwnershipTransferred",
      "type": "event"
    },
    {
      "anonymous": false,
      "inputs": [
        {
          "indexed": false,
          "internalType": "address",
          "name": "token",
          "type": "address"
        },
        {
          "indexed": false,
          "internalType": "uint256",
          "name": "amount",
          "type": "uint256"
        }
      ],
      "name": "Recovered",
      "type": "event"
    },
    {
      "anonymous": false,
      "inputs": [
        {
          "indexed": false,
          "internalType": "uint256",
          "name": "newTotalDeposits",
          "type": "uint256"
        },
        {
          "indexed": false,
          "internalType": "uint256",
          "name": "newTotalSupply",
          "type": "uint256"
        }
      ],
      "name": "Reinvest",
      "type": "event"
    },
    {
      "anonymous": false,
      "inputs": [
        {
          "indexed": true,
          "internalType": "address",
          "name": "account",
          "type": "address"
        }
      ],
      "name": "RemoveDepositor",
      "type": "event"
    },
    {
      "anonymous": false,
      "inputs": [
        {
          "indexed": false,
          "internalType": "address",
          "name": "rewardToken",
          "type": "address"
        }
      ],
      "name": "RemoveReward",
      "type": "event"
    },
    {
      "anonymous": false,
      "inputs": [
        {
          "indexed": true,
          "internalType": "address",
          "name": "from",
          "type": "address"
        },
        {
          "indexed": true,
          "internalType": "address",
          "name": "to",
          "type": "address"
        },
        {
          "indexed": false,
          "internalType": "uint256",
          "name": "value",
          "type": "uint256"
        }
      ],
      "name": "Transfer",
      "type": "event"
    },
    {
      "anonymous": false,
      "inputs": [
        {
          "indexed": false,
          "internalType": "uint256",
          "name": "oldValue",
          "type": "uint256"
        },
        {
          "indexed": false,
          "internalType": "uint256",
          "name": "newValue",
          "type": "uint256"
        }
      ],
      "name": "UpdateAdminFee",
      "type": "event"
    },
    {
      "anonymous": false,
      "inputs": [
        {
          "indexed": false,
          "internalType": "address",
          "name": "oldValue",
          "type": "address"
        },
        {
          "indexed": false,
          "internalType": "address",
          "name": "newValue",
          "type": "address"
        }
      ],
      "name": "UpdateDevAddr",
      "type": "event"
    },
    {
      "anonymous": false,
      "inputs": [
        {
          "indexed": false,
          "internalType": "uint256",
          "name": "oldValue",
          "type": "uint256"
        },
        {
          "indexed": false,
          "internalType": "uint256",
          "name": "newValue",
          "type": "uint256"
        }
      ],
      "name": "UpdateDevFee",
      "type": "event"
    },
    {
      "anonymous": false,
      "inputs": [
        {
          "indexed": false,
          "internalType": "uint256",
          "name": "oldValue",
          "type": "uint256"
        },
        {
          "indexed": false,
          "internalType": "uint256",
          "name": "newValue",
          "type": "uint256"
        }
      ],
      "name": "UpdateMaxTokensToDepositWithoutReinvest",
      "type": "event"
    },
    {
      "anonymous": false,
      "inputs": [
        {
          "indexed": false,
          "internalType": "uint256",
          "name": "oldValue",
          "type": "uint256"
        },
        {
          "indexed": false,
          "internalType": "uint256",
          "name": "newValue",
          "type": "uint256"
        }
      ],
      "name": "UpdateMinTokensToReinvest",
      "type": "event"
    },
    {
      "anonymous": false,
      "inputs": [
        {
          "indexed": false,
          "internalType": "uint256",
          "name": "oldValue",
          "type": "uint256"
        },
        {
          "indexed": false,
          "internalType": "uint256",
          "name": "newValue",
          "type": "uint256"
        }
      ],
      "name": "UpdateReinvestReward",
      "type": "event"
    },
    {
      "anonymous": false,
      "inputs": [
        {
          "indexed": true,
          "internalType": "address",
          "name": "account",
          "type": "address"
        },
        {
          "indexed": false,
          "internalType": "uint256",
          "name": "amount",
          "type": "uint256"
        }
      ],
      "name": "Withdraw",
      "type": "event"
    },
    {
      "inputs": [],
      "name": "ADMIN_FEE_BIPS",
      "outputs": [
        {
          "internalType": "uint256",
          "name": "",
          "type": "uint256"
        }
      ],
      "stateMutability": "view",
      "type": "function"
    },
    {
      "inputs": [],
      "name": "DEPOSITS_ENABLED",
      "outputs": [
        {
          "internalType": "bool",
          "name": "",
          "type": "bool"
        }
      ],
      "stateMutability": "view",
      "type": "function"
    },
    {
      "inputs": [],
      "name": "DEV_FEE_BIPS",
      "outputs": [
        {
          "internalType": "uint256",
          "name": "",
          "type": "uint256"
        }
      ],
      "stateMutability": "view",
      "type": "function"
    },
    {
      "inputs": [],
      "name": "DOMAIN_TYPEHASH",
      "outputs": [
        {
          "internalType": "bytes32",
          "name": "",
          "type": "bytes32"
        }
      ],
      "stateMutability": "view",
      "type": "function"
    },
    {
      "inputs": [],
      "name": "MAX_TOKENS_TO_DEPOSIT_WITHOUT_REINVEST",
      "outputs": [
        {
          "internalType": "uint256",
          "name": "",
          "type": "uint256"
        }
      ],
      "stateMutability": "view",
      "type": "function"
    },
    {
      "inputs": [],
      "name": "MIN_TOKENS_TO_REINVEST",
      "outputs": [
        {
          "internalType": "uint256",
          "name": "",
          "type": "uint256"
        }
      ],
      "stateMutability": "view",
      "type": "function"
    },
    {
      "inputs": [],
      "name": "PERMIT_TYPEHASH",
      "outputs": [
        {
          "internalType": "bytes32",
          "name": "",
          "type": "bytes32"
        }
      ],
      "stateMutability": "view",
      "type": "function"
    },
    {
      "inputs": [],
      "name": "PID",
      "outputs": [
        {
          "internalType": "uint256",
          "name": "",
          "type": "uint256"
        }
      ],
      "stateMutability": "view",
      "type": "function"
    },
    {
      "inputs": [],
      "name": "REINVEST_REWARD_BIPS",
      "outputs": [
        {
          "internalType": "uint256",
          "name": "",
          "type": "uint256"
        }
      ],
      "stateMutability": "view",
      "type": "function"
    },
    {
      "inputs": [],
      "name": "VERSION_HASH",
      "outputs": [
        {
          "internalType": "bytes32",
          "name": "",
          "type": "bytes32"
        }
      ],
      "stateMutability": "view",
      "type": "function"
    },
    {
      "inputs": [
        {
          "internalType": "address",
          "name": "_rewardToken",
          "type": "address"
        },
        {
          "internalType": "address",
          "name": "_swapPair",
          "type": "address"
        }
      ],
      "name": "addReward",
      "outputs": [],
      "stateMutability": "nonpayable",
      "type": "function"
    },
    {
      "inputs": [
        {
          "internalType": "address",
          "name": "depositor",
          "type": "address"
        }
      ],
      "name": "allowDepositor",
      "outputs": [],
      "stateMutability": "nonpayable",
      "type": "function"
    },
    {
      "inputs": [
        {
          "internalType": "address",
          "name": "account",
          "type": "address"
        },
        {
          "internalType": "address",
          "name": "spender",
          "type": "address"
        }
      ],
      "name": "allowance",
      "outputs": [
        {
          "internalType": "uint256",
          "name": "",
          "type": "uint256"
        }
      ],
      "stateMutability": "view",
      "type": "function"
    },
    {
      "inputs": [
        {
          "internalType": "address",
          "name": "",
          "type": "address"
        }
      ],
      "name": "allowedDepositors",
      "outputs": [
        {
          "internalType": "bool",
          "name": "",
          "type": "bool"
        }
      ],
      "stateMutability": "view",
      "type": "function"
    },
    {
      "inputs": [
        {
          "internalType": "address",
          "name": "spender",
          "type": "address"
        },
        {
          "internalType": "uint256",
          "name": "amount",
          "type": "uint256"
        }
      ],
      "name": "approve",
      "outputs": [
        {
          "internalType": "bool",
          "name": "",
          "type": "bool"
        }
      ],
      "stateMutability": "nonpayable",
      "type": "function"
    },
    {
      "inputs": [
        {
          "internalType": "address",
          "name": "account",
          "type": "address"
        }
      ],
      "name": "balanceOf",
      "outputs": [
        {
          "internalType": "uint256",
          "name": "",
          "type": "uint256"
        }
      ],
      "stateMutability": "view",
      "type": "function"
    },
    {
      "inputs": [],
      "name": "boosterFeeCollector",
      "outputs": [
        {
          "internalType": "contract IBoosterFeeCollector",
          "name": "",
          "type": "address"
        }
      ],
      "stateMutability": "view",
      "type": "function"
    },
    {
      "inputs": [
        {
          "internalType": "uint256",
          "name": "_amount",
          "type": "uint256"
        }
      ],
      "name": "calculateDepositFee",
      "outputs": [
        {
          "internalType": "uint256",
          "name": "",
          "type": "uint256"
        }
      ],
      "stateMutability": "view",
      "type": "function"
    },
    {
      "inputs": [
        {
          "internalType": "uint256",
          "name": "_amount",
          "type": "uint256"
        }
      ],
      "name": "calculateWithdrawFee",
      "outputs": [
        {
          "internalType": "uint256",
          "name": "",
          "type": "uint256"
        }
      ],
      "stateMutability": "view",
      "type": "function"
    },
    {
      "inputs": [],
      "name": "checkReward",
      "outputs": [
        {
          "internalType": "uint256",
          "name": "",
          "type": "uint256"
        }
      ],
      "stateMutability": "view",
      "type": "function"
    },
    {
      "inputs": [],
      "name": "decimals",
      "outputs": [
        {
          "internalType": "uint8",
          "name": "",
          "type": "uint8"
        }
      ],
      "stateMutability": "view",
      "type": "function"
    },
    {
      "inputs": [
        {
          "internalType": "uint256",
          "name": "_amount",
          "type": "uint256"
        }
      ],
      "name": "deposit",
      "outputs": [],
      "stateMutability": "nonpayable",
      "type": "function"
    },
    {
      "inputs": [
        {
          "internalType": "address",
          "name": "_account",
          "type": "address"
        },
        {
          "internalType": "uint256",
          "name": "_amount",
          "type": "uint256"
        }
      ],
      "name": "depositFor",
      "outputs": [],
      "stateMutability": "nonpayable",
      "type": "function"
    },
    {
      "inputs": [],
      "name": "depositToken",
      "outputs": [
        {
          "internalType": "contract IERC20",
          "name": "",
          "type": "address"
        }
      ],
      "stateMutability": "view",
      "type": "function"
    },
    {
      "inputs": [
        {
          "internalType": "uint256",
          "name": "_amount",
          "type": "uint256"
        },
        {
          "internalType": "uint256",
          "name": "_deadline",
          "type": "uint256"
        },
        {
          "internalType": "uint8",
          "name": "_v",
          "type": "uint8"
        },
        {
          "internalType": "bytes32",
          "name": "_r",
          "type": "bytes32"
        },
        {
          "internalType": "bytes32",
          "name": "_s",
          "type": "bytes32"
        }
      ],
      "name": "depositWithPermit",
      "outputs": [],
      "stateMutability": "nonpayable",
      "type": "function"
    },
    {
      "inputs": [],
      "name": "devAddr",
      "outputs": [
        {
          "internalType": "address",
          "name": "",
          "type": "address"
        }
      ],
      "stateMutability": "view",
      "type": "function"
    },
    {
      "inputs": [],
      "name": "echidnaBooster",
      "outputs": [
        {
          "internalType": "contract IEchidnaBooster",
          "name": "",
          "type": "address"
        }
      ],
      "stateMutability": "view",
      "type": "function"
    },
    {
      "inputs": [],
      "name": "estimateDeployedBalance",
      "outputs": [
        {
          "internalType": "uint256",
          "name": "",
          "type": "uint256"
        }
      ],
      "stateMutability": "view",
      "type": "function"
    },
    {
      "inputs": [],
      "name": "estimateReinvestReward",
      "outputs": [
        {
          "internalType": "uint256",
          "name": "",
          "type": "uint256"
        }
      ],
      "stateMutability": "view",
      "type": "function"
    },
    {
      "inputs": [
        {
          "internalType": "uint256",
          "name": "amount",
          "type": "uint256"
        }
      ],
      "name": "getDepositTokensForShares",
      "outputs": [
        {
          "internalType": "uint256",
          "name": "",
          "type": "uint256"
        }
      ],
      "stateMutability": "view",
      "type": "function"
    },
    {
      "inputs": [],
      "name": "getDomainSeparator",
      "outputs": [
        {
          "internalType": "bytes32",
          "name": "",
          "type": "bytes32"
        }
      ],
      "stateMutability": "view",
      "type": "function"
    },
    {
      "inputs": [
        {
          "internalType": "uint256",
          "name": "amount",
          "type": "uint256"
        }
      ],
      "name": "getSharesForDepositTokens",
      "outputs": [
        {
          "internalType": "uint256",
          "name": "",
          "type": "uint256"
        }
      ],
      "stateMutability": "view",
      "type": "function"
    },
    {
      "inputs": [],
      "name": "name",
      "outputs": [
        {
          "internalType": "string",
          "name": "",
          "type": "string"
        }
      ],
      "stateMutability": "view",
      "type": "function"
    },
    {
      "inputs": [
        {
          "internalType": "address",
          "name": "",
          "type": "address"
        }
      ],
      "name": "nonces",
      "outputs": [
        {
          "internalType": "uint256",
          "name": "",
          "type": "uint256"
        }
      ],
      "stateMutability": "view",
      "type": "function"
    },
    {
      "inputs": [],
      "name": "numberOfAllowedDepositors",
      "outputs": [
        {
          "internalType": "uint256",
          "name": "",
          "type": "uint256"
        }
      ],
      "stateMutability": "view",
      "type": "function"
    },
    {
      "inputs": [],
      "name": "owner",
      "outputs": [
        {
          "internalType": "address",
          "name": "",
          "type": "address"
        }
      ],
      "stateMutability": "view",
      "type": "function"
    },
    {
      "inputs": [
        {
          "internalType": "address",
          "name": "owner",
          "type": "address"
        },
        {
          "internalType": "address",
          "name": "spender",
          "type": "address"
        },
        {
          "internalType": "uint256",
          "name": "value",
          "type": "uint256"
        },
        {
          "internalType": "uint256",
          "name": "deadline",
          "type": "uint256"
        },
        {
          "internalType": "uint8",
          "name": "v",
          "type": "uint8"
        },
        {
          "internalType": "bytes32",
          "name": "r",
          "type": "bytes32"
        },
        {
          "internalType": "bytes32",
          "name": "s",
          "type": "bytes32"
        }
      ],
      "name": "permit",
      "outputs": [],
      "stateMutability": "nonpayable",
      "type": "function"
    },
    {
      "inputs": [],
      "name": "platypusAsset",
      "outputs": [
        {
          "internalType": "contract IPlatypusAsset",
          "name": "",
          "type": "address"
        }
      ],
      "stateMutability": "view",
      "type": "function"
    },
    {
      "inputs": [],
      "name": "platypusPool",
      "outputs": [
        {
          "internalType": "contract IPlatypusPool",
          "name": "",
          "type": "address"
        }
      ],
      "stateMutability": "view",
      "type": "function"
    },
    {
      "inputs": [
        {
          "internalType": "uint256",
          "name": "amount",
          "type": "uint256"
        }
      ],
      "name": "recoverAVAX",
      "outputs": [],
      "stateMutability": "nonpayable",
      "type": "function"
    },
    {
      "inputs": [
        {
          "internalType": "address",
          "name": "tokenAddress",
          "type": "address"
        },
        {
          "internalType": "uint256",
          "name": "tokenAmount",
          "type": "uint256"
        }
      ],
      "name": "recoverERC20",
      "outputs": [],
      "stateMutability": "nonpayable",
      "type": "function"
    },
    {
      "inputs": [],
      "name": "reinvest",
      "outputs": [],
      "stateMutability": "nonpayable",
      "type": "function"
    },
    {
      "inputs": [
        {
          "internalType": "address",
          "name": "depositor",
          "type": "address"
        }
      ],
      "name": "removeDepositor",
      "outputs": [],
      "stateMutability": "nonpayable",
      "type": "function"
    },
    {
      "inputs": [
        {
          "internalType": "address",
          "name": "_rewardToken",
          "type": "address"
        }
      ],
      "name": "removeReward",
      "outputs": [],
      "stateMutability": "nonpayable",
      "type": "function"
    },
    {
      "inputs": [],
      "name": "renounceOwnership",
      "outputs": [],
      "stateMutability": "nonpayable",
      "type": "function"
    },
    {
      "inputs": [
        {
          "internalType": "uint256",
          "name": "_minReturnAmountAccepted",
          "type": "uint256"
        },
        {
          "internalType": "bool",
          "name": "",
          "type": "bool"
        }
      ],
      "name": "rescueDeployedFunds",
      "outputs": [],
      "stateMutability": "nonpayable",
      "type": "function"
    },
    {
      "inputs": [
        {
          "internalType": "address",
          "name": "token",
          "type": "address"
        },
        {
          "internalType": "address",
          "name": "spender",
          "type": "address"
        }
      ],
      "name": "revokeAllowance",
      "outputs": [],
      "stateMutability": "nonpayable",
      "type": "function"
    },
    {
      "inputs": [],
      "name": "rewardCount",
      "outputs": [
        {
          "internalType": "uint256",
          "name": "",
          "type": "uint256"
        }
      ],
      "stateMutability": "view",
      "type": "function"
    },
    {
      "inputs": [
        {
          "internalType": "address",
          "name": "",
          "type": "address"
        }
      ],
      "name": "rewardSwapPairs",
      "outputs": [
        {
          "internalType": "address",
          "name": "",
          "type": "address"
        }
      ],
      "stateMutability": "view",
      "type": "function"
    },
    {
      "inputs": [],
      "name": "rewardToken",
      "outputs": [
        {
          "internalType": "contract IERC20",
          "name": "",
          "type": "address"
        }
      ],
      "stateMutability": "view",
      "type": "function"
    },
    {
      "inputs": [],
      "name": "setAllowances",
      "outputs": [],
      "stateMutability": "nonpayable",
      "type": "function"
    },
    {
      "inputs": [
        {
          "internalType": "uint256",
          "name": "",
          "type": "uint256"
        }
      ],
      "name": "supportedRewards",
      "outputs": [
        {
          "internalType": "address",
          "name": "",
          "type": "address"
        }
      ],
      "stateMutability": "view",
      "type": "function"
    },
    {
      "inputs": [],
      "name": "symbol",
      "outputs": [
        {
          "internalType": "string",
          "name": "",
          "type": "string"
        }
      ],
      "stateMutability": "view",
      "type": "function"
    },
    {
      "inputs": [],
      "name": "totalDeposits",
      "outputs": [
        {
          "internalType": "uint256",
          "name": "",
          "type": "uint256"
        }
      ],
      "stateMutability": "view",
      "type": "function"
    },
    {
      "inputs": [],
      "name": "totalSupply",
      "outputs": [
        {
          "internalType": "uint256",
          "name": "",
          "type": "uint256"
        }
      ],
      "stateMutability": "view",
      "type": "function"
    },
    {
      "inputs": [
        {
          "internalType": "address",
          "name": "dst",
          "type": "address"
        },
        {
          "internalType": "uint256",
          "name": "amount",
          "type": "uint256"
        }
      ],
      "name": "transfer",
      "outputs": [
        {
          "internalType": "bool",
          "name": "",
          "type": "bool"
        }
      ],
      "stateMutability": "nonpayable",
      "type": "function"
    },
    {
      "inputs": [
        {
          "internalType": "address",
          "name": "src",
          "type": "address"
        },
        {
          "internalType": "address",
          "name": "dst",
          "type": "address"
        },
        {
          "internalType": "uint256",
          "name": "amount",
          "type": "uint256"
        }
      ],
      "name": "transferFrom",
      "outputs": [
        {
          "internalType": "bool",
          "name": "",
          "type": "bool"
        }
      ],
      "stateMutability": "nonpayable",
      "type": "function"
    },
    {
      "inputs": [
        {
          "internalType": "address",
          "name": "newOwner",
          "type": "address"
        }
      ],
      "name": "transferOwnership",
      "outputs": [],
      "stateMutability": "nonpayable",
      "type": "function"
    },
    {
      "inputs": [
        {
          "internalType": "uint256",
          "name": "newValue",
          "type": "uint256"
        }
      ],
      "name": "updateAdminFee",
      "outputs": [],
      "stateMutability": "nonpayable",
      "type": "function"
    },
    {
      "inputs": [
        {
          "internalType": "address",
          "name": "_collector",
          "type": "address"
        }
      ],
      "name": "updateBoosterFeeCollector",
      "outputs": [],
      "stateMutability": "nonpayable",
      "type": "function"
    },
    {
      "inputs": [
        {
          "internalType": "bool",
          "name": "newValue",
          "type": "bool"
        }
      ],
      "name": "updateDepositsEnabled",
      "outputs": [],
      "stateMutability": "nonpayable",
      "type": "function"
    },
    {
      "inputs": [
        {
          "internalType": "address",
          "name": "newValue",
          "type": "address"
        }
      ],
      "name": "updateDevAddr",
      "outputs": [],
      "stateMutability": "nonpayable",
      "type": "function"
    },
    {
      "inputs": [
        {
          "internalType": "uint256",
          "name": "newValue",
          "type": "uint256"
        }
      ],
      "name": "updateDevFee",
      "outputs": [],
      "stateMutability": "nonpayable",
      "type": "function"
    },
    {
      "inputs": [
        {
          "internalType": "uint256",
          "name": "newValue",
          "type": "uint256"
        }
      ],
      "name": "updateMaxTokensToDepositWithoutReinvest",
      "outputs": [],
      "stateMutability": "nonpayable",
      "type": "function"
    },
    {
      "inputs": [
        {
          "internalType": "uint256",
          "name": "newValue",
          "type": "uint256"
        }
      ],
      "name": "updateMinTokensToReinvest",
      "outputs": [],
      "stateMutability": "nonpayable",
      "type": "function"
    },
    {
      "inputs": [
        {
          "internalType": "uint256",
          "name": "newValue",
          "type": "uint256"
        }
      ],
      "name": "updateReinvestReward",
      "outputs": [],
      "stateMutability": "nonpayable",
      "type": "function"
    },
    {
      "inputs": [
        {
          "internalType": "uint256",
          "name": "_amount",
          "type": "uint256"
        }
      ],
      "name": "withdraw",
      "outputs": [],
      "stateMutability": "nonpayable",
      "type": "function"
    }
  ],
  "transactionHash": "0xc5f85d6a4b3d5d20b425ad4510518f21a62e0c89f8c4ccbe55e68c80eb0997d8",
  "args": [
    "Yield Yak: Echidna x Platypus UST",
    "0xb599c3590F42f8F995ECfa0f85D2980B76862fc1",
    "0xecd6d33555183bc82264dbc8bebd77a1f02e421e",
    [
      {
        "reward": "0xeb8343D5284CaEc921F035207ca94DB6BAaaCBcd",
        "swapPair": "0x218e6A0AD170460F93eA784FbcC92B57DF13316E"
      },
      {
        "reward": "0x22d4002028f537599bE9f666d1c4Fa138522f9c8",
        "swapPair": "0xcdfd91eea657cc2701117fe9711c9a4f61feed23"
      },
      {
        "reward": "0xb599c3590F42f8F995ECfa0f85D2980B76862fc1",
        "swapPair": "0xecd6d33555183bc82264dbc8bebd77a1f02e421e"
      }
    ],
    "0x1c898b4e77843aa3057d69350cd147c4ffdef93f",
    "0xe0D166DE15665bC4B7185B2e35E847E51316E126",
    "8",
    "0xa1cfc90a52ba3453a78f460b8be1fcde068e29e7",
    "0x302404cb8F34713A8B8DBF9b4989A41252332068",
    {
      "minTokensToReinvest": "100000000000000",
      "adminFeeBips": 0,
      "devFeeBips": 600,
      "reinvestRewardBips": 400
    }
  ],
  "solcInputHash": "eb265fdeb9e4a3e95097150e246d9c54",
  "bytecode": "0x6101406040526009610100819052685969656c642059616b60b81b6101209081526200002f916000919062000bac565b506040805180820190915260038082526216549560ea1b60209092019182526200005c9160019162000bac565b503480156200006a57600080fd5b5060405162006fc538038062006fc58339810160408190526200008d9162000e59565b89898989858585858484846000620000a462000338565b600680546001600160a01b0319166001600160a01b0383169081179091556040519192509060009060008051602062006fa5833981519152908290a3508451620000f690600090602088019062000bac565b50600980546001600160a01b0386166001600160a01b031991821617909155600a8054821673b31f66aa3c1e785363f0875a1b74e27b85fd66c7179055600b8054909116732d580f9cf2fb2d09bc411532988f2afda4e7beff17905560005b8351811015620001aa57620001a18482815181106200017057fe5b6020026020010151600001518583815181106200018957fe5b6020026020010151602001516200033c60201b60201c565b60010162000155565b508051620001b89062000470565b6020810151620001c890620004f8565b6040810151620001d890620005c6565b6060810151620001e89062000680565b620001f460016200073a565b620001ff82620007e2565b7fc7606d21ac05cd309191543e409f0845c016120563783d70e4f41419dc0ef2346000806040516200023392919062000f88565b60405180910390a1505050505062000251846200089c60201b60201c565b50505060808790525050506001600160601b0319606086811b821660c05287901b1660a0526040516371f9621160e01b81526001600160a01b038616906371f9621190620002a4908c9060040162000f4f565b60206040518083038186803b158015620002bd57600080fd5b505afa158015620002d2573d6000803e3d6000fd5b505050506040513d601f19601f82011682018060405250810190620002f8919062000e3c565b60601b6001600160601b03191660e0525050601680546001600160a01b0319166001600160a01b0392909216919091179055506200114d95505050505050565b3390565b600a546001600160a01b03838116911614620003a7576200037f8183600a60009054906101000a90046001600160a01b03166200090960201b6200223b1760201c565b620003a75760405162461bcd60e51b81526004016200039e9062000f96565b60405180910390fd5b6001600160a01b038083166000818152601260209081526040822080549486166001600160a01b03199586161790556013805460018181018355919093527f66de8ffda797e3de9c05e8fc57b3bf0ec28a930d40b0d285d93c06501cf6a09090920180549094169092179092556014546200042d9290916200248c62000b6e821b17901c565b6014556040517f916e172c080569186aa7ea048268267257cf7cc49505908863f747bca8620f809062000464908490849062000f63565b60405180910390a15050565b6200047a62000338565b6001600160a01b03166200048d62000b9d565b6001600160a01b031614620004b65760405162461bcd60e51b81526004016200039e90620010f4565b7f481f79ac3a523b6d6db3c5a720e190e986d1cc1b41adcdf50f9caef849901100600c5482604051620004eb92919062000f88565b60405180910390a1600c55565b6200050262000338565b6001600160a01b03166200051562000b9d565b6001600160a01b0316146200053e5760405162461bcd60e51b81526004016200039e90620010f4565b61271062000578600f54620005646011548562000b6e60201b6200248c1790919060201c565b62000b6e60201b6200248c1790919060201c565b11156200058457600080fd5b7f3cc372f330f95ac9540626dc8a25f5bf21ba607215a5d58304cb804d446f104a60105482604051620005b992919062000f88565b60405180910390a1601055565b620005d062000338565b6001600160a01b0316620005e362000b9d565b6001600160a01b0316146200060c5760405162461bcd60e51b81526004016200039e90620010f4565b61271062000632600f54620005646010548562000b6e60201b6200248c1790919060201c565b11156200063e57600080fd5b7f2a42303d002f0ba6cfe8259c91d4684443fb0b3de286ba74991175d651726131601154826040516200067392919062000f88565b60405180910390a1601155565b6200068a62000338565b6001600160a01b03166200069d62000b9d565b6001600160a01b031614620006c65760405162461bcd60e51b81526004016200039e90620010f4565b612710620006ec601154620005646010548562000b6e60201b6200248c1790919060201c565b1115620006f857600080fd5b7fe7f97d51d307dc44045597c9978bec0f842e6bb40d19b9444084cfa30d9ed4f2600f54826040516200072d92919062000f88565b60405180910390a1600f55565b6200074462000338565b6001600160a01b03166200075762000b9d565b6001600160a01b031614620007805760405162461bcd60e51b81526004016200039e90620010f4565b600e5460ff16151581151514156200079757600080fd5b600e805460ff19168215151790556040517f7b014ed3854e7f5cb0218d58b3c6ae7d53a68bb0af2f67bfb029ea42c38a7e8590620007d790839062000f7d565b60405180910390a150565b620007ec62000338565b6001600160a01b0316620007ff62000b9d565b6001600160a01b031614620008285760405162461bcd60e51b81526004016200039e90620010f4565b6001600160a01b038116620008515760405162461bcd60e51b81526004016200039e9062000ff4565b6006546040516001600160a01b0380841692169060008051602062006fa583398151915290600090a3600680546001600160a01b0319166001600160a01b0392909216919091179055565b600954600a54620008c89183916001600160a01b03918216911662000909602090811b6200223b17901c565b620008e75760405162461bcd60e51b81526004016200039e9062001071565b601580546001600160a01b0319166001600160a01b0392909216919091179055565b6000836001600160a01b0316630dfe16816040518163ffffffff1660e01b815260040160206040518083038186803b1580156200094557600080fd5b505afa1580156200095a573d6000803e3d6000fd5b505050506040513d601f19601f8201168201806040525081019062000980919062000e3c565b6001600160a01b0316836001600160a01b0316148062000a255750836001600160a01b031663d21220a76040518163ffffffff1660e01b815260040160206040518083038186803b158015620009d557600080fd5b505afa158015620009ea573d6000803e3d6000fd5b505050506040513d601f19601f8201168201806040525081019062000a10919062000e3c565b6001600160a01b0316836001600160a01b0316145b801562000b475750836001600160a01b0316630dfe16816040518163ffffffff1660e01b815260040160206040518083038186803b15801562000a6757600080fd5b505afa15801562000a7c573d6000803e3d6000fd5b505050506040513d601f19601f8201168201806040525081019062000aa2919062000e3c565b6001600160a01b0316826001600160a01b0316148062000b475750836001600160a01b031663d21220a76040518163ffffffff1660e01b815260040160206040518083038186803b15801562000af757600080fd5b505afa15801562000b0c573d6000803e3d6000fd5b505050506040513d601f19601f8201168201806040525081019062000b32919062000e3c565b6001600160a01b0316826001600160a01b0316145b801562000b665750816001600160a01b0316836001600160a01b031614155b949350505050565b60008282018381101562000b965760405162461bcd60e51b81526004016200039e906200103a565b9392505050565b6006546001600160a01b031690565b828054600181600116156101000203166002900490600052602060002090601f016020900481019282601f1062000bef57805160ff191683800117855562000c1f565b8280016001018555821562000c1f579182015b8281111562000c1f57825182559160200191906001019062000c02565b5062000c2d92915062000c31565b5090565b5b8082111562000c2d576000815560010162000c32565b80516001600160a01b038116811462000c6057600080fd5b919050565b600082601f83011262000c76578081fd5b81516001600160401b0381111562000c8a57fe5b602062000c9b818284020162001129565b828152925080830184820160408085028701840188101562000cbc57600080fd5b60005b8581101562000ce75762000cd4898462000d80565b8452928401929181019160010162000cbf565b50505050505092915050565b600082601f83011262000d04578081fd5b81516001600160401b0381111562000d1857fe5b602062000d2e601f8301601f1916820162001129565b9250818352848183860101111562000d4557600080fd5b60005b8281101562000d6557848101820151848201830152810162000d48565b8281111562000d775760008284860101525b50505092915050565b60006040828403121562000d92578081fd5b604080519081016001600160401b038111828210171562000daf57fe5b60405290508062000dc08362000c48565b815262000dd06020840162000c48565b60208201525092915050565b60006080828403121562000dee578081fd5b604051608081016001600160401b038111828210171562000e0b57fe5b8060405250809150825181526020830151602082015260408301516040820152606083015160608201525092915050565b60006020828403121562000e4e578081fd5b62000b968262000c48565b6000806000806000806000806000806101a08b8d03121562000e79578586fd5b8a516001600160401b038082111562000e90578788fd5b62000e9e8e838f0162000cf3565b9b5062000eae60208e0162000c48565b9a5062000ebe60408e0162000c48565b995060608d015191508082111562000ed4578788fd5b5062000ee38d828e0162000c65565b97505062000ef460808c0162000c48565b955062000f0460a08c0162000c48565b945060c08b0151935062000f1b60e08c0162000c48565b925062000f2c6101008c0162000c48565b915062000f3e8c6101208d0162000ddc565b90509295989b9194979a5092959850565b6001600160a01b0391909116815260200190565b6001600160a01b0392831681529116602082015260400190565b901515815260200190565b918252602082015260400190565b602080825260409082018190527f5661726961626c655265776172647353747261746567793a3a53776170207061908201527f697220646f6573206e6f7420636f6e7461696e2072657761726420746f6b656e606082015260800190565b60208082526026908201527f4f776e61626c653a206e6577206f776e657220697320746865207a65726f206160408201526564647265737360d01b606082015260800190565b6020808252601b908201527f536166654d6174683a206164646974696f6e206f766572666c6f770000000000604082015260600190565b6020808252605a908201527f5661726961626c65526577617264735374726174656779466f7253413a3a737760408201527f6170506169724465706f736974546f6b656e20646f6573206e6f74206d61746360608201527f68206465706f73697420616e642072657761726420746f6b656e000000000000608082015260a00190565b6020808252818101527f4f776e61626c653a2063616c6c6572206973206e6f7420746865206f776e6572604082015260600190565b6040518181016001600160401b03811182821017156200114557fe5b604052919050565b60805160a05160601c60c05160601c60e05160601c615d976200120e60003980610e3252806126fd52806129425280612ace528061423452806144845280614603525080611110528061162952806126dc528061289c528061296f5280612a1f5280612afb5280614283528061433352806143ef525080611b0352806127ec5280612f60528061304c528061316952806144b1528061455e5280614632525080610e5c52806128195280612f8f5280613196528061458b5250615d976000f3fe608060405234801561001057600080fd5b50600436106104215760003560e01c80638980f11f11610235578063bd079f5511610135578063dd62ed3e116100c8578063eab89a5a11610097578063f2fde38b1161007c578063f2fde38b146107e8578063f7c618c1146107fb578063fdb5a03e1461080357610421565b8063eab89a5a146107cd578063ed24911d146107e057610421565b8063dd62ed3e14610781578063dd8ce4d614610794578063e21ac825146107a7578063e75ab045146107ba57610421565b8063cff1b6ef11610104578063cff1b6ef1461074b578063d505accf1461075e578063da09c72c14610771578063dbd9a4d41461077957610421565b8063bd079f551461072b578063c1d8a4c514610733578063c4b24a461461073b578063c89039c51461074357610421565b80639e4e7318116101c8578063a9059cbb11610197578063b52a321f1161017c578063b52a321f14610708578063b6b55f2514610710578063b9e57b801461072357610421565b8063a9059cbb146106e2578063ac0d31ff146106f557610421565b80639e4e7318146106a1578063a4d5e67c146106a9578063a5534e71146106bc578063a8ae2b7c146106cf57610421565b80639291d563116102045780639291d5631461066b57806395d89b411461067e57806399729ec1146106865780639a222a891461069957610421565b80638980f11f146106355780638aff733d146106485780638b73e606146106505780638da5cb5b1461066357610421565b8063483c2ef0116103405780636c8b4b52116102d357806379085425116102a25780637d882097116102875780637d882097146106075780637ecebe001461060f578063818372301461062257610421565b806379085425146105ec5780637ae26773146105f457610421565b80636c8b4b52146105b657806370a08231146105c9578063715018a6146105dc578063789139bc146105e457610421565b80634ebb79161161030f5780634ebb79161461058b578063588220001461059e5780635ea682ea146105a65780635eaec0e4146105ae57610421565b8063483c2ef01461053f5780634a970be7146105525780634bebd1e7146105655780634e77ace51461057857610421565b806323b872dd116103b857806330adf81f1161038757806330adf81f14610507578063313ce5671461050f5780633bdc6e721461052457806340b47e1a1461052c57610421565b806323b872dd146104b9578063247d284b146104cc5780632e1a7d4d146104df5780632f4f21e2146104f457610421565b80630fccc400116103f45780630fccc40014610481578063110560351461049657806318160ddd146104a957806320606b70146104b157610421565b806306fdde03146104265780630767711114610444578063095ea7b3146104595780630f23475d14610479575b600080fd5b61042e61080b565b60405161043b919061530c565b60405180910390f35b61044c610899565b60405161043b9190615285565b61046c610467366004614ef0565b61089f565b60405161043b919061527a565b61044c6108b6565b6104896108e2565b60405161043b9190615156565b61044c6104a4366004614fa1565b6108f1565b61044c610904565b61044c61090a565b61046c6104c7366004614e43565b61092e565b61044c6104da366004614fa1565b610a17565b6104f26104ed366004614fa1565b610a22565b005b6104f2610502366004614ef0565b610ae4565b61044c610af2565b610517610b16565b60405161043b9190615c59565b61044c610b1b565b6104f261053a366004614d97565b610b21565b61046c61054d366004614d5f565b610b55565b6104f2610560366004615022565b610b6a565b6104f2610573366004614d5f565b610c02565b6104f2610586366004614f1b565b610ce6565b6104f2610599366004614fa1565b610d84565b610489610e30565b61044c610e54565b61044c610e5a565b6104f26105c4366004614d5f565b610e7e565b61044c6105d7366004614d5f565b610edf565b6104f2610efa565b61044c610f83565b61044c610f89565b6104f2610602366004614d97565b610f8f565b61044c611058565b61044c61061d366004614d5f565b6111ce565b6104f2610630366004614fa1565b6111e0565b6104f2610643366004614ef0565b61125f565b61044c611371565b6104f261065e366004614d5f565b611377565b61048961147d565b6104f2610679366004614d5f565b61148c565b61042e61151f565b6104f2610694366004614fa1565b611579565b610489611627565b61044c61164b565b6104f26106b7366004614d5f565b61166f565b6104896106ca366004614d5f565b6117f6565b6104f26106dd366004614fa1565b611811565b61046c6106f0366004614ef0565b6118b9565b6104f2610703366004614fd1565b6118c6565b61046c611a9e565b6104f261071e366004614fa1565b611aa7565b61044c611ab4565b61044c611afb565b610489611b01565b61044c611b25565b610489611d9b565b6104f2610759366004614fa1565b611daa565b6104f261076c366004614e83565b611e52565b610489611f07565b6104f2611f16565b61044c61078f366004614d97565b611f6d565b61044c6107a2366004614fa1565b611f98565b6104f26107b5366004614fa1565b611fd2565b6104896107c8366004614fa1565b612051565b61044c6107db366004614fa1565b612078565b61044c6120a9565b6104f26107f6366004614d5f565b612140565b610489612201565b6104f2612210565b6000805460408051602060026001851615610100026000190190941693909304601f810184900484028201840190925281815292918301828280156108915780601f1061086657610100808354040283529160200191610891565b820191906000526020600020905b81548152906001019060200180831161087457829003601f168201915b505050505081565b60105481565b60006108ac3384846124b1565b5060015b92915050565b6000806108c1611058565b905060006108ce82612565565b90506108da8282612587565b925050505b90565b6016546001600160a01b031681565b60006108fc82612565565b90505b919050565b60025481565b7f8b73c3c69bb8fe3d512ecc4cf759cc79239f7b179b0ffacaa9a75d522b39400f81565b6001600160a01b03831660008181526003602090815260408083203380855292528220549192909190821480159061096857506000198114155b156109fe576000610994856040518060600160405280602f8152602001615cde602f91398491906125c5565b6001600160a01b03808916600081815260036020908152604080832094891680845294909152908190208490555192935090917f8c5be1e5ebec7d5bd14f71427d1e84f3dd0314c0f7b2291e5b200ac8c7c3b925906109f4908590615285565b60405180910390a3505b610a098686866125f1565b6001925050505b9392505050565b60006108fc826126d5565b6000610a2d82612078565b905060008111610a585760405162461bcd60e51b8152600401610a4f9061531f565b60405180910390fd5b6000610a6382612722565b90506000610a7083612565565b9050610a9333610a808484612587565b6009546001600160a01b03169190612b81565b610a9d3385612c09565b336001600160a01b03167f884edad9ce6fa2440d8a54cc123490eb96d2768479d49ff9c7366125a942436484604051610ad69190615285565b60405180910390a250505050565b610aee8282612ce3565b5050565b7f6e71edae12b1b97f4d1f60370fef10105fa2faae0126114a169c64845d6126c981565b601281565b60075481565b600b546001600160a01b03163314610b4b5760405162461bcd60e51b8152600401610a4f9061597e565b610aee8282612e61565b60086020526000908152604090205460ff1681565b6009546040517fd505accf0000000000000000000000000000000000000000000000000000000081526001600160a01b039091169063d505accf90610bbf90339030908a908a908a908a908a9060040161518e565b600060405180830381600087803b158015610bd957600080fd5b505af1158015610bed573d6000803e3d6000fd5b50505050610bfb3386612ce3565b5050505050565b610c0a612f57565b6001600160a01b0316610c1b61147d565b6001600160a01b031614610c415760405162461bcd60e51b8152600401610a4f90615821565b6001600160a01b03811660009081526008602052604090205460ff1615610c7a5760405162461bcd60e51b8152600401610a4f90615619565b6001600160a01b0381166000908152600860205260409020805460ff19166001908117909155600754610cac9161248c565b6007556040516001600160a01b038216907fc0a1035c16faf8d1304056d92c00edf028f87e62b8235a938f00af9e3c0312c590600090a250565b610cee612f57565b6001600160a01b0316610cff61147d565b6001600160a01b031614610d255760405162461bcd60e51b8152600401610a4f90615821565b600e5460ff1615158115151415610d3b57600080fd5b600e805460ff19168215151790556040517f7b014ed3854e7f5cb0218d58b3c6ae7d53a68bb0af2f67bfb029ea42c38a7e8590610d7990839061527a565b60405180910390a150565b610d8c612f57565b6001600160a01b0316610d9d61147d565b6001600160a01b031614610dc35760405162461bcd60e51b8152600401610a4f90615821565b60008111610dd057600080fd5b604051339082156108fc029083906000818181858888f19350505050158015610dfd573d6000803e3d6000fd5b507f8c1256b8896378cd5044f80c202f9772b9d77dc85c8a6eb51967210b09bfaa28600082604051610d799291906151cf565b7f000000000000000000000000000000000000000000000000000000000000000081565b60115481565b7f000000000000000000000000000000000000000000000000000000000000000081565b610e86612f57565b6001600160a01b0316610e9761147d565b6001600160a01b031614610ebd5760405162461bcd60e51b8152600401610a4f90615821565b601680546001600160a01b0319166001600160a01b0392909216919091179055565b6001600160a01b031660009081526004602052604090205490565b610f02612f57565b6001600160a01b0316610f1361147d565b6001600160a01b031614610f395760405162461bcd60e51b8152600401610a4f90615821565b6006546040516000916001600160a01b0316907f8be0079c531659141344cd1fd0a4f28419497f9722a3daafe3b4186f6b6457e0908390a3600680546001600160a01b0319169055565b600d5481565b60145481565b610f97612f57565b6001600160a01b0316610fa861147d565b6001600160a01b031614610fce5760405162461bcd60e51b8152600401610a4f90615821565b60405163095ea7b360e01b81526001600160a01b0383169063095ea7b390610ffd9084906000906004016151cf565b602060405180830381600087803b15801561101757600080fd5b505af115801561102b573d6000803e3d6000fd5b505050506040513d601f19601f8201168201806040525081019061104f9190614f37565b610aee57600080fd5b600080611063612f5b565b6001600160a01b03166370a08231306040518263ffffffff1660e01b815260040161108e9190615156565b60206040518083038186803b1580156110a657600080fd5b505afa1580156110ba573d6000803e3d6000fd5b505050506040513d601f19601f820116820180604052508101906110de9190614fb9565b9050806110ef5760009150506108df565b60095460405163907448ed60e01b8152600091829182916001600160a01b037f000000000000000000000000000000000000000000000000000000000000000081169263907448ed9261114892169088906004016151cf565b60606040518083038186803b15801561116057600080fd5b505afa158015611174573d6000803e3d6000fd5b505050506040513d601f19601f820116820180604052508101906111989190614ff5565b925092509250806111bb5760405162461bcd60e51b8152600401610a4f90615921565b6111c5838361248c565b94505050505090565b60056020526000908152604090205481565b6111e8612f57565b6001600160a01b03166111f961147d565b6001600160a01b03161461121f5760405162461bcd60e51b8152600401610a4f90615821565b7f481f79ac3a523b6d6db3c5a720e190e986d1cc1b41adcdf50f9caef849901100600c5482604051611252929190615bcc565b60405180910390a1600c55565b611267612f57565b6001600160a01b031661127861147d565b6001600160a01b03161461129e5760405162461bcd60e51b8152600401610a4f90615821565b600081116112ab57600080fd5b60405163a9059cbb60e01b81526001600160a01b0383169063a9059cbb906112d990339085906004016151cf565b602060405180830381600087803b1580156112f357600080fd5b505af1158015611307573d6000803e3d6000fd5b505050506040513d601f19601f8201168201806040525081019061132b9190614f37565b61133457600080fd5b7f8c1256b8896378cd5044f80c202f9772b9d77dc85c8a6eb51967210b09bfaa2882826040516113659291906151cf565b60405180910390a15050565b600f5481565b61137f612f57565b6001600160a01b031661139061147d565b6001600160a01b0316146113b65760405162461bcd60e51b8152600401610a4f90615821565b6000600754116113d85760405162461bcd60e51b8152600401610a4f906154a5565b6001600160a01b03811660009081526008602052604090205460ff1615156001146114155760405162461bcd60e51b8152600401610a4f9061570a565b6001600160a01b0381166000908152600860205260409020805460ff19169055600754611443906001612587565b6007556040516001600160a01b038216907f0e86f6608b536e5339a25b65ff531f5ea91e1313d056ecd4752b35cbd16137d490600090a250565b6006546001600160a01b031690565b600b546001600160a01b031633146114b65760405162461bcd60e51b8152600401610a4f9061597e565b600b546040517fa8e91499ed37682f43cffb045fcc7d379a91e8c9a14e6321877ee34dee564c00916114f5916001600160a01b039091169084906151e8565b60405180910390a1600b80546001600160a01b0319166001600160a01b0392909216919091179055565b60018054604080516020600284861615610100026000190190941693909304601f810184900484028201840190925281815292918301828280156108915780601f1061086657610100808354040283529160200191610891565b611581612f57565b6001600160a01b031661159261147d565b6001600160a01b0316146115b85760405162461bcd60e51b8152600401610a4f90615821565b6127106115dc600f546115d66010548561248c90919063ffffffff16565b9061248c565b11156115e757600080fd5b7f2a42303d002f0ba6cfe8259c91d4684443fb0b3de286ba74991175d6517261316011548260405161161a929190615bcc565b60405180910390a1601155565b7f000000000000000000000000000000000000000000000000000000000000000081565b7fc89efdaa54c0f20c7adf612882df0950f5a951637e0307cdcb4c672f298b8bc681565b600b546001600160a01b031633146116995760405162461bcd60e51b8152600401610a4f9061597e565b6001600160a01b038116600090815260126020526040812080546001600160a01b0319169055805b60135481101561176a57601381815481106116d857fe5b6000918252602090912001546001600160a01b0384811691161415611762576013805460019350600019810190811061170d57fe5b600091825260209091200154601380546001600160a01b03909216918390811061173357fe5b9060005260206000200160006101000a8154816001600160a01b0302191690836001600160a01b031602179055505b6001016116c1565b50806117885760405162461bcd60e51b8152600401610a4f90615767565b601380548061179357fe5b600082815260209020810160001990810180546001600160a01b03191690550190556014546117c3906001612587565b6014556040517f963b7c735475147a62c589c2d7cb8ec4b0a6b7af4f97373d79ebfa42ab8aa7dc90611365908490615156565b6012602052600090815260409020546001600160a01b031681565b611819612f57565b6001600160a01b031661182a61147d565b6001600160a01b0316146118505760405162461bcd60e51b8152600401610a4f90615821565b61271061186e6011546115d66010548561248c90919063ffffffff16565b111561187957600080fd5b7fe7f97d51d307dc44045597c9978bec0f842e6bb40d19b9444084cfa30d9ed4f2600f54826040516118ac929190615bcc565b60405180910390a1600f55565b60006108ac3384846125f1565b6118ce612f57565b6001600160a01b03166118df61147d565b6001600160a01b0316146119055760405162461bcd60e51b8152600401610a4f90615821565b6009546040516370a0823160e01b81526000916001600160a01b0316906370a0823190611936903090600401615156565b60206040518083038186803b15801561194e57600080fd5b505afa158015611962573d6000803e3d6000fd5b505050506040513d601f19601f820116820180604052508101906119869190614fb9565b9050611990613024565b6009546040516370a0823160e01b81526000916001600160a01b0316906370a08231906119c1903090600401615156565b60206040518083038186803b1580156119d957600080fd5b505afa1580156119ed573d6000803e3d6000fd5b505050506040513d601f19601f82011682018060405250810190611a119190614fb9565b905083611a1e8284612587565b1015611a3c5760405162461bcd60e51b8152600401610a4f90615650565b7fc7606d21ac05cd309191543e409f0845c016120563783d70e4f41419dc0ef234611a65611058565b600254604051611a76929190615bcc565b60405180910390a1600e5460ff16151560011415611a9857611a986000610ce6565b50505050565b600e5460ff1681565b611ab13382612ce3565b50565b600080611abf611b25565b9050600c548110611af357611aeb612710611ae5600f54846131f990919063ffffffff16565b90613233565b9150506108df565b600091505090565b600c5481565b7f000000000000000000000000000000000000000000000000000000000000000081565b60006060611b31613275565b6040516370a0823160e01b815290915060009073b31f66aa3c1e785363f0875a1b74e27b85fd66c7906370a0823190611b6e903090600401615156565b60206040518083038186803b158015611b8657600080fd5b505afa158015611b9a573d6000803e3d6000fd5b505050506040513d601f19601f82011682018060405250810190611bbe9190614fb9565b9050611bca814761248c565b5060005b8251811015611d94576000838281518110611be557fe5b602002602001015160000151905073b31f66aa3c1e785363f0875a1b74e27b85fd66c76001600160a01b0316816001600160a01b03161415611c5257611c4b848381518110611c3057fe5b6020026020010151602001518461248c90919063ffffffff16565b9250611d8b565b6040516370a0823160e01b81526000906001600160a01b038316906370a0823190611c81903090600401615156565b60206040518083038186803b158015611c9957600080fd5b505afa158015611cad573d6000803e3d6000fd5b505050506040513d601f19601f82011682018060405250810190611cd19190614fb9565b90506000611cff868581518110611ce457fe5b6020026020010151602001518361248c90919063ffffffff16565b9050600060126000888781518110611d1357fe5b602090810291909101810151516001600160a01b03908116835290820192909252604001600020541690508115801590611d5557506001600160a01b03811615155b15611d8757611d84611d7d838673b31f66aa3c1e785363f0875a1b74e27b85fd66c785613589565b879061248c565b95505b5050505b50600101611bce565b5091505090565b6009546001600160a01b031681565b611db2612f57565b6001600160a01b0316611dc361147d565b6001600160a01b031614611de95760405162461bcd60e51b8152600401610a4f90615821565b612710611e07600f546115d66011548561248c90919063ffffffff16565b1115611e1257600080fd5b7f3cc372f330f95ac9540626dc8a25f5bf21ba607215a5d58304cb804d446f104a60105482604051611e45929190615bcc565b60405180910390a1601055565b42841015611e725760405162461bcd60e51b8152600401610a4f906156d3565b6001600160a01b03871660009081526005602090815260408083208054600181019091559051611ecd927f6e71edae12b1b97f4d1f60370fef10105fa2faae0126114a169c64845d6126c9928c928c928c92918c910161528e565b604051602081830303815290604052805190602001209050611ef28882868686613664565b611efd8888886124b1565b5050505050505050565b600b546001600160a01b031681565b611f1e612f57565b6001600160a01b0316611f2f61147d565b6001600160a01b031614611f555760405162461bcd60e51b8152600401610a4f90615821565b60405162461bcd60e51b8152600401610a4f906158ea565b6001600160a01b03918216600090815260036020908152604080832093909416825291909152205490565b6000611fae611fa5611058565b600254906131f9565b611fb95750806108ff565b6108fc611fc4611058565b600254611ae59085906131f9565b611fda612f57565b6001600160a01b0316611feb61147d565b6001600160a01b0316146120115760405162461bcd60e51b8152600401610a4f90615821565b7fa5dae50539d56dfe1fb5273d883b0c39bc76750a25d036fc5fbd09ad8fd5f57f600d5482604051612044929190615bcc565b60405180910390a1600d55565b6013818154811061205e57fe5b6000918252602090912001546001600160a01b0316905081565b6000612085611fa5611058565b612091575060006108ff565b6108fc600254611ae56120a2611058565b85906131f9565b60007f8b73c3c69bb8fe3d512ecc4cf759cc79239f7b179b0ffacaa9a75d522b39400f60001b60006040516120de91906150b0565b6040519081900390207fc89efdaa54c0f20c7adf612882df0950f5a951637e0307cdcb4c672f298b8bc661211061373a565b306040516020016121259594939291906152c2565b60405160208183030381529060405280519060200120905090565b612148612f57565b6001600160a01b031661215961147d565b6001600160a01b03161461217f5760405162461bcd60e51b8152600401610a4f90615821565b6001600160a01b0381166121a55760405162461bcd60e51b8152600401610a4f906153da565b6006546040516001600160a01b038084169216907f8be0079c531659141344cd1fd0a4f28419497f9722a3daafe3b4186f6b6457e090600090a3600680546001600160a01b0319166001600160a01b0392909216919091179055565b600a546001600160a01b031681565b32331461222f5760405162461bcd60e51b8152600401610a4f90615437565b612239600061373e565b565b6000836001600160a01b0316630dfe16816040518163ffffffff1660e01b815260040160206040518083038186803b15801561227657600080fd5b505afa15801561228a573d6000803e3d6000fd5b505050506040513d601f19601f820116820180604052508101906122ae9190614d7b565b6001600160a01b0316836001600160a01b0316148061234e5750836001600160a01b031663d21220a76040518163ffffffff1660e01b815260040160206040518083038186803b15801561230157600080fd5b505afa158015612315573d6000803e3d6000fd5b505050506040513d601f19601f820116820180604052508101906123399190614d7b565b6001600160a01b0316836001600160a01b0316145b80156124665750836001600160a01b0316630dfe16816040518163ffffffff1660e01b815260040160206040518083038186803b15801561238e57600080fd5b505afa1580156123a2573d6000803e3d6000fd5b505050506040513d601f19601f820116820180604052508101906123c69190614d7b565b6001600160a01b0316826001600160a01b031614806124665750836001600160a01b031663d21220a76040518163ffffffff1660e01b815260040160206040518083038186803b15801561241957600080fd5b505afa15801561242d573d6000803e3d6000fd5b505050506040513d601f19601f820116820180604052508101906124519190614d7b565b6001600160a01b0316826001600160a01b0316145b80156124845750816001600160a01b0316836001600160a01b031614155b949350505050565b600082820183811015610a105760405162461bcd60e51b8152600401610a4f9061546e565b6001600160a01b0383166124d75760405162461bcd60e51b8152600401610a4f90615856565b6001600160a01b0382166124fd5760405162461bcd60e51b8152600401610a4f90615b60565b6001600160a01b0380841660008181526003602090815260408083209487168084529490915290819020849055517f8c5be1e5ebec7d5bd14f71427d1e84f3dd0314c0f7b2291e5b200ac8c7c3b92590612558908590615285565b60405180910390a3505050565b600080612570613869565b9050610a1061257d61386e565b611ae585846131f9565b6000610a1083836040518060400160405280601f81526020017f536166654d6174683a207375627472616374696f6e20756e646572666c6f77008152505b600081848411156125e95760405162461bcd60e51b8152600401610a4f919061530c565b505050900390565b6001600160a01b0382166126175760405162461bcd60e51b8152600401610a4f9061588d565b612654816040518060600160405280602e8152602001615d34602e91396001600160a01b03861660009081526004602052604090205491906125c5565b6001600160a01b038085166000908152600460205260408082209390935590841681522054612683908261248c565b6001600160a01b0380841660008181526004602052604090819020939093559151908516907fddf252ad1be2c89b69c2b068fc378daa952ba7f163c4a11628f55a4df523b3ef90612558908590615285565b60006108fc7f00000000000000000000000000000000000000000000000000000000000000007f000000000000000000000000000000000000000000000000000000000000000084613874565b60008061272d612f5b565b6001600160a01b03166370a08231306040518263ffffffff1660e01b81526004016127589190615156565b60206040518083038186803b15801561277057600080fd5b505afa158015612784573d6000803e3d6000fd5b505050506040513d601f19601f820116820180604052508101906127a89190614fb9565b905060006127c16127b7611058565b611ae586856131f9565b90508181116127d057806127d2565b815b604051630ab626ab60e41b81529091506001600160a01b037f0000000000000000000000000000000000000000000000000000000000000000169063ab626ab09061284e907f00000000000000000000000000000000000000000000000000000000000000009085906000908190819060001990600401615c12565b600060405180830381600087803b15801561286857600080fd5b505af115801561287c573d6000803e3d6000fd5b505060095460405163907448ed60e01b8152600093506001600160a01b037f00000000000000000000000000000000000000000000000000000000000000008116935063907448ed926128d69291169086906004016151cf565b60606040518083038186803b1580156128ee57600080fd5b505afa158015612902573d6000803e3d6000fd5b505050506040513d601f19601f820116820180604052508101906129269190614ff5565b505060405163095ea7b360e01b81529091506001600160a01b037f0000000000000000000000000000000000000000000000000000000000000000169063095ea7b390612999907f00000000000000000000000000000000000000000000000000000000000000009086906004016151cf565b602060405180830381600087803b1580156129b357600080fd5b505af11580156129c7573d6000803e3d6000fd5b505050506040513d601f19601f820116820180604052508101906129eb9190614f37565b506009546040517f09a5fca30000000000000000000000000000000000000000000000000000000081526001600160a01b037f00000000000000000000000000000000000000000000000000000000000000008116926309a5fca392612a6292919091169086908690309060001990600401615247565b602060405180830381600087803b158015612a7c57600080fd5b505af1158015612a90573d6000803e3d6000fd5b505050506040513d601f19601f82011682018060405250810190612ab49190614fb9565b60405163095ea7b360e01b81529094506001600160a01b037f0000000000000000000000000000000000000000000000000000000000000000169063095ea7b390612b26907f0000000000000000000000000000000000000000000000000000000000000000906000906004016151cf565b602060405180830381600087803b158015612b4057600080fd5b505af1158015612b54573d6000803e3d6000fd5b505050506040513d601f19601f82011682018060405250810190612b789190614f37565b50505050919050565b612c048363a9059cbb60e01b8484604051602401612ba09291906151cf565b60408051601f198184030181529190526020810180517bffffffffffffffffffffffffffffffffffffffffffffffffffffffff167fffffffff0000000000000000000000000000000000000000000000000000000090931692909217909152613b25565b505050565b612c4681604051806060016040528060278152602001615d0d602791396001600160a01b03851660009081526004602052604090205491906125c5565b60046000846001600160a01b03166001600160a01b0316815260200190815260200160002081905550612c9681604051806060016040528060278152602001615cb76027913960025491906125c5565b6002556040516000906001600160a01b038416907fddf252ad1be2c89b69c2b068fc378daa952ba7f163c4a11628f55a4df523b3ef90612cd7908590615285565b60405180910390a35050565b600e5460ff161515600114612d0a5760405162461bcd60e51b8152600401610a4f90615502565b600d5415612d34576000612d1c611b25565b9050600d54811115612d3257612d32600161373e565b505b6009546040517f23b872dd0000000000000000000000000000000000000000000000000000000081526001600160a01b03909116906323b872dd90612d819033903090869060040161516a565b602060405180830381600087803b158015612d9b57600080fd5b505af1158015612daf573d6000803e3d6000fd5b505050506040513d601f19601f82011682018060405250810190612dd39190614f37565b612def5760405162461bcd60e51b8152600401610a4f90615aa6565b6000612dfa826126d5565b9050612e1283612e0d6107a28585612587565b613bb4565b612e1b82613c36565b826001600160a01b03167fe1fffcc4923d04b559f4d29a8bfc6cda04eb5b0d3c460751c2402c5c5cc9109c83604051612e549190615285565b60405180910390a2505050565b600a546001600160a01b03838116911614612eab57600a54612e8f90829084906001600160a01b031661223b565b612eab5760405162461bcd60e51b8152600401610a4f9061537c565b6001600160a01b03808316600081815260126020526040812080549385166001600160a01b03199485161790556013805460018181018355919092527f66de8ffda797e3de9c05e8fc57b3bf0ec28a930d40b0d285d93c06501cf6a0909091018054909316909117909155601454612f229161248c565b6014556040517f916e172c080569186aa7ea048268267257cf7cc49505908863f747bca8620f809061136590849084906151e8565b3390565b6000807f00000000000000000000000000000000000000000000000000000000000000006001600160a01b031663ac4afa387f00000000000000000000000000000000000000000000000000000000000000006040518263ffffffff1660e01b8152600401612fca9190615285565b60a06040518083038186803b158015612fe257600080fd5b505afa158015612ff6573d6000803e3d6000fd5b505050506040513d601f19601f8201168201806040525081019061301a9190614dcf565b5094505050505090565b60095460405163095ea7b360e01b81526001600160a01b039091169063095ea7b390613077907f0000000000000000000000000000000000000000000000000000000000000000906000906004016151cf565b602060405180830381600087803b15801561309157600080fd5b505af11580156130a5573d6000803e3d6000fd5b505050506040513d601f19601f820116820180604052508101906130c99190614f37565b5060006130d4612f5b565b6001600160a01b03166370a08231306040518263ffffffff1660e01b81526004016130ff9190615156565b60206040518083038186803b15801561311757600080fd5b505afa15801561312b573d6000803e3d6000fd5b505050506040513d601f19601f8201168201806040525081019061314f9190614fb9565b604051630ab626ab60e41b81529091506001600160a01b037f0000000000000000000000000000000000000000000000000000000000000000169063ab626ab0906131cb907f00000000000000000000000000000000000000000000000000000000000000009085906000908190819060001990600401615c12565b600060405180830381600087803b1580156131e557600080fd5b505af1158015610bfb573d6000803e3d6000fd5b600082613208575060006108b0565b8282028284828161321557fe5b0414610a105760405162461bcd60e51b8152600401610a4f906157c4565b6000610a1083836040518060400160405280601a81526020017f536166654d6174683a206469766973696f6e206279207a65726f000000000000815250613c5f565b60606000613281612f5b565b905060006132fb6001836001600160a01b031663d55a23f46040518163ffffffff1660e01b815260040160206040518083038186803b1580156132c357600080fd5b505afa1580156132d7573d6000803e3d6000fd5b505050506040513d601f19601f820116820180604052508101906115d69190614fb9565b905060608167ffffffffffffffff8111801561331657600080fd5b5060405190808252806020026020018201604052801561335057816020015b61333d614d19565b8152602001906001900390816133355790505b50905060008061335e613c96565b604080518082019091527322d4002028f537599be9f666d1c4fa138522f9c881529193509150602081016133928484612587565b815250836000815181106133a257fe5b602090810291909101015260015b8481101561357e576040517f40c354460000000000000000000000000000000000000000000000000000000081526000906001600160a01b038816906340c354469061340490600019860190600401615285565b60206040518083038186803b15801561341c57600080fd5b505afa158015613430573d6000803e3d6000fd5b505050506040513d601f19601f820116820180604052508101906134549190614d7b565b90506040518060400160405280826001600160a01b031663f7c618c16040518163ffffffff1660e01b815260040160206040518083038186803b15801561349a57600080fd5b505afa1580156134ae573d6000803e3d6000fd5b505050506040513d601f19601f820116820180604052508101906134d29190614d7b565b6001600160a01b03168152602001826001600160a01b0316628cc262306040518263ffffffff1660e01b815260040161350b9190615156565b60206040518083038186803b15801561352357600080fd5b505afa158015613537573d6000803e3d6000fd5b505050506040513d601f19601f8201168201806040525081019061355b9190614fb9565b81525085838151811061356a57fe5b6020908102919091010152506001016133b0565b509194505050505090565b6000806135968585613dbd565b509050600080846001600160a01b0316630902f1ac6040518163ffffffff1660e01b815260040160606040518083038186803b1580156135d557600080fd5b505afa1580156135e9573d6000803e3d6000fd5b505050506040513d601f19601f8201168201806040525081019061360d9190614f53565b5091509150866001600160a01b0316836001600160a01b03161461362d57905b61365888836dffffffffffffffffffffffffffff16836dffffffffffffffffffffffffffff16613dee565b98975050505050505050565b600061366e6120a9565b85604051602001613680929190615120565b6040516020818303038152906040528051906020012090506000600182868686604051600081526020016040526040516136bd94939291906152ee565b6020604051602081039080840390855afa1580156136df573d6000803e3d6000fd5b5050604051601f1901519150506001600160a01b038116158015906137155750866001600160a01b0316816001600160a01b0316145b6137315760405162461bcd60e51b8152600401610a4f9061555f565b50505050505050565b4690565b613746613e36565b6000613750613ef8565b90508161377957600c548110156137795760405162461bcd60e51b8152600401610a4f906159b5565b6000613796612710611ae5601154856131f990919063ffffffff16565b905080156137bb57600b54600a546137bb916001600160a01b03918216911683612b81565b60006137d8612710611ae5600f54866131f990919063ffffffff16565b905080156137f757600a546137f7906001600160a01b03163383612b81565b60006138156138108361380a8787612587565b90612587565b614141565b905061382081613c36565b7fc7606d21ac05cd309191543e409f0845c016120563783d70e4f41419dc0ef234613849611058565b60025460405161385a929190615bcc565b60405180910390a15050505050565b600090565b61271090565b6000612484846001600160a01b03166355af008a6040518163ffffffff1660e01b815260040160206040518083038186803b1580156138b257600080fd5b505afa1580156138c6573d6000803e3d6000fd5b505050506040513d601f19601f820116820180604052508101906138ea9190614fb9565b856001600160a01b0316637727c6556040518163ffffffff1660e01b815260040160206040518083038186803b15801561392357600080fd5b505afa158015613937573d6000803e3d6000fd5b505050506040513d601f19601f8201168201806040525081019061395b9190614fb9565b866001600160a01b031663a76f54d26040518163ffffffff1660e01b815260040160206040518083038186803b15801561399457600080fd5b505afa1580156139a8573d6000803e3d6000fd5b505050506040513d601f19601f820116820180604052508101906139cc9190614fb9565b876001600160a01b0316637a1c36d16040518163ffffffff1660e01b815260040160206040518083038186803b158015613a0557600080fd5b505afa158015613a19573d6000803e3d6000fd5b505050506040513d601f19601f82011682018060405250810190613a3d9190614fb9565b876001600160a01b031663961be3916040518163ffffffff1660e01b815260040160206040518083038186803b158015613a7657600080fd5b505afa158015613a8a573d6000803e3d6000fd5b505050506040513d601f19601f82011682018060405250810190613aae9190614fb9565b886001600160a01b031663705727b56040518163ffffffff1660e01b815260040160206040518083038186803b158015613ae757600080fd5b505afa158015613afb573d6000803e3d6000fd5b505050506040513d601f19601f82011682018060405250810190613b1f9190614fb9565b88614169565b6060613b7a826040518060400160405280602081526020017f5361666545524332303a206c6f772d6c6576656c2063616c6c206661696c6564815250856001600160a01b03166142119092919063ffffffff16565b805190915015612c045780806020019051810190613b989190614f37565b612c045760405162461bcd60e51b8152600401610a4f90615b03565b600254613bc1908261248c565b6002556001600160a01b038216600090815260046020526040902054613be7908261248c565b6001600160a01b0383166000818152600460205260408082209390935591519091907fddf252ad1be2c89b69c2b068fc378daa952ba7f163c4a11628f55a4df523b3ef90612cd7908590615285565b60008111613c565760405162461bcd60e51b8152600401610a4f90615a12565b611ab181614220565b60008183613c805760405162461bcd60e51b8152600401610a4f919061530c565b506000838581613c8c57fe5b0495945050505050565b600080613ca1612f5b565b6001600160a01b0316628cc262306040518263ffffffff1660e01b8152600401613ccb9190615156565b60206040518083038186803b158015613ce357600080fd5b505afa158015613cf7573d6000803e3d6000fd5b505050506040513d601f19601f82011682018060405250810190613d1b9190614fb9565b6016546040517ff2daef2c0000000000000000000000000000000000000000000000000000000081529193506001600160a01b03169063f2daef2c90613d6790309086906004016151cf565b60206040518083038186803b158015613d7f57600080fd5b505afa158015613d93573d6000803e3d6000fd5b505050506040513d601f19601f82011682018060405250810190613db79190614fb9565b90509091565b600080826001600160a01b0316846001600160a01b031610613de0578284613de3565b83835b915091509250929050565b600080613dfd856103e56131f9565b90506000613e0b82856131f9565b90506000613e1f836115d6886103e86131f9565b9050613e2b8282613233565b979650505050505050565b6000613e40613c96565b915050613e4b612f5b565b6001600160a01b0316637050ccd93060016040518363ffffffff1660e01b8152600401613e79929190615202565b602060405180830381600087803b158015613e9357600080fd5b505af1158015613ea7573d6000803e3d6000fd5b505050506040513d601f19601f82011682018060405250810190613ecb9190614f37565b50601654611ab1907322d4002028f537599be9f666d1c4fa138522f9c8906001600160a01b031683612b81565b6040516370a0823160e01b8152600090819073b31f66aa3c1e785363f0875a1b74e27b85fd66c7906370a0823190613f34903090600401615156565b60206040518083038186803b158015613f4c57600080fd5b505afa158015613f60573d6000803e3d6000fd5b505050506040513d601f19601f82011682018060405250810190613f849190614fb9565b60135490915060005b8181101561413957600060138281548110613fa457fe5b6000918252602090912001546001600160a01b0316905073b31f66aa3c1e785363f0875a1b74e27b85fd66c78114156140635747801561405c5773b31f66aa3c1e785363f0875a1b74e27b85fd66c76001600160a01b031663d0e30db0826040518263ffffffff1660e01b81526004016000604051808303818588803b15801561402d57600080fd5b505af1158015614041573d6000803e3d6000fd5b5050505050614059818661248c90919063ffffffff16565b94505b5050614131565b6040516370a0823160e01b81526000906001600160a01b038316906370a0823190614092903090600401615156565b60206040518083038186803b1580156140aa57600080fd5b505afa1580156140be573d6000803e3d6000fd5b505050506040513d601f19601f820116820180604052508101906140e29190614fb9565b9050801561412e576001600160a01b0380831660009081526012602052604090205416801561412c57600a5461412990611d7d90849086906001600160a01b0316856146af565b95505b505b50505b600101613f8d565b509091505090565b600a546009546015546000926108fc9285926001600160a01b039283169291821691166146af565b60008261417857506000613e2b565b60006141848585614850565b9050670de0b6b3a7640000811161419f576000915050613e2b565b60006141be6141ae868661248c565b6141b8888761248c565b90614850565b905060006141cf8b8b8b8b87614876565b905060006141e08c8c8c8c87614876565b90506141ec87836148dc565b614200826141fa8a8a61248c565b906148dc565b039c9b505050505050505050505050565b60606124848484600085614902565b600061422b826126d5565b9050600061425a7f000000000000000000000000000000000000000000000000000000000000000084846149b8565b60095460405163095ea7b360e01b81529192506001600160a01b03169063095ea7b3906142ad907f00000000000000000000000000000000000000000000000000000000000000009087906004016151cf565b602060405180830381600087803b1580156142c757600080fd5b505af11580156142db573d6000803e3d6000fd5b505050506040513d601f19601f820116820180604052508101906142ff9190614f37565b506009546040517f90d250740000000000000000000000000000000000000000000000000000000081526001600160a01b037f00000000000000000000000000000000000000000000000000000000000000008116926390d2507492614374929190911690879030906000199060040161521d565b602060405180830381600087803b15801561438e57600080fd5b505af11580156143a2573d6000803e3d6000fd5b505050506040513d601f19601f820116820180604052508101906143c69190614fb9565b5060095460405163095ea7b360e01b81526001600160a01b039091169063095ea7b39061441a907f0000000000000000000000000000000000000000000000000000000000000000906000906004016151cf565b602060405180830381600087803b15801561443457600080fd5b505af1158015614448573d6000803e3d6000fd5b505050506040513d601f19601f8201168201806040525081019061446c9190614f37565b5060405163095ea7b360e01b81526001600160a01b037f0000000000000000000000000000000000000000000000000000000000000000169063095ea7b3906144db907f00000000000000000000000000000000000000000000000000000000000000009085906004016151cf565b602060405180830381600087803b1580156144f557600080fd5b505af1158015614509573d6000803e3d6000fd5b505050506040513d601f19601f8201168201806040525081019061452d9190614f37565b506040517ff1c583330000000000000000000000000000000000000000000000000000000081526001600160a01b037f0000000000000000000000000000000000000000000000000000000000000000169063f1c58333906145bc907f000000000000000000000000000000000000000000000000000000000000000090859060009060001990600401615c3c565b600060405180830381600087803b1580156145d657600080fd5b505af11580156145ea573d6000803e3d6000fd5b505060405163095ea7b360e01b81526001600160a01b037f000000000000000000000000000000000000000000000000000000000000000016925063095ea7b3915061465d907f0000000000000000000000000000000000000000000000000000000000000000906000906004016151cf565b602060405180830381600087803b15801561467757600080fd5b505af115801561468b573d6000803e3d6000fd5b505050506040513d601f19601f82011682018060405250810190611a989190614f37565b6000806146bc8585613dbd565b509050600080846001600160a01b0316630902f1ac6040518163ffffffff1660e01b815260040160606040518083038186803b1580156146fb57600080fd5b505afa15801561470f573d6000803e3d6000fd5b505050506040513d601f19601f820116820180604052508101906147339190614f53565b5091509150866001600160a01b0316836001600160a01b03161461475357905b6000806147818a856dffffffffffffffffffffffffffff16856dffffffffffffffffffffffffffff16613dee565b9050886001600160a01b0316856001600160a01b03161461479e57905b6147a989888c614b32565b604080516000815260208101918290527f022c0d9f000000000000000000000000000000000000000000000000000000009091526001600160a01b0388169063022c0d9f906148019085908590309060248101615bda565b600060405180830381600087803b15801561481b57600080fd5b505af115801561482f573d6000803e3d6000fd5b505050508181116148405781614842565b805b9a9950505050505050505050565b6000610a1082611ae5614864826002613233565b6115d687670de0b6b3a76400006131f9565b6000828210156148915761488a8483612587565b90506148d3565b61488a6148cc6b033b2e3c9fd0803ce8000000611ae5670de0b6b3a76400006148c68a6148c083858b886131f9565b90614bce565b906131f9565b8790614850565b95945050505050565b6000610a10670de0b6b3a7640000611ae56148f8826002613233565b6115d687876131f9565b6060824710156149245760405162461bcd60e51b8152600401610a4f906155bc565b61492d85614c44565b6149495760405162461bcd60e51b8152600401610a4f90615a6f565b60006060866001600160a01b031685876040516149669190615094565b60006040518083038185875af1925050503d80600081146149a3576040519150601f19603f3d011682016040523d82523d6000602084013e6149a8565b606091505b5091509150613e2b828286614c4a565b6000836001600160a01b031663705727b56040518163ffffffff1660e01b815260040160206040518083038186803b1580156149f357600080fd5b505afa158015614a07573d6000803e3d6000fd5b505050506040513d601f19601f82011682018060405250810190614a2b9190614fb9565b614a4057614a398383612587565b9050610a10565b612484846001600160a01b031663705727b56040518163ffffffff1660e01b815260040160206040518083038186803b158015614a7c57600080fd5b505afa158015614a90573d6000803e3d6000fd5b505050506040513d601f19601f82011682018060405250810190614ab49190614fb9565b611ae5866001600160a01b03166318160ddd6040518163ffffffff1660e01b815260040160206040518083038186803b158015614af057600080fd5b505afa158015614b04573d6000803e3d6000fd5b505050506040513d601f19601f82011682018060405250810190614b289190614fb9565b6148c68787612587565b60405163a9059cbb60e01b81526001600160a01b0384169063a9059cbb90614b6090859085906004016151cf565b602060405180830381600087803b158015614b7a57600080fd5b505af1158015614b8e573d6000803e3d6000fd5b505050506040513d601f19601f82011682018060405250810190614bb29190614f37565b612c045760405162461bcd60e51b8152600401610a4f90615b97565b6000614bdb826002614c83565b614bf1576b033b2e3c9fd0803ce8000000614bf3565b825b9050614c00826002613233565b91505b81156108b057614c138384614cc5565b9250614c20826002614c83565b15614c3257614c2f8184614cc5565b90505b614c3d826002613233565b9150614c03565b3b151590565b60608315614c59575081610a10565b825115614c695782518084602001fd5b8160405162461bcd60e51b8152600401610a4f919061530c565b6000610a1083836040518060400160405280601881526020017f536166654d6174683a206d6f64756c6f206279207a65726f0000000000000000815250614ce5565b6000610a106b033b2e3c9fd0803ce8000000611ae56148f8826002613233565b60008183614d065760405162461bcd60e51b8152600401610a4f919061530c565b50828481614d1057fe5b06949350505050565b604080518082019091526000808252602082015290565b80516dffffffffffffffffffffffffffff811681146108ff57600080fd5b803560ff811681146108ff57600080fd5b600060208284031215614d70578081fd5b8135610a1081615c93565b600060208284031215614d8c578081fd5b8151610a1081615c93565b60008060408385031215614da9578081fd5b8235614db481615c93565b91506020830135614dc481615c93565b809150509250929050565b600080600080600060a08688031215614de6578081fd5b8551614df181615c93565b6020870151909550614e0281615c93565b6040870151909450614e1381615c93565b6060870151909350614e2481615c93565b6080870151909250614e3581615ca8565b809150509295509295909350565b600080600060608486031215614e57578283fd5b8335614e6281615c93565b92506020840135614e7281615c93565b929592945050506040919091013590565b600080600080600080600060e0888a031215614e9d578182fd5b8735614ea881615c93565b96506020880135614eb881615c93565b95506040880135945060608801359350614ed460808901614d4e565b925060a0880135915060c0880135905092959891949750929550565b60008060408385031215614f02578182fd5b8235614f0d81615c93565b946020939093013593505050565b600060208284031215614f2c578081fd5b8135610a1081615ca8565b600060208284031215614f48578081fd5b8151610a1081615ca8565b600080600060608486031215614f67578283fd5b614f7084614d30565b9250614f7e60208501614d30565b9150604084015163ffffffff81168114614f96578182fd5b809150509250925092565b600060208284031215614fb2578081fd5b5035919050565b600060208284031215614fca578081fd5b5051919050565b60008060408385031215614fe3578182fd5b823591506020830135614dc481615ca8565b600080600060608486031215615009578081fd5b83519250602084015191506040840151614f9681615ca8565b600080600080600060a08688031215615039578283fd5b853594506020860135935061505060408701614d4e565b94979396509394606081013594506080013592915050565b60008151808452615080816020860160208601615c67565b601f01601f19169290920160200192915050565b600082516150a6818460208701615c67565b9190910192915050565b60008083546001808216600081146150cf57600181146150e657615115565b60ff198316865260028304607f1686019350615115565b600283048786526020808720875b8381101561510d5781548a8201529085019082016150f4565b505050860193505b509195945050505050565b7f190100000000000000000000000000000000000000000000000000000000000081526002810192909252602282015260420190565b6001600160a01b0391909116815260200190565b6001600160a01b039384168152919092166020820152604081019190915260600190565b6001600160a01b0397881681529590961660208601526040850193909352606084019190915260ff16608083015260a082015260c081019190915260e00190565b6001600160a01b03929092168252602082015260400190565b6001600160a01b0392831681529116602082015260400190565b6001600160a01b039290921682521515602082015260400190565b6001600160a01b039485168152602081019390935292166040820152606081019190915260800190565b6001600160a01b039586168152602081019490945260408401929092529092166060820152608081019190915260a00190565b901515815260200190565b90815260200190565b9586526001600160a01b0394851660208701529290931660408501526060840152608083019190915260a082015260c00190565b9485526020850193909352604084019190915260608301526001600160a01b0316608082015260a00190565b93845260ff9290921660208401526040830152606082015260800190565b600060208252610a106020830184615068565b60208082526030908201527f5661726961626c655265776172647353747261746567793a3a5769746864726160408201527f7720616d6f756e7420746f6f206c6f7700000000000000000000000000000000606082015260800190565b602080825260409082018190527f5661726961626c655265776172647353747261746567793a3a53776170207061908201527f697220646f6573206e6f7420636f6e7461696e2072657761726420746f6b656e606082015260800190565b60208082526026908201527f4f776e61626c653a206e6577206f776e657220697320746865207a65726f206160408201527f6464726573730000000000000000000000000000000000000000000000000000606082015260800190565b60208082526014908201527f59616b53747261746567793a3a6f6e6c79454f41000000000000000000000000604082015260600190565b6020808252601b908201527f536166654d6174683a206164646974696f6e206f766572666c6f770000000000604082015260600190565b60208082526034908201527f5065726d697373696f6e65643a3a72656d6f76654465706f7369746f722c206e60408201527f6f20616c6c6f776564206465706f7369746f7273000000000000000000000000606082015260800190565b6020808252602a908201527f5661726961626c655265776172647353747261746567793a3a4465706f73697460408201527f732064697361626c656400000000000000000000000000000000000000000000606082015260800190565b60208082526024908201527f417263683a3a76616c69646174655369673a20696e76616c6964207369676e6160408201527f7475726500000000000000000000000000000000000000000000000000000000606082015260800190565b60208082526026908201527f416464726573733a20696e73756666696369656e742062616c616e636520666f60408201527f722063616c6c0000000000000000000000000000000000000000000000000000606082015260800190565b6020808252601c908201527f5065726d697373696f6e65643a3a616c6c6f774465706f7369746f7200000000604082015260600190565b6020808252604d908201527f5661726961626c655265776172647353747261746567793a3a456d657267656e60408201527f6379207769746864726177206d696e696d756d2072657475726e20616d6f756e60608201527f74206e6f74207265616368656400000000000000000000000000000000000000608082015260a00190565b6020808252600f908201527f7065726d69743a3a657870697265640000000000000000000000000000000000604082015260600190565b6020808252602a908201527f5065726d697373696f6e65643a3a72656d6f76654465706f7369746f722c206e60408201527f6f7420616c6c6f77656400000000000000000000000000000000000000000000606082015260800190565b60208082526034908201527f5661726961626c655265776172647353747261746567793a3a5265776172642060408201527f746f2064656c657465206e6f7420666f756e6421000000000000000000000000606082015260800190565b60208082526021908201527f536166654d6174683a206d756c7469706c69636174696f6e206f766572666c6f60408201527f7700000000000000000000000000000000000000000000000000000000000000606082015260800190565b6020808252818101527f4f776e61626c653a2063616c6c6572206973206e6f7420746865206f776e6572604082015260600190565b6020808252601c908201527f5f617070726f76653a3a6f776e6572207a65726f206164647265737300000000604082015260600190565b60208082526034908201527f5f7472616e73666572546f6b656e733a2063616e6e6f74207472616e7366657260408201527f20746f20746865207a65726f2061646472657373000000000000000000000000606082015260800190565b60208082526019908201527f736574416c6c6f77616e6365733a3a6465707265636174656400000000000000604082015260600190565b60208082526026908201527f45636869646e6153747261746567793a3a546869732073686f756c646e27742060408201527f68617070656e0000000000000000000000000000000000000000000000000000606082015260800190565b60208082526014908201527f59616b53747261746567793a3a6f6e6c79446576000000000000000000000000604082015260600190565b60208082526030908201527f5661726961626c655265776172647353747261746567793a3a5265696e76657360408201527f7420616d6f756e7420746f6f206c6f7700000000000000000000000000000000606082015260800190565b6020808252602d908201527f5661726961626c655265776172647353747261746567793a3a5374616b65206160408201527f6d6f756e7420746f6f206c6f7700000000000000000000000000000000000000606082015260800190565b6020808252601d908201527f416464726573733a2063616c6c20746f206e6f6e2d636f6e7472616374000000604082015260600190565b60208082526036908201527f5661726961626c655265776172647353747261746567793a3a4465706f73697460408201527f20746f6b656e207472616e73666572206661696c656400000000000000000000606082015260800190565b6020808252602a908201527f5361666545524332303a204552433230206f7065726174696f6e20646964206e60408201527f6f74207375636365656400000000000000000000000000000000000000000000606082015260800190565b6020808252601e908201527f5f617070726f76653a3a7370656e646572207a65726f20616464726573730000604082015260600190565b6020808252818101527f4465784c6962726172793a3a5452414e534645525f46524f4d5f4641494c4544604082015260600190565b918252602082015260400190565b60008582528460208301526001600160a01b038416604083015260806060830152615c086080830184615068565b9695505050505050565b9586526020860194909452911515604085015215156060840152608083015260a082015260c00190565b938452602084019290925215156040830152606082015260800190565b60ff91909116815260200190565b60005b83811015615c82578181015183820152602001615c6a565b83811115611a985750506000910152565b6001600160a01b0381168114611ab157600080fd5b8015158114611ab157600080fdfe5f6275726e3a206275726e20616d6f756e74206578636565647320746f74616c20737570706c797472616e7366657246726f6d3a207472616e7366657220616d6f756e74206578636565647320616c6c6f77616e63655f6275726e3a206275726e20616d6f756e7420657863656564732066726f6d2062616c616e63655f7472616e73666572546f6b656e733a207472616e7366657220657863656564732066726f6d2062616c616e6365a2646970667358221220f613255c7dd8ef4185f073b63bda7bf0da654a2c105a3ee5d6c79dd922d0214764736f6c634300070300338be0079c531659141344cd1fd0a4f28419497f9722a3daafe3b4186f6b6457e0",
  "devdoc": {
    "kind": "dev",
    "methods": {
      "allowDepositor(address)": {
        "params": {
          "depositor": "address"
        }
      },
      "allowance(address,address)": {
        "params": {
          "account": "The address of the account holding the funds",
          "spender": "The address of the account spending the funds"
        },
        "returns": {
          "_0": "The number of tokens approved"
        }
      },
      "approve(address,uint256)": {
        "details": "This will overwrite the approval amount for `spender` and is subject to issues noted [here](https://eips.ethereum.org/EIPS/eip-20#approve) It is recommended to use increaseAllowance and decreaseAllowance instead",
        "params": {
          "amount": "The number of tokens that are approved (2^256-1 means infinite)",
          "spender": "The address of the account which may transfer tokens"
        },
        "returns": {
          "_0": "Whether or not the approval succeeded"
        }
      },
      "balanceOf(address)": {
        "params": {
          "account": "The address of the account to get the balance of"
        },
        "returns": {
          "_0": "The number of tokens held"
        }
      },
      "checkReward()": {
        "returns": {
          "_0": "reward tokens"
        }
      },
      "deposit(uint256)": {
        "params": {
          "_amount": "Amount of tokens to deposit"
        }
      },
      "depositWithPermit(uint256,uint256,uint8,bytes32,bytes32)": {
        "params": {
          "_amount": "Amount of tokens to deposit",
          "_deadline": "The time at which to expire the signature",
          "_r": "Half of the ECDSA signature pair",
          "_s": "Half of the ECDSA signature pair",
          "_v": "The recovery byte of the signature"
        }
      },
      "estimateDeployedBalance()": {
        "returns": {
          "_0": "deposit tokens after withdraw fee"
        }
      },
      "estimateReinvestReward()": {
        "returns": {
          "_0": "reward tokens"
        }
      },
      "getDepositTokensForShares(uint256)": {
        "params": {
          "amount": "receipt tokens"
        },
        "returns": {
          "_0": "deposit tokens"
        }
      },
      "getDomainSeparator()": {
        "returns": {
          "_0": "Separator"
        }
      },
      "getSharesForDepositTokens(uint256)": {
        "details": "If contract is empty, use 1:1 ratioCould return zero shares for very low amounts of deposit tokens",
        "params": {
          "amount": "deposit tokens"
        },
        "returns": {
          "_0": "receipt tokens"
        }
      },
      "owner()": {
        "details": "Returns the address of the current owner."
      },
      "permit(address,address,uint256,uint256,uint8,bytes32,bytes32)": {
        "params": {
          "deadline": "The time at which to expire the signature",
          "owner": "The address to approve from",
          "r": "Half of the ECDSA signature pair",
          "s": "Half of the ECDSA signature pair",
          "spender": "The address to be approved",
          "v": "The recovery byte of the signature",
          "value": "The number of tokens that are approved (2^256-1 means infinite)"
        }
      },
      "recoverAVAX(uint256)": {
        "params": {
          "amount": "amount"
        }
      },
      "recoverERC20(address,uint256)": {
        "params": {
          "tokenAddress": "token address",
          "tokenAmount": "amount to recover"
        }
      },
      "removeDepositor(address)": {
        "params": {
          "depositor": "address"
        }
      },
      "renounceOwnership()": {
        "details": "Leaves the contract without owner. It will not be possible to call `onlyOwner` functions anymore. Can only be called by the current owner. NOTE: Renouncing ownership will leave the contract without an owner, thereby removing any functionality that is only available to the owner."
      },
      "revokeAllowance(address,address)": {
        "params": {
          "spender": "address",
          "token": "address"
        }
      },
      "setAllowances()": {
        "details": "Deprecated; approvals should be handled in context of staking"
      },
      "totalDeposits()": {
        "returns": {
          "_0": "total deposits available on the contract"
        }
      },
      "transfer(address,uint256)": {
        "params": {
          "amount": "The number of tokens to transfer",
          "dst": "The address of the destination account"
        },
        "returns": {
          "_0": "Whether or not the transfer succeeded"
        }
      },
      "transferFrom(address,address,uint256)": {
        "params": {
          "amount": "The number of tokens to transfer",
          "dst": "The address of the destination account",
          "src": "The address of the source account"
        },
        "returns": {
          "_0": "Whether or not the transfer succeeded"
        }
      },
      "transferOwnership(address)": {
        "details": "Transfers ownership of the contract to a new account (`newOwner`). Can only be called by the current owner."
      },
      "updateAdminFee(uint256)": {
        "params": {
          "newValue": "fee in BIPS"
        }
      },
      "updateDepositsEnabled(bool)": {
        "params": {
          "newValue": "bool"
        }
      },
      "updateDevAddr(address)": {
        "params": {
          "newValue": "address"
        }
      },
      "updateDevFee(uint256)": {
        "params": {
          "newValue": "fee in BIPS"
        }
      },
      "updateMaxTokensToDepositWithoutReinvest(uint256)": {
        "params": {
          "newValue": "threshold"
        }
      },
      "updateMinTokensToReinvest(uint256)": {
        "params": {
          "newValue": "threshold"
        }
      },
      "updateReinvestReward(uint256)": {
        "params": {
          "newValue": "fee in BIPS"
        }
      }
    },
    "version": 1
  },
  "userdoc": {
    "kind": "user",
    "methods": {
      "allowDepositor(address)": {
        "notice": "Add an allowed depositor"
      },
      "allowance(address,address)": {
        "notice": "Get the number of tokens `spender` is approved to spend on behalf of `account`"
      },
      "approve(address,uint256)": {
        "notice": "Approve `spender` to transfer up to `amount` from `src`"
      },
      "balanceOf(address)": {
        "notice": "Get the number of tokens held by the `account`"
      },
      "checkReward()": {
        "notice": "Reward tokens avialable to strategy, including balance"
      },
      "deposit(uint256)": {
        "notice": "Deposit tokens to receive receipt tokens"
      },
      "depositWithPermit(uint256,uint256,uint8,bytes32,bytes32)": {
        "notice": "Deposit using Permit"
      },
      "estimateDeployedBalance()": {
        "notice": "Estimate recoverable balance after withdraw fee"
      },
      "estimateReinvestReward()": {
        "notice": "Estimate reinvest reward"
      },
      "getDepositTokensForShares(uint256)": {
        "notice": "Calculate deposit tokens for a given amount of receipt tokens"
      },
      "getDomainSeparator()": {
        "notice": "EIP-712 Domain separator"
      },
      "getSharesForDepositTokens(uint256)": {
        "notice": "Calculate receipt tokens for a given amount of deposit tokens"
      },
      "permit(address,address,uint256,uint256,uint8,bytes32,bytes32)": {
        "notice": "Triggers an approval from owner to spender"
      },
      "recoverAVAX(uint256)": {
        "notice": "Recover AVAX from contract"
      },
      "recoverERC20(address,uint256)": {
        "notice": "Recover ERC20 from contract"
      },
      "reinvest()": {
        "notice": "Reinvest reward tokens into deposit tokens"
      },
      "removeDepositor(address)": {
        "notice": "Remove an allowed depositor"
      },
      "revokeAllowance(address,address)": {
        "notice": "Revoke token allowance"
      },
      "setAllowances()": {
        "notice": "Approve tokens for use in Strategy"
      },
      "totalDeposits()": {
        "notice": "This function returns a snapshot of last available quotes"
      },
      "transfer(address,uint256)": {
        "notice": "Transfer `amount` tokens from `msg.sender` to `dst`"
      },
      "transferFrom(address,address,uint256)": {
        "notice": "Transfer `amount` tokens from `src` to `dst`"
      },
      "updateAdminFee(uint256)": {
        "notice": "Update admin fee"
      },
      "updateDepositsEnabled(bool)": {
        "notice": "Enable/disable deposits"
      },
      "updateDevAddr(address)": {
        "notice": "Update devAddr"
      },
      "updateDevFee(uint256)": {
        "notice": "Update developer fee"
      },
      "updateMaxTokensToDepositWithoutReinvest(uint256)": {
        "notice": "Update reinvest max threshold before a deposit"
      },
      "updateMinTokensToReinvest(uint256)": {
        "notice": "Update reinvest min threshold"
      },
      "updateReinvestReward(uint256)": {
        "notice": "Update reinvest reward"
      }
    },
    "version": 1
  },
  "storageLayout": {
    "storage": [
      {
        "astId": 6348,
        "contract": "contracts/strategies/EchidnaStrategy.sol:EchidnaStrategy",
        "label": "name",
        "offset": 0,
        "slot": "0",
        "type": "t_string_storage"
      },
      {
        "astId": 6351,
        "contract": "contracts/strategies/EchidnaStrategy.sol:EchidnaStrategy",
        "label": "symbol",
        "offset": 0,
        "slot": "1",
        "type": "t_string_storage"
      },
      {
        "astId": 6356,
        "contract": "contracts/strategies/EchidnaStrategy.sol:EchidnaStrategy",
        "label": "totalSupply",
        "offset": 0,
        "slot": "2",
        "type": "t_uint256"
      },
      {
        "astId": 6362,
        "contract": "contracts/strategies/EchidnaStrategy.sol:EchidnaStrategy",
        "label": "allowances",
        "offset": 0,
        "slot": "3",
        "type": "t_mapping(t_address,t_mapping(t_address,t_uint256))"
      },
      {
        "astId": 6366,
        "contract": "contracts/strategies/EchidnaStrategy.sol:EchidnaStrategy",
        "label": "balances",
        "offset": 0,
        "slot": "4",
        "type": "t_mapping(t_address,t_uint256)"
      },
      {
        "astId": 6382,
        "contract": "contracts/strategies/EchidnaStrategy.sol:EchidnaStrategy",
        "label": "nonces",
        "offset": 0,
        "slot": "5",
        "type": "t_mapping(t_address,t_uint256)"
      },
      {
        "astId": 22390,
        "contract": "contracts/strategies/EchidnaStrategy.sol:EchidnaStrategy",
        "label": "_owner",
        "offset": 0,
        "slot": "6",
        "type": "t_address"
      },
      {
        "astId": 22503,
        "contract": "contracts/strategies/EchidnaStrategy.sol:EchidnaStrategy",
        "label": "numberOfAllowedDepositors",
        "offset": 0,
        "slot": "7",
        "type": "t_uint256"
      },
      {
        "astId": 22507,
        "contract": "contracts/strategies/EchidnaStrategy.sol:EchidnaStrategy",
        "label": "allowedDepositors",
        "offset": 0,
        "slot": "8",
        "type": "t_mapping(t_address,t_bool)"
      },
      {
        "astId": 7732,
        "contract": "contracts/strategies/EchidnaStrategy.sol:EchidnaStrategy",
        "label": "depositToken",
        "offset": 0,
        "slot": "9",
        "type": "t_contract(IERC20)11786"
      },
      {
        "astId": 7734,
        "contract": "contracts/strategies/EchidnaStrategy.sol:EchidnaStrategy",
        "label": "rewardToken",
        "offset": 0,
        "slot": "10",
        "type": "t_contract(IERC20)11786"
      },
      {
        "astId": 7736,
        "contract": "contracts/strategies/EchidnaStrategy.sol:EchidnaStrategy",
        "label": "devAddr",
        "offset": 0,
        "slot": "11",
        "type": "t_address"
      },
      {
        "astId": 7738,
        "contract": "contracts/strategies/EchidnaStrategy.sol:EchidnaStrategy",
        "label": "MIN_TOKENS_TO_REINVEST",
        "offset": 0,
        "slot": "12",
        "type": "t_uint256"
      },
      {
        "astId": 7740,
        "contract": "contracts/strategies/EchidnaStrategy.sol:EchidnaStrategy",
        "label": "MAX_TOKENS_TO_DEPOSIT_WITHOUT_REINVEST",
        "offset": 0,
        "slot": "13",
        "type": "t_uint256"
      },
      {
        "astId": 7742,
        "contract": "contracts/strategies/EchidnaStrategy.sol:EchidnaStrategy",
        "label": "DEPOSITS_ENABLED",
        "offset": 0,
        "slot": "14",
        "type": "t_bool"
      },
      {
        "astId": 7744,
        "contract": "contracts/strategies/EchidnaStrategy.sol:EchidnaStrategy",
        "label": "REINVEST_REWARD_BIPS",
        "offset": 0,
        "slot": "15",
        "type": "t_uint256"
      },
      {
        "astId": 7746,
        "contract": "contracts/strategies/EchidnaStrategy.sol:EchidnaStrategy",
        "label": "ADMIN_FEE_BIPS",
        "offset": 0,
        "slot": "16",
        "type": "t_uint256"
      },
      {
        "astId": 7748,
        "contract": "contracts/strategies/EchidnaStrategy.sol:EchidnaStrategy",
        "label": "DEV_FEE_BIPS",
        "offset": 0,
        "slot": "17",
        "type": "t_uint256"
      },
      {
        "astId": 112310,
        "contract": "contracts/strategies/EchidnaStrategy.sol:EchidnaStrategy",
        "label": "rewardSwapPairs",
        "offset": 0,
        "slot": "18",
        "type": "t_mapping(t_address,t_address)"
      },
      {
        "astId": 112313,
        "contract": "contracts/strategies/EchidnaStrategy.sol:EchidnaStrategy",
        "label": "supportedRewards",
        "offset": 0,
        "slot": "19",
        "type": "t_array(t_address)dyn_storage"
      },
      {
        "astId": 112315,
        "contract": "contracts/strategies/EchidnaStrategy.sol:EchidnaStrategy",
        "label": "rewardCount",
        "offset": 0,
        "slot": "20",
        "type": "t_uint256"
      },
      {
        "astId": 113652,
        "contract": "contracts/strategies/EchidnaStrategy.sol:EchidnaStrategy",
        "label": "swapPairDepositToken",
        "offset": 0,
        "slot": "21",
        "type": "t_address"
      },
      {
        "astId": 61718,
        "contract": "contracts/strategies/EchidnaStrategy.sol:EchidnaStrategy",
        "label": "boosterFeeCollector",
        "offset": 0,
        "slot": "22",
        "type": "t_contract(IBoosterFeeCollector)11319"
      }
    ],
    "types": {
      "t_address": {
        "encoding": "inplace",
        "label": "address",
        "numberOfBytes": "20"
      },
      "t_array(t_address)dyn_storage": {
        "base": "t_address",
        "encoding": "dynamic_array",
        "label": "address[]",
        "numberOfBytes": "32"
      },
      "t_bool": {
        "encoding": "inplace",
        "label": "bool",
        "numberOfBytes": "1"
      },
      "t_contract(IBoosterFeeCollector)11319": {
        "encoding": "inplace",
        "label": "contract IBoosterFeeCollector",
        "numberOfBytes": "20"
      },
      "t_contract(IERC20)11786": {
        "encoding": "inplace",
        "label": "contract IERC20",
        "numberOfBytes": "20"
      },
      "t_mapping(t_address,t_address)": {
        "encoding": "mapping",
        "key": "t_address",
        "label": "mapping(address => address)",
        "numberOfBytes": "32",
        "value": "t_address"
      },
      "t_mapping(t_address,t_bool)": {
        "encoding": "mapping",
        "key": "t_address",
        "label": "mapping(address => bool)",
        "numberOfBytes": "32",
        "value": "t_bool"
      },
      "t_mapping(t_address,t_mapping(t_address,t_uint256))": {
        "encoding": "mapping",
        "key": "t_address",
        "label": "mapping(address => mapping(address => uint256))",
        "numberOfBytes": "32",
        "value": "t_mapping(t_address,t_uint256)"
      },
      "t_mapping(t_address,t_uint256)": {
        "encoding": "mapping",
        "key": "t_address",
        "label": "mapping(address => uint256)",
        "numberOfBytes": "32",
        "value": "t_uint256"
      },
      "t_string_storage": {
        "encoding": "bytes",
        "label": "string",
        "numberOfBytes": "32"
      },
      "t_uint256": {
        "encoding": "inplace",
        "label": "uint256",
        "numberOfBytes": "32"
      }
    }
  }
}