{
  "address": "0x9cF6D0AaB2Db4685a10B368686A5eAbe5B425440",
  "abi": [
    {
      "inputs": [
        {
          "internalType": "string",
          "name": "_name",
          "type": "string"
        },
        {
          "internalType": "address",
          "name": "_depositToken",
          "type": "address"
        },
        {
          "internalType": "address",
          "name": "_swapPairDepositToken",
          "type": "address"
        },
        {
          "components": [
            {
              "internalType": "address",
              "name": "reward",
              "type": "address"
            },
            {
              "internalType": "address",
              "name": "swapPair",
              "type": "address"
            }
          ],
          "internalType": "struct VariableRewardsStrategy.RewardSwapPairs[]",
          "name": "_rewardSwapPairs",
          "type": "tuple[]"
        },
        {
          "internalType": "address",
          "name": "_stakingContract",
          "type": "address"
        },
        {
          "internalType": "address",
          "name": "_platypusPool",
          "type": "address"
        },
        {
          "internalType": "uint256",
          "name": "_pid",
          "type": "uint256"
        },
        {
          "internalType": "address",
          "name": "_boosterFeeCollector",
          "type": "address"
        },
        {
          "internalType": "address",
          "name": "_timelock",
          "type": "address"
        },
        {
          "components": [
            {
              "internalType": "uint256",
              "name": "minTokensToReinvest",
              "type": "uint256"
            },
            {
              "internalType": "uint256",
              "name": "adminFeeBips",
              "type": "uint256"
            },
            {
              "internalType": "uint256",
              "name": "devFeeBips",
              "type": "uint256"
            },
            {
              "internalType": "uint256",
              "name": "reinvestRewardBips",
              "type": "uint256"
            }
          ],
          "internalType": "struct VariableRewardsStrategy.StrategySettings",
          "name": "_strategySettings",
          "type": "tuple"
        }
      ],
      "stateMutability": "nonpayable",
      "type": "constructor"
    },
    {
      "anonymous": false,
      "inputs": [
        {
          "indexed": false,
          "internalType": "address",
          "name": "rewardToken",
          "type": "address"
        },
        {
          "indexed": false,
          "internalType": "address",
          "name": "swapPair",
          "type": "address"
        }
      ],
      "name": "AddReward",
      "type": "event"
    },
    {
      "anonymous": false,
      "inputs": [
        {
          "indexed": true,
          "internalType": "address",
          "name": "account",
          "type": "address"
        }
      ],
      "name": "AllowDepositor",
      "type": "event"
    },
    {
      "anonymous": false,
      "inputs": [
        {
          "indexed": true,
          "internalType": "address",
          "name": "owner",
          "type": "address"
        },
        {
          "indexed": true,
          "internalType": "address",
          "name": "spender",
          "type": "address"
        },
        {
          "indexed": false,
          "internalType": "uint256",
          "name": "value",
          "type": "uint256"
        }
      ],
      "name": "Approval",
      "type": "event"
    },
    {
      "anonymous": false,
      "inputs": [
        {
          "indexed": true,
          "internalType": "address",
          "name": "account",
          "type": "address"
        },
        {
          "indexed": false,
          "internalType": "uint256",
          "name": "amount",
          "type": "uint256"
        }
      ],
      "name": "Deposit",
      "type": "event"
    },
    {
      "anonymous": false,
      "inputs": [
        {
          "indexed": false,
          "internalType": "bool",
          "name": "newValue",
          "type": "bool"
        }
      ],
      "name": "DepositsEnabled",
      "type": "event"
    },
    {
      "anonymous": false,
      "inputs": [
        {
          "indexed": true,
          "internalType": "address",
          "name": "previousOwner",
          "type": "address"
        },
        {
          "indexed": true,
          "internalType": "address",
          "name": "newOwner",
          "type": "address"
        }
      ],
      "name": "OwnershipTransferred",
      "type": "event"
    },
    {
      "anonymous": false,
      "inputs": [
        {
          "indexed": false,
          "internalType": "address",
          "name": "token",
          "type": "address"
        },
        {
          "indexed": false,
          "internalType": "uint256",
          "name": "amount",
          "type": "uint256"
        }
      ],
      "name": "Recovered",
      "type": "event"
    },
    {
      "anonymous": false,
      "inputs": [
        {
          "indexed": false,
          "internalType": "uint256",
          "name": "newTotalDeposits",
          "type": "uint256"
        },
        {
          "indexed": false,
          "internalType": "uint256",
          "name": "newTotalSupply",
          "type": "uint256"
        }
      ],
      "name": "Reinvest",
      "type": "event"
    },
    {
      "anonymous": false,
      "inputs": [
        {
          "indexed": true,
          "internalType": "address",
          "name": "account",
          "type": "address"
        }
      ],
      "name": "RemoveDepositor",
      "type": "event"
    },
    {
      "anonymous": false,
      "inputs": [
        {
          "indexed": false,
          "internalType": "address",
          "name": "rewardToken",
          "type": "address"
        }
      ],
      "name": "RemoveReward",
      "type": "event"
    },
    {
      "anonymous": false,
      "inputs": [
        {
          "indexed": true,
          "internalType": "address",
          "name": "from",
          "type": "address"
        },
        {
          "indexed": true,
          "internalType": "address",
          "name": "to",
          "type": "address"
        },
        {
          "indexed": false,
          "internalType": "uint256",
          "name": "value",
          "type": "uint256"
        }
      ],
      "name": "Transfer",
      "type": "event"
    },
    {
      "anonymous": false,
      "inputs": [
        {
          "indexed": false,
          "internalType": "uint256",
          "name": "oldValue",
          "type": "uint256"
        },
        {
          "indexed": false,
          "internalType": "uint256",
          "name": "newValue",
          "type": "uint256"
        }
      ],
      "name": "UpdateAdminFee",
      "type": "event"
    },
    {
      "anonymous": false,
      "inputs": [
        {
          "indexed": false,
          "internalType": "address",
          "name": "oldValue",
          "type": "address"
        },
        {
          "indexed": false,
          "internalType": "address",
          "name": "newValue",
          "type": "address"
        }
      ],
      "name": "UpdateDevAddr",
      "type": "event"
    },
    {
      "anonymous": false,
      "inputs": [
        {
          "indexed": false,
          "internalType": "uint256",
          "name": "oldValue",
          "type": "uint256"
        },
        {
          "indexed": false,
          "internalType": "uint256",
          "name": "newValue",
          "type": "uint256"
        }
      ],
      "name": "UpdateDevFee",
      "type": "event"
    },
    {
      "anonymous": false,
      "inputs": [
        {
          "indexed": false,
          "internalType": "uint256",
          "name": "oldValue",
          "type": "uint256"
        },
        {
          "indexed": false,
          "internalType": "uint256",
          "name": "newValue",
          "type": "uint256"
        }
      ],
      "name": "UpdateMaxTokensToDepositWithoutReinvest",
      "type": "event"
    },
    {
      "anonymous": false,
      "inputs": [
        {
          "indexed": false,
          "internalType": "uint256",
          "name": "oldValue",
          "type": "uint256"
        },
        {
          "indexed": false,
          "internalType": "uint256",
          "name": "newValue",
          "type": "uint256"
        }
      ],
      "name": "UpdateMinTokensToReinvest",
      "type": "event"
    },
    {
      "anonymous": false,
      "inputs": [
        {
          "indexed": false,
          "internalType": "uint256",
          "name": "oldValue",
          "type": "uint256"
        },
        {
          "indexed": false,
          "internalType": "uint256",
          "name": "newValue",
          "type": "uint256"
        }
      ],
      "name": "UpdateReinvestReward",
      "type": "event"
    },
    {
      "anonymous": false,
      "inputs": [
        {
          "indexed": true,
          "internalType": "address",
          "name": "account",
          "type": "address"
        },
        {
          "indexed": false,
          "internalType": "uint256",
          "name": "amount",
          "type": "uint256"
        }
      ],
      "name": "Withdraw",
      "type": "event"
    },
    {
      "inputs": [],
      "name": "ADMIN_FEE_BIPS",
      "outputs": [
        {
          "internalType": "uint256",
          "name": "",
          "type": "uint256"
        }
      ],
      "stateMutability": "view",
      "type": "function"
    },
    {
      "inputs": [],
      "name": "DEPOSITS_ENABLED",
      "outputs": [
        {
          "internalType": "bool",
          "name": "",
          "type": "bool"
        }
      ],
      "stateMutability": "view",
      "type": "function"
    },
    {
      "inputs": [],
      "name": "DEV_FEE_BIPS",
      "outputs": [
        {
          "internalType": "uint256",
          "name": "",
          "type": "uint256"
        }
      ],
      "stateMutability": "view",
      "type": "function"
    },
    {
      "inputs": [],
      "name": "DOMAIN_TYPEHASH",
      "outputs": [
        {
          "internalType": "bytes32",
          "name": "",
          "type": "bytes32"
        }
      ],
      "stateMutability": "view",
      "type": "function"
    },
    {
      "inputs": [],
      "name": "MAX_TOKENS_TO_DEPOSIT_WITHOUT_REINVEST",
      "outputs": [
        {
          "internalType": "uint256",
          "name": "",
          "type": "uint256"
        }
      ],
      "stateMutability": "view",
      "type": "function"
    },
    {
      "inputs": [],
      "name": "MIN_TOKENS_TO_REINVEST",
      "outputs": [
        {
          "internalType": "uint256",
          "name": "",
          "type": "uint256"
        }
      ],
      "stateMutability": "view",
      "type": "function"
    },
    {
      "inputs": [],
      "name": "PERMIT_TYPEHASH",
      "outputs": [
        {
          "internalType": "bytes32",
          "name": "",
          "type": "bytes32"
        }
      ],
      "stateMutability": "view",
      "type": "function"
    },
    {
      "inputs": [],
      "name": "PID",
      "outputs": [
        {
          "internalType": "uint256",
          "name": "",
          "type": "uint256"
        }
      ],
      "stateMutability": "view",
      "type": "function"
    },
    {
      "inputs": [],
      "name": "REINVEST_REWARD_BIPS",
      "outputs": [
        {
          "internalType": "uint256",
          "name": "",
          "type": "uint256"
        }
      ],
      "stateMutability": "view",
      "type": "function"
    },
    {
      "inputs": [],
      "name": "VERSION_HASH",
      "outputs": [
        {
          "internalType": "bytes32",
          "name": "",
          "type": "bytes32"
        }
      ],
      "stateMutability": "view",
      "type": "function"
    },
    {
      "inputs": [
        {
          "internalType": "address",
          "name": "_rewardToken",
          "type": "address"
        },
        {
          "internalType": "address",
          "name": "_swapPair",
          "type": "address"
        }
      ],
      "name": "addReward",
      "outputs": [],
      "stateMutability": "nonpayable",
      "type": "function"
    },
    {
      "inputs": [
        {
          "internalType": "address",
          "name": "depositor",
          "type": "address"
        }
      ],
      "name": "allowDepositor",
      "outputs": [],
      "stateMutability": "nonpayable",
      "type": "function"
    },
    {
      "inputs": [
        {
          "internalType": "address",
          "name": "account",
          "type": "address"
        },
        {
          "internalType": "address",
          "name": "spender",
          "type": "address"
        }
      ],
      "name": "allowance",
      "outputs": [
        {
          "internalType": "uint256",
          "name": "",
          "type": "uint256"
        }
      ],
      "stateMutability": "view",
      "type": "function"
    },
    {
      "inputs": [
        {
          "internalType": "address",
          "name": "",
          "type": "address"
        }
      ],
      "name": "allowedDepositors",
      "outputs": [
        {
          "internalType": "bool",
          "name": "",
          "type": "bool"
        }
      ],
      "stateMutability": "view",
      "type": "function"
    },
    {
      "inputs": [
        {
          "internalType": "address",
          "name": "spender",
          "type": "address"
        },
        {
          "internalType": "uint256",
          "name": "amount",
          "type": "uint256"
        }
      ],
      "name": "approve",
      "outputs": [
        {
          "internalType": "bool",
          "name": "",
          "type": "bool"
        }
      ],
      "stateMutability": "nonpayable",
      "type": "function"
    },
    {
      "inputs": [
        {
          "internalType": "address",
          "name": "account",
          "type": "address"
        }
      ],
      "name": "balanceOf",
      "outputs": [
        {
          "internalType": "uint256",
          "name": "",
          "type": "uint256"
        }
      ],
      "stateMutability": "view",
      "type": "function"
    },
    {
      "inputs": [],
      "name": "boosterFeeCollector",
      "outputs": [
        {
          "internalType": "contract IBoosterFeeCollector",
          "name": "",
          "type": "address"
        }
      ],
      "stateMutability": "view",
      "type": "function"
    },
    {
      "inputs": [
        {
          "internalType": "uint256",
          "name": "_amount",
          "type": "uint256"
        }
      ],
      "name": "calculateDepositFee",
      "outputs": [
        {
          "internalType": "uint256",
          "name": "",
          "type": "uint256"
        }
      ],
      "stateMutability": "view",
      "type": "function"
    },
    {
      "inputs": [
        {
          "internalType": "uint256",
          "name": "_amount",
          "type": "uint256"
        }
      ],
      "name": "calculateWithdrawFee",
      "outputs": [
        {
          "internalType": "uint256",
          "name": "",
          "type": "uint256"
        }
      ],
      "stateMutability": "view",
      "type": "function"
    },
    {
      "inputs": [],
      "name": "checkReward",
      "outputs": [
        {
          "internalType": "uint256",
          "name": "",
          "type": "uint256"
        }
      ],
      "stateMutability": "view",
      "type": "function"
    },
    {
      "inputs": [],
      "name": "decimals",
      "outputs": [
        {
          "internalType": "uint8",
          "name": "",
          "type": "uint8"
        }
      ],
      "stateMutability": "view",
      "type": "function"
    },
    {
      "inputs": [
        {
          "internalType": "uint256",
          "name": "_amount",
          "type": "uint256"
        }
      ],
      "name": "deposit",
      "outputs": [],
      "stateMutability": "nonpayable",
      "type": "function"
    },
    {
      "inputs": [
        {
          "internalType": "address",
          "name": "_account",
          "type": "address"
        },
        {
          "internalType": "uint256",
          "name": "_amount",
          "type": "uint256"
        }
      ],
      "name": "depositFor",
      "outputs": [],
      "stateMutability": "nonpayable",
      "type": "function"
    },
    {
      "inputs": [],
      "name": "depositToken",
      "outputs": [
        {
          "internalType": "contract IERC20",
          "name": "",
          "type": "address"
        }
      ],
      "stateMutability": "view",
      "type": "function"
    },
    {
      "inputs": [
        {
          "internalType": "uint256",
          "name": "_amount",
          "type": "uint256"
        },
        {
          "internalType": "uint256",
          "name": "_deadline",
          "type": "uint256"
        },
        {
          "internalType": "uint8",
          "name": "_v",
          "type": "uint8"
        },
        {
          "internalType": "bytes32",
          "name": "_r",
          "type": "bytes32"
        },
        {
          "internalType": "bytes32",
          "name": "_s",
          "type": "bytes32"
        }
      ],
      "name": "depositWithPermit",
      "outputs": [],
      "stateMutability": "nonpayable",
      "type": "function"
    },
    {
      "inputs": [],
      "name": "devAddr",
      "outputs": [
        {
          "internalType": "address",
          "name": "",
          "type": "address"
        }
      ],
      "stateMutability": "view",
      "type": "function"
    },
    {
      "inputs": [],
      "name": "echidnaBooster",
      "outputs": [
        {
          "internalType": "contract IEchidnaBooster",
          "name": "",
          "type": "address"
        }
      ],
      "stateMutability": "view",
      "type": "function"
    },
    {
      "inputs": [],
      "name": "echidnaRewardPool",
      "outputs": [
        {
          "internalType": "contract IEchidnaRewardPool",
          "name": "",
          "type": "address"
        }
      ],
      "stateMutability": "view",
      "type": "function"
    },
    {
      "inputs": [],
      "name": "estimateDeployedBalance",
      "outputs": [
        {
          "internalType": "uint256",
          "name": "",
          "type": "uint256"
        }
      ],
      "stateMutability": "view",
      "type": "function"
    },
    {
      "inputs": [],
      "name": "estimateReinvestReward",
      "outputs": [
        {
          "internalType": "uint256",
          "name": "",
          "type": "uint256"
        }
      ],
      "stateMutability": "view",
      "type": "function"
    },
    {
      "inputs": [
        {
          "internalType": "uint256",
          "name": "amount",
          "type": "uint256"
        }
      ],
      "name": "getDepositTokensForShares",
      "outputs": [
        {
          "internalType": "uint256",
          "name": "",
          "type": "uint256"
        }
      ],
      "stateMutability": "view",
      "type": "function"
    },
    {
      "inputs": [],
      "name": "getDomainSeparator",
      "outputs": [
        {
          "internalType": "bytes32",
          "name": "",
          "type": "bytes32"
        }
      ],
      "stateMutability": "view",
      "type": "function"
    },
    {
      "inputs": [
        {
          "internalType": "uint256",
          "name": "amount",
          "type": "uint256"
        }
      ],
      "name": "getSharesForDepositTokens",
      "outputs": [
        {
          "internalType": "uint256",
          "name": "",
          "type": "uint256"
        }
      ],
      "stateMutability": "view",
      "type": "function"
    },
    {
      "inputs": [],
      "name": "name",
      "outputs": [
        {
          "internalType": "string",
          "name": "",
          "type": "string"
        }
      ],
      "stateMutability": "view",
      "type": "function"
    },
    {
      "inputs": [
        {
          "internalType": "address",
          "name": "",
          "type": "address"
        }
      ],
      "name": "nonces",
      "outputs": [
        {
          "internalType": "uint256",
          "name": "",
          "type": "uint256"
        }
      ],
      "stateMutability": "view",
      "type": "function"
    },
    {
      "inputs": [],
      "name": "numberOfAllowedDepositors",
      "outputs": [
        {
          "internalType": "uint256",
          "name": "",
          "type": "uint256"
        }
      ],
      "stateMutability": "view",
      "type": "function"
    },
    {
      "inputs": [],
      "name": "owner",
      "outputs": [
        {
          "internalType": "address",
          "name": "",
          "type": "address"
        }
      ],
      "stateMutability": "view",
      "type": "function"
    },
    {
      "inputs": [
        {
          "internalType": "address",
          "name": "owner",
          "type": "address"
        },
        {
          "internalType": "address",
          "name": "spender",
          "type": "address"
        },
        {
          "internalType": "uint256",
          "name": "value",
          "type": "uint256"
        },
        {
          "internalType": "uint256",
          "name": "deadline",
          "type": "uint256"
        },
        {
          "internalType": "uint8",
          "name": "v",
          "type": "uint8"
        },
        {
          "internalType": "bytes32",
          "name": "r",
          "type": "bytes32"
        },
        {
          "internalType": "bytes32",
          "name": "s",
          "type": "bytes32"
        }
      ],
      "name": "permit",
      "outputs": [],
      "stateMutability": "nonpayable",
      "type": "function"
    },
    {
      "inputs": [],
      "name": "platypusAsset",
      "outputs": [
        {
          "internalType": "contract IPlatypusAsset",
          "name": "",
          "type": "address"
        }
      ],
      "stateMutability": "view",
      "type": "function"
    },
    {
      "inputs": [],
      "name": "platypusPool",
      "outputs": [
        {
          "internalType": "contract IPlatypusPool",
          "name": "",
          "type": "address"
        }
      ],
      "stateMutability": "view",
      "type": "function"
    },
    {
      "inputs": [
        {
          "internalType": "uint256",
          "name": "amount",
          "type": "uint256"
        }
      ],
      "name": "recoverAVAX",
      "outputs": [],
      "stateMutability": "nonpayable",
      "type": "function"
    },
    {
      "inputs": [
        {
          "internalType": "address",
          "name": "tokenAddress",
          "type": "address"
        },
        {
          "internalType": "uint256",
          "name": "tokenAmount",
          "type": "uint256"
        }
      ],
      "name": "recoverERC20",
      "outputs": [],
      "stateMutability": "nonpayable",
      "type": "function"
    },
    {
      "inputs": [],
      "name": "reinvest",
      "outputs": [],
      "stateMutability": "nonpayable",
      "type": "function"
    },
    {
      "inputs": [
        {
          "internalType": "address",
          "name": "depositor",
          "type": "address"
        }
      ],
      "name": "removeDepositor",
      "outputs": [],
      "stateMutability": "nonpayable",
      "type": "function"
    },
    {
      "inputs": [
        {
          "internalType": "address",
          "name": "_rewardToken",
          "type": "address"
        }
      ],
      "name": "removeReward",
      "outputs": [],
      "stateMutability": "nonpayable",
      "type": "function"
    },
    {
      "inputs": [],
      "name": "renounceOwnership",
      "outputs": [],
      "stateMutability": "nonpayable",
      "type": "function"
    },
    {
      "inputs": [
        {
          "internalType": "uint256",
          "name": "_minReturnAmountAccepted",
          "type": "uint256"
        },
        {
          "internalType": "bool",
          "name": "",
          "type": "bool"
        }
      ],
      "name": "rescueDeployedFunds",
      "outputs": [],
      "stateMutability": "nonpayable",
      "type": "function"
    },
    {
      "inputs": [
        {
          "internalType": "address",
          "name": "token",
          "type": "address"
        },
        {
          "internalType": "address",
          "name": "spender",
          "type": "address"
        }
      ],
      "name": "revokeAllowance",
      "outputs": [],
      "stateMutability": "nonpayable",
      "type": "function"
    },
    {
      "inputs": [],
      "name": "rewardCount",
      "outputs": [
        {
          "internalType": "uint256",
          "name": "",
          "type": "uint256"
        }
      ],
      "stateMutability": "view",
      "type": "function"
    },
    {
      "inputs": [
        {
          "internalType": "address",
          "name": "",
          "type": "address"
        }
      ],
      "name": "rewardSwapPairs",
      "outputs": [
        {
          "internalType": "address",
          "name": "",
          "type": "address"
        }
      ],
      "stateMutability": "view",
      "type": "function"
    },
    {
      "inputs": [],
      "name": "rewardToken",
      "outputs": [
        {
          "internalType": "contract IERC20",
          "name": "",
          "type": "address"
        }
      ],
      "stateMutability": "view",
      "type": "function"
    },
    {
      "inputs": [],
      "name": "setAllowances",
      "outputs": [],
      "stateMutability": "nonpayable",
      "type": "function"
    },
    {
      "inputs": [
        {
          "internalType": "uint256",
          "name": "",
          "type": "uint256"
        }
      ],
      "name": "supportedRewards",
      "outputs": [
        {
          "internalType": "address",
          "name": "",
          "type": "address"
        }
      ],
      "stateMutability": "view",
      "type": "function"
    },
    {
      "inputs": [],
      "name": "symbol",
      "outputs": [
        {
          "internalType": "string",
          "name": "",
          "type": "string"
        }
      ],
      "stateMutability": "view",
      "type": "function"
    },
    {
      "inputs": [],
      "name": "totalDeposits",
      "outputs": [
        {
          "internalType": "uint256",
          "name": "",
          "type": "uint256"
        }
      ],
      "stateMutability": "view",
      "type": "function"
    },
    {
      "inputs": [],
      "name": "totalSupply",
      "outputs": [
        {
          "internalType": "uint256",
          "name": "",
          "type": "uint256"
        }
      ],
      "stateMutability": "view",
      "type": "function"
    },
    {
      "inputs": [
        {
          "internalType": "address",
          "name": "dst",
          "type": "address"
        },
        {
          "internalType": "uint256",
          "name": "amount",
          "type": "uint256"
        }
      ],
      "name": "transfer",
      "outputs": [
        {
          "internalType": "bool",
          "name": "",
          "type": "bool"
        }
      ],
      "stateMutability": "nonpayable",
      "type": "function"
    },
    {
      "inputs": [
        {
          "internalType": "address",
          "name": "src",
          "type": "address"
        },
        {
          "internalType": "address",
          "name": "dst",
          "type": "address"
        },
        {
          "internalType": "uint256",
          "name": "amount",
          "type": "uint256"
        }
      ],
      "name": "transferFrom",
      "outputs": [
        {
          "internalType": "bool",
          "name": "",
          "type": "bool"
        }
      ],
      "stateMutability": "nonpayable",
      "type": "function"
    },
    {
      "inputs": [
        {
          "internalType": "address",
          "name": "newOwner",
          "type": "address"
        }
      ],
      "name": "transferOwnership",
      "outputs": [],
      "stateMutability": "nonpayable",
      "type": "function"
    },
    {
      "inputs": [
        {
          "internalType": "uint256",
          "name": "newValue",
          "type": "uint256"
        }
      ],
      "name": "updateAdminFee",
      "outputs": [],
      "stateMutability": "nonpayable",
      "type": "function"
    },
    {
      "inputs": [
        {
          "internalType": "address",
          "name": "_collector",
          "type": "address"
        }
      ],
      "name": "updateBoosterFeeCollector",
      "outputs": [],
      "stateMutability": "nonpayable",
      "type": "function"
    },
    {
      "inputs": [
        {
          "internalType": "bool",
          "name": "newValue",
          "type": "bool"
        }
      ],
      "name": "updateDepositsEnabled",
      "outputs": [],
      "stateMutability": "nonpayable",
      "type": "function"
    },
    {
      "inputs": [
        {
          "internalType": "address",
          "name": "newValue",
          "type": "address"
        }
      ],
      "name": "updateDevAddr",
      "outputs": [],
      "stateMutability": "nonpayable",
      "type": "function"
    },
    {
      "inputs": [
        {
          "internalType": "uint256",
          "name": "newValue",
          "type": "uint256"
        }
      ],
      "name": "updateDevFee",
      "outputs": [],
      "stateMutability": "nonpayable",
      "type": "function"
    },
    {
      "inputs": [
        {
          "internalType": "uint256",
          "name": "newValue",
          "type": "uint256"
        }
      ],
      "name": "updateMaxTokensToDepositWithoutReinvest",
      "outputs": [],
      "stateMutability": "nonpayable",
      "type": "function"
    },
    {
      "inputs": [
        {
          "internalType": "uint256",
          "name": "newValue",
          "type": "uint256"
        }
      ],
      "name": "updateMinTokensToReinvest",
      "outputs": [],
      "stateMutability": "nonpayable",
      "type": "function"
    },
    {
      "inputs": [
        {
          "internalType": "uint256",
          "name": "newValue",
          "type": "uint256"
        }
      ],
      "name": "updateReinvestReward",
      "outputs": [],
      "stateMutability": "nonpayable",
      "type": "function"
    },
    {
      "inputs": [
        {
          "internalType": "uint256",
          "name": "_amount",
          "type": "uint256"
        }
      ],
      "name": "withdraw",
      "outputs": [],
      "stateMutability": "nonpayable",
      "type": "function"
    }
  ],
  "transactionHash": "0x99a298ae372c522b63c21570b221b57d7c307274e09d3aa141623a4a3d5a6289",
  "args": [
    "Yield Yak: Echidna x Platypus UST",
    "0xb599c3590F42f8F995ECfa0f85D2980B76862fc1",
    "0xecd6d33555183bc82264dbc8bebd77a1f02e421e",
    [
      {
        "reward": "0xeb8343D5284CaEc921F035207ca94DB6BAaaCBcd",
        "swapPair": "0x218e6A0AD170460F93eA784FbcC92B57DF13316E"
      },
      {
        "reward": "0x22d4002028f537599bE9f666d1c4Fa138522f9c8",
        "swapPair": "0xcdfd91eea657cc2701117fe9711c9a4f61feed23"
      },
      {
        "reward": "0xb599c3590F42f8F995ECfa0f85D2980B76862fc1",
        "swapPair": "0xecd6d33555183bc82264dbc8bebd77a1f02e421e"
      }
    ],
    "0x1c898b4e77843aa3057d69350cd147c4ffdef93f",
    "0xe0D166DE15665bC4B7185B2e35E847E51316E126",
    "8",
    "0xa1cfc90a52ba3453a78f460b8be1fcde068e29e7",
    "0x302404cb8F34713A8B8DBF9b4989A41252332068",
    {
      "minTokensToReinvest": "100000000000000",
      "adminFeeBips": 0,
      "devFeeBips": 800,
      "reinvestRewardBips": 200
    }
  ],
  "solcInputHash": "6d050111a6c6eda1ad2d3395a9576eca",
  "bytecode": "0x6101606040526009610120819052685969656c642059616b60b81b6101409081526200002f916000919062000c4d565b506040805180820190915260038082526216549560ea1b60209092019182526200005c9160019162000c4d565b503480156200006a57600080fd5b50604051620070e0380380620070e08339810160408190526200008d9162000f70565b89898989858585858484846000620000a4620003d9565b600680546001600160a01b0319166001600160a01b03831690811790915560405191925090600090600080516020620070c0833981519152908290a3508451620000f690600090602088019062000c4d565b50600980546001600160a01b0386166001600160a01b031991821617909155600a8054821673b31f66aa3c1e785363f0875a1b74e27b85fd66c7179055600b8054909116732d580f9cf2fb2d09bc411532988f2afda4e7beff17905560005b8351811015620001aa57620001a18482815181106200017057fe5b6020026020010151600001518583815181106200018957fe5b602002602001015160200151620003dd60201b60201c565b60010162000155565b508051620001b89062000511565b6020810151620001c89062000599565b6040810151620001d89062000667565b6060810151620001e89062000721565b620001f46001620007db565b620001ff8262000883565b7fc7606d21ac05cd309191543e409f0845c016120563783d70e4f41419dc0ef234600080604051620002339291906200109f565b60405180910390a1505050505062000251846200093d60201b60201c565b50505060808790525050506001600160601b0319606086811b821660e05287901b1660a0526040516315895f4760e31b81526000906001600160a01b0388169063ac4afa3890620002a790889060040162001240565b60a06040518083038186803b158015620002c057600080fd5b505afa158015620002d5573d6000803e3d6000fd5b505050506040513d601f19601f82011682018060405250810190620002fb919062000efa565b506001600160601b0319606082901b1660c0526040516371f9621160e01b81529094506001600160a01b038a1693506371f9621192506200034291508d9060040162001066565b60206040518083038186803b1580156200035b57600080fd5b505afa15801562000370573d6000803e3d6000fd5b505050506040513d601f19601f8201168201806040525081019062000396919062000edd565b60601b6001600160601b031916610100525050601680546001600160a01b0319166001600160a01b039390931692909217909155506200126d9650505050505050565b3390565b600a546001600160a01b038381169116146200044857620004208183600a60009054906101000a90046001600160a01b0316620009aa60201b6200229b1760201c565b620004485760405162461bcd60e51b81526004016200043f90620010ad565b60405180910390fd5b6001600160a01b038083166000818152601260209081526040822080549486166001600160a01b03199586161790556013805460018181018355919093527f66de8ffda797e3de9c05e8fc57b3bf0ec28a930d40b0d285d93c06501cf6a0909092018054909416909217909255601454620004ce929091620024ec62000c0f821b17901c565b6014556040517f916e172c080569186aa7ea048268267257cf7cc49505908863f747bca8620f80906200050590849084906200107a565b60405180910390a15050565b6200051b620003d9565b6001600160a01b03166200052e62000c3e565b6001600160a01b031614620005575760405162461bcd60e51b81526004016200043f906200120b565b7f481f79ac3a523b6d6db3c5a720e190e986d1cc1b41adcdf50f9caef849901100600c54826040516200058c9291906200109f565b60405180910390a1600c55565b620005a3620003d9565b6001600160a01b0316620005b662000c3e565b6001600160a01b031614620005df5760405162461bcd60e51b81526004016200043f906200120b565b61271062000619600f54620006056011548562000c0f60201b620024ec1790919060201c565b62000c0f60201b620024ec1790919060201c565b11156200062557600080fd5b7f3cc372f330f95ac9540626dc8a25f5bf21ba607215a5d58304cb804d446f104a601054826040516200065a9291906200109f565b60405180910390a1601055565b62000671620003d9565b6001600160a01b03166200068462000c3e565b6001600160a01b031614620006ad5760405162461bcd60e51b81526004016200043f906200120b565b612710620006d3600f54620006056010548562000c0f60201b620024ec1790919060201c565b1115620006df57600080fd5b7f2a42303d002f0ba6cfe8259c91d4684443fb0b3de286ba74991175d65172613160115482604051620007149291906200109f565b60405180910390a1601155565b6200072b620003d9565b6001600160a01b03166200073e62000c3e565b6001600160a01b031614620007675760405162461bcd60e51b81526004016200043f906200120b565b6127106200078d601154620006056010548562000c0f60201b620024ec1790919060201c565b11156200079957600080fd5b7fe7f97d51d307dc44045597c9978bec0f842e6bb40d19b9444084cfa30d9ed4f2600f5482604051620007ce9291906200109f565b60405180910390a1600f55565b620007e5620003d9565b6001600160a01b0316620007f862000c3e565b6001600160a01b031614620008215760405162461bcd60e51b81526004016200043f906200120b565b600e5460ff16151581151514156200083857600080fd5b600e805460ff19168215151790556040517f7b014ed3854e7f5cb0218d58b3c6ae7d53a68bb0af2f67bfb029ea42c38a7e85906200087890839062001094565b60405180910390a150565b6200088d620003d9565b6001600160a01b0316620008a062000c3e565b6001600160a01b031614620008c95760405162461bcd60e51b81526004016200043f906200120b565b6001600160a01b038116620008f25760405162461bcd60e51b81526004016200043f906200110b565b6006546040516001600160a01b03808416921690600080516020620070c083398151915290600090a3600680546001600160a01b0319166001600160a01b0392909216919091179055565b600954600a54620009699183916001600160a01b039182169116620009aa602090811b6200229b17901c565b620009885760405162461bcd60e51b81526004016200043f9062001188565b601580546001600160a01b0319166001600160a01b0392909216919091179055565b6000836001600160a01b0316630dfe16816040518163ffffffff1660e01b815260040160206040518083038186803b158015620009e657600080fd5b505afa158015620009fb573d6000803e3d6000fd5b505050506040513d601f19601f8201168201806040525081019062000a21919062000edd565b6001600160a01b0316836001600160a01b0316148062000ac65750836001600160a01b031663d21220a76040518163ffffffff1660e01b815260040160206040518083038186803b15801562000a7657600080fd5b505afa15801562000a8b573d6000803e3d6000fd5b505050506040513d601f19601f8201168201806040525081019062000ab1919062000edd565b6001600160a01b0316836001600160a01b0316145b801562000be85750836001600160a01b0316630dfe16816040518163ffffffff1660e01b815260040160206040518083038186803b15801562000b0857600080fd5b505afa15801562000b1d573d6000803e3d6000fd5b505050506040513d601f19601f8201168201806040525081019062000b43919062000edd565b6001600160a01b0316826001600160a01b0316148062000be85750836001600160a01b031663d21220a76040518163ffffffff1660e01b815260040160206040518083038186803b15801562000b9857600080fd5b505afa15801562000bad573d6000803e3d6000fd5b505050506040513d601f19601f8201168201806040525081019062000bd3919062000edd565b6001600160a01b0316826001600160a01b0316145b801562000c075750816001600160a01b0316836001600160a01b031614155b949350505050565b60008282018381101562000c375760405162461bcd60e51b81526004016200043f9062001151565b9392505050565b6006546001600160a01b031690565b828054600181600116156101000203166002900490600052602060002090601f016020900481019282601f1062000c9057805160ff191683800117855562000cc0565b8280016001018555821562000cc0579182015b8281111562000cc057825182559160200191906001019062000ca3565b5062000cce92915062000cd2565b5090565b5b8082111562000cce576000815560010162000cd3565b80516001600160a01b038116811462000d0157600080fd5b919050565b600082601f83011262000d17578081fd5b81516001600160401b0381111562000d2b57fe5b602062000d3c818284020162001249565b828152925080830184820160408085028701840188101562000d5d57600080fd5b60005b8581101562000d885762000d75898462000e21565b8452928401929181019160010162000d60565b50505050505092915050565b600082601f83011262000da5578081fd5b81516001600160401b0381111562000db957fe5b602062000dcf601f8301601f1916820162001249565b9250818352848183860101111562000de657600080fd5b60005b8281101562000e0657848101820151848201830152810162000de9565b8281111562000e185760008284860101525b50505092915050565b60006040828403121562000e33578081fd5b604080519081016001600160401b038111828210171562000e5057fe5b60405290508062000e618362000ce9565b815262000e716020840162000ce9565b60208201525092915050565b60006080828403121562000e8f578081fd5b604051608081016001600160401b038111828210171562000eac57fe5b8060405250809150825181526020830151602082015260408301516040820152606083015160608201525092915050565b60006020828403121562000eef578081fd5b62000c378262000ce9565b600080600080600060a0868803121562000f12578081fd5b62000f1d8662000ce9565b945062000f2d6020870162000ce9565b935062000f3d6040870162000ce9565b925062000f4d6060870162000ce9565b91506080860151801515811462000f62578182fd5b809150509295509295909350565b6000806000806000806000806000806101a08b8d03121562000f90578485fd5b8a516001600160401b038082111562000fa7578687fd5b62000fb58e838f0162000d94565b9b5062000fc560208e0162000ce9565b9a5062000fd560408e0162000ce9565b995060608d015191508082111562000feb578687fd5b5062000ffa8d828e0162000d06565b9750506200100b60808c0162000ce9565b95506200101b60a08c0162000ce9565b945060c08b015193506200103260e08c0162000ce9565b9250620010436101008c0162000ce9565b9150620010558c6101208d0162000e7d565b90509295989b9194979a5092959850565b6001600160a01b0391909116815260200190565b6001600160a01b0392831681529116602082015260400190565b901515815260200190565b918252602082015260400190565b602080825260409082018190527f5661726961626c655265776172647353747261746567793a3a53776170207061908201527f697220646f6573206e6f7420636f6e7461696e2072657761726420746f6b656e606082015260800190565b60208082526026908201527f4f776e61626c653a206e6577206f776e657220697320746865207a65726f206160408201526564647265737360d01b606082015260800190565b6020808252601b908201527f536166654d6174683a206164646974696f6e206f766572666c6f770000000000604082015260600190565b6020808252605a908201527f5661726961626c65526577617264735374726174656779466f7253413a3a737760408201527f6170506169724465706f736974546f6b656e20646f6573206e6f74206d61746360608201527f68206465706f73697420616e642072657761726420746f6b656e000000000000608082015260a00190565b6020808252818101527f4f776e61626c653a2063616c6c6572206973206e6f7420746865206f776e6572604082015260600190565b90815260200190565b6040518181016001600160401b03811182821017156200126557fe5b604052919050565b60805160a05160601c60c05160601c60e05160601c6101005160601c615d6c6200135460003980610e55528061275d52806129bb5280612b47528061427d52806144cd528061464c5250806111705280611689528061273c528061291552806129e85280612a985280612b7452806142cc528061437c5280614438525080610ea352806110a452806127875280613094528061324a52806133c95280613c985280613e89525080611b6352806128655280612ffc528061313352806144fa52806145a7528061467b525080610e7f5280612892528061316052806145d45250615d6c6000f3fe608060405234801561001057600080fd5b506004361061043c5760003560e01c80638980f11f11610235578063bd079f5511610135578063dd62ed3e116100c8578063eab89a5a11610097578063f2fde38b1161007c578063f2fde38b1461080b578063f7c618c11461081e578063fdb5a03e146108265761043c565b8063eab89a5a146107f0578063ed24911d146108035761043c565b8063dd62ed3e146107a4578063dd8ce4d6146107b7578063e21ac825146107ca578063e75ab045146107dd5761043c565b8063cff1b6ef11610104578063cff1b6ef1461076e578063d505accf14610781578063da09c72c14610794578063dbd9a4d41461079c5761043c565b8063bd079f551461074e578063c1d8a4c514610756578063c4b24a461461075e578063c89039c5146107665761043c565b80639e4e7318116101c8578063a9059cbb11610197578063b52a321f1161017c578063b52a321f1461072b578063b6b55f2514610733578063b9e57b80146107465761043c565b8063a9059cbb14610705578063ac0d31ff146107185761043c565b80639e4e7318146106c4578063a4d5e67c146106cc578063a5534e71146106df578063a8ae2b7c146106f25761043c565b80639291d563116102045780639291d5631461068e57806395d89b41146106a157806399729ec1146106a95780639a222a89146106bc5761043c565b80638980f11f146106585780638aff733d1461066b5780638b73e606146106735780638da5cb5b146106865761043c565b80634a970be7116103405780636c8b4b52116102d357806379085425116102a25780637d882097116102875780637d8820971461062a5780637ecebe001461063257806381837230146106455761043c565b8063790854251461060f5780637ae26773146106175761043c565b80636c8b4b52146105d957806370a08231146105ec578063715018a6146105ff578063789139bc146106075761043c565b8063588220001161030f57806358822000146105b95780635ea682ea146105c15780635eaec0e4146105c95780636406431c146105d15761043c565b80634a970be71461056d5780634bebd1e7146105805780634e77ace5146105935780634ebb7916146105a65761043c565b806323b872dd116103d357806330adf81f116103a25780633bdc6e72116103875780633bdc6e721461053f57806340b47e1a14610547578063483c2ef01461055a5761043c565b806330adf81f14610522578063313ce5671461052a5761043c565b806323b872dd146104d4578063247d284b146104e75780632e1a7d4d146104fa5780632f4f21e21461050f5761043c565b80630fccc4001161040f5780630fccc4001461049c57806311056035146104b157806318160ddd146104c457806320606b70146104cc5761043c565b806306fdde0314610441578063076771111461045f578063095ea7b3146104745780630f23475d14610494575b600080fd5b61044961082e565b60405161045691906152e1565b60405180910390f35b6104676108bc565b604051610456919061525a565b610487610482366004614ec5565b6108c2565b604051610456919061524f565b6104676108d9565b6104a4610905565b604051610456919061512b565b6104676104bf366004614f76565b610914565b610467610927565b61046761092d565b6104876104e2366004614e18565b610951565b6104676104f5366004614f76565b610a3a565b61050d610508366004614f76565b610a45565b005b61050d61051d366004614ec5565b610b07565b610467610b15565b610532610b39565b6040516104569190615c2e565b610467610b3e565b61050d610555366004614de0565b610b44565b610487610568366004614da8565b610b78565b61050d61057b366004614ff7565b610b8d565b61050d61058e366004614da8565b610c25565b61050d6105a1366004614ef0565b610d09565b61050d6105b4366004614f76565b610da7565b6104a4610e53565b610467610e77565b610467610e7d565b6104a4610ea1565b61050d6105e7366004614da8565b610ec5565b6104676105fa366004614da8565b610f26565b61050d610f41565b610467610fca565b610467610fd0565b61050d610625366004614de0565b610fd6565b61046761109f565b610467610640366004614da8565b61122e565b61050d610653366004614f76565b611240565b61050d610666366004614ec5565b6112bf565b6104676113d1565b61050d610681366004614da8565b6113d7565b6104a46114dd565b61050d61069c366004614da8565b6114ec565b61044961157f565b61050d6106b7366004614f76565b6115d9565b6104a4611687565b6104676116ab565b61050d6106da366004614da8565b6116cf565b6104a46106ed366004614da8565b611856565b61050d610700366004614f76565b611871565b610487610713366004614ec5565b611919565b61050d610726366004614fa6565b611926565b610487611afe565b61050d610741366004614f76565b611b07565b610467611b14565b610467611b5b565b6104a4611b61565b610467611b85565b6104a4611dfb565b61050d61077c366004614f76565b611e0a565b61050d61078f366004614e58565b611eb2565b6104a4611f67565b61050d611f76565b6104676107b2366004614de0565b611fcd565b6104676107c5366004614f76565b611ff8565b61050d6107d8366004614f76565b612032565b6104a46107eb366004614f76565b6120b1565b6104676107fe366004614f76565b6120d8565b610467612109565b61050d610819366004614da8565b6121a0565b6104a4612261565b61050d612270565b6000805460408051602060026001851615610100026000190190941693909304601f810184900484028201840190925281815292918301828280156108b45780601f10610889576101008083540402835291602001916108b4565b820191906000526020600020905b81548152906001019060200180831161089757829003601f168201915b505050505081565b60105481565b60006108cf338484612511565b5060015b92915050565b6000806108e461109f565b905060006108f1826125c5565b90506108fd82826125e7565b925050505b90565b6016546001600160a01b031681565b600061091f826125c5565b90505b919050565b60025481565b7f8b73c3c69bb8fe3d512ecc4cf759cc79239f7b179b0ffacaa9a75d522b39400f81565b6001600160a01b03831660008181526003602090815260408083203380855292528220549192909190821480159061098b57506000198114155b15610a215760006109b7856040518060600160405280602f8152602001615cb3602f9139849190612625565b6001600160a01b03808916600081815260036020908152604080832094891680845294909152908190208490555192935090917f8c5be1e5ebec7d5bd14f71427d1e84f3dd0314c0f7b2291e5b200ac8c7c3b92590610a1790859061525a565b60405180910390a3505b610a2c868686612651565b6001925050505b9392505050565b600061091f82612735565b6000610a50826120d8565b905060008111610a7b5760405162461bcd60e51b8152600401610a72906152f4565b60405180910390fd5b6000610a8682612782565b90506000610a93836125c5565b9050610ab633610aa384846125e7565b6009546001600160a01b03169190612bfa565b610ac03385612c82565b336001600160a01b03167f884edad9ce6fa2440d8a54cc123490eb96d2768479d49ff9c7366125a942436484604051610af9919061525a565b60405180910390a250505050565b610b118282612d5c565b5050565b7f6e71edae12b1b97f4d1f60370fef10105fa2faae0126114a169c64845d6126c981565b601281565b60075481565b600b546001600160a01b03163314610b6e5760405162461bcd60e51b8152600401610a7290615953565b610b118282612eda565b60086020526000908152604090205460ff1681565b6009546040517fd505accf0000000000000000000000000000000000000000000000000000000081526001600160a01b039091169063d505accf90610be290339030908a908a908a908a908a90600401615163565b600060405180830381600087803b158015610bfc57600080fd5b505af1158015610c10573d6000803e3d6000fd5b50505050610c1e3386612d5c565b5050505050565b610c2d612fd0565b6001600160a01b0316610c3e6114dd565b6001600160a01b031614610c645760405162461bcd60e51b8152600401610a72906157f6565b6001600160a01b03811660009081526008602052604090205460ff1615610c9d5760405162461bcd60e51b8152600401610a72906155ee565b6001600160a01b0381166000908152600860205260409020805460ff19166001908117909155600754610ccf916124ec565b6007556040516001600160a01b038216907fc0a1035c16faf8d1304056d92c00edf028f87e62b8235a938f00af9e3c0312c590600090a250565b610d11612fd0565b6001600160a01b0316610d226114dd565b6001600160a01b031614610d485760405162461bcd60e51b8152600401610a72906157f6565b600e5460ff1615158115151415610d5e57600080fd5b600e805460ff19168215151790556040517f7b014ed3854e7f5cb0218d58b3c6ae7d53a68bb0af2f67bfb029ea42c38a7e8590610d9c90839061524f565b60405180910390a150565b610daf612fd0565b6001600160a01b0316610dc06114dd565b6001600160a01b031614610de65760405162461bcd60e51b8152600401610a72906157f6565b60008111610df357600080fd5b604051339082156108fc029083906000818181858888f19350505050158015610e20573d6000803e3d6000fd5b507f8c1256b8896378cd5044f80c202f9772b9d77dc85c8a6eb51967210b09bfaa28600082604051610d9c9291906151a4565b7f000000000000000000000000000000000000000000000000000000000000000081565b60115481565b7f000000000000000000000000000000000000000000000000000000000000000081565b7f000000000000000000000000000000000000000000000000000000000000000081565b610ecd612fd0565b6001600160a01b0316610ede6114dd565b6001600160a01b031614610f045760405162461bcd60e51b8152600401610a72906157f6565b601680546001600160a01b0319166001600160a01b0392909216919091179055565b6001600160a01b031660009081526004602052604090205490565b610f49612fd0565b6001600160a01b0316610f5a6114dd565b6001600160a01b031614610f805760405162461bcd60e51b8152600401610a72906157f6565b6006546040516000916001600160a01b0316907f8be0079c531659141344cd1fd0a4f28419497f9722a3daafe3b4186f6b6457e0908390a3600680546001600160a01b0319169055565b600d5481565b60145481565b610fde612fd0565b6001600160a01b0316610fef6114dd565b6001600160a01b0316146110155760405162461bcd60e51b8152600401610a72906157f6565b60405163095ea7b360e01b81526001600160a01b0383169063095ea7b3906110449084906000906004016151a4565b602060405180830381600087803b15801561105e57600080fd5b505af1158015611072573d6000803e3d6000fd5b505050506040513d601f19601f820116820180604052508101906110969190614f0c565b610b1157600080fd5b6000807f00000000000000000000000000000000000000000000000000000000000000006001600160a01b03166370a08231306040518263ffffffff1660e01b81526004016110ee919061512b565b60206040518083038186803b15801561110657600080fd5b505afa15801561111a573d6000803e3d6000fd5b505050506040513d601f19601f8201168201806040525081019061113e9190614f8e565b90508061114f576000915050610902565b60095460405163907448ed60e01b8152600091829182916001600160a01b037f000000000000000000000000000000000000000000000000000000000000000081169263907448ed926111a892169088906004016151a4565b60606040518083038186803b1580156111c057600080fd5b505afa1580156111d4573d6000803e3d6000fd5b505050506040513d601f19601f820116820180604052508101906111f89190614fca565b9250925092508061121b5760405162461bcd60e51b8152600401610a72906158f6565b61122583836124ec565b94505050505090565b60056020526000908152604090205481565b611248612fd0565b6001600160a01b03166112596114dd565b6001600160a01b03161461127f5760405162461bcd60e51b8152600401610a72906157f6565b7f481f79ac3a523b6d6db3c5a720e190e986d1cc1b41adcdf50f9caef849901100600c54826040516112b2929190615ba1565b60405180910390a1600c55565b6112c7612fd0565b6001600160a01b03166112d86114dd565b6001600160a01b0316146112fe5760405162461bcd60e51b8152600401610a72906157f6565b6000811161130b57600080fd5b60405163a9059cbb60e01b81526001600160a01b0383169063a9059cbb9061133990339085906004016151a4565b602060405180830381600087803b15801561135357600080fd5b505af1158015611367573d6000803e3d6000fd5b505050506040513d601f19601f8201168201806040525081019061138b9190614f0c565b61139457600080fd5b7f8c1256b8896378cd5044f80c202f9772b9d77dc85c8a6eb51967210b09bfaa2882826040516113c59291906151a4565b60405180910390a15050565b600f5481565b6113df612fd0565b6001600160a01b03166113f06114dd565b6001600160a01b0316146114165760405162461bcd60e51b8152600401610a72906157f6565b6000600754116114385760405162461bcd60e51b8152600401610a729061547a565b6001600160a01b03811660009081526008602052604090205460ff1615156001146114755760405162461bcd60e51b8152600401610a72906156df565b6001600160a01b0381166000908152600860205260409020805460ff191690556007546114a39060016125e7565b6007556040516001600160a01b038216907f0e86f6608b536e5339a25b65ff531f5ea91e1313d056ecd4752b35cbd16137d490600090a250565b6006546001600160a01b031690565b600b546001600160a01b031633146115165760405162461bcd60e51b8152600401610a7290615953565b600b546040517fa8e91499ed37682f43cffb045fcc7d379a91e8c9a14e6321877ee34dee564c0091611555916001600160a01b039091169084906151bd565b60405180910390a1600b80546001600160a01b0319166001600160a01b0392909216919091179055565b60018054604080516020600284861615610100026000190190941693909304601f810184900484028201840190925281815292918301828280156108b45780601f10610889576101008083540402835291602001916108b4565b6115e1612fd0565b6001600160a01b03166115f26114dd565b6001600160a01b0316146116185760405162461bcd60e51b8152600401610a72906157f6565b61271061163c600f54611636601054856124ec90919063ffffffff16565b906124ec565b111561164757600080fd5b7f2a42303d002f0ba6cfe8259c91d4684443fb0b3de286ba74991175d6517261316011548260405161167a929190615ba1565b60405180910390a1601155565b7f000000000000000000000000000000000000000000000000000000000000000081565b7fc89efdaa54c0f20c7adf612882df0950f5a951637e0307cdcb4c672f298b8bc681565b600b546001600160a01b031633146116f95760405162461bcd60e51b8152600401610a7290615953565b6001600160a01b038116600090815260126020526040812080546001600160a01b0319169055805b6013548110156117ca576013818154811061173857fe5b6000918252602090912001546001600160a01b03848116911614156117c2576013805460019350600019810190811061176d57fe5b600091825260209091200154601380546001600160a01b03909216918390811061179357fe5b9060005260206000200160006101000a8154816001600160a01b0302191690836001600160a01b031602179055505b600101611721565b50806117e85760405162461bcd60e51b8152600401610a729061573c565b60138054806117f357fe5b600082815260209020810160001990810180546001600160a01b03191690550190556014546118239060016125e7565b6014556040517f963b7c735475147a62c589c2d7cb8ec4b0a6b7af4f97373d79ebfa42ab8aa7dc906113c590849061512b565b6012602052600090815260409020546001600160a01b031681565b611879612fd0565b6001600160a01b031661188a6114dd565b6001600160a01b0316146118b05760405162461bcd60e51b8152600401610a72906157f6565b6127106118ce601154611636601054856124ec90919063ffffffff16565b11156118d957600080fd5b7fe7f97d51d307dc44045597c9978bec0f842e6bb40d19b9444084cfa30d9ed4f2600f548260405161190c929190615ba1565b60405180910390a1600f55565b60006108cf338484612651565b61192e612fd0565b6001600160a01b031661193f6114dd565b6001600160a01b0316146119655760405162461bcd60e51b8152600401610a72906157f6565b6009546040516370a0823160e01b81526000916001600160a01b0316906370a082319061199690309060040161512b565b60206040518083038186803b1580156119ae57600080fd5b505afa1580156119c2573d6000803e3d6000fd5b505050506040513d601f19601f820116820180604052508101906119e69190614f8e565b90506119f0612fd4565b6009546040516370a0823160e01b81526000916001600160a01b0316906370a0823190611a2190309060040161512b565b60206040518083038186803b158015611a3957600080fd5b505afa158015611a4d573d6000803e3d6000fd5b505050506040513d601f19601f82011682018060405250810190611a719190614f8e565b905083611a7e82846125e7565b1015611a9c5760405162461bcd60e51b8152600401610a7290615625565b7fc7606d21ac05cd309191543e409f0845c016120563783d70e4f41419dc0ef234611ac561109f565b600254604051611ad6929190615ba1565b60405180910390a1600e5460ff16151560011415611af857611af86000610d09565b50505050565b600e5460ff1681565b611b113382612d5c565b50565b600080611b1f611b85565b9050600c548110611b5357611b4b612710611b45600f54846131c390919063ffffffff16565b906131fd565b915050610902565b600091505090565b600c5481565b7f000000000000000000000000000000000000000000000000000000000000000081565b60006060611b9161323f565b6040516370a0823160e01b815290915060009073b31f66aa3c1e785363f0875a1b74e27b85fd66c7906370a0823190611bce90309060040161512b565b60206040518083038186803b158015611be657600080fd5b505afa158015611bfa573d6000803e3d6000fd5b505050506040513d601f19601f82011682018060405250810190611c1e9190614f8e565b9050611c2a81476124ec565b5060005b8251811015611df4576000838281518110611c4557fe5b602002602001015160000151905073b31f66aa3c1e785363f0875a1b74e27b85fd66c76001600160a01b0316816001600160a01b03161415611cb257611cab848381518110611c9057fe5b602002602001015160200151846124ec90919063ffffffff16565b9250611deb565b6040516370a0823160e01b81526000906001600160a01b038316906370a0823190611ce190309060040161512b565b60206040518083038186803b158015611cf957600080fd5b505afa158015611d0d573d6000803e3d6000fd5b505050506040513d601f19601f82011682018060405250810190611d319190614f8e565b90506000611d5f868581518110611d4457fe5b602002602001015160200151836124ec90919063ffffffff16565b9050600060126000888781518110611d7357fe5b602090810291909101810151516001600160a01b03908116835290820192909252604001600020541690508115801590611db557506001600160a01b03811615155b15611de757611de4611ddd838673b31f66aa3c1e785363f0875a1b74e27b85fd66c785613586565b87906124ec565b95505b5050505b50600101611c2e565b5091505090565b6009546001600160a01b031681565b611e12612fd0565b6001600160a01b0316611e236114dd565b6001600160a01b031614611e495760405162461bcd60e51b8152600401610a72906157f6565b612710611e67600f54611636601154856124ec90919063ffffffff16565b1115611e7257600080fd5b7f3cc372f330f95ac9540626dc8a25f5bf21ba607215a5d58304cb804d446f104a60105482604051611ea5929190615ba1565b60405180910390a1601055565b42841015611ed25760405162461bcd60e51b8152600401610a72906156a8565b6001600160a01b03871660009081526005602090815260408083208054600181019091559051611f2d927f6e71edae12b1b97f4d1f60370fef10105fa2faae0126114a169c64845d6126c9928c928c928c92918c9101615263565b604051602081830303815290604052805190602001209050611f528882868686613661565b611f5d888888612511565b5050505050505050565b600b546001600160a01b031681565b611f7e612fd0565b6001600160a01b0316611f8f6114dd565b6001600160a01b031614611fb55760405162461bcd60e51b8152600401610a72906157f6565b60405162461bcd60e51b8152600401610a72906158bf565b6001600160a01b03918216600090815260036020908152604080832093909416825291909152205490565b600061200e61200561109f565b600254906131c3565b612019575080610922565b61091f61202461109f565b600254611b459085906131c3565b61203a612fd0565b6001600160a01b031661204b6114dd565b6001600160a01b0316146120715760405162461bcd60e51b8152600401610a72906157f6565b7fa5dae50539d56dfe1fb5273d883b0c39bc76750a25d036fc5fbd09ad8fd5f57f600d54826040516120a4929190615ba1565b60405180910390a1600d55565b601381815481106120be57fe5b6000918252602090912001546001600160a01b0316905081565b60006120e561200561109f565b6120f157506000610922565b61091f600254611b4561210261109f565b85906131c3565b60007f8b73c3c69bb8fe3d512ecc4cf759cc79239f7b179b0ffacaa9a75d522b39400f60001b600060405161213e9190615085565b6040519081900390207fc89efdaa54c0f20c7adf612882df0950f5a951637e0307cdcb4c672f298b8bc6612170613737565b30604051602001612185959493929190615297565b60405160208183030381529060405280519060200120905090565b6121a8612fd0565b6001600160a01b03166121b96114dd565b6001600160a01b0316146121df5760405162461bcd60e51b8152600401610a72906157f6565b6001600160a01b0381166122055760405162461bcd60e51b8152600401610a72906153af565b6006546040516001600160a01b038084169216907f8be0079c531659141344cd1fd0a4f28419497f9722a3daafe3b4186f6b6457e090600090a3600680546001600160a01b0319166001600160a01b0392909216919091179055565b600a546001600160a01b031681565b32331461228f5760405162461bcd60e51b8152600401610a729061540c565b612299600061373b565b565b6000836001600160a01b0316630dfe16816040518163ffffffff1660e01b815260040160206040518083038186803b1580156122d657600080fd5b505afa1580156122ea573d6000803e3d6000fd5b505050506040513d601f19601f8201168201806040525081019061230e9190614dc4565b6001600160a01b0316836001600160a01b031614806123ae5750836001600160a01b031663d21220a76040518163ffffffff1660e01b815260040160206040518083038186803b15801561236157600080fd5b505afa158015612375573d6000803e3d6000fd5b505050506040513d601f19601f820116820180604052508101906123999190614dc4565b6001600160a01b0316836001600160a01b0316145b80156124c65750836001600160a01b0316630dfe16816040518163ffffffff1660e01b815260040160206040518083038186803b1580156123ee57600080fd5b505afa158015612402573d6000803e3d6000fd5b505050506040513d601f19601f820116820180604052508101906124269190614dc4565b6001600160a01b0316826001600160a01b031614806124c65750836001600160a01b031663d21220a76040518163ffffffff1660e01b815260040160206040518083038186803b15801561247957600080fd5b505afa15801561248d573d6000803e3d6000fd5b505050506040513d601f19601f820116820180604052508101906124b19190614dc4565b6001600160a01b0316826001600160a01b0316145b80156124e45750816001600160a01b0316836001600160a01b031614155b949350505050565b600082820183811015610a335760405162461bcd60e51b8152600401610a7290615443565b6001600160a01b0383166125375760405162461bcd60e51b8152600401610a729061582b565b6001600160a01b03821661255d5760405162461bcd60e51b8152600401610a7290615b35565b6001600160a01b0380841660008181526003602090815260408083209487168084529490915290819020849055517f8c5be1e5ebec7d5bd14f71427d1e84f3dd0314c0f7b2291e5b200ac8c7c3b925906125b890859061525a565b60405180910390a3505050565b6000806125d0613866565b9050610a336125dd61386b565b611b4585846131c3565b6000610a3383836040518060400160405280601f81526020017f536166654d6174683a207375627472616374696f6e20756e646572666c6f77008152505b600081848411156126495760405162461bcd60e51b8152600401610a7291906152e1565b505050900390565b6001600160a01b0382166126775760405162461bcd60e51b8152600401610a7290615862565b6126b4816040518060600160405280602e8152602001615d09602e91396001600160a01b0386166000908152600460205260409020549190612625565b6001600160a01b0380851660009081526004602052604080822093909355908416815220546126e390826124ec565b6001600160a01b0380841660008181526004602052604090819020939093559151908516907fddf252ad1be2c89b69c2b068fc378daa952ba7f163c4a11628f55a4df523b3ef906125b890859061525a565b600061091f7f00000000000000000000000000000000000000000000000000000000000000007f000000000000000000000000000000000000000000000000000000000000000084613871565b6000807f00000000000000000000000000000000000000000000000000000000000000006001600160a01b03166370a08231306040518263ffffffff1660e01b81526004016127d1919061512b565b60206040518083038186803b1580156127e957600080fd5b505afa1580156127fd573d6000803e3d6000fd5b505050506040513d601f19601f820116820180604052508101906128219190614f8e565b9050600061283a61283061109f565b611b4586856131c3565b9050818111612849578061284b565b815b604051630ab626ab60e41b81529091506001600160a01b037f0000000000000000000000000000000000000000000000000000000000000000169063ab626ab0906128c7907f00000000000000000000000000000000000000000000000000000000000000009085906000908190819060001990600401615be7565b600060405180830381600087803b1580156128e157600080fd5b505af11580156128f5573d6000803e3d6000fd5b505060095460405163907448ed60e01b8152600093506001600160a01b037f00000000000000000000000000000000000000000000000000000000000000008116935063907448ed9261294f9291169086906004016151a4565b60606040518083038186803b15801561296757600080fd5b505afa15801561297b573d6000803e3d6000fd5b505050506040513d601f19601f8201168201806040525081019061299f9190614fca565b505060405163095ea7b360e01b81529091506001600160a01b037f0000000000000000000000000000000000000000000000000000000000000000169063095ea7b390612a12907f00000000000000000000000000000000000000000000000000000000000000009086906004016151a4565b602060405180830381600087803b158015612a2c57600080fd5b505af1158015612a40573d6000803e3d6000fd5b505050506040513d601f19601f82011682018060405250810190612a649190614f0c565b506009546040517f09a5fca30000000000000000000000000000000000000000000000000000000081526001600160a01b037f00000000000000000000000000000000000000000000000000000000000000008116926309a5fca392612adb9291909116908690869030906000199060040161521c565b602060405180830381600087803b158015612af557600080fd5b505af1158015612b09573d6000803e3d6000fd5b505050506040513d601f19601f82011682018060405250810190612b2d9190614f8e565b60405163095ea7b360e01b81529094506001600160a01b037f0000000000000000000000000000000000000000000000000000000000000000169063095ea7b390612b9f907f0000000000000000000000000000000000000000000000000000000000000000906000906004016151a4565b602060405180830381600087803b158015612bb957600080fd5b505af1158015612bcd573d6000803e3d6000fd5b505050506040513d601f19601f82011682018060405250810190612bf19190614f0c565b50505050919050565b612c7d8363a9059cbb60e01b8484604051602401612c199291906151a4565b60408051601f198184030181529190526020810180517bffffffffffffffffffffffffffffffffffffffffffffffffffffffff167fffffffff0000000000000000000000000000000000000000000000000000000090931692909217909152613b22565b505050565b612cbf81604051806060016040528060278152602001615ce2602791396001600160a01b0385166000908152600460205260409020549190612625565b60046000846001600160a01b03166001600160a01b0316815260200190815260200160002081905550612d0f81604051806060016040528060278152602001615c8c602791396002549190612625565b6002556040516000906001600160a01b038416907fddf252ad1be2c89b69c2b068fc378daa952ba7f163c4a11628f55a4df523b3ef90612d5090859061525a565b60405180910390a35050565b600e5460ff161515600114612d835760405162461bcd60e51b8152600401610a72906154d7565b600d5415612dad576000612d95611b85565b9050600d54811115612dab57612dab600161373b565b505b6009546040517f23b872dd0000000000000000000000000000000000000000000000000000000081526001600160a01b03909116906323b872dd90612dfa9033903090869060040161513f565b602060405180830381600087803b158015612e1457600080fd5b505af1158015612e28573d6000803e3d6000fd5b505050506040513d601f19601f82011682018060405250810190612e4c9190614f0c565b612e685760405162461bcd60e51b8152600401610a7290615a7b565b6000612e7382612735565b9050612e8b83612e866107c585856125e7565b613bb1565b612e9482613c33565b826001600160a01b03167fe1fffcc4923d04b559f4d29a8bfc6cda04eb5b0d3c460751c2402c5c5cc9109c83604051612ecd919061525a565b60405180910390a2505050565b600a546001600160a01b03838116911614612f2457600a54612f0890829084906001600160a01b031661229b565b612f245760405162461bcd60e51b8152600401610a7290615351565b6001600160a01b03808316600081815260126020526040812080549385166001600160a01b03199485161790556013805460018181018355919092527f66de8ffda797e3de9c05e8fc57b3bf0ec28a930d40b0d285d93c06501cf6a0909091018054909316909117909155601454612f9b916124ec565b6014556040517f916e172c080569186aa7ea048268267257cf7cc49505908863f747bca8620f80906113c590849084906151bd565b3390565b60095460405163095ea7b360e01b81526001600160a01b039091169063095ea7b390613027907f0000000000000000000000000000000000000000000000000000000000000000906000906004016151a4565b602060405180830381600087803b15801561304157600080fd5b505af1158015613055573d6000803e3d6000fd5b505050506040513d601f19601f820116820180604052508101906130799190614f0c565b506040516370a0823160e01b81526000906001600160a01b037f000000000000000000000000000000000000000000000000000000000000000016906370a08231906130c990309060040161512b565b60206040518083038186803b1580156130e157600080fd5b505afa1580156130f5573d6000803e3d6000fd5b505050506040513d601f19601f820116820180604052508101906131199190614f8e565b604051630ab626ab60e41b81529091506001600160a01b037f0000000000000000000000000000000000000000000000000000000000000000169063ab626ab090613195907f00000000000000000000000000000000000000000000000000000000000000009085906000908190819060001990600401615be7565b600060405180830381600087803b1580156131af57600080fd5b505af1158015610c1e573d6000803e3d6000fd5b6000826131d2575060006108d3565b828202828482816131df57fe5b0414610a335760405162461bcd60e51b8152600401610a7290615799565b6000610a3383836040518060400160405280601a81526020017f536166654d6174683a206469766973696f6e206279207a65726f000000000000815250613c5c565b606060006132d960017f00000000000000000000000000000000000000000000000000000000000000006001600160a01b031663d55a23f46040518163ffffffff1660e01b815260040160206040518083038186803b1580156132a157600080fd5b505afa1580156132b5573d6000803e3d6000fd5b505050506040513d601f19601f820116820180604052508101906116369190614f8e565b905060608167ffffffffffffffff811180156132f457600080fd5b5060405190808252806020026020018201604052801561332e57816020015b61331b614d62565b8152602001906001900390816133135790505b50905060008061333c613c93565b604080518082019091527322d4002028f537599be9f666d1c4fa138522f9c8815291935091506020810161337084846125e7565b8152508360008151811061338057fe5b602090810291909101015260015b8481101561357c576040517f40c354460000000000000000000000000000000000000000000000000000000081526000906001600160a01b037f000000000000000000000000000000000000000000000000000000000000000016906340c35446906134029060001986019060040161525a565b60206040518083038186803b15801561341a57600080fd5b505afa15801561342e573d6000803e3d6000fd5b505050506040513d601f19601f820116820180604052508101906134529190614dc4565b90506040518060400160405280826001600160a01b031663f7c618c16040518163ffffffff1660e01b815260040160206040518083038186803b15801561349857600080fd5b505afa1580156134ac573d6000803e3d6000fd5b505050506040513d601f19601f820116820180604052508101906134d09190614dc4565b6001600160a01b03168152602001826001600160a01b0316628cc262306040518263ffffffff1660e01b8152600401613509919061512b565b60206040518083038186803b15801561352157600080fd5b505afa158015613535573d6000803e3d6000fd5b505050506040513d601f19601f820116820180604052508101906135599190614f8e565b81525085838151811061356857fe5b60209081029190910101525060010161338e565b5091935050505090565b6000806135938585613dd3565b509050600080846001600160a01b0316630902f1ac6040518163ffffffff1660e01b815260040160606040518083038186803b1580156135d257600080fd5b505afa1580156135e6573d6000803e3d6000fd5b505050506040513d601f19601f8201168201806040525081019061360a9190614f28565b5091509150866001600160a01b0316836001600160a01b03161461362a57905b61365588836dffffffffffffffffffffffffffff16836dffffffffffffffffffffffffffff16613e04565b98975050505050505050565b600061366b612109565b8560405160200161367d9291906150f5565b6040516020818303038152906040528051906020012090506000600182868686604051600081526020016040526040516136ba94939291906152c3565b6020604051602081039080840390855afa1580156136dc573d6000803e3d6000fd5b5050604051601f1901519150506001600160a01b038116158015906137125750866001600160a01b0316816001600160a01b0316145b61372e5760405162461bcd60e51b8152600401610a7290615534565b50505050505050565b4690565b613743613e4c565b600061374d613f41565b90508161377657600c548110156137765760405162461bcd60e51b8152600401610a729061598a565b6000613793612710611b45601154856131c390919063ffffffff16565b905080156137b857600b54600a546137b8916001600160a01b03918216911683612bfa565b60006137d5612710611b45600f54866131c390919063ffffffff16565b905080156137f457600a546137f4906001600160a01b03163383612bfa565b600061381261380d8361380787876125e7565b906125e7565b61418a565b905061381d81613c33565b7fc7606d21ac05cd309191543e409f0845c016120563783d70e4f41419dc0ef23461384661109f565b600254604051613857929190615ba1565b60405180910390a15050505050565b600090565b61271090565b60006124e4846001600160a01b03166355af008a6040518163ffffffff1660e01b815260040160206040518083038186803b1580156138af57600080fd5b505afa1580156138c3573d6000803e3d6000fd5b505050506040513d601f19601f820116820180604052508101906138e79190614f8e565b856001600160a01b0316637727c6556040518163ffffffff1660e01b815260040160206040518083038186803b15801561392057600080fd5b505afa158015613934573d6000803e3d6000fd5b505050506040513d601f19601f820116820180604052508101906139589190614f8e565b866001600160a01b031663a76f54d26040518163ffffffff1660e01b815260040160206040518083038186803b15801561399157600080fd5b505afa1580156139a5573d6000803e3d6000fd5b505050506040513d601f19601f820116820180604052508101906139c99190614f8e565b876001600160a01b0316637a1c36d16040518163ffffffff1660e01b815260040160206040518083038186803b158015613a0257600080fd5b505afa158015613a16573d6000803e3d6000fd5b505050506040513d601f19601f82011682018060405250810190613a3a9190614f8e565b876001600160a01b031663961be3916040518163ffffffff1660e01b815260040160206040518083038186803b158015613a7357600080fd5b505afa158015613a87573d6000803e3d6000fd5b505050506040513d601f19601f82011682018060405250810190613aab9190614f8e565b886001600160a01b031663705727b56040518163ffffffff1660e01b815260040160206040518083038186803b158015613ae457600080fd5b505afa158015613af8573d6000803e3d6000fd5b505050506040513d601f19601f82011682018060405250810190613b1c9190614f8e565b886141b2565b6060613b77826040518060400160405280602081526020017f5361666545524332303a206c6f772d6c6576656c2063616c6c206661696c6564815250856001600160a01b031661425a9092919063ffffffff16565b805190915015612c7d5780806020019051810190613b959190614f0c565b612c7d5760405162461bcd60e51b8152600401610a7290615ad8565b600254613bbe90826124ec565b6002556001600160a01b038216600090815260046020526040902054613be490826124ec565b6001600160a01b0383166000818152600460205260408082209390935591519091907fddf252ad1be2c89b69c2b068fc378daa952ba7f163c4a11628f55a4df523b3ef90612d5090859061525a565b60008111613c535760405162461bcd60e51b8152600401610a72906159e7565b611b1181614269565b60008183613c7d5760405162461bcd60e51b8152600401610a7291906152e1565b506000838581613c8957fe5b0495945050505050565b6000807f00000000000000000000000000000000000000000000000000000000000000006001600160a01b0316628cc262306040518263ffffffff1660e01b8152600401613ce1919061512b565b60206040518083038186803b158015613cf957600080fd5b505afa158015613d0d573d6000803e3d6000fd5b505050506040513d601f19601f82011682018060405250810190613d319190614f8e565b6016546040517ff2daef2c0000000000000000000000000000000000000000000000000000000081529193506001600160a01b03169063f2daef2c90613d7d90309086906004016151a4565b60206040518083038186803b158015613d9557600080fd5b505afa158015613da9573d6000803e3d6000fd5b505050506040513d601f19601f82011682018060405250810190613dcd9190614f8e565b90509091565b600080826001600160a01b0316846001600160a01b031610613df6578284613df9565b83835b915091509250929050565b600080613e13856103e56131c3565b90506000613e2182856131c3565b90506000613e3583611636886103e86131c3565b9050613e4182826131fd565b979650505050505050565b6000613e56613c93565b6040517f7050ccd90000000000000000000000000000000000000000000000000000000081529092506001600160a01b037f0000000000000000000000000000000000000000000000000000000000000000169150637050ccd990613ec29030906001906004016151d7565b602060405180830381600087803b158015613edc57600080fd5b505af1158015613ef0573d6000803e3d6000fd5b505050506040513d601f19601f82011682018060405250810190613f149190614f0c565b50601654611b11907322d4002028f537599be9f666d1c4fa138522f9c8906001600160a01b031683612bfa565b6040516370a0823160e01b8152600090819073b31f66aa3c1e785363f0875a1b74e27b85fd66c7906370a0823190613f7d90309060040161512b565b60206040518083038186803b158015613f9557600080fd5b505afa158015613fa9573d6000803e3d6000fd5b505050506040513d601f19601f82011682018060405250810190613fcd9190614f8e565b60135490915060005b8181101561418257600060138281548110613fed57fe5b6000918252602090912001546001600160a01b0316905073b31f66aa3c1e785363f0875a1b74e27b85fd66c78114156140ac574780156140a55773b31f66aa3c1e785363f0875a1b74e27b85fd66c76001600160a01b031663d0e30db0826040518263ffffffff1660e01b81526004016000604051808303818588803b15801561407657600080fd5b505af115801561408a573d6000803e3d6000fd5b50505050506140a281866124ec90919063ffffffff16565b94505b505061417a565b6040516370a0823160e01b81526000906001600160a01b038316906370a08231906140db90309060040161512b565b60206040518083038186803b1580156140f357600080fd5b505afa158015614107573d6000803e3d6000fd5b505050506040513d601f19601f8201168201806040525081019061412b9190614f8e565b90508015614177576001600160a01b0380831660009081526012602052604090205416801561417557600a5461417290611ddd90849086906001600160a01b0316856146f8565b95505b505b50505b600101613fd6565b509091505090565b600a5460095460155460009261091f9285926001600160a01b039283169291821691166146f8565b6000826141c157506000613e41565b60006141cd8585614899565b9050670de0b6b3a764000081116141e8576000915050613e41565b60006142076141f786866124ec565b61420188876124ec565b90614899565b905060006142188b8b8b8b876148bf565b905060006142298c8c8c8c876148bf565b90506142358783614925565b614249826142438a8a6124ec565b90614925565b039c9b505050505050505050505050565b60606124e4848460008561494b565b600061427482612735565b905060006142a37f00000000000000000000000000000000000000000000000000000000000000008484614a01565b60095460405163095ea7b360e01b81529192506001600160a01b03169063095ea7b3906142f6907f00000000000000000000000000000000000000000000000000000000000000009087906004016151a4565b602060405180830381600087803b15801561431057600080fd5b505af1158015614324573d6000803e3d6000fd5b505050506040513d601f19601f820116820180604052508101906143489190614f0c565b506009546040517f90d250740000000000000000000000000000000000000000000000000000000081526001600160a01b037f00000000000000000000000000000000000000000000000000000000000000008116926390d25074926143bd92919091169087903090600019906004016151f2565b602060405180830381600087803b1580156143d757600080fd5b505af11580156143eb573d6000803e3d6000fd5b505050506040513d601f19601f8201168201806040525081019061440f9190614f8e565b5060095460405163095ea7b360e01b81526001600160a01b039091169063095ea7b390614463907f0000000000000000000000000000000000000000000000000000000000000000906000906004016151a4565b602060405180830381600087803b15801561447d57600080fd5b505af1158015614491573d6000803e3d6000fd5b505050506040513d601f19601f820116820180604052508101906144b59190614f0c565b5060405163095ea7b360e01b81526001600160a01b037f0000000000000000000000000000000000000000000000000000000000000000169063095ea7b390614524907f00000000000000000000000000000000000000000000000000000000000000009085906004016151a4565b602060405180830381600087803b15801561453e57600080fd5b505af1158015614552573d6000803e3d6000fd5b505050506040513d601f19601f820116820180604052508101906145769190614f0c565b506040517ff1c583330000000000000000000000000000000000000000000000000000000081526001600160a01b037f0000000000000000000000000000000000000000000000000000000000000000169063f1c5833390614605907f000000000000000000000000000000000000000000000000000000000000000090859060009060001990600401615c11565b600060405180830381600087803b15801561461f57600080fd5b505af1158015614633573d6000803e3d6000fd5b505060405163095ea7b360e01b81526001600160a01b037f000000000000000000000000000000000000000000000000000000000000000016925063095ea7b391506146a6907f0000000000000000000000000000000000000000000000000000000000000000906000906004016151a4565b602060405180830381600087803b1580156146c057600080fd5b505af11580156146d4573d6000803e3d6000fd5b505050506040513d601f19601f82011682018060405250810190611af89190614f0c565b6000806147058585613dd3565b509050600080846001600160a01b0316630902f1ac6040518163ffffffff1660e01b815260040160606040518083038186803b15801561474457600080fd5b505afa158015614758573d6000803e3d6000fd5b505050506040513d601f19601f8201168201806040525081019061477c9190614f28565b5091509150866001600160a01b0316836001600160a01b03161461479c57905b6000806147ca8a856dffffffffffffffffffffffffffff16856dffffffffffffffffffffffffffff16613e04565b9050886001600160a01b0316856001600160a01b0316146147e757905b6147f289888c614b7b565b604080516000815260208101918290527f022c0d9f000000000000000000000000000000000000000000000000000000009091526001600160a01b0388169063022c0d9f9061484a9085908590309060248101615baf565b600060405180830381600087803b15801561486457600080fd5b505af1158015614878573d6000803e3d6000fd5b50505050818111614889578161488b565b805b9a9950505050505050505050565b6000610a3382611b456148ad8260026131fd565b61163687670de0b6b3a76400006131c3565b6000828210156148da576148d384836125e7565b905061491c565b6148d36149156b033b2e3c9fd0803ce8000000611b45670de0b6b3a764000061490f8a61490983858b886131c3565b90614c17565b906131c3565b8790614899565b95945050505050565b6000610a33670de0b6b3a7640000611b456149418260026131fd565b61163687876131c3565b60608247101561496d5760405162461bcd60e51b8152600401610a7290615591565b61497685614c8d565b6149925760405162461bcd60e51b8152600401610a7290615a44565b60006060866001600160a01b031685876040516149af9190615069565b60006040518083038185875af1925050503d80600081146149ec576040519150601f19603f3d011682016040523d82523d6000602084013e6149f1565b606091505b5091509150613e41828286614c93565b6000836001600160a01b031663705727b56040518163ffffffff1660e01b815260040160206040518083038186803b158015614a3c57600080fd5b505afa158015614a50573d6000803e3d6000fd5b505050506040513d601f19601f82011682018060405250810190614a749190614f8e565b614a8957614a8283836125e7565b9050610a33565b6124e4846001600160a01b031663705727b56040518163ffffffff1660e01b815260040160206040518083038186803b158015614ac557600080fd5b505afa158015614ad9573d6000803e3d6000fd5b505050506040513d601f19601f82011682018060405250810190614afd9190614f8e565b611b45866001600160a01b03166318160ddd6040518163ffffffff1660e01b815260040160206040518083038186803b158015614b3957600080fd5b505afa158015614b4d573d6000803e3d6000fd5b505050506040513d601f19601f82011682018060405250810190614b719190614f8e565b61490f87876125e7565b60405163a9059cbb60e01b81526001600160a01b0384169063a9059cbb90614ba990859085906004016151a4565b602060405180830381600087803b158015614bc357600080fd5b505af1158015614bd7573d6000803e3d6000fd5b505050506040513d601f19601f82011682018060405250810190614bfb9190614f0c565b612c7d5760405162461bcd60e51b8152600401610a7290615b6c565b6000614c24826002614ccc565b614c3a576b033b2e3c9fd0803ce8000000614c3c565b825b9050614c498260026131fd565b91505b81156108d357614c5c8384614d0e565b9250614c69826002614ccc565b15614c7b57614c788184614d0e565b90505b614c868260026131fd565b9150614c4c565b3b151590565b60608315614ca2575081610a33565b825115614cb25782518084602001fd5b8160405162461bcd60e51b8152600401610a7291906152e1565b6000610a3383836040518060400160405280601881526020017f536166654d6174683a206d6f64756c6f206279207a65726f0000000000000000815250614d2e565b6000610a336b033b2e3c9fd0803ce8000000611b456149418260026131fd565b60008183614d4f5760405162461bcd60e51b8152600401610a7291906152e1565b50828481614d5957fe5b06949350505050565b604080518082019091526000808252602082015290565b80516dffffffffffffffffffffffffffff8116811461092257600080fd5b803560ff8116811461092257600080fd5b600060208284031215614db9578081fd5b8135610a3381615c68565b600060208284031215614dd5578081fd5b8151610a3381615c68565b60008060408385031215614df2578081fd5b8235614dfd81615c68565b91506020830135614e0d81615c68565b809150509250929050565b600080600060608486031215614e2c578081fd5b8335614e3781615c68565b92506020840135614e4781615c68565b929592945050506040919091013590565b600080600080600080600060e0888a031215614e72578283fd5b8735614e7d81615c68565b96506020880135614e8d81615c68565b95506040880135945060608801359350614ea960808901614d97565b925060a0880135915060c0880135905092959891949750929550565b60008060408385031215614ed7578182fd5b8235614ee281615c68565b946020939093013593505050565b600060208284031215614f01578081fd5b8135610a3381615c7d565b600060208284031215614f1d578081fd5b8151610a3381615c7d565b600080600060608486031215614f3c578283fd5b614f4584614d79565b9250614f5360208501614d79565b9150604084015163ffffffff81168114614f6b578182fd5b809150509250925092565b600060208284031215614f87578081fd5b5035919050565b600060208284031215614f9f578081fd5b5051919050565b60008060408385031215614fb8578182fd5b823591506020830135614e0d81615c7d565b600080600060608486031215614fde578283fd5b83519250602084015191506040840151614f6b81615c7d565b600080600080600060a0868803121561500e578283fd5b853594506020860135935061502560408701614d97565b94979396509394606081013594506080013592915050565b60008151808452615055816020860160208601615c3c565b601f01601f19169290920160200192915050565b6000825161507b818460208701615c3c565b9190910192915050565b60008083546001808216600081146150a457600181146150bb576150ea565b60ff198316865260028304607f16860193506150ea565b600283048786526020808720875b838110156150e25781548a8201529085019082016150c9565b505050860193505b509195945050505050565b7f190100000000000000000000000000000000000000000000000000000000000081526002810192909252602282015260420190565b6001600160a01b0391909116815260200190565b6001600160a01b039384168152919092166020820152604081019190915260600190565b6001600160a01b0397881681529590961660208601526040850193909352606084019190915260ff16608083015260a082015260c081019190915260e00190565b6001600160a01b03929092168252602082015260400190565b6001600160a01b0392831681529116602082015260400190565b6001600160a01b039290921682521515602082015260400190565b6001600160a01b039485168152602081019390935292166040820152606081019190915260800190565b6001600160a01b039586168152602081019490945260408401929092529092166060820152608081019190915260a00190565b901515815260200190565b90815260200190565b9586526001600160a01b0394851660208701529290931660408501526060840152608083019190915260a082015260c00190565b9485526020850193909352604084019190915260608301526001600160a01b0316608082015260a00190565b93845260ff9290921660208401526040830152606082015260800190565b600060208252610a33602083018461503d565b60208082526030908201527f5661726961626c655265776172647353747261746567793a3a5769746864726160408201527f7720616d6f756e7420746f6f206c6f7700000000000000000000000000000000606082015260800190565b602080825260409082018190527f5661726961626c655265776172647353747261746567793a3a53776170207061908201527f697220646f6573206e6f7420636f6e7461696e2072657761726420746f6b656e606082015260800190565b60208082526026908201527f4f776e61626c653a206e6577206f776e657220697320746865207a65726f206160408201527f6464726573730000000000000000000000000000000000000000000000000000606082015260800190565b60208082526014908201527f59616b53747261746567793a3a6f6e6c79454f41000000000000000000000000604082015260600190565b6020808252601b908201527f536166654d6174683a206164646974696f6e206f766572666c6f770000000000604082015260600190565b60208082526034908201527f5065726d697373696f6e65643a3a72656d6f76654465706f7369746f722c206e60408201527f6f20616c6c6f776564206465706f7369746f7273000000000000000000000000606082015260800190565b6020808252602a908201527f5661726961626c655265776172647353747261746567793a3a4465706f73697460408201527f732064697361626c656400000000000000000000000000000000000000000000606082015260800190565b60208082526024908201527f417263683a3a76616c69646174655369673a20696e76616c6964207369676e6160408201527f7475726500000000000000000000000000000000000000000000000000000000606082015260800190565b60208082526026908201527f416464726573733a20696e73756666696369656e742062616c616e636520666f60408201527f722063616c6c0000000000000000000000000000000000000000000000000000606082015260800190565b6020808252601c908201527f5065726d697373696f6e65643a3a616c6c6f774465706f7369746f7200000000604082015260600190565b6020808252604d908201527f5661726961626c655265776172647353747261746567793a3a456d657267656e60408201527f6379207769746864726177206d696e696d756d2072657475726e20616d6f756e60608201527f74206e6f74207265616368656400000000000000000000000000000000000000608082015260a00190565b6020808252600f908201527f7065726d69743a3a657870697265640000000000000000000000000000000000604082015260600190565b6020808252602a908201527f5065726d697373696f6e65643a3a72656d6f76654465706f7369746f722c206e60408201527f6f7420616c6c6f77656400000000000000000000000000000000000000000000606082015260800190565b60208082526034908201527f5661726961626c655265776172647353747261746567793a3a5265776172642060408201527f746f2064656c657465206e6f7420666f756e6421000000000000000000000000606082015260800190565b60208082526021908201527f536166654d6174683a206d756c7469706c69636174696f6e206f766572666c6f60408201527f7700000000000000000000000000000000000000000000000000000000000000606082015260800190565b6020808252818101527f4f776e61626c653a2063616c6c6572206973206e6f7420746865206f776e6572604082015260600190565b6020808252601c908201527f5f617070726f76653a3a6f776e6572207a65726f206164647265737300000000604082015260600190565b60208082526034908201527f5f7472616e73666572546f6b656e733a2063616e6e6f74207472616e7366657260408201527f20746f20746865207a65726f2061646472657373000000000000000000000000606082015260800190565b60208082526019908201527f736574416c6c6f77616e6365733a3a6465707265636174656400000000000000604082015260600190565b60208082526026908201527f45636869646e6153747261746567793a3a546869732073686f756c646e27742060408201527f68617070656e0000000000000000000000000000000000000000000000000000606082015260800190565b60208082526014908201527f59616b53747261746567793a3a6f6e6c79446576000000000000000000000000604082015260600190565b60208082526030908201527f5661726961626c655265776172647353747261746567793a3a5265696e76657360408201527f7420616d6f756e7420746f6f206c6f7700000000000000000000000000000000606082015260800190565b6020808252602d908201527f5661726961626c655265776172647353747261746567793a3a5374616b65206160408201527f6d6f756e7420746f6f206c6f7700000000000000000000000000000000000000606082015260800190565b6020808252601d908201527f416464726573733a2063616c6c20746f206e6f6e2d636f6e7472616374000000604082015260600190565b60208082526036908201527f5661726961626c655265776172647353747261746567793a3a4465706f73697460408201527f20746f6b656e207472616e73666572206661696c656400000000000000000000606082015260800190565b6020808252602a908201527f5361666545524332303a204552433230206f7065726174696f6e20646964206e60408201527f6f74207375636365656400000000000000000000000000000000000000000000606082015260800190565b6020808252601e908201527f5f617070726f76653a3a7370656e646572207a65726f20616464726573730000604082015260600190565b6020808252818101527f4465784c6962726172793a3a5452414e534645525f46524f4d5f4641494c4544604082015260600190565b918252602082015260400190565b60008582528460208301526001600160a01b038416604083015260806060830152615bdd608083018461503d565b9695505050505050565b9586526020860194909452911515604085015215156060840152608083015260a082015260c00190565b938452602084019290925215156040830152606082015260800190565b60ff91909116815260200190565b60005b83811015615c57578181015183820152602001615c3f565b83811115611af85750506000910152565b6001600160a01b0381168114611b1157600080fd5b8015158114611b1157600080fdfe5f6275726e3a206275726e20616d6f756e74206578636565647320746f74616c20737570706c797472616e7366657246726f6d3a207472616e7366657220616d6f756e74206578636565647320616c6c6f77616e63655f6275726e3a206275726e20616d6f756e7420657863656564732066726f6d2062616c616e63655f7472616e73666572546f6b656e733a207472616e7366657220657863656564732066726f6d2062616c616e6365a2646970667358221220692f3c4856c12d3a78603b557cd38432cb9d4be23f8be895e1cf6622ac6b757264736f6c634300070300338be0079c531659141344cd1fd0a4f28419497f9722a3daafe3b4186f6b6457e0",
  "devdoc": {
    "kind": "dev",
    "methods": {
      "allowDepositor(address)": {
        "params": {
          "depositor": "address"
        }
      },
      "allowance(address,address)": {
        "params": {
          "account": "The address of the account holding the funds",
          "spender": "The address of the account spending the funds"
        },
        "returns": {
          "_0": "The number of tokens approved"
        }
      },
      "approve(address,uint256)": {
        "details": "This will overwrite the approval amount for `spender` and is subject to issues noted [here](https://eips.ethereum.org/EIPS/eip-20#approve) It is recommended to use increaseAllowance and decreaseAllowance instead",
        "params": {
          "amount": "The number of tokens that are approved (2^256-1 means infinite)",
          "spender": "The address of the account which may transfer tokens"
        },
        "returns": {
          "_0": "Whether or not the approval succeeded"
        }
      },
      "balanceOf(address)": {
        "params": {
          "account": "The address of the account to get the balance of"
        },
        "returns": {
          "_0": "The number of tokens held"
        }
      },
      "checkReward()": {
        "returns": {
          "_0": "reward tokens"
        }
      },
      "deposit(uint256)": {
        "params": {
          "_amount": "Amount of tokens to deposit"
        }
      },
      "depositWithPermit(uint256,uint256,uint8,bytes32,bytes32)": {
        "params": {
          "_amount": "Amount of tokens to deposit",
          "_deadline": "The time at which to expire the signature",
          "_r": "Half of the ECDSA signature pair",
          "_s": "Half of the ECDSA signature pair",
          "_v": "The recovery byte of the signature"
        }
      },
      "estimateDeployedBalance()": {
        "returns": {
          "_0": "deposit tokens after withdraw fee"
        }
      },
      "estimateReinvestReward()": {
        "returns": {
          "_0": "reward tokens"
        }
      },
      "getDepositTokensForShares(uint256)": {
        "params": {
          "amount": "receipt tokens"
        },
        "returns": {
          "_0": "deposit tokens"
        }
      },
      "getDomainSeparator()": {
        "returns": {
          "_0": "Separator"
        }
      },
      "getSharesForDepositTokens(uint256)": {
        "details": "If contract is empty, use 1:1 ratioCould return zero shares for very low amounts of deposit tokens",
        "params": {
          "amount": "deposit tokens"
        },
        "returns": {
          "_0": "receipt tokens"
        }
      },
      "owner()": {
        "details": "Returns the address of the current owner."
      },
      "permit(address,address,uint256,uint256,uint8,bytes32,bytes32)": {
        "params": {
          "deadline": "The time at which to expire the signature",
          "owner": "The address to approve from",
          "r": "Half of the ECDSA signature pair",
          "s": "Half of the ECDSA signature pair",
          "spender": "The address to be approved",
          "v": "The recovery byte of the signature",
          "value": "The number of tokens that are approved (2^256-1 means infinite)"
        }
      },
      "recoverAVAX(uint256)": {
        "params": {
          "amount": "amount"
        }
      },
      "recoverERC20(address,uint256)": {
        "params": {
          "tokenAddress": "token address",
          "tokenAmount": "amount to recover"
        }
      },
      "removeDepositor(address)": {
        "params": {
          "depositor": "address"
        }
      },
      "renounceOwnership()": {
        "details": "Leaves the contract without owner. It will not be possible to call `onlyOwner` functions anymore. Can only be called by the current owner. NOTE: Renouncing ownership will leave the contract without an owner, thereby removing any functionality that is only available to the owner."
      },
      "revokeAllowance(address,address)": {
        "params": {
          "spender": "address",
          "token": "address"
        }
      },
      "setAllowances()": {
        "details": "Deprecated; approvals should be handled in context of staking"
      },
      "totalDeposits()": {
        "returns": {
          "_0": "total deposits available on the contract"
        }
      },
      "transfer(address,uint256)": {
        "params": {
          "amount": "The number of tokens to transfer",
          "dst": "The address of the destination account"
        },
        "returns": {
          "_0": "Whether or not the transfer succeeded"
        }
      },
      "transferFrom(address,address,uint256)": {
        "params": {
          "amount": "The number of tokens to transfer",
          "dst": "The address of the destination account",
          "src": "The address of the source account"
        },
        "returns": {
          "_0": "Whether or not the transfer succeeded"
        }
      },
      "transferOwnership(address)": {
        "details": "Transfers ownership of the contract to a new account (`newOwner`). Can only be called by the current owner."
      },
      "updateAdminFee(uint256)": {
        "params": {
          "newValue": "fee in BIPS"
        }
      },
      "updateDepositsEnabled(bool)": {
        "params": {
          "newValue": "bool"
        }
      },
      "updateDevAddr(address)": {
        "params": {
          "newValue": "address"
        }
      },
      "updateDevFee(uint256)": {
        "params": {
          "newValue": "fee in BIPS"
        }
      },
      "updateMaxTokensToDepositWithoutReinvest(uint256)": {
        "params": {
          "newValue": "threshold"
        }
      },
      "updateMinTokensToReinvest(uint256)": {
        "params": {
          "newValue": "threshold"
        }
      },
      "updateReinvestReward(uint256)": {
        "params": {
          "newValue": "fee in BIPS"
        }
      }
    },
    "version": 1
  },
  "userdoc": {
    "kind": "user",
    "methods": {
      "allowDepositor(address)": {
        "notice": "Add an allowed depositor"
      },
      "allowance(address,address)": {
        "notice": "Get the number of tokens `spender` is approved to spend on behalf of `account`"
      },
      "approve(address,uint256)": {
        "notice": "Approve `spender` to transfer up to `amount` from `src`"
      },
      "balanceOf(address)": {
        "notice": "Get the number of tokens held by the `account`"
      },
      "checkReward()": {
        "notice": "Reward tokens avialable to strategy, including balance"
      },
      "deposit(uint256)": {
        "notice": "Deposit tokens to receive receipt tokens"
      },
      "depositWithPermit(uint256,uint256,uint8,bytes32,bytes32)": {
        "notice": "Deposit using Permit"
      },
      "estimateDeployedBalance()": {
        "notice": "Estimate recoverable balance after withdraw fee"
      },
      "estimateReinvestReward()": {
        "notice": "Estimate reinvest reward"
      },
      "getDepositTokensForShares(uint256)": {
        "notice": "Calculate deposit tokens for a given amount of receipt tokens"
      },
      "getDomainSeparator()": {
        "notice": "EIP-712 Domain separator"
      },
      "getSharesForDepositTokens(uint256)": {
        "notice": "Calculate receipt tokens for a given amount of deposit tokens"
      },
      "permit(address,address,uint256,uint256,uint8,bytes32,bytes32)": {
        "notice": "Triggers an approval from owner to spender"
      },
      "recoverAVAX(uint256)": {
        "notice": "Recover AVAX from contract"
      },
      "recoverERC20(address,uint256)": {
        "notice": "Recover ERC20 from contract"
      },
      "reinvest()": {
        "notice": "Reinvest reward tokens into deposit tokens"
      },
      "removeDepositor(address)": {
        "notice": "Remove an allowed depositor"
      },
      "revokeAllowance(address,address)": {
        "notice": "Revoke token allowance"
      },
      "setAllowances()": {
        "notice": "Approve tokens for use in Strategy"
      },
      "totalDeposits()": {
        "notice": "This function returns a snapshot of last available quotes"
      },
      "transfer(address,uint256)": {
        "notice": "Transfer `amount` tokens from `msg.sender` to `dst`"
      },
      "transferFrom(address,address,uint256)": {
        "notice": "Transfer `amount` tokens from `src` to `dst`"
      },
      "updateAdminFee(uint256)": {
        "notice": "Update admin fee"
      },
      "updateDepositsEnabled(bool)": {
        "notice": "Enable/disable deposits"
      },
      "updateDevAddr(address)": {
        "notice": "Update devAddr"
      },
      "updateDevFee(uint256)": {
        "notice": "Update developer fee"
      },
      "updateMaxTokensToDepositWithoutReinvest(uint256)": {
        "notice": "Update reinvest max threshold before a deposit"
      },
      "updateMinTokensToReinvest(uint256)": {
        "notice": "Update reinvest min threshold"
      },
      "updateReinvestReward(uint256)": {
        "notice": "Update reinvest reward"
      }
    },
    "version": 1
  },
  "storageLayout": {
    "storage": [
      {
        "astId": 6348,
        "contract": "contracts/strategies/EchidnaStrategy.sol:EchidnaStrategy",
        "label": "name",
        "offset": 0,
        "slot": "0",
        "type": "t_string_storage"
      },
      {
        "astId": 6351,
        "contract": "contracts/strategies/EchidnaStrategy.sol:EchidnaStrategy",
        "label": "symbol",
        "offset": 0,
        "slot": "1",
        "type": "t_string_storage"
      },
      {
        "astId": 6356,
        "contract": "contracts/strategies/EchidnaStrategy.sol:EchidnaStrategy",
        "label": "totalSupply",
        "offset": 0,
        "slot": "2",
        "type": "t_uint256"
      },
      {
        "astId": 6362,
        "contract": "contracts/strategies/EchidnaStrategy.sol:EchidnaStrategy",
        "label": "allowances",
        "offset": 0,
        "slot": "3",
        "type": "t_mapping(t_address,t_mapping(t_address,t_uint256))"
      },
      {
        "astId": 6366,
        "contract": "contracts/strategies/EchidnaStrategy.sol:EchidnaStrategy",
        "label": "balances",
        "offset": 0,
        "slot": "4",
        "type": "t_mapping(t_address,t_uint256)"
      },
      {
        "astId": 6382,
        "contract": "contracts/strategies/EchidnaStrategy.sol:EchidnaStrategy",
        "label": "nonces",
        "offset": 0,
        "slot": "5",
        "type": "t_mapping(t_address,t_uint256)"
      },
      {
        "astId": 22000,
        "contract": "contracts/strategies/EchidnaStrategy.sol:EchidnaStrategy",
        "label": "_owner",
        "offset": 0,
        "slot": "6",
        "type": "t_address"
      },
      {
        "astId": 22113,
        "contract": "contracts/strategies/EchidnaStrategy.sol:EchidnaStrategy",
        "label": "numberOfAllowedDepositors",
        "offset": 0,
        "slot": "7",
        "type": "t_uint256"
      },
      {
        "astId": 22117,
        "contract": "contracts/strategies/EchidnaStrategy.sol:EchidnaStrategy",
        "label": "allowedDepositors",
        "offset": 0,
        "slot": "8",
        "type": "t_mapping(t_address,t_bool)"
      },
      {
        "astId": 7732,
        "contract": "contracts/strategies/EchidnaStrategy.sol:EchidnaStrategy",
        "label": "depositToken",
        "offset": 0,
        "slot": "9",
        "type": "t_contract(IERC20)11763"
      },
      {
        "astId": 7734,
        "contract": "contracts/strategies/EchidnaStrategy.sol:EchidnaStrategy",
        "label": "rewardToken",
        "offset": 0,
        "slot": "10",
        "type": "t_contract(IERC20)11763"
      },
      {
        "astId": 7736,
        "contract": "contracts/strategies/EchidnaStrategy.sol:EchidnaStrategy",
        "label": "devAddr",
        "offset": 0,
        "slot": "11",
        "type": "t_address"
      },
      {
        "astId": 7738,
        "contract": "contracts/strategies/EchidnaStrategy.sol:EchidnaStrategy",
        "label": "MIN_TOKENS_TO_REINVEST",
        "offset": 0,
        "slot": "12",
        "type": "t_uint256"
      },
      {
        "astId": 7740,
        "contract": "contracts/strategies/EchidnaStrategy.sol:EchidnaStrategy",
        "label": "MAX_TOKENS_TO_DEPOSIT_WITHOUT_REINVEST",
        "offset": 0,
        "slot": "13",
        "type": "t_uint256"
      },
      {
        "astId": 7742,
        "contract": "contracts/strategies/EchidnaStrategy.sol:EchidnaStrategy",
        "label": "DEPOSITS_ENABLED",
        "offset": 0,
        "slot": "14",
        "type": "t_bool"
      },
      {
        "astId": 7744,
        "contract": "contracts/strategies/EchidnaStrategy.sol:EchidnaStrategy",
        "label": "REINVEST_REWARD_BIPS",
        "offset": 0,
        "slot": "15",
        "type": "t_uint256"
      },
      {
        "astId": 7746,
        "contract": "contracts/strategies/EchidnaStrategy.sol:EchidnaStrategy",
        "label": "ADMIN_FEE_BIPS",
        "offset": 0,
        "slot": "16",
        "type": "t_uint256"
      },
      {
        "astId": 7748,
        "contract": "contracts/strategies/EchidnaStrategy.sol:EchidnaStrategy",
        "label": "DEV_FEE_BIPS",
        "offset": 0,
        "slot": "17",
        "type": "t_uint256"
      },
      {
        "astId": 111608,
        "contract": "contracts/strategies/EchidnaStrategy.sol:EchidnaStrategy",
        "label": "rewardSwapPairs",
        "offset": 0,
        "slot": "18",
        "type": "t_mapping(t_address,t_address)"
      },
      {
        "astId": 111611,
        "contract": "contracts/strategies/EchidnaStrategy.sol:EchidnaStrategy",
        "label": "supportedRewards",
        "offset": 0,
        "slot": "19",
        "type": "t_array(t_address)dyn_storage"
      },
      {
        "astId": 111613,
        "contract": "contracts/strategies/EchidnaStrategy.sol:EchidnaStrategy",
        "label": "rewardCount",
        "offset": 0,
        "slot": "20",
        "type": "t_uint256"
      },
      {
        "astId": 112950,
        "contract": "contracts/strategies/EchidnaStrategy.sol:EchidnaStrategy",
        "label": "swapPairDepositToken",
        "offset": 0,
        "slot": "21",
        "type": "t_address"
      },
      {
        "astId": 61032,
        "contract": "contracts/strategies/EchidnaStrategy.sol:EchidnaStrategy",
        "label": "boosterFeeCollector",
        "offset": 0,
        "slot": "22",
        "type": "t_contract(IBoosterFeeCollector)11319"
      }
    ],
    "types": {
      "t_address": {
        "encoding": "inplace",
        "label": "address",
        "numberOfBytes": "20"
      },
      "t_array(t_address)dyn_storage": {
        "base": "t_address",
        "encoding": "dynamic_array",
        "label": "address[]",
        "numberOfBytes": "32"
      },
      "t_bool": {
        "encoding": "inplace",
        "label": "bool",
        "numberOfBytes": "1"
      },
      "t_contract(IBoosterFeeCollector)11319": {
        "encoding": "inplace",
        "label": "contract IBoosterFeeCollector",
        "numberOfBytes": "20"
      },
      "t_contract(IERC20)11763": {
        "encoding": "inplace",
        "label": "contract IERC20",
        "numberOfBytes": "20"
      },
      "t_mapping(t_address,t_address)": {
        "encoding": "mapping",
        "key": "t_address",
        "label": "mapping(address => address)",
        "numberOfBytes": "32",
        "value": "t_address"
      },
      "t_mapping(t_address,t_bool)": {
        "encoding": "mapping",
        "key": "t_address",
        "label": "mapping(address => bool)",
        "numberOfBytes": "32",
        "value": "t_bool"
      },
      "t_mapping(t_address,t_mapping(t_address,t_uint256))": {
        "encoding": "mapping",
        "key": "t_address",
        "label": "mapping(address => mapping(address => uint256))",
        "numberOfBytes": "32",
        "value": "t_mapping(t_address,t_uint256)"
      },
      "t_mapping(t_address,t_uint256)": {
        "encoding": "mapping",
        "key": "t_address",
        "label": "mapping(address => uint256)",
        "numberOfBytes": "32",
        "value": "t_uint256"
      },
      "t_string_storage": {
        "encoding": "bytes",
        "label": "string",
        "numberOfBytes": "32"
      },
      "t_uint256": {
        "encoding": "inplace",
        "label": "uint256",
        "numberOfBytes": "32"
      }
    }
  }
}