{
  "address": "0x07f11f5903Af3Bb24E27Af0f794Ef120726E76BB",
  "abi": [
    {
      "inputs": [
        {
          "internalType": "string",
          "name": "_name",
          "type": "string"
        },
        {
          "internalType": "address",
          "name": "_depositToken",
          "type": "address"
        },
        {
          "internalType": "address",
          "name": "_rewardToken",
          "type": "address"
        },
        {
          "internalType": "address",
          "name": "_stakingContract",
          "type": "address"
        },
        {
          "internalType": "address",
          "name": "_swapPairToken0",
          "type": "address"
        },
        {
          "internalType": "address",
          "name": "_swapPairToken1",
          "type": "address"
        },
        {
          "internalType": "address",
          "name": "_timelock",
          "type": "address"
        },
        {
          "internalType": "uint256",
          "name": "_minTokensToReinvest",
          "type": "uint256"
        },
        {
          "internalType": "uint256",
          "name": "_adminFeeBips",
          "type": "uint256"
        },
        {
          "internalType": "uint256",
          "name": "_devFeeBips",
          "type": "uint256"
        },
        {
          "internalType": "uint256",
          "name": "_reinvestRewardBips",
          "type": "uint256"
        }
      ],
      "stateMutability": "nonpayable",
      "type": "constructor"
    },
    {
      "anonymous": false,
      "inputs": [
        {
          "indexed": true,
          "internalType": "address",
          "name": "account",
          "type": "address"
        }
      ],
      "name": "AllowDepositor",
      "type": "event"
    },
    {
      "anonymous": false,
      "inputs": [
        {
          "indexed": true,
          "internalType": "address",
          "name": "owner",
          "type": "address"
        },
        {
          "indexed": true,
          "internalType": "address",
          "name": "spender",
          "type": "address"
        },
        {
          "indexed": false,
          "internalType": "uint256",
          "name": "value",
          "type": "uint256"
        }
      ],
      "name": "Approval",
      "type": "event"
    },
    {
      "anonymous": false,
      "inputs": [
        {
          "indexed": true,
          "internalType": "address",
          "name": "account",
          "type": "address"
        },
        {
          "indexed": false,
          "internalType": "uint256",
          "name": "amount",
          "type": "uint256"
        }
      ],
      "name": "Deposit",
      "type": "event"
    },
    {
      "anonymous": false,
      "inputs": [
        {
          "indexed": false,
          "internalType": "bool",
          "name": "newValue",
          "type": "bool"
        }
      ],
      "name": "DepositsEnabled",
      "type": "event"
    },
    {
      "anonymous": false,
      "inputs": [
        {
          "indexed": true,
          "internalType": "address",
          "name": "previousOwner",
          "type": "address"
        },
        {
          "indexed": true,
          "internalType": "address",
          "name": "newOwner",
          "type": "address"
        }
      ],
      "name": "OwnershipTransferred",
      "type": "event"
    },
    {
      "anonymous": false,
      "inputs": [
        {
          "indexed": false,
          "internalType": "address",
          "name": "token",
          "type": "address"
        },
        {
          "indexed": false,
          "internalType": "uint256",
          "name": "amount",
          "type": "uint256"
        }
      ],
      "name": "Recovered",
      "type": "event"
    },
    {
      "anonymous": false,
      "inputs": [
        {
          "indexed": false,
          "internalType": "uint256",
          "name": "newTotalDeposits",
          "type": "uint256"
        },
        {
          "indexed": false,
          "internalType": "uint256",
          "name": "newTotalSupply",
          "type": "uint256"
        }
      ],
      "name": "Reinvest",
      "type": "event"
    },
    {
      "anonymous": false,
      "inputs": [
        {
          "indexed": true,
          "internalType": "address",
          "name": "account",
          "type": "address"
        }
      ],
      "name": "RemoveDepositor",
      "type": "event"
    },
    {
      "anonymous": false,
      "inputs": [
        {
          "indexed": true,
          "internalType": "address",
          "name": "from",
          "type": "address"
        },
        {
          "indexed": true,
          "internalType": "address",
          "name": "to",
          "type": "address"
        },
        {
          "indexed": false,
          "internalType": "uint256",
          "name": "value",
          "type": "uint256"
        }
      ],
      "name": "Transfer",
      "type": "event"
    },
    {
      "anonymous": false,
      "inputs": [
        {
          "indexed": false,
          "internalType": "uint256",
          "name": "oldValue",
          "type": "uint256"
        },
        {
          "indexed": false,
          "internalType": "uint256",
          "name": "newValue",
          "type": "uint256"
        }
      ],
      "name": "UpdateAdminFee",
      "type": "event"
    },
    {
      "anonymous": false,
      "inputs": [
        {
          "indexed": false,
          "internalType": "address",
          "name": "oldValue",
          "type": "address"
        },
        {
          "indexed": false,
          "internalType": "address",
          "name": "newValue",
          "type": "address"
        }
      ],
      "name": "UpdateDevAddr",
      "type": "event"
    },
    {
      "anonymous": false,
      "inputs": [
        {
          "indexed": false,
          "internalType": "uint256",
          "name": "oldValue",
          "type": "uint256"
        },
        {
          "indexed": false,
          "internalType": "uint256",
          "name": "newValue",
          "type": "uint256"
        }
      ],
      "name": "UpdateDevFee",
      "type": "event"
    },
    {
      "anonymous": false,
      "inputs": [
        {
          "indexed": false,
          "internalType": "uint256",
          "name": "oldValue",
          "type": "uint256"
        },
        {
          "indexed": false,
          "internalType": "uint256",
          "name": "newValue",
          "type": "uint256"
        }
      ],
      "name": "UpdateMaxTokensToDepositWithoutReinvest",
      "type": "event"
    },
    {
      "anonymous": false,
      "inputs": [
        {
          "indexed": false,
          "internalType": "uint256",
          "name": "oldValue",
          "type": "uint256"
        },
        {
          "indexed": false,
          "internalType": "uint256",
          "name": "newValue",
          "type": "uint256"
        }
      ],
      "name": "UpdateMinTokensToReinvest",
      "type": "event"
    },
    {
      "anonymous": false,
      "inputs": [
        {
          "indexed": false,
          "internalType": "uint256",
          "name": "oldValue",
          "type": "uint256"
        },
        {
          "indexed": false,
          "internalType": "uint256",
          "name": "newValue",
          "type": "uint256"
        }
      ],
      "name": "UpdateReinvestReward",
      "type": "event"
    },
    {
      "anonymous": false,
      "inputs": [
        {
          "indexed": true,
          "internalType": "address",
          "name": "account",
          "type": "address"
        },
        {
          "indexed": false,
          "internalType": "uint256",
          "name": "amount",
          "type": "uint256"
        }
      ],
      "name": "Withdraw",
      "type": "event"
    },
    {
      "inputs": [],
      "name": "ADMIN_FEE_BIPS",
      "outputs": [
        {
          "internalType": "uint256",
          "name": "",
          "type": "uint256"
        }
      ],
      "stateMutability": "view",
      "type": "function"
    },
    {
      "inputs": [],
      "name": "DEPOSITS_ENABLED",
      "outputs": [
        {
          "internalType": "bool",
          "name": "",
          "type": "bool"
        }
      ],
      "stateMutability": "view",
      "type": "function"
    },
    {
      "inputs": [],
      "name": "DEV_FEE_BIPS",
      "outputs": [
        {
          "internalType": "uint256",
          "name": "",
          "type": "uint256"
        }
      ],
      "stateMutability": "view",
      "type": "function"
    },
    {
      "inputs": [],
      "name": "DOMAIN_TYPEHASH",
      "outputs": [
        {
          "internalType": "bytes32",
          "name": "",
          "type": "bytes32"
        }
      ],
      "stateMutability": "view",
      "type": "function"
    },
    {
      "inputs": [],
      "name": "MAX_TOKENS_TO_DEPOSIT_WITHOUT_REINVEST",
      "outputs": [
        {
          "internalType": "uint256",
          "name": "",
          "type": "uint256"
        }
      ],
      "stateMutability": "view",
      "type": "function"
    },
    {
      "inputs": [],
      "name": "MIN_TOKENS_TO_REINVEST",
      "outputs": [
        {
          "internalType": "uint256",
          "name": "",
          "type": "uint256"
        }
      ],
      "stateMutability": "view",
      "type": "function"
    },
    {
      "inputs": [],
      "name": "PERMIT_TYPEHASH",
      "outputs": [
        {
          "internalType": "bytes32",
          "name": "",
          "type": "bytes32"
        }
      ],
      "stateMutability": "view",
      "type": "function"
    },
    {
      "inputs": [],
      "name": "REINVEST_REWARD_BIPS",
      "outputs": [
        {
          "internalType": "uint256",
          "name": "",
          "type": "uint256"
        }
      ],
      "stateMutability": "view",
      "type": "function"
    },
    {
      "inputs": [],
      "name": "VERSION_HASH",
      "outputs": [
        {
          "internalType": "bytes32",
          "name": "",
          "type": "bytes32"
        }
      ],
      "stateMutability": "view",
      "type": "function"
    },
    {
      "inputs": [
        {
          "internalType": "address",
          "name": "depositor",
          "type": "address"
        }
      ],
      "name": "allowDepositor",
      "outputs": [],
      "stateMutability": "nonpayable",
      "type": "function"
    },
    {
      "inputs": [
        {
          "internalType": "address",
          "name": "account",
          "type": "address"
        },
        {
          "internalType": "address",
          "name": "spender",
          "type": "address"
        }
      ],
      "name": "allowance",
      "outputs": [
        {
          "internalType": "uint256",
          "name": "",
          "type": "uint256"
        }
      ],
      "stateMutability": "view",
      "type": "function"
    },
    {
      "inputs": [
        {
          "internalType": "address",
          "name": "",
          "type": "address"
        }
      ],
      "name": "allowedDepositors",
      "outputs": [
        {
          "internalType": "bool",
          "name": "",
          "type": "bool"
        }
      ],
      "stateMutability": "view",
      "type": "function"
    },
    {
      "inputs": [
        {
          "internalType": "address",
          "name": "spender",
          "type": "address"
        },
        {
          "internalType": "uint256",
          "name": "amount",
          "type": "uint256"
        }
      ],
      "name": "approve",
      "outputs": [
        {
          "internalType": "bool",
          "name": "",
          "type": "bool"
        }
      ],
      "stateMutability": "nonpayable",
      "type": "function"
    },
    {
      "inputs": [
        {
          "internalType": "address",
          "name": "account",
          "type": "address"
        }
      ],
      "name": "balanceOf",
      "outputs": [
        {
          "internalType": "uint256",
          "name": "",
          "type": "uint256"
        }
      ],
      "stateMutability": "view",
      "type": "function"
    },
    {
      "inputs": [],
      "name": "checkReward",
      "outputs": [
        {
          "internalType": "uint256",
          "name": "",
          "type": "uint256"
        }
      ],
      "stateMutability": "view",
      "type": "function"
    },
    {
      "inputs": [],
      "name": "decimals",
      "outputs": [
        {
          "internalType": "uint8",
          "name": "",
          "type": "uint8"
        }
      ],
      "stateMutability": "view",
      "type": "function"
    },
    {
      "inputs": [
        {
          "internalType": "uint256",
          "name": "amount",
          "type": "uint256"
        }
      ],
      "name": "deposit",
      "outputs": [],
      "stateMutability": "nonpayable",
      "type": "function"
    },
    {
      "inputs": [
        {
          "internalType": "address",
          "name": "account",
          "type": "address"
        },
        {
          "internalType": "uint256",
          "name": "amount",
          "type": "uint256"
        }
      ],
      "name": "depositFor",
      "outputs": [],
      "stateMutability": "nonpayable",
      "type": "function"
    },
    {
      "inputs": [],
      "name": "depositToken",
      "outputs": [
        {
          "internalType": "contract IERC20",
          "name": "",
          "type": "address"
        }
      ],
      "stateMutability": "view",
      "type": "function"
    },
    {
      "inputs": [
        {
          "internalType": "uint256",
          "name": "amount",
          "type": "uint256"
        },
        {
          "internalType": "uint256",
          "name": "deadline",
          "type": "uint256"
        },
        {
          "internalType": "uint8",
          "name": "v",
          "type": "uint8"
        },
        {
          "internalType": "bytes32",
          "name": "r",
          "type": "bytes32"
        },
        {
          "internalType": "bytes32",
          "name": "s",
          "type": "bytes32"
        }
      ],
      "name": "depositWithPermit",
      "outputs": [],
      "stateMutability": "nonpayable",
      "type": "function"
    },
    {
      "inputs": [],
      "name": "devAddr",
      "outputs": [
        {
          "internalType": "address",
          "name": "",
          "type": "address"
        }
      ],
      "stateMutability": "view",
      "type": "function"
    },
    {
      "inputs": [],
      "name": "estimateDeployedBalance",
      "outputs": [
        {
          "internalType": "uint256",
          "name": "",
          "type": "uint256"
        }
      ],
      "stateMutability": "view",
      "type": "function"
    },
    {
      "inputs": [],
      "name": "estimateReinvestReward",
      "outputs": [
        {
          "internalType": "uint256",
          "name": "",
          "type": "uint256"
        }
      ],
      "stateMutability": "view",
      "type": "function"
    },
    {
      "inputs": [
        {
          "internalType": "uint256",
          "name": "amount",
          "type": "uint256"
        }
      ],
      "name": "getDepositTokensForShares",
      "outputs": [
        {
          "internalType": "uint256",
          "name": "",
          "type": "uint256"
        }
      ],
      "stateMutability": "view",
      "type": "function"
    },
    {
      "inputs": [],
      "name": "getDomainSeparator",
      "outputs": [
        {
          "internalType": "bytes32",
          "name": "",
          "type": "bytes32"
        }
      ],
      "stateMutability": "view",
      "type": "function"
    },
    {
      "inputs": [
        {
          "internalType": "uint256",
          "name": "amount",
          "type": "uint256"
        }
      ],
      "name": "getSharesForDepositTokens",
      "outputs": [
        {
          "internalType": "uint256",
          "name": "",
          "type": "uint256"
        }
      ],
      "stateMutability": "view",
      "type": "function"
    },
    {
      "inputs": [],
      "name": "name",
      "outputs": [
        {
          "internalType": "string",
          "name": "",
          "type": "string"
        }
      ],
      "stateMutability": "view",
      "type": "function"
    },
    {
      "inputs": [
        {
          "internalType": "address",
          "name": "",
          "type": "address"
        }
      ],
      "name": "nonces",
      "outputs": [
        {
          "internalType": "uint256",
          "name": "",
          "type": "uint256"
        }
      ],
      "stateMutability": "view",
      "type": "function"
    },
    {
      "inputs": [],
      "name": "numberOfAllowedDepositors",
      "outputs": [
        {
          "internalType": "uint256",
          "name": "",
          "type": "uint256"
        }
      ],
      "stateMutability": "view",
      "type": "function"
    },
    {
      "inputs": [],
      "name": "owner",
      "outputs": [
        {
          "internalType": "address",
          "name": "",
          "type": "address"
        }
      ],
      "stateMutability": "view",
      "type": "function"
    },
    {
      "inputs": [
        {
          "internalType": "address",
          "name": "owner",
          "type": "address"
        },
        {
          "internalType": "address",
          "name": "spender",
          "type": "address"
        },
        {
          "internalType": "uint256",
          "name": "value",
          "type": "uint256"
        },
        {
          "internalType": "uint256",
          "name": "deadline",
          "type": "uint256"
        },
        {
          "internalType": "uint8",
          "name": "v",
          "type": "uint8"
        },
        {
          "internalType": "bytes32",
          "name": "r",
          "type": "bytes32"
        },
        {
          "internalType": "bytes32",
          "name": "s",
          "type": "bytes32"
        }
      ],
      "name": "permit",
      "outputs": [],
      "stateMutability": "nonpayable",
      "type": "function"
    },
    {
      "inputs": [
        {
          "internalType": "uint256",
          "name": "amount",
          "type": "uint256"
        }
      ],
      "name": "recoverAVAX",
      "outputs": [],
      "stateMutability": "nonpayable",
      "type": "function"
    },
    {
      "inputs": [
        {
          "internalType": "address",
          "name": "tokenAddress",
          "type": "address"
        },
        {
          "internalType": "uint256",
          "name": "tokenAmount",
          "type": "uint256"
        }
      ],
      "name": "recoverERC20",
      "outputs": [],
      "stateMutability": "nonpayable",
      "type": "function"
    },
    {
      "inputs": [],
      "name": "reinvest",
      "outputs": [],
      "stateMutability": "nonpayable",
      "type": "function"
    },
    {
      "inputs": [
        {
          "internalType": "address",
          "name": "depositor",
          "type": "address"
        }
      ],
      "name": "removeDepositor",
      "outputs": [],
      "stateMutability": "nonpayable",
      "type": "function"
    },
    {
      "inputs": [],
      "name": "renounceOwnership",
      "outputs": [],
      "stateMutability": "nonpayable",
      "type": "function"
    },
    {
      "inputs": [
        {
          "internalType": "uint256",
          "name": "minReturnAmountAccepted",
          "type": "uint256"
        },
        {
          "internalType": "bool",
          "name": "disableDeposits",
          "type": "bool"
        }
      ],
      "name": "rescueDeployedFunds",
      "outputs": [],
      "stateMutability": "nonpayable",
      "type": "function"
    },
    {
      "inputs": [
        {
          "internalType": "address",
          "name": "token",
          "type": "address"
        },
        {
          "internalType": "address",
          "name": "spender",
          "type": "address"
        }
      ],
      "name": "revokeAllowance",
      "outputs": [],
      "stateMutability": "nonpayable",
      "type": "function"
    },
    {
      "inputs": [],
      "name": "rewardToken",
      "outputs": [
        {
          "internalType": "contract IERC20",
          "name": "",
          "type": "address"
        }
      ],
      "stateMutability": "view",
      "type": "function"
    },
    {
      "inputs": [],
      "name": "setAllowances",
      "outputs": [],
      "stateMutability": "nonpayable",
      "type": "function"
    },
    {
      "inputs": [],
      "name": "stakingContract",
      "outputs": [
        {
          "internalType": "contract IStakingRewardsILPV2",
          "name": "",
          "type": "address"
        }
      ],
      "stateMutability": "view",
      "type": "function"
    },
    {
      "inputs": [],
      "name": "symbol",
      "outputs": [
        {
          "internalType": "string",
          "name": "",
          "type": "string"
        }
      ],
      "stateMutability": "view",
      "type": "function"
    },
    {
      "inputs": [],
      "name": "totalDeposits",
      "outputs": [
        {
          "internalType": "uint256",
          "name": "",
          "type": "uint256"
        }
      ],
      "stateMutability": "view",
      "type": "function"
    },
    {
      "inputs": [],
      "name": "totalSupply",
      "outputs": [
        {
          "internalType": "uint256",
          "name": "",
          "type": "uint256"
        }
      ],
      "stateMutability": "view",
      "type": "function"
    },
    {
      "inputs": [
        {
          "internalType": "address",
          "name": "dst",
          "type": "address"
        },
        {
          "internalType": "uint256",
          "name": "amount",
          "type": "uint256"
        }
      ],
      "name": "transfer",
      "outputs": [
        {
          "internalType": "bool",
          "name": "",
          "type": "bool"
        }
      ],
      "stateMutability": "nonpayable",
      "type": "function"
    },
    {
      "inputs": [
        {
          "internalType": "address",
          "name": "src",
          "type": "address"
        },
        {
          "internalType": "address",
          "name": "dst",
          "type": "address"
        },
        {
          "internalType": "uint256",
          "name": "amount",
          "type": "uint256"
        }
      ],
      "name": "transferFrom",
      "outputs": [
        {
          "internalType": "bool",
          "name": "",
          "type": "bool"
        }
      ],
      "stateMutability": "nonpayable",
      "type": "function"
    },
    {
      "inputs": [
        {
          "internalType": "address",
          "name": "newOwner",
          "type": "address"
        }
      ],
      "name": "transferOwnership",
      "outputs": [],
      "stateMutability": "nonpayable",
      "type": "function"
    },
    {
      "inputs": [
        {
          "internalType": "uint256",
          "name": "newValue",
          "type": "uint256"
        }
      ],
      "name": "updateAdminFee",
      "outputs": [],
      "stateMutability": "nonpayable",
      "type": "function"
    },
    {
      "inputs": [
        {
          "internalType": "bool",
          "name": "newValue",
          "type": "bool"
        }
      ],
      "name": "updateDepositsEnabled",
      "outputs": [],
      "stateMutability": "nonpayable",
      "type": "function"
    },
    {
      "inputs": [
        {
          "internalType": "address",
          "name": "newValue",
          "type": "address"
        }
      ],
      "name": "updateDevAddr",
      "outputs": [],
      "stateMutability": "nonpayable",
      "type": "function"
    },
    {
      "inputs": [
        {
          "internalType": "uint256",
          "name": "newValue",
          "type": "uint256"
        }
      ],
      "name": "updateDevFee",
      "outputs": [],
      "stateMutability": "nonpayable",
      "type": "function"
    },
    {
      "inputs": [
        {
          "internalType": "uint256",
          "name": "newValue",
          "type": "uint256"
        }
      ],
      "name": "updateMaxTokensToDepositWithoutReinvest",
      "outputs": [],
      "stateMutability": "nonpayable",
      "type": "function"
    },
    {
      "inputs": [
        {
          "internalType": "uint256",
          "name": "newValue",
          "type": "uint256"
        }
      ],
      "name": "updateMinTokensToReinvest",
      "outputs": [],
      "stateMutability": "nonpayable",
      "type": "function"
    },
    {
      "inputs": [
        {
          "internalType": "uint256",
          "name": "newValue",
          "type": "uint256"
        }
      ],
      "name": "updateReinvestReward",
      "outputs": [],
      "stateMutability": "nonpayable",
      "type": "function"
    },
    {
      "inputs": [
        {
          "internalType": "uint256",
          "name": "amount",
          "type": "uint256"
        }
      ],
      "name": "withdraw",
      "outputs": [],
      "stateMutability": "nonpayable",
      "type": "function"
    }
  ],
  "transactionHash": "0x05f0bbcffca2ad8ad7ed4493e1f690a67fa98ffe934a550789c9cdc2ba80c129",
  "args": [
    "Yield Yak: ELP ELK-AVAX",
    "0x2612da8fc26efbca3cc3f8fd543bcba72b10ab59",
    "0xE1C110E1B1b4A1deD0cAf3E42BfBdbB7b5d7cE1C",
    "0xdA9cf7cA08982db05Dc04e538A2D9A4fFdEE6952",
    "0x0000000000000000000000000000000000000000",
    "0x0000000000000000000000000000000000000000",
    "0x8d36C5c6947ADCcd25Ef49Ea1aAC2ceACFff0bD7",
    "1000000000000000000",
    0,
    600,
    200
  ],
  "solcInputHash": "476470718a99ac6c85663613498913d3",
  "bytecode": "0x60c060405260096080819052685969656c642059616b60b81b60a09081526200002c91600091906200126e565b506040805180820190915260038082526216549560ea1b602090920191825262000059916001916200126e565b503480156200006757600080fd5b5060405162004f9438038062004f9483398181016040526101608110156200008e57600080fd5b8101908080516040519392919084640100000000821115620000af57600080fd5b908301906020820185811115620000c557600080fd5b8251640100000000811182820188101715620000e057600080fd5b82525081516020918201929091019080838360005b838110156200010f578181015183820152602001620000f5565b50505050905090810190601f1680156200013d5780820380516001836020036101000a031916815260200191505b5060409081526020820151908201516060830151608084015160a085015160c086015160e087015161010088015161012089015161014090990151979a509598509396929591949093929091600062000195620002d6565b600680546001600160a01b0319166001600160a01b0383169081179091556040519192509060009060008051602062004edb833981519152908290a3508a51620001e79060009060208e01906200126e565b50600a80546001600160a01b03808d166001600160a01b031992831617909255600b80548c841690831617905560138054928b1692821692909217909155600c8054909116331790556200023d87878b620002da565b6200024762000bf8565b620002528462000ceb565b6200025d8362000d95565b620002688262000e85565b620002738162000f61565b6200027f60016200103d565b6200028a8562001103565b604080516000808252602082015281517fc7606d21ac05cd309191543e409f0845c016120563783d70e4f41419dc0ef234929181900390910190a150505050505050505050506200130a565b3390565b600a60009054906101000a90046001600160a01b03166001600160a01b0316630dfe16816040518163ffffffff1660e01b815260040160206040518083038186803b1580156200032957600080fd5b505afa1580156200033e573d6000803e3d6000fd5b505050506040513d60208110156200035557600080fd5b50516001600160a01b03828116911614801590620003fb5750600a60009054906101000a90046001600160a01b03166001600160a01b031663d21220a76040518163ffffffff1660e01b815260040160206040518083038186803b158015620003bd57600080fd5b505afa158015620003d2573d6000803e3d6000fd5b505050506040513d6020811015620003e957600080fd5b50516001600160a01b03828116911614155b1562000a86576001600160a01b038316620004485760405162461bcd60e51b815260040180806020018281038252602981526020018062004e926029913960400191505060405180910390fd5b6001600160a01b0382166200048f5760405162461bcd60e51b815260040180806020018281038252602981526020018062004f336029913960400191505060405180910390fd5b601480546001600160a01b038086166001600160a01b031992831617928390556015805486831693169290921790915560408051630dfe168160e01b815290518483169390921691630dfe168191600480820192602092909190829003018186803b158015620004fe57600080fd5b505afa15801562000513573d6000803e3d6000fd5b505050506040513d60208110156200052a57600080fd5b50516001600160a01b03161480620005bd57506014546040805163d21220a760e01b815290516001600160a01b0380851693169163d21220a7916004808301926020929190829003018186803b1580156200058457600080fd5b505afa15801562000599573d6000803e3d6000fd5b505050506040513d6020811015620005b057600080fd5b50516001600160a01b0316145b620005fa5760405162461bcd60e51b815260040180806020018281038252604581526020018062004e4d6045913960600191505060405180910390fd5b600a60009054906101000a90046001600160a01b03166001600160a01b0316630dfe16816040518163ffffffff1660e01b815260040160206040518083038186803b1580156200064957600080fd5b505afa1580156200065e573d6000803e3d6000fd5b505050506040513d60208110156200067557600080fd5b505160145460408051630dfe168160e01b815290516001600160a01b039384169390921691630dfe168191600480820192602092909190829003018186803b158015620006c157600080fd5b505afa158015620006d6573d6000803e3d6000fd5b505050506040513d6020811015620006ed57600080fd5b50516001600160a01b03161480620008005750600a60009054906101000a90046001600160a01b03166001600160a01b0316630dfe16816040518163ffffffff1660e01b815260040160206040518083038186803b1580156200074f57600080fd5b505afa15801562000764573d6000803e3d6000fd5b505050506040513d60208110156200077b57600080fd5b50516014546040805163d21220a760e01b815290516001600160a01b03938416939092169163d21220a791600480820192602092909190829003018186803b158015620007c757600080fd5b505afa158015620007dc573d6000803e3d6000fd5b505050506040513d6020811015620007f357600080fd5b50516001600160a01b0316145b6200083d5760405162461bcd60e51b815260040180806020018281038252603881526020018062004efb6038913960400191505060405180910390fd5b600a60009054906101000a90046001600160a01b03166001600160a01b031663d21220a76040518163ffffffff1660e01b815260040160206040518083038186803b1580156200088c57600080fd5b505afa158015620008a1573d6000803e3d6000fd5b505050506040513d6020811015620008b857600080fd5b505160155460408051630dfe168160e01b815290516001600160a01b039384169390921691630dfe168191600480820192602092909190829003018186803b1580156200090457600080fd5b505afa15801562000919573d6000803e3d6000fd5b505050506040513d60208110156200093057600080fd5b50516001600160a01b0316148062000a435750600a60009054906101000a90046001600160a01b03166001600160a01b031663d21220a76040518163ffffffff1660e01b815260040160206040518083038186803b1580156200099257600080fd5b505afa158015620009a7573d6000803e3d6000fd5b505050506040513d6020811015620009be57600080fd5b50516015546040805163d21220a760e01b815290516001600160a01b03938416939092169163d21220a791600480820192602092909190829003018186803b15801562000a0a57600080fd5b505afa15801562000a1f573d6000803e3d6000fd5b505050506040513d602081101562000a3657600080fd5b50516001600160a01b0316145b62000a805760405162461bcd60e51b815260040180806020018281038252603881526020018062004f5c6038913960400191505060405180910390fd5b62000bf3565b600a60009054906101000a90046001600160a01b03166001600160a01b0316630dfe16816040518163ffffffff1660e01b815260040160206040518083038186803b15801562000ad557600080fd5b505afa15801562000aea573d6000803e3d6000fd5b505050506040513d602081101562000b0157600080fd5b50516001600160a01b038281169116141562000b3f57600a54601580546001600160a01b0319166001600160a01b0390921691909117905562000bf3565b600a60009054906101000a90046001600160a01b03166001600160a01b031663d21220a76040518163ffffffff1660e01b815260040160206040518083038186803b15801562000b8e57600080fd5b505afa15801562000ba3573d6000803e3d6000fd5b505050506040513d602081101562000bba57600080fd5b50516001600160a01b038281169116141562000bf357600a54601480546001600160a01b0319166001600160a01b039092169190911790555b505050565b62000c02620002d6565b6001600160a01b031662000c15620011fd565b6001600160a01b03161462000c60576040805162461bcd60e51b8152602060048201819052602482015260008051602062004ebb833981519152604482015290519081900360640190fd5b600a546013546040805163095ea7b360e01b81526001600160a01b03928316600482015260001960248201529051919092169163095ea7b39160448083019260209291908290030181600087803b15801562000cbb57600080fd5b505af115801562000cd0573d6000803e3d6000fd5b505050506040513d602081101562000ce757600080fd5b5050565b62000cf5620002d6565b6001600160a01b031662000d08620011fd565b6001600160a01b03161462000d53576040805162461bcd60e51b8152602060048201819052602482015260008051602062004ebb833981519152604482015290519081900360640190fd5b600d54604080519182526020820183905280517f481f79ac3a523b6d6db3c5a720e190e986d1cc1b41adcdf50f9caef8499011009281900390910190a1600d55565b62000d9f620002d6565b6001600160a01b031662000db2620011fd565b6001600160a01b03161462000dfd576040805162461bcd60e51b8152602060048201819052602482015260008051602062004ebb833981519152604482015290519081900360640190fd5b61271062000e3760105462000e23601254856200120c60201b6200239b1790919060201c565b6200120c60201b6200239b1790919060201c565b111562000e4357600080fd5b601154604080519182526020820183905280517f3cc372f330f95ac9540626dc8a25f5bf21ba607215a5d58304cb804d446f104a9281900390910190a1601155565b62000e8f620002d6565b6001600160a01b031662000ea2620011fd565b6001600160a01b03161462000eed576040805162461bcd60e51b8152602060048201819052602482015260008051602062004ebb833981519152604482015290519081900360640190fd5b61271062000f1360105462000e23601154856200120c60201b6200239b1790919060201c565b111562000f1f57600080fd5b601254604080519182526020820183905280517f2a42303d002f0ba6cfe8259c91d4684443fb0b3de286ba74991175d6517261319281900390910190a1601255565b62000f6b620002d6565b6001600160a01b031662000f7e620011fd565b6001600160a01b03161462000fc9576040805162461bcd60e51b8152602060048201819052602482015260008051602062004ebb833981519152604482015290519081900360640190fd5b61271062000fef60125462000e23601154856200120c60201b6200239b1790919060201c565b111562000ffb57600080fd5b601054604080519182526020820183905280517fe7f97d51d307dc44045597c9978bec0f842e6bb40d19b9444084cfa30d9ed4f29281900390910190a1601055565b62001047620002d6565b6001600160a01b03166200105a620011fd565b6001600160a01b031614620010a5576040805162461bcd60e51b8152602060048201819052602482015260008051602062004ebb833981519152604482015290519081900360640190fd5b600f5460ff1615158115151415620010bc57600080fd5b600f805482151560ff19909116811790915560408051918252517f7b014ed3854e7f5cb0218d58b3c6ae7d53a68bb0af2f67bfb029ea42c38a7e859181900360200190a150565b6200110d620002d6565b6001600160a01b031662001120620011fd565b6001600160a01b0316146200116b576040805162461bcd60e51b8152602060048201819052602482015260008051602062004ebb833981519152604482015290519081900360640190fd5b6001600160a01b038116620011b25760405162461bcd60e51b815260040180806020018281038252602681526020018062004e276026913960400191505060405180910390fd5b6006546040516001600160a01b0380841692169060008051602062004edb83398151915290600090a3600680546001600160a01b0319166001600160a01b0392909216919091179055565b6006546001600160a01b031690565b60008282018381101562001267576040805162461bcd60e51b815260206004820152601b60248201527f536166654d6174683a206164646974696f6e206f766572666c6f770000000000604482015290519081900360640190fd5b9392505050565b828054600181600116156101000203166002900490600052602060002090601f016020900481019282601f10620012b157805160ff1916838001178555620012e1565b82800160010185558215620012e1579182015b82811115620012e1578251825591602001919060010190620012c4565b50620012ef929150620012f3565b5090565b5b80821115620012ef5760008155600101620012f4565b613b0d806200131a6000396000f3fe608060405234801561001057600080fd5b506004361061036d5760003560e01c80638b73e606116101d3578063c89039c511610104578063e21ac825116100a2578063ee99205c1161007c578063ee99205c14610916578063f2fde38b1461091e578063f7c618c114610944578063fdb5a03e1461094c5761036d565b8063e21ac825146108d4578063eab89a5a146108f1578063ed24911d1461090e5761036d565b8063da09c72c116100de578063da09c72c14610879578063dbd9a4d414610881578063dd62ed3e14610889578063dd8ce4d6146108b75761036d565b8063c89039c514610803578063cff1b6ef1461080b578063d505accf146108285761036d565b8063a9059cbb11610171578063b6b55f251161014b578063b6b55f25146107ce578063b9e57b80146107eb578063bd079f55146107f3578063c4b24a46146107fb5761036d565b8063a9059cbb14610775578063ac0d31ff146107a1578063b52a321f146107c65761036d565b806395d89b41116101ad57806395d89b411461072b57806399729ec1146107335780639e4e731814610750578063a8ae2b7c146107585761036d565b80638b73e606146106bb5780638da5cb5b146106e15780639291d563146107055761036d565b80634a970be7116102ad578063789139bc1161024b5780637ecebe00116102255780637ecebe0014610644578063818372301461066a5780638980f11f146106875780638aff733d146106b35761036d565b8063789139bc146106065780637ae267731461060e5780637d8820971461063c5761036d565b80634ebb7916116102875780634ebb7916146105b35780635ea682ea146105d057806370a08231146105d8578063715018a6146105fe5761036d565b80634a970be7146105365780634bebd1e71461056e5780634e77ace5146105945761036d565b806323b872dd1161031a57806330adf81f116102f457806330adf81f146104e2578063313ce567146104ea5780633bdc6e7214610508578063483c2ef0146105105761036d565b806323b872dd146104615780632e1a7d4d146104975780632f4f21e2146104b65761036d565b80630f23475d1161034b5780630f23475d1461044957806318160ddd1461045157806320606b70146104595761036d565b806306fdde031461037257806307677111146103ef578063095ea7b314610409575b600080fd5b61037a610954565b6040805160208082528351818301528351919283929083019185019080838360005b838110156103b457818101518382015260200161039c565b50505050905090810190601f1680156103e15780820380516001836020036101000a031916815260200191505b509250505060405180910390f35b6103f76109e2565b60408051918252519081900360200190f35b6104356004803603604081101561041f57600080fd5b506001600160a01b0381351690602001356109e8565b604080519115158252519081900360200190f35b6103f76109ff565b6103f7610a7c565b6103f7610a82565b6104356004803603606081101561047757600080fd5b506001600160a01b03813581169160208101359091169060400135610aa6565b6104b4600480360360208110156104ad57600080fd5b5035610b88565b005b6104b4600480360360408110156104cc57600080fd5b506001600160a01b038135169060200135610c10565b6103f7610c1a565b6104f2610c3e565b6040805160ff9092168252519081900360200190f35b6103f7610c43565b6104356004803603602081101561052657600080fd5b50356001600160a01b0316610c49565b6104b4600480360360a081101561054c57600080fd5b5080359060208101359060ff6040820135169060608101359060800135610c5e565b6104b46004803603602081101561058457600080fd5b50356001600160a01b0316610d17565b6104b4600480360360208110156105aa57600080fd5b50351515610e53565b6104b4600480360360208110156105c957600080fd5b5035610f12565b6103f7610fee565b6103f7600480360360208110156105ee57600080fd5b50356001600160a01b0316610ff4565b6104b4611013565b6103f76110cc565b6104b46004803603604081101561062457600080fd5b506001600160a01b03813581169160200135166110d2565b6103f76111c1565b6103f76004803603602081101561065a57600080fd5b50356001600160a01b03166111c7565b6104b46004803603602081101561068057600080fd5b50356111d9565b6104b46004803603604081101561069d57600080fd5b506001600160a01b03813516906020013561127d565b6103f76113d1565b6104b4600480360360208110156106d157600080fd5b50356001600160a01b03166113d7565b6106e961153e565b604080516001600160a01b039092168252519081900360200190f35b6104b46004803603602081101561071b57600080fd5b50356001600160a01b031661154d565b61037a611623565b6104b46004803603602081101561074957600080fd5b503561167d565b6103f7611750565b6104b46004803603602081101561076e57600080fd5b5035611774565b6104356004803603604081101561078b57600080fd5b506001600160a01b038135169060200135611841565b6104b4600480360360408110156107b757600080fd5b5080359060200135151561184e565b610435611ad5565b6104b4600480360360208110156107e457600080fd5b5035611ade565b6103f7611aeb565b6103f7611b32565b6103f7611b38565b6106e9611c68565b6104b46004803603602081101561082157600080fd5b5035611c77565b6104b4600480360360e081101561083e57600080fd5b506001600160a01b03813581169160208101359091169060408101359060608101359060ff6080820135169060a08101359060c00135611d44565b6106e9611e44565b6104b4611e53565b6103f76004803603604081101561089f57600080fd5b506001600160a01b0381358116916020013516611f52565b6103f7600480360360208110156108cd57600080fd5b5035611f7d565b6104b4600480360360208110156108ea57600080fd5b5035611fbc565b6103f76004803603602081101561090757600080fd5b5035612060565b6103f76120a0565b6106e96121ad565b6104b46004803603602081101561093457600080fd5b50356001600160a01b03166121bc565b6106e96122cc565b6104b46122db565b6000805460408051602060026001851615610100026000190190941693909304601f810184900484028201840190925281815292918301828280156109da5780601f106109af576101008083540402835291602001916109da565b820191906000526020600020905b8154815290600101906020018083116109bd57829003601f168201915b505050505081565b60115481565b60006109f53384846123fc565b5060015b92915050565b601354604080516370a0823160e01b815230600482015290516000926001600160a01b0316916370a08231916024808301926020929190829003018186803b158015610a4a57600080fd5b505afa158015610a5e573d6000803e3d6000fd5b505050506040513d6020811015610a7457600080fd5b505190505b90565b60025481565b7f8b73c3c69bb8fe3d512ecc4cf759cc79239f7b179b0ffacaa9a75d522b39400f81565b6001600160a01b038316600081815260036020908152604080832033808552925282205491929091908214801590610ae057506000198114155b15610b71576000610b0c856040518060600160405280602f8152602001613a0d602f9139849190612514565b6001600160a01b0380891660008181526003602090815260408083209489168084529482529182902085905581518581529151949550929391927f8c5be1e5ebec7d5bd14f71427d1e84f3dd0314c0f7b2291e5b200ac8c7c3b92592918290030190a3505b610b7c8686866125ab565b50600195945050505050565b6000610b9382612060565b90508015610c0c57610ba4816126b8565b600a54610bbb906001600160a01b03163383612771565b610bc53383612834565b600954610bd29082612909565b60095560408051828152905133917f884edad9ce6fa2440d8a54cc123490eb96d2768479d49ff9c7366125a9424364919081900360200190a25b5050565b610c0c828261294b565b7f6e71edae12b1b97f4d1f60370fef10105fa2faae0126114a169c64845d6126c981565b601281565b60075481565b60086020526000908152604090205460ff1681565b600a54604080517fd505accf000000000000000000000000000000000000000000000000000000008152336004820152306024820152604481018890526064810187905260ff8616608482015260a4810185905260c4810184905290516001600160a01b039092169163d505accf9160e48082019260009290919082900301818387803b158015610cee57600080fd5b505af1158015610d02573d6000803e3d6000fd5b50505050610d10338661294b565b5050505050565b610d1f612b41565b6001600160a01b0316610d3061153e565b6001600160a01b031614610d79576040805162461bcd60e51b81526020600482018190526024820152600080516020613996833981519152604482015290519081900360640190fd5b6001600160a01b03811660009081526008602052604090205460ff1615610de7576040805162461bcd60e51b815260206004820152601c60248201527f5065726d697373696f6e65643a3a616c6c6f774465706f7369746f7200000000604482015290519081900360640190fd5b6001600160a01b0381166000908152600860205260409020805460ff19166001908117909155600754610e199161239b565b6007556040516001600160a01b038216907fc0a1035c16faf8d1304056d92c00edf028f87e62b8235a938f00af9e3c0312c590600090a250565b610e5b612b41565b6001600160a01b0316610e6c61153e565b6001600160a01b031614610eb5576040805162461bcd60e51b81526020600482018190526024820152600080516020613996833981519152604482015290519081900360640190fd5b600f5460ff1615158115151415610ecb57600080fd5b600f805482151560ff19909116811790915560408051918252517f7b014ed3854e7f5cb0218d58b3c6ae7d53a68bb0af2f67bfb029ea42c38a7e859181900360200190a150565b610f1a612b41565b6001600160a01b0316610f2b61153e565b6001600160a01b031614610f74576040805162461bcd60e51b81526020600482018190526024820152600080516020613996833981519152604482015290519081900360640190fd5b60008111610f8157600080fd5b604051339082156108fc029083906000818181858888f19350505050158015610fae573d6000803e3d6000fd5b5060408051600081526020810183905281517f8c1256b8896378cd5044f80c202f9772b9d77dc85c8a6eb51967210b09bfaa28929181900390910190a150565b60125481565b6001600160a01b0381166000908152600460205260409020545b919050565b61101b612b41565b6001600160a01b031661102c61153e565b6001600160a01b031614611075576040805162461bcd60e51b81526020600482018190526024820152600080516020613996833981519152604482015290519081900360640190fd5b6006546040516000916001600160a01b0316907f8be0079c531659141344cd1fd0a4f28419497f9722a3daafe3b4186f6b6457e0908390a36006805473ffffffffffffffffffffffffffffffffffffffff19169055565b600e5481565b6110da612b41565b6001600160a01b03166110eb61153e565b6001600160a01b031614611134576040805162461bcd60e51b81526020600482018190526024820152600080516020613996833981519152604482015290519081900360640190fd5b816001600160a01b031663095ea7b38260006040518363ffffffff1660e01b815260040180836001600160a01b0316815260200182815260200192505050602060405180830381600087803b15801561118c57600080fd5b505af11580156111a0573d6000803e3d6000fd5b505050506040513d60208110156111b657600080fd5b5051610c0c57600080fd5b60095481565b60056020526000908152604090205481565b6111e1612b41565b6001600160a01b03166111f261153e565b6001600160a01b03161461123b576040805162461bcd60e51b81526020600482018190526024820152600080516020613996833981519152604482015290519081900360640190fd5b600d54604080519182526020820183905280517f481f79ac3a523b6d6db3c5a720e190e986d1cc1b41adcdf50f9caef8499011009281900390910190a1600d55565b611285612b41565b6001600160a01b031661129661153e565b6001600160a01b0316146112df576040805162461bcd60e51b81526020600482018190526024820152600080516020613996833981519152604482015290519081900360640190fd5b600081116112ec57600080fd5b604080517fa9059cbb0000000000000000000000000000000000000000000000000000000081523360048201526024810183905290516001600160a01b0384169163a9059cbb9160448083019260209291908290030181600087803b15801561135457600080fd5b505af1158015611368573d6000803e3d6000fd5b505050506040513d602081101561137e57600080fd5b505161138957600080fd5b604080516001600160a01b03841681526020810183905281517f8c1256b8896378cd5044f80c202f9772b9d77dc85c8a6eb51967210b09bfaa28929181900390910190a15050565b60105481565b6113df612b41565b6001600160a01b03166113f061153e565b6001600160a01b031614611439576040805162461bcd60e51b81526020600482018190526024820152600080516020613996833981519152604482015290519081900360640190fd5b60006007541161147a5760405162461bcd60e51b81526004018080602001828103825260348152602001806138776034913960400191505060405180910390fd5b6001600160a01b03811660009081526008602052604090205460ff1615156001146114d65760405162461bcd60e51b815260040180806020018281038252602a8152602001806138cf602a913960400191505060405180910390fd5b6001600160a01b0381166000908152600860205260409020805460ff19169055600754611504906001612909565b6007556040516001600160a01b038216907f0e86f6608b536e5339a25b65ff531f5ea91e1313d056ecd4752b35cbd16137d490600090a250565b6006546001600160a01b031690565b600c546001600160a01b031633146115ac576040805162461bcd60e51b815260206004820152601460248201527f59616b53747261746567793a3a6f6e6c79446576000000000000000000000000604482015290519081900360640190fd5b600c54604080516001600160a01b039283168152918316602083015280517fa8e91499ed37682f43cffb045fcc7d379a91e8c9a14e6321877ee34dee564c009281900390910190a1600c805473ffffffffffffffffffffffffffffffffffffffff19166001600160a01b0392909216919091179055565b60018054604080516020600284861615610100026000190190941693909304601f810184900484028201840190925281815292918301828280156109da5780601f106109af576101008083540402835291602001916109da565b611685612b41565b6001600160a01b031661169661153e565b6001600160a01b0316146116df576040805162461bcd60e51b81526020600482018190526024820152600080516020613996833981519152604482015290519081900360640190fd5b6127106117036010546116fd6011548561239b90919063ffffffff16565b9061239b565b111561170e57600080fd5b601254604080519182526020820183905280517f2a42303d002f0ba6cfe8259c91d4684443fb0b3de286ba74991175d6517261319281900390910190a1601255565b7fc89efdaa54c0f20c7adf612882df0950f5a951637e0307cdcb4c672f298b8bc681565b61177c612b41565b6001600160a01b031661178d61153e565b6001600160a01b0316146117d6576040805162461bcd60e51b81526020600482018190526024820152600080516020613996833981519152604482015290519081900360640190fd5b6127106117f46012546116fd6011548561239b90919063ffffffff16565b11156117ff57600080fd5b601054604080519182526020820183905280517fe7f97d51d307dc44045597c9978bec0f842e6bb40d19b9444084cfa30d9ed4f29281900390910190a1601055565b60006109f53384846125ab565b611856612b41565b6001600160a01b031661186761153e565b6001600160a01b0316146118b0576040805162461bcd60e51b81526020600482018190526024820152600080516020613996833981519152604482015290519081900360640190fd5b600a54604080516370a0823160e01b815230600482015290516000926001600160a01b0316916370a08231916024808301926020929190829003018186803b1580156118fb57600080fd5b505afa15801561190f573d6000803e3d6000fd5b505050506040513d602081101561192557600080fd5b5051601354604080517fe9fad8ee00000000000000000000000000000000000000000000000000000000815290519293506001600160a01b039091169163e9fad8ee9160048082019260009290919082900301818387803b15801561198957600080fd5b505af115801561199d573d6000803e3d6000fd5b5050600a54604080516370a0823160e01b81523060048201529051600094506001600160a01b0390921692506370a08231916024808301926020929190829003018186803b1580156119ee57600080fd5b505afa158015611a02573d6000803e3d6000fd5b505050506040513d6020811015611a1857600080fd5b5051905083611a278284612909565b1015611a645760405162461bcd60e51b81526004018080602001828103825260238152602001806139ea6023913960400191505060405180910390fd5b600981905560025460408051838152602081019290925280517fc7606d21ac05cd309191543e409f0845c016120563783d70e4f41419dc0ef2349281900390910190a1600f5460ff1615156001148015611ac057506001831515145b15611acf57611acf6000610e53565b50505050565b600f5460ff1681565b611ae8338261294b565b50565b600080611af6611b38565b9050600d548110611b2a57611b22612710611b1c60105484612b4590919063ffffffff16565b90612b9e565b915050610a79565b600091505090565b600d5481565b601354604080517f120459870000000000000000000000000000000000000000000000000000000081523060048201529051600092611c63926001600160a01b0390911691631204598791602480820192602092909190829003018186803b158015611ba357600080fd5b505afa158015611bb7573d6000803e3d6000fd5b505050506040513d6020811015611bcd57600080fd5b5051601354604080517e8cc26200000000000000000000000000000000000000000000000000000000815230600482015290516001600160a01b0390921691628cc26291602480820192602092909190829003018186803b158015611c3157600080fd5b505afa158015611c45573d6000803e3d6000fd5b505050506040513d6020811015611c5b57600080fd5b50519061239b565b905090565b600a546001600160a01b031681565b611c7f612b41565b6001600160a01b0316611c9061153e565b6001600160a01b031614611cd9576040805162461bcd60e51b81526020600482018190526024820152600080516020613996833981519152604482015290519081900360640190fd5b612710611cf76010546116fd6012548561239b90919063ffffffff16565b1115611d0257600080fd5b601154604080519182526020820183905280517f3cc372f330f95ac9540626dc8a25f5bf21ba607215a5d58304cb804d446f104a9281900390910190a1601155565b42841015611d99576040805162461bcd60e51b815260206004820152600f60248201527f7065726d69743a3a657870697265640000000000000000000000000000000000604482015290519081900360640190fd5b6001600160a01b0380881660008181526005602090815260409182902080546001810190915582517f6e71edae12b1b97f4d1f60370fef10105fa2faae0126114a169c64845d6126c98184015280840194909452938a1660608401526080830189905260a083019390935260c08083018890528151808403909101815260e090920190528051910120611e2f8882868686612be0565b611e3a8888886123fc565b5050505050505050565b600c546001600160a01b031681565b611e5b612b41565b6001600160a01b0316611e6c61153e565b6001600160a01b031614611eb5576040805162461bcd60e51b81526020600482018190526024820152600080516020613996833981519152604482015290519081900360640190fd5b600a54601354604080517f095ea7b30000000000000000000000000000000000000000000000000000000081526001600160a01b03928316600482015260001960248201529051919092169163095ea7b39160448083019260209291908290030181600087803b158015611f2857600080fd5b505af1158015611f3c573d6000803e3d6000fd5b505050506040513d6020811015610c0c57600080fd5b6001600160a01b03918216600090815260036020908152604080832093909416825291909152205490565b6000611f96600954600254612b4590919063ffffffff16565b611fa157508061100e565b6109f9600954611b1c60025485612b4590919063ffffffff16565b611fc4612b41565b6001600160a01b0316611fd561153e565b6001600160a01b03161461201e576040805162461bcd60e51b81526020600482018190526024820152600080516020613996833981519152604482015290519081900360640190fd5b600e54604080519182526020820183905280517fa5dae50539d56dfe1fb5273d883b0c39bc76750a25d036fc5fbd09ad8fd5f57f9281900390910190a1600e55565b6000612079600954600254612b4590919063ffffffff16565b6120855750600061100e565b6109f9600254611b1c60095485612b4590919063ffffffff16565b60007f8b73c3c69bb8fe3d512ecc4cf759cc79239f7b179b0ffacaa9a75d522b39400f60001b600060405180828054600181600116156101000203166002900480156121235780601f10612101576101008083540402835291820191612123565b820191906000526020600020905b81548152906001019060200180831161210f575b505091505060405180910390207fc89efdaa54c0f20c7adf612882df0950f5a951637e0307cdcb4c672f298b8bc660001b61215c612d18565b3060405160200180868152602001858152602001848152602001838152602001826001600160a01b031681526020019550505050505060405160208183030381529060405280519060200120905090565b6013546001600160a01b031681565b6121c4612b41565b6001600160a01b03166121d561153e565b6001600160a01b03161461221e576040805162461bcd60e51b81526020600482018190526024820152600080516020613996833981519152604482015290519081900360640190fd5b6001600160a01b0381166122635760405162461bcd60e51b81526004018080602001828103825260268152602001806138236026913960400191505060405180910390fd5b6006546040516001600160a01b038084169216907f8be0079c531659141344cd1fd0a4f28419497f9722a3daafe3b4186f6b6457e090600090a36006805473ffffffffffffffffffffffffffffffffffffffff19166001600160a01b0392909216919091179055565b600b546001600160a01b031681565b32331461232f576040805162461bcd60e51b815260206004820152601460248201527f59616b53747261746567793a3a6f6e6c79454f41000000000000000000000000604482015290519081900360640190fd5b6000612339611b38565b9050600d54811015612392576040805162461bcd60e51b815260206004820152601860248201527f454c4b494c5053747261746567793a3a7265696e766573740000000000000000604482015290519081900360640190fd5b611ae881612d1c565b6000828201838110156123f5576040805162461bcd60e51b815260206004820152601b60248201527f536166654d6174683a206164646974696f6e206f766572666c6f770000000000604482015290519081900360640190fd5b9392505050565b6001600160a01b038316612457576040805162461bcd60e51b815260206004820152601c60248201527f5f617070726f76653a3a6f776e6572207a65726f206164647265737300000000604482015290519081900360640190fd5b6001600160a01b0382166124b2576040805162461bcd60e51b815260206004820152601e60248201527f5f617070726f76653a3a7370656e646572207a65726f20616464726573730000604482015290519081900360640190fd5b6001600160a01b03808416600081815260036020908152604080832094871680845294825291829020859055815185815291517f8c5be1e5ebec7d5bd14f71427d1e84f3dd0314c0f7b2291e5b200ac8c7c3b9259281900390910190a3505050565b600081848411156125a35760405162461bcd60e51b81526004018080602001828103825283818151815260200191508051906020019080838360005b83811015612568578181015183820152602001612550565b50505050905090810190601f1680156125955780820380516001836020036101000a031916815260200191505b509250505060405180910390fd5b505050900390565b6001600160a01b0382166125f05760405162461bcd60e51b81526004018080602001828103825260348152602001806139b66034913960400191505060405180910390fd5b61262d816040518060600160405280602e8152602001613aaa602e91396001600160a01b0386166000908152600460205260409020549190612514565b6001600160a01b03808516600090815260046020526040808220939093559084168152205461265c908261239b565b6001600160a01b0380841660008181526004602090815260409182902094909455805185815290519193928716927fddf252ad1be2c89b69c2b068fc378daa952ba7f163c4a11628f55a4df523b3ef92918290030190a3505050565b600081116126f75760405162461bcd60e51b81526004018080602001828103825260268152602001806139206026913960400191505060405180910390fd5b601354604080517f2e1a7d4d0000000000000000000000000000000000000000000000000000000081526004810184905290516001600160a01b0390921691632e1a7d4d9160248082019260009290919082900301818387803b15801561275d57600080fd5b505af1158015610d10573d6000803e3d6000fd5b826001600160a01b031663a9059cbb83836040518363ffffffff1660e01b815260040180836001600160a01b0316815260200182815260200192505050602060405180830381600087803b1580156127c857600080fd5b505af11580156127dc573d6000803e3d6000fd5b505050506040513d60208110156127f257600080fd5b505161282f5760405162461bcd60e51b8152600401808060200182810382526024815260200180613a866024913960400191505060405180910390fd5b505050565b61287181604051806060016040528060278152602001613a5f602791396001600160a01b0385166000908152600460205260409020549190612514565b60046000846001600160a01b03166001600160a01b03168152602001908152602001600020819055506128c1816040518060600160405280602781526020016138f9602791396002549190612514565b6002556040805182815290516000916001600160a01b038516917fddf252ad1be2c89b69c2b068fc378daa952ba7f163c4a11628f55a4df523b3ef9181900360200190a35050565b60006123f583836040518060400160405280601f81526020017f536166654d6174683a207375627472616374696f6e20756e646572666c6f7700815250612514565b600754156129a6573360009081526008602052604090205460ff1615156001146129a65760405162461bcd60e51b815260040180806020018281038252602e815260200180613849602e913960400191505060405180910390fd5b600f5460ff161515600114612a02576040805162461bcd60e51b815260206004820152601860248201527f454c4b494c5053747261746567793a3a5f6465706f7369740000000000000000604482015290519081900360640190fd5b600e5415612a2b576000612a14611b38565b9050600e54811115612a2957612a2981612d1c565b505b600a54604080517f23b872dd0000000000000000000000000000000000000000000000000000000081523360048201523060248201526044810184905290516001600160a01b03909216916323b872dd916064808201926020929091908290030181600087803b158015612a9e57600080fd5b505af1158015612ab2573d6000803e3d6000fd5b505050506040513d6020811015612ac857600080fd5b5051612ad357600080fd5b612adc81612f50565b612aee82612ae983611f7d565b612ff5565b600954612afb908261239b565b6009556040805182815290516001600160a01b038416917fe1fffcc4923d04b559f4d29a8bfc6cda04eb5b0d3c460751c2402c5c5cc9109c919081900360200190a25050565b3390565b600082612b54575060006109f9565b82820282848281612b6157fe5b04146123f55760405162461bcd60e51b81526004018080602001828103825260218152602001806139756021913960400191505060405180910390fd5b60006123f583836040518060400160405280601a81526020017f536166654d6174683a206469766973696f6e206279207a65726f000000000000815250613080565b6000612bea6120a0565b8560405160200180807f190100000000000000000000000000000000000000000000000000000000000081525060020183815260200182815260200192505050604051602081830303815290604052805190602001209050600060018286868660405160008152602001604052604051808581526020018460ff1681526020018381526020018281526020019450505050506020604051602081039080840390855afa158015612c9e573d6000803e3d6000fd5b5050604051601f1901519150506001600160a01b03811615801590612cd45750866001600160a01b0316816001600160a01b0316145b612d0f5760405162461bcd60e51b81526004018080602001828103825260248152602001806138ab6024913960400191505060405180910390fd5b50505050505050565b4690565b601360009054906101000a90046001600160a01b03166001600160a01b0316633d18b9126040518163ffffffff1660e01b8152600401600060405180830381600087803b158015612d6c57600080fd5b505af1158015612d80573d6000803e3d6000fd5b50505050601360009054906101000a90046001600160a01b03166001600160a01b0316636de4ab876040518163ffffffff1660e01b8152600401600060405180830381600087803b158015612dd457600080fd5b505af1158015612de8573d6000803e3d6000fd5b505050506000612e09612710611b1c60125485612b4590919063ffffffff16565b90508015612e2e57600b54600c54612e2e916001600160a01b03908116911683612771565b6000612e4b612710611b1c60115486612b4590919063ffffffff16565b90508015612e7157600b54612e71906001600160a01b0316612e6b61153e565b83612771565b6000612e8e612710611b1c60105487612b4590919063ffffffff16565b90508015612ead57600b54612ead906001600160a01b03163383612771565b6000612eee612ec883612ec286818a8a612909565b90612909565b600b54600a546014546015546001600160a01b03938416939283169291821691166130e5565b9050612ef981612f50565b600954612f06908261239b565b600981905560025460408051928352602083019190915280517fc7606d21ac05cd309191543e409f0845c016120563783d70e4f41419dc0ef2349281900390910190a15050505050565b60008111612f8f5760405162461bcd60e51b8152600401808060200182810382526023815260200180613a3c6023913960400191505060405180910390fd5b601354604080517fa694fc3a0000000000000000000000000000000000000000000000000000000081526004810184905290516001600160a01b039092169163a694fc3a9160248082019260009290919082900301818387803b15801561275d57600080fd5b600254613002908261239b565b6002556001600160a01b038216600090815260046020526040902054613028908261239b565b6001600160a01b03831660008181526004602090815260408083209490945583518581529351929391927fddf252ad1be2c89b69c2b068fc378daa952ba7f163c4a11628f55a4df523b3ef9281900390910190a35050565b600081836130cf5760405162461bcd60e51b8152602060048201818152835160248401528351909283926044909101919085019080838360008315612568578181015183820152602001612550565b5060008385816130db57fe5b0495945050505050565b6000806130f3876002612b9e565b9050600081116131345760405162461bcd60e51b815260040180806020018281038252602f815260200180613946602f913960400191505060405180910390fd5b6000856001600160a01b0316630dfe16816040518163ffffffff1660e01b815260040160206040518083038186803b15801561316f57600080fd5b505afa158015613183573d6000803e3d6000fd5b505050506040513d602081101561319957600080fd5b50519050816001600160a01b03888116908316146131c0576131bd83898489613266565b90505b6000876001600160a01b031663d21220a76040518163ffffffff1660e01b815260040160206040518083038186803b1580156131fb57600080fd5b505afa15801561320f573d6000803e3d6000fd5b505050506040513d602081101561322557600080fd5b50519050836001600160a01b038a81169083161461324c57613249858b848a613266565b90505b613257898483613476565b9b9a5050505050505050505050565b60008061327385856136bd565b509050600080846001600160a01b0316630902f1ac6040518163ffffffff1660e01b815260040160606040518083038186803b1580156132b257600080fd5b505afa1580156132c6573d6000803e3d6000fd5b505050506040513d60608110156132dc57600080fd5b50805160209091015190925090506001600160a01b03838116908816146132ff57905b60008061332d8a856dffffffffffffffffffffffffffff16856dffffffffffffffffffffffffffff166136ee565b9050886001600160a01b0316856001600160a01b03161461334a57905b61335589888c613736565b60408051600080825260208201928390527f022c0d9f00000000000000000000000000000000000000000000000000000000835260248201858152604483018590523060648401819052608060848501908152845160a486018190526001600160a01b038e169663022c0d9f968a968a9691949193919260c486019290918190849084905b838110156133f25781810151838201526020016133da565b50505050905090810190601f16801561341f5780820380516001836020036101000a031916815260200191505b5095505050505050600060405180830381600087803b15801561344157600080fd5b505af1158015613455573d6000803e3d6000fd5b505050508181116134665781613468565b805b9a9950505050505050505050565b6000806000856001600160a01b0316630902f1ac6040518163ffffffff1660e01b815260040160606040518083038186803b1580156134b457600080fd5b505afa1580156134c8573d6000803e3d6000fd5b505050506040513d60608110156134de57600080fd5b5080516020909101519092509050600061350c866dffffffffffffffffffffffffffff80861690851661380a565b9050848111156135475784905061354485836dffffffffffffffffffffffffffff16856dffffffffffffffffffffffffffff1661380a565b95505b6135b6876001600160a01b0316630dfe16816040518163ffffffff1660e01b815260040160206040518083038186803b15801561358357600080fd5b505afa158015613597573d6000803e3d6000fd5b505050506040513d60208110156135ad57600080fd5b50518888613736565b613625876001600160a01b031663d21220a76040518163ffffffff1660e01b815260040160206040518083038186803b1580156135f257600080fd5b505afa158015613606573d6000803e3d6000fd5b505050506040513d602081101561361c57600080fd5b50518883613736565b604080517f6a62784200000000000000000000000000000000000000000000000000000000815230600482015290516001600160a01b03891691636a6278429160248083019260209291908290030181600087803b15801561368657600080fd5b505af115801561369a573d6000803e3d6000fd5b505050506040513d60208110156136b057600080fd5b5051979650505050505050565b600080826001600160a01b0316846001600160a01b0316106136e05782846136e3565b83835b915091509250929050565b6000806136fd856103e5612b45565b9050600061370b8285612b45565b9050600061371f836116fd886103e8612b45565b905061372b8282612b9e565b979650505050505050565b826001600160a01b031663a9059cbb83836040518363ffffffff1660e01b815260040180836001600160a01b0316815260200182815260200192505050602060405180830381600087803b15801561378d57600080fd5b505af11580156137a1573d6000803e3d6000fd5b505050506040513d60208110156137b757600080fd5b505161282f576040805162461bcd60e51b815260206004820181905260248201527f4465784c6962726172793a3a5452414e534645525f46524f4d5f4641494c4544604482015290519081900360640190fd5b600061381a83611b1c8685612b45565b94935050505056fe4f776e61626c653a206e6577206f776e657220697320746865207a65726f20616464726573735065726d697373696f6e65643a3a6f6e6c79416c6c6f7765644465706f736974732c206e6f7420616c6c6f7765645065726d697373696f6e65643a3a72656d6f76654465706f7369746f722c206e6f20616c6c6f776564206465706f7369746f7273417263683a3a76616c69646174655369673a20696e76616c6964207369676e61747572655065726d697373696f6e65643a3a72656d6f76654465706f7369746f722c206e6f7420616c6c6f7765645f6275726e3a206275726e20616d6f756e74206578636565647320746f74616c20737570706c79454c4b494c5053747261746567793a3a5f77697468647261774465706f736974546f6b656e734465784c6962726172793a3a5f636f6e76657274526577617264546f6b656e73546f4465706f736974546f6b656e73536166654d6174683a206d756c7469706c69636174696f6e206f766572666c6f774f776e61626c653a2063616c6c6572206973206e6f7420746865206f776e65725f7472616e73666572546f6b656e733a2063616e6e6f74207472616e7366657220746f20746865207a65726f2061646472657373454c4b494c5053747261746567793a3a7265736375654465706c6f79656446756e64737472616e7366657246726f6d3a207472616e7366657220616d6f756e74206578636565647320616c6c6f77616e6365454c4b494c5053747261746567793a3a5f7374616b654465706f736974546f6b656e735f6275726e3a206275726e20616d6f756e7420657863656564732066726f6d2062616c616e63655472616e7366657248656c7065723a205452414e534645525f46524f4d5f4641494c45445f7472616e73666572546f6b656e733a207472616e7366657220657863656564732066726f6d2062616c616e6365a2646970667358221220c4407bb7db8972e7f139de65034e5314b30174dee09716566d49a3e04d90fe2e64736f6c634300070300334f776e61626c653a206e6577206f776e657220697320746865207a65726f206164647265737353776170207061697220737570706c69656420646f6573206e6f742068617665207468652072657761726420746f6b656e206173206f6e65206f66206974277320706169725377617020706169722030206973206e656365737361727920627574206e6f7420737570706c6965644f776e61626c653a2063616c6c6572206973206e6f7420746865206f776e65728be0079c531659141344cd1fd0a4f28419497f9722a3daafe3b4186f6b6457e0537761702070616972203020737570706c69656420646f6573206e6f74206d6174636820746865207061697220696e207175657374696f6e5377617020706169722031206973206e656365737361727920627574206e6f7420737570706c696564537761702070616972203120737570706c69656420646f6573206e6f74206d6174636820746865207061697220696e207175657374696f6e",
  "devdoc": {
    "details": "Coverage is claimed and counted in reinvest functionsWithdrawing from strategy before coverage is paid surrenders claim",
    "kind": "dev",
    "methods": {
      "allowDepositor(address)": {
        "params": {
          "depositor": "address"
        }
      },
      "allowance(address,address)": {
        "params": {
          "account": "The address of the account holding the funds",
          "spender": "The address of the account spending the funds"
        },
        "returns": {
          "_0": "The number of tokens approved"
        }
      },
      "approve(address,uint256)": {
        "details": "This will overwrite the approval amount for `spender` and is subject to issues noted [here](https://eips.ethereum.org/EIPS/eip-20#approve) It is recommended to use increaseAllowance and decreaseAllowance instead",
        "params": {
          "amount": "The number of tokens that are approved (2^256-1 means infinite)",
          "spender": "The address of the account which may transfer tokens"
        },
        "returns": {
          "_0": "Whether or not the approval succeeded"
        }
      },
      "balanceOf(address)": {
        "params": {
          "account": "The address of the account to get the balance of"
        },
        "returns": {
          "_0": "The number of tokens held"
        }
      },
      "checkReward()": {
        "returns": {
          "_0": "reward tokens"
        }
      },
      "deposit(uint256)": {
        "details": "Must mint receipt tokens to `msg.sender`",
        "params": {
          "amount": "deposit tokens"
        }
      },
      "depositFor(address,uint256)": {
        "details": "Must mint receipt tokens to `account`",
        "params": {
          "account": "address to receive receipt tokens",
          "amount": "deposit tokens"
        }
      },
      "depositWithPermit(uint256,uint256,uint8,bytes32,bytes32)": {
        "details": "Should revert for tokens without Permit",
        "params": {
          "amount": "Amount of tokens to deposit",
          "deadline": "The time at which to expire the signature",
          "r": "Half of the ECDSA signature pair",
          "s": "Half of the ECDSA signature pair",
          "v": "The recovery byte of the signature"
        }
      },
      "estimateDeployedBalance()": {
        "returns": {
          "_0": "deposit tokens"
        }
      },
      "estimateReinvestReward()": {
        "returns": {
          "_0": "reward tokens"
        }
      },
      "getDepositTokensForShares(uint256)": {
        "params": {
          "amount": "receipt tokens"
        },
        "returns": {
          "_0": "deposit tokens"
        }
      },
      "getDomainSeparator()": {
        "returns": {
          "_0": "Separator"
        }
      },
      "getSharesForDepositTokens(uint256)": {
        "details": "If contract is empty, use 1:1 ratioCould return zero shares for very low amounts of deposit tokens",
        "params": {
          "amount": "deposit tokens"
        },
        "returns": {
          "_0": "receipt tokens"
        }
      },
      "owner()": {
        "details": "Returns the address of the current owner."
      },
      "permit(address,address,uint256,uint256,uint8,bytes32,bytes32)": {
        "params": {
          "deadline": "The time at which to expire the signature",
          "owner": "The address to approve from",
          "r": "Half of the ECDSA signature pair",
          "s": "Half of the ECDSA signature pair",
          "spender": "The address to be approved",
          "v": "The recovery byte of the signature",
          "value": "The number of tokens that are approved (2^256-1 means infinite)"
        }
      },
      "recoverAVAX(uint256)": {
        "params": {
          "amount": "amount"
        }
      },
      "recoverERC20(address,uint256)": {
        "params": {
          "tokenAddress": "token address",
          "tokenAmount": "amount to recover"
        }
      },
      "removeDepositor(address)": {
        "params": {
          "depositor": "address"
        }
      },
      "renounceOwnership()": {
        "details": "Leaves the contract without owner. It will not be possible to call `onlyOwner` functions anymore. Can only be called by the current owner. NOTE: Renouncing ownership will leave the contract without an owner, thereby removing any functionality that is only available to the owner."
      },
      "rescueDeployedFunds(uint256,bool)": {
        "params": {
          "disableDeposits": "bool",
          "minReturnAmountAccepted": "min deposit tokens to receive"
        }
      },
      "revokeAllowance(address,address)": {
        "params": {
          "spender": "address",
          "token": "address"
        }
      },
      "setAllowances()": {
        "details": "Should use modifier `onlyOwner` to avoid griefing"
      },
      "transfer(address,uint256)": {
        "params": {
          "amount": "The number of tokens to transfer",
          "dst": "The address of the destination account"
        },
        "returns": {
          "_0": "Whether or not the transfer succeeded"
        }
      },
      "transferFrom(address,address,uint256)": {
        "params": {
          "amount": "The number of tokens to transfer",
          "dst": "The address of the destination account",
          "src": "The address of the source account"
        },
        "returns": {
          "_0": "Whether or not the transfer succeeded"
        }
      },
      "transferOwnership(address)": {
        "details": "Transfers ownership of the contract to a new account (`newOwner`). Can only be called by the current owner."
      },
      "updateAdminFee(uint256)": {
        "params": {
          "newValue": "fee in BIPS"
        }
      },
      "updateDepositsEnabled(bool)": {
        "params": {
          "newValue": "bool"
        }
      },
      "updateDevAddr(address)": {
        "params": {
          "newValue": "address"
        }
      },
      "updateDevFee(uint256)": {
        "params": {
          "newValue": "fee in BIPS"
        }
      },
      "updateMaxTokensToDepositWithoutReinvest(uint256)": {
        "params": {
          "newValue": "threshold"
        }
      },
      "updateMinTokensToReinvest(uint256)": {
        "params": {
          "newValue": "threshold"
        }
      },
      "updateReinvestReward(uint256)": {
        "params": {
          "newValue": "fee in BIPS"
        }
      },
      "withdraw(uint256)": {
        "params": {
          "amount": "receipt tokens"
        }
      }
    },
    "version": 1
  },
  "userdoc": {
    "kind": "user",
    "methods": {
      "allowDepositor(address)": {
        "notice": "Add an allowed depositor"
      },
      "allowance(address,address)": {
        "notice": "Get the number of tokens `spender` is approved to spend on behalf of `account`"
      },
      "approve(address,uint256)": {
        "notice": "Approve `spender` to transfer up to `amount` from `src`"
      },
      "balanceOf(address)": {
        "notice": "Get the number of tokens held by the `account`"
      },
      "checkReward()": {
        "notice": "Reward tokens avialable to strategy, including balance"
      },
      "deposit(uint256)": {
        "notice": "Deposit and deploy deposits tokens to the strategy"
      },
      "depositFor(address,uint256)": {
        "notice": "Deposit on behalf of another account"
      },
      "depositWithPermit(uint256,uint256,uint8,bytes32,bytes32)": {
        "notice": "Deposit using Permit"
      },
      "estimateDeployedBalance()": {
        "notice": "Estimated deposit token balance deployed by strategy, excluding balance"
      },
      "estimateReinvestReward()": {
        "notice": "Estimate reinvest reward"
      },
      "getDepositTokensForShares(uint256)": {
        "notice": "Calculate deposit tokens for a given amount of receipt tokens"
      },
      "getDomainSeparator()": {
        "notice": "EIP-712 Domain separator"
      },
      "getSharesForDepositTokens(uint256)": {
        "notice": "Calculate receipt tokens for a given amount of deposit tokens"
      },
      "permit(address,address,uint256,uint256,uint8,bytes32,bytes32)": {
        "notice": "Triggers an approval from owner to spender"
      },
      "recoverAVAX(uint256)": {
        "notice": "Recover AVAX from contract"
      },
      "recoverERC20(address,uint256)": {
        "notice": "Recover ERC20 from contract"
      },
      "reinvest()": {
        "notice": "Reinvest reward tokens into deposit tokens"
      },
      "removeDepositor(address)": {
        "notice": "Remove an allowed depositor"
      },
      "rescueDeployedFunds(uint256,bool)": {
        "notice": "Rescue all available deployed deposit tokens back to Strategy"
      },
      "revokeAllowance(address,address)": {
        "notice": "Revoke token allowance"
      },
      "setAllowances()": {
        "notice": "Approve tokens for use in Strategy"
      },
      "transfer(address,uint256)": {
        "notice": "Transfer `amount` tokens from `msg.sender` to `dst`"
      },
      "transferFrom(address,address,uint256)": {
        "notice": "Transfer `amount` tokens from `src` to `dst`"
      },
      "updateAdminFee(uint256)": {
        "notice": "Update admin fee"
      },
      "updateDepositsEnabled(bool)": {
        "notice": "Enable/disable deposits"
      },
      "updateDevAddr(address)": {
        "notice": "Update devAddr"
      },
      "updateDevFee(uint256)": {
        "notice": "Update developer fee"
      },
      "updateMaxTokensToDepositWithoutReinvest(uint256)": {
        "notice": "Update reinvest max threshold before a deposit"
      },
      "updateMinTokensToReinvest(uint256)": {
        "notice": "Update reinvest min threshold"
      },
      "updateReinvestReward(uint256)": {
        "notice": "Update reinvest reward"
      },
      "withdraw(uint256)": {
        "notice": "Redeem receipt tokens for deposit tokens"
      }
    },
    "notice": "Strategy for StakingRewards with ILP coverage",
    "version": 1
  },
  "storageLayout": {
    "storage": [
      {
        "astId": 14792,
        "contract": "contracts/strategies/ElkStrategyV1.sol:ElkStrategyV1",
        "label": "name",
        "offset": 0,
        "slot": "0",
        "type": "t_string_storage"
      },
      {
        "astId": 14795,
        "contract": "contracts/strategies/ElkStrategyV1.sol:ElkStrategyV1",
        "label": "symbol",
        "offset": 0,
        "slot": "1",
        "type": "t_string_storage"
      },
      {
        "astId": 14800,
        "contract": "contracts/strategies/ElkStrategyV1.sol:ElkStrategyV1",
        "label": "totalSupply",
        "offset": 0,
        "slot": "2",
        "type": "t_uint256"
      },
      {
        "astId": 14806,
        "contract": "contracts/strategies/ElkStrategyV1.sol:ElkStrategyV1",
        "label": "allowances",
        "offset": 0,
        "slot": "3",
        "type": "t_mapping(t_address,t_mapping(t_address,t_uint256))"
      },
      {
        "astId": 14810,
        "contract": "contracts/strategies/ElkStrategyV1.sol:ElkStrategyV1",
        "label": "balances",
        "offset": 0,
        "slot": "4",
        "type": "t_mapping(t_address,t_uint256)"
      },
      {
        "astId": 14826,
        "contract": "contracts/strategies/ElkStrategyV1.sol:ElkStrategyV1",
        "label": "nonces",
        "offset": 0,
        "slot": "5",
        "type": "t_mapping(t_address,t_uint256)"
      },
      {
        "astId": 21514,
        "contract": "contracts/strategies/ElkStrategyV1.sol:ElkStrategyV1",
        "label": "_owner",
        "offset": 0,
        "slot": "6",
        "type": "t_address"
      },
      {
        "astId": 21627,
        "contract": "contracts/strategies/ElkStrategyV1.sol:ElkStrategyV1",
        "label": "numberOfAllowedDepositors",
        "offset": 0,
        "slot": "7",
        "type": "t_uint256"
      },
      {
        "astId": 21631,
        "contract": "contracts/strategies/ElkStrategyV1.sol:ElkStrategyV1",
        "label": "allowedDepositors",
        "offset": 0,
        "slot": "8",
        "type": "t_mapping(t_address,t_bool)"
      },
      {
        "astId": 15431,
        "contract": "contracts/strategies/ElkStrategyV1.sol:ElkStrategyV1",
        "label": "totalDeposits",
        "offset": 0,
        "slot": "9",
        "type": "t_uint256"
      },
      {
        "astId": 15433,
        "contract": "contracts/strategies/ElkStrategyV1.sol:ElkStrategyV1",
        "label": "depositToken",
        "offset": 0,
        "slot": "10",
        "type": "t_contract(IERC20)18073"
      },
      {
        "astId": 15435,
        "contract": "contracts/strategies/ElkStrategyV1.sol:ElkStrategyV1",
        "label": "rewardToken",
        "offset": 0,
        "slot": "11",
        "type": "t_contract(IERC20)18073"
      },
      {
        "astId": 15437,
        "contract": "contracts/strategies/ElkStrategyV1.sol:ElkStrategyV1",
        "label": "devAddr",
        "offset": 0,
        "slot": "12",
        "type": "t_address"
      },
      {
        "astId": 15439,
        "contract": "contracts/strategies/ElkStrategyV1.sol:ElkStrategyV1",
        "label": "MIN_TOKENS_TO_REINVEST",
        "offset": 0,
        "slot": "13",
        "type": "t_uint256"
      },
      {
        "astId": 15441,
        "contract": "contracts/strategies/ElkStrategyV1.sol:ElkStrategyV1",
        "label": "MAX_TOKENS_TO_DEPOSIT_WITHOUT_REINVEST",
        "offset": 0,
        "slot": "14",
        "type": "t_uint256"
      },
      {
        "astId": 15443,
        "contract": "contracts/strategies/ElkStrategyV1.sol:ElkStrategyV1",
        "label": "DEPOSITS_ENABLED",
        "offset": 0,
        "slot": "15",
        "type": "t_bool"
      },
      {
        "astId": 15445,
        "contract": "contracts/strategies/ElkStrategyV1.sol:ElkStrategyV1",
        "label": "REINVEST_REWARD_BIPS",
        "offset": 0,
        "slot": "16",
        "type": "t_uint256"
      },
      {
        "astId": 15447,
        "contract": "contracts/strategies/ElkStrategyV1.sol:ElkStrategyV1",
        "label": "ADMIN_FEE_BIPS",
        "offset": 0,
        "slot": "17",
        "type": "t_uint256"
      },
      {
        "astId": 15449,
        "contract": "contracts/strategies/ElkStrategyV1.sol:ElkStrategyV1",
        "label": "DEV_FEE_BIPS",
        "offset": 0,
        "slot": "18",
        "type": "t_uint256"
      },
      {
        "astId": 42951,
        "contract": "contracts/strategies/ElkStrategyV1.sol:ElkStrategyV1",
        "label": "stakingContract",
        "offset": 0,
        "slot": "19",
        "type": "t_contract(IStakingRewardsILPV2)20114"
      },
      {
        "astId": 42953,
        "contract": "contracts/strategies/ElkStrategyV1.sol:ElkStrategyV1",
        "label": "swapPairToken0",
        "offset": 0,
        "slot": "20",
        "type": "t_contract(IPair)19127"
      },
      {
        "astId": 42955,
        "contract": "contracts/strategies/ElkStrategyV1.sol:ElkStrategyV1",
        "label": "swapPairToken1",
        "offset": 0,
        "slot": "21",
        "type": "t_contract(IPair)19127"
      }
    ],
    "types": {
      "t_address": {
        "encoding": "inplace",
        "label": "address",
        "numberOfBytes": "20"
      },
      "t_bool": {
        "encoding": "inplace",
        "label": "bool",
        "numberOfBytes": "1"
      },
      "t_contract(IERC20)18073": {
        "encoding": "inplace",
        "label": "contract IERC20",
        "numberOfBytes": "20"
      },
      "t_contract(IPair)19127": {
        "encoding": "inplace",
        "label": "contract IPair",
        "numberOfBytes": "20"
      },
      "t_contract(IStakingRewardsILPV2)20114": {
        "encoding": "inplace",
        "label": "contract IStakingRewardsILPV2",
        "numberOfBytes": "20"
      },
      "t_mapping(t_address,t_bool)": {
        "encoding": "mapping",
        "key": "t_address",
        "label": "mapping(address => bool)",
        "numberOfBytes": "32",
        "value": "t_bool"
      },
      "t_mapping(t_address,t_mapping(t_address,t_uint256))": {
        "encoding": "mapping",
        "key": "t_address",
        "label": "mapping(address => mapping(address => uint256))",
        "numberOfBytes": "32",
        "value": "t_mapping(t_address,t_uint256)"
      },
      "t_mapping(t_address,t_uint256)": {
        "encoding": "mapping",
        "key": "t_address",
        "label": "mapping(address => uint256)",
        "numberOfBytes": "32",
        "value": "t_uint256"
      },
      "t_string_storage": {
        "encoding": "bytes",
        "label": "string",
        "numberOfBytes": "32"
      },
      "t_uint256": {
        "encoding": "inplace",
        "label": "uint256",
        "numberOfBytes": "32"
      }
    }
  }
}