{
  "address": "0xd323d1980a29C2cd350466371142bA0BD7D5b8CC",
  "abi": [
    {
      "inputs": [
        {
          "internalType": "string",
          "name": "_name",
          "type": "string"
        },
        {
          "internalType": "address",
          "name": "_depositToken",
          "type": "address"
        },
        {
          "internalType": "address",
          "name": "_rewardToken",
          "type": "address"
        },
        {
          "internalType": "address",
          "name": "_nativeRewardToken",
          "type": "address"
        },
        {
          "components": [
            {
              "internalType": "address",
              "name": "poolReward",
              "type": "address"
            },
            {
              "internalType": "address",
              "name": "token0",
              "type": "address"
            },
            {
              "internalType": "address",
              "name": "token1",
              "type": "address"
            }
          ],
          "internalType": "struct MasterChefStrategyForLP.SwapPairs",
          "name": "_swapPairs",
          "type": "tuple"
        },
        {
          "internalType": "address",
          "name": "_stakingRewards",
          "type": "address"
        },
        {
          "internalType": "uint256",
          "name": "_pid",
          "type": "uint256"
        },
        {
          "internalType": "address",
          "name": "_timelock",
          "type": "address"
        },
        {
          "components": [
            {
              "internalType": "uint256",
              "name": "minTokensToReinvest",
              "type": "uint256"
            },
            {
              "internalType": "uint256",
              "name": "adminFeeBips",
              "type": "uint256"
            },
            {
              "internalType": "uint256",
              "name": "devFeeBips",
              "type": "uint256"
            },
            {
              "internalType": "uint256",
              "name": "reinvestRewardBips",
              "type": "uint256"
            }
          ],
          "internalType": "struct MasterChefStrategy.StrategySettings",
          "name": "_strategySettings",
          "type": "tuple"
        }
      ],
      "stateMutability": "nonpayable",
      "type": "constructor"
    },
    {
      "anonymous": false,
      "inputs": [
        {
          "indexed": true,
          "internalType": "address",
          "name": "account",
          "type": "address"
        }
      ],
      "name": "AllowDepositor",
      "type": "event"
    },
    {
      "anonymous": false,
      "inputs": [
        {
          "indexed": true,
          "internalType": "address",
          "name": "owner",
          "type": "address"
        },
        {
          "indexed": true,
          "internalType": "address",
          "name": "spender",
          "type": "address"
        },
        {
          "indexed": false,
          "internalType": "uint256",
          "name": "value",
          "type": "uint256"
        }
      ],
      "name": "Approval",
      "type": "event"
    },
    {
      "anonymous": false,
      "inputs": [
        {
          "indexed": true,
          "internalType": "address",
          "name": "account",
          "type": "address"
        },
        {
          "indexed": false,
          "internalType": "uint256",
          "name": "amount",
          "type": "uint256"
        }
      ],
      "name": "Deposit",
      "type": "event"
    },
    {
      "anonymous": false,
      "inputs": [
        {
          "indexed": false,
          "internalType": "bool",
          "name": "newValue",
          "type": "bool"
        }
      ],
      "name": "DepositsEnabled",
      "type": "event"
    },
    {
      "anonymous": false,
      "inputs": [
        {
          "indexed": true,
          "internalType": "address",
          "name": "previousOwner",
          "type": "address"
        },
        {
          "indexed": true,
          "internalType": "address",
          "name": "newOwner",
          "type": "address"
        }
      ],
      "name": "OwnershipTransferred",
      "type": "event"
    },
    {
      "anonymous": false,
      "inputs": [
        {
          "indexed": false,
          "internalType": "address",
          "name": "token",
          "type": "address"
        },
        {
          "indexed": false,
          "internalType": "uint256",
          "name": "amount",
          "type": "uint256"
        }
      ],
      "name": "Recovered",
      "type": "event"
    },
    {
      "anonymous": false,
      "inputs": [
        {
          "indexed": false,
          "internalType": "uint256",
          "name": "newTotalDeposits",
          "type": "uint256"
        },
        {
          "indexed": false,
          "internalType": "uint256",
          "name": "newTotalSupply",
          "type": "uint256"
        }
      ],
      "name": "Reinvest",
      "type": "event"
    },
    {
      "anonymous": false,
      "inputs": [
        {
          "indexed": true,
          "internalType": "address",
          "name": "account",
          "type": "address"
        }
      ],
      "name": "RemoveDepositor",
      "type": "event"
    },
    {
      "anonymous": false,
      "inputs": [
        {
          "indexed": true,
          "internalType": "address",
          "name": "from",
          "type": "address"
        },
        {
          "indexed": true,
          "internalType": "address",
          "name": "to",
          "type": "address"
        },
        {
          "indexed": false,
          "internalType": "uint256",
          "name": "value",
          "type": "uint256"
        }
      ],
      "name": "Transfer",
      "type": "event"
    },
    {
      "anonymous": false,
      "inputs": [
        {
          "indexed": false,
          "internalType": "uint256",
          "name": "oldValue",
          "type": "uint256"
        },
        {
          "indexed": false,
          "internalType": "uint256",
          "name": "newValue",
          "type": "uint256"
        }
      ],
      "name": "UpdateAdminFee",
      "type": "event"
    },
    {
      "anonymous": false,
      "inputs": [
        {
          "indexed": false,
          "internalType": "address",
          "name": "oldValue",
          "type": "address"
        },
        {
          "indexed": false,
          "internalType": "address",
          "name": "newValue",
          "type": "address"
        }
      ],
      "name": "UpdateDevAddr",
      "type": "event"
    },
    {
      "anonymous": false,
      "inputs": [
        {
          "indexed": false,
          "internalType": "uint256",
          "name": "oldValue",
          "type": "uint256"
        },
        {
          "indexed": false,
          "internalType": "uint256",
          "name": "newValue",
          "type": "uint256"
        }
      ],
      "name": "UpdateDevFee",
      "type": "event"
    },
    {
      "anonymous": false,
      "inputs": [
        {
          "indexed": false,
          "internalType": "uint256",
          "name": "oldValue",
          "type": "uint256"
        },
        {
          "indexed": false,
          "internalType": "uint256",
          "name": "newValue",
          "type": "uint256"
        }
      ],
      "name": "UpdateMaxTokensToDepositWithoutReinvest",
      "type": "event"
    },
    {
      "anonymous": false,
      "inputs": [
        {
          "indexed": false,
          "internalType": "uint256",
          "name": "oldValue",
          "type": "uint256"
        },
        {
          "indexed": false,
          "internalType": "uint256",
          "name": "newValue",
          "type": "uint256"
        }
      ],
      "name": "UpdateMinTokensToReinvest",
      "type": "event"
    },
    {
      "anonymous": false,
      "inputs": [
        {
          "indexed": false,
          "internalType": "uint256",
          "name": "oldValue",
          "type": "uint256"
        },
        {
          "indexed": false,
          "internalType": "uint256",
          "name": "newValue",
          "type": "uint256"
        }
      ],
      "name": "UpdateReinvestReward",
      "type": "event"
    },
    {
      "anonymous": false,
      "inputs": [
        {
          "indexed": true,
          "internalType": "address",
          "name": "account",
          "type": "address"
        },
        {
          "indexed": false,
          "internalType": "uint256",
          "name": "amount",
          "type": "uint256"
        }
      ],
      "name": "Withdraw",
      "type": "event"
    },
    {
      "inputs": [],
      "name": "ADMIN_FEE_BIPS",
      "outputs": [
        {
          "internalType": "uint256",
          "name": "",
          "type": "uint256"
        }
      ],
      "stateMutability": "view",
      "type": "function"
    },
    {
      "inputs": [],
      "name": "DEPOSITS_ENABLED",
      "outputs": [
        {
          "internalType": "bool",
          "name": "",
          "type": "bool"
        }
      ],
      "stateMutability": "view",
      "type": "function"
    },
    {
      "inputs": [],
      "name": "DEV_FEE_BIPS",
      "outputs": [
        {
          "internalType": "uint256",
          "name": "",
          "type": "uint256"
        }
      ],
      "stateMutability": "view",
      "type": "function"
    },
    {
      "inputs": [],
      "name": "DOMAIN_TYPEHASH",
      "outputs": [
        {
          "internalType": "bytes32",
          "name": "",
          "type": "bytes32"
        }
      ],
      "stateMutability": "view",
      "type": "function"
    },
    {
      "inputs": [],
      "name": "MAX_TOKENS_TO_DEPOSIT_WITHOUT_REINVEST",
      "outputs": [
        {
          "internalType": "uint256",
          "name": "",
          "type": "uint256"
        }
      ],
      "stateMutability": "view",
      "type": "function"
    },
    {
      "inputs": [],
      "name": "MIN_TOKENS_TO_REINVEST",
      "outputs": [
        {
          "internalType": "uint256",
          "name": "",
          "type": "uint256"
        }
      ],
      "stateMutability": "view",
      "type": "function"
    },
    {
      "inputs": [],
      "name": "PERMIT_TYPEHASH",
      "outputs": [
        {
          "internalType": "bytes32",
          "name": "",
          "type": "bytes32"
        }
      ],
      "stateMutability": "view",
      "type": "function"
    },
    {
      "inputs": [],
      "name": "PID",
      "outputs": [
        {
          "internalType": "uint256",
          "name": "",
          "type": "uint256"
        }
      ],
      "stateMutability": "view",
      "type": "function"
    },
    {
      "inputs": [],
      "name": "REINVEST_REWARD_BIPS",
      "outputs": [
        {
          "internalType": "uint256",
          "name": "",
          "type": "uint256"
        }
      ],
      "stateMutability": "view",
      "type": "function"
    },
    {
      "inputs": [],
      "name": "VERSION_HASH",
      "outputs": [
        {
          "internalType": "bytes32",
          "name": "",
          "type": "bytes32"
        }
      ],
      "stateMutability": "view",
      "type": "function"
    },
    {
      "inputs": [
        {
          "internalType": "address",
          "name": "depositor",
          "type": "address"
        }
      ],
      "name": "allowDepositor",
      "outputs": [],
      "stateMutability": "nonpayable",
      "type": "function"
    },
    {
      "inputs": [
        {
          "internalType": "address",
          "name": "account",
          "type": "address"
        },
        {
          "internalType": "address",
          "name": "spender",
          "type": "address"
        }
      ],
      "name": "allowance",
      "outputs": [
        {
          "internalType": "uint256",
          "name": "",
          "type": "uint256"
        }
      ],
      "stateMutability": "view",
      "type": "function"
    },
    {
      "inputs": [
        {
          "internalType": "address",
          "name": "",
          "type": "address"
        }
      ],
      "name": "allowedDepositors",
      "outputs": [
        {
          "internalType": "bool",
          "name": "",
          "type": "bool"
        }
      ],
      "stateMutability": "view",
      "type": "function"
    },
    {
      "inputs": [
        {
          "internalType": "address",
          "name": "spender",
          "type": "address"
        },
        {
          "internalType": "uint256",
          "name": "amount",
          "type": "uint256"
        }
      ],
      "name": "approve",
      "outputs": [
        {
          "internalType": "bool",
          "name": "",
          "type": "bool"
        }
      ],
      "stateMutability": "nonpayable",
      "type": "function"
    },
    {
      "inputs": [
        {
          "internalType": "address",
          "name": "account",
          "type": "address"
        }
      ],
      "name": "balanceOf",
      "outputs": [
        {
          "internalType": "uint256",
          "name": "",
          "type": "uint256"
        }
      ],
      "stateMutability": "view",
      "type": "function"
    },
    {
      "inputs": [],
      "name": "checkReward",
      "outputs": [
        {
          "internalType": "uint256",
          "name": "",
          "type": "uint256"
        }
      ],
      "stateMutability": "view",
      "type": "function"
    },
    {
      "inputs": [],
      "name": "decimals",
      "outputs": [
        {
          "internalType": "uint8",
          "name": "",
          "type": "uint8"
        }
      ],
      "stateMutability": "view",
      "type": "function"
    },
    {
      "inputs": [
        {
          "internalType": "uint256",
          "name": "amount",
          "type": "uint256"
        }
      ],
      "name": "deposit",
      "outputs": [],
      "stateMutability": "nonpayable",
      "type": "function"
    },
    {
      "inputs": [
        {
          "internalType": "address",
          "name": "account",
          "type": "address"
        },
        {
          "internalType": "uint256",
          "name": "amount",
          "type": "uint256"
        }
      ],
      "name": "depositFor",
      "outputs": [],
      "stateMutability": "nonpayable",
      "type": "function"
    },
    {
      "inputs": [],
      "name": "depositToken",
      "outputs": [
        {
          "internalType": "contract IERC20",
          "name": "",
          "type": "address"
        }
      ],
      "stateMutability": "view",
      "type": "function"
    },
    {
      "inputs": [
        {
          "internalType": "uint256",
          "name": "amount",
          "type": "uint256"
        },
        {
          "internalType": "uint256",
          "name": "deadline",
          "type": "uint256"
        },
        {
          "internalType": "uint8",
          "name": "v",
          "type": "uint8"
        },
        {
          "internalType": "bytes32",
          "name": "r",
          "type": "bytes32"
        },
        {
          "internalType": "bytes32",
          "name": "s",
          "type": "bytes32"
        }
      ],
      "name": "depositWithPermit",
      "outputs": [],
      "stateMutability": "nonpayable",
      "type": "function"
    },
    {
      "inputs": [],
      "name": "devAddr",
      "outputs": [
        {
          "internalType": "address",
          "name": "",
          "type": "address"
        }
      ],
      "stateMutability": "view",
      "type": "function"
    },
    {
      "inputs": [],
      "name": "estimateDeployedBalance",
      "outputs": [
        {
          "internalType": "uint256",
          "name": "",
          "type": "uint256"
        }
      ],
      "stateMutability": "view",
      "type": "function"
    },
    {
      "inputs": [],
      "name": "estimateReinvestReward",
      "outputs": [
        {
          "internalType": "uint256",
          "name": "",
          "type": "uint256"
        }
      ],
      "stateMutability": "view",
      "type": "function"
    },
    {
      "inputs": [
        {
          "internalType": "uint256",
          "name": "amount",
          "type": "uint256"
        }
      ],
      "name": "getDepositTokensForShares",
      "outputs": [
        {
          "internalType": "uint256",
          "name": "",
          "type": "uint256"
        }
      ],
      "stateMutability": "view",
      "type": "function"
    },
    {
      "inputs": [],
      "name": "getDomainSeparator",
      "outputs": [
        {
          "internalType": "bytes32",
          "name": "",
          "type": "bytes32"
        }
      ],
      "stateMutability": "view",
      "type": "function"
    },
    {
      "inputs": [
        {
          "internalType": "uint256",
          "name": "amount",
          "type": "uint256"
        }
      ],
      "name": "getSharesForDepositTokens",
      "outputs": [
        {
          "internalType": "uint256",
          "name": "",
          "type": "uint256"
        }
      ],
      "stateMutability": "view",
      "type": "function"
    },
    {
      "inputs": [],
      "name": "name",
      "outputs": [
        {
          "internalType": "string",
          "name": "",
          "type": "string"
        }
      ],
      "stateMutability": "view",
      "type": "function"
    },
    {
      "inputs": [],
      "name": "nativeRewardToken",
      "outputs": [
        {
          "internalType": "address",
          "name": "",
          "type": "address"
        }
      ],
      "stateMutability": "view",
      "type": "function"
    },
    {
      "inputs": [
        {
          "internalType": "address",
          "name": "",
          "type": "address"
        }
      ],
      "name": "nonces",
      "outputs": [
        {
          "internalType": "uint256",
          "name": "",
          "type": "uint256"
        }
      ],
      "stateMutability": "view",
      "type": "function"
    },
    {
      "inputs": [],
      "name": "numberOfAllowedDepositors",
      "outputs": [
        {
          "internalType": "uint256",
          "name": "",
          "type": "uint256"
        }
      ],
      "stateMutability": "view",
      "type": "function"
    },
    {
      "inputs": [],
      "name": "owner",
      "outputs": [
        {
          "internalType": "address",
          "name": "",
          "type": "address"
        }
      ],
      "stateMutability": "view",
      "type": "function"
    },
    {
      "inputs": [
        {
          "internalType": "address",
          "name": "owner",
          "type": "address"
        },
        {
          "internalType": "address",
          "name": "spender",
          "type": "address"
        },
        {
          "internalType": "uint256",
          "name": "value",
          "type": "uint256"
        },
        {
          "internalType": "uint256",
          "name": "deadline",
          "type": "uint256"
        },
        {
          "internalType": "uint8",
          "name": "v",
          "type": "uint8"
        },
        {
          "internalType": "bytes32",
          "name": "r",
          "type": "bytes32"
        },
        {
          "internalType": "bytes32",
          "name": "s",
          "type": "bytes32"
        }
      ],
      "name": "permit",
      "outputs": [],
      "stateMutability": "nonpayable",
      "type": "function"
    },
    {
      "inputs": [
        {
          "internalType": "uint256",
          "name": "amount",
          "type": "uint256"
        }
      ],
      "name": "recoverAVAX",
      "outputs": [],
      "stateMutability": "nonpayable",
      "type": "function"
    },
    {
      "inputs": [
        {
          "internalType": "address",
          "name": "tokenAddress",
          "type": "address"
        },
        {
          "internalType": "uint256",
          "name": "tokenAmount",
          "type": "uint256"
        }
      ],
      "name": "recoverERC20",
      "outputs": [],
      "stateMutability": "nonpayable",
      "type": "function"
    },
    {
      "inputs": [],
      "name": "reinvest",
      "outputs": [],
      "stateMutability": "nonpayable",
      "type": "function"
    },
    {
      "inputs": [
        {
          "internalType": "address",
          "name": "depositor",
          "type": "address"
        }
      ],
      "name": "removeDepositor",
      "outputs": [],
      "stateMutability": "nonpayable",
      "type": "function"
    },
    {
      "inputs": [],
      "name": "renounceOwnership",
      "outputs": [],
      "stateMutability": "nonpayable",
      "type": "function"
    },
    {
      "inputs": [
        {
          "internalType": "uint256",
          "name": "minReturnAmountAccepted",
          "type": "uint256"
        },
        {
          "internalType": "bool",
          "name": "disableDeposits",
          "type": "bool"
        }
      ],
      "name": "rescueDeployedFunds",
      "outputs": [],
      "stateMutability": "nonpayable",
      "type": "function"
    },
    {
      "inputs": [
        {
          "internalType": "address",
          "name": "token",
          "type": "address"
        },
        {
          "internalType": "address",
          "name": "spender",
          "type": "address"
        }
      ],
      "name": "revokeAllowance",
      "outputs": [],
      "stateMutability": "nonpayable",
      "type": "function"
    },
    {
      "inputs": [],
      "name": "rewardToken",
      "outputs": [
        {
          "internalType": "contract IERC20",
          "name": "",
          "type": "address"
        }
      ],
      "stateMutability": "view",
      "type": "function"
    },
    {
      "inputs": [],
      "name": "setAllowances",
      "outputs": [],
      "stateMutability": "nonpayable",
      "type": "function"
    },
    {
      "inputs": [],
      "name": "stakingContract",
      "outputs": [
        {
          "internalType": "contract IGondolaChef",
          "name": "",
          "type": "address"
        }
      ],
      "stateMutability": "view",
      "type": "function"
    },
    {
      "inputs": [],
      "name": "swapPairRewardToken",
      "outputs": [
        {
          "internalType": "address",
          "name": "",
          "type": "address"
        }
      ],
      "stateMutability": "view",
      "type": "function"
    },
    {
      "inputs": [],
      "name": "symbol",
      "outputs": [
        {
          "internalType": "string",
          "name": "",
          "type": "string"
        }
      ],
      "stateMutability": "view",
      "type": "function"
    },
    {
      "inputs": [],
      "name": "totalDeposits",
      "outputs": [
        {
          "internalType": "uint256",
          "name": "",
          "type": "uint256"
        }
      ],
      "stateMutability": "view",
      "type": "function"
    },
    {
      "inputs": [],
      "name": "totalSupply",
      "outputs": [
        {
          "internalType": "uint256",
          "name": "",
          "type": "uint256"
        }
      ],
      "stateMutability": "view",
      "type": "function"
    },
    {
      "inputs": [
        {
          "internalType": "address",
          "name": "dst",
          "type": "address"
        },
        {
          "internalType": "uint256",
          "name": "amount",
          "type": "uint256"
        }
      ],
      "name": "transfer",
      "outputs": [
        {
          "internalType": "bool",
          "name": "",
          "type": "bool"
        }
      ],
      "stateMutability": "nonpayable",
      "type": "function"
    },
    {
      "inputs": [
        {
          "internalType": "address",
          "name": "src",
          "type": "address"
        },
        {
          "internalType": "address",
          "name": "dst",
          "type": "address"
        },
        {
          "internalType": "uint256",
          "name": "amount",
          "type": "uint256"
        }
      ],
      "name": "transferFrom",
      "outputs": [
        {
          "internalType": "bool",
          "name": "",
          "type": "bool"
        }
      ],
      "stateMutability": "nonpayable",
      "type": "function"
    },
    {
      "inputs": [
        {
          "internalType": "address",
          "name": "newOwner",
          "type": "address"
        }
      ],
      "name": "transferOwnership",
      "outputs": [],
      "stateMutability": "nonpayable",
      "type": "function"
    },
    {
      "inputs": [
        {
          "internalType": "uint256",
          "name": "newValue",
          "type": "uint256"
        }
      ],
      "name": "updateAdminFee",
      "outputs": [],
      "stateMutability": "nonpayable",
      "type": "function"
    },
    {
      "inputs": [
        {
          "internalType": "bool",
          "name": "newValue",
          "type": "bool"
        }
      ],
      "name": "updateDepositsEnabled",
      "outputs": [],
      "stateMutability": "nonpayable",
      "type": "function"
    },
    {
      "inputs": [
        {
          "internalType": "address",
          "name": "newValue",
          "type": "address"
        }
      ],
      "name": "updateDevAddr",
      "outputs": [],
      "stateMutability": "nonpayable",
      "type": "function"
    },
    {
      "inputs": [
        {
          "internalType": "uint256",
          "name": "newValue",
          "type": "uint256"
        }
      ],
      "name": "updateDevFee",
      "outputs": [],
      "stateMutability": "nonpayable",
      "type": "function"
    },
    {
      "inputs": [
        {
          "internalType": "uint256",
          "name": "newValue",
          "type": "uint256"
        }
      ],
      "name": "updateMaxTokensToDepositWithoutReinvest",
      "outputs": [],
      "stateMutability": "nonpayable",
      "type": "function"
    },
    {
      "inputs": [
        {
          "internalType": "uint256",
          "name": "newValue",
          "type": "uint256"
        }
      ],
      "name": "updateMinTokensToReinvest",
      "outputs": [],
      "stateMutability": "nonpayable",
      "type": "function"
    },
    {
      "inputs": [
        {
          "internalType": "uint256",
          "name": "newValue",
          "type": "uint256"
        }
      ],
      "name": "updateReinvestReward",
      "outputs": [],
      "stateMutability": "nonpayable",
      "type": "function"
    },
    {
      "inputs": [
        {
          "internalType": "uint256",
          "name": "amount",
          "type": "uint256"
        }
      ],
      "name": "withdraw",
      "outputs": [],
      "stateMutability": "nonpayable",
      "type": "function"
    }
  ],
  "transactionHash": "0xd732007b5b8edcb3f446505d4befb927defe259136b0623472b99c2d5d21bd1f",
  "args": [
    "Yield Yak: Gondola x JLP GDL-AVAX",
    "0xfDFe62182f63000B58C70bdD39566DEc89d4006c",
    "0xB31f66AA3C1e785363F0875A1B74E27b85FD66c7",
    "0xD606199557c8Ab6F4Cc70bD03FaCc96ca576f142",
    {
      "poolReward": "0xfDFe62182f63000B58C70bdD39566DEc89d4006c",
      "token0": "0x0000000000000000000000000000000000000000",
      "token1": "0xfDFe62182f63000B58C70bdD39566DEc89d4006c"
    },
    "0x34C8712Cc527a8E6834787Bd9e3AD4F2537B0f50",
    "28",
    "0x8d36C5c6947ADCcd25Ef49Ea1aAC2ceACFff0bD7",
    {
      "minTokensToReinvest": "1000000000000000000",
      "adminFeeBips": 0,
      "devFeeBips": 600,
      "reinvestRewardBips": 100
    }
  ],
  "solcInputHash": "7079a7c4a53fe51262574707c7098703",
  "bytecode": "0x60e0604052600960a0819052685969656c642059616b60b81b60c09081526200002c9160009190620014e5565b506040805180820190915260038082526216549560ea1b60209092019182526200005991600191620014e5565b503480156200006757600080fd5b5060405162005a9338038062005a938339810160408190526200008a91620016ac565b888888888888878988888888888860000151888888886000620000b26200026160201b60201c565b600680546001600160a01b0319166001600160a01b0383169081179091556040519192509060009060008051602062005a73833981519152908290a3508851620001049060009060208c0190620014e5565b50600980546001600160a01b03808b166001600160a01b031992831617909255600a80548a84169083161790556080849052600b80548216732d580f9cf2fb2d09bc411532988f2afda4e7beff17905560128054928716929091169190911790556200017287878762000265565b6200017c620004c7565b80516200018990620005a0565b6020810151620001999062000628565b6040810151620001a990620006f6565b6060810151620001b990620007b0565b620001c560016200086a565b620001d08362000912565b7fc7606d21ac05cd309191543e409f0845c016120563783d70e4f41419dc0ef2346000806040516200020492919062001812565b60405180910390a150505050505050505062000228858888620009cc60201b60201c565b5050601780546001600160a01b0319166001600160a01b039c909c169b909b17909a555062001bac9d5050505050505050505050505050565b3390565b806001600160a01b0316630dfe16816040518163ffffffff1660e01b815260040160206040518083038186803b1580156200029f57600080fd5b505afa158015620002b4573d6000803e3d6000fd5b505050506040513d601f19601f82011682018060405250810190620002da91906200166d565b6001600160a01b0316826001600160a01b03161415620003ab57826001600160a01b0316816001600160a01b031663d21220a76040518163ffffffff1660e01b815260040160206040518083038186803b1580156200033857600080fd5b505afa1580156200034d573d6000803e3d6000fd5b505050506040513d601f19601f820116820180604052508101906200037391906200166d565b6001600160a01b031614620003a55760405162461bcd60e51b81526004016200039c9062001950565b60405180910390fd5b62000498565b806001600160a01b031663d21220a76040518163ffffffff1660e01b815260040160206040518083038186803b158015620003e557600080fd5b505afa158015620003fa573d6000803e3d6000fd5b505050506040513d601f19601f820116820180604052508101906200042091906200166d565b6001600160a01b0316826001600160a01b031614156200047e57826001600160a01b0316816001600160a01b0316630dfe16816040518163ffffffff1660e01b815260040160206040518083038186803b1580156200033857600080fd5b60405162461bcd60e51b81526004016200039c906200189d565b601380546001600160a01b039384166001600160a01b0319918216179091556014805492909316911617905550565b620004d162000261565b6001600160a01b0316620004e4620014a7565b6001600160a01b0316146200050d5760405162461bcd60e51b81526004016200039c9062001a50565b60095460125460405163095ea7b360e01b81526001600160a01b039283169263095ea7b392620005479291169060001990600401620017ee565b602060405180830381600087803b1580156200056257600080fd5b505af115801562000577573d6000803e3d6000fd5b505050506040513d601f19601f820116820180604052508101906200059d91906200168a565b50565b620005aa62000261565b6001600160a01b0316620005bd620014a7565b6001600160a01b031614620005e65760405162461bcd60e51b81526004016200039c9062001a50565b7f481f79ac3a523b6d6db3c5a720e190e986d1cc1b41adcdf50f9caef849901100600c54826040516200061b92919062001812565b60405180910390a1600c55565b6200063262000261565b6001600160a01b031662000645620014a7565b6001600160a01b0316146200066e5760405162461bcd60e51b81526004016200039c9062001a50565b612710620006a8600f546200069460115485620014b660201b62001bfc1790919060201c565b620014b660201b62001bfc1790919060201c565b1115620006b457600080fd5b7f3cc372f330f95ac9540626dc8a25f5bf21ba607215a5d58304cb804d446f104a60105482604051620006e992919062001812565b60405180910390a1601055565b6200070062000261565b6001600160a01b031662000713620014a7565b6001600160a01b0316146200073c5760405162461bcd60e51b81526004016200039c9062001a50565b61271062000762600f546200069460105485620014b660201b62001bfc1790919060201c565b11156200076e57600080fd5b7f2a42303d002f0ba6cfe8259c91d4684443fb0b3de286ba74991175d65172613160115482604051620007a392919062001812565b60405180910390a1601155565b620007ba62000261565b6001600160a01b0316620007cd620014a7565b6001600160a01b031614620007f65760405162461bcd60e51b81526004016200039c9062001a50565b6127106200081c6011546200069460105485620014b660201b62001bfc1790919060201c565b11156200082857600080fd5b7fe7f97d51d307dc44045597c9978bec0f842e6bb40d19b9444084cfa30d9ed4f2600f54826040516200085d92919062001812565b60405180910390a1600f55565b6200087462000261565b6001600160a01b031662000887620014a7565b6001600160a01b031614620008b05760405162461bcd60e51b81526004016200039c9062001a50565b600e5460ff1615158115151415620008c757600080fd5b600e805460ff19168215151790556040517f7b014ed3854e7f5cb0218d58b3c6ae7d53a68bb0af2f67bfb029ea42c38a7e85906200090790839062001807565b60405180910390a150565b6200091c62000261565b6001600160a01b03166200092f620014a7565b6001600160a01b031614620009585760405162461bcd60e51b81526004016200039c9062001a50565b6001600160a01b038116620009815760405162461bcd60e51b81526004016200039c9062001820565b6006546040516001600160a01b0380841692169060008051602062005a7383398151915290600090a3600680546001600160a01b0319166001600160a01b0392909216919091179055565b600960009054906101000a90046001600160a01b03166001600160a01b0316630dfe16816040518163ffffffff1660e01b815260040160206040518083038186803b15801562000a1b57600080fd5b505afa15801562000a30573d6000803e3d6000fd5b505050506040513d601f19601f8201168201806040525081019062000a5691906200166d565b6001600160a01b0316826001600160a01b03161415801562000b135750600960009054906101000a90046001600160a01b03166001600160a01b031663d21220a76040518163ffffffff1660e01b815260040160206040518083038186803b15801562000ac257600080fd5b505afa15801562000ad7573d6000803e3d6000fd5b505050506040513d601f19601f8201168201806040525081019062000afd91906200166d565b6001600160a01b0316826001600160a01b031614155b15620011d05760208301516001600160a01b031662000b465760405162461bcd60e51b81526004016200039c9062001a07565b60408301516001600160a01b031662000b735760405162461bcd60e51b81526004016200039c9062001ae2565b602083810151601580546001600160a01b03199081166001600160a01b03938416179182905560408088015160168054909316908516179091558051630dfe168160e01b81529051868416949290931692630dfe168192600480840193919291829003018186803b15801562000be857600080fd5b505afa15801562000bfd573d6000803e3d6000fd5b505050506040513d601f19601f8201168201806040525081019062000c2391906200166d565b6001600160a01b0316148062000cc157506015546040805163d21220a760e01b815290516001600160a01b0380861693169163d21220a7916004808301926020929190829003018186803b15801562000c7b57600080fd5b505afa15801562000c90573d6000803e3d6000fd5b505050506040513d601f19601f8201168201806040525081019062000cb691906200166d565b6001600160a01b0316145b62000ce05760405162461bcd60e51b81526004016200039c906200199c565b600960009054906101000a90046001600160a01b03166001600160a01b0316630dfe16816040518163ffffffff1660e01b815260040160206040518083038186803b15801562000d2f57600080fd5b505afa15801562000d44573d6000803e3d6000fd5b505050506040513d601f19601f8201168201806040525081019062000d6a91906200166d565b6001600160a01b0316601560009054906101000a90046001600160a01b03166001600160a01b0316630dfe16816040518163ffffffff1660e01b815260040160206040518083038186803b15801562000dc257600080fd5b505afa15801562000dd7573d6000803e3d6000fd5b505050506040513d601f19601f8201168201806040525081019062000dfd91906200166d565b6001600160a01b0316148062000f365750600960009054906101000a90046001600160a01b03166001600160a01b0316630dfe16816040518163ffffffff1660e01b815260040160206040518083038186803b15801562000e5d57600080fd5b505afa15801562000e72573d6000803e3d6000fd5b505050506040513d601f19601f8201168201806040525081019062000e9891906200166d565b6001600160a01b0316601560009054906101000a90046001600160a01b03166001600160a01b031663d21220a76040518163ffffffff1660e01b815260040160206040518083038186803b15801562000ef057600080fd5b505afa15801562000f05573d6000803e3d6000fd5b505050506040513d601f19601f8201168201806040525081019062000f2b91906200166d565b6001600160a01b0316145b62000f555760405162461bcd60e51b81526004016200039c9062001a85565b600960009054906101000a90046001600160a01b03166001600160a01b031663d21220a76040518163ffffffff1660e01b815260040160206040518083038186803b15801562000fa457600080fd5b505afa15801562000fb9573d6000803e3d6000fd5b505050506040513d601f19601f8201168201806040525081019062000fdf91906200166d565b6001600160a01b0316601660009054906101000a90046001600160a01b03166001600160a01b0316630dfe16816040518163ffffffff1660e01b815260040160206040518083038186803b1580156200103757600080fd5b505afa1580156200104c573d6000803e3d6000fd5b505050506040513d601f19601f820116820180604052508101906200107291906200166d565b6001600160a01b03161480620011ab5750600960009054906101000a90046001600160a01b03166001600160a01b031663d21220a76040518163ffffffff1660e01b815260040160206040518083038186803b158015620010d257600080fd5b505afa158015620010e7573d6000803e3d6000fd5b505050506040513d601f19601f820116820180604052508101906200110d91906200166d565b6001600160a01b0316601660009054906101000a90046001600160a01b03166001600160a01b031663d21220a76040518163ffffffff1660e01b815260040160206040518083038186803b1580156200116557600080fd5b505afa1580156200117a573d6000803e3d6000fd5b505050506040513d601f19601f82011682018060405250810190620011a091906200166d565b6001600160a01b0316145b620011ca5760405162461bcd60e51b81526004016200039c9062001b2b565b62001363565b600960009054906101000a90046001600160a01b03166001600160a01b0316630dfe16816040518163ffffffff1660e01b815260040160206040518083038186803b1580156200121f57600080fd5b505afa15801562001234573d6000803e3d6000fd5b505050506040513d601f19601f820116820180604052508101906200125a91906200166d565b6001600160a01b0316826001600160a01b031614156200129c57600954601680546001600160a01b0319166001600160a01b0390921691909117905562001363565b600960009054906101000a90046001600160a01b03166001600160a01b031663d21220a76040518163ffffffff1660e01b815260040160206040518083038186803b158015620012eb57600080fd5b505afa15801562001300573d6000803e3d6000fd5b505050506040513d601f19601f820116820180604052508101906200132691906200166d565b6001600160a01b0316826001600160a01b031614156200136357600954601580546001600160a01b0319166001600160a01b039092169190911790555b82600001516001600160a01b0316630dfe16816040518163ffffffff1660e01b815260040160206040518083038186803b158015620013a157600080fd5b505afa158015620013b6573d6000803e3d6000fd5b505050506040513d601f19601f82011682018060405250810190620013dc91906200166d565b6001600160a01b0316816001600160a01b03161415620014a257816001600160a01b031683600001516001600160a01b031663d21220a76040518163ffffffff1660e01b815260040160206040518083038186803b1580156200143e57600080fd5b505afa15801562001453573d6000803e3d6000fd5b505050506040513d601f19601f820116820180604052508101906200147991906200166d565b6001600160a01b031614620014a25760405162461bcd60e51b81526004016200039c90620018f3565b505050565b6006546001600160a01b031690565b600082820183811015620014de5760405162461bcd60e51b81526004016200039c9062001866565b9392505050565b828054600181600116156101000203166002900490600052602060002090601f016020900481019282601f106200152857805160ff191683800117855562001558565b8280016001018555821562001558579182015b82811115620015585782518255916020019190600101906200153b565b50620015669291506200156a565b5090565b5b808211156200156657600081556001016200156b565b80516001600160a01b03811681146200159957600080fd5b919050565b600060808284031215620015b0578081fd5b604051608081016001600160401b0381118282101715620015cd57fe5b8060405250809150825181526020830151602082015260408301516040820152606083015160608201525092915050565b60006060828403121562001610578081fd5b604051606081016001600160401b03811182821017156200162d57fe5b6040529050806200163e8362001581565b81526200164e6020840162001581565b6020820152620016616040840162001581565b60408201525092915050565b6000602082840312156200167f578081fd5b620014de8262001581565b6000602082840312156200169c578081fd5b81518015158114620014de578182fd5b60008060008060008060008060006101c08a8c031215620016cb578485fd5b89516001600160401b0380821115620016e2578687fd5b818c0191508c601f830112620016f6578687fd5b8151818111156200170357fe5b602091506200171b601f8201601f1916830162001b88565b8181528e838386010111156200172f578889fd5b885b828110156200174e57848101840151828201850152830162001731565b828111156200175f57898484840101525b509b506200177190508c820162001581565b995050506200178360408b0162001581565b96506200179360608b0162001581565b9550620017a48b60808c01620015fe565b9450620017b460e08b0162001581565b93506101008a01519250620017cd6101208b0162001581565b9150620017df8b6101408c016200159e565b90509295985092959850929598565b6001600160a01b03929092168252602082015260400190565b901515815260200190565b918252602082015260400190565b60208082526026908201527f4f776e61626c653a206e6577206f776e657220697320746865207a65726f206160408201526564647265737360d01b606082015260800190565b6020808252601b908201527f536166654d6174683a206164646974696f6e206f766572666c6f770000000000604082015260600190565b602080825260419082015260008051602062005a5383398151915260408201527f6f6573206e6f7420636f6e7461696e20706f6f6c2072657761726420746f6b656060820152603760f91b608082015260a00190565b6020808252603a908201527f537761702070616972207377617050616972506f6f6c52657761726420646f6560408201527f73206e6f7420636f6e7461696e2072657761726420746f6b656e000000000000606082015260800190565b6020808252603f9082015260008051602062005a5383398151915260408201527f6f6573206e6f7420636f6e7461696e2065636f73797374656d20746f6b656e00606082015260800190565b60208082526045908201527f53776170207061697220737570706c69656420646f6573206e6f74206861766560408201527f207468652072657761726420746f6b656e206173206f6e65206f662069742773606082015264103830b4b960d91b608082015260a00190565b60208082526029908201527f5377617020706169722030206973206e656365737361727920627574206e6f74604082015268081cdd5c1c1b1a595960ba1b606082015260800190565b6020808252818101527f4f776e61626c653a2063616c6c6572206973206e6f7420746865206f776e6572604082015260600190565b60208082526038908201527f537761702070616972203020737570706c69656420646f6573206e6f74206d6160408201527f74636820746865207061697220696e207175657374696f6e0000000000000000606082015260800190565b60208082526029908201527f5377617020706169722031206973206e656365737361727920627574206e6f74604082015268081cdd5c1c1b1a595960ba1b606082015260800190565b60208082526038908201527f537761702070616972203120737570706c69656420646f6573206e6f74206d6160408201527f74636820746865207061697220696e207175657374696f6e0000000000000000606082015260800190565b6040518181016001600160401b038111828210171562001ba457fe5b604052919050565b608051613e5f62001bf4600039806107a252806109515280610d275280610ed552806115065280611ed7528061218e52806123cb52806125ac52806128375250613e5f6000f3fe608060405234801561001057600080fd5b506004361061038e5760003560e01c80638b73e606116101de578063c89039c51161010f578063e21ac825116100ad578063f2fde38b1161007c578063f2fde38b146106b8578063f7c618c1146106cb578063fb7570e8146106d3578063fdb5a03e146106db5761038e565b8063e21ac82514610682578063eab89a5a14610695578063ed24911d146106a8578063ee99205c146106b05761038e565b8063da09c72c116100e9578063da09c72c1461064c578063dbd9a4d414610654578063dd62ed3e1461065c578063dd8ce4d61461066f5761038e565b8063c89039c51461061e578063cff1b6ef14610626578063d505accf146106395761038e565b8063a9059cbb1161017c578063b6b55f2511610156578063b6b55f25146105f3578063b9e57b8014610606578063bd079f551461060e578063c4b24a46146106165761038e565b8063a9059cbb146105c5578063ac0d31ff146105d8578063b52a321f146105eb5761038e565b806395d89b41116101b857806395d89b411461058f57806399729ec1146105975780639e4e7318146105aa578063a8ae2b7c146105b25761038e565b80638b73e606146105615780638da5cb5b146105745780639291d5631461057c5761038e565b80634bebd1e7116102c3578063715018a6116102615780637ecebe00116102305780637ecebe001461052057806381837230146105335780638980f11f146105465780638aff733d146105595761038e565b8063715018a6146104f5578063789139bc146104fd5780637ae26773146105055780637d882097146105185761038e565b80635e5eee1b1161029d5780635e5eee1b146104bd5780635ea682ea146104d25780635eaec0e4146104da57806370a08231146104e25761038e565b80634bebd1e7146104845780634e77ace5146104975780634ebb7916146104aa5761038e565b80632e1a7d4d11610330578063313ce5671161030a578063313ce567146104415780633bdc6e7214610456578063483c2ef01461045e5780634a970be7146104715761038e565b80632e1a7d4d146104115780632f4f21e21461042657806330adf81f146104395761038e565b80630f23475d1161036c5780630f23475d146103e657806318160ddd146103ee57806320606b70146103f657806323b872dd146103fe5761038e565b806306fdde031461039357806307677111146103b1578063095ea7b3146103c6575b600080fd5b61039b6106e3565b6040516103a891906135f1565b60405180910390f35b6103b9610771565b6040516103a8919061356a565b6103d96103d4366004613254565b610777565b6040516103a8919061355f565b6103b961078e565b6103b96107fa565b6103b9610800565b6103d961040c3660046131a7565b610824565b61042461041f366004613305565b61090b565b005b610424610434366004613254565b6109f8565b6103b9610a06565b610449610a2a565b6040516103a89190613d4d565b6103b9610a2f565b6103d961046c366004613137565b610a35565b61042461047f36600461337c565b610a4a565b610424610492366004613137565b610ae2565b6104246104a536600461327f565b610bc6565b6104246104b8366004613305565b610c64565b6104c5610d10565b6040516103a891906134b3565b6103b9610d1f565b6103b9610d25565b6103b96104f0366004613137565b610d49565b610424610d68565b6103b9610dfe565b61042461051336600461316f565b610e04565b6103b9610ecd565b6103b961052e366004613137565b610f00565b610424610541366004613305565b610f12565b610424610554366004613254565b610f91565b6103b96110a3565b61042461056f366004613137565b6110a9565b6104c56111af565b61042461058a366004613137565b6111be565b61039b61125e565b6104246105a5366004613305565b6112b8565b6103b9611366565b6104246105c0366004613305565b61138a565b6103d96105d3366004613254565b611432565b6104246105e6366004613335565b61143f565b6103d9611646565b610424610601366004613305565b61164f565b6103b961165c565b6103b961169d565b6103b96116a3565b6104c56116ae565b610424610634366004613305565b6116bd565b6104246106473660046131e7565b611765565b6104c561181a565b610424611829565b6103b961066a36600461316f565b6118f2565b6103b961067d366004613305565b61191d565b610424610690366004613305565b611957565b6103b96106a3366004613305565b6119d6565b6103b9611a07565b6104c5611a9e565b6104246106c6366004613137565b611aad565b6104c5611b7b565b6104c5611b8a565b610424611b99565b6000805460408051602060026001851615610100026000190190941693909304601f810184900484028201840190925281815292918301828280156107695780601f1061073e57610100808354040283529160200191610769565b820191906000526020600020905b81548152906001019060200180831161074c57829003601f168201915b505050505081565b60105481565b6000610784338484611c28565b5060015b92915050565b600080610799610ecd565b905060006107c67f0000000000000000000000000000000000000000000000000000000000000000611cdc565b905060006107e56107d5611ce2565b6107df8585611ce8565b90611d22565b90506107f18382611d64565b93505050505b90565b60025481565b7f8b73c3c69bb8fe3d512ecc4cf759cc79239f7b179b0ffacaa9a75d522b39400f81565b6001600160a01b03831660008181526003602090815260408083203380855292528220549192909190821480159061085e57506000198114155b156108f457600061088a856040518060600160405280602f8152602001613da6602f9139849190611da2565b6001600160a01b03808916600081815260036020908152604080832094891680845294909152908190208490555192935090917f8c5be1e5ebec7d5bd14f71427d1e84f3dd0314c0f7b2291e5b200ac8c7c3b925906108ea90859061356a565b60405180910390a3505b6108ff868686611dce565b50600195945050505050565b6000610916826119d6565b9050600081116109415760405162461bcd60e51b8152600401610938906138b1565b60405180910390fd5b61094a81611eb2565b60006109757f0000000000000000000000000000000000000000000000000000000000000000611cdc565b905060006109846107d5611ce2565b6009549091506109a7906001600160a01b0316336109a28685611d64565b611efc565b6109b13385611f98565b336001600160a01b03167f884edad9ce6fa2440d8a54cc123490eb96d2768479d49ff9c7366125a9424364846040516109ea919061356a565b60405180910390a250505050565b610a028282612072565b5050565b7f6e71edae12b1b97f4d1f60370fef10105fa2faae0126114a169c64845d6126c981565b601281565b60075481565b60086020526000908152604090205460ff1681565b6009546040517fd505accf0000000000000000000000000000000000000000000000000000000081526001600160a01b039091169063d505accf90610a9f90339030908a908a908a908a908a906004016134eb565b600060405180830381600087803b158015610ab957600080fd5b505af1158015610acd573d6000803e3d6000fd5b50505050610adb3386612072565b5050505050565b610aea61221b565b6001600160a01b0316610afb6111af565b6001600160a01b031614610b215760405162461bcd60e51b815260040161093890613a5c565b6001600160a01b03811660009081526008602052604090205460ff1615610b5a5760405162461bcd60e51b815260040161093890613789565b6001600160a01b0381166000908152600860205260409020805460ff19166001908117909155600754610b8c91611bfc565b6007556040516001600160a01b038216907fc0a1035c16faf8d1304056d92c00edf028f87e62b8235a938f00af9e3c0312c590600090a250565b610bce61221b565b6001600160a01b0316610bdf6111af565b6001600160a01b031614610c055760405162461bcd60e51b815260040161093890613a5c565b600e5460ff1615158115151415610c1b57600080fd5b600e805460ff19168215151790556040517f7b014ed3854e7f5cb0218d58b3c6ae7d53a68bb0af2f67bfb029ea42c38a7e8590610c5990839061355f565b60405180910390a150565b610c6c61221b565b6001600160a01b0316610c7d6111af565b6001600160a01b031614610ca35760405162461bcd60e51b815260040161093890613a5c565b60008111610cb057600080fd5b604051339082156108fc029083906000818181858888f19350505050158015610cdd573d6000803e3d6000fd5b507f8c1256b8896378cd5044f80c202f9772b9d77dc85c8a6eb51967210b09bfaa28600082604051610c5992919061352c565b6019546001600160a01b031681565b60115481565b7f000000000000000000000000000000000000000000000000000000000000000081565b6001600160a01b0381166000908152600460205260409020545b919050565b610d7061221b565b6001600160a01b0316610d816111af565b6001600160a01b031614610da75760405162461bcd60e51b815260040161093890613a5c565b6006546040516000916001600160a01b0316907f8be0079c531659141344cd1fd0a4f28419497f9722a3daafe3b4186f6b6457e0908390a36006805473ffffffffffffffffffffffffffffffffffffffff19169055565b600d5481565b610e0c61221b565b6001600160a01b0316610e1d6111af565b6001600160a01b031614610e435760405162461bcd60e51b815260040161093890613a5c565b60405163095ea7b360e01b81526001600160a01b0383169063095ea7b390610e7290849060009060040161352c565b602060405180830381600087803b158015610e8c57600080fd5b505af1158015610ea0573d6000803e3d6000fd5b505050506040513d601f19601f82011682018060405250810190610ec4919061329b565b610a0257600080fd5b600080610efa7f00000000000000000000000000000000000000000000000000000000000000003061221f565b91505090565b60056020526000908152604090205481565b610f1a61221b565b6001600160a01b0316610f2b6111af565b6001600160a01b031614610f515760405162461bcd60e51b815260040161093890613a5c565b7f481f79ac3a523b6d6db3c5a720e190e986d1cc1b41adcdf50f9caef849901100600c5482604051610f84929190613d07565b60405180910390a1600c55565b610f9961221b565b6001600160a01b0316610faa6111af565b6001600160a01b031614610fd05760405162461bcd60e51b815260040161093890613a5c565b60008111610fdd57600080fd5b60405163a9059cbb60e01b81526001600160a01b0383169063a9059cbb9061100b903390859060040161352c565b602060405180830381600087803b15801561102557600080fd5b505af1158015611039573d6000803e3d6000fd5b505050506040513d601f19601f8201168201806040525081019061105d919061329b565b61106657600080fd5b7f8c1256b8896378cd5044f80c202f9772b9d77dc85c8a6eb51967210b09bfaa28828260405161109792919061352c565b60405180910390a15050565b600f5481565b6110b161221b565b6001600160a01b03166110c26111af565b6001600160a01b0316146110e85760405162461bcd60e51b815260040161093890613a5c565b60006007541161110a5760405162461bcd60e51b8152600401610938906136cf565b6001600160a01b03811660009081526008602052604090205460ff1615156001146111475760405162461bcd60e51b8152600401610938906138e8565b6001600160a01b0381166000908152600860205260409020805460ff19169055600754611175906001611d64565b6007556040516001600160a01b038216907f0e86f6608b536e5339a25b65ff531f5ea91e1313d056ecd4752b35cbd16137d490600090a250565b6006546001600160a01b031690565b600b546001600160a01b031633146111e85760405162461bcd60e51b815260040161093890613bdf565b600b546040517fa8e91499ed37682f43cffb045fcc7d379a91e8c9a14e6321877ee34dee564c0091611227916001600160a01b03909116908490613545565b60405180910390a1600b805473ffffffffffffffffffffffffffffffffffffffff19166001600160a01b0392909216919091179055565b60018054604080516020600284861615610100026000190190941693909304601f810184900484028201840190925281815292918301828280156107695780601f1061073e57610100808354040283529160200191610769565b6112c061221b565b6001600160a01b03166112d16111af565b6001600160a01b0316146112f75760405162461bcd60e51b815260040161093890613a5c565b61271061131b600f5461131560105485611bfc90919063ffffffff16565b90611bfc565b111561132657600080fd5b7f2a42303d002f0ba6cfe8259c91d4684443fb0b3de286ba74991175d65172613160115482604051611359929190613d07565b60405180910390a1601155565b7fc89efdaa54c0f20c7adf612882df0950f5a951637e0307cdcb4c672f298b8bc681565b61139261221b565b6001600160a01b03166113a36111af565b6001600160a01b0316146113c95760405162461bcd60e51b815260040161093890613a5c565b6127106113e760115461131560105485611bfc90919063ffffffff16565b11156113f257600080fd5b7fe7f97d51d307dc44045597c9978bec0f842e6bb40d19b9444084cfa30d9ed4f2600f5482604051611425929190613d07565b60405180910390a1600f55565b6000610784338484611dce565b61144761221b565b6001600160a01b03166114586111af565b6001600160a01b03161461147e5760405162461bcd60e51b815260040161093890613a5c565b6009546040516370a0823160e01b81526000916001600160a01b0316906370a08231906114af9030906004016134b3565b60206040518083038186803b1580156114c757600080fd5b505afa1580156114db573d6000803e3d6000fd5b505050506040513d601f19601f820116820180604052508101906114ff919061331d565b905061152a7f00000000000000000000000000000000000000000000000000000000000000006122c2565b6009546040516370a0823160e01b81526000916001600160a01b0316906370a082319061155b9030906004016134b3565b60206040518083038186803b15801561157357600080fd5b505afa158015611587573d6000803e3d6000fd5b505050506040513d601f19601f820116820180604052508101906115ab919061331d565b9050836115b88284611d64565b10156115d65760405162461bcd60e51b8152600401610938906137c0565b7fc7606d21ac05cd309191543e409f0845c016120563783d70e4f41419dc0ef2346115ff610ecd565b600254604051611610929190613d07565b60405180910390a1600e5460ff161515600114801561163157506001831515145b15611640576116406000610bc6565b50505050565b600e5460ff1681565b6116593382612072565b50565b6000806116676116a3565b9050600c5481106116955761168d6127106107df600f5484611ce890919063ffffffff16565b9150506107f7565b600091505090565b600c5481565b6000806107f1612339565b6009546001600160a01b031681565b6116c561221b565b6001600160a01b03166116d66111af565b6001600160a01b0316146116fc5760405162461bcd60e51b815260040161093890613a5c565b61271061171a600f5461131560115485611bfc90919063ffffffff16565b111561172557600080fd5b7f3cc372f330f95ac9540626dc8a25f5bf21ba607215a5d58304cb804d446f104a60105482604051611758929190613d07565b60405180910390a1601055565b428410156117855760405162461bcd60e51b81526004016109389061387a565b6001600160a01b038716600090815260056020908152604080832080546001810190915590516117e0927f6e71edae12b1b97f4d1f60370fef10105fa2faae0126114a169c64845d6126c9928c928c928c92918c9101613573565b60405160208183030381529060405280519060200120905061180588828686866124cd565b611810888888611c28565b5050505050505050565b600b546001600160a01b031681565b61183161221b565b6001600160a01b03166118426111af565b6001600160a01b0316146118685760405162461bcd60e51b815260040161093890613a5c565b60095460125460405163095ea7b360e01b81526001600160a01b039283169263095ea7b3926118a0929116906000199060040161352c565b602060405180830381600087803b1580156118ba57600080fd5b505af11580156118ce573d6000803e3d6000fd5b505050506040513d601f19601f82011682018060405250810190611659919061329b565b6001600160a01b03918216600090815260036020908152604080832093909416825291909152205490565b600061193361192a610ecd565b60025490611ce8565b61193e575080610d63565b610788611949610ecd565b6002546107df908590611ce8565b61195f61221b565b6001600160a01b03166119706111af565b6001600160a01b0316146119965760405162461bcd60e51b815260040161093890613a5c565b7fa5dae50539d56dfe1fb5273d883b0c39bc76750a25d036fc5fbd09ad8fd5f57f600d54826040516119c9929190613d07565b60405180910390a1600d55565b60006119e361192a610ecd565b6119ef57506000610d63565b6107886002546107df611a00610ecd565b8590611ce8565b60007f8b73c3c69bb8fe3d512ecc4cf759cc79239f7b179b0ffacaa9a75d522b39400f60001b6000604051611a3c919061340d565b6040519081900390207fc89efdaa54c0f20c7adf612882df0950f5a951637e0307cdcb4c672f298b8bc6611a6e6125a3565b30604051602001611a839594939291906135a7565b60405160208183030381529060405280519060200120905090565b6017546001600160a01b031681565b611ab561221b565b6001600160a01b0316611ac66111af565b6001600160a01b031614611aec5760405162461bcd60e51b815260040161093890613a5c565b6001600160a01b038116611b125760405162461bcd60e51b815260040161093890613604565b6006546040516001600160a01b038084169216907f8be0079c531659141344cd1fd0a4f28419497f9722a3daafe3b4186f6b6457e090600090a36006805473ffffffffffffffffffffffffffffffffffffffff19166001600160a01b0392909216919091179055565b600a546001600160a01b031681565b6018546001600160a01b031681565b323314611bb85760405162461bcd60e51b815260040161093890613661565b6000806000611bc5612339565b925092509250600c54811015611bed5760405162461bcd60e51b815260040161093890613c16565b611bf782846125a7565b505050565b600082820183811015611c215760405162461bcd60e51b815260040161093890613698565b9392505050565b6001600160a01b038316611c4e5760405162461bcd60e51b815260040161093890613a91565b6001600160a01b038216611c745760405162461bcd60e51b815260040161093890613c84565b6001600160a01b0380841660008181526003602090815260408083209487168084529490915290819020849055517f8c5be1e5ebec7d5bd14f71427d1e84f3dd0314c0f7b2291e5b200ac8c7c3b92590611ccf90859061356a565b60405180910390a3505050565b50600090565b61271090565b600082611cf757506000610788565b82820282848281611d0457fe5b0414611c215760405162461bcd60e51b8152600401610938906139ff565b6000611c2183836040518060400160405280601a81526020017f536166654d6174683a206469766973696f6e206279207a65726f0000000000008152506126d8565b6000611c2183836040518060400160405280601f81526020017f536166654d6174683a207375627472616374696f6e20756e646572666c6f77008152505b60008184841115611dc65760405162461bcd60e51b815260040161093891906135f1565b505050900390565b6001600160a01b038216611df45760405162461bcd60e51b815260040161093890613ac8565b611e31816040518060600160405280602e8152602001613dfc602e91396001600160a01b0386166000908152600460205260409020549190611da2565b6001600160a01b038085166000908152600460205260408082209390935590841681522054611e609082611bfc565b6001600160a01b0380841660008181526004602052604090819020939093559151908516907fddf252ad1be2c89b69c2b068fc378daa952ba7f163c4a11628f55a4df523b3ef90611ccf90859061356a565b60008111611ed25760405162461bcd60e51b815260040161093890613b82565b6116597f00000000000000000000000000000000000000000000000000000000000000008261270f565b60405163a9059cbb60e01b81526001600160a01b0384169063a9059cbb90611f2a908590859060040161352c565b602060405180830381600087803b158015611f4457600080fd5b505af1158015611f58573d6000803e3d6000fd5b505050506040513d601f19601f82011682018060405250810190611f7c919061329b565b611bf75760405162461bcd60e51b81526004016109389061381d565b611fd581604051806060016040528060278152602001613dd5602791396001600160a01b0385166000908152600460205260409020549190611da2565b60046000846001600160a01b03166001600160a01b031681526020019081526020016000208190555061202581604051806060016040528060278152602001613d7f602791396002549190611da2565b6002556040516000906001600160a01b038416907fddf252ad1be2c89b69c2b068fc378daa952ba7f163c4a11628f55a4df523b3ef9061206690859061356a565b60405180910390a35050565b600e5460ff1615156001146120995760405162461bcd60e51b815260040161093890613c4d565b600d54156120cc5760008060006120ae612339565b925092509250600d548111156120c8576120c882846125a7565b5050505b6009546040517f23b872dd0000000000000000000000000000000000000000000000000000000081526001600160a01b03909116906323b872dd90612119903390309086906004016134c7565b602060405180830381600087803b15801561213357600080fd5b505af1158015612147573d6000803e3d6000fd5b505050506040513d601f19601f8201168201806040525081019061216b919061329b565b6121875760405162461bcd60e51b815260040161093890613b25565b60006121b27f0000000000000000000000000000000000000000000000000000000000000000611cdc565b905060006121c16107d5611ce2565b90506121d9846121d461067d8685611d64565b612790565b6121e283612812565b836001600160a01b03167fe1fffcc4923d04b559f4d29a8bfc6cda04eb5b0d3c460751c2402c5c5cc9109c846040516109ea919061356a565b3390565b6017546040517f93f1a40b0000000000000000000000000000000000000000000000000000000081526000916001600160a01b0316906393f1a40b9061226b9086908690600401613cf0565b604080518083038186803b15801561228257600080fd5b505afa158015612296573d6000803e3d6000fd5b505050506040513d601f19601f820116820180604052508101906122ba9190613359565b509392505050565b6017546040517f5312ea8e0000000000000000000000000000000000000000000000000000000081526001600160a01b0390911690635312ea8e9061230b90849060040161356a565b600060405180830381600087803b15801561232557600080fd5b505af1158015610adb573d6000803e3d6000fd5b6013546040516370a0823160e01b81526000918291829182916001600160a01b03909116906370a08231906123729030906004016134b3565b60206040518083038186803b15801561238a57600080fd5b505afa15801561239e573d6000803e3d6000fd5b505050506040513d601f19601f820116820180604052508101906123c2919061331d565b905060006123f07f00000000000000000000000000000000000000000000000000000000000000003061285c565b905060006123fe8383611bfc565b601354600a546014549293506000926124299285926001600160a01b039182169290821691166128f8565b600a546040516370a0823160e01b81529192506000916001600160a01b03909116906370a082319061245f9030906004016134b3565b60206040518083038186803b15801561247757600080fd5b505afa15801561248b573d6000803e3d6000fd5b505050506040513d601f19601f820116820180604052508101906124af919061331d565b905060006124bd8284611bfc565b9399919850929650945050505050565b60006124d7611a07565b856040516020016124e992919061347d565b60405160208183030381529060405280519060200120905060006001828686866040516000815260200160405260405161252694939291906135d3565b6020604051602081039080840390855afa158015612548573d6000803e3d6000fd5b5050604051601f1901519150506001600160a01b0381161580159061257e5750866001600160a01b0316816001600160a01b0316145b61259a5760405162461bcd60e51b81526004016109389061372c565b50505050505050565b4690565b6125d07f00000000000000000000000000000000000000000000000000000000000000006129c5565b60006125e56125de836129f8565b8490611bfc565b905060006126046127106107df60115485611ce890919063ffffffff16565b9050801561262957600a54600b54612629916001600160a01b03908116911683611efc565b60006126466127106107df600f5486611ce890919063ffffffff16565b9050801561266557600a54612665906001600160a01b03163383611efc565b600061268361267e836126788787611d64565b90611d64565b612a20565b905061268e81612812565b7fc7606d21ac05cd309191543e409f0845c016120563783d70e4f41419dc0ef2346126b7610ecd565b6002546040516126c8929190613d07565b60405180910390a1505050505050565b600081836126f95760405162461bcd60e51b815260040161093891906135f1565b50600083858161270557fe5b0495945050505050565b6017546040517f441a3e700000000000000000000000000000000000000000000000000000000081526001600160a01b039091169063441a3e709061275a9085908590600401613d07565b600060405180830381600087803b15801561277457600080fd5b505af1158015612788573d6000803e3d6000fd5b505050505050565b60025461279d9082611bfc565b6002556001600160a01b0382166000908152600460205260409020546127c39082611bfc565b6001600160a01b0383166000818152600460205260408082209390935591519091907fddf252ad1be2c89b69c2b068fc378daa952ba7f163c4a11628f55a4df523b3ef9061206690859061356a565b600081116128325760405162461bcd60e51b8152600401610938906139a2565b6116597f000000000000000000000000000000000000000000000000000000000000000082612a4f565b6017546040517f3eb181960000000000000000000000000000000000000000000000000000000081526000916001600160a01b031690633eb18196906128a89086908690600401613cf0565b60206040518083038186803b1580156128c057600080fd5b505afa1580156128d4573d6000803e3d6000fd5b505050506040513d601f19601f82011682018060405250810190611c21919061331d565b6000806129058585612a81565b509050600080846001600160a01b0316630902f1ac6040518163ffffffff1660e01b815260040160606040518083038186803b15801561294457600080fd5b505afa158015612958573d6000803e3d6000fd5b505050506040513d601f19601f8201168201806040525081019061297c91906132b7565b5091509150866001600160a01b0316836001600160a01b03161461299c57905b6129b988836001600160701b0316836001600160701b0316612ab2565b98975050505050505050565b601754604051631c57762b60e31b81526001600160a01b039091169063e2bbb1589061230b908490600090600401613d07565b601354600a546014546000926107889285926001600160a01b03928316929182169116612afa565b600a546009546015546016546000936107889386936001600160a01b0392831693918316929081169116612c8d565b601754604051631c57762b60e31b81526001600160a01b039091169063e2bbb1589061275a9085908590600401613d07565b600080826001600160a01b0316846001600160a01b031610612aa4578284612aa7565b83835b915091509250929050565b600080612ac1856103e5611ce8565b90506000612acf8285611ce8565b90506000612ae383611315886103e8611ce8565b9050612aef8282611d22565b979650505050505050565b600080612b078585612a81565b509050600080846001600160a01b0316630902f1ac6040518163ffffffff1660e01b815260040160606040518083038186803b158015612b4657600080fd5b505afa158015612b5a573d6000803e3d6000fd5b505050506040513d601f19601f82011682018060405250810190612b7e91906132b7565b5091509150866001600160a01b0316836001600160a01b031614612b9e57905b600080612bbe8a856001600160701b0316856001600160701b0316612ab2565b9050886001600160a01b0316856001600160a01b031614612bdb57905b612be689888c612e07565b604080516000815260208101918290527f022c0d9f000000000000000000000000000000000000000000000000000000009091526001600160a01b0388169063022c0d9f90612c3e9085908590309060248101613d15565b600060405180830381600087803b158015612c5857600080fd5b505af1158015612c6c573d6000803e3d6000fd5b50505050818111612c7d5781612c7f565b805b9a9950505050505050505050565b600080612c9b876002611d22565b905060008111612cbd5760405162461bcd60e51b815260040161093890613945565b6000856001600160a01b0316630dfe16816040518163ffffffff1660e01b815260040160206040518083038186803b158015612cf857600080fd5b505afa158015612d0c573d6000803e3d6000fd5b505050506040513d601f19601f82011682018060405250810190612d309190613153565b9050816001600160a01b0388811690831614612d5557612d5283898489612afa565b90505b6000876001600160a01b031663d21220a76040518163ffffffff1660e01b815260040160206040518083038186803b158015612d9057600080fd5b505afa158015612da4573d6000803e3d6000fd5b505050506040513d601f19601f82011682018060405250810190612dc89190613153565b9050836001600160a01b038a811690831614612ded57612dea858b848a612afa565b90505b612df8898483612ea3565b9b9a5050505050505050505050565b60405163a9059cbb60e01b81526001600160a01b0384169063a9059cbb90612e35908590859060040161352c565b602060405180830381600087803b158015612e4f57600080fd5b505af1158015612e63573d6000803e3d6000fd5b505050506040513d601f19601f82011682018060405250810190612e87919061329b565b611bf75760405162461bcd60e51b815260040161093890613cbb565b6000806000856001600160a01b0316630902f1ac6040518163ffffffff1660e01b815260040160606040518083038186803b158015612ee157600080fd5b505afa158015612ef5573d6000803e3d6000fd5b505050506040513d601f19601f82011682018060405250810190612f1991906132b7565b50915091506000612f3d86846001600160701b0316846001600160701b03166130f7565b905084811115612f6a57849050612f6785836001600160701b0316856001600160701b03166130f7565b95505b612fe5876001600160a01b0316630dfe16816040518163ffffffff1660e01b815260040160206040518083038186803b158015612fa657600080fd5b505afa158015612fba573d6000803e3d6000fd5b505050506040513d601f19601f82011682018060405250810190612fde9190613153565b8888612e07565b613060876001600160a01b031663d21220a76040518163ffffffff1660e01b815260040160206040518083038186803b15801561302157600080fd5b505afa158015613035573d6000803e3d6000fd5b505050506040513d601f19601f820116820180604052508101906130599190613153565b8883612e07565b6040517f6a6278420000000000000000000000000000000000000000000000000000000081526001600160a01b03881690636a627842906130a59030906004016134b3565b602060405180830381600087803b1580156130bf57600080fd5b505af11580156130d3573d6000803e3d6000fd5b505050506040513d601f19601f82011682018060405250810190612aef919061331d565b6000613107836107df8685611ce8565b949350505050565b80516001600160701b0381168114610d6357600080fd5b803560ff81168114610d6357600080fd5b600060208284031215613148578081fd5b8135611c2181613d5b565b600060208284031215613164578081fd5b8151611c2181613d5b565b60008060408385031215613181578081fd5b823561318c81613d5b565b9150602083013561319c81613d5b565b809150509250929050565b6000806000606084860312156131bb578081fd5b83356131c681613d5b565b925060208401356131d681613d5b565b929592945050506040919091013590565b600080600080600080600060e0888a031215613201578283fd5b873561320c81613d5b565b9650602088013561321c81613d5b565b9550604088013594506060880135935061323860808901613126565b925060a0880135915060c0880135905092959891949750929550565b60008060408385031215613266578182fd5b823561327181613d5b565b946020939093013593505050565b600060208284031215613290578081fd5b8135611c2181613d70565b6000602082840312156132ac578081fd5b8151611c2181613d70565b6000806000606084860312156132cb578283fd5b6132d48461310f565b92506132e26020850161310f565b9150604084015163ffffffff811681146132fa578182fd5b809150509250925092565b600060208284031215613316578081fd5b5035919050565b60006020828403121561332e578081fd5b5051919050565b60008060408385031215613347578182fd5b82359150602083013561319c81613d70565b6000806040838503121561336b578182fd5b505080516020909101519092909150565b600080600080600060a08688031215613393578283fd5b85359450602086013593506133aa60408701613126565b94979396509394606081013594506080013592915050565b60008151808452815b818110156133e7576020818501810151868301820152016133cb565b818111156133f85782602083870101525b50601f01601f19169290920160200192915050565b600080835460018082166000811461342c576001811461344357613472565b60ff198316865260028304607f1686019350613472565b600283048786526020808720875b8381101561346a5781548a820152908501908201613451565b505050860193505b509195945050505050565b7f190100000000000000000000000000000000000000000000000000000000000081526002810192909252602282015260420190565b6001600160a01b0391909116815260200190565b6001600160a01b039384168152919092166020820152604081019190915260600190565b6001600160a01b0397881681529590961660208601526040850193909352606084019190915260ff16608083015260a082015260c081019190915260e00190565b6001600160a01b03929092168252602082015260400190565b6001600160a01b0392831681529116602082015260400190565b901515815260200190565b90815260200190565b9586526001600160a01b0394851660208701529290931660408501526060840152608083019190915260a082015260c00190565b9485526020850193909352604084019190915260608301526001600160a01b0316608082015260a00190565b93845260ff9290921660208401526040830152606082015260800190565b600060208252611c2160208301846133c2565b60208082526026908201527f4f776e61626c653a206e6577206f776e657220697320746865207a65726f206160408201527f6464726573730000000000000000000000000000000000000000000000000000606082015260800190565b60208082526014908201527f59616b53747261746567793a3a6f6e6c79454f41000000000000000000000000604082015260600190565b6020808252601b908201527f536166654d6174683a206164646974696f6e206f766572666c6f770000000000604082015260600190565b60208082526034908201527f5065726d697373696f6e65643a3a72656d6f76654465706f7369746f722c206e60408201527f6f20616c6c6f776564206465706f7369746f7273000000000000000000000000606082015260800190565b60208082526024908201527f417263683a3a76616c69646174655369673a20696e76616c6964207369676e6160408201527f7475726500000000000000000000000000000000000000000000000000000000606082015260800190565b6020808252601c908201527f5065726d697373696f6e65643a3a616c6c6f774465706f7369746f7200000000604082015260600190565b60208082526029908201527f4d617374657243686566537472617465677956313a3a7265736375654465706c60408201527f6f79656446756e64730000000000000000000000000000000000000000000000606082015260800190565b6020808252602a908201527f4d617374657243686566537472617465677956313a3a5452414e534645525f4660408201527f524f4d5f4641494c454400000000000000000000000000000000000000000000606082015260800190565b6020808252600f908201527f7065726d69743a3a657870697265640000000000000000000000000000000000604082015260600190565b6020808252601e908201527f4d617374657243686566537472617465677956313a3a77697468647261770000604082015260600190565b6020808252602a908201527f5065726d697373696f6e65643a3a72656d6f76654465706f7369746f722c206e60408201527f6f7420616c6c6f77656400000000000000000000000000000000000000000000606082015260800190565b6020808252602f908201527f4465784c6962726172793a3a5f636f6e76657274526577617264546f6b656e7360408201527f546f4465706f736974546f6b656e730000000000000000000000000000000000606082015260800190565b60208082526029908201527f4d617374657243686566537472617465677956313a3a5f7374616b654465706f60408201527f736974546f6b656e730000000000000000000000000000000000000000000000606082015260800190565b60208082526021908201527f536166654d6174683a206d756c7469706c69636174696f6e206f766572666c6f60408201527f7700000000000000000000000000000000000000000000000000000000000000606082015260800190565b6020808252818101527f4f776e61626c653a2063616c6c6572206973206e6f7420746865206f776e6572604082015260600190565b6020808252601c908201527f5f617070726f76653a3a6f776e6572207a65726f206164647265737300000000604082015260600190565b60208082526034908201527f5f7472616e73666572546f6b656e733a2063616e6e6f74207472616e7366657260408201527f20746f20746865207a65726f2061646472657373000000000000000000000000606082015260800190565b60208082526025908201527f4d617374657243686566537472617465677956313a3a7472616e73666572206660408201527f61696c6564000000000000000000000000000000000000000000000000000000606082015260800190565b6020808252602c908201527f4d617374657243686566537472617465677956313a3a5f77697468647261774460408201527f65706f736974546f6b656e730000000000000000000000000000000000000000606082015260800190565b60208082526014908201527f59616b53747261746567793a3a6f6e6c79446576000000000000000000000000604082015260600190565b6020808252601e908201527f4d617374657243686566537472617465677956313a3a7265696e766573740000604082015260600190565b6020808252601e908201527f4d617374657243686566537472617465677956313a3a5f6465706f7369740000604082015260600190565b6020808252601e908201527f5f617070726f76653a3a7370656e646572207a65726f20616464726573730000604082015260600190565b6020808252818101527f4465784c6962726172793a3a5452414e534645525f46524f4d5f4641494c4544604082015260600190565b9182526001600160a01b0316602082015260400190565b918252602082015260400190565b60008582528460208301526001600160a01b038416604083015260806060830152613d4360808301846133c2565b9695505050505050565b60ff91909116815260200190565b6001600160a01b038116811461165957600080fd5b801515811461165957600080fdfe5f6275726e3a206275726e20616d6f756e74206578636565647320746f74616c20737570706c797472616e7366657246726f6d3a207472616e7366657220616d6f756e74206578636565647320616c6c6f77616e63655f6275726e3a206275726e20616d6f756e7420657863656564732066726f6d2062616c616e63655f7472616e73666572546f6b656e733a207472616e7366657220657863656564732066726f6d2062616c616e6365a2646970667358221220ad16eb4cbdca74260f97e9fe570cbfd90329440f9f39cd91f8e6a55ea494dfaf64736f6c6343000703003353776170207061697220277377617050616972506f6f6c5265776172642720648be0079c531659141344cd1fd0a4f28419497f9722a3daafe3b4186f6b6457e0",
  "devdoc": {
    "kind": "dev",
    "methods": {
      "allowDepositor(address)": {
        "params": {
          "depositor": "address"
        }
      },
      "allowance(address,address)": {
        "params": {
          "account": "The address of the account holding the funds",
          "spender": "The address of the account spending the funds"
        },
        "returns": {
          "_0": "The number of tokens approved"
        }
      },
      "approve(address,uint256)": {
        "details": "This will overwrite the approval amount for `spender` and is subject to issues noted [here](https://eips.ethereum.org/EIPS/eip-20#approve) It is recommended to use increaseAllowance and decreaseAllowance instead",
        "params": {
          "amount": "The number of tokens that are approved (2^256-1 means infinite)",
          "spender": "The address of the account which may transfer tokens"
        },
        "returns": {
          "_0": "Whether or not the approval succeeded"
        }
      },
      "balanceOf(address)": {
        "params": {
          "account": "The address of the account to get the balance of"
        },
        "returns": {
          "_0": "The number of tokens held"
        }
      },
      "checkReward()": {
        "returns": {
          "_0": "reward tokens"
        }
      },
      "deposit(uint256)": {
        "params": {
          "amount": "Amount of tokens to deposit"
        }
      },
      "depositFor(address,uint256)": {
        "details": "Must mint receipt tokens to `account`",
        "params": {
          "account": "address to receive receipt tokens",
          "amount": "deposit tokens"
        }
      },
      "depositWithPermit(uint256,uint256,uint8,bytes32,bytes32)": {
        "params": {
          "amount": "Amount of tokens to deposit",
          "deadline": "The time at which to expire the signature",
          "r": "Half of the ECDSA signature pair",
          "s": "Half of the ECDSA signature pair",
          "v": "The recovery byte of the signature"
        }
      },
      "estimateDeployedBalance()": {
        "returns": {
          "_0": "deposit tokens after withdraw fee"
        }
      },
      "estimateReinvestReward()": {
        "returns": {
          "_0": "reward tokens"
        }
      },
      "getDepositTokensForShares(uint256)": {
        "params": {
          "amount": "receipt tokens"
        },
        "returns": {
          "_0": "deposit tokens"
        }
      },
      "getDomainSeparator()": {
        "returns": {
          "_0": "Separator"
        }
      },
      "getSharesForDepositTokens(uint256)": {
        "details": "If contract is empty, use 1:1 ratioCould return zero shares for very low amounts of deposit tokens",
        "params": {
          "amount": "deposit tokens"
        },
        "returns": {
          "_0": "receipt tokens"
        }
      },
      "owner()": {
        "details": "Returns the address of the current owner."
      },
      "permit(address,address,uint256,uint256,uint8,bytes32,bytes32)": {
        "params": {
          "deadline": "The time at which to expire the signature",
          "owner": "The address to approve from",
          "r": "Half of the ECDSA signature pair",
          "s": "Half of the ECDSA signature pair",
          "spender": "The address to be approved",
          "v": "The recovery byte of the signature",
          "value": "The number of tokens that are approved (2^256-1 means infinite)"
        }
      },
      "recoverAVAX(uint256)": {
        "params": {
          "amount": "amount"
        }
      },
      "recoverERC20(address,uint256)": {
        "params": {
          "tokenAddress": "token address",
          "tokenAmount": "amount to recover"
        }
      },
      "removeDepositor(address)": {
        "params": {
          "depositor": "address"
        }
      },
      "renounceOwnership()": {
        "details": "Leaves the contract without owner. It will not be possible to call `onlyOwner` functions anymore. Can only be called by the current owner. NOTE: Renouncing ownership will leave the contract without an owner, thereby removing any functionality that is only available to the owner."
      },
      "rescueDeployedFunds(uint256,bool)": {
        "params": {
          "disableDeposits": "bool",
          "minReturnAmountAccepted": "min deposit tokens to receive"
        }
      },
      "revokeAllowance(address,address)": {
        "params": {
          "spender": "address",
          "token": "address"
        }
      },
      "setAllowances()": {
        "details": "Restricted to avoid griefing attacks"
      },
      "totalDeposits()": {
        "returns": {
          "_0": "total deposits available on the contract"
        }
      },
      "transfer(address,uint256)": {
        "params": {
          "amount": "The number of tokens to transfer",
          "dst": "The address of the destination account"
        },
        "returns": {
          "_0": "Whether or not the transfer succeeded"
        }
      },
      "transferFrom(address,address,uint256)": {
        "params": {
          "amount": "The number of tokens to transfer",
          "dst": "The address of the destination account",
          "src": "The address of the source account"
        },
        "returns": {
          "_0": "Whether or not the transfer succeeded"
        }
      },
      "transferOwnership(address)": {
        "details": "Transfers ownership of the contract to a new account (`newOwner`). Can only be called by the current owner."
      },
      "updateAdminFee(uint256)": {
        "params": {
          "newValue": "fee in BIPS"
        }
      },
      "updateDepositsEnabled(bool)": {
        "params": {
          "newValue": "bool"
        }
      },
      "updateDevAddr(address)": {
        "params": {
          "newValue": "address"
        }
      },
      "updateDevFee(uint256)": {
        "params": {
          "newValue": "fee in BIPS"
        }
      },
      "updateMaxTokensToDepositWithoutReinvest(uint256)": {
        "params": {
          "newValue": "threshold"
        }
      },
      "updateMinTokensToReinvest(uint256)": {
        "params": {
          "newValue": "threshold"
        }
      },
      "updateReinvestReward(uint256)": {
        "params": {
          "newValue": "fee in BIPS"
        }
      },
      "withdraw(uint256)": {
        "params": {
          "amount": "receipt tokens"
        }
      }
    },
    "version": 1
  },
  "userdoc": {
    "kind": "user",
    "methods": {
      "allowDepositor(address)": {
        "notice": "Add an allowed depositor"
      },
      "allowance(address,address)": {
        "notice": "Get the number of tokens `spender` is approved to spend on behalf of `account`"
      },
      "approve(address,uint256)": {
        "notice": "Approve `spender` to transfer up to `amount` from `src`"
      },
      "balanceOf(address)": {
        "notice": "Get the number of tokens held by the `account`"
      },
      "checkReward()": {
        "notice": "Reward tokens avialable to strategy, including balance"
      },
      "deposit(uint256)": {
        "notice": "Deposit tokens to receive receipt tokens"
      },
      "depositFor(address,uint256)": {
        "notice": "Deposit on behalf of another account"
      },
      "depositWithPermit(uint256,uint256,uint8,bytes32,bytes32)": {
        "notice": "Deposit using Permit"
      },
      "estimateDeployedBalance()": {
        "notice": "Estimate recoverable balance after withdraw fee"
      },
      "estimateReinvestReward()": {
        "notice": "Estimate reinvest reward"
      },
      "getDepositTokensForShares(uint256)": {
        "notice": "Calculate deposit tokens for a given amount of receipt tokens"
      },
      "getDomainSeparator()": {
        "notice": "EIP-712 Domain separator"
      },
      "getSharesForDepositTokens(uint256)": {
        "notice": "Calculate receipt tokens for a given amount of deposit tokens"
      },
      "permit(address,address,uint256,uint256,uint8,bytes32,bytes32)": {
        "notice": "Triggers an approval from owner to spender"
      },
      "recoverAVAX(uint256)": {
        "notice": "Recover AVAX from contract"
      },
      "recoverERC20(address,uint256)": {
        "notice": "Recover ERC20 from contract"
      },
      "reinvest()": {
        "notice": "Reinvest reward tokens into deposit tokens"
      },
      "removeDepositor(address)": {
        "notice": "Remove an allowed depositor"
      },
      "rescueDeployedFunds(uint256,bool)": {
        "notice": "Rescue all available deployed deposit tokens back to Strategy"
      },
      "revokeAllowance(address,address)": {
        "notice": "Revoke token allowance"
      },
      "setAllowances()": {
        "notice": "Approve tokens for use in Strategy"
      },
      "totalDeposits()": {
        "notice": "This function returns a snapshot of last available quotes"
      },
      "transfer(address,uint256)": {
        "notice": "Transfer `amount` tokens from `msg.sender` to `dst`"
      },
      "transferFrom(address,address,uint256)": {
        "notice": "Transfer `amount` tokens from `src` to `dst`"
      },
      "updateAdminFee(uint256)": {
        "notice": "Update admin fee"
      },
      "updateDepositsEnabled(bool)": {
        "notice": "Enable/disable deposits"
      },
      "updateDevAddr(address)": {
        "notice": "Update devAddr"
      },
      "updateDevFee(uint256)": {
        "notice": "Update developer fee"
      },
      "updateMaxTokensToDepositWithoutReinvest(uint256)": {
        "notice": "Update reinvest max threshold before a deposit"
      },
      "updateMinTokensToReinvest(uint256)": {
        "notice": "Update reinvest min threshold"
      },
      "updateReinvestReward(uint256)": {
        "notice": "Update reinvest reward"
      },
      "withdraw(uint256)": {
        "notice": "Redeem receipt tokens for deposit tokens"
      }
    },
    "version": 1
  },
  "storageLayout": {
    "storage": [
      {
        "astId": 14792,
        "contract": "contracts/strategies/GondolaStrategyForLPV2.sol:GondolaStrategyForLPV2",
        "label": "name",
        "offset": 0,
        "slot": "0",
        "type": "t_string_storage"
      },
      {
        "astId": 14795,
        "contract": "contracts/strategies/GondolaStrategyForLPV2.sol:GondolaStrategyForLPV2",
        "label": "symbol",
        "offset": 0,
        "slot": "1",
        "type": "t_string_storage"
      },
      {
        "astId": 14800,
        "contract": "contracts/strategies/GondolaStrategyForLPV2.sol:GondolaStrategyForLPV2",
        "label": "totalSupply",
        "offset": 0,
        "slot": "2",
        "type": "t_uint256"
      },
      {
        "astId": 14806,
        "contract": "contracts/strategies/GondolaStrategyForLPV2.sol:GondolaStrategyForLPV2",
        "label": "allowances",
        "offset": 0,
        "slot": "3",
        "type": "t_mapping(t_address,t_mapping(t_address,t_uint256))"
      },
      {
        "astId": 14810,
        "contract": "contracts/strategies/GondolaStrategyForLPV2.sol:GondolaStrategyForLPV2",
        "label": "balances",
        "offset": 0,
        "slot": "4",
        "type": "t_mapping(t_address,t_uint256)"
      },
      {
        "astId": 14826,
        "contract": "contracts/strategies/GondolaStrategyForLPV2.sol:GondolaStrategyForLPV2",
        "label": "nonces",
        "offset": 0,
        "slot": "5",
        "type": "t_mapping(t_address,t_uint256)"
      },
      {
        "astId": 23856,
        "contract": "contracts/strategies/GondolaStrategyForLPV2.sol:GondolaStrategyForLPV2",
        "label": "_owner",
        "offset": 0,
        "slot": "6",
        "type": "t_address"
      },
      {
        "astId": 23969,
        "contract": "contracts/strategies/GondolaStrategyForLPV2.sol:GondolaStrategyForLPV2",
        "label": "numberOfAllowedDepositors",
        "offset": 0,
        "slot": "7",
        "type": "t_uint256"
      },
      {
        "astId": 23973,
        "contract": "contracts/strategies/GondolaStrategyForLPV2.sol:GondolaStrategyForLPV2",
        "label": "allowedDepositors",
        "offset": 0,
        "slot": "8",
        "type": "t_mapping(t_address,t_bool)"
      },
      {
        "astId": 15965,
        "contract": "contracts/strategies/GondolaStrategyForLPV2.sol:GondolaStrategyForLPV2",
        "label": "depositToken",
        "offset": 0,
        "slot": "9",
        "type": "t_contract(IERC20)18520"
      },
      {
        "astId": 15967,
        "contract": "contracts/strategies/GondolaStrategyForLPV2.sol:GondolaStrategyForLPV2",
        "label": "rewardToken",
        "offset": 0,
        "slot": "10",
        "type": "t_contract(IERC20)18520"
      },
      {
        "astId": 15969,
        "contract": "contracts/strategies/GondolaStrategyForLPV2.sol:GondolaStrategyForLPV2",
        "label": "devAddr",
        "offset": 0,
        "slot": "11",
        "type": "t_address"
      },
      {
        "astId": 15971,
        "contract": "contracts/strategies/GondolaStrategyForLPV2.sol:GondolaStrategyForLPV2",
        "label": "MIN_TOKENS_TO_REINVEST",
        "offset": 0,
        "slot": "12",
        "type": "t_uint256"
      },
      {
        "astId": 15973,
        "contract": "contracts/strategies/GondolaStrategyForLPV2.sol:GondolaStrategyForLPV2",
        "label": "MAX_TOKENS_TO_DEPOSIT_WITHOUT_REINVEST",
        "offset": 0,
        "slot": "13",
        "type": "t_uint256"
      },
      {
        "astId": 15975,
        "contract": "contracts/strategies/GondolaStrategyForLPV2.sol:GondolaStrategyForLPV2",
        "label": "DEPOSITS_ENABLED",
        "offset": 0,
        "slot": "14",
        "type": "t_bool"
      },
      {
        "astId": 15977,
        "contract": "contracts/strategies/GondolaStrategyForLPV2.sol:GondolaStrategyForLPV2",
        "label": "REINVEST_REWARD_BIPS",
        "offset": 0,
        "slot": "15",
        "type": "t_uint256"
      },
      {
        "astId": 15979,
        "contract": "contracts/strategies/GondolaStrategyForLPV2.sol:GondolaStrategyForLPV2",
        "label": "ADMIN_FEE_BIPS",
        "offset": 0,
        "slot": "16",
        "type": "t_uint256"
      },
      {
        "astId": 15981,
        "contract": "contracts/strategies/GondolaStrategyForLPV2.sol:GondolaStrategyForLPV2",
        "label": "DEV_FEE_BIPS",
        "offset": 0,
        "slot": "17",
        "type": "t_uint256"
      },
      {
        "astId": 84782,
        "contract": "contracts/strategies/GondolaStrategyForLPV2.sol:GondolaStrategyForLPV2",
        "label": "stakingContract",
        "offset": 0,
        "slot": "18",
        "type": "t_address"
      },
      {
        "astId": 84784,
        "contract": "contracts/strategies/GondolaStrategyForLPV2.sol:GondolaStrategyForLPV2",
        "label": "poolRewardToken",
        "offset": 0,
        "slot": "19",
        "type": "t_address"
      },
      {
        "astId": 84786,
        "contract": "contracts/strategies/GondolaStrategyForLPV2.sol:GondolaStrategyForLPV2",
        "label": "swapPairPoolReward",
        "offset": 0,
        "slot": "20",
        "type": "t_contract(IPair)20750"
      },
      {
        "astId": 85682,
        "contract": "contracts/strategies/GondolaStrategyForLPV2.sol:GondolaStrategyForLPV2",
        "label": "swapPairToken0",
        "offset": 0,
        "slot": "21",
        "type": "t_address"
      },
      {
        "astId": 85684,
        "contract": "contracts/strategies/GondolaStrategyForLPV2.sol:GondolaStrategyForLPV2",
        "label": "swapPairToken1",
        "offset": 0,
        "slot": "22",
        "type": "t_address"
      },
      {
        "astId": 62718,
        "contract": "contracts/strategies/GondolaStrategyForLPV2.sol:GondolaStrategyForLPV2",
        "label": "stakingContract",
        "offset": 0,
        "slot": "23",
        "type": "t_contract(IGondolaChef)18965"
      },
      {
        "astId": 62720,
        "contract": "contracts/strategies/GondolaStrategyForLPV2.sol:GondolaStrategyForLPV2",
        "label": "nativeRewardToken",
        "offset": 0,
        "slot": "24",
        "type": "t_address"
      },
      {
        "astId": 62722,
        "contract": "contracts/strategies/GondolaStrategyForLPV2.sol:GondolaStrategyForLPV2",
        "label": "swapPairRewardToken",
        "offset": 0,
        "slot": "25",
        "type": "t_address"
      }
    ],
    "types": {
      "t_address": {
        "encoding": "inplace",
        "label": "address",
        "numberOfBytes": "20"
      },
      "t_bool": {
        "encoding": "inplace",
        "label": "bool",
        "numberOfBytes": "1"
      },
      "t_contract(IERC20)18520": {
        "encoding": "inplace",
        "label": "contract IERC20",
        "numberOfBytes": "20"
      },
      "t_contract(IGondolaChef)18965": {
        "encoding": "inplace",
        "label": "contract IGondolaChef",
        "numberOfBytes": "20"
      },
      "t_contract(IPair)20750": {
        "encoding": "inplace",
        "label": "contract IPair",
        "numberOfBytes": "20"
      },
      "t_mapping(t_address,t_bool)": {
        "encoding": "mapping",
        "key": "t_address",
        "label": "mapping(address => bool)",
        "numberOfBytes": "32",
        "value": "t_bool"
      },
      "t_mapping(t_address,t_mapping(t_address,t_uint256))": {
        "encoding": "mapping",
        "key": "t_address",
        "label": "mapping(address => mapping(address => uint256))",
        "numberOfBytes": "32",
        "value": "t_mapping(t_address,t_uint256)"
      },
      "t_mapping(t_address,t_uint256)": {
        "encoding": "mapping",
        "key": "t_address",
        "label": "mapping(address => uint256)",
        "numberOfBytes": "32",
        "value": "t_uint256"
      },
      "t_string_storage": {
        "encoding": "bytes",
        "label": "string",
        "numberOfBytes": "32"
      },
      "t_uint256": {
        "encoding": "inplace",
        "label": "uint256",
        "numberOfBytes": "32"
      }
    }
  }
}