{
  "address": "0x8DF0790E9b9f06AdD676b53136Bd9734e4916D59",
  "abi": [
    {
      "inputs": [
        {
          "internalType": "string",
          "name": "_name",
          "type": "string"
        },
        {
          "internalType": "address",
          "name": "_depositToken",
          "type": "address"
        },
        {
          "internalType": "address",
          "name": "_rewardToken",
          "type": "address"
        },
        {
          "internalType": "address",
          "name": "_stakingContract",
          "type": "address"
        },
        {
          "internalType": "address",
          "name": "_poolContract",
          "type": "address"
        },
        {
          "internalType": "address",
          "name": "_timelock",
          "type": "address"
        },
        {
          "internalType": "uint256",
          "name": "_pid",
          "type": "uint256"
        },
        {
          "internalType": "uint256",
          "name": "_minTokensToReinvest",
          "type": "uint256"
        },
        {
          "internalType": "uint256",
          "name": "_adminFeeBips",
          "type": "uint256"
        },
        {
          "internalType": "uint256",
          "name": "_devFeeBips",
          "type": "uint256"
        },
        {
          "internalType": "uint256",
          "name": "_reinvestRewardBips",
          "type": "uint256"
        }
      ],
      "stateMutability": "nonpayable",
      "type": "constructor"
    },
    {
      "anonymous": false,
      "inputs": [
        {
          "indexed": true,
          "internalType": "address",
          "name": "account",
          "type": "address"
        }
      ],
      "name": "AllowDepositor",
      "type": "event"
    },
    {
      "anonymous": false,
      "inputs": [
        {
          "indexed": true,
          "internalType": "address",
          "name": "owner",
          "type": "address"
        },
        {
          "indexed": true,
          "internalType": "address",
          "name": "spender",
          "type": "address"
        },
        {
          "indexed": false,
          "internalType": "uint256",
          "name": "value",
          "type": "uint256"
        }
      ],
      "name": "Approval",
      "type": "event"
    },
    {
      "anonymous": false,
      "inputs": [
        {
          "indexed": true,
          "internalType": "address",
          "name": "account",
          "type": "address"
        },
        {
          "indexed": false,
          "internalType": "uint256",
          "name": "amount",
          "type": "uint256"
        }
      ],
      "name": "Deposit",
      "type": "event"
    },
    {
      "anonymous": false,
      "inputs": [
        {
          "indexed": false,
          "internalType": "bool",
          "name": "newValue",
          "type": "bool"
        }
      ],
      "name": "DepositsEnabled",
      "type": "event"
    },
    {
      "anonymous": false,
      "inputs": [
        {
          "indexed": true,
          "internalType": "address",
          "name": "previousOwner",
          "type": "address"
        },
        {
          "indexed": true,
          "internalType": "address",
          "name": "newOwner",
          "type": "address"
        }
      ],
      "name": "OwnershipTransferred",
      "type": "event"
    },
    {
      "anonymous": false,
      "inputs": [
        {
          "indexed": false,
          "internalType": "address",
          "name": "token",
          "type": "address"
        },
        {
          "indexed": false,
          "internalType": "uint256",
          "name": "amount",
          "type": "uint256"
        }
      ],
      "name": "Recovered",
      "type": "event"
    },
    {
      "anonymous": false,
      "inputs": [
        {
          "indexed": false,
          "internalType": "uint256",
          "name": "newTotalDeposits",
          "type": "uint256"
        },
        {
          "indexed": false,
          "internalType": "uint256",
          "name": "newTotalSupply",
          "type": "uint256"
        }
      ],
      "name": "Reinvest",
      "type": "event"
    },
    {
      "anonymous": false,
      "inputs": [
        {
          "indexed": true,
          "internalType": "address",
          "name": "account",
          "type": "address"
        }
      ],
      "name": "RemoveDepositor",
      "type": "event"
    },
    {
      "anonymous": false,
      "inputs": [
        {
          "indexed": true,
          "internalType": "address",
          "name": "from",
          "type": "address"
        },
        {
          "indexed": true,
          "internalType": "address",
          "name": "to",
          "type": "address"
        },
        {
          "indexed": false,
          "internalType": "uint256",
          "name": "value",
          "type": "uint256"
        }
      ],
      "name": "Transfer",
      "type": "event"
    },
    {
      "anonymous": false,
      "inputs": [
        {
          "indexed": false,
          "internalType": "uint256",
          "name": "oldValue",
          "type": "uint256"
        },
        {
          "indexed": false,
          "internalType": "uint256",
          "name": "newValue",
          "type": "uint256"
        }
      ],
      "name": "UpdateAdminFee",
      "type": "event"
    },
    {
      "anonymous": false,
      "inputs": [
        {
          "indexed": false,
          "internalType": "address",
          "name": "oldValue",
          "type": "address"
        },
        {
          "indexed": false,
          "internalType": "address",
          "name": "newValue",
          "type": "address"
        }
      ],
      "name": "UpdateDevAddr",
      "type": "event"
    },
    {
      "anonymous": false,
      "inputs": [
        {
          "indexed": false,
          "internalType": "uint256",
          "name": "oldValue",
          "type": "uint256"
        },
        {
          "indexed": false,
          "internalType": "uint256",
          "name": "newValue",
          "type": "uint256"
        }
      ],
      "name": "UpdateDevFee",
      "type": "event"
    },
    {
      "anonymous": false,
      "inputs": [
        {
          "indexed": false,
          "internalType": "uint256",
          "name": "oldValue",
          "type": "uint256"
        },
        {
          "indexed": false,
          "internalType": "uint256",
          "name": "newValue",
          "type": "uint256"
        }
      ],
      "name": "UpdateMaxTokensToDepositWithoutReinvest",
      "type": "event"
    },
    {
      "anonymous": false,
      "inputs": [
        {
          "indexed": false,
          "internalType": "uint256",
          "name": "oldValue",
          "type": "uint256"
        },
        {
          "indexed": false,
          "internalType": "uint256",
          "name": "newValue",
          "type": "uint256"
        }
      ],
      "name": "UpdateMinTokensToReinvest",
      "type": "event"
    },
    {
      "anonymous": false,
      "inputs": [
        {
          "indexed": false,
          "internalType": "uint256",
          "name": "oldValue",
          "type": "uint256"
        },
        {
          "indexed": false,
          "internalType": "uint256",
          "name": "newValue",
          "type": "uint256"
        }
      ],
      "name": "UpdateReinvestReward",
      "type": "event"
    },
    {
      "anonymous": false,
      "inputs": [
        {
          "indexed": true,
          "internalType": "address",
          "name": "account",
          "type": "address"
        },
        {
          "indexed": false,
          "internalType": "uint256",
          "name": "amount",
          "type": "uint256"
        }
      ],
      "name": "Withdraw",
      "type": "event"
    },
    {
      "inputs": [],
      "name": "ADMIN_FEE_BIPS",
      "outputs": [
        {
          "internalType": "uint256",
          "name": "",
          "type": "uint256"
        }
      ],
      "stateMutability": "view",
      "type": "function"
    },
    {
      "inputs": [],
      "name": "DEPOSITS_ENABLED",
      "outputs": [
        {
          "internalType": "bool",
          "name": "",
          "type": "bool"
        }
      ],
      "stateMutability": "view",
      "type": "function"
    },
    {
      "inputs": [],
      "name": "DEV_FEE_BIPS",
      "outputs": [
        {
          "internalType": "uint256",
          "name": "",
          "type": "uint256"
        }
      ],
      "stateMutability": "view",
      "type": "function"
    },
    {
      "inputs": [],
      "name": "DOMAIN_TYPEHASH",
      "outputs": [
        {
          "internalType": "bytes32",
          "name": "",
          "type": "bytes32"
        }
      ],
      "stateMutability": "view",
      "type": "function"
    },
    {
      "inputs": [],
      "name": "MAX_TOKENS_TO_DEPOSIT_WITHOUT_REINVEST",
      "outputs": [
        {
          "internalType": "uint256",
          "name": "",
          "type": "uint256"
        }
      ],
      "stateMutability": "view",
      "type": "function"
    },
    {
      "inputs": [],
      "name": "MIN_TOKENS_TO_REINVEST",
      "outputs": [
        {
          "internalType": "uint256",
          "name": "",
          "type": "uint256"
        }
      ],
      "stateMutability": "view",
      "type": "function"
    },
    {
      "inputs": [],
      "name": "PERMIT_TYPEHASH",
      "outputs": [
        {
          "internalType": "bytes32",
          "name": "",
          "type": "bytes32"
        }
      ],
      "stateMutability": "view",
      "type": "function"
    },
    {
      "inputs": [],
      "name": "PID",
      "outputs": [
        {
          "internalType": "uint256",
          "name": "",
          "type": "uint256"
        }
      ],
      "stateMutability": "view",
      "type": "function"
    },
    {
      "inputs": [],
      "name": "REINVEST_REWARD_BIPS",
      "outputs": [
        {
          "internalType": "uint256",
          "name": "",
          "type": "uint256"
        }
      ],
      "stateMutability": "view",
      "type": "function"
    },
    {
      "inputs": [],
      "name": "VERSION_HASH",
      "outputs": [
        {
          "internalType": "bytes32",
          "name": "",
          "type": "bytes32"
        }
      ],
      "stateMutability": "view",
      "type": "function"
    },
    {
      "inputs": [
        {
          "internalType": "address",
          "name": "depositor",
          "type": "address"
        }
      ],
      "name": "allowDepositor",
      "outputs": [],
      "stateMutability": "nonpayable",
      "type": "function"
    },
    {
      "inputs": [
        {
          "internalType": "address",
          "name": "account",
          "type": "address"
        },
        {
          "internalType": "address",
          "name": "spender",
          "type": "address"
        }
      ],
      "name": "allowance",
      "outputs": [
        {
          "internalType": "uint256",
          "name": "",
          "type": "uint256"
        }
      ],
      "stateMutability": "view",
      "type": "function"
    },
    {
      "inputs": [
        {
          "internalType": "address",
          "name": "",
          "type": "address"
        }
      ],
      "name": "allowedDepositors",
      "outputs": [
        {
          "internalType": "bool",
          "name": "",
          "type": "bool"
        }
      ],
      "stateMutability": "view",
      "type": "function"
    },
    {
      "inputs": [
        {
          "internalType": "address",
          "name": "spender",
          "type": "address"
        },
        {
          "internalType": "uint256",
          "name": "amount",
          "type": "uint256"
        }
      ],
      "name": "approve",
      "outputs": [
        {
          "internalType": "bool",
          "name": "",
          "type": "bool"
        }
      ],
      "stateMutability": "nonpayable",
      "type": "function"
    },
    {
      "inputs": [
        {
          "internalType": "address",
          "name": "account",
          "type": "address"
        }
      ],
      "name": "balanceOf",
      "outputs": [
        {
          "internalType": "uint256",
          "name": "",
          "type": "uint256"
        }
      ],
      "stateMutability": "view",
      "type": "function"
    },
    {
      "inputs": [],
      "name": "checkReward",
      "outputs": [
        {
          "internalType": "uint256",
          "name": "",
          "type": "uint256"
        }
      ],
      "stateMutability": "view",
      "type": "function"
    },
    {
      "inputs": [],
      "name": "decimals",
      "outputs": [
        {
          "internalType": "uint8",
          "name": "",
          "type": "uint8"
        }
      ],
      "stateMutability": "view",
      "type": "function"
    },
    {
      "inputs": [
        {
          "internalType": "uint256",
          "name": "amount",
          "type": "uint256"
        }
      ],
      "name": "deposit",
      "outputs": [],
      "stateMutability": "nonpayable",
      "type": "function"
    },
    {
      "inputs": [
        {
          "internalType": "address",
          "name": "account",
          "type": "address"
        },
        {
          "internalType": "uint256",
          "name": "amount",
          "type": "uint256"
        }
      ],
      "name": "depositFor",
      "outputs": [],
      "stateMutability": "nonpayable",
      "type": "function"
    },
    {
      "inputs": [],
      "name": "depositToken",
      "outputs": [
        {
          "internalType": "contract IERC20",
          "name": "",
          "type": "address"
        }
      ],
      "stateMutability": "view",
      "type": "function"
    },
    {
      "inputs": [
        {
          "internalType": "uint256",
          "name": "amount",
          "type": "uint256"
        },
        {
          "internalType": "uint256",
          "name": "deadline",
          "type": "uint256"
        },
        {
          "internalType": "uint8",
          "name": "v",
          "type": "uint8"
        },
        {
          "internalType": "bytes32",
          "name": "r",
          "type": "bytes32"
        },
        {
          "internalType": "bytes32",
          "name": "s",
          "type": "bytes32"
        }
      ],
      "name": "depositWithPermit",
      "outputs": [],
      "stateMutability": "nonpayable",
      "type": "function"
    },
    {
      "inputs": [],
      "name": "devAddr",
      "outputs": [
        {
          "internalType": "address",
          "name": "",
          "type": "address"
        }
      ],
      "stateMutability": "view",
      "type": "function"
    },
    {
      "inputs": [],
      "name": "estimateDeployedBalance",
      "outputs": [
        {
          "internalType": "uint256",
          "name": "",
          "type": "uint256"
        }
      ],
      "stateMutability": "view",
      "type": "function"
    },
    {
      "inputs": [],
      "name": "estimateReinvestReward",
      "outputs": [
        {
          "internalType": "uint256",
          "name": "",
          "type": "uint256"
        }
      ],
      "stateMutability": "view",
      "type": "function"
    },
    {
      "inputs": [
        {
          "internalType": "uint256",
          "name": "amount",
          "type": "uint256"
        }
      ],
      "name": "getDepositTokensForShares",
      "outputs": [
        {
          "internalType": "uint256",
          "name": "",
          "type": "uint256"
        }
      ],
      "stateMutability": "view",
      "type": "function"
    },
    {
      "inputs": [],
      "name": "getDomainSeparator",
      "outputs": [
        {
          "internalType": "bytes32",
          "name": "",
          "type": "bytes32"
        }
      ],
      "stateMutability": "view",
      "type": "function"
    },
    {
      "inputs": [
        {
          "internalType": "uint256",
          "name": "amount",
          "type": "uint256"
        }
      ],
      "name": "getSharesForDepositTokens",
      "outputs": [
        {
          "internalType": "uint256",
          "name": "",
          "type": "uint256"
        }
      ],
      "stateMutability": "view",
      "type": "function"
    },
    {
      "inputs": [],
      "name": "name",
      "outputs": [
        {
          "internalType": "string",
          "name": "",
          "type": "string"
        }
      ],
      "stateMutability": "view",
      "type": "function"
    },
    {
      "inputs": [
        {
          "internalType": "address",
          "name": "",
          "type": "address"
        }
      ],
      "name": "nonces",
      "outputs": [
        {
          "internalType": "uint256",
          "name": "",
          "type": "uint256"
        }
      ],
      "stateMutability": "view",
      "type": "function"
    },
    {
      "inputs": [],
      "name": "numberOfAllowedDepositors",
      "outputs": [
        {
          "internalType": "uint256",
          "name": "",
          "type": "uint256"
        }
      ],
      "stateMutability": "view",
      "type": "function"
    },
    {
      "inputs": [],
      "name": "owner",
      "outputs": [
        {
          "internalType": "address",
          "name": "",
          "type": "address"
        }
      ],
      "stateMutability": "view",
      "type": "function"
    },
    {
      "inputs": [
        {
          "internalType": "address",
          "name": "owner",
          "type": "address"
        },
        {
          "internalType": "address",
          "name": "spender",
          "type": "address"
        },
        {
          "internalType": "uint256",
          "name": "value",
          "type": "uint256"
        },
        {
          "internalType": "uint256",
          "name": "deadline",
          "type": "uint256"
        },
        {
          "internalType": "uint8",
          "name": "v",
          "type": "uint8"
        },
        {
          "internalType": "bytes32",
          "name": "r",
          "type": "bytes32"
        },
        {
          "internalType": "bytes32",
          "name": "s",
          "type": "bytes32"
        }
      ],
      "name": "permit",
      "outputs": [],
      "stateMutability": "nonpayable",
      "type": "function"
    },
    {
      "inputs": [],
      "name": "poolContract",
      "outputs": [
        {
          "internalType": "contract IGondolaPool",
          "name": "",
          "type": "address"
        }
      ],
      "stateMutability": "view",
      "type": "function"
    },
    {
      "inputs": [
        {
          "internalType": "uint256",
          "name": "amount",
          "type": "uint256"
        }
      ],
      "name": "recoverAVAX",
      "outputs": [],
      "stateMutability": "nonpayable",
      "type": "function"
    },
    {
      "inputs": [
        {
          "internalType": "address",
          "name": "tokenAddress",
          "type": "address"
        },
        {
          "internalType": "uint256",
          "name": "tokenAmount",
          "type": "uint256"
        }
      ],
      "name": "recoverERC20",
      "outputs": [],
      "stateMutability": "nonpayable",
      "type": "function"
    },
    {
      "inputs": [],
      "name": "reinvest",
      "outputs": [],
      "stateMutability": "nonpayable",
      "type": "function"
    },
    {
      "inputs": [
        {
          "internalType": "address",
          "name": "depositor",
          "type": "address"
        }
      ],
      "name": "removeDepositor",
      "outputs": [],
      "stateMutability": "nonpayable",
      "type": "function"
    },
    {
      "inputs": [],
      "name": "renounceOwnership",
      "outputs": [],
      "stateMutability": "nonpayable",
      "type": "function"
    },
    {
      "inputs": [
        {
          "internalType": "uint256",
          "name": "minReturnAmountAccepted",
          "type": "uint256"
        },
        {
          "internalType": "bool",
          "name": "disableDeposits",
          "type": "bool"
        }
      ],
      "name": "rescueDeployedFunds",
      "outputs": [],
      "stateMutability": "nonpayable",
      "type": "function"
    },
    {
      "inputs": [
        {
          "internalType": "address",
          "name": "token",
          "type": "address"
        },
        {
          "internalType": "address",
          "name": "spender",
          "type": "address"
        }
      ],
      "name": "revokeAllowance",
      "outputs": [],
      "stateMutability": "nonpayable",
      "type": "function"
    },
    {
      "inputs": [],
      "name": "rewardToken",
      "outputs": [
        {
          "internalType": "contract IERC20",
          "name": "",
          "type": "address"
        }
      ],
      "stateMutability": "view",
      "type": "function"
    },
    {
      "inputs": [],
      "name": "router",
      "outputs": [
        {
          "internalType": "contract IRouter",
          "name": "",
          "type": "address"
        }
      ],
      "stateMutability": "view",
      "type": "function"
    },
    {
      "inputs": [],
      "name": "setAllowances",
      "outputs": [],
      "stateMutability": "nonpayable",
      "type": "function"
    },
    {
      "inputs": [],
      "name": "stakingContract",
      "outputs": [
        {
          "internalType": "contract IGondolaChef",
          "name": "",
          "type": "address"
        }
      ],
      "stateMutability": "view",
      "type": "function"
    },
    {
      "inputs": [],
      "name": "symbol",
      "outputs": [
        {
          "internalType": "string",
          "name": "",
          "type": "string"
        }
      ],
      "stateMutability": "view",
      "type": "function"
    },
    {
      "inputs": [],
      "name": "totalDeposits",
      "outputs": [
        {
          "internalType": "uint256",
          "name": "",
          "type": "uint256"
        }
      ],
      "stateMutability": "view",
      "type": "function"
    },
    {
      "inputs": [],
      "name": "totalSupply",
      "outputs": [
        {
          "internalType": "uint256",
          "name": "",
          "type": "uint256"
        }
      ],
      "stateMutability": "view",
      "type": "function"
    },
    {
      "inputs": [
        {
          "internalType": "address",
          "name": "dst",
          "type": "address"
        },
        {
          "internalType": "uint256",
          "name": "amount",
          "type": "uint256"
        }
      ],
      "name": "transfer",
      "outputs": [
        {
          "internalType": "bool",
          "name": "",
          "type": "bool"
        }
      ],
      "stateMutability": "nonpayable",
      "type": "function"
    },
    {
      "inputs": [
        {
          "internalType": "address",
          "name": "src",
          "type": "address"
        },
        {
          "internalType": "address",
          "name": "dst",
          "type": "address"
        },
        {
          "internalType": "uint256",
          "name": "amount",
          "type": "uint256"
        }
      ],
      "name": "transferFrom",
      "outputs": [
        {
          "internalType": "bool",
          "name": "",
          "type": "bool"
        }
      ],
      "stateMutability": "nonpayable",
      "type": "function"
    },
    {
      "inputs": [
        {
          "internalType": "address",
          "name": "newOwner",
          "type": "address"
        }
      ],
      "name": "transferOwnership",
      "outputs": [],
      "stateMutability": "nonpayable",
      "type": "function"
    },
    {
      "inputs": [
        {
          "internalType": "uint256",
          "name": "newValue",
          "type": "uint256"
        }
      ],
      "name": "updateAdminFee",
      "outputs": [],
      "stateMutability": "nonpayable",
      "type": "function"
    },
    {
      "inputs": [
        {
          "internalType": "bool",
          "name": "newValue",
          "type": "bool"
        }
      ],
      "name": "updateDepositsEnabled",
      "outputs": [],
      "stateMutability": "nonpayable",
      "type": "function"
    },
    {
      "inputs": [
        {
          "internalType": "address",
          "name": "newValue",
          "type": "address"
        }
      ],
      "name": "updateDevAddr",
      "outputs": [],
      "stateMutability": "nonpayable",
      "type": "function"
    },
    {
      "inputs": [
        {
          "internalType": "uint256",
          "name": "newValue",
          "type": "uint256"
        }
      ],
      "name": "updateDevFee",
      "outputs": [],
      "stateMutability": "nonpayable",
      "type": "function"
    },
    {
      "inputs": [
        {
          "internalType": "uint256",
          "name": "newValue",
          "type": "uint256"
        }
      ],
      "name": "updateMaxTokensToDepositWithoutReinvest",
      "outputs": [],
      "stateMutability": "nonpayable",
      "type": "function"
    },
    {
      "inputs": [
        {
          "internalType": "uint256",
          "name": "newValue",
          "type": "uint256"
        }
      ],
      "name": "updateMinTokensToReinvest",
      "outputs": [],
      "stateMutability": "nonpayable",
      "type": "function"
    },
    {
      "inputs": [
        {
          "internalType": "uint256",
          "name": "newValue",
          "type": "uint256"
        }
      ],
      "name": "updateReinvestReward",
      "outputs": [],
      "stateMutability": "nonpayable",
      "type": "function"
    },
    {
      "inputs": [
        {
          "internalType": "uint256",
          "name": "amount",
          "type": "uint256"
        }
      ],
      "name": "withdraw",
      "outputs": [],
      "stateMutability": "nonpayable",
      "type": "function"
    }
  ],
  "transactionHash": "0x78560c7c0228a58fec07755898d6923bf2c69c346b6d5df04684a4f81663c679",
  "args": [
    "Yield Yak: Gondola WBTC-zBTC",
    "0x078e3dDe72B3FeF804a5d5DBb133D537f9D9805F",
    "0xD606199557c8Ab6F4Cc70bD03FaCc96ca576f142",
    "0x34C8712Cc527a8E6834787Bd9e3AD4F2537B0f50",
    "0x6212db4C20A1870d232aaFd58c65d8B56490fDD7",
    "0x8d36C5c6947ADCcd25Ef49Ea1aAC2ceACFff0bD7",
    "13",
    "1000000000000000000",
    500,
    0,
    500
  ],
  "solcInputHash": "1770d59dd4ff77f275f352113439b167",
  "bytecode": "0x60c060405260096080819052685969656c642059616b60b81b60a09081526200002c916000919062000bb1565b506040805180820190915260038082526216549560ea1b6020909201918252620000599160019162000bb1565b503480156200006757600080fd5b5060405162004d4238038062004d4283398181016040526101608110156200008e57600080fd5b8101908080516040519392919084640100000000821115620000af57600080fd5b908301906020820185811115620000c557600080fd5b8251640100000000811182820188101715620000e057600080fd5b82525081516020918201929091019080838360005b838110156200010f578181015183820152602001620000f5565b50505050905090810190601f1680156200013d5780820380516001836020036101000a031916815260200191505b5060409081526020820151908201516060830151608084015160a085015160c086015160e087015161010088015161012089015161014090990151979a509598509396929591949093929091600062000195620002db565b600680546001600160a01b0319166001600160a01b0383169081179091556040519192509060009060008051602062004d22833981519152908290a3508a51620001e79060009060208e019062000bb1565b50600a80546001600160a01b03808d166001600160a01b031992831617909255600b80548c8416908316179055601480548b841690831617905560158054928a16928216929092179091556016869055600c8054909116331790556200024c620002df565b62000257846200062e565b6200026283620006d8565b6200026d82620007c8565b6200027881620008a4565b62000284600162000980565b6200028f8662000a46565b604080516000808252602082015281517fc7606d21ac05cd309191543e409f0845c016120563783d70e4f41419dc0ef234929181900390910190a1505050505050505050505062000c4d565b3390565b620002e9620002db565b6001600160a01b0316620002fc62000b40565b6001600160a01b03161462000347576040805162461bcd60e51b8152602060048201819052602482015260008051602062004d02833981519152604482015290519081900360640190fd5b600a546014546040805163095ea7b360e01b81526001600160a01b03928316600482015260001960248201529051919092169163095ea7b39160448083019260209291908290030181600087803b158015620003a257600080fd5b505af1158015620003b7573d6000803e3d6000fd5b505050506040513d6020811015620003ce57600080fd5b5050600b546040805163095ea7b360e01b815273e54ca86531e17ef3616d22ca28b0d458b6c891066004820152600019602482015290516001600160a01b039092169163095ea7b3916044808201926020929091908290030181600087803b1580156200043a57600080fd5b505af11580156200044f573d6000803e3d6000fd5b505050506040513d60208110156200046657600080fd5b5050600b546040805163095ea7b360e01b81527385995d5f8ee9645ca855e92de16fa62d263980606004820152600019602482015290516001600160a01b039092169163095ea7b3916044808201926020929091908290030181600087803b158015620004d257600080fd5b505af1158015620004e7573d6000803e3d6000fd5b505050506040513d6020811015620004fe57600080fd5b50506015546040805163095ea7b360e01b81526001600160a01b03909216600483015260001960248301525173408d4cd0adb7cebd1f1a1c33a0ba2098e1295bab9163095ea7b39160448083019260209291908290030181600087803b1580156200056857600080fd5b505af11580156200057d573d6000803e3d6000fd5b505050506040513d60208110156200059457600080fd5b50506015546040805163095ea7b360e01b81526001600160a01b03909216600483015260001960248301525173c4f4ff34a2e2cf5e4c892476bb2d0568711254529163095ea7b39160448083019260209291908290030181600087803b158015620005fe57600080fd5b505af115801562000613573d6000803e3d6000fd5b505050506040513d60208110156200062a57600080fd5b5050565b62000638620002db565b6001600160a01b03166200064b62000b40565b6001600160a01b03161462000696576040805162461bcd60e51b8152602060048201819052602482015260008051602062004d02833981519152604482015290519081900360640190fd5b600d54604080519182526020820183905280517f481f79ac3a523b6d6db3c5a720e190e986d1cc1b41adcdf50f9caef8499011009281900390910190a1600d55565b620006e2620002db565b6001600160a01b0316620006f562000b40565b6001600160a01b03161462000740576040805162461bcd60e51b8152602060048201819052602482015260008051602062004d02833981519152604482015290519081900360640190fd5b6127106200077a601054620007666012548562000b4f60201b620025e71790919060201c565b62000b4f60201b620025e71790919060201c565b11156200078657600080fd5b601154604080519182526020820183905280517f3cc372f330f95ac9540626dc8a25f5bf21ba607215a5d58304cb804d446f104a9281900390910190a1601155565b620007d2620002db565b6001600160a01b0316620007e562000b40565b6001600160a01b03161462000830576040805162461bcd60e51b8152602060048201819052602482015260008051602062004d02833981519152604482015290519081900360640190fd5b61271062000856601054620007666011548562000b4f60201b620025e71790919060201c565b11156200086257600080fd5b601254604080519182526020820183905280517f2a42303d002f0ba6cfe8259c91d4684443fb0b3de286ba74991175d6517261319281900390910190a1601255565b620008ae620002db565b6001600160a01b0316620008c162000b40565b6001600160a01b0316146200090c576040805162461bcd60e51b8152602060048201819052602482015260008051602062004d02833981519152604482015290519081900360640190fd5b61271062000932601254620007666011548562000b4f60201b620025e71790919060201c565b11156200093e57600080fd5b601054604080519182526020820183905280517fe7f97d51d307dc44045597c9978bec0f842e6bb40d19b9444084cfa30d9ed4f29281900390910190a1601055565b6200098a620002db565b6001600160a01b03166200099d62000b40565b6001600160a01b031614620009e8576040805162461bcd60e51b8152602060048201819052602482015260008051602062004d02833981519152604482015290519081900360640190fd5b600f5460ff1615158115151415620009ff57600080fd5b600f805482151560ff19909116811790915560408051918252517f7b014ed3854e7f5cb0218d58b3c6ae7d53a68bb0af2f67bfb029ea42c38a7e859181900360200190a150565b62000a50620002db565b6001600160a01b031662000a6362000b40565b6001600160a01b03161462000aae576040805162461bcd60e51b8152602060048201819052602482015260008051602062004d02833981519152604482015290519081900360640190fd5b6001600160a01b03811662000af55760405162461bcd60e51b815260040180806020018281038252602681526020018062004cdc6026913960400191505060405180910390fd5b6006546040516001600160a01b0380841692169060008051602062004d2283398151915290600090a3600680546001600160a01b0319166001600160a01b0392909216919091179055565b6006546001600160a01b031690565b60008282018381101562000baa576040805162461bcd60e51b815260206004820152601b60248201527f536166654d6174683a206164646974696f6e206f766572666c6f770000000000604482015290519081900360640190fd5b9392505050565b828054600181600116156101000203166002900490600052602060002090601f016020900481019282601f1062000bf457805160ff191683800117855562000c24565b8280016001018555821562000c24579182015b8281111562000c2457825182559160200191906001019062000c07565b5062000c3292915062000c36565b5090565b5b8082111562000c32576000815560010162000c37565b61407f8062000c5d6000396000f3fe608060405234801561001057600080fd5b506004361061038e5760003560e01c80638b73e606116101de578063c89039c51161010f578063e21ac825116100ad578063f2fde38b1161007c578063f2fde38b1461094f578063f7c618c114610975578063f887ea401461097d578063fdb5a03e146109855761038e565b8063e21ac82514610905578063eab89a5a14610922578063ed24911d1461093f578063ee99205c146109475761038e565b8063da09c72c116100e9578063da09c72c146108aa578063dbd9a4d4146108b2578063dd62ed3e146108ba578063dd8ce4d6146108e85761038e565b8063c89039c514610834578063cff1b6ef1461083c578063d505accf146108595761038e565b8063a9059cbb1161017c578063b6b55f2511610156578063b6b55f25146107ff578063b9e57b801461081c578063bd079f5514610824578063c4b24a461461082c5761038e565b8063a9059cbb146107a6578063ac0d31ff146107d2578063b52a321f146107f75761038e565b806395d89b41116101b857806395d89b411461075c57806399729ec1146107645780639e4e731814610781578063a8ae2b7c146107895761038e565b80638b73e606146107085780638da5cb5b1461072e5780639291d563146107365761038e565b80634bebd1e7116102c3578063789139bc116102615780638183723011610230578063818372301461069357806388d52ef7146106b05780638980f11f146106d45780638aff733d146107005761038e565b8063789139bc1461062f5780637ae26773146106375780637d882097146106655780637ecebe001461066d5761038e565b80635ea682ea1161029d5780635ea682ea146105f15780635eaec0e4146105f957806370a0823114610601578063715018a6146106275761038e565b80634bebd1e71461058f5780634e77ace5146105b55780634ebb7916146105d45761038e565b80632e1a7d4d11610330578063313ce5671161030a578063313ce5671461050b5780633bdc6e7214610529578063483c2ef0146105315780634a970be7146105575761038e565b80632e1a7d4d146104b85780632f4f21e2146104d757806330adf81f146105035761038e565b80630f23475d1161036c5780630f23475d1461046a57806318160ddd1461047257806320606b701461047a57806323b872dd146104825761038e565b806306fdde03146103935780630767711114610410578063095ea7b31461042a575b600080fd5b61039b61098d565b6040805160208082528351818301528351919283929083019185019080838360005b838110156103d55781810151838201526020016103bd565b50505050905090810190601f1680156104025780820380516001836020036101000a031916815260200191505b509250505060405180910390f35b610418610a1b565b60408051918252519081900360200190f35b6104566004803603604081101561044057600080fd5b506001600160a01b038135169060200135610a21565b604080519115158252519081900360200190f35b610418610a38565b610418610ac0565b610418610ac6565b6104566004803603606081101561049857600080fd5b506001600160a01b03813581169160208101359091169060400135610aea565b6104d5600480360360208110156104ce57600080fd5b5035610bcc565b005b6104d5600480360360408110156104ed57600080fd5b506001600160a01b038135169060200135610cf8565b610418610d02565b610513610d26565b6040805160ff9092168252519081900360200190f35b610418610d2b565b6104566004803603602081101561054757600080fd5b50356001600160a01b0316610d31565b6104d5600480360360a081101561056d57600080fd5b5080359060208101359060ff6040820135169060608101359060800135610d46565b6104d5600480360360208110156105a557600080fd5b50356001600160a01b0316610de6565b6104d5600480360360208110156105cb57600080fd5b50351515610f22565b6104d5600480360360208110156105ea57600080fd5b5035610fe1565b6104186110bd565b6104186110c3565b6104186004803603602081101561061757600080fd5b50356001600160a01b03166110c9565b6104d56110e8565b610418611194565b6104d56004803603604081101561064d57600080fd5b506001600160a01b038135811691602001351661119a565b610418611289565b6104186004803603602081101561068357600080fd5b50356001600160a01b031661128f565b6104d5600480360360208110156106a957600080fd5b50356112a1565b6106b8611345565b604080516001600160a01b039092168252519081900360200190f35b6104d5600480360360408110156106ea57600080fd5b506001600160a01b038135169060200135611354565b61041861148f565b6104d56004803603602081101561071e57600080fd5b50356001600160a01b0316611495565b6106b86115fc565b6104d56004803603602081101561074c57600080fd5b50356001600160a01b031661160b565b61039b61168c565b6104d56004803603602081101561077a57600080fd5b50356116e6565b6104186117b9565b6104d56004803603602081101561079f57600080fd5b50356117dd565b610456600480360360408110156107bc57600080fd5b506001600160a01b0381351690602001356118aa565b6104d5600480360360408110156107e857600080fd5b508035906020013515156118b7565b610456611b2f565b6104d56004803603602081101561081557600080fd5b5035611b38565b610418611b45565b610418611b8c565b610418611b92565b6106b8611ca8565b6104d56004803603602081101561085257600080fd5b5035611cb7565b6104d5600480360360e081101561086f57600080fd5b506001600160a01b03813581169160208101359091169060408101359060608101359060ff6080820135169060a08101359060c00135611d84565b6106b8611e76565b6104d5611e85565b610418600480360360408110156108d057600080fd5b506001600160a01b03813581169160200135166121bb565b610418600480360360208110156108fe57600080fd5b50356121e6565b6104d56004803603602081101561091b57600080fd5b5035612225565b6104186004803603602081101561093857600080fd5b50356122c9565b610418612309565b6106b8612416565b6104d56004803603602081101561096557600080fd5b50356001600160a01b0316612425565b6106b8612528565b6106b8612537565b6104d5612546565b6000805460408051602060026001851615610100026000190190941693909304601f81018490048402820184019092528181529291830182828015610a135780601f106109e857610100808354040283529160200191610a13565b820191906000526020600020905b8154815290600101906020018083116109f657829003601f168201915b505050505081565b60115481565b6000610a2e338484612648565b5060015b92915050565b601454601654604080516393f1a40b60e01b81526004810192909252306024830152805160009384936001600160a01b03909116926393f1a40b92604480840193829003018186803b158015610a8d57600080fd5b505afa158015610aa1573d6000803e3d6000fd5b505050506040513d6040811015610ab757600080fd5b50519150505b90565b60025481565b7f8b73c3c69bb8fe3d512ecc4cf759cc79239f7b179b0ffacaa9a75d522b39400f81565b6001600160a01b038316600081815260036020908152604080832033808552925282205491929091908214801590610b2457506000198114155b15610bb5576000610b50856040518060600160405280602f8152602001613ef9602f9139849190612760565b6001600160a01b0380891660008181526003602090815260408083209489168084529482529182902085905581518581529151949550929391927f8c5be1e5ebec7d5bd14f71427d1e84f3dd0314c0f7b2291e5b200ac8c7c3b92592918290030190a3505b610bc08686866127f7565b50600195945050505050565b6000610bd7826122c9565b90508015610cf457610be881612904565b600a546040805163a9059cbb60e01b81523360048201526024810184905290516001600160a01b039092169163a9059cbb916044808201926020929091908290030181600087803b158015610c3c57600080fd5b505af1158015610c50573d6000803e3d6000fd5b505050506040513d6020811015610c6657600080fd5b5051610ca35760405162461bcd60e51b8152600401808060200182810382526026815260200180613de06026913960400191505060405180910390fd5b610cad33836129ae565b600954610cba9082612a83565b60095560408051828152905133917f884edad9ce6fa2440d8a54cc123490eb96d2768479d49ff9c7366125a9424364919081900360200190a25b5050565b610cf48282612ac5565b7f6e71edae12b1b97f4d1f60370fef10105fa2faae0126114a169c64845d6126c981565b601281565b60075481565b60086020526000908152604090205460ff1681565b600a546040805163d505accf60e01b8152336004820152306024820152604481018890526064810187905260ff8616608482015260a4810185905260c4810184905290516001600160a01b039092169163d505accf9160e48082019260009290919082900301818387803b158015610dbd57600080fd5b505af1158015610dd1573d6000803e3d6000fd5b50505050610ddf3386612ac5565b5050505050565b610dee612c31565b6001600160a01b0316610dff6115fc565b6001600160a01b031614610e48576040805162461bcd60e51b81526020600482018190526024820152600080516020613e74833981519152604482015290519081900360640190fd5b6001600160a01b03811660009081526008602052604090205460ff1615610eb6576040805162461bcd60e51b815260206004820152601c60248201527f5065726d697373696f6e65643a3a616c6c6f774465706f7369746f7200000000604482015290519081900360640190fd5b6001600160a01b0381166000908152600860205260409020805460ff19166001908117909155600754610ee8916125e7565b6007556040516001600160a01b038216907fc0a1035c16faf8d1304056d92c00edf028f87e62b8235a938f00af9e3c0312c590600090a250565b610f2a612c31565b6001600160a01b0316610f3b6115fc565b6001600160a01b031614610f84576040805162461bcd60e51b81526020600482018190526024820152600080516020613e74833981519152604482015290519081900360640190fd5b600f5460ff1615158115151415610f9a57600080fd5b600f805482151560ff19909116811790915560408051918252517f7b014ed3854e7f5cb0218d58b3c6ae7d53a68bb0af2f67bfb029ea42c38a7e859181900360200190a150565b610fe9612c31565b6001600160a01b0316610ffa6115fc565b6001600160a01b031614611043576040805162461bcd60e51b81526020600482018190526024820152600080516020613e74833981519152604482015290519081900360640190fd5b6000811161105057600080fd5b604051339082156108fc029083906000818181858888f1935050505015801561107d573d6000803e3d6000fd5b5060408051600081526020810183905281517f8c1256b8896378cd5044f80c202f9772b9d77dc85c8a6eb51967210b09bfaa28929181900390910190a150565b60125481565b60165481565b6001600160a01b0381166000908152600460205260409020545b919050565b6110f0612c31565b6001600160a01b03166111016115fc565b6001600160a01b03161461114a576040805162461bcd60e51b81526020600482018190526024820152600080516020613e74833981519152604482015290519081900360640190fd5b6006546040516000916001600160a01b0316907f8be0079c531659141344cd1fd0a4f28419497f9722a3daafe3b4186f6b6457e0908390a3600680546001600160a01b0319169055565b600e5481565b6111a2612c31565b6001600160a01b03166111b36115fc565b6001600160a01b0316146111fc576040805162461bcd60e51b81526020600482018190526024820152600080516020613e74833981519152604482015290519081900360640190fd5b816001600160a01b031663095ea7b38260006040518363ffffffff1660e01b815260040180836001600160a01b0316815260200182815260200192505050602060405180830381600087803b15801561125457600080fd5b505af1158015611268573d6000803e3d6000fd5b505050506040513d602081101561127e57600080fd5b5051610cf457600080fd5b60095481565b60056020526000908152604090205481565b6112a9612c31565b6001600160a01b03166112ba6115fc565b6001600160a01b031614611303576040805162461bcd60e51b81526020600482018190526024820152600080516020613e74833981519152604482015290519081900360640190fd5b600d54604080519182526020820183905280517f481f79ac3a523b6d6db3c5a720e190e986d1cc1b41adcdf50f9caef8499011009281900390910190a1600d55565b6015546001600160a01b031681565b61135c612c31565b6001600160a01b031661136d6115fc565b6001600160a01b0316146113b6576040805162461bcd60e51b81526020600482018190526024820152600080516020613e74833981519152604482015290519081900360640190fd5b600081116113c357600080fd5b6040805163a9059cbb60e01b81523360048201526024810183905290516001600160a01b0384169163a9059cbb9160448083019260209291908290030181600087803b15801561141257600080fd5b505af1158015611426573d6000803e3d6000fd5b505050506040513d602081101561143c57600080fd5b505161144757600080fd5b604080516001600160a01b03841681526020810183905281517f8c1256b8896378cd5044f80c202f9772b9d77dc85c8a6eb51967210b09bfaa28929181900390910190a15050565b60105481565b61149d612c31565b6001600160a01b03166114ae6115fc565b6001600160a01b0316146114f7576040805162461bcd60e51b81526020600482018190526024820152600080516020613e74833981519152604482015290519081900360640190fd5b6000600754116115385760405162461bcd60e51b8152600401808060200182810382526034815260200180613d2a6034913960400191505060405180910390fd5b6001600160a01b03811660009081526008602052604090205460ff1615156001146115945760405162461bcd60e51b815260040180806020018281038252602a815260200180613db6602a913960400191505060405180910390fd5b6001600160a01b0381166000908152600860205260409020805460ff191690556007546115c2906001612a83565b6007556040516001600160a01b038216907f0e86f6608b536e5339a25b65ff531f5ea91e1313d056ecd4752b35cbd16137d490600090a250565b6006546001600160a01b031690565b600c546001600160a01b0316331461162257600080fd5b600c54604080516001600160a01b039283168152918316602083015280517fa8e91499ed37682f43cffb045fcc7d379a91e8c9a14e6321877ee34dee564c009281900390910190a1600c80546001600160a01b0319166001600160a01b0392909216919091179055565b60018054604080516020600284861615610100026000190190941693909304601f81018490048402820184019092528181529291830182828015610a135780601f106109e857610100808354040283529160200191610a13565b6116ee612c31565b6001600160a01b03166116ff6115fc565b6001600160a01b031614611748576040805162461bcd60e51b81526020600482018190526024820152600080516020613e74833981519152604482015290519081900360640190fd5b61271061176c601054611766601154856125e790919063ffffffff16565b906125e7565b111561177757600080fd5b601254604080519182526020820183905280517f2a42303d002f0ba6cfe8259c91d4684443fb0b3de286ba74991175d6517261319281900390910190a1601255565b7fc89efdaa54c0f20c7adf612882df0950f5a951637e0307cdcb4c672f298b8bc681565b6117e5612c31565b6001600160a01b03166117f66115fc565b6001600160a01b03161461183f576040805162461bcd60e51b81526020600482018190526024820152600080516020613e74833981519152604482015290519081900360640190fd5b61271061185d601254611766601154856125e790919063ffffffff16565b111561186857600080fd5b601054604080519182526020820183905280517fe7f97d51d307dc44045597c9978bec0f842e6bb40d19b9444084cfa30d9ed4f29281900390910190a1601055565b6000610a2e3384846127f7565b6118bf612c31565b6001600160a01b03166118d06115fc565b6001600160a01b031614611919576040805162461bcd60e51b81526020600482018190526024820152600080516020613e74833981519152604482015290519081900360640190fd5b600a54604080516370a0823160e01b815230600482015290516000926001600160a01b0316916370a08231916024808301926020929190829003018186803b15801561196457600080fd5b505afa158015611978573d6000803e3d6000fd5b505050506040513d602081101561198e57600080fd5b505160145460165460408051632989754760e11b81526004810192909252519293506001600160a01b0390911691635312ea8e9160248082019260009290919082900301818387803b1580156119e357600080fd5b505af11580156119f7573d6000803e3d6000fd5b5050600a54604080516370a0823160e01b81523060048201529051600094506001600160a01b0390921692506370a08231916024808301926020929190829003018186803b158015611a4857600080fd5b505afa158015611a5c573d6000803e3d6000fd5b505050506040513d6020811015611a7257600080fd5b5051905083611a818284612a83565b1015611abe5760405162461bcd60e51b8152600401808060200182810382526031815260200180613fbc6031913960400191505060405180910390fd5b600981905560025460408051838152602081019290925280517fc7606d21ac05cd309191543e409f0845c016120563783d70e4f41419dc0ef2349281900390910190a1600f5460ff1615156001148015611b1a57506001831515145b15611b2957611b296000610f22565b50505050565b600f5460ff1681565b611b423382612ac5565b50565b600080611b50611b92565b9050600d548110611b8457611b7c612710611b7660105484612c3590919063ffffffff16565b90612c8e565b915050610abd565b600091505090565b600d5481565b60145460165460408051631f58c0cb60e11b815260048101929092523060248301525160009283926001600160a01b0390911691633eb1819691604480820192602092909190829003018186803b158015611bec57600080fd5b505afa158015611c00573d6000803e3d6000fd5b505050506040513d6020811015611c1657600080fd5b5051600b54604080516370a0823160e01b815230600482015290519293506000926001600160a01b03909216916370a0823191602480820192602092909190829003018186803b158015611c6957600080fd5b505afa158015611c7d573d6000803e3d6000fd5b505050506040513d6020811015611c9357600080fd5b50519050611ca182826125e7565b9250505090565b600a546001600160a01b031681565b611cbf612c31565b6001600160a01b0316611cd06115fc565b6001600160a01b031614611d19576040805162461bcd60e51b81526020600482018190526024820152600080516020613e74833981519152604482015290519081900360640190fd5b612710611d37601054611766601254856125e790919063ffffffff16565b1115611d4257600080fd5b601154604080519182526020820183905280517f3cc372f330f95ac9540626dc8a25f5bf21ba607215a5d58304cb804d446f104a9281900390910190a1601155565b42841015611dcb576040805162461bcd60e51b815260206004820152600f60248201526e1c195c9b5a5d0e8e995e1c1a5c9959608a1b604482015290519081900360640190fd5b6001600160a01b0380881660008181526005602090815260409182902080546001810190915582517f6e71edae12b1b97f4d1f60370fef10105fa2faae0126114a169c64845d6126c98184015280840194909452938a1660608401526080830189905260a083019390935260c08083018890528151808403909101815260e090920190528051910120611e618882868686612cd0565b611e6c888888612648565b5050505050505050565b600c546001600160a01b031681565b611e8d612c31565b6001600160a01b0316611e9e6115fc565b6001600160a01b031614611ee7576040805162461bcd60e51b81526020600482018190526024820152600080516020613e74833981519152604482015290519081900360640190fd5b600a546014546040805163095ea7b360e01b81526001600160a01b03928316600482015260001960248201529051919092169163095ea7b39160448083019260209291908290030181600087803b158015611f4157600080fd5b505af1158015611f55573d6000803e3d6000fd5b505050506040513d6020811015611f6b57600080fd5b5050600b546040805163095ea7b360e01b815273e54ca86531e17ef3616d22ca28b0d458b6c891066004820152600019602482015290516001600160a01b039092169163095ea7b3916044808201926020929091908290030181600087803b158015611fd657600080fd5b505af1158015611fea573d6000803e3d6000fd5b505050506040513d602081101561200057600080fd5b5050600b546040805163095ea7b360e01b81527385995d5f8ee9645ca855e92de16fa62d263980606004820152600019602482015290516001600160a01b039092169163095ea7b3916044808201926020929091908290030181600087803b15801561206b57600080fd5b505af115801561207f573d6000803e3d6000fd5b505050506040513d602081101561209557600080fd5b50506015546040805163095ea7b360e01b81526001600160a01b03909216600483015260001960248301525173408d4cd0adb7cebd1f1a1c33a0ba2098e1295bab9163095ea7b39160448083019260209291908290030181600087803b1580156120fe57600080fd5b505af1158015612112573d6000803e3d6000fd5b505050506040513d602081101561212857600080fd5b50506015546040805163095ea7b360e01b81526001600160a01b03909216600483015260001960248301525173c4f4ff34a2e2cf5e4c892476bb2d0568711254529163095ea7b39160448083019260209291908290030181600087803b15801561219157600080fd5b505af11580156121a5573d6000803e3d6000fd5b505050506040513d6020811015610cf457600080fd5b6001600160a01b03918216600090815260036020908152604080832093909416825291909152205490565b60006121ff600954600254612c3590919063ffffffff16565b61220a5750806110e3565b610a32600954611b7660025485612c3590919063ffffffff16565b61222d612c31565b6001600160a01b031661223e6115fc565b6001600160a01b031614612287576040805162461bcd60e51b81526020600482018190526024820152600080516020613e74833981519152604482015290519081900360640190fd5b600e54604080519182526020820183905280517fa5dae50539d56dfe1fb5273d883b0c39bc76750a25d036fc5fbd09ad8fd5f57f9281900390910190a1600e55565b60006122e2600954600254612c3590919063ffffffff16565b6122ee575060006110e3565b610a32600254611b7660095485612c3590919063ffffffff16565b60007f8b73c3c69bb8fe3d512ecc4cf759cc79239f7b179b0ffacaa9a75d522b39400f60001b6000604051808280546001816001161561010002031660029004801561238c5780601f1061236a57610100808354040283529182019161238c565b820191906000526020600020905b815481529060010190602001808311612378575b505091505060405180910390207fc89efdaa54c0f20c7adf612882df0950f5a951637e0307cdcb4c672f298b8bc660001b6123c5612ded565b3060405160200180868152602001858152602001848152602001838152602001826001600160a01b031681526020019550505050505060405160208183030381529060405280519060200120905090565b6014546001600160a01b031681565b61242d612c31565b6001600160a01b031661243e6115fc565b6001600160a01b031614612487576040805162461bcd60e51b81526020600482018190526024820152600080516020613e74833981519152604482015290519081900360640190fd5b6001600160a01b0381166124cc5760405162461bcd60e51b8152600401808060200182810382526026815260200180613d046026913960400191505060405180910390fd5b6006546040516001600160a01b038084169216907f8be0079c531659141344cd1fd0a4f28419497f9722a3daafe3b4186f6b6457e090600090a3600680546001600160a01b0319166001600160a01b0392909216919091179055565b600b546001600160a01b031681565b6013546001600160a01b031681565b323314612591576040805162461bcd60e51b815260206004820152601460248201527359616b53747261746567793a3a6f6e6c79454f4160601b604482015290519081900360640190fd5b600061259b611b92565b9050600d548110156125de5760405162461bcd60e51b8152600401808060200182810382526026815260200180613e2d6026913960400191505060405180910390fd5b611b4281612df1565b600082820183811015612641576040805162461bcd60e51b815260206004820152601b60248201527f536166654d6174683a206164646974696f6e206f766572666c6f770000000000604482015290519081900360640190fd5b9392505050565b6001600160a01b0383166126a3576040805162461bcd60e51b815260206004820152601c60248201527f5f617070726f76653a3a6f776e6572207a65726f206164647265737300000000604482015290519081900360640190fd5b6001600160a01b0382166126fe576040805162461bcd60e51b815260206004820152601e60248201527f5f617070726f76653a3a7370656e646572207a65726f20616464726573730000604482015290519081900360640190fd5b6001600160a01b03808416600081815260036020908152604080832094871680845294825291829020859055815185815291517f8c5be1e5ebec7d5bd14f71427d1e84f3dd0314c0f7b2291e5b200ac8c7c3b9259281900390910190a3505050565b600081848411156127ef5760405162461bcd60e51b81526004018080602001828103825283818151815260200191508051906020019080838360005b838110156127b457818101518382015260200161279c565b50505050905090810190601f1680156127e15780820380516001836020036101000a031916815260200191505b509250505060405180910390fd5b505050900390565b6001600160a01b03821661283c5760405162461bcd60e51b8152600401808060200182810382526034815260200180613e946034913960400191505060405180910390fd5b612879816040518060600160405280602e815260200161401c602e91396001600160a01b0386166000908152600460205260409020549190612760565b6001600160a01b0380851660009081526004602052604080822093909355908416815220546128a890826125e7565b6001600160a01b0380841660008181526004602090815260409182902094909455805185815290519193928716927fddf252ad1be2c89b69c2b068fc378daa952ba7f163c4a11628f55a4df523b3ef92918290030190a3505050565b600081116129435760405162461bcd60e51b8152600401808060200182810382526034815260200180613d826034913960400191505060405180910390fd5b60145460165460408051630441a3e760e41b8152600481019290925260248201849052516001600160a01b039092169163441a3e709160448082019260009290919082900301818387803b15801561299a57600080fd5b505af1158015610ddf573d6000803e3d6000fd5b6129eb81604051806060016040528060278152602001613f95602791396001600160a01b0385166000908152600460205260409020549190612760565b60046000846001600160a01b03166001600160a01b0316815260200190815260200160002081905550612a3b81604051806060016040528060278152602001613e06602791396002549190612760565b6002556040805182815290516000916001600160a01b038516917fddf252ad1be2c89b69c2b068fc378daa952ba7f163c4a11628f55a4df523b3ef9181900360200190a35050565b600061264183836040518060400160405280601f81526020017f536166654d6174683a207375627472616374696f6e20756e646572666c6f7700815250612760565b600f5460ff161515600114612b0b5760405162461bcd60e51b8152600401808060200182810382526026815260200180613cde6026913960400191505060405180910390fd5b600e5415612b34576000612b1d611b92565b9050600e54811115612b3257612b3281612df1565b505b600a54604080516323b872dd60e01b81523360048201523060248201526044810184905290516001600160a01b03909216916323b872dd916064808201926020929091908290030181600087803b158015612b8e57600080fd5b505af1158015612ba2573d6000803e3d6000fd5b505050506040513d6020811015612bb857600080fd5b5051612bc357600080fd5b612bcc81613192565b612bde82612bd9836121e6565b613228565b600954612beb90826125e7565b6009556040805182815290516001600160a01b038416917fe1fffcc4923d04b559f4d29a8bfc6cda04eb5b0d3c460751c2402c5c5cc9109c919081900360200190a25050565b3390565b600082612c4457506000610a32565b82820282848281612c5157fe5b04146126415760405162461bcd60e51b8152600401808060200182810382526021815260200180613e536021913960400191505060405180910390fd5b600061264183836040518060400160405280601a81526020017f536166654d6174683a206469766973696f6e206279207a65726f0000000000008152506132b3565b6000612cda612309565b85604051602001808061190160f01b81525060020183815260200182815260200192505050604051602081830303815290604052805190602001209050600060018286868660405160008152602001604052604051808581526020018460ff1681526020018381526020018281526020019450505050506020604051602081039080840390855afa158015612d73573d6000803e3d6000fd5b5050604051601f1901519150506001600160a01b03811615801590612da95750866001600160a01b0316816001600160a01b0316145b612de45760405162461bcd60e51b8152600401808060200182810382526024815260200180613d5e6024913960400191505060405180910390fd5b50505050505050565b4690565b60145460165460408051631c57762b60e31b8152600481019290925260006024830181905290516001600160a01b039093169263e2bbb15892604480820193929182900301818387803b158015612e4757600080fd5b505af1158015612e5b573d6000803e3d6000fd5b505050506000612e7c612710611b7660125485612c3590919063ffffffff16565b90508015612f4457600b54600c546040805163a9059cbb60e01b81526001600160a01b039283166004820152602481018590529051919092169163a9059cbb9160448083019260209291908290030181600087803b158015612edd57600080fd5b505af1158015612ef1573d6000803e3d6000fd5b505050506040513d6020811015612f0757600080fd5b5051612f445760405162461bcd60e51b815260040180806020018281038252602c815260200180613f69602c913960400191505060405180910390fd5b6000612f61612710611b7660115486612c3590919063ffffffff16565b9050801561303057600b546001600160a01b031663a9059cbb612f826115fc565b836040518363ffffffff1660e01b815260040180836001600160a01b0316815260200182815260200192505050602060405180830381600087803b158015612fc957600080fd5b505af1158015612fdd573d6000803e3d6000fd5b505050506040513d6020811015612ff357600080fd5b50516130305760405162461bcd60e51b815260040180806020018281038252602e815260200180613cb0602e913960400191505060405180910390fd5b600061304d612710611b7660105487612c3590919063ffffffff16565b9050801561311057600b546040805163a9059cbb60e01b81523360048201526024810184905290516001600160a01b039092169163a9059cbb916044808201926020929091908290030181600087803b1580156130a957600080fd5b505af11580156130bd573d6000803e3d6000fd5b505050506040513d60208110156130d357600080fd5b50516131105760405162461bcd60e51b815260040180806020018281038252602f815260200180613fed602f913960400191505060405180910390fd5b600061313061312b8361312586818a8a612a83565b90612a83565b613318565b905061313b81613192565b60095461314890826125e7565b600981905560025460408051928352602083019190915280517fc7606d21ac05cd309191543e409f0845c016120563783d70e4f41419dc0ef2349281900390910190a15050505050565b600081116131d15760405162461bcd60e51b8152600401808060200182810382526031815260200180613ec86031913960400191505060405180910390fd5b60145460165460408051631c57762b60e31b8152600481019290925260248201849052516001600160a01b039092169163e2bbb1589160448082019260009290919082900301818387803b15801561299a57600080fd5b60025461323590826125e7565b6002556001600160a01b03821660009081526004602052604090205461325b90826125e7565b6001600160a01b03831660008181526004602090815260408083209490945583518581529351929391927fddf252ad1be2c89b69c2b068fc378daa952ba7f163c4a11628f55a4df523b3ef9281900390910190a35050565b600081836133025760405162461bcd60e51b81526020600482018181528351602484015283519092839260449091019190850190808383600083156127b457818101518382015260200161279c565b50600083858161330e57fe5b0495945050505050565b60008082116133585760405162461bcd60e51b8152600401808060200182810382526041815260200180613f286041913960600191505060405180910390fd5b604080516002808252606080830184526000939092919060208301908036833750506040805160038082526080820190925292935060609291506020820183803683375050600b5482519293506001600160a01b0316918391506000906133bb57fe5b6001600160a01b03928316602091820292909201810191909152601554604080516391ceb3eb60e01b815260016004820152905191909316926391ceb3eb926024808301939192829003018186803b15801561341657600080fd5b505afa15801561342a573d6000803e3d6000fd5b505050506040513d602081101561344057600080fd5b5051601554604080516391ceb3eb60e01b81526000600482015290516001600160a01b03909216916391ceb3eb91602480820192602092909190829003018186803b15801561348e57600080fd5b505afa1580156134a2573d6000803e3d6000fd5b505050506040513d60208110156134b857600080fd5b505110156138505773b31f66aa3c1e785363f0875a1b74e27b85fd66c7816001815181106134e257fe5b60200260200101906001600160a01b031690816001600160a01b03168152505073408d4cd0adb7cebd1f1a1c33a0ba2098e1295bab8160028151811061352457fe5b6001600160a01b039092166020928302919091018201526040805163d06ca61f60e01b8152600481018881526024820192835284516044830152845173e54ca86531e17ef3616d22ca28b0d458b6c891069750606094889463d06ca61f948c9489949093606490920191858101910280838360005b838110156135b1578181015183820152602001613599565b50505050905001935050505060006040518083038186803b1580156135d557600080fd5b505afa1580156135e9573d6000803e3d6000fd5b505050506040513d6000823e601f3d908101601f19168201604052602081101561361257600080fd5b8101908080516040519392919084600160201b82111561363157600080fd5b90830190602082018581111561364657600080fd5b82518660208202830111600160201b8211171561366257600080fd5b82525081516020918201928201910280838360005b8381101561368f578181015183820152602001613677565b5050505090500160405250505090506000816001835103815181106136b057fe5b60200260200101519050846001600160a01b03166338ed173988838630426040518663ffffffff1660e01b81526004018086815260200185815260200180602001846001600160a01b03168152602001838152602001828103825285818151815260200191508051906020019060200280838360005b8381101561373e578181015183820152602001613726565b505050509050019650505050505050600060405180830381600087803b15801561376757600080fd5b505af115801561377b573d6000803e3d6000fd5b505050506040513d6000823e601f3d908101601f1916820160405260208110156137a457600080fd5b8101908080516040519392919084600160201b8211156137c357600080fd5b9083019060208201858111156137d857600080fd5b82518660208202830111600160201b821117156137f457600080fd5b82525081516020918201928201910280838360005b83811015613821578181015183820152602001613809565b5050505090500160405250505050808460008151811061383d57fe5b6020026020010181815250505050613bdb565b728e26068b3eb40b443d3ea88c1ff99b789c10f78160018151811061387157fe5b60200260200101906001600160a01b031690816001600160a01b03168152505073c4f4ff34a2e2cf5e4c892476bb2d056871125452816002815181106138b357fe5b6001600160a01b039092166020928302919091018201526040805163d06ca61f60e01b815260048101888152602482019283528451604483015284517385995d5f8ee9645ca855e92de16fa62d263980609750606094889463d06ca61f948c9489949093606490920191858101910280838360005b83811015613940578181015183820152602001613928565b50505050905001935050505060006040518083038186803b15801561396457600080fd5b505afa158015613978573d6000803e3d6000fd5b505050506040513d6000823e601f3d908101601f1916820160405260208110156139a157600080fd5b8101908080516040519392919084600160201b8211156139c057600080fd5b9083019060208201858111156139d557600080fd5b82518660208202830111600160201b821117156139f157600080fd5b82525081516020918201928201910280838360005b83811015613a1e578181015183820152602001613a06565b505050509050016040525050509050600081600183510381518110613a3f57fe5b60200260200101519050846001600160a01b03166338ed173988838630426040518663ffffffff1660e01b81526004018086815260200185815260200180602001846001600160a01b03168152602001838152602001828103825285818151815260200191508051906020019060200280838360005b83811015613acd578181015183820152602001613ab5565b505050509050019650505050505050600060405180830381600087803b158015613af657600080fd5b505af1158015613b0a573d6000803e3d6000fd5b505050506040513d6000823e601f3d908101601f191682016040526020811015613b3357600080fd5b8101908080516040519392919084600160201b821115613b5257600080fd5b908301906020820185811115613b6757600080fd5b82518660208202830111600160201b82111715613b8357600080fd5b82525081516020918201928201910280838360005b83811015613bb0578181015183820152602001613b98565b50505050905001604052505050508084600181518110613bcc57fe5b60200260200101818152505050505b601554604051634d49e87d60e01b8152600060248201819052426044830181905260606004840190815286516064850152865192946001600160a01b031693634d49e87d93889387939092909182916084019060208088019102808383895b83811015613c52578181015183820152602001613c3a565b50505050905001945050505050602060405180830381600087803b158015613c7957600080fd5b505af1158015613c8d573d6000803e3d6000fd5b505050506040513d6020811015613ca357600080fd5b5051969550505050505056fe476f6e646f6c615374726174656779466f72537461626c65537761703a3a5f7265696e766573742c2061646d696e476f6e646f6c615374726174656779466f72537461626c65537761703a3a5f6465706f7369744f776e61626c653a206e6577206f776e657220697320746865207a65726f20616464726573735065726d697373696f6e65643a3a72656d6f76654465706f7369746f722c206e6f20616c6c6f776564206465706f7369746f7273417263683a3a76616c69646174655369673a20696e76616c6964207369676e6174757265476f6e646f6c615374726174656779466f72537461626c65537761703a3a5f77697468647261774465706f736974546f6b656e735065726d697373696f6e65643a3a72656d6f76654465706f7369746f722c206e6f7420616c6c6f776564476f6e646f6c615374726174656779466f72537461626c65537761703a3a77697468647261775f6275726e3a206275726e20616d6f756e74206578636565647320746f74616c20737570706c79476f6e646f6c615374726174656779466f72537461626c65537761703a3a7265696e76657374536166654d6174683a206d756c7469706c69636174696f6e206f766572666c6f774f776e61626c653a2063616c6c6572206973206e6f7420746865206f776e65725f7472616e73666572546f6b656e733a2063616e6e6f74207472616e7366657220746f20746865207a65726f2061646472657373476f6e646f6c615374726174656779466f72537461626c65537761703a3a5f7374616b654465706f736974546f6b656e737472616e7366657246726f6d3a207472616e7366657220616d6f756e74206578636565647320616c6c6f77616e6365476f6e646f6c615374726174656779466f72537461626c65537761703a3a5f636f6e76657274526577617264546f6b656e73546f4465706f736974546f6b656e73476f6e646f6c615374726174656779466f72537461626c65537761703a3a5f7265696e766573742c206465765f6275726e3a206275726e20616d6f756e7420657863656564732066726f6d2062616c616e6365476f6e646f6c615374726174656779466f72537461626c65537761703a3a7265736375654465706c6f79656446756e6473476f6e646f6c615374726174656779466f72537461626c65537761703a3a5f7265696e766573742c207265776172645f7472616e73666572546f6b656e733a207472616e7366657220657863656564732066726f6d2062616c616e6365a264697066735822122009ab7686fdb73ef65bbdcadef93f16ade06203d96ddd3ebdeb5cb3369afa8b0e64736f6c634300070300334f776e61626c653a206e6577206f776e657220697320746865207a65726f20616464726573734f776e61626c653a2063616c6c6572206973206e6f7420746865206f776e65728be0079c531659141344cd1fd0a4f28419497f9722a3daafe3b4186f6b6457e0",
  "devdoc": {
    "kind": "dev",
    "methods": {
      "allowDepositor(address)": {
        "params": {
          "depositor": "address"
        }
      },
      "allowance(address,address)": {
        "params": {
          "account": "The address of the account holding the funds",
          "spender": "The address of the account spending the funds"
        },
        "returns": {
          "_0": "The number of tokens approved"
        }
      },
      "approve(address,uint256)": {
        "details": "This will overwrite the approval amount for `spender` and is subject to issues noted [here](https://eips.ethereum.org/EIPS/eip-20#approve) It is recommended to use increaseAllowance and decreaseAllowance instead",
        "params": {
          "amount": "The number of tokens that are approved (2^256-1 means infinite)",
          "spender": "The address of the account which may transfer tokens"
        },
        "returns": {
          "_0": "Whether or not the approval succeeded"
        }
      },
      "balanceOf(address)": {
        "params": {
          "account": "The address of the account to get the balance of"
        },
        "returns": {
          "_0": "The number of tokens held"
        }
      },
      "checkReward()": {
        "returns": {
          "_0": "reward tokens"
        }
      },
      "deposit(uint256)": {
        "params": {
          "amount": "Amount of tokens to deposit"
        }
      },
      "depositFor(address,uint256)": {
        "details": "Must mint receipt tokens to `account`",
        "params": {
          "account": "address to receive receipt tokens",
          "amount": "deposit tokens"
        }
      },
      "depositWithPermit(uint256,uint256,uint8,bytes32,bytes32)": {
        "params": {
          "amount": "Amount of tokens to deposit",
          "deadline": "The time at which to expire the signature",
          "r": "Half of the ECDSA signature pair",
          "s": "Half of the ECDSA signature pair",
          "v": "The recovery byte of the signature"
        }
      },
      "estimateDeployedBalance()": {
        "returns": {
          "_0": "deposit tokens"
        }
      },
      "estimateReinvestReward()": {
        "returns": {
          "_0": "reward tokens"
        }
      },
      "getDepositTokensForShares(uint256)": {
        "params": {
          "amount": "receipt tokens"
        },
        "returns": {
          "_0": "deposit tokens"
        }
      },
      "getDomainSeparator()": {
        "returns": {
          "_0": "Separator"
        }
      },
      "getSharesForDepositTokens(uint256)": {
        "details": "If contract is empty, use 1:1 ratioCould return zero shares for very low amounts of deposit tokens",
        "params": {
          "amount": "deposit tokens"
        },
        "returns": {
          "_0": "receipt tokens"
        }
      },
      "owner()": {
        "details": "Returns the address of the current owner."
      },
      "permit(address,address,uint256,uint256,uint8,bytes32,bytes32)": {
        "params": {
          "deadline": "The time at which to expire the signature",
          "owner": "The address to approve from",
          "r": "Half of the ECDSA signature pair",
          "s": "Half of the ECDSA signature pair",
          "spender": "The address to be approved",
          "v": "The recovery byte of the signature",
          "value": "The number of tokens that are approved (2^256-1 means infinite)"
        }
      },
      "recoverAVAX(uint256)": {
        "params": {
          "amount": "amount"
        }
      },
      "recoverERC20(address,uint256)": {
        "params": {
          "tokenAddress": "token address",
          "tokenAmount": "amount to recover"
        }
      },
      "removeDepositor(address)": {
        "params": {
          "depositor": "address"
        }
      },
      "renounceOwnership()": {
        "details": "Leaves the contract without owner. It will not be possible to call `onlyOwner` functions anymore. Can only be called by the current owner. NOTE: Renouncing ownership will leave the contract without an owner, thereby removing any functionality that is only available to the owner."
      },
      "rescueDeployedFunds(uint256,bool)": {
        "params": {
          "disableDeposits": "bool",
          "minReturnAmountAccepted": "min deposit tokens to receive"
        }
      },
      "revokeAllowance(address,address)": {
        "params": {
          "spender": "address",
          "token": "address"
        }
      },
      "setAllowances()": {
        "details": "Restricted to avoid griefing attacks"
      },
      "transfer(address,uint256)": {
        "params": {
          "amount": "The number of tokens to transfer",
          "dst": "The address of the destination account"
        },
        "returns": {
          "_0": "Whether or not the transfer succeeded"
        }
      },
      "transferFrom(address,address,uint256)": {
        "params": {
          "amount": "The number of tokens to transfer",
          "dst": "The address of the destination account",
          "src": "The address of the source account"
        },
        "returns": {
          "_0": "Whether or not the transfer succeeded"
        }
      },
      "transferOwnership(address)": {
        "details": "Transfers ownership of the contract to a new account (`newOwner`). Can only be called by the current owner."
      },
      "updateAdminFee(uint256)": {
        "params": {
          "newValue": "fee in BIPS"
        }
      },
      "updateDepositsEnabled(bool)": {
        "params": {
          "newValue": "bool"
        }
      },
      "updateDevAddr(address)": {
        "params": {
          "newValue": "address"
        }
      },
      "updateDevFee(uint256)": {
        "params": {
          "newValue": "fee in BIPS"
        }
      },
      "updateMaxTokensToDepositWithoutReinvest(uint256)": {
        "params": {
          "newValue": "threshold"
        }
      },
      "updateMinTokensToReinvest(uint256)": {
        "params": {
          "newValue": "threshold"
        }
      },
      "updateReinvestReward(uint256)": {
        "params": {
          "newValue": "fee in BIPS"
        }
      },
      "withdraw(uint256)": {
        "params": {
          "amount": "receipt tokens"
        }
      }
    },
    "version": 1
  },
  "userdoc": {
    "kind": "user",
    "methods": {
      "DOMAIN_TYPEHASH()": {
        "notice": "keccak256(\"EIP712Domain(string name,string version,uint256 chainId,address verifyingContract)\")"
      },
      "PERMIT_TYPEHASH()": {
        "notice": "keccak256(\"Permit(address owner,address spender,uint256 value,uint256 nonce,uint256 deadline)\");"
      },
      "VERSION_HASH()": {
        "notice": "keccak256(\"1\");"
      },
      "allowDepositor(address)": {
        "notice": "Add an allowed depositor"
      },
      "allowance(address,address)": {
        "notice": "Get the number of tokens `spender` is approved to spend on behalf of `account`"
      },
      "approve(address,uint256)": {
        "notice": "Approve `spender` to transfer up to `amount` from `src`"
      },
      "balanceOf(address)": {
        "notice": "Get the number of tokens held by the `account`"
      },
      "checkReward()": {
        "notice": "Reward tokens avialable to strategy, including balance"
      },
      "deposit(uint256)": {
        "notice": "Deposit tokens to receive receipt tokens"
      },
      "depositFor(address,uint256)": {
        "notice": "Deposit on behalf of another account"
      },
      "depositWithPermit(uint256,uint256,uint8,bytes32,bytes32)": {
        "notice": "Deposit using Permit"
      },
      "estimateDeployedBalance()": {
        "notice": "Estimate recoverable balance"
      },
      "estimateReinvestReward()": {
        "notice": "Estimate reinvest reward"
      },
      "getDepositTokensForShares(uint256)": {
        "notice": "Calculate deposit tokens for a given amount of receipt tokens"
      },
      "getDomainSeparator()": {
        "notice": "EIP-712 Domain separator"
      },
      "getSharesForDepositTokens(uint256)": {
        "notice": "Calculate receipt tokens for a given amount of deposit tokens"
      },
      "permit(address,address,uint256,uint256,uint8,bytes32,bytes32)": {
        "notice": "Triggers an approval from owner to spender"
      },
      "recoverAVAX(uint256)": {
        "notice": "Recover AVAX from contract"
      },
      "recoverERC20(address,uint256)": {
        "notice": "Recover ERC20 from contract"
      },
      "reinvest()": {
        "notice": "Reinvest reward tokens into deposit tokens"
      },
      "removeDepositor(address)": {
        "notice": "Remove an allowed depositor"
      },
      "rescueDeployedFunds(uint256,bool)": {
        "notice": "Rescue all available deployed deposit tokens back to Strategy"
      },
      "revokeAllowance(address,address)": {
        "notice": "Revoke token allowance"
      },
      "setAllowances()": {
        "notice": "Approve tokens for use in Strategy"
      },
      "transfer(address,uint256)": {
        "notice": "Transfer `amount` tokens from `msg.sender` to `dst`"
      },
      "transferFrom(address,address,uint256)": {
        "notice": "Transfer `amount` tokens from `src` to `dst`"
      },
      "updateAdminFee(uint256)": {
        "notice": "Update admin fee"
      },
      "updateDepositsEnabled(bool)": {
        "notice": "Enable/disable deposits"
      },
      "updateDevAddr(address)": {
        "notice": "Update devAddr"
      },
      "updateDevFee(uint256)": {
        "notice": "Update developer fee"
      },
      "updateMaxTokensToDepositWithoutReinvest(uint256)": {
        "notice": "Update reinvest max threshold before a deposit"
      },
      "updateMinTokensToReinvest(uint256)": {
        "notice": "Update reinvest min threshold"
      },
      "updateReinvestReward(uint256)": {
        "notice": "Update reinvest reward"
      },
      "withdraw(uint256)": {
        "notice": "Redeem receipt tokens for deposit tokens"
      }
    },
    "notice": "StableSwap strategy for Gondola WBTC/zBTC",
    "version": 1
  },
  "storageLayout": {
    "storage": [
      {
        "astId": 15814,
        "contract": "contracts/strategies/GondolaStrategyForPoolBTC.sol:GondolaStrategyForPoolBTC",
        "label": "name",
        "offset": 0,
        "slot": "0",
        "type": "t_string_storage"
      },
      {
        "astId": 15817,
        "contract": "contracts/strategies/GondolaStrategyForPoolBTC.sol:GondolaStrategyForPoolBTC",
        "label": "symbol",
        "offset": 0,
        "slot": "1",
        "type": "t_string_storage"
      },
      {
        "astId": 15822,
        "contract": "contracts/strategies/GondolaStrategyForPoolBTC.sol:GondolaStrategyForPoolBTC",
        "label": "totalSupply",
        "offset": 0,
        "slot": "2",
        "type": "t_uint256"
      },
      {
        "astId": 15828,
        "contract": "contracts/strategies/GondolaStrategyForPoolBTC.sol:GondolaStrategyForPoolBTC",
        "label": "allowances",
        "offset": 0,
        "slot": "3",
        "type": "t_mapping(t_address,t_mapping(t_address,t_uint256))"
      },
      {
        "astId": 15832,
        "contract": "contracts/strategies/GondolaStrategyForPoolBTC.sol:GondolaStrategyForPoolBTC",
        "label": "balances",
        "offset": 0,
        "slot": "4",
        "type": "t_mapping(t_address,t_uint256)"
      },
      {
        "astId": 15848,
        "contract": "contracts/strategies/GondolaStrategyForPoolBTC.sol:GondolaStrategyForPoolBTC",
        "label": "nonces",
        "offset": 0,
        "slot": "5",
        "type": "t_mapping(t_address,t_uint256)"
      },
      {
        "astId": 19423,
        "contract": "contracts/strategies/GondolaStrategyForPoolBTC.sol:GondolaStrategyForPoolBTC",
        "label": "_owner",
        "offset": 0,
        "slot": "6",
        "type": "t_address"
      },
      {
        "astId": 19536,
        "contract": "contracts/strategies/GondolaStrategyForPoolBTC.sol:GondolaStrategyForPoolBTC",
        "label": "numberOfAllowedDepositors",
        "offset": 0,
        "slot": "7",
        "type": "t_uint256"
      },
      {
        "astId": 19540,
        "contract": "contracts/strategies/GondolaStrategyForPoolBTC.sol:GondolaStrategyForPoolBTC",
        "label": "allowedDepositors",
        "offset": 0,
        "slot": "8",
        "type": "t_mapping(t_address,t_bool)"
      },
      {
        "astId": 16342,
        "contract": "contracts/strategies/GondolaStrategyForPoolBTC.sol:GondolaStrategyForPoolBTC",
        "label": "totalDeposits",
        "offset": 0,
        "slot": "9",
        "type": "t_uint256"
      },
      {
        "astId": 16344,
        "contract": "contracts/strategies/GondolaStrategyForPoolBTC.sol:GondolaStrategyForPoolBTC",
        "label": "depositToken",
        "offset": 0,
        "slot": "10",
        "type": "t_contract(IERC20)17729"
      },
      {
        "astId": 16346,
        "contract": "contracts/strategies/GondolaStrategyForPoolBTC.sol:GondolaStrategyForPoolBTC",
        "label": "rewardToken",
        "offset": 0,
        "slot": "11",
        "type": "t_contract(IERC20)17729"
      },
      {
        "astId": 16348,
        "contract": "contracts/strategies/GondolaStrategyForPoolBTC.sol:GondolaStrategyForPoolBTC",
        "label": "devAddr",
        "offset": 0,
        "slot": "12",
        "type": "t_address"
      },
      {
        "astId": 16350,
        "contract": "contracts/strategies/GondolaStrategyForPoolBTC.sol:GondolaStrategyForPoolBTC",
        "label": "MIN_TOKENS_TO_REINVEST",
        "offset": 0,
        "slot": "13",
        "type": "t_uint256"
      },
      {
        "astId": 16352,
        "contract": "contracts/strategies/GondolaStrategyForPoolBTC.sol:GondolaStrategyForPoolBTC",
        "label": "MAX_TOKENS_TO_DEPOSIT_WITHOUT_REINVEST",
        "offset": 0,
        "slot": "14",
        "type": "t_uint256"
      },
      {
        "astId": 16354,
        "contract": "contracts/strategies/GondolaStrategyForPoolBTC.sol:GondolaStrategyForPoolBTC",
        "label": "DEPOSITS_ENABLED",
        "offset": 0,
        "slot": "15",
        "type": "t_bool"
      },
      {
        "astId": 16356,
        "contract": "contracts/strategies/GondolaStrategyForPoolBTC.sol:GondolaStrategyForPoolBTC",
        "label": "REINVEST_REWARD_BIPS",
        "offset": 0,
        "slot": "16",
        "type": "t_uint256"
      },
      {
        "astId": 16358,
        "contract": "contracts/strategies/GondolaStrategyForPoolBTC.sol:GondolaStrategyForPoolBTC",
        "label": "ADMIN_FEE_BIPS",
        "offset": 0,
        "slot": "17",
        "type": "t_uint256"
      },
      {
        "astId": 16360,
        "contract": "contracts/strategies/GondolaStrategyForPoolBTC.sol:GondolaStrategyForPoolBTC",
        "label": "DEV_FEE_BIPS",
        "offset": 0,
        "slot": "18",
        "type": "t_uint256"
      },
      {
        "astId": 27762,
        "contract": "contracts/strategies/GondolaStrategyForPoolBTC.sol:GondolaStrategyForPoolBTC",
        "label": "router",
        "offset": 0,
        "slot": "19",
        "type": "t_contract(IRouter)19017"
      },
      {
        "astId": 27764,
        "contract": "contracts/strategies/GondolaStrategyForPoolBTC.sol:GondolaStrategyForPoolBTC",
        "label": "stakingContract",
        "offset": 0,
        "slot": "20",
        "type": "t_contract(IGondolaChef)17868"
      },
      {
        "astId": 27766,
        "contract": "contracts/strategies/GondolaStrategyForPoolBTC.sol:GondolaStrategyForPoolBTC",
        "label": "poolContract",
        "offset": 0,
        "slot": "21",
        "type": "t_contract(IGondolaPool)18040"
      },
      {
        "astId": 27790,
        "contract": "contracts/strategies/GondolaStrategyForPoolBTC.sol:GondolaStrategyForPoolBTC",
        "label": "PID",
        "offset": 0,
        "slot": "22",
        "type": "t_uint256"
      }
    ],
    "types": {
      "t_address": {
        "encoding": "inplace",
        "label": "address",
        "numberOfBytes": "20"
      },
      "t_bool": {
        "encoding": "inplace",
        "label": "bool",
        "numberOfBytes": "1"
      },
      "t_contract(IERC20)17729": {
        "encoding": "inplace",
        "label": "contract IERC20",
        "numberOfBytes": "20"
      },
      "t_contract(IGondolaChef)17868": {
        "encoding": "inplace",
        "label": "contract IGondolaChef",
        "numberOfBytes": "20"
      },
      "t_contract(IGondolaPool)18040": {
        "encoding": "inplace",
        "label": "contract IGondolaPool",
        "numberOfBytes": "20"
      },
      "t_contract(IRouter)19017": {
        "encoding": "inplace",
        "label": "contract IRouter",
        "numberOfBytes": "20"
      },
      "t_mapping(t_address,t_bool)": {
        "encoding": "mapping",
        "key": "t_address",
        "label": "mapping(address => bool)",
        "numberOfBytes": "32",
        "value": "t_bool"
      },
      "t_mapping(t_address,t_mapping(t_address,t_uint256))": {
        "encoding": "mapping",
        "key": "t_address",
        "label": "mapping(address => mapping(address => uint256))",
        "numberOfBytes": "32",
        "value": "t_mapping(t_address,t_uint256)"
      },
      "t_mapping(t_address,t_uint256)": {
        "encoding": "mapping",
        "key": "t_address",
        "label": "mapping(address => uint256)",
        "numberOfBytes": "32",
        "value": "t_uint256"
      },
      "t_string_storage": {
        "encoding": "bytes",
        "label": "string",
        "numberOfBytes": "32"
      },
      "t_uint256": {
        "encoding": "inplace",
        "label": "uint256",
        "numberOfBytes": "32"
      }
    }
  }
}