{
  "address": "0xaCd4428f8c183edA30d102Da3646C070bC7469Eb",
  "abi": [
    {
      "inputs": [
        {
          "components": [
            {
              "internalType": "address",
              "name": "gauge",
              "type": "address"
            },
            {
              "internalType": "address",
              "name": "swapPairToken0",
              "type": "address"
            },
            {
              "internalType": "uint256",
              "name": "swapFeeToken0",
              "type": "uint256"
            },
            {
              "internalType": "address",
              "name": "swapPairToken1",
              "type": "address"
            },
            {
              "internalType": "uint256",
              "name": "swapFeeToken1",
              "type": "uint256"
            },
            {
              "internalType": "address",
              "name": "boosterFeeCollector",
              "type": "address"
            }
          ],
          "internalType": "struct GlacierStrategy.GlacierStrategySettings",
          "name": "_glacierStrategySettings",
          "type": "tuple"
        },
        {
          "components": [
            {
              "internalType": "string",
              "name": "name",
              "type": "string"
            },
            {
              "internalType": "address",
              "name": "platformToken",
              "type": "address"
            },
            {
              "components": [
                {
                  "internalType": "address",
                  "name": "reward",
                  "type": "address"
                },
                {
                  "internalType": "address",
                  "name": "swapPair",
                  "type": "address"
                },
                {
                  "internalType": "uint256",
                  "name": "swapFee",
                  "type": "uint256"
                }
              ],
              "internalType": "struct VariableRewardsStrategy.RewardSwapPair[]",
              "name": "rewardSwapPairs",
              "type": "tuple[]"
            },
            {
              "internalType": "address",
              "name": "timelock",
              "type": "address"
            }
          ],
          "internalType": "struct VariableRewardsStrategy.VariableRewardsStrategySettings",
          "name": "_variableRewardsStrategySettings",
          "type": "tuple"
        },
        {
          "components": [
            {
              "internalType": "address",
              "name": "depositToken",
              "type": "address"
            },
            {
              "internalType": "address",
              "name": "rewardToken",
              "type": "address"
            },
            {
              "internalType": "uint256",
              "name": "minTokensToReinvest",
              "type": "uint256"
            },
            {
              "internalType": "uint256",
              "name": "devFeeBips",
              "type": "uint256"
            },
            {
              "internalType": "uint256",
              "name": "reinvestRewardBips",
              "type": "uint256"
            }
          ],
          "internalType": "struct YakStrategyV2.StrategySettings",
          "name": "_strategySettings",
          "type": "tuple"
        }
      ],
      "stateMutability": "nonpayable",
      "type": "constructor"
    },
    {
      "anonymous": false,
      "inputs": [
        {
          "indexed": false,
          "internalType": "address",
          "name": "rewardToken",
          "type": "address"
        },
        {
          "indexed": false,
          "internalType": "address",
          "name": "swapPair",
          "type": "address"
        }
      ],
      "name": "AddReward",
      "type": "event"
    },
    {
      "anonymous": false,
      "inputs": [
        {
          "indexed": true,
          "internalType": "address",
          "name": "account",
          "type": "address"
        }
      ],
      "name": "AllowDepositor",
      "type": "event"
    },
    {
      "anonymous": false,
      "inputs": [
        {
          "indexed": true,
          "internalType": "address",
          "name": "owner",
          "type": "address"
        },
        {
          "indexed": true,
          "internalType": "address",
          "name": "spender",
          "type": "address"
        },
        {
          "indexed": false,
          "internalType": "uint256",
          "name": "value",
          "type": "uint256"
        }
      ],
      "name": "Approval",
      "type": "event"
    },
    {
      "anonymous": false,
      "inputs": [
        {
          "indexed": true,
          "internalType": "address",
          "name": "account",
          "type": "address"
        },
        {
          "indexed": false,
          "internalType": "uint256",
          "name": "amount",
          "type": "uint256"
        }
      ],
      "name": "Deposit",
      "type": "event"
    },
    {
      "anonymous": false,
      "inputs": [
        {
          "indexed": false,
          "internalType": "bool",
          "name": "newValue",
          "type": "bool"
        }
      ],
      "name": "DepositsEnabled",
      "type": "event"
    },
    {
      "anonymous": false,
      "inputs": [
        {
          "indexed": true,
          "internalType": "address",
          "name": "previousOwner",
          "type": "address"
        },
        {
          "indexed": true,
          "internalType": "address",
          "name": "newOwner",
          "type": "address"
        }
      ],
      "name": "OwnershipTransferred",
      "type": "event"
    },
    {
      "anonymous": false,
      "inputs": [
        {
          "indexed": false,
          "internalType": "address",
          "name": "token",
          "type": "address"
        },
        {
          "indexed": false,
          "internalType": "uint256",
          "name": "amount",
          "type": "uint256"
        }
      ],
      "name": "Recovered",
      "type": "event"
    },
    {
      "anonymous": false,
      "inputs": [
        {
          "indexed": false,
          "internalType": "uint256",
          "name": "newTotalDeposits",
          "type": "uint256"
        },
        {
          "indexed": false,
          "internalType": "uint256",
          "name": "newTotalSupply",
          "type": "uint256"
        }
      ],
      "name": "Reinvest",
      "type": "event"
    },
    {
      "anonymous": false,
      "inputs": [
        {
          "indexed": true,
          "internalType": "address",
          "name": "account",
          "type": "address"
        }
      ],
      "name": "RemoveDepositor",
      "type": "event"
    },
    {
      "anonymous": false,
      "inputs": [
        {
          "indexed": false,
          "internalType": "address",
          "name": "rewardToken",
          "type": "address"
        }
      ],
      "name": "RemoveReward",
      "type": "event"
    },
    {
      "anonymous": false,
      "inputs": [
        {
          "indexed": true,
          "internalType": "address",
          "name": "from",
          "type": "address"
        },
        {
          "indexed": true,
          "internalType": "address",
          "name": "to",
          "type": "address"
        },
        {
          "indexed": false,
          "internalType": "uint256",
          "name": "value",
          "type": "uint256"
        }
      ],
      "name": "Transfer",
      "type": "event"
    },
    {
      "anonymous": false,
      "inputs": [
        {
          "indexed": false,
          "internalType": "uint256",
          "name": "oldValue",
          "type": "uint256"
        },
        {
          "indexed": false,
          "internalType": "uint256",
          "name": "newValue",
          "type": "uint256"
        }
      ],
      "name": "UpdateAdminFee",
      "type": "event"
    },
    {
      "anonymous": false,
      "inputs": [
        {
          "indexed": false,
          "internalType": "address",
          "name": "oldValue",
          "type": "address"
        },
        {
          "indexed": false,
          "internalType": "address",
          "name": "newValue",
          "type": "address"
        }
      ],
      "name": "UpdateDevAddr",
      "type": "event"
    },
    {
      "anonymous": false,
      "inputs": [
        {
          "indexed": false,
          "internalType": "uint256",
          "name": "oldValue",
          "type": "uint256"
        },
        {
          "indexed": false,
          "internalType": "uint256",
          "name": "newValue",
          "type": "uint256"
        }
      ],
      "name": "UpdateDevFee",
      "type": "event"
    },
    {
      "anonymous": false,
      "inputs": [
        {
          "indexed": false,
          "internalType": "uint256",
          "name": "oldValue",
          "type": "uint256"
        },
        {
          "indexed": false,
          "internalType": "uint256",
          "name": "newValue",
          "type": "uint256"
        }
      ],
      "name": "UpdateMaxTokensToDepositWithoutReinvest",
      "type": "event"
    },
    {
      "anonymous": false,
      "inputs": [
        {
          "indexed": false,
          "internalType": "uint256",
          "name": "oldValue",
          "type": "uint256"
        },
        {
          "indexed": false,
          "internalType": "uint256",
          "name": "newValue",
          "type": "uint256"
        }
      ],
      "name": "UpdateMinTokensToReinvest",
      "type": "event"
    },
    {
      "anonymous": false,
      "inputs": [
        {
          "indexed": false,
          "internalType": "uint256",
          "name": "oldValue",
          "type": "uint256"
        },
        {
          "indexed": false,
          "internalType": "uint256",
          "name": "newValue",
          "type": "uint256"
        }
      ],
      "name": "UpdateReinvestReward",
      "type": "event"
    },
    {
      "anonymous": false,
      "inputs": [
        {
          "indexed": true,
          "internalType": "address",
          "name": "account",
          "type": "address"
        },
        {
          "indexed": false,
          "internalType": "uint256",
          "name": "amount",
          "type": "uint256"
        }
      ],
      "name": "Withdraw",
      "type": "event"
    },
    {
      "inputs": [],
      "name": "ADMIN_FEE_BIPS",
      "outputs": [
        {
          "internalType": "uint256",
          "name": "",
          "type": "uint256"
        }
      ],
      "stateMutability": "view",
      "type": "function"
    },
    {
      "inputs": [],
      "name": "DEPOSITS_ENABLED",
      "outputs": [
        {
          "internalType": "bool",
          "name": "",
          "type": "bool"
        }
      ],
      "stateMutability": "view",
      "type": "function"
    },
    {
      "inputs": [],
      "name": "DEV_FEE_BIPS",
      "outputs": [
        {
          "internalType": "uint256",
          "name": "",
          "type": "uint256"
        }
      ],
      "stateMutability": "view",
      "type": "function"
    },
    {
      "inputs": [],
      "name": "DOMAIN_TYPEHASH",
      "outputs": [
        {
          "internalType": "bytes32",
          "name": "",
          "type": "bytes32"
        }
      ],
      "stateMutability": "view",
      "type": "function"
    },
    {
      "inputs": [],
      "name": "MAX_TOKENS_TO_DEPOSIT_WITHOUT_REINVEST",
      "outputs": [
        {
          "internalType": "uint256",
          "name": "",
          "type": "uint256"
        }
      ],
      "stateMutability": "view",
      "type": "function"
    },
    {
      "inputs": [],
      "name": "MIN_TOKENS_TO_REINVEST",
      "outputs": [
        {
          "internalType": "uint256",
          "name": "",
          "type": "uint256"
        }
      ],
      "stateMutability": "view",
      "type": "function"
    },
    {
      "inputs": [],
      "name": "PERMIT_TYPEHASH",
      "outputs": [
        {
          "internalType": "bytes32",
          "name": "",
          "type": "bytes32"
        }
      ],
      "stateMutability": "view",
      "type": "function"
    },
    {
      "inputs": [],
      "name": "REINVEST_REWARD_BIPS",
      "outputs": [
        {
          "internalType": "uint256",
          "name": "",
          "type": "uint256"
        }
      ],
      "stateMutability": "view",
      "type": "function"
    },
    {
      "inputs": [],
      "name": "VERSION_HASH",
      "outputs": [
        {
          "internalType": "bytes32",
          "name": "",
          "type": "bytes32"
        }
      ],
      "stateMutability": "view",
      "type": "function"
    },
    {
      "inputs": [
        {
          "internalType": "address",
          "name": "_rewardToken",
          "type": "address"
        },
        {
          "internalType": "address",
          "name": "_swapPair",
          "type": "address"
        }
      ],
      "name": "addReward",
      "outputs": [],
      "stateMutability": "nonpayable",
      "type": "function"
    },
    {
      "inputs": [
        {
          "internalType": "address",
          "name": "_rewardToken",
          "type": "address"
        },
        {
          "internalType": "address",
          "name": "_swapPair",
          "type": "address"
        },
        {
          "internalType": "uint256",
          "name": "_swapFee",
          "type": "uint256"
        }
      ],
      "name": "addReward",
      "outputs": [],
      "stateMutability": "nonpayable",
      "type": "function"
    },
    {
      "inputs": [
        {
          "internalType": "address",
          "name": "depositor",
          "type": "address"
        }
      ],
      "name": "allowDepositor",
      "outputs": [],
      "stateMutability": "nonpayable",
      "type": "function"
    },
    {
      "inputs": [
        {
          "internalType": "address",
          "name": "account",
          "type": "address"
        },
        {
          "internalType": "address",
          "name": "spender",
          "type": "address"
        }
      ],
      "name": "allowance",
      "outputs": [
        {
          "internalType": "uint256",
          "name": "",
          "type": "uint256"
        }
      ],
      "stateMutability": "view",
      "type": "function"
    },
    {
      "inputs": [
        {
          "internalType": "address",
          "name": "",
          "type": "address"
        }
      ],
      "name": "allowedDepositors",
      "outputs": [
        {
          "internalType": "bool",
          "name": "",
          "type": "bool"
        }
      ],
      "stateMutability": "view",
      "type": "function"
    },
    {
      "inputs": [
        {
          "internalType": "address",
          "name": "spender",
          "type": "address"
        },
        {
          "internalType": "uint256",
          "name": "amount",
          "type": "uint256"
        }
      ],
      "name": "approve",
      "outputs": [
        {
          "internalType": "bool",
          "name": "",
          "type": "bool"
        }
      ],
      "stateMutability": "nonpayable",
      "type": "function"
    },
    {
      "inputs": [
        {
          "internalType": "address",
          "name": "account",
          "type": "address"
        }
      ],
      "name": "balanceOf",
      "outputs": [
        {
          "internalType": "uint256",
          "name": "",
          "type": "uint256"
        }
      ],
      "stateMutability": "view",
      "type": "function"
    },
    {
      "inputs": [],
      "name": "boosterFeeCollector",
      "outputs": [
        {
          "internalType": "contract IGlacierBoosterFeeCollector",
          "name": "",
          "type": "address"
        }
      ],
      "stateMutability": "view",
      "type": "function"
    },
    {
      "inputs": [
        {
          "internalType": "uint256",
          "name": "_amount",
          "type": "uint256"
        }
      ],
      "name": "calculateDepositFee",
      "outputs": [
        {
          "internalType": "uint256",
          "name": "",
          "type": "uint256"
        }
      ],
      "stateMutability": "view",
      "type": "function"
    },
    {
      "inputs": [
        {
          "internalType": "uint256",
          "name": "_amount",
          "type": "uint256"
        }
      ],
      "name": "calculateWithdrawFee",
      "outputs": [
        {
          "internalType": "uint256",
          "name": "",
          "type": "uint256"
        }
      ],
      "stateMutability": "view",
      "type": "function"
    },
    {
      "inputs": [],
      "name": "checkReward",
      "outputs": [
        {
          "internalType": "uint256",
          "name": "",
          "type": "uint256"
        }
      ],
      "stateMutability": "view",
      "type": "function"
    },
    {
      "inputs": [],
      "name": "decimals",
      "outputs": [
        {
          "internalType": "uint8",
          "name": "",
          "type": "uint8"
        }
      ],
      "stateMutability": "view",
      "type": "function"
    },
    {
      "inputs": [
        {
          "internalType": "uint256",
          "name": "_amount",
          "type": "uint256"
        }
      ],
      "name": "deposit",
      "outputs": [],
      "stateMutability": "nonpayable",
      "type": "function"
    },
    {
      "inputs": [
        {
          "internalType": "address",
          "name": "_account",
          "type": "address"
        },
        {
          "internalType": "uint256",
          "name": "_amount",
          "type": "uint256"
        }
      ],
      "name": "depositFor",
      "outputs": [],
      "stateMutability": "nonpayable",
      "type": "function"
    },
    {
      "inputs": [],
      "name": "depositToken",
      "outputs": [
        {
          "internalType": "contract IERC20",
          "name": "",
          "type": "address"
        }
      ],
      "stateMutability": "view",
      "type": "function"
    },
    {
      "inputs": [
        {
          "internalType": "uint256",
          "name": "_amount",
          "type": "uint256"
        },
        {
          "internalType": "uint256",
          "name": "_deadline",
          "type": "uint256"
        },
        {
          "internalType": "uint8",
          "name": "_v",
          "type": "uint8"
        },
        {
          "internalType": "bytes32",
          "name": "_r",
          "type": "bytes32"
        },
        {
          "internalType": "bytes32",
          "name": "_s",
          "type": "bytes32"
        }
      ],
      "name": "depositWithPermit",
      "outputs": [],
      "stateMutability": "nonpayable",
      "type": "function"
    },
    {
      "inputs": [],
      "name": "devAddr",
      "outputs": [
        {
          "internalType": "address",
          "name": "",
          "type": "address"
        }
      ],
      "stateMutability": "view",
      "type": "function"
    },
    {
      "inputs": [],
      "name": "estimateDeployedBalance",
      "outputs": [
        {
          "internalType": "uint256",
          "name": "",
          "type": "uint256"
        }
      ],
      "stateMutability": "view",
      "type": "function"
    },
    {
      "inputs": [],
      "name": "estimateReinvestReward",
      "outputs": [
        {
          "internalType": "uint256",
          "name": "",
          "type": "uint256"
        }
      ],
      "stateMutability": "view",
      "type": "function"
    },
    {
      "inputs": [],
      "name": "gauge",
      "outputs": [
        {
          "internalType": "contract IGauge",
          "name": "",
          "type": "address"
        }
      ],
      "stateMutability": "view",
      "type": "function"
    },
    {
      "inputs": [
        {
          "internalType": "uint256",
          "name": "amount",
          "type": "uint256"
        }
      ],
      "name": "getDepositTokensForShares",
      "outputs": [
        {
          "internalType": "uint256",
          "name": "",
          "type": "uint256"
        }
      ],
      "stateMutability": "view",
      "type": "function"
    },
    {
      "inputs": [],
      "name": "getDomainSeparator",
      "outputs": [
        {
          "internalType": "bytes32",
          "name": "",
          "type": "bytes32"
        }
      ],
      "stateMutability": "view",
      "type": "function"
    },
    {
      "inputs": [
        {
          "internalType": "uint256",
          "name": "amount",
          "type": "uint256"
        }
      ],
      "name": "getSharesForDepositTokens",
      "outputs": [
        {
          "internalType": "uint256",
          "name": "",
          "type": "uint256"
        }
      ],
      "stateMutability": "view",
      "type": "function"
    },
    {
      "inputs": [],
      "name": "name",
      "outputs": [
        {
          "internalType": "string",
          "name": "",
          "type": "string"
        }
      ],
      "stateMutability": "view",
      "type": "function"
    },
    {
      "inputs": [
        {
          "internalType": "address",
          "name": "",
          "type": "address"
        }
      ],
      "name": "nonces",
      "outputs": [
        {
          "internalType": "uint256",
          "name": "",
          "type": "uint256"
        }
      ],
      "stateMutability": "view",
      "type": "function"
    },
    {
      "inputs": [],
      "name": "numberOfAllowedDepositors",
      "outputs": [
        {
          "internalType": "uint256",
          "name": "",
          "type": "uint256"
        }
      ],
      "stateMutability": "view",
      "type": "function"
    },
    {
      "inputs": [],
      "name": "owner",
      "outputs": [
        {
          "internalType": "address",
          "name": "",
          "type": "address"
        }
      ],
      "stateMutability": "view",
      "type": "function"
    },
    {
      "inputs": [
        {
          "internalType": "address",
          "name": "owner",
          "type": "address"
        },
        {
          "internalType": "address",
          "name": "spender",
          "type": "address"
        },
        {
          "internalType": "uint256",
          "name": "value",
          "type": "uint256"
        },
        {
          "internalType": "uint256",
          "name": "deadline",
          "type": "uint256"
        },
        {
          "internalType": "uint8",
          "name": "v",
          "type": "uint8"
        },
        {
          "internalType": "bytes32",
          "name": "r",
          "type": "bytes32"
        },
        {
          "internalType": "bytes32",
          "name": "s",
          "type": "bytes32"
        }
      ],
      "name": "permit",
      "outputs": [],
      "stateMutability": "nonpayable",
      "type": "function"
    },
    {
      "inputs": [
        {
          "internalType": "uint256",
          "name": "amount",
          "type": "uint256"
        }
      ],
      "name": "recoverAVAX",
      "outputs": [],
      "stateMutability": "nonpayable",
      "type": "function"
    },
    {
      "inputs": [
        {
          "internalType": "address",
          "name": "tokenAddress",
          "type": "address"
        },
        {
          "internalType": "uint256",
          "name": "tokenAmount",
          "type": "uint256"
        }
      ],
      "name": "recoverERC20",
      "outputs": [],
      "stateMutability": "nonpayable",
      "type": "function"
    },
    {
      "inputs": [],
      "name": "reinvest",
      "outputs": [],
      "stateMutability": "nonpayable",
      "type": "function"
    },
    {
      "inputs": [
        {
          "internalType": "address",
          "name": "depositor",
          "type": "address"
        }
      ],
      "name": "removeDepositor",
      "outputs": [],
      "stateMutability": "nonpayable",
      "type": "function"
    },
    {
      "inputs": [
        {
          "internalType": "address",
          "name": "_rewardToken",
          "type": "address"
        }
      ],
      "name": "removeReward",
      "outputs": [],
      "stateMutability": "nonpayable",
      "type": "function"
    },
    {
      "inputs": [],
      "name": "renounceOwnership",
      "outputs": [],
      "stateMutability": "nonpayable",
      "type": "function"
    },
    {
      "inputs": [
        {
          "internalType": "uint256",
          "name": "_minReturnAmountAccepted",
          "type": "uint256"
        },
        {
          "internalType": "bool",
          "name": "",
          "type": "bool"
        }
      ],
      "name": "rescueDeployedFunds",
      "outputs": [],
      "stateMutability": "nonpayable",
      "type": "function"
    },
    {
      "inputs": [
        {
          "internalType": "address",
          "name": "token",
          "type": "address"
        },
        {
          "internalType": "address",
          "name": "spender",
          "type": "address"
        }
      ],
      "name": "revokeAllowance",
      "outputs": [],
      "stateMutability": "nonpayable",
      "type": "function"
    },
    {
      "inputs": [],
      "name": "rewardCount",
      "outputs": [
        {
          "internalType": "uint256",
          "name": "",
          "type": "uint256"
        }
      ],
      "stateMutability": "view",
      "type": "function"
    },
    {
      "inputs": [
        {
          "internalType": "address",
          "name": "",
          "type": "address"
        }
      ],
      "name": "rewardSwapPairs",
      "outputs": [
        {
          "internalType": "address",
          "name": "reward",
          "type": "address"
        },
        {
          "internalType": "address",
          "name": "swapPair",
          "type": "address"
        },
        {
          "internalType": "uint256",
          "name": "swapFee",
          "type": "uint256"
        }
      ],
      "stateMutability": "view",
      "type": "function"
    },
    {
      "inputs": [],
      "name": "rewardToken",
      "outputs": [
        {
          "internalType": "contract IERC20",
          "name": "",
          "type": "address"
        }
      ],
      "stateMutability": "view",
      "type": "function"
    },
    {
      "inputs": [
        {
          "internalType": "uint256",
          "name": "",
          "type": "uint256"
        }
      ],
      "name": "supportedRewards",
      "outputs": [
        {
          "internalType": "address",
          "name": "",
          "type": "address"
        }
      ],
      "stateMutability": "view",
      "type": "function"
    },
    {
      "inputs": [],
      "name": "swapFeeToken0",
      "outputs": [
        {
          "internalType": "uint256",
          "name": "",
          "type": "uint256"
        }
      ],
      "stateMutability": "view",
      "type": "function"
    },
    {
      "inputs": [],
      "name": "swapFeeToken1",
      "outputs": [
        {
          "internalType": "uint256",
          "name": "",
          "type": "uint256"
        }
      ],
      "stateMutability": "view",
      "type": "function"
    },
    {
      "inputs": [],
      "name": "swapPairToken0",
      "outputs": [
        {
          "internalType": "address",
          "name": "",
          "type": "address"
        }
      ],
      "stateMutability": "view",
      "type": "function"
    },
    {
      "inputs": [],
      "name": "swapPairToken1",
      "outputs": [
        {
          "internalType": "address",
          "name": "",
          "type": "address"
        }
      ],
      "stateMutability": "view",
      "type": "function"
    },
    {
      "inputs": [],
      "name": "symbol",
      "outputs": [
        {
          "internalType": "string",
          "name": "",
          "type": "string"
        }
      ],
      "stateMutability": "view",
      "type": "function"
    },
    {
      "inputs": [],
      "name": "totalDeposits",
      "outputs": [
        {
          "internalType": "uint256",
          "name": "",
          "type": "uint256"
        }
      ],
      "stateMutability": "view",
      "type": "function"
    },
    {
      "inputs": [],
      "name": "totalSupply",
      "outputs": [
        {
          "internalType": "uint256",
          "name": "",
          "type": "uint256"
        }
      ],
      "stateMutability": "view",
      "type": "function"
    },
    {
      "inputs": [
        {
          "internalType": "address",
          "name": "dst",
          "type": "address"
        },
        {
          "internalType": "uint256",
          "name": "amount",
          "type": "uint256"
        }
      ],
      "name": "transfer",
      "outputs": [
        {
          "internalType": "bool",
          "name": "",
          "type": "bool"
        }
      ],
      "stateMutability": "nonpayable",
      "type": "function"
    },
    {
      "inputs": [
        {
          "internalType": "address",
          "name": "src",
          "type": "address"
        },
        {
          "internalType": "address",
          "name": "dst",
          "type": "address"
        },
        {
          "internalType": "uint256",
          "name": "amount",
          "type": "uint256"
        }
      ],
      "name": "transferFrom",
      "outputs": [
        {
          "internalType": "bool",
          "name": "",
          "type": "bool"
        }
      ],
      "stateMutability": "nonpayable",
      "type": "function"
    },
    {
      "inputs": [
        {
          "internalType": "address",
          "name": "newOwner",
          "type": "address"
        }
      ],
      "name": "transferOwnership",
      "outputs": [],
      "stateMutability": "nonpayable",
      "type": "function"
    },
    {
      "inputs": [
        {
          "internalType": "uint256",
          "name": "newValue",
          "type": "uint256"
        }
      ],
      "name": "updateAdminFee",
      "outputs": [],
      "stateMutability": "nonpayable",
      "type": "function"
    },
    {
      "inputs": [
        {
          "internalType": "address",
          "name": "_collector",
          "type": "address"
        }
      ],
      "name": "updateBoosterFeeCollector",
      "outputs": [],
      "stateMutability": "nonpayable",
      "type": "function"
    },
    {
      "inputs": [
        {
          "internalType": "bool",
          "name": "newValue",
          "type": "bool"
        }
      ],
      "name": "updateDepositsEnabled",
      "outputs": [],
      "stateMutability": "nonpayable",
      "type": "function"
    },
    {
      "inputs": [
        {
          "internalType": "address",
          "name": "newValue",
          "type": "address"
        }
      ],
      "name": "updateDevAddr",
      "outputs": [],
      "stateMutability": "nonpayable",
      "type": "function"
    },
    {
      "inputs": [
        {
          "internalType": "uint256",
          "name": "newValue",
          "type": "uint256"
        }
      ],
      "name": "updateDevFee",
      "outputs": [],
      "stateMutability": "nonpayable",
      "type": "function"
    },
    {
      "inputs": [
        {
          "internalType": "uint256",
          "name": "newValue",
          "type": "uint256"
        }
      ],
      "name": "updateMaxTokensToDepositWithoutReinvest",
      "outputs": [],
      "stateMutability": "nonpayable",
      "type": "function"
    },
    {
      "inputs": [
        {
          "internalType": "uint256",
          "name": "newValue",
          "type": "uint256"
        }
      ],
      "name": "updateMinTokensToReinvest",
      "outputs": [],
      "stateMutability": "nonpayable",
      "type": "function"
    },
    {
      "inputs": [
        {
          "internalType": "uint256",
          "name": "newValue",
          "type": "uint256"
        }
      ],
      "name": "updateReinvestReward",
      "outputs": [],
      "stateMutability": "nonpayable",
      "type": "function"
    },
    {
      "inputs": [
        {
          "internalType": "address",
          "name": "_swapPairToken0",
          "type": "address"
        },
        {
          "internalType": "address",
          "name": "_swapPairToken1",
          "type": "address"
        },
        {
          "internalType": "uint256",
          "name": "_swapFeeToken0",
          "type": "uint256"
        },
        {
          "internalType": "uint256",
          "name": "_swapFeeToken1",
          "type": "uint256"
        }
      ],
      "name": "updateSwapPairs",
      "outputs": [],
      "stateMutability": "nonpayable",
      "type": "function"
    },
    {
      "inputs": [
        {
          "internalType": "uint256",
          "name": "_amount",
          "type": "uint256"
        }
      ],
      "name": "withdraw",
      "outputs": [],
      "stateMutability": "nonpayable",
      "type": "function"
    }
  ],
  "transactionHash": "0x450e67bc0711ed5102823c15feb8eb5cb524355d34697bffc4993ce727a869d0",
  "args": [
    {
      "gauge": "0xe68B719EDb685D63C58a133005f0fb307Eb5F289",
      "swapPairToken0": "0xa13403733dB5C101490436CfFF012F6ac93A6097",
      "swapFeeToken0": 20,
      "swapPairToken1": "0x0000000000000000000000000000000000000000",
      "swapFeeToken1": 0,
      "boosterFeeCollector": "0x0000000000000000000000000000000000000000"
    },
    {
      "name": "Yield Yak: GLCR vAMM-YAK/WAVAX",
      "platformToken": "0xB31f66AA3C1e785363F0875A1B74E27b85FD66c7",
      "rewardSwapPairs": [
        {
          "reward": "0x59414b3089ce2AF0010e7523Dea7E2b35d776ec7",
          "swapPair": "0xa13403733dB5C101490436CfFF012F6ac93A6097",
          "swapFee": "20"
        },
        {
          "reward": "0xB31f66AA3C1e785363F0875A1B74E27b85FD66c7",
          "swapPair": "0x0000000000000000000000000000000000000000",
          "swapFee": "0"
        },
        {
          "reward": "0x3712871408a829C5cd4e86DA1f4CE727eFCD28F6",
          "swapPair": "0x2071A39DA7450d68e4F4902774203DF208860Da2",
          "swapFee": "20"
        }
      ],
      "timelock": "0xDcEDF06Fd33E1D7b6eb4b309f779a0e9D3172e44"
    },
    {
      "depositToken": "0xa13403733dB5C101490436CfFF012F6ac93A6097",
      "rewardToken": "0xB31f66AA3C1e785363F0875A1B74E27b85FD66c7",
      "minTokensToReinvest": "100000000000",
      "devFeeBips": 700,
      "reinvestRewardBips": 300
    }
  ],
  "solcInputHash": "91505798ac20c6d76199125b2ea9d551",
  "bytecode": "0x6101406040526009610100819052685969656c642059616b60b81b6101209081526200002f916000919062000a29565b506040805180820190915260038082526216549560ea1b60209092019182526200005c9160019162000a29565b503480156200006a57600080fd5b5060405162005e7838038062005e788339810160408190526200008d9162000e0f565b600680546001600160a01b0319163390811790915560405183918391829190819060009060008051602062005e58833981519152908290a35080516001600160a01b0390811660805260208201511660a0526040810151620000ef90620002cb565b6060810151620000ff906200035b565b60808101516200010f9062000406565b5081518051620001289160009160209091019062000a29565b5060208201516001600160a01b031660c052600980546001600160a01b031916732d580f9cf2fb2d09bc411532988f2afda4e7beff17905560005b8260400151518110156200020557620001f0836040015182815181106200018e576200018e62000ee1565b60200260200101516000015184604001518381518110620001b357620001b362000ee1565b60200260200101516020015185604001518481518110620001d857620001d862000ee1565b602002602001015160400151620004b160201b60201c565b80620001fc8162000f0d565b91505062000163565b506200021260016200065d565b6060820151620002229062000707565b60408051600080825260208201527fc7606d21ac05cd309191543e409f0845c016120563783d70e4f41419dc0ef234910160405180910390a1505082516001600160a01b0390811660e0526020840151601480546001600160a01b031990811692841692909217905560608501516015805483169184169190911790556040850151601655608085015160175560a090940151601380549095169116179092555062000fa59050565b6006546001600160a01b031633146200031a5760405162461bcd60e51b8152602060048201819052602482015260008051602062005e3883398151915260448201526064015b60405180910390fd5b600a5460408051918252602082018390527f481f79ac3a523b6d6db3c5a720e190e986d1cc1b41adcdf50f9caef849901100910160405180910390a1600a55565b6006546001600160a01b03163314620003a65760405162461bcd60e51b8152602060048201819052602482015260008051602062005e38833981519152604482015260640162000311565b612710600e5482620003b9919062000f29565b1115620003c557600080fd5b600f5460408051918252602082018390527f2a42303d002f0ba6cfe8259c91d4684443fb0b3de286ba74991175d651726131910160405180910390a1600f55565b6006546001600160a01b03163314620004515760405162461bcd60e51b8152602060048201819052602482015260008051602062005e38833981519152604482015260640162000311565b612710600f548262000464919062000f29565b11156200047057600080fd5b600e5460408051918252602082018390527fe7f97d51d307dc44045597c9978bec0f842e6bb40d19b9444084cfa30d9ed4f2910160405180910390a1600e55565b60a0516001600160a01b0316836001600160a01b0316146200055d57620004e7828460a0516200080460201b6200264a1760201c565b6200055d576040805162461bcd60e51b81526020600482015260248101919091527f5661726961626c655265776172647353747261746567793a3a5377617020706160448201527f697220646f6573206e6f7420636f6e7461696e2072657761726420746f6b656e606482015260840162000311565b604080516060810182526001600160a01b03808616808352858216602080850191825284860187815260008481526010909252958120945185549085166001600160a01b03199182161786559151600180870180549290961691841691909117909455945160029094019390935560118054808401825594527f31ecc21a745e3968a04e9570e4425bc18fa8019c68028196b546d1669c200c6890930180549092169092179055601254620006129162000f29565b601255604080516001600160a01b038086168252841660208201527f916e172c080569186aa7ea048268267257cf7cc49505908863f747bca8620f80910160405180910390a1505050565b6006546001600160a01b03163314620006a85760405162461bcd60e51b8152602060048201819052602482015260008051602062005e38833981519152604482015260640162000311565b600c5481151560ff909116151503620006c057600080fd5b600c805460ff19168215159081179091556040519081527f7b014ed3854e7f5cb0218d58b3c6ae7d53a68bb0af2f67bfb029ea42c38a7e859060200160405180910390a150565b6006546001600160a01b03163314620007525760405162461bcd60e51b8152602060048201819052602482015260008051602062005e38833981519152604482015260640162000311565b6001600160a01b038116620007b95760405162461bcd60e51b815260206004820152602660248201527f4f776e61626c653a206e6577206f776e657220697320746865207a65726f206160448201526564647265737360d01b606482015260840162000311565b6006546040516001600160a01b0380841692169060008051602062005e5883398151915290600090a3600680546001600160a01b0319166001600160a01b0392909216919091179055565b6000836001600160a01b0316630dfe16816040518163ffffffff1660e01b8152600401602060405180830381865afa15801562000845573d6000803e3d6000fd5b505050506040513d601f19601f820116820180604052508101906200086b919062000f44565b6001600160a01b0316836001600160a01b03161480620009005750836001600160a01b031663d21220a76040518163ffffffff1660e01b8152600401602060405180830381865afa158015620008c5573d6000803e3d6000fd5b505050506040513d601f19601f82011682018060405250810190620008eb919062000f44565b6001600160a01b0316836001600160a01b0316145b801562000a025750836001600160a01b0316630dfe16816040518163ffffffff1660e01b8152600401602060405180830381865afa15801562000947573d6000803e3d6000fd5b505050506040513d601f19601f820116820180604052508101906200096d919062000f44565b6001600160a01b0316826001600160a01b0316148062000a025750836001600160a01b031663d21220a76040518163ffffffff1660e01b8152600401602060405180830381865afa158015620009c7573d6000803e3d6000fd5b505050506040513d601f19601f82011682018060405250810190620009ed919062000f44565b6001600160a01b0316826001600160a01b0316145b801562000a215750816001600160a01b0316836001600160a01b031614155b949350505050565b82805462000a379062000f69565b90600052602060002090601f01602090048101928262000a5b576000855562000aa6565b82601f1062000a7657805160ff191683800117855562000aa6565b8280016001018555821562000aa6579182015b8281111562000aa657825182559160200191906001019062000a89565b5062000ab492915062000ab8565b5090565b5b8082111562000ab4576000815560010162000ab9565b634e487b7160e01b600052604160045260246000fd5b604051606081016001600160401b038111828210171562000b0a5762000b0a62000acf565b60405290565b604051608081016001600160401b038111828210171562000b0a5762000b0a62000acf565b60405160c081016001600160401b038111828210171562000b0a5762000b0a62000acf565b604051601f8201601f191681016001600160401b038111828210171562000b855762000b8562000acf565b604052919050565b80516001600160a01b038116811462000ba557600080fd5b919050565b600082601f83011262000bbc57600080fd5b815160206001600160401b0382111562000bda5762000bda62000acf565b62000bea818360051b0162000b5a565b8281526060928302850182019282820191908785111562000c0a57600080fd5b8387015b8581101562000c685781818a03121562000c285760008081fd5b62000c3262000ae5565b62000c3d8262000b8d565b815262000c4c86830162000b8d565b8187015260408281015190820152845292840192810162000c0e565b5090979650505050505050565b60006080828403121562000c8857600080fd5b62000c9262000b10565b82519091506001600160401b038082111562000cad57600080fd5b818401915084601f83011262000cc257600080fd5b81518181111562000cd75762000cd762000acf565b602062000ced601f8301601f1916820162000b5a565b828152878284870101111562000d0257600080fd5b60005b8381101562000d2257858101830151828201840152820162000d05565b8381111562000d345760008385840101525b50855262000d4486820162000b8d565b9085015250604084015191508082111562000d5e57600080fd5b5062000d6d8482850162000baa565b60408301525062000d816060830162000b8d565b606082015292915050565b600060a0828403121562000d9f57600080fd5b60405160a081016001600160401b038111828210171562000dc45762000dc462000acf565b60405290508062000dd58362000b8d565b815262000de56020840162000b8d565b60208201526040830151604082015260608301516060820152608083015160808201525092915050565b600080600083850361018081121562000e2757600080fd5b60c081121562000e3657600080fd5b5062000e4162000b35565b62000e4c8562000b8d565b815262000e5c6020860162000b8d565b60208201526040850151604082015262000e796060860162000b8d565b60608201526080850151608082015262000e9660a0860162000b8d565b60a082015260c08501519093506001600160401b0381111562000eb857600080fd5b62000ec68682870162000c75565b92505062000ed88560e0860162000d8c565b90509250925092565b634e487b7160e01b600052603260045260246000fd5b634e487b7160e01b600052601160045260246000fd5b60006001820162000f225762000f2262000ef7565b5060010190565b6000821982111562000f3f5762000f3f62000ef7565b500190565b60006020828403121562000f5757600080fd5b62000f628262000b8d565b9392505050565b600181811c9082168062000f7e57607f821691505b60208210810362000f9f57634e487b7160e01b600052602260045260246000fd5b50919050565b60805160a05160c05160e051614d8e620010aa600039600081816108380152818161132d01528181612add01528181613063015281816131a601528181613a0701528181613f250152613ff8015260008181611e5701528181613c6a01528181613c990152613d0e0152600081816109e401528181611de801528181611e8101528181611eeb0152818161206401528181612e8d01528181612ecb0152818161360b0152818161366601528181613bbe01528181613d3801528181613e180152613ea90152600081816108d101528181610c7101528181610da201528181611b6201528181611bf701528181612d3c01528181613ecb0152613f540152614d8e6000f3fe608060405234801561001057600080fd5b50600436106104575760003560e01c80638183723011610250578063b6b55f2511610150578063dd62ed3e116100c8578063eab89a5a11610097578063f2fde38b1161007c578063f2fde38b146109cc578063f7c618c1146109df578063fdb5a03e14610a0657600080fd5b8063eab89a5a146109b1578063ed24911d146109c457600080fd5b8063dd62ed3e1461093f578063dd8ce4d614610978578063e21ac8251461098b578063e75ab0451461099e57600080fd5b8063c89039c51161011f578063d0ed26ae11610104578063d0ed26ae14610906578063d505accf14610919578063da09c72c1461092c57600080fd5b8063c89039c5146108cc578063cff1b6ef146108f357600080fd5b8063b6b55f25146108a0578063b9e57b80146108b3578063bd079f55146108bb578063c4b24a46146108c457600080fd5b80639e4e7318116101e3578063a6f19c84116101b2578063a9059cbb11610197578063a9059cbb1461086d578063ac0d31ff14610880578063b52a321f1461089357600080fd5b8063a6f19c8414610833578063a8ae2b7c1461085a57600080fd5b80639e4e731814610784578063a4d5e67c146107ab578063a5534e71146107be578063a5de848a1461082057600080fd5b80638da5cb5b1161021f5780638da5cb5b146107455780639291d5631461075657806395d89b411461076957806399729ec11461077157600080fd5b806381837230146107035780638980f11f146107165780638aff733d146107295780638b73e6061461073257600080fd5b80633bdc6e721161035b5780636c8b4b52116102ee578063789139bc116102bd5780637ae26773116102a25780637ae26773146106c85780637d882097146106db5780637ecebe00146106e357600080fd5b8063789139bc146106b657806379085425146106bf57600080fd5b80636c8b4b521461065f5780636f5b98951461067257806370a0823114610685578063715018a6146106ae57600080fd5b80634bebd1e71161032a5780634bebd1e71461061d5780634e77ace5146106305780634ebb7916146106435780635ea682ea1461065657600080fd5b80633bdc6e72146105cb57806340b47e1a146105d4578063483c2ef0146105e75780634a970be71461060a57600080fd5b80631b536e16116103ee57806327fccb39116103bd5780632f4f21e2116103a25780632f4f21e21461057757806330adf81f1461058a578063313ce567146105b157600080fd5b806327fccb39146105595780632e1a7d4d1461056257600080fd5b80631b536e161461050c57806320606b701461051f57806323b872dd14610546578063247d284b146104f057600080fd5b80630f23475d1161042a5780630f23475d146104bd5780630fccc400146104c557806311056035146104f057806318160ddd1461050357600080fd5b806306fdde031461045c578063076771111461047a578063095ea7b3146104915780630a457cdd146104b4575b600080fd5b610464610a0e565b604051610471919061478a565b60405180910390f35b610483600d5481565b604051908152602001610471565b6104a461049f3660046147b2565b610a9c565b6040519015158152602001610471565b61048360165481565b610483610ab2565b6013546104d8906001600160a01b031681565b6040516001600160a01b039091168152602001610471565b6104836104fe3660046147de565b610add565b61048360025481565b6015546104d8906001600160a01b031681565b6104837f8b73c3c69bb8fe3d512ecc4cf759cc79239f7b179b0ffacaa9a75d522b39400f81565b6104a46105543660046147f7565b610aee565b61048360175481565b6105756105703660046147de565b610bb7565b005b6105756105853660046147b2565b610cde565b6104837f6e71edae12b1b97f4d1f60370fef10105fa2faae0126114a169c64845d6126c981565b6105b9601281565b60405160ff9091168152602001610471565b61048360075481565b6105756105e2366004614838565b610cec565b6104a46105f5366004614871565b60086020526000908152604090205460ff1681565b6105756106183660046148a4565b610d49565b61057561062b366004614871565b610e17565b61057561063e3660046148f9565b610f34565b6105756106513660046147de565b610fdb565b610483600f5481565b61057561066d366004614871565b611095565b610575610680366004614916565b611108565b610483610693366004614871565b6001600160a01b031660009081526004602052604090205490565b6105756111bf565b610483600b5481565b61048360125481565b6105756106d6366004614838565b611251565b610483611315565b6104836106f1366004614871565b60056020526000908152604090205481565b6105756107113660046147de565b6113a5565b6105756107243660046147b2565b61142e565b610483600e5481565b610575610740366004614871565b6114de565b6006546001600160a01b03166104d8565b610575610764366004614871565b61169a565b610464611754565b61057561077f3660046147de565b611761565b6104837fc89efdaa54c0f20c7adf612882df0950f5a951637e0307cdcb4c672f298b8bc681565b6105756107b9366004614871565b611806565b6107fa6107cc366004614871565b6010602052600090815260409020805460018201546002909201546001600160a01b03918216929091169083565b604080516001600160a01b03948516815293909216602084015290820152606001610471565b6014546104d8906001600160a01b031681565b6104d87f000000000000000000000000000000000000000000000000000000000000000081565b6105756108683660046147de565b611a50565b6104a461087b3660046147b2565b611af5565b61057561088e36600461495c565b611b02565b600c546104a49060ff1681565b6105756108ae3660046147de565b611d6e565b610483611d7b565b610483600a5481565b610483611dba565b6104d87f000000000000000000000000000000000000000000000000000000000000000081565b6105756109013660046147de565b6120fa565b6105756109143660046147f7565b61218e565b610575610927366004614981565b6121ef565b6009546104d8906001600160a01b031681565b61048361094d366004614838565b6001600160a01b03918216600090815260036020908152604080832093909416825291909152205490565b6104836109863660046147de565b612302565b6105756109993660046147de565b612342565b6104d86109ac3660046147de565b6123cb565b6104836109bf3660046147de565b6123f5565b61048361242f565b6105756109da366004614871565b6124cf565b6104d87f000000000000000000000000000000000000000000000000000000000000000081565b6105756125ef565b60008054610a1b906149ef565b80601f0160208091040260200160405190810160405280929190818152602001828054610a47906149ef565b8015610a945780601f10610a6957610100808354040283529160200191610a94565b820191906000526020600020905b815481529060010190602001808311610a7757829003601f168201915b505050505081565b6000610aa933848461285f565b50600192915050565b600080610abd611315565b90506000610aca8261296d565b9050610ad68183614a3f565b9250505090565b6000610ae88261296d565b92915050565b6001600160a01b038316600081815260036020908152604080832033808552925282205491929091908214801590610b2857506000198114155b15610b9e576000610b398583614a3f565b6001600160a01b038881166000818152600360209081526040808320948916808452948252918290208590559051848152939450919290917f8c5be1e5ebec7d5bd14f71427d1e84f3dd0314c0f7b2291e5b200ac8c7c3b925910160405180910390a3505b610ba9868686612987565b6001925050505b9392505050565b6000610bc2826123f5565b905060008111610c3f5760405162461bcd60e51b815260206004820152603060248201527f5661726961626c655265776172647353747261746567793a3a5769746864726160448201527f7720616d6f756e7420746f6f206c6f770000000000000000000000000000000060648201526084015b60405180910390fd5b6000610c4a82612aab565b90506000610c578361296d565b9050610c9833610c678385614a3f565b6001600160a01b037f0000000000000000000000000000000000000000000000000000000000000000169190612b47565b610ca23385612bc7565b60405183815233907f884edad9ce6fa2440d8a54cc123490eb96d2768479d49ff9c7366125a9424364906020015b60405180910390a250505050565b610ce88282612c5b565b5050565b6009546001600160a01b03163314610d3d5760405162461bcd60e51b81526020600482015260146024820152732cb0b5a9ba3930ba32b3bc9d1d37b7363ca232bb60611b6044820152606401610c36565b610ce88282601e612e8b565b6040517fd505accf000000000000000000000000000000000000000000000000000000008152336004820152306024820152604481018690526064810185905260ff8416608482015260a4810183905260c481018290527f00000000000000000000000000000000000000000000000000000000000000006001600160a01b03169063d505accf9060e401600060405180830381600087803b158015610dee57600080fd5b505af1158015610e02573d6000803e3d6000fd5b50505050610e103386612c5b565b5050505050565b6006546001600160a01b03163314610e5f5760405162461bcd60e51b81526020600482018190526024820152600080516020614d398339815191526044820152606401610c36565b6001600160a01b03811660009081526008602052604090205460ff1615610ec85760405162461bcd60e51b815260206004820152601c60248201527f5065726d697373696f6e65643a3a616c6c6f774465706f7369746f72000000006044820152606401610c36565b6001600160a01b0381166000908152600860205260409020805460ff19166001908117909155600754610efa91614a56565b6007556040516001600160a01b038216907fc0a1035c16faf8d1304056d92c00edf028f87e62b8235a938f00af9e3c0312c590600090a250565b6006546001600160a01b03163314610f7c5760405162461bcd60e51b81526020600482018190526024820152600080516020614d398339815191526044820152606401610c36565b600c5481151560ff909116151503610f9357600080fd5b600c805460ff19168215159081179091556040519081527f7b014ed3854e7f5cb0218d58b3c6ae7d53a68bb0af2f67bfb029ea42c38a7e85906020015b60405180910390a150565b6006546001600160a01b031633146110235760405162461bcd60e51b81526020600482018190526024820152600080516020614d398339815191526044820152606401610c36565b6000811161103057600080fd5b604051339082156108fc029083906000818181858888f1935050505015801561105d573d6000803e3d6000fd5b506040805160008152602081018390527f8c1256b8896378cd5044f80c202f9772b9d77dc85c8a6eb51967210b09bfaa289101610fd0565b6009546001600160a01b031633146110e65760405162461bcd60e51b81526020600482015260146024820152732cb0b5a9ba3930ba32b3bc9d1d37b7363ca232bb60611b6044820152606401610c36565b601380546001600160a01b0319166001600160a01b0392909216919091179055565b6009546001600160a01b031633146111595760405162461bcd60e51b81526020600482015260146024820152732cb0b5a9ba3930ba32b3bc9d1d37b7363ca232bb60611b6044820152606401610c36565b6001600160a01b0384161561118957601480546001600160a01b0319166001600160a01b03861617905560168290555b6001600160a01b038316156111b957601580546001600160a01b0319166001600160a01b03851617905560178190555b50505050565b6006546001600160a01b031633146112075760405162461bcd60e51b81526020600482018190526024820152600080516020614d398339815191526044820152606401610c36565b6006546040516000916001600160a01b0316907f8be0079c531659141344cd1fd0a4f28419497f9722a3daafe3b4186f6b6457e0908390a3600680546001600160a01b0319169055565b6006546001600160a01b031633146112995760405162461bcd60e51b81526020600482018190526024820152600080516020614d398339815191526044820152606401610c36565b60405163095ea7b360e01b81526001600160a01b0382811660048301526000602483015283169063095ea7b3906044016020604051808303816000875af11580156112e8573d6000803e3d6000fd5b505050506040513d601f19601f8201168201806040525081019061130c9190614a6e565b610ce857600080fd5b6040516370a0823160e01b81523060048201526000907f00000000000000000000000000000000000000000000000000000000000000006001600160a01b0316906370a0823190602401602060405180830381865afa15801561137c573d6000803e3d6000fd5b505050506040513d601f19601f820116820180604052508101906113a09190614a8b565b905090565b6006546001600160a01b031633146113ed5760405162461bcd60e51b81526020600482018190526024820152600080516020614d398339815191526044820152606401610c36565b600a5460408051918252602082018390527f481f79ac3a523b6d6db3c5a720e190e986d1cc1b41adcdf50f9caef849901100910160405180910390a1600a55565b6006546001600160a01b031633146114765760405162461bcd60e51b81526020600482018190526024820152600080516020614d398339815191526044820152606401610c36565b6000811161148357600080fd5b6114976001600160a01b0383163383612b47565b604080516001600160a01b0384168152602081018390527f8c1256b8896378cd5044f80c202f9772b9d77dc85c8a6eb51967210b09bfaa2891015b60405180910390a15050565b6006546001600160a01b031633146115265760405162461bcd60e51b81526020600482018190526024820152600080516020614d398339815191526044820152606401610c36565b60006007541161159e5760405162461bcd60e51b815260206004820152603460248201527f5065726d697373696f6e65643a3a72656d6f76654465706f7369746f722c206e60448201527f6f20616c6c6f776564206465706f7369746f72730000000000000000000000006064820152608401610c36565b6001600160a01b03811660009081526008602052604090205460ff1615156001146116315760405162461bcd60e51b815260206004820152602a60248201527f5065726d697373696f6e65643a3a72656d6f76654465706f7369746f722c206e60448201527f6f7420616c6c6f776564000000000000000000000000000000000000000000006064820152608401610c36565b6001600160a01b0381166000908152600860205260409020805460ff1916905560075461166090600190614a3f565b6007556040516001600160a01b038216907f0e86f6608b536e5339a25b65ff531f5ea91e1313d056ecd4752b35cbd16137d490600090a250565b6009546001600160a01b031633146116eb5760405162461bcd60e51b81526020600482015260146024820152732cb0b5a9ba3930ba32b3bc9d1d37b7363ca232bb60611b6044820152606401610c36565b600954604080516001600160a01b03928316815291831660208301527fa8e91499ed37682f43cffb045fcc7d379a91e8c9a14e6321877ee34dee564c00910160405180910390a1600980546001600160a01b0319166001600160a01b0392909216919091179055565b60018054610a1b906149ef565b6006546001600160a01b031633146117a95760405162461bcd60e51b81526020600482018190526024820152600080516020614d398339815191526044820152606401610c36565b612710600e54826117ba9190614a56565b11156117c557600080fd5b600f5460408051918252602082018390527f2a42303d002f0ba6cfe8259c91d4684443fb0b3de286ba74991175d651726131910160405180910390a1600f55565b6009546001600160a01b031633146118575760405162461bcd60e51b81526020600482015260146024820152732cb0b5a9ba3930ba32b3bc9d1d37b7363ca232bb60611b6044820152606401610c36565b6001600160a01b038116600090815260106020526040812080546001600160a01b031990811682556001820180549091169055600201819055805b60115481101561195e57601181815481106118af576118af614aa4565b6000918252602090912001546001600160a01b039081169084160361194c5760118054600193506118e1908490614a3f565b815481106118f1576118f1614aa4565b600091825260209091200154601180546001600160a01b03909216918390811061191d5761191d614aa4565b9060005260206000200160006101000a8154816001600160a01b0302191690836001600160a01b031602179055505b8061195681614aba565b915050611892565b50806119d25760405162461bcd60e51b815260206004820152603460248201527f5661726961626c655265776172647353747261746567793a3a5265776172642060448201527f746f2064656c657465206e6f7420666f756e64210000000000000000000000006064820152608401610c36565b60118054806119e3576119e3614ad3565b600082815260209020810160001990810180546001600160a01b0319169055019055601254611a1490600190614a3f565b6012556040516001600160a01b03831681527f963b7c735475147a62c589c2d7cb8ec4b0a6b7af4f97373d79ebfa42ab8aa7dc906020016114d2565b6006546001600160a01b03163314611a985760405162461bcd60e51b81526020600482018190526024820152600080516020614d398339815191526044820152606401610c36565b612710600f5482611aa99190614a56565b1115611ab457600080fd5b600e5460408051918252602082018390527fe7f97d51d307dc44045597c9978bec0f842e6bb40d19b9444084cfa30d9ed4f2910160405180910390a1600e55565b6000610aa9338484612987565b6006546001600160a01b03163314611b4a5760405162461bcd60e51b81526020600482018190526024820152600080516020614d398339815191526044820152606401610c36565b6040516370a0823160e01b81523060048201526000907f00000000000000000000000000000000000000000000000000000000000000006001600160a01b0316906370a0823190602401602060405180830381865afa158015611bb1573d6000803e3d6000fd5b505050506040513d601f19601f82011682018060405250810190611bd59190614a8b565b9050611bdf613061565b6040516370a0823160e01b81523060048201526000907f00000000000000000000000000000000000000000000000000000000000000006001600160a01b0316906370a0823190602401602060405180830381865afa158015611c46573d6000803e3d6000fd5b505050506040513d601f19601f82011682018060405250810190611c6a9190614a8b565b905083611c778383614a3f565b1015611d115760405162461bcd60e51b815260206004820152604d60248201527f5661726961626c655265776172647353747261746567793a3a456d657267656e60448201527f6379207769746864726177206d696e696d756d2072657475726e20616d6f756e60648201527f74206e6f74207265616368656400000000000000000000000000000000000000608482015260a401610c36565b7fc7606d21ac05cd309191543e409f0845c016120563783d70e4f41419dc0ef234611d3a611315565b6002546040805192835260208301919091520160405180910390a1600c5460ff1615156001036111b9576111b96000610f34565b611d783382612c5b565b50565b600080611d86611dba565b9050600a548110611db257612710600e5482611da29190614ae9565b611dac9190614b08565b91505090565b600091505090565b600080611dc56130d0565b6040516370a0823160e01b81523060048201529091506000906001600160a01b037f000000000000000000000000000000000000000000000000000000000000000016906370a0823190602401602060405180830381865afa158015611e2f573d6000803e3d6000fd5b505050506040513d601f19601f82011682018060405250810190611e539190614a8b565b90507f00000000000000000000000000000000000000000000000000000000000000006001600160a01b03167f00000000000000000000000000000000000000000000000000000000000000006001600160a01b031603611ebb57611eb84782614a56565b90505b60005b82518110156120f3576000838281518110611edb57611edb614aa4565b60200260200101516000015190507f00000000000000000000000000000000000000000000000000000000000000006001600160a01b0316816001600160a01b031603611f5257838281518110611f3457611f34614aa4565b60200260200101516020015183611f4b9190614a56565b92506120e0565b6001600160a01b038116156120e0576040516370a0823160e01b81523060048201526000906001600160a01b038316906370a0823190602401602060405180830381865afa158015611fa8573d6000803e3d6000fd5b505050506040513d601f19601f82011682018060405250810190611fcc9190614a8b565b90506000858481518110611fe257611fe2614aa4565b60200260200101516020015182611ff99190614a56565b905060006010600088878151811061201357612013614aa4565b602090810291909101810151516001600160a01b0390811683529082019290925260400160002060010154169050811580159061205857506001600160a01b03811615155b156120dc576120cf82857f000000000000000000000000000000000000000000000000000000000000000084601060008d8c8151811061209a5761209a614aa4565b6020026020010151600001516001600160a01b03166001600160a01b0316815260200190815260200160002060020154613324565b6120d99087614a56565b95505b5050505b50806120eb81614aba565b915050611ebe565b5092915050565b6006546001600160a01b031633146121425760405162461bcd60e51b81526020600482018190526024820152600080516020614d398339815191526044820152606401610c36565b801561214d57600080fd5b600d5460408051918252602082018390527f3cc372f330f95ac9540626dc8a25f5bf21ba607215a5d58304cb804d446f104a910160405180910390a1600d55565b6009546001600160a01b031633146121df5760405162461bcd60e51b81526020600482015260146024820152732cb0b5a9ba3930ba32b3bc9d1d37b7363ca232bb60611b6044820152606401610c36565b6121ea838383612e8b565b505050565b4284101561223f5760405162461bcd60e51b815260206004820152600f60248201527f7065726d69743a3a6578706972656400000000000000000000000000000000006044820152606401610c36565b6001600160a01b038716600090815260056020526040812080547f6e71edae12b1b97f4d1f60370fef10105fa2faae0126114a169c64845d6126c9918a918a918a91908661228c83614aba565b909155506040805160208101969096526001600160a01b0394851690860152929091166060840152608083015260a082015260c0810186905260e0016040516020818303038152906040528051906020012090506122ed88828686866133e4565b6122f888888861285f565b5050505050505050565b60006002546000148061231a5750612318611315565b155b15612323575090565b61232b611315565b6002546123389084614ae9565b610ae89190614b08565b6006546001600160a01b0316331461238a5760405162461bcd60e51b81526020600482018190526024820152600080516020614d398339815191526044820152606401610c36565b600b5460408051918252602082018390527fa5dae50539d56dfe1fb5273d883b0c39bc76750a25d036fc5fbd09ad8fd5f57f910160405180910390a1600b55565b601181815481106123db57600080fd5b6000918252602090912001546001600160a01b0316905081565b60006002546000148061240d575061240b611315565b155b1561241a57506000919050565b600254612425611315565b6123389084614ae9565b60007f8b73c3c69bb8fe3d512ecc4cf759cc79239f7b179b0ffacaa9a75d522b39400f60001b60006040516124649190614b2a565b6040519081900390207fc89efdaa54c0f20c7adf612882df0950f5a951637e0307cdcb4c672f298b8bc646604080516020810195909552840192909252606083015260808201523060a082015260c00160405160208183030381529060405280519060200120905090565b6006546001600160a01b031633146125175760405162461bcd60e51b81526020600482018190526024820152600080516020614d398339815191526044820152606401610c36565b6001600160a01b0381166125935760405162461bcd60e51b815260206004820152602660248201527f4f776e61626c653a206e6577206f776e657220697320746865207a65726f206160448201527f64647265737300000000000000000000000000000000000000000000000000006064820152608401610c36565b6006546040516001600160a01b038084169216907f8be0079c531659141344cd1fd0a4f28419497f9722a3daafe3b4186f6b6457e090600090a3600680546001600160a01b0319166001600160a01b0392909216919091179055565b32331461263e5760405162461bcd60e51b815260206004820152601460248201527f59616b53747261746567793a3a6f6e6c79454f410000000000000000000000006044820152606401610c36565b6126486000613544565b565b6000836001600160a01b0316630dfe16816040518163ffffffff1660e01b8152600401602060405180830381865afa15801561268a573d6000803e3d6000fd5b505050506040513d601f19601f820116820180604052508101906126ae9190614bc5565b6001600160a01b0316836001600160a01b0316148061273f5750836001600160a01b031663d21220a76040518163ffffffff1660e01b8152600401602060405180830381865afa158015612706573d6000803e3d6000fd5b505050506040513d601f19601f8201168201806040525081019061272a9190614bc5565b6001600160a01b0316836001600160a01b0316145b80156128395750836001600160a01b0316630dfe16816040518163ffffffff1660e01b8152600401602060405180830381865afa158015612784573d6000803e3d6000fd5b505050506040513d601f19601f820116820180604052508101906127a89190614bc5565b6001600160a01b0316826001600160a01b031614806128395750836001600160a01b031663d21220a76040518163ffffffff1660e01b8152600401602060405180830381865afa158015612800573d6000803e3d6000fd5b505050506040513d601f19601f820116820180604052508101906128249190614bc5565b6001600160a01b0316826001600160a01b0316145b80156128575750816001600160a01b0316836001600160a01b031614155b949350505050565b6001600160a01b0383166128b55760405162461bcd60e51b815260206004820152601c60248201527f5f617070726f76653a3a6f776e6572207a65726f2061646472657373000000006044820152606401610c36565b6001600160a01b03821661290b5760405162461bcd60e51b815260206004820152601e60248201527f5f617070726f76653a3a7370656e646572207a65726f206164647265737300006044820152606401610c36565b6001600160a01b0383811660008181526003602090815260408083209487168084529482529182902085905590518481527f8c5be1e5ebec7d5bd14f71427d1e84f3dd0314c0f7b2291e5b200ac8c7c3b92591015b60405180910390a3505050565b60008061271061297d8285614ae9565b610bb09190614b08565b6001600160a01b038216612a035760405162461bcd60e51b815260206004820152603460248201527f5f7472616e73666572546f6b656e733a2063616e6e6f74207472616e7366657260448201527f20746f20746865207a65726f20616464726573730000000000000000000000006064820152608401610c36565b6001600160a01b038316600090815260046020526040902054612a27908290614a3f565b6001600160a01b038085166000908152600460205260408082209390935590841681522054612a57908290614a56565b6001600160a01b0380841660008181526004602052604090819020939093559151908516907fddf252ad1be2c89b69c2b068fc378daa952ba7f163c4a11628f55a4df523b3ef906129609085815260200190565b6040517f2e1a7d4d000000000000000000000000000000000000000000000000000000008152600481018290526000907f00000000000000000000000000000000000000000000000000000000000000006001600160a01b031690632e1a7d4d90602401600060405180830381600087803b158015612b2957600080fd5b505af1158015612b3d573d6000803e3d6000fd5b5093949350505050565b604080516001600160a01b038416602482015260448082018490528251808303909101815260649091019091526020810180517bffffffffffffffffffffffffffffffffffffffffffffffffffffffff167fa9059cbb000000000000000000000000000000000000000000000000000000001790526121ea908490613711565b6001600160a01b038216600090815260046020526040902054612beb908290614a3f565b6001600160a01b038316600090815260046020526040902055600254612c12908290614a3f565b6002556040518181526000906001600160a01b038416907fddf252ad1be2c89b69c2b068fc378daa952ba7f163c4a11628f55a4df523b3ef906020015b60405180910390a35050565b600c5460ff161515600114612cd85760405162461bcd60e51b815260206004820152602a60248201527f5661726961626c655265776172647353747261746567793a3a4465706f73697460448201527f732064697361626c6564000000000000000000000000000000000000000000006064820152608401610c36565b600b548015612d01576000612ceb611dba565b905081811115612cff57612cff6001613544565b505b6040517f23b872dd000000000000000000000000000000000000000000000000000000008152336004820152306024820152604481018390527f00000000000000000000000000000000000000000000000000000000000000006001600160a01b0316906323b872dd906064016020604051808303816000875af1158015612d8d573d6000803e3d6000fd5b505050506040513d601f19601f82011682018060405250810190612db19190614a6e565b612e235760405162461bcd60e51b815260206004820152603660248201527f5661726961626c655265776172647353747261746567793a3a4465706f73697460448201527f20746f6b656e207472616e73666572206661696c6564000000000000000000006064820152608401610c36565b6000612e2e8361296d565b9050612e4684612e416109868487614a3f565b6137f6565b612e5083826138cc565b836001600160a01b03167fe1fffcc4923d04b559f4d29a8bfc6cda04eb5b0d3c460751c2402c5c5cc9109c84604051610cd091815260200190565b7f00000000000000000000000000000000000000000000000000000000000000006001600160a01b0316836001600160a01b031614612f6357612eef82847f000000000000000000000000000000000000000000000000000000000000000061264a565b612f63576040805162461bcd60e51b81526020600482015260248101919091527f5661726961626c655265776172647353747261746567793a3a5377617020706160448201527f697220646f6573206e6f7420636f6e7461696e2072657761726420746f6b656e6064820152608401610c36565b604080516060810182526001600160a01b03808616808352858216602080850191825284860187815260008481526010909252958120945185549085166001600160a01b03199182161786559151600180870180549290961691841691909117909455945160029094019390935560118054808401825594527f31ecc21a745e3968a04e9570e4425bc18fa8019c68028196b546d1669c200c689093018054909216909217905560125461301691614a56565b601255604080516001600160a01b038086168252841660208201527f916e172c080569186aa7ea048268267257cf7cc49505908863f747bca8620f80910160405180910390a1505050565b7f00000000000000000000000000000000000000000000000000000000000000006001600160a01b031663853828b66040518163ffffffff1660e01b8152600401600060405180830381600087803b1580156130bc57600080fd5b505af11580156111b9573d6000803e3d6000fd5b60115460609060008167ffffffffffffffff8111156130f1576130f1614be2565b60405190808252806020026020018201604052801561313657816020015b604080518082019091526000808252602082015281526020019060019003908161310f5790505b50905060005b828110156120f35760006011828154811061315957613159614aa4565b60009182526020822001546040517f211dc32d0000000000000000000000000000000000000000000000000000000081526001600160a01b039182166004820181905230602483015293507f00000000000000000000000000000000000000000000000000000000000000009091169063211dc32d90604401602060405180830381865afa1580156131ef573d6000803e3d6000fd5b505050506040513d601f19601f820116820180604052508101906132139190614a8b565b90506001600160a01b038216733712871408a829c5cd4e86da1f4ce727efcd28f614801561324b57506013546001600160a01b031615155b156132d457601354604051633cb6bbcb60e21b8152306004820152602481018390526000916001600160a01b03169063f2daef2c906044016040805180830381865afa15801561329f573d6000803e3d6000fd5b505050506040513d601f19601f820116820180604052508101906132c39190614bf8565b5090506132d08183614a3f565b9150505b6040518060400160405280836001600160a01b031681526020018281525084848151811061330457613304614aa4565b60200260200101819052505050808061331c90614aba565b91505061313c565b600080613331868661394c565b509050600080856001600160a01b0316630902f1ac6040518163ffffffff1660e01b8152600401606060405180830381865afa158015613375573d6000803e3d6000fd5b505050506040513d601f19601f820116820180604052508101906133999190614c34565b5091509150876001600160a01b0316836001600160a01b0316146133b957905b6133d789836001600160701b0316836001600160701b03168861397d565b9998505050505050505050565b60006133ee61242f565b6040517f1901000000000000000000000000000000000000000000000000000000000000602082015260228101919091526042810186905260620160408051601f198184030181528282528051602091820120600080855291840180845281905260ff88169284019290925260608301869052608083018590529092509060019060a0016020604051602081039080840390855afa158015613494573d6000803e3d6000fd5b5050604051601f1901519150506001600160a01b038116158015906134ca5750866001600160a01b0316816001600160a01b0316145b61353b5760405162461bcd60e51b8152602060048201526024808201527f417263683a3a76616c69646174655369673a20696e76616c6964207369676e6160448201527f74757265000000000000000000000000000000000000000000000000000000006064820152608401610c36565b50505050505050565b61354c6139d7565b6000613556613b9c565b9050816135d557600a548110156135d55760405162461bcd60e51b815260206004820152603060248201527f5661726961626c655265776172647353747261746567793a3a5265696e76657360448201527f7420616d6f756e7420746f6f206c6f77000000000000000000000000000000006064820152608401610c36565b6000612710600f54836135e89190614ae9565b6135f29190614b08565b9050801561363457600954613634906001600160a01b037f00000000000000000000000000000000000000000000000000000000000000008116911683612b47565b6000612710600e54846136479190614ae9565b6136519190614b08565b9050801561368d5761368d6001600160a01b037f0000000000000000000000000000000000000000000000000000000000000000163383612b47565b60006136ac8261369d8587614a3f565b6136a79190614a3f565b613e92565b905060006136b98261296d565b90506136c582826138cc565b7fc7606d21ac05cd309191543e409f0845c016120563783d70e4f41419dc0ef2346136ee611315565b6002546040805192835260208301919091520160405180910390a1505050505050565b6000613766826040518060400160405280602081526020017f5361666545524332303a206c6f772d6c6576656c2063616c6c206661696c6564815250856001600160a01b0316613eff9092919063ffffffff16565b8051909150156121ea57808060200190518101906137849190614a6e565b6121ea5760405162461bcd60e51b815260206004820152602a60248201527f5361666545524332303a204552433230206f7065726174696f6e20646964206e60448201527f6f742073756363656564000000000000000000000000000000000000000000006064820152608401610c36565b600081116138465760405162461bcd60e51b815260206004820152601260248201527f5f6d696e743a3a7a65726f2073686172657300000000000000000000000000006044820152606401610c36565b806002546138549190614a56565b6002556001600160a01b03821660009081526004602052604090205461387b908290614a56565b6001600160a01b0383166000818152600460205260408082209390935591519091907fddf252ad1be2c89b69c2b068fc378daa952ba7f163c4a11628f55a4df523b3ef90612c4f9085815260200190565b600082116139425760405162461bcd60e51b815260206004820152602d60248201527f5661726961626c655265776172647353747261746567793a3a5374616b65206160448201527f6d6f756e7420746f6f206c6f77000000000000000000000000000000000000006064820152608401610c36565b610ce88282613f0e565b600080826001600160a01b0316846001600160a01b03161061396f578284613972565b83835b915091509250929050565b60008061398c83612710614a3f565b6139969087614ae9565b905060006139a48583614ae9565b90506000826139b561271089614ae9565b6139bf9190614a56565b90506139cb8183614b08565b98975050505050505050565b6040517f31279d3d0000000000000000000000000000000000000000000000000000000081526001600160a01b037f000000000000000000000000000000000000000000000000000000000000000016906331279d3d90613a3f903090601190600401614c84565b600060405180830381600087803b158015613a5957600080fd5b505af1158015613a6d573d6000803e3d6000fd5b50506013546001600160a01b03161591506126489050576040516370a0823160e01b8152306004820152600090733712871408a829c5cd4e86da1f4ce727efcd28f6906370a0823190602401602060405180830381865afa158015613ad6573d6000803e3d6000fd5b505050506040513d601f19601f82011682018060405250810190613afa9190614a8b565b601354604051633cb6bbcb60e21b81523060048201526024810183905291925060009182916001600160a01b03169063f2daef2c906044016040805180830381865afa158015613b4e573d6000803e3d6000fd5b505050506040513d601f19601f82011682018060405250810190613b729190614bf8565b909250905081156121ea576121ea733712871408a829c5cd4e86da1f4ce727efcd28f68284612b47565b6040516370a0823160e01b815230600482015260009081906001600160a01b037f000000000000000000000000000000000000000000000000000000000000000016906370a0823190602401602060405180830381865afa158015613c05573d6000803e3d6000fd5b505050506040513d601f19601f82011682018060405250810190613c299190614a8b565b60115490915060005b81811015613e8a57600060118281548110613c4f57613c4f614aa4565b6000918252602090912001546001600160a01b0390811691507f0000000000000000000000000000000000000000000000000000000000000000168103613d7a57478015613d0c577f00000000000000000000000000000000000000000000000000000000000000006001600160a01b031663d0e30db0826040518263ffffffff1660e01b81526004016000604051808303818588803b158015613cf257600080fd5b505af1158015613d06573d6000803e3d6000fd5b50505050505b7f00000000000000000000000000000000000000000000000000000000000000006001600160a01b03167f00000000000000000000000000000000000000000000000000000000000000006001600160a01b031603613d7857613d6f8186614a56565b94505050613e78565b505b6040516370a0823160e01b81523060048201526000906001600160a01b038316906370a0823190602401602060405180830381865afa158015613dc1573d6000803e3d6000fd5b505050506040513d601f19601f82011682018060405250810190613de59190614a8b565b90508015613e75576001600160a01b03808316600090815260106020526040902060010154168015613e7357613e6682847f00000000000000000000000000000000000000000000000000000000000000008460106000896001600160a01b03166001600160a01b0316815260200190815260200160002060020154614060565b613e709087614a56565b95505b505b50505b80613e8281614aba565b915050613c32565b509092915050565b601454601654601554601754600093610ae89386937f0000000000000000000000000000000000000000000000000000000000000000937f0000000000000000000000000000000000000000000000000000000000000000936001600160a01b03908116939216906141ef565b606061285784846000856143a5565b60405163095ea7b360e01b81526001600160a01b037f000000000000000000000000000000000000000000000000000000000000000081166004830152602482018490527f0000000000000000000000000000000000000000000000000000000000000000169063095ea7b3906044016020604051808303816000875af1158015613f9d573d6000803e3d6000fd5b505050506040513d601f19601f82011682018060405250810190613fc19190614a6e565b506040517fe2bbb15800000000000000000000000000000000000000000000000000000000815260048101839052600060248201527f00000000000000000000000000000000000000000000000000000000000000006001600160a01b03169063e2bbb15890604401600060405180830381600087803b15801561404457600080fd5b505af1158015614058573d6000803e3d6000fd5b505050505050565b60008061406d868661394c565b509050600080856001600160a01b0316630902f1ac6040518163ffffffff1660e01b8152600401606060405180830381865afa1580156140b1573d6000803e3d6000fd5b505050506040513d601f19601f820116820180604052508101906140d59190614c34565b5091509150876001600160a01b0316836001600160a01b0316146140f557905b6000806141168b856001600160701b0316856001600160701b03168a61397d565b9050896001600160a01b0316856001600160a01b03161461413357905b6141476001600160a01b038b16898d612b47565b604080516000815260208101918290527f022c0d9f000000000000000000000000000000000000000000000000000000009091526001600160a01b0389169063022c0d9f9061419f9085908590309060248101614ce4565b600060405180830381600087803b1580156141b957600080fd5b505af11580156141cd573d6000803e3d6000fd5b505050508181116141de57816141e0565b805b9b9a5050505050505050505050565b6000806141fd60028a614b08565b9050600081116142755760405162461bcd60e51b815260206004820152602f60248201527f4465784c6962726172793a3a5f636f6e76657274526577617264546f6b656e7360448201527f546f4465706f736974546f6b656e7300000000000000000000000000000000006064820152608401610c36565b6000876001600160a01b0316630dfe16816040518163ffffffff1660e01b8152600401602060405180830381865afa1580156142b5573d6000803e3d6000fd5b505050506040513d601f19601f820116820180604052508101906142d99190614bc5565b9050816001600160a01b038a8116908316146142ff576142fc838b848b8b614060565b90505b6000896001600160a01b031663d21220a76040518163ffffffff1660e01b8152600401602060405180830381865afa15801561433f573d6000803e3d6000fd5b505050506040513d601f19601f820116820180604052508101906143639190614bc5565b9050836001600160a01b038c81169083161461438957614386858d848b8b614060565b90505b6143948b84836144ed565b9d9c50505050505050505050505050565b60608247101561441d5760405162461bcd60e51b815260206004820152602660248201527f416464726573733a20696e73756666696369656e742062616c616e636520666f60448201527f722063616c6c00000000000000000000000000000000000000000000000000006064820152608401610c36565b6001600160a01b0385163b6144745760405162461bcd60e51b815260206004820152601d60248201527f416464726573733a2063616c6c20746f206e6f6e2d636f6e74726163740000006044820152606401610c36565b600080866001600160a01b031685876040516144909190614d1c565b60006040518083038185875af1925050503d80600081146144cd576040519150601f19603f3d011682016040523d82523d6000602084013e6144d2565b606091505b50915091506144e28282866146e2565b979650505050505050565b6000806000856001600160a01b0316630902f1ac6040518163ffffffff1660e01b8152600401606060405180830381865afa158015614530573d6000803e3d6000fd5b505050506040513d601f19601f820116820180604052508101906145549190614c34565b5091509150600061457886846001600160701b0316846001600160701b031661471b565b9050848111156145a5578490506145a285836001600160701b0316856001600160701b031661471b565b95505b61461c8787896001600160a01b0316630dfe16816040518163ffffffff1660e01b8152600401602060405180830381865afa1580156145e8573d6000803e3d6000fd5b505050506040513d601f19601f8201168201806040525081019061460c9190614bc5565b6001600160a01b03169190612b47565b61465f8782896001600160a01b031663d21220a76040518163ffffffff1660e01b8152600401602060405180830381865afa1580156145e8573d6000803e3d6000fd5b6040517f6a6278420000000000000000000000000000000000000000000000000000000081523060048201526001600160a01b03881690636a627842906024016020604051808303816000875af11580156146be573d6000803e3d6000fd5b505050506040513d601f19601f820116820180604052508101906144e29190614a8b565b606083156146f1575081610bb0565b8251156147015782518084602001fd5b8160405162461bcd60e51b8152600401610c36919061478a565b6000826147288386614ae9565b6128579190614b08565b60005b8381101561474d578181015183820152602001614735565b838111156111b95750506000910152565b60008151808452614776816020860160208601614732565b601f01601f19169290920160200192915050565b602081526000610bb0602083018461475e565b6001600160a01b0381168114611d7857600080fd5b600080604083850312156147c557600080fd5b82356147d08161479d565b946020939093013593505050565b6000602082840312156147f057600080fd5b5035919050565b60008060006060848603121561480c57600080fd5b83356148178161479d565b925060208401356148278161479d565b929592945050506040919091013590565b6000806040838503121561484b57600080fd5b82356148568161479d565b915060208301356148668161479d565b809150509250929050565b60006020828403121561488357600080fd5b8135610bb08161479d565b803560ff8116811461489f57600080fd5b919050565b600080600080600060a086880312156148bc57600080fd5b85359450602086013593506148d36040870161488e565b94979396509394606081013594506080013592915050565b8015158114611d7857600080fd5b60006020828403121561490b57600080fd5b8135610bb0816148eb565b6000806000806080858703121561492c57600080fd5b84356149378161479d565b935060208501356149478161479d565b93969395505050506040820135916060013590565b6000806040838503121561496f57600080fd5b823591506020830135614866816148eb565b600080600080600080600060e0888a03121561499c57600080fd5b87356149a78161479d565b965060208801356149b78161479d565b955060408801359450606088013593506149d36080890161488e565b925060a0880135915060c0880135905092959891949750929550565b600181811c90821680614a0357607f821691505b602082108103614a2357634e487b7160e01b600052602260045260246000fd5b50919050565b634e487b7160e01b600052601160045260246000fd5b600082821015614a5157614a51614a29565b500390565b60008219821115614a6957614a69614a29565b500190565b600060208284031215614a8057600080fd5b8151610bb0816148eb565b600060208284031215614a9d57600080fd5b5051919050565b634e487b7160e01b600052603260045260246000fd5b600060018201614acc57614acc614a29565b5060010190565b634e487b7160e01b600052603160045260246000fd5b6000816000190483118215151615614b0357614b03614a29565b500290565b600082614b2557634e487b7160e01b600052601260045260246000fd5b500490565b600080835481600182811c915080831680614b4657607f831692505b60208084108203614b6557634e487b7160e01b86526022600452602486fd5b818015614b795760018114614b8a57614bb7565b60ff19861689528489019650614bb7565b60008a81526020902060005b86811015614baf5781548b820152908501908301614b96565b505084890196505b509498975050505050505050565b600060208284031215614bd757600080fd5b8151610bb08161479d565b634e487b7160e01b600052604160045260246000fd5b60008060408385031215614c0b57600080fd5b8251915060208301516148668161479d565b80516001600160701b038116811461489f57600080fd5b600080600060608486031215614c4957600080fd5b614c5284614c1d565b9250614c6060208501614c1d565b9150604084015163ffffffff81168114614c7957600080fd5b809150509250925092565b6000604082016001600160a01b03808616845260206040818601528286548085526060870191508760005282600020945060005b81811015614cd6578554851683526001958601959284019201614cb8565b509098975050505050505050565b8481528360208201526001600160a01b0383166040820152608060608201526000614d12608083018461475e565b9695505050505050565b60008251614d2e818460208701614732565b919091019291505056fe4f776e61626c653a2063616c6c6572206973206e6f7420746865206f776e6572a26469706673582212209e6618dcd9ba67d7b9f06d06dfe51d1c540c163e12ce125d7dfd884bf4abb72064736f6c634300080d00334f776e61626c653a2063616c6c6572206973206e6f7420746865206f776e65728be0079c531659141344cd1fd0a4f28419497f9722a3daafe3b4186f6b6457e0",
  "devdoc": {
    "kind": "dev",
    "methods": {
      "allowDepositor(address)": {
        "params": {
          "depositor": "address"
        }
      },
      "allowance(address,address)": {
        "params": {
          "account": "The address of the account holding the funds",
          "spender": "The address of the account spending the funds"
        },
        "returns": {
          "_0": "The number of tokens approved"
        }
      },
      "approve(address,uint256)": {
        "details": "This will overwrite the approval amount for `spender` and is subject to issues noted [here](https://eips.ethereum.org/EIPS/eip-20#approve) It is recommended to use increaseAllowance and decreaseAllowance instead",
        "params": {
          "amount": "The number of tokens that are approved (2^256-1 means infinite)",
          "spender": "The address of the account which may transfer tokens"
        },
        "returns": {
          "_0": "Whether or not the approval succeeded"
        }
      },
      "balanceOf(address)": {
        "params": {
          "account": "The address of the account to get the balance of"
        },
        "returns": {
          "_0": "The number of tokens held"
        }
      },
      "checkReward()": {
        "returns": {
          "_0": "reward tokens"
        }
      },
      "deposit(uint256)": {
        "params": {
          "_amount": "Amount of tokens to deposit"
        }
      },
      "depositWithPermit(uint256,uint256,uint8,bytes32,bytes32)": {
        "params": {
          "_amount": "Amount of tokens to deposit",
          "_deadline": "The time at which to expire the signature",
          "_r": "Half of the ECDSA signature pair",
          "_s": "Half of the ECDSA signature pair",
          "_v": "The recovery byte of the signature"
        }
      },
      "estimateDeployedBalance()": {
        "returns": {
          "_0": "deposit tokens after withdraw fee"
        }
      },
      "estimateReinvestReward()": {
        "returns": {
          "_0": "reward tokens"
        }
      },
      "getDepositTokensForShares(uint256)": {
        "params": {
          "amount": "receipt tokens"
        },
        "returns": {
          "_0": "deposit tokens"
        }
      },
      "getDomainSeparator()": {
        "returns": {
          "_0": "Separator"
        }
      },
      "getSharesForDepositTokens(uint256)": {
        "details": "If contract is empty, use 1:1 ratioCould return zero shares for very low amounts of deposit tokens",
        "params": {
          "amount": "deposit tokens"
        },
        "returns": {
          "_0": "receipt tokens"
        }
      },
      "owner()": {
        "details": "Returns the address of the current owner."
      },
      "permit(address,address,uint256,uint256,uint8,bytes32,bytes32)": {
        "params": {
          "deadline": "The time at which to expire the signature",
          "owner": "The address to approve from",
          "r": "Half of the ECDSA signature pair",
          "s": "Half of the ECDSA signature pair",
          "spender": "The address to be approved",
          "v": "The recovery byte of the signature",
          "value": "The number of tokens that are approved (2^256-1 means infinite)"
        }
      },
      "recoverAVAX(uint256)": {
        "params": {
          "amount": "amount"
        }
      },
      "recoverERC20(address,uint256)": {
        "params": {
          "tokenAddress": "token address",
          "tokenAmount": "amount to recover"
        }
      },
      "removeDepositor(address)": {
        "params": {
          "depositor": "address"
        }
      },
      "renounceOwnership()": {
        "details": "Leaves the contract without owner. It will not be possible to call `onlyOwner` functions anymore. Can only be called by the current owner. NOTE: Renouncing ownership will leave the contract without an owner, thereby removing any functionality that is only available to the owner."
      },
      "revokeAllowance(address,address)": {
        "params": {
          "spender": "address",
          "token": "address"
        }
      },
      "totalDeposits()": {
        "returns": {
          "_0": "total deposits available on the contract"
        }
      },
      "transfer(address,uint256)": {
        "params": {
          "amount": "The number of tokens to transfer",
          "dst": "The address of the destination account"
        },
        "returns": {
          "_0": "Whether or not the transfer succeeded"
        }
      },
      "transferFrom(address,address,uint256)": {
        "params": {
          "amount": "The number of tokens to transfer",
          "dst": "The address of the destination account",
          "src": "The address of the source account"
        },
        "returns": {
          "_0": "Whether or not the transfer succeeded"
        }
      },
      "transferOwnership(address)": {
        "details": "Transfers ownership of the contract to a new account (`newOwner`). Can only be called by the current owner."
      },
      "updateAdminFee(uint256)": {
        "details": "Deprecated; Kept for compatibility",
        "params": {
          "newValue": "fee in BIPS; required to be 0"
        }
      },
      "updateDepositsEnabled(bool)": {
        "params": {
          "newValue": "bool"
        }
      },
      "updateDevAddr(address)": {
        "params": {
          "newValue": "address"
        }
      },
      "updateDevFee(uint256)": {
        "params": {
          "newValue": "fee in BIPS"
        }
      },
      "updateMaxTokensToDepositWithoutReinvest(uint256)": {
        "params": {
          "newValue": "threshold"
        }
      },
      "updateMinTokensToReinvest(uint256)": {
        "params": {
          "newValue": "threshold"
        }
      },
      "updateReinvestReward(uint256)": {
        "params": {
          "newValue": "fee in BIPS"
        }
      }
    },
    "version": 1
  },
  "userdoc": {
    "kind": "user",
    "methods": {
      "allowDepositor(address)": {
        "notice": "Add an allowed depositor"
      },
      "allowance(address,address)": {
        "notice": "Get the number of tokens `spender` is approved to spend on behalf of `account`"
      },
      "approve(address,uint256)": {
        "notice": "Approve `spender` to transfer up to `amount` from `src`"
      },
      "balanceOf(address)": {
        "notice": "Get the number of tokens held by the `account`"
      },
      "checkReward()": {
        "notice": "Reward tokens available to strategy, including balance"
      },
      "deposit(uint256)": {
        "notice": "Deposit tokens to receive receipt tokens"
      },
      "depositWithPermit(uint256,uint256,uint8,bytes32,bytes32)": {
        "notice": "Deposit using Permit"
      },
      "estimateDeployedBalance()": {
        "notice": "Estimate recoverable balance after withdraw fee"
      },
      "estimateReinvestReward()": {
        "notice": "Estimate reinvest reward"
      },
      "getDepositTokensForShares(uint256)": {
        "notice": "Calculate deposit tokens for a given amount of receipt tokens"
      },
      "getDomainSeparator()": {
        "notice": "EIP-712 Domain separator"
      },
      "getSharesForDepositTokens(uint256)": {
        "notice": "Calculate receipt tokens for a given amount of deposit tokens"
      },
      "permit(address,address,uint256,uint256,uint8,bytes32,bytes32)": {
        "notice": "Triggers an approval from owner to spender"
      },
      "recoverAVAX(uint256)": {
        "notice": "Recover AVAX from contract"
      },
      "recoverERC20(address,uint256)": {
        "notice": "Recover ERC20 from contract"
      },
      "reinvest()": {
        "notice": "Reinvest reward tokens into deposit tokens"
      },
      "removeDepositor(address)": {
        "notice": "Remove an allowed depositor"
      },
      "revokeAllowance(address,address)": {
        "notice": "Revoke token allowance"
      },
      "totalDeposits()": {
        "notice": "This function returns a snapshot of last available quotes"
      },
      "transfer(address,uint256)": {
        "notice": "Transfer `amount` tokens from `msg.sender` to `dst`"
      },
      "transferFrom(address,address,uint256)": {
        "notice": "Transfer `amount` tokens from `src` to `dst`"
      },
      "updateAdminFee(uint256)": {
        "notice": "Update admin fee"
      },
      "updateDepositsEnabled(bool)": {
        "notice": "Enable/disable deposits"
      },
      "updateDevAddr(address)": {
        "notice": "Update devAddr"
      },
      "updateDevFee(uint256)": {
        "notice": "Update developer fee"
      },
      "updateMaxTokensToDepositWithoutReinvest(uint256)": {
        "notice": "Update reinvest max threshold before a deposit"
      },
      "updateMinTokensToReinvest(uint256)": {
        "notice": "Update reinvest min threshold"
      },
      "updateReinvestReward(uint256)": {
        "notice": "Update reinvest reward"
      }
    },
    "version": 1
  },
  "storageLayout": {
    "storage": [
      {
        "astId": 552,
        "contract": "contracts/strategies/avalanche/glacier/GlacierStrategy.sol:GlacierStrategy",
        "label": "name",
        "offset": 0,
        "slot": "0",
        "type": "t_string_storage"
      },
      {
        "astId": 555,
        "contract": "contracts/strategies/avalanche/glacier/GlacierStrategy.sol:GlacierStrategy",
        "label": "symbol",
        "offset": 0,
        "slot": "1",
        "type": "t_string_storage"
      },
      {
        "astId": 560,
        "contract": "contracts/strategies/avalanche/glacier/GlacierStrategy.sol:GlacierStrategy",
        "label": "totalSupply",
        "offset": 0,
        "slot": "2",
        "type": "t_uint256"
      },
      {
        "astId": 566,
        "contract": "contracts/strategies/avalanche/glacier/GlacierStrategy.sol:GlacierStrategy",
        "label": "allowances",
        "offset": 0,
        "slot": "3",
        "type": "t_mapping(t_address,t_mapping(t_address,t_uint256))"
      },
      {
        "astId": 570,
        "contract": "contracts/strategies/avalanche/glacier/GlacierStrategy.sol:GlacierStrategy",
        "label": "balances",
        "offset": 0,
        "slot": "4",
        "type": "t_mapping(t_address,t_uint256)"
      },
      {
        "astId": 586,
        "contract": "contracts/strategies/avalanche/glacier/GlacierStrategy.sol:GlacierStrategy",
        "label": "nonces",
        "offset": 0,
        "slot": "5",
        "type": "t_mapping(t_address,t_uint256)"
      },
      {
        "astId": 8057,
        "contract": "contracts/strategies/avalanche/glacier/GlacierStrategy.sol:GlacierStrategy",
        "label": "_owner",
        "offset": 0,
        "slot": "6",
        "type": "t_address"
      },
      {
        "astId": 8166,
        "contract": "contracts/strategies/avalanche/glacier/GlacierStrategy.sol:GlacierStrategy",
        "label": "numberOfAllowedDepositors",
        "offset": 0,
        "slot": "7",
        "type": "t_uint256"
      },
      {
        "astId": 8170,
        "contract": "contracts/strategies/avalanche/glacier/GlacierStrategy.sol:GlacierStrategy",
        "label": "allowedDepositors",
        "offset": 0,
        "slot": "8",
        "type": "t_mapping(t_address,t_bool)"
      },
      {
        "astId": 1967,
        "contract": "contracts/strategies/avalanche/glacier/GlacierStrategy.sol:GlacierStrategy",
        "label": "devAddr",
        "offset": 0,
        "slot": "9",
        "type": "t_address"
      },
      {
        "astId": 1969,
        "contract": "contracts/strategies/avalanche/glacier/GlacierStrategy.sol:GlacierStrategy",
        "label": "MIN_TOKENS_TO_REINVEST",
        "offset": 0,
        "slot": "10",
        "type": "t_uint256"
      },
      {
        "astId": 1971,
        "contract": "contracts/strategies/avalanche/glacier/GlacierStrategy.sol:GlacierStrategy",
        "label": "MAX_TOKENS_TO_DEPOSIT_WITHOUT_REINVEST",
        "offset": 0,
        "slot": "11",
        "type": "t_uint256"
      },
      {
        "astId": 1973,
        "contract": "contracts/strategies/avalanche/glacier/GlacierStrategy.sol:GlacierStrategy",
        "label": "DEPOSITS_ENABLED",
        "offset": 0,
        "slot": "12",
        "type": "t_bool"
      },
      {
        "astId": 1975,
        "contract": "contracts/strategies/avalanche/glacier/GlacierStrategy.sol:GlacierStrategy",
        "label": "ADMIN_FEE_BIPS",
        "offset": 0,
        "slot": "13",
        "type": "t_uint256"
      },
      {
        "astId": 1977,
        "contract": "contracts/strategies/avalanche/glacier/GlacierStrategy.sol:GlacierStrategy",
        "label": "REINVEST_REWARD_BIPS",
        "offset": 0,
        "slot": "14",
        "type": "t_uint256"
      },
      {
        "astId": 1979,
        "contract": "contracts/strategies/avalanche/glacier/GlacierStrategy.sol:GlacierStrategy",
        "label": "DEV_FEE_BIPS",
        "offset": 0,
        "slot": "15",
        "type": "t_uint256"
      },
      {
        "astId": 11921,
        "contract": "contracts/strategies/avalanche/glacier/GlacierStrategy.sol:GlacierStrategy",
        "label": "rewardSwapPairs",
        "offset": 0,
        "slot": "16",
        "type": "t_mapping(t_address,t_struct(RewardSwapPair)11916_storage)"
      },
      {
        "astId": 11924,
        "contract": "contracts/strategies/avalanche/glacier/GlacierStrategy.sol:GlacierStrategy",
        "label": "supportedRewards",
        "offset": 0,
        "slot": "17",
        "type": "t_array(t_address)dyn_storage"
      },
      {
        "astId": 11926,
        "contract": "contracts/strategies/avalanche/glacier/GlacierStrategy.sol:GlacierStrategy",
        "label": "rewardCount",
        "offset": 0,
        "slot": "18",
        "type": "t_uint256"
      },
      {
        "astId": 34548,
        "contract": "contracts/strategies/avalanche/glacier/GlacierStrategy.sol:GlacierStrategy",
        "label": "boosterFeeCollector",
        "offset": 0,
        "slot": "19",
        "type": "t_contract(IGlacierBoosterFeeCollector)34988"
      },
      {
        "astId": 34550,
        "contract": "contracts/strategies/avalanche/glacier/GlacierStrategy.sol:GlacierStrategy",
        "label": "swapPairToken0",
        "offset": 0,
        "slot": "20",
        "type": "t_address"
      },
      {
        "astId": 34552,
        "contract": "contracts/strategies/avalanche/glacier/GlacierStrategy.sol:GlacierStrategy",
        "label": "swapPairToken1",
        "offset": 0,
        "slot": "21",
        "type": "t_address"
      },
      {
        "astId": 34554,
        "contract": "contracts/strategies/avalanche/glacier/GlacierStrategy.sol:GlacierStrategy",
        "label": "swapFeeToken0",
        "offset": 0,
        "slot": "22",
        "type": "t_uint256"
      },
      {
        "astId": 34556,
        "contract": "contracts/strategies/avalanche/glacier/GlacierStrategy.sol:GlacierStrategy",
        "label": "swapFeeToken1",
        "offset": 0,
        "slot": "23",
        "type": "t_uint256"
      }
    ],
    "types": {
      "t_address": {
        "encoding": "inplace",
        "label": "address",
        "numberOfBytes": "20"
      },
      "t_array(t_address)dyn_storage": {
        "base": "t_address",
        "encoding": "dynamic_array",
        "label": "address[]",
        "numberOfBytes": "32"
      },
      "t_bool": {
        "encoding": "inplace",
        "label": "bool",
        "numberOfBytes": "1"
      },
      "t_contract(IGlacierBoosterFeeCollector)34988": {
        "encoding": "inplace",
        "label": "contract IGlacierBoosterFeeCollector",
        "numberOfBytes": "20"
      },
      "t_mapping(t_address,t_bool)": {
        "encoding": "mapping",
        "key": "t_address",
        "label": "mapping(address => bool)",
        "numberOfBytes": "32",
        "value": "t_bool"
      },
      "t_mapping(t_address,t_mapping(t_address,t_uint256))": {
        "encoding": "mapping",
        "key": "t_address",
        "label": "mapping(address => mapping(address => uint256))",
        "numberOfBytes": "32",
        "value": "t_mapping(t_address,t_uint256)"
      },
      "t_mapping(t_address,t_struct(RewardSwapPair)11916_storage)": {
        "encoding": "mapping",
        "key": "t_address",
        "label": "mapping(address => struct VariableRewardsStrategy.RewardSwapPair)",
        "numberOfBytes": "32",
        "value": "t_struct(RewardSwapPair)11916_storage"
      },
      "t_mapping(t_address,t_uint256)": {
        "encoding": "mapping",
        "key": "t_address",
        "label": "mapping(address => uint256)",
        "numberOfBytes": "32",
        "value": "t_uint256"
      },
      "t_string_storage": {
        "encoding": "bytes",
        "label": "string",
        "numberOfBytes": "32"
      },
      "t_struct(RewardSwapPair)11916_storage": {
        "encoding": "inplace",
        "label": "struct VariableRewardsStrategy.RewardSwapPair",
        "members": [
          {
            "astId": 11911,
            "contract": "contracts/strategies/avalanche/glacier/GlacierStrategy.sol:GlacierStrategy",
            "label": "reward",
            "offset": 0,
            "slot": "0",
            "type": "t_address"
          },
          {
            "astId": 11913,
            "contract": "contracts/strategies/avalanche/glacier/GlacierStrategy.sol:GlacierStrategy",
            "label": "swapPair",
            "offset": 0,
            "slot": "1",
            "type": "t_address"
          },
          {
            "astId": 11915,
            "contract": "contracts/strategies/avalanche/glacier/GlacierStrategy.sol:GlacierStrategy",
            "label": "swapFee",
            "offset": 0,
            "slot": "2",
            "type": "t_uint256"
          }
        ],
        "numberOfBytes": "96"
      },
      "t_uint256": {
        "encoding": "inplace",
        "label": "uint256",
        "numberOfBytes": "32"
      }
    }
  }
}