{
  "address": "0x1A43031783b7E042fa971092843fb4D75620df63",
  "abi": [
    {
      "inputs": [
        {
          "internalType": "string",
          "name": "_name",
          "type": "string"
        },
        {
          "internalType": "address",
          "name": "_depositToken",
          "type": "address"
        },
        {
          "internalType": "address",
          "name": "_rewardToken",
          "type": "address"
        },
        {
          "internalType": "address",
          "name": "_nativeRewardToken",
          "type": "address"
        },
        {
          "components": [
            {
              "internalType": "address",
              "name": "poolReward",
              "type": "address"
            },
            {
              "internalType": "address",
              "name": "extraReward",
              "type": "address"
            },
            {
              "internalType": "address",
              "name": "token0",
              "type": "address"
            },
            {
              "internalType": "address",
              "name": "token1",
              "type": "address"
            }
          ],
          "internalType": "struct MasterChefStrategyForLP.SwapPairs",
          "name": "_swapPairs",
          "type": "tuple"
        },
        {
          "internalType": "address",
          "name": "_stakingContract",
          "type": "address"
        },
        {
          "internalType": "uint256",
          "name": "_pid",
          "type": "uint256"
        },
        {
          "internalType": "address",
          "name": "_voterProxy",
          "type": "address"
        },
        {
          "internalType": "address",
          "name": "_timelock",
          "type": "address"
        },
        {
          "components": [
            {
              "internalType": "uint256",
              "name": "minTokensToReinvest",
              "type": "uint256"
            },
            {
              "internalType": "uint256",
              "name": "devFeeBips",
              "type": "uint256"
            },
            {
              "internalType": "uint256",
              "name": "reinvestRewardBips",
              "type": "uint256"
            }
          ],
          "internalType": "struct YakStrategyV2.StrategySettings",
          "name": "_strategySettings",
          "type": "tuple"
        }
      ],
      "stateMutability": "nonpayable",
      "type": "constructor"
    },
    {
      "anonymous": false,
      "inputs": [
        {
          "indexed": true,
          "internalType": "address",
          "name": "account",
          "type": "address"
        }
      ],
      "name": "AllowDepositor",
      "type": "event"
    },
    {
      "anonymous": false,
      "inputs": [
        {
          "indexed": true,
          "internalType": "address",
          "name": "owner",
          "type": "address"
        },
        {
          "indexed": true,
          "internalType": "address",
          "name": "spender",
          "type": "address"
        },
        {
          "indexed": false,
          "internalType": "uint256",
          "name": "value",
          "type": "uint256"
        }
      ],
      "name": "Approval",
      "type": "event"
    },
    {
      "anonymous": false,
      "inputs": [
        {
          "indexed": true,
          "internalType": "address",
          "name": "account",
          "type": "address"
        },
        {
          "indexed": false,
          "internalType": "uint256",
          "name": "amount",
          "type": "uint256"
        }
      ],
      "name": "Deposit",
      "type": "event"
    },
    {
      "anonymous": false,
      "inputs": [
        {
          "indexed": false,
          "internalType": "bool",
          "name": "newValue",
          "type": "bool"
        }
      ],
      "name": "DepositsEnabled",
      "type": "event"
    },
    {
      "anonymous": false,
      "inputs": [
        {
          "indexed": true,
          "internalType": "address",
          "name": "previousOwner",
          "type": "address"
        },
        {
          "indexed": true,
          "internalType": "address",
          "name": "newOwner",
          "type": "address"
        }
      ],
      "name": "OwnershipTransferred",
      "type": "event"
    },
    {
      "anonymous": false,
      "inputs": [
        {
          "indexed": false,
          "internalType": "address",
          "name": "token",
          "type": "address"
        },
        {
          "indexed": false,
          "internalType": "uint256",
          "name": "amount",
          "type": "uint256"
        }
      ],
      "name": "Recovered",
      "type": "event"
    },
    {
      "anonymous": false,
      "inputs": [
        {
          "indexed": false,
          "internalType": "uint256",
          "name": "newTotalDeposits",
          "type": "uint256"
        },
        {
          "indexed": false,
          "internalType": "uint256",
          "name": "newTotalSupply",
          "type": "uint256"
        }
      ],
      "name": "Reinvest",
      "type": "event"
    },
    {
      "anonymous": false,
      "inputs": [
        {
          "indexed": true,
          "internalType": "address",
          "name": "account",
          "type": "address"
        }
      ],
      "name": "RemoveDepositor",
      "type": "event"
    },
    {
      "anonymous": false,
      "inputs": [
        {
          "indexed": true,
          "internalType": "address",
          "name": "from",
          "type": "address"
        },
        {
          "indexed": true,
          "internalType": "address",
          "name": "to",
          "type": "address"
        },
        {
          "indexed": false,
          "internalType": "uint256",
          "name": "value",
          "type": "uint256"
        }
      ],
      "name": "Transfer",
      "type": "event"
    },
    {
      "anonymous": false,
      "inputs": [
        {
          "indexed": false,
          "internalType": "uint256",
          "name": "oldValue",
          "type": "uint256"
        },
        {
          "indexed": false,
          "internalType": "uint256",
          "name": "newValue",
          "type": "uint256"
        }
      ],
      "name": "UpdateAdminFee",
      "type": "event"
    },
    {
      "anonymous": false,
      "inputs": [
        {
          "indexed": false,
          "internalType": "address",
          "name": "oldValue",
          "type": "address"
        },
        {
          "indexed": false,
          "internalType": "address",
          "name": "newValue",
          "type": "address"
        }
      ],
      "name": "UpdateDevAddr",
      "type": "event"
    },
    {
      "anonymous": false,
      "inputs": [
        {
          "indexed": false,
          "internalType": "uint256",
          "name": "oldValue",
          "type": "uint256"
        },
        {
          "indexed": false,
          "internalType": "uint256",
          "name": "newValue",
          "type": "uint256"
        }
      ],
      "name": "UpdateDevFee",
      "type": "event"
    },
    {
      "anonymous": false,
      "inputs": [
        {
          "indexed": false,
          "internalType": "uint256",
          "name": "oldValue",
          "type": "uint256"
        },
        {
          "indexed": false,
          "internalType": "uint256",
          "name": "newValue",
          "type": "uint256"
        }
      ],
      "name": "UpdateMaxTokensToDepositWithoutReinvest",
      "type": "event"
    },
    {
      "anonymous": false,
      "inputs": [
        {
          "indexed": false,
          "internalType": "uint256",
          "name": "oldValue",
          "type": "uint256"
        },
        {
          "indexed": false,
          "internalType": "uint256",
          "name": "newValue",
          "type": "uint256"
        }
      ],
      "name": "UpdateMinTokensToReinvest",
      "type": "event"
    },
    {
      "anonymous": false,
      "inputs": [
        {
          "indexed": false,
          "internalType": "uint256",
          "name": "oldValue",
          "type": "uint256"
        },
        {
          "indexed": false,
          "internalType": "uint256",
          "name": "newValue",
          "type": "uint256"
        }
      ],
      "name": "UpdateReinvestReward",
      "type": "event"
    },
    {
      "anonymous": false,
      "inputs": [
        {
          "indexed": true,
          "internalType": "address",
          "name": "account",
          "type": "address"
        },
        {
          "indexed": false,
          "internalType": "uint256",
          "name": "amount",
          "type": "uint256"
        }
      ],
      "name": "Withdraw",
      "type": "event"
    },
    {
      "inputs": [],
      "name": "ADMIN_FEE_BIPS",
      "outputs": [
        {
          "internalType": "uint256",
          "name": "",
          "type": "uint256"
        }
      ],
      "stateMutability": "view",
      "type": "function"
    },
    {
      "inputs": [],
      "name": "DEPOSITS_ENABLED",
      "outputs": [
        {
          "internalType": "bool",
          "name": "",
          "type": "bool"
        }
      ],
      "stateMutability": "view",
      "type": "function"
    },
    {
      "inputs": [],
      "name": "DEV_FEE_BIPS",
      "outputs": [
        {
          "internalType": "uint256",
          "name": "",
          "type": "uint256"
        }
      ],
      "stateMutability": "view",
      "type": "function"
    },
    {
      "inputs": [],
      "name": "DOMAIN_TYPEHASH",
      "outputs": [
        {
          "internalType": "bytes32",
          "name": "",
          "type": "bytes32"
        }
      ],
      "stateMutability": "view",
      "type": "function"
    },
    {
      "inputs": [],
      "name": "MAX_TOKENS_TO_DEPOSIT_WITHOUT_REINVEST",
      "outputs": [
        {
          "internalType": "uint256",
          "name": "",
          "type": "uint256"
        }
      ],
      "stateMutability": "view",
      "type": "function"
    },
    {
      "inputs": [],
      "name": "MIN_TOKENS_TO_REINVEST",
      "outputs": [
        {
          "internalType": "uint256",
          "name": "",
          "type": "uint256"
        }
      ],
      "stateMutability": "view",
      "type": "function"
    },
    {
      "inputs": [],
      "name": "PERMIT_TYPEHASH",
      "outputs": [
        {
          "internalType": "bytes32",
          "name": "",
          "type": "bytes32"
        }
      ],
      "stateMutability": "view",
      "type": "function"
    },
    {
      "inputs": [],
      "name": "PID",
      "outputs": [
        {
          "internalType": "uint256",
          "name": "",
          "type": "uint256"
        }
      ],
      "stateMutability": "view",
      "type": "function"
    },
    {
      "inputs": [],
      "name": "REINVEST_REWARD_BIPS",
      "outputs": [
        {
          "internalType": "uint256",
          "name": "",
          "type": "uint256"
        }
      ],
      "stateMutability": "view",
      "type": "function"
    },
    {
      "inputs": [],
      "name": "VERSION_HASH",
      "outputs": [
        {
          "internalType": "bytes32",
          "name": "",
          "type": "bytes32"
        }
      ],
      "stateMutability": "view",
      "type": "function"
    },
    {
      "inputs": [
        {
          "internalType": "address",
          "name": "depositor",
          "type": "address"
        }
      ],
      "name": "allowDepositor",
      "outputs": [],
      "stateMutability": "nonpayable",
      "type": "function"
    },
    {
      "inputs": [
        {
          "internalType": "address",
          "name": "account",
          "type": "address"
        },
        {
          "internalType": "address",
          "name": "spender",
          "type": "address"
        }
      ],
      "name": "allowance",
      "outputs": [
        {
          "internalType": "uint256",
          "name": "",
          "type": "uint256"
        }
      ],
      "stateMutability": "view",
      "type": "function"
    },
    {
      "inputs": [
        {
          "internalType": "address",
          "name": "",
          "type": "address"
        }
      ],
      "name": "allowedDepositors",
      "outputs": [
        {
          "internalType": "bool",
          "name": "",
          "type": "bool"
        }
      ],
      "stateMutability": "view",
      "type": "function"
    },
    {
      "inputs": [
        {
          "internalType": "address",
          "name": "spender",
          "type": "address"
        },
        {
          "internalType": "uint256",
          "name": "amount",
          "type": "uint256"
        }
      ],
      "name": "approve",
      "outputs": [
        {
          "internalType": "bool",
          "name": "",
          "type": "bool"
        }
      ],
      "stateMutability": "nonpayable",
      "type": "function"
    },
    {
      "inputs": [
        {
          "internalType": "address",
          "name": "account",
          "type": "address"
        }
      ],
      "name": "balanceOf",
      "outputs": [
        {
          "internalType": "uint256",
          "name": "",
          "type": "uint256"
        }
      ],
      "stateMutability": "view",
      "type": "function"
    },
    {
      "inputs": [],
      "name": "checkReward",
      "outputs": [
        {
          "internalType": "uint256",
          "name": "",
          "type": "uint256"
        }
      ],
      "stateMutability": "view",
      "type": "function"
    },
    {
      "inputs": [],
      "name": "decimals",
      "outputs": [
        {
          "internalType": "uint8",
          "name": "",
          "type": "uint8"
        }
      ],
      "stateMutability": "view",
      "type": "function"
    },
    {
      "inputs": [
        {
          "internalType": "uint256",
          "name": "amount",
          "type": "uint256"
        }
      ],
      "name": "deposit",
      "outputs": [],
      "stateMutability": "nonpayable",
      "type": "function"
    },
    {
      "inputs": [
        {
          "internalType": "address",
          "name": "account",
          "type": "address"
        },
        {
          "internalType": "uint256",
          "name": "amount",
          "type": "uint256"
        }
      ],
      "name": "depositFor",
      "outputs": [],
      "stateMutability": "nonpayable",
      "type": "function"
    },
    {
      "inputs": [],
      "name": "depositToken",
      "outputs": [
        {
          "internalType": "contract IERC20",
          "name": "",
          "type": "address"
        }
      ],
      "stateMutability": "view",
      "type": "function"
    },
    {
      "inputs": [
        {
          "internalType": "uint256",
          "name": "amount",
          "type": "uint256"
        },
        {
          "internalType": "uint256",
          "name": "deadline",
          "type": "uint256"
        },
        {
          "internalType": "uint8",
          "name": "v",
          "type": "uint8"
        },
        {
          "internalType": "bytes32",
          "name": "r",
          "type": "bytes32"
        },
        {
          "internalType": "bytes32",
          "name": "s",
          "type": "bytes32"
        }
      ],
      "name": "depositWithPermit",
      "outputs": [],
      "stateMutability": "nonpayable",
      "type": "function"
    },
    {
      "inputs": [],
      "name": "devAddr",
      "outputs": [
        {
          "internalType": "address",
          "name": "",
          "type": "address"
        }
      ],
      "stateMutability": "view",
      "type": "function"
    },
    {
      "inputs": [],
      "name": "estimateDeployedBalance",
      "outputs": [
        {
          "internalType": "uint256",
          "name": "",
          "type": "uint256"
        }
      ],
      "stateMutability": "view",
      "type": "function"
    },
    {
      "inputs": [],
      "name": "estimateReinvestReward",
      "outputs": [
        {
          "internalType": "uint256",
          "name": "",
          "type": "uint256"
        }
      ],
      "stateMutability": "view",
      "type": "function"
    },
    {
      "inputs": [],
      "name": "extraToken",
      "outputs": [
        {
          "internalType": "address",
          "name": "",
          "type": "address"
        }
      ],
      "stateMutability": "view",
      "type": "function"
    },
    {
      "inputs": [
        {
          "internalType": "uint256",
          "name": "amount",
          "type": "uint256"
        }
      ],
      "name": "getDepositTokensForShares",
      "outputs": [
        {
          "internalType": "uint256",
          "name": "",
          "type": "uint256"
        }
      ],
      "stateMutability": "view",
      "type": "function"
    },
    {
      "inputs": [],
      "name": "getDomainSeparator",
      "outputs": [
        {
          "internalType": "bytes32",
          "name": "",
          "type": "bytes32"
        }
      ],
      "stateMutability": "view",
      "type": "function"
    },
    {
      "inputs": [
        {
          "internalType": "uint256",
          "name": "amount",
          "type": "uint256"
        }
      ],
      "name": "getSharesForDepositTokens",
      "outputs": [
        {
          "internalType": "uint256",
          "name": "",
          "type": "uint256"
        }
      ],
      "stateMutability": "view",
      "type": "function"
    },
    {
      "inputs": [],
      "name": "name",
      "outputs": [
        {
          "internalType": "string",
          "name": "",
          "type": "string"
        }
      ],
      "stateMutability": "view",
      "type": "function"
    },
    {
      "inputs": [
        {
          "internalType": "address",
          "name": "",
          "type": "address"
        }
      ],
      "name": "nonces",
      "outputs": [
        {
          "internalType": "uint256",
          "name": "",
          "type": "uint256"
        }
      ],
      "stateMutability": "view",
      "type": "function"
    },
    {
      "inputs": [],
      "name": "numberOfAllowedDepositors",
      "outputs": [
        {
          "internalType": "uint256",
          "name": "",
          "type": "uint256"
        }
      ],
      "stateMutability": "view",
      "type": "function"
    },
    {
      "inputs": [],
      "name": "owner",
      "outputs": [
        {
          "internalType": "address",
          "name": "",
          "type": "address"
        }
      ],
      "stateMutability": "view",
      "type": "function"
    },
    {
      "inputs": [
        {
          "internalType": "address",
          "name": "owner",
          "type": "address"
        },
        {
          "internalType": "address",
          "name": "spender",
          "type": "address"
        },
        {
          "internalType": "uint256",
          "name": "value",
          "type": "uint256"
        },
        {
          "internalType": "uint256",
          "name": "deadline",
          "type": "uint256"
        },
        {
          "internalType": "uint8",
          "name": "v",
          "type": "uint8"
        },
        {
          "internalType": "bytes32",
          "name": "r",
          "type": "bytes32"
        },
        {
          "internalType": "bytes32",
          "name": "s",
          "type": "bytes32"
        }
      ],
      "name": "permit",
      "outputs": [],
      "stateMutability": "nonpayable",
      "type": "function"
    },
    {
      "inputs": [],
      "name": "proxy",
      "outputs": [
        {
          "internalType": "contract IJoeVoterProxy",
          "name": "",
          "type": "address"
        }
      ],
      "stateMutability": "view",
      "type": "function"
    },
    {
      "inputs": [
        {
          "internalType": "uint256",
          "name": "amount",
          "type": "uint256"
        }
      ],
      "name": "recoverAVAX",
      "outputs": [],
      "stateMutability": "nonpayable",
      "type": "function"
    },
    {
      "inputs": [
        {
          "internalType": "address",
          "name": "tokenAddress",
          "type": "address"
        },
        {
          "internalType": "uint256",
          "name": "tokenAmount",
          "type": "uint256"
        }
      ],
      "name": "recoverERC20",
      "outputs": [],
      "stateMutability": "nonpayable",
      "type": "function"
    },
    {
      "inputs": [],
      "name": "reinvest",
      "outputs": [],
      "stateMutability": "nonpayable",
      "type": "function"
    },
    {
      "inputs": [
        {
          "internalType": "address",
          "name": "depositor",
          "type": "address"
        }
      ],
      "name": "removeDepositor",
      "outputs": [],
      "stateMutability": "nonpayable",
      "type": "function"
    },
    {
      "inputs": [],
      "name": "renounceOwnership",
      "outputs": [],
      "stateMutability": "nonpayable",
      "type": "function"
    },
    {
      "inputs": [
        {
          "internalType": "uint256",
          "name": "minReturnAmountAccepted",
          "type": "uint256"
        },
        {
          "internalType": "bool",
          "name": "disableDeposits",
          "type": "bool"
        }
      ],
      "name": "rescueDeployedFunds",
      "outputs": [],
      "stateMutability": "nonpayable",
      "type": "function"
    },
    {
      "inputs": [
        {
          "internalType": "address",
          "name": "token",
          "type": "address"
        },
        {
          "internalType": "address",
          "name": "spender",
          "type": "address"
        }
      ],
      "name": "revokeAllowance",
      "outputs": [],
      "stateMutability": "nonpayable",
      "type": "function"
    },
    {
      "inputs": [],
      "name": "rewardToken",
      "outputs": [
        {
          "internalType": "contract IERC20",
          "name": "",
          "type": "address"
        }
      ],
      "stateMutability": "view",
      "type": "function"
    },
    {
      "inputs": [
        {
          "internalType": "address",
          "name": "_extraTokenSwapPair",
          "type": "address"
        }
      ],
      "name": "setExtraRewardSwapPair",
      "outputs": [],
      "stateMutability": "nonpayable",
      "type": "function"
    },
    {
      "inputs": [],
      "name": "stakingContract",
      "outputs": [
        {
          "internalType": "address",
          "name": "",
          "type": "address"
        }
      ],
      "stateMutability": "view",
      "type": "function"
    },
    {
      "inputs": [],
      "name": "swapPairExtraReward",
      "outputs": [
        {
          "internalType": "address",
          "name": "",
          "type": "address"
        }
      ],
      "stateMutability": "view",
      "type": "function"
    },
    {
      "inputs": [],
      "name": "swapPairRewardToken",
      "outputs": [
        {
          "internalType": "address",
          "name": "",
          "type": "address"
        }
      ],
      "stateMutability": "view",
      "type": "function"
    },
    {
      "inputs": [],
      "name": "symbol",
      "outputs": [
        {
          "internalType": "string",
          "name": "",
          "type": "string"
        }
      ],
      "stateMutability": "view",
      "type": "function"
    },
    {
      "inputs": [],
      "name": "totalDeposits",
      "outputs": [
        {
          "internalType": "uint256",
          "name": "",
          "type": "uint256"
        }
      ],
      "stateMutability": "view",
      "type": "function"
    },
    {
      "inputs": [],
      "name": "totalSupply",
      "outputs": [
        {
          "internalType": "uint256",
          "name": "",
          "type": "uint256"
        }
      ],
      "stateMutability": "view",
      "type": "function"
    },
    {
      "inputs": [
        {
          "internalType": "address",
          "name": "dst",
          "type": "address"
        },
        {
          "internalType": "uint256",
          "name": "amount",
          "type": "uint256"
        }
      ],
      "name": "transfer",
      "outputs": [
        {
          "internalType": "bool",
          "name": "",
          "type": "bool"
        }
      ],
      "stateMutability": "nonpayable",
      "type": "function"
    },
    {
      "inputs": [
        {
          "internalType": "address",
          "name": "src",
          "type": "address"
        },
        {
          "internalType": "address",
          "name": "dst",
          "type": "address"
        },
        {
          "internalType": "uint256",
          "name": "amount",
          "type": "uint256"
        }
      ],
      "name": "transferFrom",
      "outputs": [
        {
          "internalType": "bool",
          "name": "",
          "type": "bool"
        }
      ],
      "stateMutability": "nonpayable",
      "type": "function"
    },
    {
      "inputs": [
        {
          "internalType": "address",
          "name": "newOwner",
          "type": "address"
        }
      ],
      "name": "transferOwnership",
      "outputs": [],
      "stateMutability": "nonpayable",
      "type": "function"
    },
    {
      "inputs": [
        {
          "internalType": "uint256",
          "name": "newValue",
          "type": "uint256"
        }
      ],
      "name": "updateAdminFee",
      "outputs": [],
      "stateMutability": "nonpayable",
      "type": "function"
    },
    {
      "inputs": [
        {
          "internalType": "bool",
          "name": "newValue",
          "type": "bool"
        }
      ],
      "name": "updateDepositsEnabled",
      "outputs": [],
      "stateMutability": "nonpayable",
      "type": "function"
    },
    {
      "inputs": [
        {
          "internalType": "address",
          "name": "newValue",
          "type": "address"
        }
      ],
      "name": "updateDevAddr",
      "outputs": [],
      "stateMutability": "nonpayable",
      "type": "function"
    },
    {
      "inputs": [
        {
          "internalType": "uint256",
          "name": "newValue",
          "type": "uint256"
        }
      ],
      "name": "updateDevFee",
      "outputs": [],
      "stateMutability": "nonpayable",
      "type": "function"
    },
    {
      "inputs": [
        {
          "internalType": "uint256",
          "name": "newValue",
          "type": "uint256"
        }
      ],
      "name": "updateMaxTokensToDepositWithoutReinvest",
      "outputs": [],
      "stateMutability": "nonpayable",
      "type": "function"
    },
    {
      "inputs": [
        {
          "internalType": "uint256",
          "name": "newValue",
          "type": "uint256"
        }
      ],
      "name": "updateMinTokensToReinvest",
      "outputs": [],
      "stateMutability": "nonpayable",
      "type": "function"
    },
    {
      "inputs": [
        {
          "internalType": "uint256",
          "name": "newValue",
          "type": "uint256"
        }
      ],
      "name": "updateReinvestReward",
      "outputs": [],
      "stateMutability": "nonpayable",
      "type": "function"
    },
    {
      "inputs": [
        {
          "internalType": "uint256",
          "name": "amount",
          "type": "uint256"
        }
      ],
      "name": "withdraw",
      "outputs": [],
      "stateMutability": "nonpayable",
      "type": "function"
    }
  ],
  "transactionHash": "0x4dabbd286675de3e8825baa76c62f5ca54e4d0719fb673f731fc8f4084782c38",
  "args": [
    "Yield Yak: JLP BTC.b-AVAX",
    "0x2fD81391E30805Cc7F2Ec827013ce86dc591B806",
    "0xB31f66AA3C1e785363F0875A1B74E27b85FD66c7",
    "0x6e84a6216ea6dacc71ee8e6b0a5b7322eebc0fdd",
    {
      "poolReward": "0x454E67025631C065d3cFAD6d71E6892f74487a15",
      "extraReward": "0x0000000000000000000000000000000000000000",
      "token0": "0x2fD81391E30805Cc7F2Ec827013ce86dc591B806",
      "token1": "0x0000000000000000000000000000000000000000"
    },
    "0x4483f0b6e2F5486D06958C20f8C39A7aBe87bf8F",
    "13",
    "0xc31e24f8a25a1dceccfd791ca25b62dcfec5c8f7",
    "0x302404cb8F34713A8B8DBF9b4989A41252332068",
    {
      "minTokensToReinvest": "100000000000000",
      "adminFeeBips": 0,
      "devFeeBips": 800,
      "reinvestRewardBips": 200
    }
  ],
  "solcInputHash": "1c3ea6211a266758a6311e2c8fb72f13",
  "bytecode": "0x60e0604052600960a0819052685969656c642059616b60b81b60c09081526200002c916000919062001689565b506040805180820190915260038082526216549560ea1b6020909201918252620000599160019162001689565b503480156200006757600080fd5b5060405162005c7038038062005c708339810160408190526200008a916200187f565b89898989898689878787878787600001518860200151888888806000620000b66200025660201b60201c565b600680546001600160a01b0319166001600160a01b0383169081179091556040519192509060009060008051602062005c50833981519152908290a350805162000100906200025a565b60208101516200011090620002ea565b60408101516200012090620003a1565b508851620001369060009060208c019062001689565b50600980546001600160a01b03808b166001600160a01b031992831617909255600a8054928a16928216929092179091556080839052600b8054909116732d580f9cf2fb2d09bc411532988f2afda4e7beff1790556200019887878762000458565b620001a38462000730565b620001af600162000912565b620001ba83620009bc565b60408051600080825260208201527fc7606d21ac05cd309191543e409f0845c016120563783d70e4f41419dc0ef234910160405180910390a15050505050505050506200020f84878762000ab960201b60201c565b5050601880546001600160a01b039c8d166001600160a01b031991821617909155601980549a909c169916989098179099555062001a659c50505050505050505050505050565b3390565b6006546001600160a01b03163314620002a95760405162461bcd60e51b8152602060048201819052602482015260008051602062005c3083398151915260448201526064015b60405180910390fd5b600c5460408051918252602082018390527f481f79ac3a523b6d6db3c5a720e190e986d1cc1b41adcdf50f9caef849901100910160405180910390a1600c55565b6006546001600160a01b03163314620003355760405162461bcd60e51b8152602060048201819052602482015260008051602062005c308339815191526044820152606401620002a0565b61271062000354601054836200167460201b62001d821790919060201c565b11156200036057600080fd5b60115460408051918252602082018390527f2a42303d002f0ba6cfe8259c91d4684443fb0b3de286ba74991175d651726131910160405180910390a1601155565b6006546001600160a01b03163314620003ec5760405162461bcd60e51b8152602060048201819052602482015260008051602062005c308339815191526044820152606401620002a0565b6127106200040b601154836200167460201b62001d821790919060201c565b11156200041757600080fd5b60105460408051918252602082018390527fe7f97d51d307dc44045597c9978bec0f842e6bb40d19b9444084cfa30d9ed4f2910160405180910390a1601055565b826001600160a01b0316826001600160a01b0316146200070157806001600160a01b0316630dfe16816040518163ffffffff1660e01b8152600401602060405180830381865afa158015620004b1573d6000803e3d6000fd5b505050506040513d601f19601f82011682018060405250810190620004d79190620019e4565b6001600160a01b0316826001600160a01b031603620005d257826001600160a01b0316816001600160a01b031663d21220a76040518163ffffffff1660e01b8152600401602060405180830381865afa15801562000539573d6000803e3d6000fd5b505050506040513d601f19601f820116820180604052508101906200055f9190620019e4565b6001600160a01b031614620005cc5760405162461bcd60e51b815260206004820152603f602482015260008051602062005c1083398151915260448201527f6f6573206e6f7420636f6e7461696e2065636f73797374656d20746f6b656e006064820152608401620002a0565b62000701565b806001600160a01b031663d21220a76040518163ffffffff1660e01b8152600401602060405180830381865afa15801562000611573d6000803e3d6000fd5b505050506040513d601f19601f82011682018060405250810190620006379190620019e4565b6001600160a01b0316826001600160a01b0316036200069957826001600160a01b0316816001600160a01b0316630dfe16816040518163ffffffff1660e01b8152600401602060405180830381865afa15801562000539573d6000803e3d6000fd5b60405162461bcd60e51b8152602060048201526041602482015260008051602062005c1083398151915260448201527f6f6573206e6f7420636f6e7461696e20706f6f6c2072657761726420746f6b656064820152603760f91b608482015260a401620002a0565b601280546001600160a01b039384166001600160a01b0319918216179091556013805492909316911617905550565b6001600160a01b03811615620008f357600a5460408051630dfe168160e01b815290516001600160a01b0392831692841691630dfe16819160048083019260209291908290030181865afa1580156200078d573d6000803e3d6000fd5b505050506040513d601f19601f82011682018060405250810190620007b39190620019e4565b6001600160a01b0316036200084d57806001600160a01b031663d21220a76040518163ffffffff1660e01b8152600401602060405180830381865afa15801562000801573d6000803e3d6000fd5b505050506040513d601f19601f82011682018060405250810190620008279190620019e4565b601580546001600160a01b0319166001600160a01b0392909216919091179055620008d3565b806001600160a01b0316630dfe16816040518163ffffffff1660e01b8152600401602060405180830381865afa1580156200088c573d6000803e3d6000fd5b505050506040513d601f19601f82011682018060405250810190620008b29190620019e4565b601580546001600160a01b0319166001600160a01b03929092169190911790555b601480546001600160a01b0383166001600160a01b031990911617905550565b601480546001600160a01b031990811690915560158054909116905550565b6006546001600160a01b031633146200095d5760405162461bcd60e51b8152602060048201819052602482015260008051602062005c308339815191526044820152606401620002a0565b600e5481151560ff9091161515036200097557600080fd5b600e805460ff19168215159081179091556040519081527f7b014ed3854e7f5cb0218d58b3c6ae7d53a68bb0af2f67bfb029ea42c38a7e859060200160405180910390a150565b6006546001600160a01b0316331462000a075760405162461bcd60e51b8152602060048201819052602482015260008051602062005c308339815191526044820152606401620002a0565b6001600160a01b03811662000a6e5760405162461bcd60e51b815260206004820152602660248201527f4f776e61626c653a206e6577206f776e657220697320746865207a65726f206160448201526564647265737360d01b6064820152608401620002a0565b6006546040516001600160a01b0380841692169060008051602062005c5083398151915290600090a3600680546001600160a01b0319166001600160a01b0392909216919091179055565b600960009054906101000a90046001600160a01b03166001600160a01b0316630dfe16816040518163ffffffff1660e01b8152600401602060405180830381865afa15801562000b0d573d6000803e3d6000fd5b505050506040513d601f19601f8201168201806040525081019062000b339190620019e4565b6001600160a01b0316826001600160a01b03161415801562000be05750600960009054906101000a90046001600160a01b03166001600160a01b031663d21220a76040518163ffffffff1660e01b8152600401602060405180830381865afa15801562000ba4573d6000803e3d6000fd5b505050506040513d601f19601f8201168201806040525081019062000bca9190620019e4565b6001600160a01b0316826001600160a01b031614155b156200138b5760408301516001600160a01b031662000c545760405162461bcd60e51b815260206004820152602960248201527f5377617020706169722030206973206e656365737361727920627574206e6f74604482015268081cdd5c1c1b1a595960ba1b6064820152608401620002a0565b60608301516001600160a01b031662000cc25760405162461bcd60e51b815260206004820152602960248201527f5377617020706169722031206973206e656365737361727920627574206e6f74604482015268081cdd5c1c1b1a595960ba1b6064820152608401620002a0565b604080840151601680546001600160a01b039283166001600160a01b03199182168117909255606087015160178054918516919092161790558251630dfe168160e01b81529251918516929091630dfe1681916004808201926020929091908290030181865afa15801562000d3b573d6000803e3d6000fd5b505050506040513d601f19601f8201168201806040525081019062000d619190620019e4565b6001600160a01b0316148062000def57506016546040805163d21220a760e01b815290516001600160a01b0380861693169163d21220a79160048083019260209291908290030181865afa15801562000dbe573d6000803e3d6000fd5b505050506040513d601f19601f8201168201806040525081019062000de49190620019e4565b6001600160a01b0316145b62000e715760405162461bcd60e51b815260206004820152604560248201527f53776170207061697220737570706c69656420646f6573206e6f74206861766560448201527f207468652072657761726420746f6b656e206173206f6e65206f662069742773606482015264103830b4b960d91b608482015260a401620002a0565b600960009054906101000a90046001600160a01b03166001600160a01b0316630dfe16816040518163ffffffff1660e01b8152600401602060405180830381865afa15801562000ec5573d6000803e3d6000fd5b505050506040513d601f19601f8201168201806040525081019062000eeb9190620019e4565b6001600160a01b0316601660009054906101000a90046001600160a01b03166001600160a01b0316630dfe16816040518163ffffffff1660e01b8152600401602060405180830381865afa15801562000f48573d6000803e3d6000fd5b505050506040513d601f19601f8201168201806040525081019062000f6e9190620019e4565b6001600160a01b03161480620010875750600960009054906101000a90046001600160a01b03166001600160a01b0316630dfe16816040518163ffffffff1660e01b8152600401602060405180830381865afa15801562000fd3573d6000803e3d6000fd5b505050506040513d601f19601f8201168201806040525081019062000ff99190620019e4565b6001600160a01b0316601660009054906101000a90046001600160a01b03166001600160a01b031663d21220a76040518163ffffffff1660e01b8152600401602060405180830381865afa15801562001056573d6000803e3d6000fd5b505050506040513d601f19601f820116820180604052508101906200107c9190620019e4565b6001600160a01b0316145b620010fb5760405162461bcd60e51b815260206004820152603860248201527f537761702070616972203020737570706c69656420646f6573206e6f74206d6160448201527f74636820746865207061697220696e207175657374696f6e00000000000000006064820152608401620002a0565b600960009054906101000a90046001600160a01b03166001600160a01b031663d21220a76040518163ffffffff1660e01b8152600401602060405180830381865afa1580156200114f573d6000803e3d6000fd5b505050506040513d601f19601f82011682018060405250810190620011759190620019e4565b6001600160a01b0316601760009054906101000a90046001600160a01b03166001600160a01b0316630dfe16816040518163ffffffff1660e01b8152600401602060405180830381865afa158015620011d2573d6000803e3d6000fd5b505050506040513d601f19601f82011682018060405250810190620011f89190620019e4565b6001600160a01b03161480620013115750600960009054906101000a90046001600160a01b03166001600160a01b031663d21220a76040518163ffffffff1660e01b8152600401602060405180830381865afa1580156200125d573d6000803e3d6000fd5b505050506040513d601f19601f82011682018060405250810190620012839190620019e4565b6001600160a01b0316601760009054906101000a90046001600160a01b03166001600160a01b031663d21220a76040518163ffffffff1660e01b8152600401602060405180830381865afa158015620012e0573d6000803e3d6000fd5b505050506040513d601f19601f82011682018060405250810190620013069190620019e4565b6001600160a01b0316145b620013855760405162461bcd60e51b815260206004820152603860248201527f537761702070616972203120737570706c69656420646f6573206e6f74206d6160448201527f74636820746865207061697220696e207175657374696f6e00000000000000006064820152608401620002a0565b620014fc565b600960009054906101000a90046001600160a01b03166001600160a01b0316630dfe16816040518163ffffffff1660e01b8152600401602060405180830381865afa158015620013df573d6000803e3d6000fd5b505050506040513d601f19601f82011682018060405250810190620014059190620019e4565b6001600160a01b0316826001600160a01b0316036200144657600954601780546001600160a01b0319166001600160a01b03909216919091179055620014fc565b600960009054906101000a90046001600160a01b03166001600160a01b031663d21220a76040518163ffffffff1660e01b8152600401602060405180830381865afa1580156200149a573d6000803e3d6000fd5b505050506040513d601f19601f82011682018060405250810190620014c09190620019e4565b6001600160a01b0316826001600160a01b031603620014fc57600954601680546001600160a01b0319166001600160a01b039092169190911790555b82600001516001600160a01b0316630dfe16816040518163ffffffff1660e01b8152600401602060405180830381865afa1580156200153f573d6000803e3d6000fd5b505050506040513d601f19601f82011682018060405250810190620015659190620019e4565b6001600160a01b0316816001600160a01b0316036200166f57816001600160a01b031683600001516001600160a01b031663d21220a76040518163ffffffff1660e01b8152600401602060405180830381865afa158015620015cb573d6000803e3d6000fd5b505050506040513d601f19601f82011682018060405250810190620015f19190620019e4565b6001600160a01b0316146200166f5760405162461bcd60e51b815260206004820152603a60248201527f537761702070616972207377617050616972506f6f6c52657761726420646f6560448201527f73206e6f7420636f6e7461696e2072657761726420746f6b656e0000000000006064820152608401620002a0565b505050565b600062001682828462001a02565b9392505050565b828054620016979062001a29565b90600052602060002090601f016020900481019282620016bb576000855562001706565b82601f10620016d657805160ff191683800117855562001706565b8280016001018555821562001706579182015b8281111562001706578251825591602001919060010190620016e9565b506200171492915062001718565b5090565b5b8082111562001714576000815560010162001719565b634e487b7160e01b600052604160045260246000fd5b604051601f8201601f191681016001600160401b03811182821017156200177057620017706200172f565b604052919050565b80516001600160a01b03811681146200179057600080fd5b919050565b600060808284031215620017a857600080fd5b604051608081016001600160401b0381118282101715620017cd57620017cd6200172f565b604052905080620017de8362001778565b8152620017ee6020840162001778565b6020820152620018016040840162001778565b6040820152620018146060840162001778565b60608201525092915050565b6000606082840312156200183357600080fd5b604051606081016001600160401b03811182821017156200185857620018586200172f565b80604052508091508251815260208301516020820152604083015160408201525092915050565b6000806000806000806000806000806101e08b8d031215620018a057600080fd5b8a516001600160401b0380821115620018b857600080fd5b818d0191508d601f830112620018cd57600080fd5b815181811115620018e257620018e26200172f565b60209150620018fa601f8201601f1916830162001745565b8181528f838386010111156200190f57600080fd5b60005b828110156200192f57848101840151828201850152830162001912565b82811115620019415760008484840101525b509c506200195390508d820162001778565b9a5050506200196560408c0162001778565b97506200197560608c0162001778565b9650620019868c60808d0162001795565b9550620019976101008c0162001778565b94506101208b01519350620019b06101408c0162001778565b9250620019c16101608c0162001778565b9150620019d38c6101808d0162001820565b90509295989b9194979a5092959850565b600060208284031215620019f757600080fd5b620016828262001778565b6000821982111562001a2457634e487b7160e01b600052601160045260246000fd5b500190565b600181811c9082168062001a3e57607f821691505b60208210810362001a5f57634e487b7160e01b600052602260045260246000fd5b50919050565b60805161416562001aab6000396000818161056601528181610fac015281816116810152818161202d0152818161281901528181612b920152612ef901526141656000f3fe608060405234801561001057600080fd5b50600436106103a45760003560e01c80638b73e606116101e9578063c4b24a461161010f578063e21ac825116100ad578063ee99205c1161007c578063ee99205c14610829578063f2fde38b1461083c578063f7c618c11461084f578063fdb5a03e1461086257600080fd5b8063e21ac825146107e8578063eab89a5a146107fb578063ec5568891461080e578063ed24911d1461082157600080fd5b8063d505accf116100e9578063d505accf14610776578063da09c72c14610789578063dd62ed3e1461079c578063dd8ce4d6146107d557600080fd5b8063c4b24a4614610748578063c89039c514610750578063cff1b6ef1461076357600080fd5b8063a1a4ddeb11610187578063b52a321f11610156578063b52a321f14610717578063b6b55f2514610724578063b9e57b8014610737578063bd079f551461073f57600080fd5b8063a1a4ddeb146106cb578063a8ae2b7c146106de578063a9059cbb146106f1578063ac0d31ff1461070457600080fd5b80639291d563116101c35780639291d5631461067657806395d89b411461068957806399729ec1146106915780639e4e7318146106a457600080fd5b80638b73e6061461063f5780638da5cb5b14610652578063909ac8f41461066357600080fd5b80634e77ace5116102ce578063789139bc1161026c578063818372301161023b57806381837230146105fd5780638432e894146106105780638980f11f146106235780638aff733d1461063657600080fd5b8063789139bc146105b95780637ae26773146105c25780637d882097146105d55780637ecebe00146105dd57600080fd5b80635ea682ea116102a85780635ea682ea146105585780635eaec0e41461056157806370a0823114610588578063715018a6146105b157600080fd5b80634e77ace5146105075780634ebb79161461051a5780635e5eee1b1461052d57600080fd5b80632e1a7d4d116103465780633bdc6e72116103155780633bdc6e72146104b5578063483c2ef0146104be5780634a970be7146104e15780634bebd1e7146104f457600080fd5b80632e1a7d4d1461044c5780632f4f21e21461046157806330adf81f14610474578063313ce5671461049b57600080fd5b80630f23475d116103825780630f23475d1461040157806318160ddd1461040957806320606b701461041257806323b872dd1461043957600080fd5b806306fdde03146103a957806307677111146103c7578063095ea7b3146103de575b600080fd5b6103b161086a565b6040516103be9190613b8a565b60405180910390f35b6103d0600f5481565b6040519081526020016103be565b6103f16103ec366004613bb2565b6108f8565b60405190151581526020016103be565b6103d061090f565b6103d060025481565b6103d07f8b73c3c69bb8fe3d512ecc4cf759cc79239f7b179b0ffacaa9a75d522b39400f81565b6103f1610447366004613bde565b61094a565b61045f61045a366004613c1f565b610a2e565b005b61045f61046f366004613bb2565b610b10565b6103d07f6e71edae12b1b97f4d1f60370fef10105fa2faae0126114a169c64845d6126c981565b6104a3601281565b60405160ff90911681526020016103be565b6103d060075481565b6103f16104cc366004613c38565b60086020526000908152604090205460ff1681565b61045f6104ef366004613c6b565b610b1e565b61045f610502366004613c38565b610bd0565b61045f610515366004613cc0565b610ced565b61045f610528366004613c1f565b610d94565b601a54610540906001600160a01b031681565b6040516001600160a01b0390911681526020016103be565b6103d060115481565b6103d07f000000000000000000000000000000000000000000000000000000000000000081565b6103d0610596366004613c38565b6001600160a01b031660009081526004602052604090205490565b61045f610e4e565b6103d0600d5481565b61045f6105d0366004613cdd565b610ee0565b6103d0610fa4565b6103d06105eb366004613c38565b60056020526000908152604090205481565b61045f61060b366004613c1f565b610fd1565b61045f61061e366004613c38565b61105a565b61045f610631366004613bb2565b6110c0565b6103d060105481565b61045f61064d366004613c38565b6111d5565b6006546001600160a01b0316610540565b601454610540906001600160a01b031681565b61045f610684366004613c38565b611390565b6103b1611453565b61045f61069f366004613c1f565b611460565b6103d07fc89efdaa54c0f20c7adf612882df0950f5a951637e0307cdcb4c672f298b8bc681565b601554610540906001600160a01b031681565b61045f6106ec366004613c1f565b61150c565b6103f16106ff366004613bb2565b6115b8565b61045f610712366004613d16565b6115c5565b600e546103f19060ff1681565b61045f610732366004613c1f565b611805565b6103d061180f565b6103d0600c5481565b6103d061184e565b600954610540906001600160a01b031681565b61045f610771366004613c1f565b611862565b61045f610784366004613d3b565b6118f6565b600b54610540906001600160a01b031681565b6103d06107aa366004613cdd565b6001600160a01b03918216600090815260036020908152604080832093909416825291909152205490565b6103d06107e3366004613c1f565b611a09565b61045f6107f6366004613c1f565b611a43565b6103d0610809366004613c1f565b611acc565b601954610540906001600160a01b031681565b6103d0611b00565b601854610540906001600160a01b031681565b61045f61084a366004613c38565b611ba0565b600a54610540906001600160a01b031681565b61045f611cc0565b6000805461087790613da9565b80601f01602080910402602001604051908101604052809291908181526020018280546108a390613da9565b80156108f05780601f106108c5576101008083540402835291602001916108f0565b820191906000526020600020905b8154815290600101906020018083116108d357829003601f168201915b505050505081565b6000610905338484611d8e565b5060015b92915050565b60008061091a610fa4565b90506000806109366127105b6109308585611e9c565b90611ea8565b90506109428382611eb4565b935050505090565b6001600160a01b03831660008181526003602090815260408083203380855292528220549192909190821480159061098457506000198114155b15610a155760006109b0856040518060600160405280602f81526020016140ac602f9139849190611ec0565b6001600160a01b038881166000818152600360209081526040808320948916808452948252918290208590559051848152939450919290917f8c5be1e5ebec7d5bd14f71427d1e84f3dd0314c0f7b2291e5b200ac8c7c3b925910160405180910390a3505b610a20868686611eec565b6001925050505b9392505050565b6000610a3982611acc565b905060008111610a905760405162461bcd60e51b815260206004820152601e60248201527f4d617374657243686566537472617465677956313a3a7769746864726177000060448201526064015b60405180910390fd5b610a9981612028565b600080610aa7612710610926565b600954909150610aca906001600160a01b031633610ac58685611eb4565b612052565b610ad4338561213c565b60405183815233907f884edad9ce6fa2440d8a54cc123490eb96d2768479d49ff9c7366125a9424364906020015b60405180910390a250505050565b610b1a8282612212565b5050565b6009546040517fd505accf000000000000000000000000000000000000000000000000000000008152336004820152306024820152604481018790526064810186905260ff8516608482015260a4810184905260c481018390526001600160a01b039091169063d505accf9060e401600060405180830381600087803b158015610ba757600080fd5b505af1158015610bbb573d6000803e3d6000fd5b50505050610bc93386612212565b5050505050565b6006546001600160a01b03163314610c185760405162461bcd60e51b8152602060048201819052602482015260008051602061408c8339815191526044820152606401610a87565b6001600160a01b03811660009081526008602052604090205460ff1615610c815760405162461bcd60e51b815260206004820152601c60248201527f5065726d697373696f6e65643a3a616c6c6f774465706f7369746f72000000006044820152606401610a87565b6001600160a01b0381166000908152600860205260409020805460ff19166001908117909155600754610cb391611d82565b6007556040516001600160a01b038216907fc0a1035c16faf8d1304056d92c00edf028f87e62b8235a938f00af9e3c0312c590600090a250565b6006546001600160a01b03163314610d355760405162461bcd60e51b8152602060048201819052602482015260008051602061408c8339815191526044820152606401610a87565b600e5481151560ff909116151503610d4c57600080fd5b600e805460ff19168215159081179091556040519081527f7b014ed3854e7f5cb0218d58b3c6ae7d53a68bb0af2f67bfb029ea42c38a7e85906020015b60405180910390a150565b6006546001600160a01b03163314610ddc5760405162461bcd60e51b8152602060048201819052602482015260008051602061408c8339815191526044820152606401610a87565b60008111610de957600080fd5b604051339082156108fc029083906000818181858888f19350505050158015610e16573d6000803e3d6000fd5b506040805160008152602081018390527f8c1256b8896378cd5044f80c202f9772b9d77dc85c8a6eb51967210b09bfaa289101610d89565b6006546001600160a01b03163314610e965760405162461bcd60e51b8152602060048201819052602482015260008051602061408c8339815191526044820152606401610a87565b6006546040516000916001600160a01b0316907f8be0079c531659141344cd1fd0a4f28419497f9722a3daafe3b4186f6b6457e0908390a3600680546001600160a01b0319169055565b6006546001600160a01b03163314610f285760405162461bcd60e51b8152602060048201819052602482015260008051602061408c8339815191526044820152606401610a87565b60405163095ea7b360e01b81526001600160a01b0382811660048301526000602483015283169063095ea7b3906044016020604051808303816000875af1158015610f77573d6000803e3d6000fd5b505050506040513d601f19601f82011682018060405250810190610f9b9190613de3565b610b1a57600080fd5b6000806109097f000000000000000000000000000000000000000000000000000000000000000030612411565b6006546001600160a01b031633146110195760405162461bcd60e51b8152602060048201819052602482015260008051602061408c8339815191526044820152606401610a87565b600c5460408051918252602082018390527f481f79ac3a523b6d6db3c5a720e190e986d1cc1b41adcdf50f9caef849901100910160405180910390a1600c55565b600b546001600160a01b031633146110b45760405162461bcd60e51b815260206004820152601460248201527f59616b53747261746567793a3a6f6e6c794465760000000000000000000000006044820152606401610a87565b6110bd816124a6565b50565b6006546001600160a01b031633146111085760405162461bcd60e51b8152602060048201819052602482015260008051602061408c8339815191526044820152606401610a87565b6000811161111557600080fd5b60405163a9059cbb60e01b8152336004820152602481018290526001600160a01b0383169063a9059cbb906044016020604051808303816000875af1158015611162573d6000803e3d6000fd5b505050506040513d601f19601f820116820180604052508101906111869190613de3565b61118f57600080fd5b604080516001600160a01b0384168152602081018390527f8c1256b8896378cd5044f80c202f9772b9d77dc85c8a6eb51967210b09bfaa28910160405180910390a15050565b6006546001600160a01b0316331461121d5760405162461bcd60e51b8152602060048201819052602482015260008051602061408c8339815191526044820152606401610a87565b6000600754116112955760405162461bcd60e51b815260206004820152603460248201527f5065726d697373696f6e65643a3a72656d6f76654465706f7369746f722c206e60448201527f6f20616c6c6f776564206465706f7369746f72730000000000000000000000006064820152608401610a87565b6001600160a01b03811660009081526008602052604090205460ff1615156001146113285760405162461bcd60e51b815260206004820152602a60248201527f5065726d697373696f6e65643a3a72656d6f76654465706f7369746f722c206e60448201527f6f7420616c6c6f776564000000000000000000000000000000000000000000006064820152608401610a87565b6001600160a01b0381166000908152600860205260409020805460ff19169055600754611356906001611eb4565b6007556040516001600160a01b038216907f0e86f6608b536e5339a25b65ff531f5ea91e1313d056ecd4752b35cbd16137d490600090a250565b600b546001600160a01b031633146113ea5760405162461bcd60e51b815260206004820152601460248201527f59616b53747261746567793a3a6f6e6c794465760000000000000000000000006044820152606401610a87565b600b54604080516001600160a01b03928316815291831660208301527fa8e91499ed37682f43cffb045fcc7d379a91e8c9a14e6321877ee34dee564c00910160405180910390a1600b80546001600160a01b0319166001600160a01b0392909216919091179055565b6001805461087790613da9565b6006546001600160a01b031633146114a85760405162461bcd60e51b8152602060048201819052602482015260008051602061408c8339815191526044820152606401610a87565b6127106114c060105483611d8290919063ffffffff16565b11156114cb57600080fd5b60115460408051918252602082018390527f2a42303d002f0ba6cfe8259c91d4684443fb0b3de286ba74991175d651726131910160405180910390a1601155565b6006546001600160a01b031633146115545760405162461bcd60e51b8152602060048201819052602482015260008051602061408c8339815191526044820152606401610a87565b61271061156c60115483611d8290919063ffffffff16565b111561157757600080fd5b60105460408051918252602082018390527fe7f97d51d307dc44045597c9978bec0f842e6bb40d19b9444084cfa30d9ed4f2910160405180910390a1601055565b6000610905338484611eec565b6006546001600160a01b0316331461160d5760405162461bcd60e51b8152602060048201819052602482015260008051602061408c8339815191526044820152606401610a87565b6009546040516370a0823160e01b81523060048201526000916001600160a01b0316906370a0823190602401602060405180830381865afa158015611656573d6000803e3d6000fd5b505050506040513d601f19601f8201168201806040525081019061167a9190613e00565b90506116a57f0000000000000000000000000000000000000000000000000000000000000000612695565b6009546040516370a0823160e01b81523060048201526000916001600160a01b0316906370a0823190602401602060405180830381865afa1580156116ee573d6000803e3d6000fd5b505050506040513d601f19601f820116820180604052508101906117129190613e00565b90508361171f8284611eb4565b10156117935760405162461bcd60e51b815260206004820152602960248201527f4d617374657243686566537472617465677956313a3a7265736375654465706c60448201527f6f79656446756e647300000000000000000000000000000000000000000000006064820152608401610a87565b7fc7606d21ac05cd309191543e409f0845c016120563783d70e4f41419dc0ef2346117bc610fa4565b6002546040805192835260208301919091520160405180910390a1600e5460ff16151560011480156117f057506001831515145b156117ff576117ff6000610ced565b50505050565b6110bd3382612212565b60008061181a61184e565b9050600c5481106118465761184061271061093060105484611e9c90919063ffffffff16565b91505090565b600091505090565b600080611859612798565b95945050505050565b6006546001600160a01b031633146118aa5760405162461bcd60e51b8152602060048201819052602482015260008051602061408c8339815191526044820152606401610a87565b80156118b557600080fd5b600f5460408051918252602082018390527f3cc372f330f95ac9540626dc8a25f5bf21ba607215a5d58304cb804d446f104a910160405180910390a1600f55565b428410156119465760405162461bcd60e51b815260206004820152600f60248201527f7065726d69743a3a6578706972656400000000000000000000000000000000006044820152606401610a87565b6001600160a01b038716600090815260056020526040812080547f6e71edae12b1b97f4d1f60370fef10105fa2faae0126114a169c64845d6126c9918a918a918a91908661199383613e2f565b909155506040805160208101969096526001600160a01b0394851690860152929091166060840152608083015260a082015260c0810186905260e0016040516020818303038152906040528051906020012090506119f48882868686612a2d565b6119ff888888611d8e565b5050505050505050565b6000611a1f611a16610fa4565b60025490611e9c565b600003611a2a575090565b610909611a35610fa4565b600254610930908590611e9c565b6006546001600160a01b03163314611a8b5760405162461bcd60e51b8152602060048201819052602482015260008051602061408c8339815191526044820152606401610a87565b600d5460408051918252602082018390527fa5dae50539d56dfe1fb5273d883b0c39bc76750a25d036fc5fbd09ad8fd5f57f910160405180910390a1600d55565b6000611ad9611a16610fa4565b600003611ae857506000919050565b610909600254610930611af9610fa4565b8590611e9c565b60007f8b73c3c69bb8fe3d512ecc4cf759cc79239f7b179b0ffacaa9a75d522b39400f60001b6000604051611b359190613e48565b6040519081900390207fc89efdaa54c0f20c7adf612882df0950f5a951637e0307cdcb4c672f298b8bc646604080516020810195909552840192909252606083015260808201523060a082015260c00160405160208183030381529060405280519060200120905090565b6006546001600160a01b03163314611be85760405162461bcd60e51b8152602060048201819052602482015260008051602061408c8339815191526044820152606401610a87565b6001600160a01b038116611c645760405162461bcd60e51b815260206004820152602660248201527f4f776e61626c653a206e6577206f776e657220697320746865207a65726f206160448201527f64647265737300000000000000000000000000000000000000000000000000006064820152608401610a87565b6006546040516001600160a01b038084169216907f8be0079c531659141344cd1fd0a4f28419497f9722a3daafe3b4186f6b6457e090600090a3600680546001600160a01b0319166001600160a01b0392909216919091179055565b323314611d0f5760405162461bcd60e51b815260206004820152601460248201527f59616b53747261746567793a3a6f6e6c79454f410000000000000000000000006044820152606401610a87565b600080600080611d1d612798565b9350935093509350600c54811015611d775760405162461bcd60e51b815260206004820152601e60248201527f4d617374657243686566537472617465677956313a3a7265696e7665737400006044820152606401610a87565b6117ff828585612b8d565b6000610a278284613ee3565b6001600160a01b038316611de45760405162461bcd60e51b815260206004820152601c60248201527f5f617070726f76653a3a6f776e6572207a65726f2061646472657373000000006044820152606401610a87565b6001600160a01b038216611e3a5760405162461bcd60e51b815260206004820152601e60248201527f5f617070726f76653a3a7370656e646572207a65726f206164647265737300006044820152606401610a87565b6001600160a01b0383811660008181526003602090815260408083209487168084529482529182902085905590518481527f8c5be1e5ebec7d5bd14f71427d1e84f3dd0314c0f7b2291e5b200ac8c7c3b92591015b60405180910390a3505050565b6000610a278284613efb565b6000610a278284613f1a565b6000610a278284613f3c565b60008184841115611ee45760405162461bcd60e51b8152600401610a879190613b8a565b505050900390565b6001600160a01b038216611f685760405162461bcd60e51b815260206004820152603460248201527f5f7472616e73666572546f6b656e733a2063616e6e6f74207472616e7366657260448201527f20746f20746865207a65726f20616464726573730000000000000000000000006064820152608401610a87565b611fa5816040518060600160405280602e8152602001614102602e91396001600160a01b0386166000908152600460205260409020549190611ec0565b6001600160a01b038085166000908152600460205260408082209390935590841681522054611fd49082611d82565b6001600160a01b0380841660008181526004602052604090819020939093559151908516907fddf252ad1be2c89b69c2b068fc378daa952ba7f163c4a11628f55a4df523b3ef90611e8f9085815260200190565b6110bd7f000000000000000000000000000000000000000000000000000000000000000082612cd6565b60405163a9059cbb60e01b81526001600160a01b0383811660048301526024820183905284169063a9059cbb906044016020604051808303816000875af11580156120a1573d6000803e3d6000fd5b505050506040513d601f19601f820116820180604052508101906120c59190613de3565b6121375760405162461bcd60e51b815260206004820152602a60248201527f4d617374657243686566537472617465677956313a3a5452414e534645525f4660448201527f524f4d5f4641494c4544000000000000000000000000000000000000000000006064820152608401610a87565b505050565b612179816040518060600160405280602781526020016140db602791396001600160a01b0385166000908152600460205260409020549190611ec0565b60046000846001600160a01b03166001600160a01b03168152602001908152602001600020819055506121c981604051806060016040528060278152602001614065602791396002549190611ec0565b6002556040518181526000906001600160a01b038416907fddf252ad1be2c89b69c2b068fc378daa952ba7f163c4a11628f55a4df523b3ef906020015b60405180910390a35050565b600e5460ff1615156001146122695760405162461bcd60e51b815260206004820152601e60248201527f4d617374657243686566537472617465677956313a3a5f6465706f73697400006044820152606401610a87565b600d54156122a15760008060008061227f612798565b9350935093509350600d5481111561229c5761229c828585612b8d565b505050505b6009546040517f23b872dd000000000000000000000000000000000000000000000000000000008152336004820152306024820152604481018390526001600160a01b03909116906323b872dd906064016020604051808303816000875af1158015612311573d6000803e3d6000fd5b505050506040513d601f19601f820116820180604052508101906123359190613de3565b6123a75760405162461bcd60e51b815260206004820152602560248201527f4d617374657243686566537472617465677956313a3a7472616e73666572206660448201527f61696c65640000000000000000000000000000000000000000000000000000006064820152608401610a87565b6000806123b5612710610926565b90506123cd846123c86107e38685611eb4565b612dfa565b6123d683612e7e565b836001600160a01b03167fe1fffcc4923d04b559f4d29a8bfc6cda04eb5b0d3c460751c2402c5c5cc9109c84604051610b0291815260200190565b6019546018546040517f01e1c48d0000000000000000000000000000000000000000000000000000000081526001600160a01b0391821660048201526024810185905260009291909116906301e1c48d90604401602060405180830381865afa158015612482573d6000803e3d6000fd5b505050506040513d601f19601f82011682018060405250810190610a279190613e00565b6001600160a01b0381161561267657600a54604080517f0dfe168100000000000000000000000000000000000000000000000000000000815290516001600160a01b0392831692841691630dfe16819160048083019260209291908290030181865afa15801561251a573d6000803e3d6000fd5b505050506040513d601f19601f8201168201806040525081019061253e9190613f53565b6001600160a01b0316036125d357806001600160a01b031663d21220a76040518163ffffffff1660e01b8152600401602060405180830381865afa15801561258a573d6000803e3d6000fd5b505050506040513d601f19601f820116820180604052508101906125ae9190613f53565b601580546001600160a01b0319166001600160a01b0392909216919091179055612656565b806001600160a01b0316630dfe16816040518163ffffffff1660e01b8152600401602060405180830381865afa158015612611573d6000803e3d6000fd5b505050506040513d601f19601f820116820180604052508101906126359190613f53565b601580546001600160a01b0319166001600160a01b03929092169190911790555b601480546001600160a01b0383166001600160a01b031990911617905550565b601480546001600160a01b031990811690915560158054909116905550565b60095460195460405163095ea7b360e01b81526001600160a01b0391821660048201526000602482015291169063095ea7b3906044016020604051808303816000875af11580156126ea573d6000803e3d6000fd5b505050506040513d601f19601f8201168201806040525081019061270e9190613de3565b506019546018546009546040517fd2cee46f000000000000000000000000000000000000000000000000000000008152600481018590526001600160a01b039283166024820152908216604482015291169063d2cee46f906064015b600060405180830381600087803b15801561278457600080fd5b505af1158015610bc9573d6000803e3d6000fd5b6012546040516370a0823160e01b815230600482015260009182918291829182916001600160a01b0316906370a0823190602401602060405180830381865afa1580156127e9573d6000803e3d6000fd5b505050506040513d601f19601f8201168201806040525081019061280d9190613e00565b9050600080600061283e7f000000000000000000000000000000000000000000000000000000000000000030612f1e565b9194509250905060006128518585611d82565b600a546012549192506000916001600160a01b03918216911603612875578461289a565b601254600a5460135461289a9285926001600160a01b03918216929082169116612fcb565b905060006001600160a01b03841615612990577fffffffffffffffffffffffff4ce09955c3e187ac9c0f78a5e48b1d847a0299396001600160a01b038516016128e4575083612990565b6014546001600160a01b031615612990576015546040516370a0823160e01b815230600482015261296a916001600160a01b0316906370a0823190602401602060405180830381865afa15801561293f573d6000803e3d6000fd5b505050506040513d601f19601f820116820180604052508101906129639190613e00565b8690611d82565b600a5460145491965061298d91879187916001600160a01b039182169116612fcb565b90505b600a546040516370a0823160e01b8152306004820152600091612a099184916001600160a01b0316906370a0823190602401602060405180830381865afa1580156129df573d6000803e3d6000fd5b505050506040513d601f19601f82011682018060405250810190612a039190613e00565b90611d82565b90506000612a178285611d82565b949d969c50909a50929850939650505050505050565b6000612a37611b00565b6040517f1901000000000000000000000000000000000000000000000000000000000000602082015260228101919091526042810186905260620160408051601f198184030181528282528051602091820120600080855291840180845281905260ff88169284019290925260608301869052608083018590529092509060019060a0016020604051602081039080840390855afa158015612add573d6000803e3d6000fd5b5050604051601f1901519150506001600160a01b03811615801590612b135750866001600160a01b0316816001600160a01b0316145b612b845760405162461bcd60e51b8152602060048201526024808201527f417263683a3a76616c69646174655369673a20696e76616c6964207369676e6160448201527f74757265000000000000000000000000000000000000000000000000000000006064820152608401610a87565b50505050505050565b612bb67f0000000000000000000000000000000000000000000000000000000000000000613089565b6000612bcb612bc4846130e8565b8590611d82565b9050612be1612bda858461312c565b8290611d82565b506000612bff61271061093060115485611e9c90919063ffffffff16565b90508015612c2457600a54600b54612c24916001600160a01b03908116911683612052565b6000612c4161271061093060105486611e9c90919063ffffffff16565b90508015612c6057600a54612c60906001600160a01b03163383612052565b6000612c7e612c7983612c738787611eb4565b90611eb4565b61326b565b9050612c8981612e7e565b7fc7606d21ac05cd309191543e409f0845c016120563783d70e4f41419dc0ef234612cb2610fa4565b6002546040805192835260208301919091520160405180910390a150505050505050565b6019546018546009546040517fa318c1a4000000000000000000000000000000000000000000000000000000008152600481018690526001600160a01b03928316602482015290821660448201526064810184905291169063a318c1a4906084015b600060405180830381600087803b158015612d5257600080fd5b505af1158015612d66573d6000803e3d6000fd5b50506019546018546015546040517fbb51e89f000000000000000000000000000000000000000000000000000000008152600481018890526001600160a01b03928316602482015290821660448201529116925063bb51e89f9150606401600060405180830381600087803b158015612dde57600080fd5b505af1158015612df2573d6000803e3d6000fd5b505050505050565b600254612e079082611d82565b6002556001600160a01b038216600090815260046020526040902054612e2d9082611d82565b6001600160a01b0383166000818152600460205260408082209390935591519091907fddf252ad1be2c89b69c2b068fc378daa952ba7f163c4a11628f55a4df523b3ef906122069085815260200190565b60008111612ef45760405162461bcd60e51b815260206004820152602960248201527f4d617374657243686566537472617465677956313a3a5f7374616b654465706f60448201527f736974546f6b656e7300000000000000000000000000000000000000000000006064820152608401610a87565b6110bd7f00000000000000000000000000000000000000000000000000000000000000008261329a565b6019546018546040517f6099ecb20000000000000000000000000000000000000000000000000000000081526001600160a01b0391821660048201526024810185905260009283928392839283928392911690636099ecb290604401606060405180830381865afa158015612f97573d6000803e3d6000fd5b505050506040513d601f19601f82011682018060405250810190612fbb9190613f70565b919a919950975095505050505050565b600080612fd8858561331d565b509050600080846001600160a01b0316630902f1ac6040518163ffffffff1660e01b8152600401606060405180830381865afa15801561301c573d6000803e3d6000fd5b505050506040513d601f19601f820116820180604052508101906130409190613fc0565b5091509150866001600160a01b0316836001600160a01b03161461306057905b61307d88836001600160701b0316836001600160701b031661334e565b98975050505050505050565b6019546018546015546040517f6f7b2a62000000000000000000000000000000000000000000000000000000008152600481018590526001600160a01b0392831660248201529082166044820152911690636f7b2a629060640161276a565b601254600a546000916001600160a01b03908116911603613107575090565b601254600a546013546109099285926001600160a01b03918216929082169116613396565b60008115613262576014546001600160a01b03161561317157601554600a5460145461316a9285926001600160a01b03918216929082169116613396565b9050610909565b4780156131e15773b31f66aa3c1e785363f0875a1b74e27b85fd66c76001600160a01b031663d0e30db0826040518263ffffffff1660e01b81526004016000604051808303818588803b1580156131c757600080fd5b505af11580156131db573d6000803e3d6000fd5b50505050505b6040516370a0823160e01b815230600482015261325a90859073b31f66aa3c1e785363f0875a1b74e27b85fd66c7906370a0823190602401602060405180830381865afa158015613236573d6000803e3d6000fd5b505050506040513d601f19601f82011682018060405250810190612c739190613e00565b915050610909565b50600092915050565b600a546009546016546017546000936109099386936001600160a01b0392831693918316929081169116613523565b6019546009546132b7916001600160a01b039182169116836136d5565b6019546018546009546040517fe4cca4b0000000000000000000000000000000000000000000000000000000008152600481018690526001600160a01b03928316602482015290821660448201526064810184905291169063e4cca4b090608401612d38565b600080826001600160a01b0316846001600160a01b031610613340578284613343565b83835b915091509250929050565b60008061335d856103e5611e9c565b9050600061336b8285611e9c565b9050600061337f83612a03886103e8611e9c565b905061338b8282611ea8565b979650505050505050565b6000806133a3858561331d565b509050600080846001600160a01b0316630902f1ac6040518163ffffffff1660e01b8152600401606060405180830381865afa1580156133e7573d6000803e3d6000fd5b505050506040513d601f19601f8201168201806040525081019061340b9190613fc0565b5091509150866001600160a01b0316836001600160a01b03161461342b57905b60008061344b8a856001600160701b0316856001600160701b031661334e565b9050886001600160a01b0316856001600160a01b03161461346857905b61347c6001600160a01b038a16888c6136d5565b604080516000815260208101918290527f022c0d9f000000000000000000000000000000000000000000000000000000009091526001600160a01b0388169063022c0d9f906134d49085908590309060248101614010565b600060405180830381600087803b1580156134ee57600080fd5b505af1158015613502573d6000803e3d6000fd5b505050508181116135135781613515565b805b9a9950505050505050505050565b600080613531876002611ea8565b9050600081116135a95760405162461bcd60e51b815260206004820152602f60248201527f4465784c6962726172793a3a5f636f6e76657274526577617264546f6b656e7360448201527f546f4465706f736974546f6b656e7300000000000000000000000000000000006064820152608401610a87565b6000856001600160a01b0316630dfe16816040518163ffffffff1660e01b8152600401602060405180830381865afa1580156135e9573d6000803e3d6000fd5b505050506040513d601f19601f8201168201806040525081019061360d9190613f53565b9050816001600160a01b03888116908316146136325761362f83898489613396565b90505b6000876001600160a01b031663d21220a76040518163ffffffff1660e01b8152600401602060405180830381865afa158015613672573d6000803e3d6000fd5b505050506040513d601f19601f820116820180604052508101906136969190613f53565b9050836001600160a01b038a8116908316146136bb576136b8858b848a613396565b90505b6136c689848361373c565b9b9a5050505050505050505050565b604080516001600160a01b038416602482015260448082018490528251808303909101815260649091019091526020810180517bffffffffffffffffffffffffffffffffffffffffffffffffffffffff1663a9059cbb60e01b179052612137908490613931565b6000806000856001600160a01b0316630902f1ac6040518163ffffffff1660e01b8152600401606060405180830381865afa15801561377f573d6000803e3d6000fd5b505050506040513d601f19601f820116820180604052508101906137a39190613fc0565b509150915060006137c786846001600160701b0316846001600160701b0316613a16565b9050848111156137f4578490506137f185836001600160701b0316856001600160701b0316613a16565b95505b61386b8787896001600160a01b0316630dfe16816040518163ffffffff1660e01b8152600401602060405180830381865afa158015613837573d6000803e3d6000fd5b505050506040513d601f19601f8201168201806040525081019061385b9190613f53565b6001600160a01b031691906136d5565b6138ae8782896001600160a01b031663d21220a76040518163ffffffff1660e01b8152600401602060405180830381865afa158015613837573d6000803e3d6000fd5b6040517f6a6278420000000000000000000000000000000000000000000000000000000081523060048201526001600160a01b03881690636a627842906024016020604051808303816000875af115801561390d573d6000803e3d6000fd5b505050506040513d601f19601f8201168201806040525081019061338b9190613e00565b6000613986826040518060400160405280602081526020017f5361666545524332303a206c6f772d6c6576656c2063616c6c206661696c6564815250856001600160a01b0316613a2e9092919063ffffffff16565b80519091501561213757808060200190518101906139a49190613de3565b6121375760405162461bcd60e51b815260206004820152602a60248201527f5361666545524332303a204552433230206f7065726174696f6e20646964206e60448201527f6f742073756363656564000000000000000000000000000000000000000000006064820152608401610a87565b6000613a26836109308685611e9c565b949350505050565b6060613a268484600085856001600160a01b0385163b613a905760405162461bcd60e51b815260206004820152601d60248201527f416464726573733a2063616c6c20746f206e6f6e2d636f6e74726163740000006044820152606401610a87565b600080866001600160a01b03168587604051613aac9190614048565b60006040518083038185875af1925050503d8060008114613ae9576040519150601f19603f3d011682016040523d82523d6000602084013e613aee565b606091505b509150915061338b82828660608315613b08575081610a27565b825115613b185782518084602001fd5b8160405162461bcd60e51b8152600401610a879190613b8a565b60005b83811015613b4d578181015183820152602001613b35565b838111156117ff5750506000910152565b60008151808452613b76816020860160208601613b32565b601f01601f19169290920160200192915050565b602081526000610a276020830184613b5e565b6001600160a01b03811681146110bd57600080fd5b60008060408385031215613bc557600080fd5b8235613bd081613b9d565b946020939093013593505050565b600080600060608486031215613bf357600080fd5b8335613bfe81613b9d565b92506020840135613c0e81613b9d565b929592945050506040919091013590565b600060208284031215613c3157600080fd5b5035919050565b600060208284031215613c4a57600080fd5b8135610a2781613b9d565b803560ff81168114613c6657600080fd5b919050565b600080600080600060a08688031215613c8357600080fd5b8535945060208601359350613c9a60408701613c55565b94979396509394606081013594506080013592915050565b80151581146110bd57600080fd5b600060208284031215613cd257600080fd5b8135610a2781613cb2565b60008060408385031215613cf057600080fd5b8235613cfb81613b9d565b91506020830135613d0b81613b9d565b809150509250929050565b60008060408385031215613d2957600080fd5b823591506020830135613d0b81613cb2565b600080600080600080600060e0888a031215613d5657600080fd5b8735613d6181613b9d565b96506020880135613d7181613b9d565b95506040880135945060608801359350613d8d60808901613c55565b925060a0880135915060c0880135905092959891949750929550565b600181811c90821680613dbd57607f821691505b602082108103613ddd57634e487b7160e01b600052602260045260246000fd5b50919050565b600060208284031215613df557600080fd5b8151610a2781613cb2565b600060208284031215613e1257600080fd5b5051919050565b634e487b7160e01b600052601160045260246000fd5b600060018201613e4157613e41613e19565b5060010190565b600080835481600182811c915080831680613e6457607f831692505b60208084108203613e8357634e487b7160e01b86526022600452602486fd5b818015613e975760018114613ea857613ed5565b60ff19861689528489019650613ed5565b60008a81526020902060005b86811015613ecd5781548b820152908501908301613eb4565b505084890196505b509498975050505050505050565b60008219821115613ef657613ef6613e19565b500190565b6000816000190483118215151615613f1557613f15613e19565b500290565b600082613f3757634e487b7160e01b600052601260045260246000fd5b500490565b600082821015613f4e57613f4e613e19565b500390565b600060208284031215613f6557600080fd5b8151610a2781613b9d565b600080600060608486031215613f8557600080fd5b835192506020840151613f9781613b9d565b80925050604084015190509250925092565b80516001600160701b0381168114613c6657600080fd5b600080600060608486031215613fd557600080fd5b613fde84613fa9565b9250613fec60208501613fa9565b9150604084015163ffffffff8116811461400557600080fd5b809150509250925092565b8481528360208201526001600160a01b038316604082015260806060820152600061403e6080830184613b5e565b9695505050505050565b6000825161405a818460208701613b32565b919091019291505056fe5f6275726e3a206275726e20616d6f756e74206578636565647320746f74616c20737570706c794f776e61626c653a2063616c6c6572206973206e6f7420746865206f776e65727472616e7366657246726f6d3a207472616e7366657220616d6f756e74206578636565647320616c6c6f77616e63655f6275726e3a206275726e20616d6f756e7420657863656564732066726f6d2062616c616e63655f7472616e73666572546f6b656e733a207472616e7366657220657863656564732066726f6d2062616c616e6365a26469706673582212207c2777ba51e407f52aef90ec2870fae7ea3a80acaa516ea2b6bda6edfd32605d64736f6c634300080d003353776170207061697220277377617050616972506f6f6c5265776172642720644f776e61626c653a2063616c6c6572206973206e6f7420746865206f776e65728be0079c531659141344cd1fd0a4f28419497f9722a3daafe3b4186f6b6457e0",
  "devdoc": {
    "kind": "dev",
    "methods": {
      "allowDepositor(address)": {
        "params": {
          "depositor": "address"
        }
      },
      "allowance(address,address)": {
        "params": {
          "account": "The address of the account holding the funds",
          "spender": "The address of the account spending the funds"
        },
        "returns": {
          "_0": "The number of tokens approved"
        }
      },
      "approve(address,uint256)": {
        "details": "This will overwrite the approval amount for `spender` and is subject to issues noted [here](https://eips.ethereum.org/EIPS/eip-20#approve) It is recommended to use increaseAllowance and decreaseAllowance instead",
        "params": {
          "amount": "The number of tokens that are approved (2^256-1 means infinite)",
          "spender": "The address of the account which may transfer tokens"
        },
        "returns": {
          "_0": "Whether or not the approval succeeded"
        }
      },
      "balanceOf(address)": {
        "params": {
          "account": "The address of the account to get the balance of"
        },
        "returns": {
          "_0": "The number of tokens held"
        }
      },
      "checkReward()": {
        "returns": {
          "_0": "reward tokens"
        }
      },
      "deposit(uint256)": {
        "params": {
          "amount": "Amount of tokens to deposit"
        }
      },
      "depositFor(address,uint256)": {
        "details": "Must mint receipt tokens to `account`",
        "params": {
          "account": "address to receive receipt tokens",
          "amount": "deposit tokens"
        }
      },
      "depositWithPermit(uint256,uint256,uint8,bytes32,bytes32)": {
        "params": {
          "amount": "Amount of tokens to deposit",
          "deadline": "The time at which to expire the signature",
          "r": "Half of the ECDSA signature pair",
          "s": "Half of the ECDSA signature pair",
          "v": "The recovery byte of the signature"
        }
      },
      "estimateDeployedBalance()": {
        "returns": {
          "_0": "deposit tokens after withdraw fee"
        }
      },
      "estimateReinvestReward()": {
        "returns": {
          "_0": "reward tokens"
        }
      },
      "getDepositTokensForShares(uint256)": {
        "params": {
          "amount": "receipt tokens"
        },
        "returns": {
          "_0": "deposit tokens"
        }
      },
      "getDomainSeparator()": {
        "returns": {
          "_0": "Separator"
        }
      },
      "getSharesForDepositTokens(uint256)": {
        "details": "If contract is empty, use 1:1 ratioCould return zero shares for very low amounts of deposit tokens",
        "params": {
          "amount": "deposit tokens"
        },
        "returns": {
          "_0": "receipt tokens"
        }
      },
      "owner()": {
        "details": "Returns the address of the current owner."
      },
      "permit(address,address,uint256,uint256,uint8,bytes32,bytes32)": {
        "params": {
          "deadline": "The time at which to expire the signature",
          "owner": "The address to approve from",
          "r": "Half of the ECDSA signature pair",
          "s": "Half of the ECDSA signature pair",
          "spender": "The address to be approved",
          "v": "The recovery byte of the signature",
          "value": "The number of tokens that are approved (2^256-1 means infinite)"
        }
      },
      "recoverAVAX(uint256)": {
        "params": {
          "amount": "amount"
        }
      },
      "recoverERC20(address,uint256)": {
        "params": {
          "tokenAddress": "token address",
          "tokenAmount": "amount to recover"
        }
      },
      "removeDepositor(address)": {
        "params": {
          "depositor": "address"
        }
      },
      "renounceOwnership()": {
        "details": "Leaves the contract without owner. It will not be possible to call `onlyOwner` functions anymore. Can only be called by the current owner. NOTE: Renouncing ownership will leave the contract without an owner, thereby removing any functionality that is only available to the owner."
      },
      "rescueDeployedFunds(uint256,bool)": {
        "params": {
          "disableDeposits": "bool",
          "minReturnAmountAccepted": "min deposit tokens to receive"
        }
      },
      "revokeAllowance(address,address)": {
        "params": {
          "spender": "address",
          "token": "address"
        }
      },
      "totalDeposits()": {
        "returns": {
          "_0": "total deposits available on the contract"
        }
      },
      "transfer(address,uint256)": {
        "params": {
          "amount": "The number of tokens to transfer",
          "dst": "The address of the destination account"
        },
        "returns": {
          "_0": "Whether or not the transfer succeeded"
        }
      },
      "transferFrom(address,address,uint256)": {
        "params": {
          "amount": "The number of tokens to transfer",
          "dst": "The address of the destination account",
          "src": "The address of the source account"
        },
        "returns": {
          "_0": "Whether or not the transfer succeeded"
        }
      },
      "transferOwnership(address)": {
        "details": "Transfers ownership of the contract to a new account (`newOwner`). Can only be called by the current owner."
      },
      "updateAdminFee(uint256)": {
        "details": "Deprecated; Kept for compatibility",
        "params": {
          "newValue": "fee in BIPS; required to be 0"
        }
      },
      "updateDepositsEnabled(bool)": {
        "params": {
          "newValue": "bool"
        }
      },
      "updateDevAddr(address)": {
        "params": {
          "newValue": "address"
        }
      },
      "updateDevFee(uint256)": {
        "params": {
          "newValue": "fee in BIPS"
        }
      },
      "updateMaxTokensToDepositWithoutReinvest(uint256)": {
        "params": {
          "newValue": "threshold"
        }
      },
      "updateMinTokensToReinvest(uint256)": {
        "params": {
          "newValue": "threshold"
        }
      },
      "updateReinvestReward(uint256)": {
        "params": {
          "newValue": "fee in BIPS"
        }
      },
      "withdraw(uint256)": {
        "params": {
          "amount": "receipt tokens"
        }
      }
    },
    "version": 1
  },
  "userdoc": {
    "kind": "user",
    "methods": {
      "allowDepositor(address)": {
        "notice": "Add an allowed depositor"
      },
      "allowance(address,address)": {
        "notice": "Get the number of tokens `spender` is approved to spend on behalf of `account`"
      },
      "approve(address,uint256)": {
        "notice": "Approve `spender` to transfer up to `amount` from `src`"
      },
      "balanceOf(address)": {
        "notice": "Get the number of tokens held by the `account`"
      },
      "checkReward()": {
        "notice": "Reward tokens avialable to strategy, including balance"
      },
      "deposit(uint256)": {
        "notice": "Deposit tokens to receive receipt tokens"
      },
      "depositFor(address,uint256)": {
        "notice": "Deposit on behalf of another account"
      },
      "depositWithPermit(uint256,uint256,uint8,bytes32,bytes32)": {
        "notice": "Deposit using Permit"
      },
      "estimateDeployedBalance()": {
        "notice": "Estimate recoverable balance after withdraw fee"
      },
      "estimateReinvestReward()": {
        "notice": "Estimate reinvest reward"
      },
      "getDepositTokensForShares(uint256)": {
        "notice": "Calculate deposit tokens for a given amount of receipt tokens"
      },
      "getDomainSeparator()": {
        "notice": "EIP-712 Domain separator"
      },
      "getSharesForDepositTokens(uint256)": {
        "notice": "Calculate receipt tokens for a given amount of deposit tokens"
      },
      "permit(address,address,uint256,uint256,uint8,bytes32,bytes32)": {
        "notice": "Triggers an approval from owner to spender"
      },
      "recoverAVAX(uint256)": {
        "notice": "Recover AVAX from contract"
      },
      "recoverERC20(address,uint256)": {
        "notice": "Recover ERC20 from contract"
      },
      "reinvest()": {
        "notice": "Reinvest reward tokens into deposit tokens"
      },
      "removeDepositor(address)": {
        "notice": "Remove an allowed depositor"
      },
      "rescueDeployedFunds(uint256,bool)": {
        "notice": "Rescue all available deployed deposit tokens back to Strategy"
      },
      "revokeAllowance(address,address)": {
        "notice": "Revoke token allowance"
      },
      "totalDeposits()": {
        "notice": "This function returns a snapshot of last available quotes"
      },
      "transfer(address,uint256)": {
        "notice": "Transfer `amount` tokens from `msg.sender` to `dst`"
      },
      "transferFrom(address,address,uint256)": {
        "notice": "Transfer `amount` tokens from `src` to `dst`"
      },
      "updateAdminFee(uint256)": {
        "notice": "Update admin fee"
      },
      "updateDepositsEnabled(bool)": {
        "notice": "Enable/disable deposits"
      },
      "updateDevAddr(address)": {
        "notice": "Update devAddr"
      },
      "updateDevFee(uint256)": {
        "notice": "Update developer fee"
      },
      "updateMaxTokensToDepositWithoutReinvest(uint256)": {
        "notice": "Update reinvest max threshold before a deposit"
      },
      "updateMinTokensToReinvest(uint256)": {
        "notice": "Update reinvest min threshold"
      },
      "updateReinvestReward(uint256)": {
        "notice": "Update reinvest reward"
      },
      "withdraw(uint256)": {
        "notice": "Redeem receipt tokens for deposit tokens"
      }
    },
    "version": 1
  },
  "storageLayout": {
    "storage": [
      {
        "astId": 556,
        "contract": "contracts/strategies/traderjoe/BoostedJoeStrategyForLP.sol:BoostedJoeStrategyForLP",
        "label": "name",
        "offset": 0,
        "slot": "0",
        "type": "t_string_storage"
      },
      {
        "astId": 559,
        "contract": "contracts/strategies/traderjoe/BoostedJoeStrategyForLP.sol:BoostedJoeStrategyForLP",
        "label": "symbol",
        "offset": 0,
        "slot": "1",
        "type": "t_string_storage"
      },
      {
        "astId": 564,
        "contract": "contracts/strategies/traderjoe/BoostedJoeStrategyForLP.sol:BoostedJoeStrategyForLP",
        "label": "totalSupply",
        "offset": 0,
        "slot": "2",
        "type": "t_uint256"
      },
      {
        "astId": 570,
        "contract": "contracts/strategies/traderjoe/BoostedJoeStrategyForLP.sol:BoostedJoeStrategyForLP",
        "label": "allowances",
        "offset": 0,
        "slot": "3",
        "type": "t_mapping(t_address,t_mapping(t_address,t_uint256))"
      },
      {
        "astId": 574,
        "contract": "contracts/strategies/traderjoe/BoostedJoeStrategyForLP.sol:BoostedJoeStrategyForLP",
        "label": "balances",
        "offset": 0,
        "slot": "4",
        "type": "t_mapping(t_address,t_uint256)"
      },
      {
        "astId": 590,
        "contract": "contracts/strategies/traderjoe/BoostedJoeStrategyForLP.sol:BoostedJoeStrategyForLP",
        "label": "nonces",
        "offset": 0,
        "slot": "5",
        "type": "t_mapping(t_address,t_uint256)"
      },
      {
        "astId": 7854,
        "contract": "contracts/strategies/traderjoe/BoostedJoeStrategyForLP.sol:BoostedJoeStrategyForLP",
        "label": "_owner",
        "offset": 0,
        "slot": "6",
        "type": "t_address"
      },
      {
        "astId": 7967,
        "contract": "contracts/strategies/traderjoe/BoostedJoeStrategyForLP.sol:BoostedJoeStrategyForLP",
        "label": "numberOfAllowedDepositors",
        "offset": 0,
        "slot": "7",
        "type": "t_uint256"
      },
      {
        "astId": 7971,
        "contract": "contracts/strategies/traderjoe/BoostedJoeStrategyForLP.sol:BoostedJoeStrategyForLP",
        "label": "allowedDepositors",
        "offset": 0,
        "slot": "8",
        "type": "t_mapping(t_address,t_bool)"
      },
      {
        "astId": 1965,
        "contract": "contracts/strategies/traderjoe/BoostedJoeStrategyForLP.sol:BoostedJoeStrategyForLP",
        "label": "depositToken",
        "offset": 0,
        "slot": "9",
        "type": "t_contract(IERC20)5314"
      },
      {
        "astId": 1968,
        "contract": "contracts/strategies/traderjoe/BoostedJoeStrategyForLP.sol:BoostedJoeStrategyForLP",
        "label": "rewardToken",
        "offset": 0,
        "slot": "10",
        "type": "t_contract(IERC20)5314"
      },
      {
        "astId": 1970,
        "contract": "contracts/strategies/traderjoe/BoostedJoeStrategyForLP.sol:BoostedJoeStrategyForLP",
        "label": "devAddr",
        "offset": 0,
        "slot": "11",
        "type": "t_address"
      },
      {
        "astId": 1972,
        "contract": "contracts/strategies/traderjoe/BoostedJoeStrategyForLP.sol:BoostedJoeStrategyForLP",
        "label": "MIN_TOKENS_TO_REINVEST",
        "offset": 0,
        "slot": "12",
        "type": "t_uint256"
      },
      {
        "astId": 1974,
        "contract": "contracts/strategies/traderjoe/BoostedJoeStrategyForLP.sol:BoostedJoeStrategyForLP",
        "label": "MAX_TOKENS_TO_DEPOSIT_WITHOUT_REINVEST",
        "offset": 0,
        "slot": "13",
        "type": "t_uint256"
      },
      {
        "astId": 1976,
        "contract": "contracts/strategies/traderjoe/BoostedJoeStrategyForLP.sol:BoostedJoeStrategyForLP",
        "label": "DEPOSITS_ENABLED",
        "offset": 0,
        "slot": "14",
        "type": "t_bool"
      },
      {
        "astId": 1978,
        "contract": "contracts/strategies/traderjoe/BoostedJoeStrategyForLP.sol:BoostedJoeStrategyForLP",
        "label": "ADMIN_FEE_BIPS",
        "offset": 0,
        "slot": "15",
        "type": "t_uint256"
      },
      {
        "astId": 1980,
        "contract": "contracts/strategies/traderjoe/BoostedJoeStrategyForLP.sol:BoostedJoeStrategyForLP",
        "label": "REINVEST_REWARD_BIPS",
        "offset": 0,
        "slot": "16",
        "type": "t_uint256"
      },
      {
        "astId": 1982,
        "contract": "contracts/strategies/traderjoe/BoostedJoeStrategyForLP.sol:BoostedJoeStrategyForLP",
        "label": "DEV_FEE_BIPS",
        "offset": 0,
        "slot": "17",
        "type": "t_uint256"
      },
      {
        "astId": 8673,
        "contract": "contracts/strategies/traderjoe/BoostedJoeStrategyForLP.sol:BoostedJoeStrategyForLP",
        "label": "poolRewardToken",
        "offset": 0,
        "slot": "18",
        "type": "t_address"
      },
      {
        "astId": 8676,
        "contract": "contracts/strategies/traderjoe/BoostedJoeStrategyForLP.sol:BoostedJoeStrategyForLP",
        "label": "swapPairPoolReward",
        "offset": 0,
        "slot": "19",
        "type": "t_contract(IPair)5360"
      },
      {
        "astId": 8678,
        "contract": "contracts/strategies/traderjoe/BoostedJoeStrategyForLP.sol:BoostedJoeStrategyForLP",
        "label": "swapPairExtraReward",
        "offset": 0,
        "slot": "20",
        "type": "t_address"
      },
      {
        "astId": 8680,
        "contract": "contracts/strategies/traderjoe/BoostedJoeStrategyForLP.sol:BoostedJoeStrategyForLP",
        "label": "extraToken",
        "offset": 0,
        "slot": "21",
        "type": "t_address"
      },
      {
        "astId": 9790,
        "contract": "contracts/strategies/traderjoe/BoostedJoeStrategyForLP.sol:BoostedJoeStrategyForLP",
        "label": "swapPairToken0",
        "offset": 0,
        "slot": "22",
        "type": "t_address"
      },
      {
        "astId": 9792,
        "contract": "contracts/strategies/traderjoe/BoostedJoeStrategyForLP.sol:BoostedJoeStrategyForLP",
        "label": "swapPairToken1",
        "offset": 0,
        "slot": "23",
        "type": "t_address"
      },
      {
        "astId": 43887,
        "contract": "contracts/strategies/traderjoe/BoostedJoeStrategyForLP.sol:BoostedJoeStrategyForLP",
        "label": "stakingContract",
        "offset": 0,
        "slot": "24",
        "type": "t_address"
      },
      {
        "astId": 43890,
        "contract": "contracts/strategies/traderjoe/BoostedJoeStrategyForLP.sol:BoostedJoeStrategyForLP",
        "label": "proxy",
        "offset": 0,
        "slot": "25",
        "type": "t_contract(IJoeVoterProxy)46057"
      },
      {
        "astId": 43892,
        "contract": "contracts/strategies/traderjoe/BoostedJoeStrategyForLP.sol:BoostedJoeStrategyForLP",
        "label": "swapPairRewardToken",
        "offset": 0,
        "slot": "26",
        "type": "t_address"
      }
    ],
    "types": {
      "t_address": {
        "encoding": "inplace",
        "label": "address",
        "numberOfBytes": "20"
      },
      "t_bool": {
        "encoding": "inplace",
        "label": "bool",
        "numberOfBytes": "1"
      },
      "t_contract(IERC20)5314": {
        "encoding": "inplace",
        "label": "contract IERC20",
        "numberOfBytes": "20"
      },
      "t_contract(IJoeVoterProxy)46057": {
        "encoding": "inplace",
        "label": "contract IJoeVoterProxy",
        "numberOfBytes": "20"
      },
      "t_contract(IPair)5360": {
        "encoding": "inplace",
        "label": "contract IPair",
        "numberOfBytes": "20"
      },
      "t_mapping(t_address,t_bool)": {
        "encoding": "mapping",
        "key": "t_address",
        "label": "mapping(address => bool)",
        "numberOfBytes": "32",
        "value": "t_bool"
      },
      "t_mapping(t_address,t_mapping(t_address,t_uint256))": {
        "encoding": "mapping",
        "key": "t_address",
        "label": "mapping(address => mapping(address => uint256))",
        "numberOfBytes": "32",
        "value": "t_mapping(t_address,t_uint256)"
      },
      "t_mapping(t_address,t_uint256)": {
        "encoding": "mapping",
        "key": "t_address",
        "label": "mapping(address => uint256)",
        "numberOfBytes": "32",
        "value": "t_uint256"
      },
      "t_string_storage": {
        "encoding": "bytes",
        "label": "string",
        "numberOfBytes": "32"
      },
      "t_uint256": {
        "encoding": "inplace",
        "label": "uint256",
        "numberOfBytes": "32"
      }
    }
  }
}