{
  "address": "0xF137c69c12e48c9e556dc56cAaefa387BbBeEfa7",
  "abi": [
    {
      "anonymous": false,
      "inputs": [
        {
          "indexed": true,
          "internalType": "address",
          "name": "previousOwner",
          "type": "address"
        },
        {
          "indexed": true,
          "internalType": "address",
          "name": "newOwner",
          "type": "address"
        }
      ],
      "name": "OwnershipTransferred",
      "type": "event"
    },
    {
      "anonymous": false,
      "inputs": [
        {
          "indexed": false,
          "internalType": "contract IERC20",
          "name": "token",
          "type": "address"
        },
        {
          "indexed": false,
          "internalType": "uint256",
          "name": "amount",
          "type": "uint256"
        }
      ],
      "name": "Recovered",
      "type": "event"
    },
    {
      "anonymous": false,
      "inputs": [
        {
          "indexed": true,
          "internalType": "address",
          "name": "account",
          "type": "address"
        },
        {
          "indexed": false,
          "internalType": "uint256",
          "name": "amount",
          "type": "uint256"
        }
      ],
      "name": "Redeem",
      "type": "event"
    },
    {
      "inputs": [],
      "name": "JOE",
      "outputs": [
        {
          "internalType": "contract IERC20",
          "name": "",
          "type": "address"
        }
      ],
      "stateMutability": "view",
      "type": "function"
    },
    {
      "inputs": [],
      "name": "owner",
      "outputs": [
        {
          "internalType": "address",
          "name": "",
          "type": "address"
        }
      ],
      "stateMutability": "view",
      "type": "function"
    },
    {
      "inputs": [
        {
          "internalType": "contract IERC20",
          "name": "token",
          "type": "address"
        },
        {
          "internalType": "uint256",
          "name": "amount",
          "type": "uint256"
        }
      ],
      "name": "recoverERC20",
      "outputs": [],
      "stateMutability": "nonpayable",
      "type": "function"
    },
    {
      "inputs": [
        {
          "internalType": "uint256",
          "name": "amount",
          "type": "uint256"
        }
      ],
      "name": "redeem",
      "outputs": [],
      "stateMutability": "nonpayable",
      "type": "function"
    },
    {
      "inputs": [],
      "name": "redeemEnabled",
      "outputs": [
        {
          "internalType": "bool",
          "name": "",
          "type": "bool"
        }
      ],
      "stateMutability": "view",
      "type": "function"
    },
    {
      "inputs": [],
      "name": "renounceOwnership",
      "outputs": [],
      "stateMutability": "nonpayable",
      "type": "function"
    },
    {
      "inputs": [
        {
          "internalType": "address",
          "name": "newOwner",
          "type": "address"
        }
      ],
      "name": "transferOwnership",
      "outputs": [],
      "stateMutability": "nonpayable",
      "type": "function"
    },
    {
      "inputs": [],
      "name": "veJoeStaking",
      "outputs": [
        {
          "internalType": "address",
          "name": "",
          "type": "address"
        }
      ],
      "stateMutability": "view",
      "type": "function"
    },
    {
      "inputs": [],
      "name": "withdrawFromVeJoe",
      "outputs": [],
      "stateMutability": "nonpayable",
      "type": "function"
    },
    {
      "inputs": [],
      "name": "yyJOE",
      "outputs": [
        {
          "internalType": "contract IERC20",
          "name": "",
          "type": "address"
        }
      ],
      "stateMutability": "view",
      "type": "function"
    }
  ],
  "transactionHash": "0x87917b1ce3f3db59921fbdb49e9bc35efb6e0219a67028e6838e8f00e9a689ad",
  "args": [],
  "solcInputHash": "3403f946055dacd3fd76e3d57c3dd137",
  "bytecode": "0x608060405234801561001057600080fd5b50600080546001600160a01b031916339081178255604051909182917f8be0079c531659141344cd1fd0a4f28419497f9722a3daafe3b4186f6b6457e0908290a3506110a2806100616000396000f3fe608060405234801561001057600080fd5b50600436106100be5760003560e01c8063d2f8253611610076578063ea09f6c81161005b578063ea09f6c814610168578063f2fde38b14610183578063ffebad301461019657600080fd5b8063d2f8253614610131578063db006a751461015557600080fd5b80638980f11f116100a75780638980f11f146101055780638da5cb5b14610118578063ad6c31521461012957600080fd5b806337be974c146100c3578063715018a6146100fb575b600080fd5b6100de73e7462905b79370389e8180e300f58f63d35b725f81565b6040516001600160a01b0390911681526020015b60405180910390f35b6101036101b1565b005b610103610113366004610de4565b610267565b6000546001600160a01b03166100de565b6101036103e3565b60005461014590600160a01b900460ff1681565b60405190151581526020016100f2565b610103610163366004610e10565b610756565b6100de7325d85e17dd9e544f6e9f8d44f99602dbf5a9734181565b610103610191366004610e29565b610826565b6100de736e84a6216ea6dacc71ee8e6b0a5b7322eebc0fdd81565b6000546001600160a01b031633146102105760405162461bcd60e51b815260206004820181905260248201527f4f776e61626c653a2063616c6c6572206973206e6f7420746865206f776e657260448201526064015b60405180910390fd5b600080546040516001600160a01b03909116907f8be0079c531659141344cd1fd0a4f28419497f9722a3daafe3b4186f6b6457e0908390a36000805473ffffffffffffffffffffffffffffffffffffffff19169055565b6000546001600160a01b031633146102c15760405162461bcd60e51b815260206004820181905260248201527f4f776e61626c653a2063616c6c6572206973206e6f7420746865206f776e65726044820152606401610207565b600081116103115760405162461bcd60e51b815260206004820181905260248201527f7265636f76657245524332303a3a4e6f7468696e6720746f207265636f7665726044820152606401610207565b7fffffffffffffffffffffffff18b9d6fa486c8fc7617e7f1cff0a709c2ca48da16001600160a01b038316016103895760405162461bcd60e51b815260206004820152601960248201527f7265636f76657245524332303a3a4e6f7420616c6c6f776564000000000000006044820152606401610207565b61039d6001600160a01b0383163383610964565b604080516001600160a01b0384168152602081018390527f8c1256b8896378cd5044f80c202f9772b9d77dc85c8a6eb51967210b09bfaa28910160405180910390a15050565b6000546001600160a01b0316331461043d5760405162461bcd60e51b815260206004820181905260248201527f4f776e61626c653a2063616c6c6572206973206e6f7420746865206f776e65726044820152606401610207565b6040517f43b0215f00000000000000000000000000000000000000000000000000000000815273e7462905b79370389e8180e300f58f63d35b725f60048201526000907325d85e17dd9e544f6e9f8d44f99602dbf5a97341906343b0215f90602401608060405180830381865afa1580156104bc573d6000803e3d6000fd5b505050506040513d601f19601f820116820180604052508101906104e09190610e46565b50505090506105967325d85e17dd9e544f6e9f8d44f99602dbf5a973416000632e1a7d4d60e01b8460405160240161051a91815260200190565b60408051601f198184030181529190526020810180517bffffffffffffffffffffffffffffffffffffffffffffffffffffffff167fffffffff000000000000000000000000000000000000000000000000000000009093169290921790915273e7462905b79370389e8180e300f58f63d35b725f9291906109f9565b50604051306024820152604481018290526105d590736e84a6216ea6dacc71ee8e6b0a5b7322eebc0fdd9060009063a9059cbb60e01b9060640161051a565b5073e7462905b79370389e8180e300f58f63d35b725f6001600160a01b03166318160ddd6040518163ffffffff1660e01b8152600401602060405180830381865afa158015610628573d6000803e3d6000fd5b505050506040513d601f19601f8201168201806040525081019061064c9190610e7c565b6040517f70a08231000000000000000000000000000000000000000000000000000000008152306004820152736e84a6216ea6dacc71ee8e6b0a5b7322eebc0fdd906370a0823190602401602060405180830381865afa1580156106b4573d6000803e3d6000fd5b505050506040513d601f19601f820116820180604052508101906106d89190610e7c565b146107255760405162461bcd60e51b815260206004820152601c60248201527f59727452656465656d65723a3a7769746864726177206661696c6564000000006044820152606401610207565b50600080547fffffffffffffffffffffff00ffffffffffffffffffffffffffffffffffffffff16600160a01b179055565b600054600160a01b900460ff166107af5760405162461bcd60e51b815260206004820152601c60248201527f59727452656465656d65723a3a72656465656d2064697361626c6564000000006044820152606401610207565b6107cf73e7462905b79370389e8180e300f58f63d35b725f333084610af6565b6107ee736e84a6216ea6dacc71ee8e6b0a5b7322eebc0fdd3383610964565b60405181815233907f222838db2794d11532d940e8dec38ae307ed0b63cd97c233322e221f998767a69060200160405180910390a250565b6000546001600160a01b031633146108805760405162461bcd60e51b815260206004820181905260248201527f4f776e61626c653a2063616c6c6572206973206e6f7420746865206f776e65726044820152606401610207565b6001600160a01b0381166108fc5760405162461bcd60e51b815260206004820152602660248201527f4f776e61626c653a206e6577206f776e657220697320746865207a65726f206160448201527f64647265737300000000000000000000000000000000000000000000000000006064820152608401610207565b600080546040516001600160a01b03808516939216917f8be0079c531659141344cd1fd0a4f28419497f9722a3daafe3b4186f6b6457e091a36000805473ffffffffffffffffffffffffffffffffffffffff19166001600160a01b0392909216919091179055565b6040516001600160a01b0383166024820152604481018290526109f490849063a9059cbb60e01b906064015b60408051601f198184030181529190526020810180517bffffffffffffffffffffffffffffffffffffffffffffffffffffffff167fffffffff0000000000000000000000000000000000000000000000000000000090931692909217909152610b4d565b505050565b6060600080866001600160a01b031663b61d27f68787876040518463ffffffff1660e01b8152600401610a2e93929190610eed565b6000604051808303816000875af1158015610a4d573d6000803e3d6000fd5b505050506040513d6000823e601f3d908101601f19168201604052610a759190810190610f62565b9150915081610aec5760405162461bcd60e51b815260206004820152602160248201527f4a6f65566f74657250726f78793a3a7361666545786563757465206661696c6560448201527f64000000000000000000000000000000000000000000000000000000000000006064820152608401610207565b9695505050505050565b6040516001600160a01b0380851660248301528316604482015260648101829052610b479085907f23b872dd0000000000000000000000000000000000000000000000000000000090608401610990565b50505050565b6000610ba2826040518060400160405280602081526020017f5361666545524332303a206c6f772d6c6576656c2063616c6c206661696c6564815250856001600160a01b0316610c329092919063ffffffff16565b8051909150156109f45780806020019051810190610bc09190611022565b6109f45760405162461bcd60e51b815260206004820152602a60248201527f5361666545524332303a204552433230206f7065726174696f6e20646964206e60448201527f6f742073756363656564000000000000000000000000000000000000000000006064820152608401610207565b6060610c418484600085610c4b565b90505b9392505050565b606082471015610cc35760405162461bcd60e51b815260206004820152602660248201527f416464726573733a20696e73756666696369656e742062616c616e636520666f60448201527f722063616c6c00000000000000000000000000000000000000000000000000006064820152608401610207565b6001600160a01b0385163b610d1a5760405162461bcd60e51b815260206004820152601d60248201527f416464726573733a2063616c6c20746f206e6f6e2d636f6e74726163740000006044820152606401610207565b600080866001600160a01b03168587604051610d36919061103d565b60006040518083038185875af1925050503d8060008114610d73576040519150601f19603f3d011682016040523d82523d6000602084013e610d78565b606091505b5091509150610d88828286610d93565b979650505050505050565b60608315610da2575081610c44565b825115610db25782518084602001fd5b8160405162461bcd60e51b81526004016102079190611059565b6001600160a01b0381168114610de157600080fd5b50565b60008060408385031215610df757600080fd5b8235610e0281610dcc565b946020939093013593505050565b600060208284031215610e2257600080fd5b5035919050565b600060208284031215610e3b57600080fd5b8135610c4481610dcc565b60008060008060808587031215610e5c57600080fd5b505082516020840151604085015160609095015191969095509092509050565b600060208284031215610e8e57600080fd5b5051919050565b60005b83811015610eb0578181015183820152602001610e98565b83811115610b475750506000910152565b60008151808452610ed9816020860160208601610e95565b601f01601f19169290920160200192915050565b6001600160a01b0384168152826020820152606060408201526000610f156060830184610ec1565b95945050505050565b80518015158114610f2e57600080fd5b919050565b7f4e487b7100000000000000000000000000000000000000000000000000000000600052604160045260246000fd5b60008060408385031215610f7557600080fd5b610f7e83610f1e565b9150602083015167ffffffffffffffff80821115610f9b57600080fd5b818501915085601f830112610faf57600080fd5b815181811115610fc157610fc1610f33565b604051601f8201601f19908116603f01168101908382118183101715610fe957610fe9610f33565b8160405282815288602084870101111561100257600080fd5b611013836020830160208801610e95565b80955050505050509250929050565b60006020828403121561103457600080fd5b610c4482610f1e565b6000825161104f818460208701610e95565b9190910192915050565b602081526000610c446020830184610ec156fea2646970667358221220fbf4c3dce7d825ae8f9283323fbeaac1295115f6cd9bca191c6f0ba05f26575564736f6c634300080d0033",
  "devdoc": {
    "kind": "dev",
    "methods": {
      "owner()": {
        "details": "Returns the address of the current owner."
      },
      "recoverERC20(address,uint256)": {
        "params": {
          "amount": "amount to recover",
          "token": "token address"
        }
      },
      "renounceOwnership()": {
        "details": "Leaves the contract without owner. It will not be possible to call `onlyOwner` functions anymore. Can only be called by the current owner. NOTE: Renouncing ownership will leave the contract without an owner, thereby removing any functionality that is only available to the owner."
      },
      "transferOwnership(address)": {
        "details": "Transfers ownership of the contract to a new account (`newOwner`). Can only be called by the current owner."
      }
    },
    "version": 1
  },
  "userdoc": {
    "kind": "user",
    "methods": {
      "recoverERC20(address,uint256)": {
        "notice": "Recover ERC20 from contract"
      },
      "redeem(uint256)": {
        "notice": "Redeem yyJOE for JOE"
      },
      "yyJOE()": {
        "notice": "Redemption token"
      }
    },
    "version": 1
  },
  "storageLayout": {
    "storage": [
      {
        "astId": 8322,
        "contract": "contracts/farms/JoeRedeemer.sol:JoeRedeemer",
        "label": "_owner",
        "offset": 0,
        "slot": "0",
        "type": "t_address"
      },
      {
        "astId": 3658,
        "contract": "contracts/farms/JoeRedeemer.sol:JoeRedeemer",
        "label": "redeemEnabled",
        "offset": 20,
        "slot": "0",
        "type": "t_bool"
      }
    ],
    "types": {
      "t_address": {
        "encoding": "inplace",
        "label": "address",
        "numberOfBytes": "20"
      },
      "t_bool": {
        "encoding": "inplace",
        "label": "bool",
        "numberOfBytes": "1"
      }
    }
  }
}