{
  "address": "0x3A91a592A06390ca7884c4D9dd4CBA2B4B7F36D1",
  "abi": [
    {
      "inputs": [
        {
          "internalType": "string",
          "name": "_name",
          "type": "string"
        },
        {
          "internalType": "address",
          "name": "_depositToken",
          "type": "address"
        },
        {
          "internalType": "address",
          "name": "_rewardToken",
          "type": "address"
        },
        {
          "internalType": "address",
          "name": "_stakingContract",
          "type": "address"
        },
        {
          "internalType": "address",
          "name": "_conversionContract",
          "type": "address"
        },
        {
          "internalType": "address",
          "name": "_timelock",
          "type": "address"
        },
        {
          "internalType": "uint256",
          "name": "_pid",
          "type": "uint256"
        },
        {
          "internalType": "uint256",
          "name": "_minTokensToReinvest",
          "type": "uint256"
        },
        {
          "internalType": "uint256",
          "name": "_adminFeeBips",
          "type": "uint256"
        },
        {
          "internalType": "uint256",
          "name": "_devFeeBips",
          "type": "uint256"
        },
        {
          "internalType": "uint256",
          "name": "_reinvestRewardBips",
          "type": "uint256"
        }
      ],
      "stateMutability": "nonpayable",
      "type": "constructor"
    },
    {
      "anonymous": false,
      "inputs": [
        {
          "indexed": true,
          "internalType": "address",
          "name": "account",
          "type": "address"
        }
      ],
      "name": "AllowDepositor",
      "type": "event"
    },
    {
      "anonymous": false,
      "inputs": [
        {
          "indexed": true,
          "internalType": "address",
          "name": "owner",
          "type": "address"
        },
        {
          "indexed": true,
          "internalType": "address",
          "name": "spender",
          "type": "address"
        },
        {
          "indexed": false,
          "internalType": "uint256",
          "name": "value",
          "type": "uint256"
        }
      ],
      "name": "Approval",
      "type": "event"
    },
    {
      "anonymous": false,
      "inputs": [
        {
          "indexed": true,
          "internalType": "address",
          "name": "account",
          "type": "address"
        },
        {
          "indexed": false,
          "internalType": "uint256",
          "name": "amount",
          "type": "uint256"
        }
      ],
      "name": "Deposit",
      "type": "event"
    },
    {
      "anonymous": false,
      "inputs": [
        {
          "indexed": false,
          "internalType": "bool",
          "name": "newValue",
          "type": "bool"
        }
      ],
      "name": "DepositsEnabled",
      "type": "event"
    },
    {
      "anonymous": false,
      "inputs": [
        {
          "indexed": true,
          "internalType": "address",
          "name": "previousOwner",
          "type": "address"
        },
        {
          "indexed": true,
          "internalType": "address",
          "name": "newOwner",
          "type": "address"
        }
      ],
      "name": "OwnershipTransferred",
      "type": "event"
    },
    {
      "anonymous": false,
      "inputs": [
        {
          "indexed": false,
          "internalType": "address",
          "name": "token",
          "type": "address"
        },
        {
          "indexed": false,
          "internalType": "uint256",
          "name": "amount",
          "type": "uint256"
        }
      ],
      "name": "Recovered",
      "type": "event"
    },
    {
      "anonymous": false,
      "inputs": [
        {
          "indexed": false,
          "internalType": "uint256",
          "name": "newTotalDeposits",
          "type": "uint256"
        },
        {
          "indexed": false,
          "internalType": "uint256",
          "name": "newTotalSupply",
          "type": "uint256"
        }
      ],
      "name": "Reinvest",
      "type": "event"
    },
    {
      "anonymous": false,
      "inputs": [
        {
          "indexed": true,
          "internalType": "address",
          "name": "account",
          "type": "address"
        }
      ],
      "name": "RemoveDepositor",
      "type": "event"
    },
    {
      "anonymous": false,
      "inputs": [
        {
          "indexed": true,
          "internalType": "address",
          "name": "from",
          "type": "address"
        },
        {
          "indexed": true,
          "internalType": "address",
          "name": "to",
          "type": "address"
        },
        {
          "indexed": false,
          "internalType": "uint256",
          "name": "value",
          "type": "uint256"
        }
      ],
      "name": "Transfer",
      "type": "event"
    },
    {
      "anonymous": false,
      "inputs": [
        {
          "indexed": false,
          "internalType": "uint256",
          "name": "oldValue",
          "type": "uint256"
        },
        {
          "indexed": false,
          "internalType": "uint256",
          "name": "newValue",
          "type": "uint256"
        }
      ],
      "name": "UpdateAdminFee",
      "type": "event"
    },
    {
      "anonymous": false,
      "inputs": [
        {
          "indexed": false,
          "internalType": "address",
          "name": "oldValue",
          "type": "address"
        },
        {
          "indexed": false,
          "internalType": "address",
          "name": "newValue",
          "type": "address"
        }
      ],
      "name": "UpdateDevAddr",
      "type": "event"
    },
    {
      "anonymous": false,
      "inputs": [
        {
          "indexed": false,
          "internalType": "uint256",
          "name": "oldValue",
          "type": "uint256"
        },
        {
          "indexed": false,
          "internalType": "uint256",
          "name": "newValue",
          "type": "uint256"
        }
      ],
      "name": "UpdateDevFee",
      "type": "event"
    },
    {
      "anonymous": false,
      "inputs": [
        {
          "indexed": false,
          "internalType": "uint256",
          "name": "oldValue",
          "type": "uint256"
        },
        {
          "indexed": false,
          "internalType": "uint256",
          "name": "newValue",
          "type": "uint256"
        }
      ],
      "name": "UpdateMaxTokensToDepositWithoutReinvest",
      "type": "event"
    },
    {
      "anonymous": false,
      "inputs": [
        {
          "indexed": false,
          "internalType": "uint256",
          "name": "oldValue",
          "type": "uint256"
        },
        {
          "indexed": false,
          "internalType": "uint256",
          "name": "newValue",
          "type": "uint256"
        }
      ],
      "name": "UpdateMinTokensToReinvest",
      "type": "event"
    },
    {
      "anonymous": false,
      "inputs": [
        {
          "indexed": false,
          "internalType": "uint256",
          "name": "oldValue",
          "type": "uint256"
        },
        {
          "indexed": false,
          "internalType": "uint256",
          "name": "newValue",
          "type": "uint256"
        }
      ],
      "name": "UpdateReinvestReward",
      "type": "event"
    },
    {
      "anonymous": false,
      "inputs": [
        {
          "indexed": true,
          "internalType": "address",
          "name": "account",
          "type": "address"
        },
        {
          "indexed": false,
          "internalType": "uint256",
          "name": "amount",
          "type": "uint256"
        }
      ],
      "name": "Withdraw",
      "type": "event"
    },
    {
      "inputs": [],
      "name": "ADMIN_FEE_BIPS",
      "outputs": [
        {
          "internalType": "uint256",
          "name": "",
          "type": "uint256"
        }
      ],
      "stateMutability": "view",
      "type": "function"
    },
    {
      "inputs": [],
      "name": "DEPOSITS_ENABLED",
      "outputs": [
        {
          "internalType": "bool",
          "name": "",
          "type": "bool"
        }
      ],
      "stateMutability": "view",
      "type": "function"
    },
    {
      "inputs": [],
      "name": "DEV_FEE_BIPS",
      "outputs": [
        {
          "internalType": "uint256",
          "name": "",
          "type": "uint256"
        }
      ],
      "stateMutability": "view",
      "type": "function"
    },
    {
      "inputs": [],
      "name": "DOMAIN_TYPEHASH",
      "outputs": [
        {
          "internalType": "bytes32",
          "name": "",
          "type": "bytes32"
        }
      ],
      "stateMutability": "view",
      "type": "function"
    },
    {
      "inputs": [],
      "name": "MAX_TOKENS_TO_DEPOSIT_WITHOUT_REINVEST",
      "outputs": [
        {
          "internalType": "uint256",
          "name": "",
          "type": "uint256"
        }
      ],
      "stateMutability": "view",
      "type": "function"
    },
    {
      "inputs": [],
      "name": "MIN_TOKENS_TO_REINVEST",
      "outputs": [
        {
          "internalType": "uint256",
          "name": "",
          "type": "uint256"
        }
      ],
      "stateMutability": "view",
      "type": "function"
    },
    {
      "inputs": [],
      "name": "PERMIT_TYPEHASH",
      "outputs": [
        {
          "internalType": "bytes32",
          "name": "",
          "type": "bytes32"
        }
      ],
      "stateMutability": "view",
      "type": "function"
    },
    {
      "inputs": [],
      "name": "PID",
      "outputs": [
        {
          "internalType": "uint256",
          "name": "",
          "type": "uint256"
        }
      ],
      "stateMutability": "view",
      "type": "function"
    },
    {
      "inputs": [],
      "name": "REINVEST_REWARD_BIPS",
      "outputs": [
        {
          "internalType": "uint256",
          "name": "",
          "type": "uint256"
        }
      ],
      "stateMutability": "view",
      "type": "function"
    },
    {
      "inputs": [],
      "name": "VERSION_HASH",
      "outputs": [
        {
          "internalType": "bytes32",
          "name": "",
          "type": "bytes32"
        }
      ],
      "stateMutability": "view",
      "type": "function"
    },
    {
      "inputs": [
        {
          "internalType": "address",
          "name": "depositor",
          "type": "address"
        }
      ],
      "name": "allowDepositor",
      "outputs": [],
      "stateMutability": "nonpayable",
      "type": "function"
    },
    {
      "inputs": [
        {
          "internalType": "address",
          "name": "account",
          "type": "address"
        },
        {
          "internalType": "address",
          "name": "spender",
          "type": "address"
        }
      ],
      "name": "allowance",
      "outputs": [
        {
          "internalType": "uint256",
          "name": "",
          "type": "uint256"
        }
      ],
      "stateMutability": "view",
      "type": "function"
    },
    {
      "inputs": [
        {
          "internalType": "address",
          "name": "",
          "type": "address"
        }
      ],
      "name": "allowedDepositors",
      "outputs": [
        {
          "internalType": "bool",
          "name": "",
          "type": "bool"
        }
      ],
      "stateMutability": "view",
      "type": "function"
    },
    {
      "inputs": [
        {
          "internalType": "address",
          "name": "spender",
          "type": "address"
        },
        {
          "internalType": "uint256",
          "name": "amount",
          "type": "uint256"
        }
      ],
      "name": "approve",
      "outputs": [
        {
          "internalType": "bool",
          "name": "",
          "type": "bool"
        }
      ],
      "stateMutability": "nonpayable",
      "type": "function"
    },
    {
      "inputs": [
        {
          "internalType": "address",
          "name": "account",
          "type": "address"
        }
      ],
      "name": "balanceOf",
      "outputs": [
        {
          "internalType": "uint256",
          "name": "",
          "type": "uint256"
        }
      ],
      "stateMutability": "view",
      "type": "function"
    },
    {
      "inputs": [],
      "name": "checkReward",
      "outputs": [
        {
          "internalType": "uint256",
          "name": "",
          "type": "uint256"
        }
      ],
      "stateMutability": "view",
      "type": "function"
    },
    {
      "inputs": [],
      "name": "conversionContract",
      "outputs": [
        {
          "internalType": "contract IJoeBar",
          "name": "",
          "type": "address"
        }
      ],
      "stateMutability": "view",
      "type": "function"
    },
    {
      "inputs": [],
      "name": "decimals",
      "outputs": [
        {
          "internalType": "uint8",
          "name": "",
          "type": "uint8"
        }
      ],
      "stateMutability": "view",
      "type": "function"
    },
    {
      "inputs": [
        {
          "internalType": "uint256",
          "name": "amount",
          "type": "uint256"
        }
      ],
      "name": "deposit",
      "outputs": [],
      "stateMutability": "nonpayable",
      "type": "function"
    },
    {
      "inputs": [
        {
          "internalType": "address",
          "name": "account",
          "type": "address"
        },
        {
          "internalType": "uint256",
          "name": "amount",
          "type": "uint256"
        }
      ],
      "name": "depositFor",
      "outputs": [],
      "stateMutability": "nonpayable",
      "type": "function"
    },
    {
      "inputs": [],
      "name": "depositToken",
      "outputs": [
        {
          "internalType": "contract IERC20",
          "name": "",
          "type": "address"
        }
      ],
      "stateMutability": "view",
      "type": "function"
    },
    {
      "inputs": [
        {
          "internalType": "uint256",
          "name": "amount",
          "type": "uint256"
        },
        {
          "internalType": "uint256",
          "name": "deadline",
          "type": "uint256"
        },
        {
          "internalType": "uint8",
          "name": "v",
          "type": "uint8"
        },
        {
          "internalType": "bytes32",
          "name": "r",
          "type": "bytes32"
        },
        {
          "internalType": "bytes32",
          "name": "s",
          "type": "bytes32"
        }
      ],
      "name": "depositWithPermit",
      "outputs": [],
      "stateMutability": "nonpayable",
      "type": "function"
    },
    {
      "inputs": [],
      "name": "devAddr",
      "outputs": [
        {
          "internalType": "address",
          "name": "",
          "type": "address"
        }
      ],
      "stateMutability": "view",
      "type": "function"
    },
    {
      "inputs": [],
      "name": "estimateDeployedBalance",
      "outputs": [
        {
          "internalType": "uint256",
          "name": "",
          "type": "uint256"
        }
      ],
      "stateMutability": "view",
      "type": "function"
    },
    {
      "inputs": [],
      "name": "estimateReinvestReward",
      "outputs": [
        {
          "internalType": "uint256",
          "name": "",
          "type": "uint256"
        }
      ],
      "stateMutability": "view",
      "type": "function"
    },
    {
      "inputs": [
        {
          "internalType": "uint256",
          "name": "amount",
          "type": "uint256"
        }
      ],
      "name": "getDepositTokensForShares",
      "outputs": [
        {
          "internalType": "uint256",
          "name": "",
          "type": "uint256"
        }
      ],
      "stateMutability": "view",
      "type": "function"
    },
    {
      "inputs": [],
      "name": "getDomainSeparator",
      "outputs": [
        {
          "internalType": "bytes32",
          "name": "",
          "type": "bytes32"
        }
      ],
      "stateMutability": "view",
      "type": "function"
    },
    {
      "inputs": [
        {
          "internalType": "uint256",
          "name": "amount",
          "type": "uint256"
        }
      ],
      "name": "getSharesForDepositTokens",
      "outputs": [
        {
          "internalType": "uint256",
          "name": "",
          "type": "uint256"
        }
      ],
      "stateMutability": "view",
      "type": "function"
    },
    {
      "inputs": [],
      "name": "name",
      "outputs": [
        {
          "internalType": "string",
          "name": "",
          "type": "string"
        }
      ],
      "stateMutability": "view",
      "type": "function"
    },
    {
      "inputs": [
        {
          "internalType": "address",
          "name": "",
          "type": "address"
        }
      ],
      "name": "nonces",
      "outputs": [
        {
          "internalType": "uint256",
          "name": "",
          "type": "uint256"
        }
      ],
      "stateMutability": "view",
      "type": "function"
    },
    {
      "inputs": [],
      "name": "numberOfAllowedDepositors",
      "outputs": [
        {
          "internalType": "uint256",
          "name": "",
          "type": "uint256"
        }
      ],
      "stateMutability": "view",
      "type": "function"
    },
    {
      "inputs": [],
      "name": "owner",
      "outputs": [
        {
          "internalType": "address",
          "name": "",
          "type": "address"
        }
      ],
      "stateMutability": "view",
      "type": "function"
    },
    {
      "inputs": [
        {
          "internalType": "address",
          "name": "owner",
          "type": "address"
        },
        {
          "internalType": "address",
          "name": "spender",
          "type": "address"
        },
        {
          "internalType": "uint256",
          "name": "value",
          "type": "uint256"
        },
        {
          "internalType": "uint256",
          "name": "deadline",
          "type": "uint256"
        },
        {
          "internalType": "uint8",
          "name": "v",
          "type": "uint8"
        },
        {
          "internalType": "bytes32",
          "name": "r",
          "type": "bytes32"
        },
        {
          "internalType": "bytes32",
          "name": "s",
          "type": "bytes32"
        }
      ],
      "name": "permit",
      "outputs": [],
      "stateMutability": "nonpayable",
      "type": "function"
    },
    {
      "inputs": [
        {
          "internalType": "uint256",
          "name": "amount",
          "type": "uint256"
        }
      ],
      "name": "recoverAVAX",
      "outputs": [],
      "stateMutability": "nonpayable",
      "type": "function"
    },
    {
      "inputs": [
        {
          "internalType": "address",
          "name": "tokenAddress",
          "type": "address"
        },
        {
          "internalType": "uint256",
          "name": "tokenAmount",
          "type": "uint256"
        }
      ],
      "name": "recoverERC20",
      "outputs": [],
      "stateMutability": "nonpayable",
      "type": "function"
    },
    {
      "inputs": [],
      "name": "reinvest",
      "outputs": [],
      "stateMutability": "nonpayable",
      "type": "function"
    },
    {
      "inputs": [
        {
          "internalType": "address",
          "name": "depositor",
          "type": "address"
        }
      ],
      "name": "removeDepositor",
      "outputs": [],
      "stateMutability": "nonpayable",
      "type": "function"
    },
    {
      "inputs": [],
      "name": "renounceOwnership",
      "outputs": [],
      "stateMutability": "nonpayable",
      "type": "function"
    },
    {
      "inputs": [
        {
          "internalType": "uint256",
          "name": "minReturnAmountAccepted",
          "type": "uint256"
        },
        {
          "internalType": "bool",
          "name": "disableDeposits",
          "type": "bool"
        }
      ],
      "name": "rescueDeployedFunds",
      "outputs": [],
      "stateMutability": "nonpayable",
      "type": "function"
    },
    {
      "inputs": [
        {
          "internalType": "address",
          "name": "token",
          "type": "address"
        },
        {
          "internalType": "address",
          "name": "spender",
          "type": "address"
        }
      ],
      "name": "revokeAllowance",
      "outputs": [],
      "stateMutability": "nonpayable",
      "type": "function"
    },
    {
      "inputs": [],
      "name": "rewardToken",
      "outputs": [
        {
          "internalType": "contract IERC20",
          "name": "",
          "type": "address"
        }
      ],
      "stateMutability": "view",
      "type": "function"
    },
    {
      "inputs": [],
      "name": "setAllowances",
      "outputs": [],
      "stateMutability": "nonpayable",
      "type": "function"
    },
    {
      "inputs": [],
      "name": "stakingContract",
      "outputs": [
        {
          "internalType": "contract IJoeChef",
          "name": "",
          "type": "address"
        }
      ],
      "stateMutability": "view",
      "type": "function"
    },
    {
      "inputs": [],
      "name": "symbol",
      "outputs": [
        {
          "internalType": "string",
          "name": "",
          "type": "string"
        }
      ],
      "stateMutability": "view",
      "type": "function"
    },
    {
      "inputs": [],
      "name": "totalDeposits",
      "outputs": [
        {
          "internalType": "uint256",
          "name": "",
          "type": "uint256"
        }
      ],
      "stateMutability": "view",
      "type": "function"
    },
    {
      "inputs": [],
      "name": "totalSupply",
      "outputs": [
        {
          "internalType": "uint256",
          "name": "",
          "type": "uint256"
        }
      ],
      "stateMutability": "view",
      "type": "function"
    },
    {
      "inputs": [
        {
          "internalType": "address",
          "name": "dst",
          "type": "address"
        },
        {
          "internalType": "uint256",
          "name": "amount",
          "type": "uint256"
        }
      ],
      "name": "transfer",
      "outputs": [
        {
          "internalType": "bool",
          "name": "",
          "type": "bool"
        }
      ],
      "stateMutability": "nonpayable",
      "type": "function"
    },
    {
      "inputs": [
        {
          "internalType": "address",
          "name": "src",
          "type": "address"
        },
        {
          "internalType": "address",
          "name": "dst",
          "type": "address"
        },
        {
          "internalType": "uint256",
          "name": "amount",
          "type": "uint256"
        }
      ],
      "name": "transferFrom",
      "outputs": [
        {
          "internalType": "bool",
          "name": "",
          "type": "bool"
        }
      ],
      "stateMutability": "nonpayable",
      "type": "function"
    },
    {
      "inputs": [
        {
          "internalType": "address",
          "name": "newOwner",
          "type": "address"
        }
      ],
      "name": "transferOwnership",
      "outputs": [],
      "stateMutability": "nonpayable",
      "type": "function"
    },
    {
      "inputs": [
        {
          "internalType": "uint256",
          "name": "newValue",
          "type": "uint256"
        }
      ],
      "name": "updateAdminFee",
      "outputs": [],
      "stateMutability": "nonpayable",
      "type": "function"
    },
    {
      "inputs": [
        {
          "internalType": "bool",
          "name": "newValue",
          "type": "bool"
        }
      ],
      "name": "updateDepositsEnabled",
      "outputs": [],
      "stateMutability": "nonpayable",
      "type": "function"
    },
    {
      "inputs": [
        {
          "internalType": "address",
          "name": "newValue",
          "type": "address"
        }
      ],
      "name": "updateDevAddr",
      "outputs": [],
      "stateMutability": "nonpayable",
      "type": "function"
    },
    {
      "inputs": [
        {
          "internalType": "uint256",
          "name": "newValue",
          "type": "uint256"
        }
      ],
      "name": "updateDevFee",
      "outputs": [],
      "stateMutability": "nonpayable",
      "type": "function"
    },
    {
      "inputs": [
        {
          "internalType": "uint256",
          "name": "newValue",
          "type": "uint256"
        }
      ],
      "name": "updateMaxTokensToDepositWithoutReinvest",
      "outputs": [],
      "stateMutability": "nonpayable",
      "type": "function"
    },
    {
      "inputs": [
        {
          "internalType": "uint256",
          "name": "newValue",
          "type": "uint256"
        }
      ],
      "name": "updateMinTokensToReinvest",
      "outputs": [],
      "stateMutability": "nonpayable",
      "type": "function"
    },
    {
      "inputs": [
        {
          "internalType": "uint256",
          "name": "newValue",
          "type": "uint256"
        }
      ],
      "name": "updateReinvestReward",
      "outputs": [],
      "stateMutability": "nonpayable",
      "type": "function"
    },
    {
      "inputs": [
        {
          "internalType": "uint256",
          "name": "amount",
          "type": "uint256"
        }
      ],
      "name": "withdraw",
      "outputs": [],
      "stateMutability": "nonpayable",
      "type": "function"
    },
    {
      "inputs": [],
      "name": "xJoe",
      "outputs": [
        {
          "internalType": "contract IERC20",
          "name": "",
          "type": "address"
        }
      ],
      "stateMutability": "view",
      "type": "function"
    }
  ],
  "transactionHash": "0x5f193f13551c3ca79a1075311b1161441d0ca2efbdcd432236f11c32cdabbeff",
  "args": [
    "Yield Yak: JOE",
    "0x6e84a6216eA6dACC71eE8E6b0a5B7322EEbC0fDd",
    "0x6e84a6216eA6dACC71eE8E6b0a5B7322EEbC0fDd",
    "0xd6a4F121CA35509aF06A0Be99093d08462f53052",
    "0x57319d41F71E81F3c65F2a47CA4e001EbAFd4F33",
    "0x8d36C5c6947ADCcd25Ef49Ea1aAC2ceACFff0bD7",
    24,
    "100000000000000000",
    0,
    600,
    100
  ],
  "solcInputHash": "6c6d5a3001c5691e22c64cf4ffceb7b4",
  "bytecode": "0x60c060405260096080819052685969656c642059616b60b81b60a09081526200002c9160009190620009fb565b506040805180820190915260038082526216549560ea1b60209092019182526200005991600191620009fb565b503480156200006757600080fd5b50604051620045293803806200452983398181016040526101608110156200008e57600080fd5b8101908080516040519392919084640100000000821115620000af57600080fd5b908301906020820185811115620000c557600080fd5b8251640100000000811182820188101715620000e057600080fd5b82525081516020918201929091019080838360005b838110156200010f578181015183820152602001620000f5565b50505050905090810190601f1680156200013d5780820380516001836020036101000a031916815260200191505b5060409081526020820151908201516060830151608084015160a085015160c086015160e087015161010088015161012089015161014090990151979a509598509396929591949093929091600062000195620002f8565b600680546001600160a01b0319166001600160a01b0383169081179091556040519192509060009060008051602062004509833981519152908290a3508a51620001e79060009060208e0190620009fb565b50600980546001600160a01b03808d166001600160a01b031992831617909255600a80548c8416908316179055601280548b841690831617905560138054928a16928216831790556014805482169092179091556015869055600b8054909116732d580f9cf2fb2d09bc411532988f2afda4e7beff17905562000269620002fc565b620002748462000478565b6200027f8362000522565b6200028a8262000612565b6200029581620006ee565b620002a16001620007ca565b620002ac8662000890565b604080516000808252602082015281517fc7606d21ac05cd309191543e409f0845c016120563783d70e4f41419dc0ef234929181900390910190a1505050505050505050505062000a97565b3390565b62000306620002f8565b6001600160a01b0316620003196200098a565b6001600160a01b03161462000364576040805162461bcd60e51b81526020600482018190526024820152600080516020620044e9833981519152604482015290519081900360640190fd5b6009546013546040805163095ea7b360e01b81526001600160a01b03928316600482015260001960248201529051919092169163095ea7b39160448083019260209291908290030181600087803b158015620003bf57600080fd5b505af1158015620003d4573d6000803e3d6000fd5b505050506040513d6020811015620003eb57600080fd5b50506014546012546040805163095ea7b360e01b81526001600160a01b03928316600482015260001960248201529051919092169163095ea7b39160448083019260209291908290030181600087803b1580156200044857600080fd5b505af11580156200045d573d6000803e3d6000fd5b505050506040513d60208110156200047457600080fd5b5050565b62000482620002f8565b6001600160a01b0316620004956200098a565b6001600160a01b031614620004e0576040805162461bcd60e51b81526020600482018190526024820152600080516020620044e9833981519152604482015290519081900360640190fd5b600c54604080519182526020820183905280517f481f79ac3a523b6d6db3c5a720e190e986d1cc1b41adcdf50f9caef8499011009281900390910190a1600c55565b6200052c620002f8565b6001600160a01b03166200053f6200098a565b6001600160a01b0316146200058a576040805162461bcd60e51b81526020600482018190526024820152600080516020620044e9833981519152604482015290519081900360640190fd5b612710620005c4600f54620005b0601154856200099960201b620027061790919060201c565b6200099960201b620027061790919060201c565b1115620005d057600080fd5b601054604080519182526020820183905280517f3cc372f330f95ac9540626dc8a25f5bf21ba607215a5d58304cb804d446f104a9281900390910190a1601055565b6200061c620002f8565b6001600160a01b03166200062f6200098a565b6001600160a01b0316146200067a576040805162461bcd60e51b81526020600482018190526024820152600080516020620044e9833981519152604482015290519081900360640190fd5b612710620006a0600f54620005b0601054856200099960201b620027061790919060201c565b1115620006ac57600080fd5b601154604080519182526020820183905280517f2a42303d002f0ba6cfe8259c91d4684443fb0b3de286ba74991175d6517261319281900390910190a1601155565b620006f8620002f8565b6001600160a01b03166200070b6200098a565b6001600160a01b03161462000756576040805162461bcd60e51b81526020600482018190526024820152600080516020620044e9833981519152604482015290519081900360640190fd5b6127106200077c601154620005b0601054856200099960201b620027061790919060201c565b11156200078857600080fd5b600f54604080519182526020820183905280517fe7f97d51d307dc44045597c9978bec0f842e6bb40d19b9444084cfa30d9ed4f29281900390910190a1600f55565b620007d4620002f8565b6001600160a01b0316620007e76200098a565b6001600160a01b03161462000832576040805162461bcd60e51b81526020600482018190526024820152600080516020620044e9833981519152604482015290519081900360640190fd5b600e5460ff16151581151514156200084957600080fd5b600e805482151560ff19909116811790915560408051918252517f7b014ed3854e7f5cb0218d58b3c6ae7d53a68bb0af2f67bfb029ea42c38a7e859181900360200190a150565b6200089a620002f8565b6001600160a01b0316620008ad6200098a565b6001600160a01b031614620008f8576040805162461bcd60e51b81526020600482018190526024820152600080516020620044e9833981519152604482015290519081900360640190fd5b6001600160a01b0381166200093f5760405162461bcd60e51b8152600401808060200182810382526026815260200180620044c36026913960400191505060405180910390fd5b6006546040516001600160a01b038084169216906000805160206200450983398151915290600090a3600680546001600160a01b0319166001600160a01b0392909216919091179055565b6006546001600160a01b031690565b600082820183811015620009f4576040805162461bcd60e51b815260206004820152601b60248201527f536166654d6174683a206164646974696f6e206f766572666c6f770000000000604482015290519081900360640190fd5b9392505050565b828054600181600116156101000203166002900490600052602060002090601f016020900481019282601f1062000a3e57805160ff191683800117855562000a6e565b8280016001018555821562000a6e579182015b8281111562000a6e57825182559160200191906001019062000a51565b5062000a7c92915062000a80565b5090565b5b8082111562000a7c576000815560010162000a81565b613a1c8062000aa76000396000f3fe608060405234801561001057600080fd5b506004361061038e5760003560e01c80638aff733d116101de578063c4b24a461161010f578063dd8ce4d6116100ad578063ee99205c1161007c578063ee99205c14610947578063f2fde38b1461094f578063f7c618c114610975578063fdb5a03e1461097d5761038e565b8063dd8ce4d6146108e8578063e21ac82514610905578063eab89a5a14610922578063ed24911d1461093f5761038e565b8063d505accf116100e9578063d505accf14610859578063da09c72c146108aa578063dbd9a4d4146108b2578063dd62ed3e146108ba5761038e565b8063c4b24a461461082c578063c89039c514610834578063cff1b6ef1461083c5761038e565b8063a8ae2b7c1161017c578063b52a321f11610156578063b52a321f146107f7578063b6b55f25146107ff578063b9e57b801461081c578063bd079f55146108245761038e565b8063a8ae2b7c14610789578063a9059cbb146107a6578063ac0d31ff146107d25761038e565b80639291d563116101b85780639291d5631461073657806395d89b411461075c57806399729ec1146107645780639e4e7318146107815761038e565b80638aff733d146107005780638b73e606146107085780638da5cb5b1461072e5761038e565b80634bebd1e7116102c357806370a08231116102615780637d882097116102305780637d8820971461046a5780637ecebe001461069157806381837230146106b75780638980f11f146106d45761038e565b806370a082311461062d578063715018a614610653578063789139bc1461065b5780637ae26773146106635761038e565b80634f8406dc1161029d5780634f8406dc146105f15780635ea682ea146106155780635eaec0e41461061d57806360384fdf146106255761038e565b80634bebd1e71461058f5780634e77ace5146105b55780634ebb7916146105d45761038e565b80632e1a7d4d11610330578063313ce5671161030a578063313ce5671461050b5780633bdc6e7214610529578063483c2ef0146105315780634a970be7146105575761038e565b80632e1a7d4d146104b85780632f4f21e2146104d757806330adf81f146105035761038e565b80630f23475d1161036c5780630f23475d1461046a57806318160ddd1461047257806320606b701461047a57806323b872dd146104825761038e565b806306fdde03146103935780630767711114610410578063095ea7b31461042a575b600080fd5b61039b610985565b6040805160208082528351818301528351919283929083019185019080838360005b838110156103d55781810151838201526020016103bd565b50505050905090810190601f1680156104025780820380516001836020036101000a031916815260200191505b509250505060405180910390f35b610418610a13565b60408051918252519081900360200190f35b6104566004803603604081101561044057600080fd5b506001600160a01b038135169060200135610a19565b604080519115158252519081900360200190f35b610418610a30565b610418610adc565b610418610ae2565b6104566004803603606081101561049857600080fd5b506001600160a01b03813581169160208101359091169060400135610b06565b6104d5600480360360208110156104ce57600080fd5b5035610be8565b005b6104d5600480360360408110156104ed57600080fd5b506001600160a01b038135169060200135610d52565b610418610d60565b610513610d84565b6040805160ff9092168252519081900360200190f35b610418610d89565b6104566004803603602081101561054757600080fd5b50356001600160a01b0316610d8f565b6104d5600480360360a081101561056d57600080fd5b5080359060208101359060ff6040820135169060608101359060800135610da4565b6104d5600480360360208110156105a557600080fd5b50356001600160a01b0316610e5d565b6104d5600480360360208110156105cb57600080fd5b50351515610f99565b6104d5600480360360208110156105ea57600080fd5b5035611058565b6105f9611134565b604080516001600160a01b039092168252519081900360200190f35b610418611143565b610418611149565b6105f961114f565b6104186004803603602081101561064357600080fd5b50356001600160a01b031661115e565b6104d561117d565b610418611236565b6104d56004803603604081101561067957600080fd5b506001600160a01b038135811691602001351661123c565b610418600480360360208110156106a757600080fd5b50356001600160a01b031661132b565b6104d5600480360360208110156106cd57600080fd5b503561133d565b6104d5600480360360408110156106ea57600080fd5b506001600160a01b0381351690602001356113e1565b61041861151c565b6104d56004803603602081101561071e57600080fd5b50356001600160a01b0316611522565b6105f9611689565b6104d56004803603602081101561074c57600080fd5b50356001600160a01b0316611698565b61039b61176e565b6104d56004803603602081101561077a57600080fd5b50356117c8565b61041861189b565b6104d56004803603602081101561079f57600080fd5b50356118bf565b610456600480360360408110156107bc57600080fd5b506001600160a01b03813516906020013561198c565b6104d5600480360360408110156107e857600080fd5b50803590602001351515611999565b610456611d1d565b6104d56004803603602081101561081557600080fd5b5035611d26565b610418611d33565b610418611d7a565b610418611d80565b6105f9611f7a565b6104d56004803603602081101561085257600080fd5b5035611f89565b6104d5600480360360e081101561086f57600080fd5b506001600160a01b03813581169160208101359091169060408101359060608101359060ff6080820135169060a08101359060c00135612056565b6105f9612156565b6104d5612165565b610418600480360360408110156108d057600080fd5b506001600160a01b03813581169160200135166122d1565b610418600480360360208110156108fe57600080fd5b50356122fc565b6104d56004803603602081101561091b57600080fd5b5035612336565b6104186004803603602081101561093857600080fd5b50356123da565b61041861240b565b6105f9612518565b6104d56004803603602081101561096557600080fd5b50356001600160a01b0316612527565b6105f9612637565b6104d5612646565b6000805460408051602060026001851615610100026000190190941693909304601f81018490048402820184019092528181529291830182828015610a0b5780601f106109e057610100808354040283529160200191610a0b565b820191906000526020600020905b8154815290600101906020018083116109ee57829003601f168201915b505050505081565b60105481565b6000610a26338484612767565b5060015b92915050565b601254601554604080517f93f1a40b0000000000000000000000000000000000000000000000000000000081526004810192909252306024830152805160009384936001600160a01b03909116926393f1a40b92604480840193829003018186803b158015610a9e57600080fd5b505afa158015610ab2573d6000803e3d6000fd5b505050506040513d6040811015610ac857600080fd5b50519050610ad58161287f565b9150505b90565b60025481565b7f8b73c3c69bb8fe3d512ecc4cf759cc79239f7b179b0ffacaa9a75d522b39400f81565b6001600160a01b038316600081815260036020908152604080832033808552925282205491929091908214801590610b4057506000198114155b15610bd1576000610b6c856040518060600160405280602f8152602001613940602f91398491906129a4565b6001600160a01b0380891660008181526003602090815260408083209489168084529482529182902085905581518581529151949550929391927f8c5be1e5ebec7d5bd14f71427d1e84f3dd0314c0f7b2291e5b200ac8c7c3b92592918290030190a3505b610bdc868686612a3b565b50600195945050505050565b6000610bf3826123da565b905060008111610c4a576040805162461bcd60e51b815260206004820152601a60248201527f436f6d706f756e64696e674a6f6556323a3a7769746864726177000000000000604482015290519081900360640190fd5b610c5381612b48565b6009546040805163a9059cbb60e01b81523360048201526024810184905290516001600160a01b039092169163a9059cbb916044808201926020929091908290030181600087803b158015610ca757600080fd5b505af1158015610cbb573d6000803e3d6000fd5b505050506040513d6020811015610cd157600080fd5b5051610d0e5760405162461bcd60e51b815260040180806020018281038252602a8152602001806138e2602a913960400191505060405180910390fd5b610d183383612c9f565b60408051828152905133917f884edad9ce6fa2440d8a54cc123490eb96d2768479d49ff9c7366125a9424364919081900360200190a25050565b610d5c8282612d74565b5050565b7f6e71edae12b1b97f4d1f60370fef10105fa2faae0126114a169c64845d6126c981565b601281565b60075481565b60086020526000908152604090205460ff1681565b600954604080517fd505accf000000000000000000000000000000000000000000000000000000008152336004820152306024820152604481018890526064810187905260ff8616608482015260a4810185905260c4810184905290516001600160a01b039092169163d505accf9160e48082019260009290919082900301818387803b158015610e3457600080fd5b505af1158015610e48573d6000803e3d6000fd5b50505050610e563386612d74565b5050505050565b610e65612eff565b6001600160a01b0316610e76611689565b6001600160a01b031614610ebf576040805162461bcd60e51b815260206004820181905260248201526000805160206138c2833981519152604482015290519081900360640190fd5b6001600160a01b03811660009081526008602052604090205460ff1615610f2d576040805162461bcd60e51b815260206004820152601c60248201527f5065726d697373696f6e65643a3a616c6c6f774465706f7369746f7200000000604482015290519081900360640190fd5b6001600160a01b0381166000908152600860205260409020805460ff19166001908117909155600754610f5f91612706565b6007556040516001600160a01b038216907fc0a1035c16faf8d1304056d92c00edf028f87e62b8235a938f00af9e3c0312c590600090a250565b610fa1612eff565b6001600160a01b0316610fb2611689565b6001600160a01b031614610ffb576040805162461bcd60e51b815260206004820181905260248201526000805160206138c2833981519152604482015290519081900360640190fd5b600e5460ff161515811515141561101157600080fd5b600e805482151560ff19909116811790915560408051918252517f7b014ed3854e7f5cb0218d58b3c6ae7d53a68bb0af2f67bfb029ea42c38a7e859181900360200190a150565b611060612eff565b6001600160a01b0316611071611689565b6001600160a01b0316146110ba576040805162461bcd60e51b815260206004820181905260248201526000805160206138c2833981519152604482015290519081900360640190fd5b600081116110c757600080fd5b604051339082156108fc029083906000818181858888f193505050501580156110f4573d6000803e3d6000fd5b5060408051600081526020810183905281517f8c1256b8896378cd5044f80c202f9772b9d77dc85c8a6eb51967210b09bfaa28929181900390910190a150565b6013546001600160a01b031681565b60115481565b60155481565b6014546001600160a01b031681565b6001600160a01b0381166000908152600460205260409020545b919050565b611185612eff565b6001600160a01b0316611196611689565b6001600160a01b0316146111df576040805162461bcd60e51b815260206004820181905260248201526000805160206138c2833981519152604482015290519081900360640190fd5b6006546040516000916001600160a01b0316907f8be0079c531659141344cd1fd0a4f28419497f9722a3daafe3b4186f6b6457e0908390a36006805473ffffffffffffffffffffffffffffffffffffffff19169055565b600d5481565b611244612eff565b6001600160a01b0316611255611689565b6001600160a01b03161461129e576040805162461bcd60e51b815260206004820181905260248201526000805160206138c2833981519152604482015290519081900360640190fd5b816001600160a01b031663095ea7b38260006040518363ffffffff1660e01b815260040180836001600160a01b0316815260200182815260200192505050602060405180830381600087803b1580156112f657600080fd5b505af115801561130a573d6000803e3d6000fd5b505050506040513d602081101561132057600080fd5b5051610d5c57600080fd5b60056020526000908152604090205481565b611345612eff565b6001600160a01b0316611356611689565b6001600160a01b03161461139f576040805162461bcd60e51b815260206004820181905260248201526000805160206138c2833981519152604482015290519081900360640190fd5b600c54604080519182526020820183905280517f481f79ac3a523b6d6db3c5a720e190e986d1cc1b41adcdf50f9caef8499011009281900390910190a1600c55565b6113e9612eff565b6001600160a01b03166113fa611689565b6001600160a01b031614611443576040805162461bcd60e51b815260206004820181905260248201526000805160206138c2833981519152604482015290519081900360640190fd5b6000811161145057600080fd5b6040805163a9059cbb60e01b81523360048201526024810183905290516001600160a01b0384169163a9059cbb9160448083019260209291908290030181600087803b15801561149f57600080fd5b505af11580156114b3573d6000803e3d6000fd5b505050506040513d60208110156114c957600080fd5b50516114d457600080fd5b604080516001600160a01b03841681526020810183905281517f8c1256b8896378cd5044f80c202f9772b9d77dc85c8a6eb51967210b09bfaa28929181900390910190a15050565b600f5481565b61152a612eff565b6001600160a01b031661153b611689565b6001600160a01b031614611584576040805162461bcd60e51b815260206004820181905260248201526000805160206138c2833981519152604482015290519081900360640190fd5b6000600754116115c55760405162461bcd60e51b81526004018080602001828103825260348152602001806137886034913960400191505060405180910390fd5b6001600160a01b03811660009081526008602052604090205460ff1615156001146116215760405162461bcd60e51b815260040180806020018281038252602a81526020018061382b602a913960400191505060405180910390fd5b6001600160a01b0381166000908152600860205260409020805460ff1916905560075461164f906001612f03565b6007556040516001600160a01b038216907f0e86f6608b536e5339a25b65ff531f5ea91e1313d056ecd4752b35cbd16137d490600090a250565b6006546001600160a01b031690565b600b546001600160a01b031633146116f7576040805162461bcd60e51b815260206004820152601460248201527f59616b53747261746567793a3a6f6e6c79446576000000000000000000000000604482015290519081900360640190fd5b600b54604080516001600160a01b039283168152918316602083015280517fa8e91499ed37682f43cffb045fcc7d379a91e8c9a14e6321877ee34dee564c009281900390910190a1600b805473ffffffffffffffffffffffffffffffffffffffff19166001600160a01b0392909216919091179055565b60018054604080516020600284861615610100026000190190941693909304601f81018490048402820184019092528181529291830182828015610a0b5780601f106109e057610100808354040283529160200191610a0b565b6117d0612eff565b6001600160a01b03166117e1611689565b6001600160a01b03161461182a576040805162461bcd60e51b815260206004820181905260248201526000805160206138c2833981519152604482015290519081900360640190fd5b61271061184e600f546118486010548561270690919063ffffffff16565b90612706565b111561185957600080fd5b601154604080519182526020820183905280517f2a42303d002f0ba6cfe8259c91d4684443fb0b3de286ba74991175d6517261319281900390910190a1601155565b7fc89efdaa54c0f20c7adf612882df0950f5a951637e0307cdcb4c672f298b8bc681565b6118c7612eff565b6001600160a01b03166118d8611689565b6001600160a01b031614611921576040805162461bcd60e51b815260206004820181905260248201526000805160206138c2833981519152604482015290519081900360640190fd5b61271061193f6011546118486010548561270690919063ffffffff16565b111561194a57600080fd5b600f54604080519182526020820183905280517fe7f97d51d307dc44045597c9978bec0f842e6bb40d19b9444084cfa30d9ed4f29281900390910190a1600f55565b6000610a26338484612a3b565b6119a1612eff565b6001600160a01b03166119b2611689565b6001600160a01b0316146119fb576040805162461bcd60e51b815260206004820181905260248201526000805160206138c2833981519152604482015290519081900360640190fd5b600954604080516370a0823160e01b815230600482015290516000926001600160a01b0316916370a08231916024808301926020929190829003018186803b158015611a4657600080fd5b505afa158015611a5a573d6000803e3d6000fd5b505050506040513d6020811015611a7057600080fd5b5051601254601554604080517f5312ea8e0000000000000000000000000000000000000000000000000000000081526004810192909252519293506001600160a01b0390911691635312ea8e9160248082019260009290919082900301818387803b158015611ade57600080fd5b505af1158015611af2573d6000803e3d6000fd5b5050601354601454604080516370a0823160e01b815230600482015290516001600160a01b0393841695506367dfd4c9945091909216916370a08231916024808301926020929190829003018186803b158015611b4e57600080fd5b505afa158015611b62573d6000803e3d6000fd5b505050506040513d6020811015611b7857600080fd5b5051604080517fffffffff0000000000000000000000000000000000000000000000000000000060e085901b168152600481019290925251602480830192600092919082900301818387803b158015611bd057600080fd5b505af1158015611be4573d6000803e3d6000fd5b5050600954604080516370a0823160e01b81523060048201529051600094506001600160a01b0390921692506370a08231916024808301926020929190829003018186803b158015611c3557600080fd5b505afa158015611c49573d6000803e3d6000fd5b505050506040513d6020811015611c5f57600080fd5b5051905083611c6e8284612f03565b1015611cab5760405162461bcd60e51b815260040180806020018281038252602581526020018061387c6025913960400191505060405180910390fd5b7fc7606d21ac05cd309191543e409f0845c016120563783d70e4f41419dc0ef234611cd4610a30565b6002546040805192835260208301919091528051918290030190a1600e5460ff1615156001148015611d0857506001831515145b15611d1757611d176000610f99565b50505050565b600e5460ff1681565b611d303382612d74565b50565b600080611d3e611d80565b9050600c548110611d7257611d6a612710611d64600f5484612f4590919063ffffffff16565b90612f9e565b915050610ad9565b600091505090565b600c5481565b601254601554604080517fffcd426300000000000000000000000000000000000000000000000000000000815260048101929092523060248301525160009283926001600160a01b039091169163ffcd4263916044808201928692909190829003018186803b158015611df257600080fd5b505afa158015611e06573d6000803e3d6000fd5b505050506040513d6000823e601f3d908101601f191682016040526080811015611e2f57600080fd5b81516020830151604080850180519151939592948301929184640100000000821115611e5a57600080fd5b908301906020820185811115611e6f57600080fd5b8251640100000000811182820188101715611e8957600080fd5b82525081516020918201929091019080838360005b83811015611eb6578181015183820152602001611e9e565b50505050905090810190601f168015611ee35780820380516001836020036101000a031916815260200191505b506040818152600a546370a0823160e01b835230600484015290519798506000976001600160a01b0390911696506370a082319550602480830195506020945090925090829003018186803b158015611f3b57600080fd5b505afa158015611f4f573d6000803e3d6000fd5b505050506040513d6020811015611f6557600080fd5b50519050611f738282612706565b9250505090565b6009546001600160a01b031681565b611f91612eff565b6001600160a01b0316611fa2611689565b6001600160a01b031614611feb576040805162461bcd60e51b815260206004820181905260248201526000805160206138c2833981519152604482015290519081900360640190fd5b612710612009600f546118486011548561270690919063ffffffff16565b111561201457600080fd5b601054604080519182526020820183905280517f3cc372f330f95ac9540626dc8a25f5bf21ba607215a5d58304cb804d446f104a9281900390910190a1601055565b428410156120ab576040805162461bcd60e51b815260206004820152600f60248201527f7065726d69743a3a657870697265640000000000000000000000000000000000604482015290519081900360640190fd5b6001600160a01b0380881660008181526005602090815260409182902080546001810190915582517f6e71edae12b1b97f4d1f60370fef10105fa2faae0126114a169c64845d6126c98184015280840194909452938a1660608401526080830189905260a083019390935260c08083018890528151808403909101815260e0909201905280519101206121418882868686612fe0565b61214c888888612767565b5050505050505050565b600b546001600160a01b031681565b61216d612eff565b6001600160a01b031661217e611689565b6001600160a01b0316146121c7576040805162461bcd60e51b815260206004820181905260248201526000805160206138c2833981519152604482015290519081900360640190fd5b6009546013546040805163095ea7b360e01b81526001600160a01b03928316600482015260001960248201529051919092169163095ea7b39160448083019260209291908290030181600087803b15801561222157600080fd5b505af1158015612235573d6000803e3d6000fd5b505050506040513d602081101561224b57600080fd5b50506014546012546040805163095ea7b360e01b81526001600160a01b03928316600482015260001960248201529051919092169163095ea7b39160448083019260209291908290030181600087803b1580156122a757600080fd5b505af11580156122bb573d6000803e3d6000fd5b505050506040513d6020811015610d5c57600080fd5b6001600160a01b03918216600090815260036020908152604080832093909416825291909152205490565b6000612312612309610a30565b60025490612f45565b61231d575080611178565b610a2a612328610a30565b600254611d64908590612f45565b61233e612eff565b6001600160a01b031661234f611689565b6001600160a01b031614612398576040805162461bcd60e51b815260206004820181905260248201526000805160206138c2833981519152604482015290519081900360640190fd5b600d54604080519182526020820183905280517fa5dae50539d56dfe1fb5273d883b0c39bc76750a25d036fc5fbd09ad8fd5f57f9281900390910190a1600d55565b60006123e7612309610a30565b6123f357506000611178565b610a2a600254611d64612404610a30565b8590612f45565b60007f8b73c3c69bb8fe3d512ecc4cf759cc79239f7b179b0ffacaa9a75d522b39400f60001b6000604051808280546001816001161561010002031660029004801561248e5780601f1061246c57610100808354040283529182019161248e565b820191906000526020600020905b81548152906001019060200180831161247a575b505091505060405180910390207fc89efdaa54c0f20c7adf612882df0950f5a951637e0307cdcb4c672f298b8bc660001b6124c7613118565b3060405160200180868152602001858152602001848152602001838152602001826001600160a01b031681526020019550505050505060405160208183030381529060405280519060200120905090565b6012546001600160a01b031681565b61252f612eff565b6001600160a01b0316612540611689565b6001600160a01b031614612589576040805162461bcd60e51b815260206004820181905260248201526000805160206138c2833981519152604482015290519081900360640190fd5b6001600160a01b0381166125ce5760405162461bcd60e51b81526004018080602001828103825260268152602001806137626026913960400191505060405180910390fd5b6006546040516001600160a01b038084169216907f8be0079c531659141344cd1fd0a4f28419497f9722a3daafe3b4186f6b6457e090600090a36006805473ffffffffffffffffffffffffffffffffffffffff19166001600160a01b0392909216919091179055565b600a546001600160a01b031681565b32331461269a576040805162461bcd60e51b815260206004820152601460248201527f59616b53747261746567793a3a6f6e6c79454f41000000000000000000000000604482015290519081900360640190fd5b60006126a4611d80565b9050600c548110156126fd576040805162461bcd60e51b815260206004820152601a60248201527f436f6d706f756e64696e674a6f6556323a3a7265696e76657374000000000000604482015290519081900360640190fd5b611d308161311c565b600082820183811015612760576040805162461bcd60e51b815260206004820152601b60248201527f536166654d6174683a206164646974696f6e206f766572666c6f770000000000604482015290519081900360640190fd5b9392505050565b6001600160a01b0383166127c2576040805162461bcd60e51b815260206004820152601c60248201527f5f617070726f76653a3a6f776e6572207a65726f206164647265737300000000604482015290519081900360640190fd5b6001600160a01b03821661281d576040805162461bcd60e51b815260206004820152601e60248201527f5f617070726f76653a3a7370656e646572207a65726f20616464726573730000604482015290519081900360640190fd5b6001600160a01b03808416600081815260036020908152604080832094871680845294825291829020859055815185815291517f8c5be1e5ebec7d5bd14f71427d1e84f3dd0314c0f7b2291e5b200ac8c7c3b9259281900390910190a3505050565b600954601354604080516370a0823160e01b81526001600160a01b0392831660048201529051600093849316916370a08231916024808301926020929190829003018186803b1580156128d157600080fd5b505afa1580156128e5573d6000803e3d6000fd5b505050506040513d60208110156128fb57600080fd5b5051601454604080516318160ddd60e01b815290519293506000926001600160a01b03909216916318160ddd91600480820192602092909190829003018186803b15801561294857600080fd5b505afa15801561295c573d6000803e3d6000fd5b505050506040513d602081101561297257600080fd5b505190506129808282612f45565b61298e578392505050611178565b61299c81611d648685612f45565b949350505050565b60008184841115612a335760405162461bcd60e51b81526004018080602001828103825283818151815260200191508051906020019080838360005b838110156129f85781810151838201526020016129e0565b50505050905090810190601f168015612a255780820380516001836020036101000a031916815260200191505b509250505060405180910390fd5b505050900390565b6001600160a01b038216612a805760405162461bcd60e51b815260040180806020018281038252603481526020018061390c6034913960400191505060405180910390fd5b612abd816040518060600160405280602e81526020016139b9602e91396001600160a01b03861660009081526004602052604090205491906129a4565b6001600160a01b038085166000908152600460205260408082209390935590841681522054612aec9082612706565b6001600160a01b0380841660008181526004602090815260409182902094909455805185815290519193928716927fddf252ad1be2c89b69c2b068fc378daa952ba7f163c4a11628f55a4df523b3ef92918290030190a3505050565b60008111612b875760405162461bcd60e51b81526004018080602001828103825260288152602001806137e06028913960400191505060405180910390fd5b6000612b92826133d0565b601254601554604080517f441a3e70000000000000000000000000000000000000000000000000000000008152600481019290925260248201849052519293506001600160a01b039091169163441a3e709160448082019260009290919082900301818387803b158015612c0557600080fd5b505af1158015612c19573d6000803e3d6000fd5b5050601354604080517f67dfd4c90000000000000000000000000000000000000000000000000000000081526004810186905290516001600160a01b0390921693506367dfd4c9925060248082019260009290919082900301818387803b158015612c8357600080fd5b505af1158015612c97573d6000803e3d6000fd5b505050505050565b612cdc8160405180606001604052806027815260200161396f602791396001600160a01b03851660009081526004602052604090205491906129a4565b60046000846001600160a01b03166001600160a01b0316815260200190815260200160002081905550612d2c816040518060600160405280602781526020016138556027913960025491906129a4565b6002556040805182815290516000916001600160a01b038516917fddf252ad1be2c89b69c2b068fc378daa952ba7f163c4a11628f55a4df523b3ef9181900360200190a35050565b600e5460ff161515600114612dd0576040805162461bcd60e51b815260206004820152601a60248201527f436f6d706f756e64696e674a6f6556323a3a5f6465706f736974000000000000604482015290519081900360640190fd5b600d5415612df9576000612de2611d80565b9050600d54811115612df757612df78161311c565b505b600954604080517f23b872dd0000000000000000000000000000000000000000000000000000000081523360048201523060248201526044810184905290516001600160a01b03909216916323b872dd916064808201926020929091908290030181600087803b158015612e6c57600080fd5b505af1158015612e80573d6000803e3d6000fd5b505050506040513d6020811015612e9657600080fd5b5051612ea157600080fd5b612eb382612eae836122fc565b6134ed565b612ebc81613578565b6040805182815290516001600160a01b038416917fe1fffcc4923d04b559f4d29a8bfc6cda04eb5b0d3c460751c2402c5c5cc9109c919081900360200190a25050565b3390565b600061276083836040518060400160405280601f81526020017f536166654d6174683a207375627472616374696f6e20756e646572666c6f77008152506129a4565b600082612f5457506000610a2a565b82820282848281612f6157fe5b04146127605760405162461bcd60e51b81526004018080602001828103825260218152602001806138a16021913960400191505060405180910390fd5b600061276083836040518060400160405280601a81526020017f536166654d6174683a206469766973696f6e206279207a65726f000000000000815250613597565b6000612fea61240b565b8560405160200180807f190100000000000000000000000000000000000000000000000000000000000081525060020183815260200182815260200192505050604051602081830303815290604052805190602001209050600060018286868660405160008152602001604052604051808581526020018460ff1681526020018381526020018281526020019450505050506020604051602081039080840390855afa15801561309e573d6000803e3d6000fd5b5050604051601f1901519150506001600160a01b038116158015906130d45750866001600160a01b0316816001600160a01b0316145b61310f5760405162461bcd60e51b81526004018080602001828103825260248152602001806137bc6024913960400191505060405180910390fd5b50505050505050565b4690565b60125460155460408051631c57762b60e31b8152600481019290925260006024830181905290516001600160a01b039093169263e2bbb15892604480820193929182900301818387803b15801561317257600080fd5b505af1158015613186573d6000803e3d6000fd5b5050505060006131a7612710611d6460115485612f4590919063ffffffff16565b9050801561328557600a54600b546040805163a9059cbb60e01b81526001600160a01b039283166004820152602481018590529051919092169163a9059cbb9160448083019260209291908290030181600087803b15801561320857600080fd5b505af115801561321c573d6000803e3d6000fd5b505050506040513d602081101561323257600080fd5b5051613285576040805162461bcd60e51b815260206004820181905260248201527f436f6d706f756e64696e674a6f6556323a3a5f7265696e766573742c20646576604482015290519081900360640190fd5b60006132a2612710611d64600f5486612f4590919063ffffffff16565b9050801561336557600a546040805163a9059cbb60e01b81523360048201526024810184905290516001600160a01b039092169163a9059cbb916044808201926020929091908290030181600087803b1580156132fe57600080fd5b505af1158015613312573d6000803e3d6000fd5b505050506040513d602081101561332857600080fd5b50516133655760405162461bcd60e51b81526004018080602001828103825260238152602001806139966023913960400191505060405180910390fd5b600061337b826133758686612f03565b90612f03565b905061338681613578565b7fc7606d21ac05cd309191543e409f0845c016120563783d70e4f41419dc0ef2346133af610a30565b6002546040805192835260208301919091528051918290030190a150505050565b600954601354604080516370a0823160e01b81526001600160a01b0392831660048201529051600093849316916370a08231916024808301926020929190829003018186803b15801561342257600080fd5b505afa158015613436573d6000803e3d6000fd5b505050506040513d602081101561344c57600080fd5b5051601454604080516318160ddd60e01b815290519293506000926001600160a01b03909216916318160ddd91600480820192602092909190829003018186803b15801561349957600080fd5b505afa1580156134ad573d6000803e3d6000fd5b505050506040513d60208110156134c357600080fd5b505190506134d18282612f45565b6134df578392505050611178565b61299c82611d648684612f45565b6002546134fa9082612706565b6002556001600160a01b0382166000908152600460205260409020546135209082612706565b6001600160a01b03831660008181526004602090815260408083209490945583518581529351929391927fddf252ad1be2c89b69c2b068fc378daa952ba7f163c4a11628f55a4df523b3ef9281900390910190a35050565b6000613583826133d0565b905061358e826135fc565b610d5c816136b5565b600081836135e65760405162461bcd60e51b81526020600482018181528351602484015283519092839260449091019190850190808383600083156129f85781810151838201526020016129e0565b5060008385816135f257fe5b0495945050505050565b6000811161363b5760405162461bcd60e51b81526004018080602001828103825260238152602001806138086023913960400191505060405180910390fd5b601354604080517fa59f3e0c0000000000000000000000000000000000000000000000000000000081526004810184905290516001600160a01b039092169163a59f3e0c9160248082019260009290919082900301818387803b1580156136a157600080fd5b505af1158015610e56573d6000803e3d6000fd5b6000811161370a576040805162461bcd60e51b815260206004820152601c60248201527f436f6d706f756e64696e674a6f6556323a3a5f7374616b65584a6f6500000000604482015290519081900360640190fd5b60125460155460408051631c57762b60e31b8152600481019290925260248201849052516001600160a01b039092169163e2bbb1589160448082019260009290919082900301818387803b1580156136a157600080fdfe4f776e61626c653a206e6577206f776e657220697320746865207a65726f20616464726573735065726d697373696f6e65643a3a72656d6f76654465706f7369746f722c206e6f20616c6c6f776564206465706f7369746f7273417263683a3a76616c69646174655369673a20696e76616c6964207369676e6174757265436f6d706f756e64696e674a6f6556323a3a5f77697468647261774465706f736974546f6b656e73436f6d706f756e64696e674a6f6556323a3a5f636f6e766572744a6f65546f584a6f655065726d697373696f6e65643a3a72656d6f76654465706f7369746f722c206e6f7420616c6c6f7765645f6275726e3a206275726e20616d6f756e74206578636565647320746f74616c20737570706c79436f6d706f756e64696e674a6f6556323a3a7265736375654465706c6f79656446756e6473536166654d6174683a206d756c7469706c69636174696f6e206f766572666c6f774f776e61626c653a2063616c6c6572206973206e6f7420746865206f776e6572436f6d706f756e64696e674a6f6556323a3a7769746864726177207472616e73666572206661696c65645f7472616e73666572546f6b656e733a2063616e6e6f74207472616e7366657220746f20746865207a65726f20616464726573737472616e7366657246726f6d3a207472616e7366657220616d6f756e74206578636565647320616c6c6f77616e63655f6275726e3a206275726e20616d6f756e7420657863656564732066726f6d2062616c616e6365436f6d706f756e64696e674a6f6556323a3a5f7265696e766573742c207265776172645f7472616e73666572546f6b656e733a207472616e7366657220657863656564732066726f6d2062616c616e6365a2646970667358221220c3586dded3c2112d6020ff0e5682864a8eb8af43b6903368e6190b561b5e40f364736f6c634300070300334f776e61626c653a206e6577206f776e657220697320746865207a65726f20616464726573734f776e61626c653a2063616c6c6572206973206e6f7420746865206f776e65728be0079c531659141344cd1fd0a4f28419497f9722a3daafe3b4186f6b6457e0",
  "devdoc": {
    "kind": "dev",
    "methods": {
      "allowDepositor(address)": {
        "params": {
          "depositor": "address"
        }
      },
      "allowance(address,address)": {
        "params": {
          "account": "The address of the account holding the funds",
          "spender": "The address of the account spending the funds"
        },
        "returns": {
          "_0": "The number of tokens approved"
        }
      },
      "approve(address,uint256)": {
        "details": "This will overwrite the approval amount for `spender` and is subject to issues noted [here](https://eips.ethereum.org/EIPS/eip-20#approve) It is recommended to use increaseAllowance and decreaseAllowance instead",
        "params": {
          "amount": "The number of tokens that are approved (2^256-1 means infinite)",
          "spender": "The address of the account which may transfer tokens"
        },
        "returns": {
          "_0": "Whether or not the approval succeeded"
        }
      },
      "balanceOf(address)": {
        "params": {
          "account": "The address of the account to get the balance of"
        },
        "returns": {
          "_0": "The number of tokens held"
        }
      },
      "checkReward()": {
        "returns": {
          "_0": "reward tokens"
        }
      },
      "deposit(uint256)": {
        "params": {
          "amount": "Amount of tokens to deposit"
        }
      },
      "depositFor(address,uint256)": {
        "details": "Must mint receipt tokens to `account`",
        "params": {
          "account": "address to receive receipt tokens",
          "amount": "deposit tokens"
        }
      },
      "depositWithPermit(uint256,uint256,uint8,bytes32,bytes32)": {
        "params": {
          "amount": "Amount of tokens to deposit",
          "deadline": "The time at which to expire the signature",
          "r": "Half of the ECDSA signature pair",
          "s": "Half of the ECDSA signature pair",
          "v": "The recovery byte of the signature"
        }
      },
      "estimateDeployedBalance()": {
        "returns": {
          "_0": "deposit tokens"
        }
      },
      "estimateReinvestReward()": {
        "returns": {
          "_0": "reward tokens"
        }
      },
      "getDepositTokensForShares(uint256)": {
        "params": {
          "amount": "receipt tokens"
        },
        "returns": {
          "_0": "deposit tokens"
        }
      },
      "getDomainSeparator()": {
        "returns": {
          "_0": "Separator"
        }
      },
      "getSharesForDepositTokens(uint256)": {
        "details": "If contract is empty, use 1:1 ratioCould return zero shares for very low amounts of deposit tokens",
        "params": {
          "amount": "deposit tokens"
        },
        "returns": {
          "_0": "receipt tokens"
        }
      },
      "owner()": {
        "details": "Returns the address of the current owner."
      },
      "permit(address,address,uint256,uint256,uint8,bytes32,bytes32)": {
        "params": {
          "deadline": "The time at which to expire the signature",
          "owner": "The address to approve from",
          "r": "Half of the ECDSA signature pair",
          "s": "Half of the ECDSA signature pair",
          "spender": "The address to be approved",
          "v": "The recovery byte of the signature",
          "value": "The number of tokens that are approved (2^256-1 means infinite)"
        }
      },
      "recoverAVAX(uint256)": {
        "params": {
          "amount": "amount"
        }
      },
      "recoverERC20(address,uint256)": {
        "params": {
          "tokenAddress": "token address",
          "tokenAmount": "amount to recover"
        }
      },
      "removeDepositor(address)": {
        "params": {
          "depositor": "address"
        }
      },
      "renounceOwnership()": {
        "details": "Leaves the contract without owner. It will not be possible to call `onlyOwner` functions anymore. Can only be called by the current owner. NOTE: Renouncing ownership will leave the contract without an owner, thereby removing any functionality that is only available to the owner."
      },
      "rescueDeployedFunds(uint256,bool)": {
        "params": {
          "disableDeposits": "bool",
          "minReturnAmountAccepted": "min deposit tokens to receive"
        }
      },
      "revokeAllowance(address,address)": {
        "params": {
          "spender": "address",
          "token": "address"
        }
      },
      "setAllowances()": {
        "details": "Restricted to avoid griefing attacks"
      },
      "totalDeposits()": {
        "returns": {
          "_0": "total deposits available on the contract"
        }
      },
      "transfer(address,uint256)": {
        "params": {
          "amount": "The number of tokens to transfer",
          "dst": "The address of the destination account"
        },
        "returns": {
          "_0": "Whether or not the transfer succeeded"
        }
      },
      "transferFrom(address,address,uint256)": {
        "params": {
          "amount": "The number of tokens to transfer",
          "dst": "The address of the destination account",
          "src": "The address of the source account"
        },
        "returns": {
          "_0": "Whether or not the transfer succeeded"
        }
      },
      "transferOwnership(address)": {
        "details": "Transfers ownership of the contract to a new account (`newOwner`). Can only be called by the current owner."
      },
      "updateAdminFee(uint256)": {
        "params": {
          "newValue": "fee in BIPS"
        }
      },
      "updateDepositsEnabled(bool)": {
        "params": {
          "newValue": "bool"
        }
      },
      "updateDevAddr(address)": {
        "params": {
          "newValue": "address"
        }
      },
      "updateDevFee(uint256)": {
        "params": {
          "newValue": "fee in BIPS"
        }
      },
      "updateMaxTokensToDepositWithoutReinvest(uint256)": {
        "params": {
          "newValue": "threshold"
        }
      },
      "updateMinTokensToReinvest(uint256)": {
        "params": {
          "newValue": "threshold"
        }
      },
      "updateReinvestReward(uint256)": {
        "params": {
          "newValue": "fee in BIPS"
        }
      },
      "withdraw(uint256)": {
        "params": {
          "amount": "receipt tokens"
        }
      }
    },
    "version": 1
  },
  "userdoc": {
    "kind": "user",
    "methods": {
      "allowDepositor(address)": {
        "notice": "Add an allowed depositor"
      },
      "allowance(address,address)": {
        "notice": "Get the number of tokens `spender` is approved to spend on behalf of `account`"
      },
      "approve(address,uint256)": {
        "notice": "Approve `spender` to transfer up to `amount` from `src`"
      },
      "balanceOf(address)": {
        "notice": "Get the number of tokens held by the `account`"
      },
      "checkReward()": {
        "notice": "Reward tokens avialable to strategy, including balance"
      },
      "deposit(uint256)": {
        "notice": "Deposit tokens to receive receipt tokens"
      },
      "depositFor(address,uint256)": {
        "notice": "Deposit on behalf of another account"
      },
      "depositWithPermit(uint256,uint256,uint8,bytes32,bytes32)": {
        "notice": "Deposit using Permit"
      },
      "estimateDeployedBalance()": {
        "notice": "Estimate recoverable balance"
      },
      "estimateReinvestReward()": {
        "notice": "Estimate reinvest reward"
      },
      "getDepositTokensForShares(uint256)": {
        "notice": "Calculate deposit tokens for a given amount of receipt tokens"
      },
      "getDomainSeparator()": {
        "notice": "EIP-712 Domain separator"
      },
      "getSharesForDepositTokens(uint256)": {
        "notice": "Calculate receipt tokens for a given amount of deposit tokens"
      },
      "permit(address,address,uint256,uint256,uint8,bytes32,bytes32)": {
        "notice": "Triggers an approval from owner to spender"
      },
      "recoverAVAX(uint256)": {
        "notice": "Recover AVAX from contract"
      },
      "recoverERC20(address,uint256)": {
        "notice": "Recover ERC20 from contract"
      },
      "reinvest()": {
        "notice": "Reinvest reward tokens into deposit tokens"
      },
      "removeDepositor(address)": {
        "notice": "Remove an allowed depositor"
      },
      "rescueDeployedFunds(uint256,bool)": {
        "notice": "Rescue all available deployed deposit tokens back to Strategy"
      },
      "revokeAllowance(address,address)": {
        "notice": "Revoke token allowance"
      },
      "setAllowances()": {
        "notice": "Approve tokens for use in Strategy"
      },
      "totalDeposits()": {
        "notice": "This function returns a snapshot of last available quotes"
      },
      "transfer(address,uint256)": {
        "notice": "Transfer `amount` tokens from `msg.sender` to `dst`"
      },
      "transferFrom(address,address,uint256)": {
        "notice": "Transfer `amount` tokens from `src` to `dst`"
      },
      "updateAdminFee(uint256)": {
        "notice": "Update admin fee"
      },
      "updateDepositsEnabled(bool)": {
        "notice": "Enable/disable deposits"
      },
      "updateDevAddr(address)": {
        "notice": "Update devAddr"
      },
      "updateDevFee(uint256)": {
        "notice": "Update developer fee"
      },
      "updateMaxTokensToDepositWithoutReinvest(uint256)": {
        "notice": "Update reinvest max threshold before a deposit"
      },
      "updateMinTokensToReinvest(uint256)": {
        "notice": "Update reinvest min threshold"
      },
      "updateReinvestReward(uint256)": {
        "notice": "Update reinvest reward"
      },
      "withdraw(uint256)": {
        "notice": "Redeem receipt tokens for deposit tokens"
      }
    },
    "notice": "Single asset strategy for Joe",
    "version": 1
  },
  "storageLayout": {
    "storage": [
      {
        "astId": 15649,
        "contract": "contracts/strategies/CompoundingJoeV2.sol:CompoundingJoeV2",
        "label": "name",
        "offset": 0,
        "slot": "0",
        "type": "t_string_storage"
      },
      {
        "astId": 15652,
        "contract": "contracts/strategies/CompoundingJoeV2.sol:CompoundingJoeV2",
        "label": "symbol",
        "offset": 0,
        "slot": "1",
        "type": "t_string_storage"
      },
      {
        "astId": 15657,
        "contract": "contracts/strategies/CompoundingJoeV2.sol:CompoundingJoeV2",
        "label": "totalSupply",
        "offset": 0,
        "slot": "2",
        "type": "t_uint256"
      },
      {
        "astId": 15663,
        "contract": "contracts/strategies/CompoundingJoeV2.sol:CompoundingJoeV2",
        "label": "allowances",
        "offset": 0,
        "slot": "3",
        "type": "t_mapping(t_address,t_mapping(t_address,t_uint256))"
      },
      {
        "astId": 15667,
        "contract": "contracts/strategies/CompoundingJoeV2.sol:CompoundingJoeV2",
        "label": "balances",
        "offset": 0,
        "slot": "4",
        "type": "t_mapping(t_address,t_uint256)"
      },
      {
        "astId": 15683,
        "contract": "contracts/strategies/CompoundingJoeV2.sol:CompoundingJoeV2",
        "label": "nonces",
        "offset": 0,
        "slot": "5",
        "type": "t_mapping(t_address,t_uint256)"
      },
      {
        "astId": 24730,
        "contract": "contracts/strategies/CompoundingJoeV2.sol:CompoundingJoeV2",
        "label": "_owner",
        "offset": 0,
        "slot": "6",
        "type": "t_address"
      },
      {
        "astId": 24843,
        "contract": "contracts/strategies/CompoundingJoeV2.sol:CompoundingJoeV2",
        "label": "numberOfAllowedDepositors",
        "offset": 0,
        "slot": "7",
        "type": "t_uint256"
      },
      {
        "astId": 24847,
        "contract": "contracts/strategies/CompoundingJoeV2.sol:CompoundingJoeV2",
        "label": "allowedDepositors",
        "offset": 0,
        "slot": "8",
        "type": "t_mapping(t_address,t_bool)"
      },
      {
        "astId": 16822,
        "contract": "contracts/strategies/CompoundingJoeV2.sol:CompoundingJoeV2",
        "label": "depositToken",
        "offset": 0,
        "slot": "9",
        "type": "t_contract(IERC20)19394"
      },
      {
        "astId": 16824,
        "contract": "contracts/strategies/CompoundingJoeV2.sol:CompoundingJoeV2",
        "label": "rewardToken",
        "offset": 0,
        "slot": "10",
        "type": "t_contract(IERC20)19394"
      },
      {
        "astId": 16826,
        "contract": "contracts/strategies/CompoundingJoeV2.sol:CompoundingJoeV2",
        "label": "devAddr",
        "offset": 0,
        "slot": "11",
        "type": "t_address"
      },
      {
        "astId": 16828,
        "contract": "contracts/strategies/CompoundingJoeV2.sol:CompoundingJoeV2",
        "label": "MIN_TOKENS_TO_REINVEST",
        "offset": 0,
        "slot": "12",
        "type": "t_uint256"
      },
      {
        "astId": 16830,
        "contract": "contracts/strategies/CompoundingJoeV2.sol:CompoundingJoeV2",
        "label": "MAX_TOKENS_TO_DEPOSIT_WITHOUT_REINVEST",
        "offset": 0,
        "slot": "13",
        "type": "t_uint256"
      },
      {
        "astId": 16832,
        "contract": "contracts/strategies/CompoundingJoeV2.sol:CompoundingJoeV2",
        "label": "DEPOSITS_ENABLED",
        "offset": 0,
        "slot": "14",
        "type": "t_bool"
      },
      {
        "astId": 16834,
        "contract": "contracts/strategies/CompoundingJoeV2.sol:CompoundingJoeV2",
        "label": "REINVEST_REWARD_BIPS",
        "offset": 0,
        "slot": "15",
        "type": "t_uint256"
      },
      {
        "astId": 16836,
        "contract": "contracts/strategies/CompoundingJoeV2.sol:CompoundingJoeV2",
        "label": "ADMIN_FEE_BIPS",
        "offset": 0,
        "slot": "16",
        "type": "t_uint256"
      },
      {
        "astId": 16838,
        "contract": "contracts/strategies/CompoundingJoeV2.sol:CompoundingJoeV2",
        "label": "DEV_FEE_BIPS",
        "offset": 0,
        "slot": "17",
        "type": "t_uint256"
      },
      {
        "astId": 43414,
        "contract": "contracts/strategies/CompoundingJoeV2.sol:CompoundingJoeV2",
        "label": "stakingContract",
        "offset": 0,
        "slot": "18",
        "type": "t_contract(IJoeChef)20275"
      },
      {
        "astId": 43416,
        "contract": "contracts/strategies/CompoundingJoeV2.sol:CompoundingJoeV2",
        "label": "conversionContract",
        "offset": 0,
        "slot": "19",
        "type": "t_contract(IJoeBar)20212"
      },
      {
        "astId": 43418,
        "contract": "contracts/strategies/CompoundingJoeV2.sol:CompoundingJoeV2",
        "label": "xJoe",
        "offset": 0,
        "slot": "20",
        "type": "t_contract(IERC20)19394"
      },
      {
        "astId": 43420,
        "contract": "contracts/strategies/CompoundingJoeV2.sol:CompoundingJoeV2",
        "label": "PID",
        "offset": 0,
        "slot": "21",
        "type": "t_uint256"
      }
    ],
    "types": {
      "t_address": {
        "encoding": "inplace",
        "label": "address",
        "numberOfBytes": "20"
      },
      "t_bool": {
        "encoding": "inplace",
        "label": "bool",
        "numberOfBytes": "1"
      },
      "t_contract(IERC20)19394": {
        "encoding": "inplace",
        "label": "contract IERC20",
        "numberOfBytes": "20"
      },
      "t_contract(IJoeBar)20212": {
        "encoding": "inplace",
        "label": "contract IJoeBar",
        "numberOfBytes": "20"
      },
      "t_contract(IJoeChef)20275": {
        "encoding": "inplace",
        "label": "contract IJoeChef",
        "numberOfBytes": "20"
      },
      "t_mapping(t_address,t_bool)": {
        "encoding": "mapping",
        "key": "t_address",
        "label": "mapping(address => bool)",
        "numberOfBytes": "32",
        "value": "t_bool"
      },
      "t_mapping(t_address,t_mapping(t_address,t_uint256))": {
        "encoding": "mapping",
        "key": "t_address",
        "label": "mapping(address => mapping(address => uint256))",
        "numberOfBytes": "32",
        "value": "t_mapping(t_address,t_uint256)"
      },
      "t_mapping(t_address,t_uint256)": {
        "encoding": "mapping",
        "key": "t_address",
        "label": "mapping(address => uint256)",
        "numberOfBytes": "32",
        "value": "t_uint256"
      },
      "t_string_storage": {
        "encoding": "bytes",
        "label": "string",
        "numberOfBytes": "32"
      },
      "t_uint256": {
        "encoding": "inplace",
        "label": "uint256",
        "numberOfBytes": "32"
      }
    }
  }
}