{
  "address": "0x59c350ebcf89a7cF0e4dd383a32E2773533C595e",
  "abi": [
    {
      "inputs": [
        {
          "internalType": "string",
          "name": "_name",
          "type": "string"
        },
        {
          "internalType": "address",
          "name": "_depositToken",
          "type": "address"
        },
        {
          "internalType": "address",
          "name": "_poolRewardToken",
          "type": "address"
        },
        {
          "internalType": "address",
          "name": "_swapPairPoolReward",
          "type": "address"
        },
        {
          "internalType": "address",
          "name": "_stakingContract",
          "type": "address"
        },
        {
          "internalType": "uint256",
          "name": "_pid",
          "type": "uint256"
        },
        {
          "internalType": "address",
          "name": "_timelock",
          "type": "address"
        },
        {
          "components": [
            {
              "internalType": "uint256",
              "name": "minTokensToReinvest",
              "type": "uint256"
            },
            {
              "internalType": "uint256",
              "name": "devFeeBips",
              "type": "uint256"
            },
            {
              "internalType": "uint256",
              "name": "reinvestRewardBips",
              "type": "uint256"
            }
          ],
          "internalType": "struct YakStrategyV2.StrategySettings",
          "name": "_strategySettings",
          "type": "tuple"
        }
      ],
      "stateMutability": "nonpayable",
      "type": "constructor"
    },
    {
      "anonymous": false,
      "inputs": [
        {
          "indexed": true,
          "internalType": "address",
          "name": "account",
          "type": "address"
        }
      ],
      "name": "AllowDepositor",
      "type": "event"
    },
    {
      "anonymous": false,
      "inputs": [
        {
          "indexed": true,
          "internalType": "address",
          "name": "owner",
          "type": "address"
        },
        {
          "indexed": true,
          "internalType": "address",
          "name": "spender",
          "type": "address"
        },
        {
          "indexed": false,
          "internalType": "uint256",
          "name": "value",
          "type": "uint256"
        }
      ],
      "name": "Approval",
      "type": "event"
    },
    {
      "anonymous": false,
      "inputs": [
        {
          "indexed": true,
          "internalType": "address",
          "name": "account",
          "type": "address"
        },
        {
          "indexed": false,
          "internalType": "uint256",
          "name": "amount",
          "type": "uint256"
        }
      ],
      "name": "Deposit",
      "type": "event"
    },
    {
      "anonymous": false,
      "inputs": [
        {
          "indexed": false,
          "internalType": "bool",
          "name": "newValue",
          "type": "bool"
        }
      ],
      "name": "DepositsEnabled",
      "type": "event"
    },
    {
      "anonymous": false,
      "inputs": [
        {
          "indexed": true,
          "internalType": "address",
          "name": "previousOwner",
          "type": "address"
        },
        {
          "indexed": true,
          "internalType": "address",
          "name": "newOwner",
          "type": "address"
        }
      ],
      "name": "OwnershipTransferred",
      "type": "event"
    },
    {
      "anonymous": false,
      "inputs": [
        {
          "indexed": false,
          "internalType": "address",
          "name": "token",
          "type": "address"
        },
        {
          "indexed": false,
          "internalType": "uint256",
          "name": "amount",
          "type": "uint256"
        }
      ],
      "name": "Recovered",
      "type": "event"
    },
    {
      "anonymous": false,
      "inputs": [
        {
          "indexed": false,
          "internalType": "uint256",
          "name": "newTotalDeposits",
          "type": "uint256"
        },
        {
          "indexed": false,
          "internalType": "uint256",
          "name": "newTotalSupply",
          "type": "uint256"
        }
      ],
      "name": "Reinvest",
      "type": "event"
    },
    {
      "anonymous": false,
      "inputs": [
        {
          "indexed": true,
          "internalType": "address",
          "name": "account",
          "type": "address"
        }
      ],
      "name": "RemoveDepositor",
      "type": "event"
    },
    {
      "anonymous": false,
      "inputs": [
        {
          "indexed": true,
          "internalType": "address",
          "name": "from",
          "type": "address"
        },
        {
          "indexed": true,
          "internalType": "address",
          "name": "to",
          "type": "address"
        },
        {
          "indexed": false,
          "internalType": "uint256",
          "name": "value",
          "type": "uint256"
        }
      ],
      "name": "Transfer",
      "type": "event"
    },
    {
      "anonymous": false,
      "inputs": [
        {
          "indexed": false,
          "internalType": "uint256",
          "name": "oldValue",
          "type": "uint256"
        },
        {
          "indexed": false,
          "internalType": "uint256",
          "name": "newValue",
          "type": "uint256"
        }
      ],
      "name": "UpdateAdminFee",
      "type": "event"
    },
    {
      "anonymous": false,
      "inputs": [
        {
          "indexed": false,
          "internalType": "address",
          "name": "oldValue",
          "type": "address"
        },
        {
          "indexed": false,
          "internalType": "address",
          "name": "newValue",
          "type": "address"
        }
      ],
      "name": "UpdateDevAddr",
      "type": "event"
    },
    {
      "anonymous": false,
      "inputs": [
        {
          "indexed": false,
          "internalType": "uint256",
          "name": "oldValue",
          "type": "uint256"
        },
        {
          "indexed": false,
          "internalType": "uint256",
          "name": "newValue",
          "type": "uint256"
        }
      ],
      "name": "UpdateDevFee",
      "type": "event"
    },
    {
      "anonymous": false,
      "inputs": [
        {
          "indexed": false,
          "internalType": "uint256",
          "name": "oldValue",
          "type": "uint256"
        },
        {
          "indexed": false,
          "internalType": "uint256",
          "name": "newValue",
          "type": "uint256"
        }
      ],
      "name": "UpdateMaxTokensToDepositWithoutReinvest",
      "type": "event"
    },
    {
      "anonymous": false,
      "inputs": [
        {
          "indexed": false,
          "internalType": "uint256",
          "name": "oldValue",
          "type": "uint256"
        },
        {
          "indexed": false,
          "internalType": "uint256",
          "name": "newValue",
          "type": "uint256"
        }
      ],
      "name": "UpdateMinTokensToReinvest",
      "type": "event"
    },
    {
      "anonymous": false,
      "inputs": [
        {
          "indexed": false,
          "internalType": "uint256",
          "name": "oldValue",
          "type": "uint256"
        },
        {
          "indexed": false,
          "internalType": "uint256",
          "name": "newValue",
          "type": "uint256"
        }
      ],
      "name": "UpdateReinvestReward",
      "type": "event"
    },
    {
      "anonymous": false,
      "inputs": [
        {
          "indexed": true,
          "internalType": "address",
          "name": "account",
          "type": "address"
        },
        {
          "indexed": false,
          "internalType": "uint256",
          "name": "amount",
          "type": "uint256"
        }
      ],
      "name": "Withdraw",
      "type": "event"
    },
    {
      "inputs": [],
      "name": "ADMIN_FEE_BIPS",
      "outputs": [
        {
          "internalType": "uint256",
          "name": "",
          "type": "uint256"
        }
      ],
      "stateMutability": "view",
      "type": "function"
    },
    {
      "inputs": [],
      "name": "DEPOSITS_ENABLED",
      "outputs": [
        {
          "internalType": "bool",
          "name": "",
          "type": "bool"
        }
      ],
      "stateMutability": "view",
      "type": "function"
    },
    {
      "inputs": [],
      "name": "DEV_FEE_BIPS",
      "outputs": [
        {
          "internalType": "uint256",
          "name": "",
          "type": "uint256"
        }
      ],
      "stateMutability": "view",
      "type": "function"
    },
    {
      "inputs": [],
      "name": "DOMAIN_TYPEHASH",
      "outputs": [
        {
          "internalType": "bytes32",
          "name": "",
          "type": "bytes32"
        }
      ],
      "stateMutability": "view",
      "type": "function"
    },
    {
      "inputs": [],
      "name": "MAX_TOKENS_TO_DEPOSIT_WITHOUT_REINVEST",
      "outputs": [
        {
          "internalType": "uint256",
          "name": "",
          "type": "uint256"
        }
      ],
      "stateMutability": "view",
      "type": "function"
    },
    {
      "inputs": [],
      "name": "MIN_TOKENS_TO_REINVEST",
      "outputs": [
        {
          "internalType": "uint256",
          "name": "",
          "type": "uint256"
        }
      ],
      "stateMutability": "view",
      "type": "function"
    },
    {
      "inputs": [],
      "name": "PERMIT_TYPEHASH",
      "outputs": [
        {
          "internalType": "bytes32",
          "name": "",
          "type": "bytes32"
        }
      ],
      "stateMutability": "view",
      "type": "function"
    },
    {
      "inputs": [],
      "name": "PID",
      "outputs": [
        {
          "internalType": "uint256",
          "name": "",
          "type": "uint256"
        }
      ],
      "stateMutability": "view",
      "type": "function"
    },
    {
      "inputs": [],
      "name": "REINVEST_REWARD_BIPS",
      "outputs": [
        {
          "internalType": "uint256",
          "name": "",
          "type": "uint256"
        }
      ],
      "stateMutability": "view",
      "type": "function"
    },
    {
      "inputs": [],
      "name": "VERSION_HASH",
      "outputs": [
        {
          "internalType": "bytes32",
          "name": "",
          "type": "bytes32"
        }
      ],
      "stateMutability": "view",
      "type": "function"
    },
    {
      "inputs": [
        {
          "internalType": "address",
          "name": "depositor",
          "type": "address"
        }
      ],
      "name": "allowDepositor",
      "outputs": [],
      "stateMutability": "nonpayable",
      "type": "function"
    },
    {
      "inputs": [
        {
          "internalType": "address",
          "name": "account",
          "type": "address"
        },
        {
          "internalType": "address",
          "name": "spender",
          "type": "address"
        }
      ],
      "name": "allowance",
      "outputs": [
        {
          "internalType": "uint256",
          "name": "",
          "type": "uint256"
        }
      ],
      "stateMutability": "view",
      "type": "function"
    },
    {
      "inputs": [
        {
          "internalType": "address",
          "name": "",
          "type": "address"
        }
      ],
      "name": "allowedDepositors",
      "outputs": [
        {
          "internalType": "bool",
          "name": "",
          "type": "bool"
        }
      ],
      "stateMutability": "view",
      "type": "function"
    },
    {
      "inputs": [
        {
          "internalType": "address",
          "name": "spender",
          "type": "address"
        },
        {
          "internalType": "uint256",
          "name": "amount",
          "type": "uint256"
        }
      ],
      "name": "approve",
      "outputs": [
        {
          "internalType": "bool",
          "name": "",
          "type": "bool"
        }
      ],
      "stateMutability": "nonpayable",
      "type": "function"
    },
    {
      "inputs": [
        {
          "internalType": "address",
          "name": "account",
          "type": "address"
        }
      ],
      "name": "balanceOf",
      "outputs": [
        {
          "internalType": "uint256",
          "name": "",
          "type": "uint256"
        }
      ],
      "stateMutability": "view",
      "type": "function"
    },
    {
      "inputs": [],
      "name": "checkReward",
      "outputs": [
        {
          "internalType": "uint256",
          "name": "",
          "type": "uint256"
        }
      ],
      "stateMutability": "view",
      "type": "function"
    },
    {
      "inputs": [],
      "name": "decimals",
      "outputs": [
        {
          "internalType": "uint8",
          "name": "",
          "type": "uint8"
        }
      ],
      "stateMutability": "view",
      "type": "function"
    },
    {
      "inputs": [
        {
          "internalType": "uint256",
          "name": "amount",
          "type": "uint256"
        }
      ],
      "name": "deposit",
      "outputs": [],
      "stateMutability": "nonpayable",
      "type": "function"
    },
    {
      "inputs": [
        {
          "internalType": "address",
          "name": "account",
          "type": "address"
        },
        {
          "internalType": "uint256",
          "name": "amount",
          "type": "uint256"
        }
      ],
      "name": "depositFor",
      "outputs": [],
      "stateMutability": "nonpayable",
      "type": "function"
    },
    {
      "inputs": [],
      "name": "depositToken",
      "outputs": [
        {
          "internalType": "contract IERC20",
          "name": "",
          "type": "address"
        }
      ],
      "stateMutability": "view",
      "type": "function"
    },
    {
      "inputs": [
        {
          "internalType": "uint256",
          "name": "amount",
          "type": "uint256"
        },
        {
          "internalType": "uint256",
          "name": "deadline",
          "type": "uint256"
        },
        {
          "internalType": "uint8",
          "name": "v",
          "type": "uint8"
        },
        {
          "internalType": "bytes32",
          "name": "r",
          "type": "bytes32"
        },
        {
          "internalType": "bytes32",
          "name": "s",
          "type": "bytes32"
        }
      ],
      "name": "depositWithPermit",
      "outputs": [],
      "stateMutability": "nonpayable",
      "type": "function"
    },
    {
      "inputs": [],
      "name": "devAddr",
      "outputs": [
        {
          "internalType": "address",
          "name": "",
          "type": "address"
        }
      ],
      "stateMutability": "view",
      "type": "function"
    },
    {
      "inputs": [],
      "name": "estimateDeployedBalance",
      "outputs": [
        {
          "internalType": "uint256",
          "name": "",
          "type": "uint256"
        }
      ],
      "stateMutability": "view",
      "type": "function"
    },
    {
      "inputs": [],
      "name": "estimateReinvestReward",
      "outputs": [
        {
          "internalType": "uint256",
          "name": "",
          "type": "uint256"
        }
      ],
      "stateMutability": "view",
      "type": "function"
    },
    {
      "inputs": [],
      "name": "extraToken",
      "outputs": [
        {
          "internalType": "address",
          "name": "",
          "type": "address"
        }
      ],
      "stateMutability": "view",
      "type": "function"
    },
    {
      "inputs": [
        {
          "internalType": "uint256",
          "name": "amount",
          "type": "uint256"
        }
      ],
      "name": "getDepositTokensForShares",
      "outputs": [
        {
          "internalType": "uint256",
          "name": "",
          "type": "uint256"
        }
      ],
      "stateMutability": "view",
      "type": "function"
    },
    {
      "inputs": [],
      "name": "getDomainSeparator",
      "outputs": [
        {
          "internalType": "bytes32",
          "name": "",
          "type": "bytes32"
        }
      ],
      "stateMutability": "view",
      "type": "function"
    },
    {
      "inputs": [
        {
          "internalType": "uint256",
          "name": "amount",
          "type": "uint256"
        }
      ],
      "name": "getSharesForDepositTokens",
      "outputs": [
        {
          "internalType": "uint256",
          "name": "",
          "type": "uint256"
        }
      ],
      "stateMutability": "view",
      "type": "function"
    },
    {
      "inputs": [],
      "name": "kassandraPool",
      "outputs": [
        {
          "internalType": "contract IKassandraPool",
          "name": "",
          "type": "address"
        }
      ],
      "stateMutability": "view",
      "type": "function"
    },
    {
      "inputs": [],
      "name": "name",
      "outputs": [
        {
          "internalType": "string",
          "name": "",
          "type": "string"
        }
      ],
      "stateMutability": "view",
      "type": "function"
    },
    {
      "inputs": [
        {
          "internalType": "address",
          "name": "",
          "type": "address"
        }
      ],
      "name": "nonces",
      "outputs": [
        {
          "internalType": "uint256",
          "name": "",
          "type": "uint256"
        }
      ],
      "stateMutability": "view",
      "type": "function"
    },
    {
      "inputs": [],
      "name": "numberOfAllowedDepositors",
      "outputs": [
        {
          "internalType": "uint256",
          "name": "",
          "type": "uint256"
        }
      ],
      "stateMutability": "view",
      "type": "function"
    },
    {
      "inputs": [],
      "name": "owner",
      "outputs": [
        {
          "internalType": "address",
          "name": "",
          "type": "address"
        }
      ],
      "stateMutability": "view",
      "type": "function"
    },
    {
      "inputs": [
        {
          "internalType": "address",
          "name": "owner",
          "type": "address"
        },
        {
          "internalType": "address",
          "name": "spender",
          "type": "address"
        },
        {
          "internalType": "uint256",
          "name": "value",
          "type": "uint256"
        },
        {
          "internalType": "uint256",
          "name": "deadline",
          "type": "uint256"
        },
        {
          "internalType": "uint8",
          "name": "v",
          "type": "uint8"
        },
        {
          "internalType": "bytes32",
          "name": "r",
          "type": "bytes32"
        },
        {
          "internalType": "bytes32",
          "name": "s",
          "type": "bytes32"
        }
      ],
      "name": "permit",
      "outputs": [],
      "stateMutability": "nonpayable",
      "type": "function"
    },
    {
      "inputs": [
        {
          "internalType": "uint256",
          "name": "amount",
          "type": "uint256"
        }
      ],
      "name": "recoverAVAX",
      "outputs": [],
      "stateMutability": "nonpayable",
      "type": "function"
    },
    {
      "inputs": [
        {
          "internalType": "address",
          "name": "tokenAddress",
          "type": "address"
        },
        {
          "internalType": "uint256",
          "name": "tokenAmount",
          "type": "uint256"
        }
      ],
      "name": "recoverERC20",
      "outputs": [],
      "stateMutability": "nonpayable",
      "type": "function"
    },
    {
      "inputs": [],
      "name": "reinvest",
      "outputs": [],
      "stateMutability": "nonpayable",
      "type": "function"
    },
    {
      "inputs": [
        {
          "internalType": "address",
          "name": "depositor",
          "type": "address"
        }
      ],
      "name": "removeDepositor",
      "outputs": [],
      "stateMutability": "nonpayable",
      "type": "function"
    },
    {
      "inputs": [],
      "name": "renounceOwnership",
      "outputs": [],
      "stateMutability": "nonpayable",
      "type": "function"
    },
    {
      "inputs": [
        {
          "internalType": "uint256",
          "name": "minReturnAmountAccepted",
          "type": "uint256"
        },
        {
          "internalType": "bool",
          "name": "disableDeposits",
          "type": "bool"
        }
      ],
      "name": "rescueDeployedFunds",
      "outputs": [],
      "stateMutability": "nonpayable",
      "type": "function"
    },
    {
      "inputs": [
        {
          "internalType": "address",
          "name": "token",
          "type": "address"
        },
        {
          "internalType": "address",
          "name": "spender",
          "type": "address"
        }
      ],
      "name": "revokeAllowance",
      "outputs": [],
      "stateMutability": "nonpayable",
      "type": "function"
    },
    {
      "inputs": [],
      "name": "rewardToken",
      "outputs": [
        {
          "internalType": "contract IERC20",
          "name": "",
          "type": "address"
        }
      ],
      "stateMutability": "view",
      "type": "function"
    },
    {
      "inputs": [
        {
          "internalType": "address",
          "name": "_extraTokenSwapPair",
          "type": "address"
        }
      ],
      "name": "setExtraRewardSwapPair",
      "outputs": [],
      "stateMutability": "nonpayable",
      "type": "function"
    },
    {
      "inputs": [],
      "name": "stakingContract",
      "outputs": [
        {
          "internalType": "contract IKassandraStaking",
          "name": "",
          "type": "address"
        }
      ],
      "stateMutability": "view",
      "type": "function"
    },
    {
      "inputs": [],
      "name": "swapPairExtraReward",
      "outputs": [
        {
          "internalType": "address",
          "name": "",
          "type": "address"
        }
      ],
      "stateMutability": "view",
      "type": "function"
    },
    {
      "inputs": [],
      "name": "symbol",
      "outputs": [
        {
          "internalType": "string",
          "name": "",
          "type": "string"
        }
      ],
      "stateMutability": "view",
      "type": "function"
    },
    {
      "inputs": [],
      "name": "totalDeposits",
      "outputs": [
        {
          "internalType": "uint256",
          "name": "",
          "type": "uint256"
        }
      ],
      "stateMutability": "view",
      "type": "function"
    },
    {
      "inputs": [],
      "name": "totalSupply",
      "outputs": [
        {
          "internalType": "uint256",
          "name": "",
          "type": "uint256"
        }
      ],
      "stateMutability": "view",
      "type": "function"
    },
    {
      "inputs": [
        {
          "internalType": "address",
          "name": "dst",
          "type": "address"
        },
        {
          "internalType": "uint256",
          "name": "amount",
          "type": "uint256"
        }
      ],
      "name": "transfer",
      "outputs": [
        {
          "internalType": "bool",
          "name": "",
          "type": "bool"
        }
      ],
      "stateMutability": "nonpayable",
      "type": "function"
    },
    {
      "inputs": [
        {
          "internalType": "address",
          "name": "src",
          "type": "address"
        },
        {
          "internalType": "address",
          "name": "dst",
          "type": "address"
        },
        {
          "internalType": "uint256",
          "name": "amount",
          "type": "uint256"
        }
      ],
      "name": "transferFrom",
      "outputs": [
        {
          "internalType": "bool",
          "name": "",
          "type": "bool"
        }
      ],
      "stateMutability": "nonpayable",
      "type": "function"
    },
    {
      "inputs": [
        {
          "internalType": "address",
          "name": "newOwner",
          "type": "address"
        }
      ],
      "name": "transferOwnership",
      "outputs": [],
      "stateMutability": "nonpayable",
      "type": "function"
    },
    {
      "inputs": [
        {
          "internalType": "uint256",
          "name": "newValue",
          "type": "uint256"
        }
      ],
      "name": "updateAdminFee",
      "outputs": [],
      "stateMutability": "nonpayable",
      "type": "function"
    },
    {
      "inputs": [
        {
          "internalType": "bool",
          "name": "newValue",
          "type": "bool"
        }
      ],
      "name": "updateDepositsEnabled",
      "outputs": [],
      "stateMutability": "nonpayable",
      "type": "function"
    },
    {
      "inputs": [
        {
          "internalType": "address",
          "name": "newValue",
          "type": "address"
        }
      ],
      "name": "updateDevAddr",
      "outputs": [],
      "stateMutability": "nonpayable",
      "type": "function"
    },
    {
      "inputs": [
        {
          "internalType": "uint256",
          "name": "newValue",
          "type": "uint256"
        }
      ],
      "name": "updateDevFee",
      "outputs": [],
      "stateMutability": "nonpayable",
      "type": "function"
    },
    {
      "inputs": [
        {
          "internalType": "uint256",
          "name": "newValue",
          "type": "uint256"
        }
      ],
      "name": "updateMaxTokensToDepositWithoutReinvest",
      "outputs": [],
      "stateMutability": "nonpayable",
      "type": "function"
    },
    {
      "inputs": [
        {
          "internalType": "uint256",
          "name": "newValue",
          "type": "uint256"
        }
      ],
      "name": "updateMinTokensToReinvest",
      "outputs": [],
      "stateMutability": "nonpayable",
      "type": "function"
    },
    {
      "inputs": [
        {
          "internalType": "uint256",
          "name": "newValue",
          "type": "uint256"
        }
      ],
      "name": "updateReinvestReward",
      "outputs": [],
      "stateMutability": "nonpayable",
      "type": "function"
    },
    {
      "inputs": [
        {
          "internalType": "uint256",
          "name": "amount",
          "type": "uint256"
        }
      ],
      "name": "withdraw",
      "outputs": [],
      "stateMutability": "nonpayable",
      "type": "function"
    }
  ],
  "transactionHash": "0x37160753d76112c64dd3f9da90d6866fc47889c15345498009220a81c375c02d",
  "args": [
    "Yield Yak: Kassandra K3C",
    "0xA6CAB4b1019ee22309dcA5ba62C3372a791dcB2E",
    "0xf32398dae246c5f672b52a54e9b413dffcae1a44",
    "0x1938ce0e14dd71caab96f52df3f49b1d1daf8861",
    "0xfddc1956d88a34fcb0671508fa3d5aac73b2a031",
    "8",
    "0x302404cb8F34713A8B8DBF9b4989A41252332068",
    {
      "minTokensToReinvest": "1000000000000000",
      "adminFeeBips": 0,
      "devFeeBips": 700,
      "reinvestRewardBips": 300
    }
  ],
  "solcInputHash": "e57078d98d99d52f04edeeba57d30a2b",
  "bytecode": "0x60e0604052600960a0819052685969656c642059616b60b81b60c09081526200002c916000919062000a8e565b506040805180820190915260038082526216549560ea1b6020909201918252620000599160019162000a8e565b503480156200006757600080fd5b5060405162004c9938038062004c998339810160408190526200008a9162000bf9565b87878780886000878988808433600680546001600160a01b0319166001600160a01b0383169081179091556040519192509060009060008051602062004c79833981519152908290a3508051620000e1906200021a565b6020810151620000f190620002aa565b6040810151620001019062000361565b508851620001179060009060208c019062000a8e565b50600980546001600160a01b03808b166001600160a01b031992831617909255600a8054928a16928216929092179091556080839052600b8054909116732d580f9cf2fb2d09bc411532988f2afda4e7beff1790556200017987878762000418565b6200018484620006f0565b620001906001620008d2565b6200019b836200097c565b60408051600080825260208201527fc7606d21ac05cd309191543e409f0845c016120563783d70e4f41419dc0ef234910160405180910390a15050601680546001600160a01b039c8d166001600160a01b031991821617909155601780549f909c169e169d909d179099555062000db49b505050505050505050505050565b6006546001600160a01b03163314620002695760405162461bcd60e51b8152602060048201819052602482015260008051602062004c5983398151915260448201526064015b60405180910390fd5b600c5460408051918252602082018390527f481f79ac3a523b6d6db3c5a720e190e986d1cc1b41adcdf50f9caef849901100910160405180910390a1600c55565b6006546001600160a01b03163314620002f55760405162461bcd60e51b8152602060048201819052602482015260008051602062004c59833981519152604482015260640162000260565b612710620003146010548362000a7960201b62001d601790919060201c565b11156200032057600080fd5b60115460408051918252602082018390527f2a42303d002f0ba6cfe8259c91d4684443fb0b3de286ba74991175d651726131910160405180910390a1601155565b6006546001600160a01b03163314620003ac5760405162461bcd60e51b8152602060048201819052602482015260008051602062004c59833981519152604482015260640162000260565b612710620003cb6011548362000a7960201b62001d601790919060201c565b1115620003d757600080fd5b60105460408051918252602082018390527fe7f97d51d307dc44045597c9978bec0f842e6bb40d19b9444084cfa30d9ed4f2910160405180910390a1601055565b826001600160a01b0316826001600160a01b031614620006c157806001600160a01b0316630dfe16816040518163ffffffff1660e01b8152600401602060405180830381865afa15801562000471573d6000803e3d6000fd5b505050506040513d601f19601f8201168201806040525081019062000497919062000d33565b6001600160a01b0316826001600160a01b0316036200059257826001600160a01b0316816001600160a01b031663d21220a76040518163ffffffff1660e01b8152600401602060405180830381865afa158015620004f9573d6000803e3d6000fd5b505050506040513d601f19601f820116820180604052508101906200051f919062000d33565b6001600160a01b0316146200058c5760405162461bcd60e51b815260206004820152603f602482015260008051602062004c3983398151915260448201527f6f6573206e6f7420636f6e7461696e2065636f73797374656d20746f6b656e00606482015260840162000260565b620006c1565b806001600160a01b031663d21220a76040518163ffffffff1660e01b8152600401602060405180830381865afa158015620005d1573d6000803e3d6000fd5b505050506040513d601f19601f82011682018060405250810190620005f7919062000d33565b6001600160a01b0316826001600160a01b0316036200065957826001600160a01b0316816001600160a01b0316630dfe16816040518163ffffffff1660e01b8152600401602060405180830381865afa158015620004f9573d6000803e3d6000fd5b60405162461bcd60e51b8152602060048201526041602482015260008051602062004c3983398151915260448201527f6f6573206e6f7420636f6e7461696e20706f6f6c2072657761726420746f6b656064820152603760f91b608482015260a40162000260565b601280546001600160a01b039384166001600160a01b0319918216179091556013805492909316911617905550565b6001600160a01b03811615620008b357600a5460408051630dfe168160e01b815290516001600160a01b0392831692841691630dfe16819160048083019260209291908290030181865afa1580156200074d573d6000803e3d6000fd5b505050506040513d601f19601f8201168201806040525081019062000773919062000d33565b6001600160a01b0316036200080d57806001600160a01b031663d21220a76040518163ffffffff1660e01b8152600401602060405180830381865afa158015620007c1573d6000803e3d6000fd5b505050506040513d601f19601f82011682018060405250810190620007e7919062000d33565b601580546001600160a01b0319166001600160a01b039290921691909117905562000893565b806001600160a01b0316630dfe16816040518163ffffffff1660e01b8152600401602060405180830381865afa1580156200084c573d6000803e3d6000fd5b505050506040513d601f19601f8201168201806040525081019062000872919062000d33565b601580546001600160a01b0319166001600160a01b03929092169190911790555b601480546001600160a01b0383166001600160a01b031990911617905550565b601480546001600160a01b031990811690915560158054909116905550565b6006546001600160a01b031633146200091d5760405162461bcd60e51b8152602060048201819052602482015260008051602062004c59833981519152604482015260640162000260565b600e5481151560ff9091161515036200093557600080fd5b600e805460ff19168215159081179091556040519081527f7b014ed3854e7f5cb0218d58b3c6ae7d53a68bb0af2f67bfb029ea42c38a7e859060200160405180910390a150565b6006546001600160a01b03163314620009c75760405162461bcd60e51b8152602060048201819052602482015260008051602062004c59833981519152604482015260640162000260565b6001600160a01b03811662000a2e5760405162461bcd60e51b815260206004820152602660248201527f4f776e61626c653a206e6577206f776e657220697320746865207a65726f206160448201526564647265737360d01b606482015260840162000260565b6006546040516001600160a01b0380841692169060008051602062004c7983398151915290600090a3600680546001600160a01b0319166001600160a01b0392909216919091179055565b600062000a87828462000d51565b9392505050565b82805462000a9c9062000d78565b90600052602060002090601f01602090048101928262000ac0576000855562000b0b565b82601f1062000adb57805160ff191683800117855562000b0b565b8280016001018555821562000b0b579182015b8281111562000b0b57825182559160200191906001019062000aee565b5062000b1992915062000b1d565b5090565b5b8082111562000b19576000815560010162000b1e565b634e487b7160e01b600052604160045260246000fd5b604051601f8201601f191681016001600160401b038111828210171562000b755762000b7562000b34565b604052919050565b80516001600160a01b038116811462000b9557600080fd5b919050565b60006060828403121562000bad57600080fd5b604051606081016001600160401b038111828210171562000bd25762000bd262000b34565b80604052508091508251815260208301516020820152604083015160408201525092915050565b600080600080600080600080610140898b03121562000c1757600080fd5b88516001600160401b038082111562000c2f57600080fd5b818b0191508b601f83011262000c4457600080fd5b81518181111562000c595762000c5962000b34565b6020915062000c71601f8201601f1916830162000b4a565b8181528d8383860101111562000c8657600080fd5b60005b8281101562000ca657848101840151828201850152830162000c89565b8281111562000cb85760008484840101525b509a5062000cca90508b820162000b7d565b9850505062000cdc60408a0162000b7d565b955062000cec60608a0162000b7d565b945062000cfc60808a0162000b7d565b935060a0890151925062000d1360c08a0162000b7d565b915062000d248a60e08b0162000b9a565b90509295985092959890939650565b60006020828403121562000d4657600080fd5b62000a878262000b7d565b6000821982111562000d7357634e487b7160e01b600052601160045260246000fd5b500190565b600181811c9082168062000d8d57607f821691505b60208210810362000dae57634e487b7160e01b600052602260045260246000fd5b50919050565b608051613e3f62000dfa6000396000818161053001528181610f8a0152818161165f0152818161200b015281816127dc01528181612b550152612e1b0152613e3f6000f3fe608060405234801561001057600080fd5b50600436106103995760003560e01c80638b73e606116101e9578063bd079f551161010f578063dd8ce4d6116100ad578063ee99205c1161007c578063ee99205c14610807578063f2fde38b1461081a578063f7c618c11461082d578063fdb5a03e1461084057600080fd5b8063dd8ce4d6146107c6578063e21ac825146107d9578063eab89a5a146107ec578063ed24911d146107ff57600080fd5b8063cff1b6ef116100e9578063cff1b6ef14610754578063d505accf14610767578063da09c72c1461077a578063dd62ed3e1461078d57600080fd5b8063bd079f5514610730578063c4b24a4614610739578063c89039c51461074157600080fd5b8063a1a4ddeb11610187578063ac0d31ff11610156578063ac0d31ff146106f5578063b52a321f14610708578063b6b55f2514610715578063b9e57b801461072857600080fd5b8063a1a4ddeb146106a9578063a5988230146106bc578063a8ae2b7c146106cf578063a9059cbb146106e257600080fd5b80639291d563116101c35780639291d5631461065457806395d89b411461066757806399729ec11461066f5780639e4e73181461068257600080fd5b80638b73e606146106095780638da5cb5b1461061c578063909ac8f41461064157600080fd5b80634bebd1e7116102ce578063789139bc1161026c578063818372301161023b57806381837230146105c75780638432e894146105da5780638980f11f146105ed5780638aff733d1461060057600080fd5b8063789139bc146105835780637ae267731461058c5780637d8820971461059f5780637ecebe00146105a757600080fd5b80635ea682ea116102a85780635ea682ea146105225780635eaec0e41461052b57806370a0823114610552578063715018a61461057b57600080fd5b80634bebd1e7146104e95780634e77ace5146104fc5780634ebb79161461050f57600080fd5b80632e1a7d4d1161033b578063313ce56711610315578063313ce567146104905780633bdc6e72146104aa578063483c2ef0146104b35780634a970be7146104d657600080fd5b80632e1a7d4d146104415780632f4f21e21461045657806330adf81f1461046957600080fd5b80630f23475d116103775780630f23475d146103f657806318160ddd146103fe57806320606b701461040757806323b872dd1461042e57600080fd5b806306fdde031461039e57806307677111146103bc578063095ea7b3146103d3575b600080fd5b6103a6610848565b6040516103b39190613896565b60405180910390f35b6103c5600f5481565b6040519081526020016103b3565b6103e66103e13660046138be565b6108d6565b60405190151581526020016103b3565b6103c56108ed565b6103c560025481565b6103c57f8b73c3c69bb8fe3d512ecc4cf759cc79239f7b179b0ffacaa9a75d522b39400f81565b6103e661043c3660046138ea565b610928565b61045461044f36600461392b565b610a0c565b005b6104546104643660046138be565b610aee565b6103c57f6e71edae12b1b97f4d1f60370fef10105fa2faae0126114a169c64845d6126c981565b610498601281565b60405160ff90911681526020016103b3565b6103c560075481565b6103e66104c1366004613944565b60086020526000908152604090205460ff1681565b6104546104e4366004613977565b610afc565b6104546104f7366004613944565b610bae565b61045461050a3660046139cc565b610ccb565b61045461051d36600461392b565b610d72565b6103c560115481565b6103c57f000000000000000000000000000000000000000000000000000000000000000081565b6103c5610560366004613944565b6001600160a01b031660009081526004602052604090205490565b610454610e2c565b6103c5600d5481565b61045461059a3660046139e9565b610ebe565b6103c5610f82565b6103c56105b5366004613944565b60056020526000908152604090205481565b6104546105d536600461392b565b610faf565b6104546105e8366004613944565b611038565b6104546105fb3660046138be565b61109e565b6103c560105481565b610454610617366004613944565b6111b3565b6006546001600160a01b03165b6040516001600160a01b0390911681526020016103b3565b601454610629906001600160a01b031681565b610454610662366004613944565b61136e565b6103a6611431565b61045461067d36600461392b565b61143e565b6103c57fc89efdaa54c0f20c7adf612882df0950f5a951637e0307cdcb4c672f298b8bc681565b601554610629906001600160a01b031681565b601754610629906001600160a01b031681565b6104546106dd36600461392b565b6114ea565b6103e66106f03660046138be565b611596565b610454610703366004613a22565b6115a3565b600e546103e69060ff1681565b61045461072336600461392b565b6117e3565b6103c56117ed565b6103c5600c5481565b6103c561182c565b600954610629906001600160a01b031681565b61045461076236600461392b565b611840565b610454610775366004613a47565b6118d4565b600b54610629906001600160a01b031681565b6103c561079b3660046139e9565b6001600160a01b03918216600090815260036020908152604080832093909416825291909152205490565b6103c56107d436600461392b565b6119e7565b6104546107e736600461392b565b611a21565b6103c56107fa36600461392b565b611aaa565b6103c5611ade565b601654610629906001600160a01b031681565b610454610828366004613944565b611b7e565b600a54610629906001600160a01b031681565b610454611c9e565b6000805461085590613ab5565b80601f016020809104026020016040519081016040528092919081815260200182805461088190613ab5565b80156108ce5780601f106108a3576101008083540402835291602001916108ce565b820191906000526020600020905b8154815290600101906020018083116108b157829003601f168201915b505050505081565b60006108e3338484611d6c565b5060015b92915050565b6000806108f8610f82565b90506000806109146127105b61090e8585611e7a565b90611e86565b90506109208382611e92565b935050505090565b6001600160a01b03831660008181526003602090815260408083203380855292528220549192909190821480159061096257506000198114155b156109f357600061098e856040518060600160405280602f8152602001613d86602f9139849190611e9e565b6001600160a01b038881166000818152600360209081526040808320948916808452948252918290208590559051848152939450919290917f8c5be1e5ebec7d5bd14f71427d1e84f3dd0314c0f7b2291e5b200ac8c7c3b925910160405180910390a3505b6109fe868686611eca565b6001925050505b9392505050565b6000610a1782611aaa565b905060008111610a6e5760405162461bcd60e51b815260206004820152601e60248201527f4d617374657243686566537472617465677956313a3a7769746864726177000060448201526064015b60405180910390fd5b610a7781612006565b600080610a85612710610904565b600954909150610aa8906001600160a01b031633610aa38685611e92565b612030565b610ab2338561211a565b60405183815233907f884edad9ce6fa2440d8a54cc123490eb96d2768479d49ff9c7366125a9424364906020015b60405180910390a250505050565b610af882826121f0565b5050565b6009546040517fd505accf000000000000000000000000000000000000000000000000000000008152336004820152306024820152604481018790526064810186905260ff8516608482015260a4810184905260c481018390526001600160a01b039091169063d505accf9060e401600060405180830381600087803b158015610b8557600080fd5b505af1158015610b99573d6000803e3d6000fd5b50505050610ba733866121f0565b5050505050565b6006546001600160a01b03163314610bf65760405162461bcd60e51b81526020600482018190526024820152600080516020613d668339815191526044820152606401610a65565b6001600160a01b03811660009081526008602052604090205460ff1615610c5f5760405162461bcd60e51b815260206004820152601c60248201527f5065726d697373696f6e65643a3a616c6c6f774465706f7369746f72000000006044820152606401610a65565b6001600160a01b0381166000908152600860205260409020805460ff19166001908117909155600754610c9191611d60565b6007556040516001600160a01b038216907fc0a1035c16faf8d1304056d92c00edf028f87e62b8235a938f00af9e3c0312c590600090a250565b6006546001600160a01b03163314610d135760405162461bcd60e51b81526020600482018190526024820152600080516020613d668339815191526044820152606401610a65565b600e5481151560ff909116151503610d2a57600080fd5b600e805460ff19168215159081179091556040519081527f7b014ed3854e7f5cb0218d58b3c6ae7d53a68bb0af2f67bfb029ea42c38a7e85906020015b60405180910390a150565b6006546001600160a01b03163314610dba5760405162461bcd60e51b81526020600482018190526024820152600080516020613d668339815191526044820152606401610a65565b60008111610dc757600080fd5b604051339082156108fc029083906000818181858888f19350505050158015610df4573d6000803e3d6000fd5b506040805160008152602081018390527f8c1256b8896378cd5044f80c202f9772b9d77dc85c8a6eb51967210b09bfaa289101610d67565b6006546001600160a01b03163314610e745760405162461bcd60e51b81526020600482018190526024820152600080516020613d668339815191526044820152606401610a65565b6006546040516000916001600160a01b0316907f8be0079c531659141344cd1fd0a4f28419497f9722a3daafe3b4186f6b6457e0908390a3600680546001600160a01b0319169055565b6006546001600160a01b03163314610f065760405162461bcd60e51b81526020600482018190526024820152600080516020613d668339815191526044820152606401610a65565b60405163095ea7b360e01b81526001600160a01b0382811660048301526000602483015283169063095ea7b3906044016020604051808303816000875af1158015610f55573d6000803e3d6000fd5b505050506040513d601f19601f82011682018060405250810190610f799190613aef565b610af857600080fd5b6000806108e77f0000000000000000000000000000000000000000000000000000000000000000306123ef565b6006546001600160a01b03163314610ff75760405162461bcd60e51b81526020600482018190526024820152600080516020613d668339815191526044820152606401610a65565b600c5460408051918252602082018390527f481f79ac3a523b6d6db3c5a720e190e986d1cc1b41adcdf50f9caef849901100910160405180910390a1600c55565b600b546001600160a01b031633146110925760405162461bcd60e51b815260206004820152601460248201527f59616b53747261746567793a3a6f6e6c794465760000000000000000000000006044820152606401610a65565b61109b8161247e565b50565b6006546001600160a01b031633146110e65760405162461bcd60e51b81526020600482018190526024820152600080516020613d668339815191526044820152606401610a65565b600081116110f357600080fd5b60405163a9059cbb60e01b8152336004820152602481018290526001600160a01b0383169063a9059cbb906044016020604051808303816000875af1158015611140573d6000803e3d6000fd5b505050506040513d601f19601f820116820180604052508101906111649190613aef565b61116d57600080fd5b604080516001600160a01b0384168152602081018390527f8c1256b8896378cd5044f80c202f9772b9d77dc85c8a6eb51967210b09bfaa28910160405180910390a15050565b6006546001600160a01b031633146111fb5760405162461bcd60e51b81526020600482018190526024820152600080516020613d668339815191526044820152606401610a65565b6000600754116112735760405162461bcd60e51b815260206004820152603460248201527f5065726d697373696f6e65643a3a72656d6f76654465706f7369746f722c206e60448201527f6f20616c6c6f776564206465706f7369746f72730000000000000000000000006064820152608401610a65565b6001600160a01b03811660009081526008602052604090205460ff1615156001146113065760405162461bcd60e51b815260206004820152602a60248201527f5065726d697373696f6e65643a3a72656d6f76654465706f7369746f722c206e60448201527f6f7420616c6c6f776564000000000000000000000000000000000000000000006064820152608401610a65565b6001600160a01b0381166000908152600860205260409020805460ff19169055600754611334906001611e92565b6007556040516001600160a01b038216907f0e86f6608b536e5339a25b65ff531f5ea91e1313d056ecd4752b35cbd16137d490600090a250565b600b546001600160a01b031633146113c85760405162461bcd60e51b815260206004820152601460248201527f59616b53747261746567793a3a6f6e6c794465760000000000000000000000006044820152606401610a65565b600b54604080516001600160a01b03928316815291831660208301527fa8e91499ed37682f43cffb045fcc7d379a91e8c9a14e6321877ee34dee564c00910160405180910390a1600b80546001600160a01b0319166001600160a01b0392909216919091179055565b6001805461085590613ab5565b6006546001600160a01b031633146114865760405162461bcd60e51b81526020600482018190526024820152600080516020613d668339815191526044820152606401610a65565b61271061149e60105483611d6090919063ffffffff16565b11156114a957600080fd5b60115460408051918252602082018390527f2a42303d002f0ba6cfe8259c91d4684443fb0b3de286ba74991175d651726131910160405180910390a1601155565b6006546001600160a01b031633146115325760405162461bcd60e51b81526020600482018190526024820152600080516020613d668339815191526044820152606401610a65565b61271061154a60115483611d6090919063ffffffff16565b111561155557600080fd5b60105460408051918252602082018390527fe7f97d51d307dc44045597c9978bec0f842e6bb40d19b9444084cfa30d9ed4f2910160405180910390a1601055565b60006108e3338484611eca565b6006546001600160a01b031633146115eb5760405162461bcd60e51b81526020600482018190526024820152600080516020613d668339815191526044820152606401610a65565b6009546040516370a0823160e01b81523060048201526000916001600160a01b0316906370a0823190602401602060405180830381865afa158015611634573d6000803e3d6000fd5b505050506040513d601f19601f820116820180604052508101906116589190613b0c565b90506116837f000000000000000000000000000000000000000000000000000000000000000061266d565b6009546040516370a0823160e01b81523060048201526000916001600160a01b0316906370a0823190602401602060405180830381865afa1580156116cc573d6000803e3d6000fd5b505050506040513d601f19601f820116820180604052508101906116f09190613b0c565b9050836116fd8284611e92565b10156117715760405162461bcd60e51b815260206004820152602960248201527f4d617374657243686566537472617465677956313a3a7265736375654465706c60448201527f6f79656446756e647300000000000000000000000000000000000000000000006064820152608401610a65565b7fc7606d21ac05cd309191543e409f0845c016120563783d70e4f41419dc0ef23461179a610f82565b6002546040805192835260208301919091520160405180910390a1600e5460ff16151560011480156117ce57506001831515145b156117dd576117dd6000610ccb565b50505050565b61109b33826121f0565b6000806117f861182c565b9050600c5481106118245761181e61271061090e60105484611e7a90919063ffffffff16565b91505090565b600091505090565b60008061183761275b565b95945050505050565b6006546001600160a01b031633146118885760405162461bcd60e51b81526020600482018190526024820152600080516020613d668339815191526044820152606401610a65565b801561189357600080fd5b600f5460408051918252602082018390527f3cc372f330f95ac9540626dc8a25f5bf21ba607215a5d58304cb804d446f104a910160405180910390a1600f55565b428410156119245760405162461bcd60e51b815260206004820152600f60248201527f7065726d69743a3a6578706972656400000000000000000000000000000000006044820152606401610a65565b6001600160a01b038716600090815260056020526040812080547f6e71edae12b1b97f4d1f60370fef10105fa2faae0126114a169c64845d6126c9918a918a918a91908661197183613b3b565b909155506040805160208101969096526001600160a01b0394851690860152929091166060840152608083015260a082015260c0810186905260e0016040516020818303038152906040528051906020012090506119d288828686866129f0565b6119dd888888611d6c565b5050505050505050565b60006119fd6119f4610f82565b60025490611e7a565b600003611a08575090565b6108e7611a13610f82565b60025461090e908590611e7a565b6006546001600160a01b03163314611a695760405162461bcd60e51b81526020600482018190526024820152600080516020613d668339815191526044820152606401610a65565b600d5460408051918252602082018390527fa5dae50539d56dfe1fb5273d883b0c39bc76750a25d036fc5fbd09ad8fd5f57f910160405180910390a1600d55565b6000611ab76119f4610f82565b600003611ac657506000919050565b6108e760025461090e611ad7610f82565b8590611e7a565b60007f8b73c3c69bb8fe3d512ecc4cf759cc79239f7b179b0ffacaa9a75d522b39400f60001b6000604051611b139190613b54565b6040519081900390207fc89efdaa54c0f20c7adf612882df0950f5a951637e0307cdcb4c672f298b8bc646604080516020810195909552840192909252606083015260808201523060a082015260c00160405160208183030381529060405280519060200120905090565b6006546001600160a01b03163314611bc65760405162461bcd60e51b81526020600482018190526024820152600080516020613d668339815191526044820152606401610a65565b6001600160a01b038116611c425760405162461bcd60e51b815260206004820152602660248201527f4f776e61626c653a206e6577206f776e657220697320746865207a65726f206160448201527f64647265737300000000000000000000000000000000000000000000000000006064820152608401610a65565b6006546040516001600160a01b038084169216907f8be0079c531659141344cd1fd0a4f28419497f9722a3daafe3b4186f6b6457e090600090a3600680546001600160a01b0319166001600160a01b0392909216919091179055565b323314611ced5760405162461bcd60e51b815260206004820152601460248201527f59616b53747261746567793a3a6f6e6c79454f410000000000000000000000006044820152606401610a65565b600080600080611cfb61275b565b9350935093509350600c54811015611d555760405162461bcd60e51b815260206004820152601e60248201527f4d617374657243686566537472617465677956313a3a7265696e7665737400006044820152606401610a65565b6117dd828585612b50565b6000610a058284613bef565b6001600160a01b038316611dc25760405162461bcd60e51b815260206004820152601c60248201527f5f617070726f76653a3a6f776e6572207a65726f2061646472657373000000006044820152606401610a65565b6001600160a01b038216611e185760405162461bcd60e51b815260206004820152601e60248201527f5f617070726f76653a3a7370656e646572207a65726f206164647265737300006044820152606401610a65565b6001600160a01b0383811660008181526003602090815260408083209487168084529482529182902085905590518481527f8c5be1e5ebec7d5bd14f71427d1e84f3dd0314c0f7b2291e5b200ac8c7c3b92591015b60405180910390a3505050565b6000610a058284613c07565b6000610a058284613c26565b6000610a058284613c48565b60008184841115611ec25760405162461bcd60e51b8152600401610a659190613896565b505050900390565b6001600160a01b038216611f465760405162461bcd60e51b815260206004820152603460248201527f5f7472616e73666572546f6b656e733a2063616e6e6f74207472616e7366657260448201527f20746f20746865207a65726f20616464726573730000000000000000000000006064820152608401610a65565b611f83816040518060600160405280602e8152602001613ddc602e91396001600160a01b0386166000908152600460205260409020549190611e9e565b6001600160a01b038085166000908152600460205260408082209390935590841681522054611fb29082611d60565b6001600160a01b0380841660008181526004602052604090819020939093559151908516907fddf252ad1be2c89b69c2b068fc378daa952ba7f163c4a11628f55a4df523b3ef90611e6d9085815260200190565b61109b7f000000000000000000000000000000000000000000000000000000000000000082612c99565b60405163a9059cbb60e01b81526001600160a01b0383811660048301526024820183905284169063a9059cbb906044016020604051808303816000875af115801561207f573d6000803e3d6000fd5b505050506040513d601f19601f820116820180604052508101906120a39190613aef565b6121155760405162461bcd60e51b815260206004820152602a60248201527f4d617374657243686566537472617465677956313a3a5452414e534645525f4660448201527f524f4d5f4641494c4544000000000000000000000000000000000000000000006064820152608401610a65565b505050565b61215781604051806060016040528060278152602001613db5602791396001600160a01b0385166000908152600460205260409020549190611e9e565b60046000846001600160a01b03166001600160a01b03168152602001908152602001600020819055506121a781604051806060016040528060278152602001613d3f602791396002549190611e9e565b6002556040518181526000906001600160a01b038416907fddf252ad1be2c89b69c2b068fc378daa952ba7f163c4a11628f55a4df523b3ef906020015b60405180910390a35050565b600e5460ff1615156001146122475760405162461bcd60e51b815260206004820152601e60248201527f4d617374657243686566537472617465677956313a3a5f6465706f73697400006044820152606401610a65565b600d541561227f5760008060008061225d61275b565b9350935093509350600d5481111561227a5761227a828585612b50565b505050505b6009546040517f23b872dd000000000000000000000000000000000000000000000000000000008152336004820152306024820152604481018390526001600160a01b03909116906323b872dd906064016020604051808303816000875af11580156122ef573d6000803e3d6000fd5b505050506040513d601f19601f820116820180604052508101906123139190613aef565b6123855760405162461bcd60e51b815260206004820152602560248201527f4d617374657243686566537472617465677956313a3a7472616e73666572206660448201527f61696c65640000000000000000000000000000000000000000000000000000006064820152608401610a65565b600080612393612710610904565b90506123ab846123a66107d48685611e92565b612d1c565b6123b483612da0565b836001600160a01b03167fe1fffcc4923d04b559f4d29a8bfc6cda04eb5b0d3c460751c2402c5c5cc9109c84604051610ae091815260200190565b6016546040517f3656eec2000000000000000000000000000000000000000000000000000000008152600481018490526001600160a01b0383811660248301526000921690633656eec290604401602060405180830381865afa15801561245a573d6000803e3d6000fd5b505050506040513d601f19601f82011682018060405250810190610a059190613b0c565b6001600160a01b0381161561264e57600a54604080517f0dfe168100000000000000000000000000000000000000000000000000000000815290516001600160a01b0392831692841691630dfe16819160048083019260209291908290030181865afa1580156124f2573d6000803e3d6000fd5b505050506040513d601f19601f820116820180604052508101906125169190613c5f565b6001600160a01b0316036125ab57806001600160a01b031663d21220a76040518163ffffffff1660e01b8152600401602060405180830381865afa158015612562573d6000803e3d6000fd5b505050506040513d601f19601f820116820180604052508101906125869190613c5f565b601580546001600160a01b0319166001600160a01b039290921691909117905561262e565b806001600160a01b0316630dfe16816040518163ffffffff1660e01b8152600401602060405180830381865afa1580156125e9573d6000803e3d6000fd5b505050506040513d601f19601f8201168201806040525081019061260d9190613c5f565b601580546001600160a01b0319166001600160a01b03929092169190911790555b601480546001600160a01b0383166001600160a01b031990911617905550565b601480546001600160a01b031990811690915560158054909116905550565b60095460165460405163095ea7b360e01b81526001600160a01b0391821660048201526000602482015291169063095ea7b3906044016020604051808303816000875af11580156126c2573d6000803e3d6000fd5b505050506040513d601f19601f820116820180604052508101906126e69190613aef565b506016546040517f7f8661a1000000000000000000000000000000000000000000000000000000008152600481018390526001600160a01b0390911690637f8661a1906024015b600060405180830381600087803b15801561274757600080fd5b505af1158015610ba7573d6000803e3d6000fd5b6012546040516370a0823160e01b815230600482015260009182918291829182916001600160a01b0316906370a0823190602401602060405180830381865afa1580156127ac573d6000803e3d6000fd5b505050506040513d601f19601f820116820180604052508101906127d09190613b0c565b905060008060006128017f000000000000000000000000000000000000000000000000000000000000000030612e40565b9194509250905060006128148585611d60565b600a546012549192506000916001600160a01b03918216911603612838578461285d565b601254600a5460135461285d9285926001600160a01b03918216929082169116612ee4565b905060006001600160a01b03841615612953577fffffffffffffffffffffffff4ce09955c3e187ac9c0f78a5e48b1d847a0299396001600160a01b038516016128a7575083612953565b6014546001600160a01b031615612953576015546040516370a0823160e01b815230600482015261292d916001600160a01b0316906370a0823190602401602060405180830381865afa158015612902573d6000803e3d6000fd5b505050506040513d601f19601f820116820180604052508101906129269190613b0c565b8690611d60565b600a5460145491965061295091879187916001600160a01b039182169116612ee4565b90505b600a546040516370a0823160e01b81523060048201526000916129cc9184916001600160a01b0316906370a0823190602401602060405180830381865afa1580156129a2573d6000803e3d6000fd5b505050506040513d601f19601f820116820180604052508101906129c69190613b0c565b90611d60565b905060006129da8285611d60565b949d969c50909a50929850939650505050505050565b60006129fa611ade565b6040517f1901000000000000000000000000000000000000000000000000000000000000602082015260228101919091526042810186905260620160408051601f198184030181528282528051602091820120600080855291840180845281905260ff88169284019290925260608301869052608083018590529092509060019060a0016020604051602081039080840390855afa158015612aa0573d6000803e3d6000fd5b5050604051601f1901519150506001600160a01b03811615801590612ad65750866001600160a01b0316816001600160a01b0316145b612b475760405162461bcd60e51b8152602060048201526024808201527f417263683a3a76616c69646174655369673a20696e76616c6964207369676e6160448201527f74757265000000000000000000000000000000000000000000000000000000006064820152608401610a65565b50505050505050565b612b797f0000000000000000000000000000000000000000000000000000000000000000612fb0565b6000612b8e612b8784612ffa565b8590611d60565b9050612ba4612b9d858461303e565b8290611d60565b506000612bc261271061090e60115485611e7a90919063ffffffff16565b90508015612be757600a54600b54612be7916001600160a01b03908116911683612030565b6000612c0461271061090e60105486611e7a90919063ffffffff16565b90508015612c2357600a54612c23906001600160a01b03163383612030565b6000612c41612c3c83612c368787611e92565b90611e92565b61317d565b9050612c4c81612da0565b7fc7606d21ac05cd309191543e409f0845c016120563783d70e4f41419dc0ef234612c75610f82565b6002546040805192835260208301919091520160405180910390a150505050505050565b6016546040517f441a3e7000000000000000000000000000000000000000000000000000000000815260048101849052602481018390526001600160a01b039091169063441a3e70906044015b600060405180830381600087803b158015612d0057600080fd5b505af1158015612d14573d6000803e3d6000fd5b505050505050565b600254612d299082611d60565b6002556001600160a01b038216600090815260046020526040902054612d4f9082611d60565b6001600160a01b0383166000818152600460205260408082209390935591519091907fddf252ad1be2c89b69c2b068fc378daa952ba7f163c4a11628f55a4df523b3ef906121e49085815260200190565b60008111612e165760405162461bcd60e51b815260206004820152602960248201527f4d617374657243686566537472617465677956313a3a5f7374616b654465706f60448201527f736974546f6b656e7300000000000000000000000000000000000000000000006064820152608401610a65565b61109b7f000000000000000000000000000000000000000000000000000000000000000082613295565b6016546040517fe39c08fc000000000000000000000000000000000000000000000000000000008152600481018490526001600160a01b038381166024830152600092839283928392169063e39c08fc90604401602060405180830381865afa158015612eb1573d6000803e3d6000fd5b505050506040513d601f19601f82011682018060405250810190612ed59190613b0c565b96600096508695509350505050565b600080612ef1858561336d565b509050600080846001600160a01b0316630902f1ac6040518163ffffffff1660e01b8152600401606060405180830381865afa158015612f35573d6000803e3d6000fd5b505050506040513d601f19601f82011682018060405250810190612f599190613c9a565b5091509150866001600160a01b0316836001600160a01b031614612f7957905b612fa488836dffffffffffffffffffffffffffff16836dffffffffffffffffffffffffffff1661339e565b98975050505050505050565b6016546040517f1c4b774b000000000000000000000000000000000000000000000000000000008152600481018390526001600160a01b0390911690631c4b774b9060240161272d565b601254600a546000916001600160a01b03908116911603613019575090565b601254600a546013546108e79285926001600160a01b039182169290821691166133e6565b60008115613174576014546001600160a01b03161561308357601554600a5460145461307c9285926001600160a01b039182169290821691166133e6565b90506108e7565b4780156130f35773b31f66aa3c1e785363f0875a1b74e27b85fd66c76001600160a01b031663d0e30db0826040518263ffffffff1660e01b81526004016000604051808303818588803b1580156130d957600080fd5b505af11580156130ed573d6000803e3d6000fd5b50505050505b6040516370a0823160e01b815230600482015261316c90859073b31f66aa3c1e785363f0875a1b74e27b85fd66c7906370a0823190602401602060405180830381865afa158015613148573d6000803e3d6000fd5b505050506040513d601f19601f82011682018060405250810190612c369190613b0c565b9150506108e7565b50600092915050565b600a5460175460405163095ea7b360e01b81526001600160a01b03918216600482015260248101849052600092919091169063095ea7b3906044016020604051808303816000875af11580156131d7573d6000803e3d6000fd5b505050506040513d601f19601f820116820180604052508101906131fb9190613aef565b50601754600a546040517f5db342770000000000000000000000000000000000000000000000000000000081526001600160a01b0391821660048201526024810185905260006044820152911690635db34277906064016020604051808303816000875af1158015613271573d6000803e3d6000fd5b505050506040513d601f19601f820116820180604052508101906108e79190613b0c565b60095460165460405163095ea7b360e01b81526001600160a01b0391821660048201526024810184905291169063095ea7b3906044016020604051808303816000875af11580156132ea573d6000803e3d6000fd5b505050506040513d601f19601f8201168201806040525081019061330e9190613aef565b506016546040517f40809acd0000000000000000000000000000000000000000000000000000000081526004810184905260248101839052306044820181905260648201526001600160a01b03909116906340809acd90608401612ce6565b600080826001600160a01b0316846001600160a01b031610613390578284613393565b83835b915091509250929050565b6000806133ad856103e5611e7a565b905060006133bb8285611e7a565b905060006133cf836129c6886103e8611e7a565b90506133db8282611e86565b979650505050505050565b6000806133f3858561336d565b509050600080846001600160a01b0316630902f1ac6040518163ffffffff1660e01b8152600401606060405180830381865afa158015613437573d6000803e3d6000fd5b505050506040513d601f19601f8201168201806040525081019061345b9190613c9a565b5091509150866001600160a01b0316836001600160a01b03161461347b57905b6000806134a98a856dffffffffffffffffffffffffffff16856dffffffffffffffffffffffffffff1661339e565b9050886001600160a01b0316856001600160a01b0316146134c657905b6134da6001600160a01b038a16888c613581565b604080516000815260208101918290527f022c0d9f000000000000000000000000000000000000000000000000000000009091526001600160a01b0388169063022c0d9f906135329085908590309060248101613cea565b600060405180830381600087803b15801561354c57600080fd5b505af1158015613560573d6000803e3d6000fd5b505050508181116135715781613573565b805b9a9950505050505050505050565b604080516001600160a01b03848116602483015260448083018590528351808403909101815260649092018352602080830180517bffffffffffffffffffffffffffffffffffffffffffffffffffffffff1663a9059cbb60e01b17905283518085019094528084527f5361666545524332303a206c6f772d6c6576656c2063616c6c206661696c656490840152612115928692916000916136269185169084906136b6565b80519091501561211557808060200190518101906136449190613aef565b6121155760405162461bcd60e51b815260206004820152602a60248201527f5361666545524332303a204552433230206f7065726174696f6e20646964206e60448201527f6f742073756363656564000000000000000000000000000000000000000000006064820152608401610a65565b60606136c584846000856136cd565b949350505050565b6060824710156137455760405162461bcd60e51b815260206004820152602660248201527f416464726573733a20696e73756666696369656e742062616c616e636520666f60448201527f722063616c6c00000000000000000000000000000000000000000000000000006064820152608401610a65565b6001600160a01b0385163b61379c5760405162461bcd60e51b815260206004820152601d60248201527f416464726573733a2063616c6c20746f206e6f6e2d636f6e74726163740000006044820152606401610a65565b600080866001600160a01b031685876040516137b89190613d22565b60006040518083038185875af1925050503d80600081146137f5576040519150601f19603f3d011682016040523d82523d6000602084013e6137fa565b606091505b50915091506133db82828660608315613814575081610a05565b8251156138245782518084602001fd5b8160405162461bcd60e51b8152600401610a659190613896565b60005b83811015613859578181015183820152602001613841565b838111156117dd5750506000910152565b6000815180845261388281602086016020860161383e565b601f01601f19169290920160200192915050565b602081526000610a05602083018461386a565b6001600160a01b038116811461109b57600080fd5b600080604083850312156138d157600080fd5b82356138dc816138a9565b946020939093013593505050565b6000806000606084860312156138ff57600080fd5b833561390a816138a9565b9250602084013561391a816138a9565b929592945050506040919091013590565b60006020828403121561393d57600080fd5b5035919050565b60006020828403121561395657600080fd5b8135610a05816138a9565b803560ff8116811461397257600080fd5b919050565b600080600080600060a0868803121561398f57600080fd5b85359450602086013593506139a660408701613961565b94979396509394606081013594506080013592915050565b801515811461109b57600080fd5b6000602082840312156139de57600080fd5b8135610a05816139be565b600080604083850312156139fc57600080fd5b8235613a07816138a9565b91506020830135613a17816138a9565b809150509250929050565b60008060408385031215613a3557600080fd5b823591506020830135613a17816139be565b600080600080600080600060e0888a031215613a6257600080fd5b8735613a6d816138a9565b96506020880135613a7d816138a9565b95506040880135945060608801359350613a9960808901613961565b925060a0880135915060c0880135905092959891949750929550565b600181811c90821680613ac957607f821691505b602082108103613ae957634e487b7160e01b600052602260045260246000fd5b50919050565b600060208284031215613b0157600080fd5b8151610a05816139be565b600060208284031215613b1e57600080fd5b5051919050565b634e487b7160e01b600052601160045260246000fd5b600060018201613b4d57613b4d613b25565b5060010190565b600080835481600182811c915080831680613b7057607f831692505b60208084108203613b8f57634e487b7160e01b86526022600452602486fd5b818015613ba35760018114613bb457613be1565b60ff19861689528489019650613be1565b60008a81526020902060005b86811015613bd95781548b820152908501908301613bc0565b505084890196505b509498975050505050505050565b60008219821115613c0257613c02613b25565b500190565b6000816000190483118215151615613c2157613c21613b25565b500290565b600082613c4357634e487b7160e01b600052601260045260246000fd5b500490565b600082821015613c5a57613c5a613b25565b500390565b600060208284031215613c7157600080fd5b8151610a05816138a9565b80516dffffffffffffffffffffffffffff8116811461397257600080fd5b600080600060608486031215613caf57600080fd5b613cb884613c7c565b9250613cc660208501613c7c565b9150604084015163ffffffff81168114613cdf57600080fd5b809150509250925092565b8481528360208201526001600160a01b0383166040820152608060608201526000613d18608083018461386a565b9695505050505050565b60008251613d3481846020870161383e565b919091019291505056fe5f6275726e3a206275726e20616d6f756e74206578636565647320746f74616c20737570706c794f776e61626c653a2063616c6c6572206973206e6f7420746865206f776e65727472616e7366657246726f6d3a207472616e7366657220616d6f756e74206578636565647320616c6c6f77616e63655f6275726e3a206275726e20616d6f756e7420657863656564732066726f6d2062616c616e63655f7472616e73666572546f6b656e733a207472616e7366657220657863656564732066726f6d2062616c616e6365a264697066735822122000d7b8d60f48139f6250389c70afd84406e773e326727ffd5ec2e1c13a0e89fa64736f6c634300080d003353776170207061697220277377617050616972506f6f6c5265776172642720644f776e61626c653a2063616c6c6572206973206e6f7420746865206f776e65728be0079c531659141344cd1fd0a4f28419497f9722a3daafe3b4186f6b6457e0",
  "devdoc": {
    "kind": "dev",
    "methods": {
      "allowDepositor(address)": {
        "params": {
          "depositor": "address"
        }
      },
      "allowance(address,address)": {
        "params": {
          "account": "The address of the account holding the funds",
          "spender": "The address of the account spending the funds"
        },
        "returns": {
          "_0": "The number of tokens approved"
        }
      },
      "approve(address,uint256)": {
        "details": "This will overwrite the approval amount for `spender` and is subject to issues noted [here](https://eips.ethereum.org/EIPS/eip-20#approve) It is recommended to use increaseAllowance and decreaseAllowance instead",
        "params": {
          "amount": "The number of tokens that are approved (2^256-1 means infinite)",
          "spender": "The address of the account which may transfer tokens"
        },
        "returns": {
          "_0": "Whether or not the approval succeeded"
        }
      },
      "balanceOf(address)": {
        "params": {
          "account": "The address of the account to get the balance of"
        },
        "returns": {
          "_0": "The number of tokens held"
        }
      },
      "checkReward()": {
        "returns": {
          "_0": "reward tokens"
        }
      },
      "deposit(uint256)": {
        "params": {
          "amount": "Amount of tokens to deposit"
        }
      },
      "depositFor(address,uint256)": {
        "details": "Must mint receipt tokens to `account`",
        "params": {
          "account": "address to receive receipt tokens",
          "amount": "deposit tokens"
        }
      },
      "depositWithPermit(uint256,uint256,uint8,bytes32,bytes32)": {
        "params": {
          "amount": "Amount of tokens to deposit",
          "deadline": "The time at which to expire the signature",
          "r": "Half of the ECDSA signature pair",
          "s": "Half of the ECDSA signature pair",
          "v": "The recovery byte of the signature"
        }
      },
      "estimateDeployedBalance()": {
        "returns": {
          "_0": "deposit tokens after withdraw fee"
        }
      },
      "estimateReinvestReward()": {
        "returns": {
          "_0": "reward tokens"
        }
      },
      "getDepositTokensForShares(uint256)": {
        "params": {
          "amount": "receipt tokens"
        },
        "returns": {
          "_0": "deposit tokens"
        }
      },
      "getDomainSeparator()": {
        "returns": {
          "_0": "Separator"
        }
      },
      "getSharesForDepositTokens(uint256)": {
        "details": "If contract is empty, use 1:1 ratioCould return zero shares for very low amounts of deposit tokens",
        "params": {
          "amount": "deposit tokens"
        },
        "returns": {
          "_0": "receipt tokens"
        }
      },
      "owner()": {
        "details": "Returns the address of the current owner."
      },
      "permit(address,address,uint256,uint256,uint8,bytes32,bytes32)": {
        "params": {
          "deadline": "The time at which to expire the signature",
          "owner": "The address to approve from",
          "r": "Half of the ECDSA signature pair",
          "s": "Half of the ECDSA signature pair",
          "spender": "The address to be approved",
          "v": "The recovery byte of the signature",
          "value": "The number of tokens that are approved (2^256-1 means infinite)"
        }
      },
      "recoverAVAX(uint256)": {
        "params": {
          "amount": "amount"
        }
      },
      "recoverERC20(address,uint256)": {
        "params": {
          "tokenAddress": "token address",
          "tokenAmount": "amount to recover"
        }
      },
      "removeDepositor(address)": {
        "params": {
          "depositor": "address"
        }
      },
      "renounceOwnership()": {
        "details": "Leaves the contract without owner. It will not be possible to call `onlyOwner` functions anymore. Can only be called by the current owner. NOTE: Renouncing ownership will leave the contract without an owner, thereby removing any functionality that is only available to the owner."
      },
      "rescueDeployedFunds(uint256,bool)": {
        "params": {
          "disableDeposits": "bool",
          "minReturnAmountAccepted": "min deposit tokens to receive"
        }
      },
      "revokeAllowance(address,address)": {
        "params": {
          "spender": "address",
          "token": "address"
        }
      },
      "totalDeposits()": {
        "returns": {
          "_0": "total deposits available on the contract"
        }
      },
      "transfer(address,uint256)": {
        "params": {
          "amount": "The number of tokens to transfer",
          "dst": "The address of the destination account"
        },
        "returns": {
          "_0": "Whether or not the transfer succeeded"
        }
      },
      "transferFrom(address,address,uint256)": {
        "params": {
          "amount": "The number of tokens to transfer",
          "dst": "The address of the destination account",
          "src": "The address of the source account"
        },
        "returns": {
          "_0": "Whether or not the transfer succeeded"
        }
      },
      "transferOwnership(address)": {
        "details": "Transfers ownership of the contract to a new account (`newOwner`). Can only be called by the current owner."
      },
      "updateAdminFee(uint256)": {
        "details": "Deprecated; Kept for compatibility",
        "params": {
          "newValue": "fee in BIPS; required to be 0"
        }
      },
      "updateDepositsEnabled(bool)": {
        "params": {
          "newValue": "bool"
        }
      },
      "updateDevAddr(address)": {
        "params": {
          "newValue": "address"
        }
      },
      "updateDevFee(uint256)": {
        "params": {
          "newValue": "fee in BIPS"
        }
      },
      "updateMaxTokensToDepositWithoutReinvest(uint256)": {
        "params": {
          "newValue": "threshold"
        }
      },
      "updateMinTokensToReinvest(uint256)": {
        "params": {
          "newValue": "threshold"
        }
      },
      "updateReinvestReward(uint256)": {
        "params": {
          "newValue": "fee in BIPS"
        }
      },
      "withdraw(uint256)": {
        "params": {
          "amount": "receipt tokens"
        }
      }
    },
    "version": 1
  },
  "userdoc": {
    "kind": "user",
    "methods": {
      "allowDepositor(address)": {
        "notice": "Add an allowed depositor"
      },
      "allowance(address,address)": {
        "notice": "Get the number of tokens `spender` is approved to spend on behalf of `account`"
      },
      "approve(address,uint256)": {
        "notice": "Approve `spender` to transfer up to `amount` from `src`"
      },
      "balanceOf(address)": {
        "notice": "Get the number of tokens held by the `account`"
      },
      "checkReward()": {
        "notice": "Reward tokens avialable to strategy, including balance"
      },
      "deposit(uint256)": {
        "notice": "Deposit tokens to receive receipt tokens"
      },
      "depositFor(address,uint256)": {
        "notice": "Deposit on behalf of another account"
      },
      "depositWithPermit(uint256,uint256,uint8,bytes32,bytes32)": {
        "notice": "Deposit using Permit"
      },
      "estimateDeployedBalance()": {
        "notice": "Estimate recoverable balance after withdraw fee"
      },
      "estimateReinvestReward()": {
        "notice": "Estimate reinvest reward"
      },
      "getDepositTokensForShares(uint256)": {
        "notice": "Calculate deposit tokens for a given amount of receipt tokens"
      },
      "getDomainSeparator()": {
        "notice": "EIP-712 Domain separator"
      },
      "getSharesForDepositTokens(uint256)": {
        "notice": "Calculate receipt tokens for a given amount of deposit tokens"
      },
      "permit(address,address,uint256,uint256,uint8,bytes32,bytes32)": {
        "notice": "Triggers an approval from owner to spender"
      },
      "recoverAVAX(uint256)": {
        "notice": "Recover AVAX from contract"
      },
      "recoverERC20(address,uint256)": {
        "notice": "Recover ERC20 from contract"
      },
      "reinvest()": {
        "notice": "Reinvest reward tokens into deposit tokens"
      },
      "removeDepositor(address)": {
        "notice": "Remove an allowed depositor"
      },
      "rescueDeployedFunds(uint256,bool)": {
        "notice": "Rescue all available deployed deposit tokens back to Strategy"
      },
      "revokeAllowance(address,address)": {
        "notice": "Revoke token allowance"
      },
      "totalDeposits()": {
        "notice": "This function returns a snapshot of last available quotes"
      },
      "transfer(address,uint256)": {
        "notice": "Transfer `amount` tokens from `msg.sender` to `dst`"
      },
      "transferFrom(address,address,uint256)": {
        "notice": "Transfer `amount` tokens from `src` to `dst`"
      },
      "updateAdminFee(uint256)": {
        "notice": "Update admin fee"
      },
      "updateDepositsEnabled(bool)": {
        "notice": "Enable/disable deposits"
      },
      "updateDevAddr(address)": {
        "notice": "Update devAddr"
      },
      "updateDevFee(uint256)": {
        "notice": "Update developer fee"
      },
      "updateMaxTokensToDepositWithoutReinvest(uint256)": {
        "notice": "Update reinvest max threshold before a deposit"
      },
      "updateMinTokensToReinvest(uint256)": {
        "notice": "Update reinvest min threshold"
      },
      "updateReinvestReward(uint256)": {
        "notice": "Update reinvest reward"
      },
      "withdraw(uint256)": {
        "notice": "Redeem receipt tokens for deposit tokens"
      }
    },
    "version": 1
  },
  "storageLayout": {
    "storage": [
      {
        "astId": 556,
        "contract": "contracts/strategies/kassandra/KassandraIndexStrategyK3C.sol:KassandraIndexStrategyK3C",
        "label": "name",
        "offset": 0,
        "slot": "0",
        "type": "t_string_storage"
      },
      {
        "astId": 559,
        "contract": "contracts/strategies/kassandra/KassandraIndexStrategyK3C.sol:KassandraIndexStrategyK3C",
        "label": "symbol",
        "offset": 0,
        "slot": "1",
        "type": "t_string_storage"
      },
      {
        "astId": 564,
        "contract": "contracts/strategies/kassandra/KassandraIndexStrategyK3C.sol:KassandraIndexStrategyK3C",
        "label": "totalSupply",
        "offset": 0,
        "slot": "2",
        "type": "t_uint256"
      },
      {
        "astId": 570,
        "contract": "contracts/strategies/kassandra/KassandraIndexStrategyK3C.sol:KassandraIndexStrategyK3C",
        "label": "allowances",
        "offset": 0,
        "slot": "3",
        "type": "t_mapping(t_address,t_mapping(t_address,t_uint256))"
      },
      {
        "astId": 574,
        "contract": "contracts/strategies/kassandra/KassandraIndexStrategyK3C.sol:KassandraIndexStrategyK3C",
        "label": "balances",
        "offset": 0,
        "slot": "4",
        "type": "t_mapping(t_address,t_uint256)"
      },
      {
        "astId": 590,
        "contract": "contracts/strategies/kassandra/KassandraIndexStrategyK3C.sol:KassandraIndexStrategyK3C",
        "label": "nonces",
        "offset": 0,
        "slot": "5",
        "type": "t_mapping(t_address,t_uint256)"
      },
      {
        "astId": 7967,
        "contract": "contracts/strategies/kassandra/KassandraIndexStrategyK3C.sol:KassandraIndexStrategyK3C",
        "label": "_owner",
        "offset": 0,
        "slot": "6",
        "type": "t_address"
      },
      {
        "astId": 8080,
        "contract": "contracts/strategies/kassandra/KassandraIndexStrategyK3C.sol:KassandraIndexStrategyK3C",
        "label": "numberOfAllowedDepositors",
        "offset": 0,
        "slot": "7",
        "type": "t_uint256"
      },
      {
        "astId": 8084,
        "contract": "contracts/strategies/kassandra/KassandraIndexStrategyK3C.sol:KassandraIndexStrategyK3C",
        "label": "allowedDepositors",
        "offset": 0,
        "slot": "8",
        "type": "t_mapping(t_address,t_bool)"
      },
      {
        "astId": 1965,
        "contract": "contracts/strategies/kassandra/KassandraIndexStrategyK3C.sol:KassandraIndexStrategyK3C",
        "label": "depositToken",
        "offset": 0,
        "slot": "9",
        "type": "t_contract(IERC20)5314"
      },
      {
        "astId": 1968,
        "contract": "contracts/strategies/kassandra/KassandraIndexStrategyK3C.sol:KassandraIndexStrategyK3C",
        "label": "rewardToken",
        "offset": 0,
        "slot": "10",
        "type": "t_contract(IERC20)5314"
      },
      {
        "astId": 1970,
        "contract": "contracts/strategies/kassandra/KassandraIndexStrategyK3C.sol:KassandraIndexStrategyK3C",
        "label": "devAddr",
        "offset": 0,
        "slot": "11",
        "type": "t_address"
      },
      {
        "astId": 1972,
        "contract": "contracts/strategies/kassandra/KassandraIndexStrategyK3C.sol:KassandraIndexStrategyK3C",
        "label": "MIN_TOKENS_TO_REINVEST",
        "offset": 0,
        "slot": "12",
        "type": "t_uint256"
      },
      {
        "astId": 1974,
        "contract": "contracts/strategies/kassandra/KassandraIndexStrategyK3C.sol:KassandraIndexStrategyK3C",
        "label": "MAX_TOKENS_TO_DEPOSIT_WITHOUT_REINVEST",
        "offset": 0,
        "slot": "13",
        "type": "t_uint256"
      },
      {
        "astId": 1976,
        "contract": "contracts/strategies/kassandra/KassandraIndexStrategyK3C.sol:KassandraIndexStrategyK3C",
        "label": "DEPOSITS_ENABLED",
        "offset": 0,
        "slot": "14",
        "type": "t_bool"
      },
      {
        "astId": 1978,
        "contract": "contracts/strategies/kassandra/KassandraIndexStrategyK3C.sol:KassandraIndexStrategyK3C",
        "label": "ADMIN_FEE_BIPS",
        "offset": 0,
        "slot": "15",
        "type": "t_uint256"
      },
      {
        "astId": 1980,
        "contract": "contracts/strategies/kassandra/KassandraIndexStrategyK3C.sol:KassandraIndexStrategyK3C",
        "label": "REINVEST_REWARD_BIPS",
        "offset": 0,
        "slot": "16",
        "type": "t_uint256"
      },
      {
        "astId": 1982,
        "contract": "contracts/strategies/kassandra/KassandraIndexStrategyK3C.sol:KassandraIndexStrategyK3C",
        "label": "DEV_FEE_BIPS",
        "offset": 0,
        "slot": "17",
        "type": "t_uint256"
      },
      {
        "astId": 8786,
        "contract": "contracts/strategies/kassandra/KassandraIndexStrategyK3C.sol:KassandraIndexStrategyK3C",
        "label": "poolRewardToken",
        "offset": 0,
        "slot": "18",
        "type": "t_address"
      },
      {
        "astId": 8789,
        "contract": "contracts/strategies/kassandra/KassandraIndexStrategyK3C.sol:KassandraIndexStrategyK3C",
        "label": "swapPairPoolReward",
        "offset": 0,
        "slot": "19",
        "type": "t_contract(IPair)5473"
      },
      {
        "astId": 8791,
        "contract": "contracts/strategies/kassandra/KassandraIndexStrategyK3C.sol:KassandraIndexStrategyK3C",
        "label": "swapPairExtraReward",
        "offset": 0,
        "slot": "20",
        "type": "t_address"
      },
      {
        "astId": 8793,
        "contract": "contracts/strategies/kassandra/KassandraIndexStrategyK3C.sol:KassandraIndexStrategyK3C",
        "label": "extraToken",
        "offset": 0,
        "slot": "21",
        "type": "t_address"
      },
      {
        "astId": 34806,
        "contract": "contracts/strategies/kassandra/KassandraIndexStrategyK3C.sol:KassandraIndexStrategyK3C",
        "label": "stakingContract",
        "offset": 0,
        "slot": "22",
        "type": "t_contract(IKassandraStaking)35344"
      },
      {
        "astId": 34809,
        "contract": "contracts/strategies/kassandra/KassandraIndexStrategyK3C.sol:KassandraIndexStrategyK3C",
        "label": "kassandraPool",
        "offset": 0,
        "slot": "23",
        "type": "t_contract(IKassandraPool)35295"
      }
    ],
    "types": {
      "t_address": {
        "encoding": "inplace",
        "label": "address",
        "numberOfBytes": "20"
      },
      "t_bool": {
        "encoding": "inplace",
        "label": "bool",
        "numberOfBytes": "1"
      },
      "t_contract(IERC20)5314": {
        "encoding": "inplace",
        "label": "contract IERC20",
        "numberOfBytes": "20"
      },
      "t_contract(IKassandraPool)35295": {
        "encoding": "inplace",
        "label": "contract IKassandraPool",
        "numberOfBytes": "20"
      },
      "t_contract(IKassandraStaking)35344": {
        "encoding": "inplace",
        "label": "contract IKassandraStaking",
        "numberOfBytes": "20"
      },
      "t_contract(IPair)5473": {
        "encoding": "inplace",
        "label": "contract IPair",
        "numberOfBytes": "20"
      },
      "t_mapping(t_address,t_bool)": {
        "encoding": "mapping",
        "key": "t_address",
        "label": "mapping(address => bool)",
        "numberOfBytes": "32",
        "value": "t_bool"
      },
      "t_mapping(t_address,t_mapping(t_address,t_uint256))": {
        "encoding": "mapping",
        "key": "t_address",
        "label": "mapping(address => mapping(address => uint256))",
        "numberOfBytes": "32",
        "value": "t_mapping(t_address,t_uint256)"
      },
      "t_mapping(t_address,t_uint256)": {
        "encoding": "mapping",
        "key": "t_address",
        "label": "mapping(address => uint256)",
        "numberOfBytes": "32",
        "value": "t_uint256"
      },
      "t_string_storage": {
        "encoding": "bytes",
        "label": "string",
        "numberOfBytes": "32"
      },
      "t_uint256": {
        "encoding": "inplace",
        "label": "uint256",
        "numberOfBytes": "32"
      }
    }
  }
}