{
  "address": "0x47c5c66BE853CC973b64c9487303d69eB146328f",
  "abi": [
    {
      "inputs": [
        {
          "internalType": "string",
          "name": "_name",
          "type": "string"
        },
        {
          "internalType": "address",
          "name": "_depositToken",
          "type": "address"
        },
        {
          "internalType": "address",
          "name": "_rewardToken",
          "type": "address"
        },
        {
          "internalType": "address",
          "name": "_poolRewardToken",
          "type": "address"
        },
        {
          "components": [
            {
              "internalType": "address",
              "name": "poolReward",
              "type": "address"
            },
            {
              "internalType": "address",
              "name": "extraReward",
              "type": "address"
            },
            {
              "internalType": "address",
              "name": "token0",
              "type": "address"
            },
            {
              "internalType": "address",
              "name": "token1",
              "type": "address"
            }
          ],
          "internalType": "struct MasterChefStrategyForLP.SwapPairs",
          "name": "_swapPairs",
          "type": "tuple"
        },
        {
          "internalType": "address",
          "name": "_stakingContract",
          "type": "address"
        },
        {
          "internalType": "uint256",
          "name": "_pid",
          "type": "uint256"
        },
        {
          "internalType": "address",
          "name": "_timelock",
          "type": "address"
        },
        {
          "components": [
            {
              "internalType": "uint256",
              "name": "minTokensToReinvest",
              "type": "uint256"
            },
            {
              "internalType": "uint256",
              "name": "adminFeeBips",
              "type": "uint256"
            },
            {
              "internalType": "uint256",
              "name": "devFeeBips",
              "type": "uint256"
            },
            {
              "internalType": "uint256",
              "name": "reinvestRewardBips",
              "type": "uint256"
            }
          ],
          "internalType": "struct MasterChefStrategy.StrategySettings",
          "name": "_strategySettings",
          "type": "tuple"
        }
      ],
      "stateMutability": "nonpayable",
      "type": "constructor"
    },
    {
      "anonymous": false,
      "inputs": [
        {
          "indexed": true,
          "internalType": "address",
          "name": "account",
          "type": "address"
        }
      ],
      "name": "AllowDepositor",
      "type": "event"
    },
    {
      "anonymous": false,
      "inputs": [
        {
          "indexed": true,
          "internalType": "address",
          "name": "owner",
          "type": "address"
        },
        {
          "indexed": true,
          "internalType": "address",
          "name": "spender",
          "type": "address"
        },
        {
          "indexed": false,
          "internalType": "uint256",
          "name": "value",
          "type": "uint256"
        }
      ],
      "name": "Approval",
      "type": "event"
    },
    {
      "anonymous": false,
      "inputs": [
        {
          "indexed": true,
          "internalType": "address",
          "name": "account",
          "type": "address"
        },
        {
          "indexed": false,
          "internalType": "uint256",
          "name": "amount",
          "type": "uint256"
        }
      ],
      "name": "Deposit",
      "type": "event"
    },
    {
      "anonymous": false,
      "inputs": [
        {
          "indexed": false,
          "internalType": "bool",
          "name": "newValue",
          "type": "bool"
        }
      ],
      "name": "DepositsEnabled",
      "type": "event"
    },
    {
      "anonymous": false,
      "inputs": [
        {
          "indexed": true,
          "internalType": "address",
          "name": "previousOwner",
          "type": "address"
        },
        {
          "indexed": true,
          "internalType": "address",
          "name": "newOwner",
          "type": "address"
        }
      ],
      "name": "OwnershipTransferred",
      "type": "event"
    },
    {
      "anonymous": false,
      "inputs": [
        {
          "indexed": false,
          "internalType": "address",
          "name": "token",
          "type": "address"
        },
        {
          "indexed": false,
          "internalType": "uint256",
          "name": "amount",
          "type": "uint256"
        }
      ],
      "name": "Recovered",
      "type": "event"
    },
    {
      "anonymous": false,
      "inputs": [
        {
          "indexed": false,
          "internalType": "uint256",
          "name": "newTotalDeposits",
          "type": "uint256"
        },
        {
          "indexed": false,
          "internalType": "uint256",
          "name": "newTotalSupply",
          "type": "uint256"
        }
      ],
      "name": "Reinvest",
      "type": "event"
    },
    {
      "anonymous": false,
      "inputs": [
        {
          "indexed": true,
          "internalType": "address",
          "name": "account",
          "type": "address"
        }
      ],
      "name": "RemoveDepositor",
      "type": "event"
    },
    {
      "anonymous": false,
      "inputs": [
        {
          "indexed": true,
          "internalType": "address",
          "name": "from",
          "type": "address"
        },
        {
          "indexed": true,
          "internalType": "address",
          "name": "to",
          "type": "address"
        },
        {
          "indexed": false,
          "internalType": "uint256",
          "name": "value",
          "type": "uint256"
        }
      ],
      "name": "Transfer",
      "type": "event"
    },
    {
      "anonymous": false,
      "inputs": [
        {
          "indexed": false,
          "internalType": "uint256",
          "name": "oldValue",
          "type": "uint256"
        },
        {
          "indexed": false,
          "internalType": "uint256",
          "name": "newValue",
          "type": "uint256"
        }
      ],
      "name": "UpdateAdminFee",
      "type": "event"
    },
    {
      "anonymous": false,
      "inputs": [
        {
          "indexed": false,
          "internalType": "address",
          "name": "oldValue",
          "type": "address"
        },
        {
          "indexed": false,
          "internalType": "address",
          "name": "newValue",
          "type": "address"
        }
      ],
      "name": "UpdateDevAddr",
      "type": "event"
    },
    {
      "anonymous": false,
      "inputs": [
        {
          "indexed": false,
          "internalType": "uint256",
          "name": "oldValue",
          "type": "uint256"
        },
        {
          "indexed": false,
          "internalType": "uint256",
          "name": "newValue",
          "type": "uint256"
        }
      ],
      "name": "UpdateDevFee",
      "type": "event"
    },
    {
      "anonymous": false,
      "inputs": [
        {
          "indexed": false,
          "internalType": "uint256",
          "name": "oldValue",
          "type": "uint256"
        },
        {
          "indexed": false,
          "internalType": "uint256",
          "name": "newValue",
          "type": "uint256"
        }
      ],
      "name": "UpdateMaxTokensToDepositWithoutReinvest",
      "type": "event"
    },
    {
      "anonymous": false,
      "inputs": [
        {
          "indexed": false,
          "internalType": "uint256",
          "name": "oldValue",
          "type": "uint256"
        },
        {
          "indexed": false,
          "internalType": "uint256",
          "name": "newValue",
          "type": "uint256"
        }
      ],
      "name": "UpdateMinTokensToReinvest",
      "type": "event"
    },
    {
      "anonymous": false,
      "inputs": [
        {
          "indexed": false,
          "internalType": "uint256",
          "name": "oldValue",
          "type": "uint256"
        },
        {
          "indexed": false,
          "internalType": "uint256",
          "name": "newValue",
          "type": "uint256"
        }
      ],
      "name": "UpdateReinvestReward",
      "type": "event"
    },
    {
      "anonymous": false,
      "inputs": [
        {
          "indexed": true,
          "internalType": "address",
          "name": "account",
          "type": "address"
        },
        {
          "indexed": false,
          "internalType": "uint256",
          "name": "amount",
          "type": "uint256"
        }
      ],
      "name": "Withdraw",
      "type": "event"
    },
    {
      "inputs": [],
      "name": "ADMIN_FEE_BIPS",
      "outputs": [
        {
          "internalType": "uint256",
          "name": "",
          "type": "uint256"
        }
      ],
      "stateMutability": "view",
      "type": "function"
    },
    {
      "inputs": [],
      "name": "DEPOSITS_ENABLED",
      "outputs": [
        {
          "internalType": "bool",
          "name": "",
          "type": "bool"
        }
      ],
      "stateMutability": "view",
      "type": "function"
    },
    {
      "inputs": [],
      "name": "DEV_FEE_BIPS",
      "outputs": [
        {
          "internalType": "uint256",
          "name": "",
          "type": "uint256"
        }
      ],
      "stateMutability": "view",
      "type": "function"
    },
    {
      "inputs": [],
      "name": "DOMAIN_TYPEHASH",
      "outputs": [
        {
          "internalType": "bytes32",
          "name": "",
          "type": "bytes32"
        }
      ],
      "stateMutability": "view",
      "type": "function"
    },
    {
      "inputs": [],
      "name": "MAX_TOKENS_TO_DEPOSIT_WITHOUT_REINVEST",
      "outputs": [
        {
          "internalType": "uint256",
          "name": "",
          "type": "uint256"
        }
      ],
      "stateMutability": "view",
      "type": "function"
    },
    {
      "inputs": [],
      "name": "MIN_TOKENS_TO_REINVEST",
      "outputs": [
        {
          "internalType": "uint256",
          "name": "",
          "type": "uint256"
        }
      ],
      "stateMutability": "view",
      "type": "function"
    },
    {
      "inputs": [],
      "name": "PERMIT_TYPEHASH",
      "outputs": [
        {
          "internalType": "bytes32",
          "name": "",
          "type": "bytes32"
        }
      ],
      "stateMutability": "view",
      "type": "function"
    },
    {
      "inputs": [],
      "name": "PID",
      "outputs": [
        {
          "internalType": "uint256",
          "name": "",
          "type": "uint256"
        }
      ],
      "stateMutability": "view",
      "type": "function"
    },
    {
      "inputs": [],
      "name": "REINVEST_REWARD_BIPS",
      "outputs": [
        {
          "internalType": "uint256",
          "name": "",
          "type": "uint256"
        }
      ],
      "stateMutability": "view",
      "type": "function"
    },
    {
      "inputs": [],
      "name": "VERSION_HASH",
      "outputs": [
        {
          "internalType": "bytes32",
          "name": "",
          "type": "bytes32"
        }
      ],
      "stateMutability": "view",
      "type": "function"
    },
    {
      "inputs": [
        {
          "internalType": "address",
          "name": "depositor",
          "type": "address"
        }
      ],
      "name": "allowDepositor",
      "outputs": [],
      "stateMutability": "nonpayable",
      "type": "function"
    },
    {
      "inputs": [
        {
          "internalType": "address",
          "name": "account",
          "type": "address"
        },
        {
          "internalType": "address",
          "name": "spender",
          "type": "address"
        }
      ],
      "name": "allowance",
      "outputs": [
        {
          "internalType": "uint256",
          "name": "",
          "type": "uint256"
        }
      ],
      "stateMutability": "view",
      "type": "function"
    },
    {
      "inputs": [
        {
          "internalType": "address",
          "name": "",
          "type": "address"
        }
      ],
      "name": "allowedDepositors",
      "outputs": [
        {
          "internalType": "bool",
          "name": "",
          "type": "bool"
        }
      ],
      "stateMutability": "view",
      "type": "function"
    },
    {
      "inputs": [
        {
          "internalType": "address",
          "name": "spender",
          "type": "address"
        },
        {
          "internalType": "uint256",
          "name": "amount",
          "type": "uint256"
        }
      ],
      "name": "approve",
      "outputs": [
        {
          "internalType": "bool",
          "name": "",
          "type": "bool"
        }
      ],
      "stateMutability": "nonpayable",
      "type": "function"
    },
    {
      "inputs": [
        {
          "internalType": "address",
          "name": "account",
          "type": "address"
        }
      ],
      "name": "balanceOf",
      "outputs": [
        {
          "internalType": "uint256",
          "name": "",
          "type": "uint256"
        }
      ],
      "stateMutability": "view",
      "type": "function"
    },
    {
      "inputs": [],
      "name": "checkReward",
      "outputs": [
        {
          "internalType": "uint256",
          "name": "",
          "type": "uint256"
        }
      ],
      "stateMutability": "view",
      "type": "function"
    },
    {
      "inputs": [],
      "name": "decimals",
      "outputs": [
        {
          "internalType": "uint8",
          "name": "",
          "type": "uint8"
        }
      ],
      "stateMutability": "view",
      "type": "function"
    },
    {
      "inputs": [
        {
          "internalType": "uint256",
          "name": "amount",
          "type": "uint256"
        }
      ],
      "name": "deposit",
      "outputs": [],
      "stateMutability": "nonpayable",
      "type": "function"
    },
    {
      "inputs": [
        {
          "internalType": "address",
          "name": "account",
          "type": "address"
        },
        {
          "internalType": "uint256",
          "name": "amount",
          "type": "uint256"
        }
      ],
      "name": "depositFor",
      "outputs": [],
      "stateMutability": "nonpayable",
      "type": "function"
    },
    {
      "inputs": [],
      "name": "depositToken",
      "outputs": [
        {
          "internalType": "contract IERC20",
          "name": "",
          "type": "address"
        }
      ],
      "stateMutability": "view",
      "type": "function"
    },
    {
      "inputs": [
        {
          "internalType": "uint256",
          "name": "amount",
          "type": "uint256"
        },
        {
          "internalType": "uint256",
          "name": "deadline",
          "type": "uint256"
        },
        {
          "internalType": "uint8",
          "name": "v",
          "type": "uint8"
        },
        {
          "internalType": "bytes32",
          "name": "r",
          "type": "bytes32"
        },
        {
          "internalType": "bytes32",
          "name": "s",
          "type": "bytes32"
        }
      ],
      "name": "depositWithPermit",
      "outputs": [],
      "stateMutability": "nonpayable",
      "type": "function"
    },
    {
      "inputs": [],
      "name": "devAddr",
      "outputs": [
        {
          "internalType": "address",
          "name": "",
          "type": "address"
        }
      ],
      "stateMutability": "view",
      "type": "function"
    },
    {
      "inputs": [],
      "name": "estimateDeployedBalance",
      "outputs": [
        {
          "internalType": "uint256",
          "name": "",
          "type": "uint256"
        }
      ],
      "stateMutability": "view",
      "type": "function"
    },
    {
      "inputs": [],
      "name": "estimateReinvestReward",
      "outputs": [
        {
          "internalType": "uint256",
          "name": "",
          "type": "uint256"
        }
      ],
      "stateMutability": "view",
      "type": "function"
    },
    {
      "inputs": [],
      "name": "extraToken",
      "outputs": [
        {
          "internalType": "address",
          "name": "",
          "type": "address"
        }
      ],
      "stateMutability": "view",
      "type": "function"
    },
    {
      "inputs": [
        {
          "internalType": "uint256",
          "name": "amount",
          "type": "uint256"
        }
      ],
      "name": "getDepositTokensForShares",
      "outputs": [
        {
          "internalType": "uint256",
          "name": "",
          "type": "uint256"
        }
      ],
      "stateMutability": "view",
      "type": "function"
    },
    {
      "inputs": [],
      "name": "getDomainSeparator",
      "outputs": [
        {
          "internalType": "bytes32",
          "name": "",
          "type": "bytes32"
        }
      ],
      "stateMutability": "view",
      "type": "function"
    },
    {
      "inputs": [
        {
          "internalType": "uint256",
          "name": "amount",
          "type": "uint256"
        }
      ],
      "name": "getSharesForDepositTokens",
      "outputs": [
        {
          "internalType": "uint256",
          "name": "",
          "type": "uint256"
        }
      ],
      "stateMutability": "view",
      "type": "function"
    },
    {
      "inputs": [],
      "name": "name",
      "outputs": [
        {
          "internalType": "string",
          "name": "",
          "type": "string"
        }
      ],
      "stateMutability": "view",
      "type": "function"
    },
    {
      "inputs": [
        {
          "internalType": "address",
          "name": "",
          "type": "address"
        }
      ],
      "name": "nonces",
      "outputs": [
        {
          "internalType": "uint256",
          "name": "",
          "type": "uint256"
        }
      ],
      "stateMutability": "view",
      "type": "function"
    },
    {
      "inputs": [],
      "name": "numberOfAllowedDepositors",
      "outputs": [
        {
          "internalType": "uint256",
          "name": "",
          "type": "uint256"
        }
      ],
      "stateMutability": "view",
      "type": "function"
    },
    {
      "inputs": [],
      "name": "owner",
      "outputs": [
        {
          "internalType": "address",
          "name": "",
          "type": "address"
        }
      ],
      "stateMutability": "view",
      "type": "function"
    },
    {
      "inputs": [
        {
          "internalType": "address",
          "name": "owner",
          "type": "address"
        },
        {
          "internalType": "address",
          "name": "spender",
          "type": "address"
        },
        {
          "internalType": "uint256",
          "name": "value",
          "type": "uint256"
        },
        {
          "internalType": "uint256",
          "name": "deadline",
          "type": "uint256"
        },
        {
          "internalType": "uint8",
          "name": "v",
          "type": "uint8"
        },
        {
          "internalType": "bytes32",
          "name": "r",
          "type": "bytes32"
        },
        {
          "internalType": "bytes32",
          "name": "s",
          "type": "bytes32"
        }
      ],
      "name": "permit",
      "outputs": [],
      "stateMutability": "nonpayable",
      "type": "function"
    },
    {
      "inputs": [
        {
          "internalType": "uint256",
          "name": "amount",
          "type": "uint256"
        }
      ],
      "name": "recoverAVAX",
      "outputs": [],
      "stateMutability": "nonpayable",
      "type": "function"
    },
    {
      "inputs": [
        {
          "internalType": "address",
          "name": "tokenAddress",
          "type": "address"
        },
        {
          "internalType": "uint256",
          "name": "tokenAmount",
          "type": "uint256"
        }
      ],
      "name": "recoverERC20",
      "outputs": [],
      "stateMutability": "nonpayable",
      "type": "function"
    },
    {
      "inputs": [],
      "name": "reinvest",
      "outputs": [],
      "stateMutability": "nonpayable",
      "type": "function"
    },
    {
      "inputs": [
        {
          "internalType": "address",
          "name": "depositor",
          "type": "address"
        }
      ],
      "name": "removeDepositor",
      "outputs": [],
      "stateMutability": "nonpayable",
      "type": "function"
    },
    {
      "inputs": [],
      "name": "renounceOwnership",
      "outputs": [],
      "stateMutability": "nonpayable",
      "type": "function"
    },
    {
      "inputs": [
        {
          "internalType": "uint256",
          "name": "minReturnAmountAccepted",
          "type": "uint256"
        },
        {
          "internalType": "bool",
          "name": "disableDeposits",
          "type": "bool"
        }
      ],
      "name": "rescueDeployedFunds",
      "outputs": [],
      "stateMutability": "nonpayable",
      "type": "function"
    },
    {
      "inputs": [
        {
          "internalType": "address",
          "name": "token",
          "type": "address"
        },
        {
          "internalType": "address",
          "name": "spender",
          "type": "address"
        }
      ],
      "name": "revokeAllowance",
      "outputs": [],
      "stateMutability": "nonpayable",
      "type": "function"
    },
    {
      "inputs": [],
      "name": "rewardToken",
      "outputs": [
        {
          "internalType": "contract IERC20",
          "name": "",
          "type": "address"
        }
      ],
      "stateMutability": "view",
      "type": "function"
    },
    {
      "inputs": [],
      "name": "setAllowances",
      "outputs": [],
      "stateMutability": "nonpayable",
      "type": "function"
    },
    {
      "inputs": [
        {
          "internalType": "address",
          "name": "_extraTokenSwapPair",
          "type": "address"
        }
      ],
      "name": "setExtraRewardSwapPair",
      "outputs": [],
      "stateMutability": "nonpayable",
      "type": "function"
    },
    {
      "inputs": [],
      "name": "stakingContract",
      "outputs": [
        {
          "internalType": "contract IKassandraStaking",
          "name": "",
          "type": "address"
        }
      ],
      "stateMutability": "view",
      "type": "function"
    },
    {
      "inputs": [],
      "name": "swapPairExtraReward",
      "outputs": [
        {
          "internalType": "address",
          "name": "",
          "type": "address"
        }
      ],
      "stateMutability": "view",
      "type": "function"
    },
    {
      "inputs": [],
      "name": "symbol",
      "outputs": [
        {
          "internalType": "string",
          "name": "",
          "type": "string"
        }
      ],
      "stateMutability": "view",
      "type": "function"
    },
    {
      "inputs": [],
      "name": "totalDeposits",
      "outputs": [
        {
          "internalType": "uint256",
          "name": "",
          "type": "uint256"
        }
      ],
      "stateMutability": "view",
      "type": "function"
    },
    {
      "inputs": [],
      "name": "totalSupply",
      "outputs": [
        {
          "internalType": "uint256",
          "name": "",
          "type": "uint256"
        }
      ],
      "stateMutability": "view",
      "type": "function"
    },
    {
      "inputs": [
        {
          "internalType": "address",
          "name": "dst",
          "type": "address"
        },
        {
          "internalType": "uint256",
          "name": "amount",
          "type": "uint256"
        }
      ],
      "name": "transfer",
      "outputs": [
        {
          "internalType": "bool",
          "name": "",
          "type": "bool"
        }
      ],
      "stateMutability": "nonpayable",
      "type": "function"
    },
    {
      "inputs": [
        {
          "internalType": "address",
          "name": "src",
          "type": "address"
        },
        {
          "internalType": "address",
          "name": "dst",
          "type": "address"
        },
        {
          "internalType": "uint256",
          "name": "amount",
          "type": "uint256"
        }
      ],
      "name": "transferFrom",
      "outputs": [
        {
          "internalType": "bool",
          "name": "",
          "type": "bool"
        }
      ],
      "stateMutability": "nonpayable",
      "type": "function"
    },
    {
      "inputs": [
        {
          "internalType": "address",
          "name": "newOwner",
          "type": "address"
        }
      ],
      "name": "transferOwnership",
      "outputs": [],
      "stateMutability": "nonpayable",
      "type": "function"
    },
    {
      "inputs": [
        {
          "internalType": "uint256",
          "name": "newValue",
          "type": "uint256"
        }
      ],
      "name": "updateAdminFee",
      "outputs": [],
      "stateMutability": "nonpayable",
      "type": "function"
    },
    {
      "inputs": [
        {
          "internalType": "bool",
          "name": "newValue",
          "type": "bool"
        }
      ],
      "name": "updateDepositsEnabled",
      "outputs": [],
      "stateMutability": "nonpayable",
      "type": "function"
    },
    {
      "inputs": [
        {
          "internalType": "address",
          "name": "newValue",
          "type": "address"
        }
      ],
      "name": "updateDevAddr",
      "outputs": [],
      "stateMutability": "nonpayable",
      "type": "function"
    },
    {
      "inputs": [
        {
          "internalType": "uint256",
          "name": "newValue",
          "type": "uint256"
        }
      ],
      "name": "updateDevFee",
      "outputs": [],
      "stateMutability": "nonpayable",
      "type": "function"
    },
    {
      "inputs": [
        {
          "internalType": "uint256",
          "name": "newValue",
          "type": "uint256"
        }
      ],
      "name": "updateMaxTokensToDepositWithoutReinvest",
      "outputs": [],
      "stateMutability": "nonpayable",
      "type": "function"
    },
    {
      "inputs": [
        {
          "internalType": "uint256",
          "name": "newValue",
          "type": "uint256"
        }
      ],
      "name": "updateMinTokensToReinvest",
      "outputs": [],
      "stateMutability": "nonpayable",
      "type": "function"
    },
    {
      "inputs": [
        {
          "internalType": "uint256",
          "name": "newValue",
          "type": "uint256"
        }
      ],
      "name": "updateReinvestReward",
      "outputs": [],
      "stateMutability": "nonpayable",
      "type": "function"
    },
    {
      "inputs": [
        {
          "internalType": "uint256",
          "name": "amount",
          "type": "uint256"
        }
      ],
      "name": "withdraw",
      "outputs": [],
      "stateMutability": "nonpayable",
      "type": "function"
    }
  ],
  "transactionHash": "0x7a69dafd3368753a448fa9e5f0a5b74415b374f4b6901629daa975aa266cae07",
  "args": [
    "Yield Yak: Kassandra x Pangolin KACY-AVAX",
    "0x1938ce0e14dd71caab96f52df3f49b1d1daf8861",
    "0xB31f66AA3C1e785363F0875A1B74E27b85FD66c7",
    "0xf32398dae246c5f672b52a54e9b413dffcae1a44",
    {
      "poolReward": "0x1938ce0e14dd71caab96f52df3f49b1d1daf8861",
      "extraReward": "0x0000000000000000000000000000000000000000",
      "token0": "0x0000000000000000000000000000000000000000",
      "token1": "0x1938ce0e14dd71caab96f52df3f49b1d1daf8861"
    },
    "0xfddc1956d88a34fcb0671508fa3d5aac73b2a031",
    "5",
    "0x302404cb8F34713A8B8DBF9b4989A41252332068",
    {
      "minTokensToReinvest": "10000000000000000",
      "adminFeeBips": 0,
      "devFeeBips": 900,
      "reinvestRewardBips": 100
    }
  ],
  "solcInputHash": "1480d1537f2ae92bc54a4cf807e3fe56",
  "bytecode": "0x60e0604052600960a0819052685969656c642059616b60b81b60c09081526200002c916000919062001633565b506040805180820190915260038082526216549560ea1b6020909201918252620000599160019162001633565b503480156200006757600080fd5b506040516200616b3803806200616b8339810160408190526200008a91620017eb565b888888888886888787878787876000015188602001518888886000620000b56200025860201b60201c565b600680546001600160a01b0319166001600160a01b038316908117909155604051919250906000906000805160206200614b833981519152908290a3508851620001079060009060208c019062001633565b50600980546001600160a01b03808b166001600160a01b031992831617909255600a8054928a16928216929092179091556080839052600b8054909116732d580f9cf2fb2d09bc411532988f2afda4e7beff179055620001698787876200025c565b6200017484620004d8565b80516200018190620006ed565b6020810151620001919062000775565b6040810151620001a19062000843565b6060810151620001b190620008fd565b620001bd6001620009b7565b620001c88362000a5f565b7fc7606d21ac05cd309191543e409f0845c016120563783d70e4f41419dc0ef234600080604051620001fc92919062001939565b60405180910390a15050505050505050506200022084878762000b1960201b60201c565b5050601880546001600160a01b0319166001600160a01b039b909b169a909a179099555062001cd39c50505050505050505050505050565b3390565b826001600160a01b0316826001600160a01b031614620004a957806001600160a01b0316630dfe16816040518163ffffffff1660e01b815260040160206040518083038186803b158015620002b057600080fd5b505afa158015620002c5573d6000803e3d6000fd5b505050506040513d601f19601f82011682018060405250810190620002eb9190620017ce565b6001600160a01b0316826001600160a01b03161415620003bc57826001600160a01b0316816001600160a01b031663d21220a76040518163ffffffff1660e01b815260040160206040518083038186803b1580156200034957600080fd5b505afa1580156200035e573d6000803e3d6000fd5b505050506040513d601f19601f82011682018060405250810190620003849190620017ce565b6001600160a01b031614620003b65760405162461bcd60e51b8152600401620003ad9062001a77565b60405180910390fd5b620004a9565b806001600160a01b031663d21220a76040518163ffffffff1660e01b815260040160206040518083038186803b158015620003f657600080fd5b505afa1580156200040b573d6000803e3d6000fd5b505050506040513d601f19601f82011682018060405250810190620004319190620017ce565b6001600160a01b0316826001600160a01b031614156200048f57826001600160a01b0316816001600160a01b0316630dfe16816040518163ffffffff1660e01b815260040160206040518083038186803b1580156200034957600080fd5b60405162461bcd60e51b8152600401620003ad90620019c4565b601280546001600160a01b039384166001600160a01b0319918216179091556013805492909316911617905550565b6001600160a01b03811615620006cd57600a5460408051630dfe168160e01b815290516001600160a01b0392831692841691630dfe1681916004808301926020929190829003018186803b1580156200053057600080fd5b505afa15801562000545573d6000803e3d6000fd5b505050506040513d601f19601f820116820180604052508101906200056b9190620017ce565b6001600160a01b031614156200061657806001600160a01b031663d21220a76040518163ffffffff1660e01b815260040160206040518083038186803b158015620005b557600080fd5b505afa158015620005ca573d6000803e3d6000fd5b505050506040513d601f19601f82011682018060405250810190620005f09190620017ce565b601580546001600160a01b0319166001600160a01b0392909216919091179055620006ac565b806001600160a01b0316630dfe16816040518163ffffffff1660e01b815260040160206040518083038186803b1580156200065057600080fd5b505afa15801562000665573d6000803e3d6000fd5b505050506040513d601f19601f820116820180604052508101906200068b9190620017ce565b601580546001600160a01b0319166001600160a01b03929092169190911790555b601480546001600160a01b0319166001600160a01b038316179055620006ea565b601480546001600160a01b03199081169091556015805490911690555b50565b620006f762000258565b6001600160a01b03166200070a620015f5565b6001600160a01b031614620007335760405162461bcd60e51b8152600401620003ad9062001b77565b7f481f79ac3a523b6d6db3c5a720e190e986d1cc1b41adcdf50f9caef849901100600c54826040516200076892919062001939565b60405180910390a1600c55565b6200077f62000258565b6001600160a01b031662000792620015f5565b6001600160a01b031614620007bb5760405162461bcd60e51b8152600401620003ad9062001b77565b612710620007f5600f54620007e1601154856200160460201b62001bbc1790919060201c565b6200160460201b62001bbc1790919060201c565b11156200080157600080fd5b7f3cc372f330f95ac9540626dc8a25f5bf21ba607215a5d58304cb804d446f104a601054826040516200083692919062001939565b60405180910390a1601055565b6200084d62000258565b6001600160a01b031662000860620015f5565b6001600160a01b031614620008895760405162461bcd60e51b8152600401620003ad9062001b77565b612710620008af600f54620007e1601054856200160460201b62001bbc1790919060201c565b1115620008bb57600080fd5b7f2a42303d002f0ba6cfe8259c91d4684443fb0b3de286ba74991175d65172613160115482604051620008f092919062001939565b60405180910390a1601155565b6200090762000258565b6001600160a01b03166200091a620015f5565b6001600160a01b031614620009435760405162461bcd60e51b8152600401620003ad9062001b77565b61271062000969601154620007e1601054856200160460201b62001bbc1790919060201c565b11156200097557600080fd5b7fe7f97d51d307dc44045597c9978bec0f842e6bb40d19b9444084cfa30d9ed4f2600f5482604051620009aa92919062001939565b60405180910390a1600f55565b620009c162000258565b6001600160a01b0316620009d4620015f5565b6001600160a01b031614620009fd5760405162461bcd60e51b8152600401620003ad9062001b77565b600e5460ff161515811515141562000a1457600080fd5b600e805460ff19168215151790556040517f7b014ed3854e7f5cb0218d58b3c6ae7d53a68bb0af2f67bfb029ea42c38a7e859062000a549083906200192e565b60405180910390a150565b62000a6962000258565b6001600160a01b031662000a7c620015f5565b6001600160a01b03161462000aa55760405162461bcd60e51b8152600401620003ad9062001b77565b6001600160a01b03811662000ace5760405162461bcd60e51b8152600401620003ad9062001947565b6006546040516001600160a01b038084169216906000805160206200614b83398151915290600090a3600680546001600160a01b0319166001600160a01b0392909216919091179055565b600960009054906101000a90046001600160a01b03166001600160a01b0316630dfe16816040518163ffffffff1660e01b815260040160206040518083038186803b15801562000b6857600080fd5b505afa15801562000b7d573d6000803e3d6000fd5b505050506040513d601f19601f8201168201806040525081019062000ba39190620017ce565b6001600160a01b0316826001600160a01b03161415801562000c605750600960009054906101000a90046001600160a01b03166001600160a01b031663d21220a76040518163ffffffff1660e01b815260040160206040518083038186803b15801562000c0f57600080fd5b505afa15801562000c24573d6000803e3d6000fd5b505050506040513d601f19601f8201168201806040525081019062000c4a9190620017ce565b6001600160a01b0316826001600160a01b031614155b156200131e5760408301516001600160a01b031662000c935760405162461bcd60e51b8152600401620003ad9062001b2e565b60608301516001600160a01b031662000cc05760405162461bcd60e51b8152600401620003ad9062001c09565b604083810151601680546001600160a01b03199081166001600160a01b0393841617918290556060870151601780549092169084161790558251630dfe168160e01b81529251858316939190921691630dfe168191600480820192602092909190829003018186803b15801562000d3657600080fd5b505afa15801562000d4b573d6000803e3d6000fd5b505050506040513d601f19601f8201168201806040525081019062000d719190620017ce565b6001600160a01b0316148062000e0f57506016546040805163d21220a760e01b815290516001600160a01b0380861693169163d21220a7916004808301926020929190829003018186803b15801562000dc957600080fd5b505afa15801562000dde573d6000803e3d6000fd5b505050506040513d601f19601f8201168201806040525081019062000e049190620017ce565b6001600160a01b0316145b62000e2e5760405162461bcd60e51b8152600401620003ad9062001ac3565b600960009054906101000a90046001600160a01b03166001600160a01b0316630dfe16816040518163ffffffff1660e01b815260040160206040518083038186803b15801562000e7d57600080fd5b505afa15801562000e92573d6000803e3d6000fd5b505050506040513d601f19601f8201168201806040525081019062000eb89190620017ce565b6001600160a01b0316601660009054906101000a90046001600160a01b03166001600160a01b0316630dfe16816040518163ffffffff1660e01b815260040160206040518083038186803b15801562000f1057600080fd5b505afa15801562000f25573d6000803e3d6000fd5b505050506040513d601f19601f8201168201806040525081019062000f4b9190620017ce565b6001600160a01b03161480620010845750600960009054906101000a90046001600160a01b03166001600160a01b0316630dfe16816040518163ffffffff1660e01b815260040160206040518083038186803b15801562000fab57600080fd5b505afa15801562000fc0573d6000803e3d6000fd5b505050506040513d601f19601f8201168201806040525081019062000fe69190620017ce565b6001600160a01b0316601660009054906101000a90046001600160a01b03166001600160a01b031663d21220a76040518163ffffffff1660e01b815260040160206040518083038186803b1580156200103e57600080fd5b505afa15801562001053573d6000803e3d6000fd5b505050506040513d601f19601f82011682018060405250810190620010799190620017ce565b6001600160a01b0316145b620010a35760405162461bcd60e51b8152600401620003ad9062001bac565b600960009054906101000a90046001600160a01b03166001600160a01b031663d21220a76040518163ffffffff1660e01b815260040160206040518083038186803b158015620010f257600080fd5b505afa15801562001107573d6000803e3d6000fd5b505050506040513d601f19601f820116820180604052508101906200112d9190620017ce565b6001600160a01b0316601760009054906101000a90046001600160a01b03166001600160a01b0316630dfe16816040518163ffffffff1660e01b815260040160206040518083038186803b1580156200118557600080fd5b505afa1580156200119a573d6000803e3d6000fd5b505050506040513d601f19601f82011682018060405250810190620011c09190620017ce565b6001600160a01b03161480620012f95750600960009054906101000a90046001600160a01b03166001600160a01b031663d21220a76040518163ffffffff1660e01b815260040160206040518083038186803b1580156200122057600080fd5b505afa15801562001235573d6000803e3d6000fd5b505050506040513d601f19601f820116820180604052508101906200125b9190620017ce565b6001600160a01b0316601760009054906101000a90046001600160a01b03166001600160a01b031663d21220a76040518163ffffffff1660e01b815260040160206040518083038186803b158015620012b357600080fd5b505afa158015620012c8573d6000803e3d6000fd5b505050506040513d601f19601f82011682018060405250810190620012ee9190620017ce565b6001600160a01b0316145b620013185760405162461bcd60e51b8152600401620003ad9062001c52565b620014b1565b600960009054906101000a90046001600160a01b03166001600160a01b0316630dfe16816040518163ffffffff1660e01b815260040160206040518083038186803b1580156200136d57600080fd5b505afa15801562001382573d6000803e3d6000fd5b505050506040513d601f19601f82011682018060405250810190620013a89190620017ce565b6001600160a01b0316826001600160a01b03161415620013ea57600954601780546001600160a01b0319166001600160a01b03909216919091179055620014b1565b600960009054906101000a90046001600160a01b03166001600160a01b031663d21220a76040518163ffffffff1660e01b815260040160206040518083038186803b1580156200143957600080fd5b505afa1580156200144e573d6000803e3d6000fd5b505050506040513d601f19601f82011682018060405250810190620014749190620017ce565b6001600160a01b0316826001600160a01b03161415620014b157600954601680546001600160a01b0319166001600160a01b039092169190911790555b82600001516001600160a01b0316630dfe16816040518163ffffffff1660e01b815260040160206040518083038186803b158015620014ef57600080fd5b505afa15801562001504573d6000803e3d6000fd5b505050506040513d601f19601f820116820180604052508101906200152a9190620017ce565b6001600160a01b0316816001600160a01b03161415620015f057816001600160a01b031683600001516001600160a01b031663d21220a76040518163ffffffff1660e01b815260040160206040518083038186803b1580156200158c57600080fd5b505afa158015620015a1573d6000803e3d6000fd5b505050506040513d601f19601f82011682018060405250810190620015c79190620017ce565b6001600160a01b031614620015f05760405162461bcd60e51b8152600401620003ad9062001a1a565b505050565b6006546001600160a01b031690565b6000828201838110156200162c5760405162461bcd60e51b8152600401620003ad906200198d565b9392505050565b828054600181600116156101000203166002900490600052602060002090601f016020900481019282601f106200167657805160ff1916838001178555620016a6565b82800160010185558215620016a6579182015b82811115620016a657825182559160200191906001019062001689565b50620016b4929150620016b8565b5090565b5b80821115620016b45760008155600101620016b9565b80516001600160a01b0381168114620016e757600080fd5b919050565b600060808284031215620016fe578081fd5b604051608081016001600160401b03811182821017156200171b57fe5b8060405250809150825181526020830151602082015260408301516040820152606083015160608201525092915050565b6000608082840312156200175e578081fd5b604051608081016001600160401b03811182821017156200177b57fe5b6040529050806200178c83620016cf565b81526200179c60208401620016cf565b6020820152620017af60408401620016cf565b6040820152620017c260608401620016cf565b60608201525092915050565b600060208284031215620017e0578081fd5b6200162c82620016cf565b60008060008060008060008060006101e08a8c0312156200180a578485fd5b89516001600160401b038082111562001821578687fd5b818c0191508c601f83011262001835578687fd5b8151818111156200184257fe5b602091506200185a601f8201601f1916830162001caf565b8181528e838386010111156200186e578889fd5b885b828110156200188d57848101840151828201850152830162001870565b828111156200189e57898484840101525b509b50620018b090508c8201620016cf565b99505050620018c260408b01620016cf565b9650620018d260608b01620016cf565b9550620018e38b60808c016200174c565b9450620018f46101008b01620016cf565b93506101208a015192506200190d6101408b01620016cf565b91506200191f8b6101608c01620016ec565b90509295985092959850929598565b901515815260200190565b918252602082015260400190565b60208082526026908201527f4f776e61626c653a206e6577206f776e657220697320746865207a65726f206160408201526564647265737360d01b606082015260800190565b6020808252601b908201527f536166654d6174683a206164646974696f6e206f766572666c6f770000000000604082015260600190565b60208082526041908201526000805160206200612b83398151915260408201527f6f6573206e6f7420636f6e7461696e20706f6f6c2072657761726420746f6b656060820152603760f91b608082015260a00190565b6020808252603a908201527f537761702070616972207377617050616972506f6f6c52657761726420646f6560408201527f73206e6f7420636f6e7461696e2072657761726420746f6b656e000000000000606082015260800190565b6020808252603f908201526000805160206200612b83398151915260408201527f6f6573206e6f7420636f6e7461696e2065636f73797374656d20746f6b656e00606082015260800190565b60208082526045908201527f53776170207061697220737570706c69656420646f6573206e6f74206861766560408201527f207468652072657761726420746f6b656e206173206f6e65206f662069742773606082015264103830b4b960d91b608082015260a00190565b60208082526029908201527f5377617020706169722030206973206e656365737361727920627574206e6f74604082015268081cdd5c1c1b1a595960ba1b606082015260800190565b6020808252818101527f4f776e61626c653a2063616c6c6572206973206e6f7420746865206f776e6572604082015260600190565b60208082526038908201527f537761702070616972203020737570706c69656420646f6573206e6f74206d6160408201527f74636820746865207061697220696e207175657374696f6e0000000000000000606082015260800190565b60208082526029908201527f5377617020706169722031206973206e656365737361727920627574206e6f74604082015268081cdd5c1c1b1a595960ba1b606082015260800190565b60208082526038908201527f537761702070616972203120737570706c69656420646f6573206e6f74206d6160408201527f74636820746865207061697220696e207175657374696f6e0000000000000000606082015260800190565b6040518181016001600160401b038111828210171562001ccb57fe5b604052919050565b60805161441062001d1b600039806107c0528061096f5280610d365280610ed7528061154f5280611e775280612138528061261852806129235280612bc452506144106000f3fe608060405234801561001057600080fd5b50600436106103995760003560e01c80638b73e606116101e9578063c4b24a461161010f578063dd8ce4d6116100ad578063ee99205c1161007c578063ee99205c146106d6578063f2fde38b146106de578063f7c618c1146106f1578063fdb5a03e146106f957610399565b8063dd8ce4d614610695578063e21ac825146106a8578063eab89a5a146106bb578063ed24911d146106ce57610399565b8063d505accf116100e9578063d505accf1461065f578063da09c72c14610672578063dbd9a4d41461067a578063dd62ed3e1461068257610399565b8063c4b24a461461063c578063c89039c514610644578063cff1b6ef1461064c57610399565b8063a1a4ddeb11610187578063b52a321f11610156578063b52a321f14610611578063b6b55f2514610619578063b9e57b801461062c578063bd079f551461063457610399565b8063a1a4ddeb146105d0578063a8ae2b7c146105d8578063a9059cbb146105eb578063ac0d31ff146105fe57610399565b80639291d563116101c35780639291d5631461059a57806395d89b41146105ad57806399729ec1146105b55780639e4e7318146105c857610399565b80638b73e6061461056a5780638da5cb5b1461057d578063909ac8f41461059257610399565b80634bebd1e7116102ce578063789139bc1161026c578063818372301161023b57806381837230146105295780638432e8941461053c5780638980f11f1461054f5780638aff733d1461056257610399565b8063789139bc146104f35780637ae26773146104fb5780637d8820971461050e5780637ecebe001461051657610399565b80635ea682ea116102a85780635ea682ea146104c85780635eaec0e4146104d057806370a08231146104d8578063715018a6146104eb57610399565b80634bebd1e71461048f5780634e77ace5146104a25780634ebb7916146104b557610399565b80632e1a7d4d1161033b578063313ce56711610315578063313ce5671461044c5780633bdc6e7214610461578063483c2ef0146104695780634a970be71461047c57610399565b80632e1a7d4d1461041c5780632f4f21e21461043157806330adf81f1461044457610399565b80630f23475d116103775780630f23475d146103f157806318160ddd146103f957806320606b701461040157806323b872dd1461040957610399565b806306fdde031461039e57806307677111146103bc578063095ea7b3146103d1575b600080fd5b6103a6610701565b6040516103b39190613ba1565b60405180910390f35b6103c461078f565b6040516103b39190613b1a565b6103e46103df366004613827565b610795565b6040516103b39190613b0f565b6103c46107ac565b6103c4610818565b6103c461081e565b6103e461041736600461377a565b610842565b61042f61042a3660046138d8565b610929565b005b61042f61043f366004613827565b610a16565b6103c4610a24565b610454610a48565b6040516103b391906142fe565b6103c4610a4d565b6103e461047736600461370a565b610a53565b61042f61048a36600461392c565b610a68565b61042f61049d36600461370a565b610b00565b61042f6104b0366004613852565b610be4565b61042f6104c33660046138d8565b610c82565b6103c4610d2e565b6103c4610d34565b6103c46104e636600461370a565b610d58565b61042f610d77565b6103c4610e00565b61042f610509366004613742565b610e06565b6103c4610ecf565b6103c461052436600461370a565b610f02565b61042f6105373660046138d8565b610f14565b61042f61054a36600461370a565b610f93565b61042f61055d366004613827565b610fc9565b6103c46110db565b61042f61057836600461370a565b6110e1565b6105856111e7565b6040516103b39190613a63565b6105856111f6565b61042f6105a836600461370a565b611205565b6103a6611298565b61042f6105c33660046138d8565b6112f2565b6103c46113a0565b6105856113c4565b61042f6105e63660046138d8565b6113d3565b6103e46105f9366004613827565b61147b565b61042f61060c366004613908565b611488565b6103e461168f565b61042f6106273660046138d8565b611698565b6103c46116a2565b6103c46116e3565b6103c46116e9565b6105856116fd565b61042f61065a3660046138d8565b61170c565b61042f61066d3660046137ba565b6117b4565b610585611869565b61042f611878565b6103c4610690366004613742565b6118cf565b6103c46106a33660046138d8565b6118fa565b61042f6106b63660046138d8565b611934565b6103c46106c93660046138d8565b6119b3565b6103c46119e4565b610585611a7b565b61042f6106ec36600461370a565b611a8a565b610585611b4b565b61042f611b5a565b6000805460408051602060026001851615610100026000190190941693909304601f810184900484028201840190925281815292918301828280156107875780601f1061075c57610100808354040283529160200191610787565b820191906000526020600020905b81548152906001019060200180831161076a57829003601f168201915b505050505081565b60105481565b60006107a2338484611be8565b5060015b92915050565b6000806107b7610ecf565b905060006107e47f0000000000000000000000000000000000000000000000000000000000000000611c9c565b905060006108036107f3611ca2565b6107fd8585611ca8565b90611ce2565b905061080f8382611d24565b93505050505b90565b60025481565b7f8b73c3c69bb8fe3d512ecc4cf759cc79239f7b179b0ffacaa9a75d522b39400f81565b6001600160a01b03831660008181526003602090815260408083203380855292528220549192909190821480159061087c57506000198114155b156109125760006108a8856040518060600160405280602f8152602001614357602f9139849190611d62565b6001600160a01b03808916600081815260036020908152604080832094891680845294909152908190208490555192935090917f8c5be1e5ebec7d5bd14f71427d1e84f3dd0314c0f7b2291e5b200ac8c7c3b92590610908908590613b1a565b60405180910390a3505b61091d868686611d8e565b50600195945050505050565b6000610934826119b3565b90506000811161095f5760405162461bcd60e51b815260040161095690613e61565b60405180910390fd5b61096881611e72565b60006109937f0000000000000000000000000000000000000000000000000000000000000000611c9c565b905060006109a26107f3611ca2565b6009549091506109c5906001600160a01b0316336109c08685611d24565b611e9c565b6109cf3385611f3d565b336001600160a01b03167f884edad9ce6fa2440d8a54cc123490eb96d2768479d49ff9c7366125a942436484604051610a089190613b1a565b60405180910390a250505050565b610a208282612017565b5050565b7f6e71edae12b1b97f4d1f60370fef10105fa2faae0126114a169c64845d6126c981565b601281565b60075481565b60086020526000908152604090205460ff1681565b6009546040517fd505accf0000000000000000000000000000000000000000000000000000000081526001600160a01b039091169063d505accf90610abd90339030908a908a908a908a908a90600401613a9b565b600060405180830381600087803b158015610ad757600080fd5b505af1158015610aeb573d6000803e3d6000fd5b50505050610af93386612017565b5050505050565b610b086121c5565b6001600160a01b0316610b196111e7565b6001600160a01b031614610b3f5760405162461bcd60e51b81526004016109569061400c565b6001600160a01b03811660009081526008602052604090205460ff1615610b785760405162461bcd60e51b815260040161095690613d39565b6001600160a01b0381166000908152600860205260409020805460ff19166001908117909155600754610baa91611bbc565b6007556040516001600160a01b038216907fc0a1035c16faf8d1304056d92c00edf028f87e62b8235a938f00af9e3c0312c590600090a250565b610bec6121c5565b6001600160a01b0316610bfd6111e7565b6001600160a01b031614610c235760405162461bcd60e51b81526004016109569061400c565b600e5460ff1615158115151415610c3957600080fd5b600e805460ff19168215151790556040517f7b014ed3854e7f5cb0218d58b3c6ae7d53a68bb0af2f67bfb029ea42c38a7e8590610c77908390613b0f565b60405180910390a150565b610c8a6121c5565b6001600160a01b0316610c9b6111e7565b6001600160a01b031614610cc15760405162461bcd60e51b81526004016109569061400c565b60008111610cce57600080fd5b604051339082156108fc029083906000818181858888f19350505050158015610cfb573d6000803e3d6000fd5b507f8c1256b8896378cd5044f80c202f9772b9d77dc85c8a6eb51967210b09bfaa28600082604051610c77929190613adc565b60115481565b7f000000000000000000000000000000000000000000000000000000000000000081565b6001600160a01b0381166000908152600460205260409020545b919050565b610d7f6121c5565b6001600160a01b0316610d906111e7565b6001600160a01b031614610db65760405162461bcd60e51b81526004016109569061400c565b6006546040516000916001600160a01b0316907f8be0079c531659141344cd1fd0a4f28419497f9722a3daafe3b4186f6b6457e0908390a3600680546001600160a01b0319169055565b600d5481565b610e0e6121c5565b6001600160a01b0316610e1f6111e7565b6001600160a01b031614610e455760405162461bcd60e51b81526004016109569061400c565b60405163095ea7b360e01b81526001600160a01b0383169063095ea7b390610e74908490600090600401613adc565b602060405180830381600087803b158015610e8e57600080fd5b505af1158015610ea2573d6000803e3d6000fd5b505050506040513d601f19601f82011682018060405250810190610ec6919061386e565b610a2057600080fd5b600080610efc7f0000000000000000000000000000000000000000000000000000000000000000306121c9565b91505090565b60056020526000908152604090205481565b610f1c6121c5565b6001600160a01b0316610f2d6111e7565b6001600160a01b031614610f535760405162461bcd60e51b81526004016109569061400c565b7f481f79ac3a523b6d6db3c5a720e190e986d1cc1b41adcdf50f9caef849901100600c5482604051610f86929190614291565b60405180910390a1600c55565b600b546001600160a01b03163314610fbd5760405162461bcd60e51b815260040161095690614169565b610fc681612265565b50565b610fd16121c5565b6001600160a01b0316610fe26111e7565b6001600160a01b0316146110085760405162461bcd60e51b81526004016109569061400c565b6000811161101557600080fd5b60405163a9059cbb60e01b81526001600160a01b0383169063a9059cbb906110439033908590600401613adc565b602060405180830381600087803b15801561105d57600080fd5b505af1158015611071573d6000803e3d6000fd5b505050506040513d601f19601f82011682018060405250810190611095919061386e565b61109e57600080fd5b7f8c1256b8896378cd5044f80c202f9772b9d77dc85c8a6eb51967210b09bfaa2882826040516110cf929190613adc565b60405180910390a15050565b600f5481565b6110e96121c5565b6001600160a01b03166110fa6111e7565b6001600160a01b0316146111205760405162461bcd60e51b81526004016109569061400c565b6000600754116111425760405162461bcd60e51b815260040161095690613c7f565b6001600160a01b03811660009081526008602052604090205460ff16151560011461117f5760405162461bcd60e51b815260040161095690613e98565b6001600160a01b0381166000908152600860205260409020805460ff191690556007546111ad906001611d24565b6007556040516001600160a01b038216907f0e86f6608b536e5339a25b65ff531f5ea91e1313d056ecd4752b35cbd16137d490600090a250565b6006546001600160a01b031690565b6014546001600160a01b031681565b600b546001600160a01b0316331461122f5760405162461bcd60e51b815260040161095690614169565b600b546040517fa8e91499ed37682f43cffb045fcc7d379a91e8c9a14e6321877ee34dee564c009161126e916001600160a01b03909116908490613af5565b60405180910390a1600b80546001600160a01b0319166001600160a01b0392909216919091179055565b60018054604080516020600284861615610100026000190190941693909304601f810184900484028201840190925281815292918301828280156107875780601f1061075c57610100808354040283529160200191610787565b6112fa6121c5565b6001600160a01b031661130b6111e7565b6001600160a01b0316146113315760405162461bcd60e51b81526004016109569061400c565b612710611355600f5461134f60105485611bbc90919063ffffffff16565b90611bbc565b111561136057600080fd5b7f2a42303d002f0ba6cfe8259c91d4684443fb0b3de286ba74991175d65172613160115482604051611393929190614291565b60405180910390a1601155565b7fc89efdaa54c0f20c7adf612882df0950f5a951637e0307cdcb4c672f298b8bc681565b6015546001600160a01b031681565b6113db6121c5565b6001600160a01b03166113ec6111e7565b6001600160a01b0316146114125760405162461bcd60e51b81526004016109569061400c565b61271061143060115461134f60105485611bbc90919063ffffffff16565b111561143b57600080fd5b7fe7f97d51d307dc44045597c9978bec0f842e6bb40d19b9444084cfa30d9ed4f2600f548260405161146e929190614291565b60405180910390a1600f55565b60006107a2338484611d8e565b6114906121c5565b6001600160a01b03166114a16111e7565b6001600160a01b0316146114c75760405162461bcd60e51b81526004016109569061400c565b6009546040516370a0823160e01b81526000916001600160a01b0316906370a08231906114f8903090600401613a63565b60206040518083038186803b15801561151057600080fd5b505afa158015611524573d6000803e3d6000fd5b505050506040513d601f19601f8201168201806040525081019061154891906138f0565b90506115737f0000000000000000000000000000000000000000000000000000000000000000612482565b6009546040516370a0823160e01b81526000916001600160a01b0316906370a08231906115a4903090600401613a63565b60206040518083038186803b1580156115bc57600080fd5b505afa1580156115d0573d6000803e3d6000fd5b505050506040513d601f19601f820116820180604052508101906115f491906138f0565b9050836116018284611d24565b101561161f5760405162461bcd60e51b815260040161095690613d70565b7fc7606d21ac05cd309191543e409f0845c016120563783d70e4f41419dc0ef234611648610ecf565b600254604051611659929190614291565b60405180910390a1600e5460ff161515600114801561167a57506001831515145b15611689576116896000610be4565b50505050565b600e5460ff1681565b610fc63382612017565b6000806116ad6116e9565b9050600c5481106116db576116d36127106107fd600f5484611ca890919063ffffffff16565b915050610815565b600091505090565b600c5481565b6000806116f4612583565b94505050505090565b6009546001600160a01b031681565b6117146121c5565b6001600160a01b03166117256111e7565b6001600160a01b03161461174b5760405162461bcd60e51b81526004016109569061400c565b612710611769600f5461134f60115485611bbc90919063ffffffff16565b111561177457600080fd5b7f3cc372f330f95ac9540626dc8a25f5bf21ba607215a5d58304cb804d446f104a601054826040516117a7929190614291565b60405180910390a1601055565b428410156117d45760405162461bcd60e51b815260040161095690613e2a565b6001600160a01b0387166000908152600560209081526040808320805460018101909155905161182f927f6e71edae12b1b97f4d1f60370fef10105fa2faae0126114a169c64845d6126c9928c928c928c92918c9101613b23565b6040516020818303038152906040528051906020012090506118548882868686612844565b61185f888888611be8565b5050505050505050565b600b546001600160a01b031681565b6118806121c5565b6001600160a01b03166118916111e7565b6001600160a01b0316146118b75760405162461bcd60e51b81526004016109569061400c565b60405162461bcd60e51b815260040161095690614132565b6001600160a01b03918216600090815260036020908152604080832093909416825291909152205490565b6000611910611907610ecf565b60025490611ca8565b61191b575080610d72565b6107a6611926610ecf565b6002546107fd908590611ca8565b61193c6121c5565b6001600160a01b031661194d6111e7565b6001600160a01b0316146119735760405162461bcd60e51b81526004016109569061400c565b7fa5dae50539d56dfe1fb5273d883b0c39bc76750a25d036fc5fbd09ad8fd5f57f600d54826040516119a6929190614291565b60405180910390a1600d55565b60006119c0611907610ecf565b6119cc57506000610d72565b6107a66002546107fd6119dd610ecf565b8590611ca8565b60007f8b73c3c69bb8fe3d512ecc4cf759cc79239f7b179b0ffacaa9a75d522b39400f60001b6000604051611a1991906139bd565b6040519081900390207fc89efdaa54c0f20c7adf612882df0950f5a951637e0307cdcb4c672f298b8bc6611a4b61291a565b30604051602001611a60959493929190613b57565b60405160208183030381529060405280519060200120905090565b6018546001600160a01b031681565b611a926121c5565b6001600160a01b0316611aa36111e7565b6001600160a01b031614611ac95760405162461bcd60e51b81526004016109569061400c565b6001600160a01b038116611aef5760405162461bcd60e51b815260040161095690613bb4565b6006546040516001600160a01b038084169216907f8be0079c531659141344cd1fd0a4f28419497f9722a3daafe3b4186f6b6457e090600090a3600680546001600160a01b0319166001600160a01b0392909216919091179055565b600a546001600160a01b031681565b323314611b795760405162461bcd60e51b815260040161095690613c11565b600080600080611b87612583565b9350935093509350600c54811015611bb15760405162461bcd60e51b8152600401610956906141a0565b61168982858561291e565b600082820183811015611be15760405162461bcd60e51b815260040161095690613c48565b9392505050565b6001600160a01b038316611c0e5760405162461bcd60e51b815260040161095690614041565b6001600160a01b038216611c345760405162461bcd60e51b81526004016109569061420e565b6001600160a01b0380841660008181526003602090815260408083209487168084529490915290819020849055517f8c5be1e5ebec7d5bd14f71427d1e84f3dd0314c0f7b2291e5b200ac8c7c3b92590611c8f908590613b1a565b60405180910390a3505050565b50600090565b61271090565b600082611cb7575060006107a6565b82820282848281611cc457fe5b0414611be15760405162461bcd60e51b815260040161095690613faf565b6000611be183836040518060400160405280601a81526020017f536166654d6174683a206469766973696f6e206279207a65726f000000000000815250612a65565b6000611be183836040518060400160405280601f81526020017f536166654d6174683a207375627472616374696f6e20756e646572666c6f77008152505b60008184841115611d865760405162461bcd60e51b81526004016109569190613ba1565b505050900390565b6001600160a01b038216611db45760405162461bcd60e51b815260040161095690614078565b611df1816040518060600160405280602e81526020016143ad602e91396001600160a01b0386166000908152600460205260409020549190611d62565b6001600160a01b038085166000908152600460205260408082209390935590841681522054611e209082611bbc565b6001600160a01b0380841660008181526004602052604090819020939093559151908516907fddf252ad1be2c89b69c2b068fc378daa952ba7f163c4a11628f55a4df523b3ef90611c8f908590613b1a565b610fc67f000000000000000000000000000000000000000000000000000000000000000082612a9c565b60405163a9059cbb60e01b81526001600160a01b0384169063a9059cbb90611eca9085908590600401613adc565b602060405180830381600087803b158015611ee457600080fd5b505af1158015611ef8573d6000803e3d6000fd5b505050506040513d601f19601f82011682018060405250810190611f1c919061386e565b611f385760405162461bcd60e51b815260040161095690613dcd565b505050565b611f7a81604051806060016040528060278152602001614386602791396001600160a01b0385166000908152600460205260409020549190611d62565b60046000846001600160a01b03166001600160a01b0316815260200190815260200160002081905550611fca81604051806060016040528060278152602001614330602791396002549190611d62565b6002556040516000906001600160a01b038416907fddf252ad1be2c89b69c2b068fc378daa952ba7f163c4a11628f55a4df523b3ef9061200b908590613b1a565b60405180910390a35050565b600e5460ff16151560011461203e5760405162461bcd60e51b8152600401610956906141d7565b600d541561207657600080600080612054612583565b9350935093509350600d548111156120715761207182858561291e565b505050505b6009546040517f23b872dd0000000000000000000000000000000000000000000000000000000081526001600160a01b03909116906323b872dd906120c390339030908690600401613a77565b602060405180830381600087803b1580156120dd57600080fd5b505af11580156120f1573d6000803e3d6000fd5b505050506040513d601f19601f82011682018060405250810190612115919061386e565b6121315760405162461bcd60e51b8152600401610956906140d5565b600061215c7f0000000000000000000000000000000000000000000000000000000000000000611c9c565b9050600061216b6107f3611ca2565b90506121838461217e6106a38685611d24565b612b1d565b61218c83612b9f565b836001600160a01b03167fe1fffcc4923d04b559f4d29a8bfc6cda04eb5b0d3c460751c2402c5c5cc9109c84604051610a089190613b1a565b3390565b6018546040517f3656eec20000000000000000000000000000000000000000000000000000000081526000916001600160a01b031690633656eec290612215908690869060040161427a565b60206040518083038186803b15801561222d57600080fd5b505afa158015612241573d6000803e3d6000fd5b505050506040513d601f19601f82011682018060405250810190611be191906138f0565b6001600160a01b0381161561246357600a54604080517f0dfe168100000000000000000000000000000000000000000000000000000000815290516001600160a01b0392831692841691630dfe1681916004808301926020929190829003018186803b1580156122d457600080fd5b505afa1580156122e8573d6000803e3d6000fd5b505050506040513d601f19601f8201168201806040525081019061230c9190613726565b6001600160a01b031614156123b157806001600160a01b031663d21220a76040518163ffffffff1660e01b815260040160206040518083038186803b15801561235457600080fd5b505afa158015612368573d6000803e3d6000fd5b505050506040513d601f19601f8201168201806040525081019061238c9190613726565b601580546001600160a01b0319166001600160a01b0392909216919091179055612443565b806001600160a01b0316630dfe16816040518163ffffffff1660e01b815260040160206040518083038186803b1580156123ea57600080fd5b505afa1580156123fe573d6000803e3d6000fd5b505050506040513d601f19601f820116820180604052508101906124229190613726565b601580546001600160a01b0319166001600160a01b03929092169190911790555b601480546001600160a01b0319166001600160a01b038316179055610fc6565b601480546001600160a01b031990811690915560158054909116905550565b60095460185460405163095ea7b360e01b81526001600160a01b039283169263095ea7b3926124b992911690600090600401613adc565b602060405180830381600087803b1580156124d357600080fd5b505af11580156124e7573d6000803e3d6000fd5b505050506040513d601f19601f8201168201806040525081019061250b919061386e565b506018546040517f7f8661a10000000000000000000000000000000000000000000000000000000081526001600160a01b0390911690637f8661a190612555908490600401613b1a565b600060405180830381600087803b15801561256f57600080fd5b505af1158015610af9573d6000803e3d6000fd5b6012546040516370a0823160e01b815260009182918291829182916001600160a01b0316906370a08231906125bc903090600401613a63565b60206040518083038186803b1580156125d457600080fd5b505afa1580156125e8573d6000803e3d6000fd5b505050506040513d601f19601f8201168201806040525081019061260c91906138f0565b9050600080600061263d7f000000000000000000000000000000000000000000000000000000000000000030612be9565b9194509250905060006126508585611bbc565b600a546012549192506000916001600160a01b0390811691161415612675578461269a565b601254600a5460135461269a9285926001600160a01b03918216929082169116612c9c565b905060006001600160a01b03841615612799576001600160a01b03841673b31f66aa3c1e785363f0875a1b74e27b85fd66c714156126d9575083612799565b6014546001600160a01b031615612799576015546040516370a0823160e01b8152612773916001600160a01b0316906370a082319061271c903090600401613a63565b60206040518083038186803b15801561273457600080fd5b505afa158015612748573d6000803e3d6000fd5b505050506040513d601f19601f8201168201806040525081019061276c91906138f0565b8690611bbc565b600a5460145491965061279691879187916001600160a01b039182169116612c9c565b90505b600a546040516370a0823160e01b81526000916128209184916001600160a01b0316906370a08231906127d0903090600401613a63565b60206040518083038186803b1580156127e857600080fd5b505afa1580156127fc573d6000803e3d6000fd5b505050506040513d601f19601f8201168201806040525081019061134f91906138f0565b9050600061282e8285611bbc565b949d969c50909a50929850939650505050505050565b600061284e6119e4565b85604051602001612860929190613a2d565b60405160208183030381529060405280519060200120905060006001828686866040516000815260200160405260405161289d9493929190613b83565b6020604051602081039080840390855afa1580156128bf573d6000803e3d6000fd5b5050604051601f1901519150506001600160a01b038116158015906128f55750866001600160a01b0316816001600160a01b0316145b6129115760405162461bcd60e51b815260040161095690613cdc565b50505050505050565b4690565b6129477f0000000000000000000000000000000000000000000000000000000000000000612d69565b600061295c61295584612db2565b8590611bbc565b905061297261296b8584612dfa565b8290611bbc565b5060006129906127106107fd60115485611ca890919063ffffffff16565b905080156129b557600a54600b546129b5916001600160a01b03908116911683611e9c565b60006129d26127106107fd600f5486611ca890919063ffffffff16565b905080156129f157600a546129f1906001600160a01b03163383611e9c565b6000612a0f612a0a83612a048787611d24565b90611d24565b612f4d565b9050612a1a81612b9f565b7fc7606d21ac05cd309191543e409f0845c016120563783d70e4f41419dc0ef234612a43610ecf565b600254604051612a54929190614291565b60405180910390a150505050505050565b60008183612a865760405162461bcd60e51b81526004016109569190613ba1565b506000838581612a9257fe5b0495945050505050565b6018546040517f441a3e700000000000000000000000000000000000000000000000000000000081526001600160a01b039091169063441a3e7090612ae79085908590600401614291565b600060405180830381600087803b158015612b0157600080fd5b505af1158015612b15573d6000803e3d6000fd5b505050505050565b600254612b2a9082611bbc565b6002556001600160a01b038216600090815260046020526040902054612b509082611bbc565b6001600160a01b0383166000818152600460205260408082209390935591519091907fddf252ad1be2c89b69c2b068fc378daa952ba7f163c4a11628f55a4df523b3ef9061200b908590613b1a565b60008111612bbf5760405162461bcd60e51b815260040161095690613f52565b610fc67f000000000000000000000000000000000000000000000000000000000000000082612f7c565b6018546040517fe39c08fc0000000000000000000000000000000000000000000000000000000081526000918291829182916001600160a01b039091169063e39c08fc90612c3d908990899060040161427a565b60206040518083038186803b158015612c5557600080fd5b505afa158015612c69573d6000803e3d6000fd5b505050506040513d601f19601f82011682018060405250810190612c8d91906138f0565b96600096508695509350505050565b600080612ca98585613054565b509050600080846001600160a01b0316630902f1ac6040518163ffffffff1660e01b815260040160606040518083038186803b158015612ce857600080fd5b505afa158015612cfc573d6000803e3d6000fd5b505050506040513d601f19601f82011682018060405250810190612d20919061388a565b5091509150866001600160a01b0316836001600160a01b031614612d4057905b612d5d88836001600160701b0316836001600160701b0316613085565b98975050505050505050565b6018546040517f1c4b774b0000000000000000000000000000000000000000000000000000000081526001600160a01b0390911690631c4b774b90612555908490600401613b1a565b601254600a546000916001600160a01b0391821691161415612dd5575080610d72565b601254600a546013546107a69285926001600160a01b039182169290821691166130cd565b60008115612f44576014546001600160a01b031615612e3f57601554600a54601454612e389285926001600160a01b039182169290821691166130cd565b90506107a6565b478015612eaf5773b31f66aa3c1e785363f0875a1b74e27b85fd66c76001600160a01b031663d0e30db0826040518263ffffffff1660e01b81526004016000604051808303818588803b158015612e9557600080fd5b505af1158015612ea9573d6000803e3d6000fd5b50505050505b6040516370a0823160e01b8152612f3c90859073b31f66aa3c1e785363f0875a1b74e27b85fd66c7906370a0823190612eec903090600401613a63565b60206040518083038186803b158015612f0457600080fd5b505afa158015612f18573d6000803e3d6000fd5b505050506040513d601f19601f82011682018060405250810190612a0491906138f0565b9150506107a6565b50600092915050565b600a546009546016546017546000936107a69386936001600160a01b0392831693918316929081169116613260565b60095460185460405163095ea7b360e01b81526001600160a01b039283169263095ea7b392612fb2929116908590600401613adc565b602060405180830381600087803b158015612fcc57600080fd5b505af1158015612fe0573d6000803e3d6000fd5b505050506040513d601f19601f82011682018060405250810190613004919061386e565b506018546040517f40809acd0000000000000000000000000000000000000000000000000000000081526001600160a01b03909116906340809acd90612ae790859085903090819060040161429f565b600080826001600160a01b0316846001600160a01b03161061307757828461307a565b83835b915091509250929050565b600080613094856103e5611ca8565b905060006130a28285611ca8565b905060006130b68361134f886103e8611ca8565b90506130c28282611ce2565b979650505050505050565b6000806130da8585613054565b509050600080846001600160a01b0316630902f1ac6040518163ffffffff1660e01b815260040160606040518083038186803b15801561311957600080fd5b505afa15801561312d573d6000803e3d6000fd5b505050506040513d601f19601f82011682018060405250810190613151919061388a565b5091509150866001600160a01b0316836001600160a01b03161461317157905b6000806131918a856001600160701b0316856001600160701b0316613085565b9050886001600160a01b0316856001600160a01b0316146131ae57905b6131b989888c6133da565b604080516000815260208101918290527f022c0d9f000000000000000000000000000000000000000000000000000000009091526001600160a01b0388169063022c0d9f9061321190859085903090602481016142c6565b600060405180830381600087803b15801561322b57600080fd5b505af115801561323f573d6000803e3d6000fd5b505050508181116132505781613252565b805b9a9950505050505050505050565b60008061326e876002611ce2565b9050600081116132905760405162461bcd60e51b815260040161095690613ef5565b6000856001600160a01b0316630dfe16816040518163ffffffff1660e01b815260040160206040518083038186803b1580156132cb57600080fd5b505afa1580156132df573d6000803e3d6000fd5b505050506040513d601f19601f820116820180604052508101906133039190613726565b9050816001600160a01b038881169083161461332857613325838984896130cd565b90505b6000876001600160a01b031663d21220a76040518163ffffffff1660e01b815260040160206040518083038186803b15801561336357600080fd5b505afa158015613377573d6000803e3d6000fd5b505050506040513d601f19601f8201168201806040525081019061339b9190613726565b9050836001600160a01b038a8116908316146133c0576133bd858b848a6130cd565b90505b6133cb898483613476565b9b9a5050505050505050505050565b60405163a9059cbb60e01b81526001600160a01b0384169063a9059cbb906134089085908590600401613adc565b602060405180830381600087803b15801561342257600080fd5b505af1158015613436573d6000803e3d6000fd5b505050506040513d601f19601f8201168201806040525081019061345a919061386e565b611f385760405162461bcd60e51b815260040161095690614245565b6000806000856001600160a01b0316630902f1ac6040518163ffffffff1660e01b815260040160606040518083038186803b1580156134b457600080fd5b505afa1580156134c8573d6000803e3d6000fd5b505050506040513d601f19601f820116820180604052508101906134ec919061388a565b5091509150600061351086846001600160701b0316846001600160701b03166136ca565b90508481111561353d5784905061353a85836001600160701b0316856001600160701b03166136ca565b95505b6135b8876001600160a01b0316630dfe16816040518163ffffffff1660e01b815260040160206040518083038186803b15801561357957600080fd5b505afa15801561358d573d6000803e3d6000fd5b505050506040513d601f19601f820116820180604052508101906135b19190613726565b88886133da565b613633876001600160a01b031663d21220a76040518163ffffffff1660e01b815260040160206040518083038186803b1580156135f457600080fd5b505afa158015613608573d6000803e3d6000fd5b505050506040513d601f19601f8201168201806040525081019061362c9190613726565b88836133da565b6040517f6a6278420000000000000000000000000000000000000000000000000000000081526001600160a01b03881690636a62784290613678903090600401613a63565b602060405180830381600087803b15801561369257600080fd5b505af11580156136a6573d6000803e3d6000fd5b505050506040513d601f19601f820116820180604052508101906130c291906138f0565b60006136da836107fd8685611ca8565b949350505050565b80516001600160701b0381168114610d7257600080fd5b803560ff81168114610d7257600080fd5b60006020828403121561371b578081fd5b8135611be18161430c565b600060208284031215613737578081fd5b8151611be18161430c565b60008060408385031215613754578081fd5b823561375f8161430c565b9150602083013561376f8161430c565b809150509250929050565b60008060006060848603121561378e578081fd5b83356137998161430c565b925060208401356137a98161430c565b929592945050506040919091013590565b600080600080600080600060e0888a0312156137d4578283fd5b87356137df8161430c565b965060208801356137ef8161430c565b9550604088013594506060880135935061380b608089016136f9565b925060a0880135915060c0880135905092959891949750929550565b60008060408385031215613839578182fd5b82356138448161430c565b946020939093013593505050565b600060208284031215613863578081fd5b8135611be181614321565b60006020828403121561387f578081fd5b8151611be181614321565b60008060006060848603121561389e578283fd5b6138a7846136e2565b92506138b5602085016136e2565b9150604084015163ffffffff811681146138cd578182fd5b809150509250925092565b6000602082840312156138e9578081fd5b5035919050565b600060208284031215613901578081fd5b5051919050565b6000806040838503121561391a578182fd5b82359150602083013561376f81614321565b600080600080600060a08688031215613943578081fd5b853594506020860135935061395a604087016136f9565b94979396509394606081013594506080013592915050565b60008151808452815b818110156139975760208185018101518683018201520161397b565b818111156139a85782602083870101525b50601f01601f19169290920160200192915050565b60008083546001808216600081146139dc57600181146139f357613a22565b60ff198316865260028304607f1686019350613a22565b600283048786526020808720875b83811015613a1a5781548a820152908501908201613a01565b505050860193505b509195945050505050565b7f190100000000000000000000000000000000000000000000000000000000000081526002810192909252602282015260420190565b6001600160a01b0391909116815260200190565b6001600160a01b039384168152919092166020820152604081019190915260600190565b6001600160a01b0397881681529590961660208601526040850193909352606084019190915260ff16608083015260a082015260c081019190915260e00190565b6001600160a01b03929092168252602082015260400190565b6001600160a01b0392831681529116602082015260400190565b901515815260200190565b90815260200190565b9586526001600160a01b0394851660208701529290931660408501526060840152608083019190915260a082015260c00190565b9485526020850193909352604084019190915260608301526001600160a01b0316608082015260a00190565b93845260ff9290921660208401526040830152606082015260800190565b600060208252611be16020830184613972565b60208082526026908201527f4f776e61626c653a206e6577206f776e657220697320746865207a65726f206160408201527f6464726573730000000000000000000000000000000000000000000000000000606082015260800190565b60208082526014908201527f59616b53747261746567793a3a6f6e6c79454f41000000000000000000000000604082015260600190565b6020808252601b908201527f536166654d6174683a206164646974696f6e206f766572666c6f770000000000604082015260600190565b60208082526034908201527f5065726d697373696f6e65643a3a72656d6f76654465706f7369746f722c206e60408201527f6f20616c6c6f776564206465706f7369746f7273000000000000000000000000606082015260800190565b60208082526024908201527f417263683a3a76616c69646174655369673a20696e76616c6964207369676e6160408201527f7475726500000000000000000000000000000000000000000000000000000000606082015260800190565b6020808252601c908201527f5065726d697373696f6e65643a3a616c6c6f774465706f7369746f7200000000604082015260600190565b60208082526029908201527f4d617374657243686566537472617465677956313a3a7265736375654465706c60408201527f6f79656446756e64730000000000000000000000000000000000000000000000606082015260800190565b6020808252602a908201527f4d617374657243686566537472617465677956313a3a5452414e534645525f4660408201527f524f4d5f4641494c454400000000000000000000000000000000000000000000606082015260800190565b6020808252600f908201527f7065726d69743a3a657870697265640000000000000000000000000000000000604082015260600190565b6020808252601e908201527f4d617374657243686566537472617465677956313a3a77697468647261770000604082015260600190565b6020808252602a908201527f5065726d697373696f6e65643a3a72656d6f76654465706f7369746f722c206e60408201527f6f7420616c6c6f77656400000000000000000000000000000000000000000000606082015260800190565b6020808252602f908201527f4465784c6962726172793a3a5f636f6e76657274526577617264546f6b656e7360408201527f546f4465706f736974546f6b656e730000000000000000000000000000000000606082015260800190565b60208082526029908201527f4d617374657243686566537472617465677956313a3a5f7374616b654465706f60408201527f736974546f6b656e730000000000000000000000000000000000000000000000606082015260800190565b60208082526021908201527f536166654d6174683a206d756c7469706c69636174696f6e206f766572666c6f60408201527f7700000000000000000000000000000000000000000000000000000000000000606082015260800190565b6020808252818101527f4f776e61626c653a2063616c6c6572206973206e6f7420746865206f776e6572604082015260600190565b6020808252601c908201527f5f617070726f76653a3a6f776e6572207a65726f206164647265737300000000604082015260600190565b60208082526034908201527f5f7472616e73666572546f6b656e733a2063616e6e6f74207472616e7366657260408201527f20746f20746865207a65726f2061646472657373000000000000000000000000606082015260800190565b60208082526025908201527f4d617374657243686566537472617465677956313a3a7472616e73666572206660408201527f61696c6564000000000000000000000000000000000000000000000000000000606082015260800190565b60208082526019908201527f736574416c6c6f77616e6365733a3a6465707265636174656400000000000000604082015260600190565b60208082526014908201527f59616b53747261746567793a3a6f6e6c79446576000000000000000000000000604082015260600190565b6020808252601e908201527f4d617374657243686566537472617465677956313a3a7265696e766573740000604082015260600190565b6020808252601e908201527f4d617374657243686566537472617465677956313a3a5f6465706f7369740000604082015260600190565b6020808252601e908201527f5f617070726f76653a3a7370656e646572207a65726f20616464726573730000604082015260600190565b6020808252818101527f4465784c6962726172793a3a5452414e534645525f46524f4d5f4641494c4544604082015260600190565b9182526001600160a01b0316602082015260400190565b918252602082015260400190565b93845260208401929092526001600160a01b03908116604084015216606082015260800190565b60008582528460208301526001600160a01b0384166040830152608060608301526142f46080830184613972565b9695505050505050565b60ff91909116815260200190565b6001600160a01b0381168114610fc657600080fd5b8015158114610fc657600080fdfe5f6275726e3a206275726e20616d6f756e74206578636565647320746f74616c20737570706c797472616e7366657246726f6d3a207472616e7366657220616d6f756e74206578636565647320616c6c6f77616e63655f6275726e3a206275726e20616d6f756e7420657863656564732066726f6d2062616c616e63655f7472616e73666572546f6b656e733a207472616e7366657220657863656564732066726f6d2062616c616e6365a2646970667358221220be761812b5d67ecfbc9d52d86c1862e61aa0c648a75ad5500ed2a011337b253e64736f6c6343000703003353776170207061697220277377617050616972506f6f6c5265776172642720648be0079c531659141344cd1fd0a4f28419497f9722a3daafe3b4186f6b6457e0",
  "devdoc": {
    "kind": "dev",
    "methods": {
      "allowDepositor(address)": {
        "params": {
          "depositor": "address"
        }
      },
      "allowance(address,address)": {
        "params": {
          "account": "The address of the account holding the funds",
          "spender": "The address of the account spending the funds"
        },
        "returns": {
          "_0": "The number of tokens approved"
        }
      },
      "approve(address,uint256)": {
        "details": "This will overwrite the approval amount for `spender` and is subject to issues noted [here](https://eips.ethereum.org/EIPS/eip-20#approve) It is recommended to use increaseAllowance and decreaseAllowance instead",
        "params": {
          "amount": "The number of tokens that are approved (2^256-1 means infinite)",
          "spender": "The address of the account which may transfer tokens"
        },
        "returns": {
          "_0": "Whether or not the approval succeeded"
        }
      },
      "balanceOf(address)": {
        "params": {
          "account": "The address of the account to get the balance of"
        },
        "returns": {
          "_0": "The number of tokens held"
        }
      },
      "checkReward()": {
        "returns": {
          "_0": "reward tokens"
        }
      },
      "deposit(uint256)": {
        "params": {
          "amount": "Amount of tokens to deposit"
        }
      },
      "depositFor(address,uint256)": {
        "details": "Must mint receipt tokens to `account`",
        "params": {
          "account": "address to receive receipt tokens",
          "amount": "deposit tokens"
        }
      },
      "depositWithPermit(uint256,uint256,uint8,bytes32,bytes32)": {
        "params": {
          "amount": "Amount of tokens to deposit",
          "deadline": "The time at which to expire the signature",
          "r": "Half of the ECDSA signature pair",
          "s": "Half of the ECDSA signature pair",
          "v": "The recovery byte of the signature"
        }
      },
      "estimateDeployedBalance()": {
        "returns": {
          "_0": "deposit tokens after withdraw fee"
        }
      },
      "estimateReinvestReward()": {
        "returns": {
          "_0": "reward tokens"
        }
      },
      "getDepositTokensForShares(uint256)": {
        "params": {
          "amount": "receipt tokens"
        },
        "returns": {
          "_0": "deposit tokens"
        }
      },
      "getDomainSeparator()": {
        "returns": {
          "_0": "Separator"
        }
      },
      "getSharesForDepositTokens(uint256)": {
        "details": "If contract is empty, use 1:1 ratioCould return zero shares for very low amounts of deposit tokens",
        "params": {
          "amount": "deposit tokens"
        },
        "returns": {
          "_0": "receipt tokens"
        }
      },
      "owner()": {
        "details": "Returns the address of the current owner."
      },
      "permit(address,address,uint256,uint256,uint8,bytes32,bytes32)": {
        "params": {
          "deadline": "The time at which to expire the signature",
          "owner": "The address to approve from",
          "r": "Half of the ECDSA signature pair",
          "s": "Half of the ECDSA signature pair",
          "spender": "The address to be approved",
          "v": "The recovery byte of the signature",
          "value": "The number of tokens that are approved (2^256-1 means infinite)"
        }
      },
      "recoverAVAX(uint256)": {
        "params": {
          "amount": "amount"
        }
      },
      "recoverERC20(address,uint256)": {
        "params": {
          "tokenAddress": "token address",
          "tokenAmount": "amount to recover"
        }
      },
      "removeDepositor(address)": {
        "params": {
          "depositor": "address"
        }
      },
      "renounceOwnership()": {
        "details": "Leaves the contract without owner. It will not be possible to call `onlyOwner` functions anymore. Can only be called by the current owner. NOTE: Renouncing ownership will leave the contract without an owner, thereby removing any functionality that is only available to the owner."
      },
      "rescueDeployedFunds(uint256,bool)": {
        "params": {
          "disableDeposits": "bool",
          "minReturnAmountAccepted": "min deposit tokens to receive"
        }
      },
      "revokeAllowance(address,address)": {
        "params": {
          "spender": "address",
          "token": "address"
        }
      },
      "setAllowances()": {
        "details": "Deprecated; approvals should be handled in context of staking"
      },
      "totalDeposits()": {
        "returns": {
          "_0": "total deposits available on the contract"
        }
      },
      "transfer(address,uint256)": {
        "params": {
          "amount": "The number of tokens to transfer",
          "dst": "The address of the destination account"
        },
        "returns": {
          "_0": "Whether or not the transfer succeeded"
        }
      },
      "transferFrom(address,address,uint256)": {
        "params": {
          "amount": "The number of tokens to transfer",
          "dst": "The address of the destination account",
          "src": "The address of the source account"
        },
        "returns": {
          "_0": "Whether or not the transfer succeeded"
        }
      },
      "transferOwnership(address)": {
        "details": "Transfers ownership of the contract to a new account (`newOwner`). Can only be called by the current owner."
      },
      "updateAdminFee(uint256)": {
        "params": {
          "newValue": "fee in BIPS"
        }
      },
      "updateDepositsEnabled(bool)": {
        "params": {
          "newValue": "bool"
        }
      },
      "updateDevAddr(address)": {
        "params": {
          "newValue": "address"
        }
      },
      "updateDevFee(uint256)": {
        "params": {
          "newValue": "fee in BIPS"
        }
      },
      "updateMaxTokensToDepositWithoutReinvest(uint256)": {
        "params": {
          "newValue": "threshold"
        }
      },
      "updateMinTokensToReinvest(uint256)": {
        "params": {
          "newValue": "threshold"
        }
      },
      "updateReinvestReward(uint256)": {
        "params": {
          "newValue": "fee in BIPS"
        }
      },
      "withdraw(uint256)": {
        "params": {
          "amount": "receipt tokens"
        }
      }
    },
    "version": 1
  },
  "userdoc": {
    "kind": "user",
    "methods": {
      "allowDepositor(address)": {
        "notice": "Add an allowed depositor"
      },
      "allowance(address,address)": {
        "notice": "Get the number of tokens `spender` is approved to spend on behalf of `account`"
      },
      "approve(address,uint256)": {
        "notice": "Approve `spender` to transfer up to `amount` from `src`"
      },
      "balanceOf(address)": {
        "notice": "Get the number of tokens held by the `account`"
      },
      "checkReward()": {
        "notice": "Reward tokens avialable to strategy, including balance"
      },
      "deposit(uint256)": {
        "notice": "Deposit tokens to receive receipt tokens"
      },
      "depositFor(address,uint256)": {
        "notice": "Deposit on behalf of another account"
      },
      "depositWithPermit(uint256,uint256,uint8,bytes32,bytes32)": {
        "notice": "Deposit using Permit"
      },
      "estimateDeployedBalance()": {
        "notice": "Estimate recoverable balance after withdraw fee"
      },
      "estimateReinvestReward()": {
        "notice": "Estimate reinvest reward"
      },
      "getDepositTokensForShares(uint256)": {
        "notice": "Calculate deposit tokens for a given amount of receipt tokens"
      },
      "getDomainSeparator()": {
        "notice": "EIP-712 Domain separator"
      },
      "getSharesForDepositTokens(uint256)": {
        "notice": "Calculate receipt tokens for a given amount of deposit tokens"
      },
      "permit(address,address,uint256,uint256,uint8,bytes32,bytes32)": {
        "notice": "Triggers an approval from owner to spender"
      },
      "recoverAVAX(uint256)": {
        "notice": "Recover AVAX from contract"
      },
      "recoverERC20(address,uint256)": {
        "notice": "Recover ERC20 from contract"
      },
      "reinvest()": {
        "notice": "Reinvest reward tokens into deposit tokens"
      },
      "removeDepositor(address)": {
        "notice": "Remove an allowed depositor"
      },
      "rescueDeployedFunds(uint256,bool)": {
        "notice": "Rescue all available deployed deposit tokens back to Strategy"
      },
      "revokeAllowance(address,address)": {
        "notice": "Revoke token allowance"
      },
      "setAllowances()": {
        "notice": "Approve tokens for use in Strategy"
      },
      "totalDeposits()": {
        "notice": "This function returns a snapshot of last available quotes"
      },
      "transfer(address,uint256)": {
        "notice": "Transfer `amount` tokens from `msg.sender` to `dst`"
      },
      "transferFrom(address,address,uint256)": {
        "notice": "Transfer `amount` tokens from `src` to `dst`"
      },
      "updateAdminFee(uint256)": {
        "notice": "Update admin fee"
      },
      "updateDepositsEnabled(bool)": {
        "notice": "Enable/disable deposits"
      },
      "updateDevAddr(address)": {
        "notice": "Update devAddr"
      },
      "updateDevFee(uint256)": {
        "notice": "Update developer fee"
      },
      "updateMaxTokensToDepositWithoutReinvest(uint256)": {
        "notice": "Update reinvest max threshold before a deposit"
      },
      "updateMinTokensToReinvest(uint256)": {
        "notice": "Update reinvest min threshold"
      },
      "updateReinvestReward(uint256)": {
        "notice": "Update reinvest reward"
      },
      "withdraw(uint256)": {
        "notice": "Redeem receipt tokens for deposit tokens"
      }
    },
    "version": 1
  },
  "storageLayout": {
    "storage": [
      {
        "astId": 6072,
        "contract": "contracts/strategies/KassandraStrategyForLP.sol:KassandraStrategyForLP",
        "label": "name",
        "offset": 0,
        "slot": "0",
        "type": "t_string_storage"
      },
      {
        "astId": 6075,
        "contract": "contracts/strategies/KassandraStrategyForLP.sol:KassandraStrategyForLP",
        "label": "symbol",
        "offset": 0,
        "slot": "1",
        "type": "t_string_storage"
      },
      {
        "astId": 6080,
        "contract": "contracts/strategies/KassandraStrategyForLP.sol:KassandraStrategyForLP",
        "label": "totalSupply",
        "offset": 0,
        "slot": "2",
        "type": "t_uint256"
      },
      {
        "astId": 6086,
        "contract": "contracts/strategies/KassandraStrategyForLP.sol:KassandraStrategyForLP",
        "label": "allowances",
        "offset": 0,
        "slot": "3",
        "type": "t_mapping(t_address,t_mapping(t_address,t_uint256))"
      },
      {
        "astId": 6090,
        "contract": "contracts/strategies/KassandraStrategyForLP.sol:KassandraStrategyForLP",
        "label": "balances",
        "offset": 0,
        "slot": "4",
        "type": "t_mapping(t_address,t_uint256)"
      },
      {
        "astId": 6106,
        "contract": "contracts/strategies/KassandraStrategyForLP.sol:KassandraStrategyForLP",
        "label": "nonces",
        "offset": 0,
        "slot": "5",
        "type": "t_mapping(t_address,t_uint256)"
      },
      {
        "astId": 17487,
        "contract": "contracts/strategies/KassandraStrategyForLP.sol:KassandraStrategyForLP",
        "label": "_owner",
        "offset": 0,
        "slot": "6",
        "type": "t_address"
      },
      {
        "astId": 17600,
        "contract": "contracts/strategies/KassandraStrategyForLP.sol:KassandraStrategyForLP",
        "label": "numberOfAllowedDepositors",
        "offset": 0,
        "slot": "7",
        "type": "t_uint256"
      },
      {
        "astId": 17604,
        "contract": "contracts/strategies/KassandraStrategyForLP.sol:KassandraStrategyForLP",
        "label": "allowedDepositors",
        "offset": 0,
        "slot": "8",
        "type": "t_mapping(t_address,t_bool)"
      },
      {
        "astId": 7458,
        "contract": "contracts/strategies/KassandraStrategyForLP.sol:KassandraStrategyForLP",
        "label": "depositToken",
        "offset": 0,
        "slot": "9",
        "type": "t_contract(IERC20)10189"
      },
      {
        "astId": 7460,
        "contract": "contracts/strategies/KassandraStrategyForLP.sol:KassandraStrategyForLP",
        "label": "rewardToken",
        "offset": 0,
        "slot": "10",
        "type": "t_contract(IERC20)10189"
      },
      {
        "astId": 7462,
        "contract": "contracts/strategies/KassandraStrategyForLP.sol:KassandraStrategyForLP",
        "label": "devAddr",
        "offset": 0,
        "slot": "11",
        "type": "t_address"
      },
      {
        "astId": 7464,
        "contract": "contracts/strategies/KassandraStrategyForLP.sol:KassandraStrategyForLP",
        "label": "MIN_TOKENS_TO_REINVEST",
        "offset": 0,
        "slot": "12",
        "type": "t_uint256"
      },
      {
        "astId": 7466,
        "contract": "contracts/strategies/KassandraStrategyForLP.sol:KassandraStrategyForLP",
        "label": "MAX_TOKENS_TO_DEPOSIT_WITHOUT_REINVEST",
        "offset": 0,
        "slot": "13",
        "type": "t_uint256"
      },
      {
        "astId": 7468,
        "contract": "contracts/strategies/KassandraStrategyForLP.sol:KassandraStrategyForLP",
        "label": "DEPOSITS_ENABLED",
        "offset": 0,
        "slot": "14",
        "type": "t_bool"
      },
      {
        "astId": 7470,
        "contract": "contracts/strategies/KassandraStrategyForLP.sol:KassandraStrategyForLP",
        "label": "REINVEST_REWARD_BIPS",
        "offset": 0,
        "slot": "15",
        "type": "t_uint256"
      },
      {
        "astId": 7472,
        "contract": "contracts/strategies/KassandraStrategyForLP.sol:KassandraStrategyForLP",
        "label": "ADMIN_FEE_BIPS",
        "offset": 0,
        "slot": "16",
        "type": "t_uint256"
      },
      {
        "astId": 7474,
        "contract": "contracts/strategies/KassandraStrategyForLP.sol:KassandraStrategyForLP",
        "label": "DEV_FEE_BIPS",
        "offset": 0,
        "slot": "17",
        "type": "t_uint256"
      },
      {
        "astId": 77385,
        "contract": "contracts/strategies/KassandraStrategyForLP.sol:KassandraStrategyForLP",
        "label": "poolRewardToken",
        "offset": 0,
        "slot": "18",
        "type": "t_address"
      },
      {
        "astId": 77387,
        "contract": "contracts/strategies/KassandraStrategyForLP.sol:KassandraStrategyForLP",
        "label": "swapPairPoolReward",
        "offset": 0,
        "slot": "19",
        "type": "t_contract(IPair)12660"
      },
      {
        "astId": 77389,
        "contract": "contracts/strategies/KassandraStrategyForLP.sol:KassandraStrategyForLP",
        "label": "swapPairExtraReward",
        "offset": 0,
        "slot": "20",
        "type": "t_address"
      },
      {
        "astId": 77391,
        "contract": "contracts/strategies/KassandraStrategyForLP.sol:KassandraStrategyForLP",
        "label": "extraToken",
        "offset": 0,
        "slot": "21",
        "type": "t_address"
      },
      {
        "astId": 78529,
        "contract": "contracts/strategies/KassandraStrategyForLP.sol:KassandraStrategyForLP",
        "label": "swapPairToken0",
        "offset": 0,
        "slot": "22",
        "type": "t_address"
      },
      {
        "astId": 78531,
        "contract": "contracts/strategies/KassandraStrategyForLP.sol:KassandraStrategyForLP",
        "label": "swapPairToken1",
        "offset": 0,
        "slot": "23",
        "type": "t_address"
      },
      {
        "astId": 72444,
        "contract": "contracts/strategies/KassandraStrategyForLP.sol:KassandraStrategyForLP",
        "label": "stakingContract",
        "offset": 0,
        "slot": "24",
        "type": "t_contract(IKassandraStaking)11665"
      }
    ],
    "types": {
      "t_address": {
        "encoding": "inplace",
        "label": "address",
        "numberOfBytes": "20"
      },
      "t_bool": {
        "encoding": "inplace",
        "label": "bool",
        "numberOfBytes": "1"
      },
      "t_contract(IERC20)10189": {
        "encoding": "inplace",
        "label": "contract IERC20",
        "numberOfBytes": "20"
      },
      "t_contract(IKassandraStaking)11665": {
        "encoding": "inplace",
        "label": "contract IKassandraStaking",
        "numberOfBytes": "20"
      },
      "t_contract(IPair)12660": {
        "encoding": "inplace",
        "label": "contract IPair",
        "numberOfBytes": "20"
      },
      "t_mapping(t_address,t_bool)": {
        "encoding": "mapping",
        "key": "t_address",
        "label": "mapping(address => bool)",
        "numberOfBytes": "32",
        "value": "t_bool"
      },
      "t_mapping(t_address,t_mapping(t_address,t_uint256))": {
        "encoding": "mapping",
        "key": "t_address",
        "label": "mapping(address => mapping(address => uint256))",
        "numberOfBytes": "32",
        "value": "t_mapping(t_address,t_uint256)"
      },
      "t_mapping(t_address,t_uint256)": {
        "encoding": "mapping",
        "key": "t_address",
        "label": "mapping(address => uint256)",
        "numberOfBytes": "32",
        "value": "t_uint256"
      },
      "t_string_storage": {
        "encoding": "bytes",
        "label": "string",
        "numberOfBytes": "32"
      },
      "t_uint256": {
        "encoding": "inplace",
        "label": "uint256",
        "numberOfBytes": "32"
      }
    }
  }
}