{
  "address": "0x197e2AE97a783b9a7958eafd01e2467B875989d7",
  "abi": [
    {
      "inputs": [
        {
          "internalType": "string",
          "name": "_name",
          "type": "string"
        },
        {
          "internalType": "address",
          "name": "_depositToken",
          "type": "address"
        },
        {
          "internalType": "address",
          "name": "_rewardToken",
          "type": "address"
        },
        {
          "internalType": "address",
          "name": "_stakingContract",
          "type": "address"
        },
        {
          "internalType": "address",
          "name": "_router",
          "type": "address"
        },
        {
          "internalType": "address",
          "name": "_timelock",
          "type": "address"
        },
        {
          "internalType": "uint256",
          "name": "_pid",
          "type": "uint256"
        },
        {
          "internalType": "uint256",
          "name": "_minTokensToReinvest",
          "type": "uint256"
        },
        {
          "internalType": "uint256",
          "name": "_adminFeeBips",
          "type": "uint256"
        },
        {
          "internalType": "uint256",
          "name": "_devFeeBips",
          "type": "uint256"
        },
        {
          "internalType": "uint256",
          "name": "_reinvestRewardBips",
          "type": "uint256"
        }
      ],
      "stateMutability": "nonpayable",
      "type": "constructor"
    },
    {
      "anonymous": false,
      "inputs": [
        {
          "indexed": true,
          "internalType": "address",
          "name": "account",
          "type": "address"
        }
      ],
      "name": "AllowDepositor",
      "type": "event"
    },
    {
      "anonymous": false,
      "inputs": [
        {
          "indexed": true,
          "internalType": "address",
          "name": "owner",
          "type": "address"
        },
        {
          "indexed": true,
          "internalType": "address",
          "name": "spender",
          "type": "address"
        },
        {
          "indexed": false,
          "internalType": "uint256",
          "name": "value",
          "type": "uint256"
        }
      ],
      "name": "Approval",
      "type": "event"
    },
    {
      "anonymous": false,
      "inputs": [
        {
          "indexed": true,
          "internalType": "address",
          "name": "account",
          "type": "address"
        },
        {
          "indexed": false,
          "internalType": "uint256",
          "name": "amount",
          "type": "uint256"
        }
      ],
      "name": "Deposit",
      "type": "event"
    },
    {
      "anonymous": false,
      "inputs": [
        {
          "indexed": false,
          "internalType": "bool",
          "name": "newValue",
          "type": "bool"
        }
      ],
      "name": "DepositsEnabled",
      "type": "event"
    },
    {
      "anonymous": false,
      "inputs": [
        {
          "indexed": true,
          "internalType": "address",
          "name": "previousOwner",
          "type": "address"
        },
        {
          "indexed": true,
          "internalType": "address",
          "name": "newOwner",
          "type": "address"
        }
      ],
      "name": "OwnershipTransferred",
      "type": "event"
    },
    {
      "anonymous": false,
      "inputs": [
        {
          "indexed": false,
          "internalType": "address",
          "name": "token",
          "type": "address"
        },
        {
          "indexed": false,
          "internalType": "uint256",
          "name": "amount",
          "type": "uint256"
        }
      ],
      "name": "Recovered",
      "type": "event"
    },
    {
      "anonymous": false,
      "inputs": [
        {
          "indexed": false,
          "internalType": "uint256",
          "name": "newTotalDeposits",
          "type": "uint256"
        },
        {
          "indexed": false,
          "internalType": "uint256",
          "name": "newTotalSupply",
          "type": "uint256"
        }
      ],
      "name": "Reinvest",
      "type": "event"
    },
    {
      "anonymous": false,
      "inputs": [
        {
          "indexed": true,
          "internalType": "address",
          "name": "account",
          "type": "address"
        }
      ],
      "name": "RemoveDepositor",
      "type": "event"
    },
    {
      "anonymous": false,
      "inputs": [
        {
          "indexed": true,
          "internalType": "address",
          "name": "from",
          "type": "address"
        },
        {
          "indexed": true,
          "internalType": "address",
          "name": "to",
          "type": "address"
        },
        {
          "indexed": false,
          "internalType": "uint256",
          "name": "value",
          "type": "uint256"
        }
      ],
      "name": "Transfer",
      "type": "event"
    },
    {
      "anonymous": false,
      "inputs": [
        {
          "indexed": false,
          "internalType": "uint256",
          "name": "oldValue",
          "type": "uint256"
        },
        {
          "indexed": false,
          "internalType": "uint256",
          "name": "newValue",
          "type": "uint256"
        }
      ],
      "name": "UpdateAdminFee",
      "type": "event"
    },
    {
      "anonymous": false,
      "inputs": [
        {
          "indexed": false,
          "internalType": "address",
          "name": "oldValue",
          "type": "address"
        },
        {
          "indexed": false,
          "internalType": "address",
          "name": "newValue",
          "type": "address"
        }
      ],
      "name": "UpdateDevAddr",
      "type": "event"
    },
    {
      "anonymous": false,
      "inputs": [
        {
          "indexed": false,
          "internalType": "uint256",
          "name": "oldValue",
          "type": "uint256"
        },
        {
          "indexed": false,
          "internalType": "uint256",
          "name": "newValue",
          "type": "uint256"
        }
      ],
      "name": "UpdateDevFee",
      "type": "event"
    },
    {
      "anonymous": false,
      "inputs": [
        {
          "indexed": false,
          "internalType": "uint256",
          "name": "oldValue",
          "type": "uint256"
        },
        {
          "indexed": false,
          "internalType": "uint256",
          "name": "newValue",
          "type": "uint256"
        }
      ],
      "name": "UpdateMaxTokensToDepositWithoutReinvest",
      "type": "event"
    },
    {
      "anonymous": false,
      "inputs": [
        {
          "indexed": false,
          "internalType": "uint256",
          "name": "oldValue",
          "type": "uint256"
        },
        {
          "indexed": false,
          "internalType": "uint256",
          "name": "newValue",
          "type": "uint256"
        }
      ],
      "name": "UpdateMinTokensToReinvest",
      "type": "event"
    },
    {
      "anonymous": false,
      "inputs": [
        {
          "indexed": false,
          "internalType": "uint256",
          "name": "oldValue",
          "type": "uint256"
        },
        {
          "indexed": false,
          "internalType": "uint256",
          "name": "newValue",
          "type": "uint256"
        }
      ],
      "name": "UpdateReinvestReward",
      "type": "event"
    },
    {
      "anonymous": false,
      "inputs": [
        {
          "indexed": true,
          "internalType": "address",
          "name": "account",
          "type": "address"
        },
        {
          "indexed": false,
          "internalType": "uint256",
          "name": "amount",
          "type": "uint256"
        }
      ],
      "name": "Withdraw",
      "type": "event"
    },
    {
      "inputs": [],
      "name": "ADMIN_FEE_BIPS",
      "outputs": [
        {
          "internalType": "uint256",
          "name": "",
          "type": "uint256"
        }
      ],
      "stateMutability": "view",
      "type": "function"
    },
    {
      "inputs": [],
      "name": "DEPOSITS_ENABLED",
      "outputs": [
        {
          "internalType": "bool",
          "name": "",
          "type": "bool"
        }
      ],
      "stateMutability": "view",
      "type": "function"
    },
    {
      "inputs": [],
      "name": "DEV_FEE_BIPS",
      "outputs": [
        {
          "internalType": "uint256",
          "name": "",
          "type": "uint256"
        }
      ],
      "stateMutability": "view",
      "type": "function"
    },
    {
      "inputs": [],
      "name": "DOMAIN_TYPEHASH",
      "outputs": [
        {
          "internalType": "bytes32",
          "name": "",
          "type": "bytes32"
        }
      ],
      "stateMutability": "view",
      "type": "function"
    },
    {
      "inputs": [],
      "name": "MAX_TOKENS_TO_DEPOSIT_WITHOUT_REINVEST",
      "outputs": [
        {
          "internalType": "uint256",
          "name": "",
          "type": "uint256"
        }
      ],
      "stateMutability": "view",
      "type": "function"
    },
    {
      "inputs": [],
      "name": "MIN_TOKENS_TO_REINVEST",
      "outputs": [
        {
          "internalType": "uint256",
          "name": "",
          "type": "uint256"
        }
      ],
      "stateMutability": "view",
      "type": "function"
    },
    {
      "inputs": [],
      "name": "PERMIT_TYPEHASH",
      "outputs": [
        {
          "internalType": "bytes32",
          "name": "",
          "type": "bytes32"
        }
      ],
      "stateMutability": "view",
      "type": "function"
    },
    {
      "inputs": [],
      "name": "PID",
      "outputs": [
        {
          "internalType": "uint256",
          "name": "",
          "type": "uint256"
        }
      ],
      "stateMutability": "view",
      "type": "function"
    },
    {
      "inputs": [],
      "name": "REINVEST_REWARD_BIPS",
      "outputs": [
        {
          "internalType": "uint256",
          "name": "",
          "type": "uint256"
        }
      ],
      "stateMutability": "view",
      "type": "function"
    },
    {
      "inputs": [],
      "name": "VERSION_HASH",
      "outputs": [
        {
          "internalType": "bytes32",
          "name": "",
          "type": "bytes32"
        }
      ],
      "stateMutability": "view",
      "type": "function"
    },
    {
      "inputs": [
        {
          "internalType": "address",
          "name": "depositor",
          "type": "address"
        }
      ],
      "name": "allowDepositor",
      "outputs": [],
      "stateMutability": "nonpayable",
      "type": "function"
    },
    {
      "inputs": [
        {
          "internalType": "address",
          "name": "account",
          "type": "address"
        },
        {
          "internalType": "address",
          "name": "spender",
          "type": "address"
        }
      ],
      "name": "allowance",
      "outputs": [
        {
          "internalType": "uint256",
          "name": "",
          "type": "uint256"
        }
      ],
      "stateMutability": "view",
      "type": "function"
    },
    {
      "inputs": [
        {
          "internalType": "address",
          "name": "",
          "type": "address"
        }
      ],
      "name": "allowedDepositors",
      "outputs": [
        {
          "internalType": "bool",
          "name": "",
          "type": "bool"
        }
      ],
      "stateMutability": "view",
      "type": "function"
    },
    {
      "inputs": [
        {
          "internalType": "address",
          "name": "spender",
          "type": "address"
        },
        {
          "internalType": "uint256",
          "name": "amount",
          "type": "uint256"
        }
      ],
      "name": "approve",
      "outputs": [
        {
          "internalType": "bool",
          "name": "",
          "type": "bool"
        }
      ],
      "stateMutability": "nonpayable",
      "type": "function"
    },
    {
      "inputs": [
        {
          "internalType": "address",
          "name": "account",
          "type": "address"
        }
      ],
      "name": "balanceOf",
      "outputs": [
        {
          "internalType": "uint256",
          "name": "",
          "type": "uint256"
        }
      ],
      "stateMutability": "view",
      "type": "function"
    },
    {
      "inputs": [],
      "name": "checkReward",
      "outputs": [
        {
          "internalType": "uint256",
          "name": "",
          "type": "uint256"
        }
      ],
      "stateMutability": "view",
      "type": "function"
    },
    {
      "inputs": [],
      "name": "decimals",
      "outputs": [
        {
          "internalType": "uint8",
          "name": "",
          "type": "uint8"
        }
      ],
      "stateMutability": "view",
      "type": "function"
    },
    {
      "inputs": [
        {
          "internalType": "uint256",
          "name": "amount",
          "type": "uint256"
        }
      ],
      "name": "deposit",
      "outputs": [],
      "stateMutability": "nonpayable",
      "type": "function"
    },
    {
      "inputs": [
        {
          "internalType": "address",
          "name": "account",
          "type": "address"
        },
        {
          "internalType": "uint256",
          "name": "amount",
          "type": "uint256"
        }
      ],
      "name": "depositFor",
      "outputs": [],
      "stateMutability": "nonpayable",
      "type": "function"
    },
    {
      "inputs": [],
      "name": "depositToken",
      "outputs": [
        {
          "internalType": "contract IERC20",
          "name": "",
          "type": "address"
        }
      ],
      "stateMutability": "view",
      "type": "function"
    },
    {
      "inputs": [
        {
          "internalType": "uint256",
          "name": "amount",
          "type": "uint256"
        },
        {
          "internalType": "uint256",
          "name": "deadline",
          "type": "uint256"
        },
        {
          "internalType": "uint8",
          "name": "v",
          "type": "uint8"
        },
        {
          "internalType": "bytes32",
          "name": "r",
          "type": "bytes32"
        },
        {
          "internalType": "bytes32",
          "name": "s",
          "type": "bytes32"
        }
      ],
      "name": "depositWithPermit",
      "outputs": [],
      "stateMutability": "nonpayable",
      "type": "function"
    },
    {
      "inputs": [],
      "name": "devAddr",
      "outputs": [
        {
          "internalType": "address",
          "name": "",
          "type": "address"
        }
      ],
      "stateMutability": "view",
      "type": "function"
    },
    {
      "inputs": [],
      "name": "estimateDeployedBalance",
      "outputs": [
        {
          "internalType": "uint256",
          "name": "",
          "type": "uint256"
        }
      ],
      "stateMutability": "view",
      "type": "function"
    },
    {
      "inputs": [],
      "name": "estimateReinvestReward",
      "outputs": [
        {
          "internalType": "uint256",
          "name": "",
          "type": "uint256"
        }
      ],
      "stateMutability": "view",
      "type": "function"
    },
    {
      "inputs": [
        {
          "internalType": "uint256",
          "name": "amount",
          "type": "uint256"
        }
      ],
      "name": "getDepositTokensForShares",
      "outputs": [
        {
          "internalType": "uint256",
          "name": "",
          "type": "uint256"
        }
      ],
      "stateMutability": "view",
      "type": "function"
    },
    {
      "inputs": [],
      "name": "getDomainSeparator",
      "outputs": [
        {
          "internalType": "bytes32",
          "name": "",
          "type": "bytes32"
        }
      ],
      "stateMutability": "view",
      "type": "function"
    },
    {
      "inputs": [
        {
          "internalType": "uint256",
          "name": "amount",
          "type": "uint256"
        }
      ],
      "name": "getSharesForDepositTokens",
      "outputs": [
        {
          "internalType": "uint256",
          "name": "",
          "type": "uint256"
        }
      ],
      "stateMutability": "view",
      "type": "function"
    },
    {
      "inputs": [],
      "name": "name",
      "outputs": [
        {
          "internalType": "string",
          "name": "",
          "type": "string"
        }
      ],
      "stateMutability": "view",
      "type": "function"
    },
    {
      "inputs": [
        {
          "internalType": "address",
          "name": "",
          "type": "address"
        }
      ],
      "name": "nonces",
      "outputs": [
        {
          "internalType": "uint256",
          "name": "",
          "type": "uint256"
        }
      ],
      "stateMutability": "view",
      "type": "function"
    },
    {
      "inputs": [],
      "name": "numberOfAllowedDepositors",
      "outputs": [
        {
          "internalType": "uint256",
          "name": "",
          "type": "uint256"
        }
      ],
      "stateMutability": "view",
      "type": "function"
    },
    {
      "inputs": [],
      "name": "owner",
      "outputs": [
        {
          "internalType": "address",
          "name": "",
          "type": "address"
        }
      ],
      "stateMutability": "view",
      "type": "function"
    },
    {
      "inputs": [
        {
          "internalType": "address",
          "name": "owner",
          "type": "address"
        },
        {
          "internalType": "address",
          "name": "spender",
          "type": "address"
        },
        {
          "internalType": "uint256",
          "name": "value",
          "type": "uint256"
        },
        {
          "internalType": "uint256",
          "name": "deadline",
          "type": "uint256"
        },
        {
          "internalType": "uint8",
          "name": "v",
          "type": "uint8"
        },
        {
          "internalType": "bytes32",
          "name": "r",
          "type": "bytes32"
        },
        {
          "internalType": "bytes32",
          "name": "s",
          "type": "bytes32"
        }
      ],
      "name": "permit",
      "outputs": [],
      "stateMutability": "nonpayable",
      "type": "function"
    },
    {
      "inputs": [
        {
          "internalType": "uint256",
          "name": "amount",
          "type": "uint256"
        }
      ],
      "name": "recoverAVAX",
      "outputs": [],
      "stateMutability": "nonpayable",
      "type": "function"
    },
    {
      "inputs": [
        {
          "internalType": "address",
          "name": "tokenAddress",
          "type": "address"
        },
        {
          "internalType": "uint256",
          "name": "tokenAmount",
          "type": "uint256"
        }
      ],
      "name": "recoverERC20",
      "outputs": [],
      "stateMutability": "nonpayable",
      "type": "function"
    },
    {
      "inputs": [],
      "name": "reinvest",
      "outputs": [],
      "stateMutability": "nonpayable",
      "type": "function"
    },
    {
      "inputs": [
        {
          "internalType": "address",
          "name": "depositor",
          "type": "address"
        }
      ],
      "name": "removeDepositor",
      "outputs": [],
      "stateMutability": "nonpayable",
      "type": "function"
    },
    {
      "inputs": [],
      "name": "renounceOwnership",
      "outputs": [],
      "stateMutability": "nonpayable",
      "type": "function"
    },
    {
      "inputs": [
        {
          "internalType": "uint256",
          "name": "minReturnAmountAccepted",
          "type": "uint256"
        },
        {
          "internalType": "bool",
          "name": "disableDeposits",
          "type": "bool"
        }
      ],
      "name": "rescueDeployedFunds",
      "outputs": [],
      "stateMutability": "nonpayable",
      "type": "function"
    },
    {
      "inputs": [
        {
          "internalType": "address",
          "name": "token",
          "type": "address"
        },
        {
          "internalType": "address",
          "name": "spender",
          "type": "address"
        }
      ],
      "name": "revokeAllowance",
      "outputs": [],
      "stateMutability": "nonpayable",
      "type": "function"
    },
    {
      "inputs": [],
      "name": "rewardToken",
      "outputs": [
        {
          "internalType": "contract IERC20",
          "name": "",
          "type": "address"
        }
      ],
      "stateMutability": "view",
      "type": "function"
    },
    {
      "inputs": [],
      "name": "router",
      "outputs": [
        {
          "internalType": "contract IRouter",
          "name": "",
          "type": "address"
        }
      ],
      "stateMutability": "view",
      "type": "function"
    },
    {
      "inputs": [],
      "name": "setAllowances",
      "outputs": [],
      "stateMutability": "nonpayable",
      "type": "function"
    },
    {
      "inputs": [],
      "name": "stakingContract",
      "outputs": [
        {
          "internalType": "contract ILydiaChef",
          "name": "",
          "type": "address"
        }
      ],
      "stateMutability": "view",
      "type": "function"
    },
    {
      "inputs": [],
      "name": "symbol",
      "outputs": [
        {
          "internalType": "string",
          "name": "",
          "type": "string"
        }
      ],
      "stateMutability": "view",
      "type": "function"
    },
    {
      "inputs": [],
      "name": "totalDeposits",
      "outputs": [
        {
          "internalType": "uint256",
          "name": "",
          "type": "uint256"
        }
      ],
      "stateMutability": "view",
      "type": "function"
    },
    {
      "inputs": [],
      "name": "totalSupply",
      "outputs": [
        {
          "internalType": "uint256",
          "name": "",
          "type": "uint256"
        }
      ],
      "stateMutability": "view",
      "type": "function"
    },
    {
      "inputs": [
        {
          "internalType": "address",
          "name": "dst",
          "type": "address"
        },
        {
          "internalType": "uint256",
          "name": "amount",
          "type": "uint256"
        }
      ],
      "name": "transfer",
      "outputs": [
        {
          "internalType": "bool",
          "name": "",
          "type": "bool"
        }
      ],
      "stateMutability": "nonpayable",
      "type": "function"
    },
    {
      "inputs": [
        {
          "internalType": "address",
          "name": "src",
          "type": "address"
        },
        {
          "internalType": "address",
          "name": "dst",
          "type": "address"
        },
        {
          "internalType": "uint256",
          "name": "amount",
          "type": "uint256"
        }
      ],
      "name": "transferFrom",
      "outputs": [
        {
          "internalType": "bool",
          "name": "",
          "type": "bool"
        }
      ],
      "stateMutability": "nonpayable",
      "type": "function"
    },
    {
      "inputs": [
        {
          "internalType": "address",
          "name": "newOwner",
          "type": "address"
        }
      ],
      "name": "transferOwnership",
      "outputs": [],
      "stateMutability": "nonpayable",
      "type": "function"
    },
    {
      "inputs": [
        {
          "internalType": "uint256",
          "name": "newValue",
          "type": "uint256"
        }
      ],
      "name": "updateAdminFee",
      "outputs": [],
      "stateMutability": "nonpayable",
      "type": "function"
    },
    {
      "inputs": [
        {
          "internalType": "bool",
          "name": "newValue",
          "type": "bool"
        }
      ],
      "name": "updateDepositsEnabled",
      "outputs": [],
      "stateMutability": "nonpayable",
      "type": "function"
    },
    {
      "inputs": [
        {
          "internalType": "address",
          "name": "newValue",
          "type": "address"
        }
      ],
      "name": "updateDevAddr",
      "outputs": [],
      "stateMutability": "nonpayable",
      "type": "function"
    },
    {
      "inputs": [
        {
          "internalType": "uint256",
          "name": "newValue",
          "type": "uint256"
        }
      ],
      "name": "updateDevFee",
      "outputs": [],
      "stateMutability": "nonpayable",
      "type": "function"
    },
    {
      "inputs": [
        {
          "internalType": "uint256",
          "name": "newValue",
          "type": "uint256"
        }
      ],
      "name": "updateMaxTokensToDepositWithoutReinvest",
      "outputs": [],
      "stateMutability": "nonpayable",
      "type": "function"
    },
    {
      "inputs": [
        {
          "internalType": "uint256",
          "name": "newValue",
          "type": "uint256"
        }
      ],
      "name": "updateMinTokensToReinvest",
      "outputs": [],
      "stateMutability": "nonpayable",
      "type": "function"
    },
    {
      "inputs": [
        {
          "internalType": "uint256",
          "name": "newValue",
          "type": "uint256"
        }
      ],
      "name": "updateReinvestReward",
      "outputs": [],
      "stateMutability": "nonpayable",
      "type": "function"
    },
    {
      "inputs": [
        {
          "internalType": "uint256",
          "name": "amount",
          "type": "uint256"
        }
      ],
      "name": "withdraw",
      "outputs": [],
      "stateMutability": "nonpayable",
      "type": "function"
    }
  ],
  "transactionHash": "0xf263fd9c53cbc7c3436221f1078a2b7dca3c41f8a6d4a027fea115ad67fcd905",
  "args": [
    "Yield Yak: Lydia-LP AVAX-WBTC",
    "0x9cfb46D0b92Ac83AAa9ED0913F3F01CdBE22176D",
    "0x4C9B4E1AC6F24CdE3660D5E4Ef1eBF77C710C084",
    "0xFb26525B14048B7BB1F3794F6129176195Db7766",
    "0xA52aBE4676dbfd04Df42eF7755F01A3c41f28D27",
    "0x8d36C5c6947ADCcd25Ef49Ea1aAC2ceACFff0bD7",
    "8",
    "100000000000000000",
    500,
    0,
    500
  ],
  "solcInputHash": "be2c6c7feb1654788932656fc50af47c",
  "bytecode": "0x60c060405260096080819052685969656c642059616b60b81b60a09081526200002c916000919062000bd2565b506040805180820190915260038082526216549560ea1b6020909201918252620000599160019162000bd2565b503480156200006757600080fd5b5060405162004d5f38038062004d5f83398181016040526101608110156200008e57600080fd5b8101908080516040519392919084640100000000821115620000af57600080fd5b908301906020820185811115620000c557600080fd5b8251640100000000811182820188101715620000e057600080fd5b82525081516020918201929091019080838360005b838110156200010f578181015183820152602001620000f5565b50505050905090810190601f1680156200013d5780820380516001836020036101000a031916815260200191505b5060409081526020820151908201516060830151608084015160a085015160c086015160e087015161010088015161012089015161014090990151979a509598509396929591949093929091600062000195620002db565b600680546001600160a01b0319166001600160a01b0383169081179091556040519192509060009060008051602062004d3f833981519152908290a3508a51620001e79060009060208e019062000bd2565b50600a80546001600160a01b03808d166001600160a01b031992831617909255600b80548c8416908316179055601480548b841690831617905560138054928a16928216929092179091556015869055600c8054909116331790556200024c620002df565b62000257846200064f565b6200026283620006f9565b6200026d82620007e9565b6200027881620008c5565b620002846001620009a1565b6200028f8662000a67565b604080516000808252602082015281517fc7606d21ac05cd309191543e409f0845c016120563783d70e4f41419dc0ef234929181900390910190a1505050505050505050505062000c6e565b3390565b620002e9620002db565b6001600160a01b0316620002fc62000b61565b6001600160a01b03161462000347576040805162461bcd60e51b8152602060048201819052602482015260008051602062004d1f833981519152604482015290519081900360640190fd5b600a546014546040805163095ea7b360e01b81526001600160a01b03928316600482015260001960248201529051919092169163095ea7b39160448083019260209291908290030181600087803b158015620003a257600080fd5b505af1158015620003b7573d6000803e3d6000fd5b505050506040513d6020811015620003ce57600080fd5b5050600b546013546040805163095ea7b360e01b81526001600160a01b03928316600482015260001960248201529051919092169163095ea7b39160448083019260209291908290030181600087803b1580156200042b57600080fd5b505af115801562000440573d6000803e3d6000fd5b505050506040513d60208110156200045757600080fd5b5050600a5460408051630dfe168160e01b815290516001600160a01b0390921691630dfe168191600480820192602092909190829003018186803b1580156200049f57600080fd5b505afa158015620004b4573d6000803e3d6000fd5b505050506040513d6020811015620004cb57600080fd5b50516013546040805163095ea7b360e01b81526001600160a01b03928316600482015260001960248201529051919092169163095ea7b39160448083019260209291908290030181600087803b1580156200052557600080fd5b505af11580156200053a573d6000803e3d6000fd5b505050506040513d60208110156200055157600080fd5b5050600a546040805163d21220a760e01b815290516001600160a01b039092169163d21220a791600480820192602092909190829003018186803b1580156200059957600080fd5b505afa158015620005ae573d6000803e3d6000fd5b505050506040513d6020811015620005c557600080fd5b50516013546040805163095ea7b360e01b81526001600160a01b03928316600482015260001960248201529051919092169163095ea7b39160448083019260209291908290030181600087803b1580156200061f57600080fd5b505af115801562000634573d6000803e3d6000fd5b505050506040513d60208110156200064b57600080fd5b5050565b62000659620002db565b6001600160a01b03166200066c62000b61565b6001600160a01b031614620006b7576040805162461bcd60e51b8152602060048201819052602482015260008051602062004d1f833981519152604482015290519081900360640190fd5b600d54604080519182526020820183905280517f481f79ac3a523b6d6db3c5a720e190e986d1cc1b41adcdf50f9caef8499011009281900390910190a1600d55565b62000703620002db565b6001600160a01b03166200071662000b61565b6001600160a01b03161462000761576040805162461bcd60e51b8152602060048201819052602482015260008051602062004d1f833981519152604482015290519081900360640190fd5b6127106200079b601054620007876012548562000b7060201b6200260f1790919060201c565b62000b7060201b6200260f1790919060201c565b1115620007a757600080fd5b601154604080519182526020820183905280517f3cc372f330f95ac9540626dc8a25f5bf21ba607215a5d58304cb804d446f104a9281900390910190a1601155565b620007f3620002db565b6001600160a01b03166200080662000b61565b6001600160a01b03161462000851576040805162461bcd60e51b8152602060048201819052602482015260008051602062004d1f833981519152604482015290519081900360640190fd5b61271062000877601054620007876011548562000b7060201b6200260f1790919060201c565b11156200088357600080fd5b601254604080519182526020820183905280517f2a42303d002f0ba6cfe8259c91d4684443fb0b3de286ba74991175d6517261319281900390910190a1601255565b620008cf620002db565b6001600160a01b0316620008e262000b61565b6001600160a01b0316146200092d576040805162461bcd60e51b8152602060048201819052602482015260008051602062004d1f833981519152604482015290519081900360640190fd5b61271062000953601254620007876011548562000b7060201b6200260f1790919060201c565b11156200095f57600080fd5b601054604080519182526020820183905280517fe7f97d51d307dc44045597c9978bec0f842e6bb40d19b9444084cfa30d9ed4f29281900390910190a1601055565b620009ab620002db565b6001600160a01b0316620009be62000b61565b6001600160a01b03161462000a09576040805162461bcd60e51b8152602060048201819052602482015260008051602062004d1f833981519152604482015290519081900360640190fd5b600f5460ff161515811515141562000a2057600080fd5b600f805482151560ff19909116811790915560408051918252517f7b014ed3854e7f5cb0218d58b3c6ae7d53a68bb0af2f67bfb029ea42c38a7e859181900360200190a150565b62000a71620002db565b6001600160a01b031662000a8462000b61565b6001600160a01b03161462000acf576040805162461bcd60e51b8152602060048201819052602482015260008051602062004d1f833981519152604482015290519081900360640190fd5b6001600160a01b03811662000b165760405162461bcd60e51b815260040180806020018281038252602681526020018062004cf96026913960400191505060405180910390fd5b6006546040516001600160a01b0380841692169060008051602062004d3f83398151915290600090a3600680546001600160a01b0319166001600160a01b0392909216919091179055565b6006546001600160a01b031690565b60008282018381101562000bcb576040805162461bcd60e51b815260206004820152601b60248201527f536166654d6174683a206164646974696f6e206f766572666c6f770000000000604482015290519081900360640190fd5b9392505050565b828054600181600116156101000203166002900490600052602060002090601f016020900481019282601f1062000c1557805160ff191683800117855562000c45565b8280016001018555821562000c45579182015b8281111562000c4557825182559160200191906001019062000c28565b5062000c5392915062000c57565b5090565b5b8082111562000c53576000815560010162000c58565b61407b8062000c7e6000396000f3fe608060405234801561001057600080fd5b50600436106103835760003560e01c80638b73e606116101de578063c89039c51161010f578063e21ac825116100ad578063f2fde38b1161007c578063f2fde38b1461093c578063f7c618c114610962578063f887ea401461096a578063fdb5a03e1461097257610383565b8063e21ac825146108f2578063eab89a5a1461090f578063ed24911d1461092c578063ee99205c1461093457610383565b8063da09c72c116100e9578063da09c72c14610897578063dbd9a4d41461089f578063dd62ed3e146108a7578063dd8ce4d6146108d557610383565b8063c89039c514610821578063cff1b6ef14610829578063d505accf1461084657610383565b8063a9059cbb1161017c578063b6b55f2511610156578063b6b55f25146107ec578063b9e57b8014610809578063bd079f5514610811578063c4b24a461461081957610383565b8063a9059cbb14610793578063ac0d31ff146107bf578063b52a321f146107e457610383565b806395d89b41116101b857806395d89b411461074957806399729ec1146107515780639e4e73181461076e578063a8ae2b7c1461077657610383565b80638b73e606146106d95780638da5cb5b146106ff5780639291d5631461072357610383565b80634bebd1e7116102b8578063789139bc116102565780637ecebe00116102305780637ecebe001461066257806381837230146106885780638980f11f146106a55780638aff733d146106d157610383565b8063789139bc146106245780637ae267731461062c5780637d8820971461065a57610383565b80635ea682ea116102925780635ea682ea146105e65780635eaec0e4146105ee57806370a08231146105f6578063715018a61461061c57610383565b80634bebd1e7146105845780634e77ace5146105aa5780634ebb7916146105c957610383565b80632e1a7d4d11610325578063313ce567116102ff578063313ce567146105005780633bdc6e721461051e578063483c2ef0146105265780634a970be71461054c57610383565b80632e1a7d4d146104ad5780632f4f21e2146104cc57806330adf81f146104f857610383565b80630f23475d116103615780630f23475d1461045f57806318160ddd1461046757806320606b701461046f57806323b872dd1461047757610383565b806306fdde03146103885780630767711114610405578063095ea7b31461041f575b600080fd5b61039061097a565b6040805160208082528351818301528351919283929083019185019080838360005b838110156103ca5781810151838201526020016103b2565b50505050905090810190601f1680156103f75780820380516001836020036101000a031916815260200191505b509250505060405180910390f35b61040d610a08565b60408051918252519081900360200190f35b61044b6004803603604081101561043557600080fd5b506001600160a01b038135169060200135610a0e565b604080519115158252519081900360200190f35b61040d610a25565b61040d610aad565b61040d610ab3565b61044b6004803603606081101561048d57600080fd5b506001600160a01b03813581169160208101359091169060400135610ad7565b6104ca600480360360208110156104c357600080fd5b5035610bb9565b005b6104ca600480360360408110156104e257600080fd5b506001600160a01b038135169060200135610cfb565b61040d610d05565b610508610d29565b6040805160ff9092168252519081900360200190f35b61040d610d2e565b61044b6004803603602081101561053c57600080fd5b50356001600160a01b0316610d34565b6104ca600480360360a081101561056257600080fd5b5080359060208101359060ff6040820135169060608101359060800135610d49565b6104ca6004803603602081101561059a57600080fd5b50356001600160a01b0316610de9565b6104ca600480360360208110156105c057600080fd5b50351515610f25565b6104ca600480360360208110156105df57600080fd5b5035610fe4565b61040d6110c0565b61040d6110c6565b61040d6004803603602081101561060c57600080fd5b50356001600160a01b03166110cc565b6104ca6110eb565b61040d611197565b6104ca6004803603604081101561064257600080fd5b506001600160a01b038135811691602001351661119d565b61040d61128c565b61040d6004803603602081101561067857600080fd5b50356001600160a01b0316611292565b6104ca6004803603602081101561069e57600080fd5b50356112a4565b6104ca600480360360408110156106bb57600080fd5b506001600160a01b038135169060200135611348565b61040d611483565b6104ca600480360360208110156106ef57600080fd5b50356001600160a01b0316611489565b6107076115f0565b604080516001600160a01b039092168252519081900360200190f35b6104ca6004803603602081101561073957600080fd5b50356001600160a01b03166115ff565b610390611680565b6104ca6004803603602081101561076757600080fd5b50356116da565b61040d6117ad565b6104ca6004803603602081101561078c57600080fd5b50356117d1565b61044b600480360360408110156107a957600080fd5b506001600160a01b03813516906020013561189e565b6104ca600480360360408110156107d557600080fd5b508035906020013515156118ab565b61044b611b23565b6104ca6004803603602081101561080257600080fd5b5035611b2c565b61040d611b39565b61040d611b80565b61040d611b86565b610707611c9c565b6104ca6004803603602081101561083f57600080fd5b5035611cab565b6104ca600480360360e081101561085c57600080fd5b506001600160a01b03813581169160208101359091169060408101359060608101359060ff6080820135169060a08101359060c00135611d78565b610707611e6a565b6104ca611e79565b61040d600480360360408110156108bd57600080fd5b506001600160a01b03813581169160200135166121cd565b61040d600480360360208110156108eb57600080fd5b50356121f8565b6104ca6004803603602081101561090857600080fd5b5035612237565b61040d6004803603602081101561092557600080fd5b50356122db565b61040d61231b565b610707612428565b6104ca6004803603602081101561095257600080fd5b50356001600160a01b0316612437565b61070761253a565b610707612549565b6104ca612558565b6000805460408051602060026001851615610100026000190190941693909304601f81018490048402820184019092528181529291830182828015610a005780601f106109d557610100808354040283529160200191610a00565b820191906000526020600020905b8154815290600101906020018083116109e357829003601f168201915b505050505081565b60115481565b6000610a1b338484612670565b5060015b92915050565b601454601554604080516393f1a40b60e01b81526004810192909252306024830152805160009384936001600160a01b03909116926393f1a40b92604480840193829003018186803b158015610a7a57600080fd5b505afa158015610a8e573d6000803e3d6000fd5b505050506040513d6040811015610aa457600080fd5b50519150505b90565b60025481565b7f8b73c3c69bb8fe3d512ecc4cf759cc79239f7b179b0ffacaa9a75d522b39400f81565b6001600160a01b038316600081815260036020908152604080832033808552925282205491929091908214801590610b1157506000198114155b15610ba2576000610b3d856040518060600160405280602f8152602001613f71602f9139849190612788565b6001600160a01b0380891660008181526003602090815260408083209489168084529482529182902085905581518581529151949550929391927f8c5be1e5ebec7d5bd14f71427d1e84f3dd0314c0f7b2291e5b200ac8c7c3b92592918290030190a3505b610bad86868661281f565b50600195945050505050565b6000610bc4826122db565b90508015610cf757610bd58161292c565b600a546040805163a9059cbb60e01b81523360048201526024810184905290516001600160a01b039092169163a9059cbb916044808201926020929091908290030181600087803b158015610c2957600080fd5b505af1158015610c3d573d6000803e3d6000fd5b505050506040513d6020811015610c5357600080fd5b5051610ca6576040805162461bcd60e51b815260206004820152601c60248201527f4c796469615374726174656779466f724c503a3a776974686472617700000000604482015290519081900360640190fd5b610cb033836129d6565b600954610cbd9082612aab565b60095560408051828152905133917f884edad9ce6fa2440d8a54cc123490eb96d2768479d49ff9c7366125a9424364919081900360200190a25b5050565b610cf78282612aed565b7f6e71edae12b1b97f4d1f60370fef10105fa2faae0126114a169c64845d6126c981565b601281565b60075481565b60086020526000908152604090205460ff1681565b600a546040805163d505accf60e01b8152336004820152306024820152604481018890526064810187905260ff8616608482015260a4810185905260c4810184905290516001600160a01b039092169163d505accf9160e48082019260009290919082900301818387803b158015610dc057600080fd5b505af1158015610dd4573d6000803e3d6000fd5b50505050610de23386612aed565b5050505050565b610df1612c6f565b6001600160a01b0316610e026115f0565b6001600160a01b031614610e4b576040805162461bcd60e51b81526020600482018190526024820152600080516020613e9d833981519152604482015290519081900360640190fd5b6001600160a01b03811660009081526008602052604090205460ff1615610eb9576040805162461bcd60e51b815260206004820152601c60248201527f5065726d697373696f6e65643a3a616c6c6f774465706f7369746f7200000000604482015290519081900360640190fd5b6001600160a01b0381166000908152600860205260409020805460ff19166001908117909155600754610eeb9161260f565b6007556040516001600160a01b038216907fc0a1035c16faf8d1304056d92c00edf028f87e62b8235a938f00af9e3c0312c590600090a250565b610f2d612c6f565b6001600160a01b0316610f3e6115f0565b6001600160a01b031614610f87576040805162461bcd60e51b81526020600482018190526024820152600080516020613e9d833981519152604482015290519081900360640190fd5b600f5460ff1615158115151415610f9d57600080fd5b600f805482151560ff19909116811790915560408051918252517f7b014ed3854e7f5cb0218d58b3c6ae7d53a68bb0af2f67bfb029ea42c38a7e859181900360200190a150565b610fec612c6f565b6001600160a01b0316610ffd6115f0565b6001600160a01b031614611046576040805162461bcd60e51b81526020600482018190526024820152600080516020613e9d833981519152604482015290519081900360640190fd5b6000811161105357600080fd5b604051339082156108fc029083906000818181858888f19350505050158015611080573d6000803e3d6000fd5b5060408051600081526020810183905281517f8c1256b8896378cd5044f80c202f9772b9d77dc85c8a6eb51967210b09bfaa28929181900390910190a150565b60125481565b60155481565b6001600160a01b0381166000908152600460205260409020545b919050565b6110f3612c6f565b6001600160a01b03166111046115f0565b6001600160a01b03161461114d576040805162461bcd60e51b81526020600482018190526024820152600080516020613e9d833981519152604482015290519081900360640190fd5b6006546040516000916001600160a01b0316907f8be0079c531659141344cd1fd0a4f28419497f9722a3daafe3b4186f6b6457e0908390a3600680546001600160a01b0319169055565b600e5481565b6111a5612c6f565b6001600160a01b03166111b66115f0565b6001600160a01b0316146111ff576040805162461bcd60e51b81526020600482018190526024820152600080516020613e9d833981519152604482015290519081900360640190fd5b816001600160a01b031663095ea7b38260006040518363ffffffff1660e01b815260040180836001600160a01b0316815260200182815260200192505050602060405180830381600087803b15801561125757600080fd5b505af115801561126b573d6000803e3d6000fd5b505050506040513d602081101561128157600080fd5b5051610cf757600080fd5b60095481565b60056020526000908152604090205481565b6112ac612c6f565b6001600160a01b03166112bd6115f0565b6001600160a01b031614611306576040805162461bcd60e51b81526020600482018190526024820152600080516020613e9d833981519152604482015290519081900360640190fd5b600d54604080519182526020820183905280517f481f79ac3a523b6d6db3c5a720e190e986d1cc1b41adcdf50f9caef8499011009281900390910190a1600d55565b611350612c6f565b6001600160a01b03166113616115f0565b6001600160a01b0316146113aa576040805162461bcd60e51b81526020600482018190526024820152600080516020613e9d833981519152604482015290519081900360640190fd5b600081116113b757600080fd5b6040805163a9059cbb60e01b81523360048201526024810183905290516001600160a01b0384169163a9059cbb9160448083019260209291908290030181600087803b15801561140657600080fd5b505af115801561141a573d6000803e3d6000fd5b505050506040513d602081101561143057600080fd5b505161143b57600080fd5b604080516001600160a01b03841681526020810183905281517f8c1256b8896378cd5044f80c202f9772b9d77dc85c8a6eb51967210b09bfaa28929181900390910190a15050565b60105481565b611491612c6f565b6001600160a01b03166114a26115f0565b6001600160a01b0316146114eb576040805162461bcd60e51b81526020600482018190526024820152600080516020613e9d833981519152604482015290519081900360640190fd5b60006007541161152c5760405162461bcd60e51b8152600401808060200182810382526034815260200180613dd36034913960400191505060405180910390fd5b6001600160a01b03811660009081526008602052604090205460ff1615156001146115885760405162461bcd60e51b815260040180806020018281038252602a815260200180613e2b602a913960400191505060405180910390fd5b6001600160a01b0381166000908152600860205260409020805460ff191690556007546115b6906001612aab565b6007556040516001600160a01b038216907f0e86f6608b536e5339a25b65ff531f5ea91e1313d056ecd4752b35cbd16137d490600090a250565b6006546001600160a01b031690565b600c546001600160a01b0316331461161657600080fd5b600c54604080516001600160a01b039283168152918316602083015280517fa8e91499ed37682f43cffb045fcc7d379a91e8c9a14e6321877ee34dee564c009281900390910190a1600c80546001600160a01b0319166001600160a01b0392909216919091179055565b60018054604080516020600284861615610100026000190190941693909304601f81018490048402820184019092528181529291830182828015610a005780601f106109d557610100808354040283529160200191610a00565b6116e2612c6f565b6001600160a01b03166116f36115f0565b6001600160a01b03161461173c576040805162461bcd60e51b81526020600482018190526024820152600080516020613e9d833981519152604482015290519081900360640190fd5b61271061176060105461175a6011548561260f90919063ffffffff16565b9061260f565b111561176b57600080fd5b601254604080519182526020820183905280517f2a42303d002f0ba6cfe8259c91d4684443fb0b3de286ba74991175d6517261319281900390910190a1601255565b7fc89efdaa54c0f20c7adf612882df0950f5a951637e0307cdcb4c672f298b8bc681565b6117d9612c6f565b6001600160a01b03166117ea6115f0565b6001600160a01b031614611833576040805162461bcd60e51b81526020600482018190526024820152600080516020613e9d833981519152604482015290519081900360640190fd5b61271061185160125461175a6011548561260f90919063ffffffff16565b111561185c57600080fd5b601054604080519182526020820183905280517fe7f97d51d307dc44045597c9978bec0f842e6bb40d19b9444084cfa30d9ed4f29281900390910190a1601055565b6000610a1b33848461281f565b6118b3612c6f565b6001600160a01b03166118c46115f0565b6001600160a01b03161461190d576040805162461bcd60e51b81526020600482018190526024820152600080516020613e9d833981519152604482015290519081900360640190fd5b600a54604080516370a0823160e01b815230600482015290516000926001600160a01b0316916370a08231916024808301926020929190829003018186803b15801561195857600080fd5b505afa15801561196c573d6000803e3d6000fd5b505050506040513d602081101561198257600080fd5b505160145460155460408051632989754760e11b81526004810192909252519293506001600160a01b0390911691635312ea8e9160248082019260009290919082900301818387803b1580156119d757600080fd5b505af11580156119eb573d6000803e3d6000fd5b5050600a54604080516370a0823160e01b81523060048201529051600094506001600160a01b0390921692506370a08231916024808301926020929190829003018186803b158015611a3c57600080fd5b505afa158015611a50573d6000803e3d6000fd5b505050506040513d6020811015611a6657600080fd5b5051905083611a758284612aab565b1015611ab25760405162461bcd60e51b8152600401808060200182810382526027815260200180613ebd6027913960400191505060405180910390fd5b600981905560025460408051838152602081019290925280517fc7606d21ac05cd309191543e409f0845c016120563783d70e4f41419dc0ef2349281900390910190a1600f5460ff1615156001148015611b0e57506001831515145b15611b1d57611b1d6000610f25565b50505050565b600f5460ff1681565b611b363382612aed565b50565b600080611b44611b86565b9050600d548110611b7857611b70612710611b6a60105484612c7390919063ffffffff16565b90612ccc565b915050610aaa565b600091505090565b600d5481565b60145460155460408051631c722ead60e11b815260048101929092523060248301525160009283926001600160a01b03909116916338e45d5a91604480820192602092909190829003018186803b158015611be057600080fd5b505afa158015611bf4573d6000803e3d6000fd5b505050506040513d6020811015611c0a57600080fd5b5051600b54604080516370a0823160e01b815230600482015290519293506000926001600160a01b03909216916370a0823191602480820192602092909190829003018186803b158015611c5d57600080fd5b505afa158015611c71573d6000803e3d6000fd5b505050506040513d6020811015611c8757600080fd5b50519050611c95828261260f565b9250505090565b600a546001600160a01b031681565b611cb3612c6f565b6001600160a01b0316611cc46115f0565b6001600160a01b031614611d0d576040805162461bcd60e51b81526020600482018190526024820152600080516020613e9d833981519152604482015290519081900360640190fd5b612710611d2b60105461175a6012548561260f90919063ffffffff16565b1115611d3657600080fd5b601154604080519182526020820183905280517f3cc372f330f95ac9540626dc8a25f5bf21ba607215a5d58304cb804d446f104a9281900390910190a1601155565b42841015611dbf576040805162461bcd60e51b815260206004820152600f60248201526e1c195c9b5a5d0e8e995e1c1a5c9959608a1b604482015290519081900360640190fd5b6001600160a01b0380881660008181526005602090815260409182902080546001810190915582517f6e71edae12b1b97f4d1f60370fef10105fa2faae0126114a169c64845d6126c98184015280840194909452938a1660608401526080830189905260a083019390935260c08083018890528151808403909101815260e090920190528051910120611e558882868686612d0e565b611e60888888612670565b5050505050505050565b600c546001600160a01b031681565b611e81612c6f565b6001600160a01b0316611e926115f0565b6001600160a01b031614611edb576040805162461bcd60e51b81526020600482018190526024820152600080516020613e9d833981519152604482015290519081900360640190fd5b600a546014546040805163095ea7b360e01b81526001600160a01b03928316600482015260001960248201529051919092169163095ea7b39160448083019260209291908290030181600087803b158015611f3557600080fd5b505af1158015611f49573d6000803e3d6000fd5b505050506040513d6020811015611f5f57600080fd5b5050600b546013546040805163095ea7b360e01b81526001600160a01b03928316600482015260001960248201529051919092169163095ea7b39160448083019260209291908290030181600087803b158015611fbb57600080fd5b505af1158015611fcf573d6000803e3d6000fd5b505050506040513d6020811015611fe557600080fd5b5050600a5460408051630dfe168160e01b815290516001600160a01b0390921691630dfe168191600480820192602092909190829003018186803b15801561202c57600080fd5b505afa158015612040573d6000803e3d6000fd5b505050506040513d602081101561205657600080fd5b50516013546040805163095ea7b360e01b81526001600160a01b03928316600482015260001960248201529051919092169163095ea7b39160448083019260209291908290030181600087803b1580156120af57600080fd5b505af11580156120c3573d6000803e3d6000fd5b505050506040513d60208110156120d957600080fd5b5050600a546040805163d21220a760e01b815290516001600160a01b039092169163d21220a791600480820192602092909190829003018186803b15801561212057600080fd5b505afa158015612134573d6000803e3d6000fd5b505050506040513d602081101561214a57600080fd5b50516013546040805163095ea7b360e01b81526001600160a01b03928316600482015260001960248201529051919092169163095ea7b39160448083019260209291908290030181600087803b1580156121a357600080fd5b505af11580156121b7573d6000803e3d6000fd5b505050506040513d6020811015610cf757600080fd5b6001600160a01b03918216600090815260036020908152604080832093909416825291909152205490565b6000612211600954600254612c7390919063ffffffff16565b61221c5750806110e6565b610a1f600954611b6a60025485612c7390919063ffffffff16565b61223f612c6f565b6001600160a01b03166122506115f0565b6001600160a01b031614612299576040805162461bcd60e51b81526020600482018190526024820152600080516020613e9d833981519152604482015290519081900360640190fd5b600e54604080519182526020820183905280517fa5dae50539d56dfe1fb5273d883b0c39bc76750a25d036fc5fbd09ad8fd5f57f9281900390910190a1600e55565b60006122f4600954600254612c7390919063ffffffff16565b612300575060006110e6565b610a1f600254611b6a60095485612c7390919063ffffffff16565b60007f8b73c3c69bb8fe3d512ecc4cf759cc79239f7b179b0ffacaa9a75d522b39400f60001b6000604051808280546001816001161561010002031660029004801561239e5780601f1061237c57610100808354040283529182019161239e565b820191906000526020600020905b81548152906001019060200180831161238a575b505091505060405180910390207fc89efdaa54c0f20c7adf612882df0950f5a951637e0307cdcb4c672f298b8bc660001b6123d7612e2b565b3060405160200180868152602001858152602001848152602001838152602001826001600160a01b031681526020019550505050505060405160208183030381529060405280519060200120905090565b6014546001600160a01b031681565b61243f612c6f565b6001600160a01b03166124506115f0565b6001600160a01b031614612499576040805162461bcd60e51b81526020600482018190526024820152600080516020613e9d833981519152604482015290519081900360640190fd5b6001600160a01b0381166124de5760405162461bcd60e51b8152600401808060200182810382526026815260200180613d896026913960400191505060405180910390fd5b6006546040516001600160a01b038084169216907f8be0079c531659141344cd1fd0a4f28419497f9722a3daafe3b4186f6b6457e090600090a3600680546001600160a01b0319166001600160a01b0392909216919091179055565b600b546001600160a01b031681565b6013546001600160a01b031681565b3233146125a3576040805162461bcd60e51b815260206004820152601460248201527359616b53747261746567793a3a6f6e6c79454f4160601b604482015290519081900360640190fd5b60006125ad611b86565b9050600d54811015612606576040805162461bcd60e51b815260206004820152601c60248201527f4c796469615374726174656779466f724c503a3a7265696e7665737400000000604482015290519081900360640190fd5b611b3681612e2f565b600082820183811015612669576040805162461bcd60e51b815260206004820152601b60248201527f536166654d6174683a206164646974696f6e206f766572666c6f770000000000604482015290519081900360640190fd5b9392505050565b6001600160a01b0383166126cb576040805162461bcd60e51b815260206004820152601c60248201527f5f617070726f76653a3a6f776e6572207a65726f206164647265737300000000604482015290519081900360640190fd5b6001600160a01b038216612726576040805162461bcd60e51b815260206004820152601e60248201527f5f617070726f76653a3a7370656e646572207a65726f20616464726573730000604482015290519081900360640190fd5b6001600160a01b03808416600081815260036020908152604080832094871680845294825291829020859055815185815291517f8c5be1e5ebec7d5bd14f71427d1e84f3dd0314c0f7b2291e5b200ac8c7c3b9259281900390910190a3505050565b600081848411156128175760405162461bcd60e51b81526004018080602001828103825283818151815260200191508051906020019080838360005b838110156127dc5781810151838201526020016127c4565b50505050905090810190601f1680156128095780820380516001836020036101000a031916815260200191505b509250505060405180910390fd5b505050900390565b6001600160a01b0382166128645760405162461bcd60e51b8152600401808060200182810382526034815260200180613ee46034913960400191505060405180910390fd5b6128a1816040518060600160405280602e8152602001613ff1602e91396001600160a01b0386166000908152600460205260409020549190612788565b6001600160a01b0380851660009081526004602052604080822093909355908416815220546128d0908261260f565b6001600160a01b0380841660008181526004602090815260409182902094909455805185815290519193928716927fddf252ad1be2c89b69c2b068fc378daa952ba7f163c4a11628f55a4df523b3ef92918290030190a3505050565b6000811161296b5760405162461bcd60e51b815260040180806020018281038252602a815260200180613fa0602a913960400191505060405180910390fd5b60145460155460408051630441a3e760e41b8152600481019290925260248201849052516001600160a01b039092169163441a3e709160448082019260009290919082900301818387803b1580156129c257600080fd5b505af1158015610de2573d6000803e3d6000fd5b612a1381604051806060016040528060278152602001613fca602791396001600160a01b0385166000908152600460205260409020549190612788565b60046000846001600160a01b03166001600160a01b0316815260200190815260200160002081905550612a6381604051806060016040528060278152602001613e55602791396002549190612788565b6002556040805182815290516000916001600160a01b038516917fddf252ad1be2c89b69c2b068fc378daa952ba7f163c4a11628f55a4df523b3ef9181900360200190a35050565b600061266983836040518060400160405280601f81526020017f536166654d6174683a207375627472616374696f6e20756e646572666c6f7700815250612788565b600f5460ff161515600114612b49576040805162461bcd60e51b815260206004820152601c60248201527f4c796469615374726174656779466f724c503a3a5f6465706f73697400000000604482015290519081900360640190fd5b600e5415612b72576000612b5b611b86565b9050600e54811115612b7057612b7081612e2f565b505b600a54604080516323b872dd60e01b81523360048201523060248201526044810184905290516001600160a01b03909216916323b872dd916064808201926020929091908290030181600087803b158015612bcc57600080fd5b505af1158015612be0573d6000803e3d6000fd5b505050506040513d6020811015612bf657600080fd5b5051612c0157600080fd5b612c0a816131d0565b612c1c82612c17836121f8565b613266565b600954612c29908261260f565b6009556040805182815290516001600160a01b038416917fe1fffcc4923d04b559f4d29a8bfc6cda04eb5b0d3c460751c2402c5c5cc9109c919081900360200190a25050565b3390565b600082612c8257506000610a1f565b82820282848281612c8f57fe5b04146126695760405162461bcd60e51b8152600401808060200182810382526021815260200180613e7c6021913960400191505060405180910390fd5b600061266983836040518060400160405280601a81526020017f536166654d6174683a206469766973696f6e206279207a65726f0000000000008152506132f1565b6000612d1861231b565b85604051602001808061190160f01b81525060020183815260200182815260200192505050604051602081830303815290604052805190602001209050600060018286868660405160008152602001604052604051808581526020018460ff1681526020018381526020018281526020019450505050506020604051602081039080840390855afa158015612db1573d6000803e3d6000fd5b5050604051601f1901519150506001600160a01b03811615801590612de75750866001600160a01b0316816001600160a01b0316145b612e225760405162461bcd60e51b8152600401808060200182810382526024815260200180613e076024913960400191505060405180910390fd5b50505050505050565b4690565b60145460155460408051631c57762b60e31b8152600481019290925260006024830181905290516001600160a01b039093169263e2bbb15892604480820193929182900301818387803b158015612e8557600080fd5b505af1158015612e99573d6000803e3d6000fd5b505050506000612eba612710611b6a60125485612c7390919063ffffffff16565b90508015612f8257600b54600c546040805163a9059cbb60e01b81526001600160a01b039283166004820152602481018590529051919092169163a9059cbb9160448083019260209291908290030181600087803b158015612f1b57600080fd5b505af1158015612f2f573d6000803e3d6000fd5b505050506040513d6020811015612f4557600080fd5b5051612f825760405162461bcd60e51b8152600401808060200182810382526022815260200180613f186022913960400191505060405180910390fd5b6000612f9f612710611b6a60115486612c7390919063ffffffff16565b9050801561306e57600b546001600160a01b031663a9059cbb612fc06115f0565b836040518363ffffffff1660e01b815260040180836001600160a01b0316815260200182815260200192505050602060405180830381600087803b15801561300757600080fd5b505af115801561301b573d6000803e3d6000fd5b505050506040513d602081101561303157600080fd5b505161306e5760405162461bcd60e51b8152600401808060200182810382526024815260200180613daf6024913960400191505060405180910390fd5b600061308b612710611b6a60105487612c7390919063ffffffff16565b9050801561314e57600b546040805163a9059cbb60e01b81523360048201526024810184905290516001600160a01b039092169163a9059cbb916044808201926020929091908290030181600087803b1580156130e757600080fd5b505af11580156130fb573d6000803e3d6000fd5b505050506040513d602081101561311157600080fd5b505161314e5760405162461bcd60e51b8152600401808060200182810382526025815260200180613d646025913960400191505060405180910390fd5b600061316e6131698361316386818a8a612aab565b90612aab565b613356565b9050613179816131d0565b600954613186908261260f565b600981905560025460408051928352602083019190915280517fc7606d21ac05cd309191543e409f0845c016120563783d70e4f41419dc0ef2349281900390910190a15050505050565b6000811161320f5760405162461bcd60e51b815260040180806020018281038252602781526020018061401f6027913960400191505060405180910390fd5b60145460155460408051631c57762b60e31b8152600481019290925260248201849052516001600160a01b039092169163e2bbb1589160448082019260009290919082900301818387803b1580156129c257600080fd5b600254613273908261260f565b6002556001600160a01b038216600090815260046020526040902054613299908261260f565b6001600160a01b03831660008181526004602090815260408083209490945583518581529351929391927fddf252ad1be2c89b69c2b068fc378daa952ba7f163c4a11628f55a4df523b3ef9281900390910190a35050565b600081836133405760405162461bcd60e51b81526020600482018181528351602484015283519092839260449091019190850190808383600083156127dc5781810151838201526020016127c4565b50600083858161334c57fe5b0495945050505050565b600080613364836002612ccc565b9050600081116133a55760405162461bcd60e51b8152600401808060200182810382526037815260200180613f3a6037913960400191505060405180910390fd5b60408051600380825260808201909252606090826020820183803683375050600b5482519293506001600160a01b0316918391506000906133e257fe5b60200260200101906001600160a01b031690816001600160a01b03168152505073b31f66aa3c1e785363f0875a1b74e27b85fd66c78160018151811061342457fe5b6001600160a01b03928316602091820292909201810191909152600a5460408051630dfe168160e01b815290519190931692630dfe1681926004808301939192829003018186803b15801561347857600080fd5b505afa15801561348c573d6000803e3d6000fd5b505050506040513d60208110156134a257600080fd5b50518151829060029081106134b357fe5b60200260200101906001600160a01b031690816001600160a01b03168152505060008390508160018403815181106134e757fe5b60200260200101516001600160a01b03168260008151811061350557fe5b60200260200101516001600160a01b031614613819576013546040805163d06ca61f60e01b815260048101878152602482019283528551604483015285516060946001600160a01b03169363d06ca61f938a938993909291606401906020808601910280838360005b8381101561358657818101518382015260200161356e565b50505050905001935050505060006040518083038186803b1580156135aa57600080fd5b505afa1580156135be573d6000803e3d6000fd5b505050506040513d6000823e601f3d908101601f1916820160405260208110156135e757600080fd5b8101908080516040519392919084600160201b82111561360657600080fd5b90830190602082018581111561361b57600080fd5b82518660208202830111600160201b8211171561363757600080fd5b82525081516020918201928201910280838360005b8381101561366457818101518382015260200161364c565b5050505090500160405250505090508060018251038151811061368357fe5b60200260200101519150601360009054906101000a90046001600160a01b03166001600160a01b03166338ed173986848630426040518663ffffffff1660e01b81526004018086815260200185815260200180602001846001600160a01b03168152602001838152602001828103825285818151815260200191508051906020019060200280838360005b8381101561372657818101518382015260200161370e565b505050509050019650505050505050600060405180830381600087803b15801561374f57600080fd5b505af1158015613763573d6000803e3d6000fd5b505050506040513d6000823e601f3d908101601f19168201604052602081101561378c57600080fd5b8101908080516040519392919084600160201b8211156137ab57600080fd5b9083019060208201858111156137c057600080fd5b82518660208202830111600160201b821117156137dc57600080fd5b82525081516020918201928201910280838360005b838110156138095781810151838201526020016137f1565b5050505090500160405250505050505b60408051600280825260608281019093529190828160200160208202803683370190505090508360008151811061384c57fe5b60200260200101518160008151811061386157fe5b6001600160a01b03928316602091820292909201810191909152600a546040805163d21220a760e01b81529051919093169263d21220a7926004808301939192829003018186803b1580156138b557600080fd5b505afa1580156138c9573d6000803e3d6000fd5b505050506040513d60208110156138df57600080fd5b50518151829060019081106138f057fe5b60200260200101906001600160a01b031690816001600160a01b031681525050600086905081600184038151811061392457fe5b60200260200101516001600160a01b03168260008151811061394257fe5b60200260200101516001600160a01b031614613c56576013546040805163d06ca61f60e01b8152600481018a8152602482019283528551604483015285516060946001600160a01b03169363d06ca61f938d938993909291606401906020808601910280838360005b838110156139c35781810151838201526020016139ab565b50505050905001935050505060006040518083038186803b1580156139e757600080fd5b505afa1580156139fb573d6000803e3d6000fd5b505050506040513d6000823e601f3d908101601f191682016040526020811015613a2457600080fd5b8101908080516040519392919084600160201b821115613a4357600080fd5b908301906020820185811115613a5857600080fd5b82518660208202830111600160201b82111715613a7457600080fd5b82525081516020918201928201910280838360005b83811015613aa1578181015183820152602001613a89565b50505050905001604052505050905080600182510381518110613ac057fe5b60200260200101519150601360009054906101000a90046001600160a01b03166001600160a01b03166338ed173989848630426040518663ffffffff1660e01b81526004018086815260200185815260200180602001846001600160a01b03168152602001838152602001828103825285818151815260200191508051906020019060200280838360005b83811015613b63578181015183820152602001613b4b565b505050509050019650505050505050600060405180830381600087803b158015613b8c57600080fd5b505af1158015613ba0573d6000803e3d6000fd5b505050506040513d6000823e601f3d908101601f191682016040526020811015613bc957600080fd5b8101908080516040519392919084600160201b821115613be857600080fd5b908301906020820185811115613bfd57600080fd5b82518660208202830111600160201b82111715613c1957600080fd5b82525081516020918201928201910280838360005b83811015613c46578181015183820152602001613c2e565b5050505090500160405250505050505b60135485516000916001600160a01b03169063e8e337009088906000198b01908110613c7e57fe5b6020026020010151856001880381518110613c9557fe5b6020026020010151888660008030426040518963ffffffff1660e01b815260040180896001600160a01b03168152602001886001600160a01b03168152602001878152602001868152602001858152602001848152602001836001600160a01b0316815260200182815260200198505050505050505050606060405180830381600087803b158015613d2657600080fd5b505af1158015613d3a573d6000803e3d6000fd5b505050506040513d6060811015613d5057600080fd5b50604001519a995050505050505050505056fe4c796469615374726174656779466f724c503a3a5f7265696e766573742c207265776172644f776e61626c653a206e6577206f776e657220697320746865207a65726f20616464726573734c796469615374726174656779466f724c503a3a5f7265696e766573742c2061646d696e5065726d697373696f6e65643a3a72656d6f76654465706f7369746f722c206e6f20616c6c6f776564206465706f7369746f7273417263683a3a76616c69646174655369673a20696e76616c6964207369676e61747572655065726d697373696f6e65643a3a72656d6f76654465706f7369746f722c206e6f7420616c6c6f7765645f6275726e3a206275726e20616d6f756e74206578636565647320746f74616c20737570706c79536166654d6174683a206d756c7469706c69636174696f6e206f766572666c6f774f776e61626c653a2063616c6c6572206973206e6f7420746865206f776e65724c796469615374726174656779466f724c503a3a7265736375654465706c6f79656446756e64735f7472616e73666572546f6b656e733a2063616e6e6f74207472616e7366657220746f20746865207a65726f20616464726573734c796469615374726174656779466f724c503a3a5f7265696e766573742c206465764c796469615374726174656779466f724c503a3a5f636f6e76657274526577617264546f6b656e73546f4465706f736974546f6b656e737472616e7366657246726f6d3a207472616e7366657220616d6f756e74206578636565647320616c6c6f77616e63654c796469615374726174656779466f724c503a3a5f77697468647261774465706f736974546f6b656e735f6275726e3a206275726e20616d6f756e7420657863656564732066726f6d2062616c616e63655f7472616e73666572546f6b656e733a207472616e7366657220657863656564732066726f6d2062616c616e63654c796469615374726174656779466f724c503a3a5f7374616b654465706f736974546f6b656e73a26469706673582212201f5462add6b5ceb3fe0842cd4a7d3c875207448b488b8d755dc9c5b7b80c597064736f6c634300070300334f776e61626c653a206e6577206f776e657220697320746865207a65726f20616464726573734f776e61626c653a2063616c6c6572206973206e6f7420746865206f776e65728be0079c531659141344cd1fd0a4f28419497f9722a3daafe3b4186f6b6457e0",
  "devdoc": {
    "kind": "dev",
    "methods": {
      "allowDepositor(address)": {
        "params": {
          "depositor": "address"
        }
      },
      "allowance(address,address)": {
        "params": {
          "account": "The address of the account holding the funds",
          "spender": "The address of the account spending the funds"
        },
        "returns": {
          "_0": "The number of tokens approved"
        }
      },
      "approve(address,uint256)": {
        "details": "This will overwrite the approval amount for `spender` and is subject to issues noted [here](https://eips.ethereum.org/EIPS/eip-20#approve) It is recommended to use increaseAllowance and decreaseAllowance instead",
        "params": {
          "amount": "The number of tokens that are approved (2^256-1 means infinite)",
          "spender": "The address of the account which may transfer tokens"
        },
        "returns": {
          "_0": "Whether or not the approval succeeded"
        }
      },
      "balanceOf(address)": {
        "params": {
          "account": "The address of the account to get the balance of"
        },
        "returns": {
          "_0": "The number of tokens held"
        }
      },
      "checkReward()": {
        "returns": {
          "_0": "reward tokens"
        }
      },
      "deposit(uint256)": {
        "params": {
          "amount": "Amount of tokens to deposit"
        }
      },
      "depositFor(address,uint256)": {
        "details": "Must mint receipt tokens to `account`",
        "params": {
          "account": "address to receive receipt tokens",
          "amount": "deposit tokens"
        }
      },
      "depositWithPermit(uint256,uint256,uint8,bytes32,bytes32)": {
        "params": {
          "amount": "Amount of tokens to deposit",
          "deadline": "The time at which to expire the signature",
          "r": "Half of the ECDSA signature pair",
          "s": "Half of the ECDSA signature pair",
          "v": "The recovery byte of the signature"
        }
      },
      "estimateDeployedBalance()": {
        "returns": {
          "_0": "deposit tokens"
        }
      },
      "estimateReinvestReward()": {
        "returns": {
          "_0": "reward tokens"
        }
      },
      "getDepositTokensForShares(uint256)": {
        "params": {
          "amount": "receipt tokens"
        },
        "returns": {
          "_0": "deposit tokens"
        }
      },
      "getDomainSeparator()": {
        "returns": {
          "_0": "Separator"
        }
      },
      "getSharesForDepositTokens(uint256)": {
        "details": "If contract is empty, use 1:1 ratioCould return zero shares for very low amounts of deposit tokens",
        "params": {
          "amount": "deposit tokens"
        },
        "returns": {
          "_0": "receipt tokens"
        }
      },
      "owner()": {
        "details": "Returns the address of the current owner."
      },
      "permit(address,address,uint256,uint256,uint8,bytes32,bytes32)": {
        "params": {
          "deadline": "The time at which to expire the signature",
          "owner": "The address to approve from",
          "r": "Half of the ECDSA signature pair",
          "s": "Half of the ECDSA signature pair",
          "spender": "The address to be approved",
          "v": "The recovery byte of the signature",
          "value": "The number of tokens that are approved (2^256-1 means infinite)"
        }
      },
      "recoverAVAX(uint256)": {
        "params": {
          "amount": "amount"
        }
      },
      "recoverERC20(address,uint256)": {
        "params": {
          "tokenAddress": "token address",
          "tokenAmount": "amount to recover"
        }
      },
      "removeDepositor(address)": {
        "params": {
          "depositor": "address"
        }
      },
      "renounceOwnership()": {
        "details": "Leaves the contract without owner. It will not be possible to call `onlyOwner` functions anymore. Can only be called by the current owner. NOTE: Renouncing ownership will leave the contract without an owner, thereby removing any functionality that is only available to the owner."
      },
      "rescueDeployedFunds(uint256,bool)": {
        "params": {
          "disableDeposits": "bool",
          "minReturnAmountAccepted": "min deposit tokens to receive"
        }
      },
      "revokeAllowance(address,address)": {
        "params": {
          "spender": "address",
          "token": "address"
        }
      },
      "setAllowances()": {
        "details": "Restricted to avoid griefing attacks"
      },
      "transfer(address,uint256)": {
        "params": {
          "amount": "The number of tokens to transfer",
          "dst": "The address of the destination account"
        },
        "returns": {
          "_0": "Whether or not the transfer succeeded"
        }
      },
      "transferFrom(address,address,uint256)": {
        "params": {
          "amount": "The number of tokens to transfer",
          "dst": "The address of the destination account",
          "src": "The address of the source account"
        },
        "returns": {
          "_0": "Whether or not the transfer succeeded"
        }
      },
      "transferOwnership(address)": {
        "details": "Transfers ownership of the contract to a new account (`newOwner`). Can only be called by the current owner."
      },
      "updateAdminFee(uint256)": {
        "params": {
          "newValue": "fee in BIPS"
        }
      },
      "updateDepositsEnabled(bool)": {
        "params": {
          "newValue": "bool"
        }
      },
      "updateDevAddr(address)": {
        "params": {
          "newValue": "address"
        }
      },
      "updateDevFee(uint256)": {
        "params": {
          "newValue": "fee in BIPS"
        }
      },
      "updateMaxTokensToDepositWithoutReinvest(uint256)": {
        "params": {
          "newValue": "threshold"
        }
      },
      "updateMinTokensToReinvest(uint256)": {
        "params": {
          "newValue": "threshold"
        }
      },
      "updateReinvestReward(uint256)": {
        "params": {
          "newValue": "fee in BIPS"
        }
      },
      "withdraw(uint256)": {
        "params": {
          "amount": "receipt tokens"
        }
      }
    },
    "version": 1
  },
  "userdoc": {
    "kind": "user",
    "methods": {
      "DOMAIN_TYPEHASH()": {
        "notice": "keccak256(\"EIP712Domain(string name,string version,uint256 chainId,address verifyingContract)\")"
      },
      "PERMIT_TYPEHASH()": {
        "notice": "keccak256(\"Permit(address owner,address spender,uint256 value,uint256 nonce,uint256 deadline)\");"
      },
      "VERSION_HASH()": {
        "notice": "keccak256(\"1\");"
      },
      "allowDepositor(address)": {
        "notice": "Add an allowed depositor"
      },
      "allowance(address,address)": {
        "notice": "Get the number of tokens `spender` is approved to spend on behalf of `account`"
      },
      "approve(address,uint256)": {
        "notice": "Approve `spender` to transfer up to `amount` from `src`"
      },
      "balanceOf(address)": {
        "notice": "Get the number of tokens held by the `account`"
      },
      "checkReward()": {
        "notice": "Reward tokens avialable to strategy, including balance"
      },
      "deposit(uint256)": {
        "notice": "Deposit tokens to receive receipt tokens"
      },
      "depositFor(address,uint256)": {
        "notice": "Deposit on behalf of another account"
      },
      "depositWithPermit(uint256,uint256,uint8,bytes32,bytes32)": {
        "notice": "Deposit using Permit"
      },
      "estimateDeployedBalance()": {
        "notice": "Estimate recoverable balance"
      },
      "estimateReinvestReward()": {
        "notice": "Estimate reinvest reward"
      },
      "getDepositTokensForShares(uint256)": {
        "notice": "Calculate deposit tokens for a given amount of receipt tokens"
      },
      "getDomainSeparator()": {
        "notice": "EIP-712 Domain separator"
      },
      "getSharesForDepositTokens(uint256)": {
        "notice": "Calculate receipt tokens for a given amount of deposit tokens"
      },
      "permit(address,address,uint256,uint256,uint8,bytes32,bytes32)": {
        "notice": "Triggers an approval from owner to spender"
      },
      "recoverAVAX(uint256)": {
        "notice": "Recover AVAX from contract"
      },
      "recoverERC20(address,uint256)": {
        "notice": "Recover ERC20 from contract"
      },
      "reinvest()": {
        "notice": "Reinvest reward tokens into deposit tokens"
      },
      "removeDepositor(address)": {
        "notice": "Remove an allowed depositor"
      },
      "rescueDeployedFunds(uint256,bool)": {
        "notice": "Rescue all available deployed deposit tokens back to Strategy"
      },
      "revokeAllowance(address,address)": {
        "notice": "Revoke token allowance"
      },
      "setAllowances()": {
        "notice": "Approve tokens for use in Strategy"
      },
      "transfer(address,uint256)": {
        "notice": "Transfer `amount` tokens from `msg.sender` to `dst`"
      },
      "transferFrom(address,address,uint256)": {
        "notice": "Transfer `amount` tokens from `src` to `dst`"
      },
      "updateAdminFee(uint256)": {
        "notice": "Update admin fee"
      },
      "updateDepositsEnabled(bool)": {
        "notice": "Enable/disable deposits"
      },
      "updateDevAddr(address)": {
        "notice": "Update devAddr"
      },
      "updateDevFee(uint256)": {
        "notice": "Update developer fee"
      },
      "updateMaxTokensToDepositWithoutReinvest(uint256)": {
        "notice": "Update reinvest max threshold before a deposit"
      },
      "updateMinTokensToReinvest(uint256)": {
        "notice": "Update reinvest min threshold"
      },
      "updateReinvestReward(uint256)": {
        "notice": "Update reinvest reward"
      },
      "withdraw(uint256)": {
        "notice": "Redeem receipt tokens for deposit tokens"
      }
    },
    "notice": "Token0 strategy for Lydia Farms",
    "version": 1
  },
  "storageLayout": {
    "storage": [
      {
        "astId": 15814,
        "contract": "contracts/strategies/LydiaStrategyForLPa.sol:LydiaStrategyForLPa",
        "label": "name",
        "offset": 0,
        "slot": "0",
        "type": "t_string_storage"
      },
      {
        "astId": 15817,
        "contract": "contracts/strategies/LydiaStrategyForLPa.sol:LydiaStrategyForLPa",
        "label": "symbol",
        "offset": 0,
        "slot": "1",
        "type": "t_string_storage"
      },
      {
        "astId": 15822,
        "contract": "contracts/strategies/LydiaStrategyForLPa.sol:LydiaStrategyForLPa",
        "label": "totalSupply",
        "offset": 0,
        "slot": "2",
        "type": "t_uint256"
      },
      {
        "astId": 15828,
        "contract": "contracts/strategies/LydiaStrategyForLPa.sol:LydiaStrategyForLPa",
        "label": "allowances",
        "offset": 0,
        "slot": "3",
        "type": "t_mapping(t_address,t_mapping(t_address,t_uint256))"
      },
      {
        "astId": 15832,
        "contract": "contracts/strategies/LydiaStrategyForLPa.sol:LydiaStrategyForLPa",
        "label": "balances",
        "offset": 0,
        "slot": "4",
        "type": "t_mapping(t_address,t_uint256)"
      },
      {
        "astId": 15848,
        "contract": "contracts/strategies/LydiaStrategyForLPa.sol:LydiaStrategyForLPa",
        "label": "nonces",
        "offset": 0,
        "slot": "5",
        "type": "t_mapping(t_address,t_uint256)"
      },
      {
        "astId": 19236,
        "contract": "contracts/strategies/LydiaStrategyForLPa.sol:LydiaStrategyForLPa",
        "label": "_owner",
        "offset": 0,
        "slot": "6",
        "type": "t_address"
      },
      {
        "astId": 19349,
        "contract": "contracts/strategies/LydiaStrategyForLPa.sol:LydiaStrategyForLPa",
        "label": "numberOfAllowedDepositors",
        "offset": 0,
        "slot": "7",
        "type": "t_uint256"
      },
      {
        "astId": 19353,
        "contract": "contracts/strategies/LydiaStrategyForLPa.sol:LydiaStrategyForLPa",
        "label": "allowedDepositors",
        "offset": 0,
        "slot": "8",
        "type": "t_mapping(t_address,t_bool)"
      },
      {
        "astId": 16342,
        "contract": "contracts/strategies/LydiaStrategyForLPa.sol:LydiaStrategyForLPa",
        "label": "totalDeposits",
        "offset": 0,
        "slot": "9",
        "type": "t_uint256"
      },
      {
        "astId": 16344,
        "contract": "contracts/strategies/LydiaStrategyForLPa.sol:LydiaStrategyForLPa",
        "label": "depositToken",
        "offset": 0,
        "slot": "10",
        "type": "t_contract(IERC20)17853"
      },
      {
        "astId": 16346,
        "contract": "contracts/strategies/LydiaStrategyForLPa.sol:LydiaStrategyForLPa",
        "label": "rewardToken",
        "offset": 0,
        "slot": "11",
        "type": "t_contract(IERC20)17853"
      },
      {
        "astId": 16348,
        "contract": "contracts/strategies/LydiaStrategyForLPa.sol:LydiaStrategyForLPa",
        "label": "devAddr",
        "offset": 0,
        "slot": "12",
        "type": "t_address"
      },
      {
        "astId": 16350,
        "contract": "contracts/strategies/LydiaStrategyForLPa.sol:LydiaStrategyForLPa",
        "label": "MIN_TOKENS_TO_REINVEST",
        "offset": 0,
        "slot": "13",
        "type": "t_uint256"
      },
      {
        "astId": 16352,
        "contract": "contracts/strategies/LydiaStrategyForLPa.sol:LydiaStrategyForLPa",
        "label": "MAX_TOKENS_TO_DEPOSIT_WITHOUT_REINVEST",
        "offset": 0,
        "slot": "14",
        "type": "t_uint256"
      },
      {
        "astId": 16354,
        "contract": "contracts/strategies/LydiaStrategyForLPa.sol:LydiaStrategyForLPa",
        "label": "DEPOSITS_ENABLED",
        "offset": 0,
        "slot": "15",
        "type": "t_bool"
      },
      {
        "astId": 16356,
        "contract": "contracts/strategies/LydiaStrategyForLPa.sol:LydiaStrategyForLPa",
        "label": "REINVEST_REWARD_BIPS",
        "offset": 0,
        "slot": "16",
        "type": "t_uint256"
      },
      {
        "astId": 16358,
        "contract": "contracts/strategies/LydiaStrategyForLPa.sol:LydiaStrategyForLPa",
        "label": "ADMIN_FEE_BIPS",
        "offset": 0,
        "slot": "17",
        "type": "t_uint256"
      },
      {
        "astId": 16360,
        "contract": "contracts/strategies/LydiaStrategyForLPa.sol:LydiaStrategyForLPa",
        "label": "DEV_FEE_BIPS",
        "offset": 0,
        "slot": "18",
        "type": "t_uint256"
      },
      {
        "astId": 22433,
        "contract": "contracts/strategies/LydiaStrategyForLPa.sol:LydiaStrategyForLPa",
        "label": "router",
        "offset": 0,
        "slot": "19",
        "type": "t_contract(IRouter)18830"
      },
      {
        "astId": 22435,
        "contract": "contracts/strategies/LydiaStrategyForLPa.sol:LydiaStrategyForLPa",
        "label": "stakingContract",
        "offset": 0,
        "slot": "20",
        "type": "t_contract(ILydiaChef)18150"
      },
      {
        "astId": 22440,
        "contract": "contracts/strategies/LydiaStrategyForLPa.sol:LydiaStrategyForLPa",
        "label": "PID",
        "offset": 0,
        "slot": "21",
        "type": "t_uint256"
      }
    ],
    "types": {
      "t_address": {
        "encoding": "inplace",
        "label": "address",
        "numberOfBytes": "20"
      },
      "t_bool": {
        "encoding": "inplace",
        "label": "bool",
        "numberOfBytes": "1"
      },
      "t_contract(IERC20)17853": {
        "encoding": "inplace",
        "label": "contract IERC20",
        "numberOfBytes": "20"
      },
      "t_contract(ILydiaChef)18150": {
        "encoding": "inplace",
        "label": "contract ILydiaChef",
        "numberOfBytes": "20"
      },
      "t_contract(IRouter)18830": {
        "encoding": "inplace",
        "label": "contract IRouter",
        "numberOfBytes": "20"
      },
      "t_mapping(t_address,t_bool)": {
        "encoding": "mapping",
        "key": "t_address",
        "label": "mapping(address => bool)",
        "numberOfBytes": "32",
        "value": "t_bool"
      },
      "t_mapping(t_address,t_mapping(t_address,t_uint256))": {
        "encoding": "mapping",
        "key": "t_address",
        "label": "mapping(address => mapping(address => uint256))",
        "numberOfBytes": "32",
        "value": "t_mapping(t_address,t_uint256)"
      },
      "t_mapping(t_address,t_uint256)": {
        "encoding": "mapping",
        "key": "t_address",
        "label": "mapping(address => uint256)",
        "numberOfBytes": "32",
        "value": "t_uint256"
      },
      "t_string_storage": {
        "encoding": "bytes",
        "label": "string",
        "numberOfBytes": "32"
      },
      "t_uint256": {
        "encoding": "inplace",
        "label": "uint256",
        "numberOfBytes": "32"
      }
    }
  }
}