{
  "address": "0x3a8D3FBaB8b87473b9B2D78393200B099fA98497",
  "abi": [
    {
      "inputs": [
        {
          "internalType": "address",
          "name": "_depositToken",
          "type": "address"
        },
        {
          "internalType": "address",
          "name": "_rewardToken",
          "type": "address"
        },
        {
          "internalType": "address",
          "name": "_stakingContract",
          "type": "address"
        },
        {
          "internalType": "address",
          "name": "_router",
          "type": "address"
        },
        {
          "internalType": "uint256",
          "name": "_pid",
          "type": "uint256"
        }
      ],
      "stateMutability": "nonpayable",
      "type": "constructor"
    },
    {
      "anonymous": false,
      "inputs": [
        {
          "indexed": true,
          "internalType": "address",
          "name": "owner",
          "type": "address"
        },
        {
          "indexed": true,
          "internalType": "address",
          "name": "spender",
          "type": "address"
        },
        {
          "indexed": false,
          "internalType": "uint256",
          "name": "value",
          "type": "uint256"
        }
      ],
      "name": "Approval",
      "type": "event"
    },
    {
      "anonymous": false,
      "inputs": [
        {
          "indexed": true,
          "internalType": "address",
          "name": "account",
          "type": "address"
        },
        {
          "indexed": false,
          "internalType": "uint256",
          "name": "amount",
          "type": "uint256"
        }
      ],
      "name": "Deposit",
      "type": "event"
    },
    {
      "anonymous": false,
      "inputs": [
        {
          "indexed": true,
          "internalType": "address",
          "name": "previousOwner",
          "type": "address"
        },
        {
          "indexed": true,
          "internalType": "address",
          "name": "newOwner",
          "type": "address"
        }
      ],
      "name": "OwnershipTransferred",
      "type": "event"
    },
    {
      "anonymous": false,
      "inputs": [
        {
          "indexed": false,
          "internalType": "address",
          "name": "token",
          "type": "address"
        },
        {
          "indexed": false,
          "internalType": "uint256",
          "name": "amount",
          "type": "uint256"
        }
      ],
      "name": "Recovered",
      "type": "event"
    },
    {
      "anonymous": false,
      "inputs": [
        {
          "indexed": false,
          "internalType": "uint256",
          "name": "newTotalDeposits",
          "type": "uint256"
        },
        {
          "indexed": false,
          "internalType": "uint256",
          "name": "newTotalSupply",
          "type": "uint256"
        }
      ],
      "name": "Reinvest",
      "type": "event"
    },
    {
      "anonymous": false,
      "inputs": [
        {
          "indexed": true,
          "internalType": "address",
          "name": "from",
          "type": "address"
        },
        {
          "indexed": true,
          "internalType": "address",
          "name": "to",
          "type": "address"
        },
        {
          "indexed": false,
          "internalType": "uint256",
          "name": "value",
          "type": "uint256"
        }
      ],
      "name": "Transfer",
      "type": "event"
    },
    {
      "anonymous": false,
      "inputs": [
        {
          "indexed": false,
          "internalType": "uint256",
          "name": "oldValue",
          "type": "uint256"
        },
        {
          "indexed": false,
          "internalType": "uint256",
          "name": "newValue",
          "type": "uint256"
        }
      ],
      "name": "UpdateAdminFee",
      "type": "event"
    },
    {
      "anonymous": false,
      "inputs": [
        {
          "indexed": false,
          "internalType": "uint256",
          "name": "oldValue",
          "type": "uint256"
        },
        {
          "indexed": false,
          "internalType": "uint256",
          "name": "newValue",
          "type": "uint256"
        }
      ],
      "name": "UpdateMinTokensToReinvest",
      "type": "event"
    },
    {
      "anonymous": false,
      "inputs": [
        {
          "indexed": false,
          "internalType": "uint256",
          "name": "oldValue",
          "type": "uint256"
        },
        {
          "indexed": false,
          "internalType": "uint256",
          "name": "newValue",
          "type": "uint256"
        }
      ],
      "name": "UpdateMinTokensToReinvestBeforeDeposit",
      "type": "event"
    },
    {
      "anonymous": false,
      "inputs": [
        {
          "indexed": false,
          "internalType": "uint256",
          "name": "oldValue",
          "type": "uint256"
        },
        {
          "indexed": false,
          "internalType": "uint256",
          "name": "newValue",
          "type": "uint256"
        }
      ],
      "name": "UpdateReinvestReward",
      "type": "event"
    },
    {
      "anonymous": false,
      "inputs": [
        {
          "indexed": false,
          "internalType": "bool",
          "name": "newValue",
          "type": "bool"
        }
      ],
      "name": "UpdateRequireReinvestBeforeDeposit",
      "type": "event"
    },
    {
      "anonymous": false,
      "inputs": [
        {
          "indexed": true,
          "internalType": "address",
          "name": "account",
          "type": "address"
        },
        {
          "indexed": false,
          "internalType": "uint256",
          "name": "amount",
          "type": "uint256"
        }
      ],
      "name": "Withdraw",
      "type": "event"
    },
    {
      "inputs": [],
      "name": "ADMIN_FEE_BIPS",
      "outputs": [
        {
          "internalType": "uint256",
          "name": "",
          "type": "uint256"
        }
      ],
      "stateMutability": "view",
      "type": "function"
    },
    {
      "inputs": [],
      "name": "DOMAIN_TYPEHASH",
      "outputs": [
        {
          "internalType": "bytes32",
          "name": "",
          "type": "bytes32"
        }
      ],
      "stateMutability": "view",
      "type": "function"
    },
    {
      "inputs": [],
      "name": "MIN_TOKENS_TO_REINVEST",
      "outputs": [
        {
          "internalType": "uint256",
          "name": "",
          "type": "uint256"
        }
      ],
      "stateMutability": "view",
      "type": "function"
    },
    {
      "inputs": [],
      "name": "MIN_TOKENS_TO_REINVEST_BEFORE_DEPOSIT",
      "outputs": [
        {
          "internalType": "uint256",
          "name": "",
          "type": "uint256"
        }
      ],
      "stateMutability": "view",
      "type": "function"
    },
    {
      "inputs": [],
      "name": "PERMIT_TYPEHASH",
      "outputs": [
        {
          "internalType": "bytes32",
          "name": "",
          "type": "bytes32"
        }
      ],
      "stateMutability": "view",
      "type": "function"
    },
    {
      "inputs": [],
      "name": "PID",
      "outputs": [
        {
          "internalType": "uint256",
          "name": "",
          "type": "uint256"
        }
      ],
      "stateMutability": "view",
      "type": "function"
    },
    {
      "inputs": [],
      "name": "REINVEST_REWARD_BIPS",
      "outputs": [
        {
          "internalType": "uint256",
          "name": "",
          "type": "uint256"
        }
      ],
      "stateMutability": "view",
      "type": "function"
    },
    {
      "inputs": [],
      "name": "REQUIRE_REINVEST_BEFORE_DEPOSIT",
      "outputs": [
        {
          "internalType": "bool",
          "name": "",
          "type": "bool"
        }
      ],
      "stateMutability": "view",
      "type": "function"
    },
    {
      "inputs": [],
      "name": "VERSION_HASH",
      "outputs": [
        {
          "internalType": "bytes32",
          "name": "",
          "type": "bytes32"
        }
      ],
      "stateMutability": "view",
      "type": "function"
    },
    {
      "inputs": [
        {
          "internalType": "address",
          "name": "account",
          "type": "address"
        },
        {
          "internalType": "address",
          "name": "spender",
          "type": "address"
        }
      ],
      "name": "allowance",
      "outputs": [
        {
          "internalType": "uint256",
          "name": "",
          "type": "uint256"
        }
      ],
      "stateMutability": "view",
      "type": "function"
    },
    {
      "inputs": [
        {
          "internalType": "address",
          "name": "spender",
          "type": "address"
        },
        {
          "internalType": "uint256",
          "name": "amount",
          "type": "uint256"
        }
      ],
      "name": "approve",
      "outputs": [
        {
          "internalType": "bool",
          "name": "",
          "type": "bool"
        }
      ],
      "stateMutability": "nonpayable",
      "type": "function"
    },
    {
      "inputs": [
        {
          "internalType": "address",
          "name": "account",
          "type": "address"
        }
      ],
      "name": "balanceOf",
      "outputs": [
        {
          "internalType": "uint256",
          "name": "",
          "type": "uint256"
        }
      ],
      "stateMutability": "view",
      "type": "function"
    },
    {
      "inputs": [],
      "name": "checkReward",
      "outputs": [
        {
          "internalType": "uint256",
          "name": "",
          "type": "uint256"
        }
      ],
      "stateMutability": "view",
      "type": "function"
    },
    {
      "inputs": [],
      "name": "decimals",
      "outputs": [
        {
          "internalType": "uint8",
          "name": "",
          "type": "uint8"
        }
      ],
      "stateMutability": "view",
      "type": "function"
    },
    {
      "inputs": [
        {
          "internalType": "uint256",
          "name": "amount",
          "type": "uint256"
        }
      ],
      "name": "deposit",
      "outputs": [],
      "stateMutability": "nonpayable",
      "type": "function"
    },
    {
      "inputs": [],
      "name": "depositToken",
      "outputs": [
        {
          "internalType": "contract IPair",
          "name": "",
          "type": "address"
        }
      ],
      "stateMutability": "view",
      "type": "function"
    },
    {
      "inputs": [
        {
          "internalType": "uint256",
          "name": "amount",
          "type": "uint256"
        },
        {
          "internalType": "uint256",
          "name": "deadline",
          "type": "uint256"
        },
        {
          "internalType": "uint8",
          "name": "v",
          "type": "uint8"
        },
        {
          "internalType": "bytes32",
          "name": "r",
          "type": "bytes32"
        },
        {
          "internalType": "bytes32",
          "name": "s",
          "type": "bytes32"
        }
      ],
      "name": "depositWithPermit",
      "outputs": [],
      "stateMutability": "nonpayable",
      "type": "function"
    },
    {
      "inputs": [],
      "name": "emergencyWithdraw",
      "outputs": [],
      "stateMutability": "nonpayable",
      "type": "function"
    },
    {
      "inputs": [],
      "name": "estimateReinvestReward",
      "outputs": [
        {
          "internalType": "uint256",
          "name": "",
          "type": "uint256"
        }
      ],
      "stateMutability": "view",
      "type": "function"
    },
    {
      "inputs": [
        {
          "internalType": "uint256",
          "name": "amount",
          "type": "uint256"
        }
      ],
      "name": "getDepositTokensForShares",
      "outputs": [
        {
          "internalType": "uint256",
          "name": "",
          "type": "uint256"
        }
      ],
      "stateMutability": "view",
      "type": "function"
    },
    {
      "inputs": [],
      "name": "getDomainSeparator",
      "outputs": [
        {
          "internalType": "bytes32",
          "name": "",
          "type": "bytes32"
        }
      ],
      "stateMutability": "view",
      "type": "function"
    },
    {
      "inputs": [
        {
          "internalType": "uint256",
          "name": "amount",
          "type": "uint256"
        }
      ],
      "name": "getSharesForDepositTokens",
      "outputs": [
        {
          "internalType": "uint256",
          "name": "",
          "type": "uint256"
        }
      ],
      "stateMutability": "view",
      "type": "function"
    },
    {
      "inputs": [],
      "name": "name",
      "outputs": [
        {
          "internalType": "string",
          "name": "",
          "type": "string"
        }
      ],
      "stateMutability": "view",
      "type": "function"
    },
    {
      "inputs": [
        {
          "internalType": "address",
          "name": "",
          "type": "address"
        }
      ],
      "name": "nonces",
      "outputs": [
        {
          "internalType": "uint256",
          "name": "",
          "type": "uint256"
        }
      ],
      "stateMutability": "view",
      "type": "function"
    },
    {
      "inputs": [],
      "name": "owner",
      "outputs": [
        {
          "internalType": "address",
          "name": "",
          "type": "address"
        }
      ],
      "stateMutability": "view",
      "type": "function"
    },
    {
      "inputs": [
        {
          "internalType": "address",
          "name": "owner",
          "type": "address"
        },
        {
          "internalType": "address",
          "name": "spender",
          "type": "address"
        },
        {
          "internalType": "uint256",
          "name": "value",
          "type": "uint256"
        },
        {
          "internalType": "uint256",
          "name": "deadline",
          "type": "uint256"
        },
        {
          "internalType": "uint8",
          "name": "v",
          "type": "uint8"
        },
        {
          "internalType": "bytes32",
          "name": "r",
          "type": "bytes32"
        },
        {
          "internalType": "bytes32",
          "name": "s",
          "type": "bytes32"
        }
      ],
      "name": "permit",
      "outputs": [],
      "stateMutability": "nonpayable",
      "type": "function"
    },
    {
      "inputs": [
        {
          "internalType": "uint256",
          "name": "amount",
          "type": "uint256"
        }
      ],
      "name": "recoverAVAX",
      "outputs": [],
      "stateMutability": "nonpayable",
      "type": "function"
    },
    {
      "inputs": [
        {
          "internalType": "address",
          "name": "tokenAddress",
          "type": "address"
        },
        {
          "internalType": "uint256",
          "name": "tokenAmount",
          "type": "uint256"
        }
      ],
      "name": "recoverERC20",
      "outputs": [],
      "stateMutability": "nonpayable",
      "type": "function"
    },
    {
      "inputs": [],
      "name": "reinvest",
      "outputs": [],
      "stateMutability": "nonpayable",
      "type": "function"
    },
    {
      "inputs": [],
      "name": "renounceOwnership",
      "outputs": [],
      "stateMutability": "nonpayable",
      "type": "function"
    },
    {
      "inputs": [
        {
          "internalType": "address",
          "name": "token",
          "type": "address"
        },
        {
          "internalType": "address",
          "name": "spender",
          "type": "address"
        }
      ],
      "name": "revokeAllowance",
      "outputs": [],
      "stateMutability": "nonpayable",
      "type": "function"
    },
    {
      "inputs": [],
      "name": "rewardToken",
      "outputs": [
        {
          "internalType": "contract IERC20",
          "name": "",
          "type": "address"
        }
      ],
      "stateMutability": "view",
      "type": "function"
    },
    {
      "inputs": [],
      "name": "router",
      "outputs": [
        {
          "internalType": "contract IRouter",
          "name": "",
          "type": "address"
        }
      ],
      "stateMutability": "view",
      "type": "function"
    },
    {
      "inputs": [],
      "name": "setAllowances",
      "outputs": [],
      "stateMutability": "nonpayable",
      "type": "function"
    },
    {
      "inputs": [],
      "name": "stakingContract",
      "outputs": [
        {
          "internalType": "contract IOliveChef",
          "name": "",
          "type": "address"
        }
      ],
      "stateMutability": "view",
      "type": "function"
    },
    {
      "inputs": [],
      "name": "symbol",
      "outputs": [
        {
          "internalType": "string",
          "name": "",
          "type": "string"
        }
      ],
      "stateMutability": "view",
      "type": "function"
    },
    {
      "inputs": [],
      "name": "totalDeposits",
      "outputs": [
        {
          "internalType": "uint256",
          "name": "",
          "type": "uint256"
        }
      ],
      "stateMutability": "view",
      "type": "function"
    },
    {
      "inputs": [],
      "name": "totalSupply",
      "outputs": [
        {
          "internalType": "uint256",
          "name": "",
          "type": "uint256"
        }
      ],
      "stateMutability": "view",
      "type": "function"
    },
    {
      "inputs": [
        {
          "internalType": "address",
          "name": "dst",
          "type": "address"
        },
        {
          "internalType": "uint256",
          "name": "amount",
          "type": "uint256"
        }
      ],
      "name": "transfer",
      "outputs": [
        {
          "internalType": "bool",
          "name": "",
          "type": "bool"
        }
      ],
      "stateMutability": "nonpayable",
      "type": "function"
    },
    {
      "inputs": [
        {
          "internalType": "address",
          "name": "src",
          "type": "address"
        },
        {
          "internalType": "address",
          "name": "dst",
          "type": "address"
        },
        {
          "internalType": "uint256",
          "name": "amount",
          "type": "uint256"
        }
      ],
      "name": "transferFrom",
      "outputs": [
        {
          "internalType": "bool",
          "name": "",
          "type": "bool"
        }
      ],
      "stateMutability": "nonpayable",
      "type": "function"
    },
    {
      "inputs": [
        {
          "internalType": "address",
          "name": "newOwner",
          "type": "address"
        }
      ],
      "name": "transferOwnership",
      "outputs": [],
      "stateMutability": "nonpayable",
      "type": "function"
    },
    {
      "inputs": [
        {
          "internalType": "uint256",
          "name": "newValue",
          "type": "uint256"
        }
      ],
      "name": "updateAdminFee",
      "outputs": [],
      "stateMutability": "nonpayable",
      "type": "function"
    },
    {
      "inputs": [
        {
          "internalType": "uint256",
          "name": "newValue",
          "type": "uint256"
        }
      ],
      "name": "updateMinTokensToReinvest",
      "outputs": [],
      "stateMutability": "nonpayable",
      "type": "function"
    },
    {
      "inputs": [
        {
          "internalType": "uint256",
          "name": "newValue",
          "type": "uint256"
        }
      ],
      "name": "updateMinTokensToReinvestBeforeDeposit",
      "outputs": [],
      "stateMutability": "nonpayable",
      "type": "function"
    },
    {
      "inputs": [
        {
          "internalType": "uint256",
          "name": "newValue",
          "type": "uint256"
        }
      ],
      "name": "updateReinvestReward",
      "outputs": [],
      "stateMutability": "nonpayable",
      "type": "function"
    },
    {
      "inputs": [],
      "name": "updateRequireReinvestBeforeDeposit",
      "outputs": [],
      "stateMutability": "nonpayable",
      "type": "function"
    },
    {
      "inputs": [
        {
          "internalType": "uint256",
          "name": "amount",
          "type": "uint256"
        }
      ],
      "name": "withdraw",
      "outputs": [],
      "stateMutability": "nonpayable",
      "type": "function"
    }
  ],
  "transactionHash": "0x413262ef6a4fb0df30a2324768a074358e8d220ee681df5a873e38efba0b3b52",
  "args": [
    "0xbcD81aAA76D9C1E3aED31c315761c0D9779751B5",
    "0x617724974218A18769020A70162165A539c07E8a",
    "0x5A9710f3f23053573301C2aB5024D0a43A461E80",
    "0x0c45FB63001b56a21e29c7dcc1727bfDA273a368",
    "11"
  ],
  "solcInputHash": "cb5fc97ef768b1dce53d9cb25c1915ac",
  "bytecode": "0x60806040526040518060400160405280600981526020017f5969656c642059616b0000000000000000000000000000000000000000000000815250600090805190602001906200005192919062000b22565b506040518060400160405280600381526020017f5952540000000000000000000000000000000000000000000000000000000000815250600190805190602001906200009f92919062000b22565b50614e20600f556101f46010556101f46011556014601355348015620000c457600080fd5b50604051620067af380380620067af8339818101604052810190620000ea919062000c95565b6000620000fc6200067f60201b60201c565b905080600660006101000a81548173ffffffffffffffffffffffffffffffffffffffff021916908373ffffffffffffffffffffffffffffffffffffffff1602179055508073ffffffffffffffffffffffffffffffffffffffff16600073ffffffffffffffffffffffffffffffffffffffff167f8be0079c531659141344cd1fd0a4f28419497f9722a3daafe3b4186f6b6457e060405160405180910390a35084600960006101000a81548173ffffffffffffffffffffffffffffffffffffffff021916908373ffffffffffffffffffffffffffffffffffffffff16021790555083600c60006101000a81548173ffffffffffffffffffffffffffffffffffffffff021916908373ffffffffffffffffffffffffffffffffffffffff16021790555082600d60006101000a81548173ffffffffffffffffffffffffffffffffffffffff021916908373ffffffffffffffffffffffffffffffffffffffff16021790555081600860006101000a81548173ffffffffffffffffffffffffffffffffffffffff021916908373ffffffffffffffffffffffffffffffffffffffff16021790555080600e8190555060008573ffffffffffffffffffffffffffffffffffffffff16630dfe16816040518163ffffffff1660e01b815260040160206040518083038186803b158015620002ef57600080fd5b505afa15801562000304573d6000803e3d6000fd5b505050506040513d601f19601f820116820180604052508101906200032a919062000c69565b905060008673ffffffffffffffffffffffffffffffffffffffff1663d21220a76040518163ffffffff1660e01b815260040160206040518083038186803b1580156200037557600080fd5b505afa1580156200038a573d6000803e3d6000fd5b505050506040513d601f19601f82011682018060405250810190620003b0919062000c69565b905081600a60006101000a81548173ffffffffffffffffffffffffffffffffffffffff021916908373ffffffffffffffffffffffffffffffffffffffff16021790555080600b60006101000a81548173ffffffffffffffffffffffffffffffffffffffff021916908373ffffffffffffffffffffffffffffffffffffffff160217905550600960009054906101000a900473ffffffffffffffffffffffffffffffffffffffff1673ffffffffffffffffffffffffffffffffffffffff166395d89b416040518163ffffffff1660e01b815260040160006040518083038186803b1580156200049d57600080fd5b505afa158015620004b2573d6000803e3d6000fd5b505050506040513d6000823e3d601f19601f82011682018060405250810190620004dd919062000d43565b8273ffffffffffffffffffffffffffffffffffffffff166395d89b416040518163ffffffff1660e01b815260040160006040518083038186803b1580156200052457600080fd5b505afa15801562000539573d6000803e3d6000fd5b505050506040513d6000823e3d601f19601f8201168201806040525081019062000564919062000d43565b8273ffffffffffffffffffffffffffffffffffffffff166395d89b416040518163ffffffff1660e01b815260040160006040518083038186803b158015620005ab57600080fd5b505afa158015620005c0573d6000803e3d6000fd5b505050506040513d6000823e3d601f19601f82011682018060405250810190620005eb919062000d43565b604051602001620005ff9392919062000efa565b604051602081830303815290604052600090805190602001906200062592919062000b22565b50620006366200068760201b60201c565b7fc7606d21ac05cd309191543e409f0845c016120563783d70e4f41419dc0ef2346000806040516200066a92919062000f85565b60405180910390a15050505050505062001146565b600033905090565b620006976200067f60201b60201c565b73ffffffffffffffffffffffffffffffffffffffff16620006bd62000af860201b60201c565b73ffffffffffffffffffffffffffffffffffffffff161462000716576040517f08c379a00000000000000000000000000000000000000000000000000000000081526004016200070d9062000fb2565b60405180910390fd5b600960009054906101000a900473ffffffffffffffffffffffffffffffffffffffff1673ffffffffffffffffffffffffffffffffffffffff1663095ea7b3600d60009054906101000a900473ffffffffffffffffffffffffffffffffffffffff167fffffffffffffffffffffffffffffffffffffffffffffffffffffffffffffffff6040518363ffffffff1660e01b8152600401620007b792919062000f58565b602060405180830381600087803b158015620007d257600080fd5b505af1158015620007e7573d6000803e3d6000fd5b505050506040513d601f19601f820116820180604052508101906200080d919062000d17565b50600c60009054906101000a900473ffffffffffffffffffffffffffffffffffffffff1673ffffffffffffffffffffffffffffffffffffffff1663095ea7b3600860009054906101000a900473ffffffffffffffffffffffffffffffffffffffff167fffffffffffffffffffffffffffffffffffffffffffffffffffffffffffffffff6040518363ffffffff1660e01b8152600401620008af92919062000f58565b602060405180830381600087803b158015620008ca57600080fd5b505af1158015620008df573d6000803e3d6000fd5b505050506040513d601f19601f8201168201806040525081019062000905919062000d17565b50600a60009054906101000a900473ffffffffffffffffffffffffffffffffffffffff1673ffffffffffffffffffffffffffffffffffffffff1663095ea7b3600860009054906101000a900473ffffffffffffffffffffffffffffffffffffffff167fffffffffffffffffffffffffffffffffffffffffffffffffffffffffffffffff6040518363ffffffff1660e01b8152600401620009a792919062000f58565b602060405180830381600087803b158015620009c257600080fd5b505af1158015620009d7573d6000803e3d6000fd5b505050506040513d601f19601f82011682018060405250810190620009fd919062000d17565b50600b60009054906101000a900473ffffffffffffffffffffffffffffffffffffffff1673ffffffffffffffffffffffffffffffffffffffff1663095ea7b3600860009054906101000a900473ffffffffffffffffffffffffffffffffffffffff167fffffffffffffffffffffffffffffffffffffffffffffffffffffffffffffffff6040518363ffffffff1660e01b815260040162000a9f92919062000f58565b602060405180830381600087803b15801562000aba57600080fd5b505af115801562000acf573d6000803e3d6000fd5b505050506040513d601f19601f8201168201806040525081019062000af5919062000d17565b50565b6000600660009054906101000a900473ffffffffffffffffffffffffffffffffffffffff16905090565b828054600181600116156101000203166002900490600052602060002090601f016020900481019282601f1062000b6557805160ff191683800117855562000b96565b8280016001018555821562000b96579182015b8281111562000b9557825182559160200191906001019062000b78565b5b50905062000ba5919062000ba9565b5090565b5b8082111562000bc457600081600090555060010162000baa565b5090565b60008151905062000bd981620010f8565b92915050565b60008151905062000bf08162001112565b92915050565b600082601f83011262000c0857600080fd5b815162000c1f62000c198262001008565b62000fd4565b9150808252602083016020830185838301111562000c3c57600080fd5b62000c49838284620010c0565b50505092915050565b60008151905062000c63816200112c565b92915050565b60006020828403121562000c7c57600080fd5b600062000c8c8482850162000bc8565b91505092915050565b600080600080600060a0868803121562000cae57600080fd5b600062000cbe8882890162000bc8565b955050602062000cd18882890162000bc8565b945050604062000ce48882890162000bc8565b935050606062000cf78882890162000bc8565b925050608062000d0a8882890162000c52565b9150509295509295909350565b60006020828403121562000d2a57600080fd5b600062000d3a8482850162000bdf565b91505092915050565b60006020828403121562000d5657600080fd5b600082015167ffffffffffffffff81111562000d7157600080fd5b62000d7f8482850162000bf6565b91505092915050565b62000d938162001062565b82525050565b62000da481620010ac565b82525050565b600062000db7826200103b565b62000dc3818562001057565b935062000dd5818560208601620010c0565b80840191505092915050565b600062000df0600b8362001057565b91507f5969656c642059616b3a200000000000000000000000000000000000000000006000830152600b82019050919050565b600062000e3260018362001057565b91507f20000000000000000000000000000000000000000000000000000000000000006000830152600182019050919050565b600062000e7460208362001046565b91507f4f776e61626c653a2063616c6c6572206973206e6f7420746865206f776e65726000830152602082019050919050565b600062000eb660018362001057565b91507f2d000000000000000000000000000000000000000000000000000000000000006000830152600182019050919050565b62000ef481620010a2565b82525050565b600062000f078262000de1565b915062000f15828662000daa565b915062000f228262000e23565b915062000f30828562000daa565b915062000f3d8262000ea7565b915062000f4b828462000daa565b9150819050949350505050565b600060408201905062000f6f600083018562000d88565b62000f7e602083018462000ee9565b9392505050565b600060408201905062000f9c600083018562000d99565b62000fab602083018462000d99565b9392505050565b6000602082019050818103600083015262000fcd8162000e65565b9050919050565b6000604051905081810181811067ffffffffffffffff8211171562000ffe5762000ffd620010f6565b5b8060405250919050565b600067ffffffffffffffff821115620010265762001025620010f6565b5b601f19601f8301169050602081019050919050565b600081519050919050565b600082825260208201905092915050565b600081905092915050565b60006200106f8262001082565b9050919050565b60008115159050919050565b600073ffffffffffffffffffffffffffffffffffffffff82169050919050565b6000819050919050565b6000620010b982620010a2565b9050919050565b60005b83811015620010e0578082015181840152602081019050620010c3565b83811115620010f0576000848401525b50505050565bfe5b620011038162001062565b81146200110f57600080fd5b50565b6200111d8162001076565b81146200112957600080fd5b50565b6200113781620010a2565b81146200114357600080fd5b50565b61565980620011566000396000f3fe608060405234801561001057600080fd5b50600436106102955760003560e01c80638aff733d11610167578063d505accf116100ce578063ed24911d11610087578063ed24911d14610792578063ee99205c146107b0578063f2fde38b146107ce578063f7c618c1146107ea578063f887ea4014610808578063fdb5a03e1461082657610295565b8063d505accf146106d2578063db2e21bc146106ee578063dbd9a4d4146106f8578063dd62ed3e14610702578063dd8ce4d614610732578063eab89a5a1461076257610295565b8063b6b55f2511610120578063b6b55f2514610622578063b9e57b801461063e578063bd079f551461065c578063c4b24a461461067a578063c89039c514610698578063cff1b6ef146106b657610295565b80638aff733d1461055e5780638da5cb5b1461057c57806395d89b411461059a5780639e4e7318146105b8578063a8ae2b7c146105d6578063a9059cbb146105f257610295565b806330adf81f1161020b578063715018a6116101c4578063715018a6146104b25780637ae26773146104bc5780637d882097146104d85780637ecebe00146104f657806381837230146105265780638980f11f1461054257610295565b806330adf81f146103f0578063313ce5671461040e5780634a970be71461042c5780634ebb7916146104485780635eaec0e41461046457806370a082311461048257610295565b8063133173141161025d578063133173141461034057806318160ddd1461035e57806320606b701461037c578063236aecd51461039a57806323b872dd146103a45780632e1a7d4d146103d457610295565b806303f7d9071461029a57806306fdde03146102b657806307677111146102d4578063095ea7b3146102f25780631145180414610322575b600080fd5b6102b460048036038101906102af9190614229565b610830565b005b6102be6108f1565b6040516102cb9190614ec4565b60405180910390f35b6102dc61098f565b6040516102e99190615166565b60405180910390f35b61030c60048036038101906103079190614183565b610995565b6040516103199190614d29565b60405180910390f35b61032a6109ac565b6040516103379190615166565b60405180910390f35b6103486109b2565b6040516103559190614d29565b60405180910390f35b6103666109c5565b6040516103739190615166565b60405180910390f35b6103846109cb565b6040516103919190614d44565b60405180910390f35b6103a26109f2565b005b6103be60048036038101906103b99190614096565b610ae0565b6040516103cb9190614d29565b60405180910390f35b6103ee60048036038101906103e99190614229565b610cf9565b005b6103f8610e7e565b6040516104059190614d44565b60405180910390f35b610416610ea5565b6040516104239190615286565b60405180910390f35b610446600480360381019061044191906142ca565b610eaa565b005b610462600480360381019061045d9190614229565b610f53565b005b61046c611096565b6040516104799190615166565b60405180910390f35b61049c60048036038101906104979190614031565b61109c565b6040516104a99190615166565b60405180910390f35b6104ba6110e5565b005b6104d660048036038101906104d1919061405a565b611222565b005b6104e0611339565b6040516104ed9190615166565b60405180910390f35b610510600480360381019061050b9190614031565b61133f565b60405161051d9190615166565b60405180910390f35b610540600480360381019061053b9190614229565b611357565b005b61055c60048036038101906105579190614183565b611418565b005b610566611633565b6040516105739190615166565b60405180910390f35b610584611639565b6040516105919190614b6f565b60405180910390f35b6105a2611663565b6040516105af9190614ec4565b60405180910390f35b6105c0611701565b6040516105cd9190614d44565b60405180910390f35b6105f060048036038101906105eb9190614229565b611728565b005b61060c60048036038101906106079190614183565b611842565b6040516106199190614d29565b60405180910390f35b61063c60048036038101906106379190614229565b611859565b005b610646611865565b6040516106539190615166565b60405180910390f35b6106646118b5565b6040516106719190615166565b60405180910390f35b6106826118bb565b60405161068f9190615166565b60405180910390f35b6106a0611a38565b6040516106ad9190614e8e565b60405180910390f35b6106d060048036038101906106cb9190614229565b611a5e565b005b6106ec60048036038101906106e791906140e5565b611b78565b005b6106f6611c82565b005b610700611d97565b005b61071c6004803603810190610717919061405a565b6121dd565b6040516107299190615166565b60405180910390f35b61074c60048036038101906107479190614229565b612264565b6040516107599190615166565b60405180910390f35b61077c60048036038101906107779190614229565b6122bd565b6040516107899190615166565b60405180910390f35b61079a612317565b6040516107a79190614d44565b60405180910390f35b6107b86123b0565b6040516107c59190614e73565b60405180910390f35b6107e860048036038101906107e39190614031565b6123d6565b005b6107f2612582565b6040516107ff9190614e58565b60405180910390f35b6108106125a8565b60405161081d9190614ea9565b60405180910390f35b61082e6125ce565b005b610838612699565b73ffffffffffffffffffffffffffffffffffffffff16610856611639565b73ffffffffffffffffffffffffffffffffffffffff16146108ac576040517f08c379a00000000000000000000000000000000000000000000000000000000081526004016108a390615006565b60405180910390fd5b7fd0f7c999974ac5e720302e1a81f85f0e86835bd50d1cdd4086c839df9c123aab601354826040516108df929190615203565b60405180910390a18060138190555050565b60008054600181600116156101000203166002900480601f0160208091040260200160405190810160405280929190818152602001828054600181600116156101000203166002900480156109875780601f1061095c57610100808354040283529160200191610987565b820191906000526020600020905b81548152906001019060200180831161096a57829003601f168201915b505050505081565b60115481565b60006109a23384846126a1565b6001905092915050565b60135481565b601260009054906101000a900460ff1681565b60025481565b7f8b73c3c69bb8fe3d512ecc4cf759cc79239f7b179b0ffacaa9a75d522b39400f60001b81565b6109fa612699565b73ffffffffffffffffffffffffffffffffffffffff16610a18611639565b73ffffffffffffffffffffffffffffffffffffffff1614610a6e576040517f08c379a0000000000000000000000000000000000000000000000000000000008152600401610a6590615006565b60405180910390fd5b601260009054906101000a900460ff1615601260006101000a81548160ff0219169083151502179055507fd46852adf64681b12b81a308b01efd0a546667f68ab41ae5855c2bae7756380f601260009054906101000a900460ff16604051610ad69190614d29565b60405180910390a1565b6000803390506000600360008773ffffffffffffffffffffffffffffffffffffffff1673ffffffffffffffffffffffffffffffffffffffff16815260200190815260200160002060008373ffffffffffffffffffffffffffffffffffffffff1673ffffffffffffffffffffffffffffffffffffffff1681526020019081526020016000205490508573ffffffffffffffffffffffffffffffffffffffff168273ffffffffffffffffffffffffffffffffffffffff1614158015610bc357507fffffffffffffffffffffffffffffffffffffffffffffffffffffffffffffffff8114155b15610ce1576000610bf7856040518060600160405280602f81526020016155a0602f91398461286c9092919063ffffffff16565b905080600360008973ffffffffffffffffffffffffffffffffffffffff1673ffffffffffffffffffffffffffffffffffffffff16815260200190815260200160002060008573ffffffffffffffffffffffffffffffffffffffff1673ffffffffffffffffffffffffffffffffffffffff168152602001908152602001600020819055508273ffffffffffffffffffffffffffffffffffffffff168773ffffffffffffffffffffffffffffffffffffffff167f8c5be1e5ebec7d5bd14f71427d1e84f3dd0314c0f7b2291e5b200ac8c7c3b92583604051610cd79190615166565b60405180910390a3505b610cec8686866128c7565b6001925050509392505050565b6000610d04826122bd565b90506000811115610e7a57610d1881612ae5565b600960009054906101000a900473ffffffffffffffffffffffffffffffffffffffff1673ffffffffffffffffffffffffffffffffffffffff1663a9059cbb33836040518363ffffffff1660e01b8152600401610d75929190614c30565b602060405180830381600087803b158015610d8f57600080fd5b505af1158015610da3573d6000803e3d6000fd5b505050506040513d601f19601f82011682018060405250810190610dc79190614200565b610e06576040517f08c379a0000000000000000000000000000000000000000000000000000000008152600401610dfd90615106565b60405180910390fd5b610e103383612bbc565b610e2581600754612d0a90919063ffffffff16565b6007819055503373ffffffffffffffffffffffffffffffffffffffff167f884edad9ce6fa2440d8a54cc123490eb96d2768479d49ff9c7366125a942436482604051610e719190615166565b60405180910390a25b5050565b7f6e71edae12b1b97f4d1f60370fef10105fa2faae0126114a169c64845d6126c960001b81565b601281565b600960009054906101000a900473ffffffffffffffffffffffffffffffffffffffff1673ffffffffffffffffffffffffffffffffffffffff1663d505accf333088888888886040518863ffffffff1660e01b8152600401610f119796959493929190614bc1565b600060405180830381600087803b158015610f2b57600080fd5b505af1158015610f3f573d6000803e3d6000fd5b50505050610f4c85612d54565b5050505050565b610f5b612699565b73ffffffffffffffffffffffffffffffffffffffff16610f79611639565b73ffffffffffffffffffffffffffffffffffffffff1614610fcf576040517f08c379a0000000000000000000000000000000000000000000000000000000008152600401610fc690615006565b60405180910390fd5b60008111611012576040517f08c379a000000000000000000000000000000000000000000000000000000000815260040161100990614f46565b60405180910390fd5b3373ffffffffffffffffffffffffffffffffffffffff166108fc829081150290604051600060405180830381858888f19350505050158015611058573d6000803e3d6000fd5b507f8c1256b8896378cd5044f80c202f9772b9d77dc85c8a6eb51967210b09bfaa2860008260405161108b929190614c30565b60405180910390a150565b600e5481565b6000600460008373ffffffffffffffffffffffffffffffffffffffff1673ffffffffffffffffffffffffffffffffffffffff168152602001908152602001600020549050919050565b6110ed612699565b73ffffffffffffffffffffffffffffffffffffffff1661110b611639565b73ffffffffffffffffffffffffffffffffffffffff1614611161576040517f08c379a000000000000000000000000000000000000000000000000000000000815260040161115890615006565b60405180910390fd5b600073ffffffffffffffffffffffffffffffffffffffff16600660009054906101000a900473ffffffffffffffffffffffffffffffffffffffff1673ffffffffffffffffffffffffffffffffffffffff167f8be0079c531659141344cd1fd0a4f28419497f9722a3daafe3b4186f6b6457e060405160405180910390a36000600660006101000a81548173ffffffffffffffffffffffffffffffffffffffff021916908373ffffffffffffffffffffffffffffffffffffffff160217905550565b61122a612699565b73ffffffffffffffffffffffffffffffffffffffff16611248611639565b73ffffffffffffffffffffffffffffffffffffffff161461129e576040517f08c379a000000000000000000000000000000000000000000000000000000000815260040161129590615006565b60405180910390fd5b8173ffffffffffffffffffffffffffffffffffffffff1663095ea7b38260006040518363ffffffff1660e01b81526004016112da929190614cd7565b602060405180830381600087803b1580156112f457600080fd5b505af1158015611308573d6000803e3d6000fd5b505050506040513d601f19601f8201168201806040525081019061132c9190614200565b61133557600080fd5b5050565b60075481565b60056020528060005260406000206000915090505481565b61135f612699565b73ffffffffffffffffffffffffffffffffffffffff1661137d611639565b73ffffffffffffffffffffffffffffffffffffffff16146113d3576040517f08c379a00000000000000000000000000000000000000000000000000000000081526004016113ca90615006565b60405180910390fd5b7f481f79ac3a523b6d6db3c5a720e190e986d1cc1b41adcdf50f9caef849901100600f5482604051611406929190615203565b60405180910390a180600f8190555050565b611420612699565b73ffffffffffffffffffffffffffffffffffffffff1661143e611639565b73ffffffffffffffffffffffffffffffffffffffff1614611494576040517f08c379a000000000000000000000000000000000000000000000000000000000815260040161148b90615006565b60405180910390fd5b600081116114d7576040517f08c379a00000000000000000000000000000000000000000000000000000000081526004016114ce90614f46565b60405180910390fd5b600960009054906101000a900473ffffffffffffffffffffffffffffffffffffffff1673ffffffffffffffffffffffffffffffffffffffff168273ffffffffffffffffffffffffffffffffffffffff161415611568576040517f08c379a000000000000000000000000000000000000000000000000000000000815260040161155f906150a6565b60405180910390fd5b8173ffffffffffffffffffffffffffffffffffffffff1663a9059cbb33836040518363ffffffff1660e01b81526004016115a3929190614c30565b602060405180830381600087803b1580156115bd57600080fd5b505af11580156115d1573d6000803e3d6000fd5b505050506040513d601f19601f820116820180604052508101906115f59190614200565b507f8c1256b8896378cd5044f80c202f9772b9d77dc85c8a6eb51967210b09bfaa288282604051611627929190614d00565b60405180910390a15050565b60105481565b6000600660009054906101000a900473ffffffffffffffffffffffffffffffffffffffff16905090565b60018054600181600116156101000203166002900480601f0160208091040260200160405190810160405280929190818152602001828054600181600116156101000203166002900480156116f95780601f106116ce576101008083540402835291602001916116f9565b820191906000526020600020905b8154815290600101906020018083116116dc57829003601f168201915b505050505081565b7fc89efdaa54c0f20c7adf612882df0950f5a951637e0307cdcb4c672f298b8bc660001b81565b611730612699565b73ffffffffffffffffffffffffffffffffffffffff1661174e611639565b73ffffffffffffffffffffffffffffffffffffffff16146117a4576040517f08c379a000000000000000000000000000000000000000000000000000000000815260040161179b90615006565b60405180910390fd5b6127106117bc60115483612f4890919063ffffffff16565b11156117fd576040517f08c379a00000000000000000000000000000000000000000000000000000000081526004016117f490615146565b60405180910390fd5b7fe7f97d51d307dc44045597c9978bec0f842e6bb40d19b9444084cfa30d9ed4f260105482604051611830929190615203565b60405180910390a18060108190555050565b600061184f3384846128c7565b6001905092915050565b61186281612d54565b50565b6000806118706118bb565b9050600f5481106118ac576118a461271061189660105484612f9d90919063ffffffff16565b61300d90919063ffffffff16565b9150506118b2565b60009150505b90565b600f5481565b600080600d60009054906101000a900473ffffffffffffffffffffffffffffffffffffffff1673ffffffffffffffffffffffffffffffffffffffff16630ca475fc600e54306040518363ffffffff1660e01b815260040161191d929190615181565b60206040518083038186803b15801561193557600080fd5b505afa158015611949573d6000803e3d6000fd5b505050506040513d601f19601f8201168201806040525081019061196d9190614252565b90506000600c60009054906101000a900473ffffffffffffffffffffffffffffffffffffffff1673ffffffffffffffffffffffffffffffffffffffff166370a08231306040518263ffffffff1660e01b81526004016119cc9190614b6f565b60206040518083038186803b1580156119e457600080fd5b505afa1580156119f8573d6000803e3d6000fd5b505050506040513d601f19601f82011682018060405250810190611a1c9190614252565b9050611a318183612f4890919063ffffffff16565b9250505090565b600960009054906101000a900473ffffffffffffffffffffffffffffffffffffffff1681565b611a66612699565b73ffffffffffffffffffffffffffffffffffffffff16611a84611639565b73ffffffffffffffffffffffffffffffffffffffff1614611ada576040517f08c379a0000000000000000000000000000000000000000000000000000000008152600401611ad190615006565b60405180910390fd5b612710611af260105483612f4890919063ffffffff16565b1115611b33576040517f08c379a0000000000000000000000000000000000000000000000000000000008152600401611b2a90615086565b60405180910390fd5b7f3cc372f330f95ac9540626dc8a25f5bf21ba607215a5d58304cb804d446f104a60115482604051611b66929190615203565b60405180910390a18060118190555050565b42841015611bbb576040517f08c379a0000000000000000000000000000000000000000000000000000000008152600401611bb290614f86565b60405180910390fd5b60007f6e71edae12b1b97f4d1f60370fef10105fa2faae0126114a169c64845d6126c960001b888888600560008d73ffffffffffffffffffffffffffffffffffffffff1673ffffffffffffffffffffffffffffffffffffffff16815260200190815260200160002060008154809291906001019190505589604051602001611c4896959493929190614d5f565b604051602081830303815290604052805190602001209050611c6d8882868686613057565b611c788888886126a1565b5050505050505050565b611c8a612699565b73ffffffffffffffffffffffffffffffffffffffff16611ca8611639565b73ffffffffffffffffffffffffffffffffffffffff1614611cfe576040517f08c379a0000000000000000000000000000000000000000000000000000000008152600401611cf590615006565b60405180910390fd5b600d60009054906101000a900473ffffffffffffffffffffffffffffffffffffffff1673ffffffffffffffffffffffffffffffffffffffff16635312ea8e600e546040518263ffffffff1660e01b8152600401611d5b9190615166565b600060405180830381600087803b158015611d7557600080fd5b505af1158015611d89573d6000803e3d6000fd5b505050506000600781905550565b611d9f612699565b73ffffffffffffffffffffffffffffffffffffffff16611dbd611639565b73ffffffffffffffffffffffffffffffffffffffff1614611e13576040517f08c379a0000000000000000000000000000000000000000000000000000000008152600401611e0a90615006565b60405180910390fd5b600960009054906101000a900473ffffffffffffffffffffffffffffffffffffffff1673ffffffffffffffffffffffffffffffffffffffff1663095ea7b3600d60009054906101000a900473ffffffffffffffffffffffffffffffffffffffff167fffffffffffffffffffffffffffffffffffffffffffffffffffffffffffffffff6040518363ffffffff1660e01b8152600401611eb2929190614d00565b602060405180830381600087803b158015611ecc57600080fd5b505af1158015611ee0573d6000803e3d6000fd5b505050506040513d601f19601f82011682018060405250810190611f049190614200565b50600c60009054906101000a900473ffffffffffffffffffffffffffffffffffffffff1673ffffffffffffffffffffffffffffffffffffffff1663095ea7b3600860009054906101000a900473ffffffffffffffffffffffffffffffffffffffff167fffffffffffffffffffffffffffffffffffffffffffffffffffffffffffffffff6040518363ffffffff1660e01b8152600401611fa4929190614d00565b602060405180830381600087803b158015611fbe57600080fd5b505af1158015611fd2573d6000803e3d6000fd5b505050506040513d601f19601f82011682018060405250810190611ff69190614200565b50600a60009054906101000a900473ffffffffffffffffffffffffffffffffffffffff1673ffffffffffffffffffffffffffffffffffffffff1663095ea7b3600860009054906101000a900473ffffffffffffffffffffffffffffffffffffffff167fffffffffffffffffffffffffffffffffffffffffffffffffffffffffffffffff6040518363ffffffff1660e01b8152600401612096929190614d00565b602060405180830381600087803b1580156120b057600080fd5b505af11580156120c4573d6000803e3d6000fd5b505050506040513d601f19601f820116820180604052508101906120e89190614200565b50600b60009054906101000a900473ffffffffffffffffffffffffffffffffffffffff1673ffffffffffffffffffffffffffffffffffffffff1663095ea7b3600860009054906101000a900473ffffffffffffffffffffffffffffffffffffffff167fffffffffffffffffffffffffffffffffffffffffffffffffffffffffffffffff6040518363ffffffff1660e01b8152600401612188929190614d00565b602060405180830381600087803b1580156121a257600080fd5b505af11580156121b6573d6000803e3d6000fd5b505050506040513d601f19601f820116820180604052508101906121da9190614200565b50565b6000600360008473ffffffffffffffffffffffffffffffffffffffff1673ffffffffffffffffffffffffffffffffffffffff16815260200190815260200160002060008373ffffffffffffffffffffffffffffffffffffffff1673ffffffffffffffffffffffffffffffffffffffff16815260200190815260200160002054905092915050565b60008061227e600754600254612f9d90919063ffffffff16565b141561228c578190506122b8565b6122b56007546122a760025485612f9d90919063ffffffff16565b61300d90919063ffffffff16565b90505b919050565b6000806122d7600754600254612f9d90919063ffffffff16565b14156122e65760009050612312565b61230f60025461230160075485612f9d90919063ffffffff16565b61300d90919063ffffffff16565b90505b919050565b60007f8b73c3c69bb8fe3d512ecc4cf759cc79239f7b179b0ffacaa9a75d522b39400f60001b600060405161234c9190614b21565b60405180910390207fc89efdaa54c0f20c7adf612882df0950f5a951637e0307cdcb4c672f298b8bc660001b61238061318e565b30604051602001612395959493929190614dc0565b60405160208183030381529060405280519060200120905090565b600d60009054906101000a900473ffffffffffffffffffffffffffffffffffffffff1681565b6123de612699565b73ffffffffffffffffffffffffffffffffffffffff166123fc611639565b73ffffffffffffffffffffffffffffffffffffffff1614612452576040517f08c379a000000000000000000000000000000000000000000000000000000000815260040161244990615006565b60405180910390fd5b600073ffffffffffffffffffffffffffffffffffffffff168173ffffffffffffffffffffffffffffffffffffffff1614156124c2576040517f08c379a00000000000000000000000000000000000000000000000000000000081526004016124b990614ee6565b60405180910390fd5b8073ffffffffffffffffffffffffffffffffffffffff16600660009054906101000a900473ffffffffffffffffffffffffffffffffffffffff1673ffffffffffffffffffffffffffffffffffffffff167f8be0079c531659141344cd1fd0a4f28419497f9722a3daafe3b4186f6b6457e060405160405180910390a380600660006101000a81548173ffffffffffffffffffffffffffffffffffffffff021916908373ffffffffffffffffffffffffffffffffffffffff16021790555050565b600c60009054906101000a900473ffffffffffffffffffffffffffffffffffffffff1681565b600860009054906101000a900473ffffffffffffffffffffffffffffffffffffffff1681565b3373ffffffffffffffffffffffffffffffffffffffff163273ffffffffffffffffffffffffffffffffffffffff161461263c576040517f08c379a0000000000000000000000000000000000000000000000000000000008152600401612633906150c6565b60405180910390fd5b60006126466118bb565b9050600f5481101561268d576040517f08c379a000000000000000000000000000000000000000000000000000000000815260040161268490614fa6565b60405180910390fd5b6126968161319b565b50565b600033905090565b600073ffffffffffffffffffffffffffffffffffffffff168373ffffffffffffffffffffffffffffffffffffffff161415612711576040517f08c379a000000000000000000000000000000000000000000000000000000000815260040161270890615026565b60405180910390fd5b600073ffffffffffffffffffffffffffffffffffffffff168273ffffffffffffffffffffffffffffffffffffffff161415612781576040517f08c379a000000000000000000000000000000000000000000000000000000000815260040161277890615126565b60405180910390fd5b80600360008573ffffffffffffffffffffffffffffffffffffffff1673ffffffffffffffffffffffffffffffffffffffff16815260200190815260200160002060008473ffffffffffffffffffffffffffffffffffffffff1673ffffffffffffffffffffffffffffffffffffffff168152602001908152602001600020819055508173ffffffffffffffffffffffffffffffffffffffff168373ffffffffffffffffffffffffffffffffffffffff167f8c5be1e5ebec7d5bd14f71427d1e84f3dd0314c0f7b2291e5b200ac8c7c3b9258360405161285f9190615166565b60405180910390a3505050565b60008383111582906128b4576040517f08c379a00000000000000000000000000000000000000000000000000000000081526004016128ab9190614ec4565b60405180910390fd5b5060008385039050809150509392505050565b600073ffffffffffffffffffffffffffffffffffffffff168273ffffffffffffffffffffffffffffffffffffffff161415612937576040517f08c379a000000000000000000000000000000000000000000000000000000000815260040161292e90615046565b60405180910390fd5b6129a3816040518060600160405280602e81526020016155f6602e9139600460008773ffffffffffffffffffffffffffffffffffffffff1673ffffffffffffffffffffffffffffffffffffffff1681526020019081526020016000205461286c9092919063ffffffff16565b600460008573ffffffffffffffffffffffffffffffffffffffff1673ffffffffffffffffffffffffffffffffffffffff16815260200190815260200160002081905550612a3881600460008573ffffffffffffffffffffffffffffffffffffffff1673ffffffffffffffffffffffffffffffffffffffff16815260200190815260200160002054612f4890919063ffffffff16565b600460008473ffffffffffffffffffffffffffffffffffffffff1673ffffffffffffffffffffffffffffffffffffffff168152602001908152602001600020819055508173ffffffffffffffffffffffffffffffffffffffff168373ffffffffffffffffffffffffffffffffffffffff167fddf252ad1be2c89b69c2b068fc378daa952ba7f163c4a11628f55a4df523b3ef83604051612ad89190615166565b60405180910390a3505050565b60008111612b28576040517f08c379a0000000000000000000000000000000000000000000000000000000008152600401612b1f90614f46565b60405180910390fd5b600d60009054906101000a900473ffffffffffffffffffffffffffffffffffffffff1673ffffffffffffffffffffffffffffffffffffffff1663441a3e70600e54836040518363ffffffff1660e01b8152600401612b87929190615203565b600060405180830381600087803b158015612ba157600080fd5b505af1158015612bb5573d6000803e3d6000fd5b5050505050565b612c28816040518060600160405280602781526020016155cf60279139600460008673ffffffffffffffffffffffffffffffffffffffff1673ffffffffffffffffffffffffffffffffffffffff1681526020019081526020016000205461286c9092919063ffffffff16565b600460008473ffffffffffffffffffffffffffffffffffffffff1673ffffffffffffffffffffffffffffffffffffffff16815260200190815260200160002081905550612c9a816040518060600160405280602781526020016155796027913960025461286c9092919063ffffffff16565b600281905550600073ffffffffffffffffffffffffffffffffffffffff168273ffffffffffffffffffffffffffffffffffffffff167fddf252ad1be2c89b69c2b068fc378daa952ba7f163c4a11628f55a4df523b3ef83604051612cfe9190615166565b60405180910390a35050565b6000612d4c83836040518060400160405280601f81526020017f536166654d6174683a207375627472616374696f6e20756e646572666c6f770081525061286c565b905092915050565b6002546007541015612d9b576040517f08c379a0000000000000000000000000000000000000000000000000000000008152600401612d92906150e6565b60405180910390fd5b601260009054906101000a900460ff1615612dd1576000612dba6118bb565b90506013548110612dcf57612dce8161319b565b5b505b600960009054906101000a900473ffffffffffffffffffffffffffffffffffffffff1673ffffffffffffffffffffffffffffffffffffffff166323b872dd3330846040518463ffffffff1660e01b8152600401612e3093929190614b8a565b602060405180830381600087803b158015612e4a57600080fd5b505af1158015612e5e573d6000803e3d6000fd5b505050506040513d601f19601f82011682018060405250810190612e829190614200565b612ec1576040517f08c379a0000000000000000000000000000000000000000000000000000000008152600401612eb890615066565b60405180910390fd5b612eca81613516565b612edc33612ed783612264565b6135ed565b612ef181600754612f4890919063ffffffff16565b6007819055503373ffffffffffffffffffffffffffffffffffffffff167fe1fffcc4923d04b559f4d29a8bfc6cda04eb5b0d3c460751c2402c5c5cc9109c82604051612f3d9190615166565b60405180910390a250565b600080828401905083811015612f93576040517f08c379a0000000000000000000000000000000000000000000000000000000008152600401612f8a90614f06565b60405180910390fd5b8091505092915050565b600080831415612fb05760009050613007565b6000828402905082848281612fc157fe5b0414613002576040517f08c379a0000000000000000000000000000000000000000000000000000000008152600401612ff990614fe6565b60405180910390fd5b809150505b92915050565b600061304f83836040518060400160405280601a81526020017f536166654d6174683a206469766973696f6e206279207a65726f000000000000815250613707565b905092915050565b6000613061612317565b85604051602001613073929190614b38565b6040516020818303038152906040528051906020012090506000600182868686604051600081526020016040526040516130b09493929190614e13565b6020604051602081039080840390855afa1580156130d2573d6000803e3d6000fd5b505050602060405103519050600073ffffffffffffffffffffffffffffffffffffffff168173ffffffffffffffffffffffffffffffffffffffff161415801561314657508673ffffffffffffffffffffffffffffffffffffffff168173ffffffffffffffffffffffffffffffffffffffff16145b613185576040517f08c379a000000000000000000000000000000000000000000000000000000000815260040161317c90614f26565b60405180910390fd5b50505050505050565b6000804690508091505090565b600d60009054906101000a900473ffffffffffffffffffffffffffffffffffffffff1673ffffffffffffffffffffffffffffffffffffffff1663e2bbb158600e5460006040518363ffffffff1660e01b81526004016131fb9291906151da565b600060405180830381600087803b15801561321557600080fd5b505af1158015613229573d6000803e3d6000fd5b50505050600061325861271061324a60115485612f9d90919063ffffffff16565b61300d90919063ffffffff16565b9050600081111561335957600c60009054906101000a900473ffffffffffffffffffffffffffffffffffffffff1673ffffffffffffffffffffffffffffffffffffffff1663a9059cbb6132a9611639565b836040518363ffffffff1660e01b81526004016132c7929190614d00565b602060405180830381600087803b1580156132e157600080fd5b505af11580156132f5573d6000803e3d6000fd5b505050506040513d601f19601f820116820180604052508101906133199190614200565b613358576040517f08c379a000000000000000000000000000000000000000000000000000000000815260040161334f90614fc6565b60405180910390fd5b5b600061338461271061337660105486612f9d90919063ffffffff16565b61300d90919063ffffffff16565b9050600081111561347e57600c60009054906101000a900473ffffffffffffffffffffffffffffffffffffffff1673ffffffffffffffffffffffffffffffffffffffff1663a9059cbb33836040518363ffffffff1660e01b81526004016133ec929190614c30565b602060405180830381600087803b15801561340657600080fd5b505af115801561341a573d6000803e3d6000fd5b505050506040513d601f19601f8201168201806040525081019061343e9190614200565b61347d576040517f08c379a000000000000000000000000000000000000000000000000000000000815260040161347490614f66565b60405180910390fd5b5b60006134ad6134a88361349a8688612d0a90919063ffffffff16565b612d0a90919063ffffffff16565b613768565b90506134b881613516565b6134cd81600754612f4890919063ffffffff16565b6007819055507fc7606d21ac05cd309191543e409f0845c016120563783d70e4f41419dc0ef234600754600254604051613508929190615203565b60405180910390a150505050565b60008111613559576040517f08c379a000000000000000000000000000000000000000000000000000000000815260040161355090614f46565b60405180910390fd5b600d60009054906101000a900473ffffffffffffffffffffffffffffffffffffffff1673ffffffffffffffffffffffffffffffffffffffff1663e2bbb158600e54836040518363ffffffff1660e01b81526004016135b8929190615203565b600060405180830381600087803b1580156135d257600080fd5b505af11580156135e6573d6000803e3d6000fd5b5050505050565b61360281600254612f4890919063ffffffff16565b60028190555061365a81600460008573ffffffffffffffffffffffffffffffffffffffff1673ffffffffffffffffffffffffffffffffffffffff16815260200190815260200160002054612f4890919063ffffffff16565b600460008473ffffffffffffffffffffffffffffffffffffffff1673ffffffffffffffffffffffffffffffffffffffff168152602001908152602001600020819055508173ffffffffffffffffffffffffffffffffffffffff16600073ffffffffffffffffffffffffffffffffffffffff167fddf252ad1be2c89b69c2b068fc378daa952ba7f163c4a11628f55a4df523b3ef836040516136fb9190615166565b60405180910390a35050565b6000808311829061374e576040517f08c379a00000000000000000000000000000000000000000000000000000000081526004016137459190614ec4565b60405180910390fd5b50600083858161375a57fe5b049050809150509392505050565b60008061377f60028461300d90919063ffffffff16565b9050600081116137c4576040517f08c379a00000000000000000000000000000000000000000000000000000000081526004016137bb90614f46565b60405180910390fd5b6060600367ffffffffffffffff811180156137de57600080fd5b5060405190808252806020026020018201604052801561380d5781602001602082028036833780820191505090505b509050600c60009054906101000a900473ffffffffffffffffffffffffffffffffffffffff168160008151811061384057fe5b602002602001019073ffffffffffffffffffffffffffffffffffffffff16908173ffffffffffffffffffffffffffffffffffffffff168152505073b31f66aa3c1e785363f0875a1b74e27b85fd66c78160018151811061389c57fe5b602002602001019073ffffffffffffffffffffffffffffffffffffffff16908173ffffffffffffffffffffffffffffffffffffffff1681525050600a60009054906101000a900473ffffffffffffffffffffffffffffffffffffffff168160028151811061390657fe5b602002602001019073ffffffffffffffffffffffffffffffffffffffff16908173ffffffffffffffffffffffffffffffffffffffff168152505060008290508160018351038151811061395557fe5b602002602001015173ffffffffffffffffffffffffffffffffffffffff168260008151811061398057fe5b602002602001015173ffffffffffffffffffffffffffffffffffffffff1614613b30576060600860009054906101000a900473ffffffffffffffffffffffffffffffffffffffff1673ffffffffffffffffffffffffffffffffffffffff1663d06ca61f85856040518363ffffffff1660e01b8152600401613a029291906151aa565b60006040518083038186803b158015613a1a57600080fd5b505afa158015613a2e573d6000803e3d6000fd5b505050506040513d6000823e3d601f19601f82011682018060405250810190613a5791906141bf565b905080600182510381518110613a6957fe5b60200260200101519150600860009054906101000a900473ffffffffffffffffffffffffffffffffffffffff1673ffffffffffffffffffffffffffffffffffffffff166338ed173985848630426040518663ffffffff1660e01b8152600401613ad695949392919061522c565b600060405180830381600087803b158015613af057600080fd5b505af1158015613b04573d6000803e3d6000fd5b505050506040513d6000823e3d601f19601f82011682018060405250810190613b2d91906141bf565b50505b6060600267ffffffffffffffff81118015613b4a57600080fd5b50604051908082528060200260200182016040528015613b795781602001602082028036833780820191505090505b50905082600081518110613b8957fe5b602002602001015181600081518110613b9e57fe5b602002602001019073ffffffffffffffffffffffffffffffffffffffff16908173ffffffffffffffffffffffffffffffffffffffff1681525050600b60009054906101000a900473ffffffffffffffffffffffffffffffffffffffff1681600181518110613c0857fe5b602002602001019073ffffffffffffffffffffffffffffffffffffffff16908173ffffffffffffffffffffffffffffffffffffffff1681525050600084905081600183510381518110613c5757fe5b602002602001015173ffffffffffffffffffffffffffffffffffffffff1682600081518110613c8257fe5b602002602001015173ffffffffffffffffffffffffffffffffffffffff1614613e32576060600860009054906101000a900473ffffffffffffffffffffffffffffffffffffffff1673ffffffffffffffffffffffffffffffffffffffff1663d06ca61f87856040518363ffffffff1660e01b8152600401613d049291906151aa565b60006040518083038186803b158015613d1c57600080fd5b505afa158015613d30573d6000803e3d6000fd5b505050506040513d6000823e3d601f19601f82011682018060405250810190613d5991906141bf565b905080600182510381518110613d6b57fe5b60200260200101519150600860009054906101000a900473ffffffffffffffffffffffffffffffffffffffff1673ffffffffffffffffffffffffffffffffffffffff166338ed173987848630426040518663ffffffff1660e01b8152600401613dd895949392919061522c565b600060405180830381600087803b158015613df257600080fd5b505af1158015613e06573d6000803e3d6000fd5b505050506040513d6000823e3d601f19601f82011682018060405250810190613e2f91906141bf565b50505b6000600860009054906101000a900473ffffffffffffffffffffffffffffffffffffffff1673ffffffffffffffffffffffffffffffffffffffff1663e8e3370086600188510381518110613e8257fe5b602002602001015185600187510381518110613e9a57fe5b6020026020010151878660008030426040518963ffffffff1660e01b8152600401613ecc989796959493929190614c59565b606060405180830381600087803b158015613ee657600080fd5b505af1158015613efa573d6000803e3d6000fd5b505050506040513d601f19601f82011682018060405250810190613f1e919061427b565b92505050809650505050505050919050565b600081359050613f3f81615505565b92915050565b600082601f830112613f5657600080fd5b8151613f69613f64826152d2565b6152a1565b91508181835260208401935060208101905083856020840282011115613f8e57600080fd5b60005b83811015613fbe5781613fa48882614007565b845260208401935060208301925050600181019050613f91565b5050505092915050565b600081519050613fd78161551c565b92915050565b600081359050613fec81615533565b92915050565b6000813590506140018161554a565b92915050565b6000815190506140168161554a565b92915050565b60008135905061402b81615561565b92915050565b60006020828403121561404357600080fd5b600061405184828501613f30565b91505092915050565b6000806040838503121561406d57600080fd5b600061407b85828601613f30565b925050602061408c85828601613f30565b9150509250929050565b6000806000606084860312156140ab57600080fd5b60006140b986828701613f30565b93505060206140ca86828701613f30565b92505060406140db86828701613ff2565b9150509250925092565b600080600080600080600060e0888a03121561410057600080fd5b600061410e8a828b01613f30565b975050602061411f8a828b01613f30565b96505060406141308a828b01613ff2565b95505060606141418a828b01613ff2565b94505060806141528a828b0161401c565b93505060a06141638a828b01613fdd565b92505060c06141748a828b01613fdd565b91505092959891949750929550565b6000806040838503121561419657600080fd5b60006141a485828601613f30565b92505060206141b585828601613ff2565b9150509250929050565b6000602082840312156141d157600080fd5b600082015167ffffffffffffffff8111156141eb57600080fd5b6141f784828501613f45565b91505092915050565b60006020828403121561421257600080fd5b600061422084828501613fc8565b91505092915050565b60006020828403121561423b57600080fd5b600061424984828501613ff2565b91505092915050565b60006020828403121561426457600080fd5b600061427284828501614007565b91505092915050565b60008060006060848603121561429057600080fd5b600061429e86828701614007565b93505060206142af86828701614007565b92505060406142c086828701614007565b9150509250925092565b600080600080600060a086880312156142e257600080fd5b60006142f088828901613ff2565b955050602061430188828901613ff2565b94505060406143128882890161401c565b935050606061432388828901613fdd565b925050608061433488828901613fdd565b9150509295509295909350565b600061434d8383614368565b60208301905092915050565b614362816153dd565b82525050565b6143718161537e565b82525050565b6143808161537e565b82525050565b600061439182615323565b61439b8185615346565b93506143a6836152fe565b8060005b838110156143d75781516143be8882614341565b97506143c983615339565b9250506001810190506143aa565b5085935050505092915050565b6143ed81615390565b82525050565b6143fc8161539c565b82525050565b61441361440e8261539c565b6154e8565b82525050565b600081546001811660008114614436576001811461445b5761449f565b607f60028304166144478187615357565b955060ff198316865280860193505061449f565b600282046144698187615357565b95506144748561530e565b60005b8281101561449657815481890152600182019150602081019050614477565b82880195505050505b505092915050565b6144b0816153ef565b82525050565b6144bf81615413565b82525050565b6144ce81615437565b82525050565b6144dd8161545b565b82525050565b6144ec8161547f565b82525050565b60006144fd8261532e565b6145078185615362565b93506145178185602086016154b5565b614520816154f4565b840191505092915050565b6000614538602683615362565b91507f4f776e61626c653a206e6577206f776e657220697320746865207a65726f206160008301527f64647265737300000000000000000000000000000000000000000000000000006020830152604082019050919050565b600061459e600283615373565b91507f19010000000000000000000000000000000000000000000000000000000000006000830152600282019050919050565b60006145de601b83615362565b91507f536166654d6174683a206164646974696f6e206f766572666c6f7700000000006000830152602082019050919050565b600061461e602483615362565b91507f417263683a3a76616c69646174655369673a20696e76616c6964207369676e6160008301527f74757265000000000000000000000000000000000000000000000000000000006020830152604082019050919050565b6000614684600e83615362565b91507f616d6f756e7420746f6f206c6f770000000000000000000000000000000000006000830152602082019050919050565b60006146c4601c83615362565b91507f7265696e7665737420666565207472616e73666572206661696c6564000000006000830152602082019050919050565b6000614704600f83615362565b91507f7065726d69743a3a6578706972656400000000000000000000000000000000006000830152602082019050919050565b6000614744601683615362565b91507f4d494e5f544f4b454e535f544f5f5245494e56455354000000000000000000006000830152602082019050919050565b6000614784601983615362565b91507f61646d696e20666565207472616e73666572206661696c6564000000000000006000830152602082019050919050565b60006147c4602183615362565b91507f536166654d6174683a206d756c7469706c69636174696f6e206f766572666c6f60008301527f77000000000000000000000000000000000000000000000000000000000000006020830152604082019050919050565b600061482a602083615362565b91507f4f776e61626c653a2063616c6c6572206973206e6f7420746865206f776e65726000830152602082019050919050565b600061486a601c83615362565b91507f5f617070726f76653a3a6f776e6572207a65726f2061646472657373000000006000830152602082019050919050565b60006148aa603483615362565b91507f5f7472616e73666572546f6b656e733a2063616e6e6f74207472616e7366657260008301527f20746f20746865207a65726f20616464726573730000000000000000000000006020830152604082019050919050565b6000614910601383615362565b91507f7472616e7366657246726f6d206661696c6564000000000000000000000000006000830152602082019050919050565b6000614950601283615362565b91507f61646d696e2066656520746f6f206869676800000000000000000000000000006000830152602082019050919050565b6000614990601c83615362565b91507f63616e6e6f74207265636f766572206465706f73697420746f6b656e000000006000830152602082019050919050565b60006149d0600783615362565b91507f6f6e6c79454f41000000000000000000000000000000000000000000000000006000830152602082019050919050565b6000614a10600e83615362565b91507f6465706f736974206661696c65640000000000000000000000000000000000006000830152602082019050919050565b6000614a50600f83615362565b91507f7472616e73666572206661696c656400000000000000000000000000000000006000830152602082019050919050565b6000614a90601e83615362565b91507f5f617070726f76653a3a7370656e646572207a65726f206164647265737300006000830152602082019050919050565b6000614ad0601883615362565b91507f7265696e766573742072657761726420746f6f206869676800000000000000006000830152602082019050919050565b614b0c816153c6565b82525050565b614b1b816153d0565b82525050565b6000614b2d8284614419565b915081905092915050565b6000614b4382614591565b9150614b4f8285614402565b602082019150614b5f8284614402565b6020820191508190509392505050565b6000602082019050614b846000830184614377565b92915050565b6000606082019050614b9f6000830186614359565b614bac6020830185614377565b614bb96040830184614b03565b949350505050565b600060e082019050614bd6600083018a614359565b614be36020830189614377565b614bf06040830188614b03565b614bfd6060830187614b03565b614c0a6080830186614b12565b614c1760a08301856143f3565b614c2460c08301846143f3565b98975050505050505050565b6000604082019050614c456000830185614359565b614c526020830184614b03565b9392505050565b600061010082019050614c6f600083018b614377565b614c7c602083018a614377565b614c896040830189614b03565b614c966060830188614b03565b614ca360808301876144e3565b614cb060a08301866144e3565b614cbd60c0830185614377565b614cca60e0830184614b03565b9998505050505050505050565b6000604082019050614cec6000830185614377565b614cf960208301846144e3565b9392505050565b6000604082019050614d156000830185614377565b614d226020830184614b03565b9392505050565b6000602082019050614d3e60008301846143e4565b92915050565b6000602082019050614d5960008301846143f3565b92915050565b600060c082019050614d7460008301896143f3565b614d816020830188614377565b614d8e6040830187614377565b614d9b6060830186614b03565b614da86080830185614b03565b614db560a0830184614b03565b979650505050505050565b600060a082019050614dd560008301886143f3565b614de260208301876143f3565b614def60408301866143f3565b614dfc6060830185614b03565b614e096080830184614377565b9695505050505050565b6000608082019050614e2860008301876143f3565b614e356020830186614b12565b614e4260408301856143f3565b614e4f60608301846143f3565b95945050505050565b6000602082019050614e6d60008301846144a7565b92915050565b6000602082019050614e8860008301846144b6565b92915050565b6000602082019050614ea360008301846144c5565b92915050565b6000602082019050614ebe60008301846144d4565b92915050565b60006020820190508181036000830152614ede81846144f2565b905092915050565b60006020820190508181036000830152614eff8161452b565b9050919050565b60006020820190508181036000830152614f1f816145d1565b9050919050565b60006020820190508181036000830152614f3f81614611565b9050919050565b60006020820190508181036000830152614f5f81614677565b9050919050565b60006020820190508181036000830152614f7f816146b7565b9050919050565b60006020820190508181036000830152614f9f816146f7565b9050919050565b60006020820190508181036000830152614fbf81614737565b9050919050565b60006020820190508181036000830152614fdf81614777565b9050919050565b60006020820190508181036000830152614fff816147b7565b9050919050565b6000602082019050818103600083015261501f8161481d565b9050919050565b6000602082019050818103600083015261503f8161485d565b9050919050565b6000602082019050818103600083015261505f8161489d565b9050919050565b6000602082019050818103600083015261507f81614903565b9050919050565b6000602082019050818103600083015261509f81614943565b9050919050565b600060208201905081810360008301526150bf81614983565b9050919050565b600060208201905081810360008301526150df816149c3565b9050919050565b600060208201905081810360008301526150ff81614a03565b9050919050565b6000602082019050818103600083015261511f81614a43565b9050919050565b6000602082019050818103600083015261513f81614a83565b9050919050565b6000602082019050818103600083015261515f81614ac3565b9050919050565b600060208201905061517b6000830184614b03565b92915050565b60006040820190506151966000830185614b03565b6151a36020830184614377565b9392505050565b60006040820190506151bf6000830185614b03565b81810360208301526151d18184614386565b90509392505050565b60006040820190506151ef6000830185614b03565b6151fc60208301846144e3565b9392505050565b60006040820190506152186000830185614b03565b6152256020830184614b03565b9392505050565b600060a0820190506152416000830188614b03565b61524e6020830187614b03565b81810360408301526152608186614386565b905061526f6060830185614377565b61527c6080830184614b03565b9695505050505050565b600060208201905061529b6000830184614b12565b92915050565b6000604051905081810181811067ffffffffffffffff821117156152c8576152c76154f2565b5b8060405250919050565b600067ffffffffffffffff8211156152ed576152ec6154f2565b5b602082029050602081019050919050565b6000819050602082019050919050565b60008190508160005260206000209050919050565b600081519050919050565b600081519050919050565b6000602082019050919050565b600082825260208201905092915050565b600081905092915050565b600082825260208201905092915050565b600081905092915050565b6000615389826153a6565b9050919050565b60008115159050919050565b6000819050919050565b600073ffffffffffffffffffffffffffffffffffffffff82169050919050565b6000819050919050565b600060ff82169050919050565b60006153e882615491565b9050919050565b60006153fa82615401565b9050919050565b600061540c826153a6565b9050919050565b600061541e82615425565b9050919050565b6000615430826153a6565b9050919050565b600061544282615449565b9050919050565b6000615454826153a6565b9050919050565b60006154668261546d565b9050919050565b6000615478826153a6565b9050919050565b600061548a826153c6565b9050919050565b600061549c826154a3565b9050919050565b60006154ae826153a6565b9050919050565b60005b838110156154d35780820151818401526020810190506154b8565b838111156154e2576000848401525b50505050565b6000819050919050565bfe5b6000601f19601f8301169050919050565b61550e8161537e565b811461551957600080fd5b50565b61552581615390565b811461553057600080fd5b50565b61553c8161539c565b811461554757600080fd5b50565b615553816153c6565b811461555e57600080fd5b50565b61556a816153d0565b811461557557600080fd5b5056fe5f6275726e3a206275726e20616d6f756e74206578636565647320746f74616c20737570706c797472616e7366657246726f6d3a207472616e7366657220616d6f756e74206578636565647320616c6c6f77616e63655f6275726e3a206275726e20616d6f756e7420657863656564732066726f6d2062616c616e63655f7472616e73666572546f6b656e733a207472616e7366657220657863656564732066726f6d2062616c616e6365a264697066735822122075698efee7b7973f412022e0d7392f65b73973a2cc4f5e22c3687f53e3a546f864736f6c63430007030033",
  "devdoc": {
    "kind": "dev",
    "methods": {
      "allowance(address,address)": {
        "params": {
          "account": "The address of the account holding the funds",
          "spender": "The address of the account spending the funds"
        },
        "returns": {
          "_0": "The number of tokens approved"
        }
      },
      "approve(address,uint256)": {
        "details": "This will overwrite the approval amount for `spender` and is subject to issues noted [here](https://eips.ethereum.org/EIPS/eip-20#approve) It is recommended to use increaseAllowance and decreaseAllowance instead",
        "params": {
          "amount": "The number of tokens that are approved (2^256-1 means infinite)",
          "spender": "The address of the account which may transfer tokens"
        },
        "returns": {
          "_0": "Whether or not the approval succeeded"
        }
      },
      "balanceOf(address)": {
        "params": {
          "account": "The address of the account to get the balance of"
        },
        "returns": {
          "_0": "The number of tokens held"
        }
      },
      "checkReward()": {
        "details": "Staking rewards accurue to contract on each deposit/withdrawal",
        "returns": {
          "_0": "Unclaimed rewards, plus contract balance"
        }
      },
      "deposit(uint256)": {
        "params": {
          "amount": "Amount of tokens to deposit"
        }
      },
      "depositWithPermit(uint256,uint256,uint8,bytes32,bytes32)": {
        "params": {
          "amount": "Amount of tokens to deposit",
          "deadline": "The time at which to expire the signature",
          "r": "Half of the ECDSA signature pair",
          "s": "Half of the ECDSA signature pair",
          "v": "The recovery byte of the signature"
        }
      },
      "emergencyWithdraw()": {
        "details": "Reward tokens are not automatically collectedNew deposits will be effectively disabled"
      },
      "estimateReinvestReward()": {
        "returns": {
          "_0": "Estimated rewards tokens earned for calling `reinvest()`"
        }
      },
      "getDepositTokensForShares(uint256)": {
        "params": {
          "amount": "receipt tokens"
        },
        "returns": {
          "_0": "deposit tokens"
        }
      },
      "getDomainSeparator()": {
        "returns": {
          "_0": "Separator"
        }
      },
      "getSharesForDepositTokens(uint256)": {
        "details": "If contract is empty, use 1:1 ratioCould return zero shares for very low amounts of deposit tokens",
        "params": {
          "amount": "deposit tokens"
        },
        "returns": {
          "_0": "receipt tokens"
        }
      },
      "owner()": {
        "details": "Returns the address of the current owner."
      },
      "permit(address,address,uint256,uint256,uint8,bytes32,bytes32)": {
        "params": {
          "deadline": "The time at which to expire the signature",
          "owner": "The address to approve from",
          "r": "Half of the ECDSA signature pair",
          "s": "Half of the ECDSA signature pair",
          "spender": "The address to be approved",
          "v": "The recovery byte of the signature",
          "value": "The number of tokens that are approved (2^256-1 means infinite)"
        }
      },
      "recoverAVAX(uint256)": {
        "params": {
          "amount": "amount"
        }
      },
      "recoverERC20(address,uint256)": {
        "params": {
          "tokenAddress": "token address",
          "tokenAmount": "amount to recover"
        }
      },
      "reinvest()": {
        "details": "This external function requires minimum tokens to be met"
      },
      "renounceOwnership()": {
        "details": "Leaves the contract without owner. It will not be possible to call `onlyOwner` functions anymore. Can only be called by the current owner. NOTE: Renouncing ownership will leave the contract without an owner, thereby removing any functionality that is only available to the owner."
      },
      "revokeAllowance(address,address)": {
        "details": "Restricted to avoid griefing attacks",
        "params": {
          "spender": "address",
          "token": "address"
        }
      },
      "setAllowances()": {
        "details": "Restricted to avoid griefing attacks"
      },
      "transfer(address,uint256)": {
        "params": {
          "amount": "The number of tokens to transfer",
          "dst": "The address of the destination account"
        },
        "returns": {
          "_0": "Whether or not the transfer succeeded"
        }
      },
      "transferFrom(address,address,uint256)": {
        "params": {
          "amount": "The number of tokens to transfer",
          "dst": "The address of the destination account",
          "src": "The address of the source account"
        },
        "returns": {
          "_0": "Whether or not the transfer succeeded"
        }
      },
      "transferOwnership(address)": {
        "details": "Transfers ownership of the contract to a new account (`newOwner`). Can only be called by the current owner."
      },
      "updateAdminFee(uint256)": {
        "details": "Total fees cannot be greater than BIPS_DIVISOR (100%)",
        "params": {
          "newValue": "specified in BIPS"
        }
      },
      "updateMinTokensToReinvest(uint256)": {
        "params": {
          "newValue": "min threshold in wei"
        }
      },
      "updateMinTokensToReinvestBeforeDeposit(uint256)": {
        "params": {
          "newValue": "min threshold in wei"
        }
      },
      "updateReinvestReward(uint256)": {
        "details": "Total fees cannot be greater than BIPS_DIVISOR (100%)",
        "params": {
          "newValue": "specified in BIPS"
        }
      },
      "withdraw(uint256)": {
        "params": {
          "amount": "Amount of receipt tokens to redeem"
        }
      }
    },
    "version": 1
  },
  "userdoc": {
    "kind": "user",
    "methods": {
      "DOMAIN_TYPEHASH()": {
        "notice": "keccak256(\"EIP712Domain(string name,string version,uint256 chainId,address verifyingContract)\")"
      },
      "PERMIT_TYPEHASH()": {
        "notice": "keccak256(\"Permit(address owner,address spender,uint256 value,uint256 nonce,uint256 deadline)\");"
      },
      "VERSION_HASH()": {
        "notice": "keccak256(\"1\");"
      },
      "allowance(address,address)": {
        "notice": "Get the number of tokens `spender` is approved to spend on behalf of `account`"
      },
      "approve(address,uint256)": {
        "notice": "Approve `spender` to transfer up to `amount` from `src`"
      },
      "balanceOf(address)": {
        "notice": "Get the number of tokens held by the `account`"
      },
      "checkReward()": {
        "notice": "Reward token balance that can be reinvested"
      },
      "deposit(uint256)": {
        "notice": "Deposit tokens to receive receipt tokens"
      },
      "depositWithPermit(uint256,uint256,uint8,bytes32,bytes32)": {
        "notice": "Deposit using Permit"
      },
      "emergencyWithdraw()": {
        "notice": "Allows exit from Staking Contract without additional logic"
      },
      "estimateReinvestReward()": {
        "notice": "Estimate reinvest reward for caller"
      },
      "getDepositTokensForShares(uint256)": {
        "notice": "Calculate deposit tokens for a given amount of receipt tokens"
      },
      "getDomainSeparator()": {
        "notice": "EIP-712 Domain separator"
      },
      "getSharesForDepositTokens(uint256)": {
        "notice": "Calculate receipt tokens for a given amount of deposit tokens"
      },
      "permit(address,address,uint256,uint256,uint8,bytes32,bytes32)": {
        "notice": "Triggers an approval from owner to spender"
      },
      "recoverAVAX(uint256)": {
        "notice": "Recover AVAX from contract"
      },
      "recoverERC20(address,uint256)": {
        "notice": "Recover ERC20 from contract"
      },
      "reinvest()": {
        "notice": "Reinvest rewards from staking contract to deposit tokens"
      },
      "revokeAllowance(address,address)": {
        "notice": "Revoke token allowance"
      },
      "setAllowances()": {
        "notice": "Approve tokens for use in Strategy"
      },
      "transfer(address,uint256)": {
        "notice": "Transfer `amount` tokens from `msg.sender` to `dst`"
      },
      "transferFrom(address,address,uint256)": {
        "notice": "Transfer `amount` tokens from `src` to `dst`"
      },
      "updateAdminFee(uint256)": {
        "notice": "Update admin fee"
      },
      "updateMinTokensToReinvest(uint256)": {
        "notice": "Update reinvest minimum threshold for external callers"
      },
      "updateMinTokensToReinvestBeforeDeposit(uint256)": {
        "notice": "Update reinvest minimum threshold before a deposit"
      },
      "updateReinvestReward(uint256)": {
        "notice": "Update reinvest reward"
      },
      "updateRequireReinvestBeforeDeposit()": {
        "notice": "Toggle requirement to reinvest before deposit"
      },
      "withdraw(uint256)": {
        "notice": "Withdraw LP tokens by redeeming receipt tokens"
      }
    },
    "version": 1
  },
  "storageLayout": {
    "storage": [
      {
        "astId": 2310,
        "contract": "contracts/OliveStrategyForLPa.sol:OliveStrategyForLPa",
        "label": "name",
        "offset": 0,
        "slot": "0",
        "type": "t_string_storage"
      },
      {
        "astId": 2313,
        "contract": "contracts/OliveStrategyForLPa.sol:OliveStrategyForLPa",
        "label": "symbol",
        "offset": 0,
        "slot": "1",
        "type": "t_string_storage"
      },
      {
        "astId": 2318,
        "contract": "contracts/OliveStrategyForLPa.sol:OliveStrategyForLPa",
        "label": "totalSupply",
        "offset": 0,
        "slot": "2",
        "type": "t_uint256"
      },
      {
        "astId": 2324,
        "contract": "contracts/OliveStrategyForLPa.sol:OliveStrategyForLPa",
        "label": "allowances",
        "offset": 0,
        "slot": "3",
        "type": "t_mapping(t_address,t_mapping(t_address,t_uint256))"
      },
      {
        "astId": 2328,
        "contract": "contracts/OliveStrategyForLPa.sol:OliveStrategyForLPa",
        "label": "balances",
        "offset": 0,
        "slot": "4",
        "type": "t_mapping(t_address,t_uint256)"
      },
      {
        "astId": 2344,
        "contract": "contracts/OliveStrategyForLPa.sol:OliveStrategyForLPa",
        "label": "nonces",
        "offset": 0,
        "slot": "5",
        "type": "t_mapping(t_address,t_uint256)"
      },
      {
        "astId": 3481,
        "contract": "contracts/OliveStrategyForLPa.sol:OliveStrategyForLPa",
        "label": "_owner",
        "offset": 0,
        "slot": "6",
        "type": "t_address"
      },
      {
        "astId": 18,
        "contract": "contracts/OliveStrategyForLPa.sol:OliveStrategyForLPa",
        "label": "totalDeposits",
        "offset": 0,
        "slot": "7",
        "type": "t_uint256"
      },
      {
        "astId": 20,
        "contract": "contracts/OliveStrategyForLPa.sol:OliveStrategyForLPa",
        "label": "router",
        "offset": 0,
        "slot": "8",
        "type": "t_contract(IRouter)3450"
      },
      {
        "astId": 22,
        "contract": "contracts/OliveStrategyForLPa.sol:OliveStrategyForLPa",
        "label": "depositToken",
        "offset": 0,
        "slot": "9",
        "type": "t_contract(IPair)3070"
      },
      {
        "astId": 24,
        "contract": "contracts/OliveStrategyForLPa.sol:OliveStrategyForLPa",
        "label": "token0",
        "offset": 0,
        "slot": "10",
        "type": "t_contract(IERC20)2920"
      },
      {
        "astId": 26,
        "contract": "contracts/OliveStrategyForLPa.sol:OliveStrategyForLPa",
        "label": "token1",
        "offset": 0,
        "slot": "11",
        "type": "t_contract(IERC20)2920"
      },
      {
        "astId": 28,
        "contract": "contracts/OliveStrategyForLPa.sol:OliveStrategyForLPa",
        "label": "rewardToken",
        "offset": 0,
        "slot": "12",
        "type": "t_contract(IERC20)2920"
      },
      {
        "astId": 30,
        "contract": "contracts/OliveStrategyForLPa.sol:OliveStrategyForLPa",
        "label": "stakingContract",
        "offset": 0,
        "slot": "13",
        "type": "t_contract(IOliveChef)3054"
      },
      {
        "astId": 32,
        "contract": "contracts/OliveStrategyForLPa.sol:OliveStrategyForLPa",
        "label": "PID",
        "offset": 0,
        "slot": "14",
        "type": "t_uint256"
      },
      {
        "astId": 35,
        "contract": "contracts/OliveStrategyForLPa.sol:OliveStrategyForLPa",
        "label": "MIN_TOKENS_TO_REINVEST",
        "offset": 0,
        "slot": "15",
        "type": "t_uint256"
      },
      {
        "astId": 38,
        "contract": "contracts/OliveStrategyForLPa.sol:OliveStrategyForLPa",
        "label": "REINVEST_REWARD_BIPS",
        "offset": 0,
        "slot": "16",
        "type": "t_uint256"
      },
      {
        "astId": 41,
        "contract": "contracts/OliveStrategyForLPa.sol:OliveStrategyForLPa",
        "label": "ADMIN_FEE_BIPS",
        "offset": 0,
        "slot": "17",
        "type": "t_uint256"
      },
      {
        "astId": 56,
        "contract": "contracts/OliveStrategyForLPa.sol:OliveStrategyForLPa",
        "label": "REQUIRE_REINVEST_BEFORE_DEPOSIT",
        "offset": 0,
        "slot": "18",
        "type": "t_bool"
      },
      {
        "astId": 59,
        "contract": "contracts/OliveStrategyForLPa.sol:OliveStrategyForLPa",
        "label": "MIN_TOKENS_TO_REINVEST_BEFORE_DEPOSIT",
        "offset": 0,
        "slot": "19",
        "type": "t_uint256"
      }
    ],
    "types": {
      "t_address": {
        "encoding": "inplace",
        "label": "address",
        "numberOfBytes": "20"
      },
      "t_bool": {
        "encoding": "inplace",
        "label": "bool",
        "numberOfBytes": "1"
      },
      "t_contract(IERC20)2920": {
        "encoding": "inplace",
        "label": "contract IERC20",
        "numberOfBytes": "20"
      },
      "t_contract(IOliveChef)3054": {
        "encoding": "inplace",
        "label": "contract IOliveChef",
        "numberOfBytes": "20"
      },
      "t_contract(IPair)3070": {
        "encoding": "inplace",
        "label": "contract IPair",
        "numberOfBytes": "20"
      },
      "t_contract(IRouter)3450": {
        "encoding": "inplace",
        "label": "contract IRouter",
        "numberOfBytes": "20"
      },
      "t_mapping(t_address,t_mapping(t_address,t_uint256))": {
        "encoding": "mapping",
        "key": "t_address",
        "label": "mapping(address => mapping(address => uint256))",
        "numberOfBytes": "32",
        "value": "t_mapping(t_address,t_uint256)"
      },
      "t_mapping(t_address,t_uint256)": {
        "encoding": "mapping",
        "key": "t_address",
        "label": "mapping(address => uint256)",
        "numberOfBytes": "32",
        "value": "t_uint256"
      },
      "t_string_storage": {
        "encoding": "bytes",
        "label": "string",
        "numberOfBytes": "32"
      },
      "t_uint256": {
        "encoding": "inplace",
        "label": "uint256",
        "numberOfBytes": "32"
      }
    }
  }
}