{
  "address": "0x4DD36b27e038E5c479d8BEC440c8f4eE89B6dF5D",
  "abi": [
    {
      "inputs": [
        {
          "internalType": "address",
          "name": "_depositToken",
          "type": "address"
        },
        {
          "internalType": "address",
          "name": "_rewardToken",
          "type": "address"
        },
        {
          "internalType": "address",
          "name": "_stakingContract",
          "type": "address"
        },
        {
          "internalType": "uint256",
          "name": "_pid",
          "type": "uint256"
        }
      ],
      "stateMutability": "nonpayable",
      "type": "constructor"
    },
    {
      "anonymous": false,
      "inputs": [
        {
          "indexed": true,
          "internalType": "address",
          "name": "owner",
          "type": "address"
        },
        {
          "indexed": true,
          "internalType": "address",
          "name": "spender",
          "type": "address"
        },
        {
          "indexed": false,
          "internalType": "uint256",
          "name": "value",
          "type": "uint256"
        }
      ],
      "name": "Approval",
      "type": "event"
    },
    {
      "anonymous": false,
      "inputs": [
        {
          "indexed": true,
          "internalType": "address",
          "name": "account",
          "type": "address"
        },
        {
          "indexed": false,
          "internalType": "uint256",
          "name": "amount",
          "type": "uint256"
        }
      ],
      "name": "Deposit",
      "type": "event"
    },
    {
      "anonymous": false,
      "inputs": [
        {
          "indexed": true,
          "internalType": "address",
          "name": "previousOwner",
          "type": "address"
        },
        {
          "indexed": true,
          "internalType": "address",
          "name": "newOwner",
          "type": "address"
        }
      ],
      "name": "OwnershipTransferred",
      "type": "event"
    },
    {
      "anonymous": false,
      "inputs": [
        {
          "indexed": false,
          "internalType": "address",
          "name": "token",
          "type": "address"
        },
        {
          "indexed": false,
          "internalType": "uint256",
          "name": "amount",
          "type": "uint256"
        }
      ],
      "name": "Recovered",
      "type": "event"
    },
    {
      "anonymous": false,
      "inputs": [
        {
          "indexed": false,
          "internalType": "uint256",
          "name": "newTotalDeposits",
          "type": "uint256"
        },
        {
          "indexed": false,
          "internalType": "uint256",
          "name": "newTotalSupply",
          "type": "uint256"
        }
      ],
      "name": "Reinvest",
      "type": "event"
    },
    {
      "anonymous": false,
      "inputs": [
        {
          "indexed": true,
          "internalType": "address",
          "name": "from",
          "type": "address"
        },
        {
          "indexed": true,
          "internalType": "address",
          "name": "to",
          "type": "address"
        },
        {
          "indexed": false,
          "internalType": "uint256",
          "name": "value",
          "type": "uint256"
        }
      ],
      "name": "Transfer",
      "type": "event"
    },
    {
      "anonymous": false,
      "inputs": [
        {
          "indexed": false,
          "internalType": "uint256",
          "name": "oldValue",
          "type": "uint256"
        },
        {
          "indexed": false,
          "internalType": "uint256",
          "name": "newValue",
          "type": "uint256"
        }
      ],
      "name": "UpdateAdminFee",
      "type": "event"
    },
    {
      "anonymous": false,
      "inputs": [
        {
          "indexed": false,
          "internalType": "uint256",
          "name": "oldValue",
          "type": "uint256"
        },
        {
          "indexed": false,
          "internalType": "uint256",
          "name": "newValue",
          "type": "uint256"
        }
      ],
      "name": "UpdateMinTokensToReinvest",
      "type": "event"
    },
    {
      "anonymous": false,
      "inputs": [
        {
          "indexed": false,
          "internalType": "uint256",
          "name": "oldValue",
          "type": "uint256"
        },
        {
          "indexed": false,
          "internalType": "uint256",
          "name": "newValue",
          "type": "uint256"
        }
      ],
      "name": "UpdateMinTokensToReinvestBeforeDeposit",
      "type": "event"
    },
    {
      "anonymous": false,
      "inputs": [
        {
          "indexed": false,
          "internalType": "uint256",
          "name": "oldValue",
          "type": "uint256"
        },
        {
          "indexed": false,
          "internalType": "uint256",
          "name": "newValue",
          "type": "uint256"
        }
      ],
      "name": "UpdateReinvestReward",
      "type": "event"
    },
    {
      "anonymous": false,
      "inputs": [
        {
          "indexed": false,
          "internalType": "bool",
          "name": "newValue",
          "type": "bool"
        }
      ],
      "name": "UpdateRequireReinvestBeforeDeposit",
      "type": "event"
    },
    {
      "anonymous": false,
      "inputs": [
        {
          "indexed": true,
          "internalType": "address",
          "name": "account",
          "type": "address"
        },
        {
          "indexed": false,
          "internalType": "uint256",
          "name": "amount",
          "type": "uint256"
        }
      ],
      "name": "Withdraw",
      "type": "event"
    },
    {
      "inputs": [],
      "name": "ADMIN_FEE_BIPS",
      "outputs": [
        {
          "internalType": "uint256",
          "name": "",
          "type": "uint256"
        }
      ],
      "stateMutability": "view",
      "type": "function"
    },
    {
      "inputs": [],
      "name": "DOMAIN_TYPEHASH",
      "outputs": [
        {
          "internalType": "bytes32",
          "name": "",
          "type": "bytes32"
        }
      ],
      "stateMutability": "view",
      "type": "function"
    },
    {
      "inputs": [],
      "name": "MIN_TOKENS_TO_REINVEST",
      "outputs": [
        {
          "internalType": "uint256",
          "name": "",
          "type": "uint256"
        }
      ],
      "stateMutability": "view",
      "type": "function"
    },
    {
      "inputs": [],
      "name": "MIN_TOKENS_TO_REINVEST_BEFORE_DEPOSIT",
      "outputs": [
        {
          "internalType": "uint256",
          "name": "",
          "type": "uint256"
        }
      ],
      "stateMutability": "view",
      "type": "function"
    },
    {
      "inputs": [],
      "name": "PERMIT_TYPEHASH",
      "outputs": [
        {
          "internalType": "bytes32",
          "name": "",
          "type": "bytes32"
        }
      ],
      "stateMutability": "view",
      "type": "function"
    },
    {
      "inputs": [],
      "name": "PID",
      "outputs": [
        {
          "internalType": "uint256",
          "name": "",
          "type": "uint256"
        }
      ],
      "stateMutability": "view",
      "type": "function"
    },
    {
      "inputs": [],
      "name": "REINVEST_REWARD_BIPS",
      "outputs": [
        {
          "internalType": "uint256",
          "name": "",
          "type": "uint256"
        }
      ],
      "stateMutability": "view",
      "type": "function"
    },
    {
      "inputs": [],
      "name": "REQUIRE_REINVEST_BEFORE_DEPOSIT",
      "outputs": [
        {
          "internalType": "bool",
          "name": "",
          "type": "bool"
        }
      ],
      "stateMutability": "view",
      "type": "function"
    },
    {
      "inputs": [],
      "name": "VERSION_HASH",
      "outputs": [
        {
          "internalType": "bytes32",
          "name": "",
          "type": "bytes32"
        }
      ],
      "stateMutability": "view",
      "type": "function"
    },
    {
      "inputs": [
        {
          "internalType": "address",
          "name": "account",
          "type": "address"
        },
        {
          "internalType": "address",
          "name": "spender",
          "type": "address"
        }
      ],
      "name": "allowance",
      "outputs": [
        {
          "internalType": "uint256",
          "name": "",
          "type": "uint256"
        }
      ],
      "stateMutability": "view",
      "type": "function"
    },
    {
      "inputs": [
        {
          "internalType": "address",
          "name": "spender",
          "type": "address"
        },
        {
          "internalType": "uint256",
          "name": "amount",
          "type": "uint256"
        }
      ],
      "name": "approve",
      "outputs": [
        {
          "internalType": "bool",
          "name": "",
          "type": "bool"
        }
      ],
      "stateMutability": "nonpayable",
      "type": "function"
    },
    {
      "inputs": [
        {
          "internalType": "address",
          "name": "account",
          "type": "address"
        }
      ],
      "name": "balanceOf",
      "outputs": [
        {
          "internalType": "uint256",
          "name": "",
          "type": "uint256"
        }
      ],
      "stateMutability": "view",
      "type": "function"
    },
    {
      "inputs": [],
      "name": "checkReward",
      "outputs": [
        {
          "internalType": "uint256",
          "name": "",
          "type": "uint256"
        }
      ],
      "stateMutability": "view",
      "type": "function"
    },
    {
      "inputs": [],
      "name": "decimals",
      "outputs": [
        {
          "internalType": "uint8",
          "name": "",
          "type": "uint8"
        }
      ],
      "stateMutability": "view",
      "type": "function"
    },
    {
      "inputs": [
        {
          "internalType": "uint256",
          "name": "amount",
          "type": "uint256"
        }
      ],
      "name": "deposit",
      "outputs": [],
      "stateMutability": "nonpayable",
      "type": "function"
    },
    {
      "inputs": [],
      "name": "depositToken",
      "outputs": [
        {
          "internalType": "contract IERC20",
          "name": "",
          "type": "address"
        }
      ],
      "stateMutability": "view",
      "type": "function"
    },
    {
      "inputs": [],
      "name": "emergencyWithdraw",
      "outputs": [],
      "stateMutability": "nonpayable",
      "type": "function"
    },
    {
      "inputs": [],
      "name": "estimateReinvestReward",
      "outputs": [
        {
          "internalType": "uint256",
          "name": "",
          "type": "uint256"
        }
      ],
      "stateMutability": "view",
      "type": "function"
    },
    {
      "inputs": [
        {
          "internalType": "uint256",
          "name": "amount",
          "type": "uint256"
        }
      ],
      "name": "getDepositTokensForShares",
      "outputs": [
        {
          "internalType": "uint256",
          "name": "",
          "type": "uint256"
        }
      ],
      "stateMutability": "view",
      "type": "function"
    },
    {
      "inputs": [],
      "name": "getDomainSeparator",
      "outputs": [
        {
          "internalType": "bytes32",
          "name": "",
          "type": "bytes32"
        }
      ],
      "stateMutability": "view",
      "type": "function"
    },
    {
      "inputs": [
        {
          "internalType": "uint256",
          "name": "amount",
          "type": "uint256"
        }
      ],
      "name": "getSharesForDepositTokens",
      "outputs": [
        {
          "internalType": "uint256",
          "name": "",
          "type": "uint256"
        }
      ],
      "stateMutability": "view",
      "type": "function"
    },
    {
      "inputs": [],
      "name": "name",
      "outputs": [
        {
          "internalType": "string",
          "name": "",
          "type": "string"
        }
      ],
      "stateMutability": "view",
      "type": "function"
    },
    {
      "inputs": [
        {
          "internalType": "address",
          "name": "",
          "type": "address"
        }
      ],
      "name": "nonces",
      "outputs": [
        {
          "internalType": "uint256",
          "name": "",
          "type": "uint256"
        }
      ],
      "stateMutability": "view",
      "type": "function"
    },
    {
      "inputs": [],
      "name": "owner",
      "outputs": [
        {
          "internalType": "address",
          "name": "",
          "type": "address"
        }
      ],
      "stateMutability": "view",
      "type": "function"
    },
    {
      "inputs": [
        {
          "internalType": "address",
          "name": "owner",
          "type": "address"
        },
        {
          "internalType": "address",
          "name": "spender",
          "type": "address"
        },
        {
          "internalType": "uint256",
          "name": "value",
          "type": "uint256"
        },
        {
          "internalType": "uint256",
          "name": "deadline",
          "type": "uint256"
        },
        {
          "internalType": "uint8",
          "name": "v",
          "type": "uint8"
        },
        {
          "internalType": "bytes32",
          "name": "r",
          "type": "bytes32"
        },
        {
          "internalType": "bytes32",
          "name": "s",
          "type": "bytes32"
        }
      ],
      "name": "permit",
      "outputs": [],
      "stateMutability": "nonpayable",
      "type": "function"
    },
    {
      "inputs": [
        {
          "internalType": "uint256",
          "name": "amount",
          "type": "uint256"
        }
      ],
      "name": "recoverAVAX",
      "outputs": [],
      "stateMutability": "nonpayable",
      "type": "function"
    },
    {
      "inputs": [
        {
          "internalType": "address",
          "name": "tokenAddress",
          "type": "address"
        },
        {
          "internalType": "uint256",
          "name": "tokenAmount",
          "type": "uint256"
        }
      ],
      "name": "recoverERC20",
      "outputs": [],
      "stateMutability": "nonpayable",
      "type": "function"
    },
    {
      "inputs": [],
      "name": "reinvest",
      "outputs": [],
      "stateMutability": "nonpayable",
      "type": "function"
    },
    {
      "inputs": [],
      "name": "renounceOwnership",
      "outputs": [],
      "stateMutability": "nonpayable",
      "type": "function"
    },
    {
      "inputs": [
        {
          "internalType": "address",
          "name": "token",
          "type": "address"
        },
        {
          "internalType": "address",
          "name": "spender",
          "type": "address"
        }
      ],
      "name": "revokeAllowance",
      "outputs": [],
      "stateMutability": "nonpayable",
      "type": "function"
    },
    {
      "inputs": [],
      "name": "rewardToken",
      "outputs": [
        {
          "internalType": "contract IERC20",
          "name": "",
          "type": "address"
        }
      ],
      "stateMutability": "view",
      "type": "function"
    },
    {
      "inputs": [],
      "name": "setAllowances",
      "outputs": [],
      "stateMutability": "nonpayable",
      "type": "function"
    },
    {
      "inputs": [],
      "name": "stakingContract",
      "outputs": [
        {
          "internalType": "contract IOliveChef",
          "name": "",
          "type": "address"
        }
      ],
      "stateMutability": "view",
      "type": "function"
    },
    {
      "inputs": [],
      "name": "symbol",
      "outputs": [
        {
          "internalType": "string",
          "name": "",
          "type": "string"
        }
      ],
      "stateMutability": "view",
      "type": "function"
    },
    {
      "inputs": [],
      "name": "totalDeposits",
      "outputs": [
        {
          "internalType": "uint256",
          "name": "",
          "type": "uint256"
        }
      ],
      "stateMutability": "view",
      "type": "function"
    },
    {
      "inputs": [],
      "name": "totalSupply",
      "outputs": [
        {
          "internalType": "uint256",
          "name": "",
          "type": "uint256"
        }
      ],
      "stateMutability": "view",
      "type": "function"
    },
    {
      "inputs": [
        {
          "internalType": "address",
          "name": "dst",
          "type": "address"
        },
        {
          "internalType": "uint256",
          "name": "amount",
          "type": "uint256"
        }
      ],
      "name": "transfer",
      "outputs": [
        {
          "internalType": "bool",
          "name": "",
          "type": "bool"
        }
      ],
      "stateMutability": "nonpayable",
      "type": "function"
    },
    {
      "inputs": [
        {
          "internalType": "address",
          "name": "src",
          "type": "address"
        },
        {
          "internalType": "address",
          "name": "dst",
          "type": "address"
        },
        {
          "internalType": "uint256",
          "name": "amount",
          "type": "uint256"
        }
      ],
      "name": "transferFrom",
      "outputs": [
        {
          "internalType": "bool",
          "name": "",
          "type": "bool"
        }
      ],
      "stateMutability": "nonpayable",
      "type": "function"
    },
    {
      "inputs": [
        {
          "internalType": "address",
          "name": "newOwner",
          "type": "address"
        }
      ],
      "name": "transferOwnership",
      "outputs": [],
      "stateMutability": "nonpayable",
      "type": "function"
    },
    {
      "inputs": [
        {
          "internalType": "uint256",
          "name": "newValue",
          "type": "uint256"
        }
      ],
      "name": "updateAdminFee",
      "outputs": [],
      "stateMutability": "nonpayable",
      "type": "function"
    },
    {
      "inputs": [
        {
          "internalType": "uint256",
          "name": "newValue",
          "type": "uint256"
        }
      ],
      "name": "updateMinTokensToReinvest",
      "outputs": [],
      "stateMutability": "nonpayable",
      "type": "function"
    },
    {
      "inputs": [
        {
          "internalType": "uint256",
          "name": "newValue",
          "type": "uint256"
        }
      ],
      "name": "updateMinTokensToReinvestBeforeDeposit",
      "outputs": [],
      "stateMutability": "nonpayable",
      "type": "function"
    },
    {
      "inputs": [
        {
          "internalType": "uint256",
          "name": "newValue",
          "type": "uint256"
        }
      ],
      "name": "updateReinvestReward",
      "outputs": [],
      "stateMutability": "nonpayable",
      "type": "function"
    },
    {
      "inputs": [],
      "name": "updateRequireReinvestBeforeDeposit",
      "outputs": [],
      "stateMutability": "nonpayable",
      "type": "function"
    },
    {
      "inputs": [
        {
          "internalType": "uint256",
          "name": "amount",
          "type": "uint256"
        }
      ],
      "name": "withdraw",
      "outputs": [],
      "stateMutability": "nonpayable",
      "type": "function"
    }
  ],
  "transactionHash": "0xc111940d31f76d2889800ff913667e70068e78ab5c8f609b536f200c22954be6",
  "args": [
    "0x617724974218A18769020A70162165A539c07E8a",
    "0x617724974218A18769020A70162165A539c07E8a",
    "0x5A9710f3f23053573301C2aB5024D0a43A461E80",
    "0"
  ],
  "solcInputHash": "79902fae70053d0cf4f4bf8e6b44a2cb",
  "bytecode": "0x60806040526040518060400160405280600981526020017f5969656c642059616b0000000000000000000000000000000000000000000000815250600090805190602001906200005192919062000558565b506040518060400160405280600381526020017f5952540000000000000000000000000000000000000000000000000000000000815250600190805190602001906200009f92919062000558565b50614e20600c556101f4600d556101f4600e556014601055348015620000c457600080fd5b5060405162004f7738038062004f778339818101604052810190620000ea91906200069f565b6000620000fc6200039d60201b60201c565b905080600660006101000a81548173ffffffffffffffffffffffffffffffffffffffff021916908373ffffffffffffffffffffffffffffffffffffffff1602179055508073ffffffffffffffffffffffffffffffffffffffff16600073ffffffffffffffffffffffffffffffffffffffff167f8be0079c531659141344cd1fd0a4f28419497f9722a3daafe3b4186f6b6457e060405160405180910390a35083600860006101000a81548173ffffffffffffffffffffffffffffffffffffffff021916908373ffffffffffffffffffffffffffffffffffffffff16021790555082600960006101000a81548173ffffffffffffffffffffffffffffffffffffffff021916908373ffffffffffffffffffffffffffffffffffffffff16021790555081600a60006101000a81548173ffffffffffffffffffffffffffffffffffffffff021916908373ffffffffffffffffffffffffffffffffffffffff16021790555080600b81905550600860009054906101000a900473ffffffffffffffffffffffffffffffffffffffff1673ffffffffffffffffffffffffffffffffffffffff166395d89b416040518163ffffffff1660e01b815260040160006040518083038186803b158015620002ce57600080fd5b505afa158015620002e3573d6000803e3d6000fd5b505050506040513d6000823e3d601f19601f820116820180604052508101906200030e919062000737565b6040516020016200032091906200086a565b604051602081830303815290604052600090805190602001906200034692919062000558565b5062000357620003a560201b60201c565b7fc7606d21ac05cd309191543e409f0845c016120563783d70e4f41419dc0ef2346000806040516200038b929190620008bd565b60405180910390a15050505062000a7e565b600033905090565b620003b56200039d60201b60201c565b73ffffffffffffffffffffffffffffffffffffffff16620003db6200052e60201b60201c565b73ffffffffffffffffffffffffffffffffffffffff161462000434576040517f08c379a00000000000000000000000000000000000000000000000000000000081526004016200042b90620008ea565b60405180910390fd5b600860009054906101000a900473ffffffffffffffffffffffffffffffffffffffff1673ffffffffffffffffffffffffffffffffffffffff1663095ea7b3600a60009054906101000a900473ffffffffffffffffffffffffffffffffffffffff167fffffffffffffffffffffffffffffffffffffffffffffffffffffffffffffffff6040518363ffffffff1660e01b8152600401620004d592919062000890565b602060405180830381600087803b158015620004f057600080fd5b505af115801562000505573d6000803e3d6000fd5b505050506040513d601f19601f820116820180604052508101906200052b91906200070b565b50565b6000600660009054906101000a900473ffffffffffffffffffffffffffffffffffffffff16905090565b828054600181600116156101000203166002900490600052602060002090601f016020900481019282601f106200059b57805160ff1916838001178555620005cc565b82800160010185558215620005cc579182015b82811115620005cb578251825591602001919060010190620005ae565b5b509050620005db9190620005df565b5090565b5b80821115620005fa576000816000905550600101620005e0565b5090565b6000815190506200060f8162000a30565b92915050565b600081519050620006268162000a4a565b92915050565b600082601f8301126200063e57600080fd5b8151620006556200064f8262000940565b6200090c565b915080825260208301602083018583830111156200067257600080fd5b6200067f838284620009f8565b50505092915050565b600081519050620006998162000a64565b92915050565b60008060008060808587031215620006b657600080fd5b6000620006c687828801620005fe565b9450506020620006d987828801620005fe565b9350506040620006ec87828801620005fe565b9250506060620006ff8782880162000688565b91505092959194509250565b6000602082840312156200071e57600080fd5b60006200072e8482850162000615565b91505092915050565b6000602082840312156200074a57600080fd5b600082015167ffffffffffffffff8111156200076557600080fd5b62000773848285016200062c565b91505092915050565b62000787816200099a565b82525050565b6200079881620009e4565b82525050565b6000620007ab8262000973565b620007b781856200098f565b9350620007c9818560208601620009f8565b80840191505092915050565b6000620007e4600b836200098f565b91507f5969656c642059616b3a200000000000000000000000000000000000000000006000830152600b82019050919050565b6000620008266020836200097e565b91507f4f776e61626c653a2063616c6c6572206973206e6f7420746865206f776e65726000830152602082019050919050565b6200086481620009da565b82525050565b60006200087782620007d5565b91506200088582846200079e565b915081905092915050565b6000604082019050620008a760008301856200077c565b620008b6602083018462000859565b9392505050565b6000604082019050620008d460008301856200078d565b620008e360208301846200078d565b9392505050565b60006020820190508181036000830152620009058162000817565b9050919050565b6000604051905081810181811067ffffffffffffffff8211171562000936576200093562000a2e565b5b8060405250919050565b600067ffffffffffffffff8211156200095e576200095d62000a2e565b5b601f19601f8301169050602081019050919050565b600081519050919050565b600082825260208201905092915050565b600081905092915050565b6000620009a782620009ba565b9050919050565b60008115159050919050565b600073ffffffffffffffffffffffffffffffffffffffff82169050919050565b6000819050919050565b6000620009f182620009da565b9050919050565b60005b8381101562000a18578082015181840152602081019050620009fb565b8381111562000a28576000848401525b50505050565bfe5b62000a3b816200099a565b811462000a4757600080fd5b50565b62000a5581620009ae565b811462000a6157600080fd5b50565b62000a6f81620009da565b811462000a7b57600080fd5b50565b6144e98062000a8e6000396000f3fe608060405234801561001057600080fd5b506004361061027f5760003560e01c80638aff733d1161015c578063cff1b6ef116100ce578063eab89a5a11610087578063eab89a5a14610730578063ed24911d14610760578063ee99205c1461077e578063f2fde38b1461079c578063f7c618c1146107b8578063fdb5a03e146107d65761027f565b8063cff1b6ef14610684578063d505accf146106a0578063db2e21bc146106bc578063dbd9a4d4146106c6578063dd62ed3e146106d0578063dd8ce4d6146107005761027f565b8063a9059cbb11610120578063a9059cbb146105c0578063b6b55f25146105f0578063b9e57b801461060c578063bd079f551461062a578063c4b24a4614610648578063c89039c5146106665761027f565b80638aff733d1461052c5780638da5cb5b1461054a57806395d89b41146105685780639e4e731814610586578063a8ae2b7c146105a45761027f565b806330adf81f116101f5578063715018a6116101b9578063715018a6146104805780637ae267731461048a5780637d882097146104a65780637ecebe00146104c457806381837230146104f45780638980f11f146105105761027f565b806330adf81f146103da578063313ce567146103f85780634ebb7916146104165780635eaec0e41461043257806370a08231146104505761027f565b80631331731411610247578063133173141461032a57806318160ddd1461034857806320606b7014610366578063236aecd51461038457806323b872dd1461038e5780632e1a7d4d146103be5761027f565b806303f7d9071461028457806306fdde03146102a057806307677111146102be578063095ea7b3146102dc578063114518041461030c575b600080fd5b61029e6004803603810190610299919061350f565b6107e0565b005b6102a86108a1565b6040516102b59190613ede565b60405180910390f35b6102c661093f565b6040516102d39190614160565b60405180910390f35b6102f660048036038101906102f191906134aa565b610945565b6040516103039190613d79565b60405180910390f35b61031461095c565b6040516103219190614160565b60405180910390f35b610332610962565b60405161033f9190613d79565b60405180910390f35b610350610975565b60405161035d9190614160565b60405180910390f35b61036e61097b565b60405161037b9190613d94565b60405180910390f35b61038c6109a2565b005b6103a860048036038101906103a391906133bd565b610a90565b6040516103b59190613d79565b60405180910390f35b6103d860048036038101906103d3919061350f565b610ca9565b005b6103e2610e2e565b6040516103ef9190613d94565b60405180910390f35b610400610e55565b60405161040d91906141f6565b60405180910390f35b610430600480360381019061042b919061350f565b610e5a565b005b61043a610f9d565b6040516104479190614160565b60405180910390f35b61046a60048036038101906104659190613358565b610fa3565b6040516104779190614160565b60405180910390f35b610488610fec565b005b6104a4600480360381019061049f9190613381565b611129565b005b6104ae611240565b6040516104bb9190614160565b60405180910390f35b6104de60048036038101906104d99190613358565b611246565b6040516104eb9190614160565b60405180910390f35b61050e6004803603810190610509919061350f565b61125e565b005b61052a600480360381019061052591906134aa565b61131f565b005b6105346114a9565b6040516105419190614160565b60405180910390f35b6105526114af565b60405161055f9190613cac565b60405180910390f35b6105706114d9565b60405161057d9190613ede565b60405180910390f35b61058e611577565b60405161059b9190613d94565b60405180910390f35b6105be60048036038101906105b9919061350f565b61159e565b005b6105da60048036038101906105d591906134aa565b6116b8565b6040516105e79190613d79565b60405180910390f35b61060a6004803603810190610605919061350f565b6116cf565b005b6106146116db565b6040516106219190614160565b60405180910390f35b61063261172b565b60405161063f9190614160565b60405180910390f35b610650611731565b60405161065d9190614160565b60405180910390f35b61066e6118ae565b60405161067b9190613ea8565b60405180910390f35b61069e6004803603810190610699919061350f565b6118d4565b005b6106ba60048036038101906106b5919061340c565b6119ee565b005b6106c4611af8565b005b6106ce611c0d565b005b6106ea60048036038101906106e59190613381565b611d7d565b6040516106f79190614160565b60405180910390f35b61071a6004803603810190610715919061350f565b611e04565b6040516107279190614160565b60405180910390f35b61074a6004803603810190610745919061350f565b611e5d565b6040516107579190614160565b60405180910390f35b610768611eb7565b6040516107759190613d94565b60405180910390f35b610786611f50565b6040516107939190613ec3565b60405180910390f35b6107b660048036038101906107b19190613358565b611f76565b005b6107c0612122565b6040516107cd9190613ea8565b60405180910390f35b6107de612148565b005b6107e8612213565b73ffffffffffffffffffffffffffffffffffffffff166108066114af565b73ffffffffffffffffffffffffffffffffffffffff161461085c576040517f08c379a000000000000000000000000000000000000000000000000000000000815260040161085390614020565b60405180910390fd5b7fd0f7c999974ac5e720302e1a81f85f0e86835bd50d1cdd4086c839df9c123aab6010548260405161088f9291906141cd565b60405180910390a18060108190555050565b60008054600181600116156101000203166002900480601f0160208091040260200160405190810160405280929190818152602001828054600181600116156101000203166002900480156109375780601f1061090c57610100808354040283529160200191610937565b820191906000526020600020905b81548152906001019060200180831161091a57829003601f168201915b505050505081565b600e5481565b600061095233848461221b565b6001905092915050565b60105481565b600f60009054906101000a900460ff1681565b60025481565b7f8b73c3c69bb8fe3d512ecc4cf759cc79239f7b179b0ffacaa9a75d522b39400f60001b81565b6109aa612213565b73ffffffffffffffffffffffffffffffffffffffff166109c86114af565b73ffffffffffffffffffffffffffffffffffffffff1614610a1e576040517f08c379a0000000000000000000000000000000000000000000000000000000008152600401610a1590614020565b60405180910390fd5b600f60009054906101000a900460ff1615600f60006101000a81548160ff0219169083151502179055507fd46852adf64681b12b81a308b01efd0a546667f68ab41ae5855c2bae7756380f600f60009054906101000a900460ff16604051610a869190613d79565b60405180910390a1565b6000803390506000600360008773ffffffffffffffffffffffffffffffffffffffff1673ffffffffffffffffffffffffffffffffffffffff16815260200190815260200160002060008373ffffffffffffffffffffffffffffffffffffffff1673ffffffffffffffffffffffffffffffffffffffff1681526020019081526020016000205490508573ffffffffffffffffffffffffffffffffffffffff168273ffffffffffffffffffffffffffffffffffffffff1614158015610b7357507fffffffffffffffffffffffffffffffffffffffffffffffffffffffffffffffff8114155b15610c91576000610ba7856040518060600160405280602f8152602001614430602f9139846123e69092919063ffffffff16565b905080600360008973ffffffffffffffffffffffffffffffffffffffff1673ffffffffffffffffffffffffffffffffffffffff16815260200190815260200160002060008573ffffffffffffffffffffffffffffffffffffffff1673ffffffffffffffffffffffffffffffffffffffff168152602001908152602001600020819055508273ffffffffffffffffffffffffffffffffffffffff168773ffffffffffffffffffffffffffffffffffffffff167f8c5be1e5ebec7d5bd14f71427d1e84f3dd0314c0f7b2291e5b200ac8c7c3b92583604051610c879190614160565b60405180910390a3505b610c9c868686612441565b6001925050509392505050565b6000610cb482611e5d565b90506000811115610e2a57610cc88161265f565b600860009054906101000a900473ffffffffffffffffffffffffffffffffffffffff1673ffffffffffffffffffffffffffffffffffffffff1663a9059cbb33836040518363ffffffff1660e01b8152600401610d25929190613cfe565b602060405180830381600087803b158015610d3f57600080fd5b505af1158015610d53573d6000803e3d6000fd5b505050506040513d601f19601f82011682018060405250810190610d7791906134e6565b610db6576040517f08c379a0000000000000000000000000000000000000000000000000000000008152600401610dad90614100565b60405180910390fd5b610dc03383612736565b610dd58160075461288490919063ffffffff16565b6007819055503373ffffffffffffffffffffffffffffffffffffffff167f884edad9ce6fa2440d8a54cc123490eb96d2768479d49ff9c7366125a942436482604051610e219190614160565b60405180910390a25b5050565b7f6e71edae12b1b97f4d1f60370fef10105fa2faae0126114a169c64845d6126c960001b81565b601281565b610e62612213565b73ffffffffffffffffffffffffffffffffffffffff16610e806114af565b73ffffffffffffffffffffffffffffffffffffffff1614610ed6576040517f08c379a0000000000000000000000000000000000000000000000000000000008152600401610ecd90614020565b60405180910390fd5b60008111610f19576040517f08c379a0000000000000000000000000000000000000000000000000000000008152600401610f1090613f60565b60405180910390fd5b3373ffffffffffffffffffffffffffffffffffffffff166108fc829081150290604051600060405180830381858888f19350505050158015610f5f573d6000803e3d6000fd5b507f8c1256b8896378cd5044f80c202f9772b9d77dc85c8a6eb51967210b09bfaa28600082604051610f92929190613cfe565b60405180910390a150565b600b5481565b6000600460008373ffffffffffffffffffffffffffffffffffffffff1673ffffffffffffffffffffffffffffffffffffffff168152602001908152602001600020549050919050565b610ff4612213565b73ffffffffffffffffffffffffffffffffffffffff166110126114af565b73ffffffffffffffffffffffffffffffffffffffff1614611068576040517f08c379a000000000000000000000000000000000000000000000000000000000815260040161105f90614020565b60405180910390fd5b600073ffffffffffffffffffffffffffffffffffffffff16600660009054906101000a900473ffffffffffffffffffffffffffffffffffffffff1673ffffffffffffffffffffffffffffffffffffffff167f8be0079c531659141344cd1fd0a4f28419497f9722a3daafe3b4186f6b6457e060405160405180910390a36000600660006101000a81548173ffffffffffffffffffffffffffffffffffffffff021916908373ffffffffffffffffffffffffffffffffffffffff160217905550565b611131612213565b73ffffffffffffffffffffffffffffffffffffffff1661114f6114af565b73ffffffffffffffffffffffffffffffffffffffff16146111a5576040517f08c379a000000000000000000000000000000000000000000000000000000000815260040161119c90614020565b60405180910390fd5b8173ffffffffffffffffffffffffffffffffffffffff1663095ea7b38260006040518363ffffffff1660e01b81526004016111e1929190613d27565b602060405180830381600087803b1580156111fb57600080fd5b505af115801561120f573d6000803e3d6000fd5b505050506040513d601f19601f8201168201806040525081019061123391906134e6565b61123c57600080fd5b5050565b60075481565b60056020528060005260406000206000915090505481565b611266612213565b73ffffffffffffffffffffffffffffffffffffffff166112846114af565b73ffffffffffffffffffffffffffffffffffffffff16146112da576040517f08c379a00000000000000000000000000000000000000000000000000000000081526004016112d190614020565b60405180910390fd5b7f481f79ac3a523b6d6db3c5a720e190e986d1cc1b41adcdf50f9caef849901100600c548260405161130d9291906141cd565b60405180910390a180600c8190555050565b611327612213565b73ffffffffffffffffffffffffffffffffffffffff166113456114af565b73ffffffffffffffffffffffffffffffffffffffff161461139b576040517f08c379a000000000000000000000000000000000000000000000000000000000815260040161139290614020565b60405180910390fd5b600081116113de576040517f08c379a00000000000000000000000000000000000000000000000000000000081526004016113d590613f60565b60405180910390fd5b8173ffffffffffffffffffffffffffffffffffffffff1663a9059cbb33836040518363ffffffff1660e01b8152600401611419929190613cfe565b602060405180830381600087803b15801561143357600080fd5b505af1158015611447573d6000803e3d6000fd5b505050506040513d601f19601f8201168201806040525081019061146b91906134e6565b507f8c1256b8896378cd5044f80c202f9772b9d77dc85c8a6eb51967210b09bfaa28828260405161149d929190613d50565b60405180910390a15050565b600d5481565b6000600660009054906101000a900473ffffffffffffffffffffffffffffffffffffffff16905090565b60018054600181600116156101000203166002900480601f01602080910402602001604051908101604052809291908181526020018280546001816001161561010002031660029004801561156f5780601f106115445761010080835404028352916020019161156f565b820191906000526020600020905b81548152906001019060200180831161155257829003601f168201915b505050505081565b7fc89efdaa54c0f20c7adf612882df0950f5a951637e0307cdcb4c672f298b8bc660001b81565b6115a6612213565b73ffffffffffffffffffffffffffffffffffffffff166115c46114af565b73ffffffffffffffffffffffffffffffffffffffff161461161a576040517f08c379a000000000000000000000000000000000000000000000000000000000815260040161161190614020565b60405180910390fd5b612710611632600e54836128ce90919063ffffffff16565b1115611673576040517f08c379a000000000000000000000000000000000000000000000000000000000815260040161166a90614140565b60405180910390fd5b7fe7f97d51d307dc44045597c9978bec0f842e6bb40d19b9444084cfa30d9ed4f2600d54826040516116a69291906141cd565b60405180910390a180600d8190555050565b60006116c5338484612441565b6001905092915050565b6116d881612923565b50565b6000806116e6611731565b9050600c5481106117225761171a61271061170c600d5484612b1790919063ffffffff16565b612b8790919063ffffffff16565b915050611728565b60009150505b90565b600c5481565b600080600a60009054906101000a900473ffffffffffffffffffffffffffffffffffffffff1673ffffffffffffffffffffffffffffffffffffffff16630ca475fc600b54306040518363ffffffff1660e01b815260040161179392919061417b565b60206040518083038186803b1580156117ab57600080fd5b505afa1580156117bf573d6000803e3d6000fd5b505050506040513d601f19601f820116820180604052508101906117e39190613538565b90506000600960009054906101000a900473ffffffffffffffffffffffffffffffffffffffff1673ffffffffffffffffffffffffffffffffffffffff166370a08231306040518263ffffffff1660e01b81526004016118429190613cac565b60206040518083038186803b15801561185a57600080fd5b505afa15801561186e573d6000803e3d6000fd5b505050506040513d601f19601f820116820180604052508101906118929190613538565b90506118a781836128ce90919063ffffffff16565b9250505090565b600860009054906101000a900473ffffffffffffffffffffffffffffffffffffffff1681565b6118dc612213565b73ffffffffffffffffffffffffffffffffffffffff166118fa6114af565b73ffffffffffffffffffffffffffffffffffffffff1614611950576040517f08c379a000000000000000000000000000000000000000000000000000000000815260040161194790614020565b60405180910390fd5b612710611968600d54836128ce90919063ffffffff16565b11156119a9576040517f08c379a00000000000000000000000000000000000000000000000000000000081526004016119a0906140a0565b60405180910390fd5b7f3cc372f330f95ac9540626dc8a25f5bf21ba607215a5d58304cb804d446f104a600e54826040516119dc9291906141cd565b60405180910390a180600e8190555050565b42841015611a31576040517f08c379a0000000000000000000000000000000000000000000000000000000008152600401611a2890613fa0565b60405180910390fd5b60007f6e71edae12b1b97f4d1f60370fef10105fa2faae0126114a169c64845d6126c960001b888888600560008d73ffffffffffffffffffffffffffffffffffffffff1673ffffffffffffffffffffffffffffffffffffffff16815260200190815260200160002060008154809291906001019190505589604051602001611abe96959493929190613daf565b604051602081830303815290604052805190602001209050611ae38882868686612bd1565b611aee88888861221b565b5050505050505050565b611b00612213565b73ffffffffffffffffffffffffffffffffffffffff16611b1e6114af565b73ffffffffffffffffffffffffffffffffffffffff1614611b74576040517f08c379a0000000000000000000000000000000000000000000000000000000008152600401611b6b90614020565b60405180910390fd5b600a60009054906101000a900473ffffffffffffffffffffffffffffffffffffffff1673ffffffffffffffffffffffffffffffffffffffff16635312ea8e600b546040518263ffffffff1660e01b8152600401611bd19190614160565b600060405180830381600087803b158015611beb57600080fd5b505af1158015611bff573d6000803e3d6000fd5b505050506000600781905550565b611c15612213565b73ffffffffffffffffffffffffffffffffffffffff16611c336114af565b73ffffffffffffffffffffffffffffffffffffffff1614611c89576040517f08c379a0000000000000000000000000000000000000000000000000000000008152600401611c8090614020565b60405180910390fd5b600860009054906101000a900473ffffffffffffffffffffffffffffffffffffffff1673ffffffffffffffffffffffffffffffffffffffff1663095ea7b3600a60009054906101000a900473ffffffffffffffffffffffffffffffffffffffff167fffffffffffffffffffffffffffffffffffffffffffffffffffffffffffffffff6040518363ffffffff1660e01b8152600401611d28929190613d50565b602060405180830381600087803b158015611d4257600080fd5b505af1158015611d56573d6000803e3d6000fd5b505050506040513d601f19601f82011682018060405250810190611d7a91906134e6565b50565b6000600360008473ffffffffffffffffffffffffffffffffffffffff1673ffffffffffffffffffffffffffffffffffffffff16815260200190815260200160002060008373ffffffffffffffffffffffffffffffffffffffff1673ffffffffffffffffffffffffffffffffffffffff16815260200190815260200160002054905092915050565b600080611e1e600754600254612b1790919063ffffffff16565b1415611e2c57819050611e58565b611e55600754611e4760025485612b1790919063ffffffff16565b612b8790919063ffffffff16565b90505b919050565b600080611e77600754600254612b1790919063ffffffff16565b1415611e865760009050611eb2565b611eaf600254611ea160075485612b1790919063ffffffff16565b612b8790919063ffffffff16565b90505b919050565b60007f8b73c3c69bb8fe3d512ecc4cf759cc79239f7b179b0ffacaa9a75d522b39400f60001b6000604051611eec9190613c5e565b60405180910390207fc89efdaa54c0f20c7adf612882df0950f5a951637e0307cdcb4c672f298b8bc660001b611f20612d08565b30604051602001611f35959493929190613e10565b60405160208183030381529060405280519060200120905090565b600a60009054906101000a900473ffffffffffffffffffffffffffffffffffffffff1681565b611f7e612213565b73ffffffffffffffffffffffffffffffffffffffff16611f9c6114af565b73ffffffffffffffffffffffffffffffffffffffff1614611ff2576040517f08c379a0000000000000000000000000000000000000000000000000000000008152600401611fe990614020565b60405180910390fd5b600073ffffffffffffffffffffffffffffffffffffffff168173ffffffffffffffffffffffffffffffffffffffff161415612062576040517f08c379a000000000000000000000000000000000000000000000000000000000815260040161205990613f00565b60405180910390fd5b8073ffffffffffffffffffffffffffffffffffffffff16600660009054906101000a900473ffffffffffffffffffffffffffffffffffffffff1673ffffffffffffffffffffffffffffffffffffffff167f8be0079c531659141344cd1fd0a4f28419497f9722a3daafe3b4186f6b6457e060405160405180910390a380600660006101000a81548173ffffffffffffffffffffffffffffffffffffffff021916908373ffffffffffffffffffffffffffffffffffffffff16021790555050565b600960009054906101000a900473ffffffffffffffffffffffffffffffffffffffff1681565b3373ffffffffffffffffffffffffffffffffffffffff163273ffffffffffffffffffffffffffffffffffffffff16146121b6576040517f08c379a00000000000000000000000000000000000000000000000000000000081526004016121ad906140c0565b60405180910390fd5b60006121c0611731565b9050600c54811015612207576040517f08c379a00000000000000000000000000000000000000000000000000000000081526004016121fe90613fc0565b60405180910390fd5b61221081612d15565b50565b600033905090565b600073ffffffffffffffffffffffffffffffffffffffff168373ffffffffffffffffffffffffffffffffffffffff16141561228b576040517f08c379a000000000000000000000000000000000000000000000000000000000815260040161228290614040565b60405180910390fd5b600073ffffffffffffffffffffffffffffffffffffffff168273ffffffffffffffffffffffffffffffffffffffff1614156122fb576040517f08c379a00000000000000000000000000000000000000000000000000000000081526004016122f290614120565b60405180910390fd5b80600360008573ffffffffffffffffffffffffffffffffffffffff1673ffffffffffffffffffffffffffffffffffffffff16815260200190815260200160002060008473ffffffffffffffffffffffffffffffffffffffff1673ffffffffffffffffffffffffffffffffffffffff168152602001908152602001600020819055508173ffffffffffffffffffffffffffffffffffffffff168373ffffffffffffffffffffffffffffffffffffffff167f8c5be1e5ebec7d5bd14f71427d1e84f3dd0314c0f7b2291e5b200ac8c7c3b925836040516123d99190614160565b60405180910390a3505050565b600083831115829061242e576040517f08c379a00000000000000000000000000000000000000000000000000000000081526004016124259190613ede565b60405180910390fd5b5060008385039050809150509392505050565b600073ffffffffffffffffffffffffffffffffffffffff168273ffffffffffffffffffffffffffffffffffffffff1614156124b1576040517f08c379a00000000000000000000000000000000000000000000000000000000081526004016124a890614060565b60405180910390fd5b61251d816040518060600160405280602e8152602001614486602e9139600460008773ffffffffffffffffffffffffffffffffffffffff1673ffffffffffffffffffffffffffffffffffffffff168152602001908152602001600020546123e69092919063ffffffff16565b600460008573ffffffffffffffffffffffffffffffffffffffff1673ffffffffffffffffffffffffffffffffffffffff168152602001908152602001600020819055506125b281600460008573ffffffffffffffffffffffffffffffffffffffff1673ffffffffffffffffffffffffffffffffffffffff168152602001908152602001600020546128ce90919063ffffffff16565b600460008473ffffffffffffffffffffffffffffffffffffffff1673ffffffffffffffffffffffffffffffffffffffff168152602001908152602001600020819055508173ffffffffffffffffffffffffffffffffffffffff168373ffffffffffffffffffffffffffffffffffffffff167fddf252ad1be2c89b69c2b068fc378daa952ba7f163c4a11628f55a4df523b3ef836040516126529190614160565b60405180910390a3505050565b600081116126a2576040517f08c379a000000000000000000000000000000000000000000000000000000000815260040161269990613f60565b60405180910390fd5b600a60009054906101000a900473ffffffffffffffffffffffffffffffffffffffff1673ffffffffffffffffffffffffffffffffffffffff1663441a3e70600b54836040518363ffffffff1660e01b81526004016127019291906141cd565b600060405180830381600087803b15801561271b57600080fd5b505af115801561272f573d6000803e3d6000fd5b5050505050565b6127a28160405180606001604052806027815260200161445f60279139600460008673ffffffffffffffffffffffffffffffffffffffff1673ffffffffffffffffffffffffffffffffffffffff168152602001908152602001600020546123e69092919063ffffffff16565b600460008473ffffffffffffffffffffffffffffffffffffffff1673ffffffffffffffffffffffffffffffffffffffff1681526020019081526020016000208190555061281481604051806060016040528060278152602001614409602791396002546123e69092919063ffffffff16565b600281905550600073ffffffffffffffffffffffffffffffffffffffff168273ffffffffffffffffffffffffffffffffffffffff167fddf252ad1be2c89b69c2b068fc378daa952ba7f163c4a11628f55a4df523b3ef836040516128789190614160565b60405180910390a35050565b60006128c683836040518060400160405280601f81526020017f536166654d6174683a207375627472616374696f6e20756e646572666c6f77008152506123e6565b905092915050565b600080828401905083811015612919576040517f08c379a000000000000000000000000000000000000000000000000000000000815260040161291090613f20565b60405180910390fd5b8091505092915050565b600254600754101561296a576040517f08c379a0000000000000000000000000000000000000000000000000000000008152600401612961906140e0565b60405180910390fd5b600f60009054906101000a900460ff16156129a0576000612989611731565b9050601054811061299e5761299d81612d15565b5b505b600860009054906101000a900473ffffffffffffffffffffffffffffffffffffffff1673ffffffffffffffffffffffffffffffffffffffff166323b872dd3330846040518463ffffffff1660e01b81526004016129ff93929190613cc7565b602060405180830381600087803b158015612a1957600080fd5b505af1158015612a2d573d6000803e3d6000fd5b505050506040513d601f19601f82011682018060405250810190612a5191906134e6565b612a90576040517f08c379a0000000000000000000000000000000000000000000000000000000008152600401612a8790614080565b60405180910390fd5b612a9981613088565b612aab33612aa683611e04565b61315f565b612ac0816007546128ce90919063ffffffff16565b6007819055503373ffffffffffffffffffffffffffffffffffffffff167fe1fffcc4923d04b559f4d29a8bfc6cda04eb5b0d3c460751c2402c5c5cc9109c82604051612b0c9190614160565b60405180910390a250565b600080831415612b2a5760009050612b81565b6000828402905082848281612b3b57fe5b0414612b7c576040517f08c379a0000000000000000000000000000000000000000000000000000000008152600401612b7390614000565b60405180910390fd5b809150505b92915050565b6000612bc983836040518060400160405280601a81526020017f536166654d6174683a206469766973696f6e206279207a65726f000000000000815250613279565b905092915050565b6000612bdb611eb7565b85604051602001612bed929190613c75565b604051602081830303815290604052805190602001209050600060018286868660405160008152602001604052604051612c2a9493929190613e63565b6020604051602081039080840390855afa158015612c4c573d6000803e3d6000fd5b505050602060405103519050600073ffffffffffffffffffffffffffffffffffffffff168173ffffffffffffffffffffffffffffffffffffffff1614158015612cc057508673ffffffffffffffffffffffffffffffffffffffff168173ffffffffffffffffffffffffffffffffffffffff16145b612cff576040517f08c379a0000000000000000000000000000000000000000000000000000000008152600401612cf690613f40565b60405180910390fd5b50505050505050565b6000804690508091505090565b600a60009054906101000a900473ffffffffffffffffffffffffffffffffffffffff1673ffffffffffffffffffffffffffffffffffffffff1663e2bbb158600b5460006040518363ffffffff1660e01b8152600401612d759291906141a4565b600060405180830381600087803b158015612d8f57600080fd5b505af1158015612da3573d6000803e3d6000fd5b505050506000612dd2612710612dc4600e5485612b1790919063ffffffff16565b612b8790919063ffffffff16565b90506000811115612ed357600960009054906101000a900473ffffffffffffffffffffffffffffffffffffffff1673ffffffffffffffffffffffffffffffffffffffff1663a9059cbb612e236114af565b836040518363ffffffff1660e01b8152600401612e41929190613d50565b602060405180830381600087803b158015612e5b57600080fd5b505af1158015612e6f573d6000803e3d6000fd5b505050506040513d601f19601f82011682018060405250810190612e9391906134e6565b612ed2576040517f08c379a0000000000000000000000000000000000000000000000000000000008152600401612ec990613fe0565b60405180910390fd5b5b6000612efe612710612ef0600d5486612b1790919063ffffffff16565b612b8790919063ffffffff16565b90506000811115612ff857600960009054906101000a900473ffffffffffffffffffffffffffffffffffffffff1673ffffffffffffffffffffffffffffffffffffffff1663a9059cbb33836040518363ffffffff1660e01b8152600401612f66929190613cfe565b602060405180830381600087803b158015612f8057600080fd5b505af1158015612f94573d6000803e3d6000fd5b505050506040513d601f19601f82011682018060405250810190612fb891906134e6565b612ff7576040517f08c379a0000000000000000000000000000000000000000000000000000000008152600401612fee90613f80565b60405180910390fd5b5b600061301f82613011858761288490919063ffffffff16565b61288490919063ffffffff16565b905061302a81613088565b61303f816007546128ce90919063ffffffff16565b6007819055507fc7606d21ac05cd309191543e409f0845c016120563783d70e4f41419dc0ef23460075460025460405161307a9291906141cd565b60405180910390a150505050565b600081116130cb576040517f08c379a00000000000000000000000000000000000000000000000000000000081526004016130c290613f60565b60405180910390fd5b600a60009054906101000a900473ffffffffffffffffffffffffffffffffffffffff1673ffffffffffffffffffffffffffffffffffffffff1663e2bbb158600b54836040518363ffffffff1660e01b815260040161312a9291906141cd565b600060405180830381600087803b15801561314457600080fd5b505af1158015613158573d6000803e3d6000fd5b5050505050565b613174816002546128ce90919063ffffffff16565b6002819055506131cc81600460008573ffffffffffffffffffffffffffffffffffffffff1673ffffffffffffffffffffffffffffffffffffffff168152602001908152602001600020546128ce90919063ffffffff16565b600460008473ffffffffffffffffffffffffffffffffffffffff1673ffffffffffffffffffffffffffffffffffffffff168152602001908152602001600020819055508173ffffffffffffffffffffffffffffffffffffffff16600073ffffffffffffffffffffffffffffffffffffffff167fddf252ad1be2c89b69c2b068fc378daa952ba7f163c4a11628f55a4df523b3ef8360405161326d9190614160565b60405180910390a35050565b600080831182906132c0576040517f08c379a00000000000000000000000000000000000000000000000000000000081526004016132b79190613ede565b60405180910390fd5b5060008385816132cc57fe5b049050809150509392505050565b6000813590506132e981614395565b92915050565b6000815190506132fe816143ac565b92915050565b600081359050613313816143c3565b92915050565b600081359050613328816143da565b92915050565b60008151905061333d816143da565b92915050565b600081359050613352816143f1565b92915050565b60006020828403121561336a57600080fd5b6000613378848285016132da565b91505092915050565b6000806040838503121561339457600080fd5b60006133a2858286016132da565b92505060206133b3858286016132da565b9150509250929050565b6000806000606084860312156133d257600080fd5b60006133e0868287016132da565b93505060206133f1868287016132da565b925050604061340286828701613319565b9150509250925092565b600080600080600080600060e0888a03121561342757600080fd5b60006134358a828b016132da565b97505060206134468a828b016132da565b96505060406134578a828b01613319565b95505060606134688a828b01613319565b94505060806134798a828b01613343565b93505060a061348a8a828b01613304565b92505060c061349b8a828b01613304565b91505092959891949750929550565b600080604083850312156134bd57600080fd5b60006134cb858286016132da565b92505060206134dc85828601613319565b9150509250929050565b6000602082840312156134f857600080fd5b6000613506848285016132ef565b91505092915050565b60006020828403121561352157600080fd5b600061352f84828501613319565b91505092915050565b60006020828403121561354a57600080fd5b60006135588482850161332e565b91505092915050565b61356a816142b7565b82525050565b61357981614258565b82525050565b6135888161426a565b82525050565b61359781614276565b82525050565b6135ae6135a982614276565b61437a565b82525050565b6000815460018116600081146135d157600181146135f65761363a565b607f60028304166135e28187614231565b955060ff198316865280860193505061363a565b600282046136048187614231565b955061360f85614211565b60005b8281101561363157815481890152600182019150602081019050613612565b82880195505050505b505092915050565b61364b816142c9565b82525050565b61365a816142ed565b82525050565b61366981614311565b82525050565b600061367a82614226565b613684818561423c565b9350613694818560208601614347565b61369d81614384565b840191505092915050565b60006136b560268361423c565b91507f4f776e61626c653a206e6577206f776e657220697320746865207a65726f206160008301527f64647265737300000000000000000000000000000000000000000000000000006020830152604082019050919050565b600061371b60028361424d565b91507f19010000000000000000000000000000000000000000000000000000000000006000830152600282019050919050565b600061375b601b8361423c565b91507f536166654d6174683a206164646974696f6e206f766572666c6f7700000000006000830152602082019050919050565b600061379b60248361423c565b91507f417263683a3a76616c69646174655369673a20696e76616c6964207369676e6160008301527f74757265000000000000000000000000000000000000000000000000000000006020830152604082019050919050565b6000613801600e8361423c565b91507f616d6f756e7420746f6f206c6f770000000000000000000000000000000000006000830152602082019050919050565b6000613841601c8361423c565b91507f7265696e7665737420666565207472616e73666572206661696c6564000000006000830152602082019050919050565b6000613881600f8361423c565b91507f7065726d69743a3a6578706972656400000000000000000000000000000000006000830152602082019050919050565b60006138c160168361423c565b91507f4d494e5f544f4b454e535f544f5f5245494e56455354000000000000000000006000830152602082019050919050565b600061390160198361423c565b91507f61646d696e20666565207472616e73666572206661696c6564000000000000006000830152602082019050919050565b600061394160218361423c565b91507f536166654d6174683a206d756c7469706c69636174696f6e206f766572666c6f60008301527f77000000000000000000000000000000000000000000000000000000000000006020830152604082019050919050565b60006139a760208361423c565b91507f4f776e61626c653a2063616c6c6572206973206e6f7420746865206f776e65726000830152602082019050919050565b60006139e7601c8361423c565b91507f5f617070726f76653a3a6f776e6572207a65726f2061646472657373000000006000830152602082019050919050565b6000613a2760348361423c565b91507f5f7472616e73666572546f6b656e733a2063616e6e6f74207472616e7366657260008301527f20746f20746865207a65726f20616464726573730000000000000000000000006020830152604082019050919050565b6000613a8d60138361423c565b91507f7472616e7366657246726f6d206661696c6564000000000000000000000000006000830152602082019050919050565b6000613acd60128361423c565b91507f61646d696e2066656520746f6f206869676800000000000000000000000000006000830152602082019050919050565b6000613b0d60078361423c565b91507f6f6e6c79454f41000000000000000000000000000000000000000000000000006000830152602082019050919050565b6000613b4d600e8361423c565b91507f6465706f736974206661696c65640000000000000000000000000000000000006000830152602082019050919050565b6000613b8d600f8361423c565b91507f7472616e73666572206661696c656400000000000000000000000000000000006000830152602082019050919050565b6000613bcd601e8361423c565b91507f5f617070726f76653a3a7370656e646572207a65726f206164647265737300006000830152602082019050919050565b6000613c0d60188361423c565b91507f7265696e766573742072657761726420746f6f206869676800000000000000006000830152602082019050919050565b613c49816142a0565b82525050565b613c58816142aa565b82525050565b6000613c6a82846135b4565b915081905092915050565b6000613c808261370e565b9150613c8c828561359d565b602082019150613c9c828461359d565b6020820191508190509392505050565b6000602082019050613cc16000830184613570565b92915050565b6000606082019050613cdc6000830186613561565b613ce96020830185613570565b613cf66040830184613c40565b949350505050565b6000604082019050613d136000830185613561565b613d206020830184613c40565b9392505050565b6000604082019050613d3c6000830185613570565b613d496020830184613660565b9392505050565b6000604082019050613d656000830185613570565b613d726020830184613c40565b9392505050565b6000602082019050613d8e600083018461357f565b92915050565b6000602082019050613da9600083018461358e565b92915050565b600060c082019050613dc4600083018961358e565b613dd16020830188613570565b613dde6040830187613570565b613deb6060830186613c40565b613df86080830185613c40565b613e0560a0830184613c40565b979650505050505050565b600060a082019050613e25600083018861358e565b613e32602083018761358e565b613e3f604083018661358e565b613e4c6060830185613c40565b613e596080830184613570565b9695505050505050565b6000608082019050613e78600083018761358e565b613e856020830186613c4f565b613e92604083018561358e565b613e9f606083018461358e565b95945050505050565b6000602082019050613ebd6000830184613642565b92915050565b6000602082019050613ed86000830184613651565b92915050565b60006020820190508181036000830152613ef8818461366f565b905092915050565b60006020820190508181036000830152613f19816136a8565b9050919050565b60006020820190508181036000830152613f398161374e565b9050919050565b60006020820190508181036000830152613f598161378e565b9050919050565b60006020820190508181036000830152613f79816137f4565b9050919050565b60006020820190508181036000830152613f9981613834565b9050919050565b60006020820190508181036000830152613fb981613874565b9050919050565b60006020820190508181036000830152613fd9816138b4565b9050919050565b60006020820190508181036000830152613ff9816138f4565b9050919050565b6000602082019050818103600083015261401981613934565b9050919050565b600060208201905081810360008301526140398161399a565b9050919050565b60006020820190508181036000830152614059816139da565b9050919050565b6000602082019050818103600083015261407981613a1a565b9050919050565b6000602082019050818103600083015261409981613a80565b9050919050565b600060208201905081810360008301526140b981613ac0565b9050919050565b600060208201905081810360008301526140d981613b00565b9050919050565b600060208201905081810360008301526140f981613b40565b9050919050565b6000602082019050818103600083015261411981613b80565b9050919050565b6000602082019050818103600083015261413981613bc0565b9050919050565b6000602082019050818103600083015261415981613c00565b9050919050565b60006020820190506141756000830184613c40565b92915050565b60006040820190506141906000830185613c40565b61419d6020830184613570565b9392505050565b60006040820190506141b96000830185613c40565b6141c66020830184613660565b9392505050565b60006040820190506141e26000830185613c40565b6141ef6020830184613c40565b9392505050565b600060208201905061420b6000830184613c4f565b92915050565b60008190508160005260206000209050919050565b600081519050919050565b600081905092915050565b600082825260208201905092915050565b600081905092915050565b600061426382614280565b9050919050565b60008115159050919050565b6000819050919050565b600073ffffffffffffffffffffffffffffffffffffffff82169050919050565b6000819050919050565b600060ff82169050919050565b60006142c282614323565b9050919050565b60006142d4826142db565b9050919050565b60006142e682614280565b9050919050565b60006142f8826142ff565b9050919050565b600061430a82614280565b9050919050565b600061431c826142a0565b9050919050565b600061432e82614335565b9050919050565b600061434082614280565b9050919050565b60005b8381101561436557808201518184015260208101905061434a565b83811115614374576000848401525b50505050565b6000819050919050565b6000601f19601f8301169050919050565b61439e81614258565b81146143a957600080fd5b50565b6143b58161426a565b81146143c057600080fd5b50565b6143cc81614276565b81146143d757600080fd5b50565b6143e3816142a0565b81146143ee57600080fd5b50565b6143fa816142aa565b811461440557600080fd5b5056fe5f6275726e3a206275726e20616d6f756e74206578636565647320746f74616c20737570706c797472616e7366657246726f6d3a207472616e7366657220616d6f756e74206578636565647320616c6c6f77616e63655f6275726e3a206275726e20616d6f756e7420657863656564732066726f6d2062616c616e63655f7472616e73666572546f6b656e733a207472616e7366657220657863656564732066726f6d2062616c616e6365a26469706673582212206d6923fac4788f35d72316882291a86c6586f43583b24fe9afa56f81739911db64736f6c63430007030033",
  "devdoc": {
    "kind": "dev",
    "methods": {
      "allowance(address,address)": {
        "params": {
          "account": "The address of the account holding the funds",
          "spender": "The address of the account spending the funds"
        },
        "returns": {
          "_0": "The number of tokens approved"
        }
      },
      "approve(address,uint256)": {
        "details": "This will overwrite the approval amount for `spender` and is subject to issues noted [here](https://eips.ethereum.org/EIPS/eip-20#approve) It is recommended to use increaseAllowance and decreaseAllowance instead",
        "params": {
          "amount": "The number of tokens that are approved (2^256-1 means infinite)",
          "spender": "The address of the account which may transfer tokens"
        },
        "returns": {
          "_0": "Whether or not the approval succeeded"
        }
      },
      "balanceOf(address)": {
        "params": {
          "account": "The address of the account to get the balance of"
        },
        "returns": {
          "_0": "The number of tokens held"
        }
      },
      "checkReward()": {
        "details": "Staking rewards accurue to contract on each deposit/withdrawal",
        "returns": {
          "_0": "Unclaimed rewards, plus contract balance"
        }
      },
      "deposit(uint256)": {
        "params": {
          "amount": "Amount of tokens to deposit"
        }
      },
      "emergencyWithdraw()": {
        "details": "Reward tokens are not automatically collectedNew deposits will be effectively disabled"
      },
      "estimateReinvestReward()": {
        "returns": {
          "_0": "Estimated rewards tokens earned for calling `reinvest()`"
        }
      },
      "getDepositTokensForShares(uint256)": {
        "params": {
          "amount": "receipt tokens"
        },
        "returns": {
          "_0": "deposit tokens"
        }
      },
      "getDomainSeparator()": {
        "returns": {
          "_0": "Separator"
        }
      },
      "getSharesForDepositTokens(uint256)": {
        "details": "If contract is empty, use 1:1 ratioCould return zero shares for very low amounts of deposit tokens",
        "params": {
          "amount": "deposit tokens"
        },
        "returns": {
          "_0": "receipt tokens"
        }
      },
      "owner()": {
        "details": "Returns the address of the current owner."
      },
      "permit(address,address,uint256,uint256,uint8,bytes32,bytes32)": {
        "params": {
          "deadline": "The time at which to expire the signature",
          "owner": "The address to approve from",
          "r": "Half of the ECDSA signature pair",
          "s": "Half of the ECDSA signature pair",
          "spender": "The address to be approved",
          "v": "The recovery byte of the signature",
          "value": "The number of tokens that are approved (2^256-1 means infinite)"
        }
      },
      "recoverAVAX(uint256)": {
        "params": {
          "amount": "amount"
        }
      },
      "recoverERC20(address,uint256)": {
        "params": {
          "tokenAddress": "token address",
          "tokenAmount": "amount to recover"
        }
      },
      "reinvest()": {
        "details": "This external function requires minimum tokens to be met"
      },
      "renounceOwnership()": {
        "details": "Leaves the contract without owner. It will not be possible to call `onlyOwner` functions anymore. Can only be called by the current owner. NOTE: Renouncing ownership will leave the contract without an owner, thereby removing any functionality that is only available to the owner."
      },
      "revokeAllowance(address,address)": {
        "details": "Restricted to avoid griefing attacks",
        "params": {
          "spender": "address",
          "token": "address"
        }
      },
      "setAllowances()": {
        "details": "Restricted to avoid griefing attacks"
      },
      "transfer(address,uint256)": {
        "params": {
          "amount": "The number of tokens to transfer",
          "dst": "The address of the destination account"
        },
        "returns": {
          "_0": "Whether or not the transfer succeeded"
        }
      },
      "transferFrom(address,address,uint256)": {
        "params": {
          "amount": "The number of tokens to transfer",
          "dst": "The address of the destination account",
          "src": "The address of the source account"
        },
        "returns": {
          "_0": "Whether or not the transfer succeeded"
        }
      },
      "transferOwnership(address)": {
        "details": "Transfers ownership of the contract to a new account (`newOwner`). Can only be called by the current owner."
      },
      "updateAdminFee(uint256)": {
        "details": "Total fees cannot be greater than BIPS_DIVISOR (100%)",
        "params": {
          "newValue": "specified in BIPS"
        }
      },
      "updateMinTokensToReinvest(uint256)": {
        "params": {
          "newValue": "min threshold in wei"
        }
      },
      "updateMinTokensToReinvestBeforeDeposit(uint256)": {
        "params": {
          "newValue": "min threshold in wei"
        }
      },
      "updateReinvestReward(uint256)": {
        "details": "Total fees cannot be greater than BIPS_DIVISOR (100%)",
        "params": {
          "newValue": "specified in BIPS"
        }
      },
      "withdraw(uint256)": {
        "params": {
          "amount": "Amount of receipt tokens to redeem"
        }
      }
    },
    "version": 1
  },
  "userdoc": {
    "kind": "user",
    "methods": {
      "DOMAIN_TYPEHASH()": {
        "notice": "keccak256(\"EIP712Domain(string name,string version,uint256 chainId,address verifyingContract)\")"
      },
      "PERMIT_TYPEHASH()": {
        "notice": "keccak256(\"Permit(address owner,address spender,uint256 value,uint256 nonce,uint256 deadline)\");"
      },
      "VERSION_HASH()": {
        "notice": "keccak256(\"1\");"
      },
      "allowance(address,address)": {
        "notice": "Get the number of tokens `spender` is approved to spend on behalf of `account`"
      },
      "approve(address,uint256)": {
        "notice": "Approve `spender` to transfer up to `amount` from `src`"
      },
      "balanceOf(address)": {
        "notice": "Get the number of tokens held by the `account`"
      },
      "checkReward()": {
        "notice": "Reward token balance that can be reinvested"
      },
      "deposit(uint256)": {
        "notice": "Deposit tokens to receive receipt tokens"
      },
      "emergencyWithdraw()": {
        "notice": "Allows exit from Staking Contract without additional logic"
      },
      "estimateReinvestReward()": {
        "notice": "Estimate reinvest reward for caller"
      },
      "getDepositTokensForShares(uint256)": {
        "notice": "Calculate deposit tokens for a given amount of receipt tokens"
      },
      "getDomainSeparator()": {
        "notice": "EIP-712 Domain separator"
      },
      "getSharesForDepositTokens(uint256)": {
        "notice": "Calculate receipt tokens for a given amount of deposit tokens"
      },
      "permit(address,address,uint256,uint256,uint8,bytes32,bytes32)": {
        "notice": "Triggers an approval from owner to spender"
      },
      "recoverAVAX(uint256)": {
        "notice": "Recover AVAX from contract"
      },
      "recoverERC20(address,uint256)": {
        "notice": "Recover ERC20 from contract"
      },
      "reinvest()": {
        "notice": "Reinvest rewards from staking contract to deposit tokens"
      },
      "revokeAllowance(address,address)": {
        "notice": "Revoke token allowance"
      },
      "setAllowances()": {
        "notice": "Approve tokens for use in Strategy"
      },
      "transfer(address,uint256)": {
        "notice": "Transfer `amount` tokens from `msg.sender` to `dst`"
      },
      "transferFrom(address,address,uint256)": {
        "notice": "Transfer `amount` tokens from `src` to `dst`"
      },
      "updateAdminFee(uint256)": {
        "notice": "Update admin fee"
      },
      "updateMinTokensToReinvest(uint256)": {
        "notice": "Update reinvest minimum threshold for external callers"
      },
      "updateMinTokensToReinvestBeforeDeposit(uint256)": {
        "notice": "Update reinvest minimum threshold before a deposit"
      },
      "updateReinvestReward(uint256)": {
        "notice": "Update reinvest reward"
      },
      "updateRequireReinvestBeforeDeposit()": {
        "notice": "Toggle requirement to reinvest before deposit"
      },
      "withdraw(uint256)": {
        "notice": "Withdraw LP tokens by redeeming receipt tokens"
      }
    },
    "version": 1
  },
  "storageLayout": {
    "storage": [
      {
        "astId": 810,
        "contract": "contracts/OliveStrategyForSA.sol:OliveStrategyForSA",
        "label": "name",
        "offset": 0,
        "slot": "0",
        "type": "t_string_storage"
      },
      {
        "astId": 813,
        "contract": "contracts/OliveStrategyForSA.sol:OliveStrategyForSA",
        "label": "symbol",
        "offset": 0,
        "slot": "1",
        "type": "t_string_storage"
      },
      {
        "astId": 818,
        "contract": "contracts/OliveStrategyForSA.sol:OliveStrategyForSA",
        "label": "totalSupply",
        "offset": 0,
        "slot": "2",
        "type": "t_uint256"
      },
      {
        "astId": 824,
        "contract": "contracts/OliveStrategyForSA.sol:OliveStrategyForSA",
        "label": "allowances",
        "offset": 0,
        "slot": "3",
        "type": "t_mapping(t_address,t_mapping(t_address,t_uint256))"
      },
      {
        "astId": 828,
        "contract": "contracts/OliveStrategyForSA.sol:OliveStrategyForSA",
        "label": "balances",
        "offset": 0,
        "slot": "4",
        "type": "t_mapping(t_address,t_uint256)"
      },
      {
        "astId": 844,
        "contract": "contracts/OliveStrategyForSA.sol:OliveStrategyForSA",
        "label": "nonces",
        "offset": 0,
        "slot": "5",
        "type": "t_mapping(t_address,t_uint256)"
      },
      {
        "astId": 1981,
        "contract": "contracts/OliveStrategyForSA.sol:OliveStrategyForSA",
        "label": "_owner",
        "offset": 0,
        "slot": "6",
        "type": "t_address"
      },
      {
        "astId": 18,
        "contract": "contracts/OliveStrategyForSA.sol:OliveStrategyForSA",
        "label": "totalDeposits",
        "offset": 0,
        "slot": "7",
        "type": "t_uint256"
      },
      {
        "astId": 20,
        "contract": "contracts/OliveStrategyForSA.sol:OliveStrategyForSA",
        "label": "depositToken",
        "offset": 0,
        "slot": "8",
        "type": "t_contract(IERC20)1420"
      },
      {
        "astId": 22,
        "contract": "contracts/OliveStrategyForSA.sol:OliveStrategyForSA",
        "label": "rewardToken",
        "offset": 0,
        "slot": "9",
        "type": "t_contract(IERC20)1420"
      },
      {
        "astId": 24,
        "contract": "contracts/OliveStrategyForSA.sol:OliveStrategyForSA",
        "label": "stakingContract",
        "offset": 0,
        "slot": "10",
        "type": "t_contract(IOliveChef)1554"
      },
      {
        "astId": 26,
        "contract": "contracts/OliveStrategyForSA.sol:OliveStrategyForSA",
        "label": "PID",
        "offset": 0,
        "slot": "11",
        "type": "t_uint256"
      },
      {
        "astId": 29,
        "contract": "contracts/OliveStrategyForSA.sol:OliveStrategyForSA",
        "label": "MIN_TOKENS_TO_REINVEST",
        "offset": 0,
        "slot": "12",
        "type": "t_uint256"
      },
      {
        "astId": 32,
        "contract": "contracts/OliveStrategyForSA.sol:OliveStrategyForSA",
        "label": "REINVEST_REWARD_BIPS",
        "offset": 0,
        "slot": "13",
        "type": "t_uint256"
      },
      {
        "astId": 35,
        "contract": "contracts/OliveStrategyForSA.sol:OliveStrategyForSA",
        "label": "ADMIN_FEE_BIPS",
        "offset": 0,
        "slot": "14",
        "type": "t_uint256"
      },
      {
        "astId": 47,
        "contract": "contracts/OliveStrategyForSA.sol:OliveStrategyForSA",
        "label": "REQUIRE_REINVEST_BEFORE_DEPOSIT",
        "offset": 0,
        "slot": "15",
        "type": "t_bool"
      },
      {
        "astId": 50,
        "contract": "contracts/OliveStrategyForSA.sol:OliveStrategyForSA",
        "label": "MIN_TOKENS_TO_REINVEST_BEFORE_DEPOSIT",
        "offset": 0,
        "slot": "16",
        "type": "t_uint256"
      }
    ],
    "types": {
      "t_address": {
        "encoding": "inplace",
        "label": "address",
        "numberOfBytes": "20"
      },
      "t_bool": {
        "encoding": "inplace",
        "label": "bool",
        "numberOfBytes": "1"
      },
      "t_contract(IERC20)1420": {
        "encoding": "inplace",
        "label": "contract IERC20",
        "numberOfBytes": "20"
      },
      "t_contract(IOliveChef)1554": {
        "encoding": "inplace",
        "label": "contract IOliveChef",
        "numberOfBytes": "20"
      },
      "t_mapping(t_address,t_mapping(t_address,t_uint256))": {
        "encoding": "mapping",
        "key": "t_address",
        "label": "mapping(address => mapping(address => uint256))",
        "numberOfBytes": "32",
        "value": "t_mapping(t_address,t_uint256)"
      },
      "t_mapping(t_address,t_uint256)": {
        "encoding": "mapping",
        "key": "t_address",
        "label": "mapping(address => uint256)",
        "numberOfBytes": "32",
        "value": "t_uint256"
      },
      "t_string_storage": {
        "encoding": "bytes",
        "label": "string",
        "numberOfBytes": "32"
      },
      "t_uint256": {
        "encoding": "inplace",
        "label": "uint256",
        "numberOfBytes": "32"
      }
    }
  }
}