{
  "address": "0xD3F113CFC44A5E28a6683A2D0424d3ea6CCc2aC0",
  "abi": [
    {
      "inputs": [
        {
          "internalType": "string",
          "name": "_name",
          "type": "string"
        },
        {
          "internalType": "address",
          "name": "_depositToken",
          "type": "address"
        },
        {
          "internalType": "address",
          "name": "_rewardToken",
          "type": "address"
        },
        {
          "internalType": "address",
          "name": "_stakingContract",
          "type": "address"
        },
        {
          "internalType": "address",
          "name": "_swapPairToken0",
          "type": "address"
        },
        {
          "internalType": "address",
          "name": "_swapPairToken1",
          "type": "address"
        },
        {
          "internalType": "address",
          "name": "_timelock",
          "type": "address"
        },
        {
          "internalType": "uint256",
          "name": "_pid",
          "type": "uint256"
        },
        {
          "internalType": "uint256",
          "name": "_minTokensToReinvest",
          "type": "uint256"
        },
        {
          "internalType": "uint256",
          "name": "_adminFeeBips",
          "type": "uint256"
        },
        {
          "internalType": "uint256",
          "name": "_devFeeBips",
          "type": "uint256"
        },
        {
          "internalType": "uint256",
          "name": "_reinvestRewardBips",
          "type": "uint256"
        }
      ],
      "stateMutability": "nonpayable",
      "type": "constructor"
    },
    {
      "anonymous": false,
      "inputs": [
        {
          "indexed": true,
          "internalType": "address",
          "name": "account",
          "type": "address"
        }
      ],
      "name": "AllowDepositor",
      "type": "event"
    },
    {
      "anonymous": false,
      "inputs": [
        {
          "indexed": true,
          "internalType": "address",
          "name": "owner",
          "type": "address"
        },
        {
          "indexed": true,
          "internalType": "address",
          "name": "spender",
          "type": "address"
        },
        {
          "indexed": false,
          "internalType": "uint256",
          "name": "value",
          "type": "uint256"
        }
      ],
      "name": "Approval",
      "type": "event"
    },
    {
      "anonymous": false,
      "inputs": [
        {
          "indexed": true,
          "internalType": "address",
          "name": "account",
          "type": "address"
        },
        {
          "indexed": false,
          "internalType": "uint256",
          "name": "amount",
          "type": "uint256"
        }
      ],
      "name": "Deposit",
      "type": "event"
    },
    {
      "anonymous": false,
      "inputs": [
        {
          "indexed": false,
          "internalType": "bool",
          "name": "newValue",
          "type": "bool"
        }
      ],
      "name": "DepositsEnabled",
      "type": "event"
    },
    {
      "anonymous": false,
      "inputs": [
        {
          "indexed": true,
          "internalType": "address",
          "name": "previousOwner",
          "type": "address"
        },
        {
          "indexed": true,
          "internalType": "address",
          "name": "newOwner",
          "type": "address"
        }
      ],
      "name": "OwnershipTransferred",
      "type": "event"
    },
    {
      "anonymous": false,
      "inputs": [
        {
          "indexed": false,
          "internalType": "address",
          "name": "token",
          "type": "address"
        },
        {
          "indexed": false,
          "internalType": "uint256",
          "name": "amount",
          "type": "uint256"
        }
      ],
      "name": "Recovered",
      "type": "event"
    },
    {
      "anonymous": false,
      "inputs": [
        {
          "indexed": false,
          "internalType": "uint256",
          "name": "newTotalDeposits",
          "type": "uint256"
        },
        {
          "indexed": false,
          "internalType": "uint256",
          "name": "newTotalSupply",
          "type": "uint256"
        }
      ],
      "name": "Reinvest",
      "type": "event"
    },
    {
      "anonymous": false,
      "inputs": [
        {
          "indexed": true,
          "internalType": "address",
          "name": "account",
          "type": "address"
        }
      ],
      "name": "RemoveDepositor",
      "type": "event"
    },
    {
      "anonymous": false,
      "inputs": [
        {
          "indexed": true,
          "internalType": "address",
          "name": "from",
          "type": "address"
        },
        {
          "indexed": true,
          "internalType": "address",
          "name": "to",
          "type": "address"
        },
        {
          "indexed": false,
          "internalType": "uint256",
          "name": "value",
          "type": "uint256"
        }
      ],
      "name": "Transfer",
      "type": "event"
    },
    {
      "anonymous": false,
      "inputs": [
        {
          "indexed": false,
          "internalType": "uint256",
          "name": "oldValue",
          "type": "uint256"
        },
        {
          "indexed": false,
          "internalType": "uint256",
          "name": "newValue",
          "type": "uint256"
        }
      ],
      "name": "UpdateAdminFee",
      "type": "event"
    },
    {
      "anonymous": false,
      "inputs": [
        {
          "indexed": false,
          "internalType": "address",
          "name": "oldValue",
          "type": "address"
        },
        {
          "indexed": false,
          "internalType": "address",
          "name": "newValue",
          "type": "address"
        }
      ],
      "name": "UpdateDevAddr",
      "type": "event"
    },
    {
      "anonymous": false,
      "inputs": [
        {
          "indexed": false,
          "internalType": "uint256",
          "name": "oldValue",
          "type": "uint256"
        },
        {
          "indexed": false,
          "internalType": "uint256",
          "name": "newValue",
          "type": "uint256"
        }
      ],
      "name": "UpdateDevFee",
      "type": "event"
    },
    {
      "anonymous": false,
      "inputs": [
        {
          "indexed": false,
          "internalType": "uint256",
          "name": "oldValue",
          "type": "uint256"
        },
        {
          "indexed": false,
          "internalType": "uint256",
          "name": "newValue",
          "type": "uint256"
        }
      ],
      "name": "UpdateMaxTokensToDepositWithoutReinvest",
      "type": "event"
    },
    {
      "anonymous": false,
      "inputs": [
        {
          "indexed": false,
          "internalType": "uint256",
          "name": "oldValue",
          "type": "uint256"
        },
        {
          "indexed": false,
          "internalType": "uint256",
          "name": "newValue",
          "type": "uint256"
        }
      ],
      "name": "UpdateMinTokensToReinvest",
      "type": "event"
    },
    {
      "anonymous": false,
      "inputs": [
        {
          "indexed": false,
          "internalType": "uint256",
          "name": "oldValue",
          "type": "uint256"
        },
        {
          "indexed": false,
          "internalType": "uint256",
          "name": "newValue",
          "type": "uint256"
        }
      ],
      "name": "UpdateReinvestReward",
      "type": "event"
    },
    {
      "anonymous": false,
      "inputs": [
        {
          "indexed": true,
          "internalType": "address",
          "name": "account",
          "type": "address"
        },
        {
          "indexed": false,
          "internalType": "uint256",
          "name": "amount",
          "type": "uint256"
        }
      ],
      "name": "Withdraw",
      "type": "event"
    },
    {
      "inputs": [],
      "name": "ADMIN_FEE_BIPS",
      "outputs": [
        {
          "internalType": "uint256",
          "name": "",
          "type": "uint256"
        }
      ],
      "stateMutability": "view",
      "type": "function"
    },
    {
      "inputs": [],
      "name": "DEPOSITS_ENABLED",
      "outputs": [
        {
          "internalType": "bool",
          "name": "",
          "type": "bool"
        }
      ],
      "stateMutability": "view",
      "type": "function"
    },
    {
      "inputs": [],
      "name": "DEV_FEE_BIPS",
      "outputs": [
        {
          "internalType": "uint256",
          "name": "",
          "type": "uint256"
        }
      ],
      "stateMutability": "view",
      "type": "function"
    },
    {
      "inputs": [],
      "name": "DOMAIN_TYPEHASH",
      "outputs": [
        {
          "internalType": "bytes32",
          "name": "",
          "type": "bytes32"
        }
      ],
      "stateMutability": "view",
      "type": "function"
    },
    {
      "inputs": [],
      "name": "MAX_TOKENS_TO_DEPOSIT_WITHOUT_REINVEST",
      "outputs": [
        {
          "internalType": "uint256",
          "name": "",
          "type": "uint256"
        }
      ],
      "stateMutability": "view",
      "type": "function"
    },
    {
      "inputs": [],
      "name": "MIN_TOKENS_TO_REINVEST",
      "outputs": [
        {
          "internalType": "uint256",
          "name": "",
          "type": "uint256"
        }
      ],
      "stateMutability": "view",
      "type": "function"
    },
    {
      "inputs": [],
      "name": "PERMIT_TYPEHASH",
      "outputs": [
        {
          "internalType": "bytes32",
          "name": "",
          "type": "bytes32"
        }
      ],
      "stateMutability": "view",
      "type": "function"
    },
    {
      "inputs": [],
      "name": "PID",
      "outputs": [
        {
          "internalType": "uint256",
          "name": "",
          "type": "uint256"
        }
      ],
      "stateMutability": "view",
      "type": "function"
    },
    {
      "inputs": [],
      "name": "REINVEST_REWARD_BIPS",
      "outputs": [
        {
          "internalType": "uint256",
          "name": "",
          "type": "uint256"
        }
      ],
      "stateMutability": "view",
      "type": "function"
    },
    {
      "inputs": [],
      "name": "VERSION_HASH",
      "outputs": [
        {
          "internalType": "bytes32",
          "name": "",
          "type": "bytes32"
        }
      ],
      "stateMutability": "view",
      "type": "function"
    },
    {
      "inputs": [
        {
          "internalType": "address",
          "name": "depositor",
          "type": "address"
        }
      ],
      "name": "allowDepositor",
      "outputs": [],
      "stateMutability": "nonpayable",
      "type": "function"
    },
    {
      "inputs": [
        {
          "internalType": "address",
          "name": "account",
          "type": "address"
        },
        {
          "internalType": "address",
          "name": "spender",
          "type": "address"
        }
      ],
      "name": "allowance",
      "outputs": [
        {
          "internalType": "uint256",
          "name": "",
          "type": "uint256"
        }
      ],
      "stateMutability": "view",
      "type": "function"
    },
    {
      "inputs": [
        {
          "internalType": "address",
          "name": "",
          "type": "address"
        }
      ],
      "name": "allowedDepositors",
      "outputs": [
        {
          "internalType": "bool",
          "name": "",
          "type": "bool"
        }
      ],
      "stateMutability": "view",
      "type": "function"
    },
    {
      "inputs": [
        {
          "internalType": "address",
          "name": "spender",
          "type": "address"
        },
        {
          "internalType": "uint256",
          "name": "amount",
          "type": "uint256"
        }
      ],
      "name": "approve",
      "outputs": [
        {
          "internalType": "bool",
          "name": "",
          "type": "bool"
        }
      ],
      "stateMutability": "nonpayable",
      "type": "function"
    },
    {
      "inputs": [
        {
          "internalType": "address",
          "name": "account",
          "type": "address"
        }
      ],
      "name": "balanceOf",
      "outputs": [
        {
          "internalType": "uint256",
          "name": "",
          "type": "uint256"
        }
      ],
      "stateMutability": "view",
      "type": "function"
    },
    {
      "inputs": [],
      "name": "checkReward",
      "outputs": [
        {
          "internalType": "uint256",
          "name": "",
          "type": "uint256"
        }
      ],
      "stateMutability": "view",
      "type": "function"
    },
    {
      "inputs": [],
      "name": "decimals",
      "outputs": [
        {
          "internalType": "uint8",
          "name": "",
          "type": "uint8"
        }
      ],
      "stateMutability": "view",
      "type": "function"
    },
    {
      "inputs": [
        {
          "internalType": "uint256",
          "name": "amount",
          "type": "uint256"
        }
      ],
      "name": "deposit",
      "outputs": [],
      "stateMutability": "nonpayable",
      "type": "function"
    },
    {
      "inputs": [
        {
          "internalType": "address",
          "name": "account",
          "type": "address"
        },
        {
          "internalType": "uint256",
          "name": "amount",
          "type": "uint256"
        }
      ],
      "name": "depositFor",
      "outputs": [],
      "stateMutability": "nonpayable",
      "type": "function"
    },
    {
      "inputs": [],
      "name": "depositToken",
      "outputs": [
        {
          "internalType": "contract IERC20",
          "name": "",
          "type": "address"
        }
      ],
      "stateMutability": "view",
      "type": "function"
    },
    {
      "inputs": [
        {
          "internalType": "uint256",
          "name": "amount",
          "type": "uint256"
        },
        {
          "internalType": "uint256",
          "name": "deadline",
          "type": "uint256"
        },
        {
          "internalType": "uint8",
          "name": "v",
          "type": "uint8"
        },
        {
          "internalType": "bytes32",
          "name": "r",
          "type": "bytes32"
        },
        {
          "internalType": "bytes32",
          "name": "s",
          "type": "bytes32"
        }
      ],
      "name": "depositWithPermit",
      "outputs": [],
      "stateMutability": "nonpayable",
      "type": "function"
    },
    {
      "inputs": [],
      "name": "devAddr",
      "outputs": [
        {
          "internalType": "address",
          "name": "",
          "type": "address"
        }
      ],
      "stateMutability": "view",
      "type": "function"
    },
    {
      "inputs": [],
      "name": "estimateDeployedBalance",
      "outputs": [
        {
          "internalType": "uint256",
          "name": "",
          "type": "uint256"
        }
      ],
      "stateMutability": "view",
      "type": "function"
    },
    {
      "inputs": [],
      "name": "estimateReinvestReward",
      "outputs": [
        {
          "internalType": "uint256",
          "name": "",
          "type": "uint256"
        }
      ],
      "stateMutability": "view",
      "type": "function"
    },
    {
      "inputs": [
        {
          "internalType": "uint256",
          "name": "amount",
          "type": "uint256"
        }
      ],
      "name": "getDepositTokensForShares",
      "outputs": [
        {
          "internalType": "uint256",
          "name": "",
          "type": "uint256"
        }
      ],
      "stateMutability": "view",
      "type": "function"
    },
    {
      "inputs": [],
      "name": "getDomainSeparator",
      "outputs": [
        {
          "internalType": "bytes32",
          "name": "",
          "type": "bytes32"
        }
      ],
      "stateMutability": "view",
      "type": "function"
    },
    {
      "inputs": [
        {
          "internalType": "uint256",
          "name": "amount",
          "type": "uint256"
        }
      ],
      "name": "getSharesForDepositTokens",
      "outputs": [
        {
          "internalType": "uint256",
          "name": "",
          "type": "uint256"
        }
      ],
      "stateMutability": "view",
      "type": "function"
    },
    {
      "inputs": [],
      "name": "name",
      "outputs": [
        {
          "internalType": "string",
          "name": "",
          "type": "string"
        }
      ],
      "stateMutability": "view",
      "type": "function"
    },
    {
      "inputs": [
        {
          "internalType": "address",
          "name": "",
          "type": "address"
        }
      ],
      "name": "nonces",
      "outputs": [
        {
          "internalType": "uint256",
          "name": "",
          "type": "uint256"
        }
      ],
      "stateMutability": "view",
      "type": "function"
    },
    {
      "inputs": [],
      "name": "numberOfAllowedDepositors",
      "outputs": [
        {
          "internalType": "uint256",
          "name": "",
          "type": "uint256"
        }
      ],
      "stateMutability": "view",
      "type": "function"
    },
    {
      "inputs": [],
      "name": "owner",
      "outputs": [
        {
          "internalType": "address",
          "name": "",
          "type": "address"
        }
      ],
      "stateMutability": "view",
      "type": "function"
    },
    {
      "inputs": [
        {
          "internalType": "address",
          "name": "owner",
          "type": "address"
        },
        {
          "internalType": "address",
          "name": "spender",
          "type": "address"
        },
        {
          "internalType": "uint256",
          "name": "value",
          "type": "uint256"
        },
        {
          "internalType": "uint256",
          "name": "deadline",
          "type": "uint256"
        },
        {
          "internalType": "uint8",
          "name": "v",
          "type": "uint8"
        },
        {
          "internalType": "bytes32",
          "name": "r",
          "type": "bytes32"
        },
        {
          "internalType": "bytes32",
          "name": "s",
          "type": "bytes32"
        }
      ],
      "name": "permit",
      "outputs": [],
      "stateMutability": "nonpayable",
      "type": "function"
    },
    {
      "inputs": [
        {
          "internalType": "uint256",
          "name": "amount",
          "type": "uint256"
        }
      ],
      "name": "recoverAVAX",
      "outputs": [],
      "stateMutability": "nonpayable",
      "type": "function"
    },
    {
      "inputs": [
        {
          "internalType": "address",
          "name": "tokenAddress",
          "type": "address"
        },
        {
          "internalType": "uint256",
          "name": "tokenAmount",
          "type": "uint256"
        }
      ],
      "name": "recoverERC20",
      "outputs": [],
      "stateMutability": "nonpayable",
      "type": "function"
    },
    {
      "inputs": [],
      "name": "reinvest",
      "outputs": [],
      "stateMutability": "nonpayable",
      "type": "function"
    },
    {
      "inputs": [
        {
          "internalType": "address",
          "name": "depositor",
          "type": "address"
        }
      ],
      "name": "removeDepositor",
      "outputs": [],
      "stateMutability": "nonpayable",
      "type": "function"
    },
    {
      "inputs": [],
      "name": "renounceOwnership",
      "outputs": [],
      "stateMutability": "nonpayable",
      "type": "function"
    },
    {
      "inputs": [
        {
          "internalType": "uint256",
          "name": "minReturnAmountAccepted",
          "type": "uint256"
        },
        {
          "internalType": "bool",
          "name": "disableDeposits",
          "type": "bool"
        }
      ],
      "name": "rescueDeployedFunds",
      "outputs": [],
      "stateMutability": "nonpayable",
      "type": "function"
    },
    {
      "inputs": [
        {
          "internalType": "address",
          "name": "token",
          "type": "address"
        },
        {
          "internalType": "address",
          "name": "spender",
          "type": "address"
        }
      ],
      "name": "revokeAllowance",
      "outputs": [],
      "stateMutability": "nonpayable",
      "type": "function"
    },
    {
      "inputs": [],
      "name": "rewardToken",
      "outputs": [
        {
          "internalType": "contract IERC20",
          "name": "",
          "type": "address"
        }
      ],
      "stateMutability": "view",
      "type": "function"
    },
    {
      "inputs": [],
      "name": "setAllowances",
      "outputs": [],
      "stateMutability": "nonpayable",
      "type": "function"
    },
    {
      "inputs": [],
      "name": "stakingContract",
      "outputs": [
        {
          "internalType": "contract IZabuChef",
          "name": "",
          "type": "address"
        }
      ],
      "stateMutability": "view",
      "type": "function"
    },
    {
      "inputs": [],
      "name": "symbol",
      "outputs": [
        {
          "internalType": "string",
          "name": "",
          "type": "string"
        }
      ],
      "stateMutability": "view",
      "type": "function"
    },
    {
      "inputs": [],
      "name": "totalDeposits",
      "outputs": [
        {
          "internalType": "uint256",
          "name": "",
          "type": "uint256"
        }
      ],
      "stateMutability": "view",
      "type": "function"
    },
    {
      "inputs": [],
      "name": "totalSupply",
      "outputs": [
        {
          "internalType": "uint256",
          "name": "",
          "type": "uint256"
        }
      ],
      "stateMutability": "view",
      "type": "function"
    },
    {
      "inputs": [
        {
          "internalType": "address",
          "name": "dst",
          "type": "address"
        },
        {
          "internalType": "uint256",
          "name": "amount",
          "type": "uint256"
        }
      ],
      "name": "transfer",
      "outputs": [
        {
          "internalType": "bool",
          "name": "",
          "type": "bool"
        }
      ],
      "stateMutability": "nonpayable",
      "type": "function"
    },
    {
      "inputs": [
        {
          "internalType": "address",
          "name": "src",
          "type": "address"
        },
        {
          "internalType": "address",
          "name": "dst",
          "type": "address"
        },
        {
          "internalType": "uint256",
          "name": "amount",
          "type": "uint256"
        }
      ],
      "name": "transferFrom",
      "outputs": [
        {
          "internalType": "bool",
          "name": "",
          "type": "bool"
        }
      ],
      "stateMutability": "nonpayable",
      "type": "function"
    },
    {
      "inputs": [
        {
          "internalType": "address",
          "name": "newOwner",
          "type": "address"
        }
      ],
      "name": "transferOwnership",
      "outputs": [],
      "stateMutability": "nonpayable",
      "type": "function"
    },
    {
      "inputs": [
        {
          "internalType": "uint256",
          "name": "newValue",
          "type": "uint256"
        }
      ],
      "name": "updateAdminFee",
      "outputs": [],
      "stateMutability": "nonpayable",
      "type": "function"
    },
    {
      "inputs": [
        {
          "internalType": "bool",
          "name": "newValue",
          "type": "bool"
        }
      ],
      "name": "updateDepositsEnabled",
      "outputs": [],
      "stateMutability": "nonpayable",
      "type": "function"
    },
    {
      "inputs": [
        {
          "internalType": "address",
          "name": "newValue",
          "type": "address"
        }
      ],
      "name": "updateDevAddr",
      "outputs": [],
      "stateMutability": "nonpayable",
      "type": "function"
    },
    {
      "inputs": [
        {
          "internalType": "uint256",
          "name": "newValue",
          "type": "uint256"
        }
      ],
      "name": "updateDevFee",
      "outputs": [],
      "stateMutability": "nonpayable",
      "type": "function"
    },
    {
      "inputs": [
        {
          "internalType": "uint256",
          "name": "newValue",
          "type": "uint256"
        }
      ],
      "name": "updateMaxTokensToDepositWithoutReinvest",
      "outputs": [],
      "stateMutability": "nonpayable",
      "type": "function"
    },
    {
      "inputs": [
        {
          "internalType": "uint256",
          "name": "newValue",
          "type": "uint256"
        }
      ],
      "name": "updateMinTokensToReinvest",
      "outputs": [],
      "stateMutability": "nonpayable",
      "type": "function"
    },
    {
      "inputs": [
        {
          "internalType": "uint256",
          "name": "newValue",
          "type": "uint256"
        }
      ],
      "name": "updateReinvestReward",
      "outputs": [],
      "stateMutability": "nonpayable",
      "type": "function"
    },
    {
      "inputs": [
        {
          "internalType": "uint256",
          "name": "amount",
          "type": "uint256"
        }
      ],
      "name": "withdraw",
      "outputs": [],
      "stateMutability": "nonpayable",
      "type": "function"
    }
  ],
  "transactionHash": "0xd761da342b7bc0a06c644b39df9ee2326d83a89ed89628cf795136c598633609",
  "args": [
    "Yield Yak: PGL ZABU-USDT.e",
    "0x60C4d65f18f99DC8c0abD1B5a9b79a1BDe0baAa1",
    "0xDd453dBD253fA4E5e745047d93667Ce9DA93bbCF",
    "0xf61b4f980A1F34B55BBF3b2Ef28213Efcc6248C4",
    "0x0000000000000000000000000000000000000000",
    "0x0000000000000000000000000000000000000000",
    "0x8d36C5c6947ADCcd25Ef49Ea1aAC2ceACFff0bD7",
    "21",
    "1000000000000000",
    600,
    0,
    200
  ],
  "solcInputHash": "217072aac169327135902ba195396f0f",
  "bytecode": "0x60c060405260096080819052685969656c642059616b60b81b60a09081526200002c91600091906200127b565b506040805180820190915260038082526216549560ea1b602090920191825262000059916001916200127b565b503480156200006757600080fd5b5060405162004f0238038062004f0283398181016040526101808110156200008e57600080fd5b8101908080516040519392919084640100000000821115620000af57600080fd5b908301906020820185811115620000c557600080fd5b8251640100000000811182820188101715620000e057600080fd5b82525081516020918201929091019080838360005b838110156200010f578181015183820152602001620000f5565b50505050905090810190601f1680156200013d5780820380516001836020036101000a031916815260200191505b5060409081526020820151908201516060830151608084015160a085015160c086015160e08701516101008801516101208901516101408a0151610160909a0151989b5096995094979396929591949093909260006200019c620002e3565b600680546001600160a01b0319166001600160a01b0383169081179091556040519192509060009060008051602062004e49833981519152908290a3508b51620001ee9060009060208f01906200127b565b50600a80546001600160a01b03808e166001600160a01b031992831617909255600b80548d841690831617905560138054928c16928216929092179091556016869055600c8054909116331790556200024988888c620002e7565b6200025362000c05565b6200025e8462000cf8565b620002698362000da2565b620002748262000e92565b6200027f8162000f6e565b6200028b60016200104a565b620002968662001110565b604080516000808252602082015281517fc7606d21ac05cd309191543e409f0845c016120563783d70e4f41419dc0ef234929181900390910190a150505050505050505050505062001317565b3390565b600a60009054906101000a90046001600160a01b03166001600160a01b0316630dfe16816040518163ffffffff1660e01b815260040160206040518083038186803b1580156200033657600080fd5b505afa1580156200034b573d6000803e3d6000fd5b505050506040513d60208110156200036257600080fd5b50516001600160a01b03828116911614801590620004085750600a60009054906101000a90046001600160a01b03166001600160a01b031663d21220a76040518163ffffffff1660e01b815260040160206040518083038186803b158015620003ca57600080fd5b505afa158015620003df573d6000803e3d6000fd5b505050506040513d6020811015620003f657600080fd5b50516001600160a01b03828116911614155b1562000a93576001600160a01b038316620004555760405162461bcd60e51b815260040180806020018281038252602981526020018062004e006029913960400191505060405180910390fd5b6001600160a01b0382166200049c5760405162461bcd60e51b815260040180806020018281038252602981526020018062004ea16029913960400191505060405180910390fd5b601480546001600160a01b038086166001600160a01b031992831617928390556015805486831693169290921790915560408051630dfe168160e01b815290518483169390921691630dfe168191600480820192602092909190829003018186803b1580156200050b57600080fd5b505afa15801562000520573d6000803e3d6000fd5b505050506040513d60208110156200053757600080fd5b50516001600160a01b03161480620005ca57506014546040805163d21220a760e01b815290516001600160a01b0380851693169163d21220a7916004808301926020929190829003018186803b1580156200059157600080fd5b505afa158015620005a6573d6000803e3d6000fd5b505050506040513d6020811015620005bd57600080fd5b50516001600160a01b0316145b620006075760405162461bcd60e51b815260040180806020018281038252604581526020018062004dbb6045913960600191505060405180910390fd5b600a60009054906101000a90046001600160a01b03166001600160a01b0316630dfe16816040518163ffffffff1660e01b815260040160206040518083038186803b1580156200065657600080fd5b505afa1580156200066b573d6000803e3d6000fd5b505050506040513d60208110156200068257600080fd5b505160145460408051630dfe168160e01b815290516001600160a01b039384169390921691630dfe168191600480820192602092909190829003018186803b158015620006ce57600080fd5b505afa158015620006e3573d6000803e3d6000fd5b505050506040513d6020811015620006fa57600080fd5b50516001600160a01b031614806200080d5750600a60009054906101000a90046001600160a01b03166001600160a01b0316630dfe16816040518163ffffffff1660e01b815260040160206040518083038186803b1580156200075c57600080fd5b505afa15801562000771573d6000803e3d6000fd5b505050506040513d60208110156200078857600080fd5b50516014546040805163d21220a760e01b815290516001600160a01b03938416939092169163d21220a791600480820192602092909190829003018186803b158015620007d457600080fd5b505afa158015620007e9573d6000803e3d6000fd5b505050506040513d60208110156200080057600080fd5b50516001600160a01b0316145b6200084a5760405162461bcd60e51b815260040180806020018281038252603881526020018062004e696038913960400191505060405180910390fd5b600a60009054906101000a90046001600160a01b03166001600160a01b031663d21220a76040518163ffffffff1660e01b815260040160206040518083038186803b1580156200089957600080fd5b505afa158015620008ae573d6000803e3d6000fd5b505050506040513d6020811015620008c557600080fd5b505160155460408051630dfe168160e01b815290516001600160a01b039384169390921691630dfe168191600480820192602092909190829003018186803b1580156200091157600080fd5b505afa15801562000926573d6000803e3d6000fd5b505050506040513d60208110156200093d57600080fd5b50516001600160a01b0316148062000a505750600a60009054906101000a90046001600160a01b03166001600160a01b031663d21220a76040518163ffffffff1660e01b815260040160206040518083038186803b1580156200099f57600080fd5b505afa158015620009b4573d6000803e3d6000fd5b505050506040513d6020811015620009cb57600080fd5b50516015546040805163d21220a760e01b815290516001600160a01b03938416939092169163d21220a791600480820192602092909190829003018186803b15801562000a1757600080fd5b505afa15801562000a2c573d6000803e3d6000fd5b505050506040513d602081101562000a4357600080fd5b50516001600160a01b0316145b62000a8d5760405162461bcd60e51b815260040180806020018281038252603881526020018062004eca6038913960400191505060405180910390fd5b62000c00565b600a60009054906101000a90046001600160a01b03166001600160a01b0316630dfe16816040518163ffffffff1660e01b815260040160206040518083038186803b15801562000ae257600080fd5b505afa15801562000af7573d6000803e3d6000fd5b505050506040513d602081101562000b0e57600080fd5b50516001600160a01b038281169116141562000b4c57600a54601580546001600160a01b0319166001600160a01b0390921691909117905562000c00565b600a60009054906101000a90046001600160a01b03166001600160a01b031663d21220a76040518163ffffffff1660e01b815260040160206040518083038186803b15801562000b9b57600080fd5b505afa15801562000bb0573d6000803e3d6000fd5b505050506040513d602081101562000bc757600080fd5b50516001600160a01b038281169116141562000c0057600a54601480546001600160a01b0319166001600160a01b039092169190911790555b505050565b62000c0f620002e3565b6001600160a01b031662000c226200120a565b6001600160a01b03161462000c6d576040805162461bcd60e51b8152602060048201819052602482015260008051602062004e29833981519152604482015290519081900360640190fd5b600a546013546040805163095ea7b360e01b81526001600160a01b03928316600482015260001960248201529051919092169163095ea7b39160448083019260209291908290030181600087803b15801562000cc857600080fd5b505af115801562000cdd573d6000803e3d6000fd5b505050506040513d602081101562000cf457600080fd5b5050565b62000d02620002e3565b6001600160a01b031662000d156200120a565b6001600160a01b03161462000d60576040805162461bcd60e51b8152602060048201819052602482015260008051602062004e29833981519152604482015290519081900360640190fd5b600d54604080519182526020820183905280517f481f79ac3a523b6d6db3c5a720e190e986d1cc1b41adcdf50f9caef8499011009281900390910190a1600d55565b62000dac620002e3565b6001600160a01b031662000dbf6200120a565b6001600160a01b03161462000e0a576040805162461bcd60e51b8152602060048201819052602482015260008051602062004e29833981519152604482015290519081900360640190fd5b61271062000e4460105462000e30601254856200121960201b620023e11790919060201c565b6200121960201b620023e11790919060201c565b111562000e5057600080fd5b601154604080519182526020820183905280517f3cc372f330f95ac9540626dc8a25f5bf21ba607215a5d58304cb804d446f104a9281900390910190a1601155565b62000e9c620002e3565b6001600160a01b031662000eaf6200120a565b6001600160a01b03161462000efa576040805162461bcd60e51b8152602060048201819052602482015260008051602062004e29833981519152604482015290519081900360640190fd5b61271062000f2060105462000e30601154856200121960201b620023e11790919060201c565b111562000f2c57600080fd5b601254604080519182526020820183905280517f2a42303d002f0ba6cfe8259c91d4684443fb0b3de286ba74991175d6517261319281900390910190a1601255565b62000f78620002e3565b6001600160a01b031662000f8b6200120a565b6001600160a01b03161462000fd6576040805162461bcd60e51b8152602060048201819052602482015260008051602062004e29833981519152604482015290519081900360640190fd5b61271062000ffc60125462000e30601154856200121960201b620023e11790919060201c565b11156200100857600080fd5b601054604080519182526020820183905280517fe7f97d51d307dc44045597c9978bec0f842e6bb40d19b9444084cfa30d9ed4f29281900390910190a1601055565b62001054620002e3565b6001600160a01b0316620010676200120a565b6001600160a01b031614620010b2576040805162461bcd60e51b8152602060048201819052602482015260008051602062004e29833981519152604482015290519081900360640190fd5b600f5460ff1615158115151415620010c957600080fd5b600f805482151560ff19909116811790915560408051918252517f7b014ed3854e7f5cb0218d58b3c6ae7d53a68bb0af2f67bfb029ea42c38a7e859181900360200190a150565b6200111a620002e3565b6001600160a01b03166200112d6200120a565b6001600160a01b03161462001178576040805162461bcd60e51b8152602060048201819052602482015260008051602062004e29833981519152604482015290519081900360640190fd5b6001600160a01b038116620011bf5760405162461bcd60e51b815260040180806020018281038252602681526020018062004d956026913960400191505060405180910390fd5b6006546040516001600160a01b0380841692169060008051602062004e4983398151915290600090a3600680546001600160a01b0319166001600160a01b0392909216919091179055565b6006546001600160a01b031690565b60008282018381101562001274576040805162461bcd60e51b815260206004820152601b60248201527f536166654d6174683a206164646974696f6e206f766572666c6f770000000000604482015290519081900360640190fd5b9392505050565b828054600181600116156101000203166002900490600052602060002090601f016020900481019282601f10620012be57805160ff1916838001178555620012ee565b82800160010185558215620012ee579182015b82811115620012ee578251825591602001919060010190620012d1565b50620012fc92915062001300565b5090565b5b80821115620012fc576000815560010162001301565b613a6e80620013276000396000f3fe608060405234801561001057600080fd5b50600436106103785760003560e01c80638b73e606116101d3578063c89039c511610104578063e21ac825116100a2578063ee99205c1161007c578063ee99205c14610929578063f2fde38b14610931578063f7c618c114610957578063fdb5a03e1461095f57610378565b8063e21ac825146108e7578063eab89a5a14610904578063ed24911d1461092157610378565b8063da09c72c116100de578063da09c72c1461088c578063dbd9a4d414610894578063dd62ed3e1461089c578063dd8ce4d6146108ca57610378565b8063c89039c514610816578063cff1b6ef1461081e578063d505accf1461083b57610378565b8063a9059cbb11610171578063b6b55f251161014b578063b6b55f25146107e1578063b9e57b80146107fe578063bd079f5514610806578063c4b24a461461080e57610378565b8063a9059cbb14610788578063ac0d31ff146107b4578063b52a321f146107d957610378565b806395d89b41116101ad57806395d89b411461073e57806399729ec1146107465780639e4e731814610763578063a8ae2b7c1461076b57610378565b80638b73e606146106ce5780638da5cb5b146106f45780639291d5631461071857610378565b80634bebd1e7116102ad578063789139bc1161024b5780637ecebe00116102255780637ecebe0014610657578063818372301461067d5780638980f11f1461069a5780638aff733d146106c657610378565b8063789139bc146106195780637ae26773146106215780637d8820971461064f57610378565b80635ea682ea116102875780635ea682ea146105db5780635eaec0e4146105e357806370a08231146105eb578063715018a61461061157610378565b80634bebd1e7146105795780634e77ace51461059f5780634ebb7916146105be57610378565b80632e1a7d4d1161031a578063313ce567116102f4578063313ce567146104f55780633bdc6e7214610513578063483c2ef01461051b5780634a970be71461054157610378565b80632e1a7d4d146104a25780632f4f21e2146104c157806330adf81f146104ed57610378565b80630f23475d116103565780630f23475d1461045457806318160ddd1461045c57806320606b701461046457806323b872dd1461046c57610378565b806306fdde031461037d57806307677111146103fa578063095ea7b314610414575b600080fd5b610385610967565b6040805160208082528351818301528351919283929083019185019080838360005b838110156103bf5781810151838201526020016103a7565b50505050905090810190601f1680156103ec5780820380516001836020036101000a031916815260200191505b509250505060405180910390f35b6104026109f5565b60408051918252519081900360200190f35b6104406004803603604081101561042a57600080fd5b506001600160a01b0381351690602001356109fb565b604080519115158252519081900360200190f35b610402610a12565b610402610ab3565b610402610ab9565b6104406004803603606081101561048257600080fd5b506001600160a01b03813581169160208101359091169060400135610add565b6104bf600480360360208110156104b857600080fd5b5035610bbf565b005b6104bf600480360360408110156104d757600080fd5b506001600160a01b038135169060200135610c47565b610402610c51565b6104fd610c75565b6040805160ff9092168252519081900360200190f35b610402610c7a565b6104406004803603602081101561053157600080fd5b50356001600160a01b0316610c80565b6104bf600480360360a081101561055757600080fd5b5080359060208101359060ff6040820135169060608101359060800135610c95565b6104bf6004803603602081101561058f57600080fd5b50356001600160a01b0316610d4e565b6104bf600480360360208110156105b557600080fd5b50351515610e8a565b6104bf600480360360208110156105d457600080fd5b5035610f49565b610402611025565b61040261102b565b6104026004803603602081101561060157600080fd5b50356001600160a01b0316611031565b6104bf611050565b610402611109565b6104bf6004803603604081101561063757600080fd5b506001600160a01b038135811691602001351661110f565b6104026111fe565b6104026004803603602081101561066d57600080fd5b50356001600160a01b0316611204565b6104bf6004803603602081101561069357600080fd5b5035611216565b6104bf600480360360408110156106b057600080fd5b506001600160a01b0381351690602001356112ba565b61040261140e565b6104bf600480360360208110156106e457600080fd5b50356001600160a01b0316611414565b6106fc61157b565b604080516001600160a01b039092168252519081900360200190f35b6104bf6004803603602081101561072e57600080fd5b50356001600160a01b031661158a565b610385611660565b6104bf6004803603602081101561075c57600080fd5b50356116ba565b61040261178d565b6104bf6004803603602081101561078157600080fd5b50356117b1565b6104406004803603604081101561079e57600080fd5b506001600160a01b03813516906020013561187e565b6104bf600480360360408110156107ca57600080fd5b5080359060200135151561188b565b610440611b1c565b6104bf600480360360208110156107f757600080fd5b5035611b25565b610402611b32565b610402611b79565b610402611b7f565b6106fc611cae565b6104bf6004803603602081101561083457600080fd5b5035611cbd565b6104bf600480360360e081101561085157600080fd5b506001600160a01b03813581169160208101359091169060408101359060608101359060ff6080820135169060a08101359060c00135611d8a565b6106fc611e8a565b6104bf611e99565b610402600480360360408110156108b257600080fd5b506001600160a01b0381358116916020013516611f98565b610402600480360360208110156108e057600080fd5b5035611fc3565b6104bf600480360360208110156108fd57600080fd5b5035612002565b6104026004803603602081101561091a57600080fd5b50356120a6565b6104026120e6565b6106fc6121f3565b6104bf6004803603602081101561094757600080fd5b50356001600160a01b0316612202565b6106fc612312565b6104bf612321565b6000805460408051602060026001851615610100026000190190941693909304601f810184900484028201840190925281815292918301828280156109ed5780601f106109c2576101008083540402835291602001916109ed565b820191906000526020600020905b8154815290600101906020018083116109d057829003601f168201915b505050505081565b60115481565b6000610a08338484612442565b5060015b92915050565b601354601654604080517f93f1a40b0000000000000000000000000000000000000000000000000000000081526004810192909252306024830152805160009384936001600160a01b03909116926393f1a40b92604480840193829003018186803b158015610a8057600080fd5b505afa158015610a94573d6000803e3d6000fd5b505050506040513d6040811015610aaa57600080fd5b50519150505b90565b60025481565b7f8b73c3c69bb8fe3d512ecc4cf759cc79239f7b179b0ffacaa9a75d522b39400f81565b6001600160a01b038316600081815260036020908152604080832033808552925282205491929091908214801590610b1757506000198114155b15610ba8576000610b43856040518060600160405280602f81526020016139b5602f913984919061255a565b6001600160a01b0380891660008181526003602090815260408083209489168084529482529182902085905581518581529151949550929391927f8c5be1e5ebec7d5bd14f71427d1e84f3dd0314c0f7b2291e5b200ac8c7c3b92592918290030190a3505b610bb38686866125f1565b50600195945050505050565b6000610bca826120a6565b90508015610c4357610bdb816126fe565b600a54610bf2906001600160a01b031633836127c1565b610bfc3383612884565b600954610c099082612959565b60095560408051828152905133917f884edad9ce6fa2440d8a54cc123490eb96d2768479d49ff9c7366125a9424364919081900360200190a25b5050565b610c43828261299b565b7f6e71edae12b1b97f4d1f60370fef10105fa2faae0126114a169c64845d6126c981565b601281565b60075481565b60086020526000908152604090205460ff1681565b600a54604080517fd505accf000000000000000000000000000000000000000000000000000000008152336004820152306024820152604481018890526064810187905260ff8616608482015260a4810185905260c4810184905290516001600160a01b039092169163d505accf9160e48082019260009290919082900301818387803b158015610d2557600080fd5b505af1158015610d39573d6000803e3d6000fd5b50505050610d47338661299b565b5050505050565b610d56612b36565b6001600160a01b0316610d6761157b565b6001600160a01b031614610db0576040805162461bcd60e51b815260206004820181905260248201526000805160206138e9833981519152604482015290519081900360640190fd5b6001600160a01b03811660009081526008602052604090205460ff1615610e1e576040805162461bcd60e51b815260206004820152601c60248201527f5065726d697373696f6e65643a3a616c6c6f774465706f7369746f7200000000604482015290519081900360640190fd5b6001600160a01b0381166000908152600860205260409020805460ff19166001908117909155600754610e50916123e1565b6007556040516001600160a01b038216907fc0a1035c16faf8d1304056d92c00edf028f87e62b8235a938f00af9e3c0312c590600090a250565b610e92612b36565b6001600160a01b0316610ea361157b565b6001600160a01b031614610eec576040805162461bcd60e51b815260206004820181905260248201526000805160206138e9833981519152604482015290519081900360640190fd5b600f5460ff1615158115151415610f0257600080fd5b600f805482151560ff19909116811790915560408051918252517f7b014ed3854e7f5cb0218d58b3c6ae7d53a68bb0af2f67bfb029ea42c38a7e859181900360200190a150565b610f51612b36565b6001600160a01b0316610f6261157b565b6001600160a01b031614610fab576040805162461bcd60e51b815260206004820181905260248201526000805160206138e9833981519152604482015290519081900360640190fd5b60008111610fb857600080fd5b604051339082156108fc029083906000818181858888f19350505050158015610fe5573d6000803e3d6000fd5b5060408051600081526020810183905281517f8c1256b8896378cd5044f80c202f9772b9d77dc85c8a6eb51967210b09bfaa28929181900390910190a150565b60125481565b60165481565b6001600160a01b0381166000908152600460205260409020545b919050565b611058612b36565b6001600160a01b031661106961157b565b6001600160a01b0316146110b2576040805162461bcd60e51b815260206004820181905260248201526000805160206138e9833981519152604482015290519081900360640190fd5b6006546040516000916001600160a01b0316907f8be0079c531659141344cd1fd0a4f28419497f9722a3daafe3b4186f6b6457e0908390a36006805473ffffffffffffffffffffffffffffffffffffffff19169055565b600e5481565b611117612b36565b6001600160a01b031661112861157b565b6001600160a01b031614611171576040805162461bcd60e51b815260206004820181905260248201526000805160206138e9833981519152604482015290519081900360640190fd5b816001600160a01b031663095ea7b38260006040518363ffffffff1660e01b815260040180836001600160a01b0316815260200182815260200192505050602060405180830381600087803b1580156111c957600080fd5b505af11580156111dd573d6000803e3d6000fd5b505050506040513d60208110156111f357600080fd5b5051610c4357600080fd5b60095481565b60056020526000908152604090205481565b61121e612b36565b6001600160a01b031661122f61157b565b6001600160a01b031614611278576040805162461bcd60e51b815260206004820181905260248201526000805160206138e9833981519152604482015290519081900360640190fd5b600d54604080519182526020820183905280517f481f79ac3a523b6d6db3c5a720e190e986d1cc1b41adcdf50f9caef8499011009281900390910190a1600d55565b6112c2612b36565b6001600160a01b03166112d361157b565b6001600160a01b03161461131c576040805162461bcd60e51b815260206004820181905260248201526000805160206138e9833981519152604482015290519081900360640190fd5b6000811161132957600080fd5b604080517fa9059cbb0000000000000000000000000000000000000000000000000000000081523360048201526024810183905290516001600160a01b0384169163a9059cbb9160448083019260209291908290030181600087803b15801561139157600080fd5b505af11580156113a5573d6000803e3d6000fd5b505050506040513d60208110156113bb57600080fd5b50516113c657600080fd5b604080516001600160a01b03841681526020810183905281517f8c1256b8896378cd5044f80c202f9772b9d77dc85c8a6eb51967210b09bfaa28929181900390910190a15050565b60105481565b61141c612b36565b6001600160a01b031661142d61157b565b6001600160a01b031614611476576040805162461bcd60e51b815260206004820181905260248201526000805160206138e9833981519152604482015290519081900360640190fd5b6000600754116114b75760405162461bcd60e51b81526004018080602001828103825260348152602001806137f06034913960400191505060405180910390fd5b6001600160a01b03811660009081526008602052604090205460ff1615156001146115135760405162461bcd60e51b815260040180806020018281038252602a815260200180613848602a913960400191505060405180910390fd5b6001600160a01b0381166000908152600860205260409020805460ff19169055600754611541906001612959565b6007556040516001600160a01b038216907f0e86f6608b536e5339a25b65ff531f5ea91e1313d056ecd4752b35cbd16137d490600090a250565b6006546001600160a01b031690565b600c546001600160a01b031633146115e9576040805162461bcd60e51b815260206004820152601460248201527f59616b53747261746567793a3a6f6e6c79446576000000000000000000000000604482015290519081900360640190fd5b600c54604080516001600160a01b039283168152918316602083015280517fa8e91499ed37682f43cffb045fcc7d379a91e8c9a14e6321877ee34dee564c009281900390910190a1600c805473ffffffffffffffffffffffffffffffffffffffff19166001600160a01b0392909216919091179055565b60018054604080516020600284861615610100026000190190941693909304601f810184900484028201840190925281815292918301828280156109ed5780601f106109c2576101008083540402835291602001916109ed565b6116c2612b36565b6001600160a01b03166116d361157b565b6001600160a01b03161461171c576040805162461bcd60e51b815260206004820181905260248201526000805160206138e9833981519152604482015290519081900360640190fd5b61271061174060105461173a601154856123e190919063ffffffff16565b906123e1565b111561174b57600080fd5b601254604080519182526020820183905280517f2a42303d002f0ba6cfe8259c91d4684443fb0b3de286ba74991175d6517261319281900390910190a1601255565b7fc89efdaa54c0f20c7adf612882df0950f5a951637e0307cdcb4c672f298b8bc681565b6117b9612b36565b6001600160a01b03166117ca61157b565b6001600160a01b031614611813576040805162461bcd60e51b815260206004820181905260248201526000805160206138e9833981519152604482015290519081900360640190fd5b61271061183160125461173a601154856123e190919063ffffffff16565b111561183c57600080fd5b601054604080519182526020820183905280517fe7f97d51d307dc44045597c9978bec0f842e6bb40d19b9444084cfa30d9ed4f29281900390910190a1601055565b6000610a083384846125f1565b611893612b36565b6001600160a01b03166118a461157b565b6001600160a01b0316146118ed576040805162461bcd60e51b815260206004820181905260248201526000805160206138e9833981519152604482015290519081900360640190fd5b600a54604080516370a0823160e01b815230600482015290516000926001600160a01b0316916370a08231916024808301926020929190829003018186803b15801561193857600080fd5b505afa15801561194c573d6000803e3d6000fd5b505050506040513d602081101561196257600080fd5b5051601354601654604080517f5312ea8e0000000000000000000000000000000000000000000000000000000081526004810192909252519293506001600160a01b0390911691635312ea8e9160248082019260009290919082900301818387803b1580156119d057600080fd5b505af11580156119e4573d6000803e3d6000fd5b5050600a54604080516370a0823160e01b81523060048201529051600094506001600160a01b0390921692506370a08231916024808301926020929190829003018186803b158015611a3557600080fd5b505afa158015611a49573d6000803e3d6000fd5b505050506040513d6020811015611a5f57600080fd5b5051905083611a6e8284612959565b1015611aab5760405162461bcd60e51b815260040180806020018281038252602781526020018061398e6027913960400191505060405180910390fd5b600981905560025460408051838152602081019290925280517fc7606d21ac05cd309191543e409f0845c016120563783d70e4f41419dc0ef2349281900390910190a1600f5460ff1615156001148015611b0757506001831515145b15611b1657611b166000610e8a565b50505050565b600f5460ff1681565b611b2f338261299b565b50565b600080611b3d611b7f565b9050600d548110611b7157611b69612710611b6360105484612b3a90919063ffffffff16565b90612b93565b915050610ab0565b600091505090565b600d5481565b601354601654604080517fd18df53c00000000000000000000000000000000000000000000000000000000815260048101929092523060248301525160009283926001600160a01b039091169163d18df53c91604480820192602092909190829003018186803b158015611bf257600080fd5b505afa158015611c06573d6000803e3d6000fd5b505050506040513d6020811015611c1c57600080fd5b5051600b54604080516370a0823160e01b815230600482015290519293506000926001600160a01b03909216916370a0823191602480820192602092909190829003018186803b158015611c6f57600080fd5b505afa158015611c83573d6000803e3d6000fd5b505050506040513d6020811015611c9957600080fd5b50519050611ca782826123e1565b9250505090565b600a546001600160a01b031681565b611cc5612b36565b6001600160a01b0316611cd661157b565b6001600160a01b031614611d1f576040805162461bcd60e51b815260206004820181905260248201526000805160206138e9833981519152604482015290519081900360640190fd5b612710611d3d60105461173a601254856123e190919063ffffffff16565b1115611d4857600080fd5b601154604080519182526020820183905280517f3cc372f330f95ac9540626dc8a25f5bf21ba607215a5d58304cb804d446f104a9281900390910190a1601155565b42841015611ddf576040805162461bcd60e51b815260206004820152600f60248201527f7065726d69743a3a657870697265640000000000000000000000000000000000604482015290519081900360640190fd5b6001600160a01b0380881660008181526005602090815260409182902080546001810190915582517f6e71edae12b1b97f4d1f60370fef10105fa2faae0126114a169c64845d6126c98184015280840194909452938a1660608401526080830189905260a083019390935260c08083018890528151808403909101815260e090920190528051910120611e758882868686612bd5565b611e80888888612442565b5050505050505050565b600c546001600160a01b031681565b611ea1612b36565b6001600160a01b0316611eb261157b565b6001600160a01b031614611efb576040805162461bcd60e51b815260206004820181905260248201526000805160206138e9833981519152604482015290519081900360640190fd5b600a54601354604080517f095ea7b30000000000000000000000000000000000000000000000000000000081526001600160a01b03928316600482015260001960248201529051919092169163095ea7b39160448083019260209291908290030181600087803b158015611f6e57600080fd5b505af1158015611f82573d6000803e3d6000fd5b505050506040513d6020811015610c4357600080fd5b6001600160a01b03918216600090815260036020908152604080832093909416825291909152205490565b6000611fdc600954600254612b3a90919063ffffffff16565b611fe757508061104b565b610a0c600954611b6360025485612b3a90919063ffffffff16565b61200a612b36565b6001600160a01b031661201b61157b565b6001600160a01b031614612064576040805162461bcd60e51b815260206004820181905260248201526000805160206138e9833981519152604482015290519081900360640190fd5b600e54604080519182526020820183905280517fa5dae50539d56dfe1fb5273d883b0c39bc76750a25d036fc5fbd09ad8fd5f57f9281900390910190a1600e55565b60006120bf600954600254612b3a90919063ffffffff16565b6120cb5750600061104b565b610a0c600254611b6360095485612b3a90919063ffffffff16565b60007f8b73c3c69bb8fe3d512ecc4cf759cc79239f7b179b0ffacaa9a75d522b39400f60001b600060405180828054600181600116156101000203166002900480156121695780601f10612147576101008083540402835291820191612169565b820191906000526020600020905b815481529060010190602001808311612155575b505091505060405180910390207fc89efdaa54c0f20c7adf612882df0950f5a951637e0307cdcb4c672f298b8bc660001b6121a2612d0d565b3060405160200180868152602001858152602001848152602001838152602001826001600160a01b031681526020019550505050505060405160208183030381529060405280519060200120905090565b6013546001600160a01b031681565b61220a612b36565b6001600160a01b031661221b61157b565b6001600160a01b031614612264576040805162461bcd60e51b815260206004820181905260248201526000805160206138e9833981519152604482015290519081900360640190fd5b6001600160a01b0381166122a95760405162461bcd60e51b81526004018080602001828103825260268152602001806137ca6026913960400191505060405180910390fd5b6006546040516001600160a01b038084169216907f8be0079c531659141344cd1fd0a4f28419497f9722a3daafe3b4186f6b6457e090600090a36006805473ffffffffffffffffffffffffffffffffffffffff19166001600160a01b0392909216919091179055565b600b546001600160a01b031681565b323314612375576040805162461bcd60e51b815260206004820152601460248201527f59616b53747261746567793a3a6f6e6c79454f41000000000000000000000000604482015290519081900360640190fd5b600061237f611b7f565b9050600d548110156123d8576040805162461bcd60e51b815260206004820152601c60248201527f46726f73745374726174656779466f724c503a3a7265696e7665737400000000604482015290519081900360640190fd5b611b2f81612d11565b60008282018381101561243b576040805162461bcd60e51b815260206004820152601b60248201527f536166654d6174683a206164646974696f6e206f766572666c6f770000000000604482015290519081900360640190fd5b9392505050565b6001600160a01b03831661249d576040805162461bcd60e51b815260206004820152601c60248201527f5f617070726f76653a3a6f776e6572207a65726f206164647265737300000000604482015290519081900360640190fd5b6001600160a01b0382166124f8576040805162461bcd60e51b815260206004820152601e60248201527f5f617070726f76653a3a7370656e646572207a65726f20616464726573730000604482015290519081900360640190fd5b6001600160a01b03808416600081815260036020908152604080832094871680845294825291829020859055815185815291517f8c5be1e5ebec7d5bd14f71427d1e84f3dd0314c0f7b2291e5b200ac8c7c3b9259281900390910190a3505050565b600081848411156125e95760405162461bcd60e51b81526004018080602001828103825283818151815260200191508051906020019080838360005b838110156125ae578181015183820152602001612596565b50505050905090810190601f1680156125db5780820380516001836020036101000a031916815260200191505b509250505060405180910390fd5b505050900390565b6001600160a01b0382166126365760405162461bcd60e51b81526004018080602001828103825260348152602001806139306034913960400191505060405180910390fd5b612673816040518060600160405280602e8152602001613a0b602e91396001600160a01b038616600090815260046020526040902054919061255a565b6001600160a01b0380851660009081526004602052604080822093909355908416815220546126a290826123e1565b6001600160a01b0380841660008181526004602090815260409182902094909455805185815290519193928716927fddf252ad1be2c89b69c2b068fc378daa952ba7f163c4a11628f55a4df523b3ef92918290030190a3505050565b6000811161273d5760405162461bcd60e51b815260040180806020018281038252602a815260200180613964602a913960400191505060405180910390fd5b601354601654604080517f441a3e70000000000000000000000000000000000000000000000000000000008152600481019290925260248201849052516001600160a01b039092169163441a3e709160448082019260009290919082900301818387803b1580156127ad57600080fd5b505af1158015610d47573d6000803e3d6000fd5b826001600160a01b031663a9059cbb83836040518363ffffffff1660e01b815260040180836001600160a01b0316815260200182815260200192505050602060405180830381600087803b15801561281857600080fd5b505af115801561282c573d6000803e3d6000fd5b505050506040513d602081101561284257600080fd5b505161287f5760405162461bcd60e51b81526004018080602001828103825260238152602001806137a76023913960400191505060405180910390fd5b505050565b6128c1816040518060600160405280602781526020016139e4602791396001600160a01b038516600090815260046020526040902054919061255a565b60046000846001600160a01b03166001600160a01b03168152602001908152602001600020819055506129118160405180606001604052806027815260200161387260279139600254919061255a565b6002556040805182815290516000916001600160a01b038516917fddf252ad1be2c89b69c2b068fc378daa952ba7f163c4a11628f55a4df523b3ef9181900360200190a35050565b600061243b83836040518060400160405280601f81526020017f536166654d6174683a207375627472616374696f6e20756e646572666c6f770081525061255a565b600f5460ff1615156001146129f7576040805162461bcd60e51b815260206004820152601c60248201527f46726f73745374726174656779466f724c503a3a5f6465706f73697400000000604482015290519081900360640190fd5b600e5415612a20576000612a09611b7f565b9050600e54811115612a1e57612a1e81612d11565b505b600a54604080517f23b872dd0000000000000000000000000000000000000000000000000000000081523360048201523060248201526044810184905290516001600160a01b03909216916323b872dd916064808201926020929091908290030181600087803b158015612a9357600080fd5b505af1158015612aa7573d6000803e3d6000fd5b505050506040513d6020811015612abd57600080fd5b5051612ac857600080fd5b612ad181612ee3565b612ae382612ade83611fc3565b612f79565b600954612af090826123e1565b6009556040805182815290516001600160a01b038416917fe1fffcc4923d04b559f4d29a8bfc6cda04eb5b0d3c460751c2402c5c5cc9109c919081900360200190a25050565b3390565b600082612b4957506000610a0c565b82820282848281612b5657fe5b041461243b5760405162461bcd60e51b81526004018080602001828103825260218152602001806138c86021913960400191505060405180910390fd5b600061243b83836040518060400160405280601a81526020017f536166654d6174683a206469766973696f6e206279207a65726f000000000000815250613004565b6000612bdf6120e6565b8560405160200180807f190100000000000000000000000000000000000000000000000000000000000081525060020183815260200182815260200192505050604051602081830303815290604052805190602001209050600060018286868660405160008152602001604052604051808581526020018460ff1681526020018381526020018281526020019450505050506020604051602081039080840390855afa158015612c93573d6000803e3d6000fd5b5050604051601f1901519150506001600160a01b03811615801590612cc95750866001600160a01b0316816001600160a01b0316145b612d045760405162461bcd60e51b81526004018080602001828103825260248152602001806138246024913960400191505060405180910390fd5b50505050505050565b4690565b60135460165460408051631c57762b60e31b8152600481019290925260006024830181905290516001600160a01b039093169263e2bbb15892604480820193929182900301818387803b158015612d6757600080fd5b505af1158015612d7b573d6000803e3d6000fd5b505050506000612d9c612710611b6360125485612b3a90919063ffffffff16565b90508015612dc157600b54600c54612dc1916001600160a01b039081169116836127c1565b6000612dde612710611b6360115486612b3a90919063ffffffff16565b90508015612e0457600b54612e04906001600160a01b0316612dfe61157b565b836127c1565b6000612e21612710611b6360105487612b3a90919063ffffffff16565b90508015612e4057600b54612e40906001600160a01b031633836127c1565b6000612e81612e5b83612e5586818a8a612959565b90612959565b600b54600a546014546015546001600160a01b0393841693928316929182169116613069565b9050612e8c81612ee3565b600954612e9990826123e1565b600981905560025460408051928352602083019190915280517fc7606d21ac05cd309191543e409f0845c016120563783d70e4f41419dc0ef2349281900390910190a15050505050565b60008111612f225760405162461bcd60e51b81526004018080602001828103825260278152602001806139096027913960400191505060405180910390fd5b60135460165460408051631c57762b60e31b8152600481019290925260248201849052516001600160a01b039092169163e2bbb1589160448082019260009290919082900301818387803b1580156127ad57600080fd5b600254612f8690826123e1565b6002556001600160a01b038216600090815260046020526040902054612fac90826123e1565b6001600160a01b03831660008181526004602090815260408083209490945583518581529351929391927fddf252ad1be2c89b69c2b068fc378daa952ba7f163c4a11628f55a4df523b3ef9281900390910190a35050565b600081836130535760405162461bcd60e51b81526020600482018181528351602484015283519092839260449091019190850190808383600083156125ae578181015183820152602001612596565b50600083858161305f57fe5b0495945050505050565b600080613077876002612b93565b9050600081116130b85760405162461bcd60e51b815260040180806020018281038252602f815260200180613899602f913960400191505060405180910390fd5b6000856001600160a01b0316630dfe16816040518163ffffffff1660e01b815260040160206040518083038186803b1580156130f357600080fd5b505afa158015613107573d6000803e3d6000fd5b505050506040513d602081101561311d57600080fd5b50519050816001600160a01b038881169083161461314457613141838984896131ea565b90505b6000876001600160a01b031663d21220a76040518163ffffffff1660e01b815260040160206040518083038186803b15801561317f57600080fd5b505afa158015613193573d6000803e3d6000fd5b505050506040513d60208110156131a957600080fd5b50519050836001600160a01b038a8116908316146131d0576131cd858b848a6131ea565b90505b6131db8984836133fa565b9b9a5050505050505050505050565b6000806131f78585613641565b509050600080846001600160a01b0316630902f1ac6040518163ffffffff1660e01b815260040160606040518083038186803b15801561323657600080fd5b505afa15801561324a573d6000803e3d6000fd5b505050506040513d606081101561326057600080fd5b50805160209091015190925090506001600160a01b038381169088161461328357905b6000806132b18a856dffffffffffffffffffffffffffff16856dffffffffffffffffffffffffffff16613672565b9050886001600160a01b0316856001600160a01b0316146132ce57905b6132d989888c6136ba565b60408051600080825260208201928390527f022c0d9f00000000000000000000000000000000000000000000000000000000835260248201858152604483018590523060648401819052608060848501908152845160a486018190526001600160a01b038e169663022c0d9f968a968a9691949193919260c486019290918190849084905b8381101561337657818101518382015260200161335e565b50505050905090810190601f1680156133a35780820380516001836020036101000a031916815260200191505b5095505050505050600060405180830381600087803b1580156133c557600080fd5b505af11580156133d9573d6000803e3d6000fd5b505050508181116133ea57816133ec565b805b9a9950505050505050505050565b6000806000856001600160a01b0316630902f1ac6040518163ffffffff1660e01b815260040160606040518083038186803b15801561343857600080fd5b505afa15801561344c573d6000803e3d6000fd5b505050506040513d606081101561346257600080fd5b50805160209091015190925090506000613490866dffffffffffffffffffffffffffff80861690851661378e565b9050848111156134cb578490506134c885836dffffffffffffffffffffffffffff16856dffffffffffffffffffffffffffff1661378e565b95505b61353a876001600160a01b0316630dfe16816040518163ffffffff1660e01b815260040160206040518083038186803b15801561350757600080fd5b505afa15801561351b573d6000803e3d6000fd5b505050506040513d602081101561353157600080fd5b505188886136ba565b6135a9876001600160a01b031663d21220a76040518163ffffffff1660e01b815260040160206040518083038186803b15801561357657600080fd5b505afa15801561358a573d6000803e3d6000fd5b505050506040513d60208110156135a057600080fd5b505188836136ba565b604080517f6a62784200000000000000000000000000000000000000000000000000000000815230600482015290516001600160a01b03891691636a6278429160248083019260209291908290030181600087803b15801561360a57600080fd5b505af115801561361e573d6000803e3d6000fd5b505050506040513d602081101561363457600080fd5b5051979650505050505050565b600080826001600160a01b0316846001600160a01b031610613664578284613667565b83835b915091509250929050565b600080613681856103e5612b3a565b9050600061368f8285612b3a565b905060006136a38361173a886103e8612b3a565b90506136af8282612b93565b979650505050505050565b826001600160a01b031663a9059cbb83836040518363ffffffff1660e01b815260040180836001600160a01b0316815260200182815260200192505050602060405180830381600087803b15801561371157600080fd5b505af1158015613725573d6000803e3d6000fd5b505050506040513d602081101561373b57600080fd5b505161287f576040805162461bcd60e51b815260206004820181905260248201527f4465784c6962726172793a3a5452414e534645525f46524f4d5f4641494c4544604482015290519081900360640190fd5b600061379e83611b638685612b3a565b94935050505056fe446578537472617465677956363a3a5452414e534645525f46524f4d5f4641494c45444f776e61626c653a206e6577206f776e657220697320746865207a65726f20616464726573735065726d697373696f6e65643a3a72656d6f76654465706f7369746f722c206e6f20616c6c6f776564206465706f7369746f7273417263683a3a76616c69646174655369673a20696e76616c6964207369676e61747572655065726d697373696f6e65643a3a72656d6f76654465706f7369746f722c206e6f7420616c6c6f7765645f6275726e3a206275726e20616d6f756e74206578636565647320746f74616c20737570706c794465784c6962726172793a3a5f636f6e76657274526577617264546f6b656e73546f4465706f736974546f6b656e73536166654d6174683a206d756c7469706c69636174696f6e206f766572666c6f774f776e61626c653a2063616c6c6572206973206e6f7420746865206f776e657246726f73745374726174656779466f724c503a3a5f7374616b654465706f736974546f6b656e735f7472616e73666572546f6b656e733a2063616e6e6f74207472616e7366657220746f20746865207a65726f206164647265737346726f73745374726174656779466f724c503a3a5f77697468647261774465706f736974546f6b656e7346726f73745374726174656779466f724c503a3a7265736375654465706c6f79656446756e64737472616e7366657246726f6d3a207472616e7366657220616d6f756e74206578636565647320616c6c6f77616e63655f6275726e3a206275726e20616d6f756e7420657863656564732066726f6d2062616c616e63655f7472616e73666572546f6b656e733a207472616e7366657220657863656564732066726f6d2062616c616e6365a26469706673582212207719b052c4835def52c5a3fd4d084639e1afaa946c960b45802fc4ab8c93fcc364736f6c634300070300334f776e61626c653a206e6577206f776e657220697320746865207a65726f206164647265737353776170207061697220737570706c69656420646f6573206e6f742068617665207468652072657761726420746f6b656e206173206f6e65206f66206974277320706169725377617020706169722030206973206e656365737361727920627574206e6f7420737570706c6965644f776e61626c653a2063616c6c6572206973206e6f7420746865206f776e65728be0079c531659141344cd1fd0a4f28419497f9722a3daafe3b4186f6b6457e0537761702070616972203020737570706c69656420646f6573206e6f74206d6174636820746865207061697220696e207175657374696f6e5377617020706169722031206973206e656365737361727920627574206e6f7420737570706c696564537761702070616972203120737570706c69656420646f6573206e6f74206d6174636820746865207061697220696e207175657374696f6e",
  "devdoc": {
    "kind": "dev",
    "methods": {
      "allowDepositor(address)": {
        "params": {
          "depositor": "address"
        }
      },
      "allowance(address,address)": {
        "params": {
          "account": "The address of the account holding the funds",
          "spender": "The address of the account spending the funds"
        },
        "returns": {
          "_0": "The number of tokens approved"
        }
      },
      "approve(address,uint256)": {
        "details": "This will overwrite the approval amount for `spender` and is subject to issues noted [here](https://eips.ethereum.org/EIPS/eip-20#approve) It is recommended to use increaseAllowance and decreaseAllowance instead",
        "params": {
          "amount": "The number of tokens that are approved (2^256-1 means infinite)",
          "spender": "The address of the account which may transfer tokens"
        },
        "returns": {
          "_0": "Whether or not the approval succeeded"
        }
      },
      "balanceOf(address)": {
        "params": {
          "account": "The address of the account to get the balance of"
        },
        "returns": {
          "_0": "The number of tokens held"
        }
      },
      "checkReward()": {
        "returns": {
          "_0": "reward tokens"
        }
      },
      "deposit(uint256)": {
        "params": {
          "amount": "Amount of tokens to deposit"
        }
      },
      "depositFor(address,uint256)": {
        "details": "Must mint receipt tokens to `account`",
        "params": {
          "account": "address to receive receipt tokens",
          "amount": "deposit tokens"
        }
      },
      "depositWithPermit(uint256,uint256,uint8,bytes32,bytes32)": {
        "params": {
          "amount": "Amount of tokens to deposit",
          "deadline": "The time at which to expire the signature",
          "r": "Half of the ECDSA signature pair",
          "s": "Half of the ECDSA signature pair",
          "v": "The recovery byte of the signature"
        }
      },
      "estimateDeployedBalance()": {
        "returns": {
          "_0": "deposit tokens"
        }
      },
      "estimateReinvestReward()": {
        "returns": {
          "_0": "reward tokens"
        }
      },
      "getDepositTokensForShares(uint256)": {
        "params": {
          "amount": "receipt tokens"
        },
        "returns": {
          "_0": "deposit tokens"
        }
      },
      "getDomainSeparator()": {
        "returns": {
          "_0": "Separator"
        }
      },
      "getSharesForDepositTokens(uint256)": {
        "details": "If contract is empty, use 1:1 ratioCould return zero shares for very low amounts of deposit tokens",
        "params": {
          "amount": "deposit tokens"
        },
        "returns": {
          "_0": "receipt tokens"
        }
      },
      "owner()": {
        "details": "Returns the address of the current owner."
      },
      "permit(address,address,uint256,uint256,uint8,bytes32,bytes32)": {
        "params": {
          "deadline": "The time at which to expire the signature",
          "owner": "The address to approve from",
          "r": "Half of the ECDSA signature pair",
          "s": "Half of the ECDSA signature pair",
          "spender": "The address to be approved",
          "v": "The recovery byte of the signature",
          "value": "The number of tokens that are approved (2^256-1 means infinite)"
        }
      },
      "recoverAVAX(uint256)": {
        "params": {
          "amount": "amount"
        }
      },
      "recoverERC20(address,uint256)": {
        "params": {
          "tokenAddress": "token address",
          "tokenAmount": "amount to recover"
        }
      },
      "removeDepositor(address)": {
        "params": {
          "depositor": "address"
        }
      },
      "renounceOwnership()": {
        "details": "Leaves the contract without owner. It will not be possible to call `onlyOwner` functions anymore. Can only be called by the current owner. NOTE: Renouncing ownership will leave the contract without an owner, thereby removing any functionality that is only available to the owner."
      },
      "rescueDeployedFunds(uint256,bool)": {
        "params": {
          "disableDeposits": "bool",
          "minReturnAmountAccepted": "min deposit tokens to receive"
        }
      },
      "revokeAllowance(address,address)": {
        "params": {
          "spender": "address",
          "token": "address"
        }
      },
      "setAllowances()": {
        "details": "Restricted to avoid griefing attacks"
      },
      "transfer(address,uint256)": {
        "params": {
          "amount": "The number of tokens to transfer",
          "dst": "The address of the destination account"
        },
        "returns": {
          "_0": "Whether or not the transfer succeeded"
        }
      },
      "transferFrom(address,address,uint256)": {
        "params": {
          "amount": "The number of tokens to transfer",
          "dst": "The address of the destination account",
          "src": "The address of the source account"
        },
        "returns": {
          "_0": "Whether or not the transfer succeeded"
        }
      },
      "transferOwnership(address)": {
        "details": "Transfers ownership of the contract to a new account (`newOwner`). Can only be called by the current owner."
      },
      "updateAdminFee(uint256)": {
        "params": {
          "newValue": "fee in BIPS"
        }
      },
      "updateDepositsEnabled(bool)": {
        "params": {
          "newValue": "bool"
        }
      },
      "updateDevAddr(address)": {
        "params": {
          "newValue": "address"
        }
      },
      "updateDevFee(uint256)": {
        "params": {
          "newValue": "fee in BIPS"
        }
      },
      "updateMaxTokensToDepositWithoutReinvest(uint256)": {
        "params": {
          "newValue": "threshold"
        }
      },
      "updateMinTokensToReinvest(uint256)": {
        "params": {
          "newValue": "threshold"
        }
      },
      "updateReinvestReward(uint256)": {
        "params": {
          "newValue": "fee in BIPS"
        }
      },
      "withdraw(uint256)": {
        "params": {
          "amount": "receipt tokens"
        }
      }
    },
    "version": 1
  },
  "userdoc": {
    "kind": "user",
    "methods": {
      "allowDepositor(address)": {
        "notice": "Add an allowed depositor"
      },
      "allowance(address,address)": {
        "notice": "Get the number of tokens `spender` is approved to spend on behalf of `account`"
      },
      "approve(address,uint256)": {
        "notice": "Approve `spender` to transfer up to `amount` from `src`"
      },
      "balanceOf(address)": {
        "notice": "Get the number of tokens held by the `account`"
      },
      "checkReward()": {
        "notice": "Reward tokens avialable to strategy, including balance"
      },
      "deposit(uint256)": {
        "notice": "Deposit tokens to receive receipt tokens"
      },
      "depositFor(address,uint256)": {
        "notice": "Deposit on behalf of another account"
      },
      "depositWithPermit(uint256,uint256,uint8,bytes32,bytes32)": {
        "notice": "Deposit using Permit"
      },
      "estimateDeployedBalance()": {
        "notice": "Estimate recoverable balance"
      },
      "estimateReinvestReward()": {
        "notice": "Estimate reinvest reward"
      },
      "getDepositTokensForShares(uint256)": {
        "notice": "Calculate deposit tokens for a given amount of receipt tokens"
      },
      "getDomainSeparator()": {
        "notice": "EIP-712 Domain separator"
      },
      "getSharesForDepositTokens(uint256)": {
        "notice": "Calculate receipt tokens for a given amount of deposit tokens"
      },
      "permit(address,address,uint256,uint256,uint8,bytes32,bytes32)": {
        "notice": "Triggers an approval from owner to spender"
      },
      "recoverAVAX(uint256)": {
        "notice": "Recover AVAX from contract"
      },
      "recoverERC20(address,uint256)": {
        "notice": "Recover ERC20 from contract"
      },
      "reinvest()": {
        "notice": "Reinvest reward tokens into deposit tokens"
      },
      "removeDepositor(address)": {
        "notice": "Remove an allowed depositor"
      },
      "rescueDeployedFunds(uint256,bool)": {
        "notice": "Rescue all available deployed deposit tokens back to Strategy"
      },
      "revokeAllowance(address,address)": {
        "notice": "Revoke token allowance"
      },
      "setAllowances()": {
        "notice": "Approve tokens for use in Strategy"
      },
      "transfer(address,uint256)": {
        "notice": "Transfer `amount` tokens from `msg.sender` to `dst`"
      },
      "transferFrom(address,address,uint256)": {
        "notice": "Transfer `amount` tokens from `src` to `dst`"
      },
      "updateAdminFee(uint256)": {
        "notice": "Update admin fee"
      },
      "updateDepositsEnabled(bool)": {
        "notice": "Enable/disable deposits"
      },
      "updateDevAddr(address)": {
        "notice": "Update devAddr"
      },
      "updateDevFee(uint256)": {
        "notice": "Update developer fee"
      },
      "updateMaxTokensToDepositWithoutReinvest(uint256)": {
        "notice": "Update reinvest max threshold before a deposit"
      },
      "updateMinTokensToReinvest(uint256)": {
        "notice": "Update reinvest min threshold"
      },
      "updateReinvestReward(uint256)": {
        "notice": "Update reinvest reward"
      },
      "withdraw(uint256)": {
        "notice": "Redeem receipt tokens for deposit tokens"
      }
    },
    "notice": "Strategy for Zabu Pool 2",
    "version": 1
  },
  "storageLayout": {
    "storage": [
      {
        "astId": 14792,
        "contract": "contracts/strategies/ZabuStrategyForLP.sol:ZabuStrategyForLP",
        "label": "name",
        "offset": 0,
        "slot": "0",
        "type": "t_string_storage"
      },
      {
        "astId": 14795,
        "contract": "contracts/strategies/ZabuStrategyForLP.sol:ZabuStrategyForLP",
        "label": "symbol",
        "offset": 0,
        "slot": "1",
        "type": "t_string_storage"
      },
      {
        "astId": 14800,
        "contract": "contracts/strategies/ZabuStrategyForLP.sol:ZabuStrategyForLP",
        "label": "totalSupply",
        "offset": 0,
        "slot": "2",
        "type": "t_uint256"
      },
      {
        "astId": 14806,
        "contract": "contracts/strategies/ZabuStrategyForLP.sol:ZabuStrategyForLP",
        "label": "allowances",
        "offset": 0,
        "slot": "3",
        "type": "t_mapping(t_address,t_mapping(t_address,t_uint256))"
      },
      {
        "astId": 14810,
        "contract": "contracts/strategies/ZabuStrategyForLP.sol:ZabuStrategyForLP",
        "label": "balances",
        "offset": 0,
        "slot": "4",
        "type": "t_mapping(t_address,t_uint256)"
      },
      {
        "astId": 14826,
        "contract": "contracts/strategies/ZabuStrategyForLP.sol:ZabuStrategyForLP",
        "label": "nonces",
        "offset": 0,
        "slot": "5",
        "type": "t_mapping(t_address,t_uint256)"
      },
      {
        "astId": 20851,
        "contract": "contracts/strategies/ZabuStrategyForLP.sol:ZabuStrategyForLP",
        "label": "_owner",
        "offset": 0,
        "slot": "6",
        "type": "t_address"
      },
      {
        "astId": 20964,
        "contract": "contracts/strategies/ZabuStrategyForLP.sol:ZabuStrategyForLP",
        "label": "numberOfAllowedDepositors",
        "offset": 0,
        "slot": "7",
        "type": "t_uint256"
      },
      {
        "astId": 20968,
        "contract": "contracts/strategies/ZabuStrategyForLP.sol:ZabuStrategyForLP",
        "label": "allowedDepositors",
        "offset": 0,
        "slot": "8",
        "type": "t_mapping(t_address,t_bool)"
      },
      {
        "astId": 15431,
        "contract": "contracts/strategies/ZabuStrategyForLP.sol:ZabuStrategyForLP",
        "label": "totalDeposits",
        "offset": 0,
        "slot": "9",
        "type": "t_uint256"
      },
      {
        "astId": 15433,
        "contract": "contracts/strategies/ZabuStrategyForLP.sol:ZabuStrategyForLP",
        "label": "depositToken",
        "offset": 0,
        "slot": "10",
        "type": "t_contract(IERC20)18073"
      },
      {
        "astId": 15435,
        "contract": "contracts/strategies/ZabuStrategyForLP.sol:ZabuStrategyForLP",
        "label": "rewardToken",
        "offset": 0,
        "slot": "11",
        "type": "t_contract(IERC20)18073"
      },
      {
        "astId": 15437,
        "contract": "contracts/strategies/ZabuStrategyForLP.sol:ZabuStrategyForLP",
        "label": "devAddr",
        "offset": 0,
        "slot": "12",
        "type": "t_address"
      },
      {
        "astId": 15439,
        "contract": "contracts/strategies/ZabuStrategyForLP.sol:ZabuStrategyForLP",
        "label": "MIN_TOKENS_TO_REINVEST",
        "offset": 0,
        "slot": "13",
        "type": "t_uint256"
      },
      {
        "astId": 15441,
        "contract": "contracts/strategies/ZabuStrategyForLP.sol:ZabuStrategyForLP",
        "label": "MAX_TOKENS_TO_DEPOSIT_WITHOUT_REINVEST",
        "offset": 0,
        "slot": "14",
        "type": "t_uint256"
      },
      {
        "astId": 15443,
        "contract": "contracts/strategies/ZabuStrategyForLP.sol:ZabuStrategyForLP",
        "label": "DEPOSITS_ENABLED",
        "offset": 0,
        "slot": "15",
        "type": "t_bool"
      },
      {
        "astId": 15445,
        "contract": "contracts/strategies/ZabuStrategyForLP.sol:ZabuStrategyForLP",
        "label": "REINVEST_REWARD_BIPS",
        "offset": 0,
        "slot": "16",
        "type": "t_uint256"
      },
      {
        "astId": 15447,
        "contract": "contracts/strategies/ZabuStrategyForLP.sol:ZabuStrategyForLP",
        "label": "ADMIN_FEE_BIPS",
        "offset": 0,
        "slot": "17",
        "type": "t_uint256"
      },
      {
        "astId": 15449,
        "contract": "contracts/strategies/ZabuStrategyForLP.sol:ZabuStrategyForLP",
        "label": "DEV_FEE_BIPS",
        "offset": 0,
        "slot": "18",
        "type": "t_uint256"
      },
      {
        "astId": 60084,
        "contract": "contracts/strategies/ZabuStrategyForLP.sol:ZabuStrategyForLP",
        "label": "stakingContract",
        "offset": 0,
        "slot": "19",
        "type": "t_contract(IZabuChef)20335"
      },
      {
        "astId": 60086,
        "contract": "contracts/strategies/ZabuStrategyForLP.sol:ZabuStrategyForLP",
        "label": "swapPairToken0",
        "offset": 0,
        "slot": "20",
        "type": "t_contract(IPair)19079"
      },
      {
        "astId": 60088,
        "contract": "contracts/strategies/ZabuStrategyForLP.sol:ZabuStrategyForLP",
        "label": "swapPairToken1",
        "offset": 0,
        "slot": "21",
        "type": "t_contract(IPair)19079"
      },
      {
        "astId": 60090,
        "contract": "contracts/strategies/ZabuStrategyForLP.sol:ZabuStrategyForLP",
        "label": "PID",
        "offset": 0,
        "slot": "22",
        "type": "t_uint256"
      }
    ],
    "types": {
      "t_address": {
        "encoding": "inplace",
        "label": "address",
        "numberOfBytes": "20"
      },
      "t_bool": {
        "encoding": "inplace",
        "label": "bool",
        "numberOfBytes": "1"
      },
      "t_contract(IERC20)18073": {
        "encoding": "inplace",
        "label": "contract IERC20",
        "numberOfBytes": "20"
      },
      "t_contract(IPair)19079": {
        "encoding": "inplace",
        "label": "contract IPair",
        "numberOfBytes": "20"
      },
      "t_contract(IZabuChef)20335": {
        "encoding": "inplace",
        "label": "contract IZabuChef",
        "numberOfBytes": "20"
      },
      "t_mapping(t_address,t_bool)": {
        "encoding": "mapping",
        "key": "t_address",
        "label": "mapping(address => bool)",
        "numberOfBytes": "32",
        "value": "t_bool"
      },
      "t_mapping(t_address,t_mapping(t_address,t_uint256))": {
        "encoding": "mapping",
        "key": "t_address",
        "label": "mapping(address => mapping(address => uint256))",
        "numberOfBytes": "32",
        "value": "t_mapping(t_address,t_uint256)"
      },
      "t_mapping(t_address,t_uint256)": {
        "encoding": "mapping",
        "key": "t_address",
        "label": "mapping(address => uint256)",
        "numberOfBytes": "32",
        "value": "t_uint256"
      },
      "t_string_storage": {
        "encoding": "bytes",
        "label": "string",
        "numberOfBytes": "32"
      },
      "t_uint256": {
        "encoding": "inplace",
        "label": "uint256",
        "numberOfBytes": "32"
      }
    }
  }
}