{
  "address": "0x81514F9533753137E9F8842fe4BDefFFa3E3Dced",
  "abi": [
    {
      "inputs": [
        {
          "internalType": "string",
          "name": "_name",
          "type": "string"
        },
        {
          "internalType": "address",
          "name": "_depositToken",
          "type": "address"
        },
        {
          "internalType": "address",
          "name": "_rewardToken",
          "type": "address"
        },
        {
          "internalType": "address",
          "name": "_stakingContract",
          "type": "address"
        },
        {
          "internalType": "address",
          "name": "_swapPairToken0",
          "type": "address"
        },
        {
          "internalType": "address",
          "name": "_swapPairToken1",
          "type": "address"
        },
        {
          "internalType": "address",
          "name": "_reflectionToken",
          "type": "address"
        },
        {
          "internalType": "address",
          "name": "_timelock",
          "type": "address"
        },
        {
          "internalType": "uint256",
          "name": "_minTokensToReinvest",
          "type": "uint256"
        },
        {
          "internalType": "uint256",
          "name": "_adminFeeBips",
          "type": "uint256"
        },
        {
          "internalType": "uint256",
          "name": "_devFeeBips",
          "type": "uint256"
        },
        {
          "internalType": "uint256",
          "name": "_reinvestRewardBips",
          "type": "uint256"
        },
        {
          "internalType": "uint256",
          "name": "_burnFeeBips",
          "type": "uint256"
        }
      ],
      "stateMutability": "nonpayable",
      "type": "constructor"
    },
    {
      "anonymous": false,
      "inputs": [
        {
          "indexed": true,
          "internalType": "address",
          "name": "account",
          "type": "address"
        }
      ],
      "name": "AllowDepositor",
      "type": "event"
    },
    {
      "anonymous": false,
      "inputs": [
        {
          "indexed": true,
          "internalType": "address",
          "name": "owner",
          "type": "address"
        },
        {
          "indexed": true,
          "internalType": "address",
          "name": "spender",
          "type": "address"
        },
        {
          "indexed": false,
          "internalType": "uint256",
          "name": "value",
          "type": "uint256"
        }
      ],
      "name": "Approval",
      "type": "event"
    },
    {
      "anonymous": false,
      "inputs": [
        {
          "indexed": true,
          "internalType": "address",
          "name": "account",
          "type": "address"
        },
        {
          "indexed": false,
          "internalType": "uint256",
          "name": "amount",
          "type": "uint256"
        }
      ],
      "name": "Deposit",
      "type": "event"
    },
    {
      "anonymous": false,
      "inputs": [
        {
          "indexed": false,
          "internalType": "bool",
          "name": "newValue",
          "type": "bool"
        }
      ],
      "name": "DepositsEnabled",
      "type": "event"
    },
    {
      "anonymous": false,
      "inputs": [
        {
          "indexed": true,
          "internalType": "address",
          "name": "previousOwner",
          "type": "address"
        },
        {
          "indexed": true,
          "internalType": "address",
          "name": "newOwner",
          "type": "address"
        }
      ],
      "name": "OwnershipTransferred",
      "type": "event"
    },
    {
      "anonymous": false,
      "inputs": [
        {
          "indexed": false,
          "internalType": "address",
          "name": "token",
          "type": "address"
        },
        {
          "indexed": false,
          "internalType": "uint256",
          "name": "amount",
          "type": "uint256"
        }
      ],
      "name": "Recovered",
      "type": "event"
    },
    {
      "anonymous": false,
      "inputs": [
        {
          "indexed": false,
          "internalType": "uint256",
          "name": "newTotalDeposits",
          "type": "uint256"
        },
        {
          "indexed": false,
          "internalType": "uint256",
          "name": "newTotalSupply",
          "type": "uint256"
        }
      ],
      "name": "Reinvest",
      "type": "event"
    },
    {
      "anonymous": false,
      "inputs": [
        {
          "indexed": true,
          "internalType": "address",
          "name": "account",
          "type": "address"
        }
      ],
      "name": "RemoveDepositor",
      "type": "event"
    },
    {
      "anonymous": false,
      "inputs": [
        {
          "indexed": true,
          "internalType": "address",
          "name": "from",
          "type": "address"
        },
        {
          "indexed": true,
          "internalType": "address",
          "name": "to",
          "type": "address"
        },
        {
          "indexed": false,
          "internalType": "uint256",
          "name": "value",
          "type": "uint256"
        }
      ],
      "name": "Transfer",
      "type": "event"
    },
    {
      "anonymous": false,
      "inputs": [
        {
          "indexed": false,
          "internalType": "uint256",
          "name": "oldValue",
          "type": "uint256"
        },
        {
          "indexed": false,
          "internalType": "uint256",
          "name": "newValue",
          "type": "uint256"
        }
      ],
      "name": "UpdateAdminFee",
      "type": "event"
    },
    {
      "anonymous": false,
      "inputs": [
        {
          "indexed": false,
          "internalType": "address",
          "name": "oldValue",
          "type": "address"
        },
        {
          "indexed": false,
          "internalType": "address",
          "name": "newValue",
          "type": "address"
        }
      ],
      "name": "UpdateDevAddr",
      "type": "event"
    },
    {
      "anonymous": false,
      "inputs": [
        {
          "indexed": false,
          "internalType": "uint256",
          "name": "oldValue",
          "type": "uint256"
        },
        {
          "indexed": false,
          "internalType": "uint256",
          "name": "newValue",
          "type": "uint256"
        }
      ],
      "name": "UpdateDevFee",
      "type": "event"
    },
    {
      "anonymous": false,
      "inputs": [
        {
          "indexed": false,
          "internalType": "uint256",
          "name": "oldValue",
          "type": "uint256"
        },
        {
          "indexed": false,
          "internalType": "uint256",
          "name": "newValue",
          "type": "uint256"
        }
      ],
      "name": "UpdateMaxTokensToDepositWithoutReinvest",
      "type": "event"
    },
    {
      "anonymous": false,
      "inputs": [
        {
          "indexed": false,
          "internalType": "uint256",
          "name": "oldValue",
          "type": "uint256"
        },
        {
          "indexed": false,
          "internalType": "uint256",
          "name": "newValue",
          "type": "uint256"
        }
      ],
      "name": "UpdateMinTokensToReinvest",
      "type": "event"
    },
    {
      "anonymous": false,
      "inputs": [
        {
          "indexed": false,
          "internalType": "uint256",
          "name": "oldValue",
          "type": "uint256"
        },
        {
          "indexed": false,
          "internalType": "uint256",
          "name": "newValue",
          "type": "uint256"
        }
      ],
      "name": "UpdateReinvestReward",
      "type": "event"
    },
    {
      "anonymous": false,
      "inputs": [
        {
          "indexed": true,
          "internalType": "address",
          "name": "account",
          "type": "address"
        },
        {
          "indexed": false,
          "internalType": "uint256",
          "name": "amount",
          "type": "uint256"
        }
      ],
      "name": "Withdraw",
      "type": "event"
    },
    {
      "inputs": [],
      "name": "ADMIN_FEE_BIPS",
      "outputs": [
        {
          "internalType": "uint256",
          "name": "",
          "type": "uint256"
        }
      ],
      "stateMutability": "view",
      "type": "function"
    },
    {
      "inputs": [],
      "name": "DEPOSITS_ENABLED",
      "outputs": [
        {
          "internalType": "bool",
          "name": "",
          "type": "bool"
        }
      ],
      "stateMutability": "view",
      "type": "function"
    },
    {
      "inputs": [],
      "name": "DEV_FEE_BIPS",
      "outputs": [
        {
          "internalType": "uint256",
          "name": "",
          "type": "uint256"
        }
      ],
      "stateMutability": "view",
      "type": "function"
    },
    {
      "inputs": [],
      "name": "DOMAIN_TYPEHASH",
      "outputs": [
        {
          "internalType": "bytes32",
          "name": "",
          "type": "bytes32"
        }
      ],
      "stateMutability": "view",
      "type": "function"
    },
    {
      "inputs": [],
      "name": "MAX_TOKENS_TO_DEPOSIT_WITHOUT_REINVEST",
      "outputs": [
        {
          "internalType": "uint256",
          "name": "",
          "type": "uint256"
        }
      ],
      "stateMutability": "view",
      "type": "function"
    },
    {
      "inputs": [],
      "name": "MIN_TOKENS_TO_REINVEST",
      "outputs": [
        {
          "internalType": "uint256",
          "name": "",
          "type": "uint256"
        }
      ],
      "stateMutability": "view",
      "type": "function"
    },
    {
      "inputs": [],
      "name": "PERMIT_TYPEHASH",
      "outputs": [
        {
          "internalType": "bytes32",
          "name": "",
          "type": "bytes32"
        }
      ],
      "stateMutability": "view",
      "type": "function"
    },
    {
      "inputs": [],
      "name": "REINVEST_REWARD_BIPS",
      "outputs": [
        {
          "internalType": "uint256",
          "name": "",
          "type": "uint256"
        }
      ],
      "stateMutability": "view",
      "type": "function"
    },
    {
      "inputs": [],
      "name": "VERSION_HASH",
      "outputs": [
        {
          "internalType": "bytes32",
          "name": "",
          "type": "bytes32"
        }
      ],
      "stateMutability": "view",
      "type": "function"
    },
    {
      "inputs": [
        {
          "internalType": "address",
          "name": "depositor",
          "type": "address"
        }
      ],
      "name": "allowDepositor",
      "outputs": [],
      "stateMutability": "nonpayable",
      "type": "function"
    },
    {
      "inputs": [
        {
          "internalType": "address",
          "name": "account",
          "type": "address"
        },
        {
          "internalType": "address",
          "name": "spender",
          "type": "address"
        }
      ],
      "name": "allowance",
      "outputs": [
        {
          "internalType": "uint256",
          "name": "",
          "type": "uint256"
        }
      ],
      "stateMutability": "view",
      "type": "function"
    },
    {
      "inputs": [
        {
          "internalType": "address",
          "name": "",
          "type": "address"
        }
      ],
      "name": "allowedDepositors",
      "outputs": [
        {
          "internalType": "bool",
          "name": "",
          "type": "bool"
        }
      ],
      "stateMutability": "view",
      "type": "function"
    },
    {
      "inputs": [
        {
          "internalType": "address",
          "name": "spender",
          "type": "address"
        },
        {
          "internalType": "uint256",
          "name": "amount",
          "type": "uint256"
        }
      ],
      "name": "approve",
      "outputs": [
        {
          "internalType": "bool",
          "name": "",
          "type": "bool"
        }
      ],
      "stateMutability": "nonpayable",
      "type": "function"
    },
    {
      "inputs": [
        {
          "internalType": "address",
          "name": "account",
          "type": "address"
        }
      ],
      "name": "balanceOf",
      "outputs": [
        {
          "internalType": "uint256",
          "name": "",
          "type": "uint256"
        }
      ],
      "stateMutability": "view",
      "type": "function"
    },
    {
      "inputs": [],
      "name": "burnFeeBips",
      "outputs": [
        {
          "internalType": "uint256",
          "name": "",
          "type": "uint256"
        }
      ],
      "stateMutability": "view",
      "type": "function"
    },
    {
      "inputs": [],
      "name": "checkReward",
      "outputs": [
        {
          "internalType": "uint256",
          "name": "",
          "type": "uint256"
        }
      ],
      "stateMutability": "view",
      "type": "function"
    },
    {
      "inputs": [],
      "name": "decimals",
      "outputs": [
        {
          "internalType": "uint8",
          "name": "",
          "type": "uint8"
        }
      ],
      "stateMutability": "view",
      "type": "function"
    },
    {
      "inputs": [
        {
          "internalType": "uint256",
          "name": "amount",
          "type": "uint256"
        }
      ],
      "name": "deposit",
      "outputs": [],
      "stateMutability": "nonpayable",
      "type": "function"
    },
    {
      "inputs": [
        {
          "internalType": "address",
          "name": "account",
          "type": "address"
        },
        {
          "internalType": "uint256",
          "name": "amount",
          "type": "uint256"
        }
      ],
      "name": "depositFor",
      "outputs": [],
      "stateMutability": "nonpayable",
      "type": "function"
    },
    {
      "inputs": [],
      "name": "depositToken",
      "outputs": [
        {
          "internalType": "contract IERC20",
          "name": "",
          "type": "address"
        }
      ],
      "stateMutability": "view",
      "type": "function"
    },
    {
      "inputs": [
        {
          "internalType": "uint256",
          "name": "amount",
          "type": "uint256"
        },
        {
          "internalType": "uint256",
          "name": "deadline",
          "type": "uint256"
        },
        {
          "internalType": "uint8",
          "name": "v",
          "type": "uint8"
        },
        {
          "internalType": "bytes32",
          "name": "r",
          "type": "bytes32"
        },
        {
          "internalType": "bytes32",
          "name": "s",
          "type": "bytes32"
        }
      ],
      "name": "depositWithPermit",
      "outputs": [],
      "stateMutability": "nonpayable",
      "type": "function"
    },
    {
      "inputs": [],
      "name": "devAddr",
      "outputs": [
        {
          "internalType": "address",
          "name": "",
          "type": "address"
        }
      ],
      "stateMutability": "view",
      "type": "function"
    },
    {
      "inputs": [],
      "name": "estimateDeployedBalance",
      "outputs": [
        {
          "internalType": "uint256",
          "name": "",
          "type": "uint256"
        }
      ],
      "stateMutability": "view",
      "type": "function"
    },
    {
      "inputs": [],
      "name": "estimateReinvestReward",
      "outputs": [
        {
          "internalType": "uint256",
          "name": "",
          "type": "uint256"
        }
      ],
      "stateMutability": "view",
      "type": "function"
    },
    {
      "inputs": [
        {
          "internalType": "uint256",
          "name": "amount",
          "type": "uint256"
        }
      ],
      "name": "getDepositTokensForShares",
      "outputs": [
        {
          "internalType": "uint256",
          "name": "",
          "type": "uint256"
        }
      ],
      "stateMutability": "view",
      "type": "function"
    },
    {
      "inputs": [],
      "name": "getDomainSeparator",
      "outputs": [
        {
          "internalType": "bytes32",
          "name": "",
          "type": "bytes32"
        }
      ],
      "stateMutability": "view",
      "type": "function"
    },
    {
      "inputs": [
        {
          "internalType": "uint256",
          "name": "amount",
          "type": "uint256"
        }
      ],
      "name": "getSharesForDepositTokens",
      "outputs": [
        {
          "internalType": "uint256",
          "name": "",
          "type": "uint256"
        }
      ],
      "stateMutability": "view",
      "type": "function"
    },
    {
      "inputs": [],
      "name": "name",
      "outputs": [
        {
          "internalType": "string",
          "name": "",
          "type": "string"
        }
      ],
      "stateMutability": "view",
      "type": "function"
    },
    {
      "inputs": [
        {
          "internalType": "address",
          "name": "",
          "type": "address"
        }
      ],
      "name": "nonces",
      "outputs": [
        {
          "internalType": "uint256",
          "name": "",
          "type": "uint256"
        }
      ],
      "stateMutability": "view",
      "type": "function"
    },
    {
      "inputs": [],
      "name": "numberOfAllowedDepositors",
      "outputs": [
        {
          "internalType": "uint256",
          "name": "",
          "type": "uint256"
        }
      ],
      "stateMutability": "view",
      "type": "function"
    },
    {
      "inputs": [],
      "name": "owner",
      "outputs": [
        {
          "internalType": "address",
          "name": "",
          "type": "address"
        }
      ],
      "stateMutability": "view",
      "type": "function"
    },
    {
      "inputs": [
        {
          "internalType": "address",
          "name": "owner",
          "type": "address"
        },
        {
          "internalType": "address",
          "name": "spender",
          "type": "address"
        },
        {
          "internalType": "uint256",
          "name": "value",
          "type": "uint256"
        },
        {
          "internalType": "uint256",
          "name": "deadline",
          "type": "uint256"
        },
        {
          "internalType": "uint8",
          "name": "v",
          "type": "uint8"
        },
        {
          "internalType": "bytes32",
          "name": "r",
          "type": "bytes32"
        },
        {
          "internalType": "bytes32",
          "name": "s",
          "type": "bytes32"
        }
      ],
      "name": "permit",
      "outputs": [],
      "stateMutability": "nonpayable",
      "type": "function"
    },
    {
      "inputs": [
        {
          "internalType": "uint256",
          "name": "amount",
          "type": "uint256"
        }
      ],
      "name": "recoverAVAX",
      "outputs": [],
      "stateMutability": "nonpayable",
      "type": "function"
    },
    {
      "inputs": [
        {
          "internalType": "address",
          "name": "tokenAddress",
          "type": "address"
        },
        {
          "internalType": "uint256",
          "name": "tokenAmount",
          "type": "uint256"
        }
      ],
      "name": "recoverERC20",
      "outputs": [],
      "stateMutability": "nonpayable",
      "type": "function"
    },
    {
      "inputs": [],
      "name": "reflectionToken",
      "outputs": [
        {
          "internalType": "address",
          "name": "",
          "type": "address"
        }
      ],
      "stateMutability": "view",
      "type": "function"
    },
    {
      "inputs": [],
      "name": "reinvest",
      "outputs": [],
      "stateMutability": "nonpayable",
      "type": "function"
    },
    {
      "inputs": [
        {
          "internalType": "address",
          "name": "depositor",
          "type": "address"
        }
      ],
      "name": "removeDepositor",
      "outputs": [],
      "stateMutability": "nonpayable",
      "type": "function"
    },
    {
      "inputs": [],
      "name": "renounceOwnership",
      "outputs": [],
      "stateMutability": "nonpayable",
      "type": "function"
    },
    {
      "inputs": [
        {
          "internalType": "uint256",
          "name": "minReturnAmountAccepted",
          "type": "uint256"
        },
        {
          "internalType": "bool",
          "name": "disableDeposits",
          "type": "bool"
        }
      ],
      "name": "rescueDeployedFunds",
      "outputs": [],
      "stateMutability": "nonpayable",
      "type": "function"
    },
    {
      "inputs": [
        {
          "internalType": "address",
          "name": "token",
          "type": "address"
        },
        {
          "internalType": "address",
          "name": "spender",
          "type": "address"
        }
      ],
      "name": "revokeAllowance",
      "outputs": [],
      "stateMutability": "nonpayable",
      "type": "function"
    },
    {
      "inputs": [],
      "name": "rewardToken",
      "outputs": [
        {
          "internalType": "contract IERC20",
          "name": "",
          "type": "address"
        }
      ],
      "stateMutability": "view",
      "type": "function"
    },
    {
      "inputs": [],
      "name": "setAllowances",
      "outputs": [],
      "stateMutability": "nonpayable",
      "type": "function"
    },
    {
      "inputs": [],
      "name": "stakingContract",
      "outputs": [
        {
          "internalType": "contract IStakingRewards",
          "name": "",
          "type": "address"
        }
      ],
      "stateMutability": "view",
      "type": "function"
    },
    {
      "inputs": [],
      "name": "swapPairToken0",
      "outputs": [
        {
          "internalType": "contract IPair",
          "name": "",
          "type": "address"
        }
      ],
      "stateMutability": "view",
      "type": "function"
    },
    {
      "inputs": [],
      "name": "swapPairToken1",
      "outputs": [
        {
          "internalType": "contract IPair",
          "name": "",
          "type": "address"
        }
      ],
      "stateMutability": "view",
      "type": "function"
    },
    {
      "inputs": [],
      "name": "symbol",
      "outputs": [
        {
          "internalType": "string",
          "name": "",
          "type": "string"
        }
      ],
      "stateMutability": "view",
      "type": "function"
    },
    {
      "inputs": [],
      "name": "totalDeposits",
      "outputs": [
        {
          "internalType": "uint256",
          "name": "",
          "type": "uint256"
        }
      ],
      "stateMutability": "view",
      "type": "function"
    },
    {
      "inputs": [],
      "name": "totalSupply",
      "outputs": [
        {
          "internalType": "uint256",
          "name": "",
          "type": "uint256"
        }
      ],
      "stateMutability": "view",
      "type": "function"
    },
    {
      "inputs": [
        {
          "internalType": "address",
          "name": "dst",
          "type": "address"
        },
        {
          "internalType": "uint256",
          "name": "amount",
          "type": "uint256"
        }
      ],
      "name": "transfer",
      "outputs": [
        {
          "internalType": "bool",
          "name": "",
          "type": "bool"
        }
      ],
      "stateMutability": "nonpayable",
      "type": "function"
    },
    {
      "inputs": [
        {
          "internalType": "address",
          "name": "src",
          "type": "address"
        },
        {
          "internalType": "address",
          "name": "dst",
          "type": "address"
        },
        {
          "internalType": "uint256",
          "name": "amount",
          "type": "uint256"
        }
      ],
      "name": "transferFrom",
      "outputs": [
        {
          "internalType": "bool",
          "name": "",
          "type": "bool"
        }
      ],
      "stateMutability": "nonpayable",
      "type": "function"
    },
    {
      "inputs": [
        {
          "internalType": "address",
          "name": "newOwner",
          "type": "address"
        }
      ],
      "name": "transferOwnership",
      "outputs": [],
      "stateMutability": "nonpayable",
      "type": "function"
    },
    {
      "inputs": [
        {
          "internalType": "uint256",
          "name": "newValue",
          "type": "uint256"
        }
      ],
      "name": "updateAdminFee",
      "outputs": [],
      "stateMutability": "nonpayable",
      "type": "function"
    },
    {
      "inputs": [
        {
          "internalType": "uint256",
          "name": "_burnFeeBips",
          "type": "uint256"
        }
      ],
      "name": "updateBurnFee",
      "outputs": [],
      "stateMutability": "nonpayable",
      "type": "function"
    },
    {
      "inputs": [
        {
          "internalType": "bool",
          "name": "newValue",
          "type": "bool"
        }
      ],
      "name": "updateDepositsEnabled",
      "outputs": [],
      "stateMutability": "nonpayable",
      "type": "function"
    },
    {
      "inputs": [
        {
          "internalType": "address",
          "name": "newValue",
          "type": "address"
        }
      ],
      "name": "updateDevAddr",
      "outputs": [],
      "stateMutability": "nonpayable",
      "type": "function"
    },
    {
      "inputs": [
        {
          "internalType": "uint256",
          "name": "newValue",
          "type": "uint256"
        }
      ],
      "name": "updateDevFee",
      "outputs": [],
      "stateMutability": "nonpayable",
      "type": "function"
    },
    {
      "inputs": [
        {
          "internalType": "uint256",
          "name": "newValue",
          "type": "uint256"
        }
      ],
      "name": "updateMaxTokensToDepositWithoutReinvest",
      "outputs": [],
      "stateMutability": "nonpayable",
      "type": "function"
    },
    {
      "inputs": [
        {
          "internalType": "uint256",
          "name": "newValue",
          "type": "uint256"
        }
      ],
      "name": "updateMinTokensToReinvest",
      "outputs": [],
      "stateMutability": "nonpayable",
      "type": "function"
    },
    {
      "inputs": [
        {
          "internalType": "uint256",
          "name": "newValue",
          "type": "uint256"
        }
      ],
      "name": "updateReinvestReward",
      "outputs": [],
      "stateMutability": "nonpayable",
      "type": "function"
    },
    {
      "inputs": [
        {
          "internalType": "uint256",
          "name": "amount",
          "type": "uint256"
        }
      ],
      "name": "withdraw",
      "outputs": [],
      "stateMutability": "nonpayable",
      "type": "function"
    }
  ],
  "transactionHash": "0x4e6d595eb991ca953bec47dd35f060d517e724d1af5002030547d2c28016b195",
  "args": [
    "Yield Yak: PGL AVAX-SPORE",
    "0x0a63179a8838b5729e79d239940d7e29e40a0116",
    "0x60781C2586D68229fde47564546784ab3fACA982",
    "0xd3e5538A049FcFcb8dF559B85B352302fEfB8d7C",
    "0xad24a72ffe0466399e6f69b9332022a71408f10b",
    "0xd7538cabbf8605bde1f4901b47b8d42c61de0367",
    "0x6e7f5c0b9f4432716bdd0a77a3601291b9d9e985",
    "0x8d36C5c6947ADCcd25Ef49Ea1aAC2ceACFff0bD7",
    "100000000000000",
    0,
    400,
    600,
    600
  ],
  "solcInputHash": "83b595546458963db2ac919f06bd428d",
  "bytecode": "0x60c060405260096080819052685969656c642059616b60b81b60a09081526200002c91600091906200131f565b506040805180820190915260038082526216549560ea1b602090920191825262000059916001916200131f565b503480156200006757600080fd5b5060405162005aec38038062005aec83398181016040526101a08110156200008e57600080fd5b8101908080516040519392919084640100000000821115620000af57600080fd5b908301906020820185811115620000c557600080fd5b8251640100000000811182820188101715620000e057600080fd5b82525081516020918201929091019080838360005b838110156200010f578181015183820152602001620000f5565b50505050905090810190601f1680156200013d5780820380516001836020036101000a031916815260200191505b5060409081526020820151908201516060830151608084015160a085015160c086015160e08701516101008801516101208901516101408a01516101608b0151610180909b0151999c50979a509598949793969295919490939192916000620001a562000322565b600680546001600160a01b0319166001600160a01b0383169081179091556040519192509060009060008051602062005a33833981519152908290a3508c60009080519060200190620001fa9291906200131f565b50600a80546001600160a01b03808f166001600160a01b031992831617909255600b80548e8416908316179055601380548d8416908316179055600c805482163317905560188054928a16929091169190911790556200025c89898d62000326565b6200026662000c44565b620002718562000d37565b6200027c8462000de1565b620002878362000ed1565b620002928262000fad565b6200029e600162001089565b620002a9816200114f565b620002b486620011b4565b6040805160008152602081019182905251620002d3916016916200131f565b50604080516000808252602082015281517fc7606d21ac05cd309191543e409f0845c016120563783d70e4f41419dc0ef234929181900390910190a150505050505050505050505050620013bb565b3390565b600a60009054906101000a90046001600160a01b03166001600160a01b0316630dfe16816040518163ffffffff1660e01b815260040160206040518083038186803b1580156200037557600080fd5b505afa1580156200038a573d6000803e3d6000fd5b505050506040513d6020811015620003a157600080fd5b50516001600160a01b03828116911614801590620004475750600a60009054906101000a90046001600160a01b03166001600160a01b031663d21220a76040518163ffffffff1660e01b815260040160206040518083038186803b1580156200040957600080fd5b505afa1580156200041e573d6000803e3d6000fd5b505050506040513d60208110156200043557600080fd5b50516001600160a01b03828116911614155b1562000ad2576001600160a01b038316620004945760405162461bcd60e51b8152600401808060200182810382526029815260200180620059ea6029913960400191505060405180910390fd5b6001600160a01b038216620004db5760405162461bcd60e51b815260040180806020018281038252602981526020018062005a8b6029913960400191505060405180910390fd5b601480546001600160a01b038086166001600160a01b031992831617928390556015805486831693169290921790915560408051630dfe168160e01b815290518483169390921691630dfe168191600480820192602092909190829003018186803b1580156200054a57600080fd5b505afa1580156200055f573d6000803e3d6000fd5b505050506040513d60208110156200057657600080fd5b50516001600160a01b031614806200060957506014546040805163d21220a760e01b815290516001600160a01b0380851693169163d21220a7916004808301926020929190829003018186803b158015620005d057600080fd5b505afa158015620005e5573d6000803e3d6000fd5b505050506040513d6020811015620005fc57600080fd5b50516001600160a01b0316145b620006465760405162461bcd60e51b8152600401808060200182810382526045815260200180620059a56045913960600191505060405180910390fd5b600a60009054906101000a90046001600160a01b03166001600160a01b0316630dfe16816040518163ffffffff1660e01b815260040160206040518083038186803b1580156200069557600080fd5b505afa158015620006aa573d6000803e3d6000fd5b505050506040513d6020811015620006c157600080fd5b505160145460408051630dfe168160e01b815290516001600160a01b039384169390921691630dfe168191600480820192602092909190829003018186803b1580156200070d57600080fd5b505afa15801562000722573d6000803e3d6000fd5b505050506040513d60208110156200073957600080fd5b50516001600160a01b031614806200084c5750600a60009054906101000a90046001600160a01b03166001600160a01b0316630dfe16816040518163ffffffff1660e01b815260040160206040518083038186803b1580156200079b57600080fd5b505afa158015620007b0573d6000803e3d6000fd5b505050506040513d6020811015620007c757600080fd5b50516014546040805163d21220a760e01b815290516001600160a01b03938416939092169163d21220a791600480820192602092909190829003018186803b1580156200081357600080fd5b505afa15801562000828573d6000803e3d6000fd5b505050506040513d60208110156200083f57600080fd5b50516001600160a01b0316145b620008895760405162461bcd60e51b815260040180806020018281038252603881526020018062005a536038913960400191505060405180910390fd5b600a60009054906101000a90046001600160a01b03166001600160a01b031663d21220a76040518163ffffffff1660e01b815260040160206040518083038186803b158015620008d857600080fd5b505afa158015620008ed573d6000803e3d6000fd5b505050506040513d60208110156200090457600080fd5b505160155460408051630dfe168160e01b815290516001600160a01b039384169390921691630dfe168191600480820192602092909190829003018186803b1580156200095057600080fd5b505afa15801562000965573d6000803e3d6000fd5b505050506040513d60208110156200097c57600080fd5b50516001600160a01b0316148062000a8f5750600a60009054906101000a90046001600160a01b03166001600160a01b031663d21220a76040518163ffffffff1660e01b815260040160206040518083038186803b158015620009de57600080fd5b505afa158015620009f3573d6000803e3d6000fd5b505050506040513d602081101562000a0a57600080fd5b50516015546040805163d21220a760e01b815290516001600160a01b03938416939092169163d21220a791600480820192602092909190829003018186803b15801562000a5657600080fd5b505afa15801562000a6b573d6000803e3d6000fd5b505050506040513d602081101562000a8257600080fd5b50516001600160a01b0316145b62000acc5760405162461bcd60e51b815260040180806020018281038252603881526020018062005ab46038913960400191505060405180910390fd5b62000c3f565b600a60009054906101000a90046001600160a01b03166001600160a01b0316630dfe16816040518163ffffffff1660e01b815260040160206040518083038186803b15801562000b2157600080fd5b505afa15801562000b36573d6000803e3d6000fd5b505050506040513d602081101562000b4d57600080fd5b50516001600160a01b038281169116141562000b8b57600a54601580546001600160a01b0319166001600160a01b0390921691909117905562000c3f565b600a60009054906101000a90046001600160a01b03166001600160a01b031663d21220a76040518163ffffffff1660e01b815260040160206040518083038186803b15801562000bda57600080fd5b505afa15801562000bef573d6000803e3d6000fd5b505050506040513d602081101562000c0657600080fd5b50516001600160a01b038281169116141562000c3f57600a54601480546001600160a01b0319166001600160a01b039092169190911790555b505050565b62000c4e62000322565b6001600160a01b031662000c61620012ae565b6001600160a01b03161462000cac576040805162461bcd60e51b8152602060048201819052602482015260008051602062005a13833981519152604482015290519081900360640190fd5b600a546013546040805163095ea7b360e01b81526001600160a01b03928316600482015260001960248201529051919092169163095ea7b39160448083019260209291908290030181600087803b15801562000d0757600080fd5b505af115801562000d1c573d6000803e3d6000fd5b505050506040513d602081101562000d3357600080fd5b5050565b62000d4162000322565b6001600160a01b031662000d54620012ae565b6001600160a01b03161462000d9f576040805162461bcd60e51b8152602060048201819052602482015260008051602062005a13833981519152604482015290519081900360640190fd5b600d54604080519182526020820183905280517f481f79ac3a523b6d6db3c5a720e190e986d1cc1b41adcdf50f9caef8499011009281900390910190a1600d55565b62000deb62000322565b6001600160a01b031662000dfe620012ae565b6001600160a01b03161462000e49576040805162461bcd60e51b8152602060048201819052602482015260008051602062005a13833981519152604482015290519081900360640190fd5b61271062000e8360105462000e6f60125485620012bd60201b620024791790919060201c565b620012bd60201b620024791790919060201c565b111562000e8f57600080fd5b601154604080519182526020820183905280517f3cc372f330f95ac9540626dc8a25f5bf21ba607215a5d58304cb804d446f104a9281900390910190a1601155565b62000edb62000322565b6001600160a01b031662000eee620012ae565b6001600160a01b03161462000f39576040805162461bcd60e51b8152602060048201819052602482015260008051602062005a13833981519152604482015290519081900360640190fd5b61271062000f5f60105462000e6f60115485620012bd60201b620024791790919060201c565b111562000f6b57600080fd5b601254604080519182526020820183905280517f2a42303d002f0ba6cfe8259c91d4684443fb0b3de286ba74991175d6517261319281900390910190a1601255565b62000fb762000322565b6001600160a01b031662000fca620012ae565b6001600160a01b03161462001015576040805162461bcd60e51b8152602060048201819052602482015260008051602062005a13833981519152604482015290519081900360640190fd5b6127106200103b60125462000e6f60115485620012bd60201b620024791790919060201c565b11156200104757600080fd5b601054604080519182526020820183905280517fe7f97d51d307dc44045597c9978bec0f842e6bb40d19b9444084cfa30d9ed4f29281900390910190a1601055565b6200109362000322565b6001600160a01b0316620010a6620012ae565b6001600160a01b031614620010f1576040805162461bcd60e51b8152602060048201819052602482015260008051602062005a13833981519152604482015290519081900360640190fd5b600f5460ff16151581151514156200110857600080fd5b600f805482151560ff19909116811790915560408051918252517f7b014ed3854e7f5cb0218d58b3c6ae7d53a68bb0af2f67bfb029ea42c38a7e859181900360200190a150565b600c546001600160a01b03163314620011af576040805162461bcd60e51b815260206004820152601460248201527f59616b53747261746567793a3a6f6e6c79446576000000000000000000000000604482015290519081900360640190fd5b601755565b620011be62000322565b6001600160a01b0316620011d1620012ae565b6001600160a01b0316146200121c576040805162461bcd60e51b8152602060048201819052602482015260008051602062005a13833981519152604482015290519081900360640190fd5b6001600160a01b038116620012635760405162461bcd60e51b81526004018080602001828103825260268152602001806200597f6026913960400191505060405180910390fd5b6006546040516001600160a01b0380841692169060008051602062005a3383398151915290600090a3600680546001600160a01b0319166001600160a01b0392909216919091179055565b6006546001600160a01b031690565b60008282018381101562001318576040805162461bcd60e51b815260206004820152601b60248201527f536166654d6174683a206164646974696f6e206f766572666c6f770000000000604482015290519081900360640190fd5b9392505050565b828054600181600116156101000203166002900490600052602060002090601f016020900481019282601f106200136257805160ff191683800117855562001392565b8280016001018555821562001392579182015b828111156200139257825182559160200191906001019062001375565b50620013a0929150620013a4565b5090565b5b80821115620013a05760008155600101620013a5565b6145b480620013cb6000396000f3fe608060405234801561001057600080fd5b50600436106103a45760003560e01c80638da5cb5b116101e9578063c89039c51161010f578063dd8ce4d6116100ad578063ee99205c1161007c578063ee99205c1461098a578063f2fde38b14610992578063f7c618c1146109b8578063fdb5a03e146109c0576103a4565b8063dd8ce4d61461092b578063e21ac82514610948578063eab89a5a14610965578063ed24911d14610982576103a4565b8063d73c567f116100e9578063d73c567f146108e5578063da09c72c146108ed578063dbd9a4d4146108f5578063dd62ed3e146108fd576103a4565b8063c89039c51461086f578063cff1b6ef14610877578063d505accf14610894576103a4565b8063a9059cbb11610187578063b9e57b8011610156578063b9e57b801461084f578063bc6a9e0114610857578063bd079f551461085f578063c4b24a4614610867576103a4565b8063a9059cbb146107d9578063ac0d31ff14610805578063b52a321f1461082a578063b6b55f2514610832576103a4565b806399729ec1116101c357806399729ec11461078f5780639e4e7318146107ac578063a5de848a146107b4578063a8ae2b7c146107bc576103a4565b80638da5cb5b146107595780639291d5631461076157806395d89b4114610787576103a4565b80634bebd1e7116102ce578063789139bc1161026c578063818372301161023b57806381837230146106e25780638980f11f146106ff5780638aff733d1461072b5780638b73e60614610733576103a4565b8063789139bc1461067e5780637ae26773146106865780637d882097146106b45780637ecebe00146106bc576103a4565b80635ea682ea116102a85780635ea682ea1461062b57806370a0823114610633578063715018a61461065957806371e3675314610661576103a4565b80634bebd1e7146105c95780634e77ace5146105ef5780634ebb79161461060e576103a4565b806323b872dd11610346578063313ce56711610315578063313ce567146105455780633bdc6e7214610563578063483c2ef01461056b5780634a970be714610591576103a4565b806323b872dd146104bc5780632e1a7d4d146104f25780632f4f21e21461051157806330adf81f1461053d576103a4565b80630f23475d116103825780630f23475d1461048057806318160ddd146104885780631b536e161461049057806320606b70146104b4576103a4565b806306fdde03146103a95780630767711114610426578063095ea7b314610440575b600080fd5b6103b16109c8565b6040805160208082528351818301528351919283929083019185019080838360005b838110156103eb5781810151838201526020016103d3565b50505050905090810190601f1680156104185780820380516001836020036101000a031916815260200191505b509250505060405180910390f35b61042e610a56565b60408051918252519081900360200190f35b61046c6004803603604081101561045657600080fd5b506001600160a01b038135169060200135610a5c565b604080519115158252519081900360200190f35b61042e610a73565b61042e610af0565b610498610af6565b604080516001600160a01b039092168252519081900360200190f35b61042e610b05565b61046c600480360360608110156104d257600080fd5b506001600160a01b03813581169160208101359091169060400135610b29565b61050f6004803603602081101561050857600080fd5b5035610c0b565b005b61050f6004803603604081101561052757600080fd5b506001600160a01b038135169060200135610d4d565b61042e610d57565b61054d610d7b565b6040805160ff9092168252519081900360200190f35b61042e610d80565b61046c6004803603602081101561058157600080fd5b50356001600160a01b0316610d86565b61050f600480360360a08110156105a757600080fd5b5080359060208101359060ff6040820135169060608101359060800135610d9b565b61050f600480360360208110156105df57600080fd5b50356001600160a01b0316610e54565b61050f6004803603602081101561060557600080fd5b50351515610f90565b61050f6004803603602081101561062457600080fd5b503561104f565b61042e61112b565b61042e6004803603602081101561064957600080fd5b50356001600160a01b0316611131565b61050f611150565b61050f6004803603602081101561067757600080fd5b5035611209565b61042e61126d565b61050f6004803603604081101561069c57600080fd5b506001600160a01b0381358116916020013516611273565b61042e611362565b61042e600480360360208110156106d257600080fd5b50356001600160a01b0316611368565b61050f600480360360208110156106f857600080fd5b503561137a565b61050f6004803603604081101561071557600080fd5b506001600160a01b03813516906020013561141e565b61042e611559565b61050f6004803603602081101561074957600080fd5b50356001600160a01b031661155f565b6104986116c6565b61050f6004803603602081101561077757600080fd5b50356001600160a01b03166116d5565b6103b16117ab565b61050f600480360360208110156107a557600080fd5b5035611805565b61042e6118d8565b6104986118fc565b61050f600480360360208110156107d257600080fd5b503561190b565b61046c600480360360408110156107ef57600080fd5b506001600160a01b0381351690602001356119d8565b61050f6004803603604081101561081b57600080fd5b508035906020013515156119e5565b61046c611c6c565b61050f6004803603602081101561084857600080fd5b5035611c75565b61042e611c82565b610498611cc9565b61042e611cd8565b61042e611cde565b610498611d40565b61050f6004803603602081101561088d57600080fd5b5035611d4f565b61050f600480360360e08110156108aa57600080fd5b506001600160a01b03813581169160208101359091169060408101359060608101359060ff6080820135169060a08101359060c00135611e1c565b61042e611f1c565b610498611f22565b61050f611f31565b61042e6004803603604081101561091357600080fd5b506001600160a01b0381358116916020013516612030565b61042e6004803603602081101561094157600080fd5b503561205b565b61050f6004803603602081101561095e57600080fd5b503561209a565b61042e6004803603602081101561097b57600080fd5b503561213e565b61042e61217e565b61049861228b565b61050f600480360360208110156109a857600080fd5b50356001600160a01b031661229a565b6104986123aa565b61050f6123b9565b6000805460408051602060026001851615610100026000190190941693909304601f81018490048402820184019092528181529291830182828015610a4e5780601f10610a2357610100808354040283529160200191610a4e565b820191906000526020600020905b815481529060010190602001808311610a3157829003601f168201915b505050505081565b60115481565b6000610a693384846124da565b5060015b92915050565b601354604080516370a0823160e01b815230600482015290516000926001600160a01b0316916370a08231916024808301926020929190829003018186803b158015610abe57600080fd5b505afa158015610ad2573d6000803e3d6000fd5b505050506040513d6020811015610ae857600080fd5b505190505b90565b60025481565b6015546001600160a01b031681565b7f8b73c3c69bb8fe3d512ecc4cf759cc79239f7b179b0ffacaa9a75d522b39400f81565b6001600160a01b038316600081815260036020908152604080832033808552925282205491929091908214801590610b6357506000198114155b15610bf4576000610b8f856040518060600160405280602f81526020016144d7602f91398491906125f2565b6001600160a01b0380891660008181526003602090815260408083209489168084529482529182902085905581518581529151949550929391927f8c5be1e5ebec7d5bd14f71427d1e84f3dd0314c0f7b2291e5b200ac8c7c3b92592918290030190a3505b610bff868686612689565b50600195945050505050565b6000610c168261213e565b90508015610d4957610c2781612796565b600a546040805163a9059cbb60e01b81523360048201526024810184905290516001600160a01b039092169163a9059cbb916044808201926020929091908290030181600087803b158015610c7b57600080fd5b505af1158015610c8f573d6000803e3d6000fd5b505050506040513d6020811015610ca557600080fd5b5051610cf8576040805162461bcd60e51b815260206004820152601760248201527f446578537472617465677956353a3a7769746864726177000000000000000000604482015290519081900360640190fd5b610d02338361284f565b600954610d0f9082612924565b60095560408051828152905133917f884edad9ce6fa2440d8a54cc123490eb96d2768479d49ff9c7366125a9424364919081900360200190a25b5050565b610d498282612966565b7f6e71edae12b1b97f4d1f60370fef10105fa2faae0126114a169c64845d6126c981565b601281565b60075481565b60086020526000908152604090205460ff1681565b600a54604080517fd505accf000000000000000000000000000000000000000000000000000000008152336004820152306024820152604481018890526064810187905260ff8616608482015260a4810185905260c4810184905290516001600160a01b039092169163d505accf9160e48082019260009290919082900301818387803b158015610e2b57600080fd5b505af1158015610e3f573d6000803e3d6000fd5b50505050610e4d3386612966565b5050505050565b610e5c612b5c565b6001600160a01b0316610e6d6116c6565b6001600160a01b031614610eb6576040805162461bcd60e51b8152602060048201819052602482015260008051602061441a833981519152604482015290519081900360640190fd5b6001600160a01b03811660009081526008602052604090205460ff1615610f24576040805162461bcd60e51b815260206004820152601c60248201527f5065726d697373696f6e65643a3a616c6c6f774465706f7369746f7200000000604482015290519081900360640190fd5b6001600160a01b0381166000908152600860205260409020805460ff19166001908117909155600754610f5691612479565b6007556040516001600160a01b038216907fc0a1035c16faf8d1304056d92c00edf028f87e62b8235a938f00af9e3c0312c590600090a250565b610f98612b5c565b6001600160a01b0316610fa96116c6565b6001600160a01b031614610ff2576040805162461bcd60e51b8152602060048201819052602482015260008051602061441a833981519152604482015290519081900360640190fd5b600f5460ff161515811515141561100857600080fd5b600f805482151560ff19909116811790915560408051918252517f7b014ed3854e7f5cb0218d58b3c6ae7d53a68bb0af2f67bfb029ea42c38a7e859181900360200190a150565b611057612b5c565b6001600160a01b03166110686116c6565b6001600160a01b0316146110b1576040805162461bcd60e51b8152602060048201819052602482015260008051602061441a833981519152604482015290519081900360640190fd5b600081116110be57600080fd5b604051339082156108fc029083906000818181858888f193505050501580156110eb573d6000803e3d6000fd5b5060408051600081526020810183905281517f8c1256b8896378cd5044f80c202f9772b9d77dc85c8a6eb51967210b09bfaa28929181900390910190a150565b60125481565b6001600160a01b0381166000908152600460205260409020545b919050565b611158612b5c565b6001600160a01b03166111696116c6565b6001600160a01b0316146111b2576040805162461bcd60e51b8152602060048201819052602482015260008051602061441a833981519152604482015290519081900360640190fd5b6006546040516000916001600160a01b0316907f8be0079c531659141344cd1fd0a4f28419497f9722a3daafe3b4186f6b6457e0908390a36006805473ffffffffffffffffffffffffffffffffffffffff19169055565b600c546001600160a01b03163314611268576040805162461bcd60e51b815260206004820152601460248201527f59616b53747261746567793a3a6f6e6c79446576000000000000000000000000604482015290519081900360640190fd5b601755565b600e5481565b61127b612b5c565b6001600160a01b031661128c6116c6565b6001600160a01b0316146112d5576040805162461bcd60e51b8152602060048201819052602482015260008051602061441a833981519152604482015290519081900360640190fd5b816001600160a01b031663095ea7b38260006040518363ffffffff1660e01b815260040180836001600160a01b0316815260200182815260200192505050602060405180830381600087803b15801561132d57600080fd5b505af1158015611341573d6000803e3d6000fd5b505050506040513d602081101561135757600080fd5b5051610d4957600080fd5b60095481565b60056020526000908152604090205481565b611382612b5c565b6001600160a01b03166113936116c6565b6001600160a01b0316146113dc576040805162461bcd60e51b8152602060048201819052602482015260008051602061441a833981519152604482015290519081900360640190fd5b600d54604080519182526020820183905280517f481f79ac3a523b6d6db3c5a720e190e986d1cc1b41adcdf50f9caef8499011009281900390910190a1600d55565b611426612b5c565b6001600160a01b03166114376116c6565b6001600160a01b031614611480576040805162461bcd60e51b8152602060048201819052602482015260008051602061441a833981519152604482015290519081900360640190fd5b6000811161148d57600080fd5b6040805163a9059cbb60e01b81523360048201526024810183905290516001600160a01b0384169163a9059cbb9160448083019260209291908290030181600087803b1580156114dc57600080fd5b505af11580156114f0573d6000803e3d6000fd5b505050506040513d602081101561150657600080fd5b505161151157600080fd5b604080516001600160a01b03841681526020810183905281517f8c1256b8896378cd5044f80c202f9772b9d77dc85c8a6eb51967210b09bfaa28929181900390910190a15050565b60105481565b611567612b5c565b6001600160a01b03166115786116c6565b6001600160a01b0316146115c1576040805162461bcd60e51b8152602060048201819052602482015260008051602061441a833981519152604482015290519081900360640190fd5b6000600754116116025760405162461bcd60e51b81526004018080602001828103825260348152602001806143506034913960400191505060405180910390fd5b6001600160a01b03811660009081526008602052604090205460ff16151560011461165e5760405162461bcd60e51b815260040180806020018281038252602a8152602001806143a8602a913960400191505060405180910390fd5b6001600160a01b0381166000908152600860205260409020805460ff1916905560075461168c906001612924565b6007556040516001600160a01b038216907f0e86f6608b536e5339a25b65ff531f5ea91e1313d056ecd4752b35cbd16137d490600090a250565b6006546001600160a01b031690565b600c546001600160a01b03163314611734576040805162461bcd60e51b815260206004820152601460248201527f59616b53747261746567793a3a6f6e6c79446576000000000000000000000000604482015290519081900360640190fd5b600c54604080516001600160a01b039283168152918316602083015280517fa8e91499ed37682f43cffb045fcc7d379a91e8c9a14e6321877ee34dee564c009281900390910190a1600c805473ffffffffffffffffffffffffffffffffffffffff19166001600160a01b0392909216919091179055565b60018054604080516020600284861615610100026000190190941693909304601f81018490048402820184019092528181529291830182828015610a4e5780601f10610a2357610100808354040283529160200191610a4e565b61180d612b5c565b6001600160a01b031661181e6116c6565b6001600160a01b031614611867576040805162461bcd60e51b8152602060048201819052602482015260008051602061441a833981519152604482015290519081900360640190fd5b61271061188b6010546118856011548561247990919063ffffffff16565b90612479565b111561189657600080fd5b601254604080519182526020820183905280517f2a42303d002f0ba6cfe8259c91d4684443fb0b3de286ba74991175d6517261319281900390910190a1601255565b7fc89efdaa54c0f20c7adf612882df0950f5a951637e0307cdcb4c672f298b8bc681565b6014546001600160a01b031681565b611913612b5c565b6001600160a01b03166119246116c6565b6001600160a01b03161461196d576040805162461bcd60e51b8152602060048201819052602482015260008051602061441a833981519152604482015290519081900360640190fd5b61271061198b6012546118856011548561247990919063ffffffff16565b111561199657600080fd5b601054604080519182526020820183905280517fe7f97d51d307dc44045597c9978bec0f842e6bb40d19b9444084cfa30d9ed4f29281900390910190a1601055565b6000610a69338484612689565b6119ed612b5c565b6001600160a01b03166119fe6116c6565b6001600160a01b031614611a47576040805162461bcd60e51b8152602060048201819052602482015260008051602061441a833981519152604482015290519081900360640190fd5b600a54604080516370a0823160e01b815230600482015290516000926001600160a01b0316916370a08231916024808301926020929190829003018186803b158015611a9257600080fd5b505afa158015611aa6573d6000803e3d6000fd5b505050506040513d6020811015611abc57600080fd5b5051601354604080517fe9fad8ee00000000000000000000000000000000000000000000000000000000815290519293506001600160a01b039091169163e9fad8ee9160048082019260009290919082900301818387803b158015611b2057600080fd5b505af1158015611b34573d6000803e3d6000fd5b5050600a54604080516370a0823160e01b81523060048201529051600094506001600160a01b0390921692506370a08231916024808301926020929190829003018186803b158015611b8557600080fd5b505afa158015611b99573d6000803e3d6000fd5b505050506040513d6020811015611baf57600080fd5b5051905083611bbe8284612924565b1015611bfb5760405162461bcd60e51b81526004018080602001828103825260228152602001806144b56022913960400191505060405180910390fd5b600981905560025460408051838152602081019290925280517fc7606d21ac05cd309191543e409f0845c016120563783d70e4f41419dc0ef2349281900390910190a1600f5460ff1615156001148015611c5757506001831515145b15611c6657611c666000610f90565b50505050565b600f5460ff1681565b611c7f3382612966565b50565b600080611c8d611cde565b9050600d548110611cc157611cb9612710611cb360105484612b6090919063ffffffff16565b90612bb9565b915050610aed565b600091505090565b6018546001600160a01b031681565b600d5481565b601354604080517e8cc26200000000000000000000000000000000000000000000000000000000815230600482015290516000926001600160a01b031691628cc262916024808301926020929190829003018186803b158015610abe57600080fd5b600a546001600160a01b031681565b611d57612b5c565b6001600160a01b0316611d686116c6565b6001600160a01b031614611db1576040805162461bcd60e51b8152602060048201819052602482015260008051602061441a833981519152604482015290519081900360640190fd5b612710611dcf6010546118856012548561247990919063ffffffff16565b1115611dda57600080fd5b601154604080519182526020820183905280517f3cc372f330f95ac9540626dc8a25f5bf21ba607215a5d58304cb804d446f104a9281900390910190a1601155565b42841015611e71576040805162461bcd60e51b815260206004820152600f60248201527f7065726d69743a3a657870697265640000000000000000000000000000000000604482015290519081900360640190fd5b6001600160a01b0380881660008181526005602090815260409182902080546001810190915582517f6e71edae12b1b97f4d1f60370fef10105fa2faae0126114a169c64845d6126c98184015280840194909452938a1660608401526080830189905260a083019390935260c08083018890528151808403909101815260e090920190528051910120611f078882868686612bfb565b611f128888886124da565b5050505050505050565b60175481565b600c546001600160a01b031681565b611f39612b5c565b6001600160a01b0316611f4a6116c6565b6001600160a01b031614611f93576040805162461bcd60e51b8152602060048201819052602482015260008051602061441a833981519152604482015290519081900360640190fd5b600a54601354604080517f095ea7b30000000000000000000000000000000000000000000000000000000081526001600160a01b03928316600482015260001960248201529051919092169163095ea7b39160448083019260209291908290030181600087803b15801561200657600080fd5b505af115801561201a573d6000803e3d6000fd5b505050506040513d6020811015610d4957600080fd5b6001600160a01b03918216600090815260036020908152604080832093909416825291909152205490565b6000612074600954600254612b6090919063ffffffff16565b61207f57508061114b565b610a6d600954611cb360025485612b6090919063ffffffff16565b6120a2612b5c565b6001600160a01b03166120b36116c6565b6001600160a01b0316146120fc576040805162461bcd60e51b8152602060048201819052602482015260008051602061441a833981519152604482015290519081900360640190fd5b600e54604080519182526020820183905280517fa5dae50539d56dfe1fb5273d883b0c39bc76750a25d036fc5fbd09ad8fd5f57f9281900390910190a1600e55565b6000612157600954600254612b6090919063ffffffff16565b6121635750600061114b565b610a6d600254611cb360095485612b6090919063ffffffff16565b60007f8b73c3c69bb8fe3d512ecc4cf759cc79239f7b179b0ffacaa9a75d522b39400f60001b600060405180828054600181600116156101000203166002900480156122015780601f106121df576101008083540402835291820191612201565b820191906000526020600020905b8154815290600101906020018083116121ed575b505091505060405180910390207fc89efdaa54c0f20c7adf612882df0950f5a951637e0307cdcb4c672f298b8bc660001b61223a612d33565b3060405160200180868152602001858152602001848152602001838152602001826001600160a01b031681526020019550505050505060405160208183030381529060405280519060200120905090565b6013546001600160a01b031681565b6122a2612b5c565b6001600160a01b03166122b36116c6565b6001600160a01b0316146122fc576040805162461bcd60e51b8152602060048201819052602482015260008051602061441a833981519152604482015290519081900360640190fd5b6001600160a01b0381166123415760405162461bcd60e51b81526004018080602001828103825260268152602001806142fc6026913960400191505060405180910390fd5b6006546040516001600160a01b038084169216907f8be0079c531659141344cd1fd0a4f28419497f9722a3daafe3b4186f6b6457e090600090a36006805473ffffffffffffffffffffffffffffffffffffffff19166001600160a01b0392909216919091179055565b600b546001600160a01b031681565b32331461240d576040805162461bcd60e51b815260206004820152601460248201527f59616b53747261746567793a3a6f6e6c79454f41000000000000000000000000604482015290519081900360640190fd5b6000612417611cde565b9050600d54811015612470576040805162461bcd60e51b815260206004820152601760248201527f446578537472617465677956353a3a7265696e76657374000000000000000000604482015290519081900360640190fd5b611c7f81612d37565b6000828201838110156124d3576040805162461bcd60e51b815260206004820152601b60248201527f536166654d6174683a206164646974696f6e206f766572666c6f770000000000604482015290519081900360640190fd5b9392505050565b6001600160a01b038316612535576040805162461bcd60e51b815260206004820152601c60248201527f5f617070726f76653a3a6f776e6572207a65726f206164647265737300000000604482015290519081900360640190fd5b6001600160a01b038216612590576040805162461bcd60e51b815260206004820152601e60248201527f5f617070726f76653a3a7370656e646572207a65726f20616464726573730000604482015290519081900360640190fd5b6001600160a01b03808416600081815260036020908152604080832094871680845294825291829020859055815185815291517f8c5be1e5ebec7d5bd14f71427d1e84f3dd0314c0f7b2291e5b200ac8c7c3b9259281900390910190a3505050565b600081848411156126815760405162461bcd60e51b81526004018080602001828103825283818151815260200191508051906020019080838360005b8381101561264657818101518382015260200161262e565b50505050905090810190601f1680156126735780820380516001836020036101000a031916815260200191505b509250505060405180910390fd5b505050900390565b6001600160a01b0382166126ce5760405162461bcd60e51b815260040180806020018281038252603481526020018061445f6034913960400191505060405180910390fd5b61270b816040518060600160405280602e8152602001614551602e91396001600160a01b03861660009081526004602052604090205491906125f2565b6001600160a01b03808516600090815260046020526040808220939093559084168152205461273a9082612479565b6001600160a01b0380841660008181526004602090815260409182902094909455805185815290519193928716927fddf252ad1be2c89b69c2b068fc378daa952ba7f163c4a11628f55a4df523b3ef92918290030190a3505050565b600081116127d55760405162461bcd60e51b815260040180806020018281038252602581526020018061443a6025913960400191505060405180910390fd5b601354604080517f2e1a7d4d0000000000000000000000000000000000000000000000000000000081526004810184905290516001600160a01b0390921691632e1a7d4d9160248082019260009290919082900301818387803b15801561283b57600080fd5b505af1158015610e4d573d6000803e3d6000fd5b61288c81604051806060016040528060278152602001614506602791396001600160a01b03851660009081526004602052604090205491906125f2565b60046000846001600160a01b03166001600160a01b03168152602001908152602001600020819055506128dc816040518060600160405280602781526020016143d26027913960025491906125f2565b6002556040805182815290516000916001600160a01b038516917fddf252ad1be2c89b69c2b068fc378daa952ba7f163c4a11628f55a4df523b3ef9181900360200190a35050565b60006124d383836040518060400160405280601f81526020017f536166654d6174683a207375627472616374696f6e20756e646572666c6f77008152506125f2565b600754156129c1573360009081526008602052604090205460ff1615156001146129c15760405162461bcd60e51b815260040180806020018281038252602e815260200180614322602e913960400191505060405180910390fd5b600f5460ff161515600114612a1d576040805162461bcd60e51b815260206004820152601760248201527f446578537472617465677956353a3a5f6465706f736974000000000000000000604482015290519081900360640190fd5b600e5415612a46576000612a2f611cde565b9050600e54811115612a4457612a4481612d37565b505b600a54604080517f23b872dd0000000000000000000000000000000000000000000000000000000081523360048201523060248201526044810184905290516001600160a01b03909216916323b872dd916064808201926020929091908290030181600087803b158015612ab957600080fd5b505af1158015612acd573d6000803e3d6000fd5b505050506040513d6020811015612ae357600080fd5b5051612aee57600080fd5b612af781613114565b612b0982612b048361205b565b6131b9565b600954612b169082612479565b6009556040805182815290516001600160a01b038416917fe1fffcc4923d04b559f4d29a8bfc6cda04eb5b0d3c460751c2402c5c5cc9109c919081900360200190a25050565b3390565b600082612b6f57506000610a6d565b82820282848281612b7c57fe5b04146124d35760405162461bcd60e51b81526004018080602001828103825260218152602001806143f96021913960400191505060405180910390fd5b60006124d383836040518060400160405280601a81526020017f536166654d6174683a206469766973696f6e206279207a65726f000000000000815250613244565b6000612c0561217e565b8560405160200180807f190100000000000000000000000000000000000000000000000000000000000081525060020183815260200182815260200192505050604051602081830303815290604052805190602001209050600060018286868660405160008152602001604052604051808581526020018460ff1681526020018381526020018281526020019450505050506020604051602081039080840390855afa158015612cb9573d6000803e3d6000fd5b5050604051601f1901519150506001600160a01b03811615801590612cef5750866001600160a01b0316816001600160a01b0316145b612d2a5760405162461bcd60e51b81526004018080602001828103825260248152602001806143846024913960400191505060405180910390fd5b50505050505050565b4690565b601360009054906101000a90046001600160a01b03166001600160a01b0316633d18b9126040518163ffffffff1660e01b8152600401600060405180830381600087803b158015612d8757600080fd5b505af1158015612d9b573d6000803e3d6000fd5b505050506000612dbc612710611cb360125485612b6090919063ffffffff16565b90508015612e9a57600b54600c546040805163a9059cbb60e01b81526001600160a01b039283166004820152602481018590529051919092169163a9059cbb9160448083019260209291908290030181600087803b158015612e1d57600080fd5b505af1158015612e31573d6000803e3d6000fd5b505050506040513d6020811015612e4757600080fd5b5051612e9a576040805162461bcd60e51b815260206004820152601d60248201527f446578537472617465677956353a3a5f7265696e766573742c20646576000000604482015290519081900360640190fd5b6000612eb7612710611cb360115486612b6090919063ffffffff16565b90508015612f9c57600b546001600160a01b031663a9059cbb612ed86116c6565b836040518363ffffffff1660e01b815260040180836001600160a01b0316815260200182815260200192505050602060405180830381600087803b158015612f1f57600080fd5b505af1158015612f33573d6000803e3d6000fd5b505050506040513d6020811015612f4957600080fd5b5051612f9c576040805162461bcd60e51b815260206004820152601f60248201527f446578537472617465677956353a3a5f7265696e766573742c2061646d696e00604482015290519081900360640190fd5b6000612fb9612710611cb360105487612b6090919063ffffffff16565b9050801561309257600b546040805163a9059cbb60e01b81523360048201526024810184905290516001600160a01b039092169163a9059cbb916044808201926020929091908290030181600087803b15801561301557600080fd5b505af1158015613029573d6000803e3d6000fd5b505050506040513d602081101561303f57600080fd5b5051613092576040805162461bcd60e51b815260206004820181905260248201527f446578537472617465677956353a3a5f7265696e766573742c20726577617264604482015290519081900360640190fd5b60006130b26130ad836130a786818a8a612924565b90612924565b6132a9565b90506130bd81613114565b6009546130ca9082612479565b600981905560025460408051928352602083019190915280517fc7606d21ac05cd309191543e409f0845c016120563783d70e4f41419dc0ef2349281900390910190a15050505050565b600081116131535760405162461bcd60e51b81526004018080602001828103825260228152602001806144936022913960400191505060405180910390fd5b601354604080517fa694fc3a0000000000000000000000000000000000000000000000000000000081526004810184905290516001600160a01b039092169163a694fc3a9160248082019260009290919082900301818387803b15801561283b57600080fd5b6002546131c69082612479565b6002556001600160a01b0382166000908152600460205260409020546131ec9082612479565b6001600160a01b03831660008181526004602090815260408083209490945583518581529351929391927fddf252ad1be2c89b69c2b068fc378daa952ba7f163c4a11628f55a4df523b3ef9281900390910190a35050565b600081836132935760405162461bcd60e51b815260206004820181815283516024840152835190928392604490910191908501908083836000831561264657818101518382015260200161262e565b50600083858161329f57fe5b0495945050505050565b60008061333a600a60009054906101000a90046001600160a01b03166001600160a01b0316630dfe16816040518163ffffffff1660e01b815260040160206040518083038186803b1580156132fd57600080fd5b505afa158015613311573d6000803e3d6000fd5b505050506040513d602081101561332757600080fd5b50516014546001600160a01b0316613b1b565b905060006133cc600a60009054906101000a90046001600160a01b03166001600160a01b031663d21220a76040518163ffffffff1660e01b815260040160206040518083038186803b15801561338f57600080fd5b505afa1580156133a3573d6000803e3d6000fd5b505050506040513d60208110156133b957600080fd5b50516015546001600160a01b0316613b1b565b601754909150849081906000906133ec9061271090611cb3908590612b60565b600b54600a5460408051630dfe168160e01b815290519394506001600160a01b03928316939190921691630dfe1681916004808301926020929190829003018186803b15801561343b57600080fd5b505afa15801561344f573d6000803e3d6000fd5b505050506040513d602081101561346557600080fd5b50516001600160a01b031614801561347d5750868510155b156134a75761348c8588612924565b94506134988382612479565b92506134a48282612924565b91505b600b54600a546040805163d21220a760e01b815290516001600160a01b03938416939092169163d21220a791600480820192602092909190829003018186803b1580156134f357600080fd5b505afa158015613507573d6000803e3d6000fd5b505050506040513d602081101561351d57600080fd5b50516001600160a01b03161480156135355750868410155b1561355f576135448488612924565b93506135508382612924565b915061355c8282612479565b92505b6135786002611cb36135718888612479565b8690612924565b92506135936002611cb361358c8789612479565b8590612924565b601854600a5460408051630dfe168160e01b815290519395506001600160a01b03928316939190921691630dfe1681916004808301926020929190829003018186803b1580156135e257600080fd5b505afa1580156135f6573d6000803e3d6000fd5b505050506040513d602081101561360c57600080fd5b50516001600160a01b031614613620579091905b600a60009054906101000a90046001600160a01b03166001600160a01b0316630dfe16816040518163ffffffff1660e01b815260040160206040518083038186803b15801561366e57600080fd5b505afa158015613682573d6000803e3d6000fd5b505050506040513d602081101561369857600080fd5b5051600b546001600160a01b0390811691161461373f57600b54600a5460408051630dfe168160e01b8152905161373d9387936001600160a01b0391821693911691630dfe168191600480820192602092909190829003018186803b15801561370057600080fd5b505afa158015613714573d6000803e3d6000fd5b505050506040513d602081101561372a57600080fd5b50516014546001600160a01b0316613cf2565b505b600a60009054906101000a90046001600160a01b03166001600160a01b031663d21220a76040518163ffffffff1660e01b815260040160206040518083038186803b15801561378d57600080fd5b505afa1580156137a1573d6000803e3d6000fd5b505050506040513d60208110156137b757600080fd5b5051600b546001600160a01b0390811691161461385e57600b54600a546040805163d21220a760e01b8152905161385c9386936001600160a01b039182169391169163d21220a791600480820192602092909190829003018186803b15801561381f57600080fd5b505afa158015613833573d6000803e3d6000fd5b505050506040513d602081101561384957600080fd5b50516015546001600160a01b0316613cf2565b505b600a5460408051630dfe168160e01b81529051613b10926001600160a01b031691630dfe1681916004808301926020929190829003018186803b1580156138a457600080fd5b505afa1580156138b8573d6000803e3d6000fd5b505050506040513d60208110156138ce57600080fd5b5051600a546040805163d21220a760e01b815290516001600160a01b039092169163d21220a791600480820192602092909190829003018186803b15801561391557600080fd5b505afa158015613929573d6000803e3d6000fd5b505050506040513d602081101561393f57600080fd5b5051600a5460408051630dfe168160e01b815290516001600160a01b0390921691630dfe168191600480820192602092909190829003018186803b15801561398657600080fd5b505afa15801561399a573d6000803e3d6000fd5b505050506040513d60208110156139b057600080fd5b5051604080516370a0823160e01b815230600482015290516001600160a01b03909216916370a0823191602480820192602092909190829003018186803b1580156139fa57600080fd5b505afa158015613a0e573d6000803e3d6000fd5b505050506040513d6020811015613a2457600080fd5b5051600a546040805163d21220a760e01b815290516001600160a01b039092169163d21220a791600480820192602092909190829003018186803b158015613a6b57600080fd5b505afa158015613a7f573d6000803e3d6000fd5b505050506040513d6020811015613a9557600080fd5b5051604080516370a0823160e01b815230600482015290516001600160a01b03909216916370a0823191602480820192602092909190829003018186803b158015613adf57600080fd5b505afa158015613af3573d6000803e3d6000fd5b505050506040513d6020811015613b0957600080fd5b5051613f79565b979650505050505050565b600b546000906001600160a01b0384811691161415613bad57604080516370a0823160e01b815230600482015290516001600160a01b038516916370a08231916024808301926020929190829003018186803b158015613b7a57600080fd5b505afa158015613b8e573d6000803e3d6000fd5b505050506040513d6020811015613ba457600080fd5b50519050610a6d565b600b54600090613bc6906001600160a01b0316856141a7565b509050600080846001600160a01b0316630902f1ac6040518163ffffffff1660e01b815260040160606040518083038186803b158015613c0557600080fd5b505afa158015613c19573d6000803e3d6000fd5b505050506040513d6060811015613c2f57600080fd5b50805160209091015190925090506001600160a01b0386811690841614613c5257905b613ce8866001600160a01b03166370a08231306040518263ffffffff1660e01b815260040180826001600160a01b0316815260200191505060206040518083038186803b158015613ca257600080fd5b505afa158015613cb6573d6000803e3d6000fd5b505050506040513d6020811015613ccc57600080fd5b50516dffffffffffffffffffffffffffff8085169084166141d8565b9695505050505050565b600080613cff85856141a7565b509050600080846001600160a01b0316630902f1ac6040518163ffffffff1660e01b815260040160606040518083038186803b158015613d3e57600080fd5b505afa158015613d52573d6000803e3d6000fd5b505050506040513d6060811015613d6857600080fd5b50805160209091015190925090506001600160a01b0383811690881614613d8b57905b600080613db98a856dffffffffffffffffffffffffffff16856dffffffffffffffffffffffffffff166141d8565b9050886001600160a01b0316856001600160a01b031614613dd657905b613de189888c614220565b6040517f022c0d9f000000000000000000000000000000000000000000000000000000008152600481018381526024820183905230604483018190526080606484019081526016805460026000196101006001841615020190911604608486018190526001600160a01b038d169563022c0d9f95899589959094939192909160a49091019084908015613eb55780601f10613e8a57610100808354040283529160200191613eb5565b820191906000526020600020905b815481529060010190602001808311613e9857829003601f168201915b505095505050505050600060405180830381600087803b158015613ed857600080fd5b505af1158015613eec573d6000803e3d6000fd5b50506018546001600160a01b038b8116911614159150613f5c905057866001600160a01b031663fff6cae96040518163ffffffff1660e01b8152600401600060405180830381600087803b158015613f4357600080fd5b505af1158015613f57573d6000803e3d6000fd5b505050505b818111613f695781613f6b565b805b9a9950505050505050505050565b6000806000600a60009054906101000a90046001600160a01b03166001600160a01b0316630902f1ac6040518163ffffffff1660e01b815260040160606040518083038186803b158015613fcc57600080fd5b505afa158015613fe0573d6000803e3d6000fd5b505050506040513d6060811015613ff657600080fd5b50805160209091015190925090506000614024866dffffffffffffffffffffffffffff8086169085166142e3565b90508481111561405f5784905061405c85836dffffffffffffffffffffffffffff16856dffffffffffffffffffffffffffff166142e3565b95505b600a546140779089906001600160a01b031688614220565b600a5461408f9088906001600160a01b031683614220565b600a54604080517f6a62784200000000000000000000000000000000000000000000000000000000815230600482015290516000926001600160a01b031691636a62784291602480830192602092919082900301818787803b1580156140f457600080fd5b505af1158015614108573d6000803e3d6000fd5b505050506040513d602081101561411e57600080fd5b5051600a54604080517ffff6cae900000000000000000000000000000000000000000000000000000000815290519293506001600160a01b039091169163fff6cae99160048082019260009290919082900301818387803b15801561418257600080fd5b505af1158015614196573d6000803e3d6000fd5b50929b9a5050505050505050505050565b600080826001600160a01b0316846001600160a01b0316106141ca5782846141cd565b83835b909590945092505050565b6000806141e7856103e5612b60565b905060006141f58285612b60565b9050600061420983611885886103e8612b60565b905080828161421457fe5b04979650505050505050565b826001600160a01b031663a9059cbb83836040518363ffffffff1660e01b815260040180836001600160a01b0316815260200182815260200192505050602060405180830381600087803b15801561427757600080fd5b505af115801561428b573d6000803e3d6000fd5b505050506040513d60208110156142a157600080fd5b50516142de5760405162461bcd60e51b815260040180806020018281038252602481526020018061452d6024913960400191505060405180910390fd5b505050565b60006142f383611cb38685612b60565b94935050505056fe4f776e61626c653a206e6577206f776e657220697320746865207a65726f20616464726573735065726d697373696f6e65643a3a6f6e6c79416c6c6f7765644465706f736974732c206e6f7420616c6c6f7765645065726d697373696f6e65643a3a72656d6f76654465706f7369746f722c206e6f20616c6c6f776564206465706f7369746f7273417263683a3a76616c69646174655369673a20696e76616c6964207369676e61747572655065726d697373696f6e65643a3a72656d6f76654465706f7369746f722c206e6f7420616c6c6f7765645f6275726e3a206275726e20616d6f756e74206578636565647320746f74616c20737570706c79536166654d6174683a206d756c7469706c69636174696f6e206f766572666c6f774f776e61626c653a2063616c6c6572206973206e6f7420746865206f776e6572446578537472617465677956353a3a5f77697468647261774465706f736974546f6b656e735f7472616e73666572546f6b656e733a2063616e6e6f74207472616e7366657220746f20746865207a65726f2061646472657373446578537472617465677956353a3a5f7374616b654465706f736974546f6b656e73446578537472617465677956353a3a7265736375654465706c6f79656446756e64737472616e7366657246726f6d3a207472616e7366657220616d6f756e74206578636565647320616c6c6f77616e63655f6275726e3a206275726e20616d6f756e7420657863656564732066726f6d2062616c616e63655472616e7366657248656c7065723a205452414e534645525f46524f4d5f4641494c45445f7472616e73666572546f6b656e733a207472616e7366657220657863656564732066726f6d2062616c616e6365a26469706673582212203da0ef17dae96a139e747ddfa1d47e5ec6875470b57ef3cf0629aaf2c97a663e64736f6c634300070300334f776e61626c653a206e6577206f776e657220697320746865207a65726f206164647265737353776170207061697220737570706c69656420646f6573206e6f742068617665207468652072657761726420746f6b656e206173206f6e65206f66206974277320706169725377617020706169722030206973206e656365737361727920627574206e6f7420737570706c6965644f776e61626c653a2063616c6c6572206973206e6f7420746865206f776e65728be0079c531659141344cd1fd0a4f28419497f9722a3daafe3b4186f6b6457e0537761702070616972203020737570706c69656420646f6573206e6f74206d6174636820746865207061697220696e207175657374696f6e5377617020706169722031206973206e656365737361727920627574206e6f7420737570706c696564537761702070616972203120737570706c69656420646f6573206e6f74206d6174636820746865207061697220696e207175657374696f6e",
  "devdoc": {
    "kind": "dev",
    "methods": {
      "allowDepositor(address)": {
        "params": {
          "depositor": "address"
        }
      },
      "allowance(address,address)": {
        "params": {
          "account": "The address of the account holding the funds",
          "spender": "The address of the account spending the funds"
        },
        "returns": {
          "_0": "The number of tokens approved"
        }
      },
      "approve(address,uint256)": {
        "details": "This will overwrite the approval amount for `spender` and is subject to issues noted [here](https://eips.ethereum.org/EIPS/eip-20#approve) It is recommended to use increaseAllowance and decreaseAllowance instead",
        "params": {
          "amount": "The number of tokens that are approved (2^256-1 means infinite)",
          "spender": "The address of the account which may transfer tokens"
        },
        "returns": {
          "_0": "Whether or not the approval succeeded"
        }
      },
      "balanceOf(address)": {
        "params": {
          "account": "The address of the account to get the balance of"
        },
        "returns": {
          "_0": "The number of tokens held"
        }
      },
      "checkReward()": {
        "returns": {
          "_0": "reward tokens"
        }
      },
      "deposit(uint256)": {
        "details": "Must mint receipt tokens to `msg.sender`",
        "params": {
          "amount": "deposit tokens"
        }
      },
      "depositFor(address,uint256)": {
        "details": "Must mint receipt tokens to `account`",
        "params": {
          "account": "address to receive receipt tokens",
          "amount": "deposit tokens"
        }
      },
      "depositWithPermit(uint256,uint256,uint8,bytes32,bytes32)": {
        "details": "Should revert for tokens without Permit",
        "params": {
          "amount": "Amount of tokens to deposit",
          "deadline": "The time at which to expire the signature",
          "r": "Half of the ECDSA signature pair",
          "s": "Half of the ECDSA signature pair",
          "v": "The recovery byte of the signature"
        }
      },
      "estimateDeployedBalance()": {
        "returns": {
          "_0": "deposit tokens"
        }
      },
      "estimateReinvestReward()": {
        "returns": {
          "_0": "reward tokens"
        }
      },
      "getDepositTokensForShares(uint256)": {
        "params": {
          "amount": "receipt tokens"
        },
        "returns": {
          "_0": "deposit tokens"
        }
      },
      "getDomainSeparator()": {
        "returns": {
          "_0": "Separator"
        }
      },
      "getSharesForDepositTokens(uint256)": {
        "details": "If contract is empty, use 1:1 ratioCould return zero shares for very low amounts of deposit tokens",
        "params": {
          "amount": "deposit tokens"
        },
        "returns": {
          "_0": "receipt tokens"
        }
      },
      "owner()": {
        "details": "Returns the address of the current owner."
      },
      "permit(address,address,uint256,uint256,uint8,bytes32,bytes32)": {
        "params": {
          "deadline": "The time at which to expire the signature",
          "owner": "The address to approve from",
          "r": "Half of the ECDSA signature pair",
          "s": "Half of the ECDSA signature pair",
          "spender": "The address to be approved",
          "v": "The recovery byte of the signature",
          "value": "The number of tokens that are approved (2^256-1 means infinite)"
        }
      },
      "recoverAVAX(uint256)": {
        "params": {
          "amount": "amount"
        }
      },
      "recoverERC20(address,uint256)": {
        "params": {
          "tokenAddress": "token address",
          "tokenAmount": "amount to recover"
        }
      },
      "removeDepositor(address)": {
        "params": {
          "depositor": "address"
        }
      },
      "renounceOwnership()": {
        "details": "Leaves the contract without owner. It will not be possible to call `onlyOwner` functions anymore. Can only be called by the current owner. NOTE: Renouncing ownership will leave the contract without an owner, thereby removing any functionality that is only available to the owner."
      },
      "rescueDeployedFunds(uint256,bool)": {
        "params": {
          "disableDeposits": "bool",
          "minReturnAmountAccepted": "min deposit tokens to receive"
        }
      },
      "revokeAllowance(address,address)": {
        "params": {
          "spender": "address",
          "token": "address"
        }
      },
      "setAllowances()": {
        "details": "Should use modifier `onlyOwner` to avoid griefing"
      },
      "transfer(address,uint256)": {
        "params": {
          "amount": "The number of tokens to transfer",
          "dst": "The address of the destination account"
        },
        "returns": {
          "_0": "Whether or not the transfer succeeded"
        }
      },
      "transferFrom(address,address,uint256)": {
        "params": {
          "amount": "The number of tokens to transfer",
          "dst": "The address of the destination account",
          "src": "The address of the source account"
        },
        "returns": {
          "_0": "Whether or not the transfer succeeded"
        }
      },
      "transferOwnership(address)": {
        "details": "Transfers ownership of the contract to a new account (`newOwner`). Can only be called by the current owner."
      },
      "updateAdminFee(uint256)": {
        "params": {
          "newValue": "fee in BIPS"
        }
      },
      "updateBurnFee(uint256)": {
        "details": "No checks, incorrect value here might cause reinvest to fail due to balance miscalculation",
        "params": {
          "_burnFeeBips": "burn fee in bips meaning the percentage that the reflection burns in total"
        }
      },
      "updateDepositsEnabled(bool)": {
        "params": {
          "newValue": "bool"
        }
      },
      "updateDevAddr(address)": {
        "params": {
          "newValue": "address"
        }
      },
      "updateDevFee(uint256)": {
        "params": {
          "newValue": "fee in BIPS"
        }
      },
      "updateMaxTokensToDepositWithoutReinvest(uint256)": {
        "params": {
          "newValue": "threshold"
        }
      },
      "updateMinTokensToReinvest(uint256)": {
        "params": {
          "newValue": "threshold"
        }
      },
      "updateReinvestReward(uint256)": {
        "params": {
          "newValue": "fee in BIPS"
        }
      },
      "withdraw(uint256)": {
        "params": {
          "amount": "receipt tokens"
        }
      }
    },
    "version": 1
  },
  "userdoc": {
    "kind": "user",
    "methods": {
      "allowDepositor(address)": {
        "notice": "Add an allowed depositor"
      },
      "allowance(address,address)": {
        "notice": "Get the number of tokens `spender` is approved to spend on behalf of `account`"
      },
      "approve(address,uint256)": {
        "notice": "Approve `spender` to transfer up to `amount` from `src`"
      },
      "balanceOf(address)": {
        "notice": "Get the number of tokens held by the `account`"
      },
      "checkReward()": {
        "notice": "Reward tokens avialable to strategy, including balance"
      },
      "deposit(uint256)": {
        "notice": "Deposit and deploy deposits tokens to the strategy"
      },
      "depositFor(address,uint256)": {
        "notice": "Deposit on behalf of another account"
      },
      "depositWithPermit(uint256,uint256,uint8,bytes32,bytes32)": {
        "notice": "Deposit using Permit"
      },
      "estimateDeployedBalance()": {
        "notice": "Estimated deposit token balance deployed by strategy, excluding balance"
      },
      "estimateReinvestReward()": {
        "notice": "Estimate reinvest reward"
      },
      "getDepositTokensForShares(uint256)": {
        "notice": "Calculate deposit tokens for a given amount of receipt tokens"
      },
      "getDomainSeparator()": {
        "notice": "EIP-712 Domain separator"
      },
      "getSharesForDepositTokens(uint256)": {
        "notice": "Calculate receipt tokens for a given amount of deposit tokens"
      },
      "permit(address,address,uint256,uint256,uint8,bytes32,bytes32)": {
        "notice": "Triggers an approval from owner to spender"
      },
      "recoverAVAX(uint256)": {
        "notice": "Recover AVAX from contract"
      },
      "recoverERC20(address,uint256)": {
        "notice": "Recover ERC20 from contract"
      },
      "reinvest()": {
        "notice": "Reinvest reward tokens into deposit tokens"
      },
      "removeDepositor(address)": {
        "notice": "Remove an allowed depositor"
      },
      "rescueDeployedFunds(uint256,bool)": {
        "notice": "Rescue all available deployed deposit tokens back to Strategy"
      },
      "revokeAllowance(address,address)": {
        "notice": "Revoke token allowance"
      },
      "setAllowances()": {
        "notice": "Approve tokens for use in Strategy"
      },
      "transfer(address,uint256)": {
        "notice": "Transfer `amount` tokens from `msg.sender` to `dst`"
      },
      "transferFrom(address,address,uint256)": {
        "notice": "Transfer `amount` tokens from `src` to `dst`"
      },
      "updateAdminFee(uint256)": {
        "notice": "Update admin fee"
      },
      "updateBurnFee(uint256)": {
        "notice": "Updates the burning fee associated with the reflection token"
      },
      "updateDepositsEnabled(bool)": {
        "notice": "Enable/disable deposits"
      },
      "updateDevAddr(address)": {
        "notice": "Update devAddr"
      },
      "updateDevFee(uint256)": {
        "notice": "Update developer fee"
      },
      "updateMaxTokensToDepositWithoutReinvest(uint256)": {
        "notice": "Update reinvest max threshold before a deposit"
      },
      "updateMinTokensToReinvest(uint256)": {
        "notice": "Update reinvest min threshold"
      },
      "updateReinvestReward(uint256)": {
        "notice": "Update reinvest reward"
      },
      "withdraw(uint256)": {
        "notice": "Redeem receipt tokens for deposit tokens"
      }
    },
    "notice": "Pool2 strategy for StakingRewards",
    "version": 1
  },
  "storageLayout": {
    "storage": [
      {
        "astId": 14792,
        "contract": "contracts/strategies/DexStrategyV5ReflectionV2.sol:DexStrategyV5ReflectionV2",
        "label": "name",
        "offset": 0,
        "slot": "0",
        "type": "t_string_storage"
      },
      {
        "astId": 14795,
        "contract": "contracts/strategies/DexStrategyV5ReflectionV2.sol:DexStrategyV5ReflectionV2",
        "label": "symbol",
        "offset": 0,
        "slot": "1",
        "type": "t_string_storage"
      },
      {
        "astId": 14800,
        "contract": "contracts/strategies/DexStrategyV5ReflectionV2.sol:DexStrategyV5ReflectionV2",
        "label": "totalSupply",
        "offset": 0,
        "slot": "2",
        "type": "t_uint256"
      },
      {
        "astId": 14806,
        "contract": "contracts/strategies/DexStrategyV5ReflectionV2.sol:DexStrategyV5ReflectionV2",
        "label": "allowances",
        "offset": 0,
        "slot": "3",
        "type": "t_mapping(t_address,t_mapping(t_address,t_uint256))"
      },
      {
        "astId": 14810,
        "contract": "contracts/strategies/DexStrategyV5ReflectionV2.sol:DexStrategyV5ReflectionV2",
        "label": "balances",
        "offset": 0,
        "slot": "4",
        "type": "t_mapping(t_address,t_uint256)"
      },
      {
        "astId": 14826,
        "contract": "contracts/strategies/DexStrategyV5ReflectionV2.sol:DexStrategyV5ReflectionV2",
        "label": "nonces",
        "offset": 0,
        "slot": "5",
        "type": "t_mapping(t_address,t_uint256)"
      },
      {
        "astId": 20595,
        "contract": "contracts/strategies/DexStrategyV5ReflectionV2.sol:DexStrategyV5ReflectionV2",
        "label": "_owner",
        "offset": 0,
        "slot": "6",
        "type": "t_address"
      },
      {
        "astId": 20708,
        "contract": "contracts/strategies/DexStrategyV5ReflectionV2.sol:DexStrategyV5ReflectionV2",
        "label": "numberOfAllowedDepositors",
        "offset": 0,
        "slot": "7",
        "type": "t_uint256"
      },
      {
        "astId": 20712,
        "contract": "contracts/strategies/DexStrategyV5ReflectionV2.sol:DexStrategyV5ReflectionV2",
        "label": "allowedDepositors",
        "offset": 0,
        "slot": "8",
        "type": "t_mapping(t_address,t_bool)"
      },
      {
        "astId": 15431,
        "contract": "contracts/strategies/DexStrategyV5ReflectionV2.sol:DexStrategyV5ReflectionV2",
        "label": "totalDeposits",
        "offset": 0,
        "slot": "9",
        "type": "t_uint256"
      },
      {
        "astId": 15433,
        "contract": "contracts/strategies/DexStrategyV5ReflectionV2.sol:DexStrategyV5ReflectionV2",
        "label": "depositToken",
        "offset": 0,
        "slot": "10",
        "type": "t_contract(IERC20)17969"
      },
      {
        "astId": 15435,
        "contract": "contracts/strategies/DexStrategyV5ReflectionV2.sol:DexStrategyV5ReflectionV2",
        "label": "rewardToken",
        "offset": 0,
        "slot": "11",
        "type": "t_contract(IERC20)17969"
      },
      {
        "astId": 15437,
        "contract": "contracts/strategies/DexStrategyV5ReflectionV2.sol:DexStrategyV5ReflectionV2",
        "label": "devAddr",
        "offset": 0,
        "slot": "12",
        "type": "t_address"
      },
      {
        "astId": 15439,
        "contract": "contracts/strategies/DexStrategyV5ReflectionV2.sol:DexStrategyV5ReflectionV2",
        "label": "MIN_TOKENS_TO_REINVEST",
        "offset": 0,
        "slot": "13",
        "type": "t_uint256"
      },
      {
        "astId": 15441,
        "contract": "contracts/strategies/DexStrategyV5ReflectionV2.sol:DexStrategyV5ReflectionV2",
        "label": "MAX_TOKENS_TO_DEPOSIT_WITHOUT_REINVEST",
        "offset": 0,
        "slot": "14",
        "type": "t_uint256"
      },
      {
        "astId": 15443,
        "contract": "contracts/strategies/DexStrategyV5ReflectionV2.sol:DexStrategyV5ReflectionV2",
        "label": "DEPOSITS_ENABLED",
        "offset": 0,
        "slot": "15",
        "type": "t_bool"
      },
      {
        "astId": 15445,
        "contract": "contracts/strategies/DexStrategyV5ReflectionV2.sol:DexStrategyV5ReflectionV2",
        "label": "REINVEST_REWARD_BIPS",
        "offset": 0,
        "slot": "16",
        "type": "t_uint256"
      },
      {
        "astId": 15447,
        "contract": "contracts/strategies/DexStrategyV5ReflectionV2.sol:DexStrategyV5ReflectionV2",
        "label": "ADMIN_FEE_BIPS",
        "offset": 0,
        "slot": "17",
        "type": "t_uint256"
      },
      {
        "astId": 15449,
        "contract": "contracts/strategies/DexStrategyV5ReflectionV2.sol:DexStrategyV5ReflectionV2",
        "label": "DEV_FEE_BIPS",
        "offset": 0,
        "slot": "18",
        "type": "t_uint256"
      },
      {
        "astId": 36383,
        "contract": "contracts/strategies/DexStrategyV5ReflectionV2.sol:DexStrategyV5ReflectionV2",
        "label": "stakingContract",
        "offset": 0,
        "slot": "19",
        "type": "t_contract(IStakingRewards)19688"
      },
      {
        "astId": 36385,
        "contract": "contracts/strategies/DexStrategyV5ReflectionV2.sol:DexStrategyV5ReflectionV2",
        "label": "swapPairToken0",
        "offset": 0,
        "slot": "20",
        "type": "t_contract(IPair)18898"
      },
      {
        "astId": 36387,
        "contract": "contracts/strategies/DexStrategyV5ReflectionV2.sol:DexStrategyV5ReflectionV2",
        "label": "swapPairToken1",
        "offset": 0,
        "slot": "21",
        "type": "t_contract(IPair)18898"
      },
      {
        "astId": 36389,
        "contract": "contracts/strategies/DexStrategyV5ReflectionV2.sol:DexStrategyV5ReflectionV2",
        "label": "zeroBytes",
        "offset": 0,
        "slot": "22",
        "type": "t_bytes_storage"
      },
      {
        "astId": 36391,
        "contract": "contracts/strategies/DexStrategyV5ReflectionV2.sol:DexStrategyV5ReflectionV2",
        "label": "burnFeeBips",
        "offset": 0,
        "slot": "23",
        "type": "t_uint256"
      },
      {
        "astId": 36393,
        "contract": "contracts/strategies/DexStrategyV5ReflectionV2.sol:DexStrategyV5ReflectionV2",
        "label": "reflectionToken",
        "offset": 0,
        "slot": "24",
        "type": "t_address"
      }
    ],
    "types": {
      "t_address": {
        "encoding": "inplace",
        "label": "address",
        "numberOfBytes": "20"
      },
      "t_bool": {
        "encoding": "inplace",
        "label": "bool",
        "numberOfBytes": "1"
      },
      "t_bytes_storage": {
        "encoding": "bytes",
        "label": "bytes",
        "numberOfBytes": "32"
      },
      "t_contract(IERC20)17969": {
        "encoding": "inplace",
        "label": "contract IERC20",
        "numberOfBytes": "20"
      },
      "t_contract(IPair)18898": {
        "encoding": "inplace",
        "label": "contract IPair",
        "numberOfBytes": "20"
      },
      "t_contract(IStakingRewards)19688": {
        "encoding": "inplace",
        "label": "contract IStakingRewards",
        "numberOfBytes": "20"
      },
      "t_mapping(t_address,t_bool)": {
        "encoding": "mapping",
        "key": "t_address",
        "label": "mapping(address => bool)",
        "numberOfBytes": "32",
        "value": "t_bool"
      },
      "t_mapping(t_address,t_mapping(t_address,t_uint256))": {
        "encoding": "mapping",
        "key": "t_address",
        "label": "mapping(address => mapping(address => uint256))",
        "numberOfBytes": "32",
        "value": "t_mapping(t_address,t_uint256)"
      },
      "t_mapping(t_address,t_uint256)": {
        "encoding": "mapping",
        "key": "t_address",
        "label": "mapping(address => uint256)",
        "numberOfBytes": "32",
        "value": "t_uint256"
      },
      "t_string_storage": {
        "encoding": "bytes",
        "label": "string",
        "numberOfBytes": "32"
      },
      "t_uint256": {
        "encoding": "inplace",
        "label": "uint256",
        "numberOfBytes": "32"
      }
    }
  }
}