{
  "address": "0x09f66CA1D7fD893C4005af567F41Ac7541b247af",
  "abi": [
    {
      "inputs": [
        {
          "components": [
            {
              "internalType": "address",
              "name": "pool",
              "type": "address"
            },
            {
              "internalType": "address",
              "name": "swapPairToken",
              "type": "address"
            },
            {
              "internalType": "uint256",
              "name": "pid",
              "type": "uint256"
            },
            {
              "internalType": "uint256",
              "name": "maxSlippage",
              "type": "uint256"
            },
            {
              "internalType": "address",
              "name": "voterProxy",
              "type": "address"
            }
          ],
          "internalType": "struct PlatypusStrategy.PlatypusStrategySettings",
          "name": "_platypusStrategySettings",
          "type": "tuple"
        },
        {
          "components": [
            {
              "internalType": "string",
              "name": "name",
              "type": "string"
            },
            {
              "internalType": "address",
              "name": "platformToken",
              "type": "address"
            },
            {
              "components": [
                {
                  "internalType": "address",
                  "name": "reward",
                  "type": "address"
                },
                {
                  "internalType": "address",
                  "name": "swapPair",
                  "type": "address"
                },
                {
                  "internalType": "uint256",
                  "name": "swapFee",
                  "type": "uint256"
                }
              ],
              "internalType": "struct VariableRewardsStrategy.RewardSwapPair[]",
              "name": "rewardSwapPairs",
              "type": "tuple[]"
            },
            {
              "internalType": "address",
              "name": "timelock",
              "type": "address"
            }
          ],
          "internalType": "struct VariableRewardsStrategy.VariableRewardsStrategySettings",
          "name": "_variableRewardsStrategySettings",
          "type": "tuple"
        },
        {
          "components": [
            {
              "internalType": "address",
              "name": "depositToken",
              "type": "address"
            },
            {
              "internalType": "address",
              "name": "rewardToken",
              "type": "address"
            },
            {
              "internalType": "uint256",
              "name": "minTokensToReinvest",
              "type": "uint256"
            },
            {
              "internalType": "uint256",
              "name": "devFeeBips",
              "type": "uint256"
            },
            {
              "internalType": "uint256",
              "name": "reinvestRewardBips",
              "type": "uint256"
            }
          ],
          "internalType": "struct YakStrategyV2.StrategySettings",
          "name": "_strategySettings",
          "type": "tuple"
        }
      ],
      "stateMutability": "nonpayable",
      "type": "constructor"
    },
    {
      "anonymous": false,
      "inputs": [
        {
          "indexed": false,
          "internalType": "address",
          "name": "rewardToken",
          "type": "address"
        },
        {
          "indexed": false,
          "internalType": "address",
          "name": "swapPair",
          "type": "address"
        }
      ],
      "name": "AddReward",
      "type": "event"
    },
    {
      "anonymous": false,
      "inputs": [
        {
          "indexed": true,
          "internalType": "address",
          "name": "account",
          "type": "address"
        }
      ],
      "name": "AllowDepositor",
      "type": "event"
    },
    {
      "anonymous": false,
      "inputs": [
        {
          "indexed": true,
          "internalType": "address",
          "name": "owner",
          "type": "address"
        },
        {
          "indexed": true,
          "internalType": "address",
          "name": "spender",
          "type": "address"
        },
        {
          "indexed": false,
          "internalType": "uint256",
          "name": "value",
          "type": "uint256"
        }
      ],
      "name": "Approval",
      "type": "event"
    },
    {
      "anonymous": false,
      "inputs": [
        {
          "indexed": true,
          "internalType": "address",
          "name": "account",
          "type": "address"
        },
        {
          "indexed": false,
          "internalType": "uint256",
          "name": "amount",
          "type": "uint256"
        }
      ],
      "name": "Deposit",
      "type": "event"
    },
    {
      "anonymous": false,
      "inputs": [
        {
          "indexed": false,
          "internalType": "bool",
          "name": "newValue",
          "type": "bool"
        }
      ],
      "name": "DepositsEnabled",
      "type": "event"
    },
    {
      "anonymous": false,
      "inputs": [
        {
          "indexed": true,
          "internalType": "address",
          "name": "previousOwner",
          "type": "address"
        },
        {
          "indexed": true,
          "internalType": "address",
          "name": "newOwner",
          "type": "address"
        }
      ],
      "name": "OwnershipTransferred",
      "type": "event"
    },
    {
      "anonymous": false,
      "inputs": [
        {
          "indexed": false,
          "internalType": "address",
          "name": "token",
          "type": "address"
        },
        {
          "indexed": false,
          "internalType": "uint256",
          "name": "amount",
          "type": "uint256"
        }
      ],
      "name": "Recovered",
      "type": "event"
    },
    {
      "anonymous": false,
      "inputs": [
        {
          "indexed": false,
          "internalType": "uint256",
          "name": "newTotalDeposits",
          "type": "uint256"
        },
        {
          "indexed": false,
          "internalType": "uint256",
          "name": "newTotalSupply",
          "type": "uint256"
        }
      ],
      "name": "Reinvest",
      "type": "event"
    },
    {
      "anonymous": false,
      "inputs": [
        {
          "indexed": true,
          "internalType": "address",
          "name": "account",
          "type": "address"
        }
      ],
      "name": "RemoveDepositor",
      "type": "event"
    },
    {
      "anonymous": false,
      "inputs": [
        {
          "indexed": false,
          "internalType": "address",
          "name": "rewardToken",
          "type": "address"
        }
      ],
      "name": "RemoveReward",
      "type": "event"
    },
    {
      "anonymous": false,
      "inputs": [
        {
          "indexed": true,
          "internalType": "address",
          "name": "from",
          "type": "address"
        },
        {
          "indexed": true,
          "internalType": "address",
          "name": "to",
          "type": "address"
        },
        {
          "indexed": false,
          "internalType": "uint256",
          "name": "value",
          "type": "uint256"
        }
      ],
      "name": "Transfer",
      "type": "event"
    },
    {
      "anonymous": false,
      "inputs": [
        {
          "indexed": false,
          "internalType": "uint256",
          "name": "oldValue",
          "type": "uint256"
        },
        {
          "indexed": false,
          "internalType": "uint256",
          "name": "newValue",
          "type": "uint256"
        }
      ],
      "name": "UpdateAdminFee",
      "type": "event"
    },
    {
      "anonymous": false,
      "inputs": [
        {
          "indexed": false,
          "internalType": "address",
          "name": "oldValue",
          "type": "address"
        },
        {
          "indexed": false,
          "internalType": "address",
          "name": "newValue",
          "type": "address"
        }
      ],
      "name": "UpdateDevAddr",
      "type": "event"
    },
    {
      "anonymous": false,
      "inputs": [
        {
          "indexed": false,
          "internalType": "uint256",
          "name": "oldValue",
          "type": "uint256"
        },
        {
          "indexed": false,
          "internalType": "uint256",
          "name": "newValue",
          "type": "uint256"
        }
      ],
      "name": "UpdateDevFee",
      "type": "event"
    },
    {
      "anonymous": false,
      "inputs": [
        {
          "indexed": false,
          "internalType": "uint256",
          "name": "oldValue",
          "type": "uint256"
        },
        {
          "indexed": false,
          "internalType": "uint256",
          "name": "newValue",
          "type": "uint256"
        }
      ],
      "name": "UpdateMaxTokensToDepositWithoutReinvest",
      "type": "event"
    },
    {
      "anonymous": false,
      "inputs": [
        {
          "indexed": false,
          "internalType": "uint256",
          "name": "oldValue",
          "type": "uint256"
        },
        {
          "indexed": false,
          "internalType": "uint256",
          "name": "newValue",
          "type": "uint256"
        }
      ],
      "name": "UpdateMinTokensToReinvest",
      "type": "event"
    },
    {
      "anonymous": false,
      "inputs": [
        {
          "indexed": false,
          "internalType": "uint256",
          "name": "oldValue",
          "type": "uint256"
        },
        {
          "indexed": false,
          "internalType": "uint256",
          "name": "newValue",
          "type": "uint256"
        }
      ],
      "name": "UpdateReinvestReward",
      "type": "event"
    },
    {
      "anonymous": false,
      "inputs": [
        {
          "indexed": true,
          "internalType": "address",
          "name": "account",
          "type": "address"
        },
        {
          "indexed": false,
          "internalType": "uint256",
          "name": "amount",
          "type": "uint256"
        }
      ],
      "name": "Withdraw",
      "type": "event"
    },
    {
      "inputs": [],
      "name": "ADMIN_FEE_BIPS",
      "outputs": [
        {
          "internalType": "uint256",
          "name": "",
          "type": "uint256"
        }
      ],
      "stateMutability": "view",
      "type": "function"
    },
    {
      "inputs": [],
      "name": "DEPOSITS_ENABLED",
      "outputs": [
        {
          "internalType": "bool",
          "name": "",
          "type": "bool"
        }
      ],
      "stateMutability": "view",
      "type": "function"
    },
    {
      "inputs": [],
      "name": "DEV_FEE_BIPS",
      "outputs": [
        {
          "internalType": "uint256",
          "name": "",
          "type": "uint256"
        }
      ],
      "stateMutability": "view",
      "type": "function"
    },
    {
      "inputs": [],
      "name": "DOMAIN_TYPEHASH",
      "outputs": [
        {
          "internalType": "bytes32",
          "name": "",
          "type": "bytes32"
        }
      ],
      "stateMutability": "view",
      "type": "function"
    },
    {
      "inputs": [],
      "name": "MAX_TOKENS_TO_DEPOSIT_WITHOUT_REINVEST",
      "outputs": [
        {
          "internalType": "uint256",
          "name": "",
          "type": "uint256"
        }
      ],
      "stateMutability": "view",
      "type": "function"
    },
    {
      "inputs": [],
      "name": "MIN_TOKENS_TO_REINVEST",
      "outputs": [
        {
          "internalType": "uint256",
          "name": "",
          "type": "uint256"
        }
      ],
      "stateMutability": "view",
      "type": "function"
    },
    {
      "inputs": [],
      "name": "PERMIT_TYPEHASH",
      "outputs": [
        {
          "internalType": "bytes32",
          "name": "",
          "type": "bytes32"
        }
      ],
      "stateMutability": "view",
      "type": "function"
    },
    {
      "inputs": [],
      "name": "PID",
      "outputs": [
        {
          "internalType": "uint256",
          "name": "",
          "type": "uint256"
        }
      ],
      "stateMutability": "view",
      "type": "function"
    },
    {
      "inputs": [],
      "name": "PTP",
      "outputs": [
        {
          "internalType": "address",
          "name": "",
          "type": "address"
        }
      ],
      "stateMutability": "view",
      "type": "function"
    },
    {
      "inputs": [],
      "name": "REINVEST_REWARD_BIPS",
      "outputs": [
        {
          "internalType": "uint256",
          "name": "",
          "type": "uint256"
        }
      ],
      "stateMutability": "view",
      "type": "function"
    },
    {
      "inputs": [],
      "name": "USDC",
      "outputs": [
        {
          "internalType": "contract IERC20",
          "name": "",
          "type": "address"
        }
      ],
      "stateMutability": "view",
      "type": "function"
    },
    {
      "inputs": [],
      "name": "USP",
      "outputs": [
        {
          "internalType": "address",
          "name": "",
          "type": "address"
        }
      ],
      "stateMutability": "view",
      "type": "function"
    },
    {
      "inputs": [],
      "name": "VERSION_HASH",
      "outputs": [
        {
          "internalType": "bytes32",
          "name": "",
          "type": "bytes32"
        }
      ],
      "stateMutability": "view",
      "type": "function"
    },
    {
      "inputs": [
        {
          "internalType": "address",
          "name": "_rewardToken",
          "type": "address"
        },
        {
          "internalType": "address",
          "name": "_swapPair",
          "type": "address"
        }
      ],
      "name": "addReward",
      "outputs": [],
      "stateMutability": "nonpayable",
      "type": "function"
    },
    {
      "inputs": [
        {
          "internalType": "address",
          "name": "_rewardToken",
          "type": "address"
        },
        {
          "internalType": "address",
          "name": "_swapPair",
          "type": "address"
        },
        {
          "internalType": "uint256",
          "name": "_swapFee",
          "type": "uint256"
        }
      ],
      "name": "addReward",
      "outputs": [],
      "stateMutability": "nonpayable",
      "type": "function"
    },
    {
      "inputs": [
        {
          "internalType": "address",
          "name": "depositor",
          "type": "address"
        }
      ],
      "name": "allowDepositor",
      "outputs": [],
      "stateMutability": "nonpayable",
      "type": "function"
    },
    {
      "inputs": [
        {
          "internalType": "address",
          "name": "account",
          "type": "address"
        },
        {
          "internalType": "address",
          "name": "spender",
          "type": "address"
        }
      ],
      "name": "allowance",
      "outputs": [
        {
          "internalType": "uint256",
          "name": "",
          "type": "uint256"
        }
      ],
      "stateMutability": "view",
      "type": "function"
    },
    {
      "inputs": [
        {
          "internalType": "address",
          "name": "",
          "type": "address"
        }
      ],
      "name": "allowedDepositors",
      "outputs": [
        {
          "internalType": "bool",
          "name": "",
          "type": "bool"
        }
      ],
      "stateMutability": "view",
      "type": "function"
    },
    {
      "inputs": [
        {
          "internalType": "address",
          "name": "spender",
          "type": "address"
        },
        {
          "internalType": "uint256",
          "name": "amount",
          "type": "uint256"
        }
      ],
      "name": "approve",
      "outputs": [
        {
          "internalType": "bool",
          "name": "",
          "type": "bool"
        }
      ],
      "stateMutability": "nonpayable",
      "type": "function"
    },
    {
      "inputs": [],
      "name": "asset",
      "outputs": [
        {
          "internalType": "contract IPlatypusAsset",
          "name": "",
          "type": "address"
        }
      ],
      "stateMutability": "view",
      "type": "function"
    },
    {
      "inputs": [
        {
          "internalType": "address",
          "name": "account",
          "type": "address"
        }
      ],
      "name": "balanceOf",
      "outputs": [
        {
          "internalType": "uint256",
          "name": "",
          "type": "uint256"
        }
      ],
      "stateMutability": "view",
      "type": "function"
    },
    {
      "inputs": [
        {
          "internalType": "uint256",
          "name": "_amount",
          "type": "uint256"
        }
      ],
      "name": "calculateDepositFee",
      "outputs": [
        {
          "internalType": "uint256",
          "name": "",
          "type": "uint256"
        }
      ],
      "stateMutability": "view",
      "type": "function"
    },
    {
      "inputs": [
        {
          "internalType": "uint256",
          "name": "_amount",
          "type": "uint256"
        }
      ],
      "name": "calculateWithdrawFee",
      "outputs": [
        {
          "internalType": "uint256",
          "name": "",
          "type": "uint256"
        }
      ],
      "stateMutability": "view",
      "type": "function"
    },
    {
      "inputs": [],
      "name": "checkReward",
      "outputs": [
        {
          "internalType": "uint256",
          "name": "",
          "type": "uint256"
        }
      ],
      "stateMutability": "view",
      "type": "function"
    },
    {
      "inputs": [],
      "name": "decimals",
      "outputs": [
        {
          "internalType": "uint8",
          "name": "",
          "type": "uint8"
        }
      ],
      "stateMutability": "view",
      "type": "function"
    },
    {
      "inputs": [
        {
          "internalType": "uint256",
          "name": "_amount",
          "type": "uint256"
        }
      ],
      "name": "deposit",
      "outputs": [],
      "stateMutability": "nonpayable",
      "type": "function"
    },
    {
      "inputs": [
        {
          "internalType": "address",
          "name": "_account",
          "type": "address"
        },
        {
          "internalType": "uint256",
          "name": "_amount",
          "type": "uint256"
        }
      ],
      "name": "depositFor",
      "outputs": [],
      "stateMutability": "nonpayable",
      "type": "function"
    },
    {
      "inputs": [],
      "name": "depositToken",
      "outputs": [
        {
          "internalType": "contract IERC20",
          "name": "",
          "type": "address"
        }
      ],
      "stateMutability": "view",
      "type": "function"
    },
    {
      "inputs": [
        {
          "internalType": "uint256",
          "name": "_amount",
          "type": "uint256"
        },
        {
          "internalType": "uint256",
          "name": "_deadline",
          "type": "uint256"
        },
        {
          "internalType": "uint8",
          "name": "_v",
          "type": "uint8"
        },
        {
          "internalType": "bytes32",
          "name": "_r",
          "type": "bytes32"
        },
        {
          "internalType": "bytes32",
          "name": "_s",
          "type": "bytes32"
        }
      ],
      "name": "depositWithPermit",
      "outputs": [],
      "stateMutability": "nonpayable",
      "type": "function"
    },
    {
      "inputs": [],
      "name": "devAddr",
      "outputs": [
        {
          "internalType": "address",
          "name": "",
          "type": "address"
        }
      ],
      "stateMutability": "view",
      "type": "function"
    },
    {
      "inputs": [],
      "name": "estimateDeployedBalance",
      "outputs": [
        {
          "internalType": "uint256",
          "name": "",
          "type": "uint256"
        }
      ],
      "stateMutability": "view",
      "type": "function"
    },
    {
      "inputs": [],
      "name": "estimateReinvestReward",
      "outputs": [
        {
          "internalType": "uint256",
          "name": "",
          "type": "uint256"
        }
      ],
      "stateMutability": "view",
      "type": "function"
    },
    {
      "inputs": [
        {
          "internalType": "uint256",
          "name": "amount",
          "type": "uint256"
        }
      ],
      "name": "getDepositTokensForShares",
      "outputs": [
        {
          "internalType": "uint256",
          "name": "",
          "type": "uint256"
        }
      ],
      "stateMutability": "view",
      "type": "function"
    },
    {
      "inputs": [],
      "name": "getDomainSeparator",
      "outputs": [
        {
          "internalType": "bytes32",
          "name": "",
          "type": "bytes32"
        }
      ],
      "stateMutability": "view",
      "type": "function"
    },
    {
      "inputs": [
        {
          "internalType": "uint256",
          "name": "amount",
          "type": "uint256"
        }
      ],
      "name": "getSharesForDepositTokens",
      "outputs": [
        {
          "internalType": "uint256",
          "name": "",
          "type": "uint256"
        }
      ],
      "stateMutability": "view",
      "type": "function"
    },
    {
      "inputs": [],
      "name": "maxSlippage",
      "outputs": [
        {
          "internalType": "uint256",
          "name": "",
          "type": "uint256"
        }
      ],
      "stateMutability": "view",
      "type": "function"
    },
    {
      "inputs": [],
      "name": "name",
      "outputs": [
        {
          "internalType": "string",
          "name": "",
          "type": "string"
        }
      ],
      "stateMutability": "view",
      "type": "function"
    },
    {
      "inputs": [
        {
          "internalType": "address",
          "name": "",
          "type": "address"
        }
      ],
      "name": "nonces",
      "outputs": [
        {
          "internalType": "uint256",
          "name": "",
          "type": "uint256"
        }
      ],
      "stateMutability": "view",
      "type": "function"
    },
    {
      "inputs": [],
      "name": "numberOfAllowedDepositors",
      "outputs": [
        {
          "internalType": "uint256",
          "name": "",
          "type": "uint256"
        }
      ],
      "stateMutability": "view",
      "type": "function"
    },
    {
      "inputs": [],
      "name": "owner",
      "outputs": [
        {
          "internalType": "address",
          "name": "",
          "type": "address"
        }
      ],
      "stateMutability": "view",
      "type": "function"
    },
    {
      "inputs": [
        {
          "internalType": "address",
          "name": "owner",
          "type": "address"
        },
        {
          "internalType": "address",
          "name": "spender",
          "type": "address"
        },
        {
          "internalType": "uint256",
          "name": "value",
          "type": "uint256"
        },
        {
          "internalType": "uint256",
          "name": "deadline",
          "type": "uint256"
        },
        {
          "internalType": "uint8",
          "name": "v",
          "type": "uint8"
        },
        {
          "internalType": "bytes32",
          "name": "r",
          "type": "bytes32"
        },
        {
          "internalType": "bytes32",
          "name": "s",
          "type": "bytes32"
        }
      ],
      "name": "permit",
      "outputs": [],
      "stateMutability": "nonpayable",
      "type": "function"
    },
    {
      "inputs": [],
      "name": "pool",
      "outputs": [
        {
          "internalType": "contract IPlatypusPool",
          "name": "",
          "type": "address"
        }
      ],
      "stateMutability": "view",
      "type": "function"
    },
    {
      "inputs": [],
      "name": "proxy",
      "outputs": [
        {
          "internalType": "contract IPlatypusVoterProxy",
          "name": "",
          "type": "address"
        }
      ],
      "stateMutability": "view",
      "type": "function"
    },
    {
      "inputs": [
        {
          "internalType": "uint256",
          "name": "amount",
          "type": "uint256"
        }
      ],
      "name": "recoverAVAX",
      "outputs": [],
      "stateMutability": "nonpayable",
      "type": "function"
    },
    {
      "inputs": [
        {
          "internalType": "address",
          "name": "tokenAddress",
          "type": "address"
        },
        {
          "internalType": "uint256",
          "name": "tokenAmount",
          "type": "uint256"
        }
      ],
      "name": "recoverERC20",
      "outputs": [],
      "stateMutability": "nonpayable",
      "type": "function"
    },
    {
      "inputs": [],
      "name": "reinvest",
      "outputs": [],
      "stateMutability": "nonpayable",
      "type": "function"
    },
    {
      "inputs": [
        {
          "internalType": "address",
          "name": "depositor",
          "type": "address"
        }
      ],
      "name": "removeDepositor",
      "outputs": [],
      "stateMutability": "nonpayable",
      "type": "function"
    },
    {
      "inputs": [
        {
          "internalType": "address",
          "name": "_rewardToken",
          "type": "address"
        }
      ],
      "name": "removeReward",
      "outputs": [],
      "stateMutability": "nonpayable",
      "type": "function"
    },
    {
      "inputs": [],
      "name": "renounceOwnership",
      "outputs": [],
      "stateMutability": "nonpayable",
      "type": "function"
    },
    {
      "inputs": [
        {
          "internalType": "uint256",
          "name": "_minReturnAmountAccepted",
          "type": "uint256"
        },
        {
          "internalType": "bool",
          "name": "",
          "type": "bool"
        }
      ],
      "name": "rescueDeployedFunds",
      "outputs": [],
      "stateMutability": "nonpayable",
      "type": "function"
    },
    {
      "inputs": [
        {
          "internalType": "address",
          "name": "token",
          "type": "address"
        },
        {
          "internalType": "address",
          "name": "spender",
          "type": "address"
        }
      ],
      "name": "revokeAllowance",
      "outputs": [],
      "stateMutability": "nonpayable",
      "type": "function"
    },
    {
      "inputs": [],
      "name": "rewardCount",
      "outputs": [
        {
          "internalType": "uint256",
          "name": "",
          "type": "uint256"
        }
      ],
      "stateMutability": "view",
      "type": "function"
    },
    {
      "inputs": [
        {
          "internalType": "address",
          "name": "",
          "type": "address"
        }
      ],
      "name": "rewardSwapPairs",
      "outputs": [
        {
          "internalType": "address",
          "name": "reward",
          "type": "address"
        },
        {
          "internalType": "address",
          "name": "swapPair",
          "type": "address"
        },
        {
          "internalType": "uint256",
          "name": "swapFee",
          "type": "uint256"
        }
      ],
      "stateMutability": "view",
      "type": "function"
    },
    {
      "inputs": [],
      "name": "rewardToken",
      "outputs": [
        {
          "internalType": "contract IERC20",
          "name": "",
          "type": "address"
        }
      ],
      "stateMutability": "view",
      "type": "function"
    },
    {
      "inputs": [
        {
          "internalType": "address",
          "name": "_voterProxy",
          "type": "address"
        }
      ],
      "name": "setPlatypusVoterProxy",
      "outputs": [],
      "stateMutability": "nonpayable",
      "type": "function"
    },
    {
      "inputs": [
        {
          "internalType": "uint256",
          "name": "",
          "type": "uint256"
        }
      ],
      "name": "supportedRewards",
      "outputs": [
        {
          "internalType": "address",
          "name": "",
          "type": "address"
        }
      ],
      "stateMutability": "view",
      "type": "function"
    },
    {
      "inputs": [],
      "name": "swapPairToken",
      "outputs": [
        {
          "internalType": "address",
          "name": "",
          "type": "address"
        }
      ],
      "stateMutability": "view",
      "type": "function"
    },
    {
      "inputs": [],
      "name": "symbol",
      "outputs": [
        {
          "internalType": "string",
          "name": "",
          "type": "string"
        }
      ],
      "stateMutability": "view",
      "type": "function"
    },
    {
      "inputs": [],
      "name": "totalDeposits",
      "outputs": [
        {
          "internalType": "uint256",
          "name": "",
          "type": "uint256"
        }
      ],
      "stateMutability": "view",
      "type": "function"
    },
    {
      "inputs": [],
      "name": "totalSupply",
      "outputs": [
        {
          "internalType": "uint256",
          "name": "",
          "type": "uint256"
        }
      ],
      "stateMutability": "view",
      "type": "function"
    },
    {
      "inputs": [
        {
          "internalType": "address",
          "name": "dst",
          "type": "address"
        },
        {
          "internalType": "uint256",
          "name": "amount",
          "type": "uint256"
        }
      ],
      "name": "transfer",
      "outputs": [
        {
          "internalType": "bool",
          "name": "",
          "type": "bool"
        }
      ],
      "stateMutability": "nonpayable",
      "type": "function"
    },
    {
      "inputs": [
        {
          "internalType": "address",
          "name": "src",
          "type": "address"
        },
        {
          "internalType": "address",
          "name": "dst",
          "type": "address"
        },
        {
          "internalType": "uint256",
          "name": "amount",
          "type": "uint256"
        }
      ],
      "name": "transferFrom",
      "outputs": [
        {
          "internalType": "bool",
          "name": "",
          "type": "bool"
        }
      ],
      "stateMutability": "nonpayable",
      "type": "function"
    },
    {
      "inputs": [
        {
          "internalType": "address",
          "name": "newOwner",
          "type": "address"
        }
      ],
      "name": "transferOwnership",
      "outputs": [],
      "stateMutability": "nonpayable",
      "type": "function"
    },
    {
      "inputs": [
        {
          "internalType": "uint256",
          "name": "newValue",
          "type": "uint256"
        }
      ],
      "name": "updateAdminFee",
      "outputs": [],
      "stateMutability": "nonpayable",
      "type": "function"
    },
    {
      "inputs": [
        {
          "internalType": "bool",
          "name": "newValue",
          "type": "bool"
        }
      ],
      "name": "updateDepositsEnabled",
      "outputs": [],
      "stateMutability": "nonpayable",
      "type": "function"
    },
    {
      "inputs": [
        {
          "internalType": "address",
          "name": "newValue",
          "type": "address"
        }
      ],
      "name": "updateDevAddr",
      "outputs": [],
      "stateMutability": "nonpayable",
      "type": "function"
    },
    {
      "inputs": [
        {
          "internalType": "uint256",
          "name": "newValue",
          "type": "uint256"
        }
      ],
      "name": "updateDevFee",
      "outputs": [],
      "stateMutability": "nonpayable",
      "type": "function"
    },
    {
      "inputs": [
        {
          "internalType": "uint256",
          "name": "slippageBips",
          "type": "uint256"
        }
      ],
      "name": "updateMaxSwapSlippage",
      "outputs": [],
      "stateMutability": "nonpayable",
      "type": "function"
    },
    {
      "inputs": [
        {
          "internalType": "uint256",
          "name": "newValue",
          "type": "uint256"
        }
      ],
      "name": "updateMaxTokensToDepositWithoutReinvest",
      "outputs": [],
      "stateMutability": "nonpayable",
      "type": "function"
    },
    {
      "inputs": [
        {
          "internalType": "uint256",
          "name": "newValue",
          "type": "uint256"
        }
      ],
      "name": "updateMinTokensToReinvest",
      "outputs": [],
      "stateMutability": "nonpayable",
      "type": "function"
    },
    {
      "inputs": [
        {
          "internalType": "uint256",
          "name": "newValue",
          "type": "uint256"
        }
      ],
      "name": "updateReinvestReward",
      "outputs": [],
      "stateMutability": "nonpayable",
      "type": "function"
    },
    {
      "inputs": [
        {
          "internalType": "uint256",
          "name": "_amount",
          "type": "uint256"
        }
      ],
      "name": "withdraw",
      "outputs": [],
      "stateMutability": "nonpayable",
      "type": "function"
    }
  ],
  "transactionHash": "0x53259abd1eeb7f00b3a716e499a05c851ec4ed5d976c7e8104707f2a915a5525",
  "args": [
    {
      "pool": "0x66357dcace80431aee0a7507e2e361b7e2402370",
      "swapPairToken": "0xf4003F4efBE8691B60249E6afbD307aBE7758adb",
      "pid": "25",
      "maxSlippage": "100",
      "voterProxy": "0xE7ff20a6704bDab44B34cE6e6ef4776898Cc66bf"
    },
    {
      "name": "Yield Yak: Platypus USP",
      "platformToken": "0xb31f66aa3c1e785363f0875a1b74e27b85fd66c7",
      "rewardSwapPairs": [
        {
          "reward": "0x22d4002028f537599be9f666d1c4fa138522f9c8",
          "swapPair": "0xcdfd91eea657cc2701117fe9711c9a4f61feed23",
          "swapFee": "3"
        }
      ],
      "timelock": "0xDcEDF06Fd33E1D7b6eb4b309f779a0e9D3172e44"
    },
    {
      "depositToken": "0xdaCDe03d7Ab4D81fEDdc3a20fAA89aBAc9072CE2",
      "rewardToken": "0xb31f66aa3c1e785363f0875a1b74e27b85fd66c7",
      "minTokensToReinvest": "100000000000000",
      "adminFeeBips": 0,
      "devFeeBips": 700,
      "reinvestRewardBips": 300
    }
  ],
  "solcInputHash": "4ce64f05c9c9dbf835deefecde4ecf3c",
  "bytecode": "0x6101a06040526009610160819052685969656c642059616b60b81b6101809081526200002f916000919062000a95565b506040805180820190915260038082526216549560ea1b60209092019182526200005c9160019162000a95565b503480156200006a57600080fd5b50604051620063f9380380620063f98339810160408190526200008d9162000e5b565b828282818180600033600680546001600160a01b0319166001600160a01b03831690811790915560405191925090600090600080516020620063d9833981519152908290a35080516001600160a01b0390811660805260208201511660a0526040810151620000fc9062000337565b60608101516200010c90620003c7565b60808101516200011c9062000472565b5081518051620001359160009160209091019062000a95565b5060208201516001600160a01b031660c052600980546001600160a01b031916732d580f9cf2fb2d09bc411532988f2afda4e7beff17905560005b8260400151518110156200021257620001fd836040015182815181106200019b576200019b62000f1a565b60200260200101516000015184604001518381518110620001c057620001c062000f1a565b60200260200101516020015185604001518481518110620001e557620001e562000f1a565b6020026020010151604001516200051d60201b60201c565b80620002098162000f46565b91505062000170565b506200021f6001620006c9565b60608201516200022f9062000773565b60408051600080825260208201527fc7606d21ac05cd309191543e409f0845c016120563783d70e4f41419dc0ef234910160405180910390a150506040838101516101205283516001600160a01b03908116610100819052835192516371f9621160e01b8152929091166004830152906371f9621190602401602060405180830381865afa158015620002c6573d6000803e3d6000fd5b505050506040513d601f19601f82011682018060405250810190620002ec919062000f62565b6001600160a01b0390811660e0526080840151601380546001600160a01b0319169183169190911790556060840151601455602090930151909216610140525062000fde9350505050565b6006546001600160a01b03163314620003865760405162461bcd60e51b81526020600482018190526024820152600080516020620063b983398151915260448201526064015b60405180910390fd5b600a5460408051918252602082018390527f481f79ac3a523b6d6db3c5a720e190e986d1cc1b41adcdf50f9caef849901100910160405180910390a1600a55565b6006546001600160a01b03163314620004125760405162461bcd60e51b81526020600482018190526024820152600080516020620063b983398151915260448201526064016200037d565b612710600e548262000425919062000f87565b11156200043157600080fd5b600f5460408051918252602082018390527f2a42303d002f0ba6cfe8259c91d4684443fb0b3de286ba74991175d651726131910160405180910390a1600f55565b6006546001600160a01b03163314620004bd5760405162461bcd60e51b81526020600482018190526024820152600080516020620063b983398151915260448201526064016200037d565b612710600f5482620004d0919062000f87565b1115620004dc57600080fd5b600e5460408051918252602082018390527fe7f97d51d307dc44045597c9978bec0f842e6bb40d19b9444084cfa30d9ed4f2910160405180910390a1600e55565b60a0516001600160a01b0316836001600160a01b031614620005c95762000553828460a0516200087060201b620027081760201c565b620005c9576040805162461bcd60e51b81526020600482015260248101919091527f5661726961626c655265776172647353747261746567793a3a5377617020706160448201527f697220646f6573206e6f7420636f6e7461696e2072657761726420746f6b656e60648201526084016200037d565b604080516060810182526001600160a01b03808616808352858216602080850191825284860187815260008481526010909252958120945185549085166001600160a01b03199182161786559151600180870180549290961691841691909117909455945160029094019390935560118054808401825594527f31ecc21a745e3968a04e9570e4425bc18fa8019c68028196b546d1669c200c68909301805490921690921790556012546200067e9162000f87565b601255604080516001600160a01b038086168252841660208201527f916e172c080569186aa7ea048268267257cf7cc49505908863f747bca8620f80910160405180910390a1505050565b6006546001600160a01b03163314620007145760405162461bcd60e51b81526020600482018190526024820152600080516020620063b983398151915260448201526064016200037d565b600c5481151560ff9091161515036200072c57600080fd5b600c805460ff19168215159081179091556040519081527f7b014ed3854e7f5cb0218d58b3c6ae7d53a68bb0af2f67bfb029ea42c38a7e859060200160405180910390a150565b6006546001600160a01b03163314620007be5760405162461bcd60e51b81526020600482018190526024820152600080516020620063b983398151915260448201526064016200037d565b6001600160a01b038116620008255760405162461bcd60e51b815260206004820152602660248201527f4f776e61626c653a206e6577206f776e657220697320746865207a65726f206160448201526564647265737360d01b60648201526084016200037d565b6006546040516001600160a01b03808416921690600080516020620063d983398151915290600090a3600680546001600160a01b0319166001600160a01b0392909216919091179055565b6000836001600160a01b0316630dfe16816040518163ffffffff1660e01b8152600401602060405180830381865afa158015620008b1573d6000803e3d6000fd5b505050506040513d601f19601f82011682018060405250810190620008d7919062000f62565b6001600160a01b0316836001600160a01b031614806200096c5750836001600160a01b031663d21220a76040518163ffffffff1660e01b8152600401602060405180830381865afa15801562000931573d6000803e3d6000fd5b505050506040513d601f19601f8201168201806040525081019062000957919062000f62565b6001600160a01b0316836001600160a01b0316145b801562000a6e5750836001600160a01b0316630dfe16816040518163ffffffff1660e01b8152600401602060405180830381865afa158015620009b3573d6000803e3d6000fd5b505050506040513d601f19601f82011682018060405250810190620009d9919062000f62565b6001600160a01b0316826001600160a01b0316148062000a6e5750836001600160a01b031663d21220a76040518163ffffffff1660e01b8152600401602060405180830381865afa15801562000a33573d6000803e3d6000fd5b505050506040513d601f19601f8201168201806040525081019062000a59919062000f62565b6001600160a01b0316826001600160a01b0316145b801562000a8d5750816001600160a01b0316836001600160a01b031614155b949350505050565b82805462000aa39062000fa2565b90600052602060002090601f01602090048101928262000ac7576000855562000b12565b82601f1062000ae257805160ff191683800117855562000b12565b8280016001018555821562000b12579182015b8281111562000b1257825182559160200191906001019062000af5565b5062000b2092915062000b24565b5090565b5b8082111562000b20576000815560010162000b25565b634e487b7160e01b600052604160045260246000fd5b604051606081016001600160401b038111828210171562000b765762000b7662000b3b565b60405290565b604051608081016001600160401b038111828210171562000b765762000b7662000b3b565b60405160a081016001600160401b038111828210171562000b765762000b7662000b3b565b604051601f8201601f191681016001600160401b038111828210171562000bf15762000bf162000b3b565b604052919050565b80516001600160a01b038116811462000c1157600080fd5b919050565b600082601f83011262000c2857600080fd5b815160206001600160401b0382111562000c465762000c4662000b3b565b62000c56818360051b0162000bc6565b8281526060928302850182019282820191908785111562000c7657600080fd5b8387015b8581101562000cd45781818a03121562000c945760008081fd5b62000c9e62000b51565b62000ca98262000bf9565b815262000cb886830162000bf9565b8187015260408281015190820152845292840192810162000c7a565b5090979650505050505050565b60006080828403121562000cf457600080fd5b62000cfe62000b7c565b82519091506001600160401b038082111562000d1957600080fd5b818401915084601f83011262000d2e57600080fd5b81518181111562000d435762000d4362000b3b565b602062000d59601f8301601f1916820162000bc6565b828152878284870101111562000d6e57600080fd5b60005b8381101562000d8e57858101830151828201840152820162000d71565b8381111562000da05760008385840101525b50855262000db086820162000bf9565b9085015250604084015191508082111562000dca57600080fd5b5062000dd98482850162000c16565b60408301525062000ded6060830162000bf9565b606082015292915050565b600060a0828403121562000e0b57600080fd5b62000e1562000ba1565b905062000e228262000bf9565b815262000e326020830162000bf9565b602082015260408201516040820152606082015160608201526080820151608082015292915050565b600080600083850361016081121562000e7357600080fd5b60a081121562000e8257600080fd5b5062000e8d62000ba1565b62000e988562000bf9565b815262000ea86020860162000bf9565b6020820152604085015160408201526060850151606082015262000ecf6080860162000bf9565b608082015260a08501519093506001600160401b0381111562000ef157600080fd5b62000eff8682870162000ce1565b92505062000f118560c0860162000df8565b90509250925092565b634e487b7160e01b600052603260045260246000fd5b634e487b7160e01b600052601160045260246000fd5b60006001820162000f5b5762000f5b62000f30565b5060010190565b60006020828403121562000f7557600080fd5b62000f808262000bf9565b9392505050565b6000821982111562000f9d5762000f9d62000f30565b500190565b600181811c9082168062000fb757607f821691505b60208210810362000fd857634e487b7160e01b600052602260045260246000fd5b50919050565b60805160a05160c05160e0516101005161012051610140516152376200118260003960008181610705015281816140a70152818161418701526141c20152600081816106de0152818161132001528181612bd101528181612c6701528181613293015281816133a501528181613d5c01526145d001526000818161052501528181612b7001528181612c9c015281816132c80152818161427b015281816143820152818161440e015261460501526000818161062301528181612b9101528181612cec015281816133180152614655015260008181611f1501528181613e6801528181613e9701528181613f0c015281816140d90152818161415101526141f4015260008181610adf01528181611ea601528181611f3f01528181611fa90152818161212201528181613094015281816130d2015281816137200152818161377b01528181613dbc01528181613f3601526140160152600081816109b901528181610d7201528181610ea301528181611c1a01528181611caf01528181612cc401528181612f43015281816132f00152818161457c015261462d01526152376000f3fe608060405234801561001057600080fd5b50600436106104a85760003560e01c80638b73e6061161026b578063b9e57b8011610150578063dd8ce4d6116100c8578063ec55688911610097578063f2fde38b1161007c578063f2fde38b14610ac7578063f7c618c114610ada578063fdb5a03e14610b0157600080fd5b8063ec55688914610aac578063ed24911d14610abf57600080fd5b8063dd8ce4d614610a60578063e21ac82514610a73578063e75ab04514610a86578063eab89a5a14610a9957600080fd5b8063cff1b6ef1161011f578063d505accf11610104578063d505accf14610a01578063da09c72c14610a14578063dd62ed3e14610a2757600080fd5b8063cff1b6ef146109db578063d0ed26ae146109ee57600080fd5b8063b9e57b801461099b578063bd079f55146109a3578063c4b24a46146109ac578063c89039c5146109b457600080fd5b8063a4d5e67c116101e3578063aaeb142b116101b2578063ac0d31ff11610197578063ac0d31ff14610968578063b52a321f1461097b578063b6b55f251461098857600080fd5b8063aaeb142b1461093a578063abff19631461095557600080fd5b8063a4d5e67c1461089f578063a5534e71146108b2578063a8ae2b7c14610914578063a9059cbb1461092757600080fd5b80639291d5631161023a57806399729ec11161021f57806399729ec1146108525780639e4e7318146108655780639f0237b11461088c57600080fd5b80639291d5631461083757806395d89b411461084a57600080fd5b80638b73e606146107ef5780638c04166f146108025780638da5cb5b1461080b5780638dc1564a1461081c57600080fd5b80634a970be711610391578063789139bc116103095780637ecebe00116102d85780638980f11f116102bd5780638980f11f146107b857806389a30271146107cb5780638aff733d146107e657600080fd5b80637ecebe001461078557806381837230146107a557600080fd5b8063789139bc1461075857806379085425146107615780637ae267731461076a5780637d8820971461077d57600080fd5b80635ea682ea11610360578063633afd2811610345578063633afd281461070057806370a0823114610727578063715018a61461075057600080fd5b80635ea682ea146106d05780635eaec0e4146106d957600080fd5b80634a970be7146106845780634bebd1e7146106975780634e77ace5146106aa5780634ebb7916146106bd57600080fd5b8063247d284b11610424578063313ce567116103f35780633bdc6e72116103d85780633bdc6e721461064557806340b47e1a1461064e578063483c2ef01461066157600080fd5b8063313ce5671461060457806338d52e0f1461061e57600080fd5b8063247d284b146105a25780632e1a7d4d146105b55780632f4f21e2146105ca57806330adf81f146105dd57600080fd5b8063110560351161047b57806318160ddd1161046057806318160ddd1461055f57806320606b701461056857806323b872dd1461058f57600080fd5b8063110560351461050d57806316f0115b1461052057600080fd5b806306fdde03146104ad57806307677111146104cb578063095ea7b3146104e25780630f23475d14610505575b600080fd5b6104b5610b09565b6040516104c29190614b92565b60405180910390f35b6104d4600d5481565b6040519081526020016104c2565b6104f56104f0366004614bba565b610b97565b60405190151581526020016104c2565b6104d4610bae565b6104d461051b366004614be6565b610bd9565b6105477f000000000000000000000000000000000000000000000000000000000000000081565b6040516001600160a01b0390911681526020016104c2565b6104d460025481565b6104d47f8b73c3c69bb8fe3d512ecc4cf759cc79239f7b179b0ffacaa9a75d522b39400f81565b6104f561059d366004614bff565b610be4565b6104d46105b0366004614be6565b610cad565b6105c86105c3366004614be6565b610cb8565b005b6105c86105d8366004614bba565b610ddf565b6104d47f6e71edae12b1b97f4d1f60370fef10105fa2faae0126114a169c64845d6126c981565b61060c601281565b60405160ff90911681526020016104c2565b6105477f000000000000000000000000000000000000000000000000000000000000000081565b6104d460075481565b6105c861065c366004614c40565b610ded565b6104f561066f366004614c79565b60086020526000908152604090205460ff1681565b6105c8610692366004614cac565b610e4a565b6105c86106a5366004614c79565b610f18565b6105c86106b8366004614d01565b611035565b6105c86106cb366004614be6565b6110dc565b6104d4600f5481565b6104d47f000000000000000000000000000000000000000000000000000000000000000081565b6105477f000000000000000000000000000000000000000000000000000000000000000081565b6104d4610735366004614c79565b6001600160a01b031660009081526004602052604090205490565b6105c8611196565b6104d4600b5481565b6104d460125481565b6105c8610778366004614c40565b611228565b6104d46112ec565b6104d4610793366004614c79565b60056020526000908152604090205481565b6105c86107b3366004614be6565b61139d565b6105c86107c6366004614bba565b611426565b61054773b97ef9ef8734c71904d8002f8b6bc66dd9c48a6e81565b6104d4600e5481565b6105c86107fd366004614c79565b6114d6565b6104d460145481565b6006546001600160a01b0316610547565b6105477322d4002028f537599be9f666d1c4fa138522f9c881565b6105c8610845366004614c79565b611692565b6104b561174c565b6105c8610860366004614be6565b611759565b6104d47fc89efdaa54c0f20c7adf612882df0950f5a951637e0307cdcb4c672f298b8bc681565b6105c861089a366004614c79565b6117fe565b6105c86108ad366004614c79565b611868565b6108ee6108c0366004614c79565b6010602052600090815260409020805460018201546002909201546001600160a01b03918216929091169083565b604080516001600160a01b039485168152939092166020840152908201526060016104c2565b6105c8610922366004614be6565b611ab2565b6104f5610935366004614bba565b611b57565b61054773dacde03d7ab4d81feddc3a20faa89abac9072ce281565b6105c8610963366004614be6565b611b64565b6105c8610976366004614d1e565b611bba565b600c546104f59060ff1681565b6105c8610996366004614be6565b611e2c565b6104d4611e39565b6104d4600a5481565b6104d4611e78565b6105477f000000000000000000000000000000000000000000000000000000000000000081565b6105c86109e9366004614be6565b6121b8565b6105c86109fc366004614bff565b61224c565b6105c8610a0f366004614d43565b6122ad565b600954610547906001600160a01b031681565b6104d4610a35366004614c40565b6001600160a01b03918216600090815260036020908152604080832093909416825291909152205490565b6104d4610a6e366004614be6565b6123c0565b6105c8610a81366004614be6565b612400565b610547610a94366004614be6565b612489565b6104d4610aa7366004614be6565b6124b3565b601354610547906001600160a01b031681565b6104d46124ed565b6105c8610ad5366004614c79565b61258d565b6105477f000000000000000000000000000000000000000000000000000000000000000081565b6105c86126ad565b60008054610b1690614db1565b80601f0160208091040260200160405190810160405280929190818152602001828054610b4290614db1565b8015610b8f5780601f10610b6457610100808354040283529160200191610b8f565b820191906000526020600020905b815481529060010190602001808311610b7257829003601f168201915b505050505081565b6000610ba433848461291d565b5060015b92915050565b600080610bb96112ec565b90506000610bc682612a2b565b9050610bd28183614e01565b9250505090565b6000610ba882612a2b565b6001600160a01b038316600081815260036020908152604080832033808552925282205491929091908214801590610c1e57506000198114155b15610c94576000610c2f8583614e01565b6001600160a01b038881166000818152600360209081526040808320948916808452948252918290208590559051848152939450919290917f8c5be1e5ebec7d5bd14f71427d1e84f3dd0314c0f7b2291e5b200ac8c7c3b925910160405180910390a3505b610c9f868686612a45565b6001925050505b9392505050565b6000610ba882612b69565b6000610cc3826124b3565b905060008111610d405760405162461bcd60e51b815260206004820152603060248201527f5661726961626c655265776172647353747261746567793a3a5769746864726160448201527f7720616d6f756e7420746f6f206c6f770000000000000000000000000000000060648201526084015b60405180910390fd5b6000610d4b82612bb6565b90506000610d5883612a2b565b9050610d9933610d688385614e01565b6001600160a01b037f0000000000000000000000000000000000000000000000000000000000000000169190612d4e565b610da33385612dce565b60405183815233907f884edad9ce6fa2440d8a54cc123490eb96d2768479d49ff9c7366125a9424364906020015b60405180910390a250505050565b610de98282612e62565b5050565b6009546001600160a01b03163314610e3e5760405162461bcd60e51b81526020600482015260146024820152732cb0b5a9ba3930ba32b3bc9d1d37b7363ca232bb60611b6044820152606401610d37565b610de982826003613092565b6040517fd505accf000000000000000000000000000000000000000000000000000000008152336004820152306024820152604481018690526064810185905260ff8416608482015260a4810183905260c481018290527f00000000000000000000000000000000000000000000000000000000000000006001600160a01b03169063d505accf9060e401600060405180830381600087803b158015610eef57600080fd5b505af1158015610f03573d6000803e3d6000fd5b50505050610f113386612e62565b5050505050565b6006546001600160a01b03163314610f605760405162461bcd60e51b815260206004820181905260248201526000805160206151e28339815191526044820152606401610d37565b6001600160a01b03811660009081526008602052604090205460ff1615610fc95760405162461bcd60e51b815260206004820152601c60248201527f5065726d697373696f6e65643a3a616c6c6f774465706f7369746f72000000006044820152606401610d37565b6001600160a01b0381166000908152600860205260409020805460ff19166001908117909155600754610ffb91614e18565b6007556040516001600160a01b038216907fc0a1035c16faf8d1304056d92c00edf028f87e62b8235a938f00af9e3c0312c590600090a250565b6006546001600160a01b0316331461107d5760405162461bcd60e51b815260206004820181905260248201526000805160206151e28339815191526044820152606401610d37565b600c5481151560ff90911615150361109457600080fd5b600c805460ff19168215159081179091556040519081527f7b014ed3854e7f5cb0218d58b3c6ae7d53a68bb0af2f67bfb029ea42c38a7e85906020015b60405180910390a150565b6006546001600160a01b031633146111245760405162461bcd60e51b815260206004820181905260248201526000805160206151e28339815191526044820152606401610d37565b6000811161113157600080fd5b604051339082156108fc029083906000818181858888f1935050505015801561115e573d6000803e3d6000fd5b506040805160008152602081018390527f8c1256b8896378cd5044f80c202f9772b9d77dc85c8a6eb51967210b09bfaa2891016110d1565b6006546001600160a01b031633146111de5760405162461bcd60e51b815260206004820181905260248201526000805160206151e28339815191526044820152606401610d37565b6006546040516000916001600160a01b0316907f8be0079c531659141344cd1fd0a4f28419497f9722a3daafe3b4186f6b6457e0908390a3600680546001600160a01b0319169055565b6006546001600160a01b031633146112705760405162461bcd60e51b815260206004820181905260248201526000805160206151e28339815191526044820152606401610d37565b60405163095ea7b360e01b81526001600160a01b0382811660048301526000602483015283169063095ea7b3906044016020604051808303816000875af11580156112bf573d6000803e3d6000fd5b505050506040513d601f19601f820116820180604052508101906112e39190614e30565b610de957600080fd5b6013546040517f01e1c48d0000000000000000000000000000000000000000000000000000000081526000600482018190527f000000000000000000000000000000000000000000000000000000000000000060248301529182916001600160a01b03909116906301e1c48d90604401602060405180830381865afa158015611379573d6000803e3d6000fd5b505050506040513d601f19601f82011682018060405250810190610ba89190614e4d565b6006546001600160a01b031633146113e55760405162461bcd60e51b815260206004820181905260248201526000805160206151e28339815191526044820152606401610d37565b600a5460408051918252602082018390527f481f79ac3a523b6d6db3c5a720e190e986d1cc1b41adcdf50f9caef849901100910160405180910390a1600a55565b6006546001600160a01b0316331461146e5760405162461bcd60e51b815260206004820181905260248201526000805160206151e28339815191526044820152606401610d37565b6000811161147b57600080fd5b61148f6001600160a01b0383163383612d4e565b604080516001600160a01b0384168152602081018390527f8c1256b8896378cd5044f80c202f9772b9d77dc85c8a6eb51967210b09bfaa2891015b60405180910390a15050565b6006546001600160a01b0316331461151e5760405162461bcd60e51b815260206004820181905260248201526000805160206151e28339815191526044820152606401610d37565b6000600754116115965760405162461bcd60e51b815260206004820152603460248201527f5065726d697373696f6e65643a3a72656d6f76654465706f7369746f722c206e60448201527f6f20616c6c6f776564206465706f7369746f72730000000000000000000000006064820152608401610d37565b6001600160a01b03811660009081526008602052604090205460ff1615156001146116295760405162461bcd60e51b815260206004820152602a60248201527f5065726d697373696f6e65643a3a72656d6f76654465706f7369746f722c206e60448201527f6f7420616c6c6f776564000000000000000000000000000000000000000000006064820152608401610d37565b6001600160a01b0381166000908152600860205260409020805460ff1916905560075461165890600190614e01565b6007556040516001600160a01b038216907f0e86f6608b536e5339a25b65ff531f5ea91e1313d056ecd4752b35cbd16137d490600090a250565b6009546001600160a01b031633146116e35760405162461bcd60e51b81526020600482015260146024820152732cb0b5a9ba3930ba32b3bc9d1d37b7363ca232bb60611b6044820152606401610d37565b600954604080516001600160a01b03928316815291831660208301527fa8e91499ed37682f43cffb045fcc7d379a91e8c9a14e6321877ee34dee564c00910160405180910390a1600980546001600160a01b0319166001600160a01b0392909216919091179055565b60018054610b1690614db1565b6006546001600160a01b031633146117a15760405162461bcd60e51b815260206004820181905260248201526000805160206151e28339815191526044820152606401610d37565b612710600e54826117b29190614e18565b11156117bd57600080fd5b600f5460408051918252602082018390527f2a42303d002f0ba6cfe8259c91d4684443fb0b3de286ba74991175d651726131910160405180910390a1600f55565b6006546001600160a01b031633146118465760405162461bcd60e51b815260206004820181905260248201526000805160206151e28339815191526044820152606401610d37565b601380546001600160a01b0319166001600160a01b0392909216919091179055565b6009546001600160a01b031633146118b95760405162461bcd60e51b81526020600482015260146024820152732cb0b5a9ba3930ba32b3bc9d1d37b7363ca232bb60611b6044820152606401610d37565b6001600160a01b038116600090815260106020526040812080546001600160a01b031990811682556001820180549091169055600201819055805b6011548110156119c0576011818154811061191157611911614e66565b6000918252602090912001546001600160a01b03908116908416036119ae576011805460019350611943908490614e01565b8154811061195357611953614e66565b600091825260209091200154601180546001600160a01b03909216918390811061197f5761197f614e66565b9060005260206000200160006101000a8154816001600160a01b0302191690836001600160a01b031602179055505b806119b881614e7c565b9150506118f4565b5080611a345760405162461bcd60e51b815260206004820152603460248201527f5661726961626c655265776172647353747261746567793a3a5265776172642060448201527f746f2064656c657465206e6f7420666f756e64210000000000000000000000006064820152608401610d37565b6011805480611a4557611a45614e95565b600082815260209020810160001990810180546001600160a01b0319169055019055601254611a7690600190614e01565b6012556040516001600160a01b03831681527f963b7c735475147a62c589c2d7cb8ec4b0a6b7af4f97373d79ebfa42ab8aa7dc906020016114ca565b6006546001600160a01b03163314611afa5760405162461bcd60e51b815260206004820181905260248201526000805160206151e28339815191526044820152606401610d37565b612710600f5482611b0b9190614e18565b1115611b1657600080fd5b600e5460408051918252602082018390527fe7f97d51d307dc44045597c9978bec0f842e6bb40d19b9444084cfa30d9ed4f2910160405180910390a1600e55565b6000610ba4338484612a45565b6009546001600160a01b03163314611bb55760405162461bcd60e51b81526020600482015260146024820152732cb0b5a9ba3930ba32b3bc9d1d37b7363ca232bb60611b6044820152606401610d37565b601455565b6006546001600160a01b03163314611c025760405162461bcd60e51b815260206004820181905260248201526000805160206151e28339815191526044820152606401610d37565b6040516370a0823160e01b81523060048201526000907f00000000000000000000000000000000000000000000000000000000000000006001600160a01b0316906370a0823190602401602060405180830381865afa158015611c69573d6000803e3d6000fd5b505050506040513d601f19601f82011682018060405250810190611c8d9190614e4d565b9050611c97613268565b6040516370a0823160e01b81523060048201526000907f00000000000000000000000000000000000000000000000000000000000000006001600160a01b0316906370a0823190602401602060405180830381865afa158015611cfe573d6000803e3d6000fd5b505050506040513d601f19601f82011682018060405250810190611d229190614e4d565b905083611d2f8383614e01565b1015611dc95760405162461bcd60e51b815260206004820152604d60248201527f5661726961626c655265776172647353747261746567793a3a456d657267656e60448201527f6379207769746864726177206d696e696d756d2072657475726e20616d6f756e60648201527f74206e6f74207265616368656400000000000000000000000000000000000000608482015260a401610d37565b7fc7606d21ac05cd309191543e409f0845c016120563783d70e4f41419dc0ef234611df26112ec565b6002546040805192835260208301919091520160405180910390a1600c5460ff161515600103611e2657611e266000611035565b50505050565b611e363382612e62565b50565b600080611e44611e78565b9050600a548110611e7057612710600e5482611e609190614eab565b611e6a9190614ee0565b91505090565b600091505090565b600080611e8361337a565b6040516370a0823160e01b81523060048201529091506000906001600160a01b037f000000000000000000000000000000000000000000000000000000000000000016906370a0823190602401602060405180830381865afa158015611eed573d6000803e3d6000fd5b505050506040513d601f19601f82011682018060405250810190611f119190614e4d565b90507f00000000000000000000000000000000000000000000000000000000000000006001600160a01b03167f00000000000000000000000000000000000000000000000000000000000000006001600160a01b031603611f7957611f764782614e18565b90505b60005b82518110156121b1576000838281518110611f9957611f99614e66565b60200260200101516000015190507f00000000000000000000000000000000000000000000000000000000000000006001600160a01b0316816001600160a01b03160361201057838281518110611ff257611ff2614e66565b602002602001015160200151836120099190614e18565b925061219e565b6001600160a01b0381161561219e576040516370a0823160e01b81523060048201526000906001600160a01b038316906370a0823190602401602060405180830381865afa158015612066573d6000803e3d6000fd5b505050506040513d601f19601f8201168201806040525081019061208a9190614e4d565b905060008584815181106120a0576120a0614e66565b602002602001015160200151826120b79190614e18565b90506000601060008887815181106120d1576120d1614e66565b602090810291909101810151516001600160a01b0390811683529082019290925260400160002060010154169050811580159061211657506001600160a01b03811615155b1561219a5761218d82857f000000000000000000000000000000000000000000000000000000000000000084601060008d8c8151811061215857612158614e66565b6020026020010151600001516001600160a01b03166001600160a01b0316815260200190815260200160002060020154613429565b6121979087614e18565b95505b5050505b50806121a981614e7c565b915050611f7c565b5092915050565b6006546001600160a01b031633146122005760405162461bcd60e51b815260206004820181905260248201526000805160206151e28339815191526044820152606401610d37565b801561220b57600080fd5b600d5460408051918252602082018390527f3cc372f330f95ac9540626dc8a25f5bf21ba607215a5d58304cb804d446f104a910160405180910390a1600d55565b6009546001600160a01b0316331461229d5760405162461bcd60e51b81526020600482015260146024820152732cb0b5a9ba3930ba32b3bc9d1d37b7363ca232bb60611b6044820152606401610d37565b6122a8838383613092565b505050565b428410156122fd5760405162461bcd60e51b815260206004820152600f60248201527f7065726d69743a3a6578706972656400000000000000000000000000000000006044820152606401610d37565b6001600160a01b038716600090815260056020526040812080547f6e71edae12b1b97f4d1f60370fef10105fa2faae0126114a169c64845d6126c9918a918a918a91908661234a83614e7c565b909155506040805160208101969096526001600160a01b0394851690860152929091166060840152608083015260a082015260c0810186905260e0016040516020818303038152906040528051906020012090506123ab88828686866134f9565b6123b688888861291d565b5050505050505050565b6000600254600014806123d857506123d66112ec565b155b156123e1575090565b6123e96112ec565b6002546123f69084614eab565b610ba89190614ee0565b6006546001600160a01b031633146124485760405162461bcd60e51b815260206004820181905260248201526000805160206151e28339815191526044820152606401610d37565b600b5460408051918252602082018390527fa5dae50539d56dfe1fb5273d883b0c39bc76750a25d036fc5fbd09ad8fd5f57f910160405180910390a1600b55565b6011818154811061249957600080fd5b6000918252602090912001546001600160a01b0316905081565b6000600254600014806124cb57506124c96112ec565b155b156124d857506000919050565b6002546124e36112ec565b6123f69084614eab565b60007f8b73c3c69bb8fe3d512ecc4cf759cc79239f7b179b0ffacaa9a75d522b39400f60001b60006040516125229190614ef4565b6040519081900390207fc89efdaa54c0f20c7adf612882df0950f5a951637e0307cdcb4c672f298b8bc646604080516020810195909552840192909252606083015260808201523060a082015260c00160405160208183030381529060405280519060200120905090565b6006546001600160a01b031633146125d55760405162461bcd60e51b815260206004820181905260248201526000805160206151e28339815191526044820152606401610d37565b6001600160a01b0381166126515760405162461bcd60e51b815260206004820152602660248201527f4f776e61626c653a206e6577206f776e657220697320746865207a65726f206160448201527f64647265737300000000000000000000000000000000000000000000000000006064820152608401610d37565b6006546040516001600160a01b038084169216907f8be0079c531659141344cd1fd0a4f28419497f9722a3daafe3b4186f6b6457e090600090a3600680546001600160a01b0319166001600160a01b0392909216919091179055565b3233146126fc5760405162461bcd60e51b815260206004820152601460248201527f59616b53747261746567793a3a6f6e6c79454f410000000000000000000000006044820152606401610d37565b6127066000613659565b565b6000836001600160a01b0316630dfe16816040518163ffffffff1660e01b8152600401602060405180830381865afa158015612748573d6000803e3d6000fd5b505050506040513d601f19601f8201168201806040525081019061276c9190614f8f565b6001600160a01b0316836001600160a01b031614806127fd5750836001600160a01b031663d21220a76040518163ffffffff1660e01b8152600401602060405180830381865afa1580156127c4573d6000803e3d6000fd5b505050506040513d601f19601f820116820180604052508101906127e89190614f8f565b6001600160a01b0316836001600160a01b0316145b80156128f75750836001600160a01b0316630dfe16816040518163ffffffff1660e01b8152600401602060405180830381865afa158015612842573d6000803e3d6000fd5b505050506040513d601f19601f820116820180604052508101906128669190614f8f565b6001600160a01b0316826001600160a01b031614806128f75750836001600160a01b031663d21220a76040518163ffffffff1660e01b8152600401602060405180830381865afa1580156128be573d6000803e3d6000fd5b505050506040513d601f19601f820116820180604052508101906128e29190614f8f565b6001600160a01b0316826001600160a01b0316145b80156129155750816001600160a01b0316836001600160a01b031614155b949350505050565b6001600160a01b0383166129735760405162461bcd60e51b815260206004820152601c60248201527f5f617070726f76653a3a6f776e6572207a65726f2061646472657373000000006044820152606401610d37565b6001600160a01b0382166129c95760405162461bcd60e51b815260206004820152601e60248201527f5f617070726f76653a3a7370656e646572207a65726f206164647265737300006044820152606401610d37565b6001600160a01b0383811660008181526003602090815260408083209487168084529482529182902085905590518481527f8c5be1e5ebec7d5bd14f71427d1e84f3dd0314c0f7b2291e5b200ac8c7c3b92591015b60405180910390a3505050565b600080612710612a3b8285614eab565b610ca69190614ee0565b6001600160a01b038216612ac15760405162461bcd60e51b815260206004820152603460248201527f5f7472616e73666572546f6b656e733a2063616e6e6f74207472616e7366657260448201527f20746f20746865207a65726f20616464726573730000000000000000000000006064820152608401610d37565b6001600160a01b038316600090815260046020526040902054612ae5908290614e01565b6001600160a01b038085166000908152600460205260408082209390935590841681522054612b15908290614e18565b6001600160a01b0380841660008181526004602052604090819020939093559151908516907fddf252ad1be2c89b69c2b068fc378daa952ba7f163c4a11628f55a4df523b3ef90612a1e9085815260200190565b6000610ba87f00000000000000000000000000000000000000000000000000000000000000007f000000000000000000000000000000000000000000000000000000000000000084613826565b6013546040516305d38c7160e21b81526000600482018190527f00000000000000000000000000000000000000000000000000000000000000006024830152916001600160a01b03169063174e31c490604401600060405180830381600087803b158015612c2357600080fd5b505af1158015612c37573d6000803e3d6000fd5b50506013546014546040517fa530882e0000000000000000000000000000000000000000000000000000000081527f00000000000000000000000000000000000000000000000000000000000000006004820152600060248201526001600160a01b037f0000000000000000000000000000000000000000000000000000000000000000811660448301527f0000000000000000000000000000000000000000000000000000000000000000811660648301527f00000000000000000000000000000000000000000000000000000000000000008116608483015260a482019290925260c481018790529116925063a530882e915060e4016020604051808303816000875af1158015611379573d6000803e3d6000fd5b604080516001600160a01b038416602482015260448082018490528251808303909101815260649091019091526020810180517bffffffffffffffffffffffffffffffffffffffffffffffffffffffff167fa9059cbb000000000000000000000000000000000000000000000000000000001790526122a8908490613a7d565b6001600160a01b038216600090815260046020526040902054612df2908290614e01565b6001600160a01b038316600090815260046020526040902055600254612e19908290614e01565b6002556040518181526000906001600160a01b038416907fddf252ad1be2c89b69c2b068fc378daa952ba7f163c4a11628f55a4df523b3ef906020015b60405180910390a35050565b600c5460ff161515600114612edf5760405162461bcd60e51b815260206004820152602a60248201527f5661726961626c655265776172647353747261746567793a3a4465706f73697460448201527f732064697361626c6564000000000000000000000000000000000000000000006064820152608401610d37565b600b548015612f08576000612ef2611e78565b905081811115612f0657612f066001613659565b505b6040517f23b872dd000000000000000000000000000000000000000000000000000000008152336004820152306024820152604481018390527f00000000000000000000000000000000000000000000000000000000000000006001600160a01b0316906323b872dd906064016020604051808303816000875af1158015612f94573d6000803e3d6000fd5b505050506040513d601f19601f82011682018060405250810190612fb89190614e30565b61302a5760405162461bcd60e51b815260206004820152603660248201527f5661726961626c655265776172647353747261746567793a3a4465706f73697460448201527f20746f6b656e207472616e73666572206661696c6564000000000000000000006064820152608401610d37565b600061303583612b69565b905061304d84613048610a6e8487614e01565b613b62565b6130578382613c38565b836001600160a01b03167fe1fffcc4923d04b559f4d29a8bfc6cda04eb5b0d3c460751c2402c5c5cc9109c84604051610dd191815260200190565b7f00000000000000000000000000000000000000000000000000000000000000006001600160a01b0316836001600160a01b03161461316a576130f682847f0000000000000000000000000000000000000000000000000000000000000000612708565b61316a576040805162461bcd60e51b81526020600482015260248101919091527f5661726961626c655265776172647353747261746567793a3a5377617020706160448201527f697220646f6573206e6f7420636f6e7461696e2072657761726420746f6b656e6064820152608401610d37565b604080516060810182526001600160a01b03808616808352858216602080850191825284860187815260008481526010909252958120945185549085166001600160a01b03199182161786559151600180870180549290961691841691909117909455945160029094019390935560118054808401825594527f31ecc21a745e3968a04e9570e4425bc18fa8019c68028196b546d1669c200c689093018054909216909217905560125461321d91614e18565b601255604080516001600160a01b038086168252841660208201527f916e172c080569186aa7ea048268267257cf7cc49505908863f747bca8620f80910160405180910390a1505050565b6013546040517f02eb6f7e0000000000000000000000000000000000000000000000000000000081527f00000000000000000000000000000000000000000000000000000000000000006004820152600060248201526001600160a01b037f0000000000000000000000000000000000000000000000000000000000000000811660448301527f0000000000000000000000000000000000000000000000000000000000000000811660648301527f000000000000000000000000000000000000000000000000000000000000000081166084830152909116906302eb6f7e9060a4015b600060405180830381600087803b15801561336657600080fd5b505af1158015611e26573d6000803e3d6000fd5b6013546040517f7dcb2abf0000000000000000000000000000000000000000000000000000000081527f000000000000000000000000000000000000000000000000000000000000000060048201526060916001600160a01b031690637dcb2abf90602401600060405180830381865afa1580156133fc573d6000803e3d6000fd5b505050506040513d6000823e601f3d908101601f19168201604052613424919081019061501c565b905090565b6000806134368686613cb8565b509050600080856001600160a01b0316630902f1ac6040518163ffffffff1660e01b8152600401606060405180830381865afa15801561347a573d6000803e3d6000fd5b505050506040513d601f19601f8201168201806040525081019061349e9190615105565b5091509150876001600160a01b0316836001600160a01b0316146134be57905b6134ea89836dffffffffffffffffffffffffffff16836dffffffffffffffffffffffffffff1688613ce9565b93505050505b95945050505050565b60006135036124ed565b6040517f1901000000000000000000000000000000000000000000000000000000000000602082015260228101919091526042810186905260620160408051601f198184030181528282528051602091820120600080855291840180845281905260ff88169284019290925260608301869052608083018590529092509060019060a0016020604051602081039080840390855afa1580156135a9573d6000803e3d6000fd5b5050604051601f1901519150506001600160a01b038116158015906135df5750866001600160a01b0316816001600160a01b0316145b6136505760405162461bcd60e51b8152602060048201526024808201527f417263683a3a76616c69646174655369673a20696e76616c6964207369676e6160448201527f74757265000000000000000000000000000000000000000000000000000000006064820152608401610d37565b50505050505050565b613661613d43565b600061366b613d9a565b9050816136ea57600a548110156136ea5760405162461bcd60e51b815260206004820152603060248201527f5661726961626c655265776172647353747261746567793a3a5265696e76657360448201527f7420616d6f756e7420746f6f206c6f77000000000000000000000000000000006064820152608401610d37565b6000612710600f54836136fd9190614eab565b6137079190614ee0565b9050801561374957600954613749906001600160a01b037f00000000000000000000000000000000000000000000000000000000000000008116911683612d4e565b6000612710600e548461375c9190614eab565b6137669190614ee0565b905080156137a2576137a26001600160a01b037f0000000000000000000000000000000000000000000000000000000000000000163383612d4e565b60006137c1826137b28587614e01565b6137bc9190614e01565b614090565b905060006137ce82612b69565b90506137da8282613c38565b7fc7606d21ac05cd309191543e409f0845c016120563783d70e4f41419dc0ef2346138036112ec565b6002546040805192835260208301919091520160405180910390a1505050505050565b6000612915846001600160a01b03166355af008a6040518163ffffffff1660e01b8152600401602060405180830381865afa158015613869573d6000803e3d6000fd5b505050506040513d601f19601f8201168201806040525081019061388d9190614e4d565b856001600160a01b0316637727c6556040518163ffffffff1660e01b8152600401602060405180830381865afa1580156138cb573d6000803e3d6000fd5b505050506040513d601f19601f820116820180604052508101906138ef9190614e4d565b866001600160a01b031663a76f54d26040518163ffffffff1660e01b8152600401602060405180830381865afa15801561392d573d6000803e3d6000fd5b505050506040513d601f19601f820116820180604052508101906139519190614e4d565b876001600160a01b0316637a1c36d16040518163ffffffff1660e01b8152600401602060405180830381865afa15801561398f573d6000803e3d6000fd5b505050506040513d601f19601f820116820180604052508101906139b39190614e4d565b876001600160a01b031663961be3916040518163ffffffff1660e01b8152600401602060405180830381865afa1580156139f1573d6000803e3d6000fd5b505050506040513d601f19601f82011682018060405250810190613a159190614e4d565b886001600160a01b031663705727b56040518163ffffffff1660e01b8152600401602060405180830381865afa158015613a53573d6000803e3d6000fd5b505050506040513d601f19601f82011682018060405250810190613a779190614e4d565b886144a6565b6000613ad2826040518060400160405280602081526020017f5361666545524332303a206c6f772d6c6576656c2063616c6c206661696c6564815250856001600160a01b031661455c9092919063ffffffff16565b8051909150156122a85780806020019051810190613af09190614e30565b6122a85760405162461bcd60e51b815260206004820152602a60248201527f5361666545524332303a204552433230206f7065726174696f6e20646964206e60448201527f6f742073756363656564000000000000000000000000000000000000000000006064820152608401610d37565b60008111613bb25760405162461bcd60e51b815260206004820152601260248201527f5f6d696e743a3a7a65726f2073686172657300000000000000000000000000006044820152606401610d37565b80600254613bc09190614e18565b6002556001600160a01b038216600090815260046020526040902054613be7908290614e18565b6001600160a01b0383166000818152600460205260408082209390935591519091907fddf252ad1be2c89b69c2b068fc378daa952ba7f163c4a11628f55a4df523b3ef90612e569085815260200190565b60008211613cae5760405162461bcd60e51b815260206004820152602d60248201527f5661726961626c655265776172647353747261746567793a3a5374616b65206160448201527f6d6f756e7420746f6f206c6f77000000000000000000000000000000000000006064820152608401610d37565b610de9828261456b565b600080826001600160a01b0316846001600160a01b031610613cdb578284613cde565b83835b915091509250929050565b600080613cf8836103e8614e01565b613d029087614eab565b90506000613d108583614eab565b9050600082613d21886103e8614eab565b613d2b9190614e18565b9050613d378183614ee0565b98975050505050505050565b6013546040516305d38c7160e21b8152600060048201527f000000000000000000000000000000000000000000000000000000000000000060248201526001600160a01b039091169063174e31c49060440161334c565b6040516370a0823160e01b815230600482015260009081906001600160a01b037f000000000000000000000000000000000000000000000000000000000000000016906370a0823190602401602060405180830381865afa158015613e03573d6000803e3d6000fd5b505050506040513d601f19601f82011682018060405250810190613e279190614e4d565b60115490915060005b8181101561408857600060118281548110613e4d57613e4d614e66565b6000918252602090912001546001600160a01b0390811691507f0000000000000000000000000000000000000000000000000000000000000000168103613f7857478015613f0a577f00000000000000000000000000000000000000000000000000000000000000006001600160a01b031663d0e30db0826040518263ffffffff1660e01b81526004016000604051808303818588803b158015613ef057600080fd5b505af1158015613f04573d6000803e3d6000fd5b50505050505b7f00000000000000000000000000000000000000000000000000000000000000006001600160a01b03167f00000000000000000000000000000000000000000000000000000000000000006001600160a01b031603613f7657613f6d8186614e18565b94505050614076565b505b6040516370a0823160e01b81523060048201526000906001600160a01b038316906370a0823190602401602060405180830381865afa158015613fbf573d6000803e3d6000fd5b505050506040513d601f19601f82011682018060405250810190613fe39190614e4d565b90508015614073576001600160a01b038083166000908152601060205260409020600101541680156140715761406482847f00000000000000000000000000000000000000000000000000000000000000008460106000896001600160a01b03166001600160a01b03168152602001908152602001600020600201546146cc565b61406e9087614e18565b95505b505b50505b8061408081614e7c565b915050613e30565b509092915050565b60405163095ea7b360e01b81526001600160a01b037f000000000000000000000000000000000000000000000000000000000000000081166004830152602482018390526000917f00000000000000000000000000000000000000000000000000000000000000009091169063095ea7b3906044016020604051808303816000875af1158015614124573d6000803e3d6000fd5b505050506040513d601f19601f820116820180604052508101906141489190614e30565b5060006141ab837f000000000000000000000000000000000000000000000000000000000000000073b97ef9ef8734c71904d8002f8b6bc66dd9c48a6e7f0000000000000000000000000000000000000000000000000000000000000000614869565b60405163095ea7b360e01b81526001600160a01b037f000000000000000000000000000000000000000000000000000000000000000081166004830152600060248301529192507f00000000000000000000000000000000000000000000000000000000000000009091169063095ea7b3906044016020604051808303816000875af115801561423f573d6000803e3d6000fd5b505050506040513d601f19601f820116820180604052508101906142639190614e30565b5060405163095ea7b360e01b81526001600160a01b037f00000000000000000000000000000000000000000000000000000000000000001660048201526024810182905273b97ef9ef8734c71904d8002f8b6bc66dd9c48a6e9063095ea7b3906044016020604051808303816000875af11580156142e5573d6000803e3d6000fd5b505050506040513d601f19601f820116820180604052508101906143099190614e30565b506040517f9908fc8b00000000000000000000000000000000000000000000000000000000815273b97ef9ef8734c71904d8002f8b6bc66dd9c48a6e600482015273dacde03d7ab4d81feddc3a20faa89abac9072ce26024820152604481018290526000606482015230608482015260001960a48201527f00000000000000000000000000000000000000000000000000000000000000006001600160a01b031690639908fc8b9060c40160408051808303816000875af11580156143d2573d6000803e3d6000fd5b505050506040513d601f19601f820116820180604052508101906143f69190615155565b5060405163095ea7b360e01b81526001600160a01b037f00000000000000000000000000000000000000000000000000000000000000001660048201526000602482015290925073b97ef9ef8734c71904d8002f8b6bc66dd9c48a6e9063095ea7b3906044016020604051808303816000875af115801561447b573d6000803e3d6000fd5b505050506040513d601f19601f8201168201806040525081019061449f9190614e30565b5050919050565b6000826000036144b857506000614551565b60006144c48585614879565b9050670de0b6b3a764000081116144df576000915050614551565b60006144fe6144ee8587614e18565b6144f88689614e18565b90614879565b9050600061450f8b8b8b8b876148a3565b905060006145208c8c8c8c876148a3565b905061452c8783614911565b6145408261453a898b614e18565b90614911565b61454a9190614e01565b9450505050505b979650505050505050565b60606129158484600085614931565b6013546145a5906001600160a01b037f00000000000000000000000000000000000000000000000000000000000000008116911684612d4e565b6013546040517f529ebc7d0000000000000000000000000000000000000000000000000000000081527f00000000000000000000000000000000000000000000000000000000000000006004820152600060248201526001600160a01b037f0000000000000000000000000000000000000000000000000000000000000000811660448301527f0000000000000000000000000000000000000000000000000000000000000000811660648301527f00000000000000000000000000000000000000000000000000000000000000008116608483015260a4820185905260c482018490529091169063529ebc7d9060e401600060405180830381600087803b1580156146b057600080fd5b505af11580156146c4573d6000803e3d6000fd5b505050505050565b6000806146d98686613cb8565b509050600080856001600160a01b0316630902f1ac6040518163ffffffff1660e01b8152600401606060405180830381865afa15801561471d573d6000803e3d6000fd5b505050506040513d601f19601f820116820180604052508101906147419190615105565b5091509150876001600160a01b0316836001600160a01b03161461476157905b6000806147908b856dffffffffffffffffffffffffffff16856dffffffffffffffffffffffffffff168a613ce9565b9050896001600160a01b0316856001600160a01b0316146147ad57905b6147c16001600160a01b038b16898d612d4e565b604080516000815260208101918290527f022c0d9f000000000000000000000000000000000000000000000000000000009091526001600160a01b0389169063022c0d9f906148199085908590309060248101615179565b600060405180830381600087803b15801561483357600080fd5b505af1158015614847573d6000803e3d6000fd5b50505050818111614858578161485a565b805b9b9a5050505050505050505050565b60006134f08585858560036146cc565b600081614887600282614ee0565b614899670de0b6b3a764000086614eab565b612a3b9190614e18565b6000828210156148be576148b78285614e01565b90506134f0565b6148b76b033b2e3c9fd0803ce8000000670de0b6b3a76400006148f688826148e68589614eab565b6148f09190614ee0565b90614a6e565b6149009190614eab565b61490a9190614ee0565b8790614879565b6000670de0b6b3a7640000614927600282614ee0565b6148998486614eab565b6060824710156149a95760405162461bcd60e51b815260206004820152602660248201527f416464726573733a20696e73756666696369656e742062616c616e636520666f60448201527f722063616c6c00000000000000000000000000000000000000000000000000006064820152608401610d37565b6001600160a01b0385163b614a005760405162461bcd60e51b815260206004820152601d60248201527f416464726573733a2063616c6c20746f206e6f6e2d636f6e74726163740000006044820152606401610d37565b600080866001600160a01b03168587604051614a1c91906151b1565b60006040518083038185875af1925050503d8060008114614a59576040519150601f19603f3d011682016040523d82523d6000602084013e614a5e565b606091505b5091509150614551828286614ae7565b6000614a7b6002836151cd565b600003614a94576b033b2e3c9fd0803ce8000000614a96565b825b9050614aa3600283614ee0565b91505b8115610ba857614ab68384614b20565b9250614ac36002836151cd565b15614ad557614ad28184614b20565b90505b614ae0600283614ee0565b9150614aa6565b60608315614af6575081610ca6565b825115614b065782518084602001fd5b8160405162461bcd60e51b8152600401610d379190614b92565b60006b033b2e3c9fd0803ce8000000614927600282614ee0565b60005b83811015614b55578181015183820152602001614b3d565b83811115611e265750506000910152565b60008151808452614b7e816020860160208601614b3a565b601f01601f19169290920160200192915050565b602081526000610ca66020830184614b66565b6001600160a01b0381168114611e3657600080fd5b60008060408385031215614bcd57600080fd5b8235614bd881614ba5565b946020939093013593505050565b600060208284031215614bf857600080fd5b5035919050565b600080600060608486031215614c1457600080fd5b8335614c1f81614ba5565b92506020840135614c2f81614ba5565b929592945050506040919091013590565b60008060408385031215614c5357600080fd5b8235614c5e81614ba5565b91506020830135614c6e81614ba5565b809150509250929050565b600060208284031215614c8b57600080fd5b8135610ca681614ba5565b803560ff81168114614ca757600080fd5b919050565b600080600080600060a08688031215614cc457600080fd5b8535945060208601359350614cdb60408701614c96565b94979396509394606081013594506080013592915050565b8015158114611e3657600080fd5b600060208284031215614d1357600080fd5b8135610ca681614cf3565b60008060408385031215614d3157600080fd5b823591506020830135614c6e81614cf3565b600080600080600080600060e0888a031215614d5e57600080fd5b8735614d6981614ba5565b96506020880135614d7981614ba5565b95506040880135945060608801359350614d9560808901614c96565b925060a0880135915060c0880135905092959891949750929550565b600181811c90821680614dc557607f821691505b602082108103614de557634e487b7160e01b600052602260045260246000fd5b50919050565b634e487b7160e01b600052601160045260246000fd5b600082821015614e1357614e13614deb565b500390565b60008219821115614e2b57614e2b614deb565b500190565b600060208284031215614e4257600080fd5b8151610ca681614cf3565b600060208284031215614e5f57600080fd5b5051919050565b634e487b7160e01b600052603260045260246000fd5b600060018201614e8e57614e8e614deb565b5060010190565b634e487b7160e01b600052603160045260246000fd5b6000816000190483118215151615614ec557614ec5614deb565b500290565b634e487b7160e01b600052601260045260246000fd5b600082614eef57614eef614eca565b500490565b600080835481600182811c915080831680614f1057607f831692505b60208084108203614f2f57634e487b7160e01b86526022600452602486fd5b818015614f435760018114614f5457614f81565b60ff19861689528489019650614f81565b60008a81526020902060005b86811015614f795781548b820152908501908301614f60565b505084890196505b509498975050505050505050565b600060208284031215614fa157600080fd5b8151610ca681614ba5565b634e487b7160e01b600052604160045260246000fd5b6040805190810167ffffffffffffffff81118282101715614fe557614fe5614fac565b60405290565b604051601f8201601f1916810167ffffffffffffffff8111828210171561501457615014614fac565b604052919050565b6000602080838503121561502f57600080fd5b825167ffffffffffffffff8082111561504757600080fd5b818501915085601f83011261505b57600080fd5b81518181111561506d5761506d614fac565b61507b848260051b01614feb565b818152848101925060069190911b83018401908782111561509b57600080fd5b928401925b8184101561455157604084890312156150b95760008081fd5b6150c1614fc2565b84516150cc81614ba5565b815284860151868201528352604090930192918401916150a0565b80516dffffffffffffffffffffffffffff81168114614ca757600080fd5b60008060006060848603121561511a57600080fd5b615123846150e7565b9250615131602085016150e7565b9150604084015163ffffffff8116811461514a57600080fd5b809150509250925092565b6000806040838503121561516857600080fd5b505080516020909101519092909150565b8481528360208201526001600160a01b03831660408201526080606082015260006151a76080830184614b66565b9695505050505050565b600082516151c3818460208701614b3a565b9190910192915050565b6000826151dc576151dc614eca565b50069056fe4f776e61626c653a2063616c6c6572206973206e6f7420746865206f776e6572a264697066735822122079461f2115ba102e5e64d42cf05e772c9abce2430cb5590cb4454c33bad4025164736f6c634300080d00334f776e61626c653a2063616c6c6572206973206e6f7420746865206f776e65728be0079c531659141344cd1fd0a4f28419497f9722a3daafe3b4186f6b6457e0",
  "devdoc": {
    "kind": "dev",
    "methods": {
      "allowDepositor(address)": {
        "params": {
          "depositor": "address"
        }
      },
      "allowance(address,address)": {
        "params": {
          "account": "The address of the account holding the funds",
          "spender": "The address of the account spending the funds"
        },
        "returns": {
          "_0": "The number of tokens approved"
        }
      },
      "approve(address,uint256)": {
        "details": "This will overwrite the approval amount for `spender` and is subject to issues noted [here](https://eips.ethereum.org/EIPS/eip-20#approve) It is recommended to use increaseAllowance and decreaseAllowance instead",
        "params": {
          "amount": "The number of tokens that are approved (2^256-1 means infinite)",
          "spender": "The address of the account which may transfer tokens"
        },
        "returns": {
          "_0": "Whether or not the approval succeeded"
        }
      },
      "balanceOf(address)": {
        "params": {
          "account": "The address of the account to get the balance of"
        },
        "returns": {
          "_0": "The number of tokens held"
        }
      },
      "checkReward()": {
        "returns": {
          "_0": "reward tokens"
        }
      },
      "deposit(uint256)": {
        "params": {
          "_amount": "Amount of tokens to deposit"
        }
      },
      "depositWithPermit(uint256,uint256,uint8,bytes32,bytes32)": {
        "params": {
          "_amount": "Amount of tokens to deposit",
          "_deadline": "The time at which to expire the signature",
          "_r": "Half of the ECDSA signature pair",
          "_s": "Half of the ECDSA signature pair",
          "_v": "The recovery byte of the signature"
        }
      },
      "estimateDeployedBalance()": {
        "returns": {
          "_0": "deposit tokens after withdraw fee"
        }
      },
      "estimateReinvestReward()": {
        "returns": {
          "_0": "reward tokens"
        }
      },
      "getDepositTokensForShares(uint256)": {
        "params": {
          "amount": "receipt tokens"
        },
        "returns": {
          "_0": "deposit tokens"
        }
      },
      "getDomainSeparator()": {
        "returns": {
          "_0": "Separator"
        }
      },
      "getSharesForDepositTokens(uint256)": {
        "details": "If contract is empty, use 1:1 ratioCould return zero shares for very low amounts of deposit tokens",
        "params": {
          "amount": "deposit tokens"
        },
        "returns": {
          "_0": "receipt tokens"
        }
      },
      "owner()": {
        "details": "Returns the address of the current owner."
      },
      "permit(address,address,uint256,uint256,uint8,bytes32,bytes32)": {
        "params": {
          "deadline": "The time at which to expire the signature",
          "owner": "The address to approve from",
          "r": "Half of the ECDSA signature pair",
          "s": "Half of the ECDSA signature pair",
          "spender": "The address to be approved",
          "v": "The recovery byte of the signature",
          "value": "The number of tokens that are approved (2^256-1 means infinite)"
        }
      },
      "recoverAVAX(uint256)": {
        "params": {
          "amount": "amount"
        }
      },
      "recoverERC20(address,uint256)": {
        "params": {
          "tokenAddress": "token address",
          "tokenAmount": "amount to recover"
        }
      },
      "removeDepositor(address)": {
        "params": {
          "depositor": "address"
        }
      },
      "renounceOwnership()": {
        "details": "Leaves the contract without owner. It will not be possible to call `onlyOwner` functions anymore. Can only be called by the current owner. NOTE: Renouncing ownership will leave the contract without an owner, thereby removing any functionality that is only available to the owner."
      },
      "revokeAllowance(address,address)": {
        "params": {
          "spender": "address",
          "token": "address"
        }
      },
      "totalDeposits()": {
        "returns": {
          "_0": "total deposits available on the contract"
        }
      },
      "transfer(address,uint256)": {
        "params": {
          "amount": "The number of tokens to transfer",
          "dst": "The address of the destination account"
        },
        "returns": {
          "_0": "Whether or not the transfer succeeded"
        }
      },
      "transferFrom(address,address,uint256)": {
        "params": {
          "amount": "The number of tokens to transfer",
          "dst": "The address of the destination account",
          "src": "The address of the source account"
        },
        "returns": {
          "_0": "Whether or not the transfer succeeded"
        }
      },
      "transferOwnership(address)": {
        "details": "Transfers ownership of the contract to a new account (`newOwner`). Can only be called by the current owner."
      },
      "updateAdminFee(uint256)": {
        "details": "Deprecated; Kept for compatibility",
        "params": {
          "newValue": "fee in BIPS; required to be 0"
        }
      },
      "updateDepositsEnabled(bool)": {
        "params": {
          "newValue": "bool"
        }
      },
      "updateDevAddr(address)": {
        "params": {
          "newValue": "address"
        }
      },
      "updateDevFee(uint256)": {
        "params": {
          "newValue": "fee in BIPS"
        }
      },
      "updateMaxSwapSlippage(uint256)": {
        "details": "Function name matches interface for FeeCollector"
      },
      "updateMaxTokensToDepositWithoutReinvest(uint256)": {
        "params": {
          "newValue": "threshold"
        }
      },
      "updateMinTokensToReinvest(uint256)": {
        "params": {
          "newValue": "threshold"
        }
      },
      "updateReinvestReward(uint256)": {
        "params": {
          "newValue": "fee in BIPS"
        }
      }
    },
    "version": 1
  },
  "userdoc": {
    "kind": "user",
    "methods": {
      "allowDepositor(address)": {
        "notice": "Add an allowed depositor"
      },
      "allowance(address,address)": {
        "notice": "Get the number of tokens `spender` is approved to spend on behalf of `account`"
      },
      "approve(address,uint256)": {
        "notice": "Approve `spender` to transfer up to `amount` from `src`"
      },
      "balanceOf(address)": {
        "notice": "Get the number of tokens held by the `account`"
      },
      "checkReward()": {
        "notice": "Reward tokens available to strategy, including balance"
      },
      "deposit(uint256)": {
        "notice": "Deposit tokens to receive receipt tokens"
      },
      "depositWithPermit(uint256,uint256,uint8,bytes32,bytes32)": {
        "notice": "Deposit using Permit"
      },
      "estimateDeployedBalance()": {
        "notice": "Estimate recoverable balance after withdraw fee"
      },
      "estimateReinvestReward()": {
        "notice": "Estimate reinvest reward"
      },
      "getDepositTokensForShares(uint256)": {
        "notice": "Calculate deposit tokens for a given amount of receipt tokens"
      },
      "getDomainSeparator()": {
        "notice": "EIP-712 Domain separator"
      },
      "getSharesForDepositTokens(uint256)": {
        "notice": "Calculate receipt tokens for a given amount of deposit tokens"
      },
      "permit(address,address,uint256,uint256,uint8,bytes32,bytes32)": {
        "notice": "Triggers an approval from owner to spender"
      },
      "recoverAVAX(uint256)": {
        "notice": "Recover AVAX from contract"
      },
      "recoverERC20(address,uint256)": {
        "notice": "Recover ERC20 from contract"
      },
      "reinvest()": {
        "notice": "Reinvest reward tokens into deposit tokens"
      },
      "removeDepositor(address)": {
        "notice": "Remove an allowed depositor"
      },
      "revokeAllowance(address,address)": {
        "notice": "Revoke token allowance"
      },
      "totalDeposits()": {
        "notice": "This function returns a snapshot of last available quotes"
      },
      "transfer(address,uint256)": {
        "notice": "Transfer `amount` tokens from `msg.sender` to `dst`"
      },
      "transferFrom(address,address,uint256)": {
        "notice": "Transfer `amount` tokens from `src` to `dst`"
      },
      "updateAdminFee(uint256)": {
        "notice": "Update admin fee"
      },
      "updateDepositsEnabled(bool)": {
        "notice": "Enable/disable deposits"
      },
      "updateDevAddr(address)": {
        "notice": "Update devAddr"
      },
      "updateDevFee(uint256)": {
        "notice": "Update developer fee"
      },
      "updateMaxSwapSlippage(uint256)": {
        "notice": "Update max slippage for withdrawal"
      },
      "updateMaxTokensToDepositWithoutReinvest(uint256)": {
        "notice": "Update reinvest max threshold before a deposit"
      },
      "updateMinTokensToReinvest(uint256)": {
        "notice": "Update reinvest min threshold"
      },
      "updateReinvestReward(uint256)": {
        "notice": "Update reinvest reward"
      }
    },
    "version": 1
  },
  "storageLayout": {
    "storage": [
      {
        "astId": 552,
        "contract": "contracts/strategies/avalanche/platypus/UspPlatypusStrategy.sol:UspPlatypusStrategy",
        "label": "name",
        "offset": 0,
        "slot": "0",
        "type": "t_string_storage"
      },
      {
        "astId": 555,
        "contract": "contracts/strategies/avalanche/platypus/UspPlatypusStrategy.sol:UspPlatypusStrategy",
        "label": "symbol",
        "offset": 0,
        "slot": "1",
        "type": "t_string_storage"
      },
      {
        "astId": 560,
        "contract": "contracts/strategies/avalanche/platypus/UspPlatypusStrategy.sol:UspPlatypusStrategy",
        "label": "totalSupply",
        "offset": 0,
        "slot": "2",
        "type": "t_uint256"
      },
      {
        "astId": 566,
        "contract": "contracts/strategies/avalanche/platypus/UspPlatypusStrategy.sol:UspPlatypusStrategy",
        "label": "allowances",
        "offset": 0,
        "slot": "3",
        "type": "t_mapping(t_address,t_mapping(t_address,t_uint256))"
      },
      {
        "astId": 570,
        "contract": "contracts/strategies/avalanche/platypus/UspPlatypusStrategy.sol:UspPlatypusStrategy",
        "label": "balances",
        "offset": 0,
        "slot": "4",
        "type": "t_mapping(t_address,t_uint256)"
      },
      {
        "astId": 586,
        "contract": "contracts/strategies/avalanche/platypus/UspPlatypusStrategy.sol:UspPlatypusStrategy",
        "label": "nonces",
        "offset": 0,
        "slot": "5",
        "type": "t_mapping(t_address,t_uint256)"
      },
      {
        "astId": 8054,
        "contract": "contracts/strategies/avalanche/platypus/UspPlatypusStrategy.sol:UspPlatypusStrategy",
        "label": "_owner",
        "offset": 0,
        "slot": "6",
        "type": "t_address"
      },
      {
        "astId": 8163,
        "contract": "contracts/strategies/avalanche/platypus/UspPlatypusStrategy.sol:UspPlatypusStrategy",
        "label": "numberOfAllowedDepositors",
        "offset": 0,
        "slot": "7",
        "type": "t_uint256"
      },
      {
        "astId": 8167,
        "contract": "contracts/strategies/avalanche/platypus/UspPlatypusStrategy.sol:UspPlatypusStrategy",
        "label": "allowedDepositors",
        "offset": 0,
        "slot": "8",
        "type": "t_mapping(t_address,t_bool)"
      },
      {
        "astId": 1967,
        "contract": "contracts/strategies/avalanche/platypus/UspPlatypusStrategy.sol:UspPlatypusStrategy",
        "label": "devAddr",
        "offset": 0,
        "slot": "9",
        "type": "t_address"
      },
      {
        "astId": 1969,
        "contract": "contracts/strategies/avalanche/platypus/UspPlatypusStrategy.sol:UspPlatypusStrategy",
        "label": "MIN_TOKENS_TO_REINVEST",
        "offset": 0,
        "slot": "10",
        "type": "t_uint256"
      },
      {
        "astId": 1971,
        "contract": "contracts/strategies/avalanche/platypus/UspPlatypusStrategy.sol:UspPlatypusStrategy",
        "label": "MAX_TOKENS_TO_DEPOSIT_WITHOUT_REINVEST",
        "offset": 0,
        "slot": "11",
        "type": "t_uint256"
      },
      {
        "astId": 1973,
        "contract": "contracts/strategies/avalanche/platypus/UspPlatypusStrategy.sol:UspPlatypusStrategy",
        "label": "DEPOSITS_ENABLED",
        "offset": 0,
        "slot": "12",
        "type": "t_bool"
      },
      {
        "astId": 1975,
        "contract": "contracts/strategies/avalanche/platypus/UspPlatypusStrategy.sol:UspPlatypusStrategy",
        "label": "ADMIN_FEE_BIPS",
        "offset": 0,
        "slot": "13",
        "type": "t_uint256"
      },
      {
        "astId": 1977,
        "contract": "contracts/strategies/avalanche/platypus/UspPlatypusStrategy.sol:UspPlatypusStrategy",
        "label": "REINVEST_REWARD_BIPS",
        "offset": 0,
        "slot": "14",
        "type": "t_uint256"
      },
      {
        "astId": 1979,
        "contract": "contracts/strategies/avalanche/platypus/UspPlatypusStrategy.sol:UspPlatypusStrategy",
        "label": "DEV_FEE_BIPS",
        "offset": 0,
        "slot": "15",
        "type": "t_uint256"
      },
      {
        "astId": 11918,
        "contract": "contracts/strategies/avalanche/platypus/UspPlatypusStrategy.sol:UspPlatypusStrategy",
        "label": "rewardSwapPairs",
        "offset": 0,
        "slot": "16",
        "type": "t_mapping(t_address,t_struct(RewardSwapPair)11913_storage)"
      },
      {
        "astId": 11921,
        "contract": "contracts/strategies/avalanche/platypus/UspPlatypusStrategy.sol:UspPlatypusStrategy",
        "label": "supportedRewards",
        "offset": 0,
        "slot": "17",
        "type": "t_array(t_address)dyn_storage"
      },
      {
        "astId": 11923,
        "contract": "contracts/strategies/avalanche/platypus/UspPlatypusStrategy.sol:UspPlatypusStrategy",
        "label": "rewardCount",
        "offset": 0,
        "slot": "18",
        "type": "t_uint256"
      },
      {
        "astId": 41026,
        "contract": "contracts/strategies/avalanche/platypus/UspPlatypusStrategy.sol:UspPlatypusStrategy",
        "label": "proxy",
        "offset": 0,
        "slot": "19",
        "type": "t_contract(IPlatypusVoterProxy)44783"
      },
      {
        "astId": 41030,
        "contract": "contracts/strategies/avalanche/platypus/UspPlatypusStrategy.sol:UspPlatypusStrategy",
        "label": "maxSlippage",
        "offset": 0,
        "slot": "20",
        "type": "t_uint256"
      }
    ],
    "types": {
      "t_address": {
        "encoding": "inplace",
        "label": "address",
        "numberOfBytes": "20"
      },
      "t_array(t_address)dyn_storage": {
        "base": "t_address",
        "encoding": "dynamic_array",
        "label": "address[]",
        "numberOfBytes": "32"
      },
      "t_bool": {
        "encoding": "inplace",
        "label": "bool",
        "numberOfBytes": "1"
      },
      "t_contract(IPlatypusVoterProxy)44783": {
        "encoding": "inplace",
        "label": "contract IPlatypusVoterProxy",
        "numberOfBytes": "20"
      },
      "t_mapping(t_address,t_bool)": {
        "encoding": "mapping",
        "key": "t_address",
        "label": "mapping(address => bool)",
        "numberOfBytes": "32",
        "value": "t_bool"
      },
      "t_mapping(t_address,t_mapping(t_address,t_uint256))": {
        "encoding": "mapping",
        "key": "t_address",
        "label": "mapping(address => mapping(address => uint256))",
        "numberOfBytes": "32",
        "value": "t_mapping(t_address,t_uint256)"
      },
      "t_mapping(t_address,t_struct(RewardSwapPair)11913_storage)": {
        "encoding": "mapping",
        "key": "t_address",
        "label": "mapping(address => struct VariableRewardsStrategy.RewardSwapPair)",
        "numberOfBytes": "32",
        "value": "t_struct(RewardSwapPair)11913_storage"
      },
      "t_mapping(t_address,t_uint256)": {
        "encoding": "mapping",
        "key": "t_address",
        "label": "mapping(address => uint256)",
        "numberOfBytes": "32",
        "value": "t_uint256"
      },
      "t_string_storage": {
        "encoding": "bytes",
        "label": "string",
        "numberOfBytes": "32"
      },
      "t_struct(RewardSwapPair)11913_storage": {
        "encoding": "inplace",
        "label": "struct VariableRewardsStrategy.RewardSwapPair",
        "members": [
          {
            "astId": 11908,
            "contract": "contracts/strategies/avalanche/platypus/UspPlatypusStrategy.sol:UspPlatypusStrategy",
            "label": "reward",
            "offset": 0,
            "slot": "0",
            "type": "t_address"
          },
          {
            "astId": 11910,
            "contract": "contracts/strategies/avalanche/platypus/UspPlatypusStrategy.sol:UspPlatypusStrategy",
            "label": "swapPair",
            "offset": 0,
            "slot": "1",
            "type": "t_address"
          },
          {
            "astId": 11912,
            "contract": "contracts/strategies/avalanche/platypus/UspPlatypusStrategy.sol:UspPlatypusStrategy",
            "label": "swapFee",
            "offset": 0,
            "slot": "2",
            "type": "t_uint256"
          }
        ],
        "numberOfBytes": "96"
      },
      "t_uint256": {
        "encoding": "inplace",
        "label": "uint256",
        "numberOfBytes": "32"
      }
    }
  }
}