{
  "address": "0x3969003d42976B021170eD82B1dA5Cd6675969D5",
  "abi": [
    {
      "inputs": [
        {
          "internalType": "address",
          "name": "_platypusVoter",
          "type": "address"
        },
        {
          "internalType": "address",
          "name": "_devAddr",
          "type": "address"
        },
        {
          "components": [
            {
              "internalType": "uint256",
              "name": "stakerFeeBips",
              "type": "uint256"
            },
            {
              "internalType": "uint256",
              "name": "boosterFeeBips",
              "type": "uint256"
            },
            {
              "internalType": "address",
              "name": "stakerFeeReceiver",
              "type": "address"
            },
            {
              "internalType": "address",
              "name": "boosterFeeReceiver",
              "type": "address"
            }
          ],
          "internalType": "struct PlatypusVoterProxy.FeeSettings",
          "name": "_feeSettings",
          "type": "tuple"
        }
      ],
      "stateMutability": "nonpayable",
      "type": "constructor"
    },
    {
      "inputs": [],
      "name": "PTP",
      "outputs": [
        {
          "internalType": "address",
          "name": "",
          "type": "address"
        }
      ],
      "stateMutability": "view",
      "type": "function"
    },
    {
      "inputs": [
        {
          "internalType": "address",
          "name": "_stakingContract",
          "type": "address"
        },
        {
          "internalType": "address",
          "name": "_strategy",
          "type": "address"
        }
      ],
      "name": "approveStrategy",
      "outputs": [],
      "stateMutability": "nonpayable",
      "type": "function"
    },
    {
      "inputs": [],
      "name": "boosterFee",
      "outputs": [
        {
          "internalType": "uint256",
          "name": "",
          "type": "uint256"
        }
      ],
      "stateMutability": "view",
      "type": "function"
    },
    {
      "inputs": [],
      "name": "boosterFeeReceiver",
      "outputs": [
        {
          "internalType": "address",
          "name": "",
          "type": "address"
        }
      ],
      "stateMutability": "view",
      "type": "function"
    },
    {
      "inputs": [
        {
          "internalType": "address",
          "name": "_stakingContract",
          "type": "address"
        },
        {
          "internalType": "uint256",
          "name": "_pid",
          "type": "uint256"
        }
      ],
      "name": "claimReward",
      "outputs": [],
      "stateMutability": "nonpayable",
      "type": "function"
    },
    {
      "inputs": [
        {
          "internalType": "uint256",
          "name": "_pid",
          "type": "uint256"
        },
        {
          "internalType": "address",
          "name": "_stakingContract",
          "type": "address"
        },
        {
          "internalType": "address",
          "name": "_pool",
          "type": "address"
        },
        {
          "internalType": "address",
          "name": "_token",
          "type": "address"
        },
        {
          "internalType": "address",
          "name": "_asset",
          "type": "address"
        },
        {
          "internalType": "uint256",
          "name": "_amount",
          "type": "uint256"
        },
        {
          "internalType": "uint256",
          "name": "_depositFee",
          "type": "uint256"
        }
      ],
      "name": "deposit",
      "outputs": [],
      "stateMutability": "nonpayable",
      "type": "function"
    },
    {
      "inputs": [],
      "name": "devAddr",
      "outputs": [
        {
          "internalType": "address",
          "name": "",
          "type": "address"
        }
      ],
      "stateMutability": "view",
      "type": "function"
    },
    {
      "inputs": [
        {
          "internalType": "uint256",
          "name": "_pid",
          "type": "uint256"
        },
        {
          "internalType": "address",
          "name": "_stakingContract",
          "type": "address"
        },
        {
          "internalType": "address",
          "name": "_pool",
          "type": "address"
        },
        {
          "internalType": "address",
          "name": "_token",
          "type": "address"
        },
        {
          "internalType": "address",
          "name": "_asset",
          "type": "address"
        }
      ],
      "name": "emergencyWithdraw",
      "outputs": [],
      "stateMutability": "nonpayable",
      "type": "function"
    },
    {
      "inputs": [
        {
          "internalType": "address",
          "name": "_stakingContract",
          "type": "address"
        },
        {
          "internalType": "uint256",
          "name": "_pid",
          "type": "uint256"
        }
      ],
      "name": "pendingRewards",
      "outputs": [
        {
          "internalType": "uint256",
          "name": "",
          "type": "uint256"
        },
        {
          "internalType": "uint256",
          "name": "",
          "type": "uint256"
        },
        {
          "internalType": "address",
          "name": "",
          "type": "address"
        }
      ],
      "stateMutability": "view",
      "type": "function"
    },
    {
      "inputs": [],
      "name": "platypusVoter",
      "outputs": [
        {
          "internalType": "contract IPlatypusVoter",
          "name": "",
          "type": "address"
        }
      ],
      "stateMutability": "view",
      "type": "function"
    },
    {
      "inputs": [
        {
          "internalType": "address",
          "name": "_stakingContract",
          "type": "address"
        },
        {
          "internalType": "uint256",
          "name": "_pid",
          "type": "uint256"
        }
      ],
      "name": "poolBalance",
      "outputs": [
        {
          "internalType": "uint256",
          "name": "balance",
          "type": "uint256"
        }
      ],
      "stateMutability": "view",
      "type": "function"
    },
    {
      "inputs": [],
      "name": "reinvestFeeBips",
      "outputs": [
        {
          "internalType": "uint256",
          "name": "",
          "type": "uint256"
        }
      ],
      "stateMutability": "view",
      "type": "function"
    },
    {
      "inputs": [
        {
          "internalType": "uint256",
          "name": "_boosterFeeBips",
          "type": "uint256"
        }
      ],
      "name": "setBoosterFee",
      "outputs": [],
      "stateMutability": "nonpayable",
      "type": "function"
    },
    {
      "inputs": [
        {
          "internalType": "address",
          "name": "_boosterFeeReceiver",
          "type": "address"
        }
      ],
      "name": "setBoosterFeeReceiver",
      "outputs": [],
      "stateMutability": "nonpayable",
      "type": "function"
    },
    {
      "inputs": [
        {
          "internalType": "uint256",
          "name": "_stakerFeeBips",
          "type": "uint256"
        }
      ],
      "name": "setStakerFee",
      "outputs": [],
      "stateMutability": "nonpayable",
      "type": "function"
    },
    {
      "inputs": [
        {
          "internalType": "address",
          "name": "_stakerFeeReceiver",
          "type": "address"
        }
      ],
      "name": "setStakerFeeReceiver",
      "outputs": [],
      "stateMutability": "nonpayable",
      "type": "function"
    },
    {
      "inputs": [],
      "name": "stakerFee",
      "outputs": [
        {
          "internalType": "uint256",
          "name": "",
          "type": "uint256"
        }
      ],
      "stateMutability": "view",
      "type": "function"
    },
    {
      "inputs": [],
      "name": "stakerFeeReceiver",
      "outputs": [
        {
          "internalType": "address",
          "name": "",
          "type": "address"
        }
      ],
      "stateMutability": "view",
      "type": "function"
    },
    {
      "inputs": [
        {
          "internalType": "address",
          "name": "newValue",
          "type": "address"
        }
      ],
      "name": "updateDevAddr",
      "outputs": [],
      "stateMutability": "nonpayable",
      "type": "function"
    },
    {
      "inputs": [
        {
          "internalType": "uint256",
          "name": "_pid",
          "type": "uint256"
        },
        {
          "internalType": "address",
          "name": "_stakingContract",
          "type": "address"
        },
        {
          "internalType": "address",
          "name": "_pool",
          "type": "address"
        },
        {
          "internalType": "address",
          "name": "_token",
          "type": "address"
        },
        {
          "internalType": "address",
          "name": "_asset",
          "type": "address"
        },
        {
          "internalType": "uint256",
          "name": "_maxSlippage",
          "type": "uint256"
        },
        {
          "internalType": "uint256",
          "name": "_amount",
          "type": "uint256"
        }
      ],
      "name": "withdraw",
      "outputs": [
        {
          "internalType": "uint256",
          "name": "",
          "type": "uint256"
        }
      ],
      "stateMutability": "nonpayable",
      "type": "function"
    }
  ],
  "transactionHash": "0x63a68309b41834d9e22d8450c1ef2b6bc9cc3eb971d0cae1996c8a5aec1ca5ba",
  "args": [
    "0x40089e90156Fc6F994cc0eC86dbe84634A1C156F",
    "0xDcEDF06Fd33E1D7b6eb4b309f779a0e9D3172e44",
    {
      "stakerFeeBips": 1000,
      "boosterFeeBips": 1000,
      "stakerFeeReceiver": "0xDcEDF06Fd33E1D7b6eb4b309f779a0e9D3172e44",
      "boosterFeeReceiver": "0xDcEDF06Fd33E1D7b6eb4b309f779a0e9D3172e44"
    }
  ],
  "solcInputHash": "63be703b1674e2c2cade06f723f51ca8",
  "bytecode": "0x60a06040523480156200001157600080fd5b5060405162002d2638038062002d268339810160408190526200003491620000bb565b600480546001600160a01b03199081166001600160a01b0394851617909155602082015160005581516001556040820151600280548316918516919091179055606091820151600380549092169316929092179091551b6001600160601b03191660805262000163565b80516001600160a01b0381168114620000b657600080fd5b919050565b600080600083850360c0811215620000d1578384fd5b620000dc856200009e565b9350620000ec602086016200009e565b92506080603f198201121562000100578182fd5b50604051608081016001600160401b03811182821017156200011e57fe5b604090815285015181526060850151602082015262000140608086016200009e565b60408201526200015360a086016200009e565b6060820152809150509250925092565b60805160601c612b41620001e56000398061039352806103e3528061054752806105de528061079652806107e652806108ab52806109605280610a055280610aed5280610b645280610c565280610cef5280610d865280610f1b528061100352806110e2528061134152806115b752806115fd5280611e125250612b416000f3fe608060405234801561001057600080fd5b506004361061016c5760003560e01c80638583b7fa116100cd578063a530882e11610081578063c494448e11610066578063c494448e146102a6578063d289d969146102b9578063da09c72c146102c15761016c565b8063a530882e14610280578063b5e893a5146102935761016c565b80638dc1564a116100b25780638dc1564a146102525780639291d5631461025a57806397eef1871461026d5761016c565b80638583b7fa14610237578063865710f01461023f5761016c565b80634b2d9ffc116101245780636099ecb2116101095780636099ecb214610205578063781a29d114610227578063792a230f1461022f5761016c565b80634b2d9ffc146101ea578063529ebc7d146101f25761016c565b8063174e31c411610155578063174e31c4146101af5780632d61a546146101c2578063491cad29146101d75761016c565b806301e1c48d1461017157806302eb6f7e1461019a575b600080fd5b61018461017f3660046122b2565b6102c9565b6040516101919190612a65565b60405180910390f35b6101ad6101a8366004612439565b6102de565b005b6101ad6101bd3660046122b2565b610648565b6101ca610e01565b6040516101919190612622565b6101ad6101e53660046121f3565b610e10565b610184610e69565b6101ad6102003660046124a0565b610e6f565b6102186102133660046122b2565b610fe8565b60405161019193929190612aa4565b6101846110a6565b6101ca6110ac565b6101846110bb565b6101ad61024d366004612409565b6111b3565b6101ca6111e2565b6101ad6102683660046121f3565b6111fa565b6101ad61027b366004612409565b611253565b61018461028e3660046124a0565b611282565b6101ad6102a13660046121f3565b611432565b6101ad6102b436600461222b565b61148b565b6101ca6115b5565b6101ca6115d9565b60006102d583836115e8565b90505b92915050565b6001600160a01b0380851660009081526005602090815260408083208984529091529020548591879116331461032f5760405162461bcd60e51b81526004016103269061293f565b60405180910390fd5b6103bb866000896040516024016103469190612a65565b60408051601f198184030181529190526020810180516001600160e01b03167f5312ea8e000000000000000000000000000000000000000000000000000000001790526001600160a01b037f00000000000000000000000000000000000000000000000000000000000000001692919061197c565b506040516370a0823160e01b81526000906001600160a01b038516906370a082319061040b907f000000000000000000000000000000000000000000000000000000000000000090600401612622565b60206040518083038186803b15801561042357600080fd5b505afa158015610437573d6000803e3d6000fd5b505050506040513d601f19601f8201168201806040525081019061045b9190612421565b90506000866001600160a01b031663907448ed87846040518363ffffffff1660e01b815260040161048d929190612636565b60606040518083038186803b1580156104a557600080fd5b505afa1580156104b9573d6000803e3d6000fd5b505050506040513d601f19601f820116820180604052508101906104dd9190612579565b5050905061056f85600089856040516024016104fa929190612636565b60408051601f198184030181529190526020810180516001600160e01b03167f095ea7b3000000000000000000000000000000000000000000000000000000001790526001600160a01b037f00000000000000000000000000000000000000000000000000000000000000001692919061197c565b50610606876000888585336000196040516024016105919594939291906126e0565b60408051601f198184030181529190526020810180516001600160e01b03167f09a5fca3000000000000000000000000000000000000000000000000000000001790526001600160a01b037f00000000000000000000000000000000000000000000000000000000000000001692919061197c565b506106218560008a60006040516024016104fa929190612669565b5061063c8660008960006040516024016104fa929190612669565b50505050505050505050565b6001600160a01b038083166000908152600560209081526040808320858452909152902054839183911633146106905760405162461bcd60e51b81526004016103269061293f565b6040517fbc70fdbc0000000000000000000000000000000000000000000000000000000081526000906001600160a01b0386169063bc70fdbc906106d8908790600401612a65565b60006040518083038186803b1580156106f057600080fd5b505afa158015610704573d6000803e3d6000fd5b505050506040513d6000823e601f3d908101601f1916820160405261072c9190810190612263565b5090506107be856000866000604051602401610749929190612a85565b60408051601f198184030181529190526020810180516001600160e01b03167fe2bbb158000000000000000000000000000000000000000000000000000000001790526001600160a01b037f00000000000000000000000000000000000000000000000000000000000000001692919061197c565b506001600160a01b03811673b31f66aa3c1e785363f0875a1b74e27b85fd66c71415610879577f00000000000000000000000000000000000000000000000000000000000000006001600160a01b0316635a556f516040518163ffffffff1660e01b8152600401602060405180830381600087803b15801561083f57600080fd5b505af1158015610853573d6000803e3d6000fd5b505050506040513d601f19601f820116820180604052508101906108779190612421565b505b6040516370a0823160e01b81526000907322d4002028f537599be9f666d1c4fa138522f9c8906370a08231906108d3907f000000000000000000000000000000000000000000000000000000000000000090600401612622565b60206040518083038186803b1580156108eb57600080fd5b505afa1580156108ff573d6000803e3d6000fd5b505050506040513d601f19601f820116820180604052508101906109239190612421565b905060006001600160a01b03831661093c5760006109d8565b6040516370a0823160e01b81526001600160a01b038416906370a0823190610988907f000000000000000000000000000000000000000000000000000000000000000090600401612622565b60206040518083038186803b1580156109a057600080fd5b505afa1580156109b4573d6000803e3d6000fd5b505050506040513d601f19601f820116820180604052508101906109d89190612421565b90508115610cca5760008080541180156109fc57506003546001600160a01b031615155b8015610a9457507f00000000000000000000000000000000000000000000000000000000000000006001600160a01b0316635392fd1c6040518163ffffffff1660e01b815260040160206040518083038186803b158015610a5c57600080fd5b505afa158015610a70573d6000803e3d6000fd5b505050506040513d601f19601f82011682018060405250810190610a9491906123b9565b15610b8e57610aba612710610ab460005486611a3390919063ffffffff16565b90611a6d565b6040517f7c0bb4ab0000000000000000000000000000000000000000000000000000000081529091506001600160a01b037f00000000000000000000000000000000000000000000000000000000000000001690637c0bb4ab90610b22908490600401612a65565b600060405180830381600087803b158015610b3c57600080fd5b505af1158015610b50573d6000803e3d6000fd5b5050600354610b8e92506001600160a01b037f0000000000000000000000000000000000000000000000000000000000000000811692501683611aaf565b600080600154118015610bab57506002546001600160a01b031615155b15610c8057610bcb612710610ab460015487611a3390919063ffffffff16565b600254604051919250610c7e917322d4002028f537599be9f666d1c4fa138522f9c891600091610c09916001600160a01b0316908690602401612636565b60408051601f198184030181529190526020810180516001600160e01b03167fa9059cbb000000000000000000000000000000000000000000000000000000001790526001600160a01b037f00000000000000000000000000000000000000000000000000000000000000001692919061197c565b505b6000610c9682610c908786611b22565b90611b22565b9050610cc57322d4002028f537599be9f666d1c4fa138522f9c860003384604051602401610c09929190612636565b505050505b8015610ceb57610ce98360003384604051602401610c09929190612636565b505b60007f00000000000000000000000000000000000000000000000000000000000000006001600160a01b031663129635956040518163ffffffff1660e01b815260040160206040518083038186803b158015610d4657600080fd5b505afa158015610d5a573d6000803e3d6000fd5b505050506040513d601f19601f82011682018060405250810190610d7e9190612421565b1115610df8577f00000000000000000000000000000000000000000000000000000000000000006001600160a01b031663a71871226040518163ffffffff1660e01b8152600401600060405180830381600087803b158015610ddf57600080fd5b505af1158015610df3573d6000803e3d6000fd5b505050505b50505050505050565b6002546001600160a01b031681565b6004546001600160a01b03163314610e3a5760405162461bcd60e51b815260040161032690612726565b6003805473ffffffffffffffffffffffffffffffffffffffff19166001600160a01b0392909216919091179055565b60015481565b6001600160a01b0380871660009081526005602090815260408083208b845290915290205487918991163314610eb75760405162461bcd60e51b81526004016103269061293f565b6000610ec4868686611b64565b9050610eda6001600160a01b0388168987611cee565b6040517f90d250740000000000000000000000000000000000000000000000000000000081526001600160a01b038916906390d2507490610f47908a9089907f00000000000000000000000000000000000000000000000000000000000000009060001990600401612685565b602060405180830381600087803b158015610f6157600080fd5b505af1158015610f75573d6000803e3d6000fd5b505050506040513d601f19601f82011682018060405250810190610f999190612421565b50610fb38660008b846040516024016104fa929190612636565b50610fcd8960008c84604051602401610749929190612a96565b50610df38660008b60006040516024016104fa929190612669565b600080600080600080876001600160a01b031663ffcd4263887f00000000000000000000000000000000000000000000000000000000000000006040518363ffffffff1660e01b815260040161103f929190612a6e565b60006040518083038186803b15801561105757600080fd5b505afa15801561106b573d6000803e3d6000fd5b505050506040513d6000823e601f3d908101601f191682016040526110939190810190612519565b9298509196509450505050509250925092565b60005481565b6003546001600160a01b031681565b600080548190158015906110d957506003546001600160a01b031615155b801561117157507f00000000000000000000000000000000000000000000000000000000000000006001600160a01b0316635392fd1c6040518163ffffffff1660e01b815260040160206040518083038186803b15801561113957600080fd5b505afa15801561114d573d6000803e3d6000fd5b505050506040513d601f19601f8201168201806040525081019061117191906123b9565b1561117b57506000545b60008060015411801561119857506002546001600160a01b031615155b156111a257506001545b6111ac8282611dca565b9250505090565b6004546001600160a01b031633146111dd5760405162461bcd60e51b815260040161032690612726565b600055565b7322d4002028f537599be9f666d1c4fa138522f9c881565b6004546001600160a01b031633146112245760405162461bcd60e51b815260040161032690612726565b6004805473ffffffffffffffffffffffffffffffffffffffff19166001600160a01b0392909216919091179055565b6004546001600160a01b0316331461127d5760405162461bcd60e51b815260040161032690612726565b600155565b6001600160a01b0380871660009081526005602090815260408083208b8452909152812054909188918a911633146112cc5760405162461bcd60e51b81526004016103269061293f565b60006112d98b8b87611def565b90506113698a60008d846040516024016112f4929190612a96565b60408051601f198184030181529190526020810180516001600160e01b03167f441a3e70000000000000000000000000000000000000000000000000000000001790526001600160a01b037f00000000000000000000000000000000000000000000000000000000000000001692919061197c565b506113838760008b846040516024016104fa929190612636565b50600061139b6113948b8b85611eb2565b8390611b22565b905060006113af612710610ab4848b611a33565b90506113bb8282611b22565b915060606113e08c60008d8787306000196040516024016105919594939291906126e0565b90506113fc8a60008e60006040516024016104fa929190612669565b50600061140a826000611f56565b90506114206001600160a01b038d163383611aaf565b9e9d5050505050505050505050505050565b6004546001600160a01b0316331461145c5760405162461bcd60e51b815260040161032690612726565b6002805473ffffffffffffffffffffffffffffffffffffffff19166001600160a01b0392909216919091179055565b6004546001600160a01b031633146114b55760405162461bcd60e51b815260040161032690612726565b6000816001600160a01b0316635eaec0e46040518163ffffffff1660e01b8152600401602060405180830381600087803b1580156114f257600080fd5b505af1158015611506573d6000803e3d6000fd5b505050506040513d601f19601f8201168201806040525081019061152a9190612421565b6001600160a01b03848116600090815260056020908152604080832085845290915290205491925016156115705760405162461bcd60e51b8152600401610326906127cb565b6001600160a01b03928316600090815260056020908152604080832093835292905220805473ffffffffffffffffffffffffffffffffffffffff191691909216179055565b7f000000000000000000000000000000000000000000000000000000000000000081565b6004546001600160a01b031681565b600080836001600160a01b03166393f1a40b847f00000000000000000000000000000000000000000000000000000000000000006040518363ffffffff1660e01b8152600401611639929190612a6e565b60606040518083038186803b15801561165157600080fd5b505afa158015611665573d6000803e3d6000fd5b505050506040513d601f19601f8201168201806040525081019061168991906125ad565b5050905080600014156116a05760009150506102d8565b60006001600160a01b03851673b0523f9f473812fb195ee49bc7d2ab9873a98044141561175257604051631526fe2760e01b81526001600160a01b03861690631526fe27906116f3908790600401612a65565b60e06040518083038186803b15801561170b57600080fd5b505afa15801561171f573d6000803e3d6000fd5b505050506040513d601f19601f8201168201806040525081019061174391906122dd565b509495506117da945050505050565b604051631526fe2760e01b81526001600160a01b03861690631526fe279061177e908790600401612a65565b6101006040518083038186803b15801561179757600080fd5b505afa1580156117ab573d6000803e3d6000fd5b505050506040513d601f19601f820116820180604052508101906117cf9190612347565b509596505050505050505b6000816001600160a01b03166316f0115b6040518163ffffffff1660e01b815260040160206040518083038186803b15801561181557600080fd5b505afa158015611829573d6000803e3d6000fd5b505050506040513d601f19601f8201168201806040525081019061184d919061220f565b90506000806000836001600160a01b031663907448ed866001600160a01b0316632495a5996040518163ffffffff1660e01b815260040160206040518083038186803b15801561189c57600080fd5b505afa1580156118b0573d6000803e3d6000fd5b505050506040513d601f19601f820116820180604052508101906118d4919061220f565b886040518363ffffffff1660e01b81526004016118f2929190612636565b60606040518083038186803b15801561190a57600080fd5b505afa15801561191e573d6000803e3d6000fd5b505050506040513d601f19601f820116820180604052508101906119429190612579565b925092509250806119655760405162461bcd60e51b8152600401610326906128e2565b61196f8383611dca565b9998505050505050505050565b606060006060866001600160a01b031663b61d27f68787876040518463ffffffff1660e01b81526004016119b2939291906126af565b600060405180830381600087803b1580156119cc57600080fd5b505af11580156119e0573d6000803e3d6000fd5b505050506040513d6000823e601f3d908101601f19168201604052611a0891908101906123d3565b9150915081611a295760405162461bcd60e51b815260040161032690612828565b9695505050505050565b600082611a42575060006102d8565b82820282848281611a4f57fe5b04146102d55760405162461bcd60e51b815260040161032690612885565b60006102d583836040518060400160405280601a81526020017f536166654d6174683a206469766973696f6e206279207a65726f000000000000815250611f8c565b611b1d8363a9059cbb60e01b8484604051602401611ace929190612636565b60408051601f198184030181529190526020810180516001600160e01b03167fffffffff0000000000000000000000000000000000000000000000000000000090931692909217909152611fc3565b505050565b60006102d583836040518060400160405280601f81526020017f536166654d6174683a207375627472616374696f6e20756e646572666c6f7700815250612052565b6000836001600160a01b031663705727b56040518163ffffffff1660e01b815260040160206040518083038186803b158015611b9f57600080fd5b505afa158015611bb3573d6000803e3d6000fd5b505050506040513d601f19601f82011682018060405250810190611bd79190612421565b611bec57611be58383611b22565b9050611ce7565b611ce4846001600160a01b031663705727b56040518163ffffffff1660e01b815260040160206040518083038186803b158015611c2857600080fd5b505afa158015611c3c573d6000803e3d6000fd5b505050506040513d601f19601f82011682018060405250810190611c609190612421565b610ab4866001600160a01b03166318160ddd6040518163ffffffff1660e01b815260040160206040518083038186803b158015611c9c57600080fd5b505afa158015611cb0573d6000803e3d6000fd5b505050506040513d601f19601f82011682018060405250810190611cd49190612421565b611cde8787611b22565b90611a33565b90505b9392505050565b801580611d8f57506040517fdd62ed3e0000000000000000000000000000000000000000000000000000000081526001600160a01b0384169063dd62ed3e90611d3d903090869060040161264f565b60206040518083038186803b158015611d5557600080fd5b505afa158015611d69573d6000803e3d6000fd5b505050506040513d601f19601f82011682018060405250810190611d8d9190612421565b155b611dab5760405162461bcd60e51b815260040161032690612a08565b611b1d8363095ea7b360e01b8484604051602401611ace929190612636565b6000828201838110156102d55760405162461bcd60e51b81526004016103269061275d565b600080611dfc84866115e8565b90506000846001600160a01b03166393f1a40b877f00000000000000000000000000000000000000000000000000000000000000006040518363ffffffff1660e01b8152600401611e4e929190612a6e565b60606040518083038186803b158015611e6657600080fd5b505afa158015611e7a573d6000803e3d6000fd5b505050506040513d601f19601f82011682018060405250810190611e9e91906125ad565b50909150611a29905082610ab48684611a33565b6040517f907448ed0000000000000000000000000000000000000000000000000000000081526000906001600160a01b0385169063907448ed90611efc9086908690600401612636565b60606040518083038186803b158015611f1457600080fd5b505afa158015611f28573d6000803e3d6000fd5b505050506040513d601f19601f82011682018060405250810190611f4c9190612579565b5095945050505050565b6000611f63826020611dca565b83511015611f835760405162461bcd60e51b815260040161032690612794565b50016020015190565b60008183611fad5760405162461bcd60e51b81526004016103269190612713565b506000838581611fb957fe5b0495945050505050565b6060612018826040518060400160405280602081526020017f5361666545524332303a206c6f772d6c6576656c2063616c6c206661696c6564815250856001600160a01b031661207e9092919063ffffffff16565b805190915015611b1d578080602001905181019061203691906123b9565b611b1d5760405162461bcd60e51b8152600401610326906129ab565b600081848411156120765760405162461bcd60e51b81526004016103269190612713565b505050900390565b6060611ce484846000858561209285612128565b6120ae5760405162461bcd60e51b815260040161032690612974565b60006060866001600160a01b031685876040516120cb9190612606565b60006040518083038185875af1925050503d8060008114612108576040519150601f19603f3d011682016040523d82523d6000602084013e61210d565b606091505b509150915061211d828286612132565b979650505050505050565b803b15155b919050565b60608315612141575081611ce7565b8251156121515782518084602001fd5b8160405162461bcd60e51b81526004016103269190612713565b8051801515811461212d57600080fd5b600082601f83011261218b578081fd5b815167ffffffffffffffff808211156121a057fe5b604051601f8301601f1916810160200182811182821017156121be57fe5b6040528281529250828483016020018610156121d957600080fd5b6121ea836020830160208801612ac3565b50505092915050565b600060208284031215612204578081fd5b81356102d581612af3565b600060208284031215612220578081fd5b81516102d581612af3565b6000806040838503121561223d578081fd5b823561224881612af3565b9150602083013561225881612af3565b809150509250929050565b60008060408385031215612275578182fd5b825161228081612af3565b602084015190925067ffffffffffffffff81111561229c578182fd5b6122a88582860161217b565b9150509250929050565b600080604083850312156122c4578182fd5b82356122cf81612af3565b946020939093013593505050565b600080600080600080600060e0888a0312156122f7578283fd5b875161230281612af3565b80975050602088015195506040880151945060608801519350608088015161232981612af3565b8093505060a0880151915060c0880151905092959891949750929550565b600080600080600080600080610100898b031215612363578081fd5b885161236e81612af3565b80985050602089015196506040890151955060608901519450608089015161239581612af3565b60a08a015160c08b015160e0909b0151999c989b5096999598909790945092505050565b6000602082840312156123ca578081fd5b6102d58261216b565b600080604083850312156123e5578182fd5b6123ee8361216b565b9150602083015167ffffffffffffffff81111561229c578182fd5b60006020828403121561241a578081fd5b5035919050565b600060208284031215612432578081fd5b5051919050565b600080600080600060a08688031215612450578081fd5b85359450602086013561246281612af3565b9350604086013561247281612af3565b9250606086013561248281612af3565b9150608086013561249281612af3565b809150509295509295909350565b600080600080600080600060e0888a0312156124ba578081fd5b8735965060208801356124cc81612af3565b955060408801356124dc81612af3565b945060608801356124ec81612af3565b935060808801356124fc81612af3565b9699959850939692959460a0840135945060c09093013592915050565b6000806000806080858703121561252e578182fd5b84519350602085015161254081612af3565b604086015190935067ffffffffffffffff81111561255c578283fd5b6125688782880161217b565b606096909601519497939650505050565b60008060006060848603121561258d578081fd5b83519250602084015191506125a46040850161216b565b90509250925092565b6000806000606084860312156125c1578081fd5b8351925060208401519150604084015190509250925092565b600081518084526125f2816020860160208601612ac3565b601f01601f19169290920160200192915050565b60008251612618818460208701612ac3565b9190910192915050565b6001600160a01b0391909116815260200190565b6001600160a01b03929092168252602082015260400190565b6001600160a01b0392831681529116602082015260400190565b6001600160a01b0392909216825260ff16602082015260400190565b6001600160a01b039485168152602081019390935292166040820152606081019190915260800190565b60006001600160a01b0385168252836020830152606060408301526126d760608301846125da565b95945050505050565b6001600160a01b039586168152602081019490945260408401929092529092166060820152608081019190915260a00190565b6000602082526102d560208301846125da565b6020808252601b908201527f506c617479707573566f74657250726f78793a3a6f6e6c794465760000000000604082015260600190565b6020808252601b908201527f536166654d6174683a206164646974696f6e206f766572666c6f770000000000604082015260600190565b60208082526015908201527f746f55696e743235365f6f75744f66426f756e64730000000000000000000000604082015260600190565b60208082526032908201527f506c617479707573566f74657250726f78793a3a537472617465677920666f7260408201527f2050494420616c72656164792061646465640000000000000000000000000000606082015260800190565b60208082526026908201527f506c617479707573566f74657250726f78793a3a73616665457865637574652060408201527f6661696c65640000000000000000000000000000000000000000000000000000606082015260800190565b60208082526021908201527f536166654d6174683a206d756c7469706c69636174696f6e206f766572666c6f60408201527f7700000000000000000000000000000000000000000000000000000000000000606082015260800190565b60208082526029908201527f506c617479707573566f74657250726f78793a3a546869732073686f756c646e60408201527f27742068617070656e0000000000000000000000000000000000000000000000606082015260800190565b6020808252818101527f506c617479707573566f74657250726f78793a3a6f6e6c795374726174656779604082015260600190565b6020808252601d908201527f416464726573733a2063616c6c20746f206e6f6e2d636f6e7472616374000000604082015260600190565b6020808252602a908201527f5361666545524332303a204552433230206f7065726174696f6e20646964206e60408201527f6f74207375636365656400000000000000000000000000000000000000000000606082015260800190565b60208082526036908201527f5361666545524332303a20617070726f76652066726f6d206e6f6e2d7a65726f60408201527f20746f206e6f6e2d7a65726f20616c6c6f77616e636500000000000000000000606082015260800190565b90815260200190565b9182526001600160a01b0316602082015260400190565b91825260ff16602082015260400190565b918252602082015260400190565b92835260208301919091526001600160a01b0316604082015260600190565b60005b83811015612ade578181015183820152602001612ac6565b83811115612aed576000848401525b50505050565b6001600160a01b0381168114612b0857600080fd5b5056fea2646970667358221220f41c9c3d5557a8434435fb937c48a380d0f95ad6ed758df678ecbc814e765bd164736f6c63430007030033",
  "devdoc": {
    "details": "For accounting reasons, there is one approved strategy per Masterchef PID. In case of upgrade, use a new proxy.",
    "kind": "dev",
    "methods": {
      "approveStrategy(address,address)": {
        "details": "Very sensitive, restricted to devAddrCan only be set once per PID and staking contract (reported by the strategy)",
        "params": {
          "_stakingContract": "address",
          "_strategy": "address"
        }
      },
      "claimReward(address,uint256)": {
        "details": "Restricted to strategy with _pid",
        "params": {
          "_pid": "PID",
          "_stakingContract": "Platypus Masterchef"
        }
      },
      "deposit(uint256,address,address,address,address,uint256,uint256)": {
        "details": "Restricted to strategy with _pid",
        "params": {
          "_amount": "deposit amount",
          "_asset": "Platypus asset",
          "_depositFee": "deposit fee",
          "_pid": "PID",
          "_pool": "Platypus pool",
          "_stakingContract": "Platypus Masterchef",
          "_token": "Deposit asset"
        }
      },
      "emergencyWithdraw(uint256,address,address,address,address)": {
        "details": "Restricted to strategy with _pid",
        "params": {
          "_asset": "Platypus asset",
          "_pid": "PID",
          "_pool": "Platypus pool",
          "_stakingContract": "Platypus Masterchef",
          "_token": "Deposit asset"
        }
      },
      "pendingRewards(address,uint256)": {
        "params": {
          "_pid": "PID",
          "_stakingContract": "Platypus Masterchef"
        },
        "returns": {
          "_0": "pendingPtp",
          "_1": "pendingBonusToken",
          "_2": "bonusTokenAddress"
        }
      },
      "poolBalance(address,uint256)": {
        "params": {
          "_pid": "PID",
          "_stakingContract": "Platypus Masterchef"
        },
        "returns": {
          "balance": "in depositToken"
        }
      },
      "reinvestFeeBips()": {
        "returns": {
          "_0": "reinvest fee"
        }
      },
      "setBoosterFee(uint256)": {
        "details": "Restricted to devAddr",
        "params": {
          "_boosterFeeBips": "new fee in bips (1% = 100 bips)"
        }
      },
      "setBoosterFeeReceiver(address)": {
        "details": "Restricted to devAddr",
        "params": {
          "_boosterFeeReceiver": "address"
        }
      },
      "setStakerFee(uint256)": {
        "details": "Restricted to devAddr",
        "params": {
          "_stakerFeeBips": "new fee in bips (1% = 100 bips)"
        }
      },
      "setStakerFeeReceiver(address)": {
        "details": "Restricted to devAddr",
        "params": {
          "_stakerFeeReceiver": "address"
        }
      },
      "updateDevAddr(address)": {
        "params": {
          "newValue": "address"
        }
      },
      "withdraw(uint256,address,address,address,address,uint256,uint256)": {
        "details": "Restricted to strategy with _pid",
        "params": {
          "_amount": "withdraw amount",
          "_asset": "Platypus asset",
          "_maxSlippage": "max slippage in bips",
          "_pid": "PID",
          "_pool": "Platypus pool",
          "_stakingContract": "Platypus Masterchef",
          "_token": "Deposit asset"
        },
        "returns": {
          "_0": "amount withdrawn, in _token"
        }
      }
    },
    "version": 1
  },
  "userdoc": {
    "kind": "user",
    "methods": {
      "approveStrategy(address,address)": {
        "notice": "Add an approved strategy"
      },
      "claimReward(address,uint256)": {
        "notice": "Claim and distribute PTP rewards"
      },
      "deposit(uint256,address,address,address,address,uint256,uint256)": {
        "notice": "Deposit function"
      },
      "emergencyWithdraw(uint256,address,address,address,address)": {
        "notice": "Emergency withdraw function"
      },
      "pendingRewards(address,uint256)": {
        "notice": "Pending rewards matching interface for PlatypusStrategy"
      },
      "poolBalance(address,uint256)": {
        "notice": "Pool balance"
      },
      "reinvestFeeBips()": {
        "notice": "Calculation of reinvest fee (boost + staking)"
      },
      "setBoosterFee(uint256)": {
        "notice": "Update booster fee"
      },
      "setBoosterFeeReceiver(address)": {
        "notice": "Update booster fee receiver"
      },
      "setStakerFee(uint256)": {
        "notice": "Update staker fee"
      },
      "setStakerFeeReceiver(address)": {
        "notice": "Update staker fee receiver"
      },
      "updateDevAddr(address)": {
        "notice": "Update devAddr"
      },
      "withdraw(uint256,address,address,address,address,uint256,uint256)": {
        "notice": "Withdraw function"
      }
    },
    "notice": "PlatypusVoterProxy is an upgradable contract. Strategies interact with PlatypusVoterProxy and PlatypusVoterProxy interacts with PlatypusVoter.",
    "version": 1
  },
  "storageLayout": {
    "storage": [
      {
        "astId": 92216,
        "contract": "contracts/strategies/PlatypusVoterProxy.sol:PlatypusVoterProxy",
        "label": "boosterFee",
        "offset": 0,
        "slot": "0",
        "type": "t_uint256"
      },
      {
        "astId": 92218,
        "contract": "contracts/strategies/PlatypusVoterProxy.sol:PlatypusVoterProxy",
        "label": "stakerFee",
        "offset": 0,
        "slot": "1",
        "type": "t_uint256"
      },
      {
        "astId": 92220,
        "contract": "contracts/strategies/PlatypusVoterProxy.sol:PlatypusVoterProxy",
        "label": "stakerFeeReceiver",
        "offset": 0,
        "slot": "2",
        "type": "t_address"
      },
      {
        "astId": 92222,
        "contract": "contracts/strategies/PlatypusVoterProxy.sol:PlatypusVoterProxy",
        "label": "boosterFeeReceiver",
        "offset": 0,
        "slot": "3",
        "type": "t_address"
      },
      {
        "astId": 92230,
        "contract": "contracts/strategies/PlatypusVoterProxy.sol:PlatypusVoterProxy",
        "label": "devAddr",
        "offset": 0,
        "slot": "4",
        "type": "t_address"
      },
      {
        "astId": 92236,
        "contract": "contracts/strategies/PlatypusVoterProxy.sol:PlatypusVoterProxy",
        "label": "approvedStrategies",
        "offset": 0,
        "slot": "5",
        "type": "t_mapping(t_address,t_mapping(t_uint256,t_address))"
      }
    ],
    "types": {
      "t_address": {
        "encoding": "inplace",
        "label": "address",
        "numberOfBytes": "20"
      },
      "t_mapping(t_address,t_mapping(t_uint256,t_address))": {
        "encoding": "mapping",
        "key": "t_address",
        "label": "mapping(address => mapping(uint256 => address))",
        "numberOfBytes": "32",
        "value": "t_mapping(t_uint256,t_address)"
      },
      "t_mapping(t_uint256,t_address)": {
        "encoding": "mapping",
        "key": "t_uint256",
        "label": "mapping(uint256 => address)",
        "numberOfBytes": "32",
        "value": "t_address"
      },
      "t_uint256": {
        "encoding": "inplace",
        "label": "uint256",
        "numberOfBytes": "32"
      }
    }
  }
}