{
  "address": "0x822cF9E55f90150159Be97c6Fed336D8CFfaFc1f",
  "abi": [
    {
      "inputs": [
        {
          "internalType": "address",
          "name": "_platypusVoter",
          "type": "address"
        },
        {
          "internalType": "address",
          "name": "_devAddr",
          "type": "address"
        },
        {
          "components": [
            {
              "internalType": "uint256",
              "name": "stakerFeeBips",
              "type": "uint256"
            },
            {
              "internalType": "uint256",
              "name": "boosterFeeBips",
              "type": "uint256"
            },
            {
              "internalType": "address",
              "name": "stakerFeeReceiver",
              "type": "address"
            },
            {
              "internalType": "address",
              "name": "boosterFeeReceiver",
              "type": "address"
            }
          ],
          "internalType": "struct PlatypusVoterProxy.FeeSettings",
          "name": "_feeSettings",
          "type": "tuple"
        }
      ],
      "stateMutability": "nonpayable",
      "type": "constructor"
    },
    {
      "inputs": [],
      "name": "PLATYPUS_NFT",
      "outputs": [
        {
          "internalType": "address",
          "name": "",
          "type": "address"
        }
      ],
      "stateMutability": "view",
      "type": "function"
    },
    {
      "inputs": [],
      "name": "PTP",
      "outputs": [
        {
          "internalType": "address",
          "name": "",
          "type": "address"
        }
      ],
      "stateMutability": "view",
      "type": "function"
    },
    {
      "inputs": [
        {
          "internalType": "address",
          "name": "_stakingContract",
          "type": "address"
        },
        {
          "internalType": "address",
          "name": "_strategy",
          "type": "address"
        }
      ],
      "name": "approveStrategy",
      "outputs": [],
      "stateMutability": "nonpayable",
      "type": "function"
    },
    {
      "inputs": [],
      "name": "boosterFee",
      "outputs": [
        {
          "internalType": "uint256",
          "name": "",
          "type": "uint256"
        }
      ],
      "stateMutability": "view",
      "type": "function"
    },
    {
      "inputs": [],
      "name": "boosterFeeReceiver",
      "outputs": [
        {
          "internalType": "address",
          "name": "",
          "type": "address"
        }
      ],
      "stateMutability": "view",
      "type": "function"
    },
    {
      "inputs": [
        {
          "internalType": "address",
          "name": "_stakingContract",
          "type": "address"
        },
        {
          "internalType": "uint256",
          "name": "_pid",
          "type": "uint256"
        }
      ],
      "name": "claimReward",
      "outputs": [],
      "stateMutability": "nonpayable",
      "type": "function"
    },
    {
      "inputs": [
        {
          "internalType": "uint256",
          "name": "_pid",
          "type": "uint256"
        },
        {
          "internalType": "address",
          "name": "_stakingContract",
          "type": "address"
        },
        {
          "internalType": "address",
          "name": "_pool",
          "type": "address"
        },
        {
          "internalType": "address",
          "name": "_token",
          "type": "address"
        },
        {
          "internalType": "address",
          "name": "_asset",
          "type": "address"
        },
        {
          "internalType": "uint256",
          "name": "_amount",
          "type": "uint256"
        },
        {
          "internalType": "uint256",
          "name": "_depositFee",
          "type": "uint256"
        }
      ],
      "name": "deposit",
      "outputs": [],
      "stateMutability": "nonpayable",
      "type": "function"
    },
    {
      "inputs": [],
      "name": "devAddr",
      "outputs": [
        {
          "internalType": "address",
          "name": "",
          "type": "address"
        }
      ],
      "stateMutability": "view",
      "type": "function"
    },
    {
      "inputs": [
        {
          "internalType": "uint256",
          "name": "_pid",
          "type": "uint256"
        },
        {
          "internalType": "address",
          "name": "_stakingContract",
          "type": "address"
        },
        {
          "internalType": "address",
          "name": "_pool",
          "type": "address"
        },
        {
          "internalType": "address",
          "name": "_token",
          "type": "address"
        },
        {
          "internalType": "address",
          "name": "_asset",
          "type": "address"
        }
      ],
      "name": "emergencyWithdraw",
      "outputs": [],
      "stateMutability": "nonpayable",
      "type": "function"
    },
    {
      "inputs": [
        {
          "internalType": "address",
          "name": "_stakingContract",
          "type": "address"
        },
        {
          "internalType": "uint256",
          "name": "_pid",
          "type": "uint256"
        }
      ],
      "name": "pendingRewards",
      "outputs": [
        {
          "internalType": "uint256",
          "name": "",
          "type": "uint256"
        },
        {
          "internalType": "uint256",
          "name": "",
          "type": "uint256"
        },
        {
          "internalType": "address",
          "name": "",
          "type": "address"
        }
      ],
      "stateMutability": "view",
      "type": "function"
    },
    {
      "inputs": [],
      "name": "platypusVoter",
      "outputs": [
        {
          "internalType": "contract IPlatypusVoter",
          "name": "",
          "type": "address"
        }
      ],
      "stateMutability": "view",
      "type": "function"
    },
    {
      "inputs": [
        {
          "internalType": "address",
          "name": "_stakingContract",
          "type": "address"
        },
        {
          "internalType": "uint256",
          "name": "_pid",
          "type": "uint256"
        }
      ],
      "name": "poolBalance",
      "outputs": [
        {
          "internalType": "uint256",
          "name": "balance",
          "type": "uint256"
        }
      ],
      "stateMutability": "view",
      "type": "function"
    },
    {
      "inputs": [],
      "name": "reinvestFeeBips",
      "outputs": [
        {
          "internalType": "uint256",
          "name": "",
          "type": "uint256"
        }
      ],
      "stateMutability": "view",
      "type": "function"
    },
    {
      "inputs": [
        {
          "internalType": "uint256",
          "name": "_boosterFeeBips",
          "type": "uint256"
        }
      ],
      "name": "setBoosterFee",
      "outputs": [],
      "stateMutability": "nonpayable",
      "type": "function"
    },
    {
      "inputs": [
        {
          "internalType": "address",
          "name": "_boosterFeeReceiver",
          "type": "address"
        }
      ],
      "name": "setBoosterFeeReceiver",
      "outputs": [],
      "stateMutability": "nonpayable",
      "type": "function"
    },
    {
      "inputs": [
        {
          "internalType": "uint256",
          "name": "_stakerFeeBips",
          "type": "uint256"
        }
      ],
      "name": "setStakerFee",
      "outputs": [],
      "stateMutability": "nonpayable",
      "type": "function"
    },
    {
      "inputs": [
        {
          "internalType": "address",
          "name": "_stakerFeeReceiver",
          "type": "address"
        }
      ],
      "name": "setStakerFeeReceiver",
      "outputs": [],
      "stateMutability": "nonpayable",
      "type": "function"
    },
    {
      "inputs": [
        {
          "internalType": "uint256",
          "name": "id",
          "type": "uint256"
        }
      ],
      "name": "stakeNFT",
      "outputs": [],
      "stateMutability": "nonpayable",
      "type": "function"
    },
    {
      "inputs": [],
      "name": "stakerFee",
      "outputs": [
        {
          "internalType": "uint256",
          "name": "",
          "type": "uint256"
        }
      ],
      "stateMutability": "view",
      "type": "function"
    },
    {
      "inputs": [],
      "name": "stakerFeeReceiver",
      "outputs": [
        {
          "internalType": "address",
          "name": "",
          "type": "address"
        }
      ],
      "stateMutability": "view",
      "type": "function"
    },
    {
      "inputs": [
        {
          "internalType": "uint256",
          "name": "id",
          "type": "uint256"
        }
      ],
      "name": "sweepNFT",
      "outputs": [],
      "stateMutability": "nonpayable",
      "type": "function"
    },
    {
      "inputs": [],
      "name": "unstakeNFT",
      "outputs": [],
      "stateMutability": "nonpayable",
      "type": "function"
    },
    {
      "inputs": [
        {
          "internalType": "address",
          "name": "newValue",
          "type": "address"
        }
      ],
      "name": "updateDevAddr",
      "outputs": [],
      "stateMutability": "nonpayable",
      "type": "function"
    },
    {
      "inputs": [],
      "name": "vePTP",
      "outputs": [
        {
          "internalType": "contract IVePTP",
          "name": "",
          "type": "address"
        }
      ],
      "stateMutability": "view",
      "type": "function"
    },
    {
      "inputs": [
        {
          "internalType": "uint256",
          "name": "_pid",
          "type": "uint256"
        },
        {
          "internalType": "address",
          "name": "_stakingContract",
          "type": "address"
        },
        {
          "internalType": "address",
          "name": "_pool",
          "type": "address"
        },
        {
          "internalType": "address",
          "name": "_token",
          "type": "address"
        },
        {
          "internalType": "address",
          "name": "_asset",
          "type": "address"
        },
        {
          "internalType": "uint256",
          "name": "_maxSlippage",
          "type": "uint256"
        },
        {
          "internalType": "uint256",
          "name": "_amount",
          "type": "uint256"
        }
      ],
      "name": "withdraw",
      "outputs": [
        {
          "internalType": "uint256",
          "name": "",
          "type": "uint256"
        }
      ],
      "stateMutability": "nonpayable",
      "type": "function"
    }
  ],
  "transactionHash": "0x6ca62631b405a930f7b046cb1fd8cdd11e61a3e100b153c4a9ef3e503c157109",
  "args": [
    "0x40089e90156Fc6F994cc0eC86dbe84634A1C156F",
    "0xDcEDF06Fd33E1D7b6eb4b309f779a0e9D3172e44",
    {
      "stakerFeeBips": 1500,
      "boosterFeeBips": 0,
      "stakerFeeReceiver": "0x9bc36cc686800be1905bf7e10578ee6fbdd6f27a",
      "boosterFeeReceiver": "0x0000000000000000000000000000000000000000"
    }
  ],
  "solcInputHash": "e2e83960b088117fd24c6ffcef4dccfe",
  "bytecode": "0x60a06040523480156200001157600080fd5b506040516200318c3803806200318c8339810160408190526200003491620000ae565b600480546001600160a01b03199081166001600160a01b039485161790915560208201516000558151600155604082015160028054831691851691909117905560609091015160038054909216908316179055166080526200016c565b80516001600160a01b0381168114620000a957600080fd5b919050565b600080600083850360c0811215620000c557600080fd5b620000d08562000091565b9350620000e06020860162000091565b92506080603f1982011215620000f557600080fd5b50604051608081016001600160401b03811182821017156200012757634e487b7160e01b600052604160045260246000fd5b6040908152850151815260608501516020820152620001496080860162000091565b60408201526200015c60a0860162000091565b6060820152809150509250925092565b608051612f4e6200023e60003960008181610386015281816104ce0152818161050e0152818161065b0152818161070c0152818161090501528181610960015281816109fb01528181610ab301528181610b5301528181610c2501528181610c9901528181610d7501528181610e2001528181610ea80152818161108601528181611197015281816112c60152818161137a015281816114bc0152818161150f0152818161181001528181611c1c01528181611cc501528181611d4b01528181611d9101526125760152612f4e6000f3fe608060405234801561001057600080fd5b50600436106101a35760003560e01c80638583b7fa116100ee578063b5e893a511610097578063d289d96911610071578063d289d96914610381578063da09c72c146103a8578063e0a747fe146103bb578063e8a17c82146103c357600080fd5b8063b5e893a514610340578063b821da0b14610353578063c494448e1461036e57600080fd5b80639291d563116100c85780639291d5631461030757806397eef1871461031a578063a530882e1461032d57600080fd5b80638583b7fa146102d1578063865710f0146102d95780638dc1564a146102ec57600080fd5b8063529ebc7d11610150578063781a29d11161012a578063781a29d11461029a578063792a230f146102a357806382fc6b1d146102b657600080fd5b8063529ebc7d1461023d5780636099ecb2146102505780636eb604e01461028757600080fd5b80632d61a546116101815780632d61a546146101f6578063491cad29146102215780634b2d9ffc1461023457600080fd5b806301e1c48d146101a857806302eb6f7e146101ce578063174e31c4146101e3575b600080fd5b6101bb6101b63660046128fd565b6103d6565b6040519081526020015b60405180910390f35b6101e16101dc366004612929565b6103eb565b005b6101e16101f13660046128fd565b610796565b600254610209906001600160a01b031681565b6040516001600160a01b0390911681526020016101c5565b6101e161022f366004612991565b610f23565b6101bb60015481565b6101e161024b3660046129ae565b610fac565b61026361025e3660046128fd565b61117c565b6040805193845260208401929092526001600160a01b0316908201526060016101c5565b6101e1610295366004612a28565b61123d565b6101bb60005481565b600354610209906001600160a01b031681565b610209736a04a578247e15e3c038acf2686ca00a624a5aa081565b6101bb6114e8565b6101e16102e7366004612a28565b6115d1565b6102097322d4002028f537599be9f666d1c4fa138522f9c881565b6101e1610315366004612991565b611630565b6101e1610328366004612a28565b6116b9565b6101bb61033b3660046129ae565b611718565b6101e161034e366004612991565b611948565b610209735857019c749147eee22b1fe63500f237f3c1b69281565b6101e161037c366004612a41565b6119d1565b6102097f000000000000000000000000000000000000000000000000000000000000000081565b600454610209906001600160a01b031681565b6101e1611b72565b6101e16103d1366004612a28565b611c5e565b60006103e28383611d73565b90505b92915050565b6001600160a01b038085166000908152600560209081526040808320898452909152902054859187911633146104685760405162461bcd60e51b815260206004820181905260248201527f506c617479707573566f74657250726f78793a3a6f6e6c79537472617465677960448201526064015b60405180910390fd5b6104f68660008960405160240161048191815260200190565b60408051601f198184030181529190526020810180516001600160e01b03167f5312ea8e000000000000000000000000000000000000000000000000000000001790526001600160a01b037f000000000000000000000000000000000000000000000000000000000000000016929190612131565b506040516370a0823160e01b81526001600160a01b037f000000000000000000000000000000000000000000000000000000000000000081166004830152600091908516906370a0823190602401602060405180830381865afa158015610561573d6000803e3d6000fd5b505050506040513d601f19601f820116820180604052508101906105859190612a7a565b60405163907448ed60e01b81526001600160a01b0387811660048301526024820183905291925060009188169063907448ed90604401606060405180830381865afa1580156105d8573d6000803e3d6000fd5b505050506040513d601f19601f820116820180604052508101906105fc9190612aa8565b50506040516001600160a01b0389166024820152604481018490529091506106839086906000906064015b60408051601f198184030181529190526020810180516001600160e01b031663095ea7b360e01b1790526001600160a01b037f000000000000000000000000000000000000000000000000000000000000000016929190612131565b506040516001600160a01b0387166024820152604481018390526064810182905233608482015260001960a482015261073490889060009060c4015b60408051601f198184030181529190526020810180516001600160e01b03167f09a5fca3000000000000000000000000000000000000000000000000000000001790526001600160a01b037f000000000000000000000000000000000000000000000000000000000000000016929190612131565b506040516001600160a01b038916602482015260006044820181905261075f91879190606401610627565b506040516001600160a01b038816602482015260006044820181905261078a91889190606401610627565b50505050505050505050565b6001600160a01b0380831660009081526005602090815260408083208584529091529020548391839116331461080e5760405162461bcd60e51b815260206004820181905260248201527f506c617479707573566f74657250726f78793a3a6f6e6c795374726174656779604482015260640161045f565b6040517fbc70fdbc000000000000000000000000000000000000000000000000000000008152600481018490526000906001600160a01b0386169063bc70fdbc90602401600060405180830381865afa15801561086f573d6000803e3d6000fd5b505050506040513d6000823e601f3d908101601f191682016040526108979190810190612bb7565b506040516024810186905260006044820181905291925061092d9187916064015b60408051601f198184030181529190526020810180516001600160e01b03167fe2bbb158000000000000000000000000000000000000000000000000000000001790526001600160a01b037f000000000000000000000000000000000000000000000000000000000000000016929190612131565b507fffffffffffffffffffffffff4ce09955c3e187ac9c0f78a5e48b1d847a0299396001600160a01b038216016109e4577f00000000000000000000000000000000000000000000000000000000000000006001600160a01b0316635a556f516040518163ffffffff1660e01b81526004016020604051808303816000875af11580156109be573d6000803e3d6000fd5b505050506040513d601f19601f820116820180604052508101906109e29190612a7a565b505b6040516370a0823160e01b81526001600160a01b037f00000000000000000000000000000000000000000000000000000000000000001660048201526000907322d4002028f537599be9f666d1c4fa138522f9c8906370a0823190602401602060405180830381865afa158015610a5f573d6000803e3d6000fd5b505050506040513d601f19601f82011682018060405250810190610a839190612a7a565b905060006001600160a01b038316610a9c576000610b26565b6040516370a0823160e01b81526001600160a01b037f0000000000000000000000000000000000000000000000000000000000000000811660048301528416906370a0823190602401602060405180830381865afa158015610b02573d6000803e3d6000fd5b505050506040513d601f19601f82011682018060405250810190610b269190612a7a565b90508115610df3576000808054118015610b4a57506003546001600160a01b031615155b8015610bd357507f00000000000000000000000000000000000000000000000000000000000000006001600160a01b0316635392fd1c6040518163ffffffff1660e01b8152600401602060405180830381865afa158015610baf573d6000803e3d6000fd5b505050506040513d601f19601f82011682018060405250810190610bd39190612c08565b15610cc35761271060005484610be99190612c39565b610bf39190612c58565b6040517f7c0bb4ab000000000000000000000000000000000000000000000000000000008152600481018290529091507f00000000000000000000000000000000000000000000000000000000000000006001600160a01b031690637c0bb4ab90602401600060405180830381600087803b158015610c7157600080fd5b505af1158015610c85573d6000803e3d6000fd5b5050600354610cc392506001600160a01b037f000000000000000000000000000000000000000000000000000000000000000081169250168361222e565b600080600154118015610ce057506002546001600160a01b031615155b15610d9f5761271060015485610cf69190612c39565b610d009190612c58565b6002546040516001600160a01b03909116602482015260448101829052909150610d9d907322d4002028f537599be9f666d1c4fa138522f9c8906000906064015b60408051601f198184030181529190526020810180516001600160e01b031663a9059cbb60e01b1790526001600160a01b037f000000000000000000000000000000000000000000000000000000000000000016929190612131565b505b600081610dac8487612c7a565b610db69190612c7a565b60405133602482015260448101829052909150610dee907322d4002028f537599be9f666d1c4fa138522f9c890600090606401610d41565b505050505b8015610e1c5760405133602482015260448101829052610e1a908490600090606401610d41565b505b60007f00000000000000000000000000000000000000000000000000000000000000006001600160a01b031663129635956040518163ffffffff1660e01b8152600401602060405180830381865afa158015610e7c573d6000803e3d6000fd5b505050506040513d601f19601f82011682018060405250810190610ea09190612a7a565b1115610f1a577f00000000000000000000000000000000000000000000000000000000000000006001600160a01b031663a71871226040518163ffffffff1660e01b8152600401600060405180830381600087803b158015610f0157600080fd5b505af1158015610f15573d6000803e3d6000fd5b505050505b50505050505050565b6004546001600160a01b03163314610f7d5760405162461bcd60e51b815260206004820152601b60248201527f506c617479707573566f74657250726f78793a3a6f6e6c794465760000000000604482015260640161045f565b6003805473ffffffffffffffffffffffffffffffffffffffff19166001600160a01b0392909216919091179055565b6001600160a01b0380871660009081526005602090815260408083208b8452909152902054879189911633146110245760405162461bcd60e51b815260206004820181905260248201527f506c617479707573566f74657250726f78793a3a6f6e6c795374726174656779604482015260640161045f565b60006110318686866122ae565b90506110476001600160a01b0388168987612416565b6040517f90d250740000000000000000000000000000000000000000000000000000000081526001600160a01b038881166004830152602482018790527f00000000000000000000000000000000000000000000000000000000000000008116604483015260001960648301528916906390d25074906084016020604051808303816000875af11580156110df573d6000803e3d6000fd5b505050506040513d601f19601f820116820180604052508101906111039190612a7a565b506040516001600160a01b038a1660248201526044810182905261112e908790600090606401610627565b506111518960008c846040516024016108b8929190918252602082015260400190565b506040516001600160a01b038a166024820152600060448201819052610f1591889190606401610627565b600080600080600080876001600160a01b031663ffcd4263887f00000000000000000000000000000000000000000000000000000000000000006040518363ffffffff1660e01b81526004016111e59291909182526001600160a01b0316602082015260400190565b600060405180830381865afa158015611202573d6000803e3d6000fd5b505050506040513d6000823e601f3d908101601f1916820160405261122a9190810190612c91565b9298509196509450505050509250925092565b6004546001600160a01b031633146112975760405162461bcd60e51b815260206004820152601b60248201527f506c617479707573566f74657250726f78793a3a6f6e6c794465760000000000604482015260640161045f565b6040517f6352211e000000000000000000000000000000000000000000000000000000008152600481018290527f00000000000000000000000000000000000000000000000000000000000000006001600160a01b031690736a04a578247e15e3c038acf2686ca00a624a5aa090636352211e90602401602060405180830381865afa15801561132b573d6000803e3d6000fd5b505050506040513d601f19601f8201168201806040525081019061134f9190612cf3565b6001600160a01b0316146113f8576040516323b872dd60e01b81523360048201526001600160a01b037f000000000000000000000000000000000000000000000000000000000000000016602482015260448101829052736a04a578247e15e3c038acf2686ca00a624a5aa0906323b872dd90606401600060405180830381600087803b1580156113df57600080fd5b505af11580156113f3573d6000803e3d6000fd5b505050505b604051735857019c749147eee22b1fe63500f237f3c1b69260248201526044810182905261144190736a04a578247e15e3c038acf2686ca00a624a5aa090600090606401610627565b506114e4735857019c749147eee22b1fe63500f237f3c1b69260008360405160240161146f91815260200190565b60408051601f198184030181529190526020810180516001600160e01b03167f4300f5e1000000000000000000000000000000000000000000000000000000001790526001600160a01b037f000000000000000000000000000000000000000000000000000000000000000016929190612131565b5050565b6000805481901580159061150657506003546001600160a01b031615155b801561158f57507f00000000000000000000000000000000000000000000000000000000000000006001600160a01b0316635392fd1c6040518163ffffffff1660e01b8152600401602060405180830381865afa15801561156b573d6000803e3d6000fd5b505050506040513d601f19601f8201168201806040525081019061158f9190612c08565b1561159957506000545b6000806001541180156115b657506002546001600160a01b031615155b156115c057506001545b6115ca8183612d10565b9250505090565b6004546001600160a01b0316331461162b5760405162461bcd60e51b815260206004820152601b60248201527f506c617479707573566f74657250726f78793a3a6f6e6c794465760000000000604482015260640161045f565b600055565b6004546001600160a01b0316331461168a5760405162461bcd60e51b815260206004820152601b60248201527f506c617479707573566f74657250726f78793a3a6f6e6c794465760000000000604482015260640161045f565b6004805473ffffffffffffffffffffffffffffffffffffffff19166001600160a01b0392909216919091179055565b6004546001600160a01b031633146117135760405162461bcd60e51b815260206004820152601b60248201527f506c617479707573566f74657250726f78793a3a6f6e6c794465760000000000604482015260640161045f565b600155565b6001600160a01b0380871660009081526005602090815260408083208b8452909152812054909188918a911633146117925760405162461bcd60e51b815260206004820181905260248201527f506c617479707573566f74657250726f78793a3a6f6e6c795374726174656779604482015260640161045f565b600061179f8b8b8761254b565b90506118388a60008d846040516024016117c3929190918252602082015260400190565b60408051601f198184030181529190526020810180516001600160e01b03167f441a3e70000000000000000000000000000000000000000000000000000000001790526001600160a01b037f000000000000000000000000000000000000000000000000000000000000000016929190612131565b506040516001600160a01b038a16602482015260448101829052611863908890600090606401610627565b5060006118718a8a8461260a565b61187b9083612c7a565b9050600061271061188c8984612c39565b6118969190612c58565b90506118a28183612c7a565b6040516001600160a01b038c166024820152604481018590526064810182905230608482015260001960a48201529092506000906118e6908d90839060c4016106bf565b6040516001600160a01b038e166024820152600060448201819052919250611912918c91606401610627565b506000611920826000612689565b90506119366001600160a01b038d16338361222e565b9e9d5050505050505050505050505050565b6004546001600160a01b031633146119a25760405162461bcd60e51b815260206004820152601b60248201527f506c617479707573566f74657250726f78793a3a6f6e6c794465760000000000604482015260640161045f565b6002805473ffffffffffffffffffffffffffffffffffffffff19166001600160a01b0392909216919091179055565b6004546001600160a01b03163314611a2b5760405162461bcd60e51b815260206004820152601b60248201527f506c617479707573566f74657250726f78793a3a6f6e6c794465760000000000604482015260640161045f565b6000816001600160a01b0316635eaec0e46040518163ffffffff1660e01b81526004016020604051808303816000875af1158015611a6d573d6000803e3d6000fd5b505050506040513d601f19601f82011682018060405250810190611a919190612a7a565b6001600160a01b0384811660009081526005602090815260408083208584529091529020549192501615611b2d5760405162461bcd60e51b815260206004820152603260248201527f506c617479707573566f74657250726f78793a3a537472617465677920666f7260448201527f2050494420616c72656164792061646465640000000000000000000000000000606482015260840161045f565b6001600160a01b03928316600090815260056020908152604080832093835292905220805473ffffffffffffffffffffffffffffffffffffffff191691909216179055565b6004546001600160a01b03163314611bcc5760405162461bcd60e51b815260206004820152601b60248201527f506c617479707573566f74657250726f78793a3a6f6e6c794465760000000000604482015260640161045f565b6040805160048152602481019091526020810180516001600160e01b03167f6e0d323500000000000000000000000000000000000000000000000000000000179052611c5b906001600160a01b037f00000000000000000000000000000000000000000000000000000000000000001690735857019c749147eee22b1fe63500f237f3c1b69290600090612131565b50565b6004546001600160a01b03163314611cb85760405162461bcd60e51b815260206004820152601b60248201527f506c617479707573566f74657250726f78793a3a6f6e6c794465760000000000604482015260640161045f565b6040516001600160a01b037f0000000000000000000000000000000000000000000000000000000000000000166024820152336044820152606481018290526114e490736a04a578247e15e3c038acf2686ca00a624a5aa09060009060840160408051601f198184030181529190526020810180516001600160e01b03166323b872dd60e01b1790526001600160a01b037f000000000000000000000000000000000000000000000000000000000000000016929190612131565b6040516393f1a40b60e01b8152600481018290526001600160a01b037f00000000000000000000000000000000000000000000000000000000000000008116602483015260009182918516906393f1a40b90604401606060405180830381865afa158015611de5573d6000803e3d6000fd5b505050506040513d601f19601f82011682018060405250810190611e099190612d28565b5050905080600003611e1f5760009150506103e5565b60007fffffffffffffffffffffffff4fadc060b8c7ed04e6a11b64382d54678c567fbc6001600160a01b03861601611ec957604051631526fe2760e01b8152600481018590526001600160a01b03861690631526fe279060240160e060405180830381865afa158015611e96573d6000803e3d6000fd5b505050506040513d601f19601f82011682018060405250810190611eba9190612d56565b50949550611f3e945050505050565b604051631526fe2760e01b8152600481018590526001600160a01b03861690631526fe279060240161010060405180830381865afa158015611f0f573d6000803e3d6000fd5b505050506040513d601f19601f82011682018060405250810190611f339190612dc1565b509596505050505050505b6000816001600160a01b03166316f0115b6040518163ffffffff1660e01b8152600401602060405180830381865afa158015611f7e573d6000803e3d6000fd5b505050506040513d601f19601f82011682018060405250810190611fa29190612cf3565b90506000806000836001600160a01b031663907448ed866001600160a01b0316632495a5996040518163ffffffff1660e01b8152600401602060405180830381865afa158015611ff6573d6000803e3d6000fd5b505050506040513d601f19601f8201168201806040525081019061201a9190612cf3565b6040517fffffffff0000000000000000000000000000000000000000000000000000000060e084901b1681526001600160a01b03909116600482015260248101899052604401606060405180830381865afa15801561207d573d6000803e3d6000fd5b505050506040513d601f19601f820116820180604052508101906120a19190612aa8565b9250925092508061211a5760405162461bcd60e51b815260206004820152602960248201527f506c617479707573566f74657250726f78793a3a546869732073686f756c646e60448201527f27742068617070656e0000000000000000000000000000000000000000000000606482015260840161045f565b6121248284612d10565b9998505050505050505050565b6060600080866001600160a01b031663b61d27f68787876040518463ffffffff1660e01b815260040161216693929190612e60565b6000604051808303816000875af1158015612185573d6000803e3d6000fd5b505050506040513d6000823e601f3d908101601f191682016040526121ad9190810190612e91565b91509150816122245760405162461bcd60e51b815260206004820152602660248201527f506c617479707573566f74657250726f78793a3a73616665457865637574652060448201527f6661696c65640000000000000000000000000000000000000000000000000000606482015260840161045f565b9695505050505050565b6040516001600160a01b0383166024820152604481018290526122a990849063a9059cbb60e01b906064015b60408051601f198184030181529190526020810180516001600160e01b03167fffffffff00000000000000000000000000000000000000000000000000000000909316929092179091526126ef565b505050565b6000836001600160a01b031663705727b56040518163ffffffff1660e01b8152600401602060405180830381865afa1580156122ee573d6000803e3d6000fd5b505050506040513d601f19601f820116820180604052508101906123129190612a7a565b60000361232a576123238284612c7a565b905061240f565b836001600160a01b031663705727b56040518163ffffffff1660e01b8152600401602060405180830381865afa158015612368573d6000803e3d6000fd5b505050506040513d601f19601f8201168201806040525081019061238c9190612a7a565b846001600160a01b03166318160ddd6040518163ffffffff1660e01b8152600401602060405180830381865afa1580156123ca573d6000803e3d6000fd5b505050506040513d601f19601f820116820180604052508101906123ee9190612a7a565b6123f88486612c7a565b6124029190612c39565b61240c9190612c58565b90505b9392505050565b8015806124a957506040517fdd62ed3e0000000000000000000000000000000000000000000000000000000081523060048201526001600160a01b03838116602483015284169063dd62ed3e90604401602060405180830381865afa158015612483573d6000803e3d6000fd5b505050506040513d601f19601f820116820180604052508101906124a79190612a7a565b155b61251b5760405162461bcd60e51b815260206004820152603660248201527f5361666545524332303a20617070726f76652066726f6d206e6f6e2d7a65726f60448201527f20746f206e6f6e2d7a65726f20616c6c6f77616e636500000000000000000000606482015260840161045f565b6040516001600160a01b0383166024820152604481018290526122a990849063095ea7b360e01b9060640161225a565b6000806125588486611d73565b6040516393f1a40b60e01b8152600481018790526001600160a01b037f0000000000000000000000000000000000000000000000000000000000000000811660248301529192506000918616906393f1a40b90604401606060405180830381865afa1580156125cb573d6000803e3d6000fd5b505050506040513d601f19601f820116820180604052508101906125ef9190612d28565b505090508181856126009190612c39565b6122249190612c58565b60405163907448ed60e01b81526001600160a01b038381166004830152602482018390526000919085169063907448ed90604401606060405180830381865afa15801561265b573d6000803e3d6000fd5b505050506040513d601f19601f8201168201806040525081019061267f9190612aa8565b5095945050505050565b6000612696826020612d10565b835110156126e65760405162461bcd60e51b815260206004820152601560248201527f746f55696e743235365f6f75744f66426f756e64730000000000000000000000604482015260640161045f565b50016020015190565b6000612744826040518060400160405280602081526020017f5361666545524332303a206c6f772d6c6576656c2063616c6c206661696c6564815250856001600160a01b03166127d49092919063ffffffff16565b8051909150156122a957808060200190518101906127629190612c08565b6122a95760405162461bcd60e51b815260206004820152602a60248201527f5361666545524332303a204552433230206f7065726174696f6e20646964206e60448201527f6f74207375636365656400000000000000000000000000000000000000000000606482015260840161045f565b606061240c8484600085856001600160a01b0385163b6128365760405162461bcd60e51b815260206004820152601d60248201527f416464726573733a2063616c6c20746f206e6f6e2d636f6e7472616374000000604482015260640161045f565b600080866001600160a01b031685876040516128529190612ee9565b60006040518083038185875af1925050503d806000811461288f576040519150601f19603f3d011682016040523d82523d6000602084013e612894565b606091505b50915091506128a48282866128af565b979650505050505050565b606083156128be57508161240f565b8251156128ce5782518084602001fd5b8160405162461bcd60e51b815260040161045f9190612f05565b6001600160a01b0381168114611c5b57600080fd5b6000806040838503121561291057600080fd5b823561291b816128e8565b946020939093013593505050565b600080600080600060a0868803121561294157600080fd5b853594506020860135612953816128e8565b93506040860135612963816128e8565b92506060860135612973816128e8565b91506080860135612983816128e8565b809150509295509295909350565b6000602082840312156129a357600080fd5b813561240f816128e8565b600080600080600080600060e0888a0312156129c957600080fd5b8735965060208801356129db816128e8565b955060408801356129eb816128e8565b945060608801356129fb816128e8565b93506080880135612a0b816128e8565b9699959850939692959460a0840135945060c09093013592915050565b600060208284031215612a3a57600080fd5b5035919050565b60008060408385031215612a5457600080fd5b8235612a5f816128e8565b91506020830135612a6f816128e8565b809150509250929050565b600060208284031215612a8c57600080fd5b5051919050565b80518015158114612aa357600080fd5b919050565b600080600060608486031215612abd57600080fd5b8351925060208401519150612ad460408501612a93565b90509250925092565b634e487b7160e01b600052604160045260246000fd5b60005b83811015612b0e578181015183820152602001612af6565b83811115612b1d576000848401525b50505050565b600067ffffffffffffffff80841115612b3e57612b3e612add565b604051601f8501601f19908116603f01168101908282118183101715612b6657612b66612add565b81604052809350858152868686011115612b7f57600080fd5b612b8d866020830187612af3565b5050509392505050565b600082601f830112612ba857600080fd5b6103e283835160208501612b23565b60008060408385031215612bca57600080fd5b8251612bd5816128e8565b602084015190925067ffffffffffffffff811115612bf257600080fd5b612bfe85828601612b97565b9150509250929050565b600060208284031215612c1a57600080fd5b6103e282612a93565b634e487b7160e01b600052601160045260246000fd5b6000816000190483118215151615612c5357612c53612c23565b500290565b600082612c7557634e487b7160e01b600052601260045260246000fd5b500490565b600082821015612c8c57612c8c612c23565b500390565b60008060008060808587031215612ca757600080fd5b845193506020850151612cb9816128e8565b604086015190935067ffffffffffffffff811115612cd657600080fd5b612ce287828801612b97565b606096909601519497939650505050565b600060208284031215612d0557600080fd5b815161240f816128e8565b60008219821115612d2357612d23612c23565b500190565b600080600060608486031215612d3d57600080fd5b8351925060208401519150604084015190509250925092565b600080600080600080600060e0888a031215612d7157600080fd5b8751612d7c816128e8565b809750506020880151955060408801519450606088015193506080880151612da3816128e8565b8093505060a0880151915060c0880151905092959891949750929550565b600080600080600080600080610100898b031215612dde57600080fd5b8851612de9816128e8565b809850506020890151965060408901519550606089015194506080890151612e10816128e8565b60a08a015160c08b015160e0909b0151999c989b5096999598909790945092505050565b60008151808452612e4c816020860160208601612af3565b601f01601f19169290920160200192915050565b6001600160a01b0384168152826020820152606060408201526000612e886060830184612e34565b95945050505050565b60008060408385031215612ea457600080fd5b612ead83612a93565b9150602083015167ffffffffffffffff811115612ec957600080fd5b8301601f81018513612eda57600080fd5b612bfe85825160208401612b23565b60008251612efb818460208701612af3565b9190910192915050565b6020815260006103e26020830184612e3456fea2646970667358221220c2f6bc12c8de2c270ce24315ea1b48cd6aec7bd0ccd10a69e12311876eed995264736f6c634300080d0033",
  "devdoc": {
    "details": "For accounting reasons, there is one approved strategy per Masterchef PID. In case of upgrade, use a new proxy.",
    "kind": "dev",
    "methods": {
      "approveStrategy(address,address)": {
        "details": "Very sensitive, restricted to devAddrCan only be set once per PID and staking contract (reported by the strategy)",
        "params": {
          "_stakingContract": "address",
          "_strategy": "address"
        }
      },
      "claimReward(address,uint256)": {
        "details": "Restricted to strategy with _pid",
        "params": {
          "_pid": "PID",
          "_stakingContract": "Platypus Masterchef"
        }
      },
      "deposit(uint256,address,address,address,address,uint256,uint256)": {
        "details": "Restricted to strategy with _pid",
        "params": {
          "_amount": "deposit amount",
          "_asset": "Platypus asset",
          "_depositFee": "deposit fee",
          "_pid": "PID",
          "_pool": "Platypus pool",
          "_stakingContract": "Platypus Masterchef",
          "_token": "Deposit asset"
        }
      },
      "emergencyWithdraw(uint256,address,address,address,address)": {
        "details": "Restricted to strategy with _pid",
        "params": {
          "_asset": "Platypus asset",
          "_pid": "PID",
          "_pool": "Platypus pool",
          "_stakingContract": "Platypus Masterchef",
          "_token": "Deposit asset"
        }
      },
      "pendingRewards(address,uint256)": {
        "params": {
          "_pid": "PID",
          "_stakingContract": "Platypus Masterchef"
        },
        "returns": {
          "_0": "pendingPtp",
          "_1": "pendingBonusToken",
          "_2": "bonusTokenAddress"
        }
      },
      "poolBalance(address,uint256)": {
        "params": {
          "_pid": "PID",
          "_stakingContract": "Platypus Masterchef"
        },
        "returns": {
          "balance": "in depositToken"
        }
      },
      "reinvestFeeBips()": {
        "returns": {
          "_0": "reinvest fee"
        }
      },
      "setBoosterFee(uint256)": {
        "details": "Restricted to devAddr",
        "params": {
          "_boosterFeeBips": "new fee in bips (1% = 100 bips)"
        }
      },
      "setBoosterFeeReceiver(address)": {
        "details": "Restricted to devAddr",
        "params": {
          "_boosterFeeReceiver": "address"
        }
      },
      "setStakerFee(uint256)": {
        "details": "Restricted to devAddr",
        "params": {
          "_stakerFeeBips": "new fee in bips (1% = 100 bips)"
        }
      },
      "setStakerFeeReceiver(address)": {
        "details": "Restricted to devAddr",
        "params": {
          "_stakerFeeReceiver": "address"
        }
      },
      "stakeNFT(uint256)": {
        "details": "Restricted to devAddr.The currently staked NFT will be automatically unstaked and remain on voter. Use \"sweepNFT\" to get it back.",
        "params": {
          "id": "id of the NFT to be staked"
        }
      },
      "sweepNFT(uint256)": {
        "details": "Restricted to devAddr.",
        "params": {
          "id": "id of the NFT to be swept"
        }
      },
      "unstakeNFT()": {
        "details": "Restricted to devAddr.The unstaked NFT will remain on voter. Use \"sweepNFT\" to get it back."
      },
      "updateDevAddr(address)": {
        "params": {
          "newValue": "address"
        }
      },
      "withdraw(uint256,address,address,address,address,uint256,uint256)": {
        "details": "Restricted to strategy with _pid",
        "params": {
          "_amount": "withdraw amount",
          "_asset": "Platypus asset",
          "_maxSlippage": "max slippage in bips",
          "_pid": "PID",
          "_pool": "Platypus pool",
          "_stakingContract": "Platypus Masterchef",
          "_token": "Deposit asset"
        },
        "returns": {
          "_0": "amount withdrawn, in _token"
        }
      }
    },
    "version": 1
  },
  "userdoc": {
    "kind": "user",
    "methods": {
      "approveStrategy(address,address)": {
        "notice": "Add an approved strategy"
      },
      "claimReward(address,uint256)": {
        "notice": "Claim and distribute PTP rewards"
      },
      "deposit(uint256,address,address,address,address,uint256,uint256)": {
        "notice": "Deposit function"
      },
      "emergencyWithdraw(uint256,address,address,address,address)": {
        "notice": "Emergency withdraw function"
      },
      "pendingRewards(address,uint256)": {
        "notice": "Pending rewards matching interface for PlatypusStrategy"
      },
      "poolBalance(address,uint256)": {
        "notice": "Pool balance"
      },
      "reinvestFeeBips()": {
        "notice": "Calculation of reinvest fee (boost + staking)"
      },
      "setBoosterFee(uint256)": {
        "notice": "Update booster fee"
      },
      "setBoosterFeeReceiver(address)": {
        "notice": "Update booster fee receiver"
      },
      "setStakerFee(uint256)": {
        "notice": "Update staker fee"
      },
      "setStakerFeeReceiver(address)": {
        "notice": "Update staker fee receiver"
      },
      "stakeNFT(uint256)": {
        "notice": "Stake NFT "
      },
      "sweepNFT(uint256)": {
        "notice": "Sweep NFT"
      },
      "unstakeNFT()": {
        "notice": "Unstake the currently staked NFT "
      },
      "updateDevAddr(address)": {
        "notice": "Update devAddr"
      },
      "withdraw(uint256,address,address,address,address,uint256,uint256)": {
        "notice": "Withdraw function"
      }
    },
    "notice": "PlatypusVoterProxy is an upgradable contract. Strategies interact with PlatypusVoterProxy and PlatypusVoterProxy interacts with PlatypusVoter.",
    "version": 1
  },
  "storageLayout": {
    "storage": [
      {
        "astId": 41101,
        "contract": "contracts/strategies/platypus/PlatypusVoterProxy.sol:PlatypusVoterProxy",
        "label": "boosterFee",
        "offset": 0,
        "slot": "0",
        "type": "t_uint256"
      },
      {
        "astId": 41103,
        "contract": "contracts/strategies/platypus/PlatypusVoterProxy.sol:PlatypusVoterProxy",
        "label": "stakerFee",
        "offset": 0,
        "slot": "1",
        "type": "t_uint256"
      },
      {
        "astId": 41105,
        "contract": "contracts/strategies/platypus/PlatypusVoterProxy.sol:PlatypusVoterProxy",
        "label": "stakerFeeReceiver",
        "offset": 0,
        "slot": "2",
        "type": "t_address"
      },
      {
        "astId": 41107,
        "contract": "contracts/strategies/platypus/PlatypusVoterProxy.sol:PlatypusVoterProxy",
        "label": "boosterFeeReceiver",
        "offset": 0,
        "slot": "3",
        "type": "t_address"
      },
      {
        "astId": 41125,
        "contract": "contracts/strategies/platypus/PlatypusVoterProxy.sol:PlatypusVoterProxy",
        "label": "devAddr",
        "offset": 0,
        "slot": "4",
        "type": "t_address"
      },
      {
        "astId": 41131,
        "contract": "contracts/strategies/platypus/PlatypusVoterProxy.sol:PlatypusVoterProxy",
        "label": "approvedStrategies",
        "offset": 0,
        "slot": "5",
        "type": "t_mapping(t_address,t_mapping(t_uint256,t_address))"
      }
    ],
    "types": {
      "t_address": {
        "encoding": "inplace",
        "label": "address",
        "numberOfBytes": "20"
      },
      "t_mapping(t_address,t_mapping(t_uint256,t_address))": {
        "encoding": "mapping",
        "key": "t_address",
        "label": "mapping(address => mapping(uint256 => address))",
        "numberOfBytes": "32",
        "value": "t_mapping(t_uint256,t_address)"
      },
      "t_mapping(t_uint256,t_address)": {
        "encoding": "mapping",
        "key": "t_uint256",
        "label": "mapping(uint256 => address)",
        "numberOfBytes": "32",
        "value": "t_address"
      },
      "t_uint256": {
        "encoding": "inplace",
        "label": "uint256",
        "numberOfBytes": "32"
      }
    }
  }
}