{
  "address": "0x4C11142dD4aA2755c2FcC7Edb7E4649deEeE25fe",
  "abi": [
    {
      "inputs": [
        {
          "internalType": "string",
          "name": "_name",
          "type": "string"
        },
        {
          "internalType": "address",
          "name": "_depositToken",
          "type": "address"
        },
        {
          "internalType": "address",
          "name": "_poolRewardToken",
          "type": "address"
        },
        {
          "components": [
            {
              "internalType": "address",
              "name": "swapPairToken",
              "type": "address"
            },
            {
              "internalType": "address",
              "name": "swapPairPoolReward",
              "type": "address"
            },
            {
              "internalType": "address",
              "name": "swapPairExtraReward",
              "type": "address"
            }
          ],
          "internalType": "struct PlatypusStrategy.SwapPairs",
          "name": "swapPairs",
          "type": "tuple"
        },
        {
          "internalType": "uint256",
          "name": "_maxSlippage",
          "type": "uint256"
        },
        {
          "internalType": "address",
          "name": "_pool",
          "type": "address"
        },
        {
          "internalType": "address",
          "name": "_stakingContract",
          "type": "address"
        },
        {
          "internalType": "address",
          "name": "_voterProxy",
          "type": "address"
        },
        {
          "internalType": "uint256",
          "name": "_pid",
          "type": "uint256"
        },
        {
          "internalType": "address",
          "name": "_timelock",
          "type": "address"
        },
        {
          "components": [
            {
              "internalType": "uint256",
              "name": "minTokensToReinvest",
              "type": "uint256"
            },
            {
              "internalType": "uint256",
              "name": "devFeeBips",
              "type": "uint256"
            },
            {
              "internalType": "uint256",
              "name": "reinvestRewardBips",
              "type": "uint256"
            }
          ],
          "internalType": "struct YakStrategyV2.StrategySettings",
          "name": "_strategySettings",
          "type": "tuple"
        }
      ],
      "stateMutability": "nonpayable",
      "type": "constructor"
    },
    {
      "anonymous": false,
      "inputs": [
        {
          "indexed": true,
          "internalType": "address",
          "name": "account",
          "type": "address"
        }
      ],
      "name": "AllowDepositor",
      "type": "event"
    },
    {
      "anonymous": false,
      "inputs": [
        {
          "indexed": true,
          "internalType": "address",
          "name": "owner",
          "type": "address"
        },
        {
          "indexed": true,
          "internalType": "address",
          "name": "spender",
          "type": "address"
        },
        {
          "indexed": false,
          "internalType": "uint256",
          "name": "value",
          "type": "uint256"
        }
      ],
      "name": "Approval",
      "type": "event"
    },
    {
      "anonymous": false,
      "inputs": [
        {
          "indexed": true,
          "internalType": "address",
          "name": "account",
          "type": "address"
        },
        {
          "indexed": false,
          "internalType": "uint256",
          "name": "amount",
          "type": "uint256"
        }
      ],
      "name": "Deposit",
      "type": "event"
    },
    {
      "anonymous": false,
      "inputs": [
        {
          "indexed": false,
          "internalType": "bool",
          "name": "newValue",
          "type": "bool"
        }
      ],
      "name": "DepositsEnabled",
      "type": "event"
    },
    {
      "anonymous": false,
      "inputs": [
        {
          "indexed": true,
          "internalType": "address",
          "name": "previousOwner",
          "type": "address"
        },
        {
          "indexed": true,
          "internalType": "address",
          "name": "newOwner",
          "type": "address"
        }
      ],
      "name": "OwnershipTransferred",
      "type": "event"
    },
    {
      "anonymous": false,
      "inputs": [
        {
          "indexed": false,
          "internalType": "address",
          "name": "token",
          "type": "address"
        },
        {
          "indexed": false,
          "internalType": "uint256",
          "name": "amount",
          "type": "uint256"
        }
      ],
      "name": "Recovered",
      "type": "event"
    },
    {
      "anonymous": false,
      "inputs": [
        {
          "indexed": false,
          "internalType": "uint256",
          "name": "newTotalDeposits",
          "type": "uint256"
        },
        {
          "indexed": false,
          "internalType": "uint256",
          "name": "newTotalSupply",
          "type": "uint256"
        }
      ],
      "name": "Reinvest",
      "type": "event"
    },
    {
      "anonymous": false,
      "inputs": [
        {
          "indexed": true,
          "internalType": "address",
          "name": "account",
          "type": "address"
        }
      ],
      "name": "RemoveDepositor",
      "type": "event"
    },
    {
      "anonymous": false,
      "inputs": [
        {
          "indexed": true,
          "internalType": "address",
          "name": "from",
          "type": "address"
        },
        {
          "indexed": true,
          "internalType": "address",
          "name": "to",
          "type": "address"
        },
        {
          "indexed": false,
          "internalType": "uint256",
          "name": "value",
          "type": "uint256"
        }
      ],
      "name": "Transfer",
      "type": "event"
    },
    {
      "anonymous": false,
      "inputs": [
        {
          "indexed": false,
          "internalType": "uint256",
          "name": "oldValue",
          "type": "uint256"
        },
        {
          "indexed": false,
          "internalType": "uint256",
          "name": "newValue",
          "type": "uint256"
        }
      ],
      "name": "UpdateAdminFee",
      "type": "event"
    },
    {
      "anonymous": false,
      "inputs": [
        {
          "indexed": false,
          "internalType": "address",
          "name": "oldValue",
          "type": "address"
        },
        {
          "indexed": false,
          "internalType": "address",
          "name": "newValue",
          "type": "address"
        }
      ],
      "name": "UpdateDevAddr",
      "type": "event"
    },
    {
      "anonymous": false,
      "inputs": [
        {
          "indexed": false,
          "internalType": "uint256",
          "name": "oldValue",
          "type": "uint256"
        },
        {
          "indexed": false,
          "internalType": "uint256",
          "name": "newValue",
          "type": "uint256"
        }
      ],
      "name": "UpdateDevFee",
      "type": "event"
    },
    {
      "anonymous": false,
      "inputs": [
        {
          "indexed": false,
          "internalType": "uint256",
          "name": "oldValue",
          "type": "uint256"
        },
        {
          "indexed": false,
          "internalType": "uint256",
          "name": "newValue",
          "type": "uint256"
        }
      ],
      "name": "UpdateMaxTokensToDepositWithoutReinvest",
      "type": "event"
    },
    {
      "anonymous": false,
      "inputs": [
        {
          "indexed": false,
          "internalType": "uint256",
          "name": "oldValue",
          "type": "uint256"
        },
        {
          "indexed": false,
          "internalType": "uint256",
          "name": "newValue",
          "type": "uint256"
        }
      ],
      "name": "UpdateMinTokensToReinvest",
      "type": "event"
    },
    {
      "anonymous": false,
      "inputs": [
        {
          "indexed": false,
          "internalType": "uint256",
          "name": "oldValue",
          "type": "uint256"
        },
        {
          "indexed": false,
          "internalType": "uint256",
          "name": "newValue",
          "type": "uint256"
        }
      ],
      "name": "UpdateReinvestReward",
      "type": "event"
    },
    {
      "anonymous": false,
      "inputs": [
        {
          "indexed": true,
          "internalType": "address",
          "name": "account",
          "type": "address"
        },
        {
          "indexed": false,
          "internalType": "uint256",
          "name": "amount",
          "type": "uint256"
        }
      ],
      "name": "Withdraw",
      "type": "event"
    },
    {
      "inputs": [],
      "name": "ADMIN_FEE_BIPS",
      "outputs": [
        {
          "internalType": "uint256",
          "name": "",
          "type": "uint256"
        }
      ],
      "stateMutability": "view",
      "type": "function"
    },
    {
      "inputs": [],
      "name": "DEPOSITS_ENABLED",
      "outputs": [
        {
          "internalType": "bool",
          "name": "",
          "type": "bool"
        }
      ],
      "stateMutability": "view",
      "type": "function"
    },
    {
      "inputs": [],
      "name": "DEV_FEE_BIPS",
      "outputs": [
        {
          "internalType": "uint256",
          "name": "",
          "type": "uint256"
        }
      ],
      "stateMutability": "view",
      "type": "function"
    },
    {
      "inputs": [],
      "name": "DOMAIN_TYPEHASH",
      "outputs": [
        {
          "internalType": "bytes32",
          "name": "",
          "type": "bytes32"
        }
      ],
      "stateMutability": "view",
      "type": "function"
    },
    {
      "inputs": [],
      "name": "MAX_TOKENS_TO_DEPOSIT_WITHOUT_REINVEST",
      "outputs": [
        {
          "internalType": "uint256",
          "name": "",
          "type": "uint256"
        }
      ],
      "stateMutability": "view",
      "type": "function"
    },
    {
      "inputs": [],
      "name": "MIN_TOKENS_TO_REINVEST",
      "outputs": [
        {
          "internalType": "uint256",
          "name": "",
          "type": "uint256"
        }
      ],
      "stateMutability": "view",
      "type": "function"
    },
    {
      "inputs": [],
      "name": "PERMIT_TYPEHASH",
      "outputs": [
        {
          "internalType": "bytes32",
          "name": "",
          "type": "bytes32"
        }
      ],
      "stateMutability": "view",
      "type": "function"
    },
    {
      "inputs": [],
      "name": "PID",
      "outputs": [
        {
          "internalType": "uint256",
          "name": "",
          "type": "uint256"
        }
      ],
      "stateMutability": "view",
      "type": "function"
    },
    {
      "inputs": [],
      "name": "REINVEST_REWARD_BIPS",
      "outputs": [
        {
          "internalType": "uint256",
          "name": "",
          "type": "uint256"
        }
      ],
      "stateMutability": "view",
      "type": "function"
    },
    {
      "inputs": [],
      "name": "VERSION_HASH",
      "outputs": [
        {
          "internalType": "bytes32",
          "name": "",
          "type": "bytes32"
        }
      ],
      "stateMutability": "view",
      "type": "function"
    },
    {
      "inputs": [
        {
          "internalType": "address",
          "name": "depositor",
          "type": "address"
        }
      ],
      "name": "allowDepositor",
      "outputs": [],
      "stateMutability": "nonpayable",
      "type": "function"
    },
    {
      "inputs": [
        {
          "internalType": "address",
          "name": "account",
          "type": "address"
        },
        {
          "internalType": "address",
          "name": "spender",
          "type": "address"
        }
      ],
      "name": "allowance",
      "outputs": [
        {
          "internalType": "uint256",
          "name": "",
          "type": "uint256"
        }
      ],
      "stateMutability": "view",
      "type": "function"
    },
    {
      "inputs": [
        {
          "internalType": "address",
          "name": "",
          "type": "address"
        }
      ],
      "name": "allowedDepositors",
      "outputs": [
        {
          "internalType": "bool",
          "name": "",
          "type": "bool"
        }
      ],
      "stateMutability": "view",
      "type": "function"
    },
    {
      "inputs": [
        {
          "internalType": "address",
          "name": "spender",
          "type": "address"
        },
        {
          "internalType": "uint256",
          "name": "amount",
          "type": "uint256"
        }
      ],
      "name": "approve",
      "outputs": [
        {
          "internalType": "bool",
          "name": "",
          "type": "bool"
        }
      ],
      "stateMutability": "nonpayable",
      "type": "function"
    },
    {
      "inputs": [],
      "name": "asset",
      "outputs": [
        {
          "internalType": "contract IPlatypusAsset",
          "name": "",
          "type": "address"
        }
      ],
      "stateMutability": "view",
      "type": "function"
    },
    {
      "inputs": [
        {
          "internalType": "address",
          "name": "account",
          "type": "address"
        }
      ],
      "name": "balanceOf",
      "outputs": [
        {
          "internalType": "uint256",
          "name": "",
          "type": "uint256"
        }
      ],
      "stateMutability": "view",
      "type": "function"
    },
    {
      "inputs": [],
      "name": "checkReward",
      "outputs": [
        {
          "internalType": "uint256",
          "name": "",
          "type": "uint256"
        }
      ],
      "stateMutability": "view",
      "type": "function"
    },
    {
      "inputs": [],
      "name": "decimals",
      "outputs": [
        {
          "internalType": "uint8",
          "name": "",
          "type": "uint8"
        }
      ],
      "stateMutability": "view",
      "type": "function"
    },
    {
      "inputs": [
        {
          "internalType": "uint256",
          "name": "amount",
          "type": "uint256"
        }
      ],
      "name": "deposit",
      "outputs": [],
      "stateMutability": "nonpayable",
      "type": "function"
    },
    {
      "inputs": [
        {
          "internalType": "address",
          "name": "account",
          "type": "address"
        },
        {
          "internalType": "uint256",
          "name": "amount",
          "type": "uint256"
        }
      ],
      "name": "depositFor",
      "outputs": [],
      "stateMutability": "nonpayable",
      "type": "function"
    },
    {
      "inputs": [],
      "name": "depositToken",
      "outputs": [
        {
          "internalType": "contract IERC20",
          "name": "",
          "type": "address"
        }
      ],
      "stateMutability": "view",
      "type": "function"
    },
    {
      "inputs": [
        {
          "internalType": "uint256",
          "name": "amount",
          "type": "uint256"
        },
        {
          "internalType": "uint256",
          "name": "deadline",
          "type": "uint256"
        },
        {
          "internalType": "uint8",
          "name": "v",
          "type": "uint8"
        },
        {
          "internalType": "bytes32",
          "name": "r",
          "type": "bytes32"
        },
        {
          "internalType": "bytes32",
          "name": "s",
          "type": "bytes32"
        }
      ],
      "name": "depositWithPermit",
      "outputs": [],
      "stateMutability": "nonpayable",
      "type": "function"
    },
    {
      "inputs": [],
      "name": "devAddr",
      "outputs": [
        {
          "internalType": "address",
          "name": "",
          "type": "address"
        }
      ],
      "stateMutability": "view",
      "type": "function"
    },
    {
      "inputs": [],
      "name": "estimateDeployedBalance",
      "outputs": [
        {
          "internalType": "uint256",
          "name": "",
          "type": "uint256"
        }
      ],
      "stateMutability": "view",
      "type": "function"
    },
    {
      "inputs": [],
      "name": "estimateReinvestReward",
      "outputs": [
        {
          "internalType": "uint256",
          "name": "",
          "type": "uint256"
        }
      ],
      "stateMutability": "view",
      "type": "function"
    },
    {
      "inputs": [],
      "name": "extraToken",
      "outputs": [
        {
          "internalType": "address",
          "name": "",
          "type": "address"
        }
      ],
      "stateMutability": "view",
      "type": "function"
    },
    {
      "inputs": [
        {
          "internalType": "uint256",
          "name": "amount",
          "type": "uint256"
        }
      ],
      "name": "getDepositTokensForShares",
      "outputs": [
        {
          "internalType": "uint256",
          "name": "",
          "type": "uint256"
        }
      ],
      "stateMutability": "view",
      "type": "function"
    },
    {
      "inputs": [],
      "name": "getDomainSeparator",
      "outputs": [
        {
          "internalType": "bytes32",
          "name": "",
          "type": "bytes32"
        }
      ],
      "stateMutability": "view",
      "type": "function"
    },
    {
      "inputs": [
        {
          "internalType": "uint256",
          "name": "amount",
          "type": "uint256"
        }
      ],
      "name": "getSharesForDepositTokens",
      "outputs": [
        {
          "internalType": "uint256",
          "name": "",
          "type": "uint256"
        }
      ],
      "stateMutability": "view",
      "type": "function"
    },
    {
      "inputs": [],
      "name": "masterchef",
      "outputs": [
        {
          "internalType": "contract IMasterPlatypus",
          "name": "",
          "type": "address"
        }
      ],
      "stateMutability": "view",
      "type": "function"
    },
    {
      "inputs": [],
      "name": "maxSlippage",
      "outputs": [
        {
          "internalType": "uint256",
          "name": "",
          "type": "uint256"
        }
      ],
      "stateMutability": "view",
      "type": "function"
    },
    {
      "inputs": [],
      "name": "name",
      "outputs": [
        {
          "internalType": "string",
          "name": "",
          "type": "string"
        }
      ],
      "stateMutability": "view",
      "type": "function"
    },
    {
      "inputs": [
        {
          "internalType": "address",
          "name": "",
          "type": "address"
        }
      ],
      "name": "nonces",
      "outputs": [
        {
          "internalType": "uint256",
          "name": "",
          "type": "uint256"
        }
      ],
      "stateMutability": "view",
      "type": "function"
    },
    {
      "inputs": [],
      "name": "numberOfAllowedDepositors",
      "outputs": [
        {
          "internalType": "uint256",
          "name": "",
          "type": "uint256"
        }
      ],
      "stateMutability": "view",
      "type": "function"
    },
    {
      "inputs": [],
      "name": "owner",
      "outputs": [
        {
          "internalType": "address",
          "name": "",
          "type": "address"
        }
      ],
      "stateMutability": "view",
      "type": "function"
    },
    {
      "inputs": [
        {
          "internalType": "address",
          "name": "owner",
          "type": "address"
        },
        {
          "internalType": "address",
          "name": "spender",
          "type": "address"
        },
        {
          "internalType": "uint256",
          "name": "value",
          "type": "uint256"
        },
        {
          "internalType": "uint256",
          "name": "deadline",
          "type": "uint256"
        },
        {
          "internalType": "uint8",
          "name": "v",
          "type": "uint8"
        },
        {
          "internalType": "bytes32",
          "name": "r",
          "type": "bytes32"
        },
        {
          "internalType": "bytes32",
          "name": "s",
          "type": "bytes32"
        }
      ],
      "name": "permit",
      "outputs": [],
      "stateMutability": "nonpayable",
      "type": "function"
    },
    {
      "inputs": [],
      "name": "pool",
      "outputs": [
        {
          "internalType": "contract IPlatypusPool",
          "name": "",
          "type": "address"
        }
      ],
      "stateMutability": "view",
      "type": "function"
    },
    {
      "inputs": [],
      "name": "proxy",
      "outputs": [
        {
          "internalType": "contract IPlatypusVoterProxy",
          "name": "",
          "type": "address"
        }
      ],
      "stateMutability": "view",
      "type": "function"
    },
    {
      "inputs": [
        {
          "internalType": "uint256",
          "name": "amount",
          "type": "uint256"
        }
      ],
      "name": "recoverAVAX",
      "outputs": [],
      "stateMutability": "nonpayable",
      "type": "function"
    },
    {
      "inputs": [
        {
          "internalType": "address",
          "name": "tokenAddress",
          "type": "address"
        },
        {
          "internalType": "uint256",
          "name": "tokenAmount",
          "type": "uint256"
        }
      ],
      "name": "recoverERC20",
      "outputs": [],
      "stateMutability": "nonpayable",
      "type": "function"
    },
    {
      "inputs": [],
      "name": "reinvest",
      "outputs": [],
      "stateMutability": "nonpayable",
      "type": "function"
    },
    {
      "inputs": [
        {
          "internalType": "address",
          "name": "depositor",
          "type": "address"
        }
      ],
      "name": "removeDepositor",
      "outputs": [],
      "stateMutability": "nonpayable",
      "type": "function"
    },
    {
      "inputs": [],
      "name": "renounceOwnership",
      "outputs": [],
      "stateMutability": "nonpayable",
      "type": "function"
    },
    {
      "inputs": [
        {
          "internalType": "uint256",
          "name": "minReturnAmountAccepted",
          "type": "uint256"
        },
        {
          "internalType": "bool",
          "name": "disableDeposits",
          "type": "bool"
        }
      ],
      "name": "rescueDeployedFunds",
      "outputs": [],
      "stateMutability": "nonpayable",
      "type": "function"
    },
    {
      "inputs": [
        {
          "internalType": "address",
          "name": "token",
          "type": "address"
        },
        {
          "internalType": "address",
          "name": "spender",
          "type": "address"
        }
      ],
      "name": "revokeAllowance",
      "outputs": [],
      "stateMutability": "nonpayable",
      "type": "function"
    },
    {
      "inputs": [],
      "name": "rewardToken",
      "outputs": [
        {
          "internalType": "contract IERC20",
          "name": "",
          "type": "address"
        }
      ],
      "stateMutability": "view",
      "type": "function"
    },
    {
      "inputs": [
        {
          "internalType": "address",
          "name": "_extraTokenSwapPair",
          "type": "address"
        }
      ],
      "name": "setExtraRewardSwapPair",
      "outputs": [],
      "stateMutability": "nonpayable",
      "type": "function"
    },
    {
      "inputs": [
        {
          "internalType": "address",
          "name": "_voterProxy",
          "type": "address"
        }
      ],
      "name": "setPlatypusVoterProxy",
      "outputs": [],
      "stateMutability": "nonpayable",
      "type": "function"
    },
    {
      "inputs": [],
      "name": "swapPairExtraReward",
      "outputs": [
        {
          "internalType": "address",
          "name": "",
          "type": "address"
        }
      ],
      "stateMutability": "view",
      "type": "function"
    },
    {
      "inputs": [],
      "name": "symbol",
      "outputs": [
        {
          "internalType": "string",
          "name": "",
          "type": "string"
        }
      ],
      "stateMutability": "view",
      "type": "function"
    },
    {
      "inputs": [],
      "name": "totalDeposits",
      "outputs": [
        {
          "internalType": "uint256",
          "name": "",
          "type": "uint256"
        }
      ],
      "stateMutability": "view",
      "type": "function"
    },
    {
      "inputs": [],
      "name": "totalSupply",
      "outputs": [
        {
          "internalType": "uint256",
          "name": "",
          "type": "uint256"
        }
      ],
      "stateMutability": "view",
      "type": "function"
    },
    {
      "inputs": [
        {
          "internalType": "address",
          "name": "dst",
          "type": "address"
        },
        {
          "internalType": "uint256",
          "name": "amount",
          "type": "uint256"
        }
      ],
      "name": "transfer",
      "outputs": [
        {
          "internalType": "bool",
          "name": "",
          "type": "bool"
        }
      ],
      "stateMutability": "nonpayable",
      "type": "function"
    },
    {
      "inputs": [
        {
          "internalType": "address",
          "name": "src",
          "type": "address"
        },
        {
          "internalType": "address",
          "name": "dst",
          "type": "address"
        },
        {
          "internalType": "uint256",
          "name": "amount",
          "type": "uint256"
        }
      ],
      "name": "transferFrom",
      "outputs": [
        {
          "internalType": "bool",
          "name": "",
          "type": "bool"
        }
      ],
      "stateMutability": "nonpayable",
      "type": "function"
    },
    {
      "inputs": [
        {
          "internalType": "address",
          "name": "newOwner",
          "type": "address"
        }
      ],
      "name": "transferOwnership",
      "outputs": [],
      "stateMutability": "nonpayable",
      "type": "function"
    },
    {
      "inputs": [
        {
          "internalType": "uint256",
          "name": "newValue",
          "type": "uint256"
        }
      ],
      "name": "updateAdminFee",
      "outputs": [],
      "stateMutability": "nonpayable",
      "type": "function"
    },
    {
      "inputs": [
        {
          "internalType": "bool",
          "name": "newValue",
          "type": "bool"
        }
      ],
      "name": "updateDepositsEnabled",
      "outputs": [],
      "stateMutability": "nonpayable",
      "type": "function"
    },
    {
      "inputs": [
        {
          "internalType": "address",
          "name": "newValue",
          "type": "address"
        }
      ],
      "name": "updateDevAddr",
      "outputs": [],
      "stateMutability": "nonpayable",
      "type": "function"
    },
    {
      "inputs": [
        {
          "internalType": "uint256",
          "name": "newValue",
          "type": "uint256"
        }
      ],
      "name": "updateDevFee",
      "outputs": [],
      "stateMutability": "nonpayable",
      "type": "function"
    },
    {
      "inputs": [
        {
          "internalType": "uint256",
          "name": "slippageBips",
          "type": "uint256"
        }
      ],
      "name": "updateMaxSwapSlippage",
      "outputs": [],
      "stateMutability": "nonpayable",
      "type": "function"
    },
    {
      "inputs": [
        {
          "internalType": "uint256",
          "name": "newValue",
          "type": "uint256"
        }
      ],
      "name": "updateMaxTokensToDepositWithoutReinvest",
      "outputs": [],
      "stateMutability": "nonpayable",
      "type": "function"
    },
    {
      "inputs": [
        {
          "internalType": "uint256",
          "name": "newValue",
          "type": "uint256"
        }
      ],
      "name": "updateMinTokensToReinvest",
      "outputs": [],
      "stateMutability": "nonpayable",
      "type": "function"
    },
    {
      "inputs": [
        {
          "internalType": "uint256",
          "name": "newValue",
          "type": "uint256"
        }
      ],
      "name": "updateReinvestReward",
      "outputs": [],
      "stateMutability": "nonpayable",
      "type": "function"
    },
    {
      "inputs": [
        {
          "internalType": "uint256",
          "name": "amount",
          "type": "uint256"
        }
      ],
      "name": "withdraw",
      "outputs": [],
      "stateMutability": "nonpayable",
      "type": "function"
    }
  ],
  "transactionHash": "0x8ffaddc90dba47fe5abe7261f2e6744738b46177b637ff4128e29c6f0d13a049",
  "args": [
    "Yield Yak: Platypus YUSD",
    "0x111111111111ed1D73f860F57b2798b683f2d325",
    "0x22d4002028f537599be9f666d1c4fa138522f9c8",
    {
      "swapPairToken": "0xe73e1a31910a1345037fc6a924ee59e0fcf2d322",
      "swapPairPoolReward": "0xcdfd91eea657cc2701117fe9711c9a4f61feed23",
      "swapPairExtraReward": "0xbdc7ef37283bc67d50886c4afb64877e3e83f869"
    },
    "100",
    "0xc828d995c686aaba78a4ac89dfc8ec0ff4c5be83",
    "0x68c5f4374228BEEdFa078e77b5ed93C28a2f713E",
    "0x3969003d42976b021170ed82b1da5cd6675969d5",
    "16",
    "0xDcEDF06Fd33E1D7b6eb4b309f779a0e9D3172e44",
    {
      "minTokensToReinvest": "10000000000000000",
      "adminFeeBips": 0,
      "devFeeBips": 700,
      "reinvestRewardBips": 300
    }
  ],
  "solcInputHash": "90a4dd2830a7e2f7822c0f5378975b29",
  "bytecode": "0x610120604052600960e0819052685969656c642059616b60b81b6101009081526200002e916000919062000c35565b506040805180820190915260038082526216549560ea1b60209092019182526200005b9160019162000c35565b503480156200006957600080fd5b5060405162005a4d38038062005a4d8339810160408190526200008c9162000e01565b600680546001600160a01b03191633908117909155604051829190819060009060008051602062005a2d833981519152908290a3508051620000ce906200028f565b6020810151620000de906200031f565b6040810151620000ee90620003d6565b508a51620001049060009060208e019062000c35565b50600980546001600160a01b038c81166001600160a01b03199283168117909355600a8054831673b31f66aa3c1e785363f0875a1b74e27b85fd66c717905560c0869052600b80548316732d580f9cf2fb2d09bc411532988f2afda4e7beff17905587811660805260128054918a169190921681179091556040516371f9621160e01b81526004810192909252906371f9621190602401602060405180830381865afa158015620001b9573d6000803e3d6000fd5b505050506040513d601f19601f82011682018060405250810190620001df919062000f73565b6001600160a01b0390811660a052601380546001600160a01b0319169186169190911790556014879055875160208901516200021e91908b906200048d565b60408801516200022e90620005ae565b6200023a600162000854565b6200024582620008fe565b60408051600080825260208201527fc7606d21ac05cd309191543e409f0845c016120563783d70e4f41419dc0ef234910160405180910390a1505050505050505050505062000ff4565b6006546001600160a01b03163314620002de5760405162461bcd60e51b8152602060048201819052602482015260008051602062005a0d83398151915260448201526064015b60405180910390fd5b600c5460408051918252602082018390527f481f79ac3a523b6d6db3c5a720e190e986d1cc1b41adcdf50f9caef849901100910160405180910390a1600c55565b6006546001600160a01b031633146200036a5760405162461bcd60e51b8152602060048201819052602482015260008051602062005a0d8339815191526044820152606401620002d5565b6127106200038960105483620009fb60201b6200229b1790919060201c565b11156200039557600080fd5b60115460408051918252602082018390527f2a42303d002f0ba6cfe8259c91d4684443fb0b3de286ba74991175d651726131910160405180910390a1601155565b6006546001600160a01b03163314620004215760405162461bcd60e51b8152602060048201819052602482015260008051602062005a0d8339815191526044820152606401620002d5565b6127106200044060115483620009fb60201b6200229b1790919060201c565b11156200044c57600080fd5b60105460408051918252602082018390527fe7f97d51d307dc44045597c9978bec0f842e6bb40d19b9444084cfa30d9ed4f2910160405180910390a1601055565b600954600a54620004b99185916001600160a01b03918216911662000a10602090811b620022a717901c565b620005225760405162461bcd60e51b815260206004820152603260248201527f7377617020746f6b656e20646f6573206e6f74206d61746368206465706f73696044820152713a1030b732103932bbb0b932103a37b5b2b760711b6064820152608401620002d5565b601580546001600160a01b0319166001600160a01b0385811691909117909155600a548116908316146200057f576200057d81600a60009054906101000a90046001600160a01b03168462000a1060201b620022a71760201c565b505b601680546001600160a01b039384166001600160a01b0319918216179091556017805492909316911617905550565b6001600160a01b038116156200083557600a5460408051630dfe168160e01b815290516001600160a01b0392831692841691630dfe16819160048083019260209291908290030181865afa1580156200060b573d6000803e3d6000fd5b505050506040513d601f19601f8201168201806040525081019062000631919062000f73565b6001600160a01b031603620006cb57806001600160a01b031663d21220a76040518163ffffffff1660e01b8152600401602060405180830381865afa1580156200067f573d6000803e3d6000fd5b505050506040513d601f19601f82011682018060405250810190620006a5919062000f73565b601980546001600160a01b0319166001600160a01b039290921691909117905562000815565b600a546040805163d21220a760e01b815290516001600160a01b039283169284169163d21220a79160048083019260209291908290030181865afa15801562000718573d6000803e3d6000fd5b505050506040513d601f19601f820116820180604052508101906200073e919062000f73565b6001600160a01b0316036200078c57806001600160a01b0316630dfe16816040518163ffffffff1660e01b8152600401602060405180830381865afa1580156200067f573d6000803e3d6000fd5b60405162461bcd60e51b815260206004820152605160248201527f506c61747970757353747261746567793a3a5f7365744578747261526577617260448201527f6453776170506169722053776170207061697220646f6573206e6f7420636f6e6064820152703a30b4b7103932bbb0b932103a37b5b2b760791b608482015260a401620002d5565b601880546001600160a01b0383166001600160a01b031990911617905550565b601880546001600160a01b031990811690915560198054909116905550565b6006546001600160a01b031633146200089f5760405162461bcd60e51b8152602060048201819052602482015260008051602062005a0d8339815191526044820152606401620002d5565b600e5481151560ff909116151503620008b757600080fd5b600e805460ff19168215159081179091556040519081527f7b014ed3854e7f5cb0218d58b3c6ae7d53a68bb0af2f67bfb029ea42c38a7e859060200160405180910390a150565b6006546001600160a01b03163314620009495760405162461bcd60e51b8152602060048201819052602482015260008051602062005a0d8339815191526044820152606401620002d5565b6001600160a01b038116620009b05760405162461bcd60e51b815260206004820152602660248201527f4f776e61626c653a206e6577206f776e657220697320746865207a65726f206160448201526564647265737360d01b6064820152608401620002d5565b6006546040516001600160a01b0380841692169060008051602062005a2d83398151915290600090a3600680546001600160a01b0319166001600160a01b0392909216919091179055565b600062000a09828462000f91565b9392505050565b6000836001600160a01b0316630dfe16816040518163ffffffff1660e01b8152600401602060405180830381865afa15801562000a51573d6000803e3d6000fd5b505050506040513d601f19601f8201168201806040525081019062000a77919062000f73565b6001600160a01b0316836001600160a01b0316148062000b0c5750836001600160a01b031663d21220a76040518163ffffffff1660e01b8152600401602060405180830381865afa15801562000ad1573d6000803e3d6000fd5b505050506040513d601f19601f8201168201806040525081019062000af7919062000f73565b6001600160a01b0316836001600160a01b0316145b801562000c0e5750836001600160a01b0316630dfe16816040518163ffffffff1660e01b8152600401602060405180830381865afa15801562000b53573d6000803e3d6000fd5b505050506040513d601f19601f8201168201806040525081019062000b79919062000f73565b6001600160a01b0316826001600160a01b0316148062000c0e5750836001600160a01b031663d21220a76040518163ffffffff1660e01b8152600401602060405180830381865afa15801562000bd3573d6000803e3d6000fd5b505050506040513d601f19601f8201168201806040525081019062000bf9919062000f73565b6001600160a01b0316826001600160a01b0316145b801562000c2d5750816001600160a01b0316836001600160a01b031614155b949350505050565b82805462000c439062000fb8565b90600052602060002090601f01602090048101928262000c67576000855562000cb2565b82601f1062000c8257805160ff191683800117855562000cb2565b8280016001018555821562000cb2579182015b8281111562000cb257825182559160200191906001019062000c95565b5062000cc092915062000cc4565b5090565b5b8082111562000cc0576000815560010162000cc5565b634e487b7160e01b600052604160045260246000fd5b604051606081016001600160401b038111828210171562000d165762000d1662000cdb565b60405290565b604051601f8201601f191681016001600160401b038111828210171562000d475762000d4762000cdb565b604052919050565b80516001600160a01b038116811462000d6757600080fd5b919050565b60006060828403121562000d7f57600080fd5b62000d8962000cf1565b905062000d968262000d4f565b815262000da66020830162000d4f565b602082015262000db96040830162000d4f565b604082015292915050565b60006060828403121562000dd757600080fd5b62000de162000cf1565b905081518152602082015160208201526040820151604082015292915050565b60008060008060008060008060008060006101e08c8e03121562000e2457600080fd5b8b516001600160401b038082111562000e3c57600080fd5b818e0191508e601f83011262000e5157600080fd5b81518181111562000e665762000e6662000cdb565b62000e7b601f8201601f191660200162000d1c565b91508082528f602082850101111562000e9357600080fd5b60005b8181101562000eb45760208185018101518483018201520162000e96565b8181111562000ec7576000602083850101525b5050809c50505062000edc60208d0162000d4f565b995062000eec60408d0162000d4f565b985062000efd8d60608e0162000d6c565b975060c08c0151965062000f1460e08d0162000d4f565b955062000f256101008d0162000d4f565b945062000f366101208d0162000d4f565b93506101408c0151925062000f4f6101608d0162000d4f565b915062000f618d6101808e0162000dc4565b90509295989b509295989b9093969950565b60006020828403121562000f8657600080fd5b62000a098262000d4f565b6000821982111562000fb357634e487b7160e01b600052601160045260246000fd5b500190565b600181811c9082168062000fcd57607f821691505b60208210810362000fee57634e487b7160e01b600052602260045260246000fd5b50919050565b60805160a05160c051614956620010b7600039600081816105b901528181610be901528181610c7e015281816112d101528181611aea0152818161297201528181612dd80152818161318d015261384801526000818161051101528181610ce401528181611b5001528181613638015281816136ba0152613da20152600081816108d601528181610bc101528181610cac015281816112a901528181611b180152818161294a01528181613165015281816138a10152613d6a01526149566000f3fe608060405234801561001057600080fd5b50600436106103d05760003560e01c80638c04166f116101ff578063bd079f551161011a578063e21ac825116100ad578063f2fde38b1161007c578063f2fde38b146108ab578063f7c618c1146108be578063fb1db278146108d1578063fdb5a03e146108f857600080fd5b8063e21ac8251461086a578063eab89a5a1461087d578063ec55688914610890578063ed24911d146108a357600080fd5b8063d505accf116100e9578063d505accf146107f8578063da09c72c1461080b578063dd62ed3e1461081e578063dd8ce4d61461085757600080fd5b8063bd079f55146107c1578063c4b24a46146107ca578063c89039c5146107d2578063cff1b6ef146107e557600080fd5b8063a1a4ddeb11610192578063ac0d31ff11610161578063ac0d31ff14610786578063b52a321f14610799578063b6b55f25146107a6578063b9e57b80146107b957600080fd5b8063a1a4ddeb1461073a578063a8ae2b7c1461074d578063a9059cbb14610760578063abff19631461077357600080fd5b806395d89b41116101ce57806395d89b41146106e557806399729ec1146106ed5780639e4e7318146107005780639f0237b11461072757600080fd5b80638c04166f146106a55780638da5cb5b146106ae578063909ac8f4146106bf5780639291d563146106d257600080fd5b80634bebd1e7116102ef5780637ae26773116102825780638432e894116102515780638432e894146106635780638980f11f146106765780638aff733d146106895780638b73e6061461069257600080fd5b80637ae26773146106155780637d882097146106285780637ecebe0014610630578063818372301461065057600080fd5b80635eaec0e4116102be5780635eaec0e4146105b457806370a08231146105db578063715018a614610604578063789139bc1461060c57600080fd5b80634bebd1e7146105725780634e77ace5146105855780634ebb7916146105985780635ea682ea146105ab57600080fd5b80632e1a7d4d1161036757806338d52e0f1161033657806338d52e0f1461050c5780633bdc6e7214610533578063483c2ef01461053c5780634a970be71461055f57600080fd5b80632e1a7d4d146104a35780632f4f21e2146104b857806330adf81f146104cb578063313ce567146104f257600080fd5b806316f0115b116103a357806316f0115b1461043557806318160ddd1461046057806320606b701461046957806323b872dd1461049057600080fd5b806306fdde03146103d557806307677111146103f3578063095ea7b31461040a5780630f23475d1461042d575b600080fd5b6103dd610900565b6040516103ea9190614335565b60405180910390f35b6103fc600f5481565b6040519081526020016103ea565b61041d61041836600461435d565b61098e565b60405190151581526020016103ea565b6103fc6109a5565b601254610448906001600160a01b031681565b6040516001600160a01b0390911681526020016103ea565b6103fc60025481565b6103fc7f8b73c3c69bb8fe3d512ecc4cf759cc79239f7b179b0ffacaa9a75d522b39400f81565b61041d61049e366004614389565b610a61565b6104b66104b13660046143ca565b610b45565b005b6104b66104c636600461435d565b610dc9565b6103fc7f6e71edae12b1b97f4d1f60370fef10105fa2faae0126114a169c64845d6126c981565b6104fa601281565b60405160ff90911681526020016103ea565b6104487f000000000000000000000000000000000000000000000000000000000000000081565b6103fc60075481565b61041d61054a3660046143e3565b60086020526000908152604090205460ff1681565b6104b661056d366004614416565b610dd7565b6104b66105803660046143e3565b610e89565b6104b661059336600461446b565b610fa6565b6104b66105a63660046143ca565b61104d565b6103fc60115481565b6103fc7f000000000000000000000000000000000000000000000000000000000000000081565b6103fc6105e93660046143e3565b6001600160a01b031660009081526004602052604090205490565b6104b6611107565b6103fc600d5481565b6104b6610623366004614488565b611199565b6103fc611276565b6103fc61063e3660046143e3565b60056020526000908152604090205481565b6104b661065e3660046143ca565b611347565b6104b66106713660046143e3565b6113d0565b6104b661068436600461435d565b611436565b6103fc60105481565b6104b66106a03660046143e3565b61154b565b6103fc60145481565b6006546001600160a01b0316610448565b601854610448906001600160a01b031681565b6104b66106e03660046143e3565b611706565b6103dd6117c9565b6104b66106fb3660046143ca565b6117d6565b6103fc7fc89efdaa54c0f20c7adf612882df0950f5a951637e0307cdcb4c672f298b8bc681565b6104b66107353660046143e3565b611882565b601954610448906001600160a01b031681565b6104b661075b3660046143ca565b6118ec565b61041d61076e36600461435d565b611998565b6104b66107813660046143ca565b6119a5565b6104b66107943660046144c1565b611a04565b600e5461041d9060ff1681565b6104b66107b43660046143ca565b611d18565b6103fc611d22565b6103fc600c5481565b6103fc611d67565b600954610448906001600160a01b031681565b6104b66107f33660046143ca565b611d7b565b6104b66108063660046144e6565b611e0f565b600b54610448906001600160a01b031681565b6103fc61082c366004614488565b6001600160a01b03918216600090815260036020908152604080832093909416825291909152205490565b6103fc6108653660046143ca565b611f22565b6104b66108783660046143ca565b611f5c565b6103fc61088b3660046143ca565b611fe5565b601354610448906001600160a01b031681565b6103fc612019565b6104b66108b93660046143e3565b6120b9565b600a54610448906001600160a01b031681565b6104487f000000000000000000000000000000000000000000000000000000000000000081565b6104b66121d9565b6000805461090d90614554565b80601f016020809104026020016040519081016040528092919081815260200182805461093990614554565b80156109865780601f1061095b57610100808354040283529160200191610986565b820191906000526020600020905b81548152906001019060200180831161096957829003601f168201915b505050505081565b600061099b3384846124bc565b5060015b92915050565b6000806109b0611276565b9050806000036109c257600091505090565b6012546009546040517f907448ed0000000000000000000000000000000000000000000000000000000081526001600160a01b03918216600482015260248101849052600092919091169063907448ed90604401606060405180830381865afa158015610a33573d6000803e3d6000fd5b505050506040513d601f19601f82011682018060405250810190610a57919061458e565b5090949350505050565b6001600160a01b038316600081815260036020908152604080832033808552925282205491929091908214801590610a9b57506000198114155b15610b2c576000610ac7856040518060600160405280602f815260200161489d602f91398491906125ca565b6001600160a01b038881166000818152600360209081526040808320948916808452948252918290208590559051848152939450919290917f8c5be1e5ebec7d5bd14f71427d1e84f3dd0314c0f7b2291e5b200ac8c7c3b925910160405180910390a3505b610b378686866125f6565b6001925050505b9392505050565b6000610b5082611fe5565b905060008111610ba75760405162461bcd60e51b815260206004820152601a60248201527f506c61747970757353747261746567793a3a776974686472617700000000000060448201526064015b60405180910390fd5b6013546040516305d38c7160e21b81526001600160a01b037f0000000000000000000000000000000000000000000000000000000000000000811660048301527f000000000000000000000000000000000000000000000000000000000000000060248301529091169063174e31c490604401600060405180830381600087803b158015610c3457600080fd5b505af1158015610c48573d6000803e3d6000fd5b50506013546012546009546014546040517fa530882e0000000000000000000000000000000000000000000000000000000081527f000000000000000000000000000000000000000000000000000000000000000060048201526001600160a01b037f000000000000000000000000000000000000000000000000000000000000000081166024830152938416604482015291831660648301527f00000000000000000000000000000000000000000000000000000000000000008316608483015260a482015260c48101869052600094509116915063a530882e9060e4016020604051808303816000875af1158015610d46573d6000803e3d6000fd5b505050506040513d601f19601f82011682018060405250810190610d6a91906145c7565b600954909150610d84906001600160a01b03163383612732565b610d8e33846127c7565b60405182815233907f884edad9ce6fa2440d8a54cc123490eb96d2768479d49ff9c7366125a9424364906020015b60405180910390a2505050565b610dd3828261289d565b5050565b6009546040517fd505accf000000000000000000000000000000000000000000000000000000008152336004820152306024820152604481018790526064810186905260ff8516608482015260a4810184905260c481018390526001600160a01b039091169063d505accf9060e401600060405180830381600087803b158015610e6057600080fd5b505af1158015610e74573d6000803e3d6000fd5b50505050610e82338661289d565b5050505050565b6006546001600160a01b03163314610ed15760405162461bcd60e51b8152602060048201819052602482015260008051602061487d8339815191526044820152606401610b9e565b6001600160a01b03811660009081526008602052604090205460ff1615610f3a5760405162461bcd60e51b815260206004820152601c60248201527f5065726d697373696f6e65643a3a616c6c6f774465706f7369746f72000000006044820152606401610b9e565b6001600160a01b0381166000908152600860205260409020805460ff19166001908117909155600754610f6c9161229b565b6007556040516001600160a01b038216907fc0a1035c16faf8d1304056d92c00edf028f87e62b8235a938f00af9e3c0312c590600090a250565b6006546001600160a01b03163314610fee5760405162461bcd60e51b8152602060048201819052602482015260008051602061487d8339815191526044820152606401610b9e565b600e5481151560ff90911615150361100557600080fd5b600e805460ff19168215159081179091556040519081527f7b014ed3854e7f5cb0218d58b3c6ae7d53a68bb0af2f67bfb029ea42c38a7e85906020015b60405180910390a150565b6006546001600160a01b031633146110955760405162461bcd60e51b8152602060048201819052602482015260008051602061487d8339815191526044820152606401610b9e565b600081116110a257600080fd5b604051339082156108fc029083906000818181858888f193505050501580156110cf573d6000803e3d6000fd5b506040805160008152602081018390527f8c1256b8896378cd5044f80c202f9772b9d77dc85c8a6eb51967210b09bfaa289101611042565b6006546001600160a01b0316331461114f5760405162461bcd60e51b8152602060048201819052602482015260008051602061487d8339815191526044820152606401610b9e565b6006546040516000916001600160a01b0316907f8be0079c531659141344cd1fd0a4f28419497f9722a3daafe3b4186f6b6457e0908390a3600680546001600160a01b0319169055565b6006546001600160a01b031633146111e15760405162461bcd60e51b8152602060048201819052602482015260008051602061487d8339815191526044820152606401610b9e565b6040517f095ea7b30000000000000000000000000000000000000000000000000000000081526001600160a01b0382811660048301526000602483015283169063095ea7b3906044016020604051808303816000875af1158015611249573d6000803e3d6000fd5b505050506040513d601f19601f8201168201806040525081019061126d91906145e0565b610dd357600080fd5b6013546040517f01e1c48d0000000000000000000000000000000000000000000000000000000081526001600160a01b037f0000000000000000000000000000000000000000000000000000000000000000811660048301527f0000000000000000000000000000000000000000000000000000000000000000602483015260009283929116906301e1c48d90604401602060405180830381865afa158015611323573d6000803e3d6000fd5b505050506040513d601f19601f8201168201806040525081019061099f91906145c7565b6006546001600160a01b0316331461138f5760405162461bcd60e51b8152602060048201819052602482015260008051602061487d8339815191526044820152606401610b9e565b600c5460408051918252602082018390527f481f79ac3a523b6d6db3c5a720e190e986d1cc1b41adcdf50f9caef849901100910160405180910390a1600c55565b600b546001600160a01b0316331461142a5760405162461bcd60e51b815260206004820152601460248201527f59616b53747261746567793a3a6f6e6c794465760000000000000000000000006044820152606401610b9e565b61143381612a5e565b50565b6006546001600160a01b0316331461147e5760405162461bcd60e51b8152602060048201819052602482015260008051602061487d8339815191526044820152606401610b9e565b6000811161148b57600080fd5b60405163a9059cbb60e01b8152336004820152602481018290526001600160a01b0383169063a9059cbb906044016020604051808303816000875af11580156114d8573d6000803e3d6000fd5b505050506040513d601f19601f820116820180604052508101906114fc91906145e0565b61150557600080fd5b604080516001600160a01b0384168152602081018390527f8c1256b8896378cd5044f80c202f9772b9d77dc85c8a6eb51967210b09bfaa28910160405180910390a15050565b6006546001600160a01b031633146115935760405162461bcd60e51b8152602060048201819052602482015260008051602061487d8339815191526044820152606401610b9e565b60006007541161160b5760405162461bcd60e51b815260206004820152603460248201527f5065726d697373696f6e65643a3a72656d6f76654465706f7369746f722c206e60448201527f6f20616c6c6f776564206465706f7369746f72730000000000000000000000006064820152608401610b9e565b6001600160a01b03811660009081526008602052604090205460ff16151560011461169e5760405162461bcd60e51b815260206004820152602a60248201527f5065726d697373696f6e65643a3a72656d6f76654465706f7369746f722c206e60448201527f6f7420616c6c6f776564000000000000000000000000000000000000000000006064820152608401610b9e565b6001600160a01b0381166000908152600860205260409020805460ff191690556007546116cc906001612d33565b6007556040516001600160a01b038216907f0e86f6608b536e5339a25b65ff531f5ea91e1313d056ecd4752b35cbd16137d490600090a250565b600b546001600160a01b031633146117605760405162461bcd60e51b815260206004820152601460248201527f59616b53747261746567793a3a6f6e6c794465760000000000000000000000006044820152606401610b9e565b600b54604080516001600160a01b03928316815291831660208301527fa8e91499ed37682f43cffb045fcc7d379a91e8c9a14e6321877ee34dee564c00910160405180910390a1600b80546001600160a01b0319166001600160a01b0392909216919091179055565b6001805461090d90614554565b6006546001600160a01b0316331461181e5760405162461bcd60e51b8152602060048201819052602482015260008051602061487d8339815191526044820152606401610b9e565b6127106118366010548361229b90919063ffffffff16565b111561184157600080fd5b60115460408051918252602082018390527f2a42303d002f0ba6cfe8259c91d4684443fb0b3de286ba74991175d651726131910160405180910390a1601155565b6006546001600160a01b031633146118ca5760405162461bcd60e51b8152602060048201819052602482015260008051602061487d8339815191526044820152606401610b9e565b601380546001600160a01b0319166001600160a01b0392909216919091179055565b6006546001600160a01b031633146119345760405162461bcd60e51b8152602060048201819052602482015260008051602061487d8339815191526044820152606401610b9e565b61271061194c6011548361229b90919063ffffffff16565b111561195757600080fd5b60105460408051918252602082018390527fe7f97d51d307dc44045597c9978bec0f842e6bb40d19b9444084cfa30d9ed4f2910160405180910390a1601055565b600061099b3384846125f6565b600b546001600160a01b031633146119ff5760405162461bcd60e51b815260206004820152601460248201527f59616b53747261746567793a3a6f6e6c794465760000000000000000000000006044820152606401610b9e565b601455565b6006546001600160a01b03163314611a4c5760405162461bcd60e51b8152602060048201819052602482015260008051602061487d8339815191526044820152606401610b9e565b6009546040516370a0823160e01b81523060048201526000916001600160a01b0316906370a0823190602401602060405180830381865afa158015611a95573d6000803e3d6000fd5b505050506040513d601f19601f82011682018060405250810190611ab991906145c7565b6013546012546009546040517f02eb6f7e0000000000000000000000000000000000000000000000000000000081527f000000000000000000000000000000000000000000000000000000000000000060048201526001600160a01b037f000000000000000000000000000000000000000000000000000000000000000081166024830152928316604482015290821660648201527f00000000000000000000000000000000000000000000000000000000000000008216608482015292935016906302eb6f7e9060a401600060405180830381600087803b158015611b9e57600080fd5b505af1158015611bb2573d6000803e3d6000fd5b50506009546040516370a0823160e01b8152306004820152600093506001600160a01b0390911691506370a0823190602401602060405180830381865afa158015611c01573d6000803e3d6000fd5b505050506040513d601f19601f82011682018060405250810190611c2591906145c7565b905083611c328284612d33565b1015611ca65760405162461bcd60e51b815260206004820152602560248201527f506c61747970757353747261746567793a3a7265736375654465706c6f79656460448201527f46756e64730000000000000000000000000000000000000000000000000000006064820152608401610b9e565b7fc7606d21ac05cd309191543e409f0845c016120563783d70e4f41419dc0ef234611ccf611276565b6002546040805192835260208301919091520160405180910390a1600e5460ff1615156001148015611d0357506001831515145b15611d1257611d126000610fa6565b50505050565b611433338261289d565b600080611d2d611d67565b9050600c548110611d5f57611d59612710611d5360105484612d3f90919063ffffffff16565b90612d4b565b91505090565b600091505090565b600080611d72612d57565b95945050505050565b6006546001600160a01b03163314611dc35760405162461bcd60e51b8152602060048201819052602482015260008051602061487d8339815191526044820152606401610b9e565b8015611dce57600080fd5b600f5460408051918252602082018390527f3cc372f330f95ac9540626dc8a25f5bf21ba607215a5d58304cb804d446f104a910160405180910390a1600f55565b42841015611e5f5760405162461bcd60e51b815260206004820152600f60248201527f7065726d69743a3a6578706972656400000000000000000000000000000000006044820152606401610b9e565b6001600160a01b038716600090815260056020526040812080547f6e71edae12b1b97f4d1f60370fef10105fa2faae0126114a169c64845d6126c9918a918a918a919086611eac83614613565b909155506040805160208101969096526001600160a01b0394851690860152929091166060840152608083015260a082015260c0810186905260e001604051602081830303815290604052805190602001209050611f0d8882868686612feb565b611f188888886124bc565b5050505050505050565b6000611f38611f2f611276565b60025490612d3f565b600003611f43575090565b61099f611f4e611276565b600254611d53908590612d3f565b6006546001600160a01b03163314611fa45760405162461bcd60e51b8152602060048201819052602482015260008051602061487d8339815191526044820152606401610b9e565b600d5460408051918252602082018390527fa5dae50539d56dfe1fb5273d883b0c39bc76750a25d036fc5fbd09ad8fd5f57f910160405180910390a1600d55565b6000611ff2611f2f611276565b60000361200157506000919050565b61099f600254611d53612012611276565b8590612d3f565b60007f8b73c3c69bb8fe3d512ecc4cf759cc79239f7b179b0ffacaa9a75d522b39400f60001b600060405161204e919061462c565b6040519081900390207fc89efdaa54c0f20c7adf612882df0950f5a951637e0307cdcb4c672f298b8bc646604080516020810195909552840192909252606083015260808201523060a082015260c00160405160208183030381529060405280519060200120905090565b6006546001600160a01b031633146121015760405162461bcd60e51b8152602060048201819052602482015260008051602061487d8339815191526044820152606401610b9e565b6001600160a01b03811661217d5760405162461bcd60e51b815260206004820152602660248201527f4f776e61626c653a206e6577206f776e657220697320746865207a65726f206160448201527f64647265737300000000000000000000000000000000000000000000000000006064820152608401610b9e565b6006546040516001600160a01b038084169216907f8be0079c531659141344cd1fd0a4f28419497f9722a3daafe3b4186f6b6457e090600090a3600680546001600160a01b0319166001600160a01b0392909216919091179055565b3233146122285760405162461bcd60e51b815260206004820152601460248201527f59616b53747261746567793a3a6f6e6c79454f410000000000000000000000006044820152606401610b9e565b600080600080612236612d57565b9350935093509350600c548110156122905760405162461bcd60e51b815260206004820152601a60248201527f506c61747970757353747261746567793a3a7265696e766573740000000000006044820152606401610b9e565b611d1282858561314b565b6000610b3e82846146c7565b6000836001600160a01b0316630dfe16816040518163ffffffff1660e01b8152600401602060405180830381865afa1580156122e7573d6000803e3d6000fd5b505050506040513d601f19601f8201168201806040525081019061230b91906146df565b6001600160a01b0316836001600160a01b0316148061239c5750836001600160a01b031663d21220a76040518163ffffffff1660e01b8152600401602060405180830381865afa158015612363573d6000803e3d6000fd5b505050506040513d601f19601f8201168201806040525081019061238791906146df565b6001600160a01b0316836001600160a01b0316145b80156124965750836001600160a01b0316630dfe16816040518163ffffffff1660e01b8152600401602060405180830381865afa1580156123e1573d6000803e3d6000fd5b505050506040513d601f19601f8201168201806040525081019061240591906146df565b6001600160a01b0316826001600160a01b031614806124965750836001600160a01b031663d21220a76040518163ffffffff1660e01b8152600401602060405180830381865afa15801561245d573d6000803e3d6000fd5b505050506040513d601f19601f8201168201806040525081019061248191906146df565b6001600160a01b0316826001600160a01b0316145b80156124b45750816001600160a01b0316836001600160a01b031614155b949350505050565b6001600160a01b0383166125125760405162461bcd60e51b815260206004820152601c60248201527f5f617070726f76653a3a6f776e6572207a65726f2061646472657373000000006044820152606401610b9e565b6001600160a01b0382166125685760405162461bcd60e51b815260206004820152601e60248201527f5f617070726f76653a3a7370656e646572207a65726f206164647265737300006044820152606401610b9e565b6001600160a01b0383811660008181526003602090815260408083209487168084529482529182902085905590518481527f8c5be1e5ebec7d5bd14f71427d1e84f3dd0314c0f7b2291e5b200ac8c7c3b92591015b60405180910390a3505050565b600081848411156125ee5760405162461bcd60e51b8152600401610b9e9190614335565b505050900390565b6001600160a01b0382166126725760405162461bcd60e51b815260206004820152603460248201527f5f7472616e73666572546f6b656e733a2063616e6e6f74207472616e7366657260448201527f20746f20746865207a65726f20616464726573730000000000000000000000006064820152608401610b9e565b6126af816040518060600160405280602e81526020016148f3602e91396001600160a01b03861660009081526004602052604090205491906125ca565b6001600160a01b0380851660009081526004602052604080822093909355908416815220546126de908261229b565b6001600160a01b0380841660008181526004602052604090819020939093559151908516907fddf252ad1be2c89b69c2b068fc378daa952ba7f163c4a11628f55a4df523b3ef906125bd9085815260200190565b6040516001600160a01b0383166024820152604481018290526127c290849063a9059cbb60e01b906064015b60408051601f198184030181529190526020810180517bffffffffffffffffffffffffffffffffffffffffffffffffffffffff167fffffffff000000000000000000000000000000000000000000000000000000009093169290921790915261331f565b505050565b612804816040518060600160405280602781526020016148cc602791396001600160a01b03851660009081526004602052604090205491906125ca565b60046000846001600160a01b03166001600160a01b0316815260200190815260200160002081905550612854816040518060600160405280602781526020016148566027913960025491906125ca565b6002556040518181526000906001600160a01b038416907fddf252ad1be2c89b69c2b068fc378daa952ba7f163c4a11628f55a4df523b3ef906020015b60405180910390a35050565b600e5460ff1615156001146128f45760405162461bcd60e51b815260206004820152601a60248201527f506c61747970757353747261746567793a3a5f6465706f7369740000000000006044820152606401610b9e565b600d54156129305760008060008061290a612d57565b9350935093509350600d548111156129275761292782858561314b565b505050506129d6565b6013546040516305d38c7160e21b81526001600160a01b037f0000000000000000000000000000000000000000000000000000000000000000811660048301527f000000000000000000000000000000000000000000000000000000000000000060248301529091169063174e31c490604401600060405180830381600087803b1580156129bd57600080fd5b505af11580156129d1573d6000803e3d6000fd5b505050505b6009546129ee906001600160a01b0316333084613404565b60006129f982613455565b9050612a1183612a0c6108658585612d33565b613740565b612a1b82826137c4565b6001600160a01b0383167fe1fffcc4923d04b559f4d29a8bfc6cda04eb5b0d3c460751c2402c5c5cc9109c612a508484612d33565b604051908152602001610dbc565b6001600160a01b03811615612d1457600a54604080517f0dfe168100000000000000000000000000000000000000000000000000000000815290516001600160a01b0392831692841691630dfe16819160048083019260209291908290030181865afa158015612ad2573d6000803e3d6000fd5b505050506040513d601f19601f82011682018060405250810190612af691906146df565b6001600160a01b031603612b8b57806001600160a01b031663d21220a76040518163ffffffff1660e01b8152600401602060405180830381865afa158015612b42573d6000803e3d6000fd5b505050506040513d601f19601f82011682018060405250810190612b6691906146df565b601980546001600160a01b0319166001600160a01b0392909216919091179055612cf4565b600a54604080517fd21220a700000000000000000000000000000000000000000000000000000000815290516001600160a01b039283169284169163d21220a79160048083019260209291908290030181865afa158015612bf0573d6000803e3d6000fd5b505050506040513d601f19601f82011682018060405250810190612c1491906146df565b6001600160a01b031603612c6057806001600160a01b0316630dfe16816040518163ffffffff1660e01b8152600401602060405180830381865afa158015612b42573d6000803e3d6000fd5b60405162461bcd60e51b815260206004820152605160248201527f506c61747970757353747261746567793a3a5f7365744578747261526577617260448201527f6453776170506169722053776170207061697220646f6573206e6f7420636f6e60648201527f7461696e2072657761726420746f6b656e000000000000000000000000000000608482015260a401610b9e565b601880546001600160a01b0383166001600160a01b031990911617905550565b601880546001600160a01b031990811690915560198054909116905550565b6000610b3e82846146fc565b6000610b3e8284614713565b6000610b3e8284614748565b6016546040516370a0823160e01b815230600482015260009182918291829182916001600160a01b0316906370a0823190602401602060405180830381865afa158015612da8573d6000803e3d6000fd5b505050506040513d601f19601f82011682018060405250810190612dcc91906145c7565b90506000806000612dfc7f000000000000000000000000000000000000000000000000000000000000000061386e565b919450925090506000612e0f858561229b565b600a546016549192506000916001600160a01b03918216911603612e335784612e58565b601654600a54601754612e589285926001600160a01b039182169290821691166139d8565b905060006001600160a01b03841615612f4e577fffffffffffffffffffffffff4ce09955c3e187ac9c0f78a5e48b1d847a0299396001600160a01b03851601612ea2575083612f4e565b6018546001600160a01b031615612f4e576019546040516370a0823160e01b8152306004820152612f28916001600160a01b0316906370a0823190602401602060405180830381865afa158015612efd573d6000803e3d6000fd5b505050506040513d601f19601f82011682018060405250810190612f2191906145c7565b869061229b565b600a54601854919650612f4b91879187916001600160a01b0391821691166139d8565b90505b600a546040516370a0823160e01b8152306004820152600091612fc79184916001600160a01b0316906370a0823190602401602060405180830381865afa158015612f9d573d6000803e3d6000fd5b505050506040513d601f19601f82011682018060405250810190612fc191906145c7565b9061229b565b90506000612fd5828561229b565b949d969c50909a50929850939650505050505050565b6000612ff5612019565b6040517f1901000000000000000000000000000000000000000000000000000000000000602082015260228101919091526042810186905260620160408051601f198184030181528282528051602091820120600080855291840180845281905260ff88169284019290925260608301869052608083018590529092509060019060a0016020604051602081039080840390855afa15801561309b573d6000803e3d6000fd5b5050604051601f1901519150506001600160a01b038116158015906130d15750866001600160a01b0316816001600160a01b0316145b6131425760405162461bcd60e51b8152602060048201526024808201527f417263683a3a76616c69646174655369673a20696e76616c6964207369676e6160448201527f74757265000000000000000000000000000000000000000000000000000000006064820152608401610b9e565b50505050505050565b6013546040516305d38c7160e21b81526001600160a01b037f0000000000000000000000000000000000000000000000000000000000000000811660048301527f000000000000000000000000000000000000000000000000000000000000000060248301529091169063174e31c490604401600060405180830381600087803b1580156131d857600080fd5b505af11580156131ec573d6000803e3d6000fd5b5050505060006132056131fe84613aa4565b859061229b565b905061321b6132148584613ae8565b829061229b565b506000613239612710611d5360115485612d3f90919063ffffffff16565b9050801561325e57600b54600a5461325e916001600160a01b03918216911683612732565b600061327b612710611d5360105486612d3f90919063ffffffff16565b9050801561329a57600a5461329a906001600160a01b03163383612732565b60006132b86132b3836132ad8787612d33565b90612d33565b613c27565b905060006132c582613455565b90506132d182826137c4565b7fc7606d21ac05cd309191543e409f0845c016120563783d70e4f41419dc0ef2346132fa611276565b6002546040805192835260208301919091520160405180910390a15050505050505050565b6000613374826040518060400160405280602081526020017f5361666545524332303a206c6f772d6c6576656c2063616c6c206661696c6564815250856001600160a01b0316613c4f9092919063ffffffff16565b8051909150156127c2578080602001905181019061339291906145e0565b6127c25760405162461bcd60e51b815260206004820152602a60248201527f5361666545524332303a204552433230206f7065726174696f6e20646964206e60448201527f6f742073756363656564000000000000000000000000000000000000000000006064820152608401610b9e565b6040516001600160a01b0380851660248301528316604482015260648101829052611d129085907f23b872dd000000000000000000000000000000000000000000000000000000009060840161275e565b600061099f601260009054906101000a90046001600160a01b03166001600160a01b03166355af008a6040518163ffffffff1660e01b8152600401602060405180830381865afa1580156134ad573d6000803e3d6000fd5b505050506040513d601f19601f820116820180604052508101906134d191906145c7565b601260009054906101000a90046001600160a01b03166001600160a01b0316637727c6556040518163ffffffff1660e01b8152600401602060405180830381865afa158015613524573d6000803e3d6000fd5b505050506040513d601f19601f8201168201806040525081019061354891906145c7565b601260009054906101000a90046001600160a01b03166001600160a01b031663a76f54d26040518163ffffffff1660e01b8152600401602060405180830381865afa15801561359b573d6000803e3d6000fd5b505050506040513d601f19601f820116820180604052508101906135bf91906145c7565b601260009054906101000a90046001600160a01b03166001600160a01b0316637a1c36d16040518163ffffffff1660e01b8152600401602060405180830381865afa158015613612573d6000803e3d6000fd5b505050506040513d601f19601f8201168201806040525081019061363691906145c7565b7f00000000000000000000000000000000000000000000000000000000000000006001600160a01b031663961be3916040518163ffffffff1660e01b8152600401602060405180830381865afa158015613694573d6000803e3d6000fd5b505050506040513d601f19601f820116820180604052508101906136b891906145c7565b7f00000000000000000000000000000000000000000000000000000000000000006001600160a01b031663705727b56040518163ffffffff1660e01b8152600401602060405180830381865afa158015613716573d6000803e3d6000fd5b505050506040513d601f19601f8201168201806040525081019061373a91906145c7565b88613c5e565b60025461374d908261229b565b6002556001600160a01b038216600090815260046020526040902054613773908261229b565b6001600160a01b0383166000818152600460205260408082209390935591519091907fddf252ad1be2c89b69c2b068fc378daa952ba7f163c4a11628f55a4df523b3ef906128919085815260200190565b60006137d08383612d33565b116138435760405162461bcd60e51b815260206004820152602560248201527f506c61747970757353747261746567793a3a5f7374616b654465706f7369745460448201527f6f6b656e730000000000000000000000000000000000000000000000000000006064820152608401610b9e565b610dd37f00000000000000000000000000000000000000000000000000000000000000008383613d0d565b6013546040517f6099ecb20000000000000000000000000000000000000000000000000000000081526001600160a01b037f000000000000000000000000000000000000000000000000000000000000000081166004830152602482018490526000928392839283928392839290911690636099ecb290604401606060405180830381865afa158015613905573d6000803e3d6000fd5b505050506040513d601f19601f82011682018060405250810190613929919061475c565b9250925092506000601360009054906101000a90046001600160a01b03166001600160a01b0316638583b7fa6040518163ffffffff1660e01b8152600401602060405180830381865afa158015613984573d6000803e3d6000fd5b505050506040513d601f19601f820116820180604052508101906139a891906145c7565b905060006139bc612710611d538785612d3f565b90506139c88582612d33565b9993985091965091945050505050565b6000806139e58585613e10565b509050600080846001600160a01b0316630902f1ac6040518163ffffffff1660e01b8152600401606060405180830381865afa158015613a29573d6000803e3d6000fd5b505050506040513d601f19601f82011682018060405250810190613a4d91906147a8565b5091509150866001600160a01b0316836001600160a01b031614613a6d57905b613a9888836dffffffffffffffffffffffffffff16836dffffffffffffffffffffffffffff16613e41565b98975050505050505050565b601654600a546000916001600160a01b03908116911603613ac3575090565b601654600a5460175461099f9285926001600160a01b03918216929082169116613e7e565b60008115613c1e576018546001600160a01b031615613b2d57601954600a54601854613b269285926001600160a01b03918216929082169116613e7e565b905061099f565b478015613b9d5773b31f66aa3c1e785363f0875a1b74e27b85fd66c76001600160a01b031663d0e30db0826040518263ffffffff1660e01b81526004016000604051808303818588803b158015613b8357600080fd5b505af1158015613b97573d6000803e3d6000fd5b50505050505b6040516370a0823160e01b8152306004820152613c1690859073b31f66aa3c1e785363f0875a1b74e27b85fd66c7906370a0823190602401602060405180830381865afa158015613bf2573d6000803e3d6000fd5b505050506040513d601f19601f820116820180604052508101906132ad91906145c7565b91505061099f565b50600092915050565b600a5460095460155460009261099f9285926001600160a01b03928316929182169116613e7e565b60606124b48484600085614019565b600082600003613c7057506000613d02565b6000613c7c8585614156565b9050670de0b6b3a76400008111613c97576000915050613d02565b6000613cb6613ca6868661229b565b613cb0888761229b565b90614156565b90506000613cc78b8b8b8b8761417c565b90506000613cd88c8c8c8c8761417c565b9050613cfb613ce788846141d9565b6132ad83613cf58b8b61229b565b906141d9565b9450505050505b979650505050505050565b601354600954613d2a916001600160a01b03918216911684612732565b6013546012546009546040517f529ebc7d000000000000000000000000000000000000000000000000000000008152600481018790526001600160a01b037f000000000000000000000000000000000000000000000000000000000000000081166024830152928316604482015290821660648201527f00000000000000000000000000000000000000000000000000000000000000008216608482015260a4810185905260c4810184905291169063529ebc7d9060e401600060405180830381600087803b158015613dfc57600080fd5b505af1158015613142573d6000803e3d6000fd5b600080826001600160a01b0316846001600160a01b031610613e33578284613e36565b83835b915091509250929050565b600080613e50856103e5612d3f565b90506000613e5e8285612d3f565b90506000613e7283612fc1886103e8612d3f565b9050613d028282612d4b565b600080613e8b8585613e10565b509050600080846001600160a01b0316630902f1ac6040518163ffffffff1660e01b8152600401606060405180830381865afa158015613ecf573d6000803e3d6000fd5b505050506040513d601f19601f82011682018060405250810190613ef391906147a8565b5091509150866001600160a01b0316836001600160a01b031614613f1357905b600080613f418a856dffffffffffffffffffffffffffff16856dffffffffffffffffffffffffffff16613e41565b9050886001600160a01b0316856001600160a01b031614613f5e57905b613f726001600160a01b038a16888c612732565b604080516000815260208101918290527f022c0d9f000000000000000000000000000000000000000000000000000000009091526001600160a01b0388169063022c0d9f90613fca90859085903090602481016147ed565b600060405180830381600087803b158015613fe457600080fd5b505af1158015613ff8573d6000803e3d6000fd5b50505050818111614009578161400b565b805b9a9950505050505050505050565b6060824710156140915760405162461bcd60e51b815260206004820152602660248201527f416464726573733a20696e73756666696369656e742062616c616e636520666f60448201527f722063616c6c00000000000000000000000000000000000000000000000000006064820152608401610b9e565b6001600160a01b0385163b6140e85760405162461bcd60e51b815260206004820152601d60248201527f416464726573733a2063616c6c20746f206e6f6e2d636f6e74726163740000006044820152606401610b9e565b600080866001600160a01b031685876040516141049190614825565b60006040518083038185875af1925050503d8060008114614141576040519150601f19603f3d011682016040523d82523d6000602084013e614146565b606091505b5091509150613d028282866141ff565b6000610b3e82611d5361416a826002612d4b565b612fc187670de0b6b3a7640000612d3f565b600082821015614197576141908483612d33565b9050611d72565b6141906141d26b033b2e3c9fd0803ce8000000611d53670de0b6b3a76400006141cc8a6141c683858b88612d3f565b90614238565b90612d3f565b8790614156565b6000610b3e670de0b6b3a7640000611d536141f5826002612d4b565b612fc18787612d3f565b6060831561420e575081610b3e565b82511561421e5782518084602001fd5b8160405162461bcd60e51b8152600401610b9e9190614335565b60006142458260026142b1565b60000361425e576b033b2e3c9fd0803ce8000000614260565b825b905061426d826002612d4b565b91505b811561099f5761428083846142bd565b925061428d8260026142b1565b1561429f5761429c81846142bd565b90505b6142aa826002612d4b565b9150614270565b6000610b3e8284614841565b6000610b3e6b033b2e3c9fd0803ce8000000611d536141f5826002612d4b565b60005b838110156142f85781810151838201526020016142e0565b83811115611d125750506000910152565b600081518084526143218160208601602086016142dd565b601f01601f19169290920160200192915050565b602081526000610b3e6020830184614309565b6001600160a01b038116811461143357600080fd5b6000806040838503121561437057600080fd5b823561437b81614348565b946020939093013593505050565b60008060006060848603121561439e57600080fd5b83356143a981614348565b925060208401356143b981614348565b929592945050506040919091013590565b6000602082840312156143dc57600080fd5b5035919050565b6000602082840312156143f557600080fd5b8135610b3e81614348565b803560ff8116811461441157600080fd5b919050565b600080600080600060a0868803121561442e57600080fd5b853594506020860135935061444560408701614400565b94979396509394606081013594506080013592915050565b801515811461143357600080fd5b60006020828403121561447d57600080fd5b8135610b3e8161445d565b6000806040838503121561449b57600080fd5b82356144a681614348565b915060208301356144b681614348565b809150509250929050565b600080604083850312156144d457600080fd5b8235915060208301356144b68161445d565b600080600080600080600060e0888a03121561450157600080fd5b873561450c81614348565b9650602088013561451c81614348565b9550604088013594506060880135935061453860808901614400565b925060a0880135915060c0880135905092959891949750929550565b600181811c9082168061456857607f821691505b60208210810361458857634e487b7160e01b600052602260045260246000fd5b50919050565b6000806000606084860312156145a357600080fd5b835192506020840151915060408401516145bc8161445d565b809150509250925092565b6000602082840312156145d957600080fd5b5051919050565b6000602082840312156145f257600080fd5b8151610b3e8161445d565b634e487b7160e01b600052601160045260246000fd5b600060018201614625576146256145fd565b5060010190565b600080835481600182811c91508083168061464857607f831692505b6020808410820361466757634e487b7160e01b86526022600452602486fd5b81801561467b576001811461468c576146b9565b60ff198616895284890196506146b9565b60008a81526020902060005b868110156146b15781548b820152908501908301614698565b505084890196505b509498975050505050505050565b600082198211156146da576146da6145fd565b500190565b6000602082840312156146f157600080fd5b8151610b3e81614348565b60008282101561470e5761470e6145fd565b500390565b600081600019048311821515161561472d5761472d6145fd565b500290565b634e487b7160e01b600052601260045260246000fd5b60008261475757614757614732565b500490565b60008060006060848603121561477157600080fd5b835192506020840151915060408401516145bc81614348565b80516dffffffffffffffffffffffffffff8116811461441157600080fd5b6000806000606084860312156147bd57600080fd5b6147c68461478a565b92506147d46020850161478a565b9150604084015163ffffffff811681146145bc57600080fd5b8481528360208201526001600160a01b038316604082015260806060820152600061481b6080830184614309565b9695505050505050565b600082516148378184602087016142dd565b9190910192915050565b60008261485057614850614732565b50069056fe5f6275726e3a206275726e20616d6f756e74206578636565647320746f74616c20737570706c794f776e61626c653a2063616c6c6572206973206e6f7420746865206f776e65727472616e7366657246726f6d3a207472616e7366657220616d6f756e74206578636565647320616c6c6f77616e63655f6275726e3a206275726e20616d6f756e7420657863656564732066726f6d2062616c616e63655f7472616e73666572546f6b656e733a207472616e7366657220657863656564732066726f6d2062616c616e6365a2646970667358221220577c1087d627e4b3867af598f5a0f1858d919da64de31d2cd9a5960a74750a6764736f6c634300080d00334f776e61626c653a2063616c6c6572206973206e6f7420746865206f776e65728be0079c531659141344cd1fd0a4f28419497f9722a3daafe3b4186f6b6457e0",
  "devdoc": {
    "kind": "dev",
    "methods": {
      "allowDepositor(address)": {
        "params": {
          "depositor": "address"
        }
      },
      "allowance(address,address)": {
        "params": {
          "account": "The address of the account holding the funds",
          "spender": "The address of the account spending the funds"
        },
        "returns": {
          "_0": "The number of tokens approved"
        }
      },
      "approve(address,uint256)": {
        "details": "This will overwrite the approval amount for `spender` and is subject to issues noted [here](https://eips.ethereum.org/EIPS/eip-20#approve) It is recommended to use increaseAllowance and decreaseAllowance instead",
        "params": {
          "amount": "The number of tokens that are approved (2^256-1 means infinite)",
          "spender": "The address of the account which may transfer tokens"
        },
        "returns": {
          "_0": "Whether or not the approval succeeded"
        }
      },
      "balanceOf(address)": {
        "params": {
          "account": "The address of the account to get the balance of"
        },
        "returns": {
          "_0": "The number of tokens held"
        }
      },
      "checkReward()": {
        "returns": {
          "_0": "reward tokens"
        }
      },
      "deposit(uint256)": {
        "params": {
          "amount": "Amount of tokens to deposit"
        }
      },
      "depositFor(address,uint256)": {
        "details": "Must mint receipt tokens to `account`",
        "params": {
          "account": "address to receive receipt tokens",
          "amount": "deposit tokens"
        }
      },
      "depositWithPermit(uint256,uint256,uint8,bytes32,bytes32)": {
        "params": {
          "amount": "Amount of tokens to deposit",
          "deadline": "The time at which to expire the signature",
          "r": "Half of the ECDSA signature pair",
          "s": "Half of the ECDSA signature pair",
          "v": "The recovery byte of the signature"
        }
      },
      "estimateDeployedBalance()": {
        "returns": {
          "_0": "deposit tokens after withdraw fee"
        }
      },
      "estimateReinvestReward()": {
        "returns": {
          "_0": "reward tokens"
        }
      },
      "getDepositTokensForShares(uint256)": {
        "params": {
          "amount": "receipt tokens"
        },
        "returns": {
          "_0": "deposit tokens"
        }
      },
      "getDomainSeparator()": {
        "returns": {
          "_0": "Separator"
        }
      },
      "getSharesForDepositTokens(uint256)": {
        "details": "If contract is empty, use 1:1 ratioCould return zero shares for very low amounts of deposit tokens",
        "params": {
          "amount": "deposit tokens"
        },
        "returns": {
          "_0": "receipt tokens"
        }
      },
      "owner()": {
        "details": "Returns the address of the current owner."
      },
      "permit(address,address,uint256,uint256,uint8,bytes32,bytes32)": {
        "params": {
          "deadline": "The time at which to expire the signature",
          "owner": "The address to approve from",
          "r": "Half of the ECDSA signature pair",
          "s": "Half of the ECDSA signature pair",
          "spender": "The address to be approved",
          "v": "The recovery byte of the signature",
          "value": "The number of tokens that are approved (2^256-1 means infinite)"
        }
      },
      "recoverAVAX(uint256)": {
        "params": {
          "amount": "amount"
        }
      },
      "recoverERC20(address,uint256)": {
        "params": {
          "tokenAddress": "token address",
          "tokenAmount": "amount to recover"
        }
      },
      "removeDepositor(address)": {
        "params": {
          "depositor": "address"
        }
      },
      "renounceOwnership()": {
        "details": "Leaves the contract without owner. It will not be possible to call `onlyOwner` functions anymore. Can only be called by the current owner. NOTE: Renouncing ownership will leave the contract without an owner, thereby removing any functionality that is only available to the owner."
      },
      "rescueDeployedFunds(uint256,bool)": {
        "params": {
          "disableDeposits": "bool",
          "minReturnAmountAccepted": "min deposit tokens to receive"
        }
      },
      "revokeAllowance(address,address)": {
        "params": {
          "spender": "address",
          "token": "address"
        }
      },
      "setExtraRewardSwapPair(address)": {
        "details": "Function name matches interface for FeeCollector"
      },
      "totalDeposits()": {
        "returns": {
          "_0": "total deposits available on the contract"
        }
      },
      "transfer(address,uint256)": {
        "params": {
          "amount": "The number of tokens to transfer",
          "dst": "The address of the destination account"
        },
        "returns": {
          "_0": "Whether or not the transfer succeeded"
        }
      },
      "transferFrom(address,address,uint256)": {
        "params": {
          "amount": "The number of tokens to transfer",
          "dst": "The address of the destination account",
          "src": "The address of the source account"
        },
        "returns": {
          "_0": "Whether or not the transfer succeeded"
        }
      },
      "transferOwnership(address)": {
        "details": "Transfers ownership of the contract to a new account (`newOwner`). Can only be called by the current owner."
      },
      "updateAdminFee(uint256)": {
        "details": "Deprecated; Kept for compatibility",
        "params": {
          "newValue": "fee in BIPS; required to be 0"
        }
      },
      "updateDepositsEnabled(bool)": {
        "params": {
          "newValue": "bool"
        }
      },
      "updateDevAddr(address)": {
        "params": {
          "newValue": "address"
        }
      },
      "updateDevFee(uint256)": {
        "params": {
          "newValue": "fee in BIPS"
        }
      },
      "updateMaxSwapSlippage(uint256)": {
        "details": "Function name matches interface for FeeCollector"
      },
      "updateMaxTokensToDepositWithoutReinvest(uint256)": {
        "params": {
          "newValue": "threshold"
        }
      },
      "updateMinTokensToReinvest(uint256)": {
        "params": {
          "newValue": "threshold"
        }
      },
      "updateReinvestReward(uint256)": {
        "params": {
          "newValue": "fee in BIPS"
        }
      },
      "withdraw(uint256)": {
        "params": {
          "amount": "receipt tokens"
        }
      }
    },
    "version": 1
  },
  "userdoc": {
    "kind": "user",
    "methods": {
      "allowDepositor(address)": {
        "notice": "Add an allowed depositor"
      },
      "allowance(address,address)": {
        "notice": "Get the number of tokens `spender` is approved to spend on behalf of `account`"
      },
      "approve(address,uint256)": {
        "notice": "Approve `spender` to transfer up to `amount` from `src`"
      },
      "balanceOf(address)": {
        "notice": "Get the number of tokens held by the `account`"
      },
      "checkReward()": {
        "notice": "Reward tokens avialable to strategy, including balance"
      },
      "deposit(uint256)": {
        "notice": "Deposit tokens to receive receipt tokens"
      },
      "depositFor(address,uint256)": {
        "notice": "Deposit on behalf of another account"
      },
      "depositWithPermit(uint256,uint256,uint8,bytes32,bytes32)": {
        "notice": "Deposit using Permit"
      },
      "estimateDeployedBalance()": {
        "notice": "Estimate recoverable balance after withdraw fee"
      },
      "estimateReinvestReward()": {
        "notice": "Estimate reinvest reward"
      },
      "getDepositTokensForShares(uint256)": {
        "notice": "Calculate deposit tokens for a given amount of receipt tokens"
      },
      "getDomainSeparator()": {
        "notice": "EIP-712 Domain separator"
      },
      "getSharesForDepositTokens(uint256)": {
        "notice": "Calculate receipt tokens for a given amount of deposit tokens"
      },
      "permit(address,address,uint256,uint256,uint8,bytes32,bytes32)": {
        "notice": "Triggers an approval from owner to spender"
      },
      "recoverAVAX(uint256)": {
        "notice": "Recover AVAX from contract"
      },
      "recoverERC20(address,uint256)": {
        "notice": "Recover ERC20 from contract"
      },
      "reinvest()": {
        "notice": "Reinvest reward tokens into deposit tokens"
      },
      "removeDepositor(address)": {
        "notice": "Remove an allowed depositor"
      },
      "rescueDeployedFunds(uint256,bool)": {
        "notice": "Rescue all available deployed deposit tokens back to Strategy"
      },
      "revokeAllowance(address,address)": {
        "notice": "Revoke token allowance"
      },
      "setExtraRewardSwapPair(address)": {
        "notice": "Update extra reward swap pair (if applicable)"
      },
      "totalDeposits()": {
        "notice": "This function returns a snapshot of last available quotes"
      },
      "transfer(address,uint256)": {
        "notice": "Transfer `amount` tokens from `msg.sender` to `dst`"
      },
      "transferFrom(address,address,uint256)": {
        "notice": "Transfer `amount` tokens from `src` to `dst`"
      },
      "updateAdminFee(uint256)": {
        "notice": "Update admin fee"
      },
      "updateDepositsEnabled(bool)": {
        "notice": "Enable/disable deposits"
      },
      "updateDevAddr(address)": {
        "notice": "Update devAddr"
      },
      "updateDevFee(uint256)": {
        "notice": "Update developer fee"
      },
      "updateMaxSwapSlippage(uint256)": {
        "notice": "Update max slippage for withdrawal"
      },
      "updateMaxTokensToDepositWithoutReinvest(uint256)": {
        "notice": "Update reinvest max threshold before a deposit"
      },
      "updateMinTokensToReinvest(uint256)": {
        "notice": "Update reinvest min threshold"
      },
      "updateReinvestReward(uint256)": {
        "notice": "Update reinvest reward"
      },
      "withdraw(uint256)": {
        "notice": "Redeem receipt tokens for deposit tokens"
      }
    },
    "version": 1
  },
  "storageLayout": {
    "storage": [
      {
        "astId": 556,
        "contract": "contracts/strategies/platypus/PlatypusStrategy.sol:PlatypusStrategy",
        "label": "name",
        "offset": 0,
        "slot": "0",
        "type": "t_string_storage"
      },
      {
        "astId": 559,
        "contract": "contracts/strategies/platypus/PlatypusStrategy.sol:PlatypusStrategy",
        "label": "symbol",
        "offset": 0,
        "slot": "1",
        "type": "t_string_storage"
      },
      {
        "astId": 564,
        "contract": "contracts/strategies/platypus/PlatypusStrategy.sol:PlatypusStrategy",
        "label": "totalSupply",
        "offset": 0,
        "slot": "2",
        "type": "t_uint256"
      },
      {
        "astId": 570,
        "contract": "contracts/strategies/platypus/PlatypusStrategy.sol:PlatypusStrategy",
        "label": "allowances",
        "offset": 0,
        "slot": "3",
        "type": "t_mapping(t_address,t_mapping(t_address,t_uint256))"
      },
      {
        "astId": 574,
        "contract": "contracts/strategies/platypus/PlatypusStrategy.sol:PlatypusStrategy",
        "label": "balances",
        "offset": 0,
        "slot": "4",
        "type": "t_mapping(t_address,t_uint256)"
      },
      {
        "astId": 590,
        "contract": "contracts/strategies/platypus/PlatypusStrategy.sol:PlatypusStrategy",
        "label": "nonces",
        "offset": 0,
        "slot": "5",
        "type": "t_mapping(t_address,t_uint256)"
      },
      {
        "astId": 7409,
        "contract": "contracts/strategies/platypus/PlatypusStrategy.sol:PlatypusStrategy",
        "label": "_owner",
        "offset": 0,
        "slot": "6",
        "type": "t_address"
      },
      {
        "astId": 7522,
        "contract": "contracts/strategies/platypus/PlatypusStrategy.sol:PlatypusStrategy",
        "label": "numberOfAllowedDepositors",
        "offset": 0,
        "slot": "7",
        "type": "t_uint256"
      },
      {
        "astId": 7526,
        "contract": "contracts/strategies/platypus/PlatypusStrategy.sol:PlatypusStrategy",
        "label": "allowedDepositors",
        "offset": 0,
        "slot": "8",
        "type": "t_mapping(t_address,t_bool)"
      },
      {
        "astId": 1965,
        "contract": "contracts/strategies/platypus/PlatypusStrategy.sol:PlatypusStrategy",
        "label": "depositToken",
        "offset": 0,
        "slot": "9",
        "type": "t_contract(IERC20)4869"
      },
      {
        "astId": 1968,
        "contract": "contracts/strategies/platypus/PlatypusStrategy.sol:PlatypusStrategy",
        "label": "rewardToken",
        "offset": 0,
        "slot": "10",
        "type": "t_contract(IERC20)4869"
      },
      {
        "astId": 1970,
        "contract": "contracts/strategies/platypus/PlatypusStrategy.sol:PlatypusStrategy",
        "label": "devAddr",
        "offset": 0,
        "slot": "11",
        "type": "t_address"
      },
      {
        "astId": 1972,
        "contract": "contracts/strategies/platypus/PlatypusStrategy.sol:PlatypusStrategy",
        "label": "MIN_TOKENS_TO_REINVEST",
        "offset": 0,
        "slot": "12",
        "type": "t_uint256"
      },
      {
        "astId": 1974,
        "contract": "contracts/strategies/platypus/PlatypusStrategy.sol:PlatypusStrategy",
        "label": "MAX_TOKENS_TO_DEPOSIT_WITHOUT_REINVEST",
        "offset": 0,
        "slot": "13",
        "type": "t_uint256"
      },
      {
        "astId": 1976,
        "contract": "contracts/strategies/platypus/PlatypusStrategy.sol:PlatypusStrategy",
        "label": "DEPOSITS_ENABLED",
        "offset": 0,
        "slot": "14",
        "type": "t_bool"
      },
      {
        "astId": 1978,
        "contract": "contracts/strategies/platypus/PlatypusStrategy.sol:PlatypusStrategy",
        "label": "ADMIN_FEE_BIPS",
        "offset": 0,
        "slot": "15",
        "type": "t_uint256"
      },
      {
        "astId": 1980,
        "contract": "contracts/strategies/platypus/PlatypusStrategy.sol:PlatypusStrategy",
        "label": "REINVEST_REWARD_BIPS",
        "offset": 0,
        "slot": "16",
        "type": "t_uint256"
      },
      {
        "astId": 1982,
        "contract": "contracts/strategies/platypus/PlatypusStrategy.sol:PlatypusStrategy",
        "label": "DEV_FEE_BIPS",
        "offset": 0,
        "slot": "17",
        "type": "t_uint256"
      },
      {
        "astId": 38512,
        "contract": "contracts/strategies/platypus/PlatypusStrategy.sol:PlatypusStrategy",
        "label": "pool",
        "offset": 0,
        "slot": "18",
        "type": "t_contract(IPlatypusPool)41815"
      },
      {
        "astId": 38515,
        "contract": "contracts/strategies/platypus/PlatypusStrategy.sol:PlatypusStrategy",
        "label": "proxy",
        "offset": 0,
        "slot": "19",
        "type": "t_contract(IPlatypusVoterProxy)41972"
      },
      {
        "astId": 38517,
        "contract": "contracts/strategies/platypus/PlatypusStrategy.sol:PlatypusStrategy",
        "label": "maxSlippage",
        "offset": 0,
        "slot": "20",
        "type": "t_uint256"
      },
      {
        "astId": 38519,
        "contract": "contracts/strategies/platypus/PlatypusStrategy.sol:PlatypusStrategy",
        "label": "swapPairToken",
        "offset": 0,
        "slot": "21",
        "type": "t_address"
      },
      {
        "astId": 38523,
        "contract": "contracts/strategies/platypus/PlatypusStrategy.sol:PlatypusStrategy",
        "label": "poolRewardToken",
        "offset": 0,
        "slot": "22",
        "type": "t_address"
      },
      {
        "astId": 38526,
        "contract": "contracts/strategies/platypus/PlatypusStrategy.sol:PlatypusStrategy",
        "label": "swapPairPoolReward",
        "offset": 0,
        "slot": "23",
        "type": "t_contract(IPair)4915"
      },
      {
        "astId": 38528,
        "contract": "contracts/strategies/platypus/PlatypusStrategy.sol:PlatypusStrategy",
        "label": "swapPairExtraReward",
        "offset": 0,
        "slot": "24",
        "type": "t_address"
      },
      {
        "astId": 38530,
        "contract": "contracts/strategies/platypus/PlatypusStrategy.sol:PlatypusStrategy",
        "label": "extraToken",
        "offset": 0,
        "slot": "25",
        "type": "t_address"
      }
    ],
    "types": {
      "t_address": {
        "encoding": "inplace",
        "label": "address",
        "numberOfBytes": "20"
      },
      "t_bool": {
        "encoding": "inplace",
        "label": "bool",
        "numberOfBytes": "1"
      },
      "t_contract(IERC20)4869": {
        "encoding": "inplace",
        "label": "contract IERC20",
        "numberOfBytes": "20"
      },
      "t_contract(IPair)4915": {
        "encoding": "inplace",
        "label": "contract IPair",
        "numberOfBytes": "20"
      },
      "t_contract(IPlatypusPool)41815": {
        "encoding": "inplace",
        "label": "contract IPlatypusPool",
        "numberOfBytes": "20"
      },
      "t_contract(IPlatypusVoterProxy)41972": {
        "encoding": "inplace",
        "label": "contract IPlatypusVoterProxy",
        "numberOfBytes": "20"
      },
      "t_mapping(t_address,t_bool)": {
        "encoding": "mapping",
        "key": "t_address",
        "label": "mapping(address => bool)",
        "numberOfBytes": "32",
        "value": "t_bool"
      },
      "t_mapping(t_address,t_mapping(t_address,t_uint256))": {
        "encoding": "mapping",
        "key": "t_address",
        "label": "mapping(address => mapping(address => uint256))",
        "numberOfBytes": "32",
        "value": "t_mapping(t_address,t_uint256)"
      },
      "t_mapping(t_address,t_uint256)": {
        "encoding": "mapping",
        "key": "t_address",
        "label": "mapping(address => uint256)",
        "numberOfBytes": "32",
        "value": "t_uint256"
      },
      "t_string_storage": {
        "encoding": "bytes",
        "label": "string",
        "numberOfBytes": "32"
      },
      "t_uint256": {
        "encoding": "inplace",
        "label": "uint256",
        "numberOfBytes": "32"
      }
    }
  }
}