{
  "address": "0x2ff789abd1765130081CE069B6EB0BAB4df86642",
  "abi": [
    {
      "inputs": [
        {
          "components": [
            {
              "internalType": "address",
              "name": "pool",
              "type": "address"
            },
            {
              "internalType": "address",
              "name": "swapPairToken",
              "type": "address"
            },
            {
              "internalType": "uint256",
              "name": "pid",
              "type": "uint256"
            },
            {
              "internalType": "uint256",
              "name": "maxSlippage",
              "type": "uint256"
            },
            {
              "internalType": "address",
              "name": "voterProxy",
              "type": "address"
            }
          ],
          "internalType": "struct PlatypusStrategy.PlatypusStrategySettings",
          "name": "_platypusStrategySettings",
          "type": "tuple"
        },
        {
          "components": [
            {
              "internalType": "string",
              "name": "name",
              "type": "string"
            },
            {
              "internalType": "address",
              "name": "platformToken",
              "type": "address"
            },
            {
              "components": [
                {
                  "internalType": "address",
                  "name": "reward",
                  "type": "address"
                },
                {
                  "internalType": "address",
                  "name": "swapPair",
                  "type": "address"
                },
                {
                  "internalType": "uint256",
                  "name": "swapFee",
                  "type": "uint256"
                }
              ],
              "internalType": "struct VariableRewardsStrategy.RewardSwapPair[]",
              "name": "rewardSwapPairs",
              "type": "tuple[]"
            },
            {
              "internalType": "address",
              "name": "timelock",
              "type": "address"
            }
          ],
          "internalType": "struct VariableRewardsStrategy.VariableRewardsStrategySettings",
          "name": "_variableRewardsStrategySettings",
          "type": "tuple"
        },
        {
          "components": [
            {
              "internalType": "address",
              "name": "depositToken",
              "type": "address"
            },
            {
              "internalType": "address",
              "name": "rewardToken",
              "type": "address"
            },
            {
              "internalType": "uint256",
              "name": "minTokensToReinvest",
              "type": "uint256"
            },
            {
              "internalType": "uint256",
              "name": "devFeeBips",
              "type": "uint256"
            },
            {
              "internalType": "uint256",
              "name": "reinvestRewardBips",
              "type": "uint256"
            }
          ],
          "internalType": "struct YakStrategyV2.StrategySettings",
          "name": "_strategySettings",
          "type": "tuple"
        }
      ],
      "stateMutability": "nonpayable",
      "type": "constructor"
    },
    {
      "anonymous": false,
      "inputs": [
        {
          "indexed": false,
          "internalType": "address",
          "name": "rewardToken",
          "type": "address"
        },
        {
          "indexed": false,
          "internalType": "address",
          "name": "swapPair",
          "type": "address"
        }
      ],
      "name": "AddReward",
      "type": "event"
    },
    {
      "anonymous": false,
      "inputs": [
        {
          "indexed": true,
          "internalType": "address",
          "name": "account",
          "type": "address"
        }
      ],
      "name": "AllowDepositor",
      "type": "event"
    },
    {
      "anonymous": false,
      "inputs": [
        {
          "indexed": true,
          "internalType": "address",
          "name": "owner",
          "type": "address"
        },
        {
          "indexed": true,
          "internalType": "address",
          "name": "spender",
          "type": "address"
        },
        {
          "indexed": false,
          "internalType": "uint256",
          "name": "value",
          "type": "uint256"
        }
      ],
      "name": "Approval",
      "type": "event"
    },
    {
      "anonymous": false,
      "inputs": [
        {
          "indexed": true,
          "internalType": "address",
          "name": "account",
          "type": "address"
        },
        {
          "indexed": false,
          "internalType": "uint256",
          "name": "amount",
          "type": "uint256"
        }
      ],
      "name": "Deposit",
      "type": "event"
    },
    {
      "anonymous": false,
      "inputs": [
        {
          "indexed": false,
          "internalType": "bool",
          "name": "newValue",
          "type": "bool"
        }
      ],
      "name": "DepositsEnabled",
      "type": "event"
    },
    {
      "anonymous": false,
      "inputs": [
        {
          "indexed": true,
          "internalType": "address",
          "name": "previousOwner",
          "type": "address"
        },
        {
          "indexed": true,
          "internalType": "address",
          "name": "newOwner",
          "type": "address"
        }
      ],
      "name": "OwnershipTransferred",
      "type": "event"
    },
    {
      "anonymous": false,
      "inputs": [
        {
          "indexed": false,
          "internalType": "address",
          "name": "token",
          "type": "address"
        },
        {
          "indexed": false,
          "internalType": "uint256",
          "name": "amount",
          "type": "uint256"
        }
      ],
      "name": "Recovered",
      "type": "event"
    },
    {
      "anonymous": false,
      "inputs": [
        {
          "indexed": false,
          "internalType": "uint256",
          "name": "newTotalDeposits",
          "type": "uint256"
        },
        {
          "indexed": false,
          "internalType": "uint256",
          "name": "newTotalSupply",
          "type": "uint256"
        }
      ],
      "name": "Reinvest",
      "type": "event"
    },
    {
      "anonymous": false,
      "inputs": [
        {
          "indexed": true,
          "internalType": "address",
          "name": "account",
          "type": "address"
        }
      ],
      "name": "RemoveDepositor",
      "type": "event"
    },
    {
      "anonymous": false,
      "inputs": [
        {
          "indexed": false,
          "internalType": "address",
          "name": "rewardToken",
          "type": "address"
        }
      ],
      "name": "RemoveReward",
      "type": "event"
    },
    {
      "anonymous": false,
      "inputs": [
        {
          "indexed": true,
          "internalType": "address",
          "name": "from",
          "type": "address"
        },
        {
          "indexed": true,
          "internalType": "address",
          "name": "to",
          "type": "address"
        },
        {
          "indexed": false,
          "internalType": "uint256",
          "name": "value",
          "type": "uint256"
        }
      ],
      "name": "Transfer",
      "type": "event"
    },
    {
      "anonymous": false,
      "inputs": [
        {
          "indexed": false,
          "internalType": "uint256",
          "name": "oldValue",
          "type": "uint256"
        },
        {
          "indexed": false,
          "internalType": "uint256",
          "name": "newValue",
          "type": "uint256"
        }
      ],
      "name": "UpdateAdminFee",
      "type": "event"
    },
    {
      "anonymous": false,
      "inputs": [
        {
          "indexed": false,
          "internalType": "address",
          "name": "oldValue",
          "type": "address"
        },
        {
          "indexed": false,
          "internalType": "address",
          "name": "newValue",
          "type": "address"
        }
      ],
      "name": "UpdateDevAddr",
      "type": "event"
    },
    {
      "anonymous": false,
      "inputs": [
        {
          "indexed": false,
          "internalType": "uint256",
          "name": "oldValue",
          "type": "uint256"
        },
        {
          "indexed": false,
          "internalType": "uint256",
          "name": "newValue",
          "type": "uint256"
        }
      ],
      "name": "UpdateDevFee",
      "type": "event"
    },
    {
      "anonymous": false,
      "inputs": [
        {
          "indexed": false,
          "internalType": "uint256",
          "name": "oldValue",
          "type": "uint256"
        },
        {
          "indexed": false,
          "internalType": "uint256",
          "name": "newValue",
          "type": "uint256"
        }
      ],
      "name": "UpdateMaxTokensToDepositWithoutReinvest",
      "type": "event"
    },
    {
      "anonymous": false,
      "inputs": [
        {
          "indexed": false,
          "internalType": "uint256",
          "name": "oldValue",
          "type": "uint256"
        },
        {
          "indexed": false,
          "internalType": "uint256",
          "name": "newValue",
          "type": "uint256"
        }
      ],
      "name": "UpdateMinTokensToReinvest",
      "type": "event"
    },
    {
      "anonymous": false,
      "inputs": [
        {
          "indexed": false,
          "internalType": "uint256",
          "name": "oldValue",
          "type": "uint256"
        },
        {
          "indexed": false,
          "internalType": "uint256",
          "name": "newValue",
          "type": "uint256"
        }
      ],
      "name": "UpdateReinvestReward",
      "type": "event"
    },
    {
      "anonymous": false,
      "inputs": [
        {
          "indexed": true,
          "internalType": "address",
          "name": "account",
          "type": "address"
        },
        {
          "indexed": false,
          "internalType": "uint256",
          "name": "amount",
          "type": "uint256"
        }
      ],
      "name": "Withdraw",
      "type": "event"
    },
    {
      "inputs": [],
      "name": "ADMIN_FEE_BIPS",
      "outputs": [
        {
          "internalType": "uint256",
          "name": "",
          "type": "uint256"
        }
      ],
      "stateMutability": "view",
      "type": "function"
    },
    {
      "inputs": [],
      "name": "DEPOSITS_ENABLED",
      "outputs": [
        {
          "internalType": "bool",
          "name": "",
          "type": "bool"
        }
      ],
      "stateMutability": "view",
      "type": "function"
    },
    {
      "inputs": [],
      "name": "DEV_FEE_BIPS",
      "outputs": [
        {
          "internalType": "uint256",
          "name": "",
          "type": "uint256"
        }
      ],
      "stateMutability": "view",
      "type": "function"
    },
    {
      "inputs": [],
      "name": "DOMAIN_TYPEHASH",
      "outputs": [
        {
          "internalType": "bytes32",
          "name": "",
          "type": "bytes32"
        }
      ],
      "stateMutability": "view",
      "type": "function"
    },
    {
      "inputs": [],
      "name": "MAX_TOKENS_TO_DEPOSIT_WITHOUT_REINVEST",
      "outputs": [
        {
          "internalType": "uint256",
          "name": "",
          "type": "uint256"
        }
      ],
      "stateMutability": "view",
      "type": "function"
    },
    {
      "inputs": [],
      "name": "MIN_TOKENS_TO_REINVEST",
      "outputs": [
        {
          "internalType": "uint256",
          "name": "",
          "type": "uint256"
        }
      ],
      "stateMutability": "view",
      "type": "function"
    },
    {
      "inputs": [],
      "name": "PERMIT_TYPEHASH",
      "outputs": [
        {
          "internalType": "bytes32",
          "name": "",
          "type": "bytes32"
        }
      ],
      "stateMutability": "view",
      "type": "function"
    },
    {
      "inputs": [],
      "name": "PID",
      "outputs": [
        {
          "internalType": "uint256",
          "name": "",
          "type": "uint256"
        }
      ],
      "stateMutability": "view",
      "type": "function"
    },
    {
      "inputs": [],
      "name": "PTP",
      "outputs": [
        {
          "internalType": "address",
          "name": "",
          "type": "address"
        }
      ],
      "stateMutability": "view",
      "type": "function"
    },
    {
      "inputs": [],
      "name": "REINVEST_REWARD_BIPS",
      "outputs": [
        {
          "internalType": "uint256",
          "name": "",
          "type": "uint256"
        }
      ],
      "stateMutability": "view",
      "type": "function"
    },
    {
      "inputs": [],
      "name": "VERSION_HASH",
      "outputs": [
        {
          "internalType": "bytes32",
          "name": "",
          "type": "bytes32"
        }
      ],
      "stateMutability": "view",
      "type": "function"
    },
    {
      "inputs": [
        {
          "internalType": "address",
          "name": "_rewardToken",
          "type": "address"
        },
        {
          "internalType": "address",
          "name": "_swapPair",
          "type": "address"
        }
      ],
      "name": "addReward",
      "outputs": [],
      "stateMutability": "nonpayable",
      "type": "function"
    },
    {
      "inputs": [
        {
          "internalType": "address",
          "name": "_rewardToken",
          "type": "address"
        },
        {
          "internalType": "address",
          "name": "_swapPair",
          "type": "address"
        },
        {
          "internalType": "uint256",
          "name": "_swapFee",
          "type": "uint256"
        }
      ],
      "name": "addReward",
      "outputs": [],
      "stateMutability": "nonpayable",
      "type": "function"
    },
    {
      "inputs": [
        {
          "internalType": "address",
          "name": "depositor",
          "type": "address"
        }
      ],
      "name": "allowDepositor",
      "outputs": [],
      "stateMutability": "nonpayable",
      "type": "function"
    },
    {
      "inputs": [
        {
          "internalType": "address",
          "name": "account",
          "type": "address"
        },
        {
          "internalType": "address",
          "name": "spender",
          "type": "address"
        }
      ],
      "name": "allowance",
      "outputs": [
        {
          "internalType": "uint256",
          "name": "",
          "type": "uint256"
        }
      ],
      "stateMutability": "view",
      "type": "function"
    },
    {
      "inputs": [
        {
          "internalType": "address",
          "name": "",
          "type": "address"
        }
      ],
      "name": "allowedDepositors",
      "outputs": [
        {
          "internalType": "bool",
          "name": "",
          "type": "bool"
        }
      ],
      "stateMutability": "view",
      "type": "function"
    },
    {
      "inputs": [
        {
          "internalType": "address",
          "name": "spender",
          "type": "address"
        },
        {
          "internalType": "uint256",
          "name": "amount",
          "type": "uint256"
        }
      ],
      "name": "approve",
      "outputs": [
        {
          "internalType": "bool",
          "name": "",
          "type": "bool"
        }
      ],
      "stateMutability": "nonpayable",
      "type": "function"
    },
    {
      "inputs": [],
      "name": "asset",
      "outputs": [
        {
          "internalType": "contract IPlatypusAsset",
          "name": "",
          "type": "address"
        }
      ],
      "stateMutability": "view",
      "type": "function"
    },
    {
      "inputs": [
        {
          "internalType": "address",
          "name": "account",
          "type": "address"
        }
      ],
      "name": "balanceOf",
      "outputs": [
        {
          "internalType": "uint256",
          "name": "",
          "type": "uint256"
        }
      ],
      "stateMutability": "view",
      "type": "function"
    },
    {
      "inputs": [
        {
          "internalType": "uint256",
          "name": "_amount",
          "type": "uint256"
        }
      ],
      "name": "calculateDepositFee",
      "outputs": [
        {
          "internalType": "uint256",
          "name": "",
          "type": "uint256"
        }
      ],
      "stateMutability": "view",
      "type": "function"
    },
    {
      "inputs": [
        {
          "internalType": "uint256",
          "name": "_amount",
          "type": "uint256"
        }
      ],
      "name": "calculateWithdrawFee",
      "outputs": [
        {
          "internalType": "uint256",
          "name": "",
          "type": "uint256"
        }
      ],
      "stateMutability": "view",
      "type": "function"
    },
    {
      "inputs": [],
      "name": "checkReward",
      "outputs": [
        {
          "internalType": "uint256",
          "name": "",
          "type": "uint256"
        }
      ],
      "stateMutability": "view",
      "type": "function"
    },
    {
      "inputs": [],
      "name": "decimals",
      "outputs": [
        {
          "internalType": "uint8",
          "name": "",
          "type": "uint8"
        }
      ],
      "stateMutability": "view",
      "type": "function"
    },
    {
      "inputs": [
        {
          "internalType": "uint256",
          "name": "_amount",
          "type": "uint256"
        }
      ],
      "name": "deposit",
      "outputs": [],
      "stateMutability": "nonpayable",
      "type": "function"
    },
    {
      "inputs": [
        {
          "internalType": "address",
          "name": "_account",
          "type": "address"
        },
        {
          "internalType": "uint256",
          "name": "_amount",
          "type": "uint256"
        }
      ],
      "name": "depositFor",
      "outputs": [],
      "stateMutability": "nonpayable",
      "type": "function"
    },
    {
      "inputs": [],
      "name": "depositToken",
      "outputs": [
        {
          "internalType": "contract IERC20",
          "name": "",
          "type": "address"
        }
      ],
      "stateMutability": "view",
      "type": "function"
    },
    {
      "inputs": [
        {
          "internalType": "uint256",
          "name": "_amount",
          "type": "uint256"
        },
        {
          "internalType": "uint256",
          "name": "_deadline",
          "type": "uint256"
        },
        {
          "internalType": "uint8",
          "name": "_v",
          "type": "uint8"
        },
        {
          "internalType": "bytes32",
          "name": "_r",
          "type": "bytes32"
        },
        {
          "internalType": "bytes32",
          "name": "_s",
          "type": "bytes32"
        }
      ],
      "name": "depositWithPermit",
      "outputs": [],
      "stateMutability": "nonpayable",
      "type": "function"
    },
    {
      "inputs": [],
      "name": "devAddr",
      "outputs": [
        {
          "internalType": "address",
          "name": "",
          "type": "address"
        }
      ],
      "stateMutability": "view",
      "type": "function"
    },
    {
      "inputs": [],
      "name": "estimateDeployedBalance",
      "outputs": [
        {
          "internalType": "uint256",
          "name": "",
          "type": "uint256"
        }
      ],
      "stateMutability": "view",
      "type": "function"
    },
    {
      "inputs": [],
      "name": "estimateReinvestReward",
      "outputs": [
        {
          "internalType": "uint256",
          "name": "",
          "type": "uint256"
        }
      ],
      "stateMutability": "view",
      "type": "function"
    },
    {
      "inputs": [
        {
          "internalType": "uint256",
          "name": "amount",
          "type": "uint256"
        }
      ],
      "name": "getDepositTokensForShares",
      "outputs": [
        {
          "internalType": "uint256",
          "name": "",
          "type": "uint256"
        }
      ],
      "stateMutability": "view",
      "type": "function"
    },
    {
      "inputs": [],
      "name": "getDomainSeparator",
      "outputs": [
        {
          "internalType": "bytes32",
          "name": "",
          "type": "bytes32"
        }
      ],
      "stateMutability": "view",
      "type": "function"
    },
    {
      "inputs": [
        {
          "internalType": "uint256",
          "name": "amount",
          "type": "uint256"
        }
      ],
      "name": "getSharesForDepositTokens",
      "outputs": [
        {
          "internalType": "uint256",
          "name": "",
          "type": "uint256"
        }
      ],
      "stateMutability": "view",
      "type": "function"
    },
    {
      "inputs": [],
      "name": "maxSlippage",
      "outputs": [
        {
          "internalType": "uint256",
          "name": "",
          "type": "uint256"
        }
      ],
      "stateMutability": "view",
      "type": "function"
    },
    {
      "inputs": [],
      "name": "name",
      "outputs": [
        {
          "internalType": "string",
          "name": "",
          "type": "string"
        }
      ],
      "stateMutability": "view",
      "type": "function"
    },
    {
      "inputs": [
        {
          "internalType": "address",
          "name": "",
          "type": "address"
        }
      ],
      "name": "nonces",
      "outputs": [
        {
          "internalType": "uint256",
          "name": "",
          "type": "uint256"
        }
      ],
      "stateMutability": "view",
      "type": "function"
    },
    {
      "inputs": [],
      "name": "numberOfAllowedDepositors",
      "outputs": [
        {
          "internalType": "uint256",
          "name": "",
          "type": "uint256"
        }
      ],
      "stateMutability": "view",
      "type": "function"
    },
    {
      "inputs": [],
      "name": "owner",
      "outputs": [
        {
          "internalType": "address",
          "name": "",
          "type": "address"
        }
      ],
      "stateMutability": "view",
      "type": "function"
    },
    {
      "inputs": [
        {
          "internalType": "address",
          "name": "owner",
          "type": "address"
        },
        {
          "internalType": "address",
          "name": "spender",
          "type": "address"
        },
        {
          "internalType": "uint256",
          "name": "value",
          "type": "uint256"
        },
        {
          "internalType": "uint256",
          "name": "deadline",
          "type": "uint256"
        },
        {
          "internalType": "uint8",
          "name": "v",
          "type": "uint8"
        },
        {
          "internalType": "bytes32",
          "name": "r",
          "type": "bytes32"
        },
        {
          "internalType": "bytes32",
          "name": "s",
          "type": "bytes32"
        }
      ],
      "name": "permit",
      "outputs": [],
      "stateMutability": "nonpayable",
      "type": "function"
    },
    {
      "inputs": [],
      "name": "pool",
      "outputs": [
        {
          "internalType": "contract IPlatypusPool",
          "name": "",
          "type": "address"
        }
      ],
      "stateMutability": "view",
      "type": "function"
    },
    {
      "inputs": [],
      "name": "proxy",
      "outputs": [
        {
          "internalType": "contract IPlatypusVoterProxy",
          "name": "",
          "type": "address"
        }
      ],
      "stateMutability": "view",
      "type": "function"
    },
    {
      "inputs": [
        {
          "internalType": "uint256",
          "name": "amount",
          "type": "uint256"
        }
      ],
      "name": "recoverAVAX",
      "outputs": [],
      "stateMutability": "nonpayable",
      "type": "function"
    },
    {
      "inputs": [
        {
          "internalType": "address",
          "name": "tokenAddress",
          "type": "address"
        },
        {
          "internalType": "uint256",
          "name": "tokenAmount",
          "type": "uint256"
        }
      ],
      "name": "recoverERC20",
      "outputs": [],
      "stateMutability": "nonpayable",
      "type": "function"
    },
    {
      "inputs": [],
      "name": "reinvest",
      "outputs": [],
      "stateMutability": "nonpayable",
      "type": "function"
    },
    {
      "inputs": [
        {
          "internalType": "address",
          "name": "depositor",
          "type": "address"
        }
      ],
      "name": "removeDepositor",
      "outputs": [],
      "stateMutability": "nonpayable",
      "type": "function"
    },
    {
      "inputs": [
        {
          "internalType": "address",
          "name": "_rewardToken",
          "type": "address"
        }
      ],
      "name": "removeReward",
      "outputs": [],
      "stateMutability": "nonpayable",
      "type": "function"
    },
    {
      "inputs": [],
      "name": "renounceOwnership",
      "outputs": [],
      "stateMutability": "nonpayable",
      "type": "function"
    },
    {
      "inputs": [
        {
          "internalType": "uint256",
          "name": "_minReturnAmountAccepted",
          "type": "uint256"
        },
        {
          "internalType": "bool",
          "name": "",
          "type": "bool"
        }
      ],
      "name": "rescueDeployedFunds",
      "outputs": [],
      "stateMutability": "nonpayable",
      "type": "function"
    },
    {
      "inputs": [
        {
          "internalType": "address",
          "name": "token",
          "type": "address"
        },
        {
          "internalType": "address",
          "name": "spender",
          "type": "address"
        }
      ],
      "name": "revokeAllowance",
      "outputs": [],
      "stateMutability": "nonpayable",
      "type": "function"
    },
    {
      "inputs": [],
      "name": "rewardCount",
      "outputs": [
        {
          "internalType": "uint256",
          "name": "",
          "type": "uint256"
        }
      ],
      "stateMutability": "view",
      "type": "function"
    },
    {
      "inputs": [
        {
          "internalType": "address",
          "name": "",
          "type": "address"
        }
      ],
      "name": "rewardSwapPairs",
      "outputs": [
        {
          "internalType": "address",
          "name": "reward",
          "type": "address"
        },
        {
          "internalType": "address",
          "name": "swapPair",
          "type": "address"
        },
        {
          "internalType": "uint256",
          "name": "swapFee",
          "type": "uint256"
        }
      ],
      "stateMutability": "view",
      "type": "function"
    },
    {
      "inputs": [],
      "name": "rewardToken",
      "outputs": [
        {
          "internalType": "contract IERC20",
          "name": "",
          "type": "address"
        }
      ],
      "stateMutability": "view",
      "type": "function"
    },
    {
      "inputs": [
        {
          "internalType": "address",
          "name": "_voterProxy",
          "type": "address"
        }
      ],
      "name": "setPlatypusVoterProxy",
      "outputs": [],
      "stateMutability": "nonpayable",
      "type": "function"
    },
    {
      "inputs": [
        {
          "internalType": "uint256",
          "name": "",
          "type": "uint256"
        }
      ],
      "name": "supportedRewards",
      "outputs": [
        {
          "internalType": "address",
          "name": "",
          "type": "address"
        }
      ],
      "stateMutability": "view",
      "type": "function"
    },
    {
      "inputs": [],
      "name": "swapPairToken",
      "outputs": [
        {
          "internalType": "address",
          "name": "",
          "type": "address"
        }
      ],
      "stateMutability": "view",
      "type": "function"
    },
    {
      "inputs": [],
      "name": "symbol",
      "outputs": [
        {
          "internalType": "string",
          "name": "",
          "type": "string"
        }
      ],
      "stateMutability": "view",
      "type": "function"
    },
    {
      "inputs": [],
      "name": "totalDeposits",
      "outputs": [
        {
          "internalType": "uint256",
          "name": "",
          "type": "uint256"
        }
      ],
      "stateMutability": "view",
      "type": "function"
    },
    {
      "inputs": [],
      "name": "totalSupply",
      "outputs": [
        {
          "internalType": "uint256",
          "name": "",
          "type": "uint256"
        }
      ],
      "stateMutability": "view",
      "type": "function"
    },
    {
      "inputs": [
        {
          "internalType": "address",
          "name": "dst",
          "type": "address"
        },
        {
          "internalType": "uint256",
          "name": "amount",
          "type": "uint256"
        }
      ],
      "name": "transfer",
      "outputs": [
        {
          "internalType": "bool",
          "name": "",
          "type": "bool"
        }
      ],
      "stateMutability": "nonpayable",
      "type": "function"
    },
    {
      "inputs": [
        {
          "internalType": "address",
          "name": "src",
          "type": "address"
        },
        {
          "internalType": "address",
          "name": "dst",
          "type": "address"
        },
        {
          "internalType": "uint256",
          "name": "amount",
          "type": "uint256"
        }
      ],
      "name": "transferFrom",
      "outputs": [
        {
          "internalType": "bool",
          "name": "",
          "type": "bool"
        }
      ],
      "stateMutability": "nonpayable",
      "type": "function"
    },
    {
      "inputs": [
        {
          "internalType": "address",
          "name": "newOwner",
          "type": "address"
        }
      ],
      "name": "transferOwnership",
      "outputs": [],
      "stateMutability": "nonpayable",
      "type": "function"
    },
    {
      "inputs": [
        {
          "internalType": "uint256",
          "name": "newValue",
          "type": "uint256"
        }
      ],
      "name": "updateAdminFee",
      "outputs": [],
      "stateMutability": "nonpayable",
      "type": "function"
    },
    {
      "inputs": [
        {
          "internalType": "bool",
          "name": "newValue",
          "type": "bool"
        }
      ],
      "name": "updateDepositsEnabled",
      "outputs": [],
      "stateMutability": "nonpayable",
      "type": "function"
    },
    {
      "inputs": [
        {
          "internalType": "address",
          "name": "newValue",
          "type": "address"
        }
      ],
      "name": "updateDevAddr",
      "outputs": [],
      "stateMutability": "nonpayable",
      "type": "function"
    },
    {
      "inputs": [
        {
          "internalType": "uint256",
          "name": "newValue",
          "type": "uint256"
        }
      ],
      "name": "updateDevFee",
      "outputs": [],
      "stateMutability": "nonpayable",
      "type": "function"
    },
    {
      "inputs": [
        {
          "internalType": "uint256",
          "name": "slippageBips",
          "type": "uint256"
        }
      ],
      "name": "updateMaxSwapSlippage",
      "outputs": [],
      "stateMutability": "nonpayable",
      "type": "function"
    },
    {
      "inputs": [
        {
          "internalType": "uint256",
          "name": "newValue",
          "type": "uint256"
        }
      ],
      "name": "updateMaxTokensToDepositWithoutReinvest",
      "outputs": [],
      "stateMutability": "nonpayable",
      "type": "function"
    },
    {
      "inputs": [
        {
          "internalType": "uint256",
          "name": "newValue",
          "type": "uint256"
        }
      ],
      "name": "updateMinTokensToReinvest",
      "outputs": [],
      "stateMutability": "nonpayable",
      "type": "function"
    },
    {
      "inputs": [
        {
          "internalType": "uint256",
          "name": "newValue",
          "type": "uint256"
        }
      ],
      "name": "updateReinvestReward",
      "outputs": [],
      "stateMutability": "nonpayable",
      "type": "function"
    },
    {
      "inputs": [
        {
          "internalType": "uint256",
          "name": "_amount",
          "type": "uint256"
        }
      ],
      "name": "withdraw",
      "outputs": [],
      "stateMutability": "nonpayable",
      "type": "function"
    }
  ],
  "transactionHash": "0x353781de6c0c6c6047e3f14642195b7e65e629f730194c7679a8fa49d054373b",
  "args": [
    {
      "pool": "0x66357dcace80431aee0a7507e2e361b7e2402370",
      "swapPairToken": "0xb31f66aa3c1e785363f0875a1b74e27b85fd66c7",
      "pid": "24",
      "maxSlippage": "100",
      "voterProxy": "0xE7ff20a6704bDab44B34cE6e6ef4776898Cc66bf"
    },
    {
      "name": "Yield Yak: Platypus BUSD",
      "platformToken": "0xb31f66aa3c1e785363f0875a1b74e27b85fd66c7",
      "rewardSwapPairs": [
        {
          "reward": "0x22d4002028f537599be9f666d1c4fa138522f9c8",
          "swapPair": "0xcdfd91eea657cc2701117fe9711c9a4f61feed23",
          "swapFee": "3"
        }
      ],
      "timelock": "0xDcEDF06Fd33E1D7b6eb4b309f779a0e9D3172e44"
    },
    {
      "depositToken": "0x9C9e5fD8bbc25984B178FdCE6117Defa39d2db39",
      "rewardToken": "0xb31f66aa3c1e785363f0875a1b74e27b85fd66c7",
      "minTokensToReinvest": "100000000000000",
      "adminFeeBips": 0,
      "devFeeBips": 700,
      "reinvestRewardBips": 300
    }
  ],
  "solcInputHash": "b19b0c29fa4a9c27443fa0699bac9f08",
  "bytecode": "0x6101a06040526009610160819052685969656c642059616b60b81b6101809081526200002f916000919062000a85565b506040805180820190915260038082526216549560ea1b60209092019182526200005c9160019162000a85565b503480156200006a57600080fd5b5060405162006019380380620060198339810160408190526200008d9162000e4b565b600680546001600160a01b0319163390811790915560405183918391829190819060009060008051602062005ff9833981519152908290a35080516001600160a01b0390811660805260208201511660a0526040810151620000ef9062000327565b6060810151620000ff90620003b7565b60808101516200010f9062000462565b5081518051620001289160009160209091019062000a85565b5060208201516001600160a01b031660c052600980546001600160a01b031916732d580f9cf2fb2d09bc411532988f2afda4e7beff17905560005b8260400151518110156200020557620001f0836040015182815181106200018e576200018e62000f0a565b60200260200101516000015184604001518381518110620001b357620001b362000f0a565b60200260200101516020015185604001518481518110620001d857620001d862000f0a565b6020026020010151604001516200050d60201b60201c565b80620001fc8162000f36565b91505062000163565b50620002126001620006b9565b6060820151620002229062000763565b60408051600080825260208201527fc7606d21ac05cd309191543e409f0845c016120563783d70e4f41419dc0ef234910160405180910390a150506040838101516101205283516001600160a01b03908116610100819052835192516371f9621160e01b8152929091166004830152906371f9621190602401602060405180830381865afa158015620002b9573d6000803e3d6000fd5b505050506040513d601f19601f82011682018060405250810190620002df919062000f52565b6001600160a01b0390811660e0526080840151601380546001600160a01b0319169183169190911790556060840151601455602090930151909216610140525062000fce9050565b6006546001600160a01b03163314620003765760405162461bcd60e51b8152602060048201819052602482015260008051602062005fd983398151915260448201526064015b60405180910390fd5b600a5460408051918252602082018390527f481f79ac3a523b6d6db3c5a720e190e986d1cc1b41adcdf50f9caef849901100910160405180910390a1600a55565b6006546001600160a01b03163314620004025760405162461bcd60e51b8152602060048201819052602482015260008051602062005fd983398151915260448201526064016200036d565b612710600e548262000415919062000f77565b11156200042157600080fd5b600f5460408051918252602082018390527f2a42303d002f0ba6cfe8259c91d4684443fb0b3de286ba74991175d651726131910160405180910390a1600f55565b6006546001600160a01b03163314620004ad5760405162461bcd60e51b8152602060048201819052602482015260008051602062005fd983398151915260448201526064016200036d565b612710600f5482620004c0919062000f77565b1115620004cc57600080fd5b600e5460408051918252602082018390527fe7f97d51d307dc44045597c9978bec0f842e6bb40d19b9444084cfa30d9ed4f2910160405180910390a1600e55565b60a0516001600160a01b0316836001600160a01b031614620005b95762000543828460a0516200086060201b6200271c1760201c565b620005b9576040805162461bcd60e51b81526020600482015260248101919091527f5661726961626c655265776172647353747261746567793a3a5377617020706160448201527f697220646f6573206e6f7420636f6e7461696e2072657761726420746f6b656e60648201526084016200036d565b604080516060810182526001600160a01b03808616808352858216602080850191825284860187815260008481526010909252958120945185549085166001600160a01b03199182161786559151600180870180549290961691841691909117909455945160029094019390935560118054808401825594527f31ecc21a745e3968a04e9570e4425bc18fa8019c68028196b546d1669c200c68909301805490921690921790556012546200066e9162000f77565b601255604080516001600160a01b038086168252841660208201527f916e172c080569186aa7ea048268267257cf7cc49505908863f747bca8620f80910160405180910390a1505050565b6006546001600160a01b03163314620007045760405162461bcd60e51b8152602060048201819052602482015260008051602062005fd983398151915260448201526064016200036d565b600c5481151560ff9091161515036200071c57600080fd5b600c805460ff19168215159081179091556040519081527f7b014ed3854e7f5cb0218d58b3c6ae7d53a68bb0af2f67bfb029ea42c38a7e859060200160405180910390a150565b6006546001600160a01b03163314620007ae5760405162461bcd60e51b8152602060048201819052602482015260008051602062005fd983398151915260448201526064016200036d565b6001600160a01b038116620008155760405162461bcd60e51b815260206004820152602660248201527f4f776e61626c653a206e6577206f776e657220697320746865207a65726f206160448201526564647265737360d01b60648201526084016200036d565b6006546040516001600160a01b0380841692169060008051602062005ff983398151915290600090a3600680546001600160a01b0319166001600160a01b0392909216919091179055565b6000836001600160a01b0316630dfe16816040518163ffffffff1660e01b8152600401602060405180830381865afa158015620008a1573d6000803e3d6000fd5b505050506040513d601f19601f82011682018060405250810190620008c7919062000f52565b6001600160a01b0316836001600160a01b031614806200095c5750836001600160a01b031663d21220a76040518163ffffffff1660e01b8152600401602060405180830381865afa15801562000921573d6000803e3d6000fd5b505050506040513d601f19601f8201168201806040525081019062000947919062000f52565b6001600160a01b0316836001600160a01b0316145b801562000a5e5750836001600160a01b0316630dfe16816040518163ffffffff1660e01b8152600401602060405180830381865afa158015620009a3573d6000803e3d6000fd5b505050506040513d601f19601f82011682018060405250810190620009c9919062000f52565b6001600160a01b0316826001600160a01b0316148062000a5e5750836001600160a01b031663d21220a76040518163ffffffff1660e01b8152600401602060405180830381865afa15801562000a23573d6000803e3d6000fd5b505050506040513d601f19601f8201168201806040525081019062000a49919062000f52565b6001600160a01b0316826001600160a01b0316145b801562000a7d5750816001600160a01b0316836001600160a01b031614155b949350505050565b82805462000a939062000f92565b90600052602060002090601f01602090048101928262000ab7576000855562000b02565b82601f1062000ad257805160ff191683800117855562000b02565b8280016001018555821562000b02579182015b8281111562000b0257825182559160200191906001019062000ae5565b5062000b1092915062000b14565b5090565b5b8082111562000b10576000815560010162000b15565b634e487b7160e01b600052604160045260246000fd5b604051606081016001600160401b038111828210171562000b665762000b6662000b2b565b60405290565b604051608081016001600160401b038111828210171562000b665762000b6662000b2b565b60405160a081016001600160401b038111828210171562000b665762000b6662000b2b565b604051601f8201601f191681016001600160401b038111828210171562000be15762000be162000b2b565b604052919050565b80516001600160a01b038116811462000c0157600080fd5b919050565b600082601f83011262000c1857600080fd5b815160206001600160401b0382111562000c365762000c3662000b2b565b62000c46818360051b0162000bb6565b8281526060928302850182019282820191908785111562000c6657600080fd5b8387015b8581101562000cc45781818a03121562000c845760008081fd5b62000c8e62000b41565b62000c998262000be9565b815262000ca886830162000be9565b8187015260408281015190820152845292840192810162000c6a565b5090979650505050505050565b60006080828403121562000ce457600080fd5b62000cee62000b6c565b82519091506001600160401b038082111562000d0957600080fd5b818401915084601f83011262000d1e57600080fd5b81518181111562000d335762000d3362000b2b565b602062000d49601f8301601f1916820162000bb6565b828152878284870101111562000d5e57600080fd5b60005b8381101562000d7e57858101830151828201840152820162000d61565b8381111562000d905760008385840101525b50855262000da086820162000be9565b9085015250604084015191508082111562000dba57600080fd5b5062000dc98482850162000c06565b60408301525062000ddd6060830162000be9565b606082015292915050565b600060a0828403121562000dfb57600080fd5b62000e0562000b91565b905062000e128262000be9565b815262000e226020830162000be9565b602082015260408201516040820152606082015160608201526080820151608082015292915050565b600080600083850361016081121562000e6357600080fd5b60a081121562000e7257600080fd5b5062000e7d62000b91565b62000e888562000be9565b815262000e986020860162000be9565b6020820152604085015160408201526060850151606082015262000ebf6080860162000be9565b608082015260a08501519093506001600160401b0381111562000ee157600080fd5b62000eef8682870162000cd1565b92505062000f018560c0860162000de8565b90509250925092565b634e487b7160e01b600052603260045260246000fd5b634e487b7160e01b600052601160045260246000fd5b60006001820162000f4b5762000f4b62000f20565b5060010190565b60006020828403121562000f6557600080fd5b62000f708262000be9565b9392505050565b6000821982111562000f8d5762000f8d62000f20565b500190565b600181811c9082168062000fa757607f821691505b60208210810362000fc857634e487b7160e01b600052602260045260246000fd5b50919050565b60805160a05160c05160e051610100516101205161014051614e8362001156600039600081816106cf01526140f20152600081816106a8015281816112cc01528181612be501528181612c7b0152818161329c015281816133ae01528181613d1501526142400152600081816104ef01528181612b8401528181612cb0015281816132d101526142750152600081816105ed01528181612ba501528181612d000152818161332101526142c5015260008181611f2701528181613e2101528181613e500152613ed3015260008181610a7301528181611eb801528181611f5101528181611fbb015281816121340152818161309d015281816130db015281816137290152818161378401528181613d7501528181613efd01528181613fd10152818161407901526140b001526000818161094d01528181610d0601528181610e3601528181611c2c01528181611cc101528181612cd801528181612f3f015281816132f90152818161404f015281816140d1015281816141ec015261429d0152614e836000f3fe608060405234801561001057600080fd5b50600436106104725760003560e01c80638b73e60611610250578063b9e57b8011610150578063dd8ce4d6116100c8578063ec55688911610097578063f2fde38b1161007c578063f2fde38b14610a5b578063f7c618c114610a6e578063fdb5a03e14610a9557600080fd5b8063ec55688914610a40578063ed24911d14610a5357600080fd5b8063dd8ce4d6146109f4578063e21ac82514610a07578063e75ab04514610a1a578063eab89a5a14610a2d57600080fd5b8063cff1b6ef1161011f578063d505accf11610104578063d505accf14610995578063da09c72c146109a8578063dd62ed3e146109bb57600080fd5b8063cff1b6ef1461096f578063d0ed26ae1461098257600080fd5b8063b9e57b801461092f578063bd079f5514610937578063c4b24a4614610940578063c89039c51461094857600080fd5b80639f0237b1116101e3578063a9059cbb116101b2578063ac0d31ff11610197578063ac0d31ff146108fc578063b52a321f1461090f578063b6b55f251461091c57600080fd5b8063a9059cbb146108d6578063abff1963146108e957600080fd5b80639f0237b11461083b578063a4d5e67c1461084e578063a5534e7114610861578063a8ae2b7c146108c357600080fd5b80639291d5631161021f5780639291d563146107e657806395d89b41146107f957806399729ec1146108015780639e4e73181461081457600080fd5b80638b73e6061461079e5780638c04166f146107b15780638da5cb5b146107ba5780638dc1564a146107cb57600080fd5b8063483c2ef011610376578063715018a6116102ee5780637d882097116102bd57806381837230116102a2578063818372301461076f5780638980f11f146107825780638aff733d1461079557600080fd5b80637d882097146107475780637ecebe001461074f57600080fd5b8063715018a61461071a578063789139bc14610722578063790854251461072b5780637ae267731461073457600080fd5b80634ebb7916116103455780635eaec0e41161032a5780635eaec0e4146106a3578063633afd28146106ca57806370a08231146106f157600080fd5b80634ebb7916146106875780635ea682ea1461069a57600080fd5b8063483c2ef01461062b5780634a970be71461064e5780634bebd1e7146106615780634e77ace51461067457600080fd5b806323b872dd1161040957806330adf81f116103d857806338d52e0f116103bd57806338d52e0f146105e85780633bdc6e721461060f57806340b47e1a1461061857600080fd5b806330adf81f146105a7578063313ce567146105ce57600080fd5b806323b872dd14610559578063247d284b1461056c5780632e1a7d4d1461057f5780632f4f21e21461059457600080fd5b8063110560351161044557806311056035146104d757806316f0115b146104ea57806318160ddd1461052957806320606b701461053257600080fd5b806306fdde03146104775780630767711114610495578063095ea7b3146104ac5780630f23475d146104cf575b600080fd5b61047f610a9d565b60405161048c9190614802565b60405180910390f35b61049e600d5481565b60405190815260200161048c565b6104bf6104ba36600461482a565b610b2b565b604051901515815260200161048c565b61049e610b42565b61049e6104e5366004614856565b610b6d565b6105117f000000000000000000000000000000000000000000000000000000000000000081565b6040516001600160a01b03909116815260200161048c565b61049e60025481565b61049e7f8b73c3c69bb8fe3d512ecc4cf759cc79239f7b179b0ffacaa9a75d522b39400f81565b6104bf61056736600461486f565b610b78565b61049e61057a366004614856565b610c41565b61059261058d366004614856565b610c4c565b005b6105926105a236600461482a565b610d72565b61049e7f6e71edae12b1b97f4d1f60370fef10105fa2faae0126114a169c64845d6126c981565b6105d6601281565b60405160ff909116815260200161048c565b6105117f000000000000000000000000000000000000000000000000000000000000000081565b61049e60075481565b6105926106263660046148b0565b610d80565b6104bf6106393660046148e9565b60086020526000908152604090205460ff1681565b61059261065c36600461491c565b610ddd565b61059261066f3660046148e9565b610eab565b610592610682366004614971565b610fc8565b610592610695366004614856565b61106f565b61049e600f5481565b61049e7f000000000000000000000000000000000000000000000000000000000000000081565b6105117f000000000000000000000000000000000000000000000000000000000000000081565b61049e6106ff3660046148e9565b6001600160a01b031660009081526004602052604090205490565b610592611129565b61049e600b5481565b61049e60125481565b6105926107423660046148b0565b6111bb565b61049e611298565b61049e61075d3660046148e9565b60056020526000908152604090205481565b61059261077d366004614856565b611349565b61059261079036600461482a565b6113d2565b61049e600e5481565b6105926107ac3660046148e9565b6114e8565b61049e60145481565b6006546001600160a01b0316610511565b6105117322d4002028f537599be9f666d1c4fa138522f9c881565b6105926107f43660046148e9565b6116a4565b61047f61175e565b61059261080f366004614856565b61176b565b61049e7fc89efdaa54c0f20c7adf612882df0950f5a951637e0307cdcb4c672f298b8bc681565b6105926108493660046148e9565b611810565b61059261085c3660046148e9565b61187a565b61089d61086f3660046148e9565b6010602052600090815260409020805460018201546002909201546001600160a01b03918216929091169083565b604080516001600160a01b0394851681529390921660208401529082015260600161048c565b6105926108d1366004614856565b611ac4565b6104bf6108e436600461482a565b611b69565b6105926108f7366004614856565b611b76565b61059261090a36600461498e565b611bcc565b600c546104bf9060ff1681565b61059261092a366004614856565b611e3e565b61049e611e4b565b61049e600a5481565b61049e611e8a565b6105117f000000000000000000000000000000000000000000000000000000000000000081565b61059261097d366004614856565b6121ca565b61059261099036600461486f565b61225e565b6105926109a33660046149b3565b6122bf565b600954610511906001600160a01b031681565b61049e6109c93660046148b0565b6001600160a01b03918216600090815260036020908152604080832093909416825291909152205490565b61049e610a02366004614856565b6123d2565b610592610a15366004614856565b612413565b610511610a28366004614856565b61249c565b61049e610a3b366004614856565b6124c6565b601354610511906001600160a01b031681565b61049e612501565b610592610a693660046148e9565b6125a1565b6105117f000000000000000000000000000000000000000000000000000000000000000081565b6105926126c1565b60008054610aaa90614a21565b80601f0160208091040260200160405190810160405280929190818152602001828054610ad690614a21565b8015610b235780601f10610af857610100808354040283529160200191610b23565b820191906000526020600020905b815481529060010190602001808311610b0657829003601f168201915b505050505081565b6000610b38338484612931565b5060015b92915050565b600080610b4d611298565b90506000610b5a82612a3f565b9050610b668183614a71565b9250505090565b6000610b3c82612a3f565b6001600160a01b038316600081815260036020908152604080832033808552925282205491929091908214801590610bb257506000198114155b15610c28576000610bc38583614a71565b6001600160a01b038881166000818152600360209081526040808320948916808452948252918290208590559051848152939450919290917f8c5be1e5ebec7d5bd14f71427d1e84f3dd0314c0f7b2291e5b200ac8c7c3b925910160405180910390a3505b610c33868686612a59565b6001925050505b9392505050565b6000610b3c82612b7d565b6000610c57826124c6565b905060008111610cd45760405162461bcd60e51b815260206004820152603060248201527f5661726961626c655265776172647353747261746567793a3a5769746864726160448201527f7720616d6f756e7420746f6f206c6f770000000000000000000000000000000060648201526084015b60405180910390fd5b6000610cdf82612bca565b90506000610cec83612a3f565b9050610d2d33610cfc8385614a71565b6001600160a01b037f0000000000000000000000000000000000000000000000000000000000000000169190612d62565b610d373385612dc9565b60405183815233907f884edad9ce6fa2440d8a54cc123490eb96d2768479d49ff9c7366125a94243649060200160405180910390a250505050565b610d7c8282612e5d565b5050565b6009546001600160a01b03163314610dd15760405162461bcd60e51b81526020600482015260146024820152732cb0b5a9ba3930ba32b3bc9d1d37b7363ca232bb60611b6044820152606401610ccb565b610d7c8282600361309b565b6040517fd505accf000000000000000000000000000000000000000000000000000000008152336004820152306024820152604481018690526064810185905260ff8416608482015260a4810183905260c481018290527f00000000000000000000000000000000000000000000000000000000000000006001600160a01b03169063d505accf9060e401600060405180830381600087803b158015610e8257600080fd5b505af1158015610e96573d6000803e3d6000fd5b50505050610ea43386612e5d565b5050505050565b6006546001600160a01b03163314610ef35760405162461bcd60e51b81526020600482018190526024820152600080516020614e2e8339815191526044820152606401610ccb565b6001600160a01b03811660009081526008602052604090205460ff1615610f5c5760405162461bcd60e51b815260206004820152601c60248201527f5065726d697373696f6e65643a3a616c6c6f774465706f7369746f72000000006044820152606401610ccb565b6001600160a01b0381166000908152600860205260409020805460ff19166001908117909155600754610f8e91614a88565b6007556040516001600160a01b038216907fc0a1035c16faf8d1304056d92c00edf028f87e62b8235a938f00af9e3c0312c590600090a250565b6006546001600160a01b031633146110105760405162461bcd60e51b81526020600482018190526024820152600080516020614e2e8339815191526044820152606401610ccb565b600c5481151560ff90911615150361102757600080fd5b600c805460ff19168215159081179091556040519081527f7b014ed3854e7f5cb0218d58b3c6ae7d53a68bb0af2f67bfb029ea42c38a7e85906020015b60405180910390a150565b6006546001600160a01b031633146110b75760405162461bcd60e51b81526020600482018190526024820152600080516020614e2e8339815191526044820152606401610ccb565b600081116110c457600080fd5b604051339082156108fc029083906000818181858888f193505050501580156110f1573d6000803e3d6000fd5b506040805160008152602081018390527f8c1256b8896378cd5044f80c202f9772b9d77dc85c8a6eb51967210b09bfaa289101611064565b6006546001600160a01b031633146111715760405162461bcd60e51b81526020600482018190526024820152600080516020614e2e8339815191526044820152606401610ccb565b6006546040516000916001600160a01b0316907f8be0079c531659141344cd1fd0a4f28419497f9722a3daafe3b4186f6b6457e0908390a3600680546001600160a01b0319169055565b6006546001600160a01b031633146112035760405162461bcd60e51b81526020600482018190526024820152600080516020614e2e8339815191526044820152606401610ccb565b6040517f095ea7b30000000000000000000000000000000000000000000000000000000081526001600160a01b0382811660048301526000602483015283169063095ea7b3906044016020604051808303816000875af115801561126b573d6000803e3d6000fd5b505050506040513d601f19601f8201168201806040525081019061128f9190614aa0565b610d7c57600080fd5b6013546040517f01e1c48d0000000000000000000000000000000000000000000000000000000081526000600482018190527f000000000000000000000000000000000000000000000000000000000000000060248301529182916001600160a01b03909116906301e1c48d90604401602060405180830381865afa158015611325573d6000803e3d6000fd5b505050506040513d601f19601f82011682018060405250810190610b3c9190614abd565b6006546001600160a01b031633146113915760405162461bcd60e51b81526020600482018190526024820152600080516020614e2e8339815191526044820152606401610ccb565b600a5460408051918252602082018390527f481f79ac3a523b6d6db3c5a720e190e986d1cc1b41adcdf50f9caef849901100910160405180910390a1600a55565b6006546001600160a01b0316331461141a5760405162461bcd60e51b81526020600482018190526024820152600080516020614e2e8339815191526044820152606401610ccb565b6000811161142757600080fd5b60405163a9059cbb60e01b8152336004820152602481018290526001600160a01b0383169063a9059cbb906044016020604051808303816000875af1158015611474573d6000803e3d6000fd5b505050506040513d601f19601f820116820180604052508101906114989190614aa0565b6114a157600080fd5b604080516001600160a01b0384168152602081018390527f8c1256b8896378cd5044f80c202f9772b9d77dc85c8a6eb51967210b09bfaa2891015b60405180910390a15050565b6006546001600160a01b031633146115305760405162461bcd60e51b81526020600482018190526024820152600080516020614e2e8339815191526044820152606401610ccb565b6000600754116115a85760405162461bcd60e51b815260206004820152603460248201527f5065726d697373696f6e65643a3a72656d6f76654465706f7369746f722c206e60448201527f6f20616c6c6f776564206465706f7369746f72730000000000000000000000006064820152608401610ccb565b6001600160a01b03811660009081526008602052604090205460ff16151560011461163b5760405162461bcd60e51b815260206004820152602a60248201527f5065726d697373696f6e65643a3a72656d6f76654465706f7369746f722c206e60448201527f6f7420616c6c6f776564000000000000000000000000000000000000000000006064820152608401610ccb565b6001600160a01b0381166000908152600860205260409020805460ff1916905560075461166a90600190614a71565b6007556040516001600160a01b038216907f0e86f6608b536e5339a25b65ff531f5ea91e1313d056ecd4752b35cbd16137d490600090a250565b6009546001600160a01b031633146116f55760405162461bcd60e51b81526020600482015260146024820152732cb0b5a9ba3930ba32b3bc9d1d37b7363ca232bb60611b6044820152606401610ccb565b600954604080516001600160a01b03928316815291831660208301527fa8e91499ed37682f43cffb045fcc7d379a91e8c9a14e6321877ee34dee564c00910160405180910390a1600980546001600160a01b0319166001600160a01b0392909216919091179055565b60018054610aaa90614a21565b6006546001600160a01b031633146117b35760405162461bcd60e51b81526020600482018190526024820152600080516020614e2e8339815191526044820152606401610ccb565b612710600e54826117c49190614a88565b11156117cf57600080fd5b600f5460408051918252602082018390527f2a42303d002f0ba6cfe8259c91d4684443fb0b3de286ba74991175d651726131910160405180910390a1600f55565b6006546001600160a01b031633146118585760405162461bcd60e51b81526020600482018190526024820152600080516020614e2e8339815191526044820152606401610ccb565b601380546001600160a01b0319166001600160a01b0392909216919091179055565b6009546001600160a01b031633146118cb5760405162461bcd60e51b81526020600482015260146024820152732cb0b5a9ba3930ba32b3bc9d1d37b7363ca232bb60611b6044820152606401610ccb565b6001600160a01b038116600090815260106020526040812080546001600160a01b031990811682556001820180549091169055600201819055805b6011548110156119d2576011818154811061192357611923614ad6565b6000918252602090912001546001600160a01b03908116908416036119c0576011805460019350611955908490614a71565b8154811061196557611965614ad6565b600091825260209091200154601180546001600160a01b03909216918390811061199157611991614ad6565b9060005260206000200160006101000a8154816001600160a01b0302191690836001600160a01b031602179055505b806119ca81614aec565b915050611906565b5080611a465760405162461bcd60e51b815260206004820152603460248201527f5661726961626c655265776172647353747261746567793a3a5265776172642060448201527f746f2064656c657465206e6f7420666f756e64210000000000000000000000006064820152608401610ccb565b6011805480611a5757611a57614b05565b600082815260209020810160001990810180546001600160a01b0319169055019055601254611a8890600190614a71565b6012556040516001600160a01b03831681527f963b7c735475147a62c589c2d7cb8ec4b0a6b7af4f97373d79ebfa42ab8aa7dc906020016114dc565b6006546001600160a01b03163314611b0c5760405162461bcd60e51b81526020600482018190526024820152600080516020614e2e8339815191526044820152606401610ccb565b612710600f5482611b1d9190614a88565b1115611b2857600080fd5b600e5460408051918252602082018390527fe7f97d51d307dc44045597c9978bec0f842e6bb40d19b9444084cfa30d9ed4f2910160405180910390a1600e55565b6000610b38338484612a59565b6009546001600160a01b03163314611bc75760405162461bcd60e51b81526020600482015260146024820152732cb0b5a9ba3930ba32b3bc9d1d37b7363ca232bb60611b6044820152606401610ccb565b601455565b6006546001600160a01b03163314611c145760405162461bcd60e51b81526020600482018190526024820152600080516020614e2e8339815191526044820152606401610ccb565b6040516370a0823160e01b81523060048201526000907f00000000000000000000000000000000000000000000000000000000000000006001600160a01b0316906370a0823190602401602060405180830381865afa158015611c7b573d6000803e3d6000fd5b505050506040513d601f19601f82011682018060405250810190611c9f9190614abd565b9050611ca9613271565b6040516370a0823160e01b81523060048201526000907f00000000000000000000000000000000000000000000000000000000000000006001600160a01b0316906370a0823190602401602060405180830381865afa158015611d10573d6000803e3d6000fd5b505050506040513d601f19601f82011682018060405250810190611d349190614abd565b905083611d418383614a71565b1015611ddb5760405162461bcd60e51b815260206004820152604d60248201527f5661726961626c655265776172647353747261746567793a3a456d657267656e60448201527f6379207769746864726177206d696e696d756d2072657475726e20616d6f756e60648201527f74206e6f74207265616368656400000000000000000000000000000000000000608482015260a401610ccb565b7fc7606d21ac05cd309191543e409f0845c016120563783d70e4f41419dc0ef234611e04611298565b6002546040805192835260208301919091520160405180910390a1600c5460ff161515600103611e3857611e386000610fc8565b50505050565b611e483382612e5d565b50565b600080611e56611e8a565b9050600a548110611e8257612710600e5482611e729190614b1b565b611e7c9190614b50565b91505090565b600091505090565b600080611e95613383565b6040516370a0823160e01b81523060048201529091506000906001600160a01b037f000000000000000000000000000000000000000000000000000000000000000016906370a0823190602401602060405180830381865afa158015611eff573d6000803e3d6000fd5b505050506040513d601f19601f82011682018060405250810190611f239190614abd565b90507f00000000000000000000000000000000000000000000000000000000000000006001600160a01b03167f00000000000000000000000000000000000000000000000000000000000000006001600160a01b031603611f8b57611f884782614a88565b90505b60005b82518110156121c3576000838281518110611fab57611fab614ad6565b60200260200101516000015190507f00000000000000000000000000000000000000000000000000000000000000006001600160a01b0316816001600160a01b0316036120225783828151811061200457612004614ad6565b6020026020010151602001518361201b9190614a88565b92506121b0565b6001600160a01b038116156121b0576040516370a0823160e01b81523060048201526000906001600160a01b038316906370a0823190602401602060405180830381865afa158015612078573d6000803e3d6000fd5b505050506040513d601f19601f8201168201806040525081019061209c9190614abd565b905060008584815181106120b2576120b2614ad6565b602002602001015160200151826120c99190614a88565b90506000601060008887815181106120e3576120e3614ad6565b602090810291909101810151516001600160a01b0390811683529082019290925260400160002060010154169050811580159061212857506001600160a01b03811615155b156121ac5761219f82857f000000000000000000000000000000000000000000000000000000000000000084601060008d8c8151811061216a5761216a614ad6565b6020026020010151600001516001600160a01b03166001600160a01b0316815260200190815260200160002060020154613432565b6121a99087614a88565b95505b5050505b50806121bb81614aec565b915050611f8e565b5092915050565b6006546001600160a01b031633146122125760405162461bcd60e51b81526020600482018190526024820152600080516020614e2e8339815191526044820152606401610ccb565b801561221d57600080fd5b600d5460408051918252602082018390527f3cc372f330f95ac9540626dc8a25f5bf21ba607215a5d58304cb804d446f104a910160405180910390a1600d55565b6009546001600160a01b031633146122af5760405162461bcd60e51b81526020600482015260146024820152732cb0b5a9ba3930ba32b3bc9d1d37b7363ca232bb60611b6044820152606401610ccb565b6122ba83838361309b565b505050565b4284101561230f5760405162461bcd60e51b815260206004820152600f60248201527f7065726d69743a3a6578706972656400000000000000000000000000000000006044820152606401610ccb565b6001600160a01b038716600090815260056020526040812080547f6e71edae12b1b97f4d1f60370fef10105fa2faae0126114a169c64845d6126c9918a918a918a91908661235c83614aec565b909155506040805160208101969096526001600160a01b0394851690860152929091166060840152608083015260a082015260c0810186905260e0016040516020818303038152906040528051906020012090506123bd8882868686613502565b6123c8888888612931565b5050505050505050565b60006123dc611298565b6002546123e99190614b1b565b6000036123f4575090565b6123fc611298565b6002546124099084614b1b565b610b3c9190614b50565b6006546001600160a01b0316331461245b5760405162461bcd60e51b81526020600482018190526024820152600080516020614e2e8339815191526044820152606401610ccb565b600b5460408051918252602082018390527fa5dae50539d56dfe1fb5273d883b0c39bc76750a25d036fc5fbd09ad8fd5f57f910160405180910390a1600b55565b601181815481106124ac57600080fd5b6000918252602090912001546001600160a01b0316905081565b60006124d0611298565b6002546124dd9190614b1b565b6000036124ec57506000919050565b6002546124f7611298565b6124099084614b1b565b60007f8b73c3c69bb8fe3d512ecc4cf759cc79239f7b179b0ffacaa9a75d522b39400f60001b60006040516125369190614b64565b6040519081900390207fc89efdaa54c0f20c7adf612882df0950f5a951637e0307cdcb4c672f298b8bc646604080516020810195909552840192909252606083015260808201523060a082015260c00160405160208183030381529060405280519060200120905090565b6006546001600160a01b031633146125e95760405162461bcd60e51b81526020600482018190526024820152600080516020614e2e8339815191526044820152606401610ccb565b6001600160a01b0381166126655760405162461bcd60e51b815260206004820152602660248201527f4f776e61626c653a206e6577206f776e657220697320746865207a65726f206160448201527f64647265737300000000000000000000000000000000000000000000000000006064820152608401610ccb565b6006546040516001600160a01b038084169216907f8be0079c531659141344cd1fd0a4f28419497f9722a3daafe3b4186f6b6457e090600090a3600680546001600160a01b0319166001600160a01b0392909216919091179055565b3233146127105760405162461bcd60e51b815260206004820152601460248201527f59616b53747261746567793a3a6f6e6c79454f410000000000000000000000006044820152606401610ccb565b61271a6000613662565b565b6000836001600160a01b0316630dfe16816040518163ffffffff1660e01b8152600401602060405180830381865afa15801561275c573d6000803e3d6000fd5b505050506040513d601f19601f820116820180604052508101906127809190614bff565b6001600160a01b0316836001600160a01b031614806128115750836001600160a01b031663d21220a76040518163ffffffff1660e01b8152600401602060405180830381865afa1580156127d8573d6000803e3d6000fd5b505050506040513d601f19601f820116820180604052508101906127fc9190614bff565b6001600160a01b0316836001600160a01b0316145b801561290b5750836001600160a01b0316630dfe16816040518163ffffffff1660e01b8152600401602060405180830381865afa158015612856573d6000803e3d6000fd5b505050506040513d601f19601f8201168201806040525081019061287a9190614bff565b6001600160a01b0316826001600160a01b0316148061290b5750836001600160a01b031663d21220a76040518163ffffffff1660e01b8152600401602060405180830381865afa1580156128d2573d6000803e3d6000fd5b505050506040513d601f19601f820116820180604052508101906128f69190614bff565b6001600160a01b0316826001600160a01b0316145b80156129295750816001600160a01b0316836001600160a01b031614155b949350505050565b6001600160a01b0383166129875760405162461bcd60e51b815260206004820152601c60248201527f5f617070726f76653a3a6f776e6572207a65726f2061646472657373000000006044820152606401610ccb565b6001600160a01b0382166129dd5760405162461bcd60e51b815260206004820152601e60248201527f5f617070726f76653a3a7370656e646572207a65726f206164647265737300006044820152606401610ccb565b6001600160a01b0383811660008181526003602090815260408083209487168084529482529182902085905590518481527f8c5be1e5ebec7d5bd14f71427d1e84f3dd0314c0f7b2291e5b200ac8c7c3b92591015b60405180910390a3505050565b600080612710612a4f8285614b1b565b610c3a9190614b50565b6001600160a01b038216612ad55760405162461bcd60e51b815260206004820152603460248201527f5f7472616e73666572546f6b656e733a2063616e6e6f74207472616e7366657260448201527f20746f20746865207a65726f20616464726573730000000000000000000000006064820152608401610ccb565b6001600160a01b038316600090815260046020526040902054612af9908290614a71565b6001600160a01b038085166000908152600460205260408082209390935590841681522054612b29908290614a88565b6001600160a01b0380841660008181526004602052604090819020939093559151908516907fddf252ad1be2c89b69c2b068fc378daa952ba7f163c4a11628f55a4df523b3ef90612a329085815260200190565b6000610b3c7f00000000000000000000000000000000000000000000000000000000000000007f00000000000000000000000000000000000000000000000000000000000000008461382f565b6013546040516305d38c7160e21b81526000600482018190527f00000000000000000000000000000000000000000000000000000000000000006024830152916001600160a01b03169063174e31c490604401600060405180830381600087803b158015612c3757600080fd5b505af1158015612c4b573d6000803e3d6000fd5b50506013546014546040517fa530882e0000000000000000000000000000000000000000000000000000000081527f00000000000000000000000000000000000000000000000000000000000000006004820152600060248201526001600160a01b037f0000000000000000000000000000000000000000000000000000000000000000811660448301527f0000000000000000000000000000000000000000000000000000000000000000811660648301527f00000000000000000000000000000000000000000000000000000000000000008116608483015260a482019290925260c481018790529116925063a530882e915060e4016020604051808303816000875af1158015611325573d6000803e3d6000fd5b604080516001600160a01b038416602482015260448082018490528251808303909101815260649091019091526020810180517bffffffffffffffffffffffffffffffffffffffffffffffffffffffff1663a9059cbb60e01b1790526122ba908490613a86565b6001600160a01b038216600090815260046020526040902054612ded908290614a71565b6001600160a01b038316600090815260046020526040902055600254612e14908290614a71565b6002556040518181526000906001600160a01b038416907fddf252ad1be2c89b69c2b068fc378daa952ba7f163c4a11628f55a4df523b3ef906020015b60405180910390a35050565b600c5460ff161515600114612eda5760405162461bcd60e51b815260206004820152602a60248201527f5661726961626c655265776172647353747261746567793a3a4465706f73697460448201527f732064697361626c6564000000000000000000000000000000000000000000006064820152608401610ccb565b600b5415612f04576000612eec611e8a565b9050600b54811115612f0257612f026001613662565b505b6040517f23b872dd000000000000000000000000000000000000000000000000000000008152336004820152306024820152604481018290527f00000000000000000000000000000000000000000000000000000000000000006001600160a01b0316906323b872dd906064016020604051808303816000875af1158015612f90573d6000803e3d6000fd5b505050506040513d601f19601f82011682018060405250810190612fb49190614aa0565b6130265760405162461bcd60e51b815260206004820152603660248201527f5661726961626c655265776172647353747261746567793a3a4465706f73697460448201527f20746f6b656e207472616e73666572206661696c6564000000000000000000006064820152608401610ccb565b600061303182612b7d565b905061304983613044610a028486614a71565b613b6b565b6130538282613bf1565b826001600160a01b03167fe1fffcc4923d04b559f4d29a8bfc6cda04eb5b0d3c460751c2402c5c5cc9109c8360405161308e91815260200190565b60405180910390a2505050565b7f00000000000000000000000000000000000000000000000000000000000000006001600160a01b0316836001600160a01b031614613173576130ff82847f000000000000000000000000000000000000000000000000000000000000000061271c565b613173576040805162461bcd60e51b81526020600482015260248101919091527f5661726961626c655265776172647353747261746567793a3a5377617020706160448201527f697220646f6573206e6f7420636f6e7461696e2072657761726420746f6b656e6064820152608401610ccb565b604080516060810182526001600160a01b03808616808352858216602080850191825284860187815260008481526010909252958120945185549085166001600160a01b03199182161786559151600180870180549290961691841691909117909455945160029094019390935560118054808401825594527f31ecc21a745e3968a04e9570e4425bc18fa8019c68028196b546d1669c200c689093018054909216909217905560125461322691614a88565b601255604080516001600160a01b038086168252841660208201527f916e172c080569186aa7ea048268267257cf7cc49505908863f747bca8620f80910160405180910390a1505050565b6013546040517f02eb6f7e0000000000000000000000000000000000000000000000000000000081527f00000000000000000000000000000000000000000000000000000000000000006004820152600060248201526001600160a01b037f0000000000000000000000000000000000000000000000000000000000000000811660448301527f0000000000000000000000000000000000000000000000000000000000000000811660648301527f000000000000000000000000000000000000000000000000000000000000000081166084830152909116906302eb6f7e9060a4015b600060405180830381600087803b15801561336f57600080fd5b505af1158015611e38573d6000803e3d6000fd5b6013546040517f7dcb2abf0000000000000000000000000000000000000000000000000000000081527f000000000000000000000000000000000000000000000000000000000000000060048201526060916001600160a01b031690637dcb2abf90602401600060405180830381865afa158015613405573d6000803e3d6000fd5b505050506040513d6000823e601f3d908101601f1916820160405261342d9190810190614c8c565b905090565b60008061343f8686613c71565b509050600080856001600160a01b0316630902f1ac6040518163ffffffff1660e01b8152600401606060405180830381865afa158015613483573d6000803e3d6000fd5b505050506040513d601f19601f820116820180604052508101906134a79190614d75565b5091509150876001600160a01b0316836001600160a01b0316146134c757905b6134f389836dffffffffffffffffffffffffffff16836dffffffffffffffffffffffffffff1688613ca2565b93505050505b95945050505050565b600061350c612501565b6040517f1901000000000000000000000000000000000000000000000000000000000000602082015260228101919091526042810186905260620160408051601f198184030181528282528051602091820120600080855291840180845281905260ff88169284019290925260608301869052608083018590529092509060019060a0016020604051602081039080840390855afa1580156135b2573d6000803e3d6000fd5b5050604051601f1901519150506001600160a01b038116158015906135e85750866001600160a01b0316816001600160a01b0316145b6136595760405162461bcd60e51b8152602060048201526024808201527f417263683a3a76616c69646174655369673a20696e76616c6964207369676e6160448201527f74757265000000000000000000000000000000000000000000000000000000006064820152608401610ccb565b50505050505050565b61366a613cfc565b6000613674613d53565b9050816136f357600a548110156136f35760405162461bcd60e51b815260206004820152603060248201527f5661726961626c655265776172647353747261746567793a3a5265696e76657360448201527f7420616d6f756e7420746f6f206c6f77000000000000000000000000000000006064820152608401610ccb565b6000612710600f54836137069190614b1b565b6137109190614b50565b9050801561375257600954613752906001600160a01b037f00000000000000000000000000000000000000000000000000000000000000008116911683612d62565b6000612710600e54846137659190614b1b565b61376f9190614b50565b905080156137ab576137ab6001600160a01b037f0000000000000000000000000000000000000000000000000000000000000000163383612d62565b60006137ca826137bb8587614a71565b6137c59190614a71565b61404b565b905060006137d782612b7d565b90506137e38282613bf1565b7fc7606d21ac05cd309191543e409f0845c016120563783d70e4f41419dc0ef23461380c611298565b6002546040805192835260208301919091520160405180910390a1505050505050565b6000612929846001600160a01b03166355af008a6040518163ffffffff1660e01b8152600401602060405180830381865afa158015613872573d6000803e3d6000fd5b505050506040513d601f19601f820116820180604052508101906138969190614abd565b856001600160a01b0316637727c6556040518163ffffffff1660e01b8152600401602060405180830381865afa1580156138d4573d6000803e3d6000fd5b505050506040513d601f19601f820116820180604052508101906138f89190614abd565b866001600160a01b031663a76f54d26040518163ffffffff1660e01b8152600401602060405180830381865afa158015613936573d6000803e3d6000fd5b505050506040513d601f19601f8201168201806040525081019061395a9190614abd565b876001600160a01b0316637a1c36d16040518163ffffffff1660e01b8152600401602060405180830381865afa158015613998573d6000803e3d6000fd5b505050506040513d601f19601f820116820180604052508101906139bc9190614abd565b876001600160a01b031663961be3916040518163ffffffff1660e01b8152600401602060405180830381865afa1580156139fa573d6000803e3d6000fd5b505050506040513d601f19601f82011682018060405250810190613a1e9190614abd565b886001600160a01b031663705727b56040518163ffffffff1660e01b8152600401602060405180830381865afa158015613a5c573d6000803e3d6000fd5b505050506040513d601f19601f82011682018060405250810190613a809190614abd565b88614116565b6000613adb826040518060400160405280602081526020017f5361666545524332303a206c6f772d6c6576656c2063616c6c206661696c6564815250856001600160a01b03166141cc9092919063ffffffff16565b8051909150156122ba5780806020019051810190613af99190614aa0565b6122ba5760405162461bcd60e51b815260206004820152602a60248201527f5361666545524332303a204552433230206f7065726174696f6e20646964206e60448201527f6f742073756363656564000000000000000000000000000000000000000000006064820152608401610ccb565b80600254613b799190614a88565b6002556001600160a01b038216600090815260046020526040902054613ba0908290614a88565b6001600160a01b0383166000818152600460205260408082209390935591519091907fddf252ad1be2c89b69c2b068fc378daa952ba7f163c4a11628f55a4df523b3ef90612e519085815260200190565b60008211613c675760405162461bcd60e51b815260206004820152602d60248201527f5661726961626c655265776172647353747261746567793a3a5374616b65206160448201527f6d6f756e7420746f6f206c6f77000000000000000000000000000000000000006064820152608401610ccb565b610d7c82826141db565b600080826001600160a01b0316846001600160a01b031610613c94578284613c97565b83835b915091509250929050565b600080613cb1836103e8614a71565b613cbb9087614b1b565b90506000613cc98583614b1b565b9050600082613cda886103e8614b1b565b613ce49190614a88565b9050613cf08183614b50565b98975050505050505050565b6013546040516305d38c7160e21b8152600060048201527f000000000000000000000000000000000000000000000000000000000000000060248201526001600160a01b039091169063174e31c490604401613355565b6040516370a0823160e01b815230600482015260009081906001600160a01b037f000000000000000000000000000000000000000000000000000000000000000016906370a0823190602401602060405180830381865afa158015613dbc573d6000803e3d6000fd5b505050506040513d601f19601f82011682018060405250810190613de09190614abd565b60115490915060005b8181101561404357600060118281548110613e0657613e06614ad6565b6000918252602090912001546001600160a01b0390811691507f0000000000000000000000000000000000000000000000000000000000000000168103613f3357478015613ed1577f00000000000000000000000000000000000000000000000000000000000000006001600160a01b031663d0e30db0826040518263ffffffff1660e01b81526004016000604051808303818588803b158015613ea957600080fd5b505af1158015613ebd573d6000803e3d6000fd5b50505050508085613ece9190614a88565b94505b7f00000000000000000000000000000000000000000000000000000000000000006001600160a01b03167f00000000000000000000000000000000000000000000000000000000000000006001600160a01b031603613f31575050614031565b505b6040516370a0823160e01b81523060048201526000906001600160a01b038316906370a0823190602401602060405180830381865afa158015613f7a573d6000803e3d6000fd5b505050506040513d601f19601f82011682018060405250810190613f9e9190614abd565b9050801561402e576001600160a01b0380831660009081526010602052604090206001015416801561402c5761401f82847f00000000000000000000000000000000000000000000000000000000000000008460106000896001600160a01b03166001600160a01b031681526020019081526020016000206002015461433c565b6140299087614a88565b95505b505b50505b8061403b81614aec565b915050613de9565b509092915050565b60007f00000000000000000000000000000000000000000000000000000000000000006001600160a01b03167f00000000000000000000000000000000000000000000000000000000000000006001600160a01b0316036140aa575090565b610b3c827f00000000000000000000000000000000000000000000000000000000000000007f00000000000000000000000000000000000000000000000000000000000000007f00000000000000000000000000000000000000000000000000000000000000006144d9565b600082600003614128575060006141c1565b600061413485856144e9565b9050670de0b6b3a7640000811161414f5760009150506141c1565b600061416e61415e8587614a88565b6141688689614a88565b906144e9565b9050600061417f8b8b8b8b87614513565b905060006141908c8c8c8c87614513565b905061419c8783614581565b6141b0826141aa898b614a88565b90614581565b6141ba9190614a71565b9450505050505b979650505050505050565b606061292984846000856145a1565b601354614215906001600160a01b037f00000000000000000000000000000000000000000000000000000000000000008116911684612d62565b6013546040517f529ebc7d0000000000000000000000000000000000000000000000000000000081527f00000000000000000000000000000000000000000000000000000000000000006004820152600060248201526001600160a01b037f0000000000000000000000000000000000000000000000000000000000000000811660448301527f0000000000000000000000000000000000000000000000000000000000000000811660648301527f00000000000000000000000000000000000000000000000000000000000000008116608483015260a4820185905260c482018490529091169063529ebc7d9060e401600060405180830381600087803b15801561432057600080fd5b505af1158015614334573d6000803e3d6000fd5b505050505050565b6000806143498686613c71565b509050600080856001600160a01b0316630902f1ac6040518163ffffffff1660e01b8152600401606060405180830381865afa15801561438d573d6000803e3d6000fd5b505050506040513d601f19601f820116820180604052508101906143b19190614d75565b5091509150876001600160a01b0316836001600160a01b0316146143d157905b6000806144008b856dffffffffffffffffffffffffffff16856dffffffffffffffffffffffffffff168a613ca2565b9050896001600160a01b0316856001600160a01b03161461441d57905b6144316001600160a01b038b16898d612d62565b604080516000815260208101918290527f022c0d9f000000000000000000000000000000000000000000000000000000009091526001600160a01b0389169063022c0d9f906144899085908590309060248101614dc5565b600060405180830381600087803b1580156144a357600080fd5b505af11580156144b7573d6000803e3d6000fd5b505050508181116144c857816144ca565b805b9b9a5050505050505050505050565b60006134f985858585600361433c565b6000816144f7600282614b50565b614509670de0b6b3a764000086614b1b565b612a4f9190614a88565b60008282101561452e576145278285614a71565b90506134f9565b6145276b033b2e3c9fd0803ce8000000670de0b6b3a764000061456688826145568589614b1b565b6145609190614b50565b906146de565b6145709190614b1b565b61457a9190614b50565b87906144e9565b6000670de0b6b3a7640000614597600282614b50565b6145098486614b1b565b6060824710156146195760405162461bcd60e51b815260206004820152602660248201527f416464726573733a20696e73756666696369656e742062616c616e636520666f60448201527f722063616c6c00000000000000000000000000000000000000000000000000006064820152608401610ccb565b6001600160a01b0385163b6146705760405162461bcd60e51b815260206004820152601d60248201527f416464726573733a2063616c6c20746f206e6f6e2d636f6e74726163740000006044820152606401610ccb565b600080866001600160a01b0316858760405161468c9190614dfd565b60006040518083038185875af1925050503d80600081146146c9576040519150601f19603f3d011682016040523d82523d6000602084013e6146ce565b606091505b50915091506141c1828286614757565b60006146eb600283614e19565b600003614704576b033b2e3c9fd0803ce8000000614706565b825b9050614713600283614b50565b91505b8115610b3c576147268384614790565b9250614733600283614e19565b15614745576147428184614790565b90505b614750600283614b50565b9150614716565b60608315614766575081610c3a565b8251156147765782518084602001fd5b8160405162461bcd60e51b8152600401610ccb9190614802565b60006b033b2e3c9fd0803ce8000000614597600282614b50565b60005b838110156147c55781810151838201526020016147ad565b83811115611e385750506000910152565b600081518084526147ee8160208601602086016147aa565b601f01601f19169290920160200192915050565b602081526000610c3a60208301846147d6565b6001600160a01b0381168114611e4857600080fd5b6000806040838503121561483d57600080fd5b823561484881614815565b946020939093013593505050565b60006020828403121561486857600080fd5b5035919050565b60008060006060848603121561488457600080fd5b833561488f81614815565b9250602084013561489f81614815565b929592945050506040919091013590565b600080604083850312156148c357600080fd5b82356148ce81614815565b915060208301356148de81614815565b809150509250929050565b6000602082840312156148fb57600080fd5b8135610c3a81614815565b803560ff8116811461491757600080fd5b919050565b600080600080600060a0868803121561493457600080fd5b853594506020860135935061494b60408701614906565b94979396509394606081013594506080013592915050565b8015158114611e4857600080fd5b60006020828403121561498357600080fd5b8135610c3a81614963565b600080604083850312156149a157600080fd5b8235915060208301356148de81614963565b600080600080600080600060e0888a0312156149ce57600080fd5b87356149d981614815565b965060208801356149e981614815565b95506040880135945060608801359350614a0560808901614906565b925060a0880135915060c0880135905092959891949750929550565b600181811c90821680614a3557607f821691505b602082108103614a5557634e487b7160e01b600052602260045260246000fd5b50919050565b634e487b7160e01b600052601160045260246000fd5b600082821015614a8357614a83614a5b565b500390565b60008219821115614a9b57614a9b614a5b565b500190565b600060208284031215614ab257600080fd5b8151610c3a81614963565b600060208284031215614acf57600080fd5b5051919050565b634e487b7160e01b600052603260045260246000fd5b600060018201614afe57614afe614a5b565b5060010190565b634e487b7160e01b600052603160045260246000fd5b6000816000190483118215151615614b3557614b35614a5b565b500290565b634e487b7160e01b600052601260045260246000fd5b600082614b5f57614b5f614b3a565b500490565b600080835481600182811c915080831680614b8057607f831692505b60208084108203614b9f57634e487b7160e01b86526022600452602486fd5b818015614bb35760018114614bc457614bf1565b60ff19861689528489019650614bf1565b60008a81526020902060005b86811015614be95781548b820152908501908301614bd0565b505084890196505b509498975050505050505050565b600060208284031215614c1157600080fd5b8151610c3a81614815565b634e487b7160e01b600052604160045260246000fd5b6040805190810167ffffffffffffffff81118282101715614c5557614c55614c1c565b60405290565b604051601f8201601f1916810167ffffffffffffffff81118282101715614c8457614c84614c1c565b604052919050565b60006020808385031215614c9f57600080fd5b825167ffffffffffffffff80821115614cb757600080fd5b818501915085601f830112614ccb57600080fd5b815181811115614cdd57614cdd614c1c565b614ceb848260051b01614c5b565b818152848101925060069190911b830184019087821115614d0b57600080fd5b928401925b818410156141c15760408489031215614d295760008081fd5b614d31614c32565b8451614d3c81614815565b81528486015186820152835260409093019291840191614d10565b80516dffffffffffffffffffffffffffff8116811461491757600080fd5b600080600060608486031215614d8a57600080fd5b614d9384614d57565b9250614da160208501614d57565b9150604084015163ffffffff81168114614dba57600080fd5b809150509250925092565b8481528360208201526001600160a01b0383166040820152608060608201526000614df360808301846147d6565b9695505050505050565b60008251614e0f8184602087016147aa565b9190910192915050565b600082614e2857614e28614b3a565b50069056fe4f776e61626c653a2063616c6c6572206973206e6f7420746865206f776e6572a264697066735822122088404f884012c1c0e773cd9e9dae87847a932e77abfb80fa324419ea0b233e2a64736f6c634300080d00334f776e61626c653a2063616c6c6572206973206e6f7420746865206f776e65728be0079c531659141344cd1fd0a4f28419497f9722a3daafe3b4186f6b6457e0",
  "devdoc": {
    "kind": "dev",
    "methods": {
      "allowDepositor(address)": {
        "params": {
          "depositor": "address"
        }
      },
      "allowance(address,address)": {
        "params": {
          "account": "The address of the account holding the funds",
          "spender": "The address of the account spending the funds"
        },
        "returns": {
          "_0": "The number of tokens approved"
        }
      },
      "approve(address,uint256)": {
        "details": "This will overwrite the approval amount for `spender` and is subject to issues noted [here](https://eips.ethereum.org/EIPS/eip-20#approve) It is recommended to use increaseAllowance and decreaseAllowance instead",
        "params": {
          "amount": "The number of tokens that are approved (2^256-1 means infinite)",
          "spender": "The address of the account which may transfer tokens"
        },
        "returns": {
          "_0": "Whether or not the approval succeeded"
        }
      },
      "balanceOf(address)": {
        "params": {
          "account": "The address of the account to get the balance of"
        },
        "returns": {
          "_0": "The number of tokens held"
        }
      },
      "checkReward()": {
        "returns": {
          "_0": "reward tokens"
        }
      },
      "deposit(uint256)": {
        "params": {
          "_amount": "Amount of tokens to deposit"
        }
      },
      "depositWithPermit(uint256,uint256,uint8,bytes32,bytes32)": {
        "params": {
          "_amount": "Amount of tokens to deposit",
          "_deadline": "The time at which to expire the signature",
          "_r": "Half of the ECDSA signature pair",
          "_s": "Half of the ECDSA signature pair",
          "_v": "The recovery byte of the signature"
        }
      },
      "estimateDeployedBalance()": {
        "returns": {
          "_0": "deposit tokens after withdraw fee"
        }
      },
      "estimateReinvestReward()": {
        "returns": {
          "_0": "reward tokens"
        }
      },
      "getDepositTokensForShares(uint256)": {
        "params": {
          "amount": "receipt tokens"
        },
        "returns": {
          "_0": "deposit tokens"
        }
      },
      "getDomainSeparator()": {
        "returns": {
          "_0": "Separator"
        }
      },
      "getSharesForDepositTokens(uint256)": {
        "details": "If contract is empty, use 1:1 ratioCould return zero shares for very low amounts of deposit tokens",
        "params": {
          "amount": "deposit tokens"
        },
        "returns": {
          "_0": "receipt tokens"
        }
      },
      "owner()": {
        "details": "Returns the address of the current owner."
      },
      "permit(address,address,uint256,uint256,uint8,bytes32,bytes32)": {
        "params": {
          "deadline": "The time at which to expire the signature",
          "owner": "The address to approve from",
          "r": "Half of the ECDSA signature pair",
          "s": "Half of the ECDSA signature pair",
          "spender": "The address to be approved",
          "v": "The recovery byte of the signature",
          "value": "The number of tokens that are approved (2^256-1 means infinite)"
        }
      },
      "recoverAVAX(uint256)": {
        "params": {
          "amount": "amount"
        }
      },
      "recoverERC20(address,uint256)": {
        "params": {
          "tokenAddress": "token address",
          "tokenAmount": "amount to recover"
        }
      },
      "removeDepositor(address)": {
        "params": {
          "depositor": "address"
        }
      },
      "renounceOwnership()": {
        "details": "Leaves the contract without owner. It will not be possible to call `onlyOwner` functions anymore. Can only be called by the current owner. NOTE: Renouncing ownership will leave the contract without an owner, thereby removing any functionality that is only available to the owner."
      },
      "revokeAllowance(address,address)": {
        "params": {
          "spender": "address",
          "token": "address"
        }
      },
      "totalDeposits()": {
        "returns": {
          "_0": "total deposits available on the contract"
        }
      },
      "transfer(address,uint256)": {
        "params": {
          "amount": "The number of tokens to transfer",
          "dst": "The address of the destination account"
        },
        "returns": {
          "_0": "Whether or not the transfer succeeded"
        }
      },
      "transferFrom(address,address,uint256)": {
        "params": {
          "amount": "The number of tokens to transfer",
          "dst": "The address of the destination account",
          "src": "The address of the source account"
        },
        "returns": {
          "_0": "Whether or not the transfer succeeded"
        }
      },
      "transferOwnership(address)": {
        "details": "Transfers ownership of the contract to a new account (`newOwner`). Can only be called by the current owner."
      },
      "updateAdminFee(uint256)": {
        "details": "Deprecated; Kept for compatibility",
        "params": {
          "newValue": "fee in BIPS; required to be 0"
        }
      },
      "updateDepositsEnabled(bool)": {
        "params": {
          "newValue": "bool"
        }
      },
      "updateDevAddr(address)": {
        "params": {
          "newValue": "address"
        }
      },
      "updateDevFee(uint256)": {
        "params": {
          "newValue": "fee in BIPS"
        }
      },
      "updateMaxSwapSlippage(uint256)": {
        "details": "Function name matches interface for FeeCollector"
      },
      "updateMaxTokensToDepositWithoutReinvest(uint256)": {
        "params": {
          "newValue": "threshold"
        }
      },
      "updateMinTokensToReinvest(uint256)": {
        "params": {
          "newValue": "threshold"
        }
      },
      "updateReinvestReward(uint256)": {
        "params": {
          "newValue": "fee in BIPS"
        }
      }
    },
    "version": 1
  },
  "userdoc": {
    "kind": "user",
    "methods": {
      "allowDepositor(address)": {
        "notice": "Add an allowed depositor"
      },
      "allowance(address,address)": {
        "notice": "Get the number of tokens `spender` is approved to spend on behalf of `account`"
      },
      "approve(address,uint256)": {
        "notice": "Approve `spender` to transfer up to `amount` from `src`"
      },
      "balanceOf(address)": {
        "notice": "Get the number of tokens held by the `account`"
      },
      "checkReward()": {
        "notice": "Reward tokens available to strategy, including balance"
      },
      "deposit(uint256)": {
        "notice": "Deposit tokens to receive receipt tokens"
      },
      "depositWithPermit(uint256,uint256,uint8,bytes32,bytes32)": {
        "notice": "Deposit using Permit"
      },
      "estimateDeployedBalance()": {
        "notice": "Estimate recoverable balance after withdraw fee"
      },
      "estimateReinvestReward()": {
        "notice": "Estimate reinvest reward"
      },
      "getDepositTokensForShares(uint256)": {
        "notice": "Calculate deposit tokens for a given amount of receipt tokens"
      },
      "getDomainSeparator()": {
        "notice": "EIP-712 Domain separator"
      },
      "getSharesForDepositTokens(uint256)": {
        "notice": "Calculate receipt tokens for a given amount of deposit tokens"
      },
      "permit(address,address,uint256,uint256,uint8,bytes32,bytes32)": {
        "notice": "Triggers an approval from owner to spender"
      },
      "recoverAVAX(uint256)": {
        "notice": "Recover AVAX from contract"
      },
      "recoverERC20(address,uint256)": {
        "notice": "Recover ERC20 from contract"
      },
      "reinvest()": {
        "notice": "Reinvest reward tokens into deposit tokens"
      },
      "removeDepositor(address)": {
        "notice": "Remove an allowed depositor"
      },
      "revokeAllowance(address,address)": {
        "notice": "Revoke token allowance"
      },
      "totalDeposits()": {
        "notice": "This function returns a snapshot of last available quotes"
      },
      "transfer(address,uint256)": {
        "notice": "Transfer `amount` tokens from `msg.sender` to `dst`"
      },
      "transferFrom(address,address,uint256)": {
        "notice": "Transfer `amount` tokens from `src` to `dst`"
      },
      "updateAdminFee(uint256)": {
        "notice": "Update admin fee"
      },
      "updateDepositsEnabled(bool)": {
        "notice": "Enable/disable deposits"
      },
      "updateDevAddr(address)": {
        "notice": "Update devAddr"
      },
      "updateDevFee(uint256)": {
        "notice": "Update developer fee"
      },
      "updateMaxSwapSlippage(uint256)": {
        "notice": "Update max slippage for withdrawal"
      },
      "updateMaxTokensToDepositWithoutReinvest(uint256)": {
        "notice": "Update reinvest max threshold before a deposit"
      },
      "updateMinTokensToReinvest(uint256)": {
        "notice": "Update reinvest min threshold"
      },
      "updateReinvestReward(uint256)": {
        "notice": "Update reinvest reward"
      }
    },
    "version": 1
  },
  "storageLayout": {
    "storage": [
      {
        "astId": 552,
        "contract": "contracts/strategies/avalanche/platypus/PlatypusStrategy.sol:PlatypusStrategy",
        "label": "name",
        "offset": 0,
        "slot": "0",
        "type": "t_string_storage"
      },
      {
        "astId": 555,
        "contract": "contracts/strategies/avalanche/platypus/PlatypusStrategy.sol:PlatypusStrategy",
        "label": "symbol",
        "offset": 0,
        "slot": "1",
        "type": "t_string_storage"
      },
      {
        "astId": 560,
        "contract": "contracts/strategies/avalanche/platypus/PlatypusStrategy.sol:PlatypusStrategy",
        "label": "totalSupply",
        "offset": 0,
        "slot": "2",
        "type": "t_uint256"
      },
      {
        "astId": 566,
        "contract": "contracts/strategies/avalanche/platypus/PlatypusStrategy.sol:PlatypusStrategy",
        "label": "allowances",
        "offset": 0,
        "slot": "3",
        "type": "t_mapping(t_address,t_mapping(t_address,t_uint256))"
      },
      {
        "astId": 570,
        "contract": "contracts/strategies/avalanche/platypus/PlatypusStrategy.sol:PlatypusStrategy",
        "label": "balances",
        "offset": 0,
        "slot": "4",
        "type": "t_mapping(t_address,t_uint256)"
      },
      {
        "astId": 586,
        "contract": "contracts/strategies/avalanche/platypus/PlatypusStrategy.sol:PlatypusStrategy",
        "label": "nonces",
        "offset": 0,
        "slot": "5",
        "type": "t_mapping(t_address,t_uint256)"
      },
      {
        "astId": 8040,
        "contract": "contracts/strategies/avalanche/platypus/PlatypusStrategy.sol:PlatypusStrategy",
        "label": "_owner",
        "offset": 0,
        "slot": "6",
        "type": "t_address"
      },
      {
        "astId": 8149,
        "contract": "contracts/strategies/avalanche/platypus/PlatypusStrategy.sol:PlatypusStrategy",
        "label": "numberOfAllowedDepositors",
        "offset": 0,
        "slot": "7",
        "type": "t_uint256"
      },
      {
        "astId": 8153,
        "contract": "contracts/strategies/avalanche/platypus/PlatypusStrategy.sol:PlatypusStrategy",
        "label": "allowedDepositors",
        "offset": 0,
        "slot": "8",
        "type": "t_mapping(t_address,t_bool)"
      },
      {
        "astId": 1955,
        "contract": "contracts/strategies/avalanche/platypus/PlatypusStrategy.sol:PlatypusStrategy",
        "label": "devAddr",
        "offset": 0,
        "slot": "9",
        "type": "t_address"
      },
      {
        "astId": 1957,
        "contract": "contracts/strategies/avalanche/platypus/PlatypusStrategy.sol:PlatypusStrategy",
        "label": "MIN_TOKENS_TO_REINVEST",
        "offset": 0,
        "slot": "10",
        "type": "t_uint256"
      },
      {
        "astId": 1959,
        "contract": "contracts/strategies/avalanche/platypus/PlatypusStrategy.sol:PlatypusStrategy",
        "label": "MAX_TOKENS_TO_DEPOSIT_WITHOUT_REINVEST",
        "offset": 0,
        "slot": "11",
        "type": "t_uint256"
      },
      {
        "astId": 1961,
        "contract": "contracts/strategies/avalanche/platypus/PlatypusStrategy.sol:PlatypusStrategy",
        "label": "DEPOSITS_ENABLED",
        "offset": 0,
        "slot": "12",
        "type": "t_bool"
      },
      {
        "astId": 1963,
        "contract": "contracts/strategies/avalanche/platypus/PlatypusStrategy.sol:PlatypusStrategy",
        "label": "ADMIN_FEE_BIPS",
        "offset": 0,
        "slot": "13",
        "type": "t_uint256"
      },
      {
        "astId": 1965,
        "contract": "contracts/strategies/avalanche/platypus/PlatypusStrategy.sol:PlatypusStrategy",
        "label": "REINVEST_REWARD_BIPS",
        "offset": 0,
        "slot": "14",
        "type": "t_uint256"
      },
      {
        "astId": 1967,
        "contract": "contracts/strategies/avalanche/platypus/PlatypusStrategy.sol:PlatypusStrategy",
        "label": "DEV_FEE_BIPS",
        "offset": 0,
        "slot": "15",
        "type": "t_uint256"
      },
      {
        "astId": 11904,
        "contract": "contracts/strategies/avalanche/platypus/PlatypusStrategy.sol:PlatypusStrategy",
        "label": "rewardSwapPairs",
        "offset": 0,
        "slot": "16",
        "type": "t_mapping(t_address,t_struct(RewardSwapPair)11899_storage)"
      },
      {
        "astId": 11907,
        "contract": "contracts/strategies/avalanche/platypus/PlatypusStrategy.sol:PlatypusStrategy",
        "label": "supportedRewards",
        "offset": 0,
        "slot": "17",
        "type": "t_array(t_address)dyn_storage"
      },
      {
        "astId": 11909,
        "contract": "contracts/strategies/avalanche/platypus/PlatypusStrategy.sol:PlatypusStrategy",
        "label": "rewardCount",
        "offset": 0,
        "slot": "18",
        "type": "t_uint256"
      },
      {
        "astId": 39864,
        "contract": "contracts/strategies/avalanche/platypus/PlatypusStrategy.sol:PlatypusStrategy",
        "label": "proxy",
        "offset": 0,
        "slot": "19",
        "type": "t_contract(IPlatypusVoterProxy)43498"
      },
      {
        "astId": 39868,
        "contract": "contracts/strategies/avalanche/platypus/PlatypusStrategy.sol:PlatypusStrategy",
        "label": "maxSlippage",
        "offset": 0,
        "slot": "20",
        "type": "t_uint256"
      }
    ],
    "types": {
      "t_address": {
        "encoding": "inplace",
        "label": "address",
        "numberOfBytes": "20"
      },
      "t_array(t_address)dyn_storage": {
        "base": "t_address",
        "encoding": "dynamic_array",
        "label": "address[]",
        "numberOfBytes": "32"
      },
      "t_bool": {
        "encoding": "inplace",
        "label": "bool",
        "numberOfBytes": "1"
      },
      "t_contract(IPlatypusVoterProxy)43498": {
        "encoding": "inplace",
        "label": "contract IPlatypusVoterProxy",
        "numberOfBytes": "20"
      },
      "t_mapping(t_address,t_bool)": {
        "encoding": "mapping",
        "key": "t_address",
        "label": "mapping(address => bool)",
        "numberOfBytes": "32",
        "value": "t_bool"
      },
      "t_mapping(t_address,t_mapping(t_address,t_uint256))": {
        "encoding": "mapping",
        "key": "t_address",
        "label": "mapping(address => mapping(address => uint256))",
        "numberOfBytes": "32",
        "value": "t_mapping(t_address,t_uint256)"
      },
      "t_mapping(t_address,t_struct(RewardSwapPair)11899_storage)": {
        "encoding": "mapping",
        "key": "t_address",
        "label": "mapping(address => struct VariableRewardsStrategy.RewardSwapPair)",
        "numberOfBytes": "32",
        "value": "t_struct(RewardSwapPair)11899_storage"
      },
      "t_mapping(t_address,t_uint256)": {
        "encoding": "mapping",
        "key": "t_address",
        "label": "mapping(address => uint256)",
        "numberOfBytes": "32",
        "value": "t_uint256"
      },
      "t_string_storage": {
        "encoding": "bytes",
        "label": "string",
        "numberOfBytes": "32"
      },
      "t_struct(RewardSwapPair)11899_storage": {
        "encoding": "inplace",
        "label": "struct VariableRewardsStrategy.RewardSwapPair",
        "members": [
          {
            "astId": 11894,
            "contract": "contracts/strategies/avalanche/platypus/PlatypusStrategy.sol:PlatypusStrategy",
            "label": "reward",
            "offset": 0,
            "slot": "0",
            "type": "t_address"
          },
          {
            "astId": 11896,
            "contract": "contracts/strategies/avalanche/platypus/PlatypusStrategy.sol:PlatypusStrategy",
            "label": "swapPair",
            "offset": 0,
            "slot": "1",
            "type": "t_address"
          },
          {
            "astId": 11898,
            "contract": "contracts/strategies/avalanche/platypus/PlatypusStrategy.sol:PlatypusStrategy",
            "label": "swapFee",
            "offset": 0,
            "slot": "2",
            "type": "t_uint256"
          }
        ],
        "numberOfBytes": "96"
      },
      "t_uint256": {
        "encoding": "inplace",
        "label": "uint256",
        "numberOfBytes": "32"
      }
    }
  }
}