{
  "address": "0xE7ff20a6704bDab44B34cE6e6ef4776898Cc66bf",
  "abi": [
    {
      "inputs": [
        {
          "internalType": "address",
          "name": "_platypusVoter",
          "type": "address"
        },
        {
          "internalType": "address",
          "name": "_devAddr",
          "type": "address"
        },
        {
          "internalType": "address",
          "name": "_gaugeVoter",
          "type": "address"
        },
        {
          "internalType": "address",
          "name": "_votingGauge",
          "type": "address"
        },
        {
          "internalType": "uint256",
          "name": "_maxSupportedMasterPlatypusVersion",
          "type": "uint256"
        },
        {
          "components": [
            {
              "internalType": "uint256",
              "name": "stakerFeeBips",
              "type": "uint256"
            },
            {
              "internalType": "uint256",
              "name": "boosterFeeBips",
              "type": "uint256"
            },
            {
              "internalType": "address",
              "name": "stakerFeeReceiver",
              "type": "address"
            },
            {
              "internalType": "address",
              "name": "boosterFeeReceiver",
              "type": "address"
            }
          ],
          "internalType": "struct PlatypusVoterProxy.FeeSettings",
          "name": "_feeSettings",
          "type": "tuple"
        }
      ],
      "stateMutability": "nonpayable",
      "type": "constructor"
    },
    {
      "inputs": [],
      "name": "PLATYPUS_NFT",
      "outputs": [
        {
          "internalType": "address",
          "name": "",
          "type": "address"
        }
      ],
      "stateMutability": "view",
      "type": "function"
    },
    {
      "inputs": [],
      "name": "PTP",
      "outputs": [
        {
          "internalType": "address",
          "name": "",
          "type": "address"
        }
      ],
      "stateMutability": "view",
      "type": "function"
    },
    {
      "inputs": [
        {
          "internalType": "address",
          "name": "_stakingContract",
          "type": "address"
        },
        {
          "internalType": "address",
          "name": "_strategy",
          "type": "address"
        }
      ],
      "name": "approveStrategy",
      "outputs": [],
      "stateMutability": "nonpayable",
      "type": "function"
    },
    {
      "inputs": [
        {
          "internalType": "address",
          "name": "",
          "type": "address"
        },
        {
          "internalType": "uint256",
          "name": "",
          "type": "uint256"
        }
      ],
      "name": "approvedStrategies",
      "outputs": [
        {
          "internalType": "address",
          "name": "",
          "type": "address"
        }
      ],
      "stateMutability": "view",
      "type": "function"
    },
    {
      "inputs": [],
      "name": "boosterFee",
      "outputs": [
        {
          "internalType": "uint256",
          "name": "",
          "type": "uint256"
        }
      ],
      "stateMutability": "view",
      "type": "function"
    },
    {
      "inputs": [],
      "name": "boosterFeeReceiver",
      "outputs": [
        {
          "internalType": "address",
          "name": "",
          "type": "address"
        }
      ],
      "stateMutability": "view",
      "type": "function"
    },
    {
      "inputs": [
        {
          "internalType": "address",
          "name": "",
          "type": "address"
        },
        {
          "internalType": "uint256",
          "name": "_pid",
          "type": "uint256"
        }
      ],
      "name": "claimReward",
      "outputs": [],
      "stateMutability": "nonpayable",
      "type": "function"
    },
    {
      "inputs": [
        {
          "internalType": "uint256",
          "name": "_pid",
          "type": "uint256"
        },
        {
          "internalType": "address",
          "name": "",
          "type": "address"
        },
        {
          "internalType": "address",
          "name": "_pool",
          "type": "address"
        },
        {
          "internalType": "address",
          "name": "_token",
          "type": "address"
        },
        {
          "internalType": "address",
          "name": "_asset",
          "type": "address"
        },
        {
          "internalType": "uint256",
          "name": "_amount",
          "type": "uint256"
        },
        {
          "internalType": "uint256",
          "name": "_depositFee",
          "type": "uint256"
        }
      ],
      "name": "deposit",
      "outputs": [],
      "stateMutability": "nonpayable",
      "type": "function"
    },
    {
      "inputs": [],
      "name": "devAddr",
      "outputs": [
        {
          "internalType": "address",
          "name": "",
          "type": "address"
        }
      ],
      "stateMutability": "view",
      "type": "function"
    },
    {
      "inputs": [
        {
          "internalType": "uint256",
          "name": "_pid",
          "type": "uint256"
        },
        {
          "internalType": "address",
          "name": "",
          "type": "address"
        },
        {
          "internalType": "address",
          "name": "_pool",
          "type": "address"
        },
        {
          "internalType": "address",
          "name": "_token",
          "type": "address"
        },
        {
          "internalType": "address",
          "name": "_asset",
          "type": "address"
        }
      ],
      "name": "emergencyWithdraw",
      "outputs": [],
      "stateMutability": "nonpayable",
      "type": "function"
    },
    {
      "inputs": [],
      "name": "gaugeVoter",
      "outputs": [
        {
          "internalType": "address",
          "name": "",
          "type": "address"
        }
      ],
      "stateMutability": "view",
      "type": "function"
    },
    {
      "inputs": [],
      "name": "maxSupportedMasterPlatypusVersion",
      "outputs": [
        {
          "internalType": "uint256",
          "name": "",
          "type": "uint256"
        }
      ],
      "stateMutability": "view",
      "type": "function"
    },
    {
      "inputs": [
        {
          "internalType": "address",
          "name": "_strategy",
          "type": "address"
        },
        {
          "internalType": "address",
          "name": "_from",
          "type": "address"
        }
      ],
      "name": "migrateStrategy",
      "outputs": [],
      "stateMutability": "nonpayable",
      "type": "function"
    },
    {
      "inputs": [
        {
          "internalType": "address",
          "name": "",
          "type": "address"
        },
        {
          "internalType": "uint256",
          "name": "_pid",
          "type": "uint256"
        }
      ],
      "name": "pendingRewards",
      "outputs": [
        {
          "internalType": "uint256",
          "name": "",
          "type": "uint256"
        },
        {
          "internalType": "uint256",
          "name": "bonusTokens",
          "type": "uint256"
        },
        {
          "internalType": "address",
          "name": "bonusTokenAddress",
          "type": "address"
        }
      ],
      "stateMutability": "view",
      "type": "function"
    },
    {
      "inputs": [
        {
          "internalType": "uint256",
          "name": "_pid",
          "type": "uint256"
        }
      ],
      "name": "pendingRewards",
      "outputs": [
        {
          "components": [
            {
              "internalType": "address",
              "name": "reward",
              "type": "address"
            },
            {
              "internalType": "uint256",
              "name": "amount",
              "type": "uint256"
            }
          ],
          "internalType": "struct PlatypusVoterProxy.Reward[]",
          "name": "",
          "type": "tuple[]"
        }
      ],
      "stateMutability": "view",
      "type": "function"
    },
    {
      "inputs": [],
      "name": "platypusVoter",
      "outputs": [
        {
          "internalType": "contract IPlatypusVoter",
          "name": "",
          "type": "address"
        }
      ],
      "stateMutability": "view",
      "type": "function"
    },
    {
      "inputs": [
        {
          "internalType": "address",
          "name": "",
          "type": "address"
        },
        {
          "internalType": "uint256",
          "name": "_pid",
          "type": "uint256"
        }
      ],
      "name": "poolBalance",
      "outputs": [
        {
          "internalType": "uint256",
          "name": "balance",
          "type": "uint256"
        }
      ],
      "stateMutability": "view",
      "type": "function"
    },
    {
      "inputs": [],
      "name": "reinvestFeeBips",
      "outputs": [
        {
          "internalType": "uint256",
          "name": "",
          "type": "uint256"
        }
      ],
      "stateMutability": "view",
      "type": "function"
    },
    {
      "inputs": [
        {
          "internalType": "uint256",
          "name": "_boosterFeeBips",
          "type": "uint256"
        }
      ],
      "name": "setBoosterFee",
      "outputs": [],
      "stateMutability": "nonpayable",
      "type": "function"
    },
    {
      "inputs": [
        {
          "internalType": "address",
          "name": "_boosterFeeReceiver",
          "type": "address"
        }
      ],
      "name": "setBoosterFeeReceiver",
      "outputs": [],
      "stateMutability": "nonpayable",
      "type": "function"
    },
    {
      "inputs": [
        {
          "internalType": "uint256",
          "name": "_stakerFeeBips",
          "type": "uint256"
        }
      ],
      "name": "setStakerFee",
      "outputs": [],
      "stateMutability": "nonpayable",
      "type": "function"
    },
    {
      "inputs": [
        {
          "internalType": "address",
          "name": "_stakerFeeReceiver",
          "type": "address"
        }
      ],
      "name": "setStakerFeeReceiver",
      "outputs": [],
      "stateMutability": "nonpayable",
      "type": "function"
    },
    {
      "inputs": [
        {
          "internalType": "uint256",
          "name": "id",
          "type": "uint256"
        }
      ],
      "name": "stakeNFT",
      "outputs": [],
      "stateMutability": "nonpayable",
      "type": "function"
    },
    {
      "inputs": [],
      "name": "stakerFee",
      "outputs": [
        {
          "internalType": "uint256",
          "name": "",
          "type": "uint256"
        }
      ],
      "stateMutability": "view",
      "type": "function"
    },
    {
      "inputs": [],
      "name": "stakerFeeReceiver",
      "outputs": [
        {
          "internalType": "address",
          "name": "",
          "type": "address"
        }
      ],
      "stateMutability": "view",
      "type": "function"
    },
    {
      "inputs": [
        {
          "internalType": "address",
          "name": "",
          "type": "address"
        }
      ],
      "name": "stakingContract",
      "outputs": [
        {
          "internalType": "address",
          "name": "",
          "type": "address"
        }
      ],
      "stateMutability": "view",
      "type": "function"
    },
    {
      "inputs": [
        {
          "internalType": "uint256",
          "name": "id",
          "type": "uint256"
        }
      ],
      "name": "sweepNFT",
      "outputs": [],
      "stateMutability": "nonpayable",
      "type": "function"
    },
    {
      "inputs": [],
      "name": "unstakeNFT",
      "outputs": [],
      "stateMutability": "nonpayable",
      "type": "function"
    },
    {
      "inputs": [
        {
          "internalType": "address",
          "name": "newValue",
          "type": "address"
        }
      ],
      "name": "updateDevAddr",
      "outputs": [],
      "stateMutability": "nonpayable",
      "type": "function"
    },
    {
      "inputs": [
        {
          "internalType": "address",
          "name": "newValue",
          "type": "address"
        }
      ],
      "name": "updateGaugeVoter",
      "outputs": [],
      "stateMutability": "nonpayable",
      "type": "function"
    },
    {
      "inputs": [
        {
          "internalType": "uint256",
          "name": "newValue",
          "type": "uint256"
        }
      ],
      "name": "updateMaxSupportedMasterPlatypusVersion",
      "outputs": [],
      "stateMutability": "nonpayable",
      "type": "function"
    },
    {
      "inputs": [
        {
          "internalType": "address",
          "name": "newValue",
          "type": "address"
        }
      ],
      "name": "updateVotingGauge",
      "outputs": [],
      "stateMutability": "nonpayable",
      "type": "function"
    },
    {
      "inputs": [],
      "name": "vePTP",
      "outputs": [
        {
          "internalType": "contract IVePTP",
          "name": "",
          "type": "address"
        }
      ],
      "stateMutability": "view",
      "type": "function"
    },
    {
      "inputs": [
        {
          "internalType": "address[]",
          "name": "_lpVote",
          "type": "address[]"
        },
        {
          "internalType": "int256[]",
          "name": "_deltas",
          "type": "int256[]"
        },
        {
          "internalType": "address",
          "name": "_bribeReceiver",
          "type": "address"
        }
      ],
      "name": "vote",
      "outputs": [
        {
          "components": [
            {
              "internalType": "address",
              "name": "reward",
              "type": "address"
            },
            {
              "internalType": "uint256",
              "name": "amount",
              "type": "uint256"
            }
          ],
          "internalType": "struct PlatypusVoterProxy.Reward[]",
          "name": "claimedBribes",
          "type": "tuple[]"
        }
      ],
      "stateMutability": "nonpayable",
      "type": "function"
    },
    {
      "inputs": [],
      "name": "votingGauge",
      "outputs": [
        {
          "internalType": "contract IVotingGauge",
          "name": "",
          "type": "address"
        }
      ],
      "stateMutability": "view",
      "type": "function"
    },
    {
      "inputs": [
        {
          "internalType": "uint256",
          "name": "_pid",
          "type": "uint256"
        },
        {
          "internalType": "address",
          "name": "",
          "type": "address"
        },
        {
          "internalType": "address",
          "name": "_pool",
          "type": "address"
        },
        {
          "internalType": "address",
          "name": "_token",
          "type": "address"
        },
        {
          "internalType": "address",
          "name": "_asset",
          "type": "address"
        },
        {
          "internalType": "uint256",
          "name": "_maxSlippage",
          "type": "uint256"
        },
        {
          "internalType": "uint256",
          "name": "_amount",
          "type": "uint256"
        }
      ],
      "name": "withdraw",
      "outputs": [
        {
          "internalType": "uint256",
          "name": "",
          "type": "uint256"
        }
      ],
      "stateMutability": "nonpayable",
      "type": "function"
    }
  ],
  "transactionHash": "0x248d242c50254da610a255913f65cf817180d50678f6c563f640a34e0733eb80",
  "args": [
    "0x40089e90156Fc6F994cc0eC86dbe84634A1C156F",
    "0xDcEDF06Fd33E1D7b6eb4b309f779a0e9D3172e44",
    "0xDcEDF06Fd33E1D7b6eb4b309f779a0e9D3172e44",
    "0x1f6B6b505D199B9bd0a6642B8d44533a811598da",
    "4",
    {
      "stakerFeeBips": 1500,
      "boosterFeeBips": 0,
      "stakerFeeReceiver": "0x9bc36cc686800be1905bf7e10578ee6fbdd6f27a",
      "boosterFeeReceiver": "0x0000000000000000000000000000000000000000"
    }
  ],
  "solcInputHash": "32afb2637b6d77cf33631af711fde900",
  "bytecode": "0x60a06040523480156200001157600080fd5b5060405162004457380380620044578339810160408190526200003491620000d2565b600480546001600160a01b03199081166001600160a01b03978816179091556005805482169587169590951790945560068054851693861693909317909255602082015160005581516001556040820151600280548516918616919091179055606090910151600380549093169084161790915560075516608052620001c0565b80516001600160a01b0381168114620000cd57600080fd5b919050565b600080600080600080868803610120811215620000ee57600080fd5b620000f988620000b5565b96506200010960208901620000b5565b95506200011960408901620000b5565b94506200012960608901620000b5565b9350608088015192506080609f19820112156200014557600080fd5b50604051608081016001600160401b03811182821017156200017757634e487b7160e01b600052604160045260246000fd5b60405260a0880151815260c088015160208201526200019960e08901620000b5565b6040820152620001ad6101008901620000b5565b6060820152809150509295509295509295565b6080516141b0620002a7600039600081816104ed015281816106b4015281816106f401528181610841015281816108f201528181610a6801528181610aa801528181610b5d01528181610c2f01528181610ca301528181610d7f01528181610f5801528181611012015281816110dd01528181611165015281816112af015281816114720152818161173801528181611ce201528181611dc501528181611e7901528181611fbb015281816122030152818161258201528181612953015281816129ea01528181612a700152818161311901528181613302015261339a01526141b06000f3fe608060405234801561001057600080fd5b506004361061025c5760003560e01c8063865710f011610145578063bcd13982116100bd578063d4d994331161008c578063daa4aa6911610071578063daa4aa691461054b578063e0a747fe1461057f578063e8a17c821461058757600080fd5b8063d4d994331461050f578063da09c72c1461053857600080fd5b8063bcd13982146104b9578063c494448e146104cc578063c950a9df146104df578063d289d969146104e857600080fd5b80639291d56311610114578063a530882e116100f9578063a530882e14610478578063b5e893a51461048b578063b821da0b1461049e57600080fd5b80639291d5631461045257806397eef1871461046557600080fd5b8063865710f0146103fe5780638d75906f146104115780638dc1564a14610424578063911764bd1461043f57600080fd5b80636099ecb2116101d8578063792a230f116101a757806381ca29a11161018c57806381ca29a1146103c857806382fc6b1d146103db5780638583b7fa146103f657600080fd5b8063792a230f146103a25780637dcb2abf146103b557600080fd5b80636099ecb21461033c5780636cb56d19146103735780636eb604e014610386578063781a29d11461039957600080fd5b80632d61a5461161022f578063491cad2911610214578063491cad291461030d5780634b2d9ffc14610320578063529ebc7d1461032957600080fd5b80632d61a546146102cf5780633b608536146102fa57600080fd5b806301e1c48d1461026157806302eb6f7e14610287578063174e31c41461029c5780632cca19ad146102af575b600080fd5b61027461026f366004613745565b61059a565b6040519081526020015b60405180910390f35b61029a610295366004613771565b6105c7565b005b61029a6102aa366004613745565b61097b565b6102c26102bd3660046138af565b6111d9565b60405161027e9190613981565b6002546102e2906001600160a01b031681565b6040516001600160a01b03909116815260200161027e565b61029a6103083660046139d9565b611580565b61029a61031b3660046139d9565b6115ea565b61027460015481565b61029a6103373660046139f6565b611654565b61034f61034a366004613745565b61183a565b6040805193845260208401929092526001600160a01b03169082015260600161027e565b61029a610381366004613a70565b6118e9565b61029a610394366004613aa9565b611d4e565b61027460005481565b6003546102e2906001600160a01b031681565b6102c26103c3366004613aa9565b611fe7565b6005546102e2906001600160a01b031681565b6102e2736a04a578247e15e3c038acf2686ca00a624a5aa081565b6102746121dc565b61029a61040c366004613aa9565b6122c5565b61029a61041f366004613aa9565b612312565b6102e27322d4002028f537599be9f666d1c4fa138522f9c881565b61029a61044d3660046139d9565b61235f565b61029a6104603660046139d9565b6123c9565b61029a610473366004613aa9565b612433565b6102746104863660046139f6565b612480565b61029a6104993660046139d9565b6126b9565b6102e2735857019c749147eee22b1fe63500f237f3c1b69281565b6006546102e2906001600160a01b031681565b61029a6104da366004613a70565b612723565b61027460075481565b6102e27f000000000000000000000000000000000000000000000000000000000000000081565b6102e261051d3660046139d9565b6008602052600090815260409020546001600160a01b031681565b6004546102e2906001600160a01b031681565b6102e2610559366004613745565b60096020908152600092835260408084209091529082529020546001600160a01b031681565b61029a6128bb565b61029a610595366004613aa9565b612995565b336000908152600860205260408120546001600160a01b03166105bd8184612a98565b9150505b92915050565b336000818152600860209081526040808320546001600160a01b03908116808552600984528285208b8652909352922054909291161461064e5760405162461bcd60e51b815260206004820181905260248201527f506c617479707573566f74657250726f78793a3a6f6e6c79537472617465677960448201526064015b60405180910390fd5b6106dc8160008860405160240161066791815260200190565b60408051601f198184030181529190526020810180516001600160e01b03167f5312ea8e000000000000000000000000000000000000000000000000000000001790526001600160a01b037f000000000000000000000000000000000000000000000000000000000000000016929190612cb8565b506040516370a0823160e01b81526001600160a01b037f000000000000000000000000000000000000000000000000000000000000000081166004830152600091908416906370a0823190602401602060405180830381865afa158015610747573d6000803e3d6000fd5b505050506040513d601f19601f8201168201806040525081019061076b9190613ac2565b60405163907448ed60e01b81526001600160a01b0386811660048301526024820183905291925060009187169063907448ed90604401606060405180830381865afa1580156107be573d6000803e3d6000fd5b505050506040513d601f19601f820116820180604052508101906107e29190613aeb565b50506040516001600160a01b0388166024820152604481018490529091506108699085906000906064015b60408051601f198184030181529190526020810180516001600160e01b031663095ea7b360e01b1790526001600160a01b037f000000000000000000000000000000000000000000000000000000000000000016929190612cb8565b506040516001600160a01b0386166024820152604481018390526064810182905233608482015260001960a482015261091a90879060009060c4015b60408051601f198184030181529190526020810180516001600160e01b03167f09a5fca3000000000000000000000000000000000000000000000000000000001790526001600160a01b037f000000000000000000000000000000000000000000000000000000000000000016929190612cb8565b506040516001600160a01b03841660248201526000604482018190526109459186919060640161080d565b506040516001600160a01b03871660248201526000604482018190526109709187919060640161080d565b505050505050505050565b336000818152600860209081526040808320546001600160a01b039081168085526009845282852087865290935292205490929116146109fd5760405162461bcd60e51b815260206004820181905260248201527f506c617479707573566f74657250726f78793a3a6f6e6c7953747261746567796044820152606401610645565b60405160248101839052600060448201819052610a90918391906064015b60408051601f198184030181529190526020810180516001600160e01b03167fe2bbb158000000000000000000000000000000000000000000000000000000001790526001600160a01b037f000000000000000000000000000000000000000000000000000000000000000016929190612cb8565b506040516370a0823160e01b81526001600160a01b037f00000000000000000000000000000000000000000000000000000000000000001660048201526000907322d4002028f537599be9f666d1c4fa138522f9c8906370a0823190602401602060405180830381865afa158015610b0c573d6000803e3d6000fd5b505050506040513d601f19601f82011682018060405250810190610b309190613ac2565b90508015610dfd576000808054118015610b5457506003546001600160a01b031615155b8015610bdd57507f00000000000000000000000000000000000000000000000000000000000000006001600160a01b0316635392fd1c6040518163ffffffff1660e01b8152600401602060405180830381865afa158015610bb9573d6000803e3d6000fd5b505050506040513d601f19601f82011682018060405250810190610bdd9190613b17565b15610ccd5761271060005483610bf39190613b48565b610bfd9190613b67565b6040517f7c0bb4ab000000000000000000000000000000000000000000000000000000008152600481018290529091507f00000000000000000000000000000000000000000000000000000000000000006001600160a01b031690637c0bb4ab90602401600060405180830381600087803b158015610c7b57600080fd5b505af1158015610c8f573d6000803e3d6000fd5b5050600354610ccd92506001600160a01b037f0000000000000000000000000000000000000000000000000000000000000000811692501683612db5565b600080600154118015610cea57506002546001600160a01b031615155b15610da95761271060015484610d009190613b48565b610d0a9190613b67565b6002546040516001600160a01b03909116602482015260448101829052909150610da7907322d4002028f537599be9f666d1c4fa138522f9c8906000906064015b60408051601f198184030181529190526020810180516001600160e01b031663a9059cbb60e01b1790526001600160a01b037f000000000000000000000000000000000000000000000000000000000000000016929190612cb8565b505b600081610db68486613b89565b610dc09190613b89565b60405133602482015260448101829052909150610df8907322d4002028f537599be9f666d1c4fa138522f9c890600090606401610d4b565b505050505b6040517fbc70fdbc000000000000000000000000000000000000000000000000000000008152600481018490526000906001600160a01b0384169063bc70fdbc90602401600060405180830381865afa158015610e5e573d6000803e3d6000fd5b505050506040513d6000823e601f3d908101601f19168201604052610e869190810190613d18565b50905060005b81518110156110d85760006001600160a01b0316828281518110610eb257610eb2613d7c565b60200260200101516001600160a01b031603610f105773b31f66aa3c1e785363f0875a1b74e27b85fd66c7828281518110610eef57610eef613d7c565b60200260200101906001600160a01b031690816001600160a01b0316815250505b73b31f66aa3c1e785363f0875a1b74e27b85fd66c76001600160a01b0316828281518110610f4057610f40613d7c565b60200260200101516001600160a01b031603610fdc577f00000000000000000000000000000000000000000000000000000000000000006001600160a01b0316635a556f516040518163ffffffff1660e01b81526004016020604051808303816000875af1158015610fb6573d6000803e3d6000fd5b505050506040513d601f19601f82011682018060405250810190610fda9190613ac2565b505b6000828281518110610ff057610ff0613d7c565b60209081029190910101516040516370a0823160e01b81526001600160a01b037f000000000000000000000000000000000000000000000000000000000000000081166004830152909116906370a0823190602401602060405180830381865afa158015611062573d6000803e3d6000fd5b505050506040513d601f19601f820116820180604052508101906110869190613ac2565b90506110c383838151811061109d5761109d613d7c565b602090810291909101015160405133602482015260448101849052600090606401610d4b565b505080806110d090613d92565b915050610e8c565b5060007f00000000000000000000000000000000000000000000000000000000000000006001600160a01b031663129635956040518163ffffffff1660e01b8152600401602060405180830381865afa158015611139573d6000803e3d6000fd5b505050506040513d601f19601f8201168201806040525081019061115d9190613ac2565b11156111d2577f00000000000000000000000000000000000000000000000000000000000000006001600160a01b031663a71871226040518163ffffffff1660e01b8152600401600060405180830381600087803b1580156111be57600080fd5b505af1158015610970573d6000803e3d6000fd5b5050505050565b6005546060906001600160a01b03163381146112375760405162461bcd60e51b815260206004820181905260248201527f506c617479707573566f74657250726f78793a3a556e617574686f72697a65646044820152606401610645565b6006546040516001600160a01b03909116906112d7908290600090611262908a908a90602401613dab565b60408051601f198184030181529190526020810180516001600160e01b03167f2efce57b000000000000000000000000000000000000000000000000000000001790526001600160a01b037f000000000000000000000000000000000000000000000000000000000000000016929190612cb8565b506001600160a01b0384166112ec57816112ee565b835b9350855167ffffffffffffffff81111561130a5761130a6137d9565b60405190808252806020026020018201604052801561134f57816020015b60408051808201909152600080825260208201528152602001906001900390816113285790505b50925060005b8651811015611576576000826001600160a01b031663a8c5d95a89848151811061138157611381613d7c565b60200260200101516040518263ffffffff1660e01b81526004016113b491906001600160a01b0391909116815260200190565b602060405180830381865afa1580156113d1573d6000803e3d6000fd5b505050506040513d601f19601f820116820180604052508101906113f59190613e2f565b90506000816001600160a01b031663f7c618c16040518163ffffffff1660e01b8152600401602060405180830381865afa158015611437573d6000803e3d6000fd5b505050506040513d601f19601f8201168201806040525081019061145b9190613e2f565b6040516370a0823160e01b81526001600160a01b037f0000000000000000000000000000000000000000000000000000000000000000811660048301529192506000918316906370a0823190602401602060405180830381865afa1580156114c7573d6000803e3d6000fd5b505050506040513d601f19601f820116820180604052508101906114eb9190613ac2565b9050801561151f576040516001600160a01b03891660248201526044810182905261151d908390600090606401610d4b565b505b60006040518060400160405280846001600160a01b031681526020018381525090508088868151811061155457611554613d7c565b602002602001018190525050505050808061156e90613d92565b915050611355565b5050509392505050565b6004546001600160a01b031633146115c85760405162461bcd60e51b815260206004820152601b602482015260008051602061415b8339815191526044820152606401610645565b600580546001600160a01b0319166001600160a01b0392909216919091179055565b6004546001600160a01b031633146116325760405162461bcd60e51b815260206004820152601b602482015260008051602061415b8339815191526044820152606401610645565b600380546001600160a01b0319166001600160a01b0392909216919091179055565b336000818152600860209081526040808320546001600160a01b03908116808552600984528285208d865290935292205490929116146116d65760405162461bcd60e51b815260206004820181905260248201527f506c617479707573566f74657250726f78793a3a6f6e6c7953747261746567796044820152606401610645565b60006116e3858585612e35565b90506116f96001600160a01b0387168886612f9d565b6040517f90d250740000000000000000000000000000000000000000000000000000000081526001600160a01b038781166004830152602482018690527f00000000000000000000000000000000000000000000000000000000000000008116604483015260001960648301528816906390d25074906084016020604051808303816000875af1158015611791573d6000803e3d6000fd5b505050506040513d601f19601f820116820180604052508101906117b59190613ac2565b506040516001600160a01b0383166024820152604481018290526117e090869060009060640161080d565b506118038260008b84604051602401610a1b929190918252602082015260400190565b506040516001600160a01b038316602482015260006044820181905261182e9187919060640161080d565b50505050505050505050565b60008060008060008061184c876130d2565b92509250925060008151118015611864575060008251115b801561189d575060006001600160a01b03168260008151811061188957611889613d7c565b60200260200101516001600160a01b031614155b156118dd57806000815181106118b5576118b5613d7c565b60200260200101519450816000815181106118d2576118d2613d7c565b602002602001015193505b50909350509250925092565b6004546001600160a01b031633146119315760405162461bcd60e51b815260206004820152601b602482015260008051602061415b8339815191526044820152606401610645565b6000826001600160a01b0316635eaec0e46040518163ffffffff1660e01b8152600401602060405180830381865afa158015611971573d6000803e3d6000fd5b505050506040513d601f19601f820116820180604052508101906119959190613ac2565b6001600160a01b038381166000908152600960209081526040808320858452909152902054919250848116911614611a345760405162461bcd60e51b8152602060048201526024808201527f506c617479707573566f74657250726f78793a3a556e6b6e6f776e207374726160448201527f74656779000000000000000000000000000000000000000000000000000000006064820152608401610645565b6001600160a01b0380841660009081526008602090815260408083205481517f0112681600000000000000000000000000000000000000000000000000000000815291519416938492630112681692600480820193918290030181865afa158015611aa3573d6000803e3d6000fd5b505050506040513d601f19601f82011682018060405250810190611ac79190613e2f565b6001600160a01b0380821660009081526009602090815260408083208884529091529020549192501615611b635760405162461bcd60e51b815260206004820152603260248201527f506c617479707573566f74657250726f78793a3a537472617465677920666f7260448201527f2050494420616c726561647920616464656400000000000000000000000000006064820152608401610645565b600754816001600160a01b03166354fd4d506040518163ffffffff1660e01b8152600401602060405180830381865afa158015611ba4573d6000803e3d6000fd5b505050506040513d601f19601f82011682018060405250810190611bc89190613ac2565b1115611c3c5760405162461bcd60e51b815260206004820152602d60248201527f506c617479707573566f74657250726f78793a3a4e65772056657273696f6e2060448201527f6e6f7420737570706f72746564000000000000000000000000000000000000006064820152608401610645565b604080516001808252818301909252600091602080830190803683370190505090508381600081518110611c7257611c72613d7c565b602002602001018181525050611d0a83600083604051602401611c959190613e4c565b60408051601f198184030181529190526020810180516001600160e01b03167fd93bf4fe000000000000000000000000000000000000000000000000000000001790526001600160a01b037f000000000000000000000000000000000000000000000000000000000000000016929190612cb8565b506001600160a01b0385166000908152600960209081526040808320878452909152902080546001600160a01b0319169055611d468287612723565b505050505050565b6004546001600160a01b03163314611d965760405162461bcd60e51b815260206004820152601b602482015260008051602061415b8339815191526044820152606401610645565b6040517f6352211e000000000000000000000000000000000000000000000000000000008152600481018290527f00000000000000000000000000000000000000000000000000000000000000006001600160a01b031690736a04a578247e15e3c038acf2686ca00a624a5aa090636352211e90602401602060405180830381865afa158015611e2a573d6000803e3d6000fd5b505050506040513d601f19601f82011682018060405250810190611e4e9190613e2f565b6001600160a01b031614611ef7576040516323b872dd60e01b81523360048201526001600160a01b037f000000000000000000000000000000000000000000000000000000000000000016602482015260448101829052736a04a578247e15e3c038acf2686ca00a624a5aa0906323b872dd90606401600060405180830381600087803b158015611ede57600080fd5b505af1158015611ef2573d6000803e3d6000fd5b505050505b604051735857019c749147eee22b1fe63500f237f3c1b692602482015260448101829052611f4090736a04a578247e15e3c038acf2686ca00a624a5aa09060009060640161080d565b50611fe3735857019c749147eee22b1fe63500f237f3c1b692600083604051602401611f6e91815260200190565b60408051601f198184030181529190526020810180516001600160e01b03167f4300f5e1000000000000000000000000000000000000000000000000000000001790526001600160a01b037f000000000000000000000000000000000000000000000000000000000000000016929190612cb8565b5050565b60606000806000611ff7856130d2565b92509250925060006120076121dc565b905060006127106120188387613b48565b6120229190613b67565b90506000845160016120349190613e90565b67ffffffffffffffff81111561204c5761204c6137d9565b60405190808252806020026020018201604052801561209157816020015b604080518082019091526000808252602082015281526020019060019003908161206a5790505b50604080518082019091527322d4002028f537599be9f666d1c4fa138522f9c88152909150602081016120c48489613b89565b815250816000815181106120da576120da613d7c565b602002602001018190525060005b85518110156121d0576000806001600160a01b031687838151811061210f5761210f613d7c565b60200260200101516001600160a01b0316146121445786828151811061213757612137613d7c565b602002602001015161215a565b73b31f66aa3c1e785363f0875a1b74e27b85fd66c75b90506040518060400160405280826001600160a01b0316815260200187848151811061218857612188613d7c565b6020026020010151815250838360016121a19190613e90565b815181106121b1576121b1613d7c565b60200260200101819052505080806121c890613d92565b9150506120e8565b50979650505050505050565b600080548190158015906121fa57506003546001600160a01b031615155b801561228357507f00000000000000000000000000000000000000000000000000000000000000006001600160a01b0316635392fd1c6040518163ffffffff1660e01b8152600401602060405180830381865afa15801561225f573d6000803e3d6000fd5b505050506040513d601f19601f820116820180604052508101906122839190613b17565b1561228d57506000545b6000806001541180156122aa57506002546001600160a01b031615155b156122b457506001545b6122be8183613e90565b9250505090565b6004546001600160a01b0316331461230d5760405162461bcd60e51b815260206004820152601b602482015260008051602061415b8339815191526044820152606401610645565b600055565b6004546001600160a01b0316331461235a5760405162461bcd60e51b815260206004820152601b602482015260008051602061415b8339815191526044820152606401610645565b600755565b6004546001600160a01b031633146123a75760405162461bcd60e51b815260206004820152601b602482015260008051602061415b8339815191526044820152606401610645565b600680546001600160a01b0319166001600160a01b0392909216919091179055565b6004546001600160a01b031633146124115760405162461bcd60e51b815260206004820152601b602482015260008051602061415b8339815191526044820152606401610645565b600480546001600160a01b0319166001600160a01b0392909216919091179055565b6004546001600160a01b0316331461247b5760405162461bcd60e51b815260206004820152601b602482015260008051602061415b8339815191526044820152606401610645565b600155565b336000818152600860209081526040808320546001600160a01b03908116808552600984528285208d8652909352908320549293919216146125045760405162461bcd60e51b815260206004820181905260248201527f506c617479707573566f74657250726f78793a3a6f6e6c7953747261746567796044820152606401610645565b60006125118a83866131a6565b90506125aa8260008c84604051602401612535929190918252602082015260400190565b60408051601f198184030181529190526020810180516001600160e01b03167f441a3e70000000000000000000000000000000000000000000000000000000001790526001600160a01b037f000000000000000000000000000000000000000000000000000000000000000016929190612cb8565b506040516001600160a01b0389166024820152604481018290526125d590879060009060640161080d565b5060006125e38989846131d8565b6125ed9083613b89565b905060006127106125fe8884613b48565b6126089190613b67565b90506126148183613b89565b6040516001600160a01b038b166024820152604481018590526064810182905230608482015260001960a4820152909250600090612658908c90839060c4016108a5565b6040516001600160a01b038d166024820152600060448201819052919250612684918b9160640161080d565b506000612692826000613257565b90506126a86001600160a01b038c163383612db5565b9d9c50505050505050505050505050565b6004546001600160a01b031633146127015760405162461bcd60e51b815260206004820152601b602482015260008051602061415b8339815191526044820152606401610645565b600280546001600160a01b0319166001600160a01b0392909216919091179055565b6004546001600160a01b0316331461276b5760405162461bcd60e51b815260206004820152601b602482015260008051602061415b8339815191526044820152606401610645565b6000816001600160a01b0316635eaec0e46040518163ffffffff1660e01b8152600401602060405180830381865afa1580156127ab573d6000803e3d6000fd5b505050506040513d601f19601f820116820180604052508101906127cf9190613ac2565b6001600160a01b038481166000908152600960209081526040808320858452909152902054919250161561286b5760405162461bcd60e51b815260206004820152603260248201527f506c617479707573566f74657250726f78793a3a537472617465677920666f7260448201527f2050494420616c726561647920616464656400000000000000000000000000006064820152608401610645565b6001600160a01b0392831660008181526009602090815260408083209483529381528382208054969095166001600160a01b03199687168117909555938152600890935291208054909216179055565b6004546001600160a01b031633146129035760405162461bcd60e51b815260206004820152601b602482015260008051602061415b8339815191526044820152606401610645565b6040805160048152602481019091526020810180516001600160e01b03167f6e0d323500000000000000000000000000000000000000000000000000000000179052612992906001600160a01b037f00000000000000000000000000000000000000000000000000000000000000001690735857019c749147eee22b1fe63500f237f3c1b69290600090612cb8565b50565b6004546001600160a01b031633146129dd5760405162461bcd60e51b815260206004820152601b602482015260008051602061415b8339815191526044820152606401610645565b6040516001600160a01b037f000000000000000000000000000000000000000000000000000000000000000016602482015233604482015260648101829052611fe390736a04a578247e15e3c038acf2686ca00a624a5aa09060009060840160408051601f198184030181529190526020810180516001600160e01b03166323b872dd60e01b1790526001600160a01b037f000000000000000000000000000000000000000000000000000000000000000016929190612cb8565b600080612aa584846132bd565b90508015612cae576000612ab98585613417565b90506000816001600160a01b03166316f0115b6040518163ffffffff1660e01b8152600401602060405180830381865afa158015612afb573d6000803e3d6000fd5b505050506040513d601f19601f82011682018060405250810190612b1f9190613e2f565b90506000806000836001600160a01b031663907448ed866001600160a01b0316632495a5996040518163ffffffff1660e01b8152600401602060405180830381865afa158015612b73573d6000803e3d6000fd5b505050506040513d601f19601f82011682018060405250810190612b979190613e2f565b6040517fffffffff0000000000000000000000000000000000000000000000000000000060e084901b1681526001600160a01b03909116600482015260248101899052604401606060405180830381865afa158015612bfa573d6000803e3d6000fd5b505050506040513d601f19601f82011682018060405250810190612c1e9190613aeb565b92509250925080612c975760405162461bcd60e51b815260206004820152602960248201527f506c617479707573566f74657250726f78793a3a546869732073686f756c646e60448201527f27742068617070656e00000000000000000000000000000000000000000000006064820152608401610645565b612ca18284613e90565b96505050505050506105c1565b5060009392505050565b6060600080866001600160a01b031663b61d27f68787876040518463ffffffff1660e01b8152600401612ced93929190613ed4565b6000604051808303816000875af1158015612d0c573d6000803e3d6000fd5b505050506040513d6000823e601f3d908101601f19168201604052612d349190810190613f05565b9150915081612dab5760405162461bcd60e51b815260206004820152602660248201527f506c617479707573566f74657250726f78793a3a73616665457865637574652060448201527f6661696c656400000000000000000000000000000000000000000000000000006064820152608401610645565b9695505050505050565b6040516001600160a01b038316602482015260448101829052612e3090849063a9059cbb60e01b906064015b60408051601f198184030181529190526020810180516001600160e01b03167fffffffff0000000000000000000000000000000000000000000000000000000090931692909217909152613527565b505050565b6000836001600160a01b031663705727b56040518163ffffffff1660e01b8152600401602060405180830381865afa158015612e75573d6000803e3d6000fd5b505050506040513d601f19601f82011682018060405250810190612e999190613ac2565b600003612eb157612eaa8284613b89565b9050612f96565b836001600160a01b031663705727b56040518163ffffffff1660e01b8152600401602060405180830381865afa158015612eef573d6000803e3d6000fd5b505050506040513d601f19601f82011682018060405250810190612f139190613ac2565b846001600160a01b03166318160ddd6040518163ffffffff1660e01b8152600401602060405180830381865afa158015612f51573d6000803e3d6000fd5b505050506040513d601f19601f82011682018060405250810190612f759190613ac2565b612f7f8486613b89565b612f899190613b48565b612f939190613b67565b90505b9392505050565b80158061303057506040517fdd62ed3e0000000000000000000000000000000000000000000000000000000081523060048201526001600160a01b03838116602483015284169063dd62ed3e90604401602060405180830381865afa15801561300a573d6000803e3d6000fd5b505050506040513d601f19601f8201168201806040525081019061302e9190613ac2565b155b6130a25760405162461bcd60e51b815260206004820152603660248201527f5361666545524332303a20617070726f76652066726f6d206e6f6e2d7a65726f60448201527f20746f206e6f6e2d7a65726f20616c6c6f77616e6365000000000000000000006064820152608401610645565b6040516001600160a01b038316602482015260448101829052612e3090849063095ea7b360e01b90606401612de1565b336000908152600860205260408082205490517fffcd4263000000000000000000000000000000000000000000000000000000008152600481018490526001600160a01b037f0000000000000000000000000000000000000000000000000000000000000000811660248301526060928392911690819063ffcd426390604401600060405180830381865afa15801561316f573d6000803e3d6000fd5b505050506040513d6000823e601f3d908101601f191682016040526131979190810190613f5d565b92989197509195509350505050565b6000806131b38486612a98565b905060006131c185876132bd565b9050816131ce8286613b48565b612dab9190613b67565b60405163907448ed60e01b81526001600160a01b038381166004830152602482018390526000919085169063907448ed90604401606060405180830381865afa158015613229573d6000803e3d6000fd5b505050506040513d601f19601f8201168201806040525081019061324d9190613aeb565b5095945050505050565b6000613264826020613e90565b835110156132b45760405162461bcd60e51b815260206004820152601560248201527f746f55696e743235365f6f75744f66426f756e647300000000000000000000006044820152606401610645565b50016020015190565b6000732cd5012b5f7cc09bfe0de6c44df32a92d2431231196001600160a01b0384160161337c576040516393f1a40b60e01b8152600481018390526001600160a01b037f0000000000000000000000000000000000000000000000000000000000000000811660248301528416906393f1a40b906044016040805180830381865afa158015613350573d6000803e3d6000fd5b505050506040513d601f19601f820116820180604052508101906133749190614043565b5090506105c1565b6040516393f1a40b60e01b8152600481018390526001600160a01b037f0000000000000000000000000000000000000000000000000000000000000000811660248301528416906393f1a40b90604401606060405180830381865afa1580156133e9573d6000803e3d6000fd5b505050506040513d601f19601f8201168201806040525081019061340d9190614067565b5090949350505050565b6000732cd5012b5f7cc09bfe0de6c44df32a92d2431231196001600160a01b038416016134b257604051631526fe2760e01b8152600481018390526001600160a01b03841690631526fe2790602401606060405180830381865afa158015613483573d6000803e3d6000fd5b505050506040513d601f19601f820116820180604052508101906134a79190614095565b509091506105c19050565b604051631526fe2760e01b8152600481018390526001600160a01b03841690631526fe279060240160a060405180830381865afa1580156134f7573d6000803e3d6000fd5b505050506040513d601f19601f8201168201806040525081019061351b91906140d8565b50929695505050505050565b600061357c826040518060400160405280602081526020017f5361666545524332303a206c6f772d6c6576656c2063616c6c206661696c6564815250856001600160a01b031661360c9092919063ffffffff16565b805190915015612e30578080602001905181019061359a9190613b17565b612e305760405162461bcd60e51b815260206004820152602a60248201527f5361666545524332303a204552433230206f7065726174696f6e20646964206e60448201527f6f742073756363656564000000000000000000000000000000000000000000006064820152608401610645565b6060612f938484600085856001600160a01b0385163b61366e5760405162461bcd60e51b815260206004820152601d60248201527f416464726573733a2063616c6c20746f206e6f6e2d636f6e74726163740000006044820152606401610645565b600080866001600160a01b0316858760405161368a919061412b565b60006040518083038185875af1925050503d80600081146136c7576040519150601f19603f3d011682016040523d82523d6000602084013e6136cc565b606091505b50915091506136dc8282866136e7565b979650505050505050565b606083156136f6575081612f96565b8251156137065782518084602001fd5b8160405162461bcd60e51b81526004016106459190614147565b6001600160a01b038116811461299257600080fd5b803561374081613720565b919050565b6000806040838503121561375857600080fd5b823561376381613720565b946020939093013593505050565b600080600080600060a0868803121561378957600080fd5b85359450602086013561379b81613720565b935060408601356137ab81613720565b925060608601356137bb81613720565b915060808601356137cb81613720565b809150509295509295909350565b634e487b7160e01b600052604160045260246000fd5b604051601f8201601f1916810167ffffffffffffffff81118282101715613818576138186137d9565b604052919050565b600067ffffffffffffffff82111561383a5761383a6137d9565b5060051b60200190565b600082601f83011261385557600080fd5b8135602061386a61386583613820565b6137ef565b82815260059290921b8401810191818101908684111561388957600080fd5b8286015b848110156138a4578035835291830191830161388d565b509695505050505050565b6000806000606084860312156138c457600080fd5b833567ffffffffffffffff808211156138dc57600080fd5b818601915086601f8301126138f057600080fd5b8135602061390061386583613820565b82815260059290921b8401810191818101908a84111561391f57600080fd5b948201945b8386101561394657853561393781613720565b82529482019490820190613924565b9750508701359250508082111561395c57600080fd5b5061396986828701613844565b92505061397860408501613735565b90509250925092565b602080825282518282018190526000919060409081850190868401855b828110156139cc57815180516001600160a01b0316855286015186850152928401929085019060010161399e565b5091979650505050505050565b6000602082840312156139eb57600080fd5b8135612f9681613720565b600080600080600080600060e0888a031215613a1157600080fd5b873596506020880135613a2381613720565b95506040880135613a3381613720565b94506060880135613a4381613720565b93506080880135613a5381613720565b9699959850939692959460a0840135945060c09093013592915050565b60008060408385031215613a8357600080fd5b8235613a8e81613720565b91506020830135613a9e81613720565b809150509250929050565b600060208284031215613abb57600080fd5b5035919050565b600060208284031215613ad457600080fd5b5051919050565b8051801515811461374057600080fd5b600080600060608486031215613b0057600080fd5b835192506020840151915061397860408501613adb565b600060208284031215613b2957600080fd5b612f9682613adb565b634e487b7160e01b600052601160045260246000fd5b6000816000190483118215151615613b6257613b62613b32565b500290565b600082613b8457634e487b7160e01b600052601260045260246000fd5b500490565b600082821015613b9b57613b9b613b32565b500390565b600082601f830112613bb157600080fd5b81516020613bc161386583613820565b82815260059290921b84018101918181019086841115613be057600080fd5b8286015b848110156138a4578051613bf781613720565b8352918301918301613be4565b60005b83811015613c1f578181015183820152602001613c07565b83811115613c2e576000848401525b50505050565b600067ffffffffffffffff831115613c4e57613c4e6137d9565b613c61601f8401601f19166020016137ef565b9050828152838383011115613c7557600080fd5b612f96836020830184613c04565b600082601f830112613c9457600080fd5b81516020613ca461386583613820565b82815260059290921b84018101918181019086841115613cc357600080fd5b8286015b848110156138a457805167ffffffffffffffff811115613ce75760008081fd5b8701603f81018913613cf95760008081fd5b613d0a898683015160408401613c34565b845250918301918301613cc7565b60008060408385031215613d2b57600080fd5b825167ffffffffffffffff80821115613d4357600080fd5b613d4f86838701613ba0565b93506020850151915080821115613d6557600080fd5b50613d7285828601613c83565b9150509250929050565b634e487b7160e01b600052603260045260246000fd5b600060018201613da457613da4613b32565b5060010190565b604080825283519082018190526000906020906060840190828701845b82811015613ded5781516001600160a01b031684529284019290840190600101613dc8565b5050508381038285015284518082528583019183019060005b81811015613e2257835183529284019291840191600101613e06565b5090979650505050505050565b600060208284031215613e4157600080fd5b8151612f9681613720565b6020808252825182820181905260009190848201906040850190845b81811015613e8457835183529284019291840191600101613e68565b50909695505050505050565b60008219821115613ea357613ea3613b32565b500190565b60008151808452613ec0816020860160208601613c04565b601f01601f19169290920160200192915050565b6001600160a01b0384168152826020820152606060408201526000613efc6060830184613ea8565b95945050505050565b60008060408385031215613f1857600080fd5b613f2183613adb565b9150602083015167ffffffffffffffff811115613f3d57600080fd5b8301601f81018513613f4e57600080fd5b613d7285825160208401613c34565b60008060008060808587031215613f7357600080fd5b8451935060208086015167ffffffffffffffff80821115613f9357600080fd5b613f9f89838a01613ba0565b95506040880151915080821115613fb557600080fd5b613fc189838a01613c83565b94506060880151915080821115613fd757600080fd5b508601601f81018813613fe957600080fd5b8051613ff761386582613820565b81815260059190911b8201830190838101908a83111561401657600080fd5b928401925b828410156140345783518252928401929084019061401b565b979a9699509497505050505050565b6000806040838503121561405657600080fd5b505080516020909101519092909150565b60008060006060848603121561407c57600080fd5b8351925060208401519150604084015190509250925092565b6000806000606084860312156140aa57600080fd5b83516140b581613720565b60208501519093506140c681613720565b80925050604084015190509250925092565b600080600080600060a086880312156140f057600080fd5b85516140fb81613720565b602087015190955061410c81613720565b6040870151606088015160809098015196999198509695945092505050565b6000825161413d818460208701613c04565b9190910192915050565b602081526000612f966020830184613ea856fe506c617479707573566f74657250726f78793a3a6f6e6c794465760000000000a2646970667358221220bc0ebeef155fc395a76350a927eb4b9f0d4967f462a01ffd28b731e766c1eb4864736f6c634300080d0033",
  "devdoc": {
    "details": "For accounting reasons, there is one approved strategy per Masterchef PID. In case of upgrade, use a new proxy.",
    "kind": "dev",
    "methods": {
      "approveStrategy(address,address)": {
        "details": "Very sensitive, restricted to devAddrCan only be set once per PID and staking contract (reported by the strategy)",
        "params": {
          "_stakingContract": "address",
          "_strategy": "address"
        }
      },
      "claimReward(address,uint256)": {
        "details": "Restricted to strategy with _pid",
        "params": {
          "": "@param _pid PID"
        }
      },
      "deposit(uint256,address,address,address,address,uint256,uint256)": {
        "details": "Restricted to strategy with _pid",
        "params": {
          "": "@param _pool Platypus pool",
          "_amount": "deposit amount",
          "_asset": "Platypus asset",
          "_depositFee": "deposit fee",
          "_pid": "PID",
          "_token": "Deposit asset"
        }
      },
      "emergencyWithdraw(uint256,address,address,address,address)": {
        "details": "Restricted to strategy with _pid",
        "params": {
          "": "@param _pool Platypus pool",
          "_asset": "Platypus asset",
          "_pid": "PID",
          "_token": "Deposit asset"
        }
      },
      "pendingRewards(address,uint256)": {
        "params": {
          "": "@param _pid PID"
        },
        "returns": {
          "_0": "pendingPtp",
          "bonusTokenAddress": "bonus token address",
          "bonusTokens": "pending bonus token"
        }
      },
      "poolBalance(address,uint256)": {
        "params": {
          "": "@param _pid PID"
        },
        "returns": {
          "balance": "in depositToken"
        }
      },
      "reinvestFeeBips()": {
        "returns": {
          "_0": "reinvest fee"
        }
      },
      "setBoosterFee(uint256)": {
        "details": "Restricted to devAddr",
        "params": {
          "_boosterFeeBips": "new fee in bips (1% = 100 bips)"
        }
      },
      "setBoosterFeeReceiver(address)": {
        "details": "Restricted to devAddr",
        "params": {
          "_boosterFeeReceiver": "address"
        }
      },
      "setStakerFee(uint256)": {
        "details": "Restricted to devAddr",
        "params": {
          "_stakerFeeBips": "new fee in bips (1% = 100 bips)"
        }
      },
      "setStakerFeeReceiver(address)": {
        "details": "Restricted to devAddr",
        "params": {
          "_stakerFeeReceiver": "address"
        }
      },
      "stakeNFT(uint256)": {
        "details": "Restricted to devAddr.The currently staked NFT will be automatically unstaked and remain on voter. Use \"sweepNFT\" to get it back.",
        "params": {
          "id": "id of the NFT to be staked"
        }
      },
      "sweepNFT(uint256)": {
        "details": "Restricted to devAddr.",
        "params": {
          "id": "id of the NFT to be swept"
        }
      },
      "unstakeNFT()": {
        "details": "Restricted to devAddr.The unstaked NFT will remain on voter. Use \"sweepNFT\" to get it back."
      },
      "updateDevAddr(address)": {
        "params": {
          "newValue": "address"
        }
      },
      "updateGaugeVoter(address)": {
        "params": {
          "newValue": "address"
        }
      },
      "updateMaxSupportedMasterPlatypusVersion(uint256)": {
        "params": {
          "newValue": "uint"
        }
      },
      "updateVotingGauge(address)": {
        "params": {
          "newValue": "address"
        }
      },
      "withdraw(uint256,address,address,address,address,uint256,uint256)": {
        "details": "Restricted to strategy with _pid",
        "params": {
          "": "@param _pool Platypus pool",
          "_amount": "withdraw amount",
          "_asset": "Platypus asset",
          "_maxSlippage": "max slippage in bips",
          "_pid": "PID",
          "_token": "Deposit asset"
        },
        "returns": {
          "_0": "amount withdrawn, in _token"
        }
      }
    },
    "version": 1
  },
  "userdoc": {
    "kind": "user",
    "methods": {
      "approveStrategy(address,address)": {
        "notice": "Add an approved strategy"
      },
      "claimReward(address,uint256)": {
        "notice": "Claim and distribute PTP rewards"
      },
      "deposit(uint256,address,address,address,address,uint256,uint256)": {
        "notice": "Deposit function"
      },
      "emergencyWithdraw(uint256,address,address,address,address)": {
        "notice": "Emergency withdraw function"
      },
      "pendingRewards(address,uint256)": {
        "notice": "Pending rewards matching interface for PlatypusStrategy"
      },
      "poolBalance(address,uint256)": {
        "notice": "Pool balance"
      },
      "reinvestFeeBips()": {
        "notice": "Calculation of reinvest fee (boost + staking)"
      },
      "setBoosterFee(uint256)": {
        "notice": "Update booster fee"
      },
      "setBoosterFeeReceiver(address)": {
        "notice": "Update booster fee receiver"
      },
      "setStakerFee(uint256)": {
        "notice": "Update staker fee"
      },
      "setStakerFeeReceiver(address)": {
        "notice": "Update staker fee receiver"
      },
      "stakeNFT(uint256)": {
        "notice": "Stake NFT"
      },
      "sweepNFT(uint256)": {
        "notice": "Sweep NFT"
      },
      "unstakeNFT()": {
        "notice": "Unstake the currently staked NFT"
      },
      "updateDevAddr(address)": {
        "notice": "Update devAddr"
      },
      "updateGaugeVoter(address)": {
        "notice": "Update gaugeVoter"
      },
      "updateMaxSupportedMasterPlatypusVersion(uint256)": {
        "notice": "Update maxSupportedMasterPlatypusVersion"
      },
      "updateVotingGauge(address)": {
        "notice": "Update votingGauge"
      },
      "withdraw(uint256,address,address,address,address,uint256,uint256)": {
        "notice": "Withdraw function"
      }
    },
    "notice": "PlatypusVoterProxy is an upgradable contract. Strategies interact with PlatypusVoterProxy and PlatypusVoterProxy interacts with PlatypusVoter.",
    "version": 1
  },
  "storageLayout": {
    "storage": [
      {
        "astId": 40550,
        "contract": "contracts/strategies/avalanche/platypus/PlatypusVoterProxy.sol:PlatypusVoterProxy",
        "label": "boosterFee",
        "offset": 0,
        "slot": "0",
        "type": "t_uint256"
      },
      {
        "astId": 40552,
        "contract": "contracts/strategies/avalanche/platypus/PlatypusVoterProxy.sol:PlatypusVoterProxy",
        "label": "stakerFee",
        "offset": 0,
        "slot": "1",
        "type": "t_uint256"
      },
      {
        "astId": 40554,
        "contract": "contracts/strategies/avalanche/platypus/PlatypusVoterProxy.sol:PlatypusVoterProxy",
        "label": "stakerFeeReceiver",
        "offset": 0,
        "slot": "2",
        "type": "t_address"
      },
      {
        "astId": 40556,
        "contract": "contracts/strategies/avalanche/platypus/PlatypusVoterProxy.sol:PlatypusVoterProxy",
        "label": "boosterFeeReceiver",
        "offset": 0,
        "slot": "3",
        "type": "t_address"
      },
      {
        "astId": 40573,
        "contract": "contracts/strategies/avalanche/platypus/PlatypusVoterProxy.sol:PlatypusVoterProxy",
        "label": "devAddr",
        "offset": 0,
        "slot": "4",
        "type": "t_address"
      },
      {
        "astId": 40575,
        "contract": "contracts/strategies/avalanche/platypus/PlatypusVoterProxy.sol:PlatypusVoterProxy",
        "label": "gaugeVoter",
        "offset": 0,
        "slot": "5",
        "type": "t_address"
      },
      {
        "astId": 40578,
        "contract": "contracts/strategies/avalanche/platypus/PlatypusVoterProxy.sol:PlatypusVoterProxy",
        "label": "votingGauge",
        "offset": 0,
        "slot": "6",
        "type": "t_contract(IVotingGauge)43573"
      },
      {
        "astId": 40580,
        "contract": "contracts/strategies/avalanche/platypus/PlatypusVoterProxy.sol:PlatypusVoterProxy",
        "label": "maxSupportedMasterPlatypusVersion",
        "offset": 0,
        "slot": "7",
        "type": "t_uint256"
      },
      {
        "astId": 40584,
        "contract": "contracts/strategies/avalanche/platypus/PlatypusVoterProxy.sol:PlatypusVoterProxy",
        "label": "stakingContract",
        "offset": 0,
        "slot": "8",
        "type": "t_mapping(t_address,t_address)"
      },
      {
        "astId": 40590,
        "contract": "contracts/strategies/avalanche/platypus/PlatypusVoterProxy.sol:PlatypusVoterProxy",
        "label": "approvedStrategies",
        "offset": 0,
        "slot": "9",
        "type": "t_mapping(t_address,t_mapping(t_uint256,t_address))"
      }
    ],
    "types": {
      "t_address": {
        "encoding": "inplace",
        "label": "address",
        "numberOfBytes": "20"
      },
      "t_contract(IVotingGauge)43573": {
        "encoding": "inplace",
        "label": "contract IVotingGauge",
        "numberOfBytes": "20"
      },
      "t_mapping(t_address,t_address)": {
        "encoding": "mapping",
        "key": "t_address",
        "label": "mapping(address => address)",
        "numberOfBytes": "32",
        "value": "t_address"
      },
      "t_mapping(t_address,t_mapping(t_uint256,t_address))": {
        "encoding": "mapping",
        "key": "t_address",
        "label": "mapping(address => mapping(uint256 => address))",
        "numberOfBytes": "32",
        "value": "t_mapping(t_uint256,t_address)"
      },
      "t_mapping(t_uint256,t_address)": {
        "encoding": "mapping",
        "key": "t_uint256",
        "label": "mapping(uint256 => address)",
        "numberOfBytes": "32",
        "value": "t_address"
      },
      "t_uint256": {
        "encoding": "inplace",
        "label": "uint256",
        "numberOfBytes": "32"
      }
    }
  }
}