{
  "address": "0x4FB84317F1b8D14414B52d2Aa2dA097017960049",
  "abi": [
    {
      "inputs": [
        {
          "components": [
            {
              "internalType": "address",
              "name": "pool",
              "type": "address"
            },
            {
              "internalType": "address",
              "name": "swapPairToken",
              "type": "address"
            },
            {
              "internalType": "uint256",
              "name": "pid",
              "type": "uint256"
            },
            {
              "internalType": "uint256",
              "name": "maxSlippage",
              "type": "uint256"
            },
            {
              "internalType": "address",
              "name": "voterProxy",
              "type": "address"
            }
          ],
          "internalType": "struct PlatypusStrategy.PlatypusStrategySettings",
          "name": "_platypusStrategySettings",
          "type": "tuple"
        },
        {
          "components": [
            {
              "internalType": "string",
              "name": "name",
              "type": "string"
            },
            {
              "internalType": "address",
              "name": "platformToken",
              "type": "address"
            },
            {
              "components": [
                {
                  "internalType": "address",
                  "name": "reward",
                  "type": "address"
                },
                {
                  "internalType": "address",
                  "name": "swapPair",
                  "type": "address"
                },
                {
                  "internalType": "uint256",
                  "name": "swapFee",
                  "type": "uint256"
                }
              ],
              "internalType": "struct VariableRewardsStrategy.RewardSwapPair[]",
              "name": "rewardSwapPairs",
              "type": "tuple[]"
            },
            {
              "internalType": "address",
              "name": "timelock",
              "type": "address"
            }
          ],
          "internalType": "struct VariableRewardsStrategy.VariableRewardsStrategySettings",
          "name": "_variableRewardsStrategySettings",
          "type": "tuple"
        },
        {
          "components": [
            {
              "internalType": "address",
              "name": "depositToken",
              "type": "address"
            },
            {
              "internalType": "address",
              "name": "rewardToken",
              "type": "address"
            },
            {
              "internalType": "uint256",
              "name": "minTokensToReinvest",
              "type": "uint256"
            },
            {
              "internalType": "uint256",
              "name": "devFeeBips",
              "type": "uint256"
            },
            {
              "internalType": "uint256",
              "name": "reinvestRewardBips",
              "type": "uint256"
            }
          ],
          "internalType": "struct YakStrategyV2.StrategySettings",
          "name": "_strategySettings",
          "type": "tuple"
        }
      ],
      "stateMutability": "nonpayable",
      "type": "constructor"
    },
    {
      "anonymous": false,
      "inputs": [
        {
          "indexed": false,
          "internalType": "address",
          "name": "rewardToken",
          "type": "address"
        },
        {
          "indexed": false,
          "internalType": "address",
          "name": "swapPair",
          "type": "address"
        }
      ],
      "name": "AddReward",
      "type": "event"
    },
    {
      "anonymous": false,
      "inputs": [
        {
          "indexed": true,
          "internalType": "address",
          "name": "account",
          "type": "address"
        }
      ],
      "name": "AllowDepositor",
      "type": "event"
    },
    {
      "anonymous": false,
      "inputs": [
        {
          "indexed": true,
          "internalType": "address",
          "name": "owner",
          "type": "address"
        },
        {
          "indexed": true,
          "internalType": "address",
          "name": "spender",
          "type": "address"
        },
        {
          "indexed": false,
          "internalType": "uint256",
          "name": "value",
          "type": "uint256"
        }
      ],
      "name": "Approval",
      "type": "event"
    },
    {
      "anonymous": false,
      "inputs": [
        {
          "indexed": true,
          "internalType": "address",
          "name": "account",
          "type": "address"
        },
        {
          "indexed": false,
          "internalType": "uint256",
          "name": "amount",
          "type": "uint256"
        }
      ],
      "name": "Deposit",
      "type": "event"
    },
    {
      "anonymous": false,
      "inputs": [
        {
          "indexed": false,
          "internalType": "bool",
          "name": "newValue",
          "type": "bool"
        }
      ],
      "name": "DepositsEnabled",
      "type": "event"
    },
    {
      "anonymous": false,
      "inputs": [
        {
          "indexed": true,
          "internalType": "address",
          "name": "previousOwner",
          "type": "address"
        },
        {
          "indexed": true,
          "internalType": "address",
          "name": "newOwner",
          "type": "address"
        }
      ],
      "name": "OwnershipTransferred",
      "type": "event"
    },
    {
      "anonymous": false,
      "inputs": [
        {
          "indexed": false,
          "internalType": "address",
          "name": "token",
          "type": "address"
        },
        {
          "indexed": false,
          "internalType": "uint256",
          "name": "amount",
          "type": "uint256"
        }
      ],
      "name": "Recovered",
      "type": "event"
    },
    {
      "anonymous": false,
      "inputs": [
        {
          "indexed": false,
          "internalType": "uint256",
          "name": "newTotalDeposits",
          "type": "uint256"
        },
        {
          "indexed": false,
          "internalType": "uint256",
          "name": "newTotalSupply",
          "type": "uint256"
        }
      ],
      "name": "Reinvest",
      "type": "event"
    },
    {
      "anonymous": false,
      "inputs": [
        {
          "indexed": true,
          "internalType": "address",
          "name": "account",
          "type": "address"
        }
      ],
      "name": "RemoveDepositor",
      "type": "event"
    },
    {
      "anonymous": false,
      "inputs": [
        {
          "indexed": false,
          "internalType": "address",
          "name": "rewardToken",
          "type": "address"
        }
      ],
      "name": "RemoveReward",
      "type": "event"
    },
    {
      "anonymous": false,
      "inputs": [
        {
          "indexed": true,
          "internalType": "address",
          "name": "from",
          "type": "address"
        },
        {
          "indexed": true,
          "internalType": "address",
          "name": "to",
          "type": "address"
        },
        {
          "indexed": false,
          "internalType": "uint256",
          "name": "value",
          "type": "uint256"
        }
      ],
      "name": "Transfer",
      "type": "event"
    },
    {
      "anonymous": false,
      "inputs": [
        {
          "indexed": false,
          "internalType": "uint256",
          "name": "oldValue",
          "type": "uint256"
        },
        {
          "indexed": false,
          "internalType": "uint256",
          "name": "newValue",
          "type": "uint256"
        }
      ],
      "name": "UpdateAdminFee",
      "type": "event"
    },
    {
      "anonymous": false,
      "inputs": [
        {
          "indexed": false,
          "internalType": "address",
          "name": "oldValue",
          "type": "address"
        },
        {
          "indexed": false,
          "internalType": "address",
          "name": "newValue",
          "type": "address"
        }
      ],
      "name": "UpdateDevAddr",
      "type": "event"
    },
    {
      "anonymous": false,
      "inputs": [
        {
          "indexed": false,
          "internalType": "uint256",
          "name": "oldValue",
          "type": "uint256"
        },
        {
          "indexed": false,
          "internalType": "uint256",
          "name": "newValue",
          "type": "uint256"
        }
      ],
      "name": "UpdateDevFee",
      "type": "event"
    },
    {
      "anonymous": false,
      "inputs": [
        {
          "indexed": false,
          "internalType": "uint256",
          "name": "oldValue",
          "type": "uint256"
        },
        {
          "indexed": false,
          "internalType": "uint256",
          "name": "newValue",
          "type": "uint256"
        }
      ],
      "name": "UpdateMaxTokensToDepositWithoutReinvest",
      "type": "event"
    },
    {
      "anonymous": false,
      "inputs": [
        {
          "indexed": false,
          "internalType": "uint256",
          "name": "oldValue",
          "type": "uint256"
        },
        {
          "indexed": false,
          "internalType": "uint256",
          "name": "newValue",
          "type": "uint256"
        }
      ],
      "name": "UpdateMinTokensToReinvest",
      "type": "event"
    },
    {
      "anonymous": false,
      "inputs": [
        {
          "indexed": false,
          "internalType": "uint256",
          "name": "oldValue",
          "type": "uint256"
        },
        {
          "indexed": false,
          "internalType": "uint256",
          "name": "newValue",
          "type": "uint256"
        }
      ],
      "name": "UpdateReinvestReward",
      "type": "event"
    },
    {
      "anonymous": false,
      "inputs": [
        {
          "indexed": true,
          "internalType": "address",
          "name": "account",
          "type": "address"
        },
        {
          "indexed": false,
          "internalType": "uint256",
          "name": "amount",
          "type": "uint256"
        }
      ],
      "name": "Withdraw",
      "type": "event"
    },
    {
      "inputs": [],
      "name": "ADMIN_FEE_BIPS",
      "outputs": [
        {
          "internalType": "uint256",
          "name": "",
          "type": "uint256"
        }
      ],
      "stateMutability": "view",
      "type": "function"
    },
    {
      "inputs": [],
      "name": "DEPOSITS_ENABLED",
      "outputs": [
        {
          "internalType": "bool",
          "name": "",
          "type": "bool"
        }
      ],
      "stateMutability": "view",
      "type": "function"
    },
    {
      "inputs": [],
      "name": "DEV_FEE_BIPS",
      "outputs": [
        {
          "internalType": "uint256",
          "name": "",
          "type": "uint256"
        }
      ],
      "stateMutability": "view",
      "type": "function"
    },
    {
      "inputs": [],
      "name": "DOMAIN_TYPEHASH",
      "outputs": [
        {
          "internalType": "bytes32",
          "name": "",
          "type": "bytes32"
        }
      ],
      "stateMutability": "view",
      "type": "function"
    },
    {
      "inputs": [],
      "name": "MAX_TOKENS_TO_DEPOSIT_WITHOUT_REINVEST",
      "outputs": [
        {
          "internalType": "uint256",
          "name": "",
          "type": "uint256"
        }
      ],
      "stateMutability": "view",
      "type": "function"
    },
    {
      "inputs": [],
      "name": "MIN_TOKENS_TO_REINVEST",
      "outputs": [
        {
          "internalType": "uint256",
          "name": "",
          "type": "uint256"
        }
      ],
      "stateMutability": "view",
      "type": "function"
    },
    {
      "inputs": [],
      "name": "PERMIT_TYPEHASH",
      "outputs": [
        {
          "internalType": "bytes32",
          "name": "",
          "type": "bytes32"
        }
      ],
      "stateMutability": "view",
      "type": "function"
    },
    {
      "inputs": [],
      "name": "PID",
      "outputs": [
        {
          "internalType": "uint256",
          "name": "",
          "type": "uint256"
        }
      ],
      "stateMutability": "view",
      "type": "function"
    },
    {
      "inputs": [],
      "name": "PTP",
      "outputs": [
        {
          "internalType": "address",
          "name": "",
          "type": "address"
        }
      ],
      "stateMutability": "view",
      "type": "function"
    },
    {
      "inputs": [],
      "name": "REINVEST_REWARD_BIPS",
      "outputs": [
        {
          "internalType": "uint256",
          "name": "",
          "type": "uint256"
        }
      ],
      "stateMutability": "view",
      "type": "function"
    },
    {
      "inputs": [],
      "name": "VERSION_HASH",
      "outputs": [
        {
          "internalType": "bytes32",
          "name": "",
          "type": "bytes32"
        }
      ],
      "stateMutability": "view",
      "type": "function"
    },
    {
      "inputs": [
        {
          "internalType": "address",
          "name": "_rewardToken",
          "type": "address"
        },
        {
          "internalType": "address",
          "name": "_swapPair",
          "type": "address"
        }
      ],
      "name": "addReward",
      "outputs": [],
      "stateMutability": "nonpayable",
      "type": "function"
    },
    {
      "inputs": [
        {
          "internalType": "address",
          "name": "_rewardToken",
          "type": "address"
        },
        {
          "internalType": "address",
          "name": "_swapPair",
          "type": "address"
        },
        {
          "internalType": "uint256",
          "name": "_swapFee",
          "type": "uint256"
        }
      ],
      "name": "addReward",
      "outputs": [],
      "stateMutability": "nonpayable",
      "type": "function"
    },
    {
      "inputs": [
        {
          "internalType": "address",
          "name": "depositor",
          "type": "address"
        }
      ],
      "name": "allowDepositor",
      "outputs": [],
      "stateMutability": "nonpayable",
      "type": "function"
    },
    {
      "inputs": [
        {
          "internalType": "address",
          "name": "account",
          "type": "address"
        },
        {
          "internalType": "address",
          "name": "spender",
          "type": "address"
        }
      ],
      "name": "allowance",
      "outputs": [
        {
          "internalType": "uint256",
          "name": "",
          "type": "uint256"
        }
      ],
      "stateMutability": "view",
      "type": "function"
    },
    {
      "inputs": [
        {
          "internalType": "address",
          "name": "",
          "type": "address"
        }
      ],
      "name": "allowedDepositors",
      "outputs": [
        {
          "internalType": "bool",
          "name": "",
          "type": "bool"
        }
      ],
      "stateMutability": "view",
      "type": "function"
    },
    {
      "inputs": [
        {
          "internalType": "address",
          "name": "spender",
          "type": "address"
        },
        {
          "internalType": "uint256",
          "name": "amount",
          "type": "uint256"
        }
      ],
      "name": "approve",
      "outputs": [
        {
          "internalType": "bool",
          "name": "",
          "type": "bool"
        }
      ],
      "stateMutability": "nonpayable",
      "type": "function"
    },
    {
      "inputs": [],
      "name": "asset",
      "outputs": [
        {
          "internalType": "contract IPlatypusAsset",
          "name": "",
          "type": "address"
        }
      ],
      "stateMutability": "view",
      "type": "function"
    },
    {
      "inputs": [
        {
          "internalType": "address",
          "name": "account",
          "type": "address"
        }
      ],
      "name": "balanceOf",
      "outputs": [
        {
          "internalType": "uint256",
          "name": "",
          "type": "uint256"
        }
      ],
      "stateMutability": "view",
      "type": "function"
    },
    {
      "inputs": [
        {
          "internalType": "uint256",
          "name": "_amount",
          "type": "uint256"
        }
      ],
      "name": "calculateDepositFee",
      "outputs": [
        {
          "internalType": "uint256",
          "name": "",
          "type": "uint256"
        }
      ],
      "stateMutability": "view",
      "type": "function"
    },
    {
      "inputs": [
        {
          "internalType": "uint256",
          "name": "_amount",
          "type": "uint256"
        }
      ],
      "name": "calculateWithdrawFee",
      "outputs": [
        {
          "internalType": "uint256",
          "name": "",
          "type": "uint256"
        }
      ],
      "stateMutability": "view",
      "type": "function"
    },
    {
      "inputs": [],
      "name": "checkReward",
      "outputs": [
        {
          "internalType": "uint256",
          "name": "",
          "type": "uint256"
        }
      ],
      "stateMutability": "view",
      "type": "function"
    },
    {
      "inputs": [],
      "name": "decimals",
      "outputs": [
        {
          "internalType": "uint8",
          "name": "",
          "type": "uint8"
        }
      ],
      "stateMutability": "view",
      "type": "function"
    },
    {
      "inputs": [
        {
          "internalType": "uint256",
          "name": "_amount",
          "type": "uint256"
        }
      ],
      "name": "deposit",
      "outputs": [],
      "stateMutability": "nonpayable",
      "type": "function"
    },
    {
      "inputs": [
        {
          "internalType": "address",
          "name": "_account",
          "type": "address"
        },
        {
          "internalType": "uint256",
          "name": "_amount",
          "type": "uint256"
        }
      ],
      "name": "depositFor",
      "outputs": [],
      "stateMutability": "nonpayable",
      "type": "function"
    },
    {
      "inputs": [],
      "name": "depositToken",
      "outputs": [
        {
          "internalType": "contract IERC20",
          "name": "",
          "type": "address"
        }
      ],
      "stateMutability": "view",
      "type": "function"
    },
    {
      "inputs": [
        {
          "internalType": "uint256",
          "name": "_amount",
          "type": "uint256"
        },
        {
          "internalType": "uint256",
          "name": "_deadline",
          "type": "uint256"
        },
        {
          "internalType": "uint8",
          "name": "_v",
          "type": "uint8"
        },
        {
          "internalType": "bytes32",
          "name": "_r",
          "type": "bytes32"
        },
        {
          "internalType": "bytes32",
          "name": "_s",
          "type": "bytes32"
        }
      ],
      "name": "depositWithPermit",
      "outputs": [],
      "stateMutability": "nonpayable",
      "type": "function"
    },
    {
      "inputs": [],
      "name": "devAddr",
      "outputs": [
        {
          "internalType": "address",
          "name": "",
          "type": "address"
        }
      ],
      "stateMutability": "view",
      "type": "function"
    },
    {
      "inputs": [],
      "name": "estimateDeployedBalance",
      "outputs": [
        {
          "internalType": "uint256",
          "name": "",
          "type": "uint256"
        }
      ],
      "stateMutability": "view",
      "type": "function"
    },
    {
      "inputs": [],
      "name": "estimateReinvestReward",
      "outputs": [
        {
          "internalType": "uint256",
          "name": "",
          "type": "uint256"
        }
      ],
      "stateMutability": "view",
      "type": "function"
    },
    {
      "inputs": [
        {
          "internalType": "uint256",
          "name": "amount",
          "type": "uint256"
        }
      ],
      "name": "getDepositTokensForShares",
      "outputs": [
        {
          "internalType": "uint256",
          "name": "",
          "type": "uint256"
        }
      ],
      "stateMutability": "view",
      "type": "function"
    },
    {
      "inputs": [],
      "name": "getDomainSeparator",
      "outputs": [
        {
          "internalType": "bytes32",
          "name": "",
          "type": "bytes32"
        }
      ],
      "stateMutability": "view",
      "type": "function"
    },
    {
      "inputs": [
        {
          "internalType": "uint256",
          "name": "amount",
          "type": "uint256"
        }
      ],
      "name": "getSharesForDepositTokens",
      "outputs": [
        {
          "internalType": "uint256",
          "name": "",
          "type": "uint256"
        }
      ],
      "stateMutability": "view",
      "type": "function"
    },
    {
      "inputs": [],
      "name": "maxSlippage",
      "outputs": [
        {
          "internalType": "uint256",
          "name": "",
          "type": "uint256"
        }
      ],
      "stateMutability": "view",
      "type": "function"
    },
    {
      "inputs": [],
      "name": "name",
      "outputs": [
        {
          "internalType": "string",
          "name": "",
          "type": "string"
        }
      ],
      "stateMutability": "view",
      "type": "function"
    },
    {
      "inputs": [
        {
          "internalType": "address",
          "name": "",
          "type": "address"
        }
      ],
      "name": "nonces",
      "outputs": [
        {
          "internalType": "uint256",
          "name": "",
          "type": "uint256"
        }
      ],
      "stateMutability": "view",
      "type": "function"
    },
    {
      "inputs": [],
      "name": "numberOfAllowedDepositors",
      "outputs": [
        {
          "internalType": "uint256",
          "name": "",
          "type": "uint256"
        }
      ],
      "stateMutability": "view",
      "type": "function"
    },
    {
      "inputs": [],
      "name": "owner",
      "outputs": [
        {
          "internalType": "address",
          "name": "",
          "type": "address"
        }
      ],
      "stateMutability": "view",
      "type": "function"
    },
    {
      "inputs": [
        {
          "internalType": "address",
          "name": "owner",
          "type": "address"
        },
        {
          "internalType": "address",
          "name": "spender",
          "type": "address"
        },
        {
          "internalType": "uint256",
          "name": "value",
          "type": "uint256"
        },
        {
          "internalType": "uint256",
          "name": "deadline",
          "type": "uint256"
        },
        {
          "internalType": "uint8",
          "name": "v",
          "type": "uint8"
        },
        {
          "internalType": "bytes32",
          "name": "r",
          "type": "bytes32"
        },
        {
          "internalType": "bytes32",
          "name": "s",
          "type": "bytes32"
        }
      ],
      "name": "permit",
      "outputs": [],
      "stateMutability": "nonpayable",
      "type": "function"
    },
    {
      "inputs": [],
      "name": "pool",
      "outputs": [
        {
          "internalType": "contract IPlatypusPool",
          "name": "",
          "type": "address"
        }
      ],
      "stateMutability": "view",
      "type": "function"
    },
    {
      "inputs": [],
      "name": "proxy",
      "outputs": [
        {
          "internalType": "contract IPlatypusVoterProxy",
          "name": "",
          "type": "address"
        }
      ],
      "stateMutability": "view",
      "type": "function"
    },
    {
      "inputs": [
        {
          "internalType": "uint256",
          "name": "amount",
          "type": "uint256"
        }
      ],
      "name": "recoverAVAX",
      "outputs": [],
      "stateMutability": "nonpayable",
      "type": "function"
    },
    {
      "inputs": [
        {
          "internalType": "address",
          "name": "tokenAddress",
          "type": "address"
        },
        {
          "internalType": "uint256",
          "name": "tokenAmount",
          "type": "uint256"
        }
      ],
      "name": "recoverERC20",
      "outputs": [],
      "stateMutability": "nonpayable",
      "type": "function"
    },
    {
      "inputs": [],
      "name": "reinvest",
      "outputs": [],
      "stateMutability": "nonpayable",
      "type": "function"
    },
    {
      "inputs": [
        {
          "internalType": "address",
          "name": "depositor",
          "type": "address"
        }
      ],
      "name": "removeDepositor",
      "outputs": [],
      "stateMutability": "nonpayable",
      "type": "function"
    },
    {
      "inputs": [
        {
          "internalType": "address",
          "name": "_rewardToken",
          "type": "address"
        }
      ],
      "name": "removeReward",
      "outputs": [],
      "stateMutability": "nonpayable",
      "type": "function"
    },
    {
      "inputs": [],
      "name": "renounceOwnership",
      "outputs": [],
      "stateMutability": "nonpayable",
      "type": "function"
    },
    {
      "inputs": [
        {
          "internalType": "uint256",
          "name": "_minReturnAmountAccepted",
          "type": "uint256"
        },
        {
          "internalType": "bool",
          "name": "",
          "type": "bool"
        }
      ],
      "name": "rescueDeployedFunds",
      "outputs": [],
      "stateMutability": "nonpayable",
      "type": "function"
    },
    {
      "inputs": [
        {
          "internalType": "address",
          "name": "token",
          "type": "address"
        },
        {
          "internalType": "address",
          "name": "spender",
          "type": "address"
        }
      ],
      "name": "revokeAllowance",
      "outputs": [],
      "stateMutability": "nonpayable",
      "type": "function"
    },
    {
      "inputs": [],
      "name": "rewardCount",
      "outputs": [
        {
          "internalType": "uint256",
          "name": "",
          "type": "uint256"
        }
      ],
      "stateMutability": "view",
      "type": "function"
    },
    {
      "inputs": [
        {
          "internalType": "address",
          "name": "",
          "type": "address"
        }
      ],
      "name": "rewardSwapPairs",
      "outputs": [
        {
          "internalType": "address",
          "name": "reward",
          "type": "address"
        },
        {
          "internalType": "address",
          "name": "swapPair",
          "type": "address"
        },
        {
          "internalType": "uint256",
          "name": "swapFee",
          "type": "uint256"
        }
      ],
      "stateMutability": "view",
      "type": "function"
    },
    {
      "inputs": [],
      "name": "rewardToken",
      "outputs": [
        {
          "internalType": "contract IERC20",
          "name": "",
          "type": "address"
        }
      ],
      "stateMutability": "view",
      "type": "function"
    },
    {
      "inputs": [
        {
          "internalType": "address",
          "name": "_voterProxy",
          "type": "address"
        }
      ],
      "name": "setPlatypusVoterProxy",
      "outputs": [],
      "stateMutability": "nonpayable",
      "type": "function"
    },
    {
      "inputs": [
        {
          "internalType": "uint256",
          "name": "",
          "type": "uint256"
        }
      ],
      "name": "supportedRewards",
      "outputs": [
        {
          "internalType": "address",
          "name": "",
          "type": "address"
        }
      ],
      "stateMutability": "view",
      "type": "function"
    },
    {
      "inputs": [],
      "name": "swapPairToken",
      "outputs": [
        {
          "internalType": "address",
          "name": "",
          "type": "address"
        }
      ],
      "stateMutability": "view",
      "type": "function"
    },
    {
      "inputs": [],
      "name": "symbol",
      "outputs": [
        {
          "internalType": "string",
          "name": "",
          "type": "string"
        }
      ],
      "stateMutability": "view",
      "type": "function"
    },
    {
      "inputs": [],
      "name": "totalDeposits",
      "outputs": [
        {
          "internalType": "uint256",
          "name": "",
          "type": "uint256"
        }
      ],
      "stateMutability": "view",
      "type": "function"
    },
    {
      "inputs": [],
      "name": "totalSupply",
      "outputs": [
        {
          "internalType": "uint256",
          "name": "",
          "type": "uint256"
        }
      ],
      "stateMutability": "view",
      "type": "function"
    },
    {
      "inputs": [
        {
          "internalType": "address",
          "name": "dst",
          "type": "address"
        },
        {
          "internalType": "uint256",
          "name": "amount",
          "type": "uint256"
        }
      ],
      "name": "transfer",
      "outputs": [
        {
          "internalType": "bool",
          "name": "",
          "type": "bool"
        }
      ],
      "stateMutability": "nonpayable",
      "type": "function"
    },
    {
      "inputs": [
        {
          "internalType": "address",
          "name": "src",
          "type": "address"
        },
        {
          "internalType": "address",
          "name": "dst",
          "type": "address"
        },
        {
          "internalType": "uint256",
          "name": "amount",
          "type": "uint256"
        }
      ],
      "name": "transferFrom",
      "outputs": [
        {
          "internalType": "bool",
          "name": "",
          "type": "bool"
        }
      ],
      "stateMutability": "nonpayable",
      "type": "function"
    },
    {
      "inputs": [
        {
          "internalType": "address",
          "name": "newOwner",
          "type": "address"
        }
      ],
      "name": "transferOwnership",
      "outputs": [],
      "stateMutability": "nonpayable",
      "type": "function"
    },
    {
      "inputs": [
        {
          "internalType": "uint256",
          "name": "newValue",
          "type": "uint256"
        }
      ],
      "name": "updateAdminFee",
      "outputs": [],
      "stateMutability": "nonpayable",
      "type": "function"
    },
    {
      "inputs": [
        {
          "internalType": "bool",
          "name": "newValue",
          "type": "bool"
        }
      ],
      "name": "updateDepositsEnabled",
      "outputs": [],
      "stateMutability": "nonpayable",
      "type": "function"
    },
    {
      "inputs": [
        {
          "internalType": "address",
          "name": "newValue",
          "type": "address"
        }
      ],
      "name": "updateDevAddr",
      "outputs": [],
      "stateMutability": "nonpayable",
      "type": "function"
    },
    {
      "inputs": [
        {
          "internalType": "uint256",
          "name": "newValue",
          "type": "uint256"
        }
      ],
      "name": "updateDevFee",
      "outputs": [],
      "stateMutability": "nonpayable",
      "type": "function"
    },
    {
      "inputs": [
        {
          "internalType": "uint256",
          "name": "slippageBips",
          "type": "uint256"
        }
      ],
      "name": "updateMaxSwapSlippage",
      "outputs": [],
      "stateMutability": "nonpayable",
      "type": "function"
    },
    {
      "inputs": [
        {
          "internalType": "uint256",
          "name": "newValue",
          "type": "uint256"
        }
      ],
      "name": "updateMaxTokensToDepositWithoutReinvest",
      "outputs": [],
      "stateMutability": "nonpayable",
      "type": "function"
    },
    {
      "inputs": [
        {
          "internalType": "uint256",
          "name": "newValue",
          "type": "uint256"
        }
      ],
      "name": "updateMinTokensToReinvest",
      "outputs": [],
      "stateMutability": "nonpayable",
      "type": "function"
    },
    {
      "inputs": [
        {
          "internalType": "uint256",
          "name": "newValue",
          "type": "uint256"
        }
      ],
      "name": "updateReinvestReward",
      "outputs": [],
      "stateMutability": "nonpayable",
      "type": "function"
    },
    {
      "inputs": [
        {
          "internalType": "uint256",
          "name": "_amount",
          "type": "uint256"
        }
      ],
      "name": "withdraw",
      "outputs": [],
      "stateMutability": "nonpayable",
      "type": "function"
    },
    {
      "inputs": [],
      "name": "yyAVAX",
      "outputs": [
        {
          "internalType": "address",
          "name": "",
          "type": "address"
        }
      ],
      "stateMutability": "view",
      "type": "function"
    }
  ],
  "transactionHash": "0x63dc7f3c0b724e0a562f4d0ecd0abf2a24b67d702644eb07ae95dfbee9eea1f3",
  "args": [
    {
      "pool": "0x8b4a45da5b0705ae4f47ebefc180c099345cf57e",
      "swapPairToken": "0xb31f66aa3c1e785363f0875a1b74e27b85fd66c7",
      "pid": "23",
      "maxSlippage": "100",
      "voterProxy": "0xE7ff20a6704bDab44B34cE6e6ef4776898Cc66bf"
    },
    {
      "name": "Yield Yak: Platypus yyAVAX",
      "platformToken": "0xb31f66aa3c1e785363f0875a1b74e27b85fd66c7",
      "rewardSwapPairs": [
        {
          "reward": "0x22d4002028f537599be9f666d1c4fa138522f9c8",
          "swapPair": "0xcdfd91eea657cc2701117fe9711c9a4f61feed23",
          "swapFee": "3"
        },
        {
          "reward": "0xb31f66aa3c1e785363f0875a1b74e27b85fd66c7",
          "swapPair": "0x0000000000000000000000000000000000000000",
          "swapFee": "0"
        }
      ],
      "timelock": "0xDcEDF06Fd33E1D7b6eb4b309f779a0e9D3172e44"
    },
    {
      "depositToken": "0xF7D9281e8e363584973F946201b82ba72C965D27",
      "rewardToken": "0xb31f66aa3c1e785363f0875a1b74e27b85fd66c7",
      "minTokensToReinvest": "10000000000000000",
      "adminFeeBips": 0,
      "devFeeBips": 700,
      "reinvestRewardBips": 300
    }
  ],
  "solcInputHash": "b19b0c29fa4a9c27443fa0699bac9f08",
  "bytecode": "0x6101a06040526009610160819052685969656c642059616b60b81b6101809081526200002f916000919062000a95565b506040805180820190915260038082526216549560ea1b60209092019182526200005c9160019162000a95565b503480156200006a57600080fd5b5060405162006814380380620068148339810160408190526200008d9162000e5b565b828282818180600033600680546001600160a01b0319166001600160a01b03831690811790915560405191925090600090600080516020620067f4833981519152908290a35080516001600160a01b0390811660805260208201511660a0526040810151620000fc9062000337565b60608101516200010c90620003c7565b60808101516200011c9062000472565b5081518051620001359160009160209091019062000a95565b5060208201516001600160a01b031660c052600980546001600160a01b031916732d580f9cf2fb2d09bc411532988f2afda4e7beff17905560005b8260400151518110156200021257620001fd836040015182815181106200019b576200019b62000f1a565b60200260200101516000015184604001518381518110620001c057620001c062000f1a565b60200260200101516020015185604001518481518110620001e557620001e562000f1a565b6020026020010151604001516200051d60201b60201c565b80620002098162000f46565b91505062000170565b506200021f6001620006c9565b60608201516200022f9062000773565b60408051600080825260208201527fc7606d21ac05cd309191543e409f0845c016120563783d70e4f41419dc0ef234910160405180910390a150506040838101516101205283516001600160a01b03908116610100819052835192516371f9621160e01b8152929091166004830152906371f9621190602401602060405180830381865afa158015620002c6573d6000803e3d6000fd5b505050506040513d601f19601f82011682018060405250810190620002ec919062000f62565b6001600160a01b0390811660e0526080840151601380546001600160a01b0319169183169190911790556060840151601455602090930151909216610140525062000fde9350505050565b6006546001600160a01b03163314620003865760405162461bcd60e51b81526020600482018190526024820152600080516020620067d483398151915260448201526064015b60405180910390fd5b600a5460408051918252602082018390527f481f79ac3a523b6d6db3c5a720e190e986d1cc1b41adcdf50f9caef849901100910160405180910390a1600a55565b6006546001600160a01b03163314620004125760405162461bcd60e51b81526020600482018190526024820152600080516020620067d483398151915260448201526064016200037d565b612710600e548262000425919062000f87565b11156200043157600080fd5b600f5460408051918252602082018390527f2a42303d002f0ba6cfe8259c91d4684443fb0b3de286ba74991175d651726131910160405180910390a1600f55565b6006546001600160a01b03163314620004bd5760405162461bcd60e51b81526020600482018190526024820152600080516020620067d483398151915260448201526064016200037d565b612710600f5482620004d0919062000f87565b1115620004dc57600080fd5b600e5460408051918252602082018390527fe7f97d51d307dc44045597c9978bec0f842e6bb40d19b9444084cfa30d9ed4f2910160405180910390a1600e55565b60a0516001600160a01b0316836001600160a01b031614620005c95762000553828460a0516200087060201b620027391760201c565b620005c9576040805162461bcd60e51b81526020600482015260248101919091527f5661726961626c655265776172647353747261746567793a3a5377617020706160448201527f697220646f6573206e6f7420636f6e7461696e2072657761726420746f6b656e60648201526084016200037d565b604080516060810182526001600160a01b03808616808352858216602080850191825284860187815260008481526010909252958120945185549085166001600160a01b03199182161786559151600180870180549290961691841691909117909455945160029094019390935560118054808401825594527f31ecc21a745e3968a04e9570e4425bc18fa8019c68028196b546d1669c200c68909301805490921690921790556012546200067e9162000f87565b601255604080516001600160a01b038086168252841660208201527f916e172c080569186aa7ea048268267257cf7cc49505908863f747bca8620f80910160405180910390a1505050565b6006546001600160a01b03163314620007145760405162461bcd60e51b81526020600482018190526024820152600080516020620067d483398151915260448201526064016200037d565b600c5481151560ff9091161515036200072c57600080fd5b600c805460ff19168215159081179091556040519081527f7b014ed3854e7f5cb0218d58b3c6ae7d53a68bb0af2f67bfb029ea42c38a7e859060200160405180910390a150565b6006546001600160a01b03163314620007be5760405162461bcd60e51b81526020600482018190526024820152600080516020620067d483398151915260448201526064016200037d565b6001600160a01b038116620008255760405162461bcd60e51b815260206004820152602660248201527f4f776e61626c653a206e6577206f776e657220697320746865207a65726f206160448201526564647265737360d01b60648201526084016200037d565b6006546040516001600160a01b03808416921690600080516020620067f483398151915290600090a3600680546001600160a01b0319166001600160a01b0392909216919091179055565b6000836001600160a01b0316630dfe16816040518163ffffffff1660e01b8152600401602060405180830381865afa158015620008b1573d6000803e3d6000fd5b505050506040513d601f19601f82011682018060405250810190620008d7919062000f62565b6001600160a01b0316836001600160a01b031614806200096c5750836001600160a01b031663d21220a76040518163ffffffff1660e01b8152600401602060405180830381865afa15801562000931573d6000803e3d6000fd5b505050506040513d601f19601f8201168201806040525081019062000957919062000f62565b6001600160a01b0316836001600160a01b0316145b801562000a6e5750836001600160a01b0316630dfe16816040518163ffffffff1660e01b8152600401602060405180830381865afa158015620009b3573d6000803e3d6000fd5b505050506040513d601f19601f82011682018060405250810190620009d9919062000f62565b6001600160a01b0316826001600160a01b0316148062000a6e5750836001600160a01b031663d21220a76040518163ffffffff1660e01b8152600401602060405180830381865afa15801562000a33573d6000803e3d6000fd5b505050506040513d601f19601f8201168201806040525081019062000a59919062000f62565b6001600160a01b0316826001600160a01b0316145b801562000a8d5750816001600160a01b0316836001600160a01b031614155b949350505050565b82805462000aa39062000fa2565b90600052602060002090601f01602090048101928262000ac7576000855562000b12565b82601f1062000ae257805160ff191683800117855562000b12565b8280016001018555821562000b12579182015b8281111562000b1257825182559160200191906001019062000af5565b5062000b2092915062000b24565b5090565b5b8082111562000b20576000815560010162000b25565b634e487b7160e01b600052604160045260246000fd5b604051606081016001600160401b038111828210171562000b765762000b7662000b3b565b60405290565b604051608081016001600160401b038111828210171562000b765762000b7662000b3b565b60405160a081016001600160401b038111828210171562000b765762000b7662000b3b565b604051601f8201601f191681016001600160401b038111828210171562000bf15762000bf162000b3b565b604052919050565b80516001600160a01b038116811462000c1157600080fd5b919050565b600082601f83011262000c2857600080fd5b815160206001600160401b0382111562000c465762000c4662000b3b565b62000c56818360051b0162000bc6565b8281526060928302850182019282820191908785111562000c7657600080fd5b8387015b8581101562000cd45781818a03121562000c945760008081fd5b62000c9e62000b51565b62000ca98262000bf9565b815262000cb886830162000bf9565b8187015260408281015190820152845292840192810162000c7a565b5090979650505050505050565b60006080828403121562000cf457600080fd5b62000cfe62000b7c565b82519091506001600160401b038082111562000d1957600080fd5b818401915084601f83011262000d2e57600080fd5b81518181111562000d435762000d4362000b3b565b602062000d59601f8301601f1916820162000bc6565b828152878284870101111562000d6e57600080fd5b60005b8381101562000d8e57858101830151828201840152820162000d71565b8381111562000da05760008385840101525b50855262000db086820162000bf9565b9085015250604084015191508082111562000dca57600080fd5b5062000dd98482850162000c16565b60408301525062000ded6060830162000bf9565b606082015292915050565b600060a0828403121562000e0b57600080fd5b62000e1562000ba1565b905062000e228262000bf9565b815262000e326020830162000bf9565b602082015260408201516040820152606082015160608201526080820151608082015292915050565b600080600083850361016081121562000e7357600080fd5b60a081121562000e8257600080fd5b5062000e8d62000ba1565b62000e988562000bf9565b815262000ea86020860162000bf9565b6020820152604085015160408201526060850151606082015262000ecf6080860162000bf9565b608082015260a08501519093506001600160401b0381111562000ef157600080fd5b62000eff8682870162000ce1565b92505062000f118560c0860162000df8565b90509250925092565b634e487b7160e01b600052603260045260246000fd5b634e487b7160e01b600052601160045260246000fd5b60006001820162000f5b5762000f5b62000f30565b5060010190565b60006020828403121562000f7557600080fd5b62000f808262000bf9565b9392505050565b6000821982111562000f9d5762000f9d62000f30565b500190565b600181811c9082168062000fb757607f821691505b60208210810362000fd857634e487b7160e01b600052602260045260246000fd5b50919050565b60805160a05160c05160e05161010051610120516101405161560c620011c8600039600081816106ea0152614c250152600081816106c3015281816112e901528181612c0201528181612c98015281816132b9015281816133cb0152818161488e01526149a301526000818161050a01528181612ba101528181612ccd015281816132ee015281816134a901528181613fa7015281816140ab015281816141300152818161451f01528181614631015281816146b501526148c301526000818161060801528181612bc201528181612d1d0152818161333e0152614913015260008181611f44015281816134ed015281816135de015281816140670152818161428c015281816142bb0152818161433e0152818161454e015281816145d301526146e7015260008181610aa901528181611ed501528181611f6e01528181611fd801528181612151015281816130ba015281816130f80152818161393701528181613992015281816141e0015281816143680152818161443c01528181614bac0152614be301526000818161098301528181610d3c01528181610e6c01528181611c4901528181611cde01528181612cf501528181612f5c01528181613316015281816144db0152818161483a015281816148eb01528181614b820152614c04015261560c6000f3fe608060405234801561001057600080fd5b506004361061048d5760003560e01c80638b73e6061161026b578063b9e57b8011610150578063dd8ce4d6116100c8578063ec55688911610097578063f2fde38b1161007c578063f2fde38b14610a91578063f7c618c114610aa4578063fdb5a03e14610acb57600080fd5b8063ec55688914610a76578063ed24911d14610a8957600080fd5b8063dd8ce4d614610a2a578063e21ac82514610a3d578063e75ab04514610a50578063eab89a5a14610a6357600080fd5b8063cff1b6ef1161011f578063d505accf11610104578063d505accf146109cb578063da09c72c146109de578063dd62ed3e146109f157600080fd5b8063cff1b6ef146109a5578063d0ed26ae146109b857600080fd5b8063b9e57b8014610965578063bd079f551461096d578063c4b24a4614610976578063c89039c51461097e57600080fd5b80639f0237b1116101e3578063a9059cbb116101b2578063ac0d31ff11610197578063ac0d31ff14610932578063b52a321f14610945578063b6b55f251461095257600080fd5b8063a9059cbb1461090c578063abff19631461091f57600080fd5b80639f0237b114610871578063a4d5e67c14610884578063a5534e7114610897578063a8ae2b7c146108f957600080fd5b80638ea42f301161023a57806395d89b411161021f57806395d89b411461082f57806399729ec1146108375780639e4e73181461084a57600080fd5b80638ea42f30146108015780639291d5631461081c57600080fd5b80638b73e606146107b95780638c04166f146107cc5780638da5cb5b146107d55780638dc1564a146107e657600080fd5b8063483c2ef011610391578063715018a6116103095780637d882097116102d857806381837230116102bd578063818372301461078a5780638980f11f1461079d5780638aff733d146107b057600080fd5b80637d882097146107625780637ecebe001461076a57600080fd5b8063715018a614610735578063789139bc1461073d57806379085425146107465780637ae267731461074f57600080fd5b80634ebb7916116103605780635eaec0e4116103455780635eaec0e4146106be578063633afd28146106e557806370a082311461070c57600080fd5b80634ebb7916146106a25780635ea682ea146106b557600080fd5b8063483c2ef0146106465780634a970be7146106695780634bebd1e71461067c5780634e77ace51461068f57600080fd5b806323b872dd1161042457806330adf81f116103f357806338d52e0f116103d857806338d52e0f146106035780633bdc6e721461062a57806340b47e1a1461063357600080fd5b806330adf81f146105c2578063313ce567146105e957600080fd5b806323b872dd14610574578063247d284b146105875780632e1a7d4d1461059a5780632f4f21e2146105af57600080fd5b8063110560351161046057806311056035146104f257806316f0115b1461050557806318160ddd1461054457806320606b701461054d57600080fd5b806306fdde031461049257806307677111146104b0578063095ea7b3146104c75780630f23475d146104ea575b600080fd5b61049a610ad3565b6040516104a79190614f72565b60405180910390f35b6104b9600d5481565b6040519081526020016104a7565b6104da6104d5366004614f9a565b610b61565b60405190151581526020016104a7565b6104b9610b78565b6104b9610500366004614fc6565b610ba3565b61052c7f000000000000000000000000000000000000000000000000000000000000000081565b6040516001600160a01b0390911681526020016104a7565b6104b960025481565b6104b97f8b73c3c69bb8fe3d512ecc4cf759cc79239f7b179b0ffacaa9a75d522b39400f81565b6104da610582366004614fdf565b610bae565b6104b9610595366004614fc6565b610c77565b6105ad6105a8366004614fc6565b610c82565b005b6105ad6105bd366004614f9a565b610da8565b6104b97f6e71edae12b1b97f4d1f60370fef10105fa2faae0126114a169c64845d6126c981565b6105f1601281565b60405160ff90911681526020016104a7565b61052c7f000000000000000000000000000000000000000000000000000000000000000081565b6104b960075481565b6105ad610641366004615020565b610db6565b6104da610654366004615059565b60086020526000908152604090205460ff1681565b6105ad610677366004615087565b610e13565b6105ad61068a366004615059565b610ee1565b6105ad61069d3660046150dc565b610ffe565b6105ad6106b0366004614fc6565b6110a5565b6104b9600f5481565b6104b97f000000000000000000000000000000000000000000000000000000000000000081565b61052c7f000000000000000000000000000000000000000000000000000000000000000081565b6104b961071a366004615059565b6001600160a01b031660009081526004602052604090205490565b6105ad61115f565b6104b9600b5481565b6104b960125481565b6105ad61075d366004615020565b6111f1565b6104b96112b5565b6104b9610778366004615059565b60056020526000908152604090205481565b6105ad610798366004614fc6565b611366565b6105ad6107ab366004614f9a565b6113ef565b6104b9600e5481565b6105ad6107c7366004615059565b611505565b6104b960145481565b6006546001600160a01b031661052c565b61052c7322d4002028f537599be9f666d1c4fa138522f9c881565b61052c73f7d9281e8e363584973f946201b82ba72c965d2781565b6105ad61082a366004615059565b6116c1565b61049a61177b565b6105ad610845366004614fc6565b611788565b6104b97fc89efdaa54c0f20c7adf612882df0950f5a951637e0307cdcb4c672f298b8bc681565b6105ad61087f366004615059565b61182d565b6105ad610892366004615059565b611897565b6108d36108a5366004615059565b6010602052600090815260409020805460018201546002909201546001600160a01b03918216929091169083565b604080516001600160a01b039485168152939092166020840152908201526060016104a7565b6105ad610907366004614fc6565b611ae1565b6104da61091a366004614f9a565b611b86565b6105ad61092d366004614fc6565b611b93565b6105ad6109403660046150f9565b611be9565b600c546104da9060ff1681565b6105ad610960366004614fc6565b611e5b565b6104b9611e68565b6104b9600a5481565b6104b9611ea7565b61052c7f000000000000000000000000000000000000000000000000000000000000000081565b6105ad6109b3366004614fc6565b6121e7565b6105ad6109c6366004614fdf565b61227b565b6105ad6109d936600461511e565b6122dc565b60095461052c906001600160a01b031681565b6104b96109ff366004615020565b6001600160a01b03918216600090815260036020908152604080832093909416825291909152205490565b6104b9610a38366004614fc6565b6123ef565b6105ad610a4b366004614fc6565b612430565b61052c610a5e366004614fc6565b6124b9565b6104b9610a71366004614fc6565b6124e3565b60135461052c906001600160a01b031681565b6104b961251e565b6105ad610a9f366004615059565b6125be565b61052c7f000000000000000000000000000000000000000000000000000000000000000081565b6105ad6126de565b60008054610ae09061518c565b80601f0160208091040260200160405190810160405280929190818152602001828054610b0c9061518c565b8015610b595780601f10610b2e57610100808354040283529160200191610b59565b820191906000526020600020905b815481529060010190602001808311610b3c57829003601f168201915b505050505081565b6000610b6e33848461294e565b5060015b92915050565b600080610b836112b5565b90506000610b9082612a5c565b9050610b9c81836151d6565b9250505090565b6000610b7282612a5c565b6001600160a01b038316600081815260036020908152604080832033808552925282205491929091908214801590610be857506000198114155b15610c5e576000610bf985836151d6565b6001600160a01b038881166000818152600360209081526040808320948916808452948252918290208590559051848152939450919290917f8c5be1e5ebec7d5bd14f71427d1e84f3dd0314c0f7b2291e5b200ac8c7c3b925910160405180910390a3505b610c69868686612a76565b6001925050505b9392505050565b6000610b7282612b9a565b6000610c8d826124e3565b905060008111610d0a5760405162461bcd60e51b815260206004820152603060248201527f5661726961626c655265776172647353747261746567793a3a5769746864726160448201527f7720616d6f756e7420746f6f206c6f770000000000000000000000000000000060648201526084015b60405180910390fd5b6000610d1582612be7565b90506000610d2283612a5c565b9050610d6333610d3283856151d6565b6001600160a01b037f0000000000000000000000000000000000000000000000000000000000000000169190612d7f565b610d6d3385612de6565b60405183815233907f884edad9ce6fa2440d8a54cc123490eb96d2768479d49ff9c7366125a94243649060200160405180910390a250505050565b610db28282612e7a565b5050565b6009546001600160a01b03163314610e075760405162461bcd60e51b81526020600482015260146024820152732cb0b5a9ba3930ba32b3bc9d1d37b7363ca232bb60611b6044820152606401610d01565b610db2828260036130b8565b6040517fd505accf000000000000000000000000000000000000000000000000000000008152336004820152306024820152604481018690526064810185905260ff8416608482015260a4810183905260c481018290527f00000000000000000000000000000000000000000000000000000000000000006001600160a01b03169063d505accf9060e401600060405180830381600087803b158015610eb857600080fd5b505af1158015610ecc573d6000803e3d6000fd5b50505050610eda3386612e7a565b5050505050565b6006546001600160a01b03163314610f295760405162461bcd60e51b815260206004820181905260248201526000805160206155b78339815191526044820152606401610d01565b6001600160a01b03811660009081526008602052604090205460ff1615610f925760405162461bcd60e51b815260206004820152601c60248201527f5065726d697373696f6e65643a3a616c6c6f774465706f7369746f72000000006044820152606401610d01565b6001600160a01b0381166000908152600860205260409020805460ff19166001908117909155600754610fc4916151ed565b6007556040516001600160a01b038216907fc0a1035c16faf8d1304056d92c00edf028f87e62b8235a938f00af9e3c0312c590600090a250565b6006546001600160a01b031633146110465760405162461bcd60e51b815260206004820181905260248201526000805160206155b78339815191526044820152606401610d01565b600c5481151560ff90911615150361105d57600080fd5b600c805460ff19168215159081179091556040519081527f7b014ed3854e7f5cb0218d58b3c6ae7d53a68bb0af2f67bfb029ea42c38a7e85906020015b60405180910390a150565b6006546001600160a01b031633146110ed5760405162461bcd60e51b815260206004820181905260248201526000805160206155b78339815191526044820152606401610d01565b600081116110fa57600080fd5b604051339082156108fc029083906000818181858888f19350505050158015611127573d6000803e3d6000fd5b506040805160008152602081018390527f8c1256b8896378cd5044f80c202f9772b9d77dc85c8a6eb51967210b09bfaa28910161109a565b6006546001600160a01b031633146111a75760405162461bcd60e51b815260206004820181905260248201526000805160206155b78339815191526044820152606401610d01565b6006546040516000916001600160a01b0316907f8be0079c531659141344cd1fd0a4f28419497f9722a3daafe3b4186f6b6457e0908390a3600680546001600160a01b0319169055565b6006546001600160a01b031633146112395760405162461bcd60e51b815260206004820181905260248201526000805160206155b78339815191526044820152606401610d01565b60405163095ea7b360e01b81526001600160a01b0382811660048301526000602483015283169063095ea7b3906044016020604051808303816000875af1158015611288573d6000803e3d6000fd5b505050506040513d601f19601f820116820180604052508101906112ac9190615205565b610db257600080fd5b6013546040517f01e1c48d0000000000000000000000000000000000000000000000000000000081526000600482018190527f000000000000000000000000000000000000000000000000000000000000000060248301529182916001600160a01b03909116906301e1c48d90604401602060405180830381865afa158015611342573d6000803e3d6000fd5b505050506040513d601f19601f82011682018060405250810190610b729190615222565b6006546001600160a01b031633146113ae5760405162461bcd60e51b815260206004820181905260248201526000805160206155b78339815191526044820152606401610d01565b600a5460408051918252602082018390527f481f79ac3a523b6d6db3c5a720e190e986d1cc1b41adcdf50f9caef849901100910160405180910390a1600a55565b6006546001600160a01b031633146114375760405162461bcd60e51b815260206004820181905260248201526000805160206155b78339815191526044820152606401610d01565b6000811161144457600080fd5b60405163a9059cbb60e01b8152336004820152602481018290526001600160a01b0383169063a9059cbb906044016020604051808303816000875af1158015611491573d6000803e3d6000fd5b505050506040513d601f19601f820116820180604052508101906114b59190615205565b6114be57600080fd5b604080516001600160a01b0384168152602081018390527f8c1256b8896378cd5044f80c202f9772b9d77dc85c8a6eb51967210b09bfaa2891015b60405180910390a15050565b6006546001600160a01b0316331461154d5760405162461bcd60e51b815260206004820181905260248201526000805160206155b78339815191526044820152606401610d01565b6000600754116115c55760405162461bcd60e51b815260206004820152603460248201527f5065726d697373696f6e65643a3a72656d6f76654465706f7369746f722c206e60448201527f6f20616c6c6f776564206465706f7369746f72730000000000000000000000006064820152608401610d01565b6001600160a01b03811660009081526008602052604090205460ff1615156001146116585760405162461bcd60e51b815260206004820152602a60248201527f5065726d697373696f6e65643a3a72656d6f76654465706f7369746f722c206e60448201527f6f7420616c6c6f776564000000000000000000000000000000000000000000006064820152608401610d01565b6001600160a01b0381166000908152600860205260409020805460ff19169055600754611687906001906151d6565b6007556040516001600160a01b038216907f0e86f6608b536e5339a25b65ff531f5ea91e1313d056ecd4752b35cbd16137d490600090a250565b6009546001600160a01b031633146117125760405162461bcd60e51b81526020600482015260146024820152732cb0b5a9ba3930ba32b3bc9d1d37b7363ca232bb60611b6044820152606401610d01565b600954604080516001600160a01b03928316815291831660208301527fa8e91499ed37682f43cffb045fcc7d379a91e8c9a14e6321877ee34dee564c00910160405180910390a1600980546001600160a01b0319166001600160a01b0392909216919091179055565b60018054610ae09061518c565b6006546001600160a01b031633146117d05760405162461bcd60e51b815260206004820181905260248201526000805160206155b78339815191526044820152606401610d01565b612710600e54826117e191906151ed565b11156117ec57600080fd5b600f5460408051918252602082018390527f2a42303d002f0ba6cfe8259c91d4684443fb0b3de286ba74991175d651726131910160405180910390a1600f55565b6006546001600160a01b031633146118755760405162461bcd60e51b815260206004820181905260248201526000805160206155b78339815191526044820152606401610d01565b601380546001600160a01b0319166001600160a01b0392909216919091179055565b6009546001600160a01b031633146118e85760405162461bcd60e51b81526020600482015260146024820152732cb0b5a9ba3930ba32b3bc9d1d37b7363ca232bb60611b6044820152606401610d01565b6001600160a01b038116600090815260106020526040812080546001600160a01b031990811682556001820180549091169055600201819055805b6011548110156119ef57601181815481106119405761194061523b565b6000918252602090912001546001600160a01b03908116908416036119dd5760118054600193506119729084906151d6565b815481106119825761198261523b565b600091825260209091200154601180546001600160a01b0390921691839081106119ae576119ae61523b565b9060005260206000200160006101000a8154816001600160a01b0302191690836001600160a01b031602179055505b806119e781615251565b915050611923565b5080611a635760405162461bcd60e51b815260206004820152603460248201527f5661726961626c655265776172647353747261746567793a3a5265776172642060448201527f746f2064656c657465206e6f7420666f756e64210000000000000000000000006064820152608401610d01565b6011805480611a7457611a7461526a565b600082815260209020810160001990810180546001600160a01b0319169055019055601254611aa5906001906151d6565b6012556040516001600160a01b03831681527f963b7c735475147a62c589c2d7cb8ec4b0a6b7af4f97373d79ebfa42ab8aa7dc906020016114f9565b6006546001600160a01b03163314611b295760405162461bcd60e51b815260206004820181905260248201526000805160206155b78339815191526044820152606401610d01565b612710600f5482611b3a91906151ed565b1115611b4557600080fd5b600e5460408051918252602082018390527fe7f97d51d307dc44045597c9978bec0f842e6bb40d19b9444084cfa30d9ed4f2910160405180910390a1600e55565b6000610b6e338484612a76565b6009546001600160a01b03163314611be45760405162461bcd60e51b81526020600482015260146024820152732cb0b5a9ba3930ba32b3bc9d1d37b7363ca232bb60611b6044820152606401610d01565b601455565b6006546001600160a01b03163314611c315760405162461bcd60e51b815260206004820181905260248201526000805160206155b78339815191526044820152606401610d01565b6040516370a0823160e01b81523060048201526000907f00000000000000000000000000000000000000000000000000000000000000006001600160a01b0316906370a0823190602401602060405180830381865afa158015611c98573d6000803e3d6000fd5b505050506040513d601f19601f82011682018060405250810190611cbc9190615222565b9050611cc661328e565b6040516370a0823160e01b81523060048201526000907f00000000000000000000000000000000000000000000000000000000000000006001600160a01b0316906370a0823190602401602060405180830381865afa158015611d2d573d6000803e3d6000fd5b505050506040513d601f19601f82011682018060405250810190611d519190615222565b905083611d5e83836151d6565b1015611df85760405162461bcd60e51b815260206004820152604d60248201527f5661726961626c655265776172647353747261746567793a3a456d657267656e60448201527f6379207769746864726177206d696e696d756d2072657475726e20616d6f756e60648201527f74206e6f74207265616368656400000000000000000000000000000000000000608482015260a401610d01565b7fc7606d21ac05cd309191543e409f0845c016120563783d70e4f41419dc0ef234611e216112b5565b6002546040805192835260208301919091520160405180910390a1600c5460ff161515600103611e5557611e556000610ffe565b50505050565b611e653382612e7a565b50565b600080611e73611ea7565b9050600a548110611e9f57612710600e5482611e8f9190615280565b611e9991906152b5565b91505090565b600091505090565b600080611eb26133a0565b6040516370a0823160e01b81523060048201529091506000906001600160a01b037f000000000000000000000000000000000000000000000000000000000000000016906370a0823190602401602060405180830381865afa158015611f1c573d6000803e3d6000fd5b505050506040513d601f19601f82011682018060405250810190611f409190615222565b90507f00000000000000000000000000000000000000000000000000000000000000006001600160a01b03167f00000000000000000000000000000000000000000000000000000000000000006001600160a01b031603611fa857611fa547826151ed565b90505b60005b82518110156121e0576000838281518110611fc857611fc861523b565b60200260200101516000015190507f00000000000000000000000000000000000000000000000000000000000000006001600160a01b0316816001600160a01b03160361203f578382815181106120215761202161523b565b6020026020010151602001518361203891906151ed565b92506121cd565b6001600160a01b038116156121cd576040516370a0823160e01b81523060048201526000906001600160a01b038316906370a0823190602401602060405180830381865afa158015612095573d6000803e3d6000fd5b505050506040513d601f19601f820116820180604052508101906120b99190615222565b905060008584815181106120cf576120cf61523b565b602002602001015160200151826120e691906151ed565b90506000601060008887815181106121005761210061523b565b602090810291909101810151516001600160a01b0390811683529082019290925260400160002060010154169050811580159061214557506001600160a01b03811615155b156121c9576121bc82857f000000000000000000000000000000000000000000000000000000000000000084601060008d8c815181106121875761218761523b565b6020026020010151600001516001600160a01b03166001600160a01b0316815260200190815260200160002060020154613640565b6121c690876151ed565b95505b5050505b50806121d881615251565b915050611fab565b5092915050565b6006546001600160a01b0316331461222f5760405162461bcd60e51b815260206004820181905260248201526000805160206155b78339815191526044820152606401610d01565b801561223a57600080fd5b600d5460408051918252602082018390527f3cc372f330f95ac9540626dc8a25f5bf21ba607215a5d58304cb804d446f104a910160405180910390a1600d55565b6009546001600160a01b031633146122cc5760405162461bcd60e51b81526020600482015260146024820152732cb0b5a9ba3930ba32b3bc9d1d37b7363ca232bb60611b6044820152606401610d01565b6122d78383836130b8565b505050565b4284101561232c5760405162461bcd60e51b815260206004820152600f60248201527f7065726d69743a3a6578706972656400000000000000000000000000000000006044820152606401610d01565b6001600160a01b038716600090815260056020526040812080547f6e71edae12b1b97f4d1f60370fef10105fa2faae0126114a169c64845d6126c9918a918a918a91908661237983615251565b909155506040805160208101969096526001600160a01b0394851690860152929091166060840152608083015260a082015260c0810186905260e0016040516020818303038152906040528051906020012090506123da8882868686613710565b6123e588888861294e565b5050505050505050565b60006123f96112b5565b6002546124069190615280565b600003612411575090565b6124196112b5565b6002546124269084615280565b610b7291906152b5565b6006546001600160a01b031633146124785760405162461bcd60e51b815260206004820181905260248201526000805160206155b78339815191526044820152606401610d01565b600b5460408051918252602082018390527fa5dae50539d56dfe1fb5273d883b0c39bc76750a25d036fc5fbd09ad8fd5f57f910160405180910390a1600b55565b601181815481106124c957600080fd5b6000918252602090912001546001600160a01b0316905081565b60006124ed6112b5565b6002546124fa9190615280565b60000361250957506000919050565b6002546125146112b5565b6124269084615280565b60007f8b73c3c69bb8fe3d512ecc4cf759cc79239f7b179b0ffacaa9a75d522b39400f60001b600060405161255391906152c9565b6040519081900390207fc89efdaa54c0f20c7adf612882df0950f5a951637e0307cdcb4c672f298b8bc646604080516020810195909552840192909252606083015260808201523060a082015260c00160405160208183030381529060405280519060200120905090565b6006546001600160a01b031633146126065760405162461bcd60e51b815260206004820181905260248201526000805160206155b78339815191526044820152606401610d01565b6001600160a01b0381166126825760405162461bcd60e51b815260206004820152602660248201527f4f776e61626c653a206e6577206f776e657220697320746865207a65726f206160448201527f64647265737300000000000000000000000000000000000000000000000000006064820152608401610d01565b6006546040516001600160a01b038084169216907f8be0079c531659141344cd1fd0a4f28419497f9722a3daafe3b4186f6b6457e090600090a3600680546001600160a01b0319166001600160a01b0392909216919091179055565b32331461272d5760405162461bcd60e51b815260206004820152601460248201527f59616b53747261746567793a3a6f6e6c79454f410000000000000000000000006044820152606401610d01565b6127376000613870565b565b6000836001600160a01b0316630dfe16816040518163ffffffff1660e01b8152600401602060405180830381865afa158015612779573d6000803e3d6000fd5b505050506040513d601f19601f8201168201806040525081019061279d9190615364565b6001600160a01b0316836001600160a01b0316148061282e5750836001600160a01b031663d21220a76040518163ffffffff1660e01b8152600401602060405180830381865afa1580156127f5573d6000803e3d6000fd5b505050506040513d601f19601f820116820180604052508101906128199190615364565b6001600160a01b0316836001600160a01b0316145b80156129285750836001600160a01b0316630dfe16816040518163ffffffff1660e01b8152600401602060405180830381865afa158015612873573d6000803e3d6000fd5b505050506040513d601f19601f820116820180604052508101906128979190615364565b6001600160a01b0316826001600160a01b031614806129285750836001600160a01b031663d21220a76040518163ffffffff1660e01b8152600401602060405180830381865afa1580156128ef573d6000803e3d6000fd5b505050506040513d601f19601f820116820180604052508101906129139190615364565b6001600160a01b0316826001600160a01b0316145b80156129465750816001600160a01b0316836001600160a01b031614155b949350505050565b6001600160a01b0383166129a45760405162461bcd60e51b815260206004820152601c60248201527f5f617070726f76653a3a6f776e6572207a65726f2061646472657373000000006044820152606401610d01565b6001600160a01b0382166129fa5760405162461bcd60e51b815260206004820152601e60248201527f5f617070726f76653a3a7370656e646572207a65726f206164647265737300006044820152606401610d01565b6001600160a01b0383811660008181526003602090815260408083209487168084529482529182902085905590518481527f8c5be1e5ebec7d5bd14f71427d1e84f3dd0314c0f7b2291e5b200ac8c7c3b92591015b60405180910390a3505050565b600080612710612a6c8285615280565b610c7091906152b5565b6001600160a01b038216612af25760405162461bcd60e51b815260206004820152603460248201527f5f7472616e73666572546f6b656e733a2063616e6e6f74207472616e7366657260448201527f20746f20746865207a65726f20616464726573730000000000000000000000006064820152608401610d01565b6001600160a01b038316600090815260046020526040902054612b169082906151d6565b6001600160a01b038085166000908152600460205260408082209390935590841681522054612b469082906151ed565b6001600160a01b0380841660008181526004602052604090819020939093559151908516907fddf252ad1be2c89b69c2b068fc378daa952ba7f163c4a11628f55a4df523b3ef90612a4f9085815260200190565b6000610b727f00000000000000000000000000000000000000000000000000000000000000007f000000000000000000000000000000000000000000000000000000000000000084613a3d565b6013546040516305d38c7160e21b81526000600482018190527f00000000000000000000000000000000000000000000000000000000000000006024830152916001600160a01b03169063174e31c490604401600060405180830381600087803b158015612c5457600080fd5b505af1158015612c68573d6000803e3d6000fd5b50506013546014546040517fa530882e0000000000000000000000000000000000000000000000000000000081527f00000000000000000000000000000000000000000000000000000000000000006004820152600060248201526001600160a01b037f0000000000000000000000000000000000000000000000000000000000000000811660448301527f0000000000000000000000000000000000000000000000000000000000000000811660648301527f00000000000000000000000000000000000000000000000000000000000000008116608483015260a482019290925260c481018790529116925063a530882e915060e4016020604051808303816000875af1158015611342573d6000803e3d6000fd5b604080516001600160a01b038416602482015260448082018490528251808303909101815260649091019091526020810180517bffffffffffffffffffffffffffffffffffffffffffffffffffffffff1663a9059cbb60e01b1790526122d7908490613c94565b6001600160a01b038216600090815260046020526040902054612e0a9082906151d6565b6001600160a01b038316600090815260046020526040902055600254612e319082906151d6565b6002556040518181526000906001600160a01b038416907fddf252ad1be2c89b69c2b068fc378daa952ba7f163c4a11628f55a4df523b3ef906020015b60405180910390a35050565b600c5460ff161515600114612ef75760405162461bcd60e51b815260206004820152602a60248201527f5661726961626c655265776172647353747261746567793a3a4465706f73697460448201527f732064697361626c6564000000000000000000000000000000000000000000006064820152608401610d01565b600b5415612f21576000612f09611ea7565b9050600b54811115612f1f57612f1f6001613870565b505b6040517f23b872dd000000000000000000000000000000000000000000000000000000008152336004820152306024820152604481018290527f00000000000000000000000000000000000000000000000000000000000000006001600160a01b0316906323b872dd906064016020604051808303816000875af1158015612fad573d6000803e3d6000fd5b505050506040513d601f19601f82011682018060405250810190612fd19190615205565b6130435760405162461bcd60e51b815260206004820152603660248201527f5661726961626c655265776172647353747261746567793a3a4465706f73697460448201527f20746f6b656e207472616e73666572206661696c6564000000000000000000006064820152608401610d01565b600061304e82612b9a565b905061306683613061610a3884866151d6565b613d79565b6130708282613dff565b826001600160a01b03167fe1fffcc4923d04b559f4d29a8bfc6cda04eb5b0d3c460751c2402c5c5cc9109c836040516130ab91815260200190565b60405180910390a2505050565b7f00000000000000000000000000000000000000000000000000000000000000006001600160a01b0316836001600160a01b0316146131905761311c82847f0000000000000000000000000000000000000000000000000000000000000000612739565b613190576040805162461bcd60e51b81526020600482015260248101919091527f5661726961626c655265776172647353747261746567793a3a5377617020706160448201527f697220646f6573206e6f7420636f6e7461696e2072657761726420746f6b656e6064820152608401610d01565b604080516060810182526001600160a01b03808616808352858216602080850191825284860187815260008481526010909252958120945185549085166001600160a01b03199182161786559151600180870180549290961691841691909117909455945160029094019390935560118054808401825594527f31ecc21a745e3968a04e9570e4425bc18fa8019c68028196b546d1669c200c6890930180549092169092179055601254613243916151ed565b601255604080516001600160a01b038086168252841660208201527f916e172c080569186aa7ea048268267257cf7cc49505908863f747bca8620f80910160405180910390a1505050565b6013546040517f02eb6f7e0000000000000000000000000000000000000000000000000000000081527f00000000000000000000000000000000000000000000000000000000000000006004820152600060248201526001600160a01b037f0000000000000000000000000000000000000000000000000000000000000000811660448301527f0000000000000000000000000000000000000000000000000000000000000000811660648301527f000000000000000000000000000000000000000000000000000000000000000081166084830152909116906302eb6f7e9060a4015b600060405180830381600087803b15801561338c57600080fd5b505af1158015611e55573d6000803e3d6000fd5b6013546040517f7dcb2abf0000000000000000000000000000000000000000000000000000000081527f000000000000000000000000000000000000000000000000000000000000000060048201526060916000916001600160a01b0390911690637dcb2abf90602401600060405180830381865afa158015613427573d6000803e3d6000fd5b505050506040513d6000823e601f3d908101601f1916820160405261344f91908101906153f1565b905060005b815181101561363a5773f7d9281e8e363584973f946201b82ba72c965d276001600160a01b031682828151811061348d5761348d61523b565b6020026020010151600001516001600160a01b031603613628577f00000000000000000000000000000000000000000000000000000000000000006001600160a01b03166343c2e2f573f7d9281e8e363584973f946201b82ba72c965d277f000000000000000000000000000000000000000000000000000000000000000085858151811061351e5761351e61523b565b60209081029190910181015101516040517fffffffff0000000000000000000000000000000000000000000000000000000060e086901b1681526001600160a01b03938416600482015292909116602483015260448201526064016040805180830381865afa158015613595573d6000803e3d6000fd5b505050506040513d601f19601f820116820180604052508101906135b991906154bc565b508282815181106135cc576135cc61523b565b602002602001015160200181815250507f000000000000000000000000000000000000000000000000000000000000000082828151811061360f5761360f61523b565b60209081029190910101516001600160a01b0390911690525b8061363281615251565b915050613454565b50919050565b60008061364d8686613e7f565b509050600080856001600160a01b0316630902f1ac6040518163ffffffff1660e01b8152600401606060405180830381865afa158015613691573d6000803e3d6000fd5b505050506040513d601f19601f820116820180604052508101906136b591906154fe565b5091509150876001600160a01b0316836001600160a01b0316146136d557905b61370189836dffffffffffffffffffffffffffff16836dffffffffffffffffffffffffffff1688613eb0565b93505050505b95945050505050565b600061371a61251e565b6040517f1901000000000000000000000000000000000000000000000000000000000000602082015260228101919091526042810186905260620160408051601f198184030181528282528051602091820120600080855291840180845281905260ff88169284019290925260608301869052608083018590529092509060019060a0016020604051602081039080840390855afa1580156137c0573d6000803e3d6000fd5b5050604051601f1901519150506001600160a01b038116158015906137f65750866001600160a01b0316816001600160a01b0316145b6138675760405162461bcd60e51b8152602060048201526024808201527f417263683a3a76616c69646174655369673a20696e76616c6964207369676e6160448201527f74757265000000000000000000000000000000000000000000000000000000006064820152608401610d01565b50505050505050565b613878613f0a565b60006138826141be565b90508161390157600a548110156139015760405162461bcd60e51b815260206004820152603060248201527f5661726961626c655265776172647353747261746567793a3a5265696e76657360448201527f7420616d6f756e7420746f6f206c6f77000000000000000000000000000000006064820152608401610d01565b6000612710600f54836139149190615280565b61391e91906152b5565b9050801561396057600954613960906001600160a01b037f00000000000000000000000000000000000000000000000000000000000000008116911683612d7f565b6000612710600e54846139739190615280565b61397d91906152b5565b905080156139b9576139b96001600160a01b037f0000000000000000000000000000000000000000000000000000000000000000163383612d7f565b60006139d8826139c985876151d6565b6139d391906151d6565b6144b6565b905060006139e582612b9a565b90506139f18282613dff565b7fc7606d21ac05cd309191543e409f0845c016120563783d70e4f41419dc0ef234613a1a6112b5565b6002546040805192835260208301919091520160405180910390a1505050505050565b6000612946846001600160a01b03166355af008a6040518163ffffffff1660e01b8152600401602060405180830381865afa158015613a80573d6000803e3d6000fd5b505050506040513d601f19601f82011682018060405250810190613aa49190615222565b856001600160a01b0316637727c6556040518163ffffffff1660e01b8152600401602060405180830381865afa158015613ae2573d6000803e3d6000fd5b505050506040513d601f19601f82011682018060405250810190613b069190615222565b866001600160a01b031663a76f54d26040518163ffffffff1660e01b8152600401602060405180830381865afa158015613b44573d6000803e3d6000fd5b505050506040513d601f19601f82011682018060405250810190613b689190615222565b876001600160a01b0316637a1c36d16040518163ffffffff1660e01b8152600401602060405180830381865afa158015613ba6573d6000803e3d6000fd5b505050506040513d601f19601f82011682018060405250810190613bca9190615222565b876001600160a01b031663961be3916040518163ffffffff1660e01b8152600401602060405180830381865afa158015613c08573d6000803e3d6000fd5b505050506040513d601f19601f82011682018060405250810190613c2c9190615222565b886001600160a01b031663705727b56040518163ffffffff1660e01b8152600401602060405180830381865afa158015613c6a573d6000803e3d6000fd5b505050506040513d601f19601f82011682018060405250810190613c8e9190615222565b88614764565b6000613ce9826040518060400160405280602081526020017f5361666545524332303a206c6f772d6c6576656c2063616c6c206661696c6564815250856001600160a01b031661481a9092919063ffffffff16565b8051909150156122d75780806020019051810190613d079190615205565b6122d75760405162461bcd60e51b815260206004820152602a60248201527f5361666545524332303a204552433230206f7065726174696f6e20646964206e60448201527f6f742073756363656564000000000000000000000000000000000000000000006064820152608401610d01565b80600254613d8791906151ed565b6002556001600160a01b038216600090815260046020526040902054613dae9082906151ed565b6001600160a01b0383166000818152600460205260408082209390935591519091907fddf252ad1be2c89b69c2b068fc378daa952ba7f163c4a11628f55a4df523b3ef90612e6e9085815260200190565b60008211613e755760405162461bcd60e51b815260206004820152602d60248201527f5661726961626c655265776172647353747261746567793a3a5374616b65206160448201527f6d6f756e7420746f6f206c6f77000000000000000000000000000000000000006064820152608401610d01565b610db28282614829565b600080826001600160a01b0316846001600160a01b031610613ea2578284613ea5565b83835b915091509250929050565b600080613ebf836103e86151d6565b613ec99087615280565b90506000613ed78583615280565b9050600082613ee8886103e8615280565b613ef291906151ed565b9050613efe81836152b5565b98975050505050505050565b613f1261498a565b6040516370a0823160e01b815230600482015260009073f7d9281e8e363584973f946201b82ba72c965d27906370a0823190602401602060405180830381865afa158015613f64573d6000803e3d6000fd5b505050506040513d601f19601f82011682018060405250810190613f889190615222565b90508015611e655760405163095ea7b360e01b81526001600160a01b037f00000000000000000000000000000000000000000000000000000000000000001660048201526024810182905273f7d9281e8e363584973f946201b82ba72c965d279063095ea7b3906044016020604051808303816000875af1158015614011573d6000803e3d6000fd5b505050506040513d601f19601f820116820180604052508101906140359190615205565b50604051639908fc8b60e01b815273f7d9281e8e363584973f946201b82ba72c965d2760048201526001600160a01b037f000000000000000000000000000000000000000000000000000000000000000081166024830152604482018390526000606483015230608483015260001960a48301527f00000000000000000000000000000000000000000000000000000000000000001690639908fc8b9060c40160408051808303816000875af11580156140f3573d6000803e3d6000fd5b505050506040513d601f19601f8201168201806040525081019061411791906154bc565b505060405163095ea7b360e01b81526001600160a01b037f00000000000000000000000000000000000000000000000000000000000000001660048201526000602482015273f7d9281e8e363584973f946201b82ba72c965d279063095ea7b3906044016020604051808303816000875af115801561419a573d6000803e3d6000fd5b505050506040513d601f19601f82011682018060405250810190610db29190615205565b6040516370a0823160e01b815230600482015260009081906001600160a01b037f000000000000000000000000000000000000000000000000000000000000000016906370a0823190602401602060405180830381865afa158015614227573d6000803e3d6000fd5b505050506040513d601f19601f8201168201806040525081019061424b9190615222565b60115490915060005b818110156144ae576000601182815481106142715761427161523b565b6000918252602090912001546001600160a01b0390811691507f000000000000000000000000000000000000000000000000000000000000000016810361439e5747801561433c577f00000000000000000000000000000000000000000000000000000000000000006001600160a01b031663d0e30db0826040518263ffffffff1660e01b81526004016000604051808303818588803b15801561431457600080fd5b505af1158015614328573d6000803e3d6000fd5b5050505050808561433991906151ed565b94505b7f00000000000000000000000000000000000000000000000000000000000000006001600160a01b03167f00000000000000000000000000000000000000000000000000000000000000006001600160a01b03160361439c57505061449c565b505b6040516370a0823160e01b81523060048201526000906001600160a01b038316906370a0823190602401602060405180830381865afa1580156143e5573d6000803e3d6000fd5b505050506040513d601f19601f820116820180604052508101906144099190615222565b90508015614499576001600160a01b038083166000908152601060205260409020600101541680156144975761448a82847f00000000000000000000000000000000000000000000000000000000000000008460106000896001600160a01b03166001600160a01b03168152602001908152602001600020600201546149e1565b61449490876151ed565b95505b505b50505b806144a681615251565b915050614254565b509092915050565b60007fffffffffffffffffffffffff0826d7e171c9ca7b68c06b9dfe47d458d369a2d97f00000000000000000000000000000000000000000000000000000000000000006001600160a01b0316016147565760405163095ea7b360e01b81526001600160a01b037f000000000000000000000000000000000000000000000000000000000000000081166004830152602482018490527f0000000000000000000000000000000000000000000000000000000000000000169063095ea7b3906044016020604051808303816000875af1158015614597573d6000803e3d6000fd5b505050506040513d601f19601f820116820180604052508101906145bb9190615205565b50604051639908fc8b60e01b81526001600160a01b037f00000000000000000000000000000000000000000000000000000000000000008116600483015273f7d9281e8e363584973f946201b82ba72c965d276024830152604482018490526000606483015230608483015260001960a48301527f00000000000000000000000000000000000000000000000000000000000000001690639908fc8b9060c40160408051808303816000875af1158015614679573d6000803e3d6000fd5b505050506040513d601f19601f8201168201806040525081019061469d91906154bc565b5060405163095ea7b360e01b81526001600160a01b037f000000000000000000000000000000000000000000000000000000000000000081166004830152600060248301529192507f00000000000000000000000000000000000000000000000000000000000000009091169063095ea7b3906044016020604051808303816000875af1158015614732573d6000803e3d6000fd5b505050506040513d601f19601f8201168201806040525081019061363a9190615205565b610b7282614b7e565b919050565b6000826000036147765750600061480f565b60006147828585614c49565b9050670de0b6b3a7640000811161479d57600091505061480f565b60006147bc6147ac85876151ed565b6147b686896151ed565b90614c49565b905060006147cd8b8b8b8b87614c73565b905060006147de8c8c8c8c87614c73565b90506147ea8783614ce1565b6147fe826147f8898b6151ed565b90614ce1565b61480891906151d6565b9450505050505b979650505050505050565b60606129468484600085614d01565b601354614863906001600160a01b037f00000000000000000000000000000000000000000000000000000000000000008116911684612d7f565b6013546040517f529ebc7d0000000000000000000000000000000000000000000000000000000081527f00000000000000000000000000000000000000000000000000000000000000006004820152600060248201526001600160a01b037f0000000000000000000000000000000000000000000000000000000000000000811660448301527f0000000000000000000000000000000000000000000000000000000000000000811660648301527f00000000000000000000000000000000000000000000000000000000000000008116608483015260a4820185905260c482018490529091169063529ebc7d9060e401600060405180830381600087803b15801561496e57600080fd5b505af1158015614982573d6000803e3d6000fd5b505050505050565b6013546040516305d38c7160e21b8152600060048201527f000000000000000000000000000000000000000000000000000000000000000060248201526001600160a01b039091169063174e31c490604401613372565b6000806149ee8686613e7f565b509050600080856001600160a01b0316630902f1ac6040518163ffffffff1660e01b8152600401606060405180830381865afa158015614a32573d6000803e3d6000fd5b505050506040513d601f19601f82011682018060405250810190614a5691906154fe565b5091509150876001600160a01b0316836001600160a01b031614614a7657905b600080614aa58b856dffffffffffffffffffffffffffff16856dffffffffffffffffffffffffffff168a613eb0565b9050896001600160a01b0316856001600160a01b031614614ac257905b614ad66001600160a01b038b16898d612d7f565b604080516000815260208101918290527f022c0d9f000000000000000000000000000000000000000000000000000000009091526001600160a01b0389169063022c0d9f90614b2e908590859030906024810161554e565b600060405180830381600087803b158015614b4857600080fd5b505af1158015614b5c573d6000803e3d6000fd5b50505050818111614b6d5781614b6f565b805b9b9a5050505050505050505050565b60007f00000000000000000000000000000000000000000000000000000000000000006001600160a01b03167f00000000000000000000000000000000000000000000000000000000000000006001600160a01b031603614bdd575090565b610b72827f00000000000000000000000000000000000000000000000000000000000000007f00000000000000000000000000000000000000000000000000000000000000007f0000000000000000000000000000000000000000000000000000000000000000614e3e565b600081614c576002826152b5565b614c69670de0b6b3a764000086615280565b612a6c91906151ed565b600082821015614c8e57614c8782856151d6565b9050613707565b614c876b033b2e3c9fd0803ce8000000670de0b6b3a7640000614cc68882614cb68589615280565b614cc091906152b5565b90614e4e565b614cd09190615280565b614cda91906152b5565b8790614c49565b6000670de0b6b3a7640000614cf76002826152b5565b614c698486615280565b606082471015614d795760405162461bcd60e51b815260206004820152602660248201527f416464726573733a20696e73756666696369656e742062616c616e636520666f60448201527f722063616c6c00000000000000000000000000000000000000000000000000006064820152608401610d01565b6001600160a01b0385163b614dd05760405162461bcd60e51b815260206004820152601d60248201527f416464726573733a2063616c6c20746f206e6f6e2d636f6e74726163740000006044820152606401610d01565b600080866001600160a01b03168587604051614dec9190615586565b60006040518083038185875af1925050503d8060008114614e29576040519150601f19603f3d011682016040523d82523d6000602084013e614e2e565b606091505b509150915061480f828286614ec7565b60006137078585858560036149e1565b6000614e5b6002836155a2565b600003614e74576b033b2e3c9fd0803ce8000000614e76565b825b9050614e836002836152b5565b91505b8115610b7257614e968384614f00565b9250614ea36002836155a2565b15614eb557614eb28184614f00565b90505b614ec06002836152b5565b9150614e86565b60608315614ed6575081610c70565b825115614ee65782518084602001fd5b8160405162461bcd60e51b8152600401610d019190614f72565b60006b033b2e3c9fd0803ce8000000614cf76002826152b5565b60005b83811015614f35578181015183820152602001614f1d565b83811115611e555750506000910152565b60008151808452614f5e816020860160208601614f1a565b601f01601f19169290920160200192915050565b602081526000610c706020830184614f46565b6001600160a01b0381168114611e6557600080fd5b60008060408385031215614fad57600080fd5b8235614fb881614f85565b946020939093013593505050565b600060208284031215614fd857600080fd5b5035919050565b600080600060608486031215614ff457600080fd5b8335614fff81614f85565b9250602084013561500f81614f85565b929592945050506040919091013590565b6000806040838503121561503357600080fd5b823561503e81614f85565b9150602083013561504e81614f85565b809150509250929050565b60006020828403121561506b57600080fd5b8135610c7081614f85565b803560ff8116811461475f57600080fd5b600080600080600060a0868803121561509f57600080fd5b85359450602086013593506150b660408701615076565b94979396509394606081013594506080013592915050565b8015158114611e6557600080fd5b6000602082840312156150ee57600080fd5b8135610c70816150ce565b6000806040838503121561510c57600080fd5b82359150602083013561504e816150ce565b600080600080600080600060e0888a03121561513957600080fd5b873561514481614f85565b9650602088013561515481614f85565b9550604088013594506060880135935061517060808901615076565b925060a0880135915060c0880135905092959891949750929550565b600181811c908216806151a057607f821691505b60208210810361363a57634e487b7160e01b600052602260045260246000fd5b634e487b7160e01b600052601160045260246000fd5b6000828210156151e8576151e86151c0565b500390565b60008219821115615200576152006151c0565b500190565b60006020828403121561521757600080fd5b8151610c70816150ce565b60006020828403121561523457600080fd5b5051919050565b634e487b7160e01b600052603260045260246000fd5b600060018201615263576152636151c0565b5060010190565b634e487b7160e01b600052603160045260246000fd5b600081600019048311821515161561529a5761529a6151c0565b500290565b634e487b7160e01b600052601260045260246000fd5b6000826152c4576152c461529f565b500490565b600080835481600182811c9150808316806152e557607f831692505b6020808410820361530457634e487b7160e01b86526022600452602486fd5b818015615318576001811461532957615356565b60ff19861689528489019650615356565b60008a81526020902060005b8681101561534e5781548b820152908501908301615335565b505084890196505b509498975050505050505050565b60006020828403121561537657600080fd5b8151610c7081614f85565b634e487b7160e01b600052604160045260246000fd5b6040805190810167ffffffffffffffff811182821017156153ba576153ba615381565b60405290565b604051601f8201601f1916810167ffffffffffffffff811182821017156153e9576153e9615381565b604052919050565b6000602080838503121561540457600080fd5b825167ffffffffffffffff8082111561541c57600080fd5b818501915085601f83011261543057600080fd5b81518181111561544257615442615381565b615450848260051b016153c0565b818152848101925060069190911b83018401908782111561547057600080fd5b928401925b8184101561480f576040848903121561548e5760008081fd5b615496615397565b84516154a181614f85565b81528486015186820152835260409093019291840191615475565b600080604083850312156154cf57600080fd5b505080516020909101519092909150565b80516dffffffffffffffffffffffffffff8116811461475f57600080fd5b60008060006060848603121561551357600080fd5b61551c846154e0565b925061552a602085016154e0565b9150604084015163ffffffff8116811461554357600080fd5b809150509250925092565b8481528360208201526001600160a01b038316604082015260806060820152600061557c6080830184614f46565b9695505050505050565b60008251615598818460208701614f1a565b9190910192915050565b6000826155b1576155b161529f565b50069056fe4f776e61626c653a2063616c6c6572206973206e6f7420746865206f776e6572a264697066735822122094941c3d0f75f57d110ce3bcb30d3ac2e5749d90ca1c987dca2907cfbf8e5bfc64736f6c634300080d00334f776e61626c653a2063616c6c6572206973206e6f7420746865206f776e65728be0079c531659141344cd1fd0a4f28419497f9722a3daafe3b4186f6b6457e0",
  "devdoc": {
    "kind": "dev",
    "methods": {
      "allowDepositor(address)": {
        "params": {
          "depositor": "address"
        }
      },
      "allowance(address,address)": {
        "params": {
          "account": "The address of the account holding the funds",
          "spender": "The address of the account spending the funds"
        },
        "returns": {
          "_0": "The number of tokens approved"
        }
      },
      "approve(address,uint256)": {
        "details": "This will overwrite the approval amount for `spender` and is subject to issues noted [here](https://eips.ethereum.org/EIPS/eip-20#approve) It is recommended to use increaseAllowance and decreaseAllowance instead",
        "params": {
          "amount": "The number of tokens that are approved (2^256-1 means infinite)",
          "spender": "The address of the account which may transfer tokens"
        },
        "returns": {
          "_0": "Whether or not the approval succeeded"
        }
      },
      "balanceOf(address)": {
        "params": {
          "account": "The address of the account to get the balance of"
        },
        "returns": {
          "_0": "The number of tokens held"
        }
      },
      "checkReward()": {
        "returns": {
          "_0": "reward tokens"
        }
      },
      "deposit(uint256)": {
        "params": {
          "_amount": "Amount of tokens to deposit"
        }
      },
      "depositWithPermit(uint256,uint256,uint8,bytes32,bytes32)": {
        "params": {
          "_amount": "Amount of tokens to deposit",
          "_deadline": "The time at which to expire the signature",
          "_r": "Half of the ECDSA signature pair",
          "_s": "Half of the ECDSA signature pair",
          "_v": "The recovery byte of the signature"
        }
      },
      "estimateDeployedBalance()": {
        "returns": {
          "_0": "deposit tokens after withdraw fee"
        }
      },
      "estimateReinvestReward()": {
        "returns": {
          "_0": "reward tokens"
        }
      },
      "getDepositTokensForShares(uint256)": {
        "params": {
          "amount": "receipt tokens"
        },
        "returns": {
          "_0": "deposit tokens"
        }
      },
      "getDomainSeparator()": {
        "returns": {
          "_0": "Separator"
        }
      },
      "getSharesForDepositTokens(uint256)": {
        "details": "If contract is empty, use 1:1 ratioCould return zero shares for very low amounts of deposit tokens",
        "params": {
          "amount": "deposit tokens"
        },
        "returns": {
          "_0": "receipt tokens"
        }
      },
      "owner()": {
        "details": "Returns the address of the current owner."
      },
      "permit(address,address,uint256,uint256,uint8,bytes32,bytes32)": {
        "params": {
          "deadline": "The time at which to expire the signature",
          "owner": "The address to approve from",
          "r": "Half of the ECDSA signature pair",
          "s": "Half of the ECDSA signature pair",
          "spender": "The address to be approved",
          "v": "The recovery byte of the signature",
          "value": "The number of tokens that are approved (2^256-1 means infinite)"
        }
      },
      "recoverAVAX(uint256)": {
        "params": {
          "amount": "amount"
        }
      },
      "recoverERC20(address,uint256)": {
        "params": {
          "tokenAddress": "token address",
          "tokenAmount": "amount to recover"
        }
      },
      "removeDepositor(address)": {
        "params": {
          "depositor": "address"
        }
      },
      "renounceOwnership()": {
        "details": "Leaves the contract without owner. It will not be possible to call `onlyOwner` functions anymore. Can only be called by the current owner. NOTE: Renouncing ownership will leave the contract without an owner, thereby removing any functionality that is only available to the owner."
      },
      "revokeAllowance(address,address)": {
        "params": {
          "spender": "address",
          "token": "address"
        }
      },
      "totalDeposits()": {
        "returns": {
          "_0": "total deposits available on the contract"
        }
      },
      "transfer(address,uint256)": {
        "params": {
          "amount": "The number of tokens to transfer",
          "dst": "The address of the destination account"
        },
        "returns": {
          "_0": "Whether or not the transfer succeeded"
        }
      },
      "transferFrom(address,address,uint256)": {
        "params": {
          "amount": "The number of tokens to transfer",
          "dst": "The address of the destination account",
          "src": "The address of the source account"
        },
        "returns": {
          "_0": "Whether or not the transfer succeeded"
        }
      },
      "transferOwnership(address)": {
        "details": "Transfers ownership of the contract to a new account (`newOwner`). Can only be called by the current owner."
      },
      "updateAdminFee(uint256)": {
        "details": "Deprecated; Kept for compatibility",
        "params": {
          "newValue": "fee in BIPS; required to be 0"
        }
      },
      "updateDepositsEnabled(bool)": {
        "params": {
          "newValue": "bool"
        }
      },
      "updateDevAddr(address)": {
        "params": {
          "newValue": "address"
        }
      },
      "updateDevFee(uint256)": {
        "params": {
          "newValue": "fee in BIPS"
        }
      },
      "updateMaxSwapSlippage(uint256)": {
        "details": "Function name matches interface for FeeCollector"
      },
      "updateMaxTokensToDepositWithoutReinvest(uint256)": {
        "params": {
          "newValue": "threshold"
        }
      },
      "updateMinTokensToReinvest(uint256)": {
        "params": {
          "newValue": "threshold"
        }
      },
      "updateReinvestReward(uint256)": {
        "params": {
          "newValue": "fee in BIPS"
        }
      }
    },
    "version": 1
  },
  "userdoc": {
    "kind": "user",
    "methods": {
      "allowDepositor(address)": {
        "notice": "Add an allowed depositor"
      },
      "allowance(address,address)": {
        "notice": "Get the number of tokens `spender` is approved to spend on behalf of `account`"
      },
      "approve(address,uint256)": {
        "notice": "Approve `spender` to transfer up to `amount` from `src`"
      },
      "balanceOf(address)": {
        "notice": "Get the number of tokens held by the `account`"
      },
      "checkReward()": {
        "notice": "Reward tokens available to strategy, including balance"
      },
      "deposit(uint256)": {
        "notice": "Deposit tokens to receive receipt tokens"
      },
      "depositWithPermit(uint256,uint256,uint8,bytes32,bytes32)": {
        "notice": "Deposit using Permit"
      },
      "estimateDeployedBalance()": {
        "notice": "Estimate recoverable balance after withdraw fee"
      },
      "estimateReinvestReward()": {
        "notice": "Estimate reinvest reward"
      },
      "getDepositTokensForShares(uint256)": {
        "notice": "Calculate deposit tokens for a given amount of receipt tokens"
      },
      "getDomainSeparator()": {
        "notice": "EIP-712 Domain separator"
      },
      "getSharesForDepositTokens(uint256)": {
        "notice": "Calculate receipt tokens for a given amount of deposit tokens"
      },
      "permit(address,address,uint256,uint256,uint8,bytes32,bytes32)": {
        "notice": "Triggers an approval from owner to spender"
      },
      "recoverAVAX(uint256)": {
        "notice": "Recover AVAX from contract"
      },
      "recoverERC20(address,uint256)": {
        "notice": "Recover ERC20 from contract"
      },
      "reinvest()": {
        "notice": "Reinvest reward tokens into deposit tokens"
      },
      "removeDepositor(address)": {
        "notice": "Remove an allowed depositor"
      },
      "revokeAllowance(address,address)": {
        "notice": "Revoke token allowance"
      },
      "totalDeposits()": {
        "notice": "This function returns a snapshot of last available quotes"
      },
      "transfer(address,uint256)": {
        "notice": "Transfer `amount` tokens from `msg.sender` to `dst`"
      },
      "transferFrom(address,address,uint256)": {
        "notice": "Transfer `amount` tokens from `src` to `dst`"
      },
      "updateAdminFee(uint256)": {
        "notice": "Update admin fee"
      },
      "updateDepositsEnabled(bool)": {
        "notice": "Enable/disable deposits"
      },
      "updateDevAddr(address)": {
        "notice": "Update devAddr"
      },
      "updateDevFee(uint256)": {
        "notice": "Update developer fee"
      },
      "updateMaxSwapSlippage(uint256)": {
        "notice": "Update max slippage for withdrawal"
      },
      "updateMaxTokensToDepositWithoutReinvest(uint256)": {
        "notice": "Update reinvest max threshold before a deposit"
      },
      "updateMinTokensToReinvest(uint256)": {
        "notice": "Update reinvest min threshold"
      },
      "updateReinvestReward(uint256)": {
        "notice": "Update reinvest reward"
      }
    },
    "version": 1
  },
  "storageLayout": {
    "storage": [
      {
        "astId": 552,
        "contract": "contracts/strategies/avalanche/platypus/YYAvaxPlatypusStrategy.sol:YYAvaxPlatypusStrategy",
        "label": "name",
        "offset": 0,
        "slot": "0",
        "type": "t_string_storage"
      },
      {
        "astId": 555,
        "contract": "contracts/strategies/avalanche/platypus/YYAvaxPlatypusStrategy.sol:YYAvaxPlatypusStrategy",
        "label": "symbol",
        "offset": 0,
        "slot": "1",
        "type": "t_string_storage"
      },
      {
        "astId": 560,
        "contract": "contracts/strategies/avalanche/platypus/YYAvaxPlatypusStrategy.sol:YYAvaxPlatypusStrategy",
        "label": "totalSupply",
        "offset": 0,
        "slot": "2",
        "type": "t_uint256"
      },
      {
        "astId": 566,
        "contract": "contracts/strategies/avalanche/platypus/YYAvaxPlatypusStrategy.sol:YYAvaxPlatypusStrategy",
        "label": "allowances",
        "offset": 0,
        "slot": "3",
        "type": "t_mapping(t_address,t_mapping(t_address,t_uint256))"
      },
      {
        "astId": 570,
        "contract": "contracts/strategies/avalanche/platypus/YYAvaxPlatypusStrategy.sol:YYAvaxPlatypusStrategy",
        "label": "balances",
        "offset": 0,
        "slot": "4",
        "type": "t_mapping(t_address,t_uint256)"
      },
      {
        "astId": 586,
        "contract": "contracts/strategies/avalanche/platypus/YYAvaxPlatypusStrategy.sol:YYAvaxPlatypusStrategy",
        "label": "nonces",
        "offset": 0,
        "slot": "5",
        "type": "t_mapping(t_address,t_uint256)"
      },
      {
        "astId": 8040,
        "contract": "contracts/strategies/avalanche/platypus/YYAvaxPlatypusStrategy.sol:YYAvaxPlatypusStrategy",
        "label": "_owner",
        "offset": 0,
        "slot": "6",
        "type": "t_address"
      },
      {
        "astId": 8149,
        "contract": "contracts/strategies/avalanche/platypus/YYAvaxPlatypusStrategy.sol:YYAvaxPlatypusStrategy",
        "label": "numberOfAllowedDepositors",
        "offset": 0,
        "slot": "7",
        "type": "t_uint256"
      },
      {
        "astId": 8153,
        "contract": "contracts/strategies/avalanche/platypus/YYAvaxPlatypusStrategy.sol:YYAvaxPlatypusStrategy",
        "label": "allowedDepositors",
        "offset": 0,
        "slot": "8",
        "type": "t_mapping(t_address,t_bool)"
      },
      {
        "astId": 1955,
        "contract": "contracts/strategies/avalanche/platypus/YYAvaxPlatypusStrategy.sol:YYAvaxPlatypusStrategy",
        "label": "devAddr",
        "offset": 0,
        "slot": "9",
        "type": "t_address"
      },
      {
        "astId": 1957,
        "contract": "contracts/strategies/avalanche/platypus/YYAvaxPlatypusStrategy.sol:YYAvaxPlatypusStrategy",
        "label": "MIN_TOKENS_TO_REINVEST",
        "offset": 0,
        "slot": "10",
        "type": "t_uint256"
      },
      {
        "astId": 1959,
        "contract": "contracts/strategies/avalanche/platypus/YYAvaxPlatypusStrategy.sol:YYAvaxPlatypusStrategy",
        "label": "MAX_TOKENS_TO_DEPOSIT_WITHOUT_REINVEST",
        "offset": 0,
        "slot": "11",
        "type": "t_uint256"
      },
      {
        "astId": 1961,
        "contract": "contracts/strategies/avalanche/platypus/YYAvaxPlatypusStrategy.sol:YYAvaxPlatypusStrategy",
        "label": "DEPOSITS_ENABLED",
        "offset": 0,
        "slot": "12",
        "type": "t_bool"
      },
      {
        "astId": 1963,
        "contract": "contracts/strategies/avalanche/platypus/YYAvaxPlatypusStrategy.sol:YYAvaxPlatypusStrategy",
        "label": "ADMIN_FEE_BIPS",
        "offset": 0,
        "slot": "13",
        "type": "t_uint256"
      },
      {
        "astId": 1965,
        "contract": "contracts/strategies/avalanche/platypus/YYAvaxPlatypusStrategy.sol:YYAvaxPlatypusStrategy",
        "label": "REINVEST_REWARD_BIPS",
        "offset": 0,
        "slot": "14",
        "type": "t_uint256"
      },
      {
        "astId": 1967,
        "contract": "contracts/strategies/avalanche/platypus/YYAvaxPlatypusStrategy.sol:YYAvaxPlatypusStrategy",
        "label": "DEV_FEE_BIPS",
        "offset": 0,
        "slot": "15",
        "type": "t_uint256"
      },
      {
        "astId": 11904,
        "contract": "contracts/strategies/avalanche/platypus/YYAvaxPlatypusStrategy.sol:YYAvaxPlatypusStrategy",
        "label": "rewardSwapPairs",
        "offset": 0,
        "slot": "16",
        "type": "t_mapping(t_address,t_struct(RewardSwapPair)11899_storage)"
      },
      {
        "astId": 11907,
        "contract": "contracts/strategies/avalanche/platypus/YYAvaxPlatypusStrategy.sol:YYAvaxPlatypusStrategy",
        "label": "supportedRewards",
        "offset": 0,
        "slot": "17",
        "type": "t_array(t_address)dyn_storage"
      },
      {
        "astId": 11909,
        "contract": "contracts/strategies/avalanche/platypus/YYAvaxPlatypusStrategy.sol:YYAvaxPlatypusStrategy",
        "label": "rewardCount",
        "offset": 0,
        "slot": "18",
        "type": "t_uint256"
      },
      {
        "astId": 39864,
        "contract": "contracts/strategies/avalanche/platypus/YYAvaxPlatypusStrategy.sol:YYAvaxPlatypusStrategy",
        "label": "proxy",
        "offset": 0,
        "slot": "19",
        "type": "t_contract(IPlatypusVoterProxy)43498"
      },
      {
        "astId": 39868,
        "contract": "contracts/strategies/avalanche/platypus/YYAvaxPlatypusStrategy.sol:YYAvaxPlatypusStrategy",
        "label": "maxSlippage",
        "offset": 0,
        "slot": "20",
        "type": "t_uint256"
      }
    ],
    "types": {
      "t_address": {
        "encoding": "inplace",
        "label": "address",
        "numberOfBytes": "20"
      },
      "t_array(t_address)dyn_storage": {
        "base": "t_address",
        "encoding": "dynamic_array",
        "label": "address[]",
        "numberOfBytes": "32"
      },
      "t_bool": {
        "encoding": "inplace",
        "label": "bool",
        "numberOfBytes": "1"
      },
      "t_contract(IPlatypusVoterProxy)43498": {
        "encoding": "inplace",
        "label": "contract IPlatypusVoterProxy",
        "numberOfBytes": "20"
      },
      "t_mapping(t_address,t_bool)": {
        "encoding": "mapping",
        "key": "t_address",
        "label": "mapping(address => bool)",
        "numberOfBytes": "32",
        "value": "t_bool"
      },
      "t_mapping(t_address,t_mapping(t_address,t_uint256))": {
        "encoding": "mapping",
        "key": "t_address",
        "label": "mapping(address => mapping(address => uint256))",
        "numberOfBytes": "32",
        "value": "t_mapping(t_address,t_uint256)"
      },
      "t_mapping(t_address,t_struct(RewardSwapPair)11899_storage)": {
        "encoding": "mapping",
        "key": "t_address",
        "label": "mapping(address => struct VariableRewardsStrategy.RewardSwapPair)",
        "numberOfBytes": "32",
        "value": "t_struct(RewardSwapPair)11899_storage"
      },
      "t_mapping(t_address,t_uint256)": {
        "encoding": "mapping",
        "key": "t_address",
        "label": "mapping(address => uint256)",
        "numberOfBytes": "32",
        "value": "t_uint256"
      },
      "t_string_storage": {
        "encoding": "bytes",
        "label": "string",
        "numberOfBytes": "32"
      },
      "t_struct(RewardSwapPair)11899_storage": {
        "encoding": "inplace",
        "label": "struct VariableRewardsStrategy.RewardSwapPair",
        "members": [
          {
            "astId": 11894,
            "contract": "contracts/strategies/avalanche/platypus/YYAvaxPlatypusStrategy.sol:YYAvaxPlatypusStrategy",
            "label": "reward",
            "offset": 0,
            "slot": "0",
            "type": "t_address"
          },
          {
            "astId": 11896,
            "contract": "contracts/strategies/avalanche/platypus/YYAvaxPlatypusStrategy.sol:YYAvaxPlatypusStrategy",
            "label": "swapPair",
            "offset": 0,
            "slot": "1",
            "type": "t_address"
          },
          {
            "astId": 11898,
            "contract": "contracts/strategies/avalanche/platypus/YYAvaxPlatypusStrategy.sol:YYAvaxPlatypusStrategy",
            "label": "swapFee",
            "offset": 0,
            "slot": "2",
            "type": "t_uint256"
          }
        ],
        "numberOfBytes": "96"
      },
      "t_uint256": {
        "encoding": "inplace",
        "label": "uint256",
        "numberOfBytes": "32"
      }
    }
  }
}