{
  "address": "0x8d9153c1976769E2C8774f88648E75C897D1e4B0",
  "abi": [
    {
      "inputs": [
        {
          "internalType": "string",
          "name": "_name",
          "type": "string"
        },
        {
          "internalType": "address",
          "name": "_depositToken",
          "type": "address"
        },
        {
          "internalType": "address",
          "name": "_rewardToken",
          "type": "address"
        },
        {
          "internalType": "address",
          "name": "_stakingContract",
          "type": "address"
        },
        {
          "internalType": "address",
          "name": "_poolContract",
          "type": "address"
        },
        {
          "internalType": "address",
          "name": "_router",
          "type": "address"
        },
        {
          "internalType": "address",
          "name": "_timelock",
          "type": "address"
        },
        {
          "internalType": "uint256",
          "name": "_minTokensToReinvest",
          "type": "uint256"
        },
        {
          "internalType": "uint256",
          "name": "_adminFeeBips",
          "type": "uint256"
        },
        {
          "internalType": "uint256",
          "name": "_devFeeBips",
          "type": "uint256"
        },
        {
          "internalType": "uint256",
          "name": "_reinvestRewardBips",
          "type": "uint256"
        }
      ],
      "stateMutability": "nonpayable",
      "type": "constructor"
    },
    {
      "anonymous": false,
      "inputs": [
        {
          "indexed": true,
          "internalType": "address",
          "name": "account",
          "type": "address"
        }
      ],
      "name": "AllowDepositor",
      "type": "event"
    },
    {
      "anonymous": false,
      "inputs": [
        {
          "indexed": true,
          "internalType": "address",
          "name": "owner",
          "type": "address"
        },
        {
          "indexed": true,
          "internalType": "address",
          "name": "spender",
          "type": "address"
        },
        {
          "indexed": false,
          "internalType": "uint256",
          "name": "value",
          "type": "uint256"
        }
      ],
      "name": "Approval",
      "type": "event"
    },
    {
      "anonymous": false,
      "inputs": [
        {
          "indexed": true,
          "internalType": "address",
          "name": "account",
          "type": "address"
        },
        {
          "indexed": false,
          "internalType": "uint256",
          "name": "amount",
          "type": "uint256"
        }
      ],
      "name": "Deposit",
      "type": "event"
    },
    {
      "anonymous": false,
      "inputs": [
        {
          "indexed": false,
          "internalType": "bool",
          "name": "newValue",
          "type": "bool"
        }
      ],
      "name": "DepositsEnabled",
      "type": "event"
    },
    {
      "anonymous": false,
      "inputs": [
        {
          "indexed": true,
          "internalType": "address",
          "name": "previousOwner",
          "type": "address"
        },
        {
          "indexed": true,
          "internalType": "address",
          "name": "newOwner",
          "type": "address"
        }
      ],
      "name": "OwnershipTransferred",
      "type": "event"
    },
    {
      "anonymous": false,
      "inputs": [
        {
          "indexed": false,
          "internalType": "address",
          "name": "token",
          "type": "address"
        },
        {
          "indexed": false,
          "internalType": "uint256",
          "name": "amount",
          "type": "uint256"
        }
      ],
      "name": "Recovered",
      "type": "event"
    },
    {
      "anonymous": false,
      "inputs": [
        {
          "indexed": false,
          "internalType": "uint256",
          "name": "newTotalDeposits",
          "type": "uint256"
        },
        {
          "indexed": false,
          "internalType": "uint256",
          "name": "newTotalSupply",
          "type": "uint256"
        }
      ],
      "name": "Reinvest",
      "type": "event"
    },
    {
      "anonymous": false,
      "inputs": [
        {
          "indexed": true,
          "internalType": "address",
          "name": "account",
          "type": "address"
        }
      ],
      "name": "RemoveDepositor",
      "type": "event"
    },
    {
      "anonymous": false,
      "inputs": [
        {
          "indexed": true,
          "internalType": "address",
          "name": "from",
          "type": "address"
        },
        {
          "indexed": true,
          "internalType": "address",
          "name": "to",
          "type": "address"
        },
        {
          "indexed": false,
          "internalType": "uint256",
          "name": "value",
          "type": "uint256"
        }
      ],
      "name": "Transfer",
      "type": "event"
    },
    {
      "anonymous": false,
      "inputs": [
        {
          "indexed": false,
          "internalType": "uint256",
          "name": "oldValue",
          "type": "uint256"
        },
        {
          "indexed": false,
          "internalType": "uint256",
          "name": "newValue",
          "type": "uint256"
        }
      ],
      "name": "UpdateAdminFee",
      "type": "event"
    },
    {
      "anonymous": false,
      "inputs": [
        {
          "indexed": false,
          "internalType": "address",
          "name": "oldValue",
          "type": "address"
        },
        {
          "indexed": false,
          "internalType": "address",
          "name": "newValue",
          "type": "address"
        }
      ],
      "name": "UpdateDevAddr",
      "type": "event"
    },
    {
      "anonymous": false,
      "inputs": [
        {
          "indexed": false,
          "internalType": "uint256",
          "name": "oldValue",
          "type": "uint256"
        },
        {
          "indexed": false,
          "internalType": "uint256",
          "name": "newValue",
          "type": "uint256"
        }
      ],
      "name": "UpdateDevFee",
      "type": "event"
    },
    {
      "anonymous": false,
      "inputs": [
        {
          "indexed": false,
          "internalType": "uint256",
          "name": "oldValue",
          "type": "uint256"
        },
        {
          "indexed": false,
          "internalType": "uint256",
          "name": "newValue",
          "type": "uint256"
        }
      ],
      "name": "UpdateMaxTokensToDepositWithoutReinvest",
      "type": "event"
    },
    {
      "anonymous": false,
      "inputs": [
        {
          "indexed": false,
          "internalType": "uint256",
          "name": "oldValue",
          "type": "uint256"
        },
        {
          "indexed": false,
          "internalType": "uint256",
          "name": "newValue",
          "type": "uint256"
        }
      ],
      "name": "UpdateMinTokensToReinvest",
      "type": "event"
    },
    {
      "anonymous": false,
      "inputs": [
        {
          "indexed": false,
          "internalType": "uint256",
          "name": "oldValue",
          "type": "uint256"
        },
        {
          "indexed": false,
          "internalType": "uint256",
          "name": "newValue",
          "type": "uint256"
        }
      ],
      "name": "UpdateReinvestReward",
      "type": "event"
    },
    {
      "anonymous": false,
      "inputs": [
        {
          "indexed": true,
          "internalType": "address",
          "name": "account",
          "type": "address"
        },
        {
          "indexed": false,
          "internalType": "uint256",
          "name": "amount",
          "type": "uint256"
        }
      ],
      "name": "Withdraw",
      "type": "event"
    },
    {
      "inputs": [],
      "name": "ADMIN_FEE_BIPS",
      "outputs": [
        {
          "internalType": "uint256",
          "name": "",
          "type": "uint256"
        }
      ],
      "stateMutability": "view",
      "type": "function"
    },
    {
      "inputs": [],
      "name": "DEPOSITS_ENABLED",
      "outputs": [
        {
          "internalType": "bool",
          "name": "",
          "type": "bool"
        }
      ],
      "stateMutability": "view",
      "type": "function"
    },
    {
      "inputs": [],
      "name": "DEV_FEE_BIPS",
      "outputs": [
        {
          "internalType": "uint256",
          "name": "",
          "type": "uint256"
        }
      ],
      "stateMutability": "view",
      "type": "function"
    },
    {
      "inputs": [],
      "name": "DOMAIN_TYPEHASH",
      "outputs": [
        {
          "internalType": "bytes32",
          "name": "",
          "type": "bytes32"
        }
      ],
      "stateMutability": "view",
      "type": "function"
    },
    {
      "inputs": [],
      "name": "MAX_TOKENS_TO_DEPOSIT_WITHOUT_REINVEST",
      "outputs": [
        {
          "internalType": "uint256",
          "name": "",
          "type": "uint256"
        }
      ],
      "stateMutability": "view",
      "type": "function"
    },
    {
      "inputs": [],
      "name": "MIN_TOKENS_TO_REINVEST",
      "outputs": [
        {
          "internalType": "uint256",
          "name": "",
          "type": "uint256"
        }
      ],
      "stateMutability": "view",
      "type": "function"
    },
    {
      "inputs": [],
      "name": "PERMIT_TYPEHASH",
      "outputs": [
        {
          "internalType": "bytes32",
          "name": "",
          "type": "bytes32"
        }
      ],
      "stateMutability": "view",
      "type": "function"
    },
    {
      "inputs": [],
      "name": "REINVEST_REWARD_BIPS",
      "outputs": [
        {
          "internalType": "uint256",
          "name": "",
          "type": "uint256"
        }
      ],
      "stateMutability": "view",
      "type": "function"
    },
    {
      "inputs": [],
      "name": "VERSION_HASH",
      "outputs": [
        {
          "internalType": "bytes32",
          "name": "",
          "type": "bytes32"
        }
      ],
      "stateMutability": "view",
      "type": "function"
    },
    {
      "inputs": [
        {
          "internalType": "address",
          "name": "depositor",
          "type": "address"
        }
      ],
      "name": "allowDepositor",
      "outputs": [],
      "stateMutability": "nonpayable",
      "type": "function"
    },
    {
      "inputs": [
        {
          "internalType": "address",
          "name": "account",
          "type": "address"
        },
        {
          "internalType": "address",
          "name": "spender",
          "type": "address"
        }
      ],
      "name": "allowance",
      "outputs": [
        {
          "internalType": "uint256",
          "name": "",
          "type": "uint256"
        }
      ],
      "stateMutability": "view",
      "type": "function"
    },
    {
      "inputs": [
        {
          "internalType": "address",
          "name": "",
          "type": "address"
        }
      ],
      "name": "allowedDepositors",
      "outputs": [
        {
          "internalType": "bool",
          "name": "",
          "type": "bool"
        }
      ],
      "stateMutability": "view",
      "type": "function"
    },
    {
      "inputs": [
        {
          "internalType": "address",
          "name": "spender",
          "type": "address"
        },
        {
          "internalType": "uint256",
          "name": "amount",
          "type": "uint256"
        }
      ],
      "name": "approve",
      "outputs": [
        {
          "internalType": "bool",
          "name": "",
          "type": "bool"
        }
      ],
      "stateMutability": "nonpayable",
      "type": "function"
    },
    {
      "inputs": [
        {
          "internalType": "address",
          "name": "account",
          "type": "address"
        }
      ],
      "name": "balanceOf",
      "outputs": [
        {
          "internalType": "uint256",
          "name": "",
          "type": "uint256"
        }
      ],
      "stateMutability": "view",
      "type": "function"
    },
    {
      "inputs": [],
      "name": "checkReward",
      "outputs": [
        {
          "internalType": "uint256",
          "name": "",
          "type": "uint256"
        }
      ],
      "stateMutability": "view",
      "type": "function"
    },
    {
      "inputs": [],
      "name": "decimals",
      "outputs": [
        {
          "internalType": "uint8",
          "name": "",
          "type": "uint8"
        }
      ],
      "stateMutability": "view",
      "type": "function"
    },
    {
      "inputs": [
        {
          "internalType": "uint256",
          "name": "amount",
          "type": "uint256"
        }
      ],
      "name": "deposit",
      "outputs": [],
      "stateMutability": "nonpayable",
      "type": "function"
    },
    {
      "inputs": [
        {
          "internalType": "address",
          "name": "account",
          "type": "address"
        },
        {
          "internalType": "uint256",
          "name": "amount",
          "type": "uint256"
        }
      ],
      "name": "depositFor",
      "outputs": [],
      "stateMutability": "nonpayable",
      "type": "function"
    },
    {
      "inputs": [],
      "name": "depositToken",
      "outputs": [
        {
          "internalType": "contract IERC20",
          "name": "",
          "type": "address"
        }
      ],
      "stateMutability": "view",
      "type": "function"
    },
    {
      "inputs": [
        {
          "internalType": "uint256",
          "name": "amount",
          "type": "uint256"
        },
        {
          "internalType": "uint256",
          "name": "deadline",
          "type": "uint256"
        },
        {
          "internalType": "uint8",
          "name": "v",
          "type": "uint8"
        },
        {
          "internalType": "bytes32",
          "name": "r",
          "type": "bytes32"
        },
        {
          "internalType": "bytes32",
          "name": "s",
          "type": "bytes32"
        }
      ],
      "name": "depositWithPermit",
      "outputs": [],
      "stateMutability": "nonpayable",
      "type": "function"
    },
    {
      "inputs": [],
      "name": "devAddr",
      "outputs": [
        {
          "internalType": "address",
          "name": "",
          "type": "address"
        }
      ],
      "stateMutability": "view",
      "type": "function"
    },
    {
      "inputs": [],
      "name": "estimateDeployedBalance",
      "outputs": [
        {
          "internalType": "uint256",
          "name": "",
          "type": "uint256"
        }
      ],
      "stateMutability": "view",
      "type": "function"
    },
    {
      "inputs": [],
      "name": "estimateReinvestReward",
      "outputs": [
        {
          "internalType": "uint256",
          "name": "",
          "type": "uint256"
        }
      ],
      "stateMutability": "view",
      "type": "function"
    },
    {
      "inputs": [
        {
          "internalType": "uint256",
          "name": "amount",
          "type": "uint256"
        }
      ],
      "name": "getDepositTokensForShares",
      "outputs": [
        {
          "internalType": "uint256",
          "name": "",
          "type": "uint256"
        }
      ],
      "stateMutability": "view",
      "type": "function"
    },
    {
      "inputs": [],
      "name": "getDomainSeparator",
      "outputs": [
        {
          "internalType": "bytes32",
          "name": "",
          "type": "bytes32"
        }
      ],
      "stateMutability": "view",
      "type": "function"
    },
    {
      "inputs": [
        {
          "internalType": "uint256",
          "name": "amount",
          "type": "uint256"
        }
      ],
      "name": "getSharesForDepositTokens",
      "outputs": [
        {
          "internalType": "uint256",
          "name": "",
          "type": "uint256"
        }
      ],
      "stateMutability": "view",
      "type": "function"
    },
    {
      "inputs": [],
      "name": "name",
      "outputs": [
        {
          "internalType": "string",
          "name": "",
          "type": "string"
        }
      ],
      "stateMutability": "view",
      "type": "function"
    },
    {
      "inputs": [
        {
          "internalType": "address",
          "name": "",
          "type": "address"
        }
      ],
      "name": "nonces",
      "outputs": [
        {
          "internalType": "uint256",
          "name": "",
          "type": "uint256"
        }
      ],
      "stateMutability": "view",
      "type": "function"
    },
    {
      "inputs": [],
      "name": "numberOfAllowedDepositors",
      "outputs": [
        {
          "internalType": "uint256",
          "name": "",
          "type": "uint256"
        }
      ],
      "stateMutability": "view",
      "type": "function"
    },
    {
      "inputs": [],
      "name": "owner",
      "outputs": [
        {
          "internalType": "address",
          "name": "",
          "type": "address"
        }
      ],
      "stateMutability": "view",
      "type": "function"
    },
    {
      "inputs": [
        {
          "internalType": "address",
          "name": "owner",
          "type": "address"
        },
        {
          "internalType": "address",
          "name": "spender",
          "type": "address"
        },
        {
          "internalType": "uint256",
          "name": "value",
          "type": "uint256"
        },
        {
          "internalType": "uint256",
          "name": "deadline",
          "type": "uint256"
        },
        {
          "internalType": "uint8",
          "name": "v",
          "type": "uint8"
        },
        {
          "internalType": "bytes32",
          "name": "r",
          "type": "bytes32"
        },
        {
          "internalType": "bytes32",
          "name": "s",
          "type": "bytes32"
        }
      ],
      "name": "permit",
      "outputs": [],
      "stateMutability": "nonpayable",
      "type": "function"
    },
    {
      "inputs": [],
      "name": "poolContract",
      "outputs": [
        {
          "internalType": "contract IGondolaPool",
          "name": "",
          "type": "address"
        }
      ],
      "stateMutability": "view",
      "type": "function"
    },
    {
      "inputs": [
        {
          "internalType": "uint256",
          "name": "amount",
          "type": "uint256"
        }
      ],
      "name": "recoverAVAX",
      "outputs": [],
      "stateMutability": "nonpayable",
      "type": "function"
    },
    {
      "inputs": [
        {
          "internalType": "address",
          "name": "tokenAddress",
          "type": "address"
        },
        {
          "internalType": "uint256",
          "name": "tokenAmount",
          "type": "uint256"
        }
      ],
      "name": "recoverERC20",
      "outputs": [],
      "stateMutability": "nonpayable",
      "type": "function"
    },
    {
      "inputs": [],
      "name": "reinvest",
      "outputs": [],
      "stateMutability": "nonpayable",
      "type": "function"
    },
    {
      "inputs": [
        {
          "internalType": "address",
          "name": "depositor",
          "type": "address"
        }
      ],
      "name": "removeDepositor",
      "outputs": [],
      "stateMutability": "nonpayable",
      "type": "function"
    },
    {
      "inputs": [],
      "name": "renounceOwnership",
      "outputs": [],
      "stateMutability": "nonpayable",
      "type": "function"
    },
    {
      "inputs": [
        {
          "internalType": "uint256",
          "name": "minReturnAmountAccepted",
          "type": "uint256"
        },
        {
          "internalType": "bool",
          "name": "disableDeposits",
          "type": "bool"
        }
      ],
      "name": "rescueDeployedFunds",
      "outputs": [],
      "stateMutability": "nonpayable",
      "type": "function"
    },
    {
      "inputs": [
        {
          "internalType": "address",
          "name": "token",
          "type": "address"
        },
        {
          "internalType": "address",
          "name": "spender",
          "type": "address"
        }
      ],
      "name": "revokeAllowance",
      "outputs": [],
      "stateMutability": "nonpayable",
      "type": "function"
    },
    {
      "inputs": [],
      "name": "rewardToken",
      "outputs": [
        {
          "internalType": "contract IERC20",
          "name": "",
          "type": "address"
        }
      ],
      "stateMutability": "view",
      "type": "function"
    },
    {
      "inputs": [],
      "name": "router",
      "outputs": [
        {
          "internalType": "contract IRouter",
          "name": "",
          "type": "address"
        }
      ],
      "stateMutability": "view",
      "type": "function"
    },
    {
      "inputs": [],
      "name": "setAllowances",
      "outputs": [],
      "stateMutability": "nonpayable",
      "type": "function"
    },
    {
      "inputs": [],
      "name": "stakingContract",
      "outputs": [
        {
          "internalType": "contract IGauge",
          "name": "",
          "type": "address"
        }
      ],
      "stateMutability": "view",
      "type": "function"
    },
    {
      "inputs": [],
      "name": "symbol",
      "outputs": [
        {
          "internalType": "string",
          "name": "",
          "type": "string"
        }
      ],
      "stateMutability": "view",
      "type": "function"
    },
    {
      "inputs": [],
      "name": "totalDeposits",
      "outputs": [
        {
          "internalType": "uint256",
          "name": "",
          "type": "uint256"
        }
      ],
      "stateMutability": "view",
      "type": "function"
    },
    {
      "inputs": [],
      "name": "totalSupply",
      "outputs": [
        {
          "internalType": "uint256",
          "name": "",
          "type": "uint256"
        }
      ],
      "stateMutability": "view",
      "type": "function"
    },
    {
      "inputs": [
        {
          "internalType": "address",
          "name": "dst",
          "type": "address"
        },
        {
          "internalType": "uint256",
          "name": "amount",
          "type": "uint256"
        }
      ],
      "name": "transfer",
      "outputs": [
        {
          "internalType": "bool",
          "name": "",
          "type": "bool"
        }
      ],
      "stateMutability": "nonpayable",
      "type": "function"
    },
    {
      "inputs": [
        {
          "internalType": "address",
          "name": "src",
          "type": "address"
        },
        {
          "internalType": "address",
          "name": "dst",
          "type": "address"
        },
        {
          "internalType": "uint256",
          "name": "amount",
          "type": "uint256"
        }
      ],
      "name": "transferFrom",
      "outputs": [
        {
          "internalType": "bool",
          "name": "",
          "type": "bool"
        }
      ],
      "stateMutability": "nonpayable",
      "type": "function"
    },
    {
      "inputs": [
        {
          "internalType": "address",
          "name": "newOwner",
          "type": "address"
        }
      ],
      "name": "transferOwnership",
      "outputs": [],
      "stateMutability": "nonpayable",
      "type": "function"
    },
    {
      "inputs": [
        {
          "internalType": "uint256",
          "name": "newValue",
          "type": "uint256"
        }
      ],
      "name": "updateAdminFee",
      "outputs": [],
      "stateMutability": "nonpayable",
      "type": "function"
    },
    {
      "inputs": [
        {
          "internalType": "bool",
          "name": "newValue",
          "type": "bool"
        }
      ],
      "name": "updateDepositsEnabled",
      "outputs": [],
      "stateMutability": "nonpayable",
      "type": "function"
    },
    {
      "inputs": [
        {
          "internalType": "address",
          "name": "newValue",
          "type": "address"
        }
      ],
      "name": "updateDevAddr",
      "outputs": [],
      "stateMutability": "nonpayable",
      "type": "function"
    },
    {
      "inputs": [
        {
          "internalType": "uint256",
          "name": "newValue",
          "type": "uint256"
        }
      ],
      "name": "updateDevFee",
      "outputs": [],
      "stateMutability": "nonpayable",
      "type": "function"
    },
    {
      "inputs": [
        {
          "internalType": "uint256",
          "name": "newValue",
          "type": "uint256"
        }
      ],
      "name": "updateMaxTokensToDepositWithoutReinvest",
      "outputs": [],
      "stateMutability": "nonpayable",
      "type": "function"
    },
    {
      "inputs": [
        {
          "internalType": "uint256",
          "name": "newValue",
          "type": "uint256"
        }
      ],
      "name": "updateMinTokensToReinvest",
      "outputs": [],
      "stateMutability": "nonpayable",
      "type": "function"
    },
    {
      "inputs": [
        {
          "internalType": "uint256",
          "name": "newValue",
          "type": "uint256"
        }
      ],
      "name": "updateReinvestReward",
      "outputs": [],
      "stateMutability": "nonpayable",
      "type": "function"
    },
    {
      "inputs": [
        {
          "internalType": "uint256",
          "name": "amount",
          "type": "uint256"
        }
      ],
      "name": "withdraw",
      "outputs": [],
      "stateMutability": "nonpayable",
      "type": "function"
    }
  ],
  "transactionHash": "0x4a2d673f7c249b5132e825fcfbad5f75ce58884d723dbca5eab83dcf15b15add",
  "args": [
    "Yield Yak: StableVault S3D",
    "0xdE1A11C331a0E45B9BA8FeE04D4B51A745f1e4A4",
    "0xC38f41A296A4493Ff429F1238e030924A1542e50",
    "0x5994612ffffc31d6c05c4fbec4a17116676d5b22",
    "0x6B41E5c07F2d382B921DE5C34ce8E2057d84C042",
    "0xE54Ca86531e17Ef3616d22Ca28b0D458b6C89106",
    "0x8d36C5c6947ADCcd25Ef49Ea1aAC2ceACFff0bD7",
    "10000000000000000",
    500,
    0,
    500
  ],
  "solcInputHash": "23cdfbba44e01e6a80f8650100740edc",
  "bytecode": "0x60c060405260096080819052685969656c642059616b60b81b60a09081526200002c916000919062000a7c565b506040805180820190915260038082526216549560ea1b6020909201918252620000599160019162000a7c565b503480156200006757600080fd5b50604051620046603803806200466083398181016040526101608110156200008e57600080fd5b8101908080516040519392919084640100000000821115620000af57600080fd5b908301906020820185811115620000c557600080fd5b8251640100000000811182820188101715620000e057600080fd5b82525081516020918201929091019080838360005b838110156200010f578181015183820152602001620000f5565b50505050905090810190601f1680156200013d5780820380516001836020036101000a031916815260200191505b5060409081526020820151908201516060830151608084015160a085015160c086015160e087015161010088015161012089015161014090990151979a509598509396929591949093929091600062000195620002e3565b600680546001600160a01b0319166001600160a01b0383169081179091556040519192509060009060008051602062004640833981519152908290a3508a51620001e79060009060208e019062000a7c565b50600a80546001600160a01b03808d166001600160a01b031992831617909255600b80548c8416908316179055601480548b84169083161790556013805489841690831617905560158054928a1692821692909217909155600c80549091163317905562000254620002e7565b6200025f84620004f9565b6200026a83620005a3565b620002758262000693565b62000280816200076f565b6200028c60016200084b565b620002978562000911565b604080516000808252602082015281517fc7606d21ac05cd309191543e409f0845c016120563783d70e4f41419dc0ef234929181900390910190a1505050505050505050505062000b18565b3390565b620002f1620002e3565b6001600160a01b03166200030462000a0b565b6001600160a01b0316146200034f576040805162461bcd60e51b8152602060048201819052602482015260008051602062004620833981519152604482015290519081900360640190fd5b600a546014546040805163095ea7b360e01b81526001600160a01b03928316600482015260001960248201529051919092169163095ea7b39160448083019260209291908290030181600087803b158015620003aa57600080fd5b505af1158015620003bf573d6000803e3d6000fd5b505050506040513d6020811015620003d657600080fd5b5050600b546013546040805163095ea7b360e01b81526001600160a01b03928316600482015260001960248201529051919092169163095ea7b39160448083019260209291908290030181600087803b1580156200043357600080fd5b505af115801562000448573d6000803e3d6000fd5b505050506040513d60208110156200045f57600080fd5b50506015546040805163095ea7b360e01b81526001600160a01b03909216600483015260001960248301525173de3a24028580884448a5397872046a019649b0849163095ea7b39160448083019260209291908290030181600087803b158015620004c957600080fd5b505af1158015620004de573d6000803e3d6000fd5b505050506040513d6020811015620004f557600080fd5b5050565b62000503620002e3565b6001600160a01b03166200051662000a0b565b6001600160a01b03161462000561576040805162461bcd60e51b8152602060048201819052602482015260008051602062004620833981519152604482015290519081900360640190fd5b600d54604080519182526020820183905280517f481f79ac3a523b6d6db3c5a720e190e986d1cc1b41adcdf50f9caef8499011009281900390910190a1600d55565b620005ad620002e3565b6001600160a01b0316620005c062000a0b565b6001600160a01b0316146200060b576040805162461bcd60e51b8152602060048201819052602482015260008051602062004620833981519152604482015290519081900360640190fd5b61271062000645601054620006316012548562000a1a60201b620024a11790919060201c565b62000a1a60201b620024a11790919060201c565b11156200065157600080fd5b601154604080519182526020820183905280517f3cc372f330f95ac9540626dc8a25f5bf21ba607215a5d58304cb804d446f104a9281900390910190a1601155565b6200069d620002e3565b6001600160a01b0316620006b062000a0b565b6001600160a01b031614620006fb576040805162461bcd60e51b8152602060048201819052602482015260008051602062004620833981519152604482015290519081900360640190fd5b61271062000721601054620006316011548562000a1a60201b620024a11790919060201c565b11156200072d57600080fd5b601254604080519182526020820183905280517f2a42303d002f0ba6cfe8259c91d4684443fb0b3de286ba74991175d6517261319281900390910190a1601255565b62000779620002e3565b6001600160a01b03166200078c62000a0b565b6001600160a01b031614620007d7576040805162461bcd60e51b8152602060048201819052602482015260008051602062004620833981519152604482015290519081900360640190fd5b612710620007fd601254620006316011548562000a1a60201b620024a11790919060201c565b11156200080957600080fd5b601054604080519182526020820183905280517fe7f97d51d307dc44045597c9978bec0f842e6bb40d19b9444084cfa30d9ed4f29281900390910190a1601055565b62000855620002e3565b6001600160a01b03166200086862000a0b565b6001600160a01b031614620008b3576040805162461bcd60e51b8152602060048201819052602482015260008051602062004620833981519152604482015290519081900360640190fd5b600f5460ff1615158115151415620008ca57600080fd5b600f805482151560ff19909116811790915560408051918252517f7b014ed3854e7f5cb0218d58b3c6ae7d53a68bb0af2f67bfb029ea42c38a7e859181900360200190a150565b6200091b620002e3565b6001600160a01b03166200092e62000a0b565b6001600160a01b03161462000979576040805162461bcd60e51b8152602060048201819052602482015260008051602062004620833981519152604482015290519081900360640190fd5b6001600160a01b038116620009c05760405162461bcd60e51b8152600401808060200182810382526026815260200180620045fa6026913960400191505060405180910390fd5b6006546040516001600160a01b038084169216906000805160206200464083398151915290600090a3600680546001600160a01b0319166001600160a01b0392909216919091179055565b6006546001600160a01b031690565b60008282018381101562000a75576040805162461bcd60e51b815260206004820152601b60248201527f536166654d6174683a206164646974696f6e206f766572666c6f770000000000604482015290519081900360640190fd5b9392505050565b828054600181600116156101000203166002900490600052602060002090601f016020900481019282601f1062000abf57805160ff191683800117855562000aef565b8280016001018555821562000aef579182015b8281111562000aef57825182559160200191906001019062000ad2565b5062000afd92915062000b01565b5090565b5b8082111562000afd576000815560010162000b02565b613ad28062000b286000396000f3fe608060405234801561001057600080fd5b50600436106103835760003560e01c80638b73e606116101de578063c89039c51161010f578063e21ac825116100ad578063f2fde38b1161007c578063f2fde38b1461093c578063f7c618c114610962578063f887ea401461096a578063fdb5a03e1461097257610383565b8063e21ac825146108f2578063eab89a5a1461090f578063ed24911d1461092c578063ee99205c1461093457610383565b8063da09c72c116100e9578063da09c72c14610897578063dbd9a4d41461089f578063dd62ed3e146108a7578063dd8ce4d6146108d557610383565b8063c89039c514610821578063cff1b6ef14610829578063d505accf1461084657610383565b8063a9059cbb1161017c578063b6b55f2511610156578063b6b55f25146107ec578063b9e57b8014610809578063bd079f5514610811578063c4b24a461461081957610383565b8063a9059cbb14610793578063ac0d31ff146107bf578063b52a321f146107e457610383565b806395d89b41116101b857806395d89b411461074957806399729ec1146107515780639e4e73181461076e578063a8ae2b7c1461077657610383565b80638b73e606146106f55780638da5cb5b1461071b5780639291d5631461072357610383565b80634bebd1e7116102b85780637ae26773116102565780638183723011610230578063818372301461068057806388d52ef71461069d5780638980f11f146106c15780638aff733d146106ed57610383565b80637ae26773146106245780637d882097146106525780637ecebe001461065a57610383565b80635ea682ea116102925780635ea682ea146105e657806370a08231146105ee578063715018a614610614578063789139bc1461061c57610383565b80634bebd1e7146105845780634e77ace5146105aa5780634ebb7916146105c957610383565b80632e1a7d4d11610325578063313ce567116102ff578063313ce567146105005780633bdc6e721461051e578063483c2ef0146105265780634a970be71461054c57610383565b80632e1a7d4d146104ad5780632f4f21e2146104cc57806330adf81f146104f857610383565b80630f23475d116103615780630f23475d1461045f57806318160ddd1461046757806320606b701461046f57806323b872dd1461047757610383565b806306fdde03146103885780630767711114610405578063095ea7b31461041f575b600080fd5b61039061097a565b6040805160208082528351818301528351919283929083019185019080838360005b838110156103ca5781810151838201526020016103b2565b50505050905090810190601f1680156103f75780820380516001836020036101000a031916815260200191505b509250505060405180910390f35b61040d610a08565b60408051918252519081900360200190f35b61044b6004803603604081101561043557600080fd5b506001600160a01b038135169060200135610a0e565b604080519115158252519081900360200190f35b61040d610a25565b61040d610aa2565b61040d610aa8565b61044b6004803603606081101561048d57600080fd5b506001600160a01b03813581169160208101359091169060400135610acc565b6104ca600480360360208110156104c357600080fd5b5035610bae565b005b6104ca600480360360408110156104e257600080fd5b506001600160a01b038135169060200135610cf0565b61040d610cfa565b610508610d1e565b6040805160ff9092168252519081900360200190f35b61040d610d23565b61044b6004803603602081101561053c57600080fd5b50356001600160a01b0316610d29565b6104ca600480360360a081101561056257600080fd5b5080359060208101359060ff6040820135169060608101359060800135610d3e565b6104ca6004803603602081101561059a57600080fd5b50356001600160a01b0316610df7565b6104ca600480360360208110156105c057600080fd5b50351515610f33565b6104ca600480360360208110156105df57600080fd5b5035610ff2565b61040d6110ce565b61040d6004803603602081101561060457600080fd5b50356001600160a01b03166110d4565b6104ca6110f3565b61040d6111ac565b6104ca6004803603604081101561063a57600080fd5b506001600160a01b03813581169160200135166111b2565b61040d6112a1565b61040d6004803603602081101561067057600080fd5b50356001600160a01b03166112a7565b6104ca6004803603602081101561069657600080fd5b50356112b9565b6106a561135d565b604080516001600160a01b039092168252519081900360200190f35b6104ca600480360360408110156106d757600080fd5b506001600160a01b03813516906020013561136c565b61040d6114a7565b6104ca6004803603602081101561070b57600080fd5b50356001600160a01b03166114ad565b6106a5611614565b6104ca6004803603602081101561073957600080fd5b50356001600160a01b0316611623565b6103906116b1565b6104ca6004803603602081101561076757600080fd5b503561170b565b61040d6117de565b6104ca6004803603602081101561078c57600080fd5b5035611802565b61044b600480360360408110156107a957600080fd5b506001600160a01b0381351690602001356118cf565b6104ca600480360360408110156107d557600080fd5b508035906020013515156118dc565b61044b611b63565b6104ca6004803603602081101561080257600080fd5b5035611b6c565b61040d611b79565b61040d611bc0565b61040d611bc6565b6106a5611c5f565b6104ca6004803603602081101561083f57600080fd5b5035611c6e565b6104ca600480360360e081101561085c57600080fd5b506001600160a01b03813581169160208101359091169060408101359060608101359060ff6080820135169060a08101359060c00135611d3b565b6106a5611e3b565b6104ca611e4a565b61040d600480360360408110156108bd57600080fd5b506001600160a01b0381358116916020013516612049565b61040d600480360360208110156108eb57600080fd5b5035612074565b6104ca6004803603602081101561090857600080fd5b50356120b3565b61040d6004803603602081101561092557600080fd5b5035612157565b61040d612197565b6106a56122a4565b6104ca6004803603602081101561095257600080fd5b50356001600160a01b03166122b3565b6106a56123c3565b6106a56123d2565b6104ca6123e1565b6000805460408051602060026001851615610100026000190190941693909304601f81018490048402820184019092528181529291830182828015610a005780601f106109d557610100808354040283529160200191610a00565b820191906000526020600020905b8154815290600101906020018083116109e357829003601f168201915b505050505081565b60115481565b6000610a1b338484612502565b5060015b92915050565b601454604080516370a0823160e01b815230600482015290516000926001600160a01b0316916370a08231916024808301926020929190829003018186803b158015610a7057600080fd5b505afa158015610a84573d6000803e3d6000fd5b505050506040513d6020811015610a9a57600080fd5b505190505b90565b60025481565b7f8b73c3c69bb8fe3d512ecc4cf759cc79239f7b179b0ffacaa9a75d522b39400f81565b6001600160a01b038316600081815260036020908152604080832033808552925282205491929091908214801590610b0657506000198114155b15610b97576000610b32856040518060600160405280602f81526020016139f1602f913984919061261a565b6001600160a01b0380891660008181526003602090815260408083209489168084529482529182902085905581518581529151949550929391927f8c5be1e5ebec7d5bd14f71427d1e84f3dd0314c0f7b2291e5b200ac8c7c3b92592918290030190a3505b610ba28686866126b1565b50600195945050505050565b6000610bb982612157565b90508015610cec57610bca816127be565b600a546040805163a9059cbb60e01b81523360048201526024810184905290516001600160a01b039092169163a9059cbb916044808201926020929091908290030181600087803b158015610c1e57600080fd5b505af1158015610c32573d6000803e3d6000fd5b505050506040513d6020811015610c4857600080fd5b5051610c9b576040805162461bcd60e51b815260206004820152601d60248201527f537461626c655661756c7453747261746567793a3a7769746864726177000000604482015290519081900360640190fd5b610ca53383612877565b600954610cb2908261294c565b60095560408051828152905133917f884edad9ce6fa2440d8a54cc123490eb96d2768479d49ff9c7366125a9424364919081900360200190a25b5050565b610cec828261298e565b7f6e71edae12b1b97f4d1f60370fef10105fa2faae0126114a169c64845d6126c981565b601281565b60075481565b60086020526000908152604090205460ff1681565b600a54604080517fd505accf000000000000000000000000000000000000000000000000000000008152336004820152306024820152604481018890526064810187905260ff8616608482015260a4810185905260c4810184905290516001600160a01b039092169163d505accf9160e48082019260009290919082900301818387803b158015610dce57600080fd5b505af1158015610de2573d6000803e3d6000fd5b50505050610df0338661298e565b5050505050565b610dff612b29565b6001600160a01b0316610e10611614565b6001600160a01b031614610e59576040805162461bcd60e51b8152602060048201819052602482015260008051602061393f833981519152604482015290519081900360640190fd5b6001600160a01b03811660009081526008602052604090205460ff1615610ec7576040805162461bcd60e51b815260206004820152601c60248201527f5065726d697373696f6e65643a3a616c6c6f774465706f7369746f7200000000604482015290519081900360640190fd5b6001600160a01b0381166000908152600860205260409020805460ff19166001908117909155600754610ef9916124a1565b6007556040516001600160a01b038216907fc0a1035c16faf8d1304056d92c00edf028f87e62b8235a938f00af9e3c0312c590600090a250565b610f3b612b29565b6001600160a01b0316610f4c611614565b6001600160a01b031614610f95576040805162461bcd60e51b8152602060048201819052602482015260008051602061393f833981519152604482015290519081900360640190fd5b600f5460ff1615158115151415610fab57600080fd5b600f805482151560ff19909116811790915560408051918252517f7b014ed3854e7f5cb0218d58b3c6ae7d53a68bb0af2f67bfb029ea42c38a7e859181900360200190a150565b610ffa612b29565b6001600160a01b031661100b611614565b6001600160a01b031614611054576040805162461bcd60e51b8152602060048201819052602482015260008051602061393f833981519152604482015290519081900360640190fd5b6000811161106157600080fd5b604051339082156108fc029083906000818181858888f1935050505015801561108e573d6000803e3d6000fd5b5060408051600081526020810183905281517f8c1256b8896378cd5044f80c202f9772b9d77dc85c8a6eb51967210b09bfaa28929181900390910190a150565b60125481565b6001600160a01b0381166000908152600460205260409020545b919050565b6110fb612b29565b6001600160a01b031661110c611614565b6001600160a01b031614611155576040805162461bcd60e51b8152602060048201819052602482015260008051602061393f833981519152604482015290519081900360640190fd5b6006546040516000916001600160a01b0316907f8be0079c531659141344cd1fd0a4f28419497f9722a3daafe3b4186f6b6457e0908390a36006805473ffffffffffffffffffffffffffffffffffffffff19169055565b600e5481565b6111ba612b29565b6001600160a01b03166111cb611614565b6001600160a01b031614611214576040805162461bcd60e51b8152602060048201819052602482015260008051602061393f833981519152604482015290519081900360640190fd5b816001600160a01b031663095ea7b38260006040518363ffffffff1660e01b815260040180836001600160a01b0316815260200182815260200192505050602060405180830381600087803b15801561126c57600080fd5b505af1158015611280573d6000803e3d6000fd5b505050506040513d602081101561129657600080fd5b5051610cec57600080fd5b60095481565b60056020526000908152604090205481565b6112c1612b29565b6001600160a01b03166112d2611614565b6001600160a01b03161461131b576040805162461bcd60e51b8152602060048201819052602482015260008051602061393f833981519152604482015290519081900360640190fd5b600d54604080519182526020820183905280517f481f79ac3a523b6d6db3c5a720e190e986d1cc1b41adcdf50f9caef8499011009281900390910190a1600d55565b6015546001600160a01b031681565b611374612b29565b6001600160a01b0316611385611614565b6001600160a01b0316146113ce576040805162461bcd60e51b8152602060048201819052602482015260008051602061393f833981519152604482015290519081900360640190fd5b600081116113db57600080fd5b6040805163a9059cbb60e01b81523360048201526024810183905290516001600160a01b0384169163a9059cbb9160448083019260209291908290030181600087803b15801561142a57600080fd5b505af115801561143e573d6000803e3d6000fd5b505050506040513d602081101561145457600080fd5b505161145f57600080fd5b604080516001600160a01b03841681526020810183905281517f8c1256b8896378cd5044f80c202f9772b9d77dc85c8a6eb51967210b09bfaa28929181900390910190a15050565b60105481565b6114b5612b29565b6001600160a01b03166114c6611614565b6001600160a01b03161461150f576040805162461bcd60e51b8152602060048201819052602482015260008051602061393f833981519152604482015290519081900360640190fd5b6000600754116115505760405162461bcd60e51b81526004018080602001828103825260348152602001806138286034913960400191505060405180910390fd5b6001600160a01b03811660009081526008602052604090205460ff1615156001146115ac5760405162461bcd60e51b815260040180806020018281038252602a8152602001806138a5602a913960400191505060405180910390fd5b6001600160a01b0381166000908152600860205260409020805460ff191690556007546115da90600161294c565b6007556040516001600160a01b038216907f0e86f6608b536e5339a25b65ff531f5ea91e1313d056ecd4752b35cbd16137d490600090a250565b6006546001600160a01b031690565b600c546001600160a01b0316331461163a57600080fd5b600c54604080516001600160a01b039283168152918316602083015280517fa8e91499ed37682f43cffb045fcc7d379a91e8c9a14e6321877ee34dee564c009281900390910190a1600c805473ffffffffffffffffffffffffffffffffffffffff19166001600160a01b0392909216919091179055565b60018054604080516020600284861615610100026000190190941693909304601f81018490048402820184019092528181529291830182828015610a005780601f106109d557610100808354040283529160200191610a00565b611713612b29565b6001600160a01b0316611724611614565b6001600160a01b03161461176d576040805162461bcd60e51b8152602060048201819052602482015260008051602061393f833981519152604482015290519081900360640190fd5b61271061179160105461178b601154856124a190919063ffffffff16565b906124a1565b111561179c57600080fd5b601254604080519182526020820183905280517f2a42303d002f0ba6cfe8259c91d4684443fb0b3de286ba74991175d6517261319281900390910190a1601255565b7fc89efdaa54c0f20c7adf612882df0950f5a951637e0307cdcb4c672f298b8bc681565b61180a612b29565b6001600160a01b031661181b611614565b6001600160a01b031614611864576040805162461bcd60e51b8152602060048201819052602482015260008051602061393f833981519152604482015290519081900360640190fd5b61271061188260125461178b601154856124a190919063ffffffff16565b111561188d57600080fd5b601054604080519182526020820183905280517fe7f97d51d307dc44045597c9978bec0f842e6bb40d19b9444084cfa30d9ed4f29281900390910190a1601055565b6000610a1b3384846126b1565b6118e4612b29565b6001600160a01b03166118f5611614565b6001600160a01b03161461193e576040805162461bcd60e51b8152602060048201819052602482015260008051602061393f833981519152604482015290519081900360640190fd5b600a54604080516370a0823160e01b815230600482015290516000926001600160a01b0316916370a08231916024808301926020929190829003018186803b15801561198957600080fd5b505afa15801561199d573d6000803e3d6000fd5b505050506040513d60208110156119b357600080fd5b5051601454604080517fe9fad8ee00000000000000000000000000000000000000000000000000000000815290519293506001600160a01b039091169163e9fad8ee9160048082019260009290919082900301818387803b158015611a1757600080fd5b505af1158015611a2b573d6000803e3d6000fd5b5050600a54604080516370a0823160e01b81523060048201529051600094506001600160a01b0390921692506370a08231916024808301926020929190829003018186803b158015611a7c57600080fd5b505afa158015611a90573d6000803e3d6000fd5b505050506040513d6020811015611aa657600080fd5b5051905083611ab5828461294c565b1015611af25760405162461bcd60e51b81526004018080602001828103825260288152602001806138cf6028913960400191505060405180910390fd5b600981905560025460408051838152602081019290925280517fc7606d21ac05cd309191543e409f0845c016120563783d70e4f41419dc0ef2349281900390910190a1600f5460ff1615156001148015611b4e57506001831515145b15611b5d57611b5d6000610f33565b50505050565b600f5460ff1681565b611b76338261298e565b50565b600080611b84611bc6565b9050600d548110611bb857611bb0612710611baa60105484612b2d90919063ffffffff16565b90612b86565b915050610a9f565b600091505090565b600d5481565b601454604080517e8cc262000000000000000000000000000000000000000000000000000000008152306004820152905160009283926001600160a01b0390911691628cc26291602480820192602092909190829003018186803b158015611c2d57600080fd5b505afa158015611c41573d6000803e3d6000fd5b505050506040513d6020811015611c5757600080fd5b505191505090565b600a546001600160a01b031681565b611c76612b29565b6001600160a01b0316611c87611614565b6001600160a01b031614611cd0576040805162461bcd60e51b8152602060048201819052602482015260008051602061393f833981519152604482015290519081900360640190fd5b612710611cee60105461178b601254856124a190919063ffffffff16565b1115611cf957600080fd5b601154604080519182526020820183905280517f3cc372f330f95ac9540626dc8a25f5bf21ba607215a5d58304cb804d446f104a9281900390910190a1601155565b42841015611d90576040805162461bcd60e51b815260206004820152600f60248201527f7065726d69743a3a657870697265640000000000000000000000000000000000604482015290519081900360640190fd5b6001600160a01b0380881660008181526005602090815260409182902080546001810190915582517f6e71edae12b1b97f4d1f60370fef10105fa2faae0126114a169c64845d6126c98184015280840194909452938a1660608401526080830189905260a083019390935260c08083018890528151808403909101815260e090920190528051910120611e268882868686612bc8565b611e31888888612502565b5050505050505050565b600c546001600160a01b031681565b611e52612b29565b6001600160a01b0316611e63611614565b6001600160a01b031614611eac576040805162461bcd60e51b8152602060048201819052602482015260008051602061393f833981519152604482015290519081900360640190fd5b600a546014546040805163095ea7b360e01b81526001600160a01b03928316600482015260001960248201529051919092169163095ea7b39160448083019260209291908290030181600087803b158015611f0657600080fd5b505af1158015611f1a573d6000803e3d6000fd5b505050506040513d6020811015611f3057600080fd5b5050600b546013546040805163095ea7b360e01b81526001600160a01b03928316600482015260001960248201529051919092169163095ea7b39160448083019260209291908290030181600087803b158015611f8c57600080fd5b505af1158015611fa0573d6000803e3d6000fd5b505050506040513d6020811015611fb657600080fd5b50506015546040805163095ea7b360e01b81526001600160a01b03909216600483015260001960248301525173de3a24028580884448a5397872046a019649b0849163095ea7b39160448083019260209291908290030181600087803b15801561201f57600080fd5b505af1158015612033573d6000803e3d6000fd5b505050506040513d6020811015610cec57600080fd5b6001600160a01b03918216600090815260036020908152604080832093909416825291909152205490565b600061208d600954600254612b2d90919063ffffffff16565b6120985750806110ee565b610a1f600954611baa60025485612b2d90919063ffffffff16565b6120bb612b29565b6001600160a01b03166120cc611614565b6001600160a01b031614612115576040805162461bcd60e51b8152602060048201819052602482015260008051602061393f833981519152604482015290519081900360640190fd5b600e54604080519182526020820183905280517fa5dae50539d56dfe1fb5273d883b0c39bc76750a25d036fc5fbd09ad8fd5f57f9281900390910190a1600e55565b6000612170600954600254612b2d90919063ffffffff16565b61217c575060006110ee565b610a1f600254611baa60095485612b2d90919063ffffffff16565b60007f8b73c3c69bb8fe3d512ecc4cf759cc79239f7b179b0ffacaa9a75d522b39400f60001b6000604051808280546001816001161561010002031660029004801561221a5780601f106121f857610100808354040283529182019161221a565b820191906000526020600020905b815481529060010190602001808311612206575b505091505060405180910390207fc89efdaa54c0f20c7adf612882df0950f5a951637e0307cdcb4c672f298b8bc660001b612253612d00565b3060405160200180868152602001858152602001848152602001838152602001826001600160a01b031681526020019550505050505060405160208183030381529060405280519060200120905090565b6014546001600160a01b031681565b6122bb612b29565b6001600160a01b03166122cc611614565b6001600160a01b031614612315576040805162461bcd60e51b8152602060048201819052602482015260008051602061393f833981519152604482015290519081900360640190fd5b6001600160a01b03811661235a5760405162461bcd60e51b81526004018080602001828103825260268152602001806137d76026913960400191505060405180910390fd5b6006546040516001600160a01b038084169216907f8be0079c531659141344cd1fd0a4f28419497f9722a3daafe3b4186f6b6457e090600090a36006805473ffffffffffffffffffffffffffffffffffffffff19166001600160a01b0392909216919091179055565b600b546001600160a01b031681565b6013546001600160a01b031681565b323314612435576040805162461bcd60e51b815260206004820152601460248201527f59616b53747261746567793a3a6f6e6c79454f41000000000000000000000000604482015290519081900360640190fd5b600061243f611bc6565b9050600d54811015612498576040805162461bcd60e51b815260206004820152601d60248201527f537461626c655661756c7453747261746567793a3a7265696e76657374000000604482015290519081900360640190fd5b611b7681612d04565b6000828201838110156124fb576040805162461bcd60e51b815260206004820152601b60248201527f536166654d6174683a206164646974696f6e206f766572666c6f770000000000604482015290519081900360640190fd5b9392505050565b6001600160a01b03831661255d576040805162461bcd60e51b815260206004820152601c60248201527f5f617070726f76653a3a6f776e6572207a65726f206164647265737300000000604482015290519081900360640190fd5b6001600160a01b0382166125b8576040805162461bcd60e51b815260206004820152601e60248201527f5f617070726f76653a3a7370656e646572207a65726f20616464726573730000604482015290519081900360640190fd5b6001600160a01b03808416600081815260036020908152604080832094871680845294825291829020859055815185815291517f8c5be1e5ebec7d5bd14f71427d1e84f3dd0314c0f7b2291e5b200ac8c7c3b9259281900390910190a3505050565b600081848411156126a95760405162461bcd60e51b81526004018080602001828103825283818151815260200191508051906020019080838360005b8381101561266e578181015183820152602001612656565b50505050905090810190601f16801561269b5780820380516001836020036101000a031916815260200191505b509250505060405180910390fd5b505050900390565b6001600160a01b0382166126f65760405162461bcd60e51b815260040180806020018281038252603481526020018061395f6034913960400191505060405180910390fd5b612733816040518060600160405280602e8152602001613a6f602e91396001600160a01b038616600090815260046020526040902054919061261a565b6001600160a01b03808516600090815260046020526040808220939093559084168152205461276290826124a1565b6001600160a01b0380841660008181526004602090815260409182902094909455805185815290519193928716927fddf252ad1be2c89b69c2b068fc378daa952ba7f163c4a11628f55a4df523b3ef92918290030190a3505050565b600081116127fd5760405162461bcd60e51b815260040180806020018281038252602b8152602001806137fd602b913960400191505060405180910390fd5b601454604080517f2e1a7d4d0000000000000000000000000000000000000000000000000000000081526004810184905290516001600160a01b0390921691632e1a7d4d9160248082019260009290919082900301818387803b15801561286357600080fd5b505af1158015610df0573d6000803e3d6000fd5b6128b481604051806060016040528060278152602001613a48602791396001600160a01b038516600090815260046020526040902054919061261a565b60046000846001600160a01b03166001600160a01b0316815260200190815260200160002081905550612904816040518060600160405280602781526020016138f760279139600254919061261a565b6002556040805182815290516000916001600160a01b038516917fddf252ad1be2c89b69c2b068fc378daa952ba7f163c4a11628f55a4df523b3ef9181900360200190a35050565b60006124fb83836040518060400160405280601f81526020017f536166654d6174683a207375627472616374696f6e20756e646572666c6f770081525061261a565b600f5460ff1615156001146129ea576040805162461bcd60e51b815260206004820152601d60248201527f537461626c655661756c7453747261746567793a3a5f6465706f736974000000604482015290519081900360640190fd5b600e5415612a135760006129fc611bc6565b9050600e54811115612a1157612a1181612d04565b505b600a54604080517f23b872dd0000000000000000000000000000000000000000000000000000000081523360048201523060248201526044810184905290516001600160a01b03909216916323b872dd916064808201926020929091908290030181600087803b158015612a8657600080fd5b505af1158015612a9a573d6000803e3d6000fd5b505050506040513d6020811015612ab057600080fd5b5051612abb57600080fd5b612ac48161309f565b612ad682612ad183612074565b613144565b600954612ae390826124a1565b6009556040805182815290516001600160a01b038416917fe1fffcc4923d04b559f4d29a8bfc6cda04eb5b0d3c460751c2402c5c5cc9109c919081900360200190a25050565b3390565b600082612b3c57506000610a1f565b82820282848281612b4957fe5b04146124fb5760405162461bcd60e51b815260040180806020018281038252602181526020018061391e6021913960400191505060405180910390fd5b60006124fb83836040518060400160405280601a81526020017f536166654d6174683a206469766973696f6e206279207a65726f0000000000008152506131cf565b6000612bd2612197565b8560405160200180807f190100000000000000000000000000000000000000000000000000000000000081525060020183815260200182815260200192505050604051602081830303815290604052805190602001209050600060018286868660405160008152602001604052604051808581526020018460ff1681526020018381526020018281526020019450505050506020604051602081039080840390855afa158015612c86573d6000803e3d6000fd5b5050604051601f1901519150506001600160a01b03811615801590612cbc5750866001600160a01b0316816001600160a01b0316145b612cf75760405162461bcd60e51b815260040180806020018281038252602481526020018061385c6024913960400191505060405180910390fd5b50505050505050565b4690565b601460009054906101000a90046001600160a01b03166001600160a01b0316633d18b9126040518163ffffffff1660e01b8152600401600060405180830381600087803b158015612d5457600080fd5b505af1158015612d68573d6000803e3d6000fd5b505050506000612d89612710611baa60125485612b2d90919063ffffffff16565b90508015612e5157600b54600c546040805163a9059cbb60e01b81526001600160a01b039283166004820152602481018590529051919092169163a9059cbb9160448083019260209291908290030181600087803b158015612dea57600080fd5b505af1158015612dfe573d6000803e3d6000fd5b505050506040513d6020811015612e1457600080fd5b5051612e515760405162461bcd60e51b81526004018080602001828103825260238152602001806137b46023913960400191505060405180910390fd5b6000612e6e612710611baa60115486612b2d90919063ffffffff16565b90508015612f3d57600b546001600160a01b031663a9059cbb612e8f611614565b836040518363ffffffff1660e01b815260040180836001600160a01b0316815260200182815260200192505050602060405180830381600087803b158015612ed657600080fd5b505af1158015612eea573d6000803e3d6000fd5b505050506040513d6020811015612f0057600080fd5b5051612f3d5760405162461bcd60e51b81526004018080602001828103825260258152602001806138806025913960400191505060405180910390fd5b6000612f5a612710611baa60105487612b2d90919063ffffffff16565b9050801561301d57600b546040805163a9059cbb60e01b81523360048201526024810184905290516001600160a01b039092169163a9059cbb916044808201926020929091908290030181600087803b158015612fb657600080fd5b505af1158015612fca573d6000803e3d6000fd5b505050506040513d6020811015612fe057600080fd5b505161301d5760405162461bcd60e51b81526004018080602001828103825260268152602001806139936026913960400191505060405180910390fd5b600061303d6130388361303286818a8a61294c565b9061294c565b613234565b90506130488161309f565b60095461305590826124a1565b600981905560025460408051928352602083019190915280517fc7606d21ac05cd309191543e409f0845c016120563783d70e4f41419dc0ef2349281900390910190a15050505050565b600081116130de5760405162461bcd60e51b8152600401808060200182810382526028815260200180613a206028913960400191505060405180910390fd5b601454604080517fb6b55f250000000000000000000000000000000000000000000000000000000081526004810184905290516001600160a01b039092169163b6b55f259160248082019260009290919082900301818387803b15801561286357600080fd5b60025461315190826124a1565b6002556001600160a01b03821660009081526004602052604090205461317790826124a1565b6001600160a01b03831660008181526004602090815260408083209490945583518581529351929391927fddf252ad1be2c89b69c2b068fc378daa952ba7f163c4a11628f55a4df523b3ef9281900390910190a35050565b6000818361321e5760405162461bcd60e51b815260206004820181815283516024840152835190928392604490910191908501908083836000831561266e578181015183820152602001612656565b50600083858161322a57fe5b0495945050505050565b60008082116132745760405162461bcd60e51b81526004018080602001828103825260388152602001806139b96038913960400191505060405180910390fd5b604080516003808252608082019092526060916020820183803683375050600b5482519293506001600160a01b0316918391506000906132b057fe5b60200260200101906001600160a01b031690816001600160a01b03168152505073b31f66aa3c1e785363f0875a1b74e27b85fd66c7816001815181106132f257fe5b60200260200101906001600160a01b031690816001600160a01b03168152505073de3a24028580884448a5397872046a019649b0848160028151811061333457fe5b6001600160a01b03928316602091820292909201810191909152601354604080517fd06ca61f0000000000000000000000000000000000000000000000000000000081526004810188815260248201928352865160448301528651606096949094169463d06ca61f948a9489949092606490910191858201910280838360005b838110156133cc5781810151838201526020016133b4565b50505050905001935050505060006040518083038186803b1580156133f057600080fd5b505afa158015613404573d6000803e3d6000fd5b505050506040513d6000823e601f3d908101601f19168201604052602081101561342d57600080fd5b810190808051604051939291908464010000000082111561344d57600080fd5b90830190602082018581111561346257600080fd5b825186602082028301116401000000008211171561347f57600080fd5b82525081516020918201928201910280838360005b838110156134ac578181015183820152602001613494565b5050505090500160405250505090506000816001835103815181106134cd57fe5b60200260200101519050601360009054906101000a90046001600160a01b03166001600160a01b03166338ed173986838630426040518663ffffffff1660e01b81526004018086815260200185815260200180602001846001600160a01b03168152602001838152602001828103825285818151815260200191508051906020019060200280838360005b83811015613570578181015183820152602001613558565b505050509050019650505050505050600060405180830381600087803b15801561359957600080fd5b505af11580156135ad573d6000803e3d6000fd5b505050506040513d6000823e601f3d908101601f1916820160405260208110156135d657600080fd5b81019080805160405193929190846401000000008211156135f657600080fd5b90830190602082018581111561360b57600080fd5b825186602082028301116401000000008211171561362857600080fd5b82525081516020918201928201910280838360005b8381101561365557818101518382015260200161363d565b50505050905001604052505050506060600367ffffffffffffffff8111801561367d57600080fd5b506040519080825280602002602001820160405280156136a7578160200160208202803683370190505b50905081816000815181106136b857fe5b6020908102919091018101919091526015546040517f4d49e87d000000000000000000000000000000000000000000000000000000008152600060248201819052426044830181905260606004840190815286516064850152865192956001600160a01b0390951694634d49e87d948894889493928392608401918782019102808383895b8381101561375557818101518382015260200161373d565b50505050905001945050505050602060405180830381600087803b15801561377c57600080fd5b505af1158015613790573d6000803e3d6000fd5b505050506040513d60208110156137a657600080fd5b505197965050505050505056fe537461626c655661756c7453747261746567793a3a5f7265696e766573742c206465764f776e61626c653a206e6577206f776e657220697320746865207a65726f2061646472657373537461626c655661756c7453747261746567793a3a5f77697468647261774465706f736974546f6b656e735065726d697373696f6e65643a3a72656d6f76654465706f7369746f722c206e6f20616c6c6f776564206465706f7369746f7273417263683a3a76616c69646174655369673a20696e76616c6964207369676e6174757265537461626c655661756c7453747261746567793a3a5f7265696e766573742c2061646d696e5065726d697373696f6e65643a3a72656d6f76654465706f7369746f722c206e6f7420616c6c6f776564537461626c655661756c7453747261746567793a3a7265736375654465706c6f79656446756e64735f6275726e3a206275726e20616d6f756e74206578636565647320746f74616c20737570706c79536166654d6174683a206d756c7469706c69636174696f6e206f766572666c6f774f776e61626c653a2063616c6c6572206973206e6f7420746865206f776e65725f7472616e73666572546f6b656e733a2063616e6e6f74207472616e7366657220746f20746865207a65726f2061646472657373537461626c655661756c7453747261746567793a3a5f7265696e766573742c20726577617264537461626c655661756c7453747261746567793a3a5f636f6e76657274526577617264546f6b656e73546f4465706f736974546f6b656e737472616e7366657246726f6d3a207472616e7366657220616d6f756e74206578636565647320616c6c6f77616e6365537461626c655661756c7453747261746567793a3a5f7374616b654465706f736974546f6b656e735f6275726e3a206275726e20616d6f756e7420657863656564732066726f6d2062616c616e63655f7472616e73666572546f6b656e733a207472616e7366657220657863656564732066726f6d2062616c616e6365a26469706673582212201c515f1cb89c3f4c7e45a5f59c114bcedb7c5ec330e52837189681d77709db3e64736f6c634300070300334f776e61626c653a206e6577206f776e657220697320746865207a65726f20616464726573734f776e61626c653a2063616c6c6572206973206e6f7420746865206f776e65728be0079c531659141344cd1fd0a4f28419497f9722a3daafe3b4186f6b6457e0",
  "devdoc": {
    "kind": "dev",
    "methods": {
      "allowDepositor(address)": {
        "params": {
          "depositor": "address"
        }
      },
      "allowance(address,address)": {
        "params": {
          "account": "The address of the account holding the funds",
          "spender": "The address of the account spending the funds"
        },
        "returns": {
          "_0": "The number of tokens approved"
        }
      },
      "approve(address,uint256)": {
        "details": "This will overwrite the approval amount for `spender` and is subject to issues noted [here](https://eips.ethereum.org/EIPS/eip-20#approve) It is recommended to use increaseAllowance and decreaseAllowance instead",
        "params": {
          "amount": "The number of tokens that are approved (2^256-1 means infinite)",
          "spender": "The address of the account which may transfer tokens"
        },
        "returns": {
          "_0": "Whether or not the approval succeeded"
        }
      },
      "balanceOf(address)": {
        "params": {
          "account": "The address of the account to get the balance of"
        },
        "returns": {
          "_0": "The number of tokens held"
        }
      },
      "checkReward()": {
        "returns": {
          "_0": "reward tokens"
        }
      },
      "deposit(uint256)": {
        "params": {
          "amount": "Amount of tokens to deposit"
        }
      },
      "depositFor(address,uint256)": {
        "details": "Must mint receipt tokens to `account`",
        "params": {
          "account": "address to receive receipt tokens",
          "amount": "deposit tokens"
        }
      },
      "depositWithPermit(uint256,uint256,uint8,bytes32,bytes32)": {
        "params": {
          "amount": "Amount of tokens to deposit",
          "deadline": "The time at which to expire the signature",
          "r": "Half of the ECDSA signature pair",
          "s": "Half of the ECDSA signature pair",
          "v": "The recovery byte of the signature"
        }
      },
      "estimateDeployedBalance()": {
        "returns": {
          "_0": "deposit tokens"
        }
      },
      "estimateReinvestReward()": {
        "returns": {
          "_0": "reward tokens"
        }
      },
      "getDepositTokensForShares(uint256)": {
        "params": {
          "amount": "receipt tokens"
        },
        "returns": {
          "_0": "deposit tokens"
        }
      },
      "getDomainSeparator()": {
        "returns": {
          "_0": "Separator"
        }
      },
      "getSharesForDepositTokens(uint256)": {
        "details": "If contract is empty, use 1:1 ratioCould return zero shares for very low amounts of deposit tokens",
        "params": {
          "amount": "deposit tokens"
        },
        "returns": {
          "_0": "receipt tokens"
        }
      },
      "owner()": {
        "details": "Returns the address of the current owner."
      },
      "permit(address,address,uint256,uint256,uint8,bytes32,bytes32)": {
        "params": {
          "deadline": "The time at which to expire the signature",
          "owner": "The address to approve from",
          "r": "Half of the ECDSA signature pair",
          "s": "Half of the ECDSA signature pair",
          "spender": "The address to be approved",
          "v": "The recovery byte of the signature",
          "value": "The number of tokens that are approved (2^256-1 means infinite)"
        }
      },
      "recoverAVAX(uint256)": {
        "params": {
          "amount": "amount"
        }
      },
      "recoverERC20(address,uint256)": {
        "params": {
          "tokenAddress": "token address",
          "tokenAmount": "amount to recover"
        }
      },
      "removeDepositor(address)": {
        "params": {
          "depositor": "address"
        }
      },
      "renounceOwnership()": {
        "details": "Leaves the contract without owner. It will not be possible to call `onlyOwner` functions anymore. Can only be called by the current owner. NOTE: Renouncing ownership will leave the contract without an owner, thereby removing any functionality that is only available to the owner."
      },
      "rescueDeployedFunds(uint256,bool)": {
        "params": {
          "disableDeposits": "bool",
          "minReturnAmountAccepted": "min deposit tokens to receive"
        }
      },
      "revokeAllowance(address,address)": {
        "params": {
          "spender": "address",
          "token": "address"
        }
      },
      "setAllowances()": {
        "details": "Restricted to avoid griefing attacks"
      },
      "transfer(address,uint256)": {
        "params": {
          "amount": "The number of tokens to transfer",
          "dst": "The address of the destination account"
        },
        "returns": {
          "_0": "Whether or not the transfer succeeded"
        }
      },
      "transferFrom(address,address,uint256)": {
        "params": {
          "amount": "The number of tokens to transfer",
          "dst": "The address of the destination account",
          "src": "The address of the source account"
        },
        "returns": {
          "_0": "Whether or not the transfer succeeded"
        }
      },
      "transferOwnership(address)": {
        "details": "Transfers ownership of the contract to a new account (`newOwner`). Can only be called by the current owner."
      },
      "updateAdminFee(uint256)": {
        "params": {
          "newValue": "fee in BIPS"
        }
      },
      "updateDepositsEnabled(bool)": {
        "params": {
          "newValue": "bool"
        }
      },
      "updateDevAddr(address)": {
        "params": {
          "newValue": "address"
        }
      },
      "updateDevFee(uint256)": {
        "params": {
          "newValue": "fee in BIPS"
        }
      },
      "updateMaxTokensToDepositWithoutReinvest(uint256)": {
        "params": {
          "newValue": "threshold"
        }
      },
      "updateMinTokensToReinvest(uint256)": {
        "params": {
          "newValue": "threshold"
        }
      },
      "updateReinvestReward(uint256)": {
        "params": {
          "newValue": "fee in BIPS"
        }
      },
      "withdraw(uint256)": {
        "params": {
          "amount": "receipt tokens"
        }
      }
    },
    "version": 1
  },
  "userdoc": {
    "kind": "user",
    "methods": {
      "DOMAIN_TYPEHASH()": {
        "notice": "keccak256(\"EIP712Domain(string name,string version,uint256 chainId,address verifyingContract)\")"
      },
      "PERMIT_TYPEHASH()": {
        "notice": "keccak256(\"Permit(address owner,address spender,uint256 value,uint256 nonce,uint256 deadline)\");"
      },
      "VERSION_HASH()": {
        "notice": "keccak256(\"1\");"
      },
      "allowDepositor(address)": {
        "notice": "Add an allowed depositor"
      },
      "allowance(address,address)": {
        "notice": "Get the number of tokens `spender` is approved to spend on behalf of `account`"
      },
      "approve(address,uint256)": {
        "notice": "Approve `spender` to transfer up to `amount` from `src`"
      },
      "balanceOf(address)": {
        "notice": "Get the number of tokens held by the `account`"
      },
      "checkReward()": {
        "notice": "Reward tokens avialable to strategy, including balance"
      },
      "deposit(uint256)": {
        "notice": "Deposit tokens to receive receipt tokens"
      },
      "depositFor(address,uint256)": {
        "notice": "Deposit on behalf of another account"
      },
      "depositWithPermit(uint256,uint256,uint8,bytes32,bytes32)": {
        "notice": "Deposit using Permit"
      },
      "estimateDeployedBalance()": {
        "notice": "Estimate recoverable balance"
      },
      "estimateReinvestReward()": {
        "notice": "Estimate reinvest reward"
      },
      "getDepositTokensForShares(uint256)": {
        "notice": "Calculate deposit tokens for a given amount of receipt tokens"
      },
      "getDomainSeparator()": {
        "notice": "EIP-712 Domain separator"
      },
      "getSharesForDepositTokens(uint256)": {
        "notice": "Calculate receipt tokens for a given amount of deposit tokens"
      },
      "permit(address,address,uint256,uint256,uint8,bytes32,bytes32)": {
        "notice": "Triggers an approval from owner to spender"
      },
      "recoverAVAX(uint256)": {
        "notice": "Recover AVAX from contract"
      },
      "recoverERC20(address,uint256)": {
        "notice": "Recover ERC20 from contract"
      },
      "reinvest()": {
        "notice": "Reinvest reward tokens into deposit tokens"
      },
      "removeDepositor(address)": {
        "notice": "Remove an allowed depositor"
      },
      "rescueDeployedFunds(uint256,bool)": {
        "notice": "Rescue all available deployed deposit tokens back to Strategy"
      },
      "revokeAllowance(address,address)": {
        "notice": "Revoke token allowance"
      },
      "setAllowances()": {
        "notice": "Approve tokens for use in Strategy"
      },
      "transfer(address,uint256)": {
        "notice": "Transfer `amount` tokens from `msg.sender` to `dst`"
      },
      "transferFrom(address,address,uint256)": {
        "notice": "Transfer `amount` tokens from `src` to `dst`"
      },
      "updateAdminFee(uint256)": {
        "notice": "Update admin fee"
      },
      "updateDepositsEnabled(bool)": {
        "notice": "Enable/disable deposits"
      },
      "updateDevAddr(address)": {
        "notice": "Update devAddr"
      },
      "updateDevFee(uint256)": {
        "notice": "Update developer fee"
      },
      "updateMaxTokensToDepositWithoutReinvest(uint256)": {
        "notice": "Update reinvest max threshold before a deposit"
      },
      "updateMinTokensToReinvest(uint256)": {
        "notice": "Update reinvest min threshold"
      },
      "updateReinvestReward(uint256)": {
        "notice": "Update reinvest reward"
      },
      "withdraw(uint256)": {
        "notice": "Redeem receipt tokens for deposit tokens"
      }
    },
    "notice": "StableSwap strategy",
    "version": 1
  },
  "storageLayout": {
    "storage": [
      {
        "astId": 15814,
        "contract": "contracts/strategies/StableVaultStrategyForS3D.sol:StableVaultStrategyForS3D",
        "label": "name",
        "offset": 0,
        "slot": "0",
        "type": "t_string_storage"
      },
      {
        "astId": 15817,
        "contract": "contracts/strategies/StableVaultStrategyForS3D.sol:StableVaultStrategyForS3D",
        "label": "symbol",
        "offset": 0,
        "slot": "1",
        "type": "t_string_storage"
      },
      {
        "astId": 15822,
        "contract": "contracts/strategies/StableVaultStrategyForS3D.sol:StableVaultStrategyForS3D",
        "label": "totalSupply",
        "offset": 0,
        "slot": "2",
        "type": "t_uint256"
      },
      {
        "astId": 15828,
        "contract": "contracts/strategies/StableVaultStrategyForS3D.sol:StableVaultStrategyForS3D",
        "label": "allowances",
        "offset": 0,
        "slot": "3",
        "type": "t_mapping(t_address,t_mapping(t_address,t_uint256))"
      },
      {
        "astId": 15832,
        "contract": "contracts/strategies/StableVaultStrategyForS3D.sol:StableVaultStrategyForS3D",
        "label": "balances",
        "offset": 0,
        "slot": "4",
        "type": "t_mapping(t_address,t_uint256)"
      },
      {
        "astId": 15848,
        "contract": "contracts/strategies/StableVaultStrategyForS3D.sol:StableVaultStrategyForS3D",
        "label": "nonces",
        "offset": 0,
        "slot": "5",
        "type": "t_mapping(t_address,t_uint256)"
      },
      {
        "astId": 19664,
        "contract": "contracts/strategies/StableVaultStrategyForS3D.sol:StableVaultStrategyForS3D",
        "label": "_owner",
        "offset": 0,
        "slot": "6",
        "type": "t_address"
      },
      {
        "astId": 19777,
        "contract": "contracts/strategies/StableVaultStrategyForS3D.sol:StableVaultStrategyForS3D",
        "label": "numberOfAllowedDepositors",
        "offset": 0,
        "slot": "7",
        "type": "t_uint256"
      },
      {
        "astId": 19781,
        "contract": "contracts/strategies/StableVaultStrategyForS3D.sol:StableVaultStrategyForS3D",
        "label": "allowedDepositors",
        "offset": 0,
        "slot": "8",
        "type": "t_mapping(t_address,t_bool)"
      },
      {
        "astId": 16342,
        "contract": "contracts/strategies/StableVaultStrategyForS3D.sol:StableVaultStrategyForS3D",
        "label": "totalDeposits",
        "offset": 0,
        "slot": "9",
        "type": "t_uint256"
      },
      {
        "astId": 16344,
        "contract": "contracts/strategies/StableVaultStrategyForS3D.sol:StableVaultStrategyForS3D",
        "label": "depositToken",
        "offset": 0,
        "slot": "10",
        "type": "t_contract(IERC20)17729"
      },
      {
        "astId": 16346,
        "contract": "contracts/strategies/StableVaultStrategyForS3D.sol:StableVaultStrategyForS3D",
        "label": "rewardToken",
        "offset": 0,
        "slot": "11",
        "type": "t_contract(IERC20)17729"
      },
      {
        "astId": 16348,
        "contract": "contracts/strategies/StableVaultStrategyForS3D.sol:StableVaultStrategyForS3D",
        "label": "devAddr",
        "offset": 0,
        "slot": "12",
        "type": "t_address"
      },
      {
        "astId": 16350,
        "contract": "contracts/strategies/StableVaultStrategyForS3D.sol:StableVaultStrategyForS3D",
        "label": "MIN_TOKENS_TO_REINVEST",
        "offset": 0,
        "slot": "13",
        "type": "t_uint256"
      },
      {
        "astId": 16352,
        "contract": "contracts/strategies/StableVaultStrategyForS3D.sol:StableVaultStrategyForS3D",
        "label": "MAX_TOKENS_TO_DEPOSIT_WITHOUT_REINVEST",
        "offset": 0,
        "slot": "14",
        "type": "t_uint256"
      },
      {
        "astId": 16354,
        "contract": "contracts/strategies/StableVaultStrategyForS3D.sol:StableVaultStrategyForS3D",
        "label": "DEPOSITS_ENABLED",
        "offset": 0,
        "slot": "15",
        "type": "t_bool"
      },
      {
        "astId": 16356,
        "contract": "contracts/strategies/StableVaultStrategyForS3D.sol:StableVaultStrategyForS3D",
        "label": "REINVEST_REWARD_BIPS",
        "offset": 0,
        "slot": "16",
        "type": "t_uint256"
      },
      {
        "astId": 16358,
        "contract": "contracts/strategies/StableVaultStrategyForS3D.sol:StableVaultStrategyForS3D",
        "label": "ADMIN_FEE_BIPS",
        "offset": 0,
        "slot": "17",
        "type": "t_uint256"
      },
      {
        "astId": 16360,
        "contract": "contracts/strategies/StableVaultStrategyForS3D.sol:StableVaultStrategyForS3D",
        "label": "DEV_FEE_BIPS",
        "offset": 0,
        "slot": "18",
        "type": "t_uint256"
      },
      {
        "astId": 36689,
        "contract": "contracts/strategies/StableVaultStrategyForS3D.sol:StableVaultStrategyForS3D",
        "label": "router",
        "offset": 0,
        "slot": "19",
        "type": "t_contract(IRouter)19097"
      },
      {
        "astId": 36691,
        "contract": "contracts/strategies/StableVaultStrategyForS3D.sol:StableVaultStrategyForS3D",
        "label": "stakingContract",
        "offset": 0,
        "slot": "20",
        "type": "t_contract(IGauge)17809"
      },
      {
        "astId": 36693,
        "contract": "contracts/strategies/StableVaultStrategyForS3D.sol:StableVaultStrategyForS3D",
        "label": "poolContract",
        "offset": 0,
        "slot": "21",
        "type": "t_contract(IGondolaPool)18120"
      }
    ],
    "types": {
      "t_address": {
        "encoding": "inplace",
        "label": "address",
        "numberOfBytes": "20"
      },
      "t_bool": {
        "encoding": "inplace",
        "label": "bool",
        "numberOfBytes": "1"
      },
      "t_contract(IERC20)17729": {
        "encoding": "inplace",
        "label": "contract IERC20",
        "numberOfBytes": "20"
      },
      "t_contract(IGauge)17809": {
        "encoding": "inplace",
        "label": "contract IGauge",
        "numberOfBytes": "20"
      },
      "t_contract(IGondolaPool)18120": {
        "encoding": "inplace",
        "label": "contract IGondolaPool",
        "numberOfBytes": "20"
      },
      "t_contract(IRouter)19097": {
        "encoding": "inplace",
        "label": "contract IRouter",
        "numberOfBytes": "20"
      },
      "t_mapping(t_address,t_bool)": {
        "encoding": "mapping",
        "key": "t_address",
        "label": "mapping(address => bool)",
        "numberOfBytes": "32",
        "value": "t_bool"
      },
      "t_mapping(t_address,t_mapping(t_address,t_uint256))": {
        "encoding": "mapping",
        "key": "t_address",
        "label": "mapping(address => mapping(address => uint256))",
        "numberOfBytes": "32",
        "value": "t_mapping(t_address,t_uint256)"
      },
      "t_mapping(t_address,t_uint256)": {
        "encoding": "mapping",
        "key": "t_address",
        "label": "mapping(address => uint256)",
        "numberOfBytes": "32",
        "value": "t_uint256"
      },
      "t_string_storage": {
        "encoding": "bytes",
        "label": "string",
        "numberOfBytes": "32"
      },
      "t_uint256": {
        "encoding": "inplace",
        "label": "uint256",
        "numberOfBytes": "32"
      }
    }
  }
}