{
  "address": "0xcd8C19F6858eaa5B5130cCB1b5665C8C675A667d",
  "abi": [
    {
      "inputs": [
        {
          "internalType": "string",
          "name": "_name",
          "type": "string"
        },
        {
          "components": [
            {
              "internalType": "address",
              "name": "depositToken",
              "type": "address"
            },
            {
              "internalType": "address",
              "name": "underlyingToken",
              "type": "address"
            },
            {
              "internalType": "address",
              "name": "poolRewardToken",
              "type": "address"
            }
          ],
          "internalType": "struct StargateStrategyForLP.Tokens",
          "name": "_tokens",
          "type": "tuple"
        },
        {
          "internalType": "address",
          "name": "_swapPairPoolReward",
          "type": "address"
        },
        {
          "internalType": "address",
          "name": "_swapPairRewardTokenUnderlying",
          "type": "address"
        },
        {
          "internalType": "address",
          "name": "_stakingContract",
          "type": "address"
        },
        {
          "internalType": "uint256",
          "name": "_pid",
          "type": "uint256"
        },
        {
          "internalType": "address",
          "name": "_stargateRouter",
          "type": "address"
        },
        {
          "internalType": "uint256",
          "name": "_routerPid",
          "type": "uint256"
        },
        {
          "internalType": "address",
          "name": "_timelock",
          "type": "address"
        },
        {
          "components": [
            {
              "internalType": "uint256",
              "name": "minTokensToReinvest",
              "type": "uint256"
            },
            {
              "internalType": "uint256",
              "name": "adminFeeBips",
              "type": "uint256"
            },
            {
              "internalType": "uint256",
              "name": "devFeeBips",
              "type": "uint256"
            },
            {
              "internalType": "uint256",
              "name": "reinvestRewardBips",
              "type": "uint256"
            }
          ],
          "internalType": "struct MasterChefStrategy.StrategySettings",
          "name": "_strategySettings",
          "type": "tuple"
        }
      ],
      "stateMutability": "nonpayable",
      "type": "constructor"
    },
    {
      "anonymous": false,
      "inputs": [
        {
          "indexed": true,
          "internalType": "address",
          "name": "account",
          "type": "address"
        }
      ],
      "name": "AllowDepositor",
      "type": "event"
    },
    {
      "anonymous": false,
      "inputs": [
        {
          "indexed": true,
          "internalType": "address",
          "name": "owner",
          "type": "address"
        },
        {
          "indexed": true,
          "internalType": "address",
          "name": "spender",
          "type": "address"
        },
        {
          "indexed": false,
          "internalType": "uint256",
          "name": "value",
          "type": "uint256"
        }
      ],
      "name": "Approval",
      "type": "event"
    },
    {
      "anonymous": false,
      "inputs": [
        {
          "indexed": true,
          "internalType": "address",
          "name": "account",
          "type": "address"
        },
        {
          "indexed": false,
          "internalType": "uint256",
          "name": "amount",
          "type": "uint256"
        }
      ],
      "name": "Deposit",
      "type": "event"
    },
    {
      "anonymous": false,
      "inputs": [
        {
          "indexed": false,
          "internalType": "bool",
          "name": "newValue",
          "type": "bool"
        }
      ],
      "name": "DepositsEnabled",
      "type": "event"
    },
    {
      "anonymous": false,
      "inputs": [
        {
          "indexed": true,
          "internalType": "address",
          "name": "previousOwner",
          "type": "address"
        },
        {
          "indexed": true,
          "internalType": "address",
          "name": "newOwner",
          "type": "address"
        }
      ],
      "name": "OwnershipTransferred",
      "type": "event"
    },
    {
      "anonymous": false,
      "inputs": [
        {
          "indexed": false,
          "internalType": "address",
          "name": "token",
          "type": "address"
        },
        {
          "indexed": false,
          "internalType": "uint256",
          "name": "amount",
          "type": "uint256"
        }
      ],
      "name": "Recovered",
      "type": "event"
    },
    {
      "anonymous": false,
      "inputs": [
        {
          "indexed": false,
          "internalType": "uint256",
          "name": "newTotalDeposits",
          "type": "uint256"
        },
        {
          "indexed": false,
          "internalType": "uint256",
          "name": "newTotalSupply",
          "type": "uint256"
        }
      ],
      "name": "Reinvest",
      "type": "event"
    },
    {
      "anonymous": false,
      "inputs": [
        {
          "indexed": true,
          "internalType": "address",
          "name": "account",
          "type": "address"
        }
      ],
      "name": "RemoveDepositor",
      "type": "event"
    },
    {
      "anonymous": false,
      "inputs": [
        {
          "indexed": true,
          "internalType": "address",
          "name": "from",
          "type": "address"
        },
        {
          "indexed": true,
          "internalType": "address",
          "name": "to",
          "type": "address"
        },
        {
          "indexed": false,
          "internalType": "uint256",
          "name": "value",
          "type": "uint256"
        }
      ],
      "name": "Transfer",
      "type": "event"
    },
    {
      "anonymous": false,
      "inputs": [
        {
          "indexed": false,
          "internalType": "uint256",
          "name": "oldValue",
          "type": "uint256"
        },
        {
          "indexed": false,
          "internalType": "uint256",
          "name": "newValue",
          "type": "uint256"
        }
      ],
      "name": "UpdateAdminFee",
      "type": "event"
    },
    {
      "anonymous": false,
      "inputs": [
        {
          "indexed": false,
          "internalType": "address",
          "name": "oldValue",
          "type": "address"
        },
        {
          "indexed": false,
          "internalType": "address",
          "name": "newValue",
          "type": "address"
        }
      ],
      "name": "UpdateDevAddr",
      "type": "event"
    },
    {
      "anonymous": false,
      "inputs": [
        {
          "indexed": false,
          "internalType": "uint256",
          "name": "oldValue",
          "type": "uint256"
        },
        {
          "indexed": false,
          "internalType": "uint256",
          "name": "newValue",
          "type": "uint256"
        }
      ],
      "name": "UpdateDevFee",
      "type": "event"
    },
    {
      "anonymous": false,
      "inputs": [
        {
          "indexed": false,
          "internalType": "uint256",
          "name": "oldValue",
          "type": "uint256"
        },
        {
          "indexed": false,
          "internalType": "uint256",
          "name": "newValue",
          "type": "uint256"
        }
      ],
      "name": "UpdateMaxTokensToDepositWithoutReinvest",
      "type": "event"
    },
    {
      "anonymous": false,
      "inputs": [
        {
          "indexed": false,
          "internalType": "uint256",
          "name": "oldValue",
          "type": "uint256"
        },
        {
          "indexed": false,
          "internalType": "uint256",
          "name": "newValue",
          "type": "uint256"
        }
      ],
      "name": "UpdateMinTokensToReinvest",
      "type": "event"
    },
    {
      "anonymous": false,
      "inputs": [
        {
          "indexed": false,
          "internalType": "uint256",
          "name": "oldValue",
          "type": "uint256"
        },
        {
          "indexed": false,
          "internalType": "uint256",
          "name": "newValue",
          "type": "uint256"
        }
      ],
      "name": "UpdateReinvestReward",
      "type": "event"
    },
    {
      "anonymous": false,
      "inputs": [
        {
          "indexed": true,
          "internalType": "address",
          "name": "account",
          "type": "address"
        },
        {
          "indexed": false,
          "internalType": "uint256",
          "name": "amount",
          "type": "uint256"
        }
      ],
      "name": "Withdraw",
      "type": "event"
    },
    {
      "inputs": [],
      "name": "ADMIN_FEE_BIPS",
      "outputs": [
        {
          "internalType": "uint256",
          "name": "",
          "type": "uint256"
        }
      ],
      "stateMutability": "view",
      "type": "function"
    },
    {
      "inputs": [],
      "name": "DEPOSITS_ENABLED",
      "outputs": [
        {
          "internalType": "bool",
          "name": "",
          "type": "bool"
        }
      ],
      "stateMutability": "view",
      "type": "function"
    },
    {
      "inputs": [],
      "name": "DEV_FEE_BIPS",
      "outputs": [
        {
          "internalType": "uint256",
          "name": "",
          "type": "uint256"
        }
      ],
      "stateMutability": "view",
      "type": "function"
    },
    {
      "inputs": [],
      "name": "DOMAIN_TYPEHASH",
      "outputs": [
        {
          "internalType": "bytes32",
          "name": "",
          "type": "bytes32"
        }
      ],
      "stateMutability": "view",
      "type": "function"
    },
    {
      "inputs": [],
      "name": "MAX_TOKENS_TO_DEPOSIT_WITHOUT_REINVEST",
      "outputs": [
        {
          "internalType": "uint256",
          "name": "",
          "type": "uint256"
        }
      ],
      "stateMutability": "view",
      "type": "function"
    },
    {
      "inputs": [],
      "name": "MIN_TOKENS_TO_REINVEST",
      "outputs": [
        {
          "internalType": "uint256",
          "name": "",
          "type": "uint256"
        }
      ],
      "stateMutability": "view",
      "type": "function"
    },
    {
      "inputs": [],
      "name": "PERMIT_TYPEHASH",
      "outputs": [
        {
          "internalType": "bytes32",
          "name": "",
          "type": "bytes32"
        }
      ],
      "stateMutability": "view",
      "type": "function"
    },
    {
      "inputs": [],
      "name": "PID",
      "outputs": [
        {
          "internalType": "uint256",
          "name": "",
          "type": "uint256"
        }
      ],
      "stateMutability": "view",
      "type": "function"
    },
    {
      "inputs": [],
      "name": "REINVEST_REWARD_BIPS",
      "outputs": [
        {
          "internalType": "uint256",
          "name": "",
          "type": "uint256"
        }
      ],
      "stateMutability": "view",
      "type": "function"
    },
    {
      "inputs": [],
      "name": "VERSION_HASH",
      "outputs": [
        {
          "internalType": "bytes32",
          "name": "",
          "type": "bytes32"
        }
      ],
      "stateMutability": "view",
      "type": "function"
    },
    {
      "inputs": [
        {
          "internalType": "address",
          "name": "depositor",
          "type": "address"
        }
      ],
      "name": "allowDepositor",
      "outputs": [],
      "stateMutability": "nonpayable",
      "type": "function"
    },
    {
      "inputs": [
        {
          "internalType": "address",
          "name": "account",
          "type": "address"
        },
        {
          "internalType": "address",
          "name": "spender",
          "type": "address"
        }
      ],
      "name": "allowance",
      "outputs": [
        {
          "internalType": "uint256",
          "name": "",
          "type": "uint256"
        }
      ],
      "stateMutability": "view",
      "type": "function"
    },
    {
      "inputs": [
        {
          "internalType": "address",
          "name": "",
          "type": "address"
        }
      ],
      "name": "allowedDepositors",
      "outputs": [
        {
          "internalType": "bool",
          "name": "",
          "type": "bool"
        }
      ],
      "stateMutability": "view",
      "type": "function"
    },
    {
      "inputs": [
        {
          "internalType": "address",
          "name": "spender",
          "type": "address"
        },
        {
          "internalType": "uint256",
          "name": "amount",
          "type": "uint256"
        }
      ],
      "name": "approve",
      "outputs": [
        {
          "internalType": "bool",
          "name": "",
          "type": "bool"
        }
      ],
      "stateMutability": "nonpayable",
      "type": "function"
    },
    {
      "inputs": [
        {
          "internalType": "address",
          "name": "account",
          "type": "address"
        }
      ],
      "name": "balanceOf",
      "outputs": [
        {
          "internalType": "uint256",
          "name": "",
          "type": "uint256"
        }
      ],
      "stateMutability": "view",
      "type": "function"
    },
    {
      "inputs": [],
      "name": "checkReward",
      "outputs": [
        {
          "internalType": "uint256",
          "name": "",
          "type": "uint256"
        }
      ],
      "stateMutability": "view",
      "type": "function"
    },
    {
      "inputs": [],
      "name": "decimals",
      "outputs": [
        {
          "internalType": "uint8",
          "name": "",
          "type": "uint8"
        }
      ],
      "stateMutability": "view",
      "type": "function"
    },
    {
      "inputs": [
        {
          "internalType": "uint256",
          "name": "amount",
          "type": "uint256"
        }
      ],
      "name": "deposit",
      "outputs": [],
      "stateMutability": "nonpayable",
      "type": "function"
    },
    {
      "inputs": [
        {
          "internalType": "address",
          "name": "account",
          "type": "address"
        },
        {
          "internalType": "uint256",
          "name": "amount",
          "type": "uint256"
        }
      ],
      "name": "depositFor",
      "outputs": [],
      "stateMutability": "nonpayable",
      "type": "function"
    },
    {
      "inputs": [],
      "name": "depositToken",
      "outputs": [
        {
          "internalType": "contract IERC20",
          "name": "",
          "type": "address"
        }
      ],
      "stateMutability": "view",
      "type": "function"
    },
    {
      "inputs": [
        {
          "internalType": "uint256",
          "name": "amount",
          "type": "uint256"
        },
        {
          "internalType": "uint256",
          "name": "deadline",
          "type": "uint256"
        },
        {
          "internalType": "uint8",
          "name": "v",
          "type": "uint8"
        },
        {
          "internalType": "bytes32",
          "name": "r",
          "type": "bytes32"
        },
        {
          "internalType": "bytes32",
          "name": "s",
          "type": "bytes32"
        }
      ],
      "name": "depositWithPermit",
      "outputs": [],
      "stateMutability": "nonpayable",
      "type": "function"
    },
    {
      "inputs": [],
      "name": "devAddr",
      "outputs": [
        {
          "internalType": "address",
          "name": "",
          "type": "address"
        }
      ],
      "stateMutability": "view",
      "type": "function"
    },
    {
      "inputs": [],
      "name": "estimateDeployedBalance",
      "outputs": [
        {
          "internalType": "uint256",
          "name": "",
          "type": "uint256"
        }
      ],
      "stateMutability": "view",
      "type": "function"
    },
    {
      "inputs": [],
      "name": "estimateReinvestReward",
      "outputs": [
        {
          "internalType": "uint256",
          "name": "",
          "type": "uint256"
        }
      ],
      "stateMutability": "view",
      "type": "function"
    },
    {
      "inputs": [],
      "name": "extraToken",
      "outputs": [
        {
          "internalType": "address",
          "name": "",
          "type": "address"
        }
      ],
      "stateMutability": "view",
      "type": "function"
    },
    {
      "inputs": [
        {
          "internalType": "uint256",
          "name": "amount",
          "type": "uint256"
        }
      ],
      "name": "getDepositTokensForShares",
      "outputs": [
        {
          "internalType": "uint256",
          "name": "",
          "type": "uint256"
        }
      ],
      "stateMutability": "view",
      "type": "function"
    },
    {
      "inputs": [],
      "name": "getDomainSeparator",
      "outputs": [
        {
          "internalType": "bytes32",
          "name": "",
          "type": "bytes32"
        }
      ],
      "stateMutability": "view",
      "type": "function"
    },
    {
      "inputs": [
        {
          "internalType": "uint256",
          "name": "amount",
          "type": "uint256"
        }
      ],
      "name": "getSharesForDepositTokens",
      "outputs": [
        {
          "internalType": "uint256",
          "name": "",
          "type": "uint256"
        }
      ],
      "stateMutability": "view",
      "type": "function"
    },
    {
      "inputs": [],
      "name": "name",
      "outputs": [
        {
          "internalType": "string",
          "name": "",
          "type": "string"
        }
      ],
      "stateMutability": "view",
      "type": "function"
    },
    {
      "inputs": [
        {
          "internalType": "address",
          "name": "",
          "type": "address"
        }
      ],
      "name": "nonces",
      "outputs": [
        {
          "internalType": "uint256",
          "name": "",
          "type": "uint256"
        }
      ],
      "stateMutability": "view",
      "type": "function"
    },
    {
      "inputs": [],
      "name": "numberOfAllowedDepositors",
      "outputs": [
        {
          "internalType": "uint256",
          "name": "",
          "type": "uint256"
        }
      ],
      "stateMutability": "view",
      "type": "function"
    },
    {
      "inputs": [],
      "name": "owner",
      "outputs": [
        {
          "internalType": "address",
          "name": "",
          "type": "address"
        }
      ],
      "stateMutability": "view",
      "type": "function"
    },
    {
      "inputs": [
        {
          "internalType": "address",
          "name": "owner",
          "type": "address"
        },
        {
          "internalType": "address",
          "name": "spender",
          "type": "address"
        },
        {
          "internalType": "uint256",
          "name": "value",
          "type": "uint256"
        },
        {
          "internalType": "uint256",
          "name": "deadline",
          "type": "uint256"
        },
        {
          "internalType": "uint8",
          "name": "v",
          "type": "uint8"
        },
        {
          "internalType": "bytes32",
          "name": "r",
          "type": "bytes32"
        },
        {
          "internalType": "bytes32",
          "name": "s",
          "type": "bytes32"
        }
      ],
      "name": "permit",
      "outputs": [],
      "stateMutability": "nonpayable",
      "type": "function"
    },
    {
      "inputs": [
        {
          "internalType": "uint256",
          "name": "amount",
          "type": "uint256"
        }
      ],
      "name": "recoverAVAX",
      "outputs": [],
      "stateMutability": "nonpayable",
      "type": "function"
    },
    {
      "inputs": [
        {
          "internalType": "address",
          "name": "tokenAddress",
          "type": "address"
        },
        {
          "internalType": "uint256",
          "name": "tokenAmount",
          "type": "uint256"
        }
      ],
      "name": "recoverERC20",
      "outputs": [],
      "stateMutability": "nonpayable",
      "type": "function"
    },
    {
      "inputs": [],
      "name": "reinvest",
      "outputs": [],
      "stateMutability": "nonpayable",
      "type": "function"
    },
    {
      "inputs": [
        {
          "internalType": "address",
          "name": "depositor",
          "type": "address"
        }
      ],
      "name": "removeDepositor",
      "outputs": [],
      "stateMutability": "nonpayable",
      "type": "function"
    },
    {
      "inputs": [],
      "name": "renounceOwnership",
      "outputs": [],
      "stateMutability": "nonpayable",
      "type": "function"
    },
    {
      "inputs": [
        {
          "internalType": "uint256",
          "name": "minReturnAmountAccepted",
          "type": "uint256"
        },
        {
          "internalType": "bool",
          "name": "disableDeposits",
          "type": "bool"
        }
      ],
      "name": "rescueDeployedFunds",
      "outputs": [],
      "stateMutability": "nonpayable",
      "type": "function"
    },
    {
      "inputs": [
        {
          "internalType": "address",
          "name": "token",
          "type": "address"
        },
        {
          "internalType": "address",
          "name": "spender",
          "type": "address"
        }
      ],
      "name": "revokeAllowance",
      "outputs": [],
      "stateMutability": "nonpayable",
      "type": "function"
    },
    {
      "inputs": [],
      "name": "rewardToken",
      "outputs": [
        {
          "internalType": "contract IERC20",
          "name": "",
          "type": "address"
        }
      ],
      "stateMutability": "view",
      "type": "function"
    },
    {
      "inputs": [],
      "name": "setAllowances",
      "outputs": [],
      "stateMutability": "nonpayable",
      "type": "function"
    },
    {
      "inputs": [
        {
          "internalType": "address",
          "name": "_extraTokenSwapPair",
          "type": "address"
        }
      ],
      "name": "setExtraRewardSwapPair",
      "outputs": [],
      "stateMutability": "nonpayable",
      "type": "function"
    },
    {
      "inputs": [],
      "name": "stakingContract",
      "outputs": [
        {
          "internalType": "contract IStargateLPStaking",
          "name": "",
          "type": "address"
        }
      ],
      "stateMutability": "view",
      "type": "function"
    },
    {
      "inputs": [],
      "name": "stargateRouter",
      "outputs": [
        {
          "internalType": "contract IStargateRouter",
          "name": "",
          "type": "address"
        }
      ],
      "stateMutability": "view",
      "type": "function"
    },
    {
      "inputs": [],
      "name": "swapPairExtraReward",
      "outputs": [
        {
          "internalType": "address",
          "name": "",
          "type": "address"
        }
      ],
      "stateMutability": "view",
      "type": "function"
    },
    {
      "inputs": [],
      "name": "symbol",
      "outputs": [
        {
          "internalType": "string",
          "name": "",
          "type": "string"
        }
      ],
      "stateMutability": "view",
      "type": "function"
    },
    {
      "inputs": [],
      "name": "totalDeposits",
      "outputs": [
        {
          "internalType": "uint256",
          "name": "",
          "type": "uint256"
        }
      ],
      "stateMutability": "view",
      "type": "function"
    },
    {
      "inputs": [],
      "name": "totalSupply",
      "outputs": [
        {
          "internalType": "uint256",
          "name": "",
          "type": "uint256"
        }
      ],
      "stateMutability": "view",
      "type": "function"
    },
    {
      "inputs": [
        {
          "internalType": "address",
          "name": "dst",
          "type": "address"
        },
        {
          "internalType": "uint256",
          "name": "amount",
          "type": "uint256"
        }
      ],
      "name": "transfer",
      "outputs": [
        {
          "internalType": "bool",
          "name": "",
          "type": "bool"
        }
      ],
      "stateMutability": "nonpayable",
      "type": "function"
    },
    {
      "inputs": [
        {
          "internalType": "address",
          "name": "src",
          "type": "address"
        },
        {
          "internalType": "address",
          "name": "dst",
          "type": "address"
        },
        {
          "internalType": "uint256",
          "name": "amount",
          "type": "uint256"
        }
      ],
      "name": "transferFrom",
      "outputs": [
        {
          "internalType": "bool",
          "name": "",
          "type": "bool"
        }
      ],
      "stateMutability": "nonpayable",
      "type": "function"
    },
    {
      "inputs": [
        {
          "internalType": "address",
          "name": "newOwner",
          "type": "address"
        }
      ],
      "name": "transferOwnership",
      "outputs": [],
      "stateMutability": "nonpayable",
      "type": "function"
    },
    {
      "inputs": [
        {
          "internalType": "uint256",
          "name": "newValue",
          "type": "uint256"
        }
      ],
      "name": "updateAdminFee",
      "outputs": [],
      "stateMutability": "nonpayable",
      "type": "function"
    },
    {
      "inputs": [
        {
          "internalType": "bool",
          "name": "newValue",
          "type": "bool"
        }
      ],
      "name": "updateDepositsEnabled",
      "outputs": [],
      "stateMutability": "nonpayable",
      "type": "function"
    },
    {
      "inputs": [
        {
          "internalType": "address",
          "name": "newValue",
          "type": "address"
        }
      ],
      "name": "updateDevAddr",
      "outputs": [],
      "stateMutability": "nonpayable",
      "type": "function"
    },
    {
      "inputs": [
        {
          "internalType": "uint256",
          "name": "newValue",
          "type": "uint256"
        }
      ],
      "name": "updateDevFee",
      "outputs": [],
      "stateMutability": "nonpayable",
      "type": "function"
    },
    {
      "inputs": [
        {
          "internalType": "uint256",
          "name": "newValue",
          "type": "uint256"
        }
      ],
      "name": "updateMaxTokensToDepositWithoutReinvest",
      "outputs": [],
      "stateMutability": "nonpayable",
      "type": "function"
    },
    {
      "inputs": [
        {
          "internalType": "uint256",
          "name": "newValue",
          "type": "uint256"
        }
      ],
      "name": "updateMinTokensToReinvest",
      "outputs": [],
      "stateMutability": "nonpayable",
      "type": "function"
    },
    {
      "inputs": [
        {
          "internalType": "uint256",
          "name": "newValue",
          "type": "uint256"
        }
      ],
      "name": "updateReinvestReward",
      "outputs": [],
      "stateMutability": "nonpayable",
      "type": "function"
    },
    {
      "inputs": [
        {
          "internalType": "uint256",
          "name": "amount",
          "type": "uint256"
        }
      ],
      "name": "withdraw",
      "outputs": [],
      "stateMutability": "nonpayable",
      "type": "function"
    }
  ],
  "transactionHash": "0x66379a72b7332c2203e62aa84dadb1fa0f893adf40cf948f0be3f09877ee2a0a",
  "args": [
    "Yield Yak: Stargate S*USDt",
    {
      "depositToken": "0x29e38769f23701a2e4a8ef0492e19da4604be62c",
      "underlyingToken": "0x9702230A8Ea53601f5cD2dc00fDBc13d4dF4A8c7",
      "poolRewardToken": "0x2F6F07CDcf3588944Bf4C42aC74ff24bF56e7590"
    },
    "0x2F54994A8c8bb63cc8d2F7116A09e89A32ca5A9e",
    "0xbb4646a764358ee93c2a9c4a147d5aDEd527ab73",
    "0x8731d54E9D02c286767d56ac03e8037C07e01e98",
    "1",
    "0x45a01e4e04f14f7a4a6702c74187c5f6222033cd",
    "2",
    "0x302404cb8F34713A8B8DBF9b4989A41252332068",
    {
      "minTokensToReinvest": "10000000000000000",
      "adminFeeBips": 0,
      "devFeeBips": 900,
      "reinvestRewardBips": 100
    }
  ],
  "solcInputHash": "61988572245d5132dc5699f0e705daf8",
  "bytecode": "0x6101406040526009610100819052685969656c642059616b60b81b6101209081526200002f916000919062000b76565b506040805180820190915260038082526216549560ea1b60209092019182526200005c9160019162000b76565b503480156200006a57600080fd5b5060405162005392380380620053928339810160408190526200008d9162000d1b565b885160408a01518b919073b31f66aa3c1e785363f0875a1b74e27b85fd66c7908b6000878b8883620000be62000277565b600680546001600160a01b0319166001600160a01b0383169081179091556040519192509060009060008051602062005372833981519152908290a3508851620001109060009060208c019062000b76565b50600980546001600160a01b03808b166001600160a01b031992831617909255600a8054928a16928216929092179091556080839052600b8054909116732d580f9cf2fb2d09bc411532988f2afda4e7beff179055620001728787876200027b565b6200017d84620004f7565b80516200018a906200070c565b60208101516200019a9062000794565b6040810151620001aa9062000862565b6060810151620001ba906200091c565b620001c66001620009d6565b620001d18362000a7e565b7fc7606d21ac05cd309191543e409f0845c016120563783d70e4f41419dc0ef2346000806040516200020592919062000e73565b60405180910390a15050601680546001600160a01b039e8f166001600160a01b031991821617909155601780549c909e169b169a909a17909b555050506020909a01516001600160601b0319606091821b811660a05298901b90971660c052505060e0525062000ff995505050505050565b3390565b826001600160a01b0316826001600160a01b031614620004c857806001600160a01b0316630dfe16816040518163ffffffff1660e01b815260040160206040518083038186803b158015620002cf57600080fd5b505afa158015620002e4573d6000803e3d6000fd5b505050506040513d601f19601f820116820180604052508101906200030a919062000cfe565b6001600160a01b0316826001600160a01b03161415620003db57826001600160a01b0316816001600160a01b031663d21220a76040518163ffffffff1660e01b815260040160206040518083038186803b1580156200036857600080fd5b505afa1580156200037d573d6000803e3d6000fd5b505050506040513d601f19601f82011682018060405250810190620003a3919062000cfe565b6001600160a01b031614620003d55760405162461bcd60e51b8152600401620003cc9062000f54565b60405180910390fd5b620004c8565b806001600160a01b031663d21220a76040518163ffffffff1660e01b815260040160206040518083038186803b1580156200041557600080fd5b505afa1580156200042a573d6000803e3d6000fd5b505050506040513d601f19601f8201168201806040525081019062000450919062000cfe565b6001600160a01b0316826001600160a01b03161415620004ae57826001600160a01b0316816001600160a01b0316630dfe16816040518163ffffffff1660e01b815260040160206040518083038186803b1580156200036857600080fd5b60405162461bcd60e51b8152600401620003cc9062000efe565b601280546001600160a01b039384166001600160a01b0319918216179091556013805492909316911617905550565b6001600160a01b03811615620006ec57600a5460408051630dfe168160e01b815290516001600160a01b0392831692841691630dfe1681916004808301926020929190829003018186803b1580156200054f57600080fd5b505afa15801562000564573d6000803e3d6000fd5b505050506040513d601f19601f820116820180604052508101906200058a919062000cfe565b6001600160a01b031614156200063557806001600160a01b031663d21220a76040518163ffffffff1660e01b815260040160206040518083038186803b158015620005d457600080fd5b505afa158015620005e9573d6000803e3d6000fd5b505050506040513d601f19601f820116820180604052508101906200060f919062000cfe565b601580546001600160a01b0319166001600160a01b0392909216919091179055620006cb565b806001600160a01b0316630dfe16816040518163ffffffff1660e01b815260040160206040518083038186803b1580156200066f57600080fd5b505afa15801562000684573d6000803e3d6000fd5b505050506040513d601f19601f82011682018060405250810190620006aa919062000cfe565b601580546001600160a01b0319166001600160a01b03929092169190911790555b601480546001600160a01b0319166001600160a01b03831617905562000709565b601480546001600160a01b03199081169091556015805490911690555b50565b6200071662000277565b6001600160a01b03166200072962000b38565b6001600160a01b031614620007525760405162461bcd60e51b8152600401620003cc9062000fa0565b7f481f79ac3a523b6d6db3c5a720e190e986d1cc1b41adcdf50f9caef849901100600c54826040516200078792919062000e73565b60405180910390a1600c55565b6200079e62000277565b6001600160a01b0316620007b162000b38565b6001600160a01b031614620007da5760405162461bcd60e51b8152600401620003cc9062000fa0565b61271062000814600f54620008006011548562000b4760201b62001bde1790919060201c565b62000b4760201b62001bde1790919060201c565b11156200082057600080fd5b7f3cc372f330f95ac9540626dc8a25f5bf21ba607215a5d58304cb804d446f104a601054826040516200085592919062000e73565b60405180910390a1601055565b6200086c62000277565b6001600160a01b03166200087f62000b38565b6001600160a01b031614620008a85760405162461bcd60e51b8152600401620003cc9062000fa0565b612710620008ce600f54620008006010548562000b4760201b62001bde1790919060201c565b1115620008da57600080fd5b7f2a42303d002f0ba6cfe8259c91d4684443fb0b3de286ba74991175d651726131601154826040516200090f92919062000e73565b60405180910390a1601155565b6200092662000277565b6001600160a01b03166200093962000b38565b6001600160a01b031614620009625760405162461bcd60e51b8152600401620003cc9062000fa0565b61271062000988601154620008006010548562000b4760201b62001bde1790919060201c565b11156200099457600080fd5b7fe7f97d51d307dc44045597c9978bec0f842e6bb40d19b9444084cfa30d9ed4f2600f5482604051620009c992919062000e73565b60405180910390a1600f55565b620009e062000277565b6001600160a01b0316620009f362000b38565b6001600160a01b03161462000a1c5760405162461bcd60e51b8152600401620003cc9062000fa0565b600e5460ff161515811515141562000a3357600080fd5b600e805460ff19168215151790556040517f7b014ed3854e7f5cb0218d58b3c6ae7d53a68bb0af2f67bfb029ea42c38a7e859062000a7390839062000e68565b60405180910390a150565b62000a8862000277565b6001600160a01b031662000a9b62000b38565b6001600160a01b03161462000ac45760405162461bcd60e51b8152600401620003cc9062000fa0565b6001600160a01b03811662000aed5760405162461bcd60e51b8152600401620003cc9062000e81565b6006546040516001600160a01b038084169216906000805160206200537283398151915290600090a3600680546001600160a01b0319166001600160a01b0392909216919091179055565b6006546001600160a01b031690565b60008282018381101562000b6f5760405162461bcd60e51b8152600401620003cc9062000ec7565b9392505050565b828054600181600116156101000203166002900490600052602060002090601f016020900481019282601f1062000bb957805160ff191683800117855562000be9565b8280016001018555821562000be9579182015b8281111562000be957825182559160200191906001019062000bcc565b5062000bf792915062000bfb565b5090565b5b8082111562000bf7576000815560010162000bfc565b80516001600160a01b038116811462000c2a57600080fd5b919050565b60006080828403121562000c41578081fd5b604051608081016001600160401b038111828210171562000c5e57fe5b8060405250809150825181526020830151602082015260408301516040820152606083015160608201525092915050565b60006060828403121562000ca1578081fd5b604051606081016001600160401b038111828210171562000cbe57fe5b60405290508062000ccf8362000c12565b815262000cdf6020840162000c12565b602082015262000cf26040840162000c12565b60408201525092915050565b60006020828403121562000d10578081fd5b62000b6f8262000c12565b6000806000806000806000806000806101e08b8d03121562000d3b578586fd5b8a516001600160401b038082111562000d52578788fd5b818d0191508d601f83011262000d66578788fd5b81518181111562000d7357fe5b6020915062000d8b601f8201601f1916830162000fd5565b8181528f8383860101111562000d9f57898afd5b895b8281101562000dbe57848101840151828201850152830162000da1565b8281111562000dcf578a8484840101525b509c5062000de290508e8e830162000c8f565b9a50505062000df460808c0162000c12565b975062000e0460a08c0162000c12565b965062000e1460c08c0162000c12565b955060e08b0151945062000e2c6101008c0162000c12565b93506101208b0151925062000e456101408c0162000c12565b915062000e578c6101608d0162000c2f565b90509295989b9194979a5092959850565b901515815260200190565b918252602082015260400190565b60208082526026908201527f4f776e61626c653a206e6577206f776e657220697320746865207a65726f206160408201526564647265737360d01b606082015260800190565b6020808252601b908201527f536166654d6174683a206164646974696f6e206f766572666c6f770000000000604082015260600190565b60208082526041908201526000805160206200535283398151915260408201527f6f6573206e6f7420636f6e7461696e20706f6f6c2072657761726420746f6b656060820152603760f91b608082015260a00190565b6020808252603f908201526000805160206200535283398151915260408201527f6f6573206e6f7420636f6e7461696e2065636f73797374656d20746f6b656e00606082015260800190565b6020808252818101527f4f776e61626c653a2063616c6c6572206973206e6f7420746865206f776e6572604082015260600190565b6040518181016001600160401b038111828210171562000ff157fe5b604052919050565b60805160a05160601c60c05160601c60e0516142e66200106c60003980613140525080612fad525080612f8c528061307452806131b65250806107d352806109825280610d495280610eea52806115715280611e99528061215a5280612641528061294c5280612bed52506142e66000f3fe608060405234801561001057600080fd5b50600436106103a45760003560e01c80638da5cb5b116101e9578063c4b24a461161010f578063dd8ce4d6116100ad578063ee99205c1161007c578063ee99205c146106e9578063f2fde38b146106f1578063f7c618c114610704578063fdb5a03e1461070c576103a4565b8063dd8ce4d6146106a8578063e21ac825146106bb578063eab89a5a146106ce578063ed24911d146106e1576103a4565b8063d505accf116100e9578063d505accf14610672578063da09c72c14610685578063dbd9a4d41461068d578063dd62ed3e14610695576103a4565b8063c4b24a461461064f578063c89039c514610657578063cff1b6ef1461065f576103a4565b8063a8ae2b7c11610187578063b52a321f11610156578063b52a321f14610624578063b6b55f251461062c578063b9e57b801461063f578063bd079f5514610647576103a4565b8063a8ae2b7c146105e3578063a9059cbb146105f6578063a9e56f3c14610609578063ac0d31ff14610611576103a4565b806395d89b41116101c357806395d89b41146105b857806399729ec1146105c05780639e4e7318146105d3578063a1a4ddeb146105db576103a4565b80638da5cb5b14610588578063909ac8f41461059d5780639291d563146105a5576103a4565b80634e77ace5116102ce5780637ae267731161026c5780638432e8941161023b5780638432e894146105475780638980f11f1461055a5780638aff733d1461056d5780638b73e60614610575576103a4565b80637ae26773146105065780637d882097146105195780637ecebe00146105215780638183723014610534576103a4565b80635eaec0e4116102a85780635eaec0e4146104db57806370a08231146104e3578063715018a6146104f6578063789139bc146104fe576103a4565b80634e77ace5146104ad5780634ebb7916146104c05780635ea682ea146104d3576103a4565b80632e1a7d4d116103465780633bdc6e72116103155780633bdc6e721461046c578063483c2ef0146104745780634a970be7146104875780634bebd1e71461049a576103a4565b80632e1a7d4d146104275780632f4f21e21461043c57806330adf81f1461044f578063313ce56714610457576103a4565b80630f23475d116103825780630f23475d146103fc57806318160ddd1461040457806320606b701461040c57806323b872dd14610414576103a4565b806306fdde03146103a957806307677111146103c7578063095ea7b3146103dc575b600080fd5b6103b1610714565b6040516103be9190613adc565b60405180910390f35b6103cf6107a2565b6040516103be9190613a55565b6103ef6103ea36600461373f565b6107a8565b6040516103be9190613a4a565b6103cf6107bf565b6103cf61082b565b6103cf610831565b6103ef610422366004613692565b610855565b61043a6104353660046137f0565b61093c565b005b61043a61044a36600461373f565b610a29565b6103cf610a37565b61045f610a5b565b6040516103be91906141d4565b6103cf610a60565b6103ef610482366004613622565b610a66565b61043a610495366004613867565b610a7b565b61043a6104a8366004613622565b610b13565b61043a6104bb36600461376a565b610bf7565b61043a6104ce3660046137f0565b610c95565b6103cf610d41565b6103cf610d47565b6103cf6104f1366004613622565b610d6b565b61043a610d8a565b6103cf610e13565b61043a61051436600461365a565b610e19565b6103cf610ee2565b6103cf61052f366004613622565b610f15565b61043a6105423660046137f0565b610f27565b61043a610555366004613622565b610fa6565b61043a61056836600461373f565b610fdc565b6103cf6110ee565b61043a610583366004613622565b6110f4565b6105906111fa565b6040516103be919061399e565b610590611209565b61043a6105b3366004613622565b611218565b6103b16112ab565b61043a6105ce3660046137f0565b611305565b6103cf6113b3565b6105906113d7565b61043a6105f13660046137f0565b6113e6565b6103ef61060436600461373f565b61148e565b61059061149b565b61043a61061f366004613820565b6114aa565b6103ef6116b1565b61043a61063a3660046137f0565b6116ba565b6103cf6116c4565b6103cf611705565b6103cf61170b565b61059061171f565b61043a61066d3660046137f0565b61172e565b61043a6106803660046136d2565b6117d6565b61059061188b565b61043a61189a565b6103cf6106a336600461365a565b6118f1565b6103cf6106b63660046137f0565b61191c565b61043a6106c93660046137f0565b611956565b6103cf6106dc3660046137f0565b6119d5565b6103cf611a06565b610590611a9d565b61043a6106ff366004613622565b611aac565b610590611b6d565b61043a611b7c565b6000805460408051602060026001851615610100026000190190941693909304601f8101849004840282018401909252818152929183018282801561079a5780601f1061076f5761010080835404028352916020019161079a565b820191906000526020600020905b81548152906001019060200180831161077d57829003601f168201915b505050505081565b60105481565b60006107b5338484611c0a565b5060015b92915050565b6000806107ca610ee2565b905060006107f77f0000000000000000000000000000000000000000000000000000000000000000611cbe565b90506000610816610806611cc4565b6108108585611cca565b90611d04565b90506108228382611d46565b93505050505b90565b60025481565b7f8b73c3c69bb8fe3d512ecc4cf759cc79239f7b179b0ffacaa9a75d522b39400f81565b6001600160a01b03831660008181526003602090815260408083203380855292528220549192909190821480159061088f57506000198114155b156109255760006108bb856040518060600160405280602f815260200161422d602f9139849190611d84565b6001600160a01b03808916600081815260036020908152604080832094891680845294909152908190208490555192935090917f8c5be1e5ebec7d5bd14f71427d1e84f3dd0314c0f7b2291e5b200ac8c7c3b9259061091b908590613a55565b60405180910390a3505b610930868686611db0565b50600195945050505050565b6000610947826119d5565b9050600081116109725760405162461bcd60e51b815260040161096990613d9c565b60405180910390fd5b61097b81611e94565b60006109a67f0000000000000000000000000000000000000000000000000000000000000000611cbe565b905060006109b5610806611cc4565b6009549091506109d8906001600160a01b0316336109d38685611d46565b611ebe565b6109e23385611f5f565b336001600160a01b03167f884edad9ce6fa2440d8a54cc123490eb96d2768479d49ff9c7366125a942436484604051610a1b9190613a55565b60405180910390a250505050565b610a338282612039565b5050565b7f6e71edae12b1b97f4d1f60370fef10105fa2faae0126114a169c64845d6126c981565b601281565b60075481565b60086020526000908152604090205460ff1681565b6009546040517fd505accf0000000000000000000000000000000000000000000000000000000081526001600160a01b039091169063d505accf90610ad090339030908a908a908a908a908a906004016139d6565b600060405180830381600087803b158015610aea57600080fd5b505af1158015610afe573d6000803e3d6000fd5b50505050610b0c3386612039565b5050505050565b610b1b6121e7565b6001600160a01b0316610b2c6111fa565b6001600160a01b031614610b525760405162461bcd60e51b815260040161096990613eea565b6001600160a01b03811660009081526008602052604090205460ff1615610b8b5760405162461bcd60e51b815260040161096990613c74565b6001600160a01b0381166000908152600860205260409020805460ff19166001908117909155600754610bbd91611bde565b6007556040516001600160a01b038216907fc0a1035c16faf8d1304056d92c00edf028f87e62b8235a938f00af9e3c0312c590600090a250565b610bff6121e7565b6001600160a01b0316610c106111fa565b6001600160a01b031614610c365760405162461bcd60e51b815260040161096990613eea565b600e5460ff1615158115151415610c4c57600080fd5b600e805460ff19168215151790556040517f7b014ed3854e7f5cb0218d58b3c6ae7d53a68bb0af2f67bfb029ea42c38a7e8590610c8a908390613a4a565b60405180910390a150565b610c9d6121e7565b6001600160a01b0316610cae6111fa565b6001600160a01b031614610cd45760405162461bcd60e51b815260040161096990613eea565b60008111610ce157600080fd5b604051339082156108fc029083906000818181858888f19350505050158015610d0e573d6000803e3d6000fd5b507f8c1256b8896378cd5044f80c202f9772b9d77dc85c8a6eb51967210b09bfaa28600082604051610c8a929190613a17565b60115481565b7f000000000000000000000000000000000000000000000000000000000000000081565b6001600160a01b0381166000908152600460205260409020545b919050565b610d926121e7565b6001600160a01b0316610da36111fa565b6001600160a01b031614610dc95760405162461bcd60e51b815260040161096990613eea565b6006546040516000916001600160a01b0316907f8be0079c531659141344cd1fd0a4f28419497f9722a3daafe3b4186f6b6457e0908390a3600680546001600160a01b0319169055565b600d5481565b610e216121e7565b6001600160a01b0316610e326111fa565b6001600160a01b031614610e585760405162461bcd60e51b815260040161096990613eea565b60405163095ea7b360e01b81526001600160a01b0383169063095ea7b390610e87908490600090600401613a17565b602060405180830381600087803b158015610ea157600080fd5b505af1158015610eb5573d6000803e3d6000fd5b505050506040513d601f19601f82011682018060405250810190610ed99190613786565b610a3357600080fd5b600080610f0f7f0000000000000000000000000000000000000000000000000000000000000000306121eb565b91505090565b60056020526000908152604090205481565b610f2f6121e7565b6001600160a01b0316610f406111fa565b6001600160a01b031614610f665760405162461bcd60e51b815260040161096990613eea565b7f481f79ac3a523b6d6db3c5a720e190e986d1cc1b41adcdf50f9caef849901100600c5482604051610f9992919061416f565b60405180910390a1600c55565b600b546001600160a01b03163314610fd05760405162461bcd60e51b815260040161096990614047565b610fd98161228e565b50565b610fe46121e7565b6001600160a01b0316610ff56111fa565b6001600160a01b03161461101b5760405162461bcd60e51b815260040161096990613eea565b6000811161102857600080fd5b60405163a9059cbb60e01b81526001600160a01b0383169063a9059cbb906110569033908590600401613a17565b602060405180830381600087803b15801561107057600080fd5b505af1158015611084573d6000803e3d6000fd5b505050506040513d601f19601f820116820180604052508101906110a89190613786565b6110b157600080fd5b7f8c1256b8896378cd5044f80c202f9772b9d77dc85c8a6eb51967210b09bfaa2882826040516110e2929190613a17565b60405180910390a15050565b600f5481565b6110fc6121e7565b6001600160a01b031661110d6111fa565b6001600160a01b0316146111335760405162461bcd60e51b815260040161096990613eea565b6000600754116111555760405162461bcd60e51b815260040161096990613bba565b6001600160a01b03811660009081526008602052604090205460ff1615156001146111925760405162461bcd60e51b815260040161096990613dd3565b6001600160a01b0381166000908152600860205260409020805460ff191690556007546111c0906001611d46565b6007556040516001600160a01b038216907f0e86f6608b536e5339a25b65ff531f5ea91e1313d056ecd4752b35cbd16137d490600090a250565b6006546001600160a01b031690565b6014546001600160a01b031681565b600b546001600160a01b031633146112425760405162461bcd60e51b815260040161096990614047565b600b546040517fa8e91499ed37682f43cffb045fcc7d379a91e8c9a14e6321877ee34dee564c0091611281916001600160a01b03909116908490613a30565b60405180910390a1600b80546001600160a01b0319166001600160a01b0392909216919091179055565b60018054604080516020600284861615610100026000190190941693909304601f8101849004840282018401909252818152929183018282801561079a5780601f1061076f5761010080835404028352916020019161079a565b61130d6121e7565b6001600160a01b031661131e6111fa565b6001600160a01b0316146113445760405162461bcd60e51b815260040161096990613eea565b612710611368600f5461136260105485611bde90919063ffffffff16565b90611bde565b111561137357600080fd5b7f2a42303d002f0ba6cfe8259c91d4684443fb0b3de286ba74991175d651726131601154826040516113a692919061416f565b60405180910390a1601155565b7fc89efdaa54c0f20c7adf612882df0950f5a951637e0307cdcb4c672f298b8bc681565b6015546001600160a01b031681565b6113ee6121e7565b6001600160a01b03166113ff6111fa565b6001600160a01b0316146114255760405162461bcd60e51b815260040161096990613eea565b61271061144360115461136260105485611bde90919063ffffffff16565b111561144e57600080fd5b7fe7f97d51d307dc44045597c9978bec0f842e6bb40d19b9444084cfa30d9ed4f2600f548260405161148192919061416f565b60405180910390a1600f55565b60006107b5338484611db0565b6017546001600160a01b031681565b6114b26121e7565b6001600160a01b03166114c36111fa565b6001600160a01b0316146114e95760405162461bcd60e51b815260040161096990613eea565b6009546040516370a0823160e01b81526000916001600160a01b0316906370a082319061151a90309060040161399e565b60206040518083038186803b15801561153257600080fd5b505afa158015611546573d6000803e3d6000fd5b505050506040513d601f19601f8201168201806040525081019061156a9190613808565b90506115957f00000000000000000000000000000000000000000000000000000000000000006124ab565b6009546040516370a0823160e01b81526000916001600160a01b0316906370a08231906115c690309060040161399e565b60206040518083038186803b1580156115de57600080fd5b505afa1580156115f2573d6000803e3d6000fd5b505050506040513d601f19601f820116820180604052508101906116169190613808565b9050836116238284611d46565b10156116415760405162461bcd60e51b815260040161096990613cab565b7fc7606d21ac05cd309191543e409f0845c016120563783d70e4f41419dc0ef23461166a610ee2565b60025460405161167b92919061416f565b60405180910390a1600e5460ff161515600114801561169c57506001831515145b156116ab576116ab6000610bf7565b50505050565b600e5460ff1681565b610fd93382612039565b6000806116cf61170b565b9050600c5481106116fd576116f5612710610810600f5484611cca90919063ffffffff16565b915050610828565b600091505090565b600c5481565b6000806117166125ac565b94505050505090565b6009546001600160a01b031681565b6117366121e7565b6001600160a01b03166117476111fa565b6001600160a01b03161461176d5760405162461bcd60e51b815260040161096990613eea565b61271061178b600f5461136260115485611bde90919063ffffffff16565b111561179657600080fd5b7f3cc372f330f95ac9540626dc8a25f5bf21ba607215a5d58304cb804d446f104a601054826040516117c992919061416f565b60405180910390a1601055565b428410156117f65760405162461bcd60e51b815260040161096990613d65565b6001600160a01b03871660009081526005602090815260408083208054600181019091559051611851927f6e71edae12b1b97f4d1f60370fef10105fa2faae0126114a169c64845d6126c9928c928c928c92918c9101613a5e565b604051602081830303815290604052805190602001209050611876888286868661286d565b611881888888611c0a565b5050505050505050565b600b546001600160a01b031681565b6118a26121e7565b6001600160a01b03166118b36111fa565b6001600160a01b0316146118d95760405162461bcd60e51b815260040161096990613eea565b60405162461bcd60e51b815260040161096990614010565b6001600160a01b03918216600090815260036020908152604080832093909416825291909152205490565b6000611932611929610ee2565b60025490611cca565b61193d575080610d85565b6107b9611948610ee2565b600254610810908590611cca565b61195e6121e7565b6001600160a01b031661196f6111fa565b6001600160a01b0316146119955760405162461bcd60e51b815260040161096990613eea565b7fa5dae50539d56dfe1fb5273d883b0c39bc76750a25d036fc5fbd09ad8fd5f57f600d54826040516119c892919061416f565b60405180910390a1600d55565b60006119e2611929610ee2565b6119ee57506000610d85565b6107b96002546108106119ff610ee2565b8590611cca565b60007f8b73c3c69bb8fe3d512ecc4cf759cc79239f7b179b0ffacaa9a75d522b39400f60001b6000604051611a3b91906138f8565b6040519081900390207fc89efdaa54c0f20c7adf612882df0950f5a951637e0307cdcb4c672f298b8bc6611a6d612943565b30604051602001611a82959493929190613a92565b60405160208183030381529060405280519060200120905090565b6016546001600160a01b031681565b611ab46121e7565b6001600160a01b0316611ac56111fa565b6001600160a01b031614611aeb5760405162461bcd60e51b815260040161096990613eea565b6001600160a01b038116611b115760405162461bcd60e51b815260040161096990613aef565b6006546040516001600160a01b038084169216907f8be0079c531659141344cd1fd0a4f28419497f9722a3daafe3b4186f6b6457e090600090a3600680546001600160a01b0319166001600160a01b0392909216919091179055565b600a546001600160a01b031681565b323314611b9b5760405162461bcd60e51b815260040161096990613b4c565b600080600080611ba96125ac565b9350935093509350600c54811015611bd35760405162461bcd60e51b81526004016109699061407e565b6116ab828585612947565b600082820183811015611c035760405162461bcd60e51b815260040161096990613b83565b9392505050565b6001600160a01b038316611c305760405162461bcd60e51b815260040161096990613f1f565b6001600160a01b038216611c565760405162461bcd60e51b8152600401610969906140ec565b6001600160a01b0380841660008181526003602090815260408083209487168084529490915290819020849055517f8c5be1e5ebec7d5bd14f71427d1e84f3dd0314c0f7b2291e5b200ac8c7c3b92590611cb1908590613a55565b60405180910390a3505050565b50600090565b61271090565b600082611cd9575060006107b9565b82820282848281611ce657fe5b0414611c035760405162461bcd60e51b815260040161096990613e8d565b6000611c0383836040518060400160405280601a81526020017f536166654d6174683a206469766973696f6e206279207a65726f000000000000815250612a8e565b6000611c0383836040518060400160405280601f81526020017f536166654d6174683a207375627472616374696f6e20756e646572666c6f77008152505b60008184841115611da85760405162461bcd60e51b81526004016109699190613adc565b505050900390565b6001600160a01b038216611dd65760405162461bcd60e51b815260040161096990613f56565b611e13816040518060600160405280602e8152602001614283602e91396001600160a01b0386166000908152600460205260409020549190611d84565b6001600160a01b038085166000908152600460205260408082209390935590841681522054611e429082611bde565b6001600160a01b0380841660008181526004602052604090819020939093559151908516907fddf252ad1be2c89b69c2b068fc378daa952ba7f163c4a11628f55a4df523b3ef90611cb1908590613a55565b610fd97f000000000000000000000000000000000000000000000000000000000000000082612ac5565b60405163a9059cbb60e01b81526001600160a01b0384169063a9059cbb90611eec9085908590600401613a17565b602060405180830381600087803b158015611f0657600080fd5b505af1158015611f1a573d6000803e3d6000fd5b505050506040513d601f19601f82011682018060405250810190611f3e9190613786565b611f5a5760405162461bcd60e51b815260040161096990613d08565b505050565b611f9c8160405180606001604052806027815260200161425c602791396001600160a01b0385166000908152600460205260409020549190611d84565b60046000846001600160a01b03166001600160a01b0316815260200190815260200160002081905550611fec81604051806060016040528060278152602001614206602791396002549190611d84565b6002556040516000906001600160a01b038416907fddf252ad1be2c89b69c2b068fc378daa952ba7f163c4a11628f55a4df523b3ef9061202d908590613a55565b60405180910390a35050565b600e5460ff1615156001146120605760405162461bcd60e51b8152600401610969906140b5565b600d5415612098576000806000806120766125ac565b9350935093509350600d5481111561209357612093828585612947565b505050505b6009546040517f23b872dd0000000000000000000000000000000000000000000000000000000081526001600160a01b03909116906323b872dd906120e5903390309086906004016139b2565b602060405180830381600087803b1580156120ff57600080fd5b505af1158015612113573d6000803e3d6000fd5b505050506040513d601f19601f820116820180604052508101906121379190613786565b6121535760405162461bcd60e51b815260040161096990613fb3565b600061217e7f0000000000000000000000000000000000000000000000000000000000000000611cbe565b9050600061218d610806611cc4565b90506121a5846121a06106b68685611d46565b612b46565b6121ae83612bc8565b836001600160a01b03167fe1fffcc4923d04b559f4d29a8bfc6cda04eb5b0d3c460751c2402c5c5cc9109c84604051610a1b9190613a55565b3390565b6016546040517f93f1a40b0000000000000000000000000000000000000000000000000000000081526000916001600160a01b0316906393f1a40b906122379086908690600401614158565b604080518083038186803b15801561224e57600080fd5b505afa158015612262573d6000803e3d6000fd5b505050506040513d601f19601f820116820180604052508101906122869190613844565b509392505050565b6001600160a01b0381161561248c57600a54604080517f0dfe168100000000000000000000000000000000000000000000000000000000815290516001600160a01b0392831692841691630dfe1681916004808301926020929190829003018186803b1580156122fd57600080fd5b505afa158015612311573d6000803e3d6000fd5b505050506040513d601f19601f82011682018060405250810190612335919061363e565b6001600160a01b031614156123da57806001600160a01b031663d21220a76040518163ffffffff1660e01b815260040160206040518083038186803b15801561237d57600080fd5b505afa158015612391573d6000803e3d6000fd5b505050506040513d601f19601f820116820180604052508101906123b5919061363e565b601580546001600160a01b0319166001600160a01b039290921691909117905561246c565b806001600160a01b0316630dfe16816040518163ffffffff1660e01b815260040160206040518083038186803b15801561241357600080fd5b505afa158015612427573d6000803e3d6000fd5b505050506040513d601f19601f8201168201806040525081019061244b919061363e565b601580546001600160a01b0319166001600160a01b03929092169190911790555b601480546001600160a01b0319166001600160a01b038316179055610fd9565b601480546001600160a01b031990811690915560158054909116905550565b60095460165460405163095ea7b360e01b81526001600160a01b039283169263095ea7b3926124e292911690600090600401613a17565b602060405180830381600087803b1580156124fc57600080fd5b505af1158015612510573d6000803e3d6000fd5b505050506040513d601f19601f820116820180604052508101906125349190613786565b506016546040517f5312ea8e0000000000000000000000000000000000000000000000000000000081526001600160a01b0390911690635312ea8e9061257e908490600401613a55565b600060405180830381600087803b15801561259857600080fd5b505af1158015610b0c573d6000803e3d6000fd5b6012546040516370a0823160e01b815260009182918291829182916001600160a01b0316906370a08231906125e590309060040161399e565b60206040518083038186803b1580156125fd57600080fd5b505afa158015612611573d6000803e3d6000fd5b505050506040513d601f19601f820116820180604052508101906126359190613808565b905060008060006126667f000000000000000000000000000000000000000000000000000000000000000030612c12565b9194509250905060006126798585611bde565b600a546012549192506000916001600160a01b039081169116141561269e57846126c3565b601254600a546013546126c39285926001600160a01b03918216929082169116612cc5565b905060006001600160a01b038416156127c2576001600160a01b03841673b31f66aa3c1e785363f0875a1b74e27b85fd66c714156127025750836127c2565b6014546001600160a01b0316156127c2576015546040516370a0823160e01b815261279c916001600160a01b0316906370a082319061274590309060040161399e565b60206040518083038186803b15801561275d57600080fd5b505afa158015612771573d6000803e3d6000fd5b505050506040513d601f19601f820116820180604052508101906127959190613808565b8690611bde565b600a546014549196506127bf91879187916001600160a01b039182169116612cc5565b90505b600a546040516370a0823160e01b81526000916128499184916001600160a01b0316906370a08231906127f990309060040161399e565b60206040518083038186803b15801561281157600080fd5b505afa158015612825573d6000803e3d6000fd5b505050506040513d601f19601f820116820180604052508101906113629190613808565b905060006128578285611bde565b949d969c50909a50929850939650505050505050565b6000612877611a06565b85604051602001612889929190613968565b6040516020818303038152906040528051906020012090506000600182868686604051600081526020016040526040516128c69493929190613abe565b6020604051602081039080840390855afa1580156128e8573d6000803e3d6000fd5b5050604051601f1901519150506001600160a01b0381161580159061291e5750866001600160a01b0316816001600160a01b0316145b61293a5760405162461bcd60e51b815260040161096990613c17565b50505050505050565b4690565b6129707f0000000000000000000000000000000000000000000000000000000000000000612da0565b600061298561297e84612dd3565b8590611bde565b905061299b6129948584612e1b565b8290611bde565b5060006129b961271061081060115485611cca90919063ffffffff16565b905080156129de57600a54600b546129de916001600160a01b03908116911683611ebe565b60006129fb612710610810600f5486611cca90919063ffffffff16565b90508015612a1a57600a54612a1a906001600160a01b03163383611ebe565b6000612a38612a3383612a2d8787611d46565b90611d46565b612f6e565b9050612a4381612bc8565b7fc7606d21ac05cd309191543e409f0845c016120563783d70e4f41419dc0ef234612a6c610ee2565b600254604051612a7d92919061416f565b60405180910390a150505050505050565b60008183612aaf5760405162461bcd60e51b81526004016109699190613adc565b506000838581612abb57fe5b0495945050505050565b6016546040517f441a3e700000000000000000000000000000000000000000000000000000000081526001600160a01b039091169063441a3e7090612b10908590859060040161416f565b600060405180830381600087803b158015612b2a57600080fd5b505af1158015612b3e573d6000803e3d6000fd5b505050505050565b600254612b539082611bde565b6002556001600160a01b038216600090815260046020526040902054612b799082611bde565b6001600160a01b0383166000818152600460205260408082209390935591519091907fddf252ad1be2c89b69c2b068fc378daa952ba7f163c4a11628f55a4df523b3ef9061202d908590613a55565b60008111612be85760405162461bcd60e51b815260040161096990613e30565b610fd97f000000000000000000000000000000000000000000000000000000000000000082613282565b6016546040517f2f607fdd0000000000000000000000000000000000000000000000000000000081526000918291829182916001600160a01b0390911690632f607fdd90612c669089908990600401614158565b60206040518083038186803b158015612c7e57600080fd5b505afa158015612c92573d6000803e3d6000fd5b505050506040513d601f19601f82011682018060405250810190612cb69190613808565b96600096508695509350505050565b600080612cd2858561333d565b509050600080846001600160a01b0316630902f1ac6040518163ffffffff1660e01b815260040160606040518083038186803b158015612d1157600080fd5b505afa158015612d25573d6000803e3d6000fd5b505050506040513d601f19601f82011682018060405250810190612d4991906137a2565b5091509150866001600160a01b0316836001600160a01b031614612d6957905b612d9488836dffffffffffffffffffffffffffff16836dffffffffffffffffffffffffffff1661336e565b98975050505050505050565b601654604051631c57762b60e31b81526001600160a01b039091169063e2bbb1589061257e90849060009060040161416f565b601254600a546000916001600160a01b0391821691161415612df6575080610d85565b601254600a546013546107b99285926001600160a01b039182169290821691166133b6565b60008115612f65576014546001600160a01b031615612e6057601554600a54601454612e599285926001600160a01b039182169290821691166133b6565b90506107b9565b478015612ed05773b31f66aa3c1e785363f0875a1b74e27b85fd66c76001600160a01b031663d0e30db0826040518263ffffffff1660e01b81526004016000604051808303818588803b158015612eb657600080fd5b505af1158015612eca573d6000803e3d6000fd5b50505050505b6040516370a0823160e01b8152612f5d90859073b31f66aa3c1e785363f0875a1b74e27b85fd66c7906370a0823190612f0d90309060040161399e565b60206040518083038186803b158015612f2557600080fd5b505afa158015612f39573d6000803e3d6000fd5b505050506040513d601f19601f82011682018060405250810190612a2d9190613808565b9150506107b9565b50600092915050565b600080612fd18373b31f66aa3c1e785363f0875a1b74e27b85fd66c77f00000000000000000000000000000000000000000000000000000000000000007f00000000000000000000000000000000000000000000000000000000000000006133b6565b6009546040516370a0823160e01b81529192506000916001600160a01b03909116906370a082319061300790309060040161399e565b60206040518083038186803b15801561301f57600080fd5b505afa158015613033573d6000803e3d6000fd5b505050506040513d601f19601f820116820180604052508101906130579190613808565b60175460405163095ea7b360e01b81529192506001600160a01b037f000000000000000000000000000000000000000000000000000000000000000081169263095ea7b3926130ac9216908690600401613a17565b602060405180830381600087803b1580156130c657600080fd5b505af11580156130da573d6000803e3d6000fd5b505050506040513d601f19601f820116820180604052508101906130fe9190613786565b506017546040517f87b21efc0000000000000000000000000000000000000000000000000000000081526001600160a01b03909116906387b21efc9061316c907f0000000000000000000000000000000000000000000000000000000000000000908690309060040161417d565b600060405180830381600087803b15801561318657600080fd5b505af115801561319a573d6000803e3d6000fd5b505060175460405163095ea7b360e01b81526001600160a01b037f00000000000000000000000000000000000000000000000000000000000000008116945063095ea7b393506131f1921690600090600401613a17565b602060405180830381600087803b15801561320b57600080fd5b505af115801561321f573d6000803e3d6000fd5b505050506040513d601f19601f820116820180604052508101906132439190613786565b506009546040516370a0823160e01b815261327a9183916001600160a01b03909116906370a0823190612f0d90309060040161399e565b949350505050565b60095460165460405163095ea7b360e01b81526001600160a01b039283169263095ea7b3926132b8929116908590600401613a17565b602060405180830381600087803b1580156132d257600080fd5b505af11580156132e6573d6000803e3d6000fd5b505050506040513d601f19601f8201168201806040525081019061330a9190613786565b50601654604051631c57762b60e31b81526001600160a01b039091169063e2bbb15890612b10908590859060040161416f565b600080826001600160a01b0316846001600160a01b031610613360578284613363565b83835b915091509250929050565b60008061337d856103e5611cca565b9050600061338b8285611cca565b9050600061339f83611362886103e8611cca565b90506133ab8282611d04565b979650505050505050565b6000806133c3858561333d565b509050600080846001600160a01b0316630902f1ac6040518163ffffffff1660e01b815260040160606040518083038186803b15801561340257600080fd5b505afa158015613416573d6000803e3d6000fd5b505050506040513d601f19601f8201168201806040525081019061343a91906137a2565b5091509150866001600160a01b0316836001600160a01b03161461345a57905b6000806134888a856dffffffffffffffffffffffffffff16856dffffffffffffffffffffffffffff1661336e565b9050886001600160a01b0316856001600160a01b0316146134a557905b6134b089888c613557565b604080516000815260208101918290527f022c0d9f000000000000000000000000000000000000000000000000000000009091526001600160a01b0388169063022c0d9f90613508908590859030906024810161419c565b600060405180830381600087803b15801561352257600080fd5b505af1158015613536573d6000803e3d6000fd5b505050508181116135475781613549565b805b9a9950505050505050505050565b60405163a9059cbb60e01b81526001600160a01b0384169063a9059cbb906135859085908590600401613a17565b602060405180830381600087803b15801561359f57600080fd5b505af11580156135b3573d6000803e3d6000fd5b505050506040513d601f19601f820116820180604052508101906135d79190613786565b611f5a5760405162461bcd60e51b815260040161096990614123565b80516dffffffffffffffffffffffffffff81168114610d8557600080fd5b803560ff81168114610d8557600080fd5b600060208284031215613633578081fd5b8135611c03816141e2565b60006020828403121561364f578081fd5b8151611c03816141e2565b6000806040838503121561366c578081fd5b8235613677816141e2565b91506020830135613687816141e2565b809150509250929050565b6000806000606084860312156136a6578081fd5b83356136b1816141e2565b925060208401356136c1816141e2565b929592945050506040919091013590565b600080600080600080600060e0888a0312156136ec578283fd5b87356136f7816141e2565b96506020880135613707816141e2565b9550604088013594506060880135935061372360808901613611565b925060a0880135915060c0880135905092959891949750929550565b60008060408385031215613751578182fd5b823561375c816141e2565b946020939093013593505050565b60006020828403121561377b578081fd5b8135611c03816141f7565b600060208284031215613797578081fd5b8151611c03816141f7565b6000806000606084860312156137b6578283fd5b6137bf846135f3565b92506137cd602085016135f3565b9150604084015163ffffffff811681146137e5578182fd5b809150509250925092565b600060208284031215613801578081fd5b5035919050565b600060208284031215613819578081fd5b5051919050565b60008060408385031215613832578182fd5b823591506020830135613687816141f7565b60008060408385031215613856578182fd5b505080516020909101519092909150565b600080600080600060a0868803121561387e578283fd5b853594506020860135935061389560408701613611565b94979396509394606081013594506080013592915050565b60008151808452815b818110156138d2576020818501810151868301820152016138b6565b818111156138e35782602083870101525b50601f01601f19169290920160200192915050565b6000808354600180821660008114613917576001811461392e5761395d565b60ff198316865260028304607f168601935061395d565b600283048786526020808720875b838110156139555781548a82015290850190820161393c565b505050860193505b509195945050505050565b7f190100000000000000000000000000000000000000000000000000000000000081526002810192909252602282015260420190565b6001600160a01b0391909116815260200190565b6001600160a01b039384168152919092166020820152604081019190915260600190565b6001600160a01b0397881681529590961660208601526040850193909352606084019190915260ff16608083015260a082015260c081019190915260e00190565b6001600160a01b03929092168252602082015260400190565b6001600160a01b0392831681529116602082015260400190565b901515815260200190565b90815260200190565b9586526001600160a01b0394851660208701529290931660408501526060840152608083019190915260a082015260c00190565b9485526020850193909352604084019190915260608301526001600160a01b0316608082015260a00190565b93845260ff9290921660208401526040830152606082015260800190565b600060208252611c0360208301846138ad565b60208082526026908201527f4f776e61626c653a206e6577206f776e657220697320746865207a65726f206160408201527f6464726573730000000000000000000000000000000000000000000000000000606082015260800190565b60208082526014908201527f59616b53747261746567793a3a6f6e6c79454f41000000000000000000000000604082015260600190565b6020808252601b908201527f536166654d6174683a206164646974696f6e206f766572666c6f770000000000604082015260600190565b60208082526034908201527f5065726d697373696f6e65643a3a72656d6f76654465706f7369746f722c206e60408201527f6f20616c6c6f776564206465706f7369746f7273000000000000000000000000606082015260800190565b60208082526024908201527f417263683a3a76616c69646174655369673a20696e76616c6964207369676e6160408201527f7475726500000000000000000000000000000000000000000000000000000000606082015260800190565b6020808252601c908201527f5065726d697373696f6e65643a3a616c6c6f774465706f7369746f7200000000604082015260600190565b60208082526029908201527f4d617374657243686566537472617465677956313a3a7265736375654465706c60408201527f6f79656446756e64730000000000000000000000000000000000000000000000606082015260800190565b6020808252602a908201527f4d617374657243686566537472617465677956313a3a5452414e534645525f4660408201527f524f4d5f4641494c454400000000000000000000000000000000000000000000606082015260800190565b6020808252600f908201527f7065726d69743a3a657870697265640000000000000000000000000000000000604082015260600190565b6020808252601e908201527f4d617374657243686566537472617465677956313a3a77697468647261770000604082015260600190565b6020808252602a908201527f5065726d697373696f6e65643a3a72656d6f76654465706f7369746f722c206e60408201527f6f7420616c6c6f77656400000000000000000000000000000000000000000000606082015260800190565b60208082526029908201527f4d617374657243686566537472617465677956313a3a5f7374616b654465706f60408201527f736974546f6b656e730000000000000000000000000000000000000000000000606082015260800190565b60208082526021908201527f536166654d6174683a206d756c7469706c69636174696f6e206f766572666c6f60408201527f7700000000000000000000000000000000000000000000000000000000000000606082015260800190565b6020808252818101527f4f776e61626c653a2063616c6c6572206973206e6f7420746865206f776e6572604082015260600190565b6020808252601c908201527f5f617070726f76653a3a6f776e6572207a65726f206164647265737300000000604082015260600190565b60208082526034908201527f5f7472616e73666572546f6b656e733a2063616e6e6f74207472616e7366657260408201527f20746f20746865207a65726f2061646472657373000000000000000000000000606082015260800190565b60208082526025908201527f4d617374657243686566537472617465677956313a3a7472616e73666572206660408201527f61696c6564000000000000000000000000000000000000000000000000000000606082015260800190565b60208082526019908201527f736574416c6c6f77616e6365733a3a6465707265636174656400000000000000604082015260600190565b60208082526014908201527f59616b53747261746567793a3a6f6e6c79446576000000000000000000000000604082015260600190565b6020808252601e908201527f4d617374657243686566537472617465677956313a3a7265696e766573740000604082015260600190565b6020808252601e908201527f4d617374657243686566537472617465677956313a3a5f6465706f7369740000604082015260600190565b6020808252601e908201527f5f617070726f76653a3a7370656e646572207a65726f20616464726573730000604082015260600190565b6020808252818101527f4465784c6962726172793a3a5452414e534645525f46524f4d5f4641494c4544604082015260600190565b9182526001600160a01b0316602082015260400190565b918252602082015260400190565b92835260208301919091526001600160a01b0316604082015260600190565b60008582528460208301526001600160a01b0384166040830152608060608301526141ca60808301846138ad565b9695505050505050565b60ff91909116815260200190565b6001600160a01b0381168114610fd957600080fd5b8015158114610fd957600080fdfe5f6275726e3a206275726e20616d6f756e74206578636565647320746f74616c20737570706c797472616e7366657246726f6d3a207472616e7366657220616d6f756e74206578636565647320616c6c6f77616e63655f6275726e3a206275726e20616d6f756e7420657863656564732066726f6d2062616c616e63655f7472616e73666572546f6b656e733a207472616e7366657220657863656564732066726f6d2062616c616e6365a26469706673582212205b4e384ee97ae33eac62761a5eb5377fcf01cf5b6bf90971225347313f46879964736f6c6343000703003353776170207061697220277377617050616972506f6f6c5265776172642720648be0079c531659141344cd1fd0a4f28419497f9722a3daafe3b4186f6b6457e0",
  "devdoc": {
    "kind": "dev",
    "methods": {
      "allowDepositor(address)": {
        "params": {
          "depositor": "address"
        }
      },
      "allowance(address,address)": {
        "params": {
          "account": "The address of the account holding the funds",
          "spender": "The address of the account spending the funds"
        },
        "returns": {
          "_0": "The number of tokens approved"
        }
      },
      "approve(address,uint256)": {
        "details": "This will overwrite the approval amount for `spender` and is subject to issues noted [here](https://eips.ethereum.org/EIPS/eip-20#approve) It is recommended to use increaseAllowance and decreaseAllowance instead",
        "params": {
          "amount": "The number of tokens that are approved (2^256-1 means infinite)",
          "spender": "The address of the account which may transfer tokens"
        },
        "returns": {
          "_0": "Whether or not the approval succeeded"
        }
      },
      "balanceOf(address)": {
        "params": {
          "account": "The address of the account to get the balance of"
        },
        "returns": {
          "_0": "The number of tokens held"
        }
      },
      "checkReward()": {
        "returns": {
          "_0": "reward tokens"
        }
      },
      "deposit(uint256)": {
        "params": {
          "amount": "Amount of tokens to deposit"
        }
      },
      "depositFor(address,uint256)": {
        "details": "Must mint receipt tokens to `account`",
        "params": {
          "account": "address to receive receipt tokens",
          "amount": "deposit tokens"
        }
      },
      "depositWithPermit(uint256,uint256,uint8,bytes32,bytes32)": {
        "params": {
          "amount": "Amount of tokens to deposit",
          "deadline": "The time at which to expire the signature",
          "r": "Half of the ECDSA signature pair",
          "s": "Half of the ECDSA signature pair",
          "v": "The recovery byte of the signature"
        }
      },
      "estimateDeployedBalance()": {
        "returns": {
          "_0": "deposit tokens after withdraw fee"
        }
      },
      "estimateReinvestReward()": {
        "returns": {
          "_0": "reward tokens"
        }
      },
      "getDepositTokensForShares(uint256)": {
        "params": {
          "amount": "receipt tokens"
        },
        "returns": {
          "_0": "deposit tokens"
        }
      },
      "getDomainSeparator()": {
        "returns": {
          "_0": "Separator"
        }
      },
      "getSharesForDepositTokens(uint256)": {
        "details": "If contract is empty, use 1:1 ratioCould return zero shares for very low amounts of deposit tokens",
        "params": {
          "amount": "deposit tokens"
        },
        "returns": {
          "_0": "receipt tokens"
        }
      },
      "owner()": {
        "details": "Returns the address of the current owner."
      },
      "permit(address,address,uint256,uint256,uint8,bytes32,bytes32)": {
        "params": {
          "deadline": "The time at which to expire the signature",
          "owner": "The address to approve from",
          "r": "Half of the ECDSA signature pair",
          "s": "Half of the ECDSA signature pair",
          "spender": "The address to be approved",
          "v": "The recovery byte of the signature",
          "value": "The number of tokens that are approved (2^256-1 means infinite)"
        }
      },
      "recoverAVAX(uint256)": {
        "params": {
          "amount": "amount"
        }
      },
      "recoverERC20(address,uint256)": {
        "params": {
          "tokenAddress": "token address",
          "tokenAmount": "amount to recover"
        }
      },
      "removeDepositor(address)": {
        "params": {
          "depositor": "address"
        }
      },
      "renounceOwnership()": {
        "details": "Leaves the contract without owner. It will not be possible to call `onlyOwner` functions anymore. Can only be called by the current owner. NOTE: Renouncing ownership will leave the contract without an owner, thereby removing any functionality that is only available to the owner."
      },
      "rescueDeployedFunds(uint256,bool)": {
        "params": {
          "disableDeposits": "bool",
          "minReturnAmountAccepted": "min deposit tokens to receive"
        }
      },
      "revokeAllowance(address,address)": {
        "params": {
          "spender": "address",
          "token": "address"
        }
      },
      "setAllowances()": {
        "details": "Deprecated; approvals should be handled in context of staking"
      },
      "totalDeposits()": {
        "returns": {
          "_0": "total deposits available on the contract"
        }
      },
      "transfer(address,uint256)": {
        "params": {
          "amount": "The number of tokens to transfer",
          "dst": "The address of the destination account"
        },
        "returns": {
          "_0": "Whether or not the transfer succeeded"
        }
      },
      "transferFrom(address,address,uint256)": {
        "params": {
          "amount": "The number of tokens to transfer",
          "dst": "The address of the destination account",
          "src": "The address of the source account"
        },
        "returns": {
          "_0": "Whether or not the transfer succeeded"
        }
      },
      "transferOwnership(address)": {
        "details": "Transfers ownership of the contract to a new account (`newOwner`). Can only be called by the current owner."
      },
      "updateAdminFee(uint256)": {
        "params": {
          "newValue": "fee in BIPS"
        }
      },
      "updateDepositsEnabled(bool)": {
        "params": {
          "newValue": "bool"
        }
      },
      "updateDevAddr(address)": {
        "params": {
          "newValue": "address"
        }
      },
      "updateDevFee(uint256)": {
        "params": {
          "newValue": "fee in BIPS"
        }
      },
      "updateMaxTokensToDepositWithoutReinvest(uint256)": {
        "params": {
          "newValue": "threshold"
        }
      },
      "updateMinTokensToReinvest(uint256)": {
        "params": {
          "newValue": "threshold"
        }
      },
      "updateReinvestReward(uint256)": {
        "params": {
          "newValue": "fee in BIPS"
        }
      },
      "withdraw(uint256)": {
        "params": {
          "amount": "receipt tokens"
        }
      }
    },
    "version": 1
  },
  "userdoc": {
    "kind": "user",
    "methods": {
      "allowDepositor(address)": {
        "notice": "Add an allowed depositor"
      },
      "allowance(address,address)": {
        "notice": "Get the number of tokens `spender` is approved to spend on behalf of `account`"
      },
      "approve(address,uint256)": {
        "notice": "Approve `spender` to transfer up to `amount` from `src`"
      },
      "balanceOf(address)": {
        "notice": "Get the number of tokens held by the `account`"
      },
      "checkReward()": {
        "notice": "Reward tokens avialable to strategy, including balance"
      },
      "deposit(uint256)": {
        "notice": "Deposit tokens to receive receipt tokens"
      },
      "depositFor(address,uint256)": {
        "notice": "Deposit on behalf of another account"
      },
      "depositWithPermit(uint256,uint256,uint8,bytes32,bytes32)": {
        "notice": "Deposit using Permit"
      },
      "estimateDeployedBalance()": {
        "notice": "Estimate recoverable balance after withdraw fee"
      },
      "estimateReinvestReward()": {
        "notice": "Estimate reinvest reward"
      },
      "getDepositTokensForShares(uint256)": {
        "notice": "Calculate deposit tokens for a given amount of receipt tokens"
      },
      "getDomainSeparator()": {
        "notice": "EIP-712 Domain separator"
      },
      "getSharesForDepositTokens(uint256)": {
        "notice": "Calculate receipt tokens for a given amount of deposit tokens"
      },
      "permit(address,address,uint256,uint256,uint8,bytes32,bytes32)": {
        "notice": "Triggers an approval from owner to spender"
      },
      "recoverAVAX(uint256)": {
        "notice": "Recover AVAX from contract"
      },
      "recoverERC20(address,uint256)": {
        "notice": "Recover ERC20 from contract"
      },
      "reinvest()": {
        "notice": "Reinvest reward tokens into deposit tokens"
      },
      "removeDepositor(address)": {
        "notice": "Remove an allowed depositor"
      },
      "rescueDeployedFunds(uint256,bool)": {
        "notice": "Rescue all available deployed deposit tokens back to Strategy"
      },
      "revokeAllowance(address,address)": {
        "notice": "Revoke token allowance"
      },
      "setAllowances()": {
        "notice": "Approve tokens for use in Strategy"
      },
      "totalDeposits()": {
        "notice": "This function returns a snapshot of last available quotes"
      },
      "transfer(address,uint256)": {
        "notice": "Transfer `amount` tokens from `msg.sender` to `dst`"
      },
      "transferFrom(address,address,uint256)": {
        "notice": "Transfer `amount` tokens from `src` to `dst`"
      },
      "updateAdminFee(uint256)": {
        "notice": "Update admin fee"
      },
      "updateDepositsEnabled(bool)": {
        "notice": "Enable/disable deposits"
      },
      "updateDevAddr(address)": {
        "notice": "Update devAddr"
      },
      "updateDevFee(uint256)": {
        "notice": "Update developer fee"
      },
      "updateMaxTokensToDepositWithoutReinvest(uint256)": {
        "notice": "Update reinvest max threshold before a deposit"
      },
      "updateMinTokensToReinvest(uint256)": {
        "notice": "Update reinvest min threshold"
      },
      "updateReinvestReward(uint256)": {
        "notice": "Update reinvest reward"
      },
      "withdraw(uint256)": {
        "notice": "Redeem receipt tokens for deposit tokens"
      }
    },
    "version": 1
  },
  "storageLayout": {
    "storage": [
      {
        "astId": 6072,
        "contract": "contracts/strategies/StargateStrategyForLP.sol:StargateStrategyForLP",
        "label": "name",
        "offset": 0,
        "slot": "0",
        "type": "t_string_storage"
      },
      {
        "astId": 6075,
        "contract": "contracts/strategies/StargateStrategyForLP.sol:StargateStrategyForLP",
        "label": "symbol",
        "offset": 0,
        "slot": "1",
        "type": "t_string_storage"
      },
      {
        "astId": 6080,
        "contract": "contracts/strategies/StargateStrategyForLP.sol:StargateStrategyForLP",
        "label": "totalSupply",
        "offset": 0,
        "slot": "2",
        "type": "t_uint256"
      },
      {
        "astId": 6086,
        "contract": "contracts/strategies/StargateStrategyForLP.sol:StargateStrategyForLP",
        "label": "allowances",
        "offset": 0,
        "slot": "3",
        "type": "t_mapping(t_address,t_mapping(t_address,t_uint256))"
      },
      {
        "astId": 6090,
        "contract": "contracts/strategies/StargateStrategyForLP.sol:StargateStrategyForLP",
        "label": "balances",
        "offset": 0,
        "slot": "4",
        "type": "t_mapping(t_address,t_uint256)"
      },
      {
        "astId": 6106,
        "contract": "contracts/strategies/StargateStrategyForLP.sol:StargateStrategyForLP",
        "label": "nonces",
        "offset": 0,
        "slot": "5",
        "type": "t_mapping(t_address,t_uint256)"
      },
      {
        "astId": 18140,
        "contract": "contracts/strategies/StargateStrategyForLP.sol:StargateStrategyForLP",
        "label": "_owner",
        "offset": 0,
        "slot": "6",
        "type": "t_address"
      },
      {
        "astId": 18253,
        "contract": "contracts/strategies/StargateStrategyForLP.sol:StargateStrategyForLP",
        "label": "numberOfAllowedDepositors",
        "offset": 0,
        "slot": "7",
        "type": "t_uint256"
      },
      {
        "astId": 18257,
        "contract": "contracts/strategies/StargateStrategyForLP.sol:StargateStrategyForLP",
        "label": "allowedDepositors",
        "offset": 0,
        "slot": "8",
        "type": "t_mapping(t_address,t_bool)"
      },
      {
        "astId": 7456,
        "contract": "contracts/strategies/StargateStrategyForLP.sol:StargateStrategyForLP",
        "label": "depositToken",
        "offset": 0,
        "slot": "9",
        "type": "t_contract(IERC20)10227"
      },
      {
        "astId": 7458,
        "contract": "contracts/strategies/StargateStrategyForLP.sol:StargateStrategyForLP",
        "label": "rewardToken",
        "offset": 0,
        "slot": "10",
        "type": "t_contract(IERC20)10227"
      },
      {
        "astId": 7460,
        "contract": "contracts/strategies/StargateStrategyForLP.sol:StargateStrategyForLP",
        "label": "devAddr",
        "offset": 0,
        "slot": "11",
        "type": "t_address"
      },
      {
        "astId": 7462,
        "contract": "contracts/strategies/StargateStrategyForLP.sol:StargateStrategyForLP",
        "label": "MIN_TOKENS_TO_REINVEST",
        "offset": 0,
        "slot": "12",
        "type": "t_uint256"
      },
      {
        "astId": 7464,
        "contract": "contracts/strategies/StargateStrategyForLP.sol:StargateStrategyForLP",
        "label": "MAX_TOKENS_TO_DEPOSIT_WITHOUT_REINVEST",
        "offset": 0,
        "slot": "13",
        "type": "t_uint256"
      },
      {
        "astId": 7466,
        "contract": "contracts/strategies/StargateStrategyForLP.sol:StargateStrategyForLP",
        "label": "DEPOSITS_ENABLED",
        "offset": 0,
        "slot": "14",
        "type": "t_bool"
      },
      {
        "astId": 7468,
        "contract": "contracts/strategies/StargateStrategyForLP.sol:StargateStrategyForLP",
        "label": "REINVEST_REWARD_BIPS",
        "offset": 0,
        "slot": "15",
        "type": "t_uint256"
      },
      {
        "astId": 7470,
        "contract": "contracts/strategies/StargateStrategyForLP.sol:StargateStrategyForLP",
        "label": "ADMIN_FEE_BIPS",
        "offset": 0,
        "slot": "16",
        "type": "t_uint256"
      },
      {
        "astId": 7472,
        "contract": "contracts/strategies/StargateStrategyForLP.sol:StargateStrategyForLP",
        "label": "DEV_FEE_BIPS",
        "offset": 0,
        "slot": "17",
        "type": "t_uint256"
      },
      {
        "astId": 80169,
        "contract": "contracts/strategies/StargateStrategyForLP.sol:StargateStrategyForLP",
        "label": "poolRewardToken",
        "offset": 0,
        "slot": "18",
        "type": "t_address"
      },
      {
        "astId": 80171,
        "contract": "contracts/strategies/StargateStrategyForLP.sol:StargateStrategyForLP",
        "label": "swapPairPoolReward",
        "offset": 0,
        "slot": "19",
        "type": "t_contract(IPair)13046"
      },
      {
        "astId": 80173,
        "contract": "contracts/strategies/StargateStrategyForLP.sol:StargateStrategyForLP",
        "label": "swapPairExtraReward",
        "offset": 0,
        "slot": "20",
        "type": "t_address"
      },
      {
        "astId": 80175,
        "contract": "contracts/strategies/StargateStrategyForLP.sol:StargateStrategyForLP",
        "label": "extraToken",
        "offset": 0,
        "slot": "21",
        "type": "t_address"
      },
      {
        "astId": 94209,
        "contract": "contracts/strategies/StargateStrategyForLP.sol:StargateStrategyForLP",
        "label": "stakingContract",
        "offset": 0,
        "slot": "22",
        "type": "t_contract(IStargateLPStaking)14541"
      },
      {
        "astId": 94211,
        "contract": "contracts/strategies/StargateStrategyForLP.sol:StargateStrategyForLP",
        "label": "stargateRouter",
        "offset": 0,
        "slot": "23",
        "type": "t_contract(IStargateRouter)14553"
      }
    ],
    "types": {
      "t_address": {
        "encoding": "inplace",
        "label": "address",
        "numberOfBytes": "20"
      },
      "t_bool": {
        "encoding": "inplace",
        "label": "bool",
        "numberOfBytes": "1"
      },
      "t_contract(IERC20)10227": {
        "encoding": "inplace",
        "label": "contract IERC20",
        "numberOfBytes": "20"
      },
      "t_contract(IPair)13046": {
        "encoding": "inplace",
        "label": "contract IPair",
        "numberOfBytes": "20"
      },
      "t_contract(IStargateLPStaking)14541": {
        "encoding": "inplace",
        "label": "contract IStargateLPStaking",
        "numberOfBytes": "20"
      },
      "t_contract(IStargateRouter)14553": {
        "encoding": "inplace",
        "label": "contract IStargateRouter",
        "numberOfBytes": "20"
      },
      "t_mapping(t_address,t_bool)": {
        "encoding": "mapping",
        "key": "t_address",
        "label": "mapping(address => bool)",
        "numberOfBytes": "32",
        "value": "t_bool"
      },
      "t_mapping(t_address,t_mapping(t_address,t_uint256))": {
        "encoding": "mapping",
        "key": "t_address",
        "label": "mapping(address => mapping(address => uint256))",
        "numberOfBytes": "32",
        "value": "t_mapping(t_address,t_uint256)"
      },
      "t_mapping(t_address,t_uint256)": {
        "encoding": "mapping",
        "key": "t_address",
        "label": "mapping(address => uint256)",
        "numberOfBytes": "32",
        "value": "t_uint256"
      },
      "t_string_storage": {
        "encoding": "bytes",
        "label": "string",
        "numberOfBytes": "32"
      },
      "t_uint256": {
        "encoding": "inplace",
        "label": "uint256",
        "numberOfBytes": "32"
      }
    }
  }
}