{
  "address": "0x462e05962EB9938cE73E59ccb7B7ae287Ff8Bd17",
  "abi": [
    {
      "inputs": [],
      "stateMutability": "nonpayable",
      "type": "constructor"
    },
    {
      "inputs": [
        {
          "internalType": "address",
          "name": "strategyAddress",
          "type": "address"
        }
      ],
      "name": "strategyInfo",
      "outputs": [
        {
          "components": [
            {
              "internalType": "uint256",
              "name": "totalSupply",
              "type": "uint256"
            },
            {
              "internalType": "uint256",
              "name": "totalDeposits",
              "type": "uint256"
            },
            {
              "internalType": "uint256",
              "name": "reward",
              "type": "uint256"
            },
            {
              "internalType": "uint256",
              "name": "reinvestRewardBips",
              "type": "uint256"
            }
          ],
          "internalType": "struct StrategyHelper.StrategyInfo",
          "name": "",
          "type": "tuple"
        }
      ],
      "stateMutability": "view",
      "type": "function"
    }
  ],
  "transactionHash": "0x89ce1a830c41d0bc2188e797a6023a0d41b86e083cd8cd67b925ec9e81d772e3",
  "args": [],
  "solcInputHash": "3e84e05eb9fc466db87919d33246ba39",
  "bytecode": "0x608060405234801561001057600080fd5b50610324806100206000396000f3fe608060405234801561001057600080fd5b506004361061002b5760003560e01c8063b7565cec14610030575b600080fd5b61004361003e36600461027d565b610059565b60405161005091906102c3565b60405180910390f35b610061610255565b8161006a610255565b816001600160a01b03166318160ddd6040518163ffffffff1660e01b815260040160206040518083038186803b1580156100a357600080fd5b505afa1580156100b7573d6000803e3d6000fd5b505050506040513d601f19601f820116820180604052508101906100db91906102ab565b816000018181525050816001600160a01b0316637d8820976040518163ffffffff1660e01b815260040160206040518083038186803b15801561011d57600080fd5b505afa158015610131573d6000803e3d6000fd5b505050506040513d601f19601f8201168201806040525081019061015591906102ab565b816020018181525050816001600160a01b031663c4b24a466040518163ffffffff1660e01b815260040160206040518083038186803b15801561019757600080fd5b505afa1580156101ab573d6000803e3d6000fd5b505050506040513d601f19601f820116820180604052508101906101cf91906102ab565b816040018181525050816001600160a01b0316638aff733d6040518163ffffffff1660e01b815260040160206040518083038186803b15801561021157600080fd5b505afa158015610225573d6000803e3d6000fd5b505050506040513d601f19601f8201168201806040525081019061024991906102ab565b60608201529392505050565b6040518060800160405280600081526020016000815260200160008152602001600081525090565b60006020828403121561028e578081fd5b81356001600160a01b03811681146102a4578182fd5b9392505050565b6000602082840312156102bc578081fd5b5051919050565b815181526020808301519082015260408083015190820152606091820151918101919091526080019056fea264697066735822122077eca7a7fe8a2ddaabaad5e32f2f0bb74af0334e076f047fb6b1f2e9078d351564736f6c63430007030033",
  "devdoc": {
    "kind": "dev",
    "methods": {},
    "version": 1
  },
  "userdoc": {
    "kind": "user",
    "methods": {},
    "version": 1
  },
  "storageLayout": {
    "storage": [],
    "types": null
  }
}