{
  "address": "0x2a3A08d3a7db1e58423Be5FDcaB873C4E8cE6508",
  "abi": [
    {
      "inputs": [
        {
          "internalType": "string",
          "name": "_name",
          "type": "string"
        },
        {
          "internalType": "address",
          "name": "_depositToken",
          "type": "address"
        },
        {
          "components": [
            {
              "internalType": "address",
              "name": "reward",
              "type": "address"
            },
            {
              "internalType": "address",
              "name": "swapPair",
              "type": "address"
            }
          ],
          "internalType": "struct VariableRewardsStrategy.RewardSwapPairs[]",
          "name": "_rewardSwapPairs",
          "type": "tuple[]"
        },
        {
          "internalType": "address",
          "name": "_swapDepositToken",
          "type": "address"
        },
        {
          "internalType": "address",
          "name": "_swapPairDepositToken",
          "type": "address"
        },
        {
          "internalType": "uint256",
          "name": "_tokenCount",
          "type": "uint256"
        },
        {
          "internalType": "address",
          "name": "_swapContract",
          "type": "address"
        },
        {
          "internalType": "address",
          "name": "_stakingContract",
          "type": "address"
        },
        {
          "internalType": "uint256",
          "name": "_pid",
          "type": "uint256"
        },
        {
          "internalType": "address",
          "name": "_timelock",
          "type": "address"
        },
        {
          "components": [
            {
              "internalType": "uint256",
              "name": "minTokensToReinvest",
              "type": "uint256"
            },
            {
              "internalType": "uint256",
              "name": "devFeeBips",
              "type": "uint256"
            },
            {
              "internalType": "uint256",
              "name": "reinvestRewardBips",
              "type": "uint256"
            }
          ],
          "internalType": "struct YakStrategyV2.StrategySettings",
          "name": "_strategySettings",
          "type": "tuple"
        }
      ],
      "stateMutability": "nonpayable",
      "type": "constructor"
    },
    {
      "anonymous": false,
      "inputs": [
        {
          "indexed": false,
          "internalType": "address",
          "name": "rewardToken",
          "type": "address"
        },
        {
          "indexed": false,
          "internalType": "address",
          "name": "swapPair",
          "type": "address"
        }
      ],
      "name": "AddReward",
      "type": "event"
    },
    {
      "anonymous": false,
      "inputs": [
        {
          "indexed": true,
          "internalType": "address",
          "name": "account",
          "type": "address"
        }
      ],
      "name": "AllowDepositor",
      "type": "event"
    },
    {
      "anonymous": false,
      "inputs": [
        {
          "indexed": true,
          "internalType": "address",
          "name": "owner",
          "type": "address"
        },
        {
          "indexed": true,
          "internalType": "address",
          "name": "spender",
          "type": "address"
        },
        {
          "indexed": false,
          "internalType": "uint256",
          "name": "value",
          "type": "uint256"
        }
      ],
      "name": "Approval",
      "type": "event"
    },
    {
      "anonymous": false,
      "inputs": [
        {
          "indexed": true,
          "internalType": "address",
          "name": "account",
          "type": "address"
        },
        {
          "indexed": false,
          "internalType": "uint256",
          "name": "amount",
          "type": "uint256"
        }
      ],
      "name": "Deposit",
      "type": "event"
    },
    {
      "anonymous": false,
      "inputs": [
        {
          "indexed": false,
          "internalType": "bool",
          "name": "newValue",
          "type": "bool"
        }
      ],
      "name": "DepositsEnabled",
      "type": "event"
    },
    {
      "anonymous": false,
      "inputs": [
        {
          "indexed": true,
          "internalType": "address",
          "name": "previousOwner",
          "type": "address"
        },
        {
          "indexed": true,
          "internalType": "address",
          "name": "newOwner",
          "type": "address"
        }
      ],
      "name": "OwnershipTransferred",
      "type": "event"
    },
    {
      "anonymous": false,
      "inputs": [
        {
          "indexed": false,
          "internalType": "address",
          "name": "token",
          "type": "address"
        },
        {
          "indexed": false,
          "internalType": "uint256",
          "name": "amount",
          "type": "uint256"
        }
      ],
      "name": "Recovered",
      "type": "event"
    },
    {
      "anonymous": false,
      "inputs": [
        {
          "indexed": false,
          "internalType": "uint256",
          "name": "newTotalDeposits",
          "type": "uint256"
        },
        {
          "indexed": false,
          "internalType": "uint256",
          "name": "newTotalSupply",
          "type": "uint256"
        }
      ],
      "name": "Reinvest",
      "type": "event"
    },
    {
      "anonymous": false,
      "inputs": [
        {
          "indexed": true,
          "internalType": "address",
          "name": "account",
          "type": "address"
        }
      ],
      "name": "RemoveDepositor",
      "type": "event"
    },
    {
      "anonymous": false,
      "inputs": [
        {
          "indexed": false,
          "internalType": "address",
          "name": "rewardToken",
          "type": "address"
        }
      ],
      "name": "RemoveReward",
      "type": "event"
    },
    {
      "anonymous": false,
      "inputs": [
        {
          "indexed": true,
          "internalType": "address",
          "name": "from",
          "type": "address"
        },
        {
          "indexed": true,
          "internalType": "address",
          "name": "to",
          "type": "address"
        },
        {
          "indexed": false,
          "internalType": "uint256",
          "name": "value",
          "type": "uint256"
        }
      ],
      "name": "Transfer",
      "type": "event"
    },
    {
      "anonymous": false,
      "inputs": [
        {
          "indexed": false,
          "internalType": "uint256",
          "name": "oldValue",
          "type": "uint256"
        },
        {
          "indexed": false,
          "internalType": "uint256",
          "name": "newValue",
          "type": "uint256"
        }
      ],
      "name": "UpdateAdminFee",
      "type": "event"
    },
    {
      "anonymous": false,
      "inputs": [
        {
          "indexed": false,
          "internalType": "address",
          "name": "oldValue",
          "type": "address"
        },
        {
          "indexed": false,
          "internalType": "address",
          "name": "newValue",
          "type": "address"
        }
      ],
      "name": "UpdateDevAddr",
      "type": "event"
    },
    {
      "anonymous": false,
      "inputs": [
        {
          "indexed": false,
          "internalType": "uint256",
          "name": "oldValue",
          "type": "uint256"
        },
        {
          "indexed": false,
          "internalType": "uint256",
          "name": "newValue",
          "type": "uint256"
        }
      ],
      "name": "UpdateDevFee",
      "type": "event"
    },
    {
      "anonymous": false,
      "inputs": [
        {
          "indexed": false,
          "internalType": "uint256",
          "name": "oldValue",
          "type": "uint256"
        },
        {
          "indexed": false,
          "internalType": "uint256",
          "name": "newValue",
          "type": "uint256"
        }
      ],
      "name": "UpdateMaxTokensToDepositWithoutReinvest",
      "type": "event"
    },
    {
      "anonymous": false,
      "inputs": [
        {
          "indexed": false,
          "internalType": "uint256",
          "name": "oldValue",
          "type": "uint256"
        },
        {
          "indexed": false,
          "internalType": "uint256",
          "name": "newValue",
          "type": "uint256"
        }
      ],
      "name": "UpdateMinTokensToReinvest",
      "type": "event"
    },
    {
      "anonymous": false,
      "inputs": [
        {
          "indexed": false,
          "internalType": "uint256",
          "name": "oldValue",
          "type": "uint256"
        },
        {
          "indexed": false,
          "internalType": "uint256",
          "name": "newValue",
          "type": "uint256"
        }
      ],
      "name": "UpdateReinvestReward",
      "type": "event"
    },
    {
      "anonymous": false,
      "inputs": [
        {
          "indexed": true,
          "internalType": "address",
          "name": "account",
          "type": "address"
        },
        {
          "indexed": false,
          "internalType": "uint256",
          "name": "amount",
          "type": "uint256"
        }
      ],
      "name": "Withdraw",
      "type": "event"
    },
    {
      "inputs": [],
      "name": "ADMIN_FEE_BIPS",
      "outputs": [
        {
          "internalType": "uint256",
          "name": "",
          "type": "uint256"
        }
      ],
      "stateMutability": "view",
      "type": "function"
    },
    {
      "inputs": [],
      "name": "DEPOSITS_ENABLED",
      "outputs": [
        {
          "internalType": "bool",
          "name": "",
          "type": "bool"
        }
      ],
      "stateMutability": "view",
      "type": "function"
    },
    {
      "inputs": [],
      "name": "DEV_FEE_BIPS",
      "outputs": [
        {
          "internalType": "uint256",
          "name": "",
          "type": "uint256"
        }
      ],
      "stateMutability": "view",
      "type": "function"
    },
    {
      "inputs": [],
      "name": "DOMAIN_TYPEHASH",
      "outputs": [
        {
          "internalType": "bytes32",
          "name": "",
          "type": "bytes32"
        }
      ],
      "stateMutability": "view",
      "type": "function"
    },
    {
      "inputs": [],
      "name": "MAX_TOKENS_TO_DEPOSIT_WITHOUT_REINVEST",
      "outputs": [
        {
          "internalType": "uint256",
          "name": "",
          "type": "uint256"
        }
      ],
      "stateMutability": "view",
      "type": "function"
    },
    {
      "inputs": [],
      "name": "MIN_TOKENS_TO_REINVEST",
      "outputs": [
        {
          "internalType": "uint256",
          "name": "",
          "type": "uint256"
        }
      ],
      "stateMutability": "view",
      "type": "function"
    },
    {
      "inputs": [],
      "name": "PERMIT_TYPEHASH",
      "outputs": [
        {
          "internalType": "bytes32",
          "name": "",
          "type": "bytes32"
        }
      ],
      "stateMutability": "view",
      "type": "function"
    },
    {
      "inputs": [],
      "name": "PID",
      "outputs": [
        {
          "internalType": "uint256",
          "name": "",
          "type": "uint256"
        }
      ],
      "stateMutability": "view",
      "type": "function"
    },
    {
      "inputs": [],
      "name": "REINVEST_REWARD_BIPS",
      "outputs": [
        {
          "internalType": "uint256",
          "name": "",
          "type": "uint256"
        }
      ],
      "stateMutability": "view",
      "type": "function"
    },
    {
      "inputs": [],
      "name": "VERSION_HASH",
      "outputs": [
        {
          "internalType": "bytes32",
          "name": "",
          "type": "bytes32"
        }
      ],
      "stateMutability": "view",
      "type": "function"
    },
    {
      "inputs": [
        {
          "internalType": "address",
          "name": "_rewardToken",
          "type": "address"
        },
        {
          "internalType": "address",
          "name": "_swapPair",
          "type": "address"
        }
      ],
      "name": "addReward",
      "outputs": [],
      "stateMutability": "nonpayable",
      "type": "function"
    },
    {
      "inputs": [
        {
          "internalType": "address",
          "name": "depositor",
          "type": "address"
        }
      ],
      "name": "allowDepositor",
      "outputs": [],
      "stateMutability": "nonpayable",
      "type": "function"
    },
    {
      "inputs": [
        {
          "internalType": "address",
          "name": "account",
          "type": "address"
        },
        {
          "internalType": "address",
          "name": "spender",
          "type": "address"
        }
      ],
      "name": "allowance",
      "outputs": [
        {
          "internalType": "uint256",
          "name": "",
          "type": "uint256"
        }
      ],
      "stateMutability": "view",
      "type": "function"
    },
    {
      "inputs": [
        {
          "internalType": "address",
          "name": "",
          "type": "address"
        }
      ],
      "name": "allowedDepositors",
      "outputs": [
        {
          "internalType": "bool",
          "name": "",
          "type": "bool"
        }
      ],
      "stateMutability": "view",
      "type": "function"
    },
    {
      "inputs": [
        {
          "internalType": "address",
          "name": "spender",
          "type": "address"
        },
        {
          "internalType": "uint256",
          "name": "amount",
          "type": "uint256"
        }
      ],
      "name": "approve",
      "outputs": [
        {
          "internalType": "bool",
          "name": "",
          "type": "bool"
        }
      ],
      "stateMutability": "nonpayable",
      "type": "function"
    },
    {
      "inputs": [
        {
          "internalType": "address",
          "name": "account",
          "type": "address"
        }
      ],
      "name": "balanceOf",
      "outputs": [
        {
          "internalType": "uint256",
          "name": "",
          "type": "uint256"
        }
      ],
      "stateMutability": "view",
      "type": "function"
    },
    {
      "inputs": [
        {
          "internalType": "uint256",
          "name": "_amount",
          "type": "uint256"
        }
      ],
      "name": "calculateDepositFee",
      "outputs": [
        {
          "internalType": "uint256",
          "name": "",
          "type": "uint256"
        }
      ],
      "stateMutability": "view",
      "type": "function"
    },
    {
      "inputs": [
        {
          "internalType": "uint256",
          "name": "_amount",
          "type": "uint256"
        }
      ],
      "name": "calculateWithdrawFee",
      "outputs": [
        {
          "internalType": "uint256",
          "name": "",
          "type": "uint256"
        }
      ],
      "stateMutability": "view",
      "type": "function"
    },
    {
      "inputs": [],
      "name": "checkReward",
      "outputs": [
        {
          "internalType": "uint256",
          "name": "",
          "type": "uint256"
        }
      ],
      "stateMutability": "view",
      "type": "function"
    },
    {
      "inputs": [],
      "name": "decimals",
      "outputs": [
        {
          "internalType": "uint8",
          "name": "",
          "type": "uint8"
        }
      ],
      "stateMutability": "view",
      "type": "function"
    },
    {
      "inputs": [
        {
          "internalType": "uint256",
          "name": "_amount",
          "type": "uint256"
        }
      ],
      "name": "deposit",
      "outputs": [],
      "stateMutability": "nonpayable",
      "type": "function"
    },
    {
      "inputs": [
        {
          "internalType": "address",
          "name": "_account",
          "type": "address"
        },
        {
          "internalType": "uint256",
          "name": "_amount",
          "type": "uint256"
        }
      ],
      "name": "depositFor",
      "outputs": [],
      "stateMutability": "nonpayable",
      "type": "function"
    },
    {
      "inputs": [],
      "name": "depositToken",
      "outputs": [
        {
          "internalType": "contract IERC20",
          "name": "",
          "type": "address"
        }
      ],
      "stateMutability": "view",
      "type": "function"
    },
    {
      "inputs": [
        {
          "internalType": "uint256",
          "name": "_amount",
          "type": "uint256"
        },
        {
          "internalType": "uint256",
          "name": "_deadline",
          "type": "uint256"
        },
        {
          "internalType": "uint8",
          "name": "_v",
          "type": "uint8"
        },
        {
          "internalType": "bytes32",
          "name": "_r",
          "type": "bytes32"
        },
        {
          "internalType": "bytes32",
          "name": "_s",
          "type": "bytes32"
        }
      ],
      "name": "depositWithPermit",
      "outputs": [],
      "stateMutability": "nonpayable",
      "type": "function"
    },
    {
      "inputs": [],
      "name": "devAddr",
      "outputs": [
        {
          "internalType": "address",
          "name": "",
          "type": "address"
        }
      ],
      "stateMutability": "view",
      "type": "function"
    },
    {
      "inputs": [],
      "name": "estimateDeployedBalance",
      "outputs": [
        {
          "internalType": "uint256",
          "name": "",
          "type": "uint256"
        }
      ],
      "stateMutability": "view",
      "type": "function"
    },
    {
      "inputs": [],
      "name": "estimateReinvestReward",
      "outputs": [
        {
          "internalType": "uint256",
          "name": "",
          "type": "uint256"
        }
      ],
      "stateMutability": "view",
      "type": "function"
    },
    {
      "inputs": [
        {
          "internalType": "uint256",
          "name": "amount",
          "type": "uint256"
        }
      ],
      "name": "getDepositTokensForShares",
      "outputs": [
        {
          "internalType": "uint256",
          "name": "",
          "type": "uint256"
        }
      ],
      "stateMutability": "view",
      "type": "function"
    },
    {
      "inputs": [],
      "name": "getDomainSeparator",
      "outputs": [
        {
          "internalType": "bytes32",
          "name": "",
          "type": "bytes32"
        }
      ],
      "stateMutability": "view",
      "type": "function"
    },
    {
      "inputs": [
        {
          "internalType": "uint256",
          "name": "amount",
          "type": "uint256"
        }
      ],
      "name": "getSharesForDepositTokens",
      "outputs": [
        {
          "internalType": "uint256",
          "name": "",
          "type": "uint256"
        }
      ],
      "stateMutability": "view",
      "type": "function"
    },
    {
      "inputs": [],
      "name": "miniChef",
      "outputs": [
        {
          "internalType": "contract IMiniChefV2",
          "name": "",
          "type": "address"
        }
      ],
      "stateMutability": "view",
      "type": "function"
    },
    {
      "inputs": [],
      "name": "name",
      "outputs": [
        {
          "internalType": "string",
          "name": "",
          "type": "string"
        }
      ],
      "stateMutability": "view",
      "type": "function"
    },
    {
      "inputs": [
        {
          "internalType": "address",
          "name": "",
          "type": "address"
        }
      ],
      "name": "nonces",
      "outputs": [
        {
          "internalType": "uint256",
          "name": "",
          "type": "uint256"
        }
      ],
      "stateMutability": "view",
      "type": "function"
    },
    {
      "inputs": [],
      "name": "numberOfAllowedDepositors",
      "outputs": [
        {
          "internalType": "uint256",
          "name": "",
          "type": "uint256"
        }
      ],
      "stateMutability": "view",
      "type": "function"
    },
    {
      "inputs": [],
      "name": "owner",
      "outputs": [
        {
          "internalType": "address",
          "name": "",
          "type": "address"
        }
      ],
      "stateMutability": "view",
      "type": "function"
    },
    {
      "inputs": [
        {
          "internalType": "address",
          "name": "owner",
          "type": "address"
        },
        {
          "internalType": "address",
          "name": "spender",
          "type": "address"
        },
        {
          "internalType": "uint256",
          "name": "value",
          "type": "uint256"
        },
        {
          "internalType": "uint256",
          "name": "deadline",
          "type": "uint256"
        },
        {
          "internalType": "uint8",
          "name": "v",
          "type": "uint8"
        },
        {
          "internalType": "bytes32",
          "name": "r",
          "type": "bytes32"
        },
        {
          "internalType": "bytes32",
          "name": "s",
          "type": "bytes32"
        }
      ],
      "name": "permit",
      "outputs": [],
      "stateMutability": "nonpayable",
      "type": "function"
    },
    {
      "inputs": [
        {
          "internalType": "uint256",
          "name": "amount",
          "type": "uint256"
        }
      ],
      "name": "recoverAVAX",
      "outputs": [],
      "stateMutability": "nonpayable",
      "type": "function"
    },
    {
      "inputs": [
        {
          "internalType": "address",
          "name": "tokenAddress",
          "type": "address"
        },
        {
          "internalType": "uint256",
          "name": "tokenAmount",
          "type": "uint256"
        }
      ],
      "name": "recoverERC20",
      "outputs": [],
      "stateMutability": "nonpayable",
      "type": "function"
    },
    {
      "inputs": [],
      "name": "reinvest",
      "outputs": [],
      "stateMutability": "nonpayable",
      "type": "function"
    },
    {
      "inputs": [
        {
          "internalType": "address",
          "name": "depositor",
          "type": "address"
        }
      ],
      "name": "removeDepositor",
      "outputs": [],
      "stateMutability": "nonpayable",
      "type": "function"
    },
    {
      "inputs": [
        {
          "internalType": "address",
          "name": "_rewardToken",
          "type": "address"
        }
      ],
      "name": "removeReward",
      "outputs": [],
      "stateMutability": "nonpayable",
      "type": "function"
    },
    {
      "inputs": [],
      "name": "renounceOwnership",
      "outputs": [],
      "stateMutability": "nonpayable",
      "type": "function"
    },
    {
      "inputs": [
        {
          "internalType": "uint256",
          "name": "_minReturnAmountAccepted",
          "type": "uint256"
        },
        {
          "internalType": "bool",
          "name": "",
          "type": "bool"
        }
      ],
      "name": "rescueDeployedFunds",
      "outputs": [],
      "stateMutability": "nonpayable",
      "type": "function"
    },
    {
      "inputs": [
        {
          "internalType": "address",
          "name": "token",
          "type": "address"
        },
        {
          "internalType": "address",
          "name": "spender",
          "type": "address"
        }
      ],
      "name": "revokeAllowance",
      "outputs": [],
      "stateMutability": "nonpayable",
      "type": "function"
    },
    {
      "inputs": [],
      "name": "rewardCount",
      "outputs": [
        {
          "internalType": "uint256",
          "name": "",
          "type": "uint256"
        }
      ],
      "stateMutability": "view",
      "type": "function"
    },
    {
      "inputs": [
        {
          "internalType": "address",
          "name": "",
          "type": "address"
        }
      ],
      "name": "rewardSwapPairs",
      "outputs": [
        {
          "internalType": "address",
          "name": "",
          "type": "address"
        }
      ],
      "stateMutability": "view",
      "type": "function"
    },
    {
      "inputs": [],
      "name": "rewardToken",
      "outputs": [
        {
          "internalType": "contract IERC20",
          "name": "",
          "type": "address"
        }
      ],
      "stateMutability": "view",
      "type": "function"
    },
    {
      "inputs": [
        {
          "internalType": "uint256",
          "name": "",
          "type": "uint256"
        }
      ],
      "name": "supportedRewards",
      "outputs": [
        {
          "internalType": "address",
          "name": "",
          "type": "address"
        }
      ],
      "stateMutability": "view",
      "type": "function"
    },
    {
      "inputs": [],
      "name": "swapDepositToken",
      "outputs": [
        {
          "internalType": "address",
          "name": "",
          "type": "address"
        }
      ],
      "stateMutability": "view",
      "type": "function"
    },
    {
      "inputs": [],
      "name": "swapPairDepositToken",
      "outputs": [
        {
          "internalType": "address",
          "name": "",
          "type": "address"
        }
      ],
      "stateMutability": "view",
      "type": "function"
    },
    {
      "inputs": [],
      "name": "symbol",
      "outputs": [
        {
          "internalType": "string",
          "name": "",
          "type": "string"
        }
      ],
      "stateMutability": "view",
      "type": "function"
    },
    {
      "inputs": [],
      "name": "synapseSwap",
      "outputs": [
        {
          "internalType": "contract ISwapFlashLoan",
          "name": "",
          "type": "address"
        }
      ],
      "stateMutability": "view",
      "type": "function"
    },
    {
      "inputs": [],
      "name": "tokenCount",
      "outputs": [
        {
          "internalType": "uint256",
          "name": "",
          "type": "uint256"
        }
      ],
      "stateMutability": "view",
      "type": "function"
    },
    {
      "inputs": [],
      "name": "tokenIndex",
      "outputs": [
        {
          "internalType": "uint256",
          "name": "",
          "type": "uint256"
        }
      ],
      "stateMutability": "view",
      "type": "function"
    },
    {
      "inputs": [],
      "name": "totalDeposits",
      "outputs": [
        {
          "internalType": "uint256",
          "name": "",
          "type": "uint256"
        }
      ],
      "stateMutability": "view",
      "type": "function"
    },
    {
      "inputs": [],
      "name": "totalSupply",
      "outputs": [
        {
          "internalType": "uint256",
          "name": "",
          "type": "uint256"
        }
      ],
      "stateMutability": "view",
      "type": "function"
    },
    {
      "inputs": [
        {
          "internalType": "address",
          "name": "dst",
          "type": "address"
        },
        {
          "internalType": "uint256",
          "name": "amount",
          "type": "uint256"
        }
      ],
      "name": "transfer",
      "outputs": [
        {
          "internalType": "bool",
          "name": "",
          "type": "bool"
        }
      ],
      "stateMutability": "nonpayable",
      "type": "function"
    },
    {
      "inputs": [
        {
          "internalType": "address",
          "name": "src",
          "type": "address"
        },
        {
          "internalType": "address",
          "name": "dst",
          "type": "address"
        },
        {
          "internalType": "uint256",
          "name": "amount",
          "type": "uint256"
        }
      ],
      "name": "transferFrom",
      "outputs": [
        {
          "internalType": "bool",
          "name": "",
          "type": "bool"
        }
      ],
      "stateMutability": "nonpayable",
      "type": "function"
    },
    {
      "inputs": [
        {
          "internalType": "address",
          "name": "newOwner",
          "type": "address"
        }
      ],
      "name": "transferOwnership",
      "outputs": [],
      "stateMutability": "nonpayable",
      "type": "function"
    },
    {
      "inputs": [
        {
          "internalType": "uint256",
          "name": "newValue",
          "type": "uint256"
        }
      ],
      "name": "updateAdminFee",
      "outputs": [],
      "stateMutability": "nonpayable",
      "type": "function"
    },
    {
      "inputs": [
        {
          "internalType": "bool",
          "name": "newValue",
          "type": "bool"
        }
      ],
      "name": "updateDepositsEnabled",
      "outputs": [],
      "stateMutability": "nonpayable",
      "type": "function"
    },
    {
      "inputs": [
        {
          "internalType": "address",
          "name": "newValue",
          "type": "address"
        }
      ],
      "name": "updateDevAddr",
      "outputs": [],
      "stateMutability": "nonpayable",
      "type": "function"
    },
    {
      "inputs": [
        {
          "internalType": "uint256",
          "name": "newValue",
          "type": "uint256"
        }
      ],
      "name": "updateDevFee",
      "outputs": [],
      "stateMutability": "nonpayable",
      "type": "function"
    },
    {
      "inputs": [
        {
          "internalType": "uint256",
          "name": "newValue",
          "type": "uint256"
        }
      ],
      "name": "updateMaxTokensToDepositWithoutReinvest",
      "outputs": [],
      "stateMutability": "nonpayable",
      "type": "function"
    },
    {
      "inputs": [
        {
          "internalType": "uint256",
          "name": "newValue",
          "type": "uint256"
        }
      ],
      "name": "updateMinTokensToReinvest",
      "outputs": [],
      "stateMutability": "nonpayable",
      "type": "function"
    },
    {
      "inputs": [
        {
          "internalType": "uint256",
          "name": "newValue",
          "type": "uint256"
        }
      ],
      "name": "updateReinvestReward",
      "outputs": [],
      "stateMutability": "nonpayable",
      "type": "function"
    },
    {
      "inputs": [
        {
          "internalType": "uint256",
          "name": "_amount",
          "type": "uint256"
        }
      ],
      "name": "withdraw",
      "outputs": [],
      "stateMutability": "nonpayable",
      "type": "function"
    }
  ],
  "transactionHash": "0x1b2fffd4510577210c9f286c7bba1c62d42bb456bf8ea995812681a73b32401b",
  "args": [
    "Yield Yak: Synapse nUSD-LP",
    "0xCA87BF3ec55372D9540437d7a86a7750B42C02f4",
    [
      {
        "reward": "0x1f1E7c893855525b303f99bDF5c3c05Be09ca251",
        "swapPair": "0x20ABdC20758990b6afc90dA2f2D30CD0aa3F73c6"
      }
    ],
    "0xc7198437980c041c805A1EDcbA50c1Ce5db95118",
    "0xed8cbd9f0ce3c6986b22002f03c6475ceb7a6256",
    4,
    "0xED2a7edd7413021d440b09D654f3b87712abAB66",
    "0x3a01521F8E7F012eB37eAAf1cb9490a5d9e18249",
    "1",
    "0x302404cb8F34713A8B8DBF9b4989A41252332068",
    {
      "minTokensToReinvest": "100000000000000",
      "adminFeeBips": 0,
      "devFeeBips": 700,
      "reinvestRewardBips": 300
    }
  ],
  "solcInputHash": "b09c950110e75a2418eb39b66c4c9a25",
  "bytecode": "0x6101a06040526009610160819052685969656c642059616b60b81b6101809081526200002f916000919062000a4f565b506040805180820190915260038082526216549560ea1b60209092019182526200005c9160019162000a4f565b503480156200006a57600080fd5b506040516200594b3803806200594b8339810160408190526200008d9162000d3b565b8a8a8a848480600033600680546001600160a01b0319166001600160a01b038316908117909155604051919250906000906000805160206200592b833981519152908290a3508051620000e090620002e7565b6020810151620000f09062000377565b604081015162000100906200042e565b5084516200011690600090602088019062000a4f565b50600980546001600160a01b0386166001600160a01b031991821617909155600a8054821673b31f66aa3c1e785363f0875a1b74e27b85fd66c7179055600b8054909116732d580f9cf2fb2d09bc411532988f2afda4e7beff17905560005b8351811015620001e657620001d184828151811062000198576200019862000e44565b602002602001015160000151858381518110620001b957620001b962000e44565b602002602001015160200151620004e560201b60201c565b80620001dd8162000e70565b91505062000175565b50620001f360016200066e565b620001fe8262000718565b60408051600080825260208201527fc7606d21ac05cd309191543e409f0845c016120563783d70e4f41419dc0ef234910160405180910390a1505050608085905250506001600160a01b0388811660e08190528882166101005286821660a081905291861660c0526040516319b02f4960e21b815260048101919091526366c0bd2490602401602060405180830381865afa158015620002a2573d6000803e3d6000fd5b505050506040513d601f19601f82011682018060405250810190620002c8919062000e8c565b60ff1661012052505050610140929092525062000f2695505050505050565b6006546001600160a01b03163314620003365760405162461bcd60e51b815260206004820181905260248201526000805160206200590b83398151915260448201526064015b60405180910390fd5b600c5460408051918252602082018390527f481f79ac3a523b6d6db3c5a720e190e986d1cc1b41adcdf50f9caef849901100910160405180910390a1600c55565b6006546001600160a01b03163314620003c25760405162461bcd60e51b815260206004820181905260248201526000805160206200590b83398151915260448201526064016200032d565b612710620003e1601054836200081560201b6200240f1790919060201c565b1115620003ed57600080fd5b60115460408051918252602082018390527f2a42303d002f0ba6cfe8259c91d4684443fb0b3de286ba74991175d651726131910160405180910390a1601155565b6006546001600160a01b03163314620004795760405162461bcd60e51b815260206004820181905260248201526000805160206200590b83398151915260448201526064016200032d565b61271062000498601154836200081560201b6200240f1790919060201c565b1115620004a457600080fd5b60105460408051918252602082018390527fe7f97d51d307dc44045597c9978bec0f842e6bb40d19b9444084cfa30d9ed4f2910160405180910390a1601055565b600a546001600160a01b038381169116146200059e57620005288183600a60009054906101000a90046001600160a01b03166200082a60201b6200241b1760201c565b6200059e576040805162461bcd60e51b81526020600482015260248101919091527f5661726961626c655265776172647353747261746567793a3a5377617020706160448201527f697220646f6573206e6f7420636f6e7461696e2072657761726420746f6b656e60648201526084016200032d565b6001600160a01b038083166000818152601260209081526040822080549486166001600160a01b03199586161790556013805460018181018355919093527f66de8ffda797e3de9c05e8fc57b3bf0ec28a930d40b0d285d93c06501cf6a0909092018054909416909217909255601454620006249290916200240f62000815821b17901c565b601455604080516001600160a01b038085168252831660208201527f916e172c080569186aa7ea048268267257cf7cc49505908863f747bca8620f80910160405180910390a15050565b6006546001600160a01b03163314620006b95760405162461bcd60e51b815260206004820181905260248201526000805160206200590b83398151915260448201526064016200032d565b600e5481151560ff909116151503620006d157600080fd5b600e805460ff19168215159081179091556040519081527f7b014ed3854e7f5cb0218d58b3c6ae7d53a68bb0af2f67bfb029ea42c38a7e859060200160405180910390a150565b6006546001600160a01b03163314620007635760405162461bcd60e51b815260206004820181905260248201526000805160206200590b83398151915260448201526064016200032d565b6001600160a01b038116620007ca5760405162461bcd60e51b815260206004820152602660248201527f4f776e61626c653a206e6577206f776e657220697320746865207a65726f206160448201526564647265737360d01b60648201526084016200032d565b6006546040516001600160a01b038084169216906000805160206200592b83398151915290600090a3600680546001600160a01b0319166001600160a01b0392909216919091179055565b600062000823828462000eb1565b9392505050565b6000836001600160a01b0316630dfe16816040518163ffffffff1660e01b8152600401602060405180830381865afa1580156200086b573d6000803e3d6000fd5b505050506040513d601f19601f8201168201806040525081019062000891919062000ecc565b6001600160a01b0316836001600160a01b03161480620009265750836001600160a01b031663d21220a76040518163ffffffff1660e01b8152600401602060405180830381865afa158015620008eb573d6000803e3d6000fd5b505050506040513d601f19601f8201168201806040525081019062000911919062000ecc565b6001600160a01b0316836001600160a01b0316145b801562000a285750836001600160a01b0316630dfe16816040518163ffffffff1660e01b8152600401602060405180830381865afa1580156200096d573d6000803e3d6000fd5b505050506040513d601f19601f8201168201806040525081019062000993919062000ecc565b6001600160a01b0316826001600160a01b0316148062000a285750836001600160a01b031663d21220a76040518163ffffffff1660e01b8152600401602060405180830381865afa158015620009ed573d6000803e3d6000fd5b505050506040513d601f19601f8201168201806040525081019062000a13919062000ecc565b6001600160a01b0316826001600160a01b0316145b801562000a475750816001600160a01b0316836001600160a01b031614155b949350505050565b82805462000a5d9062000eea565b90600052602060002090601f01602090048101928262000a81576000855562000acc565b82601f1062000a9c57805160ff191683800117855562000acc565b8280016001018555821562000acc579182015b8281111562000acc57825182559160200191906001019062000aaf565b5062000ada92915062000ade565b5090565b5b8082111562000ada576000815560010162000adf565b634e487b7160e01b600052604160045260246000fd5b604080519081016001600160401b038111828210171562000b305762000b3062000af5565b60405290565b604051601f8201601f191681016001600160401b038111828210171562000b615762000b6162000af5565b604052919050565b600082601f83011262000b7b57600080fd5b81516001600160401b0381111562000b975762000b9762000af5565b602062000bad601f8301601f1916820162000b36565b828152858284870101111562000bc257600080fd5b60005b8381101562000be257858101830151828201840152820162000bc5565b8381111562000bf45760008385840101525b5095945050505050565b80516001600160a01b038116811462000c1657600080fd5b919050565b600082601f83011262000c2d57600080fd5b815160206001600160401b0382111562000c4b5762000c4b62000af5565b62000c5b818360051b0162000b36565b82815260069290921b8401810191818101908684111562000c7b57600080fd5b8286015b8481101562000cd1576040818903121562000c9a5760008081fd5b62000ca462000b0b565b62000caf8262000bfe565b815262000cbe85830162000bfe565b8186015283529183019160400162000c7f565b509695505050505050565b60006060828403121562000cef57600080fd5b604051606081016001600160401b038111828210171562000d145762000d1462000af5565b80604052508091508251815260208301516020820152604083015160408201525092915050565b60008060008060008060008060008060006101a08c8e03121562000d5e57600080fd5b8b516001600160401b0381111562000d7557600080fd5b62000d838e828f0162000b69565b9b505062000d9460208d0162000bfe565b60408d0151909a506001600160401b0381111562000db157600080fd5b62000dbf8e828f0162000c1b565b99505062000dd060608d0162000bfe565b975062000de060808d0162000bfe565b965060a08c0151955062000df760c08d0162000bfe565b945062000e0760e08d0162000bfe565b93506101008c0151925062000e206101208d0162000bfe565b915062000e328d6101408e0162000cdc565b90509295989b509295989b9093969950565b634e487b7160e01b600052603260045260246000fd5b634e487b7160e01b600052601160045260246000fd5b60006001820162000e855762000e8562000e5a565b5060010190565b60006020828403121562000e9f57600080fd5b815160ff811681146200082357600080fd5b6000821982111562000ec75762000ec762000e5a565b500190565b60006020828403121562000edf57600080fd5b620008238262000bfe565b600181811c9082168062000eff57607f821691505b60208210810362000f2057634e487b7160e01b600052602260045260246000fd5b50919050565b60805160a05160c05160e0516101005161012051610140516148e262001029600039600081816107db0152613b150152600081816108e90152613b7c0152600081816104d90152613a340152600081816105ac01528181613a1301528181613aa10152613cae0152600081816105dc015281816111fe0152818161292301528181612e6601528181612f38015281816130550152818161378201528181613d4e01528181613e270152613ea301526000818161042b01528181613a6f01528181613be60152613c7c01526000818161068e015281816111c5015281816128ed01528181612f0c0152818161301b015281816137560152613df401526148e26000f3fe608060405234801561001057600080fd5b50600436106104215760003560e01c80638183723011610235578063b9e57b8011610135578063dd62ed3e116100c8578063eab89a5a11610097578063f2fde38b1161007c578063f2fde38b146109ab578063f7c618c1146109be578063fdb5a03e146109d157600080fd5b8063eab89a5a14610990578063ed24911d146109a357600080fd5b8063dd62ed3e1461091e578063dd8ce4d614610957578063e21ac8251461096a578063e75ab0451461097d57600080fd5b8063cff1b6ef11610104578063cff1b6ef146108be578063d505accf146108d1578063d55f9273146108e4578063da09c72c1461090b57600080fd5b8063b9e57b8014610892578063bd079f551461089a578063c4b24a46146108a3578063c89039c5146108ab57600080fd5b80639e4e7318116101c8578063a8ae2b7c11610197578063ac0d31ff1161017c578063ac0d31ff1461085f578063b52a321f14610872578063b6b55f251461087f57600080fd5b8063a8ae2b7c14610839578063a9059cbb1461084c57600080fd5b80639e4e7318146107af5780639f181b5e146107d6578063a4d5e67c146107fd578063a5534e711461081057600080fd5b80638da5cb5b116102045780638da5cb5b146107705780639291d5631461078157806395d89b411461079457806399729ec11461079c57600080fd5b8063818372301461072e5780638980f11f146107415780638aff733d146107545780638b73e6061461075d57600080fd5b80633bdc6e72116103405780635ea682ea116102d3578063789139bc116102a25780637ae26773116102875780637ae26773146106f35780637d882097146107065780637ecebe001461070e57600080fd5b8063789139bc146106e157806379085425146106ea57600080fd5b80635ea682ea146106805780635eaec0e41461068957806370a08231146106b0578063715018a6146106d957600080fd5b80634a970be71161030f5780634a970be7146106345780634bebd1e7146106475780634e77ace51461065a5780634ebb79161461066d57600080fd5b80633bdc6e72146105ce5780634005760a146105d757806340b47e1a146105fe578063483c2ef01461061157600080fd5b806320606b70116103b85780632f4f21e2116103875780632f4f21e21461055357806330adf81f14610566578063313ce5671461058d57806336e7e4cc146105a757600080fd5b806320606b701461050457806323b872dd1461052b578063247d284b146104c15780632e1a7d4d1461053e57600080fd5b80630f23475d116103f45780630f23475d146104b957806311056035146104c15780631480ce1f146104d457806318160ddd146104fb57600080fd5b806306f738d51461042657806306fdde031461046a578063076771111461047f578063095ea7b314610496575b600080fd5b61044d7f000000000000000000000000000000000000000000000000000000000000000081565b6040516001600160a01b0390911681526020015b60405180910390f35b6104726109d9565b6040516104619190614286565b610488600f5481565b604051908152602001610461565b6104a96104a43660046142ae565b610a67565b6040519015158152602001610461565b610488610a7d565b6104886104cf3660046142da565b610aa8565b61044d7f000000000000000000000000000000000000000000000000000000000000000081565b61048860025481565b6104887f8b73c3c69bb8fe3d512ecc4cf759cc79239f7b179b0ffacaa9a75d522b39400f81565b6104a96105393660046142f3565b610ab9565b61055161054c3660046142da565b610b9d565b005b6105516105613660046142ae565b610ca5565b6104887f6e71edae12b1b97f4d1f60370fef10105fa2faae0126114a169c64845d6126c981565b610595601281565b60405160ff9091168152602001610461565b61044d7f000000000000000000000000000000000000000000000000000000000000000081565b61048860075481565b61044d7f000000000000000000000000000000000000000000000000000000000000000081565b61055161060c366004614334565b610cb3565b6104a961061f36600461436d565b60086020526000908152604090205460ff1681565b6105516106423660046143a0565b610d17565b61055161065536600461436d565b610dc9565b6105516106683660046143f5565b610ee6565b61055161067b3660046142da565b610f8d565b61048860115481565b6104887f000000000000000000000000000000000000000000000000000000000000000081565b6104886106be36600461436d565b6001600160a01b031660009081526004602052604090205490565b610551611047565b610488600d5481565b61048860145481565b610551610701366004614334565b6110d9565b61048861119d565b61048861071c36600461436d565b60056020526000908152604090205481565b61055161073c3660046142da565b61126f565b61055161074f3660046142ae565b6112f8565b61048860105481565b61055161076b36600461436d565b61140e565b6006546001600160a01b031661044d565b61055161078f36600461436d565b6115c9565b61047261168c565b6105516107aa3660046142da565b611699565b6104887fc89efdaa54c0f20c7adf612882df0950f5a951637e0307cdcb4c672f298b8bc681565b6104887f000000000000000000000000000000000000000000000000000000000000000081565b61055161080b36600461436d565b611745565b61044d61081e36600461436d565b6012602052600090815260409020546001600160a01b031681565b6105516108473660046142da565b611984565b6104a961085a3660046142ae565b611a30565b61055161086d366004614412565b611a3d565b600e546104a99060ff1681565b61055161088d3660046142da565b611c73565b610488611c80565b610488600c5481565b610488611cc5565b60095461044d906001600160a01b031681565b6105516108cc3660046142da565b611f2c565b6105516108df366004614437565b611fc0565b6104887f000000000000000000000000000000000000000000000000000000000000000081565b600b5461044d906001600160a01b031681565b61048861092c366004614334565b6001600160a01b03918216600090815260036020908152604080832093909416825291909152205490565b6104886109653660046142da565b6120d3565b6105516109783660046142da565b61210d565b61044d61098b3660046142da565b612196565b61048861099e3660046142da565b6121c0565b6104886121f4565b6105516109b936600461436d565b612294565b600a5461044d906001600160a01b031681565b6105516123b4565b600080546109e6906144a5565b80601f0160208091040260200160405190810160405280929190818152602001828054610a12906144a5565b8015610a5f5780601f10610a3457610100808354040283529160200191610a5f565b820191906000526020600020905b815481529060010190602001808311610a4257829003601f168201915b505050505081565b6000610a74338484612630565b50600192915050565b600080610a8861119d565b90506000610a958261273e565b9050610aa18282612751565b9250505090565b6000610ab38261273e565b92915050565b6001600160a01b038316600081815260036020908152604080832033808552925282205491929091908214801590610af357506000198114155b15610b84576000610b1f856040518060600160405280602f8152602001614829602f913984919061275d565b6001600160a01b038881166000818152600360209081526040808320948916808452948252918290208590559051848152939450919290917f8c5be1e5ebec7d5bd14f71427d1e84f3dd0314c0f7b2291e5b200ac8c7c3b925910160405180910390a3505b610b8f868686612789565b6001925050505b9392505050565b6000610ba8826121c0565b905060008111610c255760405162461bcd60e51b815260206004820152603060248201527f5661726961626c655265776172647353747261746567793a3a5769746864726160448201527f7720616d6f756e7420746f6f206c6f770000000000000000000000000000000060648201526084015b60405180910390fd5b6000610c30826128c5565b90506000610c3d8361273e565b9050610c6033610c4d8484612751565b6009546001600160a01b0316919061298d565b610c6a33856129f9565b60405183815233907f884edad9ce6fa2440d8a54cc123490eb96d2768479d49ff9c7366125a94243649060200160405180910390a250505050565b610caf8282612acf565b5050565b600b546001600160a01b03163314610d0d5760405162461bcd60e51b815260206004820152601460248201527f59616b53747261746567793a3a6f6e6c794465760000000000000000000000006044820152606401610c1c565b610caf8282612cf0565b6009546040517fd505accf000000000000000000000000000000000000000000000000000000008152336004820152306024820152604481018790526064810186905260ff8516608482015260a4810184905260c481018390526001600160a01b039091169063d505accf9060e401600060405180830381600087803b158015610da057600080fd5b505af1158015610db4573d6000803e3d6000fd5b50505050610dc23386612acf565b5050505050565b6006546001600160a01b03163314610e115760405162461bcd60e51b815260206004820181905260248201526000805160206148098339815191526044820152606401610c1c565b6001600160a01b03811660009081526008602052604090205460ff1615610e7a5760405162461bcd60e51b815260206004820152601c60248201527f5065726d697373696f6e65643a3a616c6c6f774465706f7369746f72000000006044820152606401610c1c565b6001600160a01b0381166000908152600860205260409020805460ff19166001908117909155600754610eac9161240f565b6007556040516001600160a01b038216907fc0a1035c16faf8d1304056d92c00edf028f87e62b8235a938f00af9e3c0312c590600090a250565b6006546001600160a01b03163314610f2e5760405162461bcd60e51b815260206004820181905260248201526000805160206148098339815191526044820152606401610c1c565b600e5481151560ff909116151503610f4557600080fd5b600e805460ff19168215159081179091556040519081527f7b014ed3854e7f5cb0218d58b3c6ae7d53a68bb0af2f67bfb029ea42c38a7e85906020015b60405180910390a150565b6006546001600160a01b03163314610fd55760405162461bcd60e51b815260206004820181905260248201526000805160206148098339815191526044820152606401610c1c565b60008111610fe257600080fd5b604051339082156108fc029083906000818181858888f1935050505015801561100f573d6000803e3d6000fd5b506040805160008152602081018390527f8c1256b8896378cd5044f80c202f9772b9d77dc85c8a6eb51967210b09bfaa289101610f82565b6006546001600160a01b0316331461108f5760405162461bcd60e51b815260206004820181905260248201526000805160206148098339815191526044820152606401610c1c565b6006546040516000916001600160a01b0316907f8be0079c531659141344cd1fd0a4f28419497f9722a3daafe3b4186f6b6457e0908390a3600680546001600160a01b0319169055565b6006546001600160a01b031633146111215760405162461bcd60e51b815260206004820181905260248201526000805160206148098339815191526044820152606401610c1c565b60405163095ea7b360e01b81526001600160a01b0382811660048301526000602483015283169063095ea7b3906044016020604051808303816000875af1158015611170573d6000803e3d6000fd5b505050506040513d601f19601f8201168201806040525081019061119491906144df565b610caf57600080fd5b6040517f93f1a40b0000000000000000000000000000000000000000000000000000000081527f0000000000000000000000000000000000000000000000000000000000000000600482015230602482015260009081906001600160a01b037f000000000000000000000000000000000000000000000000000000000000000016906393f1a40b906044016040805180830381865afa158015611244573d6000803e3d6000fd5b505050506040513d601f19601f8201168201806040525081019061126891906144fc565b5092915050565b6006546001600160a01b031633146112b75760405162461bcd60e51b815260206004820181905260248201526000805160206148098339815191526044820152606401610c1c565b600c5460408051918252602082018390527f481f79ac3a523b6d6db3c5a720e190e986d1cc1b41adcdf50f9caef849901100910160405180910390a1600c55565b6006546001600160a01b031633146113405760405162461bcd60e51b815260206004820181905260248201526000805160206148098339815191526044820152606401610c1c565b6000811161134d57600080fd5b60405163a9059cbb60e01b8152336004820152602481018290526001600160a01b0383169063a9059cbb906044016020604051808303816000875af115801561139a573d6000803e3d6000fd5b505050506040513d601f19601f820116820180604052508101906113be91906144df565b6113c757600080fd5b604080516001600160a01b0384168152602081018390527f8c1256b8896378cd5044f80c202f9772b9d77dc85c8a6eb51967210b09bfaa2891015b60405180910390a15050565b6006546001600160a01b031633146114565760405162461bcd60e51b815260206004820181905260248201526000805160206148098339815191526044820152606401610c1c565b6000600754116114ce5760405162461bcd60e51b815260206004820152603460248201527f5065726d697373696f6e65643a3a72656d6f76654465706f7369746f722c206e60448201527f6f20616c6c6f776564206465706f7369746f72730000000000000000000000006064820152608401610c1c565b6001600160a01b03811660009081526008602052604090205460ff1615156001146115615760405162461bcd60e51b815260206004820152602a60248201527f5065726d697373696f6e65643a3a72656d6f76654465706f7369746f722c206e60448201527f6f7420616c6c6f776564000000000000000000000000000000000000000000006064820152608401610c1c565b6001600160a01b0381166000908152600860205260409020805460ff1916905560075461158f906001612751565b6007556040516001600160a01b038216907f0e86f6608b536e5339a25b65ff531f5ea91e1313d056ecd4752b35cbd16137d490600090a250565b600b546001600160a01b031633146116235760405162461bcd60e51b815260206004820152601460248201527f59616b53747261746567793a3a6f6e6c794465760000000000000000000000006044820152606401610c1c565b600b54604080516001600160a01b03928316815291831660208301527fa8e91499ed37682f43cffb045fcc7d379a91e8c9a14e6321877ee34dee564c00910160405180910390a1600b80546001600160a01b0319166001600160a01b0392909216919091179055565b600180546109e6906144a5565b6006546001600160a01b031633146116e15760405162461bcd60e51b815260206004820181905260248201526000805160206148098339815191526044820152606401610c1c565b6127106116f96010548361240f90919063ffffffff16565b111561170457600080fd5b60115460408051918252602082018390527f2a42303d002f0ba6cfe8259c91d4684443fb0b3de286ba74991175d651726131910160405180910390a1601155565b600b546001600160a01b0316331461179f5760405162461bcd60e51b815260206004820152601460248201527f59616b53747261746567793a3a6f6e6c794465760000000000000000000000006044820152606401610c1c565b6001600160a01b038116600090815260126020526040812080546001600160a01b0319169055805b60135481101561189357601381815481106117e4576117e4614520565b6000918252602090912001546001600160a01b039081169084160361188157601380546001935061181690849061454c565b8154811061182657611826614520565b600091825260209091200154601380546001600160a01b03909216918390811061185257611852614520565b9060005260206000200160006101000a8154816001600160a01b0302191690836001600160a01b031602179055505b8061188b81614563565b9150506117c7565b50806119075760405162461bcd60e51b815260206004820152603460248201527f5661726961626c655265776172647353747261746567793a3a5265776172642060448201527f746f2064656c657465206e6f7420666f756e64210000000000000000000000006064820152608401610c1c565b60138054806119185761191861457c565b600082815260209020810160001990810180546001600160a01b0319169055019055601454611948906001612751565b6014556040516001600160a01b03831681527f963b7c735475147a62c589c2d7cb8ec4b0a6b7af4f97373d79ebfa42ab8aa7dc90602001611402565b6006546001600160a01b031633146119cc5760405162461bcd60e51b815260206004820181905260248201526000805160206148098339815191526044820152606401610c1c565b6127106119e46011548361240f90919063ffffffff16565b11156119ef57600080fd5b60105460408051918252602082018390527fe7f97d51d307dc44045597c9978bec0f842e6bb40d19b9444084cfa30d9ed4f2910160405180910390a1601055565b6000610a74338484612789565b6006546001600160a01b03163314611a855760405162461bcd60e51b815260206004820181905260248201526000805160206148098339815191526044820152606401610c1c565b6009546040516370a0823160e01b81523060048201526000916001600160a01b0316906370a0823190602401602060405180830381865afa158015611ace573d6000803e3d6000fd5b505050506040513d601f19601f82011682018060405250810190611af29190614592565b9050611afc612e4c565b6009546040516370a0823160e01b81523060048201526000916001600160a01b0316906370a0823190602401602060405180830381865afa158015611b45573d6000803e3d6000fd5b505050506040513d601f19601f82011682018060405250810190611b699190614592565b905083611b768284612751565b1015611c105760405162461bcd60e51b815260206004820152604d60248201527f5661726961626c655265776172647353747261746567793a3a456d657267656e60448201527f6379207769746864726177206d696e696d756d2072657475726e20616d6f756e60648201527f74206e6f74207265616368656400000000000000000000000000000000000000608482015260a401610c1c565b7fc7606d21ac05cd309191543e409f0845c016120563783d70e4f41419dc0ef234611c3961119d565b6002546040805192835260208301919091520160405180910390a1600e5460ff161515600103611c6d57611c6d6000610ee6565b50505050565b611c7d3382612acf565b50565b600080611c8b611cc5565b9050600c548110611cbd57611cb7612710611cb160105484612f9990919063ffffffff16565b90612fa5565b91505090565b600091505090565b600080611cd0612fb1565b6040516370a0823160e01b815230600482015290915060009073b31f66aa3c1e785363f0875a1b74e27b85fd66c7906370a0823190602401602060405180830381865afa158015611d25573d6000803e3d6000fd5b505050506040513d601f19601f82011682018060405250810190611d499190614592565b9050611d55814761240f565b5060005b8251811015611268576000838281518110611d7657611d76614520565b602002602001015160000151905073b31f66aa3c1e785363f0875a1b74e27b85fd66c76001600160a01b0316816001600160a01b031603611de857611de1848381518110611dc657611dc6614520565b6020026020010151602001518461240f90919063ffffffff16565b9250611f19565b6040516370a0823160e01b81523060048201526000906001600160a01b038316906370a0823190602401602060405180830381865afa158015611e2f573d6000803e3d6000fd5b505050506040513d601f19601f82011682018060405250810190611e539190614592565b90506000611e87868581518110611e6c57611e6c614520565b6020026020010151602001518361240f90919063ffffffff16565b9050600060126000888781518110611ea157611ea1614520565b602090810291909101810151516001600160a01b03908116835290820192909252604001600020541690508115801590611ee357506001600160a01b03811615155b15611f1557611f12611f0b838673b31f66aa3c1e785363f0875a1b74e27b85fd66c785613118565b879061240f565b95505b5050505b5080611f2481614563565b915050611d59565b6006546001600160a01b03163314611f745760405162461bcd60e51b815260206004820181905260248201526000805160206148098339815191526044820152606401610c1c565b8015611f7f57600080fd5b600f5460408051918252602082018390527f3cc372f330f95ac9540626dc8a25f5bf21ba607215a5d58304cb804d446f104a910160405180910390a1600f55565b428410156120105760405162461bcd60e51b815260206004820152600f60248201527f7065726d69743a3a6578706972656400000000000000000000000000000000006044820152606401610c1c565b6001600160a01b038716600090815260056020526040812080547f6e71edae12b1b97f4d1f60370fef10105fa2faae0126114a169c64845d6126c9918a918a918a91908661205d83614563565b909155506040805160208101969096526001600160a01b0394851690860152929091166060840152608083015260a082015260c0810186905260e0016040516020818303038152906040528051906020012090506120be88828686866131e4565b6120c9888888612630565b5050505050505050565b60006120e96120e061119d565b60025490612f99565b6000036120f4575090565b610ab36120ff61119d565b600254611cb1908590612f99565b6006546001600160a01b031633146121555760405162461bcd60e51b815260206004820181905260248201526000805160206148098339815191526044820152606401610c1c565b600d5460408051918252602082018390527fa5dae50539d56dfe1fb5273d883b0c39bc76750a25d036fc5fbd09ad8fd5f57f910160405180910390a1600d55565b601381815481106121a657600080fd5b6000918252602090912001546001600160a01b0316905081565b60006121cd6120e061119d565b6000036121dc57506000919050565b610ab3600254611cb16121ed61119d565b8590612f99565b60007f8b73c3c69bb8fe3d512ecc4cf759cc79239f7b179b0ffacaa9a75d522b39400f60001b600060405161222991906145ab565b6040519081900390207fc89efdaa54c0f20c7adf612882df0950f5a951637e0307cdcb4c672f298b8bc646604080516020810195909552840192909252606083015260808201523060a082015260c00160405160208183030381529060405280519060200120905090565b6006546001600160a01b031633146122dc5760405162461bcd60e51b815260206004820181905260248201526000805160206148098339815191526044820152606401610c1c565b6001600160a01b0381166123585760405162461bcd60e51b815260206004820152602660248201527f4f776e61626c653a206e6577206f776e657220697320746865207a65726f206160448201527f64647265737300000000000000000000000000000000000000000000000000006064820152608401610c1c565b6006546040516001600160a01b038084169216907f8be0079c531659141344cd1fd0a4f28419497f9722a3daafe3b4186f6b6457e090600090a3600680546001600160a01b0319166001600160a01b0392909216919091179055565b3233146124035760405162461bcd60e51b815260206004820152601460248201527f59616b53747261746567793a3a6f6e6c79454f410000000000000000000000006044820152606401610c1c565b61240d6000613344565b565b6000610b968284614646565b6000836001600160a01b0316630dfe16816040518163ffffffff1660e01b8152600401602060405180830381865afa15801561245b573d6000803e3d6000fd5b505050506040513d601f19601f8201168201806040525081019061247f919061465e565b6001600160a01b0316836001600160a01b031614806125105750836001600160a01b031663d21220a76040518163ffffffff1660e01b8152600401602060405180830381865afa1580156124d7573d6000803e3d6000fd5b505050506040513d601f19601f820116820180604052508101906124fb919061465e565b6001600160a01b0316836001600160a01b0316145b801561260a5750836001600160a01b0316630dfe16816040518163ffffffff1660e01b8152600401602060405180830381865afa158015612555573d6000803e3d6000fd5b505050506040513d601f19601f82011682018060405250810190612579919061465e565b6001600160a01b0316826001600160a01b0316148061260a5750836001600160a01b031663d21220a76040518163ffffffff1660e01b8152600401602060405180830381865afa1580156125d1573d6000803e3d6000fd5b505050506040513d601f19601f820116820180604052508101906125f5919061465e565b6001600160a01b0316826001600160a01b0316145b80156126285750816001600160a01b0316836001600160a01b031614155b949350505050565b6001600160a01b0383166126865760405162461bcd60e51b815260206004820152601c60248201527f5f617070726f76653a3a6f776e6572207a65726f2061646472657373000000006044820152606401610c1c565b6001600160a01b0382166126dc5760405162461bcd60e51b815260206004820152601e60248201527f5f617070726f76653a3a7370656e646572207a65726f206164647265737300006044820152606401610c1c565b6001600160a01b0383811660008181526003602090815260408083209487168084529482529182902085905590518481527f8c5be1e5ebec7d5bd14f71427d1e84f3dd0314c0f7b2291e5b200ac8c7c3b92591015b60405180910390a3505050565b600080610b96612710611cb18584612f99565b6000610b96828461454c565b600081848411156127815760405162461bcd60e51b8152600401610c1c9190614286565b505050900390565b6001600160a01b0382166128055760405162461bcd60e51b815260206004820152603460248201527f5f7472616e73666572546f6b656e733a2063616e6e6f74207472616e7366657260448201527f20746f20746865207a65726f20616464726573730000000000000000000000006064820152608401610c1c565b612842816040518060600160405280602e815260200161487f602e91396001600160a01b038616600090815260046020526040902054919061275d565b6001600160a01b038085166000908152600460205260408082209390935590841681522054612871908261240f565b6001600160a01b0380841660008181526004602052604090819020939093559151908516907fddf252ad1be2c89b69c2b068fc378daa952ba7f163c4a11628f55a4df523b3ef906127319085815260200190565b6040517f0ad58d2f0000000000000000000000000000000000000000000000000000000081527f00000000000000000000000000000000000000000000000000000000000000006004820152602481018290523060448201526000907f00000000000000000000000000000000000000000000000000000000000000006001600160a01b031690630ad58d2f90606401600060405180830381600087803b15801561296f57600080fd5b505af1158015612983573d6000803e3d6000fd5b5093949350505050565b604080516001600160a01b038416602482015260448082018490528251808303909101815260649091019091526020810180517bffffffffffffffffffffffffffffffffffffffffffffffffffffffff1663a9059cbb60e01b1790526129f49084906134c7565b505050565b612a3681604051806060016040528060278152602001614858602791396001600160a01b038516600090815260046020526040902054919061275d565b60046000846001600160a01b03166001600160a01b0316815260200190815260200160002081905550612a86816040518060600160405280602781526020016147e260279139600254919061275d565b6002556040518181526000906001600160a01b038416907fddf252ad1be2c89b69c2b068fc378daa952ba7f163c4a11628f55a4df523b3ef906020015b60405180910390a35050565b600e5460ff161515600114612b4c5760405162461bcd60e51b815260206004820152602a60248201527f5661726961626c655265776172647353747261746567793a3a4465706f73697460448201527f732064697361626c6564000000000000000000000000000000000000000000006064820152608401610c1c565b600d5415612b76576000612b5e611cc5565b9050600d54811115612b7457612b746001613344565b505b6009546040517f23b872dd000000000000000000000000000000000000000000000000000000008152336004820152306024820152604481018390526001600160a01b03909116906323b872dd906064016020604051808303816000875af1158015612be6573d6000803e3d6000fd5b505050506040513d601f19601f82011682018060405250810190612c0a91906144df565b612c7c5760405162461bcd60e51b815260206004820152603660248201527f5661726961626c655265776172647353747261746567793a3a4465706f73697460448201527f20746f6b656e207472616e73666572206661696c6564000000000000000000006064820152608401610c1c565b6000612c878261273e565b9050612c9f83612c9a6109658585612751565b6135ac565b612ca882613630565b826001600160a01b03167fe1fffcc4923d04b559f4d29a8bfc6cda04eb5b0d3c460751c2402c5c5cc9109c83604051612ce391815260200190565b60405180910390a2505050565b600a546001600160a01b03838116911614612d9257600a54612d1e90829084906001600160a01b031661241b565b612d92576040805162461bcd60e51b81526020600482015260248101919091527f5661726961626c655265776172647353747261746567793a3a5377617020706160448201527f697220646f6573206e6f7420636f6e7461696e2072657761726420746f6b656e6064820152608401610c1c565b6001600160a01b03808316600081815260126020526040812080549385166001600160a01b03199485161790556013805460018181018355919092527f66de8ffda797e3de9c05e8fc57b3bf0ec28a930d40b0d285d93c06501cf6a0909091018054909316909117909155601454612e099161240f565b601455604080516001600160a01b038085168252831660208201527f916e172c080569186aa7ea048268267257cf7cc49505908863f747bca8620f809101611402565b60095460405163095ea7b360e01b81526001600160a01b037f000000000000000000000000000000000000000000000000000000000000000081166004830152600060248301529091169063095ea7b3906044016020604051808303816000875af1158015612ebf573d6000803e3d6000fd5b505050506040513d601f19601f82011682018060405250810190612ee391906144df565b506040517f2f940c700000000000000000000000000000000000000000000000000000000081527f000000000000000000000000000000000000000000000000000000000000000060048201523060248201527f00000000000000000000000000000000000000000000000000000000000000006001600160a01b031690632f940c70906044015b600060405180830381600087803b158015612f8557600080fd5b505af1158015611c6d573d6000803e3d6000fd5b6000610b96828461467b565b6000610b96828461469a565b60408051600180825281830190925260609160009190816020015b6040805180820190915260008082526020820152815260200190600190039081612fcc579050506040517f1491f6fe0000000000000000000000000000000000000000000000000000000081527f000000000000000000000000000000000000000000000000000000000000000060048201523060248201529091506000906001600160a01b037f00000000000000000000000000000000000000000000000000000000000000001690631491f6fe90604401602060405180830381865afa15801561309c573d6000803e3d6000fd5b505050506040513d601f19601f820116820180604052508101906130c09190614592565b90506040518060400160405280731f1e7c893855525b303f99bdf5c3c05be09ca2516001600160a01b03168152602001828152508260008151811061310757613107614520565b602090810291909101015250919050565b60008061312585856136af565b509050600080846001600160a01b0316630902f1ac6040518163ffffffff1660e01b8152600401606060405180830381865afa158015613169573d6000803e3d6000fd5b505050506040513d601f19601f8201168201806040525081019061318d91906146f0565b5091509150866001600160a01b0316836001600160a01b0316146131ad57905b6131d888836dffffffffffffffffffffffffffff16836dffffffffffffffffffffffffffff166136e0565b98975050505050505050565b60006131ee6121f4565b6040517f1901000000000000000000000000000000000000000000000000000000000000602082015260228101919091526042810186905260620160408051601f198184030181528282528051602091820120600080855291840180845281905260ff88169284019290925260608301869052608083018590529092509060019060a0016020604051602081039080840390855afa158015613294573d6000803e3d6000fd5b5050604051601f1901519150506001600160a01b038116158015906132ca5750866001600160a01b0316816001600160a01b0316145b61333b5760405162461bcd60e51b8152602060048201526024808201527f417263683a3a76616c69646174655369673a20696e76616c6964207369676e6160448201527f74757265000000000000000000000000000000000000000000000000000000006064820152608401610c1c565b50505050505050565b61334c61372e565b60006133566137b9565b9050816133d557600c548110156133d55760405162461bcd60e51b815260206004820152603060248201527f5661726961626c655265776172647353747261746567793a3a5265696e76657360448201527f7420616d6f756e7420746f6f206c6f77000000000000000000000000000000006064820152608401610c1c565b60006133f2612710611cb160115485612f9990919063ffffffff16565b9050801561341757600b54600a54613417916001600160a01b0391821691168361298d565b6000613434612710611cb160105486612f9990919063ffffffff16565b9050801561345357600a54613453906001600160a01b0316338361298d565b600061347161346c836134668787612751565b90612751565b6139f5565b905061347c81613630565b7fc7606d21ac05cd309191543e409f0845c016120563783d70e4f41419dc0ef2346134a561119d565b6002546040805192835260208301919091520160405180910390a15050505050565b600061351c826040518060400160405280602081526020017f5361666545524332303a206c6f772d6c6576656c2063616c6c206661696c6564815250856001600160a01b0316613d259092919063ffffffff16565b8051909150156129f4578080602001905181019061353a91906144df565b6129f45760405162461bcd60e51b815260206004820152602a60248201527f5361666545524332303a204552433230206f7065726174696f6e20646964206e60448201527f6f742073756363656564000000000000000000000000000000000000000000006064820152608401610c1c565b6002546135b9908261240f565b6002556001600160a01b0382166000908152600460205260409020546135df908261240f565b6001600160a01b0383166000818152600460205260408082209390935591519091907fddf252ad1be2c89b69c2b068fc378daa952ba7f163c4a11628f55a4df523b3ef90612ac39085815260200190565b600081116136a65760405162461bcd60e51b815260206004820152602d60248201527f5661726961626c655265776172647353747261746567793a3a5374616b65206160448201527f6d6f756e7420746f6f206c6f77000000000000000000000000000000000000006064820152608401610c1c565b611c7d81613d34565b600080826001600160a01b0316846001600160a01b0316106136d25782846136d5565b83835b915091509250929050565b6000806136ef856103e5612f99565b905060006136fd8285612f99565b9050600061371783613711886103e8612f99565b9061240f565b90506137238282612fa5565b979650505050505050565b6040517f18fccc760000000000000000000000000000000000000000000000000000000081527f000000000000000000000000000000000000000000000000000000000000000060048201523060248201527f00000000000000000000000000000000000000000000000000000000000000006001600160a01b0316906318fccc7690604401612f6b565b6040516370a0823160e01b8152306004820152600090819073b31f66aa3c1e785363f0875a1b74e27b85fd66c7906370a0823190602401602060405180830381865afa15801561380d573d6000803e3d6000fd5b505050506040513d601f19601f820116820180604052508101906138319190614592565b60135490915060005b818110156139ed5760006013828154811061385757613857614520565b6000918252602090912001546001600160a01b031690507fffffffffffffffffffffffff4ce09955c3e187ac9c0f78a5e48b1d847a02993981016139215747801561391a5773b31f66aa3c1e785363f0875a1b74e27b85fd66c76001600160a01b031663d0e30db0826040518263ffffffff1660e01b81526004016000604051808303818588803b1580156138eb57600080fd5b505af11580156138ff573d6000803e3d6000fd5b5050505050613917818661240f90919063ffffffff16565b94505b50506139db565b6040516370a0823160e01b81523060048201526000906001600160a01b038316906370a0823190602401602060405180830381865afa158015613968573d6000803e3d6000fd5b505050506040513d601f19601f8201168201806040525081019061398c9190614592565b905080156139d8576001600160a01b038083166000908152601260205260409020541680156139d657600a546139d390611f0b90849086906001600160a01b031685613f22565b95505b505b50505b806139e581614563565b91505061383a565b509092915050565b600080613a588373b31f66aa3c1e785363f0875a1b74e27b85fd66c77f00000000000000000000000000000000000000000000000000000000000000007f0000000000000000000000000000000000000000000000000000000000000000613f22565b60405163095ea7b360e01b81526001600160a01b037f000000000000000000000000000000000000000000000000000000000000000081166004830152602482018390529192507f00000000000000000000000000000000000000000000000000000000000000009091169063095ea7b3906044016020604051808303816000875af1158015613aec573d6000803e3d6000fd5b505050506040513d601f19601f82011682018060405250810190613b1091906144df565b5060007f000000000000000000000000000000000000000000000000000000000000000067ffffffffffffffff811115613b4c57613b4c6146bc565b604051908082528060200260200182016040528015613b75578160200160208202803683370190505b50905081817f000000000000000000000000000000000000000000000000000000000000000081518110613bab57613bab614520565b60209081029190910101526040517f4d49e87d0000000000000000000000000000000000000000000000000000000081526001600160a01b037f00000000000000000000000000000000000000000000000000000000000000001690634d49e87d90613c2290849060009060001990600401614740565b6020604051808303816000875af1158015613c41573d6000803e3d6000fd5b505050506040513d601f19601f82011682018060405250810190613c659190614592565b60405163095ea7b360e01b81526001600160a01b037f000000000000000000000000000000000000000000000000000000000000000081166004830152600060248301529194507f00000000000000000000000000000000000000000000000000000000000000009091169063095ea7b3906044016020604051808303816000875af1158015613cf9573d6000803e3d6000fd5b505050506040513d601f19601f82011682018060405250810190613d1d91906144df565b505050919050565b606061262884846000856140bd565b60095460405163095ea7b360e01b81526001600160a01b037f000000000000000000000000000000000000000000000000000000000000000081166004830152602482018490529091169063095ea7b3906044016020604051808303816000875af1158015613da7573d6000803e3d6000fd5b505050506040513d601f19601f82011682018060405250810190613dcb91906144df565b506040517f8dbdbe6d0000000000000000000000000000000000000000000000000000000081527f00000000000000000000000000000000000000000000000000000000000000006004820152602481018290523060448201527f00000000000000000000000000000000000000000000000000000000000000006001600160a01b031690638dbdbe6d90606401600060405180830381600087803b158015613e7357600080fd5b505af1158015613e87573d6000803e3d6000fd5b505060095460405163095ea7b360e01b81526001600160a01b037f00000000000000000000000000000000000000000000000000000000000000008116600483015260006024830152909116925063095ea7b391506044016020604051808303816000875af1158015613efe573d6000803e3d6000fd5b505050506040513d601f19601f82011682018060405250810190610caf91906144df565b600080613f2f85856136af565b509050600080846001600160a01b0316630902f1ac6040518163ffffffff1660e01b8152600401606060405180830381865afa158015613f73573d6000803e3d6000fd5b505050506040513d601f19601f82011682018060405250810190613f9791906146f0565b5091509150866001600160a01b0316836001600160a01b031614613fb757905b600080613fe58a856dffffffffffffffffffffffffffff16856dffffffffffffffffffffffffffff166136e0565b9050886001600160a01b0316856001600160a01b03161461400257905b6140166001600160a01b038a16888c61298d565b604080516000815260208101918290527f022c0d9f000000000000000000000000000000000000000000000000000000009091526001600160a01b0388169063022c0d9f9061406e908590859030906024810161478d565b600060405180830381600087803b15801561408857600080fd5b505af115801561409c573d6000803e3d6000fd5b505050508181116140ad57816140af565b805b9a9950505050505050505050565b6060824710156141355760405162461bcd60e51b815260206004820152602660248201527f416464726573733a20696e73756666696369656e742062616c616e636520666f60448201527f722063616c6c00000000000000000000000000000000000000000000000000006064820152608401610c1c565b6001600160a01b0385163b61418c5760405162461bcd60e51b815260206004820152601d60248201527f416464726573733a2063616c6c20746f206e6f6e2d636f6e74726163740000006044820152606401610c1c565b600080866001600160a01b031685876040516141a891906147c5565b60006040518083038185875af1925050503d80600081146141e5576040519150601f19603f3d011682016040523d82523d6000602084013e6141ea565b606091505b509150915061372382828660608315614204575081610b96565b8251156142145782518084602001fd5b8160405162461bcd60e51b8152600401610c1c9190614286565b60005b83811015614249578181015183820152602001614231565b83811115611c6d5750506000910152565b6000815180845261427281602086016020860161422e565b601f01601f19169290920160200192915050565b602081526000610b96602083018461425a565b6001600160a01b0381168114611c7d57600080fd5b600080604083850312156142c157600080fd5b82356142cc81614299565b946020939093013593505050565b6000602082840312156142ec57600080fd5b5035919050565b60008060006060848603121561430857600080fd5b833561431381614299565b9250602084013561432381614299565b929592945050506040919091013590565b6000806040838503121561434757600080fd5b823561435281614299565b9150602083013561436281614299565b809150509250929050565b60006020828403121561437f57600080fd5b8135610b9681614299565b803560ff8116811461439b57600080fd5b919050565b600080600080600060a086880312156143b857600080fd5b85359450602086013593506143cf6040870161438a565b94979396509394606081013594506080013592915050565b8015158114611c7d57600080fd5b60006020828403121561440757600080fd5b8135610b96816143e7565b6000806040838503121561442557600080fd5b823591506020830135614362816143e7565b600080600080600080600060e0888a03121561445257600080fd5b873561445d81614299565b9650602088013561446d81614299565b955060408801359450606088013593506144896080890161438a565b925060a0880135915060c0880135905092959891949750929550565b600181811c908216806144b957607f821691505b6020821081036144d957634e487b7160e01b600052602260045260246000fd5b50919050565b6000602082840312156144f157600080fd5b8151610b96816143e7565b6000806040838503121561450f57600080fd5b505080516020909101519092909150565b634e487b7160e01b600052603260045260246000fd5b634e487b7160e01b600052601160045260246000fd5b60008282101561455e5761455e614536565b500390565b60006001820161457557614575614536565b5060010190565b634e487b7160e01b600052603160045260246000fd5b6000602082840312156145a457600080fd5b5051919050565b600080835481600182811c9150808316806145c757607f831692505b602080841082036145e657634e487b7160e01b86526022600452602486fd5b8180156145fa576001811461460b57614638565b60ff19861689528489019650614638565b60008a81526020902060005b868110156146305781548b820152908501908301614617565b505084890196505b509498975050505050505050565b6000821982111561465957614659614536565b500190565b60006020828403121561467057600080fd5b8151610b9681614299565b600081600019048311821515161561469557614695614536565b500290565b6000826146b757634e487b7160e01b600052601260045260246000fd5b500490565b634e487b7160e01b600052604160045260246000fd5b80516dffffffffffffffffffffffffffff8116811461439b57600080fd5b60008060006060848603121561470557600080fd5b61470e846146d2565b925061471c602085016146d2565b9150604084015163ffffffff8116811461473557600080fd5b809150509250925092565b606080825284519082018190526000906020906080840190828801845b828110156147795781518452928401929084019060010161475d565b505050908301949094525060400152919050565b8481528360208201526001600160a01b03831660408201526080606082015260006147bb608083018461425a565b9695505050505050565b600082516147d781846020870161422e565b919091019291505056fe5f6275726e3a206275726e20616d6f756e74206578636565647320746f74616c20737570706c794f776e61626c653a2063616c6c6572206973206e6f7420746865206f776e65727472616e7366657246726f6d3a207472616e7366657220616d6f756e74206578636565647320616c6c6f77616e63655f6275726e3a206275726e20616d6f756e7420657863656564732066726f6d2062616c616e63655f7472616e73666572546f6b656e733a207472616e7366657220657863656564732066726f6d2062616c616e6365a26469706673582212201aa025b432642f540e87d5776d2be1805025bc9081d4c002b12077c47c0d116864736f6c634300080d00334f776e61626c653a2063616c6c6572206973206e6f7420746865206f776e65728be0079c531659141344cd1fd0a4f28419497f9722a3daafe3b4186f6b6457e0",
  "devdoc": {
    "kind": "dev",
    "methods": {
      "allowDepositor(address)": {
        "params": {
          "depositor": "address"
        }
      },
      "allowance(address,address)": {
        "params": {
          "account": "The address of the account holding the funds",
          "spender": "The address of the account spending the funds"
        },
        "returns": {
          "_0": "The number of tokens approved"
        }
      },
      "approve(address,uint256)": {
        "details": "This will overwrite the approval amount for `spender` and is subject to issues noted [here](https://eips.ethereum.org/EIPS/eip-20#approve) It is recommended to use increaseAllowance and decreaseAllowance instead",
        "params": {
          "amount": "The number of tokens that are approved (2^256-1 means infinite)",
          "spender": "The address of the account which may transfer tokens"
        },
        "returns": {
          "_0": "Whether or not the approval succeeded"
        }
      },
      "balanceOf(address)": {
        "params": {
          "account": "The address of the account to get the balance of"
        },
        "returns": {
          "_0": "The number of tokens held"
        }
      },
      "checkReward()": {
        "returns": {
          "_0": "reward tokens"
        }
      },
      "deposit(uint256)": {
        "params": {
          "_amount": "Amount of tokens to deposit"
        }
      },
      "depositWithPermit(uint256,uint256,uint8,bytes32,bytes32)": {
        "params": {
          "_amount": "Amount of tokens to deposit",
          "_deadline": "The time at which to expire the signature",
          "_r": "Half of the ECDSA signature pair",
          "_s": "Half of the ECDSA signature pair",
          "_v": "The recovery byte of the signature"
        }
      },
      "estimateDeployedBalance()": {
        "returns": {
          "_0": "deposit tokens after withdraw fee"
        }
      },
      "estimateReinvestReward()": {
        "returns": {
          "_0": "reward tokens"
        }
      },
      "getDepositTokensForShares(uint256)": {
        "params": {
          "amount": "receipt tokens"
        },
        "returns": {
          "_0": "deposit tokens"
        }
      },
      "getDomainSeparator()": {
        "returns": {
          "_0": "Separator"
        }
      },
      "getSharesForDepositTokens(uint256)": {
        "details": "If contract is empty, use 1:1 ratioCould return zero shares for very low amounts of deposit tokens",
        "params": {
          "amount": "deposit tokens"
        },
        "returns": {
          "_0": "receipt tokens"
        }
      },
      "owner()": {
        "details": "Returns the address of the current owner."
      },
      "permit(address,address,uint256,uint256,uint8,bytes32,bytes32)": {
        "params": {
          "deadline": "The time at which to expire the signature",
          "owner": "The address to approve from",
          "r": "Half of the ECDSA signature pair",
          "s": "Half of the ECDSA signature pair",
          "spender": "The address to be approved",
          "v": "The recovery byte of the signature",
          "value": "The number of tokens that are approved (2^256-1 means infinite)"
        }
      },
      "recoverAVAX(uint256)": {
        "params": {
          "amount": "amount"
        }
      },
      "recoverERC20(address,uint256)": {
        "params": {
          "tokenAddress": "token address",
          "tokenAmount": "amount to recover"
        }
      },
      "removeDepositor(address)": {
        "params": {
          "depositor": "address"
        }
      },
      "renounceOwnership()": {
        "details": "Leaves the contract without owner. It will not be possible to call `onlyOwner` functions anymore. Can only be called by the current owner. NOTE: Renouncing ownership will leave the contract without an owner, thereby removing any functionality that is only available to the owner."
      },
      "revokeAllowance(address,address)": {
        "params": {
          "spender": "address",
          "token": "address"
        }
      },
      "totalDeposits()": {
        "returns": {
          "_0": "total deposits available on the contract"
        }
      },
      "transfer(address,uint256)": {
        "params": {
          "amount": "The number of tokens to transfer",
          "dst": "The address of the destination account"
        },
        "returns": {
          "_0": "Whether or not the transfer succeeded"
        }
      },
      "transferFrom(address,address,uint256)": {
        "params": {
          "amount": "The number of tokens to transfer",
          "dst": "The address of the destination account",
          "src": "The address of the source account"
        },
        "returns": {
          "_0": "Whether or not the transfer succeeded"
        }
      },
      "transferOwnership(address)": {
        "details": "Transfers ownership of the contract to a new account (`newOwner`). Can only be called by the current owner."
      },
      "updateAdminFee(uint256)": {
        "details": "Deprecated; Kept for compatibility",
        "params": {
          "newValue": "fee in BIPS; required to be 0"
        }
      },
      "updateDepositsEnabled(bool)": {
        "params": {
          "newValue": "bool"
        }
      },
      "updateDevAddr(address)": {
        "params": {
          "newValue": "address"
        }
      },
      "updateDevFee(uint256)": {
        "params": {
          "newValue": "fee in BIPS"
        }
      },
      "updateMaxTokensToDepositWithoutReinvest(uint256)": {
        "params": {
          "newValue": "threshold"
        }
      },
      "updateMinTokensToReinvest(uint256)": {
        "params": {
          "newValue": "threshold"
        }
      },
      "updateReinvestReward(uint256)": {
        "params": {
          "newValue": "fee in BIPS"
        }
      }
    },
    "version": 1
  },
  "userdoc": {
    "kind": "user",
    "methods": {
      "allowDepositor(address)": {
        "notice": "Add an allowed depositor"
      },
      "allowance(address,address)": {
        "notice": "Get the number of tokens `spender` is approved to spend on behalf of `account`"
      },
      "approve(address,uint256)": {
        "notice": "Approve `spender` to transfer up to `amount` from `src`"
      },
      "balanceOf(address)": {
        "notice": "Get the number of tokens held by the `account`"
      },
      "checkReward()": {
        "notice": "Reward tokens available to strategy, including balance"
      },
      "deposit(uint256)": {
        "notice": "Deposit tokens to receive receipt tokens"
      },
      "depositWithPermit(uint256,uint256,uint8,bytes32,bytes32)": {
        "notice": "Deposit using Permit"
      },
      "estimateDeployedBalance()": {
        "notice": "Estimate recoverable balance after withdraw fee"
      },
      "estimateReinvestReward()": {
        "notice": "Estimate reinvest reward"
      },
      "getDepositTokensForShares(uint256)": {
        "notice": "Calculate deposit tokens for a given amount of receipt tokens"
      },
      "getDomainSeparator()": {
        "notice": "EIP-712 Domain separator"
      },
      "getSharesForDepositTokens(uint256)": {
        "notice": "Calculate receipt tokens for a given amount of deposit tokens"
      },
      "permit(address,address,uint256,uint256,uint8,bytes32,bytes32)": {
        "notice": "Triggers an approval from owner to spender"
      },
      "recoverAVAX(uint256)": {
        "notice": "Recover AVAX from contract"
      },
      "recoverERC20(address,uint256)": {
        "notice": "Recover ERC20 from contract"
      },
      "reinvest()": {
        "notice": "Reinvest reward tokens into deposit tokens"
      },
      "removeDepositor(address)": {
        "notice": "Remove an allowed depositor"
      },
      "revokeAllowance(address,address)": {
        "notice": "Revoke token allowance"
      },
      "totalDeposits()": {
        "notice": "This function returns a snapshot of last available quotes"
      },
      "transfer(address,uint256)": {
        "notice": "Transfer `amount` tokens from `msg.sender` to `dst`"
      },
      "transferFrom(address,address,uint256)": {
        "notice": "Transfer `amount` tokens from `src` to `dst`"
      },
      "updateAdminFee(uint256)": {
        "notice": "Update admin fee"
      },
      "updateDepositsEnabled(bool)": {
        "notice": "Enable/disable deposits"
      },
      "updateDevAddr(address)": {
        "notice": "Update devAddr"
      },
      "updateDevFee(uint256)": {
        "notice": "Update developer fee"
      },
      "updateMaxTokensToDepositWithoutReinvest(uint256)": {
        "notice": "Update reinvest max threshold before a deposit"
      },
      "updateMinTokensToReinvest(uint256)": {
        "notice": "Update reinvest min threshold"
      },
      "updateReinvestReward(uint256)": {
        "notice": "Update reinvest reward"
      }
    },
    "version": 1
  },
  "storageLayout": {
    "storage": [
      {
        "astId": 556,
        "contract": "contracts/strategies/synapse/SynapseStrategy.sol:SynapseStrategy",
        "label": "name",
        "offset": 0,
        "slot": "0",
        "type": "t_string_storage"
      },
      {
        "astId": 559,
        "contract": "contracts/strategies/synapse/SynapseStrategy.sol:SynapseStrategy",
        "label": "symbol",
        "offset": 0,
        "slot": "1",
        "type": "t_string_storage"
      },
      {
        "astId": 564,
        "contract": "contracts/strategies/synapse/SynapseStrategy.sol:SynapseStrategy",
        "label": "totalSupply",
        "offset": 0,
        "slot": "2",
        "type": "t_uint256"
      },
      {
        "astId": 570,
        "contract": "contracts/strategies/synapse/SynapseStrategy.sol:SynapseStrategy",
        "label": "allowances",
        "offset": 0,
        "slot": "3",
        "type": "t_mapping(t_address,t_mapping(t_address,t_uint256))"
      },
      {
        "astId": 574,
        "contract": "contracts/strategies/synapse/SynapseStrategy.sol:SynapseStrategy",
        "label": "balances",
        "offset": 0,
        "slot": "4",
        "type": "t_mapping(t_address,t_uint256)"
      },
      {
        "astId": 590,
        "contract": "contracts/strategies/synapse/SynapseStrategy.sol:SynapseStrategy",
        "label": "nonces",
        "offset": 0,
        "slot": "5",
        "type": "t_mapping(t_address,t_uint256)"
      },
      {
        "astId": 7967,
        "contract": "contracts/strategies/synapse/SynapseStrategy.sol:SynapseStrategy",
        "label": "_owner",
        "offset": 0,
        "slot": "6",
        "type": "t_address"
      },
      {
        "astId": 8080,
        "contract": "contracts/strategies/synapse/SynapseStrategy.sol:SynapseStrategy",
        "label": "numberOfAllowedDepositors",
        "offset": 0,
        "slot": "7",
        "type": "t_uint256"
      },
      {
        "astId": 8084,
        "contract": "contracts/strategies/synapse/SynapseStrategy.sol:SynapseStrategy",
        "label": "allowedDepositors",
        "offset": 0,
        "slot": "8",
        "type": "t_mapping(t_address,t_bool)"
      },
      {
        "astId": 1965,
        "contract": "contracts/strategies/synapse/SynapseStrategy.sol:SynapseStrategy",
        "label": "depositToken",
        "offset": 0,
        "slot": "9",
        "type": "t_contract(IERC20)5314"
      },
      {
        "astId": 1968,
        "contract": "contracts/strategies/synapse/SynapseStrategy.sol:SynapseStrategy",
        "label": "rewardToken",
        "offset": 0,
        "slot": "10",
        "type": "t_contract(IERC20)5314"
      },
      {
        "astId": 1970,
        "contract": "contracts/strategies/synapse/SynapseStrategy.sol:SynapseStrategy",
        "label": "devAddr",
        "offset": 0,
        "slot": "11",
        "type": "t_address"
      },
      {
        "astId": 1972,
        "contract": "contracts/strategies/synapse/SynapseStrategy.sol:SynapseStrategy",
        "label": "MIN_TOKENS_TO_REINVEST",
        "offset": 0,
        "slot": "12",
        "type": "t_uint256"
      },
      {
        "astId": 1974,
        "contract": "contracts/strategies/synapse/SynapseStrategy.sol:SynapseStrategy",
        "label": "MAX_TOKENS_TO_DEPOSIT_WITHOUT_REINVEST",
        "offset": 0,
        "slot": "13",
        "type": "t_uint256"
      },
      {
        "astId": 1976,
        "contract": "contracts/strategies/synapse/SynapseStrategy.sol:SynapseStrategy",
        "label": "DEPOSITS_ENABLED",
        "offset": 0,
        "slot": "14",
        "type": "t_bool"
      },
      {
        "astId": 1978,
        "contract": "contracts/strategies/synapse/SynapseStrategy.sol:SynapseStrategy",
        "label": "ADMIN_FEE_BIPS",
        "offset": 0,
        "slot": "15",
        "type": "t_uint256"
      },
      {
        "astId": 1980,
        "contract": "contracts/strategies/synapse/SynapseStrategy.sol:SynapseStrategy",
        "label": "REINVEST_REWARD_BIPS",
        "offset": 0,
        "slot": "16",
        "type": "t_uint256"
      },
      {
        "astId": 1982,
        "contract": "contracts/strategies/synapse/SynapseStrategy.sol:SynapseStrategy",
        "label": "DEV_FEE_BIPS",
        "offset": 0,
        "slot": "17",
        "type": "t_uint256"
      },
      {
        "astId": 11877,
        "contract": "contracts/strategies/synapse/SynapseStrategy.sol:SynapseStrategy",
        "label": "rewardSwapPairs",
        "offset": 0,
        "slot": "18",
        "type": "t_mapping(t_address,t_address)"
      },
      {
        "astId": 11880,
        "contract": "contracts/strategies/synapse/SynapseStrategy.sol:SynapseStrategy",
        "label": "supportedRewards",
        "offset": 0,
        "slot": "19",
        "type": "t_array(t_address)dyn_storage"
      },
      {
        "astId": 11882,
        "contract": "contracts/strategies/synapse/SynapseStrategy.sol:SynapseStrategy",
        "label": "rewardCount",
        "offset": 0,
        "slot": "20",
        "type": "t_uint256"
      }
    ],
    "types": {
      "t_address": {
        "encoding": "inplace",
        "label": "address",
        "numberOfBytes": "20"
      },
      "t_array(t_address)dyn_storage": {
        "base": "t_address",
        "encoding": "dynamic_array",
        "label": "address[]",
        "numberOfBytes": "32"
      },
      "t_bool": {
        "encoding": "inplace",
        "label": "bool",
        "numberOfBytes": "1"
      },
      "t_contract(IERC20)5314": {
        "encoding": "inplace",
        "label": "contract IERC20",
        "numberOfBytes": "20"
      },
      "t_mapping(t_address,t_address)": {
        "encoding": "mapping",
        "key": "t_address",
        "label": "mapping(address => address)",
        "numberOfBytes": "32",
        "value": "t_address"
      },
      "t_mapping(t_address,t_bool)": {
        "encoding": "mapping",
        "key": "t_address",
        "label": "mapping(address => bool)",
        "numberOfBytes": "32",
        "value": "t_bool"
      },
      "t_mapping(t_address,t_mapping(t_address,t_uint256))": {
        "encoding": "mapping",
        "key": "t_address",
        "label": "mapping(address => mapping(address => uint256))",
        "numberOfBytes": "32",
        "value": "t_mapping(t_address,t_uint256)"
      },
      "t_mapping(t_address,t_uint256)": {
        "encoding": "mapping",
        "key": "t_address",
        "label": "mapping(address => uint256)",
        "numberOfBytes": "32",
        "value": "t_uint256"
      },
      "t_string_storage": {
        "encoding": "bytes",
        "label": "string",
        "numberOfBytes": "32"
      },
      "t_uint256": {
        "encoding": "inplace",
        "label": "uint256",
        "numberOfBytes": "32"
      }
    }
  }
}