{
  "address": "0xA1cfc90A52ba3453A78F460b8BE1FcDe068E29e7",
  "abi": [
    {
      "inputs": [
        {
          "internalType": "address",
          "name": "_team",
          "type": "address"
        },
        {
          "internalType": "address",
          "name": "_deployer",
          "type": "address"
        },
        {
          "internalType": "address",
          "name": "_treasury",
          "type": "address"
        }
      ],
      "stateMutability": "nonpayable",
      "type": "constructor"
    },
    {
      "anonymous": false,
      "inputs": [
        {
          "indexed": false,
          "internalType": "address",
          "name": "strategy",
          "type": "address"
        },
        {
          "indexed": false,
          "internalType": "uint256",
          "name": "oldValue",
          "type": "uint256"
        },
        {
          "indexed": false,
          "internalType": "uint256",
          "name": "newValue",
          "type": "uint256"
        }
      ],
      "name": "BoostFeeUpdated",
      "type": "event"
    },
    {
      "anonymous": false,
      "inputs": [
        {
          "indexed": false,
          "internalType": "bool",
          "name": "paused",
          "type": "bool"
        }
      ],
      "name": "Paused",
      "type": "event"
    },
    {
      "anonymous": false,
      "inputs": [
        {
          "indexed": true,
          "internalType": "bytes32",
          "name": "role",
          "type": "bytes32"
        },
        {
          "indexed": true,
          "internalType": "bytes32",
          "name": "previousAdminRole",
          "type": "bytes32"
        },
        {
          "indexed": true,
          "internalType": "bytes32",
          "name": "newAdminRole",
          "type": "bytes32"
        }
      ],
      "name": "RoleAdminChanged",
      "type": "event"
    },
    {
      "anonymous": false,
      "inputs": [
        {
          "indexed": true,
          "internalType": "bytes32",
          "name": "role",
          "type": "bytes32"
        },
        {
          "indexed": true,
          "internalType": "address",
          "name": "account",
          "type": "address"
        },
        {
          "indexed": true,
          "internalType": "address",
          "name": "sender",
          "type": "address"
        }
      ],
      "name": "RoleGranted",
      "type": "event"
    },
    {
      "anonymous": false,
      "inputs": [
        {
          "indexed": true,
          "internalType": "bytes32",
          "name": "role",
          "type": "bytes32"
        },
        {
          "indexed": true,
          "internalType": "address",
          "name": "account",
          "type": "address"
        },
        {
          "indexed": true,
          "internalType": "address",
          "name": "sender",
          "type": "address"
        }
      ],
      "name": "RoleRevoked",
      "type": "event"
    },
    {
      "anonymous": false,
      "inputs": [
        {
          "indexed": true,
          "internalType": "address",
          "name": "sweeper",
          "type": "address"
        },
        {
          "indexed": true,
          "internalType": "address",
          "name": "token",
          "type": "address"
        },
        {
          "indexed": false,
          "internalType": "uint256",
          "name": "amount",
          "type": "uint256"
        }
      ],
      "name": "Sweep",
      "type": "event"
    },
    {
      "inputs": [],
      "name": "DEFAULT_ADMIN_ROLE",
      "outputs": [
        {
          "internalType": "bytes32",
          "name": "",
          "type": "bytes32"
        }
      ],
      "stateMutability": "view",
      "type": "function"
    },
    {
      "inputs": [],
      "name": "FEE_SETTER_ROLE",
      "outputs": [
        {
          "internalType": "bytes32",
          "name": "",
          "type": "bytes32"
        }
      ],
      "stateMutability": "view",
      "type": "function"
    },
    {
      "inputs": [],
      "name": "PTP",
      "outputs": [
        {
          "internalType": "contract IERC20",
          "name": "",
          "type": "address"
        }
      ],
      "stateMutability": "view",
      "type": "function"
    },
    {
      "inputs": [],
      "name": "TOKEN_SWEEPER_ROLE",
      "outputs": [
        {
          "internalType": "bytes32",
          "name": "",
          "type": "bytes32"
        }
      ],
      "stateMutability": "view",
      "type": "function"
    },
    {
      "inputs": [],
      "name": "VOTER",
      "outputs": [
        {
          "internalType": "contract IPlatypusVoter",
          "name": "",
          "type": "address"
        }
      ],
      "stateMutability": "view",
      "type": "function"
    },
    {
      "inputs": [
        {
          "internalType": "address",
          "name": "",
          "type": "address"
        }
      ],
      "name": "boostFeeBips",
      "outputs": [
        {
          "internalType": "uint256",
          "name": "",
          "type": "uint256"
        }
      ],
      "stateMutability": "view",
      "type": "function"
    },
    {
      "inputs": [
        {
          "internalType": "address",
          "name": "_strategy",
          "type": "address"
        },
        {
          "internalType": "uint256",
          "name": "_amount",
          "type": "uint256"
        }
      ],
      "name": "calculateBoostFee",
      "outputs": [
        {
          "internalType": "uint256",
          "name": "",
          "type": "uint256"
        }
      ],
      "stateMutability": "view",
      "type": "function"
    },
    {
      "inputs": [],
      "name": "compound",
      "outputs": [],
      "stateMutability": "nonpayable",
      "type": "function"
    },
    {
      "inputs": [
        {
          "internalType": "bytes32",
          "name": "role",
          "type": "bytes32"
        }
      ],
      "name": "getRoleAdmin",
      "outputs": [
        {
          "internalType": "bytes32",
          "name": "",
          "type": "bytes32"
        }
      ],
      "stateMutability": "view",
      "type": "function"
    },
    {
      "inputs": [
        {
          "internalType": "bytes32",
          "name": "role",
          "type": "bytes32"
        },
        {
          "internalType": "uint256",
          "name": "index",
          "type": "uint256"
        }
      ],
      "name": "getRoleMember",
      "outputs": [
        {
          "internalType": "address",
          "name": "",
          "type": "address"
        }
      ],
      "stateMutability": "view",
      "type": "function"
    },
    {
      "inputs": [
        {
          "internalType": "bytes32",
          "name": "role",
          "type": "bytes32"
        }
      ],
      "name": "getRoleMemberCount",
      "outputs": [
        {
          "internalType": "uint256",
          "name": "",
          "type": "uint256"
        }
      ],
      "stateMutability": "view",
      "type": "function"
    },
    {
      "inputs": [
        {
          "internalType": "bytes32",
          "name": "role",
          "type": "bytes32"
        },
        {
          "internalType": "address",
          "name": "account",
          "type": "address"
        }
      ],
      "name": "grantRole",
      "outputs": [],
      "stateMutability": "nonpayable",
      "type": "function"
    },
    {
      "inputs": [
        {
          "internalType": "bytes32",
          "name": "role",
          "type": "bytes32"
        },
        {
          "internalType": "address",
          "name": "account",
          "type": "address"
        }
      ],
      "name": "hasRole",
      "outputs": [
        {
          "internalType": "bool",
          "name": "",
          "type": "bool"
        }
      ],
      "stateMutability": "view",
      "type": "function"
    },
    {
      "inputs": [],
      "name": "paused",
      "outputs": [
        {
          "internalType": "bool",
          "name": "",
          "type": "bool"
        }
      ],
      "stateMutability": "view",
      "type": "function"
    },
    {
      "inputs": [
        {
          "internalType": "bytes32",
          "name": "role",
          "type": "bytes32"
        },
        {
          "internalType": "address",
          "name": "account",
          "type": "address"
        }
      ],
      "name": "renounceRole",
      "outputs": [],
      "stateMutability": "nonpayable",
      "type": "function"
    },
    {
      "inputs": [
        {
          "internalType": "bytes32",
          "name": "role",
          "type": "bytes32"
        },
        {
          "internalType": "address",
          "name": "account",
          "type": "address"
        }
      ],
      "name": "revokeRole",
      "outputs": [],
      "stateMutability": "nonpayable",
      "type": "function"
    },
    {
      "inputs": [
        {
          "internalType": "address",
          "name": "_strategy",
          "type": "address"
        },
        {
          "internalType": "uint256",
          "name": "_boostFeeBips",
          "type": "uint256"
        }
      ],
      "name": "setBoostFee",
      "outputs": [],
      "stateMutability": "nonpayable",
      "type": "function"
    },
    {
      "inputs": [
        {
          "internalType": "bool",
          "name": "_paused",
          "type": "bool"
        }
      ],
      "name": "setPaused",
      "outputs": [],
      "stateMutability": "nonpayable",
      "type": "function"
    },
    {
      "inputs": [
        {
          "internalType": "address",
          "name": "tokenAddress",
          "type": "address"
        },
        {
          "internalType": "uint256",
          "name": "tokenAmount",
          "type": "uint256"
        }
      ],
      "name": "sweepTokens",
      "outputs": [],
      "stateMutability": "nonpayable",
      "type": "function"
    }
  ],
  "transactionHash": "0x42795389a1ba5645b9d9939dbce7c96c2fc8dd03e37fa8f012e825982cedc5d7",
  "args": [
    "0xDcEDF06Fd33E1D7b6eb4b309f779a0e9D3172e44",
    "0xEA3e895b0696e161C68486Ee2F85e6Cc6ef962d0",
    "0x5925C5c6843A8F67f7Ef2b55Db1f5491573C85Eb"
  ],
  "solcInputHash": "02bf2c4e6dbc3d07793556c1ea5485cb",
  "bytecode": "0x60806040526002805460ff191690553480156200001b57600080fd5b506040516200161438038062001614833981810160405260608110156200004157600080fd5b50805160208201516040909201519091906200006d600080516020620015f483398151915283620000bd565b62000088600080516020620015f483398151915284620000bd565b620000b47faaeb0e7b67698f8ec0689e359bbe895bc1bc081c58211f57940cf243fc05a21882620000bd565b505050620001d1565b620000c98282620000cd565b5050565b600082815260208181526040909120620000f291839062000bf162000146821b17901c565b15620000c9576200010262000166565b6001600160a01b0316816001600160a01b0316837f2f8788117e7eff1d82e926ec794901d17c78024a50270940304540a733656f0d60405160405180910390a45050565b60006200015d836001600160a01b0384166200016a565b90505b92915050565b3390565b6000620001788383620001b9565b620001b05750815460018181018455600084815260208082209093018490558454848252828601909352604090209190915562000160565b50600062000160565b60009081526001919091016020526040902054151590565b61141380620001e16000396000f3fe608060405234801561001057600080fd5b50600436106101515760003560e01c806391d14854116100cd578063e580349c11610081578063f2daef2c11610066578063f2daef2c1461034e578063f69e20461461037a578063fc3282671461038257610151565b8063e580349c1461031a578063e93476831461034657610151565b8063ca15c873116100b2578063ca15c873146102a5578063d547741f146102c2578063dec66036146102ee57610151565b806391d1485414610271578063a217fddf1461029d57610151565b806336568abe116101245780638dc1564a116101095780638dc1564a146102225780638ebf2fd6146102465780639010d07c1461024e57610151565b806336568abe146101da5780635c975abb1461020657610151565b806312980afe1461015657806316c38b3c14610170578063248a9ca3146101915780632f2ff15d146101ae575b600080fd5b61015e6103a8565b60408051918252519081900360200190f35b61018f6004803603602081101561018657600080fd5b503515156103cc565b005b61015e600480360360208110156101a757600080fd5b50356104ec565b61018f600480360360408110156101c457600080fd5b50803590602001356001600160a01b0316610501565b61018f600480360360408110156101f057600080fd5b50803590602001356001600160a01b031661056d565b61020e6105ce565b604080519115158252519081900360200190f35b61022a6105d7565b604080516001600160a01b039092168252519081900360200190f35b61022a6105ef565b61022a6004803603604081101561026457600080fd5b5080359060200135610607565b61020e6004803603604081101561028757600080fd5b50803590602001356001600160a01b0316610628565b61015e610640565b61015e600480360360208110156102bb57600080fd5b5035610645565b61018f600480360360408110156102d857600080fd5b50803590602001356001600160a01b031661065c565b61018f6004803603604081101561030457600080fd5b506001600160a01b0381351690602001356106b5565b61018f6004803603604081101561033057600080fd5b506001600160a01b038135169060200135610867565b61015e610996565b61015e6004803603604081101561036457600080fd5b506001600160a01b0381351690602001356109ba565b61018f610a07565b61015e6004803603602081101561039857600080fd5b50356001600160a01b0316610bdf565b7faaeb0e7b67698f8ec0689e359bbe895bc1bc081c58211f57940cf243fc05a21881565b6103f67fe6ad9a47fbda1dc18de1eb5eeb7d935e5e81b4748f3cfc61e233e64f8818206033610628565b610447576040805162461bcd60e51b815260206004820152601960248201527f426f6f73746572466565436f6c6c6563746f723a3a6175746800000000000000604482015290519081900360640190fd5b60025460ff16151581151514156104a5576040805162461bcd60e51b815260206004820181905260248201527f426f6f73746572466565436f6c6c6563746f723a3a616c726561647920736574604482015290519081900360640190fd5b6002805482151560ff19909116811790915560408051918252517f0e2fb031ee032dc02d8011dc50b816eb450cf856abd8261680dac74f72165bd29181900360200190a150565b60009081526020819052604090206002015490565b6000828152602081905260409020600201546105249061051f610c06565b610628565b61055f5760405162461bcd60e51b815260040180806020018281038252602f8152602001806112d7602f913960400191505060405180910390fd5b6105698282610c0a565b5050565b610575610c06565b6001600160a01b0316816001600160a01b0316146105c45760405162461bcd60e51b815260040180806020018281038252602f8152602001806113af602f913960400191505060405180910390fd5b6105698282610c73565b60025460ff1681565b7322d4002028f537599be9f666d1c4fa138522f9c881565b7340089e90156fc6f994cc0ec86dbe84634a1c156f81565b600082815260208190526040812061061f9083610cdc565b90505b92915050565b600082815260208190526040812061061f9083610ce8565b600081565b600081815260208190526040812061062290610cfd565b60008281526020819052604090206002015461067a9061051f610c06565b6105c45760405162461bcd60e51b81526004018080602001828103825260308152602001806113346030913960400191505060405180910390fd5b6106df7faaeb0e7b67698f8ec0689e359bbe895bc1bc081c58211f57940cf243fc05a21833610628565b610730576040805162461bcd60e51b815260206004820152601960248201527f426f6f73746572466565436f6c6c6563746f723a3a6175746800000000000000604482015290519081900360640190fd5b6000826001600160a01b03166370a08231306040518263ffffffff1660e01b815260040180826001600160a01b0316815260200191505060206040518083038186803b15801561077f57600080fd5b505afa158015610793573d6000803e3d6000fd5b505050506040513d60208110156107a957600080fd5b50519050818110156107b9578091505b6000821161080e576040805162461bcd60e51b815260206004820152601460248201527f7377656570546f6b656e733a3a62616c616e6365000000000000000000000000604482015290519081900360640190fd5b6108226001600160a01b0384163384610d08565b6040805183815290516001600160a01b0385169133917fed679328aebf74ede77ae09efcf36e90244f83643dadac1c2d9f0b21a46f6ab79181900360200190a3505050565b6108917fe6ad9a47fbda1dc18de1eb5eeb7d935e5e81b4748f3cfc61e233e64f8818206033610628565b6108e2576040805162461bcd60e51b815260206004820152601960248201527f426f6f73746572466565436f6c6c6563746f723a3a6175746800000000000000604482015290519081900360640190fd5b6127108111156109235760405162461bcd60e51b815260040180806020018281038252602e815260200180611306602e913960400191505060405180910390fd5b6001600160a01b03821660008181526001602090815260409182902054825193845290830152818101839052517fd041dbc1b864058b04c804f7b0bc7ebf7bb91e25f4bbfffb774c00d0e11b67cd9181900360600190a16001600160a01b03909116600090815260016020526040902055565b7fe6ad9a47fbda1dc18de1eb5eeb7d935e5e81b4748f3cfc61e233e64f8818206081565b60025460009060ff16156109d057506000610622565b6001600160a01b0383166000908152600160205260409020546109ff6127106109f98584610d8d565b90610de6565b949350505050565b604080517f70a0823100000000000000000000000000000000000000000000000000000000815230600482015290516000917322d4002028f537599be9f666d1c4fa138522f9c8916370a0823191602480820192602092909190829003018186803b158015610a7557600080fd5b505afa158015610a89573d6000803e3d6000fd5b505050506040513d6020811015610a9f57600080fd5b5051604080517f095ea7b30000000000000000000000000000000000000000000000000000000081527340089e90156fc6f994cc0ec86dbe84634a1c156f60048201526024810183905290519192507322d4002028f537599be9f666d1c4fa138522f9c89163095ea7b3916044808201926020929091908290030181600087803b158015610b2c57600080fd5b505af1158015610b40573d6000803e3d6000fd5b505050506040513d6020811015610b5657600080fd5b5050604080517fb6b55f250000000000000000000000000000000000000000000000000000000081526004810183905290517340089e90156fc6f994cc0ec86dbe84634a1c156f9163b6b55f2591602480830192600092919082900301818387803b158015610bc457600080fd5b505af1158015610bd8573d6000803e3d6000fd5b5050505050565b60016020526000908152604090205481565b600061061f836001600160a01b038416610e28565b3390565b6000828152602081905260409020610c229082610bf1565b1561056957610c2f610c06565b6001600160a01b0316816001600160a01b0316837f2f8788117e7eff1d82e926ec794901d17c78024a50270940304540a733656f0d60405160405180910390a45050565b6000828152602081905260409020610c8b9082610e72565b1561056957610c98610c06565b6001600160a01b0316816001600160a01b0316837ff6391f5c32d9c69d2a47ea670b442974b53935d1edc7fd64eb21e047a839171b60405160405180910390a45050565b600061061f8383610e87565b600061061f836001600160a01b038416610eeb565b600061062282610f03565b604080516001600160a01b038416602482015260448082018490528251808303909101815260649091019091526020810180517bffffffffffffffffffffffffffffffffffffffffffffffffffffffff167fa9059cbb00000000000000000000000000000000000000000000000000000000179052610d88908490610f07565b505050565b600082610d9c57506000610622565b82820282848281610da957fe5b041461061f5760405162461bcd60e51b81526004018080602001828103825260218152602001806113646021913960400191505060405180910390fd5b600061061f83836040518060400160405280601a81526020017f536166654d6174683a206469766973696f6e206279207a65726f000000000000815250610fb8565b6000610e348383610eeb565b610e6a57508154600181810184556000848152602080822090930184905584548482528286019093526040902091909155610622565b506000610622565b600061061f836001600160a01b03841661105c565b81546000908210610ec95760405162461bcd60e51b81526004018080602001828103825260228152602001806112b56022913960400191505060405180910390fd5b826000018281548110610ed857fe5b9060005260206000200154905092915050565b60009081526001919091016020526040902054151590565b5490565b6060610f5c826040518060400160405280602081526020017f5361666545524332303a206c6f772d6c6576656c2063616c6c206661696c6564815250856001600160a01b03166111229092919063ffffffff16565b805190915015610d8857808060200190516020811015610f7b57600080fd5b5051610d885760405162461bcd60e51b815260040180806020018281038252602a815260200180611385602a913960400191505060405180910390fd5b600081836110445760405162461bcd60e51b81526004018080602001828103825283818151815260200191508051906020019080838360005b83811015611009578181015183820152602001610ff1565b50505050905090810190601f1680156110365780820380516001836020036101000a031916815260200191505b509250505060405180910390fd5b50600083858161105057fe5b049150505b9392505050565b60008181526001830160205260408120548015611118578354600019808301919081019060009087908390811061108f57fe5b90600052602060002001549050808760000184815481106110ac57fe5b6000918252602080832090910192909255828152600189810190925260409020908401905586548790806110dc57fe5b60019003818190600052602060002001600090559055866001016000878152602001908152602001600020600090556001945050505050610622565b6000915050610622565b60606109ff84846000858561113685611248565b611187576040805162461bcd60e51b815260206004820152601d60248201527f416464726573733a2063616c6c20746f206e6f6e2d636f6e7472616374000000604482015290519081900360640190fd5b60006060866001600160a01b031685876040518082805190602001908083835b602083106111c65780518252601f1990920191602091820191016111a7565b6001836020036101000a03801982511681845116808217855250505050505090500191505060006040518083038185875af1925050503d8060008114611228576040519150601f19603f3d011682016040523d82523d6000602084013e61122d565b606091505b509150915061123d82828661124e565b979650505050505050565b3b151590565b6060831561125d575081611055565b82511561126d5782518084602001fd5b60405162461bcd60e51b8152602060048201818152845160248401528451859391928392604401919085019080838360008315611009578181015183820152602001610ff156fe456e756d657261626c655365743a20696e646578206f7574206f6620626f756e6473416363657373436f6e74726f6c3a2073656e646572206d75737420626520616e2061646d696e20746f206772616e74426f6f73746572466565436f6c6c6563746f723a3a43686f73656e20626f6f73742066656520746f6f2068696768416363657373436f6e74726f6c3a2073656e646572206d75737420626520616e2061646d696e20746f207265766f6b65536166654d6174683a206d756c7469706c69636174696f6e206f766572666c6f775361666545524332303a204552433230206f7065726174696f6e20646964206e6f742073756363656564416363657373436f6e74726f6c3a2063616e206f6e6c792072656e6f756e636520726f6c657320666f722073656c66a2646970667358221220691ebf77c5054b7713b4b7f5c51ce4aa9de7a5902682e2cc47089a8a8246b6db64736f6c63430007030033e6ad9a47fbda1dc18de1eb5eeb7d935e5e81b4748f3cfc61e233e64f88182060",
  "devdoc": {
    "details": "Designed for compatibility with deployed YakStrategy and FeeCollector contracts",
    "kind": "dev",
    "methods": {
      "calculateBoostFee(address,uint256)": {
        "details": "If the contract is paused, returns zero",
        "params": {
          "_amount": "amount of tokens being reinvested",
          "_strategy": "address"
        },
        "returns": {
          "_0": "uint256 boost fee in tokens"
        }
      },
      "getRoleAdmin(bytes32)": {
        "details": "Returns the admin role that controls `role`. See {grantRole} and {revokeRole}. To change a role's admin, use {_setRoleAdmin}."
      },
      "getRoleMember(bytes32,uint256)": {
        "details": "Returns one of the accounts that have `role`. `index` must be a value between 0 and {getRoleMemberCount}, non-inclusive. Role bearers are not sorted in any particular way, and their ordering may change at any point. WARNING: When using {getRoleMember} and {getRoleMemberCount}, make sure you perform all queries on the same block. See the following https://forum.openzeppelin.com/t/iterating-over-elements-on-enumerableset-in-openzeppelin-contracts/2296[forum post] for more information."
      },
      "getRoleMemberCount(bytes32)": {
        "details": "Returns the number of accounts that have `role`. Can be used together with {getRoleMember} to enumerate all bearers of a role."
      },
      "grantRole(bytes32,address)": {
        "details": "Grants `role` to `account`. If `account` had not been already granted `role`, emits a {RoleGranted} event. Requirements: - the caller must have ``role``'s admin role."
      },
      "hasRole(bytes32,address)": {
        "details": "Returns `true` if `account` has been granted `role`."
      },
      "renounceRole(bytes32,address)": {
        "details": "Revokes `role` from the calling account. Roles are often managed via {grantRole} and {revokeRole}: this function's purpose is to provide a mechanism for accounts to lose their privileges if they are compromised (such as when a trusted device is misplaced). If the calling account had been granted `role`, emits a {RoleRevoked} event. Requirements: - the caller must be `account`."
      },
      "revokeRole(bytes32,address)": {
        "details": "Revokes `role` from `account`. If `account` had been granted `role`, emits a {RoleRevoked} event. Requirements: - the caller must have ``role``'s admin role."
      },
      "setBoostFee(address,uint256)": {
        "details": "Restricted to `FEE_SETTER_ROLE`",
        "params": {
          "_boostFeeBips": "boost fee in bips",
          "_strategy": "address"
        }
      },
      "setPaused(bool)": {
        "details": "Restricted to `FEE_SETTER_ROLE`In paused state, boost fee is zero for all strategies",
        "params": {
          "_paused": "bool"
        }
      },
      "sweepTokens(address,uint256)": {
        "details": "Restricted to `TOKEN_SWEEPER_ROLE`",
        "params": {
          "tokenAddress": "address",
          "tokenAmount": "amount"
        }
      }
    },
    "version": 1
  },
  "userdoc": {
    "kind": "user",
    "methods": {
      "FEE_SETTER_ROLE()": {
        "notice": "Role to manage booster fees per strategy"
      },
      "TOKEN_SWEEPER_ROLE()": {
        "notice": "Role to sweep funds from this contract"
      },
      "calculateBoostFee(address,uint256)": {
        "notice": "Calculate amount of tokens to hold as boost fee"
      },
      "compound()": {
        "notice": "Convert PTP to yyPTP"
      },
      "setBoostFee(address,uint256)": {
        "notice": "Set boost fee in bips"
      },
      "setPaused(bool)": {
        "notice": "Set paused state"
      },
      "sweepTokens(address,uint256)": {
        "notice": "Collect ERC20 from this contract"
      }
    },
    "notice": "Role-based manager for collecting boost fees",
    "version": 1
  },
  "storageLayout": {
    "storage": [
      {
        "astId": 16754,
        "contract": "contracts/timelocks/BoosterFeeCollector.sol:BoosterFeeCollector",
        "label": "_roles",
        "offset": 0,
        "slot": "0",
        "type": "t_mapping(t_bytes32,t_struct(RoleData)16750_storage)"
      },
      {
        "astId": 103844,
        "contract": "contracts/timelocks/BoosterFeeCollector.sol:BoosterFeeCollector",
        "label": "boostFeeBips",
        "offset": 0,
        "slot": "1",
        "type": "t_mapping(t_address,t_uint256)"
      },
      {
        "astId": 103847,
        "contract": "contracts/timelocks/BoosterFeeCollector.sol:BoosterFeeCollector",
        "label": "paused",
        "offset": 0,
        "slot": "2",
        "type": "t_bool"
      }
    ],
    "types": {
      "t_address": {
        "encoding": "inplace",
        "label": "address",
        "numberOfBytes": "20"
      },
      "t_array(t_bytes32)dyn_storage": {
        "base": "t_bytes32",
        "encoding": "dynamic_array",
        "label": "bytes32[]",
        "numberOfBytes": "32"
      },
      "t_bool": {
        "encoding": "inplace",
        "label": "bool",
        "numberOfBytes": "1"
      },
      "t_bytes32": {
        "encoding": "inplace",
        "label": "bytes32",
        "numberOfBytes": "32"
      },
      "t_mapping(t_address,t_uint256)": {
        "encoding": "mapping",
        "key": "t_address",
        "label": "mapping(address => uint256)",
        "numberOfBytes": "32",
        "value": "t_uint256"
      },
      "t_mapping(t_bytes32,t_struct(RoleData)16750_storage)": {
        "encoding": "mapping",
        "key": "t_bytes32",
        "label": "mapping(bytes32 => struct AccessControl.RoleData)",
        "numberOfBytes": "32",
        "value": "t_struct(RoleData)16750_storage"
      },
      "t_mapping(t_bytes32,t_uint256)": {
        "encoding": "mapping",
        "key": "t_bytes32",
        "label": "mapping(bytes32 => uint256)",
        "numberOfBytes": "32",
        "value": "t_uint256"
      },
      "t_struct(AddressSet)19593_storage": {
        "encoding": "inplace",
        "label": "struct EnumerableSet.AddressSet",
        "members": [
          {
            "astId": 19592,
            "contract": "contracts/timelocks/BoosterFeeCollector.sol:BoosterFeeCollector",
            "label": "_inner",
            "offset": 0,
            "slot": "0",
            "type": "t_struct(Set)19328_storage"
          }
        ],
        "numberOfBytes": "64"
      },
      "t_struct(RoleData)16750_storage": {
        "encoding": "inplace",
        "label": "struct AccessControl.RoleData",
        "members": [
          {
            "astId": 16747,
            "contract": "contracts/timelocks/BoosterFeeCollector.sol:BoosterFeeCollector",
            "label": "members",
            "offset": 0,
            "slot": "0",
            "type": "t_struct(AddressSet)19593_storage"
          },
          {
            "astId": 16749,
            "contract": "contracts/timelocks/BoosterFeeCollector.sol:BoosterFeeCollector",
            "label": "adminRole",
            "offset": 0,
            "slot": "2",
            "type": "t_bytes32"
          }
        ],
        "numberOfBytes": "96"
      },
      "t_struct(Set)19328_storage": {
        "encoding": "inplace",
        "label": "struct EnumerableSet.Set",
        "members": [
          {
            "astId": 19323,
            "contract": "contracts/timelocks/BoosterFeeCollector.sol:BoosterFeeCollector",
            "label": "_values",
            "offset": 0,
            "slot": "0",
            "type": "t_array(t_bytes32)dyn_storage"
          },
          {
            "astId": 19327,
            "contract": "contracts/timelocks/BoosterFeeCollector.sol:BoosterFeeCollector",
            "label": "_indexes",
            "offset": 0,
            "slot": "1",
            "type": "t_mapping(t_bytes32,t_uint256)"
          }
        ],
        "numberOfBytes": "64"
      },
      "t_uint256": {
        "encoding": "inplace",
        "label": "uint256",
        "numberOfBytes": "32"
      }
    }
  }
}