{
  "address": "0xc31e24f8A25a1dCeCcfd791CA25b62dcFec5c8F7",
  "abi": [
    {
      "inputs": [
        {
          "internalType": "address",
          "name": "_voter",
          "type": "address"
        },
        {
          "internalType": "address",
          "name": "_devAddr",
          "type": "address"
        },
        {
          "components": [
            {
              "internalType": "uint256",
              "name": "stakerFeeBips",
              "type": "uint256"
            },
            {
              "internalType": "uint256",
              "name": "boosterFeeBips",
              "type": "uint256"
            },
            {
              "internalType": "address",
              "name": "stakerFeeReceiver",
              "type": "address"
            },
            {
              "internalType": "address",
              "name": "boosterFeeReceiver",
              "type": "address"
            }
          ],
          "internalType": "struct JoeVoterProxy.FeeSettings",
          "name": "_feeSettings",
          "type": "tuple"
        }
      ],
      "stateMutability": "nonpayable",
      "type": "constructor"
    },
    {
      "inputs": [],
      "name": "JOE",
      "outputs": [
        {
          "internalType": "address",
          "name": "",
          "type": "address"
        }
      ],
      "stateMutability": "view",
      "type": "function"
    },
    {
      "inputs": [
        {
          "internalType": "address",
          "name": "_stakingContract",
          "type": "address"
        },
        {
          "internalType": "address",
          "name": "_strategy",
          "type": "address"
        }
      ],
      "name": "approveStrategy",
      "outputs": [],
      "stateMutability": "nonpayable",
      "type": "function"
    },
    {
      "inputs": [],
      "name": "boosterFee",
      "outputs": [
        {
          "internalType": "uint256",
          "name": "",
          "type": "uint256"
        }
      ],
      "stateMutability": "view",
      "type": "function"
    },
    {
      "inputs": [],
      "name": "boosterFeeReceiver",
      "outputs": [
        {
          "internalType": "address",
          "name": "",
          "type": "address"
        }
      ],
      "stateMutability": "view",
      "type": "function"
    },
    {
      "inputs": [
        {
          "internalType": "uint256",
          "name": "_pid",
          "type": "uint256"
        },
        {
          "internalType": "address",
          "name": "_stakingContract",
          "type": "address"
        },
        {
          "internalType": "address",
          "name": "_extraToken",
          "type": "address"
        }
      ],
      "name": "claimReward",
      "outputs": [],
      "stateMutability": "nonpayable",
      "type": "function"
    },
    {
      "inputs": [
        {
          "internalType": "uint256",
          "name": "_pid",
          "type": "uint256"
        },
        {
          "internalType": "address",
          "name": "_stakingContract",
          "type": "address"
        },
        {
          "internalType": "address",
          "name": "_token",
          "type": "address"
        },
        {
          "internalType": "uint256",
          "name": "_amount",
          "type": "uint256"
        }
      ],
      "name": "deposit",
      "outputs": [],
      "stateMutability": "nonpayable",
      "type": "function"
    },
    {
      "inputs": [],
      "name": "devAddr",
      "outputs": [
        {
          "internalType": "address",
          "name": "",
          "type": "address"
        }
      ],
      "stateMutability": "view",
      "type": "function"
    },
    {
      "inputs": [
        {
          "internalType": "uint256",
          "name": "_pid",
          "type": "uint256"
        },
        {
          "internalType": "address",
          "name": "_stakingContract",
          "type": "address"
        },
        {
          "internalType": "address",
          "name": "_extraToken",
          "type": "address"
        }
      ],
      "name": "distributeReward",
      "outputs": [],
      "stateMutability": "nonpayable",
      "type": "function"
    },
    {
      "inputs": [
        {
          "internalType": "uint256",
          "name": "_pid",
          "type": "uint256"
        },
        {
          "internalType": "address",
          "name": "_stakingContract",
          "type": "address"
        },
        {
          "internalType": "address",
          "name": "_token",
          "type": "address"
        }
      ],
      "name": "emergencyWithdraw",
      "outputs": [],
      "stateMutability": "nonpayable",
      "type": "function"
    },
    {
      "inputs": [
        {
          "internalType": "address",
          "name": "_stakingContract",
          "type": "address"
        },
        {
          "internalType": "uint256",
          "name": "_pid",
          "type": "uint256"
        }
      ],
      "name": "pendingRewards",
      "outputs": [
        {
          "internalType": "uint256",
          "name": "pendingJoe",
          "type": "uint256"
        },
        {
          "internalType": "address",
          "name": "bonusTokenAddress",
          "type": "address"
        },
        {
          "internalType": "uint256",
          "name": "pendingBonusToken",
          "type": "uint256"
        }
      ],
      "stateMutability": "view",
      "type": "function"
    },
    {
      "inputs": [
        {
          "internalType": "address",
          "name": "_stakingContract",
          "type": "address"
        },
        {
          "internalType": "uint256",
          "name": "_pid",
          "type": "uint256"
        }
      ],
      "name": "poolBalance",
      "outputs": [
        {
          "internalType": "uint256",
          "name": "balance",
          "type": "uint256"
        }
      ],
      "stateMutability": "view",
      "type": "function"
    },
    {
      "inputs": [],
      "name": "reinvestFeeBips",
      "outputs": [
        {
          "internalType": "uint256",
          "name": "",
          "type": "uint256"
        }
      ],
      "stateMutability": "view",
      "type": "function"
    },
    {
      "inputs": [
        {
          "internalType": "uint256",
          "name": "_boosterFeeBips",
          "type": "uint256"
        }
      ],
      "name": "setBoosterFee",
      "outputs": [],
      "stateMutability": "nonpayable",
      "type": "function"
    },
    {
      "inputs": [
        {
          "internalType": "address",
          "name": "_boosterFeeReceiver",
          "type": "address"
        }
      ],
      "name": "setBoosterFeeReceiver",
      "outputs": [],
      "stateMutability": "nonpayable",
      "type": "function"
    },
    {
      "inputs": [
        {
          "internalType": "uint256",
          "name": "_stakerFeeBips",
          "type": "uint256"
        }
      ],
      "name": "setStakerFee",
      "outputs": [],
      "stateMutability": "nonpayable",
      "type": "function"
    },
    {
      "inputs": [
        {
          "internalType": "address",
          "name": "_stakerFeeReceiver",
          "type": "address"
        }
      ],
      "name": "setStakerFeeReceiver",
      "outputs": [],
      "stateMutability": "nonpayable",
      "type": "function"
    },
    {
      "inputs": [],
      "name": "stakerFee",
      "outputs": [
        {
          "internalType": "uint256",
          "name": "",
          "type": "uint256"
        }
      ],
      "stateMutability": "view",
      "type": "function"
    },
    {
      "inputs": [],
      "name": "stakerFeeReceiver",
      "outputs": [
        {
          "internalType": "address",
          "name": "",
          "type": "address"
        }
      ],
      "stateMutability": "view",
      "type": "function"
    },
    {
      "inputs": [
        {
          "internalType": "address",
          "name": "newValue",
          "type": "address"
        }
      ],
      "name": "updateDevAddr",
      "outputs": [],
      "stateMutability": "nonpayable",
      "type": "function"
    },
    {
      "inputs": [],
      "name": "veJoeStaking",
      "outputs": [
        {
          "internalType": "address",
          "name": "",
          "type": "address"
        }
      ],
      "stateMutability": "view",
      "type": "function"
    },
    {
      "inputs": [],
      "name": "voter",
      "outputs": [
        {
          "internalType": "contract IJoeVoter",
          "name": "",
          "type": "address"
        }
      ],
      "stateMutability": "view",
      "type": "function"
    },
    {
      "inputs": [
        {
          "internalType": "uint256",
          "name": "_pid",
          "type": "uint256"
        },
        {
          "internalType": "address",
          "name": "_stakingContract",
          "type": "address"
        },
        {
          "internalType": "address",
          "name": "_token",
          "type": "address"
        },
        {
          "internalType": "uint256",
          "name": "_amount",
          "type": "uint256"
        }
      ],
      "name": "withdraw",
      "outputs": [],
      "stateMutability": "nonpayable",
      "type": "function"
    }
  ],
  "transactionHash": "0xca671b745fe830310d1139e871628b629f7f2450d5c6c07977a29929963f1ad4",
  "args": [
    "0xe7462905B79370389e8180E300F58f63D35B725F",
    "0xDcEDF06Fd33E1D7b6eb4b309f779a0e9D3172e44",
    {
      "stakerFeeBips": 500,
      "boosterFeeBips": 1000,
      "stakerFeeReceiver": "0xDcEDF06Fd33E1D7b6eb4b309f779a0e9D3172e44",
      "boosterFeeReceiver": "0xDcEDF06Fd33E1D7b6eb4b309f779a0e9D3172e44"
    }
  ],
  "solcInputHash": "355e43438707e2b75917052c50137db2",
  "bytecode": "0x60a06040523480156200001157600080fd5b50604051620021a0380380620021a08339810160408190526200003491620000bb565b600480546001600160a01b03199081166001600160a01b0394851617909155602082015160005581516001556040820151600280548316918516919091179055606091820151600380549092169316929092179091551b6001600160601b03191660805262000163565b80516001600160a01b0381168114620000b657600080fd5b919050565b600080600083850360c0811215620000d1578384fd5b620000dc856200009e565b9350620000ec602086016200009e565b92506080603f198201121562000100578182fd5b50604051608081016001600160401b03811182821017156200011e57fe5b604090815285015181526060850151602082015262000140608086016200009e565b60408201526200015360a086016200009e565b6060820152809150509250925092565b60805160601c611fc5620001db6000398061032052806103c152806105ad5280610622528061085852806108e75280610b985280610be85280610ce15280610d6c5280610e3b5280611056528061111b52806111d05280611275528061135752806113ce528061152b52806115ab5250611fc56000f3fe608060405234801561001057600080fd5b50600436106101825760003560e01c80639291d563116100d8578063c494448e1161008c578063e4cca4b011610066578063e4cca4b0146102d7578063ea09f6c8146102ea578063ffebad30146102f257610182565b8063c494448e146102a9578063d2cee46f146102bc578063da09c72c146102cf57610182565b8063a318c1a4116100bd578063a318c1a414610270578063b5e893a514610283578063bb51e89f1461029657610182565b80639291d5631461024a57806397eef1871461025d57610182565b80636099ecb21161013a578063792a230f11610114578063792a230f146102275780638583b7fa1461022f578063865710f01461023757610182565b80636099ecb2146101ea5780636f7b2a621461020c578063781a29d11461021f57610182565b806346c96aac1161016b57806346c96aac146101c5578063491cad29146101cd5780634b2d9ffc146101e257610182565b806301e1c48d146101875780632d61a546146101b0575b600080fd5b61019a61019536600461199b565b6102fa565b6040516101a79190611ee9565b60405180910390f35b6101b861030f565b6040516101a79190611baf565b6101b861031e565b6101e06101db366004611947565b610342565b005b61019a6103a4565b6101fd6101f836600461199b565b6103aa565b6040516101a793929190611f09565b6101e061021a366004611a5c565b6104fe565b61019a6105e6565b6101b86105ec565b61019a6105fb565b6101e0610245366004611a2c565b6106f3565b6101e0610258366004611947565b610722565b6101e061026b366004611a2c565b61077b565b6101e061027e366004611a9d565b6107aa565b6101e0610291366004611947565b610918565b6101e06102a4366004611a5c565b610971565b6101e06102b7366004611963565b6109c2565b6101e06102ca366004611a5c565b610aec565b6101b8610c7b565b6101e06102e5366004611a9d565b610c8a565b6101b8610dc9565b6101b8610de1565b60006103068383610df9565b90505b92915050565b6002546001600160a01b031681565b7f000000000000000000000000000000000000000000000000000000000000000081565b6004546001600160a01b031633146103755760405162461bcd60e51b815260040161036c90611c73565b60405180910390fd5b6003805473ffffffffffffffffffffffffffffffffffffffff19166001600160a01b0392909216919091179055565b60015481565b6000806000846001600160a01b031663ffcd4263857f00000000000000000000000000000000000000000000000000000000000000006040518363ffffffff1660e01b81526004016103fd929190611ef2565b60006040518083038186803b15801561041557600080fd5b505afa158015610429573d6000803e3d6000fd5b505050506040513d6000823e601f3d908101601f191682016040526104519190810190611ae4565b905080935081945082955050505060006104e86127106104e2306001600160a01b0316638583b7fa6040518163ffffffff1660e01b815260040160206040518083038186803b1580156104a357600080fd5b505afa1580156104b7573d6000803e3d6000fd5b505050506040513d601f19601f820116820180604052508101906104db9190611a44565b8790610eba565b90610ef4565b90506104f48482610f36565b9350509250925092565b6001600160a01b038083166000908152600560209081526040808320878452909152902054839185911633146105465760405162461bcd60e51b815260040161036c90611dc1565b6105d5846000876000604051602401610560929190611f28565b60408051601f198184030181529190526020810180516001600160e01b03167fe2bbb158000000000000000000000000000000000000000000000000000000001790526001600160a01b037f000000000000000000000000000000000000000000000000000000000000000016929190610f78565b506105df8361102f565b5050505050565b60005481565b6003546001600160a01b031681565b6000805481901580159061061957506003546001600160a01b031615155b80156106b157507f00000000000000000000000000000000000000000000000000000000000000006001600160a01b0316635392fd1c6040518163ffffffff1660e01b815260040160206040518083038186803b15801561067957600080fd5b505afa15801561068d573d6000803e3d6000fd5b505050506040513d601f19601f820116820180604052508101906106b191906119c6565b156106bb57506000545b6000806001541180156106d857506002546001600160a01b031615155b156106e257506001545b6106ec828261161d565b9250505090565b6004546001600160a01b0316331461071d5760405162461bcd60e51b815260040161036c90611c73565b600055565b6004546001600160a01b0316331461074c5760405162461bcd60e51b815260040161036c90611c73565b6004805473ffffffffffffffffffffffffffffffffffffffff19166001600160a01b0392909216919091179055565b6004546001600160a01b031633146107a55760405162461bcd60e51b815260040161036c90611c73565b600155565b6001600160a01b038084166000908152600560209081526040808320888452909152902054849186911633146107f25760405162461bcd60e51b815260040161036c90611dc1565b610880856000888660405160240161080b929190611f39565b60408051601f198184030181529190526020810180516001600160e01b03167f441a3e70000000000000000000000000000000000000000000000000000000001790526001600160a01b037f000000000000000000000000000000000000000000000000000000000000000016929190610f78565b5061090f846000338660405160240161089a929190611bc3565b60408051601f198184030181529190526020810180516001600160e01b03167fa9059cbb000000000000000000000000000000000000000000000000000000001790526001600160a01b037f000000000000000000000000000000000000000000000000000000000000000016929190610f78565b50505050505050565b6004546001600160a01b031633146109425760405162461bcd60e51b815260040161036c90611c73565b6002805473ffffffffffffffffffffffffffffffffffffffff19166001600160a01b0392909216919091179055565b6001600160a01b038083166000908152600560209081526040808320878452909152902054839185911633146109b95760405162461bcd60e51b815260040161036c90611dc1565b6105df8361102f565b6004546001600160a01b031633146109ec5760405162461bcd60e51b815260040161036c90611c73565b6000816001600160a01b0316635eaec0e46040518163ffffffff1660e01b8152600401602060405180830381600087803b158015610a2957600080fd5b505af1158015610a3d573d6000803e3d6000fd5b505050506040513d601f19601f82011682018060405250810190610a619190611a44565b6001600160a01b0384811660009081526005602090815260408083208584529091529020549192501615610aa75760405162461bcd60e51b815260040161036c90611caa565b6001600160a01b03928316600090815260056020908152604080832093835292905220805473ffffffffffffffffffffffffffffffffffffffff191691909216179055565b6001600160a01b03808316600090815260056020908152604080832087845290915290205483918591163314610b345760405162461bcd60e51b815260040161036c90611dc1565b610bc084600087604051602401610b4b9190611ee9565b60408051601f198184030181529190526020810180516001600160e01b03167f5312ea8e000000000000000000000000000000000000000000000000000000001790526001600160a01b037f000000000000000000000000000000000000000000000000000000000000000016929190610f78565b506040516370a0823160e01b81526000906001600160a01b038516906370a0823190610c10907f000000000000000000000000000000000000000000000000000000000000000090600401611baf565b60206040518083038186803b158015610c2857600080fd5b505afa158015610c3c573d6000803e3d6000fd5b505050506040513d601f19601f82011682018060405250810190610c609190611a44565b905061090f846000338460405160240161089a929190611bc3565b6004546001600160a01b031681565b6001600160a01b03808416600090815260056020908152604080832088845290915290205484918691163314610cd25760405162461bcd60e51b815260040161036c90611dc1565b610d066001600160a01b0385167f000000000000000000000000000000000000000000000000000000000000000085611642565b610d948460008786604051602401610d1f929190611bc3565b60408051601f198184030181529190526020810180516001600160e01b03167f095ea7b3000000000000000000000000000000000000000000000000000000001790526001600160a01b037f000000000000000000000000000000000000000000000000000000000000000016929190610f78565b50610dae8560008886604051602401610560929190611f39565b5061090f846000876000604051602401610d1f929190611bdc565b7325d85e17dd9e544f6e9f8d44f99602dbf5a9734181565b736e84a6216ea6dacc71ee8e6b0a5b7322eebc0fdd81565b6040517f93f1a40b0000000000000000000000000000000000000000000000000000000081526000906001600160a01b038416906393f1a40b90610e639085907f000000000000000000000000000000000000000000000000000000000000000090600401611ef2565b604080518083038186803b158015610e7a57600080fd5b505afa158015610e8e573d6000803e3d6000fd5b505050506040513d601f19601f82011682018060405250810190610eb29190611b44565b509392505050565b600082610ec957506000610309565b82820282848281610ed657fe5b04146103065760405162461bcd60e51b815260040161036c90611d64565b600061030683836040518060400160405280601a81526020017f536166654d6174683a206469766973696f6e206279207a65726f0000000000008152506116b0565b600061030683836040518060400160405280601f81526020017f536166654d6174683a207375627472616374696f6e20756e646572666c6f77008152506116e9565b606060006060866001600160a01b031663b61d27f68787876040518463ffffffff1660e01b8152600401610fae93929190611bf8565b600060405180830381600087803b158015610fc857600080fd5b505af1158015610fdc573d6000803e3d6000fd5b505050506040513d6000823e601f3d908101601f1916820160405261100491908101906119e0565b91509150816110255760405162461bcd60e51b815260040161036c90611df8565b9695505050505050565b6001600160a01b03811673b31f66aa3c1e785363f0875a1b74e27b85fd66c714156110e9577f00000000000000000000000000000000000000000000000000000000000000006001600160a01b0316635a556f516040518163ffffffff1660e01b8152600401602060405180830381600087803b1580156110af57600080fd5b505af11580156110c3573d6000803e3d6000fd5b505050506040513d601f19601f820116820180604052508101906110e79190611a44565b505b6040516370a0823160e01b8152600090736e84a6216ea6dacc71ee8e6b0a5b7322eebc0fdd906370a0823190611143907f000000000000000000000000000000000000000000000000000000000000000090600401611baf565b60206040518083038186803b15801561115b57600080fd5b505afa15801561116f573d6000803e3d6000fd5b505050506040513d601f19601f820116820180604052508101906111939190611a44565b905060006001600160a01b0383166111ac576000611248565b6040516370a0823160e01b81526001600160a01b038416906370a08231906111f8907f000000000000000000000000000000000000000000000000000000000000000090600401611baf565b60206040518083038186803b15801561121057600080fd5b505afa158015611224573d6000803e3d6000fd5b505050506040513d601f19601f820116820180604052508101906112489190611a44565b905081156114bf57600080805411801561126c57506003546001600160a01b031615155b801561130457507f00000000000000000000000000000000000000000000000000000000000000006001600160a01b0316635392fd1c6040518163ffffffff1660e01b815260040160206040518083038186803b1580156112cc57600080fd5b505afa1580156112e0573d6000803e3d6000fd5b505050506040513d601f19601f8201168201806040525081019061130491906119c6565b156113f8576113246127106104e260005486610eba90919063ffffffff16565b6040517f7c0bb4ab0000000000000000000000000000000000000000000000000000000081529091506001600160a01b037f00000000000000000000000000000000000000000000000000000000000000001690637c0bb4ab9061138c908490600401611ee9565b600060405180830381600087803b1580156113a657600080fd5b505af11580156113ba573d6000803e3d6000fd5b50506003546113f892506001600160a01b037f0000000000000000000000000000000000000000000000000000000000000000811692501683611642565b60008060015411801561141557506002546001600160a01b031615155b15611475576114356127106104e260015487610eba90919063ffffffff16565b60025460405191925061147391736e84a6216ea6dacc71ee8e6b0a5b7322eebc0fdd9160009161089a916001600160a01b0316908690602401611bc3565b505b600061148b826114858786610f36565b90610f36565b90506114ba736e84a6216ea6dacc71ee8e6b0a5b7322eebc0fdd6000338460405160240161089a929190611bc3565b505050505b80156114e0576114de836000338460405160240161089a929190611bc3565b505b6040517ffc2f53b60000000000000000000000000000000000000000000000000000000081526000907325d85e17dd9e544f6e9f8d44f99602dbf5a973419063fc2f53b690611553907f000000000000000000000000000000000000000000000000000000000000000090600401611baf565b60206040518083038186803b15801561156b57600080fd5b505afa15801561157f573d6000803e3d6000fd5b505050506040513d601f19601f820116820180604052508101906115a39190611a44565b1115611618577f00000000000000000000000000000000000000000000000000000000000000006001600160a01b0316633b29b4bc6040518163ffffffff1660e01b8152600401600060405180830381600087803b15801561160457600080fd5b505af115801561090f573d6000803e3d6000fd5b505050565b6000828201838110156103065760405162461bcd60e51b815260040161036c90611c3c565b6116188363a9059cbb60e01b8484604051602401611661929190611bc3565b60408051601f198184030181529190526020810180516001600160e01b03167fffffffff0000000000000000000000000000000000000000000000000000000090931692909217909152611715565b600081836116d15760405162461bcd60e51b815260040161036c9190611c29565b5060008385816116dd57fe5b049150505b9392505050565b6000818484111561170d5760405162461bcd60e51b815260040161036c9190611c29565b505050900390565b606061176a826040518060400160405280602081526020017f5361666545524332303a206c6f772d6c6576656c2063616c6c206661696c6564815250856001600160a01b03166117a49092919063ffffffff16565b805190915015611618578080602001905181019061178891906119c6565b6116185760405162461bcd60e51b815260040161036c90611e8c565b60606117b384846000856117bb565b949350505050565b6060824710156117dd5760405162461bcd60e51b815260040161036c90611d07565b6117e68561187c565b6118025760405162461bcd60e51b815260040161036c90611e55565b60006060866001600160a01b0316858760405161181f9190611b93565b60006040518083038185875af1925050503d806000811461185c576040519150601f19603f3d011682016040523d82523d6000602084013e611861565b606091505b5091509150611871828286611886565b979650505050505050565b803b15155b919050565b606083156118955750816116e2565b8251156118a55782518084602001fd5b8160405162461bcd60e51b815260040161036c9190611c29565b8051801515811461188157600080fd5b600082601f8301126118df578081fd5b815167ffffffffffffffff808211156118f457fe5b604051601f8301601f19168101602001828111828210171561191257fe5b60405282815292508284830160200186101561192d57600080fd5b61193e836020830160208801611f47565b50505092915050565b600060208284031215611958578081fd5b813561030681611f77565b60008060408385031215611975578081fd5b823561198081611f77565b9150602083013561199081611f77565b809150509250929050565b600080604083850312156119ad578182fd5b82356119b881611f77565b946020939093013593505050565b6000602082840312156119d7578081fd5b610306826118bf565b600080604083850312156119f2578182fd5b6119fb836118bf565b9150602083015167ffffffffffffffff811115611a16578182fd5b611a22858286016118cf565b9150509250929050565b600060208284031215611a3d578081fd5b5035919050565b600060208284031215611a55578081fd5b5051919050565b600080600060608486031215611a70578081fd5b833592506020840135611a8281611f77565b91506040840135611a9281611f77565b809150509250925092565b60008060008060808587031215611ab2578081fd5b843593506020850135611ac481611f77565b92506040850135611ad481611f77565b9396929550929360600135925050565b60008060008060808587031215611af9578384fd5b845193506020850151611b0b81611f77565b604086015190935067ffffffffffffffff811115611b27578283fd5b611b33878288016118cf565b606096909601519497939650505050565b60008060408385031215611b56578182fd5b505080516020909101519092909150565b60008151808452611b7f816020860160208601611f47565b601f01601f19169290920160200192915050565b60008251611ba5818460208701611f47565b9190910192915050565b6001600160a01b0391909116815260200190565b6001600160a01b03929092168252602082015260400190565b6001600160a01b0392909216825260ff16602082015260400190565b60006001600160a01b038516825283602083015260606040830152611c206060830184611b67565b95945050505050565b6000602082526103066020830184611b67565b6020808252601b908201527f536166654d6174683a206164646974696f6e206f766572666c6f770000000000604082015260600190565b60208082526016908201527f4a6f65566f74657250726f78793a3a6f6e6c7944657600000000000000000000604082015260600190565b6020808252602d908201527f4a6f65566f74657250726f78793a3a537472617465677920666f72205049442060408201527f616c726561647920616464656400000000000000000000000000000000000000606082015260800190565b60208082526026908201527f416464726573733a20696e73756666696369656e742062616c616e636520666f60408201527f722063616c6c0000000000000000000000000000000000000000000000000000606082015260800190565b60208082526021908201527f536166654d6174683a206d756c7469706c69636174696f6e206f766572666c6f60408201527f7700000000000000000000000000000000000000000000000000000000000000606082015260800190565b6020808252601b908201527f4a6f65566f74657250726f78793a3a6f6e6c7953747261746567790000000000604082015260600190565b60208082526021908201527f4a6f65566f74657250726f78793a3a7361666545786563757465206661696c6560408201527f6400000000000000000000000000000000000000000000000000000000000000606082015260800190565b6020808252601d908201527f416464726573733a2063616c6c20746f206e6f6e2d636f6e7472616374000000604082015260600190565b6020808252602a908201527f5361666545524332303a204552433230206f7065726174696f6e20646964206e60408201527f6f74207375636365656400000000000000000000000000000000000000000000606082015260800190565b90815260200190565b9182526001600160a01b0316602082015260400190565b9283526001600160a01b03919091166020830152604082015260600190565b91825260ff16602082015260400190565b918252602082015260400190565b60005b83811015611f62578181015183820152602001611f4a565b83811115611f71576000848401525b50505050565b6001600160a01b0381168114611f8c57600080fd5b5056fea26469706673582212201a748f4b8e54d10fbaac69d1acc852d83b642527d25fbeda871c332cc2c4fe2e64736f6c63430007030033",
  "devdoc": {
    "details": "For accounting reasons, there is one approved strategy per Masterchef PID. In case of upgrade, use a new proxy.",
    "kind": "dev",
    "methods": {
      "approveStrategy(address,address)": {
        "details": "Very sensitive, restricted to devAddrCan only be set once per PID and staking contract (reported by the strategy)",
        "params": {
          "_stakingContract": "address",
          "_strategy": "address"
        }
      },
      "claimReward(uint256,address,address)": {
        "details": "Restricted to strategy with _pid",
        "params": {
          "_pid": "PID",
          "_stakingContract": "Masterchef"
        }
      },
      "deposit(uint256,address,address,uint256)": {
        "details": "Restricted to strategy with _pid",
        "params": {
          "_amount": "deposit amount",
          "_pid": "PID",
          "_stakingContract": "Masterchef",
          "_token": "Deposit asset"
        }
      },
      "distributeReward(uint256,address,address)": {
        "details": "Restricted to strategy with _pid",
        "params": {
          "_pid": "PID",
          "_stakingContract": "Masterchef"
        }
      },
      "emergencyWithdraw(uint256,address,address)": {
        "details": "Restricted to strategy with _pid",
        "params": {
          "_pid": "PID",
          "_stakingContract": "Masterchef",
          "_token": "Deposit asset"
        }
      },
      "pendingRewards(address,uint256)": {
        "params": {
          "_pid": "PID",
          "_stakingContract": "Masterchef"
        },
        "returns": {
          "bonusTokenAddress": "bonusTokenAddress",
          "pendingBonusToken": "pendingBonusToken",
          "pendingJoe": "pendingJoe"
        }
      },
      "reinvestFeeBips()": {
        "returns": {
          "_0": "reinvest fee"
        }
      },
      "setBoosterFee(uint256)": {
        "details": "Restricted to devAddr",
        "params": {
          "_boosterFeeBips": "new fee in bips (1% = 100 bips)"
        }
      },
      "setBoosterFeeReceiver(address)": {
        "details": "Restricted to devAddr",
        "params": {
          "_boosterFeeReceiver": "address"
        }
      },
      "setStakerFee(uint256)": {
        "details": "Restricted to devAddr",
        "params": {
          "_stakerFeeBips": "new fee in bips (1% = 100 bips)"
        }
      },
      "setStakerFeeReceiver(address)": {
        "details": "Restricted to devAddr",
        "params": {
          "_stakerFeeReceiver": "address"
        }
      },
      "updateDevAddr(address)": {
        "params": {
          "newValue": "address"
        }
      },
      "withdraw(uint256,address,address,uint256)": {
        "details": "Restricted to strategy with _pid",
        "params": {
          "_amount": "withdraw amount",
          "_pid": "PID",
          "_stakingContract": "Masterchef",
          "_token": "Deposit asset"
        }
      }
    },
    "version": 1
  },
  "userdoc": {
    "kind": "user",
    "methods": {
      "approveStrategy(address,address)": {
        "notice": "Add an approved strategy"
      },
      "claimReward(uint256,address,address)": {
        "notice": "Claim and distribute rewards"
      },
      "deposit(uint256,address,address,uint256)": {
        "notice": "Deposit function"
      },
      "distributeReward(uint256,address,address)": {
        "notice": "Distribute rewards"
      },
      "emergencyWithdraw(uint256,address,address)": {
        "notice": "Emergency withdraw function"
      },
      "pendingRewards(address,uint256)": {
        "notice": "Pending rewards matching interface for strategy"
      },
      "reinvestFeeBips()": {
        "notice": "Calculation of reinvest fee (boost + staking)"
      },
      "setBoosterFee(uint256)": {
        "notice": "Update booster fee"
      },
      "setBoosterFeeReceiver(address)": {
        "notice": "Update booster fee receiver"
      },
      "setStakerFee(uint256)": {
        "notice": "Update staker fee"
      },
      "setStakerFeeReceiver(address)": {
        "notice": "Update staker fee receiver"
      },
      "updateDevAddr(address)": {
        "notice": "Update devAddr"
      },
      "withdraw(uint256,address,address,uint256)": {
        "notice": "Withdraw function"
      }
    },
    "notice": "JoeVoterProxy is an upgradable contract. Strategies interact with JoeVoterProxy and JoeVoterProxy interacts with JoeVoter.",
    "version": 1
  },
  "storageLayout": {
    "storage": [
      {
        "astId": 75984,
        "contract": "contracts/strategies/JoeVoterProxy.sol:JoeVoterProxy",
        "label": "boosterFee",
        "offset": 0,
        "slot": "0",
        "type": "t_uint256"
      },
      {
        "astId": 75986,
        "contract": "contracts/strategies/JoeVoterProxy.sol:JoeVoterProxy",
        "label": "stakerFee",
        "offset": 0,
        "slot": "1",
        "type": "t_uint256"
      },
      {
        "astId": 75988,
        "contract": "contracts/strategies/JoeVoterProxy.sol:JoeVoterProxy",
        "label": "stakerFeeReceiver",
        "offset": 0,
        "slot": "2",
        "type": "t_address"
      },
      {
        "astId": 75990,
        "contract": "contracts/strategies/JoeVoterProxy.sol:JoeVoterProxy",
        "label": "boosterFeeReceiver",
        "offset": 0,
        "slot": "3",
        "type": "t_address"
      },
      {
        "astId": 76003,
        "contract": "contracts/strategies/JoeVoterProxy.sol:JoeVoterProxy",
        "label": "devAddr",
        "offset": 0,
        "slot": "4",
        "type": "t_address"
      },
      {
        "astId": 76009,
        "contract": "contracts/strategies/JoeVoterProxy.sol:JoeVoterProxy",
        "label": "approvedStrategies",
        "offset": 0,
        "slot": "5",
        "type": "t_mapping(t_address,t_mapping(t_uint256,t_address))"
      }
    ],
    "types": {
      "t_address": {
        "encoding": "inplace",
        "label": "address",
        "numberOfBytes": "20"
      },
      "t_mapping(t_address,t_mapping(t_uint256,t_address))": {
        "encoding": "mapping",
        "key": "t_address",
        "label": "mapping(address => mapping(uint256 => address))",
        "numberOfBytes": "32",
        "value": "t_mapping(t_uint256,t_address)"
      },
      "t_mapping(t_uint256,t_address)": {
        "encoding": "mapping",
        "key": "t_uint256",
        "label": "mapping(uint256 => address)",
        "numberOfBytes": "32",
        "value": "t_address"
      },
      "t_uint256": {
        "encoding": "inplace",
        "label": "uint256",
        "numberOfBytes": "32"
      }
    }
  }
}