{
  "address": "0xBdf43b3F19456105Cc231c86277f4Dd98B58f07B",
  "abi": [
    {
      "inputs": [],
      "stateMutability": "nonpayable",
      "type": "constructor"
    },
    {
      "inputs": [],
      "name": "DISABLED",
      "outputs": [
        {
          "internalType": "bool",
          "name": "",
          "type": "bool"
        }
      ],
      "stateMutability": "view",
      "type": "function"
    },
    {
      "inputs": [],
      "name": "PID",
      "outputs": [
        {
          "internalType": "uint256",
          "name": "",
          "type": "uint256"
        }
      ],
      "stateMutability": "view",
      "type": "function"
    },
    {
      "inputs": [],
      "name": "PROXY",
      "outputs": [
        {
          "internalType": "contract IJoeVoterProxy",
          "name": "",
          "type": "address"
        }
      ],
      "stateMutability": "view",
      "type": "function"
    },
    {
      "inputs": [],
      "name": "RECEIVER",
      "outputs": [
        {
          "internalType": "address",
          "name": "",
          "type": "address"
        }
      ],
      "stateMutability": "view",
      "type": "function"
    },
    {
      "inputs": [],
      "name": "STAKING_CONTRACT",
      "outputs": [
        {
          "internalType": "address",
          "name": "",
          "type": "address"
        }
      ],
      "stateMutability": "view",
      "type": "function"
    },
    {
      "inputs": [],
      "name": "devAddr",
      "outputs": [
        {
          "internalType": "address",
          "name": "",
          "type": "address"
        }
      ],
      "stateMutability": "view",
      "type": "function"
    },
    {
      "inputs": [],
      "name": "disable",
      "outputs": [],
      "stateMutability": "nonpayable",
      "type": "function"
    },
    {
      "inputs": [],
      "name": "transfer",
      "outputs": [],
      "stateMutability": "nonpayable",
      "type": "function"
    },
    {
      "inputs": [
        {
          "internalType": "address",
          "name": "receiver",
          "type": "address"
        }
      ],
      "name": "updateReceiver",
      "outputs": [],
      "stateMutability": "nonpayable",
      "type": "function"
    }
  ],
  "transactionHash": "0x2336f9f48d72cc9b2a77b9cc313940b5aea3ef5314b65edfe23c53cae1d0a949",
  "args": [],
  "solcInputHash": "8d0b9a77179467d7fdfbd987f3b68f1d",
  "bytecode": "0x608060405234801561001057600080fd5b50600080546001600160a01b0319163317905561066b806100326000396000f3fe608060405234801561001057600080fd5b50600436106100a35760003560e01c8063a8c92d4811610076578063ad7430cc1161005b578063ad7430cc1461013f578063da09c72c14610152578063da19ddfb1461015a57600080fd5b8063a8c92d48146100e8578063acb789981461011b57600080fd5b80632f2770db146100a85780635eaec0e4146100b25780637ba2196a146100cd5780638a4068dd146100e0575b600080fd5b6100b0610162565b005b6100ba600081565b6040519081526020015b60405180910390f35b6100b06100db3660046105b9565b6101ff565b6100b06102a1565b61010373c31e24f8a25a1dceccfd791ca25b62dcfec5c8f781565b6040516001600160a01b0390911681526020016100c4565b60005461012f90600160a01b900460ff1681565b60405190151581526020016100c4565b600054610103906001600160a01b031681565b610103610527565b610103600081565b61016a610527565b6001600160a01b0316336001600160a01b0316146101cf5760405162461bcd60e51b815260206004820152601760248201527f5472616e7366657248656c7065723a3a6f6e6c7944657600000000000000000060448201526064015b60405180910390fd5b600080547fffffffffffffffffffffff00ffffffffffffffffffffffffffffffffffffffff16600160a01b179055565b610207610527565b6001600160a01b0316336001600160a01b0316146102675760405162461bcd60e51b815260206004820152601760248201527f5472616e7366657248656c7065723a3a6f6e6c7944657600000000000000000060448201526064016101c6565b600080547fffffffffffffffffffffffff0000000000000000000000000000000000000000166001600160a01b0392909216919091179055565b600054600160a01b900460ff16156102fb5760405162461bcd60e51b815260206004820152601860248201527f5472616e7366657248656c7065723a3a64697361626c6564000000000000000060448201526064016101c6565b33321461034a5760405162461bcd60e51b815260206004820152601760248201527f5472616e7366657248656c7065723a3a6f6e6c79454f4100000000000000000060448201526064016101c6565b6040517fbb51e89f000000000000000000000000000000000000000000000000000000008152600060048201819052602482015273b31f66aa3c1e785363f0875a1b74e27b85fd66c7604482015273c31e24f8a25a1dceccfd791ca25b62dcfec5c8f79063bb51e89f90606401600060405180830381600087803b1580156103d157600080fd5b505af11580156103e5573d6000803e3d6000fd5b50506040517f70a082310000000000000000000000000000000000000000000000000000000081523060048201526000925073b31f66aa3c1e785363f0875a1b74e27b85fd66c791506370a0823190602401602060405180830381865afa158015610454573d6000803e3d6000fd5b505050506040513d601f19601f8201168201806040525081019061047891906105dd565b90508015610524576000546040517fa9059cbb0000000000000000000000000000000000000000000000000000000081526001600160a01b0390911660048201526024810182905273b31f66aa3c1e785363f0875a1b74e27b85fd66c79063a9059cbb906044016020604051808303816000875af11580156104fe573d6000803e3d6000fd5b505050506040513d601f19601f8201168201806040525081019061052291906105f6565b505b50565b600073c31e24f8a25a1dceccfd791ca25b62dcfec5c8f76001600160a01b031663da09c72c6040518163ffffffff1660e01b8152600401602060405180830381865afa15801561057b573d6000803e3d6000fd5b505050506040513d601f19601f8201168201806040525081019061059f9190610618565b905090565b6001600160a01b038116811461052457600080fd5b6000602082840312156105cb57600080fd5b81356105d6816105a4565b9392505050565b6000602082840312156105ef57600080fd5b5051919050565b60006020828403121561060857600080fd5b815180151581146105d657600080fd5b60006020828403121561062a57600080fd5b81516105d6816105a456fea2646970667358221220358425ba190a55413fc8cb1629aa7dced4459710c3f21994d70d90ab7abc9e4464736f6c634300080d0033",
  "devdoc": {
    "kind": "dev",
    "methods": {
      "devAddr()": {
        "details": "Admin rights are inherited from `PROXY`",
        "returns": {
          "_0": "address devAddr"
        }
      },
      "disable()": {
        "details": "Restricted to `devAddr`One-way change; contract cannot be subsequently enabled"
      },
      "transfer()": {
        "details": "Restricted to EOA"
      }
    },
    "version": 1
  },
  "userdoc": {
    "kind": "user",
    "methods": {
      "devAddr()": {
        "notice": "Reads `devAddr` from `PROXY`"
      },
      "disable()": {
        "notice": "Disable the contract functionality"
      },
      "transfer()": {
        "notice": "Claims AVAX/WAVAX from `PROXY` and transfers balance to `RECEIVER`"
      }
    },
    "notice": "TransferHelper moves stuck AVAX from JoeVoter to `RECEIVER`. The contract re-uses `devAddr` from JoeVoterProxy, which can disable transfers and change `RECEIVER`. While the contract is not disabled, anyone can call `transfer()`.  This TransferHelper should be disabled and upgraded in case more than one Strategy awards AVAX to JoeVoter or JoeVoterProxy is upgraded.",
    "version": 1
  },
  "storageLayout": {
    "storage": [
      {
        "astId": 46365,
        "contract": "contracts/strategies/traderjoe/TransferHelper.sol:TransferHelper",
        "label": "RECEIVER",
        "offset": 0,
        "slot": "0",
        "type": "t_address"
      },
      {
        "astId": 46367,
        "contract": "contracts/strategies/traderjoe/TransferHelper.sol:TransferHelper",
        "label": "DISABLED",
        "offset": 20,
        "slot": "0",
        "type": "t_bool"
      }
    ],
    "types": {
      "t_address": {
        "encoding": "inplace",
        "label": "address",
        "numberOfBytes": "20"
      },
      "t_bool": {
        "encoding": "inplace",
        "label": "bool",
        "numberOfBytes": "1"
      }
    }
  }
}