{
  "address": "0x5bc7B7950E02D6260440Ef3F1442849a8700C2ac",
  "abi": [
    {
      "inputs": [
        {
          "internalType": "string",
          "name": "_name",
          "type": "string"
        },
        {
          "internalType": "address",
          "name": "_depositToken",
          "type": "address"
        },
        {
          "components": [
            {
              "internalType": "address",
              "name": "token0",
              "type": "address"
            },
            {
              "internalType": "address",
              "name": "token1",
              "type": "address"
            }
          ],
          "internalType": "struct VariableRewardsStrategyForLP.SwapPairs",
          "name": "_swapPairs",
          "type": "tuple"
        },
        {
          "components": [
            {
              "internalType": "address",
              "name": "reward",
              "type": "address"
            },
            {
              "internalType": "address",
              "name": "swapPair",
              "type": "address"
            }
          ],
          "internalType": "struct VariableRewardsStrategy.RewardSwapPairs[]",
          "name": "_rewardSwapPairs",
          "type": "tuple[]"
        },
        {
          "internalType": "address",
          "name": "_stakingContract",
          "type": "address"
        },
        {
          "internalType": "address",
          "name": "_boosterFeeCollector",
          "type": "address"
        },
        {
          "internalType": "address",
          "name": "_timelock",
          "type": "address"
        },
        {
          "components": [
            {
              "internalType": "uint256",
              "name": "minTokensToReinvest",
              "type": "uint256"
            },
            {
              "internalType": "uint256",
              "name": "adminFeeBips",
              "type": "uint256"
            },
            {
              "internalType": "uint256",
              "name": "devFeeBips",
              "type": "uint256"
            },
            {
              "internalType": "uint256",
              "name": "reinvestRewardBips",
              "type": "uint256"
            }
          ],
          "internalType": "struct VariableRewardsStrategy.StrategySettings",
          "name": "_strategySettings",
          "type": "tuple"
        }
      ],
      "stateMutability": "nonpayable",
      "type": "constructor"
    },
    {
      "anonymous": false,
      "inputs": [
        {
          "indexed": false,
          "internalType": "address",
          "name": "rewardToken",
          "type": "address"
        },
        {
          "indexed": false,
          "internalType": "address",
          "name": "swapPair",
          "type": "address"
        }
      ],
      "name": "AddReward",
      "type": "event"
    },
    {
      "anonymous": false,
      "inputs": [
        {
          "indexed": true,
          "internalType": "address",
          "name": "account",
          "type": "address"
        }
      ],
      "name": "AllowDepositor",
      "type": "event"
    },
    {
      "anonymous": false,
      "inputs": [
        {
          "indexed": true,
          "internalType": "address",
          "name": "owner",
          "type": "address"
        },
        {
          "indexed": true,
          "internalType": "address",
          "name": "spender",
          "type": "address"
        },
        {
          "indexed": false,
          "internalType": "uint256",
          "name": "value",
          "type": "uint256"
        }
      ],
      "name": "Approval",
      "type": "event"
    },
    {
      "anonymous": false,
      "inputs": [
        {
          "indexed": true,
          "internalType": "address",
          "name": "account",
          "type": "address"
        },
        {
          "indexed": false,
          "internalType": "uint256",
          "name": "amount",
          "type": "uint256"
        }
      ],
      "name": "Deposit",
      "type": "event"
    },
    {
      "anonymous": false,
      "inputs": [
        {
          "indexed": false,
          "internalType": "bool",
          "name": "newValue",
          "type": "bool"
        }
      ],
      "name": "DepositsEnabled",
      "type": "event"
    },
    {
      "anonymous": false,
      "inputs": [
        {
          "indexed": true,
          "internalType": "address",
          "name": "previousOwner",
          "type": "address"
        },
        {
          "indexed": true,
          "internalType": "address",
          "name": "newOwner",
          "type": "address"
        }
      ],
      "name": "OwnershipTransferred",
      "type": "event"
    },
    {
      "anonymous": false,
      "inputs": [
        {
          "indexed": false,
          "internalType": "address",
          "name": "token",
          "type": "address"
        },
        {
          "indexed": false,
          "internalType": "uint256",
          "name": "amount",
          "type": "uint256"
        }
      ],
      "name": "Recovered",
      "type": "event"
    },
    {
      "anonymous": false,
      "inputs": [
        {
          "indexed": false,
          "internalType": "uint256",
          "name": "newTotalDeposits",
          "type": "uint256"
        },
        {
          "indexed": false,
          "internalType": "uint256",
          "name": "newTotalSupply",
          "type": "uint256"
        }
      ],
      "name": "Reinvest",
      "type": "event"
    },
    {
      "anonymous": false,
      "inputs": [
        {
          "indexed": true,
          "internalType": "address",
          "name": "account",
          "type": "address"
        }
      ],
      "name": "RemoveDepositor",
      "type": "event"
    },
    {
      "anonymous": false,
      "inputs": [
        {
          "indexed": false,
          "internalType": "address",
          "name": "rewardToken",
          "type": "address"
        }
      ],
      "name": "RemoveReward",
      "type": "event"
    },
    {
      "anonymous": false,
      "inputs": [
        {
          "indexed": true,
          "internalType": "address",
          "name": "from",
          "type": "address"
        },
        {
          "indexed": true,
          "internalType": "address",
          "name": "to",
          "type": "address"
        },
        {
          "indexed": false,
          "internalType": "uint256",
          "name": "value",
          "type": "uint256"
        }
      ],
      "name": "Transfer",
      "type": "event"
    },
    {
      "anonymous": false,
      "inputs": [
        {
          "indexed": false,
          "internalType": "uint256",
          "name": "oldValue",
          "type": "uint256"
        },
        {
          "indexed": false,
          "internalType": "uint256",
          "name": "newValue",
          "type": "uint256"
        }
      ],
      "name": "UpdateAdminFee",
      "type": "event"
    },
    {
      "anonymous": false,
      "inputs": [
        {
          "indexed": false,
          "internalType": "address",
          "name": "oldValue",
          "type": "address"
        },
        {
          "indexed": false,
          "internalType": "address",
          "name": "newValue",
          "type": "address"
        }
      ],
      "name": "UpdateDevAddr",
      "type": "event"
    },
    {
      "anonymous": false,
      "inputs": [
        {
          "indexed": false,
          "internalType": "uint256",
          "name": "oldValue",
          "type": "uint256"
        },
        {
          "indexed": false,
          "internalType": "uint256",
          "name": "newValue",
          "type": "uint256"
        }
      ],
      "name": "UpdateDevFee",
      "type": "event"
    },
    {
      "anonymous": false,
      "inputs": [
        {
          "indexed": false,
          "internalType": "uint256",
          "name": "oldValue",
          "type": "uint256"
        },
        {
          "indexed": false,
          "internalType": "uint256",
          "name": "newValue",
          "type": "uint256"
        }
      ],
      "name": "UpdateMaxTokensToDepositWithoutReinvest",
      "type": "event"
    },
    {
      "anonymous": false,
      "inputs": [
        {
          "indexed": false,
          "internalType": "uint256",
          "name": "oldValue",
          "type": "uint256"
        },
        {
          "indexed": false,
          "internalType": "uint256",
          "name": "newValue",
          "type": "uint256"
        }
      ],
      "name": "UpdateMinTokensToReinvest",
      "type": "event"
    },
    {
      "anonymous": false,
      "inputs": [
        {
          "indexed": false,
          "internalType": "uint256",
          "name": "oldValue",
          "type": "uint256"
        },
        {
          "indexed": false,
          "internalType": "uint256",
          "name": "newValue",
          "type": "uint256"
        }
      ],
      "name": "UpdateReinvestReward",
      "type": "event"
    },
    {
      "anonymous": false,
      "inputs": [
        {
          "indexed": true,
          "internalType": "address",
          "name": "account",
          "type": "address"
        },
        {
          "indexed": false,
          "internalType": "uint256",
          "name": "amount",
          "type": "uint256"
        }
      ],
      "name": "Withdraw",
      "type": "event"
    },
    {
      "inputs": [],
      "name": "ADMIN_FEE_BIPS",
      "outputs": [
        {
          "internalType": "uint256",
          "name": "",
          "type": "uint256"
        }
      ],
      "stateMutability": "view",
      "type": "function"
    },
    {
      "inputs": [],
      "name": "DEPOSITS_ENABLED",
      "outputs": [
        {
          "internalType": "bool",
          "name": "",
          "type": "bool"
        }
      ],
      "stateMutability": "view",
      "type": "function"
    },
    {
      "inputs": [],
      "name": "DEV_FEE_BIPS",
      "outputs": [
        {
          "internalType": "uint256",
          "name": "",
          "type": "uint256"
        }
      ],
      "stateMutability": "view",
      "type": "function"
    },
    {
      "inputs": [],
      "name": "DOMAIN_TYPEHASH",
      "outputs": [
        {
          "internalType": "bytes32",
          "name": "",
          "type": "bytes32"
        }
      ],
      "stateMutability": "view",
      "type": "function"
    },
    {
      "inputs": [],
      "name": "MAX_TOKENS_TO_DEPOSIT_WITHOUT_REINVEST",
      "outputs": [
        {
          "internalType": "uint256",
          "name": "",
          "type": "uint256"
        }
      ],
      "stateMutability": "view",
      "type": "function"
    },
    {
      "inputs": [],
      "name": "MIN_TOKENS_TO_REINVEST",
      "outputs": [
        {
          "internalType": "uint256",
          "name": "",
          "type": "uint256"
        }
      ],
      "stateMutability": "view",
      "type": "function"
    },
    {
      "inputs": [],
      "name": "PERMIT_TYPEHASH",
      "outputs": [
        {
          "internalType": "bytes32",
          "name": "",
          "type": "bytes32"
        }
      ],
      "stateMutability": "view",
      "type": "function"
    },
    {
      "inputs": [],
      "name": "REINVEST_REWARD_BIPS",
      "outputs": [
        {
          "internalType": "uint256",
          "name": "",
          "type": "uint256"
        }
      ],
      "stateMutability": "view",
      "type": "function"
    },
    {
      "inputs": [],
      "name": "VERSION_HASH",
      "outputs": [
        {
          "internalType": "bytes32",
          "name": "",
          "type": "bytes32"
        }
      ],
      "stateMutability": "view",
      "type": "function"
    },
    {
      "inputs": [
        {
          "internalType": "address",
          "name": "_rewardToken",
          "type": "address"
        },
        {
          "internalType": "address",
          "name": "_swapPair",
          "type": "address"
        }
      ],
      "name": "addReward",
      "outputs": [],
      "stateMutability": "nonpayable",
      "type": "function"
    },
    {
      "inputs": [
        {
          "internalType": "address",
          "name": "depositor",
          "type": "address"
        }
      ],
      "name": "allowDepositor",
      "outputs": [],
      "stateMutability": "nonpayable",
      "type": "function"
    },
    {
      "inputs": [
        {
          "internalType": "address",
          "name": "account",
          "type": "address"
        },
        {
          "internalType": "address",
          "name": "spender",
          "type": "address"
        }
      ],
      "name": "allowance",
      "outputs": [
        {
          "internalType": "uint256",
          "name": "",
          "type": "uint256"
        }
      ],
      "stateMutability": "view",
      "type": "function"
    },
    {
      "inputs": [
        {
          "internalType": "address",
          "name": "",
          "type": "address"
        }
      ],
      "name": "allowedDepositors",
      "outputs": [
        {
          "internalType": "bool",
          "name": "",
          "type": "bool"
        }
      ],
      "stateMutability": "view",
      "type": "function"
    },
    {
      "inputs": [
        {
          "internalType": "address",
          "name": "spender",
          "type": "address"
        },
        {
          "internalType": "uint256",
          "name": "amount",
          "type": "uint256"
        }
      ],
      "name": "approve",
      "outputs": [
        {
          "internalType": "bool",
          "name": "",
          "type": "bool"
        }
      ],
      "stateMutability": "nonpayable",
      "type": "function"
    },
    {
      "inputs": [
        {
          "internalType": "address",
          "name": "account",
          "type": "address"
        }
      ],
      "name": "balanceOf",
      "outputs": [
        {
          "internalType": "uint256",
          "name": "",
          "type": "uint256"
        }
      ],
      "stateMutability": "view",
      "type": "function"
    },
    {
      "inputs": [],
      "name": "boosterFeeCollector",
      "outputs": [
        {
          "internalType": "contract IBoosterFeeCollector",
          "name": "",
          "type": "address"
        }
      ],
      "stateMutability": "view",
      "type": "function"
    },
    {
      "inputs": [
        {
          "internalType": "uint256",
          "name": "_amount",
          "type": "uint256"
        }
      ],
      "name": "calculateDepositFee",
      "outputs": [
        {
          "internalType": "uint256",
          "name": "",
          "type": "uint256"
        }
      ],
      "stateMutability": "view",
      "type": "function"
    },
    {
      "inputs": [
        {
          "internalType": "uint256",
          "name": "_amount",
          "type": "uint256"
        }
      ],
      "name": "calculateWithdrawFee",
      "outputs": [
        {
          "internalType": "uint256",
          "name": "",
          "type": "uint256"
        }
      ],
      "stateMutability": "view",
      "type": "function"
    },
    {
      "inputs": [],
      "name": "checkReward",
      "outputs": [
        {
          "internalType": "uint256",
          "name": "",
          "type": "uint256"
        }
      ],
      "stateMutability": "view",
      "type": "function"
    },
    {
      "inputs": [],
      "name": "decimals",
      "outputs": [
        {
          "internalType": "uint8",
          "name": "",
          "type": "uint8"
        }
      ],
      "stateMutability": "view",
      "type": "function"
    },
    {
      "inputs": [
        {
          "internalType": "uint256",
          "name": "_amount",
          "type": "uint256"
        }
      ],
      "name": "deposit",
      "outputs": [],
      "stateMutability": "nonpayable",
      "type": "function"
    },
    {
      "inputs": [
        {
          "internalType": "address",
          "name": "_account",
          "type": "address"
        },
        {
          "internalType": "uint256",
          "name": "_amount",
          "type": "uint256"
        }
      ],
      "name": "depositFor",
      "outputs": [],
      "stateMutability": "nonpayable",
      "type": "function"
    },
    {
      "inputs": [],
      "name": "depositToken",
      "outputs": [
        {
          "internalType": "contract IERC20",
          "name": "",
          "type": "address"
        }
      ],
      "stateMutability": "view",
      "type": "function"
    },
    {
      "inputs": [
        {
          "internalType": "uint256",
          "name": "_amount",
          "type": "uint256"
        },
        {
          "internalType": "uint256",
          "name": "_deadline",
          "type": "uint256"
        },
        {
          "internalType": "uint8",
          "name": "_v",
          "type": "uint8"
        },
        {
          "internalType": "bytes32",
          "name": "_r",
          "type": "bytes32"
        },
        {
          "internalType": "bytes32",
          "name": "_s",
          "type": "bytes32"
        }
      ],
      "name": "depositWithPermit",
      "outputs": [],
      "stateMutability": "nonpayable",
      "type": "function"
    },
    {
      "inputs": [],
      "name": "devAddr",
      "outputs": [
        {
          "internalType": "address",
          "name": "",
          "type": "address"
        }
      ],
      "stateMutability": "view",
      "type": "function"
    },
    {
      "inputs": [],
      "name": "estimateDeployedBalance",
      "outputs": [
        {
          "internalType": "uint256",
          "name": "",
          "type": "uint256"
        }
      ],
      "stateMutability": "view",
      "type": "function"
    },
    {
      "inputs": [],
      "name": "estimateReinvestReward",
      "outputs": [
        {
          "internalType": "uint256",
          "name": "",
          "type": "uint256"
        }
      ],
      "stateMutability": "view",
      "type": "function"
    },
    {
      "inputs": [
        {
          "internalType": "uint256",
          "name": "amount",
          "type": "uint256"
        }
      ],
      "name": "getDepositTokensForShares",
      "outputs": [
        {
          "internalType": "uint256",
          "name": "",
          "type": "uint256"
        }
      ],
      "stateMutability": "view",
      "type": "function"
    },
    {
      "inputs": [],
      "name": "getDomainSeparator",
      "outputs": [
        {
          "internalType": "bytes32",
          "name": "",
          "type": "bytes32"
        }
      ],
      "stateMutability": "view",
      "type": "function"
    },
    {
      "inputs": [
        {
          "internalType": "uint256",
          "name": "amount",
          "type": "uint256"
        }
      ],
      "name": "getSharesForDepositTokens",
      "outputs": [
        {
          "internalType": "uint256",
          "name": "",
          "type": "uint256"
        }
      ],
      "stateMutability": "view",
      "type": "function"
    },
    {
      "inputs": [],
      "name": "name",
      "outputs": [
        {
          "internalType": "string",
          "name": "",
          "type": "string"
        }
      ],
      "stateMutability": "view",
      "type": "function"
    },
    {
      "inputs": [
        {
          "internalType": "address",
          "name": "",
          "type": "address"
        }
      ],
      "name": "nonces",
      "outputs": [
        {
          "internalType": "uint256",
          "name": "",
          "type": "uint256"
        }
      ],
      "stateMutability": "view",
      "type": "function"
    },
    {
      "inputs": [],
      "name": "numberOfAllowedDepositors",
      "outputs": [
        {
          "internalType": "uint256",
          "name": "",
          "type": "uint256"
        }
      ],
      "stateMutability": "view",
      "type": "function"
    },
    {
      "inputs": [],
      "name": "owner",
      "outputs": [
        {
          "internalType": "address",
          "name": "",
          "type": "address"
        }
      ],
      "stateMutability": "view",
      "type": "function"
    },
    {
      "inputs": [
        {
          "internalType": "address",
          "name": "owner",
          "type": "address"
        },
        {
          "internalType": "address",
          "name": "spender",
          "type": "address"
        },
        {
          "internalType": "uint256",
          "name": "value",
          "type": "uint256"
        },
        {
          "internalType": "uint256",
          "name": "deadline",
          "type": "uint256"
        },
        {
          "internalType": "uint8",
          "name": "v",
          "type": "uint8"
        },
        {
          "internalType": "bytes32",
          "name": "r",
          "type": "bytes32"
        },
        {
          "internalType": "bytes32",
          "name": "s",
          "type": "bytes32"
        }
      ],
      "name": "permit",
      "outputs": [],
      "stateMutability": "nonpayable",
      "type": "function"
    },
    {
      "inputs": [
        {
          "internalType": "uint256",
          "name": "amount",
          "type": "uint256"
        }
      ],
      "name": "recoverAVAX",
      "outputs": [],
      "stateMutability": "nonpayable",
      "type": "function"
    },
    {
      "inputs": [
        {
          "internalType": "address",
          "name": "tokenAddress",
          "type": "address"
        },
        {
          "internalType": "uint256",
          "name": "tokenAmount",
          "type": "uint256"
        }
      ],
      "name": "recoverERC20",
      "outputs": [],
      "stateMutability": "nonpayable",
      "type": "function"
    },
    {
      "inputs": [],
      "name": "reinvest",
      "outputs": [],
      "stateMutability": "nonpayable",
      "type": "function"
    },
    {
      "inputs": [
        {
          "internalType": "address",
          "name": "depositor",
          "type": "address"
        }
      ],
      "name": "removeDepositor",
      "outputs": [],
      "stateMutability": "nonpayable",
      "type": "function"
    },
    {
      "inputs": [
        {
          "internalType": "address",
          "name": "_rewardToken",
          "type": "address"
        }
      ],
      "name": "removeReward",
      "outputs": [],
      "stateMutability": "nonpayable",
      "type": "function"
    },
    {
      "inputs": [],
      "name": "renounceOwnership",
      "outputs": [],
      "stateMutability": "nonpayable",
      "type": "function"
    },
    {
      "inputs": [
        {
          "internalType": "uint256",
          "name": "_minReturnAmountAccepted",
          "type": "uint256"
        },
        {
          "internalType": "bool",
          "name": "",
          "type": "bool"
        }
      ],
      "name": "rescueDeployedFunds",
      "outputs": [],
      "stateMutability": "nonpayable",
      "type": "function"
    },
    {
      "inputs": [
        {
          "internalType": "address",
          "name": "token",
          "type": "address"
        },
        {
          "internalType": "address",
          "name": "spender",
          "type": "address"
        }
      ],
      "name": "revokeAllowance",
      "outputs": [],
      "stateMutability": "nonpayable",
      "type": "function"
    },
    {
      "inputs": [],
      "name": "rewardCount",
      "outputs": [
        {
          "internalType": "uint256",
          "name": "",
          "type": "uint256"
        }
      ],
      "stateMutability": "view",
      "type": "function"
    },
    {
      "inputs": [
        {
          "internalType": "address",
          "name": "",
          "type": "address"
        }
      ],
      "name": "rewardSwapPairs",
      "outputs": [
        {
          "internalType": "address",
          "name": "",
          "type": "address"
        }
      ],
      "stateMutability": "view",
      "type": "function"
    },
    {
      "inputs": [],
      "name": "rewardToken",
      "outputs": [
        {
          "internalType": "contract IERC20",
          "name": "",
          "type": "address"
        }
      ],
      "stateMutability": "view",
      "type": "function"
    },
    {
      "inputs": [],
      "name": "setAllowances",
      "outputs": [],
      "stateMutability": "nonpayable",
      "type": "function"
    },
    {
      "inputs": [
        {
          "internalType": "uint256",
          "name": "",
          "type": "uint256"
        }
      ],
      "name": "supportedRewards",
      "outputs": [
        {
          "internalType": "address",
          "name": "",
          "type": "address"
        }
      ],
      "stateMutability": "view",
      "type": "function"
    },
    {
      "inputs": [],
      "name": "symbol",
      "outputs": [
        {
          "internalType": "string",
          "name": "",
          "type": "string"
        }
      ],
      "stateMutability": "view",
      "type": "function"
    },
    {
      "inputs": [],
      "name": "totalDeposits",
      "outputs": [
        {
          "internalType": "uint256",
          "name": "",
          "type": "uint256"
        }
      ],
      "stateMutability": "view",
      "type": "function"
    },
    {
      "inputs": [],
      "name": "totalSupply",
      "outputs": [
        {
          "internalType": "uint256",
          "name": "",
          "type": "uint256"
        }
      ],
      "stateMutability": "view",
      "type": "function"
    },
    {
      "inputs": [
        {
          "internalType": "address",
          "name": "dst",
          "type": "address"
        },
        {
          "internalType": "uint256",
          "name": "amount",
          "type": "uint256"
        }
      ],
      "name": "transfer",
      "outputs": [
        {
          "internalType": "bool",
          "name": "",
          "type": "bool"
        }
      ],
      "stateMutability": "nonpayable",
      "type": "function"
    },
    {
      "inputs": [
        {
          "internalType": "address",
          "name": "src",
          "type": "address"
        },
        {
          "internalType": "address",
          "name": "dst",
          "type": "address"
        },
        {
          "internalType": "uint256",
          "name": "amount",
          "type": "uint256"
        }
      ],
      "name": "transferFrom",
      "outputs": [
        {
          "internalType": "bool",
          "name": "",
          "type": "bool"
        }
      ],
      "stateMutability": "nonpayable",
      "type": "function"
    },
    {
      "inputs": [
        {
          "internalType": "address",
          "name": "newOwner",
          "type": "address"
        }
      ],
      "name": "transferOwnership",
      "outputs": [],
      "stateMutability": "nonpayable",
      "type": "function"
    },
    {
      "inputs": [
        {
          "internalType": "uint256",
          "name": "newValue",
          "type": "uint256"
        }
      ],
      "name": "updateAdminFee",
      "outputs": [],
      "stateMutability": "nonpayable",
      "type": "function"
    },
    {
      "inputs": [
        {
          "internalType": "address",
          "name": "_collector",
          "type": "address"
        }
      ],
      "name": "updateBoosterFeeCollector",
      "outputs": [],
      "stateMutability": "nonpayable",
      "type": "function"
    },
    {
      "inputs": [
        {
          "internalType": "bool",
          "name": "newValue",
          "type": "bool"
        }
      ],
      "name": "updateDepositsEnabled",
      "outputs": [],
      "stateMutability": "nonpayable",
      "type": "function"
    },
    {
      "inputs": [
        {
          "internalType": "address",
          "name": "newValue",
          "type": "address"
        }
      ],
      "name": "updateDevAddr",
      "outputs": [],
      "stateMutability": "nonpayable",
      "type": "function"
    },
    {
      "inputs": [
        {
          "internalType": "uint256",
          "name": "newValue",
          "type": "uint256"
        }
      ],
      "name": "updateDevFee",
      "outputs": [],
      "stateMutability": "nonpayable",
      "type": "function"
    },
    {
      "inputs": [
        {
          "internalType": "uint256",
          "name": "newValue",
          "type": "uint256"
        }
      ],
      "name": "updateMaxTokensToDepositWithoutReinvest",
      "outputs": [],
      "stateMutability": "nonpayable",
      "type": "function"
    },
    {
      "inputs": [
        {
          "internalType": "uint256",
          "name": "newValue",
          "type": "uint256"
        }
      ],
      "name": "updateMinTokensToReinvest",
      "outputs": [],
      "stateMutability": "nonpayable",
      "type": "function"
    },
    {
      "inputs": [
        {
          "internalType": "uint256",
          "name": "newValue",
          "type": "uint256"
        }
      ],
      "name": "updateReinvestReward",
      "outputs": [],
      "stateMutability": "nonpayable",
      "type": "function"
    },
    {
      "inputs": [],
      "name": "vectorPoolHelper",
      "outputs": [
        {
          "internalType": "contract IVectorJoePoolHelper",
          "name": "",
          "type": "address"
        }
      ],
      "stateMutability": "view",
      "type": "function"
    },
    {
      "inputs": [
        {
          "internalType": "uint256",
          "name": "_amount",
          "type": "uint256"
        }
      ],
      "name": "withdraw",
      "outputs": [],
      "stateMutability": "nonpayable",
      "type": "function"
    }
  ],
  "transactionHash": "0x349c800c23b624d9e2944024ba015f11a47aae265b67c47b23950e9f7de621b5",
  "args": [
    "Yield Yak: Vector x Trader Joe WBTC.e-AVAX",
    "0xd5a37dC5C9A396A03dd1136Fc76A1a02B1c88Ffa",
    {
      "token0": "0xd5a37dC5C9A396A03dd1136Fc76A1a02B1c88Ffa",
      "token1": "0x0000000000000000000000000000000000000000"
    },
    [
      {
        "reward": "0x6e84a6216ea6dacc71ee8e6b0a5b7322eebc0fdd",
        "swapPair": "0x454E67025631C065d3cFAD6d71E6892f74487a15"
      },
      {
        "reward": "0x5817D4F0b62A59b17f75207DA1848C2cE75e7AF4",
        "swapPair": "0x9ef0c12b787f90f59cbbe0b611b82d30cab92929"
      }
    ],
    "0x4117202eF61d362863331a780cA8848f3eA0E7e7",
    "0xA1cfc90A52ba3453A78F460b8BE1FcDe068E29e7",
    "0xDcEDF06Fd33E1D7b6eb4b309f779a0e9D3172e44",
    {
      "minTokensToReinvest": "10000000000000000",
      "adminFeeBips": 0,
      "devFeeBips": 500,
      "reinvestRewardBips": 500
    }
  ],
  "solcInputHash": "98a01727c3746a8b5393cdc10ae5dfd1",
  "bytecode": "0x60e0604052600960a0819052685969656c642059616b60b81b60c09081526200002c916000919062001481565b506040805180820190915260038082526216549560ea1b6020909201918252620000599160019162001481565b503480156200006757600080fd5b5060405162006d3838038062006d388339810160408190526200008a91620016a1565b87878787858585858484846000620000a16200028f565b600680546001600160a01b0319166001600160a01b0383169081179091556040519192509060009060008051602062006cf8833981519152908290a3508451620000f390600090602088019062001481565b50600980546001600160a01b0386166001600160a01b031991821617909155600a8054821660008051602062006d18833981519152179055600b8054909116732d580f9cf2fb2d09bc411532988f2afda4e7beff17905560005b8351811015620001a257620001998482815181106200016857fe5b6020026020010151600001518583815181106200018157fe5b6020026020010151602001516200029360201b60201c565b6001016200014d565b508051620001b090620003c7565b6020810151620001c0906200044f565b6040810151620001d0906200051d565b6060810151620001e090620005d7565b620001ec600162000691565b620001f78262000739565b7fc7606d21ac05cd309191543e409f0845c016120563783d70e4f41419dc0ef2346000806040516200022b9291906200180f565b60405180910390a150505050506200024984620007f360201b60201c565b505050505060609490941b6001600160601b0319166080525050601780546001600160a01b0319166001600160a01b03929092169190911790555062001b089350505050565b3390565b600a546001600160a01b03838116911614620002fe57620002d68183600a60009054906101000a90046001600160a01b0316620011de60201b620020761760201c565b620002fe5760405162461bcd60e51b8152600401620002f5906200181d565b60405180910390fd5b6001600160a01b038083166000818152601260209081526040822080549486166001600160a01b03199586161790556013805460018181018355919093527f66de8ffda797e3de9c05e8fc57b3bf0ec28a930d40b0d285d93c06501cf6a090909201805490941690921790925560145462000384929091620022c762001443821b17901c565b6014556040517f916e172c080569186aa7ea048268267257cf7cc49505908863f747bca8620f8090620003bb9084908490620017ea565b60405180910390a15050565b620003d16200028f565b6001600160a01b0316620003e462001472565b6001600160a01b0316146200040d5760405162461bcd60e51b8152600401620002f590620019ac565b7f481f79ac3a523b6d6db3c5a720e190e986d1cc1b41adcdf50f9caef849901100600c5482604051620004429291906200180f565b60405180910390a1600c55565b620004596200028f565b6001600160a01b03166200046c62001472565b6001600160a01b031614620004955760405162461bcd60e51b8152600401620002f590620019ac565b612710620004cf600f54620004bb601154856200144360201b620022c71790919060201c565b6200144360201b620022c71790919060201c565b1115620004db57600080fd5b7f3cc372f330f95ac9540626dc8a25f5bf21ba607215a5d58304cb804d446f104a60105482604051620005109291906200180f565b60405180910390a1601055565b620005276200028f565b6001600160a01b03166200053a62001472565b6001600160a01b031614620005635760405162461bcd60e51b8152600401620002f590620019ac565b61271062000589600f54620004bb601054856200144360201b620022c71790919060201c565b11156200059557600080fd5b7f2a42303d002f0ba6cfe8259c91d4684443fb0b3de286ba74991175d65172613160115482604051620005ca9291906200180f565b60405180910390a1601155565b620005e16200028f565b6001600160a01b0316620005f462001472565b6001600160a01b0316146200061d5760405162461bcd60e51b8152600401620002f590620019ac565b61271062000643601154620004bb601054856200144360201b620022c71790919060201c565b11156200064f57600080fd5b7fe7f97d51d307dc44045597c9978bec0f842e6bb40d19b9444084cfa30d9ed4f2600f5482604051620006849291906200180f565b60405180910390a1600f55565b6200069b6200028f565b6001600160a01b0316620006ae62001472565b6001600160a01b031614620006d75760405162461bcd60e51b8152600401620002f590620019ac565b600e5460ff1615158115151415620006ee57600080fd5b600e805460ff19168215151790556040517f7b014ed3854e7f5cb0218d58b3c6ae7d53a68bb0af2f67bfb029ea42c38a7e85906200072e90839062001804565b60405180910390a150565b620007436200028f565b6001600160a01b03166200075662001472565b6001600160a01b0316146200077f5760405162461bcd60e51b8152600401620002f590620019ac565b6001600160a01b038116620007a85760405162461bcd60e51b8152600401620002f5906200187b565b6006546040516001600160a01b0380841692169060008051602062006cf883398151915290600090a3600680546001600160a01b0319166001600160a01b0392909216919091179055565b600960009054906101000a90046001600160a01b03166001600160a01b0316630dfe16816040518163ffffffff1660e01b815260040160206040518083038186803b1580156200084257600080fd5b505afa15801562000857573d6000803e3d6000fd5b505050506040513d601f19601f820116820180604052508101906200087d919062001684565b6001600160a01b031660008051602062006d188339815191526001600160a01b031614158015620009585750600960009054906101000a90046001600160a01b03166001600160a01b031663d21220a76040518163ffffffff1660e01b815260040160206040518083038186803b158015620008f857600080fd5b505afa1580156200090d573d6000803e3d6000fd5b505050506040513d601f19601f8201168201806040525081019062000933919062001684565b6001600160a01b031660008051602062006d188339815191526001600160a01b031614155b156200102a5780516001600160a01b0316620009885760405162461bcd60e51b8152600401620002f59062001963565b60208101516001600160a01b0316620009b55760405162461bcd60e51b8152600401620002f59062001a3e565b8051601580546001600160a01b03199081166001600160a01b039384161791829055602080850151601680549093169085161790915560408051630dfe168160e01b8152905160008051602062006d18833981519152949390931692630dfe168192600480840193919291829003018186803b15801562000a3557600080fd5b505afa15801562000a4a573d6000803e3d6000fd5b505050506040513d601f19601f8201168201806040525081019062000a70919062001684565b6001600160a01b0316148062000b1b57506015546040805163d21220a760e01b8152905160008051602062006d18833981519152926001600160a01b03169163d21220a7916004808301926020929190829003018186803b15801562000ad557600080fd5b505afa15801562000aea573d6000803e3d6000fd5b505050506040513d601f19601f8201168201806040525081019062000b10919062001684565b6001600160a01b0316145b62000b3a5760405162461bcd60e51b8152600401620002f590620018f8565b600960009054906101000a90046001600160a01b03166001600160a01b0316630dfe16816040518163ffffffff1660e01b815260040160206040518083038186803b15801562000b8957600080fd5b505afa15801562000b9e573d6000803e3d6000fd5b505050506040513d601f19601f8201168201806040525081019062000bc4919062001684565b6001600160a01b0316601560009054906101000a90046001600160a01b03166001600160a01b0316630dfe16816040518163ffffffff1660e01b815260040160206040518083038186803b15801562000c1c57600080fd5b505afa15801562000c31573d6000803e3d6000fd5b505050506040513d601f19601f8201168201806040525081019062000c57919062001684565b6001600160a01b0316148062000d905750600960009054906101000a90046001600160a01b03166001600160a01b0316630dfe16816040518163ffffffff1660e01b815260040160206040518083038186803b15801562000cb757600080fd5b505afa15801562000ccc573d6000803e3d6000fd5b505050506040513d601f19601f8201168201806040525081019062000cf2919062001684565b6001600160a01b0316601560009054906101000a90046001600160a01b03166001600160a01b031663d21220a76040518163ffffffff1660e01b815260040160206040518083038186803b15801562000d4a57600080fd5b505afa15801562000d5f573d6000803e3d6000fd5b505050506040513d601f19601f8201168201806040525081019062000d85919062001684565b6001600160a01b0316145b62000daf5760405162461bcd60e51b8152600401620002f590620019e1565b600960009054906101000a90046001600160a01b03166001600160a01b031663d21220a76040518163ffffffff1660e01b815260040160206040518083038186803b15801562000dfe57600080fd5b505afa15801562000e13573d6000803e3d6000fd5b505050506040513d601f19601f8201168201806040525081019062000e39919062001684565b6001600160a01b0316601660009054906101000a90046001600160a01b03166001600160a01b0316630dfe16816040518163ffffffff1660e01b815260040160206040518083038186803b15801562000e9157600080fd5b505afa15801562000ea6573d6000803e3d6000fd5b505050506040513d601f19601f8201168201806040525081019062000ecc919062001684565b6001600160a01b03161480620010055750600960009054906101000a90046001600160a01b03166001600160a01b031663d21220a76040518163ffffffff1660e01b815260040160206040518083038186803b15801562000f2c57600080fd5b505afa15801562000f41573d6000803e3d6000fd5b505050506040513d601f19601f8201168201806040525081019062000f67919062001684565b6001600160a01b0316601660009054906101000a90046001600160a01b03166001600160a01b031663d21220a76040518163ffffffff1660e01b815260040160206040518083038186803b15801562000fbf57600080fd5b505afa15801562000fd4573d6000803e3d6000fd5b505050506040513d601f19601f8201168201806040525081019062000ffa919062001684565b6001600160a01b0316145b620010245760405162461bcd60e51b8152600401620002f59062001a87565b620011db565b600960009054906101000a90046001600160a01b03166001600160a01b0316630dfe16816040518163ffffffff1660e01b815260040160206040518083038186803b1580156200107957600080fd5b505afa1580156200108e573d6000803e3d6000fd5b505050506040513d601f19601f82011682018060405250810190620010b4919062001684565b6001600160a01b031660008051602062006d188339815191526001600160a01b031614156200110557600954601680546001600160a01b0319166001600160a01b03909216919091179055620011db565b600960009054906101000a90046001600160a01b03166001600160a01b031663d21220a76040518163ffffffff1660e01b815260040160206040518083038186803b1580156200115457600080fd5b505afa15801562001169573d6000803e3d6000fd5b505050506040513d601f19601f820116820180604052508101906200118f919062001684565b6001600160a01b031660008051602062006d188339815191526001600160a01b03161415620011db57600954601580546001600160a01b0319166001600160a01b039092169190911790555b50565b6000836001600160a01b0316630dfe16816040518163ffffffff1660e01b815260040160206040518083038186803b1580156200121a57600080fd5b505afa1580156200122f573d6000803e3d6000fd5b505050506040513d601f19601f8201168201806040525081019062001255919062001684565b6001600160a01b0316836001600160a01b03161480620012fa5750836001600160a01b031663d21220a76040518163ffffffff1660e01b815260040160206040518083038186803b158015620012aa57600080fd5b505afa158015620012bf573d6000803e3d6000fd5b505050506040513d601f19601f82011682018060405250810190620012e5919062001684565b6001600160a01b0316836001600160a01b0316145b80156200141c5750836001600160a01b0316630dfe16816040518163ffffffff1660e01b815260040160206040518083038186803b1580156200133c57600080fd5b505afa15801562001351573d6000803e3d6000fd5b505050506040513d601f19601f8201168201806040525081019062001377919062001684565b6001600160a01b0316826001600160a01b031614806200141c5750836001600160a01b031663d21220a76040518163ffffffff1660e01b815260040160206040518083038186803b158015620013cc57600080fd5b505afa158015620013e1573d6000803e3d6000fd5b505050506040513d601f19601f8201168201806040525081019062001407919062001684565b6001600160a01b0316826001600160a01b0316145b80156200143b5750816001600160a01b0316836001600160a01b031614155b949350505050565b6000828201838110156200146b5760405162461bcd60e51b8152600401620002f590620018c1565b9392505050565b6006546001600160a01b031690565b828054600181600116156101000203166002900490600052602060002090601f016020900481019282601f10620014c457805160ff1916838001178555620014f4565b82800160010185558215620014f4579182015b82811115620014f4578251825591602001919060010190620014d7565b506200150292915062001506565b5090565b5b8082111562001502576000815560010162001507565b80516001600160a01b03811681146200153557600080fd5b919050565b600082601f8301126200154b578081fd5b81516001600160401b038111156200155f57fe5b602062001570818284020162001ae4565b82815292508083018482016040808502870184018810156200159157600080fd5b60005b85811015620015bc57620015a98984620015c8565b8452928401929181019160010162001594565b50505050505092915050565b600060408284031215620015da578081fd5b604080519081016001600160401b0381118282101715620015f757fe5b60405290508062001608836200151d565b815262001618602084016200151d565b60208201525092915050565b60006080828403121562001636578081fd5b604051608081016001600160401b03811182821017156200165357fe5b8060405250809150825181526020830151602082015260408301516040820152606083015160608201525092915050565b60006020828403121562001696578081fd5b6200146b826200151d565b600080600080600080600080610180898b031215620016be578384fd5b88516001600160401b0380821115620016d5578586fd5b818b0191508b601f830112620016e9578586fd5b815181811115620016f657fe5b60206200170c601f8301601f1916820162001ae4565b8281528e8284870101111562001720578889fd5b885b838110156200173f57858101830151828201840152820162001722565b838111156200175057898385840101525b509b50620017608d82016200151d565b9a505050620017738c60408d01620015c8565b975060808b015191508082111562001789578586fd5b50620017988b828c016200153a565b955050620017a960a08a016200151d565b9350620017b960c08a016200151d565b9250620017c960e08a016200151d565b9150620017db8a6101008b0162001624565b90509295985092959890939650565b6001600160a01b0392831681529116602082015260400190565b901515815260200190565b918252602082015260400190565b602080825260409082018190527f5661726961626c655265776172647353747261746567793a3a53776170207061908201527f697220646f6573206e6f7420636f6e7461696e2072657761726420746f6b656e606082015260800190565b60208082526026908201527f4f776e61626c653a206e6577206f776e657220697320746865207a65726f206160408201526564647265737360d01b606082015260800190565b6020808252601b908201527f536166654d6174683a206164646974696f6e206f766572666c6f770000000000604082015260600190565b60208082526045908201527f53776170207061697220737570706c69656420646f6573206e6f74206861766560408201527f207468652072657761726420746f6b656e206173206f6e65206f662069742773606082015264103830b4b960d91b608082015260a00190565b60208082526029908201527f5377617020706169722030206973206e656365737361727920627574206e6f74604082015268081cdd5c1c1b1a595960ba1b606082015260800190565b6020808252818101527f4f776e61626c653a2063616c6c6572206973206e6f7420746865206f776e6572604082015260600190565b60208082526038908201527f537761702070616972203020737570706c69656420646f6573206e6f74206d6160408201527f74636820746865207061697220696e207175657374696f6e0000000000000000606082015260800190565b60208082526029908201527f5377617020706169722031206973206e656365737361727920627574206e6f74604082015268081cdd5c1c1b1a595960ba1b606082015260800190565b60208082526038908201527f537761702070616972203120737570706c69656420646f6573206e6f74206d6160408201527f74636820746865207061697220696e207175657374696f6e0000000000000000606082015260800190565b6040518181016001600160401b038111828210171562001b0057fe5b604052919050565b60805160601c6151a062001b5860003980610fa3528061193e52806125c85280612ac05280612b405280612c9b5280612f17528061354452806139ab5280613a585280613ae752506151a06000f3fe608060405234801561001057600080fd5b50600436106103d05760003560e01c80638aff733d116101ff578063be60217b1161011a578063dd8ce4d6116100ad578063ed24911d1161007c578063ed24911d14610764578063f2fde38b1461076c578063f7c618c11461077f578063fdb5a03e14610787576103d0565b8063dd8ce4d614610718578063e21ac8251461072b578063e75ab0451461073e578063eab89a5a14610751576103d0565b8063d505accf116100e9578063d505accf146106e2578063da09c72c146106f5578063dbd9a4d4146106fd578063dd62ed3e14610705576103d0565b8063be60217b146106b7578063c4b24a46146106bf578063c89039c5146106c7578063cff1b6ef146106cf576103d0565b8063a5534e7111610192578063b52a321f11610161578063b52a321f1461068c578063b6b55f2514610694578063b9e57b80146106a7578063bd079f55146106af576103d0565b8063a5534e7114610640578063a8ae2b7c14610653578063a9059cbb14610666578063ac0d31ff14610679576103d0565b806395d89b41116101ce57806395d89b411461060a57806399729ec1146106125780639e4e731814610625578063a4d5e67c1461062d576103d0565b80638aff733d146105d45780638b73e606146105dc5780638da5cb5b146105ef5780639291d563146105f7576103d0565b8063483c2ef0116102ef578063715018a6116102825780637d882097116102515780637d882097146105935780637ecebe001461059b57806381837230146105ae5780638980f11f146105c1576103d0565b8063715018a614610568578063789139bc1461057057806379085425146105785780637ae2677314610580576103d0565b80634ebb7916116102be5780634ebb7916146105275780635ea682ea1461053a5780636c8b4b521461054257806370a0823114610555576103d0565b8063483c2ef0146104db5780634a970be7146104ee5780634bebd1e7146105015780634e77ace514610514576103d0565b806323b872dd1161036757806330adf81f1161033657806330adf81f146104a3578063313ce567146104ab5780633bdc6e72146104c057806340b47e1a146104c8576103d0565b806323b872dd14610468578063247d284b146104455780632e1a7d4d1461047b5780632f4f21e214610490576103d0565b80630fccc400116103a35780630fccc40014610430578063110560351461044557806318160ddd1461045857806320606b7014610460576103d0565b806306fdde03146103d557806307677111146103f3578063095ea7b3146104085780630f23475d14610428575b600080fd5b6103dd61078f565b6040516103ea919061475c565b60405180910390f35b6103fb61081d565b6040516103ea91906146d5565b61041b6104163660046143c2565b610823565b6040516103ea91906146ca565b6103fb61083a565b610438610866565b6040516103ea919061461e565b6103fb610453366004614473565b610875565b6103fb610888565b6103fb61088e565b61041b610476366004614315565b6108b2565b61048e610489366004614473565b61099b565b005b61048e61049e3660046143c2565b610a5d565b6103fb610a6b565b6104b3610a8f565b6040516103ea9190615062565b6103fb610a94565b61048e6104d63660046142dd565b610a9a565b61041b6104e93660046142a5565b610ace565b61048e6104fc3660046144ea565b610ae3565b61048e61050f3660046142a5565b610b7b565b61048e6105223660046143ed565b610c5f565b61048e610535366004614473565b610cfd565b6103fb610da9565b61048e6105503660046142a5565b610daf565b6103fb6105633660046142a5565b610e10565b61048e610e2b565b6103fb610eb4565b6103fb610eba565b61048e61058e3660046142dd565b610ec0565b6103fb610f89565b6103fb6105a93660046142a5565b61102d565b61048e6105bc366004614473565b61103f565b61048e6105cf3660046143c2565b6110be565b6103fb6111d0565b61048e6105ea3660046142a5565b6111d6565b6104386112dc565b61048e6106053660046142a5565b6112eb565b6103dd61137e565b61048e610620366004614473565b6113d8565b6103fb611486565b61048e61063b3660046142a5565b6114aa565b61043861064e3660046142a5565b611631565b61048e610661366004614473565b61164c565b61041b6106743660046143c2565b6116f4565b61048e6106873660046144a3565b611701565b61041b6118d9565b61048e6106a2366004614473565b6118e2565b6103fb6118ef565b6103fb611936565b61043861193c565b6103fb611960565b610438611bd6565b61048e6106dd366004614473565b611be5565b61048e6106f0366004614355565b611c8d565b610438611d42565b61048e611d51565b6103fb6107133660046142dd565b611da8565b6103fb610726366004614473565b611dd3565b61048e610739366004614473565b611e0d565b61043861074c366004614473565b611e8c565b6103fb61075f366004614473565b611eb3565b6103fb611ee4565b61048e61077a3660046142a5565b611f7b565b61043861203c565b61048e61204b565b6000805460408051602060026001851615610100026000190190941693909304601f810184900484028201840190925281815292918301828280156108155780601f106107ea57610100808354040283529160200191610815565b820191906000526020600020905b8154815290600101906020018083116107f857829003601f168201915b505050505081565b60105481565b60006108303384846122ec565b5060015b92915050565b600080610845610f89565b90506000610852826123a0565b905061085e82826123c2565b925050505b90565b6017546001600160a01b031681565b6000610880826123a0565b90505b919050565b60025481565b7f8b73c3c69bb8fe3d512ecc4cf759cc79239f7b179b0ffacaa9a75d522b39400f81565b6001600160a01b0383166000818152600360209081526040808320338085529252822054919290919082148015906108ec57506000198114155b15610982576000610918856040518060600160405280602f81526020016150e7602f9139849190612400565b6001600160a01b03808916600081815260036020908152604080832094891680845294909152908190208490555192935090917f8c5be1e5ebec7d5bd14f71427d1e84f3dd0314c0f7b2291e5b200ac8c7c3b925906109789085906146d5565b60405180910390a3505b61098d86868661242c565b6001925050505b9392505050565b60006109a682611eb3565b9050600081116109d15760405162461bcd60e51b81526004016109c89061476f565b60405180910390fd5b60006109dc82612510565b905060006109e9836123a0565b9050610a0c336109f984846123c2565b6009546001600160a01b031691906126be565b610a163385612746565b336001600160a01b03167f884edad9ce6fa2440d8a54cc123490eb96d2768479d49ff9c7366125a942436484604051610a4f91906146d5565b60405180910390a250505050565b610a678282612820565b5050565b7f6e71edae12b1b97f4d1f60370fef10105fa2faae0126114a169c64845d6126c981565b601281565b60075481565b600b546001600160a01b03163314610ac45760405162461bcd60e51b81526004016109c890614dce565b610a67828261299e565b60086020526000908152604090205460ff1681565b6009546040517fd505accf0000000000000000000000000000000000000000000000000000000081526001600160a01b039091169063d505accf90610b3890339030908a908a908a908a908a90600401614656565b600060405180830381600087803b158015610b5257600080fd5b505af1158015610b66573d6000803e3d6000fd5b50505050610b743386612820565b5050505050565b610b83612a94565b6001600160a01b0316610b946112dc565b6001600160a01b031614610bba5760405162461bcd60e51b81526004016109c890614cce565b6001600160a01b03811660009081526008602052604090205460ff1615610bf35760405162461bcd60e51b81526004016109c890614a69565b6001600160a01b0381166000908152600860205260409020805460ff19166001908117909155600754610c25916122c7565b6007556040516001600160a01b038216907fc0a1035c16faf8d1304056d92c00edf028f87e62b8235a938f00af9e3c0312c590600090a250565b610c67612a94565b6001600160a01b0316610c786112dc565b6001600160a01b031614610c9e5760405162461bcd60e51b81526004016109c890614cce565b600e5460ff1615158115151415610cb457600080fd5b600e805460ff19168215151790556040517f7b014ed3854e7f5cb0218d58b3c6ae7d53a68bb0af2f67bfb029ea42c38a7e8590610cf29083906146ca565b60405180910390a150565b610d05612a94565b6001600160a01b0316610d166112dc565b6001600160a01b031614610d3c5760405162461bcd60e51b81526004016109c890614cce565b60008111610d4957600080fd5b604051339082156108fc029083906000818181858888f19350505050158015610d76573d6000803e3d6000fd5b507f8c1256b8896378cd5044f80c202f9772b9d77dc85c8a6eb51967210b09bfaa28600082604051610cf2929190614697565b60115481565b610db7612a94565b6001600160a01b0316610dc86112dc565b6001600160a01b031614610dee5760405162461bcd60e51b81526004016109c890614cce565b601780546001600160a01b0319166001600160a01b0392909216919091179055565b6001600160a01b031660009081526004602052604090205490565b610e33612a94565b6001600160a01b0316610e446112dc565b6001600160a01b031614610e6a5760405162461bcd60e51b81526004016109c890614cce565b6006546040516000916001600160a01b0316907f8be0079c531659141344cd1fd0a4f28419497f9722a3daafe3b4186f6b6457e0908390a3600680546001600160a01b0319169055565b600d5481565b60145481565b610ec8612a94565b6001600160a01b0316610ed96112dc565b6001600160a01b031614610eff5760405162461bcd60e51b81526004016109c890614cce565b60405163095ea7b360e01b81526001600160a01b0383169063095ea7b390610f2e908490600090600401614697565b602060405180830381600087803b158015610f4857600080fd5b505af1158015610f5c573d6000803e3d6000fd5b505050506040513d601f19601f82011682018060405250810190610f809190614409565b610a6757600080fd5b6040516370a0823160e01b81526000906001600160a01b037f000000000000000000000000000000000000000000000000000000000000000016906370a0823190610fd890309060040161461e565b60206040518083038186803b158015610ff057600080fd5b505afa158015611004573d6000803e3d6000fd5b505050506040513d601f19601f82011682018060405250810190611028919061448b565b905090565b60056020526000908152604090205481565b611047612a94565b6001600160a01b03166110586112dc565b6001600160a01b03161461107e5760405162461bcd60e51b81526004016109c890614cce565b7f481f79ac3a523b6d6db3c5a720e190e986d1cc1b41adcdf50f9caef849901100600c54826040516110b192919061501c565b60405180910390a1600c55565b6110c6612a94565b6001600160a01b03166110d76112dc565b6001600160a01b0316146110fd5760405162461bcd60e51b81526004016109c890614cce565b6000811161110a57600080fd5b60405163a9059cbb60e01b81526001600160a01b0383169063a9059cbb906111389033908590600401614697565b602060405180830381600087803b15801561115257600080fd5b505af1158015611166573d6000803e3d6000fd5b505050506040513d601f19601f8201168201806040525081019061118a9190614409565b61119357600080fd5b7f8c1256b8896378cd5044f80c202f9772b9d77dc85c8a6eb51967210b09bfaa2882826040516111c4929190614697565b60405180910390a15050565b600f5481565b6111de612a94565b6001600160a01b03166111ef6112dc565b6001600160a01b0316146112155760405162461bcd60e51b81526004016109c890614cce565b6000600754116112375760405162461bcd60e51b81526004016109c8906148f5565b6001600160a01b03811660009081526008602052604090205460ff1615156001146112745760405162461bcd60e51b81526004016109c890614b5a565b6001600160a01b0381166000908152600860205260409020805460ff191690556007546112a29060016123c2565b6007556040516001600160a01b038216907f0e86f6608b536e5339a25b65ff531f5ea91e1313d056ecd4752b35cbd16137d490600090a250565b6006546001600160a01b031690565b600b546001600160a01b031633146113155760405162461bcd60e51b81526004016109c890614dce565b600b546040517fa8e91499ed37682f43cffb045fcc7d379a91e8c9a14e6321877ee34dee564c0091611354916001600160a01b039091169084906146b0565b60405180910390a1600b80546001600160a01b0319166001600160a01b0392909216919091179055565b60018054604080516020600284861615610100026000190190941693909304601f810184900484028201840190925281815292918301828280156108155780601f106107ea57610100808354040283529160200191610815565b6113e0612a94565b6001600160a01b03166113f16112dc565b6001600160a01b0316146114175760405162461bcd60e51b81526004016109c890614cce565b61271061143b600f54611435601054856122c790919063ffffffff16565b906122c7565b111561144657600080fd5b7f2a42303d002f0ba6cfe8259c91d4684443fb0b3de286ba74991175d6517261316011548260405161147992919061501c565b60405180910390a1601155565b7fc89efdaa54c0f20c7adf612882df0950f5a951637e0307cdcb4c672f298b8bc681565b600b546001600160a01b031633146114d45760405162461bcd60e51b81526004016109c890614dce565b6001600160a01b038116600090815260126020526040812080546001600160a01b0319169055805b6013548110156115a5576013818154811061151357fe5b6000918252602090912001546001600160a01b038481169116141561159d576013805460019350600019810190811061154857fe5b600091825260209091200154601380546001600160a01b03909216918390811061156e57fe5b9060005260206000200160006101000a8154816001600160a01b0302191690836001600160a01b031602179055505b6001016114fc565b50806115c35760405162461bcd60e51b81526004016109c890614bb7565b60138054806115ce57fe5b600082815260209020810160001990810180546001600160a01b03191690550190556014546115fe9060016123c2565b6014556040517f963b7c735475147a62c589c2d7cb8ec4b0a6b7af4f97373d79ebfa42ab8aa7dc906111c490849061461e565b6012602052600090815260409020546001600160a01b031681565b611654612a94565b6001600160a01b03166116656112dc565b6001600160a01b03161461168b5760405162461bcd60e51b81526004016109c890614cce565b6127106116a9601154611435601054856122c790919063ffffffff16565b11156116b457600080fd5b7fe7f97d51d307dc44045597c9978bec0f842e6bb40d19b9444084cfa30d9ed4f2600f54826040516116e792919061501c565b60405180910390a1600f55565b600061083033848461242c565b611709612a94565b6001600160a01b031661171a6112dc565b6001600160a01b0316146117405760405162461bcd60e51b81526004016109c890614cce565b6009546040516370a0823160e01b81526000916001600160a01b0316906370a082319061177190309060040161461e565b60206040518083038186803b15801561178957600080fd5b505afa15801561179d573d6000803e3d6000fd5b505050506040513d601f19601f820116820180604052508101906117c1919061448b565b90506117cb612a98565b6009546040516370a0823160e01b81526000916001600160a01b0316906370a08231906117fc90309060040161461e565b60206040518083038186803b15801561181457600080fd5b505afa158015611828573d6000803e3d6000fd5b505050506040513d601f19601f8201168201806040525081019061184c919061448b565b90508361185982846123c2565b10156118775760405162461bcd60e51b81526004016109c890614aa0565b7fc7606d21ac05cd309191543e409f0845c016120563783d70e4f41419dc0ef2346118a0610f89565b6002546040516118b192919061501c565b60405180910390a1600e5460ff161515600114156118d3576118d36000610c5f565b50505050565b600e5460ff1681565b6118ec3382612820565b50565b6000806118fa611960565b9050600c54811061192e57611926612710611920600f5484612bbf90919063ffffffff16565b90612bf9565b915050610863565b600091505090565b600c5481565b7f000000000000000000000000000000000000000000000000000000000000000081565b6000606061196c612c3b565b6040516370a0823160e01b815290915060009073b31f66aa3c1e785363f0875a1b74e27b85fd66c7906370a08231906119a990309060040161461e565b60206040518083038186803b1580156119c157600080fd5b505afa1580156119d5573d6000803e3d6000fd5b505050506040513d601f19601f820116820180604052508101906119f9919061448b565b9050611a0581476122c7565b5060005b8251811015611bcf576000838281518110611a2057fe5b602002602001015160000151905073b31f66aa3c1e785363f0875a1b74e27b85fd66c76001600160a01b0316816001600160a01b03161415611a8d57611a86848381518110611a6b57fe5b602002602001015160200151846122c790919063ffffffff16565b9250611bc6565b6040516370a0823160e01b81526000906001600160a01b038316906370a0823190611abc90309060040161461e565b60206040518083038186803b158015611ad457600080fd5b505afa158015611ae8573d6000803e3d6000fd5b505050506040513d601f19601f82011682018060405250810190611b0c919061448b565b90506000611b3a868581518110611b1f57fe5b602002602001015160200151836122c790919063ffffffff16565b9050600060126000888781518110611b4e57fe5b602090810291909101810151516001600160a01b03908116835290820192909252604001600020541690508115801590611b9057506001600160a01b03811615155b15611bc257611bbf611bb8838673b31f66aa3c1e785363f0875a1b74e27b85fd66c785612fef565b87906122c7565b95505b5050505b50600101611a09565b5091505090565b6009546001600160a01b031681565b611bed612a94565b6001600160a01b0316611bfe6112dc565b6001600160a01b031614611c245760405162461bcd60e51b81526004016109c890614cce565b612710611c42600f54611435601154856122c790919063ffffffff16565b1115611c4d57600080fd5b7f3cc372f330f95ac9540626dc8a25f5bf21ba607215a5d58304cb804d446f104a60105482604051611c8092919061501c565b60405180910390a1601055565b42841015611cad5760405162461bcd60e51b81526004016109c890614b23565b6001600160a01b03871660009081526005602090815260408083208054600181019091559051611d08927f6e71edae12b1b97f4d1f60370fef10105fa2faae0126114a169c64845d6126c9928c928c928c92918c91016146de565b604051602081830303815290604052805190602001209050611d2d88828686866130bc565b611d388888886122ec565b5050505050505050565b600b546001600160a01b031681565b611d59612a94565b6001600160a01b0316611d6a6112dc565b6001600160a01b031614611d905760405162461bcd60e51b81526004016109c890614cce565b60405162461bcd60e51b81526004016109c890614d97565b6001600160a01b03918216600090815260036020908152604080832093909416825291909152205490565b6000611de9611de0610f89565b60025490612bbf565b611df4575080610883565b610880611dff610f89565b600254611920908590612bbf565b611e15612a94565b6001600160a01b0316611e266112dc565b6001600160a01b031614611e4c5760405162461bcd60e51b81526004016109c890614cce565b7fa5dae50539d56dfe1fb5273d883b0c39bc76750a25d036fc5fbd09ad8fd5f57f600d5482604051611e7f92919061501c565b60405180910390a1600d55565b60138181548110611e9957fe5b6000918252602090912001546001600160a01b0316905081565b6000611ec0611de0610f89565b611ecc57506000610883565b610880600254611920611edd610f89565b8590612bbf565b60007f8b73c3c69bb8fe3d512ecc4cf759cc79239f7b179b0ffacaa9a75d522b39400f60001b6000604051611f199190614578565b6040519081900390207fc89efdaa54c0f20c7adf612882df0950f5a951637e0307cdcb4c672f298b8bc6611f4b613192565b30604051602001611f60959493929190614712565b60405160208183030381529060405280519060200120905090565b611f83612a94565b6001600160a01b0316611f946112dc565b6001600160a01b031614611fba5760405162461bcd60e51b81526004016109c890614cce565b6001600160a01b038116611fe05760405162461bcd60e51b81526004016109c89061482a565b6006546040516001600160a01b038084169216907f8be0079c531659141344cd1fd0a4f28419497f9722a3daafe3b4186f6b6457e090600090a3600680546001600160a01b0319166001600160a01b0392909216919091179055565b600a546001600160a01b031681565b32331461206a5760405162461bcd60e51b81526004016109c890614887565b6120746000613196565b565b6000836001600160a01b0316630dfe16816040518163ffffffff1660e01b815260040160206040518083038186803b1580156120b157600080fd5b505afa1580156120c5573d6000803e3d6000fd5b505050506040513d601f19601f820116820180604052508101906120e991906142c1565b6001600160a01b0316836001600160a01b031614806121895750836001600160a01b031663d21220a76040518163ffffffff1660e01b815260040160206040518083038186803b15801561213c57600080fd5b505afa158015612150573d6000803e3d6000fd5b505050506040513d601f19601f8201168201806040525081019061217491906142c1565b6001600160a01b0316836001600160a01b0316145b80156122a15750836001600160a01b0316630dfe16816040518163ffffffff1660e01b815260040160206040518083038186803b1580156121c957600080fd5b505afa1580156121dd573d6000803e3d6000fd5b505050506040513d601f19601f8201168201806040525081019061220191906142c1565b6001600160a01b0316826001600160a01b031614806122a15750836001600160a01b031663d21220a76040518163ffffffff1660e01b815260040160206040518083038186803b15801561225457600080fd5b505afa158015612268573d6000803e3d6000fd5b505050506040513d601f19601f8201168201806040525081019061228c91906142c1565b6001600160a01b0316826001600160a01b0316145b80156122bf5750816001600160a01b0316836001600160a01b031614155b949350505050565b6000828201838110156109945760405162461bcd60e51b81526004016109c8906148be565b6001600160a01b0383166123125760405162461bcd60e51b81526004016109c890614d03565b6001600160a01b0382166123385760405162461bcd60e51b81526004016109c890614fb0565b6001600160a01b0380841660008181526003602090815260408083209487168084529490915290819020849055517f8c5be1e5ebec7d5bd14f71427d1e84f3dd0314c0f7b2291e5b200ac8c7c3b925906123939085906146d5565b60405180910390a3505050565b6000806123ab6132c1565b90506109946123b86132c6565b6119208584612bbf565b600061099483836040518060400160405280601f81526020017f536166654d6174683a207375627472616374696f6e20756e646572666c6f77008152505b600081848411156124245760405162461bcd60e51b81526004016109c8919061475c565b505050900390565b6001600160a01b0382166124525760405162461bcd60e51b81526004016109c890614d3a565b61248f816040518060600160405280602e815260200161513d602e91396001600160a01b0386166000908152600460205260409020549190612400565b6001600160a01b0380851660009081526004602052604080822093909355908416815220546124be90826122c7565b6001600160a01b0380841660008181526004602052604090819020939093559151908516907fddf252ad1be2c89b69c2b068fc378daa952ba7f163c4a11628f55a4df523b3ef906123939085906146d5565b6009546040516370a0823160e01b815260009182916001600160a01b03909116906370a082319061254590309060040161461e565b60206040518083038186803b15801561255d57600080fd5b505afa158015612571573d6000803e3d6000fd5b505050506040513d601f19601f82011682018060405250810190612595919061448b565b6040517f2e1a7d4d0000000000000000000000000000000000000000000000000000000081529091506001600160a01b037f00000000000000000000000000000000000000000000000000000000000000001690632e1a7d4d906125fd9086906004016146d5565b600060405180830381600087803b15801561261757600080fd5b505af115801561262b573d6000803e3d6000fd5b50506009546040516370a0823160e01b8152600093506001600160a01b0390911691506370a082319061266290309060040161461e565b60206040518083038186803b15801561267a57600080fd5b505afa15801561268e573d6000803e3d6000fd5b505050506040513d601f19601f820116820180604052508101906126b2919061448b565b90506122bf81836123c2565b6127418363a9059cbb60e01b84846040516024016126dd929190614697565b60408051601f198184030181529190526020810180517bffffffffffffffffffffffffffffffffffffffffffffffffffffffff167fffffffff00000000000000000000000000000000000000000000000000000000909316929092179091526132cc565b505050565b61278381604051806060016040528060278152602001615116602791396001600160a01b0385166000908152600460205260409020549190612400565b60046000846001600160a01b03166001600160a01b03168152602001908152602001600020819055506127d3816040518060600160405280602781526020016150c0602791396002549190612400565b6002556040516000906001600160a01b038416907fddf252ad1be2c89b69c2b068fc378daa952ba7f163c4a11628f55a4df523b3ef906128149085906146d5565b60405180910390a35050565b600e5460ff1615156001146128475760405162461bcd60e51b81526004016109c890614952565b600d5415612871576000612859611960565b9050600d5481111561286f5761286f6001613196565b505b6009546040517f23b872dd0000000000000000000000000000000000000000000000000000000081526001600160a01b03909116906323b872dd906128be90339030908690600401614632565b602060405180830381600087803b1580156128d857600080fd5b505af11580156128ec573d6000803e3d6000fd5b505050506040513d601f19601f820116820180604052508101906129109190614409565b61292c5760405162461bcd60e51b81526004016109c890614ef6565b6000612937826123a0565b905061294f8361294a61072685856123c2565b61335b565b612958826133dd565b826001600160a01b03167fe1fffcc4923d04b559f4d29a8bfc6cda04eb5b0d3c460751c2402c5c5cc9109c8360405161299191906146d5565b60405180910390a2505050565b600a546001600160a01b038381169116146129e857600a546129cc90829084906001600160a01b0316612076565b6129e85760405162461bcd60e51b81526004016109c8906147cc565b6001600160a01b03808316600081815260126020526040812080549385166001600160a01b03199485161790556013805460018181018355919092527f66de8ffda797e3de9c05e8fc57b3bf0ec28a930d40b0d285d93c06501cf6a0909091018054909316909117909155601454612a5f916122c7565b6014556040517f916e172c080569186aa7ea048268267257cf7cc49505908863f747bca8620f80906111c490849084906146b0565b3390565b60095460405163095ea7b360e01b81526001600160a01b039091169063095ea7b390612aeb907f000000000000000000000000000000000000000000000000000000000000000090600090600401614697565b602060405180830381600087803b158015612b0557600080fd5b505af1158015612b19573d6000803e3d6000fd5b505050506040513d601f19601f82011682018060405250810190612b3d9190614409565b507f00000000000000000000000000000000000000000000000000000000000000006001600160a01b0316632e1a7d4d612b75610f89565b6040518263ffffffff1660e01b8152600401612b9191906146d5565b600060405180830381600087803b158015612bab57600080fd5b505af11580156118d3573d6000803e3d6000fd5b600082612bce57506000610834565b82820282848281612bdb57fe5b04146109945760405162461bcd60e51b81526004016109c890614c71565b600061099483836040518060400160405280601a81526020017f536166654d6174683a206469766973696f6e206279207a65726f000000000000815250613406565b601454606090818167ffffffffffffffff81118015612c5957600080fd5b50604051908082528060200260200182016040528015612c9357816020015b612c80614266565b815260200190600190039081612c785790505b5090506000807f00000000000000000000000000000000000000000000000000000000000000006001600160a01b0316628cc262736e84a6216ea6dacc71ee8e6b0a5b7322eebc0fdd6040518263ffffffff1660e01b8152600401612cf8919061461e565b604080518083038186803b158015612d0f57600080fd5b505afa158015612d23573d6000803e3d6000fd5b505050506040513d601f19601f82011682018060405250810190612d4791906144c7565b601754604051633cb6bbcb60e21b81529294509092506000916001600160a01b039091169063f2daef2c90612d829030908690600401614697565b60206040518083038186803b158015612d9a57600080fd5b505afa158015612dae573d6000803e3d6000fd5b505050506040513d601f19601f82011682018060405250810190612dd2919061448b565b60408051808201909152736e84a6216ea6dacc71ee8e6b0a5b7322eebc0fdd815290915060208101612e0484846123c2565b81525084600081518110612e1457fe5b60200260200101819052506040518060400160405280735817d4f0b62a59b17f75207da1848c2ce75e7af46001600160a01b031681526020018481525084600181518110612e5e57fe5b6020908102919091010152600260005b86811015612fe357600060138281548110612e8557fe5b6000918252602090912001546001600160a01b03169050736e84a6216ea6dacc71ee8e6b0a5b7322eebc0fdd811480612eda57506001600160a01b038116735817d4f0b62a59b17f75207da1848c2ce75e7af4145b15612ee55750612fdb565b6040517e8cc2620000000000000000000000000000000000000000000000000000000081526000906001600160a01b037f00000000000000000000000000000000000000000000000000000000000000001690628cc26290612f4b90859060040161461e565b604080518083038186803b158015612f6257600080fd5b505afa158015612f76573d6000803e3d6000fd5b505050506040513d601f19601f82011682018060405250810190612f9a91906144c7565b9150506040518060400160405280836001600160a01b0316815260200182815250888581518110612fc757fe5b602090810291909101015250506001909101905b600101612e6e565b50939550505050505090565b600080612ffc858561343d565b509050600080846001600160a01b0316630902f1ac6040518163ffffffff1660e01b815260040160606040518083038186803b15801561303b57600080fd5b505afa15801561304f573d6000803e3d6000fd5b505050506040513d601f19601f820116820180604052508101906130739190614425565b5091509150866001600160a01b0316836001600160a01b03161461309357905b6130b088836001600160701b0316836001600160701b031661346e565b98975050505050505050565b60006130c6611ee4565b856040516020016130d89291906145e8565b604051602081830303815290604052805190602001209050600060018286868660405160008152602001604052604051613115949392919061473e565b6020604051602081039080840390855afa158015613137573d6000803e3d6000fd5b5050604051601f1901519150506001600160a01b0381161580159061316d5750866001600160a01b0316816001600160a01b0316145b6131895760405162461bcd60e51b81526004016109c8906149af565b50505050505050565b4690565b61319e6134b6565b60006131a86136fc565b9050816131d157600c548110156131d15760405162461bcd60e51b81526004016109c890614e05565b60006131ee61271061192060115485612bbf90919063ffffffff16565b9050801561321357600b54600a54613213916001600160a01b039182169116836126be565b6000613230612710611920600f5486612bbf90919063ffffffff16565b9050801561324f57600a5461324f906001600160a01b031633836126be565b600061326d6132688361326287876123c2565b906123c2565b613945565b9050613278816133dd565b7fc7606d21ac05cd309191543e409f0845c016120563783d70e4f41419dc0ef2346132a1610f89565b6002546040516132b292919061501c565b60405180910390a15050505050565b600090565b61271090565b6060613321826040518060400160405280602081526020017f5361666545524332303a206c6f772d6c6576656c2063616c6c206661696c6564815250856001600160a01b03166139749092919063ffffffff16565b805190915015612741578080602001905181019061333f9190614409565b6127415760405162461bcd60e51b81526004016109c890614f53565b60025461336890826122c7565b6002556001600160a01b03821660009081526004602052604090205461338e90826122c7565b6001600160a01b0383166000818152600460205260408082209390935591519091907fddf252ad1be2c89b69c2b068fc378daa952ba7f163c4a11628f55a4df523b3ef906128149085906146d5565b600081116133fd5760405162461bcd60e51b81526004016109c890614e62565b6118ec81613983565b600081836134275760405162461bcd60e51b81526004016109c8919061475c565b50600083858161343357fe5b0495945050505050565b600080826001600160a01b0316846001600160a01b031610613460578284613463565b83835b915091509250929050565b60008061347d856103e5612bbf565b9050600061348b8285612bbf565b9050600061349f83611435886103e8612bbf565b90506134ab8282612bf9565b979650505050505050565b6040516370a0823160e01b8152600090736e84a6216ea6dacc71ee8e6b0a5b7322eebc0fdd906370a08231906134f090309060040161461e565b60206040518083038186803b15801561350857600080fd5b505afa15801561351c573d6000803e3d6000fd5b505050506040513d601f19601f82011682018060405250810190613540919061448b565b90507f00000000000000000000000000000000000000000000000000000000000000006001600160a01b0316633d18b9126040518163ffffffff1660e01b8152600401600060405180830381600087803b15801561359d57600080fd5b505af11580156135b1573d6000803e3d6000fd5b50506040516370a0823160e01b81526000925061364591508390736e84a6216ea6dacc71ee8e6b0a5b7322eebc0fdd906370a08231906135f590309060040161461e565b60206040518083038186803b15801561360d57600080fd5b505afa158015613621573d6000803e3d6000fd5b505050506040513d601f19601f82011682018060405250810190613262919061448b565b601754604051633cb6bbcb60e21b81529192506000916001600160a01b039091169063f2daef2c9061367d9030908690600401614697565b60206040518083038186803b15801561369557600080fd5b505afa1580156136a9573d6000803e3d6000fd5b505050506040513d601f19601f820116820180604052508101906136cd919061448b565b60175490915061274190736e84a6216ea6dacc71ee8e6b0a5b7322eebc0fdd906001600160a01b0316836126be565b6040516370a0823160e01b8152600090819073b31f66aa3c1e785363f0875a1b74e27b85fd66c7906370a082319061373890309060040161461e565b60206040518083038186803b15801561375057600080fd5b505afa158015613764573d6000803e3d6000fd5b505050506040513d601f19601f82011682018060405250810190613788919061448b565b60135490915060005b8181101561393d576000601382815481106137a857fe5b6000918252602090912001546001600160a01b0316905073b31f66aa3c1e785363f0875a1b74e27b85fd66c7811415613867574780156138605773b31f66aa3c1e785363f0875a1b74e27b85fd66c76001600160a01b031663d0e30db0826040518263ffffffff1660e01b81526004016000604051808303818588803b15801561383157600080fd5b505af1158015613845573d6000803e3d6000fd5b505050505061385d81866122c790919063ffffffff16565b94505b5050613935565b6040516370a0823160e01b81526000906001600160a01b038316906370a082319061389690309060040161461e565b60206040518083038186803b1580156138ae57600080fd5b505afa1580156138c2573d6000803e3d6000fd5b505050506040513d601f19601f820116820180604052508101906138e6919061448b565b90508015613932576001600160a01b0380831660009081526012602052604090205416801561393057600a5461392d90611bb890849086906001600160a01b031685613b64565b95505b505b50505b600101613791565b509091505090565b600a546009546015546016546000936108809386936001600160a01b0392831693918316929081169116613cf7565b60606122bf8484600085613e71565b60095460405163095ea7b360e01b81526001600160a01b039091169063095ea7b3906139d5907f0000000000000000000000000000000000000000000000000000000000000000908590600401614697565b602060405180830381600087803b1580156139ef57600080fd5b505af1158015613a03573d6000803e3d6000fd5b505050506040513d601f19601f82011682018060405250810190613a279190614409565b506040517fb6b55f250000000000000000000000000000000000000000000000000000000081526001600160a01b037f0000000000000000000000000000000000000000000000000000000000000000169063b6b55f2590613a8d9084906004016146d5565b600060405180830381600087803b158015613aa757600080fd5b505af1158015613abb573d6000803e3d6000fd5b505060095460405163095ea7b360e01b81526001600160a01b03909116925063095ea7b39150613b12907f000000000000000000000000000000000000000000000000000000000000000090600090600401614697565b602060405180830381600087803b158015613b2c57600080fd5b505af1158015613b40573d6000803e3d6000fd5b505050506040513d601f19601f82011682018060405250810190610a679190614409565b600080613b71858561343d565b509050600080846001600160a01b0316630902f1ac6040518163ffffffff1660e01b815260040160606040518083038186803b158015613bb057600080fd5b505afa158015613bc4573d6000803e3d6000fd5b505050506040513d601f19601f82011682018060405250810190613be89190614425565b5091509150866001600160a01b0316836001600160a01b031614613c0857905b600080613c288a856001600160701b0316856001600160701b031661346e565b9050886001600160a01b0316856001600160a01b031614613c4557905b613c5089888c613f27565b604080516000815260208101918290527f022c0d9f000000000000000000000000000000000000000000000000000000009091526001600160a01b0388169063022c0d9f90613ca8908590859030906024810161502a565b600060405180830381600087803b158015613cc257600080fd5b505af1158015613cd6573d6000803e3d6000fd5b50505050818111613ce75781613ce9565b805b9a9950505050505050505050565b600080613d05876002612bf9565b905060008111613d275760405162461bcd60e51b81526004016109c890614c14565b6000856001600160a01b0316630dfe16816040518163ffffffff1660e01b815260040160206040518083038186803b158015613d6257600080fd5b505afa158015613d76573d6000803e3d6000fd5b505050506040513d601f19601f82011682018060405250810190613d9a91906142c1565b9050816001600160a01b0388811690831614613dbf57613dbc83898489613b64565b90505b6000876001600160a01b031663d21220a76040518163ffffffff1660e01b815260040160206040518083038186803b158015613dfa57600080fd5b505afa158015613e0e573d6000803e3d6000fd5b505050506040513d601f19601f82011682018060405250810190613e3291906142c1565b9050836001600160a01b038a811690831614613e5757613e54858b848a613b64565b90505b613e62898483613fc3565b9b9a5050505050505050505050565b606082471015613e935760405162461bcd60e51b81526004016109c890614a0c565b613e9c85614217565b613eb85760405162461bcd60e51b81526004016109c890614ebf565b60006060866001600160a01b03168587604051613ed5919061455c565b60006040518083038185875af1925050503d8060008114613f12576040519150601f19603f3d011682016040523d82523d6000602084013e613f17565b606091505b50915091506134ab82828661421d565b60405163a9059cbb60e01b81526001600160a01b0384169063a9059cbb90613f559085908590600401614697565b602060405180830381600087803b158015613f6f57600080fd5b505af1158015613f83573d6000803e3d6000fd5b505050506040513d601f19601f82011682018060405250810190613fa79190614409565b6127415760405162461bcd60e51b81526004016109c890614fe7565b6000806000856001600160a01b0316630902f1ac6040518163ffffffff1660e01b815260040160606040518083038186803b15801561400157600080fd5b505afa158015614015573d6000803e3d6000fd5b505050506040513d601f19601f820116820180604052508101906140399190614425565b5091509150600061405d86846001600160701b0316846001600160701b0316614256565b90508481111561408a5784905061408785836001600160701b0316856001600160701b0316614256565b95505b614105876001600160a01b0316630dfe16816040518163ffffffff1660e01b815260040160206040518083038186803b1580156140c657600080fd5b505afa1580156140da573d6000803e3d6000fd5b505050506040513d601f19601f820116820180604052508101906140fe91906142c1565b8888613f27565b614180876001600160a01b031663d21220a76040518163ffffffff1660e01b815260040160206040518083038186803b15801561414157600080fd5b505afa158015614155573d6000803e3d6000fd5b505050506040513d601f19601f8201168201806040525081019061417991906142c1565b8883613f27565b6040517f6a6278420000000000000000000000000000000000000000000000000000000081526001600160a01b03881690636a627842906141c590309060040161461e565b602060405180830381600087803b1580156141df57600080fd5b505af11580156141f3573d6000803e3d6000fd5b505050506040513d601f19601f820116820180604052508101906134ab919061448b565b3b151590565b6060831561422c575081610994565b82511561423c5782518084602001fd5b8160405162461bcd60e51b81526004016109c8919061475c565b60006122bf836119208685612bbf565b604080518082019091526000808252602082015290565b80516001600160701b038116811461088357600080fd5b803560ff8116811461088357600080fd5b6000602082840312156142b6578081fd5b81356109948161509c565b6000602082840312156142d2578081fd5b81516109948161509c565b600080604083850312156142ef578081fd5b82356142fa8161509c565b9150602083013561430a8161509c565b809150509250929050565b600080600060608486031215614329578081fd5b83356143348161509c565b925060208401356143448161509c565b929592945050506040919091013590565b600080600080600080600060e0888a03121561436f578283fd5b873561437a8161509c565b9650602088013561438a8161509c565b955060408801359450606088013593506143a660808901614294565b925060a0880135915060c0880135905092959891949750929550565b600080604083850312156143d4578182fd5b82356143df8161509c565b946020939093013593505050565b6000602082840312156143fe578081fd5b8135610994816150b1565b60006020828403121561441a578081fd5b8151610994816150b1565b600080600060608486031215614439578283fd5b6144428461427d565b92506144506020850161427d565b9150604084015163ffffffff81168114614468578182fd5b809150509250925092565b600060208284031215614484578081fd5b5035919050565b60006020828403121561449c578081fd5b5051919050565b600080604083850312156144b5578182fd5b82359150602083013561430a816150b1565b600080604083850312156144d9578182fd5b505080516020909101519092909150565b600080600080600060a08688031215614501578283fd5b853594506020860135935061451860408701614294565b94979396509394606081013594506080013592915050565b60008151808452614548816020860160208601615070565b601f01601f19169290920160200192915050565b6000825161456e818460208701615070565b9190910192915050565b600080835460018082166000811461459757600181146145ae576145dd565b60ff198316865260028304607f16860193506145dd565b600283048786526020808720875b838110156145d55781548a8201529085019082016145bc565b505050860193505b509195945050505050565b7f190100000000000000000000000000000000000000000000000000000000000081526002810192909252602282015260420190565b6001600160a01b0391909116815260200190565b6001600160a01b039384168152919092166020820152604081019190915260600190565b6001600160a01b0397881681529590961660208601526040850193909352606084019190915260ff16608083015260a082015260c081019190915260e00190565b6001600160a01b03929092168252602082015260400190565b6001600160a01b0392831681529116602082015260400190565b901515815260200190565b90815260200190565b9586526001600160a01b0394851660208701529290931660408501526060840152608083019190915260a082015260c00190565b9485526020850193909352604084019190915260608301526001600160a01b0316608082015260a00190565b93845260ff9290921660208401526040830152606082015260800190565b6000602082526109946020830184614530565b60208082526030908201527f5661726961626c655265776172647353747261746567793a3a5769746864726160408201527f7720616d6f756e7420746f6f206c6f7700000000000000000000000000000000606082015260800190565b602080825260409082018190527f5661726961626c655265776172647353747261746567793a3a53776170207061908201527f697220646f6573206e6f7420636f6e7461696e2072657761726420746f6b656e606082015260800190565b60208082526026908201527f4f776e61626c653a206e6577206f776e657220697320746865207a65726f206160408201527f6464726573730000000000000000000000000000000000000000000000000000606082015260800190565b60208082526014908201527f59616b53747261746567793a3a6f6e6c79454f41000000000000000000000000604082015260600190565b6020808252601b908201527f536166654d6174683a206164646974696f6e206f766572666c6f770000000000604082015260600190565b60208082526034908201527f5065726d697373696f6e65643a3a72656d6f76654465706f7369746f722c206e60408201527f6f20616c6c6f776564206465706f7369746f7273000000000000000000000000606082015260800190565b6020808252602a908201527f5661726961626c655265776172647353747261746567793a3a4465706f73697460408201527f732064697361626c656400000000000000000000000000000000000000000000606082015260800190565b60208082526024908201527f417263683a3a76616c69646174655369673a20696e76616c6964207369676e6160408201527f7475726500000000000000000000000000000000000000000000000000000000606082015260800190565b60208082526026908201527f416464726573733a20696e73756666696369656e742062616c616e636520666f60408201527f722063616c6c0000000000000000000000000000000000000000000000000000606082015260800190565b6020808252601c908201527f5065726d697373696f6e65643a3a616c6c6f774465706f7369746f7200000000604082015260600190565b6020808252604d908201527f5661726961626c655265776172647353747261746567793a3a456d657267656e60408201527f6379207769746864726177206d696e696d756d2072657475726e20616d6f756e60608201527f74206e6f74207265616368656400000000000000000000000000000000000000608082015260a00190565b6020808252600f908201527f7065726d69743a3a657870697265640000000000000000000000000000000000604082015260600190565b6020808252602a908201527f5065726d697373696f6e65643a3a72656d6f76654465706f7369746f722c206e60408201527f6f7420616c6c6f77656400000000000000000000000000000000000000000000606082015260800190565b60208082526034908201527f5661726961626c655265776172647353747261746567793a3a5265776172642060408201527f746f2064656c657465206e6f7420666f756e6421000000000000000000000000606082015260800190565b6020808252602f908201527f4465784c6962726172793a3a5f636f6e76657274526577617264546f6b656e7360408201527f546f4465706f736974546f6b656e730000000000000000000000000000000000606082015260800190565b60208082526021908201527f536166654d6174683a206d756c7469706c69636174696f6e206f766572666c6f60408201527f7700000000000000000000000000000000000000000000000000000000000000606082015260800190565b6020808252818101527f4f776e61626c653a2063616c6c6572206973206e6f7420746865206f776e6572604082015260600190565b6020808252601c908201527f5f617070726f76653a3a6f776e6572207a65726f206164647265737300000000604082015260600190565b60208082526034908201527f5f7472616e73666572546f6b656e733a2063616e6e6f74207472616e7366657260408201527f20746f20746865207a65726f2061646472657373000000000000000000000000606082015260800190565b60208082526019908201527f736574416c6c6f77616e6365733a3a6465707265636174656400000000000000604082015260600190565b60208082526014908201527f59616b53747261746567793a3a6f6e6c79446576000000000000000000000000604082015260600190565b60208082526030908201527f5661726961626c655265776172647353747261746567793a3a5265696e76657360408201527f7420616d6f756e7420746f6f206c6f7700000000000000000000000000000000606082015260800190565b6020808252602d908201527f5661726961626c655265776172647353747261746567793a3a5374616b65206160408201527f6d6f756e7420746f6f206c6f7700000000000000000000000000000000000000606082015260800190565b6020808252601d908201527f416464726573733a2063616c6c20746f206e6f6e2d636f6e7472616374000000604082015260600190565b60208082526036908201527f5661726961626c655265776172647353747261746567793a3a4465706f73697460408201527f20746f6b656e207472616e73666572206661696c656400000000000000000000606082015260800190565b6020808252602a908201527f5361666545524332303a204552433230206f7065726174696f6e20646964206e60408201527f6f74207375636365656400000000000000000000000000000000000000000000606082015260800190565b6020808252601e908201527f5f617070726f76653a3a7370656e646572207a65726f20616464726573730000604082015260600190565b6020808252818101527f4465784c6962726172793a3a5452414e534645525f46524f4d5f4641494c4544604082015260600190565b918252602082015260400190565b60008582528460208301526001600160a01b0384166040830152608060608301526150586080830184614530565b9695505050505050565b60ff91909116815260200190565b60005b8381101561508b578181015183820152602001615073565b838111156118d35750506000910152565b6001600160a01b03811681146118ec57600080fd5b80151581146118ec57600080fdfe5f6275726e3a206275726e20616d6f756e74206578636565647320746f74616c20737570706c797472616e7366657246726f6d3a207472616e7366657220616d6f756e74206578636565647320616c6c6f77616e63655f6275726e3a206275726e20616d6f756e7420657863656564732066726f6d2062616c616e63655f7472616e73666572546f6b656e733a207472616e7366657220657863656564732066726f6d2062616c616e6365a264697066735822122002bf46a6da52dc0ca2d01b4b02758dfffdd2fb33bc4d379c24451bb4e4535f4864736f6c634300070300338be0079c531659141344cd1fd0a4f28419497f9722a3daafe3b4186f6b6457e0000000000000000000000000b31f66aa3c1e785363f0875a1b74e27b85fd66c7",
  "devdoc": {
    "kind": "dev",
    "methods": {
      "allowDepositor(address)": {
        "params": {
          "depositor": "address"
        }
      },
      "allowance(address,address)": {
        "params": {
          "account": "The address of the account holding the funds",
          "spender": "The address of the account spending the funds"
        },
        "returns": {
          "_0": "The number of tokens approved"
        }
      },
      "approve(address,uint256)": {
        "details": "This will overwrite the approval amount for `spender` and is subject to issues noted [here](https://eips.ethereum.org/EIPS/eip-20#approve) It is recommended to use increaseAllowance and decreaseAllowance instead",
        "params": {
          "amount": "The number of tokens that are approved (2^256-1 means infinite)",
          "spender": "The address of the account which may transfer tokens"
        },
        "returns": {
          "_0": "Whether or not the approval succeeded"
        }
      },
      "balanceOf(address)": {
        "params": {
          "account": "The address of the account to get the balance of"
        },
        "returns": {
          "_0": "The number of tokens held"
        }
      },
      "checkReward()": {
        "returns": {
          "_0": "reward tokens"
        }
      },
      "deposit(uint256)": {
        "params": {
          "_amount": "Amount of tokens to deposit"
        }
      },
      "depositWithPermit(uint256,uint256,uint8,bytes32,bytes32)": {
        "params": {
          "_amount": "Amount of tokens to deposit",
          "_deadline": "The time at which to expire the signature",
          "_r": "Half of the ECDSA signature pair",
          "_s": "Half of the ECDSA signature pair",
          "_v": "The recovery byte of the signature"
        }
      },
      "estimateDeployedBalance()": {
        "returns": {
          "_0": "deposit tokens after withdraw fee"
        }
      },
      "estimateReinvestReward()": {
        "returns": {
          "_0": "reward tokens"
        }
      },
      "getDepositTokensForShares(uint256)": {
        "params": {
          "amount": "receipt tokens"
        },
        "returns": {
          "_0": "deposit tokens"
        }
      },
      "getDomainSeparator()": {
        "returns": {
          "_0": "Separator"
        }
      },
      "getSharesForDepositTokens(uint256)": {
        "details": "If contract is empty, use 1:1 ratioCould return zero shares for very low amounts of deposit tokens",
        "params": {
          "amount": "deposit tokens"
        },
        "returns": {
          "_0": "receipt tokens"
        }
      },
      "owner()": {
        "details": "Returns the address of the current owner."
      },
      "permit(address,address,uint256,uint256,uint8,bytes32,bytes32)": {
        "params": {
          "deadline": "The time at which to expire the signature",
          "owner": "The address to approve from",
          "r": "Half of the ECDSA signature pair",
          "s": "Half of the ECDSA signature pair",
          "spender": "The address to be approved",
          "v": "The recovery byte of the signature",
          "value": "The number of tokens that are approved (2^256-1 means infinite)"
        }
      },
      "recoverAVAX(uint256)": {
        "params": {
          "amount": "amount"
        }
      },
      "recoverERC20(address,uint256)": {
        "params": {
          "tokenAddress": "token address",
          "tokenAmount": "amount to recover"
        }
      },
      "removeDepositor(address)": {
        "params": {
          "depositor": "address"
        }
      },
      "renounceOwnership()": {
        "details": "Leaves the contract without owner. It will not be possible to call `onlyOwner` functions anymore. Can only be called by the current owner. NOTE: Renouncing ownership will leave the contract without an owner, thereby removing any functionality that is only available to the owner."
      },
      "revokeAllowance(address,address)": {
        "params": {
          "spender": "address",
          "token": "address"
        }
      },
      "setAllowances()": {
        "details": "Deprecated; approvals should be handled in context of staking"
      },
      "totalDeposits()": {
        "returns": {
          "_0": "total deposits available on the contract"
        }
      },
      "transfer(address,uint256)": {
        "params": {
          "amount": "The number of tokens to transfer",
          "dst": "The address of the destination account"
        },
        "returns": {
          "_0": "Whether or not the transfer succeeded"
        }
      },
      "transferFrom(address,address,uint256)": {
        "params": {
          "amount": "The number of tokens to transfer",
          "dst": "The address of the destination account",
          "src": "The address of the source account"
        },
        "returns": {
          "_0": "Whether or not the transfer succeeded"
        }
      },
      "transferOwnership(address)": {
        "details": "Transfers ownership of the contract to a new account (`newOwner`). Can only be called by the current owner."
      },
      "updateAdminFee(uint256)": {
        "params": {
          "newValue": "fee in BIPS"
        }
      },
      "updateDepositsEnabled(bool)": {
        "params": {
          "newValue": "bool"
        }
      },
      "updateDevAddr(address)": {
        "params": {
          "newValue": "address"
        }
      },
      "updateDevFee(uint256)": {
        "params": {
          "newValue": "fee in BIPS"
        }
      },
      "updateMaxTokensToDepositWithoutReinvest(uint256)": {
        "params": {
          "newValue": "threshold"
        }
      },
      "updateMinTokensToReinvest(uint256)": {
        "params": {
          "newValue": "threshold"
        }
      },
      "updateReinvestReward(uint256)": {
        "params": {
          "newValue": "fee in BIPS"
        }
      }
    },
    "version": 1
  },
  "userdoc": {
    "kind": "user",
    "methods": {
      "allowDepositor(address)": {
        "notice": "Add an allowed depositor"
      },
      "allowance(address,address)": {
        "notice": "Get the number of tokens `spender` is approved to spend on behalf of `account`"
      },
      "approve(address,uint256)": {
        "notice": "Approve `spender` to transfer up to `amount` from `src`"
      },
      "balanceOf(address)": {
        "notice": "Get the number of tokens held by the `account`"
      },
      "checkReward()": {
        "notice": "Reward tokens avialable to strategy, including balance"
      },
      "deposit(uint256)": {
        "notice": "Deposit tokens to receive receipt tokens"
      },
      "depositWithPermit(uint256,uint256,uint8,bytes32,bytes32)": {
        "notice": "Deposit using Permit"
      },
      "estimateDeployedBalance()": {
        "notice": "Estimate recoverable balance after withdraw fee"
      },
      "estimateReinvestReward()": {
        "notice": "Estimate reinvest reward"
      },
      "getDepositTokensForShares(uint256)": {
        "notice": "Calculate deposit tokens for a given amount of receipt tokens"
      },
      "getDomainSeparator()": {
        "notice": "EIP-712 Domain separator"
      },
      "getSharesForDepositTokens(uint256)": {
        "notice": "Calculate receipt tokens for a given amount of deposit tokens"
      },
      "permit(address,address,uint256,uint256,uint8,bytes32,bytes32)": {
        "notice": "Triggers an approval from owner to spender"
      },
      "recoverAVAX(uint256)": {
        "notice": "Recover AVAX from contract"
      },
      "recoverERC20(address,uint256)": {
        "notice": "Recover ERC20 from contract"
      },
      "reinvest()": {
        "notice": "Reinvest reward tokens into deposit tokens"
      },
      "removeDepositor(address)": {
        "notice": "Remove an allowed depositor"
      },
      "revokeAllowance(address,address)": {
        "notice": "Revoke token allowance"
      },
      "setAllowances()": {
        "notice": "Approve tokens for use in Strategy"
      },
      "totalDeposits()": {
        "notice": "This function returns a snapshot of last available quotes"
      },
      "transfer(address,uint256)": {
        "notice": "Transfer `amount` tokens from `msg.sender` to `dst`"
      },
      "transferFrom(address,address,uint256)": {
        "notice": "Transfer `amount` tokens from `src` to `dst`"
      },
      "updateAdminFee(uint256)": {
        "notice": "Update admin fee"
      },
      "updateDepositsEnabled(bool)": {
        "notice": "Enable/disable deposits"
      },
      "updateDevAddr(address)": {
        "notice": "Update devAddr"
      },
      "updateDevFee(uint256)": {
        "notice": "Update developer fee"
      },
      "updateMaxTokensToDepositWithoutReinvest(uint256)": {
        "notice": "Update reinvest max threshold before a deposit"
      },
      "updateMinTokensToReinvest(uint256)": {
        "notice": "Update reinvest min threshold"
      },
      "updateReinvestReward(uint256)": {
        "notice": "Update reinvest reward"
      }
    },
    "version": 1
  },
  "storageLayout": {
    "storage": [
      {
        "astId": 6348,
        "contract": "contracts/strategies/VectorStrategyForDexLP.sol:VectorStrategyForDexLP",
        "label": "name",
        "offset": 0,
        "slot": "0",
        "type": "t_string_storage"
      },
      {
        "astId": 6351,
        "contract": "contracts/strategies/VectorStrategyForDexLP.sol:VectorStrategyForDexLP",
        "label": "symbol",
        "offset": 0,
        "slot": "1",
        "type": "t_string_storage"
      },
      {
        "astId": 6356,
        "contract": "contracts/strategies/VectorStrategyForDexLP.sol:VectorStrategyForDexLP",
        "label": "totalSupply",
        "offset": 0,
        "slot": "2",
        "type": "t_uint256"
      },
      {
        "astId": 6362,
        "contract": "contracts/strategies/VectorStrategyForDexLP.sol:VectorStrategyForDexLP",
        "label": "allowances",
        "offset": 0,
        "slot": "3",
        "type": "t_mapping(t_address,t_mapping(t_address,t_uint256))"
      },
      {
        "astId": 6366,
        "contract": "contracts/strategies/VectorStrategyForDexLP.sol:VectorStrategyForDexLP",
        "label": "balances",
        "offset": 0,
        "slot": "4",
        "type": "t_mapping(t_address,t_uint256)"
      },
      {
        "astId": 6382,
        "contract": "contracts/strategies/VectorStrategyForDexLP.sol:VectorStrategyForDexLP",
        "label": "nonces",
        "offset": 0,
        "slot": "5",
        "type": "t_mapping(t_address,t_uint256)"
      },
      {
        "astId": 22284,
        "contract": "contracts/strategies/VectorStrategyForDexLP.sol:VectorStrategyForDexLP",
        "label": "_owner",
        "offset": 0,
        "slot": "6",
        "type": "t_address"
      },
      {
        "astId": 22397,
        "contract": "contracts/strategies/VectorStrategyForDexLP.sol:VectorStrategyForDexLP",
        "label": "numberOfAllowedDepositors",
        "offset": 0,
        "slot": "7",
        "type": "t_uint256"
      },
      {
        "astId": 22401,
        "contract": "contracts/strategies/VectorStrategyForDexLP.sol:VectorStrategyForDexLP",
        "label": "allowedDepositors",
        "offset": 0,
        "slot": "8",
        "type": "t_mapping(t_address,t_bool)"
      },
      {
        "astId": 7732,
        "contract": "contracts/strategies/VectorStrategyForDexLP.sol:VectorStrategyForDexLP",
        "label": "depositToken",
        "offset": 0,
        "slot": "9",
        "type": "t_contract(IERC20)11786"
      },
      {
        "astId": 7734,
        "contract": "contracts/strategies/VectorStrategyForDexLP.sol:VectorStrategyForDexLP",
        "label": "rewardToken",
        "offset": 0,
        "slot": "10",
        "type": "t_contract(IERC20)11786"
      },
      {
        "astId": 7736,
        "contract": "contracts/strategies/VectorStrategyForDexLP.sol:VectorStrategyForDexLP",
        "label": "devAddr",
        "offset": 0,
        "slot": "11",
        "type": "t_address"
      },
      {
        "astId": 7738,
        "contract": "contracts/strategies/VectorStrategyForDexLP.sol:VectorStrategyForDexLP",
        "label": "MIN_TOKENS_TO_REINVEST",
        "offset": 0,
        "slot": "12",
        "type": "t_uint256"
      },
      {
        "astId": 7740,
        "contract": "contracts/strategies/VectorStrategyForDexLP.sol:VectorStrategyForDexLP",
        "label": "MAX_TOKENS_TO_DEPOSIT_WITHOUT_REINVEST",
        "offset": 0,
        "slot": "13",
        "type": "t_uint256"
      },
      {
        "astId": 7742,
        "contract": "contracts/strategies/VectorStrategyForDexLP.sol:VectorStrategyForDexLP",
        "label": "DEPOSITS_ENABLED",
        "offset": 0,
        "slot": "14",
        "type": "t_bool"
      },
      {
        "astId": 7744,
        "contract": "contracts/strategies/VectorStrategyForDexLP.sol:VectorStrategyForDexLP",
        "label": "REINVEST_REWARD_BIPS",
        "offset": 0,
        "slot": "15",
        "type": "t_uint256"
      },
      {
        "astId": 7746,
        "contract": "contracts/strategies/VectorStrategyForDexLP.sol:VectorStrategyForDexLP",
        "label": "ADMIN_FEE_BIPS",
        "offset": 0,
        "slot": "16",
        "type": "t_uint256"
      },
      {
        "astId": 7748,
        "contract": "contracts/strategies/VectorStrategyForDexLP.sol:VectorStrategyForDexLP",
        "label": "DEV_FEE_BIPS",
        "offset": 0,
        "slot": "17",
        "type": "t_uint256"
      },
      {
        "astId": 111892,
        "contract": "contracts/strategies/VectorStrategyForDexLP.sol:VectorStrategyForDexLP",
        "label": "rewardSwapPairs",
        "offset": 0,
        "slot": "18",
        "type": "t_mapping(t_address,t_address)"
      },
      {
        "astId": 111895,
        "contract": "contracts/strategies/VectorStrategyForDexLP.sol:VectorStrategyForDexLP",
        "label": "supportedRewards",
        "offset": 0,
        "slot": "19",
        "type": "t_array(t_address)dyn_storage"
      },
      {
        "astId": 111897,
        "contract": "contracts/strategies/VectorStrategyForDexLP.sol:VectorStrategyForDexLP",
        "label": "rewardCount",
        "offset": 0,
        "slot": "20",
        "type": "t_uint256"
      },
      {
        "astId": 112960,
        "contract": "contracts/strategies/VectorStrategyForDexLP.sol:VectorStrategyForDexLP",
        "label": "swapPairToken0",
        "offset": 0,
        "slot": "21",
        "type": "t_address"
      },
      {
        "astId": 112962,
        "contract": "contracts/strategies/VectorStrategyForDexLP.sol:VectorStrategyForDexLP",
        "label": "swapPairToken1",
        "offset": 0,
        "slot": "22",
        "type": "t_address"
      },
      {
        "astId": 113348,
        "contract": "contracts/strategies/VectorStrategyForDexLP.sol:VectorStrategyForDexLP",
        "label": "boosterFeeCollector",
        "offset": 0,
        "slot": "23",
        "type": "t_contract(IBoosterFeeCollector)11319"
      }
    ],
    "types": {
      "t_address": {
        "encoding": "inplace",
        "label": "address",
        "numberOfBytes": "20"
      },
      "t_array(t_address)dyn_storage": {
        "base": "t_address",
        "encoding": "dynamic_array",
        "label": "address[]",
        "numberOfBytes": "32"
      },
      "t_bool": {
        "encoding": "inplace",
        "label": "bool",
        "numberOfBytes": "1"
      },
      "t_contract(IBoosterFeeCollector)11319": {
        "encoding": "inplace",
        "label": "contract IBoosterFeeCollector",
        "numberOfBytes": "20"
      },
      "t_contract(IERC20)11786": {
        "encoding": "inplace",
        "label": "contract IERC20",
        "numberOfBytes": "20"
      },
      "t_mapping(t_address,t_address)": {
        "encoding": "mapping",
        "key": "t_address",
        "label": "mapping(address => address)",
        "numberOfBytes": "32",
        "value": "t_address"
      },
      "t_mapping(t_address,t_bool)": {
        "encoding": "mapping",
        "key": "t_address",
        "label": "mapping(address => bool)",
        "numberOfBytes": "32",
        "value": "t_bool"
      },
      "t_mapping(t_address,t_mapping(t_address,t_uint256))": {
        "encoding": "mapping",
        "key": "t_address",
        "label": "mapping(address => mapping(address => uint256))",
        "numberOfBytes": "32",
        "value": "t_mapping(t_address,t_uint256)"
      },
      "t_mapping(t_address,t_uint256)": {
        "encoding": "mapping",
        "key": "t_address",
        "label": "mapping(address => uint256)",
        "numberOfBytes": "32",
        "value": "t_uint256"
      },
      "t_string_storage": {
        "encoding": "bytes",
        "label": "string",
        "numberOfBytes": "32"
      },
      "t_uint256": {
        "encoding": "inplace",
        "label": "uint256",
        "numberOfBytes": "32"
      }
    }
  }
}