{
  "address": "0xdEF941c1e567C7289f63164BB3464db54C4F76c4",
  "abi": [
    {
      "inputs": [
        {
          "internalType": "string",
          "name": "_name",
          "type": "string"
        },
        {
          "internalType": "address",
          "name": "_depositToken",
          "type": "address"
        },
        {
          "internalType": "address",
          "name": "_swapPairDepositToken",
          "type": "address"
        },
        {
          "components": [
            {
              "internalType": "address",
              "name": "reward",
              "type": "address"
            },
            {
              "internalType": "address",
              "name": "swapPair",
              "type": "address"
            }
          ],
          "internalType": "struct VariableRewardsStrategy.RewardSwapPairs[]",
          "name": "_rewardSwapPairs",
          "type": "tuple[]"
        },
        {
          "internalType": "address",
          "name": "_stakingContract",
          "type": "address"
        },
        {
          "internalType": "address",
          "name": "_boosterFeeCollector",
          "type": "address"
        },
        {
          "internalType": "address",
          "name": "_timelock",
          "type": "address"
        },
        {
          "components": [
            {
              "internalType": "uint256",
              "name": "minTokensToReinvest",
              "type": "uint256"
            },
            {
              "internalType": "uint256",
              "name": "adminFeeBips",
              "type": "uint256"
            },
            {
              "internalType": "uint256",
              "name": "devFeeBips",
              "type": "uint256"
            },
            {
              "internalType": "uint256",
              "name": "reinvestRewardBips",
              "type": "uint256"
            }
          ],
          "internalType": "struct VariableRewardsStrategy.StrategySettings",
          "name": "_strategySettings",
          "type": "tuple"
        }
      ],
      "stateMutability": "nonpayable",
      "type": "constructor"
    },
    {
      "anonymous": false,
      "inputs": [
        {
          "indexed": false,
          "internalType": "address",
          "name": "rewardToken",
          "type": "address"
        },
        {
          "indexed": false,
          "internalType": "address",
          "name": "swapPair",
          "type": "address"
        }
      ],
      "name": "AddReward",
      "type": "event"
    },
    {
      "anonymous": false,
      "inputs": [
        {
          "indexed": true,
          "internalType": "address",
          "name": "account",
          "type": "address"
        }
      ],
      "name": "AllowDepositor",
      "type": "event"
    },
    {
      "anonymous": false,
      "inputs": [
        {
          "indexed": true,
          "internalType": "address",
          "name": "owner",
          "type": "address"
        },
        {
          "indexed": true,
          "internalType": "address",
          "name": "spender",
          "type": "address"
        },
        {
          "indexed": false,
          "internalType": "uint256",
          "name": "value",
          "type": "uint256"
        }
      ],
      "name": "Approval",
      "type": "event"
    },
    {
      "anonymous": false,
      "inputs": [
        {
          "indexed": true,
          "internalType": "address",
          "name": "account",
          "type": "address"
        },
        {
          "indexed": false,
          "internalType": "uint256",
          "name": "amount",
          "type": "uint256"
        }
      ],
      "name": "Deposit",
      "type": "event"
    },
    {
      "anonymous": false,
      "inputs": [
        {
          "indexed": false,
          "internalType": "bool",
          "name": "newValue",
          "type": "bool"
        }
      ],
      "name": "DepositsEnabled",
      "type": "event"
    },
    {
      "anonymous": false,
      "inputs": [
        {
          "indexed": true,
          "internalType": "address",
          "name": "previousOwner",
          "type": "address"
        },
        {
          "indexed": true,
          "internalType": "address",
          "name": "newOwner",
          "type": "address"
        }
      ],
      "name": "OwnershipTransferred",
      "type": "event"
    },
    {
      "anonymous": false,
      "inputs": [
        {
          "indexed": false,
          "internalType": "address",
          "name": "token",
          "type": "address"
        },
        {
          "indexed": false,
          "internalType": "uint256",
          "name": "amount",
          "type": "uint256"
        }
      ],
      "name": "Recovered",
      "type": "event"
    },
    {
      "anonymous": false,
      "inputs": [
        {
          "indexed": false,
          "internalType": "uint256",
          "name": "newTotalDeposits",
          "type": "uint256"
        },
        {
          "indexed": false,
          "internalType": "uint256",
          "name": "newTotalSupply",
          "type": "uint256"
        }
      ],
      "name": "Reinvest",
      "type": "event"
    },
    {
      "anonymous": false,
      "inputs": [
        {
          "indexed": true,
          "internalType": "address",
          "name": "account",
          "type": "address"
        }
      ],
      "name": "RemoveDepositor",
      "type": "event"
    },
    {
      "anonymous": false,
      "inputs": [
        {
          "indexed": false,
          "internalType": "address",
          "name": "rewardToken",
          "type": "address"
        }
      ],
      "name": "RemoveReward",
      "type": "event"
    },
    {
      "anonymous": false,
      "inputs": [
        {
          "indexed": true,
          "internalType": "address",
          "name": "from",
          "type": "address"
        },
        {
          "indexed": true,
          "internalType": "address",
          "name": "to",
          "type": "address"
        },
        {
          "indexed": false,
          "internalType": "uint256",
          "name": "value",
          "type": "uint256"
        }
      ],
      "name": "Transfer",
      "type": "event"
    },
    {
      "anonymous": false,
      "inputs": [
        {
          "indexed": false,
          "internalType": "uint256",
          "name": "oldValue",
          "type": "uint256"
        },
        {
          "indexed": false,
          "internalType": "uint256",
          "name": "newValue",
          "type": "uint256"
        }
      ],
      "name": "UpdateAdminFee",
      "type": "event"
    },
    {
      "anonymous": false,
      "inputs": [
        {
          "indexed": false,
          "internalType": "address",
          "name": "oldValue",
          "type": "address"
        },
        {
          "indexed": false,
          "internalType": "address",
          "name": "newValue",
          "type": "address"
        }
      ],
      "name": "UpdateDevAddr",
      "type": "event"
    },
    {
      "anonymous": false,
      "inputs": [
        {
          "indexed": false,
          "internalType": "uint256",
          "name": "oldValue",
          "type": "uint256"
        },
        {
          "indexed": false,
          "internalType": "uint256",
          "name": "newValue",
          "type": "uint256"
        }
      ],
      "name": "UpdateDevFee",
      "type": "event"
    },
    {
      "anonymous": false,
      "inputs": [
        {
          "indexed": false,
          "internalType": "uint256",
          "name": "oldValue",
          "type": "uint256"
        },
        {
          "indexed": false,
          "internalType": "uint256",
          "name": "newValue",
          "type": "uint256"
        }
      ],
      "name": "UpdateMaxTokensToDepositWithoutReinvest",
      "type": "event"
    },
    {
      "anonymous": false,
      "inputs": [
        {
          "indexed": false,
          "internalType": "uint256",
          "name": "oldValue",
          "type": "uint256"
        },
        {
          "indexed": false,
          "internalType": "uint256",
          "name": "newValue",
          "type": "uint256"
        }
      ],
      "name": "UpdateMinTokensToReinvest",
      "type": "event"
    },
    {
      "anonymous": false,
      "inputs": [
        {
          "indexed": false,
          "internalType": "uint256",
          "name": "oldValue",
          "type": "uint256"
        },
        {
          "indexed": false,
          "internalType": "uint256",
          "name": "newValue",
          "type": "uint256"
        }
      ],
      "name": "UpdateReinvestReward",
      "type": "event"
    },
    {
      "anonymous": false,
      "inputs": [
        {
          "indexed": true,
          "internalType": "address",
          "name": "account",
          "type": "address"
        },
        {
          "indexed": false,
          "internalType": "uint256",
          "name": "amount",
          "type": "uint256"
        }
      ],
      "name": "Withdraw",
      "type": "event"
    },
    {
      "inputs": [],
      "name": "ADMIN_FEE_BIPS",
      "outputs": [
        {
          "internalType": "uint256",
          "name": "",
          "type": "uint256"
        }
      ],
      "stateMutability": "view",
      "type": "function"
    },
    {
      "inputs": [],
      "name": "DEPOSITS_ENABLED",
      "outputs": [
        {
          "internalType": "bool",
          "name": "",
          "type": "bool"
        }
      ],
      "stateMutability": "view",
      "type": "function"
    },
    {
      "inputs": [],
      "name": "DEV_FEE_BIPS",
      "outputs": [
        {
          "internalType": "uint256",
          "name": "",
          "type": "uint256"
        }
      ],
      "stateMutability": "view",
      "type": "function"
    },
    {
      "inputs": [],
      "name": "DOMAIN_TYPEHASH",
      "outputs": [
        {
          "internalType": "bytes32",
          "name": "",
          "type": "bytes32"
        }
      ],
      "stateMutability": "view",
      "type": "function"
    },
    {
      "inputs": [],
      "name": "MAX_TOKENS_TO_DEPOSIT_WITHOUT_REINVEST",
      "outputs": [
        {
          "internalType": "uint256",
          "name": "",
          "type": "uint256"
        }
      ],
      "stateMutability": "view",
      "type": "function"
    },
    {
      "inputs": [],
      "name": "MIN_TOKENS_TO_REINVEST",
      "outputs": [
        {
          "internalType": "uint256",
          "name": "",
          "type": "uint256"
        }
      ],
      "stateMutability": "view",
      "type": "function"
    },
    {
      "inputs": [],
      "name": "PERMIT_TYPEHASH",
      "outputs": [
        {
          "internalType": "bytes32",
          "name": "",
          "type": "bytes32"
        }
      ],
      "stateMutability": "view",
      "type": "function"
    },
    {
      "inputs": [],
      "name": "REINVEST_REWARD_BIPS",
      "outputs": [
        {
          "internalType": "uint256",
          "name": "",
          "type": "uint256"
        }
      ],
      "stateMutability": "view",
      "type": "function"
    },
    {
      "inputs": [],
      "name": "VERSION_HASH",
      "outputs": [
        {
          "internalType": "bytes32",
          "name": "",
          "type": "bytes32"
        }
      ],
      "stateMutability": "view",
      "type": "function"
    },
    {
      "inputs": [
        {
          "internalType": "address",
          "name": "_rewardToken",
          "type": "address"
        },
        {
          "internalType": "address",
          "name": "_swapPair",
          "type": "address"
        }
      ],
      "name": "addReward",
      "outputs": [],
      "stateMutability": "nonpayable",
      "type": "function"
    },
    {
      "inputs": [
        {
          "internalType": "address",
          "name": "depositor",
          "type": "address"
        }
      ],
      "name": "allowDepositor",
      "outputs": [],
      "stateMutability": "nonpayable",
      "type": "function"
    },
    {
      "inputs": [
        {
          "internalType": "address",
          "name": "account",
          "type": "address"
        },
        {
          "internalType": "address",
          "name": "spender",
          "type": "address"
        }
      ],
      "name": "allowance",
      "outputs": [
        {
          "internalType": "uint256",
          "name": "",
          "type": "uint256"
        }
      ],
      "stateMutability": "view",
      "type": "function"
    },
    {
      "inputs": [
        {
          "internalType": "address",
          "name": "",
          "type": "address"
        }
      ],
      "name": "allowedDepositors",
      "outputs": [
        {
          "internalType": "bool",
          "name": "",
          "type": "bool"
        }
      ],
      "stateMutability": "view",
      "type": "function"
    },
    {
      "inputs": [
        {
          "internalType": "address",
          "name": "spender",
          "type": "address"
        },
        {
          "internalType": "uint256",
          "name": "amount",
          "type": "uint256"
        }
      ],
      "name": "approve",
      "outputs": [
        {
          "internalType": "bool",
          "name": "",
          "type": "bool"
        }
      ],
      "stateMutability": "nonpayable",
      "type": "function"
    },
    {
      "inputs": [
        {
          "internalType": "address",
          "name": "account",
          "type": "address"
        }
      ],
      "name": "balanceOf",
      "outputs": [
        {
          "internalType": "uint256",
          "name": "",
          "type": "uint256"
        }
      ],
      "stateMutability": "view",
      "type": "function"
    },
    {
      "inputs": [],
      "name": "boosterFeeCollector",
      "outputs": [
        {
          "internalType": "contract IBoosterFeeCollector",
          "name": "",
          "type": "address"
        }
      ],
      "stateMutability": "view",
      "type": "function"
    },
    {
      "inputs": [
        {
          "internalType": "uint256",
          "name": "_amount",
          "type": "uint256"
        }
      ],
      "name": "calculateDepositFee",
      "outputs": [
        {
          "internalType": "uint256",
          "name": "",
          "type": "uint256"
        }
      ],
      "stateMutability": "view",
      "type": "function"
    },
    {
      "inputs": [
        {
          "internalType": "uint256",
          "name": "_amount",
          "type": "uint256"
        }
      ],
      "name": "calculateWithdrawFee",
      "outputs": [
        {
          "internalType": "uint256",
          "name": "",
          "type": "uint256"
        }
      ],
      "stateMutability": "view",
      "type": "function"
    },
    {
      "inputs": [],
      "name": "checkReward",
      "outputs": [
        {
          "internalType": "uint256",
          "name": "",
          "type": "uint256"
        }
      ],
      "stateMutability": "view",
      "type": "function"
    },
    {
      "inputs": [],
      "name": "decimals",
      "outputs": [
        {
          "internalType": "uint8",
          "name": "",
          "type": "uint8"
        }
      ],
      "stateMutability": "view",
      "type": "function"
    },
    {
      "inputs": [
        {
          "internalType": "uint256",
          "name": "_amount",
          "type": "uint256"
        }
      ],
      "name": "deposit",
      "outputs": [],
      "stateMutability": "nonpayable",
      "type": "function"
    },
    {
      "inputs": [
        {
          "internalType": "address",
          "name": "_account",
          "type": "address"
        },
        {
          "internalType": "uint256",
          "name": "_amount",
          "type": "uint256"
        }
      ],
      "name": "depositFor",
      "outputs": [],
      "stateMutability": "nonpayable",
      "type": "function"
    },
    {
      "inputs": [],
      "name": "depositToken",
      "outputs": [
        {
          "internalType": "contract IERC20",
          "name": "",
          "type": "address"
        }
      ],
      "stateMutability": "view",
      "type": "function"
    },
    {
      "inputs": [
        {
          "internalType": "uint256",
          "name": "_amount",
          "type": "uint256"
        },
        {
          "internalType": "uint256",
          "name": "_deadline",
          "type": "uint256"
        },
        {
          "internalType": "uint8",
          "name": "_v",
          "type": "uint8"
        },
        {
          "internalType": "bytes32",
          "name": "_r",
          "type": "bytes32"
        },
        {
          "internalType": "bytes32",
          "name": "_s",
          "type": "bytes32"
        }
      ],
      "name": "depositWithPermit",
      "outputs": [],
      "stateMutability": "nonpayable",
      "type": "function"
    },
    {
      "inputs": [],
      "name": "devAddr",
      "outputs": [
        {
          "internalType": "address",
          "name": "",
          "type": "address"
        }
      ],
      "stateMutability": "view",
      "type": "function"
    },
    {
      "inputs": [],
      "name": "estimateDeployedBalance",
      "outputs": [
        {
          "internalType": "uint256",
          "name": "",
          "type": "uint256"
        }
      ],
      "stateMutability": "view",
      "type": "function"
    },
    {
      "inputs": [],
      "name": "estimateReinvestReward",
      "outputs": [
        {
          "internalType": "uint256",
          "name": "",
          "type": "uint256"
        }
      ],
      "stateMutability": "view",
      "type": "function"
    },
    {
      "inputs": [
        {
          "internalType": "uint256",
          "name": "amount",
          "type": "uint256"
        }
      ],
      "name": "getDepositTokensForShares",
      "outputs": [
        {
          "internalType": "uint256",
          "name": "",
          "type": "uint256"
        }
      ],
      "stateMutability": "view",
      "type": "function"
    },
    {
      "inputs": [],
      "name": "getDomainSeparator",
      "outputs": [
        {
          "internalType": "bytes32",
          "name": "",
          "type": "bytes32"
        }
      ],
      "stateMutability": "view",
      "type": "function"
    },
    {
      "inputs": [
        {
          "internalType": "uint256",
          "name": "amount",
          "type": "uint256"
        }
      ],
      "name": "getSharesForDepositTokens",
      "outputs": [
        {
          "internalType": "uint256",
          "name": "",
          "type": "uint256"
        }
      ],
      "stateMutability": "view",
      "type": "function"
    },
    {
      "inputs": [],
      "name": "name",
      "outputs": [
        {
          "internalType": "string",
          "name": "",
          "type": "string"
        }
      ],
      "stateMutability": "view",
      "type": "function"
    },
    {
      "inputs": [
        {
          "internalType": "address",
          "name": "",
          "type": "address"
        }
      ],
      "name": "nonces",
      "outputs": [
        {
          "internalType": "uint256",
          "name": "",
          "type": "uint256"
        }
      ],
      "stateMutability": "view",
      "type": "function"
    },
    {
      "inputs": [],
      "name": "numberOfAllowedDepositors",
      "outputs": [
        {
          "internalType": "uint256",
          "name": "",
          "type": "uint256"
        }
      ],
      "stateMutability": "view",
      "type": "function"
    },
    {
      "inputs": [],
      "name": "owner",
      "outputs": [
        {
          "internalType": "address",
          "name": "",
          "type": "address"
        }
      ],
      "stateMutability": "view",
      "type": "function"
    },
    {
      "inputs": [
        {
          "internalType": "address",
          "name": "owner",
          "type": "address"
        },
        {
          "internalType": "address",
          "name": "spender",
          "type": "address"
        },
        {
          "internalType": "uint256",
          "name": "value",
          "type": "uint256"
        },
        {
          "internalType": "uint256",
          "name": "deadline",
          "type": "uint256"
        },
        {
          "internalType": "uint8",
          "name": "v",
          "type": "uint8"
        },
        {
          "internalType": "bytes32",
          "name": "r",
          "type": "bytes32"
        },
        {
          "internalType": "bytes32",
          "name": "s",
          "type": "bytes32"
        }
      ],
      "name": "permit",
      "outputs": [],
      "stateMutability": "nonpayable",
      "type": "function"
    },
    {
      "inputs": [
        {
          "internalType": "uint256",
          "name": "amount",
          "type": "uint256"
        }
      ],
      "name": "recoverAVAX",
      "outputs": [],
      "stateMutability": "nonpayable",
      "type": "function"
    },
    {
      "inputs": [
        {
          "internalType": "address",
          "name": "tokenAddress",
          "type": "address"
        },
        {
          "internalType": "uint256",
          "name": "tokenAmount",
          "type": "uint256"
        }
      ],
      "name": "recoverERC20",
      "outputs": [],
      "stateMutability": "nonpayable",
      "type": "function"
    },
    {
      "inputs": [],
      "name": "reinvest",
      "outputs": [],
      "stateMutability": "nonpayable",
      "type": "function"
    },
    {
      "inputs": [
        {
          "internalType": "address",
          "name": "depositor",
          "type": "address"
        }
      ],
      "name": "removeDepositor",
      "outputs": [],
      "stateMutability": "nonpayable",
      "type": "function"
    },
    {
      "inputs": [
        {
          "internalType": "address",
          "name": "_rewardToken",
          "type": "address"
        }
      ],
      "name": "removeReward",
      "outputs": [],
      "stateMutability": "nonpayable",
      "type": "function"
    },
    {
      "inputs": [],
      "name": "renounceOwnership",
      "outputs": [],
      "stateMutability": "nonpayable",
      "type": "function"
    },
    {
      "inputs": [
        {
          "internalType": "uint256",
          "name": "_minReturnAmountAccepted",
          "type": "uint256"
        },
        {
          "internalType": "bool",
          "name": "",
          "type": "bool"
        }
      ],
      "name": "rescueDeployedFunds",
      "outputs": [],
      "stateMutability": "nonpayable",
      "type": "function"
    },
    {
      "inputs": [
        {
          "internalType": "address",
          "name": "token",
          "type": "address"
        },
        {
          "internalType": "address",
          "name": "spender",
          "type": "address"
        }
      ],
      "name": "revokeAllowance",
      "outputs": [],
      "stateMutability": "nonpayable",
      "type": "function"
    },
    {
      "inputs": [],
      "name": "rewardCount",
      "outputs": [
        {
          "internalType": "uint256",
          "name": "",
          "type": "uint256"
        }
      ],
      "stateMutability": "view",
      "type": "function"
    },
    {
      "inputs": [
        {
          "internalType": "address",
          "name": "",
          "type": "address"
        }
      ],
      "name": "rewardSwapPairs",
      "outputs": [
        {
          "internalType": "address",
          "name": "",
          "type": "address"
        }
      ],
      "stateMutability": "view",
      "type": "function"
    },
    {
      "inputs": [],
      "name": "rewardToken",
      "outputs": [
        {
          "internalType": "contract IERC20",
          "name": "",
          "type": "address"
        }
      ],
      "stateMutability": "view",
      "type": "function"
    },
    {
      "inputs": [],
      "name": "setAllowances",
      "outputs": [],
      "stateMutability": "nonpayable",
      "type": "function"
    },
    {
      "inputs": [
        {
          "internalType": "uint256",
          "name": "",
          "type": "uint256"
        }
      ],
      "name": "supportedRewards",
      "outputs": [
        {
          "internalType": "address",
          "name": "",
          "type": "address"
        }
      ],
      "stateMutability": "view",
      "type": "function"
    },
    {
      "inputs": [],
      "name": "symbol",
      "outputs": [
        {
          "internalType": "string",
          "name": "",
          "type": "string"
        }
      ],
      "stateMutability": "view",
      "type": "function"
    },
    {
      "inputs": [],
      "name": "totalDeposits",
      "outputs": [
        {
          "internalType": "uint256",
          "name": "",
          "type": "uint256"
        }
      ],
      "stateMutability": "view",
      "type": "function"
    },
    {
      "inputs": [],
      "name": "totalSupply",
      "outputs": [
        {
          "internalType": "uint256",
          "name": "",
          "type": "uint256"
        }
      ],
      "stateMutability": "view",
      "type": "function"
    },
    {
      "inputs": [
        {
          "internalType": "address",
          "name": "dst",
          "type": "address"
        },
        {
          "internalType": "uint256",
          "name": "amount",
          "type": "uint256"
        }
      ],
      "name": "transfer",
      "outputs": [
        {
          "internalType": "bool",
          "name": "",
          "type": "bool"
        }
      ],
      "stateMutability": "nonpayable",
      "type": "function"
    },
    {
      "inputs": [
        {
          "internalType": "address",
          "name": "src",
          "type": "address"
        },
        {
          "internalType": "address",
          "name": "dst",
          "type": "address"
        },
        {
          "internalType": "uint256",
          "name": "amount",
          "type": "uint256"
        }
      ],
      "name": "transferFrom",
      "outputs": [
        {
          "internalType": "bool",
          "name": "",
          "type": "bool"
        }
      ],
      "stateMutability": "nonpayable",
      "type": "function"
    },
    {
      "inputs": [
        {
          "internalType": "address",
          "name": "newOwner",
          "type": "address"
        }
      ],
      "name": "transferOwnership",
      "outputs": [],
      "stateMutability": "nonpayable",
      "type": "function"
    },
    {
      "inputs": [
        {
          "internalType": "uint256",
          "name": "newValue",
          "type": "uint256"
        }
      ],
      "name": "updateAdminFee",
      "outputs": [],
      "stateMutability": "nonpayable",
      "type": "function"
    },
    {
      "inputs": [
        {
          "internalType": "address",
          "name": "_collector",
          "type": "address"
        }
      ],
      "name": "updateBoosterFeeCollector",
      "outputs": [],
      "stateMutability": "nonpayable",
      "type": "function"
    },
    {
      "inputs": [
        {
          "internalType": "bool",
          "name": "newValue",
          "type": "bool"
        }
      ],
      "name": "updateDepositsEnabled",
      "outputs": [],
      "stateMutability": "nonpayable",
      "type": "function"
    },
    {
      "inputs": [
        {
          "internalType": "address",
          "name": "newValue",
          "type": "address"
        }
      ],
      "name": "updateDevAddr",
      "outputs": [],
      "stateMutability": "nonpayable",
      "type": "function"
    },
    {
      "inputs": [
        {
          "internalType": "uint256",
          "name": "newValue",
          "type": "uint256"
        }
      ],
      "name": "updateDevFee",
      "outputs": [],
      "stateMutability": "nonpayable",
      "type": "function"
    },
    {
      "inputs": [
        {
          "internalType": "uint256",
          "name": "newValue",
          "type": "uint256"
        }
      ],
      "name": "updateMaxTokensToDepositWithoutReinvest",
      "outputs": [],
      "stateMutability": "nonpayable",
      "type": "function"
    },
    {
      "inputs": [
        {
          "internalType": "uint256",
          "name": "newValue",
          "type": "uint256"
        }
      ],
      "name": "updateMinTokensToReinvest",
      "outputs": [],
      "stateMutability": "nonpayable",
      "type": "function"
    },
    {
      "inputs": [
        {
          "internalType": "uint256",
          "name": "newValue",
          "type": "uint256"
        }
      ],
      "name": "updateReinvestReward",
      "outputs": [],
      "stateMutability": "nonpayable",
      "type": "function"
    },
    {
      "inputs": [],
      "name": "vectorPoolHelper",
      "outputs": [
        {
          "internalType": "contract IVectorPoolHelper",
          "name": "",
          "type": "address"
        }
      ],
      "stateMutability": "view",
      "type": "function"
    },
    {
      "inputs": [
        {
          "internalType": "uint256",
          "name": "_amount",
          "type": "uint256"
        }
      ],
      "name": "withdraw",
      "outputs": [],
      "stateMutability": "nonpayable",
      "type": "function"
    }
  ],
  "transactionHash": "0x33f8012aa68d1e4715e683c10af40a543af0d81f9d79c6b861d23d8cfd0fec9b",
  "args": [
    "Yield Yak: Vector FRAX",
    "0xD24C2Ad096400B6FBcd2ad8B24E7acBc21A1da64",
    "0x862905a82382db9405a40dcaa8ee9e8f4af52c89",
    [
      {
        "reward": "0x22d4002028f537599be9f666d1c4fa138522f9c8",
        "swapPair": "0xcdfd91eea657cc2701117fe9711c9a4f61feed23"
      },
      {
        "reward": "0x5817D4F0b62A59b17f75207DA1848C2cE75e7AF4",
        "swapPair": "0x9ef0c12b787f90f59cbbe0b611b82d30cab92929"
      }
    ],
    "0xcCcE9e28fE4ceff031fD3B8837cb569CfB7A6843",
    "0xA1cfc90A52ba3453A78F460b8BE1FcDe068E29e7",
    "0xDcEDF06Fd33E1D7b6eb4b309f779a0e9D3172e44",
    {
      "minTokensToReinvest": "10000000000000000",
      "adminFeeBips": 0,
      "devFeeBips": 600,
      "reinvestRewardBips": 200
    }
  ],
  "solcInputHash": "02bf2c4e6dbc3d07793556c1ea5485cb",
  "bytecode": "0x60e0604052600960a0819052685969656c642059616b60b81b60c09081526200002c916000919062000b08565b506040805180820190915260038082526216549560ea1b6020909201918252620000599160019162000b08565b503480156200006757600080fd5b5060405162005f4638038062005f468339810160408190526200008a9162000d28565b87878787858585858484846000620000a162000294565b600680546001600160a01b0319166001600160a01b0383169081179091556040519192509060009060008051602062005f26833981519152908290a3508451620000f390600090602088019062000b08565b50600980546001600160a01b0386166001600160a01b031991821617909155600a8054821673b31f66aa3c1e785363f0875a1b74e27b85fd66c7179055600b8054909116732d580f9cf2fb2d09bc411532988f2afda4e7beff17905560005b8351811015620001a7576200019e8482815181106200016d57fe5b6020026020010151600001518583815181106200018657fe5b6020026020010151602001516200029860201b60201c565b60010162000152565b508051620001b590620003cc565b6020810151620001c59062000454565b6040810151620001d59062000522565b6060810151620001e590620005dc565b620001f1600162000696565b620001fc826200073e565b7fc7606d21ac05cd309191543e409f0845c016120563783d70e4f41419dc0ef2346000806040516200023092919062000e94565b60405180910390a150505050506200024e84620007f860201b60201c565b505050505060609490941b6001600160601b0319166080525050601680546001600160a01b0319166001600160a01b039290921691909117905550620010599350505050565b3390565b600a546001600160a01b038381169116146200030357620002db8183600a60009054906101000a90046001600160a01b03166200086560201b6200206a1760201c565b620003035760405162461bcd60e51b8152600401620002fa9062000ea2565b60405180910390fd5b6001600160a01b038083166000818152601260209081526040822080549486166001600160a01b03199586161790556013805460018181018355919093527f66de8ffda797e3de9c05e8fc57b3bf0ec28a930d40b0d285d93c06501cf6a090909201805490941690921790925560145462000389929091620022bb62000aca821b17901c565b6014556040517f916e172c080569186aa7ea048268267257cf7cc49505908863f747bca8620f8090620003c0908490849062000e6f565b60405180910390a15050565b620003d662000294565b6001600160a01b0316620003e962000af9565b6001600160a01b031614620004125760405162461bcd60e51b8152600401620002fa9062001000565b7f481f79ac3a523b6d6db3c5a720e190e986d1cc1b41adcdf50f9caef849901100600c54826040516200044792919062000e94565b60405180910390a1600c55565b6200045e62000294565b6001600160a01b03166200047162000af9565b6001600160a01b0316146200049a5760405162461bcd60e51b8152600401620002fa9062001000565b612710620004d4600f54620004c06011548562000aca60201b620022bb1790919060201c565b62000aca60201b620022bb1790919060201c565b1115620004e057600080fd5b7f3cc372f330f95ac9540626dc8a25f5bf21ba607215a5d58304cb804d446f104a601054826040516200051592919062000e94565b60405180910390a1601055565b6200052c62000294565b6001600160a01b03166200053f62000af9565b6001600160a01b031614620005685760405162461bcd60e51b8152600401620002fa9062001000565b6127106200058e600f54620004c06010548562000aca60201b620022bb1790919060201c565b11156200059a57600080fd5b7f2a42303d002f0ba6cfe8259c91d4684443fb0b3de286ba74991175d65172613160115482604051620005cf92919062000e94565b60405180910390a1601155565b620005e662000294565b6001600160a01b0316620005f962000af9565b6001600160a01b031614620006225760405162461bcd60e51b8152600401620002fa9062001000565b61271062000648601154620004c06010548562000aca60201b620022bb1790919060201c565b11156200065457600080fd5b7fe7f97d51d307dc44045597c9978bec0f842e6bb40d19b9444084cfa30d9ed4f2600f54826040516200068992919062000e94565b60405180910390a1600f55565b620006a062000294565b6001600160a01b0316620006b362000af9565b6001600160a01b031614620006dc5760405162461bcd60e51b8152600401620002fa9062001000565b600e5460ff1615158115151415620006f357600080fd5b600e805460ff19168215151790556040517f7b014ed3854e7f5cb0218d58b3c6ae7d53a68bb0af2f67bfb029ea42c38a7e85906200073390839062000e89565b60405180910390a150565b6200074862000294565b6001600160a01b03166200075b62000af9565b6001600160a01b031614620007845760405162461bcd60e51b8152600401620002fa9062001000565b6001600160a01b038116620007ad5760405162461bcd60e51b8152600401620002fa9062000f00565b6006546040516001600160a01b0380841692169060008051602062005f2683398151915290600090a3600680546001600160a01b0319166001600160a01b0392909216919091179055565b600954600a54620008249183916001600160a01b03918216911662000865602090811b6200206a17901c565b620008435760405162461bcd60e51b8152600401620002fa9062000f7d565b601580546001600160a01b0319166001600160a01b0392909216919091179055565b6000836001600160a01b0316630dfe16816040518163ffffffff1660e01b815260040160206040518083038186803b158015620008a157600080fd5b505afa158015620008b6573d6000803e3d6000fd5b505050506040513d601f19601f82011682018060405250810190620008dc919062000d0b565b6001600160a01b0316836001600160a01b03161480620009815750836001600160a01b031663d21220a76040518163ffffffff1660e01b815260040160206040518083038186803b1580156200093157600080fd5b505afa15801562000946573d6000803e3d6000fd5b505050506040513d601f19601f820116820180604052508101906200096c919062000d0b565b6001600160a01b0316836001600160a01b0316145b801562000aa35750836001600160a01b0316630dfe16816040518163ffffffff1660e01b815260040160206040518083038186803b158015620009c357600080fd5b505afa158015620009d8573d6000803e3d6000fd5b505050506040513d601f19601f82011682018060405250810190620009fe919062000d0b565b6001600160a01b0316826001600160a01b0316148062000aa35750836001600160a01b031663d21220a76040518163ffffffff1660e01b815260040160206040518083038186803b15801562000a5357600080fd5b505afa15801562000a68573d6000803e3d6000fd5b505050506040513d601f19601f8201168201806040525081019062000a8e919062000d0b565b6001600160a01b0316826001600160a01b0316145b801562000ac25750816001600160a01b0316836001600160a01b031614155b949350505050565b60008282018381101562000af25760405162461bcd60e51b8152600401620002fa9062000f46565b9392505050565b6006546001600160a01b031690565b828054600181600116156101000203166002900490600052602060002090601f016020900481019282601f1062000b4b57805160ff191683800117855562000b7b565b8280016001018555821562000b7b579182015b8281111562000b7b57825182559160200191906001019062000b5e565b5062000b8992915062000b8d565b5090565b5b8082111562000b89576000815560010162000b8e565b80516001600160a01b038116811462000bbc57600080fd5b919050565b600082601f83011262000bd2578081fd5b81516001600160401b0381111562000be657fe5b602062000bf7818284020162001035565b828152925080830184820160408085028701840188101562000c1857600080fd5b60005b8581101562000c435762000c30898462000c4f565b8452928401929181019160010162000c1b565b50505050505092915050565b60006040828403121562000c61578081fd5b604080519081016001600160401b038111828210171562000c7e57fe5b60405290508062000c8f8362000ba4565b815262000c9f6020840162000ba4565b60208201525092915050565b60006080828403121562000cbd578081fd5b604051608081016001600160401b038111828210171562000cda57fe5b8060405250809150825181526020830151602082015260408301516040820152606083015160608201525092915050565b60006020828403121562000d1d578081fd5b62000af28262000ba4565b600080600080600080600080610160898b03121562000d45578384fd5b88516001600160401b038082111562000d5c578586fd5b818b0191508b601f83011262000d70578586fd5b81518181111562000d7d57fe5b602062000d93601f8301601f1916820162001035565b8281528e8284870101111562000da7578889fd5b885b8381101562000dc657858101830151828201840152820162000da9565b8381111562000dd757898385840101525b509b5062000de78d820162000ba4565b9a50505062000df960408c0162000ba4565b975060608b015191508082111562000e0f578586fd5b5062000e1e8b828c0162000bc1565b95505062000e2f60808a0162000ba4565b935062000e3f60a08a0162000ba4565b925062000e4f60c08a0162000ba4565b915062000e608a60e08b0162000cab565b90509295985092959890939650565b6001600160a01b0392831681529116602082015260400190565b901515815260200190565b918252602082015260400190565b602080825260409082018190527f5661726961626c655265776172647353747261746567793a3a53776170207061908201527f697220646f6573206e6f7420636f6e7461696e2072657761726420746f6b656e606082015260800190565b60208082526026908201527f4f776e61626c653a206e6577206f776e657220697320746865207a65726f206160408201526564647265737360d01b606082015260800190565b6020808252601b908201527f536166654d6174683a206164646974696f6e206f766572666c6f770000000000604082015260600190565b6020808252605a908201527f5661726961626c65526577617264735374726174656779466f7253413a3a737760408201527f6170506169724465706f736974546f6b656e20646f6573206e6f74206d61746360608201527f68206465706f73697420616e642072657761726420746f6b656e000000000000608082015260a00190565b6020808252818101527f4f776e61626c653a2063616c6c6572206973206e6f7420746865206f776e6572604082015260600190565b6040518181016001600160401b03811182821017156200105157fe5b604052919050565b60805160601c614e7d620010a960003980610f8d528061193252806125bc5280612ab75280612b375280612c955280612f11528061354c52806139aa5280613ada5280613b675250614e7d6000f3fe608060405234801561001057600080fd5b50600436106103d05760003560e01c80638aff733d116101ff578063be60217b1161011a578063dd8ce4d6116100ad578063ed24911d1161007c578063ed24911d14610764578063f2fde38b1461076c578063f7c618c11461077f578063fdb5a03e14610787576103d0565b8063dd8ce4d614610718578063e21ac8251461072b578063e75ab0451461073e578063eab89a5a14610751576103d0565b8063d505accf116100e9578063d505accf146106e2578063da09c72c146106f5578063dbd9a4d4146106fd578063dd62ed3e14610705576103d0565b8063be60217b146106b7578063c4b24a46146106bf578063c89039c5146106c7578063cff1b6ef146106cf576103d0565b8063a5534e7111610192578063b52a321f11610161578063b52a321f1461068c578063b6b55f2514610694578063b9e57b80146106a7578063bd079f55146106af576103d0565b8063a5534e7114610640578063a8ae2b7c14610653578063a9059cbb14610666578063ac0d31ff14610679576103d0565b806395d89b41116101ce57806395d89b411461060a57806399729ec1146106125780639e4e731814610625578063a4d5e67c1461062d576103d0565b80638aff733d146105d45780638b73e606146105dc5780638da5cb5b146105ef5780639291d563146105f7576103d0565b8063483c2ef0116102ef578063715018a6116102825780637d882097116102515780637d882097146105935780637ecebe001461059b57806381837230146105ae5780638980f11f146105c1576103d0565b8063715018a614610568578063789139bc1461057057806379085425146105785780637ae2677314610580576103d0565b80634ebb7916116102be5780634ebb7916146105275780635ea682ea1461053a5780636c8b4b521461054257806370a0823114610555576103d0565b8063483c2ef0146104db5780634a970be7146104ee5780634bebd1e7146105015780634e77ace514610514576103d0565b806323b872dd1161036757806330adf81f1161033657806330adf81f146104a3578063313ce567146104ab5780633bdc6e72146104c057806340b47e1a146104c8576103d0565b806323b872dd14610468578063247d284b146104455780632e1a7d4d1461047b5780632f4f21e214610490576103d0565b80630fccc400116103a35780630fccc40014610430578063110560351461044557806318160ddd1461045857806320606b7014610460576103d0565b806306fdde03146103d557806307677111146103f3578063095ea7b3146104085780630f23475d14610428575b600080fd5b6103dd61078f565b6040516103ea9190614496565b60405180910390f35b6103fb61081d565b6040516103ea919061440f565b61041b6104163660046140fc565b610823565b6040516103ea9190614404565b6103fb61083a565b610438610866565b6040516103ea9190614358565b6103fb6104533660046141ad565b610875565b6103fb610888565b6103fb61088e565b61041b61047636600461404f565b6108b2565b61048e6104893660046141ad565b61099b565b005b61048e61049e3660046140fc565b610a5d565b6103fb610a6b565b6104b3610a8f565b6040516103ea9190614d3f565b6103fb610a94565b61048e6104d6366004614017565b610a9a565b61041b6104e9366004613fdf565b610ace565b61048e6104fc366004614224565b610ae3565b61048e61050f366004613fdf565b610b7b565b61048e610522366004614127565b610c5f565b61048e6105353660046141ad565b610cfd565b6103fb610da9565b61048e610550366004613fdf565b610daf565b6103fb610563366004613fdf565b610e10565b61048e610e2b565b6103fb610eb4565b6103fb610eba565b61048e61058e366004614017565b610ec0565b6103fb610f89565b6103fb6105a9366004613fdf565b611021565b61048e6105bc3660046141ad565b611033565b61048e6105cf3660046140fc565b6110b2565b6103fb6111c4565b61048e6105ea366004613fdf565b6111ca565b6104386112d0565b61048e610605366004613fdf565b6112df565b6103dd611372565b61048e6106203660046141ad565b6113cc565b6103fb61147a565b61048e61063b366004613fdf565b61149e565b61043861064e366004613fdf565b611625565b61048e6106613660046141ad565b611640565b61041b6106743660046140fc565b6116e8565b61048e6106873660046141dd565b6116f5565b61041b6118cd565b61048e6106a23660046141ad565b6118d6565b6103fb6118e3565b6103fb61192a565b610438611930565b6103fb611954565b610438611bca565b61048e6106dd3660046141ad565b611bd9565b61048e6106f036600461408f565b611c81565b610438611d36565b61048e611d45565b6103fb610713366004614017565b611d9c565b6103fb6107263660046141ad565b611dc7565b61048e6107393660046141ad565b611e01565b61043861074c3660046141ad565b611e80565b6103fb61075f3660046141ad565b611ea7565b6103fb611ed8565b61048e61077a366004613fdf565b611f6f565b610438612030565b61048e61203f565b6000805460408051602060026001851615610100026000190190941693909304601f810184900484028201840190925281815292918301828280156108155780601f106107ea57610100808354040283529160200191610815565b820191906000526020600020905b8154815290600101906020018083116107f857829003601f168201915b505050505081565b60105481565b60006108303384846122e0565b5060015b92915050565b600080610845610f89565b9050600061085282612394565b905061085e82826123b6565b925050505b90565b6016546001600160a01b031681565b600061088082612394565b90505b919050565b60025481565b7f8b73c3c69bb8fe3d512ecc4cf759cc79239f7b179b0ffacaa9a75d522b39400f81565b6001600160a01b0383166000818152600360209081526040808320338085529252822054919290919082148015906108ec57506000198114155b15610982576000610918856040518060600160405280602f8152602001614dc4602f91398491906123f4565b6001600160a01b03808916600081815260036020908152604080832094891680845294909152908190208490555192935090917f8c5be1e5ebec7d5bd14f71427d1e84f3dd0314c0f7b2291e5b200ac8c7c3b9259061097890859061440f565b60405180910390a3505b61098d868686612420565b6001925050505b9392505050565b60006109a682611ea7565b9050600081116109d15760405162461bcd60e51b81526004016109c8906144a9565b60405180910390fd5b60006109dc83612504565b905060006109e983612394565b9050610a0c336109f984846123b6565b6009546001600160a01b031691906126b5565b610a16338561273d565b336001600160a01b03167f884edad9ce6fa2440d8a54cc123490eb96d2768479d49ff9c7366125a942436484604051610a4f919061440f565b60405180910390a250505050565b610a678282612817565b5050565b7f6e71edae12b1b97f4d1f60370fef10105fa2faae0126114a169c64845d6126c981565b601281565b60075481565b600b546001600160a01b03163314610ac45760405162461bcd60e51b81526004016109c890614aab565b610a678282612995565b60086020526000908152604090205460ff1681565b6009546040517fd505accf0000000000000000000000000000000000000000000000000000000081526001600160a01b039091169063d505accf90610b3890339030908a908a908a908a908a90600401614390565b600060405180830381600087803b158015610b5257600080fd5b505af1158015610b66573d6000803e3d6000fd5b50505050610b743386612817565b5050505050565b610b83612a8b565b6001600160a01b0316610b946112d0565b6001600160a01b031614610bba5760405162461bcd60e51b81526004016109c8906149ab565b6001600160a01b03811660009081526008602052604090205460ff1615610bf35760405162461bcd60e51b81526004016109c8906147a3565b6001600160a01b0381166000908152600860205260409020805460ff19166001908117909155600754610c25916122bb565b6007556040516001600160a01b038216907fc0a1035c16faf8d1304056d92c00edf028f87e62b8235a938f00af9e3c0312c590600090a250565b610c67612a8b565b6001600160a01b0316610c786112d0565b6001600160a01b031614610c9e5760405162461bcd60e51b81526004016109c8906149ab565b600e5460ff1615158115151415610cb457600080fd5b600e805460ff19168215151790556040517f7b014ed3854e7f5cb0218d58b3c6ae7d53a68bb0af2f67bfb029ea42c38a7e8590610cf2908390614404565b60405180910390a150565b610d05612a8b565b6001600160a01b0316610d166112d0565b6001600160a01b031614610d3c5760405162461bcd60e51b81526004016109c8906149ab565b60008111610d4957600080fd5b604051339082156108fc029083906000818181858888f19350505050158015610d76573d6000803e3d6000fd5b507f8c1256b8896378cd5044f80c202f9772b9d77dc85c8a6eb51967210b09bfaa28600082604051610cf29291906143d1565b60115481565b610db7612a8b565b6001600160a01b0316610dc86112d0565b6001600160a01b031614610dee5760405162461bcd60e51b81526004016109c8906149ab565b601680546001600160a01b0319166001600160a01b0392909216919091179055565b6001600160a01b031660009081526004602052604090205490565b610e33612a8b565b6001600160a01b0316610e446112d0565b6001600160a01b031614610e6a5760405162461bcd60e51b81526004016109c8906149ab565b6006546040516000916001600160a01b0316907f8be0079c531659141344cd1fd0a4f28419497f9722a3daafe3b4186f6b6457e0908390a3600680546001600160a01b0319169055565b600d5481565b60145481565b610ec8612a8b565b6001600160a01b0316610ed96112d0565b6001600160a01b031614610eff5760405162461bcd60e51b81526004016109c8906149ab565b60405163095ea7b360e01b81526001600160a01b0383169063095ea7b390610f2e9084906000906004016143d1565b602060405180830381600087803b158015610f4857600080fd5b505af1158015610f5c573d6000803e3d6000fd5b505050506040513d601f19601f82011682018060405250810190610f809190614143565b610a6757600080fd5b60007f00000000000000000000000000000000000000000000000000000000000000006001600160a01b031663cee7b7d26040518163ffffffff1660e01b815260040160206040518083038186803b158015610fe457600080fd5b505afa158015610ff8573d6000803e3d6000fd5b505050506040513d601f19601f8201168201806040525081019061101c91906141c5565b905090565b60056020526000908152604090205481565b61103b612a8b565b6001600160a01b031661104c6112d0565b6001600160a01b0316146110725760405162461bcd60e51b81526004016109c8906149ab565b7f481f79ac3a523b6d6db3c5a720e190e986d1cc1b41adcdf50f9caef849901100600c54826040516110a5929190614cf9565b60405180910390a1600c55565b6110ba612a8b565b6001600160a01b03166110cb6112d0565b6001600160a01b0316146110f15760405162461bcd60e51b81526004016109c8906149ab565b600081116110fe57600080fd5b60405163a9059cbb60e01b81526001600160a01b0383169063a9059cbb9061112c90339085906004016143d1565b602060405180830381600087803b15801561114657600080fd5b505af115801561115a573d6000803e3d6000fd5b505050506040513d601f19601f8201168201806040525081019061117e9190614143565b61118757600080fd5b7f8c1256b8896378cd5044f80c202f9772b9d77dc85c8a6eb51967210b09bfaa2882826040516111b89291906143d1565b60405180910390a15050565b600f5481565b6111d2612a8b565b6001600160a01b03166111e36112d0565b6001600160a01b0316146112095760405162461bcd60e51b81526004016109c8906149ab565b60006007541161122b5760405162461bcd60e51b81526004016109c89061462f565b6001600160a01b03811660009081526008602052604090205460ff1615156001146112685760405162461bcd60e51b81526004016109c890614894565b6001600160a01b0381166000908152600860205260409020805460ff191690556007546112969060016123b6565b6007556040516001600160a01b038216907f0e86f6608b536e5339a25b65ff531f5ea91e1313d056ecd4752b35cbd16137d490600090a250565b6006546001600160a01b031690565b600b546001600160a01b031633146113095760405162461bcd60e51b81526004016109c890614aab565b600b546040517fa8e91499ed37682f43cffb045fcc7d379a91e8c9a14e6321877ee34dee564c0091611348916001600160a01b039091169084906143ea565b60405180910390a1600b80546001600160a01b0319166001600160a01b0392909216919091179055565b60018054604080516020600284861615610100026000190190941693909304601f810184900484028201840190925281815292918301828280156108155780601f106107ea57610100808354040283529160200191610815565b6113d4612a8b565b6001600160a01b03166113e56112d0565b6001600160a01b03161461140b5760405162461bcd60e51b81526004016109c8906149ab565b61271061142f600f54611429601054856122bb90919063ffffffff16565b906122bb565b111561143a57600080fd5b7f2a42303d002f0ba6cfe8259c91d4684443fb0b3de286ba74991175d6517261316011548260405161146d929190614cf9565b60405180910390a1601155565b7fc89efdaa54c0f20c7adf612882df0950f5a951637e0307cdcb4c672f298b8bc681565b600b546001600160a01b031633146114c85760405162461bcd60e51b81526004016109c890614aab565b6001600160a01b038116600090815260126020526040812080546001600160a01b0319169055805b601354811015611599576013818154811061150757fe5b6000918252602090912001546001600160a01b0384811691161415611591576013805460019350600019810190811061153c57fe5b600091825260209091200154601380546001600160a01b03909216918390811061156257fe5b9060005260206000200160006101000a8154816001600160a01b0302191690836001600160a01b031602179055505b6001016114f0565b50806115b75760405162461bcd60e51b81526004016109c8906148f1565b60138054806115c257fe5b600082815260209020810160001990810180546001600160a01b03191690550190556014546115f29060016123b6565b6014556040517f963b7c735475147a62c589c2d7cb8ec4b0a6b7af4f97373d79ebfa42ab8aa7dc906111b8908490614358565b6012602052600090815260409020546001600160a01b031681565b611648612a8b565b6001600160a01b03166116596112d0565b6001600160a01b03161461167f5760405162461bcd60e51b81526004016109c8906149ab565b61271061169d601154611429601054856122bb90919063ffffffff16565b11156116a857600080fd5b7fe7f97d51d307dc44045597c9978bec0f842e6bb40d19b9444084cfa30d9ed4f2600f54826040516116db929190614cf9565b60405180910390a1600f55565b6000610830338484612420565b6116fd612a8b565b6001600160a01b031661170e6112d0565b6001600160a01b0316146117345760405162461bcd60e51b81526004016109c8906149ab565b6009546040516370a0823160e01b81526000916001600160a01b0316906370a0823190611765903090600401614358565b60206040518083038186803b15801561177d57600080fd5b505afa158015611791573d6000803e3d6000fd5b505050506040513d601f19601f820116820180604052508101906117b591906141c5565b90506117bf612a8f565b6009546040516370a0823160e01b81526000916001600160a01b0316906370a08231906117f0903090600401614358565b60206040518083038186803b15801561180857600080fd5b505afa15801561181c573d6000803e3d6000fd5b505050506040513d601f19601f8201168201806040525081019061184091906141c5565b90508361184d82846123b6565b101561186b5760405162461bcd60e51b81526004016109c8906147da565b7fc7606d21ac05cd309191543e409f0845c016120563783d70e4f41419dc0ef234611894610f89565b6002546040516118a5929190614cf9565b60405180910390a1600e5460ff161515600114156118c7576118c76000610c5f565b50505050565b600e5460ff1681565b6118e03382612817565b50565b6000806118ee611954565b9050600c5481106119225761191a612710611914600f5484612bb990919063ffffffff16565b90612bf3565b915050610863565b600091505090565b600c5481565b7f000000000000000000000000000000000000000000000000000000000000000081565b60006060611960612c35565b6040516370a0823160e01b815290915060009073b31f66aa3c1e785363f0875a1b74e27b85fd66c7906370a082319061199d903090600401614358565b60206040518083038186803b1580156119b557600080fd5b505afa1580156119c9573d6000803e3d6000fd5b505050506040513d601f19601f820116820180604052508101906119ed91906141c5565b90506119f981476122bb565b5060005b8251811015611bc3576000838281518110611a1457fe5b602002602001015160000151905073b31f66aa3c1e785363f0875a1b74e27b85fd66c76001600160a01b0316816001600160a01b03161415611a8157611a7a848381518110611a5f57fe5b602002602001015160200151846122bb90919063ffffffff16565b9250611bba565b6040516370a0823160e01b81526000906001600160a01b038316906370a0823190611ab0903090600401614358565b60206040518083038186803b158015611ac857600080fd5b505afa158015611adc573d6000803e3d6000fd5b505050506040513d601f19601f82011682018060405250810190611b0091906141c5565b90506000611b2e868581518110611b1357fe5b602002602001015160200151836122bb90919063ffffffff16565b9050600060126000888781518110611b4257fe5b602090810291909101810151516001600160a01b03908116835290820192909252604001600020541690508115801590611b8457506001600160a01b03811615155b15611bb657611bb3611bac838673b31f66aa3c1e785363f0875a1b74e27b85fd66c785612fe9565b87906122bb565b95505b5050505b506001016119fd565b5091505090565b6009546001600160a01b031681565b611be1612a8b565b6001600160a01b0316611bf26112d0565b6001600160a01b031614611c185760405162461bcd60e51b81526004016109c8906149ab565b612710611c36600f54611429601154856122bb90919063ffffffff16565b1115611c4157600080fd5b7f3cc372f330f95ac9540626dc8a25f5bf21ba607215a5d58304cb804d446f104a60105482604051611c74929190614cf9565b60405180910390a1601055565b42841015611ca15760405162461bcd60e51b81526004016109c89061485d565b6001600160a01b03871660009081526005602090815260408083208054600181019091559051611cfc927f6e71edae12b1b97f4d1f60370fef10105fa2faae0126114a169c64845d6126c9928c928c928c92918c9101614418565b604051602081830303815290604052805190602001209050611d2188828686866130c4565b611d2c8888886122e0565b5050505050505050565b600b546001600160a01b031681565b611d4d612a8b565b6001600160a01b0316611d5e6112d0565b6001600160a01b031614611d845760405162461bcd60e51b81526004016109c8906149ab565b60405162461bcd60e51b81526004016109c890614a74565b6001600160a01b03918216600090815260036020908152604080832093909416825291909152205490565b6000611ddd611dd4610f89565b60025490612bb9565b611de8575080610883565b610880611df3610f89565b600254611914908590612bb9565b611e09612a8b565b6001600160a01b0316611e1a6112d0565b6001600160a01b031614611e405760405162461bcd60e51b81526004016109c8906149ab565b7fa5dae50539d56dfe1fb5273d883b0c39bc76750a25d036fc5fbd09ad8fd5f57f600d5482604051611e73929190614cf9565b60405180910390a1600d55565b60138181548110611e8d57fe5b6000918252602090912001546001600160a01b0316905081565b6000611eb4611dd4610f89565b611ec057506000610883565b610880600254611914611ed1610f89565b8590612bb9565b60007f8b73c3c69bb8fe3d512ecc4cf759cc79239f7b179b0ffacaa9a75d522b39400f60001b6000604051611f0d91906142b2565b6040519081900390207fc89efdaa54c0f20c7adf612882df0950f5a951637e0307cdcb4c672f298b8bc6611f3f61319a565b30604051602001611f5495949392919061444c565b60405160208183030381529060405280519060200120905090565b611f77612a8b565b6001600160a01b0316611f886112d0565b6001600160a01b031614611fae5760405162461bcd60e51b81526004016109c8906149ab565b6001600160a01b038116611fd45760405162461bcd60e51b81526004016109c890614564565b6006546040516001600160a01b038084169216907f8be0079c531659141344cd1fd0a4f28419497f9722a3daafe3b4186f6b6457e090600090a3600680546001600160a01b0319166001600160a01b0392909216919091179055565b600a546001600160a01b031681565b32331461205e5760405162461bcd60e51b81526004016109c8906145c1565b612068600061319e565b565b6000836001600160a01b0316630dfe16816040518163ffffffff1660e01b815260040160206040518083038186803b1580156120a557600080fd5b505afa1580156120b9573d6000803e3d6000fd5b505050506040513d601f19601f820116820180604052508101906120dd9190613ffb565b6001600160a01b0316836001600160a01b0316148061217d5750836001600160a01b031663d21220a76040518163ffffffff1660e01b815260040160206040518083038186803b15801561213057600080fd5b505afa158015612144573d6000803e3d6000fd5b505050506040513d601f19601f820116820180604052508101906121689190613ffb565b6001600160a01b0316836001600160a01b0316145b80156122955750836001600160a01b0316630dfe16816040518163ffffffff1660e01b815260040160206040518083038186803b1580156121bd57600080fd5b505afa1580156121d1573d6000803e3d6000fd5b505050506040513d601f19601f820116820180604052508101906121f59190613ffb565b6001600160a01b0316826001600160a01b031614806122955750836001600160a01b031663d21220a76040518163ffffffff1660e01b815260040160206040518083038186803b15801561224857600080fd5b505afa15801561225c573d6000803e3d6000fd5b505050506040513d601f19601f820116820180604052508101906122809190613ffb565b6001600160a01b0316826001600160a01b0316145b80156122b35750816001600160a01b0316836001600160a01b031614155b949350505050565b6000828201838110156109945760405162461bcd60e51b81526004016109c8906145f8565b6001600160a01b0383166123065760405162461bcd60e51b81526004016109c8906149e0565b6001600160a01b03821661232c5760405162461bcd60e51b81526004016109c890614c8d565b6001600160a01b0380841660008181526003602090815260408083209487168084529490915290819020849055517f8c5be1e5ebec7d5bd14f71427d1e84f3dd0314c0f7b2291e5b200ac8c7c3b9259061238790859061440f565b60405180910390a3505050565b60008061239f6132c9565b90506109946123ac6132ce565b6119148584612bb9565b600061099483836040518060400160405280601f81526020017f536166654d6174683a207375627472616374696f6e20756e646572666c6f77008152505b600081848411156124185760405162461bcd60e51b81526004016109c89190614496565b505050900390565b6001600160a01b0382166124465760405162461bcd60e51b81526004016109c890614a17565b612483816040518060600160405280602e8152602001614e1a602e91396001600160a01b03861660009081526004602052604090205491906123f4565b6001600160a01b0380851660009081526004602052604080822093909355908416815220546124b290826122bb565b6001600160a01b0380841660008181526004602052604090819020939093559151908516907fddf252ad1be2c89b69c2b068fc378daa952ba7f163c4a11628f55a4df523b3ef9061238790859061440f565b6009546040516370a0823160e01b815260009182916001600160a01b03909116906370a0823190612539903090600401614358565b60206040518083038186803b15801561255157600080fd5b505afa158015612565573d6000803e3d6000fd5b505050506040513d601f19601f8201168201806040525081019061258991906141c5565b6040517f441a3e700000000000000000000000000000000000000000000000000000000081529091506001600160a01b037f0000000000000000000000000000000000000000000000000000000000000000169063441a3e70906125f4908690600090600401614cf9565b600060405180830381600087803b15801561260e57600080fd5b505af1158015612622573d6000803e3d6000fd5b50506009546040516370a0823160e01b8152600093506001600160a01b0390911691506370a0823190612659903090600401614358565b60206040518083038186803b15801561267157600080fd5b505afa158015612685573d6000803e3d6000fd5b505050506040513d601f19601f820116820180604052508101906126a991906141c5565b90506122b381836123b6565b6127388363a9059cbb60e01b84846040516024016126d49291906143d1565b60408051601f198184030181529190526020810180517bffffffffffffffffffffffffffffffffffffffffffffffffffffffff167fffffffff00000000000000000000000000000000000000000000000000000000909316929092179091526132d4565b505050565b61277a81604051806060016040528060278152602001614df3602791396001600160a01b03851660009081526004602052604090205491906123f4565b60046000846001600160a01b03166001600160a01b03168152602001908152602001600020819055506127ca81604051806060016040528060278152602001614d9d6027913960025491906123f4565b6002556040516000906001600160a01b038416907fddf252ad1be2c89b69c2b068fc378daa952ba7f163c4a11628f55a4df523b3ef9061280b90859061440f565b60405180910390a35050565b600e5460ff16151560011461283e5760405162461bcd60e51b81526004016109c89061468c565b600d5415612868576000612850611954565b9050600d5481111561286657612866600161319e565b505b6009546040517f23b872dd0000000000000000000000000000000000000000000000000000000081526001600160a01b03909116906323b872dd906128b59033903090869060040161436c565b602060405180830381600087803b1580156128cf57600080fd5b505af11580156128e3573d6000803e3d6000fd5b505050506040513d601f19601f820116820180604052508101906129079190614143565b6129235760405162461bcd60e51b81526004016109c890614bd3565b600061292e82612394565b90506129468361294161072685856123b6565b613363565b61294f826133e5565b826001600160a01b03167fe1fffcc4923d04b559f4d29a8bfc6cda04eb5b0d3c460751c2402c5c5cc9109c83604051612988919061440f565b60405180910390a2505050565b600a546001600160a01b038381169116146129df57600a546129c390829084906001600160a01b031661206a565b6129df5760405162461bcd60e51b81526004016109c890614506565b6001600160a01b03808316600081815260126020526040812080549385166001600160a01b03199485161790556013805460018181018355919092527f66de8ffda797e3de9c05e8fc57b3bf0ec28a930d40b0d285d93c06501cf6a0909091018054909316909117909155601454612a56916122bb565b6014556040517f916e172c080569186aa7ea048268267257cf7cc49505908863f747bca8620f80906111b890849084906143ea565b3390565b60095460405163095ea7b360e01b81526001600160a01b039091169063095ea7b390612ae2907f0000000000000000000000000000000000000000000000000000000000000000906000906004016143d1565b602060405180830381600087803b158015612afc57600080fd5b505af1158015612b10573d6000803e3d6000fd5b505050506040513d601f19601f82011682018060405250810190612b349190614143565b507f00000000000000000000000000000000000000000000000000000000000000006001600160a01b031663441a3e70612b6c610f89565b60006040518363ffffffff1660e01b8152600401612b8b929190614cf9565b600060405180830381600087803b158015612ba557600080fd5b505af11580156118c7573d6000803e3d6000fd5b600082612bc857506000610834565b82820282848281612bd557fe5b04146109945760405162461bcd60e51b81526004016109c89061494e565b600061099483836040518060400160405280601a81526020017f536166654d6174683a206469766973696f6e206279207a65726f00000000000081525061340e565b601454606090818167ffffffffffffffff81118015612c5357600080fd5b50604051908082528060200260200182016040528015612c8d57816020015b612c7a613f99565b815260200190600190039081612c725790505b5090506000807f00000000000000000000000000000000000000000000000000000000000000006001600160a01b0316628cc2627322d4002028f537599be9f666d1c4fa138522f9c86040518263ffffffff1660e01b8152600401612cf29190614358565b604080518083038186803b158015612d0957600080fd5b505afa158015612d1d573d6000803e3d6000fd5b505050506040513d601f19601f82011682018060405250810190612d419190614201565b601654604051633cb6bbcb60e21b81529294509092506000916001600160a01b039091169063f2daef2c90612d7c90309086906004016143d1565b60206040518083038186803b158015612d9457600080fd5b505afa158015612da8573d6000803e3d6000fd5b505050506040513d601f19601f82011682018060405250810190612dcc91906141c5565b604080518082019091527322d4002028f537599be9f666d1c4fa138522f9c8815290915060208101612dfe84846123b6565b81525084600081518110612e0e57fe5b60200260200101819052506040518060400160405280735817d4f0b62a59b17f75207da1848c2ce75e7af46001600160a01b031681526020018481525084600181518110612e5857fe5b6020908102919091010152600260005b86811015612fdd57600060138281548110612e7f57fe5b6000918252602090912001546001600160a01b031690507322d4002028f537599be9f666d1c4fa138522f9c8811480612ed457506001600160a01b038116735817d4f0b62a59b17f75207da1848c2ce75e7af4145b15612edf5750612fd5565b6040517e8cc2620000000000000000000000000000000000000000000000000000000081526000906001600160a01b037f00000000000000000000000000000000000000000000000000000000000000001690628cc26290612f45908590600401614358565b604080518083038186803b158015612f5c57600080fd5b505afa158015612f70573d6000803e3d6000fd5b505050506040513d601f19601f82011682018060405250810190612f949190614201565b9150506040518060400160405280836001600160a01b0316815260200182815250888581518110612fc157fe5b602090810291909101015250506001909101905b600101612e68565b50939550505050505090565b600080612ff68585613445565b509050600080846001600160a01b0316630902f1ac6040518163ffffffff1660e01b815260040160606040518083038186803b15801561303557600080fd5b505afa158015613049573d6000803e3d6000fd5b505050506040513d601f19601f8201168201806040525081019061306d919061415f565b5091509150866001600160a01b0316836001600160a01b03161461308d57905b6130b888836dffffffffffffffffffffffffffff16836dffffffffffffffffffffffffffff16613476565b98975050505050505050565b60006130ce611ed8565b856040516020016130e0929190614322565b60405160208183030381529060405280519060200120905060006001828686866040516000815260200160405260405161311d9493929190614478565b6020604051602081039080840390855afa15801561313f573d6000803e3d6000fd5b5050604051601f1901519150506001600160a01b038116158015906131755750866001600160a01b0316816001600160a01b0316145b6131915760405162461bcd60e51b81526004016109c8906146e9565b50505050505050565b4690565b6131a66134be565b60006131b0613704565b9050816131d957600c548110156131d95760405162461bcd60e51b81526004016109c890614ae2565b60006131f661271061191460115485612bb990919063ffffffff16565b9050801561321b57600b54600a5461321b916001600160a01b039182169116836126b5565b6000613238612710611914600f5486612bb990919063ffffffff16565b9050801561325757600a54613257906001600160a01b031633836126b5565b60006132756132708361326a87876123b6565b906123b6565b61394d565b9050613280816133e5565b7fc7606d21ac05cd309191543e409f0845c016120563783d70e4f41419dc0ef2346132a9610f89565b6002546040516132ba929190614cf9565b60405180910390a15050505050565b600090565b61271090565b6060613329826040518060400160405280602081526020017f5361666545524332303a206c6f772d6c6576656c2063616c6c206661696c6564815250856001600160a01b03166139759092919063ffffffff16565b80519091501561273857808060200190518101906133479190614143565b6127385760405162461bcd60e51b81526004016109c890614c30565b60025461337090826122bb565b6002556001600160a01b03821660009081526004602052604090205461339690826122bb565b6001600160a01b0383166000818152600460205260408082209390935591519091907fddf252ad1be2c89b69c2b068fc378daa952ba7f163c4a11628f55a4df523b3ef9061280b90859061440f565b600081116134055760405162461bcd60e51b81526004016109c890614b3f565b6118e081613984565b6000818361342f5760405162461bcd60e51b81526004016109c89190614496565b50600083858161343b57fe5b0495945050505050565b600080826001600160a01b0316846001600160a01b03161061346857828461346b565b83835b915091509250929050565b600080613485856103e5612bb9565b905060006134938285612bb9565b905060006134a783611429886103e8612bb9565b90506134b38282612bf3565b979650505050505050565b6040516370a0823160e01b81526000907322d4002028f537599be9f666d1c4fa138522f9c8906370a08231906134f8903090600401614358565b60206040518083038186803b15801561351057600080fd5b505afa158015613524573d6000803e3d6000fd5b505050506040513d601f19601f8201168201806040525081019061354891906141c5565b90507f00000000000000000000000000000000000000000000000000000000000000006001600160a01b0316633d18b9126040518163ffffffff1660e01b8152600401600060405180830381600087803b1580156135a557600080fd5b505af11580156135b9573d6000803e3d6000fd5b50506040516370a0823160e01b81526000925061364d915083907322d4002028f537599be9f666d1c4fa138522f9c8906370a08231906135fd903090600401614358565b60206040518083038186803b15801561361557600080fd5b505afa158015613629573d6000803e3d6000fd5b505050506040513d601f19601f8201168201806040525081019061326a91906141c5565b601654604051633cb6bbcb60e21b81529192506000916001600160a01b039091169063f2daef2c9061368590309086906004016143d1565b60206040518083038186803b15801561369d57600080fd5b505afa1580156136b1573d6000803e3d6000fd5b505050506040513d601f19601f820116820180604052508101906136d591906141c5565b601654909150612738907322d4002028f537599be9f666d1c4fa138522f9c8906001600160a01b0316836126b5565b6040516370a0823160e01b8152600090819073b31f66aa3c1e785363f0875a1b74e27b85fd66c7906370a0823190613740903090600401614358565b60206040518083038186803b15801561375857600080fd5b505afa15801561376c573d6000803e3d6000fd5b505050506040513d601f19601f8201168201806040525081019061379091906141c5565b60135490915060005b81811015613945576000601382815481106137b057fe5b6000918252602090912001546001600160a01b0316905073b31f66aa3c1e785363f0875a1b74e27b85fd66c781141561386f574780156138685773b31f66aa3c1e785363f0875a1b74e27b85fd66c76001600160a01b031663d0e30db0826040518263ffffffff1660e01b81526004016000604051808303818588803b15801561383957600080fd5b505af115801561384d573d6000803e3d6000fd5b505050505061386581866122bb90919063ffffffff16565b94505b505061393d565b6040516370a0823160e01b81526000906001600160a01b038316906370a082319061389e903090600401614358565b60206040518083038186803b1580156138b657600080fd5b505afa1580156138ca573d6000803e3d6000fd5b505050506040513d601f19601f820116820180604052508101906138ee91906141c5565b9050801561393a576001600160a01b0380831660009081526012602052604090205416801561393857600a5461393590611bac90849086906001600160a01b031685613c67565b95505b505b50505b600101613799565b509091505090565b600a546009546015546000926108809285926001600160a01b03928316929182169116613c67565b60606122b38484600085613e08565b600960009054906101000a90046001600160a01b03166001600160a01b031663095ea7b37f00000000000000000000000000000000000000000000000000000000000000006001600160a01b0316631208e15b6040518163ffffffff1660e01b815260040160206040518083038186803b158015613a0157600080fd5b505afa158015613a15573d6000803e3d6000fd5b505050506040513d601f19601f82011682018060405250810190613a399190613ffb565b836040518363ffffffff1660e01b8152600401613a579291906143d1565b602060405180830381600087803b158015613a7157600080fd5b505af1158015613a85573d6000803e3d6000fd5b505050506040513d601f19601f82011682018060405250810190613aa99190614143565b506040517fb6b55f250000000000000000000000000000000000000000000000000000000081526001600160a01b037f0000000000000000000000000000000000000000000000000000000000000000169063b6b55f2590613b0f90849060040161440f565b600060405180830381600087803b158015613b2957600080fd5b505af1158015613b3d573d6000803e3d6000fd5b50505050600960009054906101000a90046001600160a01b03166001600160a01b031663095ea7b37f00000000000000000000000000000000000000000000000000000000000000006001600160a01b0316631208e15b6040518163ffffffff1660e01b815260040160206040518083038186803b158015613bbe57600080fd5b505afa158015613bd2573d6000803e3d6000fd5b505050506040513d601f19601f82011682018060405250810190613bf69190613ffb565b60006040518363ffffffff1660e01b8152600401613c159291906143d1565b602060405180830381600087803b158015613c2f57600080fd5b505af1158015613c43573d6000803e3d6000fd5b505050506040513d601f19601f82011682018060405250810190610a679190614143565b600080613c748585613445565b509050600080846001600160a01b0316630902f1ac6040518163ffffffff1660e01b815260040160606040518083038186803b158015613cb357600080fd5b505afa158015613cc7573d6000803e3d6000fd5b505050506040513d601f19601f82011682018060405250810190613ceb919061415f565b5091509150866001600160a01b0316836001600160a01b031614613d0b57905b600080613d398a856dffffffffffffffffffffffffffff16856dffffffffffffffffffffffffffff16613476565b9050886001600160a01b0316856001600160a01b031614613d5657905b613d6189888c613ebe565b604080516000815260208101918290527f022c0d9f000000000000000000000000000000000000000000000000000000009091526001600160a01b0388169063022c0d9f90613db99085908590309060248101614d07565b600060405180830381600087803b158015613dd357600080fd5b505af1158015613de7573d6000803e3d6000fd5b50505050818111613df85781613dfa565b805b9a9950505050505050505050565b606082471015613e2a5760405162461bcd60e51b81526004016109c890614746565b613e3385613f5a565b613e4f5760405162461bcd60e51b81526004016109c890614b9c565b60006060866001600160a01b03168587604051613e6c9190614296565b60006040518083038185875af1925050503d8060008114613ea9576040519150601f19603f3d011682016040523d82523d6000602084013e613eae565b606091505b50915091506134b3828286613f60565b60405163a9059cbb60e01b81526001600160a01b0384169063a9059cbb90613eec90859085906004016143d1565b602060405180830381600087803b158015613f0657600080fd5b505af1158015613f1a573d6000803e3d6000fd5b505050506040513d601f19601f82011682018060405250810190613f3e9190614143565b6127385760405162461bcd60e51b81526004016109c890614cc4565b3b151590565b60608315613f6f575081610994565b825115613f7f5782518084602001fd5b8160405162461bcd60e51b81526004016109c89190614496565b604080518082019091526000808252602082015290565b80516dffffffffffffffffffffffffffff8116811461088357600080fd5b803560ff8116811461088357600080fd5b600060208284031215613ff0578081fd5b813561099481614d79565b60006020828403121561400c578081fd5b815161099481614d79565b60008060408385031215614029578081fd5b823561403481614d79565b9150602083013561404481614d79565b809150509250929050565b600080600060608486031215614063578081fd5b833561406e81614d79565b9250602084013561407e81614d79565b929592945050506040919091013590565b600080600080600080600060e0888a0312156140a9578283fd5b87356140b481614d79565b965060208801356140c481614d79565b955060408801359450606088013593506140e060808901613fce565b925060a0880135915060c0880135905092959891949750929550565b6000806040838503121561410e578182fd5b823561411981614d79565b946020939093013593505050565b600060208284031215614138578081fd5b813561099481614d8e565b600060208284031215614154578081fd5b815161099481614d8e565b600080600060608486031215614173578283fd5b61417c84613fb0565b925061418a60208501613fb0565b9150604084015163ffffffff811681146141a2578182fd5b809150509250925092565b6000602082840312156141be578081fd5b5035919050565b6000602082840312156141d6578081fd5b5051919050565b600080604083850312156141ef578182fd5b82359150602083013561404481614d8e565b60008060408385031215614213578182fd5b505080516020909101519092909150565b600080600080600060a0868803121561423b578283fd5b853594506020860135935061425260408701613fce565b94979396509394606081013594506080013592915050565b60008151808452614282816020860160208601614d4d565b601f01601f19169290920160200192915050565b600082516142a8818460208701614d4d565b9190910192915050565b60008083546001808216600081146142d157600181146142e857614317565b60ff198316865260028304607f1686019350614317565b600283048786526020808720875b8381101561430f5781548a8201529085019082016142f6565b505050860193505b509195945050505050565b7f190100000000000000000000000000000000000000000000000000000000000081526002810192909252602282015260420190565b6001600160a01b0391909116815260200190565b6001600160a01b039384168152919092166020820152604081019190915260600190565b6001600160a01b0397881681529590961660208601526040850193909352606084019190915260ff16608083015260a082015260c081019190915260e00190565b6001600160a01b03929092168252602082015260400190565b6001600160a01b0392831681529116602082015260400190565b901515815260200190565b90815260200190565b9586526001600160a01b0394851660208701529290931660408501526060840152608083019190915260a082015260c00190565b9485526020850193909352604084019190915260608301526001600160a01b0316608082015260a00190565b93845260ff9290921660208401526040830152606082015260800190565b600060208252610994602083018461426a565b60208082526030908201527f5661726961626c655265776172647353747261746567793a3a5769746864726160408201527f7720616d6f756e7420746f6f206c6f7700000000000000000000000000000000606082015260800190565b602080825260409082018190527f5661726961626c655265776172647353747261746567793a3a53776170207061908201527f697220646f6573206e6f7420636f6e7461696e2072657761726420746f6b656e606082015260800190565b60208082526026908201527f4f776e61626c653a206e6577206f776e657220697320746865207a65726f206160408201527f6464726573730000000000000000000000000000000000000000000000000000606082015260800190565b60208082526014908201527f59616b53747261746567793a3a6f6e6c79454f41000000000000000000000000604082015260600190565b6020808252601b908201527f536166654d6174683a206164646974696f6e206f766572666c6f770000000000604082015260600190565b60208082526034908201527f5065726d697373696f6e65643a3a72656d6f76654465706f7369746f722c206e60408201527f6f20616c6c6f776564206465706f7369746f7273000000000000000000000000606082015260800190565b6020808252602a908201527f5661726961626c655265776172647353747261746567793a3a4465706f73697460408201527f732064697361626c656400000000000000000000000000000000000000000000606082015260800190565b60208082526024908201527f417263683a3a76616c69646174655369673a20696e76616c6964207369676e6160408201527f7475726500000000000000000000000000000000000000000000000000000000606082015260800190565b60208082526026908201527f416464726573733a20696e73756666696369656e742062616c616e636520666f60408201527f722063616c6c0000000000000000000000000000000000000000000000000000606082015260800190565b6020808252601c908201527f5065726d697373696f6e65643a3a616c6c6f774465706f7369746f7200000000604082015260600190565b6020808252604d908201527f5661726961626c655265776172647353747261746567793a3a456d657267656e60408201527f6379207769746864726177206d696e696d756d2072657475726e20616d6f756e60608201527f74206e6f74207265616368656400000000000000000000000000000000000000608082015260a00190565b6020808252600f908201527f7065726d69743a3a657870697265640000000000000000000000000000000000604082015260600190565b6020808252602a908201527f5065726d697373696f6e65643a3a72656d6f76654465706f7369746f722c206e60408201527f6f7420616c6c6f77656400000000000000000000000000000000000000000000606082015260800190565b60208082526034908201527f5661726961626c655265776172647353747261746567793a3a5265776172642060408201527f746f2064656c657465206e6f7420666f756e6421000000000000000000000000606082015260800190565b60208082526021908201527f536166654d6174683a206d756c7469706c69636174696f6e206f766572666c6f60408201527f7700000000000000000000000000000000000000000000000000000000000000606082015260800190565b6020808252818101527f4f776e61626c653a2063616c6c6572206973206e6f7420746865206f776e6572604082015260600190565b6020808252601c908201527f5f617070726f76653a3a6f776e6572207a65726f206164647265737300000000604082015260600190565b60208082526034908201527f5f7472616e73666572546f6b656e733a2063616e6e6f74207472616e7366657260408201527f20746f20746865207a65726f2061646472657373000000000000000000000000606082015260800190565b60208082526019908201527f736574416c6c6f77616e6365733a3a6465707265636174656400000000000000604082015260600190565b60208082526014908201527f59616b53747261746567793a3a6f6e6c79446576000000000000000000000000604082015260600190565b60208082526030908201527f5661726961626c655265776172647353747261746567793a3a5265696e76657360408201527f7420616d6f756e7420746f6f206c6f7700000000000000000000000000000000606082015260800190565b6020808252602d908201527f5661726961626c655265776172647353747261746567793a3a5374616b65206160408201527f6d6f756e7420746f6f206c6f7700000000000000000000000000000000000000606082015260800190565b6020808252601d908201527f416464726573733a2063616c6c20746f206e6f6e2d636f6e7472616374000000604082015260600190565b60208082526036908201527f5661726961626c655265776172647353747261746567793a3a4465706f73697460408201527f20746f6b656e207472616e73666572206661696c656400000000000000000000606082015260800190565b6020808252602a908201527f5361666545524332303a204552433230206f7065726174696f6e20646964206e60408201527f6f74207375636365656400000000000000000000000000000000000000000000606082015260800190565b6020808252601e908201527f5f617070726f76653a3a7370656e646572207a65726f20616464726573730000604082015260600190565b6020808252818101527f4465784c6962726172793a3a5452414e534645525f46524f4d5f4641494c4544604082015260600190565b918252602082015260400190565b60008582528460208301526001600160a01b038416604083015260806060830152614d35608083018461426a565b9695505050505050565b60ff91909116815260200190565b60005b83811015614d68578181015183820152602001614d50565b838111156118c75750506000910152565b6001600160a01b03811681146118e057600080fd5b80151581146118e057600080fdfe5f6275726e3a206275726e20616d6f756e74206578636565647320746f74616c20737570706c797472616e7366657246726f6d3a207472616e7366657220616d6f756e74206578636565647320616c6c6f77616e63655f6275726e3a206275726e20616d6f756e7420657863656564732066726f6d2062616c616e63655f7472616e73666572546f6b656e733a207472616e7366657220657863656564732066726f6d2062616c616e6365a264697066735822122098541532da4f64037bb4c2c0d38b8603c2cb8237a41202071b25e11701605bed64736f6c634300070300338be0079c531659141344cd1fd0a4f28419497f9722a3daafe3b4186f6b6457e0",
  "devdoc": {
    "kind": "dev",
    "methods": {
      "allowDepositor(address)": {
        "params": {
          "depositor": "address"
        }
      },
      "allowance(address,address)": {
        "params": {
          "account": "The address of the account holding the funds",
          "spender": "The address of the account spending the funds"
        },
        "returns": {
          "_0": "The number of tokens approved"
        }
      },
      "approve(address,uint256)": {
        "details": "This will overwrite the approval amount for `spender` and is subject to issues noted [here](https://eips.ethereum.org/EIPS/eip-20#approve) It is recommended to use increaseAllowance and decreaseAllowance instead",
        "params": {
          "amount": "The number of tokens that are approved (2^256-1 means infinite)",
          "spender": "The address of the account which may transfer tokens"
        },
        "returns": {
          "_0": "Whether or not the approval succeeded"
        }
      },
      "balanceOf(address)": {
        "params": {
          "account": "The address of the account to get the balance of"
        },
        "returns": {
          "_0": "The number of tokens held"
        }
      },
      "checkReward()": {
        "returns": {
          "_0": "reward tokens"
        }
      },
      "deposit(uint256)": {
        "params": {
          "_amount": "Amount of tokens to deposit"
        }
      },
      "depositWithPermit(uint256,uint256,uint8,bytes32,bytes32)": {
        "params": {
          "_amount": "Amount of tokens to deposit",
          "_deadline": "The time at which to expire the signature",
          "_r": "Half of the ECDSA signature pair",
          "_s": "Half of the ECDSA signature pair",
          "_v": "The recovery byte of the signature"
        }
      },
      "estimateDeployedBalance()": {
        "returns": {
          "_0": "deposit tokens after withdraw fee"
        }
      },
      "estimateReinvestReward()": {
        "returns": {
          "_0": "reward tokens"
        }
      },
      "getDepositTokensForShares(uint256)": {
        "params": {
          "amount": "receipt tokens"
        },
        "returns": {
          "_0": "deposit tokens"
        }
      },
      "getDomainSeparator()": {
        "returns": {
          "_0": "Separator"
        }
      },
      "getSharesForDepositTokens(uint256)": {
        "details": "If contract is empty, use 1:1 ratioCould return zero shares for very low amounts of deposit tokens",
        "params": {
          "amount": "deposit tokens"
        },
        "returns": {
          "_0": "receipt tokens"
        }
      },
      "owner()": {
        "details": "Returns the address of the current owner."
      },
      "permit(address,address,uint256,uint256,uint8,bytes32,bytes32)": {
        "params": {
          "deadline": "The time at which to expire the signature",
          "owner": "The address to approve from",
          "r": "Half of the ECDSA signature pair",
          "s": "Half of the ECDSA signature pair",
          "spender": "The address to be approved",
          "v": "The recovery byte of the signature",
          "value": "The number of tokens that are approved (2^256-1 means infinite)"
        }
      },
      "recoverAVAX(uint256)": {
        "params": {
          "amount": "amount"
        }
      },
      "recoverERC20(address,uint256)": {
        "params": {
          "tokenAddress": "token address",
          "tokenAmount": "amount to recover"
        }
      },
      "removeDepositor(address)": {
        "params": {
          "depositor": "address"
        }
      },
      "renounceOwnership()": {
        "details": "Leaves the contract without owner. It will not be possible to call `onlyOwner` functions anymore. Can only be called by the current owner. NOTE: Renouncing ownership will leave the contract without an owner, thereby removing any functionality that is only available to the owner."
      },
      "revokeAllowance(address,address)": {
        "params": {
          "spender": "address",
          "token": "address"
        }
      },
      "setAllowances()": {
        "details": "Deprecated; approvals should be handled in context of staking"
      },
      "totalDeposits()": {
        "returns": {
          "_0": "total deposits available on the contract"
        }
      },
      "transfer(address,uint256)": {
        "params": {
          "amount": "The number of tokens to transfer",
          "dst": "The address of the destination account"
        },
        "returns": {
          "_0": "Whether or not the transfer succeeded"
        }
      },
      "transferFrom(address,address,uint256)": {
        "params": {
          "amount": "The number of tokens to transfer",
          "dst": "The address of the destination account",
          "src": "The address of the source account"
        },
        "returns": {
          "_0": "Whether or not the transfer succeeded"
        }
      },
      "transferOwnership(address)": {
        "details": "Transfers ownership of the contract to a new account (`newOwner`). Can only be called by the current owner."
      },
      "updateAdminFee(uint256)": {
        "params": {
          "newValue": "fee in BIPS"
        }
      },
      "updateDepositsEnabled(bool)": {
        "params": {
          "newValue": "bool"
        }
      },
      "updateDevAddr(address)": {
        "params": {
          "newValue": "address"
        }
      },
      "updateDevFee(uint256)": {
        "params": {
          "newValue": "fee in BIPS"
        }
      },
      "updateMaxTokensToDepositWithoutReinvest(uint256)": {
        "params": {
          "newValue": "threshold"
        }
      },
      "updateMinTokensToReinvest(uint256)": {
        "params": {
          "newValue": "threshold"
        }
      },
      "updateReinvestReward(uint256)": {
        "params": {
          "newValue": "fee in BIPS"
        }
      }
    },
    "version": 1
  },
  "userdoc": {
    "kind": "user",
    "methods": {
      "allowDepositor(address)": {
        "notice": "Add an allowed depositor"
      },
      "allowance(address,address)": {
        "notice": "Get the number of tokens `spender` is approved to spend on behalf of `account`"
      },
      "approve(address,uint256)": {
        "notice": "Approve `spender` to transfer up to `amount` from `src`"
      },
      "balanceOf(address)": {
        "notice": "Get the number of tokens held by the `account`"
      },
      "checkReward()": {
        "notice": "Reward tokens avialable to strategy, including balance"
      },
      "deposit(uint256)": {
        "notice": "Deposit tokens to receive receipt tokens"
      },
      "depositWithPermit(uint256,uint256,uint8,bytes32,bytes32)": {
        "notice": "Deposit using Permit"
      },
      "estimateDeployedBalance()": {
        "notice": "Estimate recoverable balance after withdraw fee"
      },
      "estimateReinvestReward()": {
        "notice": "Estimate reinvest reward"
      },
      "getDepositTokensForShares(uint256)": {
        "notice": "Calculate deposit tokens for a given amount of receipt tokens"
      },
      "getDomainSeparator()": {
        "notice": "EIP-712 Domain separator"
      },
      "getSharesForDepositTokens(uint256)": {
        "notice": "Calculate receipt tokens for a given amount of deposit tokens"
      },
      "permit(address,address,uint256,uint256,uint8,bytes32,bytes32)": {
        "notice": "Triggers an approval from owner to spender"
      },
      "recoverAVAX(uint256)": {
        "notice": "Recover AVAX from contract"
      },
      "recoverERC20(address,uint256)": {
        "notice": "Recover ERC20 from contract"
      },
      "reinvest()": {
        "notice": "Reinvest reward tokens into deposit tokens"
      },
      "removeDepositor(address)": {
        "notice": "Remove an allowed depositor"
      },
      "revokeAllowance(address,address)": {
        "notice": "Revoke token allowance"
      },
      "setAllowances()": {
        "notice": "Approve tokens for use in Strategy"
      },
      "totalDeposits()": {
        "notice": "This function returns a snapshot of last available quotes"
      },
      "transfer(address,uint256)": {
        "notice": "Transfer `amount` tokens from `msg.sender` to `dst`"
      },
      "transferFrom(address,address,uint256)": {
        "notice": "Transfer `amount` tokens from `src` to `dst`"
      },
      "updateAdminFee(uint256)": {
        "notice": "Update admin fee"
      },
      "updateDepositsEnabled(bool)": {
        "notice": "Enable/disable deposits"
      },
      "updateDevAddr(address)": {
        "notice": "Update devAddr"
      },
      "updateDevFee(uint256)": {
        "notice": "Update developer fee"
      },
      "updateMaxTokensToDepositWithoutReinvest(uint256)": {
        "notice": "Update reinvest max threshold before a deposit"
      },
      "updateMinTokensToReinvest(uint256)": {
        "notice": "Update reinvest min threshold"
      },
      "updateReinvestReward(uint256)": {
        "notice": "Update reinvest reward"
      }
    },
    "version": 1
  },
  "storageLayout": {
    "storage": [
      {
        "astId": 6072,
        "contract": "contracts/strategies/VectorStrategyForSA.sol:VectorStrategyForSA",
        "label": "name",
        "offset": 0,
        "slot": "0",
        "type": "t_string_storage"
      },
      {
        "astId": 6075,
        "contract": "contracts/strategies/VectorStrategyForSA.sol:VectorStrategyForSA",
        "label": "symbol",
        "offset": 0,
        "slot": "1",
        "type": "t_string_storage"
      },
      {
        "astId": 6080,
        "contract": "contracts/strategies/VectorStrategyForSA.sol:VectorStrategyForSA",
        "label": "totalSupply",
        "offset": 0,
        "slot": "2",
        "type": "t_uint256"
      },
      {
        "astId": 6086,
        "contract": "contracts/strategies/VectorStrategyForSA.sol:VectorStrategyForSA",
        "label": "allowances",
        "offset": 0,
        "slot": "3",
        "type": "t_mapping(t_address,t_mapping(t_address,t_uint256))"
      },
      {
        "astId": 6090,
        "contract": "contracts/strategies/VectorStrategyForSA.sol:VectorStrategyForSA",
        "label": "balances",
        "offset": 0,
        "slot": "4",
        "type": "t_mapping(t_address,t_uint256)"
      },
      {
        "astId": 6106,
        "contract": "contracts/strategies/VectorStrategyForSA.sol:VectorStrategyForSA",
        "label": "nonces",
        "offset": 0,
        "slot": "5",
        "type": "t_mapping(t_address,t_uint256)"
      },
      {
        "astId": 19817,
        "contract": "contracts/strategies/VectorStrategyForSA.sol:VectorStrategyForSA",
        "label": "_owner",
        "offset": 0,
        "slot": "6",
        "type": "t_address"
      },
      {
        "astId": 19930,
        "contract": "contracts/strategies/VectorStrategyForSA.sol:VectorStrategyForSA",
        "label": "numberOfAllowedDepositors",
        "offset": 0,
        "slot": "7",
        "type": "t_uint256"
      },
      {
        "astId": 19934,
        "contract": "contracts/strategies/VectorStrategyForSA.sol:VectorStrategyForSA",
        "label": "allowedDepositors",
        "offset": 0,
        "slot": "8",
        "type": "t_mapping(t_address,t_bool)"
      },
      {
        "astId": 7456,
        "contract": "contracts/strategies/VectorStrategyForSA.sol:VectorStrategyForSA",
        "label": "depositToken",
        "offset": 0,
        "slot": "9",
        "type": "t_contract(IERC20)11397"
      },
      {
        "astId": 7458,
        "contract": "contracts/strategies/VectorStrategyForSA.sol:VectorStrategyForSA",
        "label": "rewardToken",
        "offset": 0,
        "slot": "10",
        "type": "t_contract(IERC20)11397"
      },
      {
        "astId": 7460,
        "contract": "contracts/strategies/VectorStrategyForSA.sol:VectorStrategyForSA",
        "label": "devAddr",
        "offset": 0,
        "slot": "11",
        "type": "t_address"
      },
      {
        "astId": 7462,
        "contract": "contracts/strategies/VectorStrategyForSA.sol:VectorStrategyForSA",
        "label": "MIN_TOKENS_TO_REINVEST",
        "offset": 0,
        "slot": "12",
        "type": "t_uint256"
      },
      {
        "astId": 7464,
        "contract": "contracts/strategies/VectorStrategyForSA.sol:VectorStrategyForSA",
        "label": "MAX_TOKENS_TO_DEPOSIT_WITHOUT_REINVEST",
        "offset": 0,
        "slot": "13",
        "type": "t_uint256"
      },
      {
        "astId": 7466,
        "contract": "contracts/strategies/VectorStrategyForSA.sol:VectorStrategyForSA",
        "label": "DEPOSITS_ENABLED",
        "offset": 0,
        "slot": "14",
        "type": "t_bool"
      },
      {
        "astId": 7468,
        "contract": "contracts/strategies/VectorStrategyForSA.sol:VectorStrategyForSA",
        "label": "REINVEST_REWARD_BIPS",
        "offset": 0,
        "slot": "15",
        "type": "t_uint256"
      },
      {
        "astId": 7470,
        "contract": "contracts/strategies/VectorStrategyForSA.sol:VectorStrategyForSA",
        "label": "ADMIN_FEE_BIPS",
        "offset": 0,
        "slot": "16",
        "type": "t_uint256"
      },
      {
        "astId": 7472,
        "contract": "contracts/strategies/VectorStrategyForSA.sol:VectorStrategyForSA",
        "label": "DEV_FEE_BIPS",
        "offset": 0,
        "slot": "17",
        "type": "t_uint256"
      },
      {
        "astId": 101386,
        "contract": "contracts/strategies/VectorStrategyForSA.sol:VectorStrategyForSA",
        "label": "rewardSwapPairs",
        "offset": 0,
        "slot": "18",
        "type": "t_mapping(t_address,t_address)"
      },
      {
        "astId": 101389,
        "contract": "contracts/strategies/VectorStrategyForSA.sol:VectorStrategyForSA",
        "label": "supportedRewards",
        "offset": 0,
        "slot": "19",
        "type": "t_array(t_address)dyn_storage"
      },
      {
        "astId": 101391,
        "contract": "contracts/strategies/VectorStrategyForSA.sol:VectorStrategyForSA",
        "label": "rewardCount",
        "offset": 0,
        "slot": "20",
        "type": "t_uint256"
      },
      {
        "astId": 102449,
        "contract": "contracts/strategies/VectorStrategyForSA.sol:VectorStrategyForSA",
        "label": "swapPairDepositToken",
        "offset": 0,
        "slot": "21",
        "type": "t_address"
      },
      {
        "astId": 102561,
        "contract": "contracts/strategies/VectorStrategyForSA.sol:VectorStrategyForSA",
        "label": "boosterFeeCollector",
        "offset": 0,
        "slot": "22",
        "type": "t_contract(IBoosterFeeCollector)10953"
      }
    ],
    "types": {
      "t_address": {
        "encoding": "inplace",
        "label": "address",
        "numberOfBytes": "20"
      },
      "t_array(t_address)dyn_storage": {
        "base": "t_address",
        "encoding": "dynamic_array",
        "label": "address[]",
        "numberOfBytes": "32"
      },
      "t_bool": {
        "encoding": "inplace",
        "label": "bool",
        "numberOfBytes": "1"
      },
      "t_contract(IBoosterFeeCollector)10953": {
        "encoding": "inplace",
        "label": "contract IBoosterFeeCollector",
        "numberOfBytes": "20"
      },
      "t_contract(IERC20)11397": {
        "encoding": "inplace",
        "label": "contract IERC20",
        "numberOfBytes": "20"
      },
      "t_mapping(t_address,t_address)": {
        "encoding": "mapping",
        "key": "t_address",
        "label": "mapping(address => address)",
        "numberOfBytes": "32",
        "value": "t_address"
      },
      "t_mapping(t_address,t_bool)": {
        "encoding": "mapping",
        "key": "t_address",
        "label": "mapping(address => bool)",
        "numberOfBytes": "32",
        "value": "t_bool"
      },
      "t_mapping(t_address,t_mapping(t_address,t_uint256))": {
        "encoding": "mapping",
        "key": "t_address",
        "label": "mapping(address => mapping(address => uint256))",
        "numberOfBytes": "32",
        "value": "t_mapping(t_address,t_uint256)"
      },
      "t_mapping(t_address,t_uint256)": {
        "encoding": "mapping",
        "key": "t_address",
        "label": "mapping(address => uint256)",
        "numberOfBytes": "32",
        "value": "t_uint256"
      },
      "t_string_storage": {
        "encoding": "bytes",
        "label": "string",
        "numberOfBytes": "32"
      },
      "t_uint256": {
        "encoding": "inplace",
        "label": "uint256",
        "numberOfBytes": "32"
      }
    }
  }
}