{
  "address": "0xf32854411a46DF5699198787948eBC0963Db6D42",
  "abi": [
    {
      "inputs": [
        {
          "internalType": "address",
          "name": "_owner",
          "type": "address"
        }
      ],
      "stateMutability": "nonpayable",
      "type": "constructor"
    },
    {
      "anonymous": false,
      "inputs": [
        {
          "indexed": true,
          "internalType": "address",
          "name": "owner",
          "type": "address"
        },
        {
          "indexed": true,
          "internalType": "address",
          "name": "spender",
          "type": "address"
        },
        {
          "indexed": false,
          "internalType": "uint256",
          "name": "value",
          "type": "uint256"
        }
      ],
      "name": "Approval",
      "type": "event"
    },
    {
      "anonymous": false,
      "inputs": [
        {
          "indexed": true,
          "internalType": "address",
          "name": "previousOwner",
          "type": "address"
        },
        {
          "indexed": true,
          "internalType": "address",
          "name": "newOwner",
          "type": "address"
        }
      ],
      "name": "OwnershipTransferred",
      "type": "event"
    },
    {
      "anonymous": false,
      "inputs": [
        {
          "indexed": true,
          "internalType": "address",
          "name": "from",
          "type": "address"
        },
        {
          "indexed": true,
          "internalType": "address",
          "name": "to",
          "type": "address"
        },
        {
          "indexed": false,
          "internalType": "uint256",
          "name": "value",
          "type": "uint256"
        }
      ],
      "name": "Transfer",
      "type": "event"
    },
    {
      "inputs": [],
      "name": "DOMAIN_TYPEHASH",
      "outputs": [
        {
          "internalType": "bytes32",
          "name": "",
          "type": "bytes32"
        }
      ],
      "stateMutability": "view",
      "type": "function"
    },
    {
      "inputs": [],
      "name": "PERMIT_TYPEHASH",
      "outputs": [
        {
          "internalType": "bytes32",
          "name": "",
          "type": "bytes32"
        }
      ],
      "stateMutability": "view",
      "type": "function"
    },
    {
      "inputs": [],
      "name": "VERSION_HASH",
      "outputs": [
        {
          "internalType": "bytes32",
          "name": "",
          "type": "bytes32"
        }
      ],
      "stateMutability": "view",
      "type": "function"
    },
    {
      "inputs": [],
      "name": "VeYETI",
      "outputs": [
        {
          "internalType": "address",
          "name": "",
          "type": "address"
        }
      ],
      "stateMutability": "view",
      "type": "function"
    },
    {
      "inputs": [
        {
          "internalType": "address",
          "name": "owner",
          "type": "address"
        },
        {
          "internalType": "address",
          "name": "spender",
          "type": "address"
        }
      ],
      "name": "allowance",
      "outputs": [
        {
          "internalType": "uint256",
          "name": "",
          "type": "uint256"
        }
      ],
      "stateMutability": "view",
      "type": "function"
    },
    {
      "inputs": [
        {
          "internalType": "address",
          "name": "spender",
          "type": "address"
        },
        {
          "internalType": "uint256",
          "name": "amount",
          "type": "uint256"
        }
      ],
      "name": "approve",
      "outputs": [
        {
          "internalType": "bool",
          "name": "",
          "type": "bool"
        }
      ],
      "stateMutability": "nonpayable",
      "type": "function"
    },
    {
      "inputs": [
        {
          "internalType": "address",
          "name": "account",
          "type": "address"
        }
      ],
      "name": "balanceOf",
      "outputs": [
        {
          "internalType": "uint256",
          "name": "",
          "type": "uint256"
        }
      ],
      "stateMutability": "view",
      "type": "function"
    },
    {
      "inputs": [],
      "name": "currentYetiRewarder",
      "outputs": [
        {
          "internalType": "address",
          "name": "",
          "type": "address"
        }
      ],
      "stateMutability": "view",
      "type": "function"
    },
    {
      "inputs": [],
      "name": "decimals",
      "outputs": [
        {
          "internalType": "uint8",
          "name": "",
          "type": "uint8"
        }
      ],
      "stateMutability": "view",
      "type": "function"
    },
    {
      "inputs": [
        {
          "internalType": "address",
          "name": "spender",
          "type": "address"
        },
        {
          "internalType": "uint256",
          "name": "subtractedValue",
          "type": "uint256"
        }
      ],
      "name": "decreaseAllowance",
      "outputs": [
        {
          "internalType": "bool",
          "name": "",
          "type": "bool"
        }
      ],
      "stateMutability": "nonpayable",
      "type": "function"
    },
    {
      "inputs": [
        {
          "internalType": "uint256",
          "name": "_amount",
          "type": "uint256"
        }
      ],
      "name": "deposit",
      "outputs": [],
      "stateMutability": "nonpayable",
      "type": "function"
    },
    {
      "inputs": [
        {
          "internalType": "uint256",
          "name": "_amount",
          "type": "uint256"
        }
      ],
      "name": "depositFromBalance",
      "outputs": [],
      "stateMutability": "nonpayable",
      "type": "function"
    },
    {
      "inputs": [],
      "name": "depositsEnabled",
      "outputs": [
        {
          "internalType": "bool",
          "name": "",
          "type": "bool"
        }
      ],
      "stateMutability": "view",
      "type": "function"
    },
    {
      "inputs": [
        {
          "internalType": "address",
          "name": "target",
          "type": "address"
        },
        {
          "internalType": "uint256",
          "name": "value",
          "type": "uint256"
        },
        {
          "internalType": "bytes",
          "name": "data",
          "type": "bytes"
        }
      ],
      "name": "execute",
      "outputs": [
        {
          "internalType": "bool",
          "name": "",
          "type": "bool"
        },
        {
          "internalType": "bytes",
          "name": "",
          "type": "bytes"
        }
      ],
      "stateMutability": "nonpayable",
      "type": "function"
    },
    {
      "inputs": [],
      "name": "getDomainSeparator",
      "outputs": [
        {
          "internalType": "bytes32",
          "name": "",
          "type": "bytes32"
        }
      ],
      "stateMutability": "view",
      "type": "function"
    },
    {
      "inputs": [
        {
          "internalType": "address",
          "name": "spender",
          "type": "address"
        },
        {
          "internalType": "uint256",
          "name": "addedValue",
          "type": "uint256"
        }
      ],
      "name": "increaseAllowance",
      "outputs": [
        {
          "internalType": "bool",
          "name": "",
          "type": "bool"
        }
      ],
      "stateMutability": "nonpayable",
      "type": "function"
    },
    {
      "inputs": [],
      "name": "name",
      "outputs": [
        {
          "internalType": "string",
          "name": "",
          "type": "string"
        }
      ],
      "stateMutability": "view",
      "type": "function"
    },
    {
      "inputs": [
        {
          "internalType": "address",
          "name": "",
          "type": "address"
        }
      ],
      "name": "nonces",
      "outputs": [
        {
          "internalType": "uint256",
          "name": "",
          "type": "uint256"
        }
      ],
      "stateMutability": "view",
      "type": "function"
    },
    {
      "inputs": [],
      "name": "owner",
      "outputs": [
        {
          "internalType": "address",
          "name": "",
          "type": "address"
        }
      ],
      "stateMutability": "view",
      "type": "function"
    },
    {
      "inputs": [
        {
          "internalType": "address",
          "name": "owner",
          "type": "address"
        },
        {
          "internalType": "address",
          "name": "spender",
          "type": "address"
        },
        {
          "internalType": "uint256",
          "name": "value",
          "type": "uint256"
        },
        {
          "internalType": "uint256",
          "name": "deadline",
          "type": "uint256"
        },
        {
          "internalType": "uint8",
          "name": "v",
          "type": "uint8"
        },
        {
          "internalType": "bytes32",
          "name": "r",
          "type": "bytes32"
        },
        {
          "internalType": "bytes32",
          "name": "s",
          "type": "bytes32"
        }
      ],
      "name": "permit",
      "outputs": [],
      "stateMutability": "nonpayable",
      "type": "function"
    },
    {
      "inputs": [],
      "name": "renounceOwnership",
      "outputs": [],
      "stateMutability": "nonpayable",
      "type": "function"
    },
    {
      "inputs": [
        {
          "internalType": "address",
          "name": "_voterProxy",
          "type": "address"
        }
      ],
      "name": "setVoterProxy",
      "outputs": [],
      "stateMutability": "nonpayable",
      "type": "function"
    },
    {
      "inputs": [],
      "name": "symbol",
      "outputs": [
        {
          "internalType": "string",
          "name": "",
          "type": "string"
        }
      ],
      "stateMutability": "view",
      "type": "function"
    },
    {
      "inputs": [],
      "name": "totalSupply",
      "outputs": [
        {
          "internalType": "uint256",
          "name": "",
          "type": "uint256"
        }
      ],
      "stateMutability": "view",
      "type": "function"
    },
    {
      "inputs": [
        {
          "internalType": "address",
          "name": "recipient",
          "type": "address"
        },
        {
          "internalType": "uint256",
          "name": "amount",
          "type": "uint256"
        }
      ],
      "name": "transfer",
      "outputs": [
        {
          "internalType": "bool",
          "name": "",
          "type": "bool"
        }
      ],
      "stateMutability": "nonpayable",
      "type": "function"
    },
    {
      "inputs": [
        {
          "internalType": "address",
          "name": "sender",
          "type": "address"
        },
        {
          "internalType": "address",
          "name": "recipient",
          "type": "address"
        },
        {
          "internalType": "uint256",
          "name": "amount",
          "type": "uint256"
        }
      ],
      "name": "transferFrom",
      "outputs": [
        {
          "internalType": "bool",
          "name": "",
          "type": "bool"
        }
      ],
      "stateMutability": "nonpayable",
      "type": "function"
    },
    {
      "inputs": [
        {
          "internalType": "address",
          "name": "newOwner",
          "type": "address"
        }
      ],
      "name": "transferOwnership",
      "outputs": [],
      "stateMutability": "nonpayable",
      "type": "function"
    },
    {
      "inputs": [
        {
          "internalType": "bool",
          "name": "newValue",
          "type": "bool"
        }
      ],
      "name": "updateDepositsEnabled",
      "outputs": [],
      "stateMutability": "nonpayable",
      "type": "function"
    },
    {
      "inputs": [
        {
          "internalType": "address",
          "name": "_rewarder",
          "type": "address"
        }
      ],
      "name": "updateYetiRewarder",
      "outputs": [],
      "stateMutability": "nonpayable",
      "type": "function"
    },
    {
      "inputs": [],
      "name": "veYETIBalance",
      "outputs": [
        {
          "internalType": "uint256",
          "name": "",
          "type": "uint256"
        }
      ],
      "stateMutability": "view",
      "type": "function"
    },
    {
      "inputs": [],
      "name": "voterProxy",
      "outputs": [
        {
          "internalType": "address",
          "name": "",
          "type": "address"
        }
      ],
      "stateMutability": "view",
      "type": "function"
    }
  ],
  "transactionHash": "0xdf9f757bdb097a26485f5b0af151418d23e93f9bcf149e96e7a95a16c79f663c",
  "args": [
    "0xDcEDF06Fd33E1D7b6eb4b309f779a0e9D3172e44"
  ],
  "solcInputHash": "95152994df98e64b42ac9b58f147ec25",
  "bytecode": "0x60806040526008805460ff60a01b1916600160a01b1790553480156200002457600080fd5b50604051620020c5380380620020c5833981016040819052620000479162000296565b6040518060400160405280600e81526020016d5969656c642059616b205945544960901b8152506040518060400160405280600681526020016579795945544960d01b81525060006200009f6200012560201b60201c565b600080546001600160a01b0319166001600160a01b038316908117825560405192935091600080516020620020a5833981519152908290a3508151620000ed906005906020850190620001fa565b50805162000103906006906020840190620001fa565b50506007805460ff19166012179055506200011e8162000129565b5062000341565b3390565b6200013362000125565b6001600160a01b031662000146620001eb565b6001600160a01b031614620001785760405162461bcd60e51b81526004016200016f906200030c565b60405180910390fd5b6001600160a01b038116620001a15760405162461bcd60e51b81526004016200016f90620002c6565b600080546040516001600160a01b0380851693921691600080516020620020a583398151915291a3600080546001600160a01b0319166001600160a01b0392909216919091179055565b6000546001600160a01b031690565b828054600181600116156101000203166002900490600052602060002090601f016020900481019282601f106200023d57805160ff19168380011785556200026d565b828001600101855582156200026d579182015b828111156200026d57825182559160200191906001019062000250565b506200027b9291506200027f565b5090565b5b808211156200027b576000815560010162000280565b600060208284031215620002a8578081fd5b81516001600160a01b0381168114620002bf578182fd5b9392505050565b60208082526026908201527f4f776e61626c653a206e6577206f776e657220697320746865207a65726f206160408201526564647265737360d01b606082015260800190565b6020808252818101527f4f776e61626c653a2063616c6c6572206973206e6f7420746865206f776e6572604082015260600190565b611d5480620003516000396000f3fe608060405234801561001057600080fd5b50600436106101e55760003560e01c80637c0bb4ab1161010f578063a457c2d7116100a2578063d505accf11610071578063d505accf146103ab578063dd62ed3e146103be578063ed24911d146103d1578063f2fde38b146103d9576101e5565b8063a457c2d714610351578063a9059cbb14610364578063b61d27f614610377578063b6b55f2514610398576101e5565b80638da81a68116100de5780638da81a681461032657806395d89b41146103395780639e4e731814610341578063a095522114610349576101e5565b80637c0bb4ab146102f05780637ecebe001461030357806388ad4632146103165780638da5cb5b1461031e576101e5565b806323b872dd116101875780634e77ace5116101565780634e77ace5146102ba5780635392fd1c146102cd57806370a08231146102d5578063715018a6146102e8576101e5565b806323b872dd1461027757806330adf81f1461028a578063313ce5671461029257806339509351146102a7576101e5565b806318160ddd116101c357806318160ddd1461023d5780631ba980b31461025257806320606b70146102675780632374ef241461026f576101e5565b8063052cdc0c146101ea57806306fdde03146101ff578063095ea7b31461021d575b600080fd5b6101fd6101f8366004611492565b6103ec565b005b610207610473565b6040516102149190611898565b60405180910390f35b61023061022b36600461158a565b610509565b60405161021491906117e3565b610245610526565b6040516102149190611811565b61025a61052c565b604051610214919061172e565b610245610540565b610245610564565b6102306102853660046114de565b61060c565b610245610693565b61029a6106b7565b6040516102149190611c8f565b6102306102b536600461158a565b6106c0565b6101fd6102c8366004611635565b61070e565b6102306107a4565b6102456102e3366004611492565b6107b4565b6101fd6107d3565b6101fd6102fe36600461166d565b610869565b610245610311366004611492565b6108d2565b61025a6108e4565b61025a6108f3565b6101fd610334366004611492565b610902565b610207610970565b6102456109d1565b61025a6109f5565b61023061035f36600461158a565b610a0d565b61023061037236600461158a565b610a75565b61038a6103853660046115b3565b610a89565b6040516102149291906117ee565b6101fd6103a636600461166d565b610b2f565b6101fd6103b9366004611519565b610c1f565b6102456103cc3660046114ac565b610cd2565b610245610cfd565b6101fd6103e7366004611492565b610d89565b6103f4610e56565b6001600160a01b03166104056108f3565b6001600160a01b0316146104345760405162461bcd60e51b815260040161042b90611b69565b60405180910390fd5b600780546001600160a01b03909216610100027fffffffffffffffffffffff0000000000000000000000000000000000000000ff909216919091179055565b60058054604080516020601f60026000196101006001881615020190951694909404938401819004810282018101909252828152606093909290918301828280156104ff5780601f106104d4576101008083540402835291602001916104ff565b820191906000526020600020905b8154815290600101906020018083116104e257829003601f168201915b5050505050905090565b600061051d610516610e56565b8484610e5a565b50600192915050565b60045490565b60075461010090046001600160a01b031681565b7f8b73c3c69bb8fe3d512ecc4cf759cc79239f7b179b0ffacaa9a75d522b39400f81565b6040517f0a95bceb0000000000000000000000000000000000000000000000000000000081526000907388888888847df39cf1dfe1a05c904b4e603c941690630a95bceb906105b790309060040161172e565b60206040518083038186803b1580156105cf57600080fd5b505afa1580156105e3573d6000803e3d6000fd5b505050506040513d601f19601f820116820180604052508101906106079190611685565b905090565b6000610619848484610f0e565b61068984610625610e56565b61068485604051806060016040528060288152602001611cd2602891396001600160a01b038a16600090815260036020526040812090610663610e56565b6001600160a01b031681526020810191909152604001600020549190611023565b610e5a565b5060019392505050565b7f6e71edae12b1b97f4d1f60370fef10105fa2faae0126114a169c64845d6126c981565b60075460ff1690565b600061051d6106cd610e56565b8461068485600360006106de610e56565b6001600160a01b03908116825260208083019390935260409182016000908120918c16815292529020549061104f565b610716610e56565b6001600160a01b03166107276108f3565b6001600160a01b03161461074d5760405162461bcd60e51b815260040161042b90611b69565b60085460ff600160a01b909104161515811515141561076b57600080fd5b60088054911515600160a01b027fffffffffffffffffffffff00ffffffffffffffffffffffffffffffffffffffff909216919091179055565b600854600160a01b900460ff1681565b6001600160a01b0381166000908152600260205260409020545b919050565b6107db610e56565b6001600160a01b03166107ec6108f3565b6001600160a01b0316146108125760405162461bcd60e51b815260040161042b90611b69565b600080546040516001600160a01b03909116907f8be0079c531659141344cd1fd0a4f28419497f9722a3daafe3b4186f6b6457e0908390a36000805473ffffffffffffffffffffffffffffffffffffffff19169055565b60075461010090046001600160a01b031633146108985760405162461bcd60e51b815260040161042b90611b32565b600854600160a01b900460ff1615156001146108c65760405162461bcd60e51b815260040161042b90611afb565b6108cf8161107b565b50565b60016020526000908152604090205481565b6008546001600160a01b031681565b6000546001600160a01b031690565b61090a610e56565b6001600160a01b031661091b6108f3565b6001600160a01b0316146109415760405162461bcd60e51b815260040161042b90611b69565b6008805473ffffffffffffffffffffffffffffffffffffffff19166001600160a01b0392909216919091179055565b60068054604080516020601f60026000196101006001881615020190951694909404938401819004810282018101909252828152606093909290918301828280156104ff5780601f106104d4576101008083540402835291602001916104ff565b7fc89efdaa54c0f20c7adf612882df0950f5a951637e0307cdcb4c672f298b8bc681565b7388888888847df39cf1dfe1a05c904b4e603c941681565b600061051d610a1a610e56565b8461068485604051806060016040528060258152602001611cfa6025913960036000610a44610e56565b6001600160a01b03908116825260208083019390935260409182016000908120918d16815292529020549190611023565b600061051d610a82610e56565b8484610f0e565b60075460009060609061010090046001600160a01b03163314610abe5760405162461bcd60e51b815260040161042b90611b32565b60006060876001600160a01b0316878787604051610add9291906116e8565b60006040518083038185875af1925050503d8060008114610b1a576040519150601f19603f3d011682016040523d82523d6000602084013e610b1f565b606091505b5090999098509650505050505050565b600854600160a01b900460ff161515600114610b5d5760405162461bcd60e51b815260040161042b90611908565b6040517f23b872dd0000000000000000000000000000000000000000000000000000000081527377777777777d4554c39223c354a05825b2e8faa3906323b872dd90610bb190339030908690600401611742565b602060405180830381600087803b158015610bcb57600080fd5b505af1158015610bdf573d6000803e3d6000fd5b505050506040513d601f19601f82011682018060405250810190610c039190611651565b6108c65760405162461bcd60e51b815260040161042b90611a8d565b42841015610c3f5760405162461bcd60e51b815260040161042b90611ac4565b6001600160a01b03871660009081526001602081815260408084208054938401905551610c98927f6e71edae12b1b97f4d1f60370fef10105fa2faae0126114a169c64845d6126c9928c928c928c9290918c910161181a565b604051602081830303815290604052805190602001209050610cbd88828686866112c1565b610cc8888888610e5a565b5050505050505050565b6001600160a01b03918216600090815260036020908152604080832093909416825291909152205490565b60007f8b73c3c69bb8fe3d512ecc4cf759cc79239f7b179b0ffacaa9a75d522b39400f610d28610473565b80516020909101207fc89efdaa54c0f20c7adf612882df0950f5a951637e0307cdcb4c672f298b8bc6610d59611397565b30604051602001610d6e95949392919061184e565b60405160208183030381529060405280519060200120905090565b610d91610e56565b6001600160a01b0316610da26108f3565b6001600160a01b031614610dc85760405162461bcd60e51b815260040161042b90611b69565b6001600160a01b038116610dee5760405162461bcd60e51b815260040161042b9061193f565b600080546040516001600160a01b03808516939216917f8be0079c531659141344cd1fd0a4f28419497f9722a3daafe3b4186f6b6457e091a36000805473ffffffffffffffffffffffffffffffffffffffff19166001600160a01b0392909216919091179055565b3390565b6001600160a01b038316610e805760405162461bcd60e51b815260040161042b90611bfb565b6001600160a01b038216610ea65760405162461bcd60e51b815260040161042b9061199c565b6001600160a01b0380841660008181526003602090815260408083209487168084529490915290819020849055517f8c5be1e5ebec7d5bd14f71427d1e84f3dd0314c0f7b2291e5b200ac8c7c3b92590610f01908590611811565b60405180910390a3505050565b6001600160a01b038316610f345760405162461bcd60e51b815260040161042b90611b9e565b6001600160a01b038216610f5a5760405162461bcd60e51b815260040161042b906118ab565b610f658383836112bc565b610fa281604051806060016040528060268152602001611cac602691396001600160a01b0386166000908152600260205260409020549190611023565b6001600160a01b038085166000908152600260205260408082209390935590841681522054610fd1908261104f565b6001600160a01b0380841660008181526002602052604090819020939093559151908516907fddf252ad1be2c89b69c2b068fc378daa952ba7f163c4a11628f55a4df523b3ef90610f01908590611811565b600081848411156110475760405162461bcd60e51b815260040161042b9190611898565b505050900390565b6000828201838110156110745760405162461bcd60e51b815260040161042b906119f9565b9392505050565b611085338261139b565b60405163095ea7b360e01b81527377777777777d4554c39223c354a05825b2e8faa39063095ea7b3906110d2907388888888847df39cf1dfe1a05c904b4e603c9416908590600401611766565b602060405180830381600087803b1580156110ec57600080fd5b505af1158015611100573d6000803e3d6000fd5b505050506040513d601f19601f820116820180604052508101906111249190611651565b50604080516001808252818301909252606091816020015b61114461145b565b81526020019060019003908161113c575050604080516060810182526008546001600160a01b0316815260208101859052600191810191909152815191925090829060009061118f57fe5b60209081029190910101526040517fdeec22700000000000000000000000000000000000000000000000000000000081527388888888847df39cf1dfe1a05c904b4e603c94169063deec2270906111ea90849060040161177f565b600060405180830381600087803b15801561120457600080fd5b505af1158015611218573d6000803e3d6000fd5b505060405163095ea7b360e01b81527377777777777d4554c39223c354a05825b2e8faa3925063095ea7b3915061126a907388888888847df39cf1dfe1a05c904b4e603c941690600090600401611766565b602060405180830381600087803b15801561128457600080fd5b505af1158015611298573d6000803e3d6000fd5b505050506040513d601f19601f820116820180604052508101906112bc9190611651565b505050565b60006112cb610cfd565b856040516020016112dd9291906116f8565b60405160208183030381529060405280519060200120905060006001828686866040516000815260200160405260405161131a949392919061187a565b6020604051602081039080840390855afa15801561133c573d6000803e3d6000fd5b5050604051601f1901519150506001600160a01b038116158015906113725750866001600160a01b0316816001600160a01b0316145b61138e5760405162461bcd60e51b815260040161042b90611a30565b50505050505050565b4690565b6001600160a01b0382166113c15760405162461bcd60e51b815260040161042b90611c58565b6113cd600083836112bc565b6004546113da908261104f565b6004556001600160a01b038216600090815260026020526040902054611400908261104f565b6001600160a01b0383166000818152600260205260408082209390935591519091907fddf252ad1be2c89b69c2b068fc378daa952ba7f163c4a11628f55a4df523b3ef9061144f908590611811565b60405180910390a35050565b604080516060810182526000808252602082018190529181019190915290565b80356001600160a01b03811681146107ce57600080fd5b6000602082840312156114a3578081fd5b6110748261147b565b600080604083850312156114be578081fd5b6114c78361147b565b91506114d56020840161147b565b90509250929050565b6000806000606084860312156114f2578081fd5b6114fb8461147b565b92506115096020850161147b565b9150604084013590509250925092565b600080600080600080600060e0888a031215611533578283fd5b61153c8861147b565b965061154a6020890161147b565b95506040880135945060608801359350608088013560ff8116811461156d578384fd5b9699959850939692959460a0840135945060c09093013592915050565b6000806040838503121561159c578182fd5b6115a58361147b565b946020939093013593505050565b600080600080606085870312156115c8578384fd5b6115d18561147b565b935060208501359250604085013567ffffffffffffffff808211156115f4578384fd5b818701915087601f830112611607578384fd5b813581811115611615578485fd5b886020828501011115611626578485fd5b95989497505060200194505050565b600060208284031215611646578081fd5b813561107481611c9d565b600060208284031215611662578081fd5b815161107481611c9d565b60006020828403121561167e578081fd5b5035919050565b600060208284031215611696578081fd5b5051919050565b60008151808452815b818110156116c2576020818501810151868301820152016116a6565b818111156116d35782602083870101525b50601f01601f19169290920160200192915050565b6000828483379101908152919050565b7f190100000000000000000000000000000000000000000000000000000000000081526002810192909252602282015260420190565b6001600160a01b0391909116815260200190565b6001600160a01b039384168152919092166020820152604081019190915260600190565b6001600160a01b03929092168252602082015260400190565b602080825282518282018190526000919060409081850190868401855b828110156117d657815180516001600160a01b0316855286810151878601528501511515858501526060909301929085019060010161179c565b5091979650505050505050565b901515815260200190565b6000831515825260406020830152611809604083018461169d565b949350505050565b90815260200190565b9586526001600160a01b0394851660208701529290931660408501526060840152608083019190915260a082015260c00190565b9485526020850193909352604084019190915260608301526001600160a01b0316608082015260a00190565b93845260ff9290921660208401526040830152606082015260800190565b600060208252611074602083018461169d565b60208082526023908201527f45524332303a207472616e7366657220746f20746865207a65726f206164647260408201527f6573730000000000000000000000000000000000000000000000000000000000606082015260800190565b6020808252601c908201527f59657469566f7465723a3a6465706f736974732064697361626c656400000000604082015260600190565b60208082526026908201527f4f776e61626c653a206e6577206f776e657220697320746865207a65726f206160408201527f6464726573730000000000000000000000000000000000000000000000000000606082015260800190565b60208082526022908201527f45524332303a20617070726f766520746f20746865207a65726f20616464726560408201527f7373000000000000000000000000000000000000000000000000000000000000606082015260800190565b6020808252601b908201527f536166654d6174683a206164646974696f6e206f766572666c6f770000000000604082015260600190565b60208082526024908201527f417263683a3a76616c69646174655369673a20696e76616c6964207369676e6160408201527f7475726500000000000000000000000000000000000000000000000000000000606082015260800190565b6020808252601a908201527f59657469566f7465723a3a7472616e73666572206661696c6564000000000000604082015260600190565b6020808252600f908201527f7065726d69743a3a657870697265640000000000000000000000000000000000604082015260600190565b6020808252601b908201527f59657469566f7465723a6465706f736974732064697361626c65640000000000604082015260600190565b60208082526014908201527f59657469566f7465723a3a6f6e6c7950726f7879000000000000000000000000604082015260600190565b6020808252818101527f4f776e61626c653a2063616c6c6572206973206e6f7420746865206f776e6572604082015260600190565b60208082526025908201527f45524332303a207472616e736665722066726f6d20746865207a65726f20616460408201527f6472657373000000000000000000000000000000000000000000000000000000606082015260800190565b60208082526024908201527f45524332303a20617070726f76652066726f6d20746865207a65726f2061646460408201527f7265737300000000000000000000000000000000000000000000000000000000606082015260800190565b6020808252601f908201527f45524332303a206d696e7420746f20746865207a65726f206164647265737300604082015260600190565b60ff91909116815260200190565b80151581146108cf57600080fdfe45524332303a207472616e7366657220616d6f756e7420657863656564732062616c616e636545524332303a207472616e7366657220616d6f756e74206578636565647320616c6c6f77616e636545524332303a2064656372656173656420616c6c6f77616e63652062656c6f77207a65726fa2646970667358221220e57bbd1c3c858c74ee4cf6695c362058b401441455254e396100b803e0a8e01364736f6c634300070300338be0079c531659141344cd1fd0a4f28419497f9722a3daafe3b4186f6b6457e0",
  "devdoc": {
    "kind": "dev",
    "methods": {
      "allowance(address,address)": {
        "details": "See {IERC20-allowance}."
      },
      "approve(address,uint256)": {
        "details": "See {IERC20-approve}. Requirements: - `spender` cannot be the zero address."
      },
      "balanceOf(address)": {
        "details": "See {IERC20-balanceOf}."
      },
      "decimals()": {
        "details": "Returns the number of decimals used to get its user representation. For example, if `decimals` equals `2`, a balance of `505` tokens should be displayed to a user as `5,05` (`505 / 10 ** 2`). Tokens usually opt for a value of 18, imitating the relationship between Ether and Wei. This is the value {ERC20} uses, unless {_setupDecimals} is called. NOTE: This information is only used for _display_ purposes: it in no way affects any of the arithmetic of the contract, including {IERC20-balanceOf} and {IERC20-transfer}."
      },
      "decreaseAllowance(address,uint256)": {
        "details": "Atomically decreases the allowance granted to `spender` by the caller. This is an alternative to {approve} that can be used as a mitigation for problems described in {IERC20-approve}. Emits an {Approval} event indicating the updated allowance. Requirements: - `spender` cannot be the zero address. - `spender` must have allowance for the caller of at least `subtractedValue`."
      },
      "deposit(uint256)": {
        "params": {
          "_amount": "to deposit"
        }
      },
      "execute(address,uint256,bytes)": {
        "details": "Very sensitive, restricted to proxy",
        "params": {
          "data": "calldata",
          "target": "address",
          "value": "value to transfer"
        },
        "returns": {
          "_0": "bool success",
          "_1": "bytes result"
        }
      },
      "getDomainSeparator()": {
        "returns": {
          "_0": "Separator"
        }
      },
      "increaseAllowance(address,uint256)": {
        "details": "Atomically increases the allowance granted to `spender` by the caller. This is an alternative to {approve} that can be used as a mitigation for problems described in {IERC20-approve}. Emits an {Approval} event indicating the updated allowance. Requirements: - `spender` cannot be the zero address."
      },
      "name()": {
        "details": "Returns the name of the token."
      },
      "owner()": {
        "details": "Returns the address of the current owner."
      },
      "permit(address,address,uint256,uint256,uint8,bytes32,bytes32)": {
        "params": {
          "deadline": "The time at which to expire the signature",
          "owner": "The address to approve from",
          "r": "Half of the ECDSA signature pair",
          "s": "Half of the ECDSA signature pair",
          "spender": "The address to be approved",
          "v": "The recovery byte of the signature",
          "value": "The number of tokens that are approved (2^256-1 means infinite)"
        }
      },
      "renounceOwnership()": {
        "details": "Leaves the contract without owner. It will not be possible to call `onlyOwner` functions anymore. Can only be called by the current owner. NOTE: Renouncing ownership will leave the contract without an owner, thereby removing any functionality that is only available to the owner."
      },
      "setVoterProxy(address)": {
        "details": "Very sensitive, restricted to owner",
        "params": {
          "_voterProxy": "new address"
        }
      },
      "symbol()": {
        "details": "Returns the symbol of the token, usually a shorter version of the name."
      },
      "totalSupply()": {
        "details": "See {IERC20-totalSupply}."
      },
      "transfer(address,uint256)": {
        "details": "See {IERC20-transfer}. Requirements: - `recipient` cannot be the zero address. - the caller must have a balance of at least `amount`."
      },
      "transferFrom(address,address,uint256)": {
        "details": "See {IERC20-transferFrom}. Emits an {Approval} event indicating the updated allowance. This is not required by the EIP. See the note at the beginning of {ERC20}. Requirements: - `sender` and `recipient` cannot be the zero address. - `sender` must have a balance of at least `amount`. - the caller must have allowance for ``sender``'s tokens of at least `amount`."
      },
      "transferOwnership(address)": {
        "details": "Transfers ownership of the contract to a new account (`newOwner`). Can only be called by the current owner."
      },
      "updateDepositsEnabled(bool)": {
        "details": "Restricted to owner",
        "params": {
          "newValue": "bool"
        }
      },
      "updateYetiRewarder(address)": {
        "details": "Restricted to owner",
        "params": {
          "_rewarder": "new address"
        }
      },
      "veYETIBalance()": {
        "returns": {
          "_0": "uint256 balance"
        }
      }
    },
    "version": 1
  },
  "userdoc": {
    "kind": "user",
    "methods": {
      "deposit(uint256)": {
        "notice": "External deposit function for YETI"
      },
      "execute(address,uint256,bytes)": {
        "notice": "Open-ended execute function"
      },
      "getDomainSeparator()": {
        "notice": "EIP-712 Domain separator"
      },
      "permit(address,address,uint256,uint256,uint8,bytes32,bytes32)": {
        "notice": "Triggers an approval from owner to spender"
      },
      "setVoterProxy(address)": {
        "notice": "Update proxy address"
      },
      "updateDepositsEnabled(bool)": {
        "notice": "Enable/disable deposits"
      },
      "updateYetiRewarder(address)": {
        "notice": "Update Yeti rewarder for which this contract accumulates veYETI"
      },
      "veYETIBalance()": {
        "notice": "veYETI balance"
      }
    },
    "notice": "YetiVoter manages deposits for other strategies using a proxy pattern.",
    "version": 1
  },
  "storageLayout": {
    "storage": [
      {
        "astId": 22332,
        "contract": "contracts/strategies/YetiVoter.sol:YetiVoter",
        "label": "_owner",
        "offset": 0,
        "slot": "0",
        "type": "t_address"
      },
      {
        "astId": 20484,
        "contract": "contracts/strategies/YetiVoter.sol:YetiVoter",
        "label": "nonces",
        "offset": 0,
        "slot": "1",
        "type": "t_mapping(t_address,t_uint256)"
      },
      {
        "astId": 20488,
        "contract": "contracts/strategies/YetiVoter.sol:YetiVoter",
        "label": "_balances",
        "offset": 0,
        "slot": "2",
        "type": "t_mapping(t_address,t_uint256)"
      },
      {
        "astId": 20494,
        "contract": "contracts/strategies/YetiVoter.sol:YetiVoter",
        "label": "_allowances",
        "offset": 0,
        "slot": "3",
        "type": "t_mapping(t_address,t_mapping(t_address,t_uint256))"
      },
      {
        "astId": 20496,
        "contract": "contracts/strategies/YetiVoter.sol:YetiVoter",
        "label": "_totalSupply",
        "offset": 0,
        "slot": "4",
        "type": "t_uint256"
      },
      {
        "astId": 20498,
        "contract": "contracts/strategies/YetiVoter.sol:YetiVoter",
        "label": "_name",
        "offset": 0,
        "slot": "5",
        "type": "t_string_storage"
      },
      {
        "astId": 20500,
        "contract": "contracts/strategies/YetiVoter.sol:YetiVoter",
        "label": "_symbol",
        "offset": 0,
        "slot": "6",
        "type": "t_string_storage"
      },
      {
        "astId": 20502,
        "contract": "contracts/strategies/YetiVoter.sol:YetiVoter",
        "label": "_decimals",
        "offset": 0,
        "slot": "7",
        "type": "t_uint8"
      },
      {
        "astId": 115353,
        "contract": "contracts/strategies/YetiVoter.sol:YetiVoter",
        "label": "voterProxy",
        "offset": 1,
        "slot": "7",
        "type": "t_address"
      },
      {
        "astId": 115355,
        "contract": "contracts/strategies/YetiVoter.sol:YetiVoter",
        "label": "currentYetiRewarder",
        "offset": 0,
        "slot": "8",
        "type": "t_address"
      },
      {
        "astId": 115359,
        "contract": "contracts/strategies/YetiVoter.sol:YetiVoter",
        "label": "depositsEnabled",
        "offset": 20,
        "slot": "8",
        "type": "t_bool"
      }
    ],
    "types": {
      "t_address": {
        "encoding": "inplace",
        "label": "address",
        "numberOfBytes": "20"
      },
      "t_bool": {
        "encoding": "inplace",
        "label": "bool",
        "numberOfBytes": "1"
      },
      "t_mapping(t_address,t_mapping(t_address,t_uint256))": {
        "encoding": "mapping",
        "key": "t_address",
        "label": "mapping(address => mapping(address => uint256))",
        "numberOfBytes": "32",
        "value": "t_mapping(t_address,t_uint256)"
      },
      "t_mapping(t_address,t_uint256)": {
        "encoding": "mapping",
        "key": "t_address",
        "label": "mapping(address => uint256)",
        "numberOfBytes": "32",
        "value": "t_uint256"
      },
      "t_string_storage": {
        "encoding": "bytes",
        "label": "string",
        "numberOfBytes": "32"
      },
      "t_uint256": {
        "encoding": "inplace",
        "label": "uint256",
        "numberOfBytes": "32"
      },
      "t_uint8": {
        "encoding": "inplace",
        "label": "uint8",
        "numberOfBytes": "1"
      }
    }
  }
}