{
  "address": "0x2b8492113676D4F26B9582de4027C7730477B4F3",
  "abi": [
    {
      "inputs": [
        {
          "internalType": "address",
          "name": "_voter",
          "type": "address"
        },
        {
          "internalType": "address",
          "name": "_devAddr",
          "type": "address"
        },
        {
          "internalType": "uint256",
          "name": "_boosterFeeBips",
          "type": "uint256"
        },
        {
          "internalType": "address",
          "name": "_boosterFeeReceiver",
          "type": "address"
        }
      ],
      "stateMutability": "nonpayable",
      "type": "constructor"
    },
    {
      "inputs": [
        {
          "internalType": "address",
          "name": "_stakingContract",
          "type": "address"
        },
        {
          "internalType": "address",
          "name": "_strategy",
          "type": "address"
        }
      ],
      "name": "approveStrategy",
      "outputs": [],
      "stateMutability": "nonpayable",
      "type": "function"
    },
    {
      "inputs": [],
      "name": "boosterFee",
      "outputs": [
        {
          "internalType": "uint256",
          "name": "",
          "type": "uint256"
        }
      ],
      "stateMutability": "view",
      "type": "function"
    },
    {
      "inputs": [],
      "name": "boosterFeeReceiver",
      "outputs": [
        {
          "internalType": "address",
          "name": "",
          "type": "address"
        }
      ],
      "stateMutability": "view",
      "type": "function"
    },
    {
      "inputs": [
        {
          "internalType": "address",
          "name": "_stakingContract",
          "type": "address"
        }
      ],
      "name": "claimReward",
      "outputs": [],
      "stateMutability": "nonpayable",
      "type": "function"
    },
    {
      "inputs": [
        {
          "internalType": "address",
          "name": "_stakingContract",
          "type": "address"
        },
        {
          "internalType": "address",
          "name": "_token",
          "type": "address"
        },
        {
          "internalType": "uint256",
          "name": "_amount",
          "type": "uint256"
        }
      ],
      "name": "deposit",
      "outputs": [],
      "stateMutability": "nonpayable",
      "type": "function"
    },
    {
      "inputs": [],
      "name": "devAddr",
      "outputs": [
        {
          "internalType": "address",
          "name": "",
          "type": "address"
        }
      ],
      "stateMutability": "view",
      "type": "function"
    },
    {
      "inputs": [
        {
          "internalType": "address",
          "name": "_stakingContract",
          "type": "address"
        },
        {
          "internalType": "address",
          "name": "_token",
          "type": "address"
        }
      ],
      "name": "emergencyWithdraw",
      "outputs": [],
      "stateMutability": "nonpayable",
      "type": "function"
    },
    {
      "inputs": [
        {
          "internalType": "address",
          "name": "_stakingContract",
          "type": "address"
        }
      ],
      "name": "pendingRewards",
      "outputs": [
        {
          "internalType": "uint256",
          "name": "pendingYETI",
          "type": "uint256"
        }
      ],
      "stateMutability": "view",
      "type": "function"
    },
    {
      "inputs": [
        {
          "internalType": "address",
          "name": "_stakingContract",
          "type": "address"
        }
      ],
      "name": "poolBalance",
      "outputs": [
        {
          "internalType": "uint256",
          "name": "balance",
          "type": "uint256"
        }
      ],
      "stateMutability": "view",
      "type": "function"
    },
    {
      "inputs": [
        {
          "internalType": "uint256",
          "name": "_boosterFeeBips",
          "type": "uint256"
        }
      ],
      "name": "setBoosterFee",
      "outputs": [],
      "stateMutability": "nonpayable",
      "type": "function"
    },
    {
      "inputs": [
        {
          "internalType": "address",
          "name": "_boosterFeeReceiver",
          "type": "address"
        }
      ],
      "name": "setBoosterFeeReceiver",
      "outputs": [],
      "stateMutability": "nonpayable",
      "type": "function"
    },
    {
      "inputs": [
        {
          "internalType": "address",
          "name": "newValue",
          "type": "address"
        }
      ],
      "name": "updateDevAddr",
      "outputs": [],
      "stateMutability": "nonpayable",
      "type": "function"
    },
    {
      "inputs": [],
      "name": "voter",
      "outputs": [
        {
          "internalType": "contract IYetiVoter",
          "name": "",
          "type": "address"
        }
      ],
      "stateMutability": "view",
      "type": "function"
    },
    {
      "inputs": [
        {
          "internalType": "address",
          "name": "_stakingContract",
          "type": "address"
        },
        {
          "internalType": "address",
          "name": "_token",
          "type": "address"
        },
        {
          "internalType": "uint256",
          "name": "_amount",
          "type": "uint256"
        }
      ],
      "name": "withdraw",
      "outputs": [],
      "stateMutability": "nonpayable",
      "type": "function"
    }
  ],
  "transactionHash": "0xea5e6d391d1704a639000a5fe88f95daed75e955ffbbc61e56367b7e30651c0d",
  "args": [
    "0xf32854411a46DF5699198787948eBC0963Db6D42",
    "0xDcEDF06Fd33E1D7b6eb4b309f779a0e9D3172e44",
    1000,
    "0xDcEDF06Fd33E1D7b6eb4b309f779a0e9D3172e44"
  ],
  "solcInputHash": "ae877bc66f4b7619b88ddcba72509af7",
  "bytecode": "0x60a060405234801561001057600080fd5b506040516118c83803806118c88339818101604052608081101561003357600080fd5b50805160208201516040830151606093840151600080546001600160a01b03199081166001600160a01b039586161782559585901b6001600160601b031916608052600192909255600280549095169083161790935516906117d6906100f29039806102f45280610399528061057d52806105ed528061063a528061075e52806107d1528061085c52806108d85280610ba65280610bf95280610ce95280610d395280610dc55280610eaa5280610f1a5280610f7652506117d66000f3fe608060405234801561001057600080fd5b50600436106100ea5760003560e01c80638340f5491161008c578063c494448e11610066578063c494448e14610250578063d279c1911461027e578063d9caed12146102a4578063da09c72c146102da576100ea565b80638340f549146101d7578063865710f01461020d5780639291d5631461022a576100ea565b80636382d9ad116100c85780636382d9ad1461017357806368abb5e0146101a1578063781a29d1146101c7578063792a230f146101cf576100ea565b806331d7a262146100ef57806346c96aac14610127578063491cad291461014b575b600080fd5b6101156004803603602081101561010557600080fd5b50356001600160a01b03166102e2565b60408051918252519081900360200190f35b61012f610397565b604080516001600160a01b039092168252519081900360200190f35b6101716004803603602081101561016157600080fd5b50356001600160a01b03166103bb565b005b6101716004803603604081101561018957600080fd5b506001600160a01b0381358116916020013516610449565b610115600480360360208110156101b757600080fd5b50356001600160a01b0316610627565b6101156106ca565b61012f6106d0565b610171600480360360608110156101ed57600080fd5b506001600160a01b038135811691602081013590911690604001356106df565b6101716004803603602081101561022357600080fd5b5035610903565b6101716004803603602081101561024057600080fd5b50356001600160a01b0316610967565b6101716004803603604081101561026657600080fd5b506001600160a01b03813581169160200135166109f5565b6101716004803603602081101561029457600080fd5b50356001600160a01b0316610ae6565b610171600480360360608110156102ba57600080fd5b506001600160a01b03813581169160208101359091169060400135610df4565b61012f610f4d565b6000816001600160a01b0316628cc2627f00000000000000000000000000000000000000000000000000000000000000006040518263ffffffff1660e01b815260040180826001600160a01b0316815260200191505060206040518083038186803b15801561035057600080fd5b505afa158015610364573d6000803e3d6000fd5b505050506040513d602081101561037a57600080fd5b5051905061039161038a82610f5c565b8290611020565b92915050565b7f000000000000000000000000000000000000000000000000000000000000000081565b6000546001600160a01b0316331461041a576040805162461bcd60e51b815260206004820152601760248201527f59657469566f74657250726f78793a3a6f6e6c79446576000000000000000000604482015290519081900360640190fd5b6002805473ffffffffffffffffffffffffffffffffffffffff19166001600160a01b0392909216919091179055565b6001600160a01b0380831660009081526003602052604090205483911633146104b9576040805162461bcd60e51b815260206004820152601c60248201527f59657469566f74657250726f78793a3a6f6e6c79537472617465677900000000604482015290519081900360640190fd5b6000306001600160a01b03166368abb5e0856040518263ffffffff1660e01b815260040180826001600160a01b0316815260200191505060206040518083038186803b15801561050857600080fd5b505afa15801561051c573d6000803e3d6000fd5b505050506040513d602081101561053257600080fd5b50516040805160248082018490528251808303909101815260449091019091526020810180516001600160e01b0316632e1a7d4d60e01b1790529091506105a8906001600160a01b037f000000000000000000000000000000000000000000000000000000000000000016908690600090611069565b506040805133602482015260448082018490528251808303909101815260649091019091526020810180516001600160e01b031663a9059cbb60e01b179052610620907f00000000000000000000000000000000000000000000000000000000000000006001600160a01b0316908590600090611069565b5050505050565b6000816001600160a01b03166370a082317f00000000000000000000000000000000000000000000000000000000000000006040518263ffffffff1660e01b815260040180826001600160a01b0316815260200191505060206040518083038186803b15801561069657600080fd5b505afa1580156106aa573d6000803e3d6000fd5b505050506040513d60208110156106c057600080fd5b505190505b919050565b60015481565b6002546001600160a01b031681565b6001600160a01b03808416600090815260036020526040902054849116331461074f576040805162461bcd60e51b815260206004820152601c60248201527f59657469566f74657250726f78793a3a6f6e6c79537472617465677900000000604482015290519081900360640190fd5b6107836001600160a01b0384167f00000000000000000000000000000000000000000000000000000000000000008461126e565b604080516001600160a01b03808716602483015260448083018690528351808403909101815260649092019092526020810180516001600160e01b031663095ea7b360e01b1790526107fc917f000000000000000000000000000000000000000000000000000000000000000016908590600090611069565b506040805160248082018590528251808303909101815260449091019091526020810180516001600160e01b03167fa694fc3a00000000000000000000000000000000000000000000000000000000179052610887906001600160a01b037f000000000000000000000000000000000000000000000000000000000000000016908690600090611069565b50604080516001600160a01b038087166024830152600060448084018290528451808503909101815260649093019093526020820180516001600160e01b031663095ea7b360e01b179052610620927f000000000000000000000000000000000000000000000000000000000000000090911691869190611069565b6000546001600160a01b03163314610962576040805162461bcd60e51b815260206004820152601760248201527f59657469566f74657250726f78793a3a6f6e6c79446576000000000000000000604482015290519081900360640190fd5b600155565b6000546001600160a01b031633146109c6576040805162461bcd60e51b815260206004820152601760248201527f59657469566f74657250726f78793a3a6f6e6c79446576000000000000000000604482015290519081900360640190fd5b6000805473ffffffffffffffffffffffffffffffffffffffff19166001600160a01b0392909216919091179055565b6000546001600160a01b03163314610a54576040805162461bcd60e51b815260206004820152601760248201527f59657469566f74657250726f78793a3a6f6e6c79446576000000000000000000604482015290519081900360640190fd5b6001600160a01b038281166000908152600360205260409020541615610aab5760405162461bcd60e51b81526004018080602001828103825260268152602001806116e86026913960400191505060405180910390fd5b6001600160a01b039182166000908152600360205260409020805473ffffffffffffffffffffffffffffffffffffffff191691909216179055565b6001600160a01b038082166000908152600360205260409020548291163314610b56576040805162461bcd60e51b815260206004820152601c60248201527f59657469566f74657250726f78793a3a6f6e6c79537472617465677900000000604482015290519081900360640190fd5b6040805160048152602481019091526020810180516001600160e01b03167f3d18b91200000000000000000000000000000000000000000000000000000000179052610bd1906001600160a01b037f000000000000000000000000000000000000000000000000000000000000000016908490600090611069565b5060007377777777777d4554c39223c354a05825b2e8faa36001600160a01b03166370a082317f00000000000000000000000000000000000000000000000000000000000000006040518263ffffffff1660e01b815260040180826001600160a01b0316815260200191505060206040518083038186803b158015610c5557600080fd5b505afa158015610c69573d6000803e3d6000fd5b505050506040513d6020811015610c7f57600080fd5b505190508015610def576000610c9482610f5c565b90506000610ca28383611020565b6040805133602482015260448082018490528251808303909101815260649091019091526020810180516001600160e01b031663a9059cbb60e01b179052909150610d30907f00000000000000000000000000000000000000000000000000000000000000006001600160a01b0316907377777777777d4554c39223c354a05825b2e8faa390600090611069565b508115610620577f00000000000000000000000000000000000000000000000000000000000000006001600160a01b0316637c0bb4ab836040518263ffffffff1660e01b815260040180828152602001915050600060405180830381600087803b158015610d9d57600080fd5b505af1158015610db1573d6000803e3d6000fd5b505060025461062092506001600160a01b037f000000000000000000000000000000000000000000000000000000000000000081169250168461126e565b505050565b6001600160a01b038084166000908152600360205260409020548491163314610e64576040805162461bcd60e51b815260206004820152601c60248201527f59657469566f74657250726f78793a3a6f6e6c79537472617465677900000000604482015290519081900360640190fd5b6040805160248082018590528251808303909101815260449091019091526020810180516001600160e01b0316632e1a7d4d60e01b179052610ed5906001600160a01b037f000000000000000000000000000000000000000000000000000000000000000016908690600090611069565b506040805133602482015260448082018590528251808303909101815260649091019091526020810180516001600160e01b031663a9059cbb60e01b179052610620907f00000000000000000000000000000000000000000000000000000000000000006001600160a01b0316908590600090611069565b6000546001600160a01b031681565b6002546000906001600160a01b031615801590610ffa57507f00000000000000000000000000000000000000000000000000000000000000006001600160a01b0316635392fd1c6040518163ffffffff1660e01b815260040160206040518083038186803b158015610fcd57600080fd5b505afa158015610fe1573d6000803e3d6000fd5b505050506040513d6020811015610ff757600080fd5b50515b156106c55761039161271061101a600154856112c090919063ffffffff16565b90611319565b600061106283836040518060400160405280601f81526020017f536166654d6174683a207375627472616374696f6e20756e646572666c6f770081525061135b565b9392505050565b606060006060866001600160a01b031663b61d27f68787876040518463ffffffff1660e01b815260040180846001600160a01b0316815260200183815260200180602001828103825283818151815260200191508051906020019080838360005b838110156110e25781810151838201526020016110ca565b50505050905090810190601f16801561110f5780820380516001836020036101000a031916815260200191505b50945050505050600060405180830381600087803b15801561113057600080fd5b505af1158015611144573d6000803e3d6000fd5b505050506040513d6000823e601f3d908101601f19168201604090815281101561116d57600080fd5b81516020830180516040519294929383019291908464010000000082111561119457600080fd5b9083019060208201858111156111a957600080fd5b82516401000000008111828201881017156111c357600080fd5b82525081516020918201929091019080838360005b838110156111f05781810151838201526020016111d8565b50505050905090810190601f16801561121d5780820380516001836020036101000a031916815260200191505b5060405250505091509150816112645760405162461bcd60e51b815260040180806020018281038252602281526020018061170e6022913960400191505060405180910390fd5b9695505050505050565b604080516001600160a01b038416602482015260448082018490528251808303909101815260649091019091526020810180516001600160e01b031663a9059cbb60e01b179052610def9084906113f2565b6000826112cf57506000610391565b828202828482816112dc57fe5b04146110625760405162461bcd60e51b81526004018080602001828103825260218152602001806117566021913960400191505060405180910390fd5b600061106283836040518060400160405280601a81526020017f536166654d6174683a206469766973696f6e206279207a65726f0000000000008152506114a3565b600081848411156113ea5760405162461bcd60e51b81526004018080602001828103825283818151815260200191508051906020019080838360005b838110156113af578181015183820152602001611397565b50505050905090810190601f1680156113dc5780820380516001836020036101000a031916815260200191505b509250505060405180910390fd5b505050900390565b6060611447826040518060400160405280602081526020017f5361666545524332303a206c6f772d6c6576656c2063616c6c206661696c6564815250856001600160a01b03166115089092919063ffffffff16565b805190915015610def5780806020019051602081101561146657600080fd5b5051610def5760405162461bcd60e51b815260040180806020018281038252602a815260200180611777602a913960400191505060405180910390fd5b600081836114f25760405162461bcd60e51b81526020600482018181528351602484015283519092839260449091019190850190808383600083156113af578181015183820152602001611397565b5060008385816114fe57fe5b0495945050505050565b6060611517848460008561151f565b949350505050565b6060824710156115605760405162461bcd60e51b81526004018080602001828103825260268152602001806117306026913960400191505060405180910390fd5b6115698561167b565b6115ba576040805162461bcd60e51b815260206004820152601d60248201527f416464726573733a2063616c6c20746f206e6f6e2d636f6e7472616374000000604482015290519081900360640190fd5b60006060866001600160a01b031685876040518082805190602001908083835b602083106115f95780518252601f1990920191602091820191016115da565b6001836020036101000a03801982511681845116808217855250505050505090500191505060006040518083038185875af1925050503d806000811461165b576040519150601f19603f3d011682016040523d82523d6000602084013e611660565b606091505b5091509150611670828286611681565b979650505050505050565b3b151590565b60608315611690575081611062565b8251156116a05782518084602001fd5b60405162461bcd60e51b81526020600482018181528451602484015284518593919283926044019190850190808383600083156113af57818101518382015260200161139756fe59657469566f74657250726f78793a3a537472617465677920616c726561647920616464656459657469566f74657250726f78793a3a7361666545786563757465206661696c6564416464726573733a20696e73756666696369656e742062616c616e636520666f722063616c6c536166654d6174683a206d756c7469706c69636174696f6e206f766572666c6f775361666545524332303a204552433230206f7065726174696f6e20646964206e6f742073756363656564a2646970667358221220d6879f5bed0326eddc7dd8eda14868e31e56ff3882b4cd413098ec5a3c528e4a64736f6c63430007030033",
  "devdoc": {
    "details": "For accounting reasons, there is one approved strategy per staking contract. In case of upgrade, use a new proxy.",
    "kind": "dev",
    "methods": {
      "approveStrategy(address,address)": {
        "details": "Very sensitive, restricted to devAddrCan only be set once per PID and staking contract (reported by the strategy)",
        "params": {
          "_stakingContract": "address",
          "_strategy": "address"
        }
      },
      "claimReward(address)": {
        "params": {
          "_stakingContract": "Masterchef"
        }
      },
      "deposit(address,address,uint256)": {
        "details": "Restricted to strategy with _pid",
        "params": {
          "_amount": "deposit amount",
          "_stakingContract": "Masterchef",
          "_token": "Deposit asset"
        }
      },
      "emergencyWithdraw(address,address)": {
        "params": {
          "_stakingContract": "Masterchef",
          "_token": "Deposit asset"
        }
      },
      "pendingRewards(address)": {
        "params": {
          "_stakingContract": "Masterchef"
        }
      },
      "poolBalance(address)": {
        "params": {
          "_stakingContract": "Masterchef"
        },
        "returns": {
          "balance": "in depositToken"
        }
      },
      "setBoosterFee(uint256)": {
        "details": "Restricted to devAddr",
        "params": {
          "_boosterFeeBips": "new fee in bips (1% = 100 bips)"
        }
      },
      "setBoosterFeeReceiver(address)": {
        "details": "Restricted to devAddr",
        "params": {
          "_boosterFeeReceiver": "address"
        }
      },
      "updateDevAddr(address)": {
        "params": {
          "newValue": "address"
        }
      },
      "withdraw(address,address,uint256)": {
        "params": {
          "_amount": "withdraw amount",
          "_stakingContract": "Masterchef",
          "_token": "Deposit asset"
        }
      }
    },
    "version": 1
  },
  "userdoc": {
    "kind": "user",
    "methods": {
      "approveStrategy(address,address)": {
        "notice": "Add an approved strategy"
      },
      "claimReward(address)": {
        "notice": "Claim and distribute rewards"
      },
      "deposit(address,address,uint256)": {
        "notice": "Deposit function"
      },
      "emergencyWithdraw(address,address)": {
        "notice": "Emergency withdraw function"
      },
      "pendingRewards(address)": {
        "notice": "Pending rewards matching interface for strategy"
      },
      "poolBalance(address)": {
        "notice": "Pool balance"
      },
      "setBoosterFee(uint256)": {
        "notice": "Update booster fee"
      },
      "setBoosterFeeReceiver(address)": {
        "notice": "Update booster fee receiver"
      },
      "updateDevAddr(address)": {
        "notice": "Update devAddr"
      },
      "withdraw(address,address,uint256)": {
        "notice": "Withdraw function"
      }
    },
    "notice": "YetiVoterProxy is an upgradable contract. Strategies interact with YetiVoterProxy and YetiVoterProxy interacts with YetiVoter.",
    "version": 1
  },
  "storageLayout": {
    "storage": [
      {
        "astId": 115658,
        "contract": "contracts/strategies/YetiVoterProxy.sol:YetiVoterProxy",
        "label": "devAddr",
        "offset": 0,
        "slot": "0",
        "type": "t_address"
      },
      {
        "astId": 115660,
        "contract": "contracts/strategies/YetiVoterProxy.sol:YetiVoterProxy",
        "label": "boosterFee",
        "offset": 0,
        "slot": "1",
        "type": "t_uint256"
      },
      {
        "astId": 115662,
        "contract": "contracts/strategies/YetiVoterProxy.sol:YetiVoterProxy",
        "label": "boosterFeeReceiver",
        "offset": 0,
        "slot": "2",
        "type": "t_address"
      },
      {
        "astId": 115666,
        "contract": "contracts/strategies/YetiVoterProxy.sol:YetiVoterProxy",
        "label": "approvedStrategies",
        "offset": 0,
        "slot": "3",
        "type": "t_mapping(t_address,t_address)"
      }
    ],
    "types": {
      "t_address": {
        "encoding": "inplace",
        "label": "address",
        "numberOfBytes": "20"
      },
      "t_mapping(t_address,t_address)": {
        "encoding": "mapping",
        "key": "t_address",
        "label": "mapping(address => address)",
        "numberOfBytes": "32",
        "value": "t_address"
      },
      "t_uint256": {
        "encoding": "inplace",
        "label": "uint256",
        "numberOfBytes": "32"
      }
    }
  }
}