{
  "address": "0x51fbD3162795632471DFCd8A0C9FE4E889fdE9e5",
  "abi": [
    {
      "inputs": [
        {
          "internalType": "address",
          "name": "_stakingContract",
          "type": "address"
        },
        {
          "components": [
            {
              "internalType": "address",
              "name": "gasToken",
              "type": "address"
            },
            {
              "internalType": "address[]",
              "name": "rewards",
              "type": "address[]"
            },
            {
              "internalType": "address",
              "name": "simpleRouter",
              "type": "address"
            }
          ],
          "internalType": "struct BaseStrategy.BaseStrategySettings",
          "name": "_settings",
          "type": "tuple"
        },
        {
          "components": [
            {
              "internalType": "string",
              "name": "name",
              "type": "string"
            },
            {
              "internalType": "address",
              "name": "owner",
              "type": "address"
            },
            {
              "internalType": "address",
              "name": "dev",
              "type": "address"
            },
            {
              "internalType": "address",
              "name": "feeCollector",
              "type": "address"
            },
            {
              "internalType": "address",
              "name": "depositToken",
              "type": "address"
            },
            {
              "internalType": "address",
              "name": "rewardToken",
              "type": "address"
            },
            {
              "internalType": "uint256",
              "name": "minTokensToReinvest",
              "type": "uint256"
            },
            {
              "internalType": "uint256",
              "name": "devFeeBips",
              "type": "uint256"
            },
            {
              "internalType": "uint256",
              "name": "reinvestRewardBips",
              "type": "uint256"
            }
          ],
          "internalType": "struct YakStrategyV3.StrategySettings",
          "name": "_strategySettings",
          "type": "tuple"
        }
      ],
      "stateMutability": "nonpayable",
      "type": "constructor"
    },
    {
      "anonymous": false,
      "inputs": [
        {
          "indexed": false,
          "internalType": "address",
          "name": "rewardToken",
          "type": "address"
        }
      ],
      "name": "AddReward",
      "type": "event"
    },
    {
      "anonymous": false,
      "inputs": [
        {
          "indexed": true,
          "internalType": "address",
          "name": "owner",
          "type": "address"
        },
        {
          "indexed": true,
          "internalType": "address",
          "name": "spender",
          "type": "address"
        },
        {
          "indexed": false,
          "internalType": "uint256",
          "name": "value",
          "type": "uint256"
        }
      ],
      "name": "Approval",
      "type": "event"
    },
    {
      "anonymous": false,
      "inputs": [
        {
          "indexed": true,
          "internalType": "address",
          "name": "account",
          "type": "address"
        },
        {
          "indexed": false,
          "internalType": "uint256",
          "name": "amount",
          "type": "uint256"
        }
      ],
      "name": "Deposit",
      "type": "event"
    },
    {
      "anonymous": false,
      "inputs": [
        {
          "indexed": false,
          "internalType": "bool",
          "name": "newValue",
          "type": "bool"
        }
      ],
      "name": "DepositsEnabled",
      "type": "event"
    },
    {
      "anonymous": false,
      "inputs": [
        {
          "indexed": true,
          "internalType": "address",
          "name": "previousOwner",
          "type": "address"
        },
        {
          "indexed": true,
          "internalType": "address",
          "name": "newOwner",
          "type": "address"
        }
      ],
      "name": "OwnershipTransferred",
      "type": "event"
    },
    {
      "anonymous": false,
      "inputs": [
        {
          "indexed": false,
          "internalType": "address",
          "name": "token",
          "type": "address"
        },
        {
          "indexed": false,
          "internalType": "uint256",
          "name": "amount",
          "type": "uint256"
        }
      ],
      "name": "Recovered",
      "type": "event"
    },
    {
      "anonymous": false,
      "inputs": [
        {
          "indexed": false,
          "internalType": "uint256",
          "name": "newTotalDeposits",
          "type": "uint256"
        },
        {
          "indexed": false,
          "internalType": "uint256",
          "name": "newTotalSupply",
          "type": "uint256"
        }
      ],
      "name": "Reinvest",
      "type": "event"
    },
    {
      "anonymous": false,
      "inputs": [
        {
          "indexed": false,
          "internalType": "address",
          "name": "rewardToken",
          "type": "address"
        }
      ],
      "name": "RemoveReward",
      "type": "event"
    },
    {
      "anonymous": false,
      "inputs": [
        {
          "indexed": true,
          "internalType": "address",
          "name": "from",
          "type": "address"
        },
        {
          "indexed": true,
          "internalType": "address",
          "name": "to",
          "type": "address"
        },
        {
          "indexed": false,
          "internalType": "uint256",
          "name": "value",
          "type": "uint256"
        }
      ],
      "name": "Transfer",
      "type": "event"
    },
    {
      "anonymous": false,
      "inputs": [
        {
          "indexed": false,
          "internalType": "address",
          "name": "oldValue",
          "type": "address"
        },
        {
          "indexed": false,
          "internalType": "address",
          "name": "newValue",
          "type": "address"
        }
      ],
      "name": "UpdateDevAddr",
      "type": "event"
    },
    {
      "anonymous": false,
      "inputs": [
        {
          "indexed": false,
          "internalType": "uint256",
          "name": "oldValue",
          "type": "uint256"
        },
        {
          "indexed": false,
          "internalType": "uint256",
          "name": "newValue",
          "type": "uint256"
        }
      ],
      "name": "UpdateDevFee",
      "type": "event"
    },
    {
      "anonymous": false,
      "inputs": [
        {
          "indexed": false,
          "internalType": "address",
          "name": "oldValue",
          "type": "address"
        },
        {
          "indexed": false,
          "internalType": "address",
          "name": "newValue",
          "type": "address"
        }
      ],
      "name": "UpdateFeeCollector",
      "type": "event"
    },
    {
      "anonymous": false,
      "inputs": [
        {
          "indexed": false,
          "internalType": "uint256",
          "name": "oldValue",
          "type": "uint256"
        },
        {
          "indexed": false,
          "internalType": "uint256",
          "name": "newValue",
          "type": "uint256"
        }
      ],
      "name": "UpdateMaxTokensToDepositWithoutReinvest",
      "type": "event"
    },
    {
      "anonymous": false,
      "inputs": [
        {
          "indexed": false,
          "internalType": "uint256",
          "name": "oldValue",
          "type": "uint256"
        },
        {
          "indexed": false,
          "internalType": "uint256",
          "name": "newValue",
          "type": "uint256"
        }
      ],
      "name": "UpdateMinTokensToReinvest",
      "type": "event"
    },
    {
      "anonymous": false,
      "inputs": [
        {
          "indexed": false,
          "internalType": "uint256",
          "name": "oldValue",
          "type": "uint256"
        },
        {
          "indexed": false,
          "internalType": "uint256",
          "name": "newValue",
          "type": "uint256"
        }
      ],
      "name": "UpdateReinvestReward",
      "type": "event"
    },
    {
      "anonymous": false,
      "inputs": [
        {
          "indexed": false,
          "internalType": "address",
          "name": "oldRouter",
          "type": "address"
        },
        {
          "indexed": false,
          "internalType": "address",
          "name": "newRouter",
          "type": "address"
        }
      ],
      "name": "UpdateRouter",
      "type": "event"
    },
    {
      "anonymous": false,
      "inputs": [
        {
          "indexed": true,
          "internalType": "address",
          "name": "account",
          "type": "address"
        },
        {
          "indexed": false,
          "internalType": "uint256",
          "name": "amount",
          "type": "uint256"
        }
      ],
      "name": "Withdraw",
      "type": "event"
    },
    {
      "inputs": [],
      "name": "DEPOSITS_ENABLED",
      "outputs": [
        {
          "internalType": "bool",
          "name": "",
          "type": "bool"
        }
      ],
      "stateMutability": "view",
      "type": "function"
    },
    {
      "inputs": [],
      "name": "DEV_FEE_BIPS",
      "outputs": [
        {
          "internalType": "uint256",
          "name": "",
          "type": "uint256"
        }
      ],
      "stateMutability": "view",
      "type": "function"
    },
    {
      "inputs": [],
      "name": "DOMAIN_TYPEHASH",
      "outputs": [
        {
          "internalType": "bytes32",
          "name": "",
          "type": "bytes32"
        }
      ],
      "stateMutability": "view",
      "type": "function"
    },
    {
      "inputs": [],
      "name": "MIN_TOKENS_TO_REINVEST",
      "outputs": [
        {
          "internalType": "uint256",
          "name": "",
          "type": "uint256"
        }
      ],
      "stateMutability": "view",
      "type": "function"
    },
    {
      "inputs": [],
      "name": "PERMIT_TYPEHASH",
      "outputs": [
        {
          "internalType": "bytes32",
          "name": "",
          "type": "bytes32"
        }
      ],
      "stateMutability": "view",
      "type": "function"
    },
    {
      "inputs": [],
      "name": "REINVEST_REWARD_BIPS",
      "outputs": [
        {
          "internalType": "uint256",
          "name": "",
          "type": "uint256"
        }
      ],
      "stateMutability": "view",
      "type": "function"
    },
    {
      "inputs": [],
      "name": "VERSION_HASH",
      "outputs": [
        {
          "internalType": "bytes32",
          "name": "",
          "type": "bytes32"
        }
      ],
      "stateMutability": "view",
      "type": "function"
    },
    {
      "inputs": [
        {
          "internalType": "address",
          "name": "_rewardToken",
          "type": "address"
        }
      ],
      "name": "addReward",
      "outputs": [],
      "stateMutability": "nonpayable",
      "type": "function"
    },
    {
      "inputs": [
        {
          "internalType": "address",
          "name": "account",
          "type": "address"
        },
        {
          "internalType": "address",
          "name": "spender",
          "type": "address"
        }
      ],
      "name": "allowance",
      "outputs": [
        {
          "internalType": "uint256",
          "name": "",
          "type": "uint256"
        }
      ],
      "stateMutability": "view",
      "type": "function"
    },
    {
      "inputs": [
        {
          "internalType": "address",
          "name": "spender",
          "type": "address"
        },
        {
          "internalType": "uint256",
          "name": "amount",
          "type": "uint256"
        }
      ],
      "name": "approve",
      "outputs": [
        {
          "internalType": "bool",
          "name": "",
          "type": "bool"
        }
      ],
      "stateMutability": "nonpayable",
      "type": "function"
    },
    {
      "inputs": [
        {
          "internalType": "address",
          "name": "account",
          "type": "address"
        }
      ],
      "name": "balanceOf",
      "outputs": [
        {
          "internalType": "uint256",
          "name": "",
          "type": "uint256"
        }
      ],
      "stateMutability": "view",
      "type": "function"
    },
    {
      "inputs": [
        {
          "internalType": "uint256",
          "name": "_amount",
          "type": "uint256"
        }
      ],
      "name": "calculateDepositFee",
      "outputs": [
        {
          "internalType": "uint256",
          "name": "",
          "type": "uint256"
        }
      ],
      "stateMutability": "view",
      "type": "function"
    },
    {
      "inputs": [
        {
          "internalType": "uint256",
          "name": "_amount",
          "type": "uint256"
        }
      ],
      "name": "calculateWithdrawFee",
      "outputs": [
        {
          "internalType": "uint256",
          "name": "",
          "type": "uint256"
        }
      ],
      "stateMutability": "view",
      "type": "function"
    },
    {
      "inputs": [],
      "name": "checkReward",
      "outputs": [
        {
          "internalType": "uint256",
          "name": "",
          "type": "uint256"
        }
      ],
      "stateMutability": "view",
      "type": "function"
    },
    {
      "inputs": [],
      "name": "decimals",
      "outputs": [
        {
          "internalType": "uint8",
          "name": "",
          "type": "uint8"
        }
      ],
      "stateMutability": "view",
      "type": "function"
    },
    {
      "inputs": [
        {
          "internalType": "uint256",
          "name": "_amount",
          "type": "uint256"
        }
      ],
      "name": "deposit",
      "outputs": [],
      "stateMutability": "nonpayable",
      "type": "function"
    },
    {
      "inputs": [
        {
          "internalType": "address",
          "name": "_account",
          "type": "address"
        },
        {
          "internalType": "uint256",
          "name": "_amount",
          "type": "uint256"
        }
      ],
      "name": "depositFor",
      "outputs": [],
      "stateMutability": "nonpayable",
      "type": "function"
    },
    {
      "inputs": [],
      "name": "depositToken",
      "outputs": [
        {
          "internalType": "contract IERC20",
          "name": "",
          "type": "address"
        }
      ],
      "stateMutability": "view",
      "type": "function"
    },
    {
      "inputs": [
        {
          "internalType": "uint256",
          "name": "_amount",
          "type": "uint256"
        },
        {
          "internalType": "uint256",
          "name": "_deadline",
          "type": "uint256"
        },
        {
          "internalType": "uint8",
          "name": "_v",
          "type": "uint8"
        },
        {
          "internalType": "bytes32",
          "name": "_r",
          "type": "bytes32"
        },
        {
          "internalType": "bytes32",
          "name": "_s",
          "type": "bytes32"
        }
      ],
      "name": "depositWithPermit",
      "outputs": [],
      "stateMutability": "nonpayable",
      "type": "function"
    },
    {
      "inputs": [],
      "name": "devAddr",
      "outputs": [
        {
          "internalType": "address",
          "name": "",
          "type": "address"
        }
      ],
      "stateMutability": "view",
      "type": "function"
    },
    {
      "inputs": [],
      "name": "disableDeposits",
      "outputs": [],
      "stateMutability": "nonpayable",
      "type": "function"
    },
    {
      "inputs": [],
      "name": "enableDeposits",
      "outputs": [],
      "stateMutability": "nonpayable",
      "type": "function"
    },
    {
      "inputs": [],
      "name": "estimateReinvestReward",
      "outputs": [
        {
          "internalType": "uint256",
          "name": "",
          "type": "uint256"
        }
      ],
      "stateMutability": "view",
      "type": "function"
    },
    {
      "inputs": [],
      "name": "feeCollector",
      "outputs": [
        {
          "internalType": "address",
          "name": "",
          "type": "address"
        }
      ],
      "stateMutability": "view",
      "type": "function"
    },
    {
      "inputs": [
        {
          "internalType": "uint256",
          "name": "amount",
          "type": "uint256"
        }
      ],
      "name": "getDepositTokensForShares",
      "outputs": [
        {
          "internalType": "uint256",
          "name": "",
          "type": "uint256"
        }
      ],
      "stateMutability": "view",
      "type": "function"
    },
    {
      "inputs": [],
      "name": "getDomainSeparator",
      "outputs": [
        {
          "internalType": "bytes32",
          "name": "",
          "type": "bytes32"
        }
      ],
      "stateMutability": "view",
      "type": "function"
    },
    {
      "inputs": [
        {
          "internalType": "uint256",
          "name": "amount",
          "type": "uint256"
        }
      ],
      "name": "getSharesForDepositTokens",
      "outputs": [
        {
          "internalType": "uint256",
          "name": "",
          "type": "uint256"
        }
      ],
      "stateMutability": "view",
      "type": "function"
    },
    {
      "inputs": [],
      "name": "getSupportedRewardsLength",
      "outputs": [
        {
          "internalType": "uint256",
          "name": "",
          "type": "uint256"
        }
      ],
      "stateMutability": "view",
      "type": "function"
    },
    {
      "inputs": [],
      "name": "name",
      "outputs": [
        {
          "internalType": "string",
          "name": "",
          "type": "string"
        }
      ],
      "stateMutability": "view",
      "type": "function"
    },
    {
      "inputs": [
        {
          "internalType": "address",
          "name": "",
          "type": "address"
        }
      ],
      "name": "nonces",
      "outputs": [
        {
          "internalType": "uint256",
          "name": "",
          "type": "uint256"
        }
      ],
      "stateMutability": "view",
      "type": "function"
    },
    {
      "inputs": [],
      "name": "owner",
      "outputs": [
        {
          "internalType": "address",
          "name": "",
          "type": "address"
        }
      ],
      "stateMutability": "view",
      "type": "function"
    },
    {
      "inputs": [
        {
          "internalType": "address",
          "name": "owner",
          "type": "address"
        },
        {
          "internalType": "address",
          "name": "spender",
          "type": "address"
        },
        {
          "internalType": "uint256",
          "name": "value",
          "type": "uint256"
        },
        {
          "internalType": "uint256",
          "name": "deadline",
          "type": "uint256"
        },
        {
          "internalType": "uint8",
          "name": "v",
          "type": "uint8"
        },
        {
          "internalType": "bytes32",
          "name": "r",
          "type": "bytes32"
        },
        {
          "internalType": "bytes32",
          "name": "s",
          "type": "bytes32"
        }
      ],
      "name": "permit",
      "outputs": [],
      "stateMutability": "nonpayable",
      "type": "function"
    },
    {
      "inputs": [
        {
          "internalType": "address",
          "name": "tokenAddress",
          "type": "address"
        },
        {
          "internalType": "uint256",
          "name": "tokenAmount",
          "type": "uint256"
        }
      ],
      "name": "recoverERC20",
      "outputs": [],
      "stateMutability": "nonpayable",
      "type": "function"
    },
    {
      "inputs": [
        {
          "internalType": "uint256",
          "name": "amount",
          "type": "uint256"
        }
      ],
      "name": "recoverGas",
      "outputs": [],
      "stateMutability": "nonpayable",
      "type": "function"
    },
    {
      "inputs": [],
      "name": "reinvest",
      "outputs": [],
      "stateMutability": "nonpayable",
      "type": "function"
    },
    {
      "inputs": [
        {
          "internalType": "address",
          "name": "_rewardToken",
          "type": "address"
        }
      ],
      "name": "removeReward",
      "outputs": [],
      "stateMutability": "nonpayable",
      "type": "function"
    },
    {
      "inputs": [],
      "name": "renounceOwnership",
      "outputs": [],
      "stateMutability": "nonpayable",
      "type": "function"
    },
    {
      "inputs": [
        {
          "internalType": "uint256",
          "name": "_minReturnAmountAccepted",
          "type": "uint256"
        }
      ],
      "name": "rescueDeployedFunds",
      "outputs": [],
      "stateMutability": "nonpayable",
      "type": "function"
    },
    {
      "inputs": [
        {
          "internalType": "address",
          "name": "token",
          "type": "address"
        },
        {
          "internalType": "address",
          "name": "spender",
          "type": "address"
        }
      ],
      "name": "revokeAllowance",
      "outputs": [],
      "stateMutability": "nonpayable",
      "type": "function"
    },
    {
      "inputs": [],
      "name": "rewardToken",
      "outputs": [
        {
          "internalType": "contract IERC20",
          "name": "",
          "type": "address"
        }
      ],
      "stateMutability": "view",
      "type": "function"
    },
    {
      "inputs": [],
      "name": "simpleRouter",
      "outputs": [
        {
          "internalType": "contract ISimpleRouter",
          "name": "",
          "type": "address"
        }
      ],
      "stateMutability": "view",
      "type": "function"
    },
    {
      "inputs": [],
      "name": "stakingContract",
      "outputs": [
        {
          "internalType": "contract ISingleStaking",
          "name": "",
          "type": "address"
        }
      ],
      "stateMutability": "view",
      "type": "function"
    },
    {
      "inputs": [
        {
          "internalType": "uint256",
          "name": "",
          "type": "uint256"
        }
      ],
      "name": "supportedRewards",
      "outputs": [
        {
          "internalType": "address",
          "name": "",
          "type": "address"
        }
      ],
      "stateMutability": "view",
      "type": "function"
    },
    {
      "inputs": [],
      "name": "symbol",
      "outputs": [
        {
          "internalType": "string",
          "name": "",
          "type": "string"
        }
      ],
      "stateMutability": "view",
      "type": "function"
    },
    {
      "inputs": [],
      "name": "totalDeposits",
      "outputs": [
        {
          "internalType": "uint256",
          "name": "",
          "type": "uint256"
        }
      ],
      "stateMutability": "view",
      "type": "function"
    },
    {
      "inputs": [],
      "name": "totalSupply",
      "outputs": [
        {
          "internalType": "uint256",
          "name": "",
          "type": "uint256"
        }
      ],
      "stateMutability": "view",
      "type": "function"
    },
    {
      "inputs": [
        {
          "internalType": "address",
          "name": "dst",
          "type": "address"
        },
        {
          "internalType": "uint256",
          "name": "amount",
          "type": "uint256"
        }
      ],
      "name": "transfer",
      "outputs": [
        {
          "internalType": "bool",
          "name": "",
          "type": "bool"
        }
      ],
      "stateMutability": "nonpayable",
      "type": "function"
    },
    {
      "inputs": [
        {
          "internalType": "address",
          "name": "src",
          "type": "address"
        },
        {
          "internalType": "address",
          "name": "dst",
          "type": "address"
        },
        {
          "internalType": "uint256",
          "name": "amount",
          "type": "uint256"
        }
      ],
      "name": "transferFrom",
      "outputs": [
        {
          "internalType": "bool",
          "name": "",
          "type": "bool"
        }
      ],
      "stateMutability": "nonpayable",
      "type": "function"
    },
    {
      "inputs": [
        {
          "internalType": "address",
          "name": "newOwner",
          "type": "address"
        }
      ],
      "name": "transferOwnership",
      "outputs": [],
      "stateMutability": "nonpayable",
      "type": "function"
    },
    {
      "inputs": [
        {
          "internalType": "address",
          "name": "newValue",
          "type": "address"
        }
      ],
      "name": "updateDevAddr",
      "outputs": [],
      "stateMutability": "nonpayable",
      "type": "function"
    },
    {
      "inputs": [
        {
          "internalType": "uint256",
          "name": "newValue",
          "type": "uint256"
        }
      ],
      "name": "updateDevFee",
      "outputs": [],
      "stateMutability": "nonpayable",
      "type": "function"
    },
    {
      "inputs": [
        {
          "internalType": "address",
          "name": "newValue",
          "type": "address"
        }
      ],
      "name": "updateFeeCollector",
      "outputs": [],
      "stateMutability": "nonpayable",
      "type": "function"
    },
    {
      "inputs": [
        {
          "internalType": "uint256",
          "name": "newValue",
          "type": "uint256"
        }
      ],
      "name": "updateMinTokensToReinvest",
      "outputs": [],
      "stateMutability": "nonpayable",
      "type": "function"
    },
    {
      "inputs": [
        {
          "internalType": "uint256",
          "name": "newValue",
          "type": "uint256"
        }
      ],
      "name": "updateReinvestReward",
      "outputs": [],
      "stateMutability": "nonpayable",
      "type": "function"
    },
    {
      "inputs": [
        {
          "internalType": "address",
          "name": "_router",
          "type": "address"
        }
      ],
      "name": "updateRouter",
      "outputs": [],
      "stateMutability": "nonpayable",
      "type": "function"
    },
    {
      "inputs": [
        {
          "internalType": "uint256",
          "name": "_amount",
          "type": "uint256"
        }
      ],
      "name": "withdraw",
      "outputs": [],
      "stateMutability": "nonpayable",
      "type": "function"
    }
  ],
  "transactionHash": "0xe427ef03e480d251327070dc8064da4b4ce710090e9a27697854e6b640ae3bfc",
  "args": [
    "0xa7dd05a6cfc6e5238f04fd6e53d4efa859b492e4",
    {
      "gasToken": "0x82aF49447D8a07e3bd95BD0d56f35241523fBab1",
      "rewards": [
        "0x82aF49447D8a07e3bd95BD0d56f35241523fBab1"
      ],
      "simpleRouter": "0x4f543bb63d85D28b92Af2AD1f882F86805Db484C"
    },
    {
      "name": "Yield Yak: Compounding BETS v2",
      "owner": "0xDcEDF06Fd33E1D7b6eb4b309f779a0e9D3172e44",
      "dev": "0xDcEDF06Fd33E1D7b6eb4b309f779a0e9D3172e44",
      "feeCollector": "0xDcEDF06Fd33E1D7b6eb4b309f779a0e9D3172e44",
      "depositToken": "0x94025780a1aB58868D9B2dBBB775f44b32e8E6e5",
      "rewardToken": "0x82aF49447D8a07e3bd95BD0d56f35241523fBab1",
      "minTokensToReinvest": "1000",
      "devFeeBips": 700,
      "reinvestRewardBips": 300
    }
  ],
  "solcInputHash": "e53dffb7bdd34158bf1bd0bf8767b661",
  "bytecode": "0x610120604052600960e0819052685969656c642059616b60b81b6101009081526200002e9160009190620007a9565b506040805180820190915260038082526216549560ea1b60209092019182526200005b91600191620007a9565b503480156200006957600080fd5b5060405162004d8038038062004d808339810160408190526200008c9162000ac1565b600680546001600160a01b0319163390811790915560405183918391829190819060009060008051602062004d60833981519152908290a35080518051620000dd91600091602090910190620007a9565b506080808201516001600160a01b0390811690915260a0808301519091169052600780546001600160a01b0319163317905560c08101516200011f906200028e565b60e08101516200012f906200032b565b6101008101516200014090620003e7565b60608101516200015090620004a3565b6040810151620001609062000557565b6200016a6200060b565b60208101516200017a90620006ac565b5081516001600160a01b031660c0526020808301518051620001a192600d92019062000838565b506040820151600e80546001600160a01b0319166001600160a01b0390921691909117905560c0810151620002295760405162461bcd60e51b815260206004820152602360248201527f4261736553747261746567793a3a496e76616c696420636f6e6669677572617460448201526234b7b760e91b60648201526084015b60405180910390fd5b60408051600080825260208201527fc7606d21ac05cd309191543e409f0845c016120563783d70e4f41419dc0ef234910160405180910390a15050600f80546001600160a01b0319166001600160a01b0394909416939093179092555062000c6e9050565b6007546001600160a01b03163314620002ea5760405162461bcd60e51b815260206004820152601460248201527f59616b53747261746567793a3a6f6e6c79446576000000000000000000000000604482015260640162000220565b60095460408051918252602082018390527f481f79ac3a523b6d6db3c5a720e190e986d1cc1b41adcdf50f9caef849901100910160405180910390a1600955565b6007546001600160a01b03163314620003875760405162461bcd60e51b815260206004820152601460248201527f59616b53747261746567793a3a6f6e6c79446576000000000000000000000000604482015260640162000220565b612710600b54826200039a919062000c0b565b1115620003a657600080fd5b600c5460408051918252602082018390527f2a42303d002f0ba6cfe8259c91d4684443fb0b3de286ba74991175d651726131910160405180910390a1600c55565b6007546001600160a01b03163314620004435760405162461bcd60e51b815260206004820152601460248201527f59616b53747261746567793a3a6f6e6c79446576000000000000000000000000604482015260640162000220565b612710600c548262000456919062000c0b565b11156200046257600080fd5b600b5460408051918252602082018390527fe7f97d51d307dc44045597c9978bec0f842e6bb40d19b9444084cfa30d9ed4f2910160405180910390a1600b55565b6006546001600160a01b03163314620004ee5760405162461bcd60e51b8152602060048201819052602482015260008051602062004d40833981519152604482015260640162000220565b600854604080516001600160a01b03928316815291831660208301527fcc882185e6edeeb762130016ea1faf3d7aa9c01b199bfd646f965b58ab741063910160405180910390a1600880546001600160a01b0319166001600160a01b0392909216919091179055565b6006546001600160a01b03163314620005a25760405162461bcd60e51b8152602060048201819052602482015260008051602062004d40833981519152604482015260640162000220565b600754604080516001600160a01b03928316815291831660208301527fa8e91499ed37682f43cffb045fcc7d379a91e8c9a14e6321877ee34dee564c00910160405180910390a1600780546001600160a01b0319166001600160a01b0392909216919091179055565b6006546001600160a01b03163314620006565760405162461bcd60e51b8152602060048201819052602482015260008051602062004d40833981519152604482015260640162000220565b600a5460ff16156200066757600080fd5b600a805460ff191660019081179091556040519081527f7b014ed3854e7f5cb0218d58b3c6ae7d53a68bb0af2f67bfb029ea42c38a7e859060200160405180910390a1565b6006546001600160a01b03163314620006f75760405162461bcd60e51b8152602060048201819052602482015260008051602062004d40833981519152604482015260640162000220565b6001600160a01b0381166200075e5760405162461bcd60e51b815260206004820152602660248201527f4f776e61626c653a206e6577206f776e657220697320746865207a65726f206160448201526564647265737360d01b606482015260840162000220565b6006546040516001600160a01b0380841692169060008051602062004d6083398151915290600090a3600680546001600160a01b0319166001600160a01b0392909216919091179055565b828054620007b79062000c32565b90600052602060002090601f016020900481019282620007db576000855562000826565b82601f10620007f657805160ff191683800117855562000826565b8280016001018555821562000826579182015b828111156200082657825182559160200191906001019062000809565b506200083492915062000890565b5090565b82805482825590600052602060002090810192821562000826579160200282015b828111156200082657825182546001600160a01b0319166001600160a01b0390911617825560209092019160019091019062000859565b5b8082111562000834576000815560010162000891565b80516001600160a01b0381168114620008bf57600080fd5b919050565b634e487b7160e01b600052604160045260246000fd5b60405161012081016001600160401b0381118282101715620009005762000900620008c4565b60405290565b604051606081016001600160401b0381118282101715620009005762000900620008c4565b604051601f8201601f191681016001600160401b0381118282101715620009565762000956620008c4565b604052919050565b600082601f8301126200097057600080fd5b81516001600160401b038111156200098c576200098c620008c4565b6020620009a2601f8301601f191682016200092b565b8281528582848701011115620009b757600080fd5b60005b83811015620009d7578581018301518282018401528201620009ba565b83811115620009e95760008385840101525b5095945050505050565b6000610120828403121562000a0757600080fd5b62000a11620008da565b82519091506001600160401b0381111562000a2b57600080fd5b62000a39848285016200095e565b82525062000a4a60208301620008a7565b602082015262000a5d60408301620008a7565b604082015262000a7060608301620008a7565b606082015262000a8360808301620008a7565b608082015262000a9660a08301620008a7565b60a082015260c082015160c082015260e082015160e082015261010080830151818301525092915050565b60008060006060848603121562000ad757600080fd5b62000ae284620008a7565b602085810151919450906001600160401b038082111562000b0257600080fd5b908601906060828903121562000b1757600080fd5b62000b2162000906565b62000b2c83620008a7565b8152838301518281111562000b4057600080fd5b8301601f81018a1362000b5257600080fd5b80518381111562000b675762000b67620008c4565b8060051b62000b788782016200092b565b918252828101870191878101908d84111562000b9357600080fd5b938801935b8385101562000bbc5762000bac85620008a7565b8252938801939088019062000b98565b858901525062000bd39250505060408401620008a7565b604082015280955050604087015192508083111562000bf157600080fd5b505062000c0186828701620009f3565b9150509250925092565b6000821982111562000c2d57634e487b7160e01b600052601160045260246000fd5b500190565b600181811c9082168062000c4757607f821691505b60208210810362000c6857634e487b7160e01b600052602260045260246000fd5b50919050565b60805160a05160c05161400162000d3f60003960008181611a2a015281816130410152818161307001526130e50152600081816107bd0152818161198d01528181611a9201528181611bd101528181612c1701528181612c7f01528181612f8d0152818161310f015281816131cb0152818161322e0152818161330b015261335d0152600081816106aa01528181610a1f01528181610af201528181610c8901528181610d1e015281816126910152818161287d015281816132e101528181613385015261344101526140016000f3fe608060405234801561001057600080fd5b50600436106103785760003560e01c806399729ec1116101d3578063c89039c511610104578063eab89a5a116100a2578063f2fde38b1161007c578063f2fde38b14610792578063f6314d07146107a5578063f7c618c1146107b8578063fdb5a03e146107df57600080fd5b8063eab89a5a14610764578063ed24911d14610777578063ee99205c1461077f57600080fd5b8063da09c72c116100de578063da09c72c146106f2578063dd62ed3e14610705578063dd8ce4d61461073e578063e75ab0451461075157600080fd5b8063c89039c5146106a5578063d2c35ce8146106cc578063d505accf146106df57600080fd5b8063b52a321f11610171578063bd079f551161014b578063bd079f551461066e578063c415b95c14610677578063c4b24a461461068a578063c851cc321461069257600080fd5b8063b52a321f14610646578063b6b55f2514610653578063b9e57b801461066657600080fd5b8063a4d5e67c116101ad578063a4d5e67c14610605578063a8ae2b7c14610618578063a9059cbb1461062b578063ac67e1af1461063e57600080fd5b806399729ec1146105b85780639c9b2e21146105cb5780639e4e7318146105de57600080fd5b80635ea682ea116102ad5780637ecebe001161024b5780638aff733d116102255780638aff733d1461056f5780638da5cb5b146105785780639291d5631461059d57806395d89b41146105b057600080fd5b80637ecebe001461052957806381837230146105495780638980f11f1461055c57600080fd5b8063715018a611610287578063715018a6146104f35780637897e7f6146104fb5780637ae267731461050e5780637d8820971461052157600080fd5b80635ea682ea146104ae578063666d25b9146104b757806370a08231146104ca57600080fd5b8063258250da1161031a57806330adf81f116102f457806330adf81f14610452578063313ce567146104795780634a970be7146104935780635e4c57a4146104a657600080fd5b8063258250da146104225780632e1a7d4d1461042a5780632f4f21e21461043f57600080fd5b806318160ddd1161035657806318160ddd146103df57806320606b70146103e857806323b872dd1461040f578063247d284b146103be57600080fd5b806306fdde031461037d578063095ea7b31461039b57806311056035146103be575b600080fd5b6103856107e7565b60405161039291906138f0565b60405180910390f35b6103ae6103a9366004613938565b610875565b6040519015158152602001610392565b6103d16103cc366004613964565b61088b565b604051908152602001610392565b6103d160025481565b6103d17f8b73c3c69bb8fe3d512ecc4cf759cc79239f7b179b0ffacaa9a75d522b39400f81565b6103ae61041d36600461397d565b61089c565b600d546103d1565b61043d610438366004613964565b610965565b005b61043d61044d366004613938565b610a8b565b6103d17f6e71edae12b1b97f4d1f60370fef10105fa2faae0126114a169c64845d6126c981565b610481601281565b60405160ff9091168152602001610392565b61043d6104a13660046139d4565b610a99565b61043d610b67565b6103d1600c5481565b61043d6104c5366004613964565b610c17565b6103d16104d8366004613a1b565b6001600160a01b031660009081526004602052604090205490565b61043d610e98565b61043d610509366004613964565b610f3c565b61043d61051c366004613a38565b61100e565b6103d16110db565b6103d1610537366004613a1b565b60056020526000908152604090205481565b61043d610557366004613964565b61114d565b61043d61056a366004613938565b6111df565b6103d1600b5481565b6006546001600160a01b03165b6040516001600160a01b039091168152602001610392565b61043d6105ab366004613a1b565b6112a1565b610385611364565b61043d6105c6366004613964565b611371565b61043d6105d9366004613a1b565b61141f565b6103d17fc89efdaa54c0f20c7adf612882df0950f5a951637e0307cdcb4c672f298b8bc681565b61043d610613366004613a1b565b6115ba565b61043d610626366004613964565b6117bd565b6103ae610639366004613938565b61186b565b61043d611878565b600a546103ae9060ff1681565b61043d610661366004613964565b611913565b6103d1611920565b6103d160095481565b600854610585906001600160a01b031681565b6103d161195f565b61043d6106a0366004613a1b565b611cb4565b6105857f000000000000000000000000000000000000000000000000000000000000000081565b61043d6106da366004613a1b565b611d6e565b61043d6106ed366004613a71565b611e31565b600754610585906001600160a01b031681565b6103d1610713366004613a38565b6001600160a01b03918216600090815260036020908152604080832093909416825291909152205490565b6103d161074c366004613964565b611f44565b61058561075f366004613964565b611f8a565b6103d1610772366004613964565b611fb4565b6103d1611fea565b600f54610585906001600160a01b031681565b61043d6107a0366004613a1b565b61208a565b600e54610585906001600160a01b031681565b6105857f000000000000000000000000000000000000000000000000000000000000000081565b61043d6121bc565b600080546107f490613adf565b80601f016020809104026020016040519081016040528092919081815260200182805461082090613adf565b801561086d5780601f106108425761010080835404028352916020019161086d565b820191906000526020600020905b81548152906001019060200180831161085057829003601f168201915b505050505081565b6000610882338484612217565b50600192915050565b600061089682612325565b92915050565b6001600160a01b0383166000818152600360209081526040808320338085529252822054919290919082148015906108d657506000198114155b1561094c5760006108e78583613b29565b6001600160a01b038881166000818152600360209081526040808320948916808452948252918290208590559051848152939450919290917f8c5be1e5ebec7d5bd14f71427d1e84f3dd0314c0f7b2291e5b200ac8c7c3b925910160405180910390a3505b61095786868661233f565b6001925050505b9392505050565b600061097082611fb4565b9050600081116109ed5760405162461bcd60e51b815260206004820152602560248201527f4261736553747261746567793a3a576974686472617720616d6f756e7420746f60448201527f6f206c6f7700000000000000000000000000000000000000000000000000000060648201526084015b60405180910390fd5b60006109f882612463565b90506000610a0583612325565b9050610a4633610a158385613b29565b6001600160a01b037f00000000000000000000000000000000000000000000000000000000000000001691906124e1565b610a503385612561565b60405183815233907f884edad9ce6fa2440d8a54cc123490eb96d2768479d49ff9c7366125a94243649060200160405180910390a250505050565b610a9582826125f5565b5050565b6040517fd505accf000000000000000000000000000000000000000000000000000000008152336004820152306024820152604481018690526064810185905260ff8416608482015260a4810183905260c481018290527f00000000000000000000000000000000000000000000000000000000000000006001600160a01b03169063d505accf9060e401600060405180830381600087803b158015610b3e57600080fd5b505af1158015610b52573d6000803e3d6000fd5b50505050610b6033866125f5565b5050505050565b6006546001600160a01b03163314610bc15760405162461bcd60e51b815260206004820181905260248201527f4f776e61626c653a2063616c6c6572206973206e6f7420746865206f776e657260448201526064016109e4565b600a5460ff1615610bd157600080fd5b600a805460ff191660019081179091556040519081527f7b014ed3854e7f5cb0218d58b3c6ae7d53a68bb0af2f67bfb029ea42c38a7e85906020015b60405180910390a1565b6006546001600160a01b03163314610c715760405162461bcd60e51b815260206004820181905260248201527f4f776e61626c653a2063616c6c6572206973206e6f7420746865206f776e657260448201526064016109e4565b6040516370a0823160e01b81523060048201526000907f00000000000000000000000000000000000000000000000000000000000000006001600160a01b0316906370a0823190602401602060405180830381865afa158015610cd8573d6000803e3d6000fd5b505050506040513d601f19601f82011682018060405250810190610cfc9190613b40565b9050610d066127ed565b6040516370a0823160e01b81523060048201526000907f00000000000000000000000000000000000000000000000000000000000000006001600160a01b0316906370a0823190602401602060405180830381865afa158015610d6d573d6000803e3d6000fd5b505050506040513d601f19601f82011682018060405250810190610d919190613b40565b905082610d9e8383613b29565b1015610e385760405162461bcd60e51b815260206004820152604260248201527f4261736553747261746567793a3a456d657267656e637920776974686472617760448201527f206d696e696d756d2072657475726e20616d6f756e74206e6f7420726561636860648201527f6564000000000000000000000000000000000000000000000000000000000000608482015260a4016109e4565b7fc7606d21ac05cd309191543e409f0845c016120563783d70e4f41419dc0ef234610e616110db565b6002546040805192835260208301919091520160405180910390a1600a5460ff161515600103610e9357610e93611878565b505050565b6006546001600160a01b03163314610ef25760405162461bcd60e51b815260206004820181905260248201527f4f776e61626c653a2063616c6c6572206973206e6f7420746865206f776e657260448201526064016109e4565b6006546040516000916001600160a01b0316907f8be0079c531659141344cd1fd0a4f28419497f9722a3daafe3b4186f6b6457e0908390a3600680546001600160a01b0319169055565b6006546001600160a01b03163314610f965760405162461bcd60e51b815260206004820181905260248201527f4f776e61626c653a2063616c6c6572206973206e6f7420746865206f776e657260448201526064016109e4565b60008111610fa357600080fd5b604051339082156108fc029083906000818181858888f19350505050158015610fd0573d6000803e3d6000fd5b506040805160008152602081018390527f8c1256b8896378cd5044f80c202f9772b9d77dc85c8a6eb51967210b09bfaa28910160405180910390a150565b6007546001600160a01b0316331461105f5760405162461bcd60e51b81526020600482015260146024820152732cb0b5a9ba3930ba32b3bc9d1d37b7363ca232bb60611b60448201526064016109e4565b60405163095ea7b360e01b81526001600160a01b0382811660048301526000602483015283169063095ea7b3906044016020604051808303816000875af11580156110ae573d6000803e3d6000fd5b505050506040513d601f19601f820116820180604052508101906110d29190613b59565b610a9557600080fd5b600f546040516370a0823160e01b81523060048201526000916001600160a01b0316906370a0823190602401602060405180830381865afa158015611124573d6000803e3d6000fd5b505050506040513d601f19601f820116820180604052508101906111489190613b40565b905090565b6007546001600160a01b0316331461119e5760405162461bcd60e51b81526020600482015260146024820152732cb0b5a9ba3930ba32b3bc9d1d37b7363ca232bb60611b60448201526064016109e4565b60095460408051918252602082018390527f481f79ac3a523b6d6db3c5a720e190e986d1cc1b41adcdf50f9caef849901100910160405180910390a1600955565b6006546001600160a01b031633146112395760405162461bcd60e51b815260206004820181905260248201527f4f776e61626c653a2063616c6c6572206973206e6f7420746865206f776e657260448201526064016109e4565b6000811161124657600080fd5b61125a6001600160a01b03831633836124e1565b604080516001600160a01b0384168152602081018390527f8c1256b8896378cd5044f80c202f9772b9d77dc85c8a6eb51967210b09bfaa2891015b60405180910390a15050565b6006546001600160a01b031633146112fb5760405162461bcd60e51b815260206004820181905260248201527f4f776e61626c653a2063616c6c6572206973206e6f7420746865206f776e657260448201526064016109e4565b600754604080516001600160a01b03928316815291831660208301527fa8e91499ed37682f43cffb045fcc7d379a91e8c9a14e6321877ee34dee564c00910160405180910390a1600780546001600160a01b0319166001600160a01b0392909216919091179055565b600180546107f490613adf565b6007546001600160a01b031633146113c25760405162461bcd60e51b81526020600482015260146024820152732cb0b5a9ba3930ba32b3bc9d1d37b7363ca232bb60611b60448201526064016109e4565b612710600b54826113d39190613b7b565b11156113de57600080fd5b600c5460408051918252602082018390527f2a42303d002f0ba6cfe8259c91d4684443fb0b3de286ba74991175d651726131910160405180910390a1600c55565b6007546001600160a01b031633146114705760405162461bcd60e51b81526020600482015260146024820152732cb0b5a9ba3930ba32b3bc9d1d37b7363ca232bb60611b60448201526064016109e4565b6000805b600d548110156114c757600d818154811061149157611491613b93565b6000918252602090912001546001600160a01b03908116908416036114b557600191505b806114bf81613ba9565b915050611474565b50801561153c5760405162461bcd60e51b815260206004820152602860248201527f4261736553747261746567793a3a52657761726420616c726561647920636f6e60448201527f666967757265642100000000000000000000000000000000000000000000000060648201526084016109e4565b600d80546001810182556000919091527fd7b6990105719101dabeb77144f2a3385c8033acd3af97e9423a695e81ad1eb50180546001600160a01b0319166001600160a01b0384169081179091556040519081527f1714865bf5baa84e3439536a013c87cfe030b4cd69f344a5f2a4877de3d517ce90602001611295565b6007546001600160a01b0316331461160b5760405162461bcd60e51b81526020600482015260146024820152732cb0b5a9ba3930ba32b3bc9d1d37b7363ca232bb60611b60448201526064016109e4565b6000805b600d548110156116db57600d818154811061162c5761162c613b93565b6000918252602090912001546001600160a01b03908116908416036116c957600d80546001935061165e908490613b29565b8154811061166e5761166e613b93565b600091825260209091200154600d80546001600160a01b03909216918390811061169a5761169a613b93565b9060005260206000200160006101000a8154816001600160a01b0302191690836001600160a01b031602179055505b806116d381613ba9565b91505061160f565b508061174e5760405162461bcd60e51b8152602060048201526024808201527f4261736553747261746567793a3a526577617264206e6f7420636f6e6669677560448201527f726564210000000000000000000000000000000000000000000000000000000060648201526084016109e4565b600d80548061175f5761175f613bc2565b6000828152602090819020600019908301810180546001600160a01b03191690559091019091556040516001600160a01b03841681527f963b7c735475147a62c589c2d7cb8ec4b0a6b7af4f97373d79ebfa42ab8aa7dc9101611295565b6007546001600160a01b0316331461180e5760405162461bcd60e51b81526020600482015260146024820152732cb0b5a9ba3930ba32b3bc9d1d37b7363ca232bb60611b60448201526064016109e4565b612710600c548261181f9190613b7b565b111561182a57600080fd5b600b5460408051918252602082018390527fe7f97d51d307dc44045597c9978bec0f842e6bb40d19b9444084cfa30d9ed4f2910160405180910390a1600b55565b600061088233848461233f565b6007546001600160a01b031633146118c95760405162461bcd60e51b81526020600482015260146024820152732cb0b5a9ba3930ba32b3bc9d1d37b7363ca232bb60611b60448201526064016109e4565b600a5460ff166118d857600080fd5b600a805460ff19169055604051600081527f7b014ed3854e7f5cb0218d58b3c6ae7d53a68bb0af2f67bfb029ea42c38a7e8590602001610c0d565b61191d33826125f5565b50565b60008061192b61195f565b9050600954811061195757612710600b54826119479190613bd8565b6119519190613bf7565b91505090565b600091505090565b60008061196a6128ee565b6040516370a0823160e01b81523060048201529091506000906001600160a01b037f000000000000000000000000000000000000000000000000000000000000000016906370a0823190602401602060405180830381865afa1580156119d4573d6000803e3d6000fd5b505050506040513d601f19601f820116820180604052508101906119f89190613b40565b905060005b8251811015611cad576000838281518110611a1a57611a1a613b93565b60200260200101516000015190507f00000000000000000000000000000000000000000000000000000000000000006001600160a01b0316816001600160a01b031603611a905747848381518110611a7457611a74613b93565b6020026020010151602001818151611a8c9190613b7b565b9052505b7f00000000000000000000000000000000000000000000000000000000000000006001600160a01b0316816001600160a01b031603611af957838281518110611adb57611adb613b93565b60200260200101516020015183611af29190613b7b565b9250611c9a565b6001600160a01b03811615611c9a576040516370a0823160e01b81523060048201526000906001600160a01b038316906370a0823190602401602060405180830381865afa158015611b4f573d6000803e3d6000fd5b505050506040513d601f19601f82011682018060405250810190611b739190613b40565b90506000858481518110611b8957611b89613b93565b60200260200101516020015182611ba09190613b7b565b90508015611c9757600e546040516377ccc49d60e11b8152600481018390526001600160a01b0385811660248301527f000000000000000000000000000000000000000000000000000000000000000081166044830152600092169063ef99893a90606401600060405180830381865afa158015611c22573d6000803e3d6000fd5b505050506040513d6000823e601f3d908101601f19168201604052611c4a9190810190613d21565b9050600181600001515111611c60576000611c89565b80518051611c7090600190613b29565b81518110611c8057611c80613b93565b60200260200101515b611c939087613b7b565b9550505b50505b5080611ca581613ba9565b9150506119fd565b5092915050565b6007546001600160a01b03163314611d055760405162461bcd60e51b81526020600482015260146024820152732cb0b5a9ba3930ba32b3bc9d1d37b7363ca232bb60611b60448201526064016109e4565b600e54604080516001600160a01b03928316815291831660208301527f2c6fb4d5ff9fad6ecf2e09cd64cbc9aad92a8b9d2cc0e5c3ddef9b529b0b5ffd910160405180910390a1600e80546001600160a01b0319166001600160a01b0392909216919091179055565b6006546001600160a01b03163314611dc85760405162461bcd60e51b815260206004820181905260248201527f4f776e61626c653a2063616c6c6572206973206e6f7420746865206f776e657260448201526064016109e4565b600854604080516001600160a01b03928316815291831660208301527fcc882185e6edeeb762130016ea1faf3d7aa9c01b199bfd646f965b58ab741063910160405180910390a1600880546001600160a01b0319166001600160a01b0392909216919091179055565b42841015611e815760405162461bcd60e51b815260206004820152600f60248201527f7065726d69743a3a65787069726564000000000000000000000000000000000060448201526064016109e4565b6001600160a01b038716600090815260056020526040812080547f6e71edae12b1b97f4d1f60370fef10105fa2faae0126114a169c64845d6126c9918a918a918a919086611ece83613ba9565b909155506040805160208101969096526001600160a01b0394851690860152929091166060840152608083015260a082015260c0810186905260e001604051602081830303815290604052805190602001209050611f2f8882868686612a6b565b611f3a888888612217565b5050505050505050565b600080611f4f6110db565b600254909150801580611f60575081155b15611f6d57509192915050565b81611f788286613bd8565b611f829190613bf7565b949350505050565b600d8181548110611f9a57600080fd5b6000918252602090912001546001600160a01b0316905081565b600080611fbf6110db565b600254909150801580611fd0575081155b15611fdf575060009392505050565b80611f788386613bd8565b60007f8b73c3c69bb8fe3d512ecc4cf759cc79239f7b179b0ffacaa9a75d522b39400f60001b600060405161201f9190613e36565b6040519081900390207fc89efdaa54c0f20c7adf612882df0950f5a951637e0307cdcb4c672f298b8bc646604080516020810195909552840192909252606083015260808201523060a082015260c00160405160208183030381529060405280519060200120905090565b6006546001600160a01b031633146120e45760405162461bcd60e51b815260206004820181905260248201527f4f776e61626c653a2063616c6c6572206973206e6f7420746865206f776e657260448201526064016109e4565b6001600160a01b0381166121605760405162461bcd60e51b815260206004820152602660248201527f4f776e61626c653a206e6577206f776e657220697320746865207a65726f206160448201527f646472657373000000000000000000000000000000000000000000000000000060648201526084016109e4565b6006546040516001600160a01b038084169216907f8be0079c531659141344cd1fd0a4f28419497f9722a3daafe3b4186f6b6457e090600090a3600680546001600160a01b0319166001600160a01b0392909216919091179055565b32331461220b5760405162461bcd60e51b815260206004820152601460248201527f59616b53747261746567793a3a6f6e6c79454f4100000000000000000000000060448201526064016109e4565b6122156000612bcb565b565b6001600160a01b03831661226d5760405162461bcd60e51b815260206004820152601c60248201527f5f617070726f76653a3a6f776e6572207a65726f20616464726573730000000060448201526064016109e4565b6001600160a01b0382166122c35760405162461bcd60e51b815260206004820152601e60248201527f5f617070726f76653a3a7370656e646572207a65726f2061646472657373000060448201526064016109e4565b6001600160a01b0383811660008181526003602090815260408083209487168084529482529182902085905590518481527f8c5be1e5ebec7d5bd14f71427d1e84f3dd0314c0f7b2291e5b200ac8c7c3b92591015b60405180910390a3505050565b6000806127106123358285613bd8565b61095e9190613bf7565b6001600160a01b0382166123bb5760405162461bcd60e51b815260206004820152603460248201527f5f7472616e73666572546f6b656e733a2063616e6e6f74207472616e7366657260448201527f20746f20746865207a65726f206164647265737300000000000000000000000060648201526084016109e4565b6001600160a01b0383166000908152600460205260409020546123df908290613b29565b6001600160a01b03808516600090815260046020526040808220939093559084168152205461240f908290613b7b565b6001600160a01b0380841660008181526004602052604090819020939093559151908516907fddf252ad1be2c89b69c2b068fc378daa952ba7f163c4a11628f55a4df523b3ef906123189085815260200190565b600f546040517f2e1a7d4d000000000000000000000000000000000000000000000000000000008152600481018390526000916001600160a01b031690632e1a7d4d90602401600060405180830381600087803b1580156124c357600080fd5b505af11580156124d7573d6000803e3d6000fd5b5093949350505050565b604080516001600160a01b038416602482015260448082018490528251808303909101815260649091019091526020810180517bffffffffffffffffffffffffffffffffffffffffffffffffffffffff167fa9059cbb00000000000000000000000000000000000000000000000000000000179052610e93908490612d30565b6001600160a01b038216600090815260046020526040902054612585908290613b29565b6001600160a01b0383166000908152600460205260409020556002546125ac908290613b29565b6002556040518181526000906001600160a01b038416907fddf252ad1be2c89b69c2b068fc378daa952ba7f163c4a11628f55a4df523b3ef906020015b60405180910390a35050565b600a5460ff16151560011461264c5760405162461bcd60e51b815260206004820152601f60248201527f4261736553747261746567793a3a4465706f736974732064697361626c65640060448201526064016109e4565b6126566001612bcb565b6040517f23b872dd000000000000000000000000000000000000000000000000000000008152336004820152306024820152604481018290527f00000000000000000000000000000000000000000000000000000000000000006001600160a01b0316906323b872dd906064016020604051808303816000875af11580156126e2573d6000803e3d6000fd5b505050506040513d601f19601f820116820180604052508101906127069190613b59565b6127785760405162461bcd60e51b815260206004820152602b60248201527f4261736553747261746567793a3a4465706f73697420746f6b656e207472616e60448201527f73666572206661696c656400000000000000000000000000000000000000000060648201526084016109e4565b600061278382612325565b905061279b8361279661074c8486613b29565b612e15565b6127a58282612eeb565b826001600160a01b03167fe1fffcc4923d04b559f4d29a8bfc6cda04eb5b0d3c460751c2402c5c5cc9109c836040516127e091815260200190565b60405180910390a2505050565b600f546001600160a01b0316632e1a7d4d6128066110db565b6040518263ffffffff1660e01b815260040161282491815260200190565b600060405180830381600087803b15801561283e57600080fd5b505af1158015612852573d6000803e3d6000fd5b5050600f5460405163095ea7b360e01b81526001600160a01b039182166004820152600060248201527f0000000000000000000000000000000000000000000000000000000000000000909116925063095ea7b391506044016020604051808303816000875af11580156128ca573d6000803e3d6000fd5b505050506040513d601f19601f8201168201806040525081019061191d9190613b59565b600d5460609060009067ffffffffffffffff81111561290f5761290f613c19565b60405190808252806020026020018201604052801561295457816020015b604080518082019091526000808252602082015281526020019060019003908161292d5790505b50905060005b8151811015612a65576000600d828154811061297857612978613b93565b6000918252602082200154600f546040517f211dc32d0000000000000000000000000000000000000000000000000000000081523060048201526001600160a01b0392831660248201819052945091169063211dc32d90604401602060405180830381865afa1580156129ef573d6000803e3d6000fd5b505050506040513d601f19601f82011682018060405250810190612a139190613b40565b90506040518060400160405280836001600160a01b0316815260200182815250848481518110612a4557612a45613b93565b602002602001018190525050508080612a5d90613ba9565b91505061295a565b50919050565b6000612a75611fea565b6040517f1901000000000000000000000000000000000000000000000000000000000000602082015260228101919091526042810186905260620160408051601f198184030181528282528051602091820120600080855291840180845281905260ff88169284019290925260608301869052608083018590529092509060019060a0016020604051602081039080840390855afa158015612b1b573d6000803e3d6000fd5b5050604051601f1901519150506001600160a01b03811615801590612b515750866001600160a01b0316816001600160a01b0316145b612bc25760405162461bcd60e51b8152602060048201526024808201527f417263683a3a76616c69646174655369673a20696e76616c6964207369676e6160448201527f747572650000000000000000000000000000000000000000000000000000000060648201526084016109e4565b50505050505050565b6000612bd5612f6b565b9050600954811115610a95576000612710600c5483612bf49190613bd8565b612bfe9190613bf7565b90508015612c4057600854612c40906001600160a01b037f000000000000000000000000000000000000000000000000000000000000000081169116836124e1565b600083612c6757612710600b5484612c589190613bd8565b612c629190613bf7565b612c6a565b60005b90508015612ca657612ca66001600160a01b037f00000000000000000000000000000000000000000000000000000000000000001633836124e1565b6000612cc582612cb68587613b29565b612cc09190613b29565b6132dd565b90508015610b60576000612cd882612325565b9050612ce48282612eeb565b7fc7606d21ac05cd309191543e409f0845c016120563783d70e4f41419dc0ef234612d0d6110db565b6002546040805192835260208301919091520160405180910390a1505050505050565b6000612d85826040518060400160405280602081526020017f5361666545524332303a206c6f772d6c6576656c2063616c6c206661696c6564815250856001600160a01b03166134099092919063ffffffff16565b805190915015610e935780806020019051810190612da39190613b59565b610e935760405162461bcd60e51b815260206004820152602a60248201527f5361666545524332303a204552433230206f7065726174696f6e20646964206e60448201527f6f7420737563636565640000000000000000000000000000000000000000000060648201526084016109e4565b60008111612e655760405162461bcd60e51b815260206004820152601260248201527f5f6d696e743a3a7a65726f20736861726573000000000000000000000000000060448201526064016109e4565b80600254612e739190613b7b565b6002556001600160a01b038216600090815260046020526040902054612e9a908290613b7b565b6001600160a01b0383166000818152600460205260408082209390935591519091907fddf252ad1be2c89b69c2b068fc378daa952ba7f163c4a11628f55a4df523b3ef906125e99085815260200190565b60008211612f615760405162461bcd60e51b815260206004820152602260248201527f4261736553747261746567793a3a5374616b6520616d6f756e7420746f6f206c60448201527f6f7700000000000000000000000000000000000000000000000000000000000060648201526084016109e4565b610a958282613418565b6000612f7561352c565b6040516370a0823160e01b81523060048201526000907f00000000000000000000000000000000000000000000000000000000000000006001600160a01b0316906370a0823190602401602060405180830381865afa158015612fdc573d6000803e3d6000fd5b505050506040513d601f19601f820116820180604052508101906130009190613b40565b600d5490915060005b818110156132d5576000600d828154811061302657613026613b93565b6000918252602090912001546001600160a01b0390811691507f0000000000000000000000000000000000000000000000000000000000000000168103613151574780156130e3577f00000000000000000000000000000000000000000000000000000000000000006001600160a01b031663d0e30db0826040518263ffffffff1660e01b81526004016000604051808303818588803b1580156130c957600080fd5b505af11580156130dd573d6000803e3d6000fd5b50505050505b7f00000000000000000000000000000000000000000000000000000000000000006001600160a01b03167f00000000000000000000000000000000000000000000000000000000000000006001600160a01b03160361314f576131468186613b7b565b945050506132c3565b505b6040516370a0823160e01b81523060048201526000906001600160a01b038316906370a0823190602401602060405180830381865afa158015613198573d6000803e3d6000fd5b505050506040513d601f19601f820116820180604052508101906131bc9190613b40565b905060008111801561320057507f00000000000000000000000000000000000000000000000000000000000000006001600160a01b0316826001600160a01b031614155b156132c057600e546040516377ccc49d60e11b8152600481018390526001600160a01b0384811660248301527f000000000000000000000000000000000000000000000000000000000000000081166044830152600092169063ef99893a90606401600060405180830381865afa15801561327f573d6000803e3d6000fd5b505050506040513d6000823e601f3d908101601f191682016040526132a79190810190613d21565b90506132b281613596565b6132bc9087613b7b565b9550505b50505b806132cd81613ba9565b915050613009565b509092915050565b60007f00000000000000000000000000000000000000000000000000000000000000006001600160a01b03167f00000000000000000000000000000000000000000000000000000000000000006001600160a01b03160361333c575090565b600e546040516377ccc49d60e11b8152600481018490526001600160a01b037f0000000000000000000000000000000000000000000000000000000000000000811660248301527f000000000000000000000000000000000000000000000000000000000000000081166044830152600092169063ef99893a90606401600060405180830381865afa1580156133d6573d6000803e3d6000fd5b505050506040513d6000823e601f3d908101601f191682016040526133fe9190810190613d21565b905061095e81613596565b6060611f828484600085613743565b600f5460405163095ea7b360e01b81526001600160a01b039182166004820152602481018490527f00000000000000000000000000000000000000000000000000000000000000009091169063095ea7b3906044016020604051808303816000875af115801561348c573d6000803e3d6000fd5b505050506040513d601f19601f820116820180604052508101906134b09190613b59565b50600f546040517fa694fc3a000000000000000000000000000000000000000000000000000000008152600481018490526001600160a01b039091169063a694fc3a90602401600060405180830381600087803b15801561351057600080fd5b505af1158015613524573d6000803e3d6000fd5b505050505050565b600f60009054906101000a90046001600160a01b03166001600160a01b0316633d18b9126040518163ffffffff1660e01b8152600401600060405180830381600087803b15801561357c57600080fd5b505af1158015613590573d6000803e3d6000fd5b50505050565b805151600090158015906135d3575081518051600091906135b990600190613b29565b815181106135c9576135c9613b93565b6020026020010151115b1561373b5781604001516000815181106135ef576135ef613b93565b60200260200101516001600160a01b031663095ea7b3600e60009054906101000a90046001600160a01b0316846000015160008151811061363257613632613b93565b60200260200101516040518363ffffffff1660e01b815260040161366b9291906001600160a01b03929092168252602082015260400190565b6020604051808303816000875af115801561368a573d6000803e3d6000fd5b505050506040513d601f19601f820116820180604052508101906136ae9190613b59565b50600e546040517f5b2466160000000000000000000000000000000000000000000000000000000081526001600160a01b0390911690635b246616906136f8908590600401613f15565b6020604051808303816000875af1158015613717573d6000803e3d6000fd5b505050506040513d601f19601f820116820180604052508101906108969190613b40565b506000919050565b6060824710156137bb5760405162461bcd60e51b815260206004820152602660248201527f416464726573733a20696e73756666696369656e742062616c616e636520666f60448201527f722063616c6c000000000000000000000000000000000000000000000000000060648201526084016109e4565b6001600160a01b0385163b6138125760405162461bcd60e51b815260206004820152601d60248201527f416464726573733a2063616c6c20746f206e6f6e2d636f6e747261637400000060448201526064016109e4565b600080866001600160a01b0316858760405161382e9190613faf565b60006040518083038185875af1925050503d806000811461386b576040519150601f19603f3d011682016040523d82523d6000602084013e613870565b606091505b509150915061388082828661388b565b979650505050505050565b6060831561389a57508161095e565b8251156138aa5782518084602001fd5b8160405162461bcd60e51b81526004016109e491906138f0565b60005b838110156138df5781810151838201526020016138c7565b838111156135905750506000910152565b602081526000825180602084015261390f8160408501602087016138c4565b601f01601f19169190910160400192915050565b6001600160a01b038116811461191d57600080fd5b6000806040838503121561394b57600080fd5b823561395681613923565b946020939093013593505050565b60006020828403121561397657600080fd5b5035919050565b60008060006060848603121561399257600080fd5b833561399d81613923565b925060208401356139ad81613923565b929592945050506040919091013590565b803560ff811681146139cf57600080fd5b919050565b600080600080600060a086880312156139ec57600080fd5b8535945060208601359350613a03604087016139be565b94979396509394606081013594506080013592915050565b600060208284031215613a2d57600080fd5b813561095e81613923565b60008060408385031215613a4b57600080fd5b8235613a5681613923565b91506020830135613a6681613923565b809150509250929050565b600080600080600080600060e0888a031215613a8c57600080fd5b8735613a9781613923565b96506020880135613aa781613923565b95506040880135945060608801359350613ac3608089016139be565b925060a0880135915060c0880135905092959891949750929550565b600181811c90821680613af357607f821691505b602082108103612a6557634e487b7160e01b600052602260045260246000fd5b634e487b7160e01b600052601160045260246000fd5b600082821015613b3b57613b3b613b13565b500390565b600060208284031215613b5257600080fd5b5051919050565b600060208284031215613b6b57600080fd5b8151801515811461095e57600080fd5b60008219821115613b8e57613b8e613b13565b500190565b634e487b7160e01b600052603260045260246000fd5b600060018201613bbb57613bbb613b13565b5060010190565b634e487b7160e01b600052603160045260246000fd5b6000816000190483118215151615613bf257613bf2613b13565b500290565b600082613c1457634e487b7160e01b600052601260045260246000fd5b500490565b634e487b7160e01b600052604160045260246000fd5b6040516080810167ffffffffffffffff81118282101715613c5257613c52613c19565b60405290565b604051601f8201601f1916810167ffffffffffffffff81118282101715613c8157613c81613c19565b604052919050565b600067ffffffffffffffff821115613ca357613ca3613c19565b5060051b60200190565b600082601f830112613cbe57600080fd5b81516020613cd3613cce83613c89565b613c58565b82815260059290921b84018101918181019086841115613cf257600080fd5b8286015b84811015613d16578051613d0981613923565b8352918301918301613cf6565b509695505050505050565b60006020808385031215613d3457600080fd5b825167ffffffffffffffff80821115613d4c57600080fd5b9084019060808287031215613d6057600080fd5b613d68613c2f565b825182811115613d7757600080fd5b8301601f81018813613d8857600080fd5b8051613d96613cce82613c89565b81815260059190911b8201860190868101908a831115613db557600080fd5b928701925b82841015613dd357835182529287019290870190613dba565b84525050508284015182811115613de957600080fd5b613df588828601613cad565b85830152506040830151935081841115613e0e57600080fd5b613e1a87858501613cad565b6040820152606083015160608201528094505050505092915050565b600080835481600182811c915080831680613e5257607f831692505b60208084108203613e7157634e487b7160e01b86526022600452602486fd5b818015613e855760018114613e9657613ec3565b60ff19861689528489019650613ec3565b60008a81526020902060005b86811015613ebb5781548b820152908501908301613ea2565b505084890196505b509498975050505050505050565b600081518084526020808501945080840160005b83811015613f0a5781516001600160a01b031687529582019590820190600101613ee5565b509495945050505050565b60208082528251608083830152805160a0840181905260009291820190839060c08601905b80831015613f5a5783518252928401926001929092019190840190613f3a565b50838701519350601f19925082868203016040870152613f7a8185613ed1565b93505050604085015181858403016060860152613f978382613ed1565b92505050606084015160808401528091505092915050565b60008251613fc18184602087016138c4565b919091019291505056fea264697066735822122016a1d507fdec880ad22fc1b1ae72750611ee64645782ab6109e6ec805580299664736f6c634300080d00334f776e61626c653a2063616c6c6572206973206e6f7420746865206f776e65728be0079c531659141344cd1fd0a4f28419497f9722a3daafe3b4186f6b6457e0",
  "devdoc": {
    "kind": "dev",
    "methods": {
      "allowance(address,address)": {
        "params": {
          "account": "The address of the account holding the funds",
          "spender": "The address of the account spending the funds"
        },
        "returns": {
          "_0": "The number of tokens approved"
        }
      },
      "approve(address,uint256)": {
        "details": "This will overwrite the approval amount for `spender` and is subject to issues noted [here](https://eips.ethereum.org/EIPS/eip-20#approve) It is recommended to use increaseAllowance and decreaseAllowance instead",
        "params": {
          "amount": "The number of tokens that are approved (2^256-1 means infinite)",
          "spender": "The address of the account which may transfer tokens"
        },
        "returns": {
          "_0": "Whether or not the approval succeeded"
        }
      },
      "balanceOf(address)": {
        "params": {
          "account": "The address of the account to get the balance of"
        },
        "returns": {
          "_0": "The number of tokens held"
        }
      },
      "checkReward()": {
        "returns": {
          "_0": "reward tokens"
        }
      },
      "deposit(uint256)": {
        "params": {
          "_amount": "Amount of tokens to deposit"
        }
      },
      "depositWithPermit(uint256,uint256,uint8,bytes32,bytes32)": {
        "params": {
          "_amount": "Amount of tokens to deposit",
          "_deadline": "The time at which to expire the signature",
          "_r": "Half of the ECDSA signature pair",
          "_s": "Half of the ECDSA signature pair",
          "_v": "The recovery byte of the signature"
        }
      },
      "estimateReinvestReward()": {
        "returns": {
          "_0": "reward tokens"
        }
      },
      "getDepositTokensForShares(uint256)": {
        "params": {
          "amount": "receipt tokens"
        },
        "returns": {
          "_0": "deposit tokens"
        }
      },
      "getDomainSeparator()": {
        "returns": {
          "_0": "Separator"
        }
      },
      "getSharesForDepositTokens(uint256)": {
        "details": "If contract is empty, use 1:1 ratioCould return zero shares for very low amounts of deposit tokens",
        "params": {
          "amount": "deposit tokens"
        },
        "returns": {
          "_0": "receipt tokens"
        }
      },
      "owner()": {
        "details": "Returns the address of the current owner."
      },
      "permit(address,address,uint256,uint256,uint8,bytes32,bytes32)": {
        "params": {
          "deadline": "The time at which to expire the signature",
          "owner": "The address to approve from",
          "r": "Half of the ECDSA signature pair",
          "s": "Half of the ECDSA signature pair",
          "spender": "The address to be approved",
          "v": "The recovery byte of the signature",
          "value": "The number of tokens that are approved (2^256-1 means infinite)"
        }
      },
      "recoverERC20(address,uint256)": {
        "params": {
          "tokenAddress": "token address",
          "tokenAmount": "amount to recover"
        }
      },
      "recoverGas(uint256)": {
        "params": {
          "amount": "amount"
        }
      },
      "renounceOwnership()": {
        "details": "Leaves the contract without owner. It will not be possible to call `onlyOwner` functions anymore. Can only be called by the current owner. NOTE: Renouncing ownership will leave the contract without an owner, thereby removing any functionality that is only available to the owner."
      },
      "revokeAllowance(address,address)": {
        "params": {
          "spender": "address",
          "token": "address"
        }
      },
      "totalDeposits()": {
        "returns": {
          "_0": "total deposits available on the contract"
        }
      },
      "transfer(address,uint256)": {
        "params": {
          "amount": "The number of tokens to transfer",
          "dst": "The address of the destination account"
        },
        "returns": {
          "_0": "Whether or not the transfer succeeded"
        }
      },
      "transferFrom(address,address,uint256)": {
        "params": {
          "amount": "The number of tokens to transfer",
          "dst": "The address of the destination account",
          "src": "The address of the source account"
        },
        "returns": {
          "_0": "Whether or not the transfer succeeded"
        }
      },
      "transferOwnership(address)": {
        "details": "Transfers ownership of the contract to a new account (`newOwner`). Can only be called by the current owner."
      },
      "updateDevAddr(address)": {
        "params": {
          "newValue": "address"
        }
      },
      "updateDevFee(uint256)": {
        "params": {
          "newValue": "fee in BIPS"
        }
      },
      "updateFeeCollector(address)": {
        "params": {
          "newValue": "address"
        }
      },
      "updateMinTokensToReinvest(uint256)": {
        "params": {
          "newValue": "threshold"
        }
      },
      "updateReinvestReward(uint256)": {
        "params": {
          "newValue": "fee in BIPS"
        }
      }
    },
    "version": 1
  },
  "userdoc": {
    "kind": "user",
    "methods": {
      "allowance(address,address)": {
        "notice": "Get the number of tokens `spender` is approved to spend on behalf of `account`"
      },
      "approve(address,uint256)": {
        "notice": "Approve `spender` to transfer up to `amount` from `src`"
      },
      "balanceOf(address)": {
        "notice": "Get the number of tokens held by the `account`"
      },
      "checkReward()": {
        "notice": "Reward tokens available to strategy, including balance"
      },
      "deposit(uint256)": {
        "notice": "Deposit tokens to receive receipt tokens"
      },
      "depositWithPermit(uint256,uint256,uint8,bytes32,bytes32)": {
        "notice": "Deposit using Permit"
      },
      "disableDeposits()": {
        "notice": "Disable deposits"
      },
      "enableDeposits()": {
        "notice": "Enable deposits"
      },
      "estimateReinvestReward()": {
        "notice": "Estimate reinvest reward"
      },
      "getDepositTokensForShares(uint256)": {
        "notice": "Calculate deposit tokens for a given amount of receipt tokens"
      },
      "getDomainSeparator()": {
        "notice": "EIP-712 Domain separator"
      },
      "getSharesForDepositTokens(uint256)": {
        "notice": "Calculate receipt tokens for a given amount of deposit tokens"
      },
      "permit(address,address,uint256,uint256,uint8,bytes32,bytes32)": {
        "notice": "Triggers an approval from owner to spender"
      },
      "recoverERC20(address,uint256)": {
        "notice": "Recover ERC20 from contract"
      },
      "recoverGas(uint256)": {
        "notice": "Recover GAS from contract"
      },
      "reinvest()": {
        "notice": "Reinvest reward tokens into deposit tokens"
      },
      "revokeAllowance(address,address)": {
        "notice": "Revoke token allowance"
      },
      "totalDeposits()": {
        "notice": "This function returns a snapshot of last available quotes"
      },
      "transfer(address,uint256)": {
        "notice": "Transfer `amount` tokens from `msg.sender` to `dst`"
      },
      "transferFrom(address,address,uint256)": {
        "notice": "Transfer `amount` tokens from `src` to `dst`"
      },
      "updateDevAddr(address)": {
        "notice": "Update devAddr"
      },
      "updateDevFee(uint256)": {
        "notice": "Update developer fee"
      },
      "updateFeeCollector(address)": {
        "notice": "Update feeCollector"
      },
      "updateMinTokensToReinvest(uint256)": {
        "notice": "Update reinvest min threshold"
      },
      "updateReinvestReward(uint256)": {
        "notice": "Update reinvest reward"
      }
    },
    "version": 1
  },
  "storageLayout": {
    "storage": [
      {
        "astId": 552,
        "contract": "contracts/strategies/crosschain/betswirl/CompoundingBets.sol:CompoundingBets",
        "label": "name",
        "offset": 0,
        "slot": "0",
        "type": "t_string_storage"
      },
      {
        "astId": 555,
        "contract": "contracts/strategies/crosschain/betswirl/CompoundingBets.sol:CompoundingBets",
        "label": "symbol",
        "offset": 0,
        "slot": "1",
        "type": "t_string_storage"
      },
      {
        "astId": 560,
        "contract": "contracts/strategies/crosschain/betswirl/CompoundingBets.sol:CompoundingBets",
        "label": "totalSupply",
        "offset": 0,
        "slot": "2",
        "type": "t_uint256"
      },
      {
        "astId": 566,
        "contract": "contracts/strategies/crosschain/betswirl/CompoundingBets.sol:CompoundingBets",
        "label": "allowances",
        "offset": 0,
        "slot": "3",
        "type": "t_mapping(t_address,t_mapping(t_address,t_uint256))"
      },
      {
        "astId": 570,
        "contract": "contracts/strategies/crosschain/betswirl/CompoundingBets.sol:CompoundingBets",
        "label": "balances",
        "offset": 0,
        "slot": "4",
        "type": "t_mapping(t_address,t_uint256)"
      },
      {
        "astId": 586,
        "contract": "contracts/strategies/crosschain/betswirl/CompoundingBets.sol:CompoundingBets",
        "label": "nonces",
        "offset": 0,
        "slot": "5",
        "type": "t_mapping(t_address,t_uint256)"
      },
      {
        "astId": 8982,
        "contract": "contracts/strategies/crosschain/betswirl/CompoundingBets.sol:CompoundingBets",
        "label": "_owner",
        "offset": 0,
        "slot": "6",
        "type": "t_address"
      },
      {
        "astId": 2566,
        "contract": "contracts/strategies/crosschain/betswirl/CompoundingBets.sol:CompoundingBets",
        "label": "devAddr",
        "offset": 0,
        "slot": "7",
        "type": "t_address"
      },
      {
        "astId": 2568,
        "contract": "contracts/strategies/crosschain/betswirl/CompoundingBets.sol:CompoundingBets",
        "label": "feeCollector",
        "offset": 0,
        "slot": "8",
        "type": "t_address"
      },
      {
        "astId": 2570,
        "contract": "contracts/strategies/crosschain/betswirl/CompoundingBets.sol:CompoundingBets",
        "label": "MIN_TOKENS_TO_REINVEST",
        "offset": 0,
        "slot": "9",
        "type": "t_uint256"
      },
      {
        "astId": 2572,
        "contract": "contracts/strategies/crosschain/betswirl/CompoundingBets.sol:CompoundingBets",
        "label": "DEPOSITS_ENABLED",
        "offset": 0,
        "slot": "10",
        "type": "t_bool"
      },
      {
        "astId": 2574,
        "contract": "contracts/strategies/crosschain/betswirl/CompoundingBets.sol:CompoundingBets",
        "label": "REINVEST_REWARD_BIPS",
        "offset": 0,
        "slot": "11",
        "type": "t_uint256"
      },
      {
        "astId": 2576,
        "contract": "contracts/strategies/crosschain/betswirl/CompoundingBets.sol:CompoundingBets",
        "label": "DEV_FEE_BIPS",
        "offset": 0,
        "slot": "12",
        "type": "t_uint256"
      },
      {
        "astId": 10581,
        "contract": "contracts/strategies/crosschain/betswirl/CompoundingBets.sol:CompoundingBets",
        "label": "supportedRewards",
        "offset": 0,
        "slot": "13",
        "type": "t_array(t_address)dyn_storage"
      },
      {
        "astId": 10584,
        "contract": "contracts/strategies/crosschain/betswirl/CompoundingBets.sol:CompoundingBets",
        "label": "simpleRouter",
        "offset": 0,
        "slot": "14",
        "type": "t_contract(ISimpleRouter)6390"
      },
      {
        "astId": 64372,
        "contract": "contracts/strategies/crosschain/betswirl/CompoundingBets.sol:CompoundingBets",
        "label": "stakingContract",
        "offset": 0,
        "slot": "15",
        "type": "t_contract(ISingleStaking)64579"
      }
    ],
    "types": {
      "t_address": {
        "encoding": "inplace",
        "label": "address",
        "numberOfBytes": "20"
      },
      "t_array(t_address)dyn_storage": {
        "base": "t_address",
        "encoding": "dynamic_array",
        "label": "address[]",
        "numberOfBytes": "32"
      },
      "t_bool": {
        "encoding": "inplace",
        "label": "bool",
        "numberOfBytes": "1"
      },
      "t_contract(ISimpleRouter)6390": {
        "encoding": "inplace",
        "label": "contract ISimpleRouter",
        "numberOfBytes": "20"
      },
      "t_contract(ISingleStaking)64579": {
        "encoding": "inplace",
        "label": "contract ISingleStaking",
        "numberOfBytes": "20"
      },
      "t_mapping(t_address,t_mapping(t_address,t_uint256))": {
        "encoding": "mapping",
        "key": "t_address",
        "label": "mapping(address => mapping(address => uint256))",
        "numberOfBytes": "32",
        "value": "t_mapping(t_address,t_uint256)"
      },
      "t_mapping(t_address,t_uint256)": {
        "encoding": "mapping",
        "key": "t_address",
        "label": "mapping(address => uint256)",
        "numberOfBytes": "32",
        "value": "t_uint256"
      },
      "t_string_storage": {
        "encoding": "bytes",
        "label": "string",
        "numberOfBytes": "32"
      },
      "t_uint256": {
        "encoding": "inplace",
        "label": "uint256",
        "numberOfBytes": "32"
      }
    }
  }
}