{
  "address": "0xBb8A9270b15fe7ca75D296cCaAdB21bE01491CF5",
  "abi": [
    {
      "inputs": [
        {
          "internalType": "address",
          "name": "_stakingContract",
          "type": "address"
        },
        {
          "internalType": "uint256",
          "name": "_pid",
          "type": "uint256"
        },
        {
          "internalType": "address",
          "name": "_pairLpTokenIn",
          "type": "address"
        },
        {
          "internalType": "uint256",
          "name": "_feePairLpTokenIn",
          "type": "uint256"
        },
        {
          "components": [
            {
              "internalType": "string",
              "name": "name",
              "type": "string"
            },
            {
              "internalType": "address",
              "name": "platformToken",
              "type": "address"
            },
            {
              "components": [
                {
                  "internalType": "address",
                  "name": "reward",
                  "type": "address"
                },
                {
                  "internalType": "address",
                  "name": "swapPair",
                  "type": "address"
                },
                {
                  "internalType": "uint256",
                  "name": "swapFee",
                  "type": "uint256"
                }
              ],
              "internalType": "struct VariableRewardsStrategy.RewardSwapPair[]",
              "name": "rewardSwapPairs",
              "type": "tuple[]"
            },
            {
              "internalType": "address",
              "name": "timelock",
              "type": "address"
            }
          ],
          "internalType": "struct VariableRewardsStrategy.VariableRewardsStrategySettings",
          "name": "_variableRewardsStrategySettings",
          "type": "tuple"
        },
        {
          "components": [
            {
              "internalType": "address",
              "name": "depositToken",
              "type": "address"
            },
            {
              "internalType": "address",
              "name": "rewardToken",
              "type": "address"
            },
            {
              "internalType": "uint256",
              "name": "minTokensToReinvest",
              "type": "uint256"
            },
            {
              "internalType": "uint256",
              "name": "devFeeBips",
              "type": "uint256"
            },
            {
              "internalType": "uint256",
              "name": "reinvestRewardBips",
              "type": "uint256"
            }
          ],
          "internalType": "struct YakStrategyV2.StrategySettings",
          "name": "_strategySettings",
          "type": "tuple"
        }
      ],
      "stateMutability": "nonpayable",
      "type": "constructor"
    },
    {
      "anonymous": false,
      "inputs": [
        {
          "indexed": false,
          "internalType": "address",
          "name": "rewardToken",
          "type": "address"
        },
        {
          "indexed": false,
          "internalType": "address",
          "name": "swapPair",
          "type": "address"
        }
      ],
      "name": "AddReward",
      "type": "event"
    },
    {
      "anonymous": false,
      "inputs": [
        {
          "indexed": true,
          "internalType": "address",
          "name": "account",
          "type": "address"
        }
      ],
      "name": "AllowDepositor",
      "type": "event"
    },
    {
      "anonymous": false,
      "inputs": [
        {
          "indexed": true,
          "internalType": "address",
          "name": "owner",
          "type": "address"
        },
        {
          "indexed": true,
          "internalType": "address",
          "name": "spender",
          "type": "address"
        },
        {
          "indexed": false,
          "internalType": "uint256",
          "name": "value",
          "type": "uint256"
        }
      ],
      "name": "Approval",
      "type": "event"
    },
    {
      "anonymous": false,
      "inputs": [
        {
          "indexed": true,
          "internalType": "address",
          "name": "account",
          "type": "address"
        },
        {
          "indexed": false,
          "internalType": "uint256",
          "name": "amount",
          "type": "uint256"
        }
      ],
      "name": "Deposit",
      "type": "event"
    },
    {
      "anonymous": false,
      "inputs": [
        {
          "indexed": false,
          "internalType": "bool",
          "name": "newValue",
          "type": "bool"
        }
      ],
      "name": "DepositsEnabled",
      "type": "event"
    },
    {
      "anonymous": false,
      "inputs": [
        {
          "indexed": true,
          "internalType": "address",
          "name": "previousOwner",
          "type": "address"
        },
        {
          "indexed": true,
          "internalType": "address",
          "name": "newOwner",
          "type": "address"
        }
      ],
      "name": "OwnershipTransferred",
      "type": "event"
    },
    {
      "anonymous": false,
      "inputs": [
        {
          "indexed": false,
          "internalType": "address",
          "name": "token",
          "type": "address"
        },
        {
          "indexed": false,
          "internalType": "uint256",
          "name": "amount",
          "type": "uint256"
        }
      ],
      "name": "Recovered",
      "type": "event"
    },
    {
      "anonymous": false,
      "inputs": [
        {
          "indexed": false,
          "internalType": "uint256",
          "name": "newTotalDeposits",
          "type": "uint256"
        },
        {
          "indexed": false,
          "internalType": "uint256",
          "name": "newTotalSupply",
          "type": "uint256"
        }
      ],
      "name": "Reinvest",
      "type": "event"
    },
    {
      "anonymous": false,
      "inputs": [
        {
          "indexed": true,
          "internalType": "address",
          "name": "account",
          "type": "address"
        }
      ],
      "name": "RemoveDepositor",
      "type": "event"
    },
    {
      "anonymous": false,
      "inputs": [
        {
          "indexed": false,
          "internalType": "address",
          "name": "rewardToken",
          "type": "address"
        }
      ],
      "name": "RemoveReward",
      "type": "event"
    },
    {
      "anonymous": false,
      "inputs": [
        {
          "indexed": true,
          "internalType": "address",
          "name": "from",
          "type": "address"
        },
        {
          "indexed": true,
          "internalType": "address",
          "name": "to",
          "type": "address"
        },
        {
          "indexed": false,
          "internalType": "uint256",
          "name": "value",
          "type": "uint256"
        }
      ],
      "name": "Transfer",
      "type": "event"
    },
    {
      "anonymous": false,
      "inputs": [
        {
          "indexed": false,
          "internalType": "uint256",
          "name": "oldValue",
          "type": "uint256"
        },
        {
          "indexed": false,
          "internalType": "uint256",
          "name": "newValue",
          "type": "uint256"
        }
      ],
      "name": "UpdateAdminFee",
      "type": "event"
    },
    {
      "anonymous": false,
      "inputs": [
        {
          "indexed": false,
          "internalType": "address",
          "name": "oldValue",
          "type": "address"
        },
        {
          "indexed": false,
          "internalType": "address",
          "name": "newValue",
          "type": "address"
        }
      ],
      "name": "UpdateDevAddr",
      "type": "event"
    },
    {
      "anonymous": false,
      "inputs": [
        {
          "indexed": false,
          "internalType": "uint256",
          "name": "oldValue",
          "type": "uint256"
        },
        {
          "indexed": false,
          "internalType": "uint256",
          "name": "newValue",
          "type": "uint256"
        }
      ],
      "name": "UpdateDevFee",
      "type": "event"
    },
    {
      "anonymous": false,
      "inputs": [
        {
          "indexed": false,
          "internalType": "uint256",
          "name": "oldValue",
          "type": "uint256"
        },
        {
          "indexed": false,
          "internalType": "uint256",
          "name": "newValue",
          "type": "uint256"
        }
      ],
      "name": "UpdateMaxTokensToDepositWithoutReinvest",
      "type": "event"
    },
    {
      "anonymous": false,
      "inputs": [
        {
          "indexed": false,
          "internalType": "uint256",
          "name": "oldValue",
          "type": "uint256"
        },
        {
          "indexed": false,
          "internalType": "uint256",
          "name": "newValue",
          "type": "uint256"
        }
      ],
      "name": "UpdateMinTokensToReinvest",
      "type": "event"
    },
    {
      "anonymous": false,
      "inputs": [
        {
          "indexed": false,
          "internalType": "uint256",
          "name": "oldValue",
          "type": "uint256"
        },
        {
          "indexed": false,
          "internalType": "uint256",
          "name": "newValue",
          "type": "uint256"
        }
      ],
      "name": "UpdateReinvestReward",
      "type": "event"
    },
    {
      "anonymous": false,
      "inputs": [
        {
          "indexed": true,
          "internalType": "address",
          "name": "account",
          "type": "address"
        },
        {
          "indexed": false,
          "internalType": "uint256",
          "name": "amount",
          "type": "uint256"
        }
      ],
      "name": "Withdraw",
      "type": "event"
    },
    {
      "inputs": [],
      "name": "ADMIN_FEE_BIPS",
      "outputs": [
        {
          "internalType": "uint256",
          "name": "",
          "type": "uint256"
        }
      ],
      "stateMutability": "view",
      "type": "function"
    },
    {
      "inputs": [],
      "name": "DEPOSITS_ENABLED",
      "outputs": [
        {
          "internalType": "bool",
          "name": "",
          "type": "bool"
        }
      ],
      "stateMutability": "view",
      "type": "function"
    },
    {
      "inputs": [],
      "name": "DEV_FEE_BIPS",
      "outputs": [
        {
          "internalType": "uint256",
          "name": "",
          "type": "uint256"
        }
      ],
      "stateMutability": "view",
      "type": "function"
    },
    {
      "inputs": [],
      "name": "DOMAIN_TYPEHASH",
      "outputs": [
        {
          "internalType": "bytes32",
          "name": "",
          "type": "bytes32"
        }
      ],
      "stateMutability": "view",
      "type": "function"
    },
    {
      "inputs": [],
      "name": "MAX_TOKENS_TO_DEPOSIT_WITHOUT_REINVEST",
      "outputs": [
        {
          "internalType": "uint256",
          "name": "",
          "type": "uint256"
        }
      ],
      "stateMutability": "view",
      "type": "function"
    },
    {
      "inputs": [],
      "name": "MIN_TOKENS_TO_REINVEST",
      "outputs": [
        {
          "internalType": "uint256",
          "name": "",
          "type": "uint256"
        }
      ],
      "stateMutability": "view",
      "type": "function"
    },
    {
      "inputs": [],
      "name": "PERMIT_TYPEHASH",
      "outputs": [
        {
          "internalType": "bytes32",
          "name": "",
          "type": "bytes32"
        }
      ],
      "stateMutability": "view",
      "type": "function"
    },
    {
      "inputs": [],
      "name": "PID",
      "outputs": [
        {
          "internalType": "uint256",
          "name": "",
          "type": "uint256"
        }
      ],
      "stateMutability": "view",
      "type": "function"
    },
    {
      "inputs": [],
      "name": "REINVEST_REWARD_BIPS",
      "outputs": [
        {
          "internalType": "uint256",
          "name": "",
          "type": "uint256"
        }
      ],
      "stateMutability": "view",
      "type": "function"
    },
    {
      "inputs": [],
      "name": "VERSION_HASH",
      "outputs": [
        {
          "internalType": "bytes32",
          "name": "",
          "type": "bytes32"
        }
      ],
      "stateMutability": "view",
      "type": "function"
    },
    {
      "inputs": [
        {
          "internalType": "address",
          "name": "_rewardToken",
          "type": "address"
        },
        {
          "internalType": "address",
          "name": "_swapPair",
          "type": "address"
        }
      ],
      "name": "addReward",
      "outputs": [],
      "stateMutability": "nonpayable",
      "type": "function"
    },
    {
      "inputs": [
        {
          "internalType": "address",
          "name": "_rewardToken",
          "type": "address"
        },
        {
          "internalType": "address",
          "name": "_swapPair",
          "type": "address"
        },
        {
          "internalType": "uint256",
          "name": "_swapFee",
          "type": "uint256"
        }
      ],
      "name": "addReward",
      "outputs": [],
      "stateMutability": "nonpayable",
      "type": "function"
    },
    {
      "inputs": [
        {
          "internalType": "address",
          "name": "depositor",
          "type": "address"
        }
      ],
      "name": "allowDepositor",
      "outputs": [],
      "stateMutability": "nonpayable",
      "type": "function"
    },
    {
      "inputs": [
        {
          "internalType": "address",
          "name": "account",
          "type": "address"
        },
        {
          "internalType": "address",
          "name": "spender",
          "type": "address"
        }
      ],
      "name": "allowance",
      "outputs": [
        {
          "internalType": "uint256",
          "name": "",
          "type": "uint256"
        }
      ],
      "stateMutability": "view",
      "type": "function"
    },
    {
      "inputs": [
        {
          "internalType": "address",
          "name": "",
          "type": "address"
        }
      ],
      "name": "allowedDepositors",
      "outputs": [
        {
          "internalType": "bool",
          "name": "",
          "type": "bool"
        }
      ],
      "stateMutability": "view",
      "type": "function"
    },
    {
      "inputs": [
        {
          "internalType": "address",
          "name": "spender",
          "type": "address"
        },
        {
          "internalType": "uint256",
          "name": "amount",
          "type": "uint256"
        }
      ],
      "name": "approve",
      "outputs": [
        {
          "internalType": "bool",
          "name": "",
          "type": "bool"
        }
      ],
      "stateMutability": "nonpayable",
      "type": "function"
    },
    {
      "inputs": [
        {
          "internalType": "address",
          "name": "account",
          "type": "address"
        }
      ],
      "name": "balanceOf",
      "outputs": [
        {
          "internalType": "uint256",
          "name": "",
          "type": "uint256"
        }
      ],
      "stateMutability": "view",
      "type": "function"
    },
    {
      "inputs": [
        {
          "internalType": "uint256",
          "name": "_amount",
          "type": "uint256"
        }
      ],
      "name": "calculateDepositFee",
      "outputs": [
        {
          "internalType": "uint256",
          "name": "",
          "type": "uint256"
        }
      ],
      "stateMutability": "view",
      "type": "function"
    },
    {
      "inputs": [
        {
          "internalType": "uint256",
          "name": "_amount",
          "type": "uint256"
        }
      ],
      "name": "calculateWithdrawFee",
      "outputs": [
        {
          "internalType": "uint256",
          "name": "",
          "type": "uint256"
        }
      ],
      "stateMutability": "view",
      "type": "function"
    },
    {
      "inputs": [],
      "name": "checkReward",
      "outputs": [
        {
          "internalType": "uint256",
          "name": "",
          "type": "uint256"
        }
      ],
      "stateMutability": "view",
      "type": "function"
    },
    {
      "inputs": [],
      "name": "decimals",
      "outputs": [
        {
          "internalType": "uint8",
          "name": "",
          "type": "uint8"
        }
      ],
      "stateMutability": "view",
      "type": "function"
    },
    {
      "inputs": [
        {
          "internalType": "uint256",
          "name": "_amount",
          "type": "uint256"
        }
      ],
      "name": "deposit",
      "outputs": [],
      "stateMutability": "nonpayable",
      "type": "function"
    },
    {
      "inputs": [
        {
          "internalType": "address",
          "name": "_account",
          "type": "address"
        },
        {
          "internalType": "uint256",
          "name": "_amount",
          "type": "uint256"
        }
      ],
      "name": "depositFor",
      "outputs": [],
      "stateMutability": "nonpayable",
      "type": "function"
    },
    {
      "inputs": [],
      "name": "depositToken",
      "outputs": [
        {
          "internalType": "contract IERC20",
          "name": "",
          "type": "address"
        }
      ],
      "stateMutability": "view",
      "type": "function"
    },
    {
      "inputs": [
        {
          "internalType": "uint256",
          "name": "_amount",
          "type": "uint256"
        },
        {
          "internalType": "uint256",
          "name": "_deadline",
          "type": "uint256"
        },
        {
          "internalType": "uint8",
          "name": "_v",
          "type": "uint8"
        },
        {
          "internalType": "bytes32",
          "name": "_r",
          "type": "bytes32"
        },
        {
          "internalType": "bytes32",
          "name": "_s",
          "type": "bytes32"
        }
      ],
      "name": "depositWithPermit",
      "outputs": [],
      "stateMutability": "nonpayable",
      "type": "function"
    },
    {
      "inputs": [],
      "name": "devAddr",
      "outputs": [
        {
          "internalType": "address",
          "name": "",
          "type": "address"
        }
      ],
      "stateMutability": "view",
      "type": "function"
    },
    {
      "inputs": [],
      "name": "estimateDeployedBalance",
      "outputs": [
        {
          "internalType": "uint256",
          "name": "",
          "type": "uint256"
        }
      ],
      "stateMutability": "view",
      "type": "function"
    },
    {
      "inputs": [],
      "name": "estimateReinvestReward",
      "outputs": [
        {
          "internalType": "uint256",
          "name": "",
          "type": "uint256"
        }
      ],
      "stateMutability": "view",
      "type": "function"
    },
    {
      "inputs": [
        {
          "internalType": "uint256",
          "name": "amount",
          "type": "uint256"
        }
      ],
      "name": "getDepositTokensForShares",
      "outputs": [
        {
          "internalType": "uint256",
          "name": "",
          "type": "uint256"
        }
      ],
      "stateMutability": "view",
      "type": "function"
    },
    {
      "inputs": [],
      "name": "getDomainSeparator",
      "outputs": [
        {
          "internalType": "bytes32",
          "name": "",
          "type": "bytes32"
        }
      ],
      "stateMutability": "view",
      "type": "function"
    },
    {
      "inputs": [
        {
          "internalType": "uint256",
          "name": "amount",
          "type": "uint256"
        }
      ],
      "name": "getSharesForDepositTokens",
      "outputs": [
        {
          "internalType": "uint256",
          "name": "",
          "type": "uint256"
        }
      ],
      "stateMutability": "view",
      "type": "function"
    },
    {
      "inputs": [],
      "name": "levelMaster",
      "outputs": [
        {
          "internalType": "contract ILevelMasterV2",
          "name": "",
          "type": "address"
        }
      ],
      "stateMutability": "view",
      "type": "function"
    },
    {
      "inputs": [],
      "name": "levelPool",
      "outputs": [
        {
          "internalType": "contract ILevelPool",
          "name": "",
          "type": "address"
        }
      ],
      "stateMutability": "view",
      "type": "function"
    },
    {
      "inputs": [],
      "name": "name",
      "outputs": [
        {
          "internalType": "string",
          "name": "",
          "type": "string"
        }
      ],
      "stateMutability": "view",
      "type": "function"
    },
    {
      "inputs": [
        {
          "internalType": "address",
          "name": "",
          "type": "address"
        }
      ],
      "name": "nonces",
      "outputs": [
        {
          "internalType": "uint256",
          "name": "",
          "type": "uint256"
        }
      ],
      "stateMutability": "view",
      "type": "function"
    },
    {
      "inputs": [],
      "name": "numberOfAllowedDepositors",
      "outputs": [
        {
          "internalType": "uint256",
          "name": "",
          "type": "uint256"
        }
      ],
      "stateMutability": "view",
      "type": "function"
    },
    {
      "inputs": [],
      "name": "owner",
      "outputs": [
        {
          "internalType": "address",
          "name": "",
          "type": "address"
        }
      ],
      "stateMutability": "view",
      "type": "function"
    },
    {
      "inputs": [
        {
          "internalType": "address",
          "name": "owner",
          "type": "address"
        },
        {
          "internalType": "address",
          "name": "spender",
          "type": "address"
        },
        {
          "internalType": "uint256",
          "name": "value",
          "type": "uint256"
        },
        {
          "internalType": "uint256",
          "name": "deadline",
          "type": "uint256"
        },
        {
          "internalType": "uint8",
          "name": "v",
          "type": "uint8"
        },
        {
          "internalType": "bytes32",
          "name": "r",
          "type": "bytes32"
        },
        {
          "internalType": "bytes32",
          "name": "s",
          "type": "bytes32"
        }
      ],
      "name": "permit",
      "outputs": [],
      "stateMutability": "nonpayable",
      "type": "function"
    },
    {
      "inputs": [
        {
          "internalType": "uint256",
          "name": "amount",
          "type": "uint256"
        }
      ],
      "name": "recoverAVAX",
      "outputs": [],
      "stateMutability": "nonpayable",
      "type": "function"
    },
    {
      "inputs": [
        {
          "internalType": "address",
          "name": "tokenAddress",
          "type": "address"
        },
        {
          "internalType": "uint256",
          "name": "tokenAmount",
          "type": "uint256"
        }
      ],
      "name": "recoverERC20",
      "outputs": [],
      "stateMutability": "nonpayable",
      "type": "function"
    },
    {
      "inputs": [],
      "name": "reinvest",
      "outputs": [],
      "stateMutability": "nonpayable",
      "type": "function"
    },
    {
      "inputs": [
        {
          "internalType": "address",
          "name": "depositor",
          "type": "address"
        }
      ],
      "name": "removeDepositor",
      "outputs": [],
      "stateMutability": "nonpayable",
      "type": "function"
    },
    {
      "inputs": [
        {
          "internalType": "address",
          "name": "_rewardToken",
          "type": "address"
        }
      ],
      "name": "removeReward",
      "outputs": [],
      "stateMutability": "nonpayable",
      "type": "function"
    },
    {
      "inputs": [],
      "name": "renounceOwnership",
      "outputs": [],
      "stateMutability": "nonpayable",
      "type": "function"
    },
    {
      "inputs": [
        {
          "internalType": "uint256",
          "name": "_minReturnAmountAccepted",
          "type": "uint256"
        },
        {
          "internalType": "bool",
          "name": "",
          "type": "bool"
        }
      ],
      "name": "rescueDeployedFunds",
      "outputs": [],
      "stateMutability": "nonpayable",
      "type": "function"
    },
    {
      "inputs": [
        {
          "internalType": "address",
          "name": "token",
          "type": "address"
        },
        {
          "internalType": "address",
          "name": "spender",
          "type": "address"
        }
      ],
      "name": "revokeAllowance",
      "outputs": [],
      "stateMutability": "nonpayable",
      "type": "function"
    },
    {
      "inputs": [],
      "name": "rewardCount",
      "outputs": [
        {
          "internalType": "uint256",
          "name": "",
          "type": "uint256"
        }
      ],
      "stateMutability": "view",
      "type": "function"
    },
    {
      "inputs": [
        {
          "internalType": "address",
          "name": "",
          "type": "address"
        }
      ],
      "name": "rewardSwapPairs",
      "outputs": [
        {
          "internalType": "address",
          "name": "reward",
          "type": "address"
        },
        {
          "internalType": "address",
          "name": "swapPair",
          "type": "address"
        },
        {
          "internalType": "uint256",
          "name": "swapFee",
          "type": "uint256"
        }
      ],
      "stateMutability": "view",
      "type": "function"
    },
    {
      "inputs": [],
      "name": "rewardToken",
      "outputs": [
        {
          "internalType": "contract IERC20",
          "name": "",
          "type": "address"
        }
      ],
      "stateMutability": "view",
      "type": "function"
    },
    {
      "inputs": [
        {
          "internalType": "uint256",
          "name": "",
          "type": "uint256"
        }
      ],
      "name": "supportedRewards",
      "outputs": [
        {
          "internalType": "address",
          "name": "",
          "type": "address"
        }
      ],
      "stateMutability": "view",
      "type": "function"
    },
    {
      "inputs": [],
      "name": "symbol",
      "outputs": [
        {
          "internalType": "string",
          "name": "",
          "type": "string"
        }
      ],
      "stateMutability": "view",
      "type": "function"
    },
    {
      "inputs": [],
      "name": "totalDeposits",
      "outputs": [
        {
          "internalType": "uint256",
          "name": "",
          "type": "uint256"
        }
      ],
      "stateMutability": "view",
      "type": "function"
    },
    {
      "inputs": [],
      "name": "totalSupply",
      "outputs": [
        {
          "internalType": "uint256",
          "name": "",
          "type": "uint256"
        }
      ],
      "stateMutability": "view",
      "type": "function"
    },
    {
      "inputs": [
        {
          "internalType": "address",
          "name": "dst",
          "type": "address"
        },
        {
          "internalType": "uint256",
          "name": "amount",
          "type": "uint256"
        }
      ],
      "name": "transfer",
      "outputs": [
        {
          "internalType": "bool",
          "name": "",
          "type": "bool"
        }
      ],
      "stateMutability": "nonpayable",
      "type": "function"
    },
    {
      "inputs": [
        {
          "internalType": "address",
          "name": "src",
          "type": "address"
        },
        {
          "internalType": "address",
          "name": "dst",
          "type": "address"
        },
        {
          "internalType": "uint256",
          "name": "amount",
          "type": "uint256"
        }
      ],
      "name": "transferFrom",
      "outputs": [
        {
          "internalType": "bool",
          "name": "",
          "type": "bool"
        }
      ],
      "stateMutability": "nonpayable",
      "type": "function"
    },
    {
      "inputs": [
        {
          "internalType": "address",
          "name": "newOwner",
          "type": "address"
        }
      ],
      "name": "transferOwnership",
      "outputs": [],
      "stateMutability": "nonpayable",
      "type": "function"
    },
    {
      "inputs": [
        {
          "internalType": "uint256",
          "name": "newValue",
          "type": "uint256"
        }
      ],
      "name": "updateAdminFee",
      "outputs": [],
      "stateMutability": "nonpayable",
      "type": "function"
    },
    {
      "inputs": [
        {
          "internalType": "bool",
          "name": "newValue",
          "type": "bool"
        }
      ],
      "name": "updateDepositsEnabled",
      "outputs": [],
      "stateMutability": "nonpayable",
      "type": "function"
    },
    {
      "inputs": [
        {
          "internalType": "address",
          "name": "newValue",
          "type": "address"
        }
      ],
      "name": "updateDevAddr",
      "outputs": [],
      "stateMutability": "nonpayable",
      "type": "function"
    },
    {
      "inputs": [
        {
          "internalType": "uint256",
          "name": "newValue",
          "type": "uint256"
        }
      ],
      "name": "updateDevFee",
      "outputs": [],
      "stateMutability": "nonpayable",
      "type": "function"
    },
    {
      "inputs": [
        {
          "internalType": "address",
          "name": "_pair",
          "type": "address"
        },
        {
          "internalType": "uint256",
          "name": "_swapFee",
          "type": "uint256"
        }
      ],
      "name": "updateLPTokenIn",
      "outputs": [],
      "stateMutability": "nonpayable",
      "type": "function"
    },
    {
      "inputs": [
        {
          "internalType": "uint256",
          "name": "newValue",
          "type": "uint256"
        }
      ],
      "name": "updateMaxTokensToDepositWithoutReinvest",
      "outputs": [],
      "stateMutability": "nonpayable",
      "type": "function"
    },
    {
      "inputs": [
        {
          "internalType": "uint256",
          "name": "newValue",
          "type": "uint256"
        }
      ],
      "name": "updateMinTokensToReinvest",
      "outputs": [],
      "stateMutability": "nonpayable",
      "type": "function"
    },
    {
      "inputs": [
        {
          "internalType": "uint256",
          "name": "newValue",
          "type": "uint256"
        }
      ],
      "name": "updateReinvestReward",
      "outputs": [],
      "stateMutability": "nonpayable",
      "type": "function"
    },
    {
      "inputs": [
        {
          "internalType": "uint256",
          "name": "_amount",
          "type": "uint256"
        }
      ],
      "name": "withdraw",
      "outputs": [],
      "stateMutability": "nonpayable",
      "type": "function"
    }
  ],
  "transactionHash": "0x0c14ac2709018745f1ba3295f83943f9eed19a102c8b3c53c84759adb6e497ab",
  "args": [
    "0x0180dee5Df18eBF76642e50FaaEF426f7b2874f7",
    "2",
    "0xc11cFF8A44853A5B3F24a7F4B817E6e64fbEBA2a",
    "30",
    {
      "name": "Yield Yak: Level Junior LLP",
      "platformToken": "0x82aF49447D8a07e3bd95BD0d56f35241523fBab1",
      "rewardSwapPairs": [],
      "timelock": "0xDcEDF06Fd33E1D7b6eb4b309f779a0e9D3172e44"
    },
    {
      "depositToken": "0x502697AF336F7413Bb4706262e7C506Edab4f3B9",
      "rewardToken": "0xB64E280e9D1B5DbEc4AcceDb2257A87b400DB149",
      "minTokensToReinvest": "100000000000",
      "devFeeBips": 700,
      "reinvestRewardBips": 300
    }
  ],
  "solcInputHash": "11c27a38bf5a8020497c68eadc3d055d",
  "bytecode": "0x6101806040526009610140819052685969656c642059616b60b81b6101609081526200002f916000919062000c3e565b506040805180820190915260038082526216549560ea1b60209092019182526200005c9160019162000c3e565b503480156200006a57600080fd5b5060405162005f5c38038062005f5c8339810160408190526200008d9162000ee8565b600680546001600160a01b0319163390811790915560405183918391829190819060009060008051602062005f3c833981519152908290a35080516001600160a01b0390811660805260208201511660a0526040810151620000ef90620002f9565b6060810151620000ff9062000389565b60808101516200010f9062000434565b5081518051620001289160009160209091019062000c3e565b5060208201516001600160a01b031660c052600980546001600160a01b03191673dcedf06fd33e1d7b6eb4b309f779a0e9d3172e4417905560005b8260400151518110156200020557620001f0836040015182815181106200018e576200018e62001070565b60200260200101516000015184604001518381518110620001b357620001b362001070565b60200260200101516020015185604001518481518110620001d857620001d862001070565b602002602001015160400151620004df60201b60201c565b80620001fc816200109c565b91505062000163565b506200021260016200068b565b6060820151620002229062000735565b60408051600080825260208201527fc7606d21ac05cd309191543e409f0845c016120563783d70e4f41419dc0ef234910160405180910390a150506101208590526001600160a01b03861660e08190526040805163552f488d60e01b8152905163552f488d916004808201926020929091908290030181865afa158015620002ae573d6000803e3d6000fd5b505050506040513d601f19601f82011682018060405250810190620002d49190620010b8565b6001600160a01b031661010052620002ed848462000832565b50505050505062001134565b6006546001600160a01b03163314620003485760405162461bcd60e51b8152602060048201819052602482015260008051602062005f1c83398151915260448201526064015b60405180910390fd5b600a5460408051918252602082018390527f481f79ac3a523b6d6db3c5a720e190e986d1cc1b41adcdf50f9caef849901100910160405180910390a1600a55565b6006546001600160a01b03163314620003d45760405162461bcd60e51b8152602060048201819052602482015260008051602062005f1c83398151915260448201526064016200033f565b612710600e5482620003e79190620010dd565b1115620003f357600080fd5b600f5460408051918252602082018390527f2a42303d002f0ba6cfe8259c91d4684443fb0b3de286ba74991175d651726131910160405180910390a1600f55565b6006546001600160a01b031633146200047f5760405162461bcd60e51b8152602060048201819052602482015260008051602062005f1c83398151915260448201526064016200033f565b612710600f5482620004929190620010dd565b11156200049e57600080fd5b600e5460408051918252602082018390527fe7f97d51d307dc44045597c9978bec0f842e6bb40d19b9444084cfa30d9ed4f2910160405180910390a1600e55565b60a0516001600160a01b0316836001600160a01b0316146200058b5762000515828460a05162000a1960201b620025401760201c565b6200058b576040805162461bcd60e51b81526020600482015260248101919091527f5661726961626c655265776172647353747261746567793a3a5377617020706160448201527f697220646f6573206e6f7420636f6e7461696e2072657761726420746f6b656e60648201526084016200033f565b604080516060810182526001600160a01b03808616808352858216602080850191825284860187815260008481526010909252958120945185549085166001600160a01b03199182161786559151600180870180549290961691841691909117909455945160029094019390935560118054808401825594527f31ecc21a745e3968a04e9570e4425bc18fa8019c68028196b546d1669c200c68909301805490921690921790556012546200064091620010dd565b601255604080516001600160a01b038086168252841660208201527f916e172c080569186aa7ea048268267257cf7cc49505908863f747bca8620f80910160405180910390a1505050565b6006546001600160a01b03163314620006d65760405162461bcd60e51b8152602060048201819052602482015260008051602062005f1c83398151915260448201526064016200033f565b600c5481151560ff909116151503620006ee57600080fd5b600c805460ff19168215159081179091556040519081527f7b014ed3854e7f5cb0218d58b3c6ae7d53a68bb0af2f67bfb029ea42c38a7e859060200160405180910390a150565b6006546001600160a01b03163314620007805760405162461bcd60e51b8152602060048201819052602482015260008051602062005f1c83398151915260448201526064016200033f565b6001600160a01b038116620007e75760405162461bcd60e51b815260206004820152602660248201527f4f776e61626c653a206e6577206f776e657220697320746865207a65726f206160448201526564647265737360d01b60648201526084016200033f565b6006546040516001600160a01b0380841692169060008051602062005f3c83398151915290600090a3600680546001600160a01b0319166001600160a01b0392909216919091179055565b6001600160a01b03821615620009f4576000826001600160a01b0316630dfe16816040518163ffffffff1660e01b8152600401602060405180830381865afa15801562000883573d6000803e3d6000fd5b505050506040513d601f19601f82011682018060405250810190620008a99190620010b8565b90506000836001600160a01b031663d21220a76040518163ffffffff1660e01b8152600401602060405180830381865afa158015620008ec573d6000803e3d6000fd5b505050506040513d601f19601f82011682018060405250810190620009129190620010b8565b905060a0516001600160a01b0316826001600160a01b031614806200094a575060a0516001600160a01b0316816001600160a01b0316145b620009985760405162461bcd60e51b815260206004820152601b60248201527f4c6576656c53747261746567793a3a496e76616c69642070616972000000000060448201526064016200033f565b60a0516001600160a01b0316826001600160a01b031614620009bb5781620009bd565b805b601380546001600160a01b039283166001600160a01b03199182161790915560148054969092169516949094179093555060155550565b601380546001600160a01b031990811690915560148054909116905560006015555050565b6000836001600160a01b0316630dfe16816040518163ffffffff1660e01b8152600401602060405180830381865afa15801562000a5a573d6000803e3d6000fd5b505050506040513d601f19601f8201168201806040525081019062000a809190620010b8565b6001600160a01b0316836001600160a01b0316148062000b155750836001600160a01b031663d21220a76040518163ffffffff1660e01b8152600401602060405180830381865afa15801562000ada573d6000803e3d6000fd5b505050506040513d601f19601f8201168201806040525081019062000b009190620010b8565b6001600160a01b0316836001600160a01b0316145b801562000c175750836001600160a01b0316630dfe16816040518163ffffffff1660e01b8152600401602060405180830381865afa15801562000b5c573d6000803e3d6000fd5b505050506040513d601f19601f8201168201806040525081019062000b829190620010b8565b6001600160a01b0316826001600160a01b0316148062000c175750836001600160a01b031663d21220a76040518163ffffffff1660e01b8152600401602060405180830381865afa15801562000bdc573d6000803e3d6000fd5b505050506040513d601f19601f8201168201806040525081019062000c029190620010b8565b6001600160a01b0316826001600160a01b0316145b801562000c365750816001600160a01b0316836001600160a01b031614155b949350505050565b82805462000c4c90620010f8565b90600052602060002090601f01602090048101928262000c70576000855562000cbb565b82601f1062000c8b57805160ff191683800117855562000cbb565b8280016001018555821562000cbb579182015b8281111562000cbb57825182559160200191906001019062000c9e565b5062000cc992915062000ccd565b5090565b5b8082111562000cc9576000815560010162000cce565b80516001600160a01b038116811462000cfc57600080fd5b919050565b634e487b7160e01b600052604160045260246000fd5b604051606081016001600160401b038111828210171562000d3c5762000d3c62000d01565b60405290565b604051608081016001600160401b038111828210171562000d3c5762000d3c62000d01565b604051601f8201601f191681016001600160401b038111828210171562000d925762000d9262000d01565b604052919050565b600082601f83011262000dac57600080fd5b815160206001600160401b0382111562000dca5762000dca62000d01565b62000dda818360051b0162000d67565b8281526060928302850182019282820191908785111562000dfa57600080fd5b8387015b8581101562000e585781818a03121562000e185760008081fd5b62000e2262000d17565b62000e2d8262000ce4565b815262000e3c86830162000ce4565b8187015260408281015190820152845292840192810162000dfe565b5090979650505050505050565b600060a0828403121562000e7857600080fd5b60405160a081016001600160401b038111828210171562000e9d5762000e9d62000d01565b60405290508062000eae8362000ce4565b815262000ebe6020840162000ce4565b60208201526040830151604082015260608301516060820152608083015160808201525092915050565b600080600080600080610140878903121562000f0357600080fd5b62000f0e8762000ce4565b9550602080880151955062000f266040890162000ce4565b606089015160808a015191965094506001600160401b038082111562000f4b57600080fd5b908901906080828c03121562000f6057600080fd5b62000f6a62000d42565b82518281111562000f7a57600080fd5b8301601f81018d1362000f8c57600080fd5b80518381111562000fa15762000fa162000d01565b62000fb5601f8201601f1916870162000d67565b8181528e8783850101111562000fca57600080fd5b60005b8281101562000fea57838101880151828201890152870162000fcd565b8281111562000ffc5760008884840101525b508352506200100f905083850162000ce4565b8482015260408301519350818411156200102857600080fd5b620010368c85850162000d9a565b6040820152620010496060840162000ce4565b606082015280955050505050620010648860a0890162000e65565b90509295509295509295565b634e487b7160e01b600052603260045260246000fd5b634e487b7160e01b600052601160045260246000fd5b600060018201620010b157620010b162001086565b5060010190565b600060208284031215620010cb57600080fd5b620010d68262000ce4565b9392505050565b60008219821115620010f357620010f362001086565b500190565b600181811c908216806200110d57607f821691505b6020821081036200112e57634e487b7160e01b600052602260045260246000fd5b50919050565b60805160a05160c05160e0516101005161012051614c5d620012bf600039600081816105e701528181611197015281816129c901528181612fb40152818161312a01528181613b8701526142fe01526000818161059f0152818161402e015261412301526000818161081b015281816111d0015281816129ff01528181612f85015281816130640152818161316401528181613bb3015281816142390152614331015260008181611cf901528181613ce101528181613d100152613d8501526000818161096801528181611c8a01528181611d2301528181611d8d01528181611f0601528181612daf01528181612ded015281816134140152818161344f015281816134d101528181613793015281816137ee01528181613c3501528181613daf01528181613e8f01528181613f240152613f6c01526000818161084201528181610bf501528181610d26015281816119fe01528181611a9301528181612c5e0152818161309301528181613fa4015281816140df0152818161419501526142680152614c5d6000f3fe608060405234801561001057600080fd5b50600436106103eb5760003560e01c80638aff733d1161021a578063c4b24a4611610135578063dd62ed3e116100c8578063eab89a5a11610097578063f2fde38b1161007c578063f2fde38b14610950578063f7c618c114610963578063fdb5a03e1461098a57600080fd5b8063eab89a5a14610935578063ed24911d1461094857600080fd5b8063dd62ed3e146108c3578063dd8ce4d6146108fc578063e21ac8251461090f578063e75ab0451461092257600080fd5b8063d0ed26ae11610104578063d0ed26ae14610877578063d12472131461088a578063d505accf1461089d578063da09c72c146108b057600080fd5b8063c4b24a461461080e578063c62030ca14610816578063c89039c51461083d578063cff1b6ef1461086457600080fd5b8063a5534e71116101ad578063b52a321f1161017c578063b52a321f146107dd578063b6b55f25146107ea578063b9e57b80146107fd578063bd079f551461080557600080fd5b8063a5534e7114610742578063a8ae2b7c146107a4578063a9059cbb146107b7578063ac0d31ff146107ca57600080fd5b806395d89b41116101e957806395d89b41146106ed57806399729ec1146106f55780639e4e731814610708578063a4d5e67c1461072f57600080fd5b80638aff733d146106ad5780638b73e606146106b65780638da5cb5b146106c95780639291d563146106da57600080fd5b80634a970be71161030a578063715018a61161029d5780637d8820971161026c5780637d8820971461065f5780637ecebe001461066757806381837230146106875780638980f11f1461069a57600080fd5b8063715018a614610632578063789139bc1461063a57806379085425146106435780637ae267731461064c57600080fd5b8063552f488d116102d9578063552f488d1461059a5780635ea682ea146105d95780635eaec0e4146105e257806370a082311461060957600080fd5b80634a970be71461054e5780634bebd1e7146105615780634e77ace5146105745780634ebb79161461058757600080fd5b8063247d284b11610382578063313ce56711610351578063313ce567146104f55780633bdc6e721461050f57806340b47e1a14610518578063483c2ef01461052b57600080fd5b8063247d284b146104505780632e1a7d4d146104a65780632f4f21e2146104bb57806330adf81f146104ce57600080fd5b806311056035116103be578063110560351461045057806318160ddd1461046357806320606b701461046c57806323b872dd1461049357600080fd5b806306fdde03146103f0578063076771111461040e578063095ea7b3146104255780630f23475d14610448575b600080fd5b6103f8610992565b604051610405919061470f565b60405180910390f35b610417600d5481565b604051908152602001610405565b610438610433366004614737565b610a20565b6040519015158152602001610405565b610417610a36565b61041761045e366004614763565b610a61565b61041760025481565b6104177f8b73c3c69bb8fe3d512ecc4cf759cc79239f7b179b0ffacaa9a75d522b39400f81565b6104386104a136600461477c565b610a72565b6104b96104b4366004614763565b610b3b565b005b6104b96104c9366004614737565b610c62565b6104177f6e71edae12b1b97f4d1f60370fef10105fa2faae0126114a169c64845d6126c981565b6104fd601281565b60405160ff9091168152602001610405565b61041760075481565b6104b96105263660046147bd565b610c70565b6104386105393660046147f6565b60086020526000908152604090205460ff1681565b6104b961055c366004614829565b610ccd565b6104b961056f3660046147f6565b610d9b565b6104b961058236600461487e565b610eb8565b6104b9610595366004614763565b610f5f565b6105c17f000000000000000000000000000000000000000000000000000000000000000081565b6040516001600160a01b039091168152602001610405565b610417600f5481565b6104177f000000000000000000000000000000000000000000000000000000000000000081565b6104176106173660046147f6565b6001600160a01b031660009081526004602052604090205490565b6104b9611019565b610417600b5481565b61041760125481565b6104b961065a3660046147bd565b6110ab565b61041761116f565b6104176106753660046147f6565b60056020526000908152604090205481565b6104b9610695366004614763565b611241565b6104b96106a8366004614737565b6112ca565b610417600e5481565b6104b96106c43660046147f6565b61137a565b6006546001600160a01b03166105c1565b6104b96106e83660046147f6565b611536565b6103f86115f0565b6104b9610703366004614763565b6115fd565b6104177fc89efdaa54c0f20c7adf612882df0950f5a951637e0307cdcb4c672f298b8bc681565b6104b961073d3660046147f6565b6116a2565b61077e6107503660046147f6565b6010602052600090815260409020805460018201546002909201546001600160a01b03918216929091169083565b604080516001600160a01b03948516815293909216602084015290820152606001610405565b6104b96107b2366004614763565b6118ec565b6104386107c5366004614737565b611991565b6104b96107d836600461489b565b61199e565b600c546104389060ff1681565b6104b96107f8366004614763565b611c10565b610417611c1d565b610417600a5481565b610417611c5c565b6105c17f000000000000000000000000000000000000000000000000000000000000000081565b6105c17f000000000000000000000000000000000000000000000000000000000000000081565b6104b9610872366004614763565b611f95565b6104b961088536600461477c565b612029565b6104b9610898366004614737565b61208a565b6104b96108ab3660046148c0565b6120e5565b6009546105c1906001600160a01b031681565b6104176108d13660046147bd565b6001600160a01b03918216600090815260036020908152604080832093909416825291909152205490565b61041761090a366004614763565b6121f8565b6104b961091d366004614763565b612238565b6105c1610930366004614763565b6122c1565b610417610943366004614763565b6122eb565b610417612325565b6104b961095e3660046147f6565b6123c5565b6105c17f000000000000000000000000000000000000000000000000000000000000000081565b6104b96124e5565b6000805461099f9061492e565b80601f01602080910402602001604051908101604052809291908181526020018280546109cb9061492e565b8015610a185780601f106109ed57610100808354040283529160200191610a18565b820191906000526020600020905b8154815290600101906020018083116109fb57829003601f168201915b505050505081565b6000610a2d338484612755565b50600192915050565b600080610a4161116f565b90506000610a4e82612863565b9050610a5a818361497e565b9250505090565b6000610a6c82612863565b92915050565b6001600160a01b038316600081815260036020908152604080832033808552925282205491929091908214801590610aac57506000198114155b15610b22576000610abd858361497e565b6001600160a01b038881166000818152600360209081526040808320948916808452948252918290208590559051848152939450919290917f8c5be1e5ebec7d5bd14f71427d1e84f3dd0314c0f7b2291e5b200ac8c7c3b925910160405180910390a3505b610b2d86868661287d565b6001925050505b9392505050565b6000610b46826122eb565b905060008111610bc35760405162461bcd60e51b815260206004820152603060248201527f5661726961626c655265776172647353747261746567793a3a5769746864726160448201527f7720616d6f756e7420746f6f206c6f770000000000000000000000000000000060648201526084015b60405180910390fd5b6000610bce826129a1565b90506000610bdb83612863565b9050610c1c33610beb838561497e565b6001600160a01b037f0000000000000000000000000000000000000000000000000000000000000000169190612a69565b610c263385612ae9565b60405183815233907f884edad9ce6fa2440d8a54cc123490eb96d2768479d49ff9c7366125a9424364906020015b60405180910390a250505050565b610c6c8282612b7d565b5050565b6009546001600160a01b03163314610cc15760405162461bcd60e51b81526020600482015260146024820152732cb0b5a9ba3930ba32b3bc9d1d37b7363ca232bb60611b6044820152606401610bba565b610c6c8282601e612dad565b6040517fd505accf000000000000000000000000000000000000000000000000000000008152336004820152306024820152604481018690526064810185905260ff8416608482015260a4810183905260c481018290527f00000000000000000000000000000000000000000000000000000000000000006001600160a01b03169063d505accf9060e401600060405180830381600087803b158015610d7257600080fd5b505af1158015610d86573d6000803e3d6000fd5b50505050610d943386612b7d565b5050505050565b6006546001600160a01b03163314610de35760405162461bcd60e51b81526020600482018190526024820152600080516020614c088339815191526044820152606401610bba565b6001600160a01b03811660009081526008602052604090205460ff1615610e4c5760405162461bcd60e51b815260206004820152601c60248201527f5065726d697373696f6e65643a3a616c6c6f774465706f7369746f72000000006044820152606401610bba565b6001600160a01b0381166000908152600860205260409020805460ff19166001908117909155600754610e7e91614995565b6007556040516001600160a01b038216907fc0a1035c16faf8d1304056d92c00edf028f87e62b8235a938f00af9e3c0312c590600090a250565b6006546001600160a01b03163314610f005760405162461bcd60e51b81526020600482018190526024820152600080516020614c088339815191526044820152606401610bba565b600c5481151560ff909116151503610f1757600080fd5b600c805460ff19168215159081179091556040519081527f7b014ed3854e7f5cb0218d58b3c6ae7d53a68bb0af2f67bfb029ea42c38a7e85906020015b60405180910390a150565b6006546001600160a01b03163314610fa75760405162461bcd60e51b81526020600482018190526024820152600080516020614c088339815191526044820152606401610bba565b60008111610fb457600080fd5b604051339082156108fc029083906000818181858888f19350505050158015610fe1573d6000803e3d6000fd5b506040805160008152602081018390527f8c1256b8896378cd5044f80c202f9772b9d77dc85c8a6eb51967210b09bfaa289101610f54565b6006546001600160a01b031633146110615760405162461bcd60e51b81526020600482018190526024820152600080516020614c088339815191526044820152606401610bba565b6006546040516000916001600160a01b0316907f8be0079c531659141344cd1fd0a4f28419497f9722a3daafe3b4186f6b6457e0908390a3600680546001600160a01b0319169055565b6006546001600160a01b031633146110f35760405162461bcd60e51b81526020600482018190526024820152600080516020614c088339815191526044820152606401610bba565b60405163095ea7b360e01b81526001600160a01b0382811660048301526000602483015283169063095ea7b3906044016020604051808303816000875af1158015611142573d6000803e3d6000fd5b505050506040513d601f19601f8201168201806040525081019061116691906149ad565b610c6c57600080fd5b6040517f93f1a40b0000000000000000000000000000000000000000000000000000000081527f0000000000000000000000000000000000000000000000000000000000000000600482015230602482015260009081906001600160a01b037f000000000000000000000000000000000000000000000000000000000000000016906393f1a40b906044016040805180830381865afa158015611216573d6000803e3d6000fd5b505050506040513d601f19601f8201168201806040525081019061123a91906149ca565b5092915050565b6006546001600160a01b031633146112895760405162461bcd60e51b81526020600482018190526024820152600080516020614c088339815191526044820152606401610bba565b600a5460408051918252602082018390527f481f79ac3a523b6d6db3c5a720e190e986d1cc1b41adcdf50f9caef849901100910160405180910390a1600a55565b6006546001600160a01b031633146113125760405162461bcd60e51b81526020600482018190526024820152600080516020614c088339815191526044820152606401610bba565b6000811161131f57600080fd5b6113336001600160a01b0383163383612a69565b604080516001600160a01b0384168152602081018390527f8c1256b8896378cd5044f80c202f9772b9d77dc85c8a6eb51967210b09bfaa2891015b60405180910390a15050565b6006546001600160a01b031633146113c25760405162461bcd60e51b81526020600482018190526024820152600080516020614c088339815191526044820152606401610bba565b60006007541161143a5760405162461bcd60e51b815260206004820152603460248201527f5065726d697373696f6e65643a3a72656d6f76654465706f7369746f722c206e60448201527f6f20616c6c6f776564206465706f7369746f72730000000000000000000000006064820152608401610bba565b6001600160a01b03811660009081526008602052604090205460ff1615156001146114cd5760405162461bcd60e51b815260206004820152602a60248201527f5065726d697373696f6e65643a3a72656d6f76654465706f7369746f722c206e60448201527f6f7420616c6c6f776564000000000000000000000000000000000000000000006064820152608401610bba565b6001600160a01b0381166000908152600860205260409020805460ff191690556007546114fc9060019061497e565b6007556040516001600160a01b038216907f0e86f6608b536e5339a25b65ff531f5ea91e1313d056ecd4752b35cbd16137d490600090a250565b6009546001600160a01b031633146115875760405162461bcd60e51b81526020600482015260146024820152732cb0b5a9ba3930ba32b3bc9d1d37b7363ca232bb60611b6044820152606401610bba565b600954604080516001600160a01b03928316815291831660208301527fa8e91499ed37682f43cffb045fcc7d379a91e8c9a14e6321877ee34dee564c00910160405180910390a1600980546001600160a01b0319166001600160a01b0392909216919091179055565b6001805461099f9061492e565b6006546001600160a01b031633146116455760405162461bcd60e51b81526020600482018190526024820152600080516020614c088339815191526044820152606401610bba565b612710600e54826116569190614995565b111561166157600080fd5b600f5460408051918252602082018390527f2a42303d002f0ba6cfe8259c91d4684443fb0b3de286ba74991175d651726131910160405180910390a1600f55565b6009546001600160a01b031633146116f35760405162461bcd60e51b81526020600482015260146024820152732cb0b5a9ba3930ba32b3bc9d1d37b7363ca232bb60611b6044820152606401610bba565b6001600160a01b038116600090815260106020526040812080546001600160a01b031990811682556001820180549091169055600201819055805b6011548110156117fa576011818154811061174b5761174b6149ee565b6000918252602090912001546001600160a01b03908116908416036117e857601180546001935061177d90849061497e565b8154811061178d5761178d6149ee565b600091825260209091200154601180546001600160a01b0390921691839081106117b9576117b96149ee565b9060005260206000200160006101000a8154816001600160a01b0302191690836001600160a01b031602179055505b806117f281614a04565b91505061172e565b508061186e5760405162461bcd60e51b815260206004820152603460248201527f5661726961626c655265776172647353747261746567793a3a5265776172642060448201527f746f2064656c657465206e6f7420666f756e64210000000000000000000000006064820152608401610bba565b601180548061187f5761187f614a1d565b600082815260209020810160001990810180546001600160a01b03191690550190556012546118b09060019061497e565b6012556040516001600160a01b03831681527f963b7c735475147a62c589c2d7cb8ec4b0a6b7af4f97373d79ebfa42ab8aa7dc9060200161136e565b6006546001600160a01b031633146119345760405162461bcd60e51b81526020600482018190526024820152600080516020614c088339815191526044820152606401610bba565b612710600f54826119459190614995565b111561195057600080fd5b600e5460408051918252602082018390527fe7f97d51d307dc44045597c9978bec0f842e6bb40d19b9444084cfa30d9ed4f2910160405180910390a1600e55565b6000610a2d33848461287d565b6006546001600160a01b031633146119e65760405162461bcd60e51b81526020600482018190526024820152600080516020614c088339815191526044820152606401610bba565b6040516370a0823160e01b81523060048201526000907f00000000000000000000000000000000000000000000000000000000000000006001600160a01b0316906370a0823190602401602060405180830381865afa158015611a4d573d6000803e3d6000fd5b505050506040513d601f19601f82011682018060405250810190611a719190614a33565b9050611a7b612f83565b6040516370a0823160e01b81523060048201526000907f00000000000000000000000000000000000000000000000000000000000000006001600160a01b0316906370a0823190602401602060405180830381865afa158015611ae2573d6000803e3d6000fd5b505050506040513d601f19601f82011682018060405250810190611b069190614a33565b905083611b13838361497e565b1015611bad5760405162461bcd60e51b815260206004820152604d60248201527f5661726961626c655265776172647353747261746567793a3a456d657267656e60448201527f6379207769746864726177206d696e696d756d2072657475726e20616d6f756e60648201527f74206e6f74207265616368656400000000000000000000000000000000000000608482015260a401610bba565b7fc7606d21ac05cd309191543e409f0845c016120563783d70e4f41419dc0ef234611bd661116f565b6002546040805192835260208301919091520160405180910390a1600c5460ff161515600103611c0a57611c0a6000610eb8565b50505050565b611c1a3382612b7d565b50565b600080611c28611c5c565b9050600a548110611c5457612710600e5482611c449190614a4c565b611c4e9190614a6b565b91505090565b600091505090565b600080611c67613102565b6040516370a0823160e01b81523060048201529091506000906001600160a01b037f000000000000000000000000000000000000000000000000000000000000000016906370a0823190602401602060405180830381865afa158015611cd1573d6000803e3d6000fd5b505050506040513d601f19601f82011682018060405250810190611cf59190614a33565b90507f00000000000000000000000000000000000000000000000000000000000000006001600160a01b03167f00000000000000000000000000000000000000000000000000000000000000006001600160a01b031603611d5d57611d5a4782614995565b90505b60005b825181101561123a576000838281518110611d7d57611d7d6149ee565b60200260200101516000015190507f00000000000000000000000000000000000000000000000000000000000000006001600160a01b0316816001600160a01b031603611df457838281518110611dd657611dd66149ee565b60200260200101516020015183611ded9190614995565b9250611f82565b6001600160a01b03811615611f82576040516370a0823160e01b81523060048201526000906001600160a01b038316906370a0823190602401602060405180830381865afa158015611e4a573d6000803e3d6000fd5b505050506040513d601f19601f82011682018060405250810190611e6e9190614a33565b90506000858481518110611e8457611e846149ee565b60200260200101516020015182611e9b9190614995565b9050600060106000888781518110611eb557611eb56149ee565b602090810291909101810151516001600160a01b03908116835290820192909252604001600020600101541690508115801590611efa57506001600160a01b03811615155b15611f7e57611f7182857f000000000000000000000000000000000000000000000000000000000000000084601060008d8c81518110611f3c57611f3c6149ee565b6020026020010151600001516001600160a01b03166001600160a01b0316815260200190815260200160002060020154613269565b611f7b9087614995565b95505b5050505b5080611f8d81614a04565b915050611d60565b6006546001600160a01b03163314611fdd5760405162461bcd60e51b81526020600482018190526024820152600080516020614c088339815191526044820152606401610bba565b8015611fe857600080fd5b600d5460408051918252602082018390527f3cc372f330f95ac9540626dc8a25f5bf21ba607215a5d58304cb804d446f104a910160405180910390a1600d55565b6009546001600160a01b0316331461207a5760405162461bcd60e51b81526020600482015260146024820152732cb0b5a9ba3930ba32b3bc9d1d37b7363ca232bb60611b6044820152606401610bba565b612085838383612dad565b505050565b6009546001600160a01b031633146120db5760405162461bcd60e51b81526020600482015260146024820152732cb0b5a9ba3930ba32b3bc9d1d37b7363ca232bb60611b6044820152606401610bba565b610c6c8282613337565b428410156121355760405162461bcd60e51b815260206004820152600f60248201527f7065726d69743a3a6578706972656400000000000000000000000000000000006044820152606401610bba565b6001600160a01b038716600090815260056020526040812080547f6e71edae12b1b97f4d1f60370fef10105fa2faae0126114a169c64845d6126c9918a918a918a91908661218283614a04565b909155506040805160208101969096526001600160a01b0394851690860152929091166060840152608083015260a082015260c0810186905260e0016040516020818303038152906040528051906020012090506121e3888286868661356c565b6121ee888888612755565b5050505050505050565b600060025460001480612210575061220e61116f565b155b15612219575090565b61222161116f565b60025461222e9084614a4c565b610a6c9190614a6b565b6006546001600160a01b031633146122805760405162461bcd60e51b81526020600482018190526024820152600080516020614c088339815191526044820152606401610bba565b600b5460408051918252602082018390527fa5dae50539d56dfe1fb5273d883b0c39bc76750a25d036fc5fbd09ad8fd5f57f910160405180910390a1600b55565b601181815481106122d157600080fd5b6000918252602090912001546001600160a01b0316905081565b600060025460001480612303575061230161116f565b155b1561231057506000919050565b60025461231b61116f565b61222e9084614a4c565b60007f8b73c3c69bb8fe3d512ecc4cf759cc79239f7b179b0ffacaa9a75d522b39400f60001b600060405161235a9190614a8d565b6040519081900390207fc89efdaa54c0f20c7adf612882df0950f5a951637e0307cdcb4c672f298b8bc646604080516020810195909552840192909252606083015260808201523060a082015260c00160405160208183030381529060405280519060200120905090565b6006546001600160a01b0316331461240d5760405162461bcd60e51b81526020600482018190526024820152600080516020614c088339815191526044820152606401610bba565b6001600160a01b0381166124895760405162461bcd60e51b815260206004820152602660248201527f4f776e61626c653a206e6577206f776e657220697320746865207a65726f206160448201527f64647265737300000000000000000000000000000000000000000000000000006064820152608401610bba565b6006546040516001600160a01b038084169216907f8be0079c531659141344cd1fd0a4f28419497f9722a3daafe3b4186f6b6457e090600090a3600680546001600160a01b0319166001600160a01b0392909216919091179055565b3233146125345760405162461bcd60e51b815260206004820152601460248201527f59616b53747261746567793a3a6f6e6c79454f410000000000000000000000006044820152606401610bba565b61253e60006136cc565b565b6000836001600160a01b0316630dfe16816040518163ffffffff1660e01b8152600401602060405180830381865afa158015612580573d6000803e3d6000fd5b505050506040513d601f19601f820116820180604052508101906125a49190614b28565b6001600160a01b0316836001600160a01b031614806126355750836001600160a01b031663d21220a76040518163ffffffff1660e01b8152600401602060405180830381865afa1580156125fc573d6000803e3d6000fd5b505050506040513d601f19601f820116820180604052508101906126209190614b28565b6001600160a01b0316836001600160a01b0316145b801561272f5750836001600160a01b0316630dfe16816040518163ffffffff1660e01b8152600401602060405180830381865afa15801561267a573d6000803e3d6000fd5b505050506040513d601f19601f8201168201806040525081019061269e9190614b28565b6001600160a01b0316826001600160a01b0316148061272f5750836001600160a01b031663d21220a76040518163ffffffff1660e01b8152600401602060405180830381865afa1580156126f6573d6000803e3d6000fd5b505050506040513d601f19601f8201168201806040525081019061271a9190614b28565b6001600160a01b0316826001600160a01b0316145b801561274d5750816001600160a01b0316836001600160a01b031614155b949350505050565b6001600160a01b0383166127ab5760405162461bcd60e51b815260206004820152601c60248201527f5f617070726f76653a3a6f776e6572207a65726f2061646472657373000000006044820152606401610bba565b6001600160a01b0382166128015760405162461bcd60e51b815260206004820152601e60248201527f5f617070726f76653a3a7370656e646572207a65726f206164647265737300006044820152606401610bba565b6001600160a01b0383811660008181526003602090815260408083209487168084529482529182902085905590518481527f8c5be1e5ebec7d5bd14f71427d1e84f3dd0314c0f7b2291e5b200ac8c7c3b92591015b60405180910390a3505050565b6000806127106128738285614a4c565b610b349190614a6b565b6001600160a01b0382166128f95760405162461bcd60e51b815260206004820152603460248201527f5f7472616e73666572546f6b656e733a2063616e6e6f74207472616e7366657260448201527f20746f20746865207a65726f20616464726573730000000000000000000000006064820152608401610bba565b6001600160a01b03831660009081526004602052604090205461291d90829061497e565b6001600160a01b03808516600090815260046020526040808220939093559084168152205461294d908290614995565b6001600160a01b0380841660008181526004602052604090819020939093559151908516907fddf252ad1be2c89b69c2b068fc378daa952ba7f163c4a11628f55a4df523b3ef906128569085815260200190565b6040517f0ad58d2f0000000000000000000000000000000000000000000000000000000081527f00000000000000000000000000000000000000000000000000000000000000006004820152602481018290523060448201526000907f00000000000000000000000000000000000000000000000000000000000000006001600160a01b031690630ad58d2f90606401600060405180830381600087803b158015612a4b57600080fd5b505af1158015612a5f573d6000803e3d6000fd5b5093949350505050565b604080516001600160a01b038416602482015260448082018490528251808303909101815260649091019091526020810180517bffffffffffffffffffffffffffffffffffffffffffffffffffffffff167fa9059cbb00000000000000000000000000000000000000000000000000000000179052612085908490613899565b6001600160a01b038216600090815260046020526040902054612b0d90829061497e565b6001600160a01b038316600090815260046020526040902055600254612b3490829061497e565b6002556040518181526000906001600160a01b038416907fddf252ad1be2c89b69c2b068fc378daa952ba7f163c4a11628f55a4df523b3ef906020015b60405180910390a35050565b600c5460ff161515600114612bfa5760405162461bcd60e51b815260206004820152602a60248201527f5661726961626c655265776172647353747261746567793a3a4465706f73697460448201527f732064697361626c6564000000000000000000000000000000000000000000006064820152608401610bba565b600b548015612c23576000612c0d611c5c565b905081811115612c2157612c2160016136cc565b505b6040517f23b872dd000000000000000000000000000000000000000000000000000000008152336004820152306024820152604481018390527f00000000000000000000000000000000000000000000000000000000000000006001600160a01b0316906323b872dd906064016020604051808303816000875af1158015612caf573d6000803e3d6000fd5b505050506040513d601f19601f82011682018060405250810190612cd391906149ad565b612d455760405162461bcd60e51b815260206004820152603660248201527f5661726961626c655265776172647353747261746567793a3a4465706f73697460448201527f20746f6b656e207472616e73666572206661696c6564000000000000000000006064820152608401610bba565b6000612d5083612863565b9050612d6884612d6361090a848761497e565b61397e565b612d728382613a54565b836001600160a01b03167fe1fffcc4923d04b559f4d29a8bfc6cda04eb5b0d3c460751c2402c5c5cc9109c84604051610c5491815260200190565b7f00000000000000000000000000000000000000000000000000000000000000006001600160a01b0316836001600160a01b031614612e8557612e1182847f0000000000000000000000000000000000000000000000000000000000000000612540565b612e85576040805162461bcd60e51b81526020600482015260248101919091527f5661726961626c655265776172647353747261746567793a3a5377617020706160448201527f697220646f6573206e6f7420636f6e7461696e2072657761726420746f6b656e6064820152608401610bba565b604080516060810182526001600160a01b03808616808352858216602080850191825284860187815260008481526010909252958120945185549085166001600160a01b03199182161786559151600180870180549290961691841691909117909455945160029094019390935560118054808401825594527f31ecc21a745e3968a04e9570e4425bc18fa8019c68028196b546d1669c200c6890930180549092169092179055601254612f3891614995565b601255604080516001600160a01b038086168252841660208201527f916e172c080569186aa7ea048268267257cf7cc49505908863f747bca8620f80910160405180910390a1505050565b7f00000000000000000000000000000000000000000000000000000000000000006001600160a01b0316630ad58d2f7f0000000000000000000000000000000000000000000000000000000000000000612fdb61116f565b6040517fffffffff0000000000000000000000000000000000000000000000000000000060e085901b16815260048101929092526024820152306044820152606401600060405180830381600087803b15801561303757600080fd5b505af115801561304b573d6000803e3d6000fd5b505060405163095ea7b360e01b81526001600160a01b037f000000000000000000000000000000000000000000000000000000000000000081166004830152600060248301527f000000000000000000000000000000000000000000000000000000000000000016925063095ea7b391506044016020604051808303816000875af11580156130de573d6000803e3d6000fd5b505050506040513d601f19601f82011682018060405250810190611c1a91906149ad565b6040517f98969e820000000000000000000000000000000000000000000000000000000081527f000000000000000000000000000000000000000000000000000000000000000060048201523060248201526060906000906001600160a01b037f000000000000000000000000000000000000000000000000000000000000000016906398969e8290604401602060405180830381865afa1580156131ab573d6000803e3d6000fd5b505050506040513d601f19601f820116820180604052508101906131cf9190614a33565b60408051600180825281830190925291925060009190816020015b60408051808201909152600080825260208201528152602001906001900390816131ea579050509050604051806040016040528073b64e280e9d1b5dbec4accedb2257a87b400db1496001600160a01b031681526020018381525081600081518110613258576132586149ee565b602090810291909101015292915050565b6000806132768686613ad4565b509050600080856001600160a01b0316630902f1ac6040518163ffffffff1660e01b8152600401606060405180830381865afa1580156132ba573d6000803e3d6000fd5b505050506040513d601f19601f820116820180604052508101906132de9190614b63565b5091509150876001600160a01b0316836001600160a01b0316146132fe57905b61332a89836dffffffffffffffffffffffffffff16836dffffffffffffffffffffffffffff1688613b05565b9998505050505050505050565b6001600160a01b03821615613547576000826001600160a01b0316630dfe16816040518163ffffffff1660e01b8152600401602060405180830381865afa158015613386573d6000803e3d6000fd5b505050506040513d601f19601f820116820180604052508101906133aa9190614b28565b90506000836001600160a01b031663d21220a76040518163ffffffff1660e01b8152600401602060405180830381865afa1580156133ec573d6000803e3d6000fd5b505050506040513d601f19601f820116820180604052508101906134109190614b28565b90507f00000000000000000000000000000000000000000000000000000000000000006001600160a01b0316826001600160a01b0316148061348357507f00000000000000000000000000000000000000000000000000000000000000006001600160a01b0316816001600160a01b0316145b6134cf5760405162461bcd60e51b815260206004820152601b60248201527f4c6576656c53747261746567793a3a496e76616c6964207061697200000000006044820152606401610bba565b7f00000000000000000000000000000000000000000000000000000000000000006001600160a01b0316826001600160a01b03161461350e5781613510565b805b601380546001600160a01b039283166001600160a01b03199182161790915560148054969092169516949094179093555060155550565b601380546001600160a01b031990811690915560148054909116905560006015555050565b6000613576612325565b6040517f1901000000000000000000000000000000000000000000000000000000000000602082015260228101919091526042810186905260620160408051601f198184030181528282528051602091820120600080855291840180845281905260ff88169284019290925260608301869052608083018590529092509060019060a0016020604051602081039080840390855afa15801561361c573d6000803e3d6000fd5b5050604051601f1901519150506001600160a01b038116158015906136525750866001600160a01b0316816001600160a01b0316145b6136c35760405162461bcd60e51b8152602060048201526024808201527f417263683a3a76616c69646174655369673a20696e76616c6964207369676e6160448201527f74757265000000000000000000000000000000000000000000000000000000006064820152608401610bba565b50505050505050565b6136d4613b5f565b60006136de613c13565b90508161375d57600a5481101561375d5760405162461bcd60e51b815260206004820152603060248201527f5661726961626c655265776172647353747261746567793a3a5265696e76657360448201527f7420616d6f756e7420746f6f206c6f77000000000000000000000000000000006064820152608401610bba565b6000612710600f54836137709190614a4c565b61377a9190614a6b565b905080156137bc576009546137bc906001600160a01b037f00000000000000000000000000000000000000000000000000000000000000008116911683612a69565b6000612710600e54846137cf9190614a4c565b6137d99190614a6b565b90508015613815576138156001600160a01b037f0000000000000000000000000000000000000000000000000000000000000000163383612a69565b600061383482613825858761497e565b61382f919061497e565b613f09565b9050600061384182612863565b905061384d8282613a54565b7fc7606d21ac05cd309191543e409f0845c016120563783d70e4f41419dc0ef23461387661116f565b6002546040805192835260208301919091520160405180910390a1505050505050565b60006138ee826040518060400160405280602081526020017f5361666545524332303a206c6f772d6c6576656c2063616c6c206661696c6564815250856001600160a01b03166142139092919063ffffffff16565b805190915015612085578080602001905181019061390c91906149ad565b6120855760405162461bcd60e51b815260206004820152602a60248201527f5361666545524332303a204552433230206f7065726174696f6e20646964206e60448201527f6f742073756363656564000000000000000000000000000000000000000000006064820152608401610bba565b600081116139ce5760405162461bcd60e51b815260206004820152601260248201527f5f6d696e743a3a7a65726f2073686172657300000000000000000000000000006044820152606401610bba565b806002546139dc9190614995565b6002556001600160a01b038216600090815260046020526040902054613a03908290614995565b6001600160a01b0383166000818152600460205260408082209390935591519091907fddf252ad1be2c89b69c2b068fc378daa952ba7f163c4a11628f55a4df523b3ef90612b719085815260200190565b60008211613aca5760405162461bcd60e51b815260206004820152602d60248201527f5661726961626c655265776172647353747261746567793a3a5374616b65206160448201527f6d6f756e7420746f6f206c6f77000000000000000000000000000000000000006064820152608401610bba565b610c6c8282614222565b600080826001600160a01b0316846001600160a01b031610613af7578284613afa565b83835b915091509250929050565b600080613b148361271061497e565b613b1e9087614a4c565b90506000613b2c8583614a4c565b9050600082613b3d61271089614a4c565b613b479190614995565b9050613b538183614a6b565b98975050505050505050565b6040517f18fccc760000000000000000000000000000000000000000000000000000000081527f000000000000000000000000000000000000000000000000000000000000000060048201523060248201527f00000000000000000000000000000000000000000000000000000000000000006001600160a01b0316906318fccc7690604401600060405180830381600087803b158015613bff57600080fd5b505af1158015611c0a573d6000803e3d6000fd5b6040516370a0823160e01b815230600482015260009081906001600160a01b037f000000000000000000000000000000000000000000000000000000000000000016906370a0823190602401602060405180830381865afa158015613c7c573d6000803e3d6000fd5b505050506040513d601f19601f82011682018060405250810190613ca09190614a33565b60115490915060005b81811015613f0157600060118281548110613cc657613cc66149ee565b6000918252602090912001546001600160a01b0390811691507f0000000000000000000000000000000000000000000000000000000000000000168103613df157478015613d83577f00000000000000000000000000000000000000000000000000000000000000006001600160a01b031663d0e30db0826040518263ffffffff1660e01b81526004016000604051808303818588803b158015613d6957600080fd5b505af1158015613d7d573d6000803e3d6000fd5b50505050505b7f00000000000000000000000000000000000000000000000000000000000000006001600160a01b03167f00000000000000000000000000000000000000000000000000000000000000006001600160a01b031603613def57613de68186614995565b94505050613eef565b505b6040516370a0823160e01b81523060048201526000906001600160a01b038316906370a0823190602401602060405180830381865afa158015613e38573d6000803e3d6000fd5b505050506040513d601f19601f82011682018060405250810190613e5c9190614a33565b90508015613eec576001600160a01b03808316600090815260106020526040902060010154168015613eea57613edd82847f00000000000000000000000000000000000000000000000000000000000000008460106000896001600160a01b03166001600160a01b0316815260200190815260200160002060020154614399565b613ee79087614995565b95505b505b50505b80613ef981614a04565b915050613ca9565b509092915050565b6013546000906001600160a01b03168015613f6957613f62837f000000000000000000000000000000000000000000000000000000000000000083601460009054906101000a90046001600160a01b0316601554614399565b9250613f8c565b507f00000000000000000000000000000000000000000000000000000000000000005b6040516370a0823160e01b81523060048201526000907f00000000000000000000000000000000000000000000000000000000000000006001600160a01b0316906370a0823190602401602060405180830381865afa158015613ff3573d6000803e3d6000fd5b505050506040513d601f19601f820116820180604052508101906140179190614a33565b60405163095ea7b360e01b81526001600160a01b037f000000000000000000000000000000000000000000000000000000000000000081166004830152602482018790529192509083169063095ea7b3906044016020604051808303816000875af115801561408a573d6000803e3d6000fd5b505050506040513d601f19601f820116820180604052508101906140ae91906149ad565b506040517f4b2fc7bb0000000000000000000000000000000000000000000000000000000081526001600160a01b037f000000000000000000000000000000000000000000000000000000000000000081166004830152838116602483015260448201869052600060648301523060848301527f00000000000000000000000000000000000000000000000000000000000000001690634b2fc7bb9060a401600060405180830381600087803b15801561416757600080fd5b505af115801561417b573d6000803e3d6000fd5b50506040516370a0823160e01b81523060048201528392507f00000000000000000000000000000000000000000000000000000000000000006001600160a01b031691506370a0823190602401602060405180830381865afa1580156141e5573d6000803e3d6000fd5b505050506040513d601f19601f820116820180604052508101906142099190614a33565b61274d919061497e565b606061274d8484600085614536565b60405163095ea7b360e01b81526001600160a01b037f000000000000000000000000000000000000000000000000000000000000000081166004830152602482018490527f0000000000000000000000000000000000000000000000000000000000000000169063095ea7b3906044016020604051808303816000875af11580156142b1573d6000803e3d6000fd5b505050506040513d601f19601f820116820180604052508101906142d591906149ad565b506040517f8dbdbe6d0000000000000000000000000000000000000000000000000000000081527f00000000000000000000000000000000000000000000000000000000000000006004820152602481018390523060448201527f00000000000000000000000000000000000000000000000000000000000000006001600160a01b031690638dbdbe6d90606401600060405180830381600087803b15801561437d57600080fd5b505af1158015614391573d6000803e3d6000fd5b505050505050565b6000806143a68686613ad4565b509050600080856001600160a01b0316630902f1ac6040518163ffffffff1660e01b8152600401606060405180830381865afa1580156143ea573d6000803e3d6000fd5b505050506040513d601f19601f8201168201806040525081019061440e9190614b63565b5091509150876001600160a01b0316836001600160a01b03161461442e57905b60008061445d8b856dffffffffffffffffffffffffffff16856dffffffffffffffffffffffffffff168a613b05565b9050896001600160a01b0316856001600160a01b03161461447a57905b61448e6001600160a01b038b16898d612a69565b604080516000815260208101918290527f022c0d9f000000000000000000000000000000000000000000000000000000009091526001600160a01b0389169063022c0d9f906144e69085908590309060248101614bb3565b600060405180830381600087803b15801561450057600080fd5b505af1158015614514573d6000803e3d6000fd5b505050508181116145255781614527565b805b9b9a5050505050505050505050565b6060824710156145ae5760405162461bcd60e51b815260206004820152602660248201527f416464726573733a20696e73756666696369656e742062616c616e636520666f60448201527f722063616c6c00000000000000000000000000000000000000000000000000006064820152608401610bba565b6001600160a01b0385163b6146055760405162461bcd60e51b815260206004820152601d60248201527f416464726573733a2063616c6c20746f206e6f6e2d636f6e74726163740000006044820152606401610bba565b600080866001600160a01b031685876040516146219190614beb565b60006040518083038185875af1925050503d806000811461465e576040519150601f19603f3d011682016040523d82523d6000602084013e614663565b606091505b509150915061467382828661467e565b979650505050505050565b6060831561468d575081610b34565b82511561469d5782518084602001fd5b8160405162461bcd60e51b8152600401610bba919061470f565b60005b838110156146d25781810151838201526020016146ba565b83811115611c0a5750506000910152565b600081518084526146fb8160208601602086016146b7565b601f01601f19169290920160200192915050565b602081526000610b3460208301846146e3565b6001600160a01b0381168114611c1a57600080fd5b6000806040838503121561474a57600080fd5b823561475581614722565b946020939093013593505050565b60006020828403121561477557600080fd5b5035919050565b60008060006060848603121561479157600080fd5b833561479c81614722565b925060208401356147ac81614722565b929592945050506040919091013590565b600080604083850312156147d057600080fd5b82356147db81614722565b915060208301356147eb81614722565b809150509250929050565b60006020828403121561480857600080fd5b8135610b3481614722565b803560ff8116811461482457600080fd5b919050565b600080600080600060a0868803121561484157600080fd5b853594506020860135935061485860408701614813565b94979396509394606081013594506080013592915050565b8015158114611c1a57600080fd5b60006020828403121561489057600080fd5b8135610b3481614870565b600080604083850312156148ae57600080fd5b8235915060208301356147eb81614870565b600080600080600080600060e0888a0312156148db57600080fd5b87356148e681614722565b965060208801356148f681614722565b9550604088013594506060880135935061491260808901614813565b925060a0880135915060c0880135905092959891949750929550565b600181811c9082168061494257607f821691505b60208210810361496257634e487b7160e01b600052602260045260246000fd5b50919050565b634e487b7160e01b600052601160045260246000fd5b60008282101561499057614990614968565b500390565b600082198211156149a8576149a8614968565b500190565b6000602082840312156149bf57600080fd5b8151610b3481614870565b600080604083850312156149dd57600080fd5b505080516020909101519092909150565b634e487b7160e01b600052603260045260246000fd5b600060018201614a1657614a16614968565b5060010190565b634e487b7160e01b600052603160045260246000fd5b600060208284031215614a4557600080fd5b5051919050565b6000816000190483118215151615614a6657614a66614968565b500290565b600082614a8857634e487b7160e01b600052601260045260246000fd5b500490565b600080835481600182811c915080831680614aa957607f831692505b60208084108203614ac857634e487b7160e01b86526022600452602486fd5b818015614adc5760018114614aed57614b1a565b60ff19861689528489019650614b1a565b60008a81526020902060005b86811015614b125781548b820152908501908301614af9565b505084890196505b509498975050505050505050565b600060208284031215614b3a57600080fd5b8151610b3481614722565b80516dffffffffffffffffffffffffffff8116811461482457600080fd5b600080600060608486031215614b7857600080fd5b614b8184614b45565b9250614b8f60208501614b45565b9150604084015163ffffffff81168114614ba857600080fd5b809150509250925092565b8481528360208201526001600160a01b0383166040820152608060608201526000614be160808301846146e3565b9695505050505050565b60008251614bfd8184602087016146b7565b919091019291505056fe4f776e61626c653a2063616c6c6572206973206e6f7420746865206f776e6572a26469706673582212200d0f0bfbb1202056efd24ad467a6df731d25d3380fda37576e1b6f150f7d624c64736f6c634300080d00334f776e61626c653a2063616c6c6572206973206e6f7420746865206f776e65728be0079c531659141344cd1fd0a4f28419497f9722a3daafe3b4186f6b6457e0",
  "devdoc": {
    "kind": "dev",
    "methods": {
      "allowDepositor(address)": {
        "params": {
          "depositor": "address"
        }
      },
      "allowance(address,address)": {
        "params": {
          "account": "The address of the account holding the funds",
          "spender": "The address of the account spending the funds"
        },
        "returns": {
          "_0": "The number of tokens approved"
        }
      },
      "approve(address,uint256)": {
        "details": "This will overwrite the approval amount for `spender` and is subject to issues noted [here](https://eips.ethereum.org/EIPS/eip-20#approve) It is recommended to use increaseAllowance and decreaseAllowance instead",
        "params": {
          "amount": "The number of tokens that are approved (2^256-1 means infinite)",
          "spender": "The address of the account which may transfer tokens"
        },
        "returns": {
          "_0": "Whether or not the approval succeeded"
        }
      },
      "balanceOf(address)": {
        "params": {
          "account": "The address of the account to get the balance of"
        },
        "returns": {
          "_0": "The number of tokens held"
        }
      },
      "checkReward()": {
        "returns": {
          "_0": "reward tokens"
        }
      },
      "deposit(uint256)": {
        "params": {
          "_amount": "Amount of tokens to deposit"
        }
      },
      "depositWithPermit(uint256,uint256,uint8,bytes32,bytes32)": {
        "params": {
          "_amount": "Amount of tokens to deposit",
          "_deadline": "The time at which to expire the signature",
          "_r": "Half of the ECDSA signature pair",
          "_s": "Half of the ECDSA signature pair",
          "_v": "The recovery byte of the signature"
        }
      },
      "estimateDeployedBalance()": {
        "returns": {
          "_0": "deposit tokens after withdraw fee"
        }
      },
      "estimateReinvestReward()": {
        "returns": {
          "_0": "reward tokens"
        }
      },
      "getDepositTokensForShares(uint256)": {
        "params": {
          "amount": "receipt tokens"
        },
        "returns": {
          "_0": "deposit tokens"
        }
      },
      "getDomainSeparator()": {
        "returns": {
          "_0": "Separator"
        }
      },
      "getSharesForDepositTokens(uint256)": {
        "details": "If contract is empty, use 1:1 ratioCould return zero shares for very low amounts of deposit tokens",
        "params": {
          "amount": "deposit tokens"
        },
        "returns": {
          "_0": "receipt tokens"
        }
      },
      "owner()": {
        "details": "Returns the address of the current owner."
      },
      "permit(address,address,uint256,uint256,uint8,bytes32,bytes32)": {
        "params": {
          "deadline": "The time at which to expire the signature",
          "owner": "The address to approve from",
          "r": "Half of the ECDSA signature pair",
          "s": "Half of the ECDSA signature pair",
          "spender": "The address to be approved",
          "v": "The recovery byte of the signature",
          "value": "The number of tokens that are approved (2^256-1 means infinite)"
        }
      },
      "recoverAVAX(uint256)": {
        "params": {
          "amount": "amount"
        }
      },
      "recoverERC20(address,uint256)": {
        "params": {
          "tokenAddress": "token address",
          "tokenAmount": "amount to recover"
        }
      },
      "removeDepositor(address)": {
        "params": {
          "depositor": "address"
        }
      },
      "renounceOwnership()": {
        "details": "Leaves the contract without owner. It will not be possible to call `onlyOwner` functions anymore. Can only be called by the current owner. NOTE: Renouncing ownership will leave the contract without an owner, thereby removing any functionality that is only available to the owner."
      },
      "revokeAllowance(address,address)": {
        "params": {
          "spender": "address",
          "token": "address"
        }
      },
      "totalDeposits()": {
        "returns": {
          "_0": "total deposits available on the contract"
        }
      },
      "transfer(address,uint256)": {
        "params": {
          "amount": "The number of tokens to transfer",
          "dst": "The address of the destination account"
        },
        "returns": {
          "_0": "Whether or not the transfer succeeded"
        }
      },
      "transferFrom(address,address,uint256)": {
        "params": {
          "amount": "The number of tokens to transfer",
          "dst": "The address of the destination account",
          "src": "The address of the source account"
        },
        "returns": {
          "_0": "Whether or not the transfer succeeded"
        }
      },
      "transferOwnership(address)": {
        "details": "Transfers ownership of the contract to a new account (`newOwner`). Can only be called by the current owner."
      },
      "updateAdminFee(uint256)": {
        "details": "Deprecated; Kept for compatibility",
        "params": {
          "newValue": "fee in BIPS; required to be 0"
        }
      },
      "updateDepositsEnabled(bool)": {
        "params": {
          "newValue": "bool"
        }
      },
      "updateDevAddr(address)": {
        "params": {
          "newValue": "address"
        }
      },
      "updateDevFee(uint256)": {
        "params": {
          "newValue": "fee in BIPS"
        }
      },
      "updateMaxTokensToDepositWithoutReinvest(uint256)": {
        "params": {
          "newValue": "threshold"
        }
      },
      "updateMinTokensToReinvest(uint256)": {
        "params": {
          "newValue": "threshold"
        }
      },
      "updateReinvestReward(uint256)": {
        "params": {
          "newValue": "fee in BIPS"
        }
      }
    },
    "version": 1
  },
  "userdoc": {
    "kind": "user",
    "methods": {
      "allowDepositor(address)": {
        "notice": "Add an allowed depositor"
      },
      "allowance(address,address)": {
        "notice": "Get the number of tokens `spender` is approved to spend on behalf of `account`"
      },
      "approve(address,uint256)": {
        "notice": "Approve `spender` to transfer up to `amount` from `src`"
      },
      "balanceOf(address)": {
        "notice": "Get the number of tokens held by the `account`"
      },
      "checkReward()": {
        "notice": "Reward tokens available to strategy, including balance"
      },
      "deposit(uint256)": {
        "notice": "Deposit tokens to receive receipt tokens"
      },
      "depositWithPermit(uint256,uint256,uint8,bytes32,bytes32)": {
        "notice": "Deposit using Permit"
      },
      "estimateDeployedBalance()": {
        "notice": "Estimate recoverable balance after withdraw fee"
      },
      "estimateReinvestReward()": {
        "notice": "Estimate reinvest reward"
      },
      "getDepositTokensForShares(uint256)": {
        "notice": "Calculate deposit tokens for a given amount of receipt tokens"
      },
      "getDomainSeparator()": {
        "notice": "EIP-712 Domain separator"
      },
      "getSharesForDepositTokens(uint256)": {
        "notice": "Calculate receipt tokens for a given amount of deposit tokens"
      },
      "permit(address,address,uint256,uint256,uint8,bytes32,bytes32)": {
        "notice": "Triggers an approval from owner to spender"
      },
      "recoverAVAX(uint256)": {
        "notice": "Recover AVAX from contract"
      },
      "recoverERC20(address,uint256)": {
        "notice": "Recover ERC20 from contract"
      },
      "reinvest()": {
        "notice": "Reinvest reward tokens into deposit tokens"
      },
      "removeDepositor(address)": {
        "notice": "Remove an allowed depositor"
      },
      "revokeAllowance(address,address)": {
        "notice": "Revoke token allowance"
      },
      "totalDeposits()": {
        "notice": "This function returns a snapshot of last available quotes"
      },
      "transfer(address,uint256)": {
        "notice": "Transfer `amount` tokens from `msg.sender` to `dst`"
      },
      "transferFrom(address,address,uint256)": {
        "notice": "Transfer `amount` tokens from `src` to `dst`"
      },
      "updateAdminFee(uint256)": {
        "notice": "Update admin fee"
      },
      "updateDepositsEnabled(bool)": {
        "notice": "Enable/disable deposits"
      },
      "updateDevAddr(address)": {
        "notice": "Update devAddr"
      },
      "updateDevFee(uint256)": {
        "notice": "Update developer fee"
      },
      "updateMaxTokensToDepositWithoutReinvest(uint256)": {
        "notice": "Update reinvest max threshold before a deposit"
      },
      "updateMinTokensToReinvest(uint256)": {
        "notice": "Update reinvest min threshold"
      },
      "updateReinvestReward(uint256)": {
        "notice": "Update reinvest reward"
      }
    },
    "version": 1
  },
  "storageLayout": {
    "storage": [
      {
        "astId": 552,
        "contract": "contracts/strategies/arbitrum/level/LevelStrategy.sol:LevelStrategy",
        "label": "name",
        "offset": 0,
        "slot": "0",
        "type": "t_string_storage"
      },
      {
        "astId": 555,
        "contract": "contracts/strategies/arbitrum/level/LevelStrategy.sol:LevelStrategy",
        "label": "symbol",
        "offset": 0,
        "slot": "1",
        "type": "t_string_storage"
      },
      {
        "astId": 560,
        "contract": "contracts/strategies/arbitrum/level/LevelStrategy.sol:LevelStrategy",
        "label": "totalSupply",
        "offset": 0,
        "slot": "2",
        "type": "t_uint256"
      },
      {
        "astId": 566,
        "contract": "contracts/strategies/arbitrum/level/LevelStrategy.sol:LevelStrategy",
        "label": "allowances",
        "offset": 0,
        "slot": "3",
        "type": "t_mapping(t_address,t_mapping(t_address,t_uint256))"
      },
      {
        "astId": 570,
        "contract": "contracts/strategies/arbitrum/level/LevelStrategy.sol:LevelStrategy",
        "label": "balances",
        "offset": 0,
        "slot": "4",
        "type": "t_mapping(t_address,t_uint256)"
      },
      {
        "astId": 586,
        "contract": "contracts/strategies/arbitrum/level/LevelStrategy.sol:LevelStrategy",
        "label": "nonces",
        "offset": 0,
        "slot": "5",
        "type": "t_mapping(t_address,t_uint256)"
      },
      {
        "astId": 8327,
        "contract": "contracts/strategies/arbitrum/level/LevelStrategy.sol:LevelStrategy",
        "label": "_owner",
        "offset": 0,
        "slot": "6",
        "type": "t_address"
      },
      {
        "astId": 8436,
        "contract": "contracts/strategies/arbitrum/level/LevelStrategy.sol:LevelStrategy",
        "label": "numberOfAllowedDepositors",
        "offset": 0,
        "slot": "7",
        "type": "t_uint256"
      },
      {
        "astId": 8440,
        "contract": "contracts/strategies/arbitrum/level/LevelStrategy.sol:LevelStrategy",
        "label": "allowedDepositors",
        "offset": 0,
        "slot": "8",
        "type": "t_mapping(t_address,t_bool)"
      },
      {
        "astId": 1967,
        "contract": "contracts/strategies/arbitrum/level/LevelStrategy.sol:LevelStrategy",
        "label": "devAddr",
        "offset": 0,
        "slot": "9",
        "type": "t_address"
      },
      {
        "astId": 1969,
        "contract": "contracts/strategies/arbitrum/level/LevelStrategy.sol:LevelStrategy",
        "label": "MIN_TOKENS_TO_REINVEST",
        "offset": 0,
        "slot": "10",
        "type": "t_uint256"
      },
      {
        "astId": 1971,
        "contract": "contracts/strategies/arbitrum/level/LevelStrategy.sol:LevelStrategy",
        "label": "MAX_TOKENS_TO_DEPOSIT_WITHOUT_REINVEST",
        "offset": 0,
        "slot": "11",
        "type": "t_uint256"
      },
      {
        "astId": 1973,
        "contract": "contracts/strategies/arbitrum/level/LevelStrategy.sol:LevelStrategy",
        "label": "DEPOSITS_ENABLED",
        "offset": 0,
        "slot": "12",
        "type": "t_bool"
      },
      {
        "astId": 1975,
        "contract": "contracts/strategies/arbitrum/level/LevelStrategy.sol:LevelStrategy",
        "label": "ADMIN_FEE_BIPS",
        "offset": 0,
        "slot": "13",
        "type": "t_uint256"
      },
      {
        "astId": 1977,
        "contract": "contracts/strategies/arbitrum/level/LevelStrategy.sol:LevelStrategy",
        "label": "REINVEST_REWARD_BIPS",
        "offset": 0,
        "slot": "14",
        "type": "t_uint256"
      },
      {
        "astId": 1979,
        "contract": "contracts/strategies/arbitrum/level/LevelStrategy.sol:LevelStrategy",
        "label": "DEV_FEE_BIPS",
        "offset": 0,
        "slot": "15",
        "type": "t_uint256"
      },
      {
        "astId": 12191,
        "contract": "contracts/strategies/arbitrum/level/LevelStrategy.sol:LevelStrategy",
        "label": "rewardSwapPairs",
        "offset": 0,
        "slot": "16",
        "type": "t_mapping(t_address,t_struct(RewardSwapPair)12186_storage)"
      },
      {
        "astId": 12194,
        "contract": "contracts/strategies/arbitrum/level/LevelStrategy.sol:LevelStrategy",
        "label": "supportedRewards",
        "offset": 0,
        "slot": "17",
        "type": "t_array(t_address)dyn_storage"
      },
      {
        "astId": 12196,
        "contract": "contracts/strategies/arbitrum/level/LevelStrategy.sol:LevelStrategy",
        "label": "rewardCount",
        "offset": 0,
        "slot": "18",
        "type": "t_uint256"
      },
      {
        "astId": 15917,
        "contract": "contracts/strategies/arbitrum/level/LevelStrategy.sol:LevelStrategy",
        "label": "lpTokenIn",
        "offset": 0,
        "slot": "19",
        "type": "t_address"
      },
      {
        "astId": 15919,
        "contract": "contracts/strategies/arbitrum/level/LevelStrategy.sol:LevelStrategy",
        "label": "pairLpTokenIn",
        "offset": 0,
        "slot": "20",
        "type": "t_address"
      },
      {
        "astId": 15921,
        "contract": "contracts/strategies/arbitrum/level/LevelStrategy.sol:LevelStrategy",
        "label": "feePairLpTokenIn",
        "offset": 0,
        "slot": "21",
        "type": "t_uint256"
      }
    ],
    "types": {
      "t_address": {
        "encoding": "inplace",
        "label": "address",
        "numberOfBytes": "20"
      },
      "t_array(t_address)dyn_storage": {
        "base": "t_address",
        "encoding": "dynamic_array",
        "label": "address[]",
        "numberOfBytes": "32"
      },
      "t_bool": {
        "encoding": "inplace",
        "label": "bool",
        "numberOfBytes": "1"
      },
      "t_mapping(t_address,t_bool)": {
        "encoding": "mapping",
        "key": "t_address",
        "label": "mapping(address => bool)",
        "numberOfBytes": "32",
        "value": "t_bool"
      },
      "t_mapping(t_address,t_mapping(t_address,t_uint256))": {
        "encoding": "mapping",
        "key": "t_address",
        "label": "mapping(address => mapping(address => uint256))",
        "numberOfBytes": "32",
        "value": "t_mapping(t_address,t_uint256)"
      },
      "t_mapping(t_address,t_struct(RewardSwapPair)12186_storage)": {
        "encoding": "mapping",
        "key": "t_address",
        "label": "mapping(address => struct VariableRewardsStrategy.RewardSwapPair)",
        "numberOfBytes": "32",
        "value": "t_struct(RewardSwapPair)12186_storage"
      },
      "t_mapping(t_address,t_uint256)": {
        "encoding": "mapping",
        "key": "t_address",
        "label": "mapping(address => uint256)",
        "numberOfBytes": "32",
        "value": "t_uint256"
      },
      "t_string_storage": {
        "encoding": "bytes",
        "label": "string",
        "numberOfBytes": "32"
      },
      "t_struct(RewardSwapPair)12186_storage": {
        "encoding": "inplace",
        "label": "struct VariableRewardsStrategy.RewardSwapPair",
        "members": [
          {
            "astId": 12181,
            "contract": "contracts/strategies/arbitrum/level/LevelStrategy.sol:LevelStrategy",
            "label": "reward",
            "offset": 0,
            "slot": "0",
            "type": "t_address"
          },
          {
            "astId": 12183,
            "contract": "contracts/strategies/arbitrum/level/LevelStrategy.sol:LevelStrategy",
            "label": "swapPair",
            "offset": 0,
            "slot": "1",
            "type": "t_address"
          },
          {
            "astId": 12185,
            "contract": "contracts/strategies/arbitrum/level/LevelStrategy.sol:LevelStrategy",
            "label": "swapFee",
            "offset": 0,
            "slot": "2",
            "type": "t_uint256"
          }
        ],
        "numberOfBytes": "96"
      },
      "t_uint256": {
        "encoding": "inplace",
        "label": "uint256",
        "numberOfBytes": "32"
      }
    }
  }
}