{
  "address": "0x6BbeA2dbA0Ea15F17C92F84765ae1c3Ab651dF58",
  "abi": [
    {
      "inputs": [],
      "stateMutability": "nonpayable",
      "type": "constructor"
    },
    {
      "inputs": [
        {
          "internalType": "address",
          "name": "pairAddress",
          "type": "address"
        }
      ],
      "name": "pairInfo",
      "outputs": [
        {
          "components": [
            {
              "internalType": "string",
              "name": "symbol",
              "type": "string"
            },
            {
              "internalType": "uint256",
              "name": "totalSupply",
              "type": "uint256"
            },
            {
              "internalType": "address",
              "name": "token0",
              "type": "address"
            },
            {
              "internalType": "address",
              "name": "token1",
              "type": "address"
            },
            {
              "internalType": "string",
              "name": "token0Symbol",
              "type": "string"
            },
            {
              "internalType": "string",
              "name": "token1Symbol",
              "type": "string"
            },
            {
              "internalType": "uint8",
              "name": "token0Decimals",
              "type": "uint8"
            },
            {
              "internalType": "uint8",
              "name": "token1Decimals",
              "type": "uint8"
            },
            {
              "internalType": "uint256",
              "name": "reserve0",
              "type": "uint256"
            },
            {
              "internalType": "uint256",
              "name": "reserve1",
              "type": "uint256"
            }
          ],
          "internalType": "struct PairHelper.PairInfo",
          "name": "",
          "type": "tuple"
        }
      ],
      "stateMutability": "view",
      "type": "function"
    }
  ],
  "transactionHash": "0xe428d14a5bbf6b9b8fd969bcbf25e6bc931806bb70420c22ff7d98b22a3ef124",
  "args": [],
  "solcInputHash": "5a03efda85de6b3c43b109b417ee4179",
  "bytecode": "0x608060405234801561001057600080fd5b506108a7806100206000396000f3fe608060405234801561001057600080fd5b506004361061002b5760003560e01c8063dc0a422914610030575b600080fd5b61004361003e366004610569565b610059565b60405161005091906105e9565b60405180910390f35b6100c7604051806101400160405280606081526020016000815260200160006001600160a01b0316815260200160006001600160a01b031681526020016060815260200160608152602001600060ff168152602001600060ff16815260200160008152602001600081525090565b604080516101408101825260608082526000602083018190529282018390528082018390526080820181905260a082015260c0810182905260e0810182905261010081018290526101208101919091528290816001600160a01b03166395d89b416040518163ffffffff1660e01b8152600401600060405180830381865afa158015610157573d6000803e3d6000fd5b505050506040513d6000823e601f3d908101601f1916820160405261017f91908101906106f8565b8160000181905250816001600160a01b03166318160ddd6040518163ffffffff1660e01b8152600401602060405180830381865afa1580156101c5573d6000803e3d6000fd5b505050506040513d601f19601f820116820180604052508101906101e991906107a5565b816020018181525050816001600160a01b0316630dfe16816040518163ffffffff1660e01b8152600401602060405180830381865afa158015610230573d6000803e3d6000fd5b505050506040513d601f19601f8201168201806040525081019061025491906107be565b81604001906001600160a01b031690816001600160a01b031681525050816001600160a01b031663d21220a76040518163ffffffff1660e01b8152600401602060405180830381865afa1580156102af573d6000803e3d6000fd5b505050506040513d601f19601f820116820180604052508101906102d391906107be565b81606001906001600160a01b031690816001600160a01b03168152505080604001516001600160a01b03166395d89b416040518163ffffffff1660e01b8152600401600060405180830381865afa158015610332573d6000803e3d6000fd5b505050506040513d6000823e601f3d908101601f1916820160405261035a91908101906106f8565b816080018190525080606001516001600160a01b03166395d89b416040518163ffffffff1660e01b8152600401600060405180830381865afa1580156103a4573d6000803e3d6000fd5b505050506040513d6000823e601f3d908101601f191682016040526103cc91908101906106f8565b8160a0018190525080604001516001600160a01b031663313ce5676040518163ffffffff1660e01b8152600401602060405180830381865afa158015610416573d6000803e3d6000fd5b505050506040513d601f19601f8201168201806040525081019061043a91906107db565b8160c0019060ff16908160ff168152505080606001516001600160a01b031663313ce5676040518163ffffffff1660e01b8152600401602060405180830381865afa15801561048d573d6000803e3d6000fd5b505050506040513d601f19601f820116820180604052508101906104b191906107db565b8160e0019060ff16908160ff1681525050600080836001600160a01b0316630902f1ac6040518163ffffffff1660e01b8152600401606060405180830381865afa158015610503573d6000803e3d6000fd5b505050506040513d601f19601f820116820180604052508101906105279190610821565b506dffffffffffffffffffffffffffff918216610100860152166101208401525090949350505050565b6001600160a01b038116811461056657600080fd5b50565b60006020828403121561057b57600080fd5b813561058681610551565b9392505050565b60005b838110156105a8578181015183820152602001610590565b838111156105b7576000848401525b50505050565b600081518084526105d581602086016020860161058d565b601f01601f19169290920160200192915050565b60208152600082516101408060208501526106086101608501836105bd565b915060208501516040850152604085015161062e60608601826001600160a01b03169052565b5060608501516001600160a01b0381166080860152506080850151601f19808685030160a087015261066084836105bd565b935060a08701519150808685030160c08701525061067e83826105bd565b92505060c085015161069560e086018260ff169052565b5060e08501516101006106ac8187018360ff169052565b860151610120868101919091529095015193019290925250919050565b7f4e487b7100000000000000000000000000000000000000000000000000000000600052604160045260246000fd5b60006020828403121561070a57600080fd5b815167ffffffffffffffff8082111561072257600080fd5b818401915084601f83011261073657600080fd5b815181811115610748576107486106c9565b604051601f8201601f19908116603f01168101908382118183101715610770576107706106c9565b8160405282815287602084870101111561078957600080fd5b61079a83602083016020880161058d565b979650505050505050565b6000602082840312156107b757600080fd5b5051919050565b6000602082840312156107d057600080fd5b815161058681610551565b6000602082840312156107ed57600080fd5b815160ff8116811461058657600080fd5b80516dffffffffffffffffffffffffffff8116811461081c57600080fd5b919050565b60008060006060848603121561083657600080fd5b61083f846107fe565b925061084d602085016107fe565b9150604084015163ffffffff8116811461086657600080fd5b80915050925092509256fea2646970667358221220c249d61fe5ff198eb48724ce70e89f13594ea1c1a67dd16fb023abab9a13edd364736f6c634300080d0033",
  "devdoc": {
    "kind": "dev",
    "methods": {},
    "version": 1
  },
  "userdoc": {
    "kind": "user",
    "methods": {},
    "version": 1
  },
  "storageLayout": {
    "storage": [],
    "types": null
  }
}