{
  "address": "0x2eDD3f3CD25E04bf2640F9fc77b24d9F0023C81e",
  "abi": [
    {
      "inputs": [],
      "stateMutability": "nonpayable",
      "type": "constructor"
    },
    {
      "inputs": [
        {
          "internalType": "address",
          "name": "pairAddress",
          "type": "address"
        }
      ],
      "name": "oracleVaultInfo",
      "outputs": [
        {
          "components": [
            {
              "internalType": "string",
              "name": "symbol",
              "type": "string"
            },
            {
              "internalType": "uint256",
              "name": "totalSupply",
              "type": "uint256"
            },
            {
              "internalType": "uint8",
              "name": "decimals",
              "type": "uint8"
            },
            {
              "internalType": "address",
              "name": "token0",
              "type": "address"
            },
            {
              "internalType": "address",
              "name": "token1",
              "type": "address"
            },
            {
              "internalType": "string",
              "name": "token0Symbol",
              "type": "string"
            },
            {
              "internalType": "string",
              "name": "token1Symbol",
              "type": "string"
            },
            {
              "internalType": "uint8",
              "name": "token0Decimals",
              "type": "uint8"
            },
            {
              "internalType": "uint8",
              "name": "token1Decimals",
              "type": "uint8"
            },
            {
              "internalType": "uint256",
              "name": "reserve0",
              "type": "uint256"
            },
            {
              "internalType": "uint256",
              "name": "reserve1",
              "type": "uint256"
            }
          ],
          "internalType": "struct PairHelper.PairInfo",
          "name": "",
          "type": "tuple"
        }
      ],
      "stateMutability": "view",
      "type": "function"
    },
    {
      "inputs": [
        {
          "internalType": "address",
          "name": "pairAddress",
          "type": "address"
        }
      ],
      "name": "pairInfo",
      "outputs": [
        {
          "components": [
            {
              "internalType": "string",
              "name": "symbol",
              "type": "string"
            },
            {
              "internalType": "uint256",
              "name": "totalSupply",
              "type": "uint256"
            },
            {
              "internalType": "uint8",
              "name": "decimals",
              "type": "uint8"
            },
            {
              "internalType": "address",
              "name": "token0",
              "type": "address"
            },
            {
              "internalType": "address",
              "name": "token1",
              "type": "address"
            },
            {
              "internalType": "string",
              "name": "token0Symbol",
              "type": "string"
            },
            {
              "internalType": "string",
              "name": "token1Symbol",
              "type": "string"
            },
            {
              "internalType": "uint8",
              "name": "token0Decimals",
              "type": "uint8"
            },
            {
              "internalType": "uint8",
              "name": "token1Decimals",
              "type": "uint8"
            },
            {
              "internalType": "uint256",
              "name": "reserve0",
              "type": "uint256"
            },
            {
              "internalType": "uint256",
              "name": "reserve1",
              "type": "uint256"
            }
          ],
          "internalType": "struct PairHelper.PairInfo",
          "name": "",
          "type": "tuple"
        }
      ],
      "stateMutability": "view",
      "type": "function"
    }
  ],
  "transactionHash": "0x8bcb643e82f41916c52a65d49c606d81ae1845b25e3cedd07d2c8178a261acd1",
  "args": [],
  "solcInputHash": "a258ed40ae70097366049a5fb4515290",
  "bytecode": "0x608060405234801561001057600080fd5b50610ec1806100206000396000f3fe608060405234801561001057600080fd5b50600436106100365760003560e01c8063db442da91461003b578063dc0a422914610064575b600080fd5b61004e610049366004610b4f565b610077565b60405161005b9190610bcf565b60405180910390f35b61004e610072366004610b4f565b6105d9565b604080516101608101825260608082526000602083018190529282018390528082018390526080820183905260a0820181905260c082015260e0810182905261010081018290526101208101829052610140810191909152604080516101608101825260608082526000602083018190529282018390528082018390526080820183905260a0820181905260c082015260e08101829052610100810182905261012081018290526101408101919091528290816001600160a01b03166395d89b416040518163ffffffff1660e01b8152600401600060405180830381865afa158015610167573d6000803e3d6000fd5b505050506040513d6000823e601f3d908101601f1916820160405261018f9190810190610cee565b8160000181905250816001600160a01b03166318160ddd6040518163ffffffff1660e01b8152600401602060405180830381865afa1580156101d5573d6000803e3d6000fd5b505050506040513d601f19601f820116820180604052508101906101f99190610d9b565b816020018181525050816001600160a01b031663313ce5676040518163ffffffff1660e01b8152600401602060405180830381865afa158015610240573d6000803e3d6000fd5b505050506040513d601f19601f820116820180604052508101906102649190610db4565b816040019060ff16908160ff1681525050816001600160a01b03166305e8746d6040518163ffffffff1660e01b8152600401602060405180830381865afa1580156102b3573d6000803e3d6000fd5b505050506040513d601f19601f820116820180604052508101906102d79190610dd7565b81606001906001600160a01b031690816001600160a01b031681525050816001600160a01b031663da10610c6040518163ffffffff1660e01b8152600401602060405180830381865afa158015610332573d6000803e3d6000fd5b505050506040513d601f19601f820116820180604052508101906103569190610dd7565b81608001906001600160a01b031690816001600160a01b03168152505080606001516001600160a01b03166395d89b416040518163ffffffff1660e01b8152600401600060405180830381865afa1580156103b5573d6000803e3d6000fd5b505050506040513d6000823e601f3d908101601f191682016040526103dd9190810190610cee565b8160a0018190525080608001516001600160a01b03166395d89b416040518163ffffffff1660e01b8152600401600060405180830381865afa158015610427573d6000803e3d6000fd5b505050506040513d6000823e601f3d908101601f1916820160405261044f9190810190610cee565b8160c0018190525080606001516001600160a01b031663313ce5676040518163ffffffff1660e01b8152600401602060405180830381865afa158015610499573d6000803e3d6000fd5b505050506040513d601f19601f820116820180604052508101906104bd9190610db4565b8160e0019060ff16908160ff168152505080608001516001600160a01b031663313ce5676040518163ffffffff1660e01b8152600401602060405180830381865afa158015610510573d6000803e3d6000fd5b505050506040513d601f19601f820116820180604052508101906105349190610db4565b60ff16610100820152604080517e113e08000000000000000000000000000000000000000000000000000000008152815160009283926001600160a01b0387169262113e08926004808401939192918290030181865afa15801561059c573d6000803e3d6000fd5b505050506040513d601f19601f820116820180604052508101906105c09190610df4565b6101208501919091526101408401525090949350505050565b604080516101608101825260608082526000602083018190529282018390528082018390526080820183905260a0820181905260c082015260e0810182905261010081018290526101208101829052610140810191909152604080516101608101825260608082526000602083018190529282018390528082018390526080820183905260a0820181905260c082015260e08101829052610100810182905261012081018290526101408101919091528290816001600160a01b03166395d89b416040518163ffffffff1660e01b8152600401600060405180830381865afa1580156106c9573d6000803e3d6000fd5b505050506040513d6000823e601f3d908101601f191682016040526106f19190810190610cee565b8160000181905250816001600160a01b03166318160ddd6040518163ffffffff1660e01b8152600401602060405180830381865afa158015610737573d6000803e3d6000fd5b505050506040513d601f19601f8201168201806040525081019061075b9190610d9b565b816020018181525050816001600160a01b031663313ce5676040518163ffffffff1660e01b8152600401602060405180830381865afa1580156107a2573d6000803e3d6000fd5b505050506040513d601f19601f820116820180604052508101906107c69190610db4565b816040019060ff16908160ff1681525050816001600160a01b0316630dfe16816040518163ffffffff1660e01b8152600401602060405180830381865afa158015610815573d6000803e3d6000fd5b505050506040513d601f19601f820116820180604052508101906108399190610dd7565b81606001906001600160a01b031690816001600160a01b031681525050816001600160a01b031663d21220a76040518163ffffffff1660e01b8152600401602060405180830381865afa158015610894573d6000803e3d6000fd5b505050506040513d601f19601f820116820180604052508101906108b89190610dd7565b81608001906001600160a01b031690816001600160a01b03168152505080606001516001600160a01b03166395d89b416040518163ffffffff1660e01b8152600401600060405180830381865afa158015610917573d6000803e3d6000fd5b505050506040513d6000823e601f3d908101601f1916820160405261093f9190810190610cee565b8160a0018190525080608001516001600160a01b03166395d89b416040518163ffffffff1660e01b8152600401600060405180830381865afa158015610989573d6000803e3d6000fd5b505050506040513d6000823e601f3d908101601f191682016040526109b19190810190610cee565b8160c0018190525080606001516001600160a01b031663313ce5676040518163ffffffff1660e01b8152600401602060405180830381865afa1580156109fb573d6000803e3d6000fd5b505050506040513d601f19601f82011682018060405250810190610a1f9190610db4565b8160e0019060ff16908160ff168152505080608001516001600160a01b031663313ce5676040518163ffffffff1660e01b8152600401602060405180830381865afa158015610a72573d6000803e3d6000fd5b505050506040513d601f19601f82011682018060405250810190610a969190610db4565b81610100019060ff16908160ff1681525050600080836001600160a01b0316630902f1ac6040518163ffffffff1660e01b8152600401606060405180830381865afa158015610ae9573d6000803e3d6000fd5b505050506040513d601f19601f82011682018060405250810190610b0d9190610e3b565b506dffffffffffffffffffffffffffff918216610120860152166101408401525090949350505050565b6001600160a01b0381168114610b4c57600080fd5b50565b600060208284031215610b6157600080fd5b8135610b6c81610b37565b9392505050565b60005b83811015610b8e578181015183820152602001610b76565b83811115610b9d576000848401525b50505050565b60008151808452610bbb816020860160208601610b73565b601f01601f19169290920160200192915050565b6020815260008251610160806020850152610bee610180850183610ba3565b9150602085015160408501526040850151610c0e606086018260ff169052565b5060608501516001600160a01b03811660808601525060808501516001600160a01b03811660a08601525060a0850151601f19808685030160c0870152610c558483610ba3565b935060c08701519150808685030160e087015250610c738382610ba3565b92505060e0850151610100610c8c8187018360ff169052565b8601519050610120610ca28682018360ff169052565b860151610140868101919091529095015193019290925250919050565b7f4e487b7100000000000000000000000000000000000000000000000000000000600052604160045260246000fd5b600060208284031215610d0057600080fd5b815167ffffffffffffffff80821115610d1857600080fd5b818401915084601f830112610d2c57600080fd5b815181811115610d3e57610d3e610cbf565b604051601f8201601f19908116603f01168101908382118183101715610d6657610d66610cbf565b81604052828152876020848701011115610d7f57600080fd5b610d90836020830160208801610b73565b979650505050505050565b600060208284031215610dad57600080fd5b5051919050565b600060208284031215610dc657600080fd5b815160ff81168114610b6c57600080fd5b600060208284031215610de957600080fd5b8151610b6c81610b37565b60008060408385031215610e0757600080fd5b505080516020909101519092909150565b80516dffffffffffffffffffffffffffff81168114610e3657600080fd5b919050565b600080600060608486031215610e5057600080fd5b610e5984610e18565b9250610e6760208501610e18565b9150604084015163ffffffff81168114610e8057600080fd5b80915050925092509256fea26469706673582212204d157b27b6f413c476c6b8800c0fae56bc0f84ade5230d012eb2ab6cf2bcfdb664736f6c634300080d0033",
  "devdoc": {
    "kind": "dev",
    "methods": {},
    "version": 1
  },
  "userdoc": {
    "kind": "user",
    "methods": {},
    "version": 1
  },
  "storageLayout": {
    "storage": [],
    "types": null
  }
}