{
  "address": "0x84442a665da6079BB39EFacD74700Bb4bED8495b",
  "abi": [
    {
      "inputs": [
        {
          "internalType": "address",
          "name": "_voter",
          "type": "address"
        },
        {
          "internalType": "address",
          "name": "_devAddr",
          "type": "address"
        },
        {
          "internalType": "address",
          "name": "_pendleRouter",
          "type": "address"
        },
        {
          "internalType": "address",
          "name": "_pendleGaugeController",
          "type": "address"
        },
        {
          "internalType": "uint256",
          "name": "_boostFeeBips",
          "type": "uint256"
        },
        {
          "internalType": "address",
          "name": "_boostFeeReceiver",
          "type": "address"
        }
      ],
      "stateMutability": "nonpayable",
      "type": "constructor"
    },
    {
      "inputs": [
        {
          "internalType": "address",
          "name": "_strategy",
          "type": "address"
        }
      ],
      "name": "approveStrategy",
      "outputs": [],
      "stateMutability": "nonpayable",
      "type": "function"
    },
    {
      "inputs": [
        {
          "internalType": "address",
          "name": "",
          "type": "address"
        }
      ],
      "name": "approvedStrategies",
      "outputs": [
        {
          "internalType": "address",
          "name": "",
          "type": "address"
        }
      ],
      "stateMutability": "view",
      "type": "function"
    },
    {
      "inputs": [
        {
          "internalType": "address",
          "name": "_market",
          "type": "address"
        },
        {
          "internalType": "uint256",
          "name": "_amount",
          "type": "uint256"
        }
      ],
      "name": "depositToStakingContract",
      "outputs": [],
      "stateMutability": "nonpayable",
      "type": "function"
    },
    {
      "inputs": [],
      "name": "devAddr",
      "outputs": [
        {
          "internalType": "address",
          "name": "",
          "type": "address"
        }
      ],
      "stateMutability": "view",
      "type": "function"
    },
    {
      "inputs": [
        {
          "internalType": "address",
          "name": "_market",
          "type": "address"
        }
      ],
      "name": "emergencyWithdraw",
      "outputs": [],
      "stateMutability": "nonpayable",
      "type": "function"
    },
    {
      "inputs": [
        {
          "internalType": "address",
          "name": "_market",
          "type": "address"
        }
      ],
      "name": "getRewards",
      "outputs": [],
      "stateMutability": "nonpayable",
      "type": "function"
    },
    {
      "inputs": [
        {
          "internalType": "address",
          "name": "_market",
          "type": "address"
        }
      ],
      "name": "pendingRewards",
      "outputs": [
        {
          "components": [
            {
              "internalType": "address",
              "name": "reward",
              "type": "address"
            },
            {
              "internalType": "uint256",
              "name": "amount",
              "type": "uint256"
            }
          ],
          "internalType": "struct PendleProxy.Reward[]",
          "name": "",
          "type": "tuple[]"
        }
      ],
      "stateMutability": "view",
      "type": "function"
    },
    {
      "inputs": [],
      "name": "pendleGaugeController",
      "outputs": [
        {
          "internalType": "address",
          "name": "",
          "type": "address"
        }
      ],
      "stateMutability": "view",
      "type": "function"
    },
    {
      "inputs": [],
      "name": "pendleRouter",
      "outputs": [
        {
          "internalType": "address",
          "name": "",
          "type": "address"
        }
      ],
      "stateMutability": "view",
      "type": "function"
    },
    {
      "inputs": [
        {
          "internalType": "address",
          "name": "_market",
          "type": "address"
        }
      ],
      "name": "totalDeposits",
      "outputs": [
        {
          "internalType": "uint256",
          "name": "",
          "type": "uint256"
        }
      ],
      "stateMutability": "view",
      "type": "function"
    },
    {
      "inputs": [
        {
          "internalType": "uint256",
          "name": "_boostFeeBips",
          "type": "uint256"
        }
      ],
      "name": "updateBoostFee",
      "outputs": [],
      "stateMutability": "nonpayable",
      "type": "function"
    },
    {
      "inputs": [
        {
          "internalType": "address",
          "name": "newValue",
          "type": "address"
        }
      ],
      "name": "updateDevAddr",
      "outputs": [],
      "stateMutability": "nonpayable",
      "type": "function"
    },
    {
      "inputs": [],
      "name": "voter",
      "outputs": [
        {
          "internalType": "contract IPendleVoter",
          "name": "",
          "type": "address"
        }
      ],
      "stateMutability": "view",
      "type": "function"
    },
    {
      "inputs": [
        {
          "internalType": "address",
          "name": "_market",
          "type": "address"
        },
        {
          "internalType": "uint256",
          "name": "_amount",
          "type": "uint256"
        }
      ],
      "name": "withdrawFromStakingContract",
      "outputs": [],
      "stateMutability": "nonpayable",
      "type": "function"
    }
  ],
  "transactionHash": "0x772476d6d807ac6b9802ff475243172a83b4cc25b566eca858660fc5b883f52c",
  "args": [
    "0x3f7868787509c47676242613B6234317911A31b5",
    "0xDcEDF06Fd33E1D7b6eb4b309f779a0e9D3172e44",
    "0x00000000005BBB0EF59571E58418F9a4357b68A0",
    "0x1e56299EbC8A1010cEc26005d12e3e5c5cC2db00",
    "0",
    "0x0000000000000000000000000000000000000000"
  ],
  "solcInputHash": "87c5c4e6bff6f5b12efd5ac8dd1ec449",
  "bytecode": "0x6101006040523480156200001257600080fd5b5060405162001f9938038062001f99833981016040819052620000359162000185565b6001600160a01b038516620000a25760405162461bcd60e51b815260206004820152602960248201527f50656e646c6550726f78793a3a496e76616c6964206465762061646472657373604482015268081c1c9bdd9a59195960ba1b606482015260840160405180910390fd5b600080546001600160a01b038088166001600160a01b03199283161790925587821660a05285821660c052600284905560038054848416921691909117905560408051635162986d60e11b815290519185169163a2c530da916004808201926020929091908290030181865afa15801562000121573d6000803e3d6000fd5b505050506040513d601f19601f82011682018060405250810190620001479190620001fd565b6001600160a01b039081166080529290921660e05250620002229350505050565b80516001600160a01b03811681146200018057600080fd5b919050565b60008060008060008060c087890312156200019f57600080fd5b620001aa8762000168565b9550620001ba6020880162000168565b9450620001ca6040880162000168565b9350620001da6060880162000168565b925060808701519150620001f160a0880162000168565b90509295509295509295565b6000602082840312156200021057600080fd5b6200021b8262000168565b9392505050565b60805160a05160c05160e051611cf0620002a9600039600081816101e0015261123301526000610109015260008181610180015281816103050152818161065c0152818161076e01528181610aa501528181610bb201528181610c5201528181610d5701526110f10152600081816105ad01528181610df601526113510152611cf06000f3fe608060405234801561001057600080fd5b50600436106100ea5760003560e01c80637d5ee5391161008c5780639291d563116100665780639291d56314610215578063c613aec014610228578063da09c72c14610251578063e94032561461026457600080fd5b80637d5ee539146101c857806387daa8c5146101db578063905797f61461020257600080fd5b80633b8ae397116100c85780633b8ae3971461016857806346c96aac1461017b5780636ff1c9bc146101a257806379ee54f7146101b557600080fd5b806318027a1e146100ef578063206aeab31461010457806331d7a26214610148575b600080fd5b6101026100fd36600461172e565b610285565b005b61012b7f000000000000000000000000000000000000000000000000000000000000000081565b6040516001600160a01b0390911681526020015b60405180910390f35b61015b61015636600461175a565b61032f565b60405161013f9190611777565b61010261017636600461175a565b610897565b61012b7f000000000000000000000000000000000000000000000000000000000000000081565b6101026101b036600461175a565b610a23565b6101026101c336600461175a565b610bda565b6101026101d636600461172e565b610f0c565b61012b7f000000000000000000000000000000000000000000000000000000000000000081565b6101026102103660046117cf565b610fa1565b61010261022336600461175a565b611051565b61012b61023636600461175a565b6001602052600090815260409020546001600160a01b031681565b60005461012b906001600160a01b031681565b61027761027236600461175a565b6110da565b60405190815260200161013f565b6001600160a01b0380831660009081526001602052604090205483911633146102f55760405162461bcd60e51b815260206004820152601960248201527f50656e646c6550726f78793a3a6f6e6c7953747261746567790000000000000060448201526064015b60405180910390fd5b61032a6001600160a01b038416337f00000000000000000000000000000000000000000000000000000000000000008561116e565b505050565b60606000826001600160a01b031663c4f59f9b6040518163ffffffff1660e01b8152600401600060405180830381865afa158015610371573d6000803e3d6000fd5b505050506040513d6000823e601f3d908101601f19168201604052610399919081019061182f565b90506000815167ffffffffffffffff8111156103b7576103b76117e8565b6040519080825280602002602001820160405280156103fc57816020015b60408051808201909152600080825260208201528152602001906001900390816103d55790505b509050815160000361040f579392505050565b6000846001600160a01b031663720692646040518163ffffffff1660e01b8152600401602060405180830381865afa15801561044f573d6000803e3d6000fd5b505050506040513d601f19601f8201168201806040525081019061047391906118e1565b905060005b835181101561088d576000848281518110610495576104956118fa565b60200260200101519050600080886001600160a01b031663ea64a820846040518263ffffffff1660e01b81526004016104dd91906001600160a01b0391909116815260200190565b6040805180830381865afa1580156104f9573d6000803e3d6000fd5b505050506040513d601f19601f8201168201806040525081019061051d919061192c565b6040516370a0823160e01b81526001600160a01b038c811660048301526001600160801b03938416955091909216925060009183918616906370a0823190602401602060405180830381865afa15801561057b573d6000803e3d6000fd5b505050506040513d601f19601f8201168201806040525081019061059f91906118e1565b6105a99190611975565b90507f00000000000000000000000000000000000000000000000000000000000000006001600160a01b0316846001600160a01b0316036105fa576105ed8a6111f6565b6105f7908261198c565b90505b8260000361060757600192505b8515610624576106178187611300565b610621908461198c565b92505b6040517f5cbadbe40000000000000000000000000000000000000000000000000000000081526001600160a01b0385811660048301527f00000000000000000000000000000000000000000000000000000000000000008116602483015260009182918d1690635cbadbe4906044016040805180830381865afa1580156106af573d6000803e3d6000fd5b505050506040513d601f19601f820116820180604052508101906106d3919061192c565b91509150816001600160801b03166000036106ed57600191505b84826001600160801b03160361073e576040518060400160405280876001600160a01b03168152602001600081525089888151811061072e5761072e6118fa565b6020026020010181905250610876565b6040517f0892cd8b0000000000000000000000000000000000000000000000000000000081526001600160a01b037f000000000000000000000000000000000000000000000000000000000000000081166004830152600091908e1690630892cd8b90602401602060405180830381865afa1580156107c1573d6000803e3d6000fd5b505050506040513d601f19601f820116820180604052508101906107e591906118e1565b905060006107fc6001600160801b03851688611975565b9050600061080a838361132f565b90506000610821826001600160801b03871661198c565b905060405180604001604052808b6001600160a01b031681526020016108478c8461134d565b6108519084611975565b8152508d8c81518110610866576108666118fa565b6020026020010181905250505050505b50505050505080610886906119a4565b9050610478565b5090949350505050565b6000546001600160a01b031633146108f15760405162461bcd60e51b815260206004820152601460248201527f50656e646c6550726f78793a3a6f6e6c7944657600000000000000000000000060448201526064016102ec565b6000816001600160a01b031663c89039c56040518163ffffffff1660e01b8152600401602060405180830381865afa158015610931573d6000803e3d6000fd5b505050506040513d601f19601f8201168201806040525081019061095591906119bd565b6001600160a01b0380821660009081526001602052604090205491925016156109e65760405162461bcd60e51b815260206004820152603560248201527f50656e646c6550726f78793a3a537472617465677920666f72206465706f736960448201527f7420746f6b656e20616c7265616479206164646564000000000000000000000060648201526084016102ec565b6001600160a01b03908116600090815260016020526040902080549190921673ffffffffffffffffffffffffffffffffffffffff19909116179055565b6001600160a01b038082166000908152600160205260409020548291163314610a8e5760405162461bcd60e51b815260206004820152601960248201527f50656e646c6550726f78793a3a6f6e6c7953747261746567790000000000000060448201526064016102ec565b6040516370a0823160e01b81526001600160a01b037f00000000000000000000000000000000000000000000000000000000000000008116600483015261032a91849160009163a9059cbb60e01b913391908516906370a0823190602401602060405180830381865afa158015610b09573d6000803e3d6000fd5b505050506040513d601f19601f82011682018060405250810190610b2d91906118e1565b6040516001600160a01b03909216602483015260448201526064015b60408051601f198184030181529190526020810180517bffffffffffffffffffffffffffffffffffffffffffffffffffffffff167fffffffff00000000000000000000000000000000000000000000000000000000909316929092179091526001600160a01b037f0000000000000000000000000000000000000000000000000000000000000000169291906113aa565b6001600160a01b038082166000908152600160205260409020548291163314610c455760405162461bcd60e51b815260206004820152601960248201527f50656e646c6550726f78793a3a6f6e6c7953747261746567790000000000000060448201526064016102ec565b6040516001600160a01b037f0000000000000000000000000000000000000000000000000000000000000000166024820152610caa9083906000907f9262187b0000000000000000000000000000000000000000000000000000000090604401610b49565b506000826001600160a01b031663c4f59f9b6040518163ffffffff1660e01b8152600401600060405180830381865afa158015610ceb573d6000803e3d6000fd5b505050506040513d6000823e601f3d908101601f19168201604052610d13919081019061182f565b905060005b8151811015610f06576000828281518110610d3557610d356118fa565b60209081029190910101516040516370a0823160e01b81526001600160a01b037f000000000000000000000000000000000000000000000000000000000000000081166004830152909116906370a0823190602401602060405180830381865afa158015610da7573d6000803e3d6000fd5b505050506040513d601f19601f82011682018060405250810190610dcb91906118e1565b90506000610df2848481518110610de457610de46118fa565b60200260200101518361134d565b90507f00000000000000000000000000000000000000000000000000000000000000006001600160a01b0316848481518110610e3057610e306118fa565b60200260200101516001600160a01b0316148015610e4e5750600081115b8015610e6457506003546001600160a01b031615155b15610ebc57610eba848481518110610e7e57610e7e6118fa565b60209081029190910101516003546040516001600160a01b0390911660248201526044810184905260009063a9059cbb60e01b90606401610b49565b505b610ef0848481518110610ed157610ed16118fa565b6020026020010151600063a9059cbb60e01b338587610b2d9190611975565b5050508080610efe906119a4565b915050610d18565b50505050565b6001600160a01b038083166000908152600160205260409020548391163314610f775760405162461bcd60e51b815260206004820152601960248201527f50656e646c6550726f78793a3a6f6e6c7953747261746567790000000000000060448201526064016102ec565b60405133602482015260448101839052610f0690849060009063a9059cbb60e01b90606401610b49565b6000546001600160a01b03163314610ffb5760405162461bcd60e51b815260206004820152601460248201527f50656e646c6550726f78793a3a6f6e6c7944657600000000000000000000000060448201526064016102ec565b612710811061104c5760405162461bcd60e51b815260206004820152601e60248201527f50656e646c6550726f78793a3a496e76616c696420626f6f737420666565000060448201526064016102ec565b600255565b6000546001600160a01b031633146110ab5760405162461bcd60e51b815260206004820152601460248201527f50656e646c6550726f78793a3a6f6e6c7944657600000000000000000000000060448201526064016102ec565b6000805473ffffffffffffffffffffffffffffffffffffffff19166001600160a01b0392909216919091179055565b6040516370a0823160e01b81526001600160a01b037f000000000000000000000000000000000000000000000000000000000000000081166004830152600091908316906370a0823190602401602060405180830381865afa158015611144573d6000803e3d6000fd5b505050506040513d601f19601f8201168201806040525081019061116891906118e1565b92915050565b604080516001600160a01b0385811660248301528416604482015260648082018490528251808303909101815260849091019091526020810180517bffffffffffffffffffffffffffffffffffffffffffffffffffffffff167f23b872dd00000000000000000000000000000000000000000000000000000000179052610f06908590611481565b6040517f48e5d9f80000000000000000000000000000000000000000000000000000000081526001600160a01b03828116600483015260009182917f000000000000000000000000000000000000000000000000000000000000000016906348e5d9f890602401608060405180830381865afa15801561127a573d6000803e3d6000fd5b505050506040513d601f19601f8201168201806040525081019061129e91906119da565b905060006112c2426001600160801b031683606001516001600160801b0316611566565b90508160400151816112d49190611a57565b82516112e09190611a7f565b82602001516112ef9190611aae565b6001600160801b0316949350505050565b600080611315670de0b6b3a764000085611ad9565b905082818161132657611326611af8565b04949350505050565b60008061133c8385611ad9565b9050670de0b6b3a764000081611326565b60007f00000000000000000000000000000000000000000000000000000000000000006001600160a01b0316836001600160a01b03160361116857612710600254836113999190611ad9565b6113a39190611b0e565b9050611168565b6060600080866001600160a01b031663b61d27f68787876040518463ffffffff1660e01b81526004016113df93929190611b88565b6000604051808303816000875af11580156113fe573d6000803e3d6000fd5b505050506040513d6000823e601f3d908101601f191682016040526114269190810190611bc9565b91509150816114775760405162461bcd60e51b815260206004820152601f60248201527f50656e646c6550726f78793a3a7361666545786563757465206661696c65640060448201526064016102ec565b9695505050505050565b60006114d6826040518060400160405280602081526020017f5361666545524332303a206c6f772d6c6576656c2063616c6c206661696c6564815250856001600160a01b031661157e9092919063ffffffff16565b80519091501561032a57808060200190518101906114f49190611c70565b61032a5760405162461bcd60e51b815260206004820152602a60248201527f5361666545524332303a204552433230206f7065726174696f6e20646964206e60448201527f6f7420737563636565640000000000000000000000000000000000000000000060648201526084016102ec565b60008183106115755781611577565b825b9392505050565b606061158d8484600085611595565b949350505050565b60608247101561160d5760405162461bcd60e51b815260206004820152602660248201527f416464726573733a20696e73756666696369656e742062616c616e636520666f60448201527f722063616c6c000000000000000000000000000000000000000000000000000060648201526084016102ec565b6001600160a01b0385163b6116645760405162461bcd60e51b815260206004820152601d60248201527f416464726573733a2063616c6c20746f206e6f6e2d636f6e747261637400000060448201526064016102ec565b600080866001600160a01b031685876040516116809190611c8b565b60006040518083038185875af1925050503d80600081146116bd576040519150601f19603f3d011682016040523d82523d6000602084013e6116c2565b606091505b50915091506116d28282866116dd565b979650505050505050565b606083156116ec575081611577565b8251156116fc5782518084602001fd5b8160405162461bcd60e51b81526004016102ec9190611ca7565b6001600160a01b038116811461172b57600080fd5b50565b6000806040838503121561174157600080fd5b823561174c81611716565b946020939093013593505050565b60006020828403121561176c57600080fd5b813561157781611716565b602080825282518282018190526000919060409081850190868401855b828110156117c257815180516001600160a01b03168552860151868501529284019290850190600101611794565b5091979650505050505050565b6000602082840312156117e157600080fd5b5035919050565b634e487b7160e01b600052604160045260246000fd5b604051601f8201601f1916810167ffffffffffffffff81118282101715611827576118276117e8565b604052919050565b6000602080838503121561184257600080fd5b825167ffffffffffffffff8082111561185a57600080fd5b818501915085601f83011261186e57600080fd5b815181811115611880576118806117e8565b8060051b91506118918483016117fe565b81815291830184019184810190888411156118ab57600080fd5b938501935b838510156118d557845192506118c583611716565b82825293850193908501906118b0565b98975050505050505050565b6000602082840312156118f357600080fd5b5051919050565b634e487b7160e01b600052603260045260246000fd5b80516001600160801b038116811461192757600080fd5b919050565b6000806040838503121561193f57600080fd5b61194883611910565b915061195660208401611910565b90509250929050565b634e487b7160e01b600052601160045260246000fd5b6000828210156119875761198761195f565b500390565b6000821982111561199f5761199f61195f565b500190565b6000600182016119b6576119b661195f565b5060010190565b6000602082840312156119cf57600080fd5b815161157781611716565b6000608082840312156119ec57600080fd5b6040516080810181811067ffffffffffffffff82111715611a0f57611a0f6117e8565b604052611a1b83611910565b8152611a2960208401611910565b6020820152611a3a60408401611910565b6040820152611a4b60608401611910565b60608201529392505050565b60006001600160801b0383811690831681811015611a7757611a7761195f565b039392505050565b60006001600160801b0380831681851681830481118215151615611aa557611aa561195f565b02949350505050565b60006001600160801b03808316818516808303821115611ad057611ad061195f565b01949350505050565b6000816000190483118215151615611af357611af361195f565b500290565b634e487b7160e01b600052601260045260246000fd5b600082611b2b57634e487b7160e01b600052601260045260246000fd5b500490565b60005b83811015611b4b578181015183820152602001611b33565b83811115610f065750506000910152565b60008151808452611b74816020860160208601611b30565b601f01601f19169290920160200192915050565b6001600160a01b0384168152826020820152606060408201526000611bb06060830184611b5c565b95945050505050565b8051801515811461192757600080fd5b60008060408385031215611bdc57600080fd5b611be583611bb9565b9150602083015167ffffffffffffffff80821115611c0257600080fd5b818501915085601f830112611c1657600080fd5b815181811115611c2857611c286117e8565b611c3b601f8201601f19166020016117fe565b9150808252866020828501011115611c5257600080fd5b611c63816020840160208601611b30565b5080925050509250929050565b600060208284031215611c8257600080fd5b61157782611bb9565b60008251611c9d818460208701611b30565b9190910192915050565b6020815260006115776020830184611b5c56fea26469706673582212200c4297fa68a983ad7ea324eafc66a1dfcfbb4ee5e107765c1bba1dc4fd4a8b5564736f6c634300080d0033",
  "devdoc": {
    "kind": "dev",
    "methods": {
      "approveStrategy(address)": {
        "details": "Very sensitive, restricted to devAddrCan only be set once per deposit token (reported by the strategy)",
        "params": {
          "_strategy": "address"
        }
      },
      "updateBoostFee(uint256)": {
        "params": {
          "_boostFeeBips": "Boost fee bips, check BIPS_DIVISOR"
        }
      },
      "updateDevAddr(address)": {
        "params": {
          "newValue": "address"
        }
      }
    },
    "version": 1
  },
  "userdoc": {
    "kind": "user",
    "methods": {
      "approveStrategy(address)": {
        "notice": "Add an approved strategy"
      },
      "updateBoostFee(uint256)": {
        "notice": "Update optional boost fee settins"
      },
      "updateDevAddr(address)": {
        "notice": "Update devAddr"
      }
    },
    "version": 1
  },
  "storageLayout": {
    "storage": [
      {
        "astId": 4162,
        "contract": "contracts/strategies/crosschain/pendle/PendleProxy.sol:PendleProxy",
        "label": "devAddr",
        "offset": 0,
        "slot": "0",
        "type": "t_address"
      },
      {
        "astId": 4173,
        "contract": "contracts/strategies/crosschain/pendle/PendleProxy.sol:PendleProxy",
        "label": "approvedStrategies",
        "offset": 0,
        "slot": "1",
        "type": "t_mapping(t_address,t_address)"
      },
      {
        "astId": 4175,
        "contract": "contracts/strategies/crosschain/pendle/PendleProxy.sol:PendleProxy",
        "label": "boostFeeBips",
        "offset": 0,
        "slot": "2",
        "type": "t_uint256"
      },
      {
        "astId": 4177,
        "contract": "contracts/strategies/crosschain/pendle/PendleProxy.sol:PendleProxy",
        "label": "boostFeeReceiver",
        "offset": 0,
        "slot": "3",
        "type": "t_address"
      }
    ],
    "types": {
      "t_address": {
        "encoding": "inplace",
        "label": "address",
        "numberOfBytes": "20"
      },
      "t_mapping(t_address,t_address)": {
        "encoding": "mapping",
        "key": "t_address",
        "label": "mapping(address => address)",
        "numberOfBytes": "32",
        "value": "t_address"
      },
      "t_uint256": {
        "encoding": "inplace",
        "label": "uint256",
        "numberOfBytes": "32"
      }
    }
  }
}