{
  "address": "0x2fCc7eB22CF6fdc19636F1Fd8551187FB68B61Bd",
  "abi": [
    {
      "inputs": [
        {
          "internalType": "address",
          "name": "_voter",
          "type": "address"
        },
        {
          "internalType": "address",
          "name": "_devAddr",
          "type": "address"
        },
        {
          "internalType": "address",
          "name": "_pendleRouter",
          "type": "address"
        },
        {
          "internalType": "address",
          "name": "_pendleGaugeController",
          "type": "address"
        },
        {
          "internalType": "uint256",
          "name": "_boostFeeBips",
          "type": "uint256"
        },
        {
          "internalType": "address",
          "name": "_boostFeeReceiver",
          "type": "address"
        }
      ],
      "stateMutability": "nonpayable",
      "type": "constructor"
    },
    {
      "inputs": [
        {
          "internalType": "address",
          "name": "_strategy",
          "type": "address"
        }
      ],
      "name": "approveStrategy",
      "outputs": [],
      "stateMutability": "nonpayable",
      "type": "function"
    },
    {
      "inputs": [
        {
          "internalType": "address",
          "name": "",
          "type": "address"
        }
      ],
      "name": "approvedStrategies",
      "outputs": [
        {
          "internalType": "address",
          "name": "",
          "type": "address"
        }
      ],
      "stateMutability": "view",
      "type": "function"
    },
    {
      "inputs": [
        {
          "internalType": "address",
          "name": "_market",
          "type": "address"
        },
        {
          "internalType": "uint256",
          "name": "_amount",
          "type": "uint256"
        }
      ],
      "name": "depositToStakingContract",
      "outputs": [],
      "stateMutability": "nonpayable",
      "type": "function"
    },
    {
      "inputs": [],
      "name": "devAddr",
      "outputs": [
        {
          "internalType": "address",
          "name": "",
          "type": "address"
        }
      ],
      "stateMutability": "view",
      "type": "function"
    },
    {
      "inputs": [
        {
          "internalType": "address",
          "name": "_market",
          "type": "address"
        }
      ],
      "name": "emergencyWithdraw",
      "outputs": [],
      "stateMutability": "nonpayable",
      "type": "function"
    },
    {
      "inputs": [
        {
          "internalType": "address",
          "name": "_market",
          "type": "address"
        }
      ],
      "name": "getRewards",
      "outputs": [],
      "stateMutability": "nonpayable",
      "type": "function"
    },
    {
      "inputs": [
        {
          "internalType": "address",
          "name": "_market",
          "type": "address"
        }
      ],
      "name": "pendingRewards",
      "outputs": [
        {
          "components": [
            {
              "internalType": "address",
              "name": "reward",
              "type": "address"
            },
            {
              "internalType": "uint256",
              "name": "amount",
              "type": "uint256"
            }
          ],
          "internalType": "struct PendleProxy.Reward[]",
          "name": "",
          "type": "tuple[]"
        }
      ],
      "stateMutability": "view",
      "type": "function"
    },
    {
      "inputs": [],
      "name": "pendleGaugeController",
      "outputs": [
        {
          "internalType": "address",
          "name": "",
          "type": "address"
        }
      ],
      "stateMutability": "view",
      "type": "function"
    },
    {
      "inputs": [],
      "name": "pendleRouter",
      "outputs": [
        {
          "internalType": "address",
          "name": "",
          "type": "address"
        }
      ],
      "stateMutability": "view",
      "type": "function"
    },
    {
      "inputs": [
        {
          "internalType": "address",
          "name": "_market",
          "type": "address"
        }
      ],
      "name": "totalDeposits",
      "outputs": [
        {
          "internalType": "uint256",
          "name": "",
          "type": "uint256"
        }
      ],
      "stateMutability": "view",
      "type": "function"
    },
    {
      "inputs": [
        {
          "internalType": "uint256",
          "name": "_boostFeeBips",
          "type": "uint256"
        }
      ],
      "name": "updateBoostFee",
      "outputs": [],
      "stateMutability": "nonpayable",
      "type": "function"
    },
    {
      "inputs": [
        {
          "internalType": "address",
          "name": "newValue",
          "type": "address"
        }
      ],
      "name": "updateDevAddr",
      "outputs": [],
      "stateMutability": "nonpayable",
      "type": "function"
    },
    {
      "inputs": [],
      "name": "voter",
      "outputs": [
        {
          "internalType": "contract IPendleVoter",
          "name": "",
          "type": "address"
        }
      ],
      "stateMutability": "view",
      "type": "function"
    },
    {
      "inputs": [
        {
          "internalType": "address",
          "name": "_market",
          "type": "address"
        },
        {
          "internalType": "uint256",
          "name": "_amount",
          "type": "uint256"
        }
      ],
      "name": "withdrawFromStakingContract",
      "outputs": [],
      "stateMutability": "nonpayable",
      "type": "function"
    }
  ],
  "transactionHash": "0xe2bd1778197d1363f400652f30e49914b9b278130e621084410599a9158251e9",
  "args": [
    "0x3f7868787509c47676242613B6234317911A31b5",
    "0xDcEDF06Fd33E1D7b6eb4b309f779a0e9D3172e44",
    "0x00000000005BBB0EF59571E58418F9a4357b68A0",
    "0x1e56299EbC8A1010cEc26005d12e3e5c5cC2db00",
    "0",
    "0x0000000000000000000000000000000000000000"
  ],
  "solcInputHash": "f412761b7a37aa01bde16a0798e6fe80",
  "bytecode": "0x6101006040523480156200001257600080fd5b5060405162001f7638038062001f76833981016040819052620000359162000185565b6001600160a01b038516620000a25760405162461bcd60e51b815260206004820152602960248201527f50656e646c6550726f78793a3a496e76616c6964206465762061646472657373604482015268081c1c9bdd9a59195960ba1b606482015260840160405180910390fd5b600080546001600160a01b038088166001600160a01b03199283161790925587821660a05285821660c052600284905560038054848416921691909117905560408051635162986d60e11b815290519185169163a2c530da916004808201926020929091908290030181865afa15801562000121573d6000803e3d6000fd5b505050506040513d601f19601f82011682018060405250810190620001479190620001fd565b6001600160a01b039081166080529290921660e05250620002229350505050565b80516001600160a01b03811681146200018057600080fd5b919050565b60008060008060008060c087890312156200019f57600080fd5b620001aa8762000168565b9550620001ba6020880162000168565b9450620001ca6040880162000168565b9350620001da6060880162000168565b925060808701519150620001f160a0880162000168565b90509295509295509295565b6000602082840312156200021057600080fd5b6200021b8262000168565b9392505050565b60805160a05160c05160e051611ccd620002a9600039600081816101e0015261121001526000610109015260008181610180015281816103050152818161065c0152818161076e01528181610aa501528181610bb201528181610c5201528181610d5701526110ce0152600081816105ad01528181610df6015261132e0152611ccd6000f3fe608060405234801561001057600080fd5b50600436106100ea5760003560e01c80637d5ee5391161008c5780639291d563116100665780639291d56314610215578063c613aec014610228578063da09c72c14610251578063e94032561461026457600080fd5b80637d5ee539146101c857806387daa8c5146101db578063905797f61461020257600080fd5b80633b8ae397116100c85780633b8ae3971461016857806346c96aac1461017b5780636ff1c9bc146101a257806379ee54f7146101b557600080fd5b806318027a1e146100ef578063206aeab31461010457806331d7a26214610148575b600080fd5b6101026100fd36600461170b565b610285565b005b61012b7f000000000000000000000000000000000000000000000000000000000000000081565b6040516001600160a01b0390911681526020015b60405180910390f35b61015b610156366004611737565b61032f565b60405161013f9190611754565b610102610176366004611737565b610897565b61012b7f000000000000000000000000000000000000000000000000000000000000000081565b6101026101b0366004611737565b610a23565b6101026101c3366004611737565b610bda565b6101026101d636600461170b565b610ee9565b61012b7f000000000000000000000000000000000000000000000000000000000000000081565b6101026102103660046117ac565b610f7e565b610102610223366004611737565b61102e565b61012b610236366004611737565b6001602052600090815260409020546001600160a01b031681565b60005461012b906001600160a01b031681565b610277610272366004611737565b6110b7565b60405190815260200161013f565b6001600160a01b0380831660009081526001602052604090205483911633146102f55760405162461bcd60e51b815260206004820152601960248201527f50656e646c6550726f78793a3a6f6e6c7953747261746567790000000000000060448201526064015b60405180910390fd5b61032a6001600160a01b038416337f00000000000000000000000000000000000000000000000000000000000000008561114b565b505050565b60606000826001600160a01b031663c4f59f9b6040518163ffffffff1660e01b8152600401600060405180830381865afa158015610371573d6000803e3d6000fd5b505050506040513d6000823e601f3d908101601f19168201604052610399919081019061180c565b90506000815167ffffffffffffffff8111156103b7576103b76117c5565b6040519080825280602002602001820160405280156103fc57816020015b60408051808201909152600080825260208201528152602001906001900390816103d55790505b509050815160000361040f579392505050565b6000846001600160a01b031663720692646040518163ffffffff1660e01b8152600401602060405180830381865afa15801561044f573d6000803e3d6000fd5b505050506040513d601f19601f8201168201806040525081019061047391906118be565b905060005b835181101561088d576000848281518110610495576104956118d7565b60200260200101519050600080886001600160a01b031663ea64a820846040518263ffffffff1660e01b81526004016104dd91906001600160a01b0391909116815260200190565b6040805180830381865afa1580156104f9573d6000803e3d6000fd5b505050506040513d601f19601f8201168201806040525081019061051d9190611909565b6040516370a0823160e01b81526001600160a01b038c811660048301526001600160801b03938416955091909216925060009183918616906370a0823190602401602060405180830381865afa15801561057b573d6000803e3d6000fd5b505050506040513d601f19601f8201168201806040525081019061059f91906118be565b6105a99190611952565b90507f00000000000000000000000000000000000000000000000000000000000000006001600160a01b0316846001600160a01b0316036105fa576105ed8a6111d3565b6105f79082611969565b90505b8260000361060757600192505b85156106245761061781876112dd565b6106219084611969565b92505b6040517f5cbadbe40000000000000000000000000000000000000000000000000000000081526001600160a01b0385811660048301527f00000000000000000000000000000000000000000000000000000000000000008116602483015260009182918d1690635cbadbe4906044016040805180830381865afa1580156106af573d6000803e3d6000fd5b505050506040513d601f19601f820116820180604052508101906106d39190611909565b91509150816001600160801b03166000036106ed57600191505b84826001600160801b03160361073e576040518060400160405280876001600160a01b03168152602001600081525089888151811061072e5761072e6118d7565b6020026020010181905250610876565b6040517f0892cd8b0000000000000000000000000000000000000000000000000000000081526001600160a01b037f000000000000000000000000000000000000000000000000000000000000000081166004830152600091908e1690630892cd8b90602401602060405180830381865afa1580156107c1573d6000803e3d6000fd5b505050506040513d601f19601f820116820180604052508101906107e591906118be565b905060006107fc6001600160801b03851688611952565b9050600061080a838361130c565b90506000610821826001600160801b038716611969565b905060405180604001604052808b6001600160a01b031681526020016108478c8461132a565b6108519084611952565b8152508d8c81518110610866576108666118d7565b6020026020010181905250505050505b5050505050508061088690611981565b9050610478565b5090949350505050565b6000546001600160a01b031633146108f15760405162461bcd60e51b815260206004820152601460248201527f50656e646c6550726f78793a3a6f6e6c7944657600000000000000000000000060448201526064016102ec565b6000816001600160a01b031663c89039c56040518163ffffffff1660e01b8152600401602060405180830381865afa158015610931573d6000803e3d6000fd5b505050506040513d601f19601f82011682018060405250810190610955919061199a565b6001600160a01b0380821660009081526001602052604090205491925016156109e65760405162461bcd60e51b815260206004820152603560248201527f50656e646c6550726f78793a3a537472617465677920666f72206465706f736960448201527f7420746f6b656e20616c7265616479206164646564000000000000000000000060648201526084016102ec565b6001600160a01b03908116600090815260016020526040902080549190921673ffffffffffffffffffffffffffffffffffffffff19909116179055565b6001600160a01b038082166000908152600160205260409020548291163314610a8e5760405162461bcd60e51b815260206004820152601960248201527f50656e646c6550726f78793a3a6f6e6c7953747261746567790000000000000060448201526064016102ec565b6040516370a0823160e01b81526001600160a01b037f00000000000000000000000000000000000000000000000000000000000000008116600483015261032a91849160009163a9059cbb60e01b913391908516906370a0823190602401602060405180830381865afa158015610b09573d6000803e3d6000fd5b505050506040513d601f19601f82011682018060405250810190610b2d91906118be565b6040516001600160a01b03909216602483015260448201526064015b60408051601f198184030181529190526020810180517bffffffffffffffffffffffffffffffffffffffffffffffffffffffff167fffffffff00000000000000000000000000000000000000000000000000000000909316929092179091526001600160a01b037f000000000000000000000000000000000000000000000000000000000000000016929190611387565b6001600160a01b038082166000908152600160205260409020548291163314610c455760405162461bcd60e51b815260206004820152601960248201527f50656e646c6550726f78793a3a6f6e6c7953747261746567790000000000000060448201526064016102ec565b6040516001600160a01b037f0000000000000000000000000000000000000000000000000000000000000000166024820152610caa9083906000907f9262187b0000000000000000000000000000000000000000000000000000000090604401610b49565b506000826001600160a01b031663c4f59f9b6040518163ffffffff1660e01b8152600401600060405180830381865afa158015610ceb573d6000803e3d6000fd5b505050506040513d6000823e601f3d908101601f19168201604052610d13919081019061180c565b905060005b8151811015610ee3576000828281518110610d3557610d356118d7565b60209081029190910101516040516370a0823160e01b81526001600160a01b037f000000000000000000000000000000000000000000000000000000000000000081166004830152909116906370a0823190602401602060405180830381865afa158015610da7573d6000803e3d6000fd5b505050506040513d601f19601f82011682018060405250810190610dcb91906118be565b90506000610df2848481518110610de457610de46118d7565b60200260200101518361132a565b90507f00000000000000000000000000000000000000000000000000000000000000006001600160a01b0316848481518110610e3057610e306118d7565b60200260200101516001600160a01b031603610e9957610e97848481518110610e5b57610e5b6118d7565b60209081029190910101516003546040516001600160a01b0390911660248201526044810184905260009063a9059cbb60e01b90606401610b49565b505b610ecd848481518110610eae57610eae6118d7565b6020026020010151600063a9059cbb60e01b338587610b2d9190611952565b5050508080610edb90611981565b915050610d18565b50505050565b6001600160a01b038083166000908152600160205260409020548391163314610f545760405162461bcd60e51b815260206004820152601960248201527f50656e646c6550726f78793a3a6f6e6c7953747261746567790000000000000060448201526064016102ec565b60405133602482015260448101839052610ee390849060009063a9059cbb60e01b90606401610b49565b6000546001600160a01b03163314610fd85760405162461bcd60e51b815260206004820152601460248201527f50656e646c6550726f78793a3a6f6e6c7944657600000000000000000000000060448201526064016102ec565b61271081106110295760405162461bcd60e51b815260206004820152601e60248201527f50656e646c6550726f78793a3a496e76616c696420626f6f737420666565000060448201526064016102ec565b600255565b6000546001600160a01b031633146110885760405162461bcd60e51b815260206004820152601460248201527f50656e646c6550726f78793a3a6f6e6c7944657600000000000000000000000060448201526064016102ec565b6000805473ffffffffffffffffffffffffffffffffffffffff19166001600160a01b0392909216919091179055565b6040516370a0823160e01b81526001600160a01b037f000000000000000000000000000000000000000000000000000000000000000081166004830152600091908316906370a0823190602401602060405180830381865afa158015611121573d6000803e3d6000fd5b505050506040513d601f19601f8201168201806040525081019061114591906118be565b92915050565b604080516001600160a01b0385811660248301528416604482015260648082018490528251808303909101815260849091019091526020810180517bffffffffffffffffffffffffffffffffffffffffffffffffffffffff167f23b872dd00000000000000000000000000000000000000000000000000000000179052610ee390859061145e565b6040517f48e5d9f80000000000000000000000000000000000000000000000000000000081526001600160a01b03828116600483015260009182917f000000000000000000000000000000000000000000000000000000000000000016906348e5d9f890602401608060405180830381865afa158015611257573d6000803e3d6000fd5b505050506040513d601f19601f8201168201806040525081019061127b91906119b7565b9050600061129f426001600160801b031683606001516001600160801b0316611543565b90508160400151816112b19190611a34565b82516112bd9190611a5c565b82602001516112cc9190611a8b565b6001600160801b0316949350505050565b6000806112f2670de0b6b3a764000085611ab6565b905082818161130357611303611ad5565b04949350505050565b6000806113198385611ab6565b9050670de0b6b3a764000081611303565b60007f00000000000000000000000000000000000000000000000000000000000000006001600160a01b0316836001600160a01b03160361114557612710600254836113769190611ab6565b6113809190611aeb565b9050611145565b6060600080866001600160a01b031663b61d27f68787876040518463ffffffff1660e01b81526004016113bc93929190611b65565b6000604051808303816000875af11580156113db573d6000803e3d6000fd5b505050506040513d6000823e601f3d908101601f191682016040526114039190810190611ba6565b91509150816114545760405162461bcd60e51b815260206004820152601f60248201527f50656e646c6550726f78793a3a7361666545786563757465206661696c65640060448201526064016102ec565b9695505050505050565b60006114b3826040518060400160405280602081526020017f5361666545524332303a206c6f772d6c6576656c2063616c6c206661696c6564815250856001600160a01b031661155b9092919063ffffffff16565b80519091501561032a57808060200190518101906114d19190611c4d565b61032a5760405162461bcd60e51b815260206004820152602a60248201527f5361666545524332303a204552433230206f7065726174696f6e20646964206e60448201527f6f7420737563636565640000000000000000000000000000000000000000000060648201526084016102ec565b60008183106115525781611554565b825b9392505050565b606061156a8484600085611572565b949350505050565b6060824710156115ea5760405162461bcd60e51b815260206004820152602660248201527f416464726573733a20696e73756666696369656e742062616c616e636520666f60448201527f722063616c6c000000000000000000000000000000000000000000000000000060648201526084016102ec565b6001600160a01b0385163b6116415760405162461bcd60e51b815260206004820152601d60248201527f416464726573733a2063616c6c20746f206e6f6e2d636f6e747261637400000060448201526064016102ec565b600080866001600160a01b0316858760405161165d9190611c68565b60006040518083038185875af1925050503d806000811461169a576040519150601f19603f3d011682016040523d82523d6000602084013e61169f565b606091505b50915091506116af8282866116ba565b979650505050505050565b606083156116c9575081611554565b8251156116d95782518084602001fd5b8160405162461bcd60e51b81526004016102ec9190611c84565b6001600160a01b038116811461170857600080fd5b50565b6000806040838503121561171e57600080fd5b8235611729816116f3565b946020939093013593505050565b60006020828403121561174957600080fd5b8135611554816116f3565b602080825282518282018190526000919060409081850190868401855b8281101561179f57815180516001600160a01b03168552860151868501529284019290850190600101611771565b5091979650505050505050565b6000602082840312156117be57600080fd5b5035919050565b634e487b7160e01b600052604160045260246000fd5b604051601f8201601f1916810167ffffffffffffffff81118282101715611804576118046117c5565b604052919050565b6000602080838503121561181f57600080fd5b825167ffffffffffffffff8082111561183757600080fd5b818501915085601f83011261184b57600080fd5b81518181111561185d5761185d6117c5565b8060051b915061186e8483016117db565b818152918301840191848101908884111561188857600080fd5b938501935b838510156118b257845192506118a2836116f3565b828252938501939085019061188d565b98975050505050505050565b6000602082840312156118d057600080fd5b5051919050565b634e487b7160e01b600052603260045260246000fd5b80516001600160801b038116811461190457600080fd5b919050565b6000806040838503121561191c57600080fd5b611925836118ed565b9150611933602084016118ed565b90509250929050565b634e487b7160e01b600052601160045260246000fd5b6000828210156119645761196461193c565b500390565b6000821982111561197c5761197c61193c565b500190565b6000600182016119935761199361193c565b5060010190565b6000602082840312156119ac57600080fd5b8151611554816116f3565b6000608082840312156119c957600080fd5b6040516080810181811067ffffffffffffffff821117156119ec576119ec6117c5565b6040526119f8836118ed565b8152611a06602084016118ed565b6020820152611a17604084016118ed565b6040820152611a28606084016118ed565b60608201529392505050565b60006001600160801b0383811690831681811015611a5457611a5461193c565b039392505050565b60006001600160801b0380831681851681830481118215151615611a8257611a8261193c565b02949350505050565b60006001600160801b03808316818516808303821115611aad57611aad61193c565b01949350505050565b6000816000190483118215151615611ad057611ad061193c565b500290565b634e487b7160e01b600052601260045260246000fd5b600082611b0857634e487b7160e01b600052601260045260246000fd5b500490565b60005b83811015611b28578181015183820152602001611b10565b83811115610ee35750506000910152565b60008151808452611b51816020860160208601611b0d565b601f01601f19169290920160200192915050565b6001600160a01b0384168152826020820152606060408201526000611b8d6060830184611b39565b95945050505050565b8051801515811461190457600080fd5b60008060408385031215611bb957600080fd5b611bc283611b96565b9150602083015167ffffffffffffffff80821115611bdf57600080fd5b818501915085601f830112611bf357600080fd5b815181811115611c0557611c056117c5565b611c18601f8201601f19166020016117db565b9150808252866020828501011115611c2f57600080fd5b611c40816020840160208601611b0d565b5080925050509250929050565b600060208284031215611c5f57600080fd5b61155482611b96565b60008251611c7a818460208701611b0d565b9190910192915050565b6020815260006115546020830184611b3956fea2646970667358221220a8fc4d4095c019044b99f8898d92b5857fab3a1ac66087057be28ec5584d5d5364736f6c634300080d0033",
  "devdoc": {
    "kind": "dev",
    "methods": {
      "approveStrategy(address)": {
        "details": "Very sensitive, restricted to devAddrCan only be set once per deposit token (reported by the strategy)",
        "params": {
          "_strategy": "address"
        }
      },
      "updateBoostFee(uint256)": {
        "params": {
          "_boostFeeBips": "Boost fee bips, check BIPS_DIVISOR"
        }
      },
      "updateDevAddr(address)": {
        "params": {
          "newValue": "address"
        }
      }
    },
    "version": 1
  },
  "userdoc": {
    "kind": "user",
    "methods": {
      "approveStrategy(address)": {
        "notice": "Add an approved strategy"
      },
      "updateBoostFee(uint256)": {
        "notice": "Update optional boost fee settins"
      },
      "updateDevAddr(address)": {
        "notice": "Update devAddr"
      }
    },
    "version": 1
  },
  "storageLayout": {
    "storage": [
      {
        "astId": 3329,
        "contract": "contracts/strategies/crosschain/pendle/PendleProxy.sol:PendleProxy",
        "label": "devAddr",
        "offset": 0,
        "slot": "0",
        "type": "t_address"
      },
      {
        "astId": 3340,
        "contract": "contracts/strategies/crosschain/pendle/PendleProxy.sol:PendleProxy",
        "label": "approvedStrategies",
        "offset": 0,
        "slot": "1",
        "type": "t_mapping(t_address,t_address)"
      },
      {
        "astId": 3342,
        "contract": "contracts/strategies/crosschain/pendle/PendleProxy.sol:PendleProxy",
        "label": "boostFeeBips",
        "offset": 0,
        "slot": "2",
        "type": "t_uint256"
      },
      {
        "astId": 3344,
        "contract": "contracts/strategies/crosschain/pendle/PendleProxy.sol:PendleProxy",
        "label": "boostFeeReceiver",
        "offset": 0,
        "slot": "3",
        "type": "t_address"
      }
    ],
    "types": {
      "t_address": {
        "encoding": "inplace",
        "label": "address",
        "numberOfBytes": "20"
      },
      "t_mapping(t_address,t_address)": {
        "encoding": "mapping",
        "key": "t_address",
        "label": "mapping(address => address)",
        "numberOfBytes": "32",
        "value": "t_address"
      },
      "t_uint256": {
        "encoding": "inplace",
        "label": "uint256",
        "numberOfBytes": "32"
      }
    }
  }
}