{
  "address": "0x15C6c5dC491b07a631bd5160E30adec451315d34",
  "abi": [
    {
      "inputs": [
        {
          "internalType": "address",
          "name": "_siloRepository",
          "type": "address"
        },
        {
          "internalType": "address",
          "name": "_siloIncentivesController",
          "type": "address"
        },
        {
          "internalType": "address",
          "name": "_siloLens",
          "type": "address"
        },
        {
          "internalType": "address",
          "name": "_silo",
          "type": "address"
        },
        {
          "components": [
            {
              "internalType": "address",
              "name": "gasToken",
              "type": "address"
            },
            {
              "internalType": "address[]",
              "name": "rewards",
              "type": "address[]"
            },
            {
              "internalType": "address",
              "name": "simpleRouter",
              "type": "address"
            }
          ],
          "internalType": "struct BaseStrategy.BaseStrategySettings",
          "name": "_baseStrategySettings",
          "type": "tuple"
        },
        {
          "components": [
            {
              "internalType": "string",
              "name": "name",
              "type": "string"
            },
            {
              "internalType": "address",
              "name": "owner",
              "type": "address"
            },
            {
              "internalType": "address",
              "name": "dev",
              "type": "address"
            },
            {
              "internalType": "address",
              "name": "feeCollector",
              "type": "address"
            },
            {
              "internalType": "address",
              "name": "depositToken",
              "type": "address"
            },
            {
              "internalType": "address",
              "name": "rewardToken",
              "type": "address"
            },
            {
              "internalType": "uint256",
              "name": "minTokensToReinvest",
              "type": "uint256"
            },
            {
              "internalType": "uint256",
              "name": "devFeeBips",
              "type": "uint256"
            },
            {
              "internalType": "uint256",
              "name": "reinvestRewardBips",
              "type": "uint256"
            }
          ],
          "internalType": "struct YakStrategyV3.StrategySettings",
          "name": "_strategySettings",
          "type": "tuple"
        }
      ],
      "stateMutability": "nonpayable",
      "type": "constructor"
    },
    {
      "anonymous": false,
      "inputs": [
        {
          "indexed": false,
          "internalType": "address",
          "name": "rewardToken",
          "type": "address"
        }
      ],
      "name": "AddReward",
      "type": "event"
    },
    {
      "anonymous": false,
      "inputs": [
        {
          "indexed": true,
          "internalType": "address",
          "name": "owner",
          "type": "address"
        },
        {
          "indexed": true,
          "internalType": "address",
          "name": "spender",
          "type": "address"
        },
        {
          "indexed": false,
          "internalType": "uint256",
          "name": "value",
          "type": "uint256"
        }
      ],
      "name": "Approval",
      "type": "event"
    },
    {
      "anonymous": false,
      "inputs": [
        {
          "indexed": true,
          "internalType": "address",
          "name": "account",
          "type": "address"
        },
        {
          "indexed": false,
          "internalType": "uint256",
          "name": "amount",
          "type": "uint256"
        }
      ],
      "name": "Deposit",
      "type": "event"
    },
    {
      "anonymous": false,
      "inputs": [
        {
          "indexed": false,
          "internalType": "bool",
          "name": "newValue",
          "type": "bool"
        }
      ],
      "name": "DepositsEnabled",
      "type": "event"
    },
    {
      "anonymous": false,
      "inputs": [
        {
          "indexed": true,
          "internalType": "address",
          "name": "previousOwner",
          "type": "address"
        },
        {
          "indexed": true,
          "internalType": "address",
          "name": "newOwner",
          "type": "address"
        }
      ],
      "name": "OwnershipTransferred",
      "type": "event"
    },
    {
      "anonymous": false,
      "inputs": [
        {
          "indexed": false,
          "internalType": "address",
          "name": "token",
          "type": "address"
        },
        {
          "indexed": false,
          "internalType": "uint256",
          "name": "amount",
          "type": "uint256"
        }
      ],
      "name": "Recovered",
      "type": "event"
    },
    {
      "anonymous": false,
      "inputs": [
        {
          "indexed": false,
          "internalType": "uint256",
          "name": "newTotalDeposits",
          "type": "uint256"
        },
        {
          "indexed": false,
          "internalType": "uint256",
          "name": "newTotalSupply",
          "type": "uint256"
        }
      ],
      "name": "Reinvest",
      "type": "event"
    },
    {
      "anonymous": false,
      "inputs": [
        {
          "indexed": false,
          "internalType": "address",
          "name": "rewardToken",
          "type": "address"
        }
      ],
      "name": "RemoveReward",
      "type": "event"
    },
    {
      "anonymous": false,
      "inputs": [
        {
          "indexed": true,
          "internalType": "address",
          "name": "from",
          "type": "address"
        },
        {
          "indexed": true,
          "internalType": "address",
          "name": "to",
          "type": "address"
        },
        {
          "indexed": false,
          "internalType": "uint256",
          "name": "value",
          "type": "uint256"
        }
      ],
      "name": "Transfer",
      "type": "event"
    },
    {
      "anonymous": false,
      "inputs": [
        {
          "indexed": false,
          "internalType": "address",
          "name": "oldValue",
          "type": "address"
        },
        {
          "indexed": false,
          "internalType": "address",
          "name": "newValue",
          "type": "address"
        }
      ],
      "name": "UpdateDevAddr",
      "type": "event"
    },
    {
      "anonymous": false,
      "inputs": [
        {
          "indexed": false,
          "internalType": "uint256",
          "name": "oldValue",
          "type": "uint256"
        },
        {
          "indexed": false,
          "internalType": "uint256",
          "name": "newValue",
          "type": "uint256"
        }
      ],
      "name": "UpdateDevFee",
      "type": "event"
    },
    {
      "anonymous": false,
      "inputs": [
        {
          "indexed": false,
          "internalType": "address",
          "name": "oldValue",
          "type": "address"
        },
        {
          "indexed": false,
          "internalType": "address",
          "name": "newValue",
          "type": "address"
        }
      ],
      "name": "UpdateFeeCollector",
      "type": "event"
    },
    {
      "anonymous": false,
      "inputs": [
        {
          "indexed": false,
          "internalType": "uint256",
          "name": "oldValue",
          "type": "uint256"
        },
        {
          "indexed": false,
          "internalType": "uint256",
          "name": "newValue",
          "type": "uint256"
        }
      ],
      "name": "UpdateMaxTokensToDepositWithoutReinvest",
      "type": "event"
    },
    {
      "anonymous": false,
      "inputs": [
        {
          "indexed": false,
          "internalType": "uint256",
          "name": "oldValue",
          "type": "uint256"
        },
        {
          "indexed": false,
          "internalType": "uint256",
          "name": "newValue",
          "type": "uint256"
        }
      ],
      "name": "UpdateMinTokensToReinvest",
      "type": "event"
    },
    {
      "anonymous": false,
      "inputs": [
        {
          "indexed": false,
          "internalType": "uint256",
          "name": "oldValue",
          "type": "uint256"
        },
        {
          "indexed": false,
          "internalType": "uint256",
          "name": "newValue",
          "type": "uint256"
        }
      ],
      "name": "UpdateReinvestReward",
      "type": "event"
    },
    {
      "anonymous": false,
      "inputs": [
        {
          "indexed": false,
          "internalType": "address",
          "name": "oldRouter",
          "type": "address"
        },
        {
          "indexed": false,
          "internalType": "address",
          "name": "newRouter",
          "type": "address"
        }
      ],
      "name": "UpdateRouter",
      "type": "event"
    },
    {
      "anonymous": false,
      "inputs": [
        {
          "indexed": true,
          "internalType": "address",
          "name": "account",
          "type": "address"
        },
        {
          "indexed": false,
          "internalType": "uint256",
          "name": "amount",
          "type": "uint256"
        }
      ],
      "name": "Withdraw",
      "type": "event"
    },
    {
      "inputs": [],
      "name": "DEPOSITS_ENABLED",
      "outputs": [
        {
          "internalType": "bool",
          "name": "",
          "type": "bool"
        }
      ],
      "stateMutability": "view",
      "type": "function"
    },
    {
      "inputs": [],
      "name": "DEV_FEE_BIPS",
      "outputs": [
        {
          "internalType": "uint256",
          "name": "",
          "type": "uint256"
        }
      ],
      "stateMutability": "view",
      "type": "function"
    },
    {
      "inputs": [],
      "name": "DOMAIN_TYPEHASH",
      "outputs": [
        {
          "internalType": "bytes32",
          "name": "",
          "type": "bytes32"
        }
      ],
      "stateMutability": "view",
      "type": "function"
    },
    {
      "inputs": [],
      "name": "MIN_TOKENS_TO_REINVEST",
      "outputs": [
        {
          "internalType": "uint256",
          "name": "",
          "type": "uint256"
        }
      ],
      "stateMutability": "view",
      "type": "function"
    },
    {
      "inputs": [],
      "name": "PERMIT_TYPEHASH",
      "outputs": [
        {
          "internalType": "bytes32",
          "name": "",
          "type": "bytes32"
        }
      ],
      "stateMutability": "view",
      "type": "function"
    },
    {
      "inputs": [],
      "name": "REINVEST_REWARD_BIPS",
      "outputs": [
        {
          "internalType": "uint256",
          "name": "",
          "type": "uint256"
        }
      ],
      "stateMutability": "view",
      "type": "function"
    },
    {
      "inputs": [],
      "name": "VERSION_HASH",
      "outputs": [
        {
          "internalType": "bytes32",
          "name": "",
          "type": "bytes32"
        }
      ],
      "stateMutability": "view",
      "type": "function"
    },
    {
      "inputs": [
        {
          "internalType": "address",
          "name": "_rewardToken",
          "type": "address"
        }
      ],
      "name": "addReward",
      "outputs": [],
      "stateMutability": "nonpayable",
      "type": "function"
    },
    {
      "inputs": [
        {
          "internalType": "address",
          "name": "account",
          "type": "address"
        },
        {
          "internalType": "address",
          "name": "spender",
          "type": "address"
        }
      ],
      "name": "allowance",
      "outputs": [
        {
          "internalType": "uint256",
          "name": "",
          "type": "uint256"
        }
      ],
      "stateMutability": "view",
      "type": "function"
    },
    {
      "inputs": [
        {
          "internalType": "address",
          "name": "spender",
          "type": "address"
        },
        {
          "internalType": "uint256",
          "name": "amount",
          "type": "uint256"
        }
      ],
      "name": "approve",
      "outputs": [
        {
          "internalType": "bool",
          "name": "",
          "type": "bool"
        }
      ],
      "stateMutability": "nonpayable",
      "type": "function"
    },
    {
      "inputs": [
        {
          "internalType": "address",
          "name": "account",
          "type": "address"
        }
      ],
      "name": "balanceOf",
      "outputs": [
        {
          "internalType": "uint256",
          "name": "",
          "type": "uint256"
        }
      ],
      "stateMutability": "view",
      "type": "function"
    },
    {
      "inputs": [
        {
          "internalType": "uint256",
          "name": "_amount",
          "type": "uint256"
        }
      ],
      "name": "calculateDepositFee",
      "outputs": [
        {
          "internalType": "uint256",
          "name": "",
          "type": "uint256"
        }
      ],
      "stateMutability": "view",
      "type": "function"
    },
    {
      "inputs": [
        {
          "internalType": "uint256",
          "name": "_amount",
          "type": "uint256"
        }
      ],
      "name": "calculateWithdrawFee",
      "outputs": [
        {
          "internalType": "uint256",
          "name": "",
          "type": "uint256"
        }
      ],
      "stateMutability": "view",
      "type": "function"
    },
    {
      "inputs": [],
      "name": "checkReward",
      "outputs": [
        {
          "internalType": "uint256",
          "name": "",
          "type": "uint256"
        }
      ],
      "stateMutability": "view",
      "type": "function"
    },
    {
      "inputs": [],
      "name": "decimals",
      "outputs": [
        {
          "internalType": "uint8",
          "name": "",
          "type": "uint8"
        }
      ],
      "stateMutability": "view",
      "type": "function"
    },
    {
      "inputs": [
        {
          "internalType": "uint256",
          "name": "_amount",
          "type": "uint256"
        }
      ],
      "name": "deposit",
      "outputs": [],
      "stateMutability": "nonpayable",
      "type": "function"
    },
    {
      "inputs": [
        {
          "internalType": "address",
          "name": "_account",
          "type": "address"
        },
        {
          "internalType": "uint256",
          "name": "_amount",
          "type": "uint256"
        }
      ],
      "name": "depositFor",
      "outputs": [],
      "stateMutability": "nonpayable",
      "type": "function"
    },
    {
      "inputs": [],
      "name": "depositToken",
      "outputs": [
        {
          "internalType": "contract IERC20",
          "name": "",
          "type": "address"
        }
      ],
      "stateMutability": "view",
      "type": "function"
    },
    {
      "inputs": [
        {
          "internalType": "uint256",
          "name": "_amount",
          "type": "uint256"
        },
        {
          "internalType": "uint256",
          "name": "_deadline",
          "type": "uint256"
        },
        {
          "internalType": "uint8",
          "name": "_v",
          "type": "uint8"
        },
        {
          "internalType": "bytes32",
          "name": "_r",
          "type": "bytes32"
        },
        {
          "internalType": "bytes32",
          "name": "_s",
          "type": "bytes32"
        }
      ],
      "name": "depositWithPermit",
      "outputs": [],
      "stateMutability": "nonpayable",
      "type": "function"
    },
    {
      "inputs": [],
      "name": "devAddr",
      "outputs": [
        {
          "internalType": "address",
          "name": "",
          "type": "address"
        }
      ],
      "stateMutability": "view",
      "type": "function"
    },
    {
      "inputs": [],
      "name": "disableDeposits",
      "outputs": [],
      "stateMutability": "nonpayable",
      "type": "function"
    },
    {
      "inputs": [],
      "name": "enableDeposits",
      "outputs": [],
      "stateMutability": "nonpayable",
      "type": "function"
    },
    {
      "inputs": [],
      "name": "estimateReinvestReward",
      "outputs": [
        {
          "internalType": "uint256",
          "name": "",
          "type": "uint256"
        }
      ],
      "stateMutability": "view",
      "type": "function"
    },
    {
      "inputs": [],
      "name": "feeCollector",
      "outputs": [
        {
          "internalType": "address",
          "name": "",
          "type": "address"
        }
      ],
      "stateMutability": "view",
      "type": "function"
    },
    {
      "inputs": [
        {
          "internalType": "uint256",
          "name": "amount",
          "type": "uint256"
        }
      ],
      "name": "getDepositTokensForShares",
      "outputs": [
        {
          "internalType": "uint256",
          "name": "",
          "type": "uint256"
        }
      ],
      "stateMutability": "view",
      "type": "function"
    },
    {
      "inputs": [],
      "name": "getDomainSeparator",
      "outputs": [
        {
          "internalType": "bytes32",
          "name": "",
          "type": "bytes32"
        }
      ],
      "stateMutability": "view",
      "type": "function"
    },
    {
      "inputs": [
        {
          "internalType": "uint256",
          "name": "amount",
          "type": "uint256"
        }
      ],
      "name": "getSharesForDepositTokens",
      "outputs": [
        {
          "internalType": "uint256",
          "name": "",
          "type": "uint256"
        }
      ],
      "stateMutability": "view",
      "type": "function"
    },
    {
      "inputs": [],
      "name": "getSupportedRewardsLength",
      "outputs": [
        {
          "internalType": "uint256",
          "name": "",
          "type": "uint256"
        }
      ],
      "stateMutability": "view",
      "type": "function"
    },
    {
      "inputs": [],
      "name": "name",
      "outputs": [
        {
          "internalType": "string",
          "name": "",
          "type": "string"
        }
      ],
      "stateMutability": "view",
      "type": "function"
    },
    {
      "inputs": [
        {
          "internalType": "address",
          "name": "",
          "type": "address"
        }
      ],
      "name": "nonces",
      "outputs": [
        {
          "internalType": "uint256",
          "name": "",
          "type": "uint256"
        }
      ],
      "stateMutability": "view",
      "type": "function"
    },
    {
      "inputs": [],
      "name": "owner",
      "outputs": [
        {
          "internalType": "address",
          "name": "",
          "type": "address"
        }
      ],
      "stateMutability": "view",
      "type": "function"
    },
    {
      "inputs": [
        {
          "internalType": "address",
          "name": "owner",
          "type": "address"
        },
        {
          "internalType": "address",
          "name": "spender",
          "type": "address"
        },
        {
          "internalType": "uint256",
          "name": "value",
          "type": "uint256"
        },
        {
          "internalType": "uint256",
          "name": "deadline",
          "type": "uint256"
        },
        {
          "internalType": "uint8",
          "name": "v",
          "type": "uint8"
        },
        {
          "internalType": "bytes32",
          "name": "r",
          "type": "bytes32"
        },
        {
          "internalType": "bytes32",
          "name": "s",
          "type": "bytes32"
        }
      ],
      "name": "permit",
      "outputs": [],
      "stateMutability": "nonpayable",
      "type": "function"
    },
    {
      "inputs": [
        {
          "internalType": "address",
          "name": "tokenAddress",
          "type": "address"
        },
        {
          "internalType": "uint256",
          "name": "tokenAmount",
          "type": "uint256"
        }
      ],
      "name": "recoverERC20",
      "outputs": [],
      "stateMutability": "nonpayable",
      "type": "function"
    },
    {
      "inputs": [
        {
          "internalType": "uint256",
          "name": "amount",
          "type": "uint256"
        }
      ],
      "name": "recoverGas",
      "outputs": [],
      "stateMutability": "nonpayable",
      "type": "function"
    },
    {
      "inputs": [],
      "name": "reinvest",
      "outputs": [],
      "stateMutability": "nonpayable",
      "type": "function"
    },
    {
      "inputs": [
        {
          "internalType": "address",
          "name": "_rewardToken",
          "type": "address"
        }
      ],
      "name": "removeReward",
      "outputs": [],
      "stateMutability": "nonpayable",
      "type": "function"
    },
    {
      "inputs": [],
      "name": "renounceOwnership",
      "outputs": [],
      "stateMutability": "nonpayable",
      "type": "function"
    },
    {
      "inputs": [
        {
          "internalType": "uint256",
          "name": "_minReturnAmountAccepted",
          "type": "uint256"
        }
      ],
      "name": "rescueDeployedFunds",
      "outputs": [],
      "stateMutability": "nonpayable",
      "type": "function"
    },
    {
      "inputs": [
        {
          "internalType": "address",
          "name": "token",
          "type": "address"
        },
        {
          "internalType": "address",
          "name": "spender",
          "type": "address"
        }
      ],
      "name": "revokeAllowance",
      "outputs": [],
      "stateMutability": "nonpayable",
      "type": "function"
    },
    {
      "inputs": [],
      "name": "rewardToken",
      "outputs": [
        {
          "internalType": "contract IERC20",
          "name": "",
          "type": "address"
        }
      ],
      "stateMutability": "view",
      "type": "function"
    },
    {
      "inputs": [],
      "name": "simpleRouter",
      "outputs": [
        {
          "internalType": "contract ISimpleRouter",
          "name": "",
          "type": "address"
        }
      ],
      "stateMutability": "view",
      "type": "function"
    },
    {
      "inputs": [
        {
          "internalType": "uint256",
          "name": "",
          "type": "uint256"
        }
      ],
      "name": "supportedRewards",
      "outputs": [
        {
          "internalType": "address",
          "name": "",
          "type": "address"
        }
      ],
      "stateMutability": "view",
      "type": "function"
    },
    {
      "inputs": [],
      "name": "symbol",
      "outputs": [
        {
          "internalType": "string",
          "name": "",
          "type": "string"
        }
      ],
      "stateMutability": "view",
      "type": "function"
    },
    {
      "inputs": [],
      "name": "totalDeposits",
      "outputs": [
        {
          "internalType": "uint256",
          "name": "",
          "type": "uint256"
        }
      ],
      "stateMutability": "view",
      "type": "function"
    },
    {
      "inputs": [],
      "name": "totalSupply",
      "outputs": [
        {
          "internalType": "uint256",
          "name": "",
          "type": "uint256"
        }
      ],
      "stateMutability": "view",
      "type": "function"
    },
    {
      "inputs": [
        {
          "internalType": "address",
          "name": "dst",
          "type": "address"
        },
        {
          "internalType": "uint256",
          "name": "amount",
          "type": "uint256"
        }
      ],
      "name": "transfer",
      "outputs": [
        {
          "internalType": "bool",
          "name": "",
          "type": "bool"
        }
      ],
      "stateMutability": "nonpayable",
      "type": "function"
    },
    {
      "inputs": [
        {
          "internalType": "address",
          "name": "src",
          "type": "address"
        },
        {
          "internalType": "address",
          "name": "dst",
          "type": "address"
        },
        {
          "internalType": "uint256",
          "name": "amount",
          "type": "uint256"
        }
      ],
      "name": "transferFrom",
      "outputs": [
        {
          "internalType": "bool",
          "name": "",
          "type": "bool"
        }
      ],
      "stateMutability": "nonpayable",
      "type": "function"
    },
    {
      "inputs": [
        {
          "internalType": "address",
          "name": "newOwner",
          "type": "address"
        }
      ],
      "name": "transferOwnership",
      "outputs": [],
      "stateMutability": "nonpayable",
      "type": "function"
    },
    {
      "inputs": [
        {
          "internalType": "address",
          "name": "newValue",
          "type": "address"
        }
      ],
      "name": "updateDevAddr",
      "outputs": [],
      "stateMutability": "nonpayable",
      "type": "function"
    },
    {
      "inputs": [
        {
          "internalType": "uint256",
          "name": "newValue",
          "type": "uint256"
        }
      ],
      "name": "updateDevFee",
      "outputs": [],
      "stateMutability": "nonpayable",
      "type": "function"
    },
    {
      "inputs": [
        {
          "internalType": "address",
          "name": "newValue",
          "type": "address"
        }
      ],
      "name": "updateFeeCollector",
      "outputs": [],
      "stateMutability": "nonpayable",
      "type": "function"
    },
    {
      "inputs": [
        {
          "internalType": "address",
          "name": "_siloIncentivesController",
          "type": "address"
        }
      ],
      "name": "updateIncentivesController",
      "outputs": [],
      "stateMutability": "nonpayable",
      "type": "function"
    },
    {
      "inputs": [
        {
          "internalType": "uint256",
          "name": "newValue",
          "type": "uint256"
        }
      ],
      "name": "updateMinTokensToReinvest",
      "outputs": [],
      "stateMutability": "nonpayable",
      "type": "function"
    },
    {
      "inputs": [
        {
          "internalType": "uint256",
          "name": "newValue",
          "type": "uint256"
        }
      ],
      "name": "updateReinvestReward",
      "outputs": [],
      "stateMutability": "nonpayable",
      "type": "function"
    },
    {
      "inputs": [
        {
          "internalType": "address",
          "name": "_router",
          "type": "address"
        }
      ],
      "name": "updateRouter",
      "outputs": [],
      "stateMutability": "nonpayable",
      "type": "function"
    },
    {
      "inputs": [
        {
          "internalType": "uint256",
          "name": "_amount",
          "type": "uint256"
        }
      ],
      "name": "withdraw",
      "outputs": [],
      "stateMutability": "nonpayable",
      "type": "function"
    }
  ],
  "transactionHash": "0xd5396ff4b4a98f50e6c96fc514d54e2bc10818835b53cf6cdcc060d447ec5a3f",
  "args": [
    "0x8658047e48CC09161f4152c79155Dac1d710Ff0a",
    "0xd592F705bDC8C1B439Bd4D665Ed99C4FaAd5A680",
    "0xBDb843c7a7e48Dc543424474d7Aa63b61B5D9536",
    "0xA8897b4552c075e884BDB8e7b704eB10DB29BF0D",
    {
      "gasToken": "0x82aF49447D8a07e3bd95BD0d56f35241523fBab1",
      "rewards": [
        "0x912CE59144191C1204E64559FE8253a0e49E6548"
      ],
      "simpleRouter": "0x4f543bb63d85D28b92Af2AD1f882F86805Db484C"
    },
    {
      "name": "Yield Yak: Silo USDC.e (wstETH)",
      "owner": "0xDcEDF06Fd33E1D7b6eb4b309f779a0e9D3172e44",
      "dev": "0xDcEDF06Fd33E1D7b6eb4b309f779a0e9D3172e44",
      "feeCollector": "0xDcEDF06Fd33E1D7b6eb4b309f779a0e9D3172e44",
      "depositToken": "0xFF970A61A04b1cA14834A43f5dE4533eBDDB5CC8",
      "rewardToken": "0x82aF49447D8a07e3bd95BD0d56f35241523fBab1",
      "minTokensToReinvest": "1000",
      "devFeeBips": 700,
      "reinvestRewardBips": 300
    }
  ],
  "solcInputHash": "fd333b605ff0c06620bee825375b1aa8",
  "bytecode": "0x6101806040526009610140819052685969656c642059616b60b81b6101609081526200002f91600091906200096a565b506040805180820190915260038082526216549560ea1b60209092019182526200005c916001916200096a565b503480156200006a57600080fd5b50604051620054e5380380620054e58339810160408190526200008d9162000d49565b600680546001600160a01b03191633908117909155604051839183918291908190600090600080516020620054c5833981519152908290a35080518051620000de916000916020909101906200096a565b506080808201516001600160a01b0390811690915260a0808301519091169052600780546001600160a01b0319163317905560c081015162000120906200044f565b60e08101516200013090620004ec565b6101008101516200014190620005a8565b6060810151620001519062000664565b6040810151620001619062000718565b6200016b620007cc565b60208101516200017b906200086d565b5081516001600160a01b031660c0526020808301518051620001a292600d920190620009f9565b506040820151600e80546001600160a01b0319166001600160a01b0390921691909117905560c08101516200022a5760405162461bcd60e51b815260206004820152602360248201527f4261736553747261746567793a3a496e76616c696420636f6e6669677572617460448201526234b7b760e91b60648201526084015b60405180910390fd5b60408051600080825260208201527fc7606d21ac05cd309191543e409f0845c016120563783d70e4f41419dc0ef234910160405180910390a150506001600160a01b03808716610100528316620002f55761010051608051604051630c5a30b960e11b81526001600160a01b0391821660048201529116906318b4617290602401602060405180830381865afa158015620002c9573d6000803e3d6000fd5b505050506040513d601f19601f82011682018060405250810190620002ef919062000e56565b620002f7565b825b6001600160a01b0390811660e0819052600f80546001600160a01b03191688841617905590851661012052604080516364654cf560e01b81529051600092839290916364654cf59160048082019286929091908290030181865afa15801562000364573d6000803e3d6000fd5b505050506040513d6000823e601f3d908101601f191682016040526200038e919081019062000e7b565b9150915060005b815181101562000440576080516001600160a01b0316838281518110620003c057620003c062000faa565b60200260200101516001600160a01b0316036200042b576010828281518110620003ee57620003ee62000faa565b6020908102919091018101515182546001810184556000938452919092200180546001600160a01b0319166001600160a01b039092169190911790555b80620004378162000fd6565b91505062000395565b50505050505050505062001049565b6007546001600160a01b03163314620004ab5760405162461bcd60e51b815260206004820152601460248201527f59616b53747261746567793a3a6f6e6c79446576000000000000000000000000604482015260640162000221565b60095460408051918252602082018390527f481f79ac3a523b6d6db3c5a720e190e986d1cc1b41adcdf50f9caef849901100910160405180910390a1600955565b6007546001600160a01b03163314620005485760405162461bcd60e51b815260206004820152601460248201527f59616b53747261746567793a3a6f6e6c79446576000000000000000000000000604482015260640162000221565b612710600b54826200055b919062000ff2565b11156200056757600080fd5b600c5460408051918252602082018390527f2a42303d002f0ba6cfe8259c91d4684443fb0b3de286ba74991175d651726131910160405180910390a1600c55565b6007546001600160a01b03163314620006045760405162461bcd60e51b815260206004820152601460248201527f59616b53747261746567793a3a6f6e6c79446576000000000000000000000000604482015260640162000221565b612710600c548262000617919062000ff2565b11156200062357600080fd5b600b5460408051918252602082018390527fe7f97d51d307dc44045597c9978bec0f842e6bb40d19b9444084cfa30d9ed4f2910160405180910390a1600b55565b6006546001600160a01b03163314620006af5760405162461bcd60e51b81526020600482018190526024820152600080516020620054a5833981519152604482015260640162000221565b600854604080516001600160a01b03928316815291831660208301527fcc882185e6edeeb762130016ea1faf3d7aa9c01b199bfd646f965b58ab741063910160405180910390a1600880546001600160a01b0319166001600160a01b0392909216919091179055565b6006546001600160a01b03163314620007635760405162461bcd60e51b81526020600482018190526024820152600080516020620054a5833981519152604482015260640162000221565b600754604080516001600160a01b03928316815291831660208301527fa8e91499ed37682f43cffb045fcc7d379a91e8c9a14e6321877ee34dee564c00910160405180910390a1600780546001600160a01b0319166001600160a01b0392909216919091179055565b6006546001600160a01b03163314620008175760405162461bcd60e51b81526020600482018190526024820152600080516020620054a5833981519152604482015260640162000221565b600a5460ff16156200082857600080fd5b600a805460ff191660019081179091556040519081527f7b014ed3854e7f5cb0218d58b3c6ae7d53a68bb0af2f67bfb029ea42c38a7e859060200160405180910390a1565b6006546001600160a01b03163314620008b85760405162461bcd60e51b81526020600482018190526024820152600080516020620054a5833981519152604482015260640162000221565b6001600160a01b0381166200091f5760405162461bcd60e51b815260206004820152602660248201527f4f776e61626c653a206e6577206f776e657220697320746865207a65726f206160448201526564647265737360d01b606482015260840162000221565b6006546040516001600160a01b03808416921690600080516020620054c583398151915290600090a3600680546001600160a01b0319166001600160a01b0392909216919091179055565b82805462000978906200100d565b90600052602060002090601f0160209004810192826200099c5760008555620009e7565b82601f10620009b757805160ff1916838001178555620009e7565b82800160010185558215620009e7579182015b82811115620009e7578251825591602001919060010190620009ca565b50620009f592915062000a51565b5090565b828054828255906000526020600020908101928215620009e7579160200282015b82811115620009e757825182546001600160a01b0319166001600160a01b0390911617825560209092019160019091019062000a1a565b5b80821115620009f5576000815560010162000a52565b80516001600160a01b038116811462000a8057600080fd5b919050565b634e487b7160e01b600052604160045260246000fd5b60405161012081016001600160401b038111828210171562000ac15762000ac162000a85565b60405290565b604051606081016001600160401b038111828210171562000ac15762000ac162000a85565b60405160c081016001600160401b038111828210171562000ac15762000ac162000a85565b604051601f8201601f191681016001600160401b038111828210171562000b3c5762000b3c62000a85565b604052919050565b60006001600160401b0382111562000b605762000b6062000a85565b5060051b60200190565b600082601f83011262000b7c57600080fd5b8151602062000b9562000b8f8362000b44565b62000b11565b82815260059290921b8401810191818101908684111562000bb557600080fd5b8286015b8481101562000bdb5762000bcd8162000a68565b835291830191830162000bb9565b509695505050505050565b600082601f83011262000bf857600080fd5b81516001600160401b0381111562000c145762000c1462000a85565b602062000c2a601f8301601f1916820162000b11565b828152858284870101111562000c3f57600080fd5b60005b8381101562000c5f57858101830151828201840152820162000c42565b8381111562000c715760008385840101525b5095945050505050565b6000610120828403121562000c8f57600080fd5b62000c9962000a9b565b82519091506001600160401b0381111562000cb357600080fd5b62000cc18482850162000be6565b82525062000cd26020830162000a68565b602082015262000ce56040830162000a68565b604082015262000cf86060830162000a68565b606082015262000d0b6080830162000a68565b608082015262000d1e60a0830162000a68565b60a082015260c082015160c082015260e082015160e082015261010080830151818301525092915050565b60008060008060008060c0878903121562000d6357600080fd5b62000d6e8762000a68565b955062000d7e6020880162000a68565b945062000d8e6040880162000a68565b935062000d9e6060880162000a68565b60808801519093506001600160401b038082111562000dbc57600080fd5b908801906060828b03121562000dd157600080fd5b62000ddb62000ac7565b62000de68362000a68565b815260208301518281111562000dfb57600080fd5b62000e098c82860162000b6a565b60208301525062000e1d6040840162000a68565b604082015260a08a015190945091508082111562000e3a57600080fd5b5062000e4989828a0162000c7b565b9150509295509295509295565b60006020828403121562000e6957600080fd5b62000e748262000a68565b9392505050565b600080604080848603121562000e9057600080fd5b83516001600160401b038082111562000ea857600080fd5b62000eb68783880162000b6a565b945060209150818601518181111562000ece57600080fd5b86019050601f8101871362000ee257600080fd5b805162000ef362000b8f8262000b44565b81815260c0918202830184019184820191908a84111562000f1357600080fd5b938501935b8385101562000f995780858c03121562000f325760008081fd5b62000f3c62000aec565b62000f478662000a68565b815262000f5687870162000a68565b8782015262000f6788870162000a68565b81890152606086810151908201526080808701519082015260a080870151908201528352938401939185019162000f18565b508096505050505050509250929050565b634e487b7160e01b600052603260045260246000fd5b634e487b7160e01b600052601160045260246000fd5b60006001820162000feb5762000feb62000fc0565b5060010190565b6000821982111562001008576200100862000fc0565b500190565b600181811c908216806200102257607f821691505b6020821081036200104357634e487b7160e01b600052602260045260246000fd5b50919050565b60805160a05160c05160e051610100516101205161432f62001176600039600061116a0152600050506000818161110b015281816125ce0152818161294a01528181612a46015281816136240152613727015260008181611ab9015281816132360152818161326501526132da0152600081816107bd01528181611a1c01528181611b2101528181611c6001528181612e0c01528181612e740152818161318201528181613304015281816133c0015281816134230152818161350001526135520152600081816106aa01528181610a1f01528181610af201528181610c8901528181610d1e0152818161113301528181612595015281816127ec0152818161297901528181612a75015281816134d60152818161357a0152818161365301526136f1015261432f6000f3fe608060405234801561001057600080fd5b50600436106103785760003560e01c806399729ec1116101d3578063c89039c511610104578063e77f6820116100a2578063f2fde38b1161007c578063f2fde38b14610792578063f6314d07146107a5578063f7c618c1146107b8578063fdb5a03e146107df57600080fd5b8063e77f682014610764578063eab89a5a14610777578063ed24911d1461078a57600080fd5b8063da09c72c116100de578063da09c72c146106f2578063dd62ed3e14610705578063dd8ce4d61461073e578063e75ab0451461075157600080fd5b8063c89039c5146106a5578063d2c35ce8146106cc578063d505accf146106df57600080fd5b8063b52a321f11610171578063bd079f551161014b578063bd079f551461066e578063c415b95c14610677578063c4b24a461461068a578063c851cc321461069257600080fd5b8063b52a321f14610646578063b6b55f2514610653578063b9e57b801461066657600080fd5b8063a4d5e67c116101ad578063a4d5e67c14610605578063a8ae2b7c14610618578063a9059cbb1461062b578063ac67e1af1461063e57600080fd5b806399729ec1146105b85780639c9b2e21146105cb5780639e4e7318146105de57600080fd5b80635ea682ea116102ad5780637ecebe001161024b5780638aff733d116102255780638aff733d1461056f5780638da5cb5b146105785780639291d5631461059d57806395d89b41146105b057600080fd5b80637ecebe001461052957806381837230146105495780638980f11f1461055c57600080fd5b8063715018a611610287578063715018a6146104f35780637897e7f6146104fb5780637ae267731461050e5780637d8820971461052157600080fd5b80635ea682ea146104ae578063666d25b9146104b757806370a08231146104ca57600080fd5b8063258250da1161031a57806330adf81f116102f457806330adf81f14610452578063313ce567146104795780634a970be7146104935780635e4c57a4146104a657600080fd5b8063258250da146104225780632e1a7d4d1461042a5780632f4f21e21461043f57600080fd5b806318160ddd1161035657806318160ddd146103df57806320606b70146103e857806323b872dd1461040f578063247d284b146103be57600080fd5b806306fdde031461037d578063095ea7b31461039b57806311056035146103be575b600080fd5b6103856107e7565b6040516103929190613b6f565b60405180910390f35b6103ae6103a9366004613bb7565b610875565b6040519015158152602001610392565b6103d16103cc366004613be3565b61088b565b604051908152602001610392565b6103d160025481565b6103d17f8b73c3c69bb8fe3d512ecc4cf759cc79239f7b179b0ffacaa9a75d522b39400f81565b6103ae61041d366004613bfc565b61089c565b600d546103d1565b61043d610438366004613be3565b610965565b005b61043d61044d366004613bb7565b610a8b565b6103d17f6e71edae12b1b97f4d1f60370fef10105fa2faae0126114a169c64845d6126c981565b610481601281565b60405160ff9091168152602001610392565b61043d6104a1366004613c53565b610a99565b61043d610b67565b6103d1600c5481565b61043d6104c5366004613be3565b610c17565b6103d16104d8366004613c9a565b6001600160a01b031660009081526004602052604090205490565b61043d610e98565b61043d610509366004613be3565b610f3c565b61043d61051c366004613cb7565b61100e565b6103d16110db565b6103d1610537366004613c9a565b60056020526000908152604090205481565b61043d610557366004613be3565b6111dc565b61043d61056a366004613bb7565b61126e565b6103d1600b5481565b6006546001600160a01b03165b6040516001600160a01b039091168152602001610392565b61043d6105ab366004613c9a565b611330565b6103856113f3565b61043d6105c6366004613be3565b611400565b61043d6105d9366004613c9a565b6114ae565b6103d17fc89efdaa54c0f20c7adf612882df0950f5a951637e0307cdcb4c672f298b8bc681565b61043d610613366004613c9a565b611649565b61043d610626366004613be3565b61184c565b6103ae610639366004613bb7565b6118fa565b61043d611907565b600a546103ae9060ff1681565b61043d610661366004613be3565b6119a2565b6103d16119af565b6103d160095481565b600854610585906001600160a01b031681565b6103d16119ee565b61043d6106a0366004613c9a565b611d43565b6105857f000000000000000000000000000000000000000000000000000000000000000081565b61043d6106da366004613c9a565b611dfd565b61043d6106ed366004613cf0565b611ec0565b600754610585906001600160a01b031681565b6103d1610713366004613cb7565b6001600160a01b03918216600090815260036020908152604080832093909416825291909152205490565b6103d161074c366004613be3565b611fd3565b61058561075f366004613be3565b612019565b61043d610772366004613c9a565b612043565b6103d1610785366004613be3565b6120b6565b6103d16120ec565b61043d6107a0366004613c9a565b61218c565b600e54610585906001600160a01b031681565b6105857f000000000000000000000000000000000000000000000000000000000000000081565b61043d6122be565b600080546107f490613d5e565b80601f016020809104026020016040519081016040528092919081815260200182805461082090613d5e565b801561086d5780601f106108425761010080835404028352916020019161086d565b820191906000526020600020905b81548152906001019060200180831161085057829003601f168201915b505050505081565b6000610882338484612319565b50600192915050565b600061089682612427565b92915050565b6001600160a01b0383166000818152600360209081526040808320338085529252822054919290919082148015906108d657506000198114155b1561094c5760006108e78583613da8565b6001600160a01b038881166000818152600360209081526040808320948916808452948252918290208590559051848152939450919290917f8c5be1e5ebec7d5bd14f71427d1e84f3dd0314c0f7b2291e5b200ac8c7c3b925910160405180910390a3505b610957868686612441565b6001925050505b9392505050565b6000610970826120b6565b9050600081116109ed5760405162461bcd60e51b815260206004820152602560248201527f4261736553747261746567793a3a576974686472617720616d6f756e7420746f60448201527f6f206c6f7700000000000000000000000000000000000000000000000000000060648201526084015b60405180910390fd5b60006109f882612565565b90506000610a0583612427565b9050610a4633610a158385613da8565b6001600160a01b037f000000000000000000000000000000000000000000000000000000000000000016919061263c565b610a5033856126bc565b60405183815233907f884edad9ce6fa2440d8a54cc123490eb96d2768479d49ff9c7366125a94243649060200160405180910390a250505050565b610a958282612750565b5050565b6040517fd505accf000000000000000000000000000000000000000000000000000000008152336004820152306024820152604481018690526064810185905260ff8416608482015260a4810183905260c481018290527f00000000000000000000000000000000000000000000000000000000000000006001600160a01b03169063d505accf9060e401600060405180830381600087803b158015610b3e57600080fd5b505af1158015610b52573d6000803e3d6000fd5b50505050610b603386612750565b5050505050565b6006546001600160a01b03163314610bc15760405162461bcd60e51b815260206004820181905260248201527f4f776e61626c653a2063616c6c6572206973206e6f7420746865206f776e657260448201526064016109e4565b600a5460ff1615610bd157600080fd5b600a805460ff191660019081179091556040519081527f7b014ed3854e7f5cb0218d58b3c6ae7d53a68bb0af2f67bfb029ea42c38a7e85906020015b60405180910390a1565b6006546001600160a01b03163314610c715760405162461bcd60e51b815260206004820181905260248201527f4f776e61626c653a2063616c6c6572206973206e6f7420746865206f776e657260448201526064016109e4565b6040516370a0823160e01b81523060048201526000907f00000000000000000000000000000000000000000000000000000000000000006001600160a01b0316906370a0823190602401602060405180830381865afa158015610cd8573d6000803e3d6000fd5b505050506040513d601f19601f82011682018060405250810190610cfc9190613dbf565b9050610d06612948565b6040516370a0823160e01b81523060048201526000907f00000000000000000000000000000000000000000000000000000000000000006001600160a01b0316906370a0823190602401602060405180830381865afa158015610d6d573d6000803e3d6000fd5b505050506040513d601f19601f82011682018060405250810190610d919190613dbf565b905082610d9e8383613da8565b1015610e385760405162461bcd60e51b815260206004820152604260248201527f4261736553747261746567793a3a456d657267656e637920776974686472617760448201527f206d696e696d756d2072657475726e20616d6f756e74206e6f7420726561636860648201527f6564000000000000000000000000000000000000000000000000000000000000608482015260a4016109e4565b7fc7606d21ac05cd309191543e409f0845c016120563783d70e4f41419dc0ef234610e616110db565b6002546040805192835260208301919091520160405180910390a1600a5460ff161515600103610e9357610e93611907565b505050565b6006546001600160a01b03163314610ef25760405162461bcd60e51b815260206004820181905260248201527f4f776e61626c653a2063616c6c6572206973206e6f7420746865206f776e657260448201526064016109e4565b6006546040516000916001600160a01b0316907f8be0079c531659141344cd1fd0a4f28419497f9722a3daafe3b4186f6b6457e0908390a3600680546001600160a01b0319169055565b6006546001600160a01b03163314610f965760405162461bcd60e51b815260206004820181905260248201527f4f776e61626c653a2063616c6c6572206973206e6f7420746865206f776e657260448201526064016109e4565b60008111610fa357600080fd5b604051339082156108fc029083906000818181858888f19350505050158015610fd0573d6000803e3d6000fd5b506040805160008152602081018390527f8c1256b8896378cd5044f80c202f9772b9d77dc85c8a6eb51967210b09bfaa28910160405180910390a150565b6007546001600160a01b0316331461105f5760405162461bcd60e51b81526020600482015260146024820152732cb0b5a9ba3930ba32b3bc9d1d37b7363ca232bb60611b60448201526064016109e4565b60405163095ea7b360e01b81526001600160a01b0382811660048301526000602483015283169063095ea7b3906044016020604051808303816000875af11580156110ae573d6000803e3d6000fd5b505050506040513d601f19601f820116820180604052508101906110d29190613dd8565b610a9557600080fd5b6040517fee9555dd0000000000000000000000000000000000000000000000000000000081526001600160a01b037f0000000000000000000000000000000000000000000000000000000000000000811660048301527f0000000000000000000000000000000000000000000000000000000000000000811660248301523060448301524260648301526000917f00000000000000000000000000000000000000000000000000000000000000009091169063ee9555dd90608401602060405180830381865afa1580156111b3573d6000803e3d6000fd5b505050506040513d601f19601f820116820180604052508101906111d79190613dbf565b905090565b6007546001600160a01b0316331461122d5760405162461bcd60e51b81526020600482015260146024820152732cb0b5a9ba3930ba32b3bc9d1d37b7363ca232bb60611b60448201526064016109e4565b60095460408051918252602082018390527f481f79ac3a523b6d6db3c5a720e190e986d1cc1b41adcdf50f9caef849901100910160405180910390a1600955565b6006546001600160a01b031633146112c85760405162461bcd60e51b815260206004820181905260248201527f4f776e61626c653a2063616c6c6572206973206e6f7420746865206f776e657260448201526064016109e4565b600081116112d557600080fd5b6112e96001600160a01b038316338361263c565b604080516001600160a01b0384168152602081018390527f8c1256b8896378cd5044f80c202f9772b9d77dc85c8a6eb51967210b09bfaa2891015b60405180910390a15050565b6006546001600160a01b0316331461138a5760405162461bcd60e51b815260206004820181905260248201527f4f776e61626c653a2063616c6c6572206973206e6f7420746865206f776e657260448201526064016109e4565b600754604080516001600160a01b03928316815291831660208301527fa8e91499ed37682f43cffb045fcc7d379a91e8c9a14e6321877ee34dee564c00910160405180910390a1600780546001600160a01b0319166001600160a01b0392909216919091179055565b600180546107f490613d5e565b6007546001600160a01b031633146114515760405162461bcd60e51b81526020600482015260146024820152732cb0b5a9ba3930ba32b3bc9d1d37b7363ca232bb60611b60448201526064016109e4565b612710600b54826114629190613dfa565b111561146d57600080fd5b600c5460408051918252602082018390527f2a42303d002f0ba6cfe8259c91d4684443fb0b3de286ba74991175d651726131910160405180910390a1600c55565b6007546001600160a01b031633146114ff5760405162461bcd60e51b81526020600482015260146024820152732cb0b5a9ba3930ba32b3bc9d1d37b7363ca232bb60611b60448201526064016109e4565b6000805b600d5481101561155657600d818154811061152057611520613e12565b6000918252602090912001546001600160a01b039081169084160361154457600191505b8061154e81613e28565b915050611503565b5080156115cb5760405162461bcd60e51b815260206004820152602860248201527f4261736553747261746567793a3a52657761726420616c726561647920636f6e60448201527f666967757265642100000000000000000000000000000000000000000000000060648201526084016109e4565b600d80546001810182556000919091527fd7b6990105719101dabeb77144f2a3385c8033acd3af97e9423a695e81ad1eb50180546001600160a01b0319166001600160a01b0384169081179091556040519081527f1714865bf5baa84e3439536a013c87cfe030b4cd69f344a5f2a4877de3d517ce90602001611324565b6007546001600160a01b0316331461169a5760405162461bcd60e51b81526020600482015260146024820152732cb0b5a9ba3930ba32b3bc9d1d37b7363ca232bb60611b60448201526064016109e4565b6000805b600d5481101561176a57600d81815481106116bb576116bb613e12565b6000918252602090912001546001600160a01b039081169084160361175857600d8054600193506116ed908490613da8565b815481106116fd576116fd613e12565b600091825260209091200154600d80546001600160a01b03909216918390811061172957611729613e12565b9060005260206000200160006101000a8154816001600160a01b0302191690836001600160a01b031602179055505b8061176281613e28565b91505061169e565b50806117dd5760405162461bcd60e51b8152602060048201526024808201527f4261736553747261746567793a3a526577617264206e6f7420636f6e6669677560448201527f726564210000000000000000000000000000000000000000000000000000000060648201526084016109e4565b600d8054806117ee576117ee613e41565b6000828152602090819020600019908301810180546001600160a01b03191690559091019091556040516001600160a01b03841681527f963b7c735475147a62c589c2d7cb8ec4b0a6b7af4f97373d79ebfa42ab8aa7dc9101611324565b6007546001600160a01b0316331461189d5760405162461bcd60e51b81526020600482015260146024820152732cb0b5a9ba3930ba32b3bc9d1d37b7363ca232bb60611b60448201526064016109e4565b612710600c54826118ae9190613dfa565b11156118b957600080fd5b600b5460408051918252602082018390527fe7f97d51d307dc44045597c9978bec0f842e6bb40d19b9444084cfa30d9ed4f2910160405180910390a1600b55565b6000610882338484612441565b6007546001600160a01b031633146119585760405162461bcd60e51b81526020600482015260146024820152732cb0b5a9ba3930ba32b3bc9d1d37b7363ca232bb60611b60448201526064016109e4565b600a5460ff1661196757600080fd5b600a805460ff19169055604051600081527f7b014ed3854e7f5cb0218d58b3c6ae7d53a68bb0af2f67bfb029ea42c38a7e8590602001610c0d565b6119ac3382612750565b50565b6000806119ba6119ee565b905060095481106119e657612710600b54826119d69190613e57565b6119e09190613e76565b91505090565b600091505090565b6000806119f9612ae2565b6040516370a0823160e01b81523060048201529091506000906001600160a01b037f000000000000000000000000000000000000000000000000000000000000000016906370a0823190602401602060405180830381865afa158015611a63573d6000803e3d6000fd5b505050506040513d601f19601f82011682018060405250810190611a879190613dbf565b905060005b8251811015611d3c576000838281518110611aa957611aa9613e12565b60200260200101516000015190507f00000000000000000000000000000000000000000000000000000000000000006001600160a01b0316816001600160a01b031603611b1f5747848381518110611b0357611b03613e12565b6020026020010151602001818151611b1b9190613dfa565b9052505b7f00000000000000000000000000000000000000000000000000000000000000006001600160a01b0316816001600160a01b031603611b8857838281518110611b6a57611b6a613e12565b60200260200101516020015183611b819190613dfa565b9250611d29565b6001600160a01b03811615611d29576040516370a0823160e01b81523060048201526000906001600160a01b038316906370a0823190602401602060405180830381865afa158015611bde573d6000803e3d6000fd5b505050506040513d601f19601f82011682018060405250810190611c029190613dbf565b90506000858481518110611c1857611c18613e12565b60200260200101516020015182611c2f9190613dfa565b90508015611d2657600e546040516377ccc49d60e11b8152600481018390526001600160a01b0385811660248301527f000000000000000000000000000000000000000000000000000000000000000081166044830152600092169063ef99893a90606401600060405180830381865afa158015611cb1573d6000803e3d6000fd5b505050506040513d6000823e601f3d908101601f19168201604052611cd99190810190613fa0565b9050600181600001515111611cef576000611d18565b80518051611cff90600190613da8565b81518110611d0f57611d0f613e12565b60200260200101515b611d229087613dfa565b9550505b50505b5080611d3481613e28565b915050611a8c565b5092915050565b6007546001600160a01b03163314611d945760405162461bcd60e51b81526020600482015260146024820152732cb0b5a9ba3930ba32b3bc9d1d37b7363ca232bb60611b60448201526064016109e4565b600e54604080516001600160a01b03928316815291831660208301527f2c6fb4d5ff9fad6ecf2e09cd64cbc9aad92a8b9d2cc0e5c3ddef9b529b0b5ffd910160405180910390a1600e80546001600160a01b0319166001600160a01b0392909216919091179055565b6006546001600160a01b03163314611e575760405162461bcd60e51b815260206004820181905260248201527f4f776e61626c653a2063616c6c6572206973206e6f7420746865206f776e657260448201526064016109e4565b600854604080516001600160a01b03928316815291831660208301527fcc882185e6edeeb762130016ea1faf3d7aa9c01b199bfd646f965b58ab741063910160405180910390a1600880546001600160a01b0319166001600160a01b0392909216919091179055565b42841015611f105760405162461bcd60e51b815260206004820152600f60248201527f7065726d69743a3a65787069726564000000000000000000000000000000000060448201526064016109e4565b6001600160a01b038716600090815260056020526040812080547f6e71edae12b1b97f4d1f60370fef10105fa2faae0126114a169c64845d6126c9918a918a918a919086611f5d83613e28565b909155506040805160208101969096526001600160a01b0394851690860152929091166060840152608083015260a082015260c0810186905260e001604051602081830303815290604052805190602001209050611fbe8882868686612c60565b611fc9888888612319565b5050505050505050565b600080611fde6110db565b600254909150801580611fef575081155b15611ffc57509192915050565b816120078286613e57565b6120119190613e76565b949350505050565b600d818154811061202957600080fd5b6000918252602090912001546001600160a01b0316905081565b6007546001600160a01b031633146120945760405162461bcd60e51b81526020600482015260146024820152732cb0b5a9ba3930ba32b3bc9d1d37b7363ca232bb60611b60448201526064016109e4565b600f80546001600160a01b0319166001600160a01b0392909216919091179055565b6000806120c16110db565b6002549091508015806120d2575081155b156120e1575060009392505050565b806120078386613e57565b60007f8b73c3c69bb8fe3d512ecc4cf759cc79239f7b179b0ffacaa9a75d522b39400f60001b600060405161212191906140b5565b6040519081900390207fc89efdaa54c0f20c7adf612882df0950f5a951637e0307cdcb4c672f298b8bc646604080516020810195909552840192909252606083015260808201523060a082015260c00160405160208183030381529060405280519060200120905090565b6006546001600160a01b031633146121e65760405162461bcd60e51b815260206004820181905260248201527f4f776e61626c653a2063616c6c6572206973206e6f7420746865206f776e657260448201526064016109e4565b6001600160a01b0381166122625760405162461bcd60e51b815260206004820152602660248201527f4f776e61626c653a206e6577206f776e657220697320746865207a65726f206160448201527f646472657373000000000000000000000000000000000000000000000000000060648201526084016109e4565b6006546040516001600160a01b038084169216907f8be0079c531659141344cd1fd0a4f28419497f9722a3daafe3b4186f6b6457e090600090a3600680546001600160a01b0319166001600160a01b0392909216919091179055565b32331461230d5760405162461bcd60e51b815260206004820152601460248201527f59616b53747261746567793a3a6f6e6c79454f4100000000000000000000000060448201526064016109e4565b6123176000612dc0565b565b6001600160a01b03831661236f5760405162461bcd60e51b815260206004820152601c60248201527f5f617070726f76653a3a6f776e6572207a65726f20616464726573730000000060448201526064016109e4565b6001600160a01b0382166123c55760405162461bcd60e51b815260206004820152601e60248201527f5f617070726f76653a3a7370656e646572207a65726f2061646472657373000060448201526064016109e4565b6001600160a01b0383811660008181526003602090815260408083209487168084529482529182902085905590518481527f8c5be1e5ebec7d5bd14f71427d1e84f3dd0314c0f7b2291e5b200ac8c7c3b92591015b60405180910390a3505050565b6000806127106124378285613e57565b61095e9190613e76565b6001600160a01b0382166124bd5760405162461bcd60e51b815260206004820152603460248201527f5f7472616e73666572546f6b656e733a2063616e6e6f74207472616e7366657260448201527f20746f20746865207a65726f206164647265737300000000000000000000000060648201526084016109e4565b6001600160a01b0383166000908152600460205260409020546124e1908290613da8565b6001600160a01b038085166000908152600460205260408082209390935590841681522054612511908290613dfa565b6001600160a01b0380841660008181526004602052604090819020939093559151908516907fddf252ad1be2c89b69c2b068fc378daa952ba7f163c4a11628f55a4df523b3ef9061241a9085815260200190565b6040517fead5d3590000000000000000000000000000000000000000000000000000000081526001600160a01b037f00000000000000000000000000000000000000000000000000000000000000008116600483015260248201839052600060448301819052917f00000000000000000000000000000000000000000000000000000000000000009091169063ead5d3599060640160408051808303816000875af1158015612618573d6000803e3d6000fd5b505050506040513d601f19601f82011682018060405250810190611d3c9190614150565b604080516001600160a01b038416602482015260448082018490528251808303909101815260649091019091526020810180517bffffffffffffffffffffffffffffffffffffffffffffffffffffffff167fa9059cbb00000000000000000000000000000000000000000000000000000000179052610e93908490612f25565b6001600160a01b0382166000908152600460205260409020546126e0908290613da8565b6001600160a01b038316600090815260046020526040902055600254612707908290613da8565b6002556040518181526000906001600160a01b038416907fddf252ad1be2c89b69c2b068fc378daa952ba7f163c4a11628f55a4df523b3ef906020015b60405180910390a35050565b600a5460ff1615156001146127a75760405162461bcd60e51b815260206004820152601f60248201527f4261736553747261746567793a3a4465706f736974732064697361626c65640060448201526064016109e4565b6127b16001612dc0565b6040517f23b872dd000000000000000000000000000000000000000000000000000000008152336004820152306024820152604481018290527f00000000000000000000000000000000000000000000000000000000000000006001600160a01b0316906323b872dd906064016020604051808303816000875af115801561283d573d6000803e3d6000fd5b505050506040513d601f19601f820116820180604052508101906128619190613dd8565b6128d35760405162461bcd60e51b815260206004820152602b60248201527f4261736553747261746567793a3a4465706f73697420746f6b656e207472616e60448201527f73666572206661696c656400000000000000000000000000000000000000000060648201526084016109e4565b60006128de82612427565b90506128f6836128f161074c8486613da8565b61300a565b61290082826130e0565b826001600160a01b03167fe1fffcc4923d04b559f4d29a8bfc6cda04eb5b0d3c460751c2402c5c5cc9109c8360405161293b91815260200190565b60405180910390a2505050565b7f00000000000000000000000000000000000000000000000000000000000000006001600160a01b031663ead5d3597f00000000000000000000000000000000000000000000000000000000000000006129a06110db565b6040517fffffffff0000000000000000000000000000000000000000000000000000000060e085901b1681526001600160a01b03909216600483015260248201526000604482015260640160408051808303816000875af1158015612a09573d6000803e3d6000fd5b505050506040513d601f19601f82011682018060405250810190612a2d9190614150565b505060405163095ea7b360e01b81526001600160a01b037f000000000000000000000000000000000000000000000000000000000000000081166004830152600060248301527f0000000000000000000000000000000000000000000000000000000000000000169063095ea7b3906044016020604051808303816000875af1158015612abe573d6000803e3d6000fd5b505050506040513d601f19601f820116820180604052508101906119ac9190613dd8565b600d5460609060009067ffffffffffffffff811115612b0357612b03613e98565b604051908082528060200260200182016040528015612b4857816020015b6040805180820190915260008082526020820152815260200190600190039081612b215790505b50905060005b8151811015612c5a576000600d8281548110612b6c57612b6c613e12565b6000918252602082200154600f546040517f8b599f260000000000000000000000000000000000000000000000000000000081526001600160a01b039283169450911690638b599f2690612bc79060109030906004016141bd565b602060405180830381865afa158015612be4573d6000803e3d6000fd5b505050506040513d601f19601f82011682018060405250810190612c089190613dbf565b90506040518060400160405280836001600160a01b0316815260200182815250848481518110612c3a57612c3a613e12565b602002602001018190525050508080612c5290613e28565b915050612b4e565b50919050565b6000612c6a6120ec565b6040517f1901000000000000000000000000000000000000000000000000000000000000602082015260228101919091526042810186905260620160408051601f198184030181528282528051602091820120600080855291840180845281905260ff88169284019290925260608301869052608083018590529092509060019060a0016020604051602081039080840390855afa158015612d10573d6000803e3d6000fd5b5050604051601f1901519150506001600160a01b03811615801590612d465750866001600160a01b0316816001600160a01b0316145b612db75760405162461bcd60e51b8152602060048201526024808201527f417263683a3a76616c69646174655369673a20696e76616c6964207369676e6160448201527f747572650000000000000000000000000000000000000000000000000000000060648201526084016109e4565b50505050505050565b6000612dca613160565b9050600954811115610a95576000612710600c5483612de99190613e57565b612df39190613e76565b90508015612e3557600854612e35906001600160a01b037f0000000000000000000000000000000000000000000000000000000000000000811691168361263c565b600083612e5c57612710600b5484612e4d9190613e57565b612e579190613e76565b612e5f565b60005b90508015612e9b57612e9b6001600160a01b037f000000000000000000000000000000000000000000000000000000000000000016338361263c565b6000612eba82612eab8587613da8565b612eb59190613da8565b6134d2565b90508015610b60576000612ecd82612427565b9050612ed982826130e0565b7fc7606d21ac05cd309191543e409f0845c016120563783d70e4f41419dc0ef234612f026110db565b6002546040805192835260208301919091520160405180910390a1505050505050565b6000612f7a826040518060400160405280602081526020017f5361666545524332303a206c6f772d6c6576656c2063616c6c206661696c6564815250856001600160a01b03166135fe9092919063ffffffff16565b805190915015610e935780806020019051810190612f989190613dd8565b610e935760405162461bcd60e51b815260206004820152602a60248201527f5361666545524332303a204552433230206f7065726174696f6e20646964206e60448201527f6f7420737563636565640000000000000000000000000000000000000000000060648201526084016109e4565b6000811161305a5760405162461bcd60e51b815260206004820152601260248201527f5f6d696e743a3a7a65726f20736861726573000000000000000000000000000060448201526064016109e4565b806002546130689190613dfa565b6002556001600160a01b03821660009081526004602052604090205461308f908290613dfa565b6001600160a01b0383166000818152600460205260408082209390935591519091907fddf252ad1be2c89b69c2b068fc378daa952ba7f163c4a11628f55a4df523b3ef906127449085815260200190565b600082116131565760405162461bcd60e51b815260206004820152602260248201527f4261736553747261746567793a3a5374616b6520616d6f756e7420746f6f206c60448201527f6f7700000000000000000000000000000000000000000000000000000000000060648201526084016109e4565b610a95828261360d565b600061316a613799565b6040516370a0823160e01b81523060048201526000907f00000000000000000000000000000000000000000000000000000000000000006001600160a01b0316906370a0823190602401602060405180830381865afa1580156131d1573d6000803e3d6000fd5b505050506040513d601f19601f820116820180604052508101906131f59190613dbf565b600d5490915060005b818110156134ca576000600d828154811061321b5761321b613e12565b6000918252602090912001546001600160a01b0390811691507f0000000000000000000000000000000000000000000000000000000000000000168103613346574780156132d8577f00000000000000000000000000000000000000000000000000000000000000006001600160a01b031663d0e30db0826040518263ffffffff1660e01b81526004016000604051808303818588803b1580156132be57600080fd5b505af11580156132d2573d6000803e3d6000fd5b50505050505b7f00000000000000000000000000000000000000000000000000000000000000006001600160a01b03167f00000000000000000000000000000000000000000000000000000000000000006001600160a01b0316036133445761333b8186613dfa565b945050506134b8565b505b6040516370a0823160e01b81523060048201526000906001600160a01b038316906370a0823190602401602060405180830381865afa15801561338d573d6000803e3d6000fd5b505050506040513d601f19601f820116820180604052508101906133b19190613dbf565b90506000811180156133f557507f00000000000000000000000000000000000000000000000000000000000000006001600160a01b0316826001600160a01b031614155b156134b557600e546040516377ccc49d60e11b8152600481018390526001600160a01b0384811660248301527f000000000000000000000000000000000000000000000000000000000000000081166044830152600092169063ef99893a90606401600060405180830381865afa158015613474573d6000803e3d6000fd5b505050506040513d6000823e601f3d908101601f1916820160405261349c9190810190613fa0565b90506134a781613815565b6134b19087613dfa565b9550505b50505b806134c281613e28565b9150506131fe565b509092915050565b60007f00000000000000000000000000000000000000000000000000000000000000006001600160a01b03167f00000000000000000000000000000000000000000000000000000000000000006001600160a01b031603613531575090565b600e546040516377ccc49d60e11b8152600481018490526001600160a01b037f0000000000000000000000000000000000000000000000000000000000000000811660248301527f000000000000000000000000000000000000000000000000000000000000000081166044830152600092169063ef99893a90606401600060405180830381865afa1580156135cb573d6000803e3d6000fd5b505050506040513d6000823e601f3d908101601f191682016040526135f39190810190613fa0565b905061095e81613815565b606061201184846000856139c2565b60405163095ea7b360e01b81526001600160a01b037f000000000000000000000000000000000000000000000000000000000000000081166004830152602482018490527f0000000000000000000000000000000000000000000000000000000000000000169063095ea7b3906044016020604051808303816000875af115801561369c573d6000803e3d6000fd5b505050506040513d601f19601f820116820180604052508101906136c09190613dd8565b506040517f3edd11280000000000000000000000000000000000000000000000000000000081526001600160a01b037f00000000000000000000000000000000000000000000000000000000000000008116600483015260248201849052600060448301527f00000000000000000000000000000000000000000000000000000000000000001690633edd11289060640160408051808303816000875af115801561376f573d6000803e3d6000fd5b505050506040513d601f19601f820116820180604052508101906137939190614150565b50505050565b600f546040517f414853040000000000000000000000000000000000000000000000000000000081526001600160a01b03909116906341485304906137e790601090600019906004016141e8565b600060405180830381600087803b15801561380157600080fd5b505af1158015613793573d6000803e3d6000fd5b805151600090158015906138525750815180516000919061383890600190613da8565b8151811061384857613848613e12565b6020026020010151115b156139ba57816040015160008151811061386e5761386e613e12565b60200260200101516001600160a01b031663095ea7b3600e60009054906101000a90046001600160a01b031684600001516000815181106138b1576138b1613e12565b60200260200101516040518363ffffffff1660e01b81526004016138ea9291906001600160a01b03929092168252602082015260400190565b6020604051808303816000875af1158015613909573d6000803e3d6000fd5b505050506040513d601f19601f8201168201806040525081019061392d9190613dd8565b50600e546040517f5b2466160000000000000000000000000000000000000000000000000000000081526001600160a01b0390911690635b24661690613977908590600401614243565b6020604051808303816000875af1158015613996573d6000803e3d6000fd5b505050506040513d601f19601f820116820180604052508101906108969190613dbf565b506000919050565b606082471015613a3a5760405162461bcd60e51b815260206004820152602660248201527f416464726573733a20696e73756666696369656e742062616c616e636520666f60448201527f722063616c6c000000000000000000000000000000000000000000000000000060648201526084016109e4565b6001600160a01b0385163b613a915760405162461bcd60e51b815260206004820152601d60248201527f416464726573733a2063616c6c20746f206e6f6e2d636f6e747261637400000060448201526064016109e4565b600080866001600160a01b03168587604051613aad91906142dd565b60006040518083038185875af1925050503d8060008114613aea576040519150601f19603f3d011682016040523d82523d6000602084013e613aef565b606091505b5091509150613aff828286613b0a565b979650505050505050565b60608315613b1957508161095e565b825115613b295782518084602001fd5b8160405162461bcd60e51b81526004016109e49190613b6f565b60005b83811015613b5e578181015183820152602001613b46565b838111156137935750506000910152565b6020815260008251806020840152613b8e816040850160208701613b43565b601f01601f19169190910160400192915050565b6001600160a01b03811681146119ac57600080fd5b60008060408385031215613bca57600080fd5b8235613bd581613ba2565b946020939093013593505050565b600060208284031215613bf557600080fd5b5035919050565b600080600060608486031215613c1157600080fd5b8335613c1c81613ba2565b92506020840135613c2c81613ba2565b929592945050506040919091013590565b803560ff81168114613c4e57600080fd5b919050565b600080600080600060a08688031215613c6b57600080fd5b8535945060208601359350613c8260408701613c3d565b94979396509394606081013594506080013592915050565b600060208284031215613cac57600080fd5b813561095e81613ba2565b60008060408385031215613cca57600080fd5b8235613cd581613ba2565b91506020830135613ce581613ba2565b809150509250929050565b600080600080600080600060e0888a031215613d0b57600080fd5b8735613d1681613ba2565b96506020880135613d2681613ba2565b95506040880135945060608801359350613d4260808901613c3d565b925060a0880135915060c0880135905092959891949750929550565b600181811c90821680613d7257607f821691505b602082108103612c5a57634e487b7160e01b600052602260045260246000fd5b634e487b7160e01b600052601160045260246000fd5b600082821015613dba57613dba613d92565b500390565b600060208284031215613dd157600080fd5b5051919050565b600060208284031215613dea57600080fd5b8151801515811461095e57600080fd5b60008219821115613e0d57613e0d613d92565b500190565b634e487b7160e01b600052603260045260246000fd5b600060018201613e3a57613e3a613d92565b5060010190565b634e487b7160e01b600052603160045260246000fd5b6000816000190483118215151615613e7157613e71613d92565b500290565b600082613e9357634e487b7160e01b600052601260045260246000fd5b500490565b634e487b7160e01b600052604160045260246000fd5b6040516080810167ffffffffffffffff81118282101715613ed157613ed1613e98565b60405290565b604051601f8201601f1916810167ffffffffffffffff81118282101715613f0057613f00613e98565b604052919050565b600067ffffffffffffffff821115613f2257613f22613e98565b5060051b60200190565b600082601f830112613f3d57600080fd5b81516020613f52613f4d83613f08565b613ed7565b82815260059290921b84018101918181019086841115613f7157600080fd5b8286015b84811015613f95578051613f8881613ba2565b8352918301918301613f75565b509695505050505050565b60006020808385031215613fb357600080fd5b825167ffffffffffffffff80821115613fcb57600080fd5b9084019060808287031215613fdf57600080fd5b613fe7613eae565b825182811115613ff657600080fd5b8301601f8101881361400757600080fd5b8051614015613f4d82613f08565b81815260059190911b8201860190868101908a83111561403457600080fd5b928701925b8284101561405257835182529287019290870190614039565b8452505050828401518281111561406857600080fd5b61407488828601613f2c565b8583015250604083015193508184111561408d57600080fd5b61409987858501613f2c565b6040820152606083015160608201528094505050505092915050565b600080835481600182811c9150808316806140d157607f831692505b602080841082036140f057634e487b7160e01b86526022600452602486fd5b818015614104576001811461411557614142565b60ff19861689528489019650614142565b60008a81526020902060005b8681101561413a5781548b820152908501908301614121565b505084890196505b509498975050505050505050565b6000806040838503121561416357600080fd5b505080516020909101519092909150565b6000815480845260208085019450836000528060002060005b838110156141b25781546001600160a01b03168752958201956001918201910161418d565b509495945050505050565b6040815260006141d06040830185614174565b90506001600160a01b03831660208301529392505050565b6040815260006141fb6040830185614174565b90508260208301529392505050565b600081518084526020808501945080840160005b838110156141b25781516001600160a01b03168752958201959082019060010161421e565b60208082528251608083830152805160a0840181905260009291820190839060c08601905b808310156142885783518252928401926001929092019190840190614268565b50838701519350601f199250828682030160408701526142a8818561420a565b935050506040850151818584030160608601526142c5838261420a565b92505050606084015160808401528091505092915050565b600082516142ef818460208701613b43565b919091019291505056fea26469706673582212200326f695768d11d3f69666a887daf3003143de21c017e1ad14419c3759887a1064736f6c634300080d00334f776e61626c653a2063616c6c6572206973206e6f7420746865206f776e65728be0079c531659141344cd1fd0a4f28419497f9722a3daafe3b4186f6b6457e0",
  "devdoc": {
    "kind": "dev",
    "methods": {
      "allowance(address,address)": {
        "params": {
          "account": "The address of the account holding the funds",
          "spender": "The address of the account spending the funds"
        },
        "returns": {
          "_0": "The number of tokens approved"
        }
      },
      "approve(address,uint256)": {
        "details": "This will overwrite the approval amount for `spender` and is subject to issues noted [here](https://eips.ethereum.org/EIPS/eip-20#approve) It is recommended to use increaseAllowance and decreaseAllowance instead",
        "params": {
          "amount": "The number of tokens that are approved (2^256-1 means infinite)",
          "spender": "The address of the account which may transfer tokens"
        },
        "returns": {
          "_0": "Whether or not the approval succeeded"
        }
      },
      "balanceOf(address)": {
        "params": {
          "account": "The address of the account to get the balance of"
        },
        "returns": {
          "_0": "The number of tokens held"
        }
      },
      "checkReward()": {
        "returns": {
          "_0": "reward tokens"
        }
      },
      "deposit(uint256)": {
        "params": {
          "_amount": "Amount of tokens to deposit"
        }
      },
      "depositWithPermit(uint256,uint256,uint8,bytes32,bytes32)": {
        "params": {
          "_amount": "Amount of tokens to deposit",
          "_deadline": "The time at which to expire the signature",
          "_r": "Half of the ECDSA signature pair",
          "_s": "Half of the ECDSA signature pair",
          "_v": "The recovery byte of the signature"
        }
      },
      "estimateReinvestReward()": {
        "returns": {
          "_0": "reward tokens"
        }
      },
      "getDepositTokensForShares(uint256)": {
        "params": {
          "amount": "receipt tokens"
        },
        "returns": {
          "_0": "deposit tokens"
        }
      },
      "getDomainSeparator()": {
        "returns": {
          "_0": "Separator"
        }
      },
      "getSharesForDepositTokens(uint256)": {
        "details": "If contract is empty, use 1:1 ratioCould return zero shares for very low amounts of deposit tokens",
        "params": {
          "amount": "deposit tokens"
        },
        "returns": {
          "_0": "receipt tokens"
        }
      },
      "owner()": {
        "details": "Returns the address of the current owner."
      },
      "permit(address,address,uint256,uint256,uint8,bytes32,bytes32)": {
        "params": {
          "deadline": "The time at which to expire the signature",
          "owner": "The address to approve from",
          "r": "Half of the ECDSA signature pair",
          "s": "Half of the ECDSA signature pair",
          "spender": "The address to be approved",
          "v": "The recovery byte of the signature",
          "value": "The number of tokens that are approved (2^256-1 means infinite)"
        }
      },
      "recoverERC20(address,uint256)": {
        "params": {
          "tokenAddress": "token address",
          "tokenAmount": "amount to recover"
        }
      },
      "recoverGas(uint256)": {
        "params": {
          "amount": "amount"
        }
      },
      "renounceOwnership()": {
        "details": "Leaves the contract without owner. It will not be possible to call `onlyOwner` functions anymore. Can only be called by the current owner. NOTE: Renouncing ownership will leave the contract without an owner, thereby removing any functionality that is only available to the owner."
      },
      "revokeAllowance(address,address)": {
        "params": {
          "spender": "address",
          "token": "address"
        }
      },
      "totalDeposits()": {
        "returns": {
          "_0": "total deposits available on the contract"
        }
      },
      "transfer(address,uint256)": {
        "params": {
          "amount": "The number of tokens to transfer",
          "dst": "The address of the destination account"
        },
        "returns": {
          "_0": "Whether or not the transfer succeeded"
        }
      },
      "transferFrom(address,address,uint256)": {
        "params": {
          "amount": "The number of tokens to transfer",
          "dst": "The address of the destination account",
          "src": "The address of the source account"
        },
        "returns": {
          "_0": "Whether or not the transfer succeeded"
        }
      },
      "transferOwnership(address)": {
        "details": "Transfers ownership of the contract to a new account (`newOwner`). Can only be called by the current owner."
      },
      "updateDevAddr(address)": {
        "params": {
          "newValue": "address"
        }
      },
      "updateDevFee(uint256)": {
        "params": {
          "newValue": "fee in BIPS"
        }
      },
      "updateFeeCollector(address)": {
        "params": {
          "newValue": "address"
        }
      },
      "updateMinTokensToReinvest(uint256)": {
        "params": {
          "newValue": "threshold"
        }
      },
      "updateReinvestReward(uint256)": {
        "params": {
          "newValue": "fee in BIPS"
        }
      }
    },
    "version": 1
  },
  "userdoc": {
    "kind": "user",
    "methods": {
      "allowance(address,address)": {
        "notice": "Get the number of tokens `spender` is approved to spend on behalf of `account`"
      },
      "approve(address,uint256)": {
        "notice": "Approve `spender` to transfer up to `amount` from `src`"
      },
      "balanceOf(address)": {
        "notice": "Get the number of tokens held by the `account`"
      },
      "checkReward()": {
        "notice": "Reward tokens available to strategy, including balance"
      },
      "deposit(uint256)": {
        "notice": "Deposit tokens to receive receipt tokens"
      },
      "depositWithPermit(uint256,uint256,uint8,bytes32,bytes32)": {
        "notice": "Deposit using Permit"
      },
      "disableDeposits()": {
        "notice": "Disable deposits"
      },
      "enableDeposits()": {
        "notice": "Enable deposits"
      },
      "estimateReinvestReward()": {
        "notice": "Estimate reinvest reward"
      },
      "getDepositTokensForShares(uint256)": {
        "notice": "Calculate deposit tokens for a given amount of receipt tokens"
      },
      "getDomainSeparator()": {
        "notice": "EIP-712 Domain separator"
      },
      "getSharesForDepositTokens(uint256)": {
        "notice": "Calculate receipt tokens for a given amount of deposit tokens"
      },
      "permit(address,address,uint256,uint256,uint8,bytes32,bytes32)": {
        "notice": "Triggers an approval from owner to spender"
      },
      "recoverERC20(address,uint256)": {
        "notice": "Recover ERC20 from contract"
      },
      "recoverGas(uint256)": {
        "notice": "Recover GAS from contract"
      },
      "reinvest()": {
        "notice": "Reinvest reward tokens into deposit tokens"
      },
      "revokeAllowance(address,address)": {
        "notice": "Revoke token allowance"
      },
      "totalDeposits()": {
        "notice": "This function returns a snapshot of last available quotes"
      },
      "transfer(address,uint256)": {
        "notice": "Transfer `amount` tokens from `msg.sender` to `dst`"
      },
      "transferFrom(address,address,uint256)": {
        "notice": "Transfer `amount` tokens from `src` to `dst`"
      },
      "updateDevAddr(address)": {
        "notice": "Update devAddr"
      },
      "updateDevFee(uint256)": {
        "notice": "Update developer fee"
      },
      "updateFeeCollector(address)": {
        "notice": "Update feeCollector"
      },
      "updateMinTokensToReinvest(uint256)": {
        "notice": "Update reinvest min threshold"
      },
      "updateReinvestReward(uint256)": {
        "notice": "Update reinvest reward"
      }
    },
    "version": 1
  },
  "storageLayout": {
    "storage": [
      {
        "astId": 552,
        "contract": "contracts/strategies/arbitrum/silo/SiloStrategy.sol:SiloStrategy",
        "label": "name",
        "offset": 0,
        "slot": "0",
        "type": "t_string_storage"
      },
      {
        "astId": 555,
        "contract": "contracts/strategies/arbitrum/silo/SiloStrategy.sol:SiloStrategy",
        "label": "symbol",
        "offset": 0,
        "slot": "1",
        "type": "t_string_storage"
      },
      {
        "astId": 560,
        "contract": "contracts/strategies/arbitrum/silo/SiloStrategy.sol:SiloStrategy",
        "label": "totalSupply",
        "offset": 0,
        "slot": "2",
        "type": "t_uint256"
      },
      {
        "astId": 566,
        "contract": "contracts/strategies/arbitrum/silo/SiloStrategy.sol:SiloStrategy",
        "label": "allowances",
        "offset": 0,
        "slot": "3",
        "type": "t_mapping(t_address,t_mapping(t_address,t_uint256))"
      },
      {
        "astId": 570,
        "contract": "contracts/strategies/arbitrum/silo/SiloStrategy.sol:SiloStrategy",
        "label": "balances",
        "offset": 0,
        "slot": "4",
        "type": "t_mapping(t_address,t_uint256)"
      },
      {
        "astId": 586,
        "contract": "contracts/strategies/arbitrum/silo/SiloStrategy.sol:SiloStrategy",
        "label": "nonces",
        "offset": 0,
        "slot": "5",
        "type": "t_mapping(t_address,t_uint256)"
      },
      {
        "astId": 8964,
        "contract": "contracts/strategies/arbitrum/silo/SiloStrategy.sol:SiloStrategy",
        "label": "_owner",
        "offset": 0,
        "slot": "6",
        "type": "t_address"
      },
      {
        "astId": 2566,
        "contract": "contracts/strategies/arbitrum/silo/SiloStrategy.sol:SiloStrategy",
        "label": "devAddr",
        "offset": 0,
        "slot": "7",
        "type": "t_address"
      },
      {
        "astId": 2568,
        "contract": "contracts/strategies/arbitrum/silo/SiloStrategy.sol:SiloStrategy",
        "label": "feeCollector",
        "offset": 0,
        "slot": "8",
        "type": "t_address"
      },
      {
        "astId": 2570,
        "contract": "contracts/strategies/arbitrum/silo/SiloStrategy.sol:SiloStrategy",
        "label": "MIN_TOKENS_TO_REINVEST",
        "offset": 0,
        "slot": "9",
        "type": "t_uint256"
      },
      {
        "astId": 2572,
        "contract": "contracts/strategies/arbitrum/silo/SiloStrategy.sol:SiloStrategy",
        "label": "DEPOSITS_ENABLED",
        "offset": 0,
        "slot": "10",
        "type": "t_bool"
      },
      {
        "astId": 2574,
        "contract": "contracts/strategies/arbitrum/silo/SiloStrategy.sol:SiloStrategy",
        "label": "REINVEST_REWARD_BIPS",
        "offset": 0,
        "slot": "11",
        "type": "t_uint256"
      },
      {
        "astId": 2576,
        "contract": "contracts/strategies/arbitrum/silo/SiloStrategy.sol:SiloStrategy",
        "label": "DEV_FEE_BIPS",
        "offset": 0,
        "slot": "12",
        "type": "t_uint256"
      },
      {
        "astId": 10563,
        "contract": "contracts/strategies/arbitrum/silo/SiloStrategy.sol:SiloStrategy",
        "label": "supportedRewards",
        "offset": 0,
        "slot": "13",
        "type": "t_array(t_address)dyn_storage"
      },
      {
        "astId": 10566,
        "contract": "contracts/strategies/arbitrum/silo/SiloStrategy.sol:SiloStrategy",
        "label": "simpleRouter",
        "offset": 0,
        "slot": "14",
        "type": "t_contract(ISimpleRouter)6372"
      },
      {
        "astId": 19003,
        "contract": "contracts/strategies/arbitrum/silo/SiloStrategy.sol:SiloStrategy",
        "label": "incentivesController",
        "offset": 0,
        "slot": "15",
        "type": "t_contract(IIncentivesController)19330"
      },
      {
        "astId": 19006,
        "contract": "contracts/strategies/arbitrum/silo/SiloStrategy.sol:SiloStrategy",
        "label": "siloTokens",
        "offset": 0,
        "slot": "16",
        "type": "t_array(t_address)dyn_storage"
      }
    ],
    "types": {
      "t_address": {
        "encoding": "inplace",
        "label": "address",
        "numberOfBytes": "20"
      },
      "t_array(t_address)dyn_storage": {
        "base": "t_address",
        "encoding": "dynamic_array",
        "label": "address[]",
        "numberOfBytes": "32"
      },
      "t_bool": {
        "encoding": "inplace",
        "label": "bool",
        "numberOfBytes": "1"
      },
      "t_contract(IIncentivesController)19330": {
        "encoding": "inplace",
        "label": "contract IIncentivesController",
        "numberOfBytes": "20"
      },
      "t_contract(ISimpleRouter)6372": {
        "encoding": "inplace",
        "label": "contract ISimpleRouter",
        "numberOfBytes": "20"
      },
      "t_mapping(t_address,t_mapping(t_address,t_uint256))": {
        "encoding": "mapping",
        "key": "t_address",
        "label": "mapping(address => mapping(address => uint256))",
        "numberOfBytes": "32",
        "value": "t_mapping(t_address,t_uint256)"
      },
      "t_mapping(t_address,t_uint256)": {
        "encoding": "mapping",
        "key": "t_address",
        "label": "mapping(address => uint256)",
        "numberOfBytes": "32",
        "value": "t_uint256"
      },
      "t_string_storage": {
        "encoding": "bytes",
        "label": "string",
        "numberOfBytes": "32"
      },
      "t_uint256": {
        "encoding": "inplace",
        "label": "uint256",
        "numberOfBytes": "32"
      }
    }
  }
}