{
  "address": "0x4be9D486331ae4532C32000F6DCb62F94299a1CB",
  "abi": [
    {
      "inputs": [
        {
          "internalType": "address",
          "name": "_stargateStaking",
          "type": "address"
        },
        {
          "internalType": "address",
          "name": "_pool",
          "type": "address"
        },
        {
          "components": [
            {
              "internalType": "address",
              "name": "gasToken",
              "type": "address"
            },
            {
              "internalType": "address[]",
              "name": "rewards",
              "type": "address[]"
            },
            {
              "internalType": "address",
              "name": "simpleRouter",
              "type": "address"
            }
          ],
          "internalType": "struct BaseStrategy.BaseStrategySettings",
          "name": "_baseStrategySettings",
          "type": "tuple"
        },
        {
          "components": [
            {
              "internalType": "string",
              "name": "name",
              "type": "string"
            },
            {
              "internalType": "address",
              "name": "owner",
              "type": "address"
            },
            {
              "internalType": "address",
              "name": "dev",
              "type": "address"
            },
            {
              "internalType": "address",
              "name": "feeCollector",
              "type": "address"
            },
            {
              "internalType": "address",
              "name": "depositToken",
              "type": "address"
            },
            {
              "internalType": "address",
              "name": "rewardToken",
              "type": "address"
            },
            {
              "internalType": "uint256",
              "name": "minTokensToReinvest",
              "type": "uint256"
            },
            {
              "internalType": "uint256",
              "name": "devFeeBips",
              "type": "uint256"
            },
            {
              "internalType": "uint256",
              "name": "reinvestRewardBips",
              "type": "uint256"
            }
          ],
          "internalType": "struct YakStrategyV3.StrategySettings",
          "name": "_strategySettings",
          "type": "tuple"
        }
      ],
      "stateMutability": "nonpayable",
      "type": "constructor"
    },
    {
      "anonymous": false,
      "inputs": [
        {
          "indexed": false,
          "internalType": "address",
          "name": "rewardToken",
          "type": "address"
        }
      ],
      "name": "AddReward",
      "type": "event"
    },
    {
      "anonymous": false,
      "inputs": [
        {
          "indexed": false,
          "internalType": "address",
          "name": "lamaPayInstance",
          "type": "address"
        },
        {
          "indexed": false,
          "internalType": "address",
          "name": "payer",
          "type": "address"
        },
        {
          "indexed": false,
          "internalType": "uint216",
          "name": "amountPerSec",
          "type": "uint216"
        },
        {
          "indexed": false,
          "internalType": "address",
          "name": "token",
          "type": "address"
        }
      ],
      "name": "AddStream",
      "type": "event"
    },
    {
      "anonymous": false,
      "inputs": [
        {
          "indexed": true,
          "internalType": "address",
          "name": "owner",
          "type": "address"
        },
        {
          "indexed": true,
          "internalType": "address",
          "name": "spender",
          "type": "address"
        },
        {
          "indexed": false,
          "internalType": "uint256",
          "name": "value",
          "type": "uint256"
        }
      ],
      "name": "Approval",
      "type": "event"
    },
    {
      "anonymous": false,
      "inputs": [
        {
          "indexed": false,
          "internalType": "address",
          "name": "lamaPayInstance",
          "type": "address"
        },
        {
          "indexed": false,
          "internalType": "address",
          "name": "payer",
          "type": "address"
        },
        {
          "indexed": false,
          "internalType": "uint216",
          "name": "amountPerSec",
          "type": "uint216"
        },
        {
          "indexed": false,
          "internalType": "address",
          "name": "token",
          "type": "address"
        }
      ],
      "name": "BorkedStream",
      "type": "event"
    },
    {
      "anonymous": false,
      "inputs": [
        {
          "indexed": true,
          "internalType": "address",
          "name": "account",
          "type": "address"
        },
        {
          "indexed": false,
          "internalType": "uint256",
          "name": "amount",
          "type": "uint256"
        }
      ],
      "name": "Deposit",
      "type": "event"
    },
    {
      "anonymous": false,
      "inputs": [
        {
          "indexed": false,
          "internalType": "bool",
          "name": "newValue",
          "type": "bool"
        }
      ],
      "name": "DepositsEnabled",
      "type": "event"
    },
    {
      "anonymous": false,
      "inputs": [
        {
          "indexed": true,
          "internalType": "address",
          "name": "previousOwner",
          "type": "address"
        },
        {
          "indexed": true,
          "internalType": "address",
          "name": "newOwner",
          "type": "address"
        }
      ],
      "name": "OwnershipTransferred",
      "type": "event"
    },
    {
      "anonymous": false,
      "inputs": [
        {
          "indexed": false,
          "internalType": "address",
          "name": "token",
          "type": "address"
        },
        {
          "indexed": false,
          "internalType": "uint256",
          "name": "amount",
          "type": "uint256"
        }
      ],
      "name": "Recovered",
      "type": "event"
    },
    {
      "anonymous": false,
      "inputs": [
        {
          "indexed": false,
          "internalType": "uint256",
          "name": "newTotalDeposits",
          "type": "uint256"
        },
        {
          "indexed": false,
          "internalType": "uint256",
          "name": "newTotalSupply",
          "type": "uint256"
        }
      ],
      "name": "Reinvest",
      "type": "event"
    },
    {
      "anonymous": false,
      "inputs": [
        {
          "indexed": false,
          "internalType": "address",
          "name": "rewardToken",
          "type": "address"
        }
      ],
      "name": "RemoveReward",
      "type": "event"
    },
    {
      "anonymous": false,
      "inputs": [
        {
          "indexed": false,
          "internalType": "address",
          "name": "lamaPayInstance",
          "type": "address"
        },
        {
          "indexed": false,
          "internalType": "address",
          "name": "payer",
          "type": "address"
        },
        {
          "indexed": false,
          "internalType": "uint216",
          "name": "amountPerSec",
          "type": "uint216"
        },
        {
          "indexed": false,
          "internalType": "address",
          "name": "token",
          "type": "address"
        }
      ],
      "name": "RemoveStream",
      "type": "event"
    },
    {
      "anonymous": false,
      "inputs": [
        {
          "indexed": true,
          "internalType": "address",
          "name": "from",
          "type": "address"
        },
        {
          "indexed": true,
          "internalType": "address",
          "name": "to",
          "type": "address"
        },
        {
          "indexed": false,
          "internalType": "uint256",
          "name": "value",
          "type": "uint256"
        }
      ],
      "name": "Transfer",
      "type": "event"
    },
    {
      "anonymous": false,
      "inputs": [
        {
          "indexed": false,
          "internalType": "address",
          "name": "oldValue",
          "type": "address"
        },
        {
          "indexed": false,
          "internalType": "address",
          "name": "newValue",
          "type": "address"
        }
      ],
      "name": "UpdateDevAddr",
      "type": "event"
    },
    {
      "anonymous": false,
      "inputs": [
        {
          "indexed": false,
          "internalType": "uint256",
          "name": "oldValue",
          "type": "uint256"
        },
        {
          "indexed": false,
          "internalType": "uint256",
          "name": "newValue",
          "type": "uint256"
        }
      ],
      "name": "UpdateDevFee",
      "type": "event"
    },
    {
      "anonymous": false,
      "inputs": [
        {
          "indexed": false,
          "internalType": "address",
          "name": "oldValue",
          "type": "address"
        },
        {
          "indexed": false,
          "internalType": "address",
          "name": "newValue",
          "type": "address"
        }
      ],
      "name": "UpdateFeeCollector",
      "type": "event"
    },
    {
      "anonymous": false,
      "inputs": [
        {
          "indexed": false,
          "internalType": "uint256",
          "name": "oldValue",
          "type": "uint256"
        },
        {
          "indexed": false,
          "internalType": "uint256",
          "name": "newValue",
          "type": "uint256"
        }
      ],
      "name": "UpdateMaxTokensToDepositWithoutReinvest",
      "type": "event"
    },
    {
      "anonymous": false,
      "inputs": [
        {
          "indexed": false,
          "internalType": "uint256",
          "name": "oldValue",
          "type": "uint256"
        },
        {
          "indexed": false,
          "internalType": "uint256",
          "name": "newValue",
          "type": "uint256"
        }
      ],
      "name": "UpdateMinTokensToReinvest",
      "type": "event"
    },
    {
      "anonymous": false,
      "inputs": [
        {
          "indexed": false,
          "internalType": "uint256",
          "name": "oldValue",
          "type": "uint256"
        },
        {
          "indexed": false,
          "internalType": "uint256",
          "name": "newValue",
          "type": "uint256"
        }
      ],
      "name": "UpdateReinvestReward",
      "type": "event"
    },
    {
      "anonymous": false,
      "inputs": [
        {
          "indexed": false,
          "internalType": "address",
          "name": "oldRouter",
          "type": "address"
        },
        {
          "indexed": false,
          "internalType": "address",
          "name": "newRouter",
          "type": "address"
        }
      ],
      "name": "UpdateRouter",
      "type": "event"
    },
    {
      "anonymous": false,
      "inputs": [
        {
          "indexed": true,
          "internalType": "address",
          "name": "account",
          "type": "address"
        },
        {
          "indexed": false,
          "internalType": "uint256",
          "name": "amount",
          "type": "uint256"
        }
      ],
      "name": "Withdraw",
      "type": "event"
    },
    {
      "inputs": [],
      "name": "DEPOSITS_ENABLED",
      "outputs": [
        {
          "internalType": "bool",
          "name": "",
          "type": "bool"
        }
      ],
      "stateMutability": "view",
      "type": "function"
    },
    {
      "inputs": [],
      "name": "DEV_FEE_BIPS",
      "outputs": [
        {
          "internalType": "uint256",
          "name": "",
          "type": "uint256"
        }
      ],
      "stateMutability": "view",
      "type": "function"
    },
    {
      "inputs": [],
      "name": "DOMAIN_TYPEHASH",
      "outputs": [
        {
          "internalType": "bytes32",
          "name": "",
          "type": "bytes32"
        }
      ],
      "stateMutability": "view",
      "type": "function"
    },
    {
      "inputs": [],
      "name": "MIN_TOKENS_TO_REINVEST",
      "outputs": [
        {
          "internalType": "uint256",
          "name": "",
          "type": "uint256"
        }
      ],
      "stateMutability": "view",
      "type": "function"
    },
    {
      "inputs": [],
      "name": "PERMIT_TYPEHASH",
      "outputs": [
        {
          "internalType": "bytes32",
          "name": "",
          "type": "bytes32"
        }
      ],
      "stateMutability": "view",
      "type": "function"
    },
    {
      "inputs": [],
      "name": "REINVEST_REWARD_BIPS",
      "outputs": [
        {
          "internalType": "uint256",
          "name": "",
          "type": "uint256"
        }
      ],
      "stateMutability": "view",
      "type": "function"
    },
    {
      "inputs": [],
      "name": "VERSION_HASH",
      "outputs": [
        {
          "internalType": "bytes32",
          "name": "",
          "type": "bytes32"
        }
      ],
      "stateMutability": "view",
      "type": "function"
    },
    {
      "inputs": [
        {
          "internalType": "address",
          "name": "_rewardToken",
          "type": "address"
        }
      ],
      "name": "addReward",
      "outputs": [],
      "stateMutability": "nonpayable",
      "type": "function"
    },
    {
      "inputs": [
        {
          "internalType": "address",
          "name": "_lamaPayInstance",
          "type": "address"
        },
        {
          "internalType": "address",
          "name": "_payer",
          "type": "address"
        },
        {
          "internalType": "uint216",
          "name": "_amountPerSec",
          "type": "uint216"
        }
      ],
      "name": "addStream",
      "outputs": [],
      "stateMutability": "nonpayable",
      "type": "function"
    },
    {
      "inputs": [
        {
          "internalType": "address",
          "name": "account",
          "type": "address"
        },
        {
          "internalType": "address",
          "name": "spender",
          "type": "address"
        }
      ],
      "name": "allowance",
      "outputs": [
        {
          "internalType": "uint256",
          "name": "",
          "type": "uint256"
        }
      ],
      "stateMutability": "view",
      "type": "function"
    },
    {
      "inputs": [
        {
          "internalType": "address",
          "name": "spender",
          "type": "address"
        },
        {
          "internalType": "uint256",
          "name": "amount",
          "type": "uint256"
        }
      ],
      "name": "approve",
      "outputs": [
        {
          "internalType": "bool",
          "name": "",
          "type": "bool"
        }
      ],
      "stateMutability": "nonpayable",
      "type": "function"
    },
    {
      "inputs": [
        {
          "internalType": "address",
          "name": "account",
          "type": "address"
        }
      ],
      "name": "balanceOf",
      "outputs": [
        {
          "internalType": "uint256",
          "name": "",
          "type": "uint256"
        }
      ],
      "stateMutability": "view",
      "type": "function"
    },
    {
      "inputs": [
        {
          "internalType": "uint256",
          "name": "_amount",
          "type": "uint256"
        }
      ],
      "name": "calculateDepositFee",
      "outputs": [
        {
          "internalType": "uint256",
          "name": "",
          "type": "uint256"
        }
      ],
      "stateMutability": "view",
      "type": "function"
    },
    {
      "inputs": [
        {
          "internalType": "uint256",
          "name": "_amount",
          "type": "uint256"
        }
      ],
      "name": "calculateWithdrawFee",
      "outputs": [
        {
          "internalType": "uint256",
          "name": "",
          "type": "uint256"
        }
      ],
      "stateMutability": "view",
      "type": "function"
    },
    {
      "inputs": [],
      "name": "checkReward",
      "outputs": [
        {
          "internalType": "uint256",
          "name": "",
          "type": "uint256"
        }
      ],
      "stateMutability": "view",
      "type": "function"
    },
    {
      "inputs": [],
      "name": "decimals",
      "outputs": [
        {
          "internalType": "uint8",
          "name": "",
          "type": "uint8"
        }
      ],
      "stateMutability": "view",
      "type": "function"
    },
    {
      "inputs": [
        {
          "internalType": "uint256",
          "name": "_amount",
          "type": "uint256"
        }
      ],
      "name": "deposit",
      "outputs": [],
      "stateMutability": "nonpayable",
      "type": "function"
    },
    {
      "inputs": [
        {
          "internalType": "address",
          "name": "_account",
          "type": "address"
        },
        {
          "internalType": "uint256",
          "name": "_amount",
          "type": "uint256"
        }
      ],
      "name": "depositFor",
      "outputs": [],
      "stateMutability": "nonpayable",
      "type": "function"
    },
    {
      "inputs": [],
      "name": "depositToken",
      "outputs": [
        {
          "internalType": "contract IERC20",
          "name": "",
          "type": "address"
        }
      ],
      "stateMutability": "view",
      "type": "function"
    },
    {
      "inputs": [
        {
          "internalType": "uint256",
          "name": "_amount",
          "type": "uint256"
        },
        {
          "internalType": "uint256",
          "name": "_deadline",
          "type": "uint256"
        },
        {
          "internalType": "uint8",
          "name": "_v",
          "type": "uint8"
        },
        {
          "internalType": "bytes32",
          "name": "_r",
          "type": "bytes32"
        },
        {
          "internalType": "bytes32",
          "name": "_s",
          "type": "bytes32"
        }
      ],
      "name": "depositWithPermit",
      "outputs": [],
      "stateMutability": "nonpayable",
      "type": "function"
    },
    {
      "inputs": [],
      "name": "devAddr",
      "outputs": [
        {
          "internalType": "address",
          "name": "",
          "type": "address"
        }
      ],
      "stateMutability": "view",
      "type": "function"
    },
    {
      "inputs": [],
      "name": "disableDeposits",
      "outputs": [],
      "stateMutability": "nonpayable",
      "type": "function"
    },
    {
      "inputs": [],
      "name": "enableDeposits",
      "outputs": [],
      "stateMutability": "nonpayable",
      "type": "function"
    },
    {
      "inputs": [],
      "name": "estimateReinvestReward",
      "outputs": [
        {
          "internalType": "uint256",
          "name": "",
          "type": "uint256"
        }
      ],
      "stateMutability": "view",
      "type": "function"
    },
    {
      "inputs": [],
      "name": "feeCollector",
      "outputs": [
        {
          "internalType": "address",
          "name": "",
          "type": "address"
        }
      ],
      "stateMutability": "view",
      "type": "function"
    },
    {
      "inputs": [
        {
          "internalType": "uint256",
          "name": "amount",
          "type": "uint256"
        }
      ],
      "name": "getDepositTokensForShares",
      "outputs": [
        {
          "internalType": "uint256",
          "name": "",
          "type": "uint256"
        }
      ],
      "stateMutability": "view",
      "type": "function"
    },
    {
      "inputs": [],
      "name": "getDomainSeparator",
      "outputs": [
        {
          "internalType": "bytes32",
          "name": "",
          "type": "bytes32"
        }
      ],
      "stateMutability": "view",
      "type": "function"
    },
    {
      "inputs": [
        {
          "internalType": "uint256",
          "name": "amount",
          "type": "uint256"
        }
      ],
      "name": "getSharesForDepositTokens",
      "outputs": [
        {
          "internalType": "uint256",
          "name": "",
          "type": "uint256"
        }
      ],
      "stateMutability": "view",
      "type": "function"
    },
    {
      "inputs": [],
      "name": "getSupportedRewardsLength",
      "outputs": [
        {
          "internalType": "uint256",
          "name": "",
          "type": "uint256"
        }
      ],
      "stateMutability": "view",
      "type": "function"
    },
    {
      "inputs": [],
      "name": "name",
      "outputs": [
        {
          "internalType": "string",
          "name": "",
          "type": "string"
        }
      ],
      "stateMutability": "view",
      "type": "function"
    },
    {
      "inputs": [
        {
          "internalType": "address",
          "name": "",
          "type": "address"
        }
      ],
      "name": "nonces",
      "outputs": [
        {
          "internalType": "uint256",
          "name": "",
          "type": "uint256"
        }
      ],
      "stateMutability": "view",
      "type": "function"
    },
    {
      "inputs": [],
      "name": "owner",
      "outputs": [
        {
          "internalType": "address",
          "name": "",
          "type": "address"
        }
      ],
      "stateMutability": "view",
      "type": "function"
    },
    {
      "inputs": [
        {
          "internalType": "address",
          "name": "owner",
          "type": "address"
        },
        {
          "internalType": "address",
          "name": "spender",
          "type": "address"
        },
        {
          "internalType": "uint256",
          "name": "value",
          "type": "uint256"
        },
        {
          "internalType": "uint256",
          "name": "deadline",
          "type": "uint256"
        },
        {
          "internalType": "uint8",
          "name": "v",
          "type": "uint8"
        },
        {
          "internalType": "bytes32",
          "name": "r",
          "type": "bytes32"
        },
        {
          "internalType": "bytes32",
          "name": "s",
          "type": "bytes32"
        }
      ],
      "name": "permit",
      "outputs": [],
      "stateMutability": "nonpayable",
      "type": "function"
    },
    {
      "inputs": [
        {
          "internalType": "address",
          "name": "tokenAddress",
          "type": "address"
        },
        {
          "internalType": "uint256",
          "name": "tokenAmount",
          "type": "uint256"
        }
      ],
      "name": "recoverERC20",
      "outputs": [],
      "stateMutability": "nonpayable",
      "type": "function"
    },
    {
      "inputs": [
        {
          "internalType": "uint256",
          "name": "amount",
          "type": "uint256"
        }
      ],
      "name": "recoverGas",
      "outputs": [],
      "stateMutability": "nonpayable",
      "type": "function"
    },
    {
      "inputs": [],
      "name": "reinvest",
      "outputs": [],
      "stateMutability": "nonpayable",
      "type": "function"
    },
    {
      "inputs": [
        {
          "internalType": "address",
          "name": "_rewardToken",
          "type": "address"
        }
      ],
      "name": "removeReward",
      "outputs": [],
      "stateMutability": "nonpayable",
      "type": "function"
    },
    {
      "inputs": [
        {
          "internalType": "address",
          "name": "_lamaPayInstance",
          "type": "address"
        },
        {
          "internalType": "address",
          "name": "_payer",
          "type": "address"
        },
        {
          "internalType": "uint216",
          "name": "_amountPerSec",
          "type": "uint216"
        }
      ],
      "name": "removeStream",
      "outputs": [],
      "stateMutability": "nonpayable",
      "type": "function"
    },
    {
      "inputs": [],
      "name": "renounceOwnership",
      "outputs": [],
      "stateMutability": "nonpayable",
      "type": "function"
    },
    {
      "inputs": [
        {
          "internalType": "uint256",
          "name": "_minReturnAmountAccepted",
          "type": "uint256"
        }
      ],
      "name": "rescueDeployedFunds",
      "outputs": [],
      "stateMutability": "nonpayable",
      "type": "function"
    },
    {
      "inputs": [
        {
          "internalType": "address",
          "name": "token",
          "type": "address"
        },
        {
          "internalType": "address",
          "name": "spender",
          "type": "address"
        }
      ],
      "name": "revokeAllowance",
      "outputs": [],
      "stateMutability": "nonpayable",
      "type": "function"
    },
    {
      "inputs": [],
      "name": "rewardToken",
      "outputs": [
        {
          "internalType": "contract IERC20",
          "name": "",
          "type": "address"
        }
      ],
      "stateMutability": "view",
      "type": "function"
    },
    {
      "inputs": [],
      "name": "simpleRouter",
      "outputs": [
        {
          "internalType": "contract ISimpleRouter",
          "name": "",
          "type": "address"
        }
      ],
      "stateMutability": "view",
      "type": "function"
    },
    {
      "inputs": [],
      "name": "stargatePool",
      "outputs": [
        {
          "internalType": "contract IStargatePool",
          "name": "",
          "type": "address"
        }
      ],
      "stateMutability": "view",
      "type": "function"
    },
    {
      "inputs": [],
      "name": "stargateStaking",
      "outputs": [
        {
          "internalType": "contract IStargateStaking",
          "name": "",
          "type": "address"
        }
      ],
      "stateMutability": "view",
      "type": "function"
    },
    {
      "inputs": [
        {
          "internalType": "uint256",
          "name": "",
          "type": "uint256"
        }
      ],
      "name": "streams",
      "outputs": [
        {
          "internalType": "address",
          "name": "lamaPayInstance",
          "type": "address"
        },
        {
          "internalType": "address",
          "name": "payer",
          "type": "address"
        },
        {
          "internalType": "uint216",
          "name": "amountPerSec",
          "type": "uint216"
        },
        {
          "internalType": "address",
          "name": "token",
          "type": "address"
        }
      ],
      "stateMutability": "view",
      "type": "function"
    },
    {
      "inputs": [
        {
          "internalType": "uint256",
          "name": "",
          "type": "uint256"
        }
      ],
      "name": "supportedRewards",
      "outputs": [
        {
          "internalType": "address",
          "name": "",
          "type": "address"
        }
      ],
      "stateMutability": "view",
      "type": "function"
    },
    {
      "inputs": [],
      "name": "symbol",
      "outputs": [
        {
          "internalType": "string",
          "name": "",
          "type": "string"
        }
      ],
      "stateMutability": "view",
      "type": "function"
    },
    {
      "inputs": [],
      "name": "totalDeposits",
      "outputs": [
        {
          "internalType": "uint256",
          "name": "",
          "type": "uint256"
        }
      ],
      "stateMutability": "view",
      "type": "function"
    },
    {
      "inputs": [],
      "name": "totalSupply",
      "outputs": [
        {
          "internalType": "uint256",
          "name": "",
          "type": "uint256"
        }
      ],
      "stateMutability": "view",
      "type": "function"
    },
    {
      "inputs": [
        {
          "internalType": "address",
          "name": "dst",
          "type": "address"
        },
        {
          "internalType": "uint256",
          "name": "amount",
          "type": "uint256"
        }
      ],
      "name": "transfer",
      "outputs": [
        {
          "internalType": "bool",
          "name": "",
          "type": "bool"
        }
      ],
      "stateMutability": "nonpayable",
      "type": "function"
    },
    {
      "inputs": [
        {
          "internalType": "address",
          "name": "src",
          "type": "address"
        },
        {
          "internalType": "address",
          "name": "dst",
          "type": "address"
        },
        {
          "internalType": "uint256",
          "name": "amount",
          "type": "uint256"
        }
      ],
      "name": "transferFrom",
      "outputs": [
        {
          "internalType": "bool",
          "name": "",
          "type": "bool"
        }
      ],
      "stateMutability": "nonpayable",
      "type": "function"
    },
    {
      "inputs": [
        {
          "internalType": "address",
          "name": "newOwner",
          "type": "address"
        }
      ],
      "name": "transferOwnership",
      "outputs": [],
      "stateMutability": "nonpayable",
      "type": "function"
    },
    {
      "inputs": [
        {
          "internalType": "address",
          "name": "newValue",
          "type": "address"
        }
      ],
      "name": "updateDevAddr",
      "outputs": [],
      "stateMutability": "nonpayable",
      "type": "function"
    },
    {
      "inputs": [
        {
          "internalType": "uint256",
          "name": "newValue",
          "type": "uint256"
        }
      ],
      "name": "updateDevFee",
      "outputs": [],
      "stateMutability": "nonpayable",
      "type": "function"
    },
    {
      "inputs": [
        {
          "internalType": "address",
          "name": "newValue",
          "type": "address"
        }
      ],
      "name": "updateFeeCollector",
      "outputs": [],
      "stateMutability": "nonpayable",
      "type": "function"
    },
    {
      "inputs": [
        {
          "internalType": "uint256",
          "name": "newValue",
          "type": "uint256"
        }
      ],
      "name": "updateMinTokensToReinvest",
      "outputs": [],
      "stateMutability": "nonpayable",
      "type": "function"
    },
    {
      "inputs": [
        {
          "internalType": "uint256",
          "name": "newValue",
          "type": "uint256"
        }
      ],
      "name": "updateReinvestReward",
      "outputs": [],
      "stateMutability": "nonpayable",
      "type": "function"
    },
    {
      "inputs": [
        {
          "internalType": "address",
          "name": "_router",
          "type": "address"
        }
      ],
      "name": "updateRouter",
      "outputs": [],
      "stateMutability": "nonpayable",
      "type": "function"
    },
    {
      "inputs": [
        {
          "internalType": "uint256",
          "name": "_amount",
          "type": "uint256"
        }
      ],
      "name": "withdraw",
      "outputs": [],
      "stateMutability": "nonpayable",
      "type": "function"
    },
    {
      "stateMutability": "payable",
      "type": "receive"
    }
  ],
  "transactionHash": "0xd74a3726efb4d98b218052667203145d4a3c555a6af4a8b4baaa57d2a009f229",
  "args": [
    "0x3da4f8E456AC648c489c286B99Ca37B666be7C4C",
    "0xA45B5130f36CDcA45667738e2a258AB09f4A5f7F",
    {
      "gasToken": "0x82aF49447D8a07e3bd95BD0d56f35241523fBab1",
      "rewards": [
        "0x912CE59144191C1204E64559FE8253a0e49E6548",
        "0x7f4dB37D7bEb31F445307782Bc3Da0F18dF13696"
      ],
      "simpleRouter": "0x4f543bb63d85D28b92Af2AD1f882F86805Db484C"
    },
    {
      "name": "Yield Yak: STG S*ETH",
      "owner": "0xDcEDF06Fd33E1D7b6eb4b309f779a0e9D3172e44",
      "dev": "0xDcEDF06Fd33E1D7b6eb4b309f779a0e9D3172e44",
      "feeCollector": "0xbb82b43Bf2057B804253D5Db8c18A647fC1f3403",
      "depositToken": "0x993614e1c8c9C5AbE49462Ce5702431978Fd767F",
      "rewardToken": "0x82aF49447D8a07e3bd95BD0d56f35241523fBab1",
      "minTokensToReinvest": "1000",
      "devFeeBips": 700,
      "reinvestRewardBips": 300
    }
  ],
  "solcInputHash": "efe838211d3af67651ff3af440d66384",
  "bytecode": "0x6101a06040526009610160819052685969656c642059616b60b81b6101809081526200002f916000919062000834565b506040805180820190915260038082526216549560ea1b60209092019182526200005c9160019162000834565b503480156200006a57600080fd5b50604051620065d7380380620065d78339810160408190526200008d9162000b4c565b8181818180600033600680546001600160a01b0319166001600160a01b03831690811790915560405191925090600090600080516020620065b7833981519152908290a35080518051620000ea9160009160209091019062000834565b506080808201516001600160a01b0390811690915260a0808301519091169052600780546001600160a01b0319163317905560c08101516200012c9062000315565b60e08101516200013c90620003b6565b6101008101516200014d9062000472565b60608101516200015d906200052e565b60408101516200016d90620005e2565b6200017762000696565b6020810151620001879062000737565b5081516001600160a01b031660c0526020808301518051620001ae92600d920190620008c3565b50604082810151600e80546001600160a01b0319166001600160a01b039092169190911790558051600080825260208201527fc7606d21ac05cd309191543e409f0845c016120563783d70e4f41419dc0ef234910160405180910390a1505050506001600160a01b0384811660e0528381166101005260c0516040805163313ce56760e01b81529051919092169163313ce5679160048083019260209291908290030181865afa15801562000267573d6000803e3d6000fd5b505050506040513d601f19601f820116820180604052508101906200028d919062000ca7565b60ff166101408160ff1681525050610100516001600160a01b031663857749b06040518163ffffffff1660e01b8152600401602060405180830381865afa158015620002dd573d6000803e3d6000fd5b505050506040513d601f19601f8201168201806040525081019062000303919062000ca7565b60ff16610120525062000d3692505050565b6007546001600160a01b03163314620003755760405162461bcd60e51b815260206004820152601460248201527f59616b53747261746567793a3a6f6e6c7944657600000000000000000000000060448201526064015b60405180910390fd5b60095460408051918252602082018390527f481f79ac3a523b6d6db3c5a720e190e986d1cc1b41adcdf50f9caef849901100910160405180910390a1600955565b6007546001600160a01b03163314620004125760405162461bcd60e51b815260206004820152601460248201527f59616b53747261746567793a3a6f6e6c7944657600000000000000000000000060448201526064016200036c565b612710600b548262000425919062000cd3565b11156200043157600080fd5b600c5460408051918252602082018390527f2a42303d002f0ba6cfe8259c91d4684443fb0b3de286ba74991175d651726131910160405180910390a1600c55565b6007546001600160a01b03163314620004ce5760405162461bcd60e51b815260206004820152601460248201527f59616b53747261746567793a3a6f6e6c7944657600000000000000000000000060448201526064016200036c565b612710600c5482620004e1919062000cd3565b1115620004ed57600080fd5b600b5460408051918252602082018390527fe7f97d51d307dc44045597c9978bec0f842e6bb40d19b9444084cfa30d9ed4f2910160405180910390a1600b55565b6006546001600160a01b03163314620005795760405162461bcd60e51b815260206004820181905260248201526000805160206200659783398151915260448201526064016200036c565b600854604080516001600160a01b03928316815291831660208301527fcc882185e6edeeb762130016ea1faf3d7aa9c01b199bfd646f965b58ab741063910160405180910390a1600880546001600160a01b0319166001600160a01b0392909216919091179055565b6006546001600160a01b031633146200062d5760405162461bcd60e51b815260206004820181905260248201526000805160206200659783398151915260448201526064016200036c565b600754604080516001600160a01b03928316815291831660208301527fa8e91499ed37682f43cffb045fcc7d379a91e8c9a14e6321877ee34dee564c00910160405180910390a1600780546001600160a01b0319166001600160a01b0392909216919091179055565b6006546001600160a01b03163314620006e15760405162461bcd60e51b815260206004820181905260248201526000805160206200659783398151915260448201526064016200036c565b600a5460ff1615620006f257600080fd5b600a805460ff191660019081179091556040519081527f7b014ed3854e7f5cb0218d58b3c6ae7d53a68bb0af2f67bfb029ea42c38a7e859060200160405180910390a1565b6006546001600160a01b03163314620007825760405162461bcd60e51b815260206004820181905260248201526000805160206200659783398151915260448201526064016200036c565b6001600160a01b038116620007e95760405162461bcd60e51b815260206004820152602660248201527f4f776e61626c653a206e6577206f776e657220697320746865207a65726f206160448201526564647265737360d01b60648201526084016200036c565b6006546040516001600160a01b03808416921690600080516020620065b783398151915290600090a3600680546001600160a01b0319166001600160a01b0392909216919091179055565b828054620008429062000cfa565b90600052602060002090601f016020900481019282620008665760008555620008b1565b82601f106200088157805160ff1916838001178555620008b1565b82800160010185558215620008b1579182015b82811115620008b157825182559160200191906001019062000894565b50620008bf9291506200091b565b5090565b828054828255906000526020600020908101928215620008b1579160200282015b82811115620008b157825182546001600160a01b0319166001600160a01b03909116178255602090920191600190910190620008e4565b5b80821115620008bf57600081556001016200091c565b80516001600160a01b03811681146200094a57600080fd5b919050565b634e487b7160e01b600052604160045260246000fd5b60405161012081016001600160401b03811182821017156200098b576200098b6200094f565b60405290565b604051606081016001600160401b03811182821017156200098b576200098b6200094f565b604051601f8201601f191681016001600160401b0381118282101715620009e157620009e16200094f565b604052919050565b600082601f830112620009fb57600080fd5b81516001600160401b0381111562000a175762000a176200094f565b602062000a2d601f8301601f19168201620009b6565b828152858284870101111562000a4257600080fd5b60005b8381101562000a6257858101830151828201840152820162000a45565b8381111562000a745760008385840101525b5095945050505050565b6000610120828403121562000a9257600080fd5b62000a9c62000965565b82519091506001600160401b0381111562000ab657600080fd5b62000ac484828501620009e9565b82525062000ad56020830162000932565b602082015262000ae86040830162000932565b604082015262000afb6060830162000932565b606082015262000b0e6080830162000932565b608082015262000b2160a0830162000932565b60a082015260c082015160c082015260e082015160e082015261010080830151818301525092915050565b6000806000806080858703121562000b6357600080fd5b62000b6e8562000932565b9350602062000b7f81870162000932565b60408701519094506001600160401b038082111562000b9d57600080fd5b908701906060828a03121562000bb257600080fd5b62000bbc62000991565b62000bc78362000932565b8152838301518281111562000bdb57600080fd5b8301601f81018b1362000bed57600080fd5b80518381111562000c025762000c026200094f565b8060051b62000c13878201620009b6565b918252828101870191878101908e84111562000c2e57600080fd5b938801935b8385101562000c575762000c478562000932565b8252938801939088019062000c33565b858901525062000c6e925050506040840162000932565b6040820152606089015190955092508083111562000c8b57600080fd5b505062000c9b8782880162000a7e565b91505092959194509250565b60006020828403121562000cba57600080fd5b815160ff8116811462000ccc57600080fd5b9392505050565b6000821982111562000cf557634e487b7160e01b600052601160045260246000fd5b500190565b600181811c9082168062000d0f57607f821691505b60208210810362000d3057634e487b7160e01b600052602260045260246000fd5b50919050565b60805160a05160c05160e0516101005161012051610140516156e762000eb0600039600061488d0152600061486c01526000818161080101526143d40152600081816103ee0152818161189b01528181612f730152818161333b015281816133ac0152818161358e015281816144730152818161455601526146520152600081816103ab015281816124d801528181613f5301528181613f8201528181613ff7015281816141f3015281816142930152614356015260008181610bbc0152818161243b015281816125400152818161267f01528181613a2801528181613a9001528181613e9f01528181614021015281816140dd015281816141400152818161421d015261426b015260008181610a2d01528181610e2601528181610ef9015281816110e1015281816111760152818161186a01528181612f410152818161318701528181613313015281816133db0152818161355e0152818161362b015281816144a20152818161452701526145e201526156e76000f3fe60806040526004361061039b5760003560e01c80639291d563116101dc578063c4b24a4611610102578063dd8ce4d6116100a0578063f2fde38b1161006f578063f2fde38b14610b6a578063f6314d0714610b8a578063f7c618c114610baa578063fdb5a03e14610bde57600080fd5b8063dd8ce4d614610af5578063e75ab04514610b15578063eab89a5a14610b35578063ed24911d14610b5557600080fd5b8063d2c35ce8116100dc578063d2c35ce814610a4f578063d505accf14610a6f578063da09c72c14610a8f578063dd62ed3e14610aaf57600080fd5b8063c4b24a46146109e6578063c851cc32146109fb578063c89039c514610a1b57600080fd5b8063a9059cbb1161017a578063b9e57b8011610149578063b9e57b801461097b578063bd079f5514610990578063bec67bd6146109a6578063c415b95c146109c657600080fd5b8063a9059cbb1461090c578063ac67e1af1461092c578063b52a321f14610941578063b6b55f251461095b57600080fd5b80639c9b2e21116101b65780639c9b2e21146108785780639e4e731814610898578063a4d5e67c146108cc578063a8ae2b7c146108ec57600080fd5b80639291d5631461082357806395d89b411461084357806399729ec11461085857600080fd5b80635ea682ea116102c15780637ae267731161025f5780638980f11f1161022e5780638980f11f1461079b5780638aff733d146107bb5780638da5cb5b146107d157806391ca47c7146107ef57600080fd5b80637ae26773146107195780637d882097146107395780637ecebe001461074e578063818372301461077b57600080fd5b80636a8b25331161029b5780636a8b25331461068e57806370a08231146106ae578063715018a6146106e45780637897e7f6146106f957600080fd5b80635ea682ea146105fc57806364d60d9114610612578063666d25b91461066e57600080fd5b8063247d284b1161033957806330adf81f1161030857806330adf81f1461056c578063313ce567146105a05780634a970be7146105c75780635e4c57a4146105e757600080fd5b8063247d284b1461047f578063258250da146105175780632e1a7d4d1461052c5780632f4f21e21461054c57600080fd5b80631105603511610375578063110560351461047f57806318160ddd146104ad57806320606b70146104c357806323b872dd146104f757600080fd5b80630419738e146103dc57806306fdde031461042d578063095ea7b31461044f57600080fd5b366103d757336001600160a01b037f000000000000000000000000000000000000000000000000000000000000000016146103d557600080fd5b005b600080fd5b3480156103e857600080fd5b506104107f000000000000000000000000000000000000000000000000000000000000000081565b6040516001600160a01b0390911681526020015b60405180910390f35b34801561043957600080fd5b50610442610bf3565b6040516104249190614d88565b34801561045b57600080fd5b5061046f61046a366004614dd0565b610c81565b6040519015158152602001610424565b34801561048b57600080fd5b5061049f61049a366004614dfc565b610c98565b604051908152602001610424565b3480156104b957600080fd5b5061049f60025481565b3480156104cf57600080fd5b5061049f7f8b73c3c69bb8fe3d512ecc4cf759cc79239f7b179b0ffacaa9a75d522b39400f81565b34801561050357600080fd5b5061046f610512366004614e15565b610ca3565b34801561052357600080fd5b50600d5461049f565b34801561053857600080fd5b506103d5610547366004614dfc565b610d6c565b34801561055857600080fd5b506103d5610567366004614dd0565b610e92565b34801561057857600080fd5b5061049f7f6e71edae12b1b97f4d1f60370fef10105fa2faae0126114a169c64845d6126c981565b3480156105ac57600080fd5b506105b5601281565b60405160ff9091168152602001610424565b3480156105d357600080fd5b506103d56105e2366004614e67565b610ea0565b3480156105f357600080fd5b506103d5610f6e565b34801561060857600080fd5b5061049f600c5481565b34801561061e57600080fd5b5061063261062d366004614dfc565b61101e565b604080516001600160a01b03958616815293851660208501526001600160d81b0390921691830191909152919091166060820152608001610424565b34801561067a57600080fd5b506103d5610689366004614dfc565b61106f565b34801561069a57600080fd5b506103d56106a9366004614eae565b6112f0565b3480156106ba57600080fd5b5061049f6106c9366004614f05565b6001600160a01b031660009081526004602052604090205490565b3480156106f057600080fd5b506103d56115f7565b34801561070557600080fd5b506103d5610714366004614dfc565b61169b565b34801561072557600080fd5b506103d5610734366004614f22565b61176d565b34801561074557600080fd5b5061049f61183a565b34801561075a57600080fd5b5061049f610769366004614f05565b60056020526000908152604090205481565b34801561078757600080fd5b506103d5610796366004614dfc565b61190d565b3480156107a757600080fd5b506103d56107b6366004614dd0565b61199f565b3480156107c757600080fd5b5061049f600b5481565b3480156107dd57600080fd5b506006546001600160a01b0316610410565b3480156107fb57600080fd5b506104107f000000000000000000000000000000000000000000000000000000000000000081565b34801561082f57600080fd5b506103d561083e366004614f05565b611a61565b34801561084f57600080fd5b50610442611b24565b34801561086457600080fd5b506103d5610873366004614dfc565b611b31565b34801561088457600080fd5b506103d5610893366004614f05565b611bdf565b3480156108a457600080fd5b5061049f7fc89efdaa54c0f20c7adf612882df0950f5a951637e0307cdcb4c672f298b8bc681565b3480156108d857600080fd5b506103d56108e7366004614f05565b611d65565b3480156108f857600080fd5b506103d5610907366004614dfc565b611f68565b34801561091857600080fd5b5061046f610927366004614dd0565b612016565b34801561093857600080fd5b506103d5612023565b34801561094d57600080fd5b50600a5461046f9060ff1681565b34801561096757600080fd5b506103d5610976366004614dfc565b6120be565b34801561098757600080fd5b5061049f6120cb565b34801561099c57600080fd5b5061049f60095481565b3480156109b257600080fd5b506103d56109c1366004614eae565b61210a565b3480156109d257600080fd5b50600854610410906001600160a01b031681565b3480156109f257600080fd5b5061049f61240d565b348015610a0757600080fd5b506103d5610a16366004614f05565b612762565b348015610a2757600080fd5b506104107f000000000000000000000000000000000000000000000000000000000000000081565b348015610a5b57600080fd5b506103d5610a6a366004614f05565b61281c565b348015610a7b57600080fd5b506103d5610a8a366004614f5b565b6128df565b348015610a9b57600080fd5b50600754610410906001600160a01b031681565b348015610abb57600080fd5b5061049f610aca366004614f22565b6001600160a01b03918216600090815260036020908152604080832093909416825291909152205490565b348015610b0157600080fd5b5061049f610b10366004614dfc565b6129f2565b348015610b2157600080fd5b50610410610b30366004614dfc565b612a38565b348015610b4157600080fd5b5061049f610b50366004614dfc565b612a62565b348015610b6157600080fd5b5061049f612a98565b348015610b7657600080fd5b506103d5610b85366004614f05565b612b38565b348015610b9657600080fd5b50600e54610410906001600160a01b031681565b348015610bb657600080fd5b506104107f000000000000000000000000000000000000000000000000000000000000000081565b348015610bea57600080fd5b506103d5612c6a565b60008054610c0090614fc9565b80601f0160208091040260200160405190810160405280929190818152602001828054610c2c90614fc9565b8015610c795780601f10610c4e57610100808354040283529160200191610c79565b820191906000526020600020905b815481529060010190602001808311610c5c57829003601f168201915b505050505081565b6000610c8e338484612cc5565b5060015b92915050565b6000610c9282612dd3565b6001600160a01b038316600081815260036020908152604080832033808552925282205491929091908214801590610cdd57506000198114155b15610d53576000610cee8583615019565b6001600160a01b038881166000818152600360209081526040808320948916808452948252918290208590559051848152939450919290917f8c5be1e5ebec7d5bd14f71427d1e84f3dd0314c0f7b2291e5b200ac8c7c3b925910160405180910390a3505b610d5e868686612ded565b6001925050505b9392505050565b6000610d7782612a62565b905060008111610df45760405162461bcd60e51b815260206004820152602560248201527f4261736553747261746567793a3a576974686472617720616d6f756e7420746f60448201527f6f206c6f7700000000000000000000000000000000000000000000000000000060648201526084015b60405180910390fd5b6000610dff82612f11565b90506000610e0c83612dd3565b9050610e4d33610e1c8385615019565b6001600160a01b037f0000000000000000000000000000000000000000000000000000000000000000169190612fd7565b610e573385613057565b60405183815233907f884edad9ce6fa2440d8a54cc123490eb96d2768479d49ff9c7366125a94243649060200160405180910390a250505050565b610e9c82826130eb565b5050565b6040517fd505accf000000000000000000000000000000000000000000000000000000008152336004820152306024820152604481018690526064810185905260ff8416608482015260a4810183905260c481018290527f00000000000000000000000000000000000000000000000000000000000000006001600160a01b03169063d505accf9060e401600060405180830381600087803b158015610f4557600080fd5b505af1158015610f59573d6000803e3d6000fd5b50505050610f6733866130eb565b5050505050565b6006546001600160a01b03163314610fc85760405162461bcd60e51b815260206004820181905260248201527f4f776e61626c653a2063616c6c6572206973206e6f7420746865206f776e65726044820152606401610deb565b600a5460ff1615610fd857600080fd5b600a805460ff191660019081179091556040519081527f7b014ed3854e7f5cb0218d58b3c6ae7d53a68bb0af2f67bfb029ea42c38a7e85906020015b60405180910390a1565b600f818154811061102e57600080fd5b600091825260209091206004909102018054600182015460028301546003909301546001600160a01b039283169450908216926001600160d81b0316911684565b6006546001600160a01b031633146110c95760405162461bcd60e51b815260206004820181905260248201527f4f776e61626c653a2063616c6c6572206973206e6f7420746865206f776e65726044820152606401610deb565b6040516370a0823160e01b81523060048201526000907f00000000000000000000000000000000000000000000000000000000000000006001600160a01b0316906370a0823190602401602060405180830381865afa158015611130573d6000803e3d6000fd5b505050506040513d601f19601f820116820180604052508101906111549190615030565b905061115e6132e3565b6040516370a0823160e01b81523060048201526000907f00000000000000000000000000000000000000000000000000000000000000006001600160a01b0316906370a0823190602401602060405180830381865afa1580156111c5573d6000803e3d6000fd5b505050506040513d601f19601f820116820180604052508101906111e99190615030565b9050826111f68383615019565b10156112905760405162461bcd60e51b815260206004820152604260248201527f4261736553747261746567793a3a456d657267656e637920776974686472617760448201527f206d696e696d756d2072657475726e20616d6f756e74206e6f7420726561636860648201527f6564000000000000000000000000000000000000000000000000000000000000608482015260a401610deb565b7fc7606d21ac05cd309191543e409f0845c016120563783d70e4f41419dc0ef2346112b961183a565b6002546040805192835260208301919091520160405180910390a1600a5460ff1615156001036112eb576112eb612023565b505050565b6007546001600160a01b031633146113415760405162461bcd60e51b81526020600482015260146024820152732cb0b5a9ba3930ba32b3bc9d1d37b7363ca232bb60611b6044820152606401610deb565b60008061134f85858561344a565b91509150806113b15760405162461bcd60e51b815260206004820152602860248201527f4d656d655275736853747261746567793a3a53747265616d206e6f7420636f6e604482015267666967757265642160c01b6064820152608401610deb565b600f80546113c190600190615019565b815481106113d1576113d1615049565b9060005260206000209060040201600f83815481106113f2576113f2615049565b60009182526020909120825460049092020180546001600160a01b03199081166001600160a01b039384161782556001808501549083018054831691851691909117905560028085015490830180547fffffffffff000000000000000000000000000000000000000000000000000000166001600160d81b0390921691909117905560039384015493909101805490911692909116919091179055600f80548061149e5761149e61505f565b6000828152602090819020600460001990930183810290910180546001600160a01b03199081168255600182018054821690556002820180547fffffffffff000000000000000000000000000000000000000000000000000000169055600390910180549091169055909255604080517ffc0c546a00000000000000000000000000000000000000000000000000000000815290517ff3152af0022d4b208d9ecbd314ca66f3764d16e822c9880c7d370a6330021ac7938993899389936001600160a01b0387169363fc0c546a93838101939192918290030181865afa15801561158c573d6000803e3d6000fd5b505050506040513d601f19601f820116820180604052508101906115b09190615075565b604080516001600160a01b03958616815293851660208501526001600160d81b03909216918301919091529190911660608201526080015b60405180910390a15050505050565b6006546001600160a01b031633146116515760405162461bcd60e51b815260206004820181905260248201527f4f776e61626c653a2063616c6c6572206973206e6f7420746865206f776e65726044820152606401610deb565b6006546040516000916001600160a01b0316907f8be0079c531659141344cd1fd0a4f28419497f9722a3daafe3b4186f6b6457e0908390a3600680546001600160a01b0319169055565b6006546001600160a01b031633146116f55760405162461bcd60e51b815260206004820181905260248201527f4f776e61626c653a2063616c6c6572206973206e6f7420746865206f776e65726044820152606401610deb565b6000811161170257600080fd5b604051339082156108fc029083906000818181858888f1935050505015801561172f573d6000803e3d6000fd5b506040805160008152602081018390527f8c1256b8896378cd5044f80c202f9772b9d77dc85c8a6eb51967210b09bfaa28910160405180910390a150565b6007546001600160a01b031633146117be5760405162461bcd60e51b81526020600482015260146024820152732cb0b5a9ba3930ba32b3bc9d1d37b7363ca232bb60611b6044820152606401610deb565b60405163095ea7b360e01b81526001600160a01b0382811660048301526000602483015283169063095ea7b3906044016020604051808303816000875af115801561180d573d6000803e3d6000fd5b505050506040513d601f19601f820116820180604052508101906118319190615092565b610e9c57600080fd5b6040517ff7888aec0000000000000000000000000000000000000000000000000000000081526001600160a01b037f0000000000000000000000000000000000000000000000000000000000000000811660048301523060248301526000917f00000000000000000000000000000000000000000000000000000000000000009091169063f7888aec90604401602060405180830381865afa1580156118e4573d6000803e3d6000fd5b505050506040513d601f19601f820116820180604052508101906119089190615030565b905090565b6007546001600160a01b0316331461195e5760405162461bcd60e51b81526020600482015260146024820152732cb0b5a9ba3930ba32b3bc9d1d37b7363ca232bb60611b6044820152606401610deb565b60095460408051918252602082018390527f481f79ac3a523b6d6db3c5a720e190e986d1cc1b41adcdf50f9caef849901100910160405180910390a1600955565b6006546001600160a01b031633146119f95760405162461bcd60e51b815260206004820181905260248201527f4f776e61626c653a2063616c6c6572206973206e6f7420746865206f776e65726044820152606401610deb565b60008111611a0657600080fd5b611a1a6001600160a01b0383163383612fd7565b604080516001600160a01b0384168152602081018390527f8c1256b8896378cd5044f80c202f9772b9d77dc85c8a6eb51967210b09bfaa2891015b60405180910390a15050565b6006546001600160a01b03163314611abb5760405162461bcd60e51b815260206004820181905260248201527f4f776e61626c653a2063616c6c6572206973206e6f7420746865206f776e65726044820152606401610deb565b600754604080516001600160a01b03928316815291831660208301527fa8e91499ed37682f43cffb045fcc7d379a91e8c9a14e6321877ee34dee564c00910160405180910390a1600780546001600160a01b0319166001600160a01b0392909216919091179055565b60018054610c0090614fc9565b6007546001600160a01b03163314611b825760405162461bcd60e51b81526020600482015260146024820152732cb0b5a9ba3930ba32b3bc9d1d37b7363ca232bb60611b6044820152606401610deb565b612710600b5482611b9391906150b4565b1115611b9e57600080fd5b600c5460408051918252602082018390527f2a42303d002f0ba6cfe8259c91d4684443fb0b3de286ba74991175d651726131910160405180910390a1600c55565b6007546001600160a01b03163314611c305760405162461bcd60e51b81526020600482015260146024820152732cb0b5a9ba3930ba32b3bc9d1d37b7363ca232bb60611b6044820152606401610deb565b6000805b600d54811015611c8757600d8181548110611c5157611c51615049565b6000918252602090912001546001600160a01b0390811690841603611c7557600191505b80611c7f816150cc565b915050611c34565b508015611ce75760405162461bcd60e51b815260206004820152602860248201527f4261736553747261746567793a3a52657761726420616c726561647920636f6e604482015267666967757265642160c01b6064820152608401610deb565b600d80546001810182556000919091527fd7b6990105719101dabeb77144f2a3385c8033acd3af97e9423a695e81ad1eb50180546001600160a01b0319166001600160a01b0384169081179091556040519081527f1714865bf5baa84e3439536a013c87cfe030b4cd69f344a5f2a4877de3d517ce90602001611a55565b6007546001600160a01b03163314611db65760405162461bcd60e51b81526020600482015260146024820152732cb0b5a9ba3930ba32b3bc9d1d37b7363ca232bb60611b6044820152606401610deb565b6000805b600d54811015611e8657600d8181548110611dd757611dd7615049565b6000918252602090912001546001600160a01b0390811690841603611e7457600d805460019350611e09908490615019565b81548110611e1957611e19615049565b600091825260209091200154600d80546001600160a01b039092169183908110611e4557611e45615049565b9060005260206000200160006101000a8154816001600160a01b0302191690836001600160a01b031602179055505b80611e7e816150cc565b915050611dba565b5080611ef95760405162461bcd60e51b8152602060048201526024808201527f4261736553747261746567793a3a526577617264206e6f7420636f6e6669677560448201527f72656421000000000000000000000000000000000000000000000000000000006064820152608401610deb565b600d805480611f0a57611f0a61505f565b6000828152602090819020600019908301810180546001600160a01b03191690559091019091556040516001600160a01b03841681527f963b7c735475147a62c589c2d7cb8ec4b0a6b7af4f97373d79ebfa42ab8aa7dc9101611a55565b6007546001600160a01b03163314611fb95760405162461bcd60e51b81526020600482015260146024820152732cb0b5a9ba3930ba32b3bc9d1d37b7363ca232bb60611b6044820152606401610deb565b612710600c5482611fca91906150b4565b1115611fd557600080fd5b600b5460408051918252602082018390527fe7f97d51d307dc44045597c9978bec0f842e6bb40d19b9444084cfa30d9ed4f2910160405180910390a1600b55565b6000610c8e338484612ded565b6007546001600160a01b031633146120745760405162461bcd60e51b81526020600482015260146024820152732cb0b5a9ba3930ba32b3bc9d1d37b7363ca232bb60611b6044820152606401610deb565b600a5460ff1661208357600080fd5b600a805460ff19169055604051600081527f7b014ed3854e7f5cb0218d58b3c6ae7d53a68bb0af2f67bfb029ea42c38a7e8590602001611014565b6120c833826130eb565b50565b6000806120d661240d565b9050600954811061210257612710600b54826120f291906150e5565b6120fc919061511a565b91505090565b600091505090565b6007546001600160a01b0316331461215b5760405162461bcd60e51b81526020600482015260146024820152732cb0b5a9ba3930ba32b3bc9d1d37b7363ca232bb60611b6044820152606401610deb565b6001600160a01b0383161580159061217b57506001600160a01b03821615155b801561219057506000816001600160d81b0316115b156112eb5760006121a284848461344a565b91505080156122195760405162461bcd60e51b815260206004820152602c60248201527f4d656d655275736853747261746567793a3a53747265616d20616c726561647960448201527f20636f6e666967757265642100000000000000000000000000000000000000006064820152608401610deb565b6000846001600160a01b031663fc0c546a6040518163ffffffff1660e01b8152600401602060405180830381865afa158015612259573d6000803e3d6000fd5b505050506040513d601f19601f8201168201806040525081019061227d9190615075565b60408051608080820183526001600160a01b0389811680845289821660208086018281526001600160d81b038c8116888a018181528b88166060808c01828152600f80546001810182556000919091529c517f8d1108e10bcb7c27dddfc02ed9d693a074039d026cf4ea4240b40f7d581ac8026004909e029d8e0180546001600160a01b0319908116928e1692909217905596517f8d1108e10bcb7c27dddfc02ed9d693a074039d026cf4ea4240b40f7d581ac8038e0180548916918d1691909117905592517f8d1108e10bcb7c27dddfc02ed9d693a074039d026cf4ea4240b40f7d581ac8048d0180547fffffffffff00000000000000000000000000000000000000000000000000000016919096161790945590517f8d1108e10bcb7c27dddfc02ed9d693a074039d026cf4ea4240b40f7d581ac805909a018054909416999097169890981790915587519384529083019190915294810193909352928201929092529192507ff7568797d3c3a8683cc15f72610e4377cd2a50c535e7e237ee1da95f589d7cb691016115e8565b60008061241861352e565b6040516370a0823160e01b81523060048201529091506000906001600160a01b037f000000000000000000000000000000000000000000000000000000000000000016906370a0823190602401602060405180830381865afa158015612482573d6000803e3d6000fd5b505050506040513d601f19601f820116820180604052508101906124a69190615030565b905060005b825181101561275b5760008382815181106124c8576124c8615049565b60200260200101516000015190507f00000000000000000000000000000000000000000000000000000000000000006001600160a01b0316816001600160a01b03160361253e574784838151811061252257612522615049565b602002602001015160200181815161253a91906150b4565b9052505b7f00000000000000000000000000000000000000000000000000000000000000006001600160a01b0316816001600160a01b0316036125a75783828151811061258957612589615049565b602002602001015160200151836125a091906150b4565b9250612748565b6001600160a01b03811615612748576040516370a0823160e01b81523060048201526000906001600160a01b038316906370a0823190602401602060405180830381865afa1580156125fd573d6000803e3d6000fd5b505050506040513d601f19601f820116820180604052508101906126219190615030565b9050600085848151811061263757612637615049565b6020026020010151602001518261264e91906150b4565b9050801561274557600e546040516377ccc49d60e11b8152600481018390526001600160a01b0385811660248301527f000000000000000000000000000000000000000000000000000000000000000081166044830152600092169063ef99893a90606401600060405180830381865afa1580156126d0573d6000803e3d6000fd5b505050506040513d6000823e601f3d908101601f191682016040526126f8919081019061529f565b905060018160000151511161270e576000612737565b8051805161271e90600190615019565b8151811061272e5761272e615049565b60200260200101515b61274190876150b4565b9550505b50505b5080612753816150cc565b9150506124ab565b5092915050565b6007546001600160a01b031633146127b35760405162461bcd60e51b81526020600482015260146024820152732cb0b5a9ba3930ba32b3bc9d1d37b7363ca232bb60611b6044820152606401610deb565b600e54604080516001600160a01b03928316815291831660208301527f2c6fb4d5ff9fad6ecf2e09cd64cbc9aad92a8b9d2cc0e5c3ddef9b529b0b5ffd910160405180910390a1600e80546001600160a01b0319166001600160a01b0392909216919091179055565b6006546001600160a01b031633146128765760405162461bcd60e51b815260206004820181905260248201527f4f776e61626c653a2063616c6c6572206973206e6f7420746865206f776e65726044820152606401610deb565b600854604080516001600160a01b03928316815291831660208301527fcc882185e6edeeb762130016ea1faf3d7aa9c01b199bfd646f965b58ab741063910160405180910390a1600880546001600160a01b0319166001600160a01b0392909216919091179055565b4284101561292f5760405162461bcd60e51b815260206004820152600f60248201527f7065726d69743a3a6578706972656400000000000000000000000000000000006044820152606401610deb565b6001600160a01b038716600090815260056020526040812080547f6e71edae12b1b97f4d1f60370fef10105fa2faae0126114a169c64845d6126c9918a918a918a91908661297c836150cc565b909155506040805160208101969096526001600160a01b0394851690860152929091166060840152608083015260a082015260c0810186905260e0016040516020818303038152906040528051906020012090506129dd888286868661387c565b6129e8888888612cc5565b5050505050505050565b6000806129fd61183a565b600254909150801580612a0e575081155b15612a1b57509192915050565b81612a2682866150e5565b612a30919061511a565b949350505050565b600d8181548110612a4857600080fd5b6000918252602090912001546001600160a01b0316905081565b600080612a6d61183a565b600254909150801580612a7e575081155b15612a8d575060009392505050565b80612a2683866150e5565b60007f8b73c3c69bb8fe3d512ecc4cf759cc79239f7b179b0ffacaa9a75d522b39400f60001b6000604051612acd9190615361565b6040519081900390207fc89efdaa54c0f20c7adf612882df0950f5a951637e0307cdcb4c672f298b8bc646604080516020810195909552840192909252606083015260808201523060a082015260c00160405160208183030381529060405280519060200120905090565b6006546001600160a01b03163314612b925760405162461bcd60e51b815260206004820181905260248201527f4f776e61626c653a2063616c6c6572206973206e6f7420746865206f776e65726044820152606401610deb565b6001600160a01b038116612c0e5760405162461bcd60e51b815260206004820152602660248201527f4f776e61626c653a206e6577206f776e657220697320746865207a65726f206160448201527f64647265737300000000000000000000000000000000000000000000000000006064820152608401610deb565b6006546040516001600160a01b038084169216907f8be0079c531659141344cd1fd0a4f28419497f9722a3daafe3b4186f6b6457e090600090a3600680546001600160a01b0319166001600160a01b0392909216919091179055565b323314612cb95760405162461bcd60e51b815260206004820152601460248201527f59616b53747261746567793a3a6f6e6c79454f410000000000000000000000006044820152606401610deb565b612cc360006139dc565b565b6001600160a01b038316612d1b5760405162461bcd60e51b815260206004820152601c60248201527f5f617070726f76653a3a6f776e6572207a65726f2061646472657373000000006044820152606401610deb565b6001600160a01b038216612d715760405162461bcd60e51b815260206004820152601e60248201527f5f617070726f76653a3a7370656e646572207a65726f206164647265737300006044820152606401610deb565b6001600160a01b0383811660008181526003602090815260408083209487168084529482529182902085905590518481527f8c5be1e5ebec7d5bd14f71427d1e84f3dd0314c0f7b2291e5b200ac8c7c3b92591015b60405180910390a3505050565b600080612710612de382856150e5565b610d65919061511a565b6001600160a01b038216612e695760405162461bcd60e51b815260206004820152603460248201527f5f7472616e73666572546f6b656e733a2063616e6e6f74207472616e7366657260448201527f20746f20746865207a65726f20616464726573730000000000000000000000006064820152608401610deb565b6001600160a01b038316600090815260046020526040902054612e8d908290615019565b6001600160a01b038085166000908152600460205260408082209390935590841681522054612ebd9082906150b4565b6001600160a01b0380841660008181526004602052604090819020939093559151908516907fddf252ad1be2c89b69c2b068fc378daa952ba7f163c4a11628f55a4df523b3ef90612dc69085815260200190565b6040517ff3fef3a30000000000000000000000000000000000000000000000000000000081526001600160a01b037f000000000000000000000000000000000000000000000000000000000000000081166004830152602482018390526000917f00000000000000000000000000000000000000000000000000000000000000009091169063f3fef3a390604401600060405180830381600087803b158015612fb957600080fd5b505af1158015612fcd573d6000803e3d6000fd5b5093949350505050565b604080516001600160a01b038416602482015260448082018490528251808303909101815260649091019091526020810180517bffffffffffffffffffffffffffffffffffffffffffffffffffffffff167fa9059cbb000000000000000000000000000000000000000000000000000000001790526112eb908490613b3c565b6001600160a01b03821660009081526004602052604090205461307b908290615019565b6001600160a01b0383166000908152600460205260409020556002546130a2908290615019565b6002556040518181526000906001600160a01b038416907fddf252ad1be2c89b69c2b068fc378daa952ba7f163c4a11628f55a4df523b3ef906020015b60405180910390a35050565b600a5460ff1615156001146131425760405162461bcd60e51b815260206004820152601f60248201527f4261736553747261746567793a3a4465706f736974732064697361626c6564006044820152606401610deb565b61314c60016139dc565b6040517f23b872dd000000000000000000000000000000000000000000000000000000008152336004820152306024820152604481018290527f00000000000000000000000000000000000000000000000000000000000000006001600160a01b0316906323b872dd906064016020604051808303816000875af11580156131d8573d6000803e3d6000fd5b505050506040513d601f19601f820116820180604052508101906131fc9190615092565b61326e5760405162461bcd60e51b815260206004820152602b60248201527f4261736553747261746567793a3a4465706f73697420746f6b656e207472616e60448201527f73666572206661696c65640000000000000000000000000000000000000000006064820152608401610deb565b600061327982612dd3565b90506132918361328c610b108486615019565b613c21565b61329b8282613cf7565b826001600160a01b03167fe1fffcc4923d04b559f4d29a8bfc6cda04eb5b0d3c460751c2402c5c5cc9109c836040516132d691815260200190565b60405180910390a2505050565b6040517f6ff1c9bc0000000000000000000000000000000000000000000000000000000081526001600160a01b037f0000000000000000000000000000000000000000000000000000000000000000811660048301527f00000000000000000000000000000000000000000000000000000000000000001690636ff1c9bc90602401600060405180830381600087803b15801561337f57600080fd5b505af1158015613393573d6000803e3d6000fd5b505060405163095ea7b360e01b81526001600160a01b037f000000000000000000000000000000000000000000000000000000000000000081166004830152600060248301527f000000000000000000000000000000000000000000000000000000000000000016925063095ea7b391506044016020604051808303816000875af1158015613426573d6000803e3d6000fd5b505050506040513d601f19601f820116820180604052508101906120c89190615092565b60008060005b600f5481101561352557600f818154811061346d5761346d615049565b60009182526020909120600490910201546001600160a01b0387811691161480156134c95750600f81815481106134a6576134a6615049565b60009182526020909120600160049092020101546001600160a01b038681169116145b80156135065750600f81815481106134e3576134e3615049565b60009182526020909120600260049092020101546001600160d81b038581169116145b1561351357600191508092505b8061351d816150cc565b915050613450565b50935093915050565b6040517fed21fed00000000000000000000000000000000000000000000000000000000081526001600160a01b037f00000000000000000000000000000000000000000000000000000000000000008116600483015260609160009182917f00000000000000000000000000000000000000000000000000000000000000009091169063ed21fed090602401602060405180830381865afa1580156135d7573d6000803e3d6000fd5b505050506040513d601f19601f820116820180604052508101906135fb9190615075565b6040517f779bcb9b0000000000000000000000000000000000000000000000000000000081526001600160a01b037f000000000000000000000000000000000000000000000000000000000000000081166004830152306024830152919091169063779bcb9b90604401600060405180830381865afa158015613682573d6000803e3d6000fd5b505050506040513d6000823e601f3d908101601f191682016040526136aa91908101906153fc565b915091506000600f8054905083516136c291906150b4565b905060008167ffffffffffffffff8111156136df576136df61513c565b60405190808252806020026020018201604052801561372457816020015b60408051808201909152600080825260208201528152602001906001900390816136fd5790505b50905060005b600f548110156137da576137aa600f828154811061374a5761374a615049565b600091825260209182902060408051608081018252600490930290910180546001600160a01b039081168452600182015481169484019490945260028101546001600160d81b031691830191909152600301549091166060820152613d77565b8282815181106137bc576137bc615049565b602002602001018190525080806137d2906150cc565b91505061372a565b60005b855181101561387157604051806040016040528087838151811061380357613803615049565b60200260200101516001600160a01b0316815260200186838151811061382b5761382b615049565b602002602001015181525083828461384391906150b4565b8151811061385357613853615049565b60200260200101819052508080613869906150cc565b9150506137dd565b509095945050505050565b6000613886612a98565b6040517f1901000000000000000000000000000000000000000000000000000000000000602082015260228101919091526042810186905260620160408051601f198184030181528282528051602091820120600080855291840180845281905260ff88169284019290925260608301869052608083018590529092509060019060a0016020604051602081039080840390855afa15801561392c573d6000803e3d6000fd5b5050604051601f1901519150506001600160a01b038116158015906139625750866001600160a01b0316816001600160a01b0316145b6139d35760405162461bcd60e51b8152602060048201526024808201527f417263683a3a76616c69646174655369673a20696e76616c6964207369676e6160448201527f74757265000000000000000000000000000000000000000000000000000000006064820152608401610deb565b50505050505050565b60006139e6613e7d565b9050600954811115613afb576000612710600c5483613a0591906150e5565b613a0f919061511a565b90508015613a5157600854613a51906001600160a01b037f00000000000000000000000000000000000000000000000000000000000000008116911683612fd7565b600083613a7857612710600b5484613a6991906150e5565b613a73919061511a565b613a7b565b60005b90508015613ab757613ab76001600160a01b037f0000000000000000000000000000000000000000000000000000000000000000163383612fd7565b6000613ad682613ac78587615019565b613ad19190615019565b6141ef565b90508015613af7576000613ae982612dd3565b9050613af58282613cf7565b505b5050505b7fc7606d21ac05cd309191543e409f0845c016120563783d70e4f41419dc0ef234613b2461183a565b60025460408051928352602083019190915201611a55565b6000613b91826040518060400160405280602081526020017f5361666545524332303a206c6f772d6c6576656c2063616c6c206661696c6564815250856001600160a01b031661444d9092919063ffffffff16565b8051909150156112eb5780806020019051810190613baf9190615092565b6112eb5760405162461bcd60e51b815260206004820152602a60248201527f5361666545524332303a204552433230206f7065726174696f6e20646964206e60448201527f6f742073756363656564000000000000000000000000000000000000000000006064820152608401610deb565b60008111613c715760405162461bcd60e51b815260206004820152601260248201527f5f6d696e743a3a7a65726f2073686172657300000000000000000000000000006044820152606401610deb565b80600254613c7f91906150b4565b6002556001600160a01b038216600090815260046020526040902054613ca69082906150b4565b6001600160a01b0383166000818152600460205260408082209390935591519091907fddf252ad1be2c89b69c2b068fc378daa952ba7f163c4a11628f55a4df523b3ef906130df9085815260200190565b60008211613d6d5760405162461bcd60e51b815260206004820152602260248201527f4261736553747261746567793a3a5374616b6520616d6f756e7420746f6f206c60448201527f6f770000000000000000000000000000000000000000000000000000000000006064820152608401610deb565b610e9c828261445c565b60408051808201909152600080825260208201528151602083015160408085015190517f3f053acd0000000000000000000000000000000000000000000000000000000081526001600160a01b0392831660048201523060248201526001600160d81b039091166044820152911690633f053acd90606401606060405180830381865afa925050508015613e28575060408051601f3d908101601f19168201909252613e2591810190615460565b60015b613e525750604080518082019091526060909101516001600160a01b031681526000602082015290565b5050604080518082019091526060909301516001600160a01b0316835260208301525090565b919050565b6000613e876145b6565b6040516370a0823160e01b81523060048201526000907f00000000000000000000000000000000000000000000000000000000000000006001600160a01b0316906370a0823190602401602060405180830381865afa158015613eee573d6000803e3d6000fd5b505050506040513d601f19601f82011682018060405250810190613f129190615030565b600d5490915060005b818110156141e7576000600d8281548110613f3857613f38615049565b6000918252602090912001546001600160a01b0390811691507f000000000000000000000000000000000000000000000000000000000000000016810361406357478015613ff5577f00000000000000000000000000000000000000000000000000000000000000006001600160a01b031663d0e30db0826040518263ffffffff1660e01b81526004016000604051808303818588803b158015613fdb57600080fd5b505af1158015613fef573d6000803e3d6000fd5b50505050505b7f00000000000000000000000000000000000000000000000000000000000000006001600160a01b03167f00000000000000000000000000000000000000000000000000000000000000006001600160a01b0316036140615761405881866150b4565b945050506141d5565b505b6040516370a0823160e01b81523060048201526000906001600160a01b038316906370a0823190602401602060405180830381865afa1580156140aa573d6000803e3d6000fd5b505050506040513d601f19601f820116820180604052508101906140ce9190615030565b905060008111801561411257507f00000000000000000000000000000000000000000000000000000000000000006001600160a01b0316826001600160a01b031614155b156141d257600e546040516377ccc49d60e11b8152600481018390526001600160a01b0384811660248301527f000000000000000000000000000000000000000000000000000000000000000081166044830152600092169063ef99893a90606401600060405180830381865afa158015614191573d6000803e3d6000fd5b505050506040513d6000823e601f3d908101601f191682016040526141b9919081019061529f565b90506141c4816146b7565b6141ce90876150b4565b9550505b50505b806141df816150cc565b915050613f1b565b509092915050565b60007f00000000000000000000000000000000000000000000000000000000000000006001600160a01b03167f00000000000000000000000000000000000000000000000000000000000000006001600160a01b03161461431b57600e546040516377ccc49d60e11b8152600481018490526001600160a01b037f0000000000000000000000000000000000000000000000000000000000000000811660248301527f000000000000000000000000000000000000000000000000000000000000000081166044830152600092169063ef99893a90606401600060405180830381865afa1580156142e4573d6000803e3d6000fd5b505050506040513d6000823e601f3d908101601f1916820160405261430c919081019061529f565b9050614317816146b7565b9250505b61432482614864565b6040517f2e1a7d4d000000000000000000000000000000000000000000000000000000008152600481018290529092507f00000000000000000000000000000000000000000000000000000000000000006001600160a01b031690632e1a7d4d90602401600060405180830381600087803b1580156143a257600080fd5b505af11580156143b6573d6000803e3d6000fd5b50506040516311f9fbc960e21b8152306004820152602481018590527f00000000000000000000000000000000000000000000000000000000000000006001600160a01b031692506347e7ef249150849060440160206040518083038185885af1158015614428573d6000803e3d6000fd5b50505050506040513d601f19601f82011682018060405250810190610c929190615030565b6060612a3084846000856148ec565b60405163095ea7b360e01b81526001600160a01b037f000000000000000000000000000000000000000000000000000000000000000081166004830152602482018490527f0000000000000000000000000000000000000000000000000000000000000000169063095ea7b3906044016020604051808303816000875af11580156144eb573d6000803e3d6000fd5b505050506040513d601f19601f8201168201806040525081019061450f9190615092565b506040516311f9fbc960e21b81526001600160a01b037f000000000000000000000000000000000000000000000000000000000000000081166004830152602482018490527f000000000000000000000000000000000000000000000000000000000000000016906347e7ef2490604401600060405180830381600087803b15801561459a57600080fd5b505af11580156145ae573d6000803e3d6000fd5b505050505050565b6145be614a34565b604080516001808252818301909252600091602080830190803683370190505090507f00000000000000000000000000000000000000000000000000000000000000008160008151811061461457614614615049565b6001600160a01b0392831660209182029290920101526040517f318d9e5d0000000000000000000000000000000000000000000000000000000081527f00000000000000000000000000000000000000000000000000000000000000009091169063318d9e5d906146899084906004016154d2565b600060405180830381600087803b1580156146a357600080fd5b505af1158015610f67573d6000803e3d6000fd5b805151600090158015906146f4575081518051600091906146da90600190615019565b815181106146ea576146ea615049565b6020026020010151115b1561485c57816040015160008151811061471057614710615049565b60200260200101516001600160a01b031663095ea7b3600e60009054906101000a90046001600160a01b0316846000015160008151811061475357614753615049565b60200260200101516040518363ffffffff1660e01b815260040161478c9291906001600160a01b03929092168252602082015260400190565b6020604051808303816000875af11580156147ab573d6000803e3d6000fd5b505050506040513d601f19601f820116820180604052508101906147cf9190615092565b50600e546040517f5b2466160000000000000000000000000000000000000000000000000000000081526001600160a01b0390911690635b246616906148199085906004016154e5565b6020604051808303816000875af1158015614838573d6000803e3d6000fd5b505050506040513d601f19601f82011682018060405250810190610c929190615030565b506000919050565b6000806148b17f00000000000000000000000000000000000000000000000000000000000000007f000000000000000000000000000000000000000000000000000000000000000061557f565b6148bc90600a615686565b905060006148d88285816148d2576148d2615104565b04614c9b565b67ffffffffffffffff169091029392505050565b6060824710156149645760405162461bcd60e51b815260206004820152602660248201527f416464726573733a20696e73756666696369656e742062616c616e636520666f60448201527f722063616c6c00000000000000000000000000000000000000000000000000006064820152608401610deb565b6001600160a01b0385163b6149bb5760405162461bcd60e51b815260206004820152601d60248201527f416464726573733a2063616c6c20746f206e6f6e2d636f6e74726163740000006044820152606401610deb565b600080866001600160a01b031685876040516149d79190615695565b60006040518083038185875af1925050503d8060008114614a14576040519150601f19603f3d011682016040523d82523d6000602084013e614a19565b606091505b5091509150614a29828286614d1f565b979650505050505050565b60005b600f548110156120c857600f8181548110614a5457614a54615049565b6000918252602090912060049091020154600f80546001600160a01b03909216916317a566e4919084908110614a8c57614a8c615049565b906000526020600020906004020160010160009054906101000a90046001600160a01b031630600f8581548110614ac557614ac5615049565b600091825260209091206004918202016002015460405160e086901b7fffffffff000000000000000000000000000000000000000000000000000000001681526001600160a01b03948516928101929092529190921660248301526001600160d81b03166044820152606401600060405180830381600087803b158015614b4b57600080fd5b505af1925050508015614b5c575060015b614c89577fc0843bdf0743c63293a0c1ec674ec40249b8468a6c1cd2416463fe686ae0c630600f8281548110614b9457614b94615049565b6000918252602090912060049091020154600f80546001600160a01b039092169184908110614bc557614bc5615049565b906000526020600020906004020160010160009054906101000a90046001600160a01b0316600f8481548110614bfd57614bfd615049565b906000526020600020906004020160020160009054906101000a90046001600160d81b0316600f8581548110614c3557614c35615049565b600091825260209182902060049091020160030154604080516001600160a01b039687168152948616928501929092526001600160d81b039092169083015291909116606082015260800160405180910390a15b80614c93816150cc565b915050614a37565b600067ffffffffffffffff821115614d1b5760405162461bcd60e51b815260206004820152602660248201527f53616665436173743a2076616c756520646f65736e27742066697420696e203660448201527f34206269747300000000000000000000000000000000000000000000000000006064820152608401610deb565b5090565b60608315614d2e575081610d65565b825115614d3e5782518084602001fd5b8160405162461bcd60e51b8152600401610deb9190614d88565b60005b83811015614d73578181015183820152602001614d5b565b83811115614d82576000848401525b50505050565b6020815260008251806020840152614da7816040850160208701614d58565b601f01601f19169190910160400192915050565b6001600160a01b03811681146120c857600080fd5b60008060408385031215614de357600080fd5b8235614dee81614dbb565b946020939093013593505050565b600060208284031215614e0e57600080fd5b5035919050565b600080600060608486031215614e2a57600080fd5b8335614e3581614dbb565b92506020840135614e4581614dbb565b929592945050506040919091013590565b803560ff81168114613e7857600080fd5b600080600080600060a08688031215614e7f57600080fd5b8535945060208601359350614e9660408701614e56565b94979396509394606081013594506080013592915050565b600080600060608486031215614ec357600080fd5b8335614ece81614dbb565b92506020840135614ede81614dbb565b915060408401356001600160d81b0381168114614efa57600080fd5b809150509250925092565b600060208284031215614f1757600080fd5b8135610d6581614dbb565b60008060408385031215614f3557600080fd5b8235614f4081614dbb565b91506020830135614f5081614dbb565b809150509250929050565b600080600080600080600060e0888a031215614f7657600080fd5b8735614f8181614dbb565b96506020880135614f9181614dbb565b95506040880135945060608801359350614fad60808901614e56565b925060a0880135915060c0880135905092959891949750929550565b600181811c90821680614fdd57607f821691505b602082108103614ffd57634e487b7160e01b600052602260045260246000fd5b50919050565b634e487b7160e01b600052601160045260246000fd5b60008282101561502b5761502b615003565b500390565b60006020828403121561504257600080fd5b5051919050565b634e487b7160e01b600052603260045260246000fd5b634e487b7160e01b600052603160045260246000fd5b60006020828403121561508757600080fd5b8151610d6581614dbb565b6000602082840312156150a457600080fd5b81518015158114610d6557600080fd5b600082198211156150c7576150c7615003565b500190565b6000600182016150de576150de615003565b5060010190565b60008160001904831182151516156150ff576150ff615003565b500290565b634e487b7160e01b600052601260045260246000fd5b60008261513757634e487b7160e01b600052601260045260246000fd5b500490565b634e487b7160e01b600052604160045260246000fd5b6040516080810167ffffffffffffffff811182821017156151755761517561513c565b60405290565b604051601f8201601f1916810167ffffffffffffffff811182821017156151a4576151a461513c565b604052919050565b600067ffffffffffffffff8211156151c6576151c661513c565b5060051b60200190565b600082601f8301126151e157600080fd5b815160206151f66151f1836151ac565b61517b565b82815260059290921b8401810191818101908684111561521557600080fd5b8286015b848110156152305780518352918301918301615219565b509695505050505050565b600082601f83011261524c57600080fd5b8151602061525c6151f1836151ac565b82815260059290921b8401810191818101908684111561527b57600080fd5b8286015b8481101561523057805161529281614dbb565b835291830191830161527f565b6000602082840312156152b157600080fd5b815167ffffffffffffffff808211156152c957600080fd5b90830190608082860312156152dd57600080fd5b6152e5615152565b8251828111156152f457600080fd5b615300878286016151d0565b82525060208301518281111561531557600080fd5b6153218782860161523b565b60208301525060408301518281111561533957600080fd5b6153458782860161523b565b6040830152506060830151606082015280935050505092915050565b600080835481600182811c91508083168061537d57607f831692505b6020808410820361539c57634e487b7160e01b86526022600452602486fd5b8180156153b057600181146153c1576153ee565b60ff198616895284890196506153ee565b60008a81526020902060005b868110156153e65781548b8201529085019083016153cd565b505084890196505b509498975050505050505050565b6000806040838503121561540f57600080fd5b825167ffffffffffffffff8082111561542757600080fd5b6154338683870161523b565b9350602085015191508082111561544957600080fd5b50615456858286016151d0565b9150509250929050565b60008060006060848603121561547557600080fd5b8351925060208401519150604084015190509250925092565b600081518084526020808501945080840160005b838110156154c75781516001600160a01b0316875295820195908201906001016154a2565b509495945050505050565b602081526000610d65602083018461548e565b60208082528251608083830152805160a0840181905260009291820190839060c08601905b8083101561552a578351825292840192600192909201919084019061550a565b50838701519350601f1992508286820301604087015261554a818561548e565b93505050604085015181858403016060860152615567838261548e565b92505050606084015160808401528091505092915050565b600060ff821660ff84168082101561559957615599615003565b90039392505050565b600181815b808511156155dd5781600019048211156155c3576155c3615003565b808516156155d057918102915b93841c93908002906155a7565b509250929050565b6000826155f457506001610c92565b8161560157506000610c92565b816001811461561757600281146156215761563d565b6001915050610c92565b60ff84111561563257615632615003565b50506001821b610c92565b5060208310610133831016604e8410600b8410161715615660575081810a610c92565b61566a83836155a2565b806000190482111561567e5761567e615003565b029392505050565b6000610d6560ff8416836155e5565b600082516156a7818460208701614d58565b919091019291505056fea2646970667358221220f7deb0297c95d78a823b97e6e2896a07d1fd8e9ae62c8bc809c515033d308b7e64736f6c634300080d00334f776e61626c653a2063616c6c6572206973206e6f7420746865206f776e65728be0079c531659141344cd1fd0a4f28419497f9722a3daafe3b4186f6b6457e0",
  "devdoc": {
    "kind": "dev",
    "methods": {
      "allowance(address,address)": {
        "params": {
          "account": "The address of the account holding the funds",
          "spender": "The address of the account spending the funds"
        },
        "returns": {
          "_0": "The number of tokens approved"
        }
      },
      "approve(address,uint256)": {
        "details": "This will overwrite the approval amount for `spender` and is subject to issues noted [here](https://eips.ethereum.org/EIPS/eip-20#approve) It is recommended to use increaseAllowance and decreaseAllowance instead",
        "params": {
          "amount": "The number of tokens that are approved (2^256-1 means infinite)",
          "spender": "The address of the account which may transfer tokens"
        },
        "returns": {
          "_0": "Whether or not the approval succeeded"
        }
      },
      "balanceOf(address)": {
        "params": {
          "account": "The address of the account to get the balance of"
        },
        "returns": {
          "_0": "The number of tokens held"
        }
      },
      "checkReward()": {
        "returns": {
          "_0": "reward tokens"
        }
      },
      "deposit(uint256)": {
        "params": {
          "_amount": "Amount of tokens to deposit"
        }
      },
      "depositWithPermit(uint256,uint256,uint8,bytes32,bytes32)": {
        "params": {
          "_amount": "Amount of tokens to deposit",
          "_deadline": "The time at which to expire the signature",
          "_r": "Half of the ECDSA signature pair",
          "_s": "Half of the ECDSA signature pair",
          "_v": "The recovery byte of the signature"
        }
      },
      "estimateReinvestReward()": {
        "returns": {
          "_0": "reward tokens"
        }
      },
      "getDepositTokensForShares(uint256)": {
        "params": {
          "amount": "receipt tokens"
        },
        "returns": {
          "_0": "deposit tokens"
        }
      },
      "getDomainSeparator()": {
        "returns": {
          "_0": "Separator"
        }
      },
      "getSharesForDepositTokens(uint256)": {
        "details": "If contract is empty, use 1:1 ratioCould return zero shares for very low amounts of deposit tokens",
        "params": {
          "amount": "deposit tokens"
        },
        "returns": {
          "_0": "receipt tokens"
        }
      },
      "owner()": {
        "details": "Returns the address of the current owner."
      },
      "permit(address,address,uint256,uint256,uint8,bytes32,bytes32)": {
        "params": {
          "deadline": "The time at which to expire the signature",
          "owner": "The address to approve from",
          "r": "Half of the ECDSA signature pair",
          "s": "Half of the ECDSA signature pair",
          "spender": "The address to be approved",
          "v": "The recovery byte of the signature",
          "value": "The number of tokens that are approved (2^256-1 means infinite)"
        }
      },
      "recoverERC20(address,uint256)": {
        "params": {
          "tokenAddress": "token address",
          "tokenAmount": "amount to recover"
        }
      },
      "recoverGas(uint256)": {
        "params": {
          "amount": "amount"
        }
      },
      "renounceOwnership()": {
        "details": "Leaves the contract without owner. It will not be possible to call `onlyOwner` functions anymore. Can only be called by the current owner. NOTE: Renouncing ownership will leave the contract without an owner, thereby removing any functionality that is only available to the owner."
      },
      "revokeAllowance(address,address)": {
        "params": {
          "spender": "address",
          "token": "address"
        }
      },
      "totalDeposits()": {
        "returns": {
          "_0": "total deposits available on the contract"
        }
      },
      "transfer(address,uint256)": {
        "params": {
          "amount": "The number of tokens to transfer",
          "dst": "The address of the destination account"
        },
        "returns": {
          "_0": "Whether or not the transfer succeeded"
        }
      },
      "transferFrom(address,address,uint256)": {
        "params": {
          "amount": "The number of tokens to transfer",
          "dst": "The address of the destination account",
          "src": "The address of the source account"
        },
        "returns": {
          "_0": "Whether or not the transfer succeeded"
        }
      },
      "transferOwnership(address)": {
        "details": "Transfers ownership of the contract to a new account (`newOwner`). Can only be called by the current owner."
      },
      "updateDevAddr(address)": {
        "params": {
          "newValue": "address"
        }
      },
      "updateDevFee(uint256)": {
        "params": {
          "newValue": "fee in BIPS"
        }
      },
      "updateFeeCollector(address)": {
        "params": {
          "newValue": "address"
        }
      },
      "updateMinTokensToReinvest(uint256)": {
        "params": {
          "newValue": "threshold"
        }
      },
      "updateReinvestReward(uint256)": {
        "params": {
          "newValue": "fee in BIPS"
        }
      }
    },
    "version": 1
  },
  "userdoc": {
    "kind": "user",
    "methods": {
      "allowance(address,address)": {
        "notice": "Get the number of tokens `spender` is approved to spend on behalf of `account`"
      },
      "approve(address,uint256)": {
        "notice": "Approve `spender` to transfer up to `amount` from `src`"
      },
      "balanceOf(address)": {
        "notice": "Get the number of tokens held by the `account`"
      },
      "checkReward()": {
        "notice": "Reward tokens available to strategy, including balance"
      },
      "deposit(uint256)": {
        "notice": "Deposit tokens to receive receipt tokens"
      },
      "depositWithPermit(uint256,uint256,uint8,bytes32,bytes32)": {
        "notice": "Deposit using Permit"
      },
      "disableDeposits()": {
        "notice": "Disable deposits"
      },
      "enableDeposits()": {
        "notice": "Enable deposits"
      },
      "estimateReinvestReward()": {
        "notice": "Estimate reinvest reward"
      },
      "getDepositTokensForShares(uint256)": {
        "notice": "Calculate deposit tokens for a given amount of receipt tokens"
      },
      "getDomainSeparator()": {
        "notice": "EIP-712 Domain separator"
      },
      "getSharesForDepositTokens(uint256)": {
        "notice": "Calculate receipt tokens for a given amount of deposit tokens"
      },
      "permit(address,address,uint256,uint256,uint8,bytes32,bytes32)": {
        "notice": "Triggers an approval from owner to spender"
      },
      "recoverERC20(address,uint256)": {
        "notice": "Recover ERC20 from contract"
      },
      "recoverGas(uint256)": {
        "notice": "Recover GAS from contract"
      },
      "reinvest()": {
        "notice": "Reinvest reward tokens into deposit tokens"
      },
      "revokeAllowance(address,address)": {
        "notice": "Revoke token allowance"
      },
      "totalDeposits()": {
        "notice": "This function returns a snapshot of last available quotes"
      },
      "transfer(address,uint256)": {
        "notice": "Transfer `amount` tokens from `msg.sender` to `dst`"
      },
      "transferFrom(address,address,uint256)": {
        "notice": "Transfer `amount` tokens from `src` to `dst`"
      },
      "updateDevAddr(address)": {
        "notice": "Update devAddr"
      },
      "updateDevFee(uint256)": {
        "notice": "Update developer fee"
      },
      "updateFeeCollector(address)": {
        "notice": "Update feeCollector"
      },
      "updateMinTokensToReinvest(uint256)": {
        "notice": "Update reinvest min threshold"
      },
      "updateReinvestReward(uint256)": {
        "notice": "Update reinvest reward"
      }
    },
    "version": 1
  },
  "storageLayout": {
    "storage": [
      {
        "astId": 5,
        "contract": "contracts/strategies/crosschain/stargate/BoostedStargateV2NativeStrategy.sol:BoostedStargateV2NativeStrategy",
        "label": "name",
        "offset": 0,
        "slot": "0",
        "type": "t_string_storage"
      },
      {
        "astId": 8,
        "contract": "contracts/strategies/crosschain/stargate/BoostedStargateV2NativeStrategy.sol:BoostedStargateV2NativeStrategy",
        "label": "symbol",
        "offset": 0,
        "slot": "1",
        "type": "t_string_storage"
      },
      {
        "astId": 13,
        "contract": "contracts/strategies/crosschain/stargate/BoostedStargateV2NativeStrategy.sol:BoostedStargateV2NativeStrategy",
        "label": "totalSupply",
        "offset": 0,
        "slot": "2",
        "type": "t_uint256"
      },
      {
        "astId": 19,
        "contract": "contracts/strategies/crosschain/stargate/BoostedStargateV2NativeStrategy.sol:BoostedStargateV2NativeStrategy",
        "label": "allowances",
        "offset": 0,
        "slot": "3",
        "type": "t_mapping(t_address,t_mapping(t_address,t_uint256))"
      },
      {
        "astId": 23,
        "contract": "contracts/strategies/crosschain/stargate/BoostedStargateV2NativeStrategy.sol:BoostedStargateV2NativeStrategy",
        "label": "balances",
        "offset": 0,
        "slot": "4",
        "type": "t_mapping(t_address,t_uint256)"
      },
      {
        "astId": 39,
        "contract": "contracts/strategies/crosschain/stargate/BoostedStargateV2NativeStrategy.sol:BoostedStargateV2NativeStrategy",
        "label": "nonces",
        "offset": 0,
        "slot": "5",
        "type": "t_mapping(t_address,t_uint256)"
      },
      {
        "astId": 1650,
        "contract": "contracts/strategies/crosschain/stargate/BoostedStargateV2NativeStrategy.sol:BoostedStargateV2NativeStrategy",
        "label": "_owner",
        "offset": 0,
        "slot": "6",
        "type": "t_address"
      },
      {
        "astId": 552,
        "contract": "contracts/strategies/crosschain/stargate/BoostedStargateV2NativeStrategy.sol:BoostedStargateV2NativeStrategy",
        "label": "devAddr",
        "offset": 0,
        "slot": "7",
        "type": "t_address"
      },
      {
        "astId": 554,
        "contract": "contracts/strategies/crosschain/stargate/BoostedStargateV2NativeStrategy.sol:BoostedStargateV2NativeStrategy",
        "label": "feeCollector",
        "offset": 0,
        "slot": "8",
        "type": "t_address"
      },
      {
        "astId": 556,
        "contract": "contracts/strategies/crosschain/stargate/BoostedStargateV2NativeStrategy.sol:BoostedStargateV2NativeStrategy",
        "label": "MIN_TOKENS_TO_REINVEST",
        "offset": 0,
        "slot": "9",
        "type": "t_uint256"
      },
      {
        "astId": 558,
        "contract": "contracts/strategies/crosschain/stargate/BoostedStargateV2NativeStrategy.sol:BoostedStargateV2NativeStrategy",
        "label": "DEPOSITS_ENABLED",
        "offset": 0,
        "slot": "10",
        "type": "t_bool"
      },
      {
        "astId": 560,
        "contract": "contracts/strategies/crosschain/stargate/BoostedStargateV2NativeStrategy.sol:BoostedStargateV2NativeStrategy",
        "label": "REINVEST_REWARD_BIPS",
        "offset": 0,
        "slot": "11",
        "type": "t_uint256"
      },
      {
        "astId": 562,
        "contract": "contracts/strategies/crosschain/stargate/BoostedStargateV2NativeStrategy.sol:BoostedStargateV2NativeStrategy",
        "label": "DEV_FEE_BIPS",
        "offset": 0,
        "slot": "12",
        "type": "t_uint256"
      },
      {
        "astId": 2252,
        "contract": "contracts/strategies/crosschain/stargate/BoostedStargateV2NativeStrategy.sol:BoostedStargateV2NativeStrategy",
        "label": "supportedRewards",
        "offset": 0,
        "slot": "13",
        "type": "t_array(t_address)dyn_storage"
      },
      {
        "astId": 2255,
        "contract": "contracts/strategies/crosschain/stargate/BoostedStargateV2NativeStrategy.sol:BoostedStargateV2NativeStrategy",
        "label": "simpleRouter",
        "offset": 0,
        "slot": "14",
        "type": "t_contract(ISimpleRouter)1307"
      },
      {
        "astId": 3320,
        "contract": "contracts/strategies/crosschain/stargate/BoostedStargateV2NativeStrategy.sol:BoostedStargateV2NativeStrategy",
        "label": "streams",
        "offset": 0,
        "slot": "15",
        "type": "t_array(t_struct(Stream)3316_storage)dyn_storage"
      }
    ],
    "types": {
      "t_address": {
        "encoding": "inplace",
        "label": "address",
        "numberOfBytes": "20"
      },
      "t_array(t_address)dyn_storage": {
        "base": "t_address",
        "encoding": "dynamic_array",
        "label": "address[]",
        "numberOfBytes": "32"
      },
      "t_array(t_struct(Stream)3316_storage)dyn_storage": {
        "base": "t_struct(Stream)3316_storage",
        "encoding": "dynamic_array",
        "label": "struct LamaPayStrategyBase.Stream[]",
        "numberOfBytes": "32"
      },
      "t_bool": {
        "encoding": "inplace",
        "label": "bool",
        "numberOfBytes": "1"
      },
      "t_contract(ISimpleRouter)1307": {
        "encoding": "inplace",
        "label": "contract ISimpleRouter",
        "numberOfBytes": "20"
      },
      "t_mapping(t_address,t_mapping(t_address,t_uint256))": {
        "encoding": "mapping",
        "key": "t_address",
        "label": "mapping(address => mapping(address => uint256))",
        "numberOfBytes": "32",
        "value": "t_mapping(t_address,t_uint256)"
      },
      "t_mapping(t_address,t_uint256)": {
        "encoding": "mapping",
        "key": "t_address",
        "label": "mapping(address => uint256)",
        "numberOfBytes": "32",
        "value": "t_uint256"
      },
      "t_string_storage": {
        "encoding": "bytes",
        "label": "string",
        "numberOfBytes": "32"
      },
      "t_struct(Stream)3316_storage": {
        "encoding": "inplace",
        "label": "struct LamaPayStrategyBase.Stream",
        "members": [
          {
            "astId": 3309,
            "contract": "contracts/strategies/crosschain/stargate/BoostedStargateV2NativeStrategy.sol:BoostedStargateV2NativeStrategy",
            "label": "lamaPayInstance",
            "offset": 0,
            "slot": "0",
            "type": "t_address"
          },
          {
            "astId": 3311,
            "contract": "contracts/strategies/crosschain/stargate/BoostedStargateV2NativeStrategy.sol:BoostedStargateV2NativeStrategy",
            "label": "payer",
            "offset": 0,
            "slot": "1",
            "type": "t_address"
          },
          {
            "astId": 3313,
            "contract": "contracts/strategies/crosschain/stargate/BoostedStargateV2NativeStrategy.sol:BoostedStargateV2NativeStrategy",
            "label": "amountPerSec",
            "offset": 0,
            "slot": "2",
            "type": "t_uint216"
          },
          {
            "astId": 3315,
            "contract": "contracts/strategies/crosschain/stargate/BoostedStargateV2NativeStrategy.sol:BoostedStargateV2NativeStrategy",
            "label": "token",
            "offset": 0,
            "slot": "3",
            "type": "t_address"
          }
        ],
        "numberOfBytes": "128"
      },
      "t_uint216": {
        "encoding": "inplace",
        "label": "uint216",
        "numberOfBytes": "27"
      },
      "t_uint256": {
        "encoding": "inplace",
        "label": "uint256",
        "numberOfBytes": "32"
      }
    }
  }
}