{
  "address": "0xa1568767975c73dc9a3BB1FFc3651Fc3cBb2EA23",
  "abi": [
    {
      "inputs": [
        {
          "internalType": "address",
          "name": "_stargateStaking",
          "type": "address"
        },
        {
          "internalType": "address",
          "name": "_pool",
          "type": "address"
        },
        {
          "components": [
            {
              "internalType": "address",
              "name": "gasToken",
              "type": "address"
            },
            {
              "internalType": "address[]",
              "name": "rewards",
              "type": "address[]"
            },
            {
              "internalType": "address",
              "name": "simpleRouter",
              "type": "address"
            }
          ],
          "internalType": "struct BaseStrategy.BaseStrategySettings",
          "name": "_baseStrategySettings",
          "type": "tuple"
        },
        {
          "components": [
            {
              "internalType": "string",
              "name": "name",
              "type": "string"
            },
            {
              "internalType": "address",
              "name": "owner",
              "type": "address"
            },
            {
              "internalType": "address",
              "name": "dev",
              "type": "address"
            },
            {
              "internalType": "address",
              "name": "feeCollector",
              "type": "address"
            },
            {
              "internalType": "address",
              "name": "depositToken",
              "type": "address"
            },
            {
              "internalType": "address",
              "name": "rewardToken",
              "type": "address"
            },
            {
              "internalType": "uint256",
              "name": "minTokensToReinvest",
              "type": "uint256"
            },
            {
              "internalType": "uint256",
              "name": "devFeeBips",
              "type": "uint256"
            },
            {
              "internalType": "uint256",
              "name": "reinvestRewardBips",
              "type": "uint256"
            }
          ],
          "internalType": "struct YakStrategyV3.StrategySettings",
          "name": "_strategySettings",
          "type": "tuple"
        }
      ],
      "stateMutability": "nonpayable",
      "type": "constructor"
    },
    {
      "anonymous": false,
      "inputs": [
        {
          "indexed": false,
          "internalType": "address",
          "name": "rewardToken",
          "type": "address"
        }
      ],
      "name": "AddReward",
      "type": "event"
    },
    {
      "anonymous": false,
      "inputs": [
        {
          "indexed": false,
          "internalType": "address",
          "name": "lamaPayInstance",
          "type": "address"
        },
        {
          "indexed": false,
          "internalType": "address",
          "name": "payer",
          "type": "address"
        },
        {
          "indexed": false,
          "internalType": "uint216",
          "name": "amountPerSec",
          "type": "uint216"
        },
        {
          "indexed": false,
          "internalType": "address",
          "name": "token",
          "type": "address"
        }
      ],
      "name": "AddStream",
      "type": "event"
    },
    {
      "anonymous": false,
      "inputs": [
        {
          "indexed": true,
          "internalType": "address",
          "name": "owner",
          "type": "address"
        },
        {
          "indexed": true,
          "internalType": "address",
          "name": "spender",
          "type": "address"
        },
        {
          "indexed": false,
          "internalType": "uint256",
          "name": "value",
          "type": "uint256"
        }
      ],
      "name": "Approval",
      "type": "event"
    },
    {
      "anonymous": false,
      "inputs": [
        {
          "indexed": false,
          "internalType": "address",
          "name": "lamaPayInstance",
          "type": "address"
        },
        {
          "indexed": false,
          "internalType": "address",
          "name": "payer",
          "type": "address"
        },
        {
          "indexed": false,
          "internalType": "uint216",
          "name": "amountPerSec",
          "type": "uint216"
        },
        {
          "indexed": false,
          "internalType": "address",
          "name": "token",
          "type": "address"
        }
      ],
      "name": "BorkedStream",
      "type": "event"
    },
    {
      "anonymous": false,
      "inputs": [
        {
          "indexed": true,
          "internalType": "address",
          "name": "account",
          "type": "address"
        },
        {
          "indexed": false,
          "internalType": "uint256",
          "name": "amount",
          "type": "uint256"
        }
      ],
      "name": "Deposit",
      "type": "event"
    },
    {
      "anonymous": false,
      "inputs": [
        {
          "indexed": false,
          "internalType": "bool",
          "name": "newValue",
          "type": "bool"
        }
      ],
      "name": "DepositsEnabled",
      "type": "event"
    },
    {
      "anonymous": false,
      "inputs": [
        {
          "indexed": true,
          "internalType": "address",
          "name": "previousOwner",
          "type": "address"
        },
        {
          "indexed": true,
          "internalType": "address",
          "name": "newOwner",
          "type": "address"
        }
      ],
      "name": "OwnershipTransferred",
      "type": "event"
    },
    {
      "anonymous": false,
      "inputs": [
        {
          "indexed": false,
          "internalType": "address",
          "name": "token",
          "type": "address"
        },
        {
          "indexed": false,
          "internalType": "uint256",
          "name": "amount",
          "type": "uint256"
        }
      ],
      "name": "Recovered",
      "type": "event"
    },
    {
      "anonymous": false,
      "inputs": [
        {
          "indexed": false,
          "internalType": "uint256",
          "name": "newTotalDeposits",
          "type": "uint256"
        },
        {
          "indexed": false,
          "internalType": "uint256",
          "name": "newTotalSupply",
          "type": "uint256"
        }
      ],
      "name": "Reinvest",
      "type": "event"
    },
    {
      "anonymous": false,
      "inputs": [
        {
          "indexed": false,
          "internalType": "address",
          "name": "rewardToken",
          "type": "address"
        }
      ],
      "name": "RemoveReward",
      "type": "event"
    },
    {
      "anonymous": false,
      "inputs": [
        {
          "indexed": false,
          "internalType": "address",
          "name": "lamaPayInstance",
          "type": "address"
        },
        {
          "indexed": false,
          "internalType": "address",
          "name": "payer",
          "type": "address"
        },
        {
          "indexed": false,
          "internalType": "uint216",
          "name": "amountPerSec",
          "type": "uint216"
        },
        {
          "indexed": false,
          "internalType": "address",
          "name": "token",
          "type": "address"
        }
      ],
      "name": "RemoveStream",
      "type": "event"
    },
    {
      "anonymous": false,
      "inputs": [
        {
          "indexed": true,
          "internalType": "address",
          "name": "from",
          "type": "address"
        },
        {
          "indexed": true,
          "internalType": "address",
          "name": "to",
          "type": "address"
        },
        {
          "indexed": false,
          "internalType": "uint256",
          "name": "value",
          "type": "uint256"
        }
      ],
      "name": "Transfer",
      "type": "event"
    },
    {
      "anonymous": false,
      "inputs": [
        {
          "indexed": false,
          "internalType": "address",
          "name": "oldValue",
          "type": "address"
        },
        {
          "indexed": false,
          "internalType": "address",
          "name": "newValue",
          "type": "address"
        }
      ],
      "name": "UpdateDevAddr",
      "type": "event"
    },
    {
      "anonymous": false,
      "inputs": [
        {
          "indexed": false,
          "internalType": "uint256",
          "name": "oldValue",
          "type": "uint256"
        },
        {
          "indexed": false,
          "internalType": "uint256",
          "name": "newValue",
          "type": "uint256"
        }
      ],
      "name": "UpdateDevFee",
      "type": "event"
    },
    {
      "anonymous": false,
      "inputs": [
        {
          "indexed": false,
          "internalType": "address",
          "name": "oldValue",
          "type": "address"
        },
        {
          "indexed": false,
          "internalType": "address",
          "name": "newValue",
          "type": "address"
        }
      ],
      "name": "UpdateFeeCollector",
      "type": "event"
    },
    {
      "anonymous": false,
      "inputs": [
        {
          "indexed": false,
          "internalType": "uint256",
          "name": "oldValue",
          "type": "uint256"
        },
        {
          "indexed": false,
          "internalType": "uint256",
          "name": "newValue",
          "type": "uint256"
        }
      ],
      "name": "UpdateMaxTokensToDepositWithoutReinvest",
      "type": "event"
    },
    {
      "anonymous": false,
      "inputs": [
        {
          "indexed": false,
          "internalType": "uint256",
          "name": "oldValue",
          "type": "uint256"
        },
        {
          "indexed": false,
          "internalType": "uint256",
          "name": "newValue",
          "type": "uint256"
        }
      ],
      "name": "UpdateMinTokensToReinvest",
      "type": "event"
    },
    {
      "anonymous": false,
      "inputs": [
        {
          "indexed": false,
          "internalType": "uint256",
          "name": "oldValue",
          "type": "uint256"
        },
        {
          "indexed": false,
          "internalType": "uint256",
          "name": "newValue",
          "type": "uint256"
        }
      ],
      "name": "UpdateReinvestReward",
      "type": "event"
    },
    {
      "anonymous": false,
      "inputs": [
        {
          "indexed": false,
          "internalType": "address",
          "name": "oldRouter",
          "type": "address"
        },
        {
          "indexed": false,
          "internalType": "address",
          "name": "newRouter",
          "type": "address"
        }
      ],
      "name": "UpdateRouter",
      "type": "event"
    },
    {
      "anonymous": false,
      "inputs": [
        {
          "indexed": true,
          "internalType": "address",
          "name": "account",
          "type": "address"
        },
        {
          "indexed": false,
          "internalType": "uint256",
          "name": "amount",
          "type": "uint256"
        }
      ],
      "name": "Withdraw",
      "type": "event"
    },
    {
      "inputs": [],
      "name": "DEPOSITS_ENABLED",
      "outputs": [
        {
          "internalType": "bool",
          "name": "",
          "type": "bool"
        }
      ],
      "stateMutability": "view",
      "type": "function"
    },
    {
      "inputs": [],
      "name": "DEV_FEE_BIPS",
      "outputs": [
        {
          "internalType": "uint256",
          "name": "",
          "type": "uint256"
        }
      ],
      "stateMutability": "view",
      "type": "function"
    },
    {
      "inputs": [],
      "name": "DOMAIN_TYPEHASH",
      "outputs": [
        {
          "internalType": "bytes32",
          "name": "",
          "type": "bytes32"
        }
      ],
      "stateMutability": "view",
      "type": "function"
    },
    {
      "inputs": [],
      "name": "MIN_TOKENS_TO_REINVEST",
      "outputs": [
        {
          "internalType": "uint256",
          "name": "",
          "type": "uint256"
        }
      ],
      "stateMutability": "view",
      "type": "function"
    },
    {
      "inputs": [],
      "name": "PERMIT_TYPEHASH",
      "outputs": [
        {
          "internalType": "bytes32",
          "name": "",
          "type": "bytes32"
        }
      ],
      "stateMutability": "view",
      "type": "function"
    },
    {
      "inputs": [],
      "name": "REINVEST_REWARD_BIPS",
      "outputs": [
        {
          "internalType": "uint256",
          "name": "",
          "type": "uint256"
        }
      ],
      "stateMutability": "view",
      "type": "function"
    },
    {
      "inputs": [],
      "name": "VERSION_HASH",
      "outputs": [
        {
          "internalType": "bytes32",
          "name": "",
          "type": "bytes32"
        }
      ],
      "stateMutability": "view",
      "type": "function"
    },
    {
      "inputs": [
        {
          "internalType": "address",
          "name": "_rewardToken",
          "type": "address"
        }
      ],
      "name": "addReward",
      "outputs": [],
      "stateMutability": "nonpayable",
      "type": "function"
    },
    {
      "inputs": [
        {
          "internalType": "address",
          "name": "_lamaPayInstance",
          "type": "address"
        },
        {
          "internalType": "address",
          "name": "_payer",
          "type": "address"
        },
        {
          "internalType": "uint216",
          "name": "_amountPerSec",
          "type": "uint216"
        }
      ],
      "name": "addStream",
      "outputs": [],
      "stateMutability": "nonpayable",
      "type": "function"
    },
    {
      "inputs": [
        {
          "internalType": "address",
          "name": "account",
          "type": "address"
        },
        {
          "internalType": "address",
          "name": "spender",
          "type": "address"
        }
      ],
      "name": "allowance",
      "outputs": [
        {
          "internalType": "uint256",
          "name": "",
          "type": "uint256"
        }
      ],
      "stateMutability": "view",
      "type": "function"
    },
    {
      "inputs": [
        {
          "internalType": "address",
          "name": "spender",
          "type": "address"
        },
        {
          "internalType": "uint256",
          "name": "amount",
          "type": "uint256"
        }
      ],
      "name": "approve",
      "outputs": [
        {
          "internalType": "bool",
          "name": "",
          "type": "bool"
        }
      ],
      "stateMutability": "nonpayable",
      "type": "function"
    },
    {
      "inputs": [
        {
          "internalType": "address",
          "name": "account",
          "type": "address"
        }
      ],
      "name": "balanceOf",
      "outputs": [
        {
          "internalType": "uint256",
          "name": "",
          "type": "uint256"
        }
      ],
      "stateMutability": "view",
      "type": "function"
    },
    {
      "inputs": [
        {
          "internalType": "uint256",
          "name": "_amount",
          "type": "uint256"
        }
      ],
      "name": "calculateDepositFee",
      "outputs": [
        {
          "internalType": "uint256",
          "name": "",
          "type": "uint256"
        }
      ],
      "stateMutability": "view",
      "type": "function"
    },
    {
      "inputs": [
        {
          "internalType": "uint256",
          "name": "_amount",
          "type": "uint256"
        }
      ],
      "name": "calculateWithdrawFee",
      "outputs": [
        {
          "internalType": "uint256",
          "name": "",
          "type": "uint256"
        }
      ],
      "stateMutability": "view",
      "type": "function"
    },
    {
      "inputs": [],
      "name": "checkReward",
      "outputs": [
        {
          "internalType": "uint256",
          "name": "",
          "type": "uint256"
        }
      ],
      "stateMutability": "view",
      "type": "function"
    },
    {
      "inputs": [],
      "name": "decimals",
      "outputs": [
        {
          "internalType": "uint8",
          "name": "",
          "type": "uint8"
        }
      ],
      "stateMutability": "view",
      "type": "function"
    },
    {
      "inputs": [
        {
          "internalType": "uint256",
          "name": "_amount",
          "type": "uint256"
        }
      ],
      "name": "deposit",
      "outputs": [],
      "stateMutability": "nonpayable",
      "type": "function"
    },
    {
      "inputs": [
        {
          "internalType": "address",
          "name": "_account",
          "type": "address"
        },
        {
          "internalType": "uint256",
          "name": "_amount",
          "type": "uint256"
        }
      ],
      "name": "depositFor",
      "outputs": [],
      "stateMutability": "nonpayable",
      "type": "function"
    },
    {
      "inputs": [],
      "name": "depositToken",
      "outputs": [
        {
          "internalType": "contract IERC20",
          "name": "",
          "type": "address"
        }
      ],
      "stateMutability": "view",
      "type": "function"
    },
    {
      "inputs": [
        {
          "internalType": "uint256",
          "name": "_amount",
          "type": "uint256"
        },
        {
          "internalType": "uint256",
          "name": "_deadline",
          "type": "uint256"
        },
        {
          "internalType": "uint8",
          "name": "_v",
          "type": "uint8"
        },
        {
          "internalType": "bytes32",
          "name": "_r",
          "type": "bytes32"
        },
        {
          "internalType": "bytes32",
          "name": "_s",
          "type": "bytes32"
        }
      ],
      "name": "depositWithPermit",
      "outputs": [],
      "stateMutability": "nonpayable",
      "type": "function"
    },
    {
      "inputs": [],
      "name": "devAddr",
      "outputs": [
        {
          "internalType": "address",
          "name": "",
          "type": "address"
        }
      ],
      "stateMutability": "view",
      "type": "function"
    },
    {
      "inputs": [],
      "name": "disableDeposits",
      "outputs": [],
      "stateMutability": "nonpayable",
      "type": "function"
    },
    {
      "inputs": [],
      "name": "enableDeposits",
      "outputs": [],
      "stateMutability": "nonpayable",
      "type": "function"
    },
    {
      "inputs": [],
      "name": "estimateReinvestReward",
      "outputs": [
        {
          "internalType": "uint256",
          "name": "",
          "type": "uint256"
        }
      ],
      "stateMutability": "view",
      "type": "function"
    },
    {
      "inputs": [],
      "name": "feeCollector",
      "outputs": [
        {
          "internalType": "address",
          "name": "",
          "type": "address"
        }
      ],
      "stateMutability": "view",
      "type": "function"
    },
    {
      "inputs": [
        {
          "internalType": "uint256",
          "name": "amount",
          "type": "uint256"
        }
      ],
      "name": "getDepositTokensForShares",
      "outputs": [
        {
          "internalType": "uint256",
          "name": "",
          "type": "uint256"
        }
      ],
      "stateMutability": "view",
      "type": "function"
    },
    {
      "inputs": [],
      "name": "getDomainSeparator",
      "outputs": [
        {
          "internalType": "bytes32",
          "name": "",
          "type": "bytes32"
        }
      ],
      "stateMutability": "view",
      "type": "function"
    },
    {
      "inputs": [
        {
          "internalType": "uint256",
          "name": "amount",
          "type": "uint256"
        }
      ],
      "name": "getSharesForDepositTokens",
      "outputs": [
        {
          "internalType": "uint256",
          "name": "",
          "type": "uint256"
        }
      ],
      "stateMutability": "view",
      "type": "function"
    },
    {
      "inputs": [],
      "name": "getSupportedRewardsLength",
      "outputs": [
        {
          "internalType": "uint256",
          "name": "",
          "type": "uint256"
        }
      ],
      "stateMutability": "view",
      "type": "function"
    },
    {
      "inputs": [],
      "name": "name",
      "outputs": [
        {
          "internalType": "string",
          "name": "",
          "type": "string"
        }
      ],
      "stateMutability": "view",
      "type": "function"
    },
    {
      "inputs": [
        {
          "internalType": "address",
          "name": "",
          "type": "address"
        }
      ],
      "name": "nonces",
      "outputs": [
        {
          "internalType": "uint256",
          "name": "",
          "type": "uint256"
        }
      ],
      "stateMutability": "view",
      "type": "function"
    },
    {
      "inputs": [],
      "name": "owner",
      "outputs": [
        {
          "internalType": "address",
          "name": "",
          "type": "address"
        }
      ],
      "stateMutability": "view",
      "type": "function"
    },
    {
      "inputs": [
        {
          "internalType": "address",
          "name": "owner",
          "type": "address"
        },
        {
          "internalType": "address",
          "name": "spender",
          "type": "address"
        },
        {
          "internalType": "uint256",
          "name": "value",
          "type": "uint256"
        },
        {
          "internalType": "uint256",
          "name": "deadline",
          "type": "uint256"
        },
        {
          "internalType": "uint8",
          "name": "v",
          "type": "uint8"
        },
        {
          "internalType": "bytes32",
          "name": "r",
          "type": "bytes32"
        },
        {
          "internalType": "bytes32",
          "name": "s",
          "type": "bytes32"
        }
      ],
      "name": "permit",
      "outputs": [],
      "stateMutability": "nonpayable",
      "type": "function"
    },
    {
      "inputs": [
        {
          "internalType": "address",
          "name": "tokenAddress",
          "type": "address"
        },
        {
          "internalType": "uint256",
          "name": "tokenAmount",
          "type": "uint256"
        }
      ],
      "name": "recoverERC20",
      "outputs": [],
      "stateMutability": "nonpayable",
      "type": "function"
    },
    {
      "inputs": [
        {
          "internalType": "uint256",
          "name": "amount",
          "type": "uint256"
        }
      ],
      "name": "recoverGas",
      "outputs": [],
      "stateMutability": "nonpayable",
      "type": "function"
    },
    {
      "inputs": [],
      "name": "reinvest",
      "outputs": [],
      "stateMutability": "nonpayable",
      "type": "function"
    },
    {
      "inputs": [
        {
          "internalType": "address",
          "name": "_rewardToken",
          "type": "address"
        }
      ],
      "name": "removeReward",
      "outputs": [],
      "stateMutability": "nonpayable",
      "type": "function"
    },
    {
      "inputs": [
        {
          "internalType": "address",
          "name": "_lamaPayInstance",
          "type": "address"
        },
        {
          "internalType": "address",
          "name": "_payer",
          "type": "address"
        },
        {
          "internalType": "uint216",
          "name": "_amountPerSec",
          "type": "uint216"
        }
      ],
      "name": "removeStream",
      "outputs": [],
      "stateMutability": "nonpayable",
      "type": "function"
    },
    {
      "inputs": [],
      "name": "renounceOwnership",
      "outputs": [],
      "stateMutability": "nonpayable",
      "type": "function"
    },
    {
      "inputs": [
        {
          "internalType": "uint256",
          "name": "_minReturnAmountAccepted",
          "type": "uint256"
        }
      ],
      "name": "rescueDeployedFunds",
      "outputs": [],
      "stateMutability": "nonpayable",
      "type": "function"
    },
    {
      "inputs": [
        {
          "internalType": "address",
          "name": "token",
          "type": "address"
        },
        {
          "internalType": "address",
          "name": "spender",
          "type": "address"
        }
      ],
      "name": "revokeAllowance",
      "outputs": [],
      "stateMutability": "nonpayable",
      "type": "function"
    },
    {
      "inputs": [],
      "name": "rewardToken",
      "outputs": [
        {
          "internalType": "contract IERC20",
          "name": "",
          "type": "address"
        }
      ],
      "stateMutability": "view",
      "type": "function"
    },
    {
      "inputs": [],
      "name": "simpleRouter",
      "outputs": [
        {
          "internalType": "contract ISimpleRouter",
          "name": "",
          "type": "address"
        }
      ],
      "stateMutability": "view",
      "type": "function"
    },
    {
      "inputs": [
        {
          "internalType": "uint256",
          "name": "",
          "type": "uint256"
        }
      ],
      "name": "streams",
      "outputs": [
        {
          "internalType": "address",
          "name": "lamaPayInstance",
          "type": "address"
        },
        {
          "internalType": "address",
          "name": "payer",
          "type": "address"
        },
        {
          "internalType": "uint216",
          "name": "amountPerSec",
          "type": "uint216"
        },
        {
          "internalType": "address",
          "name": "token",
          "type": "address"
        }
      ],
      "stateMutability": "view",
      "type": "function"
    },
    {
      "inputs": [
        {
          "internalType": "uint256",
          "name": "",
          "type": "uint256"
        }
      ],
      "name": "supportedRewards",
      "outputs": [
        {
          "internalType": "address",
          "name": "",
          "type": "address"
        }
      ],
      "stateMutability": "view",
      "type": "function"
    },
    {
      "inputs": [],
      "name": "symbol",
      "outputs": [
        {
          "internalType": "string",
          "name": "",
          "type": "string"
        }
      ],
      "stateMutability": "view",
      "type": "function"
    },
    {
      "inputs": [],
      "name": "totalDeposits",
      "outputs": [
        {
          "internalType": "uint256",
          "name": "",
          "type": "uint256"
        }
      ],
      "stateMutability": "view",
      "type": "function"
    },
    {
      "inputs": [],
      "name": "totalSupply",
      "outputs": [
        {
          "internalType": "uint256",
          "name": "",
          "type": "uint256"
        }
      ],
      "stateMutability": "view",
      "type": "function"
    },
    {
      "inputs": [
        {
          "internalType": "address",
          "name": "dst",
          "type": "address"
        },
        {
          "internalType": "uint256",
          "name": "amount",
          "type": "uint256"
        }
      ],
      "name": "transfer",
      "outputs": [
        {
          "internalType": "bool",
          "name": "",
          "type": "bool"
        }
      ],
      "stateMutability": "nonpayable",
      "type": "function"
    },
    {
      "inputs": [
        {
          "internalType": "address",
          "name": "src",
          "type": "address"
        },
        {
          "internalType": "address",
          "name": "dst",
          "type": "address"
        },
        {
          "internalType": "uint256",
          "name": "amount",
          "type": "uint256"
        }
      ],
      "name": "transferFrom",
      "outputs": [
        {
          "internalType": "bool",
          "name": "",
          "type": "bool"
        }
      ],
      "stateMutability": "nonpayable",
      "type": "function"
    },
    {
      "inputs": [
        {
          "internalType": "address",
          "name": "newOwner",
          "type": "address"
        }
      ],
      "name": "transferOwnership",
      "outputs": [],
      "stateMutability": "nonpayable",
      "type": "function"
    },
    {
      "inputs": [
        {
          "internalType": "address",
          "name": "newValue",
          "type": "address"
        }
      ],
      "name": "updateDevAddr",
      "outputs": [],
      "stateMutability": "nonpayable",
      "type": "function"
    },
    {
      "inputs": [
        {
          "internalType": "uint256",
          "name": "newValue",
          "type": "uint256"
        }
      ],
      "name": "updateDevFee",
      "outputs": [],
      "stateMutability": "nonpayable",
      "type": "function"
    },
    {
      "inputs": [
        {
          "internalType": "address",
          "name": "newValue",
          "type": "address"
        }
      ],
      "name": "updateFeeCollector",
      "outputs": [],
      "stateMutability": "nonpayable",
      "type": "function"
    },
    {
      "inputs": [
        {
          "internalType": "uint256",
          "name": "newValue",
          "type": "uint256"
        }
      ],
      "name": "updateMinTokensToReinvest",
      "outputs": [],
      "stateMutability": "nonpayable",
      "type": "function"
    },
    {
      "inputs": [
        {
          "internalType": "uint256",
          "name": "newValue",
          "type": "uint256"
        }
      ],
      "name": "updateReinvestReward",
      "outputs": [],
      "stateMutability": "nonpayable",
      "type": "function"
    },
    {
      "inputs": [
        {
          "internalType": "address",
          "name": "_router",
          "type": "address"
        }
      ],
      "name": "updateRouter",
      "outputs": [],
      "stateMutability": "nonpayable",
      "type": "function"
    },
    {
      "inputs": [
        {
          "internalType": "uint256",
          "name": "_amount",
          "type": "uint256"
        }
      ],
      "name": "withdraw",
      "outputs": [],
      "stateMutability": "nonpayable",
      "type": "function"
    }
  ],
  "transactionHash": "0xa69c49c964b38d58ae14c6ba1816b5d0759fe1a9cb5ce0e0d9c6b9efa909e403",
  "args": [
    "0x3da4f8E456AC648c489c286B99Ca37B666be7C4C",
    "0xe8CDF27AcD73a434D661C84887215F7598e7d0d3",
    {
      "gasToken": "0x82aF49447D8a07e3bd95BD0d56f35241523fBab1",
      "rewards": [
        "0x912CE59144191C1204E64559FE8253a0e49E6548",
        "0x7f4dB37D7bEb31F445307782Bc3Da0F18dF13696"
      ],
      "simpleRouter": "0x4f543bb63d85D28b92Af2AD1f882F86805Db484C"
    },
    {
      "name": "Yield Yak: STG S*USDC",
      "owner": "0xDcEDF06Fd33E1D7b6eb4b309f779a0e9D3172e44",
      "dev": "0xDcEDF06Fd33E1D7b6eb4b309f779a0e9D3172e44",
      "feeCollector": "0xbb82b43Bf2057B804253D5Db8c18A647fC1f3403",
      "depositToken": "0x6Ea313859A5D9F6fF2a68f529e6361174bFD2225",
      "rewardToken": "0x82aF49447D8a07e3bd95BD0d56f35241523fBab1",
      "minTokensToReinvest": "1000",
      "devFeeBips": 700,
      "reinvestRewardBips": 300
    }
  ],
  "solcInputHash": "4cdd96e8d4b535c223419b161127ab85",
  "bytecode": "0x6101806040526009610140819052685969656c642059616b60b81b6101609081526200002f9160009190620007be565b506040805180820190915260038082526216549560ea1b60209092019182526200005c91600191620007be565b503480156200006a57600080fd5b5060405162005f4438038062005f448339810160408190526200008d9162000ad6565b8181818180600033600680546001600160a01b0319166001600160a01b0383169081179091556040519192509060009060008051602062005f24833981519152908290a35080518051620000ea91600091602090910190620007be565b506080808201516001600160a01b0390811690915260a0808301519091169052600780546001600160a01b0319163317905560c08101516200012c906200029f565b60e08101516200013c9062000340565b6101008101516200014d90620003fc565b60608101516200015d90620004b8565b60408101516200016d906200056c565b6200017762000620565b60208101516200018790620006c1565b5081516001600160a01b031660c0526020808301518051620001ae92600d9201906200084d565b50604082810151600e80546001600160a01b0319166001600160a01b039092169190911790558051600080825260208201527fc7606d21ac05cd309191543e409f0845c016120563783d70e4f41419dc0ef234910160405180910390a1505050506001600160a01b0384811660e052831661010081905260408051637e062a3560e11b8152905163fc0c546a916004808201926020929091908290030181865afa15801562000261573d6000803e3d6000fd5b505050506040513d601f19601f8201168201806040525081019062000287919062000c31565b6001600160a01b0316610120525062000cb992505050565b6007546001600160a01b03163314620002ff5760405162461bcd60e51b815260206004820152601460248201527f59616b53747261746567793a3a6f6e6c7944657600000000000000000000000060448201526064015b60405180910390fd5b60095460408051918252602082018390527f481f79ac3a523b6d6db3c5a720e190e986d1cc1b41adcdf50f9caef849901100910160405180910390a1600955565b6007546001600160a01b031633146200039c5760405162461bcd60e51b815260206004820152601460248201527f59616b53747261746567793a3a6f6e6c794465760000000000000000000000006044820152606401620002f6565b612710600b5482620003af919062000c56565b1115620003bb57600080fd5b600c5460408051918252602082018390527f2a42303d002f0ba6cfe8259c91d4684443fb0b3de286ba74991175d651726131910160405180910390a1600c55565b6007546001600160a01b03163314620004585760405162461bcd60e51b815260206004820152601460248201527f59616b53747261746567793a3a6f6e6c794465760000000000000000000000006044820152606401620002f6565b612710600c54826200046b919062000c56565b11156200047757600080fd5b600b5460408051918252602082018390527fe7f97d51d307dc44045597c9978bec0f842e6bb40d19b9444084cfa30d9ed4f2910160405180910390a1600b55565b6006546001600160a01b03163314620005035760405162461bcd60e51b8152602060048201819052602482015260008051602062005f048339815191526044820152606401620002f6565b600854604080516001600160a01b03928316815291831660208301527fcc882185e6edeeb762130016ea1faf3d7aa9c01b199bfd646f965b58ab741063910160405180910390a1600880546001600160a01b0319166001600160a01b0392909216919091179055565b6006546001600160a01b03163314620005b75760405162461bcd60e51b8152602060048201819052602482015260008051602062005f048339815191526044820152606401620002f6565b600754604080516001600160a01b03928316815291831660208301527fa8e91499ed37682f43cffb045fcc7d379a91e8c9a14e6321877ee34dee564c00910160405180910390a1600780546001600160a01b0319166001600160a01b0392909216919091179055565b6006546001600160a01b031633146200066b5760405162461bcd60e51b8152602060048201819052602482015260008051602062005f048339815191526044820152606401620002f6565b600a5460ff16156200067c57600080fd5b600a805460ff191660019081179091556040519081527f7b014ed3854e7f5cb0218d58b3c6ae7d53a68bb0af2f67bfb029ea42c38a7e859060200160405180910390a1565b6006546001600160a01b031633146200070c5760405162461bcd60e51b8152602060048201819052602482015260008051602062005f048339815191526044820152606401620002f6565b6001600160a01b038116620007735760405162461bcd60e51b815260206004820152602660248201527f4f776e61626c653a206e6577206f776e657220697320746865207a65726f206160448201526564647265737360d01b6064820152608401620002f6565b6006546040516001600160a01b0380841692169060008051602062005f2483398151915290600090a3600680546001600160a01b0319166001600160a01b0392909216919091179055565b828054620007cc9062000c7d565b90600052602060002090601f016020900481019282620007f057600085556200083b565b82601f106200080b57805160ff19168380011785556200083b565b828001600101855582156200083b579182015b828111156200083b5782518255916020019190600101906200081e565b5062000849929150620008a5565b5090565b8280548282559060005260206000209081019282156200083b579160200282015b828111156200083b57825182546001600160a01b0319166001600160a01b039091161782556020909201916001909101906200086e565b5b80821115620008495760008155600101620008a6565b80516001600160a01b0381168114620008d457600080fd5b919050565b634e487b7160e01b600052604160045260246000fd5b60405161012081016001600160401b0381118282101715620009155762000915620008d9565b60405290565b604051606081016001600160401b0381118282101715620009155762000915620008d9565b604051601f8201601f191681016001600160401b03811182821017156200096b576200096b620008d9565b604052919050565b600082601f8301126200098557600080fd5b81516001600160401b03811115620009a157620009a1620008d9565b6020620009b7601f8301601f1916820162000940565b8281528582848701011115620009cc57600080fd5b60005b83811015620009ec578581018301518282018401528201620009cf565b83811115620009fe5760008385840101525b5095945050505050565b6000610120828403121562000a1c57600080fd5b62000a26620008ef565b82519091506001600160401b0381111562000a4057600080fd5b62000a4e8482850162000973565b82525062000a5f60208301620008bc565b602082015262000a7260408301620008bc565b604082015262000a8560608301620008bc565b606082015262000a9860808301620008bc565b608082015262000aab60a08301620008bc565b60a082015260c082015160c082015260e082015160e082015261010080830151818301525092915050565b6000806000806080858703121562000aed57600080fd5b62000af885620008bc565b9350602062000b09818701620008bc565b60408701519094506001600160401b038082111562000b2757600080fd5b908701906060828a03121562000b3c57600080fd5b62000b466200091b565b62000b5183620008bc565b8152838301518281111562000b6557600080fd5b8301601f81018b1362000b7757600080fd5b80518381111562000b8c5762000b8c620008d9565b8060051b62000b9d87820162000940565b918252828101870191878101908e84111562000bb857600080fd5b938801935b8385101562000be15762000bd185620008bc565b8252938801939088019062000bbd565b858901525062000bf89250505060408401620008bc565b6040820152606089015190955092508083111562000c1557600080fd5b505062000c258782880162000a08565b91505092959194509250565b60006020828403121562000c4457600080fd5b62000c4f82620008bc565b9392505050565b6000821982111562000c7857634e487b7160e01b600052601160045260246000fd5b500190565b600181811c9082168062000c9257607f821691505b60208210810362000cb357634e487b7160e01b600052602260045260246000fd5b50919050565b60805160a05160c05160e05161010051610120516150f162000e1360003960008181613e6401528181613f040152613fd2015260008181613fa3015261405c01526000818161150c01528181612be401528181612fac0152818161301d015281816131ff015281816140f8015281816141db01526142d701526000818161214901528181613bc401528181613bf30152613c68015260008181610835015281816120ac015281816121b1015281816122f0015281816136990152818161370101528181613b1001528181613c9201528181613d4e01528181613db101528181613e8e0152613edc01526000818161073501528181610a9701528181610b6a01528181610d5201528181610de7015281816114db01528181612bb201528181612df801528181612f840152818161304c015281816131cf0152818161329c01528181614127015281816141ac015261426701526150f16000f3fe608060405234801561001057600080fd5b506004361061038e5760003560e01c806395d89b41116101de578063c4b24a461161010f578063dd8ce4d6116100ad578063f2fde38b1161007c578063f2fde38b1461080a578063f6314d071461081d578063f7c618c114610830578063fdb5a03e1461085757600080fd5b8063dd8ce4d6146107c9578063e75ab045146107dc578063eab89a5a146107ef578063ed24911d1461080257600080fd5b8063d2c35ce8116100e9578063d2c35ce814610757578063d505accf1461076a578063da09c72c1461077d578063dd62ed3e1461079057600080fd5b8063c4b24a4614610715578063c851cc321461071d578063c89039c51461073057600080fd5b8063ac67e1af1161017c578063b9e57b8011610156578063b9e57b80146106de578063bd079f55146106e6578063bec67bd6146106ef578063c415b95c1461070257600080fd5b8063ac67e1af146106b6578063b52a321f146106be578063b6b55f25146106cb57600080fd5b80639e4e7318116101b85780639e4e731814610656578063a4d5e67c1461067d578063a8ae2b7c14610690578063a9059cbb146106a357600080fd5b806395d89b411461062857806399729ec1146106305780639c9b2e211461064357600080fd5b80635ea682ea116102c35780637ae26773116102615780638980f11f116102305780638980f11f146105d45780638aff733d146105e75780638da5cb5b146105f05780639291d5631461061557600080fd5b80637ae26773146105865780637d882097146105995780637ecebe00146105a157806381837230146105c157600080fd5b80636a8b25331161029d5780636a8b25331461052f57806370a0823114610542578063715018a61461056b5780637897e7f61461057357600080fd5b80635ea682ea146104c457806364d60d91146104cd578063666d25b91461051c57600080fd5b8063258250da1161033057806330adf81f1161030a57806330adf81f14610468578063313ce5671461048f5780634a970be7146104a95780635e4c57a4146104bc57600080fd5b8063258250da146104385780632e1a7d4d146104405780632f4f21e21461045557600080fd5b806318160ddd1161036c57806318160ddd146103f557806320606b70146103fe57806323b872dd14610425578063247d284b146103d457600080fd5b806306fdde0314610393578063095ea7b3146103b157806311056035146103d4575b600080fd5b61039b61085f565b6040516103a891906148be565b60405180910390f35b6103c46103bf366004614906565b6108ed565b60405190151581526020016103a8565b6103e76103e2366004614932565b610903565b6040519081526020016103a8565b6103e760025481565b6103e77f8b73c3c69bb8fe3d512ecc4cf759cc79239f7b179b0ffacaa9a75d522b39400f81565b6103c461043336600461494b565b610914565b600d546103e7565b61045361044e366004614932565b6109dd565b005b610453610463366004614906565b610b03565b6103e77f6e71edae12b1b97f4d1f60370fef10105fa2faae0126114a169c64845d6126c981565b610497601281565b60405160ff90911681526020016103a8565b6104536104b736600461499d565b610b11565b610453610bdf565b6103e7600c5481565b6104e06104db366004614932565b610c8f565b604080516001600160a01b03958616815293851660208501526001600160d81b03909216918301919091529190911660608201526080016103a8565b61045361052a366004614932565b610ce0565b61045361053d3660046149e4565b610f61565b6103e7610550366004614a3b565b6001600160a01b031660009081526004602052604090205490565b610453611268565b610453610581366004614932565b61130c565b610453610594366004614a58565b6113de565b6103e76114ab565b6103e76105af366004614a3b565b60056020526000908152604090205481565b6104536105cf366004614932565b61157e565b6104536105e2366004614906565b611610565b6103e7600b5481565b6006546001600160a01b03165b6040516001600160a01b0390911681526020016103a8565b610453610623366004614a3b565b6116d2565b61039b611795565b61045361063e366004614932565b6117a2565b610453610651366004614a3b565b611850565b6103e77fc89efdaa54c0f20c7adf612882df0950f5a951637e0307cdcb4c672f298b8bc681565b61045361068b366004614a3b565b6119d6565b61045361069e366004614932565b611bd9565b6103c46106b1366004614906565b611c87565b610453611c94565b600a546103c49060ff1681565b6104536106d9366004614932565b611d2f565b6103e7611d3c565b6103e760095481565b6104536106fd3660046149e4565b611d7b565b6008546105fd906001600160a01b031681565b6103e761207e565b61045361072b366004614a3b565b6123d3565b6105fd7f000000000000000000000000000000000000000000000000000000000000000081565b610453610765366004614a3b565b61248d565b610453610778366004614a91565b612550565b6007546105fd906001600160a01b031681565b6103e761079e366004614a58565b6001600160a01b03918216600090815260036020908152604080832093909416825291909152205490565b6103e76107d7366004614932565b612663565b6105fd6107ea366004614932565b6126a9565b6103e76107fd366004614932565b6126d3565b6103e7612709565b610453610818366004614a3b565b6127a9565b600e546105fd906001600160a01b031681565b6105fd7f000000000000000000000000000000000000000000000000000000000000000081565b6104536128db565b6000805461086c90614aff565b80601f016020809104026020016040519081016040528092919081815260200182805461089890614aff565b80156108e55780601f106108ba576101008083540402835291602001916108e5565b820191906000526020600020905b8154815290600101906020018083116108c857829003601f168201915b505050505081565b60006108fa338484612936565b50600192915050565b600061090e82612a44565b92915050565b6001600160a01b03831660008181526003602090815260408083203380855292528220549192909190821480159061094e57506000198114155b156109c457600061095f8583614b4f565b6001600160a01b038881166000818152600360209081526040808320948916808452948252918290208590559051848152939450919290917f8c5be1e5ebec7d5bd14f71427d1e84f3dd0314c0f7b2291e5b200ac8c7c3b925910160405180910390a3505b6109cf868686612a5e565b6001925050505b9392505050565b60006109e8826126d3565b905060008111610a655760405162461bcd60e51b815260206004820152602560248201527f4261736553747261746567793a3a576974686472617720616d6f756e7420746f60448201527f6f206c6f7700000000000000000000000000000000000000000000000000000060648201526084015b60405180910390fd5b6000610a7082612b82565b90506000610a7d83612a44565b9050610abe33610a8d8385614b4f565b6001600160a01b037f0000000000000000000000000000000000000000000000000000000000000000169190612c48565b610ac83385612cc8565b60405183815233907f884edad9ce6fa2440d8a54cc123490eb96d2768479d49ff9c7366125a94243649060200160405180910390a250505050565b610b0d8282612d5c565b5050565b6040517fd505accf000000000000000000000000000000000000000000000000000000008152336004820152306024820152604481018690526064810185905260ff8416608482015260a4810183905260c481018290527f00000000000000000000000000000000000000000000000000000000000000006001600160a01b03169063d505accf9060e401600060405180830381600087803b158015610bb657600080fd5b505af1158015610bca573d6000803e3d6000fd5b50505050610bd83386612d5c565b5050505050565b6006546001600160a01b03163314610c395760405162461bcd60e51b815260206004820181905260248201527f4f776e61626c653a2063616c6c6572206973206e6f7420746865206f776e65726044820152606401610a5c565b600a5460ff1615610c4957600080fd5b600a805460ff191660019081179091556040519081527f7b014ed3854e7f5cb0218d58b3c6ae7d53a68bb0af2f67bfb029ea42c38a7e85906020015b60405180910390a1565b600f8181548110610c9f57600080fd5b600091825260209091206004909102018054600182015460028301546003909301546001600160a01b039283169450908216926001600160d81b0316911684565b6006546001600160a01b03163314610d3a5760405162461bcd60e51b815260206004820181905260248201527f4f776e61626c653a2063616c6c6572206973206e6f7420746865206f776e65726044820152606401610a5c565b6040516370a0823160e01b81523060048201526000907f00000000000000000000000000000000000000000000000000000000000000006001600160a01b0316906370a0823190602401602060405180830381865afa158015610da1573d6000803e3d6000fd5b505050506040513d601f19601f82011682018060405250810190610dc59190614b66565b9050610dcf612f54565b6040516370a0823160e01b81523060048201526000907f00000000000000000000000000000000000000000000000000000000000000006001600160a01b0316906370a0823190602401602060405180830381865afa158015610e36573d6000803e3d6000fd5b505050506040513d601f19601f82011682018060405250810190610e5a9190614b66565b905082610e678383614b4f565b1015610f015760405162461bcd60e51b815260206004820152604260248201527f4261736553747261746567793a3a456d657267656e637920776974686472617760448201527f206d696e696d756d2072657475726e20616d6f756e74206e6f7420726561636860648201527f6564000000000000000000000000000000000000000000000000000000000000608482015260a401610a5c565b7fc7606d21ac05cd309191543e409f0845c016120563783d70e4f41419dc0ef234610f2a6114ab565b6002546040805192835260208301919091520160405180910390a1600a5460ff161515600103610f5c57610f5c611c94565b505050565b6007546001600160a01b03163314610fb25760405162461bcd60e51b81526020600482015260146024820152732cb0b5a9ba3930ba32b3bc9d1d37b7363ca232bb60611b6044820152606401610a5c565b600080610fc08585856130bb565b91509150806110225760405162461bcd60e51b815260206004820152602860248201527f4d656d655275736853747261746567793a3a53747265616d206e6f7420636f6e604482015267666967757265642160c01b6064820152608401610a5c565b600f805461103290600190614b4f565b8154811061104257611042614b7f565b9060005260206000209060040201600f838154811061106357611063614b7f565b60009182526020909120825460049092020180546001600160a01b03199081166001600160a01b039384161782556001808501549083018054831691851691909117905560028085015490830180547fffffffffff000000000000000000000000000000000000000000000000000000166001600160d81b0390921691909117905560039384015493909101805490911692909116919091179055600f80548061110f5761110f614b95565b6000828152602090819020600460001990930183810290910180546001600160a01b03199081168255600182018054821690556002820180547fffffffffff000000000000000000000000000000000000000000000000000000169055600390910180549091169055909255604080517ffc0c546a00000000000000000000000000000000000000000000000000000000815290517ff3152af0022d4b208d9ecbd314ca66f3764d16e822c9880c7d370a6330021ac7938993899389936001600160a01b0387169363fc0c546a93838101939192918290030181865afa1580156111fd573d6000803e3d6000fd5b505050506040513d601f19601f820116820180604052508101906112219190614bab565b604080516001600160a01b03958616815293851660208501526001600160d81b03909216918301919091529190911660608201526080015b60405180910390a15050505050565b6006546001600160a01b031633146112c25760405162461bcd60e51b815260206004820181905260248201527f4f776e61626c653a2063616c6c6572206973206e6f7420746865206f776e65726044820152606401610a5c565b6006546040516000916001600160a01b0316907f8be0079c531659141344cd1fd0a4f28419497f9722a3daafe3b4186f6b6457e0908390a3600680546001600160a01b0319169055565b6006546001600160a01b031633146113665760405162461bcd60e51b815260206004820181905260248201527f4f776e61626c653a2063616c6c6572206973206e6f7420746865206f776e65726044820152606401610a5c565b6000811161137357600080fd5b604051339082156108fc029083906000818181858888f193505050501580156113a0573d6000803e3d6000fd5b506040805160008152602081018390527f8c1256b8896378cd5044f80c202f9772b9d77dc85c8a6eb51967210b09bfaa28910160405180910390a150565b6007546001600160a01b0316331461142f5760405162461bcd60e51b81526020600482015260146024820152732cb0b5a9ba3930ba32b3bc9d1d37b7363ca232bb60611b6044820152606401610a5c565b60405163095ea7b360e01b81526001600160a01b0382811660048301526000602483015283169063095ea7b3906044016020604051808303816000875af115801561147e573d6000803e3d6000fd5b505050506040513d601f19601f820116820180604052508101906114a29190614bc8565b610b0d57600080fd5b6040517ff7888aec0000000000000000000000000000000000000000000000000000000081526001600160a01b037f0000000000000000000000000000000000000000000000000000000000000000811660048301523060248301526000917f00000000000000000000000000000000000000000000000000000000000000009091169063f7888aec90604401602060405180830381865afa158015611555573d6000803e3d6000fd5b505050506040513d601f19601f820116820180604052508101906115799190614b66565b905090565b6007546001600160a01b031633146115cf5760405162461bcd60e51b81526020600482015260146024820152732cb0b5a9ba3930ba32b3bc9d1d37b7363ca232bb60611b6044820152606401610a5c565b60095460408051918252602082018390527f481f79ac3a523b6d6db3c5a720e190e986d1cc1b41adcdf50f9caef849901100910160405180910390a1600955565b6006546001600160a01b0316331461166a5760405162461bcd60e51b815260206004820181905260248201527f4f776e61626c653a2063616c6c6572206973206e6f7420746865206f776e65726044820152606401610a5c565b6000811161167757600080fd5b61168b6001600160a01b0383163383612c48565b604080516001600160a01b0384168152602081018390527f8c1256b8896378cd5044f80c202f9772b9d77dc85c8a6eb51967210b09bfaa2891015b60405180910390a15050565b6006546001600160a01b0316331461172c5760405162461bcd60e51b815260206004820181905260248201527f4f776e61626c653a2063616c6c6572206973206e6f7420746865206f776e65726044820152606401610a5c565b600754604080516001600160a01b03928316815291831660208301527fa8e91499ed37682f43cffb045fcc7d379a91e8c9a14e6321877ee34dee564c00910160405180910390a1600780546001600160a01b0319166001600160a01b0392909216919091179055565b6001805461086c90614aff565b6007546001600160a01b031633146117f35760405162461bcd60e51b81526020600482015260146024820152732cb0b5a9ba3930ba32b3bc9d1d37b7363ca232bb60611b6044820152606401610a5c565b612710600b54826118049190614bea565b111561180f57600080fd5b600c5460408051918252602082018390527f2a42303d002f0ba6cfe8259c91d4684443fb0b3de286ba74991175d651726131910160405180910390a1600c55565b6007546001600160a01b031633146118a15760405162461bcd60e51b81526020600482015260146024820152732cb0b5a9ba3930ba32b3bc9d1d37b7363ca232bb60611b6044820152606401610a5c565b6000805b600d548110156118f857600d81815481106118c2576118c2614b7f565b6000918252602090912001546001600160a01b03908116908416036118e657600191505b806118f081614c02565b9150506118a5565b5080156119585760405162461bcd60e51b815260206004820152602860248201527f4261736553747261746567793a3a52657761726420616c726561647920636f6e604482015267666967757265642160c01b6064820152608401610a5c565b600d80546001810182556000919091527fd7b6990105719101dabeb77144f2a3385c8033acd3af97e9423a695e81ad1eb50180546001600160a01b0319166001600160a01b0384169081179091556040519081527f1714865bf5baa84e3439536a013c87cfe030b4cd69f344a5f2a4877de3d517ce906020016116c6565b6007546001600160a01b03163314611a275760405162461bcd60e51b81526020600482015260146024820152732cb0b5a9ba3930ba32b3bc9d1d37b7363ca232bb60611b6044820152606401610a5c565b6000805b600d54811015611af757600d8181548110611a4857611a48614b7f565b6000918252602090912001546001600160a01b0390811690841603611ae557600d805460019350611a7a908490614b4f565b81548110611a8a57611a8a614b7f565b600091825260209091200154600d80546001600160a01b039092169183908110611ab657611ab6614b7f565b9060005260206000200160006101000a8154816001600160a01b0302191690836001600160a01b031602179055505b80611aef81614c02565b915050611a2b565b5080611b6a5760405162461bcd60e51b8152602060048201526024808201527f4261736553747261746567793a3a526577617264206e6f7420636f6e6669677560448201527f72656421000000000000000000000000000000000000000000000000000000006064820152608401610a5c565b600d805480611b7b57611b7b614b95565b6000828152602090819020600019908301810180546001600160a01b03191690559091019091556040516001600160a01b03841681527f963b7c735475147a62c589c2d7cb8ec4b0a6b7af4f97373d79ebfa42ab8aa7dc91016116c6565b6007546001600160a01b03163314611c2a5760405162461bcd60e51b81526020600482015260146024820152732cb0b5a9ba3930ba32b3bc9d1d37b7363ca232bb60611b6044820152606401610a5c565b612710600c5482611c3b9190614bea565b1115611c4657600080fd5b600b5460408051918252602082018390527fe7f97d51d307dc44045597c9978bec0f842e6bb40d19b9444084cfa30d9ed4f2910160405180910390a1600b55565b60006108fa338484612a5e565b6007546001600160a01b03163314611ce55760405162461bcd60e51b81526020600482015260146024820152732cb0b5a9ba3930ba32b3bc9d1d37b7363ca232bb60611b6044820152606401610a5c565b600a5460ff16611cf457600080fd5b600a805460ff19169055604051600081527f7b014ed3854e7f5cb0218d58b3c6ae7d53a68bb0af2f67bfb029ea42c38a7e8590602001610c85565b611d393382612d5c565b50565b600080611d4761207e565b90506009548110611d7357612710600b5482611d639190614c1b565b611d6d9190614c3a565b91505090565b600091505090565b6007546001600160a01b03163314611dcc5760405162461bcd60e51b81526020600482015260146024820152732cb0b5a9ba3930ba32b3bc9d1d37b7363ca232bb60611b6044820152606401610a5c565b6001600160a01b03831615801590611dec57506001600160a01b03821615155b8015611e0157506000816001600160d81b0316115b15610f5c576000611e138484846130bb565b9150508015611e8a5760405162461bcd60e51b815260206004820152602c60248201527f4d656d655275736853747261746567793a3a53747265616d20616c726561647960448201527f20636f6e666967757265642100000000000000000000000000000000000000006064820152608401610a5c565b6000846001600160a01b031663fc0c546a6040518163ffffffff1660e01b8152600401602060405180830381865afa158015611eca573d6000803e3d6000fd5b505050506040513d601f19601f82011682018060405250810190611eee9190614bab565b60408051608080820183526001600160a01b0389811680845289821660208086018281526001600160d81b038c8116888a018181528b88166060808c01828152600f80546001810182556000919091529c517f8d1108e10bcb7c27dddfc02ed9d693a074039d026cf4ea4240b40f7d581ac8026004909e029d8e0180546001600160a01b0319908116928e1692909217905596517f8d1108e10bcb7c27dddfc02ed9d693a074039d026cf4ea4240b40f7d581ac8038e0180548916918d1691909117905592517f8d1108e10bcb7c27dddfc02ed9d693a074039d026cf4ea4240b40f7d581ac8048d0180547fffffffffff00000000000000000000000000000000000000000000000000000016919096161790945590517f8d1108e10bcb7c27dddfc02ed9d693a074039d026cf4ea4240b40f7d581ac805909a018054909416999097169890981790915587519384529083019190915294810193909352928201929092529192507ff7568797d3c3a8683cc15f72610e4377cd2a50c535e7e237ee1da95f589d7cb69101611259565b60008061208961319f565b6040516370a0823160e01b81523060048201529091506000906001600160a01b037f000000000000000000000000000000000000000000000000000000000000000016906370a0823190602401602060405180830381865afa1580156120f3573d6000803e3d6000fd5b505050506040513d601f19601f820116820180604052508101906121179190614b66565b905060005b82518110156123cc57600083828151811061213957612139614b7f565b60200260200101516000015190507f00000000000000000000000000000000000000000000000000000000000000006001600160a01b0316816001600160a01b0316036121af574784838151811061219357612193614b7f565b60200260200101516020018181516121ab9190614bea565b9052505b7f00000000000000000000000000000000000000000000000000000000000000006001600160a01b0316816001600160a01b031603612218578382815181106121fa576121fa614b7f565b602002602001015160200151836122119190614bea565b92506123b9565b6001600160a01b038116156123b9576040516370a0823160e01b81523060048201526000906001600160a01b038316906370a0823190602401602060405180830381865afa15801561226e573d6000803e3d6000fd5b505050506040513d601f19601f820116820180604052508101906122929190614b66565b905060008584815181106122a8576122a8614b7f565b602002602001015160200151826122bf9190614bea565b905080156123b657600e546040516377ccc49d60e11b8152600481018390526001600160a01b0385811660248301527f000000000000000000000000000000000000000000000000000000000000000081166044830152600092169063ef99893a90606401600060405180830381865afa158015612341573d6000803e3d6000fd5b505050506040513d6000823e601f3d908101601f191682016040526123699190810190614dbf565b905060018160000151511161237f5760006123a8565b8051805161238f90600190614b4f565b8151811061239f5761239f614b7f565b60200260200101515b6123b29087614bea565b9550505b50505b50806123c481614c02565b91505061211c565b5092915050565b6007546001600160a01b031633146124245760405162461bcd60e51b81526020600482015260146024820152732cb0b5a9ba3930ba32b3bc9d1d37b7363ca232bb60611b6044820152606401610a5c565b600e54604080516001600160a01b03928316815291831660208301527f2c6fb4d5ff9fad6ecf2e09cd64cbc9aad92a8b9d2cc0e5c3ddef9b529b0b5ffd910160405180910390a1600e80546001600160a01b0319166001600160a01b0392909216919091179055565b6006546001600160a01b031633146124e75760405162461bcd60e51b815260206004820181905260248201527f4f776e61626c653a2063616c6c6572206973206e6f7420746865206f776e65726044820152606401610a5c565b600854604080516001600160a01b03928316815291831660208301527fcc882185e6edeeb762130016ea1faf3d7aa9c01b199bfd646f965b58ab741063910160405180910390a1600880546001600160a01b0319166001600160a01b0392909216919091179055565b428410156125a05760405162461bcd60e51b815260206004820152600f60248201527f7065726d69743a3a6578706972656400000000000000000000000000000000006044820152606401610a5c565b6001600160a01b038716600090815260056020526040812080547f6e71edae12b1b97f4d1f60370fef10105fa2faae0126114a169c64845d6126c9918a918a918a9190866125ed83614c02565b909155506040805160208101969096526001600160a01b0394851690860152929091166060840152608083015260a082015260c0810186905260e00160405160208183030381529060405280519060200120905061264e88828686866134ed565b612659888888612936565b5050505050505050565b60008061266e6114ab565b60025490915080158061267f575081155b1561268c57509192915050565b816126978286614c1b565b6126a19190614c3a565b949350505050565b600d81815481106126b957600080fd5b6000918252602090912001546001600160a01b0316905081565b6000806126de6114ab565b6002549091508015806126ef575081155b156126fe575060009392505050565b806126978386614c1b565b60007f8b73c3c69bb8fe3d512ecc4cf759cc79239f7b179b0ffacaa9a75d522b39400f60001b600060405161273e9190614e81565b6040519081900390207fc89efdaa54c0f20c7adf612882df0950f5a951637e0307cdcb4c672f298b8bc646604080516020810195909552840192909252606083015260808201523060a082015260c00160405160208183030381529060405280519060200120905090565b6006546001600160a01b031633146128035760405162461bcd60e51b815260206004820181905260248201527f4f776e61626c653a2063616c6c6572206973206e6f7420746865206f776e65726044820152606401610a5c565b6001600160a01b03811661287f5760405162461bcd60e51b815260206004820152602660248201527f4f776e61626c653a206e6577206f776e657220697320746865207a65726f206160448201527f64647265737300000000000000000000000000000000000000000000000000006064820152608401610a5c565b6006546040516001600160a01b038084169216907f8be0079c531659141344cd1fd0a4f28419497f9722a3daafe3b4186f6b6457e090600090a3600680546001600160a01b0319166001600160a01b0392909216919091179055565b32331461292a5760405162461bcd60e51b815260206004820152601460248201527f59616b53747261746567793a3a6f6e6c79454f410000000000000000000000006044820152606401610a5c565b612934600061364d565b565b6001600160a01b03831661298c5760405162461bcd60e51b815260206004820152601c60248201527f5f617070726f76653a3a6f776e6572207a65726f2061646472657373000000006044820152606401610a5c565b6001600160a01b0382166129e25760405162461bcd60e51b815260206004820152601e60248201527f5f617070726f76653a3a7370656e646572207a65726f206164647265737300006044820152606401610a5c565b6001600160a01b0383811660008181526003602090815260408083209487168084529482529182902085905590518481527f8c5be1e5ebec7d5bd14f71427d1e84f3dd0314c0f7b2291e5b200ac8c7c3b92591015b60405180910390a3505050565b600080612710612a548285614c1b565b6109d69190614c3a565b6001600160a01b038216612ada5760405162461bcd60e51b815260206004820152603460248201527f5f7472616e73666572546f6b656e733a2063616e6e6f74207472616e7366657260448201527f20746f20746865207a65726f20616464726573730000000000000000000000006064820152608401610a5c565b6001600160a01b038316600090815260046020526040902054612afe908290614b4f565b6001600160a01b038085166000908152600460205260408082209390935590841681522054612b2e908290614bea565b6001600160a01b0380841660008181526004602052604090819020939093559151908516907fddf252ad1be2c89b69c2b068fc378daa952ba7f163c4a11628f55a4df523b3ef90612a379085815260200190565b6040517ff3fef3a30000000000000000000000000000000000000000000000000000000081526001600160a01b037f000000000000000000000000000000000000000000000000000000000000000081166004830152602482018390526000917f00000000000000000000000000000000000000000000000000000000000000009091169063f3fef3a390604401600060405180830381600087803b158015612c2a57600080fd5b505af1158015612c3e573d6000803e3d6000fd5b5093949350505050565b604080516001600160a01b038416602482015260448082018490528251808303909101815260649091019091526020810180517bffffffffffffffffffffffffffffffffffffffffffffffffffffffff167fa9059cbb00000000000000000000000000000000000000000000000000000000179052610f5c9084906137ad565b6001600160a01b038216600090815260046020526040902054612cec908290614b4f565b6001600160a01b038316600090815260046020526040902055600254612d13908290614b4f565b6002556040518181526000906001600160a01b038416907fddf252ad1be2c89b69c2b068fc378daa952ba7f163c4a11628f55a4df523b3ef906020015b60405180910390a35050565b600a5460ff161515600114612db35760405162461bcd60e51b815260206004820152601f60248201527f4261736553747261746567793a3a4465706f736974732064697361626c6564006044820152606401610a5c565b612dbd600161364d565b6040517f23b872dd000000000000000000000000000000000000000000000000000000008152336004820152306024820152604481018290527f00000000000000000000000000000000000000000000000000000000000000006001600160a01b0316906323b872dd906064016020604051808303816000875af1158015612e49573d6000803e3d6000fd5b505050506040513d601f19601f82011682018060405250810190612e6d9190614bc8565b612edf5760405162461bcd60e51b815260206004820152602b60248201527f4261736553747261746567793a3a4465706f73697420746f6b656e207472616e60448201527f73666572206661696c65640000000000000000000000000000000000000000006064820152608401610a5c565b6000612eea82612a44565b9050612f0283612efd6107d78486614b4f565b613892565b612f0c8282613968565b826001600160a01b03167fe1fffcc4923d04b559f4d29a8bfc6cda04eb5b0d3c460751c2402c5c5cc9109c83604051612f4791815260200190565b60405180910390a2505050565b6040517f6ff1c9bc0000000000000000000000000000000000000000000000000000000081526001600160a01b037f0000000000000000000000000000000000000000000000000000000000000000811660048301527f00000000000000000000000000000000000000000000000000000000000000001690636ff1c9bc90602401600060405180830381600087803b158015612ff057600080fd5b505af1158015613004573d6000803e3d6000fd5b505060405163095ea7b360e01b81526001600160a01b037f000000000000000000000000000000000000000000000000000000000000000081166004830152600060248301527f000000000000000000000000000000000000000000000000000000000000000016925063095ea7b391506044016020604051808303816000875af1158015613097573d6000803e3d6000fd5b505050506040513d601f19601f82011682018060405250810190611d399190614bc8565b60008060005b600f5481101561319657600f81815481106130de576130de614b7f565b60009182526020909120600490910201546001600160a01b03878116911614801561313a5750600f818154811061311757613117614b7f565b60009182526020909120600160049092020101546001600160a01b038681169116145b80156131775750600f818154811061315457613154614b7f565b60009182526020909120600260049092020101546001600160d81b038581169116145b1561318457600191508092505b8061318e81614c02565b9150506130c1565b50935093915050565b6040517fed21fed00000000000000000000000000000000000000000000000000000000081526001600160a01b037f00000000000000000000000000000000000000000000000000000000000000008116600483015260609160009182917f00000000000000000000000000000000000000000000000000000000000000009091169063ed21fed090602401602060405180830381865afa158015613248573d6000803e3d6000fd5b505050506040513d601f19601f8201168201806040525081019061326c9190614bab565b6040517f779bcb9b0000000000000000000000000000000000000000000000000000000081526001600160a01b037f000000000000000000000000000000000000000000000000000000000000000081166004830152306024830152919091169063779bcb9b90604401600060405180830381865afa1580156132f3573d6000803e3d6000fd5b505050506040513d6000823e601f3d908101601f1916820160405261331b9190810190614f1c565b915091506000600f8054905083516133339190614bea565b905060008167ffffffffffffffff81111561335057613350614c5c565b60405190808252806020026020018201604052801561339557816020015b604080518082019091526000808252602082015281526020019060019003908161336e5790505b50905060005b600f5481101561344b5761341b600f82815481106133bb576133bb614b7f565b600091825260209182902060408051608081018252600490930290910180546001600160a01b039081168452600182015481169484019490945260028101546001600160d81b0316918301919091526003015490911660608201526139e8565b82828151811061342d5761342d614b7f565b6020026020010181905250808061344390614c02565b91505061339b565b60005b85518110156134e257604051806040016040528087838151811061347457613474614b7f565b60200260200101516001600160a01b0316815260200186838151811061349c5761349c614b7f565b60200260200101518152508382846134b49190614bea565b815181106134c4576134c4614b7f565b602002602001018190525080806134da90614c02565b91505061344e565b509095945050505050565b60006134f7612709565b6040517f1901000000000000000000000000000000000000000000000000000000000000602082015260228101919091526042810186905260620160408051601f198184030181528282528051602091820120600080855291840180845281905260ff88169284019290925260608301869052608083018590529092509060019060a0016020604051602081039080840390855afa15801561359d573d6000803e3d6000fd5b5050604051601f1901519150506001600160a01b038116158015906135d35750866001600160a01b0316816001600160a01b0316145b6136445760405162461bcd60e51b8152602060048201526024808201527f417263683a3a76616c69646174655369673a20696e76616c6964207369676e6160448201527f74757265000000000000000000000000000000000000000000000000000000006064820152608401610a5c565b50505050505050565b6000613657613aee565b905060095481111561376c576000612710600c54836136769190614c1b565b6136809190614c3a565b905080156136c2576008546136c2906001600160a01b037f00000000000000000000000000000000000000000000000000000000000000008116911683612c48565b6000836136e957612710600b54846136da9190614c1b565b6136e49190614c3a565b6136ec565b60005b90508015613728576137286001600160a01b037f0000000000000000000000000000000000000000000000000000000000000000163383612c48565b6000613747826137388587614b4f565b6137429190614b4f565b613e60565b9050801561376857600061375a82612a44565b90506137668282613968565b505b5050505b7fc7606d21ac05cd309191543e409f0845c016120563783d70e4f41419dc0ef2346137956114ab565b600254604080519283526020830191909152016116c6565b6000613802826040518060400160405280602081526020017f5361666545524332303a206c6f772d6c6576656c2063616c6c206661696c6564815250856001600160a01b03166140d29092919063ffffffff16565b805190915015610f5c57808060200190518101906138209190614bc8565b610f5c5760405162461bcd60e51b815260206004820152602a60248201527f5361666545524332303a204552433230206f7065726174696f6e20646964206e60448201527f6f742073756363656564000000000000000000000000000000000000000000006064820152608401610a5c565b600081116138e25760405162461bcd60e51b815260206004820152601260248201527f5f6d696e743a3a7a65726f2073686172657300000000000000000000000000006044820152606401610a5c565b806002546138f09190614bea565b6002556001600160a01b038216600090815260046020526040902054613917908290614bea565b6001600160a01b0383166000818152600460205260408082209390935591519091907fddf252ad1be2c89b69c2b068fc378daa952ba7f163c4a11628f55a4df523b3ef90612d509085815260200190565b600082116139de5760405162461bcd60e51b815260206004820152602260248201527f4261736553747261746567793a3a5374616b6520616d6f756e7420746f6f206c60448201527f6f770000000000000000000000000000000000000000000000000000000000006064820152608401610a5c565b610b0d82826140e1565b60408051808201909152600080825260208201528151602083015160408085015190517f3f053acd0000000000000000000000000000000000000000000000000000000081526001600160a01b0392831660048201523060248201526001600160d81b039091166044820152911690633f053acd90606401606060405180830381865afa925050508015613a99575060408051601f3d908101601f19168201909252613a9691810190614f80565b60015b613ac35750604080518082019091526060909101516001600160a01b031681526000602082015290565b5050604080518082019091526060909301516001600160a01b0316835260208301525090565b919050565b6000613af861423b565b6040516370a0823160e01b81523060048201526000907f00000000000000000000000000000000000000000000000000000000000000006001600160a01b0316906370a0823190602401602060405180830381865afa158015613b5f573d6000803e3d6000fd5b505050506040513d601f19601f82011682018060405250810190613b839190614b66565b600d5490915060005b81811015613e58576000600d8281548110613ba957613ba9614b7f565b6000918252602090912001546001600160a01b0390811691507f0000000000000000000000000000000000000000000000000000000000000000168103613cd457478015613c66577f00000000000000000000000000000000000000000000000000000000000000006001600160a01b031663d0e30db0826040518263ffffffff1660e01b81526004016000604051808303818588803b158015613c4c57600080fd5b505af1158015613c60573d6000803e3d6000fd5b50505050505b7f00000000000000000000000000000000000000000000000000000000000000006001600160a01b03167f00000000000000000000000000000000000000000000000000000000000000006001600160a01b031603613cd257613cc98186614bea565b94505050613e46565b505b6040516370a0823160e01b81523060048201526000906001600160a01b038316906370a0823190602401602060405180830381865afa158015613d1b573d6000803e3d6000fd5b505050506040513d601f19601f82011682018060405250810190613d3f9190614b66565b9050600081118015613d8357507f00000000000000000000000000000000000000000000000000000000000000006001600160a01b0316826001600160a01b031614155b15613e4357600e546040516377ccc49d60e11b8152600481018390526001600160a01b0384811660248301527f000000000000000000000000000000000000000000000000000000000000000081166044830152600092169063ef99893a90606401600060405180830381865afa158015613e02573d6000803e3d6000fd5b505050506040513d6000823e601f3d908101601f19168201604052613e2a9190810190614dbf565b9050613e358161433c565b613e3f9087614bea565b9550505b50505b80613e5081614c02565b915050613b8c565b509092915050565b60007f00000000000000000000000000000000000000000000000000000000000000006001600160a01b03167f00000000000000000000000000000000000000000000000000000000000000006001600160a01b031614613f8c57600e546040516377ccc49d60e11b8152600481018490526001600160a01b037f0000000000000000000000000000000000000000000000000000000000000000811660248301527f000000000000000000000000000000000000000000000000000000000000000081166044830152600092169063ef99893a90606401600060405180830381865afa158015613f55573d6000803e3d6000fd5b505050506040513d6000823e601f3d908101601f19168201604052613f7d9190810190614dbf565b9050613f888161433c565b9250505b60405163095ea7b360e01b81526001600160a01b037f000000000000000000000000000000000000000000000000000000000000000081166004830152602482018490527f0000000000000000000000000000000000000000000000000000000000000000169063095ea7b3906044016020604051808303816000875af115801561401b573d6000803e3d6000fd5b505050506040513d601f19601f8201168201806040525081019061403f9190614bc8565b506040516311f9fbc960e21b8152306004820152602481018390527f00000000000000000000000000000000000000000000000000000000000000006001600160a01b0316906347e7ef24906044015b6020604051808303816000875af11580156140ae573d6000803e3d6000fd5b505050506040513d601f19601f8201168201806040525081019061090e9190614b66565b60606126a184846000856144a6565b60405163095ea7b360e01b81526001600160a01b037f000000000000000000000000000000000000000000000000000000000000000081166004830152602482018490527f0000000000000000000000000000000000000000000000000000000000000000169063095ea7b3906044016020604051808303816000875af1158015614170573d6000803e3d6000fd5b505050506040513d601f19601f820116820180604052508101906141949190614bc8565b506040516311f9fbc960e21b81526001600160a01b037f000000000000000000000000000000000000000000000000000000000000000081166004830152602482018490527f000000000000000000000000000000000000000000000000000000000000000016906347e7ef2490604401600060405180830381600087803b15801561421f57600080fd5b505af1158015614233573d6000803e3d6000fd5b505050505050565b6142436145ee565b604080516001808252818301909252600091602080830190803683370190505090507f00000000000000000000000000000000000000000000000000000000000000008160008151811061429957614299614b7f565b6001600160a01b0392831660209182029290920101526040517f318d9e5d0000000000000000000000000000000000000000000000000000000081527f00000000000000000000000000000000000000000000000000000000000000009091169063318d9e5d9061430e908490600401614ff2565b600060405180830381600087803b15801561432857600080fd5b505af1158015610bd8573d6000803e3d6000fd5b805151600090158015906143795750815180516000919061435f90600190614b4f565b8151811061436f5761436f614b7f565b6020026020010151115b1561449e57816040015160008151811061439557614395614b7f565b60200260200101516001600160a01b031663095ea7b3600e60009054906101000a90046001600160a01b031684600001516000815181106143d8576143d8614b7f565b60200260200101516040518363ffffffff1660e01b81526004016144119291906001600160a01b03929092168252602082015260400190565b6020604051808303816000875af1158015614430573d6000803e3d6000fd5b505050506040513d601f19601f820116820180604052508101906144549190614bc8565b50600e546040517f5b2466160000000000000000000000000000000000000000000000000000000081526001600160a01b0390911690635b2466169061408f908590600401615005565b506000919050565b60608247101561451e5760405162461bcd60e51b815260206004820152602660248201527f416464726573733a20696e73756666696369656e742062616c616e636520666f60448201527f722063616c6c00000000000000000000000000000000000000000000000000006064820152608401610a5c565b6001600160a01b0385163b6145755760405162461bcd60e51b815260206004820152601d60248201527f416464726573733a2063616c6c20746f206e6f6e2d636f6e74726163740000006044820152606401610a5c565b600080866001600160a01b03168587604051614591919061509f565b60006040518083038185875af1925050503d80600081146145ce576040519150601f19603f3d011682016040523d82523d6000602084013e6145d3565b606091505b50915091506145e3828286614855565b979650505050505050565b60005b600f54811015611d3957600f818154811061460e5761460e614b7f565b6000918252602090912060049091020154600f80546001600160a01b03909216916317a566e491908490811061464657614646614b7f565b906000526020600020906004020160010160009054906101000a90046001600160a01b031630600f858154811061467f5761467f614b7f565b600091825260209091206004918202016002015460405160e086901b7fffffffff000000000000000000000000000000000000000000000000000000001681526001600160a01b03948516928101929092529190921660248301526001600160d81b03166044820152606401600060405180830381600087803b15801561470557600080fd5b505af1925050508015614716575060015b614843577fc0843bdf0743c63293a0c1ec674ec40249b8468a6c1cd2416463fe686ae0c630600f828154811061474e5761474e614b7f565b6000918252602090912060049091020154600f80546001600160a01b03909216918490811061477f5761477f614b7f565b906000526020600020906004020160010160009054906101000a90046001600160a01b0316600f84815481106147b7576147b7614b7f565b906000526020600020906004020160020160009054906101000a90046001600160d81b0316600f85815481106147ef576147ef614b7f565b600091825260209182902060049091020160030154604080516001600160a01b039687168152948616928501929092526001600160d81b039092169083015291909116606082015260800160405180910390a15b8061484d81614c02565b9150506145f1565b606083156148645750816109d6565b8251156148745782518084602001fd5b8160405162461bcd60e51b8152600401610a5c91906148be565b60005b838110156148a9578181015183820152602001614891565b838111156148b8576000848401525b50505050565b60208152600082518060208401526148dd81604085016020870161488e565b601f01601f19169190910160400192915050565b6001600160a01b0381168114611d3957600080fd5b6000806040838503121561491957600080fd5b8235614924816148f1565b946020939093013593505050565b60006020828403121561494457600080fd5b5035919050565b60008060006060848603121561496057600080fd5b833561496b816148f1565b9250602084013561497b816148f1565b929592945050506040919091013590565b803560ff81168114613ae957600080fd5b600080600080600060a086880312156149b557600080fd5b85359450602086013593506149cc6040870161498c565b94979396509394606081013594506080013592915050565b6000806000606084860312156149f957600080fd5b8335614a04816148f1565b92506020840135614a14816148f1565b915060408401356001600160d81b0381168114614a3057600080fd5b809150509250925092565b600060208284031215614a4d57600080fd5b81356109d6816148f1565b60008060408385031215614a6b57600080fd5b8235614a76816148f1565b91506020830135614a86816148f1565b809150509250929050565b600080600080600080600060e0888a031215614aac57600080fd5b8735614ab7816148f1565b96506020880135614ac7816148f1565b95506040880135945060608801359350614ae36080890161498c565b925060a0880135915060c0880135905092959891949750929550565b600181811c90821680614b1357607f821691505b602082108103614b3357634e487b7160e01b600052602260045260246000fd5b50919050565b634e487b7160e01b600052601160045260246000fd5b600082821015614b6157614b61614b39565b500390565b600060208284031215614b7857600080fd5b5051919050565b634e487b7160e01b600052603260045260246000fd5b634e487b7160e01b600052603160045260246000fd5b600060208284031215614bbd57600080fd5b81516109d6816148f1565b600060208284031215614bda57600080fd5b815180151581146109d657600080fd5b60008219821115614bfd57614bfd614b39565b500190565b600060018201614c1457614c14614b39565b5060010190565b6000816000190483118215151615614c3557614c35614b39565b500290565b600082614c5757634e487b7160e01b600052601260045260246000fd5b500490565b634e487b7160e01b600052604160045260246000fd5b6040516080810167ffffffffffffffff81118282101715614c9557614c95614c5c565b60405290565b604051601f8201601f1916810167ffffffffffffffff81118282101715614cc457614cc4614c5c565b604052919050565b600067ffffffffffffffff821115614ce657614ce6614c5c565b5060051b60200190565b600082601f830112614d0157600080fd5b81516020614d16614d1183614ccc565b614c9b565b82815260059290921b84018101918181019086841115614d3557600080fd5b8286015b84811015614d505780518352918301918301614d39565b509695505050505050565b600082601f830112614d6c57600080fd5b81516020614d7c614d1183614ccc565b82815260059290921b84018101918181019086841115614d9b57600080fd5b8286015b84811015614d50578051614db2816148f1565b8352918301918301614d9f565b600060208284031215614dd157600080fd5b815167ffffffffffffffff80821115614de957600080fd5b9083019060808286031215614dfd57600080fd5b614e05614c72565b825182811115614e1457600080fd5b614e2087828601614cf0565b825250602083015182811115614e3557600080fd5b614e4187828601614d5b565b602083015250604083015182811115614e5957600080fd5b614e6587828601614d5b565b6040830152506060830151606082015280935050505092915050565b600080835481600182811c915080831680614e9d57607f831692505b60208084108203614ebc57634e487b7160e01b86526022600452602486fd5b818015614ed05760018114614ee157614f0e565b60ff19861689528489019650614f0e565b60008a81526020902060005b86811015614f065781548b820152908501908301614eed565b505084890196505b509498975050505050505050565b60008060408385031215614f2f57600080fd5b825167ffffffffffffffff80821115614f4757600080fd5b614f5386838701614d5b565b93506020850151915080821115614f6957600080fd5b50614f7685828601614cf0565b9150509250929050565b600080600060608486031215614f9557600080fd5b8351925060208401519150604084015190509250925092565b600081518084526020808501945080840160005b83811015614fe75781516001600160a01b031687529582019590820190600101614fc2565b509495945050505050565b6020815260006109d66020830184614fae565b60208082528251608083830152805160a0840181905260009291820190839060c08601905b8083101561504a578351825292840192600192909201919084019061502a565b50838701519350601f1992508286820301604087015261506a8185614fae565b935050506040850151818584030160608601526150878382614fae565b92505050606084015160808401528091505092915050565b600082516150b181846020870161488e565b919091019291505056fea26469706673582212201a3709aabde6443c80c4010a9cfc4b279656d042998d03346570247b7331011364736f6c634300080d00334f776e61626c653a2063616c6c6572206973206e6f7420746865206f776e65728be0079c531659141344cd1fd0a4f28419497f9722a3daafe3b4186f6b6457e0",
  "devdoc": {
    "kind": "dev",
    "methods": {
      "allowance(address,address)": {
        "params": {
          "account": "The address of the account holding the funds",
          "spender": "The address of the account spending the funds"
        },
        "returns": {
          "_0": "The number of tokens approved"
        }
      },
      "approve(address,uint256)": {
        "details": "This will overwrite the approval amount for `spender` and is subject to issues noted [here](https://eips.ethereum.org/EIPS/eip-20#approve) It is recommended to use increaseAllowance and decreaseAllowance instead",
        "params": {
          "amount": "The number of tokens that are approved (2^256-1 means infinite)",
          "spender": "The address of the account which may transfer tokens"
        },
        "returns": {
          "_0": "Whether or not the approval succeeded"
        }
      },
      "balanceOf(address)": {
        "params": {
          "account": "The address of the account to get the balance of"
        },
        "returns": {
          "_0": "The number of tokens held"
        }
      },
      "checkReward()": {
        "returns": {
          "_0": "reward tokens"
        }
      },
      "deposit(uint256)": {
        "params": {
          "_amount": "Amount of tokens to deposit"
        }
      },
      "depositWithPermit(uint256,uint256,uint8,bytes32,bytes32)": {
        "params": {
          "_amount": "Amount of tokens to deposit",
          "_deadline": "The time at which to expire the signature",
          "_r": "Half of the ECDSA signature pair",
          "_s": "Half of the ECDSA signature pair",
          "_v": "The recovery byte of the signature"
        }
      },
      "estimateReinvestReward()": {
        "returns": {
          "_0": "reward tokens"
        }
      },
      "getDepositTokensForShares(uint256)": {
        "params": {
          "amount": "receipt tokens"
        },
        "returns": {
          "_0": "deposit tokens"
        }
      },
      "getDomainSeparator()": {
        "returns": {
          "_0": "Separator"
        }
      },
      "getSharesForDepositTokens(uint256)": {
        "details": "If contract is empty, use 1:1 ratioCould return zero shares for very low amounts of deposit tokens",
        "params": {
          "amount": "deposit tokens"
        },
        "returns": {
          "_0": "receipt tokens"
        }
      },
      "owner()": {
        "details": "Returns the address of the current owner."
      },
      "permit(address,address,uint256,uint256,uint8,bytes32,bytes32)": {
        "params": {
          "deadline": "The time at which to expire the signature",
          "owner": "The address to approve from",
          "r": "Half of the ECDSA signature pair",
          "s": "Half of the ECDSA signature pair",
          "spender": "The address to be approved",
          "v": "The recovery byte of the signature",
          "value": "The number of tokens that are approved (2^256-1 means infinite)"
        }
      },
      "recoverERC20(address,uint256)": {
        "params": {
          "tokenAddress": "token address",
          "tokenAmount": "amount to recover"
        }
      },
      "recoverGas(uint256)": {
        "params": {
          "amount": "amount"
        }
      },
      "renounceOwnership()": {
        "details": "Leaves the contract without owner. It will not be possible to call `onlyOwner` functions anymore. Can only be called by the current owner. NOTE: Renouncing ownership will leave the contract without an owner, thereby removing any functionality that is only available to the owner."
      },
      "revokeAllowance(address,address)": {
        "params": {
          "spender": "address",
          "token": "address"
        }
      },
      "totalDeposits()": {
        "returns": {
          "_0": "total deposits available on the contract"
        }
      },
      "transfer(address,uint256)": {
        "params": {
          "amount": "The number of tokens to transfer",
          "dst": "The address of the destination account"
        },
        "returns": {
          "_0": "Whether or not the transfer succeeded"
        }
      },
      "transferFrom(address,address,uint256)": {
        "params": {
          "amount": "The number of tokens to transfer",
          "dst": "The address of the destination account",
          "src": "The address of the source account"
        },
        "returns": {
          "_0": "Whether or not the transfer succeeded"
        }
      },
      "transferOwnership(address)": {
        "details": "Transfers ownership of the contract to a new account (`newOwner`). Can only be called by the current owner."
      },
      "updateDevAddr(address)": {
        "params": {
          "newValue": "address"
        }
      },
      "updateDevFee(uint256)": {
        "params": {
          "newValue": "fee in BIPS"
        }
      },
      "updateFeeCollector(address)": {
        "params": {
          "newValue": "address"
        }
      },
      "updateMinTokensToReinvest(uint256)": {
        "params": {
          "newValue": "threshold"
        }
      },
      "updateReinvestReward(uint256)": {
        "params": {
          "newValue": "fee in BIPS"
        }
      }
    },
    "version": 1
  },
  "userdoc": {
    "kind": "user",
    "methods": {
      "allowance(address,address)": {
        "notice": "Get the number of tokens `spender` is approved to spend on behalf of `account`"
      },
      "approve(address,uint256)": {
        "notice": "Approve `spender` to transfer up to `amount` from `src`"
      },
      "balanceOf(address)": {
        "notice": "Get the number of tokens held by the `account`"
      },
      "checkReward()": {
        "notice": "Reward tokens available to strategy, including balance"
      },
      "deposit(uint256)": {
        "notice": "Deposit tokens to receive receipt tokens"
      },
      "depositWithPermit(uint256,uint256,uint8,bytes32,bytes32)": {
        "notice": "Deposit using Permit"
      },
      "disableDeposits()": {
        "notice": "Disable deposits"
      },
      "enableDeposits()": {
        "notice": "Enable deposits"
      },
      "estimateReinvestReward()": {
        "notice": "Estimate reinvest reward"
      },
      "getDepositTokensForShares(uint256)": {
        "notice": "Calculate deposit tokens for a given amount of receipt tokens"
      },
      "getDomainSeparator()": {
        "notice": "EIP-712 Domain separator"
      },
      "getSharesForDepositTokens(uint256)": {
        "notice": "Calculate receipt tokens for a given amount of deposit tokens"
      },
      "permit(address,address,uint256,uint256,uint8,bytes32,bytes32)": {
        "notice": "Triggers an approval from owner to spender"
      },
      "recoverERC20(address,uint256)": {
        "notice": "Recover ERC20 from contract"
      },
      "recoverGas(uint256)": {
        "notice": "Recover GAS from contract"
      },
      "reinvest()": {
        "notice": "Reinvest reward tokens into deposit tokens"
      },
      "revokeAllowance(address,address)": {
        "notice": "Revoke token allowance"
      },
      "totalDeposits()": {
        "notice": "This function returns a snapshot of last available quotes"
      },
      "transfer(address,uint256)": {
        "notice": "Transfer `amount` tokens from `msg.sender` to `dst`"
      },
      "transferFrom(address,address,uint256)": {
        "notice": "Transfer `amount` tokens from `src` to `dst`"
      },
      "updateDevAddr(address)": {
        "notice": "Update devAddr"
      },
      "updateDevFee(uint256)": {
        "notice": "Update developer fee"
      },
      "updateFeeCollector(address)": {
        "notice": "Update feeCollector"
      },
      "updateMinTokensToReinvest(uint256)": {
        "notice": "Update reinvest min threshold"
      },
      "updateReinvestReward(uint256)": {
        "notice": "Update reinvest reward"
      }
    },
    "version": 1
  },
  "storageLayout": {
    "storage": [
      {
        "astId": 5,
        "contract": "contracts/strategies/crosschain/stargate/BoostedStargateV2Strategy.sol:BoostedStargateV2Strategy",
        "label": "name",
        "offset": 0,
        "slot": "0",
        "type": "t_string_storage"
      },
      {
        "astId": 8,
        "contract": "contracts/strategies/crosschain/stargate/BoostedStargateV2Strategy.sol:BoostedStargateV2Strategy",
        "label": "symbol",
        "offset": 0,
        "slot": "1",
        "type": "t_string_storage"
      },
      {
        "astId": 13,
        "contract": "contracts/strategies/crosschain/stargate/BoostedStargateV2Strategy.sol:BoostedStargateV2Strategy",
        "label": "totalSupply",
        "offset": 0,
        "slot": "2",
        "type": "t_uint256"
      },
      {
        "astId": 19,
        "contract": "contracts/strategies/crosschain/stargate/BoostedStargateV2Strategy.sol:BoostedStargateV2Strategy",
        "label": "allowances",
        "offset": 0,
        "slot": "3",
        "type": "t_mapping(t_address,t_mapping(t_address,t_uint256))"
      },
      {
        "astId": 23,
        "contract": "contracts/strategies/crosschain/stargate/BoostedStargateV2Strategy.sol:BoostedStargateV2Strategy",
        "label": "balances",
        "offset": 0,
        "slot": "4",
        "type": "t_mapping(t_address,t_uint256)"
      },
      {
        "astId": 39,
        "contract": "contracts/strategies/crosschain/stargate/BoostedStargateV2Strategy.sol:BoostedStargateV2Strategy",
        "label": "nonces",
        "offset": 0,
        "slot": "5",
        "type": "t_mapping(t_address,t_uint256)"
      },
      {
        "astId": 1650,
        "contract": "contracts/strategies/crosschain/stargate/BoostedStargateV2Strategy.sol:BoostedStargateV2Strategy",
        "label": "_owner",
        "offset": 0,
        "slot": "6",
        "type": "t_address"
      },
      {
        "astId": 552,
        "contract": "contracts/strategies/crosschain/stargate/BoostedStargateV2Strategy.sol:BoostedStargateV2Strategy",
        "label": "devAddr",
        "offset": 0,
        "slot": "7",
        "type": "t_address"
      },
      {
        "astId": 554,
        "contract": "contracts/strategies/crosschain/stargate/BoostedStargateV2Strategy.sol:BoostedStargateV2Strategy",
        "label": "feeCollector",
        "offset": 0,
        "slot": "8",
        "type": "t_address"
      },
      {
        "astId": 556,
        "contract": "contracts/strategies/crosschain/stargate/BoostedStargateV2Strategy.sol:BoostedStargateV2Strategy",
        "label": "MIN_TOKENS_TO_REINVEST",
        "offset": 0,
        "slot": "9",
        "type": "t_uint256"
      },
      {
        "astId": 558,
        "contract": "contracts/strategies/crosschain/stargate/BoostedStargateV2Strategy.sol:BoostedStargateV2Strategy",
        "label": "DEPOSITS_ENABLED",
        "offset": 0,
        "slot": "10",
        "type": "t_bool"
      },
      {
        "astId": 560,
        "contract": "contracts/strategies/crosschain/stargate/BoostedStargateV2Strategy.sol:BoostedStargateV2Strategy",
        "label": "REINVEST_REWARD_BIPS",
        "offset": 0,
        "slot": "11",
        "type": "t_uint256"
      },
      {
        "astId": 562,
        "contract": "contracts/strategies/crosschain/stargate/BoostedStargateV2Strategy.sol:BoostedStargateV2Strategy",
        "label": "DEV_FEE_BIPS",
        "offset": 0,
        "slot": "12",
        "type": "t_uint256"
      },
      {
        "astId": 2252,
        "contract": "contracts/strategies/crosschain/stargate/BoostedStargateV2Strategy.sol:BoostedStargateV2Strategy",
        "label": "supportedRewards",
        "offset": 0,
        "slot": "13",
        "type": "t_array(t_address)dyn_storage"
      },
      {
        "astId": 2255,
        "contract": "contracts/strategies/crosschain/stargate/BoostedStargateV2Strategy.sol:BoostedStargateV2Strategy",
        "label": "simpleRouter",
        "offset": 0,
        "slot": "14",
        "type": "t_contract(ISimpleRouter)1307"
      },
      {
        "astId": 3320,
        "contract": "contracts/strategies/crosschain/stargate/BoostedStargateV2Strategy.sol:BoostedStargateV2Strategy",
        "label": "streams",
        "offset": 0,
        "slot": "15",
        "type": "t_array(t_struct(Stream)3316_storage)dyn_storage"
      }
    ],
    "types": {
      "t_address": {
        "encoding": "inplace",
        "label": "address",
        "numberOfBytes": "20"
      },
      "t_array(t_address)dyn_storage": {
        "base": "t_address",
        "encoding": "dynamic_array",
        "label": "address[]",
        "numberOfBytes": "32"
      },
      "t_array(t_struct(Stream)3316_storage)dyn_storage": {
        "base": "t_struct(Stream)3316_storage",
        "encoding": "dynamic_array",
        "label": "struct LamaPayStrategyBase.Stream[]",
        "numberOfBytes": "32"
      },
      "t_bool": {
        "encoding": "inplace",
        "label": "bool",
        "numberOfBytes": "1"
      },
      "t_contract(ISimpleRouter)1307": {
        "encoding": "inplace",
        "label": "contract ISimpleRouter",
        "numberOfBytes": "20"
      },
      "t_mapping(t_address,t_mapping(t_address,t_uint256))": {
        "encoding": "mapping",
        "key": "t_address",
        "label": "mapping(address => mapping(address => uint256))",
        "numberOfBytes": "32",
        "value": "t_mapping(t_address,t_uint256)"
      },
      "t_mapping(t_address,t_uint256)": {
        "encoding": "mapping",
        "key": "t_address",
        "label": "mapping(address => uint256)",
        "numberOfBytes": "32",
        "value": "t_uint256"
      },
      "t_string_storage": {
        "encoding": "bytes",
        "label": "string",
        "numberOfBytes": "32"
      },
      "t_struct(Stream)3316_storage": {
        "encoding": "inplace",
        "label": "struct LamaPayStrategyBase.Stream",
        "members": [
          {
            "astId": 3309,
            "contract": "contracts/strategies/crosschain/stargate/BoostedStargateV2Strategy.sol:BoostedStargateV2Strategy",
            "label": "lamaPayInstance",
            "offset": 0,
            "slot": "0",
            "type": "t_address"
          },
          {
            "astId": 3311,
            "contract": "contracts/strategies/crosschain/stargate/BoostedStargateV2Strategy.sol:BoostedStargateV2Strategy",
            "label": "payer",
            "offset": 0,
            "slot": "1",
            "type": "t_address"
          },
          {
            "astId": 3313,
            "contract": "contracts/strategies/crosschain/stargate/BoostedStargateV2Strategy.sol:BoostedStargateV2Strategy",
            "label": "amountPerSec",
            "offset": 0,
            "slot": "2",
            "type": "t_uint216"
          },
          {
            "astId": 3315,
            "contract": "contracts/strategies/crosschain/stargate/BoostedStargateV2Strategy.sol:BoostedStargateV2Strategy",
            "label": "token",
            "offset": 0,
            "slot": "3",
            "type": "t_address"
          }
        ],
        "numberOfBytes": "128"
      },
      "t_uint216": {
        "encoding": "inplace",
        "label": "uint216",
        "numberOfBytes": "27"
      },
      "t_uint256": {
        "encoding": "inplace",
        "label": "uint256",
        "numberOfBytes": "32"
      }
    }
  }
}