{
  "address": "0x1a7d36D12e12ABfA91e8da437bDa4c86657163e5",
  "abi": [
    {
      "inputs": [
        {
          "components": [
            {
              "internalType": "address",
              "name": "stakingContract",
              "type": "address"
            },
            {
              "internalType": "uint256",
              "name": "pid",
              "type": "uint256"
            },
            {
              "internalType": "address",
              "name": "uniV3Pool",
              "type": "address"
            },
            {
              "internalType": "address",
              "name": "swapPairSynapseTokenIn",
              "type": "address"
            },
            {
              "internalType": "address",
              "name": "synapseLpTokenIn",
              "type": "address"
            },
            {
              "internalType": "address",
              "name": "synapseSwap",
              "type": "address"
            },
            {
              "internalType": "uint256",
              "name": "synapseLpTokenCount",
              "type": "uint256"
            }
          ],
          "internalType": "struct SynapseStrategyV2.SynapseStrategySettings",
          "name": "_synapseStrategySettings",
          "type": "tuple"
        },
        {
          "components": [
            {
              "internalType": "string",
              "name": "name",
              "type": "string"
            },
            {
              "internalType": "address",
              "name": "platformToken",
              "type": "address"
            },
            {
              "components": [
                {
                  "internalType": "address",
                  "name": "reward",
                  "type": "address"
                },
                {
                  "internalType": "address",
                  "name": "swapPair",
                  "type": "address"
                },
                {
                  "internalType": "uint256",
                  "name": "swapFee",
                  "type": "uint256"
                }
              ],
              "internalType": "struct VariableRewardsStrategy.RewardSwapPair[]",
              "name": "rewardSwapPairs",
              "type": "tuple[]"
            },
            {
              "internalType": "address",
              "name": "timelock",
              "type": "address"
            }
          ],
          "internalType": "struct VariableRewardsStrategy.VariableRewardsStrategySettings",
          "name": "_settings",
          "type": "tuple"
        },
        {
          "components": [
            {
              "internalType": "address",
              "name": "depositToken",
              "type": "address"
            },
            {
              "internalType": "address",
              "name": "rewardToken",
              "type": "address"
            },
            {
              "internalType": "uint256",
              "name": "minTokensToReinvest",
              "type": "uint256"
            },
            {
              "internalType": "uint256",
              "name": "devFeeBips",
              "type": "uint256"
            },
            {
              "internalType": "uint256",
              "name": "reinvestRewardBips",
              "type": "uint256"
            }
          ],
          "internalType": "struct YakStrategyV2.StrategySettings",
          "name": "_strategySettings",
          "type": "tuple"
        }
      ],
      "stateMutability": "nonpayable",
      "type": "constructor"
    },
    {
      "anonymous": false,
      "inputs": [
        {
          "indexed": false,
          "internalType": "address",
          "name": "rewardToken",
          "type": "address"
        },
        {
          "indexed": false,
          "internalType": "address",
          "name": "swapPair",
          "type": "address"
        }
      ],
      "name": "AddReward",
      "type": "event"
    },
    {
      "anonymous": false,
      "inputs": [
        {
          "indexed": true,
          "internalType": "address",
          "name": "account",
          "type": "address"
        }
      ],
      "name": "AllowDepositor",
      "type": "event"
    },
    {
      "anonymous": false,
      "inputs": [
        {
          "indexed": true,
          "internalType": "address",
          "name": "owner",
          "type": "address"
        },
        {
          "indexed": true,
          "internalType": "address",
          "name": "spender",
          "type": "address"
        },
        {
          "indexed": false,
          "internalType": "uint256",
          "name": "value",
          "type": "uint256"
        }
      ],
      "name": "Approval",
      "type": "event"
    },
    {
      "anonymous": false,
      "inputs": [
        {
          "indexed": true,
          "internalType": "address",
          "name": "account",
          "type": "address"
        },
        {
          "indexed": false,
          "internalType": "uint256",
          "name": "amount",
          "type": "uint256"
        }
      ],
      "name": "Deposit",
      "type": "event"
    },
    {
      "anonymous": false,
      "inputs": [
        {
          "indexed": false,
          "internalType": "bool",
          "name": "newValue",
          "type": "bool"
        }
      ],
      "name": "DepositsEnabled",
      "type": "event"
    },
    {
      "anonymous": false,
      "inputs": [
        {
          "indexed": true,
          "internalType": "address",
          "name": "previousOwner",
          "type": "address"
        },
        {
          "indexed": true,
          "internalType": "address",
          "name": "newOwner",
          "type": "address"
        }
      ],
      "name": "OwnershipTransferred",
      "type": "event"
    },
    {
      "anonymous": false,
      "inputs": [
        {
          "indexed": false,
          "internalType": "address",
          "name": "token",
          "type": "address"
        },
        {
          "indexed": false,
          "internalType": "uint256",
          "name": "amount",
          "type": "uint256"
        }
      ],
      "name": "Recovered",
      "type": "event"
    },
    {
      "anonymous": false,
      "inputs": [
        {
          "indexed": false,
          "internalType": "uint256",
          "name": "newTotalDeposits",
          "type": "uint256"
        },
        {
          "indexed": false,
          "internalType": "uint256",
          "name": "newTotalSupply",
          "type": "uint256"
        }
      ],
      "name": "Reinvest",
      "type": "event"
    },
    {
      "anonymous": false,
      "inputs": [
        {
          "indexed": true,
          "internalType": "address",
          "name": "account",
          "type": "address"
        }
      ],
      "name": "RemoveDepositor",
      "type": "event"
    },
    {
      "anonymous": false,
      "inputs": [
        {
          "indexed": false,
          "internalType": "address",
          "name": "rewardToken",
          "type": "address"
        }
      ],
      "name": "RemoveReward",
      "type": "event"
    },
    {
      "anonymous": false,
      "inputs": [
        {
          "indexed": true,
          "internalType": "address",
          "name": "from",
          "type": "address"
        },
        {
          "indexed": true,
          "internalType": "address",
          "name": "to",
          "type": "address"
        },
        {
          "indexed": false,
          "internalType": "uint256",
          "name": "value",
          "type": "uint256"
        }
      ],
      "name": "Transfer",
      "type": "event"
    },
    {
      "anonymous": false,
      "inputs": [
        {
          "indexed": false,
          "internalType": "uint256",
          "name": "oldValue",
          "type": "uint256"
        },
        {
          "indexed": false,
          "internalType": "uint256",
          "name": "newValue",
          "type": "uint256"
        }
      ],
      "name": "UpdateAdminFee",
      "type": "event"
    },
    {
      "anonymous": false,
      "inputs": [
        {
          "indexed": false,
          "internalType": "address",
          "name": "oldValue",
          "type": "address"
        },
        {
          "indexed": false,
          "internalType": "address",
          "name": "newValue",
          "type": "address"
        }
      ],
      "name": "UpdateDevAddr",
      "type": "event"
    },
    {
      "anonymous": false,
      "inputs": [
        {
          "indexed": false,
          "internalType": "uint256",
          "name": "oldValue",
          "type": "uint256"
        },
        {
          "indexed": false,
          "internalType": "uint256",
          "name": "newValue",
          "type": "uint256"
        }
      ],
      "name": "UpdateDevFee",
      "type": "event"
    },
    {
      "anonymous": false,
      "inputs": [
        {
          "indexed": false,
          "internalType": "uint256",
          "name": "oldValue",
          "type": "uint256"
        },
        {
          "indexed": false,
          "internalType": "uint256",
          "name": "newValue",
          "type": "uint256"
        }
      ],
      "name": "UpdateMaxTokensToDepositWithoutReinvest",
      "type": "event"
    },
    {
      "anonymous": false,
      "inputs": [
        {
          "indexed": false,
          "internalType": "uint256",
          "name": "oldValue",
          "type": "uint256"
        },
        {
          "indexed": false,
          "internalType": "uint256",
          "name": "newValue",
          "type": "uint256"
        }
      ],
      "name": "UpdateMinTokensToReinvest",
      "type": "event"
    },
    {
      "anonymous": false,
      "inputs": [
        {
          "indexed": false,
          "internalType": "uint256",
          "name": "oldValue",
          "type": "uint256"
        },
        {
          "indexed": false,
          "internalType": "uint256",
          "name": "newValue",
          "type": "uint256"
        }
      ],
      "name": "UpdateReinvestReward",
      "type": "event"
    },
    {
      "anonymous": false,
      "inputs": [
        {
          "indexed": true,
          "internalType": "address",
          "name": "account",
          "type": "address"
        },
        {
          "indexed": false,
          "internalType": "uint256",
          "name": "amount",
          "type": "uint256"
        }
      ],
      "name": "Withdraw",
      "type": "event"
    },
    {
      "inputs": [],
      "name": "ADMIN_FEE_BIPS",
      "outputs": [
        {
          "internalType": "uint256",
          "name": "",
          "type": "uint256"
        }
      ],
      "stateMutability": "view",
      "type": "function"
    },
    {
      "inputs": [],
      "name": "DEPOSITS_ENABLED",
      "outputs": [
        {
          "internalType": "bool",
          "name": "",
          "type": "bool"
        }
      ],
      "stateMutability": "view",
      "type": "function"
    },
    {
      "inputs": [],
      "name": "DEV_FEE_BIPS",
      "outputs": [
        {
          "internalType": "uint256",
          "name": "",
          "type": "uint256"
        }
      ],
      "stateMutability": "view",
      "type": "function"
    },
    {
      "inputs": [],
      "name": "DOMAIN_TYPEHASH",
      "outputs": [
        {
          "internalType": "bytes32",
          "name": "",
          "type": "bytes32"
        }
      ],
      "stateMutability": "view",
      "type": "function"
    },
    {
      "inputs": [],
      "name": "MAX_TOKENS_TO_DEPOSIT_WITHOUT_REINVEST",
      "outputs": [
        {
          "internalType": "uint256",
          "name": "",
          "type": "uint256"
        }
      ],
      "stateMutability": "view",
      "type": "function"
    },
    {
      "inputs": [],
      "name": "MIN_TOKENS_TO_REINVEST",
      "outputs": [
        {
          "internalType": "uint256",
          "name": "",
          "type": "uint256"
        }
      ],
      "stateMutability": "view",
      "type": "function"
    },
    {
      "inputs": [],
      "name": "PERMIT_TYPEHASH",
      "outputs": [
        {
          "internalType": "bytes32",
          "name": "",
          "type": "bytes32"
        }
      ],
      "stateMutability": "view",
      "type": "function"
    },
    {
      "inputs": [],
      "name": "PID",
      "outputs": [
        {
          "internalType": "uint256",
          "name": "",
          "type": "uint256"
        }
      ],
      "stateMutability": "view",
      "type": "function"
    },
    {
      "inputs": [],
      "name": "REINVEST_REWARD_BIPS",
      "outputs": [
        {
          "internalType": "uint256",
          "name": "",
          "type": "uint256"
        }
      ],
      "stateMutability": "view",
      "type": "function"
    },
    {
      "inputs": [],
      "name": "VERSION_HASH",
      "outputs": [
        {
          "internalType": "bytes32",
          "name": "",
          "type": "bytes32"
        }
      ],
      "stateMutability": "view",
      "type": "function"
    },
    {
      "inputs": [
        {
          "internalType": "address",
          "name": "_rewardToken",
          "type": "address"
        },
        {
          "internalType": "address",
          "name": "_swapPair",
          "type": "address"
        }
      ],
      "name": "addReward",
      "outputs": [],
      "stateMutability": "nonpayable",
      "type": "function"
    },
    {
      "inputs": [
        {
          "internalType": "address",
          "name": "_rewardToken",
          "type": "address"
        },
        {
          "internalType": "address",
          "name": "_swapPair",
          "type": "address"
        },
        {
          "internalType": "uint256",
          "name": "_swapFee",
          "type": "uint256"
        }
      ],
      "name": "addReward",
      "outputs": [],
      "stateMutability": "nonpayable",
      "type": "function"
    },
    {
      "inputs": [
        {
          "internalType": "address",
          "name": "depositor",
          "type": "address"
        }
      ],
      "name": "allowDepositor",
      "outputs": [],
      "stateMutability": "nonpayable",
      "type": "function"
    },
    {
      "inputs": [
        {
          "internalType": "address",
          "name": "account",
          "type": "address"
        },
        {
          "internalType": "address",
          "name": "spender",
          "type": "address"
        }
      ],
      "name": "allowance",
      "outputs": [
        {
          "internalType": "uint256",
          "name": "",
          "type": "uint256"
        }
      ],
      "stateMutability": "view",
      "type": "function"
    },
    {
      "inputs": [
        {
          "internalType": "address",
          "name": "",
          "type": "address"
        }
      ],
      "name": "allowedDepositors",
      "outputs": [
        {
          "internalType": "bool",
          "name": "",
          "type": "bool"
        }
      ],
      "stateMutability": "view",
      "type": "function"
    },
    {
      "inputs": [
        {
          "internalType": "address",
          "name": "spender",
          "type": "address"
        },
        {
          "internalType": "uint256",
          "name": "amount",
          "type": "uint256"
        }
      ],
      "name": "approve",
      "outputs": [
        {
          "internalType": "bool",
          "name": "",
          "type": "bool"
        }
      ],
      "stateMutability": "nonpayable",
      "type": "function"
    },
    {
      "inputs": [
        {
          "internalType": "address",
          "name": "account",
          "type": "address"
        }
      ],
      "name": "balanceOf",
      "outputs": [
        {
          "internalType": "uint256",
          "name": "",
          "type": "uint256"
        }
      ],
      "stateMutability": "view",
      "type": "function"
    },
    {
      "inputs": [
        {
          "internalType": "uint256",
          "name": "_amount",
          "type": "uint256"
        }
      ],
      "name": "calculateDepositFee",
      "outputs": [
        {
          "internalType": "uint256",
          "name": "",
          "type": "uint256"
        }
      ],
      "stateMutability": "view",
      "type": "function"
    },
    {
      "inputs": [
        {
          "internalType": "uint256",
          "name": "_amount",
          "type": "uint256"
        }
      ],
      "name": "calculateWithdrawFee",
      "outputs": [
        {
          "internalType": "uint256",
          "name": "",
          "type": "uint256"
        }
      ],
      "stateMutability": "view",
      "type": "function"
    },
    {
      "inputs": [],
      "name": "checkReward",
      "outputs": [
        {
          "internalType": "uint256",
          "name": "",
          "type": "uint256"
        }
      ],
      "stateMutability": "view",
      "type": "function"
    },
    {
      "inputs": [],
      "name": "decimals",
      "outputs": [
        {
          "internalType": "uint8",
          "name": "",
          "type": "uint8"
        }
      ],
      "stateMutability": "view",
      "type": "function"
    },
    {
      "inputs": [
        {
          "internalType": "uint256",
          "name": "_amount",
          "type": "uint256"
        }
      ],
      "name": "deposit",
      "outputs": [],
      "stateMutability": "nonpayable",
      "type": "function"
    },
    {
      "inputs": [
        {
          "internalType": "address",
          "name": "_account",
          "type": "address"
        },
        {
          "internalType": "uint256",
          "name": "_amount",
          "type": "uint256"
        }
      ],
      "name": "depositFor",
      "outputs": [],
      "stateMutability": "nonpayable",
      "type": "function"
    },
    {
      "inputs": [],
      "name": "depositToken",
      "outputs": [
        {
          "internalType": "contract IERC20",
          "name": "",
          "type": "address"
        }
      ],
      "stateMutability": "view",
      "type": "function"
    },
    {
      "inputs": [
        {
          "internalType": "uint256",
          "name": "_amount",
          "type": "uint256"
        },
        {
          "internalType": "uint256",
          "name": "_deadline",
          "type": "uint256"
        },
        {
          "internalType": "uint8",
          "name": "_v",
          "type": "uint8"
        },
        {
          "internalType": "bytes32",
          "name": "_r",
          "type": "bytes32"
        },
        {
          "internalType": "bytes32",
          "name": "_s",
          "type": "bytes32"
        }
      ],
      "name": "depositWithPermit",
      "outputs": [],
      "stateMutability": "nonpayable",
      "type": "function"
    },
    {
      "inputs": [],
      "name": "devAddr",
      "outputs": [
        {
          "internalType": "address",
          "name": "",
          "type": "address"
        }
      ],
      "stateMutability": "view",
      "type": "function"
    },
    {
      "inputs": [],
      "name": "estimateDeployedBalance",
      "outputs": [
        {
          "internalType": "uint256",
          "name": "",
          "type": "uint256"
        }
      ],
      "stateMutability": "view",
      "type": "function"
    },
    {
      "inputs": [],
      "name": "estimateReinvestReward",
      "outputs": [
        {
          "internalType": "uint256",
          "name": "",
          "type": "uint256"
        }
      ],
      "stateMutability": "view",
      "type": "function"
    },
    {
      "inputs": [
        {
          "internalType": "uint256",
          "name": "amount",
          "type": "uint256"
        }
      ],
      "name": "getDepositTokensForShares",
      "outputs": [
        {
          "internalType": "uint256",
          "name": "",
          "type": "uint256"
        }
      ],
      "stateMutability": "view",
      "type": "function"
    },
    {
      "inputs": [],
      "name": "getDomainSeparator",
      "outputs": [
        {
          "internalType": "bytes32",
          "name": "",
          "type": "bytes32"
        }
      ],
      "stateMutability": "view",
      "type": "function"
    },
    {
      "inputs": [
        {
          "internalType": "uint256",
          "name": "amount",
          "type": "uint256"
        }
      ],
      "name": "getSharesForDepositTokens",
      "outputs": [
        {
          "internalType": "uint256",
          "name": "",
          "type": "uint256"
        }
      ],
      "stateMutability": "view",
      "type": "function"
    },
    {
      "inputs": [],
      "name": "miniChef",
      "outputs": [
        {
          "internalType": "contract IMiniChefV2",
          "name": "",
          "type": "address"
        }
      ],
      "stateMutability": "view",
      "type": "function"
    },
    {
      "inputs": [],
      "name": "name",
      "outputs": [
        {
          "internalType": "string",
          "name": "",
          "type": "string"
        }
      ],
      "stateMutability": "view",
      "type": "function"
    },
    {
      "inputs": [
        {
          "internalType": "address",
          "name": "",
          "type": "address"
        }
      ],
      "name": "nonces",
      "outputs": [
        {
          "internalType": "uint256",
          "name": "",
          "type": "uint256"
        }
      ],
      "stateMutability": "view",
      "type": "function"
    },
    {
      "inputs": [],
      "name": "numberOfAllowedDepositors",
      "outputs": [
        {
          "internalType": "uint256",
          "name": "",
          "type": "uint256"
        }
      ],
      "stateMutability": "view",
      "type": "function"
    },
    {
      "inputs": [],
      "name": "owner",
      "outputs": [
        {
          "internalType": "address",
          "name": "",
          "type": "address"
        }
      ],
      "stateMutability": "view",
      "type": "function"
    },
    {
      "inputs": [
        {
          "internalType": "address",
          "name": "owner",
          "type": "address"
        },
        {
          "internalType": "address",
          "name": "spender",
          "type": "address"
        },
        {
          "internalType": "uint256",
          "name": "value",
          "type": "uint256"
        },
        {
          "internalType": "uint256",
          "name": "deadline",
          "type": "uint256"
        },
        {
          "internalType": "uint8",
          "name": "v",
          "type": "uint8"
        },
        {
          "internalType": "bytes32",
          "name": "r",
          "type": "bytes32"
        },
        {
          "internalType": "bytes32",
          "name": "s",
          "type": "bytes32"
        }
      ],
      "name": "permit",
      "outputs": [],
      "stateMutability": "nonpayable",
      "type": "function"
    },
    {
      "inputs": [
        {
          "internalType": "uint256",
          "name": "amount",
          "type": "uint256"
        }
      ],
      "name": "recoverAVAX",
      "outputs": [],
      "stateMutability": "nonpayable",
      "type": "function"
    },
    {
      "inputs": [
        {
          "internalType": "address",
          "name": "tokenAddress",
          "type": "address"
        },
        {
          "internalType": "uint256",
          "name": "tokenAmount",
          "type": "uint256"
        }
      ],
      "name": "recoverERC20",
      "outputs": [],
      "stateMutability": "nonpayable",
      "type": "function"
    },
    {
      "inputs": [],
      "name": "reinvest",
      "outputs": [],
      "stateMutability": "nonpayable",
      "type": "function"
    },
    {
      "inputs": [
        {
          "internalType": "address",
          "name": "depositor",
          "type": "address"
        }
      ],
      "name": "removeDepositor",
      "outputs": [],
      "stateMutability": "nonpayable",
      "type": "function"
    },
    {
      "inputs": [
        {
          "internalType": "address",
          "name": "_rewardToken",
          "type": "address"
        }
      ],
      "name": "removeReward",
      "outputs": [],
      "stateMutability": "nonpayable",
      "type": "function"
    },
    {
      "inputs": [],
      "name": "renounceOwnership",
      "outputs": [],
      "stateMutability": "nonpayable",
      "type": "function"
    },
    {
      "inputs": [
        {
          "internalType": "uint256",
          "name": "_minReturnAmountAccepted",
          "type": "uint256"
        },
        {
          "internalType": "bool",
          "name": "",
          "type": "bool"
        }
      ],
      "name": "rescueDeployedFunds",
      "outputs": [],
      "stateMutability": "nonpayable",
      "type": "function"
    },
    {
      "inputs": [
        {
          "internalType": "address",
          "name": "token",
          "type": "address"
        },
        {
          "internalType": "address",
          "name": "spender",
          "type": "address"
        }
      ],
      "name": "revokeAllowance",
      "outputs": [],
      "stateMutability": "nonpayable",
      "type": "function"
    },
    {
      "inputs": [],
      "name": "rewardCount",
      "outputs": [
        {
          "internalType": "uint256",
          "name": "",
          "type": "uint256"
        }
      ],
      "stateMutability": "view",
      "type": "function"
    },
    {
      "inputs": [
        {
          "internalType": "address",
          "name": "",
          "type": "address"
        }
      ],
      "name": "rewardSwapPairs",
      "outputs": [
        {
          "internalType": "address",
          "name": "reward",
          "type": "address"
        },
        {
          "internalType": "address",
          "name": "swapPair",
          "type": "address"
        },
        {
          "internalType": "uint256",
          "name": "swapFee",
          "type": "uint256"
        }
      ],
      "stateMutability": "view",
      "type": "function"
    },
    {
      "inputs": [],
      "name": "rewardToken",
      "outputs": [
        {
          "internalType": "contract IERC20",
          "name": "",
          "type": "address"
        }
      ],
      "stateMutability": "view",
      "type": "function"
    },
    {
      "inputs": [
        {
          "internalType": "uint256",
          "name": "",
          "type": "uint256"
        }
      ],
      "name": "supportedRewards",
      "outputs": [
        {
          "internalType": "address",
          "name": "",
          "type": "address"
        }
      ],
      "stateMutability": "view",
      "type": "function"
    },
    {
      "inputs": [],
      "name": "swapPairSynapseTokenIn",
      "outputs": [
        {
          "internalType": "address",
          "name": "",
          "type": "address"
        }
      ],
      "stateMutability": "view",
      "type": "function"
    },
    {
      "inputs": [],
      "name": "symbol",
      "outputs": [
        {
          "internalType": "string",
          "name": "",
          "type": "string"
        }
      ],
      "stateMutability": "view",
      "type": "function"
    },
    {
      "inputs": [],
      "name": "synapseLpTokenCount",
      "outputs": [
        {
          "internalType": "uint256",
          "name": "",
          "type": "uint256"
        }
      ],
      "stateMutability": "view",
      "type": "function"
    },
    {
      "inputs": [],
      "name": "synapseLpTokenIn",
      "outputs": [
        {
          "internalType": "address",
          "name": "",
          "type": "address"
        }
      ],
      "stateMutability": "view",
      "type": "function"
    },
    {
      "inputs": [],
      "name": "synapseLpTokenIndex",
      "outputs": [
        {
          "internalType": "uint256",
          "name": "",
          "type": "uint256"
        }
      ],
      "stateMutability": "view",
      "type": "function"
    },
    {
      "inputs": [],
      "name": "synapseSwap",
      "outputs": [
        {
          "internalType": "contract ISynapseSwap",
          "name": "",
          "type": "address"
        }
      ],
      "stateMutability": "view",
      "type": "function"
    },
    {
      "inputs": [],
      "name": "totalDeposits",
      "outputs": [
        {
          "internalType": "uint256",
          "name": "",
          "type": "uint256"
        }
      ],
      "stateMutability": "view",
      "type": "function"
    },
    {
      "inputs": [],
      "name": "totalSupply",
      "outputs": [
        {
          "internalType": "uint256",
          "name": "",
          "type": "uint256"
        }
      ],
      "stateMutability": "view",
      "type": "function"
    },
    {
      "inputs": [
        {
          "internalType": "address",
          "name": "dst",
          "type": "address"
        },
        {
          "internalType": "uint256",
          "name": "amount",
          "type": "uint256"
        }
      ],
      "name": "transfer",
      "outputs": [
        {
          "internalType": "bool",
          "name": "",
          "type": "bool"
        }
      ],
      "stateMutability": "nonpayable",
      "type": "function"
    },
    {
      "inputs": [
        {
          "internalType": "address",
          "name": "src",
          "type": "address"
        },
        {
          "internalType": "address",
          "name": "dst",
          "type": "address"
        },
        {
          "internalType": "uint256",
          "name": "amount",
          "type": "uint256"
        }
      ],
      "name": "transferFrom",
      "outputs": [
        {
          "internalType": "bool",
          "name": "",
          "type": "bool"
        }
      ],
      "stateMutability": "nonpayable",
      "type": "function"
    },
    {
      "inputs": [
        {
          "internalType": "address",
          "name": "newOwner",
          "type": "address"
        }
      ],
      "name": "transferOwnership",
      "outputs": [],
      "stateMutability": "nonpayable",
      "type": "function"
    },
    {
      "inputs": [],
      "name": "uniV3Pool",
      "outputs": [
        {
          "internalType": "address",
          "name": "",
          "type": "address"
        }
      ],
      "stateMutability": "view",
      "type": "function"
    },
    {
      "inputs": [
        {
          "internalType": "int256",
          "name": "amount0Delta",
          "type": "int256"
        },
        {
          "internalType": "int256",
          "name": "amount1Delta",
          "type": "int256"
        },
        {
          "internalType": "bytes",
          "name": "",
          "type": "bytes"
        }
      ],
      "name": "uniswapV3SwapCallback",
      "outputs": [],
      "stateMutability": "nonpayable",
      "type": "function"
    },
    {
      "inputs": [
        {
          "internalType": "uint256",
          "name": "newValue",
          "type": "uint256"
        }
      ],
      "name": "updateAdminFee",
      "outputs": [],
      "stateMutability": "nonpayable",
      "type": "function"
    },
    {
      "inputs": [
        {
          "internalType": "bool",
          "name": "newValue",
          "type": "bool"
        }
      ],
      "name": "updateDepositsEnabled",
      "outputs": [],
      "stateMutability": "nonpayable",
      "type": "function"
    },
    {
      "inputs": [
        {
          "internalType": "address",
          "name": "newValue",
          "type": "address"
        }
      ],
      "name": "updateDevAddr",
      "outputs": [],
      "stateMutability": "nonpayable",
      "type": "function"
    },
    {
      "inputs": [
        {
          "internalType": "uint256",
          "name": "newValue",
          "type": "uint256"
        }
      ],
      "name": "updateDevFee",
      "outputs": [],
      "stateMutability": "nonpayable",
      "type": "function"
    },
    {
      "inputs": [
        {
          "internalType": "uint256",
          "name": "newValue",
          "type": "uint256"
        }
      ],
      "name": "updateMaxTokensToDepositWithoutReinvest",
      "outputs": [],
      "stateMutability": "nonpayable",
      "type": "function"
    },
    {
      "inputs": [
        {
          "internalType": "uint256",
          "name": "newValue",
          "type": "uint256"
        }
      ],
      "name": "updateMinTokensToReinvest",
      "outputs": [],
      "stateMutability": "nonpayable",
      "type": "function"
    },
    {
      "inputs": [
        {
          "internalType": "uint256",
          "name": "newValue",
          "type": "uint256"
        }
      ],
      "name": "updateReinvestReward",
      "outputs": [],
      "stateMutability": "nonpayable",
      "type": "function"
    },
    {
      "inputs": [
        {
          "internalType": "uint256",
          "name": "_amount",
          "type": "uint256"
        }
      ],
      "name": "withdraw",
      "outputs": [],
      "stateMutability": "nonpayable",
      "type": "function"
    }
  ],
  "transactionHash": "0x59aedf089af5591b7a0632330fa0f18152cdcf6d0648e3bbcc9835d9fa73286e",
  "args": [
    {
      "stakingContract": "0x73186f2Cf2493f20836b17b21ae79fc12934E207",
      "pid": "3",
      "uniV3Pool": "0xb7c9609cC9083E135d9315C355dB4334c07E7c2C",
      "swapPairSynapseTokenIn": "0x905dfcd5649217c42684f23958568e533c711aa3",
      "synapseLpTokenIn": "0xFF970A61A04b1cA14834A43f5dE4533eBDDB5CC8",
      "synapseSwap": "0x9Dd329F5411466d9e0C488fF72519CA9fEf0cb40",
      "synapseLpTokenCount": "3"
    },
    {
      "name": "Yield Yak: SYN nUSD-LP",
      "platformToken": "0x82aF49447D8a07e3bd95BD0d56f35241523fBab1",
      "rewardSwapPairs": [],
      "timelock": "0xDcEDF06Fd33E1D7b6eb4b309f779a0e9D3172e44"
    },
    {
      "depositToken": "0xcFd72be67Ee69A0dd7cF0f846Fc0D98C33d60F16",
      "rewardToken": "0x080F6AEd32Fc474DD5717105Dba5ea57268F46eb",
      "minTokensToReinvest": "100000000000",
      "devFeeBips": 700,
      "reinvestRewardBips": 300
    }
  ],
  "solcInputHash": "5ba317b921e9cecab7d5475ee0378a38",
  "bytecode": "0x6102806040526009610240819052685969656c642059616b60b81b6102609081526200002f916000919062000c1d565b506040805180820190915260038082526216549560ea1b60209092019182526200005c9160019162000c1d565b503480156200006a57600080fd5b50604051620062da380380620062da8339810160408190526200008d9162001003565b600680546001600160a01b03191633908117909155604051839183918291908190600090600080516020620062ba833981519152908290a35080516001600160a01b0390811660805260208201511660a0526040810151620000ef90620004c3565b6060810151620000ff906200054f565b60808101516200010f90620005fa565b5081518051620001289160009160209091019062000c1d565b5060208201516001600160a01b031660c052600980546001600160a01b03191673dcedf06fd33e1d7b6eb4b309f779a0e9d3172e4417905560005b8260400151518110156200020557620001f0836040015182815181106200018e576200018e620010e9565b60200260200101516000015184604001518381518110620001b357620001b3620010e9565b60200260200101516020015185604001518481518110620001d857620001d8620010e9565b602002602001015160400151620006a560201b60201c565b80620001fc8162001115565b91505062000163565b5062000212600162000851565b60608201516200022290620008fb565b60408051600080825260208201527fc7606d21ac05cd309191543e409f0845c016120563783d70e4f41419dc0ef234910160405180910390a1505082516001600160a01b03908116610160526020840151610140526040808501518216610180526060850151821661022052608085015182166101c081905260a08601519092166101a081905260c08601516102005290516319b02f4960e21b81526004810192909252906366c0bd2490602401602060405180830381865afa158015620002ee573d6000803e3d6000fd5b505050506040513d601f19601f8201168201806040525081019062000314919062001131565b60ff166101e081815250506000610180516001600160a01b0316630dfe16816040518163ffffffff1660e01b8152600401602060405180830381865afa15801562000363573d6000803e3d6000fd5b505050506040513d601f19601f820116820180604052508101906200038991906200115d565b90506000610180516001600160a01b031663d21220a76040518163ffffffff1660e01b8152600401602060405180830381865afa158015620003cf573d6000803e3d6000fd5b505050506040513d601f19601f82011682018060405250810190620003f591906200115d565b90506001600160a01b03821673080f6aed32fc474dd5717105dba5ea57268f46eb14806200043f57506001600160a01b03811673080f6aed32fc474dd5717105dba5ea57268f46eb145b620004855760405162461bcd60e51b8152602060048201526011602482015270125b98dbdb5c185d1a589b19481c1bdbdb607a1b60448201526064015b60405180910390fd5b6001610100526001600160a01b03811660e052620004aa6401000276a360016200117b565b6001600160a01b03166101205250620012009350505050565b6006546001600160a01b031633146200050e5760405162461bcd60e51b815260206004820181905260248201526000805160206200629a83398151915260448201526064016200047c565b600a5460408051918252602082018390527f481f79ac3a523b6d6db3c5a720e190e986d1cc1b41adcdf50f9caef849901100910160405180910390a1600a55565b6006546001600160a01b031633146200059a5760405162461bcd60e51b815260206004820181905260248201526000805160206200629a83398151915260448201526064016200047c565b612710600e5482620005ad9190620011a9565b1115620005b957600080fd5b600f5460408051918252602082018390527f2a42303d002f0ba6cfe8259c91d4684443fb0b3de286ba74991175d651726131910160405180910390a1600f55565b6006546001600160a01b03163314620006455760405162461bcd60e51b815260206004820181905260248201526000805160206200629a83398151915260448201526064016200047c565b612710600f5482620006589190620011a9565b11156200066457600080fd5b600e5460408051918252602082018390527fe7f97d51d307dc44045597c9978bec0f842e6bb40d19b9444084cfa30d9ed4f2910160405180910390a1600e55565b60a0516001600160a01b0316836001600160a01b0316146200075157620006db828460a051620009f860201b620026e21760201c565b62000751576040805162461bcd60e51b81526020600482015260248101919091527f5661726961626c655265776172647353747261746567793a3a5377617020706160448201527f697220646f6573206e6f7420636f6e7461696e2072657761726420746f6b656e60648201526084016200047c565b604080516060810182526001600160a01b03808616808352858216602080850191825284860187815260008481526010909252958120945185549085166001600160a01b03199182161786559151600180870180549290961691841691909117909455945160029094019390935560118054808401825594527f31ecc21a745e3968a04e9570e4425bc18fa8019c68028196b546d1669c200c68909301805490921690921790556012546200080691620011a9565b601255604080516001600160a01b038086168252841660208201527f916e172c080569186aa7ea048268267257cf7cc49505908863f747bca8620f80910160405180910390a1505050565b6006546001600160a01b031633146200089c5760405162461bcd60e51b815260206004820181905260248201526000805160206200629a83398151915260448201526064016200047c565b600c5481151560ff909116151503620008b457600080fd5b600c805460ff19168215159081179091556040519081527f7b014ed3854e7f5cb0218d58b3c6ae7d53a68bb0af2f67bfb029ea42c38a7e859060200160405180910390a150565b6006546001600160a01b03163314620009465760405162461bcd60e51b815260206004820181905260248201526000805160206200629a83398151915260448201526064016200047c565b6001600160a01b038116620009ad5760405162461bcd60e51b815260206004820152602660248201527f4f776e61626c653a206e6577206f776e657220697320746865207a65726f206160448201526564647265737360d01b60648201526084016200047c565b6006546040516001600160a01b03808416921690600080516020620062ba83398151915290600090a3600680546001600160a01b0319166001600160a01b0392909216919091179055565b6000836001600160a01b0316630dfe16816040518163ffffffff1660e01b8152600401602060405180830381865afa15801562000a39573d6000803e3d6000fd5b505050506040513d601f19601f8201168201806040525081019062000a5f91906200115d565b6001600160a01b0316836001600160a01b0316148062000af45750836001600160a01b031663d21220a76040518163ffffffff1660e01b8152600401602060405180830381865afa15801562000ab9573d6000803e3d6000fd5b505050506040513d601f19601f8201168201806040525081019062000adf91906200115d565b6001600160a01b0316836001600160a01b0316145b801562000bf65750836001600160a01b0316630dfe16816040518163ffffffff1660e01b8152600401602060405180830381865afa15801562000b3b573d6000803e3d6000fd5b505050506040513d601f19601f8201168201806040525081019062000b6191906200115d565b6001600160a01b0316826001600160a01b0316148062000bf65750836001600160a01b031663d21220a76040518163ffffffff1660e01b8152600401602060405180830381865afa15801562000bbb573d6000803e3d6000fd5b505050506040513d601f19601f8201168201806040525081019062000be191906200115d565b6001600160a01b0316826001600160a01b0316145b801562000c155750816001600160a01b0316836001600160a01b031614155b949350505050565b82805462000c2b90620011c4565b90600052602060002090601f01602090048101928262000c4f576000855562000c9a565b82601f1062000c6a57805160ff191683800117855562000c9a565b8280016001018555821562000c9a579182015b8281111562000c9a57825182559160200191906001019062000c7d565b5062000ca892915062000cac565b5090565b5b8082111562000ca8576000815560010162000cad565b634e487b7160e01b600052604160045260246000fd5b604051606081016001600160401b038111828210171562000cfe5762000cfe62000cc3565b60405290565b604051608081016001600160401b038111828210171562000cfe5762000cfe62000cc3565b60405160e081016001600160401b038111828210171562000cfe5762000cfe62000cc3565b604051601f8201601f191681016001600160401b038111828210171562000d795762000d7962000cc3565b604052919050565b80516001600160a01b038116811462000d9957600080fd5b919050565b600082601f83011262000db057600080fd5b815160206001600160401b0382111562000dce5762000dce62000cc3565b62000dde818360051b0162000d4e565b8281526060928302850182019282820191908785111562000dfe57600080fd5b8387015b8581101562000e5c5781818a03121562000e1c5760008081fd5b62000e2662000cd9565b62000e318262000d81565b815262000e4086830162000d81565b8187015260408281015190820152845292840192810162000e02565b5090979650505050505050565b60006080828403121562000e7c57600080fd5b62000e8662000d04565b82519091506001600160401b038082111562000ea157600080fd5b818401915084601f83011262000eb657600080fd5b81518181111562000ecb5762000ecb62000cc3565b602062000ee1601f8301601f1916820162000d4e565b828152878284870101111562000ef657600080fd5b60005b8381101562000f1657858101830151828201840152820162000ef9565b8381111562000f285760008385840101525b50855262000f3886820162000d81565b9085015250604084015191508082111562000f5257600080fd5b5062000f618482850162000d9e565b60408301525062000f756060830162000d81565b606082015292915050565b600060a0828403121562000f9357600080fd5b60405160a081016001600160401b038111828210171562000fb85762000fb862000cc3565b60405290508062000fc98362000d81565b815262000fd96020840162000d81565b60208201526040830151604082015260608301516060820152608083015160808201525092915050565b60008060008385036101a08112156200101b57600080fd5b60e08112156200102a57600080fd5b506200103562000d29565b620010408562000d81565b8152602085015160208201526200105a6040860162000d81565b60408201526200106d6060860162000d81565b6060820152620010806080860162000d81565b60808201526200109360a0860162000d81565b60a082015260c0858101519082015260e08501519093506001600160401b03811115620010bf57600080fd5b620010cd8682870162000e69565b925050620010e085610100860162000f80565b90509250925092565b634e487b7160e01b600052603260045260246000fd5b634e487b7160e01b600052601160045260246000fd5b6000600182016200112a576200112a620010ff565b5060010190565b6000602082840312156200114457600080fd5b815160ff811681146200115657600080fd5b9392505050565b6000602082840312156200117057600080fd5b620011568262000d81565b60006001600160a01b03828116848216808303821115620011a057620011a0620010ff565b01949350505050565b60008219821115620011bf57620011bf620010ff565b500190565b600181811c90821680620011d957607f821691505b602082108103620011fa57634e487b7160e01b600052602260045260246000fd5b50919050565b60805160a05160c05160e05161010051610120516101405161016051610180516101a0516101c0516101e0516102005161022051614e866200141460003960008181610624015261402a0152600081816105940152614109015260008181610948015261417001526000818161053301528181613f8b01528181614009015261409701526000818161047c0152818161406801526141da01526000818161072d015281816125db0152818161260a0152613ed90152600081816106540152818161131601528181612ba10152818161313c0152818161322d0152818161333201528181613b0a015281816142880152818161438001526143f9015260008181610706015281816112dd01528181612b6b01528181613201015281816132f801528181613ade015261434d01526000613e9c01526000818161262b01528181613e650152613f4d015260008181613fb50152613fe8015260008181611e3f01528181613c0f01528181613c3e0152613cb3015260008181610a9b01528181611dd001528181611e6901528181611ed30152818161204c0152818161266001528181612f5101528181612f8f015281816136ea0152818161374501528181613b6301528181613cdd0152613dbd01526000818161098801528181610d3b01528181610e6c01528181611b4401528181611bd901528181612e000152818161316b015281816142b701526144280152614e866000f3fe608060405234801561001057600080fd5b50600436106104725760003560e01c80638183723011610250578063b9e57b8011610150578063dd8ce4d6116100c8578063ed24911d11610097578063f7c618c11161007c578063f7c618c114610a96578063fa461e3314610abd578063fdb5a03e14610ad057600080fd5b8063ed24911d14610a7b578063f2fde38b14610a8357600080fd5b8063dd8ce4d614610a2f578063e21ac82514610a42578063e75ab04514610a55578063eab89a5a14610a6857600080fd5b8063cff1b6ef1161011f578063d505accf11610104578063d505accf146109d0578063da09c72c146109e3578063dd62ed3e146109f657600080fd5b8063cff1b6ef146109aa578063d0ed26ae146109bd57600080fd5b8063b9e57b801461096a578063bd079f5514610972578063c4b24a461461097b578063c89039c51461098357600080fd5b80639e4e7318116101e3578063a9059cbb116101b2578063b52a321f11610197578063b52a321f14610923578063b6b55f2514610930578063b8eafcad1461094357600080fd5b8063a9059cbb146108fd578063ac0d31ff1461091057600080fd5b80639e4e73181461084e578063a4d5e67c14610875578063a5534e7114610888578063a8ae2b7c146108ea57600080fd5b80638da5cb5b1161021f5780638da5cb5b1461080f5780639291d5631461082057806395d89b411461083357806399729ec11461083b57600080fd5b806381837230146107cd5780638980f11f146107e05780638aff733d146107f35780638b73e606146107fc57600080fd5b80633bdc6e72116103765780635eaec0e4116102ee578063789139bc116102bd5780637ae26773116102a25780637ae26773146107925780637d882097146107a55780637ecebe00146107ad57600080fd5b8063789139bc14610780578063790854251461078957600080fd5b80635eaec0e4146107015780636c83b3d71461072857806370a082311461074f578063715018a61461077857600080fd5b80634a970be7116103455780634e77ace51161032a5780634e77ace5146106d25780634ebb7916146106e55780635ea682ea146106f857600080fd5b80634a970be7146106ac5780634bebd1e7146106bf57600080fd5b80633bdc6e72146106465780634005760a1461064f57806340b47e1a14610676578063483c2ef01461068957600080fd5b806320606b70116104095780632e1a7d4d116103d857806330adf81f116103bd57806330adf81f146105de578063313ce56714610605578063395b0f911461061f57600080fd5b80632e1a7d4d146105b65780632f4f21e2146105cb57600080fd5b806320606b701461055557806323b872dd1461057c57806324203b431461058f578063247d284b1461051257600080fd5b80630f23475d116104455780630f23475d1461050a578063110560351461051257806318160ddd146105255780631b9b393c1461052e57600080fd5b806306f738d51461047757806306fdde03146104bb57806307677111146104d0578063095ea7b3146104e7575b600080fd5b61049e7f000000000000000000000000000000000000000000000000000000000000000081565b6040516001600160a01b0390911681526020015b60405180910390f35b6104c3610ad8565b6040516104b2919061481d565b6104d9600d5481565b6040519081526020016104b2565b6104fa6104f5366004614845565b610b66565b60405190151581526020016104b2565b6104d9610b7c565b6104d9610520366004614871565b610ba7565b6104d960025481565b61049e7f000000000000000000000000000000000000000000000000000000000000000081565b6104d97f8b73c3c69bb8fe3d512ecc4cf759cc79239f7b179b0ffacaa9a75d522b39400f81565b6104fa61058a36600461488a565b610bb8565b6104d97f000000000000000000000000000000000000000000000000000000000000000081565b6105c96105c4366004614871565b610c81565b005b6105c96105d9366004614845565b610da8565b6104d97f6e71edae12b1b97f4d1f60370fef10105fa2faae0126114a169c64845d6126c981565b61060d601281565b60405160ff90911681526020016104b2565b61049e7f000000000000000000000000000000000000000000000000000000000000000081565b6104d960075481565b61049e7f000000000000000000000000000000000000000000000000000000000000000081565b6105c96106843660046148cb565b610db6565b6104fa610697366004614904565b60086020526000908152604090205460ff1681565b6105c96106ba366004614937565b610e13565b6105c96106cd366004614904565b610ee1565b6105c96106e036600461498c565b610ffe565b6105c96106f3366004614871565b6110a5565b6104d9600f5481565b6104d97f000000000000000000000000000000000000000000000000000000000000000081565b61049e7f000000000000000000000000000000000000000000000000000000000000000081565b6104d961075d366004614904565b6001600160a01b031660009081526004602052604090205490565b6105c961115f565b6104d9600b5481565b6104d960125481565b6105c96107a03660046148cb565b6111f1565b6104d96112b5565b6104d96107bb366004614904565b60056020526000908152604090205481565b6105c96107db366004614871565b611387565b6105c96107ee366004614845565b611410565b6104d9600e5481565b6105c961080a366004614904565b6114c0565b6006546001600160a01b031661049e565b6105c961082e366004614904565b61167c565b6104c3611736565b6105c9610849366004614871565b611743565b6104d97fc89efdaa54c0f20c7adf612882df0950f5a951637e0307cdcb4c672f298b8bc681565b6105c9610883366004614904565b6117e8565b6108c4610896366004614904565b6010602052600090815260409020805460018201546002909201546001600160a01b03918216929091169083565b604080516001600160a01b039485168152939092166020840152908201526060016104b2565b6105c96108f8366004614871565b611a32565b6104fa61090b366004614845565b611ad7565b6105c961091e3660046149a9565b611ae4565b600c546104fa9060ff1681565b6105c961093e366004614871565b611d56565b6104d97f000000000000000000000000000000000000000000000000000000000000000081565b6104d9611d63565b6104d9600a5481565b6104d9611da2565b61049e7f000000000000000000000000000000000000000000000000000000000000000081565b6105c96109b8366004614871565b6120db565b6105c96109cb36600461488a565b61216f565b6105c96109de3660046149ce565b6121d0565b60095461049e906001600160a01b031681565b6104d9610a043660046148cb565b6001600160a01b03918216600090815260036020908152604080832093909416825291909152205490565b6104d9610a3d366004614871565b6122e3565b6105c9610a50366004614871565b612323565b61049e610a63366004614871565b6123ac565b6104d9610a76366004614871565b6123d6565b6104d9612410565b6105c9610a91366004614904565b6124b0565b61049e7f000000000000000000000000000000000000000000000000000000000000000081565b6105c9610acb366004614a3c565b6125d0565b6105c9612687565b60008054610ae590614abc565b80601f0160208091040260200160405190810160405280929190818152602001828054610b1190614abc565b8015610b5e5780601f10610b3357610100808354040283529160200191610b5e565b820191906000526020600020905b815481529060010190602001808311610b4157829003601f168201915b505050505081565b6000610b733384846128f7565b50600192915050565b600080610b876112b5565b90506000610b9482612a05565b9050610ba08183614b0c565b9250505090565b6000610bb282612a05565b92915050565b6001600160a01b038316600081815260036020908152604080832033808552925282205491929091908214801590610bf257506000198114155b15610c68576000610c038583614b0c565b6001600160a01b038881166000818152600360209081526040808320948916808452948252918290208590559051848152939450919290917f8c5be1e5ebec7d5bd14f71427d1e84f3dd0314c0f7b2291e5b200ac8c7c3b925910160405180910390a3505b610c73868686612a1f565b6001925050505b9392505050565b6000610c8c826123d6565b905060008111610d095760405162461bcd60e51b815260206004820152603060248201527f5661726961626c655265776172647353747261746567793a3a5769746864726160448201527f7720616d6f756e7420746f6f206c6f770000000000000000000000000000000060648201526084015b60405180910390fd5b6000610d1482612b43565b90506000610d2183612a05565b9050610d6233610d318385614b0c565b6001600160a01b037f0000000000000000000000000000000000000000000000000000000000000000169190612c0b565b610d6c3385612c8b565b60405183815233907f884edad9ce6fa2440d8a54cc123490eb96d2768479d49ff9c7366125a9424364906020015b60405180910390a250505050565b610db28282612d1f565b5050565b6009546001600160a01b03163314610e075760405162461bcd60e51b81526020600482015260146024820152732cb0b5a9ba3930ba32b3bc9d1d37b7363ca232bb60611b6044820152606401610d00565b610db28282601e612f4f565b6040517fd505accf000000000000000000000000000000000000000000000000000000008152336004820152306024820152604481018690526064810185905260ff8416608482015260a4810183905260c481018290527f00000000000000000000000000000000000000000000000000000000000000006001600160a01b03169063d505accf9060e401600060405180830381600087803b158015610eb857600080fd5b505af1158015610ecc573d6000803e3d6000fd5b50505050610eda3386612d1f565b5050505050565b6006546001600160a01b03163314610f295760405162461bcd60e51b81526020600482018190526024820152600080516020614e318339815191526044820152606401610d00565b6001600160a01b03811660009081526008602052604090205460ff1615610f925760405162461bcd60e51b815260206004820152601c60248201527f5065726d697373696f6e65643a3a616c6c6f774465706f7369746f72000000006044820152606401610d00565b6001600160a01b0381166000908152600860205260409020805460ff19166001908117909155600754610fc491614b23565b6007556040516001600160a01b038216907fc0a1035c16faf8d1304056d92c00edf028f87e62b8235a938f00af9e3c0312c590600090a250565b6006546001600160a01b031633146110465760405162461bcd60e51b81526020600482018190526024820152600080516020614e318339815191526044820152606401610d00565b600c5481151560ff90911615150361105d57600080fd5b600c805460ff19168215159081179091556040519081527f7b014ed3854e7f5cb0218d58b3c6ae7d53a68bb0af2f67bfb029ea42c38a7e85906020015b60405180910390a150565b6006546001600160a01b031633146110ed5760405162461bcd60e51b81526020600482018190526024820152600080516020614e318339815191526044820152606401610d00565b600081116110fa57600080fd5b604051339082156108fc029083906000818181858888f19350505050158015611127573d6000803e3d6000fd5b506040805160008152602081018390527f8c1256b8896378cd5044f80c202f9772b9d77dc85c8a6eb51967210b09bfaa28910161109a565b6006546001600160a01b031633146111a75760405162461bcd60e51b81526020600482018190526024820152600080516020614e318339815191526044820152606401610d00565b6006546040516000916001600160a01b0316907f8be0079c531659141344cd1fd0a4f28419497f9722a3daafe3b4186f6b6457e0908390a3600680546001600160a01b0319169055565b6006546001600160a01b031633146112395760405162461bcd60e51b81526020600482018190526024820152600080516020614e318339815191526044820152606401610d00565b60405163095ea7b360e01b81526001600160a01b0382811660048301526000602483015283169063095ea7b3906044016020604051808303816000875af1158015611288573d6000803e3d6000fd5b505050506040513d601f19601f820116820180604052508101906112ac9190614b3b565b610db257600080fd5b6040517f93f1a40b0000000000000000000000000000000000000000000000000000000081527f0000000000000000000000000000000000000000000000000000000000000000600482015230602482015260009081906001600160a01b037f000000000000000000000000000000000000000000000000000000000000000016906393f1a40b906044016040805180830381865afa15801561135c573d6000803e3d6000fd5b505050506040513d601f19601f820116820180604052508101906113809190614b58565b5092915050565b6006546001600160a01b031633146113cf5760405162461bcd60e51b81526020600482018190526024820152600080516020614e318339815191526044820152606401610d00565b600a5460408051918252602082018390527f481f79ac3a523b6d6db3c5a720e190e986d1cc1b41adcdf50f9caef849901100910160405180910390a1600a55565b6006546001600160a01b031633146114585760405162461bcd60e51b81526020600482018190526024820152600080516020614e318339815191526044820152606401610d00565b6000811161146557600080fd5b6114796001600160a01b0383163383612c0b565b604080516001600160a01b0384168152602081018390527f8c1256b8896378cd5044f80c202f9772b9d77dc85c8a6eb51967210b09bfaa2891015b60405180910390a15050565b6006546001600160a01b031633146115085760405162461bcd60e51b81526020600482018190526024820152600080516020614e318339815191526044820152606401610d00565b6000600754116115805760405162461bcd60e51b815260206004820152603460248201527f5065726d697373696f6e65643a3a72656d6f76654465706f7369746f722c206e60448201527f6f20616c6c6f776564206465706f7369746f72730000000000000000000000006064820152608401610d00565b6001600160a01b03811660009081526008602052604090205460ff1615156001146116135760405162461bcd60e51b815260206004820152602a60248201527f5065726d697373696f6e65643a3a72656d6f76654465706f7369746f722c206e60448201527f6f7420616c6c6f776564000000000000000000000000000000000000000000006064820152608401610d00565b6001600160a01b0381166000908152600860205260409020805460ff1916905560075461164290600190614b0c565b6007556040516001600160a01b038216907f0e86f6608b536e5339a25b65ff531f5ea91e1313d056ecd4752b35cbd16137d490600090a250565b6009546001600160a01b031633146116cd5760405162461bcd60e51b81526020600482015260146024820152732cb0b5a9ba3930ba32b3bc9d1d37b7363ca232bb60611b6044820152606401610d00565b600954604080516001600160a01b03928316815291831660208301527fa8e91499ed37682f43cffb045fcc7d379a91e8c9a14e6321877ee34dee564c00910160405180910390a1600980546001600160a01b0319166001600160a01b0392909216919091179055565b60018054610ae590614abc565b6006546001600160a01b0316331461178b5760405162461bcd60e51b81526020600482018190526024820152600080516020614e318339815191526044820152606401610d00565b612710600e548261179c9190614b23565b11156117a757600080fd5b600f5460408051918252602082018390527f2a42303d002f0ba6cfe8259c91d4684443fb0b3de286ba74991175d651726131910160405180910390a1600f55565b6009546001600160a01b031633146118395760405162461bcd60e51b81526020600482015260146024820152732cb0b5a9ba3930ba32b3bc9d1d37b7363ca232bb60611b6044820152606401610d00565b6001600160a01b038116600090815260106020526040812080546001600160a01b031990811682556001820180549091169055600201819055805b601154811015611940576011818154811061189157611891614b7c565b6000918252602090912001546001600160a01b039081169084160361192e5760118054600193506118c3908490614b0c565b815481106118d3576118d3614b7c565b600091825260209091200154601180546001600160a01b0390921691839081106118ff576118ff614b7c565b9060005260206000200160006101000a8154816001600160a01b0302191690836001600160a01b031602179055505b8061193881614b92565b915050611874565b50806119b45760405162461bcd60e51b815260206004820152603460248201527f5661726961626c655265776172647353747261746567793a3a5265776172642060448201527f746f2064656c657465206e6f7420666f756e64210000000000000000000000006064820152608401610d00565b60118054806119c5576119c5614bab565b600082815260209020810160001990810180546001600160a01b03191690550190556012546119f690600190614b0c565b6012556040516001600160a01b03831681527f963b7c735475147a62c589c2d7cb8ec4b0a6b7af4f97373d79ebfa42ab8aa7dc906020016114b4565b6006546001600160a01b03163314611a7a5760405162461bcd60e51b81526020600482018190526024820152600080516020614e318339815191526044820152606401610d00565b612710600f5482611a8b9190614b23565b1115611a9657600080fd5b600e5460408051918252602082018390527fe7f97d51d307dc44045597c9978bec0f842e6bb40d19b9444084cfa30d9ed4f2910160405180910390a1600e55565b6000610b73338484612a1f565b6006546001600160a01b03163314611b2c5760405162461bcd60e51b81526020600482018190526024820152600080516020614e318339815191526044820152606401610d00565b6040516370a0823160e01b81523060048201526000907f00000000000000000000000000000000000000000000000000000000000000006001600160a01b0316906370a0823190602401602060405180830381865afa158015611b93573d6000803e3d6000fd5b505050506040513d601f19601f82011682018060405250810190611bb79190614bc1565b9050611bc1613125565b6040516370a0823160e01b81523060048201526000907f00000000000000000000000000000000000000000000000000000000000000006001600160a01b0316906370a0823190602401602060405180830381865afa158015611c28573d6000803e3d6000fd5b505050506040513d601f19601f82011682018060405250810190611c4c9190614bc1565b905083611c598383614b0c565b1015611cf35760405162461bcd60e51b815260206004820152604d60248201527f5661726961626c655265776172647353747261746567793a3a456d657267656e60448201527f6379207769746864726177206d696e696d756d2072657475726e20616d6f756e60648201527f74206e6f74207265616368656400000000000000000000000000000000000000608482015260a401610d00565b7fc7606d21ac05cd309191543e409f0845c016120563783d70e4f41419dc0ef234611d1c6112b5565b6002546040805192835260208301919091520160405180910390a1600c5460ff161515600103611d5057611d506000610ffe565b50505050565b611d603382612d1f565b50565b600080611d6e611da2565b9050600a548110611d9a57612710600e5482611d8a9190614bda565b611d949190614bf9565b91505090565b600091505090565b600080611dad61328e565b6040516370a0823160e01b81523060048201529091506000906001600160a01b037f000000000000000000000000000000000000000000000000000000000000000016906370a0823190602401602060405180830381865afa158015611e17573d6000803e3d6000fd5b505050506040513d601f19601f82011682018060405250810190611e3b9190614bc1565b90507f00000000000000000000000000000000000000000000000000000000000000006001600160a01b03167f00000000000000000000000000000000000000000000000000000000000000006001600160a01b031603611ea357611ea04782614b23565b90505b60005b8251811015611380576000838281518110611ec357611ec3614b7c565b60200260200101516000015190507f00000000000000000000000000000000000000000000000000000000000000006001600160a01b0316816001600160a01b031603611f3a57838281518110611f1c57611f1c614b7c565b60200260200101516020015183611f339190614b23565b92506120c8565b6001600160a01b038116156120c8576040516370a0823160e01b81523060048201526000906001600160a01b038316906370a0823190602401602060405180830381865afa158015611f90573d6000803e3d6000fd5b505050506040513d601f19601f82011682018060405250810190611fb49190614bc1565b90506000858481518110611fca57611fca614b7c565b60200260200101516020015182611fe19190614b23565b9050600060106000888781518110611ffb57611ffb614b7c565b602090810291909101810151516001600160a01b0390811683529082019290925260400160002060010154169050811580159061204057506001600160a01b03811615155b156120c4576120b782857f000000000000000000000000000000000000000000000000000000000000000084601060008d8c8151811061208257612082614b7c565b6020026020010151600001516001600160a01b03166001600160a01b03168152602001908152602001600020600201546133f5565b6120c19087614b23565b95505b5050505b50806120d381614b92565b915050611ea6565b6006546001600160a01b031633146121235760405162461bcd60e51b81526020600482018190526024820152600080516020614e318339815191526044820152606401610d00565b801561212e57600080fd5b600d5460408051918252602082018390527f3cc372f330f95ac9540626dc8a25f5bf21ba607215a5d58304cb804d446f104a910160405180910390a1600d55565b6009546001600160a01b031633146121c05760405162461bcd60e51b81526020600482015260146024820152732cb0b5a9ba3930ba32b3bc9d1d37b7363ca232bb60611b6044820152606401610d00565b6121cb838383612f4f565b505050565b428410156122205760405162461bcd60e51b815260206004820152600f60248201527f7065726d69743a3a6578706972656400000000000000000000000000000000006044820152606401610d00565b6001600160a01b038716600090815260056020526040812080547f6e71edae12b1b97f4d1f60370fef10105fa2faae0126114a169c64845d6126c9918a918a918a91908661226d83614b92565b909155506040805160208101969096526001600160a01b0394851690860152929091166060840152608083015260a082015260c0810186905260e0016040516020818303038152906040528051906020012090506122ce88828686866134c3565b6122d98888886128f7565b5050505050505050565b6000600254600014806122fb57506122f96112b5565b155b15612304575090565b61230c6112b5565b6002546123199084614bda565b610bb29190614bf9565b6006546001600160a01b0316331461236b5760405162461bcd60e51b81526020600482018190526024820152600080516020614e318339815191526044820152606401610d00565b600b5460408051918252602082018390527fa5dae50539d56dfe1fb5273d883b0c39bc76750a25d036fc5fbd09ad8fd5f57f910160405180910390a1600b55565b601181815481106123bc57600080fd5b6000918252602090912001546001600160a01b0316905081565b6000600254600014806123ee57506123ec6112b5565b155b156123fb57506000919050565b6002546124066112b5565b6123199084614bda565b60007f8b73c3c69bb8fe3d512ecc4cf759cc79239f7b179b0ffacaa9a75d522b39400f60001b60006040516124459190614c1b565b6040519081900390207fc89efdaa54c0f20c7adf612882df0950f5a951637e0307cdcb4c672f298b8bc646604080516020810195909552840192909252606083015260808201523060a082015260c00160405160208183030381529060405280519060200120905090565b6006546001600160a01b031633146124f85760405162461bcd60e51b81526020600482018190526024820152600080516020614e318339815191526044820152606401610d00565b6001600160a01b0381166125745760405162461bcd60e51b815260206004820152602660248201527f4f776e61626c653a206e6577206f776e657220697320746865207a65726f206160448201527f64647265737300000000000000000000000000000000000000000000000000006064820152608401610d00565b6006546040516001600160a01b038084169216907f8be0079c531659141344cd1fd0a4f28419497f9722a3daafe3b4186f6b6457e090600090a3600680546001600160a01b0319166001600160a01b0392909216919091179055565b336001600160a01b037f0000000000000000000000000000000000000000000000000000000000000000161461260557600080fd5b611d507f00000000000000000000000000000000000000000000000000000000000000007f00000000000000000000000000000000000000000000000000000000000000006126545784612656565b855b6001600160a01b037f0000000000000000000000000000000000000000000000000000000000000000169190612c0b565b3233146126d65760405162461bcd60e51b815260206004820152601460248201527f59616b53747261746567793a3a6f6e6c79454f410000000000000000000000006044820152606401610d00565b6126e06000613623565b565b6000836001600160a01b0316630dfe16816040518163ffffffff1660e01b8152600401602060405180830381865afa158015612722573d6000803e3d6000fd5b505050506040513d601f19601f820116820180604052508101906127469190614cb6565b6001600160a01b0316836001600160a01b031614806127d75750836001600160a01b031663d21220a76040518163ffffffff1660e01b8152600401602060405180830381865afa15801561279e573d6000803e3d6000fd5b505050506040513d601f19601f820116820180604052508101906127c29190614cb6565b6001600160a01b0316836001600160a01b0316145b80156128d15750836001600160a01b0316630dfe16816040518163ffffffff1660e01b8152600401602060405180830381865afa15801561281c573d6000803e3d6000fd5b505050506040513d601f19601f820116820180604052508101906128409190614cb6565b6001600160a01b0316826001600160a01b031614806128d15750836001600160a01b031663d21220a76040518163ffffffff1660e01b8152600401602060405180830381865afa158015612898573d6000803e3d6000fd5b505050506040513d601f19601f820116820180604052508101906128bc9190614cb6565b6001600160a01b0316826001600160a01b0316145b80156128ef5750816001600160a01b0316836001600160a01b031614155b949350505050565b6001600160a01b03831661294d5760405162461bcd60e51b815260206004820152601c60248201527f5f617070726f76653a3a6f776e6572207a65726f2061646472657373000000006044820152606401610d00565b6001600160a01b0382166129a35760405162461bcd60e51b815260206004820152601e60248201527f5f617070726f76653a3a7370656e646572207a65726f206164647265737300006044820152606401610d00565b6001600160a01b0383811660008181526003602090815260408083209487168084529482529182902085905590518481527f8c5be1e5ebec7d5bd14f71427d1e84f3dd0314c0f7b2291e5b200ac8c7c3b92591015b60405180910390a3505050565b600080612710612a158285614bda565b610c7a9190614bf9565b6001600160a01b038216612a9b5760405162461bcd60e51b815260206004820152603460248201527f5f7472616e73666572546f6b656e733a2063616e6e6f74207472616e7366657260448201527f20746f20746865207a65726f20616464726573730000000000000000000000006064820152608401610d00565b6001600160a01b038316600090815260046020526040902054612abf908290614b0c565b6001600160a01b038085166000908152600460205260408082209390935590841681522054612aef908290614b23565b6001600160a01b0380841660008181526004602052604090819020939093559151908516907fddf252ad1be2c89b69c2b068fc378daa952ba7f163c4a11628f55a4df523b3ef906129f89085815260200190565b6040517f0ad58d2f0000000000000000000000000000000000000000000000000000000081527f00000000000000000000000000000000000000000000000000000000000000006004820152602481018290523060448201526000907f00000000000000000000000000000000000000000000000000000000000000006001600160a01b031690630ad58d2f90606401600060405180830381600087803b158015612bed57600080fd5b505af1158015612c01573d6000803e3d6000fd5b5093949350505050565b604080516001600160a01b038416602482015260448082018490528251808303909101815260649091019091526020810180517bffffffffffffffffffffffffffffffffffffffffffffffffffffffff167fa9059cbb000000000000000000000000000000000000000000000000000000001790526121cb9084906137f0565b6001600160a01b038216600090815260046020526040902054612caf908290614b0c565b6001600160a01b038316600090815260046020526040902055600254612cd6908290614b0c565b6002556040518181526000906001600160a01b038416907fddf252ad1be2c89b69c2b068fc378daa952ba7f163c4a11628f55a4df523b3ef906020015b60405180910390a35050565b600c5460ff161515600114612d9c5760405162461bcd60e51b815260206004820152602a60248201527f5661726961626c655265776172647353747261746567793a3a4465706f73697460448201527f732064697361626c6564000000000000000000000000000000000000000000006064820152608401610d00565b600b548015612dc5576000612daf611da2565b905081811115612dc357612dc36001613623565b505b6040517f23b872dd000000000000000000000000000000000000000000000000000000008152336004820152306024820152604481018390527f00000000000000000000000000000000000000000000000000000000000000006001600160a01b0316906323b872dd906064016020604051808303816000875af1158015612e51573d6000803e3d6000fd5b505050506040513d601f19601f82011682018060405250810190612e759190614b3b565b612ee75760405162461bcd60e51b815260206004820152603660248201527f5661726961626c655265776172647353747261746567793a3a4465706f73697460448201527f20746f6b656e207472616e73666572206661696c6564000000000000000000006064820152608401610d00565b6000612ef283612a05565b9050612f0a84612f05610a3d8487614b0c565b6138d5565b612f1483826139ab565b836001600160a01b03167fe1fffcc4923d04b559f4d29a8bfc6cda04eb5b0d3c460751c2402c5c5cc9109c84604051610d9a91815260200190565b7f00000000000000000000000000000000000000000000000000000000000000006001600160a01b0316836001600160a01b03161461302757612fb382847f00000000000000000000000000000000000000000000000000000000000000006126e2565b613027576040805162461bcd60e51b81526020600482015260248101919091527f5661726961626c655265776172647353747261746567793a3a5377617020706160448201527f697220646f6573206e6f7420636f6e7461696e2072657761726420746f6b656e6064820152608401610d00565b604080516060810182526001600160a01b03808616808352858216602080850191825284860187815260008481526010909252958120945185549085166001600160a01b03199182161786559151600180870180549290961691841691909117909455945160029094019390935560118054808401825594527f31ecc21a745e3968a04e9570e4425bc18fa8019c68028196b546d1669c200c68909301805490921690921790556012546130da91614b23565b601255604080516001600160a01b038086168252841660208201527f916e172c080569186aa7ea048268267257cf7cc49505908863f747bca8620f80910160405180910390a1505050565b60405163095ea7b360e01b81526001600160a01b037f000000000000000000000000000000000000000000000000000000000000000081166004830152600060248301527f0000000000000000000000000000000000000000000000000000000000000000169063095ea7b3906044016020604051808303816000875af11580156131b4573d6000803e3d6000fd5b505050506040513d601f19601f820116820180604052508101906131d89190614b3b565b506040517f2f940c700000000000000000000000000000000000000000000000000000000081527f000000000000000000000000000000000000000000000000000000000000000060048201523060248201527f00000000000000000000000000000000000000000000000000000000000000006001600160a01b031690632f940c70906044015b600060405180830381600087803b15801561327a57600080fd5b505af1158015611d50573d6000803e3d6000fd5b60408051600180825281830190925260609160009190816020015b60408051808201909152600080825260208201528152602001906001900390816132a9579050506040517f1491f6fe0000000000000000000000000000000000000000000000000000000081527f000000000000000000000000000000000000000000000000000000000000000060048201523060248201529091506000906001600160a01b037f00000000000000000000000000000000000000000000000000000000000000001690631491f6fe90604401602060405180830381865afa158015613379573d6000803e3d6000fd5b505050506040513d601f19601f8201168201806040525081019061339d9190614bc1565b9050604051806040016040528073080f6aed32fc474dd5717105dba5ea57268f46eb6001600160a01b0316815260200182815250826000815181106133e4576133e4614b7c565b602090810291909101015250919050565b6000806134028686613a2b565b509050600080856001600160a01b0316630902f1ac6040518163ffffffff1660e01b8152600401606060405180830381865afa158015613446573d6000803e3d6000fd5b505050506040513d601f19601f8201168201806040525081019061346a9190614d07565b5091509150876001600160a01b0316836001600160a01b03161461348a57905b6134b689836dffffffffffffffffffffffffffff16836dffffffffffffffffffffffffffff1688613a5c565b9998505050505050505050565b60006134cd612410565b6040517f1901000000000000000000000000000000000000000000000000000000000000602082015260228101919091526042810186905260620160408051601f198184030181528282528051602091820120600080855291840180845281905260ff88169284019290925260608301869052608083018590529092509060019060a0016020604051602081039080840390855afa158015613573573d6000803e3d6000fd5b5050604051601f1901519150506001600160a01b038116158015906135a95750866001600160a01b0316816001600160a01b0316145b61361a5760405162461bcd60e51b8152602060048201526024808201527f417263683a3a76616c69646174655369673a20696e76616c6964207369676e6160448201527f74757265000000000000000000000000000000000000000000000000000000006064820152608401610d00565b50505050505050565b61362b613ab6565b6000613635613b41565b9050816136b457600a548110156136b45760405162461bcd60e51b815260206004820152603060248201527f5661726961626c655265776172647353747261746567793a3a5265696e76657360448201527f7420616d6f756e7420746f6f206c6f77000000000000000000000000000000006064820152608401610d00565b6000612710600f54836136c79190614bda565b6136d19190614bf9565b9050801561371357600954613713906001600160a01b037f00000000000000000000000000000000000000000000000000000000000000008116911683612c0b565b6000612710600e54846137269190614bda565b6137309190614bf9565b9050801561376c5761376c6001600160a01b037f0000000000000000000000000000000000000000000000000000000000000000163383612c0b565b600061378b8261377c8587614b0c565b6137869190614b0c565b613e37565b9050600061379882612a05565b90506137a482826139ab565b7fc7606d21ac05cd309191543e409f0845c016120563783d70e4f41419dc0ef2346137cd6112b5565b6002546040805192835260208301919091520160405180910390a1505050505050565b6000613845826040518060400160405280602081526020017f5361666545524332303a206c6f772d6c6576656c2063616c6c206661696c6564815250856001600160a01b03166142629092919063ffffffff16565b8051909150156121cb57808060200190518101906138639190614b3b565b6121cb5760405162461bcd60e51b815260206004820152602a60248201527f5361666545524332303a204552433230206f7065726174696f6e20646964206e60448201527f6f742073756363656564000000000000000000000000000000000000000000006064820152608401610d00565b600081116139255760405162461bcd60e51b815260206004820152601260248201527f5f6d696e743a3a7a65726f2073686172657300000000000000000000000000006044820152606401610d00565b806002546139339190614b23565b6002556001600160a01b03821660009081526004602052604090205461395a908290614b23565b6001600160a01b0383166000818152600460205260408082209390935591519091907fddf252ad1be2c89b69c2b068fc378daa952ba7f163c4a11628f55a4df523b3ef90612d139085815260200190565b60008211613a215760405162461bcd60e51b815260206004820152602d60248201527f5661726961626c655265776172647353747261746567793a3a5374616b65206160448201527f6d6f756e7420746f6f206c6f77000000000000000000000000000000000000006064820152608401610d00565b610db28282614271565b600080826001600160a01b0316846001600160a01b031610613a4e578284613a51565b83835b915091509250929050565b600080613a6b83612710614b0c565b613a759087614bda565b90506000613a838583614bda565b9050600082613a9461271089614bda565b613a9e9190614b23565b9050613aaa8183614bf9565b98975050505050505050565b6040517f18fccc760000000000000000000000000000000000000000000000000000000081527f000000000000000000000000000000000000000000000000000000000000000060048201523060248201527f00000000000000000000000000000000000000000000000000000000000000006001600160a01b0316906318fccc7690604401613260565b6040516370a0823160e01b815230600482015260009081906001600160a01b037f000000000000000000000000000000000000000000000000000000000000000016906370a0823190602401602060405180830381865afa158015613baa573d6000803e3d6000fd5b505050506040513d601f19601f82011682018060405250810190613bce9190614bc1565b60115490915060005b81811015613e2f57600060118281548110613bf457613bf4614b7c565b6000918252602090912001546001600160a01b0390811691507f0000000000000000000000000000000000000000000000000000000000000000168103613d1f57478015613cb1577f00000000000000000000000000000000000000000000000000000000000000006001600160a01b031663d0e30db0826040518263ffffffff1660e01b81526004016000604051808303818588803b158015613c9757600080fd5b505af1158015613cab573d6000803e3d6000fd5b50505050505b7f00000000000000000000000000000000000000000000000000000000000000006001600160a01b03167f00000000000000000000000000000000000000000000000000000000000000006001600160a01b031603613d1d57613d148186614b23565b94505050613e1d565b505b6040516370a0823160e01b81523060048201526000906001600160a01b038316906370a0823190602401602060405180830381865afa158015613d66573d6000803e3d6000fd5b505050506040513d601f19601f82011682018060405250810190613d8a9190614bc1565b90508015613e1a576001600160a01b03808316600090815260106020526040902060010154168015613e1857613e0b82847f00000000000000000000000000000000000000000000000000000000000000008460106000896001600160a01b03166001600160a01b0316815260200190815260200160002060020154614497565b613e159087614b23565b95505b505b50505b80613e2781614b92565b915050613bd7565b509092915050565b6040517f128acb080000000000000000000000000000000000000000000000000000000081523060048201527f000000000000000000000000000000000000000000000000000000000000000015156024820152604481018290526001600160a01b037f00000000000000000000000000000000000000000000000000000000000000008116606483015260a06084830152600060a4830181905291829182917f00000000000000000000000000000000000000000000000000000000000000009091169063128acb089060c40160408051808303816000875af1158015613f23573d6000803e3d6000fd5b505050506040513d601f19601f82011682018060405250810190613f479190614b58565b915091507f0000000000000000000000000000000000000000000000000000000000000000613f7e57613f7982614d57565b613f87565b613f8781614d57565b93507f00000000000000000000000000000000000000000000000000000000000000006001600160a01b03167f00000000000000000000000000000000000000000000000000000000000000006001600160a01b0316146140515761404e847f00000000000000000000000000000000000000000000000000000000000000007f00000000000000000000000000000000000000000000000000000000000000007f0000000000000000000000000000000000000000000000000000000000000000614634565b93505b60405163095ea7b360e01b81526001600160a01b037f000000000000000000000000000000000000000000000000000000000000000081166004830152602482018690527f0000000000000000000000000000000000000000000000000000000000000000169063095ea7b3906044016020604051808303816000875af11580156140e0573d6000803e3d6000fd5b505050506040513d601f19601f820116820180604052508101906141049190614b3b565b5060007f000000000000000000000000000000000000000000000000000000000000000067ffffffffffffffff81111561414057614140614cd3565b604051908082528060200260200182016040528015614169578160200160208202803683370190505b50905084817f00000000000000000000000000000000000000000000000000000000000000008151811061419f5761419f614b7c565b60209081029190910101526040517f4d49e87d0000000000000000000000000000000000000000000000000000000081526001600160a01b037f00000000000000000000000000000000000000000000000000000000000000001690634d49e87d9061421690849060009060001990600401614d8f565b6020604051808303816000875af1158015614235573d6000803e3d6000fd5b505050506040513d601f19601f820116820180604052508101906142599190614bc1565b95945050505050565b60606128ef8484600085614644565b60405163095ea7b360e01b81526001600160a01b037f000000000000000000000000000000000000000000000000000000000000000081166004830152602482018490527f0000000000000000000000000000000000000000000000000000000000000000169063095ea7b3906044016020604051808303816000875af1158015614300573d6000803e3d6000fd5b505050506040513d601f19601f820116820180604052508101906143249190614b3b565b506040517f8dbdbe6d0000000000000000000000000000000000000000000000000000000081527f00000000000000000000000000000000000000000000000000000000000000006004820152602481018390523060448201527f00000000000000000000000000000000000000000000000000000000000000006001600160a01b031690638dbdbe6d90606401600060405180830381600087803b1580156143cc57600080fd5b505af11580156143e0573d6000803e3d6000fd5b505060405163095ea7b360e01b81526001600160a01b037f000000000000000000000000000000000000000000000000000000000000000081166004830152600060248301527f000000000000000000000000000000000000000000000000000000000000000016925063095ea7b391506044016020604051808303816000875af1158015614473573d6000803e3d6000fd5b505050506040513d601f19601f820116820180604052508101906121cb9190614b3b565b6000806144a48686613a2b565b509050600080856001600160a01b0316630902f1ac6040518163ffffffff1660e01b8152600401606060405180830381865afa1580156144e8573d6000803e3d6000fd5b505050506040513d601f19601f8201168201806040525081019061450c9190614d07565b5091509150876001600160a01b0316836001600160a01b03161461452c57905b60008061455b8b856dffffffffffffffffffffffffffff16856dffffffffffffffffffffffffffff168a613a5c565b9050896001600160a01b0316856001600160a01b03161461457857905b61458c6001600160a01b038b16898d612c0b565b604080516000815260208101918290527f022c0d9f000000000000000000000000000000000000000000000000000000009091526001600160a01b0389169063022c0d9f906145e49085908590309060248101614ddc565b600060405180830381600087803b1580156145fe57600080fd5b505af1158015614612573d6000803e3d6000fd5b505050508181116146235781614625565b805b9b9a5050505050505050505050565b600061425985858585601e614497565b6060824710156146bc5760405162461bcd60e51b815260206004820152602660248201527f416464726573733a20696e73756666696369656e742062616c616e636520666f60448201527f722063616c6c00000000000000000000000000000000000000000000000000006064820152608401610d00565b6001600160a01b0385163b6147135760405162461bcd60e51b815260206004820152601d60248201527f416464726573733a2063616c6c20746f206e6f6e2d636f6e74726163740000006044820152606401610d00565b600080866001600160a01b0316858760405161472f9190614e14565b60006040518083038185875af1925050503d806000811461476c576040519150601f19603f3d011682016040523d82523d6000602084013e614771565b606091505b509150915061478182828661478c565b979650505050505050565b6060831561479b575081610c7a565b8251156147ab5782518084602001fd5b8160405162461bcd60e51b8152600401610d00919061481d565b60005b838110156147e05781810151838201526020016147c8565b83811115611d505750506000910152565b600081518084526148098160208601602086016147c5565b601f01601f19169290920160200192915050565b602081526000610c7a60208301846147f1565b6001600160a01b0381168114611d6057600080fd5b6000806040838503121561485857600080fd5b823561486381614830565b946020939093013593505050565b60006020828403121561488357600080fd5b5035919050565b60008060006060848603121561489f57600080fd5b83356148aa81614830565b925060208401356148ba81614830565b929592945050506040919091013590565b600080604083850312156148de57600080fd5b82356148e981614830565b915060208301356148f981614830565b809150509250929050565b60006020828403121561491657600080fd5b8135610c7a81614830565b803560ff8116811461493257600080fd5b919050565b600080600080600060a0868803121561494f57600080fd5b853594506020860135935061496660408701614921565b94979396509394606081013594506080013592915050565b8015158114611d6057600080fd5b60006020828403121561499e57600080fd5b8135610c7a8161497e565b600080604083850312156149bc57600080fd5b8235915060208301356148f98161497e565b600080600080600080600060e0888a0312156149e957600080fd5b87356149f481614830565b96506020880135614a0481614830565b95506040880135945060608801359350614a2060808901614921565b925060a0880135915060c0880135905092959891949750929550565b60008060008060608587031215614a5257600080fd5b8435935060208501359250604085013567ffffffffffffffff80821115614a7857600080fd5b818701915087601f830112614a8c57600080fd5b813581811115614a9b57600080fd5b886020828501011115614aad57600080fd5b95989497505060200194505050565b600181811c90821680614ad057607f821691505b602082108103614af057634e487b7160e01b600052602260045260246000fd5b50919050565b634e487b7160e01b600052601160045260246000fd5b600082821015614b1e57614b1e614af6565b500390565b60008219821115614b3657614b36614af6565b500190565b600060208284031215614b4d57600080fd5b8151610c7a8161497e565b60008060408385031215614b6b57600080fd5b505080516020909101519092909150565b634e487b7160e01b600052603260045260246000fd5b600060018201614ba457614ba4614af6565b5060010190565b634e487b7160e01b600052603160045260246000fd5b600060208284031215614bd357600080fd5b5051919050565b6000816000190483118215151615614bf457614bf4614af6565b500290565b600082614c1657634e487b7160e01b600052601260045260246000fd5b500490565b600080835481600182811c915080831680614c3757607f831692505b60208084108203614c5657634e487b7160e01b86526022600452602486fd5b818015614c6a5760018114614c7b57614ca8565b60ff19861689528489019650614ca8565b60008a81526020902060005b86811015614ca05781548b820152908501908301614c87565b505084890196505b509498975050505050505050565b600060208284031215614cc857600080fd5b8151610c7a81614830565b634e487b7160e01b600052604160045260246000fd5b80516dffffffffffffffffffffffffffff8116811461493257600080fd5b600080600060608486031215614d1c57600080fd5b614d2584614ce9565b9250614d3360208501614ce9565b9150604084015163ffffffff81168114614d4c57600080fd5b809150509250925092565b60007f80000000000000000000000000000000000000000000000000000000000000008203614d8857614d88614af6565b5060000390565b606080825284519082018190526000906020906080840190828801845b82811015614dc857815184529284019290840190600101614dac565b505050908301949094525060400152919050565b8481528360208201526001600160a01b0383166040820152608060608201526000614e0a60808301846147f1565b9695505050505050565b60008251614e268184602087016147c5565b919091019291505056fe4f776e61626c653a2063616c6c6572206973206e6f7420746865206f776e6572a26469706673582212200042900a715d50697e6555659b39402fa4adbe783d5ded32ecb0a127538a667364736f6c634300080d00334f776e61626c653a2063616c6c6572206973206e6f7420746865206f776e65728be0079c531659141344cd1fd0a4f28419497f9722a3daafe3b4186f6b6457e0",
  "devdoc": {
    "kind": "dev",
    "methods": {
      "allowDepositor(address)": {
        "params": {
          "depositor": "address"
        }
      },
      "allowance(address,address)": {
        "params": {
          "account": "The address of the account holding the funds",
          "spender": "The address of the account spending the funds"
        },
        "returns": {
          "_0": "The number of tokens approved"
        }
      },
      "approve(address,uint256)": {
        "details": "This will overwrite the approval amount for `spender` and is subject to issues noted [here](https://eips.ethereum.org/EIPS/eip-20#approve) It is recommended to use increaseAllowance and decreaseAllowance instead",
        "params": {
          "amount": "The number of tokens that are approved (2^256-1 means infinite)",
          "spender": "The address of the account which may transfer tokens"
        },
        "returns": {
          "_0": "Whether or not the approval succeeded"
        }
      },
      "balanceOf(address)": {
        "params": {
          "account": "The address of the account to get the balance of"
        },
        "returns": {
          "_0": "The number of tokens held"
        }
      },
      "checkReward()": {
        "returns": {
          "_0": "reward tokens"
        }
      },
      "deposit(uint256)": {
        "params": {
          "_amount": "Amount of tokens to deposit"
        }
      },
      "depositWithPermit(uint256,uint256,uint8,bytes32,bytes32)": {
        "params": {
          "_amount": "Amount of tokens to deposit",
          "_deadline": "The time at which to expire the signature",
          "_r": "Half of the ECDSA signature pair",
          "_s": "Half of the ECDSA signature pair",
          "_v": "The recovery byte of the signature"
        }
      },
      "estimateDeployedBalance()": {
        "returns": {
          "_0": "deposit tokens after withdraw fee"
        }
      },
      "estimateReinvestReward()": {
        "returns": {
          "_0": "reward tokens"
        }
      },
      "getDepositTokensForShares(uint256)": {
        "params": {
          "amount": "receipt tokens"
        },
        "returns": {
          "_0": "deposit tokens"
        }
      },
      "getDomainSeparator()": {
        "returns": {
          "_0": "Separator"
        }
      },
      "getSharesForDepositTokens(uint256)": {
        "details": "If contract is empty, use 1:1 ratioCould return zero shares for very low amounts of deposit tokens",
        "params": {
          "amount": "deposit tokens"
        },
        "returns": {
          "_0": "receipt tokens"
        }
      },
      "owner()": {
        "details": "Returns the address of the current owner."
      },
      "permit(address,address,uint256,uint256,uint8,bytes32,bytes32)": {
        "params": {
          "deadline": "The time at which to expire the signature",
          "owner": "The address to approve from",
          "r": "Half of the ECDSA signature pair",
          "s": "Half of the ECDSA signature pair",
          "spender": "The address to be approved",
          "v": "The recovery byte of the signature",
          "value": "The number of tokens that are approved (2^256-1 means infinite)"
        }
      },
      "recoverAVAX(uint256)": {
        "params": {
          "amount": "amount"
        }
      },
      "recoverERC20(address,uint256)": {
        "params": {
          "tokenAddress": "token address",
          "tokenAmount": "amount to recover"
        }
      },
      "removeDepositor(address)": {
        "params": {
          "depositor": "address"
        }
      },
      "renounceOwnership()": {
        "details": "Leaves the contract without owner. It will not be possible to call `onlyOwner` functions anymore. Can only be called by the current owner. NOTE: Renouncing ownership will leave the contract without an owner, thereby removing any functionality that is only available to the owner."
      },
      "revokeAllowance(address,address)": {
        "params": {
          "spender": "address",
          "token": "address"
        }
      },
      "totalDeposits()": {
        "returns": {
          "_0": "total deposits available on the contract"
        }
      },
      "transfer(address,uint256)": {
        "params": {
          "amount": "The number of tokens to transfer",
          "dst": "The address of the destination account"
        },
        "returns": {
          "_0": "Whether or not the transfer succeeded"
        }
      },
      "transferFrom(address,address,uint256)": {
        "params": {
          "amount": "The number of tokens to transfer",
          "dst": "The address of the destination account",
          "src": "The address of the source account"
        },
        "returns": {
          "_0": "Whether or not the transfer succeeded"
        }
      },
      "transferOwnership(address)": {
        "details": "Transfers ownership of the contract to a new account (`newOwner`). Can only be called by the current owner."
      },
      "updateAdminFee(uint256)": {
        "details": "Deprecated; Kept for compatibility",
        "params": {
          "newValue": "fee in BIPS; required to be 0"
        }
      },
      "updateDepositsEnabled(bool)": {
        "params": {
          "newValue": "bool"
        }
      },
      "updateDevAddr(address)": {
        "params": {
          "newValue": "address"
        }
      },
      "updateDevFee(uint256)": {
        "params": {
          "newValue": "fee in BIPS"
        }
      },
      "updateMaxTokensToDepositWithoutReinvest(uint256)": {
        "params": {
          "newValue": "threshold"
        }
      },
      "updateMinTokensToReinvest(uint256)": {
        "params": {
          "newValue": "threshold"
        }
      },
      "updateReinvestReward(uint256)": {
        "params": {
          "newValue": "fee in BIPS"
        }
      }
    },
    "version": 1
  },
  "userdoc": {
    "kind": "user",
    "methods": {
      "allowDepositor(address)": {
        "notice": "Add an allowed depositor"
      },
      "allowance(address,address)": {
        "notice": "Get the number of tokens `spender` is approved to spend on behalf of `account`"
      },
      "approve(address,uint256)": {
        "notice": "Approve `spender` to transfer up to `amount` from `src`"
      },
      "balanceOf(address)": {
        "notice": "Get the number of tokens held by the `account`"
      },
      "checkReward()": {
        "notice": "Reward tokens available to strategy, including balance"
      },
      "deposit(uint256)": {
        "notice": "Deposit tokens to receive receipt tokens"
      },
      "depositWithPermit(uint256,uint256,uint8,bytes32,bytes32)": {
        "notice": "Deposit using Permit"
      },
      "estimateDeployedBalance()": {
        "notice": "Estimate recoverable balance after withdraw fee"
      },
      "estimateReinvestReward()": {
        "notice": "Estimate reinvest reward"
      },
      "getDepositTokensForShares(uint256)": {
        "notice": "Calculate deposit tokens for a given amount of receipt tokens"
      },
      "getDomainSeparator()": {
        "notice": "EIP-712 Domain separator"
      },
      "getSharesForDepositTokens(uint256)": {
        "notice": "Calculate receipt tokens for a given amount of deposit tokens"
      },
      "permit(address,address,uint256,uint256,uint8,bytes32,bytes32)": {
        "notice": "Triggers an approval from owner to spender"
      },
      "recoverAVAX(uint256)": {
        "notice": "Recover AVAX from contract"
      },
      "recoverERC20(address,uint256)": {
        "notice": "Recover ERC20 from contract"
      },
      "reinvest()": {
        "notice": "Reinvest reward tokens into deposit tokens"
      },
      "removeDepositor(address)": {
        "notice": "Remove an allowed depositor"
      },
      "revokeAllowance(address,address)": {
        "notice": "Revoke token allowance"
      },
      "totalDeposits()": {
        "notice": "This function returns a snapshot of last available quotes"
      },
      "transfer(address,uint256)": {
        "notice": "Transfer `amount` tokens from `msg.sender` to `dst`"
      },
      "transferFrom(address,address,uint256)": {
        "notice": "Transfer `amount` tokens from `src` to `dst`"
      },
      "updateAdminFee(uint256)": {
        "notice": "Update admin fee"
      },
      "updateDepositsEnabled(bool)": {
        "notice": "Enable/disable deposits"
      },
      "updateDevAddr(address)": {
        "notice": "Update devAddr"
      },
      "updateDevFee(uint256)": {
        "notice": "Update developer fee"
      },
      "updateMaxTokensToDepositWithoutReinvest(uint256)": {
        "notice": "Update reinvest max threshold before a deposit"
      },
      "updateMinTokensToReinvest(uint256)": {
        "notice": "Update reinvest min threshold"
      },
      "updateReinvestReward(uint256)": {
        "notice": "Update reinvest reward"
      }
    },
    "version": 1
  },
  "storageLayout": {
    "storage": [
      {
        "astId": 552,
        "contract": "contracts/strategies/arbitrum/synapse/SynapseStrategyV2.sol:SynapseStrategyV2",
        "label": "name",
        "offset": 0,
        "slot": "0",
        "type": "t_string_storage"
      },
      {
        "astId": 555,
        "contract": "contracts/strategies/arbitrum/synapse/SynapseStrategyV2.sol:SynapseStrategyV2",
        "label": "symbol",
        "offset": 0,
        "slot": "1",
        "type": "t_string_storage"
      },
      {
        "astId": 560,
        "contract": "contracts/strategies/arbitrum/synapse/SynapseStrategyV2.sol:SynapseStrategyV2",
        "label": "totalSupply",
        "offset": 0,
        "slot": "2",
        "type": "t_uint256"
      },
      {
        "astId": 566,
        "contract": "contracts/strategies/arbitrum/synapse/SynapseStrategyV2.sol:SynapseStrategyV2",
        "label": "allowances",
        "offset": 0,
        "slot": "3",
        "type": "t_mapping(t_address,t_mapping(t_address,t_uint256))"
      },
      {
        "astId": 570,
        "contract": "contracts/strategies/arbitrum/synapse/SynapseStrategyV2.sol:SynapseStrategyV2",
        "label": "balances",
        "offset": 0,
        "slot": "4",
        "type": "t_mapping(t_address,t_uint256)"
      },
      {
        "astId": 586,
        "contract": "contracts/strategies/arbitrum/synapse/SynapseStrategyV2.sol:SynapseStrategyV2",
        "label": "nonces",
        "offset": 0,
        "slot": "5",
        "type": "t_mapping(t_address,t_uint256)"
      },
      {
        "astId": 8327,
        "contract": "contracts/strategies/arbitrum/synapse/SynapseStrategyV2.sol:SynapseStrategyV2",
        "label": "_owner",
        "offset": 0,
        "slot": "6",
        "type": "t_address"
      },
      {
        "astId": 8436,
        "contract": "contracts/strategies/arbitrum/synapse/SynapseStrategyV2.sol:SynapseStrategyV2",
        "label": "numberOfAllowedDepositors",
        "offset": 0,
        "slot": "7",
        "type": "t_uint256"
      },
      {
        "astId": 8440,
        "contract": "contracts/strategies/arbitrum/synapse/SynapseStrategyV2.sol:SynapseStrategyV2",
        "label": "allowedDepositors",
        "offset": 0,
        "slot": "8",
        "type": "t_mapping(t_address,t_bool)"
      },
      {
        "astId": 1967,
        "contract": "contracts/strategies/arbitrum/synapse/SynapseStrategyV2.sol:SynapseStrategyV2",
        "label": "devAddr",
        "offset": 0,
        "slot": "9",
        "type": "t_address"
      },
      {
        "astId": 1969,
        "contract": "contracts/strategies/arbitrum/synapse/SynapseStrategyV2.sol:SynapseStrategyV2",
        "label": "MIN_TOKENS_TO_REINVEST",
        "offset": 0,
        "slot": "10",
        "type": "t_uint256"
      },
      {
        "astId": 1971,
        "contract": "contracts/strategies/arbitrum/synapse/SynapseStrategyV2.sol:SynapseStrategyV2",
        "label": "MAX_TOKENS_TO_DEPOSIT_WITHOUT_REINVEST",
        "offset": 0,
        "slot": "11",
        "type": "t_uint256"
      },
      {
        "astId": 1973,
        "contract": "contracts/strategies/arbitrum/synapse/SynapseStrategyV2.sol:SynapseStrategyV2",
        "label": "DEPOSITS_ENABLED",
        "offset": 0,
        "slot": "12",
        "type": "t_bool"
      },
      {
        "astId": 1975,
        "contract": "contracts/strategies/arbitrum/synapse/SynapseStrategyV2.sol:SynapseStrategyV2",
        "label": "ADMIN_FEE_BIPS",
        "offset": 0,
        "slot": "13",
        "type": "t_uint256"
      },
      {
        "astId": 1977,
        "contract": "contracts/strategies/arbitrum/synapse/SynapseStrategyV2.sol:SynapseStrategyV2",
        "label": "REINVEST_REWARD_BIPS",
        "offset": 0,
        "slot": "14",
        "type": "t_uint256"
      },
      {
        "astId": 1979,
        "contract": "contracts/strategies/arbitrum/synapse/SynapseStrategyV2.sol:SynapseStrategyV2",
        "label": "DEV_FEE_BIPS",
        "offset": 0,
        "slot": "15",
        "type": "t_uint256"
      },
      {
        "astId": 12191,
        "contract": "contracts/strategies/arbitrum/synapse/SynapseStrategyV2.sol:SynapseStrategyV2",
        "label": "rewardSwapPairs",
        "offset": 0,
        "slot": "16",
        "type": "t_mapping(t_address,t_struct(RewardSwapPair)12186_storage)"
      },
      {
        "astId": 12194,
        "contract": "contracts/strategies/arbitrum/synapse/SynapseStrategyV2.sol:SynapseStrategyV2",
        "label": "supportedRewards",
        "offset": 0,
        "slot": "17",
        "type": "t_array(t_address)dyn_storage"
      },
      {
        "astId": 12196,
        "contract": "contracts/strategies/arbitrum/synapse/SynapseStrategyV2.sol:SynapseStrategyV2",
        "label": "rewardCount",
        "offset": 0,
        "slot": "18",
        "type": "t_uint256"
      }
    ],
    "types": {
      "t_address": {
        "encoding": "inplace",
        "label": "address",
        "numberOfBytes": "20"
      },
      "t_array(t_address)dyn_storage": {
        "base": "t_address",
        "encoding": "dynamic_array",
        "label": "address[]",
        "numberOfBytes": "32"
      },
      "t_bool": {
        "encoding": "inplace",
        "label": "bool",
        "numberOfBytes": "1"
      },
      "t_mapping(t_address,t_bool)": {
        "encoding": "mapping",
        "key": "t_address",
        "label": "mapping(address => bool)",
        "numberOfBytes": "32",
        "value": "t_bool"
      },
      "t_mapping(t_address,t_mapping(t_address,t_uint256))": {
        "encoding": "mapping",
        "key": "t_address",
        "label": "mapping(address => mapping(address => uint256))",
        "numberOfBytes": "32",
        "value": "t_mapping(t_address,t_uint256)"
      },
      "t_mapping(t_address,t_struct(RewardSwapPair)12186_storage)": {
        "encoding": "mapping",
        "key": "t_address",
        "label": "mapping(address => struct VariableRewardsStrategy.RewardSwapPair)",
        "numberOfBytes": "32",
        "value": "t_struct(RewardSwapPair)12186_storage"
      },
      "t_mapping(t_address,t_uint256)": {
        "encoding": "mapping",
        "key": "t_address",
        "label": "mapping(address => uint256)",
        "numberOfBytes": "32",
        "value": "t_uint256"
      },
      "t_string_storage": {
        "encoding": "bytes",
        "label": "string",
        "numberOfBytes": "32"
      },
      "t_struct(RewardSwapPair)12186_storage": {
        "encoding": "inplace",
        "label": "struct VariableRewardsStrategy.RewardSwapPair",
        "members": [
          {
            "astId": 12181,
            "contract": "contracts/strategies/arbitrum/synapse/SynapseStrategyV2.sol:SynapseStrategyV2",
            "label": "reward",
            "offset": 0,
            "slot": "0",
            "type": "t_address"
          },
          {
            "astId": 12183,
            "contract": "contracts/strategies/arbitrum/synapse/SynapseStrategyV2.sol:SynapseStrategyV2",
            "label": "swapPair",
            "offset": 0,
            "slot": "1",
            "type": "t_address"
          },
          {
            "astId": 12185,
            "contract": "contracts/strategies/arbitrum/synapse/SynapseStrategyV2.sol:SynapseStrategyV2",
            "label": "swapFee",
            "offset": 0,
            "slot": "2",
            "type": "t_uint256"
          }
        ],
        "numberOfBytes": "96"
      },
      "t_uint256": {
        "encoding": "inplace",
        "label": "uint256",
        "numberOfBytes": "32"
      }
    }
  }
}