{
  "address": "0xE242B332B028F48b4f816E6C5cD0c95eEE2A3F7D",
  "abi": [
    {
      "inputs": [
        {
          "components": [
            {
              "internalType": "address",
              "name": "stakingContract",
              "type": "address"
            },
            {
              "internalType": "uint256",
              "name": "pid",
              "type": "uint256"
            },
            {
              "internalType": "address",
              "name": "synapseLpTokenIn",
              "type": "address"
            },
            {
              "internalType": "address",
              "name": "synapseSwap",
              "type": "address"
            },
            {
              "internalType": "uint256",
              "name": "synapseLpTokenCount",
              "type": "uint256"
            }
          ],
          "internalType": "struct SynapseStrategy.SynapseStrategySettings",
          "name": "_synapseStrategySettings",
          "type": "tuple"
        },
        {
          "components": [
            {
              "internalType": "address",
              "name": "gasToken",
              "type": "address"
            },
            {
              "internalType": "address[]",
              "name": "rewards",
              "type": "address[]"
            },
            {
              "internalType": "address",
              "name": "simpleRouter",
              "type": "address"
            }
          ],
          "internalType": "struct BaseStrategy.BaseStrategySettings",
          "name": "_settings",
          "type": "tuple"
        },
        {
          "components": [
            {
              "internalType": "string",
              "name": "name",
              "type": "string"
            },
            {
              "internalType": "address",
              "name": "owner",
              "type": "address"
            },
            {
              "internalType": "address",
              "name": "dev",
              "type": "address"
            },
            {
              "internalType": "address",
              "name": "feeCollector",
              "type": "address"
            },
            {
              "internalType": "address",
              "name": "depositToken",
              "type": "address"
            },
            {
              "internalType": "address",
              "name": "rewardToken",
              "type": "address"
            },
            {
              "internalType": "uint256",
              "name": "minTokensToReinvest",
              "type": "uint256"
            },
            {
              "internalType": "uint256",
              "name": "devFeeBips",
              "type": "uint256"
            },
            {
              "internalType": "uint256",
              "name": "reinvestRewardBips",
              "type": "uint256"
            }
          ],
          "internalType": "struct YakStrategyV3.StrategySettings",
          "name": "_strategySettings",
          "type": "tuple"
        }
      ],
      "stateMutability": "nonpayable",
      "type": "constructor"
    },
    {
      "anonymous": false,
      "inputs": [
        {
          "indexed": false,
          "internalType": "address",
          "name": "rewardToken",
          "type": "address"
        }
      ],
      "name": "AddReward",
      "type": "event"
    },
    {
      "anonymous": false,
      "inputs": [
        {
          "indexed": true,
          "internalType": "address",
          "name": "owner",
          "type": "address"
        },
        {
          "indexed": true,
          "internalType": "address",
          "name": "spender",
          "type": "address"
        },
        {
          "indexed": false,
          "internalType": "uint256",
          "name": "value",
          "type": "uint256"
        }
      ],
      "name": "Approval",
      "type": "event"
    },
    {
      "anonymous": false,
      "inputs": [
        {
          "indexed": true,
          "internalType": "address",
          "name": "account",
          "type": "address"
        },
        {
          "indexed": false,
          "internalType": "uint256",
          "name": "amount",
          "type": "uint256"
        }
      ],
      "name": "Deposit",
      "type": "event"
    },
    {
      "anonymous": false,
      "inputs": [
        {
          "indexed": false,
          "internalType": "bool",
          "name": "newValue",
          "type": "bool"
        }
      ],
      "name": "DepositsEnabled",
      "type": "event"
    },
    {
      "anonymous": false,
      "inputs": [
        {
          "indexed": true,
          "internalType": "address",
          "name": "previousOwner",
          "type": "address"
        },
        {
          "indexed": true,
          "internalType": "address",
          "name": "newOwner",
          "type": "address"
        }
      ],
      "name": "OwnershipTransferred",
      "type": "event"
    },
    {
      "anonymous": false,
      "inputs": [
        {
          "indexed": false,
          "internalType": "address",
          "name": "token",
          "type": "address"
        },
        {
          "indexed": false,
          "internalType": "uint256",
          "name": "amount",
          "type": "uint256"
        }
      ],
      "name": "Recovered",
      "type": "event"
    },
    {
      "anonymous": false,
      "inputs": [
        {
          "indexed": false,
          "internalType": "uint256",
          "name": "newTotalDeposits",
          "type": "uint256"
        },
        {
          "indexed": false,
          "internalType": "uint256",
          "name": "newTotalSupply",
          "type": "uint256"
        }
      ],
      "name": "Reinvest",
      "type": "event"
    },
    {
      "anonymous": false,
      "inputs": [
        {
          "indexed": false,
          "internalType": "address",
          "name": "rewardToken",
          "type": "address"
        }
      ],
      "name": "RemoveReward",
      "type": "event"
    },
    {
      "anonymous": false,
      "inputs": [
        {
          "indexed": true,
          "internalType": "address",
          "name": "from",
          "type": "address"
        },
        {
          "indexed": true,
          "internalType": "address",
          "name": "to",
          "type": "address"
        },
        {
          "indexed": false,
          "internalType": "uint256",
          "name": "value",
          "type": "uint256"
        }
      ],
      "name": "Transfer",
      "type": "event"
    },
    {
      "anonymous": false,
      "inputs": [
        {
          "indexed": false,
          "internalType": "address",
          "name": "oldValue",
          "type": "address"
        },
        {
          "indexed": false,
          "internalType": "address",
          "name": "newValue",
          "type": "address"
        }
      ],
      "name": "UpdateDevAddr",
      "type": "event"
    },
    {
      "anonymous": false,
      "inputs": [
        {
          "indexed": false,
          "internalType": "uint256",
          "name": "oldValue",
          "type": "uint256"
        },
        {
          "indexed": false,
          "internalType": "uint256",
          "name": "newValue",
          "type": "uint256"
        }
      ],
      "name": "UpdateDevFee",
      "type": "event"
    },
    {
      "anonymous": false,
      "inputs": [
        {
          "indexed": false,
          "internalType": "address",
          "name": "oldValue",
          "type": "address"
        },
        {
          "indexed": false,
          "internalType": "address",
          "name": "newValue",
          "type": "address"
        }
      ],
      "name": "UpdateFeeCollector",
      "type": "event"
    },
    {
      "anonymous": false,
      "inputs": [
        {
          "indexed": false,
          "internalType": "uint256",
          "name": "oldValue",
          "type": "uint256"
        },
        {
          "indexed": false,
          "internalType": "uint256",
          "name": "newValue",
          "type": "uint256"
        }
      ],
      "name": "UpdateMaxTokensToDepositWithoutReinvest",
      "type": "event"
    },
    {
      "anonymous": false,
      "inputs": [
        {
          "indexed": false,
          "internalType": "uint256",
          "name": "oldValue",
          "type": "uint256"
        },
        {
          "indexed": false,
          "internalType": "uint256",
          "name": "newValue",
          "type": "uint256"
        }
      ],
      "name": "UpdateMinTokensToReinvest",
      "type": "event"
    },
    {
      "anonymous": false,
      "inputs": [
        {
          "indexed": false,
          "internalType": "uint256",
          "name": "oldValue",
          "type": "uint256"
        },
        {
          "indexed": false,
          "internalType": "uint256",
          "name": "newValue",
          "type": "uint256"
        }
      ],
      "name": "UpdateReinvestReward",
      "type": "event"
    },
    {
      "anonymous": false,
      "inputs": [
        {
          "indexed": false,
          "internalType": "address",
          "name": "oldRouter",
          "type": "address"
        },
        {
          "indexed": false,
          "internalType": "address",
          "name": "newRouter",
          "type": "address"
        }
      ],
      "name": "UpdateRouter",
      "type": "event"
    },
    {
      "anonymous": false,
      "inputs": [
        {
          "indexed": true,
          "internalType": "address",
          "name": "account",
          "type": "address"
        },
        {
          "indexed": false,
          "internalType": "uint256",
          "name": "amount",
          "type": "uint256"
        }
      ],
      "name": "Withdraw",
      "type": "event"
    },
    {
      "inputs": [],
      "name": "DEPOSITS_ENABLED",
      "outputs": [
        {
          "internalType": "bool",
          "name": "",
          "type": "bool"
        }
      ],
      "stateMutability": "view",
      "type": "function"
    },
    {
      "inputs": [],
      "name": "DEV_FEE_BIPS",
      "outputs": [
        {
          "internalType": "uint256",
          "name": "",
          "type": "uint256"
        }
      ],
      "stateMutability": "view",
      "type": "function"
    },
    {
      "inputs": [],
      "name": "DOMAIN_TYPEHASH",
      "outputs": [
        {
          "internalType": "bytes32",
          "name": "",
          "type": "bytes32"
        }
      ],
      "stateMutability": "view",
      "type": "function"
    },
    {
      "inputs": [],
      "name": "MIN_TOKENS_TO_REINVEST",
      "outputs": [
        {
          "internalType": "uint256",
          "name": "",
          "type": "uint256"
        }
      ],
      "stateMutability": "view",
      "type": "function"
    },
    {
      "inputs": [],
      "name": "PERMIT_TYPEHASH",
      "outputs": [
        {
          "internalType": "bytes32",
          "name": "",
          "type": "bytes32"
        }
      ],
      "stateMutability": "view",
      "type": "function"
    },
    {
      "inputs": [],
      "name": "PID",
      "outputs": [
        {
          "internalType": "uint256",
          "name": "",
          "type": "uint256"
        }
      ],
      "stateMutability": "view",
      "type": "function"
    },
    {
      "inputs": [],
      "name": "REINVEST_REWARD_BIPS",
      "outputs": [
        {
          "internalType": "uint256",
          "name": "",
          "type": "uint256"
        }
      ],
      "stateMutability": "view",
      "type": "function"
    },
    {
      "inputs": [],
      "name": "VERSION_HASH",
      "outputs": [
        {
          "internalType": "bytes32",
          "name": "",
          "type": "bytes32"
        }
      ],
      "stateMutability": "view",
      "type": "function"
    },
    {
      "inputs": [
        {
          "internalType": "address",
          "name": "_rewardToken",
          "type": "address"
        }
      ],
      "name": "addReward",
      "outputs": [],
      "stateMutability": "nonpayable",
      "type": "function"
    },
    {
      "inputs": [
        {
          "internalType": "address",
          "name": "account",
          "type": "address"
        },
        {
          "internalType": "address",
          "name": "spender",
          "type": "address"
        }
      ],
      "name": "allowance",
      "outputs": [
        {
          "internalType": "uint256",
          "name": "",
          "type": "uint256"
        }
      ],
      "stateMutability": "view",
      "type": "function"
    },
    {
      "inputs": [
        {
          "internalType": "address",
          "name": "spender",
          "type": "address"
        },
        {
          "internalType": "uint256",
          "name": "amount",
          "type": "uint256"
        }
      ],
      "name": "approve",
      "outputs": [
        {
          "internalType": "bool",
          "name": "",
          "type": "bool"
        }
      ],
      "stateMutability": "nonpayable",
      "type": "function"
    },
    {
      "inputs": [
        {
          "internalType": "address",
          "name": "account",
          "type": "address"
        }
      ],
      "name": "balanceOf",
      "outputs": [
        {
          "internalType": "uint256",
          "name": "",
          "type": "uint256"
        }
      ],
      "stateMutability": "view",
      "type": "function"
    },
    {
      "inputs": [
        {
          "internalType": "uint256",
          "name": "_amount",
          "type": "uint256"
        }
      ],
      "name": "calculateDepositFee",
      "outputs": [
        {
          "internalType": "uint256",
          "name": "",
          "type": "uint256"
        }
      ],
      "stateMutability": "view",
      "type": "function"
    },
    {
      "inputs": [
        {
          "internalType": "uint256",
          "name": "_amount",
          "type": "uint256"
        }
      ],
      "name": "calculateWithdrawFee",
      "outputs": [
        {
          "internalType": "uint256",
          "name": "",
          "type": "uint256"
        }
      ],
      "stateMutability": "view",
      "type": "function"
    },
    {
      "inputs": [],
      "name": "checkReward",
      "outputs": [
        {
          "internalType": "uint256",
          "name": "",
          "type": "uint256"
        }
      ],
      "stateMutability": "view",
      "type": "function"
    },
    {
      "inputs": [],
      "name": "decimals",
      "outputs": [
        {
          "internalType": "uint8",
          "name": "",
          "type": "uint8"
        }
      ],
      "stateMutability": "view",
      "type": "function"
    },
    {
      "inputs": [
        {
          "internalType": "uint256",
          "name": "_amount",
          "type": "uint256"
        }
      ],
      "name": "deposit",
      "outputs": [],
      "stateMutability": "nonpayable",
      "type": "function"
    },
    {
      "inputs": [
        {
          "internalType": "address",
          "name": "_account",
          "type": "address"
        },
        {
          "internalType": "uint256",
          "name": "_amount",
          "type": "uint256"
        }
      ],
      "name": "depositFor",
      "outputs": [],
      "stateMutability": "nonpayable",
      "type": "function"
    },
    {
      "inputs": [],
      "name": "depositToken",
      "outputs": [
        {
          "internalType": "contract IERC20",
          "name": "",
          "type": "address"
        }
      ],
      "stateMutability": "view",
      "type": "function"
    },
    {
      "inputs": [
        {
          "internalType": "uint256",
          "name": "_amount",
          "type": "uint256"
        },
        {
          "internalType": "uint256",
          "name": "_deadline",
          "type": "uint256"
        },
        {
          "internalType": "uint8",
          "name": "_v",
          "type": "uint8"
        },
        {
          "internalType": "bytes32",
          "name": "_r",
          "type": "bytes32"
        },
        {
          "internalType": "bytes32",
          "name": "_s",
          "type": "bytes32"
        }
      ],
      "name": "depositWithPermit",
      "outputs": [],
      "stateMutability": "nonpayable",
      "type": "function"
    },
    {
      "inputs": [],
      "name": "devAddr",
      "outputs": [
        {
          "internalType": "address",
          "name": "",
          "type": "address"
        }
      ],
      "stateMutability": "view",
      "type": "function"
    },
    {
      "inputs": [],
      "name": "disableDeposits",
      "outputs": [],
      "stateMutability": "nonpayable",
      "type": "function"
    },
    {
      "inputs": [],
      "name": "enableDeposits",
      "outputs": [],
      "stateMutability": "nonpayable",
      "type": "function"
    },
    {
      "inputs": [],
      "name": "estimateReinvestReward",
      "outputs": [
        {
          "internalType": "uint256",
          "name": "",
          "type": "uint256"
        }
      ],
      "stateMutability": "view",
      "type": "function"
    },
    {
      "inputs": [],
      "name": "feeCollector",
      "outputs": [
        {
          "internalType": "address",
          "name": "",
          "type": "address"
        }
      ],
      "stateMutability": "view",
      "type": "function"
    },
    {
      "inputs": [
        {
          "internalType": "uint256",
          "name": "amount",
          "type": "uint256"
        }
      ],
      "name": "getDepositTokensForShares",
      "outputs": [
        {
          "internalType": "uint256",
          "name": "",
          "type": "uint256"
        }
      ],
      "stateMutability": "view",
      "type": "function"
    },
    {
      "inputs": [],
      "name": "getDomainSeparator",
      "outputs": [
        {
          "internalType": "bytes32",
          "name": "",
          "type": "bytes32"
        }
      ],
      "stateMutability": "view",
      "type": "function"
    },
    {
      "inputs": [
        {
          "internalType": "uint256",
          "name": "amount",
          "type": "uint256"
        }
      ],
      "name": "getSharesForDepositTokens",
      "outputs": [
        {
          "internalType": "uint256",
          "name": "",
          "type": "uint256"
        }
      ],
      "stateMutability": "view",
      "type": "function"
    },
    {
      "inputs": [],
      "name": "getSupportedRewardsLength",
      "outputs": [
        {
          "internalType": "uint256",
          "name": "",
          "type": "uint256"
        }
      ],
      "stateMutability": "view",
      "type": "function"
    },
    {
      "inputs": [],
      "name": "miniChef",
      "outputs": [
        {
          "internalType": "contract IMiniChefV2",
          "name": "",
          "type": "address"
        }
      ],
      "stateMutability": "view",
      "type": "function"
    },
    {
      "inputs": [],
      "name": "name",
      "outputs": [
        {
          "internalType": "string",
          "name": "",
          "type": "string"
        }
      ],
      "stateMutability": "view",
      "type": "function"
    },
    {
      "inputs": [
        {
          "internalType": "address",
          "name": "",
          "type": "address"
        }
      ],
      "name": "nonces",
      "outputs": [
        {
          "internalType": "uint256",
          "name": "",
          "type": "uint256"
        }
      ],
      "stateMutability": "view",
      "type": "function"
    },
    {
      "inputs": [],
      "name": "owner",
      "outputs": [
        {
          "internalType": "address",
          "name": "",
          "type": "address"
        }
      ],
      "stateMutability": "view",
      "type": "function"
    },
    {
      "inputs": [
        {
          "internalType": "address",
          "name": "owner",
          "type": "address"
        },
        {
          "internalType": "address",
          "name": "spender",
          "type": "address"
        },
        {
          "internalType": "uint256",
          "name": "value",
          "type": "uint256"
        },
        {
          "internalType": "uint256",
          "name": "deadline",
          "type": "uint256"
        },
        {
          "internalType": "uint8",
          "name": "v",
          "type": "uint8"
        },
        {
          "internalType": "bytes32",
          "name": "r",
          "type": "bytes32"
        },
        {
          "internalType": "bytes32",
          "name": "s",
          "type": "bytes32"
        }
      ],
      "name": "permit",
      "outputs": [],
      "stateMutability": "nonpayable",
      "type": "function"
    },
    {
      "inputs": [
        {
          "internalType": "address",
          "name": "tokenAddress",
          "type": "address"
        },
        {
          "internalType": "uint256",
          "name": "tokenAmount",
          "type": "uint256"
        }
      ],
      "name": "recoverERC20",
      "outputs": [],
      "stateMutability": "nonpayable",
      "type": "function"
    },
    {
      "inputs": [
        {
          "internalType": "uint256",
          "name": "amount",
          "type": "uint256"
        }
      ],
      "name": "recoverGas",
      "outputs": [],
      "stateMutability": "nonpayable",
      "type": "function"
    },
    {
      "inputs": [],
      "name": "reinvest",
      "outputs": [],
      "stateMutability": "nonpayable",
      "type": "function"
    },
    {
      "inputs": [
        {
          "internalType": "address",
          "name": "_rewardToken",
          "type": "address"
        }
      ],
      "name": "removeReward",
      "outputs": [],
      "stateMutability": "nonpayable",
      "type": "function"
    },
    {
      "inputs": [],
      "name": "renounceOwnership",
      "outputs": [],
      "stateMutability": "nonpayable",
      "type": "function"
    },
    {
      "inputs": [
        {
          "internalType": "uint256",
          "name": "_minReturnAmountAccepted",
          "type": "uint256"
        }
      ],
      "name": "rescueDeployedFunds",
      "outputs": [],
      "stateMutability": "nonpayable",
      "type": "function"
    },
    {
      "inputs": [
        {
          "internalType": "address",
          "name": "token",
          "type": "address"
        },
        {
          "internalType": "address",
          "name": "spender",
          "type": "address"
        }
      ],
      "name": "revokeAllowance",
      "outputs": [],
      "stateMutability": "nonpayable",
      "type": "function"
    },
    {
      "inputs": [],
      "name": "rewardToken",
      "outputs": [
        {
          "internalType": "contract IERC20",
          "name": "",
          "type": "address"
        }
      ],
      "stateMutability": "view",
      "type": "function"
    },
    {
      "inputs": [],
      "name": "simpleRouter",
      "outputs": [
        {
          "internalType": "contract ISimpleRouter",
          "name": "",
          "type": "address"
        }
      ],
      "stateMutability": "view",
      "type": "function"
    },
    {
      "inputs": [
        {
          "internalType": "uint256",
          "name": "",
          "type": "uint256"
        }
      ],
      "name": "supportedRewards",
      "outputs": [
        {
          "internalType": "address",
          "name": "",
          "type": "address"
        }
      ],
      "stateMutability": "view",
      "type": "function"
    },
    {
      "inputs": [],
      "name": "symbol",
      "outputs": [
        {
          "internalType": "string",
          "name": "",
          "type": "string"
        }
      ],
      "stateMutability": "view",
      "type": "function"
    },
    {
      "inputs": [],
      "name": "synapseLpTokenCount",
      "outputs": [
        {
          "internalType": "uint256",
          "name": "",
          "type": "uint256"
        }
      ],
      "stateMutability": "view",
      "type": "function"
    },
    {
      "inputs": [],
      "name": "synapseLpTokenIn",
      "outputs": [
        {
          "internalType": "address",
          "name": "",
          "type": "address"
        }
      ],
      "stateMutability": "view",
      "type": "function"
    },
    {
      "inputs": [],
      "name": "synapseLpTokenIndex",
      "outputs": [
        {
          "internalType": "uint256",
          "name": "",
          "type": "uint256"
        }
      ],
      "stateMutability": "view",
      "type": "function"
    },
    {
      "inputs": [],
      "name": "synapseSwap",
      "outputs": [
        {
          "internalType": "contract ISynapseSwap",
          "name": "",
          "type": "address"
        }
      ],
      "stateMutability": "view",
      "type": "function"
    },
    {
      "inputs": [],
      "name": "totalDeposits",
      "outputs": [
        {
          "internalType": "uint256",
          "name": "",
          "type": "uint256"
        }
      ],
      "stateMutability": "view",
      "type": "function"
    },
    {
      "inputs": [],
      "name": "totalSupply",
      "outputs": [
        {
          "internalType": "uint256",
          "name": "",
          "type": "uint256"
        }
      ],
      "stateMutability": "view",
      "type": "function"
    },
    {
      "inputs": [
        {
          "internalType": "address",
          "name": "dst",
          "type": "address"
        },
        {
          "internalType": "uint256",
          "name": "amount",
          "type": "uint256"
        }
      ],
      "name": "transfer",
      "outputs": [
        {
          "internalType": "bool",
          "name": "",
          "type": "bool"
        }
      ],
      "stateMutability": "nonpayable",
      "type": "function"
    },
    {
      "inputs": [
        {
          "internalType": "address",
          "name": "src",
          "type": "address"
        },
        {
          "internalType": "address",
          "name": "dst",
          "type": "address"
        },
        {
          "internalType": "uint256",
          "name": "amount",
          "type": "uint256"
        }
      ],
      "name": "transferFrom",
      "outputs": [
        {
          "internalType": "bool",
          "name": "",
          "type": "bool"
        }
      ],
      "stateMutability": "nonpayable",
      "type": "function"
    },
    {
      "inputs": [
        {
          "internalType": "address",
          "name": "newOwner",
          "type": "address"
        }
      ],
      "name": "transferOwnership",
      "outputs": [],
      "stateMutability": "nonpayable",
      "type": "function"
    },
    {
      "inputs": [
        {
          "internalType": "address",
          "name": "newValue",
          "type": "address"
        }
      ],
      "name": "updateDevAddr",
      "outputs": [],
      "stateMutability": "nonpayable",
      "type": "function"
    },
    {
      "inputs": [
        {
          "internalType": "uint256",
          "name": "newValue",
          "type": "uint256"
        }
      ],
      "name": "updateDevFee",
      "outputs": [],
      "stateMutability": "nonpayable",
      "type": "function"
    },
    {
      "inputs": [
        {
          "internalType": "address",
          "name": "newValue",
          "type": "address"
        }
      ],
      "name": "updateFeeCollector",
      "outputs": [],
      "stateMutability": "nonpayable",
      "type": "function"
    },
    {
      "inputs": [
        {
          "internalType": "uint256",
          "name": "newValue",
          "type": "uint256"
        }
      ],
      "name": "updateMinTokensToReinvest",
      "outputs": [],
      "stateMutability": "nonpayable",
      "type": "function"
    },
    {
      "inputs": [
        {
          "internalType": "uint256",
          "name": "newValue",
          "type": "uint256"
        }
      ],
      "name": "updateReinvestReward",
      "outputs": [],
      "stateMutability": "nonpayable",
      "type": "function"
    },
    {
      "inputs": [
        {
          "internalType": "address",
          "name": "_router",
          "type": "address"
        }
      ],
      "name": "updateRouter",
      "outputs": [],
      "stateMutability": "nonpayable",
      "type": "function"
    },
    {
      "inputs": [
        {
          "internalType": "uint256",
          "name": "_amount",
          "type": "uint256"
        }
      ],
      "name": "withdraw",
      "outputs": [],
      "stateMutability": "nonpayable",
      "type": "function"
    }
  ],
  "transactionHash": "0xa27faa8b07909b6fc05c8cdcf3ebf3c7020451a701418988cd5995a80a9d0a29",
  "args": [
    {
      "stakingContract": "0x73186f2Cf2493f20836b17b21ae79fc12934E207",
      "pid": "3",
      "synapseLpTokenIn": "0xFF970A61A04b1cA14834A43f5dE4533eBDDB5CC8",
      "synapseSwap": "0x9Dd329F5411466d9e0C488fF72519CA9fEf0cb40",
      "synapseLpTokenCount": "3"
    },
    {
      "gasToken": "0x82aF49447D8a07e3bd95BD0d56f35241523fBab1",
      "rewards": [],
      "simpleRouter": "0x4f543bb63d85D28b92Af2AD1f882F86805Db484C"
    },
    {
      "name": "Yield Yak: SYN nUSD-LP",
      "owner": "0xDcEDF06Fd33E1D7b6eb4b309f779a0e9D3172e44",
      "dev": "0xDcEDF06Fd33E1D7b6eb4b309f779a0e9D3172e44",
      "feeCollector": "0xDcEDF06Fd33E1D7b6eb4b309f779a0e9D3172e44",
      "depositToken": "0xcFd72be67Ee69A0dd7cF0f846Fc0D98C33d60F16",
      "rewardToken": "0x82aF49447D8a07e3bd95BD0d56f35241523fBab1",
      "minTokensToReinvest": "1000",
      "devFeeBips": 700,
      "reinvestRewardBips": 300
    }
  ],
  "solcInputHash": "2953b8c6037a913b62654eee42ae24e6",
  "bytecode": "0x61020060405260096101c0819052685969656c642059616b60b81b6101e09081526200002f91600091906200089f565b506040805180820190915260038082526216549560ea1b60209092019182526200005c916001916200089f565b503480156200006a57600080fd5b50604051620055df380380620055df8339810160408190526200008d9162000cc9565b600680546001600160a01b03191633908117909155604051839183918291908190600090600080516020620055bf833981519152908290a35080518051620000de916000916020909101906200089f565b506080808201516001600160a01b0390811690915260a0808301519091169052600780546001600160a01b0319163317905560c0810151620001209062000384565b60e0810151620001309062000421565b6101008101516200014190620004dd565b6060810151620001519062000599565b604081015162000161906200064d565b6200016b62000701565b60208101516200017b90620007a2565b5081516001600160a01b031660c0526020808301518051620001a292600d9201906200092e565b506040820151600e80546001600160a01b0319166001600160a01b0390921691909117905560c08101516200022a5760405162461bcd60e51b815260206004820152602360248201527f4261736553747261746567793a3a496e76616c696420636f6e6669677572617460448201526234b7b760e91b60648201526084015b60405180910390fd5b60408051600080825260208201527fc7606d21ac05cd309191543e409f0845c016120563783d70e4f41419dc0ef234910160405180910390a150506020808401516101005283516001600160a01b031661012081905260408051635766e71760e01b815290519192635766e717926004808401938290030181865afa158015620002b8573d6000803e3d6000fd5b505050506040513d601f19601f82011682018060405250810190620002de919062000d9d565b6001600160a01b0390811660e0526040848101518216610160819052606086015190921661014081905260808601516101a05290516319b02f4960e21b81526004810192909252906366c0bd2490602401602060405180830381865afa1580156200034d573d6000803e3d6000fd5b505050506040513d601f19601f8201168201806040525081019062000373919062000dc2565b60ff16610180525062000e4a915050565b6007546001600160a01b03163314620003e05760405162461bcd60e51b815260206004820152601460248201527f59616b53747261746567793a3a6f6e6c79446576000000000000000000000000604482015260640162000221565b60095460408051918252602082018390527f481f79ac3a523b6d6db3c5a720e190e986d1cc1b41adcdf50f9caef849901100910160405180910390a1600955565b6007546001600160a01b031633146200047d5760405162461bcd60e51b815260206004820152601460248201527f59616b53747261746567793a3a6f6e6c79446576000000000000000000000000604482015260640162000221565b612710600b548262000490919062000de7565b11156200049c57600080fd5b600c5460408051918252602082018390527f2a42303d002f0ba6cfe8259c91d4684443fb0b3de286ba74991175d651726131910160405180910390a1600c55565b6007546001600160a01b03163314620005395760405162461bcd60e51b815260206004820152601460248201527f59616b53747261746567793a3a6f6e6c79446576000000000000000000000000604482015260640162000221565b612710600c54826200054c919062000de7565b11156200055857600080fd5b600b5460408051918252602082018390527fe7f97d51d307dc44045597c9978bec0f842e6bb40d19b9444084cfa30d9ed4f2910160405180910390a1600b55565b6006546001600160a01b03163314620005e45760405162461bcd60e51b815260206004820181905260248201526000805160206200559f833981519152604482015260640162000221565b600854604080516001600160a01b03928316815291831660208301527fcc882185e6edeeb762130016ea1faf3d7aa9c01b199bfd646f965b58ab741063910160405180910390a1600880546001600160a01b0319166001600160a01b0392909216919091179055565b6006546001600160a01b03163314620006985760405162461bcd60e51b815260206004820181905260248201526000805160206200559f833981519152604482015260640162000221565b600754604080516001600160a01b03928316815291831660208301527fa8e91499ed37682f43cffb045fcc7d379a91e8c9a14e6321877ee34dee564c00910160405180910390a1600780546001600160a01b0319166001600160a01b0392909216919091179055565b6006546001600160a01b031633146200074c5760405162461bcd60e51b815260206004820181905260248201526000805160206200559f833981519152604482015260640162000221565b600a5460ff16156200075d57600080fd5b600a805460ff191660019081179091556040519081527f7b014ed3854e7f5cb0218d58b3c6ae7d53a68bb0af2f67bfb029ea42c38a7e859060200160405180910390a1565b6006546001600160a01b03163314620007ed5760405162461bcd60e51b815260206004820181905260248201526000805160206200559f833981519152604482015260640162000221565b6001600160a01b038116620008545760405162461bcd60e51b815260206004820152602660248201527f4f776e61626c653a206e6577206f776e657220697320746865207a65726f206160448201526564647265737360d01b606482015260840162000221565b6006546040516001600160a01b03808416921690600080516020620055bf83398151915290600090a3600680546001600160a01b0319166001600160a01b0392909216919091179055565b828054620008ad9062000e0e565b90600052602060002090601f016020900481019282620008d157600085556200091c565b82601f10620008ec57805160ff19168380011785556200091c565b828001600101855582156200091c579182015b828111156200091c578251825591602001919060010190620008ff565b506200092a92915062000986565b5090565b8280548282559060005260206000209081019282156200091c579160200282015b828111156200091c57825182546001600160a01b0319166001600160a01b039091161782556020909201916001909101906200094f565b5b808211156200092a576000815560010162000987565b634e487b7160e01b600052604160045260246000fd5b604051606081016001600160401b0381118282101715620009d857620009d86200099d565b60405290565b60405161012081016001600160401b0381118282101715620009d857620009d86200099d565b60405160a081016001600160401b0381118282101715620009d857620009d86200099d565b604051601f8201601f191681016001600160401b038111828210171562000a545762000a546200099d565b604052919050565b80516001600160a01b038116811462000a7457600080fd5b919050565b60006060828403121562000a8c57600080fd5b62000a96620009b3565b905062000aa38262000a5c565b81526020828101516001600160401b038082111562000ac157600080fd5b818501915085601f83011262000ad657600080fd5b81518181111562000aeb5762000aeb6200099d565b8060051b915062000afe84830162000a29565b818152918301840191848101908884111562000b1957600080fd5b938501935b8385101562000b425762000b328562000a5c565b8252938501939085019062000b1e565b808688015250505050505062000b5b6040830162000a5c565b604082015292915050565b600082601f83011262000b7857600080fd5b81516001600160401b0381111562000b945762000b946200099d565b602062000baa601f8301601f1916820162000a29565b828152858284870101111562000bbf57600080fd5b60005b8381101562000bdf57858101830151828201840152820162000bc2565b8381111562000bf15760008385840101525b5095945050505050565b6000610120828403121562000c0f57600080fd5b62000c19620009de565b82519091506001600160401b0381111562000c3357600080fd5b62000c418482850162000b66565b82525062000c526020830162000a5c565b602082015262000c656040830162000a5c565b604082015262000c786060830162000a5c565b606082015262000c8b6080830162000a5c565b608082015262000c9e60a0830162000a5c565b60a082015260c082015160c082015260e082015160e082015261010080830151818301525092915050565b600080600083850360e081121562000ce057600080fd5b60a081121562000cef57600080fd5b5062000cfa62000a04565b62000d058562000a5c565b81526020850151602082015262000d1f6040860162000a5c565b604082015262000d326060860162000a5c565b60608201526080858101519082015260a08501519093506001600160401b038082111562000d5f57600080fd5b62000d6d8783880162000a79565b935060c086015191508082111562000d8457600080fd5b5062000d938682870162000bfb565b9150509250925092565b60006020828403121562000db057600080fd5b62000dbb8262000a5c565b9392505050565b60006020828403121562000dd557600080fd5b815160ff8116811462000dbb57600080fd5b6000821982111562000e0957634e487b7160e01b600052601160045260246000fd5b500190565b600181811c9082168062000e2357607f821691505b60208210810362000e4457634e487b7160e01b600052602260045260246000fd5b50919050565b60805160a05160c05160e05161010051610120516101405161016051610180516101a0516145a562000ffa600039600081816104c001526136d6015260008181610765015261373d01526000818161045f015281816135200152818161359601526136640152600081816103b90152818161363501526137a70152600081816105580152818161124a01528181612628015281816129b501528181612aa601528181612bb10152818161384c01528181613944015281816139bd0152613aaf0152600081816105a301528181611211015281816125f201528181612a7a01528181612b77015281816139110152613a8301526000612c2b015260008181611b98015281816132560152818161328501526132fa0152600081816108cb01528181611afb01528181611c0001528181611d3f01528181612e2c01528181612e94015281816131a201528181613324015281816133e001528181613443015281816134f6015261356e0152600081816107cb01528181610b2d01528181610c0001528181610d9701528181610e2c01528181612842015281816129e40152818161387b01526139ec01526145a56000f3fe608060405234801561001057600080fd5b50600436106103af5760003560e01c80638da5cb5b116101f4578063c415b95c1161011a578063dd8ce4d6116100ad578063f2fde38b1161007c578063f2fde38b146108a0578063f6314d07146108b3578063f7c618c1146108c6578063fdb5a03e146108ed57600080fd5b8063dd8ce4d61461085f578063e75ab04514610872578063eab89a5a14610885578063ed24911d1461089857600080fd5b8063d2c35ce8116100e9578063d2c35ce8146107ed578063d505accf14610800578063da09c72c14610813578063dd62ed3e1461082657600080fd5b8063c415b95c14610798578063c4b24a46146107ab578063c851cc32146107b3578063c89039c5146107c657600080fd5b8063a8ae2b7c11610192578063b6b55f2511610161578063b6b55f251461074d578063b8eafcad14610760578063b9e57b8014610787578063bd079f551461078f57600080fd5b8063a8ae2b7c14610712578063a9059cbb14610725578063ac67e1af14610738578063b52a321f1461074057600080fd5b806399729ec1116101ce57806399729ec1146106b25780639c9b2e21146106c55780639e4e7318146106d8578063a4d5e67c146106ff57600080fd5b80638da5cb5b146106865780639291d5631461069757806395d89b41146106aa57600080fd5b80634005760a116102d9578063715018a6116102775780637ecebe00116102465780637ecebe001461063757806381837230146106575780638980f11f1461066a5780638aff733d1461067d57600080fd5b8063715018a6146106015780637897e7f6146106095780637ae267731461061c5780637d8820971461062f57600080fd5b80635ea682ea116102b35780635ea682ea146105955780635eaec0e41461059e578063666d25b9146105c557806370a08231146105d857600080fd5b80634005760a146105535780634a970be71461057a5780635e4c57a41461058d57600080fd5b806323b872dd116103515780632e1a7d4d116103205780632e1a7d4d146104ea5780632f4f21e2146104ff57806330adf81f14610512578063313ce5671461053957600080fd5b806323b872dd146104a857806324203b43146104bb578063247d284b14610430578063258250da146104e257600080fd5b8063110560351161038d578063110560351461043057806318160ddd146104515780631b9b393c1461045a57806320606b701461048157600080fd5b806306f738d5146103b457806306fdde03146103f8578063095ea7b31461040d575b600080fd5b6103db7f000000000000000000000000000000000000000000000000000000000000000081565b6040516001600160a01b0390911681526020015b60405180910390f35b6104006108f5565b6040516103ef9190613e40565b61042061041b366004613e88565b610983565b60405190151581526020016103ef565b61044361043e366004613eb4565b610999565b6040519081526020016103ef565b61044360025481565b6103db7f000000000000000000000000000000000000000000000000000000000000000081565b6104437f8b73c3c69bb8fe3d512ecc4cf759cc79239f7b179b0ffacaa9a75d522b39400f81565b6104206104b6366004613ecd565b6109aa565b6104437f000000000000000000000000000000000000000000000000000000000000000081565b600d54610443565b6104fd6104f8366004613eb4565b610a73565b005b6104fd61050d366004613e88565b610b99565b6104437f6e71edae12b1b97f4d1f60370fef10105fa2faae0126114a169c64845d6126c981565b610541601281565b60405160ff90911681526020016103ef565b6103db7f000000000000000000000000000000000000000000000000000000000000000081565b6104fd610588366004613f24565b610ba7565b6104fd610c75565b610443600c5481565b6104437f000000000000000000000000000000000000000000000000000000000000000081565b6104fd6105d3366004613eb4565b610d25565b6104436105e6366004613f6b565b6001600160a01b031660009081526004602052604090205490565b6104fd610fa6565b6104fd610617366004613eb4565b61104a565b6104fd61062a366004613f88565b61111c565b6104436111e9565b610443610645366004613f6b565b60056020526000908152604090205481565b6104fd610665366004613eb4565b6112bb565b6104fd610678366004613e88565b61134d565b610443600b5481565b6006546001600160a01b03166103db565b6104fd6106a5366004613f6b565b61140f565b6104006114d2565b6104fd6106c0366004613eb4565b6114df565b6104fd6106d3366004613f6b565b61158d565b6104437fc89efdaa54c0f20c7adf612882df0950f5a951637e0307cdcb4c672f298b8bc681565b6104fd61070d366004613f6b565b611728565b6104fd610720366004613eb4565b61192b565b610420610733366004613e88565b6119d9565b6104fd6119e6565b600a546104209060ff1681565b6104fd61075b366004613eb4565b611a81565b6104437f000000000000000000000000000000000000000000000000000000000000000081565b610443611a8e565b61044360095481565b6008546103db906001600160a01b031681565b610443611acd565b6104fd6107c1366004613f6b565b611e1b565b6103db7f000000000000000000000000000000000000000000000000000000000000000081565b6104fd6107fb366004613f6b565b611ed5565b6104fd61080e366004613fc1565b611f98565b6007546103db906001600160a01b031681565b610443610834366004613f88565b6001600160a01b03918216600090815260036020908152604080832093909416825291909152205490565b61044361086d366004613eb4565b6120ab565b6103db610880366004613eb4565b6120f1565b610443610893366004613eb4565b61211b565b610443612151565b6104fd6108ae366004613f6b565b6121f1565b600e546103db906001600160a01b031681565b6103db7f000000000000000000000000000000000000000000000000000000000000000081565b6104fd612323565b600080546109029061402f565b80601f016020809104026020016040519081016040528092919081815260200182805461092e9061402f565b801561097b5780601f106109505761010080835404028352916020019161097b565b820191906000526020600020905b81548152906001019060200180831161095e57829003601f168201915b505050505081565b600061099033848461237e565b50600192915050565b60006109a48261248c565b92915050565b6001600160a01b0383166000818152600360209081526040808320338085529252822054919290919082148015906109e457506000198114155b15610a5a5760006109f5858361407f565b6001600160a01b038881166000818152600360209081526040808320948916808452948252918290208590559051848152939450919290917f8c5be1e5ebec7d5bd14f71427d1e84f3dd0314c0f7b2291e5b200ac8c7c3b925910160405180910390a3505b610a658686866124a6565b6001925050505b9392505050565b6000610a7e8261211b565b905060008111610afb5760405162461bcd60e51b815260206004820152602560248201527f4261736553747261746567793a3a576974686472617720616d6f756e7420746f60448201527f6f206c6f7700000000000000000000000000000000000000000000000000000060648201526084015b60405180910390fd5b6000610b06826125ca565b90506000610b138361248c565b9050610b5433610b23838561407f565b6001600160a01b037f0000000000000000000000000000000000000000000000000000000000000000169190612692565b610b5e3385612712565b60405183815233907f884edad9ce6fa2440d8a54cc123490eb96d2768479d49ff9c7366125a94243649060200160405180910390a250505050565b610ba382826127a6565b5050565b6040517fd505accf000000000000000000000000000000000000000000000000000000008152336004820152306024820152604481018690526064810185905260ff8416608482015260a4810183905260c481018290527f00000000000000000000000000000000000000000000000000000000000000006001600160a01b03169063d505accf9060e401600060405180830381600087803b158015610c4c57600080fd5b505af1158015610c60573d6000803e3d6000fd5b50505050610c6e33866127a6565b5050505050565b6006546001600160a01b03163314610ccf5760405162461bcd60e51b815260206004820181905260248201527f4f776e61626c653a2063616c6c6572206973206e6f7420746865206f776e65726044820152606401610af2565b600a5460ff1615610cdf57600080fd5b600a805460ff191660019081179091556040519081527f7b014ed3854e7f5cb0218d58b3c6ae7d53a68bb0af2f67bfb029ea42c38a7e85906020015b60405180910390a1565b6006546001600160a01b03163314610d7f5760405162461bcd60e51b815260206004820181905260248201527f4f776e61626c653a2063616c6c6572206973206e6f7420746865206f776e65726044820152606401610af2565b6040516370a0823160e01b81523060048201526000907f00000000000000000000000000000000000000000000000000000000000000006001600160a01b0316906370a0823190602401602060405180830381865afa158015610de6573d6000803e3d6000fd5b505050506040513d601f19601f82011682018060405250810190610e0a9190614096565b9050610e1461299e565b6040516370a0823160e01b81523060048201526000907f00000000000000000000000000000000000000000000000000000000000000006001600160a01b0316906370a0823190602401602060405180830381865afa158015610e7b573d6000803e3d6000fd5b505050506040513d601f19601f82011682018060405250810190610e9f9190614096565b905082610eac838361407f565b1015610f465760405162461bcd60e51b815260206004820152604260248201527f4261736553747261746567793a3a456d657267656e637920776974686472617760448201527f206d696e696d756d2072657475726e20616d6f756e74206e6f7420726561636860648201527f6564000000000000000000000000000000000000000000000000000000000000608482015260a401610af2565b7fc7606d21ac05cd309191543e409f0845c016120563783d70e4f41419dc0ef234610f6f6111e9565b6002546040805192835260208301919091520160405180910390a1600a5460ff161515600103610fa157610fa16119e6565b505050565b6006546001600160a01b031633146110005760405162461bcd60e51b815260206004820181905260248201527f4f776e61626c653a2063616c6c6572206973206e6f7420746865206f776e65726044820152606401610af2565b6006546040516000916001600160a01b0316907f8be0079c531659141344cd1fd0a4f28419497f9722a3daafe3b4186f6b6457e0908390a3600680546001600160a01b0319169055565b6006546001600160a01b031633146110a45760405162461bcd60e51b815260206004820181905260248201527f4f776e61626c653a2063616c6c6572206973206e6f7420746865206f776e65726044820152606401610af2565b600081116110b157600080fd5b604051339082156108fc029083906000818181858888f193505050501580156110de573d6000803e3d6000fd5b506040805160008152602081018390527f8c1256b8896378cd5044f80c202f9772b9d77dc85c8a6eb51967210b09bfaa28910160405180910390a150565b6007546001600160a01b0316331461116d5760405162461bcd60e51b81526020600482015260146024820152732cb0b5a9ba3930ba32b3bc9d1d37b7363ca232bb60611b6044820152606401610af2565b60405163095ea7b360e01b81526001600160a01b0382811660048301526000602483015283169063095ea7b3906044016020604051808303816000875af11580156111bc573d6000803e3d6000fd5b505050506040513d601f19601f820116820180604052508101906111e091906140af565b610ba357600080fd5b6040517f93f1a40b0000000000000000000000000000000000000000000000000000000081527f0000000000000000000000000000000000000000000000000000000000000000600482015230602482015260009081906001600160a01b037f000000000000000000000000000000000000000000000000000000000000000016906393f1a40b906044016040805180830381865afa158015611290573d6000803e3d6000fd5b505050506040513d601f19601f820116820180604052508101906112b491906140d1565b5092915050565b6007546001600160a01b0316331461130c5760405162461bcd60e51b81526020600482015260146024820152732cb0b5a9ba3930ba32b3bc9d1d37b7363ca232bb60611b6044820152606401610af2565b60095460408051918252602082018390527f481f79ac3a523b6d6db3c5a720e190e986d1cc1b41adcdf50f9caef849901100910160405180910390a1600955565b6006546001600160a01b031633146113a75760405162461bcd60e51b815260206004820181905260248201527f4f776e61626c653a2063616c6c6572206973206e6f7420746865206f776e65726044820152606401610af2565b600081116113b457600080fd5b6113c86001600160a01b0383163383612692565b604080516001600160a01b0384168152602081018390527f8c1256b8896378cd5044f80c202f9772b9d77dc85c8a6eb51967210b09bfaa2891015b60405180910390a15050565b6006546001600160a01b031633146114695760405162461bcd60e51b815260206004820181905260248201527f4f776e61626c653a2063616c6c6572206973206e6f7420746865206f776e65726044820152606401610af2565b600754604080516001600160a01b03928316815291831660208301527fa8e91499ed37682f43cffb045fcc7d379a91e8c9a14e6321877ee34dee564c00910160405180910390a1600780546001600160a01b0319166001600160a01b0392909216919091179055565b600180546109029061402f565b6007546001600160a01b031633146115305760405162461bcd60e51b81526020600482015260146024820152732cb0b5a9ba3930ba32b3bc9d1d37b7363ca232bb60611b6044820152606401610af2565b612710600b548261154191906140f5565b111561154c57600080fd5b600c5460408051918252602082018390527f2a42303d002f0ba6cfe8259c91d4684443fb0b3de286ba74991175d651726131910160405180910390a1600c55565b6007546001600160a01b031633146115de5760405162461bcd60e51b81526020600482015260146024820152732cb0b5a9ba3930ba32b3bc9d1d37b7363ca232bb60611b6044820152606401610af2565b6000805b600d5481101561163557600d81815481106115ff576115ff61410d565b6000918252602090912001546001600160a01b039081169084160361162357600191505b8061162d81614123565b9150506115e2565b5080156116aa5760405162461bcd60e51b815260206004820152602860248201527f4261736553747261746567793a3a52657761726420616c726561647920636f6e60448201527f66696775726564210000000000000000000000000000000000000000000000006064820152608401610af2565b600d80546001810182556000919091527fd7b6990105719101dabeb77144f2a3385c8033acd3af97e9423a695e81ad1eb50180546001600160a01b0319166001600160a01b0384169081179091556040519081527f1714865bf5baa84e3439536a013c87cfe030b4cd69f344a5f2a4877de3d517ce90602001611403565b6007546001600160a01b031633146117795760405162461bcd60e51b81526020600482015260146024820152732cb0b5a9ba3930ba32b3bc9d1d37b7363ca232bb60611b6044820152606401610af2565b6000805b600d5481101561184957600d818154811061179a5761179a61410d565b6000918252602090912001546001600160a01b039081169084160361183757600d8054600193506117cc90849061407f565b815481106117dc576117dc61410d565b600091825260209091200154600d80546001600160a01b0390921691839081106118085761180861410d565b9060005260206000200160006101000a8154816001600160a01b0302191690836001600160a01b031602179055505b8061184181614123565b91505061177d565b50806118bc5760405162461bcd60e51b8152602060048201526024808201527f4261736553747261746567793a3a526577617264206e6f7420636f6e6669677560448201527f72656421000000000000000000000000000000000000000000000000000000006064820152608401610af2565b600d8054806118cd576118cd61413c565b6000828152602090819020600019908301810180546001600160a01b03191690559091019091556040516001600160a01b03841681527f963b7c735475147a62c589c2d7cb8ec4b0a6b7af4f97373d79ebfa42ab8aa7dc9101611403565b6007546001600160a01b0316331461197c5760405162461bcd60e51b81526020600482015260146024820152732cb0b5a9ba3930ba32b3bc9d1d37b7363ca232bb60611b6044820152606401610af2565b612710600c548261198d91906140f5565b111561199857600080fd5b600b5460408051918252602082018390527fe7f97d51d307dc44045597c9978bec0f842e6bb40d19b9444084cfa30d9ed4f2910160405180910390a1600b55565b60006109903384846124a6565b6007546001600160a01b03163314611a375760405162461bcd60e51b81526020600482015260146024820152732cb0b5a9ba3930ba32b3bc9d1d37b7363ca232bb60611b6044820152606401610af2565b600a5460ff16611a4657600080fd5b600a805460ff19169055604051600081527f7b014ed3854e7f5cb0218d58b3c6ae7d53a68bb0af2f67bfb029ea42c38a7e8590602001610d1b565b611a8b33826127a6565b50565b600080611a99611acd565b90506009548110611ac557612710600b5482611ab59190614152565b611abf9190614171565b91505090565b600091505090565b600080611ad8612b0d565b6040516370a0823160e01b81523060048201529091506000906001600160a01b037f000000000000000000000000000000000000000000000000000000000000000016906370a0823190602401602060405180830381865afa158015611b42573d6000803e3d6000fd5b505050506040513d601f19601f82011682018060405250810190611b669190614096565b905060005b82518110156112b4576000838281518110611b8857611b8861410d565b60200260200101516000015190507f00000000000000000000000000000000000000000000000000000000000000006001600160a01b0316816001600160a01b031603611bfe5747848381518110611be257611be261410d565b6020026020010151602001818151611bfa91906140f5565b9052505b7f00000000000000000000000000000000000000000000000000000000000000006001600160a01b0316816001600160a01b031603611c6757838281518110611c4957611c4961410d565b60200260200101516020015183611c6091906140f5565b9250611e08565b6001600160a01b03811615611e08576040516370a0823160e01b81523060048201526000906001600160a01b038316906370a0823190602401602060405180830381865afa158015611cbd573d6000803e3d6000fd5b505050506040513d601f19601f82011682018060405250810190611ce19190614096565b90506000858481518110611cf757611cf761410d565b60200260200101516020015182611d0e91906140f5565b90508015611e0557600e546040516377ccc49d60e11b8152600481018390526001600160a01b0385811660248301527f000000000000000000000000000000000000000000000000000000000000000081166044830152600092169063ef99893a90606401600060405180830381865afa158015611d90573d6000803e3d6000fd5b505050506040513d6000823e601f3d908101601f19168201604052611db8919081019061429b565b9050600181600001515111611dce576000611df7565b80518051611dde9060019061407f565b81518110611dee57611dee61410d565b60200260200101515b611e0190876140f5565b9550505b50505b5080611e1381614123565b915050611b6b565b6007546001600160a01b03163314611e6c5760405162461bcd60e51b81526020600482015260146024820152732cb0b5a9ba3930ba32b3bc9d1d37b7363ca232bb60611b6044820152606401610af2565b600e54604080516001600160a01b03928316815291831660208301527f2c6fb4d5ff9fad6ecf2e09cd64cbc9aad92a8b9d2cc0e5c3ddef9b529b0b5ffd910160405180910390a1600e80546001600160a01b0319166001600160a01b0392909216919091179055565b6006546001600160a01b03163314611f2f5760405162461bcd60e51b815260206004820181905260248201527f4f776e61626c653a2063616c6c6572206973206e6f7420746865206f776e65726044820152606401610af2565b600854604080516001600160a01b03928316815291831660208301527fcc882185e6edeeb762130016ea1faf3d7aa9c01b199bfd646f965b58ab741063910160405180910390a1600880546001600160a01b0319166001600160a01b0392909216919091179055565b42841015611fe85760405162461bcd60e51b815260206004820152600f60248201527f7065726d69743a3a6578706972656400000000000000000000000000000000006044820152606401610af2565b6001600160a01b038716600090815260056020526040812080547f6e71edae12b1b97f4d1f60370fef10105fa2faae0126114a169c64845d6126c9918a918a918a91908661203583614123565b909155506040805160208101969096526001600160a01b0394851690860152929091166060840152608083015260a082015260c0810186905260e0016040516020818303038152906040528051906020012090506120968882868686612c80565b6120a188888861237e565b5050505050505050565b6000806120b66111e9565b6002549091508015806120c7575081155b156120d457509192915050565b816120df8286614152565b6120e99190614171565b949350505050565b600d818154811061210157600080fd5b6000918252602090912001546001600160a01b0316905081565b6000806121266111e9565b600254909150801580612137575081155b15612146575060009392505050565b806120df8386614152565b60007f8b73c3c69bb8fe3d512ecc4cf759cc79239f7b179b0ffacaa9a75d522b39400f60001b600060405161218691906143b0565b6040519081900390207fc89efdaa54c0f20c7adf612882df0950f5a951637e0307cdcb4c672f298b8bc646604080516020810195909552840192909252606083015260808201523060a082015260c00160405160208183030381529060405280519060200120905090565b6006546001600160a01b0316331461224b5760405162461bcd60e51b815260206004820181905260248201527f4f776e61626c653a2063616c6c6572206973206e6f7420746865206f776e65726044820152606401610af2565b6001600160a01b0381166122c75760405162461bcd60e51b815260206004820152602660248201527f4f776e61626c653a206e6577206f776e657220697320746865207a65726f206160448201527f64647265737300000000000000000000000000000000000000000000000000006064820152608401610af2565b6006546040516001600160a01b038084169216907f8be0079c531659141344cd1fd0a4f28419497f9722a3daafe3b4186f6b6457e090600090a3600680546001600160a01b0319166001600160a01b0392909216919091179055565b3233146123725760405162461bcd60e51b815260206004820152601460248201527f59616b53747261746567793a3a6f6e6c79454f410000000000000000000000006044820152606401610af2565b61237c6000612de0565b565b6001600160a01b0383166123d45760405162461bcd60e51b815260206004820152601c60248201527f5f617070726f76653a3a6f776e6572207a65726f2061646472657373000000006044820152606401610af2565b6001600160a01b03821661242a5760405162461bcd60e51b815260206004820152601e60248201527f5f617070726f76653a3a7370656e646572207a65726f206164647265737300006044820152606401610af2565b6001600160a01b0383811660008181526003602090815260408083209487168084529482529182902085905590518481527f8c5be1e5ebec7d5bd14f71427d1e84f3dd0314c0f7b2291e5b200ac8c7c3b92591015b60405180910390a3505050565b60008061271061249c8285614152565b610a6c9190614171565b6001600160a01b0382166125225760405162461bcd60e51b815260206004820152603460248201527f5f7472616e73666572546f6b656e733a2063616e6e6f74207472616e7366657260448201527f20746f20746865207a65726f20616464726573730000000000000000000000006064820152608401610af2565b6001600160a01b03831660009081526004602052604090205461254690829061407f565b6001600160a01b0380851660009081526004602052604080822093909355908416815220546125769082906140f5565b6001600160a01b0380841660008181526004602052604090819020939093559151908516907fddf252ad1be2c89b69c2b068fc378daa952ba7f163c4a11628f55a4df523b3ef9061247f9085815260200190565b6040517f0ad58d2f0000000000000000000000000000000000000000000000000000000081527f00000000000000000000000000000000000000000000000000000000000000006004820152602481018290523060448201526000907f00000000000000000000000000000000000000000000000000000000000000006001600160a01b031690630ad58d2f90606401600060405180830381600087803b15801561267457600080fd5b505af1158015612688573d6000803e3d6000fd5b5093949350505050565b604080516001600160a01b038416602482015260448082018490528251808303909101815260649091019091526020810180517bffffffffffffffffffffffffffffffffffffffffffffffffffffffff167fa9059cbb00000000000000000000000000000000000000000000000000000000179052610fa1908490612f45565b6001600160a01b03821660009081526004602052604090205461273690829061407f565b6001600160a01b03831660009081526004602052604090205560025461275d90829061407f565b6002556040518181526000906001600160a01b038416907fddf252ad1be2c89b69c2b068fc378daa952ba7f163c4a11628f55a4df523b3ef906020015b60405180910390a35050565b600a5460ff1615156001146127fd5760405162461bcd60e51b815260206004820152601f60248201527f4261736553747261746567793a3a4465706f736974732064697361626c6564006044820152606401610af2565b6128076001612de0565b6040517f23b872dd000000000000000000000000000000000000000000000000000000008152336004820152306024820152604481018290527f00000000000000000000000000000000000000000000000000000000000000006001600160a01b0316906323b872dd906064016020604051808303816000875af1158015612893573d6000803e3d6000fd5b505050506040513d601f19601f820116820180604052508101906128b791906140af565b6129295760405162461bcd60e51b815260206004820152602b60248201527f4261736553747261746567793a3a4465706f73697420746f6b656e207472616e60448201527f73666572206661696c65640000000000000000000000000000000000000000006064820152608401610af2565b60006129348261248c565b905061294c8361294761086d848661407f565b61302a565b6129568282613100565b826001600160a01b03167fe1fffcc4923d04b559f4d29a8bfc6cda04eb5b0d3c460751c2402c5c5cc9109c8360405161299191815260200190565b60405180910390a2505050565b60405163095ea7b360e01b81526001600160a01b037f000000000000000000000000000000000000000000000000000000000000000081166004830152600060248301527f0000000000000000000000000000000000000000000000000000000000000000169063095ea7b3906044016020604051808303816000875af1158015612a2d573d6000803e3d6000fd5b505050506040513d601f19601f82011682018060405250810190612a5191906140af565b506040517f2f940c700000000000000000000000000000000000000000000000000000000081527f000000000000000000000000000000000000000000000000000000000000000060048201523060248201527f00000000000000000000000000000000000000000000000000000000000000006001600160a01b031690632f940c70906044015b600060405180830381600087803b158015612af357600080fd5b505af1158015612b07573d6000803e3d6000fd5b50505050565b60408051600180825281830190925260609160009190816020015b6040805180820190915260008082526020820152815260200190600190039081612b28579050506040517f1491f6fe0000000000000000000000000000000000000000000000000000000081527f000000000000000000000000000000000000000000000000000000000000000060048201523060248201529091506000906001600160a01b037f00000000000000000000000000000000000000000000000000000000000000001690631491f6fe90604401602060405180830381865afa158015612bf8573d6000803e3d6000fd5b505050506040513d601f19601f82011682018060405250810190612c1c9190614096565b905060405180604001604052807f00000000000000000000000000000000000000000000000000000000000000006001600160a01b031681526020018281525082600081518110612c6f57612c6f61410d565b602090810291909101015250919050565b6000612c8a612151565b6040517f1901000000000000000000000000000000000000000000000000000000000000602082015260228101919091526042810186905260620160408051601f198184030181528282528051602091820120600080855291840180845281905260ff88169284019290925260608301869052608083018590529092509060019060a0016020604051602081039080840390855afa158015612d30573d6000803e3d6000fd5b5050604051601f1901519150506001600160a01b03811615801590612d665750866001600160a01b0316816001600160a01b0316145b612dd75760405162461bcd60e51b8152602060048201526024808201527f417263683a3a76616c69646174655369673a20696e76616c6964207369676e6160448201527f74757265000000000000000000000000000000000000000000000000000000006064820152608401610af2565b50505050505050565b6000612dea613180565b9050600954811115610ba3576000612710600c5483612e099190614152565b612e139190614171565b90508015612e5557600854612e55906001600160a01b037f00000000000000000000000000000000000000000000000000000000000000008116911683612692565b600083612e7c57612710600b5484612e6d9190614152565b612e779190614171565b612e7f565b60005b90508015612ebb57612ebb6001600160a01b037f0000000000000000000000000000000000000000000000000000000000000000163383612692565b6000612eda82612ecb858761407f565b612ed5919061407f565b6134f2565b90508015610c6e576000612eed8261248c565b9050612ef98282613100565b7fc7606d21ac05cd309191543e409f0845c016120563783d70e4f41419dc0ef234612f226111e9565b6002546040805192835260208301919091520160405180910390a1505050505050565b6000612f9a826040518060400160405280602081526020017f5361666545524332303a206c6f772d6c6576656c2063616c6c206661696c6564815250856001600160a01b03166138269092919063ffffffff16565b805190915015610fa15780806020019051810190612fb891906140af565b610fa15760405162461bcd60e51b815260206004820152602a60248201527f5361666545524332303a204552433230206f7065726174696f6e20646964206e60448201527f6f742073756363656564000000000000000000000000000000000000000000006064820152608401610af2565b6000811161307a5760405162461bcd60e51b815260206004820152601260248201527f5f6d696e743a3a7a65726f2073686172657300000000000000000000000000006044820152606401610af2565b8060025461308891906140f5565b6002556001600160a01b0382166000908152600460205260409020546130af9082906140f5565b6001600160a01b0383166000818152600460205260408082209390935591519091907fddf252ad1be2c89b69c2b068fc378daa952ba7f163c4a11628f55a4df523b3ef9061279a9085815260200190565b600082116131765760405162461bcd60e51b815260206004820152602260248201527f4261736553747261746567793a3a5374616b6520616d6f756e7420746f6f206c60448201527f6f770000000000000000000000000000000000000000000000000000000000006064820152608401610af2565b610ba38282613835565b600061318a613a5b565b6040516370a0823160e01b81523060048201526000907f00000000000000000000000000000000000000000000000000000000000000006001600160a01b0316906370a0823190602401602060405180830381865afa1580156131f1573d6000803e3d6000fd5b505050506040513d601f19601f820116820180604052508101906132159190614096565b600d5490915060005b818110156134ea576000600d828154811061323b5761323b61410d565b6000918252602090912001546001600160a01b0390811691507f0000000000000000000000000000000000000000000000000000000000000000168103613366574780156132f8577f00000000000000000000000000000000000000000000000000000000000000006001600160a01b031663d0e30db0826040518263ffffffff1660e01b81526004016000604051808303818588803b1580156132de57600080fd5b505af11580156132f2573d6000803e3d6000fd5b50505050505b7f00000000000000000000000000000000000000000000000000000000000000006001600160a01b03167f00000000000000000000000000000000000000000000000000000000000000006001600160a01b0316036133645761335b81866140f5565b945050506134d8565b505b6040516370a0823160e01b81523060048201526000906001600160a01b038316906370a0823190602401602060405180830381865afa1580156133ad573d6000803e3d6000fd5b505050506040513d601f19601f820116820180604052508101906133d19190614096565b905060008111801561341557507f00000000000000000000000000000000000000000000000000000000000000006001600160a01b0316826001600160a01b031614155b156134d557600e546040516377ccc49d60e11b8152600481018390526001600160a01b0384811660248301527f000000000000000000000000000000000000000000000000000000000000000081166044830152600092169063ef99893a90606401600060405180830381865afa158015613494573d6000803e3d6000fd5b505050506040513d6000823e601f3d908101601f191682016040526134bc919081019061429b565b90506134c781613ae6565b6134d190876140f5565b9550505b50505b806134e281614123565b91505061321e565b509092915050565b60007f00000000000000000000000000000000000000000000000000000000000000006001600160a01b03167f00000000000000000000000000000000000000000000000000000000000000006001600160a01b03161461361e57600e546040516377ccc49d60e11b8152600481018490526001600160a01b037f0000000000000000000000000000000000000000000000000000000000000000811660248301527f000000000000000000000000000000000000000000000000000000000000000081166044830152600092169063ef99893a90606401600060405180830381865afa1580156135e7573d6000803e3d6000fd5b505050506040513d6000823e601f3d908101601f1916820160405261360f919081019061429b565b905061361a81613ae6565b9250505b60405163095ea7b360e01b81526001600160a01b037f000000000000000000000000000000000000000000000000000000000000000081166004830152602482018490527f0000000000000000000000000000000000000000000000000000000000000000169063095ea7b3906044016020604051808303816000875af11580156136ad573d6000803e3d6000fd5b505050506040513d601f19601f820116820180604052508101906136d191906140af565b5060007f000000000000000000000000000000000000000000000000000000000000000067ffffffffffffffff81111561370d5761370d614193565b604051908082528060200260200182016040528015613736578160200160208202803683370190505b50905082817f00000000000000000000000000000000000000000000000000000000000000008151811061376c5761376c61410d565b60209081029190910101526040517f4d49e87d0000000000000000000000000000000000000000000000000000000081526001600160a01b037f00000000000000000000000000000000000000000000000000000000000000001690634d49e87d906137e390849060009060001990600401614486565b6020604051808303816000875af1158015613802573d6000803e3d6000fd5b505050506040513d601f19601f82011682018060405250810190610a6c9190614096565b60606120e98484600085613c93565b60405163095ea7b360e01b81526001600160a01b037f000000000000000000000000000000000000000000000000000000000000000081166004830152602482018490527f0000000000000000000000000000000000000000000000000000000000000000169063095ea7b3906044016020604051808303816000875af11580156138c4573d6000803e3d6000fd5b505050506040513d601f19601f820116820180604052508101906138e891906140af565b506040517f8dbdbe6d0000000000000000000000000000000000000000000000000000000081527f00000000000000000000000000000000000000000000000000000000000000006004820152602481018390523060448201527f00000000000000000000000000000000000000000000000000000000000000006001600160a01b031690638dbdbe6d90606401600060405180830381600087803b15801561399057600080fd5b505af11580156139a4573d6000803e3d6000fd5b505060405163095ea7b360e01b81526001600160a01b037f000000000000000000000000000000000000000000000000000000000000000081166004830152600060248301527f000000000000000000000000000000000000000000000000000000000000000016925063095ea7b391506044016020604051808303816000875af1158015613a37573d6000803e3d6000fd5b505050506040513d601f19601f82011682018060405250810190610fa191906140af565b6040517f18fccc760000000000000000000000000000000000000000000000000000000081527f000000000000000000000000000000000000000000000000000000000000000060048201523060248201527f00000000000000000000000000000000000000000000000000000000000000006001600160a01b0316906318fccc7690604401612ad9565b80515160009015801590613b2357508151805160009190613b099060019061407f565b81518110613b1957613b1961410d565b6020026020010151115b15613c8b578160400151600081518110613b3f57613b3f61410d565b60200260200101516001600160a01b031663095ea7b3600e60009054906101000a90046001600160a01b03168460000151600081518110613b8257613b8261410d565b60200260200101516040518363ffffffff1660e01b8152600401613bbb9291906001600160a01b03929092168252602082015260400190565b6020604051808303816000875af1158015613bda573d6000803e3d6000fd5b505050506040513d601f19601f82011682018060405250810190613bfe91906140af565b50600e546040517f5b2466160000000000000000000000000000000000000000000000000000000081526001600160a01b0390911690635b24661690613c489085906004016144e4565b6020604051808303816000875af1158015613c67573d6000803e3d6000fd5b505050506040513d601f19601f820116820180604052508101906109a49190614096565b506000919050565b606082471015613d0b5760405162461bcd60e51b815260206004820152602660248201527f416464726573733a20696e73756666696369656e742062616c616e636520666f60448201527f722063616c6c00000000000000000000000000000000000000000000000000006064820152608401610af2565b6001600160a01b0385163b613d625760405162461bcd60e51b815260206004820152601d60248201527f416464726573733a2063616c6c20746f206e6f6e2d636f6e74726163740000006044820152606401610af2565b600080866001600160a01b03168587604051613d7e9190614553565b60006040518083038185875af1925050503d8060008114613dbb576040519150601f19603f3d011682016040523d82523d6000602084013e613dc0565b606091505b5091509150613dd0828286613ddb565b979650505050505050565b60608315613dea575081610a6c565b825115613dfa5782518084602001fd5b8160405162461bcd60e51b8152600401610af29190613e40565b60005b83811015613e2f578181015183820152602001613e17565b83811115612b075750506000910152565b6020815260008251806020840152613e5f816040850160208701613e14565b601f01601f19169190910160400192915050565b6001600160a01b0381168114611a8b57600080fd5b60008060408385031215613e9b57600080fd5b8235613ea681613e73565b946020939093013593505050565b600060208284031215613ec657600080fd5b5035919050565b600080600060608486031215613ee257600080fd5b8335613eed81613e73565b92506020840135613efd81613e73565b929592945050506040919091013590565b803560ff81168114613f1f57600080fd5b919050565b600080600080600060a08688031215613f3c57600080fd5b8535945060208601359350613f5360408701613f0e565b94979396509394606081013594506080013592915050565b600060208284031215613f7d57600080fd5b8135610a6c81613e73565b60008060408385031215613f9b57600080fd5b8235613fa681613e73565b91506020830135613fb681613e73565b809150509250929050565b600080600080600080600060e0888a031215613fdc57600080fd5b8735613fe781613e73565b96506020880135613ff781613e73565b9550604088013594506060880135935061401360808901613f0e565b925060a0880135915060c0880135905092959891949750929550565b600181811c9082168061404357607f821691505b60208210810361406357634e487b7160e01b600052602260045260246000fd5b50919050565b634e487b7160e01b600052601160045260246000fd5b60008282101561409157614091614069565b500390565b6000602082840312156140a857600080fd5b5051919050565b6000602082840312156140c157600080fd5b81518015158114610a6c57600080fd5b600080604083850312156140e457600080fd5b505080516020909101519092909150565b6000821982111561410857614108614069565b500190565b634e487b7160e01b600052603260045260246000fd5b60006001820161413557614135614069565b5060010190565b634e487b7160e01b600052603160045260246000fd5b600081600019048311821515161561416c5761416c614069565b500290565b60008261418e57634e487b7160e01b600052601260045260246000fd5b500490565b634e487b7160e01b600052604160045260246000fd5b6040516080810167ffffffffffffffff811182821017156141cc576141cc614193565b60405290565b604051601f8201601f1916810167ffffffffffffffff811182821017156141fb576141fb614193565b604052919050565b600067ffffffffffffffff82111561421d5761421d614193565b5060051b60200190565b600082601f83011261423857600080fd5b8151602061424d61424883614203565b6141d2565b82815260059290921b8401810191818101908684111561426c57600080fd5b8286015b8481101561429057805161428381613e73565b8352918301918301614270565b509695505050505050565b600060208083850312156142ae57600080fd5b825167ffffffffffffffff808211156142c657600080fd5b90840190608082870312156142da57600080fd5b6142e26141a9565b8251828111156142f157600080fd5b8301601f8101881361430257600080fd5b805161431061424882614203565b81815260059190911b8201860190868101908a83111561432f57600080fd5b928701925b8284101561434d57835182529287019290870190614334565b8452505050828401518281111561436357600080fd5b61436f88828601614227565b8583015250604083015193508184111561438857600080fd5b61439487858501614227565b6040820152606083015160608201528094505050505092915050565b600080835481600182811c9150808316806143cc57607f831692505b602080841082036143eb57634e487b7160e01b86526022600452602486fd5b8180156143ff57600181146144105761443d565b60ff1986168952848901965061443d565b60008a81526020902060005b868110156144355781548b82015290850190830161441c565b505084890196505b509498975050505050505050565b600081518084526020808501945080840160005b8381101561447b5781518752958201959082019060010161445f565b509495945050505050565b606081526000614499606083018661444b565b60208301949094525060400152919050565b600081518084526020808501945080840160005b8381101561447b5781516001600160a01b0316875295820195908201906001016144bf565b60208152600082516080602084015261450060a084018261444b565b90506020840151601f198085840301604086015261451e83836144ab565b925060408601519150808584030160608601525061453c82826144ab565b915050606084015160808401528091505092915050565b60008251614565818460208701613e14565b919091019291505056fea26469706673582212206a0936852cfa903fe84af0b2f23be3a857c6b3f8618df03b223e706436db80ce64736f6c634300080d00334f776e61626c653a2063616c6c6572206973206e6f7420746865206f776e65728be0079c531659141344cd1fd0a4f28419497f9722a3daafe3b4186f6b6457e0",
  "devdoc": {
    "kind": "dev",
    "methods": {
      "allowance(address,address)": {
        "params": {
          "account": "The address of the account holding the funds",
          "spender": "The address of the account spending the funds"
        },
        "returns": {
          "_0": "The number of tokens approved"
        }
      },
      "approve(address,uint256)": {
        "details": "This will overwrite the approval amount for `spender` and is subject to issues noted [here](https://eips.ethereum.org/EIPS/eip-20#approve) It is recommended to use increaseAllowance and decreaseAllowance instead",
        "params": {
          "amount": "The number of tokens that are approved (2^256-1 means infinite)",
          "spender": "The address of the account which may transfer tokens"
        },
        "returns": {
          "_0": "Whether or not the approval succeeded"
        }
      },
      "balanceOf(address)": {
        "params": {
          "account": "The address of the account to get the balance of"
        },
        "returns": {
          "_0": "The number of tokens held"
        }
      },
      "checkReward()": {
        "returns": {
          "_0": "reward tokens"
        }
      },
      "deposit(uint256)": {
        "params": {
          "_amount": "Amount of tokens to deposit"
        }
      },
      "depositWithPermit(uint256,uint256,uint8,bytes32,bytes32)": {
        "params": {
          "_amount": "Amount of tokens to deposit",
          "_deadline": "The time at which to expire the signature",
          "_r": "Half of the ECDSA signature pair",
          "_s": "Half of the ECDSA signature pair",
          "_v": "The recovery byte of the signature"
        }
      },
      "estimateReinvestReward()": {
        "returns": {
          "_0": "reward tokens"
        }
      },
      "getDepositTokensForShares(uint256)": {
        "params": {
          "amount": "receipt tokens"
        },
        "returns": {
          "_0": "deposit tokens"
        }
      },
      "getDomainSeparator()": {
        "returns": {
          "_0": "Separator"
        }
      },
      "getSharesForDepositTokens(uint256)": {
        "details": "If contract is empty, use 1:1 ratioCould return zero shares for very low amounts of deposit tokens",
        "params": {
          "amount": "deposit tokens"
        },
        "returns": {
          "_0": "receipt tokens"
        }
      },
      "owner()": {
        "details": "Returns the address of the current owner."
      },
      "permit(address,address,uint256,uint256,uint8,bytes32,bytes32)": {
        "params": {
          "deadline": "The time at which to expire the signature",
          "owner": "The address to approve from",
          "r": "Half of the ECDSA signature pair",
          "s": "Half of the ECDSA signature pair",
          "spender": "The address to be approved",
          "v": "The recovery byte of the signature",
          "value": "The number of tokens that are approved (2^256-1 means infinite)"
        }
      },
      "recoverERC20(address,uint256)": {
        "params": {
          "tokenAddress": "token address",
          "tokenAmount": "amount to recover"
        }
      },
      "recoverGas(uint256)": {
        "params": {
          "amount": "amount"
        }
      },
      "renounceOwnership()": {
        "details": "Leaves the contract without owner. It will not be possible to call `onlyOwner` functions anymore. Can only be called by the current owner. NOTE: Renouncing ownership will leave the contract without an owner, thereby removing any functionality that is only available to the owner."
      },
      "revokeAllowance(address,address)": {
        "params": {
          "spender": "address",
          "token": "address"
        }
      },
      "totalDeposits()": {
        "returns": {
          "_0": "total deposits available on the contract"
        }
      },
      "transfer(address,uint256)": {
        "params": {
          "amount": "The number of tokens to transfer",
          "dst": "The address of the destination account"
        },
        "returns": {
          "_0": "Whether or not the transfer succeeded"
        }
      },
      "transferFrom(address,address,uint256)": {
        "params": {
          "amount": "The number of tokens to transfer",
          "dst": "The address of the destination account",
          "src": "The address of the source account"
        },
        "returns": {
          "_0": "Whether or not the transfer succeeded"
        }
      },
      "transferOwnership(address)": {
        "details": "Transfers ownership of the contract to a new account (`newOwner`). Can only be called by the current owner."
      },
      "updateDevAddr(address)": {
        "params": {
          "newValue": "address"
        }
      },
      "updateDevFee(uint256)": {
        "params": {
          "newValue": "fee in BIPS"
        }
      },
      "updateFeeCollector(address)": {
        "params": {
          "newValue": "address"
        }
      },
      "updateMinTokensToReinvest(uint256)": {
        "params": {
          "newValue": "threshold"
        }
      },
      "updateReinvestReward(uint256)": {
        "params": {
          "newValue": "fee in BIPS"
        }
      }
    },
    "version": 1
  },
  "userdoc": {
    "kind": "user",
    "methods": {
      "allowance(address,address)": {
        "notice": "Get the number of tokens `spender` is approved to spend on behalf of `account`"
      },
      "approve(address,uint256)": {
        "notice": "Approve `spender` to transfer up to `amount` from `src`"
      },
      "balanceOf(address)": {
        "notice": "Get the number of tokens held by the `account`"
      },
      "checkReward()": {
        "notice": "Reward tokens available to strategy, including balance"
      },
      "deposit(uint256)": {
        "notice": "Deposit tokens to receive receipt tokens"
      },
      "depositWithPermit(uint256,uint256,uint8,bytes32,bytes32)": {
        "notice": "Deposit using Permit"
      },
      "disableDeposits()": {
        "notice": "Disable deposits"
      },
      "enableDeposits()": {
        "notice": "Enable deposits"
      },
      "estimateReinvestReward()": {
        "notice": "Estimate reinvest reward"
      },
      "getDepositTokensForShares(uint256)": {
        "notice": "Calculate deposit tokens for a given amount of receipt tokens"
      },
      "getDomainSeparator()": {
        "notice": "EIP-712 Domain separator"
      },
      "getSharesForDepositTokens(uint256)": {
        "notice": "Calculate receipt tokens for a given amount of deposit tokens"
      },
      "permit(address,address,uint256,uint256,uint8,bytes32,bytes32)": {
        "notice": "Triggers an approval from owner to spender"
      },
      "recoverERC20(address,uint256)": {
        "notice": "Recover ERC20 from contract"
      },
      "recoverGas(uint256)": {
        "notice": "Recover GAS from contract"
      },
      "reinvest()": {
        "notice": "Reinvest reward tokens into deposit tokens"
      },
      "revokeAllowance(address,address)": {
        "notice": "Revoke token allowance"
      },
      "totalDeposits()": {
        "notice": "This function returns a snapshot of last available quotes"
      },
      "transfer(address,uint256)": {
        "notice": "Transfer `amount` tokens from `msg.sender` to `dst`"
      },
      "transferFrom(address,address,uint256)": {
        "notice": "Transfer `amount` tokens from `src` to `dst`"
      },
      "updateDevAddr(address)": {
        "notice": "Update devAddr"
      },
      "updateDevFee(uint256)": {
        "notice": "Update developer fee"
      },
      "updateFeeCollector(address)": {
        "notice": "Update feeCollector"
      },
      "updateMinTokensToReinvest(uint256)": {
        "notice": "Update reinvest min threshold"
      },
      "updateReinvestReward(uint256)": {
        "notice": "Update reinvest reward"
      }
    },
    "version": 1
  },
  "storageLayout": {
    "storage": [
      {
        "astId": 552,
        "contract": "contracts/strategies/crosschain/synapse/SynapseStrategy.sol:SynapseStrategy",
        "label": "name",
        "offset": 0,
        "slot": "0",
        "type": "t_string_storage"
      },
      {
        "astId": 555,
        "contract": "contracts/strategies/crosschain/synapse/SynapseStrategy.sol:SynapseStrategy",
        "label": "symbol",
        "offset": 0,
        "slot": "1",
        "type": "t_string_storage"
      },
      {
        "astId": 560,
        "contract": "contracts/strategies/crosschain/synapse/SynapseStrategy.sol:SynapseStrategy",
        "label": "totalSupply",
        "offset": 0,
        "slot": "2",
        "type": "t_uint256"
      },
      {
        "astId": 566,
        "contract": "contracts/strategies/crosschain/synapse/SynapseStrategy.sol:SynapseStrategy",
        "label": "allowances",
        "offset": 0,
        "slot": "3",
        "type": "t_mapping(t_address,t_mapping(t_address,t_uint256))"
      },
      {
        "astId": 570,
        "contract": "contracts/strategies/crosschain/synapse/SynapseStrategy.sol:SynapseStrategy",
        "label": "balances",
        "offset": 0,
        "slot": "4",
        "type": "t_mapping(t_address,t_uint256)"
      },
      {
        "astId": 586,
        "contract": "contracts/strategies/crosschain/synapse/SynapseStrategy.sol:SynapseStrategy",
        "label": "nonces",
        "offset": 0,
        "slot": "5",
        "type": "t_mapping(t_address,t_uint256)"
      },
      {
        "astId": 8982,
        "contract": "contracts/strategies/crosschain/synapse/SynapseStrategy.sol:SynapseStrategy",
        "label": "_owner",
        "offset": 0,
        "slot": "6",
        "type": "t_address"
      },
      {
        "astId": 2566,
        "contract": "contracts/strategies/crosschain/synapse/SynapseStrategy.sol:SynapseStrategy",
        "label": "devAddr",
        "offset": 0,
        "slot": "7",
        "type": "t_address"
      },
      {
        "astId": 2568,
        "contract": "contracts/strategies/crosschain/synapse/SynapseStrategy.sol:SynapseStrategy",
        "label": "feeCollector",
        "offset": 0,
        "slot": "8",
        "type": "t_address"
      },
      {
        "astId": 2570,
        "contract": "contracts/strategies/crosschain/synapse/SynapseStrategy.sol:SynapseStrategy",
        "label": "MIN_TOKENS_TO_REINVEST",
        "offset": 0,
        "slot": "9",
        "type": "t_uint256"
      },
      {
        "astId": 2572,
        "contract": "contracts/strategies/crosschain/synapse/SynapseStrategy.sol:SynapseStrategy",
        "label": "DEPOSITS_ENABLED",
        "offset": 0,
        "slot": "10",
        "type": "t_bool"
      },
      {
        "astId": 2574,
        "contract": "contracts/strategies/crosschain/synapse/SynapseStrategy.sol:SynapseStrategy",
        "label": "REINVEST_REWARD_BIPS",
        "offset": 0,
        "slot": "11",
        "type": "t_uint256"
      },
      {
        "astId": 2576,
        "contract": "contracts/strategies/crosschain/synapse/SynapseStrategy.sol:SynapseStrategy",
        "label": "DEV_FEE_BIPS",
        "offset": 0,
        "slot": "12",
        "type": "t_uint256"
      },
      {
        "astId": 10581,
        "contract": "contracts/strategies/crosschain/synapse/SynapseStrategy.sol:SynapseStrategy",
        "label": "supportedRewards",
        "offset": 0,
        "slot": "13",
        "type": "t_array(t_address)dyn_storage"
      },
      {
        "astId": 10584,
        "contract": "contracts/strategies/crosschain/synapse/SynapseStrategy.sol:SynapseStrategy",
        "label": "simpleRouter",
        "offset": 0,
        "slot": "14",
        "type": "t_contract(ISimpleRouter)6390"
      }
    ],
    "types": {
      "t_address": {
        "encoding": "inplace",
        "label": "address",
        "numberOfBytes": "20"
      },
      "t_array(t_address)dyn_storage": {
        "base": "t_address",
        "encoding": "dynamic_array",
        "label": "address[]",
        "numberOfBytes": "32"
      },
      "t_bool": {
        "encoding": "inplace",
        "label": "bool",
        "numberOfBytes": "1"
      },
      "t_contract(ISimpleRouter)6390": {
        "encoding": "inplace",
        "label": "contract ISimpleRouter",
        "numberOfBytes": "20"
      },
      "t_mapping(t_address,t_mapping(t_address,t_uint256))": {
        "encoding": "mapping",
        "key": "t_address",
        "label": "mapping(address => mapping(address => uint256))",
        "numberOfBytes": "32",
        "value": "t_mapping(t_address,t_uint256)"
      },
      "t_mapping(t_address,t_uint256)": {
        "encoding": "mapping",
        "key": "t_address",
        "label": "mapping(address => uint256)",
        "numberOfBytes": "32",
        "value": "t_uint256"
      },
      "t_string_storage": {
        "encoding": "bytes",
        "label": "string",
        "numberOfBytes": "32"
      },
      "t_uint256": {
        "encoding": "inplace",
        "label": "uint256",
        "numberOfBytes": "32"
      }
    }
  }
}