{
  "address": "0x4649c7c3316B27C4A3DB5f3B47f87C687776Eb8C",
  "abi": [
    {
      "inputs": [
        {
          "components": [
            {
              "internalType": "address",
              "name": "poolDepositor",
              "type": "address"
            },
            {
              "internalType": "address",
              "name": "rewardPool",
              "type": "address"
            }
          ],
          "internalType": "struct WombexStrategy.WombexStrategySettings",
          "name": "_wombexStrategySettings",
          "type": "tuple"
        },
        {
          "components": [
            {
              "internalType": "address",
              "name": "gasToken",
              "type": "address"
            },
            {
              "internalType": "address[]",
              "name": "rewards",
              "type": "address[]"
            },
            {
              "internalType": "address",
              "name": "simpleRouter",
              "type": "address"
            }
          ],
          "internalType": "struct BaseStrategy.BaseStrategySettings",
          "name": "baseStrategySettings",
          "type": "tuple"
        },
        {
          "components": [
            {
              "internalType": "string",
              "name": "name",
              "type": "string"
            },
            {
              "internalType": "address",
              "name": "owner",
              "type": "address"
            },
            {
              "internalType": "address",
              "name": "dev",
              "type": "address"
            },
            {
              "internalType": "address",
              "name": "feeCollector",
              "type": "address"
            },
            {
              "internalType": "address",
              "name": "depositToken",
              "type": "address"
            },
            {
              "internalType": "address",
              "name": "rewardToken",
              "type": "address"
            },
            {
              "internalType": "uint256",
              "name": "minTokensToReinvest",
              "type": "uint256"
            },
            {
              "internalType": "uint256",
              "name": "devFeeBips",
              "type": "uint256"
            },
            {
              "internalType": "uint256",
              "name": "reinvestRewardBips",
              "type": "uint256"
            }
          ],
          "internalType": "struct YakStrategyV3.StrategySettings",
          "name": "_strategySettings",
          "type": "tuple"
        }
      ],
      "stateMutability": "nonpayable",
      "type": "constructor"
    },
    {
      "anonymous": false,
      "inputs": [
        {
          "indexed": false,
          "internalType": "address",
          "name": "rewardToken",
          "type": "address"
        }
      ],
      "name": "AddReward",
      "type": "event"
    },
    {
      "anonymous": false,
      "inputs": [
        {
          "indexed": true,
          "internalType": "address",
          "name": "owner",
          "type": "address"
        },
        {
          "indexed": true,
          "internalType": "address",
          "name": "spender",
          "type": "address"
        },
        {
          "indexed": false,
          "internalType": "uint256",
          "name": "value",
          "type": "uint256"
        }
      ],
      "name": "Approval",
      "type": "event"
    },
    {
      "anonymous": false,
      "inputs": [
        {
          "indexed": true,
          "internalType": "address",
          "name": "account",
          "type": "address"
        },
        {
          "indexed": false,
          "internalType": "uint256",
          "name": "amount",
          "type": "uint256"
        }
      ],
      "name": "Deposit",
      "type": "event"
    },
    {
      "anonymous": false,
      "inputs": [
        {
          "indexed": false,
          "internalType": "bool",
          "name": "newValue",
          "type": "bool"
        }
      ],
      "name": "DepositsEnabled",
      "type": "event"
    },
    {
      "anonymous": false,
      "inputs": [
        {
          "indexed": true,
          "internalType": "address",
          "name": "previousOwner",
          "type": "address"
        },
        {
          "indexed": true,
          "internalType": "address",
          "name": "newOwner",
          "type": "address"
        }
      ],
      "name": "OwnershipTransferred",
      "type": "event"
    },
    {
      "anonymous": false,
      "inputs": [
        {
          "indexed": false,
          "internalType": "address",
          "name": "token",
          "type": "address"
        },
        {
          "indexed": false,
          "internalType": "uint256",
          "name": "amount",
          "type": "uint256"
        }
      ],
      "name": "Recovered",
      "type": "event"
    },
    {
      "anonymous": false,
      "inputs": [
        {
          "indexed": false,
          "internalType": "uint256",
          "name": "newTotalDeposits",
          "type": "uint256"
        },
        {
          "indexed": false,
          "internalType": "uint256",
          "name": "newTotalSupply",
          "type": "uint256"
        }
      ],
      "name": "Reinvest",
      "type": "event"
    },
    {
      "anonymous": false,
      "inputs": [
        {
          "indexed": false,
          "internalType": "address",
          "name": "rewardToken",
          "type": "address"
        }
      ],
      "name": "RemoveReward",
      "type": "event"
    },
    {
      "anonymous": false,
      "inputs": [
        {
          "indexed": true,
          "internalType": "address",
          "name": "from",
          "type": "address"
        },
        {
          "indexed": true,
          "internalType": "address",
          "name": "to",
          "type": "address"
        },
        {
          "indexed": false,
          "internalType": "uint256",
          "name": "value",
          "type": "uint256"
        }
      ],
      "name": "Transfer",
      "type": "event"
    },
    {
      "anonymous": false,
      "inputs": [
        {
          "indexed": false,
          "internalType": "address",
          "name": "oldValue",
          "type": "address"
        },
        {
          "indexed": false,
          "internalType": "address",
          "name": "newValue",
          "type": "address"
        }
      ],
      "name": "UpdateDevAddr",
      "type": "event"
    },
    {
      "anonymous": false,
      "inputs": [
        {
          "indexed": false,
          "internalType": "uint256",
          "name": "oldValue",
          "type": "uint256"
        },
        {
          "indexed": false,
          "internalType": "uint256",
          "name": "newValue",
          "type": "uint256"
        }
      ],
      "name": "UpdateDevFee",
      "type": "event"
    },
    {
      "anonymous": false,
      "inputs": [
        {
          "indexed": false,
          "internalType": "address",
          "name": "oldValue",
          "type": "address"
        },
        {
          "indexed": false,
          "internalType": "address",
          "name": "newValue",
          "type": "address"
        }
      ],
      "name": "UpdateFeeCollector",
      "type": "event"
    },
    {
      "anonymous": false,
      "inputs": [
        {
          "indexed": false,
          "internalType": "uint256",
          "name": "oldValue",
          "type": "uint256"
        },
        {
          "indexed": false,
          "internalType": "uint256",
          "name": "newValue",
          "type": "uint256"
        }
      ],
      "name": "UpdateMaxTokensToDepositWithoutReinvest",
      "type": "event"
    },
    {
      "anonymous": false,
      "inputs": [
        {
          "indexed": false,
          "internalType": "uint256",
          "name": "oldValue",
          "type": "uint256"
        },
        {
          "indexed": false,
          "internalType": "uint256",
          "name": "newValue",
          "type": "uint256"
        }
      ],
      "name": "UpdateMinTokensToReinvest",
      "type": "event"
    },
    {
      "anonymous": false,
      "inputs": [
        {
          "indexed": false,
          "internalType": "uint256",
          "name": "oldValue",
          "type": "uint256"
        },
        {
          "indexed": false,
          "internalType": "uint256",
          "name": "newValue",
          "type": "uint256"
        }
      ],
      "name": "UpdateReinvestReward",
      "type": "event"
    },
    {
      "anonymous": false,
      "inputs": [
        {
          "indexed": false,
          "internalType": "address",
          "name": "oldRouter",
          "type": "address"
        },
        {
          "indexed": false,
          "internalType": "address",
          "name": "newRouter",
          "type": "address"
        }
      ],
      "name": "UpdateRouter",
      "type": "event"
    },
    {
      "anonymous": false,
      "inputs": [
        {
          "indexed": true,
          "internalType": "address",
          "name": "account",
          "type": "address"
        },
        {
          "indexed": false,
          "internalType": "uint256",
          "name": "amount",
          "type": "uint256"
        }
      ],
      "name": "Withdraw",
      "type": "event"
    },
    {
      "inputs": [],
      "name": "DEPOSITS_ENABLED",
      "outputs": [
        {
          "internalType": "bool",
          "name": "",
          "type": "bool"
        }
      ],
      "stateMutability": "view",
      "type": "function"
    },
    {
      "inputs": [],
      "name": "DEV_FEE_BIPS",
      "outputs": [
        {
          "internalType": "uint256",
          "name": "",
          "type": "uint256"
        }
      ],
      "stateMutability": "view",
      "type": "function"
    },
    {
      "inputs": [],
      "name": "DOMAIN_TYPEHASH",
      "outputs": [
        {
          "internalType": "bytes32",
          "name": "",
          "type": "bytes32"
        }
      ],
      "stateMutability": "view",
      "type": "function"
    },
    {
      "inputs": [],
      "name": "MIN_TOKENS_TO_REINVEST",
      "outputs": [
        {
          "internalType": "uint256",
          "name": "",
          "type": "uint256"
        }
      ],
      "stateMutability": "view",
      "type": "function"
    },
    {
      "inputs": [],
      "name": "PERMIT_TYPEHASH",
      "outputs": [
        {
          "internalType": "bytes32",
          "name": "",
          "type": "bytes32"
        }
      ],
      "stateMutability": "view",
      "type": "function"
    },
    {
      "inputs": [],
      "name": "REINVEST_REWARD_BIPS",
      "outputs": [
        {
          "internalType": "uint256",
          "name": "",
          "type": "uint256"
        }
      ],
      "stateMutability": "view",
      "type": "function"
    },
    {
      "inputs": [],
      "name": "VERSION_HASH",
      "outputs": [
        {
          "internalType": "bytes32",
          "name": "",
          "type": "bytes32"
        }
      ],
      "stateMutability": "view",
      "type": "function"
    },
    {
      "inputs": [
        {
          "internalType": "address",
          "name": "_rewardToken",
          "type": "address"
        }
      ],
      "name": "addReward",
      "outputs": [],
      "stateMutability": "nonpayable",
      "type": "function"
    },
    {
      "inputs": [
        {
          "internalType": "address",
          "name": "account",
          "type": "address"
        },
        {
          "internalType": "address",
          "name": "spender",
          "type": "address"
        }
      ],
      "name": "allowance",
      "outputs": [
        {
          "internalType": "uint256",
          "name": "",
          "type": "uint256"
        }
      ],
      "stateMutability": "view",
      "type": "function"
    },
    {
      "inputs": [
        {
          "internalType": "address",
          "name": "spender",
          "type": "address"
        },
        {
          "internalType": "uint256",
          "name": "amount",
          "type": "uint256"
        }
      ],
      "name": "approve",
      "outputs": [
        {
          "internalType": "bool",
          "name": "",
          "type": "bool"
        }
      ],
      "stateMutability": "nonpayable",
      "type": "function"
    },
    {
      "inputs": [
        {
          "internalType": "address",
          "name": "account",
          "type": "address"
        }
      ],
      "name": "balanceOf",
      "outputs": [
        {
          "internalType": "uint256",
          "name": "",
          "type": "uint256"
        }
      ],
      "stateMutability": "view",
      "type": "function"
    },
    {
      "inputs": [],
      "name": "booster",
      "outputs": [
        {
          "internalType": "contract IBooster",
          "name": "",
          "type": "address"
        }
      ],
      "stateMutability": "view",
      "type": "function"
    },
    {
      "inputs": [
        {
          "internalType": "uint256",
          "name": "_amount",
          "type": "uint256"
        }
      ],
      "name": "calculateDepositFee",
      "outputs": [
        {
          "internalType": "uint256",
          "name": "",
          "type": "uint256"
        }
      ],
      "stateMutability": "view",
      "type": "function"
    },
    {
      "inputs": [
        {
          "internalType": "uint256",
          "name": "_amount",
          "type": "uint256"
        }
      ],
      "name": "calculateWithdrawFee",
      "outputs": [
        {
          "internalType": "uint256",
          "name": "",
          "type": "uint256"
        }
      ],
      "stateMutability": "view",
      "type": "function"
    },
    {
      "inputs": [],
      "name": "checkReward",
      "outputs": [
        {
          "internalType": "uint256",
          "name": "",
          "type": "uint256"
        }
      ],
      "stateMutability": "view",
      "type": "function"
    },
    {
      "inputs": [],
      "name": "decimals",
      "outputs": [
        {
          "internalType": "uint8",
          "name": "",
          "type": "uint8"
        }
      ],
      "stateMutability": "view",
      "type": "function"
    },
    {
      "inputs": [
        {
          "internalType": "uint256",
          "name": "_amount",
          "type": "uint256"
        }
      ],
      "name": "deposit",
      "outputs": [],
      "stateMutability": "nonpayable",
      "type": "function"
    },
    {
      "inputs": [
        {
          "internalType": "address",
          "name": "_account",
          "type": "address"
        },
        {
          "internalType": "uint256",
          "name": "_amount",
          "type": "uint256"
        }
      ],
      "name": "depositFor",
      "outputs": [],
      "stateMutability": "nonpayable",
      "type": "function"
    },
    {
      "inputs": [],
      "name": "depositToken",
      "outputs": [
        {
          "internalType": "contract IERC20",
          "name": "",
          "type": "address"
        }
      ],
      "stateMutability": "view",
      "type": "function"
    },
    {
      "inputs": [
        {
          "internalType": "uint256",
          "name": "_amount",
          "type": "uint256"
        },
        {
          "internalType": "uint256",
          "name": "_deadline",
          "type": "uint256"
        },
        {
          "internalType": "uint8",
          "name": "_v",
          "type": "uint8"
        },
        {
          "internalType": "bytes32",
          "name": "_r",
          "type": "bytes32"
        },
        {
          "internalType": "bytes32",
          "name": "_s",
          "type": "bytes32"
        }
      ],
      "name": "depositWithPermit",
      "outputs": [],
      "stateMutability": "nonpayable",
      "type": "function"
    },
    {
      "inputs": [],
      "name": "devAddr",
      "outputs": [
        {
          "internalType": "address",
          "name": "",
          "type": "address"
        }
      ],
      "stateMutability": "view",
      "type": "function"
    },
    {
      "inputs": [],
      "name": "disableDeposits",
      "outputs": [],
      "stateMutability": "nonpayable",
      "type": "function"
    },
    {
      "inputs": [],
      "name": "enableDeposits",
      "outputs": [],
      "stateMutability": "nonpayable",
      "type": "function"
    },
    {
      "inputs": [],
      "name": "estimateReinvestReward",
      "outputs": [
        {
          "internalType": "uint256",
          "name": "",
          "type": "uint256"
        }
      ],
      "stateMutability": "view",
      "type": "function"
    },
    {
      "inputs": [],
      "name": "feeCollector",
      "outputs": [
        {
          "internalType": "address",
          "name": "",
          "type": "address"
        }
      ],
      "stateMutability": "view",
      "type": "function"
    },
    {
      "inputs": [
        {
          "internalType": "uint256",
          "name": "amount",
          "type": "uint256"
        }
      ],
      "name": "getDepositTokensForShares",
      "outputs": [
        {
          "internalType": "uint256",
          "name": "",
          "type": "uint256"
        }
      ],
      "stateMutability": "view",
      "type": "function"
    },
    {
      "inputs": [],
      "name": "getDomainSeparator",
      "outputs": [
        {
          "internalType": "bytes32",
          "name": "",
          "type": "bytes32"
        }
      ],
      "stateMutability": "view",
      "type": "function"
    },
    {
      "inputs": [
        {
          "internalType": "uint256",
          "name": "amount",
          "type": "uint256"
        }
      ],
      "name": "getSharesForDepositTokens",
      "outputs": [
        {
          "internalType": "uint256",
          "name": "",
          "type": "uint256"
        }
      ],
      "stateMutability": "view",
      "type": "function"
    },
    {
      "inputs": [],
      "name": "getSupportedRewardsLength",
      "outputs": [
        {
          "internalType": "uint256",
          "name": "",
          "type": "uint256"
        }
      ],
      "stateMutability": "view",
      "type": "function"
    },
    {
      "inputs": [],
      "name": "name",
      "outputs": [
        {
          "internalType": "string",
          "name": "",
          "type": "string"
        }
      ],
      "stateMutability": "view",
      "type": "function"
    },
    {
      "inputs": [
        {
          "internalType": "address",
          "name": "",
          "type": "address"
        }
      ],
      "name": "nonces",
      "outputs": [
        {
          "internalType": "uint256",
          "name": "",
          "type": "uint256"
        }
      ],
      "stateMutability": "view",
      "type": "function"
    },
    {
      "inputs": [],
      "name": "owner",
      "outputs": [
        {
          "internalType": "address",
          "name": "",
          "type": "address"
        }
      ],
      "stateMutability": "view",
      "type": "function"
    },
    {
      "inputs": [
        {
          "internalType": "address",
          "name": "owner",
          "type": "address"
        },
        {
          "internalType": "address",
          "name": "spender",
          "type": "address"
        },
        {
          "internalType": "uint256",
          "name": "value",
          "type": "uint256"
        },
        {
          "internalType": "uint256",
          "name": "deadline",
          "type": "uint256"
        },
        {
          "internalType": "uint8",
          "name": "v",
          "type": "uint8"
        },
        {
          "internalType": "bytes32",
          "name": "r",
          "type": "bytes32"
        },
        {
          "internalType": "bytes32",
          "name": "s",
          "type": "bytes32"
        }
      ],
      "name": "permit",
      "outputs": [],
      "stateMutability": "nonpayable",
      "type": "function"
    },
    {
      "inputs": [],
      "name": "pid",
      "outputs": [
        {
          "internalType": "uint256",
          "name": "",
          "type": "uint256"
        }
      ],
      "stateMutability": "view",
      "type": "function"
    },
    {
      "inputs": [],
      "name": "poolDepositor",
      "outputs": [
        {
          "internalType": "contract IPoolDepositor",
          "name": "",
          "type": "address"
        }
      ],
      "stateMutability": "view",
      "type": "function"
    },
    {
      "inputs": [
        {
          "internalType": "address",
          "name": "tokenAddress",
          "type": "address"
        },
        {
          "internalType": "uint256",
          "name": "tokenAmount",
          "type": "uint256"
        }
      ],
      "name": "recoverERC20",
      "outputs": [],
      "stateMutability": "nonpayable",
      "type": "function"
    },
    {
      "inputs": [
        {
          "internalType": "uint256",
          "name": "amount",
          "type": "uint256"
        }
      ],
      "name": "recoverGas",
      "outputs": [],
      "stateMutability": "nonpayable",
      "type": "function"
    },
    {
      "inputs": [],
      "name": "reinvest",
      "outputs": [],
      "stateMutability": "nonpayable",
      "type": "function"
    },
    {
      "inputs": [
        {
          "internalType": "address",
          "name": "_rewardToken",
          "type": "address"
        }
      ],
      "name": "removeReward",
      "outputs": [],
      "stateMutability": "nonpayable",
      "type": "function"
    },
    {
      "inputs": [],
      "name": "renounceOwnership",
      "outputs": [],
      "stateMutability": "nonpayable",
      "type": "function"
    },
    {
      "inputs": [
        {
          "internalType": "uint256",
          "name": "_minReturnAmountAccepted",
          "type": "uint256"
        }
      ],
      "name": "rescueDeployedFunds",
      "outputs": [],
      "stateMutability": "nonpayable",
      "type": "function"
    },
    {
      "inputs": [
        {
          "internalType": "address",
          "name": "token",
          "type": "address"
        },
        {
          "internalType": "address",
          "name": "spender",
          "type": "address"
        }
      ],
      "name": "revokeAllowance",
      "outputs": [],
      "stateMutability": "nonpayable",
      "type": "function"
    },
    {
      "inputs": [],
      "name": "rewardPool",
      "outputs": [
        {
          "internalType": "contract IWombexRewardPool",
          "name": "",
          "type": "address"
        }
      ],
      "stateMutability": "view",
      "type": "function"
    },
    {
      "inputs": [],
      "name": "rewardToken",
      "outputs": [
        {
          "internalType": "contract IERC20",
          "name": "",
          "type": "address"
        }
      ],
      "stateMutability": "view",
      "type": "function"
    },
    {
      "inputs": [],
      "name": "simpleRouter",
      "outputs": [
        {
          "internalType": "contract ISimpleRouter",
          "name": "",
          "type": "address"
        }
      ],
      "stateMutability": "view",
      "type": "function"
    },
    {
      "inputs": [
        {
          "internalType": "uint256",
          "name": "",
          "type": "uint256"
        }
      ],
      "name": "supportedRewards",
      "outputs": [
        {
          "internalType": "address",
          "name": "",
          "type": "address"
        }
      ],
      "stateMutability": "view",
      "type": "function"
    },
    {
      "inputs": [],
      "name": "symbol",
      "outputs": [
        {
          "internalType": "string",
          "name": "",
          "type": "string"
        }
      ],
      "stateMutability": "view",
      "type": "function"
    },
    {
      "inputs": [],
      "name": "totalDeposits",
      "outputs": [
        {
          "internalType": "uint256",
          "name": "",
          "type": "uint256"
        }
      ],
      "stateMutability": "view",
      "type": "function"
    },
    {
      "inputs": [],
      "name": "totalSupply",
      "outputs": [
        {
          "internalType": "uint256",
          "name": "",
          "type": "uint256"
        }
      ],
      "stateMutability": "view",
      "type": "function"
    },
    {
      "inputs": [
        {
          "internalType": "address",
          "name": "dst",
          "type": "address"
        },
        {
          "internalType": "uint256",
          "name": "amount",
          "type": "uint256"
        }
      ],
      "name": "transfer",
      "outputs": [
        {
          "internalType": "bool",
          "name": "",
          "type": "bool"
        }
      ],
      "stateMutability": "nonpayable",
      "type": "function"
    },
    {
      "inputs": [
        {
          "internalType": "address",
          "name": "src",
          "type": "address"
        },
        {
          "internalType": "address",
          "name": "dst",
          "type": "address"
        },
        {
          "internalType": "uint256",
          "name": "amount",
          "type": "uint256"
        }
      ],
      "name": "transferFrom",
      "outputs": [
        {
          "internalType": "bool",
          "name": "",
          "type": "bool"
        }
      ],
      "stateMutability": "nonpayable",
      "type": "function"
    },
    {
      "inputs": [
        {
          "internalType": "address",
          "name": "newOwner",
          "type": "address"
        }
      ],
      "name": "transferOwnership",
      "outputs": [],
      "stateMutability": "nonpayable",
      "type": "function"
    },
    {
      "inputs": [
        {
          "internalType": "address",
          "name": "newValue",
          "type": "address"
        }
      ],
      "name": "updateDevAddr",
      "outputs": [],
      "stateMutability": "nonpayable",
      "type": "function"
    },
    {
      "inputs": [
        {
          "internalType": "uint256",
          "name": "newValue",
          "type": "uint256"
        }
      ],
      "name": "updateDevFee",
      "outputs": [],
      "stateMutability": "nonpayable",
      "type": "function"
    },
    {
      "inputs": [
        {
          "internalType": "address",
          "name": "newValue",
          "type": "address"
        }
      ],
      "name": "updateFeeCollector",
      "outputs": [],
      "stateMutability": "nonpayable",
      "type": "function"
    },
    {
      "inputs": [
        {
          "internalType": "uint256",
          "name": "newValue",
          "type": "uint256"
        }
      ],
      "name": "updateMinTokensToReinvest",
      "outputs": [],
      "stateMutability": "nonpayable",
      "type": "function"
    },
    {
      "inputs": [
        {
          "internalType": "uint256",
          "name": "newValue",
          "type": "uint256"
        }
      ],
      "name": "updateReinvestReward",
      "outputs": [],
      "stateMutability": "nonpayable",
      "type": "function"
    },
    {
      "inputs": [
        {
          "internalType": "address",
          "name": "_router",
          "type": "address"
        }
      ],
      "name": "updateRouter",
      "outputs": [],
      "stateMutability": "nonpayable",
      "type": "function"
    },
    {
      "inputs": [
        {
          "internalType": "uint256",
          "name": "_amount",
          "type": "uint256"
        }
      ],
      "name": "withdraw",
      "outputs": [],
      "stateMutability": "nonpayable",
      "type": "function"
    },
    {
      "inputs": [],
      "name": "wombatAsset",
      "outputs": [
        {
          "internalType": "contract IWombatAsset",
          "name": "",
          "type": "address"
        }
      ],
      "stateMutability": "view",
      "type": "function"
    },
    {
      "inputs": [],
      "name": "wombatPool",
      "outputs": [
        {
          "internalType": "contract IWombatPool",
          "name": "",
          "type": "address"
        }
      ],
      "stateMutability": "view",
      "type": "function"
    }
  ],
  "transactionHash": "0x36116f12ed5923667a0e8c5b54f731ab6b6e27143d6926391f470db064cdff37",
  "args": [
    {
      "poolDepositor": "0xf177BA008B7CceB38B3b6876f06c6D7D942d0cED",
      "rewardPool": "0xF4cF3521f3122ec620617e37095cED6c974ad133"
    },
    {
      "gasToken": "0x82aF49447D8a07e3bd95BD0d56f35241523fBab1",
      "rewards": [
        "0x5190F06EaceFA2C552dc6BD5e763b81C73293293",
        "0x7B5EB3940021Ec0e8e463D5dBB4B7B09a89DDF96"
      ],
      "simpleRouter": "0x4f543bb63d85D28b92Af2AD1f882F86805Db484C"
    },
    {
      "name": "Yield Yak: Wombex LP-USDC.e",
      "owner": "0xDcEDF06Fd33E1D7b6eb4b309f779a0e9D3172e44",
      "dev": "0xDcEDF06Fd33E1D7b6eb4b309f779a0e9D3172e44",
      "feeCollector": "0xDcEDF06Fd33E1D7b6eb4b309f779a0e9D3172e44",
      "depositToken": "0xFF970A61A04b1cA14834A43f5dE4533eBDDB5CC8",
      "rewardToken": "0xFd086bC7CD5C481DCC9C85ebE478A1C0b69FCbb9",
      "minTokensToReinvest": "1000",
      "devFeeBips": 700,
      "reinvestRewardBips": 300
    }
  ],
  "solcInputHash": "2a250dca387897ff4da140b70896ca12",
  "bytecode": "0x6101e060405260096101a0819052685969656c642059616b60b81b6101c09081526200002f9160009190620009fb565b506040805180820190915260038082526216549560ea1b60209092019182526200005c91600191620009fb565b503480156200006a57600080fd5b50604051620060e9380380620060e98339810160408190526200008d9162000d38565b600680546001600160a01b03191633908117909155604051839183918291908190600090600080516020620060c9833981519152908290a35080518051620000de91600091602090910190620009fb565b506080808201516001600160a01b0390811690915260a0808301519091169052600780546001600160a01b0319163317905560c08101516200012090620004e0565b60e081015162000130906200057d565b610100810151620001419062000639565b60608101516200015190620006f5565b60408101516200016190620007a9565b6200016b6200085d565b60208101516200017b90620008fe565b5081516001600160a01b031660c0526020808301518051620001a292600d92019062000a8a565b506040820151600e80546001600160a01b0319166001600160a01b0390921691909117905560c08101516200022a5760405162461bcd60e51b815260206004820152602360248201527f4261736553747261746567793a3a496e76616c696420636f6e6669677572617460448201526234b7b760e91b60648201526084015b60405180910390fd5b60408051600080825260208201527fc7606d21ac05cd309191543e409f0845c016120563783d70e4f41419dc0ef234910160405180910390a1505082516001600160a01b0390811660e052602080850151909116610100819052604080516338d52e0f60e01b8152905191926338d52e0f926004808401938290030181865afa158015620002bc573d6000803e3d6000fd5b505050506040513d601f19601f82011682018060405250810190620002e2919062000eaf565b6001600160a01b0316610120819052604080516316f0115b60e01b815290516316f0115b916004808201926020929091908290030181865afa1580156200032d573d6000803e3d6000fd5b505050506040513d601f19601f8201168201806040525081019062000353919062000eaf565b6001600160a01b0316610140816001600160a01b03168152505060e0516001600160a01b031663c6def0766040518163ffffffff1660e01b8152600401602060405180830381865afa158015620003ae573d6000803e3d6000fd5b505050506040513d601f19601f82011682018060405250810190620003d4919062000eaf565b6001600160a01b0316610160816001600160a01b03168152505060e0516001600160a01b0316630ff0bc3b610100516001600160a01b03166338d52e0f6040518163ffffffff1660e01b8152600401602060405180830381865afa15801562000441573d6000803e3d6000fd5b505050506040513d601f19601f8201168201806040525081019062000467919062000eaf565b6040516001600160e01b031960e084901b1681526001600160a01b039091166004820152602401602060405180830381865afa158015620004ac573d6000803e3d6000fd5b505050506040513d601f19601f82011682018060405250810190620004d2919062000ed4565b610180525062000f51915050565b6007546001600160a01b031633146200053c5760405162461bcd60e51b815260206004820152601460248201527f59616b53747261746567793a3a6f6e6c79446576000000000000000000000000604482015260640162000221565b60095460408051918252602082018390527f481f79ac3a523b6d6db3c5a720e190e986d1cc1b41adcdf50f9caef849901100910160405180910390a1600955565b6007546001600160a01b03163314620005d95760405162461bcd60e51b815260206004820152601460248201527f59616b53747261746567793a3a6f6e6c79446576000000000000000000000000604482015260640162000221565b612710600b5482620005ec919062000eee565b1115620005f857600080fd5b600c5460408051918252602082018390527f2a42303d002f0ba6cfe8259c91d4684443fb0b3de286ba74991175d651726131910160405180910390a1600c55565b6007546001600160a01b03163314620006955760405162461bcd60e51b815260206004820152601460248201527f59616b53747261746567793a3a6f6e6c79446576000000000000000000000000604482015260640162000221565b612710600c5482620006a8919062000eee565b1115620006b457600080fd5b600b5460408051918252602082018390527fe7f97d51d307dc44045597c9978bec0f842e6bb40d19b9444084cfa30d9ed4f2910160405180910390a1600b55565b6006546001600160a01b03163314620007405760405162461bcd60e51b81526020600482018190526024820152600080516020620060a9833981519152604482015260640162000221565b600854604080516001600160a01b03928316815291831660208301527fcc882185e6edeeb762130016ea1faf3d7aa9c01b199bfd646f965b58ab741063910160405180910390a1600880546001600160a01b0319166001600160a01b0392909216919091179055565b6006546001600160a01b03163314620007f45760405162461bcd60e51b81526020600482018190526024820152600080516020620060a9833981519152604482015260640162000221565b600754604080516001600160a01b03928316815291831660208301527fa8e91499ed37682f43cffb045fcc7d379a91e8c9a14e6321877ee34dee564c00910160405180910390a1600780546001600160a01b0319166001600160a01b0392909216919091179055565b6006546001600160a01b03163314620008a85760405162461bcd60e51b81526020600482018190526024820152600080516020620060a9833981519152604482015260640162000221565b600a5460ff1615620008b957600080fd5b600a805460ff191660019081179091556040519081527f7b014ed3854e7f5cb0218d58b3c6ae7d53a68bb0af2f67bfb029ea42c38a7e859060200160405180910390a1565b6006546001600160a01b03163314620009495760405162461bcd60e51b81526020600482018190526024820152600080516020620060a9833981519152604482015260640162000221565b6001600160a01b038116620009b05760405162461bcd60e51b815260206004820152602660248201527f4f776e61626c653a206e6577206f776e657220697320746865207a65726f206160448201526564647265737360d01b606482015260840162000221565b6006546040516001600160a01b03808416921690600080516020620060c983398151915290600090a3600680546001600160a01b0319166001600160a01b0392909216919091179055565b82805462000a099062000f15565b90600052602060002090601f01602090048101928262000a2d576000855562000a78565b82601f1062000a4857805160ff191683800117855562000a78565b8280016001018555821562000a78579182015b8281111562000a7857825182559160200191906001019062000a5b565b5062000a8692915062000ae2565b5090565b82805482825590600052602060002090810192821562000a78579160200282015b8281111562000a7857825182546001600160a01b0319166001600160a01b0390911617825560209092019160019091019062000aab565b5b8082111562000a86576000815560010162000ae3565b634e487b7160e01b600052604160045260246000fd5b60405161012081016001600160401b038111828210171562000b355762000b3562000af9565b60405290565b604080519081016001600160401b038111828210171562000b355762000b3562000af9565b604051606081016001600160401b038111828210171562000b355762000b3562000af9565b604051601f8201601f191681016001600160401b038111828210171562000bb05762000bb062000af9565b604052919050565b80516001600160a01b038116811462000bd057600080fd5b919050565b600082601f83011262000be757600080fd5b81516001600160401b0381111562000c035762000c0362000af9565b602062000c19601f8301601f1916820162000b85565b828152858284870101111562000c2e57600080fd5b60005b8381101562000c4e57858101830151828201840152820162000c31565b8381111562000c605760008385840101525b5095945050505050565b6000610120828403121562000c7e57600080fd5b62000c8862000b0f565b82519091506001600160401b0381111562000ca257600080fd5b62000cb08482850162000bd5565b82525062000cc16020830162000bb8565b602082015262000cd46040830162000bb8565b604082015262000ce76060830162000bb8565b606082015262000cfa6080830162000bb8565b608082015262000d0d60a0830162000bb8565b60a082015260c082015160c082015260e082015160e082015261010080830151818301525092915050565b6000806000838503608081121562000d4f57600080fd5b604081121562000d5e57600080fd5b5062000d6962000b3b565b62000d748562000bb8565b8152602062000d8581870162000bb8565b8282015260408601519194506001600160401b038083111562000da757600080fd5b918601916060838903121562000dbc57600080fd5b62000dc662000b60565b62000dd18462000bb8565b8152828401518281111562000de557600080fd5b8401601f81018a1362000df757600080fd5b80518381111562000e0c5762000e0c62000af9565b8060051b62000e1d86820162000b85565b918252828101860191868101908d84111562000e3857600080fd5b938701935b8385101562000e615762000e518562000bb8565b8252938701939087019062000e3d565b858801525062000e78925050506040850162000bb8565b6040820152606088015190955092508083111562000e9557600080fd5b505062000ea58682870162000c6a565b9150509250925092565b60006020828403121562000ec257600080fd5b62000ecd8262000bb8565b9392505050565b60006020828403121562000ee757600080fd5b5051919050565b6000821982111562000f1057634e487b7160e01b600052601160045260246000fd5b500190565b600181811c9082168062000f2a57607f821691505b60208210810362000f4b57634e487b7160e01b600052602260045260246000fd5b50919050565b60805160a05160c05160e0516101005161012051610140516101605161018051614f7b6200112e6000396000818161087e015261340101526000818161076a0152818161342a015281816134a90152818161355101526135ec0152600081816103b9015281816129050152818161298801528181612a8501528181612ff001526130ed0152600081816105ac01528181611277015281816112fa015281816129ba01528181612f650152818161302201526141d601526000818161052e015281816112060152818161276b0152818161284001528181612eea01528181613200015261427501526000818161072801528181612e1e015281816141090152614213015260008181611d1001528181613d1b01528181613d4a0152613dbf0152600081816108cb01528181611c7301528181611d7801528181611eb7015281816138f10152818161395901528181613c6701528181613de901528181613ea501528181613f0801528181613fe501526140370152600081816107a401528181610b2801528181610bfb01528181610d9201528181610e27015281816113a7015281816128d201528181612a4101528181612cab01528181612e4d015281816130a901528181613fbb0152818161405f01526141380152614f7b6000f3fe608060405234801561001057600080fd5b50600436106103af5760003560e01c806395d89b41116101f4578063c6def0761161011a578063e75ab045116100ad578063f2fde38b1161007c578063f2fde38b146108a0578063f6314d07146108b3578063f7c618c1146108c6578063fdb5a03e146108ed57600080fd5b8063e75ab0451461084b578063eab89a5a1461085e578063ed24911d14610871578063f10684541461087957600080fd5b8063d505accf116100e9578063d505accf146107d9578063da09c72c146107ec578063dd62ed3e146107ff578063dd8ce4d61461083857600080fd5b8063c6def07614610765578063c851cc321461078c578063c89039c51461079f578063d2c35ce8146107c657600080fd5b8063ac67e1af11610192578063bd079f5511610161578063bd079f551461071a578063bd25c6db14610723578063c415b95c1461074a578063c4b24a461461075d57600080fd5b8063ac67e1af146106ea578063b52a321f146106f2578063b6b55f25146106ff578063b9e57b801461071257600080fd5b80639e4e7318116101ce5780639e4e73181461068a578063a4d5e67c146106b1578063a8ae2b7c146106c4578063a9059cbb146106d757600080fd5b806395d89b411461065c57806399729ec1146106645780639c9b2e211461067757600080fd5b80635ea682ea116102d95780637ae26773116102775780638980f11f116102465780638980f11f1461061c5780638aff733d1461062f5780638da5cb5b146106385780639291d5631461064957600080fd5b80637ae26773146105ce5780637d882097146105e15780637ecebe00146105e9578063818372301461060957600080fd5b806370a08231116102b357806370a0823114610563578063715018a61461058c5780637897e7f614610594578063799b0714146105a757600080fd5b80635ea682ea1461052057806366666aa914610529578063666d25b91461055057600080fd5b8063247d284b1161035157806330adf81f1161032057806330adf81f146104c4578063313ce567146104eb5780634a970be7146105055780635e4c57a41461051857600080fd5b8063247d284b14610430578063258250da146104945780632e1a7d4d1461049c5780632f4f21e2146104b157600080fd5b8063110560351161038d578063110560351461043057806318160ddd1461045157806320606b701461045a57806323b872dd1461048157600080fd5b8063012ee928146103b457806306fdde03146103f8578063095ea7b31461040d575b600080fd5b6103db7f000000000000000000000000000000000000000000000000000000000000000081565b6040516001600160a01b0390911681526020015b60405180910390f35b6104006108f5565b6040516103ef9190614655565b61042061041b36600461469d565b610983565b60405190151581526020016103ef565b61044361043e3660046146c9565b61099a565b6040519081526020016103ef565b61044360025481565b6104437f8b73c3c69bb8fe3d512ecc4cf759cc79239f7b179b0ffacaa9a75d522b39400f81565b61042061048f3660046146e2565b6109a5565b600d54610443565b6104af6104aa3660046146c9565b610a6e565b005b6104af6104bf36600461469d565b610b94565b6104437f6e71edae12b1b97f4d1f60370fef10105fa2faae0126114a169c64845d6126c981565b6104f3601281565b60405160ff90911681526020016103ef565b6104af610513366004614732565b610ba2565b6104af610c70565b610443600c5481565b6103db7f000000000000000000000000000000000000000000000000000000000000000081565b6104af61055e3660046146c9565b610d20565b61044361057136600461477b565b6001600160a01b031660009081526004602052604090205490565b6104af610fa1565b6104af6105a23660046146c9565b611045565b6103db7f000000000000000000000000000000000000000000000000000000000000000081565b6104af6105dc366004614798565b611117565b6104436111e4565b6104436105f736600461477b565b60056020526000908152604090205481565b6104af6106173660046146c9565b611433565b6104af61062a36600461469d565b6114c5565b610443600b5481565b6006546001600160a01b03166103db565b6104af61065736600461477b565b611587565b61040061164a565b6104af6106723660046146c9565b611657565b6104af61068536600461477b565b611705565b6104437fc89efdaa54c0f20c7adf612882df0950f5a951637e0307cdcb4c672f298b8bc681565b6104af6106bf36600461477b565b6118a0565b6104af6106d23660046146c9565b611aa3565b6104206106e536600461469d565b611b51565b6104af611b5e565b600a546104209060ff1681565b6104af61070d3660046146c9565b611bf9565b610443611c06565b61044360095481565b6103db7f000000000000000000000000000000000000000000000000000000000000000081565b6008546103db906001600160a01b031681565b610443611c45565b6103db7f000000000000000000000000000000000000000000000000000000000000000081565b6104af61079a36600461477b565b611f9a565b6103db7f000000000000000000000000000000000000000000000000000000000000000081565b6104af6107d436600461477b565b612054565b6104af6107e73660046147d1565b612117565b6007546103db906001600160a01b031681565b61044361080d366004614798565b6001600160a01b03918216600090815260036020908152604080832093909416825291909152205490565b6104436108463660046146c9565b61222a565b6103db6108593660046146c9565b612270565b61044361086c3660046146c9565b61229a565b6104436122d0565b6104437f000000000000000000000000000000000000000000000000000000000000000081565b6104af6108ae36600461477b565b612370565b600e546103db906001600160a01b031681565b6103db7f000000000000000000000000000000000000000000000000000000000000000081565b6104af6124a2565b6000805461090290614842565b80601f016020809104026020016040519081016040528092919081815260200182805461092e90614842565b801561097b5780601f106109505761010080835404028352916020019161097b565b820191906000526020600020905b81548152906001019060200180831161095e57829003601f168201915b505050505081565b60006109903384846124fd565b5060015b92915050565b60006109948261260b565b6001600160a01b0383166000818152600360209081526040808320338085529252822054919290919082148015906109df57506000198114155b15610a555760006109f08583614892565b6001600160a01b038881166000818152600360209081526040808320948916808452948252918290208590559051848152939450919290917f8c5be1e5ebec7d5bd14f71427d1e84f3dd0314c0f7b2291e5b200ac8c7c3b925910160405180910390a3505b610a60868686612625565b6001925050505b9392505050565b6000610a798261229a565b905060008111610af65760405162461bcd60e51b815260206004820152602560248201527f4261736553747261746567793a3a576974686472617720616d6f756e7420746f60448201527f6f206c6f7700000000000000000000000000000000000000000000000000000060648201526084015b60405180910390fd5b6000610b0182612749565b90506000610b0e8361260b565b9050610b4f33610b1e8385614892565b6001600160a01b037f0000000000000000000000000000000000000000000000000000000000000000169190612afb565b610b593385612b7b565b60405183815233907f884edad9ce6fa2440d8a54cc123490eb96d2768479d49ff9c7366125a94243649060200160405180910390a250505050565b610b9e8282612c0f565b5050565b6040517fd505accf000000000000000000000000000000000000000000000000000000008152336004820152306024820152604481018690526064810185905260ff8416608482015260a4810183905260c481018290527f00000000000000000000000000000000000000000000000000000000000000006001600160a01b03169063d505accf9060e401600060405180830381600087803b158015610c4757600080fd5b505af1158015610c5b573d6000803e3d6000fd5b50505050610c693386612c0f565b5050505050565b6006546001600160a01b03163314610cca5760405162461bcd60e51b815260206004820181905260248201527f4f776e61626c653a2063616c6c6572206973206e6f7420746865206f776e65726044820152606401610aed565b600a5460ff1615610cda57600080fd5b600a805460ff191660019081179091556040519081527f7b014ed3854e7f5cb0218d58b3c6ae7d53a68bb0af2f67bfb029ea42c38a7e85906020015b60405180910390a1565b6006546001600160a01b03163314610d7a5760405162461bcd60e51b815260206004820181905260248201527f4f776e61626c653a2063616c6c6572206973206e6f7420746865206f776e65726044820152606401610aed565b6040516370a0823160e01b81523060048201526000907f00000000000000000000000000000000000000000000000000000000000000006001600160a01b0316906370a0823190602401602060405180830381865afa158015610de1573d6000803e3d6000fd5b505050506040513d601f19601f82011682018060405250810190610e0591906148a9565b9050610e0f612e07565b6040516370a0823160e01b81523060048201526000907f00000000000000000000000000000000000000000000000000000000000000006001600160a01b0316906370a0823190602401602060405180830381865afa158015610e76573d6000803e3d6000fd5b505050506040513d601f19601f82011682018060405250810190610e9a91906148a9565b905082610ea78383614892565b1015610f415760405162461bcd60e51b815260206004820152604260248201527f4261736553747261746567793a3a456d657267656e637920776974686472617760448201527f206d696e696d756d2072657475726e20616d6f756e74206e6f7420726561636860648201527f6564000000000000000000000000000000000000000000000000000000000000608482015260a401610aed565b7fc7606d21ac05cd309191543e409f0845c016120563783d70e4f41419dc0ef234610f6a6111e4565b6002546040805192835260208301919091520160405180910390a1600a5460ff161515600103610f9c57610f9c611b5e565b505050565b6006546001600160a01b03163314610ffb5760405162461bcd60e51b815260206004820181905260248201527f4f776e61626c653a2063616c6c6572206973206e6f7420746865206f776e65726044820152606401610aed565b6006546040516000916001600160a01b0316907f8be0079c531659141344cd1fd0a4f28419497f9722a3daafe3b4186f6b6457e0908390a3600680546001600160a01b0319169055565b6006546001600160a01b0316331461109f5760405162461bcd60e51b815260206004820181905260248201527f4f776e61626c653a2063616c6c6572206973206e6f7420746865206f776e65726044820152606401610aed565b600081116110ac57600080fd5b604051339082156108fc029083906000818181858888f193505050501580156110d9573d6000803e3d6000fd5b506040805160008152602081018390527f8c1256b8896378cd5044f80c202f9772b9d77dc85c8a6eb51967210b09bfaa28910160405180910390a150565b6007546001600160a01b031633146111685760405162461bcd60e51b81526020600482015260146024820152732cb0b5a9ba3930ba32b3bc9d1d37b7363ca232bb60611b6044820152606401610aed565b60405163095ea7b360e01b81526001600160a01b0382811660048301526000602483015283169063095ea7b3906044016020604051808303816000875af11580156111b7573d6000803e3d6000fd5b505050506040513d601f19601f820116820180604052508101906111db91906148c2565b610b9e57600080fd5b6040516370a0823160e01b815230600482015260009081906001600160a01b037f000000000000000000000000000000000000000000000000000000000000000016906370a0823190602401602060405180830381865afa15801561124d573d6000803e3d6000fd5b505050506040513d601f19601f8201168201806040525081019061127191906148a9565b905060007f00000000000000000000000000000000000000000000000000000000000000006001600160a01b03166318160ddd6040518163ffffffff1660e01b8152600401602060405180830381865afa1580156112d3573d6000803e3d6000fd5b505050506040513d601f19601f820116820180604052508101906112f791906148a9565b827f00000000000000000000000000000000000000000000000000000000000000006001600160a01b031663705727b56040518163ffffffff1660e01b8152600401602060405180830381865afa158015611356573d6000803e3d6000fd5b505050506040513d601f19601f8201168201806040525081019061137a91906148e4565b6effffffffffffffffffffffffffffff166113959190614915565b61139f9190614934565b905061142c817f00000000000000000000000000000000000000000000000000000000000000006001600160a01b031663313ce5676040518163ffffffff1660e01b8152600401602060405180830381865afa158015611403573d6000803e3d6000fd5b505050506040513d601f19601f820116820180604052508101906114279190614956565b61315a565b9250505090565b6007546001600160a01b031633146114845760405162461bcd60e51b81526020600482015260146024820152732cb0b5a9ba3930ba32b3bc9d1d37b7363ca232bb60611b6044820152606401610aed565b60095460408051918252602082018390527f481f79ac3a523b6d6db3c5a720e190e986d1cc1b41adcdf50f9caef849901100910160405180910390a1600955565b6006546001600160a01b0316331461151f5760405162461bcd60e51b815260206004820181905260248201527f4f776e61626c653a2063616c6c6572206973206e6f7420746865206f776e65726044820152606401610aed565b6000811161152c57600080fd5b6115406001600160a01b0383163383612afb565b604080516001600160a01b0384168152602081018390527f8c1256b8896378cd5044f80c202f9772b9d77dc85c8a6eb51967210b09bfaa2891015b60405180910390a15050565b6006546001600160a01b031633146115e15760405162461bcd60e51b815260206004820181905260248201527f4f776e61626c653a2063616c6c6572206973206e6f7420746865206f776e65726044820152606401610aed565b600754604080516001600160a01b03928316815291831660208301527fa8e91499ed37682f43cffb045fcc7d379a91e8c9a14e6321877ee34dee564c00910160405180910390a1600780546001600160a01b0319166001600160a01b0392909216919091179055565b6001805461090290614842565b6007546001600160a01b031633146116a85760405162461bcd60e51b81526020600482015260146024820152732cb0b5a9ba3930ba32b3bc9d1d37b7363ca232bb60611b6044820152606401610aed565b612710600b54826116b99190614973565b11156116c457600080fd5b600c5460408051918252602082018390527f2a42303d002f0ba6cfe8259c91d4684443fb0b3de286ba74991175d651726131910160405180910390a1600c55565b6007546001600160a01b031633146117565760405162461bcd60e51b81526020600482015260146024820152732cb0b5a9ba3930ba32b3bc9d1d37b7363ca232bb60611b6044820152606401610aed565b6000805b600d548110156117ad57600d81815481106117775761177761498b565b6000918252602090912001546001600160a01b039081169084160361179b57600191505b806117a5816149a1565b91505061175a565b5080156118225760405162461bcd60e51b815260206004820152602860248201527f4261736553747261746567793a3a52657761726420616c726561647920636f6e60448201527f66696775726564210000000000000000000000000000000000000000000000006064820152608401610aed565b600d80546001810182556000919091527fd7b6990105719101dabeb77144f2a3385c8033acd3af97e9423a695e81ad1eb50180546001600160a01b0319166001600160a01b0384169081179091556040519081527f1714865bf5baa84e3439536a013c87cfe030b4cd69f344a5f2a4877de3d517ce9060200161157b565b6007546001600160a01b031633146118f15760405162461bcd60e51b81526020600482015260146024820152732cb0b5a9ba3930ba32b3bc9d1d37b7363ca232bb60611b6044820152606401610aed565b6000805b600d548110156119c157600d81815481106119125761191261498b565b6000918252602090912001546001600160a01b03908116908416036119af57600d805460019350611944908490614892565b815481106119545761195461498b565b600091825260209091200154600d80546001600160a01b0390921691839081106119805761198061498b565b9060005260206000200160006101000a8154816001600160a01b0302191690836001600160a01b031602179055505b806119b9816149a1565b9150506118f5565b5080611a345760405162461bcd60e51b8152602060048201526024808201527f4261736553747261746567793a3a526577617264206e6f7420636f6e6669677560448201527f72656421000000000000000000000000000000000000000000000000000000006064820152608401610aed565b600d805480611a4557611a456149ba565b6000828152602090819020600019908301810180546001600160a01b03191690559091019091556040516001600160a01b03841681527f963b7c735475147a62c589c2d7cb8ec4b0a6b7af4f97373d79ebfa42ab8aa7dc910161157b565b6007546001600160a01b03163314611af45760405162461bcd60e51b81526020600482015260146024820152732cb0b5a9ba3930ba32b3bc9d1d37b7363ca232bb60611b6044820152606401610aed565b612710600c5482611b059190614973565b1115611b1057600080fd5b600b5460408051918252602082018390527fe7f97d51d307dc44045597c9978bec0f842e6bb40d19b9444084cfa30d9ed4f2910160405180910390a1600b55565b6000610990338484612625565b6007546001600160a01b03163314611baf5760405162461bcd60e51b81526020600482015260146024820152732cb0b5a9ba3930ba32b3bc9d1d37b7363ca232bb60611b6044820152606401610aed565b600a5460ff16611bbe57600080fd5b600a805460ff19169055604051600081527f7b014ed3854e7f5cb0218d58b3c6ae7d53a68bb0af2f67bfb029ea42c38a7e8590602001610d16565b611c033382612c0f565b50565b600080611c11611c45565b90506009548110611c3d57612710600b5482611c2d9190614915565b611c379190614934565b91505090565b600091505090565b600080611c506131c2565b6040516370a0823160e01b81523060048201529091506000906001600160a01b037f000000000000000000000000000000000000000000000000000000000000000016906370a0823190602401602060405180830381865afa158015611cba573d6000803e3d6000fd5b505050506040513d601f19601f82011682018060405250810190611cde91906148a9565b905060005b8251811015611f93576000838281518110611d0057611d0061498b565b60200260200101516000015190507f00000000000000000000000000000000000000000000000000000000000000006001600160a01b0316816001600160a01b031603611d765747848381518110611d5a57611d5a61498b565b6020026020010151602001818151611d729190614973565b9052505b7f00000000000000000000000000000000000000000000000000000000000000006001600160a01b0316816001600160a01b031603611ddf57838281518110611dc157611dc161498b565b60200260200101516020015183611dd89190614973565b9250611f80565b6001600160a01b03811615611f80576040516370a0823160e01b81523060048201526000906001600160a01b038316906370a0823190602401602060405180830381865afa158015611e35573d6000803e3d6000fd5b505050506040513d601f19601f82011682018060405250810190611e5991906148a9565b90506000858481518110611e6f57611e6f61498b565b60200260200101516020015182611e869190614973565b90508015611f7d57600e546040516377ccc49d60e11b8152600481018390526001600160a01b0385811660248301527f000000000000000000000000000000000000000000000000000000000000000081166044830152600092169063ef99893a90606401600060405180830381865afa158015611f08573d6000803e3d6000fd5b505050506040513d6000823e601f3d908101601f19168201604052611f309190810190614b33565b9050600181600001515111611f46576000611f6f565b80518051611f5690600190614892565b81518110611f6657611f6661498b565b60200260200101515b611f799087614973565b9550505b50505b5080611f8b816149a1565b915050611ce3565b5092915050565b6007546001600160a01b03163314611feb5760405162461bcd60e51b81526020600482015260146024820152732cb0b5a9ba3930ba32b3bc9d1d37b7363ca232bb60611b6044820152606401610aed565b600e54604080516001600160a01b03928316815291831660208301527f2c6fb4d5ff9fad6ecf2e09cd64cbc9aad92a8b9d2cc0e5c3ddef9b529b0b5ffd910160405180910390a1600e80546001600160a01b0319166001600160a01b0392909216919091179055565b6006546001600160a01b031633146120ae5760405162461bcd60e51b815260206004820181905260248201527f4f776e61626c653a2063616c6c6572206973206e6f7420746865206f776e65726044820152606401610aed565b600854604080516001600160a01b03928316815291831660208301527fcc882185e6edeeb762130016ea1faf3d7aa9c01b199bfd646f965b58ab741063910160405180910390a1600880546001600160a01b0319166001600160a01b0392909216919091179055565b428410156121675760405162461bcd60e51b815260206004820152600f60248201527f7065726d69743a3a6578706972656400000000000000000000000000000000006044820152606401610aed565b6001600160a01b038716600090815260056020526040812080547f6e71edae12b1b97f4d1f60370fef10105fa2faae0126114a169c64845d6126c9918a918a918a9190866121b4836149a1565b909155506040805160208101969096526001600160a01b0394851690860152929091166060840152608083015260a082015260c0810186905260e0016040516020818303038152906040528051906020012090506122158882868686613745565b6122208888886124fd565b5050505050505050565b6000806122356111e4565b600254909150801580612246575081155b1561225357509192915050565b8161225e8286614915565b6122689190614934565b949350505050565b600d818154811061228057600080fd5b6000918252602090912001546001600160a01b0316905081565b6000806122a56111e4565b6002549091508015806122b6575081155b156122c5575060009392505050565b8061225e8386614915565b60007f8b73c3c69bb8fe3d512ecc4cf759cc79239f7b179b0ffacaa9a75d522b39400f60001b60006040516123059190614bf5565b6040519081900390207fc89efdaa54c0f20c7adf612882df0950f5a951637e0307cdcb4c672f298b8bc646604080516020810195909552840192909252606083015260808201523060a082015260c00160405160208183030381529060405280519060200120905090565b6006546001600160a01b031633146123ca5760405162461bcd60e51b815260206004820181905260248201527f4f776e61626c653a2063616c6c6572206973206e6f7420746865206f776e65726044820152606401610aed565b6001600160a01b0381166124465760405162461bcd60e51b815260206004820152602660248201527f4f776e61626c653a206e6577206f776e657220697320746865207a65726f206160448201527f64647265737300000000000000000000000000000000000000000000000000006064820152608401610aed565b6006546040516001600160a01b038084169216907f8be0079c531659141344cd1fd0a4f28419497f9722a3daafe3b4186f6b6457e090600090a3600680546001600160a01b0319166001600160a01b0392909216919091179055565b3233146124f15760405162461bcd60e51b815260206004820152601460248201527f59616b53747261746567793a3a6f6e6c79454f410000000000000000000000006044820152606401610aed565b6124fb60006138a5565b565b6001600160a01b0383166125535760405162461bcd60e51b815260206004820152601c60248201527f5f617070726f76653a3a6f776e6572207a65726f2061646472657373000000006044820152606401610aed565b6001600160a01b0382166125a95760405162461bcd60e51b815260206004820152601e60248201527f5f617070726f76653a3a7370656e646572207a65726f206164647265737300006044820152606401610aed565b6001600160a01b0383811660008181526003602090815260408083209487168084529482529182902085905590518481527f8c5be1e5ebec7d5bd14f71427d1e84f3dd0314c0f7b2291e5b200ac8c7c3b92591015b60405180910390a3505050565b60008061271061261b8285614915565b610a679190614934565b6001600160a01b0382166126a15760405162461bcd60e51b815260206004820152603460248201527f5f7472616e73666572546f6b656e733a2063616e6e6f74207472616e7366657260448201527f20746f20746865207a65726f20616464726573730000000000000000000000006064820152608401610aed565b6001600160a01b0383166000908152600460205260409020546126c5908290614892565b6001600160a01b0380851660009081526004602052604080822093909355908416815220546126f5908290614973565b6001600160a01b0380841660008181526004602052604090819020939093559151908516907fddf252ad1be2c89b69c2b068fc378daa952ba7f163c4a11628f55a4df523b3ef906125fe9085815260200190565b6040516370a0823160e01b815230600482015260009081906001600160a01b037f000000000000000000000000000000000000000000000000000000000000000016906370a0823190602401602060405180830381865afa1580156127b2573d6000803e3d6000fd5b505050506040513d601f19601f820116820180604052508101906127d691906148a9565b905060006127e26111e4565b6127ec8386614915565b6127f69190614934565b90508181116128055780612807565b815b6040517fc32e720200000000000000000000000000000000000000000000000000000000815260048101829052600060248201529091507f00000000000000000000000000000000000000000000000000000000000000006001600160a01b03169063c32e720290604401600060405180830381600087803b15801561288c57600080fd5b505af11580156128a0573d6000803e3d6000fd5b50506040517f907448ed0000000000000000000000000000000000000000000000000000000081526001600160a01b037f00000000000000000000000000000000000000000000000000000000000000008116600483015260248201859052600093507f000000000000000000000000000000000000000000000000000000000000000016915063907448ed906044016040805180830381865afa15801561294c573d6000803e3d6000fd5b505050506040513d601f19601f820116820180604052508101906129709190614c90565b5060405163095ea7b360e01b81526001600160a01b037f000000000000000000000000000000000000000000000000000000000000000081166004830152602482018590529192507f00000000000000000000000000000000000000000000000000000000000000009091169063095ea7b3906044016020604051808303816000875af1158015612a05573d6000803e3d6000fd5b505050506040513d601f19601f82011682018060405250810190612a2991906148c2565b506040516309a5fca360e01b81526001600160a01b037f000000000000000000000000000000000000000000000000000000000000000081166004830152602482018490526044820183905230606483015260001960848301527f000000000000000000000000000000000000000000000000000000000000000016906309a5fca39060a4016020604051808303816000875af1158015612ace573d6000803e3d6000fd5b505050506040513d601f19601f82011682018060405250810190612af291906148a9565b95945050505050565b604080516001600160a01b038416602482015260448082018490528251808303909101815260649091019091526020810180517bffffffffffffffffffffffffffffffffffffffffffffffffffffffff167fa9059cbb00000000000000000000000000000000000000000000000000000000179052610f9c908490613a0a565b6001600160a01b038216600090815260046020526040902054612b9f908290614892565b6001600160a01b038316600090815260046020526040902055600254612bc6908290614892565b6002556040518181526000906001600160a01b038416907fddf252ad1be2c89b69c2b068fc378daa952ba7f163c4a11628f55a4df523b3ef906020015b60405180910390a35050565b600a5460ff161515600114612c665760405162461bcd60e51b815260206004820152601f60248201527f4261736553747261746567793a3a4465706f736974732064697361626c6564006044820152606401610aed565b612c7060016138a5565b6040517f23b872dd000000000000000000000000000000000000000000000000000000008152336004820152306024820152604481018290527f00000000000000000000000000000000000000000000000000000000000000006001600160a01b0316906323b872dd906064016020604051808303816000875af1158015612cfc573d6000803e3d6000fd5b505050506040513d601f19601f82011682018060405250810190612d2091906148c2565b612d925760405162461bcd60e51b815260206004820152602b60248201527f4261736553747261746567793a3a4465706f73697420746f6b656e207472616e60448201527f73666572206661696c65640000000000000000000000000000000000000000006064820152608401610aed565b6000612d9d8261260b565b9050612db583612db06108468486614892565b613aef565b612dbf8282613bc5565b826001600160a01b03167fe1fffcc4923d04b559f4d29a8bfc6cda04eb5b0d3c460751c2402c5c5cc9109c83604051612dfa91815260200190565b60405180910390a2505050565b60405163095ea7b360e01b81526001600160a01b037f000000000000000000000000000000000000000000000000000000000000000081166004830152600060248301527f0000000000000000000000000000000000000000000000000000000000000000169063095ea7b3906044016020604051808303816000875af1158015612e96573d6000803e3d6000fd5b505050506040513d601f19601f82011682018060405250810190612eba91906148c2565b506040517f49f039a2000000000000000000000000000000000000000000000000000000008152600060048201527f00000000000000000000000000000000000000000000000000000000000000006001600160a01b0316906349f039a290602401600060405180830381600087803b158015612f3657600080fd5b505af1158015612f4a573d6000803e3d6000fd5b50506040516370a0823160e01b8152306004820152600092507f00000000000000000000000000000000000000000000000000000000000000006001600160a01b031691506370a0823190602401602060405180830381865afa158015612fb5573d6000803e3d6000fd5b505050506040513d601f19601f82011682018060405250810190612fd991906148a9565b60405163095ea7b360e01b81526001600160a01b037f000000000000000000000000000000000000000000000000000000000000000081166004830152602482018390529192507f00000000000000000000000000000000000000000000000000000000000000009091169063095ea7b3906044016020604051808303816000875af115801561306d573d6000803e3d6000fd5b505050506040513d601f19601f8201168201806040525081019061309191906148c2565b506040516309a5fca360e01b81526001600160a01b037f000000000000000000000000000000000000000000000000000000000000000081166004830152602482018390526000604483015230606483015260001960848301527f000000000000000000000000000000000000000000000000000000000000000016906309a5fca39060a4016020604051808303816000875af1158015613136573d6000803e3d6000fd5b505050506040513d601f19601f82011682018060405250810190610b9e91906148a9565b600060128260ff16101561318f57613173826012614cb4565b61317e90600a614dbb565b6131889084614934565b9050610994565b60128260ff1611156131bb576131a6601283614cb4565b6131b190600a614dbb565b6131889084614915565b5090919050565b6040517fdc01f60d00000000000000000000000000000000000000000000000000000000815230600482015260609060009081906001600160a01b037f0000000000000000000000000000000000000000000000000000000000000000169063dc01f60d90602401600060405180830381865afa158015613247573d6000803e3d6000fd5b505050506040513d6000823e601f3d908101601f1916820160405261326f9190810190614dca565b915091506000825160016132839190614973565b67ffffffffffffffff81111561329b5761329b6149d0565b6040519080825280602002602001820160405280156132e057816020015b60408051808201909152600080825260208201528152602001906001900390816132b95790505b5090506000805b84518110156133d257604051806040016040528086838151811061330d5761330d61498b565b60200260200101516001600160a01b031681526020018583815181106133355761333561498b565b60200260200101518152508382815181106133525761335261498b565b6020026020010181905250737b5eb3940021ec0e8e463d5dbb4b7b09a89ddf966001600160a01b031685828151811061338d5761338d61498b565b60200260200101516001600160a01b0316036133c0578381815181106133b5576133b561498b565b602002602001015191505b806133ca816149a1565b9150506132e7565b50801561373d576040517f525c42d80000000000000000000000000000000000000000000000000000000081527f000000000000000000000000000000000000000000000000000000000000000060048201526000907f00000000000000000000000000000000000000000000000000000000000000006001600160a01b03169063525c42d890602401602060405180830381865afa158015613479573d6000803e3d6000fd5b505050506040513d601f19601f8201168201806040525081019061349d91906148a9565b90508060000361352c577f00000000000000000000000000000000000000000000000000000000000000006001600160a01b0316633f9bcc6c6040518163ffffffff1660e01b8152600401602060405180830381865afa158015613505573d6000803e3d6000fd5b505050506040513d601f19601f8201168201806040525081019061352991906148a9565b90505b801561373b5760006127106135418385614915565b61354b9190614934565b905060007f00000000000000000000000000000000000000000000000000000000000000006001600160a01b0316632ada885a6040518163ffffffff1660e01b8152600401602060405180830381865afa1580156135ad573d6000803e3d6000fd5b505050506040513d601f19601f820116820180604052508101906135d19190614e2e565b905060006001600160a01b038216156135ea578161366c565b7f00000000000000000000000000000000000000000000000000000000000000006001600160a01b031663923c1d616040518163ffffffff1660e01b8152600401602060405180830381865afa158015613648573d6000803e3d6000fd5b505050506040513d601f19601f8201168201806040525081019061366c9190614e2e565b604080518082018252735190f06eacefa2c552dc6bd5e763b81c73293293815290517f7ed810aa000000000000000000000000000000000000000000000000000000008152600481018690529192509060208201906001600160a01b03841690637ed810aa90602401602060405180830381865afa1580156136f2573d6000803e3d6000fd5b505050506040513d601f19601f8201168201806040525081019061371691906148a9565b8152508689518151811061372c5761372c61498b565b60200260200101819052505050505b505b509392505050565b600061374f6122d0565b6040517f1901000000000000000000000000000000000000000000000000000000000000602082015260228101919091526042810186905260620160408051601f198184030181528282528051602091820120600080855291840180845281905260ff88169284019290925260608301869052608083018590529092509060019060a0016020604051602081039080840390855afa1580156137f5573d6000803e3d6000fd5b5050604051601f1901519150506001600160a01b0381161580159061382b5750866001600160a01b0316816001600160a01b0316145b61389c5760405162461bcd60e51b8152602060048201526024808201527f417263683a3a76616c69646174655369673a20696e76616c6964207369676e6160448201527f74757265000000000000000000000000000000000000000000000000000000006064820152608401610aed565b50505050505050565b60006138af613c45565b9050600954811115610b9e576000612710600c54836138ce9190614915565b6138d89190614934565b9050801561391a5760085461391a906001600160a01b037f00000000000000000000000000000000000000000000000000000000000000008116911683612afb565b60008361394157612710600b54846139329190614915565b61393c9190614934565b613944565b60005b90508015613980576139806001600160a01b037f0000000000000000000000000000000000000000000000000000000000000000163383612afb565b600061399f826139908587614892565b61399a9190614892565b613fb7565b90508015610c695760006139b28261260b565b90506139be8282613bc5565b7fc7606d21ac05cd309191543e409f0845c016120563783d70e4f41419dc0ef2346139e76111e4565b6002546040805192835260208301919091520160405180910390a1505050505050565b6000613a5f826040518060400160405280602081526020017f5361666545524332303a206c6f772d6c6576656c2063616c6c206661696c6564815250856001600160a01b03166140e39092919063ffffffff16565b805190915015610f9c5780806020019051810190613a7d91906148c2565b610f9c5760405162461bcd60e51b815260206004820152602a60248201527f5361666545524332303a204552433230206f7065726174696f6e20646964206e60448201527f6f742073756363656564000000000000000000000000000000000000000000006064820152608401610aed565b60008111613b3f5760405162461bcd60e51b815260206004820152601260248201527f5f6d696e743a3a7a65726f2073686172657300000000000000000000000000006044820152606401610aed565b80600254613b4d9190614973565b6002556001600160a01b038216600090815260046020526040902054613b74908290614973565b6001600160a01b0383166000818152600460205260408082209390935591519091907fddf252ad1be2c89b69c2b068fc378daa952ba7f163c4a11628f55a4df523b3ef90612c039085815260200190565b60008211613c3b5760405162461bcd60e51b815260206004820152602260248201527f4261736553747261746567793a3a5374616b6520616d6f756e7420746f6f206c60448201527f6f770000000000000000000000000000000000000000000000000000000000006064820152608401610aed565b610b9e82826140f2565b6000613c4f614273565b6040516370a0823160e01b81523060048201526000907f00000000000000000000000000000000000000000000000000000000000000006001600160a01b0316906370a0823190602401602060405180830381865afa158015613cb6573d6000803e3d6000fd5b505050506040513d601f19601f82011682018060405250810190613cda91906148a9565b600d5490915060005b81811015613faf576000600d8281548110613d0057613d0061498b565b6000918252602090912001546001600160a01b0390811691507f0000000000000000000000000000000000000000000000000000000000000000168103613e2b57478015613dbd577f00000000000000000000000000000000000000000000000000000000000000006001600160a01b031663d0e30db0826040518263ffffffff1660e01b81526004016000604051808303818588803b158015613da357600080fd5b505af1158015613db7573d6000803e3d6000fd5b50505050505b7f00000000000000000000000000000000000000000000000000000000000000006001600160a01b03167f00000000000000000000000000000000000000000000000000000000000000006001600160a01b031603613e2957613e208186614973565b94505050613f9d565b505b6040516370a0823160e01b81523060048201526000906001600160a01b038316906370a0823190602401602060405180830381865afa158015613e72573d6000803e3d6000fd5b505050506040513d601f19601f82011682018060405250810190613e9691906148a9565b9050600081118015613eda57507f00000000000000000000000000000000000000000000000000000000000000006001600160a01b0316826001600160a01b031614155b15613f9a57600e546040516377ccc49d60e11b8152600481018390526001600160a01b0384811660248301527f000000000000000000000000000000000000000000000000000000000000000081166044830152600092169063ef99893a90606401600060405180830381865afa158015613f59573d6000803e3d6000fd5b505050506040513d6000823e601f3d908101601f19168201604052613f819190810190614b33565b9050613f8c816142f7565b613f969087614973565b9550505b50505b80613fa7816149a1565b915050613ce3565b509092915050565b60007f00000000000000000000000000000000000000000000000000000000000000006001600160a01b03167f00000000000000000000000000000000000000000000000000000000000000006001600160a01b031603614016575090565b600e546040516377ccc49d60e11b8152600481018490526001600160a01b037f0000000000000000000000000000000000000000000000000000000000000000811660248301527f000000000000000000000000000000000000000000000000000000000000000081166044830152600092169063ef99893a90606401600060405180830381865afa1580156140b0573d6000803e3d6000fd5b505050506040513d6000823e601f3d908101601f191682016040526140d89190810190614b33565b9050610a67816142f7565b606061226884846000856144a4565b60405163095ea7b360e01b81526001600160a01b037f000000000000000000000000000000000000000000000000000000000000000081166004830152602482018490527f0000000000000000000000000000000000000000000000000000000000000000169063095ea7b3906044016020604051808303816000875af1158015614181573d6000803e3d6000fd5b505050506040513d601f19601f820116820180604052508101906141a591906148c2565b506040517ffe41e5240000000000000000000000000000000000000000000000000000000081526001600160a01b037f0000000000000000000000000000000000000000000000000000000000000000811660048301526024820184905260006044830152600160648301527f0000000000000000000000000000000000000000000000000000000000000000169063fe41e52490608401600060405180830381600087803b15801561425757600080fd5b505af115801561426b573d6000803e3d6000fd5b505050505050565b7f00000000000000000000000000000000000000000000000000000000000000006001600160a01b0316633d18b9126040518163ffffffff1660e01b81526004016020604051808303816000875af11580156142d3573d6000803e3d6000fd5b505050506040513d601f19601f82011682018060405250810190611c0391906148c2565b805151600090158015906143345750815180516000919061431a90600190614892565b8151811061432a5761432a61498b565b6020026020010151115b1561449c5781604001516000815181106143505761435061498b565b60200260200101516001600160a01b031663095ea7b3600e60009054906101000a90046001600160a01b031684600001516000815181106143935761439361498b565b60200260200101516040518363ffffffff1660e01b81526004016143cc9291906001600160a01b03929092168252602082015260400190565b6020604051808303816000875af11580156143eb573d6000803e3d6000fd5b505050506040513d601f19601f8201168201806040525081019061440f91906148c2565b50600e546040517f5b2466160000000000000000000000000000000000000000000000000000000081526001600160a01b0390911690635b24661690614459908590600401614e8f565b6020604051808303816000875af1158015614478573d6000803e3d6000fd5b505050506040513d601f19601f8201168201806040525081019061099491906148a9565b506000919050565b60608247101561451c5760405162461bcd60e51b815260206004820152602660248201527f416464726573733a20696e73756666696369656e742062616c616e636520666f60448201527f722063616c6c00000000000000000000000000000000000000000000000000006064820152608401610aed565b6001600160a01b0385163b6145735760405162461bcd60e51b815260206004820152601d60248201527f416464726573733a2063616c6c20746f206e6f6e2d636f6e74726163740000006044820152606401610aed565b600080866001600160a01b0316858760405161458f9190614f29565b60006040518083038185875af1925050503d80600081146145cc576040519150601f19603f3d011682016040523d82523d6000602084013e6145d1565b606091505b50915091506145e18282866145ec565b979650505050505050565b606083156145fb575081610a67565b82511561460b5782518084602001fd5b8160405162461bcd60e51b8152600401610aed9190614655565b60005b83811015614640578181015183820152602001614628565b8381111561464f576000848401525b50505050565b6020815260008251806020840152614674816040850160208701614625565b601f01601f19169190910160400192915050565b6001600160a01b0381168114611c0357600080fd5b600080604083850312156146b057600080fd5b82356146bb81614688565b946020939093013593505050565b6000602082840312156146db57600080fd5b5035919050565b6000806000606084860312156146f757600080fd5b833561470281614688565b9250602084013561471281614688565b929592945050506040919091013590565b60ff81168114611c0357600080fd5b600080600080600060a0868803121561474a57600080fd5b8535945060208601359350604086013561476381614723565b94979396509394606081013594506080013592915050565b60006020828403121561478d57600080fd5b8135610a6781614688565b600080604083850312156147ab57600080fd5b82356147b681614688565b915060208301356147c681614688565b809150509250929050565b600080600080600080600060e0888a0312156147ec57600080fd5b87356147f781614688565b9650602088013561480781614688565b95506040880135945060608801359350608088013561482581614723565b9699959850939692959460a0840135945060c09093013592915050565b600181811c9082168061485657607f821691505b60208210810361487657634e487b7160e01b600052602260045260246000fd5b50919050565b634e487b7160e01b600052601160045260246000fd5b6000828210156148a4576148a461487c565b500390565b6000602082840312156148bb57600080fd5b5051919050565b6000602082840312156148d457600080fd5b81518015158114610a6757600080fd5b6000602082840312156148f657600080fd5b81516effffffffffffffffffffffffffffff81168114610a6757600080fd5b600081600019048311821515161561492f5761492f61487c565b500290565b60008261495157634e487b7160e01b600052601260045260246000fd5b500490565b60006020828403121561496857600080fd5b8151610a6781614723565b600082198211156149865761498661487c565b500190565b634e487b7160e01b600052603260045260246000fd5b6000600182016149b3576149b361487c565b5060010190565b634e487b7160e01b600052603160045260246000fd5b634e487b7160e01b600052604160045260246000fd5b6040516080810167ffffffffffffffff81118282101715614a0957614a096149d0565b60405290565b604051601f8201601f1916810167ffffffffffffffff81118282101715614a3857614a386149d0565b604052919050565b600067ffffffffffffffff821115614a5a57614a5a6149d0565b5060051b60200190565b600082601f830112614a7557600080fd5b81516020614a8a614a8583614a40565b614a0f565b82815260059290921b84018101918181019086841115614aa957600080fd5b8286015b84811015614ac45780518352918301918301614aad565b509695505050505050565b600082601f830112614ae057600080fd5b81516020614af0614a8583614a40565b82815260059290921b84018101918181019086841115614b0f57600080fd5b8286015b84811015614ac4578051614b2681614688565b8352918301918301614b13565b600060208284031215614b4557600080fd5b815167ffffffffffffffff80821115614b5d57600080fd5b9083019060808286031215614b7157600080fd5b614b796149e6565b825182811115614b8857600080fd5b614b9487828601614a64565b825250602083015182811115614ba957600080fd5b614bb587828601614acf565b602083015250604083015182811115614bcd57600080fd5b614bd987828601614acf565b6040830152506060830151606082015280935050505092915050565b600080835481600182811c915080831680614c1157607f831692505b60208084108203614c3057634e487b7160e01b86526022600452602486fd5b818015614c445760018114614c5557614c82565b60ff19861689528489019650614c82565b60008a81526020902060005b86811015614c7a5781548b820152908501908301614c61565b505084890196505b509498975050505050505050565b60008060408385031215614ca357600080fd5b505080516020909101519092909150565b600060ff821660ff841680821015614cce57614cce61487c565b90039392505050565b600181815b80851115614d12578160001904821115614cf857614cf861487c565b80851615614d0557918102915b93841c9390800290614cdc565b509250929050565b600082614d2957506001610994565b81614d3657506000610994565b8160018114614d4c5760028114614d5657614d72565b6001915050610994565b60ff841115614d6757614d6761487c565b50506001821b610994565b5060208310610133831016604e8410600b8410161715614d95575081810a610994565b614d9f8383614cd7565b8060001904821115614db357614db361487c565b029392505050565b6000610a6760ff841683614d1a565b60008060408385031215614ddd57600080fd5b825167ffffffffffffffff80821115614df557600080fd5b614e0186838701614acf565b93506020850151915080821115614e1757600080fd5b50614e2485828601614a64565b9150509250929050565b600060208284031215614e4057600080fd5b8151610a6781614688565b600081518084526020808501945080840160005b83811015614e845781516001600160a01b031687529582019590820190600101614e5f565b509495945050505050565b60208082528251608083830152805160a0840181905260009291820190839060c08601905b80831015614ed45783518252928401926001929092019190840190614eb4565b50838701519350601f19925082868203016040870152614ef48185614e4b565b93505050604085015181858403016060860152614f118382614e4b565b92505050606084015160808401528091505092915050565b60008251614f3b818460208701614625565b919091019291505056fea2646970667358221220744a4dad3f6407ec5a5f7e2ca1162ad67ea85d22ccb2b0263fe7786065d4ae6c64736f6c634300080d00334f776e61626c653a2063616c6c6572206973206e6f7420746865206f776e65728be0079c531659141344cd1fd0a4f28419497f9722a3daafe3b4186f6b6457e0",
  "devdoc": {
    "kind": "dev",
    "methods": {
      "allowance(address,address)": {
        "params": {
          "account": "The address of the account holding the funds",
          "spender": "The address of the account spending the funds"
        },
        "returns": {
          "_0": "The number of tokens approved"
        }
      },
      "approve(address,uint256)": {
        "details": "This will overwrite the approval amount for `spender` and is subject to issues noted [here](https://eips.ethereum.org/EIPS/eip-20#approve) It is recommended to use increaseAllowance and decreaseAllowance instead",
        "params": {
          "amount": "The number of tokens that are approved (2^256-1 means infinite)",
          "spender": "The address of the account which may transfer tokens"
        },
        "returns": {
          "_0": "Whether or not the approval succeeded"
        }
      },
      "balanceOf(address)": {
        "params": {
          "account": "The address of the account to get the balance of"
        },
        "returns": {
          "_0": "The number of tokens held"
        }
      },
      "checkReward()": {
        "returns": {
          "_0": "reward tokens"
        }
      },
      "deposit(uint256)": {
        "params": {
          "_amount": "Amount of tokens to deposit"
        }
      },
      "depositWithPermit(uint256,uint256,uint8,bytes32,bytes32)": {
        "params": {
          "_amount": "Amount of tokens to deposit",
          "_deadline": "The time at which to expire the signature",
          "_r": "Half of the ECDSA signature pair",
          "_s": "Half of the ECDSA signature pair",
          "_v": "The recovery byte of the signature"
        }
      },
      "estimateReinvestReward()": {
        "returns": {
          "_0": "reward tokens"
        }
      },
      "getDepositTokensForShares(uint256)": {
        "params": {
          "amount": "receipt tokens"
        },
        "returns": {
          "_0": "deposit tokens"
        }
      },
      "getDomainSeparator()": {
        "returns": {
          "_0": "Separator"
        }
      },
      "getSharesForDepositTokens(uint256)": {
        "details": "If contract is empty, use 1:1 ratioCould return zero shares for very low amounts of deposit tokens",
        "params": {
          "amount": "deposit tokens"
        },
        "returns": {
          "_0": "receipt tokens"
        }
      },
      "owner()": {
        "details": "Returns the address of the current owner."
      },
      "permit(address,address,uint256,uint256,uint8,bytes32,bytes32)": {
        "params": {
          "deadline": "The time at which to expire the signature",
          "owner": "The address to approve from",
          "r": "Half of the ECDSA signature pair",
          "s": "Half of the ECDSA signature pair",
          "spender": "The address to be approved",
          "v": "The recovery byte of the signature",
          "value": "The number of tokens that are approved (2^256-1 means infinite)"
        }
      },
      "recoverERC20(address,uint256)": {
        "params": {
          "tokenAddress": "token address",
          "tokenAmount": "amount to recover"
        }
      },
      "recoverGas(uint256)": {
        "params": {
          "amount": "amount"
        }
      },
      "renounceOwnership()": {
        "details": "Leaves the contract without owner. It will not be possible to call `onlyOwner` functions anymore. Can only be called by the current owner. NOTE: Renouncing ownership will leave the contract without an owner, thereby removing any functionality that is only available to the owner."
      },
      "revokeAllowance(address,address)": {
        "params": {
          "spender": "address",
          "token": "address"
        }
      },
      "totalDeposits()": {
        "returns": {
          "_0": "total deposits available on the contract"
        }
      },
      "transfer(address,uint256)": {
        "params": {
          "amount": "The number of tokens to transfer",
          "dst": "The address of the destination account"
        },
        "returns": {
          "_0": "Whether or not the transfer succeeded"
        }
      },
      "transferFrom(address,address,uint256)": {
        "params": {
          "amount": "The number of tokens to transfer",
          "dst": "The address of the destination account",
          "src": "The address of the source account"
        },
        "returns": {
          "_0": "Whether or not the transfer succeeded"
        }
      },
      "transferOwnership(address)": {
        "details": "Transfers ownership of the contract to a new account (`newOwner`). Can only be called by the current owner."
      },
      "updateDevAddr(address)": {
        "params": {
          "newValue": "address"
        }
      },
      "updateDevFee(uint256)": {
        "params": {
          "newValue": "fee in BIPS"
        }
      },
      "updateFeeCollector(address)": {
        "params": {
          "newValue": "address"
        }
      },
      "updateMinTokensToReinvest(uint256)": {
        "params": {
          "newValue": "threshold"
        }
      },
      "updateReinvestReward(uint256)": {
        "params": {
          "newValue": "fee in BIPS"
        }
      }
    },
    "version": 1
  },
  "userdoc": {
    "kind": "user",
    "methods": {
      "allowance(address,address)": {
        "notice": "Get the number of tokens `spender` is approved to spend on behalf of `account`"
      },
      "approve(address,uint256)": {
        "notice": "Approve `spender` to transfer up to `amount` from `src`"
      },
      "balanceOf(address)": {
        "notice": "Get the number of tokens held by the `account`"
      },
      "checkReward()": {
        "notice": "Reward tokens available to strategy, including balance"
      },
      "deposit(uint256)": {
        "notice": "Deposit tokens to receive receipt tokens"
      },
      "depositWithPermit(uint256,uint256,uint8,bytes32,bytes32)": {
        "notice": "Deposit using Permit"
      },
      "disableDeposits()": {
        "notice": "Disable deposits"
      },
      "enableDeposits()": {
        "notice": "Enable deposits"
      },
      "estimateReinvestReward()": {
        "notice": "Estimate reinvest reward"
      },
      "getDepositTokensForShares(uint256)": {
        "notice": "Calculate deposit tokens for a given amount of receipt tokens"
      },
      "getDomainSeparator()": {
        "notice": "EIP-712 Domain separator"
      },
      "getSharesForDepositTokens(uint256)": {
        "notice": "Calculate receipt tokens for a given amount of deposit tokens"
      },
      "permit(address,address,uint256,uint256,uint8,bytes32,bytes32)": {
        "notice": "Triggers an approval from owner to spender"
      },
      "recoverERC20(address,uint256)": {
        "notice": "Recover ERC20 from contract"
      },
      "recoverGas(uint256)": {
        "notice": "Recover GAS from contract"
      },
      "reinvest()": {
        "notice": "Reinvest reward tokens into deposit tokens"
      },
      "revokeAllowance(address,address)": {
        "notice": "Revoke token allowance"
      },
      "totalDeposits()": {
        "notice": "This function returns a snapshot of last available quotes"
      },
      "transfer(address,uint256)": {
        "notice": "Transfer `amount` tokens from `msg.sender` to `dst`"
      },
      "transferFrom(address,address,uint256)": {
        "notice": "Transfer `amount` tokens from `src` to `dst`"
      },
      "updateDevAddr(address)": {
        "notice": "Update devAddr"
      },
      "updateDevFee(uint256)": {
        "notice": "Update developer fee"
      },
      "updateFeeCollector(address)": {
        "notice": "Update feeCollector"
      },
      "updateMinTokensToReinvest(uint256)": {
        "notice": "Update reinvest min threshold"
      },
      "updateReinvestReward(uint256)": {
        "notice": "Update reinvest reward"
      }
    },
    "version": 1
  },
  "storageLayout": {
    "storage": [
      {
        "astId": 552,
        "contract": "contracts/strategies/arbitrum/wombex/WombexStrategy.sol:WombexStrategy",
        "label": "name",
        "offset": 0,
        "slot": "0",
        "type": "t_string_storage"
      },
      {
        "astId": 555,
        "contract": "contracts/strategies/arbitrum/wombex/WombexStrategy.sol:WombexStrategy",
        "label": "symbol",
        "offset": 0,
        "slot": "1",
        "type": "t_string_storage"
      },
      {
        "astId": 560,
        "contract": "contracts/strategies/arbitrum/wombex/WombexStrategy.sol:WombexStrategy",
        "label": "totalSupply",
        "offset": 0,
        "slot": "2",
        "type": "t_uint256"
      },
      {
        "astId": 566,
        "contract": "contracts/strategies/arbitrum/wombex/WombexStrategy.sol:WombexStrategy",
        "label": "allowances",
        "offset": 0,
        "slot": "3",
        "type": "t_mapping(t_address,t_mapping(t_address,t_uint256))"
      },
      {
        "astId": 570,
        "contract": "contracts/strategies/arbitrum/wombex/WombexStrategy.sol:WombexStrategy",
        "label": "balances",
        "offset": 0,
        "slot": "4",
        "type": "t_mapping(t_address,t_uint256)"
      },
      {
        "astId": 586,
        "contract": "contracts/strategies/arbitrum/wombex/WombexStrategy.sol:WombexStrategy",
        "label": "nonces",
        "offset": 0,
        "slot": "5",
        "type": "t_mapping(t_address,t_uint256)"
      },
      {
        "astId": 8982,
        "contract": "contracts/strategies/arbitrum/wombex/WombexStrategy.sol:WombexStrategy",
        "label": "_owner",
        "offset": 0,
        "slot": "6",
        "type": "t_address"
      },
      {
        "astId": 2566,
        "contract": "contracts/strategies/arbitrum/wombex/WombexStrategy.sol:WombexStrategy",
        "label": "devAddr",
        "offset": 0,
        "slot": "7",
        "type": "t_address"
      },
      {
        "astId": 2568,
        "contract": "contracts/strategies/arbitrum/wombex/WombexStrategy.sol:WombexStrategy",
        "label": "feeCollector",
        "offset": 0,
        "slot": "8",
        "type": "t_address"
      },
      {
        "astId": 2570,
        "contract": "contracts/strategies/arbitrum/wombex/WombexStrategy.sol:WombexStrategy",
        "label": "MIN_TOKENS_TO_REINVEST",
        "offset": 0,
        "slot": "9",
        "type": "t_uint256"
      },
      {
        "astId": 2572,
        "contract": "contracts/strategies/arbitrum/wombex/WombexStrategy.sol:WombexStrategy",
        "label": "DEPOSITS_ENABLED",
        "offset": 0,
        "slot": "10",
        "type": "t_bool"
      },
      {
        "astId": 2574,
        "contract": "contracts/strategies/arbitrum/wombex/WombexStrategy.sol:WombexStrategy",
        "label": "REINVEST_REWARD_BIPS",
        "offset": 0,
        "slot": "11",
        "type": "t_uint256"
      },
      {
        "astId": 2576,
        "contract": "contracts/strategies/arbitrum/wombex/WombexStrategy.sol:WombexStrategy",
        "label": "DEV_FEE_BIPS",
        "offset": 0,
        "slot": "12",
        "type": "t_uint256"
      },
      {
        "astId": 10581,
        "contract": "contracts/strategies/arbitrum/wombex/WombexStrategy.sol:WombexStrategy",
        "label": "supportedRewards",
        "offset": 0,
        "slot": "13",
        "type": "t_array(t_address)dyn_storage"
      },
      {
        "astId": 10584,
        "contract": "contracts/strategies/arbitrum/wombex/WombexStrategy.sol:WombexStrategy",
        "label": "simpleRouter",
        "offset": 0,
        "slot": "14",
        "type": "t_contract(ISimpleRouter)6390"
      }
    ],
    "types": {
      "t_address": {
        "encoding": "inplace",
        "label": "address",
        "numberOfBytes": "20"
      },
      "t_array(t_address)dyn_storage": {
        "base": "t_address",
        "encoding": "dynamic_array",
        "label": "address[]",
        "numberOfBytes": "32"
      },
      "t_bool": {
        "encoding": "inplace",
        "label": "bool",
        "numberOfBytes": "1"
      },
      "t_contract(ISimpleRouter)6390": {
        "encoding": "inplace",
        "label": "contract ISimpleRouter",
        "numberOfBytes": "20"
      },
      "t_mapping(t_address,t_mapping(t_address,t_uint256))": {
        "encoding": "mapping",
        "key": "t_address",
        "label": "mapping(address => mapping(address => uint256))",
        "numberOfBytes": "32",
        "value": "t_mapping(t_address,t_uint256)"
      },
      "t_mapping(t_address,t_uint256)": {
        "encoding": "mapping",
        "key": "t_address",
        "label": "mapping(address => uint256)",
        "numberOfBytes": "32",
        "value": "t_uint256"
      },
      "t_string_storage": {
        "encoding": "bytes",
        "label": "string",
        "numberOfBytes": "32"
      },
      "t_uint256": {
        "encoding": "inplace",
        "label": "uint256",
        "numberOfBytes": "32"
      }
    }
  }
}